{
	"contracts/OrderBook.sol": {
		"OrderBook": {
			"abi": [
				{
					"inputs": [
						{
							"internalType": "uint256",
							"name": "_commission",
							"type": "uint256"
						}
					],
					"stateMutability": "nonpayable",
					"type": "constructor"
				},
				{
					"anonymous": false,
					"inputs": [
						{
							"indexed": false,
							"internalType": "address",
							"name": "",
							"type": "address"
						},
						{
							"indexed": false,
							"internalType": "uint256",
							"name": "",
							"type": "uint256"
						},
						{
							"indexed": false,
							"internalType": "uint256",
							"name": "",
							"type": "uint256"
						},
						{
							"indexed": false,
							"internalType": "enum OrderBook.State",
							"name": "",
							"type": "uint8"
						},
						{
							"indexed": false,
							"internalType": "uint256",
							"name": "",
							"type": "uint256"
						},
						{
							"indexed": false,
							"internalType": "uint256",
							"name": "",
							"type": "uint256"
						},
						{
							"indexed": false,
							"internalType": "uint256",
							"name": "",
							"type": "uint256"
						},
						{
							"indexed": false,
							"internalType": "bool",
							"name": "",
							"type": "bool"
						}
					],
					"name": "orderCreated",
					"type": "event"
				},
				{
					"inputs": [],
					"name": "askCount",
					"outputs": [
						{
							"internalType": "uint256",
							"name": "",
							"type": "uint256"
						}
					],
					"stateMutability": "view",
					"type": "function"
				},
				{
					"inputs": [],
					"name": "askHead",
					"outputs": [
						{
							"internalType": "uint256",
							"name": "",
							"type": "uint256"
						}
					],
					"stateMutability": "view",
					"type": "function"
				},
				{
					"inputs": [],
					"name": "askTail",
					"outputs": [
						{
							"internalType": "uint256",
							"name": "",
							"type": "uint256"
						}
					],
					"stateMutability": "view",
					"type": "function"
				},
				{
					"inputs": [],
					"name": "bidCount",
					"outputs": [
						{
							"internalType": "uint256",
							"name": "",
							"type": "uint256"
						}
					],
					"stateMutability": "view",
					"type": "function"
				},
				{
					"inputs": [],
					"name": "bidHead",
					"outputs": [
						{
							"internalType": "uint256",
							"name": "",
							"type": "uint256"
						}
					],
					"stateMutability": "view",
					"type": "function"
				},
				{
					"inputs": [],
					"name": "bidTail",
					"outputs": [
						{
							"internalType": "uint256",
							"name": "",
							"type": "uint256"
						}
					],
					"stateMutability": "view",
					"type": "function"
				},
				{
					"inputs": [
						{
							"internalType": "uint256",
							"name": "askId",
							"type": "uint256"
						}
					],
					"name": "cancelAsk",
					"outputs": [],
					"stateMutability": "nonpayable",
					"type": "function"
				},
				{
					"inputs": [
						{
							"internalType": "uint256",
							"name": "bidId",
							"type": "uint256"
						}
					],
					"name": "cancelBid",
					"outputs": [],
					"stateMutability": "nonpayable",
					"type": "function"
				},
				{
					"inputs": [],
					"name": "fetchAllBid",
					"outputs": [
						{
							"components": [
								{
									"internalType": "address payable",
									"name": "customer",
									"type": "address"
								},
								{
									"internalType": "uint256",
									"name": "value",
									"type": "uint256"
								},
								{
									"internalType": "uint256",
									"name": "timestamp",
									"type": "uint256"
								},
								{
									"internalType": "enum OrderBook.State",
									"name": "state",
									"type": "uint8"
								},
								{
									"internalType": "uint256",
									"name": "id",
									"type": "uint256"
								},
								{
									"internalType": "uint256",
									"name": "next",
									"type": "uint256"
								},
								{
									"internalType": "uint256",
									"name": "prev",
									"type": "uint256"
								},
								{
									"internalType": "bool",
									"name": "delb",
									"type": "bool"
								}
							],
							"internalType": "struct OrderBook.order[]",
							"name": "",
							"type": "tuple[]"
						}
					],
					"stateMutability": "nonpayable",
					"type": "function"
				},
				{
					"inputs": [],
					"name": "fetchYourAskIds",
					"outputs": [
						{
							"internalType": "uint256[]",
							"name": "",
							"type": "uint256[]"
						}
					],
					"stateMutability": "nonpayable",
					"type": "function"
				},
				{
					"inputs": [],
					"name": "fetchYourBidIds",
					"outputs": [
						{
							"internalType": "uint256[]",
							"name": "",
							"type": "uint256[]"
						}
					],
					"stateMutability": "nonpayable",
					"type": "function"
				},
				{
					"inputs": [
						{
							"internalType": "uint256",
							"name": "id",
							"type": "uint256"
						}
					],
					"name": "getAskAddress",
					"outputs": [
						{
							"internalType": "address payable",
							"name": "",
							"type": "address"
						}
					],
					"stateMutability": "view",
					"type": "function"
				},
				{
					"inputs": [
						{
							"internalType": "uint256",
							"name": "id",
							"type": "uint256"
						}
					],
					"name": "getAskState",
					"outputs": [
						{
							"internalType": "enum OrderBook.State",
							"name": "",
							"type": "uint8"
						}
					],
					"stateMutability": "view",
					"type": "function"
				},
				{
					"inputs": [
						{
							"internalType": "uint256",
							"name": "id",
							"type": "uint256"
						}
					],
					"name": "getAskValue",
					"outputs": [
						{
							"internalType": "uint256",
							"name": "",
							"type": "uint256"
						}
					],
					"stateMutability": "view",
					"type": "function"
				},
				{
					"inputs": [
						{
							"internalType": "uint256",
							"name": "id",
							"type": "uint256"
						}
					],
					"name": "getBidAddress",
					"outputs": [
						{
							"internalType": "address payable",
							"name": "",
							"type": "address"
						}
					],
					"stateMutability": "view",
					"type": "function"
				},
				{
					"inputs": [
						{
							"internalType": "uint256",
							"name": "id",
							"type": "uint256"
						}
					],
					"name": "getBidState",
					"outputs": [
						{
							"internalType": "enum OrderBook.State",
							"name": "",
							"type": "uint8"
						}
					],
					"stateMutability": "view",
					"type": "function"
				},
				{
					"inputs": [
						{
							"internalType": "uint256",
							"name": "id",
							"type": "uint256"
						}
					],
					"name": "getBidValue",
					"outputs": [
						{
							"internalType": "uint256",
							"name": "",
							"type": "uint256"
						}
					],
					"stateMutability": "view",
					"type": "function"
				},
				{
					"inputs": [
						{
							"internalType": "uint256",
							"name": "id",
							"type": "uint256"
						}
					],
					"name": "getOrder",
					"outputs": [
						{
							"internalType": "address payable",
							"name": "",
							"type": "address"
						},
						{
							"internalType": "uint256",
							"name": "",
							"type": "uint256"
						},
						{
							"internalType": "uint256",
							"name": "",
							"type": "uint256"
						},
						{
							"internalType": "enum OrderBook.State",
							"name": "",
							"type": "uint8"
						},
						{
							"internalType": "uint256",
							"name": "",
							"type": "uint256"
						},
						{
							"internalType": "uint256",
							"name": "",
							"type": "uint256"
						},
						{
							"internalType": "uint256",
							"name": "",
							"type": "uint256"
						},
						{
							"internalType": "bool",
							"name": "",
							"type": "bool"
						}
					],
					"stateMutability": "view",
					"type": "function"
				},
				{
					"inputs": [
						{
							"internalType": "uint256",
							"name": "price",
							"type": "uint256"
						}
					],
					"name": "placeAsk",
					"outputs": [],
					"stateMutability": "payable",
					"type": "function"
				},
				{
					"inputs": [
						{
							"internalType": "uint256",
							"name": "price",
							"type": "uint256"
						}
					],
					"name": "placeBid",
					"outputs": [],
					"stateMutability": "payable",
					"type": "function"
				}
			],
			"devdoc": {
				"kind": "dev",
				"methods": {},
				"version": 1
			},
			"evm": {
				"assembly": "    /* \"contracts/OrderBook.sol\":1047:6911  contract OrderBook {... */\n  mstore(0x40, 0x80)\n    /* \"contracts/OrderBook.sol\":1350:1360  msg.sender */\n  caller\n    /* \"contracts/OrderBook.sol\":1317:1361  address payable _owner = payable(msg.sender) */\n  0x03\n  exp(0x0100, 0x00)\n  dup2\n  sload\n  dup2\n  0xffffffffffffffffffffffffffffffffffffffff\n  mul\n  not\n  and\n  swap1\n  dup4\n  0xffffffffffffffffffffffffffffffffffffffff\n  and\n  mul\n  or\n  swap1\n  sstore\n  pop\n    /* \"contracts/OrderBook.sol\":2381:2584  constructor (uint256 _commission) {... */\n  callvalue\n  dup1\n  iszero\n  tag_1\n  jumpi\n  0x00\n  dup1\n  revert\ntag_1:\n  pop\n  mload(0x40)\n  sub(codesize, bytecodeSize)\n  dup1\n  bytecodeSize\n  dup4\n  codecopy\n  dup2\n  dup2\n  add\n  0x40\n  mstore\n  dup2\n  add\n  swap1\n  tag_2\n  swap2\n  swap1\n  tag_3\n  jump\t// in\ntag_2:\n    /* \"contracts/OrderBook.sol\":2438:2449  _commission */\n  dup1\n    /* \"contracts/OrderBook.sol\":2425:2435  commission */\n  0x04\n    /* \"contracts/OrderBook.sol\":2425:2449  commission = _commission */\n  dup2\n  swap1\n  sstore\n  pop\n    /* \"contracts/OrderBook.sol\":2469:2470  0 */\n  0x00\n    /* \"contracts/OrderBook.sol\":2459:2466  bidHead */\n  0x06\n    /* \"contracts/OrderBook.sol\":2459:2470  bidHead = 0 */\n  dup2\n  swap1\n  sstore\n  pop\n    /* \"contracts/OrderBook.sol\":2490:2491  0 */\n  0x00\n    /* \"contracts/OrderBook.sol\":2480:2487  bidTail */\n  0x07\n    /* \"contracts/OrderBook.sol\":2480:2491  bidTail = 0 */\n  dup2\n  swap1\n  sstore\n  pop\n    /* \"contracts/OrderBook.sol\":2512:2513  0 */\n  0x00\n    /* \"contracts/OrderBook.sol\":2501:2509  bidCount */\n  0x08\n    /* \"contracts/OrderBook.sol\":2501:2513  bidCount = 0 */\n  dup2\n  swap1\n  sstore\n  pop\n    /* \"contracts/OrderBook.sol\":2533:2534  0 */\n  0x00\n    /* \"contracts/OrderBook.sol\":2523:2530  askHead */\n  0x0a\n    /* \"contracts/OrderBook.sol\":2523:2534  askHead = 0 */\n  dup2\n  swap1\n  sstore\n  pop\n    /* \"contracts/OrderBook.sol\":2554:2555  0 */\n  0x00\n    /* \"contracts/OrderBook.sol\":2544:2551  askTail */\n  0x0b\n    /* \"contracts/OrderBook.sol\":2544:2555  askTail = 0 */\n  dup2\n  swap1\n  sstore\n  pop\n    /* \"contracts/OrderBook.sol\":2576:2577  0 */\n  0x00\n    /* \"contracts/OrderBook.sol\":2565:2573  askCount */\n  0x0c\n    /* \"contracts/OrderBook.sol\":2565:2577  askCount = 0 */\n  dup2\n  swap1\n  sstore\n  pop\n    /* \"contracts/OrderBook.sol\":2381:2584  constructor (uint256 _commission) {... */\n  pop\n    /* \"contracts/OrderBook.sol\":1047:6911  contract OrderBook {... */\n  jump(tag_6)\n    /* \"#utility.yul\":88:205   */\ntag_8:\n    /* \"#utility.yul\":197:198   */\n  0x00\n    /* \"#utility.yul\":194:195   */\n  dup1\n    /* \"#utility.yul\":187:199   */\n  revert\n    /* \"#utility.yul\":334:411   */\ntag_10:\n    /* \"#utility.yul\":371:378   */\n  0x00\n    /* \"#utility.yul\":400:405   */\n  dup2\n    /* \"#utility.yul\":389:405   */\n  swap1\n  pop\n    /* \"#utility.yul\":334:411   */\n  swap2\n  swap1\n  pop\n  jump\t// out\n    /* \"#utility.yul\":417:539   */\ntag_11:\n    /* \"#utility.yul\":490:514   */\n  tag_19\n    /* \"#utility.yul\":508:513   */\n  dup2\n    /* \"#utility.yul\":490:514   */\n  tag_10\n  jump\t// in\ntag_19:\n    /* \"#utility.yul\":483:488   */\n  dup2\n    /* \"#utility.yul\":480:515   */\n  eq\n    /* \"#utility.yul\":470:533   */\n  tag_20\n  jumpi\n    /* \"#utility.yul\":529:530   */\n  0x00\n    /* \"#utility.yul\":526:527   */\n  dup1\n    /* \"#utility.yul\":519:531   */\n  revert\n    /* \"#utility.yul\":470:533   */\ntag_20:\n    /* \"#utility.yul\":417:539   */\n  pop\n  jump\t// out\n    /* \"#utility.yul\":545:688   */\ntag_12:\n    /* \"#utility.yul\":602:607   */\n  0x00\n    /* \"#utility.yul\":633:639   */\n  dup2\n    /* \"#utility.yul\":627:640   */\n  mload\n    /* \"#utility.yul\":618:640   */\n  swap1\n  pop\n    /* \"#utility.yul\":649:682   */\n  tag_22\n    /* \"#utility.yul\":676:681   */\n  dup2\n    /* \"#utility.yul\":649:682   */\n  tag_11\n  jump\t// in\ntag_22:\n    /* \"#utility.yul\":545:688   */\n  swap3\n  swap2\n  pop\n  pop\n  jump\t// out\n    /* \"#utility.yul\":694:1045   */\ntag_3:\n    /* \"#utility.yul\":764:770   */\n  0x00\n    /* \"#utility.yul\":813:815   */\n  0x20\n    /* \"#utility.yul\":801:810   */\n  dup3\n    /* \"#utility.yul\":792:799   */\n  dup5\n    /* \"#utility.yul\":788:811   */\n  sub\n    /* \"#utility.yul\":784:816   */\n  slt\n    /* \"#utility.yul\":781:900   */\n  iszero\n  tag_24\n  jumpi\n    /* \"#utility.yul\":819:898   */\n  tag_25\n  tag_8\n  jump\t// in\ntag_25:\n    /* \"#utility.yul\":781:900   */\ntag_24:\n    /* \"#utility.yul\":939:940   */\n  0x00\n    /* \"#utility.yul\":964:1028   */\n  tag_26\n    /* \"#utility.yul\":1020:1027   */\n  dup5\n    /* \"#utility.yul\":1011:1017   */\n  dup3\n    /* \"#utility.yul\":1000:1009   */\n  dup6\n    /* \"#utility.yul\":996:1018   */\n  add\n    /* \"#utility.yul\":964:1028   */\n  tag_12\n  jump\t// in\ntag_26:\n    /* \"#utility.yul\":954:1028   */\n  swap2\n  pop\n    /* \"#utility.yul\":910:1038   */\n  pop\n    /* \"#utility.yul\":694:1045   */\n  swap3\n  swap2\n  pop\n  pop\n  jump\t// out\n    /* \"contracts/OrderBook.sol\":1047:6911  contract OrderBook {... */\ntag_6:\n  dataSize(sub_0)\n  dup1\n  dataOffset(sub_0)\n  0x00\n  codecopy\n  0x00\n  return\nstop\n\nsub_0: assembly {\n        /* \"contracts/OrderBook.sol\":1047:6911  contract OrderBook {... */\n      mstore(0x40, 0x80)\n      jumpi(tag_1, lt(calldatasize, 0x04))\n      shr(0xe0, calldataload(0x00))\n      dup1\n      0x801d9bbd\n      gt\n      tag_22\n      jumpi\n      dup1\n      0xbf77ffae\n      gt\n      tag_23\n      jumpi\n      dup1\n      0xbf77ffae\n      eq\n      tag_17\n      jumpi\n      dup1\n      0xce0cdc87\n      eq\n      tag_18\n      jumpi\n      dup1\n      0xd09ef241\n      eq\n      tag_19\n      jumpi\n      dup1\n      0xdb3a1396\n      eq\n      tag_20\n      jumpi\n      dup1\n      0xecdfb860\n      eq\n      tag_21\n      jumpi\n      jump(tag_1)\n    tag_23:\n      dup1\n      0x801d9bbd\n      eq\n      tag_12\n      jumpi\n      dup1\n      0x9703ef35\n      eq\n      tag_13\n      jumpi\n      dup1\n      0x9979ef45\n      eq\n      tag_14\n      jumpi\n      dup1\n      0xa394fda7\n      eq\n      tag_15\n      jumpi\n      dup1\n      0xb40a5627\n      eq\n      tag_16\n      jumpi\n      jump(tag_1)\n    tag_22:\n      dup1\n      0x69f632e2\n      gt\n      tag_24\n      jumpi\n      dup1\n      0x69f632e2\n      eq\n      tag_7\n      jumpi\n      dup1\n      0x6e5b0f00\n      eq\n      tag_8\n      jumpi\n      dup1\n      0x734a2e78\n      eq\n      tag_9\n      jumpi\n      dup1\n      0x78c5b268\n      eq\n      tag_10\n      jumpi\n      dup1\n      0x7bb51193\n      eq\n      tag_11\n      jumpi\n      jump(tag_1)\n    tag_24:\n      dup1\n      0x122de8f2\n      eq\n      tag_2\n      jumpi\n      dup1\n      0x1628e0f5\n      eq\n      tag_3\n      jumpi\n      dup1\n      0x2db6dfa7\n      eq\n      tag_4\n      jumpi\n      dup1\n      0x4471417f\n      eq\n      tag_5\n      jumpi\n      dup1\n      0x4d46712d\n      eq\n      tag_6\n      jumpi\n    tag_1:\n      0x00\n      dup1\n      revert\n        /* \"contracts/OrderBook.sol\":5663:5932  function fetchYourAskIds() public returns (uint[] memory) {... */\n    tag_2:\n      callvalue\n      dup1\n      iszero\n      tag_25\n      jumpi\n      0x00\n      dup1\n      revert\n    tag_25:\n      pop\n      tag_26\n      tag_27\n      jump\t// in\n    tag_26:\n      mload(0x40)\n      tag_28\n      swap2\n      swap1\n      tag_29\n      jump\t// in\n    tag_28:\n      mload(0x40)\n      dup1\n      swap2\n      sub\n      swap1\n      return\n        /* \"contracts/OrderBook.sol\":4831:5120  function cancelAsk (uint askId) public isPending(askBook[askId]) isAuthorised(askBook[askId], msg.sender) {... */\n    tag_3:\n      callvalue\n      dup1\n      iszero\n      tag_30\n      jumpi\n      0x00\n      dup1\n      revert\n    tag_30:\n      pop\n      tag_31\n      0x04\n      dup1\n      calldatasize\n      sub\n      dup2\n      add\n      swap1\n      tag_32\n      swap2\n      swap1\n      tag_33\n      jump\t// in\n    tag_32:\n      tag_34\n      jump\t// in\n    tag_31:\n      stop\n        /* \"contracts/OrderBook.sol\":6490:6591  function getBidValue (uint id) public view returns(uint256) {... */\n    tag_4:\n      callvalue\n      dup1\n      iszero\n      tag_35\n      jumpi\n      0x00\n      dup1\n      revert\n    tag_35:\n      pop\n      tag_36\n      0x04\n      dup1\n      calldatasize\n      sub\n      dup2\n      add\n      swap1\n      tag_37\n      swap2\n      swap1\n      tag_33\n      jump\t// in\n    tag_37:\n      tag_38\n      jump\t// in\n    tag_36:\n      mload(0x40)\n      tag_39\n      swap2\n      swap1\n      tag_40\n      jump\t// in\n    tag_39:\n      mload(0x40)\n      dup1\n      swap2\n      sub\n      swap1\n      return\n        /* \"contracts/OrderBook.sol\":5154:5249  function fetchAllBid() public returns (order[] memory) {... */\n    tag_5:\n      callvalue\n      dup1\n      iszero\n      tag_41\n      jumpi\n      0x00\n      dup1\n      revert\n    tag_41:\n      pop\n      tag_42\n      tag_43\n      jump\t// in\n    tag_42:\n      mload(0x40)\n      tag_44\n      swap2\n      swap1\n      tag_45\n      jump\t// in\n    tag_44:\n      mload(0x40)\n      dup1\n      swap2\n      sub\n      swap1\n      return\n        /* \"contracts/OrderBook.sol\":6809:6908  function getAskState (uint id) public view returns(State) {... */\n    tag_6:\n      callvalue\n      dup1\n      iszero\n      tag_46\n      jumpi\n      0x00\n      dup1\n      revert\n    tag_46:\n      pop\n      tag_47\n      0x04\n      dup1\n      calldatasize\n      sub\n      dup2\n      add\n      swap1\n      tag_48\n      swap2\n      swap1\n      tag_33\n      jump\t// in\n    tag_48:\n      tag_49\n      jump\t// in\n    tag_47:\n      mload(0x40)\n      tag_50\n      swap2\n      swap1\n      tag_51\n      jump\t// in\n    tag_50:\n      mload(0x40)\n      dup1\n      swap2\n      sub\n      swap1\n      return\n        /* \"contracts/OrderBook.sol\":6250:6364  function getBidAddress (uint id) public view returns(address payable) {... */\n    tag_7:\n      callvalue\n      dup1\n      iszero\n      tag_52\n      jumpi\n      0x00\n      dup1\n      revert\n    tag_52:\n      pop\n      tag_53\n      0x04\n      dup1\n      calldatasize\n      sub\n      dup2\n      add\n      swap1\n      tag_54\n      swap2\n      swap1\n      tag_33\n      jump\t// in\n    tag_54:\n      tag_55\n      jump\t// in\n    tag_53:\n      mload(0x40)\n      tag_56\n      swap2\n      swap1\n      tag_57\n      jump\t// in\n    tag_56:\n      mload(0x40)\n      dup1\n      swap2\n      sub\n      swap1\n      return\n        /* \"contracts/OrderBook.sol\":1839:1858  uint public bidHead */\n    tag_8:\n      callvalue\n      dup1\n      iszero\n      tag_58\n      jumpi\n      0x00\n      dup1\n      revert\n    tag_58:\n      pop\n      tag_59\n      tag_60\n      jump\t// in\n    tag_59:\n      mload(0x40)\n      tag_61\n      swap2\n      swap1\n      tag_40\n      jump\t// in\n    tag_61:\n      mload(0x40)\n      dup1\n      swap2\n      sub\n      swap1\n      return\n        /* \"contracts/OrderBook.sol\":6370:6484  function getAskAddress (uint id) public view returns(address payable) {... */\n    tag_9:\n      callvalue\n      dup1\n      iszero\n      tag_62\n      jumpi\n      0x00\n      dup1\n      revert\n    tag_62:\n      pop\n      tag_63\n      0x04\n      dup1\n      calldatasize\n      sub\n      dup2\n      add\n      swap1\n      tag_64\n      swap2\n      swap1\n      tag_33\n      jump\t// in\n    tag_64:\n      tag_65\n      jump\t// in\n    tag_63:\n      mload(0x40)\n      tag_66\n      swap2\n      swap1\n      tag_57\n      jump\t// in\n    tag_66:\n      mload(0x40)\n      dup1\n      swap2\n      sub\n      swap1\n      return\n        /* \"contracts/OrderBook.sol\":4256:4825  function placeAsk (uint256 price) public payable {... */\n    tag_10:\n      tag_67\n      0x04\n      dup1\n      calldatasize\n      sub\n      dup2\n      add\n      swap1\n      tag_68\n      swap2\n      swap1\n      tag_33\n      jump\t// in\n    tag_68:\n      tag_69\n      jump\t// in\n    tag_67:\n      stop\n        /* \"contracts/OrderBook.sol\":1864:1883  uint public bidTail */\n    tag_11:\n      callvalue\n      dup1\n      iszero\n      tag_70\n      jumpi\n      0x00\n      dup1\n      revert\n    tag_70:\n      pop\n      tag_71\n      tag_72\n      jump\t// in\n    tag_71:\n      mload(0x40)\n      tag_73\n      swap2\n      swap1\n      tag_40\n      jump\t// in\n    tag_73:\n      mload(0x40)\n      dup1\n      swap2\n      sub\n      swap1\n      return\n        /* \"contracts/OrderBook.sol\":2000:2019  uint public askHead */\n    tag_12:\n      callvalue\n      dup1\n      iszero\n      tag_74\n      jumpi\n      0x00\n      dup1\n      revert\n    tag_74:\n      pop\n      tag_75\n      tag_76\n      jump\t// in\n    tag_75:\n      mload(0x40)\n      tag_77\n      swap2\n      swap1\n      tag_40\n      jump\t// in\n    tag_77:\n      mload(0x40)\n      dup1\n      swap2\n      sub\n      swap1\n      return\n        /* \"contracts/OrderBook.sol\":3996:4250  function cancelBid (uint bidId) public isPending(bidBook[bidId]) isAuthorised(bidBook[bidId], msg.sender) {... */\n    tag_13:\n      callvalue\n      dup1\n      iszero\n      tag_78\n      jumpi\n      0x00\n      dup1\n      revert\n    tag_78:\n      pop\n      tag_79\n      0x04\n      dup1\n      calldatasize\n      sub\n      dup2\n      add\n      swap1\n      tag_80\n      swap2\n      swap1\n      tag_33\n      jump\t// in\n    tag_80:\n      tag_81\n      jump\t// in\n    tag_79:\n      stop\n        /* \"contracts/OrderBook.sol\":3421:3990  function placeBid (uint256 price) public payable {... */\n    tag_14:\n      tag_82\n      0x04\n      dup1\n      calldatasize\n      sub\n      dup2\n      add\n      swap1\n      tag_83\n      swap2\n      swap1\n      tag_33\n      jump\t// in\n    tag_83:\n      tag_84\n      jump\t// in\n    tag_82:\n      stop\n        /* \"contracts/OrderBook.sol\":2050:2070  uint public askCount */\n    tag_15:\n      callvalue\n      dup1\n      iszero\n      tag_85\n      jumpi\n      0x00\n      dup1\n      revert\n    tag_85:\n      pop\n      tag_86\n      tag_87\n      jump\t// in\n    tag_86:\n      mload(0x40)\n      tag_88\n      swap2\n      swap1\n      tag_40\n      jump\t// in\n    tag_88:\n      mload(0x40)\n      dup1\n      swap2\n      sub\n      swap1\n      return\n        /* \"contracts/OrderBook.sol\":1889:1909  uint public bidCount */\n    tag_16:\n      callvalue\n      dup1\n      iszero\n      tag_89\n      jumpi\n      0x00\n      dup1\n      revert\n    tag_89:\n      pop\n      tag_90\n      tag_91\n      jump\t// in\n    tag_90:\n      mload(0x40)\n      tag_92\n      swap2\n      swap1\n      tag_40\n      jump\t// in\n    tag_92:\n      mload(0x40)\n      dup1\n      swap2\n      sub\n      swap1\n      return\n        /* \"contracts/OrderBook.sol\":6704:6803  function getBidState (uint id) public view returns(State) {... */\n    tag_17:\n      callvalue\n      dup1\n      iszero\n      tag_93\n      jumpi\n      0x00\n      dup1\n      revert\n    tag_93:\n      pop\n      tag_94\n      0x04\n      dup1\n      calldatasize\n      sub\n      dup2\n      add\n      swap1\n      tag_95\n      swap2\n      swap1\n      tag_33\n      jump\t// in\n    tag_95:\n      tag_96\n      jump\t// in\n    tag_94:\n      mload(0x40)\n      tag_97\n      swap2\n      swap1\n      tag_51\n      jump\t// in\n    tag_97:\n      mload(0x40)\n      dup1\n      swap2\n      sub\n      swap1\n      return\n        /* \"contracts/OrderBook.sol\":5388:5657  function fetchYourBidIds() public returns (uint[] memory) {... */\n    tag_18:\n      callvalue\n      dup1\n      iszero\n      tag_98\n      jumpi\n      0x00\n      dup1\n      revert\n    tag_98:\n      pop\n      tag_99\n      tag_100\n      jump\t// in\n    tag_99:\n      mload(0x40)\n      tag_101\n      swap2\n      swap1\n      tag_29\n      jump\t// in\n    tag_101:\n      mload(0x40)\n      dup1\n      swap2\n      sub\n      swap1\n      return\n        /* \"contracts/OrderBook.sol\":5938:6244  function getOrder(uint id) public view returns(address payable,uint256,uint256,State,uint,uint,uint,bool) {... */\n    tag_19:\n      callvalue\n      dup1\n      iszero\n      tag_102\n      jumpi\n      0x00\n      dup1\n      revert\n    tag_102:\n      pop\n      tag_103\n      0x04\n      dup1\n      calldatasize\n      sub\n      dup2\n      add\n      swap1\n      tag_104\n      swap2\n      swap1\n      tag_33\n      jump\t// in\n    tag_104:\n      tag_105\n      jump\t// in\n    tag_103:\n      mload(0x40)\n      tag_106\n      swap9\n      swap8\n      swap7\n      swap6\n      swap5\n      swap4\n      swap3\n      swap2\n      swap1\n      tag_107\n      jump\t// in\n    tag_106:\n      mload(0x40)\n      dup1\n      swap2\n      sub\n      swap1\n      return\n        /* \"contracts/OrderBook.sol\":6597:6698  function getAskValue (uint id) public view returns(uint256) {... */\n    tag_20:\n      callvalue\n      dup1\n      iszero\n      tag_108\n      jumpi\n      0x00\n      dup1\n      revert\n    tag_108:\n      pop\n      tag_109\n      0x04\n      dup1\n      calldatasize\n      sub\n      dup2\n      add\n      swap1\n      tag_110\n      swap2\n      swap1\n      tag_33\n      jump\t// in\n    tag_110:\n      tag_111\n      jump\t// in\n    tag_109:\n      mload(0x40)\n      tag_112\n      swap2\n      swap1\n      tag_40\n      jump\t// in\n    tag_112:\n      mload(0x40)\n      dup1\n      swap2\n      sub\n      swap1\n      return\n        /* \"contracts/OrderBook.sol\":2025:2044  uint public askTail */\n    tag_21:\n      callvalue\n      dup1\n      iszero\n      tag_113\n      jumpi\n      0x00\n      dup1\n      revert\n    tag_113:\n      pop\n      tag_114\n      tag_115\n      jump\t// in\n    tag_114:\n      mload(0x40)\n      tag_116\n      swap2\n      swap1\n      tag_40\n      jump\t// in\n    tag_116:\n      mload(0x40)\n      dup1\n      swap2\n      sub\n      swap1\n      return\n        /* \"contracts/OrderBook.sol\":5663:5932  function fetchYourAskIds() public returns (uint[] memory) {... */\n    tag_27:\n        /* \"contracts/OrderBook.sol\":5706:5719  uint[] memory */\n      0x60\n        /* \"contracts/OrderBook.sol\":5663:5932  function fetchYourAskIds() public returns (uint[] memory) {... */\n      swap1\n      jump\t// out\n        /* \"contracts/OrderBook.sol\":4831:5120  function cancelAsk (uint askId) public isPending(askBook[askId]) isAuthorised(askBook[askId], msg.sender) {... */\n    tag_34:\n        /* \"contracts/OrderBook.sol\":4880:4887  askBook */\n      0x09\n        /* \"contracts/OrderBook.sol\":4880:4894  askBook[askId] */\n      0x00\n        /* \"contracts/OrderBook.sol\":4888:4893  askId */\n      dup3\n        /* \"contracts/OrderBook.sol\":4880:4894  askBook[askId] */\n      dup2\n      mstore\n      0x20\n      add\n      swap1\n      dup2\n      mstore\n      0x20\n      add\n      0x00\n      keccak256\n        /* \"contracts/OrderBook.sol\":2623:2746  modifier isPending(order memory _order) {... */\n      mload(0x40)\n      dup1\n      0x0100\n      add\n      0x40\n      mstore\n      swap1\n      dup2\n      0x00\n      dup3\n      add\n      0x00\n      swap1\n      sload\n      swap1\n      0x0100\n      exp\n      swap1\n      div\n      0xffffffffffffffffffffffffffffffffffffffff\n      and\n      0xffffffffffffffffffffffffffffffffffffffff\n      and\n      0xffffffffffffffffffffffffffffffffffffffff\n      and\n      dup2\n      mstore\n      0x20\n      add\n      0x01\n      dup3\n      add\n      sload\n      dup2\n      mstore\n      0x20\n      add\n      0x02\n      dup3\n      add\n      sload\n      dup2\n      mstore\n      0x20\n      add\n      0x03\n      dup3\n      add\n      0x00\n      swap1\n      sload\n      swap1\n      0x0100\n      exp\n      swap1\n      div\n      0xff\n      and\n      0x01\n      dup2\n      gt\n      iszero\n      tag_118\n      jumpi\n      tag_119\n      tag_120\n      jump\t// in\n    tag_119:\n    tag_118:\n      0x01\n      dup2\n      gt\n      iszero\n      tag_121\n      jumpi\n      tag_122\n      tag_120\n      jump\t// in\n    tag_122:\n    tag_121:\n      dup2\n      mstore\n      0x20\n      add\n      0x04\n      dup3\n      add\n      sload\n      dup2\n      mstore\n      0x20\n      add\n      0x05\n      dup3\n      add\n      sload\n      dup2\n      mstore\n      0x20\n      add\n      0x06\n      dup3\n      add\n      sload\n      dup2\n      mstore\n      0x20\n      add\n      0x07\n      dup3\n      add\n      0x00\n      swap1\n      sload\n      swap1\n      0x0100\n      exp\n      swap1\n      div\n      0xff\n      and\n      iszero\n      iszero\n      iszero\n      iszero\n      dup2\n      mstore\n      pop\n      pop\n        /* \"contracts/OrderBook.sol\":2697:2710  State.pending */\n      0x00\n        /* \"contracts/OrderBook.sol\":2681:2710  _order.state == State.pending */\n      0x01\n      dup2\n      gt\n      iszero\n      tag_124\n      jumpi\n      tag_125\n      tag_120\n      jump\t// in\n    tag_125:\n    tag_124:\n        /* \"contracts/OrderBook.sol\":2681:2687  _order */\n      dup2\n        /* \"contracts/OrderBook.sol\":2681:2693  _order.state */\n      0x60\n      add\n      mload\n        /* \"contracts/OrderBook.sol\":2681:2710  _order.state == State.pending */\n      0x01\n      dup2\n      gt\n      iszero\n      tag_126\n      jumpi\n      tag_127\n      tag_120\n      jump\t// in\n    tag_127:\n    tag_126:\n      eq\n        /* \"contracts/OrderBook.sol\":2673:2728  require(_order.state == State.pending, \"Order Pending\") */\n      tag_128\n      jumpi\n      mload(0x40)\n      0x08c379a000000000000000000000000000000000000000000000000000000000\n      dup2\n      mstore\n      0x04\n      add\n      tag_129\n      swap1\n      tag_130\n      jump\t// in\n    tag_129:\n      mload(0x40)\n      dup1\n      swap2\n      sub\n      swap1\n      revert\n    tag_128:\n        /* \"contracts/OrderBook.sol\":4909:4916  askBook */\n      0x09\n        /* \"contracts/OrderBook.sol\":4909:4923  askBook[askId] */\n      0x00\n        /* \"contracts/OrderBook.sol\":4917:4922  askId */\n      dup4\n        /* \"contracts/OrderBook.sol\":4909:4923  askBook[askId] */\n      dup2\n      mstore\n      0x20\n      add\n      swap1\n      dup2\n      mstore\n      0x20\n      add\n      0x00\n      keccak256\n        /* \"contracts/OrderBook.sol\":2752:2891  modifier isAuthorised(order memory _order, address sender) {... */\n      mload(0x40)\n      dup1\n      0x0100\n      add\n      0x40\n      mstore\n      swap1\n      dup2\n      0x00\n      dup3\n      add\n      0x00\n      swap1\n      sload\n      swap1\n      0x0100\n      exp\n      swap1\n      div\n      0xffffffffffffffffffffffffffffffffffffffff\n      and\n      0xffffffffffffffffffffffffffffffffffffffff\n      and\n      0xffffffffffffffffffffffffffffffffffffffff\n      and\n      dup2\n      mstore\n      0x20\n      add\n      0x01\n      dup3\n      add\n      sload\n      dup2\n      mstore\n      0x20\n      add\n      0x02\n      dup3\n      add\n      sload\n      dup2\n      mstore\n      0x20\n      add\n      0x03\n      dup3\n      add\n      0x00\n      swap1\n      sload\n      swap1\n      0x0100\n      exp\n      swap1\n      div\n      0xff\n      and\n      0x01\n      dup2\n      gt\n      iszero\n      tag_131\n      jumpi\n      tag_132\n      tag_120\n      jump\t// in\n    tag_132:\n    tag_131:\n      0x01\n      dup2\n      gt\n      iszero\n      tag_133\n      jumpi\n      tag_134\n      tag_120\n      jump\t// in\n    tag_134:\n    tag_133:\n      dup2\n      mstore\n      0x20\n      add\n      0x04\n      dup3\n      add\n      sload\n      dup2\n      mstore\n      0x20\n      add\n      0x05\n      dup3\n      add\n      sload\n      dup2\n      mstore\n      0x20\n      add\n      0x06\n      dup3\n      add\n      sload\n      dup2\n      mstore\n      0x20\n      add\n      0x07\n      dup3\n      add\n      0x00\n      swap1\n      sload\n      swap1\n      0x0100\n      exp\n      swap1\n      div\n      0xff\n      and\n      iszero\n      iszero\n      iszero\n      iszero\n      dup2\n      mstore\n      pop\n      pop\n        /* \"contracts/OrderBook.sol\":4925:4935  msg.sender */\n      caller\n        /* \"contracts/OrderBook.sol\":2848:2854  sender */\n      dup1\n        /* \"contracts/OrderBook.sol\":2829:2854  _order.customer == sender */\n      0xffffffffffffffffffffffffffffffffffffffff\n      and\n        /* \"contracts/OrderBook.sol\":2829:2835  _order */\n      dup3\n        /* \"contracts/OrderBook.sol\":2829:2844  _order.customer */\n      0x00\n      add\n      mload\n        /* \"contracts/OrderBook.sol\":2829:2854  _order.customer == sender */\n      0xffffffffffffffffffffffffffffffffffffffff\n      and\n      eq\n        /* \"contracts/OrderBook.sol\":2821:2873  require(_order.customer == sender, \"Not Authorised\") */\n      tag_136\n      jumpi\n      mload(0x40)\n      0x08c379a000000000000000000000000000000000000000000000000000000000\n      dup2\n      mstore\n      0x04\n      add\n      tag_137\n      swap1\n      tag_138\n      jump\t// in\n    tag_137:\n      mload(0x40)\n      dup1\n      swap2\n      sub\n      swap1\n      revert\n    tag_136:\n        /* \"contracts/OrderBook.sol\":2738:2739  _ */\n      pop\n      pop\n        /* \"contracts/OrderBook.sol\":4831:5120  function cancelAsk (uint askId) public isPending(askBook[askId]) isAuthorised(askBook[askId], msg.sender) {... */\n      pop\n      pop\n      jump\t// out\n        /* \"contracts/OrderBook.sol\":6490:6591  function getBidValue (uint id) public view returns(uint256) {... */\n    tag_38:\n        /* \"contracts/OrderBook.sol\":6541:6548  uint256 */\n      0x00\n        /* \"contracts/OrderBook.sol\":6567:6574  bidBook */\n      0x05\n        /* \"contracts/OrderBook.sol\":6567:6578  bidBook[id] */\n      0x00\n        /* \"contracts/OrderBook.sol\":6575:6577  id */\n      dup4\n        /* \"contracts/OrderBook.sol\":6567:6578  bidBook[id] */\n      dup2\n      mstore\n      0x20\n      add\n      swap1\n      dup2\n      mstore\n      0x20\n      add\n      0x00\n      keccak256\n        /* \"contracts/OrderBook.sol\":6567:6584  bidBook[id].value */\n      0x01\n      add\n      sload\n        /* \"contracts/OrderBook.sol\":6560:6584  return bidBook[id].value */\n      swap1\n      pop\n        /* \"contracts/OrderBook.sol\":6490:6591  function getBidValue (uint id) public view returns(uint256) {... */\n      swap2\n      swap1\n      pop\n      jump\t// out\n        /* \"contracts/OrderBook.sol\":5154:5249  function fetchAllBid() public returns (order[] memory) {... */\n    tag_43:\n        /* \"contracts/OrderBook.sol\":5193:5207  order[] memory */\n      0x60\n        /* \"contracts/OrderBook.sol\":5154:5249  function fetchAllBid() public returns (order[] memory) {... */\n      swap1\n      jump\t// out\n        /* \"contracts/OrderBook.sol\":6809:6908  function getAskState (uint id) public view returns(State) {... */\n    tag_49:\n        /* \"contracts/OrderBook.sol\":6860:6865  State */\n      0x00\n        /* \"contracts/OrderBook.sol\":6884:6891  askBook */\n      0x09\n        /* \"contracts/OrderBook.sol\":6884:6895  askBook[id] */\n      0x00\n        /* \"contracts/OrderBook.sol\":6892:6894  id */\n      dup4\n        /* \"contracts/OrderBook.sol\":6884:6895  askBook[id] */\n      dup2\n      mstore\n      0x20\n      add\n      swap1\n      dup2\n      mstore\n      0x20\n      add\n      0x00\n      keccak256\n        /* \"contracts/OrderBook.sol\":6884:6901  askBook[id].state */\n      0x03\n      add\n      0x00\n      swap1\n      sload\n      swap1\n      0x0100\n      exp\n      swap1\n      div\n      0xff\n      and\n        /* \"contracts/OrderBook.sol\":6877:6901  return askBook[id].state */\n      swap1\n      pop\n        /* \"contracts/OrderBook.sol\":6809:6908  function getAskState (uint id) public view returns(State) {... */\n      swap2\n      swap1\n      pop\n      jump\t// out\n        /* \"contracts/OrderBook.sol\":6250:6364  function getBidAddress (uint id) public view returns(address payable) {... */\n    tag_55:\n        /* \"contracts/OrderBook.sol\":6303:6318  address payable */\n      0x00\n        /* \"contracts/OrderBook.sol\":6337:6344  bidBook */\n      0x05\n        /* \"contracts/OrderBook.sol\":6337:6348  bidBook[id] */\n      0x00\n        /* \"contracts/OrderBook.sol\":6345:6347  id */\n      dup4\n        /* \"contracts/OrderBook.sol\":6337:6348  bidBook[id] */\n      dup2\n      mstore\n      0x20\n      add\n      swap1\n      dup2\n      mstore\n      0x20\n      add\n      0x00\n      keccak256\n        /* \"contracts/OrderBook.sol\":6337:6357  bidBook[id].customer */\n      0x00\n      add\n      0x00\n      swap1\n      sload\n      swap1\n      0x0100\n      exp\n      swap1\n      div\n      0xffffffffffffffffffffffffffffffffffffffff\n      and\n        /* \"contracts/OrderBook.sol\":6330:6357  return bidBook[id].customer */\n      swap1\n      pop\n        /* \"contracts/OrderBook.sol\":6250:6364  function getBidAddress (uint id) public view returns(address payable) {... */\n      swap2\n      swap1\n      pop\n      jump\t// out\n        /* \"contracts/OrderBook.sol\":1839:1858  uint public bidHead */\n    tag_60:\n      sload(0x06)\n      dup2\n      jump\t// out\n        /* \"contracts/OrderBook.sol\":6370:6484  function getAskAddress (uint id) public view returns(address payable) {... */\n    tag_65:\n        /* \"contracts/OrderBook.sol\":6423:6438  address payable */\n      0x00\n        /* \"contracts/OrderBook.sol\":6457:6464  askBook */\n      0x09\n        /* \"contracts/OrderBook.sol\":6457:6468  askBook[id] */\n      0x00\n        /* \"contracts/OrderBook.sol\":6465:6467  id */\n      dup4\n        /* \"contracts/OrderBook.sol\":6457:6468  askBook[id] */\n      dup2\n      mstore\n      0x20\n      add\n      swap1\n      dup2\n      mstore\n      0x20\n      add\n      0x00\n      keccak256\n        /* \"contracts/OrderBook.sol\":6457:6477  askBook[id].customer */\n      0x00\n      add\n      0x00\n      swap1\n      sload\n      swap1\n      0x0100\n      exp\n      swap1\n      div\n      0xffffffffffffffffffffffffffffffffffffffff\n      and\n        /* \"contracts/OrderBook.sol\":6450:6477  return askBook[id].customer */\n      swap1\n      pop\n        /* \"contracts/OrderBook.sol\":6370:6484  function getAskAddress (uint id) public view returns(address payable) {... */\n      swap2\n      swap1\n      pop\n      jump\t// out\n        /* \"contracts/OrderBook.sol\":4256:4825  function placeAsk (uint256 price) public payable {... */\n    tag_69:\n        /* \"contracts/OrderBook.sol\":4332:4333  0 */\n      0x00\n        /* \"contracts/OrderBook.sol\":4323:4328  price */\n      dup2\n        /* \"contracts/OrderBook.sol\":4323:4333  price >= 0 */\n      lt\n      iszero\n        /* \"contracts/OrderBook.sol\":4315:4369  require(price >= 0, \"price value must be more than 0\") */\n      tag_146\n      jumpi\n      mload(0x40)\n      0x08c379a000000000000000000000000000000000000000000000000000000000\n      dup2\n      mstore\n      0x04\n      add\n      tag_147\n      swap1\n      tag_148\n      jump\t// in\n    tag_147:\n      mload(0x40)\n      dup1\n      swap2\n      sub\n      swap1\n      revert\n    tag_146:\n        /* \"contracts/OrderBook.sol\":4400:4405  price */\n      dup1\n        /* \"contracts/OrderBook.sol\":4387:4396  msg.value */\n      callvalue\n        /* \"contracts/OrderBook.sol\":4387:4405  msg.value >= price */\n      lt\n      iszero\n        /* \"contracts/OrderBook.sol\":4379:4440  require(msg.value >= price, \"Not enough blance to place ask\") */\n      tag_149\n      jumpi\n      mload(0x40)\n      0x08c379a000000000000000000000000000000000000000000000000000000000\n      dup2\n      mstore\n      0x04\n      add\n      tag_150\n      swap1\n      tag_151\n      jump\t// in\n    tag_150:\n      mload(0x40)\n      dup1\n      swap2\n      sub\n      swap1\n      revert\n    tag_149:\n        /* \"contracts/OrderBook.sol\":4256:4825  function placeAsk (uint256 price) public payable {... */\n      pop\n      jump\t// out\n        /* \"contracts/OrderBook.sol\":1864:1883  uint public bidTail */\n    tag_72:\n      sload(0x07)\n      dup2\n      jump\t// out\n        /* \"contracts/OrderBook.sol\":2000:2019  uint public askHead */\n    tag_76:\n      sload(0x0a)\n      dup2\n      jump\t// out\n        /* \"contracts/OrderBook.sol\":3996:4250  function cancelBid (uint bidId) public isPending(bidBook[bidId]) isAuthorised(bidBook[bidId], msg.sender) {... */\n    tag_81:\n        /* \"contracts/OrderBook.sol\":4045:4052  bidBook */\n      0x05\n        /* \"contracts/OrderBook.sol\":4045:4059  bidBook[bidId] */\n      0x00\n        /* \"contracts/OrderBook.sol\":4053:4058  bidId */\n      dup3\n        /* \"contracts/OrderBook.sol\":4045:4059  bidBook[bidId] */\n      dup2\n      mstore\n      0x20\n      add\n      swap1\n      dup2\n      mstore\n      0x20\n      add\n      0x00\n      keccak256\n        /* \"contracts/OrderBook.sol\":2623:2746  modifier isPending(order memory _order) {... */\n      mload(0x40)\n      dup1\n      0x0100\n      add\n      0x40\n      mstore\n      swap1\n      dup2\n      0x00\n      dup3\n      add\n      0x00\n      swap1\n      sload\n      swap1\n      0x0100\n      exp\n      swap1\n      div\n      0xffffffffffffffffffffffffffffffffffffffff\n      and\n      0xffffffffffffffffffffffffffffffffffffffff\n      and\n      0xffffffffffffffffffffffffffffffffffffffff\n      and\n      dup2\n      mstore\n      0x20\n      add\n      0x01\n      dup3\n      add\n      sload\n      dup2\n      mstore\n      0x20\n      add\n      0x02\n      dup3\n      add\n      sload\n      dup2\n      mstore\n      0x20\n      add\n      0x03\n      dup3\n      add\n      0x00\n      swap1\n      sload\n      swap1\n      0x0100\n      exp\n      swap1\n      div\n      0xff\n      and\n      0x01\n      dup2\n      gt\n      iszero\n      tag_152\n      jumpi\n      tag_153\n      tag_120\n      jump\t// in\n    tag_153:\n    tag_152:\n      0x01\n      dup2\n      gt\n      iszero\n      tag_154\n      jumpi\n      tag_155\n      tag_120\n      jump\t// in\n    tag_155:\n    tag_154:\n      dup2\n      mstore\n      0x20\n      add\n      0x04\n      dup3\n      add\n      sload\n      dup2\n      mstore\n      0x20\n      add\n      0x05\n      dup3\n      add\n      sload\n      dup2\n      mstore\n      0x20\n      add\n      0x06\n      dup3\n      add\n      sload\n      dup2\n      mstore\n      0x20\n      add\n      0x07\n      dup3\n      add\n      0x00\n      swap1\n      sload\n      swap1\n      0x0100\n      exp\n      swap1\n      div\n      0xff\n      and\n      iszero\n      iszero\n      iszero\n      iszero\n      dup2\n      mstore\n      pop\n      pop\n        /* \"contracts/OrderBook.sol\":2697:2710  State.pending */\n      0x00\n        /* \"contracts/OrderBook.sol\":2681:2710  _order.state == State.pending */\n      0x01\n      dup2\n      gt\n      iszero\n      tag_157\n      jumpi\n      tag_158\n      tag_120\n      jump\t// in\n    tag_158:\n    tag_157:\n        /* \"contracts/OrderBook.sol\":2681:2687  _order */\n      dup2\n        /* \"contracts/OrderBook.sol\":2681:2693  _order.state */\n      0x60\n      add\n      mload\n        /* \"contracts/OrderBook.sol\":2681:2710  _order.state == State.pending */\n      0x01\n      dup2\n      gt\n      iszero\n      tag_159\n      jumpi\n      tag_160\n      tag_120\n      jump\t// in\n    tag_160:\n    tag_159:\n      eq\n        /* \"contracts/OrderBook.sol\":2673:2728  require(_order.state == State.pending, \"Order Pending\") */\n      tag_161\n      jumpi\n      mload(0x40)\n      0x08c379a000000000000000000000000000000000000000000000000000000000\n      dup2\n      mstore\n      0x04\n      add\n      tag_162\n      swap1\n      tag_130\n      jump\t// in\n    tag_162:\n      mload(0x40)\n      dup1\n      swap2\n      sub\n      swap1\n      revert\n    tag_161:\n        /* \"contracts/OrderBook.sol\":4074:4081  bidBook */\n      0x05\n        /* \"contracts/OrderBook.sol\":4074:4088  bidBook[bidId] */\n      0x00\n        /* \"contracts/OrderBook.sol\":4082:4087  bidId */\n      dup4\n        /* \"contracts/OrderBook.sol\":4074:4088  bidBook[bidId] */\n      dup2\n      mstore\n      0x20\n      add\n      swap1\n      dup2\n      mstore\n      0x20\n      add\n      0x00\n      keccak256\n        /* \"contracts/OrderBook.sol\":2752:2891  modifier isAuthorised(order memory _order, address sender) {... */\n      mload(0x40)\n      dup1\n      0x0100\n      add\n      0x40\n      mstore\n      swap1\n      dup2\n      0x00\n      dup3\n      add\n      0x00\n      swap1\n      sload\n      swap1\n      0x0100\n      exp\n      swap1\n      div\n      0xffffffffffffffffffffffffffffffffffffffff\n      and\n      0xffffffffffffffffffffffffffffffffffffffff\n      and\n      0xffffffffffffffffffffffffffffffffffffffff\n      and\n      dup2\n      mstore\n      0x20\n      add\n      0x01\n      dup3\n      add\n      sload\n      dup2\n      mstore\n      0x20\n      add\n      0x02\n      dup3\n      add\n      sload\n      dup2\n      mstore\n      0x20\n      add\n      0x03\n      dup3\n      add\n      0x00\n      swap1\n      sload\n      swap1\n      0x0100\n      exp\n      swap1\n      div\n      0xff\n      and\n      0x01\n      dup2\n      gt\n      iszero\n      tag_163\n      jumpi\n      tag_164\n      tag_120\n      jump\t// in\n    tag_164:\n    tag_163:\n      0x01\n      dup2\n      gt\n      iszero\n      tag_165\n      jumpi\n      tag_166\n      tag_120\n      jump\t// in\n    tag_166:\n    tag_165:\n      dup2\n      mstore\n      0x20\n      add\n      0x04\n      dup3\n      add\n      sload\n      dup2\n      mstore\n      0x20\n      add\n      0x05\n      dup3\n      add\n      sload\n      dup2\n      mstore\n      0x20\n      add\n      0x06\n      dup3\n      add\n      sload\n      dup2\n      mstore\n      0x20\n      add\n      0x07\n      dup3\n      add\n      0x00\n      swap1\n      sload\n      swap1\n      0x0100\n      exp\n      swap1\n      div\n      0xff\n      and\n      iszero\n      iszero\n      iszero\n      iszero\n      dup2\n      mstore\n      pop\n      pop\n        /* \"contracts/OrderBook.sol\":4090:4100  msg.sender */\n      caller\n        /* \"contracts/OrderBook.sol\":2848:2854  sender */\n      dup1\n        /* \"contracts/OrderBook.sol\":2829:2854  _order.customer == sender */\n      0xffffffffffffffffffffffffffffffffffffffff\n      and\n        /* \"contracts/OrderBook.sol\":2829:2835  _order */\n      dup3\n        /* \"contracts/OrderBook.sol\":2829:2844  _order.customer */\n      0x00\n      add\n      mload\n        /* \"contracts/OrderBook.sol\":2829:2854  _order.customer == sender */\n      0xffffffffffffffffffffffffffffffffffffffff\n      and\n      eq\n        /* \"contracts/OrderBook.sol\":2821:2873  require(_order.customer == sender, \"Not Authorised\") */\n      tag_168\n      jumpi\n      mload(0x40)\n      0x08c379a000000000000000000000000000000000000000000000000000000000\n      dup2\n      mstore\n      0x04\n      add\n      tag_169\n      swap1\n      tag_138\n      jump\t// in\n    tag_169:\n      mload(0x40)\n      dup1\n      swap2\n      sub\n      swap1\n      revert\n    tag_168:\n        /* \"contracts/OrderBook.sol\":2738:2739  _ */\n      pop\n      pop\n        /* \"contracts/OrderBook.sol\":3996:4250  function cancelBid (uint bidId) public isPending(bidBook[bidId]) isAuthorised(bidBook[bidId], msg.sender) {... */\n      pop\n      pop\n      jump\t// out\n        /* \"contracts/OrderBook.sol\":3421:3990  function placeBid (uint256 price) public payable {... */\n    tag_84:\n        /* \"contracts/OrderBook.sol\":3497:3498  0 */\n      0x00\n        /* \"contracts/OrderBook.sol\":3488:3493  price */\n      dup2\n        /* \"contracts/OrderBook.sol\":3488:3498  price >= 0 */\n      lt\n      iszero\n        /* \"contracts/OrderBook.sol\":3480:3534  require(price >= 0, \"price value must be more than 0\") */\n      tag_172\n      jumpi\n      mload(0x40)\n      0x08c379a000000000000000000000000000000000000000000000000000000000\n      dup2\n      mstore\n      0x04\n      add\n      tag_173\n      swap1\n      tag_148\n      jump\t// in\n    tag_173:\n      mload(0x40)\n      dup1\n      swap2\n      sub\n      swap1\n      revert\n    tag_172:\n        /* \"contracts/OrderBook.sol\":3565:3570  price */\n      dup1\n        /* \"contracts/OrderBook.sol\":3552:3561  msg.value */\n      callvalue\n        /* \"contracts/OrderBook.sol\":3552:3570  msg.value >= price */\n      lt\n      iszero\n        /* \"contracts/OrderBook.sol\":3544:3605  require(msg.value >= price, \"Not enough blance to place bid\") */\n      tag_174\n      jumpi\n      mload(0x40)\n      0x08c379a000000000000000000000000000000000000000000000000000000000\n      dup2\n      mstore\n      0x04\n      add\n      tag_175\n      swap1\n      tag_176\n      jump\t// in\n    tag_175:\n      mload(0x40)\n      dup1\n      swap2\n      sub\n      swap1\n      revert\n    tag_174:\n        /* \"contracts/OrderBook.sol\":3421:3990  function placeBid (uint256 price) public payable {... */\n      pop\n      jump\t// out\n        /* \"contracts/OrderBook.sol\":2050:2070  uint public askCount */\n    tag_87:\n      sload(0x0c)\n      dup2\n      jump\t// out\n        /* \"contracts/OrderBook.sol\":1889:1909  uint public bidCount */\n    tag_91:\n      sload(0x08)\n      dup2\n      jump\t// out\n        /* \"contracts/OrderBook.sol\":6704:6803  function getBidState (uint id) public view returns(State) {... */\n    tag_96:\n        /* \"contracts/OrderBook.sol\":6755:6760  State */\n      0x00\n        /* \"contracts/OrderBook.sol\":6779:6786  bidBook */\n      0x05\n        /* \"contracts/OrderBook.sol\":6779:6790  bidBook[id] */\n      0x00\n        /* \"contracts/OrderBook.sol\":6787:6789  id */\n      dup4\n        /* \"contracts/OrderBook.sol\":6779:6790  bidBook[id] */\n      dup2\n      mstore\n      0x20\n      add\n      swap1\n      dup2\n      mstore\n      0x20\n      add\n      0x00\n      keccak256\n        /* \"contracts/OrderBook.sol\":6779:6796  bidBook[id].state */\n      0x03\n      add\n      0x00\n      swap1\n      sload\n      swap1\n      0x0100\n      exp\n      swap1\n      div\n      0xff\n      and\n        /* \"contracts/OrderBook.sol\":6772:6796  return bidBook[id].state */\n      swap1\n      pop\n        /* \"contracts/OrderBook.sol\":6704:6803  function getBidState (uint id) public view returns(State) {... */\n      swap2\n      swap1\n      pop\n      jump\t// out\n        /* \"contracts/OrderBook.sol\":5388:5657  function fetchYourBidIds() public returns (uint[] memory) {... */\n    tag_100:\n        /* \"contracts/OrderBook.sol\":5431:5444  uint[] memory */\n      0x60\n        /* \"contracts/OrderBook.sol\":5388:5657  function fetchYourBidIds() public returns (uint[] memory) {... */\n      swap1\n      jump\t// out\n        /* \"contracts/OrderBook.sol\":5938:6244  function getOrder(uint id) public view returns(address payable,uint256,uint256,State,uint,uint,uint,bool) {... */\n    tag_105:\n        /* \"contracts/OrderBook.sol\":5985:6000  address payable */\n      0x00\n        /* \"contracts/OrderBook.sol\":6001:6008  uint256 */\n      dup1\n        /* \"contracts/OrderBook.sol\":6009:6016  uint256 */\n      0x00\n        /* \"contracts/OrderBook.sol\":6017:6022  State */\n      dup1\n        /* \"contracts/OrderBook.sol\":6023:6027  uint */\n      0x00\n        /* \"contracts/OrderBook.sol\":6028:6032  uint */\n      dup1\n        /* \"contracts/OrderBook.sol\":6033:6037  uint */\n      0x00\n        /* \"contracts/OrderBook.sol\":6038:6042  bool */\n      dup1\n        /* \"contracts/OrderBook.sol\":6054:6076  order memory currOrder */\n      0x00\n        /* \"contracts/OrderBook.sol\":6079:6086  bidBook */\n      0x05\n        /* \"contracts/OrderBook.sol\":6079:6090  bidBook[id] */\n      0x00\n        /* \"contracts/OrderBook.sol\":6087:6089  id */\n      dup12\n        /* \"contracts/OrderBook.sol\":6079:6090  bidBook[id] */\n      dup2\n      mstore\n      0x20\n      add\n      swap1\n      dup2\n      mstore\n      0x20\n      add\n      0x00\n      keccak256\n        /* \"contracts/OrderBook.sol\":6054:6090  order memory currOrder = bidBook[id] */\n      mload(0x40)\n      dup1\n      0x0100\n      add\n      0x40\n      mstore\n      swap1\n      dup2\n      0x00\n      dup3\n      add\n      0x00\n      swap1\n      sload\n      swap1\n      0x0100\n      exp\n      swap1\n      div\n      0xffffffffffffffffffffffffffffffffffffffff\n      and\n      0xffffffffffffffffffffffffffffffffffffffff\n      and\n      0xffffffffffffffffffffffffffffffffffffffff\n      and\n      dup2\n      mstore\n      0x20\n      add\n      0x01\n      dup3\n      add\n      sload\n      dup2\n      mstore\n      0x20\n      add\n      0x02\n      dup3\n      add\n      sload\n      dup2\n      mstore\n      0x20\n      add\n      0x03\n      dup3\n      add\n      0x00\n      swap1\n      sload\n      swap1\n      0x0100\n      exp\n      swap1\n      div\n      0xff\n      and\n      0x01\n      dup2\n      gt\n      iszero\n      tag_180\n      jumpi\n      tag_181\n      tag_120\n      jump\t// in\n    tag_181:\n    tag_180:\n      0x01\n      dup2\n      gt\n      iszero\n      tag_182\n      jumpi\n      tag_183\n      tag_120\n      jump\t// in\n    tag_183:\n    tag_182:\n      dup2\n      mstore\n      0x20\n      add\n      0x04\n      dup3\n      add\n      sload\n      dup2\n      mstore\n      0x20\n      add\n      0x05\n      dup3\n      add\n      sload\n      dup2\n      mstore\n      0x20\n      add\n      0x06\n      dup3\n      add\n      sload\n      dup2\n      mstore\n      0x20\n      add\n      0x07\n      dup3\n      add\n      0x00\n      swap1\n      sload\n      swap1\n      0x0100\n      exp\n      swap1\n      div\n      0xff\n      and\n      iszero\n      iszero\n      iszero\n      iszero\n      dup2\n      mstore\n      pop\n      pop\n      swap1\n      pop\n        /* \"contracts/OrderBook.sol\":6108:6117  currOrder */\n      dup1\n        /* \"contracts/OrderBook.sol\":6108:6126  currOrder.customer */\n      0x00\n      add\n      mload\n        /* \"contracts/OrderBook.sol\":6127:6136  currOrder */\n      dup2\n        /* \"contracts/OrderBook.sol\":6127:6142  currOrder.value */\n      0x20\n      add\n      mload\n        /* \"contracts/OrderBook.sol\":6143:6152  currOrder */\n      dup3\n        /* \"contracts/OrderBook.sol\":6143:6162  currOrder.timestamp */\n      0x40\n      add\n      mload\n        /* \"contracts/OrderBook.sol\":6163:6172  currOrder */\n      dup4\n        /* \"contracts/OrderBook.sol\":6163:6178  currOrder.state */\n      0x60\n      add\n      mload\n        /* \"contracts/OrderBook.sol\":6179:6188  currOrder */\n      dup5\n        /* \"contracts/OrderBook.sol\":6179:6191  currOrder.id */\n      0x80\n      add\n      mload\n        /* \"contracts/OrderBook.sol\":6192:6201  currOrder */\n      dup6\n        /* \"contracts/OrderBook.sol\":6192:6206  currOrder.next */\n      0xa0\n      add\n      mload\n        /* \"contracts/OrderBook.sol\":6207:6216  currOrder */\n      dup7\n        /* \"contracts/OrderBook.sol\":6207:6221  currOrder.prev */\n      0xc0\n      add\n      mload\n        /* \"contracts/OrderBook.sol\":6222:6231  currOrder */\n      dup8\n        /* \"contracts/OrderBook.sol\":6222:6236  currOrder.delb */\n      0xe0\n      add\n      mload\n        /* \"contracts/OrderBook.sol\":6100:6237  return (currOrder.customer,currOrder.value,currOrder.timestamp,currOrder.state,currOrder.id,currOrder.next,currOrder.prev,currOrder.delb) */\n      swap9\n      pop\n      swap9\n      pop\n      swap9\n      pop\n      swap9\n      pop\n      swap9\n      pop\n      swap9\n      pop\n      swap9\n      pop\n      swap9\n      pop\n      pop\n        /* \"contracts/OrderBook.sol\":5938:6244  function getOrder(uint id) public view returns(address payable,uint256,uint256,State,uint,uint,uint,bool) {... */\n      swap2\n      swap4\n      swap6\n      swap8\n      pop\n      swap2\n      swap4\n      swap6\n      swap8\n      jump\t// out\n        /* \"contracts/OrderBook.sol\":6597:6698  function getAskValue (uint id) public view returns(uint256) {... */\n    tag_111:\n        /* \"contracts/OrderBook.sol\":6648:6655  uint256 */\n      0x00\n        /* \"contracts/OrderBook.sol\":6674:6681  askBook */\n      0x09\n        /* \"contracts/OrderBook.sol\":6674:6685  askBook[id] */\n      0x00\n        /* \"contracts/OrderBook.sol\":6682:6684  id */\n      dup4\n        /* \"contracts/OrderBook.sol\":6674:6685  askBook[id] */\n      dup2\n      mstore\n      0x20\n      add\n      swap1\n      dup2\n      mstore\n      0x20\n      add\n      0x00\n      keccak256\n        /* \"contracts/OrderBook.sol\":6674:6691  askBook[id].value */\n      0x01\n      add\n      sload\n        /* \"contracts/OrderBook.sol\":6667:6691  return askBook[id].value */\n      swap1\n      pop\n        /* \"contracts/OrderBook.sol\":6597:6698  function getAskValue (uint id) public view returns(uint256) {... */\n      swap2\n      swap1\n      pop\n      jump\t// out\n        /* \"contracts/OrderBook.sol\":2025:2044  uint public askTail */\n    tag_115:\n      sload(0x0b)\n      dup2\n      jump\t// out\n        /* \"#utility.yul\":7:121   */\n    tag_185:\n        /* \"#utility.yul\":74:80   */\n      0x00\n        /* \"#utility.yul\":108:113   */\n      dup2\n        /* \"#utility.yul\":102:114   */\n      mload\n        /* \"#utility.yul\":92:114   */\n      swap1\n      pop\n        /* \"#utility.yul\":7:121   */\n      swap2\n      swap1\n      pop\n      jump\t// out\n        /* \"#utility.yul\":127:311   */\n    tag_186:\n        /* \"#utility.yul\":226:237   */\n      0x00\n        /* \"#utility.yul\":260:266   */\n      dup3\n        /* \"#utility.yul\":255:258   */\n      dup3\n        /* \"#utility.yul\":248:267   */\n      mstore\n        /* \"#utility.yul\":300:304   */\n      0x20\n        /* \"#utility.yul\":295:298   */\n      dup3\n        /* \"#utility.yul\":291:305   */\n      add\n        /* \"#utility.yul\":276:305   */\n      swap1\n      pop\n        /* \"#utility.yul\":127:311   */\n      swap3\n      swap2\n      pop\n      pop\n      jump\t// out\n        /* \"#utility.yul\":317:449   */\n    tag_187:\n        /* \"#utility.yul\":384:388   */\n      0x00\n        /* \"#utility.yul\":407:410   */\n      dup2\n        /* \"#utility.yul\":399:410   */\n      swap1\n      pop\n        /* \"#utility.yul\":437:441   */\n      0x20\n        /* \"#utility.yul\":432:435   */\n      dup3\n        /* \"#utility.yul\":428:442   */\n      add\n        /* \"#utility.yul\":420:442   */\n      swap1\n      pop\n        /* \"#utility.yul\":317:449   */\n      swap2\n      swap1\n      pop\n      jump\t// out\n        /* \"#utility.yul\":455:532   */\n    tag_188:\n        /* \"#utility.yul\":492:499   */\n      0x00\n        /* \"#utility.yul\":521:526   */\n      dup2\n        /* \"#utility.yul\":510:526   */\n      swap1\n      pop\n        /* \"#utility.yul\":455:532   */\n      swap2\n      swap1\n      pop\n      jump\t// out\n        /* \"#utility.yul\":538:646   */\n    tag_189:\n        /* \"#utility.yul\":615:639   */\n      tag_235\n        /* \"#utility.yul\":633:638   */\n      dup2\n        /* \"#utility.yul\":615:639   */\n      tag_188\n      jump\t// in\n    tag_235:\n        /* \"#utility.yul\":610:613   */\n      dup3\n        /* \"#utility.yul\":603:640   */\n      mstore\n        /* \"#utility.yul\":538:646   */\n      pop\n      pop\n      jump\t// out\n        /* \"#utility.yul\":652:831   */\n    tag_190:\n        /* \"#utility.yul\":721:731   */\n      0x00\n        /* \"#utility.yul\":742:788   */\n      tag_237\n        /* \"#utility.yul\":784:787   */\n      dup4\n        /* \"#utility.yul\":776:782   */\n      dup4\n        /* \"#utility.yul\":742:788   */\n      tag_189\n      jump\t// in\n    tag_237:\n        /* \"#utility.yul\":820:824   */\n      0x20\n        /* \"#utility.yul\":815:818   */\n      dup4\n        /* \"#utility.yul\":811:825   */\n      add\n        /* \"#utility.yul\":797:825   */\n      swap1\n      pop\n        /* \"#utility.yul\":652:831   */\n      swap3\n      swap2\n      pop\n      pop\n      jump\t// out\n        /* \"#utility.yul\":837:950   */\n    tag_191:\n        /* \"#utility.yul\":907:911   */\n      0x00\n        /* \"#utility.yul\":939:943   */\n      0x20\n        /* \"#utility.yul\":934:937   */\n      dup3\n        /* \"#utility.yul\":930:944   */\n      add\n        /* \"#utility.yul\":922:944   */\n      swap1\n      pop\n        /* \"#utility.yul\":837:950   */\n      swap2\n      swap1\n      pop\n      jump\t// out\n        /* \"#utility.yul\":986:1718   */\n    tag_192:\n        /* \"#utility.yul\":1105:1108   */\n      0x00\n        /* \"#utility.yul\":1134:1188   */\n      tag_240\n        /* \"#utility.yul\":1182:1187   */\n      dup3\n        /* \"#utility.yul\":1134:1188   */\n      tag_185\n      jump\t// in\n    tag_240:\n        /* \"#utility.yul\":1204:1290   */\n      tag_241\n        /* \"#utility.yul\":1283:1289   */\n      dup2\n        /* \"#utility.yul\":1278:1281   */\n      dup6\n        /* \"#utility.yul\":1204:1290   */\n      tag_186\n      jump\t// in\n    tag_241:\n        /* \"#utility.yul\":1197:1290   */\n      swap4\n      pop\n        /* \"#utility.yul\":1314:1370   */\n      tag_242\n        /* \"#utility.yul\":1364:1369   */\n      dup4\n        /* \"#utility.yul\":1314:1370   */\n      tag_187\n      jump\t// in\n    tag_242:\n        /* \"#utility.yul\":1393:1400   */\n      dup1\n        /* \"#utility.yul\":1424:1425   */\n      0x00\n        /* \"#utility.yul\":1409:1693   */\n    tag_243:\n        /* \"#utility.yul\":1434:1440   */\n      dup4\n        /* \"#utility.yul\":1431:1432   */\n      dup2\n        /* \"#utility.yul\":1428:1441   */\n      lt\n        /* \"#utility.yul\":1409:1693   */\n      iszero\n      tag_245\n      jumpi\n        /* \"#utility.yul\":1510:1516   */\n      dup2\n        /* \"#utility.yul\":1504:1517   */\n      mload\n        /* \"#utility.yul\":1537:1600   */\n      tag_246\n        /* \"#utility.yul\":1596:1599   */\n      dup9\n        /* \"#utility.yul\":1581:1594   */\n      dup3\n        /* \"#utility.yul\":1537:1600   */\n      tag_190\n      jump\t// in\n    tag_246:\n        /* \"#utility.yul\":1530:1600   */\n      swap8\n      pop\n        /* \"#utility.yul\":1623:1683   */\n      tag_247\n        /* \"#utility.yul\":1676:1682   */\n      dup4\n        /* \"#utility.yul\":1623:1683   */\n      tag_191\n      jump\t// in\n    tag_247:\n        /* \"#utility.yul\":1613:1683   */\n      swap3\n      pop\n        /* \"#utility.yul\":1469:1693   */\n      pop\n        /* \"#utility.yul\":1456:1457   */\n      0x01\n        /* \"#utility.yul\":1453:1454   */\n      dup2\n        /* \"#utility.yul\":1449:1458   */\n      add\n        /* \"#utility.yul\":1444:1458   */\n      swap1\n      pop\n        /* \"#utility.yul\":1409:1693   */\n      jump(tag_243)\n    tag_245:\n        /* \"#utility.yul\":1413:1427   */\n      pop\n        /* \"#utility.yul\":1709:1712   */\n      dup6\n        /* \"#utility.yul\":1702:1712   */\n      swap4\n      pop\n        /* \"#utility.yul\":1110:1718   */\n      pop\n      pop\n      pop\n        /* \"#utility.yul\":986:1718   */\n      swap3\n      swap2\n      pop\n      pop\n      jump\t// out\n        /* \"#utility.yul\":1724:2097   */\n    tag_29:\n        /* \"#utility.yul\":1867:1871   */\n      0x00\n        /* \"#utility.yul\":1905:1907   */\n      0x20\n        /* \"#utility.yul\":1894:1903   */\n      dup3\n        /* \"#utility.yul\":1890:1908   */\n      add\n        /* \"#utility.yul\":1882:1908   */\n      swap1\n      pop\n        /* \"#utility.yul\":1954:1963   */\n      dup2\n        /* \"#utility.yul\":1948:1952   */\n      dup2\n        /* \"#utility.yul\":1944:1964   */\n      sub\n        /* \"#utility.yul\":1940:1941   */\n      0x00\n        /* \"#utility.yul\":1929:1938   */\n      dup4\n        /* \"#utility.yul\":1925:1942   */\n      add\n        /* \"#utility.yul\":1918:1965   */\n      mstore\n        /* \"#utility.yul\":1982:2090   */\n      tag_249\n        /* \"#utility.yul\":2085:2089   */\n      dup2\n        /* \"#utility.yul\":2076:2082   */\n      dup5\n        /* \"#utility.yul\":1982:2090   */\n      tag_192\n      jump\t// in\n    tag_249:\n        /* \"#utility.yul\":1974:2090   */\n      swap1\n      pop\n        /* \"#utility.yul\":1724:2097   */\n      swap3\n      swap2\n      pop\n      pop\n      jump\t// out\n        /* \"#utility.yul\":2184:2301   */\n    tag_194:\n        /* \"#utility.yul\":2293:2294   */\n      0x00\n        /* \"#utility.yul\":2290:2291   */\n      dup1\n        /* \"#utility.yul\":2283:2295   */\n      revert\n        /* \"#utility.yul\":2430:2552   */\n    tag_196:\n        /* \"#utility.yul\":2503:2527   */\n      tag_254\n        /* \"#utility.yul\":2521:2526   */\n      dup2\n        /* \"#utility.yul\":2503:2527   */\n      tag_188\n      jump\t// in\n    tag_254:\n        /* \"#utility.yul\":2496:2501   */\n      dup2\n        /* \"#utility.yul\":2493:2528   */\n      eq\n        /* \"#utility.yul\":2483:2546   */\n      tag_255\n      jumpi\n        /* \"#utility.yul\":2542:2543   */\n      0x00\n        /* \"#utility.yul\":2539:2540   */\n      dup1\n        /* \"#utility.yul\":2532:2544   */\n      revert\n        /* \"#utility.yul\":2483:2546   */\n    tag_255:\n        /* \"#utility.yul\":2430:2552   */\n      pop\n      jump\t// out\n        /* \"#utility.yul\":2558:2697   */\n    tag_197:\n        /* \"#utility.yul\":2604:2609   */\n      0x00\n        /* \"#utility.yul\":2642:2648   */\n      dup2\n        /* \"#utility.yul\":2629:2649   */\n      calldataload\n        /* \"#utility.yul\":2620:2649   */\n      swap1\n      pop\n        /* \"#utility.yul\":2658:2691   */\n      tag_257\n        /* \"#utility.yul\":2685:2690   */\n      dup2\n        /* \"#utility.yul\":2658:2691   */\n      tag_196\n      jump\t// in\n    tag_257:\n        /* \"#utility.yul\":2558:2697   */\n      swap3\n      swap2\n      pop\n      pop\n      jump\t// out\n        /* \"#utility.yul\":2703:3032   */\n    tag_33:\n        /* \"#utility.yul\":2762:2768   */\n      0x00\n        /* \"#utility.yul\":2811:2813   */\n      0x20\n        /* \"#utility.yul\":2799:2808   */\n      dup3\n        /* \"#utility.yul\":2790:2797   */\n      dup5\n        /* \"#utility.yul\":2786:2809   */\n      sub\n        /* \"#utility.yul\":2782:2814   */\n      slt\n        /* \"#utility.yul\":2779:2898   */\n      iszero\n      tag_259\n      jumpi\n        /* \"#utility.yul\":2817:2896   */\n      tag_260\n      tag_194\n      jump\t// in\n    tag_260:\n        /* \"#utility.yul\":2779:2898   */\n    tag_259:\n        /* \"#utility.yul\":2937:2938   */\n      0x00\n        /* \"#utility.yul\":2962:3015   */\n      tag_261\n        /* \"#utility.yul\":3007:3014   */\n      dup5\n        /* \"#utility.yul\":2998:3004   */\n      dup3\n        /* \"#utility.yul\":2987:2996   */\n      dup6\n        /* \"#utility.yul\":2983:3005   */\n      add\n        /* \"#utility.yul\":2962:3015   */\n      tag_197\n      jump\t// in\n    tag_261:\n        /* \"#utility.yul\":2952:3015   */\n      swap2\n      pop\n        /* \"#utility.yul\":2908:3025   */\n      pop\n        /* \"#utility.yul\":2703:3032   */\n      swap3\n      swap2\n      pop\n      pop\n      jump\t// out\n        /* \"#utility.yul\":3038:3156   */\n    tag_198:\n        /* \"#utility.yul\":3125:3149   */\n      tag_263\n        /* \"#utility.yul\":3143:3148   */\n      dup2\n        /* \"#utility.yul\":3125:3149   */\n      tag_188\n      jump\t// in\n    tag_263:\n        /* \"#utility.yul\":3120:3123   */\n      dup3\n        /* \"#utility.yul\":3113:3150   */\n      mstore\n        /* \"#utility.yul\":3038:3156   */\n      pop\n      pop\n      jump\t// out\n        /* \"#utility.yul\":3162:3384   */\n    tag_40:\n        /* \"#utility.yul\":3255:3259   */\n      0x00\n        /* \"#utility.yul\":3293:3295   */\n      0x20\n        /* \"#utility.yul\":3282:3291   */\n      dup3\n        /* \"#utility.yul\":3278:3296   */\n      add\n        /* \"#utility.yul\":3270:3296   */\n      swap1\n      pop\n        /* \"#utility.yul\":3306:3377   */\n      tag_265\n        /* \"#utility.yul\":3374:3375   */\n      0x00\n        /* \"#utility.yul\":3363:3372   */\n      dup4\n        /* \"#utility.yul\":3359:3376   */\n      add\n        /* \"#utility.yul\":3350:3356   */\n      dup5\n        /* \"#utility.yul\":3306:3377   */\n      tag_198\n      jump\t// in\n    tag_265:\n        /* \"#utility.yul\":3162:3384   */\n      swap3\n      swap2\n      pop\n      pop\n      jump\t// out\n        /* \"#utility.yul\":3390:3525   */\n    tag_199:\n        /* \"#utility.yul\":3478:3484   */\n      0x00\n        /* \"#utility.yul\":3512:3517   */\n      dup2\n        /* \"#utility.yul\":3506:3518   */\n      mload\n        /* \"#utility.yul\":3496:3518   */\n      swap1\n      pop\n        /* \"#utility.yul\":3390:3525   */\n      swap2\n      swap1\n      pop\n      jump\t// out\n        /* \"#utility.yul\":3531:3736   */\n    tag_200:\n        /* \"#utility.yul\":3651:3662   */\n      0x00\n        /* \"#utility.yul\":3685:3691   */\n      dup3\n        /* \"#utility.yul\":3680:3683   */\n      dup3\n        /* \"#utility.yul\":3673:3692   */\n      mstore\n        /* \"#utility.yul\":3725:3729   */\n      0x20\n        /* \"#utility.yul\":3720:3723   */\n      dup3\n        /* \"#utility.yul\":3716:3730   */\n      add\n        /* \"#utility.yul\":3701:3730   */\n      swap1\n      pop\n        /* \"#utility.yul\":3531:3736   */\n      swap3\n      swap2\n      pop\n      pop\n      jump\t// out\n        /* \"#utility.yul\":3742:3895   */\n    tag_201:\n        /* \"#utility.yul\":3830:3834   */\n      0x00\n        /* \"#utility.yul\":3853:3856   */\n      dup2\n        /* \"#utility.yul\":3845:3856   */\n      swap1\n      pop\n        /* \"#utility.yul\":3883:3887   */\n      0x20\n        /* \"#utility.yul\":3878:3881   */\n      dup3\n        /* \"#utility.yul\":3874:3888   */\n      add\n        /* \"#utility.yul\":3866:3888   */\n      swap1\n      pop\n        /* \"#utility.yul\":3742:3895   */\n      swap2\n      swap1\n      pop\n      jump\t// out\n        /* \"#utility.yul\":3901:4027   */\n    tag_202:\n        /* \"#utility.yul\":3938:3945   */\n      0x00\n        /* \"#utility.yul\":3978:4020   */\n      0xffffffffffffffffffffffffffffffffffffffff\n        /* \"#utility.yul\":3971:3976   */\n      dup3\n        /* \"#utility.yul\":3967:4021   */\n      and\n        /* \"#utility.yul\":3956:4021   */\n      swap1\n      pop\n        /* \"#utility.yul\":3901:4027   */\n      swap2\n      swap1\n      pop\n      jump\t// out\n        /* \"#utility.yul\":4033:4137   */\n    tag_203:\n        /* \"#utility.yul\":4078:4085   */\n      0x00\n        /* \"#utility.yul\":4107:4131   */\n      tag_271\n        /* \"#utility.yul\":4125:4130   */\n      dup3\n        /* \"#utility.yul\":4107:4131   */\n      tag_202\n      jump\t// in\n    tag_271:\n        /* \"#utility.yul\":4096:4131   */\n      swap1\n      pop\n        /* \"#utility.yul\":4033:4137   */\n      swap2\n      swap1\n      pop\n      jump\t// out\n        /* \"#utility.yul\":4143:4275   */\n    tag_204:\n        /* \"#utility.yul\":4236:4268   */\n      tag_273\n        /* \"#utility.yul\":4262:4267   */\n      dup2\n        /* \"#utility.yul\":4236:4268   */\n      tag_203\n      jump\t// in\n    tag_273:\n        /* \"#utility.yul\":4231:4234   */\n      dup3\n        /* \"#utility.yul\":4224:4269   */\n      mstore\n        /* \"#utility.yul\":4143:4275   */\n      pop\n      pop\n      jump\t// out\n        /* \"#utility.yul\":4281:4461   */\n    tag_120:\n        /* \"#utility.yul\":4329:4406   */\n      0x4e487b7100000000000000000000000000000000000000000000000000000000\n        /* \"#utility.yul\":4326:4327   */\n      0x00\n        /* \"#utility.yul\":4319:4407   */\n      mstore\n        /* \"#utility.yul\":4426:4430   */\n      0x21\n        /* \"#utility.yul\":4423:4424   */\n      0x04\n        /* \"#utility.yul\":4416:4431   */\n      mstore\n        /* \"#utility.yul\":4450:4454   */\n      0x24\n        /* \"#utility.yul\":4447:4448   */\n      0x00\n        /* \"#utility.yul\":4440:4455   */\n      revert\n        /* \"#utility.yul\":4467:4580   */\n    tag_205:\n        /* \"#utility.yul\":4548:4549   */\n      0x02\n        /* \"#utility.yul\":4541:4546   */\n      dup2\n        /* \"#utility.yul\":4538:4550   */\n      lt\n        /* \"#utility.yul\":4528:4574   */\n      tag_276\n      jumpi\n        /* \"#utility.yul\":4554:4572   */\n      tag_277\n      tag_120\n      jump\t// in\n    tag_277:\n        /* \"#utility.yul\":4528:4574   */\n    tag_276:\n        /* \"#utility.yul\":4467:4580   */\n      pop\n      jump\t// out\n        /* \"#utility.yul\":4586:4713   */\n    tag_206:\n        /* \"#utility.yul\":4631:4638   */\n      0x00\n        /* \"#utility.yul\":4660:4665   */\n      dup2\n        /* \"#utility.yul\":4649:4665   */\n      swap1\n      pop\n        /* \"#utility.yul\":4666:4707   */\n      tag_279\n        /* \"#utility.yul\":4701:4706   */\n      dup3\n        /* \"#utility.yul\":4666:4707   */\n      tag_205\n      jump\t// in\n    tag_279:\n        /* \"#utility.yul\":4586:4713   */\n      swap2\n      swap1\n      pop\n      jump\t// out\n        /* \"#utility.yul\":4719:4846   */\n    tag_207:\n        /* \"#utility.yul\":4775:4784   */\n      0x00\n        /* \"#utility.yul\":4808:4840   */\n      tag_281\n        /* \"#utility.yul\":4834:4839   */\n      dup3\n        /* \"#utility.yul\":4808:4840   */\n      tag_206\n      jump\t// in\n    tag_281:\n        /* \"#utility.yul\":4795:4840   */\n      swap1\n      pop\n        /* \"#utility.yul\":4719:4846   */\n      swap2\n      swap1\n      pop\n      jump\t// out\n        /* \"#utility.yul\":4852:4985   */\n    tag_208:\n        /* \"#utility.yul\":4935:4978   */\n      tag_283\n        /* \"#utility.yul\":4972:4977   */\n      dup2\n        /* \"#utility.yul\":4935:4978   */\n      tag_207\n      jump\t// in\n    tag_283:\n        /* \"#utility.yul\":4930:4933   */\n      dup3\n        /* \"#utility.yul\":4923:4979   */\n      mstore\n        /* \"#utility.yul\":4852:4985   */\n      pop\n      pop\n      jump\t// out\n        /* \"#utility.yul\":4991:5081   */\n    tag_209:\n        /* \"#utility.yul\":5025:5032   */\n      0x00\n        /* \"#utility.yul\":5068:5073   */\n      dup2\n        /* \"#utility.yul\":5061:5074   */\n      iszero\n        /* \"#utility.yul\":5054:5075   */\n      iszero\n        /* \"#utility.yul\":5043:5075   */\n      swap1\n      pop\n        /* \"#utility.yul\":4991:5081   */\n      swap2\n      swap1\n      pop\n      jump\t// out\n        /* \"#utility.yul\":5087:5186   */\n    tag_210:\n        /* \"#utility.yul\":5158:5179   */\n      tag_286\n        /* \"#utility.yul\":5173:5178   */\n      dup2\n        /* \"#utility.yul\":5158:5179   */\n      tag_209\n      jump\t// in\n    tag_286:\n        /* \"#utility.yul\":5153:5156   */\n      dup3\n        /* \"#utility.yul\":5146:5180   */\n      mstore\n        /* \"#utility.yul\":5087:5186   */\n      pop\n      pop\n      jump\t// out\n        /* \"#utility.yul\":5248:6808   */\n    tag_211:\n        /* \"#utility.yul\":5377:5383   */\n      0x0100\n        /* \"#utility.yul\":5372:5375   */\n      dup3\n        /* \"#utility.yul\":5368:5384   */\n      add\n        /* \"#utility.yul\":5470:5474   */\n      0x00\n        /* \"#utility.yul\":5463:5468   */\n      dup3\n        /* \"#utility.yul\":5459:5475   */\n      add\n        /* \"#utility.yul\":5453:5476   */\n      mload\n        /* \"#utility.yul\":5489:5568   */\n      tag_288\n        /* \"#utility.yul\":5562:5566   */\n      0x00\n        /* \"#utility.yul\":5557:5560   */\n      dup6\n        /* \"#utility.yul\":5553:5567   */\n      add\n        /* \"#utility.yul\":5539:5551   */\n      dup3\n        /* \"#utility.yul\":5489:5568   */\n      tag_204\n      jump\t// in\n    tag_288:\n        /* \"#utility.yul\":5394:5578   */\n      pop\n        /* \"#utility.yul\":5661:5665   */\n      0x20\n        /* \"#utility.yul\":5654:5659   */\n      dup3\n        /* \"#utility.yul\":5650:5666   */\n      add\n        /* \"#utility.yul\":5644:5667   */\n      mload\n        /* \"#utility.yul\":5680:5743   */\n      tag_289\n        /* \"#utility.yul\":5737:5741   */\n      0x20\n        /* \"#utility.yul\":5732:5735   */\n      dup6\n        /* \"#utility.yul\":5728:5742   */\n      add\n        /* \"#utility.yul\":5714:5726   */\n      dup3\n        /* \"#utility.yul\":5680:5743   */\n      tag_189\n      jump\t// in\n    tag_289:\n        /* \"#utility.yul\":5588:5753   */\n      pop\n        /* \"#utility.yul\":5840:5844   */\n      0x40\n        /* \"#utility.yul\":5833:5838   */\n      dup3\n        /* \"#utility.yul\":5829:5845   */\n      add\n        /* \"#utility.yul\":5823:5846   */\n      mload\n        /* \"#utility.yul\":5859:5922   */\n      tag_290\n        /* \"#utility.yul\":5916:5920   */\n      0x40\n        /* \"#utility.yul\":5911:5914   */\n      dup6\n        /* \"#utility.yul\":5907:5921   */\n      add\n        /* \"#utility.yul\":5893:5905   */\n      dup3\n        /* \"#utility.yul\":5859:5922   */\n      tag_189\n      jump\t// in\n    tag_290:\n        /* \"#utility.yul\":5763:5932   */\n      pop\n        /* \"#utility.yul\":6015:6019   */\n      0x60\n        /* \"#utility.yul\":6008:6013   */\n      dup3\n        /* \"#utility.yul\":6004:6020   */\n      add\n        /* \"#utility.yul\":5998:6021   */\n      mload\n        /* \"#utility.yul\":6034:6103   */\n      tag_291\n        /* \"#utility.yul\":6097:6101   */\n      0x60\n        /* \"#utility.yul\":6092:6095   */\n      dup6\n        /* \"#utility.yul\":6088:6102   */\n      add\n        /* \"#utility.yul\":6074:6086   */\n      dup3\n        /* \"#utility.yul\":6034:6103   */\n      tag_208\n      jump\t// in\n    tag_291:\n        /* \"#utility.yul\":5942:6113   */\n      pop\n        /* \"#utility.yul\":6193:6197   */\n      0x80\n        /* \"#utility.yul\":6186:6191   */\n      dup3\n        /* \"#utility.yul\":6182:6198   */\n      add\n        /* \"#utility.yul\":6176:6199   */\n      mload\n        /* \"#utility.yul\":6212:6275   */\n      tag_292\n        /* \"#utility.yul\":6269:6273   */\n      0x80\n        /* \"#utility.yul\":6264:6267   */\n      dup6\n        /* \"#utility.yul\":6260:6274   */\n      add\n        /* \"#utility.yul\":6246:6258   */\n      dup3\n        /* \"#utility.yul\":6212:6275   */\n      tag_189\n      jump\t// in\n    tag_292:\n        /* \"#utility.yul\":6123:6285   */\n      pop\n        /* \"#utility.yul\":6367:6371   */\n      0xa0\n        /* \"#utility.yul\":6360:6365   */\n      dup3\n        /* \"#utility.yul\":6356:6372   */\n      add\n        /* \"#utility.yul\":6350:6373   */\n      mload\n        /* \"#utility.yul\":6386:6449   */\n      tag_293\n        /* \"#utility.yul\":6443:6447   */\n      0xa0\n        /* \"#utility.yul\":6438:6441   */\n      dup6\n        /* \"#utility.yul\":6434:6448   */\n      add\n        /* \"#utility.yul\":6420:6432   */\n      dup3\n        /* \"#utility.yul\":6386:6449   */\n      tag_189\n      jump\t// in\n    tag_293:\n        /* \"#utility.yul\":6295:6459   */\n      pop\n        /* \"#utility.yul\":6541:6545   */\n      0xc0\n        /* \"#utility.yul\":6534:6539   */\n      dup3\n        /* \"#utility.yul\":6530:6546   */\n      add\n        /* \"#utility.yul\":6524:6547   */\n      mload\n        /* \"#utility.yul\":6560:6623   */\n      tag_294\n        /* \"#utility.yul\":6617:6621   */\n      0xc0\n        /* \"#utility.yul\":6612:6615   */\n      dup6\n        /* \"#utility.yul\":6608:6622   */\n      add\n        /* \"#utility.yul\":6594:6606   */\n      dup3\n        /* \"#utility.yul\":6560:6623   */\n      tag_189\n      jump\t// in\n    tag_294:\n        /* \"#utility.yul\":6469:6633   */\n      pop\n        /* \"#utility.yul\":6715:6719   */\n      0xe0\n        /* \"#utility.yul\":6708:6713   */\n      dup3\n        /* \"#utility.yul\":6704:6720   */\n      add\n        /* \"#utility.yul\":6698:6721   */\n      mload\n        /* \"#utility.yul\":6734:6791   */\n      tag_295\n        /* \"#utility.yul\":6785:6789   */\n      0xe0\n        /* \"#utility.yul\":6780:6783   */\n      dup6\n        /* \"#utility.yul\":6776:6790   */\n      add\n        /* \"#utility.yul\":6762:6774   */\n      dup3\n        /* \"#utility.yul\":6734:6791   */\n      tag_210\n      jump\t// in\n    tag_295:\n        /* \"#utility.yul\":6643:6801   */\n      pop\n        /* \"#utility.yul\":5346:6808   */\n      pop\n        /* \"#utility.yul\":5248:6808   */\n      pop\n      pop\n      jump\t// out\n        /* \"#utility.yul\":6814:7079   */\n    tag_212:\n        /* \"#utility.yul\":6925:6935   */\n      0x00\n        /* \"#utility.yul\":6946:7034   */\n      tag_297\n        /* \"#utility.yul\":7030:7033   */\n      dup4\n        /* \"#utility.yul\":7022:7028   */\n      dup4\n        /* \"#utility.yul\":6946:7034   */\n      tag_211\n      jump\t// in\n    tag_297:\n        /* \"#utility.yul\":7066:7072   */\n      0x0100\n        /* \"#utility.yul\":7061:7064   */\n      dup4\n        /* \"#utility.yul\":7057:7073   */\n      add\n        /* \"#utility.yul\":7043:7073   */\n      swap1\n      pop\n        /* \"#utility.yul\":6814:7079   */\n      swap3\n      swap2\n      pop\n      pop\n      jump\t// out\n        /* \"#utility.yul\":7085:7219   */\n    tag_213:\n        /* \"#utility.yul\":7176:7180   */\n      0x00\n        /* \"#utility.yul\":7208:7212   */\n      0x20\n        /* \"#utility.yul\":7203:7206   */\n      dup3\n        /* \"#utility.yul\":7199:7213   */\n      add\n        /* \"#utility.yul\":7191:7213   */\n      swap1\n      pop\n        /* \"#utility.yul\":7085:7219   */\n      swap2\n      swap1\n      pop\n      jump\t// out\n        /* \"#utility.yul\":7285:8185   */\n    tag_214:\n        /* \"#utility.yul\":7446:7449   */\n      0x00\n        /* \"#utility.yul\":7475:7550   */\n      tag_300\n        /* \"#utility.yul\":7544:7549   */\n      dup3\n        /* \"#utility.yul\":7475:7550   */\n      tag_199\n      jump\t// in\n    tag_300:\n        /* \"#utility.yul\":7566:7673   */\n      tag_301\n        /* \"#utility.yul\":7666:7672   */\n      dup2\n        /* \"#utility.yul\":7661:7664   */\n      dup6\n        /* \"#utility.yul\":7566:7673   */\n      tag_200\n      jump\t// in\n    tag_301:\n        /* \"#utility.yul\":7559:7673   */\n      swap4\n      pop\n        /* \"#utility.yul\":7697:7774   */\n      tag_302\n        /* \"#utility.yul\":7768:7773   */\n      dup4\n        /* \"#utility.yul\":7697:7774   */\n      tag_201\n      jump\t// in\n    tag_302:\n        /* \"#utility.yul\":7797:7804   */\n      dup1\n        /* \"#utility.yul\":7828:7829   */\n      0x00\n        /* \"#utility.yul\":7813:8160   */\n    tag_303:\n        /* \"#utility.yul\":7838:7844   */\n      dup4\n        /* \"#utility.yul\":7835:7836   */\n      dup2\n        /* \"#utility.yul\":7832:7845   */\n      lt\n        /* \"#utility.yul\":7813:8160   */\n      iszero\n      tag_305\n      jumpi\n        /* \"#utility.yul\":7914:7920   */\n      dup2\n        /* \"#utility.yul\":7908:7921   */\n      mload\n        /* \"#utility.yul\":7941:8046   */\n      tag_306\n        /* \"#utility.yul\":8042:8045   */\n      dup9\n        /* \"#utility.yul\":8027:8040   */\n      dup3\n        /* \"#utility.yul\":7941:8046   */\n      tag_212\n      jump\t// in\n    tag_306:\n        /* \"#utility.yul\":7934:8046   */\n      swap8\n      pop\n        /* \"#utility.yul\":8069:8150   */\n      tag_307\n        /* \"#utility.yul\":8143:8149   */\n      dup4\n        /* \"#utility.yul\":8069:8150   */\n      tag_213\n      jump\t// in\n    tag_307:\n        /* \"#utility.yul\":8059:8150   */\n      swap3\n      pop\n        /* \"#utility.yul\":7873:8160   */\n      pop\n        /* \"#utility.yul\":7860:7861   */\n      0x01\n        /* \"#utility.yul\":7857:7858   */\n      dup2\n        /* \"#utility.yul\":7853:7862   */\n      add\n        /* \"#utility.yul\":7848:7862   */\n      swap1\n      pop\n        /* \"#utility.yul\":7813:8160   */\n      jump(tag_303)\n    tag_305:\n        /* \"#utility.yul\":7817:7831   */\n      pop\n        /* \"#utility.yul\":8176:8179   */\n      dup6\n        /* \"#utility.yul\":8169:8179   */\n      swap4\n      pop\n        /* \"#utility.yul\":7451:8185   */\n      pop\n      pop\n      pop\n        /* \"#utility.yul\":7285:8185   */\n      swap3\n      swap2\n      pop\n      pop\n      jump\t// out\n        /* \"#utility.yul\":8191:8648   */\n    tag_45:\n        /* \"#utility.yul\":8376:8380   */\n      0x00\n        /* \"#utility.yul\":8414:8416   */\n      0x20\n        /* \"#utility.yul\":8403:8412   */\n      dup3\n        /* \"#utility.yul\":8399:8417   */\n      add\n        /* \"#utility.yul\":8391:8417   */\n      swap1\n      pop\n        /* \"#utility.yul\":8463:8472   */\n      dup2\n        /* \"#utility.yul\":8457:8461   */\n      dup2\n        /* \"#utility.yul\":8453:8473   */\n      sub\n        /* \"#utility.yul\":8449:8450   */\n      0x00\n        /* \"#utility.yul\":8438:8447   */\n      dup4\n        /* \"#utility.yul\":8434:8451   */\n      add\n        /* \"#utility.yul\":8427:8474   */\n      mstore\n        /* \"#utility.yul\":8491:8641   */\n      tag_309\n        /* \"#utility.yul\":8636:8640   */\n      dup2\n        /* \"#utility.yul\":8627:8633   */\n      dup5\n        /* \"#utility.yul\":8491:8641   */\n      tag_214\n      jump\t// in\n    tag_309:\n        /* \"#utility.yul\":8483:8641   */\n      swap1\n      pop\n        /* \"#utility.yul\":8191:8648   */\n      swap3\n      swap2\n      pop\n      pop\n      jump\t// out\n        /* \"#utility.yul\":8654:8797   */\n    tag_215:\n        /* \"#utility.yul\":8747:8790   */\n      tag_311\n        /* \"#utility.yul\":8784:8789   */\n      dup2\n        /* \"#utility.yul\":8747:8790   */\n      tag_207\n      jump\t// in\n    tag_311:\n        /* \"#utility.yul\":8742:8745   */\n      dup3\n        /* \"#utility.yul\":8735:8791   */\n      mstore\n        /* \"#utility.yul\":8654:8797   */\n      pop\n      pop\n      jump\t// out\n        /* \"#utility.yul\":8803:9037   */\n    tag_51:\n        /* \"#utility.yul\":8902:8906   */\n      0x00\n        /* \"#utility.yul\":8940:8942   */\n      0x20\n        /* \"#utility.yul\":8929:8938   */\n      dup3\n        /* \"#utility.yul\":8925:8943   */\n      add\n        /* \"#utility.yul\":8917:8943   */\n      swap1\n      pop\n        /* \"#utility.yul\":8953:9030   */\n      tag_313\n        /* \"#utility.yul\":9027:9028   */\n      0x00\n        /* \"#utility.yul\":9016:9025   */\n      dup4\n        /* \"#utility.yul\":9012:9029   */\n      add\n        /* \"#utility.yul\":9003:9009   */\n      dup5\n        /* \"#utility.yul\":8953:9030   */\n      tag_215\n      jump\t// in\n    tag_313:\n        /* \"#utility.yul\":8803:9037   */\n      swap3\n      swap2\n      pop\n      pop\n      jump\t// out\n        /* \"#utility.yul\":9043:9185   */\n    tag_216:\n        /* \"#utility.yul\":9146:9178   */\n      tag_315\n        /* \"#utility.yul\":9172:9177   */\n      dup2\n        /* \"#utility.yul\":9146:9178   */\n      tag_203\n      jump\t// in\n    tag_315:\n        /* \"#utility.yul\":9141:9144   */\n      dup3\n        /* \"#utility.yul\":9134:9179   */\n      mstore\n        /* \"#utility.yul\":9043:9185   */\n      pop\n      pop\n      jump\t// out\n        /* \"#utility.yul\":9191:9445   */\n    tag_57:\n        /* \"#utility.yul\":9300:9304   */\n      0x00\n        /* \"#utility.yul\":9338:9340   */\n      0x20\n        /* \"#utility.yul\":9327:9336   */\n      dup3\n        /* \"#utility.yul\":9323:9341   */\n      add\n        /* \"#utility.yul\":9315:9341   */\n      swap1\n      pop\n        /* \"#utility.yul\":9351:9438   */\n      tag_317\n        /* \"#utility.yul\":9435:9436   */\n      0x00\n        /* \"#utility.yul\":9424:9433   */\n      dup4\n        /* \"#utility.yul\":9420:9437   */\n      add\n        /* \"#utility.yul\":9411:9417   */\n      dup5\n        /* \"#utility.yul\":9351:9438   */\n      tag_216\n      jump\t// in\n    tag_317:\n        /* \"#utility.yul\":9191:9445   */\n      swap3\n      swap2\n      pop\n      pop\n      jump\t// out\n        /* \"#utility.yul\":9451:9560   */\n    tag_217:\n        /* \"#utility.yul\":9532:9553   */\n      tag_319\n        /* \"#utility.yul\":9547:9552   */\n      dup2\n        /* \"#utility.yul\":9532:9553   */\n      tag_209\n      jump\t// in\n    tag_319:\n        /* \"#utility.yul\":9527:9530   */\n      dup3\n        /* \"#utility.yul\":9520:9554   */\n      mstore\n        /* \"#utility.yul\":9451:9560   */\n      pop\n      pop\n      jump\t// out\n        /* \"#utility.yul\":9566:10595   */\n    tag_107:\n        /* \"#utility.yul\":9871:9875   */\n      0x00\n        /* \"#utility.yul\":9909:9912   */\n      0x0100\n        /* \"#utility.yul\":9898:9907   */\n      dup3\n        /* \"#utility.yul\":9894:9913   */\n      add\n        /* \"#utility.yul\":9886:9913   */\n      swap1\n      pop\n        /* \"#utility.yul\":9923:10010   */\n      tag_321\n        /* \"#utility.yul\":10007:10008   */\n      0x00\n        /* \"#utility.yul\":9996:10005   */\n      dup4\n        /* \"#utility.yul\":9992:10009   */\n      add\n        /* \"#utility.yul\":9983:9989   */\n      dup12\n        /* \"#utility.yul\":9923:10010   */\n      tag_216\n      jump\t// in\n    tag_321:\n        /* \"#utility.yul\":10020:10092   */\n      tag_322\n        /* \"#utility.yul\":10088:10090   */\n      0x20\n        /* \"#utility.yul\":10077:10086   */\n      dup4\n        /* \"#utility.yul\":10073:10091   */\n      add\n        /* \"#utility.yul\":10064:10070   */\n      dup11\n        /* \"#utility.yul\":10020:10092   */\n      tag_198\n      jump\t// in\n    tag_322:\n        /* \"#utility.yul\":10102:10174   */\n      tag_323\n        /* \"#utility.yul\":10170:10172   */\n      0x40\n        /* \"#utility.yul\":10159:10168   */\n      dup4\n        /* \"#utility.yul\":10155:10173   */\n      add\n        /* \"#utility.yul\":10146:10152   */\n      dup10\n        /* \"#utility.yul\":10102:10174   */\n      tag_198\n      jump\t// in\n    tag_323:\n        /* \"#utility.yul\":10184:10262   */\n      tag_324\n        /* \"#utility.yul\":10258:10260   */\n      0x60\n        /* \"#utility.yul\":10247:10256   */\n      dup4\n        /* \"#utility.yul\":10243:10261   */\n      add\n        /* \"#utility.yul\":10234:10240   */\n      dup9\n        /* \"#utility.yul\":10184:10262   */\n      tag_215\n      jump\t// in\n    tag_324:\n        /* \"#utility.yul\":10272:10345   */\n      tag_325\n        /* \"#utility.yul\":10340:10343   */\n      0x80\n        /* \"#utility.yul\":10329:10338   */\n      dup4\n        /* \"#utility.yul\":10325:10344   */\n      add\n        /* \"#utility.yul\":10316:10322   */\n      dup8\n        /* \"#utility.yul\":10272:10345   */\n      tag_198\n      jump\t// in\n    tag_325:\n        /* \"#utility.yul\":10355:10428   */\n      tag_326\n        /* \"#utility.yul\":10423:10426   */\n      0xa0\n        /* \"#utility.yul\":10412:10421   */\n      dup4\n        /* \"#utility.yul\":10408:10427   */\n      add\n        /* \"#utility.yul\":10399:10405   */\n      dup7\n        /* \"#utility.yul\":10355:10428   */\n      tag_198\n      jump\t// in\n    tag_326:\n        /* \"#utility.yul\":10438:10511   */\n      tag_327\n        /* \"#utility.yul\":10506:10509   */\n      0xc0\n        /* \"#utility.yul\":10495:10504   */\n      dup4\n        /* \"#utility.yul\":10491:10510   */\n      add\n        /* \"#utility.yul\":10482:10488   */\n      dup6\n        /* \"#utility.yul\":10438:10511   */\n      tag_198\n      jump\t// in\n    tag_327:\n        /* \"#utility.yul\":10521:10588   */\n      tag_328\n        /* \"#utility.yul\":10583:10586   */\n      0xe0\n        /* \"#utility.yul\":10572:10581   */\n      dup4\n        /* \"#utility.yul\":10568:10587   */\n      add\n        /* \"#utility.yul\":10559:10565   */\n      dup5\n        /* \"#utility.yul\":10521:10588   */\n      tag_217\n      jump\t// in\n    tag_328:\n        /* \"#utility.yul\":9566:10595   */\n      swap10\n      swap9\n      pop\n      pop\n      pop\n      pop\n      pop\n      pop\n      pop\n      pop\n      pop\n      jump\t// out\n        /* \"#utility.yul\":10601:10770   */\n    tag_218:\n        /* \"#utility.yul\":10685:10696   */\n      0x00\n        /* \"#utility.yul\":10719:10725   */\n      dup3\n        /* \"#utility.yul\":10714:10717   */\n      dup3\n        /* \"#utility.yul\":10707:10726   */\n      mstore\n        /* \"#utility.yul\":10759:10763   */\n      0x20\n        /* \"#utility.yul\":10754:10757   */\n      dup3\n        /* \"#utility.yul\":10750:10764   */\n      add\n        /* \"#utility.yul\":10735:10764   */\n      swap1\n      pop\n        /* \"#utility.yul\":10601:10770   */\n      swap3\n      swap2\n      pop\n      pop\n      jump\t// out\n        /* \"#utility.yul\":10776:10939   */\n    tag_219:\n        /* \"#utility.yul\":10916:10931   */\n      0x4f726465722050656e64696e6700000000000000000000000000000000000000\n        /* \"#utility.yul\":10912:10913   */\n      0x00\n        /* \"#utility.yul\":10904:10910   */\n      dup3\n        /* \"#utility.yul\":10900:10914   */\n      add\n        /* \"#utility.yul\":10893:10932   */\n      mstore\n        /* \"#utility.yul\":10776:10939   */\n      pop\n      jump\t// out\n        /* \"#utility.yul\":10945:11311   */\n    tag_220:\n        /* \"#utility.yul\":11087:11090   */\n      0x00\n        /* \"#utility.yul\":11108:11175   */\n      tag_332\n        /* \"#utility.yul\":11172:11174   */\n      0x0d\n        /* \"#utility.yul\":11167:11170   */\n      dup4\n        /* \"#utility.yul\":11108:11175   */\n      tag_218\n      jump\t// in\n    tag_332:\n        /* \"#utility.yul\":11101:11175   */\n      swap2\n      pop\n        /* \"#utility.yul\":11184:11277   */\n      tag_333\n        /* \"#utility.yul\":11273:11276   */\n      dup3\n        /* \"#utility.yul\":11184:11277   */\n      tag_219\n      jump\t// in\n    tag_333:\n        /* \"#utility.yul\":11302:11304   */\n      0x20\n        /* \"#utility.yul\":11297:11300   */\n      dup3\n        /* \"#utility.yul\":11293:11305   */\n      add\n        /* \"#utility.yul\":11286:11305   */\n      swap1\n      pop\n        /* \"#utility.yul\":10945:11311   */\n      swap2\n      swap1\n      pop\n      jump\t// out\n        /* \"#utility.yul\":11317:11736   */\n    tag_130:\n        /* \"#utility.yul\":11483:11487   */\n      0x00\n        /* \"#utility.yul\":11521:11523   */\n      0x20\n        /* \"#utility.yul\":11510:11519   */\n      dup3\n        /* \"#utility.yul\":11506:11524   */\n      add\n        /* \"#utility.yul\":11498:11524   */\n      swap1\n      pop\n        /* \"#utility.yul\":11570:11579   */\n      dup2\n        /* \"#utility.yul\":11564:11568   */\n      dup2\n        /* \"#utility.yul\":11560:11580   */\n      sub\n        /* \"#utility.yul\":11556:11557   */\n      0x00\n        /* \"#utility.yul\":11545:11554   */\n      dup4\n        /* \"#utility.yul\":11541:11558   */\n      add\n        /* \"#utility.yul\":11534:11581   */\n      mstore\n        /* \"#utility.yul\":11598:11729   */\n      tag_335\n        /* \"#utility.yul\":11724:11728   */\n      dup2\n        /* \"#utility.yul\":11598:11729   */\n      tag_220\n      jump\t// in\n    tag_335:\n        /* \"#utility.yul\":11590:11729   */\n      swap1\n      pop\n        /* \"#utility.yul\":11317:11736   */\n      swap2\n      swap1\n      pop\n      jump\t// out\n        /* \"#utility.yul\":11742:11906   */\n    tag_221:\n        /* \"#utility.yul\":11882:11898   */\n      0x4e6f7420417574686f7269736564000000000000000000000000000000000000\n        /* \"#utility.yul\":11878:11879   */\n      0x00\n        /* \"#utility.yul\":11870:11876   */\n      dup3\n        /* \"#utility.yul\":11866:11880   */\n      add\n        /* \"#utility.yul\":11859:11899   */\n      mstore\n        /* \"#utility.yul\":11742:11906   */\n      pop\n      jump\t// out\n        /* \"#utility.yul\":11912:12278   */\n    tag_222:\n        /* \"#utility.yul\":12054:12057   */\n      0x00\n        /* \"#utility.yul\":12075:12142   */\n      tag_338\n        /* \"#utility.yul\":12139:12141   */\n      0x0e\n        /* \"#utility.yul\":12134:12137   */\n      dup4\n        /* \"#utility.yul\":12075:12142   */\n      tag_218\n      jump\t// in\n    tag_338:\n        /* \"#utility.yul\":12068:12142   */\n      swap2\n      pop\n        /* \"#utility.yul\":12151:12244   */\n      tag_339\n        /* \"#utility.yul\":12240:12243   */\n      dup3\n        /* \"#utility.yul\":12151:12244   */\n      tag_221\n      jump\t// in\n    tag_339:\n        /* \"#utility.yul\":12269:12271   */\n      0x20\n        /* \"#utility.yul\":12264:12267   */\n      dup3\n        /* \"#utility.yul\":12260:12272   */\n      add\n        /* \"#utility.yul\":12253:12272   */\n      swap1\n      pop\n        /* \"#utility.yul\":11912:12278   */\n      swap2\n      swap1\n      pop\n      jump\t// out\n        /* \"#utility.yul\":12284:12703   */\n    tag_138:\n        /* \"#utility.yul\":12450:12454   */\n      0x00\n        /* \"#utility.yul\":12488:12490   */\n      0x20\n        /* \"#utility.yul\":12477:12486   */\n      dup3\n        /* \"#utility.yul\":12473:12491   */\n      add\n        /* \"#utility.yul\":12465:12491   */\n      swap1\n      pop\n        /* \"#utility.yul\":12537:12546   */\n      dup2\n        /* \"#utility.yul\":12531:12535   */\n      dup2\n        /* \"#utility.yul\":12527:12547   */\n      sub\n        /* \"#utility.yul\":12523:12524   */\n      0x00\n        /* \"#utility.yul\":12512:12521   */\n      dup4\n        /* \"#utility.yul\":12508:12525   */\n      add\n        /* \"#utility.yul\":12501:12548   */\n      mstore\n        /* \"#utility.yul\":12565:12696   */\n      tag_341\n        /* \"#utility.yul\":12691:12695   */\n      dup2\n        /* \"#utility.yul\":12565:12696   */\n      tag_222\n      jump\t// in\n    tag_341:\n        /* \"#utility.yul\":12557:12696   */\n      swap1\n      pop\n        /* \"#utility.yul\":12284:12703   */\n      swap2\n      swap1\n      pop\n      jump\t// out\n        /* \"#utility.yul\":12709:12890   */\n    tag_223:\n        /* \"#utility.yul\":12849:12882   */\n      0x70726963652076616c7565206d757374206265206d6f7265207468616e203000\n        /* \"#utility.yul\":12845:12846   */\n      0x00\n        /* \"#utility.yul\":12837:12843   */\n      dup3\n        /* \"#utility.yul\":12833:12847   */\n      add\n        /* \"#utility.yul\":12826:12883   */\n      mstore\n        /* \"#utility.yul\":12709:12890   */\n      pop\n      jump\t// out\n        /* \"#utility.yul\":12896:13262   */\n    tag_224:\n        /* \"#utility.yul\":13038:13041   */\n      0x00\n        /* \"#utility.yul\":13059:13126   */\n      tag_344\n        /* \"#utility.yul\":13123:13125   */\n      0x1f\n        /* \"#utility.yul\":13118:13121   */\n      dup4\n        /* \"#utility.yul\":13059:13126   */\n      tag_218\n      jump\t// in\n    tag_344:\n        /* \"#utility.yul\":13052:13126   */\n      swap2\n      pop\n        /* \"#utility.yul\":13135:13228   */\n      tag_345\n        /* \"#utility.yul\":13224:13227   */\n      dup3\n        /* \"#utility.yul\":13135:13228   */\n      tag_223\n      jump\t// in\n    tag_345:\n        /* \"#utility.yul\":13253:13255   */\n      0x20\n        /* \"#utility.yul\":13248:13251   */\n      dup3\n        /* \"#utility.yul\":13244:13256   */\n      add\n        /* \"#utility.yul\":13237:13256   */\n      swap1\n      pop\n        /* \"#utility.yul\":12896:13262   */\n      swap2\n      swap1\n      pop\n      jump\t// out\n        /* \"#utility.yul\":13268:13687   */\n    tag_148:\n        /* \"#utility.yul\":13434:13438   */\n      0x00\n        /* \"#utility.yul\":13472:13474   */\n      0x20\n        /* \"#utility.yul\":13461:13470   */\n      dup3\n        /* \"#utility.yul\":13457:13475   */\n      add\n        /* \"#utility.yul\":13449:13475   */\n      swap1\n      pop\n        /* \"#utility.yul\":13521:13530   */\n      dup2\n        /* \"#utility.yul\":13515:13519   */\n      dup2\n        /* \"#utility.yul\":13511:13531   */\n      sub\n        /* \"#utility.yul\":13507:13508   */\n      0x00\n        /* \"#utility.yul\":13496:13505   */\n      dup4\n        /* \"#utility.yul\":13492:13509   */\n      add\n        /* \"#utility.yul\":13485:13532   */\n      mstore\n        /* \"#utility.yul\":13549:13680   */\n      tag_347\n        /* \"#utility.yul\":13675:13679   */\n      dup2\n        /* \"#utility.yul\":13549:13680   */\n      tag_224\n      jump\t// in\n    tag_347:\n        /* \"#utility.yul\":13541:13680   */\n      swap1\n      pop\n        /* \"#utility.yul\":13268:13687   */\n      swap2\n      swap1\n      pop\n      jump\t// out\n        /* \"#utility.yul\":13693:13873   */\n    tag_225:\n        /* \"#utility.yul\":13833:13865   */\n      0x4e6f7420656e6f75676820626c616e636520746f20706c6163652061736b0000\n        /* \"#utility.yul\":13829:13830   */\n      0x00\n        /* \"#utility.yul\":13821:13827   */\n      dup3\n        /* \"#utility.yul\":13817:13831   */\n      add\n        /* \"#utility.yul\":13810:13866   */\n      mstore\n        /* \"#utility.yul\":13693:13873   */\n      pop\n      jump\t// out\n        /* \"#utility.yul\":13879:14245   */\n    tag_226:\n        /* \"#utility.yul\":14021:14024   */\n      0x00\n        /* \"#utility.yul\":14042:14109   */\n      tag_350\n        /* \"#utility.yul\":14106:14108   */\n      0x1e\n        /* \"#utility.yul\":14101:14104   */\n      dup4\n        /* \"#utility.yul\":14042:14109   */\n      tag_218\n      jump\t// in\n    tag_350:\n        /* \"#utility.yul\":14035:14109   */\n      swap2\n      pop\n        /* \"#utility.yul\":14118:14211   */\n      tag_351\n        /* \"#utility.yul\":14207:14210   */\n      dup3\n        /* \"#utility.yul\":14118:14211   */\n      tag_225\n      jump\t// in\n    tag_351:\n        /* \"#utility.yul\":14236:14238   */\n      0x20\n        /* \"#utility.yul\":14231:14234   */\n      dup3\n        /* \"#utility.yul\":14227:14239   */\n      add\n        /* \"#utility.yul\":14220:14239   */\n      swap1\n      pop\n        /* \"#utility.yul\":13879:14245   */\n      swap2\n      swap1\n      pop\n      jump\t// out\n        /* \"#utility.yul\":14251:14670   */\n    tag_151:\n        /* \"#utility.yul\":14417:14421   */\n      0x00\n        /* \"#utility.yul\":14455:14457   */\n      0x20\n        /* \"#utility.yul\":14444:14453   */\n      dup3\n        /* \"#utility.yul\":14440:14458   */\n      add\n        /* \"#utility.yul\":14432:14458   */\n      swap1\n      pop\n        /* \"#utility.yul\":14504:14513   */\n      dup2\n        /* \"#utility.yul\":14498:14502   */\n      dup2\n        /* \"#utility.yul\":14494:14514   */\n      sub\n        /* \"#utility.yul\":14490:14491   */\n      0x00\n        /* \"#utility.yul\":14479:14488   */\n      dup4\n        /* \"#utility.yul\":14475:14492   */\n      add\n        /* \"#utility.yul\":14468:14515   */\n      mstore\n        /* \"#utility.yul\":14532:14663   */\n      tag_353\n        /* \"#utility.yul\":14658:14662   */\n      dup2\n        /* \"#utility.yul\":14532:14663   */\n      tag_226\n      jump\t// in\n    tag_353:\n        /* \"#utility.yul\":14524:14663   */\n      swap1\n      pop\n        /* \"#utility.yul\":14251:14670   */\n      swap2\n      swap1\n      pop\n      jump\t// out\n        /* \"#utility.yul\":14676:14856   */\n    tag_227:\n        /* \"#utility.yul\":14816:14848   */\n      0x4e6f7420656e6f75676820626c616e636520746f20706c616365206269640000\n        /* \"#utility.yul\":14812:14813   */\n      0x00\n        /* \"#utility.yul\":14804:14810   */\n      dup3\n        /* \"#utility.yul\":14800:14814   */\n      add\n        /* \"#utility.yul\":14793:14849   */\n      mstore\n        /* \"#utility.yul\":14676:14856   */\n      pop\n      jump\t// out\n        /* \"#utility.yul\":14862:15228   */\n    tag_228:\n        /* \"#utility.yul\":15004:15007   */\n      0x00\n        /* \"#utility.yul\":15025:15092   */\n      tag_356\n        /* \"#utility.yul\":15089:15091   */\n      0x1e\n        /* \"#utility.yul\":15084:15087   */\n      dup4\n        /* \"#utility.yul\":15025:15092   */\n      tag_218\n      jump\t// in\n    tag_356:\n        /* \"#utility.yul\":15018:15092   */\n      swap2\n      pop\n        /* \"#utility.yul\":15101:15194   */\n      tag_357\n        /* \"#utility.yul\":15190:15193   */\n      dup3\n        /* \"#utility.yul\":15101:15194   */\n      tag_227\n      jump\t// in\n    tag_357:\n        /* \"#utility.yul\":15219:15221   */\n      0x20\n        /* \"#utility.yul\":15214:15217   */\n      dup3\n        /* \"#utility.yul\":15210:15222   */\n      add\n        /* \"#utility.yul\":15203:15222   */\n      swap1\n      pop\n        /* \"#utility.yul\":14862:15228   */\n      swap2\n      swap1\n      pop\n      jump\t// out\n        /* \"#utility.yul\":15234:15653   */\n    tag_176:\n        /* \"#utility.yul\":15400:15404   */\n      0x00\n        /* \"#utility.yul\":15438:15440   */\n      0x20\n        /* \"#utility.yul\":15427:15436   */\n      dup3\n        /* \"#utility.yul\":15423:15441   */\n      add\n        /* \"#utility.yul\":15415:15441   */\n      swap1\n      pop\n        /* \"#utility.yul\":15487:15496   */\n      dup2\n        /* \"#utility.yul\":15481:15485   */\n      dup2\n        /* \"#utility.yul\":15477:15497   */\n      sub\n        /* \"#utility.yul\":15473:15474   */\n      0x00\n        /* \"#utility.yul\":15462:15471   */\n      dup4\n        /* \"#utility.yul\":15458:15475   */\n      add\n        /* \"#utility.yul\":15451:15498   */\n      mstore\n        /* \"#utility.yul\":15515:15646   */\n      tag_359\n        /* \"#utility.yul\":15641:15645   */\n      dup2\n        /* \"#utility.yul\":15515:15646   */\n      tag_228\n      jump\t// in\n    tag_359:\n        /* \"#utility.yul\":15507:15646   */\n      swap1\n      pop\n        /* \"#utility.yul\":15234:15653   */\n      swap2\n      swap1\n      pop\n      jump\t// out\n\n    auxdata: 0xa2646970667358221220797b84e57136d2f1afdef054b8f2cc88b519c1b5026b473b04cf3d1c1d522cb864736f6c634300080d0033\n}\n",
				"bytecode": {
					"linkReferences": {},
					"object": "608060405233600360006101000a81548173ffffffffffffffffffffffffffffffffffffffff021916908373ffffffffffffffffffffffffffffffffffffffff1602179055503480156200005257600080fd5b5060405162001686380380620016868339818101604052810190620000789190620000f6565b806004819055506000600681905550600060078190555060006008819055506000600a819055506000600b819055506000600c819055505062000128565b600080fd5b6000819050919050565b620000d081620000bb565b8114620000dc57600080fd5b50565b600081519050620000f081620000c5565b92915050565b6000602082840312156200010f576200010e620000b6565b5b60006200011f84828501620000df565b91505092915050565b61154e80620001386000396000f3fe60806040526004361061011f5760003560e01c8063801d9bbd116100a0578063bf77ffae11610064578063bf77ffae146103cf578063ce0cdc871461040c578063d09ef24114610437578063db3a13961461047b578063ecdfb860146104b85761011f565b8063801d9bbd146103095780639703ef35146103345780639979ef451461035d578063a394fda714610379578063b40a5627146103a45761011f565b806369f632e2116100e757806369f632e21461021d5780636e5b0f001461025a578063734a2e781461028557806378c5b268146102c25780637bb51193146102de5761011f565b8063122de8f2146101245780631628e0f51461014f5780632db6dfa7146101785780634471417f146101b55780634d46712d146101e0575b600080fd5b34801561013057600080fd5b506101396104e3565b6040516101469190610f19565b60405180910390f35b34801561015b57600080fd5b5061017660048036038101906101719190610f6c565b6104e8565b005b34801561018457600080fd5b5061019f600480360381019061019a9190610f6c565b6107c6565b6040516101ac9190610fa8565b60405180910390f35b3480156101c157600080fd5b506101ca6107e6565b6040516101d791906111e8565b60405180910390f35b3480156101ec57600080fd5b5061020760048036038101906102029190610f6c565b6107eb565b6040516102149190611219565b60405180910390f35b34801561022957600080fd5b50610244600480360381019061023f9190610f6c565b610818565b6040516102519190611243565b60405180910390f35b34801561026657600080fd5b5061026f610858565b60405161027c9190610fa8565b60405180910390f35b34801561029157600080fd5b506102ac60048036038101906102a79190610f6c565b61085e565b6040516102b99190611243565b60405180910390f35b6102dc60048036038101906102d79190610f6c565b61089e565b005b3480156102ea57600080fd5b506102f3610928565b6040516103009190610fa8565b60405180910390f35b34801561031557600080fd5b5061031e61092e565b60405161032b9190610fa8565b60405180910390f35b34801561034057600080fd5b5061035b60048036038101906103569190610f6c565b610934565b005b61037760048036038101906103729190610f6c565b610c12565b005b34801561038557600080fd5b5061038e610c9c565b60405161039b9190610fa8565b60405180910390f35b3480156103b057600080fd5b506103b9610ca2565b6040516103c69190610fa8565b60405180910390f35b3480156103db57600080fd5b506103f660048036038101906103f19190610f6c565b610ca8565b6040516104039190611219565b60405180910390f35b34801561041857600080fd5b50610421610cd5565b60405161042e9190610f19565b60405180910390f35b34801561044357600080fd5b5061045e60048036038101906104599190610f6c565b610cda565b60405161047298979695949392919061126d565b60405180910390f35b34801561048757600080fd5b506104a2600480360381019061049d9190610f6c565b610e2b565b6040516104af9190610fa8565b60405180910390f35b3480156104c457600080fd5b506104cd610e4b565b6040516104da9190610fa8565b60405180910390f35b606090565b60096000828152602001908152602001600020604051806101000160405290816000820160009054906101000a900473ffffffffffffffffffffffffffffffffffffffff1673ffffffffffffffffffffffffffffffffffffffff1673ffffffffffffffffffffffffffffffffffffffff16815260200160018201548152602001600282015481526020016003820160009054906101000a900460ff16600181111561059657610595611030565b5b60018111156105a8576105a7611030565b5b81526020016004820154815260200160058201548152602001600682015481526020016007820160009054906101000a900460ff161515151581525050600060018111156105f9576105f8611030565b5b816060015160018111156106105761060f611030565b5b14610650576040517f08c379a000000000000000000000000000000000000000000000000000000000815260040161064790611348565b60405180910390fd5b60096000838152602001908152602001600020604051806101000160405290816000820160009054906101000a900473ffffffffffffffffffffffffffffffffffffffff1673ffffffffffffffffffffffffffffffffffffffff1673ffffffffffffffffffffffffffffffffffffffff16815260200160018201548152602001600282015481526020016003820160009054906101000a900460ff1660018111156106fe576106fd611030565b5b60018111156107105761070f611030565b5b81526020016004820154815260200160058201548152602001600682015481526020016007820160009054906101000a900460ff161515151581525050338073ffffffffffffffffffffffffffffffffffffffff16826000015173ffffffffffffffffffffffffffffffffffffffff16146107c0576040517f08c379a00000000000000000000000000000000000000000000000000000000081526004016107b7906113b4565b60405180910390fd5b50505050565b600060056000838152602001908152602001600020600101549050919050565b606090565b60006009600083815260200190815260200160002060030160009054906101000a900460ff169050919050565b60006005600083815260200190815260200160002060000160009054906101000a900473ffffffffffffffffffffffffffffffffffffffff169050919050565b60065481565b60006009600083815260200190815260200160002060000160009054906101000a900473ffffffffffffffffffffffffffffffffffffffff169050919050565b60008110156108e2576040517f08c379a00000000000000000000000000000000000000000000000000000000081526004016108d990611420565b60405180910390fd5b80341015610925576040517f08c379a000000000000000000000000000000000000000000000000000000000815260040161091c9061148c565b60405180910390fd5b50565b60075481565b600a5481565b60056000828152602001908152602001600020604051806101000160405290816000820160009054906101000a900473ffffffffffffffffffffffffffffffffffffffff1673ffffffffffffffffffffffffffffffffffffffff1673ffffffffffffffffffffffffffffffffffffffff16815260200160018201548152602001600282015481526020016003820160009054906101000a900460ff1660018111156109e2576109e1611030565b5b60018111156109f4576109f3611030565b5b81526020016004820154815260200160058201548152602001600682015481526020016007820160009054906101000a900460ff16151515158152505060006001811115610a4557610a44611030565b5b81606001516001811115610a5c57610a5b611030565b5b14610a9c576040517f08c379a0000000000000000000000000000000000000000000000000000000008152600401610a9390611348565b60405180910390fd5b60056000838152602001908152602001600020604051806101000160405290816000820160009054906101000a900473ffffffffffffffffffffffffffffffffffffffff1673ffffffffffffffffffffffffffffffffffffffff1673ffffffffffffffffffffffffffffffffffffffff16815260200160018201548152602001600282015481526020016003820160009054906101000a900460ff166001811115610b4a57610b49611030565b5b6001811115610b5c57610b5b611030565b5b81526020016004820154815260200160058201548152602001600682015481526020016007820160009054906101000a900460ff161515151581525050338073ffffffffffffffffffffffffffffffffffffffff16826000015173ffffffffffffffffffffffffffffffffffffffff1614610c0c576040517f08c379a0000000000000000000000000000000000000000000000000000000008152600401610c03906113b4565b60405180910390fd5b50505050565b6000811015610c56576040517f08c379a0000000000000000000000000000000000000000000000000000000008152600401610c4d90611420565b60405180910390fd5b80341015610c99576040517f08c379a0000000000000000000000000000000000000000000000000000000008152600401610c90906114f8565b60405180910390fd5b50565b600c5481565b60085481565b60006005600083815260200190815260200160002060030160009054906101000a900460ff169050919050565b606090565b6000806000806000806000806000600560008b8152602001908152602001600020604051806101000160405290816000820160009054906101000a900473ffffffffffffffffffffffffffffffffffffffff1673ffffffffffffffffffffffffffffffffffffffff1673ffffffffffffffffffffffffffffffffffffffff16815260200160018201548152602001600282015481526020016003820160009054906101000a900460ff166001811115610d9657610d95611030565b5b6001811115610da857610da7611030565b5b81526020016004820154815260200160058201548152602001600682015481526020016007820160009054906101000a900460ff1615151515815250509050806000015181602001518260400151836060015184608001518560a001518660c001518760e001519850985098509850985098509850985050919395975091939597565b600060096000838152602001908152602001600020600101549050919050565b600b5481565b600081519050919050565b600082825260208201905092915050565b6000819050602082019050919050565b6000819050919050565b610e9081610e7d565b82525050565b6000610ea28383610e87565b60208301905092915050565b6000602082019050919050565b6000610ec682610e51565b610ed08185610e5c565b9350610edb83610e6d565b8060005b83811015610f0c578151610ef38882610e96565b9750610efe83610eae565b925050600181019050610edf565b5085935050505092915050565b60006020820190508181036000830152610f338184610ebb565b905092915050565b600080fd5b610f4981610e7d565b8114610f5457600080fd5b50565b600081359050610f6681610f40565b92915050565b600060208284031215610f8257610f81610f3b565b5b6000610f9084828501610f57565b91505092915050565b610fa281610e7d565b82525050565b6000602082019050610fbd6000830184610f99565b92915050565b600081519050919050565b600082825260208201905092915050565b6000819050602082019050919050565b600073ffffffffffffffffffffffffffffffffffffffff82169050919050565b600061101a82610fef565b9050919050565b61102a8161100f565b82525050565b7f4e487b7100000000000000000000000000000000000000000000000000000000600052602160045260246000fd5b600281106110705761106f611030565b5b50565b60008190506110818261105f565b919050565b600061109182611073565b9050919050565b6110a181611086565b82525050565b60008115159050919050565b6110bc816110a7565b82525050565b610100820160008201516110d96000850182611021565b5060208201516110ec6020850182610e87565b5060408201516110ff6040850182610e87565b5060608201516111126060850182611098565b5060808201516111256080850182610e87565b5060a082015161113860a0850182610e87565b5060c082015161114b60c0850182610e87565b5060e082015161115e60e08501826110b3565b50505050565b600061117083836110c2565b6101008301905092915050565b6000602082019050919050565b600061119582610fc3565b61119f8185610fce565b93506111aa83610fdf565b8060005b838110156111db5781516111c28882611164565b97506111cd8361117d565b9250506001810190506111ae565b5085935050505092915050565b60006020820190508181036000830152611202818461118a565b905092915050565b61121381611086565b82525050565b600060208201905061122e600083018461120a565b92915050565b61123d8161100f565b82525050565b60006020820190506112586000830184611234565b92915050565b611267816110a7565b82525050565b600061010082019050611283600083018b611234565b611290602083018a610f99565b61129d6040830189610f99565b6112aa606083018861120a565b6112b76080830187610f99565b6112c460a0830186610f99565b6112d160c0830185610f99565b6112de60e083018461125e565b9998505050505050505050565b600082825260208201905092915050565b7f4f726465722050656e64696e6700000000000000000000000000000000000000600082015250565b6000611332600d836112eb565b915061133d826112fc565b602082019050919050565b6000602082019050818103600083015261136181611325565b9050919050565b7f4e6f7420417574686f7269736564000000000000000000000000000000000000600082015250565b600061139e600e836112eb565b91506113a982611368565b602082019050919050565b600060208201905081810360008301526113cd81611391565b9050919050565b7f70726963652076616c7565206d757374206265206d6f7265207468616e203000600082015250565b600061140a601f836112eb565b9150611415826113d4565b602082019050919050565b60006020820190508181036000830152611439816113fd565b9050919050565b7f4e6f7420656e6f75676820626c616e636520746f20706c6163652061736b0000600082015250565b6000611476601e836112eb565b915061148182611440565b602082019050919050565b600060208201905081810360008301526114a581611469565b9050919050565b7f4e6f7420656e6f75676820626c616e636520746f20706c616365206269640000600082015250565b60006114e2601e836112eb565b91506114ed826114ac565b602082019050919050565b60006020820190508181036000830152611511816114d5565b905091905056fea2646970667358221220797b84e57136d2f1afdef054b8f2cc88b519c1b5026b473b04cf3d1c1d522cb864736f6c634300080d0033",
					"opcodes": "PUSH1 0x80 PUSH1 0x40 MSTORE CALLER PUSH1 0x3 PUSH1 0x0 PUSH2 0x100 EXP DUP2 SLOAD DUP2 PUSH20 0xFFFFFFFFFFFFFFFFFFFFFFFFFFFFFFFFFFFFFFFF MUL NOT AND SWAP1 DUP4 PUSH20 0xFFFFFFFFFFFFFFFFFFFFFFFFFFFFFFFFFFFFFFFF AND MUL OR SWAP1 SSTORE POP CALLVALUE DUP1 ISZERO PUSH3 0x52 JUMPI PUSH1 0x0 DUP1 REVERT JUMPDEST POP PUSH1 0x40 MLOAD PUSH3 0x1686 CODESIZE SUB DUP1 PUSH3 0x1686 DUP4 CODECOPY DUP2 DUP2 ADD PUSH1 0x40 MSTORE DUP2 ADD SWAP1 PUSH3 0x78 SWAP2 SWAP1 PUSH3 0xF6 JUMP JUMPDEST DUP1 PUSH1 0x4 DUP2 SWAP1 SSTORE POP PUSH1 0x0 PUSH1 0x6 DUP2 SWAP1 SSTORE POP PUSH1 0x0 PUSH1 0x7 DUP2 SWAP1 SSTORE POP PUSH1 0x0 PUSH1 0x8 DUP2 SWAP1 SSTORE POP PUSH1 0x0 PUSH1 0xA DUP2 SWAP1 SSTORE POP PUSH1 0x0 PUSH1 0xB DUP2 SWAP1 SSTORE POP PUSH1 0x0 PUSH1 0xC DUP2 SWAP1 SSTORE POP POP PUSH3 0x128 JUMP JUMPDEST PUSH1 0x0 DUP1 REVERT JUMPDEST PUSH1 0x0 DUP2 SWAP1 POP SWAP2 SWAP1 POP JUMP JUMPDEST PUSH3 0xD0 DUP2 PUSH3 0xBB JUMP JUMPDEST DUP2 EQ PUSH3 0xDC JUMPI PUSH1 0x0 DUP1 REVERT JUMPDEST POP JUMP JUMPDEST PUSH1 0x0 DUP2 MLOAD SWAP1 POP PUSH3 0xF0 DUP2 PUSH3 0xC5 JUMP JUMPDEST SWAP3 SWAP2 POP POP JUMP JUMPDEST PUSH1 0x0 PUSH1 0x20 DUP3 DUP5 SUB SLT ISZERO PUSH3 0x10F JUMPI PUSH3 0x10E PUSH3 0xB6 JUMP JUMPDEST JUMPDEST PUSH1 0x0 PUSH3 0x11F DUP5 DUP3 DUP6 ADD PUSH3 0xDF JUMP JUMPDEST SWAP2 POP POP SWAP3 SWAP2 POP POP JUMP JUMPDEST PUSH2 0x154E DUP1 PUSH3 0x138 PUSH1 0x0 CODECOPY PUSH1 0x0 RETURN INVALID PUSH1 0x80 PUSH1 0x40 MSTORE PUSH1 0x4 CALLDATASIZE LT PUSH2 0x11F JUMPI PUSH1 0x0 CALLDATALOAD PUSH1 0xE0 SHR DUP1 PUSH4 0x801D9BBD GT PUSH2 0xA0 JUMPI DUP1 PUSH4 0xBF77FFAE GT PUSH2 0x64 JUMPI DUP1 PUSH4 0xBF77FFAE EQ PUSH2 0x3CF JUMPI DUP1 PUSH4 0xCE0CDC87 EQ PUSH2 0x40C JUMPI DUP1 PUSH4 0xD09EF241 EQ PUSH2 0x437 JUMPI DUP1 PUSH4 0xDB3A1396 EQ PUSH2 0x47B JUMPI DUP1 PUSH4 0xECDFB860 EQ PUSH2 0x4B8 JUMPI PUSH2 0x11F JUMP JUMPDEST DUP1 PUSH4 0x801D9BBD EQ PUSH2 0x309 JUMPI DUP1 PUSH4 0x9703EF35 EQ PUSH2 0x334 JUMPI DUP1 PUSH4 0x9979EF45 EQ PUSH2 0x35D JUMPI DUP1 PUSH4 0xA394FDA7 EQ PUSH2 0x379 JUMPI DUP1 PUSH4 0xB40A5627 EQ PUSH2 0x3A4 JUMPI PUSH2 0x11F JUMP JUMPDEST DUP1 PUSH4 0x69F632E2 GT PUSH2 0xE7 JUMPI DUP1 PUSH4 0x69F632E2 EQ PUSH2 0x21D JUMPI DUP1 PUSH4 0x6E5B0F00 EQ PUSH2 0x25A JUMPI DUP1 PUSH4 0x734A2E78 EQ PUSH2 0x285 JUMPI DUP1 PUSH4 0x78C5B268 EQ PUSH2 0x2C2 JUMPI DUP1 PUSH4 0x7BB51193 EQ PUSH2 0x2DE JUMPI PUSH2 0x11F JUMP JUMPDEST DUP1 PUSH4 0x122DE8F2 EQ PUSH2 0x124 JUMPI DUP1 PUSH4 0x1628E0F5 EQ PUSH2 0x14F JUMPI DUP1 PUSH4 0x2DB6DFA7 EQ PUSH2 0x178 JUMPI DUP1 PUSH4 0x4471417F EQ PUSH2 0x1B5 JUMPI DUP1 PUSH4 0x4D46712D EQ PUSH2 0x1E0 JUMPI JUMPDEST PUSH1 0x0 DUP1 REVERT JUMPDEST CALLVALUE DUP1 ISZERO PUSH2 0x130 JUMPI PUSH1 0x0 DUP1 REVERT JUMPDEST POP PUSH2 0x139 PUSH2 0x4E3 JUMP JUMPDEST PUSH1 0x40 MLOAD PUSH2 0x146 SWAP2 SWAP1 PUSH2 0xF19 JUMP JUMPDEST PUSH1 0x40 MLOAD DUP1 SWAP2 SUB SWAP1 RETURN JUMPDEST CALLVALUE DUP1 ISZERO PUSH2 0x15B JUMPI PUSH1 0x0 DUP1 REVERT JUMPDEST POP PUSH2 0x176 PUSH1 0x4 DUP1 CALLDATASIZE SUB DUP2 ADD SWAP1 PUSH2 0x171 SWAP2 SWAP1 PUSH2 0xF6C JUMP JUMPDEST PUSH2 0x4E8 JUMP JUMPDEST STOP JUMPDEST CALLVALUE DUP1 ISZERO PUSH2 0x184 JUMPI PUSH1 0x0 DUP1 REVERT JUMPDEST POP PUSH2 0x19F PUSH1 0x4 DUP1 CALLDATASIZE SUB DUP2 ADD SWAP1 PUSH2 0x19A SWAP2 SWAP1 PUSH2 0xF6C JUMP JUMPDEST PUSH2 0x7C6 JUMP JUMPDEST PUSH1 0x40 MLOAD PUSH2 0x1AC SWAP2 SWAP1 PUSH2 0xFA8 JUMP JUMPDEST PUSH1 0x40 MLOAD DUP1 SWAP2 SUB SWAP1 RETURN JUMPDEST CALLVALUE DUP1 ISZERO PUSH2 0x1C1 JUMPI PUSH1 0x0 DUP1 REVERT JUMPDEST POP PUSH2 0x1CA PUSH2 0x7E6 JUMP JUMPDEST PUSH1 0x40 MLOAD PUSH2 0x1D7 SWAP2 SWAP1 PUSH2 0x11E8 JUMP JUMPDEST PUSH1 0x40 MLOAD DUP1 SWAP2 SUB SWAP1 RETURN JUMPDEST CALLVALUE DUP1 ISZERO PUSH2 0x1EC JUMPI PUSH1 0x0 DUP1 REVERT JUMPDEST POP PUSH2 0x207 PUSH1 0x4 DUP1 CALLDATASIZE SUB DUP2 ADD SWAP1 PUSH2 0x202 SWAP2 SWAP1 PUSH2 0xF6C JUMP JUMPDEST PUSH2 0x7EB JUMP JUMPDEST PUSH1 0x40 MLOAD PUSH2 0x214 SWAP2 SWAP1 PUSH2 0x1219 JUMP JUMPDEST PUSH1 0x40 MLOAD DUP1 SWAP2 SUB SWAP1 RETURN JUMPDEST CALLVALUE DUP1 ISZERO PUSH2 0x229 JUMPI PUSH1 0x0 DUP1 REVERT JUMPDEST POP PUSH2 0x244 PUSH1 0x4 DUP1 CALLDATASIZE SUB DUP2 ADD SWAP1 PUSH2 0x23F SWAP2 SWAP1 PUSH2 0xF6C JUMP JUMPDEST PUSH2 0x818 JUMP JUMPDEST PUSH1 0x40 MLOAD PUSH2 0x251 SWAP2 SWAP1 PUSH2 0x1243 JUMP JUMPDEST PUSH1 0x40 MLOAD DUP1 SWAP2 SUB SWAP1 RETURN JUMPDEST CALLVALUE DUP1 ISZERO PUSH2 0x266 JUMPI PUSH1 0x0 DUP1 REVERT JUMPDEST POP PUSH2 0x26F PUSH2 0x858 JUMP JUMPDEST PUSH1 0x40 MLOAD PUSH2 0x27C SWAP2 SWAP1 PUSH2 0xFA8 JUMP JUMPDEST PUSH1 0x40 MLOAD DUP1 SWAP2 SUB SWAP1 RETURN JUMPDEST CALLVALUE DUP1 ISZERO PUSH2 0x291 JUMPI PUSH1 0x0 DUP1 REVERT JUMPDEST POP PUSH2 0x2AC PUSH1 0x4 DUP1 CALLDATASIZE SUB DUP2 ADD SWAP1 PUSH2 0x2A7 SWAP2 SWAP1 PUSH2 0xF6C JUMP JUMPDEST PUSH2 0x85E JUMP JUMPDEST PUSH1 0x40 MLOAD PUSH2 0x2B9 SWAP2 SWAP1 PUSH2 0x1243 JUMP JUMPDEST PUSH1 0x40 MLOAD DUP1 SWAP2 SUB SWAP1 RETURN JUMPDEST PUSH2 0x2DC PUSH1 0x4 DUP1 CALLDATASIZE SUB DUP2 ADD SWAP1 PUSH2 0x2D7 SWAP2 SWAP1 PUSH2 0xF6C JUMP JUMPDEST PUSH2 0x89E JUMP JUMPDEST STOP JUMPDEST CALLVALUE DUP1 ISZERO PUSH2 0x2EA JUMPI PUSH1 0x0 DUP1 REVERT JUMPDEST POP PUSH2 0x2F3 PUSH2 0x928 JUMP JUMPDEST PUSH1 0x40 MLOAD PUSH2 0x300 SWAP2 SWAP1 PUSH2 0xFA8 JUMP JUMPDEST PUSH1 0x40 MLOAD DUP1 SWAP2 SUB SWAP1 RETURN JUMPDEST CALLVALUE DUP1 ISZERO PUSH2 0x315 JUMPI PUSH1 0x0 DUP1 REVERT JUMPDEST POP PUSH2 0x31E PUSH2 0x92E JUMP JUMPDEST PUSH1 0x40 MLOAD PUSH2 0x32B SWAP2 SWAP1 PUSH2 0xFA8 JUMP JUMPDEST PUSH1 0x40 MLOAD DUP1 SWAP2 SUB SWAP1 RETURN JUMPDEST CALLVALUE DUP1 ISZERO PUSH2 0x340 JUMPI PUSH1 0x0 DUP1 REVERT JUMPDEST POP PUSH2 0x35B PUSH1 0x4 DUP1 CALLDATASIZE SUB DUP2 ADD SWAP1 PUSH2 0x356 SWAP2 SWAP1 PUSH2 0xF6C JUMP JUMPDEST PUSH2 0x934 JUMP JUMPDEST STOP JUMPDEST PUSH2 0x377 PUSH1 0x4 DUP1 CALLDATASIZE SUB DUP2 ADD SWAP1 PUSH2 0x372 SWAP2 SWAP1 PUSH2 0xF6C JUMP JUMPDEST PUSH2 0xC12 JUMP JUMPDEST STOP JUMPDEST CALLVALUE DUP1 ISZERO PUSH2 0x385 JUMPI PUSH1 0x0 DUP1 REVERT JUMPDEST POP PUSH2 0x38E PUSH2 0xC9C JUMP JUMPDEST PUSH1 0x40 MLOAD PUSH2 0x39B SWAP2 SWAP1 PUSH2 0xFA8 JUMP JUMPDEST PUSH1 0x40 MLOAD DUP1 SWAP2 SUB SWAP1 RETURN JUMPDEST CALLVALUE DUP1 ISZERO PUSH2 0x3B0 JUMPI PUSH1 0x0 DUP1 REVERT JUMPDEST POP PUSH2 0x3B9 PUSH2 0xCA2 JUMP JUMPDEST PUSH1 0x40 MLOAD PUSH2 0x3C6 SWAP2 SWAP1 PUSH2 0xFA8 JUMP JUMPDEST PUSH1 0x40 MLOAD DUP1 SWAP2 SUB SWAP1 RETURN JUMPDEST CALLVALUE DUP1 ISZERO PUSH2 0x3DB JUMPI PUSH1 0x0 DUP1 REVERT JUMPDEST POP PUSH2 0x3F6 PUSH1 0x4 DUP1 CALLDATASIZE SUB DUP2 ADD SWAP1 PUSH2 0x3F1 SWAP2 SWAP1 PUSH2 0xF6C JUMP JUMPDEST PUSH2 0xCA8 JUMP JUMPDEST PUSH1 0x40 MLOAD PUSH2 0x403 SWAP2 SWAP1 PUSH2 0x1219 JUMP JUMPDEST PUSH1 0x40 MLOAD DUP1 SWAP2 SUB SWAP1 RETURN JUMPDEST CALLVALUE DUP1 ISZERO PUSH2 0x418 JUMPI PUSH1 0x0 DUP1 REVERT JUMPDEST POP PUSH2 0x421 PUSH2 0xCD5 JUMP JUMPDEST PUSH1 0x40 MLOAD PUSH2 0x42E SWAP2 SWAP1 PUSH2 0xF19 JUMP JUMPDEST PUSH1 0x40 MLOAD DUP1 SWAP2 SUB SWAP1 RETURN JUMPDEST CALLVALUE DUP1 ISZERO PUSH2 0x443 JUMPI PUSH1 0x0 DUP1 REVERT JUMPDEST POP PUSH2 0x45E PUSH1 0x4 DUP1 CALLDATASIZE SUB DUP2 ADD SWAP1 PUSH2 0x459 SWAP2 SWAP1 PUSH2 0xF6C JUMP JUMPDEST PUSH2 0xCDA JUMP JUMPDEST PUSH1 0x40 MLOAD PUSH2 0x472 SWAP9 SWAP8 SWAP7 SWAP6 SWAP5 SWAP4 SWAP3 SWAP2 SWAP1 PUSH2 0x126D JUMP JUMPDEST PUSH1 0x40 MLOAD DUP1 SWAP2 SUB SWAP1 RETURN JUMPDEST CALLVALUE DUP1 ISZERO PUSH2 0x487 JUMPI PUSH1 0x0 DUP1 REVERT JUMPDEST POP PUSH2 0x4A2 PUSH1 0x4 DUP1 CALLDATASIZE SUB DUP2 ADD SWAP1 PUSH2 0x49D SWAP2 SWAP1 PUSH2 0xF6C JUMP JUMPDEST PUSH2 0xE2B JUMP JUMPDEST PUSH1 0x40 MLOAD PUSH2 0x4AF SWAP2 SWAP1 PUSH2 0xFA8 JUMP JUMPDEST PUSH1 0x40 MLOAD DUP1 SWAP2 SUB SWAP1 RETURN JUMPDEST CALLVALUE DUP1 ISZERO PUSH2 0x4C4 JUMPI PUSH1 0x0 DUP1 REVERT JUMPDEST POP PUSH2 0x4CD PUSH2 0xE4B JUMP JUMPDEST PUSH1 0x40 MLOAD PUSH2 0x4DA SWAP2 SWAP1 PUSH2 0xFA8 JUMP JUMPDEST PUSH1 0x40 MLOAD DUP1 SWAP2 SUB SWAP1 RETURN JUMPDEST PUSH1 0x60 SWAP1 JUMP JUMPDEST PUSH1 0x9 PUSH1 0x0 DUP3 DUP2 MSTORE PUSH1 0x20 ADD SWAP1 DUP2 MSTORE PUSH1 0x20 ADD PUSH1 0x0 KECCAK256 PUSH1 0x40 MLOAD DUP1 PUSH2 0x100 ADD PUSH1 0x40 MSTORE SWAP1 DUP2 PUSH1 0x0 DUP3 ADD PUSH1 0x0 SWAP1 SLOAD SWAP1 PUSH2 0x100 EXP SWAP1 DIV PUSH20 0xFFFFFFFFFFFFFFFFFFFFFFFFFFFFFFFFFFFFFFFF AND PUSH20 0xFFFFFFFFFFFFFFFFFFFFFFFFFFFFFFFFFFFFFFFF AND PUSH20 0xFFFFFFFFFFFFFFFFFFFFFFFFFFFFFFFFFFFFFFFF AND DUP2 MSTORE PUSH1 0x20 ADD PUSH1 0x1 DUP3 ADD SLOAD DUP2 MSTORE PUSH1 0x20 ADD PUSH1 0x2 DUP3 ADD SLOAD DUP2 MSTORE PUSH1 0x20 ADD PUSH1 0x3 DUP3 ADD PUSH1 0x0 SWAP1 SLOAD SWAP1 PUSH2 0x100 EXP SWAP1 DIV PUSH1 0xFF AND PUSH1 0x1 DUP2 GT ISZERO PUSH2 0x596 JUMPI PUSH2 0x595 PUSH2 0x1030 JUMP JUMPDEST JUMPDEST PUSH1 0x1 DUP2 GT ISZERO PUSH2 0x5A8 JUMPI PUSH2 0x5A7 PUSH2 0x1030 JUMP JUMPDEST JUMPDEST DUP2 MSTORE PUSH1 0x20 ADD PUSH1 0x4 DUP3 ADD SLOAD DUP2 MSTORE PUSH1 0x20 ADD PUSH1 0x5 DUP3 ADD SLOAD DUP2 MSTORE PUSH1 0x20 ADD PUSH1 0x6 DUP3 ADD SLOAD DUP2 MSTORE PUSH1 0x20 ADD PUSH1 0x7 DUP3 ADD PUSH1 0x0 SWAP1 SLOAD SWAP1 PUSH2 0x100 EXP SWAP1 DIV PUSH1 0xFF AND ISZERO ISZERO ISZERO ISZERO DUP2 MSTORE POP POP PUSH1 0x0 PUSH1 0x1 DUP2 GT ISZERO PUSH2 0x5F9 JUMPI PUSH2 0x5F8 PUSH2 0x1030 JUMP JUMPDEST JUMPDEST DUP2 PUSH1 0x60 ADD MLOAD PUSH1 0x1 DUP2 GT ISZERO PUSH2 0x610 JUMPI PUSH2 0x60F PUSH2 0x1030 JUMP JUMPDEST JUMPDEST EQ PUSH2 0x650 JUMPI PUSH1 0x40 MLOAD PUSH32 0x8C379A000000000000000000000000000000000000000000000000000000000 DUP2 MSTORE PUSH1 0x4 ADD PUSH2 0x647 SWAP1 PUSH2 0x1348 JUMP JUMPDEST PUSH1 0x40 MLOAD DUP1 SWAP2 SUB SWAP1 REVERT JUMPDEST PUSH1 0x9 PUSH1 0x0 DUP4 DUP2 MSTORE PUSH1 0x20 ADD SWAP1 DUP2 MSTORE PUSH1 0x20 ADD PUSH1 0x0 KECCAK256 PUSH1 0x40 MLOAD DUP1 PUSH2 0x100 ADD PUSH1 0x40 MSTORE SWAP1 DUP2 PUSH1 0x0 DUP3 ADD PUSH1 0x0 SWAP1 SLOAD SWAP1 PUSH2 0x100 EXP SWAP1 DIV PUSH20 0xFFFFFFFFFFFFFFFFFFFFFFFFFFFFFFFFFFFFFFFF AND PUSH20 0xFFFFFFFFFFFFFFFFFFFFFFFFFFFFFFFFFFFFFFFF AND PUSH20 0xFFFFFFFFFFFFFFFFFFFFFFFFFFFFFFFFFFFFFFFF AND DUP2 MSTORE PUSH1 0x20 ADD PUSH1 0x1 DUP3 ADD SLOAD DUP2 MSTORE PUSH1 0x20 ADD PUSH1 0x2 DUP3 ADD SLOAD DUP2 MSTORE PUSH1 0x20 ADD PUSH1 0x3 DUP3 ADD PUSH1 0x0 SWAP1 SLOAD SWAP1 PUSH2 0x100 EXP SWAP1 DIV PUSH1 0xFF AND PUSH1 0x1 DUP2 GT ISZERO PUSH2 0x6FE JUMPI PUSH2 0x6FD PUSH2 0x1030 JUMP JUMPDEST JUMPDEST PUSH1 0x1 DUP2 GT ISZERO PUSH2 0x710 JUMPI PUSH2 0x70F PUSH2 0x1030 JUMP JUMPDEST JUMPDEST DUP2 MSTORE PUSH1 0x20 ADD PUSH1 0x4 DUP3 ADD SLOAD DUP2 MSTORE PUSH1 0x20 ADD PUSH1 0x5 DUP3 ADD SLOAD DUP2 MSTORE PUSH1 0x20 ADD PUSH1 0x6 DUP3 ADD SLOAD DUP2 MSTORE PUSH1 0x20 ADD PUSH1 0x7 DUP3 ADD PUSH1 0x0 SWAP1 SLOAD SWAP1 PUSH2 0x100 EXP SWAP1 DIV PUSH1 0xFF AND ISZERO ISZERO ISZERO ISZERO DUP2 MSTORE POP POP CALLER DUP1 PUSH20 0xFFFFFFFFFFFFFFFFFFFFFFFFFFFFFFFFFFFFFFFF AND DUP3 PUSH1 0x0 ADD MLOAD PUSH20 0xFFFFFFFFFFFFFFFFFFFFFFFFFFFFFFFFFFFFFFFF AND EQ PUSH2 0x7C0 JUMPI PUSH1 0x40 MLOAD PUSH32 0x8C379A000000000000000000000000000000000000000000000000000000000 DUP2 MSTORE PUSH1 0x4 ADD PUSH2 0x7B7 SWAP1 PUSH2 0x13B4 JUMP JUMPDEST PUSH1 0x40 MLOAD DUP1 SWAP2 SUB SWAP1 REVERT JUMPDEST POP POP POP POP JUMP JUMPDEST PUSH1 0x0 PUSH1 0x5 PUSH1 0x0 DUP4 DUP2 MSTORE PUSH1 0x20 ADD SWAP1 DUP2 MSTORE PUSH1 0x20 ADD PUSH1 0x0 KECCAK256 PUSH1 0x1 ADD SLOAD SWAP1 POP SWAP2 SWAP1 POP JUMP JUMPDEST PUSH1 0x60 SWAP1 JUMP JUMPDEST PUSH1 0x0 PUSH1 0x9 PUSH1 0x0 DUP4 DUP2 MSTORE PUSH1 0x20 ADD SWAP1 DUP2 MSTORE PUSH1 0x20 ADD PUSH1 0x0 KECCAK256 PUSH1 0x3 ADD PUSH1 0x0 SWAP1 SLOAD SWAP1 PUSH2 0x100 EXP SWAP1 DIV PUSH1 0xFF AND SWAP1 POP SWAP2 SWAP1 POP JUMP JUMPDEST PUSH1 0x0 PUSH1 0x5 PUSH1 0x0 DUP4 DUP2 MSTORE PUSH1 0x20 ADD SWAP1 DUP2 MSTORE PUSH1 0x20 ADD PUSH1 0x0 KECCAK256 PUSH1 0x0 ADD PUSH1 0x0 SWAP1 SLOAD SWAP1 PUSH2 0x100 EXP SWAP1 DIV PUSH20 0xFFFFFFFFFFFFFFFFFFFFFFFFFFFFFFFFFFFFFFFF AND SWAP1 POP SWAP2 SWAP1 POP JUMP JUMPDEST PUSH1 0x6 SLOAD DUP2 JUMP JUMPDEST PUSH1 0x0 PUSH1 0x9 PUSH1 0x0 DUP4 DUP2 MSTORE PUSH1 0x20 ADD SWAP1 DUP2 MSTORE PUSH1 0x20 ADD PUSH1 0x0 KECCAK256 PUSH1 0x0 ADD PUSH1 0x0 SWAP1 SLOAD SWAP1 PUSH2 0x100 EXP SWAP1 DIV PUSH20 0xFFFFFFFFFFFFFFFFFFFFFFFFFFFFFFFFFFFFFFFF AND SWAP1 POP SWAP2 SWAP1 POP JUMP JUMPDEST PUSH1 0x0 DUP2 LT ISZERO PUSH2 0x8E2 JUMPI PUSH1 0x40 MLOAD PUSH32 0x8C379A000000000000000000000000000000000000000000000000000000000 DUP2 MSTORE PUSH1 0x4 ADD PUSH2 0x8D9 SWAP1 PUSH2 0x1420 JUMP JUMPDEST PUSH1 0x40 MLOAD DUP1 SWAP2 SUB SWAP1 REVERT JUMPDEST DUP1 CALLVALUE LT ISZERO PUSH2 0x925 JUMPI PUSH1 0x40 MLOAD PUSH32 0x8C379A000000000000000000000000000000000000000000000000000000000 DUP2 MSTORE PUSH1 0x4 ADD PUSH2 0x91C SWAP1 PUSH2 0x148C JUMP JUMPDEST PUSH1 0x40 MLOAD DUP1 SWAP2 SUB SWAP1 REVERT JUMPDEST POP JUMP JUMPDEST PUSH1 0x7 SLOAD DUP2 JUMP JUMPDEST PUSH1 0xA SLOAD DUP2 JUMP JUMPDEST PUSH1 0x5 PUSH1 0x0 DUP3 DUP2 MSTORE PUSH1 0x20 ADD SWAP1 DUP2 MSTORE PUSH1 0x20 ADD PUSH1 0x0 KECCAK256 PUSH1 0x40 MLOAD DUP1 PUSH2 0x100 ADD PUSH1 0x40 MSTORE SWAP1 DUP2 PUSH1 0x0 DUP3 ADD PUSH1 0x0 SWAP1 SLOAD SWAP1 PUSH2 0x100 EXP SWAP1 DIV PUSH20 0xFFFFFFFFFFFFFFFFFFFFFFFFFFFFFFFFFFFFFFFF AND PUSH20 0xFFFFFFFFFFFFFFFFFFFFFFFFFFFFFFFFFFFFFFFF AND PUSH20 0xFFFFFFFFFFFFFFFFFFFFFFFFFFFFFFFFFFFFFFFF AND DUP2 MSTORE PUSH1 0x20 ADD PUSH1 0x1 DUP3 ADD SLOAD DUP2 MSTORE PUSH1 0x20 ADD PUSH1 0x2 DUP3 ADD SLOAD DUP2 MSTORE PUSH1 0x20 ADD PUSH1 0x3 DUP3 ADD PUSH1 0x0 SWAP1 SLOAD SWAP1 PUSH2 0x100 EXP SWAP1 DIV PUSH1 0xFF AND PUSH1 0x1 DUP2 GT ISZERO PUSH2 0x9E2 JUMPI PUSH2 0x9E1 PUSH2 0x1030 JUMP JUMPDEST JUMPDEST PUSH1 0x1 DUP2 GT ISZERO PUSH2 0x9F4 JUMPI PUSH2 0x9F3 PUSH2 0x1030 JUMP JUMPDEST JUMPDEST DUP2 MSTORE PUSH1 0x20 ADD PUSH1 0x4 DUP3 ADD SLOAD DUP2 MSTORE PUSH1 0x20 ADD PUSH1 0x5 DUP3 ADD SLOAD DUP2 MSTORE PUSH1 0x20 ADD PUSH1 0x6 DUP3 ADD SLOAD DUP2 MSTORE PUSH1 0x20 ADD PUSH1 0x7 DUP3 ADD PUSH1 0x0 SWAP1 SLOAD SWAP1 PUSH2 0x100 EXP SWAP1 DIV PUSH1 0xFF AND ISZERO ISZERO ISZERO ISZERO DUP2 MSTORE POP POP PUSH1 0x0 PUSH1 0x1 DUP2 GT ISZERO PUSH2 0xA45 JUMPI PUSH2 0xA44 PUSH2 0x1030 JUMP JUMPDEST JUMPDEST DUP2 PUSH1 0x60 ADD MLOAD PUSH1 0x1 DUP2 GT ISZERO PUSH2 0xA5C JUMPI PUSH2 0xA5B PUSH2 0x1030 JUMP JUMPDEST JUMPDEST EQ PUSH2 0xA9C JUMPI PUSH1 0x40 MLOAD PUSH32 0x8C379A000000000000000000000000000000000000000000000000000000000 DUP2 MSTORE PUSH1 0x4 ADD PUSH2 0xA93 SWAP1 PUSH2 0x1348 JUMP JUMPDEST PUSH1 0x40 MLOAD DUP1 SWAP2 SUB SWAP1 REVERT JUMPDEST PUSH1 0x5 PUSH1 0x0 DUP4 DUP2 MSTORE PUSH1 0x20 ADD SWAP1 DUP2 MSTORE PUSH1 0x20 ADD PUSH1 0x0 KECCAK256 PUSH1 0x40 MLOAD DUP1 PUSH2 0x100 ADD PUSH1 0x40 MSTORE SWAP1 DUP2 PUSH1 0x0 DUP3 ADD PUSH1 0x0 SWAP1 SLOAD SWAP1 PUSH2 0x100 EXP SWAP1 DIV PUSH20 0xFFFFFFFFFFFFFFFFFFFFFFFFFFFFFFFFFFFFFFFF AND PUSH20 0xFFFFFFFFFFFFFFFFFFFFFFFFFFFFFFFFFFFFFFFF AND PUSH20 0xFFFFFFFFFFFFFFFFFFFFFFFFFFFFFFFFFFFFFFFF AND DUP2 MSTORE PUSH1 0x20 ADD PUSH1 0x1 DUP3 ADD SLOAD DUP2 MSTORE PUSH1 0x20 ADD PUSH1 0x2 DUP3 ADD SLOAD DUP2 MSTORE PUSH1 0x20 ADD PUSH1 0x3 DUP3 ADD PUSH1 0x0 SWAP1 SLOAD SWAP1 PUSH2 0x100 EXP SWAP1 DIV PUSH1 0xFF AND PUSH1 0x1 DUP2 GT ISZERO PUSH2 0xB4A JUMPI PUSH2 0xB49 PUSH2 0x1030 JUMP JUMPDEST JUMPDEST PUSH1 0x1 DUP2 GT ISZERO PUSH2 0xB5C JUMPI PUSH2 0xB5B PUSH2 0x1030 JUMP JUMPDEST JUMPDEST DUP2 MSTORE PUSH1 0x20 ADD PUSH1 0x4 DUP3 ADD SLOAD DUP2 MSTORE PUSH1 0x20 ADD PUSH1 0x5 DUP3 ADD SLOAD DUP2 MSTORE PUSH1 0x20 ADD PUSH1 0x6 DUP3 ADD SLOAD DUP2 MSTORE PUSH1 0x20 ADD PUSH1 0x7 DUP3 ADD PUSH1 0x0 SWAP1 SLOAD SWAP1 PUSH2 0x100 EXP SWAP1 DIV PUSH1 0xFF AND ISZERO ISZERO ISZERO ISZERO DUP2 MSTORE POP POP CALLER DUP1 PUSH20 0xFFFFFFFFFFFFFFFFFFFFFFFFFFFFFFFFFFFFFFFF AND DUP3 PUSH1 0x0 ADD MLOAD PUSH20 0xFFFFFFFFFFFFFFFFFFFFFFFFFFFFFFFFFFFFFFFF AND EQ PUSH2 0xC0C JUMPI PUSH1 0x40 MLOAD PUSH32 0x8C379A000000000000000000000000000000000000000000000000000000000 DUP2 MSTORE PUSH1 0x4 ADD PUSH2 0xC03 SWAP1 PUSH2 0x13B4 JUMP JUMPDEST PUSH1 0x40 MLOAD DUP1 SWAP2 SUB SWAP1 REVERT JUMPDEST POP POP POP POP JUMP JUMPDEST PUSH1 0x0 DUP2 LT ISZERO PUSH2 0xC56 JUMPI PUSH1 0x40 MLOAD PUSH32 0x8C379A000000000000000000000000000000000000000000000000000000000 DUP2 MSTORE PUSH1 0x4 ADD PUSH2 0xC4D SWAP1 PUSH2 0x1420 JUMP JUMPDEST PUSH1 0x40 MLOAD DUP1 SWAP2 SUB SWAP1 REVERT JUMPDEST DUP1 CALLVALUE LT ISZERO PUSH2 0xC99 JUMPI PUSH1 0x40 MLOAD PUSH32 0x8C379A000000000000000000000000000000000000000000000000000000000 DUP2 MSTORE PUSH1 0x4 ADD PUSH2 0xC90 SWAP1 PUSH2 0x14F8 JUMP JUMPDEST PUSH1 0x40 MLOAD DUP1 SWAP2 SUB SWAP1 REVERT JUMPDEST POP JUMP JUMPDEST PUSH1 0xC SLOAD DUP2 JUMP JUMPDEST PUSH1 0x8 SLOAD DUP2 JUMP JUMPDEST PUSH1 0x0 PUSH1 0x5 PUSH1 0x0 DUP4 DUP2 MSTORE PUSH1 0x20 ADD SWAP1 DUP2 MSTORE PUSH1 0x20 ADD PUSH1 0x0 KECCAK256 PUSH1 0x3 ADD PUSH1 0x0 SWAP1 SLOAD SWAP1 PUSH2 0x100 EXP SWAP1 DIV PUSH1 0xFF AND SWAP1 POP SWAP2 SWAP1 POP JUMP JUMPDEST PUSH1 0x60 SWAP1 JUMP JUMPDEST PUSH1 0x0 DUP1 PUSH1 0x0 DUP1 PUSH1 0x0 DUP1 PUSH1 0x0 DUP1 PUSH1 0x0 PUSH1 0x5 PUSH1 0x0 DUP12 DUP2 MSTORE PUSH1 0x20 ADD SWAP1 DUP2 MSTORE PUSH1 0x20 ADD PUSH1 0x0 KECCAK256 PUSH1 0x40 MLOAD DUP1 PUSH2 0x100 ADD PUSH1 0x40 MSTORE SWAP1 DUP2 PUSH1 0x0 DUP3 ADD PUSH1 0x0 SWAP1 SLOAD SWAP1 PUSH2 0x100 EXP SWAP1 DIV PUSH20 0xFFFFFFFFFFFFFFFFFFFFFFFFFFFFFFFFFFFFFFFF AND PUSH20 0xFFFFFFFFFFFFFFFFFFFFFFFFFFFFFFFFFFFFFFFF AND PUSH20 0xFFFFFFFFFFFFFFFFFFFFFFFFFFFFFFFFFFFFFFFF AND DUP2 MSTORE PUSH1 0x20 ADD PUSH1 0x1 DUP3 ADD SLOAD DUP2 MSTORE PUSH1 0x20 ADD PUSH1 0x2 DUP3 ADD SLOAD DUP2 MSTORE PUSH1 0x20 ADD PUSH1 0x3 DUP3 ADD PUSH1 0x0 SWAP1 SLOAD SWAP1 PUSH2 0x100 EXP SWAP1 DIV PUSH1 0xFF AND PUSH1 0x1 DUP2 GT ISZERO PUSH2 0xD96 JUMPI PUSH2 0xD95 PUSH2 0x1030 JUMP JUMPDEST JUMPDEST PUSH1 0x1 DUP2 GT ISZERO PUSH2 0xDA8 JUMPI PUSH2 0xDA7 PUSH2 0x1030 JUMP JUMPDEST JUMPDEST DUP2 MSTORE PUSH1 0x20 ADD PUSH1 0x4 DUP3 ADD SLOAD DUP2 MSTORE PUSH1 0x20 ADD PUSH1 0x5 DUP3 ADD SLOAD DUP2 MSTORE PUSH1 0x20 ADD PUSH1 0x6 DUP3 ADD SLOAD DUP2 MSTORE PUSH1 0x20 ADD PUSH1 0x7 DUP3 ADD PUSH1 0x0 SWAP1 SLOAD SWAP1 PUSH2 0x100 EXP SWAP1 DIV PUSH1 0xFF AND ISZERO ISZERO ISZERO ISZERO DUP2 MSTORE POP POP SWAP1 POP DUP1 PUSH1 0x0 ADD MLOAD DUP2 PUSH1 0x20 ADD MLOAD DUP3 PUSH1 0x40 ADD MLOAD DUP4 PUSH1 0x60 ADD MLOAD DUP5 PUSH1 0x80 ADD MLOAD DUP6 PUSH1 0xA0 ADD MLOAD DUP7 PUSH1 0xC0 ADD MLOAD DUP8 PUSH1 0xE0 ADD MLOAD SWAP9 POP SWAP9 POP SWAP9 POP SWAP9 POP SWAP9 POP SWAP9 POP SWAP9 POP SWAP9 POP POP SWAP2 SWAP4 SWAP6 SWAP8 POP SWAP2 SWAP4 SWAP6 SWAP8 JUMP JUMPDEST PUSH1 0x0 PUSH1 0x9 PUSH1 0x0 DUP4 DUP2 MSTORE PUSH1 0x20 ADD SWAP1 DUP2 MSTORE PUSH1 0x20 ADD PUSH1 0x0 KECCAK256 PUSH1 0x1 ADD SLOAD SWAP1 POP SWAP2 SWAP1 POP JUMP JUMPDEST PUSH1 0xB SLOAD DUP2 JUMP JUMPDEST PUSH1 0x0 DUP2 MLOAD SWAP1 POP SWAP2 SWAP1 POP JUMP JUMPDEST PUSH1 0x0 DUP3 DUP3 MSTORE PUSH1 0x20 DUP3 ADD SWAP1 POP SWAP3 SWAP2 POP POP JUMP JUMPDEST PUSH1 0x0 DUP2 SWAP1 POP PUSH1 0x20 DUP3 ADD SWAP1 POP SWAP2 SWAP1 POP JUMP JUMPDEST PUSH1 0x0 DUP2 SWAP1 POP SWAP2 SWAP1 POP JUMP JUMPDEST PUSH2 0xE90 DUP2 PUSH2 0xE7D JUMP JUMPDEST DUP3 MSTORE POP POP JUMP JUMPDEST PUSH1 0x0 PUSH2 0xEA2 DUP4 DUP4 PUSH2 0xE87 JUMP JUMPDEST PUSH1 0x20 DUP4 ADD SWAP1 POP SWAP3 SWAP2 POP POP JUMP JUMPDEST PUSH1 0x0 PUSH1 0x20 DUP3 ADD SWAP1 POP SWAP2 SWAP1 POP JUMP JUMPDEST PUSH1 0x0 PUSH2 0xEC6 DUP3 PUSH2 0xE51 JUMP JUMPDEST PUSH2 0xED0 DUP2 DUP6 PUSH2 0xE5C JUMP JUMPDEST SWAP4 POP PUSH2 0xEDB DUP4 PUSH2 0xE6D JUMP JUMPDEST DUP1 PUSH1 0x0 JUMPDEST DUP4 DUP2 LT ISZERO PUSH2 0xF0C JUMPI DUP2 MLOAD PUSH2 0xEF3 DUP9 DUP3 PUSH2 0xE96 JUMP JUMPDEST SWAP8 POP PUSH2 0xEFE DUP4 PUSH2 0xEAE JUMP JUMPDEST SWAP3 POP POP PUSH1 0x1 DUP2 ADD SWAP1 POP PUSH2 0xEDF JUMP JUMPDEST POP DUP6 SWAP4 POP POP POP POP SWAP3 SWAP2 POP POP JUMP JUMPDEST PUSH1 0x0 PUSH1 0x20 DUP3 ADD SWAP1 POP DUP2 DUP2 SUB PUSH1 0x0 DUP4 ADD MSTORE PUSH2 0xF33 DUP2 DUP5 PUSH2 0xEBB JUMP JUMPDEST SWAP1 POP SWAP3 SWAP2 POP POP JUMP JUMPDEST PUSH1 0x0 DUP1 REVERT JUMPDEST PUSH2 0xF49 DUP2 PUSH2 0xE7D JUMP JUMPDEST DUP2 EQ PUSH2 0xF54 JUMPI PUSH1 0x0 DUP1 REVERT JUMPDEST POP JUMP JUMPDEST PUSH1 0x0 DUP2 CALLDATALOAD SWAP1 POP PUSH2 0xF66 DUP2 PUSH2 0xF40 JUMP JUMPDEST SWAP3 SWAP2 POP POP JUMP JUMPDEST PUSH1 0x0 PUSH1 0x20 DUP3 DUP5 SUB SLT ISZERO PUSH2 0xF82 JUMPI PUSH2 0xF81 PUSH2 0xF3B JUMP JUMPDEST JUMPDEST PUSH1 0x0 PUSH2 0xF90 DUP5 DUP3 DUP6 ADD PUSH2 0xF57 JUMP JUMPDEST SWAP2 POP POP SWAP3 SWAP2 POP POP JUMP JUMPDEST PUSH2 0xFA2 DUP2 PUSH2 0xE7D JUMP JUMPDEST DUP3 MSTORE POP POP JUMP JUMPDEST PUSH1 0x0 PUSH1 0x20 DUP3 ADD SWAP1 POP PUSH2 0xFBD PUSH1 0x0 DUP4 ADD DUP5 PUSH2 0xF99 JUMP JUMPDEST SWAP3 SWAP2 POP POP JUMP JUMPDEST PUSH1 0x0 DUP2 MLOAD SWAP1 POP SWAP2 SWAP1 POP JUMP JUMPDEST PUSH1 0x0 DUP3 DUP3 MSTORE PUSH1 0x20 DUP3 ADD SWAP1 POP SWAP3 SWAP2 POP POP JUMP JUMPDEST PUSH1 0x0 DUP2 SWAP1 POP PUSH1 0x20 DUP3 ADD SWAP1 POP SWAP2 SWAP1 POP JUMP JUMPDEST PUSH1 0x0 PUSH20 0xFFFFFFFFFFFFFFFFFFFFFFFFFFFFFFFFFFFFFFFF DUP3 AND SWAP1 POP SWAP2 SWAP1 POP JUMP JUMPDEST PUSH1 0x0 PUSH2 0x101A DUP3 PUSH2 0xFEF JUMP JUMPDEST SWAP1 POP SWAP2 SWAP1 POP JUMP JUMPDEST PUSH2 0x102A DUP2 PUSH2 0x100F JUMP JUMPDEST DUP3 MSTORE POP POP JUMP JUMPDEST PUSH32 0x4E487B7100000000000000000000000000000000000000000000000000000000 PUSH1 0x0 MSTORE PUSH1 0x21 PUSH1 0x4 MSTORE PUSH1 0x24 PUSH1 0x0 REVERT JUMPDEST PUSH1 0x2 DUP2 LT PUSH2 0x1070 JUMPI PUSH2 0x106F PUSH2 0x1030 JUMP JUMPDEST JUMPDEST POP JUMP JUMPDEST PUSH1 0x0 DUP2 SWAP1 POP PUSH2 0x1081 DUP3 PUSH2 0x105F JUMP JUMPDEST SWAP2 SWAP1 POP JUMP JUMPDEST PUSH1 0x0 PUSH2 0x1091 DUP3 PUSH2 0x1073 JUMP JUMPDEST SWAP1 POP SWAP2 SWAP1 POP JUMP JUMPDEST PUSH2 0x10A1 DUP2 PUSH2 0x1086 JUMP JUMPDEST DUP3 MSTORE POP POP JUMP JUMPDEST PUSH1 0x0 DUP2 ISZERO ISZERO SWAP1 POP SWAP2 SWAP1 POP JUMP JUMPDEST PUSH2 0x10BC DUP2 PUSH2 0x10A7 JUMP JUMPDEST DUP3 MSTORE POP POP JUMP JUMPDEST PUSH2 0x100 DUP3 ADD PUSH1 0x0 DUP3 ADD MLOAD PUSH2 0x10D9 PUSH1 0x0 DUP6 ADD DUP3 PUSH2 0x1021 JUMP JUMPDEST POP PUSH1 0x20 DUP3 ADD MLOAD PUSH2 0x10EC PUSH1 0x20 DUP6 ADD DUP3 PUSH2 0xE87 JUMP JUMPDEST POP PUSH1 0x40 DUP3 ADD MLOAD PUSH2 0x10FF PUSH1 0x40 DUP6 ADD DUP3 PUSH2 0xE87 JUMP JUMPDEST POP PUSH1 0x60 DUP3 ADD MLOAD PUSH2 0x1112 PUSH1 0x60 DUP6 ADD DUP3 PUSH2 0x1098 JUMP JUMPDEST POP PUSH1 0x80 DUP3 ADD MLOAD PUSH2 0x1125 PUSH1 0x80 DUP6 ADD DUP3 PUSH2 0xE87 JUMP JUMPDEST POP PUSH1 0xA0 DUP3 ADD MLOAD PUSH2 0x1138 PUSH1 0xA0 DUP6 ADD DUP3 PUSH2 0xE87 JUMP JUMPDEST POP PUSH1 0xC0 DUP3 ADD MLOAD PUSH2 0x114B PUSH1 0xC0 DUP6 ADD DUP3 PUSH2 0xE87 JUMP JUMPDEST POP PUSH1 0xE0 DUP3 ADD MLOAD PUSH2 0x115E PUSH1 0xE0 DUP6 ADD DUP3 PUSH2 0x10B3 JUMP JUMPDEST POP POP POP POP JUMP JUMPDEST PUSH1 0x0 PUSH2 0x1170 DUP4 DUP4 PUSH2 0x10C2 JUMP JUMPDEST PUSH2 0x100 DUP4 ADD SWAP1 POP SWAP3 SWAP2 POP POP JUMP JUMPDEST PUSH1 0x0 PUSH1 0x20 DUP3 ADD SWAP1 POP SWAP2 SWAP1 POP JUMP JUMPDEST PUSH1 0x0 PUSH2 0x1195 DUP3 PUSH2 0xFC3 JUMP JUMPDEST PUSH2 0x119F DUP2 DUP6 PUSH2 0xFCE JUMP JUMPDEST SWAP4 POP PUSH2 0x11AA DUP4 PUSH2 0xFDF JUMP JUMPDEST DUP1 PUSH1 0x0 JUMPDEST DUP4 DUP2 LT ISZERO PUSH2 0x11DB JUMPI DUP2 MLOAD PUSH2 0x11C2 DUP9 DUP3 PUSH2 0x1164 JUMP JUMPDEST SWAP8 POP PUSH2 0x11CD DUP4 PUSH2 0x117D JUMP JUMPDEST SWAP3 POP POP PUSH1 0x1 DUP2 ADD SWAP1 POP PUSH2 0x11AE JUMP JUMPDEST POP DUP6 SWAP4 POP POP POP POP SWAP3 SWAP2 POP POP JUMP JUMPDEST PUSH1 0x0 PUSH1 0x20 DUP3 ADD SWAP1 POP DUP2 DUP2 SUB PUSH1 0x0 DUP4 ADD MSTORE PUSH2 0x1202 DUP2 DUP5 PUSH2 0x118A JUMP JUMPDEST SWAP1 POP SWAP3 SWAP2 POP POP JUMP JUMPDEST PUSH2 0x1213 DUP2 PUSH2 0x1086 JUMP JUMPDEST DUP3 MSTORE POP POP JUMP JUMPDEST PUSH1 0x0 PUSH1 0x20 DUP3 ADD SWAP1 POP PUSH2 0x122E PUSH1 0x0 DUP4 ADD DUP5 PUSH2 0x120A JUMP JUMPDEST SWAP3 SWAP2 POP POP JUMP JUMPDEST PUSH2 0x123D DUP2 PUSH2 0x100F JUMP JUMPDEST DUP3 MSTORE POP POP JUMP JUMPDEST PUSH1 0x0 PUSH1 0x20 DUP3 ADD SWAP1 POP PUSH2 0x1258 PUSH1 0x0 DUP4 ADD DUP5 PUSH2 0x1234 JUMP JUMPDEST SWAP3 SWAP2 POP POP JUMP JUMPDEST PUSH2 0x1267 DUP2 PUSH2 0x10A7 JUMP JUMPDEST DUP3 MSTORE POP POP JUMP JUMPDEST PUSH1 0x0 PUSH2 0x100 DUP3 ADD SWAP1 POP PUSH2 0x1283 PUSH1 0x0 DUP4 ADD DUP12 PUSH2 0x1234 JUMP JUMPDEST PUSH2 0x1290 PUSH1 0x20 DUP4 ADD DUP11 PUSH2 0xF99 JUMP JUMPDEST PUSH2 0x129D PUSH1 0x40 DUP4 ADD DUP10 PUSH2 0xF99 JUMP JUMPDEST PUSH2 0x12AA PUSH1 0x60 DUP4 ADD DUP9 PUSH2 0x120A JUMP JUMPDEST PUSH2 0x12B7 PUSH1 0x80 DUP4 ADD DUP8 PUSH2 0xF99 JUMP JUMPDEST PUSH2 0x12C4 PUSH1 0xA0 DUP4 ADD DUP7 PUSH2 0xF99 JUMP JUMPDEST PUSH2 0x12D1 PUSH1 0xC0 DUP4 ADD DUP6 PUSH2 0xF99 JUMP JUMPDEST PUSH2 0x12DE PUSH1 0xE0 DUP4 ADD DUP5 PUSH2 0x125E JUMP JUMPDEST SWAP10 SWAP9 POP POP POP POP POP POP POP POP POP JUMP JUMPDEST PUSH1 0x0 DUP3 DUP3 MSTORE PUSH1 0x20 DUP3 ADD SWAP1 POP SWAP3 SWAP2 POP POP JUMP JUMPDEST PUSH32 0x4F726465722050656E64696E6700000000000000000000000000000000000000 PUSH1 0x0 DUP3 ADD MSTORE POP JUMP JUMPDEST PUSH1 0x0 PUSH2 0x1332 PUSH1 0xD DUP4 PUSH2 0x12EB JUMP JUMPDEST SWAP2 POP PUSH2 0x133D DUP3 PUSH2 0x12FC JUMP JUMPDEST PUSH1 0x20 DUP3 ADD SWAP1 POP SWAP2 SWAP1 POP JUMP JUMPDEST PUSH1 0x0 PUSH1 0x20 DUP3 ADD SWAP1 POP DUP2 DUP2 SUB PUSH1 0x0 DUP4 ADD MSTORE PUSH2 0x1361 DUP2 PUSH2 0x1325 JUMP JUMPDEST SWAP1 POP SWAP2 SWAP1 POP JUMP JUMPDEST PUSH32 0x4E6F7420417574686F7269736564000000000000000000000000000000000000 PUSH1 0x0 DUP3 ADD MSTORE POP JUMP JUMPDEST PUSH1 0x0 PUSH2 0x139E PUSH1 0xE DUP4 PUSH2 0x12EB JUMP JUMPDEST SWAP2 POP PUSH2 0x13A9 DUP3 PUSH2 0x1368 JUMP JUMPDEST PUSH1 0x20 DUP3 ADD SWAP1 POP SWAP2 SWAP1 POP JUMP JUMPDEST PUSH1 0x0 PUSH1 0x20 DUP3 ADD SWAP1 POP DUP2 DUP2 SUB PUSH1 0x0 DUP4 ADD MSTORE PUSH2 0x13CD DUP2 PUSH2 0x1391 JUMP JUMPDEST SWAP1 POP SWAP2 SWAP1 POP JUMP JUMPDEST PUSH32 0x70726963652076616C7565206D757374206265206D6F7265207468616E203000 PUSH1 0x0 DUP3 ADD MSTORE POP JUMP JUMPDEST PUSH1 0x0 PUSH2 0x140A PUSH1 0x1F DUP4 PUSH2 0x12EB JUMP JUMPDEST SWAP2 POP PUSH2 0x1415 DUP3 PUSH2 0x13D4 JUMP JUMPDEST PUSH1 0x20 DUP3 ADD SWAP1 POP SWAP2 SWAP1 POP JUMP JUMPDEST PUSH1 0x0 PUSH1 0x20 DUP3 ADD SWAP1 POP DUP2 DUP2 SUB PUSH1 0x0 DUP4 ADD MSTORE PUSH2 0x1439 DUP2 PUSH2 0x13FD JUMP JUMPDEST SWAP1 POP SWAP2 SWAP1 POP JUMP JUMPDEST PUSH32 0x4E6F7420656E6F75676820626C616E636520746F20706C6163652061736B0000 PUSH1 0x0 DUP3 ADD MSTORE POP JUMP JUMPDEST PUSH1 0x0 PUSH2 0x1476 PUSH1 0x1E DUP4 PUSH2 0x12EB JUMP JUMPDEST SWAP2 POP PUSH2 0x1481 DUP3 PUSH2 0x1440 JUMP JUMPDEST PUSH1 0x20 DUP3 ADD SWAP1 POP SWAP2 SWAP1 POP JUMP JUMPDEST PUSH1 0x0 PUSH1 0x20 DUP3 ADD SWAP1 POP DUP2 DUP2 SUB PUSH1 0x0 DUP4 ADD MSTORE PUSH2 0x14A5 DUP2 PUSH2 0x1469 JUMP JUMPDEST SWAP1 POP SWAP2 SWAP1 POP JUMP JUMPDEST PUSH32 0x4E6F7420656E6F75676820626C616E636520746F20706C616365206269640000 PUSH1 0x0 DUP3 ADD MSTORE POP JUMP JUMPDEST PUSH1 0x0 PUSH2 0x14E2 PUSH1 0x1E DUP4 PUSH2 0x12EB JUMP JUMPDEST SWAP2 POP PUSH2 0x14ED DUP3 PUSH2 0x14AC JUMP JUMPDEST PUSH1 0x20 DUP3 ADD SWAP1 POP SWAP2 SWAP1 POP JUMP JUMPDEST PUSH1 0x0 PUSH1 0x20 DUP3 ADD SWAP1 POP DUP2 DUP2 SUB PUSH1 0x0 DUP4 ADD MSTORE PUSH2 0x1511 DUP2 PUSH2 0x14D5 JUMP JUMPDEST SWAP1 POP SWAP2 SWAP1 POP JUMP INVALID LOG2 PUSH5 0x6970667358 0x22 SLT KECCAK256 PUSH26 0x7B84E57136D2F1AFDEF054B8F2CC88B519C1B5026B473B04CF3D SHR SAR MSTORE 0x2C 0xB8 PUSH5 0x736F6C6343 STOP ADDMOD 0xD STOP CALLER "
				},
				"gasEstimates": {
					"creation": {
						"codeDepositCost": "1090800",
						"executionCost": "infinite",
						"totalCost": "infinite"
					},
					"external": {
						"askCount()": "2518",
						"askHead()": "2452",
						"askTail()": "2539",
						"bidCount()": "2540",
						"bidHead()": "2474",
						"bidTail()": "2540",
						"cancelAsk(uint256)": "35434",
						"cancelBid(uint256)": "35433",
						"fetchAllBid()": "infinite",
						"fetchYourAskIds()": "infinite",
						"fetchYourBidIds()": "infinite",
						"getAskAddress(uint256)": "2938",
						"getAskState(uint256)": "3029",
						"getAskValue(uint256)": "infinite",
						"getBidAddress(uint256)": "2894",
						"getBidState(uint256)": "2939",
						"getBidValue(uint256)": "infinite",
						"getOrder(uint256)": "infinite",
						"placeAsk(uint256)": "809",
						"placeBid(uint256)": "787"
					},
					"internal": {
						"createOrder(address,uint256,uint256)": "infinite"
					}
				},
				"methodIdentifiers": {
					"askCount()": "a394fda7",
					"askHead()": "801d9bbd",
					"askTail()": "ecdfb860",
					"bidCount()": "b40a5627",
					"bidHead()": "6e5b0f00",
					"bidTail()": "7bb51193",
					"cancelAsk(uint256)": "1628e0f5",
					"cancelBid(uint256)": "9703ef35",
					"fetchAllBid()": "4471417f",
					"fetchYourAskIds()": "122de8f2",
					"fetchYourBidIds()": "ce0cdc87",
					"getAskAddress(uint256)": "734a2e78",
					"getAskState(uint256)": "4d46712d",
					"getAskValue(uint256)": "db3a1396",
					"getBidAddress(uint256)": "69f632e2",
					"getBidState(uint256)": "bf77ffae",
					"getBidValue(uint256)": "2db6dfa7",
					"getOrder(uint256)": "d09ef241",
					"placeAsk(uint256)": "78c5b268",
					"placeBid(uint256)": "9979ef45"
				}
			},
			"storageLayout": {
				"storage": [
					{
						"astId": 9,
						"contract": "contracts/OrderBook.sol:OrderBook",
						"label": "list",
						"offset": 0,
						"slot": "0",
						"type": "t_struct(List)461_storage"
					},
					{
						"astId": 16,
						"contract": "contracts/OrderBook.sol:OrderBook",
						"label": "bidValues",
						"offset": 0,
						"slot": "2",
						"type": "t_mapping(t_uint256,t_uint256)"
					},
					{
						"astId": 23,
						"contract": "contracts/OrderBook.sol:OrderBook",
						"label": "_owner",
						"offset": 0,
						"slot": "3",
						"type": "t_address_payable"
					},
					{
						"astId": 25,
						"contract": "contracts/OrderBook.sol:OrderBook",
						"label": "commission",
						"offset": 0,
						"slot": "4",
						"type": "t_uint256"
					},
					{
						"astId": 48,
						"contract": "contracts/OrderBook.sol:OrderBook",
						"label": "bidBook",
						"offset": 0,
						"slot": "5",
						"type": "t_mapping(t_uint256,t_struct(order)43_storage)"
					},
					{
						"astId": 50,
						"contract": "contracts/OrderBook.sol:OrderBook",
						"label": "bidHead",
						"offset": 0,
						"slot": "6",
						"type": "t_uint256"
					},
					{
						"astId": 52,
						"contract": "contracts/OrderBook.sol:OrderBook",
						"label": "bidTail",
						"offset": 0,
						"slot": "7",
						"type": "t_uint256"
					},
					{
						"astId": 54,
						"contract": "contracts/OrderBook.sol:OrderBook",
						"label": "bidCount",
						"offset": 0,
						"slot": "8",
						"type": "t_uint256"
					},
					{
						"astId": 59,
						"contract": "contracts/OrderBook.sol:OrderBook",
						"label": "askBook",
						"offset": 0,
						"slot": "9",
						"type": "t_mapping(t_uint256,t_struct(order)43_storage)"
					},
					{
						"astId": 61,
						"contract": "contracts/OrderBook.sol:OrderBook",
						"label": "askHead",
						"offset": 0,
						"slot": "10",
						"type": "t_uint256"
					},
					{
						"astId": 63,
						"contract": "contracts/OrderBook.sol:OrderBook",
						"label": "askTail",
						"offset": 0,
						"slot": "11",
						"type": "t_uint256"
					},
					{
						"astId": 65,
						"contract": "contracts/OrderBook.sol:OrderBook",
						"label": "askCount",
						"offset": 0,
						"slot": "12",
						"type": "t_uint256"
					}
				],
				"types": {
					"t_address_payable": {
						"encoding": "inplace",
						"label": "address payable",
						"numberOfBytes": "20"
					},
					"t_bool": {
						"encoding": "inplace",
						"label": "bool",
						"numberOfBytes": "1"
					},
					"t_enum(State)12": {
						"encoding": "inplace",
						"label": "enum OrderBook.State",
						"numberOfBytes": "1"
					},
					"t_mapping(t_bool,t_uint256)": {
						"encoding": "mapping",
						"key": "t_bool",
						"label": "mapping(bool => uint256)",
						"numberOfBytes": "32",
						"value": "t_uint256"
					},
					"t_mapping(t_uint256,t_mapping(t_bool,t_uint256))": {
						"encoding": "mapping",
						"key": "t_uint256",
						"label": "mapping(uint256 => mapping(bool => uint256))",
						"numberOfBytes": "32",
						"value": "t_mapping(t_bool,t_uint256)"
					},
					"t_mapping(t_uint256,t_struct(order)43_storage)": {
						"encoding": "mapping",
						"key": "t_uint256",
						"label": "mapping(uint256 => struct OrderBook.order)",
						"numberOfBytes": "32",
						"value": "t_struct(order)43_storage"
					},
					"t_mapping(t_uint256,t_uint256)": {
						"encoding": "mapping",
						"key": "t_uint256",
						"label": "mapping(uint256 => uint256)",
						"numberOfBytes": "32",
						"value": "t_uint256"
					},
					"t_struct(List)461_storage": {
						"encoding": "inplace",
						"label": "struct StructuredLinkedList.List",
						"members": [
							{
								"astId": 454,
								"contract": "contracts/OrderBook.sol:OrderBook",
								"label": "size",
								"offset": 0,
								"slot": "0",
								"type": "t_uint256"
							},
							{
								"astId": 460,
								"contract": "contracts/OrderBook.sol:OrderBook",
								"label": "list",
								"offset": 0,
								"slot": "1",
								"type": "t_mapping(t_uint256,t_mapping(t_bool,t_uint256))"
							}
						],
						"numberOfBytes": "64"
					},
					"t_struct(order)43_storage": {
						"encoding": "inplace",
						"label": "struct OrderBook.order",
						"members": [
							{
								"astId": 27,
								"contract": "contracts/OrderBook.sol:OrderBook",
								"label": "customer",
								"offset": 0,
								"slot": "0",
								"type": "t_address_payable"
							},
							{
								"astId": 29,
								"contract": "contracts/OrderBook.sol:OrderBook",
								"label": "value",
								"offset": 0,
								"slot": "1",
								"type": "t_uint256"
							},
							{
								"astId": 31,
								"contract": "contracts/OrderBook.sol:OrderBook",
								"label": "timestamp",
								"offset": 0,
								"slot": "2",
								"type": "t_uint256"
							},
							{
								"astId": 34,
								"contract": "contracts/OrderBook.sol:OrderBook",
								"label": "state",
								"offset": 0,
								"slot": "3",
								"type": "t_enum(State)12"
							},
							{
								"astId": 36,
								"contract": "contracts/OrderBook.sol:OrderBook",
								"label": "id",
								"offset": 0,
								"slot": "4",
								"type": "t_uint256"
							},
							{
								"astId": 38,
								"contract": "contracts/OrderBook.sol:OrderBook",
								"label": "next",
								"offset": 0,
								"slot": "5",
								"type": "t_uint256"
							},
							{
								"astId": 40,
								"contract": "contracts/OrderBook.sol:OrderBook",
								"label": "prev",
								"offset": 0,
								"slot": "6",
								"type": "t_uint256"
							},
							{
								"astId": 42,
								"contract": "contracts/OrderBook.sol:OrderBook",
								"label": "delb",
								"offset": 0,
								"slot": "7",
								"type": "t_bool"
							}
						],
						"numberOfBytes": "256"
					},
					"t_uint256": {
						"encoding": "inplace",
						"label": "uint256",
						"numberOfBytes": "32"
					}
				}
			},
			"userdoc": {
				"kind": "user",
				"methods": {},
				"version": 1
			}
		}
	}
}