{
	"contracts/OrderBook.sol": {
		"OrderBook": {
			"abi": [
				{
					"inputs": [
						{
							"internalType": "uint256",
							"name": "_commission",
							"type": "uint256"
						}
					],
					"stateMutability": "nonpayable",
					"type": "constructor"
				},
				{
					"anonymous": false,
					"inputs": [
						{
							"indexed": false,
							"internalType": "uint256",
							"name": "",
							"type": "uint256"
						}
					],
					"name": "askCancelled",
					"type": "event"
				},
				{
					"anonymous": false,
					"inputs": [
						{
							"indexed": false,
							"internalType": "address",
							"name": "",
							"type": "address"
						},
						{
							"indexed": false,
							"internalType": "uint256",
							"name": "",
							"type": "uint256"
						},
						{
							"indexed": false,
							"internalType": "uint256",
							"name": "",
							"type": "uint256"
						},
						{
							"indexed": false,
							"internalType": "enum OrderBook.State",
							"name": "",
							"type": "uint8"
						}
					],
					"name": "askPlaced",
					"type": "event"
				},
				{
					"anonymous": false,
					"inputs": [
						{
							"indexed": false,
							"internalType": "uint256",
							"name": "",
							"type": "uint256"
						}
					],
					"name": "bidCancelled",
					"type": "event"
				},
				{
					"anonymous": false,
					"inputs": [
						{
							"indexed": false,
							"internalType": "address",
							"name": "",
							"type": "address"
						},
						{
							"indexed": false,
							"internalType": "uint256",
							"name": "",
							"type": "uint256"
						},
						{
							"indexed": false,
							"internalType": "uint256",
							"name": "",
							"type": "uint256"
						},
						{
							"indexed": false,
							"internalType": "enum OrderBook.State",
							"name": "",
							"type": "uint8"
						}
					],
					"name": "bidPlaced",
					"type": "event"
				},
				{
					"inputs": [
						{
							"internalType": "uint256",
							"name": "askId",
							"type": "uint256"
						}
					],
					"name": "cancelAsk",
					"outputs": [],
					"stateMutability": "nonpayable",
					"type": "function"
				},
				{
					"inputs": [
						{
							"internalType": "uint256",
							"name": "bidId",
							"type": "uint256"
						}
					],
					"name": "cancelBid",
					"outputs": [],
					"stateMutability": "nonpayable",
					"type": "function"
				},
				{
					"inputs": [],
					"name": "fetchAllAsk",
					"outputs": [
						{
							"components": [
								{
									"internalType": "address payable",
									"name": "customer",
									"type": "address"
								},
								{
									"internalType": "uint256",
									"name": "value",
									"type": "uint256"
								},
								{
									"internalType": "uint256",
									"name": "timestamp",
									"type": "uint256"
								},
								{
									"internalType": "enum OrderBook.State",
									"name": "state",
									"type": "uint8"
								}
							],
							"internalType": "struct OrderBook.order[]",
							"name": "",
							"type": "tuple[]"
						}
					],
					"stateMutability": "view",
					"type": "function"
				},
				{
					"inputs": [],
					"name": "fetchAllBid",
					"outputs": [
						{
							"components": [
								{
									"internalType": "address payable",
									"name": "customer",
									"type": "address"
								},
								{
									"internalType": "uint256",
									"name": "value",
									"type": "uint256"
								},
								{
									"internalType": "uint256",
									"name": "timestamp",
									"type": "uint256"
								},
								{
									"internalType": "enum OrderBook.State",
									"name": "state",
									"type": "uint8"
								}
							],
							"internalType": "struct OrderBook.order[]",
							"name": "",
							"type": "tuple[]"
						}
					],
					"stateMutability": "view",
					"type": "function"
				},
				{
					"inputs": [],
					"name": "fetchYourAskIds",
					"outputs": [
						{
							"internalType": "uint256[]",
							"name": "",
							"type": "uint256[]"
						}
					],
					"stateMutability": "nonpayable",
					"type": "function"
				},
				{
					"inputs": [],
					"name": "fetchYourBidIds",
					"outputs": [
						{
							"internalType": "uint256[]",
							"name": "",
							"type": "uint256[]"
						}
					],
					"stateMutability": "nonpayable",
					"type": "function"
				},
				{
					"inputs": [
						{
							"internalType": "uint256",
							"name": "id",
							"type": "uint256"
						}
					],
					"name": "getAskAddress",
					"outputs": [
						{
							"internalType": "address payable",
							"name": "",
							"type": "address"
						}
					],
					"stateMutability": "view",
					"type": "function"
				},
				{
					"inputs": [
						{
							"internalType": "uint256",
							"name": "id",
							"type": "uint256"
						}
					],
					"name": "getAskState",
					"outputs": [
						{
							"internalType": "enum OrderBook.State",
							"name": "",
							"type": "uint8"
						}
					],
					"stateMutability": "view",
					"type": "function"
				},
				{
					"inputs": [
						{
							"internalType": "uint256",
							"name": "id",
							"type": "uint256"
						}
					],
					"name": "getAskValue",
					"outputs": [
						{
							"internalType": "uint256",
							"name": "",
							"type": "uint256"
						}
					],
					"stateMutability": "view",
					"type": "function"
				},
				{
					"inputs": [
						{
							"internalType": "uint256",
							"name": "id",
							"type": "uint256"
						}
					],
					"name": "getBidAddress",
					"outputs": [
						{
							"internalType": "address payable",
							"name": "",
							"type": "address"
						}
					],
					"stateMutability": "view",
					"type": "function"
				},
				{
					"inputs": [
						{
							"internalType": "uint256",
							"name": "id",
							"type": "uint256"
						}
					],
					"name": "getBidState",
					"outputs": [
						{
							"internalType": "enum OrderBook.State",
							"name": "",
							"type": "uint8"
						}
					],
					"stateMutability": "view",
					"type": "function"
				},
				{
					"inputs": [
						{
							"internalType": "uint256",
							"name": "id",
							"type": "uint256"
						}
					],
					"name": "getBidValue",
					"outputs": [
						{
							"internalType": "uint256",
							"name": "",
							"type": "uint256"
						}
					],
					"stateMutability": "view",
					"type": "function"
				},
				{
					"inputs": [
						{
							"internalType": "uint256",
							"name": "price",
							"type": "uint256"
						}
					],
					"name": "placeAsk",
					"outputs": [],
					"stateMutability": "payable",
					"type": "function"
				},
				{
					"inputs": [
						{
							"internalType": "uint256",
							"name": "price",
							"type": "uint256"
						}
					],
					"name": "placeBid",
					"outputs": [],
					"stateMutability": "payable",
					"type": "function"
				},
				{
					"inputs": [
						{
							"internalType": "uint256",
							"name": "bidId",
							"type": "uint256"
						}
					],
					"name": "takeBid",
					"outputs": [],
					"stateMutability": "payable",
					"type": "function"
				}
			],
			"devdoc": {
				"kind": "dev",
				"methods": {},
				"version": 1
			},
			"evm": {
				"assembly": "    /* \"contracts/OrderBook.sol\":730:6608  contract OrderBook {... */\n  mstore(0x40, 0x80)\n    /* \"contracts/OrderBook.sol\":950:1063  constructor (uint256 _commission) {... */\n  callvalue\n  dup1\n  iszero\n  tag_1\n  jumpi\n  0x00\n  dup1\n  revert\ntag_1:\n  pop\n  mload(0x40)\n  sub(codesize, bytecodeSize)\n  dup1\n  bytecodeSize\n  dup4\n  codecopy\n  dup2\n  dup2\n  add\n  0x40\n  mstore\n  dup2\n  add\n  swap1\n  tag_2\n  swap2\n  swap1\n  tag_3\n  jump\t// in\ntag_2:\n    /* \"contracts/OrderBook.sol\":1011:1021  msg.sender */\n  caller\n    /* \"contracts/OrderBook.sol\":994:1000  _owner */\n  0x00\n  dup1\n    /* \"contracts/OrderBook.sol\":994:1022  _owner = payable(msg.sender) */\n  0x0100\n  exp\n  dup2\n  sload\n  dup2\n  0xffffffffffffffffffffffffffffffffffffffff\n  mul\n  not\n  and\n  swap1\n  dup4\n  0xffffffffffffffffffffffffffffffffffffffff\n  and\n  mul\n  or\n  swap1\n  sstore\n  pop\n    /* \"contracts/OrderBook.sol\":1045:1056  _commission */\n  dup1\n    /* \"contracts/OrderBook.sol\":1032:1042  commission */\n  0x01\n    /* \"contracts/OrderBook.sol\":1032:1056  commission = _commission */\n  dup2\n  swap1\n  sstore\n  pop\n    /* \"contracts/OrderBook.sol\":950:1063  constructor (uint256 _commission) {... */\n  pop\n    /* \"contracts/OrderBook.sol\":730:6608  contract OrderBook {... */\n  jump(tag_6)\n    /* \"#utility.yul\":88:205   */\ntag_8:\n    /* \"#utility.yul\":197:198   */\n  0x00\n    /* \"#utility.yul\":194:195   */\n  dup1\n    /* \"#utility.yul\":187:199   */\n  revert\n    /* \"#utility.yul\":334:411   */\ntag_10:\n    /* \"#utility.yul\":371:378   */\n  0x00\n    /* \"#utility.yul\":400:405   */\n  dup2\n    /* \"#utility.yul\":389:405   */\n  swap1\n  pop\n    /* \"#utility.yul\":334:411   */\n  swap2\n  swap1\n  pop\n  jump\t// out\n    /* \"#utility.yul\":417:539   */\ntag_11:\n    /* \"#utility.yul\":490:514   */\n  tag_19\n    /* \"#utility.yul\":508:513   */\n  dup2\n    /* \"#utility.yul\":490:514   */\n  tag_10\n  jump\t// in\ntag_19:\n    /* \"#utility.yul\":483:488   */\n  dup2\n    /* \"#utility.yul\":480:515   */\n  eq\n    /* \"#utility.yul\":470:533   */\n  tag_20\n  jumpi\n    /* \"#utility.yul\":529:530   */\n  0x00\n    /* \"#utility.yul\":526:527   */\n  dup1\n    /* \"#utility.yul\":519:531   */\n  revert\n    /* \"#utility.yul\":470:533   */\ntag_20:\n    /* \"#utility.yul\":417:539   */\n  pop\n  jump\t// out\n    /* \"#utility.yul\":545:688   */\ntag_12:\n    /* \"#utility.yul\":602:607   */\n  0x00\n    /* \"#utility.yul\":633:639   */\n  dup2\n    /* \"#utility.yul\":627:640   */\n  mload\n    /* \"#utility.yul\":618:640   */\n  swap1\n  pop\n    /* \"#utility.yul\":649:682   */\n  tag_22\n    /* \"#utility.yul\":676:681   */\n  dup2\n    /* \"#utility.yul\":649:682   */\n  tag_11\n  jump\t// in\ntag_22:\n    /* \"#utility.yul\":545:688   */\n  swap3\n  swap2\n  pop\n  pop\n  jump\t// out\n    /* \"#utility.yul\":694:1045   */\ntag_3:\n    /* \"#utility.yul\":764:770   */\n  0x00\n    /* \"#utility.yul\":813:815   */\n  0x20\n    /* \"#utility.yul\":801:810   */\n  dup3\n    /* \"#utility.yul\":792:799   */\n  dup5\n    /* \"#utility.yul\":788:811   */\n  sub\n    /* \"#utility.yul\":784:816   */\n  slt\n    /* \"#utility.yul\":781:900   */\n  iszero\n  tag_24\n  jumpi\n    /* \"#utility.yul\":819:898   */\n  tag_25\n  tag_8\n  jump\t// in\ntag_25:\n    /* \"#utility.yul\":781:900   */\ntag_24:\n    /* \"#utility.yul\":939:940   */\n  0x00\n    /* \"#utility.yul\":964:1028   */\n  tag_26\n    /* \"#utility.yul\":1020:1027   */\n  dup5\n    /* \"#utility.yul\":1011:1017   */\n  dup3\n    /* \"#utility.yul\":1000:1009   */\n  dup6\n    /* \"#utility.yul\":996:1018   */\n  add\n    /* \"#utility.yul\":964:1028   */\n  tag_12\n  jump\t// in\ntag_26:\n    /* \"#utility.yul\":954:1028   */\n  swap2\n  pop\n    /* \"#utility.yul\":910:1038   */\n  pop\n    /* \"#utility.yul\":694:1045   */\n  swap3\n  swap2\n  pop\n  pop\n  jump\t// out\n    /* \"contracts/OrderBook.sol\":730:6608  contract OrderBook {... */\ntag_6:\n  dataSize(sub_0)\n  dup1\n  dataOffset(sub_0)\n  0x00\n  codecopy\n  0x00\n  return\nstop\n\nsub_0: assembly {\n        /* \"contracts/OrderBook.sol\":730:6608  contract OrderBook {... */\n      mstore(0x40, 0x80)\n      jumpi(tag_1, lt(calldatasize, 0x04))\n      shr(0xe0, calldataload(0x00))\n      dup1\n      0x734a2e78\n      gt\n      tag_17\n      jumpi\n      dup1\n      0xbf77ffae\n      gt\n      tag_18\n      jumpi\n      dup1\n      0xbf77ffae\n      eq\n      tag_13\n      jumpi\n      dup1\n      0xc5374af2\n      eq\n      tag_14\n      jumpi\n      dup1\n      0xce0cdc87\n      eq\n      tag_15\n      jumpi\n      dup1\n      0xdb3a1396\n      eq\n      tag_16\n      jumpi\n      jump(tag_1)\n    tag_18:\n      dup1\n      0x734a2e78\n      eq\n      tag_9\n      jumpi\n      dup1\n      0x78c5b268\n      eq\n      tag_10\n      jumpi\n      dup1\n      0x9703ef35\n      eq\n      tag_11\n      jumpi\n      dup1\n      0x9979ef45\n      eq\n      tag_12\n      jumpi\n      jump(tag_1)\n    tag_17:\n      dup1\n      0x2db6dfa7\n      gt\n      tag_19\n      jumpi\n      dup1\n      0x2db6dfa7\n      eq\n      tag_5\n      jumpi\n      dup1\n      0x4471417f\n      eq\n      tag_6\n      jumpi\n      dup1\n      0x4d46712d\n      eq\n      tag_7\n      jumpi\n      dup1\n      0x69f632e2\n      eq\n      tag_8\n      jumpi\n      jump(tag_1)\n    tag_19:\n      dup1\n      0x012e0153\n      eq\n      tag_2\n      jumpi\n      dup1\n      0x122de8f2\n      eq\n      tag_3\n      jumpi\n      dup1\n      0x1628e0f5\n      eq\n      tag_4\n      jumpi\n    tag_1:\n      0x00\n      dup1\n      revert\n        /* \"contracts/OrderBook.sol\":5107:5169  function takeBid (uint bidId) public payable {... */\n    tag_2:\n      tag_20\n      0x04\n      dup1\n      calldatasize\n      sub\n      dup2\n      add\n      swap1\n      tag_21\n      swap2\n      swap1\n      tag_22\n      jump\t// in\n    tag_21:\n      tag_23\n      jump\t// in\n    tag_20:\n      stop\n        /* \"contracts/OrderBook.sol\":5658:5941  function fetchYourAskIds() public returns (uint[] memory) {... */\n    tag_3:\n      callvalue\n      dup1\n      iszero\n      tag_24\n      jumpi\n      0x00\n      dup1\n      revert\n    tag_24:\n      pop\n      tag_25\n      tag_26\n      jump\t// in\n    tag_25:\n      mload(0x40)\n      tag_27\n      swap2\n      swap1\n      tag_28\n      jump\t// in\n    tag_27:\n      mload(0x40)\n      dup1\n      swap2\n      sub\n      swap1\n      return\n        /* \"contracts/OrderBook.sol\":4898:5101  function cancelAsk (uint askId) public isPending(askBook[askId]) isAuthorised(askBook[askId], msg.sender) {... */\n    tag_4:\n      callvalue\n      dup1\n      iszero\n      tag_29\n      jumpi\n      0x00\n      dup1\n      revert\n    tag_29:\n      pop\n      tag_30\n      0x04\n      dup1\n      calldatasize\n      sub\n      dup2\n      add\n      swap1\n      tag_31\n      swap2\n      swap1\n      tag_22\n      jump\t// in\n    tag_31:\n      tag_32\n      jump\t// in\n    tag_30:\n      stop\n        /* \"contracts/OrderBook.sol\":6187:6288  function getBidValue (uint id) public view returns(uint256) {... */\n    tag_5:\n      callvalue\n      dup1\n      iszero\n      tag_33\n      jumpi\n      0x00\n      dup1\n      revert\n    tag_33:\n      pop\n      tag_34\n      0x04\n      dup1\n      calldatasize\n      sub\n      dup2\n      add\n      swap1\n      tag_35\n      swap2\n      swap1\n      tag_22\n      jump\t// in\n    tag_35:\n      tag_36\n      jump\t// in\n    tag_34:\n      mload(0x40)\n      tag_37\n      swap2\n      swap1\n      tag_38\n      jump\t// in\n    tag_37:\n      mload(0x40)\n      dup1\n      swap2\n      sub\n      swap1\n      return\n        /* \"contracts/OrderBook.sol\":5175:5266  function fetchAllBid() public view returns (order[] memory) {... */\n    tag_6:\n      callvalue\n      dup1\n      iszero\n      tag_39\n      jumpi\n      0x00\n      dup1\n      revert\n    tag_39:\n      pop\n      tag_40\n      tag_41\n      jump\t// in\n    tag_40:\n      mload(0x40)\n      tag_42\n      swap2\n      swap1\n      tag_43\n      jump\t// in\n    tag_42:\n      mload(0x40)\n      dup1\n      swap2\n      sub\n      swap1\n      return\n        /* \"contracts/OrderBook.sol\":6506:6605  function getAskState (uint id) public view returns(State) {... */\n    tag_7:\n      callvalue\n      dup1\n      iszero\n      tag_44\n      jumpi\n      0x00\n      dup1\n      revert\n    tag_44:\n      pop\n      tag_45\n      0x04\n      dup1\n      calldatasize\n      sub\n      dup2\n      add\n      swap1\n      tag_46\n      swap2\n      swap1\n      tag_22\n      jump\t// in\n    tag_46:\n      tag_47\n      jump\t// in\n    tag_45:\n      mload(0x40)\n      tag_48\n      swap2\n      swap1\n      tag_49\n      jump\t// in\n    tag_48:\n      mload(0x40)\n      dup1\n      swap2\n      sub\n      swap1\n      return\n        /* \"contracts/OrderBook.sol\":5947:6061  function getBidAddress (uint id) public view returns(address payable) {... */\n    tag_8:\n      callvalue\n      dup1\n      iszero\n      tag_50\n      jumpi\n      0x00\n      dup1\n      revert\n    tag_50:\n      pop\n      tag_51\n      0x04\n      dup1\n      calldatasize\n      sub\n      dup2\n      add\n      swap1\n      tag_52\n      swap2\n      swap1\n      tag_22\n      jump\t// in\n    tag_52:\n      tag_53\n      jump\t// in\n    tag_51:\n      mload(0x40)\n      tag_54\n      swap2\n      swap1\n      tag_55\n      jump\t// in\n    tag_54:\n      mload(0x40)\n      dup1\n      swap2\n      sub\n      swap1\n      return\n        /* \"contracts/OrderBook.sol\":6067:6181  function getAskAddress (uint id) public view returns(address payable) {... */\n    tag_9:\n      callvalue\n      dup1\n      iszero\n      tag_56\n      jumpi\n      0x00\n      dup1\n      revert\n    tag_56:\n      pop\n      tag_57\n      0x04\n      dup1\n      calldatasize\n      sub\n      dup2\n      add\n      swap1\n      tag_58\n      swap2\n      swap1\n      tag_22\n      jump\t// in\n    tag_58:\n      tag_59\n      jump\t// in\n    tag_57:\n      mload(0x40)\n      tag_60\n      swap2\n      swap1\n      tag_55\n      jump\t// in\n    tag_60:\n      mload(0x40)\n      dup1\n      swap2\n      sub\n      swap1\n      return\n        /* \"contracts/OrderBook.sol\":4347:4892  function placeAsk (uint256 price) public payable {... */\n    tag_10:\n      tag_61\n      0x04\n      dup1\n      calldatasize\n      sub\n      dup2\n      add\n      swap1\n      tag_62\n      swap2\n      swap1\n      tag_22\n      jump\t// in\n    tag_62:\n      tag_63\n      jump\t// in\n    tag_61:\n      stop\n        /* \"contracts/OrderBook.sol\":4144:4341  function cancelBid (uint bidId) public isPending(bidBook[bidId]) isAuthorised(bidBook[bidId], msg.sender) {... */\n    tag_11:\n      callvalue\n      dup1\n      iszero\n      tag_64\n      jumpi\n      0x00\n      dup1\n      revert\n    tag_64:\n      pop\n      tag_65\n      0x04\n      dup1\n      calldatasize\n      sub\n      dup2\n      add\n      swap1\n      tag_66\n      swap2\n      swap1\n      tag_22\n      jump\t// in\n    tag_66:\n      tag_67\n      jump\t// in\n    tag_65:\n      stop\n        /* \"contracts/OrderBook.sol\":3593:4138  function placeBid (uint256 price) public payable {... */\n    tag_12:\n      tag_68\n      0x04\n      dup1\n      calldatasize\n      sub\n      dup2\n      add\n      swap1\n      tag_69\n      swap2\n      swap1\n      tag_22\n      jump\t// in\n    tag_69:\n      tag_70\n      jump\t// in\n    tag_68:\n      stop\n        /* \"contracts/OrderBook.sol\":6401:6500  function getBidState (uint id) public view returns(State) {... */\n    tag_13:\n      callvalue\n      dup1\n      iszero\n      tag_71\n      jumpi\n      0x00\n      dup1\n      revert\n    tag_71:\n      pop\n      tag_72\n      0x04\n      dup1\n      calldatasize\n      sub\n      dup2\n      add\n      swap1\n      tag_73\n      swap2\n      swap1\n      tag_22\n      jump\t// in\n    tag_73:\n      tag_74\n      jump\t// in\n    tag_72:\n      mload(0x40)\n      tag_75\n      swap2\n      swap1\n      tag_49\n      jump\t// in\n    tag_75:\n      mload(0x40)\n      dup1\n      swap2\n      sub\n      swap1\n      return\n        /* \"contracts/OrderBook.sol\":5272:5363  function fetchAllAsk() public view returns (order[] memory) {... */\n    tag_14:\n      callvalue\n      dup1\n      iszero\n      tag_76\n      jumpi\n      0x00\n      dup1\n      revert\n    tag_76:\n      pop\n      tag_77\n      tag_78\n      jump\t// in\n    tag_77:\n      mload(0x40)\n      tag_79\n      swap2\n      swap1\n      tag_43\n      jump\t// in\n    tag_79:\n      mload(0x40)\n      dup1\n      swap2\n      sub\n      swap1\n      return\n        /* \"contracts/OrderBook.sol\":5369:5652  function fetchYourBidIds() public returns (uint[] memory) {... */\n    tag_15:\n      callvalue\n      dup1\n      iszero\n      tag_80\n      jumpi\n      0x00\n      dup1\n      revert\n    tag_80:\n      pop\n      tag_81\n      tag_82\n      jump\t// in\n    tag_81:\n      mload(0x40)\n      tag_83\n      swap2\n      swap1\n      tag_28\n      jump\t// in\n    tag_83:\n      mload(0x40)\n      dup1\n      swap2\n      sub\n      swap1\n      return\n        /* \"contracts/OrderBook.sol\":6294:6395  function getAskValue (uint id) public view returns(uint256) {... */\n    tag_16:\n      callvalue\n      dup1\n      iszero\n      tag_84\n      jumpi\n      0x00\n      dup1\n      revert\n    tag_84:\n      pop\n      tag_85\n      0x04\n      dup1\n      calldatasize\n      sub\n      dup2\n      add\n      swap1\n      tag_86\n      swap2\n      swap1\n      tag_22\n      jump\t// in\n    tag_86:\n      tag_87\n      jump\t// in\n    tag_85:\n      mload(0x40)\n      tag_88\n      swap2\n      swap1\n      tag_38\n      jump\t// in\n    tag_88:\n      mload(0x40)\n      dup1\n      swap2\n      sub\n      swap1\n      return\n        /* \"contracts/OrderBook.sol\":5107:5169  function takeBid (uint bidId) public payable {... */\n    tag_23:\n      pop\n      jump\t// out\n        /* \"contracts/OrderBook.sol\":5658:5941  function fetchYourAskIds() public returns (uint[] memory) {... */\n    tag_26:\n        /* \"contracts/OrderBook.sol\":5701:5714  uint[] memory */\n      0x60\n        /* \"contracts/OrderBook.sol\":5726:5739  deleteArray() */\n      tag_91\n        /* \"contracts/OrderBook.sol\":5726:5737  deleteArray */\n      tag_92\n        /* \"contracts/OrderBook.sol\":5726:5739  deleteArray() */\n      jump\t// in\n    tag_91:\n        /* \"contracts/OrderBook.sol\":5754:5760  uint i */\n      0x00\n        /* \"contracts/OrderBook.sol\":5749:5911  for (uint i = 0; i < askBook.length; i++) {... */\n    tag_93:\n        /* \"contracts/OrderBook.sol\":5770:5777  askBook */\n      0x03\n        /* \"contracts/OrderBook.sol\":5770:5784  askBook.length */\n      dup1\n      sload\n      swap1\n      pop\n        /* \"contracts/OrderBook.sol\":5766:5767  i */\n      dup2\n        /* \"contracts/OrderBook.sol\":5766:5784  i < askBook.length */\n      lt\n        /* \"contracts/OrderBook.sol\":5749:5911  for (uint i = 0; i < askBook.length; i++) {... */\n      iszero\n      tag_94\n      jumpi\n        /* \"contracts/OrderBook.sol\":5840:5850  msg.sender */\n      caller\n        /* \"contracts/OrderBook.sol\":5809:5851  askBook[i].customer == payable(msg.sender) */\n      0xffffffffffffffffffffffffffffffffffffffff\n      and\n        /* \"contracts/OrderBook.sol\":5809:5816  askBook */\n      0x03\n        /* \"contracts/OrderBook.sol\":5817:5818  i */\n      dup3\n        /* \"contracts/OrderBook.sol\":5809:5819  askBook[i] */\n      dup2\n      sload\n      dup2\n      lt\n      tag_96\n      jumpi\n      tag_97\n      tag_98\n      jump\t// in\n    tag_97:\n    tag_96:\n      swap1\n      0x00\n      mstore\n      keccak256(0x00, 0x20)\n      swap1\n      0x04\n      mul\n      add\n        /* \"contracts/OrderBook.sol\":5809:5828  askBook[i].customer */\n      0x00\n      add\n      0x00\n      swap1\n      sload\n      swap1\n      0x0100\n      exp\n      swap1\n      div\n      0xffffffffffffffffffffffffffffffffffffffff\n      and\n        /* \"contracts/OrderBook.sol\":5809:5851  askBook[i].customer == payable(msg.sender) */\n      0xffffffffffffffffffffffffffffffffffffffff\n      and\n      sub\n        /* \"contracts/OrderBook.sol\":5805:5901  if (askBook[i].customer == payable(msg.sender)) {... */\n      tag_100\n      jumpi\n        /* \"contracts/OrderBook.sol\":5871:5878  request */\n      0x04\n        /* \"contracts/OrderBook.sol\":5884:5885  i */\n      dup2\n        /* \"contracts/OrderBook.sol\":5871:5886  request.push(i) */\n      swap1\n      dup1\n      0x01\n      dup2\n      sload\n      add\n      dup1\n      dup3\n      sstore\n      dup1\n      swap2\n      pop\n      pop\n      0x01\n      swap1\n      sub\n      swap1\n      0x00\n      mstore\n      keccak256(0x00, 0x20)\n      add\n      0x00\n      swap1\n      swap2\n      swap1\n      swap2\n      swap1\n      swap2\n      pop\n      sstore\n        /* \"contracts/OrderBook.sol\":5805:5901  if (askBook[i].customer == payable(msg.sender)) {... */\n    tag_100:\n        /* \"contracts/OrderBook.sol\":5786:5789  i++ */\n      dup1\n      dup1\n      tag_102\n      swap1\n      tag_103\n      jump\t// in\n    tag_102:\n      swap2\n      pop\n      pop\n        /* \"contracts/OrderBook.sol\":5749:5911  for (uint i = 0; i < askBook.length; i++) {... */\n      jump(tag_93)\n    tag_94:\n      pop\n        /* \"contracts/OrderBook.sol\":5927:5934  request */\n      0x04\n        /* \"contracts/OrderBook.sol\":5920:5934  return request */\n      dup1\n      sload\n      dup1\n      0x20\n      mul\n      0x20\n      add\n      mload(0x40)\n      swap1\n      dup2\n      add\n      0x40\n      mstore\n      dup1\n      swap3\n      swap2\n      swap1\n      dup2\n      dup2\n      mstore\n      0x20\n      add\n      dup3\n      dup1\n      sload\n      dup1\n      iszero\n      tag_104\n      jumpi\n      0x20\n      mul\n      dup3\n      add\n      swap2\n      swap1\n      0x00\n      mstore\n      keccak256(0x00, 0x20)\n      swap1\n    tag_105:\n      dup2\n      sload\n      dup2\n      mstore\n      0x20\n      add\n      swap1\n      0x01\n      add\n      swap1\n      dup1\n      dup4\n      gt\n      tag_105\n      jumpi\n    tag_104:\n      pop\n      pop\n      pop\n      pop\n      pop\n      swap1\n      pop\n        /* \"contracts/OrderBook.sol\":5658:5941  function fetchYourAskIds() public returns (uint[] memory) {... */\n      swap1\n      jump\t// out\n        /* \"contracts/OrderBook.sol\":4898:5101  function cancelAsk (uint askId) public isPending(askBook[askId]) isAuthorised(askBook[askId], msg.sender) {... */\n    tag_32:\n        /* \"contracts/OrderBook.sol\":4947:4954  askBook */\n      0x03\n        /* \"contracts/OrderBook.sol\":4955:4960  askId */\n      dup2\n        /* \"contracts/OrderBook.sol\":4947:4961  askBook[askId] */\n      dup2\n      sload\n      dup2\n      lt\n      tag_106\n      jumpi\n      tag_107\n      tag_98\n      jump\t// in\n    tag_107:\n    tag_106:\n      swap1\n      0x00\n      mstore\n      keccak256(0x00, 0x20)\n      swap1\n      0x04\n      mul\n      add\n        /* \"contracts/OrderBook.sol\":1507:1630  modifier isPending(order memory _order) {... */\n      mload(0x40)\n      dup1\n      0x80\n      add\n      0x40\n      mstore\n      swap1\n      dup2\n      0x00\n      dup3\n      add\n      0x00\n      swap1\n      sload\n      swap1\n      0x0100\n      exp\n      swap1\n      div\n      0xffffffffffffffffffffffffffffffffffffffff\n      and\n      0xffffffffffffffffffffffffffffffffffffffff\n      and\n      0xffffffffffffffffffffffffffffffffffffffff\n      and\n      dup2\n      mstore\n      0x20\n      add\n      0x01\n      dup3\n      add\n      sload\n      dup2\n      mstore\n      0x20\n      add\n      0x02\n      dup3\n      add\n      sload\n      dup2\n      mstore\n      0x20\n      add\n      0x03\n      dup3\n      add\n      0x00\n      swap1\n      sload\n      swap1\n      0x0100\n      exp\n      swap1\n      div\n      0xff\n      and\n      0x01\n      dup2\n      gt\n      iszero\n      tag_109\n      jumpi\n      tag_110\n      tag_111\n      jump\t// in\n    tag_110:\n    tag_109:\n      0x01\n      dup2\n      gt\n      iszero\n      tag_112\n      jumpi\n      tag_113\n      tag_111\n      jump\t// in\n    tag_113:\n    tag_112:\n      dup2\n      mstore\n      pop\n      pop\n        /* \"contracts/OrderBook.sol\":1581:1594  State.pending */\n      0x00\n        /* \"contracts/OrderBook.sol\":1565:1594  _order.state == State.pending */\n      0x01\n      dup2\n      gt\n      iszero\n      tag_115\n      jumpi\n      tag_116\n      tag_111\n      jump\t// in\n    tag_116:\n    tag_115:\n        /* \"contracts/OrderBook.sol\":1565:1571  _order */\n      dup2\n        /* \"contracts/OrderBook.sol\":1565:1577  _order.state */\n      0x60\n      add\n      mload\n        /* \"contracts/OrderBook.sol\":1565:1594  _order.state == State.pending */\n      0x01\n      dup2\n      gt\n      iszero\n      tag_117\n      jumpi\n      tag_118\n      tag_111\n      jump\t// in\n    tag_118:\n    tag_117:\n      eq\n        /* \"contracts/OrderBook.sol\":1557:1612  require(_order.state == State.pending, \"Order Pending\") */\n      tag_119\n      jumpi\n      mload(0x40)\n      0x08c379a000000000000000000000000000000000000000000000000000000000\n      dup2\n      mstore\n      0x04\n      add\n      tag_120\n      swap1\n      tag_121\n      jump\t// in\n    tag_120:\n      mload(0x40)\n      dup1\n      swap2\n      sub\n      swap1\n      revert\n    tag_119:\n        /* \"contracts/OrderBook.sol\":4976:4983  askBook */\n      0x03\n        /* \"contracts/OrderBook.sol\":4984:4989  askId */\n      dup3\n        /* \"contracts/OrderBook.sol\":4976:4990  askBook[askId] */\n      dup2\n      sload\n      dup2\n      lt\n      tag_122\n      jumpi\n      tag_123\n      tag_98\n      jump\t// in\n    tag_123:\n    tag_122:\n      swap1\n      0x00\n      mstore\n      keccak256(0x00, 0x20)\n      swap1\n      0x04\n      mul\n      add\n        /* \"contracts/OrderBook.sol\":1636:1784  modifier isAuthorised(order memory _order, address sender) {... */\n      mload(0x40)\n      dup1\n      0x80\n      add\n      0x40\n      mstore\n      swap1\n      dup2\n      0x00\n      dup3\n      add\n      0x00\n      swap1\n      sload\n      swap1\n      0x0100\n      exp\n      swap1\n      div\n      0xffffffffffffffffffffffffffffffffffffffff\n      and\n      0xffffffffffffffffffffffffffffffffffffffff\n      and\n      0xffffffffffffffffffffffffffffffffffffffff\n      and\n      dup2\n      mstore\n      0x20\n      add\n      0x01\n      dup3\n      add\n      sload\n      dup2\n      mstore\n      0x20\n      add\n      0x02\n      dup3\n      add\n      sload\n      dup2\n      mstore\n      0x20\n      add\n      0x03\n      dup3\n      add\n      0x00\n      swap1\n      sload\n      swap1\n      0x0100\n      exp\n      swap1\n      div\n      0xff\n      and\n      0x01\n      dup2\n      gt\n      iszero\n      tag_125\n      jumpi\n      tag_126\n      tag_111\n      jump\t// in\n    tag_126:\n    tag_125:\n      0x01\n      dup2\n      gt\n      iszero\n      tag_127\n      jumpi\n      tag_128\n      tag_111\n      jump\t// in\n    tag_128:\n    tag_127:\n      dup2\n      mstore\n      pop\n      pop\n        /* \"contracts/OrderBook.sol\":4992:5002  msg.sender */\n      caller\n        /* \"contracts/OrderBook.sol\":1740:1746  sender */\n      dup1\n        /* \"contracts/OrderBook.sol\":1713:1747  _order.customer == payable(sender) */\n      0xffffffffffffffffffffffffffffffffffffffff\n      and\n        /* \"contracts/OrderBook.sol\":1713:1719  _order */\n      dup3\n        /* \"contracts/OrderBook.sol\":1713:1728  _order.customer */\n      0x00\n      add\n      mload\n        /* \"contracts/OrderBook.sol\":1713:1747  _order.customer == payable(sender) */\n      0xffffffffffffffffffffffffffffffffffffffff\n      and\n      eq\n        /* \"contracts/OrderBook.sol\":1705:1766  require(_order.customer == payable(sender), \"Not Authorised\") */\n      tag_130\n      jumpi\n      mload(0x40)\n      0x08c379a000000000000000000000000000000000000000000000000000000000\n      dup2\n      mstore\n      0x04\n      add\n      tag_131\n      swap1\n      tag_132\n      jump\t// in\n    tag_131:\n      mload(0x40)\n      dup1\n      swap2\n      sub\n      swap1\n      revert\n    tag_130:\n        /* \"contracts/OrderBook.sol\":5021:5028  askBook */\n      0x03\n        /* \"contracts/OrderBook.sol\":5029:5034  askId */\n      dup5\n        /* \"contracts/OrderBook.sol\":5021:5035  askBook[askId] */\n      dup2\n      sload\n      dup2\n      lt\n      tag_134\n      jumpi\n      tag_135\n      tag_98\n      jump\t// in\n    tag_135:\n    tag_134:\n      swap1\n      0x00\n      mstore\n      keccak256(0x00, 0x20)\n      swap1\n      0x04\n      mul\n      add\n      0x00\n        /* \"contracts/OrderBook.sol\":5014:5035  delete askBook[askId] */\n      dup1\n      dup3\n      add\n      exp(0x0100, 0x00)\n      dup2\n      sload\n      swap1\n      0xffffffffffffffffffffffffffffffffffffffff\n      mul\n      not\n      and\n      swap1\n      sstore\n      0x01\n      dup3\n      add\n      0x00\n      swap1\n      sstore\n      0x02\n      dup3\n      add\n      0x00\n      swap1\n      sstore\n      0x03\n      dup3\n      add\n      exp(0x0100, 0x00)\n      dup2\n      sload\n      swap1\n      0xff\n      mul\n      not\n      and\n      swap1\n      sstore\n      pop\n      pop\n        /* \"contracts/OrderBook.sol\":5045:5054  sortAsk() */\n      tag_137\n        /* \"contracts/OrderBook.sol\":5045:5052  sortAsk */\n      tag_138\n        /* \"contracts/OrderBook.sol\":5045:5054  sortAsk() */\n      jump\t// in\n    tag_137:\n        /* \"contracts/OrderBook.sol\":5075:5094  askCancelled(askId) */\n      0x48d3043fff66c1aee14954ac5aa463b0297fb08c9b60ee00486fb3387bb58aac\n        /* \"contracts/OrderBook.sol\":5088:5093  askId */\n      dup5\n        /* \"contracts/OrderBook.sol\":5075:5094  askCancelled(askId) */\n      mload(0x40)\n      tag_139\n      swap2\n      swap1\n      tag_38\n      jump\t// in\n    tag_139:\n      mload(0x40)\n      dup1\n      swap2\n      sub\n      swap1\n      log1\n        /* \"contracts/OrderBook.sol\":1622:1623  _ */\n      pop\n      pop\n        /* \"contracts/OrderBook.sol\":4898:5101  function cancelAsk (uint askId) public isPending(askBook[askId]) isAuthorised(askBook[askId], msg.sender) {... */\n      pop\n      pop\n      jump\t// out\n        /* \"contracts/OrderBook.sol\":6187:6288  function getBidValue (uint id) public view returns(uint256) {... */\n    tag_36:\n        /* \"contracts/OrderBook.sol\":6238:6245  uint256 */\n      0x00\n        /* \"contracts/OrderBook.sol\":6264:6271  bidBook */\n      0x02\n        /* \"contracts/OrderBook.sol\":6272:6274  id */\n      dup3\n        /* \"contracts/OrderBook.sol\":6264:6275  bidBook[id] */\n      dup2\n      sload\n      dup2\n      lt\n      tag_141\n      jumpi\n      tag_142\n      tag_98\n      jump\t// in\n    tag_142:\n    tag_141:\n      swap1\n      0x00\n      mstore\n      keccak256(0x00, 0x20)\n      swap1\n      0x04\n      mul\n      add\n        /* \"contracts/OrderBook.sol\":6264:6281  bidBook[id].value */\n      0x01\n      add\n      sload\n        /* \"contracts/OrderBook.sol\":6257:6281  return bidBook[id].value */\n      swap1\n      pop\n        /* \"contracts/OrderBook.sol\":6187:6288  function getBidValue (uint id) public view returns(uint256) {... */\n      swap2\n      swap1\n      pop\n      jump\t// out\n        /* \"contracts/OrderBook.sol\":5175:5266  function fetchAllBid() public view returns (order[] memory) {... */\n    tag_41:\n        /* \"contracts/OrderBook.sol\":5219:5233  order[] memory */\n      0x60\n        /* \"contracts/OrderBook.sol\":5252:5259  bidBook */\n      0x02\n        /* \"contracts/OrderBook.sol\":5245:5259  return bidBook */\n      dup1\n      sload\n      dup1\n      0x20\n      mul\n      0x20\n      add\n      mload(0x40)\n      swap1\n      dup2\n      add\n      0x40\n      mstore\n      dup1\n      swap3\n      swap2\n      swap1\n      dup2\n      dup2\n      mstore\n      0x20\n      add\n      0x00\n      swap1\n    tag_145:\n      dup3\n      dup3\n      lt\n      iszero\n      tag_146\n      jumpi\n      dup4\n      dup3\n      swap1\n      0x00\n      mstore\n      keccak256(0x00, 0x20)\n      swap1\n      0x04\n      mul\n      add\n      mload(0x40)\n      dup1\n      0x80\n      add\n      0x40\n      mstore\n      swap1\n      dup2\n      0x00\n      dup3\n      add\n      0x00\n      swap1\n      sload\n      swap1\n      0x0100\n      exp\n      swap1\n      div\n      0xffffffffffffffffffffffffffffffffffffffff\n      and\n      0xffffffffffffffffffffffffffffffffffffffff\n      and\n      0xffffffffffffffffffffffffffffffffffffffff\n      and\n      dup2\n      mstore\n      0x20\n      add\n      0x01\n      dup3\n      add\n      sload\n      dup2\n      mstore\n      0x20\n      add\n      0x02\n      dup3\n      add\n      sload\n      dup2\n      mstore\n      0x20\n      add\n      0x03\n      dup3\n      add\n      0x00\n      swap1\n      sload\n      swap1\n      0x0100\n      exp\n      swap1\n      div\n      0xff\n      and\n      0x01\n      dup2\n      gt\n      iszero\n      tag_148\n      jumpi\n      tag_149\n      tag_111\n      jump\t// in\n    tag_149:\n    tag_148:\n      0x01\n      dup2\n      gt\n      iszero\n      tag_150\n      jumpi\n      tag_151\n      tag_111\n      jump\t// in\n    tag_151:\n    tag_150:\n      dup2\n      mstore\n      pop\n      pop\n      dup2\n      mstore\n      0x20\n      add\n      swap1\n      0x01\n      add\n      swap1\n      jump(tag_145)\n    tag_146:\n      pop\n      pop\n      pop\n      pop\n      swap1\n      pop\n        /* \"contracts/OrderBook.sol\":5175:5266  function fetchAllBid() public view returns (order[] memory) {... */\n      swap1\n      jump\t// out\n        /* \"contracts/OrderBook.sol\":6506:6605  function getAskState (uint id) public view returns(State) {... */\n    tag_47:\n        /* \"contracts/OrderBook.sol\":6557:6562  State */\n      0x00\n        /* \"contracts/OrderBook.sol\":6581:6588  askBook */\n      0x03\n        /* \"contracts/OrderBook.sol\":6589:6591  id */\n      dup3\n        /* \"contracts/OrderBook.sol\":6581:6592  askBook[id] */\n      dup2\n      sload\n      dup2\n      lt\n      tag_153\n      jumpi\n      tag_154\n      tag_98\n      jump\t// in\n    tag_154:\n    tag_153:\n      swap1\n      0x00\n      mstore\n      keccak256(0x00, 0x20)\n      swap1\n      0x04\n      mul\n      add\n        /* \"contracts/OrderBook.sol\":6581:6598  askBook[id].state */\n      0x03\n      add\n      0x00\n      swap1\n      sload\n      swap1\n      0x0100\n      exp\n      swap1\n      div\n      0xff\n      and\n        /* \"contracts/OrderBook.sol\":6574:6598  return askBook[id].state */\n      swap1\n      pop\n        /* \"contracts/OrderBook.sol\":6506:6605  function getAskState (uint id) public view returns(State) {... */\n      swap2\n      swap1\n      pop\n      jump\t// out\n        /* \"contracts/OrderBook.sol\":5947:6061  function getBidAddress (uint id) public view returns(address payable) {... */\n    tag_53:\n        /* \"contracts/OrderBook.sol\":6000:6015  address payable */\n      0x00\n        /* \"contracts/OrderBook.sol\":6034:6041  bidBook */\n      0x02\n        /* \"contracts/OrderBook.sol\":6042:6044  id */\n      dup3\n        /* \"contracts/OrderBook.sol\":6034:6045  bidBook[id] */\n      dup2\n      sload\n      dup2\n      lt\n      tag_157\n      jumpi\n      tag_158\n      tag_98\n      jump\t// in\n    tag_158:\n    tag_157:\n      swap1\n      0x00\n      mstore\n      keccak256(0x00, 0x20)\n      swap1\n      0x04\n      mul\n      add\n        /* \"contracts/OrderBook.sol\":6034:6054  bidBook[id].customer */\n      0x00\n      add\n      0x00\n      swap1\n      sload\n      swap1\n      0x0100\n      exp\n      swap1\n      div\n      0xffffffffffffffffffffffffffffffffffffffff\n      and\n        /* \"contracts/OrderBook.sol\":6027:6054  return bidBook[id].customer */\n      swap1\n      pop\n        /* \"contracts/OrderBook.sol\":5947:6061  function getBidAddress (uint id) public view returns(address payable) {... */\n      swap2\n      swap1\n      pop\n      jump\t// out\n        /* \"contracts/OrderBook.sol\":6067:6181  function getAskAddress (uint id) public view returns(address payable) {... */\n    tag_59:\n        /* \"contracts/OrderBook.sol\":6120:6135  address payable */\n      0x00\n        /* \"contracts/OrderBook.sol\":6154:6161  askBook */\n      0x03\n        /* \"contracts/OrderBook.sol\":6162:6164  id */\n      dup3\n        /* \"contracts/OrderBook.sol\":6154:6165  askBook[id] */\n      dup2\n      sload\n      dup2\n      lt\n      tag_161\n      jumpi\n      tag_162\n      tag_98\n      jump\t// in\n    tag_162:\n    tag_161:\n      swap1\n      0x00\n      mstore\n      keccak256(0x00, 0x20)\n      swap1\n      0x04\n      mul\n      add\n        /* \"contracts/OrderBook.sol\":6154:6174  askBook[id].customer */\n      0x00\n      add\n      0x00\n      swap1\n      sload\n      swap1\n      0x0100\n      exp\n      swap1\n      div\n      0xffffffffffffffffffffffffffffffffffffffff\n      and\n        /* \"contracts/OrderBook.sol\":6147:6174  return askBook[id].customer */\n      swap1\n      pop\n        /* \"contracts/OrderBook.sol\":6067:6181  function getAskAddress (uint id) public view returns(address payable) {... */\n      swap2\n      swap1\n      pop\n      jump\t// out\n        /* \"contracts/OrderBook.sol\":4347:4892  function placeAsk (uint256 price) public payable {... */\n    tag_63:\n        /* \"contracts/OrderBook.sol\":4423:4424  0 */\n      0x00\n        /* \"contracts/OrderBook.sol\":4414:4419  price */\n      dup2\n        /* \"contracts/OrderBook.sol\":4414:4424  price >= 0 */\n      lt\n      iszero\n        /* \"contracts/OrderBook.sol\":4406:4460  require(price >= 0, \"price value must be more than 0\") */\n      tag_165\n      jumpi\n      mload(0x40)\n      0x08c379a000000000000000000000000000000000000000000000000000000000\n      dup2\n      mstore\n      0x04\n      add\n      tag_166\n      swap1\n      tag_167\n      jump\t// in\n    tag_166:\n      mload(0x40)\n      dup1\n      swap2\n      sub\n      swap1\n      revert\n    tag_165:\n        /* \"contracts/OrderBook.sol\":4491:4496  price */\n      dup1\n        /* \"contracts/OrderBook.sol\":4478:4487  msg.value */\n      callvalue\n        /* \"contracts/OrderBook.sol\":4478:4496  msg.value >= price */\n      lt\n      iszero\n        /* \"contracts/OrderBook.sol\":4470:4531  require(msg.value >= price, \"Not enough blance to place ask\") */\n      tag_168\n      jumpi\n      mload(0x40)\n      0x08c379a000000000000000000000000000000000000000000000000000000000\n      dup2\n      mstore\n      0x04\n      add\n      tag_169\n      swap1\n      tag_170\n      jump\t// in\n    tag_169:\n      mload(0x40)\n      dup1\n      swap2\n      sub\n      swap1\n      revert\n    tag_168:\n        /* \"contracts/OrderBook.sol\":4541:4553  uint256 time */\n      0x00\n        /* \"contracts/OrderBook.sol\":4556:4571  block.timestamp */\n      timestamp\n        /* \"contracts/OrderBook.sol\":4541:4571  uint256 time = block.timestamp */\n      swap1\n      pop\n        /* \"contracts/OrderBook.sol\":4581:4606  uint256 commissionedPrice */\n      0x00\n        /* \"contracts/OrderBook.sol\":4640:4643  100 */\n      0x64\n        /* \"contracts/OrderBook.sol\":4626:4636  commission */\n      sload(0x01)\n        /* \"contracts/OrderBook.sol\":4622:4625  100 */\n      0x64\n        /* \"contracts/OrderBook.sol\":4622:4636  100-commission */\n      tag_171\n      swap2\n      swap1\n      tag_172\n      jump\t// in\n    tag_171:\n        /* \"contracts/OrderBook.sol\":4609:4618  msg.value */\n      callvalue\n        /* \"contracts/OrderBook.sol\":4609:4637  msg.value * (100-commission) */\n      tag_173\n      swap2\n      swap1\n      tag_174\n      jump\t// in\n    tag_173:\n        /* \"contracts/OrderBook.sol\":4609:4643  msg.value * (100-commission) / 100 */\n      tag_175\n      swap2\n      swap1\n      tag_176\n      jump\t// in\n    tag_175:\n        /* \"contracts/OrderBook.sol\":4581:4643  uint256 commissionedPrice = msg.value * (100-commission) / 100 */\n      swap1\n      pop\n        /* \"contracts/OrderBook.sol\":4653:4672  order memory newBid */\n      0x00\n        /* \"contracts/OrderBook.sol\":4675:4738  order(payable(msg.sender),commissionedPrice,time,State.pending) */\n      mload(0x40)\n      dup1\n      0x80\n      add\n      0x40\n      mstore\n      dup1\n        /* \"contracts/OrderBook.sol\":4689:4699  msg.sender */\n      caller\n        /* \"contracts/OrderBook.sol\":4675:4738  order(payable(msg.sender),commissionedPrice,time,State.pending) */\n      0xffffffffffffffffffffffffffffffffffffffff\n      and\n      dup2\n      mstore\n      0x20\n      add\n        /* \"contracts/OrderBook.sol\":4701:4718  commissionedPrice */\n      dup4\n        /* \"contracts/OrderBook.sol\":4675:4738  order(payable(msg.sender),commissionedPrice,time,State.pending) */\n      dup2\n      mstore\n      0x20\n      add\n        /* \"contracts/OrderBook.sol\":4719:4723  time */\n      dup5\n        /* \"contracts/OrderBook.sol\":4675:4738  order(payable(msg.sender),commissionedPrice,time,State.pending) */\n      dup2\n      mstore\n      0x20\n      add\n        /* \"contracts/OrderBook.sol\":4724:4737  State.pending */\n      0x00\n        /* \"contracts/OrderBook.sol\":4675:4738  order(payable(msg.sender),commissionedPrice,time,State.pending) */\n      0x01\n      dup2\n      gt\n      iszero\n      tag_177\n      jumpi\n      tag_178\n      tag_111\n      jump\t// in\n    tag_178:\n    tag_177:\n      dup2\n      mstore\n      pop\n        /* \"contracts/OrderBook.sol\":4653:4738  order memory newBid = order(payable(msg.sender),commissionedPrice,time,State.pending) */\n      swap1\n      pop\n        /* \"contracts/OrderBook.sol\":4748:4755  askBook */\n      0x03\n        /* \"contracts/OrderBook.sol\":4761:4767  newBid */\n      dup2\n        /* \"contracts/OrderBook.sol\":4748:4768  askBook.push(newBid) */\n      swap1\n      dup1\n      0x01\n      dup2\n      sload\n      add\n      dup1\n      dup3\n      sstore\n      dup1\n      swap2\n      pop\n      pop\n      0x01\n      swap1\n      sub\n      swap1\n      0x00\n      mstore\n      keccak256(0x00, 0x20)\n      swap1\n      0x04\n      mul\n      add\n      0x00\n      swap1\n      swap2\n      swap1\n      swap2\n      swap1\n      swap2\n      pop\n      0x00\n      dup3\n      add\n      mload\n      dup2\n      0x00\n      add\n      exp(0x0100, 0x00)\n      dup2\n      sload\n      dup2\n      0xffffffffffffffffffffffffffffffffffffffff\n      mul\n      not\n      and\n      swap1\n      dup4\n      0xffffffffffffffffffffffffffffffffffffffff\n      and\n      mul\n      or\n      swap1\n      sstore\n      pop\n      0x20\n      dup3\n      add\n      mload\n      dup2\n      0x01\n      add\n      sstore\n      0x40\n      dup3\n      add\n      mload\n      dup2\n      0x02\n      add\n      sstore\n      0x60\n      dup3\n      add\n      mload\n      dup2\n      0x03\n      add\n      exp(0x0100, 0x00)\n      dup2\n      sload\n      dup2\n      0xff\n      mul\n      not\n      and\n      swap1\n      dup4\n      0x01\n      dup2\n      gt\n      iszero\n      tag_180\n      jumpi\n      tag_181\n      tag_111\n      jump\t// in\n    tag_181:\n    tag_180:\n      mul\n      or\n      swap1\n      sstore\n      pop\n      pop\n      pop\n        /* \"contracts/OrderBook.sol\":4778:4784  _owner */\n      0x00\n      dup1\n      sload\n      swap1\n      0x0100\n      exp\n      swap1\n      div\n      0xffffffffffffffffffffffffffffffffffffffff\n      and\n        /* \"contracts/OrderBook.sol\":4778:4793  _owner.transfer */\n      0xffffffffffffffffffffffffffffffffffffffff\n      and\n        /* \"contracts/OrderBook.sol\":4778:4812  _owner.transfer(commissionedPrice) */\n      0x08fc\n        /* \"contracts/OrderBook.sol\":4794:4811  commissionedPrice */\n      dup4\n        /* \"contracts/OrderBook.sol\":4778:4812  _owner.transfer(commissionedPrice) */\n      swap1\n      dup2\n      iszero\n      mul\n      swap1\n      mload(0x40)\n      0x00\n      mload(0x40)\n      dup1\n      dup4\n      sub\n      dup2\n      dup6\n      dup9\n      dup9\n      call\n      swap4\n      pop\n      pop\n      pop\n      pop\n      iszero\n      dup1\n      iszero\n      tag_183\n      jumpi\n      returndatasize\n      0x00\n      dup1\n      returndatacopy\n      revert(0x00, returndatasize)\n    tag_183:\n      pop\n        /* \"contracts/OrderBook.sol\":4827:4885  askPlaced(msg.sender,commissionedPrice,time,State.pending) */\n      0xc2125a7f3edfeff7a3bbcfe393c5aa3a6589585d4a7ee70db48c34f67c8209e2\n        /* \"contracts/OrderBook.sol\":4837:4847  msg.sender */\n      caller\n        /* \"contracts/OrderBook.sol\":4848:4865  commissionedPrice */\n      dup4\n        /* \"contracts/OrderBook.sol\":4866:4870  time */\n      dup6\n        /* \"contracts/OrderBook.sol\":4871:4884  State.pending */\n      0x00\n        /* \"contracts/OrderBook.sol\":4827:4885  askPlaced(msg.sender,commissionedPrice,time,State.pending) */\n      mload(0x40)\n      tag_184\n      swap5\n      swap4\n      swap3\n      swap2\n      swap1\n      tag_185\n      jump\t// in\n    tag_184:\n      mload(0x40)\n      dup1\n      swap2\n      sub\n      swap1\n      log1\n        /* \"contracts/OrderBook.sol\":4396:4892  {... */\n      pop\n      pop\n      pop\n        /* \"contracts/OrderBook.sol\":4347:4892  function placeAsk (uint256 price) public payable {... */\n      pop\n      jump\t// out\n        /* \"contracts/OrderBook.sol\":4144:4341  function cancelBid (uint bidId) public isPending(bidBook[bidId]) isAuthorised(bidBook[bidId], msg.sender) {... */\n    tag_67:\n        /* \"contracts/OrderBook.sol\":4193:4200  bidBook */\n      0x02\n        /* \"contracts/OrderBook.sol\":4201:4206  bidId */\n      dup2\n        /* \"contracts/OrderBook.sol\":4193:4207  bidBook[bidId] */\n      dup2\n      sload\n      dup2\n      lt\n      tag_186\n      jumpi\n      tag_187\n      tag_98\n      jump\t// in\n    tag_187:\n    tag_186:\n      swap1\n      0x00\n      mstore\n      keccak256(0x00, 0x20)\n      swap1\n      0x04\n      mul\n      add\n        /* \"contracts/OrderBook.sol\":1507:1630  modifier isPending(order memory _order) {... */\n      mload(0x40)\n      dup1\n      0x80\n      add\n      0x40\n      mstore\n      swap1\n      dup2\n      0x00\n      dup3\n      add\n      0x00\n      swap1\n      sload\n      swap1\n      0x0100\n      exp\n      swap1\n      div\n      0xffffffffffffffffffffffffffffffffffffffff\n      and\n      0xffffffffffffffffffffffffffffffffffffffff\n      and\n      0xffffffffffffffffffffffffffffffffffffffff\n      and\n      dup2\n      mstore\n      0x20\n      add\n      0x01\n      dup3\n      add\n      sload\n      dup2\n      mstore\n      0x20\n      add\n      0x02\n      dup3\n      add\n      sload\n      dup2\n      mstore\n      0x20\n      add\n      0x03\n      dup3\n      add\n      0x00\n      swap1\n      sload\n      swap1\n      0x0100\n      exp\n      swap1\n      div\n      0xff\n      and\n      0x01\n      dup2\n      gt\n      iszero\n      tag_189\n      jumpi\n      tag_190\n      tag_111\n      jump\t// in\n    tag_190:\n    tag_189:\n      0x01\n      dup2\n      gt\n      iszero\n      tag_191\n      jumpi\n      tag_192\n      tag_111\n      jump\t// in\n    tag_192:\n    tag_191:\n      dup2\n      mstore\n      pop\n      pop\n        /* \"contracts/OrderBook.sol\":1581:1594  State.pending */\n      0x00\n        /* \"contracts/OrderBook.sol\":1565:1594  _order.state == State.pending */\n      0x01\n      dup2\n      gt\n      iszero\n      tag_194\n      jumpi\n      tag_195\n      tag_111\n      jump\t// in\n    tag_195:\n    tag_194:\n        /* \"contracts/OrderBook.sol\":1565:1571  _order */\n      dup2\n        /* \"contracts/OrderBook.sol\":1565:1577  _order.state */\n      0x60\n      add\n      mload\n        /* \"contracts/OrderBook.sol\":1565:1594  _order.state == State.pending */\n      0x01\n      dup2\n      gt\n      iszero\n      tag_196\n      jumpi\n      tag_197\n      tag_111\n      jump\t// in\n    tag_197:\n    tag_196:\n      eq\n        /* \"contracts/OrderBook.sol\":1557:1612  require(_order.state == State.pending, \"Order Pending\") */\n      tag_198\n      jumpi\n      mload(0x40)\n      0x08c379a000000000000000000000000000000000000000000000000000000000\n      dup2\n      mstore\n      0x04\n      add\n      tag_199\n      swap1\n      tag_121\n      jump\t// in\n    tag_199:\n      mload(0x40)\n      dup1\n      swap2\n      sub\n      swap1\n      revert\n    tag_198:\n        /* \"contracts/OrderBook.sol\":4222:4229  bidBook */\n      0x02\n        /* \"contracts/OrderBook.sol\":4230:4235  bidId */\n      dup3\n        /* \"contracts/OrderBook.sol\":4222:4236  bidBook[bidId] */\n      dup2\n      sload\n      dup2\n      lt\n      tag_200\n      jumpi\n      tag_201\n      tag_98\n      jump\t// in\n    tag_201:\n    tag_200:\n      swap1\n      0x00\n      mstore\n      keccak256(0x00, 0x20)\n      swap1\n      0x04\n      mul\n      add\n        /* \"contracts/OrderBook.sol\":1636:1784  modifier isAuthorised(order memory _order, address sender) {... */\n      mload(0x40)\n      dup1\n      0x80\n      add\n      0x40\n      mstore\n      swap1\n      dup2\n      0x00\n      dup3\n      add\n      0x00\n      swap1\n      sload\n      swap1\n      0x0100\n      exp\n      swap1\n      div\n      0xffffffffffffffffffffffffffffffffffffffff\n      and\n      0xffffffffffffffffffffffffffffffffffffffff\n      and\n      0xffffffffffffffffffffffffffffffffffffffff\n      and\n      dup2\n      mstore\n      0x20\n      add\n      0x01\n      dup3\n      add\n      sload\n      dup2\n      mstore\n      0x20\n      add\n      0x02\n      dup3\n      add\n      sload\n      dup2\n      mstore\n      0x20\n      add\n      0x03\n      dup3\n      add\n      0x00\n      swap1\n      sload\n      swap1\n      0x0100\n      exp\n      swap1\n      div\n      0xff\n      and\n      0x01\n      dup2\n      gt\n      iszero\n      tag_203\n      jumpi\n      tag_204\n      tag_111\n      jump\t// in\n    tag_204:\n    tag_203:\n      0x01\n      dup2\n      gt\n      iszero\n      tag_205\n      jumpi\n      tag_206\n      tag_111\n      jump\t// in\n    tag_206:\n    tag_205:\n      dup2\n      mstore\n      pop\n      pop\n        /* \"contracts/OrderBook.sol\":4238:4248  msg.sender */\n      caller\n        /* \"contracts/OrderBook.sol\":1740:1746  sender */\n      dup1\n        /* \"contracts/OrderBook.sol\":1713:1747  _order.customer == payable(sender) */\n      0xffffffffffffffffffffffffffffffffffffffff\n      and\n        /* \"contracts/OrderBook.sol\":1713:1719  _order */\n      dup3\n        /* \"contracts/OrderBook.sol\":1713:1728  _order.customer */\n      0x00\n      add\n      mload\n        /* \"contracts/OrderBook.sol\":1713:1747  _order.customer == payable(sender) */\n      0xffffffffffffffffffffffffffffffffffffffff\n      and\n      eq\n        /* \"contracts/OrderBook.sol\":1705:1766  require(_order.customer == payable(sender), \"Not Authorised\") */\n      tag_208\n      jumpi\n      mload(0x40)\n      0x08c379a000000000000000000000000000000000000000000000000000000000\n      dup2\n      mstore\n      0x04\n      add\n      tag_209\n      swap1\n      tag_132\n      jump\t// in\n    tag_209:\n      mload(0x40)\n      dup1\n      swap2\n      sub\n      swap1\n      revert\n    tag_208:\n        /* \"contracts/OrderBook.sol\":4267:4274  bidBook */\n      0x02\n        /* \"contracts/OrderBook.sol\":4275:4280  bidId */\n      dup5\n        /* \"contracts/OrderBook.sol\":4267:4281  bidBook[bidId] */\n      dup2\n      sload\n      dup2\n      lt\n      tag_211\n      jumpi\n      tag_212\n      tag_98\n      jump\t// in\n    tag_212:\n    tag_211:\n      swap1\n      0x00\n      mstore\n      keccak256(0x00, 0x20)\n      swap1\n      0x04\n      mul\n      add\n      0x00\n        /* \"contracts/OrderBook.sol\":4260:4281  delete bidBook[bidId] */\n      dup1\n      dup3\n      add\n      exp(0x0100, 0x00)\n      dup2\n      sload\n      swap1\n      0xffffffffffffffffffffffffffffffffffffffff\n      mul\n      not\n      and\n      swap1\n      sstore\n      0x01\n      dup3\n      add\n      0x00\n      swap1\n      sstore\n      0x02\n      dup3\n      add\n      0x00\n      swap1\n      sstore\n      0x03\n      dup3\n      add\n      exp(0x0100, 0x00)\n      dup2\n      sload\n      swap1\n      0xff\n      mul\n      not\n      and\n      swap1\n      sstore\n      pop\n      pop\n        /* \"contracts/OrderBook.sol\":4291:4300  sortBid() */\n      tag_214\n        /* \"contracts/OrderBook.sol\":4291:4298  sortBid */\n      tag_215\n        /* \"contracts/OrderBook.sol\":4291:4300  sortBid() */\n      jump\t// in\n    tag_214:\n        /* \"contracts/OrderBook.sol\":4315:4334  bidCancelled(bidId) */\n      0xc845a6832afa0a4048dd70bbba2186093508a6b63a8d5d70a508f819fef257f8\n        /* \"contracts/OrderBook.sol\":4328:4333  bidId */\n      dup5\n        /* \"contracts/OrderBook.sol\":4315:4334  bidCancelled(bidId) */\n      mload(0x40)\n      tag_216\n      swap2\n      swap1\n      tag_38\n      jump\t// in\n    tag_216:\n      mload(0x40)\n      dup1\n      swap2\n      sub\n      swap1\n      log1\n        /* \"contracts/OrderBook.sol\":1622:1623  _ */\n      pop\n      pop\n        /* \"contracts/OrderBook.sol\":4144:4341  function cancelBid (uint bidId) public isPending(bidBook[bidId]) isAuthorised(bidBook[bidId], msg.sender) {... */\n      pop\n      pop\n      jump\t// out\n        /* \"contracts/OrderBook.sol\":3593:4138  function placeBid (uint256 price) public payable {... */\n    tag_70:\n        /* \"contracts/OrderBook.sol\":3669:3670  0 */\n      0x00\n        /* \"contracts/OrderBook.sol\":3660:3665  price */\n      dup2\n        /* \"contracts/OrderBook.sol\":3660:3670  price >= 0 */\n      lt\n      iszero\n        /* \"contracts/OrderBook.sol\":3652:3706  require(price >= 0, \"price value must be more than 0\") */\n      tag_218\n      jumpi\n      mload(0x40)\n      0x08c379a000000000000000000000000000000000000000000000000000000000\n      dup2\n      mstore\n      0x04\n      add\n      tag_219\n      swap1\n      tag_167\n      jump\t// in\n    tag_219:\n      mload(0x40)\n      dup1\n      swap2\n      sub\n      swap1\n      revert\n    tag_218:\n        /* \"contracts/OrderBook.sol\":3737:3742  price */\n      dup1\n        /* \"contracts/OrderBook.sol\":3724:3733  msg.value */\n      callvalue\n        /* \"contracts/OrderBook.sol\":3724:3742  msg.value >= price */\n      lt\n      iszero\n        /* \"contracts/OrderBook.sol\":3716:3777  require(msg.value >= price, \"Not enough blance to place bid\") */\n      tag_220\n      jumpi\n      mload(0x40)\n      0x08c379a000000000000000000000000000000000000000000000000000000000\n      dup2\n      mstore\n      0x04\n      add\n      tag_221\n      swap1\n      tag_222\n      jump\t// in\n    tag_221:\n      mload(0x40)\n      dup1\n      swap2\n      sub\n      swap1\n      revert\n    tag_220:\n        /* \"contracts/OrderBook.sol\":3787:3799  uint256 time */\n      0x00\n        /* \"contracts/OrderBook.sol\":3802:3817  block.timestamp */\n      timestamp\n        /* \"contracts/OrderBook.sol\":3787:3817  uint256 time = block.timestamp */\n      swap1\n      pop\n        /* \"contracts/OrderBook.sol\":3827:3852  uint256 commissionedPrice */\n      0x00\n        /* \"contracts/OrderBook.sol\":3886:3889  100 */\n      0x64\n        /* \"contracts/OrderBook.sol\":3872:3882  commission */\n      sload(0x01)\n        /* \"contracts/OrderBook.sol\":3868:3871  100 */\n      0x64\n        /* \"contracts/OrderBook.sol\":3868:3882  100-commission */\n      tag_223\n      swap2\n      swap1\n      tag_172\n      jump\t// in\n    tag_223:\n        /* \"contracts/OrderBook.sol\":3855:3864  msg.value */\n      callvalue\n        /* \"contracts/OrderBook.sol\":3855:3883  msg.value * (100-commission) */\n      tag_224\n      swap2\n      swap1\n      tag_174\n      jump\t// in\n    tag_224:\n        /* \"contracts/OrderBook.sol\":3855:3889  msg.value * (100-commission) / 100 */\n      tag_225\n      swap2\n      swap1\n      tag_176\n      jump\t// in\n    tag_225:\n        /* \"contracts/OrderBook.sol\":3827:3889  uint256 commissionedPrice = msg.value * (100-commission) / 100 */\n      swap1\n      pop\n        /* \"contracts/OrderBook.sol\":3899:3918  order memory newBid */\n      0x00\n        /* \"contracts/OrderBook.sol\":3921:3984  order(payable(msg.sender),commissionedPrice,time,State.pending) */\n      mload(0x40)\n      dup1\n      0x80\n      add\n      0x40\n      mstore\n      dup1\n        /* \"contracts/OrderBook.sol\":3935:3945  msg.sender */\n      caller\n        /* \"contracts/OrderBook.sol\":3921:3984  order(payable(msg.sender),commissionedPrice,time,State.pending) */\n      0xffffffffffffffffffffffffffffffffffffffff\n      and\n      dup2\n      mstore\n      0x20\n      add\n        /* \"contracts/OrderBook.sol\":3947:3964  commissionedPrice */\n      dup4\n        /* \"contracts/OrderBook.sol\":3921:3984  order(payable(msg.sender),commissionedPrice,time,State.pending) */\n      dup2\n      mstore\n      0x20\n      add\n        /* \"contracts/OrderBook.sol\":3965:3969  time */\n      dup5\n        /* \"contracts/OrderBook.sol\":3921:3984  order(payable(msg.sender),commissionedPrice,time,State.pending) */\n      dup2\n      mstore\n      0x20\n      add\n        /* \"contracts/OrderBook.sol\":3970:3983  State.pending */\n      0x00\n        /* \"contracts/OrderBook.sol\":3921:3984  order(payable(msg.sender),commissionedPrice,time,State.pending) */\n      0x01\n      dup2\n      gt\n      iszero\n      tag_226\n      jumpi\n      tag_227\n      tag_111\n      jump\t// in\n    tag_227:\n    tag_226:\n      dup2\n      mstore\n      pop\n        /* \"contracts/OrderBook.sol\":3899:3984  order memory newBid = order(payable(msg.sender),commissionedPrice,time,State.pending) */\n      swap1\n      pop\n        /* \"contracts/OrderBook.sol\":3994:4001  bidBook */\n      0x02\n        /* \"contracts/OrderBook.sol\":4007:4013  newBid */\n      dup2\n        /* \"contracts/OrderBook.sol\":3994:4014  bidBook.push(newBid) */\n      swap1\n      dup1\n      0x01\n      dup2\n      sload\n      add\n      dup1\n      dup3\n      sstore\n      dup1\n      swap2\n      pop\n      pop\n      0x01\n      swap1\n      sub\n      swap1\n      0x00\n      mstore\n      keccak256(0x00, 0x20)\n      swap1\n      0x04\n      mul\n      add\n      0x00\n      swap1\n      swap2\n      swap1\n      swap2\n      swap1\n      swap2\n      pop\n      0x00\n      dup3\n      add\n      mload\n      dup2\n      0x00\n      add\n      exp(0x0100, 0x00)\n      dup2\n      sload\n      dup2\n      0xffffffffffffffffffffffffffffffffffffffff\n      mul\n      not\n      and\n      swap1\n      dup4\n      0xffffffffffffffffffffffffffffffffffffffff\n      and\n      mul\n      or\n      swap1\n      sstore\n      pop\n      0x20\n      dup3\n      add\n      mload\n      dup2\n      0x01\n      add\n      sstore\n      0x40\n      dup3\n      add\n      mload\n      dup2\n      0x02\n      add\n      sstore\n      0x60\n      dup3\n      add\n      mload\n      dup2\n      0x03\n      add\n      exp(0x0100, 0x00)\n      dup2\n      sload\n      dup2\n      0xff\n      mul\n      not\n      and\n      swap1\n      dup4\n      0x01\n      dup2\n      gt\n      iszero\n      tag_229\n      jumpi\n      tag_230\n      tag_111\n      jump\t// in\n    tag_230:\n    tag_229:\n      mul\n      or\n      swap1\n      sstore\n      pop\n      pop\n      pop\n        /* \"contracts/OrderBook.sol\":4024:4030  _owner */\n      0x00\n      dup1\n      sload\n      swap1\n      0x0100\n      exp\n      swap1\n      div\n      0xffffffffffffffffffffffffffffffffffffffff\n      and\n        /* \"contracts/OrderBook.sol\":4024:4039  _owner.transfer */\n      0xffffffffffffffffffffffffffffffffffffffff\n      and\n        /* \"contracts/OrderBook.sol\":4024:4058  _owner.transfer(commissionedPrice) */\n      0x08fc\n        /* \"contracts/OrderBook.sol\":4040:4057  commissionedPrice */\n      dup4\n        /* \"contracts/OrderBook.sol\":4024:4058  _owner.transfer(commissionedPrice) */\n      swap1\n      dup2\n      iszero\n      mul\n      swap1\n      mload(0x40)\n      0x00\n      mload(0x40)\n      dup1\n      dup4\n      sub\n      dup2\n      dup6\n      dup9\n      dup9\n      call\n      swap4\n      pop\n      pop\n      pop\n      pop\n      iszero\n      dup1\n      iszero\n      tag_232\n      jumpi\n      returndatasize\n      0x00\n      dup1\n      returndatacopy\n      revert(0x00, returndatasize)\n    tag_232:\n      pop\n        /* \"contracts/OrderBook.sol\":4073:4131  bidPlaced(msg.sender,commissionedPrice,time,State.pending) */\n      0xa64806d6d5d480697a0b11c92b915a4ff7b93c0be28171d65d30041a0c360d04\n        /* \"contracts/OrderBook.sol\":4083:4093  msg.sender */\n      caller\n        /* \"contracts/OrderBook.sol\":4094:4111  commissionedPrice */\n      dup4\n        /* \"contracts/OrderBook.sol\":4112:4116  time */\n      dup6\n        /* \"contracts/OrderBook.sol\":4117:4130  State.pending */\n      0x00\n        /* \"contracts/OrderBook.sol\":4073:4131  bidPlaced(msg.sender,commissionedPrice,time,State.pending) */\n      mload(0x40)\n      tag_233\n      swap5\n      swap4\n      swap3\n      swap2\n      swap1\n      tag_185\n      jump\t// in\n    tag_233:\n      mload(0x40)\n      dup1\n      swap2\n      sub\n      swap1\n      log1\n        /* \"contracts/OrderBook.sol\":3642:4138  {... */\n      pop\n      pop\n      pop\n        /* \"contracts/OrderBook.sol\":3593:4138  function placeBid (uint256 price) public payable {... */\n      pop\n      jump\t// out\n        /* \"contracts/OrderBook.sol\":6401:6500  function getBidState (uint id) public view returns(State) {... */\n    tag_74:\n        /* \"contracts/OrderBook.sol\":6452:6457  State */\n      0x00\n        /* \"contracts/OrderBook.sol\":6476:6483  bidBook */\n      0x02\n        /* \"contracts/OrderBook.sol\":6484:6486  id */\n      dup3\n        /* \"contracts/OrderBook.sol\":6476:6487  bidBook[id] */\n      dup2\n      sload\n      dup2\n      lt\n      tag_235\n      jumpi\n      tag_236\n      tag_98\n      jump\t// in\n    tag_236:\n    tag_235:\n      swap1\n      0x00\n      mstore\n      keccak256(0x00, 0x20)\n      swap1\n      0x04\n      mul\n      add\n        /* \"contracts/OrderBook.sol\":6476:6493  bidBook[id].state */\n      0x03\n      add\n      0x00\n      swap1\n      sload\n      swap1\n      0x0100\n      exp\n      swap1\n      div\n      0xff\n      and\n        /* \"contracts/OrderBook.sol\":6469:6493  return bidBook[id].state */\n      swap1\n      pop\n        /* \"contracts/OrderBook.sol\":6401:6500  function getBidState (uint id) public view returns(State) {... */\n      swap2\n      swap1\n      pop\n      jump\t// out\n        /* \"contracts/OrderBook.sol\":5272:5363  function fetchAllAsk() public view returns (order[] memory) {... */\n    tag_78:\n        /* \"contracts/OrderBook.sol\":5316:5330  order[] memory */\n      0x60\n        /* \"contracts/OrderBook.sol\":5349:5356  askBook */\n      0x03\n        /* \"contracts/OrderBook.sol\":5342:5356  return askBook */\n      dup1\n      sload\n      dup1\n      0x20\n      mul\n      0x20\n      add\n      mload(0x40)\n      swap1\n      dup2\n      add\n      0x40\n      mstore\n      dup1\n      swap3\n      swap2\n      swap1\n      dup2\n      dup2\n      mstore\n      0x20\n      add\n      0x00\n      swap1\n    tag_239:\n      dup3\n      dup3\n      lt\n      iszero\n      tag_240\n      jumpi\n      dup4\n      dup3\n      swap1\n      0x00\n      mstore\n      keccak256(0x00, 0x20)\n      swap1\n      0x04\n      mul\n      add\n      mload(0x40)\n      dup1\n      0x80\n      add\n      0x40\n      mstore\n      swap1\n      dup2\n      0x00\n      dup3\n      add\n      0x00\n      swap1\n      sload\n      swap1\n      0x0100\n      exp\n      swap1\n      div\n      0xffffffffffffffffffffffffffffffffffffffff\n      and\n      0xffffffffffffffffffffffffffffffffffffffff\n      and\n      0xffffffffffffffffffffffffffffffffffffffff\n      and\n      dup2\n      mstore\n      0x20\n      add\n      0x01\n      dup3\n      add\n      sload\n      dup2\n      mstore\n      0x20\n      add\n      0x02\n      dup3\n      add\n      sload\n      dup2\n      mstore\n      0x20\n      add\n      0x03\n      dup3\n      add\n      0x00\n      swap1\n      sload\n      swap1\n      0x0100\n      exp\n      swap1\n      div\n      0xff\n      and\n      0x01\n      dup2\n      gt\n      iszero\n      tag_242\n      jumpi\n      tag_243\n      tag_111\n      jump\t// in\n    tag_243:\n    tag_242:\n      0x01\n      dup2\n      gt\n      iszero\n      tag_244\n      jumpi\n      tag_245\n      tag_111\n      jump\t// in\n    tag_245:\n    tag_244:\n      dup2\n      mstore\n      pop\n      pop\n      dup2\n      mstore\n      0x20\n      add\n      swap1\n      0x01\n      add\n      swap1\n      jump(tag_239)\n    tag_240:\n      pop\n      pop\n      pop\n      pop\n      swap1\n      pop\n        /* \"contracts/OrderBook.sol\":5272:5363  function fetchAllAsk() public view returns (order[] memory) {... */\n      swap1\n      jump\t// out\n        /* \"contracts/OrderBook.sol\":5369:5652  function fetchYourBidIds() public returns (uint[] memory) {... */\n    tag_82:\n        /* \"contracts/OrderBook.sol\":5412:5425  uint[] memory */\n      0x60\n        /* \"contracts/OrderBook.sol\":5437:5450  deleteArray() */\n      tag_247\n        /* \"contracts/OrderBook.sol\":5437:5448  deleteArray */\n      tag_92\n        /* \"contracts/OrderBook.sol\":5437:5450  deleteArray() */\n      jump\t// in\n    tag_247:\n        /* \"contracts/OrderBook.sol\":5465:5471  uint i */\n      0x00\n        /* \"contracts/OrderBook.sol\":5460:5622  for (uint i = 0; i < bidBook.length; i++) {... */\n    tag_248:\n        /* \"contracts/OrderBook.sol\":5481:5488  bidBook */\n      0x02\n        /* \"contracts/OrderBook.sol\":5481:5495  bidBook.length */\n      dup1\n      sload\n      swap1\n      pop\n        /* \"contracts/OrderBook.sol\":5477:5478  i */\n      dup2\n        /* \"contracts/OrderBook.sol\":5477:5495  i < bidBook.length */\n      lt\n        /* \"contracts/OrderBook.sol\":5460:5622  for (uint i = 0; i < bidBook.length; i++) {... */\n      iszero\n      tag_249\n      jumpi\n        /* \"contracts/OrderBook.sol\":5551:5561  msg.sender */\n      caller\n        /* \"contracts/OrderBook.sol\":5520:5562  bidBook[i].customer == payable(msg.sender) */\n      0xffffffffffffffffffffffffffffffffffffffff\n      and\n        /* \"contracts/OrderBook.sol\":5520:5527  bidBook */\n      0x02\n        /* \"contracts/OrderBook.sol\":5528:5529  i */\n      dup3\n        /* \"contracts/OrderBook.sol\":5520:5530  bidBook[i] */\n      dup2\n      sload\n      dup2\n      lt\n      tag_251\n      jumpi\n      tag_252\n      tag_98\n      jump\t// in\n    tag_252:\n    tag_251:\n      swap1\n      0x00\n      mstore\n      keccak256(0x00, 0x20)\n      swap1\n      0x04\n      mul\n      add\n        /* \"contracts/OrderBook.sol\":5520:5539  bidBook[i].customer */\n      0x00\n      add\n      0x00\n      swap1\n      sload\n      swap1\n      0x0100\n      exp\n      swap1\n      div\n      0xffffffffffffffffffffffffffffffffffffffff\n      and\n        /* \"contracts/OrderBook.sol\":5520:5562  bidBook[i].customer == payable(msg.sender) */\n      0xffffffffffffffffffffffffffffffffffffffff\n      and\n      sub\n        /* \"contracts/OrderBook.sol\":5516:5612  if (bidBook[i].customer == payable(msg.sender)) {... */\n      tag_254\n      jumpi\n        /* \"contracts/OrderBook.sol\":5582:5589  request */\n      0x04\n        /* \"contracts/OrderBook.sol\":5595:5596  i */\n      dup2\n        /* \"contracts/OrderBook.sol\":5582:5597  request.push(i) */\n      swap1\n      dup1\n      0x01\n      dup2\n      sload\n      add\n      dup1\n      dup3\n      sstore\n      dup1\n      swap2\n      pop\n      pop\n      0x01\n      swap1\n      sub\n      swap1\n      0x00\n      mstore\n      keccak256(0x00, 0x20)\n      add\n      0x00\n      swap1\n      swap2\n      swap1\n      swap2\n      swap1\n      swap2\n      pop\n      sstore\n        /* \"contracts/OrderBook.sol\":5516:5612  if (bidBook[i].customer == payable(msg.sender)) {... */\n    tag_254:\n        /* \"contracts/OrderBook.sol\":5497:5500  i++ */\n      dup1\n      dup1\n      tag_256\n      swap1\n      tag_103\n      jump\t// in\n    tag_256:\n      swap2\n      pop\n      pop\n        /* \"contracts/OrderBook.sol\":5460:5622  for (uint i = 0; i < bidBook.length; i++) {... */\n      jump(tag_248)\n    tag_249:\n      pop\n        /* \"contracts/OrderBook.sol\":5638:5645  request */\n      0x04\n        /* \"contracts/OrderBook.sol\":5631:5645  return request */\n      dup1\n      sload\n      dup1\n      0x20\n      mul\n      0x20\n      add\n      mload(0x40)\n      swap1\n      dup2\n      add\n      0x40\n      mstore\n      dup1\n      swap3\n      swap2\n      swap1\n      dup2\n      dup2\n      mstore\n      0x20\n      add\n      dup3\n      dup1\n      sload\n      dup1\n      iszero\n      tag_257\n      jumpi\n      0x20\n      mul\n      dup3\n      add\n      swap2\n      swap1\n      0x00\n      mstore\n      keccak256(0x00, 0x20)\n      swap1\n    tag_258:\n      dup2\n      sload\n      dup2\n      mstore\n      0x20\n      add\n      swap1\n      0x01\n      add\n      swap1\n      dup1\n      dup4\n      gt\n      tag_258\n      jumpi\n    tag_257:\n      pop\n      pop\n      pop\n      pop\n      pop\n      swap1\n      pop\n        /* \"contracts/OrderBook.sol\":5369:5652  function fetchYourBidIds() public returns (uint[] memory) {... */\n      swap1\n      jump\t// out\n        /* \"contracts/OrderBook.sol\":6294:6395  function getAskValue (uint id) public view returns(uint256) {... */\n    tag_87:\n        /* \"contracts/OrderBook.sol\":6345:6352  uint256 */\n      0x00\n        /* \"contracts/OrderBook.sol\":6371:6378  askBook */\n      0x03\n        /* \"contracts/OrderBook.sol\":6379:6381  id */\n      dup3\n        /* \"contracts/OrderBook.sol\":6371:6382  askBook[id] */\n      dup2\n      sload\n      dup2\n      lt\n      tag_260\n      jumpi\n      tag_261\n      tag_98\n      jump\t// in\n    tag_261:\n    tag_260:\n      swap1\n      0x00\n      mstore\n      keccak256(0x00, 0x20)\n      swap1\n      0x04\n      mul\n      add\n        /* \"contracts/OrderBook.sol\":6371:6388  askBook[id].value */\n      0x01\n      add\n      sload\n        /* \"contracts/OrderBook.sol\":6364:6388  return askBook[id].value */\n      swap1\n      pop\n        /* \"contracts/OrderBook.sol\":6294:6395  function getAskValue (uint id) public view returns(uint256) {... */\n      swap2\n      swap1\n      pop\n      jump\t// out\n        /* \"contracts/OrderBook.sol\":2069:2202  function deleteArray() internal {... */\n    tag_92:\n        /* \"contracts/OrderBook.sol\":2116:2122  uint i */\n      0x00\n        /* \"contracts/OrderBook.sol\":2111:2196  for (uint i = 0; i < request.length; i ++) {... */\n    tag_264:\n        /* \"contracts/OrderBook.sol\":2132:2139  request */\n      0x04\n        /* \"contracts/OrderBook.sol\":2132:2146  request.length */\n      dup1\n      sload\n      swap1\n      pop\n        /* \"contracts/OrderBook.sol\":2128:2129  i */\n      dup2\n        /* \"contracts/OrderBook.sol\":2128:2146  i < request.length */\n      lt\n        /* \"contracts/OrderBook.sol\":2111:2196  for (uint i = 0; i < request.length; i ++) {... */\n      iszero\n      tag_265\n      jumpi\n        /* \"contracts/OrderBook.sol\":2175:2182  request */\n      0x04\n        /* \"contracts/OrderBook.sol\":2183:2184  i */\n      dup2\n        /* \"contracts/OrderBook.sol\":2175:2185  request[i] */\n      dup2\n      sload\n      dup2\n      lt\n      tag_267\n      jumpi\n      tag_268\n      tag_98\n      jump\t// in\n    tag_268:\n    tag_267:\n      swap1\n      0x00\n      mstore\n      keccak256(0x00, 0x20)\n      add\n        /* \"contracts/OrderBook.sol\":2168:2185  delete request[i] */\n      0x00\n      swap1\n      sstore\n        /* \"contracts/OrderBook.sol\":2148:2152  i ++ */\n      dup1\n      dup1\n      tag_270\n      swap1\n      tag_103\n      jump\t// in\n    tag_270:\n      swap2\n      pop\n      pop\n        /* \"contracts/OrderBook.sol\":2111:2196  for (uint i = 0; i < request.length; i ++) {... */\n      jump(tag_264)\n    tag_265:\n      pop\n        /* \"contracts/OrderBook.sol\":2069:2202  function deleteArray() internal {... */\n      jump\t// out\n        /* \"contracts/OrderBook.sol\":1944:2063  function sortAsk() internal {... */\n    tag_138:\n        /* \"contracts/OrderBook.sol\":1981:2041  ascendingQuickSort(bidBook, int(0), int(bidBook.length - 1)) */\n      tag_272\n        /* \"contracts/OrderBook.sol\":2000:2007  bidBook */\n      0x02\n        /* \"contracts/OrderBook.sol\":1981:2041  ascendingQuickSort(bidBook, int(0), int(bidBook.length - 1)) */\n      dup1\n      sload\n      dup1\n      0x20\n      mul\n      0x20\n      add\n      mload(0x40)\n      swap1\n      dup2\n      add\n      0x40\n      mstore\n      dup1\n      swap3\n      swap2\n      swap1\n      dup2\n      dup2\n      mstore\n      0x20\n      add\n      0x00\n      swap1\n    tag_273:\n      dup3\n      dup3\n      lt\n      iszero\n      tag_274\n      jumpi\n      dup4\n      dup3\n      swap1\n      0x00\n      mstore\n      keccak256(0x00, 0x20)\n      swap1\n      0x04\n      mul\n      add\n      mload(0x40)\n      dup1\n      0x80\n      add\n      0x40\n      mstore\n      swap1\n      dup2\n      0x00\n      dup3\n      add\n      0x00\n      swap1\n      sload\n      swap1\n      0x0100\n      exp\n      swap1\n      div\n      0xffffffffffffffffffffffffffffffffffffffff\n      and\n      0xffffffffffffffffffffffffffffffffffffffff\n      and\n      0xffffffffffffffffffffffffffffffffffffffff\n      and\n      dup2\n      mstore\n      0x20\n      add\n      0x01\n      dup3\n      add\n      sload\n      dup2\n      mstore\n      0x20\n      add\n      0x02\n      dup3\n      add\n      sload\n      dup2\n      mstore\n      0x20\n      add\n      0x03\n      dup3\n      add\n      0x00\n      swap1\n      sload\n      swap1\n      0x0100\n      exp\n      swap1\n      div\n      0xff\n      and\n      0x01\n      dup2\n      gt\n      iszero\n      tag_276\n      jumpi\n      tag_277\n      tag_111\n      jump\t// in\n    tag_277:\n    tag_276:\n      0x01\n      dup2\n      gt\n      iszero\n      tag_278\n      jumpi\n      tag_279\n      tag_111\n      jump\t// in\n    tag_279:\n    tag_278:\n      dup2\n      mstore\n      pop\n      pop\n      dup2\n      mstore\n      0x20\n      add\n      swap1\n      0x01\n      add\n      swap1\n      jump(tag_273)\n    tag_274:\n      pop\n      pop\n      pop\n      pop\n        /* \"contracts/OrderBook.sol\":2013:2014  0 */\n      0x00\n        /* \"contracts/OrderBook.sol\":2038:2039  1 */\n      0x01\n        /* \"contracts/OrderBook.sol\":2021:2028  bidBook */\n      0x02\n        /* \"contracts/OrderBook.sol\":2021:2035  bidBook.length */\n      dup1\n      sload\n      swap1\n      pop\n        /* \"contracts/OrderBook.sol\":2021:2039  bidBook.length - 1 */\n      tag_280\n      swap2\n      swap1\n      tag_172\n      jump\t// in\n    tag_280:\n        /* \"contracts/OrderBook.sol\":1981:1999  ascendingQuickSort */\n      tag_281\n        /* \"contracts/OrderBook.sol\":1981:2041  ascendingQuickSort(bidBook, int(0), int(bidBook.length - 1)) */\n      jump\t// in\n    tag_272:\n        /* \"contracts/OrderBook.sol\":1944:2063  function sortAsk() internal {... */\n      jump\t// out\n        /* \"contracts/OrderBook.sol\":1818:1938  function sortBid() internal {... */\n    tag_215:\n        /* \"contracts/OrderBook.sol\":1855:1916  descendingQuickSort(bidBook, int(0), int(bidBook.length - 1)) */\n      tag_283\n        /* \"contracts/OrderBook.sol\":1875:1882  bidBook */\n      0x02\n        /* \"contracts/OrderBook.sol\":1855:1916  descendingQuickSort(bidBook, int(0), int(bidBook.length - 1)) */\n      dup1\n      sload\n      dup1\n      0x20\n      mul\n      0x20\n      add\n      mload(0x40)\n      swap1\n      dup2\n      add\n      0x40\n      mstore\n      dup1\n      swap3\n      swap2\n      swap1\n      dup2\n      dup2\n      mstore\n      0x20\n      add\n      0x00\n      swap1\n    tag_284:\n      dup3\n      dup3\n      lt\n      iszero\n      tag_285\n      jumpi\n      dup4\n      dup3\n      swap1\n      0x00\n      mstore\n      keccak256(0x00, 0x20)\n      swap1\n      0x04\n      mul\n      add\n      mload(0x40)\n      dup1\n      0x80\n      add\n      0x40\n      mstore\n      swap1\n      dup2\n      0x00\n      dup3\n      add\n      0x00\n      swap1\n      sload\n      swap1\n      0x0100\n      exp\n      swap1\n      div\n      0xffffffffffffffffffffffffffffffffffffffff\n      and\n      0xffffffffffffffffffffffffffffffffffffffff\n      and\n      0xffffffffffffffffffffffffffffffffffffffff\n      and\n      dup2\n      mstore\n      0x20\n      add\n      0x01\n      dup3\n      add\n      sload\n      dup2\n      mstore\n      0x20\n      add\n      0x02\n      dup3\n      add\n      sload\n      dup2\n      mstore\n      0x20\n      add\n      0x03\n      dup3\n      add\n      0x00\n      swap1\n      sload\n      swap1\n      0x0100\n      exp\n      swap1\n      div\n      0xff\n      and\n      0x01\n      dup2\n      gt\n      iszero\n      tag_287\n      jumpi\n      tag_288\n      tag_111\n      jump\t// in\n    tag_288:\n    tag_287:\n      0x01\n      dup2\n      gt\n      iszero\n      tag_289\n      jumpi\n      tag_290\n      tag_111\n      jump\t// in\n    tag_290:\n    tag_289:\n      dup2\n      mstore\n      pop\n      pop\n      dup2\n      mstore\n      0x20\n      add\n      swap1\n      0x01\n      add\n      swap1\n      jump(tag_284)\n    tag_285:\n      pop\n      pop\n      pop\n      pop\n        /* \"contracts/OrderBook.sol\":1888:1889  0 */\n      0x00\n        /* \"contracts/OrderBook.sol\":1913:1914  1 */\n      0x01\n        /* \"contracts/OrderBook.sol\":1896:1903  bidBook */\n      0x02\n        /* \"contracts/OrderBook.sol\":1896:1910  bidBook.length */\n      dup1\n      sload\n      swap1\n      pop\n        /* \"contracts/OrderBook.sol\":1896:1914  bidBook.length - 1 */\n      tag_291\n      swap2\n      swap1\n      tag_172\n      jump\t// in\n    tag_291:\n        /* \"contracts/OrderBook.sol\":1855:1874  descendingQuickSort */\n      tag_292\n        /* \"contracts/OrderBook.sol\":1855:1916  descendingQuickSort(bidBook, int(0), int(bidBook.length - 1)) */\n      jump\t// in\n    tag_283:\n        /* \"contracts/OrderBook.sol\":1818:1938  function sortBid() internal {... */\n      jump\t// out\n        /* \"contracts/OrderBook.sol\":2887:3557  function ascendingQuickSort(order[] memory arr, int left, int right) internal{... */\n    tag_281:\n        /* \"contracts/OrderBook.sol\":2974:2979  int i */\n      0x00\n        /* \"contracts/OrderBook.sol\":2982:2986  left */\n      dup3\n        /* \"contracts/OrderBook.sol\":2974:2986  int i = left */\n      swap1\n      pop\n        /* \"contracts/OrderBook.sol\":2996:3001  int j */\n      0x00\n        /* \"contracts/OrderBook.sol\":3004:3009  right */\n      dup3\n        /* \"contracts/OrderBook.sol\":2996:3009  int j = right */\n      swap1\n      pop\n        /* \"contracts/OrderBook.sol\":3025:3026  j */\n      dup1\n        /* \"contracts/OrderBook.sol\":3022:3023  i */\n      dup3\n        /* \"contracts/OrderBook.sol\":3022:3026  i==j */\n      sub\n        /* \"contracts/OrderBook.sol\":3019:3035  if(i==j) return; */\n      tag_294\n      jumpi\n        /* \"contracts/OrderBook.sol\":3028:3035  return; */\n      pop\n      pop\n      jump(tag_293)\n        /* \"contracts/OrderBook.sol\":3019:3035  if(i==j) return; */\n    tag_294:\n        /* \"contracts/OrderBook.sol\":3044:3057  uint256 pivot */\n      0x00\n        /* \"contracts/OrderBook.sol\":3060:3063  arr */\n      dup6\n        /* \"contracts/OrderBook.sol\":3093:3094  2 */\n      0x02\n        /* \"contracts/OrderBook.sol\":3085:3089  left */\n      dup7\n        /* \"contracts/OrderBook.sol\":3077:3082  right */\n      dup7\n        /* \"contracts/OrderBook.sol\":3077:3089  right - left */\n      tag_295\n      swap2\n      swap1\n      tag_296\n      jump\t// in\n    tag_295:\n        /* \"contracts/OrderBook.sol\":3076:3094  (right - left) / 2 */\n      tag_297\n      swap2\n      swap1\n      tag_298\n      jump\t// in\n    tag_297:\n        /* \"contracts/OrderBook.sol\":3069:3073  left */\n      dup7\n        /* \"contracts/OrderBook.sol\":3069:3094  left + (right - left) / 2 */\n      tag_299\n      swap2\n      swap1\n      tag_300\n      jump\t// in\n    tag_299:\n        /* \"contracts/OrderBook.sol\":3060:3096  arr[uint(left + (right - left) / 2)] */\n      dup2\n      mload\n      dup2\n      lt\n      tag_301\n      jumpi\n      tag_302\n      tag_98\n      jump\t// in\n    tag_302:\n    tag_301:\n      0x20\n      mul\n      0x20\n      add\n      add\n      mload\n        /* \"contracts/OrderBook.sol\":3060:3106  arr[uint(left + (right - left) / 2)].timestamp */\n      0x40\n      add\n      mload\n        /* \"contracts/OrderBook.sol\":3044:3106  uint256 pivot = arr[uint(left + (right - left) / 2)].timestamp */\n      swap1\n      pop\n        /* \"contracts/OrderBook.sol\":3116:3413  while (i <= j) {... */\n    tag_303:\n        /* \"contracts/OrderBook.sol\":3128:3129  j */\n      dup2\n        /* \"contracts/OrderBook.sol\":3123:3124  i */\n      dup4\n        /* \"contracts/OrderBook.sol\":3123:3129  i <= j */\n      sgt\n        /* \"contracts/OrderBook.sol\":3116:3413  while (i <= j) {... */\n      tag_304\n      jumpi\n        /* \"contracts/OrderBook.sol\":3145:3187  while (arr[uint(i)].timestamp > pivot) i++ */\n    tag_305:\n        /* \"contracts/OrderBook.sol\":3177:3182  pivot */\n      dup1\n        /* \"contracts/OrderBook.sol\":3152:3155  arr */\n      dup7\n        /* \"contracts/OrderBook.sol\":3161:3162  i */\n      dup5\n        /* \"contracts/OrderBook.sol\":3152:3164  arr[uint(i)] */\n      dup2\n      mload\n      dup2\n      lt\n      tag_307\n      jumpi\n      tag_308\n      tag_98\n      jump\t// in\n    tag_308:\n    tag_307:\n      0x20\n      mul\n      0x20\n      add\n      add\n      mload\n        /* \"contracts/OrderBook.sol\":3152:3174  arr[uint(i)].timestamp */\n      0x40\n      add\n      mload\n        /* \"contracts/OrderBook.sol\":3152:3182  arr[uint(i)].timestamp > pivot */\n      gt\n        /* \"contracts/OrderBook.sol\":3145:3187  while (arr[uint(i)].timestamp > pivot) i++ */\n      iszero\n      tag_306\n      jumpi\n        /* \"contracts/OrderBook.sol\":3184:3187  i++ */\n      dup3\n      dup1\n      tag_309\n      swap1\n      tag_310\n      jump\t// in\n    tag_309:\n      swap4\n      pop\n      pop\n        /* \"contracts/OrderBook.sol\":3145:3187  while (arr[uint(i)].timestamp > pivot) i++ */\n      jump(tag_305)\n    tag_306:\n        /* \"contracts/OrderBook.sol\":3201:3243  while (pivot > arr[uint(j)].timestamp) j-- */\n    tag_311:\n        /* \"contracts/OrderBook.sol\":3216:3219  arr */\n      dup6\n        /* \"contracts/OrderBook.sol\":3225:3226  j */\n      dup3\n        /* \"contracts/OrderBook.sol\":3216:3228  arr[uint(j)] */\n      dup2\n      mload\n      dup2\n      lt\n      tag_313\n      jumpi\n      tag_314\n      tag_98\n      jump\t// in\n    tag_314:\n    tag_313:\n      0x20\n      mul\n      0x20\n      add\n      add\n      mload\n        /* \"contracts/OrderBook.sol\":3216:3238  arr[uint(j)].timestamp */\n      0x40\n      add\n      mload\n        /* \"contracts/OrderBook.sol\":3208:3213  pivot */\n      dup2\n        /* \"contracts/OrderBook.sol\":3208:3238  pivot > arr[uint(j)].timestamp */\n      gt\n        /* \"contracts/OrderBook.sol\":3201:3243  while (pivot > arr[uint(j)].timestamp) j-- */\n      iszero\n      tag_312\n      jumpi\n        /* \"contracts/OrderBook.sol\":3240:3243  j-- */\n      dup2\n      dup1\n      tag_315\n      swap1\n      tag_316\n      jump\t// in\n    tag_315:\n      swap3\n      pop\n      pop\n        /* \"contracts/OrderBook.sol\":3201:3243  while (pivot > arr[uint(j)].timestamp) j-- */\n      jump(tag_311)\n    tag_312:\n        /* \"contracts/OrderBook.sol\":3266:3267  j */\n      dup2\n        /* \"contracts/OrderBook.sol\":3261:3262  i */\n      dup4\n        /* \"contracts/OrderBook.sol\":3261:3267  i <= j */\n      sgt\n        /* \"contracts/OrderBook.sol\":3257:3403  if (i <= j) {... */\n      tag_317\n      jumpi\n        /* \"contracts/OrderBook.sol\":3319:3322  arr */\n      dup6\n        /* \"contracts/OrderBook.sol\":3328:3329  j */\n      dup3\n        /* \"contracts/OrderBook.sol\":3319:3331  arr[uint(j)] */\n      dup2\n      mload\n      dup2\n      lt\n      tag_318\n      jumpi\n      tag_319\n      tag_98\n      jump\t// in\n    tag_319:\n    tag_318:\n      0x20\n      mul\n      0x20\n      add\n      add\n      mload\n        /* \"contracts/OrderBook.sol\":3333:3336  arr */\n      dup7\n        /* \"contracts/OrderBook.sol\":3342:3343  i */\n      dup5\n        /* \"contracts/OrderBook.sol\":3333:3345  arr[uint(i)] */\n      dup2\n      mload\n      dup2\n      lt\n      tag_320\n      jumpi\n      tag_321\n      tag_98\n      jump\t// in\n    tag_321:\n    tag_320:\n      0x20\n      mul\n      0x20\n      add\n      add\n      mload\n        /* \"contracts/OrderBook.sol\":3288:3291  arr */\n      dup8\n        /* \"contracts/OrderBook.sol\":3297:3298  i */\n      dup6\n        /* \"contracts/OrderBook.sol\":3288:3300  arr[uint(i)] */\n      dup2\n      mload\n      dup2\n      lt\n      tag_322\n      jumpi\n      tag_323\n      tag_98\n      jump\t// in\n    tag_323:\n    tag_322:\n      0x20\n      mul\n      0x20\n      add\n      add\n        /* \"contracts/OrderBook.sol\":3302:3305  arr */\n      dup9\n        /* \"contracts/OrderBook.sol\":3311:3312  j */\n      dup6\n        /* \"contracts/OrderBook.sol\":3302:3314  arr[uint(j)] */\n      dup2\n      mload\n      dup2\n      lt\n      tag_324\n      jumpi\n      tag_325\n      tag_98\n      jump\t// in\n    tag_325:\n    tag_324:\n      0x20\n      mul\n      0x20\n      add\n      add\n        /* \"contracts/OrderBook.sol\":3287:3346  (arr[uint(i)], arr[uint(j)]) = (arr[uint(j)], arr[uint(i)]) */\n      dup3\n      swap1\n      mstore\n      dup3\n      swap1\n      mstore\n      pop\n      pop\n        /* \"contracts/OrderBook.sol\":3364:3367  i++ */\n      dup3\n      dup1\n      tag_326\n      swap1\n      tag_310\n      jump\t// in\n    tag_326:\n      swap4\n      pop\n      pop\n        /* \"contracts/OrderBook.sol\":3385:3388  j-- */\n      dup2\n      dup1\n      tag_327\n      swap1\n      tag_316\n      jump\t// in\n    tag_327:\n      swap3\n      pop\n      pop\n        /* \"contracts/OrderBook.sol\":3257:3403  if (i <= j) {... */\n    tag_317:\n        /* \"contracts/OrderBook.sol\":3116:3413  while (i <= j) {... */\n      jump(tag_303)\n    tag_304:\n        /* \"contracts/OrderBook.sol\":3433:3434  j */\n      dup2\n        /* \"contracts/OrderBook.sol\":3426:3430  left */\n      dup6\n        /* \"contracts/OrderBook.sol\":3426:3434  left < j */\n      slt\n        /* \"contracts/OrderBook.sol\":3422:3480  if (left < j)... */\n      iszero\n      tag_328\n      jumpi\n        /* \"contracts/OrderBook.sol\":3448:3480  ascendingQuickSort(arr, left, j) */\n      tag_329\n        /* \"contracts/OrderBook.sol\":3467:3470  arr */\n      dup7\n        /* \"contracts/OrderBook.sol\":3472:3476  left */\n      dup7\n        /* \"contracts/OrderBook.sol\":3478:3479  j */\n      dup5\n        /* \"contracts/OrderBook.sol\":3448:3466  ascendingQuickSort */\n      tag_281\n        /* \"contracts/OrderBook.sol\":3448:3480  ascendingQuickSort(arr, left, j) */\n      jump\t// in\n    tag_329:\n        /* \"contracts/OrderBook.sol\":3422:3480  if (left < j)... */\n    tag_328:\n        /* \"contracts/OrderBook.sol\":3498:3503  right */\n      dup4\n        /* \"contracts/OrderBook.sol\":3494:3495  i */\n      dup4\n        /* \"contracts/OrderBook.sol\":3494:3503  i < right */\n      slt\n        /* \"contracts/OrderBook.sol\":3490:3550  if (i < right)... */\n      iszero\n      tag_330\n      jumpi\n        /* \"contracts/OrderBook.sol\":3517:3550  ascendingQuickSort(arr, i, right) */\n      tag_331\n        /* \"contracts/OrderBook.sol\":3536:3539  arr */\n      dup7\n        /* \"contracts/OrderBook.sol\":3541:3542  i */\n      dup5\n        /* \"contracts/OrderBook.sol\":3544:3549  right */\n      dup7\n        /* \"contracts/OrderBook.sol\":3517:3535  ascendingQuickSort */\n      tag_281\n        /* \"contracts/OrderBook.sol\":3517:3550  ascendingQuickSort(arr, i, right) */\n      jump\t// in\n    tag_331:\n        /* \"contracts/OrderBook.sol\":3490:3550  if (i < right)... */\n    tag_330:\n        /* \"contracts/OrderBook.sol\":2964:3557  {... */\n      pop\n      pop\n      pop\n        /* \"contracts/OrderBook.sol\":2887:3557  function ascendingQuickSort(order[] memory arr, int left, int right) internal{... */\n    tag_293:\n      pop\n      pop\n      pop\n      jump\t// out\n        /* \"contracts/OrderBook.sol\":2208:2881  function descendingQuickSort(order[] memory arr, int left, int right) internal{... */\n    tag_292:\n        /* \"contracts/OrderBook.sol\":2296:2301  int i */\n      0x00\n        /* \"contracts/OrderBook.sol\":2304:2308  left */\n      dup3\n        /* \"contracts/OrderBook.sol\":2296:2308  int i = left */\n      swap1\n      pop\n        /* \"contracts/OrderBook.sol\":2318:2323  int j */\n      0x00\n        /* \"contracts/OrderBook.sol\":2326:2331  right */\n      dup3\n        /* \"contracts/OrderBook.sol\":2318:2331  int j = right */\n      swap1\n      pop\n        /* \"contracts/OrderBook.sol\":2347:2348  j */\n      dup1\n        /* \"contracts/OrderBook.sol\":2344:2345  i */\n      dup3\n        /* \"contracts/OrderBook.sol\":2344:2348  i==j */\n      sub\n        /* \"contracts/OrderBook.sol\":2341:2357  if(i==j) return; */\n      tag_333\n      jumpi\n        /* \"contracts/OrderBook.sol\":2350:2357  return; */\n      pop\n      pop\n      jump(tag_332)\n        /* \"contracts/OrderBook.sol\":2341:2357  if(i==j) return; */\n    tag_333:\n        /* \"contracts/OrderBook.sol\":2366:2379  uint256 pivot */\n      0x00\n        /* \"contracts/OrderBook.sol\":2382:2385  arr */\n      dup6\n        /* \"contracts/OrderBook.sol\":2415:2416  2 */\n      0x02\n        /* \"contracts/OrderBook.sol\":2407:2411  left */\n      dup7\n        /* \"contracts/OrderBook.sol\":2399:2404  right */\n      dup7\n        /* \"contracts/OrderBook.sol\":2399:2411  right - left */\n      tag_334\n      swap2\n      swap1\n      tag_296\n      jump\t// in\n    tag_334:\n        /* \"contracts/OrderBook.sol\":2398:2416  (right - left) / 2 */\n      tag_335\n      swap2\n      swap1\n      tag_298\n      jump\t// in\n    tag_335:\n        /* \"contracts/OrderBook.sol\":2391:2395  left */\n      dup7\n        /* \"contracts/OrderBook.sol\":2391:2416  left + (right - left) / 2 */\n      tag_336\n      swap2\n      swap1\n      tag_300\n      jump\t// in\n    tag_336:\n        /* \"contracts/OrderBook.sol\":2382:2418  arr[uint(left + (right - left) / 2)] */\n      dup2\n      mload\n      dup2\n      lt\n      tag_337\n      jumpi\n      tag_338\n      tag_98\n      jump\t// in\n    tag_338:\n    tag_337:\n      0x20\n      mul\n      0x20\n      add\n      add\n      mload\n        /* \"contracts/OrderBook.sol\":2382:2428  arr[uint(left + (right - left) / 2)].timestamp */\n      0x40\n      add\n      mload\n        /* \"contracts/OrderBook.sol\":2366:2428  uint256 pivot = arr[uint(left + (right - left) / 2)].timestamp */\n      swap1\n      pop\n        /* \"contracts/OrderBook.sol\":2438:2735  while (i <= j) {... */\n    tag_339:\n        /* \"contracts/OrderBook.sol\":2450:2451  j */\n      dup2\n        /* \"contracts/OrderBook.sol\":2445:2446  i */\n      dup4\n        /* \"contracts/OrderBook.sol\":2445:2451  i <= j */\n      sgt\n        /* \"contracts/OrderBook.sol\":2438:2735  while (i <= j) {... */\n      tag_340\n      jumpi\n        /* \"contracts/OrderBook.sol\":2467:2509  while (arr[uint(i)].timestamp < pivot) i++ */\n    tag_341:\n        /* \"contracts/OrderBook.sol\":2499:2504  pivot */\n      dup1\n        /* \"contracts/OrderBook.sol\":2474:2477  arr */\n      dup7\n        /* \"contracts/OrderBook.sol\":2483:2484  i */\n      dup5\n        /* \"contracts/OrderBook.sol\":2474:2486  arr[uint(i)] */\n      dup2\n      mload\n      dup2\n      lt\n      tag_343\n      jumpi\n      tag_344\n      tag_98\n      jump\t// in\n    tag_344:\n    tag_343:\n      0x20\n      mul\n      0x20\n      add\n      add\n      mload\n        /* \"contracts/OrderBook.sol\":2474:2496  arr[uint(i)].timestamp */\n      0x40\n      add\n      mload\n        /* \"contracts/OrderBook.sol\":2474:2504  arr[uint(i)].timestamp < pivot */\n      lt\n        /* \"contracts/OrderBook.sol\":2467:2509  while (arr[uint(i)].timestamp < pivot) i++ */\n      iszero\n      tag_342\n      jumpi\n        /* \"contracts/OrderBook.sol\":2506:2509  i++ */\n      dup3\n      dup1\n      tag_345\n      swap1\n      tag_310\n      jump\t// in\n    tag_345:\n      swap4\n      pop\n      pop\n        /* \"contracts/OrderBook.sol\":2467:2509  while (arr[uint(i)].timestamp < pivot) i++ */\n      jump(tag_341)\n    tag_342:\n        /* \"contracts/OrderBook.sol\":2523:2565  while (pivot < arr[uint(j)].timestamp) j-- */\n    tag_346:\n        /* \"contracts/OrderBook.sol\":2538:2541  arr */\n      dup6\n        /* \"contracts/OrderBook.sol\":2547:2548  j */\n      dup3\n        /* \"contracts/OrderBook.sol\":2538:2550  arr[uint(j)] */\n      dup2\n      mload\n      dup2\n      lt\n      tag_348\n      jumpi\n      tag_349\n      tag_98\n      jump\t// in\n    tag_349:\n    tag_348:\n      0x20\n      mul\n      0x20\n      add\n      add\n      mload\n        /* \"contracts/OrderBook.sol\":2538:2560  arr[uint(j)].timestamp */\n      0x40\n      add\n      mload\n        /* \"contracts/OrderBook.sol\":2530:2535  pivot */\n      dup2\n        /* \"contracts/OrderBook.sol\":2530:2560  pivot < arr[uint(j)].timestamp */\n      lt\n        /* \"contracts/OrderBook.sol\":2523:2565  while (pivot < arr[uint(j)].timestamp) j-- */\n      iszero\n      tag_347\n      jumpi\n        /* \"contracts/OrderBook.sol\":2562:2565  j-- */\n      dup2\n      dup1\n      tag_350\n      swap1\n      tag_316\n      jump\t// in\n    tag_350:\n      swap3\n      pop\n      pop\n        /* \"contracts/OrderBook.sol\":2523:2565  while (pivot < arr[uint(j)].timestamp) j-- */\n      jump(tag_346)\n    tag_347:\n        /* \"contracts/OrderBook.sol\":2588:2589  j */\n      dup2\n        /* \"contracts/OrderBook.sol\":2583:2584  i */\n      dup4\n        /* \"contracts/OrderBook.sol\":2583:2589  i <= j */\n      sgt\n        /* \"contracts/OrderBook.sol\":2579:2725  if (i <= j) {... */\n      tag_351\n      jumpi\n        /* \"contracts/OrderBook.sol\":2641:2644  arr */\n      dup6\n        /* \"contracts/OrderBook.sol\":2650:2651  j */\n      dup3\n        /* \"contracts/OrderBook.sol\":2641:2653  arr[uint(j)] */\n      dup2\n      mload\n      dup2\n      lt\n      tag_352\n      jumpi\n      tag_353\n      tag_98\n      jump\t// in\n    tag_353:\n    tag_352:\n      0x20\n      mul\n      0x20\n      add\n      add\n      mload\n        /* \"contracts/OrderBook.sol\":2655:2658  arr */\n      dup7\n        /* \"contracts/OrderBook.sol\":2664:2665  i */\n      dup5\n        /* \"contracts/OrderBook.sol\":2655:2667  arr[uint(i)] */\n      dup2\n      mload\n      dup2\n      lt\n      tag_354\n      jumpi\n      tag_355\n      tag_98\n      jump\t// in\n    tag_355:\n    tag_354:\n      0x20\n      mul\n      0x20\n      add\n      add\n      mload\n        /* \"contracts/OrderBook.sol\":2610:2613  arr */\n      dup8\n        /* \"contracts/OrderBook.sol\":2619:2620  i */\n      dup6\n        /* \"contracts/OrderBook.sol\":2610:2622  arr[uint(i)] */\n      dup2\n      mload\n      dup2\n      lt\n      tag_356\n      jumpi\n      tag_357\n      tag_98\n      jump\t// in\n    tag_357:\n    tag_356:\n      0x20\n      mul\n      0x20\n      add\n      add\n        /* \"contracts/OrderBook.sol\":2624:2627  arr */\n      dup9\n        /* \"contracts/OrderBook.sol\":2633:2634  j */\n      dup6\n        /* \"contracts/OrderBook.sol\":2624:2636  arr[uint(j)] */\n      dup2\n      mload\n      dup2\n      lt\n      tag_358\n      jumpi\n      tag_359\n      tag_98\n      jump\t// in\n    tag_359:\n    tag_358:\n      0x20\n      mul\n      0x20\n      add\n      add\n        /* \"contracts/OrderBook.sol\":2609:2668  (arr[uint(i)], arr[uint(j)]) = (arr[uint(j)], arr[uint(i)]) */\n      dup3\n      swap1\n      mstore\n      dup3\n      swap1\n      mstore\n      pop\n      pop\n        /* \"contracts/OrderBook.sol\":2686:2689  i++ */\n      dup3\n      dup1\n      tag_360\n      swap1\n      tag_310\n      jump\t// in\n    tag_360:\n      swap4\n      pop\n      pop\n        /* \"contracts/OrderBook.sol\":2707:2710  j-- */\n      dup2\n      dup1\n      tag_361\n      swap1\n      tag_316\n      jump\t// in\n    tag_361:\n      swap3\n      pop\n      pop\n        /* \"contracts/OrderBook.sol\":2579:2725  if (i <= j) {... */\n    tag_351:\n        /* \"contracts/OrderBook.sol\":2438:2735  while (i <= j) {... */\n      jump(tag_339)\n    tag_340:\n        /* \"contracts/OrderBook.sol\":2755:2756  j */\n      dup2\n        /* \"contracts/OrderBook.sol\":2748:2752  left */\n      dup6\n        /* \"contracts/OrderBook.sol\":2748:2756  left < j */\n      slt\n        /* \"contracts/OrderBook.sol\":2744:2803  if (left < j)... */\n      iszero\n      tag_362\n      jumpi\n        /* \"contracts/OrderBook.sol\":2770:2803  descendingQuickSort(arr, left, j) */\n      tag_363\n        /* \"contracts/OrderBook.sol\":2790:2793  arr */\n      dup7\n        /* \"contracts/OrderBook.sol\":2795:2799  left */\n      dup7\n        /* \"contracts/OrderBook.sol\":2801:2802  j */\n      dup5\n        /* \"contracts/OrderBook.sol\":2770:2789  descendingQuickSort */\n      tag_292\n        /* \"contracts/OrderBook.sol\":2770:2803  descendingQuickSort(arr, left, j) */\n      jump\t// in\n    tag_363:\n        /* \"contracts/OrderBook.sol\":2744:2803  if (left < j)... */\n    tag_362:\n        /* \"contracts/OrderBook.sol\":2821:2826  right */\n      dup4\n        /* \"contracts/OrderBook.sol\":2817:2818  i */\n      dup4\n        /* \"contracts/OrderBook.sol\":2817:2826  i < right */\n      slt\n        /* \"contracts/OrderBook.sol\":2813:2874  if (i < right)... */\n      iszero\n      tag_364\n      jumpi\n        /* \"contracts/OrderBook.sol\":2840:2874  descendingQuickSort(arr, i, right) */\n      tag_365\n        /* \"contracts/OrderBook.sol\":2860:2863  arr */\n      dup7\n        /* \"contracts/OrderBook.sol\":2865:2866  i */\n      dup5\n        /* \"contracts/OrderBook.sol\":2868:2873  right */\n      dup7\n        /* \"contracts/OrderBook.sol\":2840:2859  descendingQuickSort */\n      tag_292\n        /* \"contracts/OrderBook.sol\":2840:2874  descendingQuickSort(arr, i, right) */\n      jump\t// in\n    tag_365:\n        /* \"contracts/OrderBook.sol\":2813:2874  if (i < right)... */\n    tag_364:\n        /* \"contracts/OrderBook.sol\":2286:2881  {... */\n      pop\n      pop\n      pop\n        /* \"contracts/OrderBook.sol\":2208:2881  function descendingQuickSort(order[] memory arr, int left, int right) internal{... */\n    tag_332:\n      pop\n      pop\n      pop\n      jump\t// out\n        /* \"#utility.yul\":88:205   */\n    tag_367:\n        /* \"#utility.yul\":197:198   */\n      0x00\n        /* \"#utility.yul\":194:195   */\n      dup1\n        /* \"#utility.yul\":187:199   */\n      revert\n        /* \"#utility.yul\":334:411   */\n    tag_369:\n        /* \"#utility.yul\":371:378   */\n      0x00\n        /* \"#utility.yul\":400:405   */\n      dup2\n        /* \"#utility.yul\":389:405   */\n      swap1\n      pop\n        /* \"#utility.yul\":334:411   */\n      swap2\n      swap1\n      pop\n      jump\t// out\n        /* \"#utility.yul\":417:539   */\n    tag_370:\n        /* \"#utility.yul\":490:514   */\n      tag_418\n        /* \"#utility.yul\":508:513   */\n      dup2\n        /* \"#utility.yul\":490:514   */\n      tag_369\n      jump\t// in\n    tag_418:\n        /* \"#utility.yul\":483:488   */\n      dup2\n        /* \"#utility.yul\":480:515   */\n      eq\n        /* \"#utility.yul\":470:533   */\n      tag_419\n      jumpi\n        /* \"#utility.yul\":529:530   */\n      0x00\n        /* \"#utility.yul\":526:527   */\n      dup1\n        /* \"#utility.yul\":519:531   */\n      revert\n        /* \"#utility.yul\":470:533   */\n    tag_419:\n        /* \"#utility.yul\":417:539   */\n      pop\n      jump\t// out\n        /* \"#utility.yul\":545:684   */\n    tag_371:\n        /* \"#utility.yul\":591:596   */\n      0x00\n        /* \"#utility.yul\":629:635   */\n      dup2\n        /* \"#utility.yul\":616:636   */\n      calldataload\n        /* \"#utility.yul\":607:636   */\n      swap1\n      pop\n        /* \"#utility.yul\":645:678   */\n      tag_421\n        /* \"#utility.yul\":672:677   */\n      dup2\n        /* \"#utility.yul\":645:678   */\n      tag_370\n      jump\t// in\n    tag_421:\n        /* \"#utility.yul\":545:684   */\n      swap3\n      swap2\n      pop\n      pop\n      jump\t// out\n        /* \"#utility.yul\":690:1019   */\n    tag_22:\n        /* \"#utility.yul\":749:755   */\n      0x00\n        /* \"#utility.yul\":798:800   */\n      0x20\n        /* \"#utility.yul\":786:795   */\n      dup3\n        /* \"#utility.yul\":777:784   */\n      dup5\n        /* \"#utility.yul\":773:796   */\n      sub\n        /* \"#utility.yul\":769:801   */\n      slt\n        /* \"#utility.yul\":766:885   */\n      iszero\n      tag_423\n      jumpi\n        /* \"#utility.yul\":804:883   */\n      tag_424\n      tag_367\n      jump\t// in\n    tag_424:\n        /* \"#utility.yul\":766:885   */\n    tag_423:\n        /* \"#utility.yul\":924:925   */\n      0x00\n        /* \"#utility.yul\":949:1002   */\n      tag_425\n        /* \"#utility.yul\":994:1001   */\n      dup5\n        /* \"#utility.yul\":985:991   */\n      dup3\n        /* \"#utility.yul\":974:983   */\n      dup6\n        /* \"#utility.yul\":970:992   */\n      add\n        /* \"#utility.yul\":949:1002   */\n      tag_371\n      jump\t// in\n    tag_425:\n        /* \"#utility.yul\":939:1002   */\n      swap2\n      pop\n        /* \"#utility.yul\":895:1012   */\n      pop\n        /* \"#utility.yul\":690:1019   */\n      swap3\n      swap2\n      pop\n      pop\n      jump\t// out\n        /* \"#utility.yul\":1025:1139   */\n    tag_372:\n        /* \"#utility.yul\":1092:1098   */\n      0x00\n        /* \"#utility.yul\":1126:1131   */\n      dup2\n        /* \"#utility.yul\":1120:1132   */\n      mload\n        /* \"#utility.yul\":1110:1132   */\n      swap1\n      pop\n        /* \"#utility.yul\":1025:1139   */\n      swap2\n      swap1\n      pop\n      jump\t// out\n        /* \"#utility.yul\":1145:1329   */\n    tag_373:\n        /* \"#utility.yul\":1244:1255   */\n      0x00\n        /* \"#utility.yul\":1278:1284   */\n      dup3\n        /* \"#utility.yul\":1273:1276   */\n      dup3\n        /* \"#utility.yul\":1266:1285   */\n      mstore\n        /* \"#utility.yul\":1318:1322   */\n      0x20\n        /* \"#utility.yul\":1313:1316   */\n      dup3\n        /* \"#utility.yul\":1309:1323   */\n      add\n        /* \"#utility.yul\":1294:1323   */\n      swap1\n      pop\n        /* \"#utility.yul\":1145:1329   */\n      swap3\n      swap2\n      pop\n      pop\n      jump\t// out\n        /* \"#utility.yul\":1335:1467   */\n    tag_374:\n        /* \"#utility.yul\":1402:1406   */\n      0x00\n        /* \"#utility.yul\":1425:1428   */\n      dup2\n        /* \"#utility.yul\":1417:1428   */\n      swap1\n      pop\n        /* \"#utility.yul\":1455:1459   */\n      0x20\n        /* \"#utility.yul\":1450:1453   */\n      dup3\n        /* \"#utility.yul\":1446:1460   */\n      add\n        /* \"#utility.yul\":1438:1460   */\n      swap1\n      pop\n        /* \"#utility.yul\":1335:1467   */\n      swap2\n      swap1\n      pop\n      jump\t// out\n        /* \"#utility.yul\":1473:1581   */\n    tag_375:\n        /* \"#utility.yul\":1550:1574   */\n      tag_430\n        /* \"#utility.yul\":1568:1573   */\n      dup2\n        /* \"#utility.yul\":1550:1574   */\n      tag_369\n      jump\t// in\n    tag_430:\n        /* \"#utility.yul\":1545:1548   */\n      dup3\n        /* \"#utility.yul\":1538:1575   */\n      mstore\n        /* \"#utility.yul\":1473:1581   */\n      pop\n      pop\n      jump\t// out\n        /* \"#utility.yul\":1587:1766   */\n    tag_376:\n        /* \"#utility.yul\":1656:1666   */\n      0x00\n        /* \"#utility.yul\":1677:1723   */\n      tag_432\n        /* \"#utility.yul\":1719:1722   */\n      dup4\n        /* \"#utility.yul\":1711:1717   */\n      dup4\n        /* \"#utility.yul\":1677:1723   */\n      tag_375\n      jump\t// in\n    tag_432:\n        /* \"#utility.yul\":1755:1759   */\n      0x20\n        /* \"#utility.yul\":1750:1753   */\n      dup4\n        /* \"#utility.yul\":1746:1760   */\n      add\n        /* \"#utility.yul\":1732:1760   */\n      swap1\n      pop\n        /* \"#utility.yul\":1587:1766   */\n      swap3\n      swap2\n      pop\n      pop\n      jump\t// out\n        /* \"#utility.yul\":1772:1885   */\n    tag_377:\n        /* \"#utility.yul\":1842:1846   */\n      0x00\n        /* \"#utility.yul\":1874:1878   */\n      0x20\n        /* \"#utility.yul\":1869:1872   */\n      dup3\n        /* \"#utility.yul\":1865:1879   */\n      add\n        /* \"#utility.yul\":1857:1879   */\n      swap1\n      pop\n        /* \"#utility.yul\":1772:1885   */\n      swap2\n      swap1\n      pop\n      jump\t// out\n        /* \"#utility.yul\":1921:2653   */\n    tag_378:\n        /* \"#utility.yul\":2040:2043   */\n      0x00\n        /* \"#utility.yul\":2069:2123   */\n      tag_435\n        /* \"#utility.yul\":2117:2122   */\n      dup3\n        /* \"#utility.yul\":2069:2123   */\n      tag_372\n      jump\t// in\n    tag_435:\n        /* \"#utility.yul\":2139:2225   */\n      tag_436\n        /* \"#utility.yul\":2218:2224   */\n      dup2\n        /* \"#utility.yul\":2213:2216   */\n      dup6\n        /* \"#utility.yul\":2139:2225   */\n      tag_373\n      jump\t// in\n    tag_436:\n        /* \"#utility.yul\":2132:2225   */\n      swap4\n      pop\n        /* \"#utility.yul\":2249:2305   */\n      tag_437\n        /* \"#utility.yul\":2299:2304   */\n      dup4\n        /* \"#utility.yul\":2249:2305   */\n      tag_374\n      jump\t// in\n    tag_437:\n        /* \"#utility.yul\":2328:2335   */\n      dup1\n        /* \"#utility.yul\":2359:2360   */\n      0x00\n        /* \"#utility.yul\":2344:2628   */\n    tag_438:\n        /* \"#utility.yul\":2369:2375   */\n      dup4\n        /* \"#utility.yul\":2366:2367   */\n      dup2\n        /* \"#utility.yul\":2363:2376   */\n      lt\n        /* \"#utility.yul\":2344:2628   */\n      iszero\n      tag_440\n      jumpi\n        /* \"#utility.yul\":2445:2451   */\n      dup2\n        /* \"#utility.yul\":2439:2452   */\n      mload\n        /* \"#utility.yul\":2472:2535   */\n      tag_441\n        /* \"#utility.yul\":2531:2534   */\n      dup9\n        /* \"#utility.yul\":2516:2529   */\n      dup3\n        /* \"#utility.yul\":2472:2535   */\n      tag_376\n      jump\t// in\n    tag_441:\n        /* \"#utility.yul\":2465:2535   */\n      swap8\n      pop\n        /* \"#utility.yul\":2558:2618   */\n      tag_442\n        /* \"#utility.yul\":2611:2617   */\n      dup4\n        /* \"#utility.yul\":2558:2618   */\n      tag_377\n      jump\t// in\n    tag_442:\n        /* \"#utility.yul\":2548:2618   */\n      swap3\n      pop\n        /* \"#utility.yul\":2404:2628   */\n      pop\n        /* \"#utility.yul\":2391:2392   */\n      0x01\n        /* \"#utility.yul\":2388:2389   */\n      dup2\n        /* \"#utility.yul\":2384:2393   */\n      add\n        /* \"#utility.yul\":2379:2393   */\n      swap1\n      pop\n        /* \"#utility.yul\":2344:2628   */\n      jump(tag_438)\n    tag_440:\n        /* \"#utility.yul\":2348:2362   */\n      pop\n        /* \"#utility.yul\":2644:2647   */\n      dup6\n        /* \"#utility.yul\":2637:2647   */\n      swap4\n      pop\n        /* \"#utility.yul\":2045:2653   */\n      pop\n      pop\n      pop\n        /* \"#utility.yul\":1921:2653   */\n      swap3\n      swap2\n      pop\n      pop\n      jump\t// out\n        /* \"#utility.yul\":2659:3032   */\n    tag_28:\n        /* \"#utility.yul\":2802:2806   */\n      0x00\n        /* \"#utility.yul\":2840:2842   */\n      0x20\n        /* \"#utility.yul\":2829:2838   */\n      dup3\n        /* \"#utility.yul\":2825:2843   */\n      add\n        /* \"#utility.yul\":2817:2843   */\n      swap1\n      pop\n        /* \"#utility.yul\":2889:2898   */\n      dup2\n        /* \"#utility.yul\":2883:2887   */\n      dup2\n        /* \"#utility.yul\":2879:2899   */\n      sub\n        /* \"#utility.yul\":2875:2876   */\n      0x00\n        /* \"#utility.yul\":2864:2873   */\n      dup4\n        /* \"#utility.yul\":2860:2877   */\n      add\n        /* \"#utility.yul\":2853:2900   */\n      mstore\n        /* \"#utility.yul\":2917:3025   */\n      tag_444\n        /* \"#utility.yul\":3020:3024   */\n      dup2\n        /* \"#utility.yul\":3011:3017   */\n      dup5\n        /* \"#utility.yul\":2917:3025   */\n      tag_378\n      jump\t// in\n    tag_444:\n        /* \"#utility.yul\":2909:3025   */\n      swap1\n      pop\n        /* \"#utility.yul\":2659:3032   */\n      swap3\n      swap2\n      pop\n      pop\n      jump\t// out\n        /* \"#utility.yul\":3038:3156   */\n    tag_379:\n        /* \"#utility.yul\":3125:3149   */\n      tag_446\n        /* \"#utility.yul\":3143:3148   */\n      dup2\n        /* \"#utility.yul\":3125:3149   */\n      tag_369\n      jump\t// in\n    tag_446:\n        /* \"#utility.yul\":3120:3123   */\n      dup3\n        /* \"#utility.yul\":3113:3150   */\n      mstore\n        /* \"#utility.yul\":3038:3156   */\n      pop\n      pop\n      jump\t// out\n        /* \"#utility.yul\":3162:3384   */\n    tag_38:\n        /* \"#utility.yul\":3255:3259   */\n      0x00\n        /* \"#utility.yul\":3293:3295   */\n      0x20\n        /* \"#utility.yul\":3282:3291   */\n      dup3\n        /* \"#utility.yul\":3278:3296   */\n      add\n        /* \"#utility.yul\":3270:3296   */\n      swap1\n      pop\n        /* \"#utility.yul\":3306:3377   */\n      tag_448\n        /* \"#utility.yul\":3374:3375   */\n      0x00\n        /* \"#utility.yul\":3363:3372   */\n      dup4\n        /* \"#utility.yul\":3359:3376   */\n      add\n        /* \"#utility.yul\":3350:3356   */\n      dup5\n        /* \"#utility.yul\":3306:3377   */\n      tag_379\n      jump\t// in\n    tag_448:\n        /* \"#utility.yul\":3162:3384   */\n      swap3\n      swap2\n      pop\n      pop\n      jump\t// out\n        /* \"#utility.yul\":3390:3525   */\n    tag_380:\n        /* \"#utility.yul\":3478:3484   */\n      0x00\n        /* \"#utility.yul\":3512:3517   */\n      dup2\n        /* \"#utility.yul\":3506:3518   */\n      mload\n        /* \"#utility.yul\":3496:3518   */\n      swap1\n      pop\n        /* \"#utility.yul\":3390:3525   */\n      swap2\n      swap1\n      pop\n      jump\t// out\n        /* \"#utility.yul\":3531:3736   */\n    tag_381:\n        /* \"#utility.yul\":3651:3662   */\n      0x00\n        /* \"#utility.yul\":3685:3691   */\n      dup3\n        /* \"#utility.yul\":3680:3683   */\n      dup3\n        /* \"#utility.yul\":3673:3692   */\n      mstore\n        /* \"#utility.yul\":3725:3729   */\n      0x20\n        /* \"#utility.yul\":3720:3723   */\n      dup3\n        /* \"#utility.yul\":3716:3730   */\n      add\n        /* \"#utility.yul\":3701:3730   */\n      swap1\n      pop\n        /* \"#utility.yul\":3531:3736   */\n      swap3\n      swap2\n      pop\n      pop\n      jump\t// out\n        /* \"#utility.yul\":3742:3895   */\n    tag_382:\n        /* \"#utility.yul\":3830:3834   */\n      0x00\n        /* \"#utility.yul\":3853:3856   */\n      dup2\n        /* \"#utility.yul\":3845:3856   */\n      swap1\n      pop\n        /* \"#utility.yul\":3883:3887   */\n      0x20\n        /* \"#utility.yul\":3878:3881   */\n      dup3\n        /* \"#utility.yul\":3874:3888   */\n      add\n        /* \"#utility.yul\":3866:3888   */\n      swap1\n      pop\n        /* \"#utility.yul\":3742:3895   */\n      swap2\n      swap1\n      pop\n      jump\t// out\n        /* \"#utility.yul\":3901:4027   */\n    tag_383:\n        /* \"#utility.yul\":3938:3945   */\n      0x00\n        /* \"#utility.yul\":3978:4020   */\n      0xffffffffffffffffffffffffffffffffffffffff\n        /* \"#utility.yul\":3971:3976   */\n      dup3\n        /* \"#utility.yul\":3967:4021   */\n      and\n        /* \"#utility.yul\":3956:4021   */\n      swap1\n      pop\n        /* \"#utility.yul\":3901:4027   */\n      swap2\n      swap1\n      pop\n      jump\t// out\n        /* \"#utility.yul\":4033:4137   */\n    tag_384:\n        /* \"#utility.yul\":4078:4085   */\n      0x00\n        /* \"#utility.yul\":4107:4131   */\n      tag_454\n        /* \"#utility.yul\":4125:4130   */\n      dup3\n        /* \"#utility.yul\":4107:4131   */\n      tag_383\n      jump\t// in\n    tag_454:\n        /* \"#utility.yul\":4096:4131   */\n      swap1\n      pop\n        /* \"#utility.yul\":4033:4137   */\n      swap2\n      swap1\n      pop\n      jump\t// out\n        /* \"#utility.yul\":4143:4275   */\n    tag_385:\n        /* \"#utility.yul\":4236:4268   */\n      tag_456\n        /* \"#utility.yul\":4262:4267   */\n      dup2\n        /* \"#utility.yul\":4236:4268   */\n      tag_384\n      jump\t// in\n    tag_456:\n        /* \"#utility.yul\":4231:4234   */\n      dup3\n        /* \"#utility.yul\":4224:4269   */\n      mstore\n        /* \"#utility.yul\":4143:4275   */\n      pop\n      pop\n      jump\t// out\n        /* \"#utility.yul\":4281:4461   */\n    tag_111:\n        /* \"#utility.yul\":4329:4406   */\n      0x4e487b7100000000000000000000000000000000000000000000000000000000\n        /* \"#utility.yul\":4326:4327   */\n      0x00\n        /* \"#utility.yul\":4319:4407   */\n      mstore\n        /* \"#utility.yul\":4426:4430   */\n      0x21\n        /* \"#utility.yul\":4423:4424   */\n      0x04\n        /* \"#utility.yul\":4416:4431   */\n      mstore\n        /* \"#utility.yul\":4450:4454   */\n      0x24\n        /* \"#utility.yul\":4447:4448   */\n      0x00\n        /* \"#utility.yul\":4440:4455   */\n      revert\n        /* \"#utility.yul\":4467:4579   */\n    tag_386:\n        /* \"#utility.yul\":4547:4548   */\n      0x02\n        /* \"#utility.yul\":4540:4545   */\n      dup2\n        /* \"#utility.yul\":4537:4549   */\n      lt\n        /* \"#utility.yul\":4527:4573   */\n      tag_459\n      jumpi\n        /* \"#utility.yul\":4553:4571   */\n      tag_460\n      tag_111\n      jump\t// in\n    tag_460:\n        /* \"#utility.yul\":4527:4573   */\n    tag_459:\n        /* \"#utility.yul\":4467:4579   */\n      pop\n      jump\t// out\n        /* \"#utility.yul\":4585:4710   */\n    tag_387:\n        /* \"#utility.yul\":4629:4636   */\n      0x00\n        /* \"#utility.yul\":4658:4663   */\n      dup2\n        /* \"#utility.yul\":4647:4663   */\n      swap1\n      pop\n        /* \"#utility.yul\":4664:4704   */\n      tag_462\n        /* \"#utility.yul\":4698:4703   */\n      dup3\n        /* \"#utility.yul\":4664:4704   */\n      tag_386\n      jump\t// in\n    tag_462:\n        /* \"#utility.yul\":4585:4710   */\n      swap2\n      swap1\n      pop\n      jump\t// out\n        /* \"#utility.yul\":4716:4841   */\n    tag_388:\n        /* \"#utility.yul\":4771:4780   */\n      0x00\n        /* \"#utility.yul\":4804:4835   */\n      tag_464\n        /* \"#utility.yul\":4829:4834   */\n      dup3\n        /* \"#utility.yul\":4804:4835   */\n      tag_387\n      jump\t// in\n    tag_464:\n        /* \"#utility.yul\":4791:4835   */\n      swap1\n      pop\n        /* \"#utility.yul\":4716:4841   */\n      swap2\n      swap1\n      pop\n      jump\t// out\n        /* \"#utility.yul\":4847:4978   */\n    tag_389:\n        /* \"#utility.yul\":4929:4971   */\n      tag_466\n        /* \"#utility.yul\":4965:4970   */\n      dup2\n        /* \"#utility.yul\":4929:4971   */\n      tag_388\n      jump\t// in\n    tag_466:\n        /* \"#utility.yul\":4924:4927   */\n      dup3\n        /* \"#utility.yul\":4917:4972   */\n      mstore\n        /* \"#utility.yul\":4847:4978   */\n      pop\n      pop\n      jump\t// out\n        /* \"#utility.yul\":5040:5909   */\n    tag_390:\n        /* \"#utility.yul\":5169:5173   */\n      0x80\n        /* \"#utility.yul\":5164:5167   */\n      dup3\n        /* \"#utility.yul\":5160:5174   */\n      add\n        /* \"#utility.yul\":5260:5264   */\n      0x00\n        /* \"#utility.yul\":5253:5258   */\n      dup3\n        /* \"#utility.yul\":5249:5265   */\n      add\n        /* \"#utility.yul\":5243:5266   */\n      mload\n        /* \"#utility.yul\":5279:5358   */\n      tag_468\n        /* \"#utility.yul\":5352:5356   */\n      0x00\n        /* \"#utility.yul\":5347:5350   */\n      dup6\n        /* \"#utility.yul\":5343:5357   */\n      add\n        /* \"#utility.yul\":5329:5341   */\n      dup3\n        /* \"#utility.yul\":5279:5358   */\n      tag_385\n      jump\t// in\n    tag_468:\n        /* \"#utility.yul\":5184:5368   */\n      pop\n        /* \"#utility.yul\":5451:5455   */\n      0x20\n        /* \"#utility.yul\":5444:5449   */\n      dup3\n        /* \"#utility.yul\":5440:5456   */\n      add\n        /* \"#utility.yul\":5434:5457   */\n      mload\n        /* \"#utility.yul\":5470:5533   */\n      tag_469\n        /* \"#utility.yul\":5527:5531   */\n      0x20\n        /* \"#utility.yul\":5522:5525   */\n      dup6\n        /* \"#utility.yul\":5518:5532   */\n      add\n        /* \"#utility.yul\":5504:5516   */\n      dup3\n        /* \"#utility.yul\":5470:5533   */\n      tag_375\n      jump\t// in\n    tag_469:\n        /* \"#utility.yul\":5378:5543   */\n      pop\n        /* \"#utility.yul\":5630:5634   */\n      0x40\n        /* \"#utility.yul\":5623:5628   */\n      dup3\n        /* \"#utility.yul\":5619:5635   */\n      add\n        /* \"#utility.yul\":5613:5636   */\n      mload\n        /* \"#utility.yul\":5649:5712   */\n      tag_470\n        /* \"#utility.yul\":5706:5710   */\n      0x40\n        /* \"#utility.yul\":5701:5704   */\n      dup6\n        /* \"#utility.yul\":5697:5711   */\n      add\n        /* \"#utility.yul\":5683:5695   */\n      dup3\n        /* \"#utility.yul\":5649:5712   */\n      tag_375\n      jump\t// in\n    tag_470:\n        /* \"#utility.yul\":5553:5722   */\n      pop\n        /* \"#utility.yul\":5805:5809   */\n      0x60\n        /* \"#utility.yul\":5798:5803   */\n      dup3\n        /* \"#utility.yul\":5794:5810   */\n      add\n        /* \"#utility.yul\":5788:5811   */\n      mload\n        /* \"#utility.yul\":5824:5892   */\n      tag_471\n        /* \"#utility.yul\":5886:5890   */\n      0x60\n        /* \"#utility.yul\":5881:5884   */\n      dup6\n        /* \"#utility.yul\":5877:5891   */\n      add\n        /* \"#utility.yul\":5863:5875   */\n      dup3\n        /* \"#utility.yul\":5824:5892   */\n      tag_389\n      jump\t// in\n    tag_471:\n        /* \"#utility.yul\":5732:5902   */\n      pop\n        /* \"#utility.yul\":5138:5909   */\n      pop\n        /* \"#utility.yul\":5040:5909   */\n      pop\n      pop\n      jump\t// out\n        /* \"#utility.yul\":5915:6178   */\n    tag_391:\n        /* \"#utility.yul\":6026:6036   */\n      0x00\n        /* \"#utility.yul\":6047:6135   */\n      tag_473\n        /* \"#utility.yul\":6131:6134   */\n      dup4\n        /* \"#utility.yul\":6123:6129   */\n      dup4\n        /* \"#utility.yul\":6047:6135   */\n      tag_390\n      jump\t// in\n    tag_473:\n        /* \"#utility.yul\":6167:6171   */\n      0x80\n        /* \"#utility.yul\":6162:6165   */\n      dup4\n        /* \"#utility.yul\":6158:6172   */\n      add\n        /* \"#utility.yul\":6144:6172   */\n      swap1\n      pop\n        /* \"#utility.yul\":5915:6178   */\n      swap3\n      swap2\n      pop\n      pop\n      jump\t// out\n        /* \"#utility.yul\":6184:6318   */\n    tag_392:\n        /* \"#utility.yul\":6275:6279   */\n      0x00\n        /* \"#utility.yul\":6307:6311   */\n      0x20\n        /* \"#utility.yul\":6302:6305   */\n      dup3\n        /* \"#utility.yul\":6298:6312   */\n      add\n        /* \"#utility.yul\":6290:6312   */\n      swap1\n      pop\n        /* \"#utility.yul\":6184:6318   */\n      swap2\n      swap1\n      pop\n      jump\t// out\n        /* \"#utility.yul\":6384:7284   */\n    tag_393:\n        /* \"#utility.yul\":6545:6548   */\n      0x00\n        /* \"#utility.yul\":6574:6649   */\n      tag_476\n        /* \"#utility.yul\":6643:6648   */\n      dup3\n        /* \"#utility.yul\":6574:6649   */\n      tag_380\n      jump\t// in\n    tag_476:\n        /* \"#utility.yul\":6665:6772   */\n      tag_477\n        /* \"#utility.yul\":6765:6771   */\n      dup2\n        /* \"#utility.yul\":6760:6763   */\n      dup6\n        /* \"#utility.yul\":6665:6772   */\n      tag_381\n      jump\t// in\n    tag_477:\n        /* \"#utility.yul\":6658:6772   */\n      swap4\n      pop\n        /* \"#utility.yul\":6796:6873   */\n      tag_478\n        /* \"#utility.yul\":6867:6872   */\n      dup4\n        /* \"#utility.yul\":6796:6873   */\n      tag_382\n      jump\t// in\n    tag_478:\n        /* \"#utility.yul\":6896:6903   */\n      dup1\n        /* \"#utility.yul\":6927:6928   */\n      0x00\n        /* \"#utility.yul\":6912:7259   */\n    tag_479:\n        /* \"#utility.yul\":6937:6943   */\n      dup4\n        /* \"#utility.yul\":6934:6935   */\n      dup2\n        /* \"#utility.yul\":6931:6944   */\n      lt\n        /* \"#utility.yul\":6912:7259   */\n      iszero\n      tag_481\n      jumpi\n        /* \"#utility.yul\":7013:7019   */\n      dup2\n        /* \"#utility.yul\":7007:7020   */\n      mload\n        /* \"#utility.yul\":7040:7145   */\n      tag_482\n        /* \"#utility.yul\":7141:7144   */\n      dup9\n        /* \"#utility.yul\":7126:7139   */\n      dup3\n        /* \"#utility.yul\":7040:7145   */\n      tag_391\n      jump\t// in\n    tag_482:\n        /* \"#utility.yul\":7033:7145   */\n      swap8\n      pop\n        /* \"#utility.yul\":7168:7249   */\n      tag_483\n        /* \"#utility.yul\":7242:7248   */\n      dup4\n        /* \"#utility.yul\":7168:7249   */\n      tag_392\n      jump\t// in\n    tag_483:\n        /* \"#utility.yul\":7158:7249   */\n      swap3\n      pop\n        /* \"#utility.yul\":6972:7259   */\n      pop\n        /* \"#utility.yul\":6959:6960   */\n      0x01\n        /* \"#utility.yul\":6956:6957   */\n      dup2\n        /* \"#utility.yul\":6952:6961   */\n      add\n        /* \"#utility.yul\":6947:6961   */\n      swap1\n      pop\n        /* \"#utility.yul\":6912:7259   */\n      jump(tag_479)\n    tag_481:\n        /* \"#utility.yul\":6916:6930   */\n      pop\n        /* \"#utility.yul\":7275:7278   */\n      dup6\n        /* \"#utility.yul\":7268:7278   */\n      swap4\n      pop\n        /* \"#utility.yul\":6550:7284   */\n      pop\n      pop\n      pop\n        /* \"#utility.yul\":6384:7284   */\n      swap3\n      swap2\n      pop\n      pop\n      jump\t// out\n        /* \"#utility.yul\":7290:7747   */\n    tag_43:\n        /* \"#utility.yul\":7475:7479   */\n      0x00\n        /* \"#utility.yul\":7513:7515   */\n      0x20\n        /* \"#utility.yul\":7502:7511   */\n      dup3\n        /* \"#utility.yul\":7498:7516   */\n      add\n        /* \"#utility.yul\":7490:7516   */\n      swap1\n      pop\n        /* \"#utility.yul\":7562:7571   */\n      dup2\n        /* \"#utility.yul\":7556:7560   */\n      dup2\n        /* \"#utility.yul\":7552:7572   */\n      sub\n        /* \"#utility.yul\":7548:7549   */\n      0x00\n        /* \"#utility.yul\":7537:7546   */\n      dup4\n        /* \"#utility.yul\":7533:7550   */\n      add\n        /* \"#utility.yul\":7526:7573   */\n      mstore\n        /* \"#utility.yul\":7590:7740   */\n      tag_485\n        /* \"#utility.yul\":7735:7739   */\n      dup2\n        /* \"#utility.yul\":7726:7732   */\n      dup5\n        /* \"#utility.yul\":7590:7740   */\n      tag_393\n      jump\t// in\n    tag_485:\n        /* \"#utility.yul\":7582:7740   */\n      swap1\n      pop\n        /* \"#utility.yul\":7290:7747   */\n      swap3\n      swap2\n      pop\n      pop\n      jump\t// out\n        /* \"#utility.yul\":7753:7894   */\n    tag_394:\n        /* \"#utility.yul\":7845:7887   */\n      tag_487\n        /* \"#utility.yul\":7881:7886   */\n      dup2\n        /* \"#utility.yul\":7845:7887   */\n      tag_388\n      jump\t// in\n    tag_487:\n        /* \"#utility.yul\":7840:7843   */\n      dup3\n        /* \"#utility.yul\":7833:7888   */\n      mstore\n        /* \"#utility.yul\":7753:7894   */\n      pop\n      pop\n      jump\t// out\n        /* \"#utility.yul\":7900:8132   */\n    tag_49:\n        /* \"#utility.yul\":7998:8002   */\n      0x00\n        /* \"#utility.yul\":8036:8038   */\n      0x20\n        /* \"#utility.yul\":8025:8034   */\n      dup3\n        /* \"#utility.yul\":8021:8039   */\n      add\n        /* \"#utility.yul\":8013:8039   */\n      swap1\n      pop\n        /* \"#utility.yul\":8049:8125   */\n      tag_489\n        /* \"#utility.yul\":8122:8123   */\n      0x00\n        /* \"#utility.yul\":8111:8120   */\n      dup4\n        /* \"#utility.yul\":8107:8124   */\n      add\n        /* \"#utility.yul\":8098:8104   */\n      dup5\n        /* \"#utility.yul\":8049:8125   */\n      tag_394\n      jump\t// in\n    tag_489:\n        /* \"#utility.yul\":7900:8132   */\n      swap3\n      swap2\n      pop\n      pop\n      jump\t// out\n        /* \"#utility.yul\":8138:8280   */\n    tag_395:\n        /* \"#utility.yul\":8241:8273   */\n      tag_491\n        /* \"#utility.yul\":8267:8272   */\n      dup2\n        /* \"#utility.yul\":8241:8273   */\n      tag_384\n      jump\t// in\n    tag_491:\n        /* \"#utility.yul\":8236:8239   */\n      dup3\n        /* \"#utility.yul\":8229:8274   */\n      mstore\n        /* \"#utility.yul\":8138:8280   */\n      pop\n      pop\n      jump\t// out\n        /* \"#utility.yul\":8286:8540   */\n    tag_55:\n        /* \"#utility.yul\":8395:8399   */\n      0x00\n        /* \"#utility.yul\":8433:8435   */\n      0x20\n        /* \"#utility.yul\":8422:8431   */\n      dup3\n        /* \"#utility.yul\":8418:8436   */\n      add\n        /* \"#utility.yul\":8410:8436   */\n      swap1\n      pop\n        /* \"#utility.yul\":8446:8533   */\n      tag_493\n        /* \"#utility.yul\":8530:8531   */\n      0x00\n        /* \"#utility.yul\":8519:8528   */\n      dup4\n        /* \"#utility.yul\":8515:8532   */\n      add\n        /* \"#utility.yul\":8506:8512   */\n      dup5\n        /* \"#utility.yul\":8446:8533   */\n      tag_395\n      jump\t// in\n    tag_493:\n        /* \"#utility.yul\":8286:8540   */\n      swap3\n      swap2\n      pop\n      pop\n      jump\t// out\n        /* \"#utility.yul\":8546:8726   */\n    tag_98:\n        /* \"#utility.yul\":8594:8671   */\n      0x4e487b7100000000000000000000000000000000000000000000000000000000\n        /* \"#utility.yul\":8591:8592   */\n      0x00\n        /* \"#utility.yul\":8584:8672   */\n      mstore\n        /* \"#utility.yul\":8691:8695   */\n      0x32\n        /* \"#utility.yul\":8688:8689   */\n      0x04\n        /* \"#utility.yul\":8681:8696   */\n      mstore\n        /* \"#utility.yul\":8715:8719   */\n      0x24\n        /* \"#utility.yul\":8712:8713   */\n      0x00\n        /* \"#utility.yul\":8705:8720   */\n      revert\n        /* \"#utility.yul\":8732:8912   */\n    tag_396:\n        /* \"#utility.yul\":8780:8857   */\n      0x4e487b7100000000000000000000000000000000000000000000000000000000\n        /* \"#utility.yul\":8777:8778   */\n      0x00\n        /* \"#utility.yul\":8770:8858   */\n      mstore\n        /* \"#utility.yul\":8877:8881   */\n      0x11\n        /* \"#utility.yul\":8874:8875   */\n      0x04\n        /* \"#utility.yul\":8867:8882   */\n      mstore\n        /* \"#utility.yul\":8901:8905   */\n      0x24\n        /* \"#utility.yul\":8898:8899   */\n      0x00\n        /* \"#utility.yul\":8891:8906   */\n      revert\n        /* \"#utility.yul\":8918:9151   */\n    tag_103:\n        /* \"#utility.yul\":8957:8960   */\n      0x00\n        /* \"#utility.yul\":8980:9004   */\n      tag_497\n        /* \"#utility.yul\":8998:9003   */\n      dup3\n        /* \"#utility.yul\":8980:9004   */\n      tag_369\n      jump\t// in\n    tag_497:\n        /* \"#utility.yul\":8971:9004   */\n      swap2\n      pop\n        /* \"#utility.yul\":9026:9092   */\n      0xffffffffffffffffffffffffffffffffffffffffffffffffffffffffffffffff\n        /* \"#utility.yul\":9019:9024   */\n      dup3\n        /* \"#utility.yul\":9016:9093   */\n      sub\n        /* \"#utility.yul\":9013:9116   */\n      tag_498\n      jumpi\n        /* \"#utility.yul\":9096:9114   */\n      tag_499\n      tag_396\n      jump\t// in\n    tag_499:\n        /* \"#utility.yul\":9013:9116   */\n    tag_498:\n        /* \"#utility.yul\":9143:9144   */\n      0x01\n        /* \"#utility.yul\":9136:9141   */\n      dup3\n        /* \"#utility.yul\":9132:9145   */\n      add\n        /* \"#utility.yul\":9125:9145   */\n      swap1\n      pop\n        /* \"#utility.yul\":8918:9151   */\n      swap2\n      swap1\n      pop\n      jump\t// out\n        /* \"#utility.yul\":9157:9326   */\n    tag_397:\n        /* \"#utility.yul\":9241:9252   */\n      0x00\n        /* \"#utility.yul\":9275:9281   */\n      dup3\n        /* \"#utility.yul\":9270:9273   */\n      dup3\n        /* \"#utility.yul\":9263:9282   */\n      mstore\n        /* \"#utility.yul\":9315:9319   */\n      0x20\n        /* \"#utility.yul\":9310:9313   */\n      dup3\n        /* \"#utility.yul\":9306:9320   */\n      add\n        /* \"#utility.yul\":9291:9320   */\n      swap1\n      pop\n        /* \"#utility.yul\":9157:9326   */\n      swap3\n      swap2\n      pop\n      pop\n      jump\t// out\n        /* \"#utility.yul\":9332:9495   */\n    tag_398:\n        /* \"#utility.yul\":9472:9487   */\n      0x4f726465722050656e64696e6700000000000000000000000000000000000000\n        /* \"#utility.yul\":9468:9469   */\n      0x00\n        /* \"#utility.yul\":9460:9466   */\n      dup3\n        /* \"#utility.yul\":9456:9470   */\n      add\n        /* \"#utility.yul\":9449:9488   */\n      mstore\n        /* \"#utility.yul\":9332:9495   */\n      pop\n      jump\t// out\n        /* \"#utility.yul\":9501:9867   */\n    tag_399:\n        /* \"#utility.yul\":9643:9646   */\n      0x00\n        /* \"#utility.yul\":9664:9731   */\n      tag_503\n        /* \"#utility.yul\":9728:9730   */\n      0x0d\n        /* \"#utility.yul\":9723:9726   */\n      dup4\n        /* \"#utility.yul\":9664:9731   */\n      tag_397\n      jump\t// in\n    tag_503:\n        /* \"#utility.yul\":9657:9731   */\n      swap2\n      pop\n        /* \"#utility.yul\":9740:9833   */\n      tag_504\n        /* \"#utility.yul\":9829:9832   */\n      dup3\n        /* \"#utility.yul\":9740:9833   */\n      tag_398\n      jump\t// in\n    tag_504:\n        /* \"#utility.yul\":9858:9860   */\n      0x20\n        /* \"#utility.yul\":9853:9856   */\n      dup3\n        /* \"#utility.yul\":9849:9861   */\n      add\n        /* \"#utility.yul\":9842:9861   */\n      swap1\n      pop\n        /* \"#utility.yul\":9501:9867   */\n      swap2\n      swap1\n      pop\n      jump\t// out\n        /* \"#utility.yul\":9873:10292   */\n    tag_121:\n        /* \"#utility.yul\":10039:10043   */\n      0x00\n        /* \"#utility.yul\":10077:10079   */\n      0x20\n        /* \"#utility.yul\":10066:10075   */\n      dup3\n        /* \"#utility.yul\":10062:10080   */\n      add\n        /* \"#utility.yul\":10054:10080   */\n      swap1\n      pop\n        /* \"#utility.yul\":10126:10135   */\n      dup2\n        /* \"#utility.yul\":10120:10124   */\n      dup2\n        /* \"#utility.yul\":10116:10136   */\n      sub\n        /* \"#utility.yul\":10112:10113   */\n      0x00\n        /* \"#utility.yul\":10101:10110   */\n      dup4\n        /* \"#utility.yul\":10097:10114   */\n      add\n        /* \"#utility.yul\":10090:10137   */\n      mstore\n        /* \"#utility.yul\":10154:10285   */\n      tag_506\n        /* \"#utility.yul\":10280:10284   */\n      dup2\n        /* \"#utility.yul\":10154:10285   */\n      tag_399\n      jump\t// in\n    tag_506:\n        /* \"#utility.yul\":10146:10285   */\n      swap1\n      pop\n        /* \"#utility.yul\":9873:10292   */\n      swap2\n      swap1\n      pop\n      jump\t// out\n        /* \"#utility.yul\":10298:10462   */\n    tag_400:\n        /* \"#utility.yul\":10438:10454   */\n      0x4e6f7420417574686f7269736564000000000000000000000000000000000000\n        /* \"#utility.yul\":10434:10435   */\n      0x00\n        /* \"#utility.yul\":10426:10432   */\n      dup3\n        /* \"#utility.yul\":10422:10436   */\n      add\n        /* \"#utility.yul\":10415:10455   */\n      mstore\n        /* \"#utility.yul\":10298:10462   */\n      pop\n      jump\t// out\n        /* \"#utility.yul\":10468:10834   */\n    tag_401:\n        /* \"#utility.yul\":10610:10613   */\n      0x00\n        /* \"#utility.yul\":10631:10698   */\n      tag_509\n        /* \"#utility.yul\":10695:10697   */\n      0x0e\n        /* \"#utility.yul\":10690:10693   */\n      dup4\n        /* \"#utility.yul\":10631:10698   */\n      tag_397\n      jump\t// in\n    tag_509:\n        /* \"#utility.yul\":10624:10698   */\n      swap2\n      pop\n        /* \"#utility.yul\":10707:10800   */\n      tag_510\n        /* \"#utility.yul\":10796:10799   */\n      dup3\n        /* \"#utility.yul\":10707:10800   */\n      tag_400\n      jump\t// in\n    tag_510:\n        /* \"#utility.yul\":10825:10827   */\n      0x20\n        /* \"#utility.yul\":10820:10823   */\n      dup3\n        /* \"#utility.yul\":10816:10828   */\n      add\n        /* \"#utility.yul\":10809:10828   */\n      swap1\n      pop\n        /* \"#utility.yul\":10468:10834   */\n      swap2\n      swap1\n      pop\n      jump\t// out\n        /* \"#utility.yul\":10840:11259   */\n    tag_132:\n        /* \"#utility.yul\":11006:11010   */\n      0x00\n        /* \"#utility.yul\":11044:11046   */\n      0x20\n        /* \"#utility.yul\":11033:11042   */\n      dup3\n        /* \"#utility.yul\":11029:11047   */\n      add\n        /* \"#utility.yul\":11021:11047   */\n      swap1\n      pop\n        /* \"#utility.yul\":11093:11102   */\n      dup2\n        /* \"#utility.yul\":11087:11091   */\n      dup2\n        /* \"#utility.yul\":11083:11103   */\n      sub\n        /* \"#utility.yul\":11079:11080   */\n      0x00\n        /* \"#utility.yul\":11068:11077   */\n      dup4\n        /* \"#utility.yul\":11064:11081   */\n      add\n        /* \"#utility.yul\":11057:11104   */\n      mstore\n        /* \"#utility.yul\":11121:11252   */\n      tag_512\n        /* \"#utility.yul\":11247:11251   */\n      dup2\n        /* \"#utility.yul\":11121:11252   */\n      tag_401\n      jump\t// in\n    tag_512:\n        /* \"#utility.yul\":11113:11252   */\n      swap1\n      pop\n        /* \"#utility.yul\":10840:11259   */\n      swap2\n      swap1\n      pop\n      jump\t// out\n        /* \"#utility.yul\":11265:11446   */\n    tag_402:\n        /* \"#utility.yul\":11405:11438   */\n      0x70726963652076616c7565206d757374206265206d6f7265207468616e203000\n        /* \"#utility.yul\":11401:11402   */\n      0x00\n        /* \"#utility.yul\":11393:11399   */\n      dup3\n        /* \"#utility.yul\":11389:11403   */\n      add\n        /* \"#utility.yul\":11382:11439   */\n      mstore\n        /* \"#utility.yul\":11265:11446   */\n      pop\n      jump\t// out\n        /* \"#utility.yul\":11452:11818   */\n    tag_403:\n        /* \"#utility.yul\":11594:11597   */\n      0x00\n        /* \"#utility.yul\":11615:11682   */\n      tag_515\n        /* \"#utility.yul\":11679:11681   */\n      0x1f\n        /* \"#utility.yul\":11674:11677   */\n      dup4\n        /* \"#utility.yul\":11615:11682   */\n      tag_397\n      jump\t// in\n    tag_515:\n        /* \"#utility.yul\":11608:11682   */\n      swap2\n      pop\n        /* \"#utility.yul\":11691:11784   */\n      tag_516\n        /* \"#utility.yul\":11780:11783   */\n      dup3\n        /* \"#utility.yul\":11691:11784   */\n      tag_402\n      jump\t// in\n    tag_516:\n        /* \"#utility.yul\":11809:11811   */\n      0x20\n        /* \"#utility.yul\":11804:11807   */\n      dup3\n        /* \"#utility.yul\":11800:11812   */\n      add\n        /* \"#utility.yul\":11793:11812   */\n      swap1\n      pop\n        /* \"#utility.yul\":11452:11818   */\n      swap2\n      swap1\n      pop\n      jump\t// out\n        /* \"#utility.yul\":11824:12243   */\n    tag_167:\n        /* \"#utility.yul\":11990:11994   */\n      0x00\n        /* \"#utility.yul\":12028:12030   */\n      0x20\n        /* \"#utility.yul\":12017:12026   */\n      dup3\n        /* \"#utility.yul\":12013:12031   */\n      add\n        /* \"#utility.yul\":12005:12031   */\n      swap1\n      pop\n        /* \"#utility.yul\":12077:12086   */\n      dup2\n        /* \"#utility.yul\":12071:12075   */\n      dup2\n        /* \"#utility.yul\":12067:12087   */\n      sub\n        /* \"#utility.yul\":12063:12064   */\n      0x00\n        /* \"#utility.yul\":12052:12061   */\n      dup4\n        /* \"#utility.yul\":12048:12065   */\n      add\n        /* \"#utility.yul\":12041:12088   */\n      mstore\n        /* \"#utility.yul\":12105:12236   */\n      tag_518\n        /* \"#utility.yul\":12231:12235   */\n      dup2\n        /* \"#utility.yul\":12105:12236   */\n      tag_403\n      jump\t// in\n    tag_518:\n        /* \"#utility.yul\":12097:12236   */\n      swap1\n      pop\n        /* \"#utility.yul\":11824:12243   */\n      swap2\n      swap1\n      pop\n      jump\t// out\n        /* \"#utility.yul\":12249:12429   */\n    tag_404:\n        /* \"#utility.yul\":12389:12421   */\n      0x4e6f7420656e6f75676820626c616e636520746f20706c6163652061736b0000\n        /* \"#utility.yul\":12385:12386   */\n      0x00\n        /* \"#utility.yul\":12377:12383   */\n      dup3\n        /* \"#utility.yul\":12373:12387   */\n      add\n        /* \"#utility.yul\":12366:12422   */\n      mstore\n        /* \"#utility.yul\":12249:12429   */\n      pop\n      jump\t// out\n        /* \"#utility.yul\":12435:12801   */\n    tag_405:\n        /* \"#utility.yul\":12577:12580   */\n      0x00\n        /* \"#utility.yul\":12598:12665   */\n      tag_521\n        /* \"#utility.yul\":12662:12664   */\n      0x1e\n        /* \"#utility.yul\":12657:12660   */\n      dup4\n        /* \"#utility.yul\":12598:12665   */\n      tag_397\n      jump\t// in\n    tag_521:\n        /* \"#utility.yul\":12591:12665   */\n      swap2\n      pop\n        /* \"#utility.yul\":12674:12767   */\n      tag_522\n        /* \"#utility.yul\":12763:12766   */\n      dup3\n        /* \"#utility.yul\":12674:12767   */\n      tag_404\n      jump\t// in\n    tag_522:\n        /* \"#utility.yul\":12792:12794   */\n      0x20\n        /* \"#utility.yul\":12787:12790   */\n      dup3\n        /* \"#utility.yul\":12783:12795   */\n      add\n        /* \"#utility.yul\":12776:12795   */\n      swap1\n      pop\n        /* \"#utility.yul\":12435:12801   */\n      swap2\n      swap1\n      pop\n      jump\t// out\n        /* \"#utility.yul\":12807:13226   */\n    tag_170:\n        /* \"#utility.yul\":12973:12977   */\n      0x00\n        /* \"#utility.yul\":13011:13013   */\n      0x20\n        /* \"#utility.yul\":13000:13009   */\n      dup3\n        /* \"#utility.yul\":12996:13014   */\n      add\n        /* \"#utility.yul\":12988:13014   */\n      swap1\n      pop\n        /* \"#utility.yul\":13060:13069   */\n      dup2\n        /* \"#utility.yul\":13054:13058   */\n      dup2\n        /* \"#utility.yul\":13050:13070   */\n      sub\n        /* \"#utility.yul\":13046:13047   */\n      0x00\n        /* \"#utility.yul\":13035:13044   */\n      dup4\n        /* \"#utility.yul\":13031:13048   */\n      add\n        /* \"#utility.yul\":13024:13071   */\n      mstore\n        /* \"#utility.yul\":13088:13219   */\n      tag_524\n        /* \"#utility.yul\":13214:13218   */\n      dup2\n        /* \"#utility.yul\":13088:13219   */\n      tag_405\n      jump\t// in\n    tag_524:\n        /* \"#utility.yul\":13080:13219   */\n      swap1\n      pop\n        /* \"#utility.yul\":12807:13226   */\n      swap2\n      swap1\n      pop\n      jump\t// out\n        /* \"#utility.yul\":13232:13423   */\n    tag_172:\n        /* \"#utility.yul\":13272:13276   */\n      0x00\n        /* \"#utility.yul\":13292:13312   */\n      tag_526\n        /* \"#utility.yul\":13310:13311   */\n      dup3\n        /* \"#utility.yul\":13292:13312   */\n      tag_369\n      jump\t// in\n    tag_526:\n        /* \"#utility.yul\":13287:13312   */\n      swap2\n      pop\n        /* \"#utility.yul\":13326:13346   */\n      tag_527\n        /* \"#utility.yul\":13344:13345   */\n      dup4\n        /* \"#utility.yul\":13326:13346   */\n      tag_369\n      jump\t// in\n    tag_527:\n        /* \"#utility.yul\":13321:13346   */\n      swap3\n      pop\n        /* \"#utility.yul\":13365:13366   */\n      dup3\n        /* \"#utility.yul\":13362:13363   */\n      dup3\n        /* \"#utility.yul\":13359:13367   */\n      lt\n        /* \"#utility.yul\":13356:13390   */\n      iszero\n      tag_528\n      jumpi\n        /* \"#utility.yul\":13370:13388   */\n      tag_529\n      tag_396\n      jump\t// in\n    tag_529:\n        /* \"#utility.yul\":13356:13390   */\n    tag_528:\n        /* \"#utility.yul\":13415:13416   */\n      dup3\n        /* \"#utility.yul\":13412:13413   */\n      dup3\n        /* \"#utility.yul\":13408:13417   */\n      sub\n        /* \"#utility.yul\":13400:13417   */\n      swap1\n      pop\n        /* \"#utility.yul\":13232:13423   */\n      swap3\n      swap2\n      pop\n      pop\n      jump\t// out\n        /* \"#utility.yul\":13429:13777   */\n    tag_174:\n        /* \"#utility.yul\":13469:13476   */\n      0x00\n        /* \"#utility.yul\":13492:13512   */\n      tag_531\n        /* \"#utility.yul\":13510:13511   */\n      dup3\n        /* \"#utility.yul\":13492:13512   */\n      tag_369\n      jump\t// in\n    tag_531:\n        /* \"#utility.yul\":13487:13512   */\n      swap2\n      pop\n        /* \"#utility.yul\":13526:13546   */\n      tag_532\n        /* \"#utility.yul\":13544:13545   */\n      dup4\n        /* \"#utility.yul\":13526:13546   */\n      tag_369\n      jump\t// in\n    tag_532:\n        /* \"#utility.yul\":13521:13546   */\n      swap3\n      pop\n        /* \"#utility.yul\":13714:13715   */\n      dup2\n        /* \"#utility.yul\":13646:13712   */\n      0xffffffffffffffffffffffffffffffffffffffffffffffffffffffffffffffff\n        /* \"#utility.yul\":13642:13716   */\n      div\n        /* \"#utility.yul\":13639:13640   */\n      dup4\n        /* \"#utility.yul\":13636:13717   */\n      gt\n        /* \"#utility.yul\":13631:13632   */\n      dup3\n        /* \"#utility.yul\":13624:13633   */\n      iszero\n        /* \"#utility.yul\":13617:13634   */\n      iszero\n        /* \"#utility.yul\":13613:13718   */\n      and\n        /* \"#utility.yul\":13610:13741   */\n      iszero\n      tag_533\n      jumpi\n        /* \"#utility.yul\":13721:13739   */\n      tag_534\n      tag_396\n      jump\t// in\n    tag_534:\n        /* \"#utility.yul\":13610:13741   */\n    tag_533:\n        /* \"#utility.yul\":13769:13770   */\n      dup3\n        /* \"#utility.yul\":13766:13767   */\n      dup3\n        /* \"#utility.yul\":13762:13771   */\n      mul\n        /* \"#utility.yul\":13751:13771   */\n      swap1\n      pop\n        /* \"#utility.yul\":13429:13777   */\n      swap3\n      swap2\n      pop\n      pop\n      jump\t// out\n        /* \"#utility.yul\":13783:13963   */\n    tag_406:\n        /* \"#utility.yul\":13831:13908   */\n      0x4e487b7100000000000000000000000000000000000000000000000000000000\n        /* \"#utility.yul\":13828:13829   */\n      0x00\n        /* \"#utility.yul\":13821:13909   */\n      mstore\n        /* \"#utility.yul\":13928:13932   */\n      0x12\n        /* \"#utility.yul\":13925:13926   */\n      0x04\n        /* \"#utility.yul\":13918:13933   */\n      mstore\n        /* \"#utility.yul\":13952:13956   */\n      0x24\n        /* \"#utility.yul\":13949:13950   */\n      0x00\n        /* \"#utility.yul\":13942:13957   */\n      revert\n        /* \"#utility.yul\":13969:14154   */\n    tag_176:\n        /* \"#utility.yul\":14009:14010   */\n      0x00\n        /* \"#utility.yul\":14026:14046   */\n      tag_537\n        /* \"#utility.yul\":14044:14045   */\n      dup3\n        /* \"#utility.yul\":14026:14046   */\n      tag_369\n      jump\t// in\n    tag_537:\n        /* \"#utility.yul\":14021:14046   */\n      swap2\n      pop\n        /* \"#utility.yul\":14060:14080   */\n      tag_538\n        /* \"#utility.yul\":14078:14079   */\n      dup4\n        /* \"#utility.yul\":14060:14080   */\n      tag_369\n      jump\t// in\n    tag_538:\n        /* \"#utility.yul\":14055:14080   */\n      swap3\n      pop\n        /* \"#utility.yul\":14099:14100   */\n      dup3\n        /* \"#utility.yul\":14089:14124   */\n      tag_539\n      jumpi\n        /* \"#utility.yul\":14104:14122   */\n      tag_540\n      tag_406\n      jump\t// in\n    tag_540:\n        /* \"#utility.yul\":14089:14124   */\n    tag_539:\n        /* \"#utility.yul\":14146:14147   */\n      dup3\n        /* \"#utility.yul\":14143:14144   */\n      dup3\n        /* \"#utility.yul\":14139:14148   */\n      div\n        /* \"#utility.yul\":14134:14148   */\n      swap1\n      pop\n        /* \"#utility.yul\":13969:14154   */\n      swap3\n      swap2\n      pop\n      pop\n      jump\t// out\n        /* \"#utility.yul\":14160:14256   */\n    tag_407:\n        /* \"#utility.yul\":14197:14204   */\n      0x00\n        /* \"#utility.yul\":14226:14250   */\n      tag_542\n        /* \"#utility.yul\":14244:14249   */\n      dup3\n        /* \"#utility.yul\":14226:14250   */\n      tag_383\n      jump\t// in\n    tag_542:\n        /* \"#utility.yul\":14215:14250   */\n      swap1\n      pop\n        /* \"#utility.yul\":14160:14256   */\n      swap2\n      swap1\n      pop\n      jump\t// out\n        /* \"#utility.yul\":14262:14380   */\n    tag_408:\n        /* \"#utility.yul\":14349:14373   */\n      tag_544\n        /* \"#utility.yul\":14367:14372   */\n      dup2\n        /* \"#utility.yul\":14349:14373   */\n      tag_407\n      jump\t// in\n    tag_544:\n        /* \"#utility.yul\":14344:14347   */\n      dup3\n        /* \"#utility.yul\":14337:14374   */\n      mstore\n        /* \"#utility.yul\":14262:14380   */\n      pop\n      pop\n      jump\t// out\n        /* \"#utility.yul\":14386:14949   */\n    tag_185:\n        /* \"#utility.yul\":14568:14572   */\n      0x00\n        /* \"#utility.yul\":14606:14609   */\n      0x80\n        /* \"#utility.yul\":14595:14604   */\n      dup3\n        /* \"#utility.yul\":14591:14610   */\n      add\n        /* \"#utility.yul\":14583:14610   */\n      swap1\n      pop\n        /* \"#utility.yul\":14620:14691   */\n      tag_546\n        /* \"#utility.yul\":14688:14689   */\n      0x00\n        /* \"#utility.yul\":14677:14686   */\n      dup4\n        /* \"#utility.yul\":14673:14690   */\n      add\n        /* \"#utility.yul\":14664:14670   */\n      dup8\n        /* \"#utility.yul\":14620:14691   */\n      tag_408\n      jump\t// in\n    tag_546:\n        /* \"#utility.yul\":14701:14773   */\n      tag_547\n        /* \"#utility.yul\":14769:14771   */\n      0x20\n        /* \"#utility.yul\":14758:14767   */\n      dup4\n        /* \"#utility.yul\":14754:14772   */\n      add\n        /* \"#utility.yul\":14745:14751   */\n      dup7\n        /* \"#utility.yul\":14701:14773   */\n      tag_379\n      jump\t// in\n    tag_547:\n        /* \"#utility.yul\":14783:14855   */\n      tag_548\n        /* \"#utility.yul\":14851:14853   */\n      0x40\n        /* \"#utility.yul\":14840:14849   */\n      dup4\n        /* \"#utility.yul\":14836:14854   */\n      add\n        /* \"#utility.yul\":14827:14833   */\n      dup6\n        /* \"#utility.yul\":14783:14855   */\n      tag_379\n      jump\t// in\n    tag_548:\n        /* \"#utility.yul\":14865:14942   */\n      tag_549\n        /* \"#utility.yul\":14938:14940   */\n      0x60\n        /* \"#utility.yul\":14927:14936   */\n      dup4\n        /* \"#utility.yul\":14923:14941   */\n      add\n        /* \"#utility.yul\":14914:14920   */\n      dup5\n        /* \"#utility.yul\":14865:14942   */\n      tag_394\n      jump\t// in\n    tag_549:\n        /* \"#utility.yul\":14386:14949   */\n      swap6\n      swap5\n      pop\n      pop\n      pop\n      pop\n      pop\n      jump\t// out\n        /* \"#utility.yul\":14955:15135   */\n    tag_409:\n        /* \"#utility.yul\":15095:15127   */\n      0x4e6f7420656e6f75676820626c616e636520746f20706c616365206269640000\n        /* \"#utility.yul\":15091:15092   */\n      0x00\n        /* \"#utility.yul\":15083:15089   */\n      dup3\n        /* \"#utility.yul\":15079:15093   */\n      add\n        /* \"#utility.yul\":15072:15128   */\n      mstore\n        /* \"#utility.yul\":14955:15135   */\n      pop\n      jump\t// out\n        /* \"#utility.yul\":15141:15507   */\n    tag_410:\n        /* \"#utility.yul\":15283:15286   */\n      0x00\n        /* \"#utility.yul\":15304:15371   */\n      tag_552\n        /* \"#utility.yul\":15368:15370   */\n      0x1e\n        /* \"#utility.yul\":15363:15366   */\n      dup4\n        /* \"#utility.yul\":15304:15371   */\n      tag_397\n      jump\t// in\n    tag_552:\n        /* \"#utility.yul\":15297:15371   */\n      swap2\n      pop\n        /* \"#utility.yul\":15380:15473   */\n      tag_553\n        /* \"#utility.yul\":15469:15472   */\n      dup3\n        /* \"#utility.yul\":15380:15473   */\n      tag_409\n      jump\t// in\n    tag_553:\n        /* \"#utility.yul\":15498:15500   */\n      0x20\n        /* \"#utility.yul\":15493:15496   */\n      dup3\n        /* \"#utility.yul\":15489:15501   */\n      add\n        /* \"#utility.yul\":15482:15501   */\n      swap1\n      pop\n        /* \"#utility.yul\":15141:15507   */\n      swap2\n      swap1\n      pop\n      jump\t// out\n        /* \"#utility.yul\":15513:15932   */\n    tag_222:\n        /* \"#utility.yul\":15679:15683   */\n      0x00\n        /* \"#utility.yul\":15717:15719   */\n      0x20\n        /* \"#utility.yul\":15706:15715   */\n      dup3\n        /* \"#utility.yul\":15702:15720   */\n      add\n        /* \"#utility.yul\":15694:15720   */\n      swap1\n      pop\n        /* \"#utility.yul\":15766:15775   */\n      dup2\n        /* \"#utility.yul\":15760:15764   */\n      dup2\n        /* \"#utility.yul\":15756:15776   */\n      sub\n        /* \"#utility.yul\":15752:15753   */\n      0x00\n        /* \"#utility.yul\":15741:15750   */\n      dup4\n        /* \"#utility.yul\":15737:15754   */\n      add\n        /* \"#utility.yul\":15730:15777   */\n      mstore\n        /* \"#utility.yul\":15794:15925   */\n      tag_555\n        /* \"#utility.yul\":15920:15924   */\n      dup2\n        /* \"#utility.yul\":15794:15925   */\n      tag_410\n      jump\t// in\n    tag_555:\n        /* \"#utility.yul\":15786:15925   */\n      swap1\n      pop\n        /* \"#utility.yul\":15513:15932   */\n      swap2\n      swap1\n      pop\n      jump\t// out\n        /* \"#utility.yul\":15938:16014   */\n    tag_411:\n        /* \"#utility.yul\":15974:15981   */\n      0x00\n        /* \"#utility.yul\":16003:16008   */\n      dup2\n        /* \"#utility.yul\":15992:16008   */\n      swap1\n      pop\n        /* \"#utility.yul\":15938:16014   */\n      swap2\n      swap1\n      pop\n      jump\t// out\n        /* \"#utility.yul\":16020:16547   */\n    tag_296:\n        /* \"#utility.yul\":16059:16063   */\n      0x00\n        /* \"#utility.yul\":16079:16098   */\n      tag_558\n        /* \"#utility.yul\":16096:16097   */\n      dup3\n        /* \"#utility.yul\":16079:16098   */\n      tag_411\n      jump\t// in\n    tag_558:\n        /* \"#utility.yul\":16074:16098   */\n      swap2\n      pop\n        /* \"#utility.yul\":16112:16131   */\n      tag_559\n        /* \"#utility.yul\":16129:16130   */\n      dup4\n        /* \"#utility.yul\":16112:16131   */\n      tag_411\n      jump\t// in\n    tag_559:\n        /* \"#utility.yul\":16107:16131   */\n      swap3\n      pop\n        /* \"#utility.yul\":16301:16302   */\n      dup3\n        /* \"#utility.yul\":16233:16299   */\n      0x8000000000000000000000000000000000000000000000000000000000000000\n        /* \"#utility.yul\":16229:16303   */\n      add\n        /* \"#utility.yul\":16226:16227   */\n      dup3\n        /* \"#utility.yul\":16222:16304   */\n      slt\n        /* \"#utility.yul\":16217:16218   */\n      0x00\n        /* \"#utility.yul\":16214:16215   */\n      dup5\n        /* \"#utility.yul\":16210:16219   */\n      slt\n        /* \"#utility.yul\":16203:16220   */\n      iszero\n        /* \"#utility.yul\":16199:16305   */\n      and\n        /* \"#utility.yul\":16196:16328   */\n      iszero\n      tag_560\n      jumpi\n        /* \"#utility.yul\":16308:16326   */\n      tag_561\n      tag_396\n      jump\t// in\n    tag_561:\n        /* \"#utility.yul\":16196:16328   */\n    tag_560:\n        /* \"#utility.yul\":16487:16488   */\n      dup3\n        /* \"#utility.yul\":16419:16485   */\n      0x7fffffffffffffffffffffffffffffffffffffffffffffffffffffffffffffff\n        /* \"#utility.yul\":16415:16489   */\n      add\n        /* \"#utility.yul\":16412:16413   */\n      dup3\n        /* \"#utility.yul\":16408:16490   */\n      sgt\n        /* \"#utility.yul\":16404:16405   */\n      0x00\n        /* \"#utility.yul\":16401:16402   */\n      dup5\n        /* \"#utility.yul\":16397:16406   */\n      slt\n        /* \"#utility.yul\":16393:16491   */\n      and\n        /* \"#utility.yul\":16390:16514   */\n      iszero\n      tag_562\n      jumpi\n        /* \"#utility.yul\":16494:16512   */\n      tag_563\n      tag_396\n      jump\t// in\n    tag_563:\n        /* \"#utility.yul\":16390:16514   */\n    tag_562:\n        /* \"#utility.yul\":16539:16540   */\n      dup3\n        /* \"#utility.yul\":16536:16537   */\n      dup3\n        /* \"#utility.yul\":16532:16541   */\n      sub\n        /* \"#utility.yul\":16524:16541   */\n      swap1\n      pop\n        /* \"#utility.yul\":16020:16547   */\n      swap3\n      swap2\n      pop\n      pop\n      jump\t// out\n        /* \"#utility.yul\":16553:16938   */\n    tag_298:\n        /* \"#utility.yul\":16592:16593   */\n      0x00\n        /* \"#utility.yul\":16609:16628   */\n      tag_565\n        /* \"#utility.yul\":16626:16627   */\n      dup3\n        /* \"#utility.yul\":16609:16628   */\n      tag_411\n      jump\t// in\n    tag_565:\n        /* \"#utility.yul\":16604:16628   */\n      swap2\n      pop\n        /* \"#utility.yul\":16642:16661   */\n      tag_566\n        /* \"#utility.yul\":16659:16660   */\n      dup4\n        /* \"#utility.yul\":16642:16661   */\n      tag_411\n      jump\t// in\n    tag_566:\n        /* \"#utility.yul\":16637:16661   */\n      swap3\n      pop\n        /* \"#utility.yul\":16680:16681   */\n      dup3\n        /* \"#utility.yul\":16670:16705   */\n      tag_567\n      jumpi\n        /* \"#utility.yul\":16685:16703   */\n      tag_568\n      tag_406\n      jump\t// in\n    tag_568:\n        /* \"#utility.yul\":16670:16705   */\n    tag_567:\n        /* \"#utility.yul\":16871:16872   */\n      0x01\n        /* \"#utility.yul\":16868:16869   */\n      0x00\n        /* \"#utility.yul\":16864:16873   */\n      sub\n        /* \"#utility.yul\":16861:16862   */\n      dup4\n        /* \"#utility.yul\":16858:16874   */\n      eq\n        /* \"#utility.yul\":16777:16843   */\n      0x8000000000000000000000000000000000000000000000000000000000000000\n        /* \"#utility.yul\":16774:16775   */\n      dup4\n        /* \"#utility.yul\":16771:16844   */\n      eq\n        /* \"#utility.yul\":16754:16884   */\n      and\n        /* \"#utility.yul\":16751:16907   */\n      iszero\n      tag_569\n      jumpi\n        /* \"#utility.yul\":16887:16905   */\n      tag_570\n      tag_396\n      jump\t// in\n    tag_570:\n        /* \"#utility.yul\":16751:16907   */\n    tag_569:\n        /* \"#utility.yul\":16930:16931   */\n      dup3\n        /* \"#utility.yul\":16927:16928   */\n      dup3\n        /* \"#utility.yul\":16922:16932   */\n      sdiv\n        /* \"#utility.yul\":16917:16932   */\n      swap1\n      pop\n        /* \"#utility.yul\":16553:16938   */\n      swap3\n      swap2\n      pop\n      pop\n      jump\t// out\n        /* \"#utility.yul\":16944:17469   */\n    tag_300:\n        /* \"#utility.yul\":16983:16986   */\n      0x00\n        /* \"#utility.yul\":17002:17021   */\n      tag_572\n        /* \"#utility.yul\":17019:17020   */\n      dup3\n        /* \"#utility.yul\":17002:17021   */\n      tag_411\n      jump\t// in\n    tag_572:\n        /* \"#utility.yul\":16997:17021   */\n      swap2\n      pop\n        /* \"#utility.yul\":17035:17054   */\n      tag_573\n        /* \"#utility.yul\":17052:17053   */\n      dup4\n        /* \"#utility.yul\":17035:17054   */\n      tag_411\n      jump\t// in\n    tag_573:\n        /* \"#utility.yul\":17030:17054   */\n      swap3\n      pop\n        /* \"#utility.yul\":17223:17224   */\n      dup2\n        /* \"#utility.yul\":17155:17221   */\n      0x7fffffffffffffffffffffffffffffffffffffffffffffffffffffffffffffff\n        /* \"#utility.yul\":17151:17225   */\n      sub\n        /* \"#utility.yul\":17148:17149   */\n      dup4\n        /* \"#utility.yul\":17144:17226   */\n      sgt\n        /* \"#utility.yul\":17139:17140   */\n      0x00\n        /* \"#utility.yul\":17136:17137   */\n      dup4\n        /* \"#utility.yul\":17132:17141   */\n      slt\n        /* \"#utility.yul\":17125:17142   */\n      iszero\n        /* \"#utility.yul\":17121:17227   */\n      and\n        /* \"#utility.yul\":17118:17250   */\n      iszero\n      tag_574\n      jumpi\n        /* \"#utility.yul\":17230:17248   */\n      tag_575\n      tag_396\n      jump\t// in\n    tag_575:\n        /* \"#utility.yul\":17118:17250   */\n    tag_574:\n        /* \"#utility.yul\":17410:17411   */\n      dup2\n        /* \"#utility.yul\":17342:17408   */\n      0x8000000000000000000000000000000000000000000000000000000000000000\n        /* \"#utility.yul\":17338:17412   */\n      sub\n        /* \"#utility.yul\":17335:17336   */\n      dup4\n        /* \"#utility.yul\":17331:17413   */\n      slt\n        /* \"#utility.yul\":17327:17328   */\n      0x00\n        /* \"#utility.yul\":17324:17325   */\n      dup4\n        /* \"#utility.yul\":17320:17329   */\n      slt\n        /* \"#utility.yul\":17316:17414   */\n      and\n        /* \"#utility.yul\":17313:17437   */\n      iszero\n      tag_576\n      jumpi\n        /* \"#utility.yul\":17417:17435   */\n      tag_577\n      tag_396\n      jump\t// in\n    tag_577:\n        /* \"#utility.yul\":17313:17437   */\n    tag_576:\n        /* \"#utility.yul\":17461:17462   */\n      dup3\n        /* \"#utility.yul\":17458:17459   */\n      dup3\n        /* \"#utility.yul\":17454:17463   */\n      add\n        /* \"#utility.yul\":17447:17463   */\n      swap1\n      pop\n        /* \"#utility.yul\":16944:17469   */\n      swap3\n      swap2\n      pop\n      pop\n      jump\t// out\n        /* \"#utility.yul\":17475:17706   */\n    tag_310:\n        /* \"#utility.yul\":17513:17516   */\n      0x00\n        /* \"#utility.yul\":17536:17559   */\n      tag_579\n        /* \"#utility.yul\":17553:17558   */\n      dup3\n        /* \"#utility.yul\":17536:17559   */\n      tag_411\n      jump\t// in\n    tag_579:\n        /* \"#utility.yul\":17527:17559   */\n      swap2\n      pop\n        /* \"#utility.yul\":17581:17647   */\n      0x7fffffffffffffffffffffffffffffffffffffffffffffffffffffffffffffff\n        /* \"#utility.yul\":17574:17579   */\n      dup3\n        /* \"#utility.yul\":17571:17648   */\n      sub\n        /* \"#utility.yul\":17568:17671   */\n      tag_580\n      jumpi\n        /* \"#utility.yul\":17651:17669   */\n      tag_581\n      tag_396\n      jump\t// in\n    tag_581:\n        /* \"#utility.yul\":17568:17671   */\n    tag_580:\n        /* \"#utility.yul\":17698:17699   */\n      0x01\n        /* \"#utility.yul\":17691:17696   */\n      dup3\n        /* \"#utility.yul\":17687:17700   */\n      add\n        /* \"#utility.yul\":17680:17700   */\n      swap1\n      pop\n        /* \"#utility.yul\":17475:17706   */\n      swap2\n      swap1\n      pop\n      jump\t// out\n        /* \"#utility.yul\":17712:17943   */\n    tag_316:\n        /* \"#utility.yul\":17750:17753   */\n      0x00\n        /* \"#utility.yul\":17773:17796   */\n      tag_583\n        /* \"#utility.yul\":17790:17795   */\n      dup3\n        /* \"#utility.yul\":17773:17796   */\n      tag_411\n      jump\t// in\n    tag_583:\n        /* \"#utility.yul\":17764:17796   */\n      swap2\n      pop\n        /* \"#utility.yul\":17818:17884   */\n      0x8000000000000000000000000000000000000000000000000000000000000000\n        /* \"#utility.yul\":17811:17816   */\n      dup3\n        /* \"#utility.yul\":17808:17885   */\n      sub\n        /* \"#utility.yul\":17805:17908   */\n      tag_584\n      jumpi\n        /* \"#utility.yul\":17888:17906   */\n      tag_585\n      tag_396\n      jump\t// in\n    tag_585:\n        /* \"#utility.yul\":17805:17908   */\n    tag_584:\n        /* \"#utility.yul\":17935:17936   */\n      0x01\n        /* \"#utility.yul\":17928:17933   */\n      dup3\n        /* \"#utility.yul\":17924:17937   */\n      sub\n        /* \"#utility.yul\":17917:17937   */\n      swap1\n      pop\n        /* \"#utility.yul\":17712:17943   */\n      swap2\n      swap1\n      pop\n      jump\t// out\n\n    auxdata: 0xa26469706673582212200e8c921f4e4d016ae5fbbd618963893df0d49183fc3f98d0c8482142771e569464736f6c634300080d0033\n}\n",
				"bytecode": {
					"linkReferences": {},
					"object": "60806040523480156200001157600080fd5b50604051620025b2380380620025b28339818101604052810190620000379190620000c5565b336000806101000a81548173ffffffffffffffffffffffffffffffffffffffff021916908373ffffffffffffffffffffffffffffffffffffffff1602179055508060018190555050620000f7565b600080fd5b6000819050919050565b6200009f816200008a565b8114620000ab57600080fd5b50565b600081519050620000bf8162000094565b92915050565b600060208284031215620000de57620000dd62000085565b5b6000620000ee84828501620000ae565b91505092915050565b6124ab80620001076000396000f3fe6080604052600436106100e85760003560e01c8063734a2e781161008a578063bf77ffae11610059578063bf77ffae146102dd578063c5374af21461031a578063ce0cdc8714610345578063db3a139614610370576100e8565b8063734a2e781461023f57806378c5b2681461027c5780639703ef35146102985780639979ef45146102c1576100e8565b80632db6dfa7116100c65780632db6dfa71461015d5780634471417f1461019a5780634d46712d146101c557806369f632e214610202576100e8565b8063012e0153146100ed578063122de8f2146101095780631628e0f514610134575b600080fd5b61010760048036038101906101029190611ab9565b6103ad565b005b34801561011557600080fd5b5061011e6103b0565b60405161012b9190611ba4565b60405180910390f35b34801561014057600080fd5b5061015b60048036038101906101569190611ab9565b6104d6565b005b34801561016957600080fd5b50610184600480360381019061017f9190611ab9565b61080d565b6040516101919190611bd5565b60405180910390f35b3480156101a657600080fd5b506101af61083c565b6040516101bc9190611dac565b60405180910390f35b3480156101d157600080fd5b506101ec60048036038101906101e79190611ab9565b610940565b6040516101f99190611ddd565b60405180910390f35b34801561020e57600080fd5b5061022960048036038101906102249190611ab9565b61097c565b6040516102369190611e07565b60405180910390f35b34801561024b57600080fd5b5061026660048036038101906102619190611ab9565b6109cb565b6040516102739190611e07565b60405180910390f35b61029660048036038101906102919190611ab9565b610a1a565b005b3480156102a457600080fd5b506102bf60048036038101906102ba9190611ab9565b610c82565b005b6102db60048036038101906102d69190611ab9565b610fb9565b005b3480156102e957600080fd5b5061030460048036038101906102ff9190611ab9565b611221565b6040516103119190611ddd565b60405180910390f35b34801561032657600080fd5b5061032f61125d565b60405161033c9190611dac565b60405180910390f35b34801561035157600080fd5b5061035a611361565b6040516103679190611ba4565b60405180910390f35b34801561037c57600080fd5b5061039760048036038101906103929190611ab9565b611487565b6040516103a49190611bd5565b60405180910390f35b50565b60606103ba6114b6565b60005b60038054905081101561047f573373ffffffffffffffffffffffffffffffffffffffff16600382815481106103f5576103f4611e22565b5b906000526020600020906004020160000160009054906101000a900473ffffffffffffffffffffffffffffffffffffffff1673ffffffffffffffffffffffffffffffffffffffff160361046c5760048190806001815401808255809150506001900390600052602060002001600090919091909150555b808061047790611e80565b9150506103bd565b5060048054806020026020016040519081016040528092919081815260200182805480156104cc57602002820191906000526020600020905b8154815260200190600101908083116104b8575b5050505050905090565b600381815481106104ea576104e9611e22565b5b90600052602060002090600402016040518060800160405290816000820160009054906101000a900473ffffffffffffffffffffffffffffffffffffffff1673ffffffffffffffffffffffffffffffffffffffff1673ffffffffffffffffffffffffffffffffffffffff16815260200160018201548152602001600282015481526020016003820160009054906101000a900460ff16600181111561059257610591611c5d565b5b60018111156105a4576105a3611c5d565b5b81525050600060018111156105bc576105bb611c5d565b5b816060015160018111156105d3576105d2611c5d565b5b14610613576040517f08c379a000000000000000000000000000000000000000000000000000000000815260040161060a90611f25565b60405180910390fd5b6003828154811061062757610626611e22565b5b90600052602060002090600402016040518060800160405290816000820160009054906101000a900473ffffffffffffffffffffffffffffffffffffffff1673ffffffffffffffffffffffffffffffffffffffff1673ffffffffffffffffffffffffffffffffffffffff16815260200160018201548152602001600282015481526020016003820160009054906101000a900460ff1660018111156106cf576106ce611c5d565b5b60018111156106e1576106e0611c5d565b5b81525050338073ffffffffffffffffffffffffffffffffffffffff16826000015173ffffffffffffffffffffffffffffffffffffffff1614610758576040517f08c379a000000000000000000000000000000000000000000000000000000000815260040161074f90611f91565b60405180910390fd5b6003848154811061076c5761076b611e22565b5b9060005260206000209060040201600080820160006101000a81549073ffffffffffffffffffffffffffffffffffffffff0219169055600182016000905560028201600090556003820160006101000a81549060ff021916905550506107d06114fe565b7f48d3043fff66c1aee14954ac5aa463b0297fb08c9b60ee00486fb3387bb58aac846040516107ff9190611bd5565b60405180910390a150505050565b60006002828154811061082357610822611e22565b5b9060005260206000209060040201600101549050919050565b60606002805480602002602001604051908101604052809291908181526020016000905b8282101561093757838290600052602060002090600402016040518060800160405290816000820160009054906101000a900473ffffffffffffffffffffffffffffffffffffffff1673ffffffffffffffffffffffffffffffffffffffff1673ffffffffffffffffffffffffffffffffffffffff16815260200160018201548152602001600282015481526020016003820160009054906101000a900460ff16600181111561091257610911611c5d565b5b600181111561092457610923611c5d565b5b8152505081526020019060010190610860565b50505050905090565b60006003828154811061095657610955611e22565b5b906000526020600020906004020160030160009054906101000a900460ff169050919050565b60006002828154811061099257610991611e22565b5b906000526020600020906004020160000160009054906101000a900473ffffffffffffffffffffffffffffffffffffffff169050919050565b6000600382815481106109e1576109e0611e22565b5b906000526020600020906004020160000160009054906101000a900473ffffffffffffffffffffffffffffffffffffffff169050919050565b6000811015610a5e576040517f08c379a0000000000000000000000000000000000000000000000000000000008152600401610a5590611ffd565b60405180910390fd5b80341015610aa1576040517f08c379a0000000000000000000000000000000000000000000000000000000008152600401610a9890612069565b60405180910390fd5b6000429050600060646001546064610ab99190612089565b34610ac491906120bd565b610ace9190612146565b9050600060405180608001604052803373ffffffffffffffffffffffffffffffffffffffff16815260200183815260200184815260200160006001811115610b1957610b18611c5d565b5b8152509050600381908060018154018082558091505060019003906000526020600020906004020160009091909190915060008201518160000160006101000a81548173ffffffffffffffffffffffffffffffffffffffff021916908373ffffffffffffffffffffffffffffffffffffffff160217905550602082015181600101556040820151816002015560608201518160030160006101000a81548160ff02191690836001811115610bd057610bcf611c5d565b5b0217905550505060008054906101000a900473ffffffffffffffffffffffffffffffffffffffff1673ffffffffffffffffffffffffffffffffffffffff166108fc839081150290604051600060405180830381858888f19350505050158015610c3d573d6000803e3d6000fd5b507fc2125a7f3edfeff7a3bbcfe393c5aa3a6589585d4a7ee70db48c34f67c8209e23383856000604051610c749493929190612198565b60405180910390a150505050565b60028181548110610c9657610c95611e22565b5b90600052602060002090600402016040518060800160405290816000820160009054906101000a900473ffffffffffffffffffffffffffffffffffffffff1673ffffffffffffffffffffffffffffffffffffffff1673ffffffffffffffffffffffffffffffffffffffff16815260200160018201548152602001600282015481526020016003820160009054906101000a900460ff166001811115610d3e57610d3d611c5d565b5b6001811115610d5057610d4f611c5d565b5b8152505060006001811115610d6857610d67611c5d565b5b81606001516001811115610d7f57610d7e611c5d565b5b14610dbf576040517f08c379a0000000000000000000000000000000000000000000000000000000008152600401610db690611f25565b60405180910390fd5b60028281548110610dd357610dd2611e22565b5b90600052602060002090600402016040518060800160405290816000820160009054906101000a900473ffffffffffffffffffffffffffffffffffffffff1673ffffffffffffffffffffffffffffffffffffffff1673ffffffffffffffffffffffffffffffffffffffff16815260200160018201548152602001600282015481526020016003820160009054906101000a900460ff166001811115610e7b57610e7a611c5d565b5b6001811115610e8d57610e8c611c5d565b5b81525050338073ffffffffffffffffffffffffffffffffffffffff16826000015173ffffffffffffffffffffffffffffffffffffffff1614610f04576040517f08c379a0000000000000000000000000000000000000000000000000000000008152600401610efb90611f91565b60405180910390fd5b60028481548110610f1857610f17611e22565b5b9060005260206000209060040201600080820160006101000a81549073ffffffffffffffffffffffffffffffffffffffff0219169055600182016000905560028201600090556003820160006101000a81549060ff02191690555050610f7c611619565b7fc845a6832afa0a4048dd70bbba2186093508a6b63a8d5d70a508f819fef257f884604051610fab9190611bd5565b60405180910390a150505050565b6000811015610ffd576040517f08c379a0000000000000000000000000000000000000000000000000000000008152600401610ff490611ffd565b60405180910390fd5b80341015611040576040517f08c379a000000000000000000000000000000000000000000000000000000000815260040161103790612229565b60405180910390fd5b60004290506000606460015460646110589190612089565b3461106391906120bd565b61106d9190612146565b9050600060405180608001604052803373ffffffffffffffffffffffffffffffffffffffff168152602001838152602001848152602001600060018111156110b8576110b7611c5d565b5b8152509050600281908060018154018082558091505060019003906000526020600020906004020160009091909190915060008201518160000160006101000a81548173ffffffffffffffffffffffffffffffffffffffff021916908373ffffffffffffffffffffffffffffffffffffffff160217905550602082015181600101556040820151816002015560608201518160030160006101000a81548160ff0219169083600181111561116f5761116e611c5d565b5b0217905550505060008054906101000a900473ffffffffffffffffffffffffffffffffffffffff1673ffffffffffffffffffffffffffffffffffffffff166108fc839081150290604051600060405180830381858888f193505050501580156111dc573d6000803e3d6000fd5b507fa64806d6d5d480697a0b11c92b915a4ff7b93c0be28171d65d30041a0c360d0433838560006040516112139493929190612198565b60405180910390a150505050565b60006002828154811061123757611236611e22565b5b906000526020600020906004020160030160009054906101000a900460ff169050919050565b60606003805480602002602001604051908101604052809291908181526020016000905b8282101561135857838290600052602060002090600402016040518060800160405290816000820160009054906101000a900473ffffffffffffffffffffffffffffffffffffffff1673ffffffffffffffffffffffffffffffffffffffff1673ffffffffffffffffffffffffffffffffffffffff16815260200160018201548152602001600282015481526020016003820160009054906101000a900460ff16600181111561133357611332611c5d565b5b600181111561134557611344611c5d565b5b8152505081526020019060010190611281565b50505050905090565b606061136b6114b6565b60005b600280549050811015611430573373ffffffffffffffffffffffffffffffffffffffff16600282815481106113a6576113a5611e22565b5b906000526020600020906004020160000160009054906101000a900473ffffffffffffffffffffffffffffffffffffffff1673ffffffffffffffffffffffffffffffffffffffff160361141d5760048190806001815401808255809150506001900390600052602060002001600090919091909150555b808061142890611e80565b91505061136e565b50600480548060200260200160405190810160405280929190818152602001828054801561147d57602002820191906000526020600020905b815481526020019060010190808311611469575b5050505050905090565b60006003828154811061149d5761149c611e22565b5b9060005260206000209060040201600101549050919050565b60005b6004805490508110156114fb57600481815481106114da576114d9611e22565b5b906000526020600020016000905580806114f390611e80565b9150506114b9565b50565b6116176002805480602002602001604051908101604052809291908181526020016000905b828210156115fa57838290600052602060002090600402016040518060800160405290816000820160009054906101000a900473ffffffffffffffffffffffffffffffffffffffff1673ffffffffffffffffffffffffffffffffffffffff1673ffffffffffffffffffffffffffffffffffffffff16815260200160018201548152602001600282015481526020016003820160009054906101000a900460ff1660018111156115d5576115d4611c5d565b5b60018111156115e7576115e6611c5d565b5b8152505081526020019060010190611523565b50505050600060016002805490506116129190612089565b611734565b565b6117326002805480602002602001604051908101604052809291908181526020016000905b8282101561171557838290600052602060002090600402016040518060800160405290816000820160009054906101000a900473ffffffffffffffffffffffffffffffffffffffff1673ffffffffffffffffffffffffffffffffffffffff1673ffffffffffffffffffffffffffffffffffffffff16815260200160018201548152602001600282015481526020016003820160009054906101000a900460ff1660018111156116f0576116ef611c5d565b5b600181111561170257611701611c5d565b5b815250508152602001906001019061163e565b505050506000600160028054905061172d9190612089565b6118d9565b565b6000829050600082905080820361174c5750506118d4565b6000856002868661175d9190612253565b61176791906122e7565b866117729190612351565b8151811061178357611782611e22565b5b60200260200101516040015190505b8183136118a8575b808684815181106117ae576117ad611e22565b5b60200260200101516040015111156117d35782806117cb906123e5565b93505061179a565b5b8582815181106117e7576117e6611e22565b5b60200260200101516040015181111561180d5781806118059061242d565b9250506117d4565b8183136118a35785828151811061182757611826611e22565b5b602002602001015186848151811061184257611841611e22565b5b602002602001015187858151811061185d5761185c611e22565b5b6020026020010188858151811061187757611876611e22565b5b6020026020010182905282905250508280611891906123e5565b935050818061189f9061242d565b9250505b611792565b818512156118bc576118bb868684611734565b5b838312156118d0576118cf868486611734565b5b5050505b505050565b600082905060008290508082036118f1575050611a79565b600085600286866119029190612253565b61190c91906122e7565b866119179190612351565b8151811061192857611927611e22565b5b60200260200101516040015190505b818313611a4d575b8086848151811061195357611952611e22565b5b6020026020010151604001511015611978578280611970906123e5565b93505061193f565b5b85828151811061198c5761198b611e22565b5b6020026020010151604001518110156119b25781806119aa9061242d565b925050611979565b818313611a48578582815181106119cc576119cb611e22565b5b60200260200101518684815181106119e7576119e6611e22565b5b6020026020010151878581518110611a0257611a01611e22565b5b60200260200101888581518110611a1c57611a1b611e22565b5b6020026020010182905282905250508280611a36906123e5565b9350508180611a449061242d565b9250505b611937565b81851215611a6157611a608686846118d9565b5b83831215611a7557611a748684866118d9565b5b5050505b505050565b600080fd5b6000819050919050565b611a9681611a83565b8114611aa157600080fd5b50565b600081359050611ab381611a8d565b92915050565b600060208284031215611acf57611ace611a7e565b5b6000611add84828501611aa4565b91505092915050565b600081519050919050565b600082825260208201905092915050565b6000819050602082019050919050565b611b1b81611a83565b82525050565b6000611b2d8383611b12565b60208301905092915050565b6000602082019050919050565b6000611b5182611ae6565b611b5b8185611af1565b9350611b6683611b02565b8060005b83811015611b97578151611b7e8882611b21565b9750611b8983611b39565b925050600181019050611b6a565b5085935050505092915050565b60006020820190508181036000830152611bbe8184611b46565b905092915050565b611bcf81611a83565b82525050565b6000602082019050611bea6000830184611bc6565b92915050565b600081519050919050565b600082825260208201905092915050565b6000819050602082019050919050565b600073ffffffffffffffffffffffffffffffffffffffff82169050919050565b6000611c4782611c1c565b9050919050565b611c5781611c3c565b82525050565b7f4e487b7100000000000000000000000000000000000000000000000000000000600052602160045260246000fd5b60028110611c9d57611c9c611c5d565b5b50565b6000819050611cae82611c8c565b919050565b6000611cbe82611ca0565b9050919050565b611cce81611cb3565b82525050565b608082016000820151611cea6000850182611c4e565b506020820151611cfd6020850182611b12565b506040820151611d106040850182611b12565b506060820151611d236060850182611cc5565b50505050565b6000611d358383611cd4565b60808301905092915050565b6000602082019050919050565b6000611d5982611bf0565b611d638185611bfb565b9350611d6e83611c0c565b8060005b83811015611d9f578151611d868882611d29565b9750611d9183611d41565b925050600181019050611d72565b5085935050505092915050565b60006020820190508181036000830152611dc68184611d4e565b905092915050565b611dd781611cb3565b82525050565b6000602082019050611df26000830184611dce565b92915050565b611e0181611c3c565b82525050565b6000602082019050611e1c6000830184611df8565b92915050565b7f4e487b7100000000000000000000000000000000000000000000000000000000600052603260045260246000fd5b7f4e487b7100000000000000000000000000000000000000000000000000000000600052601160045260246000fd5b6000611e8b82611a83565b91507fffffffffffffffffffffffffffffffffffffffffffffffffffffffffffffffff8203611ebd57611ebc611e51565b5b600182019050919050565b600082825260208201905092915050565b7f4f726465722050656e64696e6700000000000000000000000000000000000000600082015250565b6000611f0f600d83611ec8565b9150611f1a82611ed9565b602082019050919050565b60006020820190508181036000830152611f3e81611f02565b9050919050565b7f4e6f7420417574686f7269736564000000000000000000000000000000000000600082015250565b6000611f7b600e83611ec8565b9150611f8682611f45565b602082019050919050565b60006020820190508181036000830152611faa81611f6e565b9050919050565b7f70726963652076616c7565206d757374206265206d6f7265207468616e203000600082015250565b6000611fe7601f83611ec8565b9150611ff282611fb1565b602082019050919050565b6000602082019050818103600083015261201681611fda565b9050919050565b7f4e6f7420656e6f75676820626c616e636520746f20706c6163652061736b0000600082015250565b6000612053601e83611ec8565b915061205e8261201d565b602082019050919050565b6000602082019050818103600083015261208281612046565b9050919050565b600061209482611a83565b915061209f83611a83565b9250828210156120b2576120b1611e51565b5b828203905092915050565b60006120c882611a83565b91506120d383611a83565b9250817fffffffffffffffffffffffffffffffffffffffffffffffffffffffffffffffff048311821515161561210c5761210b611e51565b5b828202905092915050565b7f4e487b7100000000000000000000000000000000000000000000000000000000600052601260045260246000fd5b600061215182611a83565b915061215c83611a83565b92508261216c5761216b612117565b5b828204905092915050565b600061218282611c1c565b9050919050565b61219281612177565b82525050565b60006080820190506121ad6000830187612189565b6121ba6020830186611bc6565b6121c76040830185611bc6565b6121d46060830184611dce565b95945050505050565b7f4e6f7420656e6f75676820626c616e636520746f20706c616365206269640000600082015250565b6000612213601e83611ec8565b915061221e826121dd565b602082019050919050565b6000602082019050818103600083015261224281612206565b9050919050565b6000819050919050565b600061225e82612249565b915061226983612249565b9250827f8000000000000000000000000000000000000000000000000000000000000000018212600084121516156122a4576122a3611e51565b5b827f7fffffffffffffffffffffffffffffffffffffffffffffffffffffffffffffff0182136000841216156122dc576122db611e51565b5b828203905092915050565b60006122f282612249565b91506122fd83612249565b92508261230d5761230c612117565b5b600160000383147f80000000000000000000000000000000000000000000000000000000000000008314161561234657612345611e51565b5b828205905092915050565b600061235c82612249565b915061236783612249565b9250817f7fffffffffffffffffffffffffffffffffffffffffffffffffffffffffffffff038313600083121516156123a2576123a1611e51565b5b817f80000000000000000000000000000000000000000000000000000000000000000383126000831216156123da576123d9611e51565b5b828201905092915050565b60006123f082612249565b91507f7fffffffffffffffffffffffffffffffffffffffffffffffffffffffffffffff820361242257612421611e51565b5b600182019050919050565b600061243882612249565b91507f8000000000000000000000000000000000000000000000000000000000000000820361246a57612469611e51565b5b60018203905091905056fea26469706673582212200e8c921f4e4d016ae5fbbd618963893df0d49183fc3f98d0c8482142771e569464736f6c634300080d0033",
					"opcodes": "PUSH1 0x80 PUSH1 0x40 MSTORE CALLVALUE DUP1 ISZERO PUSH3 0x11 JUMPI PUSH1 0x0 DUP1 REVERT JUMPDEST POP PUSH1 0x40 MLOAD PUSH3 0x25B2 CODESIZE SUB DUP1 PUSH3 0x25B2 DUP4 CODECOPY DUP2 DUP2 ADD PUSH1 0x40 MSTORE DUP2 ADD SWAP1 PUSH3 0x37 SWAP2 SWAP1 PUSH3 0xC5 JUMP JUMPDEST CALLER PUSH1 0x0 DUP1 PUSH2 0x100 EXP DUP2 SLOAD DUP2 PUSH20 0xFFFFFFFFFFFFFFFFFFFFFFFFFFFFFFFFFFFFFFFF MUL NOT AND SWAP1 DUP4 PUSH20 0xFFFFFFFFFFFFFFFFFFFFFFFFFFFFFFFFFFFFFFFF AND MUL OR SWAP1 SSTORE POP DUP1 PUSH1 0x1 DUP2 SWAP1 SSTORE POP POP PUSH3 0xF7 JUMP JUMPDEST PUSH1 0x0 DUP1 REVERT JUMPDEST PUSH1 0x0 DUP2 SWAP1 POP SWAP2 SWAP1 POP JUMP JUMPDEST PUSH3 0x9F DUP2 PUSH3 0x8A JUMP JUMPDEST DUP2 EQ PUSH3 0xAB JUMPI PUSH1 0x0 DUP1 REVERT JUMPDEST POP JUMP JUMPDEST PUSH1 0x0 DUP2 MLOAD SWAP1 POP PUSH3 0xBF DUP2 PUSH3 0x94 JUMP JUMPDEST SWAP3 SWAP2 POP POP JUMP JUMPDEST PUSH1 0x0 PUSH1 0x20 DUP3 DUP5 SUB SLT ISZERO PUSH3 0xDE JUMPI PUSH3 0xDD PUSH3 0x85 JUMP JUMPDEST JUMPDEST PUSH1 0x0 PUSH3 0xEE DUP5 DUP3 DUP6 ADD PUSH3 0xAE JUMP JUMPDEST SWAP2 POP POP SWAP3 SWAP2 POP POP JUMP JUMPDEST PUSH2 0x24AB DUP1 PUSH3 0x107 PUSH1 0x0 CODECOPY PUSH1 0x0 RETURN INVALID PUSH1 0x80 PUSH1 0x40 MSTORE PUSH1 0x4 CALLDATASIZE LT PUSH2 0xE8 JUMPI PUSH1 0x0 CALLDATALOAD PUSH1 0xE0 SHR DUP1 PUSH4 0x734A2E78 GT PUSH2 0x8A JUMPI DUP1 PUSH4 0xBF77FFAE GT PUSH2 0x59 JUMPI DUP1 PUSH4 0xBF77FFAE EQ PUSH2 0x2DD JUMPI DUP1 PUSH4 0xC5374AF2 EQ PUSH2 0x31A JUMPI DUP1 PUSH4 0xCE0CDC87 EQ PUSH2 0x345 JUMPI DUP1 PUSH4 0xDB3A1396 EQ PUSH2 0x370 JUMPI PUSH2 0xE8 JUMP JUMPDEST DUP1 PUSH4 0x734A2E78 EQ PUSH2 0x23F JUMPI DUP1 PUSH4 0x78C5B268 EQ PUSH2 0x27C JUMPI DUP1 PUSH4 0x9703EF35 EQ PUSH2 0x298 JUMPI DUP1 PUSH4 0x9979EF45 EQ PUSH2 0x2C1 JUMPI PUSH2 0xE8 JUMP JUMPDEST DUP1 PUSH4 0x2DB6DFA7 GT PUSH2 0xC6 JUMPI DUP1 PUSH4 0x2DB6DFA7 EQ PUSH2 0x15D JUMPI DUP1 PUSH4 0x4471417F EQ PUSH2 0x19A JUMPI DUP1 PUSH4 0x4D46712D EQ PUSH2 0x1C5 JUMPI DUP1 PUSH4 0x69F632E2 EQ PUSH2 0x202 JUMPI PUSH2 0xE8 JUMP JUMPDEST DUP1 PUSH4 0x12E0153 EQ PUSH2 0xED JUMPI DUP1 PUSH4 0x122DE8F2 EQ PUSH2 0x109 JUMPI DUP1 PUSH4 0x1628E0F5 EQ PUSH2 0x134 JUMPI JUMPDEST PUSH1 0x0 DUP1 REVERT JUMPDEST PUSH2 0x107 PUSH1 0x4 DUP1 CALLDATASIZE SUB DUP2 ADD SWAP1 PUSH2 0x102 SWAP2 SWAP1 PUSH2 0x1AB9 JUMP JUMPDEST PUSH2 0x3AD JUMP JUMPDEST STOP JUMPDEST CALLVALUE DUP1 ISZERO PUSH2 0x115 JUMPI PUSH1 0x0 DUP1 REVERT JUMPDEST POP PUSH2 0x11E PUSH2 0x3B0 JUMP JUMPDEST PUSH1 0x40 MLOAD PUSH2 0x12B SWAP2 SWAP1 PUSH2 0x1BA4 JUMP JUMPDEST PUSH1 0x40 MLOAD DUP1 SWAP2 SUB SWAP1 RETURN JUMPDEST CALLVALUE DUP1 ISZERO PUSH2 0x140 JUMPI PUSH1 0x0 DUP1 REVERT JUMPDEST POP PUSH2 0x15B PUSH1 0x4 DUP1 CALLDATASIZE SUB DUP2 ADD SWAP1 PUSH2 0x156 SWAP2 SWAP1 PUSH2 0x1AB9 JUMP JUMPDEST PUSH2 0x4D6 JUMP JUMPDEST STOP JUMPDEST CALLVALUE DUP1 ISZERO PUSH2 0x169 JUMPI PUSH1 0x0 DUP1 REVERT JUMPDEST POP PUSH2 0x184 PUSH1 0x4 DUP1 CALLDATASIZE SUB DUP2 ADD SWAP1 PUSH2 0x17F SWAP2 SWAP1 PUSH2 0x1AB9 JUMP JUMPDEST PUSH2 0x80D JUMP JUMPDEST PUSH1 0x40 MLOAD PUSH2 0x191 SWAP2 SWAP1 PUSH2 0x1BD5 JUMP JUMPDEST PUSH1 0x40 MLOAD DUP1 SWAP2 SUB SWAP1 RETURN JUMPDEST CALLVALUE DUP1 ISZERO PUSH2 0x1A6 JUMPI PUSH1 0x0 DUP1 REVERT JUMPDEST POP PUSH2 0x1AF PUSH2 0x83C JUMP JUMPDEST PUSH1 0x40 MLOAD PUSH2 0x1BC SWAP2 SWAP1 PUSH2 0x1DAC JUMP JUMPDEST PUSH1 0x40 MLOAD DUP1 SWAP2 SUB SWAP1 RETURN JUMPDEST CALLVALUE DUP1 ISZERO PUSH2 0x1D1 JUMPI PUSH1 0x0 DUP1 REVERT JUMPDEST POP PUSH2 0x1EC PUSH1 0x4 DUP1 CALLDATASIZE SUB DUP2 ADD SWAP1 PUSH2 0x1E7 SWAP2 SWAP1 PUSH2 0x1AB9 JUMP JUMPDEST PUSH2 0x940 JUMP JUMPDEST PUSH1 0x40 MLOAD PUSH2 0x1F9 SWAP2 SWAP1 PUSH2 0x1DDD JUMP JUMPDEST PUSH1 0x40 MLOAD DUP1 SWAP2 SUB SWAP1 RETURN JUMPDEST CALLVALUE DUP1 ISZERO PUSH2 0x20E JUMPI PUSH1 0x0 DUP1 REVERT JUMPDEST POP PUSH2 0x229 PUSH1 0x4 DUP1 CALLDATASIZE SUB DUP2 ADD SWAP1 PUSH2 0x224 SWAP2 SWAP1 PUSH2 0x1AB9 JUMP JUMPDEST PUSH2 0x97C JUMP JUMPDEST PUSH1 0x40 MLOAD PUSH2 0x236 SWAP2 SWAP1 PUSH2 0x1E07 JUMP JUMPDEST PUSH1 0x40 MLOAD DUP1 SWAP2 SUB SWAP1 RETURN JUMPDEST CALLVALUE DUP1 ISZERO PUSH2 0x24B JUMPI PUSH1 0x0 DUP1 REVERT JUMPDEST POP PUSH2 0x266 PUSH1 0x4 DUP1 CALLDATASIZE SUB DUP2 ADD SWAP1 PUSH2 0x261 SWAP2 SWAP1 PUSH2 0x1AB9 JUMP JUMPDEST PUSH2 0x9CB JUMP JUMPDEST PUSH1 0x40 MLOAD PUSH2 0x273 SWAP2 SWAP1 PUSH2 0x1E07 JUMP JUMPDEST PUSH1 0x40 MLOAD DUP1 SWAP2 SUB SWAP1 RETURN JUMPDEST PUSH2 0x296 PUSH1 0x4 DUP1 CALLDATASIZE SUB DUP2 ADD SWAP1 PUSH2 0x291 SWAP2 SWAP1 PUSH2 0x1AB9 JUMP JUMPDEST PUSH2 0xA1A JUMP JUMPDEST STOP JUMPDEST CALLVALUE DUP1 ISZERO PUSH2 0x2A4 JUMPI PUSH1 0x0 DUP1 REVERT JUMPDEST POP PUSH2 0x2BF PUSH1 0x4 DUP1 CALLDATASIZE SUB DUP2 ADD SWAP1 PUSH2 0x2BA SWAP2 SWAP1 PUSH2 0x1AB9 JUMP JUMPDEST PUSH2 0xC82 JUMP JUMPDEST STOP JUMPDEST PUSH2 0x2DB PUSH1 0x4 DUP1 CALLDATASIZE SUB DUP2 ADD SWAP1 PUSH2 0x2D6 SWAP2 SWAP1 PUSH2 0x1AB9 JUMP JUMPDEST PUSH2 0xFB9 JUMP JUMPDEST STOP JUMPDEST CALLVALUE DUP1 ISZERO PUSH2 0x2E9 JUMPI PUSH1 0x0 DUP1 REVERT JUMPDEST POP PUSH2 0x304 PUSH1 0x4 DUP1 CALLDATASIZE SUB DUP2 ADD SWAP1 PUSH2 0x2FF SWAP2 SWAP1 PUSH2 0x1AB9 JUMP JUMPDEST PUSH2 0x1221 JUMP JUMPDEST PUSH1 0x40 MLOAD PUSH2 0x311 SWAP2 SWAP1 PUSH2 0x1DDD JUMP JUMPDEST PUSH1 0x40 MLOAD DUP1 SWAP2 SUB SWAP1 RETURN JUMPDEST CALLVALUE DUP1 ISZERO PUSH2 0x326 JUMPI PUSH1 0x0 DUP1 REVERT JUMPDEST POP PUSH2 0x32F PUSH2 0x125D JUMP JUMPDEST PUSH1 0x40 MLOAD PUSH2 0x33C SWAP2 SWAP1 PUSH2 0x1DAC JUMP JUMPDEST PUSH1 0x40 MLOAD DUP1 SWAP2 SUB SWAP1 RETURN JUMPDEST CALLVALUE DUP1 ISZERO PUSH2 0x351 JUMPI PUSH1 0x0 DUP1 REVERT JUMPDEST POP PUSH2 0x35A PUSH2 0x1361 JUMP JUMPDEST PUSH1 0x40 MLOAD PUSH2 0x367 SWAP2 SWAP1 PUSH2 0x1BA4 JUMP JUMPDEST PUSH1 0x40 MLOAD DUP1 SWAP2 SUB SWAP1 RETURN JUMPDEST CALLVALUE DUP1 ISZERO PUSH2 0x37C JUMPI PUSH1 0x0 DUP1 REVERT JUMPDEST POP PUSH2 0x397 PUSH1 0x4 DUP1 CALLDATASIZE SUB DUP2 ADD SWAP1 PUSH2 0x392 SWAP2 SWAP1 PUSH2 0x1AB9 JUMP JUMPDEST PUSH2 0x1487 JUMP JUMPDEST PUSH1 0x40 MLOAD PUSH2 0x3A4 SWAP2 SWAP1 PUSH2 0x1BD5 JUMP JUMPDEST PUSH1 0x40 MLOAD DUP1 SWAP2 SUB SWAP1 RETURN JUMPDEST POP JUMP JUMPDEST PUSH1 0x60 PUSH2 0x3BA PUSH2 0x14B6 JUMP JUMPDEST PUSH1 0x0 JUMPDEST PUSH1 0x3 DUP1 SLOAD SWAP1 POP DUP2 LT ISZERO PUSH2 0x47F JUMPI CALLER PUSH20 0xFFFFFFFFFFFFFFFFFFFFFFFFFFFFFFFFFFFFFFFF AND PUSH1 0x3 DUP3 DUP2 SLOAD DUP2 LT PUSH2 0x3F5 JUMPI PUSH2 0x3F4 PUSH2 0x1E22 JUMP JUMPDEST JUMPDEST SWAP1 PUSH1 0x0 MSTORE PUSH1 0x20 PUSH1 0x0 KECCAK256 SWAP1 PUSH1 0x4 MUL ADD PUSH1 0x0 ADD PUSH1 0x0 SWAP1 SLOAD SWAP1 PUSH2 0x100 EXP SWAP1 DIV PUSH20 0xFFFFFFFFFFFFFFFFFFFFFFFFFFFFFFFFFFFFFFFF AND PUSH20 0xFFFFFFFFFFFFFFFFFFFFFFFFFFFFFFFFFFFFFFFF AND SUB PUSH2 0x46C JUMPI PUSH1 0x4 DUP2 SWAP1 DUP1 PUSH1 0x1 DUP2 SLOAD ADD DUP1 DUP3 SSTORE DUP1 SWAP2 POP POP PUSH1 0x1 SWAP1 SUB SWAP1 PUSH1 0x0 MSTORE PUSH1 0x20 PUSH1 0x0 KECCAK256 ADD PUSH1 0x0 SWAP1 SWAP2 SWAP1 SWAP2 SWAP1 SWAP2 POP SSTORE JUMPDEST DUP1 DUP1 PUSH2 0x477 SWAP1 PUSH2 0x1E80 JUMP JUMPDEST SWAP2 POP POP PUSH2 0x3BD JUMP JUMPDEST POP PUSH1 0x4 DUP1 SLOAD DUP1 PUSH1 0x20 MUL PUSH1 0x20 ADD PUSH1 0x40 MLOAD SWAP1 DUP2 ADD PUSH1 0x40 MSTORE DUP1 SWAP3 SWAP2 SWAP1 DUP2 DUP2 MSTORE PUSH1 0x20 ADD DUP3 DUP1 SLOAD DUP1 ISZERO PUSH2 0x4CC JUMPI PUSH1 0x20 MUL DUP3 ADD SWAP2 SWAP1 PUSH1 0x0 MSTORE PUSH1 0x20 PUSH1 0x0 KECCAK256 SWAP1 JUMPDEST DUP2 SLOAD DUP2 MSTORE PUSH1 0x20 ADD SWAP1 PUSH1 0x1 ADD SWAP1 DUP1 DUP4 GT PUSH2 0x4B8 JUMPI JUMPDEST POP POP POP POP POP SWAP1 POP SWAP1 JUMP JUMPDEST PUSH1 0x3 DUP2 DUP2 SLOAD DUP2 LT PUSH2 0x4EA JUMPI PUSH2 0x4E9 PUSH2 0x1E22 JUMP JUMPDEST JUMPDEST SWAP1 PUSH1 0x0 MSTORE PUSH1 0x20 PUSH1 0x0 KECCAK256 SWAP1 PUSH1 0x4 MUL ADD PUSH1 0x40 MLOAD DUP1 PUSH1 0x80 ADD PUSH1 0x40 MSTORE SWAP1 DUP2 PUSH1 0x0 DUP3 ADD PUSH1 0x0 SWAP1 SLOAD SWAP1 PUSH2 0x100 EXP SWAP1 DIV PUSH20 0xFFFFFFFFFFFFFFFFFFFFFFFFFFFFFFFFFFFFFFFF AND PUSH20 0xFFFFFFFFFFFFFFFFFFFFFFFFFFFFFFFFFFFFFFFF AND PUSH20 0xFFFFFFFFFFFFFFFFFFFFFFFFFFFFFFFFFFFFFFFF AND DUP2 MSTORE PUSH1 0x20 ADD PUSH1 0x1 DUP3 ADD SLOAD DUP2 MSTORE PUSH1 0x20 ADD PUSH1 0x2 DUP3 ADD SLOAD DUP2 MSTORE PUSH1 0x20 ADD PUSH1 0x3 DUP3 ADD PUSH1 0x0 SWAP1 SLOAD SWAP1 PUSH2 0x100 EXP SWAP1 DIV PUSH1 0xFF AND PUSH1 0x1 DUP2 GT ISZERO PUSH2 0x592 JUMPI PUSH2 0x591 PUSH2 0x1C5D JUMP JUMPDEST JUMPDEST PUSH1 0x1 DUP2 GT ISZERO PUSH2 0x5A4 JUMPI PUSH2 0x5A3 PUSH2 0x1C5D JUMP JUMPDEST JUMPDEST DUP2 MSTORE POP POP PUSH1 0x0 PUSH1 0x1 DUP2 GT ISZERO PUSH2 0x5BC JUMPI PUSH2 0x5BB PUSH2 0x1C5D JUMP JUMPDEST JUMPDEST DUP2 PUSH1 0x60 ADD MLOAD PUSH1 0x1 DUP2 GT ISZERO PUSH2 0x5D3 JUMPI PUSH2 0x5D2 PUSH2 0x1C5D JUMP JUMPDEST JUMPDEST EQ PUSH2 0x613 JUMPI PUSH1 0x40 MLOAD PUSH32 0x8C379A000000000000000000000000000000000000000000000000000000000 DUP2 MSTORE PUSH1 0x4 ADD PUSH2 0x60A SWAP1 PUSH2 0x1F25 JUMP JUMPDEST PUSH1 0x40 MLOAD DUP1 SWAP2 SUB SWAP1 REVERT JUMPDEST PUSH1 0x3 DUP3 DUP2 SLOAD DUP2 LT PUSH2 0x627 JUMPI PUSH2 0x626 PUSH2 0x1E22 JUMP JUMPDEST JUMPDEST SWAP1 PUSH1 0x0 MSTORE PUSH1 0x20 PUSH1 0x0 KECCAK256 SWAP1 PUSH1 0x4 MUL ADD PUSH1 0x40 MLOAD DUP1 PUSH1 0x80 ADD PUSH1 0x40 MSTORE SWAP1 DUP2 PUSH1 0x0 DUP3 ADD PUSH1 0x0 SWAP1 SLOAD SWAP1 PUSH2 0x100 EXP SWAP1 DIV PUSH20 0xFFFFFFFFFFFFFFFFFFFFFFFFFFFFFFFFFFFFFFFF AND PUSH20 0xFFFFFFFFFFFFFFFFFFFFFFFFFFFFFFFFFFFFFFFF AND PUSH20 0xFFFFFFFFFFFFFFFFFFFFFFFFFFFFFFFFFFFFFFFF AND DUP2 MSTORE PUSH1 0x20 ADD PUSH1 0x1 DUP3 ADD SLOAD DUP2 MSTORE PUSH1 0x20 ADD PUSH1 0x2 DUP3 ADD SLOAD DUP2 MSTORE PUSH1 0x20 ADD PUSH1 0x3 DUP3 ADD PUSH1 0x0 SWAP1 SLOAD SWAP1 PUSH2 0x100 EXP SWAP1 DIV PUSH1 0xFF AND PUSH1 0x1 DUP2 GT ISZERO PUSH2 0x6CF JUMPI PUSH2 0x6CE PUSH2 0x1C5D JUMP JUMPDEST JUMPDEST PUSH1 0x1 DUP2 GT ISZERO PUSH2 0x6E1 JUMPI PUSH2 0x6E0 PUSH2 0x1C5D JUMP JUMPDEST JUMPDEST DUP2 MSTORE POP POP CALLER DUP1 PUSH20 0xFFFFFFFFFFFFFFFFFFFFFFFFFFFFFFFFFFFFFFFF AND DUP3 PUSH1 0x0 ADD MLOAD PUSH20 0xFFFFFFFFFFFFFFFFFFFFFFFFFFFFFFFFFFFFFFFF AND EQ PUSH2 0x758 JUMPI PUSH1 0x40 MLOAD PUSH32 0x8C379A000000000000000000000000000000000000000000000000000000000 DUP2 MSTORE PUSH1 0x4 ADD PUSH2 0x74F SWAP1 PUSH2 0x1F91 JUMP JUMPDEST PUSH1 0x40 MLOAD DUP1 SWAP2 SUB SWAP1 REVERT JUMPDEST PUSH1 0x3 DUP5 DUP2 SLOAD DUP2 LT PUSH2 0x76C JUMPI PUSH2 0x76B PUSH2 0x1E22 JUMP JUMPDEST JUMPDEST SWAP1 PUSH1 0x0 MSTORE PUSH1 0x20 PUSH1 0x0 KECCAK256 SWAP1 PUSH1 0x4 MUL ADD PUSH1 0x0 DUP1 DUP3 ADD PUSH1 0x0 PUSH2 0x100 EXP DUP2 SLOAD SWAP1 PUSH20 0xFFFFFFFFFFFFFFFFFFFFFFFFFFFFFFFFFFFFFFFF MUL NOT AND SWAP1 SSTORE PUSH1 0x1 DUP3 ADD PUSH1 0x0 SWAP1 SSTORE PUSH1 0x2 DUP3 ADD PUSH1 0x0 SWAP1 SSTORE PUSH1 0x3 DUP3 ADD PUSH1 0x0 PUSH2 0x100 EXP DUP2 SLOAD SWAP1 PUSH1 0xFF MUL NOT AND SWAP1 SSTORE POP POP PUSH2 0x7D0 PUSH2 0x14FE JUMP JUMPDEST PUSH32 0x48D3043FFF66C1AEE14954AC5AA463B0297FB08C9B60EE00486FB3387BB58AAC DUP5 PUSH1 0x40 MLOAD PUSH2 0x7FF SWAP2 SWAP1 PUSH2 0x1BD5 JUMP JUMPDEST PUSH1 0x40 MLOAD DUP1 SWAP2 SUB SWAP1 LOG1 POP POP POP POP JUMP JUMPDEST PUSH1 0x0 PUSH1 0x2 DUP3 DUP2 SLOAD DUP2 LT PUSH2 0x823 JUMPI PUSH2 0x822 PUSH2 0x1E22 JUMP JUMPDEST JUMPDEST SWAP1 PUSH1 0x0 MSTORE PUSH1 0x20 PUSH1 0x0 KECCAK256 SWAP1 PUSH1 0x4 MUL ADD PUSH1 0x1 ADD SLOAD SWAP1 POP SWAP2 SWAP1 POP JUMP JUMPDEST PUSH1 0x60 PUSH1 0x2 DUP1 SLOAD DUP1 PUSH1 0x20 MUL PUSH1 0x20 ADD PUSH1 0x40 MLOAD SWAP1 DUP2 ADD PUSH1 0x40 MSTORE DUP1 SWAP3 SWAP2 SWAP1 DUP2 DUP2 MSTORE PUSH1 0x20 ADD PUSH1 0x0 SWAP1 JUMPDEST DUP3 DUP3 LT ISZERO PUSH2 0x937 JUMPI DUP4 DUP3 SWAP1 PUSH1 0x0 MSTORE PUSH1 0x20 PUSH1 0x0 KECCAK256 SWAP1 PUSH1 0x4 MUL ADD PUSH1 0x40 MLOAD DUP1 PUSH1 0x80 ADD PUSH1 0x40 MSTORE SWAP1 DUP2 PUSH1 0x0 DUP3 ADD PUSH1 0x0 SWAP1 SLOAD SWAP1 PUSH2 0x100 EXP SWAP1 DIV PUSH20 0xFFFFFFFFFFFFFFFFFFFFFFFFFFFFFFFFFFFFFFFF AND PUSH20 0xFFFFFFFFFFFFFFFFFFFFFFFFFFFFFFFFFFFFFFFF AND PUSH20 0xFFFFFFFFFFFFFFFFFFFFFFFFFFFFFFFFFFFFFFFF AND DUP2 MSTORE PUSH1 0x20 ADD PUSH1 0x1 DUP3 ADD SLOAD DUP2 MSTORE PUSH1 0x20 ADD PUSH1 0x2 DUP3 ADD SLOAD DUP2 MSTORE PUSH1 0x20 ADD PUSH1 0x3 DUP3 ADD PUSH1 0x0 SWAP1 SLOAD SWAP1 PUSH2 0x100 EXP SWAP1 DIV PUSH1 0xFF AND PUSH1 0x1 DUP2 GT ISZERO PUSH2 0x912 JUMPI PUSH2 0x911 PUSH2 0x1C5D JUMP JUMPDEST JUMPDEST PUSH1 0x1 DUP2 GT ISZERO PUSH2 0x924 JUMPI PUSH2 0x923 PUSH2 0x1C5D JUMP JUMPDEST JUMPDEST DUP2 MSTORE POP POP DUP2 MSTORE PUSH1 0x20 ADD SWAP1 PUSH1 0x1 ADD SWAP1 PUSH2 0x860 JUMP JUMPDEST POP POP POP POP SWAP1 POP SWAP1 JUMP JUMPDEST PUSH1 0x0 PUSH1 0x3 DUP3 DUP2 SLOAD DUP2 LT PUSH2 0x956 JUMPI PUSH2 0x955 PUSH2 0x1E22 JUMP JUMPDEST JUMPDEST SWAP1 PUSH1 0x0 MSTORE PUSH1 0x20 PUSH1 0x0 KECCAK256 SWAP1 PUSH1 0x4 MUL ADD PUSH1 0x3 ADD PUSH1 0x0 SWAP1 SLOAD SWAP1 PUSH2 0x100 EXP SWAP1 DIV PUSH1 0xFF AND SWAP1 POP SWAP2 SWAP1 POP JUMP JUMPDEST PUSH1 0x0 PUSH1 0x2 DUP3 DUP2 SLOAD DUP2 LT PUSH2 0x992 JUMPI PUSH2 0x991 PUSH2 0x1E22 JUMP JUMPDEST JUMPDEST SWAP1 PUSH1 0x0 MSTORE PUSH1 0x20 PUSH1 0x0 KECCAK256 SWAP1 PUSH1 0x4 MUL ADD PUSH1 0x0 ADD PUSH1 0x0 SWAP1 SLOAD SWAP1 PUSH2 0x100 EXP SWAP1 DIV PUSH20 0xFFFFFFFFFFFFFFFFFFFFFFFFFFFFFFFFFFFFFFFF AND SWAP1 POP SWAP2 SWAP1 POP JUMP JUMPDEST PUSH1 0x0 PUSH1 0x3 DUP3 DUP2 SLOAD DUP2 LT PUSH2 0x9E1 JUMPI PUSH2 0x9E0 PUSH2 0x1E22 JUMP JUMPDEST JUMPDEST SWAP1 PUSH1 0x0 MSTORE PUSH1 0x20 PUSH1 0x0 KECCAK256 SWAP1 PUSH1 0x4 MUL ADD PUSH1 0x0 ADD PUSH1 0x0 SWAP1 SLOAD SWAP1 PUSH2 0x100 EXP SWAP1 DIV PUSH20 0xFFFFFFFFFFFFFFFFFFFFFFFFFFFFFFFFFFFFFFFF AND SWAP1 POP SWAP2 SWAP1 POP JUMP JUMPDEST PUSH1 0x0 DUP2 LT ISZERO PUSH2 0xA5E JUMPI PUSH1 0x40 MLOAD PUSH32 0x8C379A000000000000000000000000000000000000000000000000000000000 DUP2 MSTORE PUSH1 0x4 ADD PUSH2 0xA55 SWAP1 PUSH2 0x1FFD JUMP JUMPDEST PUSH1 0x40 MLOAD DUP1 SWAP2 SUB SWAP1 REVERT JUMPDEST DUP1 CALLVALUE LT ISZERO PUSH2 0xAA1 JUMPI PUSH1 0x40 MLOAD PUSH32 0x8C379A000000000000000000000000000000000000000000000000000000000 DUP2 MSTORE PUSH1 0x4 ADD PUSH2 0xA98 SWAP1 PUSH2 0x2069 JUMP JUMPDEST PUSH1 0x40 MLOAD DUP1 SWAP2 SUB SWAP1 REVERT JUMPDEST PUSH1 0x0 TIMESTAMP SWAP1 POP PUSH1 0x0 PUSH1 0x64 PUSH1 0x1 SLOAD PUSH1 0x64 PUSH2 0xAB9 SWAP2 SWAP1 PUSH2 0x2089 JUMP JUMPDEST CALLVALUE PUSH2 0xAC4 SWAP2 SWAP1 PUSH2 0x20BD JUMP JUMPDEST PUSH2 0xACE SWAP2 SWAP1 PUSH2 0x2146 JUMP JUMPDEST SWAP1 POP PUSH1 0x0 PUSH1 0x40 MLOAD DUP1 PUSH1 0x80 ADD PUSH1 0x40 MSTORE DUP1 CALLER PUSH20 0xFFFFFFFFFFFFFFFFFFFFFFFFFFFFFFFFFFFFFFFF AND DUP2 MSTORE PUSH1 0x20 ADD DUP4 DUP2 MSTORE PUSH1 0x20 ADD DUP5 DUP2 MSTORE PUSH1 0x20 ADD PUSH1 0x0 PUSH1 0x1 DUP2 GT ISZERO PUSH2 0xB19 JUMPI PUSH2 0xB18 PUSH2 0x1C5D JUMP JUMPDEST JUMPDEST DUP2 MSTORE POP SWAP1 POP PUSH1 0x3 DUP2 SWAP1 DUP1 PUSH1 0x1 DUP2 SLOAD ADD DUP1 DUP3 SSTORE DUP1 SWAP2 POP POP PUSH1 0x1 SWAP1 SUB SWAP1 PUSH1 0x0 MSTORE PUSH1 0x20 PUSH1 0x0 KECCAK256 SWAP1 PUSH1 0x4 MUL ADD PUSH1 0x0 SWAP1 SWAP2 SWAP1 SWAP2 SWAP1 SWAP2 POP PUSH1 0x0 DUP3 ADD MLOAD DUP2 PUSH1 0x0 ADD PUSH1 0x0 PUSH2 0x100 EXP DUP2 SLOAD DUP2 PUSH20 0xFFFFFFFFFFFFFFFFFFFFFFFFFFFFFFFFFFFFFFFF MUL NOT AND SWAP1 DUP4 PUSH20 0xFFFFFFFFFFFFFFFFFFFFFFFFFFFFFFFFFFFFFFFF AND MUL OR SWAP1 SSTORE POP PUSH1 0x20 DUP3 ADD MLOAD DUP2 PUSH1 0x1 ADD SSTORE PUSH1 0x40 DUP3 ADD MLOAD DUP2 PUSH1 0x2 ADD SSTORE PUSH1 0x60 DUP3 ADD MLOAD DUP2 PUSH1 0x3 ADD PUSH1 0x0 PUSH2 0x100 EXP DUP2 SLOAD DUP2 PUSH1 0xFF MUL NOT AND SWAP1 DUP4 PUSH1 0x1 DUP2 GT ISZERO PUSH2 0xBD0 JUMPI PUSH2 0xBCF PUSH2 0x1C5D JUMP JUMPDEST JUMPDEST MUL OR SWAP1 SSTORE POP POP POP PUSH1 0x0 DUP1 SLOAD SWAP1 PUSH2 0x100 EXP SWAP1 DIV PUSH20 0xFFFFFFFFFFFFFFFFFFFFFFFFFFFFFFFFFFFFFFFF AND PUSH20 0xFFFFFFFFFFFFFFFFFFFFFFFFFFFFFFFFFFFFFFFF AND PUSH2 0x8FC DUP4 SWAP1 DUP2 ISZERO MUL SWAP1 PUSH1 0x40 MLOAD PUSH1 0x0 PUSH1 0x40 MLOAD DUP1 DUP4 SUB DUP2 DUP6 DUP9 DUP9 CALL SWAP4 POP POP POP POP ISZERO DUP1 ISZERO PUSH2 0xC3D JUMPI RETURNDATASIZE PUSH1 0x0 DUP1 RETURNDATACOPY RETURNDATASIZE PUSH1 0x0 REVERT JUMPDEST POP PUSH32 0xC2125A7F3EDFEFF7A3BBCFE393C5AA3A6589585D4A7EE70DB48C34F67C8209E2 CALLER DUP4 DUP6 PUSH1 0x0 PUSH1 0x40 MLOAD PUSH2 0xC74 SWAP5 SWAP4 SWAP3 SWAP2 SWAP1 PUSH2 0x2198 JUMP JUMPDEST PUSH1 0x40 MLOAD DUP1 SWAP2 SUB SWAP1 LOG1 POP POP POP POP JUMP JUMPDEST PUSH1 0x2 DUP2 DUP2 SLOAD DUP2 LT PUSH2 0xC96 JUMPI PUSH2 0xC95 PUSH2 0x1E22 JUMP JUMPDEST JUMPDEST SWAP1 PUSH1 0x0 MSTORE PUSH1 0x20 PUSH1 0x0 KECCAK256 SWAP1 PUSH1 0x4 MUL ADD PUSH1 0x40 MLOAD DUP1 PUSH1 0x80 ADD PUSH1 0x40 MSTORE SWAP1 DUP2 PUSH1 0x0 DUP3 ADD PUSH1 0x0 SWAP1 SLOAD SWAP1 PUSH2 0x100 EXP SWAP1 DIV PUSH20 0xFFFFFFFFFFFFFFFFFFFFFFFFFFFFFFFFFFFFFFFF AND PUSH20 0xFFFFFFFFFFFFFFFFFFFFFFFFFFFFFFFFFFFFFFFF AND PUSH20 0xFFFFFFFFFFFFFFFFFFFFFFFFFFFFFFFFFFFFFFFF AND DUP2 MSTORE PUSH1 0x20 ADD PUSH1 0x1 DUP3 ADD SLOAD DUP2 MSTORE PUSH1 0x20 ADD PUSH1 0x2 DUP3 ADD SLOAD DUP2 MSTORE PUSH1 0x20 ADD PUSH1 0x3 DUP3 ADD PUSH1 0x0 SWAP1 SLOAD SWAP1 PUSH2 0x100 EXP SWAP1 DIV PUSH1 0xFF AND PUSH1 0x1 DUP2 GT ISZERO PUSH2 0xD3E JUMPI PUSH2 0xD3D PUSH2 0x1C5D JUMP JUMPDEST JUMPDEST PUSH1 0x1 DUP2 GT ISZERO PUSH2 0xD50 JUMPI PUSH2 0xD4F PUSH2 0x1C5D JUMP JUMPDEST JUMPDEST DUP2 MSTORE POP POP PUSH1 0x0 PUSH1 0x1 DUP2 GT ISZERO PUSH2 0xD68 JUMPI PUSH2 0xD67 PUSH2 0x1C5D JUMP JUMPDEST JUMPDEST DUP2 PUSH1 0x60 ADD MLOAD PUSH1 0x1 DUP2 GT ISZERO PUSH2 0xD7F JUMPI PUSH2 0xD7E PUSH2 0x1C5D JUMP JUMPDEST JUMPDEST EQ PUSH2 0xDBF JUMPI PUSH1 0x40 MLOAD PUSH32 0x8C379A000000000000000000000000000000000000000000000000000000000 DUP2 MSTORE PUSH1 0x4 ADD PUSH2 0xDB6 SWAP1 PUSH2 0x1F25 JUMP JUMPDEST PUSH1 0x40 MLOAD DUP1 SWAP2 SUB SWAP1 REVERT JUMPDEST PUSH1 0x2 DUP3 DUP2 SLOAD DUP2 LT PUSH2 0xDD3 JUMPI PUSH2 0xDD2 PUSH2 0x1E22 JUMP JUMPDEST JUMPDEST SWAP1 PUSH1 0x0 MSTORE PUSH1 0x20 PUSH1 0x0 KECCAK256 SWAP1 PUSH1 0x4 MUL ADD PUSH1 0x40 MLOAD DUP1 PUSH1 0x80 ADD PUSH1 0x40 MSTORE SWAP1 DUP2 PUSH1 0x0 DUP3 ADD PUSH1 0x0 SWAP1 SLOAD SWAP1 PUSH2 0x100 EXP SWAP1 DIV PUSH20 0xFFFFFFFFFFFFFFFFFFFFFFFFFFFFFFFFFFFFFFFF AND PUSH20 0xFFFFFFFFFFFFFFFFFFFFFFFFFFFFFFFFFFFFFFFF AND PUSH20 0xFFFFFFFFFFFFFFFFFFFFFFFFFFFFFFFFFFFFFFFF AND DUP2 MSTORE PUSH1 0x20 ADD PUSH1 0x1 DUP3 ADD SLOAD DUP2 MSTORE PUSH1 0x20 ADD PUSH1 0x2 DUP3 ADD SLOAD DUP2 MSTORE PUSH1 0x20 ADD PUSH1 0x3 DUP3 ADD PUSH1 0x0 SWAP1 SLOAD SWAP1 PUSH2 0x100 EXP SWAP1 DIV PUSH1 0xFF AND PUSH1 0x1 DUP2 GT ISZERO PUSH2 0xE7B JUMPI PUSH2 0xE7A PUSH2 0x1C5D JUMP JUMPDEST JUMPDEST PUSH1 0x1 DUP2 GT ISZERO PUSH2 0xE8D JUMPI PUSH2 0xE8C PUSH2 0x1C5D JUMP JUMPDEST JUMPDEST DUP2 MSTORE POP POP CALLER DUP1 PUSH20 0xFFFFFFFFFFFFFFFFFFFFFFFFFFFFFFFFFFFFFFFF AND DUP3 PUSH1 0x0 ADD MLOAD PUSH20 0xFFFFFFFFFFFFFFFFFFFFFFFFFFFFFFFFFFFFFFFF AND EQ PUSH2 0xF04 JUMPI PUSH1 0x40 MLOAD PUSH32 0x8C379A000000000000000000000000000000000000000000000000000000000 DUP2 MSTORE PUSH1 0x4 ADD PUSH2 0xEFB SWAP1 PUSH2 0x1F91 JUMP JUMPDEST PUSH1 0x40 MLOAD DUP1 SWAP2 SUB SWAP1 REVERT JUMPDEST PUSH1 0x2 DUP5 DUP2 SLOAD DUP2 LT PUSH2 0xF18 JUMPI PUSH2 0xF17 PUSH2 0x1E22 JUMP JUMPDEST JUMPDEST SWAP1 PUSH1 0x0 MSTORE PUSH1 0x20 PUSH1 0x0 KECCAK256 SWAP1 PUSH1 0x4 MUL ADD PUSH1 0x0 DUP1 DUP3 ADD PUSH1 0x0 PUSH2 0x100 EXP DUP2 SLOAD SWAP1 PUSH20 0xFFFFFFFFFFFFFFFFFFFFFFFFFFFFFFFFFFFFFFFF MUL NOT AND SWAP1 SSTORE PUSH1 0x1 DUP3 ADD PUSH1 0x0 SWAP1 SSTORE PUSH1 0x2 DUP3 ADD PUSH1 0x0 SWAP1 SSTORE PUSH1 0x3 DUP3 ADD PUSH1 0x0 PUSH2 0x100 EXP DUP2 SLOAD SWAP1 PUSH1 0xFF MUL NOT AND SWAP1 SSTORE POP POP PUSH2 0xF7C PUSH2 0x1619 JUMP JUMPDEST PUSH32 0xC845A6832AFA0A4048DD70BBBA2186093508A6B63A8D5D70A508F819FEF257F8 DUP5 PUSH1 0x40 MLOAD PUSH2 0xFAB SWAP2 SWAP1 PUSH2 0x1BD5 JUMP JUMPDEST PUSH1 0x40 MLOAD DUP1 SWAP2 SUB SWAP1 LOG1 POP POP POP POP JUMP JUMPDEST PUSH1 0x0 DUP2 LT ISZERO PUSH2 0xFFD JUMPI PUSH1 0x40 MLOAD PUSH32 0x8C379A000000000000000000000000000000000000000000000000000000000 DUP2 MSTORE PUSH1 0x4 ADD PUSH2 0xFF4 SWAP1 PUSH2 0x1FFD JUMP JUMPDEST PUSH1 0x40 MLOAD DUP1 SWAP2 SUB SWAP1 REVERT JUMPDEST DUP1 CALLVALUE LT ISZERO PUSH2 0x1040 JUMPI PUSH1 0x40 MLOAD PUSH32 0x8C379A000000000000000000000000000000000000000000000000000000000 DUP2 MSTORE PUSH1 0x4 ADD PUSH2 0x1037 SWAP1 PUSH2 0x2229 JUMP JUMPDEST PUSH1 0x40 MLOAD DUP1 SWAP2 SUB SWAP1 REVERT JUMPDEST PUSH1 0x0 TIMESTAMP SWAP1 POP PUSH1 0x0 PUSH1 0x64 PUSH1 0x1 SLOAD PUSH1 0x64 PUSH2 0x1058 SWAP2 SWAP1 PUSH2 0x2089 JUMP JUMPDEST CALLVALUE PUSH2 0x1063 SWAP2 SWAP1 PUSH2 0x20BD JUMP JUMPDEST PUSH2 0x106D SWAP2 SWAP1 PUSH2 0x2146 JUMP JUMPDEST SWAP1 POP PUSH1 0x0 PUSH1 0x40 MLOAD DUP1 PUSH1 0x80 ADD PUSH1 0x40 MSTORE DUP1 CALLER PUSH20 0xFFFFFFFFFFFFFFFFFFFFFFFFFFFFFFFFFFFFFFFF AND DUP2 MSTORE PUSH1 0x20 ADD DUP4 DUP2 MSTORE PUSH1 0x20 ADD DUP5 DUP2 MSTORE PUSH1 0x20 ADD PUSH1 0x0 PUSH1 0x1 DUP2 GT ISZERO PUSH2 0x10B8 JUMPI PUSH2 0x10B7 PUSH2 0x1C5D JUMP JUMPDEST JUMPDEST DUP2 MSTORE POP SWAP1 POP PUSH1 0x2 DUP2 SWAP1 DUP1 PUSH1 0x1 DUP2 SLOAD ADD DUP1 DUP3 SSTORE DUP1 SWAP2 POP POP PUSH1 0x1 SWAP1 SUB SWAP1 PUSH1 0x0 MSTORE PUSH1 0x20 PUSH1 0x0 KECCAK256 SWAP1 PUSH1 0x4 MUL ADD PUSH1 0x0 SWAP1 SWAP2 SWAP1 SWAP2 SWAP1 SWAP2 POP PUSH1 0x0 DUP3 ADD MLOAD DUP2 PUSH1 0x0 ADD PUSH1 0x0 PUSH2 0x100 EXP DUP2 SLOAD DUP2 PUSH20 0xFFFFFFFFFFFFFFFFFFFFFFFFFFFFFFFFFFFFFFFF MUL NOT AND SWAP1 DUP4 PUSH20 0xFFFFFFFFFFFFFFFFFFFFFFFFFFFFFFFFFFFFFFFF AND MUL OR SWAP1 SSTORE POP PUSH1 0x20 DUP3 ADD MLOAD DUP2 PUSH1 0x1 ADD SSTORE PUSH1 0x40 DUP3 ADD MLOAD DUP2 PUSH1 0x2 ADD SSTORE PUSH1 0x60 DUP3 ADD MLOAD DUP2 PUSH1 0x3 ADD PUSH1 0x0 PUSH2 0x100 EXP DUP2 SLOAD DUP2 PUSH1 0xFF MUL NOT AND SWAP1 DUP4 PUSH1 0x1 DUP2 GT ISZERO PUSH2 0x116F JUMPI PUSH2 0x116E PUSH2 0x1C5D JUMP JUMPDEST JUMPDEST MUL OR SWAP1 SSTORE POP POP POP PUSH1 0x0 DUP1 SLOAD SWAP1 PUSH2 0x100 EXP SWAP1 DIV PUSH20 0xFFFFFFFFFFFFFFFFFFFFFFFFFFFFFFFFFFFFFFFF AND PUSH20 0xFFFFFFFFFFFFFFFFFFFFFFFFFFFFFFFFFFFFFFFF AND PUSH2 0x8FC DUP4 SWAP1 DUP2 ISZERO MUL SWAP1 PUSH1 0x40 MLOAD PUSH1 0x0 PUSH1 0x40 MLOAD DUP1 DUP4 SUB DUP2 DUP6 DUP9 DUP9 CALL SWAP4 POP POP POP POP ISZERO DUP1 ISZERO PUSH2 0x11DC JUMPI RETURNDATASIZE PUSH1 0x0 DUP1 RETURNDATACOPY RETURNDATASIZE PUSH1 0x0 REVERT JUMPDEST POP PUSH32 0xA64806D6D5D480697A0B11C92B915A4FF7B93C0BE28171D65D30041A0C360D04 CALLER DUP4 DUP6 PUSH1 0x0 PUSH1 0x40 MLOAD PUSH2 0x1213 SWAP5 SWAP4 SWAP3 SWAP2 SWAP1 PUSH2 0x2198 JUMP JUMPDEST PUSH1 0x40 MLOAD DUP1 SWAP2 SUB SWAP1 LOG1 POP POP POP POP JUMP JUMPDEST PUSH1 0x0 PUSH1 0x2 DUP3 DUP2 SLOAD DUP2 LT PUSH2 0x1237 JUMPI PUSH2 0x1236 PUSH2 0x1E22 JUMP JUMPDEST JUMPDEST SWAP1 PUSH1 0x0 MSTORE PUSH1 0x20 PUSH1 0x0 KECCAK256 SWAP1 PUSH1 0x4 MUL ADD PUSH1 0x3 ADD PUSH1 0x0 SWAP1 SLOAD SWAP1 PUSH2 0x100 EXP SWAP1 DIV PUSH1 0xFF AND SWAP1 POP SWAP2 SWAP1 POP JUMP JUMPDEST PUSH1 0x60 PUSH1 0x3 DUP1 SLOAD DUP1 PUSH1 0x20 MUL PUSH1 0x20 ADD PUSH1 0x40 MLOAD SWAP1 DUP2 ADD PUSH1 0x40 MSTORE DUP1 SWAP3 SWAP2 SWAP1 DUP2 DUP2 MSTORE PUSH1 0x20 ADD PUSH1 0x0 SWAP1 JUMPDEST DUP3 DUP3 LT ISZERO PUSH2 0x1358 JUMPI DUP4 DUP3 SWAP1 PUSH1 0x0 MSTORE PUSH1 0x20 PUSH1 0x0 KECCAK256 SWAP1 PUSH1 0x4 MUL ADD PUSH1 0x40 MLOAD DUP1 PUSH1 0x80 ADD PUSH1 0x40 MSTORE SWAP1 DUP2 PUSH1 0x0 DUP3 ADD PUSH1 0x0 SWAP1 SLOAD SWAP1 PUSH2 0x100 EXP SWAP1 DIV PUSH20 0xFFFFFFFFFFFFFFFFFFFFFFFFFFFFFFFFFFFFFFFF AND PUSH20 0xFFFFFFFFFFFFFFFFFFFFFFFFFFFFFFFFFFFFFFFF AND PUSH20 0xFFFFFFFFFFFFFFFFFFFFFFFFFFFFFFFFFFFFFFFF AND DUP2 MSTORE PUSH1 0x20 ADD PUSH1 0x1 DUP3 ADD SLOAD DUP2 MSTORE PUSH1 0x20 ADD PUSH1 0x2 DUP3 ADD SLOAD DUP2 MSTORE PUSH1 0x20 ADD PUSH1 0x3 DUP3 ADD PUSH1 0x0 SWAP1 SLOAD SWAP1 PUSH2 0x100 EXP SWAP1 DIV PUSH1 0xFF AND PUSH1 0x1 DUP2 GT ISZERO PUSH2 0x1333 JUMPI PUSH2 0x1332 PUSH2 0x1C5D JUMP JUMPDEST JUMPDEST PUSH1 0x1 DUP2 GT ISZERO PUSH2 0x1345 JUMPI PUSH2 0x1344 PUSH2 0x1C5D JUMP JUMPDEST JUMPDEST DUP2 MSTORE POP POP DUP2 MSTORE PUSH1 0x20 ADD SWAP1 PUSH1 0x1 ADD SWAP1 PUSH2 0x1281 JUMP JUMPDEST POP POP POP POP SWAP1 POP SWAP1 JUMP JUMPDEST PUSH1 0x60 PUSH2 0x136B PUSH2 0x14B6 JUMP JUMPDEST PUSH1 0x0 JUMPDEST PUSH1 0x2 DUP1 SLOAD SWAP1 POP DUP2 LT ISZERO PUSH2 0x1430 JUMPI CALLER PUSH20 0xFFFFFFFFFFFFFFFFFFFFFFFFFFFFFFFFFFFFFFFF AND PUSH1 0x2 DUP3 DUP2 SLOAD DUP2 LT PUSH2 0x13A6 JUMPI PUSH2 0x13A5 PUSH2 0x1E22 JUMP JUMPDEST JUMPDEST SWAP1 PUSH1 0x0 MSTORE PUSH1 0x20 PUSH1 0x0 KECCAK256 SWAP1 PUSH1 0x4 MUL ADD PUSH1 0x0 ADD PUSH1 0x0 SWAP1 SLOAD SWAP1 PUSH2 0x100 EXP SWAP1 DIV PUSH20 0xFFFFFFFFFFFFFFFFFFFFFFFFFFFFFFFFFFFFFFFF AND PUSH20 0xFFFFFFFFFFFFFFFFFFFFFFFFFFFFFFFFFFFFFFFF AND SUB PUSH2 0x141D JUMPI PUSH1 0x4 DUP2 SWAP1 DUP1 PUSH1 0x1 DUP2 SLOAD ADD DUP1 DUP3 SSTORE DUP1 SWAP2 POP POP PUSH1 0x1 SWAP1 SUB SWAP1 PUSH1 0x0 MSTORE PUSH1 0x20 PUSH1 0x0 KECCAK256 ADD PUSH1 0x0 SWAP1 SWAP2 SWAP1 SWAP2 SWAP1 SWAP2 POP SSTORE JUMPDEST DUP1 DUP1 PUSH2 0x1428 SWAP1 PUSH2 0x1E80 JUMP JUMPDEST SWAP2 POP POP PUSH2 0x136E JUMP JUMPDEST POP PUSH1 0x4 DUP1 SLOAD DUP1 PUSH1 0x20 MUL PUSH1 0x20 ADD PUSH1 0x40 MLOAD SWAP1 DUP2 ADD PUSH1 0x40 MSTORE DUP1 SWAP3 SWAP2 SWAP1 DUP2 DUP2 MSTORE PUSH1 0x20 ADD DUP3 DUP1 SLOAD DUP1 ISZERO PUSH2 0x147D JUMPI PUSH1 0x20 MUL DUP3 ADD SWAP2 SWAP1 PUSH1 0x0 MSTORE PUSH1 0x20 PUSH1 0x0 KECCAK256 SWAP1 JUMPDEST DUP2 SLOAD DUP2 MSTORE PUSH1 0x20 ADD SWAP1 PUSH1 0x1 ADD SWAP1 DUP1 DUP4 GT PUSH2 0x1469 JUMPI JUMPDEST POP POP POP POP POP SWAP1 POP SWAP1 JUMP JUMPDEST PUSH1 0x0 PUSH1 0x3 DUP3 DUP2 SLOAD DUP2 LT PUSH2 0x149D JUMPI PUSH2 0x149C PUSH2 0x1E22 JUMP JUMPDEST JUMPDEST SWAP1 PUSH1 0x0 MSTORE PUSH1 0x20 PUSH1 0x0 KECCAK256 SWAP1 PUSH1 0x4 MUL ADD PUSH1 0x1 ADD SLOAD SWAP1 POP SWAP2 SWAP1 POP JUMP JUMPDEST PUSH1 0x0 JUMPDEST PUSH1 0x4 DUP1 SLOAD SWAP1 POP DUP2 LT ISZERO PUSH2 0x14FB JUMPI PUSH1 0x4 DUP2 DUP2 SLOAD DUP2 LT PUSH2 0x14DA JUMPI PUSH2 0x14D9 PUSH2 0x1E22 JUMP JUMPDEST JUMPDEST SWAP1 PUSH1 0x0 MSTORE PUSH1 0x20 PUSH1 0x0 KECCAK256 ADD PUSH1 0x0 SWAP1 SSTORE DUP1 DUP1 PUSH2 0x14F3 SWAP1 PUSH2 0x1E80 JUMP JUMPDEST SWAP2 POP POP PUSH2 0x14B9 JUMP JUMPDEST POP JUMP JUMPDEST PUSH2 0x1617 PUSH1 0x2 DUP1 SLOAD DUP1 PUSH1 0x20 MUL PUSH1 0x20 ADD PUSH1 0x40 MLOAD SWAP1 DUP2 ADD PUSH1 0x40 MSTORE DUP1 SWAP3 SWAP2 SWAP1 DUP2 DUP2 MSTORE PUSH1 0x20 ADD PUSH1 0x0 SWAP1 JUMPDEST DUP3 DUP3 LT ISZERO PUSH2 0x15FA JUMPI DUP4 DUP3 SWAP1 PUSH1 0x0 MSTORE PUSH1 0x20 PUSH1 0x0 KECCAK256 SWAP1 PUSH1 0x4 MUL ADD PUSH1 0x40 MLOAD DUP1 PUSH1 0x80 ADD PUSH1 0x40 MSTORE SWAP1 DUP2 PUSH1 0x0 DUP3 ADD PUSH1 0x0 SWAP1 SLOAD SWAP1 PUSH2 0x100 EXP SWAP1 DIV PUSH20 0xFFFFFFFFFFFFFFFFFFFFFFFFFFFFFFFFFFFFFFFF AND PUSH20 0xFFFFFFFFFFFFFFFFFFFFFFFFFFFFFFFFFFFFFFFF AND PUSH20 0xFFFFFFFFFFFFFFFFFFFFFFFFFFFFFFFFFFFFFFFF AND DUP2 MSTORE PUSH1 0x20 ADD PUSH1 0x1 DUP3 ADD SLOAD DUP2 MSTORE PUSH1 0x20 ADD PUSH1 0x2 DUP3 ADD SLOAD DUP2 MSTORE PUSH1 0x20 ADD PUSH1 0x3 DUP3 ADD PUSH1 0x0 SWAP1 SLOAD SWAP1 PUSH2 0x100 EXP SWAP1 DIV PUSH1 0xFF AND PUSH1 0x1 DUP2 GT ISZERO PUSH2 0x15D5 JUMPI PUSH2 0x15D4 PUSH2 0x1C5D JUMP JUMPDEST JUMPDEST PUSH1 0x1 DUP2 GT ISZERO PUSH2 0x15E7 JUMPI PUSH2 0x15E6 PUSH2 0x1C5D JUMP JUMPDEST JUMPDEST DUP2 MSTORE POP POP DUP2 MSTORE PUSH1 0x20 ADD SWAP1 PUSH1 0x1 ADD SWAP1 PUSH2 0x1523 JUMP JUMPDEST POP POP POP POP PUSH1 0x0 PUSH1 0x1 PUSH1 0x2 DUP1 SLOAD SWAP1 POP PUSH2 0x1612 SWAP2 SWAP1 PUSH2 0x2089 JUMP JUMPDEST PUSH2 0x1734 JUMP JUMPDEST JUMP JUMPDEST PUSH2 0x1732 PUSH1 0x2 DUP1 SLOAD DUP1 PUSH1 0x20 MUL PUSH1 0x20 ADD PUSH1 0x40 MLOAD SWAP1 DUP2 ADD PUSH1 0x40 MSTORE DUP1 SWAP3 SWAP2 SWAP1 DUP2 DUP2 MSTORE PUSH1 0x20 ADD PUSH1 0x0 SWAP1 JUMPDEST DUP3 DUP3 LT ISZERO PUSH2 0x1715 JUMPI DUP4 DUP3 SWAP1 PUSH1 0x0 MSTORE PUSH1 0x20 PUSH1 0x0 KECCAK256 SWAP1 PUSH1 0x4 MUL ADD PUSH1 0x40 MLOAD DUP1 PUSH1 0x80 ADD PUSH1 0x40 MSTORE SWAP1 DUP2 PUSH1 0x0 DUP3 ADD PUSH1 0x0 SWAP1 SLOAD SWAP1 PUSH2 0x100 EXP SWAP1 DIV PUSH20 0xFFFFFFFFFFFFFFFFFFFFFFFFFFFFFFFFFFFFFFFF AND PUSH20 0xFFFFFFFFFFFFFFFFFFFFFFFFFFFFFFFFFFFFFFFF AND PUSH20 0xFFFFFFFFFFFFFFFFFFFFFFFFFFFFFFFFFFFFFFFF AND DUP2 MSTORE PUSH1 0x20 ADD PUSH1 0x1 DUP3 ADD SLOAD DUP2 MSTORE PUSH1 0x20 ADD PUSH1 0x2 DUP3 ADD SLOAD DUP2 MSTORE PUSH1 0x20 ADD PUSH1 0x3 DUP3 ADD PUSH1 0x0 SWAP1 SLOAD SWAP1 PUSH2 0x100 EXP SWAP1 DIV PUSH1 0xFF AND PUSH1 0x1 DUP2 GT ISZERO PUSH2 0x16F0 JUMPI PUSH2 0x16EF PUSH2 0x1C5D JUMP JUMPDEST JUMPDEST PUSH1 0x1 DUP2 GT ISZERO PUSH2 0x1702 JUMPI PUSH2 0x1701 PUSH2 0x1C5D JUMP JUMPDEST JUMPDEST DUP2 MSTORE POP POP DUP2 MSTORE PUSH1 0x20 ADD SWAP1 PUSH1 0x1 ADD SWAP1 PUSH2 0x163E JUMP JUMPDEST POP POP POP POP PUSH1 0x0 PUSH1 0x1 PUSH1 0x2 DUP1 SLOAD SWAP1 POP PUSH2 0x172D SWAP2 SWAP1 PUSH2 0x2089 JUMP JUMPDEST PUSH2 0x18D9 JUMP JUMPDEST JUMP JUMPDEST PUSH1 0x0 DUP3 SWAP1 POP PUSH1 0x0 DUP3 SWAP1 POP DUP1 DUP3 SUB PUSH2 0x174C JUMPI POP POP PUSH2 0x18D4 JUMP JUMPDEST PUSH1 0x0 DUP6 PUSH1 0x2 DUP7 DUP7 PUSH2 0x175D SWAP2 SWAP1 PUSH2 0x2253 JUMP JUMPDEST PUSH2 0x1767 SWAP2 SWAP1 PUSH2 0x22E7 JUMP JUMPDEST DUP7 PUSH2 0x1772 SWAP2 SWAP1 PUSH2 0x2351 JUMP JUMPDEST DUP2 MLOAD DUP2 LT PUSH2 0x1783 JUMPI PUSH2 0x1782 PUSH2 0x1E22 JUMP JUMPDEST JUMPDEST PUSH1 0x20 MUL PUSH1 0x20 ADD ADD MLOAD PUSH1 0x40 ADD MLOAD SWAP1 POP JUMPDEST DUP2 DUP4 SGT PUSH2 0x18A8 JUMPI JUMPDEST DUP1 DUP7 DUP5 DUP2 MLOAD DUP2 LT PUSH2 0x17AE JUMPI PUSH2 0x17AD PUSH2 0x1E22 JUMP JUMPDEST JUMPDEST PUSH1 0x20 MUL PUSH1 0x20 ADD ADD MLOAD PUSH1 0x40 ADD MLOAD GT ISZERO PUSH2 0x17D3 JUMPI DUP3 DUP1 PUSH2 0x17CB SWAP1 PUSH2 0x23E5 JUMP JUMPDEST SWAP4 POP POP PUSH2 0x179A JUMP JUMPDEST JUMPDEST DUP6 DUP3 DUP2 MLOAD DUP2 LT PUSH2 0x17E7 JUMPI PUSH2 0x17E6 PUSH2 0x1E22 JUMP JUMPDEST JUMPDEST PUSH1 0x20 MUL PUSH1 0x20 ADD ADD MLOAD PUSH1 0x40 ADD MLOAD DUP2 GT ISZERO PUSH2 0x180D JUMPI DUP2 DUP1 PUSH2 0x1805 SWAP1 PUSH2 0x242D JUMP JUMPDEST SWAP3 POP POP PUSH2 0x17D4 JUMP JUMPDEST DUP2 DUP4 SGT PUSH2 0x18A3 JUMPI DUP6 DUP3 DUP2 MLOAD DUP2 LT PUSH2 0x1827 JUMPI PUSH2 0x1826 PUSH2 0x1E22 JUMP JUMPDEST JUMPDEST PUSH1 0x20 MUL PUSH1 0x20 ADD ADD MLOAD DUP7 DUP5 DUP2 MLOAD DUP2 LT PUSH2 0x1842 JUMPI PUSH2 0x1841 PUSH2 0x1E22 JUMP JUMPDEST JUMPDEST PUSH1 0x20 MUL PUSH1 0x20 ADD ADD MLOAD DUP8 DUP6 DUP2 MLOAD DUP2 LT PUSH2 0x185D JUMPI PUSH2 0x185C PUSH2 0x1E22 JUMP JUMPDEST JUMPDEST PUSH1 0x20 MUL PUSH1 0x20 ADD ADD DUP9 DUP6 DUP2 MLOAD DUP2 LT PUSH2 0x1877 JUMPI PUSH2 0x1876 PUSH2 0x1E22 JUMP JUMPDEST JUMPDEST PUSH1 0x20 MUL PUSH1 0x20 ADD ADD DUP3 SWAP1 MSTORE DUP3 SWAP1 MSTORE POP POP DUP3 DUP1 PUSH2 0x1891 SWAP1 PUSH2 0x23E5 JUMP JUMPDEST SWAP4 POP POP DUP2 DUP1 PUSH2 0x189F SWAP1 PUSH2 0x242D JUMP JUMPDEST SWAP3 POP POP JUMPDEST PUSH2 0x1792 JUMP JUMPDEST DUP2 DUP6 SLT ISZERO PUSH2 0x18BC JUMPI PUSH2 0x18BB DUP7 DUP7 DUP5 PUSH2 0x1734 JUMP JUMPDEST JUMPDEST DUP4 DUP4 SLT ISZERO PUSH2 0x18D0 JUMPI PUSH2 0x18CF DUP7 DUP5 DUP7 PUSH2 0x1734 JUMP JUMPDEST JUMPDEST POP POP POP JUMPDEST POP POP POP JUMP JUMPDEST PUSH1 0x0 DUP3 SWAP1 POP PUSH1 0x0 DUP3 SWAP1 POP DUP1 DUP3 SUB PUSH2 0x18F1 JUMPI POP POP PUSH2 0x1A79 JUMP JUMPDEST PUSH1 0x0 DUP6 PUSH1 0x2 DUP7 DUP7 PUSH2 0x1902 SWAP2 SWAP1 PUSH2 0x2253 JUMP JUMPDEST PUSH2 0x190C SWAP2 SWAP1 PUSH2 0x22E7 JUMP JUMPDEST DUP7 PUSH2 0x1917 SWAP2 SWAP1 PUSH2 0x2351 JUMP JUMPDEST DUP2 MLOAD DUP2 LT PUSH2 0x1928 JUMPI PUSH2 0x1927 PUSH2 0x1E22 JUMP JUMPDEST JUMPDEST PUSH1 0x20 MUL PUSH1 0x20 ADD ADD MLOAD PUSH1 0x40 ADD MLOAD SWAP1 POP JUMPDEST DUP2 DUP4 SGT PUSH2 0x1A4D JUMPI JUMPDEST DUP1 DUP7 DUP5 DUP2 MLOAD DUP2 LT PUSH2 0x1953 JUMPI PUSH2 0x1952 PUSH2 0x1E22 JUMP JUMPDEST JUMPDEST PUSH1 0x20 MUL PUSH1 0x20 ADD ADD MLOAD PUSH1 0x40 ADD MLOAD LT ISZERO PUSH2 0x1978 JUMPI DUP3 DUP1 PUSH2 0x1970 SWAP1 PUSH2 0x23E5 JUMP JUMPDEST SWAP4 POP POP PUSH2 0x193F JUMP JUMPDEST JUMPDEST DUP6 DUP3 DUP2 MLOAD DUP2 LT PUSH2 0x198C JUMPI PUSH2 0x198B PUSH2 0x1E22 JUMP JUMPDEST JUMPDEST PUSH1 0x20 MUL PUSH1 0x20 ADD ADD MLOAD PUSH1 0x40 ADD MLOAD DUP2 LT ISZERO PUSH2 0x19B2 JUMPI DUP2 DUP1 PUSH2 0x19AA SWAP1 PUSH2 0x242D JUMP JUMPDEST SWAP3 POP POP PUSH2 0x1979 JUMP JUMPDEST DUP2 DUP4 SGT PUSH2 0x1A48 JUMPI DUP6 DUP3 DUP2 MLOAD DUP2 LT PUSH2 0x19CC JUMPI PUSH2 0x19CB PUSH2 0x1E22 JUMP JUMPDEST JUMPDEST PUSH1 0x20 MUL PUSH1 0x20 ADD ADD MLOAD DUP7 DUP5 DUP2 MLOAD DUP2 LT PUSH2 0x19E7 JUMPI PUSH2 0x19E6 PUSH2 0x1E22 JUMP JUMPDEST JUMPDEST PUSH1 0x20 MUL PUSH1 0x20 ADD ADD MLOAD DUP8 DUP6 DUP2 MLOAD DUP2 LT PUSH2 0x1A02 JUMPI PUSH2 0x1A01 PUSH2 0x1E22 JUMP JUMPDEST JUMPDEST PUSH1 0x20 MUL PUSH1 0x20 ADD ADD DUP9 DUP6 DUP2 MLOAD DUP2 LT PUSH2 0x1A1C JUMPI PUSH2 0x1A1B PUSH2 0x1E22 JUMP JUMPDEST JUMPDEST PUSH1 0x20 MUL PUSH1 0x20 ADD ADD DUP3 SWAP1 MSTORE DUP3 SWAP1 MSTORE POP POP DUP3 DUP1 PUSH2 0x1A36 SWAP1 PUSH2 0x23E5 JUMP JUMPDEST SWAP4 POP POP DUP2 DUP1 PUSH2 0x1A44 SWAP1 PUSH2 0x242D JUMP JUMPDEST SWAP3 POP POP JUMPDEST PUSH2 0x1937 JUMP JUMPDEST DUP2 DUP6 SLT ISZERO PUSH2 0x1A61 JUMPI PUSH2 0x1A60 DUP7 DUP7 DUP5 PUSH2 0x18D9 JUMP JUMPDEST JUMPDEST DUP4 DUP4 SLT ISZERO PUSH2 0x1A75 JUMPI PUSH2 0x1A74 DUP7 DUP5 DUP7 PUSH2 0x18D9 JUMP JUMPDEST JUMPDEST POP POP POP JUMPDEST POP POP POP JUMP JUMPDEST PUSH1 0x0 DUP1 REVERT JUMPDEST PUSH1 0x0 DUP2 SWAP1 POP SWAP2 SWAP1 POP JUMP JUMPDEST PUSH2 0x1A96 DUP2 PUSH2 0x1A83 JUMP JUMPDEST DUP2 EQ PUSH2 0x1AA1 JUMPI PUSH1 0x0 DUP1 REVERT JUMPDEST POP JUMP JUMPDEST PUSH1 0x0 DUP2 CALLDATALOAD SWAP1 POP PUSH2 0x1AB3 DUP2 PUSH2 0x1A8D JUMP JUMPDEST SWAP3 SWAP2 POP POP JUMP JUMPDEST PUSH1 0x0 PUSH1 0x20 DUP3 DUP5 SUB SLT ISZERO PUSH2 0x1ACF JUMPI PUSH2 0x1ACE PUSH2 0x1A7E JUMP JUMPDEST JUMPDEST PUSH1 0x0 PUSH2 0x1ADD DUP5 DUP3 DUP6 ADD PUSH2 0x1AA4 JUMP JUMPDEST SWAP2 POP POP SWAP3 SWAP2 POP POP JUMP JUMPDEST PUSH1 0x0 DUP2 MLOAD SWAP1 POP SWAP2 SWAP1 POP JUMP JUMPDEST PUSH1 0x0 DUP3 DUP3 MSTORE PUSH1 0x20 DUP3 ADD SWAP1 POP SWAP3 SWAP2 POP POP JUMP JUMPDEST PUSH1 0x0 DUP2 SWAP1 POP PUSH1 0x20 DUP3 ADD SWAP1 POP SWAP2 SWAP1 POP JUMP JUMPDEST PUSH2 0x1B1B DUP2 PUSH2 0x1A83 JUMP JUMPDEST DUP3 MSTORE POP POP JUMP JUMPDEST PUSH1 0x0 PUSH2 0x1B2D DUP4 DUP4 PUSH2 0x1B12 JUMP JUMPDEST PUSH1 0x20 DUP4 ADD SWAP1 POP SWAP3 SWAP2 POP POP JUMP JUMPDEST PUSH1 0x0 PUSH1 0x20 DUP3 ADD SWAP1 POP SWAP2 SWAP1 POP JUMP JUMPDEST PUSH1 0x0 PUSH2 0x1B51 DUP3 PUSH2 0x1AE6 JUMP JUMPDEST PUSH2 0x1B5B DUP2 DUP6 PUSH2 0x1AF1 JUMP JUMPDEST SWAP4 POP PUSH2 0x1B66 DUP4 PUSH2 0x1B02 JUMP JUMPDEST DUP1 PUSH1 0x0 JUMPDEST DUP4 DUP2 LT ISZERO PUSH2 0x1B97 JUMPI DUP2 MLOAD PUSH2 0x1B7E DUP9 DUP3 PUSH2 0x1B21 JUMP JUMPDEST SWAP8 POP PUSH2 0x1B89 DUP4 PUSH2 0x1B39 JUMP JUMPDEST SWAP3 POP POP PUSH1 0x1 DUP2 ADD SWAP1 POP PUSH2 0x1B6A JUMP JUMPDEST POP DUP6 SWAP4 POP POP POP POP SWAP3 SWAP2 POP POP JUMP JUMPDEST PUSH1 0x0 PUSH1 0x20 DUP3 ADD SWAP1 POP DUP2 DUP2 SUB PUSH1 0x0 DUP4 ADD MSTORE PUSH2 0x1BBE DUP2 DUP5 PUSH2 0x1B46 JUMP JUMPDEST SWAP1 POP SWAP3 SWAP2 POP POP JUMP JUMPDEST PUSH2 0x1BCF DUP2 PUSH2 0x1A83 JUMP JUMPDEST DUP3 MSTORE POP POP JUMP JUMPDEST PUSH1 0x0 PUSH1 0x20 DUP3 ADD SWAP1 POP PUSH2 0x1BEA PUSH1 0x0 DUP4 ADD DUP5 PUSH2 0x1BC6 JUMP JUMPDEST SWAP3 SWAP2 POP POP JUMP JUMPDEST PUSH1 0x0 DUP2 MLOAD SWAP1 POP SWAP2 SWAP1 POP JUMP JUMPDEST PUSH1 0x0 DUP3 DUP3 MSTORE PUSH1 0x20 DUP3 ADD SWAP1 POP SWAP3 SWAP2 POP POP JUMP JUMPDEST PUSH1 0x0 DUP2 SWAP1 POP PUSH1 0x20 DUP3 ADD SWAP1 POP SWAP2 SWAP1 POP JUMP JUMPDEST PUSH1 0x0 PUSH20 0xFFFFFFFFFFFFFFFFFFFFFFFFFFFFFFFFFFFFFFFF DUP3 AND SWAP1 POP SWAP2 SWAP1 POP JUMP JUMPDEST PUSH1 0x0 PUSH2 0x1C47 DUP3 PUSH2 0x1C1C JUMP JUMPDEST SWAP1 POP SWAP2 SWAP1 POP JUMP JUMPDEST PUSH2 0x1C57 DUP2 PUSH2 0x1C3C JUMP JUMPDEST DUP3 MSTORE POP POP JUMP JUMPDEST PUSH32 0x4E487B7100000000000000000000000000000000000000000000000000000000 PUSH1 0x0 MSTORE PUSH1 0x21 PUSH1 0x4 MSTORE PUSH1 0x24 PUSH1 0x0 REVERT JUMPDEST PUSH1 0x2 DUP2 LT PUSH2 0x1C9D JUMPI PUSH2 0x1C9C PUSH2 0x1C5D JUMP JUMPDEST JUMPDEST POP JUMP JUMPDEST PUSH1 0x0 DUP2 SWAP1 POP PUSH2 0x1CAE DUP3 PUSH2 0x1C8C JUMP JUMPDEST SWAP2 SWAP1 POP JUMP JUMPDEST PUSH1 0x0 PUSH2 0x1CBE DUP3 PUSH2 0x1CA0 JUMP JUMPDEST SWAP1 POP SWAP2 SWAP1 POP JUMP JUMPDEST PUSH2 0x1CCE DUP2 PUSH2 0x1CB3 JUMP JUMPDEST DUP3 MSTORE POP POP JUMP JUMPDEST PUSH1 0x80 DUP3 ADD PUSH1 0x0 DUP3 ADD MLOAD PUSH2 0x1CEA PUSH1 0x0 DUP6 ADD DUP3 PUSH2 0x1C4E JUMP JUMPDEST POP PUSH1 0x20 DUP3 ADD MLOAD PUSH2 0x1CFD PUSH1 0x20 DUP6 ADD DUP3 PUSH2 0x1B12 JUMP JUMPDEST POP PUSH1 0x40 DUP3 ADD MLOAD PUSH2 0x1D10 PUSH1 0x40 DUP6 ADD DUP3 PUSH2 0x1B12 JUMP JUMPDEST POP PUSH1 0x60 DUP3 ADD MLOAD PUSH2 0x1D23 PUSH1 0x60 DUP6 ADD DUP3 PUSH2 0x1CC5 JUMP JUMPDEST POP POP POP POP JUMP JUMPDEST PUSH1 0x0 PUSH2 0x1D35 DUP4 DUP4 PUSH2 0x1CD4 JUMP JUMPDEST PUSH1 0x80 DUP4 ADD SWAP1 POP SWAP3 SWAP2 POP POP JUMP JUMPDEST PUSH1 0x0 PUSH1 0x20 DUP3 ADD SWAP1 POP SWAP2 SWAP1 POP JUMP JUMPDEST PUSH1 0x0 PUSH2 0x1D59 DUP3 PUSH2 0x1BF0 JUMP JUMPDEST PUSH2 0x1D63 DUP2 DUP6 PUSH2 0x1BFB JUMP JUMPDEST SWAP4 POP PUSH2 0x1D6E DUP4 PUSH2 0x1C0C JUMP JUMPDEST DUP1 PUSH1 0x0 JUMPDEST DUP4 DUP2 LT ISZERO PUSH2 0x1D9F JUMPI DUP2 MLOAD PUSH2 0x1D86 DUP9 DUP3 PUSH2 0x1D29 JUMP JUMPDEST SWAP8 POP PUSH2 0x1D91 DUP4 PUSH2 0x1D41 JUMP JUMPDEST SWAP3 POP POP PUSH1 0x1 DUP2 ADD SWAP1 POP PUSH2 0x1D72 JUMP JUMPDEST POP DUP6 SWAP4 POP POP POP POP SWAP3 SWAP2 POP POP JUMP JUMPDEST PUSH1 0x0 PUSH1 0x20 DUP3 ADD SWAP1 POP DUP2 DUP2 SUB PUSH1 0x0 DUP4 ADD MSTORE PUSH2 0x1DC6 DUP2 DUP5 PUSH2 0x1D4E JUMP JUMPDEST SWAP1 POP SWAP3 SWAP2 POP POP JUMP JUMPDEST PUSH2 0x1DD7 DUP2 PUSH2 0x1CB3 JUMP JUMPDEST DUP3 MSTORE POP POP JUMP JUMPDEST PUSH1 0x0 PUSH1 0x20 DUP3 ADD SWAP1 POP PUSH2 0x1DF2 PUSH1 0x0 DUP4 ADD DUP5 PUSH2 0x1DCE JUMP JUMPDEST SWAP3 SWAP2 POP POP JUMP JUMPDEST PUSH2 0x1E01 DUP2 PUSH2 0x1C3C JUMP JUMPDEST DUP3 MSTORE POP POP JUMP JUMPDEST PUSH1 0x0 PUSH1 0x20 DUP3 ADD SWAP1 POP PUSH2 0x1E1C PUSH1 0x0 DUP4 ADD DUP5 PUSH2 0x1DF8 JUMP JUMPDEST SWAP3 SWAP2 POP POP JUMP JUMPDEST PUSH32 0x4E487B7100000000000000000000000000000000000000000000000000000000 PUSH1 0x0 MSTORE PUSH1 0x32 PUSH1 0x4 MSTORE PUSH1 0x24 PUSH1 0x0 REVERT JUMPDEST PUSH32 0x4E487B7100000000000000000000000000000000000000000000000000000000 PUSH1 0x0 MSTORE PUSH1 0x11 PUSH1 0x4 MSTORE PUSH1 0x24 PUSH1 0x0 REVERT JUMPDEST PUSH1 0x0 PUSH2 0x1E8B DUP3 PUSH2 0x1A83 JUMP JUMPDEST SWAP2 POP PUSH32 0xFFFFFFFFFFFFFFFFFFFFFFFFFFFFFFFFFFFFFFFFFFFFFFFFFFFFFFFFFFFFFFFF DUP3 SUB PUSH2 0x1EBD JUMPI PUSH2 0x1EBC PUSH2 0x1E51 JUMP JUMPDEST JUMPDEST PUSH1 0x1 DUP3 ADD SWAP1 POP SWAP2 SWAP1 POP JUMP JUMPDEST PUSH1 0x0 DUP3 DUP3 MSTORE PUSH1 0x20 DUP3 ADD SWAP1 POP SWAP3 SWAP2 POP POP JUMP JUMPDEST PUSH32 0x4F726465722050656E64696E6700000000000000000000000000000000000000 PUSH1 0x0 DUP3 ADD MSTORE POP JUMP JUMPDEST PUSH1 0x0 PUSH2 0x1F0F PUSH1 0xD DUP4 PUSH2 0x1EC8 JUMP JUMPDEST SWAP2 POP PUSH2 0x1F1A DUP3 PUSH2 0x1ED9 JUMP JUMPDEST PUSH1 0x20 DUP3 ADD SWAP1 POP SWAP2 SWAP1 POP JUMP JUMPDEST PUSH1 0x0 PUSH1 0x20 DUP3 ADD SWAP1 POP DUP2 DUP2 SUB PUSH1 0x0 DUP4 ADD MSTORE PUSH2 0x1F3E DUP2 PUSH2 0x1F02 JUMP JUMPDEST SWAP1 POP SWAP2 SWAP1 POP JUMP JUMPDEST PUSH32 0x4E6F7420417574686F7269736564000000000000000000000000000000000000 PUSH1 0x0 DUP3 ADD MSTORE POP JUMP JUMPDEST PUSH1 0x0 PUSH2 0x1F7B PUSH1 0xE DUP4 PUSH2 0x1EC8 JUMP JUMPDEST SWAP2 POP PUSH2 0x1F86 DUP3 PUSH2 0x1F45 JUMP JUMPDEST PUSH1 0x20 DUP3 ADD SWAP1 POP SWAP2 SWAP1 POP JUMP JUMPDEST PUSH1 0x0 PUSH1 0x20 DUP3 ADD SWAP1 POP DUP2 DUP2 SUB PUSH1 0x0 DUP4 ADD MSTORE PUSH2 0x1FAA DUP2 PUSH2 0x1F6E JUMP JUMPDEST SWAP1 POP SWAP2 SWAP1 POP JUMP JUMPDEST PUSH32 0x70726963652076616C7565206D757374206265206D6F7265207468616E203000 PUSH1 0x0 DUP3 ADD MSTORE POP JUMP JUMPDEST PUSH1 0x0 PUSH2 0x1FE7 PUSH1 0x1F DUP4 PUSH2 0x1EC8 JUMP JUMPDEST SWAP2 POP PUSH2 0x1FF2 DUP3 PUSH2 0x1FB1 JUMP JUMPDEST PUSH1 0x20 DUP3 ADD SWAP1 POP SWAP2 SWAP1 POP JUMP JUMPDEST PUSH1 0x0 PUSH1 0x20 DUP3 ADD SWAP1 POP DUP2 DUP2 SUB PUSH1 0x0 DUP4 ADD MSTORE PUSH2 0x2016 DUP2 PUSH2 0x1FDA JUMP JUMPDEST SWAP1 POP SWAP2 SWAP1 POP JUMP JUMPDEST PUSH32 0x4E6F7420656E6F75676820626C616E636520746F20706C6163652061736B0000 PUSH1 0x0 DUP3 ADD MSTORE POP JUMP JUMPDEST PUSH1 0x0 PUSH2 0x2053 PUSH1 0x1E DUP4 PUSH2 0x1EC8 JUMP JUMPDEST SWAP2 POP PUSH2 0x205E DUP3 PUSH2 0x201D JUMP JUMPDEST PUSH1 0x20 DUP3 ADD SWAP1 POP SWAP2 SWAP1 POP JUMP JUMPDEST PUSH1 0x0 PUSH1 0x20 DUP3 ADD SWAP1 POP DUP2 DUP2 SUB PUSH1 0x0 DUP4 ADD MSTORE PUSH2 0x2082 DUP2 PUSH2 0x2046 JUMP JUMPDEST SWAP1 POP SWAP2 SWAP1 POP JUMP JUMPDEST PUSH1 0x0 PUSH2 0x2094 DUP3 PUSH2 0x1A83 JUMP JUMPDEST SWAP2 POP PUSH2 0x209F DUP4 PUSH2 0x1A83 JUMP JUMPDEST SWAP3 POP DUP3 DUP3 LT ISZERO PUSH2 0x20B2 JUMPI PUSH2 0x20B1 PUSH2 0x1E51 JUMP JUMPDEST JUMPDEST DUP3 DUP3 SUB SWAP1 POP SWAP3 SWAP2 POP POP JUMP JUMPDEST PUSH1 0x0 PUSH2 0x20C8 DUP3 PUSH2 0x1A83 JUMP JUMPDEST SWAP2 POP PUSH2 0x20D3 DUP4 PUSH2 0x1A83 JUMP JUMPDEST SWAP3 POP DUP2 PUSH32 0xFFFFFFFFFFFFFFFFFFFFFFFFFFFFFFFFFFFFFFFFFFFFFFFFFFFFFFFFFFFFFFFF DIV DUP4 GT DUP3 ISZERO ISZERO AND ISZERO PUSH2 0x210C JUMPI PUSH2 0x210B PUSH2 0x1E51 JUMP JUMPDEST JUMPDEST DUP3 DUP3 MUL SWAP1 POP SWAP3 SWAP2 POP POP JUMP JUMPDEST PUSH32 0x4E487B7100000000000000000000000000000000000000000000000000000000 PUSH1 0x0 MSTORE PUSH1 0x12 PUSH1 0x4 MSTORE PUSH1 0x24 PUSH1 0x0 REVERT JUMPDEST PUSH1 0x0 PUSH2 0x2151 DUP3 PUSH2 0x1A83 JUMP JUMPDEST SWAP2 POP PUSH2 0x215C DUP4 PUSH2 0x1A83 JUMP JUMPDEST SWAP3 POP DUP3 PUSH2 0x216C JUMPI PUSH2 0x216B PUSH2 0x2117 JUMP JUMPDEST JUMPDEST DUP3 DUP3 DIV SWAP1 POP SWAP3 SWAP2 POP POP JUMP JUMPDEST PUSH1 0x0 PUSH2 0x2182 DUP3 PUSH2 0x1C1C JUMP JUMPDEST SWAP1 POP SWAP2 SWAP1 POP JUMP JUMPDEST PUSH2 0x2192 DUP2 PUSH2 0x2177 JUMP JUMPDEST DUP3 MSTORE POP POP JUMP JUMPDEST PUSH1 0x0 PUSH1 0x80 DUP3 ADD SWAP1 POP PUSH2 0x21AD PUSH1 0x0 DUP4 ADD DUP8 PUSH2 0x2189 JUMP JUMPDEST PUSH2 0x21BA PUSH1 0x20 DUP4 ADD DUP7 PUSH2 0x1BC6 JUMP JUMPDEST PUSH2 0x21C7 PUSH1 0x40 DUP4 ADD DUP6 PUSH2 0x1BC6 JUMP JUMPDEST PUSH2 0x21D4 PUSH1 0x60 DUP4 ADD DUP5 PUSH2 0x1DCE JUMP JUMPDEST SWAP6 SWAP5 POP POP POP POP POP JUMP JUMPDEST PUSH32 0x4E6F7420656E6F75676820626C616E636520746F20706C616365206269640000 PUSH1 0x0 DUP3 ADD MSTORE POP JUMP JUMPDEST PUSH1 0x0 PUSH2 0x2213 PUSH1 0x1E DUP4 PUSH2 0x1EC8 JUMP JUMPDEST SWAP2 POP PUSH2 0x221E DUP3 PUSH2 0x21DD JUMP JUMPDEST PUSH1 0x20 DUP3 ADD SWAP1 POP SWAP2 SWAP1 POP JUMP JUMPDEST PUSH1 0x0 PUSH1 0x20 DUP3 ADD SWAP1 POP DUP2 DUP2 SUB PUSH1 0x0 DUP4 ADD MSTORE PUSH2 0x2242 DUP2 PUSH2 0x2206 JUMP JUMPDEST SWAP1 POP SWAP2 SWAP1 POP JUMP JUMPDEST PUSH1 0x0 DUP2 SWAP1 POP SWAP2 SWAP1 POP JUMP JUMPDEST PUSH1 0x0 PUSH2 0x225E DUP3 PUSH2 0x2249 JUMP JUMPDEST SWAP2 POP PUSH2 0x2269 DUP4 PUSH2 0x2249 JUMP JUMPDEST SWAP3 POP DUP3 PUSH32 0x8000000000000000000000000000000000000000000000000000000000000000 ADD DUP3 SLT PUSH1 0x0 DUP5 SLT ISZERO AND ISZERO PUSH2 0x22A4 JUMPI PUSH2 0x22A3 PUSH2 0x1E51 JUMP JUMPDEST JUMPDEST DUP3 PUSH32 0x7FFFFFFFFFFFFFFFFFFFFFFFFFFFFFFFFFFFFFFFFFFFFFFFFFFFFFFFFFFFFFFF ADD DUP3 SGT PUSH1 0x0 DUP5 SLT AND ISZERO PUSH2 0x22DC JUMPI PUSH2 0x22DB PUSH2 0x1E51 JUMP JUMPDEST JUMPDEST DUP3 DUP3 SUB SWAP1 POP SWAP3 SWAP2 POP POP JUMP JUMPDEST PUSH1 0x0 PUSH2 0x22F2 DUP3 PUSH2 0x2249 JUMP JUMPDEST SWAP2 POP PUSH2 0x22FD DUP4 PUSH2 0x2249 JUMP JUMPDEST SWAP3 POP DUP3 PUSH2 0x230D JUMPI PUSH2 0x230C PUSH2 0x2117 JUMP JUMPDEST JUMPDEST PUSH1 0x1 PUSH1 0x0 SUB DUP4 EQ PUSH32 0x8000000000000000000000000000000000000000000000000000000000000000 DUP4 EQ AND ISZERO PUSH2 0x2346 JUMPI PUSH2 0x2345 PUSH2 0x1E51 JUMP JUMPDEST JUMPDEST DUP3 DUP3 SDIV SWAP1 POP SWAP3 SWAP2 POP POP JUMP JUMPDEST PUSH1 0x0 PUSH2 0x235C DUP3 PUSH2 0x2249 JUMP JUMPDEST SWAP2 POP PUSH2 0x2367 DUP4 PUSH2 0x2249 JUMP JUMPDEST SWAP3 POP DUP2 PUSH32 0x7FFFFFFFFFFFFFFFFFFFFFFFFFFFFFFFFFFFFFFFFFFFFFFFFFFFFFFFFFFFFFFF SUB DUP4 SGT PUSH1 0x0 DUP4 SLT ISZERO AND ISZERO PUSH2 0x23A2 JUMPI PUSH2 0x23A1 PUSH2 0x1E51 JUMP JUMPDEST JUMPDEST DUP2 PUSH32 0x8000000000000000000000000000000000000000000000000000000000000000 SUB DUP4 SLT PUSH1 0x0 DUP4 SLT AND ISZERO PUSH2 0x23DA JUMPI PUSH2 0x23D9 PUSH2 0x1E51 JUMP JUMPDEST JUMPDEST DUP3 DUP3 ADD SWAP1 POP SWAP3 SWAP2 POP POP JUMP JUMPDEST PUSH1 0x0 PUSH2 0x23F0 DUP3 PUSH2 0x2249 JUMP JUMPDEST SWAP2 POP PUSH32 0x7FFFFFFFFFFFFFFFFFFFFFFFFFFFFFFFFFFFFFFFFFFFFFFFFFFFFFFFFFFFFFFF DUP3 SUB PUSH2 0x2422 JUMPI PUSH2 0x2421 PUSH2 0x1E51 JUMP JUMPDEST JUMPDEST PUSH1 0x1 DUP3 ADD SWAP1 POP SWAP2 SWAP1 POP JUMP JUMPDEST PUSH1 0x0 PUSH2 0x2438 DUP3 PUSH2 0x2249 JUMP JUMPDEST SWAP2 POP PUSH32 0x8000000000000000000000000000000000000000000000000000000000000000 DUP3 SUB PUSH2 0x246A JUMPI PUSH2 0x2469 PUSH2 0x1E51 JUMP JUMPDEST JUMPDEST PUSH1 0x1 DUP3 SUB SWAP1 POP SWAP2 SWAP1 POP JUMP INVALID LOG2 PUSH5 0x6970667358 0x22 SLT KECCAK256 0xE DUP13 SWAP3 0x1F 0x4E 0x4D ADD PUSH11 0xE5FBBD618963893DF0D491 DUP4 0xFC EXTCODEHASH SWAP9 0xD0 0xC8 BASEFEE 0x21 TIMESTAMP PUSH24 0x1E569464736F6C634300080D003300000000000000000000 "
				},
				"gasEstimates": {
					"creation": {
						"codeDepositCost": "1877400",
						"executionCost": "infinite",
						"totalCost": "infinite"
					},
					"external": {
						"cancelAsk(uint256)": "infinite",
						"cancelBid(uint256)": "infinite",
						"fetchAllAsk()": "infinite",
						"fetchAllBid()": "infinite",
						"fetchYourAskIds()": "infinite",
						"fetchYourBidIds()": "infinite",
						"getAskAddress(uint256)": "5007",
						"getAskState(uint256)": "5097",
						"getAskValue(uint256)": "infinite",
						"getBidAddress(uint256)": "5073",
						"getBidState(uint256)": "5052",
						"getBidValue(uint256)": "infinite",
						"placeAsk(uint256)": "infinite",
						"placeBid(uint256)": "infinite",
						"takeBid(uint256)": "406"
					},
					"internal": {
						"ascendingQuickSort(struct OrderBook.order memory[] memory,int256,int256)": "infinite",
						"deleteArray()": "infinite",
						"descendingQuickSort(struct OrderBook.order memory[] memory,int256,int256)": "infinite",
						"sortAsk()": "infinite",
						"sortBid()": "infinite"
					}
				},
				"methodIdentifiers": {
					"cancelAsk(uint256)": "1628e0f5",
					"cancelBid(uint256)": "9703ef35",
					"fetchAllAsk()": "c5374af2",
					"fetchAllBid()": "4471417f",
					"fetchYourAskIds()": "122de8f2",
					"fetchYourBidIds()": "ce0cdc87",
					"getAskAddress(uint256)": "734a2e78",
					"getAskState(uint256)": "4d46712d",
					"getAskValue(uint256)": "db3a1396",
					"getBidAddress(uint256)": "69f632e2",
					"getBidState(uint256)": "bf77ffae",
					"getBidValue(uint256)": "2db6dfa7",
					"placeAsk(uint256)": "78c5b268",
					"placeBid(uint256)": "9979ef45",
					"takeBid(uint256)": "012e0153"
				}
			},
			"storageLayout": {
				"storage": [
					{
						"astId": 6,
						"contract": "contracts/OrderBook.sol:OrderBook",
						"label": "_owner",
						"offset": 0,
						"slot": "0",
						"type": "t_address_payable"
					},
					{
						"astId": 8,
						"contract": "contracts/OrderBook.sol:OrderBook",
						"label": "commission",
						"offset": 0,
						"slot": "1",
						"type": "t_uint256"
					},
					{
						"astId": 40,
						"contract": "contracts/OrderBook.sol:OrderBook",
						"label": "bidBook",
						"offset": 0,
						"slot": "2",
						"type": "t_array(t_struct(order)36_storage)dyn_storage"
					},
					{
						"astId": 44,
						"contract": "contracts/OrderBook.sol:OrderBook",
						"label": "askBook",
						"offset": 0,
						"slot": "3",
						"type": "t_array(t_struct(order)36_storage)dyn_storage"
					},
					{
						"astId": 47,
						"contract": "contracts/OrderBook.sol:OrderBook",
						"label": "request",
						"offset": 0,
						"slot": "4",
						"type": "t_array(t_uint256)dyn_storage"
					}
				],
				"types": {
					"t_address_payable": {
						"encoding": "inplace",
						"label": "address payable",
						"numberOfBytes": "20"
					},
					"t_array(t_struct(order)36_storage)dyn_storage": {
						"base": "t_struct(order)36_storage",
						"encoding": "dynamic_array",
						"label": "struct OrderBook.order[]",
						"numberOfBytes": "32"
					},
					"t_array(t_uint256)dyn_storage": {
						"base": "t_uint256",
						"encoding": "dynamic_array",
						"label": "uint256[]",
						"numberOfBytes": "32"
					},
					"t_enum(State)4": {
						"encoding": "inplace",
						"label": "enum OrderBook.State",
						"numberOfBytes": "1"
					},
					"t_struct(order)36_storage": {
						"encoding": "inplace",
						"label": "struct OrderBook.order",
						"members": [
							{
								"astId": 28,
								"contract": "contracts/OrderBook.sol:OrderBook",
								"label": "customer",
								"offset": 0,
								"slot": "0",
								"type": "t_address_payable"
							},
							{
								"astId": 30,
								"contract": "contracts/OrderBook.sol:OrderBook",
								"label": "value",
								"offset": 0,
								"slot": "1",
								"type": "t_uint256"
							},
							{
								"astId": 32,
								"contract": "contracts/OrderBook.sol:OrderBook",
								"label": "timestamp",
								"offset": 0,
								"slot": "2",
								"type": "t_uint256"
							},
							{
								"astId": 35,
								"contract": "contracts/OrderBook.sol:OrderBook",
								"label": "state",
								"offset": 0,
								"slot": "3",
								"type": "t_enum(State)4"
							}
						],
						"numberOfBytes": "128"
					},
					"t_uint256": {
						"encoding": "inplace",
						"label": "uint256",
						"numberOfBytes": "32"
					}
				}
			},
			"userdoc": {
				"kind": "user",
				"methods": {},
				"version": 1
			}
		}
	}
}