{
	"contracts/OrderBook.sol": {
		"OrderBook": {
			"abi": [
				{
					"anonymous": false,
					"inputs": [
						{
							"indexed": false,
							"internalType": "address",
							"name": "",
							"type": "address"
						},
						{
							"indexed": false,
							"internalType": "uint256",
							"name": "",
							"type": "uint256"
						},
						{
							"indexed": false,
							"internalType": "uint256",
							"name": "",
							"type": "uint256"
						},
						{
							"indexed": false,
							"internalType": "enum OrderBook.State",
							"name": "",
							"type": "uint8"
						}
					],
					"name": "askPlaced",
					"type": "event"
				},
				{
					"anonymous": false,
					"inputs": [
						{
							"indexed": false,
							"internalType": "address",
							"name": "",
							"type": "address"
						},
						{
							"indexed": false,
							"internalType": "uint256",
							"name": "",
							"type": "uint256"
						},
						{
							"indexed": false,
							"internalType": "uint256",
							"name": "",
							"type": "uint256"
						},
						{
							"indexed": false,
							"internalType": "enum OrderBook.State",
							"name": "",
							"type": "uint8"
						}
					],
					"name": "bidPlaced",
					"type": "event"
				},
				{
					"inputs": [
						{
							"internalType": "uint256",
							"name": "askId",
							"type": "uint256"
						}
					],
					"name": "cancelAsk",
					"outputs": [],
					"stateMutability": "nonpayable",
					"type": "function"
				},
				{
					"inputs": [
						{
							"internalType": "uint256",
							"name": "bidId",
							"type": "uint256"
						}
					],
					"name": "cancelBid",
					"outputs": [],
					"stateMutability": "nonpayable",
					"type": "function"
				},
				{
					"inputs": [],
					"name": "fetchAllAsk",
					"outputs": [
						{
							"components": [
								{
									"internalType": "address payable",
									"name": "customer",
									"type": "address"
								},
								{
									"internalType": "uint256",
									"name": "price",
									"type": "uint256"
								},
								{
									"internalType": "uint256",
									"name": "timestamp",
									"type": "uint256"
								},
								{
									"internalType": "enum OrderBook.State",
									"name": "state",
									"type": "uint8"
								}
							],
							"internalType": "struct OrderBook.order[]",
							"name": "",
							"type": "tuple[]"
						}
					],
					"stateMutability": "view",
					"type": "function"
				},
				{
					"inputs": [],
					"name": "fetchAllBid",
					"outputs": [
						{
							"components": [
								{
									"internalType": "address payable",
									"name": "customer",
									"type": "address"
								},
								{
									"internalType": "uint256",
									"name": "price",
									"type": "uint256"
								},
								{
									"internalType": "uint256",
									"name": "timestamp",
									"type": "uint256"
								},
								{
									"internalType": "enum OrderBook.State",
									"name": "state",
									"type": "uint8"
								}
							],
							"internalType": "struct OrderBook.order[]",
							"name": "",
							"type": "tuple[]"
						}
					],
					"stateMutability": "view",
					"type": "function"
				},
				{
					"inputs": [],
					"name": "fetchYourAskIds",
					"outputs": [
						{
							"internalType": "uint256[]",
							"name": "",
							"type": "uint256[]"
						}
					],
					"stateMutability": "nonpayable",
					"type": "function"
				},
				{
					"inputs": [],
					"name": "fetchYourBidIds",
					"outputs": [
						{
							"internalType": "uint256[]",
							"name": "",
							"type": "uint256[]"
						}
					],
					"stateMutability": "nonpayable",
					"type": "function"
				},
				{
					"inputs": [
						{
							"internalType": "uint256",
							"name": "price",
							"type": "uint256"
						}
					],
					"name": "placeAsk",
					"outputs": [],
					"stateMutability": "nonpayable",
					"type": "function"
				},
				{
					"inputs": [
						{
							"internalType": "uint256",
							"name": "price",
							"type": "uint256"
						}
					],
					"name": "placeBid",
					"outputs": [],
					"stateMutability": "nonpayable",
					"type": "function"
				}
			],
			"devdoc": {
				"kind": "dev",
				"methods": {},
				"version": 1
			},
			"evm": {
				"assembly": "    /* \"contracts/OrderBook.sol\":730:4540  contract OrderBook {... */\n  mstore(0x40, 0x80)\n  callvalue\n  dup1\n  iszero\n  tag_1\n  jumpi\n  0x00\n  dup1\n  revert\ntag_1:\n  pop\n  dataSize(sub_0)\n  dup1\n  dataOffset(sub_0)\n  0x00\n  codecopy\n  0x00\n  return\nstop\n\nsub_0: assembly {\n        /* \"contracts/OrderBook.sol\":730:4540  contract OrderBook {... */\n      mstore(0x40, 0x80)\n      callvalue\n      dup1\n      iszero\n      tag_1\n      jumpi\n      0x00\n      dup1\n      revert\n    tag_1:\n      pop\n      jumpi(tag_2, lt(calldatasize, 0x04))\n      shr(0xe0, calldataload(0x00))\n      dup1\n      0x9703ef35\n      gt\n      tag_11\n      jumpi\n      dup1\n      0x9703ef35\n      eq\n      tag_7\n      jumpi\n      dup1\n      0x9979ef45\n      eq\n      tag_8\n      jumpi\n      dup1\n      0xc5374af2\n      eq\n      tag_9\n      jumpi\n      dup1\n      0xce0cdc87\n      eq\n      tag_10\n      jumpi\n      jump(tag_2)\n    tag_11:\n      dup1\n      0x122de8f2\n      eq\n      tag_3\n      jumpi\n      dup1\n      0x1628e0f5\n      eq\n      tag_4\n      jumpi\n      dup1\n      0x4471417f\n      eq\n      tag_5\n      jumpi\n      dup1\n      0x78c5b268\n      eq\n      tag_6\n      jumpi\n    tag_2:\n      0x00\n      dup1\n      revert\n        /* \"contracts/OrderBook.sol\":4254:4537  function fetchYourAskIds() public returns (uint[] memory) {... */\n    tag_3:\n      tag_12\n      tag_13\n      jump\t// in\n    tag_12:\n      mload(0x40)\n      tag_14\n      swap2\n      swap1\n      tag_15\n      jump\t// in\n    tag_14:\n      mload(0x40)\n      dup1\n      swap2\n      sub\n      swap1\n      return\n        /* \"contracts/OrderBook.sol\":3628:3765  function cancelAsk (uint256 askId) public isPending(askBook[askId].state) {... */\n    tag_4:\n      tag_16\n      0x04\n      dup1\n      calldatasize\n      sub\n      dup2\n      add\n      swap1\n      tag_17\n      swap2\n      swap1\n      tag_18\n      jump\t// in\n    tag_17:\n      tag_19\n      jump\t// in\n    tag_16:\n      stop\n        /* \"contracts/OrderBook.sol\":3771:3862  function fetchAllBid() public view returns (order[] memory) {... */\n    tag_5:\n      tag_20\n      tag_21\n      jump\t// in\n    tag_20:\n      mload(0x40)\n      tag_22\n      swap2\n      swap1\n      tag_23\n      jump\t// in\n    tag_22:\n      mload(0x40)\n      dup1\n      swap2\n      sub\n      swap1\n      return\n        /* \"contracts/OrderBook.sol\":3450:3622  function placeAsk (uint256 price) public {... */\n    tag_6:\n      tag_24\n      0x04\n      dup1\n      calldatasize\n      sub\n      dup2\n      add\n      swap1\n      tag_25\n      swap2\n      swap1\n      tag_18\n      jump\t// in\n    tag_25:\n      tag_26\n      jump\t// in\n    tag_24:\n      stop\n        /* \"contracts/OrderBook.sol\":3313:3444  function cancelBid (uint256 bidId) public isPending(bidBook[bidId].state) {... */\n    tag_7:\n      tag_27\n      0x04\n      dup1\n      calldatasize\n      sub\n      dup2\n      add\n      swap1\n      tag_28\n      swap2\n      swap1\n      tag_18\n      jump\t// in\n    tag_28:\n      tag_29\n      jump\t// in\n    tag_27:\n      stop\n        /* \"contracts/OrderBook.sol\":3112:3284  function placeBid (uint256 price) public {... */\n    tag_8:\n      tag_30\n      0x04\n      dup1\n      calldatasize\n      sub\n      dup2\n      add\n      swap1\n      tag_31\n      swap2\n      swap1\n      tag_18\n      jump\t// in\n    tag_31:\n      tag_32\n      jump\t// in\n    tag_30:\n      stop\n        /* \"contracts/OrderBook.sol\":3868:3959  function fetchAllAsk() public view returns (order[] memory) {... */\n    tag_9:\n      tag_33\n      tag_34\n      jump\t// in\n    tag_33:\n      mload(0x40)\n      tag_35\n      swap2\n      swap1\n      tag_23\n      jump\t// in\n    tag_35:\n      mload(0x40)\n      dup1\n      swap2\n      sub\n      swap1\n      return\n        /* \"contracts/OrderBook.sol\":3965:4248  function fetchYourBidIds() public returns (uint[] memory) {... */\n    tag_10:\n      tag_36\n      tag_37\n      jump\t// in\n    tag_36:\n      mload(0x40)\n      tag_38\n      swap2\n      swap1\n      tag_15\n      jump\t// in\n    tag_38:\n      mload(0x40)\n      dup1\n      swap2\n      sub\n      swap1\n      return\n        /* \"contracts/OrderBook.sol\":4254:4537  function fetchYourAskIds() public returns (uint[] memory) {... */\n    tag_13:\n        /* \"contracts/OrderBook.sol\":4297:4310  uint[] memory */\n      0x60\n        /* \"contracts/OrderBook.sol\":4322:4335  deleteArray() */\n      tag_40\n        /* \"contracts/OrderBook.sol\":4322:4333  deleteArray */\n      tag_41\n        /* \"contracts/OrderBook.sol\":4322:4335  deleteArray() */\n      jump\t// in\n    tag_40:\n        /* \"contracts/OrderBook.sol\":4350:4356  uint i */\n      0x00\n        /* \"contracts/OrderBook.sol\":4345:4507  for (uint i = 0; i < askBook.length; i++) {... */\n    tag_42:\n        /* \"contracts/OrderBook.sol\":4366:4373  askBook */\n      0x01\n        /* \"contracts/OrderBook.sol\":4366:4380  askBook.length */\n      dup1\n      sload\n      swap1\n      pop\n        /* \"contracts/OrderBook.sol\":4362:4363  i */\n      dup2\n        /* \"contracts/OrderBook.sol\":4362:4380  i < askBook.length */\n      lt\n        /* \"contracts/OrderBook.sol\":4345:4507  for (uint i = 0; i < askBook.length; i++) {... */\n      iszero\n      tag_43\n      jumpi\n        /* \"contracts/OrderBook.sol\":4436:4446  msg.sender */\n      caller\n        /* \"contracts/OrderBook.sol\":4405:4447  askBook[i].customer == payable(msg.sender) */\n      0xffffffffffffffffffffffffffffffffffffffff\n      and\n        /* \"contracts/OrderBook.sol\":4405:4412  askBook */\n      0x01\n        /* \"contracts/OrderBook.sol\":4413:4414  i */\n      dup3\n        /* \"contracts/OrderBook.sol\":4405:4415  askBook[i] */\n      dup2\n      sload\n      dup2\n      lt\n      tag_45\n      jumpi\n      tag_46\n      tag_47\n      jump\t// in\n    tag_46:\n    tag_45:\n      swap1\n      0x00\n      mstore\n      keccak256(0x00, 0x20)\n      swap1\n      0x04\n      mul\n      add\n        /* \"contracts/OrderBook.sol\":4405:4424  askBook[i].customer */\n      0x00\n      add\n      0x00\n      swap1\n      sload\n      swap1\n      0x0100\n      exp\n      swap1\n      div\n      0xffffffffffffffffffffffffffffffffffffffff\n      and\n        /* \"contracts/OrderBook.sol\":4405:4447  askBook[i].customer == payable(msg.sender) */\n      0xffffffffffffffffffffffffffffffffffffffff\n      and\n      sub\n        /* \"contracts/OrderBook.sol\":4401:4497  if (askBook[i].customer == payable(msg.sender)) {... */\n      tag_49\n      jumpi\n        /* \"contracts/OrderBook.sol\":4467:4474  request */\n      0x02\n        /* \"contracts/OrderBook.sol\":4480:4481  i */\n      dup2\n        /* \"contracts/OrderBook.sol\":4467:4482  request.push(i) */\n      swap1\n      dup1\n      0x01\n      dup2\n      sload\n      add\n      dup1\n      dup3\n      sstore\n      dup1\n      swap2\n      pop\n      pop\n      0x01\n      swap1\n      sub\n      swap1\n      0x00\n      mstore\n      keccak256(0x00, 0x20)\n      add\n      0x00\n      swap1\n      swap2\n      swap1\n      swap2\n      swap1\n      swap2\n      pop\n      sstore\n        /* \"contracts/OrderBook.sol\":4401:4497  if (askBook[i].customer == payable(msg.sender)) {... */\n    tag_49:\n        /* \"contracts/OrderBook.sol\":4382:4385  i++ */\n      dup1\n      dup1\n      tag_51\n      swap1\n      tag_52\n      jump\t// in\n    tag_51:\n      swap2\n      pop\n      pop\n        /* \"contracts/OrderBook.sol\":4345:4507  for (uint i = 0; i < askBook.length; i++) {... */\n      jump(tag_42)\n    tag_43:\n      pop\n        /* \"contracts/OrderBook.sol\":4523:4530  request */\n      0x02\n        /* \"contracts/OrderBook.sol\":4516:4530  return request */\n      dup1\n      sload\n      dup1\n      0x20\n      mul\n      0x20\n      add\n      mload(0x40)\n      swap1\n      dup2\n      add\n      0x40\n      mstore\n      dup1\n      swap3\n      swap2\n      swap1\n      dup2\n      dup2\n      mstore\n      0x20\n      add\n      dup3\n      dup1\n      sload\n      dup1\n      iszero\n      tag_53\n      jumpi\n      0x20\n      mul\n      dup3\n      add\n      swap2\n      swap1\n      0x00\n      mstore\n      keccak256(0x00, 0x20)\n      swap1\n    tag_54:\n      dup2\n      sload\n      dup2\n      mstore\n      0x20\n      add\n      swap1\n      0x01\n      add\n      swap1\n      dup1\n      dup4\n      gt\n      tag_54\n      jumpi\n    tag_53:\n      pop\n      pop\n      pop\n      pop\n      pop\n      swap1\n      pop\n        /* \"contracts/OrderBook.sol\":4254:4537  function fetchYourAskIds() public returns (uint[] memory) {... */\n      swap1\n      jump\t// out\n        /* \"contracts/OrderBook.sol\":3628:3765  function cancelAsk (uint256 askId) public isPending(askBook[askId].state) {... */\n    tag_19:\n        /* \"contracts/OrderBook.sol\":3680:3687  askBook */\n      0x01\n        /* \"contracts/OrderBook.sol\":3688:3693  askId */\n      dup2\n        /* \"contracts/OrderBook.sol\":3680:3694  askBook[askId] */\n      dup2\n      sload\n      dup2\n      lt\n      tag_55\n      jumpi\n      tag_56\n      tag_47\n      jump\t// in\n    tag_56:\n    tag_55:\n      swap1\n      0x00\n      mstore\n      keccak256(0x00, 0x20)\n      swap1\n      0x04\n      mul\n      add\n        /* \"contracts/OrderBook.sol\":3680:3700  askBook[askId].state */\n      0x03\n      add\n      0x00\n      swap1\n      sload\n      swap1\n      0x0100\n      exp\n      swap1\n      div\n      0xff\n      and\n        /* \"contracts/OrderBook.sol\":1249:1262  State.pending */\n      0x00\n        /* \"contracts/OrderBook.sol\":1240:1262  state == State.pending */\n      0x01\n      dup2\n      gt\n      iszero\n      tag_59\n      jumpi\n      tag_60\n      tag_61\n      jump\t// in\n    tag_60:\n    tag_59:\n        /* \"contracts/OrderBook.sol\":1240:1245  state */\n      dup2\n        /* \"contracts/OrderBook.sol\":1240:1262  state == State.pending */\n      0x01\n      dup2\n      gt\n      iszero\n      tag_62\n      jumpi\n      tag_63\n      tag_61\n      jump\t// in\n    tag_63:\n    tag_62:\n      eq\n        /* \"contracts/OrderBook.sol\":1232:1280  require(state == State.pending, \"Order Pending\") */\n      tag_64\n      jumpi\n      mload(0x40)\n      0x08c379a000000000000000000000000000000000000000000000000000000000\n      dup2\n      mstore\n      0x04\n      add\n      tag_65\n      swap1\n      tag_66\n      jump\t// in\n    tag_65:\n      mload(0x40)\n      dup1\n      swap2\n      sub\n      swap1\n      revert\n    tag_64:\n        /* \"contracts/OrderBook.sol\":3719:3726  askBook */\n      0x01\n        /* \"contracts/OrderBook.sol\":3727:3732  askId */\n      dup3\n        /* \"contracts/OrderBook.sol\":3719:3733  askBook[askId] */\n      dup2\n      sload\n      dup2\n      lt\n      tag_68\n      jumpi\n      tag_69\n      tag_47\n      jump\t// in\n    tag_69:\n    tag_68:\n      swap1\n      0x00\n      mstore\n      keccak256(0x00, 0x20)\n      swap1\n      0x04\n      mul\n      add\n      0x00\n        /* \"contracts/OrderBook.sol\":3712:3733  delete askBook[askId] */\n      dup1\n      dup3\n      add\n      exp(0x0100, 0x00)\n      dup2\n      sload\n      swap1\n      0xffffffffffffffffffffffffffffffffffffffff\n      mul\n      not\n      and\n      swap1\n      sstore\n      0x01\n      dup3\n      add\n      0x00\n      swap1\n      sstore\n      0x02\n      dup3\n      add\n      0x00\n      swap1\n      sstore\n      0x03\n      dup3\n      add\n      exp(0x0100, 0x00)\n      dup2\n      sload\n      swap1\n      0xff\n      mul\n      not\n      and\n      swap1\n      sstore\n      pop\n      pop\n        /* \"contracts/OrderBook.sol\":3743:3752  sortAsk() */\n      tag_71\n        /* \"contracts/OrderBook.sol\":3743:3750  sortAsk */\n      tag_72\n        /* \"contracts/OrderBook.sol\":3743:3752  sortAsk() */\n      jump\t// in\n    tag_71:\n        /* \"contracts/OrderBook.sol\":3628:3765  function cancelAsk (uint256 askId) public isPending(askBook[askId].state) {... */\n      pop\n      pop\n      jump\t// out\n        /* \"contracts/OrderBook.sol\":3771:3862  function fetchAllBid() public view returns (order[] memory) {... */\n    tag_21:\n        /* \"contracts/OrderBook.sol\":3815:3829  order[] memory */\n      0x60\n        /* \"contracts/OrderBook.sol\":3848:3855  bidBook */\n      0x00\n        /* \"contracts/OrderBook.sol\":3841:3855  return bidBook */\n      dup1\n      sload\n      dup1\n      0x20\n      mul\n      0x20\n      add\n      mload(0x40)\n      swap1\n      dup2\n      add\n      0x40\n      mstore\n      dup1\n      swap3\n      swap2\n      swap1\n      dup2\n      dup2\n      mstore\n      0x20\n      add\n      0x00\n      swap1\n    tag_74:\n      dup3\n      dup3\n      lt\n      iszero\n      tag_75\n      jumpi\n      dup4\n      dup3\n      swap1\n      0x00\n      mstore\n      keccak256(0x00, 0x20)\n      swap1\n      0x04\n      mul\n      add\n      mload(0x40)\n      dup1\n      0x80\n      add\n      0x40\n      mstore\n      swap1\n      dup2\n      0x00\n      dup3\n      add\n      0x00\n      swap1\n      sload\n      swap1\n      0x0100\n      exp\n      swap1\n      div\n      0xffffffffffffffffffffffffffffffffffffffff\n      and\n      0xffffffffffffffffffffffffffffffffffffffff\n      and\n      0xffffffffffffffffffffffffffffffffffffffff\n      and\n      dup2\n      mstore\n      0x20\n      add\n      0x01\n      dup3\n      add\n      sload\n      dup2\n      mstore\n      0x20\n      add\n      0x02\n      dup3\n      add\n      sload\n      dup2\n      mstore\n      0x20\n      add\n      0x03\n      dup3\n      add\n      0x00\n      swap1\n      sload\n      swap1\n      0x0100\n      exp\n      swap1\n      div\n      0xff\n      and\n      0x01\n      dup2\n      gt\n      iszero\n      tag_77\n      jumpi\n      tag_78\n      tag_61\n      jump\t// in\n    tag_78:\n    tag_77:\n      0x01\n      dup2\n      gt\n      iszero\n      tag_79\n      jumpi\n      tag_80\n      tag_61\n      jump\t// in\n    tag_80:\n    tag_79:\n      dup2\n      mstore\n      pop\n      pop\n      dup2\n      mstore\n      0x20\n      add\n      swap1\n      0x01\n      add\n      swap1\n      jump(tag_74)\n    tag_75:\n      pop\n      pop\n      pop\n      pop\n      swap1\n      pop\n        /* \"contracts/OrderBook.sol\":3771:3862  function fetchAllBid() public view returns (order[] memory) {... */\n      swap1\n      jump\t// out\n        /* \"contracts/OrderBook.sol\":3450:3622  function placeAsk (uint256 price) public {... */\n    tag_26:\n        /* \"contracts/OrderBook.sol\":3501:3520  order memory newBid */\n      0x00\n        /* \"contracts/OrderBook.sol\":3523:3585  order(payable(msg.sender),price,block.timestamp,State.pending) */\n      mload(0x40)\n      dup1\n      0x80\n      add\n      0x40\n      mstore\n      dup1\n        /* \"contracts/OrderBook.sol\":3537:3547  msg.sender */\n      caller\n        /* \"contracts/OrderBook.sol\":3523:3585  order(payable(msg.sender),price,block.timestamp,State.pending) */\n      0xffffffffffffffffffffffffffffffffffffffff\n      and\n      dup2\n      mstore\n      0x20\n      add\n        /* \"contracts/OrderBook.sol\":3549:3554  price */\n      dup4\n        /* \"contracts/OrderBook.sol\":3523:3585  order(payable(msg.sender),price,block.timestamp,State.pending) */\n      dup2\n      mstore\n      0x20\n      add\n        /* \"contracts/OrderBook.sol\":3555:3570  block.timestamp */\n      timestamp\n        /* \"contracts/OrderBook.sol\":3523:3585  order(payable(msg.sender),price,block.timestamp,State.pending) */\n      dup2\n      mstore\n      0x20\n      add\n        /* \"contracts/OrderBook.sol\":3571:3584  State.pending */\n      0x00\n        /* \"contracts/OrderBook.sol\":3523:3585  order(payable(msg.sender),price,block.timestamp,State.pending) */\n      0x01\n      dup2\n      gt\n      iszero\n      tag_82\n      jumpi\n      tag_83\n      tag_61\n      jump\t// in\n    tag_83:\n    tag_82:\n      dup2\n      mstore\n      pop\n        /* \"contracts/OrderBook.sol\":3501:3585  order memory newBid = order(payable(msg.sender),price,block.timestamp,State.pending) */\n      swap1\n      pop\n        /* \"contracts/OrderBook.sol\":3595:3602  askBook */\n      0x01\n        /* \"contracts/OrderBook.sol\":3608:3614  newBid */\n      dup2\n        /* \"contracts/OrderBook.sol\":3595:3615  askBook.push(newBid) */\n      swap1\n      dup1\n      0x01\n      dup2\n      sload\n      add\n      dup1\n      dup3\n      sstore\n      dup1\n      swap2\n      pop\n      pop\n      0x01\n      swap1\n      sub\n      swap1\n      0x00\n      mstore\n      keccak256(0x00, 0x20)\n      swap1\n      0x04\n      mul\n      add\n      0x00\n      swap1\n      swap2\n      swap1\n      swap2\n      swap1\n      swap2\n      pop\n      0x00\n      dup3\n      add\n      mload\n      dup2\n      0x00\n      add\n      exp(0x0100, 0x00)\n      dup2\n      sload\n      dup2\n      0xffffffffffffffffffffffffffffffffffffffff\n      mul\n      not\n      and\n      swap1\n      dup4\n      0xffffffffffffffffffffffffffffffffffffffff\n      and\n      mul\n      or\n      swap1\n      sstore\n      pop\n      0x20\n      dup3\n      add\n      mload\n      dup2\n      0x01\n      add\n      sstore\n      0x40\n      dup3\n      add\n      mload\n      dup2\n      0x02\n      add\n      sstore\n      0x60\n      dup3\n      add\n      mload\n      dup2\n      0x03\n      add\n      exp(0x0100, 0x00)\n      dup2\n      sload\n      dup2\n      0xff\n      mul\n      not\n      and\n      swap1\n      dup4\n      0x01\n      dup2\n      gt\n      iszero\n      tag_85\n      jumpi\n      tag_86\n      tag_61\n      jump\t// in\n    tag_86:\n    tag_85:\n      mul\n      or\n      swap1\n      sstore\n      pop\n      pop\n      pop\n        /* \"contracts/OrderBook.sol\":3491:3622  {... */\n      pop\n        /* \"contracts/OrderBook.sol\":3450:3622  function placeAsk (uint256 price) public {... */\n      pop\n      jump\t// out\n        /* \"contracts/OrderBook.sol\":3313:3444  function cancelBid (uint256 bidId) public isPending(bidBook[bidId].state) {... */\n    tag_29:\n        /* \"contracts/OrderBook.sol\":3365:3372  bidBook */\n      0x00\n        /* \"contracts/OrderBook.sol\":3373:3378  bidId */\n      dup2\n        /* \"contracts/OrderBook.sol\":3365:3379  bidBook[bidId] */\n      dup2\n      sload\n      dup2\n      lt\n      tag_87\n      jumpi\n      tag_88\n      tag_47\n      jump\t// in\n    tag_88:\n    tag_87:\n      swap1\n      0x00\n      mstore\n      keccak256(0x00, 0x20)\n      swap1\n      0x04\n      mul\n      add\n        /* \"contracts/OrderBook.sol\":3365:3385  bidBook[bidId].state */\n      0x03\n      add\n      0x00\n      swap1\n      sload\n      swap1\n      0x0100\n      exp\n      swap1\n      div\n      0xff\n      and\n        /* \"contracts/OrderBook.sol\":1249:1262  State.pending */\n      0x00\n        /* \"contracts/OrderBook.sol\":1240:1262  state == State.pending */\n      0x01\n      dup2\n      gt\n      iszero\n      tag_91\n      jumpi\n      tag_92\n      tag_61\n      jump\t// in\n    tag_92:\n    tag_91:\n        /* \"contracts/OrderBook.sol\":1240:1245  state */\n      dup2\n        /* \"contracts/OrderBook.sol\":1240:1262  state == State.pending */\n      0x01\n      dup2\n      gt\n      iszero\n      tag_93\n      jumpi\n      tag_94\n      tag_61\n      jump\t// in\n    tag_94:\n    tag_93:\n      eq\n        /* \"contracts/OrderBook.sol\":1232:1280  require(state == State.pending, \"Order Pending\") */\n      tag_95\n      jumpi\n      mload(0x40)\n      0x08c379a000000000000000000000000000000000000000000000000000000000\n      dup2\n      mstore\n      0x04\n      add\n      tag_96\n      swap1\n      tag_66\n      jump\t// in\n    tag_96:\n      mload(0x40)\n      dup1\n      swap2\n      sub\n      swap1\n      revert\n    tag_95:\n        /* \"contracts/OrderBook.sol\":3404:3411  bidBook */\n      0x00\n        /* \"contracts/OrderBook.sol\":3412:3417  bidId */\n      dup3\n        /* \"contracts/OrderBook.sol\":3404:3418  bidBook[bidId] */\n      dup2\n      sload\n      dup2\n      lt\n      tag_98\n      jumpi\n      tag_99\n      tag_47\n      jump\t// in\n    tag_99:\n    tag_98:\n      swap1\n      0x00\n      mstore\n      keccak256(0x00, 0x20)\n      swap1\n      0x04\n      mul\n      add\n      0x00\n        /* \"contracts/OrderBook.sol\":3397:3418  delete bidBook[bidId] */\n      dup1\n      dup3\n      add\n      exp(0x0100, 0x00)\n      dup2\n      sload\n      swap1\n      0xffffffffffffffffffffffffffffffffffffffff\n      mul\n      not\n      and\n      swap1\n      sstore\n      0x01\n      dup3\n      add\n      0x00\n      swap1\n      sstore\n      0x02\n      dup3\n      add\n      0x00\n      swap1\n      sstore\n      0x03\n      dup3\n      add\n      exp(0x0100, 0x00)\n      dup2\n      sload\n      swap1\n      0xff\n      mul\n      not\n      and\n      swap1\n      sstore\n      pop\n      pop\n        /* \"contracts/OrderBook.sol\":3428:3437  sortBid() */\n      tag_101\n        /* \"contracts/OrderBook.sol\":3428:3435  sortBid */\n      tag_102\n        /* \"contracts/OrderBook.sol\":3428:3437  sortBid() */\n      jump\t// in\n    tag_101:\n        /* \"contracts/OrderBook.sol\":3313:3444  function cancelBid (uint256 bidId) public isPending(bidBook[bidId].state) {... */\n      pop\n      pop\n      jump\t// out\n        /* \"contracts/OrderBook.sol\":3112:3284  function placeBid (uint256 price) public {... */\n    tag_32:\n        /* \"contracts/OrderBook.sol\":3163:3182  order memory newBid */\n      0x00\n        /* \"contracts/OrderBook.sol\":3185:3247  order(payable(msg.sender),price,block.timestamp,State.pending) */\n      mload(0x40)\n      dup1\n      0x80\n      add\n      0x40\n      mstore\n      dup1\n        /* \"contracts/OrderBook.sol\":3199:3209  msg.sender */\n      caller\n        /* \"contracts/OrderBook.sol\":3185:3247  order(payable(msg.sender),price,block.timestamp,State.pending) */\n      0xffffffffffffffffffffffffffffffffffffffff\n      and\n      dup2\n      mstore\n      0x20\n      add\n        /* \"contracts/OrderBook.sol\":3211:3216  price */\n      dup4\n        /* \"contracts/OrderBook.sol\":3185:3247  order(payable(msg.sender),price,block.timestamp,State.pending) */\n      dup2\n      mstore\n      0x20\n      add\n        /* \"contracts/OrderBook.sol\":3217:3232  block.timestamp */\n      timestamp\n        /* \"contracts/OrderBook.sol\":3185:3247  order(payable(msg.sender),price,block.timestamp,State.pending) */\n      dup2\n      mstore\n      0x20\n      add\n        /* \"contracts/OrderBook.sol\":3233:3246  State.pending */\n      0x00\n        /* \"contracts/OrderBook.sol\":3185:3247  order(payable(msg.sender),price,block.timestamp,State.pending) */\n      0x01\n      dup2\n      gt\n      iszero\n      tag_104\n      jumpi\n      tag_105\n      tag_61\n      jump\t// in\n    tag_105:\n    tag_104:\n      dup2\n      mstore\n      pop\n        /* \"contracts/OrderBook.sol\":3163:3247  order memory newBid = order(payable(msg.sender),price,block.timestamp,State.pending) */\n      swap1\n      pop\n        /* \"contracts/OrderBook.sol\":3257:3264  bidBook */\n      0x00\n        /* \"contracts/OrderBook.sol\":3270:3276  newBid */\n      dup2\n        /* \"contracts/OrderBook.sol\":3257:3277  bidBook.push(newBid) */\n      swap1\n      dup1\n      0x01\n      dup2\n      sload\n      add\n      dup1\n      dup3\n      sstore\n      dup1\n      swap2\n      pop\n      pop\n      0x01\n      swap1\n      sub\n      swap1\n      0x00\n      mstore\n      keccak256(0x00, 0x20)\n      swap1\n      0x04\n      mul\n      add\n      0x00\n      swap1\n      swap2\n      swap1\n      swap2\n      swap1\n      swap2\n      pop\n      0x00\n      dup3\n      add\n      mload\n      dup2\n      0x00\n      add\n      exp(0x0100, 0x00)\n      dup2\n      sload\n      dup2\n      0xffffffffffffffffffffffffffffffffffffffff\n      mul\n      not\n      and\n      swap1\n      dup4\n      0xffffffffffffffffffffffffffffffffffffffff\n      and\n      mul\n      or\n      swap1\n      sstore\n      pop\n      0x20\n      dup3\n      add\n      mload\n      dup2\n      0x01\n      add\n      sstore\n      0x40\n      dup3\n      add\n      mload\n      dup2\n      0x02\n      add\n      sstore\n      0x60\n      dup3\n      add\n      mload\n      dup2\n      0x03\n      add\n      exp(0x0100, 0x00)\n      dup2\n      sload\n      dup2\n      0xff\n      mul\n      not\n      and\n      swap1\n      dup4\n      0x01\n      dup2\n      gt\n      iszero\n      tag_107\n      jumpi\n      tag_108\n      tag_61\n      jump\t// in\n    tag_108:\n    tag_107:\n      mul\n      or\n      swap1\n      sstore\n      pop\n      pop\n      pop\n        /* \"contracts/OrderBook.sol\":3153:3284  {... */\n      pop\n        /* \"contracts/OrderBook.sol\":3112:3284  function placeBid (uint256 price) public {... */\n      pop\n      jump\t// out\n        /* \"contracts/OrderBook.sol\":3868:3959  function fetchAllAsk() public view returns (order[] memory) {... */\n    tag_34:\n        /* \"contracts/OrderBook.sol\":3912:3926  order[] memory */\n      0x60\n        /* \"contracts/OrderBook.sol\":3945:3952  askBook */\n      0x01\n        /* \"contracts/OrderBook.sol\":3938:3952  return askBook */\n      dup1\n      sload\n      dup1\n      0x20\n      mul\n      0x20\n      add\n      mload(0x40)\n      swap1\n      dup2\n      add\n      0x40\n      mstore\n      dup1\n      swap3\n      swap2\n      swap1\n      dup2\n      dup2\n      mstore\n      0x20\n      add\n      0x00\n      swap1\n    tag_110:\n      dup3\n      dup3\n      lt\n      iszero\n      tag_111\n      jumpi\n      dup4\n      dup3\n      swap1\n      0x00\n      mstore\n      keccak256(0x00, 0x20)\n      swap1\n      0x04\n      mul\n      add\n      mload(0x40)\n      dup1\n      0x80\n      add\n      0x40\n      mstore\n      swap1\n      dup2\n      0x00\n      dup3\n      add\n      0x00\n      swap1\n      sload\n      swap1\n      0x0100\n      exp\n      swap1\n      div\n      0xffffffffffffffffffffffffffffffffffffffff\n      and\n      0xffffffffffffffffffffffffffffffffffffffff\n      and\n      0xffffffffffffffffffffffffffffffffffffffff\n      and\n      dup2\n      mstore\n      0x20\n      add\n      0x01\n      dup3\n      add\n      sload\n      dup2\n      mstore\n      0x20\n      add\n      0x02\n      dup3\n      add\n      sload\n      dup2\n      mstore\n      0x20\n      add\n      0x03\n      dup3\n      add\n      0x00\n      swap1\n      sload\n      swap1\n      0x0100\n      exp\n      swap1\n      div\n      0xff\n      and\n      0x01\n      dup2\n      gt\n      iszero\n      tag_113\n      jumpi\n      tag_114\n      tag_61\n      jump\t// in\n    tag_114:\n    tag_113:\n      0x01\n      dup2\n      gt\n      iszero\n      tag_115\n      jumpi\n      tag_116\n      tag_61\n      jump\t// in\n    tag_116:\n    tag_115:\n      dup2\n      mstore\n      pop\n      pop\n      dup2\n      mstore\n      0x20\n      add\n      swap1\n      0x01\n      add\n      swap1\n      jump(tag_110)\n    tag_111:\n      pop\n      pop\n      pop\n      pop\n      swap1\n      pop\n        /* \"contracts/OrderBook.sol\":3868:3959  function fetchAllAsk() public view returns (order[] memory) {... */\n      swap1\n      jump\t// out\n        /* \"contracts/OrderBook.sol\":3965:4248  function fetchYourBidIds() public returns (uint[] memory) {... */\n    tag_37:\n        /* \"contracts/OrderBook.sol\":4008:4021  uint[] memory */\n      0x60\n        /* \"contracts/OrderBook.sol\":4033:4046  deleteArray() */\n      tag_118\n        /* \"contracts/OrderBook.sol\":4033:4044  deleteArray */\n      tag_41\n        /* \"contracts/OrderBook.sol\":4033:4046  deleteArray() */\n      jump\t// in\n    tag_118:\n        /* \"contracts/OrderBook.sol\":4061:4067  uint i */\n      0x00\n        /* \"contracts/OrderBook.sol\":4056:4218  for (uint i = 0; i < bidBook.length; i++) {... */\n    tag_119:\n        /* \"contracts/OrderBook.sol\":4077:4084  bidBook */\n      0x00\n        /* \"contracts/OrderBook.sol\":4077:4091  bidBook.length */\n      dup1\n      sload\n      swap1\n      pop\n        /* \"contracts/OrderBook.sol\":4073:4074  i */\n      dup2\n        /* \"contracts/OrderBook.sol\":4073:4091  i < bidBook.length */\n      lt\n        /* \"contracts/OrderBook.sol\":4056:4218  for (uint i = 0; i < bidBook.length; i++) {... */\n      iszero\n      tag_120\n      jumpi\n        /* \"contracts/OrderBook.sol\":4147:4157  msg.sender */\n      caller\n        /* \"contracts/OrderBook.sol\":4116:4158  bidBook[i].customer == payable(msg.sender) */\n      0xffffffffffffffffffffffffffffffffffffffff\n      and\n        /* \"contracts/OrderBook.sol\":4116:4123  bidBook */\n      0x00\n        /* \"contracts/OrderBook.sol\":4124:4125  i */\n      dup3\n        /* \"contracts/OrderBook.sol\":4116:4126  bidBook[i] */\n      dup2\n      sload\n      dup2\n      lt\n      tag_122\n      jumpi\n      tag_123\n      tag_47\n      jump\t// in\n    tag_123:\n    tag_122:\n      swap1\n      0x00\n      mstore\n      keccak256(0x00, 0x20)\n      swap1\n      0x04\n      mul\n      add\n        /* \"contracts/OrderBook.sol\":4116:4135  bidBook[i].customer */\n      0x00\n      add\n      0x00\n      swap1\n      sload\n      swap1\n      0x0100\n      exp\n      swap1\n      div\n      0xffffffffffffffffffffffffffffffffffffffff\n      and\n        /* \"contracts/OrderBook.sol\":4116:4158  bidBook[i].customer == payable(msg.sender) */\n      0xffffffffffffffffffffffffffffffffffffffff\n      and\n      sub\n        /* \"contracts/OrderBook.sol\":4112:4208  if (bidBook[i].customer == payable(msg.sender)) {... */\n      tag_125\n      jumpi\n        /* \"contracts/OrderBook.sol\":4178:4185  request */\n      0x02\n        /* \"contracts/OrderBook.sol\":4191:4192  i */\n      dup2\n        /* \"contracts/OrderBook.sol\":4178:4193  request.push(i) */\n      swap1\n      dup1\n      0x01\n      dup2\n      sload\n      add\n      dup1\n      dup3\n      sstore\n      dup1\n      swap2\n      pop\n      pop\n      0x01\n      swap1\n      sub\n      swap1\n      0x00\n      mstore\n      keccak256(0x00, 0x20)\n      add\n      0x00\n      swap1\n      swap2\n      swap1\n      swap2\n      swap1\n      swap2\n      pop\n      sstore\n        /* \"contracts/OrderBook.sol\":4112:4208  if (bidBook[i].customer == payable(msg.sender)) {... */\n    tag_125:\n        /* \"contracts/OrderBook.sol\":4093:4096  i++ */\n      dup1\n      dup1\n      tag_127\n      swap1\n      tag_52\n      jump\t// in\n    tag_127:\n      swap2\n      pop\n      pop\n        /* \"contracts/OrderBook.sol\":4056:4218  for (uint i = 0; i < bidBook.length; i++) {... */\n      jump(tag_119)\n    tag_120:\n      pop\n        /* \"contracts/OrderBook.sol\":4234:4241  request */\n      0x02\n        /* \"contracts/OrderBook.sol\":4227:4241  return request */\n      dup1\n      sload\n      dup1\n      0x20\n      mul\n      0x20\n      add\n      mload(0x40)\n      swap1\n      dup2\n      add\n      0x40\n      mstore\n      dup1\n      swap3\n      swap2\n      swap1\n      dup2\n      dup2\n      mstore\n      0x20\n      add\n      dup3\n      dup1\n      sload\n      dup1\n      iszero\n      tag_128\n      jumpi\n      0x20\n      mul\n      dup3\n      add\n      swap2\n      swap1\n      0x00\n      mstore\n      keccak256(0x00, 0x20)\n      swap1\n    tag_129:\n      dup2\n      sload\n      dup2\n      mstore\n      0x20\n      add\n      swap1\n      0x01\n      add\n      swap1\n      dup1\n      dup4\n      gt\n      tag_129\n      jumpi\n    tag_128:\n      pop\n      pop\n      pop\n      pop\n      pop\n      swap1\n      pop\n        /* \"contracts/OrderBook.sol\":3965:4248  function fetchYourBidIds() public returns (uint[] memory) {... */\n      swap1\n      jump\t// out\n        /* \"contracts/OrderBook.sol\":1588:1721  function deleteArray() internal {... */\n    tag_41:\n        /* \"contracts/OrderBook.sol\":1635:1641  uint i */\n      0x00\n        /* \"contracts/OrderBook.sol\":1630:1715  for (uint i = 0; i < request.length; i ++) {... */\n    tag_131:\n        /* \"contracts/OrderBook.sol\":1651:1658  request */\n      0x02\n        /* \"contracts/OrderBook.sol\":1651:1665  request.length */\n      dup1\n      sload\n      swap1\n      pop\n        /* \"contracts/OrderBook.sol\":1647:1648  i */\n      dup2\n        /* \"contracts/OrderBook.sol\":1647:1665  i < request.length */\n      lt\n        /* \"contracts/OrderBook.sol\":1630:1715  for (uint i = 0; i < request.length; i ++) {... */\n      iszero\n      tag_132\n      jumpi\n        /* \"contracts/OrderBook.sol\":1694:1701  request */\n      0x02\n        /* \"contracts/OrderBook.sol\":1702:1703  i */\n      dup2\n        /* \"contracts/OrderBook.sol\":1694:1704  request[i] */\n      dup2\n      sload\n      dup2\n      lt\n      tag_134\n      jumpi\n      tag_135\n      tag_47\n      jump\t// in\n    tag_135:\n    tag_134:\n      swap1\n      0x00\n      mstore\n      keccak256(0x00, 0x20)\n      add\n        /* \"contracts/OrderBook.sol\":1687:1704  delete request[i] */\n      0x00\n      swap1\n      sstore\n        /* \"contracts/OrderBook.sol\":1667:1671  i ++ */\n      dup1\n      dup1\n      tag_137\n      swap1\n      tag_52\n      jump\t// in\n    tag_137:\n      swap2\n      pop\n      pop\n        /* \"contracts/OrderBook.sol\":1630:1715  for (uint i = 0; i < request.length; i ++) {... */\n      jump(tag_131)\n    tag_132:\n      pop\n        /* \"contracts/OrderBook.sol\":1588:1721  function deleteArray() internal {... */\n      jump\t// out\n        /* \"contracts/OrderBook.sol\":1463:1582  function sortAsk() internal {... */\n    tag_72:\n        /* \"contracts/OrderBook.sol\":1500:1560  ascendingQuickSort(bidBook, int(0), int(bidBook.length - 1)) */\n      tag_139\n        /* \"contracts/OrderBook.sol\":1519:1526  bidBook */\n      0x00\n        /* \"contracts/OrderBook.sol\":1500:1560  ascendingQuickSort(bidBook, int(0), int(bidBook.length - 1)) */\n      dup1\n      sload\n      dup1\n      0x20\n      mul\n      0x20\n      add\n      mload(0x40)\n      swap1\n      dup2\n      add\n      0x40\n      mstore\n      dup1\n      swap3\n      swap2\n      swap1\n      dup2\n      dup2\n      mstore\n      0x20\n      add\n      0x00\n      swap1\n    tag_140:\n      dup3\n      dup3\n      lt\n      iszero\n      tag_141\n      jumpi\n      dup4\n      dup3\n      swap1\n      0x00\n      mstore\n      keccak256(0x00, 0x20)\n      swap1\n      0x04\n      mul\n      add\n      mload(0x40)\n      dup1\n      0x80\n      add\n      0x40\n      mstore\n      swap1\n      dup2\n      0x00\n      dup3\n      add\n      0x00\n      swap1\n      sload\n      swap1\n      0x0100\n      exp\n      swap1\n      div\n      0xffffffffffffffffffffffffffffffffffffffff\n      and\n      0xffffffffffffffffffffffffffffffffffffffff\n      and\n      0xffffffffffffffffffffffffffffffffffffffff\n      and\n      dup2\n      mstore\n      0x20\n      add\n      0x01\n      dup3\n      add\n      sload\n      dup2\n      mstore\n      0x20\n      add\n      0x02\n      dup3\n      add\n      sload\n      dup2\n      mstore\n      0x20\n      add\n      0x03\n      dup3\n      add\n      0x00\n      swap1\n      sload\n      swap1\n      0x0100\n      exp\n      swap1\n      div\n      0xff\n      and\n      0x01\n      dup2\n      gt\n      iszero\n      tag_143\n      jumpi\n      tag_144\n      tag_61\n      jump\t// in\n    tag_144:\n    tag_143:\n      0x01\n      dup2\n      gt\n      iszero\n      tag_145\n      jumpi\n      tag_146\n      tag_61\n      jump\t// in\n    tag_146:\n    tag_145:\n      dup2\n      mstore\n      pop\n      pop\n      dup2\n      mstore\n      0x20\n      add\n      swap1\n      0x01\n      add\n      swap1\n      jump(tag_140)\n    tag_141:\n      pop\n      pop\n      pop\n      pop\n        /* \"contracts/OrderBook.sol\":1532:1533  0 */\n      0x00\n        /* \"contracts/OrderBook.sol\":1557:1558  1 */\n      0x01\n        /* \"contracts/OrderBook.sol\":1540:1547  bidBook */\n      0x00\n        /* \"contracts/OrderBook.sol\":1540:1554  bidBook.length */\n      dup1\n      sload\n      swap1\n      pop\n        /* \"contracts/OrderBook.sol\":1540:1558  bidBook.length - 1 */\n      tag_147\n      swap2\n      swap1\n      tag_148\n      jump\t// in\n    tag_147:\n        /* \"contracts/OrderBook.sol\":1500:1518  ascendingQuickSort */\n      tag_149\n        /* \"contracts/OrderBook.sol\":1500:1560  ascendingQuickSort(bidBook, int(0), int(bidBook.length - 1)) */\n      jump\t// in\n    tag_139:\n        /* \"contracts/OrderBook.sol\":1463:1582  function sortAsk() internal {... */\n      jump\t// out\n        /* \"contracts/OrderBook.sol\":1337:1457  function sortBid() internal {... */\n    tag_102:\n        /* \"contracts/OrderBook.sol\":1374:1435  descendingQuickSort(bidBook, int(0), int(bidBook.length - 1)) */\n      tag_151\n        /* \"contracts/OrderBook.sol\":1394:1401  bidBook */\n      0x00\n        /* \"contracts/OrderBook.sol\":1374:1435  descendingQuickSort(bidBook, int(0), int(bidBook.length - 1)) */\n      dup1\n      sload\n      dup1\n      0x20\n      mul\n      0x20\n      add\n      mload(0x40)\n      swap1\n      dup2\n      add\n      0x40\n      mstore\n      dup1\n      swap3\n      swap2\n      swap1\n      dup2\n      dup2\n      mstore\n      0x20\n      add\n      0x00\n      swap1\n    tag_152:\n      dup3\n      dup3\n      lt\n      iszero\n      tag_153\n      jumpi\n      dup4\n      dup3\n      swap1\n      0x00\n      mstore\n      keccak256(0x00, 0x20)\n      swap1\n      0x04\n      mul\n      add\n      mload(0x40)\n      dup1\n      0x80\n      add\n      0x40\n      mstore\n      swap1\n      dup2\n      0x00\n      dup3\n      add\n      0x00\n      swap1\n      sload\n      swap1\n      0x0100\n      exp\n      swap1\n      div\n      0xffffffffffffffffffffffffffffffffffffffff\n      and\n      0xffffffffffffffffffffffffffffffffffffffff\n      and\n      0xffffffffffffffffffffffffffffffffffffffff\n      and\n      dup2\n      mstore\n      0x20\n      add\n      0x01\n      dup3\n      add\n      sload\n      dup2\n      mstore\n      0x20\n      add\n      0x02\n      dup3\n      add\n      sload\n      dup2\n      mstore\n      0x20\n      add\n      0x03\n      dup3\n      add\n      0x00\n      swap1\n      sload\n      swap1\n      0x0100\n      exp\n      swap1\n      div\n      0xff\n      and\n      0x01\n      dup2\n      gt\n      iszero\n      tag_155\n      jumpi\n      tag_156\n      tag_61\n      jump\t// in\n    tag_156:\n    tag_155:\n      0x01\n      dup2\n      gt\n      iszero\n      tag_157\n      jumpi\n      tag_158\n      tag_61\n      jump\t// in\n    tag_158:\n    tag_157:\n      dup2\n      mstore\n      pop\n      pop\n      dup2\n      mstore\n      0x20\n      add\n      swap1\n      0x01\n      add\n      swap1\n      jump(tag_152)\n    tag_153:\n      pop\n      pop\n      pop\n      pop\n        /* \"contracts/OrderBook.sol\":1407:1408  0 */\n      0x00\n        /* \"contracts/OrderBook.sol\":1432:1433  1 */\n      0x01\n        /* \"contracts/OrderBook.sol\":1415:1422  bidBook */\n      0x00\n        /* \"contracts/OrderBook.sol\":1415:1429  bidBook.length */\n      dup1\n      sload\n      swap1\n      pop\n        /* \"contracts/OrderBook.sol\":1415:1433  bidBook.length - 1 */\n      tag_159\n      swap2\n      swap1\n      tag_148\n      jump\t// in\n    tag_159:\n        /* \"contracts/OrderBook.sol\":1374:1393  descendingQuickSort */\n      tag_160\n        /* \"contracts/OrderBook.sol\":1374:1435  descendingQuickSort(bidBook, int(0), int(bidBook.length - 1)) */\n      jump\t// in\n    tag_151:\n        /* \"contracts/OrderBook.sol\":1337:1457  function sortBid() internal {... */\n      jump\t// out\n        /* \"contracts/OrderBook.sol\":2406:3076  function ascendingQuickSort(order[] memory arr, int left, int right) internal{... */\n    tag_149:\n        /* \"contracts/OrderBook.sol\":2493:2498  int i */\n      0x00\n        /* \"contracts/OrderBook.sol\":2501:2505  left */\n      dup3\n        /* \"contracts/OrderBook.sol\":2493:2505  int i = left */\n      swap1\n      pop\n        /* \"contracts/OrderBook.sol\":2515:2520  int j */\n      0x00\n        /* \"contracts/OrderBook.sol\":2523:2528  right */\n      dup3\n        /* \"contracts/OrderBook.sol\":2515:2528  int j = right */\n      swap1\n      pop\n        /* \"contracts/OrderBook.sol\":2544:2545  j */\n      dup1\n        /* \"contracts/OrderBook.sol\":2541:2542  i */\n      dup3\n        /* \"contracts/OrderBook.sol\":2541:2545  i==j */\n      sub\n        /* \"contracts/OrderBook.sol\":2538:2554  if(i==j) return; */\n      tag_162\n      jumpi\n        /* \"contracts/OrderBook.sol\":2547:2554  return; */\n      pop\n      pop\n      jump(tag_161)\n        /* \"contracts/OrderBook.sol\":2538:2554  if(i==j) return; */\n    tag_162:\n        /* \"contracts/OrderBook.sol\":2563:2576  uint256 pivot */\n      0x00\n        /* \"contracts/OrderBook.sol\":2579:2582  arr */\n      dup6\n        /* \"contracts/OrderBook.sol\":2612:2613  2 */\n      0x02\n        /* \"contracts/OrderBook.sol\":2604:2608  left */\n      dup7\n        /* \"contracts/OrderBook.sol\":2596:2601  right */\n      dup7\n        /* \"contracts/OrderBook.sol\":2596:2608  right - left */\n      tag_163\n      swap2\n      swap1\n      tag_164\n      jump\t// in\n    tag_163:\n        /* \"contracts/OrderBook.sol\":2595:2613  (right - left) / 2 */\n      tag_165\n      swap2\n      swap1\n      tag_166\n      jump\t// in\n    tag_165:\n        /* \"contracts/OrderBook.sol\":2588:2592  left */\n      dup7\n        /* \"contracts/OrderBook.sol\":2588:2613  left + (right - left) / 2 */\n      tag_167\n      swap2\n      swap1\n      tag_168\n      jump\t// in\n    tag_167:\n        /* \"contracts/OrderBook.sol\":2579:2615  arr[uint(left + (right - left) / 2)] */\n      dup2\n      mload\n      dup2\n      lt\n      tag_169\n      jumpi\n      tag_170\n      tag_47\n      jump\t// in\n    tag_170:\n    tag_169:\n      0x20\n      mul\n      0x20\n      add\n      add\n      mload\n        /* \"contracts/OrderBook.sol\":2579:2625  arr[uint(left + (right - left) / 2)].timestamp */\n      0x40\n      add\n      mload\n        /* \"contracts/OrderBook.sol\":2563:2625  uint256 pivot = arr[uint(left + (right - left) / 2)].timestamp */\n      swap1\n      pop\n        /* \"contracts/OrderBook.sol\":2635:2932  while (i <= j) {... */\n    tag_171:\n        /* \"contracts/OrderBook.sol\":2647:2648  j */\n      dup2\n        /* \"contracts/OrderBook.sol\":2642:2643  i */\n      dup4\n        /* \"contracts/OrderBook.sol\":2642:2648  i <= j */\n      sgt\n        /* \"contracts/OrderBook.sol\":2635:2932  while (i <= j) {... */\n      tag_172\n      jumpi\n        /* \"contracts/OrderBook.sol\":2664:2706  while (arr[uint(i)].timestamp > pivot) i++ */\n    tag_173:\n        /* \"contracts/OrderBook.sol\":2696:2701  pivot */\n      dup1\n        /* \"contracts/OrderBook.sol\":2671:2674  arr */\n      dup7\n        /* \"contracts/OrderBook.sol\":2680:2681  i */\n      dup5\n        /* \"contracts/OrderBook.sol\":2671:2683  arr[uint(i)] */\n      dup2\n      mload\n      dup2\n      lt\n      tag_175\n      jumpi\n      tag_176\n      tag_47\n      jump\t// in\n    tag_176:\n    tag_175:\n      0x20\n      mul\n      0x20\n      add\n      add\n      mload\n        /* \"contracts/OrderBook.sol\":2671:2693  arr[uint(i)].timestamp */\n      0x40\n      add\n      mload\n        /* \"contracts/OrderBook.sol\":2671:2701  arr[uint(i)].timestamp > pivot */\n      gt\n        /* \"contracts/OrderBook.sol\":2664:2706  while (arr[uint(i)].timestamp > pivot) i++ */\n      iszero\n      tag_174\n      jumpi\n        /* \"contracts/OrderBook.sol\":2703:2706  i++ */\n      dup3\n      dup1\n      tag_177\n      swap1\n      tag_178\n      jump\t// in\n    tag_177:\n      swap4\n      pop\n      pop\n        /* \"contracts/OrderBook.sol\":2664:2706  while (arr[uint(i)].timestamp > pivot) i++ */\n      jump(tag_173)\n    tag_174:\n        /* \"contracts/OrderBook.sol\":2720:2762  while (pivot > arr[uint(j)].timestamp) j-- */\n    tag_179:\n        /* \"contracts/OrderBook.sol\":2735:2738  arr */\n      dup6\n        /* \"contracts/OrderBook.sol\":2744:2745  j */\n      dup3\n        /* \"contracts/OrderBook.sol\":2735:2747  arr[uint(j)] */\n      dup2\n      mload\n      dup2\n      lt\n      tag_181\n      jumpi\n      tag_182\n      tag_47\n      jump\t// in\n    tag_182:\n    tag_181:\n      0x20\n      mul\n      0x20\n      add\n      add\n      mload\n        /* \"contracts/OrderBook.sol\":2735:2757  arr[uint(j)].timestamp */\n      0x40\n      add\n      mload\n        /* \"contracts/OrderBook.sol\":2727:2732  pivot */\n      dup2\n        /* \"contracts/OrderBook.sol\":2727:2757  pivot > arr[uint(j)].timestamp */\n      gt\n        /* \"contracts/OrderBook.sol\":2720:2762  while (pivot > arr[uint(j)].timestamp) j-- */\n      iszero\n      tag_180\n      jumpi\n        /* \"contracts/OrderBook.sol\":2759:2762  j-- */\n      dup2\n      dup1\n      tag_183\n      swap1\n      tag_184\n      jump\t// in\n    tag_183:\n      swap3\n      pop\n      pop\n        /* \"contracts/OrderBook.sol\":2720:2762  while (pivot > arr[uint(j)].timestamp) j-- */\n      jump(tag_179)\n    tag_180:\n        /* \"contracts/OrderBook.sol\":2785:2786  j */\n      dup2\n        /* \"contracts/OrderBook.sol\":2780:2781  i */\n      dup4\n        /* \"contracts/OrderBook.sol\":2780:2786  i <= j */\n      sgt\n        /* \"contracts/OrderBook.sol\":2776:2922  if (i <= j) {... */\n      tag_185\n      jumpi\n        /* \"contracts/OrderBook.sol\":2838:2841  arr */\n      dup6\n        /* \"contracts/OrderBook.sol\":2847:2848  j */\n      dup3\n        /* \"contracts/OrderBook.sol\":2838:2850  arr[uint(j)] */\n      dup2\n      mload\n      dup2\n      lt\n      tag_186\n      jumpi\n      tag_187\n      tag_47\n      jump\t// in\n    tag_187:\n    tag_186:\n      0x20\n      mul\n      0x20\n      add\n      add\n      mload\n        /* \"contracts/OrderBook.sol\":2852:2855  arr */\n      dup7\n        /* \"contracts/OrderBook.sol\":2861:2862  i */\n      dup5\n        /* \"contracts/OrderBook.sol\":2852:2864  arr[uint(i)] */\n      dup2\n      mload\n      dup2\n      lt\n      tag_188\n      jumpi\n      tag_189\n      tag_47\n      jump\t// in\n    tag_189:\n    tag_188:\n      0x20\n      mul\n      0x20\n      add\n      add\n      mload\n        /* \"contracts/OrderBook.sol\":2807:2810  arr */\n      dup8\n        /* \"contracts/OrderBook.sol\":2816:2817  i */\n      dup6\n        /* \"contracts/OrderBook.sol\":2807:2819  arr[uint(i)] */\n      dup2\n      mload\n      dup2\n      lt\n      tag_190\n      jumpi\n      tag_191\n      tag_47\n      jump\t// in\n    tag_191:\n    tag_190:\n      0x20\n      mul\n      0x20\n      add\n      add\n        /* \"contracts/OrderBook.sol\":2821:2824  arr */\n      dup9\n        /* \"contracts/OrderBook.sol\":2830:2831  j */\n      dup6\n        /* \"contracts/OrderBook.sol\":2821:2833  arr[uint(j)] */\n      dup2\n      mload\n      dup2\n      lt\n      tag_192\n      jumpi\n      tag_193\n      tag_47\n      jump\t// in\n    tag_193:\n    tag_192:\n      0x20\n      mul\n      0x20\n      add\n      add\n        /* \"contracts/OrderBook.sol\":2806:2865  (arr[uint(i)], arr[uint(j)]) = (arr[uint(j)], arr[uint(i)]) */\n      dup3\n      swap1\n      mstore\n      dup3\n      swap1\n      mstore\n      pop\n      pop\n        /* \"contracts/OrderBook.sol\":2883:2886  i++ */\n      dup3\n      dup1\n      tag_194\n      swap1\n      tag_178\n      jump\t// in\n    tag_194:\n      swap4\n      pop\n      pop\n        /* \"contracts/OrderBook.sol\":2904:2907  j-- */\n      dup2\n      dup1\n      tag_195\n      swap1\n      tag_184\n      jump\t// in\n    tag_195:\n      swap3\n      pop\n      pop\n        /* \"contracts/OrderBook.sol\":2776:2922  if (i <= j) {... */\n    tag_185:\n        /* \"contracts/OrderBook.sol\":2635:2932  while (i <= j) {... */\n      jump(tag_171)\n    tag_172:\n        /* \"contracts/OrderBook.sol\":2952:2953  j */\n      dup2\n        /* \"contracts/OrderBook.sol\":2945:2949  left */\n      dup6\n        /* \"contracts/OrderBook.sol\":2945:2953  left < j */\n      slt\n        /* \"contracts/OrderBook.sol\":2941:2999  if (left < j)... */\n      iszero\n      tag_196\n      jumpi\n        /* \"contracts/OrderBook.sol\":2967:2999  ascendingQuickSort(arr, left, j) */\n      tag_197\n        /* \"contracts/OrderBook.sol\":2986:2989  arr */\n      dup7\n        /* \"contracts/OrderBook.sol\":2991:2995  left */\n      dup7\n        /* \"contracts/OrderBook.sol\":2997:2998  j */\n      dup5\n        /* \"contracts/OrderBook.sol\":2967:2985  ascendingQuickSort */\n      tag_149\n        /* \"contracts/OrderBook.sol\":2967:2999  ascendingQuickSort(arr, left, j) */\n      jump\t// in\n    tag_197:\n        /* \"contracts/OrderBook.sol\":2941:2999  if (left < j)... */\n    tag_196:\n        /* \"contracts/OrderBook.sol\":3017:3022  right */\n      dup4\n        /* \"contracts/OrderBook.sol\":3013:3014  i */\n      dup4\n        /* \"contracts/OrderBook.sol\":3013:3022  i < right */\n      slt\n        /* \"contracts/OrderBook.sol\":3009:3069  if (i < right)... */\n      iszero\n      tag_198\n      jumpi\n        /* \"contracts/OrderBook.sol\":3036:3069  ascendingQuickSort(arr, i, right) */\n      tag_199\n        /* \"contracts/OrderBook.sol\":3055:3058  arr */\n      dup7\n        /* \"contracts/OrderBook.sol\":3060:3061  i */\n      dup5\n        /* \"contracts/OrderBook.sol\":3063:3068  right */\n      dup7\n        /* \"contracts/OrderBook.sol\":3036:3054  ascendingQuickSort */\n      tag_149\n        /* \"contracts/OrderBook.sol\":3036:3069  ascendingQuickSort(arr, i, right) */\n      jump\t// in\n    tag_199:\n        /* \"contracts/OrderBook.sol\":3009:3069  if (i < right)... */\n    tag_198:\n        /* \"contracts/OrderBook.sol\":2483:3076  {... */\n      pop\n      pop\n      pop\n        /* \"contracts/OrderBook.sol\":2406:3076  function ascendingQuickSort(order[] memory arr, int left, int right) internal{... */\n    tag_161:\n      pop\n      pop\n      pop\n      jump\t// out\n        /* \"contracts/OrderBook.sol\":1727:2400  function descendingQuickSort(order[] memory arr, int left, int right) internal{... */\n    tag_160:\n        /* \"contracts/OrderBook.sol\":1815:1820  int i */\n      0x00\n        /* \"contracts/OrderBook.sol\":1823:1827  left */\n      dup3\n        /* \"contracts/OrderBook.sol\":1815:1827  int i = left */\n      swap1\n      pop\n        /* \"contracts/OrderBook.sol\":1837:1842  int j */\n      0x00\n        /* \"contracts/OrderBook.sol\":1845:1850  right */\n      dup3\n        /* \"contracts/OrderBook.sol\":1837:1850  int j = right */\n      swap1\n      pop\n        /* \"contracts/OrderBook.sol\":1866:1867  j */\n      dup1\n        /* \"contracts/OrderBook.sol\":1863:1864  i */\n      dup3\n        /* \"contracts/OrderBook.sol\":1863:1867  i==j */\n      sub\n        /* \"contracts/OrderBook.sol\":1860:1876  if(i==j) return; */\n      tag_201\n      jumpi\n        /* \"contracts/OrderBook.sol\":1869:1876  return; */\n      pop\n      pop\n      jump(tag_200)\n        /* \"contracts/OrderBook.sol\":1860:1876  if(i==j) return; */\n    tag_201:\n        /* \"contracts/OrderBook.sol\":1885:1898  uint256 pivot */\n      0x00\n        /* \"contracts/OrderBook.sol\":1901:1904  arr */\n      dup6\n        /* \"contracts/OrderBook.sol\":1934:1935  2 */\n      0x02\n        /* \"contracts/OrderBook.sol\":1926:1930  left */\n      dup7\n        /* \"contracts/OrderBook.sol\":1918:1923  right */\n      dup7\n        /* \"contracts/OrderBook.sol\":1918:1930  right - left */\n      tag_202\n      swap2\n      swap1\n      tag_164\n      jump\t// in\n    tag_202:\n        /* \"contracts/OrderBook.sol\":1917:1935  (right - left) / 2 */\n      tag_203\n      swap2\n      swap1\n      tag_166\n      jump\t// in\n    tag_203:\n        /* \"contracts/OrderBook.sol\":1910:1914  left */\n      dup7\n        /* \"contracts/OrderBook.sol\":1910:1935  left + (right - left) / 2 */\n      tag_204\n      swap2\n      swap1\n      tag_168\n      jump\t// in\n    tag_204:\n        /* \"contracts/OrderBook.sol\":1901:1937  arr[uint(left + (right - left) / 2)] */\n      dup2\n      mload\n      dup2\n      lt\n      tag_205\n      jumpi\n      tag_206\n      tag_47\n      jump\t// in\n    tag_206:\n    tag_205:\n      0x20\n      mul\n      0x20\n      add\n      add\n      mload\n        /* \"contracts/OrderBook.sol\":1901:1947  arr[uint(left + (right - left) / 2)].timestamp */\n      0x40\n      add\n      mload\n        /* \"contracts/OrderBook.sol\":1885:1947  uint256 pivot = arr[uint(left + (right - left) / 2)].timestamp */\n      swap1\n      pop\n        /* \"contracts/OrderBook.sol\":1957:2254  while (i <= j) {... */\n    tag_207:\n        /* \"contracts/OrderBook.sol\":1969:1970  j */\n      dup2\n        /* \"contracts/OrderBook.sol\":1964:1965  i */\n      dup4\n        /* \"contracts/OrderBook.sol\":1964:1970  i <= j */\n      sgt\n        /* \"contracts/OrderBook.sol\":1957:2254  while (i <= j) {... */\n      tag_208\n      jumpi\n        /* \"contracts/OrderBook.sol\":1986:2028  while (arr[uint(i)].timestamp < pivot) i++ */\n    tag_209:\n        /* \"contracts/OrderBook.sol\":2018:2023  pivot */\n      dup1\n        /* \"contracts/OrderBook.sol\":1993:1996  arr */\n      dup7\n        /* \"contracts/OrderBook.sol\":2002:2003  i */\n      dup5\n        /* \"contracts/OrderBook.sol\":1993:2005  arr[uint(i)] */\n      dup2\n      mload\n      dup2\n      lt\n      tag_211\n      jumpi\n      tag_212\n      tag_47\n      jump\t// in\n    tag_212:\n    tag_211:\n      0x20\n      mul\n      0x20\n      add\n      add\n      mload\n        /* \"contracts/OrderBook.sol\":1993:2015  arr[uint(i)].timestamp */\n      0x40\n      add\n      mload\n        /* \"contracts/OrderBook.sol\":1993:2023  arr[uint(i)].timestamp < pivot */\n      lt\n        /* \"contracts/OrderBook.sol\":1986:2028  while (arr[uint(i)].timestamp < pivot) i++ */\n      iszero\n      tag_210\n      jumpi\n        /* \"contracts/OrderBook.sol\":2025:2028  i++ */\n      dup3\n      dup1\n      tag_213\n      swap1\n      tag_178\n      jump\t// in\n    tag_213:\n      swap4\n      pop\n      pop\n        /* \"contracts/OrderBook.sol\":1986:2028  while (arr[uint(i)].timestamp < pivot) i++ */\n      jump(tag_209)\n    tag_210:\n        /* \"contracts/OrderBook.sol\":2042:2084  while (pivot < arr[uint(j)].timestamp) j-- */\n    tag_214:\n        /* \"contracts/OrderBook.sol\":2057:2060  arr */\n      dup6\n        /* \"contracts/OrderBook.sol\":2066:2067  j */\n      dup3\n        /* \"contracts/OrderBook.sol\":2057:2069  arr[uint(j)] */\n      dup2\n      mload\n      dup2\n      lt\n      tag_216\n      jumpi\n      tag_217\n      tag_47\n      jump\t// in\n    tag_217:\n    tag_216:\n      0x20\n      mul\n      0x20\n      add\n      add\n      mload\n        /* \"contracts/OrderBook.sol\":2057:2079  arr[uint(j)].timestamp */\n      0x40\n      add\n      mload\n        /* \"contracts/OrderBook.sol\":2049:2054  pivot */\n      dup2\n        /* \"contracts/OrderBook.sol\":2049:2079  pivot < arr[uint(j)].timestamp */\n      lt\n        /* \"contracts/OrderBook.sol\":2042:2084  while (pivot < arr[uint(j)].timestamp) j-- */\n      iszero\n      tag_215\n      jumpi\n        /* \"contracts/OrderBook.sol\":2081:2084  j-- */\n      dup2\n      dup1\n      tag_218\n      swap1\n      tag_184\n      jump\t// in\n    tag_218:\n      swap3\n      pop\n      pop\n        /* \"contracts/OrderBook.sol\":2042:2084  while (pivot < arr[uint(j)].timestamp) j-- */\n      jump(tag_214)\n    tag_215:\n        /* \"contracts/OrderBook.sol\":2107:2108  j */\n      dup2\n        /* \"contracts/OrderBook.sol\":2102:2103  i */\n      dup4\n        /* \"contracts/OrderBook.sol\":2102:2108  i <= j */\n      sgt\n        /* \"contracts/OrderBook.sol\":2098:2244  if (i <= j) {... */\n      tag_219\n      jumpi\n        /* \"contracts/OrderBook.sol\":2160:2163  arr */\n      dup6\n        /* \"contracts/OrderBook.sol\":2169:2170  j */\n      dup3\n        /* \"contracts/OrderBook.sol\":2160:2172  arr[uint(j)] */\n      dup2\n      mload\n      dup2\n      lt\n      tag_220\n      jumpi\n      tag_221\n      tag_47\n      jump\t// in\n    tag_221:\n    tag_220:\n      0x20\n      mul\n      0x20\n      add\n      add\n      mload\n        /* \"contracts/OrderBook.sol\":2174:2177  arr */\n      dup7\n        /* \"contracts/OrderBook.sol\":2183:2184  i */\n      dup5\n        /* \"contracts/OrderBook.sol\":2174:2186  arr[uint(i)] */\n      dup2\n      mload\n      dup2\n      lt\n      tag_222\n      jumpi\n      tag_223\n      tag_47\n      jump\t// in\n    tag_223:\n    tag_222:\n      0x20\n      mul\n      0x20\n      add\n      add\n      mload\n        /* \"contracts/OrderBook.sol\":2129:2132  arr */\n      dup8\n        /* \"contracts/OrderBook.sol\":2138:2139  i */\n      dup6\n        /* \"contracts/OrderBook.sol\":2129:2141  arr[uint(i)] */\n      dup2\n      mload\n      dup2\n      lt\n      tag_224\n      jumpi\n      tag_225\n      tag_47\n      jump\t// in\n    tag_225:\n    tag_224:\n      0x20\n      mul\n      0x20\n      add\n      add\n        /* \"contracts/OrderBook.sol\":2143:2146  arr */\n      dup9\n        /* \"contracts/OrderBook.sol\":2152:2153  j */\n      dup6\n        /* \"contracts/OrderBook.sol\":2143:2155  arr[uint(j)] */\n      dup2\n      mload\n      dup2\n      lt\n      tag_226\n      jumpi\n      tag_227\n      tag_47\n      jump\t// in\n    tag_227:\n    tag_226:\n      0x20\n      mul\n      0x20\n      add\n      add\n        /* \"contracts/OrderBook.sol\":2128:2187  (arr[uint(i)], arr[uint(j)]) = (arr[uint(j)], arr[uint(i)]) */\n      dup3\n      swap1\n      mstore\n      dup3\n      swap1\n      mstore\n      pop\n      pop\n        /* \"contracts/OrderBook.sol\":2205:2208  i++ */\n      dup3\n      dup1\n      tag_228\n      swap1\n      tag_178\n      jump\t// in\n    tag_228:\n      swap4\n      pop\n      pop\n        /* \"contracts/OrderBook.sol\":2226:2229  j-- */\n      dup2\n      dup1\n      tag_229\n      swap1\n      tag_184\n      jump\t// in\n    tag_229:\n      swap3\n      pop\n      pop\n        /* \"contracts/OrderBook.sol\":2098:2244  if (i <= j) {... */\n    tag_219:\n        /* \"contracts/OrderBook.sol\":1957:2254  while (i <= j) {... */\n      jump(tag_207)\n    tag_208:\n        /* \"contracts/OrderBook.sol\":2274:2275  j */\n      dup2\n        /* \"contracts/OrderBook.sol\":2267:2271  left */\n      dup6\n        /* \"contracts/OrderBook.sol\":2267:2275  left < j */\n      slt\n        /* \"contracts/OrderBook.sol\":2263:2322  if (left < j)... */\n      iszero\n      tag_230\n      jumpi\n        /* \"contracts/OrderBook.sol\":2289:2322  descendingQuickSort(arr, left, j) */\n      tag_231\n        /* \"contracts/OrderBook.sol\":2309:2312  arr */\n      dup7\n        /* \"contracts/OrderBook.sol\":2314:2318  left */\n      dup7\n        /* \"contracts/OrderBook.sol\":2320:2321  j */\n      dup5\n        /* \"contracts/OrderBook.sol\":2289:2308  descendingQuickSort */\n      tag_160\n        /* \"contracts/OrderBook.sol\":2289:2322  descendingQuickSort(arr, left, j) */\n      jump\t// in\n    tag_231:\n        /* \"contracts/OrderBook.sol\":2263:2322  if (left < j)... */\n    tag_230:\n        /* \"contracts/OrderBook.sol\":2340:2345  right */\n      dup4\n        /* \"contracts/OrderBook.sol\":2336:2337  i */\n      dup4\n        /* \"contracts/OrderBook.sol\":2336:2345  i < right */\n      slt\n        /* \"contracts/OrderBook.sol\":2332:2393  if (i < right)... */\n      iszero\n      tag_232\n      jumpi\n        /* \"contracts/OrderBook.sol\":2359:2393  descendingQuickSort(arr, i, right) */\n      tag_233\n        /* \"contracts/OrderBook.sol\":2379:2382  arr */\n      dup7\n        /* \"contracts/OrderBook.sol\":2384:2385  i */\n      dup5\n        /* \"contracts/OrderBook.sol\":2387:2392  right */\n      dup7\n        /* \"contracts/OrderBook.sol\":2359:2378  descendingQuickSort */\n      tag_160\n        /* \"contracts/OrderBook.sol\":2359:2393  descendingQuickSort(arr, i, right) */\n      jump\t// in\n    tag_233:\n        /* \"contracts/OrderBook.sol\":2332:2393  if (i < right)... */\n    tag_232:\n        /* \"contracts/OrderBook.sol\":1805:2400  {... */\n      pop\n      pop\n      pop\n        /* \"contracts/OrderBook.sol\":1727:2400  function descendingQuickSort(order[] memory arr, int left, int right) internal{... */\n    tag_200:\n      pop\n      pop\n      pop\n      jump\t// out\n        /* \"#utility.yul\":7:121   */\n    tag_234:\n        /* \"#utility.yul\":74:80   */\n      0x00\n        /* \"#utility.yul\":108:113   */\n      dup2\n        /* \"#utility.yul\":102:114   */\n      mload\n        /* \"#utility.yul\":92:114   */\n      swap1\n      pop\n        /* \"#utility.yul\":7:121   */\n      swap2\n      swap1\n      pop\n      jump\t// out\n        /* \"#utility.yul\":127:311   */\n    tag_235:\n        /* \"#utility.yul\":226:237   */\n      0x00\n        /* \"#utility.yul\":260:266   */\n      dup3\n        /* \"#utility.yul\":255:258   */\n      dup3\n        /* \"#utility.yul\":248:267   */\n      mstore\n        /* \"#utility.yul\":300:304   */\n      0x20\n        /* \"#utility.yul\":295:298   */\n      dup3\n        /* \"#utility.yul\":291:305   */\n      add\n        /* \"#utility.yul\":276:305   */\n      swap1\n      pop\n        /* \"#utility.yul\":127:311   */\n      swap3\n      swap2\n      pop\n      pop\n      jump\t// out\n        /* \"#utility.yul\":317:449   */\n    tag_236:\n        /* \"#utility.yul\":384:388   */\n      0x00\n        /* \"#utility.yul\":407:410   */\n      dup2\n        /* \"#utility.yul\":399:410   */\n      swap1\n      pop\n        /* \"#utility.yul\":437:441   */\n      0x20\n        /* \"#utility.yul\":432:435   */\n      dup3\n        /* \"#utility.yul\":428:442   */\n      add\n        /* \"#utility.yul\":420:442   */\n      swap1\n      pop\n        /* \"#utility.yul\":317:449   */\n      swap2\n      swap1\n      pop\n      jump\t// out\n        /* \"#utility.yul\":455:532   */\n    tag_237:\n        /* \"#utility.yul\":492:499   */\n      0x00\n        /* \"#utility.yul\":521:526   */\n      dup2\n        /* \"#utility.yul\":510:526   */\n      swap1\n      pop\n        /* \"#utility.yul\":455:532   */\n      swap2\n      swap1\n      pop\n      jump\t// out\n        /* \"#utility.yul\":538:646   */\n    tag_238:\n        /* \"#utility.yul\":615:639   */\n      tag_273\n        /* \"#utility.yul\":633:638   */\n      dup2\n        /* \"#utility.yul\":615:639   */\n      tag_237\n      jump\t// in\n    tag_273:\n        /* \"#utility.yul\":610:613   */\n      dup3\n        /* \"#utility.yul\":603:640   */\n      mstore\n        /* \"#utility.yul\":538:646   */\n      pop\n      pop\n      jump\t// out\n        /* \"#utility.yul\":652:831   */\n    tag_239:\n        /* \"#utility.yul\":721:731   */\n      0x00\n        /* \"#utility.yul\":742:788   */\n      tag_275\n        /* \"#utility.yul\":784:787   */\n      dup4\n        /* \"#utility.yul\":776:782   */\n      dup4\n        /* \"#utility.yul\":742:788   */\n      tag_238\n      jump\t// in\n    tag_275:\n        /* \"#utility.yul\":820:824   */\n      0x20\n        /* \"#utility.yul\":815:818   */\n      dup4\n        /* \"#utility.yul\":811:825   */\n      add\n        /* \"#utility.yul\":797:825   */\n      swap1\n      pop\n        /* \"#utility.yul\":652:831   */\n      swap3\n      swap2\n      pop\n      pop\n      jump\t// out\n        /* \"#utility.yul\":837:950   */\n    tag_240:\n        /* \"#utility.yul\":907:911   */\n      0x00\n        /* \"#utility.yul\":939:943   */\n      0x20\n        /* \"#utility.yul\":934:937   */\n      dup3\n        /* \"#utility.yul\":930:944   */\n      add\n        /* \"#utility.yul\":922:944   */\n      swap1\n      pop\n        /* \"#utility.yul\":837:950   */\n      swap2\n      swap1\n      pop\n      jump\t// out\n        /* \"#utility.yul\":986:1718   */\n    tag_241:\n        /* \"#utility.yul\":1105:1108   */\n      0x00\n        /* \"#utility.yul\":1134:1188   */\n      tag_278\n        /* \"#utility.yul\":1182:1187   */\n      dup3\n        /* \"#utility.yul\":1134:1188   */\n      tag_234\n      jump\t// in\n    tag_278:\n        /* \"#utility.yul\":1204:1290   */\n      tag_279\n        /* \"#utility.yul\":1283:1289   */\n      dup2\n        /* \"#utility.yul\":1278:1281   */\n      dup6\n        /* \"#utility.yul\":1204:1290   */\n      tag_235\n      jump\t// in\n    tag_279:\n        /* \"#utility.yul\":1197:1290   */\n      swap4\n      pop\n        /* \"#utility.yul\":1314:1370   */\n      tag_280\n        /* \"#utility.yul\":1364:1369   */\n      dup4\n        /* \"#utility.yul\":1314:1370   */\n      tag_236\n      jump\t// in\n    tag_280:\n        /* \"#utility.yul\":1393:1400   */\n      dup1\n        /* \"#utility.yul\":1424:1425   */\n      0x00\n        /* \"#utility.yul\":1409:1693   */\n    tag_281:\n        /* \"#utility.yul\":1434:1440   */\n      dup4\n        /* \"#utility.yul\":1431:1432   */\n      dup2\n        /* \"#utility.yul\":1428:1441   */\n      lt\n        /* \"#utility.yul\":1409:1693   */\n      iszero\n      tag_283\n      jumpi\n        /* \"#utility.yul\":1510:1516   */\n      dup2\n        /* \"#utility.yul\":1504:1517   */\n      mload\n        /* \"#utility.yul\":1537:1600   */\n      tag_284\n        /* \"#utility.yul\":1596:1599   */\n      dup9\n        /* \"#utility.yul\":1581:1594   */\n      dup3\n        /* \"#utility.yul\":1537:1600   */\n      tag_239\n      jump\t// in\n    tag_284:\n        /* \"#utility.yul\":1530:1600   */\n      swap8\n      pop\n        /* \"#utility.yul\":1623:1683   */\n      tag_285\n        /* \"#utility.yul\":1676:1682   */\n      dup4\n        /* \"#utility.yul\":1623:1683   */\n      tag_240\n      jump\t// in\n    tag_285:\n        /* \"#utility.yul\":1613:1683   */\n      swap3\n      pop\n        /* \"#utility.yul\":1469:1693   */\n      pop\n        /* \"#utility.yul\":1456:1457   */\n      0x01\n        /* \"#utility.yul\":1453:1454   */\n      dup2\n        /* \"#utility.yul\":1449:1458   */\n      add\n        /* \"#utility.yul\":1444:1458   */\n      swap1\n      pop\n        /* \"#utility.yul\":1409:1693   */\n      jump(tag_281)\n    tag_283:\n        /* \"#utility.yul\":1413:1427   */\n      pop\n        /* \"#utility.yul\":1709:1712   */\n      dup6\n        /* \"#utility.yul\":1702:1712   */\n      swap4\n      pop\n        /* \"#utility.yul\":1110:1718   */\n      pop\n      pop\n      pop\n        /* \"#utility.yul\":986:1718   */\n      swap3\n      swap2\n      pop\n      pop\n      jump\t// out\n        /* \"#utility.yul\":1724:2097   */\n    tag_15:\n        /* \"#utility.yul\":1867:1871   */\n      0x00\n        /* \"#utility.yul\":1905:1907   */\n      0x20\n        /* \"#utility.yul\":1894:1903   */\n      dup3\n        /* \"#utility.yul\":1890:1908   */\n      add\n        /* \"#utility.yul\":1882:1908   */\n      swap1\n      pop\n        /* \"#utility.yul\":1954:1963   */\n      dup2\n        /* \"#utility.yul\":1948:1952   */\n      dup2\n        /* \"#utility.yul\":1944:1964   */\n      sub\n        /* \"#utility.yul\":1940:1941   */\n      0x00\n        /* \"#utility.yul\":1929:1938   */\n      dup4\n        /* \"#utility.yul\":1925:1942   */\n      add\n        /* \"#utility.yul\":1918:1965   */\n      mstore\n        /* \"#utility.yul\":1982:2090   */\n      tag_287\n        /* \"#utility.yul\":2085:2089   */\n      dup2\n        /* \"#utility.yul\":2076:2082   */\n      dup5\n        /* \"#utility.yul\":1982:2090   */\n      tag_241\n      jump\t// in\n    tag_287:\n        /* \"#utility.yul\":1974:2090   */\n      swap1\n      pop\n        /* \"#utility.yul\":1724:2097   */\n      swap3\n      swap2\n      pop\n      pop\n      jump\t// out\n        /* \"#utility.yul\":2184:2301   */\n    tag_243:\n        /* \"#utility.yul\":2293:2294   */\n      0x00\n        /* \"#utility.yul\":2290:2291   */\n      dup1\n        /* \"#utility.yul\":2283:2295   */\n      revert\n        /* \"#utility.yul\":2430:2552   */\n    tag_245:\n        /* \"#utility.yul\":2503:2527   */\n      tag_292\n        /* \"#utility.yul\":2521:2526   */\n      dup2\n        /* \"#utility.yul\":2503:2527   */\n      tag_237\n      jump\t// in\n    tag_292:\n        /* \"#utility.yul\":2496:2501   */\n      dup2\n        /* \"#utility.yul\":2493:2528   */\n      eq\n        /* \"#utility.yul\":2483:2546   */\n      tag_293\n      jumpi\n        /* \"#utility.yul\":2542:2543   */\n      0x00\n        /* \"#utility.yul\":2539:2540   */\n      dup1\n        /* \"#utility.yul\":2532:2544   */\n      revert\n        /* \"#utility.yul\":2483:2546   */\n    tag_293:\n        /* \"#utility.yul\":2430:2552   */\n      pop\n      jump\t// out\n        /* \"#utility.yul\":2558:2697   */\n    tag_246:\n        /* \"#utility.yul\":2604:2609   */\n      0x00\n        /* \"#utility.yul\":2642:2648   */\n      dup2\n        /* \"#utility.yul\":2629:2649   */\n      calldataload\n        /* \"#utility.yul\":2620:2649   */\n      swap1\n      pop\n        /* \"#utility.yul\":2658:2691   */\n      tag_295\n        /* \"#utility.yul\":2685:2690   */\n      dup2\n        /* \"#utility.yul\":2658:2691   */\n      tag_245\n      jump\t// in\n    tag_295:\n        /* \"#utility.yul\":2558:2697   */\n      swap3\n      swap2\n      pop\n      pop\n      jump\t// out\n        /* \"#utility.yul\":2703:3032   */\n    tag_18:\n        /* \"#utility.yul\":2762:2768   */\n      0x00\n        /* \"#utility.yul\":2811:2813   */\n      0x20\n        /* \"#utility.yul\":2799:2808   */\n      dup3\n        /* \"#utility.yul\":2790:2797   */\n      dup5\n        /* \"#utility.yul\":2786:2809   */\n      sub\n        /* \"#utility.yul\":2782:2814   */\n      slt\n        /* \"#utility.yul\":2779:2898   */\n      iszero\n      tag_297\n      jumpi\n        /* \"#utility.yul\":2817:2896   */\n      tag_298\n      tag_243\n      jump\t// in\n    tag_298:\n        /* \"#utility.yul\":2779:2898   */\n    tag_297:\n        /* \"#utility.yul\":2937:2938   */\n      0x00\n        /* \"#utility.yul\":2962:3015   */\n      tag_299\n        /* \"#utility.yul\":3007:3014   */\n      dup5\n        /* \"#utility.yul\":2998:3004   */\n      dup3\n        /* \"#utility.yul\":2987:2996   */\n      dup6\n        /* \"#utility.yul\":2983:3005   */\n      add\n        /* \"#utility.yul\":2962:3015   */\n      tag_246\n      jump\t// in\n    tag_299:\n        /* \"#utility.yul\":2952:3015   */\n      swap2\n      pop\n        /* \"#utility.yul\":2908:3025   */\n      pop\n        /* \"#utility.yul\":2703:3032   */\n      swap3\n      swap2\n      pop\n      pop\n      jump\t// out\n        /* \"#utility.yul\":3038:3173   */\n    tag_247:\n        /* \"#utility.yul\":3126:3132   */\n      0x00\n        /* \"#utility.yul\":3160:3165   */\n      dup2\n        /* \"#utility.yul\":3154:3166   */\n      mload\n        /* \"#utility.yul\":3144:3166   */\n      swap1\n      pop\n        /* \"#utility.yul\":3038:3173   */\n      swap2\n      swap1\n      pop\n      jump\t// out\n        /* \"#utility.yul\":3179:3384   */\n    tag_248:\n        /* \"#utility.yul\":3299:3310   */\n      0x00\n        /* \"#utility.yul\":3333:3339   */\n      dup3\n        /* \"#utility.yul\":3328:3331   */\n      dup3\n        /* \"#utility.yul\":3321:3340   */\n      mstore\n        /* \"#utility.yul\":3373:3377   */\n      0x20\n        /* \"#utility.yul\":3368:3371   */\n      dup3\n        /* \"#utility.yul\":3364:3378   */\n      add\n        /* \"#utility.yul\":3349:3378   */\n      swap1\n      pop\n        /* \"#utility.yul\":3179:3384   */\n      swap3\n      swap2\n      pop\n      pop\n      jump\t// out\n        /* \"#utility.yul\":3390:3543   */\n    tag_249:\n        /* \"#utility.yul\":3478:3482   */\n      0x00\n        /* \"#utility.yul\":3501:3504   */\n      dup2\n        /* \"#utility.yul\":3493:3504   */\n      swap1\n      pop\n        /* \"#utility.yul\":3531:3535   */\n      0x20\n        /* \"#utility.yul\":3526:3529   */\n      dup3\n        /* \"#utility.yul\":3522:3536   */\n      add\n        /* \"#utility.yul\":3514:3536   */\n      swap1\n      pop\n        /* \"#utility.yul\":3390:3543   */\n      swap2\n      swap1\n      pop\n      jump\t// out\n        /* \"#utility.yul\":3549:3675   */\n    tag_250:\n        /* \"#utility.yul\":3586:3593   */\n      0x00\n        /* \"#utility.yul\":3626:3668   */\n      0xffffffffffffffffffffffffffffffffffffffff\n        /* \"#utility.yul\":3619:3624   */\n      dup3\n        /* \"#utility.yul\":3615:3669   */\n      and\n        /* \"#utility.yul\":3604:3669   */\n      swap1\n      pop\n        /* \"#utility.yul\":3549:3675   */\n      swap2\n      swap1\n      pop\n      jump\t// out\n        /* \"#utility.yul\":3681:3785   */\n    tag_251:\n        /* \"#utility.yul\":3726:3733   */\n      0x00\n        /* \"#utility.yul\":3755:3779   */\n      tag_305\n        /* \"#utility.yul\":3773:3778   */\n      dup3\n        /* \"#utility.yul\":3755:3779   */\n      tag_250\n      jump\t// in\n    tag_305:\n        /* \"#utility.yul\":3744:3779   */\n      swap1\n      pop\n        /* \"#utility.yul\":3681:3785   */\n      swap2\n      swap1\n      pop\n      jump\t// out\n        /* \"#utility.yul\":3791:3923   */\n    tag_252:\n        /* \"#utility.yul\":3884:3916   */\n      tag_307\n        /* \"#utility.yul\":3910:3915   */\n      dup2\n        /* \"#utility.yul\":3884:3916   */\n      tag_251\n      jump\t// in\n    tag_307:\n        /* \"#utility.yul\":3879:3882   */\n      dup3\n        /* \"#utility.yul\":3872:3917   */\n      mstore\n        /* \"#utility.yul\":3791:3923   */\n      pop\n      pop\n      jump\t// out\n        /* \"#utility.yul\":3929:4109   */\n    tag_61:\n        /* \"#utility.yul\":3977:4054   */\n      0x4e487b7100000000000000000000000000000000000000000000000000000000\n        /* \"#utility.yul\":3974:3975   */\n      0x00\n        /* \"#utility.yul\":3967:4055   */\n      mstore\n        /* \"#utility.yul\":4074:4078   */\n      0x21\n        /* \"#utility.yul\":4071:4072   */\n      0x04\n        /* \"#utility.yul\":4064:4079   */\n      mstore\n        /* \"#utility.yul\":4098:4102   */\n      0x24\n        /* \"#utility.yul\":4095:4096   */\n      0x00\n        /* \"#utility.yul\":4088:4103   */\n      revert\n        /* \"#utility.yul\":4115:4227   */\n    tag_253:\n        /* \"#utility.yul\":4195:4196   */\n      0x02\n        /* \"#utility.yul\":4188:4193   */\n      dup2\n        /* \"#utility.yul\":4185:4197   */\n      lt\n        /* \"#utility.yul\":4175:4221   */\n      tag_310\n      jumpi\n        /* \"#utility.yul\":4201:4219   */\n      tag_311\n      tag_61\n      jump\t// in\n    tag_311:\n        /* \"#utility.yul\":4175:4221   */\n    tag_310:\n        /* \"#utility.yul\":4115:4227   */\n      pop\n      jump\t// out\n        /* \"#utility.yul\":4233:4358   */\n    tag_254:\n        /* \"#utility.yul\":4277:4284   */\n      0x00\n        /* \"#utility.yul\":4306:4311   */\n      dup2\n        /* \"#utility.yul\":4295:4311   */\n      swap1\n      pop\n        /* \"#utility.yul\":4312:4352   */\n      tag_313\n        /* \"#utility.yul\":4346:4351   */\n      dup3\n        /* \"#utility.yul\":4312:4352   */\n      tag_253\n      jump\t// in\n    tag_313:\n        /* \"#utility.yul\":4233:4358   */\n      swap2\n      swap1\n      pop\n      jump\t// out\n        /* \"#utility.yul\":4364:4489   */\n    tag_255:\n        /* \"#utility.yul\":4419:4428   */\n      0x00\n        /* \"#utility.yul\":4452:4483   */\n      tag_315\n        /* \"#utility.yul\":4477:4482   */\n      dup3\n        /* \"#utility.yul\":4452:4483   */\n      tag_254\n      jump\t// in\n    tag_315:\n        /* \"#utility.yul\":4439:4483   */\n      swap1\n      pop\n        /* \"#utility.yul\":4364:4489   */\n      swap2\n      swap1\n      pop\n      jump\t// out\n        /* \"#utility.yul\":4495:4626   */\n    tag_256:\n        /* \"#utility.yul\":4577:4619   */\n      tag_317\n        /* \"#utility.yul\":4613:4618   */\n      dup2\n        /* \"#utility.yul\":4577:4619   */\n      tag_255\n      jump\t// in\n    tag_317:\n        /* \"#utility.yul\":4572:4575   */\n      dup3\n        /* \"#utility.yul\":4565:4620   */\n      mstore\n        /* \"#utility.yul\":4495:4626   */\n      pop\n      pop\n      jump\t// out\n        /* \"#utility.yul\":4688:5557   */\n    tag_257:\n        /* \"#utility.yul\":4817:4821   */\n      0x80\n        /* \"#utility.yul\":4812:4815   */\n      dup3\n        /* \"#utility.yul\":4808:4822   */\n      add\n        /* \"#utility.yul\":4908:4912   */\n      0x00\n        /* \"#utility.yul\":4901:4906   */\n      dup3\n        /* \"#utility.yul\":4897:4913   */\n      add\n        /* \"#utility.yul\":4891:4914   */\n      mload\n        /* \"#utility.yul\":4927:5006   */\n      tag_319\n        /* \"#utility.yul\":5000:5004   */\n      0x00\n        /* \"#utility.yul\":4995:4998   */\n      dup6\n        /* \"#utility.yul\":4991:5005   */\n      add\n        /* \"#utility.yul\":4977:4989   */\n      dup3\n        /* \"#utility.yul\":4927:5006   */\n      tag_252\n      jump\t// in\n    tag_319:\n        /* \"#utility.yul\":4832:5016   */\n      pop\n        /* \"#utility.yul\":5099:5103   */\n      0x20\n        /* \"#utility.yul\":5092:5097   */\n      dup3\n        /* \"#utility.yul\":5088:5104   */\n      add\n        /* \"#utility.yul\":5082:5105   */\n      mload\n        /* \"#utility.yul\":5118:5181   */\n      tag_320\n        /* \"#utility.yul\":5175:5179   */\n      0x20\n        /* \"#utility.yul\":5170:5173   */\n      dup6\n        /* \"#utility.yul\":5166:5180   */\n      add\n        /* \"#utility.yul\":5152:5164   */\n      dup3\n        /* \"#utility.yul\":5118:5181   */\n      tag_238\n      jump\t// in\n    tag_320:\n        /* \"#utility.yul\":5026:5191   */\n      pop\n        /* \"#utility.yul\":5278:5282   */\n      0x40\n        /* \"#utility.yul\":5271:5276   */\n      dup3\n        /* \"#utility.yul\":5267:5283   */\n      add\n        /* \"#utility.yul\":5261:5284   */\n      mload\n        /* \"#utility.yul\":5297:5360   */\n      tag_321\n        /* \"#utility.yul\":5354:5358   */\n      0x40\n        /* \"#utility.yul\":5349:5352   */\n      dup6\n        /* \"#utility.yul\":5345:5359   */\n      add\n        /* \"#utility.yul\":5331:5343   */\n      dup3\n        /* \"#utility.yul\":5297:5360   */\n      tag_238\n      jump\t// in\n    tag_321:\n        /* \"#utility.yul\":5201:5370   */\n      pop\n        /* \"#utility.yul\":5453:5457   */\n      0x60\n        /* \"#utility.yul\":5446:5451   */\n      dup3\n        /* \"#utility.yul\":5442:5458   */\n      add\n        /* \"#utility.yul\":5436:5459   */\n      mload\n        /* \"#utility.yul\":5472:5540   */\n      tag_322\n        /* \"#utility.yul\":5534:5538   */\n      0x60\n        /* \"#utility.yul\":5529:5532   */\n      dup6\n        /* \"#utility.yul\":5525:5539   */\n      add\n        /* \"#utility.yul\":5511:5523   */\n      dup3\n        /* \"#utility.yul\":5472:5540   */\n      tag_256\n      jump\t// in\n    tag_322:\n        /* \"#utility.yul\":5380:5550   */\n      pop\n        /* \"#utility.yul\":4786:5557   */\n      pop\n        /* \"#utility.yul\":4688:5557   */\n      pop\n      pop\n      jump\t// out\n        /* \"#utility.yul\":5563:5826   */\n    tag_258:\n        /* \"#utility.yul\":5674:5684   */\n      0x00\n        /* \"#utility.yul\":5695:5783   */\n      tag_324\n        /* \"#utility.yul\":5779:5782   */\n      dup4\n        /* \"#utility.yul\":5771:5777   */\n      dup4\n        /* \"#utility.yul\":5695:5783   */\n      tag_257\n      jump\t// in\n    tag_324:\n        /* \"#utility.yul\":5815:5819   */\n      0x80\n        /* \"#utility.yul\":5810:5813   */\n      dup4\n        /* \"#utility.yul\":5806:5820   */\n      add\n        /* \"#utility.yul\":5792:5820   */\n      swap1\n      pop\n        /* \"#utility.yul\":5563:5826   */\n      swap3\n      swap2\n      pop\n      pop\n      jump\t// out\n        /* \"#utility.yul\":5832:5966   */\n    tag_259:\n        /* \"#utility.yul\":5923:5927   */\n      0x00\n        /* \"#utility.yul\":5955:5959   */\n      0x20\n        /* \"#utility.yul\":5950:5953   */\n      dup3\n        /* \"#utility.yul\":5946:5960   */\n      add\n        /* \"#utility.yul\":5938:5960   */\n      swap1\n      pop\n        /* \"#utility.yul\":5832:5966   */\n      swap2\n      swap1\n      pop\n      jump\t// out\n        /* \"#utility.yul\":6032:6932   */\n    tag_260:\n        /* \"#utility.yul\":6193:6196   */\n      0x00\n        /* \"#utility.yul\":6222:6297   */\n      tag_327\n        /* \"#utility.yul\":6291:6296   */\n      dup3\n        /* \"#utility.yul\":6222:6297   */\n      tag_247\n      jump\t// in\n    tag_327:\n        /* \"#utility.yul\":6313:6420   */\n      tag_328\n        /* \"#utility.yul\":6413:6419   */\n      dup2\n        /* \"#utility.yul\":6408:6411   */\n      dup6\n        /* \"#utility.yul\":6313:6420   */\n      tag_248\n      jump\t// in\n    tag_328:\n        /* \"#utility.yul\":6306:6420   */\n      swap4\n      pop\n        /* \"#utility.yul\":6444:6521   */\n      tag_329\n        /* \"#utility.yul\":6515:6520   */\n      dup4\n        /* \"#utility.yul\":6444:6521   */\n      tag_249\n      jump\t// in\n    tag_329:\n        /* \"#utility.yul\":6544:6551   */\n      dup1\n        /* \"#utility.yul\":6575:6576   */\n      0x00\n        /* \"#utility.yul\":6560:6907   */\n    tag_330:\n        /* \"#utility.yul\":6585:6591   */\n      dup4\n        /* \"#utility.yul\":6582:6583   */\n      dup2\n        /* \"#utility.yul\":6579:6592   */\n      lt\n        /* \"#utility.yul\":6560:6907   */\n      iszero\n      tag_332\n      jumpi\n        /* \"#utility.yul\":6661:6667   */\n      dup2\n        /* \"#utility.yul\":6655:6668   */\n      mload\n        /* \"#utility.yul\":6688:6793   */\n      tag_333\n        /* \"#utility.yul\":6789:6792   */\n      dup9\n        /* \"#utility.yul\":6774:6787   */\n      dup3\n        /* \"#utility.yul\":6688:6793   */\n      tag_258\n      jump\t// in\n    tag_333:\n        /* \"#utility.yul\":6681:6793   */\n      swap8\n      pop\n        /* \"#utility.yul\":6816:6897   */\n      tag_334\n        /* \"#utility.yul\":6890:6896   */\n      dup4\n        /* \"#utility.yul\":6816:6897   */\n      tag_259\n      jump\t// in\n    tag_334:\n        /* \"#utility.yul\":6806:6897   */\n      swap3\n      pop\n        /* \"#utility.yul\":6620:6907   */\n      pop\n        /* \"#utility.yul\":6607:6608   */\n      0x01\n        /* \"#utility.yul\":6604:6605   */\n      dup2\n        /* \"#utility.yul\":6600:6609   */\n      add\n        /* \"#utility.yul\":6595:6609   */\n      swap1\n      pop\n        /* \"#utility.yul\":6560:6907   */\n      jump(tag_330)\n    tag_332:\n        /* \"#utility.yul\":6564:6578   */\n      pop\n        /* \"#utility.yul\":6923:6926   */\n      dup6\n        /* \"#utility.yul\":6916:6926   */\n      swap4\n      pop\n        /* \"#utility.yul\":6198:6932   */\n      pop\n      pop\n      pop\n        /* \"#utility.yul\":6032:6932   */\n      swap3\n      swap2\n      pop\n      pop\n      jump\t// out\n        /* \"#utility.yul\":6938:7395   */\n    tag_23:\n        /* \"#utility.yul\":7123:7127   */\n      0x00\n        /* \"#utility.yul\":7161:7163   */\n      0x20\n        /* \"#utility.yul\":7150:7159   */\n      dup3\n        /* \"#utility.yul\":7146:7164   */\n      add\n        /* \"#utility.yul\":7138:7164   */\n      swap1\n      pop\n        /* \"#utility.yul\":7210:7219   */\n      dup2\n        /* \"#utility.yul\":7204:7208   */\n      dup2\n        /* \"#utility.yul\":7200:7220   */\n      sub\n        /* \"#utility.yul\":7196:7197   */\n      0x00\n        /* \"#utility.yul\":7185:7194   */\n      dup4\n        /* \"#utility.yul\":7181:7198   */\n      add\n        /* \"#utility.yul\":7174:7221   */\n      mstore\n        /* \"#utility.yul\":7238:7388   */\n      tag_336\n        /* \"#utility.yul\":7383:7387   */\n      dup2\n        /* \"#utility.yul\":7374:7380   */\n      dup5\n        /* \"#utility.yul\":7238:7388   */\n      tag_260\n      jump\t// in\n    tag_336:\n        /* \"#utility.yul\":7230:7388   */\n      swap1\n      pop\n        /* \"#utility.yul\":6938:7395   */\n      swap3\n      swap2\n      pop\n      pop\n      jump\t// out\n        /* \"#utility.yul\":7401:7581   */\n    tag_47:\n        /* \"#utility.yul\":7449:7526   */\n      0x4e487b7100000000000000000000000000000000000000000000000000000000\n        /* \"#utility.yul\":7446:7447   */\n      0x00\n        /* \"#utility.yul\":7439:7527   */\n      mstore\n        /* \"#utility.yul\":7546:7550   */\n      0x32\n        /* \"#utility.yul\":7543:7544   */\n      0x04\n        /* \"#utility.yul\":7536:7551   */\n      mstore\n        /* \"#utility.yul\":7570:7574   */\n      0x24\n        /* \"#utility.yul\":7567:7568   */\n      0x00\n        /* \"#utility.yul\":7560:7575   */\n      revert\n        /* \"#utility.yul\":7587:7767   */\n    tag_261:\n        /* \"#utility.yul\":7635:7712   */\n      0x4e487b7100000000000000000000000000000000000000000000000000000000\n        /* \"#utility.yul\":7632:7633   */\n      0x00\n        /* \"#utility.yul\":7625:7713   */\n      mstore\n        /* \"#utility.yul\":7732:7736   */\n      0x11\n        /* \"#utility.yul\":7729:7730   */\n      0x04\n        /* \"#utility.yul\":7722:7737   */\n      mstore\n        /* \"#utility.yul\":7756:7760   */\n      0x24\n        /* \"#utility.yul\":7753:7754   */\n      0x00\n        /* \"#utility.yul\":7746:7761   */\n      revert\n        /* \"#utility.yul\":7773:8006   */\n    tag_52:\n        /* \"#utility.yul\":7812:7815   */\n      0x00\n        /* \"#utility.yul\":7835:7859   */\n      tag_340\n        /* \"#utility.yul\":7853:7858   */\n      dup3\n        /* \"#utility.yul\":7835:7859   */\n      tag_237\n      jump\t// in\n    tag_340:\n        /* \"#utility.yul\":7826:7859   */\n      swap2\n      pop\n        /* \"#utility.yul\":7881:7947   */\n      0xffffffffffffffffffffffffffffffffffffffffffffffffffffffffffffffff\n        /* \"#utility.yul\":7874:7879   */\n      dup3\n        /* \"#utility.yul\":7871:7948   */\n      sub\n        /* \"#utility.yul\":7868:7971   */\n      tag_341\n      jumpi\n        /* \"#utility.yul\":7951:7969   */\n      tag_342\n      tag_261\n      jump\t// in\n    tag_342:\n        /* \"#utility.yul\":7868:7971   */\n    tag_341:\n        /* \"#utility.yul\":7998:7999   */\n      0x01\n        /* \"#utility.yul\":7991:7996   */\n      dup3\n        /* \"#utility.yul\":7987:8000   */\n      add\n        /* \"#utility.yul\":7980:8000   */\n      swap1\n      pop\n        /* \"#utility.yul\":7773:8006   */\n      swap2\n      swap1\n      pop\n      jump\t// out\n        /* \"#utility.yul\":8012:8181   */\n    tag_262:\n        /* \"#utility.yul\":8096:8107   */\n      0x00\n        /* \"#utility.yul\":8130:8136   */\n      dup3\n        /* \"#utility.yul\":8125:8128   */\n      dup3\n        /* \"#utility.yul\":8118:8137   */\n      mstore\n        /* \"#utility.yul\":8170:8174   */\n      0x20\n        /* \"#utility.yul\":8165:8168   */\n      dup3\n        /* \"#utility.yul\":8161:8175   */\n      add\n        /* \"#utility.yul\":8146:8175   */\n      swap1\n      pop\n        /* \"#utility.yul\":8012:8181   */\n      swap3\n      swap2\n      pop\n      pop\n      jump\t// out\n        /* \"#utility.yul\":8187:8350   */\n    tag_263:\n        /* \"#utility.yul\":8327:8342   */\n      0x4f726465722050656e64696e6700000000000000000000000000000000000000\n        /* \"#utility.yul\":8323:8324   */\n      0x00\n        /* \"#utility.yul\":8315:8321   */\n      dup3\n        /* \"#utility.yul\":8311:8325   */\n      add\n        /* \"#utility.yul\":8304:8343   */\n      mstore\n        /* \"#utility.yul\":8187:8350   */\n      pop\n      jump\t// out\n        /* \"#utility.yul\":8356:8722   */\n    tag_264:\n        /* \"#utility.yul\":8498:8501   */\n      0x00\n        /* \"#utility.yul\":8519:8586   */\n      tag_346\n        /* \"#utility.yul\":8583:8585   */\n      0x0d\n        /* \"#utility.yul\":8578:8581   */\n      dup4\n        /* \"#utility.yul\":8519:8586   */\n      tag_262\n      jump\t// in\n    tag_346:\n        /* \"#utility.yul\":8512:8586   */\n      swap2\n      pop\n        /* \"#utility.yul\":8595:8688   */\n      tag_347\n        /* \"#utility.yul\":8684:8687   */\n      dup3\n        /* \"#utility.yul\":8595:8688   */\n      tag_263\n      jump\t// in\n    tag_347:\n        /* \"#utility.yul\":8713:8715   */\n      0x20\n        /* \"#utility.yul\":8708:8711   */\n      dup3\n        /* \"#utility.yul\":8704:8716   */\n      add\n        /* \"#utility.yul\":8697:8716   */\n      swap1\n      pop\n        /* \"#utility.yul\":8356:8722   */\n      swap2\n      swap1\n      pop\n      jump\t// out\n        /* \"#utility.yul\":8728:9147   */\n    tag_66:\n        /* \"#utility.yul\":8894:8898   */\n      0x00\n        /* \"#utility.yul\":8932:8934   */\n      0x20\n        /* \"#utility.yul\":8921:8930   */\n      dup3\n        /* \"#utility.yul\":8917:8935   */\n      add\n        /* \"#utility.yul\":8909:8935   */\n      swap1\n      pop\n        /* \"#utility.yul\":8981:8990   */\n      dup2\n        /* \"#utility.yul\":8975:8979   */\n      dup2\n        /* \"#utility.yul\":8971:8991   */\n      sub\n        /* \"#utility.yul\":8967:8968   */\n      0x00\n        /* \"#utility.yul\":8956:8965   */\n      dup4\n        /* \"#utility.yul\":8952:8969   */\n      add\n        /* \"#utility.yul\":8945:8992   */\n      mstore\n        /* \"#utility.yul\":9009:9140   */\n      tag_349\n        /* \"#utility.yul\":9135:9139   */\n      dup2\n        /* \"#utility.yul\":9009:9140   */\n      tag_264\n      jump\t// in\n    tag_349:\n        /* \"#utility.yul\":9001:9140   */\n      swap1\n      pop\n        /* \"#utility.yul\":8728:9147   */\n      swap2\n      swap1\n      pop\n      jump\t// out\n        /* \"#utility.yul\":9153:9344   */\n    tag_148:\n        /* \"#utility.yul\":9193:9197   */\n      0x00\n        /* \"#utility.yul\":9213:9233   */\n      tag_351\n        /* \"#utility.yul\":9231:9232   */\n      dup3\n        /* \"#utility.yul\":9213:9233   */\n      tag_237\n      jump\t// in\n    tag_351:\n        /* \"#utility.yul\":9208:9233   */\n      swap2\n      pop\n        /* \"#utility.yul\":9247:9267   */\n      tag_352\n        /* \"#utility.yul\":9265:9266   */\n      dup4\n        /* \"#utility.yul\":9247:9267   */\n      tag_237\n      jump\t// in\n    tag_352:\n        /* \"#utility.yul\":9242:9267   */\n      swap3\n      pop\n        /* \"#utility.yul\":9286:9287   */\n      dup3\n        /* \"#utility.yul\":9283:9284   */\n      dup3\n        /* \"#utility.yul\":9280:9288   */\n      lt\n        /* \"#utility.yul\":9277:9311   */\n      iszero\n      tag_353\n      jumpi\n        /* \"#utility.yul\":9291:9309   */\n      tag_354\n      tag_261\n      jump\t// in\n    tag_354:\n        /* \"#utility.yul\":9277:9311   */\n    tag_353:\n        /* \"#utility.yul\":9336:9337   */\n      dup3\n        /* \"#utility.yul\":9333:9334   */\n      dup3\n        /* \"#utility.yul\":9329:9338   */\n      sub\n        /* \"#utility.yul\":9321:9338   */\n      swap1\n      pop\n        /* \"#utility.yul\":9153:9344   */\n      swap3\n      swap2\n      pop\n      pop\n      jump\t// out\n        /* \"#utility.yul\":9350:9426   */\n    tag_265:\n        /* \"#utility.yul\":9386:9393   */\n      0x00\n        /* \"#utility.yul\":9415:9420   */\n      dup2\n        /* \"#utility.yul\":9404:9420   */\n      swap1\n      pop\n        /* \"#utility.yul\":9350:9426   */\n      swap2\n      swap1\n      pop\n      jump\t// out\n        /* \"#utility.yul\":9432:9959   */\n    tag_164:\n        /* \"#utility.yul\":9471:9475   */\n      0x00\n        /* \"#utility.yul\":9491:9510   */\n      tag_357\n        /* \"#utility.yul\":9508:9509   */\n      dup3\n        /* \"#utility.yul\":9491:9510   */\n      tag_265\n      jump\t// in\n    tag_357:\n        /* \"#utility.yul\":9486:9510   */\n      swap2\n      pop\n        /* \"#utility.yul\":9524:9543   */\n      tag_358\n        /* \"#utility.yul\":9541:9542   */\n      dup4\n        /* \"#utility.yul\":9524:9543   */\n      tag_265\n      jump\t// in\n    tag_358:\n        /* \"#utility.yul\":9519:9543   */\n      swap3\n      pop\n        /* \"#utility.yul\":9713:9714   */\n      dup3\n        /* \"#utility.yul\":9645:9711   */\n      0x8000000000000000000000000000000000000000000000000000000000000000\n        /* \"#utility.yul\":9641:9715   */\n      add\n        /* \"#utility.yul\":9638:9639   */\n      dup3\n        /* \"#utility.yul\":9634:9716   */\n      slt\n        /* \"#utility.yul\":9629:9630   */\n      0x00\n        /* \"#utility.yul\":9626:9627   */\n      dup5\n        /* \"#utility.yul\":9622:9631   */\n      slt\n        /* \"#utility.yul\":9615:9632   */\n      iszero\n        /* \"#utility.yul\":9611:9717   */\n      and\n        /* \"#utility.yul\":9608:9740   */\n      iszero\n      tag_359\n      jumpi\n        /* \"#utility.yul\":9720:9738   */\n      tag_360\n      tag_261\n      jump\t// in\n    tag_360:\n        /* \"#utility.yul\":9608:9740   */\n    tag_359:\n        /* \"#utility.yul\":9899:9900   */\n      dup3\n        /* \"#utility.yul\":9831:9897   */\n      0x7fffffffffffffffffffffffffffffffffffffffffffffffffffffffffffffff\n        /* \"#utility.yul\":9827:9901   */\n      add\n        /* \"#utility.yul\":9824:9825   */\n      dup3\n        /* \"#utility.yul\":9820:9902   */\n      sgt\n        /* \"#utility.yul\":9816:9817   */\n      0x00\n        /* \"#utility.yul\":9813:9814   */\n      dup5\n        /* \"#utility.yul\":9809:9818   */\n      slt\n        /* \"#utility.yul\":9805:9903   */\n      and\n        /* \"#utility.yul\":9802:9926   */\n      iszero\n      tag_361\n      jumpi\n        /* \"#utility.yul\":9906:9924   */\n      tag_362\n      tag_261\n      jump\t// in\n    tag_362:\n        /* \"#utility.yul\":9802:9926   */\n    tag_361:\n        /* \"#utility.yul\":9951:9952   */\n      dup3\n        /* \"#utility.yul\":9948:9949   */\n      dup3\n        /* \"#utility.yul\":9944:9953   */\n      sub\n        /* \"#utility.yul\":9936:9953   */\n      swap1\n      pop\n        /* \"#utility.yul\":9432:9959   */\n      swap3\n      swap2\n      pop\n      pop\n      jump\t// out\n        /* \"#utility.yul\":9965:10145   */\n    tag_266:\n        /* \"#utility.yul\":10013:10090   */\n      0x4e487b7100000000000000000000000000000000000000000000000000000000\n        /* \"#utility.yul\":10010:10011   */\n      0x00\n        /* \"#utility.yul\":10003:10091   */\n      mstore\n        /* \"#utility.yul\":10110:10114   */\n      0x12\n        /* \"#utility.yul\":10107:10108   */\n      0x04\n        /* \"#utility.yul\":10100:10115   */\n      mstore\n        /* \"#utility.yul\":10134:10138   */\n      0x24\n        /* \"#utility.yul\":10131:10132   */\n      0x00\n        /* \"#utility.yul\":10124:10139   */\n      revert\n        /* \"#utility.yul\":10151:10536   */\n    tag_166:\n        /* \"#utility.yul\":10190:10191   */\n      0x00\n        /* \"#utility.yul\":10207:10226   */\n      tag_365\n        /* \"#utility.yul\":10224:10225   */\n      dup3\n        /* \"#utility.yul\":10207:10226   */\n      tag_265\n      jump\t// in\n    tag_365:\n        /* \"#utility.yul\":10202:10226   */\n      swap2\n      pop\n        /* \"#utility.yul\":10240:10259   */\n      tag_366\n        /* \"#utility.yul\":10257:10258   */\n      dup4\n        /* \"#utility.yul\":10240:10259   */\n      tag_265\n      jump\t// in\n    tag_366:\n        /* \"#utility.yul\":10235:10259   */\n      swap3\n      pop\n        /* \"#utility.yul\":10278:10279   */\n      dup3\n        /* \"#utility.yul\":10268:10303   */\n      tag_367\n      jumpi\n        /* \"#utility.yul\":10283:10301   */\n      tag_368\n      tag_266\n      jump\t// in\n    tag_368:\n        /* \"#utility.yul\":10268:10303   */\n    tag_367:\n        /* \"#utility.yul\":10469:10470   */\n      0x01\n        /* \"#utility.yul\":10466:10467   */\n      0x00\n        /* \"#utility.yul\":10462:10471   */\n      sub\n        /* \"#utility.yul\":10459:10460   */\n      dup4\n        /* \"#utility.yul\":10456:10472   */\n      eq\n        /* \"#utility.yul\":10375:10441   */\n      0x8000000000000000000000000000000000000000000000000000000000000000\n        /* \"#utility.yul\":10372:10373   */\n      dup4\n        /* \"#utility.yul\":10369:10442   */\n      eq\n        /* \"#utility.yul\":10352:10482   */\n      and\n        /* \"#utility.yul\":10349:10505   */\n      iszero\n      tag_369\n      jumpi\n        /* \"#utility.yul\":10485:10503   */\n      tag_370\n      tag_261\n      jump\t// in\n    tag_370:\n        /* \"#utility.yul\":10349:10505   */\n    tag_369:\n        /* \"#utility.yul\":10528:10529   */\n      dup3\n        /* \"#utility.yul\":10525:10526   */\n      dup3\n        /* \"#utility.yul\":10520:10530   */\n      sdiv\n        /* \"#utility.yul\":10515:10530   */\n      swap1\n      pop\n        /* \"#utility.yul\":10151:10536   */\n      swap3\n      swap2\n      pop\n      pop\n      jump\t// out\n        /* \"#utility.yul\":10542:11067   */\n    tag_168:\n        /* \"#utility.yul\":10581:10584   */\n      0x00\n        /* \"#utility.yul\":10600:10619   */\n      tag_372\n        /* \"#utility.yul\":10617:10618   */\n      dup3\n        /* \"#utility.yul\":10600:10619   */\n      tag_265\n      jump\t// in\n    tag_372:\n        /* \"#utility.yul\":10595:10619   */\n      swap2\n      pop\n        /* \"#utility.yul\":10633:10652   */\n      tag_373\n        /* \"#utility.yul\":10650:10651   */\n      dup4\n        /* \"#utility.yul\":10633:10652   */\n      tag_265\n      jump\t// in\n    tag_373:\n        /* \"#utility.yul\":10628:10652   */\n      swap3\n      pop\n        /* \"#utility.yul\":10821:10822   */\n      dup2\n        /* \"#utility.yul\":10753:10819   */\n      0x7fffffffffffffffffffffffffffffffffffffffffffffffffffffffffffffff\n        /* \"#utility.yul\":10749:10823   */\n      sub\n        /* \"#utility.yul\":10746:10747   */\n      dup4\n        /* \"#utility.yul\":10742:10824   */\n      sgt\n        /* \"#utility.yul\":10737:10738   */\n      0x00\n        /* \"#utility.yul\":10734:10735   */\n      dup4\n        /* \"#utility.yul\":10730:10739   */\n      slt\n        /* \"#utility.yul\":10723:10740   */\n      iszero\n        /* \"#utility.yul\":10719:10825   */\n      and\n        /* \"#utility.yul\":10716:10848   */\n      iszero\n      tag_374\n      jumpi\n        /* \"#utility.yul\":10828:10846   */\n      tag_375\n      tag_261\n      jump\t// in\n    tag_375:\n        /* \"#utility.yul\":10716:10848   */\n    tag_374:\n        /* \"#utility.yul\":11008:11009   */\n      dup2\n        /* \"#utility.yul\":10940:11006   */\n      0x8000000000000000000000000000000000000000000000000000000000000000\n        /* \"#utility.yul\":10936:11010   */\n      sub\n        /* \"#utility.yul\":10933:10934   */\n      dup4\n        /* \"#utility.yul\":10929:11011   */\n      slt\n        /* \"#utility.yul\":10925:10926   */\n      0x00\n        /* \"#utility.yul\":10922:10923   */\n      dup4\n        /* \"#utility.yul\":10918:10927   */\n      slt\n        /* \"#utility.yul\":10914:11012   */\n      and\n        /* \"#utility.yul\":10911:11035   */\n      iszero\n      tag_376\n      jumpi\n        /* \"#utility.yul\":11015:11033   */\n      tag_377\n      tag_261\n      jump\t// in\n    tag_377:\n        /* \"#utility.yul\":10911:11035   */\n    tag_376:\n        /* \"#utility.yul\":11059:11060   */\n      dup3\n        /* \"#utility.yul\":11056:11057   */\n      dup3\n        /* \"#utility.yul\":11052:11061   */\n      add\n        /* \"#utility.yul\":11045:11061   */\n      swap1\n      pop\n        /* \"#utility.yul\":10542:11067   */\n      swap3\n      swap2\n      pop\n      pop\n      jump\t// out\n        /* \"#utility.yul\":11073:11304   */\n    tag_178:\n        /* \"#utility.yul\":11111:11114   */\n      0x00\n        /* \"#utility.yul\":11134:11157   */\n      tag_379\n        /* \"#utility.yul\":11151:11156   */\n      dup3\n        /* \"#utility.yul\":11134:11157   */\n      tag_265\n      jump\t// in\n    tag_379:\n        /* \"#utility.yul\":11125:11157   */\n      swap2\n      pop\n        /* \"#utility.yul\":11179:11245   */\n      0x7fffffffffffffffffffffffffffffffffffffffffffffffffffffffffffffff\n        /* \"#utility.yul\":11172:11177   */\n      dup3\n        /* \"#utility.yul\":11169:11246   */\n      sub\n        /* \"#utility.yul\":11166:11269   */\n      tag_380\n      jumpi\n        /* \"#utility.yul\":11249:11267   */\n      tag_381\n      tag_261\n      jump\t// in\n    tag_381:\n        /* \"#utility.yul\":11166:11269   */\n    tag_380:\n        /* \"#utility.yul\":11296:11297   */\n      0x01\n        /* \"#utility.yul\":11289:11294   */\n      dup3\n        /* \"#utility.yul\":11285:11298   */\n      add\n        /* \"#utility.yul\":11278:11298   */\n      swap1\n      pop\n        /* \"#utility.yul\":11073:11304   */\n      swap2\n      swap1\n      pop\n      jump\t// out\n        /* \"#utility.yul\":11310:11541   */\n    tag_184:\n        /* \"#utility.yul\":11348:11351   */\n      0x00\n        /* \"#utility.yul\":11371:11394   */\n      tag_383\n        /* \"#utility.yul\":11388:11393   */\n      dup3\n        /* \"#utility.yul\":11371:11394   */\n      tag_265\n      jump\t// in\n    tag_383:\n        /* \"#utility.yul\":11362:11394   */\n      swap2\n      pop\n        /* \"#utility.yul\":11416:11482   */\n      0x8000000000000000000000000000000000000000000000000000000000000000\n        /* \"#utility.yul\":11409:11414   */\n      dup3\n        /* \"#utility.yul\":11406:11483   */\n      sub\n        /* \"#utility.yul\":11403:11506   */\n      tag_384\n      jumpi\n        /* \"#utility.yul\":11486:11504   */\n      tag_385\n      tag_261\n      jump\t// in\n    tag_385:\n        /* \"#utility.yul\":11403:11506   */\n    tag_384:\n        /* \"#utility.yul\":11533:11534   */\n      0x01\n        /* \"#utility.yul\":11526:11531   */\n      dup3\n        /* \"#utility.yul\":11522:11535   */\n      sub\n        /* \"#utility.yul\":11515:11535   */\n      swap1\n      pop\n        /* \"#utility.yul\":11310:11541   */\n      swap2\n      swap1\n      pop\n      jump\t// out\n\n    auxdata: 0xa26469706673582212204cc559d5ade0cebf77fe3323c763c026d21c0b6f9936979cef3ff97fe4f40f0164736f6c634300080d0033\n}\n",
				"bytecode": {
					"linkReferences": {},
					"object": "608060405234801561001057600080fd5b506116e1806100206000396000f3fe608060405234801561001057600080fd5b50600436106100885760003560e01c80639703ef351161005b5780639703ef35146101015780639979ef451461011d578063c5374af214610139578063ce0cdc871461015757610088565b8063122de8f21461008d5780631628e0f5146100ab5780634471417f146100c757806378c5b268146100e5575b600080fd5b610095610175565b6040516100a2919061109b565b60405180910390f35b6100c560048036038101906100c091906110ee565b61029b565b005b6100cf6103b1565b6040516100dc91906112d7565b60405180910390f35b6100ff60048036038101906100fa91906110ee565b6104b5565b005b61011b600480360381019061011691906110ee565b6105c0565b005b610137600480360381019061013291906110ee565b6106d6565b005b6101416107e1565b60405161014e91906112d7565b60405180910390f35b61015f6108e5565b60405161016c919061109b565b60405180910390f35b606061017f610a0b565b60005b600180549050811015610244573373ffffffffffffffffffffffffffffffffffffffff16600182815481106101ba576101b96112f9565b5b906000526020600020906004020160000160009054906101000a900473ffffffffffffffffffffffffffffffffffffffff1673ffffffffffffffffffffffffffffffffffffffff16036102315760028190806001815401808255809150506001900390600052602060002001600090919091909150555b808061023c90611357565b915050610182565b50600280548060200260200160405190810160405280929190818152602001828054801561029157602002820191906000526020600020905b81548152602001906001019080831161027d575b5050505050905090565b600181815481106102af576102ae6112f9565b5b906000526020600020906004020160030160009054906101000a900460ff16600060018111156102e2576102e1611188565b5b8160018111156102f5576102f4611188565b5b14610335576040517f08c379a000000000000000000000000000000000000000000000000000000000815260040161032c906113fc565b60405180910390fd5b60018281548110610349576103486112f9565b5b9060005260206000209060040201600080820160006101000a81549073ffffffffffffffffffffffffffffffffffffffff0219169055600182016000905560028201600090556003820160006101000a81549060ff021916905550506103ad610a53565b5050565b60606000805480602002602001604051908101604052809291908181526020016000905b828210156104ac57838290600052602060002090600402016040518060800160405290816000820160009054906101000a900473ffffffffffffffffffffffffffffffffffffffff1673ffffffffffffffffffffffffffffffffffffffff1673ffffffffffffffffffffffffffffffffffffffff16815260200160018201548152602001600282015481526020016003820160009054906101000a900460ff16600181111561048757610486611188565b5b600181111561049957610498611188565b5b81525050815260200190600101906103d5565b50505050905090565b600060405180608001604052803373ffffffffffffffffffffffffffffffffffffffff168152602001838152602001428152602001600060018111156104fe576104fd611188565b5b8152509050600181908060018154018082558091505060019003906000526020600020906004020160009091909190915060008201518160000160006101000a81548173ffffffffffffffffffffffffffffffffffffffff021916908373ffffffffffffffffffffffffffffffffffffffff160217905550602082015181600101556040820151816002015560608201518160030160006101000a81548160ff021916908360018111156105b5576105b4611188565b5b021790555050505050565b600081815481106105d4576105d36112f9565b5b906000526020600020906004020160030160009054906101000a900460ff166000600181111561060757610606611188565b5b81600181111561061a57610619611188565b5b1461065a576040517f08c379a0000000000000000000000000000000000000000000000000000000008152600401610651906113fc565b60405180910390fd5b6000828154811061066e5761066d6112f9565b5b9060005260206000209060040201600080820160006101000a81549073ffffffffffffffffffffffffffffffffffffffff0219169055600182016000905560028201600090556003820160006101000a81549060ff021916905550506106d2610b6e565b5050565b600060405180608001604052803373ffffffffffffffffffffffffffffffffffffffff1681526020018381526020014281526020016000600181111561071f5761071e611188565b5b8152509050600081908060018154018082558091505060019003906000526020600020906004020160009091909190915060008201518160000160006101000a81548173ffffffffffffffffffffffffffffffffffffffff021916908373ffffffffffffffffffffffffffffffffffffffff160217905550602082015181600101556040820151816002015560608201518160030160006101000a81548160ff021916908360018111156107d6576107d5611188565b5b021790555050505050565b60606001805480602002602001604051908101604052809291908181526020016000905b828210156108dc57838290600052602060002090600402016040518060800160405290816000820160009054906101000a900473ffffffffffffffffffffffffffffffffffffffff1673ffffffffffffffffffffffffffffffffffffffff1673ffffffffffffffffffffffffffffffffffffffff16815260200160018201548152602001600282015481526020016003820160009054906101000a900460ff1660018111156108b7576108b6611188565b5b60018111156108c9576108c8611188565b5b8152505081526020019060010190610805565b50505050905090565b60606108ef610a0b565b60005b6000805490508110156109b4573373ffffffffffffffffffffffffffffffffffffffff166000828154811061092a576109296112f9565b5b906000526020600020906004020160000160009054906101000a900473ffffffffffffffffffffffffffffffffffffffff1673ffffffffffffffffffffffffffffffffffffffff16036109a15760028190806001815401808255809150506001900390600052602060002001600090919091909150555b80806109ac90611357565b9150506108f2565b506002805480602002602001604051908101604052809291908181526020018280548015610a0157602002820191906000526020600020905b8154815260200190600101908083116109ed575b5050505050905090565b60005b600280549050811015610a505760028181548110610a2f57610a2e6112f9565b5b90600052602060002001600090558080610a4890611357565b915050610a0e565b50565b610b6c6000805480602002602001604051908101604052809291908181526020016000905b82821015610b4f57838290600052602060002090600402016040518060800160405290816000820160009054906101000a900473ffffffffffffffffffffffffffffffffffffffff1673ffffffffffffffffffffffffffffffffffffffff1673ffffffffffffffffffffffffffffffffffffffff16815260200160018201548152602001600282015481526020016003820160009054906101000a900460ff166001811115610b2a57610b29611188565b5b6001811115610b3c57610b3b611188565b5b8152505081526020019060010190610a78565b5050505060006001600080549050610b67919061141c565b610c89565b565b610c876000805480602002602001604051908101604052809291908181526020016000905b82821015610c6a57838290600052602060002090600402016040518060800160405290816000820160009054906101000a900473ffffffffffffffffffffffffffffffffffffffff1673ffffffffffffffffffffffffffffffffffffffff1673ffffffffffffffffffffffffffffffffffffffff16815260200160018201548152602001600282015481526020016003820160009054906101000a900460ff166001811115610c4557610c44611188565b5b6001811115610c5757610c56611188565b5b8152505081526020019060010190610b93565b5050505060006001600080549050610c82919061141c565b610e2e565b565b60008290506000829050808203610ca1575050610e29565b60008560028686610cb2919061145a565b610cbc919061151d565b86610cc79190611587565b81518110610cd857610cd76112f9565b5b60200260200101516040015190505b818313610dfd575b80868481518110610d0357610d026112f9565b5b6020026020010151604001511115610d28578280610d209061161b565b935050610cef565b5b858281518110610d3c57610d3b6112f9565b5b602002602001015160400151811115610d62578180610d5a90611663565b925050610d29565b818313610df857858281518110610d7c57610d7b6112f9565b5b6020026020010151868481518110610d9757610d966112f9565b5b6020026020010151878581518110610db257610db16112f9565b5b60200260200101888581518110610dcc57610dcb6112f9565b5b6020026020010182905282905250508280610de69061161b565b9350508180610df490611663565b9250505b610ce7565b81851215610e1157610e10868684610c89565b5b83831215610e2557610e24868486610c89565b5b5050505b505050565b60008290506000829050808203610e46575050610fce565b60008560028686610e57919061145a565b610e61919061151d565b86610e6c9190611587565b81518110610e7d57610e7c6112f9565b5b60200260200101516040015190505b818313610fa2575b80868481518110610ea857610ea76112f9565b5b6020026020010151604001511015610ecd578280610ec59061161b565b935050610e94565b5b858281518110610ee157610ee06112f9565b5b602002602001015160400151811015610f07578180610eff90611663565b925050610ece565b818313610f9d57858281518110610f2157610f206112f9565b5b6020026020010151868481518110610f3c57610f3b6112f9565b5b6020026020010151878581518110610f5757610f566112f9565b5b60200260200101888581518110610f7157610f706112f9565b5b6020026020010182905282905250508280610f8b9061161b565b9350508180610f9990611663565b9250505b610e8c565b81851215610fb657610fb5868684610e2e565b5b83831215610fca57610fc9868486610e2e565b5b5050505b505050565b600081519050919050565b600082825260208201905092915050565b6000819050602082019050919050565b6000819050919050565b61101281610fff565b82525050565b60006110248383611009565b60208301905092915050565b6000602082019050919050565b600061104882610fd3565b6110528185610fde565b935061105d83610fef565b8060005b8381101561108e5781516110758882611018565b975061108083611030565b925050600181019050611061565b5085935050505092915050565b600060208201905081810360008301526110b5818461103d565b905092915050565b600080fd5b6110cb81610fff565b81146110d657600080fd5b50565b6000813590506110e8816110c2565b92915050565b600060208284031215611104576111036110bd565b5b6000611112848285016110d9565b91505092915050565b600081519050919050565b600082825260208201905092915050565b6000819050602082019050919050565b600073ffffffffffffffffffffffffffffffffffffffff82169050919050565b600061117282611147565b9050919050565b61118281611167565b82525050565b7f4e487b7100000000000000000000000000000000000000000000000000000000600052602160045260246000fd5b600281106111c8576111c7611188565b5b50565b60008190506111d9826111b7565b919050565b60006111e9826111cb565b9050919050565b6111f9816111de565b82525050565b6080820160008201516112156000850182611179565b5060208201516112286020850182611009565b50604082015161123b6040850182611009565b50606082015161124e60608501826111f0565b50505050565b600061126083836111ff565b60808301905092915050565b6000602082019050919050565b60006112848261111b565b61128e8185611126565b935061129983611137565b8060005b838110156112ca5781516112b18882611254565b97506112bc8361126c565b92505060018101905061129d565b5085935050505092915050565b600060208201905081810360008301526112f18184611279565b905092915050565b7f4e487b7100000000000000000000000000000000000000000000000000000000600052603260045260246000fd5b7f4e487b7100000000000000000000000000000000000000000000000000000000600052601160045260246000fd5b600061136282610fff565b91507fffffffffffffffffffffffffffffffffffffffffffffffffffffffffffffffff820361139457611393611328565b5b600182019050919050565b600082825260208201905092915050565b7f4f726465722050656e64696e6700000000000000000000000000000000000000600082015250565b60006113e6600d8361139f565b91506113f1826113b0565b602082019050919050565b60006020820190508181036000830152611415816113d9565b9050919050565b600061142782610fff565b915061143283610fff565b92508282101561144557611444611328565b5b828203905092915050565b6000819050919050565b600061146582611450565b915061147083611450565b9250827f8000000000000000000000000000000000000000000000000000000000000000018212600084121516156114ab576114aa611328565b5b827f7fffffffffffffffffffffffffffffffffffffffffffffffffffffffffffffff0182136000841216156114e3576114e2611328565b5b828203905092915050565b7f4e487b7100000000000000000000000000000000000000000000000000000000600052601260045260246000fd5b600061152882611450565b915061153383611450565b925082611543576115426114ee565b5b600160000383147f80000000000000000000000000000000000000000000000000000000000000008314161561157c5761157b611328565b5b828205905092915050565b600061159282611450565b915061159d83611450565b9250817f7fffffffffffffffffffffffffffffffffffffffffffffffffffffffffffffff038313600083121516156115d8576115d7611328565b5b817f80000000000000000000000000000000000000000000000000000000000000000383126000831216156116105761160f611328565b5b828201905092915050565b600061162682611450565b91507f7fffffffffffffffffffffffffffffffffffffffffffffffffffffffffffffff820361165857611657611328565b5b600182019050919050565b600061166e82611450565b91507f800000000000000000000000000000000000000000000000000000000000000082036116a05761169f611328565b5b60018203905091905056fea26469706673582212204cc559d5ade0cebf77fe3323c763c026d21c0b6f9936979cef3ff97fe4f40f0164736f6c634300080d0033",
					"opcodes": "PUSH1 0x80 PUSH1 0x40 MSTORE CALLVALUE DUP1 ISZERO PUSH2 0x10 JUMPI PUSH1 0x0 DUP1 REVERT JUMPDEST POP PUSH2 0x16E1 DUP1 PUSH2 0x20 PUSH1 0x0 CODECOPY PUSH1 0x0 RETURN INVALID PUSH1 0x80 PUSH1 0x40 MSTORE CALLVALUE DUP1 ISZERO PUSH2 0x10 JUMPI PUSH1 0x0 DUP1 REVERT JUMPDEST POP PUSH1 0x4 CALLDATASIZE LT PUSH2 0x88 JUMPI PUSH1 0x0 CALLDATALOAD PUSH1 0xE0 SHR DUP1 PUSH4 0x9703EF35 GT PUSH2 0x5B JUMPI DUP1 PUSH4 0x9703EF35 EQ PUSH2 0x101 JUMPI DUP1 PUSH4 0x9979EF45 EQ PUSH2 0x11D JUMPI DUP1 PUSH4 0xC5374AF2 EQ PUSH2 0x139 JUMPI DUP1 PUSH4 0xCE0CDC87 EQ PUSH2 0x157 JUMPI PUSH2 0x88 JUMP JUMPDEST DUP1 PUSH4 0x122DE8F2 EQ PUSH2 0x8D JUMPI DUP1 PUSH4 0x1628E0F5 EQ PUSH2 0xAB JUMPI DUP1 PUSH4 0x4471417F EQ PUSH2 0xC7 JUMPI DUP1 PUSH4 0x78C5B268 EQ PUSH2 0xE5 JUMPI JUMPDEST PUSH1 0x0 DUP1 REVERT JUMPDEST PUSH2 0x95 PUSH2 0x175 JUMP JUMPDEST PUSH1 0x40 MLOAD PUSH2 0xA2 SWAP2 SWAP1 PUSH2 0x109B JUMP JUMPDEST PUSH1 0x40 MLOAD DUP1 SWAP2 SUB SWAP1 RETURN JUMPDEST PUSH2 0xC5 PUSH1 0x4 DUP1 CALLDATASIZE SUB DUP2 ADD SWAP1 PUSH2 0xC0 SWAP2 SWAP1 PUSH2 0x10EE JUMP JUMPDEST PUSH2 0x29B JUMP JUMPDEST STOP JUMPDEST PUSH2 0xCF PUSH2 0x3B1 JUMP JUMPDEST PUSH1 0x40 MLOAD PUSH2 0xDC SWAP2 SWAP1 PUSH2 0x12D7 JUMP JUMPDEST PUSH1 0x40 MLOAD DUP1 SWAP2 SUB SWAP1 RETURN JUMPDEST PUSH2 0xFF PUSH1 0x4 DUP1 CALLDATASIZE SUB DUP2 ADD SWAP1 PUSH2 0xFA SWAP2 SWAP1 PUSH2 0x10EE JUMP JUMPDEST PUSH2 0x4B5 JUMP JUMPDEST STOP JUMPDEST PUSH2 0x11B PUSH1 0x4 DUP1 CALLDATASIZE SUB DUP2 ADD SWAP1 PUSH2 0x116 SWAP2 SWAP1 PUSH2 0x10EE JUMP JUMPDEST PUSH2 0x5C0 JUMP JUMPDEST STOP JUMPDEST PUSH2 0x137 PUSH1 0x4 DUP1 CALLDATASIZE SUB DUP2 ADD SWAP1 PUSH2 0x132 SWAP2 SWAP1 PUSH2 0x10EE JUMP JUMPDEST PUSH2 0x6D6 JUMP JUMPDEST STOP JUMPDEST PUSH2 0x141 PUSH2 0x7E1 JUMP JUMPDEST PUSH1 0x40 MLOAD PUSH2 0x14E SWAP2 SWAP1 PUSH2 0x12D7 JUMP JUMPDEST PUSH1 0x40 MLOAD DUP1 SWAP2 SUB SWAP1 RETURN JUMPDEST PUSH2 0x15F PUSH2 0x8E5 JUMP JUMPDEST PUSH1 0x40 MLOAD PUSH2 0x16C SWAP2 SWAP1 PUSH2 0x109B JUMP JUMPDEST PUSH1 0x40 MLOAD DUP1 SWAP2 SUB SWAP1 RETURN JUMPDEST PUSH1 0x60 PUSH2 0x17F PUSH2 0xA0B JUMP JUMPDEST PUSH1 0x0 JUMPDEST PUSH1 0x1 DUP1 SLOAD SWAP1 POP DUP2 LT ISZERO PUSH2 0x244 JUMPI CALLER PUSH20 0xFFFFFFFFFFFFFFFFFFFFFFFFFFFFFFFFFFFFFFFF AND PUSH1 0x1 DUP3 DUP2 SLOAD DUP2 LT PUSH2 0x1BA JUMPI PUSH2 0x1B9 PUSH2 0x12F9 JUMP JUMPDEST JUMPDEST SWAP1 PUSH1 0x0 MSTORE PUSH1 0x20 PUSH1 0x0 KECCAK256 SWAP1 PUSH1 0x4 MUL ADD PUSH1 0x0 ADD PUSH1 0x0 SWAP1 SLOAD SWAP1 PUSH2 0x100 EXP SWAP1 DIV PUSH20 0xFFFFFFFFFFFFFFFFFFFFFFFFFFFFFFFFFFFFFFFF AND PUSH20 0xFFFFFFFFFFFFFFFFFFFFFFFFFFFFFFFFFFFFFFFF AND SUB PUSH2 0x231 JUMPI PUSH1 0x2 DUP2 SWAP1 DUP1 PUSH1 0x1 DUP2 SLOAD ADD DUP1 DUP3 SSTORE DUP1 SWAP2 POP POP PUSH1 0x1 SWAP1 SUB SWAP1 PUSH1 0x0 MSTORE PUSH1 0x20 PUSH1 0x0 KECCAK256 ADD PUSH1 0x0 SWAP1 SWAP2 SWAP1 SWAP2 SWAP1 SWAP2 POP SSTORE JUMPDEST DUP1 DUP1 PUSH2 0x23C SWAP1 PUSH2 0x1357 JUMP JUMPDEST SWAP2 POP POP PUSH2 0x182 JUMP JUMPDEST POP PUSH1 0x2 DUP1 SLOAD DUP1 PUSH1 0x20 MUL PUSH1 0x20 ADD PUSH1 0x40 MLOAD SWAP1 DUP2 ADD PUSH1 0x40 MSTORE DUP1 SWAP3 SWAP2 SWAP1 DUP2 DUP2 MSTORE PUSH1 0x20 ADD DUP3 DUP1 SLOAD DUP1 ISZERO PUSH2 0x291 JUMPI PUSH1 0x20 MUL DUP3 ADD SWAP2 SWAP1 PUSH1 0x0 MSTORE PUSH1 0x20 PUSH1 0x0 KECCAK256 SWAP1 JUMPDEST DUP2 SLOAD DUP2 MSTORE PUSH1 0x20 ADD SWAP1 PUSH1 0x1 ADD SWAP1 DUP1 DUP4 GT PUSH2 0x27D JUMPI JUMPDEST POP POP POP POP POP SWAP1 POP SWAP1 JUMP JUMPDEST PUSH1 0x1 DUP2 DUP2 SLOAD DUP2 LT PUSH2 0x2AF JUMPI PUSH2 0x2AE PUSH2 0x12F9 JUMP JUMPDEST JUMPDEST SWAP1 PUSH1 0x0 MSTORE PUSH1 0x20 PUSH1 0x0 KECCAK256 SWAP1 PUSH1 0x4 MUL ADD PUSH1 0x3 ADD PUSH1 0x0 SWAP1 SLOAD SWAP1 PUSH2 0x100 EXP SWAP1 DIV PUSH1 0xFF AND PUSH1 0x0 PUSH1 0x1 DUP2 GT ISZERO PUSH2 0x2E2 JUMPI PUSH2 0x2E1 PUSH2 0x1188 JUMP JUMPDEST JUMPDEST DUP2 PUSH1 0x1 DUP2 GT ISZERO PUSH2 0x2F5 JUMPI PUSH2 0x2F4 PUSH2 0x1188 JUMP JUMPDEST JUMPDEST EQ PUSH2 0x335 JUMPI PUSH1 0x40 MLOAD PUSH32 0x8C379A000000000000000000000000000000000000000000000000000000000 DUP2 MSTORE PUSH1 0x4 ADD PUSH2 0x32C SWAP1 PUSH2 0x13FC JUMP JUMPDEST PUSH1 0x40 MLOAD DUP1 SWAP2 SUB SWAP1 REVERT JUMPDEST PUSH1 0x1 DUP3 DUP2 SLOAD DUP2 LT PUSH2 0x349 JUMPI PUSH2 0x348 PUSH2 0x12F9 JUMP JUMPDEST JUMPDEST SWAP1 PUSH1 0x0 MSTORE PUSH1 0x20 PUSH1 0x0 KECCAK256 SWAP1 PUSH1 0x4 MUL ADD PUSH1 0x0 DUP1 DUP3 ADD PUSH1 0x0 PUSH2 0x100 EXP DUP2 SLOAD SWAP1 PUSH20 0xFFFFFFFFFFFFFFFFFFFFFFFFFFFFFFFFFFFFFFFF MUL NOT AND SWAP1 SSTORE PUSH1 0x1 DUP3 ADD PUSH1 0x0 SWAP1 SSTORE PUSH1 0x2 DUP3 ADD PUSH1 0x0 SWAP1 SSTORE PUSH1 0x3 DUP3 ADD PUSH1 0x0 PUSH2 0x100 EXP DUP2 SLOAD SWAP1 PUSH1 0xFF MUL NOT AND SWAP1 SSTORE POP POP PUSH2 0x3AD PUSH2 0xA53 JUMP JUMPDEST POP POP JUMP JUMPDEST PUSH1 0x60 PUSH1 0x0 DUP1 SLOAD DUP1 PUSH1 0x20 MUL PUSH1 0x20 ADD PUSH1 0x40 MLOAD SWAP1 DUP2 ADD PUSH1 0x40 MSTORE DUP1 SWAP3 SWAP2 SWAP1 DUP2 DUP2 MSTORE PUSH1 0x20 ADD PUSH1 0x0 SWAP1 JUMPDEST DUP3 DUP3 LT ISZERO PUSH2 0x4AC JUMPI DUP4 DUP3 SWAP1 PUSH1 0x0 MSTORE PUSH1 0x20 PUSH1 0x0 KECCAK256 SWAP1 PUSH1 0x4 MUL ADD PUSH1 0x40 MLOAD DUP1 PUSH1 0x80 ADD PUSH1 0x40 MSTORE SWAP1 DUP2 PUSH1 0x0 DUP3 ADD PUSH1 0x0 SWAP1 SLOAD SWAP1 PUSH2 0x100 EXP SWAP1 DIV PUSH20 0xFFFFFFFFFFFFFFFFFFFFFFFFFFFFFFFFFFFFFFFF AND PUSH20 0xFFFFFFFFFFFFFFFFFFFFFFFFFFFFFFFFFFFFFFFF AND PUSH20 0xFFFFFFFFFFFFFFFFFFFFFFFFFFFFFFFFFFFFFFFF AND DUP2 MSTORE PUSH1 0x20 ADD PUSH1 0x1 DUP3 ADD SLOAD DUP2 MSTORE PUSH1 0x20 ADD PUSH1 0x2 DUP3 ADD SLOAD DUP2 MSTORE PUSH1 0x20 ADD PUSH1 0x3 DUP3 ADD PUSH1 0x0 SWAP1 SLOAD SWAP1 PUSH2 0x100 EXP SWAP1 DIV PUSH1 0xFF AND PUSH1 0x1 DUP2 GT ISZERO PUSH2 0x487 JUMPI PUSH2 0x486 PUSH2 0x1188 JUMP JUMPDEST JUMPDEST PUSH1 0x1 DUP2 GT ISZERO PUSH2 0x499 JUMPI PUSH2 0x498 PUSH2 0x1188 JUMP JUMPDEST JUMPDEST DUP2 MSTORE POP POP DUP2 MSTORE PUSH1 0x20 ADD SWAP1 PUSH1 0x1 ADD SWAP1 PUSH2 0x3D5 JUMP JUMPDEST POP POP POP POP SWAP1 POP SWAP1 JUMP JUMPDEST PUSH1 0x0 PUSH1 0x40 MLOAD DUP1 PUSH1 0x80 ADD PUSH1 0x40 MSTORE DUP1 CALLER PUSH20 0xFFFFFFFFFFFFFFFFFFFFFFFFFFFFFFFFFFFFFFFF AND DUP2 MSTORE PUSH1 0x20 ADD DUP4 DUP2 MSTORE PUSH1 0x20 ADD TIMESTAMP DUP2 MSTORE PUSH1 0x20 ADD PUSH1 0x0 PUSH1 0x1 DUP2 GT ISZERO PUSH2 0x4FE JUMPI PUSH2 0x4FD PUSH2 0x1188 JUMP JUMPDEST JUMPDEST DUP2 MSTORE POP SWAP1 POP PUSH1 0x1 DUP2 SWAP1 DUP1 PUSH1 0x1 DUP2 SLOAD ADD DUP1 DUP3 SSTORE DUP1 SWAP2 POP POP PUSH1 0x1 SWAP1 SUB SWAP1 PUSH1 0x0 MSTORE PUSH1 0x20 PUSH1 0x0 KECCAK256 SWAP1 PUSH1 0x4 MUL ADD PUSH1 0x0 SWAP1 SWAP2 SWAP1 SWAP2 SWAP1 SWAP2 POP PUSH1 0x0 DUP3 ADD MLOAD DUP2 PUSH1 0x0 ADD PUSH1 0x0 PUSH2 0x100 EXP DUP2 SLOAD DUP2 PUSH20 0xFFFFFFFFFFFFFFFFFFFFFFFFFFFFFFFFFFFFFFFF MUL NOT AND SWAP1 DUP4 PUSH20 0xFFFFFFFFFFFFFFFFFFFFFFFFFFFFFFFFFFFFFFFF AND MUL OR SWAP1 SSTORE POP PUSH1 0x20 DUP3 ADD MLOAD DUP2 PUSH1 0x1 ADD SSTORE PUSH1 0x40 DUP3 ADD MLOAD DUP2 PUSH1 0x2 ADD SSTORE PUSH1 0x60 DUP3 ADD MLOAD DUP2 PUSH1 0x3 ADD PUSH1 0x0 PUSH2 0x100 EXP DUP2 SLOAD DUP2 PUSH1 0xFF MUL NOT AND SWAP1 DUP4 PUSH1 0x1 DUP2 GT ISZERO PUSH2 0x5B5 JUMPI PUSH2 0x5B4 PUSH2 0x1188 JUMP JUMPDEST JUMPDEST MUL OR SWAP1 SSTORE POP POP POP POP POP JUMP JUMPDEST PUSH1 0x0 DUP2 DUP2 SLOAD DUP2 LT PUSH2 0x5D4 JUMPI PUSH2 0x5D3 PUSH2 0x12F9 JUMP JUMPDEST JUMPDEST SWAP1 PUSH1 0x0 MSTORE PUSH1 0x20 PUSH1 0x0 KECCAK256 SWAP1 PUSH1 0x4 MUL ADD PUSH1 0x3 ADD PUSH1 0x0 SWAP1 SLOAD SWAP1 PUSH2 0x100 EXP SWAP1 DIV PUSH1 0xFF AND PUSH1 0x0 PUSH1 0x1 DUP2 GT ISZERO PUSH2 0x607 JUMPI PUSH2 0x606 PUSH2 0x1188 JUMP JUMPDEST JUMPDEST DUP2 PUSH1 0x1 DUP2 GT ISZERO PUSH2 0x61A JUMPI PUSH2 0x619 PUSH2 0x1188 JUMP JUMPDEST JUMPDEST EQ PUSH2 0x65A JUMPI PUSH1 0x40 MLOAD PUSH32 0x8C379A000000000000000000000000000000000000000000000000000000000 DUP2 MSTORE PUSH1 0x4 ADD PUSH2 0x651 SWAP1 PUSH2 0x13FC JUMP JUMPDEST PUSH1 0x40 MLOAD DUP1 SWAP2 SUB SWAP1 REVERT JUMPDEST PUSH1 0x0 DUP3 DUP2 SLOAD DUP2 LT PUSH2 0x66E JUMPI PUSH2 0x66D PUSH2 0x12F9 JUMP JUMPDEST JUMPDEST SWAP1 PUSH1 0x0 MSTORE PUSH1 0x20 PUSH1 0x0 KECCAK256 SWAP1 PUSH1 0x4 MUL ADD PUSH1 0x0 DUP1 DUP3 ADD PUSH1 0x0 PUSH2 0x100 EXP DUP2 SLOAD SWAP1 PUSH20 0xFFFFFFFFFFFFFFFFFFFFFFFFFFFFFFFFFFFFFFFF MUL NOT AND SWAP1 SSTORE PUSH1 0x1 DUP3 ADD PUSH1 0x0 SWAP1 SSTORE PUSH1 0x2 DUP3 ADD PUSH1 0x0 SWAP1 SSTORE PUSH1 0x3 DUP3 ADD PUSH1 0x0 PUSH2 0x100 EXP DUP2 SLOAD SWAP1 PUSH1 0xFF MUL NOT AND SWAP1 SSTORE POP POP PUSH2 0x6D2 PUSH2 0xB6E JUMP JUMPDEST POP POP JUMP JUMPDEST PUSH1 0x0 PUSH1 0x40 MLOAD DUP1 PUSH1 0x80 ADD PUSH1 0x40 MSTORE DUP1 CALLER PUSH20 0xFFFFFFFFFFFFFFFFFFFFFFFFFFFFFFFFFFFFFFFF AND DUP2 MSTORE PUSH1 0x20 ADD DUP4 DUP2 MSTORE PUSH1 0x20 ADD TIMESTAMP DUP2 MSTORE PUSH1 0x20 ADD PUSH1 0x0 PUSH1 0x1 DUP2 GT ISZERO PUSH2 0x71F JUMPI PUSH2 0x71E PUSH2 0x1188 JUMP JUMPDEST JUMPDEST DUP2 MSTORE POP SWAP1 POP PUSH1 0x0 DUP2 SWAP1 DUP1 PUSH1 0x1 DUP2 SLOAD ADD DUP1 DUP3 SSTORE DUP1 SWAP2 POP POP PUSH1 0x1 SWAP1 SUB SWAP1 PUSH1 0x0 MSTORE PUSH1 0x20 PUSH1 0x0 KECCAK256 SWAP1 PUSH1 0x4 MUL ADD PUSH1 0x0 SWAP1 SWAP2 SWAP1 SWAP2 SWAP1 SWAP2 POP PUSH1 0x0 DUP3 ADD MLOAD DUP2 PUSH1 0x0 ADD PUSH1 0x0 PUSH2 0x100 EXP DUP2 SLOAD DUP2 PUSH20 0xFFFFFFFFFFFFFFFFFFFFFFFFFFFFFFFFFFFFFFFF MUL NOT AND SWAP1 DUP4 PUSH20 0xFFFFFFFFFFFFFFFFFFFFFFFFFFFFFFFFFFFFFFFF AND MUL OR SWAP1 SSTORE POP PUSH1 0x20 DUP3 ADD MLOAD DUP2 PUSH1 0x1 ADD SSTORE PUSH1 0x40 DUP3 ADD MLOAD DUP2 PUSH1 0x2 ADD SSTORE PUSH1 0x60 DUP3 ADD MLOAD DUP2 PUSH1 0x3 ADD PUSH1 0x0 PUSH2 0x100 EXP DUP2 SLOAD DUP2 PUSH1 0xFF MUL NOT AND SWAP1 DUP4 PUSH1 0x1 DUP2 GT ISZERO PUSH2 0x7D6 JUMPI PUSH2 0x7D5 PUSH2 0x1188 JUMP JUMPDEST JUMPDEST MUL OR SWAP1 SSTORE POP POP POP POP POP JUMP JUMPDEST PUSH1 0x60 PUSH1 0x1 DUP1 SLOAD DUP1 PUSH1 0x20 MUL PUSH1 0x20 ADD PUSH1 0x40 MLOAD SWAP1 DUP2 ADD PUSH1 0x40 MSTORE DUP1 SWAP3 SWAP2 SWAP1 DUP2 DUP2 MSTORE PUSH1 0x20 ADD PUSH1 0x0 SWAP1 JUMPDEST DUP3 DUP3 LT ISZERO PUSH2 0x8DC JUMPI DUP4 DUP3 SWAP1 PUSH1 0x0 MSTORE PUSH1 0x20 PUSH1 0x0 KECCAK256 SWAP1 PUSH1 0x4 MUL ADD PUSH1 0x40 MLOAD DUP1 PUSH1 0x80 ADD PUSH1 0x40 MSTORE SWAP1 DUP2 PUSH1 0x0 DUP3 ADD PUSH1 0x0 SWAP1 SLOAD SWAP1 PUSH2 0x100 EXP SWAP1 DIV PUSH20 0xFFFFFFFFFFFFFFFFFFFFFFFFFFFFFFFFFFFFFFFF AND PUSH20 0xFFFFFFFFFFFFFFFFFFFFFFFFFFFFFFFFFFFFFFFF AND PUSH20 0xFFFFFFFFFFFFFFFFFFFFFFFFFFFFFFFFFFFFFFFF AND DUP2 MSTORE PUSH1 0x20 ADD PUSH1 0x1 DUP3 ADD SLOAD DUP2 MSTORE PUSH1 0x20 ADD PUSH1 0x2 DUP3 ADD SLOAD DUP2 MSTORE PUSH1 0x20 ADD PUSH1 0x3 DUP3 ADD PUSH1 0x0 SWAP1 SLOAD SWAP1 PUSH2 0x100 EXP SWAP1 DIV PUSH1 0xFF AND PUSH1 0x1 DUP2 GT ISZERO PUSH2 0x8B7 JUMPI PUSH2 0x8B6 PUSH2 0x1188 JUMP JUMPDEST JUMPDEST PUSH1 0x1 DUP2 GT ISZERO PUSH2 0x8C9 JUMPI PUSH2 0x8C8 PUSH2 0x1188 JUMP JUMPDEST JUMPDEST DUP2 MSTORE POP POP DUP2 MSTORE PUSH1 0x20 ADD SWAP1 PUSH1 0x1 ADD SWAP1 PUSH2 0x805 JUMP JUMPDEST POP POP POP POP SWAP1 POP SWAP1 JUMP JUMPDEST PUSH1 0x60 PUSH2 0x8EF PUSH2 0xA0B JUMP JUMPDEST PUSH1 0x0 JUMPDEST PUSH1 0x0 DUP1 SLOAD SWAP1 POP DUP2 LT ISZERO PUSH2 0x9B4 JUMPI CALLER PUSH20 0xFFFFFFFFFFFFFFFFFFFFFFFFFFFFFFFFFFFFFFFF AND PUSH1 0x0 DUP3 DUP2 SLOAD DUP2 LT PUSH2 0x92A JUMPI PUSH2 0x929 PUSH2 0x12F9 JUMP JUMPDEST JUMPDEST SWAP1 PUSH1 0x0 MSTORE PUSH1 0x20 PUSH1 0x0 KECCAK256 SWAP1 PUSH1 0x4 MUL ADD PUSH1 0x0 ADD PUSH1 0x0 SWAP1 SLOAD SWAP1 PUSH2 0x100 EXP SWAP1 DIV PUSH20 0xFFFFFFFFFFFFFFFFFFFFFFFFFFFFFFFFFFFFFFFF AND PUSH20 0xFFFFFFFFFFFFFFFFFFFFFFFFFFFFFFFFFFFFFFFF AND SUB PUSH2 0x9A1 JUMPI PUSH1 0x2 DUP2 SWAP1 DUP1 PUSH1 0x1 DUP2 SLOAD ADD DUP1 DUP3 SSTORE DUP1 SWAP2 POP POP PUSH1 0x1 SWAP1 SUB SWAP1 PUSH1 0x0 MSTORE PUSH1 0x20 PUSH1 0x0 KECCAK256 ADD PUSH1 0x0 SWAP1 SWAP2 SWAP1 SWAP2 SWAP1 SWAP2 POP SSTORE JUMPDEST DUP1 DUP1 PUSH2 0x9AC SWAP1 PUSH2 0x1357 JUMP JUMPDEST SWAP2 POP POP PUSH2 0x8F2 JUMP JUMPDEST POP PUSH1 0x2 DUP1 SLOAD DUP1 PUSH1 0x20 MUL PUSH1 0x20 ADD PUSH1 0x40 MLOAD SWAP1 DUP2 ADD PUSH1 0x40 MSTORE DUP1 SWAP3 SWAP2 SWAP1 DUP2 DUP2 MSTORE PUSH1 0x20 ADD DUP3 DUP1 SLOAD DUP1 ISZERO PUSH2 0xA01 JUMPI PUSH1 0x20 MUL DUP3 ADD SWAP2 SWAP1 PUSH1 0x0 MSTORE PUSH1 0x20 PUSH1 0x0 KECCAK256 SWAP1 JUMPDEST DUP2 SLOAD DUP2 MSTORE PUSH1 0x20 ADD SWAP1 PUSH1 0x1 ADD SWAP1 DUP1 DUP4 GT PUSH2 0x9ED JUMPI JUMPDEST POP POP POP POP POP SWAP1 POP SWAP1 JUMP JUMPDEST PUSH1 0x0 JUMPDEST PUSH1 0x2 DUP1 SLOAD SWAP1 POP DUP2 LT ISZERO PUSH2 0xA50 JUMPI PUSH1 0x2 DUP2 DUP2 SLOAD DUP2 LT PUSH2 0xA2F JUMPI PUSH2 0xA2E PUSH2 0x12F9 JUMP JUMPDEST JUMPDEST SWAP1 PUSH1 0x0 MSTORE PUSH1 0x20 PUSH1 0x0 KECCAK256 ADD PUSH1 0x0 SWAP1 SSTORE DUP1 DUP1 PUSH2 0xA48 SWAP1 PUSH2 0x1357 JUMP JUMPDEST SWAP2 POP POP PUSH2 0xA0E JUMP JUMPDEST POP JUMP JUMPDEST PUSH2 0xB6C PUSH1 0x0 DUP1 SLOAD DUP1 PUSH1 0x20 MUL PUSH1 0x20 ADD PUSH1 0x40 MLOAD SWAP1 DUP2 ADD PUSH1 0x40 MSTORE DUP1 SWAP3 SWAP2 SWAP1 DUP2 DUP2 MSTORE PUSH1 0x20 ADD PUSH1 0x0 SWAP1 JUMPDEST DUP3 DUP3 LT ISZERO PUSH2 0xB4F JUMPI DUP4 DUP3 SWAP1 PUSH1 0x0 MSTORE PUSH1 0x20 PUSH1 0x0 KECCAK256 SWAP1 PUSH1 0x4 MUL ADD PUSH1 0x40 MLOAD DUP1 PUSH1 0x80 ADD PUSH1 0x40 MSTORE SWAP1 DUP2 PUSH1 0x0 DUP3 ADD PUSH1 0x0 SWAP1 SLOAD SWAP1 PUSH2 0x100 EXP SWAP1 DIV PUSH20 0xFFFFFFFFFFFFFFFFFFFFFFFFFFFFFFFFFFFFFFFF AND PUSH20 0xFFFFFFFFFFFFFFFFFFFFFFFFFFFFFFFFFFFFFFFF AND PUSH20 0xFFFFFFFFFFFFFFFFFFFFFFFFFFFFFFFFFFFFFFFF AND DUP2 MSTORE PUSH1 0x20 ADD PUSH1 0x1 DUP3 ADD SLOAD DUP2 MSTORE PUSH1 0x20 ADD PUSH1 0x2 DUP3 ADD SLOAD DUP2 MSTORE PUSH1 0x20 ADD PUSH1 0x3 DUP3 ADD PUSH1 0x0 SWAP1 SLOAD SWAP1 PUSH2 0x100 EXP SWAP1 DIV PUSH1 0xFF AND PUSH1 0x1 DUP2 GT ISZERO PUSH2 0xB2A JUMPI PUSH2 0xB29 PUSH2 0x1188 JUMP JUMPDEST JUMPDEST PUSH1 0x1 DUP2 GT ISZERO PUSH2 0xB3C JUMPI PUSH2 0xB3B PUSH2 0x1188 JUMP JUMPDEST JUMPDEST DUP2 MSTORE POP POP DUP2 MSTORE PUSH1 0x20 ADD SWAP1 PUSH1 0x1 ADD SWAP1 PUSH2 0xA78 JUMP JUMPDEST POP POP POP POP PUSH1 0x0 PUSH1 0x1 PUSH1 0x0 DUP1 SLOAD SWAP1 POP PUSH2 0xB67 SWAP2 SWAP1 PUSH2 0x141C JUMP JUMPDEST PUSH2 0xC89 JUMP JUMPDEST JUMP JUMPDEST PUSH2 0xC87 PUSH1 0x0 DUP1 SLOAD DUP1 PUSH1 0x20 MUL PUSH1 0x20 ADD PUSH1 0x40 MLOAD SWAP1 DUP2 ADD PUSH1 0x40 MSTORE DUP1 SWAP3 SWAP2 SWAP1 DUP2 DUP2 MSTORE PUSH1 0x20 ADD PUSH1 0x0 SWAP1 JUMPDEST DUP3 DUP3 LT ISZERO PUSH2 0xC6A JUMPI DUP4 DUP3 SWAP1 PUSH1 0x0 MSTORE PUSH1 0x20 PUSH1 0x0 KECCAK256 SWAP1 PUSH1 0x4 MUL ADD PUSH1 0x40 MLOAD DUP1 PUSH1 0x80 ADD PUSH1 0x40 MSTORE SWAP1 DUP2 PUSH1 0x0 DUP3 ADD PUSH1 0x0 SWAP1 SLOAD SWAP1 PUSH2 0x100 EXP SWAP1 DIV PUSH20 0xFFFFFFFFFFFFFFFFFFFFFFFFFFFFFFFFFFFFFFFF AND PUSH20 0xFFFFFFFFFFFFFFFFFFFFFFFFFFFFFFFFFFFFFFFF AND PUSH20 0xFFFFFFFFFFFFFFFFFFFFFFFFFFFFFFFFFFFFFFFF AND DUP2 MSTORE PUSH1 0x20 ADD PUSH1 0x1 DUP3 ADD SLOAD DUP2 MSTORE PUSH1 0x20 ADD PUSH1 0x2 DUP3 ADD SLOAD DUP2 MSTORE PUSH1 0x20 ADD PUSH1 0x3 DUP3 ADD PUSH1 0x0 SWAP1 SLOAD SWAP1 PUSH2 0x100 EXP SWAP1 DIV PUSH1 0xFF AND PUSH1 0x1 DUP2 GT ISZERO PUSH2 0xC45 JUMPI PUSH2 0xC44 PUSH2 0x1188 JUMP JUMPDEST JUMPDEST PUSH1 0x1 DUP2 GT ISZERO PUSH2 0xC57 JUMPI PUSH2 0xC56 PUSH2 0x1188 JUMP JUMPDEST JUMPDEST DUP2 MSTORE POP POP DUP2 MSTORE PUSH1 0x20 ADD SWAP1 PUSH1 0x1 ADD SWAP1 PUSH2 0xB93 JUMP JUMPDEST POP POP POP POP PUSH1 0x0 PUSH1 0x1 PUSH1 0x0 DUP1 SLOAD SWAP1 POP PUSH2 0xC82 SWAP2 SWAP1 PUSH2 0x141C JUMP JUMPDEST PUSH2 0xE2E JUMP JUMPDEST JUMP JUMPDEST PUSH1 0x0 DUP3 SWAP1 POP PUSH1 0x0 DUP3 SWAP1 POP DUP1 DUP3 SUB PUSH2 0xCA1 JUMPI POP POP PUSH2 0xE29 JUMP JUMPDEST PUSH1 0x0 DUP6 PUSH1 0x2 DUP7 DUP7 PUSH2 0xCB2 SWAP2 SWAP1 PUSH2 0x145A JUMP JUMPDEST PUSH2 0xCBC SWAP2 SWAP1 PUSH2 0x151D JUMP JUMPDEST DUP7 PUSH2 0xCC7 SWAP2 SWAP1 PUSH2 0x1587 JUMP JUMPDEST DUP2 MLOAD DUP2 LT PUSH2 0xCD8 JUMPI PUSH2 0xCD7 PUSH2 0x12F9 JUMP JUMPDEST JUMPDEST PUSH1 0x20 MUL PUSH1 0x20 ADD ADD MLOAD PUSH1 0x40 ADD MLOAD SWAP1 POP JUMPDEST DUP2 DUP4 SGT PUSH2 0xDFD JUMPI JUMPDEST DUP1 DUP7 DUP5 DUP2 MLOAD DUP2 LT PUSH2 0xD03 JUMPI PUSH2 0xD02 PUSH2 0x12F9 JUMP JUMPDEST JUMPDEST PUSH1 0x20 MUL PUSH1 0x20 ADD ADD MLOAD PUSH1 0x40 ADD MLOAD GT ISZERO PUSH2 0xD28 JUMPI DUP3 DUP1 PUSH2 0xD20 SWAP1 PUSH2 0x161B JUMP JUMPDEST SWAP4 POP POP PUSH2 0xCEF JUMP JUMPDEST JUMPDEST DUP6 DUP3 DUP2 MLOAD DUP2 LT PUSH2 0xD3C JUMPI PUSH2 0xD3B PUSH2 0x12F9 JUMP JUMPDEST JUMPDEST PUSH1 0x20 MUL PUSH1 0x20 ADD ADD MLOAD PUSH1 0x40 ADD MLOAD DUP2 GT ISZERO PUSH2 0xD62 JUMPI DUP2 DUP1 PUSH2 0xD5A SWAP1 PUSH2 0x1663 JUMP JUMPDEST SWAP3 POP POP PUSH2 0xD29 JUMP JUMPDEST DUP2 DUP4 SGT PUSH2 0xDF8 JUMPI DUP6 DUP3 DUP2 MLOAD DUP2 LT PUSH2 0xD7C JUMPI PUSH2 0xD7B PUSH2 0x12F9 JUMP JUMPDEST JUMPDEST PUSH1 0x20 MUL PUSH1 0x20 ADD ADD MLOAD DUP7 DUP5 DUP2 MLOAD DUP2 LT PUSH2 0xD97 JUMPI PUSH2 0xD96 PUSH2 0x12F9 JUMP JUMPDEST JUMPDEST PUSH1 0x20 MUL PUSH1 0x20 ADD ADD MLOAD DUP8 DUP6 DUP2 MLOAD DUP2 LT PUSH2 0xDB2 JUMPI PUSH2 0xDB1 PUSH2 0x12F9 JUMP JUMPDEST JUMPDEST PUSH1 0x20 MUL PUSH1 0x20 ADD ADD DUP9 DUP6 DUP2 MLOAD DUP2 LT PUSH2 0xDCC JUMPI PUSH2 0xDCB PUSH2 0x12F9 JUMP JUMPDEST JUMPDEST PUSH1 0x20 MUL PUSH1 0x20 ADD ADD DUP3 SWAP1 MSTORE DUP3 SWAP1 MSTORE POP POP DUP3 DUP1 PUSH2 0xDE6 SWAP1 PUSH2 0x161B JUMP JUMPDEST SWAP4 POP POP DUP2 DUP1 PUSH2 0xDF4 SWAP1 PUSH2 0x1663 JUMP JUMPDEST SWAP3 POP POP JUMPDEST PUSH2 0xCE7 JUMP JUMPDEST DUP2 DUP6 SLT ISZERO PUSH2 0xE11 JUMPI PUSH2 0xE10 DUP7 DUP7 DUP5 PUSH2 0xC89 JUMP JUMPDEST JUMPDEST DUP4 DUP4 SLT ISZERO PUSH2 0xE25 JUMPI PUSH2 0xE24 DUP7 DUP5 DUP7 PUSH2 0xC89 JUMP JUMPDEST JUMPDEST POP POP POP JUMPDEST POP POP POP JUMP JUMPDEST PUSH1 0x0 DUP3 SWAP1 POP PUSH1 0x0 DUP3 SWAP1 POP DUP1 DUP3 SUB PUSH2 0xE46 JUMPI POP POP PUSH2 0xFCE JUMP JUMPDEST PUSH1 0x0 DUP6 PUSH1 0x2 DUP7 DUP7 PUSH2 0xE57 SWAP2 SWAP1 PUSH2 0x145A JUMP JUMPDEST PUSH2 0xE61 SWAP2 SWAP1 PUSH2 0x151D JUMP JUMPDEST DUP7 PUSH2 0xE6C SWAP2 SWAP1 PUSH2 0x1587 JUMP JUMPDEST DUP2 MLOAD DUP2 LT PUSH2 0xE7D JUMPI PUSH2 0xE7C PUSH2 0x12F9 JUMP JUMPDEST JUMPDEST PUSH1 0x20 MUL PUSH1 0x20 ADD ADD MLOAD PUSH1 0x40 ADD MLOAD SWAP1 POP JUMPDEST DUP2 DUP4 SGT PUSH2 0xFA2 JUMPI JUMPDEST DUP1 DUP7 DUP5 DUP2 MLOAD DUP2 LT PUSH2 0xEA8 JUMPI PUSH2 0xEA7 PUSH2 0x12F9 JUMP JUMPDEST JUMPDEST PUSH1 0x20 MUL PUSH1 0x20 ADD ADD MLOAD PUSH1 0x40 ADD MLOAD LT ISZERO PUSH2 0xECD JUMPI DUP3 DUP1 PUSH2 0xEC5 SWAP1 PUSH2 0x161B JUMP JUMPDEST SWAP4 POP POP PUSH2 0xE94 JUMP JUMPDEST JUMPDEST DUP6 DUP3 DUP2 MLOAD DUP2 LT PUSH2 0xEE1 JUMPI PUSH2 0xEE0 PUSH2 0x12F9 JUMP JUMPDEST JUMPDEST PUSH1 0x20 MUL PUSH1 0x20 ADD ADD MLOAD PUSH1 0x40 ADD MLOAD DUP2 LT ISZERO PUSH2 0xF07 JUMPI DUP2 DUP1 PUSH2 0xEFF SWAP1 PUSH2 0x1663 JUMP JUMPDEST SWAP3 POP POP PUSH2 0xECE JUMP JUMPDEST DUP2 DUP4 SGT PUSH2 0xF9D JUMPI DUP6 DUP3 DUP2 MLOAD DUP2 LT PUSH2 0xF21 JUMPI PUSH2 0xF20 PUSH2 0x12F9 JUMP JUMPDEST JUMPDEST PUSH1 0x20 MUL PUSH1 0x20 ADD ADD MLOAD DUP7 DUP5 DUP2 MLOAD DUP2 LT PUSH2 0xF3C JUMPI PUSH2 0xF3B PUSH2 0x12F9 JUMP JUMPDEST JUMPDEST PUSH1 0x20 MUL PUSH1 0x20 ADD ADD MLOAD DUP8 DUP6 DUP2 MLOAD DUP2 LT PUSH2 0xF57 JUMPI PUSH2 0xF56 PUSH2 0x12F9 JUMP JUMPDEST JUMPDEST PUSH1 0x20 MUL PUSH1 0x20 ADD ADD DUP9 DUP6 DUP2 MLOAD DUP2 LT PUSH2 0xF71 JUMPI PUSH2 0xF70 PUSH2 0x12F9 JUMP JUMPDEST JUMPDEST PUSH1 0x20 MUL PUSH1 0x20 ADD ADD DUP3 SWAP1 MSTORE DUP3 SWAP1 MSTORE POP POP DUP3 DUP1 PUSH2 0xF8B SWAP1 PUSH2 0x161B JUMP JUMPDEST SWAP4 POP POP DUP2 DUP1 PUSH2 0xF99 SWAP1 PUSH2 0x1663 JUMP JUMPDEST SWAP3 POP POP JUMPDEST PUSH2 0xE8C JUMP JUMPDEST DUP2 DUP6 SLT ISZERO PUSH2 0xFB6 JUMPI PUSH2 0xFB5 DUP7 DUP7 DUP5 PUSH2 0xE2E JUMP JUMPDEST JUMPDEST DUP4 DUP4 SLT ISZERO PUSH2 0xFCA JUMPI PUSH2 0xFC9 DUP7 DUP5 DUP7 PUSH2 0xE2E JUMP JUMPDEST JUMPDEST POP POP POP JUMPDEST POP POP POP JUMP JUMPDEST PUSH1 0x0 DUP2 MLOAD SWAP1 POP SWAP2 SWAP1 POP JUMP JUMPDEST PUSH1 0x0 DUP3 DUP3 MSTORE PUSH1 0x20 DUP3 ADD SWAP1 POP SWAP3 SWAP2 POP POP JUMP JUMPDEST PUSH1 0x0 DUP2 SWAP1 POP PUSH1 0x20 DUP3 ADD SWAP1 POP SWAP2 SWAP1 POP JUMP JUMPDEST PUSH1 0x0 DUP2 SWAP1 POP SWAP2 SWAP1 POP JUMP JUMPDEST PUSH2 0x1012 DUP2 PUSH2 0xFFF JUMP JUMPDEST DUP3 MSTORE POP POP JUMP JUMPDEST PUSH1 0x0 PUSH2 0x1024 DUP4 DUP4 PUSH2 0x1009 JUMP JUMPDEST PUSH1 0x20 DUP4 ADD SWAP1 POP SWAP3 SWAP2 POP POP JUMP JUMPDEST PUSH1 0x0 PUSH1 0x20 DUP3 ADD SWAP1 POP SWAP2 SWAP1 POP JUMP JUMPDEST PUSH1 0x0 PUSH2 0x1048 DUP3 PUSH2 0xFD3 JUMP JUMPDEST PUSH2 0x1052 DUP2 DUP6 PUSH2 0xFDE JUMP JUMPDEST SWAP4 POP PUSH2 0x105D DUP4 PUSH2 0xFEF JUMP JUMPDEST DUP1 PUSH1 0x0 JUMPDEST DUP4 DUP2 LT ISZERO PUSH2 0x108E JUMPI DUP2 MLOAD PUSH2 0x1075 DUP9 DUP3 PUSH2 0x1018 JUMP JUMPDEST SWAP8 POP PUSH2 0x1080 DUP4 PUSH2 0x1030 JUMP JUMPDEST SWAP3 POP POP PUSH1 0x1 DUP2 ADD SWAP1 POP PUSH2 0x1061 JUMP JUMPDEST POP DUP6 SWAP4 POP POP POP POP SWAP3 SWAP2 POP POP JUMP JUMPDEST PUSH1 0x0 PUSH1 0x20 DUP3 ADD SWAP1 POP DUP2 DUP2 SUB PUSH1 0x0 DUP4 ADD MSTORE PUSH2 0x10B5 DUP2 DUP5 PUSH2 0x103D JUMP JUMPDEST SWAP1 POP SWAP3 SWAP2 POP POP JUMP JUMPDEST PUSH1 0x0 DUP1 REVERT JUMPDEST PUSH2 0x10CB DUP2 PUSH2 0xFFF JUMP JUMPDEST DUP2 EQ PUSH2 0x10D6 JUMPI PUSH1 0x0 DUP1 REVERT JUMPDEST POP JUMP JUMPDEST PUSH1 0x0 DUP2 CALLDATALOAD SWAP1 POP PUSH2 0x10E8 DUP2 PUSH2 0x10C2 JUMP JUMPDEST SWAP3 SWAP2 POP POP JUMP JUMPDEST PUSH1 0x0 PUSH1 0x20 DUP3 DUP5 SUB SLT ISZERO PUSH2 0x1104 JUMPI PUSH2 0x1103 PUSH2 0x10BD JUMP JUMPDEST JUMPDEST PUSH1 0x0 PUSH2 0x1112 DUP5 DUP3 DUP6 ADD PUSH2 0x10D9 JUMP JUMPDEST SWAP2 POP POP SWAP3 SWAP2 POP POP JUMP JUMPDEST PUSH1 0x0 DUP2 MLOAD SWAP1 POP SWAP2 SWAP1 POP JUMP JUMPDEST PUSH1 0x0 DUP3 DUP3 MSTORE PUSH1 0x20 DUP3 ADD SWAP1 POP SWAP3 SWAP2 POP POP JUMP JUMPDEST PUSH1 0x0 DUP2 SWAP1 POP PUSH1 0x20 DUP3 ADD SWAP1 POP SWAP2 SWAP1 POP JUMP JUMPDEST PUSH1 0x0 PUSH20 0xFFFFFFFFFFFFFFFFFFFFFFFFFFFFFFFFFFFFFFFF DUP3 AND SWAP1 POP SWAP2 SWAP1 POP JUMP JUMPDEST PUSH1 0x0 PUSH2 0x1172 DUP3 PUSH2 0x1147 JUMP JUMPDEST SWAP1 POP SWAP2 SWAP1 POP JUMP JUMPDEST PUSH2 0x1182 DUP2 PUSH2 0x1167 JUMP JUMPDEST DUP3 MSTORE POP POP JUMP JUMPDEST PUSH32 0x4E487B7100000000000000000000000000000000000000000000000000000000 PUSH1 0x0 MSTORE PUSH1 0x21 PUSH1 0x4 MSTORE PUSH1 0x24 PUSH1 0x0 REVERT JUMPDEST PUSH1 0x2 DUP2 LT PUSH2 0x11C8 JUMPI PUSH2 0x11C7 PUSH2 0x1188 JUMP JUMPDEST JUMPDEST POP JUMP JUMPDEST PUSH1 0x0 DUP2 SWAP1 POP PUSH2 0x11D9 DUP3 PUSH2 0x11B7 JUMP JUMPDEST SWAP2 SWAP1 POP JUMP JUMPDEST PUSH1 0x0 PUSH2 0x11E9 DUP3 PUSH2 0x11CB JUMP JUMPDEST SWAP1 POP SWAP2 SWAP1 POP JUMP JUMPDEST PUSH2 0x11F9 DUP2 PUSH2 0x11DE JUMP JUMPDEST DUP3 MSTORE POP POP JUMP JUMPDEST PUSH1 0x80 DUP3 ADD PUSH1 0x0 DUP3 ADD MLOAD PUSH2 0x1215 PUSH1 0x0 DUP6 ADD DUP3 PUSH2 0x1179 JUMP JUMPDEST POP PUSH1 0x20 DUP3 ADD MLOAD PUSH2 0x1228 PUSH1 0x20 DUP6 ADD DUP3 PUSH2 0x1009 JUMP JUMPDEST POP PUSH1 0x40 DUP3 ADD MLOAD PUSH2 0x123B PUSH1 0x40 DUP6 ADD DUP3 PUSH2 0x1009 JUMP JUMPDEST POP PUSH1 0x60 DUP3 ADD MLOAD PUSH2 0x124E PUSH1 0x60 DUP6 ADD DUP3 PUSH2 0x11F0 JUMP JUMPDEST POP POP POP POP JUMP JUMPDEST PUSH1 0x0 PUSH2 0x1260 DUP4 DUP4 PUSH2 0x11FF JUMP JUMPDEST PUSH1 0x80 DUP4 ADD SWAP1 POP SWAP3 SWAP2 POP POP JUMP JUMPDEST PUSH1 0x0 PUSH1 0x20 DUP3 ADD SWAP1 POP SWAP2 SWAP1 POP JUMP JUMPDEST PUSH1 0x0 PUSH2 0x1284 DUP3 PUSH2 0x111B JUMP JUMPDEST PUSH2 0x128E DUP2 DUP6 PUSH2 0x1126 JUMP JUMPDEST SWAP4 POP PUSH2 0x1299 DUP4 PUSH2 0x1137 JUMP JUMPDEST DUP1 PUSH1 0x0 JUMPDEST DUP4 DUP2 LT ISZERO PUSH2 0x12CA JUMPI DUP2 MLOAD PUSH2 0x12B1 DUP9 DUP3 PUSH2 0x1254 JUMP JUMPDEST SWAP8 POP PUSH2 0x12BC DUP4 PUSH2 0x126C JUMP JUMPDEST SWAP3 POP POP PUSH1 0x1 DUP2 ADD SWAP1 POP PUSH2 0x129D JUMP JUMPDEST POP DUP6 SWAP4 POP POP POP POP SWAP3 SWAP2 POP POP JUMP JUMPDEST PUSH1 0x0 PUSH1 0x20 DUP3 ADD SWAP1 POP DUP2 DUP2 SUB PUSH1 0x0 DUP4 ADD MSTORE PUSH2 0x12F1 DUP2 DUP5 PUSH2 0x1279 JUMP JUMPDEST SWAP1 POP SWAP3 SWAP2 POP POP JUMP JUMPDEST PUSH32 0x4E487B7100000000000000000000000000000000000000000000000000000000 PUSH1 0x0 MSTORE PUSH1 0x32 PUSH1 0x4 MSTORE PUSH1 0x24 PUSH1 0x0 REVERT JUMPDEST PUSH32 0x4E487B7100000000000000000000000000000000000000000000000000000000 PUSH1 0x0 MSTORE PUSH1 0x11 PUSH1 0x4 MSTORE PUSH1 0x24 PUSH1 0x0 REVERT JUMPDEST PUSH1 0x0 PUSH2 0x1362 DUP3 PUSH2 0xFFF JUMP JUMPDEST SWAP2 POP PUSH32 0xFFFFFFFFFFFFFFFFFFFFFFFFFFFFFFFFFFFFFFFFFFFFFFFFFFFFFFFFFFFFFFFF DUP3 SUB PUSH2 0x1394 JUMPI PUSH2 0x1393 PUSH2 0x1328 JUMP JUMPDEST JUMPDEST PUSH1 0x1 DUP3 ADD SWAP1 POP SWAP2 SWAP1 POP JUMP JUMPDEST PUSH1 0x0 DUP3 DUP3 MSTORE PUSH1 0x20 DUP3 ADD SWAP1 POP SWAP3 SWAP2 POP POP JUMP JUMPDEST PUSH32 0x4F726465722050656E64696E6700000000000000000000000000000000000000 PUSH1 0x0 DUP3 ADD MSTORE POP JUMP JUMPDEST PUSH1 0x0 PUSH2 0x13E6 PUSH1 0xD DUP4 PUSH2 0x139F JUMP JUMPDEST SWAP2 POP PUSH2 0x13F1 DUP3 PUSH2 0x13B0 JUMP JUMPDEST PUSH1 0x20 DUP3 ADD SWAP1 POP SWAP2 SWAP1 POP JUMP JUMPDEST PUSH1 0x0 PUSH1 0x20 DUP3 ADD SWAP1 POP DUP2 DUP2 SUB PUSH1 0x0 DUP4 ADD MSTORE PUSH2 0x1415 DUP2 PUSH2 0x13D9 JUMP JUMPDEST SWAP1 POP SWAP2 SWAP1 POP JUMP JUMPDEST PUSH1 0x0 PUSH2 0x1427 DUP3 PUSH2 0xFFF JUMP JUMPDEST SWAP2 POP PUSH2 0x1432 DUP4 PUSH2 0xFFF JUMP JUMPDEST SWAP3 POP DUP3 DUP3 LT ISZERO PUSH2 0x1445 JUMPI PUSH2 0x1444 PUSH2 0x1328 JUMP JUMPDEST JUMPDEST DUP3 DUP3 SUB SWAP1 POP SWAP3 SWAP2 POP POP JUMP JUMPDEST PUSH1 0x0 DUP2 SWAP1 POP SWAP2 SWAP1 POP JUMP JUMPDEST PUSH1 0x0 PUSH2 0x1465 DUP3 PUSH2 0x1450 JUMP JUMPDEST SWAP2 POP PUSH2 0x1470 DUP4 PUSH2 0x1450 JUMP JUMPDEST SWAP3 POP DUP3 PUSH32 0x8000000000000000000000000000000000000000000000000000000000000000 ADD DUP3 SLT PUSH1 0x0 DUP5 SLT ISZERO AND ISZERO PUSH2 0x14AB JUMPI PUSH2 0x14AA PUSH2 0x1328 JUMP JUMPDEST JUMPDEST DUP3 PUSH32 0x7FFFFFFFFFFFFFFFFFFFFFFFFFFFFFFFFFFFFFFFFFFFFFFFFFFFFFFFFFFFFFFF ADD DUP3 SGT PUSH1 0x0 DUP5 SLT AND ISZERO PUSH2 0x14E3 JUMPI PUSH2 0x14E2 PUSH2 0x1328 JUMP JUMPDEST JUMPDEST DUP3 DUP3 SUB SWAP1 POP SWAP3 SWAP2 POP POP JUMP JUMPDEST PUSH32 0x4E487B7100000000000000000000000000000000000000000000000000000000 PUSH1 0x0 MSTORE PUSH1 0x12 PUSH1 0x4 MSTORE PUSH1 0x24 PUSH1 0x0 REVERT JUMPDEST PUSH1 0x0 PUSH2 0x1528 DUP3 PUSH2 0x1450 JUMP JUMPDEST SWAP2 POP PUSH2 0x1533 DUP4 PUSH2 0x1450 JUMP JUMPDEST SWAP3 POP DUP3 PUSH2 0x1543 JUMPI PUSH2 0x1542 PUSH2 0x14EE JUMP JUMPDEST JUMPDEST PUSH1 0x1 PUSH1 0x0 SUB DUP4 EQ PUSH32 0x8000000000000000000000000000000000000000000000000000000000000000 DUP4 EQ AND ISZERO PUSH2 0x157C JUMPI PUSH2 0x157B PUSH2 0x1328 JUMP JUMPDEST JUMPDEST DUP3 DUP3 SDIV SWAP1 POP SWAP3 SWAP2 POP POP JUMP JUMPDEST PUSH1 0x0 PUSH2 0x1592 DUP3 PUSH2 0x1450 JUMP JUMPDEST SWAP2 POP PUSH2 0x159D DUP4 PUSH2 0x1450 JUMP JUMPDEST SWAP3 POP DUP2 PUSH32 0x7FFFFFFFFFFFFFFFFFFFFFFFFFFFFFFFFFFFFFFFFFFFFFFFFFFFFFFFFFFFFFFF SUB DUP4 SGT PUSH1 0x0 DUP4 SLT ISZERO AND ISZERO PUSH2 0x15D8 JUMPI PUSH2 0x15D7 PUSH2 0x1328 JUMP JUMPDEST JUMPDEST DUP2 PUSH32 0x8000000000000000000000000000000000000000000000000000000000000000 SUB DUP4 SLT PUSH1 0x0 DUP4 SLT AND ISZERO PUSH2 0x1610 JUMPI PUSH2 0x160F PUSH2 0x1328 JUMP JUMPDEST JUMPDEST DUP3 DUP3 ADD SWAP1 POP SWAP3 SWAP2 POP POP JUMP JUMPDEST PUSH1 0x0 PUSH2 0x1626 DUP3 PUSH2 0x1450 JUMP JUMPDEST SWAP2 POP PUSH32 0x7FFFFFFFFFFFFFFFFFFFFFFFFFFFFFFFFFFFFFFFFFFFFFFFFFFFFFFFFFFFFFFF DUP3 SUB PUSH2 0x1658 JUMPI PUSH2 0x1657 PUSH2 0x1328 JUMP JUMPDEST JUMPDEST PUSH1 0x1 DUP3 ADD SWAP1 POP SWAP2 SWAP1 POP JUMP JUMPDEST PUSH1 0x0 PUSH2 0x166E DUP3 PUSH2 0x1450 JUMP JUMPDEST SWAP2 POP PUSH32 0x8000000000000000000000000000000000000000000000000000000000000000 DUP3 SUB PUSH2 0x16A0 JUMPI PUSH2 0x169F PUSH2 0x1328 JUMP JUMPDEST JUMPDEST PUSH1 0x1 DUP3 SUB SWAP1 POP SWAP2 SWAP1 POP JUMP INVALID LOG2 PUSH5 0x6970667358 0x22 SLT KECCAK256 0x4C 0xC5 MSIZE 0xD5 0xAD 0xE0 0xCE 0xBF PUSH24 0xFE3323C763C026D21C0B6F9936979CEF3FF97FE4F40F0164 PUSH20 0x6F6C634300080D00330000000000000000000000 "
				},
				"gasEstimates": {
					"creation": {
						"codeDepositCost": "1171400",
						"executionCost": "1221",
						"totalCost": "1172621"
					},
					"external": {
						"cancelAsk(uint256)": "infinite",
						"cancelBid(uint256)": "infinite",
						"fetchAllAsk()": "infinite",
						"fetchAllBid()": "infinite",
						"fetchYourAskIds()": "infinite",
						"fetchYourBidIds()": "infinite",
						"placeAsk(uint256)": "117772",
						"placeBid(uint256)": "117727"
					},
					"internal": {
						"ascendingQuickSort(struct OrderBook.order memory[] memory,int256,int256)": "infinite",
						"deleteArray()": "infinite",
						"descendingQuickSort(struct OrderBook.order memory[] memory,int256,int256)": "infinite",
						"sortAsk()": "infinite",
						"sortBid()": "infinite"
					}
				},
				"methodIdentifiers": {
					"cancelAsk(uint256)": "1628e0f5",
					"cancelBid(uint256)": "9703ef35",
					"fetchAllAsk()": "c5374af2",
					"fetchAllBid()": "4471417f",
					"fetchYourAskIds()": "122de8f2",
					"fetchYourBidIds()": "ce0cdc87",
					"placeAsk(uint256)": "78c5b268",
					"placeBid(uint256)": "9979ef45"
				}
			},
			"storageLayout": {
				"storage": [
					{
						"astId": 18,
						"contract": "contracts/OrderBook.sol:OrderBook",
						"label": "bidBook",
						"offset": 0,
						"slot": "0",
						"type": "t_array(t_struct(order)14_storage)dyn_storage"
					},
					{
						"astId": 22,
						"contract": "contracts/OrderBook.sol:OrderBook",
						"label": "askBook",
						"offset": 0,
						"slot": "1",
						"type": "t_array(t_struct(order)14_storage)dyn_storage"
					},
					{
						"astId": 25,
						"contract": "contracts/OrderBook.sol:OrderBook",
						"label": "request",
						"offset": 0,
						"slot": "2",
						"type": "t_array(t_uint256)dyn_storage"
					}
				],
				"types": {
					"t_address_payable": {
						"encoding": "inplace",
						"label": "address payable",
						"numberOfBytes": "20"
					},
					"t_array(t_struct(order)14_storage)dyn_storage": {
						"base": "t_struct(order)14_storage",
						"encoding": "dynamic_array",
						"label": "struct OrderBook.order[]",
						"numberOfBytes": "32"
					},
					"t_array(t_uint256)dyn_storage": {
						"base": "t_uint256",
						"encoding": "dynamic_array",
						"label": "uint256[]",
						"numberOfBytes": "32"
					},
					"t_enum(State)4": {
						"encoding": "inplace",
						"label": "enum OrderBook.State",
						"numberOfBytes": "1"
					},
					"t_struct(order)14_storage": {
						"encoding": "inplace",
						"label": "struct OrderBook.order",
						"members": [
							{
								"astId": 6,
								"contract": "contracts/OrderBook.sol:OrderBook",
								"label": "customer",
								"offset": 0,
								"slot": "0",
								"type": "t_address_payable"
							},
							{
								"astId": 8,
								"contract": "contracts/OrderBook.sol:OrderBook",
								"label": "price",
								"offset": 0,
								"slot": "1",
								"type": "t_uint256"
							},
							{
								"astId": 10,
								"contract": "contracts/OrderBook.sol:OrderBook",
								"label": "timestamp",
								"offset": 0,
								"slot": "2",
								"type": "t_uint256"
							},
							{
								"astId": 13,
								"contract": "contracts/OrderBook.sol:OrderBook",
								"label": "state",
								"offset": 0,
								"slot": "3",
								"type": "t_enum(State)4"
							}
						],
						"numberOfBytes": "128"
					},
					"t_uint256": {
						"encoding": "inplace",
						"label": "uint256",
						"numberOfBytes": "32"
					}
				}
			},
			"userdoc": {
				"kind": "user",
				"methods": {},
				"version": 1
			}
		}
	}
}