{
	"contracts/OrderBook.sol": {
		"OrderBook": {
			"abi": [
				{
					"inputs": [
						{
							"internalType": "uint256",
							"name": "_commission",
							"type": "uint256"
						}
					],
					"stateMutability": "nonpayable",
					"type": "constructor"
				},
				{
					"anonymous": false,
					"inputs": [
						{
							"indexed": false,
							"internalType": "uint256",
							"name": "",
							"type": "uint256"
						}
					],
					"name": "askCancelled",
					"type": "event"
				},
				{
					"anonymous": false,
					"inputs": [
						{
							"indexed": false,
							"internalType": "address",
							"name": "",
							"type": "address"
						},
						{
							"indexed": false,
							"internalType": "uint256",
							"name": "",
							"type": "uint256"
						},
						{
							"indexed": false,
							"internalType": "uint256",
							"name": "",
							"type": "uint256"
						},
						{
							"indexed": false,
							"internalType": "enum OrderBook.State",
							"name": "",
							"type": "uint8"
						}
					],
					"name": "askPlaced",
					"type": "event"
				},
				{
					"anonymous": false,
					"inputs": [
						{
							"indexed": false,
							"internalType": "uint256",
							"name": "",
							"type": "uint256"
						}
					],
					"name": "bidCancelled",
					"type": "event"
				},
				{
					"anonymous": false,
					"inputs": [
						{
							"indexed": false,
							"internalType": "address",
							"name": "",
							"type": "address"
						},
						{
							"indexed": false,
							"internalType": "uint256",
							"name": "",
							"type": "uint256"
						},
						{
							"indexed": false,
							"internalType": "uint256",
							"name": "",
							"type": "uint256"
						},
						{
							"indexed": false,
							"internalType": "enum OrderBook.State",
							"name": "",
							"type": "uint8"
						}
					],
					"name": "bidPlaced",
					"type": "event"
				},
				{
					"inputs": [
						{
							"internalType": "uint256",
							"name": "askId",
							"type": "uint256"
						}
					],
					"name": "cancelAsk",
					"outputs": [],
					"stateMutability": "nonpayable",
					"type": "function"
				},
				{
					"inputs": [
						{
							"internalType": "uint256",
							"name": "bidId",
							"type": "uint256"
						}
					],
					"name": "cancelBid",
					"outputs": [],
					"stateMutability": "nonpayable",
					"type": "function"
				},
				{
					"inputs": [],
					"name": "fetchAllAsk",
					"outputs": [
						{
							"components": [
								{
									"internalType": "address payable",
									"name": "customer",
									"type": "address"
								},
								{
									"internalType": "uint256",
									"name": "value",
									"type": "uint256"
								},
								{
									"internalType": "uint256",
									"name": "timestamp",
									"type": "uint256"
								},
								{
									"internalType": "enum OrderBook.State",
									"name": "state",
									"type": "uint8"
								}
							],
							"internalType": "struct OrderBook.order[]",
							"name": "",
							"type": "tuple[]"
						}
					],
					"stateMutability": "view",
					"type": "function"
				},
				{
					"inputs": [],
					"name": "fetchAllBid",
					"outputs": [
						{
							"components": [
								{
									"internalType": "address payable",
									"name": "customer",
									"type": "address"
								},
								{
									"internalType": "uint256",
									"name": "value",
									"type": "uint256"
								},
								{
									"internalType": "uint256",
									"name": "timestamp",
									"type": "uint256"
								},
								{
									"internalType": "enum OrderBook.State",
									"name": "state",
									"type": "uint8"
								}
							],
							"internalType": "struct OrderBook.order[]",
							"name": "",
							"type": "tuple[]"
						}
					],
					"stateMutability": "view",
					"type": "function"
				},
				{
					"inputs": [],
					"name": "fetchYourAskIds",
					"outputs": [
						{
							"internalType": "uint256[]",
							"name": "",
							"type": "uint256[]"
						}
					],
					"stateMutability": "nonpayable",
					"type": "function"
				},
				{
					"inputs": [],
					"name": "fetchYourBidIds",
					"outputs": [
						{
							"internalType": "uint256[]",
							"name": "",
							"type": "uint256[]"
						}
					],
					"stateMutability": "nonpayable",
					"type": "function"
				},
				{
					"inputs": [
						{
							"internalType": "uint256",
							"name": "id",
							"type": "uint256"
						}
					],
					"name": "getAskAddress",
					"outputs": [
						{
							"internalType": "address payable",
							"name": "",
							"type": "address"
						}
					],
					"stateMutability": "view",
					"type": "function"
				},
				{
					"inputs": [
						{
							"internalType": "uint256",
							"name": "id",
							"type": "uint256"
						}
					],
					"name": "getAskState",
					"outputs": [
						{
							"internalType": "enum OrderBook.State",
							"name": "",
							"type": "uint8"
						}
					],
					"stateMutability": "view",
					"type": "function"
				},
				{
					"inputs": [
						{
							"internalType": "uint256",
							"name": "id",
							"type": "uint256"
						}
					],
					"name": "getAskValue",
					"outputs": [
						{
							"internalType": "uint256",
							"name": "",
							"type": "uint256"
						}
					],
					"stateMutability": "view",
					"type": "function"
				},
				{
					"inputs": [
						{
							"internalType": "uint256",
							"name": "id",
							"type": "uint256"
						}
					],
					"name": "getBidAddress",
					"outputs": [
						{
							"internalType": "address payable",
							"name": "",
							"type": "address"
						}
					],
					"stateMutability": "view",
					"type": "function"
				},
				{
					"inputs": [
						{
							"internalType": "uint256",
							"name": "id",
							"type": "uint256"
						}
					],
					"name": "getBidState",
					"outputs": [
						{
							"internalType": "enum OrderBook.State",
							"name": "",
							"type": "uint8"
						}
					],
					"stateMutability": "view",
					"type": "function"
				},
				{
					"inputs": [
						{
							"internalType": "uint256",
							"name": "id",
							"type": "uint256"
						}
					],
					"name": "getBidValue",
					"outputs": [
						{
							"internalType": "uint256",
							"name": "",
							"type": "uint256"
						}
					],
					"stateMutability": "view",
					"type": "function"
				},
				{
					"inputs": [
						{
							"internalType": "uint256",
							"name": "price",
							"type": "uint256"
						}
					],
					"name": "placeAsk",
					"outputs": [],
					"stateMutability": "payable",
					"type": "function"
				},
				{
					"inputs": [
						{
							"internalType": "uint256",
							"name": "price",
							"type": "uint256"
						}
					],
					"name": "placeBid",
					"outputs": [],
					"stateMutability": "payable",
					"type": "function"
				}
			],
			"devdoc": {
				"kind": "dev",
				"methods": {},
				"version": 1
			},
			"evm": {
				"assembly": "    /* \"contracts/OrderBook.sol\":1057:6995  contract OrderBook {... */\n  mstore(0x40, 0x80)\n    /* \"contracts/OrderBook.sol\":1211:1221  msg.sender */\n  caller\n    /* \"contracts/OrderBook.sol\":1178:1222  address payable _owner = payable(msg.sender) */\n  0x00\n  dup1\n  0x0100\n  exp\n  dup2\n  sload\n  dup2\n  0xffffffffffffffffffffffffffffffffffffffff\n  mul\n  not\n  and\n  swap1\n  dup4\n  0xffffffffffffffffffffffffffffffffffffffff\n  and\n  mul\n  or\n  swap1\n  sstore\n  pop\n    /* \"contracts/OrderBook.sol\":1299:1374  constructor (uint256 _commission) {... */\n  callvalue\n  dup1\n  iszero\n  tag_1\n  jumpi\n  0x00\n  dup1\n  revert\ntag_1:\n  pop\n  mload(0x40)\n  sub(codesize, bytecodeSize)\n  dup1\n  bytecodeSize\n  dup4\n  codecopy\n  dup2\n  dup2\n  add\n  0x40\n  mstore\n  dup2\n  add\n  swap1\n  tag_2\n  swap2\n  swap1\n  tag_3\n  jump\t// in\ntag_2:\n    /* \"contracts/OrderBook.sol\":1356:1367  _commission */\n  dup1\n    /* \"contracts/OrderBook.sol\":1343:1353  commission */\n  0x01\n    /* \"contracts/OrderBook.sol\":1343:1367  commission = _commission */\n  dup2\n  swap1\n  sstore\n  pop\n    /* \"contracts/OrderBook.sol\":1299:1374  constructor (uint256 _commission) {... */\n  pop\n    /* \"contracts/OrderBook.sol\":1057:6995  contract OrderBook {... */\n  jump(tag_6)\n    /* \"#utility.yul\":88:205   */\ntag_8:\n    /* \"#utility.yul\":197:198   */\n  0x00\n    /* \"#utility.yul\":194:195   */\n  dup1\n    /* \"#utility.yul\":187:199   */\n  revert\n    /* \"#utility.yul\":334:411   */\ntag_10:\n    /* \"#utility.yul\":371:378   */\n  0x00\n    /* \"#utility.yul\":400:405   */\n  dup2\n    /* \"#utility.yul\":389:405   */\n  swap1\n  pop\n    /* \"#utility.yul\":334:411   */\n  swap2\n  swap1\n  pop\n  jump\t// out\n    /* \"#utility.yul\":417:539   */\ntag_11:\n    /* \"#utility.yul\":490:514   */\n  tag_19\n    /* \"#utility.yul\":508:513   */\n  dup2\n    /* \"#utility.yul\":490:514   */\n  tag_10\n  jump\t// in\ntag_19:\n    /* \"#utility.yul\":483:488   */\n  dup2\n    /* \"#utility.yul\":480:515   */\n  eq\n    /* \"#utility.yul\":470:533   */\n  tag_20\n  jumpi\n    /* \"#utility.yul\":529:530   */\n  0x00\n    /* \"#utility.yul\":526:527   */\n  dup1\n    /* \"#utility.yul\":519:531   */\n  revert\n    /* \"#utility.yul\":470:533   */\ntag_20:\n    /* \"#utility.yul\":417:539   */\n  pop\n  jump\t// out\n    /* \"#utility.yul\":545:688   */\ntag_12:\n    /* \"#utility.yul\":602:607   */\n  0x00\n    /* \"#utility.yul\":633:639   */\n  dup2\n    /* \"#utility.yul\":627:640   */\n  mload\n    /* \"#utility.yul\":618:640   */\n  swap1\n  pop\n    /* \"#utility.yul\":649:682   */\n  tag_22\n    /* \"#utility.yul\":676:681   */\n  dup2\n    /* \"#utility.yul\":649:682   */\n  tag_11\n  jump\t// in\ntag_22:\n    /* \"#utility.yul\":545:688   */\n  swap3\n  swap2\n  pop\n  pop\n  jump\t// out\n    /* \"#utility.yul\":694:1045   */\ntag_3:\n    /* \"#utility.yul\":764:770   */\n  0x00\n    /* \"#utility.yul\":813:815   */\n  0x20\n    /* \"#utility.yul\":801:810   */\n  dup3\n    /* \"#utility.yul\":792:799   */\n  dup5\n    /* \"#utility.yul\":788:811   */\n  sub\n    /* \"#utility.yul\":784:816   */\n  slt\n    /* \"#utility.yul\":781:900   */\n  iszero\n  tag_24\n  jumpi\n    /* \"#utility.yul\":819:898   */\n  tag_25\n  tag_8\n  jump\t// in\ntag_25:\n    /* \"#utility.yul\":781:900   */\ntag_24:\n    /* \"#utility.yul\":939:940   */\n  0x00\n    /* \"#utility.yul\":964:1028   */\n  tag_26\n    /* \"#utility.yul\":1020:1027   */\n  dup5\n    /* \"#utility.yul\":1011:1017   */\n  dup3\n    /* \"#utility.yul\":1000:1009   */\n  dup6\n    /* \"#utility.yul\":996:1018   */\n  add\n    /* \"#utility.yul\":964:1028   */\n  tag_12\n  jump\t// in\ntag_26:\n    /* \"#utility.yul\":954:1028   */\n  swap2\n  pop\n    /* \"#utility.yul\":910:1038   */\n  pop\n    /* \"#utility.yul\":694:1045   */\n  swap3\n  swap2\n  pop\n  pop\n  jump\t// out\n    /* \"contracts/OrderBook.sol\":1057:6995  contract OrderBook {... */\ntag_6:\n  dataSize(sub_0)\n  dup1\n  dataOffset(sub_0)\n  0x00\n  codecopy\n  0x00\n  return\nstop\n\nsub_0: assembly {\n        /* \"contracts/OrderBook.sol\":1057:6995  contract OrderBook {... */\n      mstore(0x40, 0x80)\n      jumpi(tag_1, lt(calldatasize, 0x04))\n      shr(0xe0, calldataload(0x00))\n      dup1\n      0x78c5b268\n      gt\n      tag_16\n      jumpi\n      dup1\n      0xbf77ffae\n      gt\n      tag_17\n      jumpi\n      dup1\n      0xbf77ffae\n      eq\n      tag_12\n      jumpi\n      dup1\n      0xc5374af2\n      eq\n      tag_13\n      jumpi\n      dup1\n      0xce0cdc87\n      eq\n      tag_14\n      jumpi\n      dup1\n      0xdb3a1396\n      eq\n      tag_15\n      jumpi\n      jump(tag_1)\n    tag_17:\n      dup1\n      0x78c5b268\n      eq\n      tag_9\n      jumpi\n      dup1\n      0x9703ef35\n      eq\n      tag_10\n      jumpi\n      dup1\n      0x9979ef45\n      eq\n      tag_11\n      jumpi\n      jump(tag_1)\n    tag_16:\n      dup1\n      0x4471417f\n      gt\n      tag_18\n      jumpi\n      dup1\n      0x4471417f\n      eq\n      tag_5\n      jumpi\n      dup1\n      0x4d46712d\n      eq\n      tag_6\n      jumpi\n      dup1\n      0x69f632e2\n      eq\n      tag_7\n      jumpi\n      dup1\n      0x734a2e78\n      eq\n      tag_8\n      jumpi\n      jump(tag_1)\n    tag_18:\n      dup1\n      0x122de8f2\n      eq\n      tag_2\n      jumpi\n      dup1\n      0x1628e0f5\n      eq\n      tag_3\n      jumpi\n      dup1\n      0x2db6dfa7\n      eq\n      tag_4\n      jumpi\n    tag_1:\n      0x00\n      dup1\n      revert\n        /* \"contracts/OrderBook.sol\":6045:6328  function fetchYourAskIds() public returns (uint[] memory) {... */\n    tag_2:\n      callvalue\n      dup1\n      iszero\n      tag_19\n      jumpi\n      0x00\n      dup1\n      revert\n    tag_19:\n      pop\n      tag_20\n      tag_21\n      jump\t// in\n    tag_20:\n      mload(0x40)\n      tag_22\n      swap2\n      swap1\n      tag_23\n      jump\t// in\n    tag_22:\n      mload(0x40)\n      dup1\n      swap2\n      sub\n      swap1\n      return\n        /* \"contracts/OrderBook.sol\":5261:5528  function cancelAsk (uint askId) public isPending(askBook[askId]) isAuthorised(askBook[askId], msg.sender) {... */\n    tag_3:\n      callvalue\n      dup1\n      iszero\n      tag_24\n      jumpi\n      0x00\n      dup1\n      revert\n    tag_24:\n      pop\n      tag_25\n      0x04\n      dup1\n      calldatasize\n      sub\n      dup2\n      add\n      swap1\n      tag_26\n      swap2\n      swap1\n      tag_27\n      jump\t// in\n    tag_26:\n      tag_28\n      jump\t// in\n    tag_25:\n      stop\n        /* \"contracts/OrderBook.sol\":6574:6675  function getBidValue (uint id) public view returns(uint256) {... */\n    tag_4:\n      callvalue\n      dup1\n      iszero\n      tag_29\n      jumpi\n      0x00\n      dup1\n      revert\n    tag_29:\n      pop\n      tag_30\n      0x04\n      dup1\n      calldatasize\n      sub\n      dup2\n      add\n      swap1\n      tag_31\n      swap2\n      swap1\n      tag_27\n      jump\t// in\n    tag_31:\n      tag_32\n      jump\t// in\n    tag_30:\n      mload(0x40)\n      tag_33\n      swap2\n      swap1\n      tag_34\n      jump\t// in\n    tag_33:\n      mload(0x40)\n      dup1\n      swap2\n      sub\n      swap1\n      return\n        /* \"contracts/OrderBook.sol\":5562:5653  function fetchAllBid() public view returns (order[] memory) {... */\n    tag_5:\n      callvalue\n      dup1\n      iszero\n      tag_35\n      jumpi\n      0x00\n      dup1\n      revert\n    tag_35:\n      pop\n      tag_36\n      tag_37\n      jump\t// in\n    tag_36:\n      mload(0x40)\n      tag_38\n      swap2\n      swap1\n      tag_39\n      jump\t// in\n    tag_38:\n      mload(0x40)\n      dup1\n      swap2\n      sub\n      swap1\n      return\n        /* \"contracts/OrderBook.sol\":6893:6992  function getAskState (uint id) public view returns(State) {... */\n    tag_6:\n      callvalue\n      dup1\n      iszero\n      tag_40\n      jumpi\n      0x00\n      dup1\n      revert\n    tag_40:\n      pop\n      tag_41\n      0x04\n      dup1\n      calldatasize\n      sub\n      dup2\n      add\n      swap1\n      tag_42\n      swap2\n      swap1\n      tag_27\n      jump\t// in\n    tag_42:\n      tag_43\n      jump\t// in\n    tag_41:\n      mload(0x40)\n      tag_44\n      swap2\n      swap1\n      tag_45\n      jump\t// in\n    tag_44:\n      mload(0x40)\n      dup1\n      swap2\n      sub\n      swap1\n      return\n        /* \"contracts/OrderBook.sol\":6334:6448  function getBidAddress (uint id) public view returns(address payable) {... */\n    tag_7:\n      callvalue\n      dup1\n      iszero\n      tag_46\n      jumpi\n      0x00\n      dup1\n      revert\n    tag_46:\n      pop\n      tag_47\n      0x04\n      dup1\n      calldatasize\n      sub\n      dup2\n      add\n      swap1\n      tag_48\n      swap2\n      swap1\n      tag_27\n      jump\t// in\n    tag_48:\n      tag_49\n      jump\t// in\n    tag_47:\n      mload(0x40)\n      tag_50\n      swap2\n      swap1\n      tag_51\n      jump\t// in\n    tag_50:\n      mload(0x40)\n      dup1\n      swap2\n      sub\n      swap1\n      return\n        /* \"contracts/OrderBook.sol\":6454:6568  function getAskAddress (uint id) public view returns(address payable) {... */\n    tag_8:\n      callvalue\n      dup1\n      iszero\n      tag_52\n      jumpi\n      0x00\n      dup1\n      revert\n    tag_52:\n      pop\n      tag_53\n      0x04\n      dup1\n      calldatasize\n      sub\n      dup2\n      add\n      swap1\n      tag_54\n      swap2\n      swap1\n      tag_27\n      jump\t// in\n    tag_54:\n      tag_55\n      jump\t// in\n    tag_53:\n      mload(0x40)\n      tag_56\n      swap2\n      swap1\n      tag_51\n      jump\t// in\n    tag_56:\n      mload(0x40)\n      dup1\n      swap2\n      sub\n      swap1\n      return\n        /* \"contracts/OrderBook.sol\":4710:5255  function placeAsk (uint256 price) public payable {... */\n    tag_9:\n      tag_57\n      0x04\n      dup1\n      calldatasize\n      sub\n      dup2\n      add\n      swap1\n      tag_58\n      swap2\n      swap1\n      tag_27\n      jump\t// in\n    tag_58:\n      tag_59\n      jump\t// in\n    tag_57:\n      stop\n        /* \"contracts/OrderBook.sol\":4443:4704  function cancelBid (uint bidId) public isPending(bidBook[bidId]) isAuthorised(bidBook[bidId], msg.sender) {... */\n    tag_10:\n      callvalue\n      dup1\n      iszero\n      tag_60\n      jumpi\n      0x00\n      dup1\n      revert\n    tag_60:\n      pop\n      tag_61\n      0x04\n      dup1\n      calldatasize\n      sub\n      dup2\n      add\n      swap1\n      tag_62\n      swap2\n      swap1\n      tag_27\n      jump\t// in\n    tag_62:\n      tag_63\n      jump\t// in\n    tag_61:\n      stop\n        /* \"contracts/OrderBook.sol\":3892:4437  function placeBid (uint256 price) public payable {... */\n    tag_11:\n      tag_64\n      0x04\n      dup1\n      calldatasize\n      sub\n      dup2\n      add\n      swap1\n      tag_65\n      swap2\n      swap1\n      tag_27\n      jump\t// in\n    tag_65:\n      tag_66\n      jump\t// in\n    tag_64:\n      stop\n        /* \"contracts/OrderBook.sol\":6788:6887  function getBidState (uint id) public view returns(State) {... */\n    tag_12:\n      callvalue\n      dup1\n      iszero\n      tag_67\n      jumpi\n      0x00\n      dup1\n      revert\n    tag_67:\n      pop\n      tag_68\n      0x04\n      dup1\n      calldatasize\n      sub\n      dup2\n      add\n      swap1\n      tag_69\n      swap2\n      swap1\n      tag_27\n      jump\t// in\n    tag_69:\n      tag_70\n      jump\t// in\n    tag_68:\n      mload(0x40)\n      tag_71\n      swap2\n      swap1\n      tag_45\n      jump\t// in\n    tag_71:\n      mload(0x40)\n      dup1\n      swap2\n      sub\n      swap1\n      return\n        /* \"contracts/OrderBook.sol\":5659:5750  function fetchAllAsk() public view returns (order[] memory) {... */\n    tag_13:\n      callvalue\n      dup1\n      iszero\n      tag_72\n      jumpi\n      0x00\n      dup1\n      revert\n    tag_72:\n      pop\n      tag_73\n      tag_74\n      jump\t// in\n    tag_73:\n      mload(0x40)\n      tag_75\n      swap2\n      swap1\n      tag_39\n      jump\t// in\n    tag_75:\n      mload(0x40)\n      dup1\n      swap2\n      sub\n      swap1\n      return\n        /* \"contracts/OrderBook.sol\":5756:6039  function fetchYourBidIds() public returns (uint[] memory) {... */\n    tag_14:\n      callvalue\n      dup1\n      iszero\n      tag_76\n      jumpi\n      0x00\n      dup1\n      revert\n    tag_76:\n      pop\n      tag_77\n      tag_78\n      jump\t// in\n    tag_77:\n      mload(0x40)\n      tag_79\n      swap2\n      swap1\n      tag_23\n      jump\t// in\n    tag_79:\n      mload(0x40)\n      dup1\n      swap2\n      sub\n      swap1\n      return\n        /* \"contracts/OrderBook.sol\":6681:6782  function getAskValue (uint id) public view returns(uint256) {... */\n    tag_15:\n      callvalue\n      dup1\n      iszero\n      tag_80\n      jumpi\n      0x00\n      dup1\n      revert\n    tag_80:\n      pop\n      tag_81\n      0x04\n      dup1\n      calldatasize\n      sub\n      dup2\n      add\n      swap1\n      tag_82\n      swap2\n      swap1\n      tag_27\n      jump\t// in\n    tag_82:\n      tag_83\n      jump\t// in\n    tag_81:\n      mload(0x40)\n      tag_84\n      swap2\n      swap1\n      tag_34\n      jump\t// in\n    tag_84:\n      mload(0x40)\n      dup1\n      swap2\n      sub\n      swap1\n      return\n        /* \"contracts/OrderBook.sol\":6045:6328  function fetchYourAskIds() public returns (uint[] memory) {... */\n    tag_21:\n        /* \"contracts/OrderBook.sol\":6088:6101  uint[] memory */\n      0x60\n        /* \"contracts/OrderBook.sol\":6113:6126  deleteArray() */\n      tag_86\n        /* \"contracts/OrderBook.sol\":6113:6124  deleteArray */\n      tag_87\n        /* \"contracts/OrderBook.sol\":6113:6126  deleteArray() */\n      jump\t// in\n    tag_86:\n        /* \"contracts/OrderBook.sol\":6141:6147  uint i */\n      0x00\n        /* \"contracts/OrderBook.sol\":6136:6298  for (uint i = 0; i < askBook.length; i++) {... */\n    tag_88:\n        /* \"contracts/OrderBook.sol\":6157:6164  askBook */\n      0x03\n        /* \"contracts/OrderBook.sol\":6157:6171  askBook.length */\n      dup1\n      sload\n      swap1\n      pop\n        /* \"contracts/OrderBook.sol\":6153:6154  i */\n      dup2\n        /* \"contracts/OrderBook.sol\":6153:6171  i < askBook.length */\n      lt\n        /* \"contracts/OrderBook.sol\":6136:6298  for (uint i = 0; i < askBook.length; i++) {... */\n      iszero\n      tag_89\n      jumpi\n        /* \"contracts/OrderBook.sol\":6227:6237  msg.sender */\n      caller\n        /* \"contracts/OrderBook.sol\":6196:6238  askBook[i].customer == payable(msg.sender) */\n      0xffffffffffffffffffffffffffffffffffffffff\n      and\n        /* \"contracts/OrderBook.sol\":6196:6203  askBook */\n      0x03\n        /* \"contracts/OrderBook.sol\":6204:6205  i */\n      dup3\n        /* \"contracts/OrderBook.sol\":6196:6206  askBook[i] */\n      dup2\n      sload\n      dup2\n      lt\n      tag_91\n      jumpi\n      tag_92\n      tag_93\n      jump\t// in\n    tag_92:\n    tag_91:\n      swap1\n      0x00\n      mstore\n      keccak256(0x00, 0x20)\n      swap1\n      0x04\n      mul\n      add\n        /* \"contracts/OrderBook.sol\":6196:6215  askBook[i].customer */\n      0x00\n      add\n      0x00\n      swap1\n      sload\n      swap1\n      0x0100\n      exp\n      swap1\n      div\n      0xffffffffffffffffffffffffffffffffffffffff\n      and\n        /* \"contracts/OrderBook.sol\":6196:6238  askBook[i].customer == payable(msg.sender) */\n      0xffffffffffffffffffffffffffffffffffffffff\n      and\n      sub\n        /* \"contracts/OrderBook.sol\":6192:6288  if (askBook[i].customer == payable(msg.sender)) {... */\n      tag_95\n      jumpi\n        /* \"contracts/OrderBook.sol\":6258:6265  request */\n      0x04\n        /* \"contracts/OrderBook.sol\":6271:6272  i */\n      dup2\n        /* \"contracts/OrderBook.sol\":6258:6273  request.push(i) */\n      swap1\n      dup1\n      0x01\n      dup2\n      sload\n      add\n      dup1\n      dup3\n      sstore\n      dup1\n      swap2\n      pop\n      pop\n      0x01\n      swap1\n      sub\n      swap1\n      0x00\n      mstore\n      keccak256(0x00, 0x20)\n      add\n      0x00\n      swap1\n      swap2\n      swap1\n      swap2\n      swap1\n      swap2\n      pop\n      sstore\n        /* \"contracts/OrderBook.sol\":6192:6288  if (askBook[i].customer == payable(msg.sender)) {... */\n    tag_95:\n        /* \"contracts/OrderBook.sol\":6173:6176  i++ */\n      dup1\n      dup1\n      tag_97\n      swap1\n      tag_98\n      jump\t// in\n    tag_97:\n      swap2\n      pop\n      pop\n        /* \"contracts/OrderBook.sol\":6136:6298  for (uint i = 0; i < askBook.length; i++) {... */\n      jump(tag_88)\n    tag_89:\n      pop\n        /* \"contracts/OrderBook.sol\":6314:6321  request */\n      0x04\n        /* \"contracts/OrderBook.sol\":6307:6321  return request */\n      dup1\n      sload\n      dup1\n      0x20\n      mul\n      0x20\n      add\n      mload(0x40)\n      swap1\n      dup2\n      add\n      0x40\n      mstore\n      dup1\n      swap3\n      swap2\n      swap1\n      dup2\n      dup2\n      mstore\n      0x20\n      add\n      dup3\n      dup1\n      sload\n      dup1\n      iszero\n      tag_99\n      jumpi\n      0x20\n      mul\n      dup3\n      add\n      swap2\n      swap1\n      0x00\n      mstore\n      keccak256(0x00, 0x20)\n      swap1\n    tag_100:\n      dup2\n      sload\n      dup2\n      mstore\n      0x20\n      add\n      swap1\n      0x01\n      add\n      swap1\n      dup1\n      dup4\n      gt\n      tag_100\n      jumpi\n    tag_99:\n      pop\n      pop\n      pop\n      pop\n      pop\n      swap1\n      pop\n        /* \"contracts/OrderBook.sol\":6045:6328  function fetchYourAskIds() public returns (uint[] memory) {... */\n      swap1\n      jump\t// out\n        /* \"contracts/OrderBook.sol\":5261:5528  function cancelAsk (uint askId) public isPending(askBook[askId]) isAuthorised(askBook[askId], msg.sender) {... */\n    tag_28:\n        /* \"contracts/OrderBook.sol\":5310:5317  askBook */\n      0x03\n        /* \"contracts/OrderBook.sol\":5318:5323  askId */\n      dup2\n        /* \"contracts/OrderBook.sol\":5310:5324  askBook[askId] */\n      dup2\n      sload\n      dup2\n      lt\n      tag_101\n      jumpi\n      tag_102\n      tag_93\n      jump\t// in\n    tag_102:\n    tag_101:\n      swap1\n      0x00\n      mstore\n      keccak256(0x00, 0x20)\n      swap1\n      0x04\n      mul\n      add\n        /* \"contracts/OrderBook.sol\":1818:1941  modifier isPending(order memory _order) {... */\n      mload(0x40)\n      dup1\n      0x80\n      add\n      0x40\n      mstore\n      swap1\n      dup2\n      0x00\n      dup3\n      add\n      0x00\n      swap1\n      sload\n      swap1\n      0x0100\n      exp\n      swap1\n      div\n      0xffffffffffffffffffffffffffffffffffffffff\n      and\n      0xffffffffffffffffffffffffffffffffffffffff\n      and\n      0xffffffffffffffffffffffffffffffffffffffff\n      and\n      dup2\n      mstore\n      0x20\n      add\n      0x01\n      dup3\n      add\n      sload\n      dup2\n      mstore\n      0x20\n      add\n      0x02\n      dup3\n      add\n      sload\n      dup2\n      mstore\n      0x20\n      add\n      0x03\n      dup3\n      add\n      0x00\n      swap1\n      sload\n      swap1\n      0x0100\n      exp\n      swap1\n      div\n      0xff\n      and\n      0x01\n      dup2\n      gt\n      iszero\n      tag_104\n      jumpi\n      tag_105\n      tag_106\n      jump\t// in\n    tag_105:\n    tag_104:\n      0x01\n      dup2\n      gt\n      iszero\n      tag_107\n      jumpi\n      tag_108\n      tag_106\n      jump\t// in\n    tag_108:\n    tag_107:\n      dup2\n      mstore\n      pop\n      pop\n        /* \"contracts/OrderBook.sol\":1892:1905  State.pending */\n      0x00\n        /* \"contracts/OrderBook.sol\":1876:1905  _order.state == State.pending */\n      0x01\n      dup2\n      gt\n      iszero\n      tag_110\n      jumpi\n      tag_111\n      tag_106\n      jump\t// in\n    tag_111:\n    tag_110:\n        /* \"contracts/OrderBook.sol\":1876:1882  _order */\n      dup2\n        /* \"contracts/OrderBook.sol\":1876:1888  _order.state */\n      0x60\n      add\n      mload\n        /* \"contracts/OrderBook.sol\":1876:1905  _order.state == State.pending */\n      0x01\n      dup2\n      gt\n      iszero\n      tag_112\n      jumpi\n      tag_113\n      tag_106\n      jump\t// in\n    tag_113:\n    tag_112:\n      eq\n        /* \"contracts/OrderBook.sol\":1868:1923  require(_order.state == State.pending, \"Order Pending\") */\n      tag_114\n      jumpi\n      mload(0x40)\n      0x08c379a000000000000000000000000000000000000000000000000000000000\n      dup2\n      mstore\n      0x04\n      add\n      tag_115\n      swap1\n      tag_116\n      jump\t// in\n    tag_115:\n      mload(0x40)\n      dup1\n      swap2\n      sub\n      swap1\n      revert\n    tag_114:\n        /* \"contracts/OrderBook.sol\":5339:5346  askBook */\n      0x03\n        /* \"contracts/OrderBook.sol\":5347:5352  askId */\n      dup3\n        /* \"contracts/OrderBook.sol\":5339:5353  askBook[askId] */\n      dup2\n      sload\n      dup2\n      lt\n      tag_117\n      jumpi\n      tag_118\n      tag_93\n      jump\t// in\n    tag_118:\n    tag_117:\n      swap1\n      0x00\n      mstore\n      keccak256(0x00, 0x20)\n      swap1\n      0x04\n      mul\n      add\n        /* \"contracts/OrderBook.sol\":1947:2095  modifier isAuthorised(order memory _order, address sender) {... */\n      mload(0x40)\n      dup1\n      0x80\n      add\n      0x40\n      mstore\n      swap1\n      dup2\n      0x00\n      dup3\n      add\n      0x00\n      swap1\n      sload\n      swap1\n      0x0100\n      exp\n      swap1\n      div\n      0xffffffffffffffffffffffffffffffffffffffff\n      and\n      0xffffffffffffffffffffffffffffffffffffffff\n      and\n      0xffffffffffffffffffffffffffffffffffffffff\n      and\n      dup2\n      mstore\n      0x20\n      add\n      0x01\n      dup3\n      add\n      sload\n      dup2\n      mstore\n      0x20\n      add\n      0x02\n      dup3\n      add\n      sload\n      dup2\n      mstore\n      0x20\n      add\n      0x03\n      dup3\n      add\n      0x00\n      swap1\n      sload\n      swap1\n      0x0100\n      exp\n      swap1\n      div\n      0xff\n      and\n      0x01\n      dup2\n      gt\n      iszero\n      tag_120\n      jumpi\n      tag_121\n      tag_106\n      jump\t// in\n    tag_121:\n    tag_120:\n      0x01\n      dup2\n      gt\n      iszero\n      tag_122\n      jumpi\n      tag_123\n      tag_106\n      jump\t// in\n    tag_123:\n    tag_122:\n      dup2\n      mstore\n      pop\n      pop\n        /* \"contracts/OrderBook.sol\":5355:5365  msg.sender */\n      caller\n        /* \"contracts/OrderBook.sol\":2051:2057  sender */\n      dup1\n        /* \"contracts/OrderBook.sol\":2024:2058  _order.customer == payable(sender) */\n      0xffffffffffffffffffffffffffffffffffffffff\n      and\n        /* \"contracts/OrderBook.sol\":2024:2030  _order */\n      dup3\n        /* \"contracts/OrderBook.sol\":2024:2039  _order.customer */\n      0x00\n      add\n      mload\n        /* \"contracts/OrderBook.sol\":2024:2058  _order.customer == payable(sender) */\n      0xffffffffffffffffffffffffffffffffffffffff\n      and\n      eq\n        /* \"contracts/OrderBook.sol\":2016:2077  require(_order.customer == payable(sender), \"Not Authorised\") */\n      tag_125\n      jumpi\n      mload(0x40)\n      0x08c379a000000000000000000000000000000000000000000000000000000000\n      dup2\n      mstore\n      0x04\n      add\n      tag_126\n      swap1\n      tag_127\n      jump\t// in\n    tag_126:\n      mload(0x40)\n      dup1\n      swap2\n      sub\n      swap1\n      revert\n    tag_125:\n        /* \"contracts/OrderBook.sol\":5377:5384  askBook */\n      0x03\n        /* \"contracts/OrderBook.sol\":5385:5390  askId */\n      dup5\n        /* \"contracts/OrderBook.sol\":5377:5391  askBook[askId] */\n      dup2\n      sload\n      dup2\n      lt\n      tag_129\n      jumpi\n      tag_130\n      tag_93\n      jump\t// in\n    tag_130:\n    tag_129:\n      swap1\n      0x00\n      mstore\n      keccak256(0x00, 0x20)\n      swap1\n      0x04\n      mul\n      add\n        /* \"contracts/OrderBook.sol\":5377:5400  askBook[askId].customer */\n      0x00\n      add\n      0x00\n      swap1\n      sload\n      swap1\n      0x0100\n      exp\n      swap1\n      div\n      0xffffffffffffffffffffffffffffffffffffffff\n      and\n        /* \"contracts/OrderBook.sol\":5377:5409  askBook[askId].customer.transfer */\n      0xffffffffffffffffffffffffffffffffffffffff\n      and\n        /* \"contracts/OrderBook.sol\":5377:5431  askBook[askId].customer.transfer(askBook[askId].value) */\n      0x08fc\n        /* \"contracts/OrderBook.sol\":5410:5417  askBook */\n      0x03\n        /* \"contracts/OrderBook.sol\":5418:5423  askId */\n      dup7\n        /* \"contracts/OrderBook.sol\":5410:5424  askBook[askId] */\n      dup2\n      sload\n      dup2\n      lt\n      tag_132\n      jumpi\n      tag_133\n      tag_93\n      jump\t// in\n    tag_133:\n    tag_132:\n      swap1\n      0x00\n      mstore\n      keccak256(0x00, 0x20)\n      swap1\n      0x04\n      mul\n      add\n        /* \"contracts/OrderBook.sol\":5410:5430  askBook[askId].value */\n      0x01\n      add\n      sload\n        /* \"contracts/OrderBook.sol\":5377:5431  askBook[askId].customer.transfer(askBook[askId].value) */\n      swap1\n      dup2\n      iszero\n      mul\n      swap1\n      mload(0x40)\n      0x00\n      mload(0x40)\n      dup1\n      dup4\n      sub\n      dup2\n      dup6\n      dup9\n      dup9\n      call\n      swap4\n      pop\n      pop\n      pop\n      pop\n      iszero\n      dup1\n      iszero\n      tag_136\n      jumpi\n      returndatasize\n      0x00\n      dup1\n      returndatacopy\n      revert(0x00, returndatasize)\n    tag_136:\n      pop\n        /* \"contracts/OrderBook.sol\":5448:5455  askBook */\n      0x03\n        /* \"contracts/OrderBook.sol\":5456:5461  askId */\n      dup5\n        /* \"contracts/OrderBook.sol\":5448:5462  askBook[askId] */\n      dup2\n      sload\n      dup2\n      lt\n      tag_137\n      jumpi\n      tag_138\n      tag_93\n      jump\t// in\n    tag_138:\n    tag_137:\n      swap1\n      0x00\n      mstore\n      keccak256(0x00, 0x20)\n      swap1\n      0x04\n      mul\n      add\n      0x00\n        /* \"contracts/OrderBook.sol\":5441:5462  delete askBook[askId] */\n      dup1\n      dup3\n      add\n      exp(0x0100, 0x00)\n      dup2\n      sload\n      swap1\n      0xffffffffffffffffffffffffffffffffffffffff\n      mul\n      not\n      and\n      swap1\n      sstore\n      0x01\n      dup3\n      add\n      0x00\n      swap1\n      sstore\n      0x02\n      dup3\n      add\n      0x00\n      swap1\n      sstore\n      0x03\n      dup3\n      add\n      exp(0x0100, 0x00)\n      dup2\n      sload\n      swap1\n      0xff\n      mul\n      not\n      and\n      swap1\n      sstore\n      pop\n      pop\n        /* \"contracts/OrderBook.sol\":5472:5481  sortAsk() */\n      tag_140\n        /* \"contracts/OrderBook.sol\":5472:5479  sortAsk */\n      tag_141\n        /* \"contracts/OrderBook.sol\":5472:5481  sortAsk() */\n      jump\t// in\n    tag_140:\n        /* \"contracts/OrderBook.sol\":5502:5521  askCancelled(askId) */\n      0x48d3043fff66c1aee14954ac5aa463b0297fb08c9b60ee00486fb3387bb58aac\n        /* \"contracts/OrderBook.sol\":5515:5520  askId */\n      dup5\n        /* \"contracts/OrderBook.sol\":5502:5521  askCancelled(askId) */\n      mload(0x40)\n      tag_142\n      swap2\n      swap1\n      tag_34\n      jump\t// in\n    tag_142:\n      mload(0x40)\n      dup1\n      swap2\n      sub\n      swap1\n      log1\n        /* \"contracts/OrderBook.sol\":1933:1934  _ */\n      pop\n      pop\n        /* \"contracts/OrderBook.sol\":5261:5528  function cancelAsk (uint askId) public isPending(askBook[askId]) isAuthorised(askBook[askId], msg.sender) {... */\n      pop\n      pop\n      jump\t// out\n        /* \"contracts/OrderBook.sol\":6574:6675  function getBidValue (uint id) public view returns(uint256) {... */\n    tag_32:\n        /* \"contracts/OrderBook.sol\":6625:6632  uint256 */\n      0x00\n        /* \"contracts/OrderBook.sol\":6651:6658  bidBook */\n      0x02\n        /* \"contracts/OrderBook.sol\":6659:6661  id */\n      dup3\n        /* \"contracts/OrderBook.sol\":6651:6662  bidBook[id] */\n      dup2\n      sload\n      dup2\n      lt\n      tag_144\n      jumpi\n      tag_145\n      tag_93\n      jump\t// in\n    tag_145:\n    tag_144:\n      swap1\n      0x00\n      mstore\n      keccak256(0x00, 0x20)\n      swap1\n      0x04\n      mul\n      add\n        /* \"contracts/OrderBook.sol\":6651:6668  bidBook[id].value */\n      0x01\n      add\n      sload\n        /* \"contracts/OrderBook.sol\":6644:6668  return bidBook[id].value */\n      swap1\n      pop\n        /* \"contracts/OrderBook.sol\":6574:6675  function getBidValue (uint id) public view returns(uint256) {... */\n      swap2\n      swap1\n      pop\n      jump\t// out\n        /* \"contracts/OrderBook.sol\":5562:5653  function fetchAllBid() public view returns (order[] memory) {... */\n    tag_37:\n        /* \"contracts/OrderBook.sol\":5606:5620  order[] memory */\n      0x60\n        /* \"contracts/OrderBook.sol\":5639:5646  bidBook */\n      0x02\n        /* \"contracts/OrderBook.sol\":5632:5646  return bidBook */\n      dup1\n      sload\n      dup1\n      0x20\n      mul\n      0x20\n      add\n      mload(0x40)\n      swap1\n      dup2\n      add\n      0x40\n      mstore\n      dup1\n      swap3\n      swap2\n      swap1\n      dup2\n      dup2\n      mstore\n      0x20\n      add\n      0x00\n      swap1\n    tag_148:\n      dup3\n      dup3\n      lt\n      iszero\n      tag_149\n      jumpi\n      dup4\n      dup3\n      swap1\n      0x00\n      mstore\n      keccak256(0x00, 0x20)\n      swap1\n      0x04\n      mul\n      add\n      mload(0x40)\n      dup1\n      0x80\n      add\n      0x40\n      mstore\n      swap1\n      dup2\n      0x00\n      dup3\n      add\n      0x00\n      swap1\n      sload\n      swap1\n      0x0100\n      exp\n      swap1\n      div\n      0xffffffffffffffffffffffffffffffffffffffff\n      and\n      0xffffffffffffffffffffffffffffffffffffffff\n      and\n      0xffffffffffffffffffffffffffffffffffffffff\n      and\n      dup2\n      mstore\n      0x20\n      add\n      0x01\n      dup3\n      add\n      sload\n      dup2\n      mstore\n      0x20\n      add\n      0x02\n      dup3\n      add\n      sload\n      dup2\n      mstore\n      0x20\n      add\n      0x03\n      dup3\n      add\n      0x00\n      swap1\n      sload\n      swap1\n      0x0100\n      exp\n      swap1\n      div\n      0xff\n      and\n      0x01\n      dup2\n      gt\n      iszero\n      tag_151\n      jumpi\n      tag_152\n      tag_106\n      jump\t// in\n    tag_152:\n    tag_151:\n      0x01\n      dup2\n      gt\n      iszero\n      tag_153\n      jumpi\n      tag_154\n      tag_106\n      jump\t// in\n    tag_154:\n    tag_153:\n      dup2\n      mstore\n      pop\n      pop\n      dup2\n      mstore\n      0x20\n      add\n      swap1\n      0x01\n      add\n      swap1\n      jump(tag_148)\n    tag_149:\n      pop\n      pop\n      pop\n      pop\n      swap1\n      pop\n        /* \"contracts/OrderBook.sol\":5562:5653  function fetchAllBid() public view returns (order[] memory) {... */\n      swap1\n      jump\t// out\n        /* \"contracts/OrderBook.sol\":6893:6992  function getAskState (uint id) public view returns(State) {... */\n    tag_43:\n        /* \"contracts/OrderBook.sol\":6944:6949  State */\n      0x00\n        /* \"contracts/OrderBook.sol\":6968:6975  askBook */\n      0x03\n        /* \"contracts/OrderBook.sol\":6976:6978  id */\n      dup3\n        /* \"contracts/OrderBook.sol\":6968:6979  askBook[id] */\n      dup2\n      sload\n      dup2\n      lt\n      tag_156\n      jumpi\n      tag_157\n      tag_93\n      jump\t// in\n    tag_157:\n    tag_156:\n      swap1\n      0x00\n      mstore\n      keccak256(0x00, 0x20)\n      swap1\n      0x04\n      mul\n      add\n        /* \"contracts/OrderBook.sol\":6968:6985  askBook[id].state */\n      0x03\n      add\n      0x00\n      swap1\n      sload\n      swap1\n      0x0100\n      exp\n      swap1\n      div\n      0xff\n      and\n        /* \"contracts/OrderBook.sol\":6961:6985  return askBook[id].state */\n      swap1\n      pop\n        /* \"contracts/OrderBook.sol\":6893:6992  function getAskState (uint id) public view returns(State) {... */\n      swap2\n      swap1\n      pop\n      jump\t// out\n        /* \"contracts/OrderBook.sol\":6334:6448  function getBidAddress (uint id) public view returns(address payable) {... */\n    tag_49:\n        /* \"contracts/OrderBook.sol\":6387:6402  address payable */\n      0x00\n        /* \"contracts/OrderBook.sol\":6421:6428  bidBook */\n      0x02\n        /* \"contracts/OrderBook.sol\":6429:6431  id */\n      dup3\n        /* \"contracts/OrderBook.sol\":6421:6432  bidBook[id] */\n      dup2\n      sload\n      dup2\n      lt\n      tag_160\n      jumpi\n      tag_161\n      tag_93\n      jump\t// in\n    tag_161:\n    tag_160:\n      swap1\n      0x00\n      mstore\n      keccak256(0x00, 0x20)\n      swap1\n      0x04\n      mul\n      add\n        /* \"contracts/OrderBook.sol\":6421:6441  bidBook[id].customer */\n      0x00\n      add\n      0x00\n      swap1\n      sload\n      swap1\n      0x0100\n      exp\n      swap1\n      div\n      0xffffffffffffffffffffffffffffffffffffffff\n      and\n        /* \"contracts/OrderBook.sol\":6414:6441  return bidBook[id].customer */\n      swap1\n      pop\n        /* \"contracts/OrderBook.sol\":6334:6448  function getBidAddress (uint id) public view returns(address payable) {... */\n      swap2\n      swap1\n      pop\n      jump\t// out\n        /* \"contracts/OrderBook.sol\":6454:6568  function getAskAddress (uint id) public view returns(address payable) {... */\n    tag_55:\n        /* \"contracts/OrderBook.sol\":6507:6522  address payable */\n      0x00\n        /* \"contracts/OrderBook.sol\":6541:6548  askBook */\n      0x03\n        /* \"contracts/OrderBook.sol\":6549:6551  id */\n      dup3\n        /* \"contracts/OrderBook.sol\":6541:6552  askBook[id] */\n      dup2\n      sload\n      dup2\n      lt\n      tag_164\n      jumpi\n      tag_165\n      tag_93\n      jump\t// in\n    tag_165:\n    tag_164:\n      swap1\n      0x00\n      mstore\n      keccak256(0x00, 0x20)\n      swap1\n      0x04\n      mul\n      add\n        /* \"contracts/OrderBook.sol\":6541:6561  askBook[id].customer */\n      0x00\n      add\n      0x00\n      swap1\n      sload\n      swap1\n      0x0100\n      exp\n      swap1\n      div\n      0xffffffffffffffffffffffffffffffffffffffff\n      and\n        /* \"contracts/OrderBook.sol\":6534:6561  return askBook[id].customer */\n      swap1\n      pop\n        /* \"contracts/OrderBook.sol\":6454:6568  function getAskAddress (uint id) public view returns(address payable) {... */\n      swap2\n      swap1\n      pop\n      jump\t// out\n        /* \"contracts/OrderBook.sol\":4710:5255  function placeAsk (uint256 price) public payable {... */\n    tag_59:\n        /* \"contracts/OrderBook.sol\":4786:4787  0 */\n      0x00\n        /* \"contracts/OrderBook.sol\":4777:4782  price */\n      dup2\n        /* \"contracts/OrderBook.sol\":4777:4787  price >= 0 */\n      lt\n      iszero\n        /* \"contracts/OrderBook.sol\":4769:4823  require(price >= 0, \"price value must be more than 0\") */\n      tag_168\n      jumpi\n      mload(0x40)\n      0x08c379a000000000000000000000000000000000000000000000000000000000\n      dup2\n      mstore\n      0x04\n      add\n      tag_169\n      swap1\n      tag_170\n      jump\t// in\n    tag_169:\n      mload(0x40)\n      dup1\n      swap2\n      sub\n      swap1\n      revert\n    tag_168:\n        /* \"contracts/OrderBook.sol\":4854:4859  price */\n      dup1\n        /* \"contracts/OrderBook.sol\":4841:4850  msg.value */\n      callvalue\n        /* \"contracts/OrderBook.sol\":4841:4859  msg.value >= price */\n      lt\n      iszero\n        /* \"contracts/OrderBook.sol\":4833:4894  require(msg.value >= price, \"Not enough blance to place ask\") */\n      tag_171\n      jumpi\n      mload(0x40)\n      0x08c379a000000000000000000000000000000000000000000000000000000000\n      dup2\n      mstore\n      0x04\n      add\n      tag_172\n      swap1\n      tag_173\n      jump\t// in\n    tag_172:\n      mload(0x40)\n      dup1\n      swap2\n      sub\n      swap1\n      revert\n    tag_171:\n        /* \"contracts/OrderBook.sol\":4904:4916  uint256 time */\n      0x00\n        /* \"contracts/OrderBook.sol\":4919:4934  block.timestamp */\n      timestamp\n        /* \"contracts/OrderBook.sol\":4904:4934  uint256 time = block.timestamp */\n      swap1\n      pop\n        /* \"contracts/OrderBook.sol\":4944:4969  uint256 commissionedPrice */\n      0x00\n        /* \"contracts/OrderBook.sol\":5003:5006  100 */\n      0x64\n        /* \"contracts/OrderBook.sol\":4989:4999  commission */\n      sload(0x01)\n        /* \"contracts/OrderBook.sol\":4985:4988  100 */\n      0x64\n        /* \"contracts/OrderBook.sol\":4985:4999  100-commission */\n      tag_174\n      swap2\n      swap1\n      tag_175\n      jump\t// in\n    tag_174:\n        /* \"contracts/OrderBook.sol\":4972:4981  msg.value */\n      callvalue\n        /* \"contracts/OrderBook.sol\":4972:5000  msg.value * (100-commission) */\n      tag_176\n      swap2\n      swap1\n      tag_177\n      jump\t// in\n    tag_176:\n        /* \"contracts/OrderBook.sol\":4972:5006  msg.value * (100-commission) / 100 */\n      tag_178\n      swap2\n      swap1\n      tag_179\n      jump\t// in\n    tag_178:\n        /* \"contracts/OrderBook.sol\":4944:5006  uint256 commissionedPrice = msg.value * (100-commission) / 100 */\n      swap1\n      pop\n        /* \"contracts/OrderBook.sol\":5016:5035  order memory newBid */\n      0x00\n        /* \"contracts/OrderBook.sol\":5038:5101  order(payable(msg.sender),commissionedPrice,time,State.pending) */\n      mload(0x40)\n      dup1\n      0x80\n      add\n      0x40\n      mstore\n      dup1\n        /* \"contracts/OrderBook.sol\":5052:5062  msg.sender */\n      caller\n        /* \"contracts/OrderBook.sol\":5038:5101  order(payable(msg.sender),commissionedPrice,time,State.pending) */\n      0xffffffffffffffffffffffffffffffffffffffff\n      and\n      dup2\n      mstore\n      0x20\n      add\n        /* \"contracts/OrderBook.sol\":5064:5081  commissionedPrice */\n      dup4\n        /* \"contracts/OrderBook.sol\":5038:5101  order(payable(msg.sender),commissionedPrice,time,State.pending) */\n      dup2\n      mstore\n      0x20\n      add\n        /* \"contracts/OrderBook.sol\":5082:5086  time */\n      dup5\n        /* \"contracts/OrderBook.sol\":5038:5101  order(payable(msg.sender),commissionedPrice,time,State.pending) */\n      dup2\n      mstore\n      0x20\n      add\n        /* \"contracts/OrderBook.sol\":5087:5100  State.pending */\n      0x00\n        /* \"contracts/OrderBook.sol\":5038:5101  order(payable(msg.sender),commissionedPrice,time,State.pending) */\n      0x01\n      dup2\n      gt\n      iszero\n      tag_180\n      jumpi\n      tag_181\n      tag_106\n      jump\t// in\n    tag_181:\n    tag_180:\n      dup2\n      mstore\n      pop\n        /* \"contracts/OrderBook.sol\":5016:5101  order memory newBid = order(payable(msg.sender),commissionedPrice,time,State.pending) */\n      swap1\n      pop\n        /* \"contracts/OrderBook.sol\":5111:5118  askBook */\n      0x03\n        /* \"contracts/OrderBook.sol\":5124:5130  newBid */\n      dup2\n        /* \"contracts/OrderBook.sol\":5111:5131  askBook.push(newBid) */\n      swap1\n      dup1\n      0x01\n      dup2\n      sload\n      add\n      dup1\n      dup3\n      sstore\n      dup1\n      swap2\n      pop\n      pop\n      0x01\n      swap1\n      sub\n      swap1\n      0x00\n      mstore\n      keccak256(0x00, 0x20)\n      swap1\n      0x04\n      mul\n      add\n      0x00\n      swap1\n      swap2\n      swap1\n      swap2\n      swap1\n      swap2\n      pop\n      0x00\n      dup3\n      add\n      mload\n      dup2\n      0x00\n      add\n      exp(0x0100, 0x00)\n      dup2\n      sload\n      dup2\n      0xffffffffffffffffffffffffffffffffffffffff\n      mul\n      not\n      and\n      swap1\n      dup4\n      0xffffffffffffffffffffffffffffffffffffffff\n      and\n      mul\n      or\n      swap1\n      sstore\n      pop\n      0x20\n      dup3\n      add\n      mload\n      dup2\n      0x01\n      add\n      sstore\n      0x40\n      dup3\n      add\n      mload\n      dup2\n      0x02\n      add\n      sstore\n      0x60\n      dup3\n      add\n      mload\n      dup2\n      0x03\n      add\n      exp(0x0100, 0x00)\n      dup2\n      sload\n      dup2\n      0xff\n      mul\n      not\n      and\n      swap1\n      dup4\n      0x01\n      dup2\n      gt\n      iszero\n      tag_183\n      jumpi\n      tag_184\n      tag_106\n      jump\t// in\n    tag_184:\n    tag_183:\n      mul\n      or\n      swap1\n      sstore\n      pop\n      pop\n      pop\n        /* \"contracts/OrderBook.sol\":5141:5147  _owner */\n      0x00\n      dup1\n      sload\n      swap1\n      0x0100\n      exp\n      swap1\n      div\n      0xffffffffffffffffffffffffffffffffffffffff\n      and\n        /* \"contracts/OrderBook.sol\":5141:5156  _owner.transfer */\n      0xffffffffffffffffffffffffffffffffffffffff\n      and\n        /* \"contracts/OrderBook.sol\":5141:5175  _owner.transfer(commissionedPrice) */\n      0x08fc\n        /* \"contracts/OrderBook.sol\":5157:5174  commissionedPrice */\n      dup4\n        /* \"contracts/OrderBook.sol\":5141:5175  _owner.transfer(commissionedPrice) */\n      swap1\n      dup2\n      iszero\n      mul\n      swap1\n      mload(0x40)\n      0x00\n      mload(0x40)\n      dup1\n      dup4\n      sub\n      dup2\n      dup6\n      dup9\n      dup9\n      call\n      swap4\n      pop\n      pop\n      pop\n      pop\n      iszero\n      dup1\n      iszero\n      tag_186\n      jumpi\n      returndatasize\n      0x00\n      dup1\n      returndatacopy\n      revert(0x00, returndatasize)\n    tag_186:\n      pop\n        /* \"contracts/OrderBook.sol\":5190:5248  askPlaced(msg.sender,commissionedPrice,time,State.pending) */\n      0xc2125a7f3edfeff7a3bbcfe393c5aa3a6589585d4a7ee70db48c34f67c8209e2\n        /* \"contracts/OrderBook.sol\":5200:5210  msg.sender */\n      caller\n        /* \"contracts/OrderBook.sol\":5211:5228  commissionedPrice */\n      dup4\n        /* \"contracts/OrderBook.sol\":5229:5233  time */\n      dup6\n        /* \"contracts/OrderBook.sol\":5234:5247  State.pending */\n      0x00\n        /* \"contracts/OrderBook.sol\":5190:5248  askPlaced(msg.sender,commissionedPrice,time,State.pending) */\n      mload(0x40)\n      tag_187\n      swap5\n      swap4\n      swap3\n      swap2\n      swap1\n      tag_188\n      jump\t// in\n    tag_187:\n      mload(0x40)\n      dup1\n      swap2\n      sub\n      swap1\n      log1\n        /* \"contracts/OrderBook.sol\":4759:5255  {... */\n      pop\n      pop\n      pop\n        /* \"contracts/OrderBook.sol\":4710:5255  function placeAsk (uint256 price) public payable {... */\n      pop\n      jump\t// out\n        /* \"contracts/OrderBook.sol\":4443:4704  function cancelBid (uint bidId) public isPending(bidBook[bidId]) isAuthorised(bidBook[bidId], msg.sender) {... */\n    tag_63:\n        /* \"contracts/OrderBook.sol\":4492:4499  bidBook */\n      0x02\n        /* \"contracts/OrderBook.sol\":4500:4505  bidId */\n      dup2\n        /* \"contracts/OrderBook.sol\":4492:4506  bidBook[bidId] */\n      dup2\n      sload\n      dup2\n      lt\n      tag_189\n      jumpi\n      tag_190\n      tag_93\n      jump\t// in\n    tag_190:\n    tag_189:\n      swap1\n      0x00\n      mstore\n      keccak256(0x00, 0x20)\n      swap1\n      0x04\n      mul\n      add\n        /* \"contracts/OrderBook.sol\":1818:1941  modifier isPending(order memory _order) {... */\n      mload(0x40)\n      dup1\n      0x80\n      add\n      0x40\n      mstore\n      swap1\n      dup2\n      0x00\n      dup3\n      add\n      0x00\n      swap1\n      sload\n      swap1\n      0x0100\n      exp\n      swap1\n      div\n      0xffffffffffffffffffffffffffffffffffffffff\n      and\n      0xffffffffffffffffffffffffffffffffffffffff\n      and\n      0xffffffffffffffffffffffffffffffffffffffff\n      and\n      dup2\n      mstore\n      0x20\n      add\n      0x01\n      dup3\n      add\n      sload\n      dup2\n      mstore\n      0x20\n      add\n      0x02\n      dup3\n      add\n      sload\n      dup2\n      mstore\n      0x20\n      add\n      0x03\n      dup3\n      add\n      0x00\n      swap1\n      sload\n      swap1\n      0x0100\n      exp\n      swap1\n      div\n      0xff\n      and\n      0x01\n      dup2\n      gt\n      iszero\n      tag_192\n      jumpi\n      tag_193\n      tag_106\n      jump\t// in\n    tag_193:\n    tag_192:\n      0x01\n      dup2\n      gt\n      iszero\n      tag_194\n      jumpi\n      tag_195\n      tag_106\n      jump\t// in\n    tag_195:\n    tag_194:\n      dup2\n      mstore\n      pop\n      pop\n        /* \"contracts/OrderBook.sol\":1892:1905  State.pending */\n      0x00\n        /* \"contracts/OrderBook.sol\":1876:1905  _order.state == State.pending */\n      0x01\n      dup2\n      gt\n      iszero\n      tag_197\n      jumpi\n      tag_198\n      tag_106\n      jump\t// in\n    tag_198:\n    tag_197:\n        /* \"contracts/OrderBook.sol\":1876:1882  _order */\n      dup2\n        /* \"contracts/OrderBook.sol\":1876:1888  _order.state */\n      0x60\n      add\n      mload\n        /* \"contracts/OrderBook.sol\":1876:1905  _order.state == State.pending */\n      0x01\n      dup2\n      gt\n      iszero\n      tag_199\n      jumpi\n      tag_200\n      tag_106\n      jump\t// in\n    tag_200:\n    tag_199:\n      eq\n        /* \"contracts/OrderBook.sol\":1868:1923  require(_order.state == State.pending, \"Order Pending\") */\n      tag_201\n      jumpi\n      mload(0x40)\n      0x08c379a000000000000000000000000000000000000000000000000000000000\n      dup2\n      mstore\n      0x04\n      add\n      tag_202\n      swap1\n      tag_116\n      jump\t// in\n    tag_202:\n      mload(0x40)\n      dup1\n      swap2\n      sub\n      swap1\n      revert\n    tag_201:\n        /* \"contracts/OrderBook.sol\":4521:4528  bidBook */\n      0x02\n        /* \"contracts/OrderBook.sol\":4529:4534  bidId */\n      dup3\n        /* \"contracts/OrderBook.sol\":4521:4535  bidBook[bidId] */\n      dup2\n      sload\n      dup2\n      lt\n      tag_203\n      jumpi\n      tag_204\n      tag_93\n      jump\t// in\n    tag_204:\n    tag_203:\n      swap1\n      0x00\n      mstore\n      keccak256(0x00, 0x20)\n      swap1\n      0x04\n      mul\n      add\n        /* \"contracts/OrderBook.sol\":1947:2095  modifier isAuthorised(order memory _order, address sender) {... */\n      mload(0x40)\n      dup1\n      0x80\n      add\n      0x40\n      mstore\n      swap1\n      dup2\n      0x00\n      dup3\n      add\n      0x00\n      swap1\n      sload\n      swap1\n      0x0100\n      exp\n      swap1\n      div\n      0xffffffffffffffffffffffffffffffffffffffff\n      and\n      0xffffffffffffffffffffffffffffffffffffffff\n      and\n      0xffffffffffffffffffffffffffffffffffffffff\n      and\n      dup2\n      mstore\n      0x20\n      add\n      0x01\n      dup3\n      add\n      sload\n      dup2\n      mstore\n      0x20\n      add\n      0x02\n      dup3\n      add\n      sload\n      dup2\n      mstore\n      0x20\n      add\n      0x03\n      dup3\n      add\n      0x00\n      swap1\n      sload\n      swap1\n      0x0100\n      exp\n      swap1\n      div\n      0xff\n      and\n      0x01\n      dup2\n      gt\n      iszero\n      tag_206\n      jumpi\n      tag_207\n      tag_106\n      jump\t// in\n    tag_207:\n    tag_206:\n      0x01\n      dup2\n      gt\n      iszero\n      tag_208\n      jumpi\n      tag_209\n      tag_106\n      jump\t// in\n    tag_209:\n    tag_208:\n      dup2\n      mstore\n      pop\n      pop\n        /* \"contracts/OrderBook.sol\":4537:4547  msg.sender */\n      caller\n        /* \"contracts/OrderBook.sol\":2051:2057  sender */\n      dup1\n        /* \"contracts/OrderBook.sol\":2024:2058  _order.customer == payable(sender) */\n      0xffffffffffffffffffffffffffffffffffffffff\n      and\n        /* \"contracts/OrderBook.sol\":2024:2030  _order */\n      dup3\n        /* \"contracts/OrderBook.sol\":2024:2039  _order.customer */\n      0x00\n      add\n      mload\n        /* \"contracts/OrderBook.sol\":2024:2058  _order.customer == payable(sender) */\n      0xffffffffffffffffffffffffffffffffffffffff\n      and\n      eq\n        /* \"contracts/OrderBook.sol\":2016:2077  require(_order.customer == payable(sender), \"Not Authorised\") */\n      tag_211\n      jumpi\n      mload(0x40)\n      0x08c379a000000000000000000000000000000000000000000000000000000000\n      dup2\n      mstore\n      0x04\n      add\n      tag_212\n      swap1\n      tag_127\n      jump\t// in\n    tag_212:\n      mload(0x40)\n      dup1\n      swap2\n      sub\n      swap1\n      revert\n    tag_211:\n        /* \"contracts/OrderBook.sol\":4559:4566  bidBook */\n      0x02\n        /* \"contracts/OrderBook.sol\":4567:4572  bidId */\n      dup5\n        /* \"contracts/OrderBook.sol\":4559:4573  bidBook[bidId] */\n      dup2\n      sload\n      dup2\n      lt\n      tag_214\n      jumpi\n      tag_215\n      tag_93\n      jump\t// in\n    tag_215:\n    tag_214:\n      swap1\n      0x00\n      mstore\n      keccak256(0x00, 0x20)\n      swap1\n      0x04\n      mul\n      add\n        /* \"contracts/OrderBook.sol\":4559:4582  bidBook[bidId].customer */\n      0x00\n      add\n      0x00\n      swap1\n      sload\n      swap1\n      0x0100\n      exp\n      swap1\n      div\n      0xffffffffffffffffffffffffffffffffffffffff\n      and\n        /* \"contracts/OrderBook.sol\":4559:4591  bidBook[bidId].customer.transfer */\n      0xffffffffffffffffffffffffffffffffffffffff\n      and\n        /* \"contracts/OrderBook.sol\":4559:4613  bidBook[bidId].customer.transfer(bidBook[bidId].value) */\n      0x08fc\n        /* \"contracts/OrderBook.sol\":4592:4599  bidBook */\n      0x02\n        /* \"contracts/OrderBook.sol\":4600:4605  bidId */\n      dup7\n        /* \"contracts/OrderBook.sol\":4592:4606  bidBook[bidId] */\n      dup2\n      sload\n      dup2\n      lt\n      tag_217\n      jumpi\n      tag_218\n      tag_93\n      jump\t// in\n    tag_218:\n    tag_217:\n      swap1\n      0x00\n      mstore\n      keccak256(0x00, 0x20)\n      swap1\n      0x04\n      mul\n      add\n        /* \"contracts/OrderBook.sol\":4592:4612  bidBook[bidId].value */\n      0x01\n      add\n      sload\n        /* \"contracts/OrderBook.sol\":4559:4613  bidBook[bidId].customer.transfer(bidBook[bidId].value) */\n      swap1\n      dup2\n      iszero\n      mul\n      swap1\n      mload(0x40)\n      0x00\n      mload(0x40)\n      dup1\n      dup4\n      sub\n      dup2\n      dup6\n      dup9\n      dup9\n      call\n      swap4\n      pop\n      pop\n      pop\n      pop\n      iszero\n      dup1\n      iszero\n      tag_221\n      jumpi\n      returndatasize\n      0x00\n      dup1\n      returndatacopy\n      revert(0x00, returndatasize)\n    tag_221:\n      pop\n        /* \"contracts/OrderBook.sol\":4630:4637  bidBook */\n      0x02\n        /* \"contracts/OrderBook.sol\":4638:4643  bidId */\n      dup5\n        /* \"contracts/OrderBook.sol\":4630:4644  bidBook[bidId] */\n      dup2\n      sload\n      dup2\n      lt\n      tag_222\n      jumpi\n      tag_223\n      tag_93\n      jump\t// in\n    tag_223:\n    tag_222:\n      swap1\n      0x00\n      mstore\n      keccak256(0x00, 0x20)\n      swap1\n      0x04\n      mul\n      add\n      0x00\n        /* \"contracts/OrderBook.sol\":4623:4644  delete bidBook[bidId] */\n      dup1\n      dup3\n      add\n      exp(0x0100, 0x00)\n      dup2\n      sload\n      swap1\n      0xffffffffffffffffffffffffffffffffffffffff\n      mul\n      not\n      and\n      swap1\n      sstore\n      0x01\n      dup3\n      add\n      0x00\n      swap1\n      sstore\n      0x02\n      dup3\n      add\n      0x00\n      swap1\n      sstore\n      0x03\n      dup3\n      add\n      exp(0x0100, 0x00)\n      dup2\n      sload\n      swap1\n      0xff\n      mul\n      not\n      and\n      swap1\n      sstore\n      pop\n      pop\n        /* \"contracts/OrderBook.sol\":4654:4663  sortBid() */\n      tag_225\n        /* \"contracts/OrderBook.sol\":4654:4661  sortBid */\n      tag_226\n        /* \"contracts/OrderBook.sol\":4654:4663  sortBid() */\n      jump\t// in\n    tag_225:\n        /* \"contracts/OrderBook.sol\":4678:4697  bidCancelled(bidId) */\n      0xc845a6832afa0a4048dd70bbba2186093508a6b63a8d5d70a508f819fef257f8\n        /* \"contracts/OrderBook.sol\":4691:4696  bidId */\n      dup5\n        /* \"contracts/OrderBook.sol\":4678:4697  bidCancelled(bidId) */\n      mload(0x40)\n      tag_227\n      swap2\n      swap1\n      tag_34\n      jump\t// in\n    tag_227:\n      mload(0x40)\n      dup1\n      swap2\n      sub\n      swap1\n      log1\n        /* \"contracts/OrderBook.sol\":1933:1934  _ */\n      pop\n      pop\n        /* \"contracts/OrderBook.sol\":4443:4704  function cancelBid (uint bidId) public isPending(bidBook[bidId]) isAuthorised(bidBook[bidId], msg.sender) {... */\n      pop\n      pop\n      jump\t// out\n        /* \"contracts/OrderBook.sol\":3892:4437  function placeBid (uint256 price) public payable {... */\n    tag_66:\n        /* \"contracts/OrderBook.sol\":3968:3969  0 */\n      0x00\n        /* \"contracts/OrderBook.sol\":3959:3964  price */\n      dup2\n        /* \"contracts/OrderBook.sol\":3959:3969  price >= 0 */\n      lt\n      iszero\n        /* \"contracts/OrderBook.sol\":3951:4005  require(price >= 0, \"price value must be more than 0\") */\n      tag_229\n      jumpi\n      mload(0x40)\n      0x08c379a000000000000000000000000000000000000000000000000000000000\n      dup2\n      mstore\n      0x04\n      add\n      tag_230\n      swap1\n      tag_170\n      jump\t// in\n    tag_230:\n      mload(0x40)\n      dup1\n      swap2\n      sub\n      swap1\n      revert\n    tag_229:\n        /* \"contracts/OrderBook.sol\":4036:4041  price */\n      dup1\n        /* \"contracts/OrderBook.sol\":4023:4032  msg.value */\n      callvalue\n        /* \"contracts/OrderBook.sol\":4023:4041  msg.value >= price */\n      lt\n      iszero\n        /* \"contracts/OrderBook.sol\":4015:4076  require(msg.value >= price, \"Not enough blance to place bid\") */\n      tag_231\n      jumpi\n      mload(0x40)\n      0x08c379a000000000000000000000000000000000000000000000000000000000\n      dup2\n      mstore\n      0x04\n      add\n      tag_232\n      swap1\n      tag_233\n      jump\t// in\n    tag_232:\n      mload(0x40)\n      dup1\n      swap2\n      sub\n      swap1\n      revert\n    tag_231:\n        /* \"contracts/OrderBook.sol\":4086:4098  uint256 time */\n      0x00\n        /* \"contracts/OrderBook.sol\":4101:4116  block.timestamp */\n      timestamp\n        /* \"contracts/OrderBook.sol\":4086:4116  uint256 time = block.timestamp */\n      swap1\n      pop\n        /* \"contracts/OrderBook.sol\":4126:4151  uint256 commissionedPrice */\n      0x00\n        /* \"contracts/OrderBook.sol\":4185:4188  100 */\n      0x64\n        /* \"contracts/OrderBook.sol\":4171:4181  commission */\n      sload(0x01)\n        /* \"contracts/OrderBook.sol\":4167:4170  100 */\n      0x64\n        /* \"contracts/OrderBook.sol\":4167:4181  100-commission */\n      tag_234\n      swap2\n      swap1\n      tag_175\n      jump\t// in\n    tag_234:\n        /* \"contracts/OrderBook.sol\":4154:4163  msg.value */\n      callvalue\n        /* \"contracts/OrderBook.sol\":4154:4182  msg.value * (100-commission) */\n      tag_235\n      swap2\n      swap1\n      tag_177\n      jump\t// in\n    tag_235:\n        /* \"contracts/OrderBook.sol\":4154:4188  msg.value * (100-commission) / 100 */\n      tag_236\n      swap2\n      swap1\n      tag_179\n      jump\t// in\n    tag_236:\n        /* \"contracts/OrderBook.sol\":4126:4188  uint256 commissionedPrice = msg.value * (100-commission) / 100 */\n      swap1\n      pop\n        /* \"contracts/OrderBook.sol\":4198:4217  order memory newBid */\n      0x00\n        /* \"contracts/OrderBook.sol\":4220:4283  order(payable(msg.sender),commissionedPrice,time,State.pending) */\n      mload(0x40)\n      dup1\n      0x80\n      add\n      0x40\n      mstore\n      dup1\n        /* \"contracts/OrderBook.sol\":4234:4244  msg.sender */\n      caller\n        /* \"contracts/OrderBook.sol\":4220:4283  order(payable(msg.sender),commissionedPrice,time,State.pending) */\n      0xffffffffffffffffffffffffffffffffffffffff\n      and\n      dup2\n      mstore\n      0x20\n      add\n        /* \"contracts/OrderBook.sol\":4246:4263  commissionedPrice */\n      dup4\n        /* \"contracts/OrderBook.sol\":4220:4283  order(payable(msg.sender),commissionedPrice,time,State.pending) */\n      dup2\n      mstore\n      0x20\n      add\n        /* \"contracts/OrderBook.sol\":4264:4268  time */\n      dup5\n        /* \"contracts/OrderBook.sol\":4220:4283  order(payable(msg.sender),commissionedPrice,time,State.pending) */\n      dup2\n      mstore\n      0x20\n      add\n        /* \"contracts/OrderBook.sol\":4269:4282  State.pending */\n      0x00\n        /* \"contracts/OrderBook.sol\":4220:4283  order(payable(msg.sender),commissionedPrice,time,State.pending) */\n      0x01\n      dup2\n      gt\n      iszero\n      tag_237\n      jumpi\n      tag_238\n      tag_106\n      jump\t// in\n    tag_238:\n    tag_237:\n      dup2\n      mstore\n      pop\n        /* \"contracts/OrderBook.sol\":4198:4283  order memory newBid = order(payable(msg.sender),commissionedPrice,time,State.pending) */\n      swap1\n      pop\n        /* \"contracts/OrderBook.sol\":4293:4300  bidBook */\n      0x02\n        /* \"contracts/OrderBook.sol\":4306:4312  newBid */\n      dup2\n        /* \"contracts/OrderBook.sol\":4293:4313  bidBook.push(newBid) */\n      swap1\n      dup1\n      0x01\n      dup2\n      sload\n      add\n      dup1\n      dup3\n      sstore\n      dup1\n      swap2\n      pop\n      pop\n      0x01\n      swap1\n      sub\n      swap1\n      0x00\n      mstore\n      keccak256(0x00, 0x20)\n      swap1\n      0x04\n      mul\n      add\n      0x00\n      swap1\n      swap2\n      swap1\n      swap2\n      swap1\n      swap2\n      pop\n      0x00\n      dup3\n      add\n      mload\n      dup2\n      0x00\n      add\n      exp(0x0100, 0x00)\n      dup2\n      sload\n      dup2\n      0xffffffffffffffffffffffffffffffffffffffff\n      mul\n      not\n      and\n      swap1\n      dup4\n      0xffffffffffffffffffffffffffffffffffffffff\n      and\n      mul\n      or\n      swap1\n      sstore\n      pop\n      0x20\n      dup3\n      add\n      mload\n      dup2\n      0x01\n      add\n      sstore\n      0x40\n      dup3\n      add\n      mload\n      dup2\n      0x02\n      add\n      sstore\n      0x60\n      dup3\n      add\n      mload\n      dup2\n      0x03\n      add\n      exp(0x0100, 0x00)\n      dup2\n      sload\n      dup2\n      0xff\n      mul\n      not\n      and\n      swap1\n      dup4\n      0x01\n      dup2\n      gt\n      iszero\n      tag_240\n      jumpi\n      tag_241\n      tag_106\n      jump\t// in\n    tag_241:\n    tag_240:\n      mul\n      or\n      swap1\n      sstore\n      pop\n      pop\n      pop\n        /* \"contracts/OrderBook.sol\":4323:4329  _owner */\n      0x00\n      dup1\n      sload\n      swap1\n      0x0100\n      exp\n      swap1\n      div\n      0xffffffffffffffffffffffffffffffffffffffff\n      and\n        /* \"contracts/OrderBook.sol\":4323:4338  _owner.transfer */\n      0xffffffffffffffffffffffffffffffffffffffff\n      and\n        /* \"contracts/OrderBook.sol\":4323:4357  _owner.transfer(commissionedPrice) */\n      0x08fc\n        /* \"contracts/OrderBook.sol\":4339:4356  commissionedPrice */\n      dup4\n        /* \"contracts/OrderBook.sol\":4323:4357  _owner.transfer(commissionedPrice) */\n      swap1\n      dup2\n      iszero\n      mul\n      swap1\n      mload(0x40)\n      0x00\n      mload(0x40)\n      dup1\n      dup4\n      sub\n      dup2\n      dup6\n      dup9\n      dup9\n      call\n      swap4\n      pop\n      pop\n      pop\n      pop\n      iszero\n      dup1\n      iszero\n      tag_243\n      jumpi\n      returndatasize\n      0x00\n      dup1\n      returndatacopy\n      revert(0x00, returndatasize)\n    tag_243:\n      pop\n        /* \"contracts/OrderBook.sol\":4372:4430  bidPlaced(msg.sender,commissionedPrice,time,State.pending) */\n      0xa64806d6d5d480697a0b11c92b915a4ff7b93c0be28171d65d30041a0c360d04\n        /* \"contracts/OrderBook.sol\":4382:4392  msg.sender */\n      caller\n        /* \"contracts/OrderBook.sol\":4393:4410  commissionedPrice */\n      dup4\n        /* \"contracts/OrderBook.sol\":4411:4415  time */\n      dup6\n        /* \"contracts/OrderBook.sol\":4416:4429  State.pending */\n      0x00\n        /* \"contracts/OrderBook.sol\":4372:4430  bidPlaced(msg.sender,commissionedPrice,time,State.pending) */\n      mload(0x40)\n      tag_244\n      swap5\n      swap4\n      swap3\n      swap2\n      swap1\n      tag_188\n      jump\t// in\n    tag_244:\n      mload(0x40)\n      dup1\n      swap2\n      sub\n      swap1\n      log1\n        /* \"contracts/OrderBook.sol\":3941:4437  {... */\n      pop\n      pop\n      pop\n        /* \"contracts/OrderBook.sol\":3892:4437  function placeBid (uint256 price) public payable {... */\n      pop\n      jump\t// out\n        /* \"contracts/OrderBook.sol\":6788:6887  function getBidState (uint id) public view returns(State) {... */\n    tag_70:\n        /* \"contracts/OrderBook.sol\":6839:6844  State */\n      0x00\n        /* \"contracts/OrderBook.sol\":6863:6870  bidBook */\n      0x02\n        /* \"contracts/OrderBook.sol\":6871:6873  id */\n      dup3\n        /* \"contracts/OrderBook.sol\":6863:6874  bidBook[id] */\n      dup2\n      sload\n      dup2\n      lt\n      tag_246\n      jumpi\n      tag_247\n      tag_93\n      jump\t// in\n    tag_247:\n    tag_246:\n      swap1\n      0x00\n      mstore\n      keccak256(0x00, 0x20)\n      swap1\n      0x04\n      mul\n      add\n        /* \"contracts/OrderBook.sol\":6863:6880  bidBook[id].state */\n      0x03\n      add\n      0x00\n      swap1\n      sload\n      swap1\n      0x0100\n      exp\n      swap1\n      div\n      0xff\n      and\n        /* \"contracts/OrderBook.sol\":6856:6880  return bidBook[id].state */\n      swap1\n      pop\n        /* \"contracts/OrderBook.sol\":6788:6887  function getBidState (uint id) public view returns(State) {... */\n      swap2\n      swap1\n      pop\n      jump\t// out\n        /* \"contracts/OrderBook.sol\":5659:5750  function fetchAllAsk() public view returns (order[] memory) {... */\n    tag_74:\n        /* \"contracts/OrderBook.sol\":5703:5717  order[] memory */\n      0x60\n        /* \"contracts/OrderBook.sol\":5736:5743  askBook */\n      0x03\n        /* \"contracts/OrderBook.sol\":5729:5743  return askBook */\n      dup1\n      sload\n      dup1\n      0x20\n      mul\n      0x20\n      add\n      mload(0x40)\n      swap1\n      dup2\n      add\n      0x40\n      mstore\n      dup1\n      swap3\n      swap2\n      swap1\n      dup2\n      dup2\n      mstore\n      0x20\n      add\n      0x00\n      swap1\n    tag_250:\n      dup3\n      dup3\n      lt\n      iszero\n      tag_251\n      jumpi\n      dup4\n      dup3\n      swap1\n      0x00\n      mstore\n      keccak256(0x00, 0x20)\n      swap1\n      0x04\n      mul\n      add\n      mload(0x40)\n      dup1\n      0x80\n      add\n      0x40\n      mstore\n      swap1\n      dup2\n      0x00\n      dup3\n      add\n      0x00\n      swap1\n      sload\n      swap1\n      0x0100\n      exp\n      swap1\n      div\n      0xffffffffffffffffffffffffffffffffffffffff\n      and\n      0xffffffffffffffffffffffffffffffffffffffff\n      and\n      0xffffffffffffffffffffffffffffffffffffffff\n      and\n      dup2\n      mstore\n      0x20\n      add\n      0x01\n      dup3\n      add\n      sload\n      dup2\n      mstore\n      0x20\n      add\n      0x02\n      dup3\n      add\n      sload\n      dup2\n      mstore\n      0x20\n      add\n      0x03\n      dup3\n      add\n      0x00\n      swap1\n      sload\n      swap1\n      0x0100\n      exp\n      swap1\n      div\n      0xff\n      and\n      0x01\n      dup2\n      gt\n      iszero\n      tag_253\n      jumpi\n      tag_254\n      tag_106\n      jump\t// in\n    tag_254:\n    tag_253:\n      0x01\n      dup2\n      gt\n      iszero\n      tag_255\n      jumpi\n      tag_256\n      tag_106\n      jump\t// in\n    tag_256:\n    tag_255:\n      dup2\n      mstore\n      pop\n      pop\n      dup2\n      mstore\n      0x20\n      add\n      swap1\n      0x01\n      add\n      swap1\n      jump(tag_250)\n    tag_251:\n      pop\n      pop\n      pop\n      pop\n      swap1\n      pop\n        /* \"contracts/OrderBook.sol\":5659:5750  function fetchAllAsk() public view returns (order[] memory) {... */\n      swap1\n      jump\t// out\n        /* \"contracts/OrderBook.sol\":5756:6039  function fetchYourBidIds() public returns (uint[] memory) {... */\n    tag_78:\n        /* \"contracts/OrderBook.sol\":5799:5812  uint[] memory */\n      0x60\n        /* \"contracts/OrderBook.sol\":5824:5837  deleteArray() */\n      tag_258\n        /* \"contracts/OrderBook.sol\":5824:5835  deleteArray */\n      tag_87\n        /* \"contracts/OrderBook.sol\":5824:5837  deleteArray() */\n      jump\t// in\n    tag_258:\n        /* \"contracts/OrderBook.sol\":5852:5858  uint i */\n      0x00\n        /* \"contracts/OrderBook.sol\":5847:6009  for (uint i = 0; i < bidBook.length; i++) {... */\n    tag_259:\n        /* \"contracts/OrderBook.sol\":5868:5875  bidBook */\n      0x02\n        /* \"contracts/OrderBook.sol\":5868:5882  bidBook.length */\n      dup1\n      sload\n      swap1\n      pop\n        /* \"contracts/OrderBook.sol\":5864:5865  i */\n      dup2\n        /* \"contracts/OrderBook.sol\":5864:5882  i < bidBook.length */\n      lt\n        /* \"contracts/OrderBook.sol\":5847:6009  for (uint i = 0; i < bidBook.length; i++) {... */\n      iszero\n      tag_260\n      jumpi\n        /* \"contracts/OrderBook.sol\":5938:5948  msg.sender */\n      caller\n        /* \"contracts/OrderBook.sol\":5907:5949  bidBook[i].customer == payable(msg.sender) */\n      0xffffffffffffffffffffffffffffffffffffffff\n      and\n        /* \"contracts/OrderBook.sol\":5907:5914  bidBook */\n      0x02\n        /* \"contracts/OrderBook.sol\":5915:5916  i */\n      dup3\n        /* \"contracts/OrderBook.sol\":5907:5917  bidBook[i] */\n      dup2\n      sload\n      dup2\n      lt\n      tag_262\n      jumpi\n      tag_263\n      tag_93\n      jump\t// in\n    tag_263:\n    tag_262:\n      swap1\n      0x00\n      mstore\n      keccak256(0x00, 0x20)\n      swap1\n      0x04\n      mul\n      add\n        /* \"contracts/OrderBook.sol\":5907:5926  bidBook[i].customer */\n      0x00\n      add\n      0x00\n      swap1\n      sload\n      swap1\n      0x0100\n      exp\n      swap1\n      div\n      0xffffffffffffffffffffffffffffffffffffffff\n      and\n        /* \"contracts/OrderBook.sol\":5907:5949  bidBook[i].customer == payable(msg.sender) */\n      0xffffffffffffffffffffffffffffffffffffffff\n      and\n      sub\n        /* \"contracts/OrderBook.sol\":5903:5999  if (bidBook[i].customer == payable(msg.sender)) {... */\n      tag_265\n      jumpi\n        /* \"contracts/OrderBook.sol\":5969:5976  request */\n      0x04\n        /* \"contracts/OrderBook.sol\":5982:5983  i */\n      dup2\n        /* \"contracts/OrderBook.sol\":5969:5984  request.push(i) */\n      swap1\n      dup1\n      0x01\n      dup2\n      sload\n      add\n      dup1\n      dup3\n      sstore\n      dup1\n      swap2\n      pop\n      pop\n      0x01\n      swap1\n      sub\n      swap1\n      0x00\n      mstore\n      keccak256(0x00, 0x20)\n      add\n      0x00\n      swap1\n      swap2\n      swap1\n      swap2\n      swap1\n      swap2\n      pop\n      sstore\n        /* \"contracts/OrderBook.sol\":5903:5999  if (bidBook[i].customer == payable(msg.sender)) {... */\n    tag_265:\n        /* \"contracts/OrderBook.sol\":5884:5887  i++ */\n      dup1\n      dup1\n      tag_267\n      swap1\n      tag_98\n      jump\t// in\n    tag_267:\n      swap2\n      pop\n      pop\n        /* \"contracts/OrderBook.sol\":5847:6009  for (uint i = 0; i < bidBook.length; i++) {... */\n      jump(tag_259)\n    tag_260:\n      pop\n        /* \"contracts/OrderBook.sol\":6025:6032  request */\n      0x04\n        /* \"contracts/OrderBook.sol\":6018:6032  return request */\n      dup1\n      sload\n      dup1\n      0x20\n      mul\n      0x20\n      add\n      mload(0x40)\n      swap1\n      dup2\n      add\n      0x40\n      mstore\n      dup1\n      swap3\n      swap2\n      swap1\n      dup2\n      dup2\n      mstore\n      0x20\n      add\n      dup3\n      dup1\n      sload\n      dup1\n      iszero\n      tag_268\n      jumpi\n      0x20\n      mul\n      dup3\n      add\n      swap2\n      swap1\n      0x00\n      mstore\n      keccak256(0x00, 0x20)\n      swap1\n    tag_269:\n      dup2\n      sload\n      dup2\n      mstore\n      0x20\n      add\n      swap1\n      0x01\n      add\n      swap1\n      dup1\n      dup4\n      gt\n      tag_269\n      jumpi\n    tag_268:\n      pop\n      pop\n      pop\n      pop\n      pop\n      swap1\n      pop\n        /* \"contracts/OrderBook.sol\":5756:6039  function fetchYourBidIds() public returns (uint[] memory) {... */\n      swap1\n      jump\t// out\n        /* \"contracts/OrderBook.sol\":6681:6782  function getAskValue (uint id) public view returns(uint256) {... */\n    tag_83:\n        /* \"contracts/OrderBook.sol\":6732:6739  uint256 */\n      0x00\n        /* \"contracts/OrderBook.sol\":6758:6765  askBook */\n      0x03\n        /* \"contracts/OrderBook.sol\":6766:6768  id */\n      dup3\n        /* \"contracts/OrderBook.sol\":6758:6769  askBook[id] */\n      dup2\n      sload\n      dup2\n      lt\n      tag_271\n      jumpi\n      tag_272\n      tag_93\n      jump\t// in\n    tag_272:\n    tag_271:\n      swap1\n      0x00\n      mstore\n      keccak256(0x00, 0x20)\n      swap1\n      0x04\n      mul\n      add\n        /* \"contracts/OrderBook.sol\":6758:6775  askBook[id].value */\n      0x01\n      add\n      sload\n        /* \"contracts/OrderBook.sol\":6751:6775  return askBook[id].value */\n      swap1\n      pop\n        /* \"contracts/OrderBook.sol\":6681:6782  function getAskValue (uint id) public view returns(uint256) {... */\n      swap2\n      swap1\n      pop\n      jump\t// out\n        /* \"contracts/OrderBook.sol\":2380:2513  function deleteArray() internal {... */\n    tag_87:\n        /* \"contracts/OrderBook.sol\":2427:2433  uint i */\n      0x00\n        /* \"contracts/OrderBook.sol\":2422:2507  for (uint i = 0; i < request.length; i ++) {... */\n    tag_275:\n        /* \"contracts/OrderBook.sol\":2443:2450  request */\n      0x04\n        /* \"contracts/OrderBook.sol\":2443:2457  request.length */\n      dup1\n      sload\n      swap1\n      pop\n        /* \"contracts/OrderBook.sol\":2439:2440  i */\n      dup2\n        /* \"contracts/OrderBook.sol\":2439:2457  i < request.length */\n      lt\n        /* \"contracts/OrderBook.sol\":2422:2507  for (uint i = 0; i < request.length; i ++) {... */\n      iszero\n      tag_276\n      jumpi\n        /* \"contracts/OrderBook.sol\":2486:2493  request */\n      0x04\n        /* \"contracts/OrderBook.sol\":2494:2495  i */\n      dup2\n        /* \"contracts/OrderBook.sol\":2486:2496  request[i] */\n      dup2\n      sload\n      dup2\n      lt\n      tag_278\n      jumpi\n      tag_279\n      tag_93\n      jump\t// in\n    tag_279:\n    tag_278:\n      swap1\n      0x00\n      mstore\n      keccak256(0x00, 0x20)\n      add\n        /* \"contracts/OrderBook.sol\":2479:2496  delete request[i] */\n      0x00\n      swap1\n      sstore\n        /* \"contracts/OrderBook.sol\":2459:2463  i ++ */\n      dup1\n      dup1\n      tag_281\n      swap1\n      tag_98\n      jump\t// in\n    tag_281:\n      swap2\n      pop\n      pop\n        /* \"contracts/OrderBook.sol\":2422:2507  for (uint i = 0; i < request.length; i ++) {... */\n      jump(tag_275)\n    tag_276:\n      pop\n        /* \"contracts/OrderBook.sol\":2380:2513  function deleteArray() internal {... */\n      jump\t// out\n        /* \"contracts/OrderBook.sol\":2255:2374  function sortAsk() internal {... */\n    tag_141:\n        /* \"contracts/OrderBook.sol\":2292:2352  ascendingQuickSort(bidBook, int(0), int(bidBook.length - 1)) */\n      tag_283\n        /* \"contracts/OrderBook.sol\":2311:2318  bidBook */\n      0x02\n        /* \"contracts/OrderBook.sol\":2292:2352  ascendingQuickSort(bidBook, int(0), int(bidBook.length - 1)) */\n      dup1\n      sload\n      dup1\n      0x20\n      mul\n      0x20\n      add\n      mload(0x40)\n      swap1\n      dup2\n      add\n      0x40\n      mstore\n      dup1\n      swap3\n      swap2\n      swap1\n      dup2\n      dup2\n      mstore\n      0x20\n      add\n      0x00\n      swap1\n    tag_284:\n      dup3\n      dup3\n      lt\n      iszero\n      tag_285\n      jumpi\n      dup4\n      dup3\n      swap1\n      0x00\n      mstore\n      keccak256(0x00, 0x20)\n      swap1\n      0x04\n      mul\n      add\n      mload(0x40)\n      dup1\n      0x80\n      add\n      0x40\n      mstore\n      swap1\n      dup2\n      0x00\n      dup3\n      add\n      0x00\n      swap1\n      sload\n      swap1\n      0x0100\n      exp\n      swap1\n      div\n      0xffffffffffffffffffffffffffffffffffffffff\n      and\n      0xffffffffffffffffffffffffffffffffffffffff\n      and\n      0xffffffffffffffffffffffffffffffffffffffff\n      and\n      dup2\n      mstore\n      0x20\n      add\n      0x01\n      dup3\n      add\n      sload\n      dup2\n      mstore\n      0x20\n      add\n      0x02\n      dup3\n      add\n      sload\n      dup2\n      mstore\n      0x20\n      add\n      0x03\n      dup3\n      add\n      0x00\n      swap1\n      sload\n      swap1\n      0x0100\n      exp\n      swap1\n      div\n      0xff\n      and\n      0x01\n      dup2\n      gt\n      iszero\n      tag_287\n      jumpi\n      tag_288\n      tag_106\n      jump\t// in\n    tag_288:\n    tag_287:\n      0x01\n      dup2\n      gt\n      iszero\n      tag_289\n      jumpi\n      tag_290\n      tag_106\n      jump\t// in\n    tag_290:\n    tag_289:\n      dup2\n      mstore\n      pop\n      pop\n      dup2\n      mstore\n      0x20\n      add\n      swap1\n      0x01\n      add\n      swap1\n      jump(tag_284)\n    tag_285:\n      pop\n      pop\n      pop\n      pop\n        /* \"contracts/OrderBook.sol\":2324:2325  0 */\n      0x00\n        /* \"contracts/OrderBook.sol\":2349:2350  1 */\n      0x01\n        /* \"contracts/OrderBook.sol\":2332:2339  bidBook */\n      0x02\n        /* \"contracts/OrderBook.sol\":2332:2346  bidBook.length */\n      dup1\n      sload\n      swap1\n      pop\n        /* \"contracts/OrderBook.sol\":2332:2350  bidBook.length - 1 */\n      tag_291\n      swap2\n      swap1\n      tag_175\n      jump\t// in\n    tag_291:\n        /* \"contracts/OrderBook.sol\":2292:2310  ascendingQuickSort */\n      tag_292\n        /* \"contracts/OrderBook.sol\":2292:2352  ascendingQuickSort(bidBook, int(0), int(bidBook.length - 1)) */\n      jump\t// in\n    tag_283:\n        /* \"contracts/OrderBook.sol\":2255:2374  function sortAsk() internal {... */\n      jump\t// out\n        /* \"contracts/OrderBook.sol\":2129:2249  function sortBid() internal {... */\n    tag_226:\n        /* \"contracts/OrderBook.sol\":2166:2227  descendingQuickSort(bidBook, int(0), int(bidBook.length - 1)) */\n      tag_294\n        /* \"contracts/OrderBook.sol\":2186:2193  bidBook */\n      0x02\n        /* \"contracts/OrderBook.sol\":2166:2227  descendingQuickSort(bidBook, int(0), int(bidBook.length - 1)) */\n      dup1\n      sload\n      dup1\n      0x20\n      mul\n      0x20\n      add\n      mload(0x40)\n      swap1\n      dup2\n      add\n      0x40\n      mstore\n      dup1\n      swap3\n      swap2\n      swap1\n      dup2\n      dup2\n      mstore\n      0x20\n      add\n      0x00\n      swap1\n    tag_295:\n      dup3\n      dup3\n      lt\n      iszero\n      tag_296\n      jumpi\n      dup4\n      dup3\n      swap1\n      0x00\n      mstore\n      keccak256(0x00, 0x20)\n      swap1\n      0x04\n      mul\n      add\n      mload(0x40)\n      dup1\n      0x80\n      add\n      0x40\n      mstore\n      swap1\n      dup2\n      0x00\n      dup3\n      add\n      0x00\n      swap1\n      sload\n      swap1\n      0x0100\n      exp\n      swap1\n      div\n      0xffffffffffffffffffffffffffffffffffffffff\n      and\n      0xffffffffffffffffffffffffffffffffffffffff\n      and\n      0xffffffffffffffffffffffffffffffffffffffff\n      and\n      dup2\n      mstore\n      0x20\n      add\n      0x01\n      dup3\n      add\n      sload\n      dup2\n      mstore\n      0x20\n      add\n      0x02\n      dup3\n      add\n      sload\n      dup2\n      mstore\n      0x20\n      add\n      0x03\n      dup3\n      add\n      0x00\n      swap1\n      sload\n      swap1\n      0x0100\n      exp\n      swap1\n      div\n      0xff\n      and\n      0x01\n      dup2\n      gt\n      iszero\n      tag_298\n      jumpi\n      tag_299\n      tag_106\n      jump\t// in\n    tag_299:\n    tag_298:\n      0x01\n      dup2\n      gt\n      iszero\n      tag_300\n      jumpi\n      tag_301\n      tag_106\n      jump\t// in\n    tag_301:\n    tag_300:\n      dup2\n      mstore\n      pop\n      pop\n      dup2\n      mstore\n      0x20\n      add\n      swap1\n      0x01\n      add\n      swap1\n      jump(tag_295)\n    tag_296:\n      pop\n      pop\n      pop\n      pop\n        /* \"contracts/OrderBook.sol\":2199:2200  0 */\n      0x00\n        /* \"contracts/OrderBook.sol\":2224:2225  1 */\n      0x01\n        /* \"contracts/OrderBook.sol\":2207:2214  bidBook */\n      0x02\n        /* \"contracts/OrderBook.sol\":2207:2221  bidBook.length */\n      dup1\n      sload\n      swap1\n      pop\n        /* \"contracts/OrderBook.sol\":2207:2225  bidBook.length - 1 */\n      tag_302\n      swap2\n      swap1\n      tag_175\n      jump\t// in\n    tag_302:\n        /* \"contracts/OrderBook.sol\":2166:2185  descendingQuickSort */\n      tag_303\n        /* \"contracts/OrderBook.sol\":2166:2227  descendingQuickSort(bidBook, int(0), int(bidBook.length - 1)) */\n      jump\t// in\n    tag_294:\n        /* \"contracts/OrderBook.sol\":2129:2249  function sortBid() internal {... */\n      jump\t// out\n        /* \"contracts/OrderBook.sol\":3198:3856  function ascendingQuickSort(order[] memory arr, int left, int right) internal{... */\n    tag_292:\n        /* \"contracts/OrderBook.sol\":3285:3290  int i */\n      0x00\n        /* \"contracts/OrderBook.sol\":3293:3297  left */\n      dup3\n        /* \"contracts/OrderBook.sol\":3285:3297  int i = left */\n      swap1\n      pop\n        /* \"contracts/OrderBook.sol\":3307:3312  int j */\n      0x00\n        /* \"contracts/OrderBook.sol\":3315:3320  right */\n      dup3\n        /* \"contracts/OrderBook.sol\":3307:3320  int j = right */\n      swap1\n      pop\n        /* \"contracts/OrderBook.sol\":3336:3337  j */\n      dup1\n        /* \"contracts/OrderBook.sol\":3333:3334  i */\n      dup3\n        /* \"contracts/OrderBook.sol\":3333:3337  i==j */\n      sub\n        /* \"contracts/OrderBook.sol\":3330:3346  if(i==j) return; */\n      tag_305\n      jumpi\n        /* \"contracts/OrderBook.sol\":3339:3346  return; */\n      pop\n      pop\n      jump(tag_304)\n        /* \"contracts/OrderBook.sol\":3330:3346  if(i==j) return; */\n    tag_305:\n        /* \"contracts/OrderBook.sol\":3355:3368  uint256 pivot */\n      0x00\n        /* \"contracts/OrderBook.sol\":3371:3374  arr */\n      dup6\n        /* \"contracts/OrderBook.sol\":3404:3405  2 */\n      0x02\n        /* \"contracts/OrderBook.sol\":3396:3400  left */\n      dup7\n        /* \"contracts/OrderBook.sol\":3388:3393  right */\n      dup7\n        /* \"contracts/OrderBook.sol\":3388:3400  right - left */\n      tag_306\n      swap2\n      swap1\n      tag_307\n      jump\t// in\n    tag_306:\n        /* \"contracts/OrderBook.sol\":3387:3405  (right - left) / 2 */\n      tag_308\n      swap2\n      swap1\n      tag_309\n      jump\t// in\n    tag_308:\n        /* \"contracts/OrderBook.sol\":3380:3384  left */\n      dup7\n        /* \"contracts/OrderBook.sol\":3380:3405  left + (right - left) / 2 */\n      tag_310\n      swap2\n      swap1\n      tag_311\n      jump\t// in\n    tag_310:\n        /* \"contracts/OrderBook.sol\":3371:3407  arr[uint(left + (right - left) / 2)] */\n      dup2\n      mload\n      dup2\n      lt\n      tag_312\n      jumpi\n      tag_313\n      tag_93\n      jump\t// in\n    tag_313:\n    tag_312:\n      0x20\n      mul\n      0x20\n      add\n      add\n      mload\n        /* \"contracts/OrderBook.sol\":3371:3413  arr[uint(left + (right - left) / 2)].value */\n      0x20\n      add\n      mload\n        /* \"contracts/OrderBook.sol\":3355:3413  uint256 pivot = arr[uint(left + (right - left) / 2)].value */\n      swap1\n      pop\n        /* \"contracts/OrderBook.sol\":3423:3712  while (i <= j) {... */\n    tag_314:\n        /* \"contracts/OrderBook.sol\":3435:3436  j */\n      dup2\n        /* \"contracts/OrderBook.sol\":3430:3431  i */\n      dup4\n        /* \"contracts/OrderBook.sol\":3430:3436  i <= j */\n      sgt\n        /* \"contracts/OrderBook.sol\":3423:3712  while (i <= j) {... */\n      tag_315\n      jumpi\n        /* \"contracts/OrderBook.sol\":3452:3490  while (arr[uint(i)].value > pivot) i++ */\n    tag_316:\n        /* \"contracts/OrderBook.sol\":3480:3485  pivot */\n      dup1\n        /* \"contracts/OrderBook.sol\":3459:3462  arr */\n      dup7\n        /* \"contracts/OrderBook.sol\":3468:3469  i */\n      dup5\n        /* \"contracts/OrderBook.sol\":3459:3471  arr[uint(i)] */\n      dup2\n      mload\n      dup2\n      lt\n      tag_318\n      jumpi\n      tag_319\n      tag_93\n      jump\t// in\n    tag_319:\n    tag_318:\n      0x20\n      mul\n      0x20\n      add\n      add\n      mload\n        /* \"contracts/OrderBook.sol\":3459:3477  arr[uint(i)].value */\n      0x20\n      add\n      mload\n        /* \"contracts/OrderBook.sol\":3459:3485  arr[uint(i)].value > pivot */\n      gt\n        /* \"contracts/OrderBook.sol\":3452:3490  while (arr[uint(i)].value > pivot) i++ */\n      iszero\n      tag_317\n      jumpi\n        /* \"contracts/OrderBook.sol\":3487:3490  i++ */\n      dup3\n      dup1\n      tag_320\n      swap1\n      tag_321\n      jump\t// in\n    tag_320:\n      swap4\n      pop\n      pop\n        /* \"contracts/OrderBook.sol\":3452:3490  while (arr[uint(i)].value > pivot) i++ */\n      jump(tag_316)\n    tag_317:\n        /* \"contracts/OrderBook.sol\":3504:3542  while (pivot > arr[uint(j)].value) j-- */\n    tag_322:\n        /* \"contracts/OrderBook.sol\":3519:3522  arr */\n      dup6\n        /* \"contracts/OrderBook.sol\":3528:3529  j */\n      dup3\n        /* \"contracts/OrderBook.sol\":3519:3531  arr[uint(j)] */\n      dup2\n      mload\n      dup2\n      lt\n      tag_324\n      jumpi\n      tag_325\n      tag_93\n      jump\t// in\n    tag_325:\n    tag_324:\n      0x20\n      mul\n      0x20\n      add\n      add\n      mload\n        /* \"contracts/OrderBook.sol\":3519:3537  arr[uint(j)].value */\n      0x20\n      add\n      mload\n        /* \"contracts/OrderBook.sol\":3511:3516  pivot */\n      dup2\n        /* \"contracts/OrderBook.sol\":3511:3537  pivot > arr[uint(j)].value */\n      gt\n        /* \"contracts/OrderBook.sol\":3504:3542  while (pivot > arr[uint(j)].value) j-- */\n      iszero\n      tag_323\n      jumpi\n        /* \"contracts/OrderBook.sol\":3539:3542  j-- */\n      dup2\n      dup1\n      tag_326\n      swap1\n      tag_327\n      jump\t// in\n    tag_326:\n      swap3\n      pop\n      pop\n        /* \"contracts/OrderBook.sol\":3504:3542  while (pivot > arr[uint(j)].value) j-- */\n      jump(tag_322)\n    tag_323:\n        /* \"contracts/OrderBook.sol\":3565:3566  j */\n      dup2\n        /* \"contracts/OrderBook.sol\":3560:3561  i */\n      dup4\n        /* \"contracts/OrderBook.sol\":3560:3566  i <= j */\n      sgt\n        /* \"contracts/OrderBook.sol\":3556:3702  if (i <= j) {... */\n      tag_328\n      jumpi\n        /* \"contracts/OrderBook.sol\":3618:3621  arr */\n      dup6\n        /* \"contracts/OrderBook.sol\":3627:3628  j */\n      dup3\n        /* \"contracts/OrderBook.sol\":3618:3630  arr[uint(j)] */\n      dup2\n      mload\n      dup2\n      lt\n      tag_329\n      jumpi\n      tag_330\n      tag_93\n      jump\t// in\n    tag_330:\n    tag_329:\n      0x20\n      mul\n      0x20\n      add\n      add\n      mload\n        /* \"contracts/OrderBook.sol\":3632:3635  arr */\n      dup7\n        /* \"contracts/OrderBook.sol\":3641:3642  i */\n      dup5\n        /* \"contracts/OrderBook.sol\":3632:3644  arr[uint(i)] */\n      dup2\n      mload\n      dup2\n      lt\n      tag_331\n      jumpi\n      tag_332\n      tag_93\n      jump\t// in\n    tag_332:\n    tag_331:\n      0x20\n      mul\n      0x20\n      add\n      add\n      mload\n        /* \"contracts/OrderBook.sol\":3587:3590  arr */\n      dup8\n        /* \"contracts/OrderBook.sol\":3596:3597  i */\n      dup6\n        /* \"contracts/OrderBook.sol\":3587:3599  arr[uint(i)] */\n      dup2\n      mload\n      dup2\n      lt\n      tag_333\n      jumpi\n      tag_334\n      tag_93\n      jump\t// in\n    tag_334:\n    tag_333:\n      0x20\n      mul\n      0x20\n      add\n      add\n        /* \"contracts/OrderBook.sol\":3601:3604  arr */\n      dup9\n        /* \"contracts/OrderBook.sol\":3610:3611  j */\n      dup6\n        /* \"contracts/OrderBook.sol\":3601:3613  arr[uint(j)] */\n      dup2\n      mload\n      dup2\n      lt\n      tag_335\n      jumpi\n      tag_336\n      tag_93\n      jump\t// in\n    tag_336:\n    tag_335:\n      0x20\n      mul\n      0x20\n      add\n      add\n        /* \"contracts/OrderBook.sol\":3586:3645  (arr[uint(i)], arr[uint(j)]) = (arr[uint(j)], arr[uint(i)]) */\n      dup3\n      swap1\n      mstore\n      dup3\n      swap1\n      mstore\n      pop\n      pop\n        /* \"contracts/OrderBook.sol\":3663:3666  i++ */\n      dup3\n      dup1\n      tag_337\n      swap1\n      tag_321\n      jump\t// in\n    tag_337:\n      swap4\n      pop\n      pop\n        /* \"contracts/OrderBook.sol\":3684:3687  j-- */\n      dup2\n      dup1\n      tag_338\n      swap1\n      tag_327\n      jump\t// in\n    tag_338:\n      swap3\n      pop\n      pop\n        /* \"contracts/OrderBook.sol\":3556:3702  if (i <= j) {... */\n    tag_328:\n        /* \"contracts/OrderBook.sol\":3423:3712  while (i <= j) {... */\n      jump(tag_314)\n    tag_315:\n        /* \"contracts/OrderBook.sol\":3732:3733  j */\n      dup2\n        /* \"contracts/OrderBook.sol\":3725:3729  left */\n      dup6\n        /* \"contracts/OrderBook.sol\":3725:3733  left < j */\n      slt\n        /* \"contracts/OrderBook.sol\":3721:3779  if (left < j)... */\n      iszero\n      tag_339\n      jumpi\n        /* \"contracts/OrderBook.sol\":3747:3779  ascendingQuickSort(arr, left, j) */\n      tag_340\n        /* \"contracts/OrderBook.sol\":3766:3769  arr */\n      dup7\n        /* \"contracts/OrderBook.sol\":3771:3775  left */\n      dup7\n        /* \"contracts/OrderBook.sol\":3777:3778  j */\n      dup5\n        /* \"contracts/OrderBook.sol\":3747:3765  ascendingQuickSort */\n      tag_292\n        /* \"contracts/OrderBook.sol\":3747:3779  ascendingQuickSort(arr, left, j) */\n      jump\t// in\n    tag_340:\n        /* \"contracts/OrderBook.sol\":3721:3779  if (left < j)... */\n    tag_339:\n        /* \"contracts/OrderBook.sol\":3797:3802  right */\n      dup4\n        /* \"contracts/OrderBook.sol\":3793:3794  i */\n      dup4\n        /* \"contracts/OrderBook.sol\":3793:3802  i < right */\n      slt\n        /* \"contracts/OrderBook.sol\":3789:3849  if (i < right)... */\n      iszero\n      tag_341\n      jumpi\n        /* \"contracts/OrderBook.sol\":3816:3849  ascendingQuickSort(arr, i, right) */\n      tag_342\n        /* \"contracts/OrderBook.sol\":3835:3838  arr */\n      dup7\n        /* \"contracts/OrderBook.sol\":3840:3841  i */\n      dup5\n        /* \"contracts/OrderBook.sol\":3843:3848  right */\n      dup7\n        /* \"contracts/OrderBook.sol\":3816:3834  ascendingQuickSort */\n      tag_292\n        /* \"contracts/OrderBook.sol\":3816:3849  ascendingQuickSort(arr, i, right) */\n      jump\t// in\n    tag_342:\n        /* \"contracts/OrderBook.sol\":3789:3849  if (i < right)... */\n    tag_341:\n        /* \"contracts/OrderBook.sol\":3275:3856  {... */\n      pop\n      pop\n      pop\n        /* \"contracts/OrderBook.sol\":3198:3856  function ascendingQuickSort(order[] memory arr, int left, int right) internal{... */\n    tag_304:\n      pop\n      pop\n      pop\n      jump\t// out\n        /* \"contracts/OrderBook.sol\":2519:3192  function descendingQuickSort(order[] memory arr, int left, int right) internal{... */\n    tag_303:\n        /* \"contracts/OrderBook.sol\":2607:2612  int i */\n      0x00\n        /* \"contracts/OrderBook.sol\":2615:2619  left */\n      dup3\n        /* \"contracts/OrderBook.sol\":2607:2619  int i = left */\n      swap1\n      pop\n        /* \"contracts/OrderBook.sol\":2629:2634  int j */\n      0x00\n        /* \"contracts/OrderBook.sol\":2637:2642  right */\n      dup3\n        /* \"contracts/OrderBook.sol\":2629:2642  int j = right */\n      swap1\n      pop\n        /* \"contracts/OrderBook.sol\":2658:2659  j */\n      dup1\n        /* \"contracts/OrderBook.sol\":2655:2656  i */\n      dup3\n        /* \"contracts/OrderBook.sol\":2655:2659  i==j */\n      sub\n        /* \"contracts/OrderBook.sol\":2652:2668  if(i==j) return; */\n      tag_344\n      jumpi\n        /* \"contracts/OrderBook.sol\":2661:2668  return; */\n      pop\n      pop\n      jump(tag_343)\n        /* \"contracts/OrderBook.sol\":2652:2668  if(i==j) return; */\n    tag_344:\n        /* \"contracts/OrderBook.sol\":2677:2690  uint256 pivot */\n      0x00\n        /* \"contracts/OrderBook.sol\":2693:2696  arr */\n      dup6\n        /* \"contracts/OrderBook.sol\":2726:2727  2 */\n      0x02\n        /* \"contracts/OrderBook.sol\":2718:2722  left */\n      dup7\n        /* \"contracts/OrderBook.sol\":2710:2715  right */\n      dup7\n        /* \"contracts/OrderBook.sol\":2710:2722  right - left */\n      tag_345\n      swap2\n      swap1\n      tag_307\n      jump\t// in\n    tag_345:\n        /* \"contracts/OrderBook.sol\":2709:2727  (right - left) / 2 */\n      tag_346\n      swap2\n      swap1\n      tag_309\n      jump\t// in\n    tag_346:\n        /* \"contracts/OrderBook.sol\":2702:2706  left */\n      dup7\n        /* \"contracts/OrderBook.sol\":2702:2727  left + (right - left) / 2 */\n      tag_347\n      swap2\n      swap1\n      tag_311\n      jump\t// in\n    tag_347:\n        /* \"contracts/OrderBook.sol\":2693:2729  arr[uint(left + (right - left) / 2)] */\n      dup2\n      mload\n      dup2\n      lt\n      tag_348\n      jumpi\n      tag_349\n      tag_93\n      jump\t// in\n    tag_349:\n    tag_348:\n      0x20\n      mul\n      0x20\n      add\n      add\n      mload\n        /* \"contracts/OrderBook.sol\":2693:2739  arr[uint(left + (right - left) / 2)].timestamp */\n      0x40\n      add\n      mload\n        /* \"contracts/OrderBook.sol\":2677:2739  uint256 pivot = arr[uint(left + (right - left) / 2)].timestamp */\n      swap1\n      pop\n        /* \"contracts/OrderBook.sol\":2749:3046  while (i <= j) {... */\n    tag_350:\n        /* \"contracts/OrderBook.sol\":2761:2762  j */\n      dup2\n        /* \"contracts/OrderBook.sol\":2756:2757  i */\n      dup4\n        /* \"contracts/OrderBook.sol\":2756:2762  i <= j */\n      sgt\n        /* \"contracts/OrderBook.sol\":2749:3046  while (i <= j) {... */\n      tag_351\n      jumpi\n        /* \"contracts/OrderBook.sol\":2778:2820  while (arr[uint(i)].timestamp < pivot) i++ */\n    tag_352:\n        /* \"contracts/OrderBook.sol\":2810:2815  pivot */\n      dup1\n        /* \"contracts/OrderBook.sol\":2785:2788  arr */\n      dup7\n        /* \"contracts/OrderBook.sol\":2794:2795  i */\n      dup5\n        /* \"contracts/OrderBook.sol\":2785:2797  arr[uint(i)] */\n      dup2\n      mload\n      dup2\n      lt\n      tag_354\n      jumpi\n      tag_355\n      tag_93\n      jump\t// in\n    tag_355:\n    tag_354:\n      0x20\n      mul\n      0x20\n      add\n      add\n      mload\n        /* \"contracts/OrderBook.sol\":2785:2807  arr[uint(i)].timestamp */\n      0x40\n      add\n      mload\n        /* \"contracts/OrderBook.sol\":2785:2815  arr[uint(i)].timestamp < pivot */\n      lt\n        /* \"contracts/OrderBook.sol\":2778:2820  while (arr[uint(i)].timestamp < pivot) i++ */\n      iszero\n      tag_353\n      jumpi\n        /* \"contracts/OrderBook.sol\":2817:2820  i++ */\n      dup3\n      dup1\n      tag_356\n      swap1\n      tag_321\n      jump\t// in\n    tag_356:\n      swap4\n      pop\n      pop\n        /* \"contracts/OrderBook.sol\":2778:2820  while (arr[uint(i)].timestamp < pivot) i++ */\n      jump(tag_352)\n    tag_353:\n        /* \"contracts/OrderBook.sol\":2834:2876  while (pivot < arr[uint(j)].timestamp) j-- */\n    tag_357:\n        /* \"contracts/OrderBook.sol\":2849:2852  arr */\n      dup6\n        /* \"contracts/OrderBook.sol\":2858:2859  j */\n      dup3\n        /* \"contracts/OrderBook.sol\":2849:2861  arr[uint(j)] */\n      dup2\n      mload\n      dup2\n      lt\n      tag_359\n      jumpi\n      tag_360\n      tag_93\n      jump\t// in\n    tag_360:\n    tag_359:\n      0x20\n      mul\n      0x20\n      add\n      add\n      mload\n        /* \"contracts/OrderBook.sol\":2849:2871  arr[uint(j)].timestamp */\n      0x40\n      add\n      mload\n        /* \"contracts/OrderBook.sol\":2841:2846  pivot */\n      dup2\n        /* \"contracts/OrderBook.sol\":2841:2871  pivot < arr[uint(j)].timestamp */\n      lt\n        /* \"contracts/OrderBook.sol\":2834:2876  while (pivot < arr[uint(j)].timestamp) j-- */\n      iszero\n      tag_358\n      jumpi\n        /* \"contracts/OrderBook.sol\":2873:2876  j-- */\n      dup2\n      dup1\n      tag_361\n      swap1\n      tag_327\n      jump\t// in\n    tag_361:\n      swap3\n      pop\n      pop\n        /* \"contracts/OrderBook.sol\":2834:2876  while (pivot < arr[uint(j)].timestamp) j-- */\n      jump(tag_357)\n    tag_358:\n        /* \"contracts/OrderBook.sol\":2899:2900  j */\n      dup2\n        /* \"contracts/OrderBook.sol\":2894:2895  i */\n      dup4\n        /* \"contracts/OrderBook.sol\":2894:2900  i <= j */\n      sgt\n        /* \"contracts/OrderBook.sol\":2890:3036  if (i <= j) {... */\n      tag_362\n      jumpi\n        /* \"contracts/OrderBook.sol\":2952:2955  arr */\n      dup6\n        /* \"contracts/OrderBook.sol\":2961:2962  j */\n      dup3\n        /* \"contracts/OrderBook.sol\":2952:2964  arr[uint(j)] */\n      dup2\n      mload\n      dup2\n      lt\n      tag_363\n      jumpi\n      tag_364\n      tag_93\n      jump\t// in\n    tag_364:\n    tag_363:\n      0x20\n      mul\n      0x20\n      add\n      add\n      mload\n        /* \"contracts/OrderBook.sol\":2966:2969  arr */\n      dup7\n        /* \"contracts/OrderBook.sol\":2975:2976  i */\n      dup5\n        /* \"contracts/OrderBook.sol\":2966:2978  arr[uint(i)] */\n      dup2\n      mload\n      dup2\n      lt\n      tag_365\n      jumpi\n      tag_366\n      tag_93\n      jump\t// in\n    tag_366:\n    tag_365:\n      0x20\n      mul\n      0x20\n      add\n      add\n      mload\n        /* \"contracts/OrderBook.sol\":2921:2924  arr */\n      dup8\n        /* \"contracts/OrderBook.sol\":2930:2931  i */\n      dup6\n        /* \"contracts/OrderBook.sol\":2921:2933  arr[uint(i)] */\n      dup2\n      mload\n      dup2\n      lt\n      tag_367\n      jumpi\n      tag_368\n      tag_93\n      jump\t// in\n    tag_368:\n    tag_367:\n      0x20\n      mul\n      0x20\n      add\n      add\n        /* \"contracts/OrderBook.sol\":2935:2938  arr */\n      dup9\n        /* \"contracts/OrderBook.sol\":2944:2945  j */\n      dup6\n        /* \"contracts/OrderBook.sol\":2935:2947  arr[uint(j)] */\n      dup2\n      mload\n      dup2\n      lt\n      tag_369\n      jumpi\n      tag_370\n      tag_93\n      jump\t// in\n    tag_370:\n    tag_369:\n      0x20\n      mul\n      0x20\n      add\n      add\n        /* \"contracts/OrderBook.sol\":2920:2979  (arr[uint(i)], arr[uint(j)]) = (arr[uint(j)], arr[uint(i)]) */\n      dup3\n      swap1\n      mstore\n      dup3\n      swap1\n      mstore\n      pop\n      pop\n        /* \"contracts/OrderBook.sol\":2997:3000  i++ */\n      dup3\n      dup1\n      tag_371\n      swap1\n      tag_321\n      jump\t// in\n    tag_371:\n      swap4\n      pop\n      pop\n        /* \"contracts/OrderBook.sol\":3018:3021  j-- */\n      dup2\n      dup1\n      tag_372\n      swap1\n      tag_327\n      jump\t// in\n    tag_372:\n      swap3\n      pop\n      pop\n        /* \"contracts/OrderBook.sol\":2890:3036  if (i <= j) {... */\n    tag_362:\n        /* \"contracts/OrderBook.sol\":2749:3046  while (i <= j) {... */\n      jump(tag_350)\n    tag_351:\n        /* \"contracts/OrderBook.sol\":3066:3067  j */\n      dup2\n        /* \"contracts/OrderBook.sol\":3059:3063  left */\n      dup6\n        /* \"contracts/OrderBook.sol\":3059:3067  left < j */\n      slt\n        /* \"contracts/OrderBook.sol\":3055:3114  if (left < j)... */\n      iszero\n      tag_373\n      jumpi\n        /* \"contracts/OrderBook.sol\":3081:3114  descendingQuickSort(arr, left, j) */\n      tag_374\n        /* \"contracts/OrderBook.sol\":3101:3104  arr */\n      dup7\n        /* \"contracts/OrderBook.sol\":3106:3110  left */\n      dup7\n        /* \"contracts/OrderBook.sol\":3112:3113  j */\n      dup5\n        /* \"contracts/OrderBook.sol\":3081:3100  descendingQuickSort */\n      tag_303\n        /* \"contracts/OrderBook.sol\":3081:3114  descendingQuickSort(arr, left, j) */\n      jump\t// in\n    tag_374:\n        /* \"contracts/OrderBook.sol\":3055:3114  if (left < j)... */\n    tag_373:\n        /* \"contracts/OrderBook.sol\":3132:3137  right */\n      dup4\n        /* \"contracts/OrderBook.sol\":3128:3129  i */\n      dup4\n        /* \"contracts/OrderBook.sol\":3128:3137  i < right */\n      slt\n        /* \"contracts/OrderBook.sol\":3124:3185  if (i < right)... */\n      iszero\n      tag_375\n      jumpi\n        /* \"contracts/OrderBook.sol\":3151:3185  descendingQuickSort(arr, i, right) */\n      tag_376\n        /* \"contracts/OrderBook.sol\":3171:3174  arr */\n      dup7\n        /* \"contracts/OrderBook.sol\":3176:3177  i */\n      dup5\n        /* \"contracts/OrderBook.sol\":3179:3184  right */\n      dup7\n        /* \"contracts/OrderBook.sol\":3151:3170  descendingQuickSort */\n      tag_303\n        /* \"contracts/OrderBook.sol\":3151:3185  descendingQuickSort(arr, i, right) */\n      jump\t// in\n    tag_376:\n        /* \"contracts/OrderBook.sol\":3124:3185  if (i < right)... */\n    tag_375:\n        /* \"contracts/OrderBook.sol\":2597:3192  {... */\n      pop\n      pop\n      pop\n        /* \"contracts/OrderBook.sol\":2519:3192  function descendingQuickSort(order[] memory arr, int left, int right) internal{... */\n    tag_343:\n      pop\n      pop\n      pop\n      jump\t// out\n        /* \"#utility.yul\":7:121   */\n    tag_377:\n        /* \"#utility.yul\":74:80   */\n      0x00\n        /* \"#utility.yul\":108:113   */\n      dup2\n        /* \"#utility.yul\":102:114   */\n      mload\n        /* \"#utility.yul\":92:114   */\n      swap1\n      pop\n        /* \"#utility.yul\":7:121   */\n      swap2\n      swap1\n      pop\n      jump\t// out\n        /* \"#utility.yul\":127:311   */\n    tag_378:\n        /* \"#utility.yul\":226:237   */\n      0x00\n        /* \"#utility.yul\":260:266   */\n      dup3\n        /* \"#utility.yul\":255:258   */\n      dup3\n        /* \"#utility.yul\":248:267   */\n      mstore\n        /* \"#utility.yul\":300:304   */\n      0x20\n        /* \"#utility.yul\":295:298   */\n      dup3\n        /* \"#utility.yul\":291:305   */\n      add\n        /* \"#utility.yul\":276:305   */\n      swap1\n      pop\n        /* \"#utility.yul\":127:311   */\n      swap3\n      swap2\n      pop\n      pop\n      jump\t// out\n        /* \"#utility.yul\":317:449   */\n    tag_379:\n        /* \"#utility.yul\":384:388   */\n      0x00\n        /* \"#utility.yul\":407:410   */\n      dup2\n        /* \"#utility.yul\":399:410   */\n      swap1\n      pop\n        /* \"#utility.yul\":437:441   */\n      0x20\n        /* \"#utility.yul\":432:435   */\n      dup3\n        /* \"#utility.yul\":428:442   */\n      add\n        /* \"#utility.yul\":420:442   */\n      swap1\n      pop\n        /* \"#utility.yul\":317:449   */\n      swap2\n      swap1\n      pop\n      jump\t// out\n        /* \"#utility.yul\":455:532   */\n    tag_380:\n        /* \"#utility.yul\":492:499   */\n      0x00\n        /* \"#utility.yul\":521:526   */\n      dup2\n        /* \"#utility.yul\":510:526   */\n      swap1\n      pop\n        /* \"#utility.yul\":455:532   */\n      swap2\n      swap1\n      pop\n      jump\t// out\n        /* \"#utility.yul\":538:646   */\n    tag_381:\n        /* \"#utility.yul\":615:639   */\n      tag_429\n        /* \"#utility.yul\":633:638   */\n      dup2\n        /* \"#utility.yul\":615:639   */\n      tag_380\n      jump\t// in\n    tag_429:\n        /* \"#utility.yul\":610:613   */\n      dup3\n        /* \"#utility.yul\":603:640   */\n      mstore\n        /* \"#utility.yul\":538:646   */\n      pop\n      pop\n      jump\t// out\n        /* \"#utility.yul\":652:831   */\n    tag_382:\n        /* \"#utility.yul\":721:731   */\n      0x00\n        /* \"#utility.yul\":742:788   */\n      tag_431\n        /* \"#utility.yul\":784:787   */\n      dup4\n        /* \"#utility.yul\":776:782   */\n      dup4\n        /* \"#utility.yul\":742:788   */\n      tag_381\n      jump\t// in\n    tag_431:\n        /* \"#utility.yul\":820:824   */\n      0x20\n        /* \"#utility.yul\":815:818   */\n      dup4\n        /* \"#utility.yul\":811:825   */\n      add\n        /* \"#utility.yul\":797:825   */\n      swap1\n      pop\n        /* \"#utility.yul\":652:831   */\n      swap3\n      swap2\n      pop\n      pop\n      jump\t// out\n        /* \"#utility.yul\":837:950   */\n    tag_383:\n        /* \"#utility.yul\":907:911   */\n      0x00\n        /* \"#utility.yul\":939:943   */\n      0x20\n        /* \"#utility.yul\":934:937   */\n      dup3\n        /* \"#utility.yul\":930:944   */\n      add\n        /* \"#utility.yul\":922:944   */\n      swap1\n      pop\n        /* \"#utility.yul\":837:950   */\n      swap2\n      swap1\n      pop\n      jump\t// out\n        /* \"#utility.yul\":986:1718   */\n    tag_384:\n        /* \"#utility.yul\":1105:1108   */\n      0x00\n        /* \"#utility.yul\":1134:1188   */\n      tag_434\n        /* \"#utility.yul\":1182:1187   */\n      dup3\n        /* \"#utility.yul\":1134:1188   */\n      tag_377\n      jump\t// in\n    tag_434:\n        /* \"#utility.yul\":1204:1290   */\n      tag_435\n        /* \"#utility.yul\":1283:1289   */\n      dup2\n        /* \"#utility.yul\":1278:1281   */\n      dup6\n        /* \"#utility.yul\":1204:1290   */\n      tag_378\n      jump\t// in\n    tag_435:\n        /* \"#utility.yul\":1197:1290   */\n      swap4\n      pop\n        /* \"#utility.yul\":1314:1370   */\n      tag_436\n        /* \"#utility.yul\":1364:1369   */\n      dup4\n        /* \"#utility.yul\":1314:1370   */\n      tag_379\n      jump\t// in\n    tag_436:\n        /* \"#utility.yul\":1393:1400   */\n      dup1\n        /* \"#utility.yul\":1424:1425   */\n      0x00\n        /* \"#utility.yul\":1409:1693   */\n    tag_437:\n        /* \"#utility.yul\":1434:1440   */\n      dup4\n        /* \"#utility.yul\":1431:1432   */\n      dup2\n        /* \"#utility.yul\":1428:1441   */\n      lt\n        /* \"#utility.yul\":1409:1693   */\n      iszero\n      tag_439\n      jumpi\n        /* \"#utility.yul\":1510:1516   */\n      dup2\n        /* \"#utility.yul\":1504:1517   */\n      mload\n        /* \"#utility.yul\":1537:1600   */\n      tag_440\n        /* \"#utility.yul\":1596:1599   */\n      dup9\n        /* \"#utility.yul\":1581:1594   */\n      dup3\n        /* \"#utility.yul\":1537:1600   */\n      tag_382\n      jump\t// in\n    tag_440:\n        /* \"#utility.yul\":1530:1600   */\n      swap8\n      pop\n        /* \"#utility.yul\":1623:1683   */\n      tag_441\n        /* \"#utility.yul\":1676:1682   */\n      dup4\n        /* \"#utility.yul\":1623:1683   */\n      tag_383\n      jump\t// in\n    tag_441:\n        /* \"#utility.yul\":1613:1683   */\n      swap3\n      pop\n        /* \"#utility.yul\":1469:1693   */\n      pop\n        /* \"#utility.yul\":1456:1457   */\n      0x01\n        /* \"#utility.yul\":1453:1454   */\n      dup2\n        /* \"#utility.yul\":1449:1458   */\n      add\n        /* \"#utility.yul\":1444:1458   */\n      swap1\n      pop\n        /* \"#utility.yul\":1409:1693   */\n      jump(tag_437)\n    tag_439:\n        /* \"#utility.yul\":1413:1427   */\n      pop\n        /* \"#utility.yul\":1709:1712   */\n      dup6\n        /* \"#utility.yul\":1702:1712   */\n      swap4\n      pop\n        /* \"#utility.yul\":1110:1718   */\n      pop\n      pop\n      pop\n        /* \"#utility.yul\":986:1718   */\n      swap3\n      swap2\n      pop\n      pop\n      jump\t// out\n        /* \"#utility.yul\":1724:2097   */\n    tag_23:\n        /* \"#utility.yul\":1867:1871   */\n      0x00\n        /* \"#utility.yul\":1905:1907   */\n      0x20\n        /* \"#utility.yul\":1894:1903   */\n      dup3\n        /* \"#utility.yul\":1890:1908   */\n      add\n        /* \"#utility.yul\":1882:1908   */\n      swap1\n      pop\n        /* \"#utility.yul\":1954:1963   */\n      dup2\n        /* \"#utility.yul\":1948:1952   */\n      dup2\n        /* \"#utility.yul\":1944:1964   */\n      sub\n        /* \"#utility.yul\":1940:1941   */\n      0x00\n        /* \"#utility.yul\":1929:1938   */\n      dup4\n        /* \"#utility.yul\":1925:1942   */\n      add\n        /* \"#utility.yul\":1918:1965   */\n      mstore\n        /* \"#utility.yul\":1982:2090   */\n      tag_443\n        /* \"#utility.yul\":2085:2089   */\n      dup2\n        /* \"#utility.yul\":2076:2082   */\n      dup5\n        /* \"#utility.yul\":1982:2090   */\n      tag_384\n      jump\t// in\n    tag_443:\n        /* \"#utility.yul\":1974:2090   */\n      swap1\n      pop\n        /* \"#utility.yul\":1724:2097   */\n      swap3\n      swap2\n      pop\n      pop\n      jump\t// out\n        /* \"#utility.yul\":2184:2301   */\n    tag_386:\n        /* \"#utility.yul\":2293:2294   */\n      0x00\n        /* \"#utility.yul\":2290:2291   */\n      dup1\n        /* \"#utility.yul\":2283:2295   */\n      revert\n        /* \"#utility.yul\":2430:2552   */\n    tag_388:\n        /* \"#utility.yul\":2503:2527   */\n      tag_448\n        /* \"#utility.yul\":2521:2526   */\n      dup2\n        /* \"#utility.yul\":2503:2527   */\n      tag_380\n      jump\t// in\n    tag_448:\n        /* \"#utility.yul\":2496:2501   */\n      dup2\n        /* \"#utility.yul\":2493:2528   */\n      eq\n        /* \"#utility.yul\":2483:2546   */\n      tag_449\n      jumpi\n        /* \"#utility.yul\":2542:2543   */\n      0x00\n        /* \"#utility.yul\":2539:2540   */\n      dup1\n        /* \"#utility.yul\":2532:2544   */\n      revert\n        /* \"#utility.yul\":2483:2546   */\n    tag_449:\n        /* \"#utility.yul\":2430:2552   */\n      pop\n      jump\t// out\n        /* \"#utility.yul\":2558:2697   */\n    tag_389:\n        /* \"#utility.yul\":2604:2609   */\n      0x00\n        /* \"#utility.yul\":2642:2648   */\n      dup2\n        /* \"#utility.yul\":2629:2649   */\n      calldataload\n        /* \"#utility.yul\":2620:2649   */\n      swap1\n      pop\n        /* \"#utility.yul\":2658:2691   */\n      tag_451\n        /* \"#utility.yul\":2685:2690   */\n      dup2\n        /* \"#utility.yul\":2658:2691   */\n      tag_388\n      jump\t// in\n    tag_451:\n        /* \"#utility.yul\":2558:2697   */\n      swap3\n      swap2\n      pop\n      pop\n      jump\t// out\n        /* \"#utility.yul\":2703:3032   */\n    tag_27:\n        /* \"#utility.yul\":2762:2768   */\n      0x00\n        /* \"#utility.yul\":2811:2813   */\n      0x20\n        /* \"#utility.yul\":2799:2808   */\n      dup3\n        /* \"#utility.yul\":2790:2797   */\n      dup5\n        /* \"#utility.yul\":2786:2809   */\n      sub\n        /* \"#utility.yul\":2782:2814   */\n      slt\n        /* \"#utility.yul\":2779:2898   */\n      iszero\n      tag_453\n      jumpi\n        /* \"#utility.yul\":2817:2896   */\n      tag_454\n      tag_386\n      jump\t// in\n    tag_454:\n        /* \"#utility.yul\":2779:2898   */\n    tag_453:\n        /* \"#utility.yul\":2937:2938   */\n      0x00\n        /* \"#utility.yul\":2962:3015   */\n      tag_455\n        /* \"#utility.yul\":3007:3014   */\n      dup5\n        /* \"#utility.yul\":2998:3004   */\n      dup3\n        /* \"#utility.yul\":2987:2996   */\n      dup6\n        /* \"#utility.yul\":2983:3005   */\n      add\n        /* \"#utility.yul\":2962:3015   */\n      tag_389\n      jump\t// in\n    tag_455:\n        /* \"#utility.yul\":2952:3015   */\n      swap2\n      pop\n        /* \"#utility.yul\":2908:3025   */\n      pop\n        /* \"#utility.yul\":2703:3032   */\n      swap3\n      swap2\n      pop\n      pop\n      jump\t// out\n        /* \"#utility.yul\":3038:3156   */\n    tag_390:\n        /* \"#utility.yul\":3125:3149   */\n      tag_457\n        /* \"#utility.yul\":3143:3148   */\n      dup2\n        /* \"#utility.yul\":3125:3149   */\n      tag_380\n      jump\t// in\n    tag_457:\n        /* \"#utility.yul\":3120:3123   */\n      dup3\n        /* \"#utility.yul\":3113:3150   */\n      mstore\n        /* \"#utility.yul\":3038:3156   */\n      pop\n      pop\n      jump\t// out\n        /* \"#utility.yul\":3162:3384   */\n    tag_34:\n        /* \"#utility.yul\":3255:3259   */\n      0x00\n        /* \"#utility.yul\":3293:3295   */\n      0x20\n        /* \"#utility.yul\":3282:3291   */\n      dup3\n        /* \"#utility.yul\":3278:3296   */\n      add\n        /* \"#utility.yul\":3270:3296   */\n      swap1\n      pop\n        /* \"#utility.yul\":3306:3377   */\n      tag_459\n        /* \"#utility.yul\":3374:3375   */\n      0x00\n        /* \"#utility.yul\":3363:3372   */\n      dup4\n        /* \"#utility.yul\":3359:3376   */\n      add\n        /* \"#utility.yul\":3350:3356   */\n      dup5\n        /* \"#utility.yul\":3306:3377   */\n      tag_390\n      jump\t// in\n    tag_459:\n        /* \"#utility.yul\":3162:3384   */\n      swap3\n      swap2\n      pop\n      pop\n      jump\t// out\n        /* \"#utility.yul\":3390:3525   */\n    tag_391:\n        /* \"#utility.yul\":3478:3484   */\n      0x00\n        /* \"#utility.yul\":3512:3517   */\n      dup2\n        /* \"#utility.yul\":3506:3518   */\n      mload\n        /* \"#utility.yul\":3496:3518   */\n      swap1\n      pop\n        /* \"#utility.yul\":3390:3525   */\n      swap2\n      swap1\n      pop\n      jump\t// out\n        /* \"#utility.yul\":3531:3736   */\n    tag_392:\n        /* \"#utility.yul\":3651:3662   */\n      0x00\n        /* \"#utility.yul\":3685:3691   */\n      dup3\n        /* \"#utility.yul\":3680:3683   */\n      dup3\n        /* \"#utility.yul\":3673:3692   */\n      mstore\n        /* \"#utility.yul\":3725:3729   */\n      0x20\n        /* \"#utility.yul\":3720:3723   */\n      dup3\n        /* \"#utility.yul\":3716:3730   */\n      add\n        /* \"#utility.yul\":3701:3730   */\n      swap1\n      pop\n        /* \"#utility.yul\":3531:3736   */\n      swap3\n      swap2\n      pop\n      pop\n      jump\t// out\n        /* \"#utility.yul\":3742:3895   */\n    tag_393:\n        /* \"#utility.yul\":3830:3834   */\n      0x00\n        /* \"#utility.yul\":3853:3856   */\n      dup2\n        /* \"#utility.yul\":3845:3856   */\n      swap1\n      pop\n        /* \"#utility.yul\":3883:3887   */\n      0x20\n        /* \"#utility.yul\":3878:3881   */\n      dup3\n        /* \"#utility.yul\":3874:3888   */\n      add\n        /* \"#utility.yul\":3866:3888   */\n      swap1\n      pop\n        /* \"#utility.yul\":3742:3895   */\n      swap2\n      swap1\n      pop\n      jump\t// out\n        /* \"#utility.yul\":3901:4027   */\n    tag_394:\n        /* \"#utility.yul\":3938:3945   */\n      0x00\n        /* \"#utility.yul\":3978:4020   */\n      0xffffffffffffffffffffffffffffffffffffffff\n        /* \"#utility.yul\":3971:3976   */\n      dup3\n        /* \"#utility.yul\":3967:4021   */\n      and\n        /* \"#utility.yul\":3956:4021   */\n      swap1\n      pop\n        /* \"#utility.yul\":3901:4027   */\n      swap2\n      swap1\n      pop\n      jump\t// out\n        /* \"#utility.yul\":4033:4137   */\n    tag_395:\n        /* \"#utility.yul\":4078:4085   */\n      0x00\n        /* \"#utility.yul\":4107:4131   */\n      tag_465\n        /* \"#utility.yul\":4125:4130   */\n      dup3\n        /* \"#utility.yul\":4107:4131   */\n      tag_394\n      jump\t// in\n    tag_465:\n        /* \"#utility.yul\":4096:4131   */\n      swap1\n      pop\n        /* \"#utility.yul\":4033:4137   */\n      swap2\n      swap1\n      pop\n      jump\t// out\n        /* \"#utility.yul\":4143:4275   */\n    tag_396:\n        /* \"#utility.yul\":4236:4268   */\n      tag_467\n        /* \"#utility.yul\":4262:4267   */\n      dup2\n        /* \"#utility.yul\":4236:4268   */\n      tag_395\n      jump\t// in\n    tag_467:\n        /* \"#utility.yul\":4231:4234   */\n      dup3\n        /* \"#utility.yul\":4224:4269   */\n      mstore\n        /* \"#utility.yul\":4143:4275   */\n      pop\n      pop\n      jump\t// out\n        /* \"#utility.yul\":4281:4461   */\n    tag_106:\n        /* \"#utility.yul\":4329:4406   */\n      0x4e487b7100000000000000000000000000000000000000000000000000000000\n        /* \"#utility.yul\":4326:4327   */\n      0x00\n        /* \"#utility.yul\":4319:4407   */\n      mstore\n        /* \"#utility.yul\":4426:4430   */\n      0x21\n        /* \"#utility.yul\":4423:4424   */\n      0x04\n        /* \"#utility.yul\":4416:4431   */\n      mstore\n        /* \"#utility.yul\":4450:4454   */\n      0x24\n        /* \"#utility.yul\":4447:4448   */\n      0x00\n        /* \"#utility.yul\":4440:4455   */\n      revert\n        /* \"#utility.yul\":4467:4579   */\n    tag_397:\n        /* \"#utility.yul\":4547:4548   */\n      0x02\n        /* \"#utility.yul\":4540:4545   */\n      dup2\n        /* \"#utility.yul\":4537:4549   */\n      lt\n        /* \"#utility.yul\":4527:4573   */\n      tag_470\n      jumpi\n        /* \"#utility.yul\":4553:4571   */\n      tag_471\n      tag_106\n      jump\t// in\n    tag_471:\n        /* \"#utility.yul\":4527:4573   */\n    tag_470:\n        /* \"#utility.yul\":4467:4579   */\n      pop\n      jump\t// out\n        /* \"#utility.yul\":4585:4710   */\n    tag_398:\n        /* \"#utility.yul\":4629:4636   */\n      0x00\n        /* \"#utility.yul\":4658:4663   */\n      dup2\n        /* \"#utility.yul\":4647:4663   */\n      swap1\n      pop\n        /* \"#utility.yul\":4664:4704   */\n      tag_473\n        /* \"#utility.yul\":4698:4703   */\n      dup3\n        /* \"#utility.yul\":4664:4704   */\n      tag_397\n      jump\t// in\n    tag_473:\n        /* \"#utility.yul\":4585:4710   */\n      swap2\n      swap1\n      pop\n      jump\t// out\n        /* \"#utility.yul\":4716:4841   */\n    tag_399:\n        /* \"#utility.yul\":4771:4780   */\n      0x00\n        /* \"#utility.yul\":4804:4835   */\n      tag_475\n        /* \"#utility.yul\":4829:4834   */\n      dup3\n        /* \"#utility.yul\":4804:4835   */\n      tag_398\n      jump\t// in\n    tag_475:\n        /* \"#utility.yul\":4791:4835   */\n      swap1\n      pop\n        /* \"#utility.yul\":4716:4841   */\n      swap2\n      swap1\n      pop\n      jump\t// out\n        /* \"#utility.yul\":4847:4978   */\n    tag_400:\n        /* \"#utility.yul\":4929:4971   */\n      tag_477\n        /* \"#utility.yul\":4965:4970   */\n      dup2\n        /* \"#utility.yul\":4929:4971   */\n      tag_399\n      jump\t// in\n    tag_477:\n        /* \"#utility.yul\":4924:4927   */\n      dup3\n        /* \"#utility.yul\":4917:4972   */\n      mstore\n        /* \"#utility.yul\":4847:4978   */\n      pop\n      pop\n      jump\t// out\n        /* \"#utility.yul\":5040:5909   */\n    tag_401:\n        /* \"#utility.yul\":5169:5173   */\n      0x80\n        /* \"#utility.yul\":5164:5167   */\n      dup3\n        /* \"#utility.yul\":5160:5174   */\n      add\n        /* \"#utility.yul\":5260:5264   */\n      0x00\n        /* \"#utility.yul\":5253:5258   */\n      dup3\n        /* \"#utility.yul\":5249:5265   */\n      add\n        /* \"#utility.yul\":5243:5266   */\n      mload\n        /* \"#utility.yul\":5279:5358   */\n      tag_479\n        /* \"#utility.yul\":5352:5356   */\n      0x00\n        /* \"#utility.yul\":5347:5350   */\n      dup6\n        /* \"#utility.yul\":5343:5357   */\n      add\n        /* \"#utility.yul\":5329:5341   */\n      dup3\n        /* \"#utility.yul\":5279:5358   */\n      tag_396\n      jump\t// in\n    tag_479:\n        /* \"#utility.yul\":5184:5368   */\n      pop\n        /* \"#utility.yul\":5451:5455   */\n      0x20\n        /* \"#utility.yul\":5444:5449   */\n      dup3\n        /* \"#utility.yul\":5440:5456   */\n      add\n        /* \"#utility.yul\":5434:5457   */\n      mload\n        /* \"#utility.yul\":5470:5533   */\n      tag_480\n        /* \"#utility.yul\":5527:5531   */\n      0x20\n        /* \"#utility.yul\":5522:5525   */\n      dup6\n        /* \"#utility.yul\":5518:5532   */\n      add\n        /* \"#utility.yul\":5504:5516   */\n      dup3\n        /* \"#utility.yul\":5470:5533   */\n      tag_381\n      jump\t// in\n    tag_480:\n        /* \"#utility.yul\":5378:5543   */\n      pop\n        /* \"#utility.yul\":5630:5634   */\n      0x40\n        /* \"#utility.yul\":5623:5628   */\n      dup3\n        /* \"#utility.yul\":5619:5635   */\n      add\n        /* \"#utility.yul\":5613:5636   */\n      mload\n        /* \"#utility.yul\":5649:5712   */\n      tag_481\n        /* \"#utility.yul\":5706:5710   */\n      0x40\n        /* \"#utility.yul\":5701:5704   */\n      dup6\n        /* \"#utility.yul\":5697:5711   */\n      add\n        /* \"#utility.yul\":5683:5695   */\n      dup3\n        /* \"#utility.yul\":5649:5712   */\n      tag_381\n      jump\t// in\n    tag_481:\n        /* \"#utility.yul\":5553:5722   */\n      pop\n        /* \"#utility.yul\":5805:5809   */\n      0x60\n        /* \"#utility.yul\":5798:5803   */\n      dup3\n        /* \"#utility.yul\":5794:5810   */\n      add\n        /* \"#utility.yul\":5788:5811   */\n      mload\n        /* \"#utility.yul\":5824:5892   */\n      tag_482\n        /* \"#utility.yul\":5886:5890   */\n      0x60\n        /* \"#utility.yul\":5881:5884   */\n      dup6\n        /* \"#utility.yul\":5877:5891   */\n      add\n        /* \"#utility.yul\":5863:5875   */\n      dup3\n        /* \"#utility.yul\":5824:5892   */\n      tag_400\n      jump\t// in\n    tag_482:\n        /* \"#utility.yul\":5732:5902   */\n      pop\n        /* \"#utility.yul\":5138:5909   */\n      pop\n        /* \"#utility.yul\":5040:5909   */\n      pop\n      pop\n      jump\t// out\n        /* \"#utility.yul\":5915:6178   */\n    tag_402:\n        /* \"#utility.yul\":6026:6036   */\n      0x00\n        /* \"#utility.yul\":6047:6135   */\n      tag_484\n        /* \"#utility.yul\":6131:6134   */\n      dup4\n        /* \"#utility.yul\":6123:6129   */\n      dup4\n        /* \"#utility.yul\":6047:6135   */\n      tag_401\n      jump\t// in\n    tag_484:\n        /* \"#utility.yul\":6167:6171   */\n      0x80\n        /* \"#utility.yul\":6162:6165   */\n      dup4\n        /* \"#utility.yul\":6158:6172   */\n      add\n        /* \"#utility.yul\":6144:6172   */\n      swap1\n      pop\n        /* \"#utility.yul\":5915:6178   */\n      swap3\n      swap2\n      pop\n      pop\n      jump\t// out\n        /* \"#utility.yul\":6184:6318   */\n    tag_403:\n        /* \"#utility.yul\":6275:6279   */\n      0x00\n        /* \"#utility.yul\":6307:6311   */\n      0x20\n        /* \"#utility.yul\":6302:6305   */\n      dup3\n        /* \"#utility.yul\":6298:6312   */\n      add\n        /* \"#utility.yul\":6290:6312   */\n      swap1\n      pop\n        /* \"#utility.yul\":6184:6318   */\n      swap2\n      swap1\n      pop\n      jump\t// out\n        /* \"#utility.yul\":6384:7284   */\n    tag_404:\n        /* \"#utility.yul\":6545:6548   */\n      0x00\n        /* \"#utility.yul\":6574:6649   */\n      tag_487\n        /* \"#utility.yul\":6643:6648   */\n      dup3\n        /* \"#utility.yul\":6574:6649   */\n      tag_391\n      jump\t// in\n    tag_487:\n        /* \"#utility.yul\":6665:6772   */\n      tag_488\n        /* \"#utility.yul\":6765:6771   */\n      dup2\n        /* \"#utility.yul\":6760:6763   */\n      dup6\n        /* \"#utility.yul\":6665:6772   */\n      tag_392\n      jump\t// in\n    tag_488:\n        /* \"#utility.yul\":6658:6772   */\n      swap4\n      pop\n        /* \"#utility.yul\":6796:6873   */\n      tag_489\n        /* \"#utility.yul\":6867:6872   */\n      dup4\n        /* \"#utility.yul\":6796:6873   */\n      tag_393\n      jump\t// in\n    tag_489:\n        /* \"#utility.yul\":6896:6903   */\n      dup1\n        /* \"#utility.yul\":6927:6928   */\n      0x00\n        /* \"#utility.yul\":6912:7259   */\n    tag_490:\n        /* \"#utility.yul\":6937:6943   */\n      dup4\n        /* \"#utility.yul\":6934:6935   */\n      dup2\n        /* \"#utility.yul\":6931:6944   */\n      lt\n        /* \"#utility.yul\":6912:7259   */\n      iszero\n      tag_492\n      jumpi\n        /* \"#utility.yul\":7013:7019   */\n      dup2\n        /* \"#utility.yul\":7007:7020   */\n      mload\n        /* \"#utility.yul\":7040:7145   */\n      tag_493\n        /* \"#utility.yul\":7141:7144   */\n      dup9\n        /* \"#utility.yul\":7126:7139   */\n      dup3\n        /* \"#utility.yul\":7040:7145   */\n      tag_402\n      jump\t// in\n    tag_493:\n        /* \"#utility.yul\":7033:7145   */\n      swap8\n      pop\n        /* \"#utility.yul\":7168:7249   */\n      tag_494\n        /* \"#utility.yul\":7242:7248   */\n      dup4\n        /* \"#utility.yul\":7168:7249   */\n      tag_403\n      jump\t// in\n    tag_494:\n        /* \"#utility.yul\":7158:7249   */\n      swap3\n      pop\n        /* \"#utility.yul\":6972:7259   */\n      pop\n        /* \"#utility.yul\":6959:6960   */\n      0x01\n        /* \"#utility.yul\":6956:6957   */\n      dup2\n        /* \"#utility.yul\":6952:6961   */\n      add\n        /* \"#utility.yul\":6947:6961   */\n      swap1\n      pop\n        /* \"#utility.yul\":6912:7259   */\n      jump(tag_490)\n    tag_492:\n        /* \"#utility.yul\":6916:6930   */\n      pop\n        /* \"#utility.yul\":7275:7278   */\n      dup6\n        /* \"#utility.yul\":7268:7278   */\n      swap4\n      pop\n        /* \"#utility.yul\":6550:7284   */\n      pop\n      pop\n      pop\n        /* \"#utility.yul\":6384:7284   */\n      swap3\n      swap2\n      pop\n      pop\n      jump\t// out\n        /* \"#utility.yul\":7290:7747   */\n    tag_39:\n        /* \"#utility.yul\":7475:7479   */\n      0x00\n        /* \"#utility.yul\":7513:7515   */\n      0x20\n        /* \"#utility.yul\":7502:7511   */\n      dup3\n        /* \"#utility.yul\":7498:7516   */\n      add\n        /* \"#utility.yul\":7490:7516   */\n      swap1\n      pop\n        /* \"#utility.yul\":7562:7571   */\n      dup2\n        /* \"#utility.yul\":7556:7560   */\n      dup2\n        /* \"#utility.yul\":7552:7572   */\n      sub\n        /* \"#utility.yul\":7548:7549   */\n      0x00\n        /* \"#utility.yul\":7537:7546   */\n      dup4\n        /* \"#utility.yul\":7533:7550   */\n      add\n        /* \"#utility.yul\":7526:7573   */\n      mstore\n        /* \"#utility.yul\":7590:7740   */\n      tag_496\n        /* \"#utility.yul\":7735:7739   */\n      dup2\n        /* \"#utility.yul\":7726:7732   */\n      dup5\n        /* \"#utility.yul\":7590:7740   */\n      tag_404\n      jump\t// in\n    tag_496:\n        /* \"#utility.yul\":7582:7740   */\n      swap1\n      pop\n        /* \"#utility.yul\":7290:7747   */\n      swap3\n      swap2\n      pop\n      pop\n      jump\t// out\n        /* \"#utility.yul\":7753:7894   */\n    tag_405:\n        /* \"#utility.yul\":7845:7887   */\n      tag_498\n        /* \"#utility.yul\":7881:7886   */\n      dup2\n        /* \"#utility.yul\":7845:7887   */\n      tag_399\n      jump\t// in\n    tag_498:\n        /* \"#utility.yul\":7840:7843   */\n      dup3\n        /* \"#utility.yul\":7833:7888   */\n      mstore\n        /* \"#utility.yul\":7753:7894   */\n      pop\n      pop\n      jump\t// out\n        /* \"#utility.yul\":7900:8132   */\n    tag_45:\n        /* \"#utility.yul\":7998:8002   */\n      0x00\n        /* \"#utility.yul\":8036:8038   */\n      0x20\n        /* \"#utility.yul\":8025:8034   */\n      dup3\n        /* \"#utility.yul\":8021:8039   */\n      add\n        /* \"#utility.yul\":8013:8039   */\n      swap1\n      pop\n        /* \"#utility.yul\":8049:8125   */\n      tag_500\n        /* \"#utility.yul\":8122:8123   */\n      0x00\n        /* \"#utility.yul\":8111:8120   */\n      dup4\n        /* \"#utility.yul\":8107:8124   */\n      add\n        /* \"#utility.yul\":8098:8104   */\n      dup5\n        /* \"#utility.yul\":8049:8125   */\n      tag_405\n      jump\t// in\n    tag_500:\n        /* \"#utility.yul\":7900:8132   */\n      swap3\n      swap2\n      pop\n      pop\n      jump\t// out\n        /* \"#utility.yul\":8138:8280   */\n    tag_406:\n        /* \"#utility.yul\":8241:8273   */\n      tag_502\n        /* \"#utility.yul\":8267:8272   */\n      dup2\n        /* \"#utility.yul\":8241:8273   */\n      tag_395\n      jump\t// in\n    tag_502:\n        /* \"#utility.yul\":8236:8239   */\n      dup3\n        /* \"#utility.yul\":8229:8274   */\n      mstore\n        /* \"#utility.yul\":8138:8280   */\n      pop\n      pop\n      jump\t// out\n        /* \"#utility.yul\":8286:8540   */\n    tag_51:\n        /* \"#utility.yul\":8395:8399   */\n      0x00\n        /* \"#utility.yul\":8433:8435   */\n      0x20\n        /* \"#utility.yul\":8422:8431   */\n      dup3\n        /* \"#utility.yul\":8418:8436   */\n      add\n        /* \"#utility.yul\":8410:8436   */\n      swap1\n      pop\n        /* \"#utility.yul\":8446:8533   */\n      tag_504\n        /* \"#utility.yul\":8530:8531   */\n      0x00\n        /* \"#utility.yul\":8519:8528   */\n      dup4\n        /* \"#utility.yul\":8515:8532   */\n      add\n        /* \"#utility.yul\":8506:8512   */\n      dup5\n        /* \"#utility.yul\":8446:8533   */\n      tag_406\n      jump\t// in\n    tag_504:\n        /* \"#utility.yul\":8286:8540   */\n      swap3\n      swap2\n      pop\n      pop\n      jump\t// out\n        /* \"#utility.yul\":8546:8726   */\n    tag_93:\n        /* \"#utility.yul\":8594:8671   */\n      0x4e487b7100000000000000000000000000000000000000000000000000000000\n        /* \"#utility.yul\":8591:8592   */\n      0x00\n        /* \"#utility.yul\":8584:8672   */\n      mstore\n        /* \"#utility.yul\":8691:8695   */\n      0x32\n        /* \"#utility.yul\":8688:8689   */\n      0x04\n        /* \"#utility.yul\":8681:8696   */\n      mstore\n        /* \"#utility.yul\":8715:8719   */\n      0x24\n        /* \"#utility.yul\":8712:8713   */\n      0x00\n        /* \"#utility.yul\":8705:8720   */\n      revert\n        /* \"#utility.yul\":8732:8912   */\n    tag_407:\n        /* \"#utility.yul\":8780:8857   */\n      0x4e487b7100000000000000000000000000000000000000000000000000000000\n        /* \"#utility.yul\":8777:8778   */\n      0x00\n        /* \"#utility.yul\":8770:8858   */\n      mstore\n        /* \"#utility.yul\":8877:8881   */\n      0x11\n        /* \"#utility.yul\":8874:8875   */\n      0x04\n        /* \"#utility.yul\":8867:8882   */\n      mstore\n        /* \"#utility.yul\":8901:8905   */\n      0x24\n        /* \"#utility.yul\":8898:8899   */\n      0x00\n        /* \"#utility.yul\":8891:8906   */\n      revert\n        /* \"#utility.yul\":8918:9151   */\n    tag_98:\n        /* \"#utility.yul\":8957:8960   */\n      0x00\n        /* \"#utility.yul\":8980:9004   */\n      tag_508\n        /* \"#utility.yul\":8998:9003   */\n      dup3\n        /* \"#utility.yul\":8980:9004   */\n      tag_380\n      jump\t// in\n    tag_508:\n        /* \"#utility.yul\":8971:9004   */\n      swap2\n      pop\n        /* \"#utility.yul\":9026:9092   */\n      0xffffffffffffffffffffffffffffffffffffffffffffffffffffffffffffffff\n        /* \"#utility.yul\":9019:9024   */\n      dup3\n        /* \"#utility.yul\":9016:9093   */\n      sub\n        /* \"#utility.yul\":9013:9116   */\n      tag_509\n      jumpi\n        /* \"#utility.yul\":9096:9114   */\n      tag_510\n      tag_407\n      jump\t// in\n    tag_510:\n        /* \"#utility.yul\":9013:9116   */\n    tag_509:\n        /* \"#utility.yul\":9143:9144   */\n      0x01\n        /* \"#utility.yul\":9136:9141   */\n      dup3\n        /* \"#utility.yul\":9132:9145   */\n      add\n        /* \"#utility.yul\":9125:9145   */\n      swap1\n      pop\n        /* \"#utility.yul\":8918:9151   */\n      swap2\n      swap1\n      pop\n      jump\t// out\n        /* \"#utility.yul\":9157:9326   */\n    tag_408:\n        /* \"#utility.yul\":9241:9252   */\n      0x00\n        /* \"#utility.yul\":9275:9281   */\n      dup3\n        /* \"#utility.yul\":9270:9273   */\n      dup3\n        /* \"#utility.yul\":9263:9282   */\n      mstore\n        /* \"#utility.yul\":9315:9319   */\n      0x20\n        /* \"#utility.yul\":9310:9313   */\n      dup3\n        /* \"#utility.yul\":9306:9320   */\n      add\n        /* \"#utility.yul\":9291:9320   */\n      swap1\n      pop\n        /* \"#utility.yul\":9157:9326   */\n      swap3\n      swap2\n      pop\n      pop\n      jump\t// out\n        /* \"#utility.yul\":9332:9495   */\n    tag_409:\n        /* \"#utility.yul\":9472:9487   */\n      0x4f726465722050656e64696e6700000000000000000000000000000000000000\n        /* \"#utility.yul\":9468:9469   */\n      0x00\n        /* \"#utility.yul\":9460:9466   */\n      dup3\n        /* \"#utility.yul\":9456:9470   */\n      add\n        /* \"#utility.yul\":9449:9488   */\n      mstore\n        /* \"#utility.yul\":9332:9495   */\n      pop\n      jump\t// out\n        /* \"#utility.yul\":9501:9867   */\n    tag_410:\n        /* \"#utility.yul\":9643:9646   */\n      0x00\n        /* \"#utility.yul\":9664:9731   */\n      tag_514\n        /* \"#utility.yul\":9728:9730   */\n      0x0d\n        /* \"#utility.yul\":9723:9726   */\n      dup4\n        /* \"#utility.yul\":9664:9731   */\n      tag_408\n      jump\t// in\n    tag_514:\n        /* \"#utility.yul\":9657:9731   */\n      swap2\n      pop\n        /* \"#utility.yul\":9740:9833   */\n      tag_515\n        /* \"#utility.yul\":9829:9832   */\n      dup3\n        /* \"#utility.yul\":9740:9833   */\n      tag_409\n      jump\t// in\n    tag_515:\n        /* \"#utility.yul\":9858:9860   */\n      0x20\n        /* \"#utility.yul\":9853:9856   */\n      dup3\n        /* \"#utility.yul\":9849:9861   */\n      add\n        /* \"#utility.yul\":9842:9861   */\n      swap1\n      pop\n        /* \"#utility.yul\":9501:9867   */\n      swap2\n      swap1\n      pop\n      jump\t// out\n        /* \"#utility.yul\":9873:10292   */\n    tag_116:\n        /* \"#utility.yul\":10039:10043   */\n      0x00\n        /* \"#utility.yul\":10077:10079   */\n      0x20\n        /* \"#utility.yul\":10066:10075   */\n      dup3\n        /* \"#utility.yul\":10062:10080   */\n      add\n        /* \"#utility.yul\":10054:10080   */\n      swap1\n      pop\n        /* \"#utility.yul\":10126:10135   */\n      dup2\n        /* \"#utility.yul\":10120:10124   */\n      dup2\n        /* \"#utility.yul\":10116:10136   */\n      sub\n        /* \"#utility.yul\":10112:10113   */\n      0x00\n        /* \"#utility.yul\":10101:10110   */\n      dup4\n        /* \"#utility.yul\":10097:10114   */\n      add\n        /* \"#utility.yul\":10090:10137   */\n      mstore\n        /* \"#utility.yul\":10154:10285   */\n      tag_517\n        /* \"#utility.yul\":10280:10284   */\n      dup2\n        /* \"#utility.yul\":10154:10285   */\n      tag_410\n      jump\t// in\n    tag_517:\n        /* \"#utility.yul\":10146:10285   */\n      swap1\n      pop\n        /* \"#utility.yul\":9873:10292   */\n      swap2\n      swap1\n      pop\n      jump\t// out\n        /* \"#utility.yul\":10298:10462   */\n    tag_411:\n        /* \"#utility.yul\":10438:10454   */\n      0x4e6f7420417574686f7269736564000000000000000000000000000000000000\n        /* \"#utility.yul\":10434:10435   */\n      0x00\n        /* \"#utility.yul\":10426:10432   */\n      dup3\n        /* \"#utility.yul\":10422:10436   */\n      add\n        /* \"#utility.yul\":10415:10455   */\n      mstore\n        /* \"#utility.yul\":10298:10462   */\n      pop\n      jump\t// out\n        /* \"#utility.yul\":10468:10834   */\n    tag_412:\n        /* \"#utility.yul\":10610:10613   */\n      0x00\n        /* \"#utility.yul\":10631:10698   */\n      tag_520\n        /* \"#utility.yul\":10695:10697   */\n      0x0e\n        /* \"#utility.yul\":10690:10693   */\n      dup4\n        /* \"#utility.yul\":10631:10698   */\n      tag_408\n      jump\t// in\n    tag_520:\n        /* \"#utility.yul\":10624:10698   */\n      swap2\n      pop\n        /* \"#utility.yul\":10707:10800   */\n      tag_521\n        /* \"#utility.yul\":10796:10799   */\n      dup3\n        /* \"#utility.yul\":10707:10800   */\n      tag_411\n      jump\t// in\n    tag_521:\n        /* \"#utility.yul\":10825:10827   */\n      0x20\n        /* \"#utility.yul\":10820:10823   */\n      dup3\n        /* \"#utility.yul\":10816:10828   */\n      add\n        /* \"#utility.yul\":10809:10828   */\n      swap1\n      pop\n        /* \"#utility.yul\":10468:10834   */\n      swap2\n      swap1\n      pop\n      jump\t// out\n        /* \"#utility.yul\":10840:11259   */\n    tag_127:\n        /* \"#utility.yul\":11006:11010   */\n      0x00\n        /* \"#utility.yul\":11044:11046   */\n      0x20\n        /* \"#utility.yul\":11033:11042   */\n      dup3\n        /* \"#utility.yul\":11029:11047   */\n      add\n        /* \"#utility.yul\":11021:11047   */\n      swap1\n      pop\n        /* \"#utility.yul\":11093:11102   */\n      dup2\n        /* \"#utility.yul\":11087:11091   */\n      dup2\n        /* \"#utility.yul\":11083:11103   */\n      sub\n        /* \"#utility.yul\":11079:11080   */\n      0x00\n        /* \"#utility.yul\":11068:11077   */\n      dup4\n        /* \"#utility.yul\":11064:11081   */\n      add\n        /* \"#utility.yul\":11057:11104   */\n      mstore\n        /* \"#utility.yul\":11121:11252   */\n      tag_523\n        /* \"#utility.yul\":11247:11251   */\n      dup2\n        /* \"#utility.yul\":11121:11252   */\n      tag_412\n      jump\t// in\n    tag_523:\n        /* \"#utility.yul\":11113:11252   */\n      swap1\n      pop\n        /* \"#utility.yul\":10840:11259   */\n      swap2\n      swap1\n      pop\n      jump\t// out\n        /* \"#utility.yul\":11265:11446   */\n    tag_413:\n        /* \"#utility.yul\":11405:11438   */\n      0x70726963652076616c7565206d757374206265206d6f7265207468616e203000\n        /* \"#utility.yul\":11401:11402   */\n      0x00\n        /* \"#utility.yul\":11393:11399   */\n      dup3\n        /* \"#utility.yul\":11389:11403   */\n      add\n        /* \"#utility.yul\":11382:11439   */\n      mstore\n        /* \"#utility.yul\":11265:11446   */\n      pop\n      jump\t// out\n        /* \"#utility.yul\":11452:11818   */\n    tag_414:\n        /* \"#utility.yul\":11594:11597   */\n      0x00\n        /* \"#utility.yul\":11615:11682   */\n      tag_526\n        /* \"#utility.yul\":11679:11681   */\n      0x1f\n        /* \"#utility.yul\":11674:11677   */\n      dup4\n        /* \"#utility.yul\":11615:11682   */\n      tag_408\n      jump\t// in\n    tag_526:\n        /* \"#utility.yul\":11608:11682   */\n      swap2\n      pop\n        /* \"#utility.yul\":11691:11784   */\n      tag_527\n        /* \"#utility.yul\":11780:11783   */\n      dup3\n        /* \"#utility.yul\":11691:11784   */\n      tag_413\n      jump\t// in\n    tag_527:\n        /* \"#utility.yul\":11809:11811   */\n      0x20\n        /* \"#utility.yul\":11804:11807   */\n      dup3\n        /* \"#utility.yul\":11800:11812   */\n      add\n        /* \"#utility.yul\":11793:11812   */\n      swap1\n      pop\n        /* \"#utility.yul\":11452:11818   */\n      swap2\n      swap1\n      pop\n      jump\t// out\n        /* \"#utility.yul\":11824:12243   */\n    tag_170:\n        /* \"#utility.yul\":11990:11994   */\n      0x00\n        /* \"#utility.yul\":12028:12030   */\n      0x20\n        /* \"#utility.yul\":12017:12026   */\n      dup3\n        /* \"#utility.yul\":12013:12031   */\n      add\n        /* \"#utility.yul\":12005:12031   */\n      swap1\n      pop\n        /* \"#utility.yul\":12077:12086   */\n      dup2\n        /* \"#utility.yul\":12071:12075   */\n      dup2\n        /* \"#utility.yul\":12067:12087   */\n      sub\n        /* \"#utility.yul\":12063:12064   */\n      0x00\n        /* \"#utility.yul\":12052:12061   */\n      dup4\n        /* \"#utility.yul\":12048:12065   */\n      add\n        /* \"#utility.yul\":12041:12088   */\n      mstore\n        /* \"#utility.yul\":12105:12236   */\n      tag_529\n        /* \"#utility.yul\":12231:12235   */\n      dup2\n        /* \"#utility.yul\":12105:12236   */\n      tag_414\n      jump\t// in\n    tag_529:\n        /* \"#utility.yul\":12097:12236   */\n      swap1\n      pop\n        /* \"#utility.yul\":11824:12243   */\n      swap2\n      swap1\n      pop\n      jump\t// out\n        /* \"#utility.yul\":12249:12429   */\n    tag_415:\n        /* \"#utility.yul\":12389:12421   */\n      0x4e6f7420656e6f75676820626c616e636520746f20706c6163652061736b0000\n        /* \"#utility.yul\":12385:12386   */\n      0x00\n        /* \"#utility.yul\":12377:12383   */\n      dup3\n        /* \"#utility.yul\":12373:12387   */\n      add\n        /* \"#utility.yul\":12366:12422   */\n      mstore\n        /* \"#utility.yul\":12249:12429   */\n      pop\n      jump\t// out\n        /* \"#utility.yul\":12435:12801   */\n    tag_416:\n        /* \"#utility.yul\":12577:12580   */\n      0x00\n        /* \"#utility.yul\":12598:12665   */\n      tag_532\n        /* \"#utility.yul\":12662:12664   */\n      0x1e\n        /* \"#utility.yul\":12657:12660   */\n      dup4\n        /* \"#utility.yul\":12598:12665   */\n      tag_408\n      jump\t// in\n    tag_532:\n        /* \"#utility.yul\":12591:12665   */\n      swap2\n      pop\n        /* \"#utility.yul\":12674:12767   */\n      tag_533\n        /* \"#utility.yul\":12763:12766   */\n      dup3\n        /* \"#utility.yul\":12674:12767   */\n      tag_415\n      jump\t// in\n    tag_533:\n        /* \"#utility.yul\":12792:12794   */\n      0x20\n        /* \"#utility.yul\":12787:12790   */\n      dup3\n        /* \"#utility.yul\":12783:12795   */\n      add\n        /* \"#utility.yul\":12776:12795   */\n      swap1\n      pop\n        /* \"#utility.yul\":12435:12801   */\n      swap2\n      swap1\n      pop\n      jump\t// out\n        /* \"#utility.yul\":12807:13226   */\n    tag_173:\n        /* \"#utility.yul\":12973:12977   */\n      0x00\n        /* \"#utility.yul\":13011:13013   */\n      0x20\n        /* \"#utility.yul\":13000:13009   */\n      dup3\n        /* \"#utility.yul\":12996:13014   */\n      add\n        /* \"#utility.yul\":12988:13014   */\n      swap1\n      pop\n        /* \"#utility.yul\":13060:13069   */\n      dup2\n        /* \"#utility.yul\":13054:13058   */\n      dup2\n        /* \"#utility.yul\":13050:13070   */\n      sub\n        /* \"#utility.yul\":13046:13047   */\n      0x00\n        /* \"#utility.yul\":13035:13044   */\n      dup4\n        /* \"#utility.yul\":13031:13048   */\n      add\n        /* \"#utility.yul\":13024:13071   */\n      mstore\n        /* \"#utility.yul\":13088:13219   */\n      tag_535\n        /* \"#utility.yul\":13214:13218   */\n      dup2\n        /* \"#utility.yul\":13088:13219   */\n      tag_416\n      jump\t// in\n    tag_535:\n        /* \"#utility.yul\":13080:13219   */\n      swap1\n      pop\n        /* \"#utility.yul\":12807:13226   */\n      swap2\n      swap1\n      pop\n      jump\t// out\n        /* \"#utility.yul\":13232:13423   */\n    tag_175:\n        /* \"#utility.yul\":13272:13276   */\n      0x00\n        /* \"#utility.yul\":13292:13312   */\n      tag_537\n        /* \"#utility.yul\":13310:13311   */\n      dup3\n        /* \"#utility.yul\":13292:13312   */\n      tag_380\n      jump\t// in\n    tag_537:\n        /* \"#utility.yul\":13287:13312   */\n      swap2\n      pop\n        /* \"#utility.yul\":13326:13346   */\n      tag_538\n        /* \"#utility.yul\":13344:13345   */\n      dup4\n        /* \"#utility.yul\":13326:13346   */\n      tag_380\n      jump\t// in\n    tag_538:\n        /* \"#utility.yul\":13321:13346   */\n      swap3\n      pop\n        /* \"#utility.yul\":13365:13366   */\n      dup3\n        /* \"#utility.yul\":13362:13363   */\n      dup3\n        /* \"#utility.yul\":13359:13367   */\n      lt\n        /* \"#utility.yul\":13356:13390   */\n      iszero\n      tag_539\n      jumpi\n        /* \"#utility.yul\":13370:13388   */\n      tag_540\n      tag_407\n      jump\t// in\n    tag_540:\n        /* \"#utility.yul\":13356:13390   */\n    tag_539:\n        /* \"#utility.yul\":13415:13416   */\n      dup3\n        /* \"#utility.yul\":13412:13413   */\n      dup3\n        /* \"#utility.yul\":13408:13417   */\n      sub\n        /* \"#utility.yul\":13400:13417   */\n      swap1\n      pop\n        /* \"#utility.yul\":13232:13423   */\n      swap3\n      swap2\n      pop\n      pop\n      jump\t// out\n        /* \"#utility.yul\":13429:13777   */\n    tag_177:\n        /* \"#utility.yul\":13469:13476   */\n      0x00\n        /* \"#utility.yul\":13492:13512   */\n      tag_542\n        /* \"#utility.yul\":13510:13511   */\n      dup3\n        /* \"#utility.yul\":13492:13512   */\n      tag_380\n      jump\t// in\n    tag_542:\n        /* \"#utility.yul\":13487:13512   */\n      swap2\n      pop\n        /* \"#utility.yul\":13526:13546   */\n      tag_543\n        /* \"#utility.yul\":13544:13545   */\n      dup4\n        /* \"#utility.yul\":13526:13546   */\n      tag_380\n      jump\t// in\n    tag_543:\n        /* \"#utility.yul\":13521:13546   */\n      swap3\n      pop\n        /* \"#utility.yul\":13714:13715   */\n      dup2\n        /* \"#utility.yul\":13646:13712   */\n      0xffffffffffffffffffffffffffffffffffffffffffffffffffffffffffffffff\n        /* \"#utility.yul\":13642:13716   */\n      div\n        /* \"#utility.yul\":13639:13640   */\n      dup4\n        /* \"#utility.yul\":13636:13717   */\n      gt\n        /* \"#utility.yul\":13631:13632   */\n      dup3\n        /* \"#utility.yul\":13624:13633   */\n      iszero\n        /* \"#utility.yul\":13617:13634   */\n      iszero\n        /* \"#utility.yul\":13613:13718   */\n      and\n        /* \"#utility.yul\":13610:13741   */\n      iszero\n      tag_544\n      jumpi\n        /* \"#utility.yul\":13721:13739   */\n      tag_545\n      tag_407\n      jump\t// in\n    tag_545:\n        /* \"#utility.yul\":13610:13741   */\n    tag_544:\n        /* \"#utility.yul\":13769:13770   */\n      dup3\n        /* \"#utility.yul\":13766:13767   */\n      dup3\n        /* \"#utility.yul\":13762:13771   */\n      mul\n        /* \"#utility.yul\":13751:13771   */\n      swap1\n      pop\n        /* \"#utility.yul\":13429:13777   */\n      swap3\n      swap2\n      pop\n      pop\n      jump\t// out\n        /* \"#utility.yul\":13783:13963   */\n    tag_417:\n        /* \"#utility.yul\":13831:13908   */\n      0x4e487b7100000000000000000000000000000000000000000000000000000000\n        /* \"#utility.yul\":13828:13829   */\n      0x00\n        /* \"#utility.yul\":13821:13909   */\n      mstore\n        /* \"#utility.yul\":13928:13932   */\n      0x12\n        /* \"#utility.yul\":13925:13926   */\n      0x04\n        /* \"#utility.yul\":13918:13933   */\n      mstore\n        /* \"#utility.yul\":13952:13956   */\n      0x24\n        /* \"#utility.yul\":13949:13950   */\n      0x00\n        /* \"#utility.yul\":13942:13957   */\n      revert\n        /* \"#utility.yul\":13969:14154   */\n    tag_179:\n        /* \"#utility.yul\":14009:14010   */\n      0x00\n        /* \"#utility.yul\":14026:14046   */\n      tag_548\n        /* \"#utility.yul\":14044:14045   */\n      dup3\n        /* \"#utility.yul\":14026:14046   */\n      tag_380\n      jump\t// in\n    tag_548:\n        /* \"#utility.yul\":14021:14046   */\n      swap2\n      pop\n        /* \"#utility.yul\":14060:14080   */\n      tag_549\n        /* \"#utility.yul\":14078:14079   */\n      dup4\n        /* \"#utility.yul\":14060:14080   */\n      tag_380\n      jump\t// in\n    tag_549:\n        /* \"#utility.yul\":14055:14080   */\n      swap3\n      pop\n        /* \"#utility.yul\":14099:14100   */\n      dup3\n        /* \"#utility.yul\":14089:14124   */\n      tag_550\n      jumpi\n        /* \"#utility.yul\":14104:14122   */\n      tag_551\n      tag_417\n      jump\t// in\n    tag_551:\n        /* \"#utility.yul\":14089:14124   */\n    tag_550:\n        /* \"#utility.yul\":14146:14147   */\n      dup3\n        /* \"#utility.yul\":14143:14144   */\n      dup3\n        /* \"#utility.yul\":14139:14148   */\n      div\n        /* \"#utility.yul\":14134:14148   */\n      swap1\n      pop\n        /* \"#utility.yul\":13969:14154   */\n      swap3\n      swap2\n      pop\n      pop\n      jump\t// out\n        /* \"#utility.yul\":14160:14256   */\n    tag_418:\n        /* \"#utility.yul\":14197:14204   */\n      0x00\n        /* \"#utility.yul\":14226:14250   */\n      tag_553\n        /* \"#utility.yul\":14244:14249   */\n      dup3\n        /* \"#utility.yul\":14226:14250   */\n      tag_394\n      jump\t// in\n    tag_553:\n        /* \"#utility.yul\":14215:14250   */\n      swap1\n      pop\n        /* \"#utility.yul\":14160:14256   */\n      swap2\n      swap1\n      pop\n      jump\t// out\n        /* \"#utility.yul\":14262:14380   */\n    tag_419:\n        /* \"#utility.yul\":14349:14373   */\n      tag_555\n        /* \"#utility.yul\":14367:14372   */\n      dup2\n        /* \"#utility.yul\":14349:14373   */\n      tag_418\n      jump\t// in\n    tag_555:\n        /* \"#utility.yul\":14344:14347   */\n      dup3\n        /* \"#utility.yul\":14337:14374   */\n      mstore\n        /* \"#utility.yul\":14262:14380   */\n      pop\n      pop\n      jump\t// out\n        /* \"#utility.yul\":14386:14949   */\n    tag_188:\n        /* \"#utility.yul\":14568:14572   */\n      0x00\n        /* \"#utility.yul\":14606:14609   */\n      0x80\n        /* \"#utility.yul\":14595:14604   */\n      dup3\n        /* \"#utility.yul\":14591:14610   */\n      add\n        /* \"#utility.yul\":14583:14610   */\n      swap1\n      pop\n        /* \"#utility.yul\":14620:14691   */\n      tag_557\n        /* \"#utility.yul\":14688:14689   */\n      0x00\n        /* \"#utility.yul\":14677:14686   */\n      dup4\n        /* \"#utility.yul\":14673:14690   */\n      add\n        /* \"#utility.yul\":14664:14670   */\n      dup8\n        /* \"#utility.yul\":14620:14691   */\n      tag_419\n      jump\t// in\n    tag_557:\n        /* \"#utility.yul\":14701:14773   */\n      tag_558\n        /* \"#utility.yul\":14769:14771   */\n      0x20\n        /* \"#utility.yul\":14758:14767   */\n      dup4\n        /* \"#utility.yul\":14754:14772   */\n      add\n        /* \"#utility.yul\":14745:14751   */\n      dup7\n        /* \"#utility.yul\":14701:14773   */\n      tag_390\n      jump\t// in\n    tag_558:\n        /* \"#utility.yul\":14783:14855   */\n      tag_559\n        /* \"#utility.yul\":14851:14853   */\n      0x40\n        /* \"#utility.yul\":14840:14849   */\n      dup4\n        /* \"#utility.yul\":14836:14854   */\n      add\n        /* \"#utility.yul\":14827:14833   */\n      dup6\n        /* \"#utility.yul\":14783:14855   */\n      tag_390\n      jump\t// in\n    tag_559:\n        /* \"#utility.yul\":14865:14942   */\n      tag_560\n        /* \"#utility.yul\":14938:14940   */\n      0x60\n        /* \"#utility.yul\":14927:14936   */\n      dup4\n        /* \"#utility.yul\":14923:14941   */\n      add\n        /* \"#utility.yul\":14914:14920   */\n      dup5\n        /* \"#utility.yul\":14865:14942   */\n      tag_405\n      jump\t// in\n    tag_560:\n        /* \"#utility.yul\":14386:14949   */\n      swap6\n      swap5\n      pop\n      pop\n      pop\n      pop\n      pop\n      jump\t// out\n        /* \"#utility.yul\":14955:15135   */\n    tag_420:\n        /* \"#utility.yul\":15095:15127   */\n      0x4e6f7420656e6f75676820626c616e636520746f20706c616365206269640000\n        /* \"#utility.yul\":15091:15092   */\n      0x00\n        /* \"#utility.yul\":15083:15089   */\n      dup3\n        /* \"#utility.yul\":15079:15093   */\n      add\n        /* \"#utility.yul\":15072:15128   */\n      mstore\n        /* \"#utility.yul\":14955:15135   */\n      pop\n      jump\t// out\n        /* \"#utility.yul\":15141:15507   */\n    tag_421:\n        /* \"#utility.yul\":15283:15286   */\n      0x00\n        /* \"#utility.yul\":15304:15371   */\n      tag_563\n        /* \"#utility.yul\":15368:15370   */\n      0x1e\n        /* \"#utility.yul\":15363:15366   */\n      dup4\n        /* \"#utility.yul\":15304:15371   */\n      tag_408\n      jump\t// in\n    tag_563:\n        /* \"#utility.yul\":15297:15371   */\n      swap2\n      pop\n        /* \"#utility.yul\":15380:15473   */\n      tag_564\n        /* \"#utility.yul\":15469:15472   */\n      dup3\n        /* \"#utility.yul\":15380:15473   */\n      tag_420\n      jump\t// in\n    tag_564:\n        /* \"#utility.yul\":15498:15500   */\n      0x20\n        /* \"#utility.yul\":15493:15496   */\n      dup3\n        /* \"#utility.yul\":15489:15501   */\n      add\n        /* \"#utility.yul\":15482:15501   */\n      swap1\n      pop\n        /* \"#utility.yul\":15141:15507   */\n      swap2\n      swap1\n      pop\n      jump\t// out\n        /* \"#utility.yul\":15513:15932   */\n    tag_233:\n        /* \"#utility.yul\":15679:15683   */\n      0x00\n        /* \"#utility.yul\":15717:15719   */\n      0x20\n        /* \"#utility.yul\":15706:15715   */\n      dup3\n        /* \"#utility.yul\":15702:15720   */\n      add\n        /* \"#utility.yul\":15694:15720   */\n      swap1\n      pop\n        /* \"#utility.yul\":15766:15775   */\n      dup2\n        /* \"#utility.yul\":15760:15764   */\n      dup2\n        /* \"#utility.yul\":15756:15776   */\n      sub\n        /* \"#utility.yul\":15752:15753   */\n      0x00\n        /* \"#utility.yul\":15741:15750   */\n      dup4\n        /* \"#utility.yul\":15737:15754   */\n      add\n        /* \"#utility.yul\":15730:15777   */\n      mstore\n        /* \"#utility.yul\":15794:15925   */\n      tag_566\n        /* \"#utility.yul\":15920:15924   */\n      dup2\n        /* \"#utility.yul\":15794:15925   */\n      tag_421\n      jump\t// in\n    tag_566:\n        /* \"#utility.yul\":15786:15925   */\n      swap1\n      pop\n        /* \"#utility.yul\":15513:15932   */\n      swap2\n      swap1\n      pop\n      jump\t// out\n        /* \"#utility.yul\":15938:16014   */\n    tag_422:\n        /* \"#utility.yul\":15974:15981   */\n      0x00\n        /* \"#utility.yul\":16003:16008   */\n      dup2\n        /* \"#utility.yul\":15992:16008   */\n      swap1\n      pop\n        /* \"#utility.yul\":15938:16014   */\n      swap2\n      swap1\n      pop\n      jump\t// out\n        /* \"#utility.yul\":16020:16547   */\n    tag_307:\n        /* \"#utility.yul\":16059:16063   */\n      0x00\n        /* \"#utility.yul\":16079:16098   */\n      tag_569\n        /* \"#utility.yul\":16096:16097   */\n      dup3\n        /* \"#utility.yul\":16079:16098   */\n      tag_422\n      jump\t// in\n    tag_569:\n        /* \"#utility.yul\":16074:16098   */\n      swap2\n      pop\n        /* \"#utility.yul\":16112:16131   */\n      tag_570\n        /* \"#utility.yul\":16129:16130   */\n      dup4\n        /* \"#utility.yul\":16112:16131   */\n      tag_422\n      jump\t// in\n    tag_570:\n        /* \"#utility.yul\":16107:16131   */\n      swap3\n      pop\n        /* \"#utility.yul\":16301:16302   */\n      dup3\n        /* \"#utility.yul\":16233:16299   */\n      0x8000000000000000000000000000000000000000000000000000000000000000\n        /* \"#utility.yul\":16229:16303   */\n      add\n        /* \"#utility.yul\":16226:16227   */\n      dup3\n        /* \"#utility.yul\":16222:16304   */\n      slt\n        /* \"#utility.yul\":16217:16218   */\n      0x00\n        /* \"#utility.yul\":16214:16215   */\n      dup5\n        /* \"#utility.yul\":16210:16219   */\n      slt\n        /* \"#utility.yul\":16203:16220   */\n      iszero\n        /* \"#utility.yul\":16199:16305   */\n      and\n        /* \"#utility.yul\":16196:16328   */\n      iszero\n      tag_571\n      jumpi\n        /* \"#utility.yul\":16308:16326   */\n      tag_572\n      tag_407\n      jump\t// in\n    tag_572:\n        /* \"#utility.yul\":16196:16328   */\n    tag_571:\n        /* \"#utility.yul\":16487:16488   */\n      dup3\n        /* \"#utility.yul\":16419:16485   */\n      0x7fffffffffffffffffffffffffffffffffffffffffffffffffffffffffffffff\n        /* \"#utility.yul\":16415:16489   */\n      add\n        /* \"#utility.yul\":16412:16413   */\n      dup3\n        /* \"#utility.yul\":16408:16490   */\n      sgt\n        /* \"#utility.yul\":16404:16405   */\n      0x00\n        /* \"#utility.yul\":16401:16402   */\n      dup5\n        /* \"#utility.yul\":16397:16406   */\n      slt\n        /* \"#utility.yul\":16393:16491   */\n      and\n        /* \"#utility.yul\":16390:16514   */\n      iszero\n      tag_573\n      jumpi\n        /* \"#utility.yul\":16494:16512   */\n      tag_574\n      tag_407\n      jump\t// in\n    tag_574:\n        /* \"#utility.yul\":16390:16514   */\n    tag_573:\n        /* \"#utility.yul\":16539:16540   */\n      dup3\n        /* \"#utility.yul\":16536:16537   */\n      dup3\n        /* \"#utility.yul\":16532:16541   */\n      sub\n        /* \"#utility.yul\":16524:16541   */\n      swap1\n      pop\n        /* \"#utility.yul\":16020:16547   */\n      swap3\n      swap2\n      pop\n      pop\n      jump\t// out\n        /* \"#utility.yul\":16553:16938   */\n    tag_309:\n        /* \"#utility.yul\":16592:16593   */\n      0x00\n        /* \"#utility.yul\":16609:16628   */\n      tag_576\n        /* \"#utility.yul\":16626:16627   */\n      dup3\n        /* \"#utility.yul\":16609:16628   */\n      tag_422\n      jump\t// in\n    tag_576:\n        /* \"#utility.yul\":16604:16628   */\n      swap2\n      pop\n        /* \"#utility.yul\":16642:16661   */\n      tag_577\n        /* \"#utility.yul\":16659:16660   */\n      dup4\n        /* \"#utility.yul\":16642:16661   */\n      tag_422\n      jump\t// in\n    tag_577:\n        /* \"#utility.yul\":16637:16661   */\n      swap3\n      pop\n        /* \"#utility.yul\":16680:16681   */\n      dup3\n        /* \"#utility.yul\":16670:16705   */\n      tag_578\n      jumpi\n        /* \"#utility.yul\":16685:16703   */\n      tag_579\n      tag_417\n      jump\t// in\n    tag_579:\n        /* \"#utility.yul\":16670:16705   */\n    tag_578:\n        /* \"#utility.yul\":16871:16872   */\n      0x01\n        /* \"#utility.yul\":16868:16869   */\n      0x00\n        /* \"#utility.yul\":16864:16873   */\n      sub\n        /* \"#utility.yul\":16861:16862   */\n      dup4\n        /* \"#utility.yul\":16858:16874   */\n      eq\n        /* \"#utility.yul\":16777:16843   */\n      0x8000000000000000000000000000000000000000000000000000000000000000\n        /* \"#utility.yul\":16774:16775   */\n      dup4\n        /* \"#utility.yul\":16771:16844   */\n      eq\n        /* \"#utility.yul\":16754:16884   */\n      and\n        /* \"#utility.yul\":16751:16907   */\n      iszero\n      tag_580\n      jumpi\n        /* \"#utility.yul\":16887:16905   */\n      tag_581\n      tag_407\n      jump\t// in\n    tag_581:\n        /* \"#utility.yul\":16751:16907   */\n    tag_580:\n        /* \"#utility.yul\":16930:16931   */\n      dup3\n        /* \"#utility.yul\":16927:16928   */\n      dup3\n        /* \"#utility.yul\":16922:16932   */\n      sdiv\n        /* \"#utility.yul\":16917:16932   */\n      swap1\n      pop\n        /* \"#utility.yul\":16553:16938   */\n      swap3\n      swap2\n      pop\n      pop\n      jump\t// out\n        /* \"#utility.yul\":16944:17469   */\n    tag_311:\n        /* \"#utility.yul\":16983:16986   */\n      0x00\n        /* \"#utility.yul\":17002:17021   */\n      tag_583\n        /* \"#utility.yul\":17019:17020   */\n      dup3\n        /* \"#utility.yul\":17002:17021   */\n      tag_422\n      jump\t// in\n    tag_583:\n        /* \"#utility.yul\":16997:17021   */\n      swap2\n      pop\n        /* \"#utility.yul\":17035:17054   */\n      tag_584\n        /* \"#utility.yul\":17052:17053   */\n      dup4\n        /* \"#utility.yul\":17035:17054   */\n      tag_422\n      jump\t// in\n    tag_584:\n        /* \"#utility.yul\":17030:17054   */\n      swap3\n      pop\n        /* \"#utility.yul\":17223:17224   */\n      dup2\n        /* \"#utility.yul\":17155:17221   */\n      0x7fffffffffffffffffffffffffffffffffffffffffffffffffffffffffffffff\n        /* \"#utility.yul\":17151:17225   */\n      sub\n        /* \"#utility.yul\":17148:17149   */\n      dup4\n        /* \"#utility.yul\":17144:17226   */\n      sgt\n        /* \"#utility.yul\":17139:17140   */\n      0x00\n        /* \"#utility.yul\":17136:17137   */\n      dup4\n        /* \"#utility.yul\":17132:17141   */\n      slt\n        /* \"#utility.yul\":17125:17142   */\n      iszero\n        /* \"#utility.yul\":17121:17227   */\n      and\n        /* \"#utility.yul\":17118:17250   */\n      iszero\n      tag_585\n      jumpi\n        /* \"#utility.yul\":17230:17248   */\n      tag_586\n      tag_407\n      jump\t// in\n    tag_586:\n        /* \"#utility.yul\":17118:17250   */\n    tag_585:\n        /* \"#utility.yul\":17410:17411   */\n      dup2\n        /* \"#utility.yul\":17342:17408   */\n      0x8000000000000000000000000000000000000000000000000000000000000000\n        /* \"#utility.yul\":17338:17412   */\n      sub\n        /* \"#utility.yul\":17335:17336   */\n      dup4\n        /* \"#utility.yul\":17331:17413   */\n      slt\n        /* \"#utility.yul\":17327:17328   */\n      0x00\n        /* \"#utility.yul\":17324:17325   */\n      dup4\n        /* \"#utility.yul\":17320:17329   */\n      slt\n        /* \"#utility.yul\":17316:17414   */\n      and\n        /* \"#utility.yul\":17313:17437   */\n      iszero\n      tag_587\n      jumpi\n        /* \"#utility.yul\":17417:17435   */\n      tag_588\n      tag_407\n      jump\t// in\n    tag_588:\n        /* \"#utility.yul\":17313:17437   */\n    tag_587:\n        /* \"#utility.yul\":17461:17462   */\n      dup3\n        /* \"#utility.yul\":17458:17459   */\n      dup3\n        /* \"#utility.yul\":17454:17463   */\n      add\n        /* \"#utility.yul\":17447:17463   */\n      swap1\n      pop\n        /* \"#utility.yul\":16944:17469   */\n      swap3\n      swap2\n      pop\n      pop\n      jump\t// out\n        /* \"#utility.yul\":17475:17706   */\n    tag_321:\n        /* \"#utility.yul\":17513:17516   */\n      0x00\n        /* \"#utility.yul\":17536:17559   */\n      tag_590\n        /* \"#utility.yul\":17553:17558   */\n      dup3\n        /* \"#utility.yul\":17536:17559   */\n      tag_422\n      jump\t// in\n    tag_590:\n        /* \"#utility.yul\":17527:17559   */\n      swap2\n      pop\n        /* \"#utility.yul\":17581:17647   */\n      0x7fffffffffffffffffffffffffffffffffffffffffffffffffffffffffffffff\n        /* \"#utility.yul\":17574:17579   */\n      dup3\n        /* \"#utility.yul\":17571:17648   */\n      sub\n        /* \"#utility.yul\":17568:17671   */\n      tag_591\n      jumpi\n        /* \"#utility.yul\":17651:17669   */\n      tag_592\n      tag_407\n      jump\t// in\n    tag_592:\n        /* \"#utility.yul\":17568:17671   */\n    tag_591:\n        /* \"#utility.yul\":17698:17699   */\n      0x01\n        /* \"#utility.yul\":17691:17696   */\n      dup3\n        /* \"#utility.yul\":17687:17700   */\n      add\n        /* \"#utility.yul\":17680:17700   */\n      swap1\n      pop\n        /* \"#utility.yul\":17475:17706   */\n      swap2\n      swap1\n      pop\n      jump\t// out\n        /* \"#utility.yul\":17712:17943   */\n    tag_327:\n        /* \"#utility.yul\":17750:17753   */\n      0x00\n        /* \"#utility.yul\":17773:17796   */\n      tag_594\n        /* \"#utility.yul\":17790:17795   */\n      dup3\n        /* \"#utility.yul\":17773:17796   */\n      tag_422\n      jump\t// in\n    tag_594:\n        /* \"#utility.yul\":17764:17796   */\n      swap2\n      pop\n        /* \"#utility.yul\":17818:17884   */\n      0x8000000000000000000000000000000000000000000000000000000000000000\n        /* \"#utility.yul\":17811:17816   */\n      dup3\n        /* \"#utility.yul\":17808:17885   */\n      sub\n        /* \"#utility.yul\":17805:17908   */\n      tag_595\n      jumpi\n        /* \"#utility.yul\":17888:17906   */\n      tag_596\n      tag_407\n      jump\t// in\n    tag_596:\n        /* \"#utility.yul\":17805:17908   */\n    tag_595:\n        /* \"#utility.yul\":17935:17936   */\n      0x01\n        /* \"#utility.yul\":17928:17933   */\n      dup3\n        /* \"#utility.yul\":17924:17937   */\n      sub\n        /* \"#utility.yul\":17917:17937   */\n      swap1\n      pop\n        /* \"#utility.yul\":17712:17943   */\n      swap2\n      swap1\n      pop\n      jump\t// out\n\n    auxdata: 0xa264697066735822122081c903200204f03e0ef8ae2f300304a0a94bad84c1621c4f7298cb982b8538ac64736f6c634300080d0033\n}\n",
				"bytecode": {
					"linkReferences": {},
					"object": "6080604052336000806101000a81548173ffffffffffffffffffffffffffffffffffffffff021916908373ffffffffffffffffffffffffffffffffffffffff1602179055503480156200005157600080fd5b50604051620026ea380380620026ea8339818101604052810190620000779190620000c5565b8060018190555050620000f7565b600080fd5b6000819050919050565b6200009f816200008a565b8114620000ab57600080fd5b50565b600081519050620000bf8162000094565b92915050565b600060208284031215620000de57620000dd62000085565b5b6000620000ee84828501620000ae565b91505092915050565b6125e380620001076000396000f3fe6080604052600436106100dd5760003560e01c806378c5b2681161007f578063bf77ffae11610059578063bf77ffae146102b6578063c5374af2146102f3578063ce0cdc871461031e578063db3a139614610349576100dd565b806378c5b268146102555780639703ef35146102715780639979ef451461029a576100dd565b80634471417f116100bb5780634471417f146101735780634d46712d1461019e57806369f632e2146101db578063734a2e7814610218576100dd565b8063122de8f2146100e25780631628e0f51461010d5780632db6dfa714610136575b600080fd5b3480156100ee57600080fd5b506100f7610386565b6040516101049190611c7e565b60405180910390f35b34801561011957600080fd5b50610134600480360381019061012f9190611cd1565b6104ac565b005b34801561014257600080fd5b5061015d60048036038101906101589190611cd1565b610894565b60405161016a9190611d0d565b60405180910390f35b34801561017f57600080fd5b506101886108c3565b6040516101959190611ee4565b60405180910390f35b3480156101aa57600080fd5b506101c560048036038101906101c09190611cd1565b6109c7565b6040516101d29190611f15565b60405180910390f35b3480156101e757600080fd5b5061020260048036038101906101fd9190611cd1565b610a03565b60405161020f9190611f3f565b60405180910390f35b34801561022457600080fd5b5061023f600480360381019061023a9190611cd1565b610a52565b60405161024c9190611f3f565b60405180910390f35b61026f600480360381019061026a9190611cd1565b610aa1565b005b34801561027d57600080fd5b5061029860048036038101906102939190611cd1565b610d09565b005b6102b460048036038101906102af9190611cd1565b6110f1565b005b3480156102c257600080fd5b506102dd60048036038101906102d89190611cd1565b611359565b6040516102ea9190611f15565b60405180910390f35b3480156102ff57600080fd5b50610308611395565b6040516103159190611ee4565b60405180910390f35b34801561032a57600080fd5b50610333611499565b6040516103409190611c7e565b60405180910390f35b34801561035557600080fd5b50610370600480360381019061036b9190611cd1565b6115bf565b60405161037d9190611d0d565b60405180910390f35b60606103906115ee565b60005b600380549050811015610455573373ffffffffffffffffffffffffffffffffffffffff16600382815481106103cb576103ca611f5a565b5b906000526020600020906004020160000160009054906101000a900473ffffffffffffffffffffffffffffffffffffffff1673ffffffffffffffffffffffffffffffffffffffff16036104425760048190806001815401808255809150506001900390600052602060002001600090919091909150555b808061044d90611fb8565b915050610393565b5060048054806020026020016040519081016040528092919081815260200182805480156104a257602002820191906000526020600020905b81548152602001906001019080831161048e575b5050505050905090565b600381815481106104c0576104bf611f5a565b5b90600052602060002090600402016040518060800160405290816000820160009054906101000a900473ffffffffffffffffffffffffffffffffffffffff1673ffffffffffffffffffffffffffffffffffffffff1673ffffffffffffffffffffffffffffffffffffffff16815260200160018201548152602001600282015481526020016003820160009054906101000a900460ff16600181111561056857610567611d95565b5b600181111561057a57610579611d95565b5b815250506000600181111561059257610591611d95565b5b816060015160018111156105a9576105a8611d95565b5b146105e9576040517f08c379a00000000000000000000000000000000000000000000000000000000081526004016105e09061205d565b60405180910390fd5b600382815481106105fd576105fc611f5a565b5b90600052602060002090600402016040518060800160405290816000820160009054906101000a900473ffffffffffffffffffffffffffffffffffffffff1673ffffffffffffffffffffffffffffffffffffffff1673ffffffffffffffffffffffffffffffffffffffff16815260200160018201548152602001600282015481526020016003820160009054906101000a900460ff1660018111156106a5576106a4611d95565b5b60018111156106b7576106b6611d95565b5b81525050338073ffffffffffffffffffffffffffffffffffffffff16826000015173ffffffffffffffffffffffffffffffffffffffff161461072e576040517f08c379a0000000000000000000000000000000000000000000000000000000008152600401610725906120c9565b60405180910390fd5b6003848154811061074257610741611f5a565b5b906000526020600020906004020160000160009054906101000a900473ffffffffffffffffffffffffffffffffffffffff1673ffffffffffffffffffffffffffffffffffffffff166108fc600386815481106107a1576107a0611f5a565b5b9060005260206000209060040201600101549081150290604051600060405180830381858888f193505050501580156107de573d6000803e3d6000fd5b50600384815481106107f3576107f2611f5a565b5b9060005260206000209060040201600080820160006101000a81549073ffffffffffffffffffffffffffffffffffffffff0219169055600182016000905560028201600090556003820160006101000a81549060ff02191690555050610857611636565b7f48d3043fff66c1aee14954ac5aa463b0297fb08c9b60ee00486fb3387bb58aac846040516108869190611d0d565b60405180910390a150505050565b6000600282815481106108aa576108a9611f5a565b5b9060005260206000209060040201600101549050919050565b60606002805480602002602001604051908101604052809291908181526020016000905b828210156109be57838290600052602060002090600402016040518060800160405290816000820160009054906101000a900473ffffffffffffffffffffffffffffffffffffffff1673ffffffffffffffffffffffffffffffffffffffff1673ffffffffffffffffffffffffffffffffffffffff16815260200160018201548152602001600282015481526020016003820160009054906101000a900460ff16600181111561099957610998611d95565b5b60018111156109ab576109aa611d95565b5b81525050815260200190600101906108e7565b50505050905090565b6000600382815481106109dd576109dc611f5a565b5b906000526020600020906004020160030160009054906101000a900460ff169050919050565b600060028281548110610a1957610a18611f5a565b5b906000526020600020906004020160000160009054906101000a900473ffffffffffffffffffffffffffffffffffffffff169050919050565b600060038281548110610a6857610a67611f5a565b5b906000526020600020906004020160000160009054906101000a900473ffffffffffffffffffffffffffffffffffffffff169050919050565b6000811015610ae5576040517f08c379a0000000000000000000000000000000000000000000000000000000008152600401610adc90612135565b60405180910390fd5b80341015610b28576040517f08c379a0000000000000000000000000000000000000000000000000000000008152600401610b1f906121a1565b60405180910390fd5b6000429050600060646001546064610b4091906121c1565b34610b4b91906121f5565b610b55919061227e565b9050600060405180608001604052803373ffffffffffffffffffffffffffffffffffffffff16815260200183815260200184815260200160006001811115610ba057610b9f611d95565b5b8152509050600381908060018154018082558091505060019003906000526020600020906004020160009091909190915060008201518160000160006101000a81548173ffffffffffffffffffffffffffffffffffffffff021916908373ffffffffffffffffffffffffffffffffffffffff160217905550602082015181600101556040820151816002015560608201518160030160006101000a81548160ff02191690836001811115610c5757610c56611d95565b5b0217905550505060008054906101000a900473ffffffffffffffffffffffffffffffffffffffff1673ffffffffffffffffffffffffffffffffffffffff166108fc839081150290604051600060405180830381858888f19350505050158015610cc4573d6000803e3d6000fd5b507fc2125a7f3edfeff7a3bbcfe393c5aa3a6589585d4a7ee70db48c34f67c8209e23383856000604051610cfb94939291906122d0565b60405180910390a150505050565b60028181548110610d1d57610d1c611f5a565b5b90600052602060002090600402016040518060800160405290816000820160009054906101000a900473ffffffffffffffffffffffffffffffffffffffff1673ffffffffffffffffffffffffffffffffffffffff1673ffffffffffffffffffffffffffffffffffffffff16815260200160018201548152602001600282015481526020016003820160009054906101000a900460ff166001811115610dc557610dc4611d95565b5b6001811115610dd757610dd6611d95565b5b8152505060006001811115610def57610dee611d95565b5b81606001516001811115610e0657610e05611d95565b5b14610e46576040517f08c379a0000000000000000000000000000000000000000000000000000000008152600401610e3d9061205d565b60405180910390fd5b60028281548110610e5a57610e59611f5a565b5b90600052602060002090600402016040518060800160405290816000820160009054906101000a900473ffffffffffffffffffffffffffffffffffffffff1673ffffffffffffffffffffffffffffffffffffffff1673ffffffffffffffffffffffffffffffffffffffff16815260200160018201548152602001600282015481526020016003820160009054906101000a900460ff166001811115610f0257610f01611d95565b5b6001811115610f1457610f13611d95565b5b81525050338073ffffffffffffffffffffffffffffffffffffffff16826000015173ffffffffffffffffffffffffffffffffffffffff1614610f8b576040517f08c379a0000000000000000000000000000000000000000000000000000000008152600401610f82906120c9565b60405180910390fd5b60028481548110610f9f57610f9e611f5a565b5b906000526020600020906004020160000160009054906101000a900473ffffffffffffffffffffffffffffffffffffffff1673ffffffffffffffffffffffffffffffffffffffff166108fc60028681548110610ffe57610ffd611f5a565b5b9060005260206000209060040201600101549081150290604051600060405180830381858888f1935050505015801561103b573d6000803e3d6000fd5b50600284815481106110505761104f611f5a565b5b9060005260206000209060040201600080820160006101000a81549073ffffffffffffffffffffffffffffffffffffffff0219169055600182016000905560028201600090556003820160006101000a81549060ff021916905550506110b4611751565b7fc845a6832afa0a4048dd70bbba2186093508a6b63a8d5d70a508f819fef257f8846040516110e39190611d0d565b60405180910390a150505050565b6000811015611135576040517f08c379a000000000000000000000000000000000000000000000000000000000815260040161112c90612135565b60405180910390fd5b80341015611178576040517f08c379a000000000000000000000000000000000000000000000000000000000815260040161116f90612361565b60405180910390fd5b600042905060006064600154606461119091906121c1565b3461119b91906121f5565b6111a5919061227e565b9050600060405180608001604052803373ffffffffffffffffffffffffffffffffffffffff168152602001838152602001848152602001600060018111156111f0576111ef611d95565b5b8152509050600281908060018154018082558091505060019003906000526020600020906004020160009091909190915060008201518160000160006101000a81548173ffffffffffffffffffffffffffffffffffffffff021916908373ffffffffffffffffffffffffffffffffffffffff160217905550602082015181600101556040820151816002015560608201518160030160006101000a81548160ff021916908360018111156112a7576112a6611d95565b5b0217905550505060008054906101000a900473ffffffffffffffffffffffffffffffffffffffff1673ffffffffffffffffffffffffffffffffffffffff166108fc839081150290604051600060405180830381858888f19350505050158015611314573d6000803e3d6000fd5b507fa64806d6d5d480697a0b11c92b915a4ff7b93c0be28171d65d30041a0c360d04338385600060405161134b94939291906122d0565b60405180910390a150505050565b60006002828154811061136f5761136e611f5a565b5b906000526020600020906004020160030160009054906101000a900460ff169050919050565b60606003805480602002602001604051908101604052809291908181526020016000905b8282101561149057838290600052602060002090600402016040518060800160405290816000820160009054906101000a900473ffffffffffffffffffffffffffffffffffffffff1673ffffffffffffffffffffffffffffffffffffffff1673ffffffffffffffffffffffffffffffffffffffff16815260200160018201548152602001600282015481526020016003820160009054906101000a900460ff16600181111561146b5761146a611d95565b5b600181111561147d5761147c611d95565b5b81525050815260200190600101906113b9565b50505050905090565b60606114a36115ee565b60005b600280549050811015611568573373ffffffffffffffffffffffffffffffffffffffff16600282815481106114de576114dd611f5a565b5b906000526020600020906004020160000160009054906101000a900473ffffffffffffffffffffffffffffffffffffffff1673ffffffffffffffffffffffffffffffffffffffff16036115555760048190806001815401808255809150506001900390600052602060002001600090919091909150555b808061156090611fb8565b9150506114a6565b5060048054806020026020016040519081016040528092919081815260200182805480156115b557602002820191906000526020600020905b8154815260200190600101908083116115a1575b5050505050905090565b6000600382815481106115d5576115d4611f5a565b5b9060005260206000209060040201600101549050919050565b60005b600480549050811015611633576004818154811061161257611611611f5a565b5b9060005260206000200160009055808061162b90611fb8565b9150506115f1565b50565b61174f6002805480602002602001604051908101604052809291908181526020016000905b8282101561173257838290600052602060002090600402016040518060800160405290816000820160009054906101000a900473ffffffffffffffffffffffffffffffffffffffff1673ffffffffffffffffffffffffffffffffffffffff1673ffffffffffffffffffffffffffffffffffffffff16815260200160018201548152602001600282015481526020016003820160009054906101000a900460ff16600181111561170d5761170c611d95565b5b600181111561171f5761171e611d95565b5b815250508152602001906001019061165b565b505050506000600160028054905061174a91906121c1565b61186c565b565b61186a6002805480602002602001604051908101604052809291908181526020016000905b8282101561184d57838290600052602060002090600402016040518060800160405290816000820160009054906101000a900473ffffffffffffffffffffffffffffffffffffffff1673ffffffffffffffffffffffffffffffffffffffff1673ffffffffffffffffffffffffffffffffffffffff16815260200160018201548152602001600282015481526020016003820160009054906101000a900460ff16600181111561182857611827611d95565b5b600181111561183a57611839611d95565b5b8152505081526020019060010190611776565b505050506000600160028054905061186591906121c1565b611a11565b565b60008290506000829050808203611884575050611a0c565b60008560028686611895919061238b565b61189f919061241f565b866118aa9190612489565b815181106118bb576118ba611f5a565b5b60200260200101516020015190505b8183136119e0575b808684815181106118e6576118e5611f5a565b5b602002602001015160200151111561190b5782806119039061251d565b9350506118d2565b5b85828151811061191f5761191e611f5a565b5b60200260200101516020015181111561194557818061193d90612565565b92505061190c565b8183136119db5785828151811061195f5761195e611f5a565b5b602002602001015186848151811061197a57611979611f5a565b5b602002602001015187858151811061199557611994611f5a565b5b602002602001018885815181106119af576119ae611f5a565b5b60200260200101829052829052505082806119c99061251d565b93505081806119d790612565565b9250505b6118ca565b818512156119f4576119f386868461186c565b5b83831215611a0857611a0786848661186c565b5b5050505b505050565b60008290506000829050808203611a29575050611bb1565b60008560028686611a3a919061238b565b611a44919061241f565b86611a4f9190612489565b81518110611a6057611a5f611f5a565b5b60200260200101516040015190505b818313611b85575b80868481518110611a8b57611a8a611f5a565b5b6020026020010151604001511015611ab0578280611aa89061251d565b935050611a77565b5b858281518110611ac457611ac3611f5a565b5b602002602001015160400151811015611aea578180611ae290612565565b925050611ab1565b818313611b8057858281518110611b0457611b03611f5a565b5b6020026020010151868481518110611b1f57611b1e611f5a565b5b6020026020010151878581518110611b3a57611b39611f5a565b5b60200260200101888581518110611b5457611b53611f5a565b5b6020026020010182905282905250508280611b6e9061251d565b9350508180611b7c90612565565b9250505b611a6f565b81851215611b9957611b98868684611a11565b5b83831215611bad57611bac868486611a11565b5b5050505b505050565b600081519050919050565b600082825260208201905092915050565b6000819050602082019050919050565b6000819050919050565b611bf581611be2565b82525050565b6000611c078383611bec565b60208301905092915050565b6000602082019050919050565b6000611c2b82611bb6565b611c358185611bc1565b9350611c4083611bd2565b8060005b83811015611c71578151611c588882611bfb565b9750611c6383611c13565b925050600181019050611c44565b5085935050505092915050565b60006020820190508181036000830152611c988184611c20565b905092915050565b600080fd5b611cae81611be2565b8114611cb957600080fd5b50565b600081359050611ccb81611ca5565b92915050565b600060208284031215611ce757611ce6611ca0565b5b6000611cf584828501611cbc565b91505092915050565b611d0781611be2565b82525050565b6000602082019050611d226000830184611cfe565b92915050565b600081519050919050565b600082825260208201905092915050565b6000819050602082019050919050565b600073ffffffffffffffffffffffffffffffffffffffff82169050919050565b6000611d7f82611d54565b9050919050565b611d8f81611d74565b82525050565b7f4e487b7100000000000000000000000000000000000000000000000000000000600052602160045260246000fd5b60028110611dd557611dd4611d95565b5b50565b6000819050611de682611dc4565b919050565b6000611df682611dd8565b9050919050565b611e0681611deb565b82525050565b608082016000820151611e226000850182611d86565b506020820151611e356020850182611bec565b506040820151611e486040850182611bec565b506060820151611e5b6060850182611dfd565b50505050565b6000611e6d8383611e0c565b60808301905092915050565b6000602082019050919050565b6000611e9182611d28565b611e9b8185611d33565b9350611ea683611d44565b8060005b83811015611ed7578151611ebe8882611e61565b9750611ec983611e79565b925050600181019050611eaa565b5085935050505092915050565b60006020820190508181036000830152611efe8184611e86565b905092915050565b611f0f81611deb565b82525050565b6000602082019050611f2a6000830184611f06565b92915050565b611f3981611d74565b82525050565b6000602082019050611f546000830184611f30565b92915050565b7f4e487b7100000000000000000000000000000000000000000000000000000000600052603260045260246000fd5b7f4e487b7100000000000000000000000000000000000000000000000000000000600052601160045260246000fd5b6000611fc382611be2565b91507fffffffffffffffffffffffffffffffffffffffffffffffffffffffffffffffff8203611ff557611ff4611f89565b5b600182019050919050565b600082825260208201905092915050565b7f4f726465722050656e64696e6700000000000000000000000000000000000000600082015250565b6000612047600d83612000565b915061205282612011565b602082019050919050565b600060208201905081810360008301526120768161203a565b9050919050565b7f4e6f7420417574686f7269736564000000000000000000000000000000000000600082015250565b60006120b3600e83612000565b91506120be8261207d565b602082019050919050565b600060208201905081810360008301526120e2816120a6565b9050919050565b7f70726963652076616c7565206d757374206265206d6f7265207468616e203000600082015250565b600061211f601f83612000565b915061212a826120e9565b602082019050919050565b6000602082019050818103600083015261214e81612112565b9050919050565b7f4e6f7420656e6f75676820626c616e636520746f20706c6163652061736b0000600082015250565b600061218b601e83612000565b915061219682612155565b602082019050919050565b600060208201905081810360008301526121ba8161217e565b9050919050565b60006121cc82611be2565b91506121d783611be2565b9250828210156121ea576121e9611f89565b5b828203905092915050565b600061220082611be2565b915061220b83611be2565b9250817fffffffffffffffffffffffffffffffffffffffffffffffffffffffffffffffff048311821515161561224457612243611f89565b5b828202905092915050565b7f4e487b7100000000000000000000000000000000000000000000000000000000600052601260045260246000fd5b600061228982611be2565b915061229483611be2565b9250826122a4576122a361224f565b5b828204905092915050565b60006122ba82611d54565b9050919050565b6122ca816122af565b82525050565b60006080820190506122e560008301876122c1565b6122f26020830186611cfe565b6122ff6040830185611cfe565b61230c6060830184611f06565b95945050505050565b7f4e6f7420656e6f75676820626c616e636520746f20706c616365206269640000600082015250565b600061234b601e83612000565b915061235682612315565b602082019050919050565b6000602082019050818103600083015261237a8161233e565b9050919050565b6000819050919050565b600061239682612381565b91506123a183612381565b9250827f8000000000000000000000000000000000000000000000000000000000000000018212600084121516156123dc576123db611f89565b5b827f7fffffffffffffffffffffffffffffffffffffffffffffffffffffffffffffff01821360008412161561241457612413611f89565b5b828203905092915050565b600061242a82612381565b915061243583612381565b9250826124455761244461224f565b5b600160000383147f80000000000000000000000000000000000000000000000000000000000000008314161561247e5761247d611f89565b5b828205905092915050565b600061249482612381565b915061249f83612381565b9250817f7fffffffffffffffffffffffffffffffffffffffffffffffffffffffffffffff038313600083121516156124da576124d9611f89565b5b817f800000000000000000000000000000000000000000000000000000000000000003831260008312161561251257612511611f89565b5b828201905092915050565b600061252882612381565b91507f7fffffffffffffffffffffffffffffffffffffffffffffffffffffffffffffff820361255a57612559611f89565b5b600182019050919050565b600061257082612381565b91507f800000000000000000000000000000000000000000000000000000000000000082036125a2576125a1611f89565b5b60018203905091905056fea264697066735822122081c903200204f03e0ef8ae2f300304a0a94bad84c1621c4f7298cb982b8538ac64736f6c634300080d0033",
					"opcodes": "PUSH1 0x80 PUSH1 0x40 MSTORE CALLER PUSH1 0x0 DUP1 PUSH2 0x100 EXP DUP2 SLOAD DUP2 PUSH20 0xFFFFFFFFFFFFFFFFFFFFFFFFFFFFFFFFFFFFFFFF MUL NOT AND SWAP1 DUP4 PUSH20 0xFFFFFFFFFFFFFFFFFFFFFFFFFFFFFFFFFFFFFFFF AND MUL OR SWAP1 SSTORE POP CALLVALUE DUP1 ISZERO PUSH3 0x51 JUMPI PUSH1 0x0 DUP1 REVERT JUMPDEST POP PUSH1 0x40 MLOAD PUSH3 0x26EA CODESIZE SUB DUP1 PUSH3 0x26EA DUP4 CODECOPY DUP2 DUP2 ADD PUSH1 0x40 MSTORE DUP2 ADD SWAP1 PUSH3 0x77 SWAP2 SWAP1 PUSH3 0xC5 JUMP JUMPDEST DUP1 PUSH1 0x1 DUP2 SWAP1 SSTORE POP POP PUSH3 0xF7 JUMP JUMPDEST PUSH1 0x0 DUP1 REVERT JUMPDEST PUSH1 0x0 DUP2 SWAP1 POP SWAP2 SWAP1 POP JUMP JUMPDEST PUSH3 0x9F DUP2 PUSH3 0x8A JUMP JUMPDEST DUP2 EQ PUSH3 0xAB JUMPI PUSH1 0x0 DUP1 REVERT JUMPDEST POP JUMP JUMPDEST PUSH1 0x0 DUP2 MLOAD SWAP1 POP PUSH3 0xBF DUP2 PUSH3 0x94 JUMP JUMPDEST SWAP3 SWAP2 POP POP JUMP JUMPDEST PUSH1 0x0 PUSH1 0x20 DUP3 DUP5 SUB SLT ISZERO PUSH3 0xDE JUMPI PUSH3 0xDD PUSH3 0x85 JUMP JUMPDEST JUMPDEST PUSH1 0x0 PUSH3 0xEE DUP5 DUP3 DUP6 ADD PUSH3 0xAE JUMP JUMPDEST SWAP2 POP POP SWAP3 SWAP2 POP POP JUMP JUMPDEST PUSH2 0x25E3 DUP1 PUSH3 0x107 PUSH1 0x0 CODECOPY PUSH1 0x0 RETURN INVALID PUSH1 0x80 PUSH1 0x40 MSTORE PUSH1 0x4 CALLDATASIZE LT PUSH2 0xDD JUMPI PUSH1 0x0 CALLDATALOAD PUSH1 0xE0 SHR DUP1 PUSH4 0x78C5B268 GT PUSH2 0x7F JUMPI DUP1 PUSH4 0xBF77FFAE GT PUSH2 0x59 JUMPI DUP1 PUSH4 0xBF77FFAE EQ PUSH2 0x2B6 JUMPI DUP1 PUSH4 0xC5374AF2 EQ PUSH2 0x2F3 JUMPI DUP1 PUSH4 0xCE0CDC87 EQ PUSH2 0x31E JUMPI DUP1 PUSH4 0xDB3A1396 EQ PUSH2 0x349 JUMPI PUSH2 0xDD JUMP JUMPDEST DUP1 PUSH4 0x78C5B268 EQ PUSH2 0x255 JUMPI DUP1 PUSH4 0x9703EF35 EQ PUSH2 0x271 JUMPI DUP1 PUSH4 0x9979EF45 EQ PUSH2 0x29A JUMPI PUSH2 0xDD JUMP JUMPDEST DUP1 PUSH4 0x4471417F GT PUSH2 0xBB JUMPI DUP1 PUSH4 0x4471417F EQ PUSH2 0x173 JUMPI DUP1 PUSH4 0x4D46712D EQ PUSH2 0x19E JUMPI DUP1 PUSH4 0x69F632E2 EQ PUSH2 0x1DB JUMPI DUP1 PUSH4 0x734A2E78 EQ PUSH2 0x218 JUMPI PUSH2 0xDD JUMP JUMPDEST DUP1 PUSH4 0x122DE8F2 EQ PUSH2 0xE2 JUMPI DUP1 PUSH4 0x1628E0F5 EQ PUSH2 0x10D JUMPI DUP1 PUSH4 0x2DB6DFA7 EQ PUSH2 0x136 JUMPI JUMPDEST PUSH1 0x0 DUP1 REVERT JUMPDEST CALLVALUE DUP1 ISZERO PUSH2 0xEE JUMPI PUSH1 0x0 DUP1 REVERT JUMPDEST POP PUSH2 0xF7 PUSH2 0x386 JUMP JUMPDEST PUSH1 0x40 MLOAD PUSH2 0x104 SWAP2 SWAP1 PUSH2 0x1C7E JUMP JUMPDEST PUSH1 0x40 MLOAD DUP1 SWAP2 SUB SWAP1 RETURN JUMPDEST CALLVALUE DUP1 ISZERO PUSH2 0x119 JUMPI PUSH1 0x0 DUP1 REVERT JUMPDEST POP PUSH2 0x134 PUSH1 0x4 DUP1 CALLDATASIZE SUB DUP2 ADD SWAP1 PUSH2 0x12F SWAP2 SWAP1 PUSH2 0x1CD1 JUMP JUMPDEST PUSH2 0x4AC JUMP JUMPDEST STOP JUMPDEST CALLVALUE DUP1 ISZERO PUSH2 0x142 JUMPI PUSH1 0x0 DUP1 REVERT JUMPDEST POP PUSH2 0x15D PUSH1 0x4 DUP1 CALLDATASIZE SUB DUP2 ADD SWAP1 PUSH2 0x158 SWAP2 SWAP1 PUSH2 0x1CD1 JUMP JUMPDEST PUSH2 0x894 JUMP JUMPDEST PUSH1 0x40 MLOAD PUSH2 0x16A SWAP2 SWAP1 PUSH2 0x1D0D JUMP JUMPDEST PUSH1 0x40 MLOAD DUP1 SWAP2 SUB SWAP1 RETURN JUMPDEST CALLVALUE DUP1 ISZERO PUSH2 0x17F JUMPI PUSH1 0x0 DUP1 REVERT JUMPDEST POP PUSH2 0x188 PUSH2 0x8C3 JUMP JUMPDEST PUSH1 0x40 MLOAD PUSH2 0x195 SWAP2 SWAP1 PUSH2 0x1EE4 JUMP JUMPDEST PUSH1 0x40 MLOAD DUP1 SWAP2 SUB SWAP1 RETURN JUMPDEST CALLVALUE DUP1 ISZERO PUSH2 0x1AA JUMPI PUSH1 0x0 DUP1 REVERT JUMPDEST POP PUSH2 0x1C5 PUSH1 0x4 DUP1 CALLDATASIZE SUB DUP2 ADD SWAP1 PUSH2 0x1C0 SWAP2 SWAP1 PUSH2 0x1CD1 JUMP JUMPDEST PUSH2 0x9C7 JUMP JUMPDEST PUSH1 0x40 MLOAD PUSH2 0x1D2 SWAP2 SWAP1 PUSH2 0x1F15 JUMP JUMPDEST PUSH1 0x40 MLOAD DUP1 SWAP2 SUB SWAP1 RETURN JUMPDEST CALLVALUE DUP1 ISZERO PUSH2 0x1E7 JUMPI PUSH1 0x0 DUP1 REVERT JUMPDEST POP PUSH2 0x202 PUSH1 0x4 DUP1 CALLDATASIZE SUB DUP2 ADD SWAP1 PUSH2 0x1FD SWAP2 SWAP1 PUSH2 0x1CD1 JUMP JUMPDEST PUSH2 0xA03 JUMP JUMPDEST PUSH1 0x40 MLOAD PUSH2 0x20F SWAP2 SWAP1 PUSH2 0x1F3F JUMP JUMPDEST PUSH1 0x40 MLOAD DUP1 SWAP2 SUB SWAP1 RETURN JUMPDEST CALLVALUE DUP1 ISZERO PUSH2 0x224 JUMPI PUSH1 0x0 DUP1 REVERT JUMPDEST POP PUSH2 0x23F PUSH1 0x4 DUP1 CALLDATASIZE SUB DUP2 ADD SWAP1 PUSH2 0x23A SWAP2 SWAP1 PUSH2 0x1CD1 JUMP JUMPDEST PUSH2 0xA52 JUMP JUMPDEST PUSH1 0x40 MLOAD PUSH2 0x24C SWAP2 SWAP1 PUSH2 0x1F3F JUMP JUMPDEST PUSH1 0x40 MLOAD DUP1 SWAP2 SUB SWAP1 RETURN JUMPDEST PUSH2 0x26F PUSH1 0x4 DUP1 CALLDATASIZE SUB DUP2 ADD SWAP1 PUSH2 0x26A SWAP2 SWAP1 PUSH2 0x1CD1 JUMP JUMPDEST PUSH2 0xAA1 JUMP JUMPDEST STOP JUMPDEST CALLVALUE DUP1 ISZERO PUSH2 0x27D JUMPI PUSH1 0x0 DUP1 REVERT JUMPDEST POP PUSH2 0x298 PUSH1 0x4 DUP1 CALLDATASIZE SUB DUP2 ADD SWAP1 PUSH2 0x293 SWAP2 SWAP1 PUSH2 0x1CD1 JUMP JUMPDEST PUSH2 0xD09 JUMP JUMPDEST STOP JUMPDEST PUSH2 0x2B4 PUSH1 0x4 DUP1 CALLDATASIZE SUB DUP2 ADD SWAP1 PUSH2 0x2AF SWAP2 SWAP1 PUSH2 0x1CD1 JUMP JUMPDEST PUSH2 0x10F1 JUMP JUMPDEST STOP JUMPDEST CALLVALUE DUP1 ISZERO PUSH2 0x2C2 JUMPI PUSH1 0x0 DUP1 REVERT JUMPDEST POP PUSH2 0x2DD PUSH1 0x4 DUP1 CALLDATASIZE SUB DUP2 ADD SWAP1 PUSH2 0x2D8 SWAP2 SWAP1 PUSH2 0x1CD1 JUMP JUMPDEST PUSH2 0x1359 JUMP JUMPDEST PUSH1 0x40 MLOAD PUSH2 0x2EA SWAP2 SWAP1 PUSH2 0x1F15 JUMP JUMPDEST PUSH1 0x40 MLOAD DUP1 SWAP2 SUB SWAP1 RETURN JUMPDEST CALLVALUE DUP1 ISZERO PUSH2 0x2FF JUMPI PUSH1 0x0 DUP1 REVERT JUMPDEST POP PUSH2 0x308 PUSH2 0x1395 JUMP JUMPDEST PUSH1 0x40 MLOAD PUSH2 0x315 SWAP2 SWAP1 PUSH2 0x1EE4 JUMP JUMPDEST PUSH1 0x40 MLOAD DUP1 SWAP2 SUB SWAP1 RETURN JUMPDEST CALLVALUE DUP1 ISZERO PUSH2 0x32A JUMPI PUSH1 0x0 DUP1 REVERT JUMPDEST POP PUSH2 0x333 PUSH2 0x1499 JUMP JUMPDEST PUSH1 0x40 MLOAD PUSH2 0x340 SWAP2 SWAP1 PUSH2 0x1C7E JUMP JUMPDEST PUSH1 0x40 MLOAD DUP1 SWAP2 SUB SWAP1 RETURN JUMPDEST CALLVALUE DUP1 ISZERO PUSH2 0x355 JUMPI PUSH1 0x0 DUP1 REVERT JUMPDEST POP PUSH2 0x370 PUSH1 0x4 DUP1 CALLDATASIZE SUB DUP2 ADD SWAP1 PUSH2 0x36B SWAP2 SWAP1 PUSH2 0x1CD1 JUMP JUMPDEST PUSH2 0x15BF JUMP JUMPDEST PUSH1 0x40 MLOAD PUSH2 0x37D SWAP2 SWAP1 PUSH2 0x1D0D JUMP JUMPDEST PUSH1 0x40 MLOAD DUP1 SWAP2 SUB SWAP1 RETURN JUMPDEST PUSH1 0x60 PUSH2 0x390 PUSH2 0x15EE JUMP JUMPDEST PUSH1 0x0 JUMPDEST PUSH1 0x3 DUP1 SLOAD SWAP1 POP DUP2 LT ISZERO PUSH2 0x455 JUMPI CALLER PUSH20 0xFFFFFFFFFFFFFFFFFFFFFFFFFFFFFFFFFFFFFFFF AND PUSH1 0x3 DUP3 DUP2 SLOAD DUP2 LT PUSH2 0x3CB JUMPI PUSH2 0x3CA PUSH2 0x1F5A JUMP JUMPDEST JUMPDEST SWAP1 PUSH1 0x0 MSTORE PUSH1 0x20 PUSH1 0x0 KECCAK256 SWAP1 PUSH1 0x4 MUL ADD PUSH1 0x0 ADD PUSH1 0x0 SWAP1 SLOAD SWAP1 PUSH2 0x100 EXP SWAP1 DIV PUSH20 0xFFFFFFFFFFFFFFFFFFFFFFFFFFFFFFFFFFFFFFFF AND PUSH20 0xFFFFFFFFFFFFFFFFFFFFFFFFFFFFFFFFFFFFFFFF AND SUB PUSH2 0x442 JUMPI PUSH1 0x4 DUP2 SWAP1 DUP1 PUSH1 0x1 DUP2 SLOAD ADD DUP1 DUP3 SSTORE DUP1 SWAP2 POP POP PUSH1 0x1 SWAP1 SUB SWAP1 PUSH1 0x0 MSTORE PUSH1 0x20 PUSH1 0x0 KECCAK256 ADD PUSH1 0x0 SWAP1 SWAP2 SWAP1 SWAP2 SWAP1 SWAP2 POP SSTORE JUMPDEST DUP1 DUP1 PUSH2 0x44D SWAP1 PUSH2 0x1FB8 JUMP JUMPDEST SWAP2 POP POP PUSH2 0x393 JUMP JUMPDEST POP PUSH1 0x4 DUP1 SLOAD DUP1 PUSH1 0x20 MUL PUSH1 0x20 ADD PUSH1 0x40 MLOAD SWAP1 DUP2 ADD PUSH1 0x40 MSTORE DUP1 SWAP3 SWAP2 SWAP1 DUP2 DUP2 MSTORE PUSH1 0x20 ADD DUP3 DUP1 SLOAD DUP1 ISZERO PUSH2 0x4A2 JUMPI PUSH1 0x20 MUL DUP3 ADD SWAP2 SWAP1 PUSH1 0x0 MSTORE PUSH1 0x20 PUSH1 0x0 KECCAK256 SWAP1 JUMPDEST DUP2 SLOAD DUP2 MSTORE PUSH1 0x20 ADD SWAP1 PUSH1 0x1 ADD SWAP1 DUP1 DUP4 GT PUSH2 0x48E JUMPI JUMPDEST POP POP POP POP POP SWAP1 POP SWAP1 JUMP JUMPDEST PUSH1 0x3 DUP2 DUP2 SLOAD DUP2 LT PUSH2 0x4C0 JUMPI PUSH2 0x4BF PUSH2 0x1F5A JUMP JUMPDEST JUMPDEST SWAP1 PUSH1 0x0 MSTORE PUSH1 0x20 PUSH1 0x0 KECCAK256 SWAP1 PUSH1 0x4 MUL ADD PUSH1 0x40 MLOAD DUP1 PUSH1 0x80 ADD PUSH1 0x40 MSTORE SWAP1 DUP2 PUSH1 0x0 DUP3 ADD PUSH1 0x0 SWAP1 SLOAD SWAP1 PUSH2 0x100 EXP SWAP1 DIV PUSH20 0xFFFFFFFFFFFFFFFFFFFFFFFFFFFFFFFFFFFFFFFF AND PUSH20 0xFFFFFFFFFFFFFFFFFFFFFFFFFFFFFFFFFFFFFFFF AND PUSH20 0xFFFFFFFFFFFFFFFFFFFFFFFFFFFFFFFFFFFFFFFF AND DUP2 MSTORE PUSH1 0x20 ADD PUSH1 0x1 DUP3 ADD SLOAD DUP2 MSTORE PUSH1 0x20 ADD PUSH1 0x2 DUP3 ADD SLOAD DUP2 MSTORE PUSH1 0x20 ADD PUSH1 0x3 DUP3 ADD PUSH1 0x0 SWAP1 SLOAD SWAP1 PUSH2 0x100 EXP SWAP1 DIV PUSH1 0xFF AND PUSH1 0x1 DUP2 GT ISZERO PUSH2 0x568 JUMPI PUSH2 0x567 PUSH2 0x1D95 JUMP JUMPDEST JUMPDEST PUSH1 0x1 DUP2 GT ISZERO PUSH2 0x57A JUMPI PUSH2 0x579 PUSH2 0x1D95 JUMP JUMPDEST JUMPDEST DUP2 MSTORE POP POP PUSH1 0x0 PUSH1 0x1 DUP2 GT ISZERO PUSH2 0x592 JUMPI PUSH2 0x591 PUSH2 0x1D95 JUMP JUMPDEST JUMPDEST DUP2 PUSH1 0x60 ADD MLOAD PUSH1 0x1 DUP2 GT ISZERO PUSH2 0x5A9 JUMPI PUSH2 0x5A8 PUSH2 0x1D95 JUMP JUMPDEST JUMPDEST EQ PUSH2 0x5E9 JUMPI PUSH1 0x40 MLOAD PUSH32 0x8C379A000000000000000000000000000000000000000000000000000000000 DUP2 MSTORE PUSH1 0x4 ADD PUSH2 0x5E0 SWAP1 PUSH2 0x205D JUMP JUMPDEST PUSH1 0x40 MLOAD DUP1 SWAP2 SUB SWAP1 REVERT JUMPDEST PUSH1 0x3 DUP3 DUP2 SLOAD DUP2 LT PUSH2 0x5FD JUMPI PUSH2 0x5FC PUSH2 0x1F5A JUMP JUMPDEST JUMPDEST SWAP1 PUSH1 0x0 MSTORE PUSH1 0x20 PUSH1 0x0 KECCAK256 SWAP1 PUSH1 0x4 MUL ADD PUSH1 0x40 MLOAD DUP1 PUSH1 0x80 ADD PUSH1 0x40 MSTORE SWAP1 DUP2 PUSH1 0x0 DUP3 ADD PUSH1 0x0 SWAP1 SLOAD SWAP1 PUSH2 0x100 EXP SWAP1 DIV PUSH20 0xFFFFFFFFFFFFFFFFFFFFFFFFFFFFFFFFFFFFFFFF AND PUSH20 0xFFFFFFFFFFFFFFFFFFFFFFFFFFFFFFFFFFFFFFFF AND PUSH20 0xFFFFFFFFFFFFFFFFFFFFFFFFFFFFFFFFFFFFFFFF AND DUP2 MSTORE PUSH1 0x20 ADD PUSH1 0x1 DUP3 ADD SLOAD DUP2 MSTORE PUSH1 0x20 ADD PUSH1 0x2 DUP3 ADD SLOAD DUP2 MSTORE PUSH1 0x20 ADD PUSH1 0x3 DUP3 ADD PUSH1 0x0 SWAP1 SLOAD SWAP1 PUSH2 0x100 EXP SWAP1 DIV PUSH1 0xFF AND PUSH1 0x1 DUP2 GT ISZERO PUSH2 0x6A5 JUMPI PUSH2 0x6A4 PUSH2 0x1D95 JUMP JUMPDEST JUMPDEST PUSH1 0x1 DUP2 GT ISZERO PUSH2 0x6B7 JUMPI PUSH2 0x6B6 PUSH2 0x1D95 JUMP JUMPDEST JUMPDEST DUP2 MSTORE POP POP CALLER DUP1 PUSH20 0xFFFFFFFFFFFFFFFFFFFFFFFFFFFFFFFFFFFFFFFF AND DUP3 PUSH1 0x0 ADD MLOAD PUSH20 0xFFFFFFFFFFFFFFFFFFFFFFFFFFFFFFFFFFFFFFFF AND EQ PUSH2 0x72E JUMPI PUSH1 0x40 MLOAD PUSH32 0x8C379A000000000000000000000000000000000000000000000000000000000 DUP2 MSTORE PUSH1 0x4 ADD PUSH2 0x725 SWAP1 PUSH2 0x20C9 JUMP JUMPDEST PUSH1 0x40 MLOAD DUP1 SWAP2 SUB SWAP1 REVERT JUMPDEST PUSH1 0x3 DUP5 DUP2 SLOAD DUP2 LT PUSH2 0x742 JUMPI PUSH2 0x741 PUSH2 0x1F5A JUMP JUMPDEST JUMPDEST SWAP1 PUSH1 0x0 MSTORE PUSH1 0x20 PUSH1 0x0 KECCAK256 SWAP1 PUSH1 0x4 MUL ADD PUSH1 0x0 ADD PUSH1 0x0 SWAP1 SLOAD SWAP1 PUSH2 0x100 EXP SWAP1 DIV PUSH20 0xFFFFFFFFFFFFFFFFFFFFFFFFFFFFFFFFFFFFFFFF AND PUSH20 0xFFFFFFFFFFFFFFFFFFFFFFFFFFFFFFFFFFFFFFFF AND PUSH2 0x8FC PUSH1 0x3 DUP7 DUP2 SLOAD DUP2 LT PUSH2 0x7A1 JUMPI PUSH2 0x7A0 PUSH2 0x1F5A JUMP JUMPDEST JUMPDEST SWAP1 PUSH1 0x0 MSTORE PUSH1 0x20 PUSH1 0x0 KECCAK256 SWAP1 PUSH1 0x4 MUL ADD PUSH1 0x1 ADD SLOAD SWAP1 DUP2 ISZERO MUL SWAP1 PUSH1 0x40 MLOAD PUSH1 0x0 PUSH1 0x40 MLOAD DUP1 DUP4 SUB DUP2 DUP6 DUP9 DUP9 CALL SWAP4 POP POP POP POP ISZERO DUP1 ISZERO PUSH2 0x7DE JUMPI RETURNDATASIZE PUSH1 0x0 DUP1 RETURNDATACOPY RETURNDATASIZE PUSH1 0x0 REVERT JUMPDEST POP PUSH1 0x3 DUP5 DUP2 SLOAD DUP2 LT PUSH2 0x7F3 JUMPI PUSH2 0x7F2 PUSH2 0x1F5A JUMP JUMPDEST JUMPDEST SWAP1 PUSH1 0x0 MSTORE PUSH1 0x20 PUSH1 0x0 KECCAK256 SWAP1 PUSH1 0x4 MUL ADD PUSH1 0x0 DUP1 DUP3 ADD PUSH1 0x0 PUSH2 0x100 EXP DUP2 SLOAD SWAP1 PUSH20 0xFFFFFFFFFFFFFFFFFFFFFFFFFFFFFFFFFFFFFFFF MUL NOT AND SWAP1 SSTORE PUSH1 0x1 DUP3 ADD PUSH1 0x0 SWAP1 SSTORE PUSH1 0x2 DUP3 ADD PUSH1 0x0 SWAP1 SSTORE PUSH1 0x3 DUP3 ADD PUSH1 0x0 PUSH2 0x100 EXP DUP2 SLOAD SWAP1 PUSH1 0xFF MUL NOT AND SWAP1 SSTORE POP POP PUSH2 0x857 PUSH2 0x1636 JUMP JUMPDEST PUSH32 0x48D3043FFF66C1AEE14954AC5AA463B0297FB08C9B60EE00486FB3387BB58AAC DUP5 PUSH1 0x40 MLOAD PUSH2 0x886 SWAP2 SWAP1 PUSH2 0x1D0D JUMP JUMPDEST PUSH1 0x40 MLOAD DUP1 SWAP2 SUB SWAP1 LOG1 POP POP POP POP JUMP JUMPDEST PUSH1 0x0 PUSH1 0x2 DUP3 DUP2 SLOAD DUP2 LT PUSH2 0x8AA JUMPI PUSH2 0x8A9 PUSH2 0x1F5A JUMP JUMPDEST JUMPDEST SWAP1 PUSH1 0x0 MSTORE PUSH1 0x20 PUSH1 0x0 KECCAK256 SWAP1 PUSH1 0x4 MUL ADD PUSH1 0x1 ADD SLOAD SWAP1 POP SWAP2 SWAP1 POP JUMP JUMPDEST PUSH1 0x60 PUSH1 0x2 DUP1 SLOAD DUP1 PUSH1 0x20 MUL PUSH1 0x20 ADD PUSH1 0x40 MLOAD SWAP1 DUP2 ADD PUSH1 0x40 MSTORE DUP1 SWAP3 SWAP2 SWAP1 DUP2 DUP2 MSTORE PUSH1 0x20 ADD PUSH1 0x0 SWAP1 JUMPDEST DUP3 DUP3 LT ISZERO PUSH2 0x9BE JUMPI DUP4 DUP3 SWAP1 PUSH1 0x0 MSTORE PUSH1 0x20 PUSH1 0x0 KECCAK256 SWAP1 PUSH1 0x4 MUL ADD PUSH1 0x40 MLOAD DUP1 PUSH1 0x80 ADD PUSH1 0x40 MSTORE SWAP1 DUP2 PUSH1 0x0 DUP3 ADD PUSH1 0x0 SWAP1 SLOAD SWAP1 PUSH2 0x100 EXP SWAP1 DIV PUSH20 0xFFFFFFFFFFFFFFFFFFFFFFFFFFFFFFFFFFFFFFFF AND PUSH20 0xFFFFFFFFFFFFFFFFFFFFFFFFFFFFFFFFFFFFFFFF AND PUSH20 0xFFFFFFFFFFFFFFFFFFFFFFFFFFFFFFFFFFFFFFFF AND DUP2 MSTORE PUSH1 0x20 ADD PUSH1 0x1 DUP3 ADD SLOAD DUP2 MSTORE PUSH1 0x20 ADD PUSH1 0x2 DUP3 ADD SLOAD DUP2 MSTORE PUSH1 0x20 ADD PUSH1 0x3 DUP3 ADD PUSH1 0x0 SWAP1 SLOAD SWAP1 PUSH2 0x100 EXP SWAP1 DIV PUSH1 0xFF AND PUSH1 0x1 DUP2 GT ISZERO PUSH2 0x999 JUMPI PUSH2 0x998 PUSH2 0x1D95 JUMP JUMPDEST JUMPDEST PUSH1 0x1 DUP2 GT ISZERO PUSH2 0x9AB JUMPI PUSH2 0x9AA PUSH2 0x1D95 JUMP JUMPDEST JUMPDEST DUP2 MSTORE POP POP DUP2 MSTORE PUSH1 0x20 ADD SWAP1 PUSH1 0x1 ADD SWAP1 PUSH2 0x8E7 JUMP JUMPDEST POP POP POP POP SWAP1 POP SWAP1 JUMP JUMPDEST PUSH1 0x0 PUSH1 0x3 DUP3 DUP2 SLOAD DUP2 LT PUSH2 0x9DD JUMPI PUSH2 0x9DC PUSH2 0x1F5A JUMP JUMPDEST JUMPDEST SWAP1 PUSH1 0x0 MSTORE PUSH1 0x20 PUSH1 0x0 KECCAK256 SWAP1 PUSH1 0x4 MUL ADD PUSH1 0x3 ADD PUSH1 0x0 SWAP1 SLOAD SWAP1 PUSH2 0x100 EXP SWAP1 DIV PUSH1 0xFF AND SWAP1 POP SWAP2 SWAP1 POP JUMP JUMPDEST PUSH1 0x0 PUSH1 0x2 DUP3 DUP2 SLOAD DUP2 LT PUSH2 0xA19 JUMPI PUSH2 0xA18 PUSH2 0x1F5A JUMP JUMPDEST JUMPDEST SWAP1 PUSH1 0x0 MSTORE PUSH1 0x20 PUSH1 0x0 KECCAK256 SWAP1 PUSH1 0x4 MUL ADD PUSH1 0x0 ADD PUSH1 0x0 SWAP1 SLOAD SWAP1 PUSH2 0x100 EXP SWAP1 DIV PUSH20 0xFFFFFFFFFFFFFFFFFFFFFFFFFFFFFFFFFFFFFFFF AND SWAP1 POP SWAP2 SWAP1 POP JUMP JUMPDEST PUSH1 0x0 PUSH1 0x3 DUP3 DUP2 SLOAD DUP2 LT PUSH2 0xA68 JUMPI PUSH2 0xA67 PUSH2 0x1F5A JUMP JUMPDEST JUMPDEST SWAP1 PUSH1 0x0 MSTORE PUSH1 0x20 PUSH1 0x0 KECCAK256 SWAP1 PUSH1 0x4 MUL ADD PUSH1 0x0 ADD PUSH1 0x0 SWAP1 SLOAD SWAP1 PUSH2 0x100 EXP SWAP1 DIV PUSH20 0xFFFFFFFFFFFFFFFFFFFFFFFFFFFFFFFFFFFFFFFF AND SWAP1 POP SWAP2 SWAP1 POP JUMP JUMPDEST PUSH1 0x0 DUP2 LT ISZERO PUSH2 0xAE5 JUMPI PUSH1 0x40 MLOAD PUSH32 0x8C379A000000000000000000000000000000000000000000000000000000000 DUP2 MSTORE PUSH1 0x4 ADD PUSH2 0xADC SWAP1 PUSH2 0x2135 JUMP JUMPDEST PUSH1 0x40 MLOAD DUP1 SWAP2 SUB SWAP1 REVERT JUMPDEST DUP1 CALLVALUE LT ISZERO PUSH2 0xB28 JUMPI PUSH1 0x40 MLOAD PUSH32 0x8C379A000000000000000000000000000000000000000000000000000000000 DUP2 MSTORE PUSH1 0x4 ADD PUSH2 0xB1F SWAP1 PUSH2 0x21A1 JUMP JUMPDEST PUSH1 0x40 MLOAD DUP1 SWAP2 SUB SWAP1 REVERT JUMPDEST PUSH1 0x0 TIMESTAMP SWAP1 POP PUSH1 0x0 PUSH1 0x64 PUSH1 0x1 SLOAD PUSH1 0x64 PUSH2 0xB40 SWAP2 SWAP1 PUSH2 0x21C1 JUMP JUMPDEST CALLVALUE PUSH2 0xB4B SWAP2 SWAP1 PUSH2 0x21F5 JUMP JUMPDEST PUSH2 0xB55 SWAP2 SWAP1 PUSH2 0x227E JUMP JUMPDEST SWAP1 POP PUSH1 0x0 PUSH1 0x40 MLOAD DUP1 PUSH1 0x80 ADD PUSH1 0x40 MSTORE DUP1 CALLER PUSH20 0xFFFFFFFFFFFFFFFFFFFFFFFFFFFFFFFFFFFFFFFF AND DUP2 MSTORE PUSH1 0x20 ADD DUP4 DUP2 MSTORE PUSH1 0x20 ADD DUP5 DUP2 MSTORE PUSH1 0x20 ADD PUSH1 0x0 PUSH1 0x1 DUP2 GT ISZERO PUSH2 0xBA0 JUMPI PUSH2 0xB9F PUSH2 0x1D95 JUMP JUMPDEST JUMPDEST DUP2 MSTORE POP SWAP1 POP PUSH1 0x3 DUP2 SWAP1 DUP1 PUSH1 0x1 DUP2 SLOAD ADD DUP1 DUP3 SSTORE DUP1 SWAP2 POP POP PUSH1 0x1 SWAP1 SUB SWAP1 PUSH1 0x0 MSTORE PUSH1 0x20 PUSH1 0x0 KECCAK256 SWAP1 PUSH1 0x4 MUL ADD PUSH1 0x0 SWAP1 SWAP2 SWAP1 SWAP2 SWAP1 SWAP2 POP PUSH1 0x0 DUP3 ADD MLOAD DUP2 PUSH1 0x0 ADD PUSH1 0x0 PUSH2 0x100 EXP DUP2 SLOAD DUP2 PUSH20 0xFFFFFFFFFFFFFFFFFFFFFFFFFFFFFFFFFFFFFFFF MUL NOT AND SWAP1 DUP4 PUSH20 0xFFFFFFFFFFFFFFFFFFFFFFFFFFFFFFFFFFFFFFFF AND MUL OR SWAP1 SSTORE POP PUSH1 0x20 DUP3 ADD MLOAD DUP2 PUSH1 0x1 ADD SSTORE PUSH1 0x40 DUP3 ADD MLOAD DUP2 PUSH1 0x2 ADD SSTORE PUSH1 0x60 DUP3 ADD MLOAD DUP2 PUSH1 0x3 ADD PUSH1 0x0 PUSH2 0x100 EXP DUP2 SLOAD DUP2 PUSH1 0xFF MUL NOT AND SWAP1 DUP4 PUSH1 0x1 DUP2 GT ISZERO PUSH2 0xC57 JUMPI PUSH2 0xC56 PUSH2 0x1D95 JUMP JUMPDEST JUMPDEST MUL OR SWAP1 SSTORE POP POP POP PUSH1 0x0 DUP1 SLOAD SWAP1 PUSH2 0x100 EXP SWAP1 DIV PUSH20 0xFFFFFFFFFFFFFFFFFFFFFFFFFFFFFFFFFFFFFFFF AND PUSH20 0xFFFFFFFFFFFFFFFFFFFFFFFFFFFFFFFFFFFFFFFF AND PUSH2 0x8FC DUP4 SWAP1 DUP2 ISZERO MUL SWAP1 PUSH1 0x40 MLOAD PUSH1 0x0 PUSH1 0x40 MLOAD DUP1 DUP4 SUB DUP2 DUP6 DUP9 DUP9 CALL SWAP4 POP POP POP POP ISZERO DUP1 ISZERO PUSH2 0xCC4 JUMPI RETURNDATASIZE PUSH1 0x0 DUP1 RETURNDATACOPY RETURNDATASIZE PUSH1 0x0 REVERT JUMPDEST POP PUSH32 0xC2125A7F3EDFEFF7A3BBCFE393C5AA3A6589585D4A7EE70DB48C34F67C8209E2 CALLER DUP4 DUP6 PUSH1 0x0 PUSH1 0x40 MLOAD PUSH2 0xCFB SWAP5 SWAP4 SWAP3 SWAP2 SWAP1 PUSH2 0x22D0 JUMP JUMPDEST PUSH1 0x40 MLOAD DUP1 SWAP2 SUB SWAP1 LOG1 POP POP POP POP JUMP JUMPDEST PUSH1 0x2 DUP2 DUP2 SLOAD DUP2 LT PUSH2 0xD1D JUMPI PUSH2 0xD1C PUSH2 0x1F5A JUMP JUMPDEST JUMPDEST SWAP1 PUSH1 0x0 MSTORE PUSH1 0x20 PUSH1 0x0 KECCAK256 SWAP1 PUSH1 0x4 MUL ADD PUSH1 0x40 MLOAD DUP1 PUSH1 0x80 ADD PUSH1 0x40 MSTORE SWAP1 DUP2 PUSH1 0x0 DUP3 ADD PUSH1 0x0 SWAP1 SLOAD SWAP1 PUSH2 0x100 EXP SWAP1 DIV PUSH20 0xFFFFFFFFFFFFFFFFFFFFFFFFFFFFFFFFFFFFFFFF AND PUSH20 0xFFFFFFFFFFFFFFFFFFFFFFFFFFFFFFFFFFFFFFFF AND PUSH20 0xFFFFFFFFFFFFFFFFFFFFFFFFFFFFFFFFFFFFFFFF AND DUP2 MSTORE PUSH1 0x20 ADD PUSH1 0x1 DUP3 ADD SLOAD DUP2 MSTORE PUSH1 0x20 ADD PUSH1 0x2 DUP3 ADD SLOAD DUP2 MSTORE PUSH1 0x20 ADD PUSH1 0x3 DUP3 ADD PUSH1 0x0 SWAP1 SLOAD SWAP1 PUSH2 0x100 EXP SWAP1 DIV PUSH1 0xFF AND PUSH1 0x1 DUP2 GT ISZERO PUSH2 0xDC5 JUMPI PUSH2 0xDC4 PUSH2 0x1D95 JUMP JUMPDEST JUMPDEST PUSH1 0x1 DUP2 GT ISZERO PUSH2 0xDD7 JUMPI PUSH2 0xDD6 PUSH2 0x1D95 JUMP JUMPDEST JUMPDEST DUP2 MSTORE POP POP PUSH1 0x0 PUSH1 0x1 DUP2 GT ISZERO PUSH2 0xDEF JUMPI PUSH2 0xDEE PUSH2 0x1D95 JUMP JUMPDEST JUMPDEST DUP2 PUSH1 0x60 ADD MLOAD PUSH1 0x1 DUP2 GT ISZERO PUSH2 0xE06 JUMPI PUSH2 0xE05 PUSH2 0x1D95 JUMP JUMPDEST JUMPDEST EQ PUSH2 0xE46 JUMPI PUSH1 0x40 MLOAD PUSH32 0x8C379A000000000000000000000000000000000000000000000000000000000 DUP2 MSTORE PUSH1 0x4 ADD PUSH2 0xE3D SWAP1 PUSH2 0x205D JUMP JUMPDEST PUSH1 0x40 MLOAD DUP1 SWAP2 SUB SWAP1 REVERT JUMPDEST PUSH1 0x2 DUP3 DUP2 SLOAD DUP2 LT PUSH2 0xE5A JUMPI PUSH2 0xE59 PUSH2 0x1F5A JUMP JUMPDEST JUMPDEST SWAP1 PUSH1 0x0 MSTORE PUSH1 0x20 PUSH1 0x0 KECCAK256 SWAP1 PUSH1 0x4 MUL ADD PUSH1 0x40 MLOAD DUP1 PUSH1 0x80 ADD PUSH1 0x40 MSTORE SWAP1 DUP2 PUSH1 0x0 DUP3 ADD PUSH1 0x0 SWAP1 SLOAD SWAP1 PUSH2 0x100 EXP SWAP1 DIV PUSH20 0xFFFFFFFFFFFFFFFFFFFFFFFFFFFFFFFFFFFFFFFF AND PUSH20 0xFFFFFFFFFFFFFFFFFFFFFFFFFFFFFFFFFFFFFFFF AND PUSH20 0xFFFFFFFFFFFFFFFFFFFFFFFFFFFFFFFFFFFFFFFF AND DUP2 MSTORE PUSH1 0x20 ADD PUSH1 0x1 DUP3 ADD SLOAD DUP2 MSTORE PUSH1 0x20 ADD PUSH1 0x2 DUP3 ADD SLOAD DUP2 MSTORE PUSH1 0x20 ADD PUSH1 0x3 DUP3 ADD PUSH1 0x0 SWAP1 SLOAD SWAP1 PUSH2 0x100 EXP SWAP1 DIV PUSH1 0xFF AND PUSH1 0x1 DUP2 GT ISZERO PUSH2 0xF02 JUMPI PUSH2 0xF01 PUSH2 0x1D95 JUMP JUMPDEST JUMPDEST PUSH1 0x1 DUP2 GT ISZERO PUSH2 0xF14 JUMPI PUSH2 0xF13 PUSH2 0x1D95 JUMP JUMPDEST JUMPDEST DUP2 MSTORE POP POP CALLER DUP1 PUSH20 0xFFFFFFFFFFFFFFFFFFFFFFFFFFFFFFFFFFFFFFFF AND DUP3 PUSH1 0x0 ADD MLOAD PUSH20 0xFFFFFFFFFFFFFFFFFFFFFFFFFFFFFFFFFFFFFFFF AND EQ PUSH2 0xF8B JUMPI PUSH1 0x40 MLOAD PUSH32 0x8C379A000000000000000000000000000000000000000000000000000000000 DUP2 MSTORE PUSH1 0x4 ADD PUSH2 0xF82 SWAP1 PUSH2 0x20C9 JUMP JUMPDEST PUSH1 0x40 MLOAD DUP1 SWAP2 SUB SWAP1 REVERT JUMPDEST PUSH1 0x2 DUP5 DUP2 SLOAD DUP2 LT PUSH2 0xF9F JUMPI PUSH2 0xF9E PUSH2 0x1F5A JUMP JUMPDEST JUMPDEST SWAP1 PUSH1 0x0 MSTORE PUSH1 0x20 PUSH1 0x0 KECCAK256 SWAP1 PUSH1 0x4 MUL ADD PUSH1 0x0 ADD PUSH1 0x0 SWAP1 SLOAD SWAP1 PUSH2 0x100 EXP SWAP1 DIV PUSH20 0xFFFFFFFFFFFFFFFFFFFFFFFFFFFFFFFFFFFFFFFF AND PUSH20 0xFFFFFFFFFFFFFFFFFFFFFFFFFFFFFFFFFFFFFFFF AND PUSH2 0x8FC PUSH1 0x2 DUP7 DUP2 SLOAD DUP2 LT PUSH2 0xFFE JUMPI PUSH2 0xFFD PUSH2 0x1F5A JUMP JUMPDEST JUMPDEST SWAP1 PUSH1 0x0 MSTORE PUSH1 0x20 PUSH1 0x0 KECCAK256 SWAP1 PUSH1 0x4 MUL ADD PUSH1 0x1 ADD SLOAD SWAP1 DUP2 ISZERO MUL SWAP1 PUSH1 0x40 MLOAD PUSH1 0x0 PUSH1 0x40 MLOAD DUP1 DUP4 SUB DUP2 DUP6 DUP9 DUP9 CALL SWAP4 POP POP POP POP ISZERO DUP1 ISZERO PUSH2 0x103B JUMPI RETURNDATASIZE PUSH1 0x0 DUP1 RETURNDATACOPY RETURNDATASIZE PUSH1 0x0 REVERT JUMPDEST POP PUSH1 0x2 DUP5 DUP2 SLOAD DUP2 LT PUSH2 0x1050 JUMPI PUSH2 0x104F PUSH2 0x1F5A JUMP JUMPDEST JUMPDEST SWAP1 PUSH1 0x0 MSTORE PUSH1 0x20 PUSH1 0x0 KECCAK256 SWAP1 PUSH1 0x4 MUL ADD PUSH1 0x0 DUP1 DUP3 ADD PUSH1 0x0 PUSH2 0x100 EXP DUP2 SLOAD SWAP1 PUSH20 0xFFFFFFFFFFFFFFFFFFFFFFFFFFFFFFFFFFFFFFFF MUL NOT AND SWAP1 SSTORE PUSH1 0x1 DUP3 ADD PUSH1 0x0 SWAP1 SSTORE PUSH1 0x2 DUP3 ADD PUSH1 0x0 SWAP1 SSTORE PUSH1 0x3 DUP3 ADD PUSH1 0x0 PUSH2 0x100 EXP DUP2 SLOAD SWAP1 PUSH1 0xFF MUL NOT AND SWAP1 SSTORE POP POP PUSH2 0x10B4 PUSH2 0x1751 JUMP JUMPDEST PUSH32 0xC845A6832AFA0A4048DD70BBBA2186093508A6B63A8D5D70A508F819FEF257F8 DUP5 PUSH1 0x40 MLOAD PUSH2 0x10E3 SWAP2 SWAP1 PUSH2 0x1D0D JUMP JUMPDEST PUSH1 0x40 MLOAD DUP1 SWAP2 SUB SWAP1 LOG1 POP POP POP POP JUMP JUMPDEST PUSH1 0x0 DUP2 LT ISZERO PUSH2 0x1135 JUMPI PUSH1 0x40 MLOAD PUSH32 0x8C379A000000000000000000000000000000000000000000000000000000000 DUP2 MSTORE PUSH1 0x4 ADD PUSH2 0x112C SWAP1 PUSH2 0x2135 JUMP JUMPDEST PUSH1 0x40 MLOAD DUP1 SWAP2 SUB SWAP1 REVERT JUMPDEST DUP1 CALLVALUE LT ISZERO PUSH2 0x1178 JUMPI PUSH1 0x40 MLOAD PUSH32 0x8C379A000000000000000000000000000000000000000000000000000000000 DUP2 MSTORE PUSH1 0x4 ADD PUSH2 0x116F SWAP1 PUSH2 0x2361 JUMP JUMPDEST PUSH1 0x40 MLOAD DUP1 SWAP2 SUB SWAP1 REVERT JUMPDEST PUSH1 0x0 TIMESTAMP SWAP1 POP PUSH1 0x0 PUSH1 0x64 PUSH1 0x1 SLOAD PUSH1 0x64 PUSH2 0x1190 SWAP2 SWAP1 PUSH2 0x21C1 JUMP JUMPDEST CALLVALUE PUSH2 0x119B SWAP2 SWAP1 PUSH2 0x21F5 JUMP JUMPDEST PUSH2 0x11A5 SWAP2 SWAP1 PUSH2 0x227E JUMP JUMPDEST SWAP1 POP PUSH1 0x0 PUSH1 0x40 MLOAD DUP1 PUSH1 0x80 ADD PUSH1 0x40 MSTORE DUP1 CALLER PUSH20 0xFFFFFFFFFFFFFFFFFFFFFFFFFFFFFFFFFFFFFFFF AND DUP2 MSTORE PUSH1 0x20 ADD DUP4 DUP2 MSTORE PUSH1 0x20 ADD DUP5 DUP2 MSTORE PUSH1 0x20 ADD PUSH1 0x0 PUSH1 0x1 DUP2 GT ISZERO PUSH2 0x11F0 JUMPI PUSH2 0x11EF PUSH2 0x1D95 JUMP JUMPDEST JUMPDEST DUP2 MSTORE POP SWAP1 POP PUSH1 0x2 DUP2 SWAP1 DUP1 PUSH1 0x1 DUP2 SLOAD ADD DUP1 DUP3 SSTORE DUP1 SWAP2 POP POP PUSH1 0x1 SWAP1 SUB SWAP1 PUSH1 0x0 MSTORE PUSH1 0x20 PUSH1 0x0 KECCAK256 SWAP1 PUSH1 0x4 MUL ADD PUSH1 0x0 SWAP1 SWAP2 SWAP1 SWAP2 SWAP1 SWAP2 POP PUSH1 0x0 DUP3 ADD MLOAD DUP2 PUSH1 0x0 ADD PUSH1 0x0 PUSH2 0x100 EXP DUP2 SLOAD DUP2 PUSH20 0xFFFFFFFFFFFFFFFFFFFFFFFFFFFFFFFFFFFFFFFF MUL NOT AND SWAP1 DUP4 PUSH20 0xFFFFFFFFFFFFFFFFFFFFFFFFFFFFFFFFFFFFFFFF AND MUL OR SWAP1 SSTORE POP PUSH1 0x20 DUP3 ADD MLOAD DUP2 PUSH1 0x1 ADD SSTORE PUSH1 0x40 DUP3 ADD MLOAD DUP2 PUSH1 0x2 ADD SSTORE PUSH1 0x60 DUP3 ADD MLOAD DUP2 PUSH1 0x3 ADD PUSH1 0x0 PUSH2 0x100 EXP DUP2 SLOAD DUP2 PUSH1 0xFF MUL NOT AND SWAP1 DUP4 PUSH1 0x1 DUP2 GT ISZERO PUSH2 0x12A7 JUMPI PUSH2 0x12A6 PUSH2 0x1D95 JUMP JUMPDEST JUMPDEST MUL OR SWAP1 SSTORE POP POP POP PUSH1 0x0 DUP1 SLOAD SWAP1 PUSH2 0x100 EXP SWAP1 DIV PUSH20 0xFFFFFFFFFFFFFFFFFFFFFFFFFFFFFFFFFFFFFFFF AND PUSH20 0xFFFFFFFFFFFFFFFFFFFFFFFFFFFFFFFFFFFFFFFF AND PUSH2 0x8FC DUP4 SWAP1 DUP2 ISZERO MUL SWAP1 PUSH1 0x40 MLOAD PUSH1 0x0 PUSH1 0x40 MLOAD DUP1 DUP4 SUB DUP2 DUP6 DUP9 DUP9 CALL SWAP4 POP POP POP POP ISZERO DUP1 ISZERO PUSH2 0x1314 JUMPI RETURNDATASIZE PUSH1 0x0 DUP1 RETURNDATACOPY RETURNDATASIZE PUSH1 0x0 REVERT JUMPDEST POP PUSH32 0xA64806D6D5D480697A0B11C92B915A4FF7B93C0BE28171D65D30041A0C360D04 CALLER DUP4 DUP6 PUSH1 0x0 PUSH1 0x40 MLOAD PUSH2 0x134B SWAP5 SWAP4 SWAP3 SWAP2 SWAP1 PUSH2 0x22D0 JUMP JUMPDEST PUSH1 0x40 MLOAD DUP1 SWAP2 SUB SWAP1 LOG1 POP POP POP POP JUMP JUMPDEST PUSH1 0x0 PUSH1 0x2 DUP3 DUP2 SLOAD DUP2 LT PUSH2 0x136F JUMPI PUSH2 0x136E PUSH2 0x1F5A JUMP JUMPDEST JUMPDEST SWAP1 PUSH1 0x0 MSTORE PUSH1 0x20 PUSH1 0x0 KECCAK256 SWAP1 PUSH1 0x4 MUL ADD PUSH1 0x3 ADD PUSH1 0x0 SWAP1 SLOAD SWAP1 PUSH2 0x100 EXP SWAP1 DIV PUSH1 0xFF AND SWAP1 POP SWAP2 SWAP1 POP JUMP JUMPDEST PUSH1 0x60 PUSH1 0x3 DUP1 SLOAD DUP1 PUSH1 0x20 MUL PUSH1 0x20 ADD PUSH1 0x40 MLOAD SWAP1 DUP2 ADD PUSH1 0x40 MSTORE DUP1 SWAP3 SWAP2 SWAP1 DUP2 DUP2 MSTORE PUSH1 0x20 ADD PUSH1 0x0 SWAP1 JUMPDEST DUP3 DUP3 LT ISZERO PUSH2 0x1490 JUMPI DUP4 DUP3 SWAP1 PUSH1 0x0 MSTORE PUSH1 0x20 PUSH1 0x0 KECCAK256 SWAP1 PUSH1 0x4 MUL ADD PUSH1 0x40 MLOAD DUP1 PUSH1 0x80 ADD PUSH1 0x40 MSTORE SWAP1 DUP2 PUSH1 0x0 DUP3 ADD PUSH1 0x0 SWAP1 SLOAD SWAP1 PUSH2 0x100 EXP SWAP1 DIV PUSH20 0xFFFFFFFFFFFFFFFFFFFFFFFFFFFFFFFFFFFFFFFF AND PUSH20 0xFFFFFFFFFFFFFFFFFFFFFFFFFFFFFFFFFFFFFFFF AND PUSH20 0xFFFFFFFFFFFFFFFFFFFFFFFFFFFFFFFFFFFFFFFF AND DUP2 MSTORE PUSH1 0x20 ADD PUSH1 0x1 DUP3 ADD SLOAD DUP2 MSTORE PUSH1 0x20 ADD PUSH1 0x2 DUP3 ADD SLOAD DUP2 MSTORE PUSH1 0x20 ADD PUSH1 0x3 DUP3 ADD PUSH1 0x0 SWAP1 SLOAD SWAP1 PUSH2 0x100 EXP SWAP1 DIV PUSH1 0xFF AND PUSH1 0x1 DUP2 GT ISZERO PUSH2 0x146B JUMPI PUSH2 0x146A PUSH2 0x1D95 JUMP JUMPDEST JUMPDEST PUSH1 0x1 DUP2 GT ISZERO PUSH2 0x147D JUMPI PUSH2 0x147C PUSH2 0x1D95 JUMP JUMPDEST JUMPDEST DUP2 MSTORE POP POP DUP2 MSTORE PUSH1 0x20 ADD SWAP1 PUSH1 0x1 ADD SWAP1 PUSH2 0x13B9 JUMP JUMPDEST POP POP POP POP SWAP1 POP SWAP1 JUMP JUMPDEST PUSH1 0x60 PUSH2 0x14A3 PUSH2 0x15EE JUMP JUMPDEST PUSH1 0x0 JUMPDEST PUSH1 0x2 DUP1 SLOAD SWAP1 POP DUP2 LT ISZERO PUSH2 0x1568 JUMPI CALLER PUSH20 0xFFFFFFFFFFFFFFFFFFFFFFFFFFFFFFFFFFFFFFFF AND PUSH1 0x2 DUP3 DUP2 SLOAD DUP2 LT PUSH2 0x14DE JUMPI PUSH2 0x14DD PUSH2 0x1F5A JUMP JUMPDEST JUMPDEST SWAP1 PUSH1 0x0 MSTORE PUSH1 0x20 PUSH1 0x0 KECCAK256 SWAP1 PUSH1 0x4 MUL ADD PUSH1 0x0 ADD PUSH1 0x0 SWAP1 SLOAD SWAP1 PUSH2 0x100 EXP SWAP1 DIV PUSH20 0xFFFFFFFFFFFFFFFFFFFFFFFFFFFFFFFFFFFFFFFF AND PUSH20 0xFFFFFFFFFFFFFFFFFFFFFFFFFFFFFFFFFFFFFFFF AND SUB PUSH2 0x1555 JUMPI PUSH1 0x4 DUP2 SWAP1 DUP1 PUSH1 0x1 DUP2 SLOAD ADD DUP1 DUP3 SSTORE DUP1 SWAP2 POP POP PUSH1 0x1 SWAP1 SUB SWAP1 PUSH1 0x0 MSTORE PUSH1 0x20 PUSH1 0x0 KECCAK256 ADD PUSH1 0x0 SWAP1 SWAP2 SWAP1 SWAP2 SWAP1 SWAP2 POP SSTORE JUMPDEST DUP1 DUP1 PUSH2 0x1560 SWAP1 PUSH2 0x1FB8 JUMP JUMPDEST SWAP2 POP POP PUSH2 0x14A6 JUMP JUMPDEST POP PUSH1 0x4 DUP1 SLOAD DUP1 PUSH1 0x20 MUL PUSH1 0x20 ADD PUSH1 0x40 MLOAD SWAP1 DUP2 ADD PUSH1 0x40 MSTORE DUP1 SWAP3 SWAP2 SWAP1 DUP2 DUP2 MSTORE PUSH1 0x20 ADD DUP3 DUP1 SLOAD DUP1 ISZERO PUSH2 0x15B5 JUMPI PUSH1 0x20 MUL DUP3 ADD SWAP2 SWAP1 PUSH1 0x0 MSTORE PUSH1 0x20 PUSH1 0x0 KECCAK256 SWAP1 JUMPDEST DUP2 SLOAD DUP2 MSTORE PUSH1 0x20 ADD SWAP1 PUSH1 0x1 ADD SWAP1 DUP1 DUP4 GT PUSH2 0x15A1 JUMPI JUMPDEST POP POP POP POP POP SWAP1 POP SWAP1 JUMP JUMPDEST PUSH1 0x0 PUSH1 0x3 DUP3 DUP2 SLOAD DUP2 LT PUSH2 0x15D5 JUMPI PUSH2 0x15D4 PUSH2 0x1F5A JUMP JUMPDEST JUMPDEST SWAP1 PUSH1 0x0 MSTORE PUSH1 0x20 PUSH1 0x0 KECCAK256 SWAP1 PUSH1 0x4 MUL ADD PUSH1 0x1 ADD SLOAD SWAP1 POP SWAP2 SWAP1 POP JUMP JUMPDEST PUSH1 0x0 JUMPDEST PUSH1 0x4 DUP1 SLOAD SWAP1 POP DUP2 LT ISZERO PUSH2 0x1633 JUMPI PUSH1 0x4 DUP2 DUP2 SLOAD DUP2 LT PUSH2 0x1612 JUMPI PUSH2 0x1611 PUSH2 0x1F5A JUMP JUMPDEST JUMPDEST SWAP1 PUSH1 0x0 MSTORE PUSH1 0x20 PUSH1 0x0 KECCAK256 ADD PUSH1 0x0 SWAP1 SSTORE DUP1 DUP1 PUSH2 0x162B SWAP1 PUSH2 0x1FB8 JUMP JUMPDEST SWAP2 POP POP PUSH2 0x15F1 JUMP JUMPDEST POP JUMP JUMPDEST PUSH2 0x174F PUSH1 0x2 DUP1 SLOAD DUP1 PUSH1 0x20 MUL PUSH1 0x20 ADD PUSH1 0x40 MLOAD SWAP1 DUP2 ADD PUSH1 0x40 MSTORE DUP1 SWAP3 SWAP2 SWAP1 DUP2 DUP2 MSTORE PUSH1 0x20 ADD PUSH1 0x0 SWAP1 JUMPDEST DUP3 DUP3 LT ISZERO PUSH2 0x1732 JUMPI DUP4 DUP3 SWAP1 PUSH1 0x0 MSTORE PUSH1 0x20 PUSH1 0x0 KECCAK256 SWAP1 PUSH1 0x4 MUL ADD PUSH1 0x40 MLOAD DUP1 PUSH1 0x80 ADD PUSH1 0x40 MSTORE SWAP1 DUP2 PUSH1 0x0 DUP3 ADD PUSH1 0x0 SWAP1 SLOAD SWAP1 PUSH2 0x100 EXP SWAP1 DIV PUSH20 0xFFFFFFFFFFFFFFFFFFFFFFFFFFFFFFFFFFFFFFFF AND PUSH20 0xFFFFFFFFFFFFFFFFFFFFFFFFFFFFFFFFFFFFFFFF AND PUSH20 0xFFFFFFFFFFFFFFFFFFFFFFFFFFFFFFFFFFFFFFFF AND DUP2 MSTORE PUSH1 0x20 ADD PUSH1 0x1 DUP3 ADD SLOAD DUP2 MSTORE PUSH1 0x20 ADD PUSH1 0x2 DUP3 ADD SLOAD DUP2 MSTORE PUSH1 0x20 ADD PUSH1 0x3 DUP3 ADD PUSH1 0x0 SWAP1 SLOAD SWAP1 PUSH2 0x100 EXP SWAP1 DIV PUSH1 0xFF AND PUSH1 0x1 DUP2 GT ISZERO PUSH2 0x170D JUMPI PUSH2 0x170C PUSH2 0x1D95 JUMP JUMPDEST JUMPDEST PUSH1 0x1 DUP2 GT ISZERO PUSH2 0x171F JUMPI PUSH2 0x171E PUSH2 0x1D95 JUMP JUMPDEST JUMPDEST DUP2 MSTORE POP POP DUP2 MSTORE PUSH1 0x20 ADD SWAP1 PUSH1 0x1 ADD SWAP1 PUSH2 0x165B JUMP JUMPDEST POP POP POP POP PUSH1 0x0 PUSH1 0x1 PUSH1 0x2 DUP1 SLOAD SWAP1 POP PUSH2 0x174A SWAP2 SWAP1 PUSH2 0x21C1 JUMP JUMPDEST PUSH2 0x186C JUMP JUMPDEST JUMP JUMPDEST PUSH2 0x186A PUSH1 0x2 DUP1 SLOAD DUP1 PUSH1 0x20 MUL PUSH1 0x20 ADD PUSH1 0x40 MLOAD SWAP1 DUP2 ADD PUSH1 0x40 MSTORE DUP1 SWAP3 SWAP2 SWAP1 DUP2 DUP2 MSTORE PUSH1 0x20 ADD PUSH1 0x0 SWAP1 JUMPDEST DUP3 DUP3 LT ISZERO PUSH2 0x184D JUMPI DUP4 DUP3 SWAP1 PUSH1 0x0 MSTORE PUSH1 0x20 PUSH1 0x0 KECCAK256 SWAP1 PUSH1 0x4 MUL ADD PUSH1 0x40 MLOAD DUP1 PUSH1 0x80 ADD PUSH1 0x40 MSTORE SWAP1 DUP2 PUSH1 0x0 DUP3 ADD PUSH1 0x0 SWAP1 SLOAD SWAP1 PUSH2 0x100 EXP SWAP1 DIV PUSH20 0xFFFFFFFFFFFFFFFFFFFFFFFFFFFFFFFFFFFFFFFF AND PUSH20 0xFFFFFFFFFFFFFFFFFFFFFFFFFFFFFFFFFFFFFFFF AND PUSH20 0xFFFFFFFFFFFFFFFFFFFFFFFFFFFFFFFFFFFFFFFF AND DUP2 MSTORE PUSH1 0x20 ADD PUSH1 0x1 DUP3 ADD SLOAD DUP2 MSTORE PUSH1 0x20 ADD PUSH1 0x2 DUP3 ADD SLOAD DUP2 MSTORE PUSH1 0x20 ADD PUSH1 0x3 DUP3 ADD PUSH1 0x0 SWAP1 SLOAD SWAP1 PUSH2 0x100 EXP SWAP1 DIV PUSH1 0xFF AND PUSH1 0x1 DUP2 GT ISZERO PUSH2 0x1828 JUMPI PUSH2 0x1827 PUSH2 0x1D95 JUMP JUMPDEST JUMPDEST PUSH1 0x1 DUP2 GT ISZERO PUSH2 0x183A JUMPI PUSH2 0x1839 PUSH2 0x1D95 JUMP JUMPDEST JUMPDEST DUP2 MSTORE POP POP DUP2 MSTORE PUSH1 0x20 ADD SWAP1 PUSH1 0x1 ADD SWAP1 PUSH2 0x1776 JUMP JUMPDEST POP POP POP POP PUSH1 0x0 PUSH1 0x1 PUSH1 0x2 DUP1 SLOAD SWAP1 POP PUSH2 0x1865 SWAP2 SWAP1 PUSH2 0x21C1 JUMP JUMPDEST PUSH2 0x1A11 JUMP JUMPDEST JUMP JUMPDEST PUSH1 0x0 DUP3 SWAP1 POP PUSH1 0x0 DUP3 SWAP1 POP DUP1 DUP3 SUB PUSH2 0x1884 JUMPI POP POP PUSH2 0x1A0C JUMP JUMPDEST PUSH1 0x0 DUP6 PUSH1 0x2 DUP7 DUP7 PUSH2 0x1895 SWAP2 SWAP1 PUSH2 0x238B JUMP JUMPDEST PUSH2 0x189F SWAP2 SWAP1 PUSH2 0x241F JUMP JUMPDEST DUP7 PUSH2 0x18AA SWAP2 SWAP1 PUSH2 0x2489 JUMP JUMPDEST DUP2 MLOAD DUP2 LT PUSH2 0x18BB JUMPI PUSH2 0x18BA PUSH2 0x1F5A JUMP JUMPDEST JUMPDEST PUSH1 0x20 MUL PUSH1 0x20 ADD ADD MLOAD PUSH1 0x20 ADD MLOAD SWAP1 POP JUMPDEST DUP2 DUP4 SGT PUSH2 0x19E0 JUMPI JUMPDEST DUP1 DUP7 DUP5 DUP2 MLOAD DUP2 LT PUSH2 0x18E6 JUMPI PUSH2 0x18E5 PUSH2 0x1F5A JUMP JUMPDEST JUMPDEST PUSH1 0x20 MUL PUSH1 0x20 ADD ADD MLOAD PUSH1 0x20 ADD MLOAD GT ISZERO PUSH2 0x190B JUMPI DUP3 DUP1 PUSH2 0x1903 SWAP1 PUSH2 0x251D JUMP JUMPDEST SWAP4 POP POP PUSH2 0x18D2 JUMP JUMPDEST JUMPDEST DUP6 DUP3 DUP2 MLOAD DUP2 LT PUSH2 0x191F JUMPI PUSH2 0x191E PUSH2 0x1F5A JUMP JUMPDEST JUMPDEST PUSH1 0x20 MUL PUSH1 0x20 ADD ADD MLOAD PUSH1 0x20 ADD MLOAD DUP2 GT ISZERO PUSH2 0x1945 JUMPI DUP2 DUP1 PUSH2 0x193D SWAP1 PUSH2 0x2565 JUMP JUMPDEST SWAP3 POP POP PUSH2 0x190C JUMP JUMPDEST DUP2 DUP4 SGT PUSH2 0x19DB JUMPI DUP6 DUP3 DUP2 MLOAD DUP2 LT PUSH2 0x195F JUMPI PUSH2 0x195E PUSH2 0x1F5A JUMP JUMPDEST JUMPDEST PUSH1 0x20 MUL PUSH1 0x20 ADD ADD MLOAD DUP7 DUP5 DUP2 MLOAD DUP2 LT PUSH2 0x197A JUMPI PUSH2 0x1979 PUSH2 0x1F5A JUMP JUMPDEST JUMPDEST PUSH1 0x20 MUL PUSH1 0x20 ADD ADD MLOAD DUP8 DUP6 DUP2 MLOAD DUP2 LT PUSH2 0x1995 JUMPI PUSH2 0x1994 PUSH2 0x1F5A JUMP JUMPDEST JUMPDEST PUSH1 0x20 MUL PUSH1 0x20 ADD ADD DUP9 DUP6 DUP2 MLOAD DUP2 LT PUSH2 0x19AF JUMPI PUSH2 0x19AE PUSH2 0x1F5A JUMP JUMPDEST JUMPDEST PUSH1 0x20 MUL PUSH1 0x20 ADD ADD DUP3 SWAP1 MSTORE DUP3 SWAP1 MSTORE POP POP DUP3 DUP1 PUSH2 0x19C9 SWAP1 PUSH2 0x251D JUMP JUMPDEST SWAP4 POP POP DUP2 DUP1 PUSH2 0x19D7 SWAP1 PUSH2 0x2565 JUMP JUMPDEST SWAP3 POP POP JUMPDEST PUSH2 0x18CA JUMP JUMPDEST DUP2 DUP6 SLT ISZERO PUSH2 0x19F4 JUMPI PUSH2 0x19F3 DUP7 DUP7 DUP5 PUSH2 0x186C JUMP JUMPDEST JUMPDEST DUP4 DUP4 SLT ISZERO PUSH2 0x1A08 JUMPI PUSH2 0x1A07 DUP7 DUP5 DUP7 PUSH2 0x186C JUMP JUMPDEST JUMPDEST POP POP POP JUMPDEST POP POP POP JUMP JUMPDEST PUSH1 0x0 DUP3 SWAP1 POP PUSH1 0x0 DUP3 SWAP1 POP DUP1 DUP3 SUB PUSH2 0x1A29 JUMPI POP POP PUSH2 0x1BB1 JUMP JUMPDEST PUSH1 0x0 DUP6 PUSH1 0x2 DUP7 DUP7 PUSH2 0x1A3A SWAP2 SWAP1 PUSH2 0x238B JUMP JUMPDEST PUSH2 0x1A44 SWAP2 SWAP1 PUSH2 0x241F JUMP JUMPDEST DUP7 PUSH2 0x1A4F SWAP2 SWAP1 PUSH2 0x2489 JUMP JUMPDEST DUP2 MLOAD DUP2 LT PUSH2 0x1A60 JUMPI PUSH2 0x1A5F PUSH2 0x1F5A JUMP JUMPDEST JUMPDEST PUSH1 0x20 MUL PUSH1 0x20 ADD ADD MLOAD PUSH1 0x40 ADD MLOAD SWAP1 POP JUMPDEST DUP2 DUP4 SGT PUSH2 0x1B85 JUMPI JUMPDEST DUP1 DUP7 DUP5 DUP2 MLOAD DUP2 LT PUSH2 0x1A8B JUMPI PUSH2 0x1A8A PUSH2 0x1F5A JUMP JUMPDEST JUMPDEST PUSH1 0x20 MUL PUSH1 0x20 ADD ADD MLOAD PUSH1 0x40 ADD MLOAD LT ISZERO PUSH2 0x1AB0 JUMPI DUP3 DUP1 PUSH2 0x1AA8 SWAP1 PUSH2 0x251D JUMP JUMPDEST SWAP4 POP POP PUSH2 0x1A77 JUMP JUMPDEST JUMPDEST DUP6 DUP3 DUP2 MLOAD DUP2 LT PUSH2 0x1AC4 JUMPI PUSH2 0x1AC3 PUSH2 0x1F5A JUMP JUMPDEST JUMPDEST PUSH1 0x20 MUL PUSH1 0x20 ADD ADD MLOAD PUSH1 0x40 ADD MLOAD DUP2 LT ISZERO PUSH2 0x1AEA JUMPI DUP2 DUP1 PUSH2 0x1AE2 SWAP1 PUSH2 0x2565 JUMP JUMPDEST SWAP3 POP POP PUSH2 0x1AB1 JUMP JUMPDEST DUP2 DUP4 SGT PUSH2 0x1B80 JUMPI DUP6 DUP3 DUP2 MLOAD DUP2 LT PUSH2 0x1B04 JUMPI PUSH2 0x1B03 PUSH2 0x1F5A JUMP JUMPDEST JUMPDEST PUSH1 0x20 MUL PUSH1 0x20 ADD ADD MLOAD DUP7 DUP5 DUP2 MLOAD DUP2 LT PUSH2 0x1B1F JUMPI PUSH2 0x1B1E PUSH2 0x1F5A JUMP JUMPDEST JUMPDEST PUSH1 0x20 MUL PUSH1 0x20 ADD ADD MLOAD DUP8 DUP6 DUP2 MLOAD DUP2 LT PUSH2 0x1B3A JUMPI PUSH2 0x1B39 PUSH2 0x1F5A JUMP JUMPDEST JUMPDEST PUSH1 0x20 MUL PUSH1 0x20 ADD ADD DUP9 DUP6 DUP2 MLOAD DUP2 LT PUSH2 0x1B54 JUMPI PUSH2 0x1B53 PUSH2 0x1F5A JUMP JUMPDEST JUMPDEST PUSH1 0x20 MUL PUSH1 0x20 ADD ADD DUP3 SWAP1 MSTORE DUP3 SWAP1 MSTORE POP POP DUP3 DUP1 PUSH2 0x1B6E SWAP1 PUSH2 0x251D JUMP JUMPDEST SWAP4 POP POP DUP2 DUP1 PUSH2 0x1B7C SWAP1 PUSH2 0x2565 JUMP JUMPDEST SWAP3 POP POP JUMPDEST PUSH2 0x1A6F JUMP JUMPDEST DUP2 DUP6 SLT ISZERO PUSH2 0x1B99 JUMPI PUSH2 0x1B98 DUP7 DUP7 DUP5 PUSH2 0x1A11 JUMP JUMPDEST JUMPDEST DUP4 DUP4 SLT ISZERO PUSH2 0x1BAD JUMPI PUSH2 0x1BAC DUP7 DUP5 DUP7 PUSH2 0x1A11 JUMP JUMPDEST JUMPDEST POP POP POP JUMPDEST POP POP POP JUMP JUMPDEST PUSH1 0x0 DUP2 MLOAD SWAP1 POP SWAP2 SWAP1 POP JUMP JUMPDEST PUSH1 0x0 DUP3 DUP3 MSTORE PUSH1 0x20 DUP3 ADD SWAP1 POP SWAP3 SWAP2 POP POP JUMP JUMPDEST PUSH1 0x0 DUP2 SWAP1 POP PUSH1 0x20 DUP3 ADD SWAP1 POP SWAP2 SWAP1 POP JUMP JUMPDEST PUSH1 0x0 DUP2 SWAP1 POP SWAP2 SWAP1 POP JUMP JUMPDEST PUSH2 0x1BF5 DUP2 PUSH2 0x1BE2 JUMP JUMPDEST DUP3 MSTORE POP POP JUMP JUMPDEST PUSH1 0x0 PUSH2 0x1C07 DUP4 DUP4 PUSH2 0x1BEC JUMP JUMPDEST PUSH1 0x20 DUP4 ADD SWAP1 POP SWAP3 SWAP2 POP POP JUMP JUMPDEST PUSH1 0x0 PUSH1 0x20 DUP3 ADD SWAP1 POP SWAP2 SWAP1 POP JUMP JUMPDEST PUSH1 0x0 PUSH2 0x1C2B DUP3 PUSH2 0x1BB6 JUMP JUMPDEST PUSH2 0x1C35 DUP2 DUP6 PUSH2 0x1BC1 JUMP JUMPDEST SWAP4 POP PUSH2 0x1C40 DUP4 PUSH2 0x1BD2 JUMP JUMPDEST DUP1 PUSH1 0x0 JUMPDEST DUP4 DUP2 LT ISZERO PUSH2 0x1C71 JUMPI DUP2 MLOAD PUSH2 0x1C58 DUP9 DUP3 PUSH2 0x1BFB JUMP JUMPDEST SWAP8 POP PUSH2 0x1C63 DUP4 PUSH2 0x1C13 JUMP JUMPDEST SWAP3 POP POP PUSH1 0x1 DUP2 ADD SWAP1 POP PUSH2 0x1C44 JUMP JUMPDEST POP DUP6 SWAP4 POP POP POP POP SWAP3 SWAP2 POP POP JUMP JUMPDEST PUSH1 0x0 PUSH1 0x20 DUP3 ADD SWAP1 POP DUP2 DUP2 SUB PUSH1 0x0 DUP4 ADD MSTORE PUSH2 0x1C98 DUP2 DUP5 PUSH2 0x1C20 JUMP JUMPDEST SWAP1 POP SWAP3 SWAP2 POP POP JUMP JUMPDEST PUSH1 0x0 DUP1 REVERT JUMPDEST PUSH2 0x1CAE DUP2 PUSH2 0x1BE2 JUMP JUMPDEST DUP2 EQ PUSH2 0x1CB9 JUMPI PUSH1 0x0 DUP1 REVERT JUMPDEST POP JUMP JUMPDEST PUSH1 0x0 DUP2 CALLDATALOAD SWAP1 POP PUSH2 0x1CCB DUP2 PUSH2 0x1CA5 JUMP JUMPDEST SWAP3 SWAP2 POP POP JUMP JUMPDEST PUSH1 0x0 PUSH1 0x20 DUP3 DUP5 SUB SLT ISZERO PUSH2 0x1CE7 JUMPI PUSH2 0x1CE6 PUSH2 0x1CA0 JUMP JUMPDEST JUMPDEST PUSH1 0x0 PUSH2 0x1CF5 DUP5 DUP3 DUP6 ADD PUSH2 0x1CBC JUMP JUMPDEST SWAP2 POP POP SWAP3 SWAP2 POP POP JUMP JUMPDEST PUSH2 0x1D07 DUP2 PUSH2 0x1BE2 JUMP JUMPDEST DUP3 MSTORE POP POP JUMP JUMPDEST PUSH1 0x0 PUSH1 0x20 DUP3 ADD SWAP1 POP PUSH2 0x1D22 PUSH1 0x0 DUP4 ADD DUP5 PUSH2 0x1CFE JUMP JUMPDEST SWAP3 SWAP2 POP POP JUMP JUMPDEST PUSH1 0x0 DUP2 MLOAD SWAP1 POP SWAP2 SWAP1 POP JUMP JUMPDEST PUSH1 0x0 DUP3 DUP3 MSTORE PUSH1 0x20 DUP3 ADD SWAP1 POP SWAP3 SWAP2 POP POP JUMP JUMPDEST PUSH1 0x0 DUP2 SWAP1 POP PUSH1 0x20 DUP3 ADD SWAP1 POP SWAP2 SWAP1 POP JUMP JUMPDEST PUSH1 0x0 PUSH20 0xFFFFFFFFFFFFFFFFFFFFFFFFFFFFFFFFFFFFFFFF DUP3 AND SWAP1 POP SWAP2 SWAP1 POP JUMP JUMPDEST PUSH1 0x0 PUSH2 0x1D7F DUP3 PUSH2 0x1D54 JUMP JUMPDEST SWAP1 POP SWAP2 SWAP1 POP JUMP JUMPDEST PUSH2 0x1D8F DUP2 PUSH2 0x1D74 JUMP JUMPDEST DUP3 MSTORE POP POP JUMP JUMPDEST PUSH32 0x4E487B7100000000000000000000000000000000000000000000000000000000 PUSH1 0x0 MSTORE PUSH1 0x21 PUSH1 0x4 MSTORE PUSH1 0x24 PUSH1 0x0 REVERT JUMPDEST PUSH1 0x2 DUP2 LT PUSH2 0x1DD5 JUMPI PUSH2 0x1DD4 PUSH2 0x1D95 JUMP JUMPDEST JUMPDEST POP JUMP JUMPDEST PUSH1 0x0 DUP2 SWAP1 POP PUSH2 0x1DE6 DUP3 PUSH2 0x1DC4 JUMP JUMPDEST SWAP2 SWAP1 POP JUMP JUMPDEST PUSH1 0x0 PUSH2 0x1DF6 DUP3 PUSH2 0x1DD8 JUMP JUMPDEST SWAP1 POP SWAP2 SWAP1 POP JUMP JUMPDEST PUSH2 0x1E06 DUP2 PUSH2 0x1DEB JUMP JUMPDEST DUP3 MSTORE POP POP JUMP JUMPDEST PUSH1 0x80 DUP3 ADD PUSH1 0x0 DUP3 ADD MLOAD PUSH2 0x1E22 PUSH1 0x0 DUP6 ADD DUP3 PUSH2 0x1D86 JUMP JUMPDEST POP PUSH1 0x20 DUP3 ADD MLOAD PUSH2 0x1E35 PUSH1 0x20 DUP6 ADD DUP3 PUSH2 0x1BEC JUMP JUMPDEST POP PUSH1 0x40 DUP3 ADD MLOAD PUSH2 0x1E48 PUSH1 0x40 DUP6 ADD DUP3 PUSH2 0x1BEC JUMP JUMPDEST POP PUSH1 0x60 DUP3 ADD MLOAD PUSH2 0x1E5B PUSH1 0x60 DUP6 ADD DUP3 PUSH2 0x1DFD JUMP JUMPDEST POP POP POP POP JUMP JUMPDEST PUSH1 0x0 PUSH2 0x1E6D DUP4 DUP4 PUSH2 0x1E0C JUMP JUMPDEST PUSH1 0x80 DUP4 ADD SWAP1 POP SWAP3 SWAP2 POP POP JUMP JUMPDEST PUSH1 0x0 PUSH1 0x20 DUP3 ADD SWAP1 POP SWAP2 SWAP1 POP JUMP JUMPDEST PUSH1 0x0 PUSH2 0x1E91 DUP3 PUSH2 0x1D28 JUMP JUMPDEST PUSH2 0x1E9B DUP2 DUP6 PUSH2 0x1D33 JUMP JUMPDEST SWAP4 POP PUSH2 0x1EA6 DUP4 PUSH2 0x1D44 JUMP JUMPDEST DUP1 PUSH1 0x0 JUMPDEST DUP4 DUP2 LT ISZERO PUSH2 0x1ED7 JUMPI DUP2 MLOAD PUSH2 0x1EBE DUP9 DUP3 PUSH2 0x1E61 JUMP JUMPDEST SWAP8 POP PUSH2 0x1EC9 DUP4 PUSH2 0x1E79 JUMP JUMPDEST SWAP3 POP POP PUSH1 0x1 DUP2 ADD SWAP1 POP PUSH2 0x1EAA JUMP JUMPDEST POP DUP6 SWAP4 POP POP POP POP SWAP3 SWAP2 POP POP JUMP JUMPDEST PUSH1 0x0 PUSH1 0x20 DUP3 ADD SWAP1 POP DUP2 DUP2 SUB PUSH1 0x0 DUP4 ADD MSTORE PUSH2 0x1EFE DUP2 DUP5 PUSH2 0x1E86 JUMP JUMPDEST SWAP1 POP SWAP3 SWAP2 POP POP JUMP JUMPDEST PUSH2 0x1F0F DUP2 PUSH2 0x1DEB JUMP JUMPDEST DUP3 MSTORE POP POP JUMP JUMPDEST PUSH1 0x0 PUSH1 0x20 DUP3 ADD SWAP1 POP PUSH2 0x1F2A PUSH1 0x0 DUP4 ADD DUP5 PUSH2 0x1F06 JUMP JUMPDEST SWAP3 SWAP2 POP POP JUMP JUMPDEST PUSH2 0x1F39 DUP2 PUSH2 0x1D74 JUMP JUMPDEST DUP3 MSTORE POP POP JUMP JUMPDEST PUSH1 0x0 PUSH1 0x20 DUP3 ADD SWAP1 POP PUSH2 0x1F54 PUSH1 0x0 DUP4 ADD DUP5 PUSH2 0x1F30 JUMP JUMPDEST SWAP3 SWAP2 POP POP JUMP JUMPDEST PUSH32 0x4E487B7100000000000000000000000000000000000000000000000000000000 PUSH1 0x0 MSTORE PUSH1 0x32 PUSH1 0x4 MSTORE PUSH1 0x24 PUSH1 0x0 REVERT JUMPDEST PUSH32 0x4E487B7100000000000000000000000000000000000000000000000000000000 PUSH1 0x0 MSTORE PUSH1 0x11 PUSH1 0x4 MSTORE PUSH1 0x24 PUSH1 0x0 REVERT JUMPDEST PUSH1 0x0 PUSH2 0x1FC3 DUP3 PUSH2 0x1BE2 JUMP JUMPDEST SWAP2 POP PUSH32 0xFFFFFFFFFFFFFFFFFFFFFFFFFFFFFFFFFFFFFFFFFFFFFFFFFFFFFFFFFFFFFFFF DUP3 SUB PUSH2 0x1FF5 JUMPI PUSH2 0x1FF4 PUSH2 0x1F89 JUMP JUMPDEST JUMPDEST PUSH1 0x1 DUP3 ADD SWAP1 POP SWAP2 SWAP1 POP JUMP JUMPDEST PUSH1 0x0 DUP3 DUP3 MSTORE PUSH1 0x20 DUP3 ADD SWAP1 POP SWAP3 SWAP2 POP POP JUMP JUMPDEST PUSH32 0x4F726465722050656E64696E6700000000000000000000000000000000000000 PUSH1 0x0 DUP3 ADD MSTORE POP JUMP JUMPDEST PUSH1 0x0 PUSH2 0x2047 PUSH1 0xD DUP4 PUSH2 0x2000 JUMP JUMPDEST SWAP2 POP PUSH2 0x2052 DUP3 PUSH2 0x2011 JUMP JUMPDEST PUSH1 0x20 DUP3 ADD SWAP1 POP SWAP2 SWAP1 POP JUMP JUMPDEST PUSH1 0x0 PUSH1 0x20 DUP3 ADD SWAP1 POP DUP2 DUP2 SUB PUSH1 0x0 DUP4 ADD MSTORE PUSH2 0x2076 DUP2 PUSH2 0x203A JUMP JUMPDEST SWAP1 POP SWAP2 SWAP1 POP JUMP JUMPDEST PUSH32 0x4E6F7420417574686F7269736564000000000000000000000000000000000000 PUSH1 0x0 DUP3 ADD MSTORE POP JUMP JUMPDEST PUSH1 0x0 PUSH2 0x20B3 PUSH1 0xE DUP4 PUSH2 0x2000 JUMP JUMPDEST SWAP2 POP PUSH2 0x20BE DUP3 PUSH2 0x207D JUMP JUMPDEST PUSH1 0x20 DUP3 ADD SWAP1 POP SWAP2 SWAP1 POP JUMP JUMPDEST PUSH1 0x0 PUSH1 0x20 DUP3 ADD SWAP1 POP DUP2 DUP2 SUB PUSH1 0x0 DUP4 ADD MSTORE PUSH2 0x20E2 DUP2 PUSH2 0x20A6 JUMP JUMPDEST SWAP1 POP SWAP2 SWAP1 POP JUMP JUMPDEST PUSH32 0x70726963652076616C7565206D757374206265206D6F7265207468616E203000 PUSH1 0x0 DUP3 ADD MSTORE POP JUMP JUMPDEST PUSH1 0x0 PUSH2 0x211F PUSH1 0x1F DUP4 PUSH2 0x2000 JUMP JUMPDEST SWAP2 POP PUSH2 0x212A DUP3 PUSH2 0x20E9 JUMP JUMPDEST PUSH1 0x20 DUP3 ADD SWAP1 POP SWAP2 SWAP1 POP JUMP JUMPDEST PUSH1 0x0 PUSH1 0x20 DUP3 ADD SWAP1 POP DUP2 DUP2 SUB PUSH1 0x0 DUP4 ADD MSTORE PUSH2 0x214E DUP2 PUSH2 0x2112 JUMP JUMPDEST SWAP1 POP SWAP2 SWAP1 POP JUMP JUMPDEST PUSH32 0x4E6F7420656E6F75676820626C616E636520746F20706C6163652061736B0000 PUSH1 0x0 DUP3 ADD MSTORE POP JUMP JUMPDEST PUSH1 0x0 PUSH2 0x218B PUSH1 0x1E DUP4 PUSH2 0x2000 JUMP JUMPDEST SWAP2 POP PUSH2 0x2196 DUP3 PUSH2 0x2155 JUMP JUMPDEST PUSH1 0x20 DUP3 ADD SWAP1 POP SWAP2 SWAP1 POP JUMP JUMPDEST PUSH1 0x0 PUSH1 0x20 DUP3 ADD SWAP1 POP DUP2 DUP2 SUB PUSH1 0x0 DUP4 ADD MSTORE PUSH2 0x21BA DUP2 PUSH2 0x217E JUMP JUMPDEST SWAP1 POP SWAP2 SWAP1 POP JUMP JUMPDEST PUSH1 0x0 PUSH2 0x21CC DUP3 PUSH2 0x1BE2 JUMP JUMPDEST SWAP2 POP PUSH2 0x21D7 DUP4 PUSH2 0x1BE2 JUMP JUMPDEST SWAP3 POP DUP3 DUP3 LT ISZERO PUSH2 0x21EA JUMPI PUSH2 0x21E9 PUSH2 0x1F89 JUMP JUMPDEST JUMPDEST DUP3 DUP3 SUB SWAP1 POP SWAP3 SWAP2 POP POP JUMP JUMPDEST PUSH1 0x0 PUSH2 0x2200 DUP3 PUSH2 0x1BE2 JUMP JUMPDEST SWAP2 POP PUSH2 0x220B DUP4 PUSH2 0x1BE2 JUMP JUMPDEST SWAP3 POP DUP2 PUSH32 0xFFFFFFFFFFFFFFFFFFFFFFFFFFFFFFFFFFFFFFFFFFFFFFFFFFFFFFFFFFFFFFFF DIV DUP4 GT DUP3 ISZERO ISZERO AND ISZERO PUSH2 0x2244 JUMPI PUSH2 0x2243 PUSH2 0x1F89 JUMP JUMPDEST JUMPDEST DUP3 DUP3 MUL SWAP1 POP SWAP3 SWAP2 POP POP JUMP JUMPDEST PUSH32 0x4E487B7100000000000000000000000000000000000000000000000000000000 PUSH1 0x0 MSTORE PUSH1 0x12 PUSH1 0x4 MSTORE PUSH1 0x24 PUSH1 0x0 REVERT JUMPDEST PUSH1 0x0 PUSH2 0x2289 DUP3 PUSH2 0x1BE2 JUMP JUMPDEST SWAP2 POP PUSH2 0x2294 DUP4 PUSH2 0x1BE2 JUMP JUMPDEST SWAP3 POP DUP3 PUSH2 0x22A4 JUMPI PUSH2 0x22A3 PUSH2 0x224F JUMP JUMPDEST JUMPDEST DUP3 DUP3 DIV SWAP1 POP SWAP3 SWAP2 POP POP JUMP JUMPDEST PUSH1 0x0 PUSH2 0x22BA DUP3 PUSH2 0x1D54 JUMP JUMPDEST SWAP1 POP SWAP2 SWAP1 POP JUMP JUMPDEST PUSH2 0x22CA DUP2 PUSH2 0x22AF JUMP JUMPDEST DUP3 MSTORE POP POP JUMP JUMPDEST PUSH1 0x0 PUSH1 0x80 DUP3 ADD SWAP1 POP PUSH2 0x22E5 PUSH1 0x0 DUP4 ADD DUP8 PUSH2 0x22C1 JUMP JUMPDEST PUSH2 0x22F2 PUSH1 0x20 DUP4 ADD DUP7 PUSH2 0x1CFE JUMP JUMPDEST PUSH2 0x22FF PUSH1 0x40 DUP4 ADD DUP6 PUSH2 0x1CFE JUMP JUMPDEST PUSH2 0x230C PUSH1 0x60 DUP4 ADD DUP5 PUSH2 0x1F06 JUMP JUMPDEST SWAP6 SWAP5 POP POP POP POP POP JUMP JUMPDEST PUSH32 0x4E6F7420656E6F75676820626C616E636520746F20706C616365206269640000 PUSH1 0x0 DUP3 ADD MSTORE POP JUMP JUMPDEST PUSH1 0x0 PUSH2 0x234B PUSH1 0x1E DUP4 PUSH2 0x2000 JUMP JUMPDEST SWAP2 POP PUSH2 0x2356 DUP3 PUSH2 0x2315 JUMP JUMPDEST PUSH1 0x20 DUP3 ADD SWAP1 POP SWAP2 SWAP1 POP JUMP JUMPDEST PUSH1 0x0 PUSH1 0x20 DUP3 ADD SWAP1 POP DUP2 DUP2 SUB PUSH1 0x0 DUP4 ADD MSTORE PUSH2 0x237A DUP2 PUSH2 0x233E JUMP JUMPDEST SWAP1 POP SWAP2 SWAP1 POP JUMP JUMPDEST PUSH1 0x0 DUP2 SWAP1 POP SWAP2 SWAP1 POP JUMP JUMPDEST PUSH1 0x0 PUSH2 0x2396 DUP3 PUSH2 0x2381 JUMP JUMPDEST SWAP2 POP PUSH2 0x23A1 DUP4 PUSH2 0x2381 JUMP JUMPDEST SWAP3 POP DUP3 PUSH32 0x8000000000000000000000000000000000000000000000000000000000000000 ADD DUP3 SLT PUSH1 0x0 DUP5 SLT ISZERO AND ISZERO PUSH2 0x23DC JUMPI PUSH2 0x23DB PUSH2 0x1F89 JUMP JUMPDEST JUMPDEST DUP3 PUSH32 0x7FFFFFFFFFFFFFFFFFFFFFFFFFFFFFFFFFFFFFFFFFFFFFFFFFFFFFFFFFFFFFFF ADD DUP3 SGT PUSH1 0x0 DUP5 SLT AND ISZERO PUSH2 0x2414 JUMPI PUSH2 0x2413 PUSH2 0x1F89 JUMP JUMPDEST JUMPDEST DUP3 DUP3 SUB SWAP1 POP SWAP3 SWAP2 POP POP JUMP JUMPDEST PUSH1 0x0 PUSH2 0x242A DUP3 PUSH2 0x2381 JUMP JUMPDEST SWAP2 POP PUSH2 0x2435 DUP4 PUSH2 0x2381 JUMP JUMPDEST SWAP3 POP DUP3 PUSH2 0x2445 JUMPI PUSH2 0x2444 PUSH2 0x224F JUMP JUMPDEST JUMPDEST PUSH1 0x1 PUSH1 0x0 SUB DUP4 EQ PUSH32 0x8000000000000000000000000000000000000000000000000000000000000000 DUP4 EQ AND ISZERO PUSH2 0x247E JUMPI PUSH2 0x247D PUSH2 0x1F89 JUMP JUMPDEST JUMPDEST DUP3 DUP3 SDIV SWAP1 POP SWAP3 SWAP2 POP POP JUMP JUMPDEST PUSH1 0x0 PUSH2 0x2494 DUP3 PUSH2 0x2381 JUMP JUMPDEST SWAP2 POP PUSH2 0x249F DUP4 PUSH2 0x2381 JUMP JUMPDEST SWAP3 POP DUP2 PUSH32 0x7FFFFFFFFFFFFFFFFFFFFFFFFFFFFFFFFFFFFFFFFFFFFFFFFFFFFFFFFFFFFFFF SUB DUP4 SGT PUSH1 0x0 DUP4 SLT ISZERO AND ISZERO PUSH2 0x24DA JUMPI PUSH2 0x24D9 PUSH2 0x1F89 JUMP JUMPDEST JUMPDEST DUP2 PUSH32 0x8000000000000000000000000000000000000000000000000000000000000000 SUB DUP4 SLT PUSH1 0x0 DUP4 SLT AND ISZERO PUSH2 0x2512 JUMPI PUSH2 0x2511 PUSH2 0x1F89 JUMP JUMPDEST JUMPDEST DUP3 DUP3 ADD SWAP1 POP SWAP3 SWAP2 POP POP JUMP JUMPDEST PUSH1 0x0 PUSH2 0x2528 DUP3 PUSH2 0x2381 JUMP JUMPDEST SWAP2 POP PUSH32 0x7FFFFFFFFFFFFFFFFFFFFFFFFFFFFFFFFFFFFFFFFFFFFFFFFFFFFFFFFFFFFFFF DUP3 SUB PUSH2 0x255A JUMPI PUSH2 0x2559 PUSH2 0x1F89 JUMP JUMPDEST JUMPDEST PUSH1 0x1 DUP3 ADD SWAP1 POP SWAP2 SWAP1 POP JUMP JUMPDEST PUSH1 0x0 PUSH2 0x2570 DUP3 PUSH2 0x2381 JUMP JUMPDEST SWAP2 POP PUSH32 0x8000000000000000000000000000000000000000000000000000000000000000 DUP3 SUB PUSH2 0x25A2 JUMPI PUSH2 0x25A1 PUSH2 0x1F89 JUMP JUMPDEST JUMPDEST PUSH1 0x1 DUP3 SUB SWAP1 POP SWAP2 SWAP1 POP JUMP INVALID LOG2 PUSH5 0x6970667358 0x22 SLT KECCAK256 DUP2 0xC9 SUB KECCAK256 MUL DIV CREATE RETURNDATACOPY 0xE 0xF8 0xAE 0x2F ADDRESS SUB DIV LOG0 0xA9 0x4B 0xAD DUP5 0xC1 PUSH3 0x1C4F72 SWAP9 0xCB SWAP9 0x2B DUP6 CODESIZE 0xAC PUSH5 0x736F6C6343 STOP ADDMOD 0xD STOP CALLER "
				},
				"gasEstimates": {
					"creation": {
						"codeDepositCost": "1939800",
						"executionCost": "infinite",
						"totalCost": "infinite"
					},
					"external": {
						"cancelAsk(uint256)": "infinite",
						"cancelBid(uint256)": "infinite",
						"fetchAllAsk()": "infinite",
						"fetchAllBid()": "infinite",
						"fetchYourAskIds()": "infinite",
						"fetchYourBidIds()": "infinite",
						"getAskAddress(uint256)": "5073",
						"getAskState(uint256)": "5075",
						"getAskValue(uint256)": "infinite",
						"getBidAddress(uint256)": "5051",
						"getBidState(uint256)": "5052",
						"getBidValue(uint256)": "infinite",
						"placeAsk(uint256)": "infinite",
						"placeBid(uint256)": "infinite"
					},
					"internal": {
						"ascendingQuickSort(struct OrderBook.order memory[] memory,int256,int256)": "infinite",
						"deleteArray()": "infinite",
						"descendingQuickSort(struct OrderBook.order memory[] memory,int256,int256)": "infinite",
						"sortAsk()": "infinite",
						"sortBid()": "infinite"
					}
				},
				"methodIdentifiers": {
					"cancelAsk(uint256)": "1628e0f5",
					"cancelBid(uint256)": "9703ef35",
					"fetchAllAsk()": "c5374af2",
					"fetchAllBid()": "4471417f",
					"fetchYourAskIds()": "122de8f2",
					"fetchYourBidIds()": "ce0cdc87",
					"getAskAddress(uint256)": "734a2e78",
					"getAskState(uint256)": "4d46712d",
					"getAskValue(uint256)": "db3a1396",
					"getBidAddress(uint256)": "69f632e2",
					"getBidState(uint256)": "bf77ffae",
					"getBidValue(uint256)": "2db6dfa7",
					"placeAsk(uint256)": "78c5b268",
					"placeBid(uint256)": "9979ef45"
				}
			},
			"storageLayout": {
				"storage": [
					{
						"astId": 11,
						"contract": "contracts/OrderBook.sol:OrderBook",
						"label": "_owner",
						"offset": 0,
						"slot": "0",
						"type": "t_address_payable"
					},
					{
						"astId": 13,
						"contract": "contracts/OrderBook.sol:OrderBook",
						"label": "commission",
						"offset": 0,
						"slot": "1",
						"type": "t_uint256"
					},
					{
						"astId": 37,
						"contract": "contracts/OrderBook.sol:OrderBook",
						"label": "bidBook",
						"offset": 0,
						"slot": "2",
						"type": "t_array(t_struct(order)33_storage)dyn_storage"
					},
					{
						"astId": 41,
						"contract": "contracts/OrderBook.sol:OrderBook",
						"label": "askBook",
						"offset": 0,
						"slot": "3",
						"type": "t_array(t_struct(order)33_storage)dyn_storage"
					},
					{
						"astId": 44,
						"contract": "contracts/OrderBook.sol:OrderBook",
						"label": "request",
						"offset": 0,
						"slot": "4",
						"type": "t_array(t_uint256)dyn_storage"
					}
				],
				"types": {
					"t_address_payable": {
						"encoding": "inplace",
						"label": "address payable",
						"numberOfBytes": "20"
					},
					"t_array(t_struct(order)33_storage)dyn_storage": {
						"base": "t_struct(order)33_storage",
						"encoding": "dynamic_array",
						"label": "struct OrderBook.order[]",
						"numberOfBytes": "32"
					},
					"t_array(t_uint256)dyn_storage": {
						"base": "t_uint256",
						"encoding": "dynamic_array",
						"label": "uint256[]",
						"numberOfBytes": "32"
					},
					"t_enum(State)4": {
						"encoding": "inplace",
						"label": "enum OrderBook.State",
						"numberOfBytes": "1"
					},
					"t_struct(order)33_storage": {
						"encoding": "inplace",
						"label": "struct OrderBook.order",
						"members": [
							{
								"astId": 25,
								"contract": "contracts/OrderBook.sol:OrderBook",
								"label": "customer",
								"offset": 0,
								"slot": "0",
								"type": "t_address_payable"
							},
							{
								"astId": 27,
								"contract": "contracts/OrderBook.sol:OrderBook",
								"label": "value",
								"offset": 0,
								"slot": "1",
								"type": "t_uint256"
							},
							{
								"astId": 29,
								"contract": "contracts/OrderBook.sol:OrderBook",
								"label": "timestamp",
								"offset": 0,
								"slot": "2",
								"type": "t_uint256"
							},
							{
								"astId": 32,
								"contract": "contracts/OrderBook.sol:OrderBook",
								"label": "state",
								"offset": 0,
								"slot": "3",
								"type": "t_enum(State)4"
							}
						],
						"numberOfBytes": "128"
					},
					"t_uint256": {
						"encoding": "inplace",
						"label": "uint256",
						"numberOfBytes": "32"
					}
				}
			},
			"userdoc": {
				"kind": "user",
				"methods": {},
				"version": 1
			}
		}
	}
}