{
	"contracts/OrderBook.sol": {
		"OrderBook": {
			"abi": [
				{
					"inputs": [
						{
							"internalType": "uint256",
							"name": "askId",
							"type": "uint256"
						}
					],
					"name": "cancelAsk",
					"outputs": [],
					"stateMutability": "nonpayable",
					"type": "function"
				},
				{
					"inputs": [
						{
							"internalType": "uint256",
							"name": "bidId",
							"type": "uint256"
						}
					],
					"name": "cancelBid",
					"outputs": [],
					"stateMutability": "nonpayable",
					"type": "function"
				},
				{
					"inputs": [],
					"name": "fetchYourBid",
					"outputs": [
						{
							"internalType": "uint256",
							"name": "",
							"type": "uint256"
						}
					],
					"stateMutability": "view",
					"type": "function"
				},
				{
					"inputs": [
						{
							"internalType": "uint256",
							"name": "price",
							"type": "uint256"
						}
					],
					"name": "placeAsk",
					"outputs": [],
					"stateMutability": "nonpayable",
					"type": "function"
				},
				{
					"inputs": [
						{
							"internalType": "uint256",
							"name": "price",
							"type": "uint256"
						}
					],
					"name": "placeBid",
					"outputs": [],
					"stateMutability": "nonpayable",
					"type": "function"
				}
			],
			"devdoc": {
				"kind": "dev",
				"methods": {},
				"version": 1
			},
			"evm": {
				"assembly": "    /* \"contracts/OrderBook.sol\":730:3421  contract OrderBook {... */\n  mstore(0x40, 0x80)\n  callvalue\n  dup1\n  iszero\n  tag_1\n  jumpi\n  0x00\n  dup1\n  revert\ntag_1:\n  pop\n  dataSize(sub_0)\n  dup1\n  dataOffset(sub_0)\n  0x00\n  codecopy\n  0x00\n  return\nstop\n\nsub_0: assembly {\n        /* \"contracts/OrderBook.sol\":730:3421  contract OrderBook {... */\n      mstore(0x40, 0x80)\n      callvalue\n      dup1\n      iszero\n      tag_1\n      jumpi\n      0x00\n      dup1\n      revert\n    tag_1:\n      pop\n      jumpi(tag_2, lt(calldatasize, 0x04))\n      shr(0xe0, calldataload(0x00))\n      dup1\n      0x1628e0f5\n      eq\n      tag_3\n      jumpi\n      dup1\n      0x492ac800\n      eq\n      tag_4\n      jumpi\n      dup1\n      0x78c5b268\n      eq\n      tag_5\n      jumpi\n      dup1\n      0x9703ef35\n      eq\n      tag_6\n      jumpi\n      dup1\n      0x9979ef45\n      eq\n      tag_7\n      jumpi\n    tag_2:\n      0x00\n      dup1\n      revert\n        /* \"contracts/OrderBook.sol\":3039:3144  function cancelAsk (uint256 askId) public {... */\n    tag_3:\n      tag_8\n      0x04\n      dup1\n      calldatasize\n      sub\n      dup2\n      add\n      swap1\n      tag_9\n      swap2\n      swap1\n      tag_10\n      jump\t// in\n    tag_9:\n      tag_11\n      jump\t// in\n    tag_8:\n      stop\n        /* \"contracts/OrderBook.sol\":3230:3300  function fetchYourBid() public view returns (uint256) {... */\n    tag_4:\n      tag_12\n      tag_13\n      jump\t// in\n    tag_12:\n      mload(0x40)\n      tag_14\n      swap2\n      swap1\n      tag_15\n      jump\t// in\n    tag_14:\n      mload(0x40)\n      dup1\n      swap2\n      sub\n      swap1\n      return\n        /* \"contracts/OrderBook.sol\":2875:3033  function placeAsk (uint256 price) public {... */\n    tag_5:\n      tag_16\n      0x04\n      dup1\n      calldatasize\n      sub\n      dup2\n      add\n      swap1\n      tag_17\n      swap2\n      swap1\n      tag_10\n      jump\t// in\n    tag_17:\n      tag_18\n      jump\t// in\n    tag_16:\n      stop\n        /* \"contracts/OrderBook.sol\":2770:2869  function cancelBid (uint256 bidId) public {... */\n    tag_6:\n      tag_19\n      0x04\n      dup1\n      calldatasize\n      sub\n      dup2\n      add\n      swap1\n      tag_20\n      swap2\n      swap1\n      tag_10\n      jump\t// in\n    tag_20:\n      tag_21\n      jump\t// in\n    tag_19:\n      stop\n        /* \"contracts/OrderBook.sol\":2583:2741  function placeBid (uint256 price) public {... */\n    tag_7:\n      tag_22\n      0x04\n      dup1\n      calldatasize\n      sub\n      dup2\n      add\n      swap1\n      tag_23\n      swap2\n      swap1\n      tag_10\n      jump\t// in\n    tag_23:\n      tag_24\n      jump\t// in\n    tag_22:\n      stop\n        /* \"contracts/OrderBook.sol\":3039:3144  function cancelAsk (uint256 askId) public {... */\n    tag_11:\n        /* \"contracts/OrderBook.sol\":3098:3105  askBook */\n      0x01\n        /* \"contracts/OrderBook.sol\":3106:3111  askId */\n      dup2\n        /* \"contracts/OrderBook.sol\":3098:3112  askBook[askId] */\n      dup2\n      sload\n      dup2\n      lt\n      tag_26\n      jumpi\n      tag_27\n      tag_28\n      jump\t// in\n    tag_27:\n    tag_26:\n      swap1\n      0x00\n      mstore\n      keccak256(0x00, 0x20)\n      swap1\n      0x03\n      mul\n      add\n      0x00\n        /* \"contracts/OrderBook.sol\":3091:3112  delete askBook[askId] */\n      dup1\n      dup3\n      add\n      exp(0x0100, 0x00)\n      dup2\n      sload\n      swap1\n      0xffffffffffffffffffffffffffffffffffffffff\n      mul\n      not\n      and\n      swap1\n      sstore\n      0x01\n      dup3\n      add\n      0x00\n      swap1\n      sstore\n      0x02\n      dup3\n      add\n      0x00\n      swap1\n      sstore\n      pop\n      pop\n        /* \"contracts/OrderBook.sol\":3122:3131  sortAsk() */\n      tag_30\n        /* \"contracts/OrderBook.sol\":3122:3129  sortAsk */\n      tag_31\n        /* \"contracts/OrderBook.sol\":3122:3131  sortAsk() */\n      jump\t// in\n    tag_30:\n        /* \"contracts/OrderBook.sol\":3039:3144  function cancelAsk (uint256 askId) public {... */\n      pop\n      jump\t// out\n        /* \"contracts/OrderBook.sol\":3230:3300  function fetchYourBid() public view returns (uint256) {... */\n    tag_13:\n        /* \"contracts/OrderBook.sol\":3275:3282  uint256 */\n      0x00\n        /* \"contracts/OrderBook.sol\":3230:3300  function fetchYourBid() public view returns (uint256) {... */\n      swap1\n      jump\t// out\n        /* \"contracts/OrderBook.sol\":2875:3033  function placeAsk (uint256 price) public {... */\n    tag_18:\n        /* \"contracts/OrderBook.sol\":2926:2945  order memory newBid */\n      0x00\n        /* \"contracts/OrderBook.sol\":2948:2996  order(payable(msg.sender),price,block.timestamp) */\n      mload(0x40)\n      dup1\n      0x60\n      add\n      0x40\n      mstore\n      dup1\n        /* \"contracts/OrderBook.sol\":2962:2972  msg.sender */\n      caller\n        /* \"contracts/OrderBook.sol\":2948:2996  order(payable(msg.sender),price,block.timestamp) */\n      0xffffffffffffffffffffffffffffffffffffffff\n      and\n      dup2\n      mstore\n      0x20\n      add\n        /* \"contracts/OrderBook.sol\":2974:2979  price */\n      dup4\n        /* \"contracts/OrderBook.sol\":2948:2996  order(payable(msg.sender),price,block.timestamp) */\n      dup2\n      mstore\n      0x20\n      add\n        /* \"contracts/OrderBook.sol\":2980:2995  block.timestamp */\n      timestamp\n        /* \"contracts/OrderBook.sol\":2948:2996  order(payable(msg.sender),price,block.timestamp) */\n      dup2\n      mstore\n      pop\n        /* \"contracts/OrderBook.sol\":2926:2996  order memory newBid = order(payable(msg.sender),price,block.timestamp) */\n      swap1\n      pop\n        /* \"contracts/OrderBook.sol\":3006:3013  askBook */\n      0x01\n        /* \"contracts/OrderBook.sol\":3019:3025  newBid */\n      dup2\n        /* \"contracts/OrderBook.sol\":3006:3026  askBook.push(newBid) */\n      swap1\n      dup1\n      0x01\n      dup2\n      sload\n      add\n      dup1\n      dup3\n      sstore\n      dup1\n      swap2\n      pop\n      pop\n      0x01\n      swap1\n      sub\n      swap1\n      0x00\n      mstore\n      keccak256(0x00, 0x20)\n      swap1\n      0x03\n      mul\n      add\n      0x00\n      swap1\n      swap2\n      swap1\n      swap2\n      swap1\n      swap2\n      pop\n      0x00\n      dup3\n      add\n      mload\n      dup2\n      0x00\n      add\n      exp(0x0100, 0x00)\n      dup2\n      sload\n      dup2\n      0xffffffffffffffffffffffffffffffffffffffff\n      mul\n      not\n      and\n      swap1\n      dup4\n      0xffffffffffffffffffffffffffffffffffffffff\n      and\n      mul\n      or\n      swap1\n      sstore\n      pop\n      0x20\n      dup3\n      add\n      mload\n      dup2\n      0x01\n      add\n      sstore\n      0x40\n      dup3\n      add\n      mload\n      dup2\n      0x02\n      add\n      sstore\n      pop\n      pop\n        /* \"contracts/OrderBook.sol\":2916:3033  {... */\n      pop\n        /* \"contracts/OrderBook.sol\":2875:3033  function placeAsk (uint256 price) public {... */\n      pop\n      jump\t// out\n        /* \"contracts/OrderBook.sol\":2770:2869  function cancelBid (uint256 bidId) public {... */\n    tag_21:\n        /* \"contracts/OrderBook.sol\":2829:2836  bidBook */\n      0x00\n        /* \"contracts/OrderBook.sol\":2837:2842  bidId */\n      dup2\n        /* \"contracts/OrderBook.sol\":2829:2843  bidBook[bidId] */\n      dup2\n      sload\n      dup2\n      lt\n      tag_36\n      jumpi\n      tag_37\n      tag_28\n      jump\t// in\n    tag_37:\n    tag_36:\n      swap1\n      0x00\n      mstore\n      keccak256(0x00, 0x20)\n      swap1\n      0x03\n      mul\n      add\n      0x00\n        /* \"contracts/OrderBook.sol\":2822:2843  delete bidBook[bidId] */\n      dup1\n      dup3\n      add\n      exp(0x0100, 0x00)\n      dup2\n      sload\n      swap1\n      0xffffffffffffffffffffffffffffffffffffffff\n      mul\n      not\n      and\n      swap1\n      sstore\n      0x01\n      dup3\n      add\n      0x00\n      swap1\n      sstore\n      0x02\n      dup3\n      add\n      0x00\n      swap1\n      sstore\n      pop\n      pop\n        /* \"contracts/OrderBook.sol\":2853:2862  sortBid() */\n      tag_39\n        /* \"contracts/OrderBook.sol\":2853:2860  sortBid */\n      tag_40\n        /* \"contracts/OrderBook.sol\":2853:2862  sortBid() */\n      jump\t// in\n    tag_39:\n        /* \"contracts/OrderBook.sol\":2770:2869  function cancelBid (uint256 bidId) public {... */\n      pop\n      jump\t// out\n        /* \"contracts/OrderBook.sol\":2583:2741  function placeBid (uint256 price) public {... */\n    tag_24:\n        /* \"contracts/OrderBook.sol\":2634:2653  order memory newBid */\n      0x00\n        /* \"contracts/OrderBook.sol\":2656:2704  order(payable(msg.sender),price,block.timestamp) */\n      mload(0x40)\n      dup1\n      0x60\n      add\n      0x40\n      mstore\n      dup1\n        /* \"contracts/OrderBook.sol\":2670:2680  msg.sender */\n      caller\n        /* \"contracts/OrderBook.sol\":2656:2704  order(payable(msg.sender),price,block.timestamp) */\n      0xffffffffffffffffffffffffffffffffffffffff\n      and\n      dup2\n      mstore\n      0x20\n      add\n        /* \"contracts/OrderBook.sol\":2682:2687  price */\n      dup4\n        /* \"contracts/OrderBook.sol\":2656:2704  order(payable(msg.sender),price,block.timestamp) */\n      dup2\n      mstore\n      0x20\n      add\n        /* \"contracts/OrderBook.sol\":2688:2703  block.timestamp */\n      timestamp\n        /* \"contracts/OrderBook.sol\":2656:2704  order(payable(msg.sender),price,block.timestamp) */\n      dup2\n      mstore\n      pop\n        /* \"contracts/OrderBook.sol\":2634:2704  order memory newBid = order(payable(msg.sender),price,block.timestamp) */\n      swap1\n      pop\n        /* \"contracts/OrderBook.sol\":2714:2721  bidBook */\n      0x00\n        /* \"contracts/OrderBook.sol\":2727:2733  newBid */\n      dup2\n        /* \"contracts/OrderBook.sol\":2714:2734  bidBook.push(newBid) */\n      swap1\n      dup1\n      0x01\n      dup2\n      sload\n      add\n      dup1\n      dup3\n      sstore\n      dup1\n      swap2\n      pop\n      pop\n      0x01\n      swap1\n      sub\n      swap1\n      0x00\n      mstore\n      keccak256(0x00, 0x20)\n      swap1\n      0x03\n      mul\n      add\n      0x00\n      swap1\n      swap2\n      swap1\n      swap2\n      swap1\n      swap2\n      pop\n      0x00\n      dup3\n      add\n      mload\n      dup2\n      0x00\n      add\n      exp(0x0100, 0x00)\n      dup2\n      sload\n      dup2\n      0xffffffffffffffffffffffffffffffffffffffff\n      mul\n      not\n      and\n      swap1\n      dup4\n      0xffffffffffffffffffffffffffffffffffffffff\n      and\n      mul\n      or\n      swap1\n      sstore\n      pop\n      0x20\n      dup3\n      add\n      mload\n      dup2\n      0x01\n      add\n      sstore\n      0x40\n      dup3\n      add\n      mload\n      dup2\n      0x02\n      add\n      sstore\n      pop\n      pop\n        /* \"contracts/OrderBook.sol\":2624:2741  {... */\n      pop\n        /* \"contracts/OrderBook.sol\":2583:2741  function placeBid (uint256 price) public {... */\n      pop\n      jump\t// out\n        /* \"contracts/OrderBook.sol\":1073:1192  function sortAsk() internal {... */\n    tag_31:\n        /* \"contracts/OrderBook.sol\":1110:1170  ascendingQuickSort(bidBook, int(0), int(bidBook.length - 1)) */\n      tag_44\n        /* \"contracts/OrderBook.sol\":1129:1136  bidBook */\n      0x00\n        /* \"contracts/OrderBook.sol\":1110:1170  ascendingQuickSort(bidBook, int(0), int(bidBook.length - 1)) */\n      dup1\n      sload\n      dup1\n      0x20\n      mul\n      0x20\n      add\n      mload(0x40)\n      swap1\n      dup2\n      add\n      0x40\n      mstore\n      dup1\n      swap3\n      swap2\n      swap1\n      dup2\n      dup2\n      mstore\n      0x20\n      add\n      0x00\n      swap1\n    tag_45:\n      dup3\n      dup3\n      lt\n      iszero\n      tag_46\n      jumpi\n      dup4\n      dup3\n      swap1\n      0x00\n      mstore\n      keccak256(0x00, 0x20)\n      swap1\n      0x03\n      mul\n      add\n      mload(0x40)\n      dup1\n      0x60\n      add\n      0x40\n      mstore\n      swap1\n      dup2\n      0x00\n      dup3\n      add\n      0x00\n      swap1\n      sload\n      swap1\n      0x0100\n      exp\n      swap1\n      div\n      0xffffffffffffffffffffffffffffffffffffffff\n      and\n      0xffffffffffffffffffffffffffffffffffffffff\n      and\n      0xffffffffffffffffffffffffffffffffffffffff\n      and\n      dup2\n      mstore\n      0x20\n      add\n      0x01\n      dup3\n      add\n      sload\n      dup2\n      mstore\n      0x20\n      add\n      0x02\n      dup3\n      add\n      sload\n      dup2\n      mstore\n      pop\n      pop\n      dup2\n      mstore\n      0x20\n      add\n      swap1\n      0x01\n      add\n      swap1\n      jump(tag_45)\n    tag_46:\n      pop\n      pop\n      pop\n      pop\n        /* \"contracts/OrderBook.sol\":1142:1143  0 */\n      0x00\n        /* \"contracts/OrderBook.sol\":1167:1168  1 */\n      0x01\n        /* \"contracts/OrderBook.sol\":1150:1157  bidBook */\n      0x00\n        /* \"contracts/OrderBook.sol\":1150:1164  bidBook.length */\n      dup1\n      sload\n      swap1\n      pop\n        /* \"contracts/OrderBook.sol\":1150:1168  bidBook.length - 1 */\n      tag_48\n      swap2\n      swap1\n      tag_49\n      jump\t// in\n    tag_48:\n        /* \"contracts/OrderBook.sol\":1110:1128  ascendingQuickSort */\n      tag_50\n        /* \"contracts/OrderBook.sol\":1110:1170  ascendingQuickSort(bidBook, int(0), int(bidBook.length - 1)) */\n      jump\t// in\n    tag_44:\n        /* \"contracts/OrderBook.sol\":1073:1192  function sortAsk() internal {... */\n      jump\t// out\n        /* \"contracts/OrderBook.sol\":947:1067  function sortBid() internal {... */\n    tag_40:\n        /* \"contracts/OrderBook.sol\":984:1045  descendingQuickSort(bidBook, int(0), int(bidBook.length - 1)) */\n      tag_52\n        /* \"contracts/OrderBook.sol\":1004:1011  bidBook */\n      0x00\n        /* \"contracts/OrderBook.sol\":984:1045  descendingQuickSort(bidBook, int(0), int(bidBook.length - 1)) */\n      dup1\n      sload\n      dup1\n      0x20\n      mul\n      0x20\n      add\n      mload(0x40)\n      swap1\n      dup2\n      add\n      0x40\n      mstore\n      dup1\n      swap3\n      swap2\n      swap1\n      dup2\n      dup2\n      mstore\n      0x20\n      add\n      0x00\n      swap1\n    tag_53:\n      dup3\n      dup3\n      lt\n      iszero\n      tag_54\n      jumpi\n      dup4\n      dup3\n      swap1\n      0x00\n      mstore\n      keccak256(0x00, 0x20)\n      swap1\n      0x03\n      mul\n      add\n      mload(0x40)\n      dup1\n      0x60\n      add\n      0x40\n      mstore\n      swap1\n      dup2\n      0x00\n      dup3\n      add\n      0x00\n      swap1\n      sload\n      swap1\n      0x0100\n      exp\n      swap1\n      div\n      0xffffffffffffffffffffffffffffffffffffffff\n      and\n      0xffffffffffffffffffffffffffffffffffffffff\n      and\n      0xffffffffffffffffffffffffffffffffffffffff\n      and\n      dup2\n      mstore\n      0x20\n      add\n      0x01\n      dup3\n      add\n      sload\n      dup2\n      mstore\n      0x20\n      add\n      0x02\n      dup3\n      add\n      sload\n      dup2\n      mstore\n      pop\n      pop\n      dup2\n      mstore\n      0x20\n      add\n      swap1\n      0x01\n      add\n      swap1\n      jump(tag_53)\n    tag_54:\n      pop\n      pop\n      pop\n      pop\n        /* \"contracts/OrderBook.sol\":1017:1018  0 */\n      0x00\n        /* \"contracts/OrderBook.sol\":1042:1043  1 */\n      0x01\n        /* \"contracts/OrderBook.sol\":1025:1032  bidBook */\n      0x00\n        /* \"contracts/OrderBook.sol\":1025:1039  bidBook.length */\n      dup1\n      sload\n      swap1\n      pop\n        /* \"contracts/OrderBook.sol\":1025:1043  bidBook.length - 1 */\n      tag_56\n      swap2\n      swap1\n      tag_49\n      jump\t// in\n    tag_56:\n        /* \"contracts/OrderBook.sol\":984:1003  descendingQuickSort */\n      tag_57\n        /* \"contracts/OrderBook.sol\":984:1045  descendingQuickSort(bidBook, int(0), int(bidBook.length - 1)) */\n      jump\t// in\n    tag_52:\n        /* \"contracts/OrderBook.sol\":947:1067  function sortBid() internal {... */\n      jump\t// out\n        /* \"contracts/OrderBook.sol\":1877:2547  function ascendingQuickSort(order[] memory arr, int left, int right) internal{... */\n    tag_50:\n        /* \"contracts/OrderBook.sol\":1964:1969  int i */\n      0x00\n        /* \"contracts/OrderBook.sol\":1972:1976  left */\n      dup3\n        /* \"contracts/OrderBook.sol\":1964:1976  int i = left */\n      swap1\n      pop\n        /* \"contracts/OrderBook.sol\":1986:1991  int j */\n      0x00\n        /* \"contracts/OrderBook.sol\":1994:1999  right */\n      dup3\n        /* \"contracts/OrderBook.sol\":1986:1999  int j = right */\n      swap1\n      pop\n        /* \"contracts/OrderBook.sol\":2015:2016  j */\n      dup1\n        /* \"contracts/OrderBook.sol\":2012:2013  i */\n      dup3\n        /* \"contracts/OrderBook.sol\":2012:2016  i==j */\n      sub\n        /* \"contracts/OrderBook.sol\":2009:2025  if(i==j) return; */\n      tag_59\n      jumpi\n        /* \"contracts/OrderBook.sol\":2018:2025  return; */\n      pop\n      pop\n      jump(tag_58)\n        /* \"contracts/OrderBook.sol\":2009:2025  if(i==j) return; */\n    tag_59:\n        /* \"contracts/OrderBook.sol\":2034:2047  uint256 pivot */\n      0x00\n        /* \"contracts/OrderBook.sol\":2050:2053  arr */\n      dup6\n        /* \"contracts/OrderBook.sol\":2083:2084  2 */\n      0x02\n        /* \"contracts/OrderBook.sol\":2075:2079  left */\n      dup7\n        /* \"contracts/OrderBook.sol\":2067:2072  right */\n      dup7\n        /* \"contracts/OrderBook.sol\":2067:2079  right - left */\n      tag_60\n      swap2\n      swap1\n      tag_61\n      jump\t// in\n    tag_60:\n        /* \"contracts/OrderBook.sol\":2066:2084  (right - left) / 2 */\n      tag_62\n      swap2\n      swap1\n      tag_63\n      jump\t// in\n    tag_62:\n        /* \"contracts/OrderBook.sol\":2059:2063  left */\n      dup7\n        /* \"contracts/OrderBook.sol\":2059:2084  left + (right - left) / 2 */\n      tag_64\n      swap2\n      swap1\n      tag_65\n      jump\t// in\n    tag_64:\n        /* \"contracts/OrderBook.sol\":2050:2086  arr[uint(left + (right - left) / 2)] */\n      dup2\n      mload\n      dup2\n      lt\n      tag_66\n      jumpi\n      tag_67\n      tag_28\n      jump\t// in\n    tag_67:\n    tag_66:\n      0x20\n      mul\n      0x20\n      add\n      add\n      mload\n        /* \"contracts/OrderBook.sol\":2050:2096  arr[uint(left + (right - left) / 2)].timestamp */\n      0x40\n      add\n      mload\n        /* \"contracts/OrderBook.sol\":2034:2096  uint256 pivot = arr[uint(left + (right - left) / 2)].timestamp */\n      swap1\n      pop\n        /* \"contracts/OrderBook.sol\":2106:2403  while (i <= j) {... */\n    tag_68:\n        /* \"contracts/OrderBook.sol\":2118:2119  j */\n      dup2\n        /* \"contracts/OrderBook.sol\":2113:2114  i */\n      dup4\n        /* \"contracts/OrderBook.sol\":2113:2119  i <= j */\n      sgt\n        /* \"contracts/OrderBook.sol\":2106:2403  while (i <= j) {... */\n      tag_69\n      jumpi\n        /* \"contracts/OrderBook.sol\":2135:2177  while (arr[uint(i)].timestamp > pivot) i++ */\n    tag_70:\n        /* \"contracts/OrderBook.sol\":2167:2172  pivot */\n      dup1\n        /* \"contracts/OrderBook.sol\":2142:2145  arr */\n      dup7\n        /* \"contracts/OrderBook.sol\":2151:2152  i */\n      dup5\n        /* \"contracts/OrderBook.sol\":2142:2154  arr[uint(i)] */\n      dup2\n      mload\n      dup2\n      lt\n      tag_72\n      jumpi\n      tag_73\n      tag_28\n      jump\t// in\n    tag_73:\n    tag_72:\n      0x20\n      mul\n      0x20\n      add\n      add\n      mload\n        /* \"contracts/OrderBook.sol\":2142:2164  arr[uint(i)].timestamp */\n      0x40\n      add\n      mload\n        /* \"contracts/OrderBook.sol\":2142:2172  arr[uint(i)].timestamp > pivot */\n      gt\n        /* \"contracts/OrderBook.sol\":2135:2177  while (arr[uint(i)].timestamp > pivot) i++ */\n      iszero\n      tag_71\n      jumpi\n        /* \"contracts/OrderBook.sol\":2174:2177  i++ */\n      dup3\n      dup1\n      tag_74\n      swap1\n      tag_75\n      jump\t// in\n    tag_74:\n      swap4\n      pop\n      pop\n        /* \"contracts/OrderBook.sol\":2135:2177  while (arr[uint(i)].timestamp > pivot) i++ */\n      jump(tag_70)\n    tag_71:\n        /* \"contracts/OrderBook.sol\":2191:2233  while (pivot > arr[uint(j)].timestamp) j-- */\n    tag_76:\n        /* \"contracts/OrderBook.sol\":2206:2209  arr */\n      dup6\n        /* \"contracts/OrderBook.sol\":2215:2216  j */\n      dup3\n        /* \"contracts/OrderBook.sol\":2206:2218  arr[uint(j)] */\n      dup2\n      mload\n      dup2\n      lt\n      tag_78\n      jumpi\n      tag_79\n      tag_28\n      jump\t// in\n    tag_79:\n    tag_78:\n      0x20\n      mul\n      0x20\n      add\n      add\n      mload\n        /* \"contracts/OrderBook.sol\":2206:2228  arr[uint(j)].timestamp */\n      0x40\n      add\n      mload\n        /* \"contracts/OrderBook.sol\":2198:2203  pivot */\n      dup2\n        /* \"contracts/OrderBook.sol\":2198:2228  pivot > arr[uint(j)].timestamp */\n      gt\n        /* \"contracts/OrderBook.sol\":2191:2233  while (pivot > arr[uint(j)].timestamp) j-- */\n      iszero\n      tag_77\n      jumpi\n        /* \"contracts/OrderBook.sol\":2230:2233  j-- */\n      dup2\n      dup1\n      tag_80\n      swap1\n      tag_81\n      jump\t// in\n    tag_80:\n      swap3\n      pop\n      pop\n        /* \"contracts/OrderBook.sol\":2191:2233  while (pivot > arr[uint(j)].timestamp) j-- */\n      jump(tag_76)\n    tag_77:\n        /* \"contracts/OrderBook.sol\":2256:2257  j */\n      dup2\n        /* \"contracts/OrderBook.sol\":2251:2252  i */\n      dup4\n        /* \"contracts/OrderBook.sol\":2251:2257  i <= j */\n      sgt\n        /* \"contracts/OrderBook.sol\":2247:2393  if (i <= j) {... */\n      tag_82\n      jumpi\n        /* \"contracts/OrderBook.sol\":2309:2312  arr */\n      dup6\n        /* \"contracts/OrderBook.sol\":2318:2319  j */\n      dup3\n        /* \"contracts/OrderBook.sol\":2309:2321  arr[uint(j)] */\n      dup2\n      mload\n      dup2\n      lt\n      tag_83\n      jumpi\n      tag_84\n      tag_28\n      jump\t// in\n    tag_84:\n    tag_83:\n      0x20\n      mul\n      0x20\n      add\n      add\n      mload\n        /* \"contracts/OrderBook.sol\":2323:2326  arr */\n      dup7\n        /* \"contracts/OrderBook.sol\":2332:2333  i */\n      dup5\n        /* \"contracts/OrderBook.sol\":2323:2335  arr[uint(i)] */\n      dup2\n      mload\n      dup2\n      lt\n      tag_85\n      jumpi\n      tag_86\n      tag_28\n      jump\t// in\n    tag_86:\n    tag_85:\n      0x20\n      mul\n      0x20\n      add\n      add\n      mload\n        /* \"contracts/OrderBook.sol\":2278:2281  arr */\n      dup8\n        /* \"contracts/OrderBook.sol\":2287:2288  i */\n      dup6\n        /* \"contracts/OrderBook.sol\":2278:2290  arr[uint(i)] */\n      dup2\n      mload\n      dup2\n      lt\n      tag_87\n      jumpi\n      tag_88\n      tag_28\n      jump\t// in\n    tag_88:\n    tag_87:\n      0x20\n      mul\n      0x20\n      add\n      add\n        /* \"contracts/OrderBook.sol\":2292:2295  arr */\n      dup9\n        /* \"contracts/OrderBook.sol\":2301:2302  j */\n      dup6\n        /* \"contracts/OrderBook.sol\":2292:2304  arr[uint(j)] */\n      dup2\n      mload\n      dup2\n      lt\n      tag_89\n      jumpi\n      tag_90\n      tag_28\n      jump\t// in\n    tag_90:\n    tag_89:\n      0x20\n      mul\n      0x20\n      add\n      add\n        /* \"contracts/OrderBook.sol\":2277:2336  (arr[uint(i)], arr[uint(j)]) = (arr[uint(j)], arr[uint(i)]) */\n      dup3\n      swap1\n      mstore\n      dup3\n      swap1\n      mstore\n      pop\n      pop\n        /* \"contracts/OrderBook.sol\":2354:2357  i++ */\n      dup3\n      dup1\n      tag_91\n      swap1\n      tag_75\n      jump\t// in\n    tag_91:\n      swap4\n      pop\n      pop\n        /* \"contracts/OrderBook.sol\":2375:2378  j-- */\n      dup2\n      dup1\n      tag_92\n      swap1\n      tag_81\n      jump\t// in\n    tag_92:\n      swap3\n      pop\n      pop\n        /* \"contracts/OrderBook.sol\":2247:2393  if (i <= j) {... */\n    tag_82:\n        /* \"contracts/OrderBook.sol\":2106:2403  while (i <= j) {... */\n      jump(tag_68)\n    tag_69:\n        /* \"contracts/OrderBook.sol\":2423:2424  j */\n      dup2\n        /* \"contracts/OrderBook.sol\":2416:2420  left */\n      dup6\n        /* \"contracts/OrderBook.sol\":2416:2424  left < j */\n      slt\n        /* \"contracts/OrderBook.sol\":2412:2470  if (left < j)... */\n      iszero\n      tag_93\n      jumpi\n        /* \"contracts/OrderBook.sol\":2438:2470  ascendingQuickSort(arr, left, j) */\n      tag_94\n        /* \"contracts/OrderBook.sol\":2457:2460  arr */\n      dup7\n        /* \"contracts/OrderBook.sol\":2462:2466  left */\n      dup7\n        /* \"contracts/OrderBook.sol\":2468:2469  j */\n      dup5\n        /* \"contracts/OrderBook.sol\":2438:2456  ascendingQuickSort */\n      tag_50\n        /* \"contracts/OrderBook.sol\":2438:2470  ascendingQuickSort(arr, left, j) */\n      jump\t// in\n    tag_94:\n        /* \"contracts/OrderBook.sol\":2412:2470  if (left < j)... */\n    tag_93:\n        /* \"contracts/OrderBook.sol\":2488:2493  right */\n      dup4\n        /* \"contracts/OrderBook.sol\":2484:2485  i */\n      dup4\n        /* \"contracts/OrderBook.sol\":2484:2493  i < right */\n      slt\n        /* \"contracts/OrderBook.sol\":2480:2540  if (i < right)... */\n      iszero\n      tag_95\n      jumpi\n        /* \"contracts/OrderBook.sol\":2507:2540  ascendingQuickSort(arr, i, right) */\n      tag_96\n        /* \"contracts/OrderBook.sol\":2526:2529  arr */\n      dup7\n        /* \"contracts/OrderBook.sol\":2531:2532  i */\n      dup5\n        /* \"contracts/OrderBook.sol\":2534:2539  right */\n      dup7\n        /* \"contracts/OrderBook.sol\":2507:2525  ascendingQuickSort */\n      tag_50\n        /* \"contracts/OrderBook.sol\":2507:2540  ascendingQuickSort(arr, i, right) */\n      jump\t// in\n    tag_96:\n        /* \"contracts/OrderBook.sol\":2480:2540  if (i < right)... */\n    tag_95:\n        /* \"contracts/OrderBook.sol\":1954:2547  {... */\n      pop\n      pop\n      pop\n        /* \"contracts/OrderBook.sol\":1877:2547  function ascendingQuickSort(order[] memory arr, int left, int right) internal{... */\n    tag_58:\n      pop\n      pop\n      pop\n      jump\t// out\n        /* \"contracts/OrderBook.sol\":1198:1871  function descendingQuickSort(order[] memory arr, int left, int right) internal{... */\n    tag_57:\n        /* \"contracts/OrderBook.sol\":1286:1291  int i */\n      0x00\n        /* \"contracts/OrderBook.sol\":1294:1298  left */\n      dup3\n        /* \"contracts/OrderBook.sol\":1286:1298  int i = left */\n      swap1\n      pop\n        /* \"contracts/OrderBook.sol\":1308:1313  int j */\n      0x00\n        /* \"contracts/OrderBook.sol\":1316:1321  right */\n      dup3\n        /* \"contracts/OrderBook.sol\":1308:1321  int j = right */\n      swap1\n      pop\n        /* \"contracts/OrderBook.sol\":1337:1338  j */\n      dup1\n        /* \"contracts/OrderBook.sol\":1334:1335  i */\n      dup3\n        /* \"contracts/OrderBook.sol\":1334:1338  i==j */\n      sub\n        /* \"contracts/OrderBook.sol\":1331:1347  if(i==j) return; */\n      tag_98\n      jumpi\n        /* \"contracts/OrderBook.sol\":1340:1347  return; */\n      pop\n      pop\n      jump(tag_97)\n        /* \"contracts/OrderBook.sol\":1331:1347  if(i==j) return; */\n    tag_98:\n        /* \"contracts/OrderBook.sol\":1356:1369  uint256 pivot */\n      0x00\n        /* \"contracts/OrderBook.sol\":1372:1375  arr */\n      dup6\n        /* \"contracts/OrderBook.sol\":1405:1406  2 */\n      0x02\n        /* \"contracts/OrderBook.sol\":1397:1401  left */\n      dup7\n        /* \"contracts/OrderBook.sol\":1389:1394  right */\n      dup7\n        /* \"contracts/OrderBook.sol\":1389:1401  right - left */\n      tag_99\n      swap2\n      swap1\n      tag_61\n      jump\t// in\n    tag_99:\n        /* \"contracts/OrderBook.sol\":1388:1406  (right - left) / 2 */\n      tag_100\n      swap2\n      swap1\n      tag_63\n      jump\t// in\n    tag_100:\n        /* \"contracts/OrderBook.sol\":1381:1385  left */\n      dup7\n        /* \"contracts/OrderBook.sol\":1381:1406  left + (right - left) / 2 */\n      tag_101\n      swap2\n      swap1\n      tag_65\n      jump\t// in\n    tag_101:\n        /* \"contracts/OrderBook.sol\":1372:1408  arr[uint(left + (right - left) / 2)] */\n      dup2\n      mload\n      dup2\n      lt\n      tag_102\n      jumpi\n      tag_103\n      tag_28\n      jump\t// in\n    tag_103:\n    tag_102:\n      0x20\n      mul\n      0x20\n      add\n      add\n      mload\n        /* \"contracts/OrderBook.sol\":1372:1418  arr[uint(left + (right - left) / 2)].timestamp */\n      0x40\n      add\n      mload\n        /* \"contracts/OrderBook.sol\":1356:1418  uint256 pivot = arr[uint(left + (right - left) / 2)].timestamp */\n      swap1\n      pop\n        /* \"contracts/OrderBook.sol\":1428:1725  while (i <= j) {... */\n    tag_104:\n        /* \"contracts/OrderBook.sol\":1440:1441  j */\n      dup2\n        /* \"contracts/OrderBook.sol\":1435:1436  i */\n      dup4\n        /* \"contracts/OrderBook.sol\":1435:1441  i <= j */\n      sgt\n        /* \"contracts/OrderBook.sol\":1428:1725  while (i <= j) {... */\n      tag_105\n      jumpi\n        /* \"contracts/OrderBook.sol\":1457:1499  while (arr[uint(i)].timestamp < pivot) i++ */\n    tag_106:\n        /* \"contracts/OrderBook.sol\":1489:1494  pivot */\n      dup1\n        /* \"contracts/OrderBook.sol\":1464:1467  arr */\n      dup7\n        /* \"contracts/OrderBook.sol\":1473:1474  i */\n      dup5\n        /* \"contracts/OrderBook.sol\":1464:1476  arr[uint(i)] */\n      dup2\n      mload\n      dup2\n      lt\n      tag_108\n      jumpi\n      tag_109\n      tag_28\n      jump\t// in\n    tag_109:\n    tag_108:\n      0x20\n      mul\n      0x20\n      add\n      add\n      mload\n        /* \"contracts/OrderBook.sol\":1464:1486  arr[uint(i)].timestamp */\n      0x40\n      add\n      mload\n        /* \"contracts/OrderBook.sol\":1464:1494  arr[uint(i)].timestamp < pivot */\n      lt\n        /* \"contracts/OrderBook.sol\":1457:1499  while (arr[uint(i)].timestamp < pivot) i++ */\n      iszero\n      tag_107\n      jumpi\n        /* \"contracts/OrderBook.sol\":1496:1499  i++ */\n      dup3\n      dup1\n      tag_110\n      swap1\n      tag_75\n      jump\t// in\n    tag_110:\n      swap4\n      pop\n      pop\n        /* \"contracts/OrderBook.sol\":1457:1499  while (arr[uint(i)].timestamp < pivot) i++ */\n      jump(tag_106)\n    tag_107:\n        /* \"contracts/OrderBook.sol\":1513:1555  while (pivot < arr[uint(j)].timestamp) j-- */\n    tag_111:\n        /* \"contracts/OrderBook.sol\":1528:1531  arr */\n      dup6\n        /* \"contracts/OrderBook.sol\":1537:1538  j */\n      dup3\n        /* \"contracts/OrderBook.sol\":1528:1540  arr[uint(j)] */\n      dup2\n      mload\n      dup2\n      lt\n      tag_113\n      jumpi\n      tag_114\n      tag_28\n      jump\t// in\n    tag_114:\n    tag_113:\n      0x20\n      mul\n      0x20\n      add\n      add\n      mload\n        /* \"contracts/OrderBook.sol\":1528:1550  arr[uint(j)].timestamp */\n      0x40\n      add\n      mload\n        /* \"contracts/OrderBook.sol\":1520:1525  pivot */\n      dup2\n        /* \"contracts/OrderBook.sol\":1520:1550  pivot < arr[uint(j)].timestamp */\n      lt\n        /* \"contracts/OrderBook.sol\":1513:1555  while (pivot < arr[uint(j)].timestamp) j-- */\n      iszero\n      tag_112\n      jumpi\n        /* \"contracts/OrderBook.sol\":1552:1555  j-- */\n      dup2\n      dup1\n      tag_115\n      swap1\n      tag_81\n      jump\t// in\n    tag_115:\n      swap3\n      pop\n      pop\n        /* \"contracts/OrderBook.sol\":1513:1555  while (pivot < arr[uint(j)].timestamp) j-- */\n      jump(tag_111)\n    tag_112:\n        /* \"contracts/OrderBook.sol\":1578:1579  j */\n      dup2\n        /* \"contracts/OrderBook.sol\":1573:1574  i */\n      dup4\n        /* \"contracts/OrderBook.sol\":1573:1579  i <= j */\n      sgt\n        /* \"contracts/OrderBook.sol\":1569:1715  if (i <= j) {... */\n      tag_116\n      jumpi\n        /* \"contracts/OrderBook.sol\":1631:1634  arr */\n      dup6\n        /* \"contracts/OrderBook.sol\":1640:1641  j */\n      dup3\n        /* \"contracts/OrderBook.sol\":1631:1643  arr[uint(j)] */\n      dup2\n      mload\n      dup2\n      lt\n      tag_117\n      jumpi\n      tag_118\n      tag_28\n      jump\t// in\n    tag_118:\n    tag_117:\n      0x20\n      mul\n      0x20\n      add\n      add\n      mload\n        /* \"contracts/OrderBook.sol\":1645:1648  arr */\n      dup7\n        /* \"contracts/OrderBook.sol\":1654:1655  i */\n      dup5\n        /* \"contracts/OrderBook.sol\":1645:1657  arr[uint(i)] */\n      dup2\n      mload\n      dup2\n      lt\n      tag_119\n      jumpi\n      tag_120\n      tag_28\n      jump\t// in\n    tag_120:\n    tag_119:\n      0x20\n      mul\n      0x20\n      add\n      add\n      mload\n        /* \"contracts/OrderBook.sol\":1600:1603  arr */\n      dup8\n        /* \"contracts/OrderBook.sol\":1609:1610  i */\n      dup6\n        /* \"contracts/OrderBook.sol\":1600:1612  arr[uint(i)] */\n      dup2\n      mload\n      dup2\n      lt\n      tag_121\n      jumpi\n      tag_122\n      tag_28\n      jump\t// in\n    tag_122:\n    tag_121:\n      0x20\n      mul\n      0x20\n      add\n      add\n        /* \"contracts/OrderBook.sol\":1614:1617  arr */\n      dup9\n        /* \"contracts/OrderBook.sol\":1623:1624  j */\n      dup6\n        /* \"contracts/OrderBook.sol\":1614:1626  arr[uint(j)] */\n      dup2\n      mload\n      dup2\n      lt\n      tag_123\n      jumpi\n      tag_124\n      tag_28\n      jump\t// in\n    tag_124:\n    tag_123:\n      0x20\n      mul\n      0x20\n      add\n      add\n        /* \"contracts/OrderBook.sol\":1599:1658  (arr[uint(i)], arr[uint(j)]) = (arr[uint(j)], arr[uint(i)]) */\n      dup3\n      swap1\n      mstore\n      dup3\n      swap1\n      mstore\n      pop\n      pop\n        /* \"contracts/OrderBook.sol\":1676:1679  i++ */\n      dup3\n      dup1\n      tag_125\n      swap1\n      tag_75\n      jump\t// in\n    tag_125:\n      swap4\n      pop\n      pop\n        /* \"contracts/OrderBook.sol\":1697:1700  j-- */\n      dup2\n      dup1\n      tag_126\n      swap1\n      tag_81\n      jump\t// in\n    tag_126:\n      swap3\n      pop\n      pop\n        /* \"contracts/OrderBook.sol\":1569:1715  if (i <= j) {... */\n    tag_116:\n        /* \"contracts/OrderBook.sol\":1428:1725  while (i <= j) {... */\n      jump(tag_104)\n    tag_105:\n        /* \"contracts/OrderBook.sol\":1745:1746  j */\n      dup2\n        /* \"contracts/OrderBook.sol\":1738:1742  left */\n      dup6\n        /* \"contracts/OrderBook.sol\":1738:1746  left < j */\n      slt\n        /* \"contracts/OrderBook.sol\":1734:1793  if (left < j)... */\n      iszero\n      tag_127\n      jumpi\n        /* \"contracts/OrderBook.sol\":1760:1793  descendingQuickSort(arr, left, j) */\n      tag_128\n        /* \"contracts/OrderBook.sol\":1780:1783  arr */\n      dup7\n        /* \"contracts/OrderBook.sol\":1785:1789  left */\n      dup7\n        /* \"contracts/OrderBook.sol\":1791:1792  j */\n      dup5\n        /* \"contracts/OrderBook.sol\":1760:1779  descendingQuickSort */\n      tag_57\n        /* \"contracts/OrderBook.sol\":1760:1793  descendingQuickSort(arr, left, j) */\n      jump\t// in\n    tag_128:\n        /* \"contracts/OrderBook.sol\":1734:1793  if (left < j)... */\n    tag_127:\n        /* \"contracts/OrderBook.sol\":1811:1816  right */\n      dup4\n        /* \"contracts/OrderBook.sol\":1807:1808  i */\n      dup4\n        /* \"contracts/OrderBook.sol\":1807:1816  i < right */\n      slt\n        /* \"contracts/OrderBook.sol\":1803:1864  if (i < right)... */\n      iszero\n      tag_129\n      jumpi\n        /* \"contracts/OrderBook.sol\":1830:1864  descendingQuickSort(arr, i, right) */\n      tag_130\n        /* \"contracts/OrderBook.sol\":1850:1853  arr */\n      dup7\n        /* \"contracts/OrderBook.sol\":1855:1856  i */\n      dup5\n        /* \"contracts/OrderBook.sol\":1858:1863  right */\n      dup7\n        /* \"contracts/OrderBook.sol\":1830:1849  descendingQuickSort */\n      tag_57\n        /* \"contracts/OrderBook.sol\":1830:1864  descendingQuickSort(arr, i, right) */\n      jump\t// in\n    tag_130:\n        /* \"contracts/OrderBook.sol\":1803:1864  if (i < right)... */\n    tag_129:\n        /* \"contracts/OrderBook.sol\":1276:1871  {... */\n      pop\n      pop\n      pop\n        /* \"contracts/OrderBook.sol\":1198:1871  function descendingQuickSort(order[] memory arr, int left, int right) internal{... */\n    tag_97:\n      pop\n      pop\n      pop\n      jump\t// out\n        /* \"#utility.yul\":88:205   */\n    tag_132:\n        /* \"#utility.yul\":197:198   */\n      0x00\n        /* \"#utility.yul\":194:195   */\n      dup1\n        /* \"#utility.yul\":187:199   */\n      revert\n        /* \"#utility.yul\":334:411   */\n    tag_134:\n        /* \"#utility.yul\":371:378   */\n      0x00\n        /* \"#utility.yul\":400:405   */\n      dup2\n        /* \"#utility.yul\":389:405   */\n      swap1\n      pop\n        /* \"#utility.yul\":334:411   */\n      swap2\n      swap1\n      pop\n      jump\t// out\n        /* \"#utility.yul\":417:539   */\n    tag_135:\n        /* \"#utility.yul\":490:514   */\n      tag_147\n        /* \"#utility.yul\":508:513   */\n      dup2\n        /* \"#utility.yul\":490:514   */\n      tag_134\n      jump\t// in\n    tag_147:\n        /* \"#utility.yul\":483:488   */\n      dup2\n        /* \"#utility.yul\":480:515   */\n      eq\n        /* \"#utility.yul\":470:533   */\n      tag_148\n      jumpi\n        /* \"#utility.yul\":529:530   */\n      0x00\n        /* \"#utility.yul\":526:527   */\n      dup1\n        /* \"#utility.yul\":519:531   */\n      revert\n        /* \"#utility.yul\":470:533   */\n    tag_148:\n        /* \"#utility.yul\":417:539   */\n      pop\n      jump\t// out\n        /* \"#utility.yul\":545:684   */\n    tag_136:\n        /* \"#utility.yul\":591:596   */\n      0x00\n        /* \"#utility.yul\":629:635   */\n      dup2\n        /* \"#utility.yul\":616:636   */\n      calldataload\n        /* \"#utility.yul\":607:636   */\n      swap1\n      pop\n        /* \"#utility.yul\":645:678   */\n      tag_150\n        /* \"#utility.yul\":672:677   */\n      dup2\n        /* \"#utility.yul\":645:678   */\n      tag_135\n      jump\t// in\n    tag_150:\n        /* \"#utility.yul\":545:684   */\n      swap3\n      swap2\n      pop\n      pop\n      jump\t// out\n        /* \"#utility.yul\":690:1019   */\n    tag_10:\n        /* \"#utility.yul\":749:755   */\n      0x00\n        /* \"#utility.yul\":798:800   */\n      0x20\n        /* \"#utility.yul\":786:795   */\n      dup3\n        /* \"#utility.yul\":777:784   */\n      dup5\n        /* \"#utility.yul\":773:796   */\n      sub\n        /* \"#utility.yul\":769:801   */\n      slt\n        /* \"#utility.yul\":766:885   */\n      iszero\n      tag_152\n      jumpi\n        /* \"#utility.yul\":804:883   */\n      tag_153\n      tag_132\n      jump\t// in\n    tag_153:\n        /* \"#utility.yul\":766:885   */\n    tag_152:\n        /* \"#utility.yul\":924:925   */\n      0x00\n        /* \"#utility.yul\":949:1002   */\n      tag_154\n        /* \"#utility.yul\":994:1001   */\n      dup5\n        /* \"#utility.yul\":985:991   */\n      dup3\n        /* \"#utility.yul\":974:983   */\n      dup6\n        /* \"#utility.yul\":970:992   */\n      add\n        /* \"#utility.yul\":949:1002   */\n      tag_136\n      jump\t// in\n    tag_154:\n        /* \"#utility.yul\":939:1002   */\n      swap2\n      pop\n        /* \"#utility.yul\":895:1012   */\n      pop\n        /* \"#utility.yul\":690:1019   */\n      swap3\n      swap2\n      pop\n      pop\n      jump\t// out\n        /* \"#utility.yul\":1025:1143   */\n    tag_137:\n        /* \"#utility.yul\":1112:1136   */\n      tag_156\n        /* \"#utility.yul\":1130:1135   */\n      dup2\n        /* \"#utility.yul\":1112:1136   */\n      tag_134\n      jump\t// in\n    tag_156:\n        /* \"#utility.yul\":1107:1110   */\n      dup3\n        /* \"#utility.yul\":1100:1137   */\n      mstore\n        /* \"#utility.yul\":1025:1143   */\n      pop\n      pop\n      jump\t// out\n        /* \"#utility.yul\":1149:1371   */\n    tag_15:\n        /* \"#utility.yul\":1242:1246   */\n      0x00\n        /* \"#utility.yul\":1280:1282   */\n      0x20\n        /* \"#utility.yul\":1269:1278   */\n      dup3\n        /* \"#utility.yul\":1265:1283   */\n      add\n        /* \"#utility.yul\":1257:1283   */\n      swap1\n      pop\n        /* \"#utility.yul\":1293:1364   */\n      tag_158\n        /* \"#utility.yul\":1361:1362   */\n      0x00\n        /* \"#utility.yul\":1350:1359   */\n      dup4\n        /* \"#utility.yul\":1346:1363   */\n      add\n        /* \"#utility.yul\":1337:1343   */\n      dup5\n        /* \"#utility.yul\":1293:1364   */\n      tag_137\n      jump\t// in\n    tag_158:\n        /* \"#utility.yul\":1149:1371   */\n      swap3\n      swap2\n      pop\n      pop\n      jump\t// out\n        /* \"#utility.yul\":1377:1557   */\n    tag_28:\n        /* \"#utility.yul\":1425:1502   */\n      0x4e487b7100000000000000000000000000000000000000000000000000000000\n        /* \"#utility.yul\":1422:1423   */\n      0x00\n        /* \"#utility.yul\":1415:1503   */\n      mstore\n        /* \"#utility.yul\":1522:1526   */\n      0x32\n        /* \"#utility.yul\":1519:1520   */\n      0x04\n        /* \"#utility.yul\":1512:1527   */\n      mstore\n        /* \"#utility.yul\":1546:1550   */\n      0x24\n        /* \"#utility.yul\":1543:1544   */\n      0x00\n        /* \"#utility.yul\":1536:1551   */\n      revert\n        /* \"#utility.yul\":1563:1743   */\n    tag_138:\n        /* \"#utility.yul\":1611:1688   */\n      0x4e487b7100000000000000000000000000000000000000000000000000000000\n        /* \"#utility.yul\":1608:1609   */\n      0x00\n        /* \"#utility.yul\":1601:1689   */\n      mstore\n        /* \"#utility.yul\":1708:1712   */\n      0x11\n        /* \"#utility.yul\":1705:1706   */\n      0x04\n        /* \"#utility.yul\":1698:1713   */\n      mstore\n        /* \"#utility.yul\":1732:1736   */\n      0x24\n        /* \"#utility.yul\":1729:1730   */\n      0x00\n        /* \"#utility.yul\":1722:1737   */\n      revert\n        /* \"#utility.yul\":1749:1940   */\n    tag_49:\n        /* \"#utility.yul\":1789:1793   */\n      0x00\n        /* \"#utility.yul\":1809:1829   */\n      tag_162\n        /* \"#utility.yul\":1827:1828   */\n      dup3\n        /* \"#utility.yul\":1809:1829   */\n      tag_134\n      jump\t// in\n    tag_162:\n        /* \"#utility.yul\":1804:1829   */\n      swap2\n      pop\n        /* \"#utility.yul\":1843:1863   */\n      tag_163\n        /* \"#utility.yul\":1861:1862   */\n      dup4\n        /* \"#utility.yul\":1843:1863   */\n      tag_134\n      jump\t// in\n    tag_163:\n        /* \"#utility.yul\":1838:1863   */\n      swap3\n      pop\n        /* \"#utility.yul\":1882:1883   */\n      dup3\n        /* \"#utility.yul\":1879:1880   */\n      dup3\n        /* \"#utility.yul\":1876:1884   */\n      lt\n        /* \"#utility.yul\":1873:1907   */\n      iszero\n      tag_164\n      jumpi\n        /* \"#utility.yul\":1887:1905   */\n      tag_165\n      tag_138\n      jump\t// in\n    tag_165:\n        /* \"#utility.yul\":1873:1907   */\n    tag_164:\n        /* \"#utility.yul\":1932:1933   */\n      dup3\n        /* \"#utility.yul\":1929:1930   */\n      dup3\n        /* \"#utility.yul\":1925:1934   */\n      sub\n        /* \"#utility.yul\":1917:1934   */\n      swap1\n      pop\n        /* \"#utility.yul\":1749:1940   */\n      swap3\n      swap2\n      pop\n      pop\n      jump\t// out\n        /* \"#utility.yul\":1946:2022   */\n    tag_139:\n        /* \"#utility.yul\":1982:1989   */\n      0x00\n        /* \"#utility.yul\":2011:2016   */\n      dup2\n        /* \"#utility.yul\":2000:2016   */\n      swap1\n      pop\n        /* \"#utility.yul\":1946:2022   */\n      swap2\n      swap1\n      pop\n      jump\t// out\n        /* \"#utility.yul\":2028:2555   */\n    tag_61:\n        /* \"#utility.yul\":2067:2071   */\n      0x00\n        /* \"#utility.yul\":2087:2106   */\n      tag_168\n        /* \"#utility.yul\":2104:2105   */\n      dup3\n        /* \"#utility.yul\":2087:2106   */\n      tag_139\n      jump\t// in\n    tag_168:\n        /* \"#utility.yul\":2082:2106   */\n      swap2\n      pop\n        /* \"#utility.yul\":2120:2139   */\n      tag_169\n        /* \"#utility.yul\":2137:2138   */\n      dup4\n        /* \"#utility.yul\":2120:2139   */\n      tag_139\n      jump\t// in\n    tag_169:\n        /* \"#utility.yul\":2115:2139   */\n      swap3\n      pop\n        /* \"#utility.yul\":2309:2310   */\n      dup3\n        /* \"#utility.yul\":2241:2307   */\n      0x8000000000000000000000000000000000000000000000000000000000000000\n        /* \"#utility.yul\":2237:2311   */\n      add\n        /* \"#utility.yul\":2234:2235   */\n      dup3\n        /* \"#utility.yul\":2230:2312   */\n      slt\n        /* \"#utility.yul\":2225:2226   */\n      0x00\n        /* \"#utility.yul\":2222:2223   */\n      dup5\n        /* \"#utility.yul\":2218:2227   */\n      slt\n        /* \"#utility.yul\":2211:2228   */\n      iszero\n        /* \"#utility.yul\":2207:2313   */\n      and\n        /* \"#utility.yul\":2204:2336   */\n      iszero\n      tag_170\n      jumpi\n        /* \"#utility.yul\":2316:2334   */\n      tag_171\n      tag_138\n      jump\t// in\n    tag_171:\n        /* \"#utility.yul\":2204:2336   */\n    tag_170:\n        /* \"#utility.yul\":2495:2496   */\n      dup3\n        /* \"#utility.yul\":2427:2493   */\n      0x7fffffffffffffffffffffffffffffffffffffffffffffffffffffffffffffff\n        /* \"#utility.yul\":2423:2497   */\n      add\n        /* \"#utility.yul\":2420:2421   */\n      dup3\n        /* \"#utility.yul\":2416:2498   */\n      sgt\n        /* \"#utility.yul\":2412:2413   */\n      0x00\n        /* \"#utility.yul\":2409:2410   */\n      dup5\n        /* \"#utility.yul\":2405:2414   */\n      slt\n        /* \"#utility.yul\":2401:2499   */\n      and\n        /* \"#utility.yul\":2398:2522   */\n      iszero\n      tag_172\n      jumpi\n        /* \"#utility.yul\":2502:2520   */\n      tag_173\n      tag_138\n      jump\t// in\n    tag_173:\n        /* \"#utility.yul\":2398:2522   */\n    tag_172:\n        /* \"#utility.yul\":2547:2548   */\n      dup3\n        /* \"#utility.yul\":2544:2545   */\n      dup3\n        /* \"#utility.yul\":2540:2549   */\n      sub\n        /* \"#utility.yul\":2532:2549   */\n      swap1\n      pop\n        /* \"#utility.yul\":2028:2555   */\n      swap3\n      swap2\n      pop\n      pop\n      jump\t// out\n        /* \"#utility.yul\":2561:2741   */\n    tag_140:\n        /* \"#utility.yul\":2609:2686   */\n      0x4e487b7100000000000000000000000000000000000000000000000000000000\n        /* \"#utility.yul\":2606:2607   */\n      0x00\n        /* \"#utility.yul\":2599:2687   */\n      mstore\n        /* \"#utility.yul\":2706:2710   */\n      0x12\n        /* \"#utility.yul\":2703:2704   */\n      0x04\n        /* \"#utility.yul\":2696:2711   */\n      mstore\n        /* \"#utility.yul\":2730:2734   */\n      0x24\n        /* \"#utility.yul\":2727:2728   */\n      0x00\n        /* \"#utility.yul\":2720:2735   */\n      revert\n        /* \"#utility.yul\":2747:3132   */\n    tag_63:\n        /* \"#utility.yul\":2786:2787   */\n      0x00\n        /* \"#utility.yul\":2803:2822   */\n      tag_176\n        /* \"#utility.yul\":2820:2821   */\n      dup3\n        /* \"#utility.yul\":2803:2822   */\n      tag_139\n      jump\t// in\n    tag_176:\n        /* \"#utility.yul\":2798:2822   */\n      swap2\n      pop\n        /* \"#utility.yul\":2836:2855   */\n      tag_177\n        /* \"#utility.yul\":2853:2854   */\n      dup4\n        /* \"#utility.yul\":2836:2855   */\n      tag_139\n      jump\t// in\n    tag_177:\n        /* \"#utility.yul\":2831:2855   */\n      swap3\n      pop\n        /* \"#utility.yul\":2874:2875   */\n      dup3\n        /* \"#utility.yul\":2864:2899   */\n      tag_178\n      jumpi\n        /* \"#utility.yul\":2879:2897   */\n      tag_179\n      tag_140\n      jump\t// in\n    tag_179:\n        /* \"#utility.yul\":2864:2899   */\n    tag_178:\n        /* \"#utility.yul\":3065:3066   */\n      0x01\n        /* \"#utility.yul\":3062:3063   */\n      0x00\n        /* \"#utility.yul\":3058:3067   */\n      sub\n        /* \"#utility.yul\":3055:3056   */\n      dup4\n        /* \"#utility.yul\":3052:3068   */\n      eq\n        /* \"#utility.yul\":2971:3037   */\n      0x8000000000000000000000000000000000000000000000000000000000000000\n        /* \"#utility.yul\":2968:2969   */\n      dup4\n        /* \"#utility.yul\":2965:3038   */\n      eq\n        /* \"#utility.yul\":2948:3078   */\n      and\n        /* \"#utility.yul\":2945:3101   */\n      iszero\n      tag_180\n      jumpi\n        /* \"#utility.yul\":3081:3099   */\n      tag_181\n      tag_138\n      jump\t// in\n    tag_181:\n        /* \"#utility.yul\":2945:3101   */\n    tag_180:\n        /* \"#utility.yul\":3124:3125   */\n      dup3\n        /* \"#utility.yul\":3121:3122   */\n      dup3\n        /* \"#utility.yul\":3116:3126   */\n      sdiv\n        /* \"#utility.yul\":3111:3126   */\n      swap1\n      pop\n        /* \"#utility.yul\":2747:3132   */\n      swap3\n      swap2\n      pop\n      pop\n      jump\t// out\n        /* \"#utility.yul\":3138:3663   */\n    tag_65:\n        /* \"#utility.yul\":3177:3180   */\n      0x00\n        /* \"#utility.yul\":3196:3215   */\n      tag_183\n        /* \"#utility.yul\":3213:3214   */\n      dup3\n        /* \"#utility.yul\":3196:3215   */\n      tag_139\n      jump\t// in\n    tag_183:\n        /* \"#utility.yul\":3191:3215   */\n      swap2\n      pop\n        /* \"#utility.yul\":3229:3248   */\n      tag_184\n        /* \"#utility.yul\":3246:3247   */\n      dup4\n        /* \"#utility.yul\":3229:3248   */\n      tag_139\n      jump\t// in\n    tag_184:\n        /* \"#utility.yul\":3224:3248   */\n      swap3\n      pop\n        /* \"#utility.yul\":3417:3418   */\n      dup2\n        /* \"#utility.yul\":3349:3415   */\n      0x7fffffffffffffffffffffffffffffffffffffffffffffffffffffffffffffff\n        /* \"#utility.yul\":3345:3419   */\n      sub\n        /* \"#utility.yul\":3342:3343   */\n      dup4\n        /* \"#utility.yul\":3338:3420   */\n      sgt\n        /* \"#utility.yul\":3333:3334   */\n      0x00\n        /* \"#utility.yul\":3330:3331   */\n      dup4\n        /* \"#utility.yul\":3326:3335   */\n      slt\n        /* \"#utility.yul\":3319:3336   */\n      iszero\n        /* \"#utility.yul\":3315:3421   */\n      and\n        /* \"#utility.yul\":3312:3444   */\n      iszero\n      tag_185\n      jumpi\n        /* \"#utility.yul\":3424:3442   */\n      tag_186\n      tag_138\n      jump\t// in\n    tag_186:\n        /* \"#utility.yul\":3312:3444   */\n    tag_185:\n        /* \"#utility.yul\":3604:3605   */\n      dup2\n        /* \"#utility.yul\":3536:3602   */\n      0x8000000000000000000000000000000000000000000000000000000000000000\n        /* \"#utility.yul\":3532:3606   */\n      sub\n        /* \"#utility.yul\":3529:3530   */\n      dup4\n        /* \"#utility.yul\":3525:3607   */\n      slt\n        /* \"#utility.yul\":3521:3522   */\n      0x00\n        /* \"#utility.yul\":3518:3519   */\n      dup4\n        /* \"#utility.yul\":3514:3523   */\n      slt\n        /* \"#utility.yul\":3510:3608   */\n      and\n        /* \"#utility.yul\":3507:3631   */\n      iszero\n      tag_187\n      jumpi\n        /* \"#utility.yul\":3611:3629   */\n      tag_188\n      tag_138\n      jump\t// in\n    tag_188:\n        /* \"#utility.yul\":3507:3631   */\n    tag_187:\n        /* \"#utility.yul\":3655:3656   */\n      dup3\n        /* \"#utility.yul\":3652:3653   */\n      dup3\n        /* \"#utility.yul\":3648:3657   */\n      add\n        /* \"#utility.yul\":3641:3657   */\n      swap1\n      pop\n        /* \"#utility.yul\":3138:3663   */\n      swap3\n      swap2\n      pop\n      pop\n      jump\t// out\n        /* \"#utility.yul\":3669:3900   */\n    tag_75:\n        /* \"#utility.yul\":3707:3710   */\n      0x00\n        /* \"#utility.yul\":3730:3753   */\n      tag_190\n        /* \"#utility.yul\":3747:3752   */\n      dup3\n        /* \"#utility.yul\":3730:3753   */\n      tag_139\n      jump\t// in\n    tag_190:\n        /* \"#utility.yul\":3721:3753   */\n      swap2\n      pop\n        /* \"#utility.yul\":3775:3841   */\n      0x7fffffffffffffffffffffffffffffffffffffffffffffffffffffffffffffff\n        /* \"#utility.yul\":3768:3773   */\n      dup3\n        /* \"#utility.yul\":3765:3842   */\n      sub\n        /* \"#utility.yul\":3762:3865   */\n      tag_191\n      jumpi\n        /* \"#utility.yul\":3845:3863   */\n      tag_192\n      tag_138\n      jump\t// in\n    tag_192:\n        /* \"#utility.yul\":3762:3865   */\n    tag_191:\n        /* \"#utility.yul\":3892:3893   */\n      0x01\n        /* \"#utility.yul\":3885:3890   */\n      dup3\n        /* \"#utility.yul\":3881:3894   */\n      add\n        /* \"#utility.yul\":3874:3894   */\n      swap1\n      pop\n        /* \"#utility.yul\":3669:3900   */\n      swap2\n      swap1\n      pop\n      jump\t// out\n        /* \"#utility.yul\":3906:4137   */\n    tag_81:\n        /* \"#utility.yul\":3944:3947   */\n      0x00\n        /* \"#utility.yul\":3967:3990   */\n      tag_194\n        /* \"#utility.yul\":3984:3989   */\n      dup3\n        /* \"#utility.yul\":3967:3990   */\n      tag_139\n      jump\t// in\n    tag_194:\n        /* \"#utility.yul\":3958:3990   */\n      swap2\n      pop\n        /* \"#utility.yul\":4012:4078   */\n      0x8000000000000000000000000000000000000000000000000000000000000000\n        /* \"#utility.yul\":4005:4010   */\n      dup3\n        /* \"#utility.yul\":4002:4079   */\n      sub\n        /* \"#utility.yul\":3999:4102   */\n      tag_195\n      jumpi\n        /* \"#utility.yul\":4082:4100   */\n      tag_196\n      tag_138\n      jump\t// in\n    tag_196:\n        /* \"#utility.yul\":3999:4102   */\n    tag_195:\n        /* \"#utility.yul\":4129:4130   */\n      0x01\n        /* \"#utility.yul\":4122:4127   */\n      dup3\n        /* \"#utility.yul\":4118:4131   */\n      sub\n        /* \"#utility.yul\":4111:4131   */\n      swap1\n      pop\n        /* \"#utility.yul\":3906:4137   */\n      swap2\n      swap1\n      pop\n      jump\t// out\n\n    auxdata: 0xa26469706673582212201d19178295f9b0b543d336e0b5016ccede50c8488a0868f76db38a5b22625ddd64736f6c634300080d0033\n}\n",
				"bytecode": {
					"linkReferences": {},
					"object": "608060405234801561001057600080fd5b50610c00806100206000396000f3fe608060405234801561001057600080fd5b50600436106100575760003560e01c80631628e0f51461005c578063492ac8001461007857806378c5b268146100965780639703ef35146100b25780639979ef45146100ce575b600080fd5b61007660048036038101906100719190610886565b6100ea565b005b610080610151565b60405161008d91906108c2565b60405180910390f35b6100b060048036038101906100ab9190610886565b610156565b005b6100cc60048036038101906100c79190610886565b610218565b005b6100e860048036038101906100e39190610886565b61027f565b005b600181815481106100fe576100fd6108dd565b5b9060005260206000209060030201600080820160006101000a81549073ffffffffffffffffffffffffffffffffffffffff021916905560018201600090556002820160009055505061014e610341565b50565b600090565b600060405180606001604052803373ffffffffffffffffffffffffffffffffffffffff168152602001838152602001428152509050600181908060018154018082558091505060019003906000526020600020906003020160009091909190915060008201518160000160006101000a81548173ffffffffffffffffffffffffffffffffffffffff021916908373ffffffffffffffffffffffffffffffffffffffff160217905550602082015181600101556040820151816002015550505050565b6000818154811061022c5761022b6108dd565b5b9060005260206000209060030201600080820160006101000a81549073ffffffffffffffffffffffffffffffffffffffff021916905560018201600090556002820160009055505061027c610421565b50565b600060405180606001604052803373ffffffffffffffffffffffffffffffffffffffff168152602001838152602001428152509050600081908060018154018082558091505060019003906000526020600020906003020160009091909190915060008201518160000160006101000a81548173ffffffffffffffffffffffffffffffffffffffff021916908373ffffffffffffffffffffffffffffffffffffffff160217905550602082015181600101556040820151816002015550505050565b61041f6000805480602002602001604051908101604052809291908181526020016000905b8282101561040257838290600052602060002090600302016040518060600160405290816000820160009054906101000a900473ffffffffffffffffffffffffffffffffffffffff1673ffffffffffffffffffffffffffffffffffffffff1673ffffffffffffffffffffffffffffffffffffffff1681526020016001820154815260200160028201548152505081526020019060010190610366565b505050506000600160008054905061041a919061093b565b610501565b565b6104ff6000805480602002602001604051908101604052809291908181526020016000905b828210156104e257838290600052602060002090600302016040518060600160405290816000820160009054906101000a900473ffffffffffffffffffffffffffffffffffffffff1673ffffffffffffffffffffffffffffffffffffffff1673ffffffffffffffffffffffffffffffffffffffff1681526020016001820154815260200160028201548152505081526020019060010190610446565b50505050600060016000805490506104fa919061093b565b6106a6565b565b600082905060008290508082036105195750506106a1565b6000856002868661052a9190610979565b6105349190610a3c565b8661053f9190610aa6565b815181106105505761054f6108dd565b5b60200260200101516040015190505b818313610675575b8086848151811061057b5761057a6108dd565b5b60200260200101516040015111156105a057828061059890610b3a565b935050610567565b5b8582815181106105b4576105b36108dd565b5b6020026020010151604001518111156105da5781806105d290610b82565b9250506105a1565b818313610670578582815181106105f4576105f36108dd565b5b602002602001015186848151811061060f5761060e6108dd565b5b602002602001015187858151811061062a576106296108dd565b5b60200260200101888581518110610644576106436108dd565b5b602002602001018290528290525050828061065e90610b3a565b935050818061066c90610b82565b9250505b61055f565b8185121561068957610688868684610501565b5b8383121561069d5761069c868486610501565b5b5050505b505050565b600082905060008290508082036106be575050610846565b600085600286866106cf9190610979565b6106d99190610a3c565b866106e49190610aa6565b815181106106f5576106f46108dd565b5b60200260200101516040015190505b81831361081a575b808684815181106107205761071f6108dd565b5b602002602001015160400151101561074557828061073d90610b3a565b93505061070c565b5b858281518110610759576107586108dd565b5b60200260200101516040015181101561077f57818061077790610b82565b925050610746565b81831361081557858281518110610799576107986108dd565b5b60200260200101518684815181106107b4576107b36108dd565b5b60200260200101518785815181106107cf576107ce6108dd565b5b602002602001018885815181106107e9576107e86108dd565b5b602002602001018290528290525050828061080390610b3a565b935050818061081190610b82565b9250505b610704565b8185121561082e5761082d8686846106a6565b5b83831215610842576108418684866106a6565b5b5050505b505050565b600080fd5b6000819050919050565b61086381610850565b811461086e57600080fd5b50565b6000813590506108808161085a565b92915050565b60006020828403121561089c5761089b61084b565b5b60006108aa84828501610871565b91505092915050565b6108bc81610850565b82525050565b60006020820190506108d760008301846108b3565b92915050565b7f4e487b7100000000000000000000000000000000000000000000000000000000600052603260045260246000fd5b7f4e487b7100000000000000000000000000000000000000000000000000000000600052601160045260246000fd5b600061094682610850565b915061095183610850565b9250828210156109645761096361090c565b5b828203905092915050565b6000819050919050565b60006109848261096f565b915061098f8361096f565b9250827f8000000000000000000000000000000000000000000000000000000000000000018212600084121516156109ca576109c961090c565b5b827f7fffffffffffffffffffffffffffffffffffffffffffffffffffffffffffffff018213600084121615610a0257610a0161090c565b5b828203905092915050565b7f4e487b7100000000000000000000000000000000000000000000000000000000600052601260045260246000fd5b6000610a478261096f565b9150610a528361096f565b925082610a6257610a61610a0d565b5b600160000383147f800000000000000000000000000000000000000000000000000000000000000083141615610a9b57610a9a61090c565b5b828205905092915050565b6000610ab18261096f565b9150610abc8361096f565b9250817f7fffffffffffffffffffffffffffffffffffffffffffffffffffffffffffffff03831360008312151615610af757610af661090c565b5b817f8000000000000000000000000000000000000000000000000000000000000000038312600083121615610b2f57610b2e61090c565b5b828201905092915050565b6000610b458261096f565b91507f7fffffffffffffffffffffffffffffffffffffffffffffffffffffffffffffff8203610b7757610b7661090c565b5b600182019050919050565b6000610b8d8261096f565b91507f80000000000000000000000000000000000000000000000000000000000000008203610bbf57610bbe61090c565b5b60018203905091905056fea26469706673582212201d19178295f9b0b543d336e0b5016ccede50c8488a0868f76db38a5b22625ddd64736f6c634300080d0033",
					"opcodes": "PUSH1 0x80 PUSH1 0x40 MSTORE CALLVALUE DUP1 ISZERO PUSH2 0x10 JUMPI PUSH1 0x0 DUP1 REVERT JUMPDEST POP PUSH2 0xC00 DUP1 PUSH2 0x20 PUSH1 0x0 CODECOPY PUSH1 0x0 RETURN INVALID PUSH1 0x80 PUSH1 0x40 MSTORE CALLVALUE DUP1 ISZERO PUSH2 0x10 JUMPI PUSH1 0x0 DUP1 REVERT JUMPDEST POP PUSH1 0x4 CALLDATASIZE LT PUSH2 0x57 JUMPI PUSH1 0x0 CALLDATALOAD PUSH1 0xE0 SHR DUP1 PUSH4 0x1628E0F5 EQ PUSH2 0x5C JUMPI DUP1 PUSH4 0x492AC800 EQ PUSH2 0x78 JUMPI DUP1 PUSH4 0x78C5B268 EQ PUSH2 0x96 JUMPI DUP1 PUSH4 0x9703EF35 EQ PUSH2 0xB2 JUMPI DUP1 PUSH4 0x9979EF45 EQ PUSH2 0xCE JUMPI JUMPDEST PUSH1 0x0 DUP1 REVERT JUMPDEST PUSH2 0x76 PUSH1 0x4 DUP1 CALLDATASIZE SUB DUP2 ADD SWAP1 PUSH2 0x71 SWAP2 SWAP1 PUSH2 0x886 JUMP JUMPDEST PUSH2 0xEA JUMP JUMPDEST STOP JUMPDEST PUSH2 0x80 PUSH2 0x151 JUMP JUMPDEST PUSH1 0x40 MLOAD PUSH2 0x8D SWAP2 SWAP1 PUSH2 0x8C2 JUMP JUMPDEST PUSH1 0x40 MLOAD DUP1 SWAP2 SUB SWAP1 RETURN JUMPDEST PUSH2 0xB0 PUSH1 0x4 DUP1 CALLDATASIZE SUB DUP2 ADD SWAP1 PUSH2 0xAB SWAP2 SWAP1 PUSH2 0x886 JUMP JUMPDEST PUSH2 0x156 JUMP JUMPDEST STOP JUMPDEST PUSH2 0xCC PUSH1 0x4 DUP1 CALLDATASIZE SUB DUP2 ADD SWAP1 PUSH2 0xC7 SWAP2 SWAP1 PUSH2 0x886 JUMP JUMPDEST PUSH2 0x218 JUMP JUMPDEST STOP JUMPDEST PUSH2 0xE8 PUSH1 0x4 DUP1 CALLDATASIZE SUB DUP2 ADD SWAP1 PUSH2 0xE3 SWAP2 SWAP1 PUSH2 0x886 JUMP JUMPDEST PUSH2 0x27F JUMP JUMPDEST STOP JUMPDEST PUSH1 0x1 DUP2 DUP2 SLOAD DUP2 LT PUSH2 0xFE JUMPI PUSH2 0xFD PUSH2 0x8DD JUMP JUMPDEST JUMPDEST SWAP1 PUSH1 0x0 MSTORE PUSH1 0x20 PUSH1 0x0 KECCAK256 SWAP1 PUSH1 0x3 MUL ADD PUSH1 0x0 DUP1 DUP3 ADD PUSH1 0x0 PUSH2 0x100 EXP DUP2 SLOAD SWAP1 PUSH20 0xFFFFFFFFFFFFFFFFFFFFFFFFFFFFFFFFFFFFFFFF MUL NOT AND SWAP1 SSTORE PUSH1 0x1 DUP3 ADD PUSH1 0x0 SWAP1 SSTORE PUSH1 0x2 DUP3 ADD PUSH1 0x0 SWAP1 SSTORE POP POP PUSH2 0x14E PUSH2 0x341 JUMP JUMPDEST POP JUMP JUMPDEST PUSH1 0x0 SWAP1 JUMP JUMPDEST PUSH1 0x0 PUSH1 0x40 MLOAD DUP1 PUSH1 0x60 ADD PUSH1 0x40 MSTORE DUP1 CALLER PUSH20 0xFFFFFFFFFFFFFFFFFFFFFFFFFFFFFFFFFFFFFFFF AND DUP2 MSTORE PUSH1 0x20 ADD DUP4 DUP2 MSTORE PUSH1 0x20 ADD TIMESTAMP DUP2 MSTORE POP SWAP1 POP PUSH1 0x1 DUP2 SWAP1 DUP1 PUSH1 0x1 DUP2 SLOAD ADD DUP1 DUP3 SSTORE DUP1 SWAP2 POP POP PUSH1 0x1 SWAP1 SUB SWAP1 PUSH1 0x0 MSTORE PUSH1 0x20 PUSH1 0x0 KECCAK256 SWAP1 PUSH1 0x3 MUL ADD PUSH1 0x0 SWAP1 SWAP2 SWAP1 SWAP2 SWAP1 SWAP2 POP PUSH1 0x0 DUP3 ADD MLOAD DUP2 PUSH1 0x0 ADD PUSH1 0x0 PUSH2 0x100 EXP DUP2 SLOAD DUP2 PUSH20 0xFFFFFFFFFFFFFFFFFFFFFFFFFFFFFFFFFFFFFFFF MUL NOT AND SWAP1 DUP4 PUSH20 0xFFFFFFFFFFFFFFFFFFFFFFFFFFFFFFFFFFFFFFFF AND MUL OR SWAP1 SSTORE POP PUSH1 0x20 DUP3 ADD MLOAD DUP2 PUSH1 0x1 ADD SSTORE PUSH1 0x40 DUP3 ADD MLOAD DUP2 PUSH1 0x2 ADD SSTORE POP POP POP POP JUMP JUMPDEST PUSH1 0x0 DUP2 DUP2 SLOAD DUP2 LT PUSH2 0x22C JUMPI PUSH2 0x22B PUSH2 0x8DD JUMP JUMPDEST JUMPDEST SWAP1 PUSH1 0x0 MSTORE PUSH1 0x20 PUSH1 0x0 KECCAK256 SWAP1 PUSH1 0x3 MUL ADD PUSH1 0x0 DUP1 DUP3 ADD PUSH1 0x0 PUSH2 0x100 EXP DUP2 SLOAD SWAP1 PUSH20 0xFFFFFFFFFFFFFFFFFFFFFFFFFFFFFFFFFFFFFFFF MUL NOT AND SWAP1 SSTORE PUSH1 0x1 DUP3 ADD PUSH1 0x0 SWAP1 SSTORE PUSH1 0x2 DUP3 ADD PUSH1 0x0 SWAP1 SSTORE POP POP PUSH2 0x27C PUSH2 0x421 JUMP JUMPDEST POP JUMP JUMPDEST PUSH1 0x0 PUSH1 0x40 MLOAD DUP1 PUSH1 0x60 ADD PUSH1 0x40 MSTORE DUP1 CALLER PUSH20 0xFFFFFFFFFFFFFFFFFFFFFFFFFFFFFFFFFFFFFFFF AND DUP2 MSTORE PUSH1 0x20 ADD DUP4 DUP2 MSTORE PUSH1 0x20 ADD TIMESTAMP DUP2 MSTORE POP SWAP1 POP PUSH1 0x0 DUP2 SWAP1 DUP1 PUSH1 0x1 DUP2 SLOAD ADD DUP1 DUP3 SSTORE DUP1 SWAP2 POP POP PUSH1 0x1 SWAP1 SUB SWAP1 PUSH1 0x0 MSTORE PUSH1 0x20 PUSH1 0x0 KECCAK256 SWAP1 PUSH1 0x3 MUL ADD PUSH1 0x0 SWAP1 SWAP2 SWAP1 SWAP2 SWAP1 SWAP2 POP PUSH1 0x0 DUP3 ADD MLOAD DUP2 PUSH1 0x0 ADD PUSH1 0x0 PUSH2 0x100 EXP DUP2 SLOAD DUP2 PUSH20 0xFFFFFFFFFFFFFFFFFFFFFFFFFFFFFFFFFFFFFFFF MUL NOT AND SWAP1 DUP4 PUSH20 0xFFFFFFFFFFFFFFFFFFFFFFFFFFFFFFFFFFFFFFFF AND MUL OR SWAP1 SSTORE POP PUSH1 0x20 DUP3 ADD MLOAD DUP2 PUSH1 0x1 ADD SSTORE PUSH1 0x40 DUP3 ADD MLOAD DUP2 PUSH1 0x2 ADD SSTORE POP POP POP POP JUMP JUMPDEST PUSH2 0x41F PUSH1 0x0 DUP1 SLOAD DUP1 PUSH1 0x20 MUL PUSH1 0x20 ADD PUSH1 0x40 MLOAD SWAP1 DUP2 ADD PUSH1 0x40 MSTORE DUP1 SWAP3 SWAP2 SWAP1 DUP2 DUP2 MSTORE PUSH1 0x20 ADD PUSH1 0x0 SWAP1 JUMPDEST DUP3 DUP3 LT ISZERO PUSH2 0x402 JUMPI DUP4 DUP3 SWAP1 PUSH1 0x0 MSTORE PUSH1 0x20 PUSH1 0x0 KECCAK256 SWAP1 PUSH1 0x3 MUL ADD PUSH1 0x40 MLOAD DUP1 PUSH1 0x60 ADD PUSH1 0x40 MSTORE SWAP1 DUP2 PUSH1 0x0 DUP3 ADD PUSH1 0x0 SWAP1 SLOAD SWAP1 PUSH2 0x100 EXP SWAP1 DIV PUSH20 0xFFFFFFFFFFFFFFFFFFFFFFFFFFFFFFFFFFFFFFFF AND PUSH20 0xFFFFFFFFFFFFFFFFFFFFFFFFFFFFFFFFFFFFFFFF AND PUSH20 0xFFFFFFFFFFFFFFFFFFFFFFFFFFFFFFFFFFFFFFFF AND DUP2 MSTORE PUSH1 0x20 ADD PUSH1 0x1 DUP3 ADD SLOAD DUP2 MSTORE PUSH1 0x20 ADD PUSH1 0x2 DUP3 ADD SLOAD DUP2 MSTORE POP POP DUP2 MSTORE PUSH1 0x20 ADD SWAP1 PUSH1 0x1 ADD SWAP1 PUSH2 0x366 JUMP JUMPDEST POP POP POP POP PUSH1 0x0 PUSH1 0x1 PUSH1 0x0 DUP1 SLOAD SWAP1 POP PUSH2 0x41A SWAP2 SWAP1 PUSH2 0x93B JUMP JUMPDEST PUSH2 0x501 JUMP JUMPDEST JUMP JUMPDEST PUSH2 0x4FF PUSH1 0x0 DUP1 SLOAD DUP1 PUSH1 0x20 MUL PUSH1 0x20 ADD PUSH1 0x40 MLOAD SWAP1 DUP2 ADD PUSH1 0x40 MSTORE DUP1 SWAP3 SWAP2 SWAP1 DUP2 DUP2 MSTORE PUSH1 0x20 ADD PUSH1 0x0 SWAP1 JUMPDEST DUP3 DUP3 LT ISZERO PUSH2 0x4E2 JUMPI DUP4 DUP3 SWAP1 PUSH1 0x0 MSTORE PUSH1 0x20 PUSH1 0x0 KECCAK256 SWAP1 PUSH1 0x3 MUL ADD PUSH1 0x40 MLOAD DUP1 PUSH1 0x60 ADD PUSH1 0x40 MSTORE SWAP1 DUP2 PUSH1 0x0 DUP3 ADD PUSH1 0x0 SWAP1 SLOAD SWAP1 PUSH2 0x100 EXP SWAP1 DIV PUSH20 0xFFFFFFFFFFFFFFFFFFFFFFFFFFFFFFFFFFFFFFFF AND PUSH20 0xFFFFFFFFFFFFFFFFFFFFFFFFFFFFFFFFFFFFFFFF AND PUSH20 0xFFFFFFFFFFFFFFFFFFFFFFFFFFFFFFFFFFFFFFFF AND DUP2 MSTORE PUSH1 0x20 ADD PUSH1 0x1 DUP3 ADD SLOAD DUP2 MSTORE PUSH1 0x20 ADD PUSH1 0x2 DUP3 ADD SLOAD DUP2 MSTORE POP POP DUP2 MSTORE PUSH1 0x20 ADD SWAP1 PUSH1 0x1 ADD SWAP1 PUSH2 0x446 JUMP JUMPDEST POP POP POP POP PUSH1 0x0 PUSH1 0x1 PUSH1 0x0 DUP1 SLOAD SWAP1 POP PUSH2 0x4FA SWAP2 SWAP1 PUSH2 0x93B JUMP JUMPDEST PUSH2 0x6A6 JUMP JUMPDEST JUMP JUMPDEST PUSH1 0x0 DUP3 SWAP1 POP PUSH1 0x0 DUP3 SWAP1 POP DUP1 DUP3 SUB PUSH2 0x519 JUMPI POP POP PUSH2 0x6A1 JUMP JUMPDEST PUSH1 0x0 DUP6 PUSH1 0x2 DUP7 DUP7 PUSH2 0x52A SWAP2 SWAP1 PUSH2 0x979 JUMP JUMPDEST PUSH2 0x534 SWAP2 SWAP1 PUSH2 0xA3C JUMP JUMPDEST DUP7 PUSH2 0x53F SWAP2 SWAP1 PUSH2 0xAA6 JUMP JUMPDEST DUP2 MLOAD DUP2 LT PUSH2 0x550 JUMPI PUSH2 0x54F PUSH2 0x8DD JUMP JUMPDEST JUMPDEST PUSH1 0x20 MUL PUSH1 0x20 ADD ADD MLOAD PUSH1 0x40 ADD MLOAD SWAP1 POP JUMPDEST DUP2 DUP4 SGT PUSH2 0x675 JUMPI JUMPDEST DUP1 DUP7 DUP5 DUP2 MLOAD DUP2 LT PUSH2 0x57B JUMPI PUSH2 0x57A PUSH2 0x8DD JUMP JUMPDEST JUMPDEST PUSH1 0x20 MUL PUSH1 0x20 ADD ADD MLOAD PUSH1 0x40 ADD MLOAD GT ISZERO PUSH2 0x5A0 JUMPI DUP3 DUP1 PUSH2 0x598 SWAP1 PUSH2 0xB3A JUMP JUMPDEST SWAP4 POP POP PUSH2 0x567 JUMP JUMPDEST JUMPDEST DUP6 DUP3 DUP2 MLOAD DUP2 LT PUSH2 0x5B4 JUMPI PUSH2 0x5B3 PUSH2 0x8DD JUMP JUMPDEST JUMPDEST PUSH1 0x20 MUL PUSH1 0x20 ADD ADD MLOAD PUSH1 0x40 ADD MLOAD DUP2 GT ISZERO PUSH2 0x5DA JUMPI DUP2 DUP1 PUSH2 0x5D2 SWAP1 PUSH2 0xB82 JUMP JUMPDEST SWAP3 POP POP PUSH2 0x5A1 JUMP JUMPDEST DUP2 DUP4 SGT PUSH2 0x670 JUMPI DUP6 DUP3 DUP2 MLOAD DUP2 LT PUSH2 0x5F4 JUMPI PUSH2 0x5F3 PUSH2 0x8DD JUMP JUMPDEST JUMPDEST PUSH1 0x20 MUL PUSH1 0x20 ADD ADD MLOAD DUP7 DUP5 DUP2 MLOAD DUP2 LT PUSH2 0x60F JUMPI PUSH2 0x60E PUSH2 0x8DD JUMP JUMPDEST JUMPDEST PUSH1 0x20 MUL PUSH1 0x20 ADD ADD MLOAD DUP8 DUP6 DUP2 MLOAD DUP2 LT PUSH2 0x62A JUMPI PUSH2 0x629 PUSH2 0x8DD JUMP JUMPDEST JUMPDEST PUSH1 0x20 MUL PUSH1 0x20 ADD ADD DUP9 DUP6 DUP2 MLOAD DUP2 LT PUSH2 0x644 JUMPI PUSH2 0x643 PUSH2 0x8DD JUMP JUMPDEST JUMPDEST PUSH1 0x20 MUL PUSH1 0x20 ADD ADD DUP3 SWAP1 MSTORE DUP3 SWAP1 MSTORE POP POP DUP3 DUP1 PUSH2 0x65E SWAP1 PUSH2 0xB3A JUMP JUMPDEST SWAP4 POP POP DUP2 DUP1 PUSH2 0x66C SWAP1 PUSH2 0xB82 JUMP JUMPDEST SWAP3 POP POP JUMPDEST PUSH2 0x55F JUMP JUMPDEST DUP2 DUP6 SLT ISZERO PUSH2 0x689 JUMPI PUSH2 0x688 DUP7 DUP7 DUP5 PUSH2 0x501 JUMP JUMPDEST JUMPDEST DUP4 DUP4 SLT ISZERO PUSH2 0x69D JUMPI PUSH2 0x69C DUP7 DUP5 DUP7 PUSH2 0x501 JUMP JUMPDEST JUMPDEST POP POP POP JUMPDEST POP POP POP JUMP JUMPDEST PUSH1 0x0 DUP3 SWAP1 POP PUSH1 0x0 DUP3 SWAP1 POP DUP1 DUP3 SUB PUSH2 0x6BE JUMPI POP POP PUSH2 0x846 JUMP JUMPDEST PUSH1 0x0 DUP6 PUSH1 0x2 DUP7 DUP7 PUSH2 0x6CF SWAP2 SWAP1 PUSH2 0x979 JUMP JUMPDEST PUSH2 0x6D9 SWAP2 SWAP1 PUSH2 0xA3C JUMP JUMPDEST DUP7 PUSH2 0x6E4 SWAP2 SWAP1 PUSH2 0xAA6 JUMP JUMPDEST DUP2 MLOAD DUP2 LT PUSH2 0x6F5 JUMPI PUSH2 0x6F4 PUSH2 0x8DD JUMP JUMPDEST JUMPDEST PUSH1 0x20 MUL PUSH1 0x20 ADD ADD MLOAD PUSH1 0x40 ADD MLOAD SWAP1 POP JUMPDEST DUP2 DUP4 SGT PUSH2 0x81A JUMPI JUMPDEST DUP1 DUP7 DUP5 DUP2 MLOAD DUP2 LT PUSH2 0x720 JUMPI PUSH2 0x71F PUSH2 0x8DD JUMP JUMPDEST JUMPDEST PUSH1 0x20 MUL PUSH1 0x20 ADD ADD MLOAD PUSH1 0x40 ADD MLOAD LT ISZERO PUSH2 0x745 JUMPI DUP3 DUP1 PUSH2 0x73D SWAP1 PUSH2 0xB3A JUMP JUMPDEST SWAP4 POP POP PUSH2 0x70C JUMP JUMPDEST JUMPDEST DUP6 DUP3 DUP2 MLOAD DUP2 LT PUSH2 0x759 JUMPI PUSH2 0x758 PUSH2 0x8DD JUMP JUMPDEST JUMPDEST PUSH1 0x20 MUL PUSH1 0x20 ADD ADD MLOAD PUSH1 0x40 ADD MLOAD DUP2 LT ISZERO PUSH2 0x77F JUMPI DUP2 DUP1 PUSH2 0x777 SWAP1 PUSH2 0xB82 JUMP JUMPDEST SWAP3 POP POP PUSH2 0x746 JUMP JUMPDEST DUP2 DUP4 SGT PUSH2 0x815 JUMPI DUP6 DUP3 DUP2 MLOAD DUP2 LT PUSH2 0x799 JUMPI PUSH2 0x798 PUSH2 0x8DD JUMP JUMPDEST JUMPDEST PUSH1 0x20 MUL PUSH1 0x20 ADD ADD MLOAD DUP7 DUP5 DUP2 MLOAD DUP2 LT PUSH2 0x7B4 JUMPI PUSH2 0x7B3 PUSH2 0x8DD JUMP JUMPDEST JUMPDEST PUSH1 0x20 MUL PUSH1 0x20 ADD ADD MLOAD DUP8 DUP6 DUP2 MLOAD DUP2 LT PUSH2 0x7CF JUMPI PUSH2 0x7CE PUSH2 0x8DD JUMP JUMPDEST JUMPDEST PUSH1 0x20 MUL PUSH1 0x20 ADD ADD DUP9 DUP6 DUP2 MLOAD DUP2 LT PUSH2 0x7E9 JUMPI PUSH2 0x7E8 PUSH2 0x8DD JUMP JUMPDEST JUMPDEST PUSH1 0x20 MUL PUSH1 0x20 ADD ADD DUP3 SWAP1 MSTORE DUP3 SWAP1 MSTORE POP POP DUP3 DUP1 PUSH2 0x803 SWAP1 PUSH2 0xB3A JUMP JUMPDEST SWAP4 POP POP DUP2 DUP1 PUSH2 0x811 SWAP1 PUSH2 0xB82 JUMP JUMPDEST SWAP3 POP POP JUMPDEST PUSH2 0x704 JUMP JUMPDEST DUP2 DUP6 SLT ISZERO PUSH2 0x82E JUMPI PUSH2 0x82D DUP7 DUP7 DUP5 PUSH2 0x6A6 JUMP JUMPDEST JUMPDEST DUP4 DUP4 SLT ISZERO PUSH2 0x842 JUMPI PUSH2 0x841 DUP7 DUP5 DUP7 PUSH2 0x6A6 JUMP JUMPDEST JUMPDEST POP POP POP JUMPDEST POP POP POP JUMP JUMPDEST PUSH1 0x0 DUP1 REVERT JUMPDEST PUSH1 0x0 DUP2 SWAP1 POP SWAP2 SWAP1 POP JUMP JUMPDEST PUSH2 0x863 DUP2 PUSH2 0x850 JUMP JUMPDEST DUP2 EQ PUSH2 0x86E JUMPI PUSH1 0x0 DUP1 REVERT JUMPDEST POP JUMP JUMPDEST PUSH1 0x0 DUP2 CALLDATALOAD SWAP1 POP PUSH2 0x880 DUP2 PUSH2 0x85A JUMP JUMPDEST SWAP3 SWAP2 POP POP JUMP JUMPDEST PUSH1 0x0 PUSH1 0x20 DUP3 DUP5 SUB SLT ISZERO PUSH2 0x89C JUMPI PUSH2 0x89B PUSH2 0x84B JUMP JUMPDEST JUMPDEST PUSH1 0x0 PUSH2 0x8AA DUP5 DUP3 DUP6 ADD PUSH2 0x871 JUMP JUMPDEST SWAP2 POP POP SWAP3 SWAP2 POP POP JUMP JUMPDEST PUSH2 0x8BC DUP2 PUSH2 0x850 JUMP JUMPDEST DUP3 MSTORE POP POP JUMP JUMPDEST PUSH1 0x0 PUSH1 0x20 DUP3 ADD SWAP1 POP PUSH2 0x8D7 PUSH1 0x0 DUP4 ADD DUP5 PUSH2 0x8B3 JUMP JUMPDEST SWAP3 SWAP2 POP POP JUMP JUMPDEST PUSH32 0x4E487B7100000000000000000000000000000000000000000000000000000000 PUSH1 0x0 MSTORE PUSH1 0x32 PUSH1 0x4 MSTORE PUSH1 0x24 PUSH1 0x0 REVERT JUMPDEST PUSH32 0x4E487B7100000000000000000000000000000000000000000000000000000000 PUSH1 0x0 MSTORE PUSH1 0x11 PUSH1 0x4 MSTORE PUSH1 0x24 PUSH1 0x0 REVERT JUMPDEST PUSH1 0x0 PUSH2 0x946 DUP3 PUSH2 0x850 JUMP JUMPDEST SWAP2 POP PUSH2 0x951 DUP4 PUSH2 0x850 JUMP JUMPDEST SWAP3 POP DUP3 DUP3 LT ISZERO PUSH2 0x964 JUMPI PUSH2 0x963 PUSH2 0x90C JUMP JUMPDEST JUMPDEST DUP3 DUP3 SUB SWAP1 POP SWAP3 SWAP2 POP POP JUMP JUMPDEST PUSH1 0x0 DUP2 SWAP1 POP SWAP2 SWAP1 POP JUMP JUMPDEST PUSH1 0x0 PUSH2 0x984 DUP3 PUSH2 0x96F JUMP JUMPDEST SWAP2 POP PUSH2 0x98F DUP4 PUSH2 0x96F JUMP JUMPDEST SWAP3 POP DUP3 PUSH32 0x8000000000000000000000000000000000000000000000000000000000000000 ADD DUP3 SLT PUSH1 0x0 DUP5 SLT ISZERO AND ISZERO PUSH2 0x9CA JUMPI PUSH2 0x9C9 PUSH2 0x90C JUMP JUMPDEST JUMPDEST DUP3 PUSH32 0x7FFFFFFFFFFFFFFFFFFFFFFFFFFFFFFFFFFFFFFFFFFFFFFFFFFFFFFFFFFFFFFF ADD DUP3 SGT PUSH1 0x0 DUP5 SLT AND ISZERO PUSH2 0xA02 JUMPI PUSH2 0xA01 PUSH2 0x90C JUMP JUMPDEST JUMPDEST DUP3 DUP3 SUB SWAP1 POP SWAP3 SWAP2 POP POP JUMP JUMPDEST PUSH32 0x4E487B7100000000000000000000000000000000000000000000000000000000 PUSH1 0x0 MSTORE PUSH1 0x12 PUSH1 0x4 MSTORE PUSH1 0x24 PUSH1 0x0 REVERT JUMPDEST PUSH1 0x0 PUSH2 0xA47 DUP3 PUSH2 0x96F JUMP JUMPDEST SWAP2 POP PUSH2 0xA52 DUP4 PUSH2 0x96F JUMP JUMPDEST SWAP3 POP DUP3 PUSH2 0xA62 JUMPI PUSH2 0xA61 PUSH2 0xA0D JUMP JUMPDEST JUMPDEST PUSH1 0x1 PUSH1 0x0 SUB DUP4 EQ PUSH32 0x8000000000000000000000000000000000000000000000000000000000000000 DUP4 EQ AND ISZERO PUSH2 0xA9B JUMPI PUSH2 0xA9A PUSH2 0x90C JUMP JUMPDEST JUMPDEST DUP3 DUP3 SDIV SWAP1 POP SWAP3 SWAP2 POP POP JUMP JUMPDEST PUSH1 0x0 PUSH2 0xAB1 DUP3 PUSH2 0x96F JUMP JUMPDEST SWAP2 POP PUSH2 0xABC DUP4 PUSH2 0x96F JUMP JUMPDEST SWAP3 POP DUP2 PUSH32 0x7FFFFFFFFFFFFFFFFFFFFFFFFFFFFFFFFFFFFFFFFFFFFFFFFFFFFFFFFFFFFFFF SUB DUP4 SGT PUSH1 0x0 DUP4 SLT ISZERO AND ISZERO PUSH2 0xAF7 JUMPI PUSH2 0xAF6 PUSH2 0x90C JUMP JUMPDEST JUMPDEST DUP2 PUSH32 0x8000000000000000000000000000000000000000000000000000000000000000 SUB DUP4 SLT PUSH1 0x0 DUP4 SLT AND ISZERO PUSH2 0xB2F JUMPI PUSH2 0xB2E PUSH2 0x90C JUMP JUMPDEST JUMPDEST DUP3 DUP3 ADD SWAP1 POP SWAP3 SWAP2 POP POP JUMP JUMPDEST PUSH1 0x0 PUSH2 0xB45 DUP3 PUSH2 0x96F JUMP JUMPDEST SWAP2 POP PUSH32 0x7FFFFFFFFFFFFFFFFFFFFFFFFFFFFFFFFFFFFFFFFFFFFFFFFFFFFFFFFFFFFFFF DUP3 SUB PUSH2 0xB77 JUMPI PUSH2 0xB76 PUSH2 0x90C JUMP JUMPDEST JUMPDEST PUSH1 0x1 DUP3 ADD SWAP1 POP SWAP2 SWAP1 POP JUMP JUMPDEST PUSH1 0x0 PUSH2 0xB8D DUP3 PUSH2 0x96F JUMP JUMPDEST SWAP2 POP PUSH32 0x8000000000000000000000000000000000000000000000000000000000000000 DUP3 SUB PUSH2 0xBBF JUMPI PUSH2 0xBBE PUSH2 0x90C JUMP JUMPDEST JUMPDEST PUSH1 0x1 DUP3 SUB SWAP1 POP SWAP2 SWAP1 POP JUMP INVALID LOG2 PUSH5 0x6970667358 0x22 SLT KECCAK256 SAR NOT OR DUP3 SWAP6 0xF9 0xB0 0xB5 NUMBER 0xD3 CALLDATASIZE 0xE0 0xB5 ADD PUSH13 0xCEDE50C8488A0868F76DB38A5B 0x22 PUSH3 0x5DDD64 PUSH20 0x6F6C634300080D00330000000000000000000000 "
				},
				"gasEstimates": {
					"creation": {
						"codeDepositCost": "614400",
						"executionCost": "645",
						"totalCost": "615045"
					},
					"external": {
						"cancelAsk(uint256)": "infinite",
						"cancelBid(uint256)": "infinite",
						"fetchYourBid()": "329",
						"placeAsk(uint256)": "93381",
						"placeBid(uint256)": "93425"
					},
					"internal": {
						"ascendingQuickSort(struct OrderBook.order memory[] memory,int256,int256)": "infinite",
						"descendingQuickSort(struct OrderBook.order memory[] memory,int256,int256)": "infinite",
						"sortAsk()": "infinite",
						"sortBid()": "infinite"
					}
				},
				"methodIdentifiers": {
					"cancelAsk(uint256)": "1628e0f5",
					"cancelBid(uint256)": "9703ef35",
					"fetchYourBid()": "492ac800",
					"placeAsk(uint256)": "78c5b268",
					"placeBid(uint256)": "9979ef45"
				}
			},
			"storageLayout": {
				"storage": [
					{
						"astId": 12,
						"contract": "contracts/OrderBook.sol:OrderBook",
						"label": "bidBook",
						"offset": 0,
						"slot": "0",
						"type": "t_array(t_struct(order)8_storage)dyn_storage"
					},
					{
						"astId": 16,
						"contract": "contracts/OrderBook.sol:OrderBook",
						"label": "askBook",
						"offset": 0,
						"slot": "1",
						"type": "t_array(t_struct(order)8_storage)dyn_storage"
					}
				],
				"types": {
					"t_address_payable": {
						"encoding": "inplace",
						"label": "address payable",
						"numberOfBytes": "20"
					},
					"t_array(t_struct(order)8_storage)dyn_storage": {
						"base": "t_struct(order)8_storage",
						"encoding": "dynamic_array",
						"label": "struct OrderBook.order[]",
						"numberOfBytes": "32"
					},
					"t_struct(order)8_storage": {
						"encoding": "inplace",
						"label": "struct OrderBook.order",
						"members": [
							{
								"astId": 3,
								"contract": "contracts/OrderBook.sol:OrderBook",
								"label": "customer",
								"offset": 0,
								"slot": "0",
								"type": "t_address_payable"
							},
							{
								"astId": 5,
								"contract": "contracts/OrderBook.sol:OrderBook",
								"label": "price",
								"offset": 0,
								"slot": "1",
								"type": "t_uint256"
							},
							{
								"astId": 7,
								"contract": "contracts/OrderBook.sol:OrderBook",
								"label": "timestamp",
								"offset": 0,
								"slot": "2",
								"type": "t_uint256"
							}
						],
						"numberOfBytes": "96"
					},
					"t_uint256": {
						"encoding": "inplace",
						"label": "uint256",
						"numberOfBytes": "32"
					}
				}
			},
			"userdoc": {
				"kind": "user",
				"methods": {},
				"version": 1
			}
		}
	}
}