{
	"contracts/OrderBook.sol": {
		"OrderBook": {
			"abi": [
				{
					"inputs": [
						{
							"internalType": "uint256",
							"name": "askId",
							"type": "uint256"
						}
					],
					"name": "cancelAsk",
					"outputs": [],
					"stateMutability": "nonpayable",
					"type": "function"
				},
				{
					"inputs": [
						{
							"internalType": "uint256",
							"name": "bidId",
							"type": "uint256"
						}
					],
					"name": "cancelBid",
					"outputs": [],
					"stateMutability": "nonpayable",
					"type": "function"
				},
				{
					"inputs": [],
					"name": "fetchYourBidIds",
					"outputs": [
						{
							"internalType": "uint256[]",
							"name": "",
							"type": "uint256[]"
						}
					],
					"stateMutability": "nonpayable",
					"type": "function"
				},
				{
					"inputs": [
						{
							"internalType": "uint256",
							"name": "price",
							"type": "uint256"
						}
					],
					"name": "placeAsk",
					"outputs": [],
					"stateMutability": "nonpayable",
					"type": "function"
				},
				{
					"inputs": [
						{
							"internalType": "uint256",
							"name": "price",
							"type": "uint256"
						}
					],
					"name": "placeBid",
					"outputs": [],
					"stateMutability": "nonpayable",
					"type": "function"
				}
			],
			"devdoc": {
				"kind": "dev",
				"methods": {},
				"version": 1
			},
			"evm": {
				"assembly": "    /* \"contracts/OrderBook.sol\":730:3793  contract OrderBook {... */\n  mstore(0x40, 0x80)\n  callvalue\n  dup1\n  iszero\n  tag_1\n  jumpi\n  0x00\n  dup1\n  revert\ntag_1:\n  pop\n  dataSize(sub_0)\n  dup1\n  dataOffset(sub_0)\n  0x00\n  codecopy\n  0x00\n  return\nstop\n\nsub_0: assembly {\n        /* \"contracts/OrderBook.sol\":730:3793  contract OrderBook {... */\n      mstore(0x40, 0x80)\n      callvalue\n      dup1\n      iszero\n      tag_1\n      jumpi\n      0x00\n      dup1\n      revert\n    tag_1:\n      pop\n      jumpi(tag_2, lt(calldatasize, 0x04))\n      shr(0xe0, calldataload(0x00))\n      dup1\n      0x1628e0f5\n      eq\n      tag_3\n      jumpi\n      dup1\n      0x78c5b268\n      eq\n      tag_4\n      jumpi\n      dup1\n      0x9703ef35\n      eq\n      tag_5\n      jumpi\n      dup1\n      0x9979ef45\n      eq\n      tag_6\n      jumpi\n      dup1\n      0xce0cdc87\n      eq\n      tag_7\n      jumpi\n    tag_2:\n      0x00\n      dup1\n      revert\n        /* \"contracts/OrderBook.sol\":3198:3303  function cancelAsk (uint256 askId) public {... */\n    tag_3:\n      tag_8\n      0x04\n      dup1\n      calldatasize\n      sub\n      dup2\n      add\n      swap1\n      tag_9\n      swap2\n      swap1\n      tag_10\n      jump\t// in\n    tag_9:\n      tag_11\n      jump\t// in\n    tag_8:\n      stop\n        /* \"contracts/OrderBook.sol\":3034:3192  function placeAsk (uint256 price) public {... */\n    tag_4:\n      tag_12\n      0x04\n      dup1\n      calldatasize\n      sub\n      dup2\n      add\n      swap1\n      tag_13\n      swap2\n      swap1\n      tag_10\n      jump\t// in\n    tag_13:\n      tag_14\n      jump\t// in\n    tag_12:\n      stop\n        /* \"contracts/OrderBook.sol\":2929:3028  function cancelBid (uint256 bidId) public {... */\n    tag_5:\n      tag_15\n      0x04\n      dup1\n      calldatasize\n      sub\n      dup2\n      add\n      swap1\n      tag_16\n      swap2\n      swap1\n      tag_10\n      jump\t// in\n    tag_16:\n      tag_17\n      jump\t// in\n    tag_15:\n      stop\n        /* \"contracts/OrderBook.sol\":2742:2900  function placeBid (uint256 price) public {... */\n    tag_6:\n      tag_18\n      0x04\n      dup1\n      calldatasize\n      sub\n      dup2\n      add\n      swap1\n      tag_19\n      swap2\n      swap1\n      tag_10\n      jump\t// in\n    tag_19:\n      tag_20\n      jump\t// in\n    tag_18:\n      stop\n        /* \"contracts/OrderBook.sol\":3389:3672  function fetchYourBidIds() public returns (uint[] memory) {... */\n    tag_7:\n      tag_21\n      tag_22\n      jump\t// in\n    tag_21:\n      mload(0x40)\n      tag_23\n      swap2\n      swap1\n      tag_24\n      jump\t// in\n    tag_23:\n      mload(0x40)\n      dup1\n      swap2\n      sub\n      swap1\n      return\n        /* \"contracts/OrderBook.sol\":3198:3303  function cancelAsk (uint256 askId) public {... */\n    tag_11:\n        /* \"contracts/OrderBook.sol\":3257:3264  askBook */\n      0x01\n        /* \"contracts/OrderBook.sol\":3265:3270  askId */\n      dup2\n        /* \"contracts/OrderBook.sol\":3257:3271  askBook[askId] */\n      dup2\n      sload\n      dup2\n      lt\n      tag_26\n      jumpi\n      tag_27\n      tag_28\n      jump\t// in\n    tag_27:\n    tag_26:\n      swap1\n      0x00\n      mstore\n      keccak256(0x00, 0x20)\n      swap1\n      0x03\n      mul\n      add\n      0x00\n        /* \"contracts/OrderBook.sol\":3250:3271  delete askBook[askId] */\n      dup1\n      dup3\n      add\n      exp(0x0100, 0x00)\n      dup2\n      sload\n      swap1\n      0xffffffffffffffffffffffffffffffffffffffff\n      mul\n      not\n      and\n      swap1\n      sstore\n      0x01\n      dup3\n      add\n      0x00\n      swap1\n      sstore\n      0x02\n      dup3\n      add\n      0x00\n      swap1\n      sstore\n      pop\n      pop\n        /* \"contracts/OrderBook.sol\":3281:3290  sortAsk() */\n      tag_30\n        /* \"contracts/OrderBook.sol\":3281:3288  sortAsk */\n      tag_31\n        /* \"contracts/OrderBook.sol\":3281:3290  sortAsk() */\n      jump\t// in\n    tag_30:\n        /* \"contracts/OrderBook.sol\":3198:3303  function cancelAsk (uint256 askId) public {... */\n      pop\n      jump\t// out\n        /* \"contracts/OrderBook.sol\":3034:3192  function placeAsk (uint256 price) public {... */\n    tag_14:\n        /* \"contracts/OrderBook.sol\":3085:3104  order memory newBid */\n      0x00\n        /* \"contracts/OrderBook.sol\":3107:3155  order(payable(msg.sender),price,block.timestamp) */\n      mload(0x40)\n      dup1\n      0x60\n      add\n      0x40\n      mstore\n      dup1\n        /* \"contracts/OrderBook.sol\":3121:3131  msg.sender */\n      caller\n        /* \"contracts/OrderBook.sol\":3107:3155  order(payable(msg.sender),price,block.timestamp) */\n      0xffffffffffffffffffffffffffffffffffffffff\n      and\n      dup2\n      mstore\n      0x20\n      add\n        /* \"contracts/OrderBook.sol\":3133:3138  price */\n      dup4\n        /* \"contracts/OrderBook.sol\":3107:3155  order(payable(msg.sender),price,block.timestamp) */\n      dup2\n      mstore\n      0x20\n      add\n        /* \"contracts/OrderBook.sol\":3139:3154  block.timestamp */\n      timestamp\n        /* \"contracts/OrderBook.sol\":3107:3155  order(payable(msg.sender),price,block.timestamp) */\n      dup2\n      mstore\n      pop\n        /* \"contracts/OrderBook.sol\":3085:3155  order memory newBid = order(payable(msg.sender),price,block.timestamp) */\n      swap1\n      pop\n        /* \"contracts/OrderBook.sol\":3165:3172  askBook */\n      0x01\n        /* \"contracts/OrderBook.sol\":3178:3184  newBid */\n      dup2\n        /* \"contracts/OrderBook.sol\":3165:3185  askBook.push(newBid) */\n      swap1\n      dup1\n      0x01\n      dup2\n      sload\n      add\n      dup1\n      dup3\n      sstore\n      dup1\n      swap2\n      pop\n      pop\n      0x01\n      swap1\n      sub\n      swap1\n      0x00\n      mstore\n      keccak256(0x00, 0x20)\n      swap1\n      0x03\n      mul\n      add\n      0x00\n      swap1\n      swap2\n      swap1\n      swap2\n      swap1\n      swap2\n      pop\n      0x00\n      dup3\n      add\n      mload\n      dup2\n      0x00\n      add\n      exp(0x0100, 0x00)\n      dup2\n      sload\n      dup2\n      0xffffffffffffffffffffffffffffffffffffffff\n      mul\n      not\n      and\n      swap1\n      dup4\n      0xffffffffffffffffffffffffffffffffffffffff\n      and\n      mul\n      or\n      swap1\n      sstore\n      pop\n      0x20\n      dup3\n      add\n      mload\n      dup2\n      0x01\n      add\n      sstore\n      0x40\n      dup3\n      add\n      mload\n      dup2\n      0x02\n      add\n      sstore\n      pop\n      pop\n        /* \"contracts/OrderBook.sol\":3075:3192  {... */\n      pop\n        /* \"contracts/OrderBook.sol\":3034:3192  function placeAsk (uint256 price) public {... */\n      pop\n      jump\t// out\n        /* \"contracts/OrderBook.sol\":2929:3028  function cancelBid (uint256 bidId) public {... */\n    tag_17:\n        /* \"contracts/OrderBook.sol\":2988:2995  bidBook */\n      0x00\n        /* \"contracts/OrderBook.sol\":2996:3001  bidId */\n      dup2\n        /* \"contracts/OrderBook.sol\":2988:3002  bidBook[bidId] */\n      dup2\n      sload\n      dup2\n      lt\n      tag_35\n      jumpi\n      tag_36\n      tag_28\n      jump\t// in\n    tag_36:\n    tag_35:\n      swap1\n      0x00\n      mstore\n      keccak256(0x00, 0x20)\n      swap1\n      0x03\n      mul\n      add\n      0x00\n        /* \"contracts/OrderBook.sol\":2981:3002  delete bidBook[bidId] */\n      dup1\n      dup3\n      add\n      exp(0x0100, 0x00)\n      dup2\n      sload\n      swap1\n      0xffffffffffffffffffffffffffffffffffffffff\n      mul\n      not\n      and\n      swap1\n      sstore\n      0x01\n      dup3\n      add\n      0x00\n      swap1\n      sstore\n      0x02\n      dup3\n      add\n      0x00\n      swap1\n      sstore\n      pop\n      pop\n        /* \"contracts/OrderBook.sol\":3012:3021  sortBid() */\n      tag_38\n        /* \"contracts/OrderBook.sol\":3012:3019  sortBid */\n      tag_39\n        /* \"contracts/OrderBook.sol\":3012:3021  sortBid() */\n      jump\t// in\n    tag_38:\n        /* \"contracts/OrderBook.sol\":2929:3028  function cancelBid (uint256 bidId) public {... */\n      pop\n      jump\t// out\n        /* \"contracts/OrderBook.sol\":2742:2900  function placeBid (uint256 price) public {... */\n    tag_20:\n        /* \"contracts/OrderBook.sol\":2793:2812  order memory newBid */\n      0x00\n        /* \"contracts/OrderBook.sol\":2815:2863  order(payable(msg.sender),price,block.timestamp) */\n      mload(0x40)\n      dup1\n      0x60\n      add\n      0x40\n      mstore\n      dup1\n        /* \"contracts/OrderBook.sol\":2829:2839  msg.sender */\n      caller\n        /* \"contracts/OrderBook.sol\":2815:2863  order(payable(msg.sender),price,block.timestamp) */\n      0xffffffffffffffffffffffffffffffffffffffff\n      and\n      dup2\n      mstore\n      0x20\n      add\n        /* \"contracts/OrderBook.sol\":2841:2846  price */\n      dup4\n        /* \"contracts/OrderBook.sol\":2815:2863  order(payable(msg.sender),price,block.timestamp) */\n      dup2\n      mstore\n      0x20\n      add\n        /* \"contracts/OrderBook.sol\":2847:2862  block.timestamp */\n      timestamp\n        /* \"contracts/OrderBook.sol\":2815:2863  order(payable(msg.sender),price,block.timestamp) */\n      dup2\n      mstore\n      pop\n        /* \"contracts/OrderBook.sol\":2793:2863  order memory newBid = order(payable(msg.sender),price,block.timestamp) */\n      swap1\n      pop\n        /* \"contracts/OrderBook.sol\":2873:2880  bidBook */\n      0x00\n        /* \"contracts/OrderBook.sol\":2886:2892  newBid */\n      dup2\n        /* \"contracts/OrderBook.sol\":2873:2893  bidBook.push(newBid) */\n      swap1\n      dup1\n      0x01\n      dup2\n      sload\n      add\n      dup1\n      dup3\n      sstore\n      dup1\n      swap2\n      pop\n      pop\n      0x01\n      swap1\n      sub\n      swap1\n      0x00\n      mstore\n      keccak256(0x00, 0x20)\n      swap1\n      0x03\n      mul\n      add\n      0x00\n      swap1\n      swap2\n      swap1\n      swap2\n      swap1\n      swap2\n      pop\n      0x00\n      dup3\n      add\n      mload\n      dup2\n      0x00\n      add\n      exp(0x0100, 0x00)\n      dup2\n      sload\n      dup2\n      0xffffffffffffffffffffffffffffffffffffffff\n      mul\n      not\n      and\n      swap1\n      dup4\n      0xffffffffffffffffffffffffffffffffffffffff\n      and\n      mul\n      or\n      swap1\n      sstore\n      pop\n      0x20\n      dup3\n      add\n      mload\n      dup2\n      0x01\n      add\n      sstore\n      0x40\n      dup3\n      add\n      mload\n      dup2\n      0x02\n      add\n      sstore\n      pop\n      pop\n        /* \"contracts/OrderBook.sol\":2783:2900  {... */\n      pop\n        /* \"contracts/OrderBook.sol\":2742:2900  function placeBid (uint256 price) public {... */\n      pop\n      jump\t// out\n        /* \"contracts/OrderBook.sol\":3389:3672  function fetchYourBidIds() public returns (uint[] memory) {... */\n    tag_22:\n        /* \"contracts/OrderBook.sol\":3432:3445  uint[] memory */\n      0x60\n        /* \"contracts/OrderBook.sol\":3457:3470  deleteArray() */\n      tag_43\n        /* \"contracts/OrderBook.sol\":3457:3468  deleteArray */\n      tag_44\n        /* \"contracts/OrderBook.sol\":3457:3470  deleteArray() */\n      jump\t// in\n    tag_43:\n        /* \"contracts/OrderBook.sol\":3485:3491  uint i */\n      0x00\n        /* \"contracts/OrderBook.sol\":3480:3642  for (uint i = 0; i < bidBook.length; i++) {... */\n    tag_45:\n        /* \"contracts/OrderBook.sol\":3501:3508  bidBook */\n      0x00\n        /* \"contracts/OrderBook.sol\":3501:3515  bidBook.length */\n      dup1\n      sload\n      swap1\n      pop\n        /* \"contracts/OrderBook.sol\":3497:3498  i */\n      dup2\n        /* \"contracts/OrderBook.sol\":3497:3515  i < bidBook.length */\n      lt\n        /* \"contracts/OrderBook.sol\":3480:3642  for (uint i = 0; i < bidBook.length; i++) {... */\n      iszero\n      tag_46\n      jumpi\n        /* \"contracts/OrderBook.sol\":3571:3581  msg.sender */\n      caller\n        /* \"contracts/OrderBook.sol\":3540:3582  bidBook[i].customer == payable(msg.sender) */\n      0xffffffffffffffffffffffffffffffffffffffff\n      and\n        /* \"contracts/OrderBook.sol\":3540:3547  bidBook */\n      0x00\n        /* \"contracts/OrderBook.sol\":3548:3549  i */\n      dup3\n        /* \"contracts/OrderBook.sol\":3540:3550  bidBook[i] */\n      dup2\n      sload\n      dup2\n      lt\n      tag_48\n      jumpi\n      tag_49\n      tag_28\n      jump\t// in\n    tag_49:\n    tag_48:\n      swap1\n      0x00\n      mstore\n      keccak256(0x00, 0x20)\n      swap1\n      0x03\n      mul\n      add\n        /* \"contracts/OrderBook.sol\":3540:3559  bidBook[i].customer */\n      0x00\n      add\n      0x00\n      swap1\n      sload\n      swap1\n      0x0100\n      exp\n      swap1\n      div\n      0xffffffffffffffffffffffffffffffffffffffff\n      and\n        /* \"contracts/OrderBook.sol\":3540:3582  bidBook[i].customer == payable(msg.sender) */\n      0xffffffffffffffffffffffffffffffffffffffff\n      and\n      sub\n        /* \"contracts/OrderBook.sol\":3536:3632  if (bidBook[i].customer == payable(msg.sender)) {... */\n      tag_51\n      jumpi\n        /* \"contracts/OrderBook.sol\":3602:3609  request */\n      0x02\n        /* \"contracts/OrderBook.sol\":3615:3616  i */\n      dup2\n        /* \"contracts/OrderBook.sol\":3602:3617  request.push(i) */\n      swap1\n      dup1\n      0x01\n      dup2\n      sload\n      add\n      dup1\n      dup3\n      sstore\n      dup1\n      swap2\n      pop\n      pop\n      0x01\n      swap1\n      sub\n      swap1\n      0x00\n      mstore\n      keccak256(0x00, 0x20)\n      add\n      0x00\n      swap1\n      swap2\n      swap1\n      swap2\n      swap1\n      swap2\n      pop\n      sstore\n        /* \"contracts/OrderBook.sol\":3536:3632  if (bidBook[i].customer == payable(msg.sender)) {... */\n    tag_51:\n        /* \"contracts/OrderBook.sol\":3517:3520  i++ */\n      dup1\n      dup1\n      tag_53\n      swap1\n      tag_54\n      jump\t// in\n    tag_53:\n      swap2\n      pop\n      pop\n        /* \"contracts/OrderBook.sol\":3480:3642  for (uint i = 0; i < bidBook.length; i++) {... */\n      jump(tag_45)\n    tag_46:\n      pop\n        /* \"contracts/OrderBook.sol\":3658:3665  request */\n      0x02\n        /* \"contracts/OrderBook.sol\":3651:3665  return request */\n      dup1\n      sload\n      dup1\n      0x20\n      mul\n      0x20\n      add\n      mload(0x40)\n      swap1\n      dup2\n      add\n      0x40\n      mstore\n      dup1\n      swap3\n      swap2\n      swap1\n      dup2\n      dup2\n      mstore\n      0x20\n      add\n      dup3\n      dup1\n      sload\n      dup1\n      iszero\n      tag_55\n      jumpi\n      0x20\n      mul\n      dup3\n      add\n      swap2\n      swap1\n      0x00\n      mstore\n      keccak256(0x00, 0x20)\n      swap1\n    tag_56:\n      dup2\n      sload\n      dup2\n      mstore\n      0x20\n      add\n      swap1\n      0x01\n      add\n      swap1\n      dup1\n      dup4\n      gt\n      tag_56\n      jumpi\n    tag_55:\n      pop\n      pop\n      pop\n      pop\n      pop\n      swap1\n      pop\n        /* \"contracts/OrderBook.sol\":3389:3672  function fetchYourBidIds() public returns (uint[] memory) {... */\n      swap1\n      jump\t// out\n        /* \"contracts/OrderBook.sol\":1093:1212  function sortAsk() internal {... */\n    tag_31:\n        /* \"contracts/OrderBook.sol\":1130:1190  ascendingQuickSort(bidBook, int(0), int(bidBook.length - 1)) */\n      tag_58\n        /* \"contracts/OrderBook.sol\":1149:1156  bidBook */\n      0x00\n        /* \"contracts/OrderBook.sol\":1130:1190  ascendingQuickSort(bidBook, int(0), int(bidBook.length - 1)) */\n      dup1\n      sload\n      dup1\n      0x20\n      mul\n      0x20\n      add\n      mload(0x40)\n      swap1\n      dup2\n      add\n      0x40\n      mstore\n      dup1\n      swap3\n      swap2\n      swap1\n      dup2\n      dup2\n      mstore\n      0x20\n      add\n      0x00\n      swap1\n    tag_59:\n      dup3\n      dup3\n      lt\n      iszero\n      tag_60\n      jumpi\n      dup4\n      dup3\n      swap1\n      0x00\n      mstore\n      keccak256(0x00, 0x20)\n      swap1\n      0x03\n      mul\n      add\n      mload(0x40)\n      dup1\n      0x60\n      add\n      0x40\n      mstore\n      swap1\n      dup2\n      0x00\n      dup3\n      add\n      0x00\n      swap1\n      sload\n      swap1\n      0x0100\n      exp\n      swap1\n      div\n      0xffffffffffffffffffffffffffffffffffffffff\n      and\n      0xffffffffffffffffffffffffffffffffffffffff\n      and\n      0xffffffffffffffffffffffffffffffffffffffff\n      and\n      dup2\n      mstore\n      0x20\n      add\n      0x01\n      dup3\n      add\n      sload\n      dup2\n      mstore\n      0x20\n      add\n      0x02\n      dup3\n      add\n      sload\n      dup2\n      mstore\n      pop\n      pop\n      dup2\n      mstore\n      0x20\n      add\n      swap1\n      0x01\n      add\n      swap1\n      jump(tag_59)\n    tag_60:\n      pop\n      pop\n      pop\n      pop\n        /* \"contracts/OrderBook.sol\":1162:1163  0 */\n      0x00\n        /* \"contracts/OrderBook.sol\":1187:1188  1 */\n      0x01\n        /* \"contracts/OrderBook.sol\":1170:1177  bidBook */\n      0x00\n        /* \"contracts/OrderBook.sol\":1170:1184  bidBook.length */\n      dup1\n      sload\n      swap1\n      pop\n        /* \"contracts/OrderBook.sol\":1170:1188  bidBook.length - 1 */\n      tag_62\n      swap2\n      swap1\n      tag_63\n      jump\t// in\n    tag_62:\n        /* \"contracts/OrderBook.sol\":1130:1148  ascendingQuickSort */\n      tag_64\n        /* \"contracts/OrderBook.sol\":1130:1190  ascendingQuickSort(bidBook, int(0), int(bidBook.length - 1)) */\n      jump\t// in\n    tag_58:\n        /* \"contracts/OrderBook.sol\":1093:1212  function sortAsk() internal {... */\n      jump\t// out\n        /* \"contracts/OrderBook.sol\":967:1087  function sortBid() internal {... */\n    tag_39:\n        /* \"contracts/OrderBook.sol\":1004:1065  descendingQuickSort(bidBook, int(0), int(bidBook.length - 1)) */\n      tag_66\n        /* \"contracts/OrderBook.sol\":1024:1031  bidBook */\n      0x00\n        /* \"contracts/OrderBook.sol\":1004:1065  descendingQuickSort(bidBook, int(0), int(bidBook.length - 1)) */\n      dup1\n      sload\n      dup1\n      0x20\n      mul\n      0x20\n      add\n      mload(0x40)\n      swap1\n      dup2\n      add\n      0x40\n      mstore\n      dup1\n      swap3\n      swap2\n      swap1\n      dup2\n      dup2\n      mstore\n      0x20\n      add\n      0x00\n      swap1\n    tag_67:\n      dup3\n      dup3\n      lt\n      iszero\n      tag_68\n      jumpi\n      dup4\n      dup3\n      swap1\n      0x00\n      mstore\n      keccak256(0x00, 0x20)\n      swap1\n      0x03\n      mul\n      add\n      mload(0x40)\n      dup1\n      0x60\n      add\n      0x40\n      mstore\n      swap1\n      dup2\n      0x00\n      dup3\n      add\n      0x00\n      swap1\n      sload\n      swap1\n      0x0100\n      exp\n      swap1\n      div\n      0xffffffffffffffffffffffffffffffffffffffff\n      and\n      0xffffffffffffffffffffffffffffffffffffffff\n      and\n      0xffffffffffffffffffffffffffffffffffffffff\n      and\n      dup2\n      mstore\n      0x20\n      add\n      0x01\n      dup3\n      add\n      sload\n      dup2\n      mstore\n      0x20\n      add\n      0x02\n      dup3\n      add\n      sload\n      dup2\n      mstore\n      pop\n      pop\n      dup2\n      mstore\n      0x20\n      add\n      swap1\n      0x01\n      add\n      swap1\n      jump(tag_67)\n    tag_68:\n      pop\n      pop\n      pop\n      pop\n        /* \"contracts/OrderBook.sol\":1037:1038  0 */\n      0x00\n        /* \"contracts/OrderBook.sol\":1062:1063  1 */\n      0x01\n        /* \"contracts/OrderBook.sol\":1045:1052  bidBook */\n      0x00\n        /* \"contracts/OrderBook.sol\":1045:1059  bidBook.length */\n      dup1\n      sload\n      swap1\n      pop\n        /* \"contracts/OrderBook.sol\":1045:1063  bidBook.length - 1 */\n      tag_70\n      swap2\n      swap1\n      tag_63\n      jump\t// in\n    tag_70:\n        /* \"contracts/OrderBook.sol\":1004:1023  descendingQuickSort */\n      tag_71\n        /* \"contracts/OrderBook.sol\":1004:1065  descendingQuickSort(bidBook, int(0), int(bidBook.length - 1)) */\n      jump\t// in\n    tag_66:\n        /* \"contracts/OrderBook.sol\":967:1087  function sortBid() internal {... */\n      jump\t// out\n        /* \"contracts/OrderBook.sol\":1218:1351  function deleteArray() internal {... */\n    tag_44:\n        /* \"contracts/OrderBook.sol\":1265:1271  uint i */\n      0x00\n        /* \"contracts/OrderBook.sol\":1260:1345  for (uint i = 0; i < request.length; i ++) {... */\n    tag_73:\n        /* \"contracts/OrderBook.sol\":1281:1288  request */\n      0x02\n        /* \"contracts/OrderBook.sol\":1281:1295  request.length */\n      dup1\n      sload\n      swap1\n      pop\n        /* \"contracts/OrderBook.sol\":1277:1278  i */\n      dup2\n        /* \"contracts/OrderBook.sol\":1277:1295  i < request.length */\n      lt\n        /* \"contracts/OrderBook.sol\":1260:1345  for (uint i = 0; i < request.length; i ++) {... */\n      iszero\n      tag_74\n      jumpi\n        /* \"contracts/OrderBook.sol\":1324:1331  request */\n      0x02\n        /* \"contracts/OrderBook.sol\":1332:1333  i */\n      dup2\n        /* \"contracts/OrderBook.sol\":1324:1334  request[i] */\n      dup2\n      sload\n      dup2\n      lt\n      tag_76\n      jumpi\n      tag_77\n      tag_28\n      jump\t// in\n    tag_77:\n    tag_76:\n      swap1\n      0x00\n      mstore\n      keccak256(0x00, 0x20)\n      add\n        /* \"contracts/OrderBook.sol\":1317:1334  delete request[i] */\n      0x00\n      swap1\n      sstore\n        /* \"contracts/OrderBook.sol\":1297:1301  i ++ */\n      dup1\n      dup1\n      tag_79\n      swap1\n      tag_54\n      jump\t// in\n    tag_79:\n      swap2\n      pop\n      pop\n        /* \"contracts/OrderBook.sol\":1260:1345  for (uint i = 0; i < request.length; i ++) {... */\n      jump(tag_73)\n    tag_74:\n      pop\n        /* \"contracts/OrderBook.sol\":1218:1351  function deleteArray() internal {... */\n      jump\t// out\n        /* \"contracts/OrderBook.sol\":2036:2706  function ascendingQuickSort(order[] memory arr, int left, int right) internal{... */\n    tag_64:\n        /* \"contracts/OrderBook.sol\":2123:2128  int i */\n      0x00\n        /* \"contracts/OrderBook.sol\":2131:2135  left */\n      dup3\n        /* \"contracts/OrderBook.sol\":2123:2135  int i = left */\n      swap1\n      pop\n        /* \"contracts/OrderBook.sol\":2145:2150  int j */\n      0x00\n        /* \"contracts/OrderBook.sol\":2153:2158  right */\n      dup3\n        /* \"contracts/OrderBook.sol\":2145:2158  int j = right */\n      swap1\n      pop\n        /* \"contracts/OrderBook.sol\":2174:2175  j */\n      dup1\n        /* \"contracts/OrderBook.sol\":2171:2172  i */\n      dup3\n        /* \"contracts/OrderBook.sol\":2171:2175  i==j */\n      sub\n        /* \"contracts/OrderBook.sol\":2168:2184  if(i==j) return; */\n      tag_81\n      jumpi\n        /* \"contracts/OrderBook.sol\":2177:2184  return; */\n      pop\n      pop\n      jump(tag_80)\n        /* \"contracts/OrderBook.sol\":2168:2184  if(i==j) return; */\n    tag_81:\n        /* \"contracts/OrderBook.sol\":2193:2206  uint256 pivot */\n      0x00\n        /* \"contracts/OrderBook.sol\":2209:2212  arr */\n      dup6\n        /* \"contracts/OrderBook.sol\":2242:2243  2 */\n      0x02\n        /* \"contracts/OrderBook.sol\":2234:2238  left */\n      dup7\n        /* \"contracts/OrderBook.sol\":2226:2231  right */\n      dup7\n        /* \"contracts/OrderBook.sol\":2226:2238  right - left */\n      tag_82\n      swap2\n      swap1\n      tag_83\n      jump\t// in\n    tag_82:\n        /* \"contracts/OrderBook.sol\":2225:2243  (right - left) / 2 */\n      tag_84\n      swap2\n      swap1\n      tag_85\n      jump\t// in\n    tag_84:\n        /* \"contracts/OrderBook.sol\":2218:2222  left */\n      dup7\n        /* \"contracts/OrderBook.sol\":2218:2243  left + (right - left) / 2 */\n      tag_86\n      swap2\n      swap1\n      tag_87\n      jump\t// in\n    tag_86:\n        /* \"contracts/OrderBook.sol\":2209:2245  arr[uint(left + (right - left) / 2)] */\n      dup2\n      mload\n      dup2\n      lt\n      tag_88\n      jumpi\n      tag_89\n      tag_28\n      jump\t// in\n    tag_89:\n    tag_88:\n      0x20\n      mul\n      0x20\n      add\n      add\n      mload\n        /* \"contracts/OrderBook.sol\":2209:2255  arr[uint(left + (right - left) / 2)].timestamp */\n      0x40\n      add\n      mload\n        /* \"contracts/OrderBook.sol\":2193:2255  uint256 pivot = arr[uint(left + (right - left) / 2)].timestamp */\n      swap1\n      pop\n        /* \"contracts/OrderBook.sol\":2265:2562  while (i <= j) {... */\n    tag_90:\n        /* \"contracts/OrderBook.sol\":2277:2278  j */\n      dup2\n        /* \"contracts/OrderBook.sol\":2272:2273  i */\n      dup4\n        /* \"contracts/OrderBook.sol\":2272:2278  i <= j */\n      sgt\n        /* \"contracts/OrderBook.sol\":2265:2562  while (i <= j) {... */\n      tag_91\n      jumpi\n        /* \"contracts/OrderBook.sol\":2294:2336  while (arr[uint(i)].timestamp > pivot) i++ */\n    tag_92:\n        /* \"contracts/OrderBook.sol\":2326:2331  pivot */\n      dup1\n        /* \"contracts/OrderBook.sol\":2301:2304  arr */\n      dup7\n        /* \"contracts/OrderBook.sol\":2310:2311  i */\n      dup5\n        /* \"contracts/OrderBook.sol\":2301:2313  arr[uint(i)] */\n      dup2\n      mload\n      dup2\n      lt\n      tag_94\n      jumpi\n      tag_95\n      tag_28\n      jump\t// in\n    tag_95:\n    tag_94:\n      0x20\n      mul\n      0x20\n      add\n      add\n      mload\n        /* \"contracts/OrderBook.sol\":2301:2323  arr[uint(i)].timestamp */\n      0x40\n      add\n      mload\n        /* \"contracts/OrderBook.sol\":2301:2331  arr[uint(i)].timestamp > pivot */\n      gt\n        /* \"contracts/OrderBook.sol\":2294:2336  while (arr[uint(i)].timestamp > pivot) i++ */\n      iszero\n      tag_93\n      jumpi\n        /* \"contracts/OrderBook.sol\":2333:2336  i++ */\n      dup3\n      dup1\n      tag_96\n      swap1\n      tag_97\n      jump\t// in\n    tag_96:\n      swap4\n      pop\n      pop\n        /* \"contracts/OrderBook.sol\":2294:2336  while (arr[uint(i)].timestamp > pivot) i++ */\n      jump(tag_92)\n    tag_93:\n        /* \"contracts/OrderBook.sol\":2350:2392  while (pivot > arr[uint(j)].timestamp) j-- */\n    tag_98:\n        /* \"contracts/OrderBook.sol\":2365:2368  arr */\n      dup6\n        /* \"contracts/OrderBook.sol\":2374:2375  j */\n      dup3\n        /* \"contracts/OrderBook.sol\":2365:2377  arr[uint(j)] */\n      dup2\n      mload\n      dup2\n      lt\n      tag_100\n      jumpi\n      tag_101\n      tag_28\n      jump\t// in\n    tag_101:\n    tag_100:\n      0x20\n      mul\n      0x20\n      add\n      add\n      mload\n        /* \"contracts/OrderBook.sol\":2365:2387  arr[uint(j)].timestamp */\n      0x40\n      add\n      mload\n        /* \"contracts/OrderBook.sol\":2357:2362  pivot */\n      dup2\n        /* \"contracts/OrderBook.sol\":2357:2387  pivot > arr[uint(j)].timestamp */\n      gt\n        /* \"contracts/OrderBook.sol\":2350:2392  while (pivot > arr[uint(j)].timestamp) j-- */\n      iszero\n      tag_99\n      jumpi\n        /* \"contracts/OrderBook.sol\":2389:2392  j-- */\n      dup2\n      dup1\n      tag_102\n      swap1\n      tag_103\n      jump\t// in\n    tag_102:\n      swap3\n      pop\n      pop\n        /* \"contracts/OrderBook.sol\":2350:2392  while (pivot > arr[uint(j)].timestamp) j-- */\n      jump(tag_98)\n    tag_99:\n        /* \"contracts/OrderBook.sol\":2415:2416  j */\n      dup2\n        /* \"contracts/OrderBook.sol\":2410:2411  i */\n      dup4\n        /* \"contracts/OrderBook.sol\":2410:2416  i <= j */\n      sgt\n        /* \"contracts/OrderBook.sol\":2406:2552  if (i <= j) {... */\n      tag_104\n      jumpi\n        /* \"contracts/OrderBook.sol\":2468:2471  arr */\n      dup6\n        /* \"contracts/OrderBook.sol\":2477:2478  j */\n      dup3\n        /* \"contracts/OrderBook.sol\":2468:2480  arr[uint(j)] */\n      dup2\n      mload\n      dup2\n      lt\n      tag_105\n      jumpi\n      tag_106\n      tag_28\n      jump\t// in\n    tag_106:\n    tag_105:\n      0x20\n      mul\n      0x20\n      add\n      add\n      mload\n        /* \"contracts/OrderBook.sol\":2482:2485  arr */\n      dup7\n        /* \"contracts/OrderBook.sol\":2491:2492  i */\n      dup5\n        /* \"contracts/OrderBook.sol\":2482:2494  arr[uint(i)] */\n      dup2\n      mload\n      dup2\n      lt\n      tag_107\n      jumpi\n      tag_108\n      tag_28\n      jump\t// in\n    tag_108:\n    tag_107:\n      0x20\n      mul\n      0x20\n      add\n      add\n      mload\n        /* \"contracts/OrderBook.sol\":2437:2440  arr */\n      dup8\n        /* \"contracts/OrderBook.sol\":2446:2447  i */\n      dup6\n        /* \"contracts/OrderBook.sol\":2437:2449  arr[uint(i)] */\n      dup2\n      mload\n      dup2\n      lt\n      tag_109\n      jumpi\n      tag_110\n      tag_28\n      jump\t// in\n    tag_110:\n    tag_109:\n      0x20\n      mul\n      0x20\n      add\n      add\n        /* \"contracts/OrderBook.sol\":2451:2454  arr */\n      dup9\n        /* \"contracts/OrderBook.sol\":2460:2461  j */\n      dup6\n        /* \"contracts/OrderBook.sol\":2451:2463  arr[uint(j)] */\n      dup2\n      mload\n      dup2\n      lt\n      tag_111\n      jumpi\n      tag_112\n      tag_28\n      jump\t// in\n    tag_112:\n    tag_111:\n      0x20\n      mul\n      0x20\n      add\n      add\n        /* \"contracts/OrderBook.sol\":2436:2495  (arr[uint(i)], arr[uint(j)]) = (arr[uint(j)], arr[uint(i)]) */\n      dup3\n      swap1\n      mstore\n      dup3\n      swap1\n      mstore\n      pop\n      pop\n        /* \"contracts/OrderBook.sol\":2513:2516  i++ */\n      dup3\n      dup1\n      tag_113\n      swap1\n      tag_97\n      jump\t// in\n    tag_113:\n      swap4\n      pop\n      pop\n        /* \"contracts/OrderBook.sol\":2534:2537  j-- */\n      dup2\n      dup1\n      tag_114\n      swap1\n      tag_103\n      jump\t// in\n    tag_114:\n      swap3\n      pop\n      pop\n        /* \"contracts/OrderBook.sol\":2406:2552  if (i <= j) {... */\n    tag_104:\n        /* \"contracts/OrderBook.sol\":2265:2562  while (i <= j) {... */\n      jump(tag_90)\n    tag_91:\n        /* \"contracts/OrderBook.sol\":2582:2583  j */\n      dup2\n        /* \"contracts/OrderBook.sol\":2575:2579  left */\n      dup6\n        /* \"contracts/OrderBook.sol\":2575:2583  left < j */\n      slt\n        /* \"contracts/OrderBook.sol\":2571:2629  if (left < j)... */\n      iszero\n      tag_115\n      jumpi\n        /* \"contracts/OrderBook.sol\":2597:2629  ascendingQuickSort(arr, left, j) */\n      tag_116\n        /* \"contracts/OrderBook.sol\":2616:2619  arr */\n      dup7\n        /* \"contracts/OrderBook.sol\":2621:2625  left */\n      dup7\n        /* \"contracts/OrderBook.sol\":2627:2628  j */\n      dup5\n        /* \"contracts/OrderBook.sol\":2597:2615  ascendingQuickSort */\n      tag_64\n        /* \"contracts/OrderBook.sol\":2597:2629  ascendingQuickSort(arr, left, j) */\n      jump\t// in\n    tag_116:\n        /* \"contracts/OrderBook.sol\":2571:2629  if (left < j)... */\n    tag_115:\n        /* \"contracts/OrderBook.sol\":2647:2652  right */\n      dup4\n        /* \"contracts/OrderBook.sol\":2643:2644  i */\n      dup4\n        /* \"contracts/OrderBook.sol\":2643:2652  i < right */\n      slt\n        /* \"contracts/OrderBook.sol\":2639:2699  if (i < right)... */\n      iszero\n      tag_117\n      jumpi\n        /* \"contracts/OrderBook.sol\":2666:2699  ascendingQuickSort(arr, i, right) */\n      tag_118\n        /* \"contracts/OrderBook.sol\":2685:2688  arr */\n      dup7\n        /* \"contracts/OrderBook.sol\":2690:2691  i */\n      dup5\n        /* \"contracts/OrderBook.sol\":2693:2698  right */\n      dup7\n        /* \"contracts/OrderBook.sol\":2666:2684  ascendingQuickSort */\n      tag_64\n        /* \"contracts/OrderBook.sol\":2666:2699  ascendingQuickSort(arr, i, right) */\n      jump\t// in\n    tag_118:\n        /* \"contracts/OrderBook.sol\":2639:2699  if (i < right)... */\n    tag_117:\n        /* \"contracts/OrderBook.sol\":2113:2706  {... */\n      pop\n      pop\n      pop\n        /* \"contracts/OrderBook.sol\":2036:2706  function ascendingQuickSort(order[] memory arr, int left, int right) internal{... */\n    tag_80:\n      pop\n      pop\n      pop\n      jump\t// out\n        /* \"contracts/OrderBook.sol\":1357:2030  function descendingQuickSort(order[] memory arr, int left, int right) internal{... */\n    tag_71:\n        /* \"contracts/OrderBook.sol\":1445:1450  int i */\n      0x00\n        /* \"contracts/OrderBook.sol\":1453:1457  left */\n      dup3\n        /* \"contracts/OrderBook.sol\":1445:1457  int i = left */\n      swap1\n      pop\n        /* \"contracts/OrderBook.sol\":1467:1472  int j */\n      0x00\n        /* \"contracts/OrderBook.sol\":1475:1480  right */\n      dup3\n        /* \"contracts/OrderBook.sol\":1467:1480  int j = right */\n      swap1\n      pop\n        /* \"contracts/OrderBook.sol\":1496:1497  j */\n      dup1\n        /* \"contracts/OrderBook.sol\":1493:1494  i */\n      dup3\n        /* \"contracts/OrderBook.sol\":1493:1497  i==j */\n      sub\n        /* \"contracts/OrderBook.sol\":1490:1506  if(i==j) return; */\n      tag_120\n      jumpi\n        /* \"contracts/OrderBook.sol\":1499:1506  return; */\n      pop\n      pop\n      jump(tag_119)\n        /* \"contracts/OrderBook.sol\":1490:1506  if(i==j) return; */\n    tag_120:\n        /* \"contracts/OrderBook.sol\":1515:1528  uint256 pivot */\n      0x00\n        /* \"contracts/OrderBook.sol\":1531:1534  arr */\n      dup6\n        /* \"contracts/OrderBook.sol\":1564:1565  2 */\n      0x02\n        /* \"contracts/OrderBook.sol\":1556:1560  left */\n      dup7\n        /* \"contracts/OrderBook.sol\":1548:1553  right */\n      dup7\n        /* \"contracts/OrderBook.sol\":1548:1560  right - left */\n      tag_121\n      swap2\n      swap1\n      tag_83\n      jump\t// in\n    tag_121:\n        /* \"contracts/OrderBook.sol\":1547:1565  (right - left) / 2 */\n      tag_122\n      swap2\n      swap1\n      tag_85\n      jump\t// in\n    tag_122:\n        /* \"contracts/OrderBook.sol\":1540:1544  left */\n      dup7\n        /* \"contracts/OrderBook.sol\":1540:1565  left + (right - left) / 2 */\n      tag_123\n      swap2\n      swap1\n      tag_87\n      jump\t// in\n    tag_123:\n        /* \"contracts/OrderBook.sol\":1531:1567  arr[uint(left + (right - left) / 2)] */\n      dup2\n      mload\n      dup2\n      lt\n      tag_124\n      jumpi\n      tag_125\n      tag_28\n      jump\t// in\n    tag_125:\n    tag_124:\n      0x20\n      mul\n      0x20\n      add\n      add\n      mload\n        /* \"contracts/OrderBook.sol\":1531:1577  arr[uint(left + (right - left) / 2)].timestamp */\n      0x40\n      add\n      mload\n        /* \"contracts/OrderBook.sol\":1515:1577  uint256 pivot = arr[uint(left + (right - left) / 2)].timestamp */\n      swap1\n      pop\n        /* \"contracts/OrderBook.sol\":1587:1884  while (i <= j) {... */\n    tag_126:\n        /* \"contracts/OrderBook.sol\":1599:1600  j */\n      dup2\n        /* \"contracts/OrderBook.sol\":1594:1595  i */\n      dup4\n        /* \"contracts/OrderBook.sol\":1594:1600  i <= j */\n      sgt\n        /* \"contracts/OrderBook.sol\":1587:1884  while (i <= j) {... */\n      tag_127\n      jumpi\n        /* \"contracts/OrderBook.sol\":1616:1658  while (arr[uint(i)].timestamp < pivot) i++ */\n    tag_128:\n        /* \"contracts/OrderBook.sol\":1648:1653  pivot */\n      dup1\n        /* \"contracts/OrderBook.sol\":1623:1626  arr */\n      dup7\n        /* \"contracts/OrderBook.sol\":1632:1633  i */\n      dup5\n        /* \"contracts/OrderBook.sol\":1623:1635  arr[uint(i)] */\n      dup2\n      mload\n      dup2\n      lt\n      tag_130\n      jumpi\n      tag_131\n      tag_28\n      jump\t// in\n    tag_131:\n    tag_130:\n      0x20\n      mul\n      0x20\n      add\n      add\n      mload\n        /* \"contracts/OrderBook.sol\":1623:1645  arr[uint(i)].timestamp */\n      0x40\n      add\n      mload\n        /* \"contracts/OrderBook.sol\":1623:1653  arr[uint(i)].timestamp < pivot */\n      lt\n        /* \"contracts/OrderBook.sol\":1616:1658  while (arr[uint(i)].timestamp < pivot) i++ */\n      iszero\n      tag_129\n      jumpi\n        /* \"contracts/OrderBook.sol\":1655:1658  i++ */\n      dup3\n      dup1\n      tag_132\n      swap1\n      tag_97\n      jump\t// in\n    tag_132:\n      swap4\n      pop\n      pop\n        /* \"contracts/OrderBook.sol\":1616:1658  while (arr[uint(i)].timestamp < pivot) i++ */\n      jump(tag_128)\n    tag_129:\n        /* \"contracts/OrderBook.sol\":1672:1714  while (pivot < arr[uint(j)].timestamp) j-- */\n    tag_133:\n        /* \"contracts/OrderBook.sol\":1687:1690  arr */\n      dup6\n        /* \"contracts/OrderBook.sol\":1696:1697  j */\n      dup3\n        /* \"contracts/OrderBook.sol\":1687:1699  arr[uint(j)] */\n      dup2\n      mload\n      dup2\n      lt\n      tag_135\n      jumpi\n      tag_136\n      tag_28\n      jump\t// in\n    tag_136:\n    tag_135:\n      0x20\n      mul\n      0x20\n      add\n      add\n      mload\n        /* \"contracts/OrderBook.sol\":1687:1709  arr[uint(j)].timestamp */\n      0x40\n      add\n      mload\n        /* \"contracts/OrderBook.sol\":1679:1684  pivot */\n      dup2\n        /* \"contracts/OrderBook.sol\":1679:1709  pivot < arr[uint(j)].timestamp */\n      lt\n        /* \"contracts/OrderBook.sol\":1672:1714  while (pivot < arr[uint(j)].timestamp) j-- */\n      iszero\n      tag_134\n      jumpi\n        /* \"contracts/OrderBook.sol\":1711:1714  j-- */\n      dup2\n      dup1\n      tag_137\n      swap1\n      tag_103\n      jump\t// in\n    tag_137:\n      swap3\n      pop\n      pop\n        /* \"contracts/OrderBook.sol\":1672:1714  while (pivot < arr[uint(j)].timestamp) j-- */\n      jump(tag_133)\n    tag_134:\n        /* \"contracts/OrderBook.sol\":1737:1738  j */\n      dup2\n        /* \"contracts/OrderBook.sol\":1732:1733  i */\n      dup4\n        /* \"contracts/OrderBook.sol\":1732:1738  i <= j */\n      sgt\n        /* \"contracts/OrderBook.sol\":1728:1874  if (i <= j) {... */\n      tag_138\n      jumpi\n        /* \"contracts/OrderBook.sol\":1790:1793  arr */\n      dup6\n        /* \"contracts/OrderBook.sol\":1799:1800  j */\n      dup3\n        /* \"contracts/OrderBook.sol\":1790:1802  arr[uint(j)] */\n      dup2\n      mload\n      dup2\n      lt\n      tag_139\n      jumpi\n      tag_140\n      tag_28\n      jump\t// in\n    tag_140:\n    tag_139:\n      0x20\n      mul\n      0x20\n      add\n      add\n      mload\n        /* \"contracts/OrderBook.sol\":1804:1807  arr */\n      dup7\n        /* \"contracts/OrderBook.sol\":1813:1814  i */\n      dup5\n        /* \"contracts/OrderBook.sol\":1804:1816  arr[uint(i)] */\n      dup2\n      mload\n      dup2\n      lt\n      tag_141\n      jumpi\n      tag_142\n      tag_28\n      jump\t// in\n    tag_142:\n    tag_141:\n      0x20\n      mul\n      0x20\n      add\n      add\n      mload\n        /* \"contracts/OrderBook.sol\":1759:1762  arr */\n      dup8\n        /* \"contracts/OrderBook.sol\":1768:1769  i */\n      dup6\n        /* \"contracts/OrderBook.sol\":1759:1771  arr[uint(i)] */\n      dup2\n      mload\n      dup2\n      lt\n      tag_143\n      jumpi\n      tag_144\n      tag_28\n      jump\t// in\n    tag_144:\n    tag_143:\n      0x20\n      mul\n      0x20\n      add\n      add\n        /* \"contracts/OrderBook.sol\":1773:1776  arr */\n      dup9\n        /* \"contracts/OrderBook.sol\":1782:1783  j */\n      dup6\n        /* \"contracts/OrderBook.sol\":1773:1785  arr[uint(j)] */\n      dup2\n      mload\n      dup2\n      lt\n      tag_145\n      jumpi\n      tag_146\n      tag_28\n      jump\t// in\n    tag_146:\n    tag_145:\n      0x20\n      mul\n      0x20\n      add\n      add\n        /* \"contracts/OrderBook.sol\":1758:1817  (arr[uint(i)], arr[uint(j)]) = (arr[uint(j)], arr[uint(i)]) */\n      dup3\n      swap1\n      mstore\n      dup3\n      swap1\n      mstore\n      pop\n      pop\n        /* \"contracts/OrderBook.sol\":1835:1838  i++ */\n      dup3\n      dup1\n      tag_147\n      swap1\n      tag_97\n      jump\t// in\n    tag_147:\n      swap4\n      pop\n      pop\n        /* \"contracts/OrderBook.sol\":1856:1859  j-- */\n      dup2\n      dup1\n      tag_148\n      swap1\n      tag_103\n      jump\t// in\n    tag_148:\n      swap3\n      pop\n      pop\n        /* \"contracts/OrderBook.sol\":1728:1874  if (i <= j) {... */\n    tag_138:\n        /* \"contracts/OrderBook.sol\":1587:1884  while (i <= j) {... */\n      jump(tag_126)\n    tag_127:\n        /* \"contracts/OrderBook.sol\":1904:1905  j */\n      dup2\n        /* \"contracts/OrderBook.sol\":1897:1901  left */\n      dup6\n        /* \"contracts/OrderBook.sol\":1897:1905  left < j */\n      slt\n        /* \"contracts/OrderBook.sol\":1893:1952  if (left < j)... */\n      iszero\n      tag_149\n      jumpi\n        /* \"contracts/OrderBook.sol\":1919:1952  descendingQuickSort(arr, left, j) */\n      tag_150\n        /* \"contracts/OrderBook.sol\":1939:1942  arr */\n      dup7\n        /* \"contracts/OrderBook.sol\":1944:1948  left */\n      dup7\n        /* \"contracts/OrderBook.sol\":1950:1951  j */\n      dup5\n        /* \"contracts/OrderBook.sol\":1919:1938  descendingQuickSort */\n      tag_71\n        /* \"contracts/OrderBook.sol\":1919:1952  descendingQuickSort(arr, left, j) */\n      jump\t// in\n    tag_150:\n        /* \"contracts/OrderBook.sol\":1893:1952  if (left < j)... */\n    tag_149:\n        /* \"contracts/OrderBook.sol\":1970:1975  right */\n      dup4\n        /* \"contracts/OrderBook.sol\":1966:1967  i */\n      dup4\n        /* \"contracts/OrderBook.sol\":1966:1975  i < right */\n      slt\n        /* \"contracts/OrderBook.sol\":1962:2023  if (i < right)... */\n      iszero\n      tag_151\n      jumpi\n        /* \"contracts/OrderBook.sol\":1989:2023  descendingQuickSort(arr, i, right) */\n      tag_152\n        /* \"contracts/OrderBook.sol\":2009:2012  arr */\n      dup7\n        /* \"contracts/OrderBook.sol\":2014:2015  i */\n      dup5\n        /* \"contracts/OrderBook.sol\":2017:2022  right */\n      dup7\n        /* \"contracts/OrderBook.sol\":1989:2008  descendingQuickSort */\n      tag_71\n        /* \"contracts/OrderBook.sol\":1989:2023  descendingQuickSort(arr, i, right) */\n      jump\t// in\n    tag_152:\n        /* \"contracts/OrderBook.sol\":1962:2023  if (i < right)... */\n    tag_151:\n        /* \"contracts/OrderBook.sol\":1435:2030  {... */\n      pop\n      pop\n      pop\n        /* \"contracts/OrderBook.sol\":1357:2030  function descendingQuickSort(order[] memory arr, int left, int right) internal{... */\n    tag_119:\n      pop\n      pop\n      pop\n      jump\t// out\n        /* \"#utility.yul\":88:205   */\n    tag_154:\n        /* \"#utility.yul\":197:198   */\n      0x00\n        /* \"#utility.yul\":194:195   */\n      dup1\n        /* \"#utility.yul\":187:199   */\n      revert\n        /* \"#utility.yul\":334:411   */\n    tag_156:\n        /* \"#utility.yul\":371:378   */\n      0x00\n        /* \"#utility.yul\":400:405   */\n      dup2\n        /* \"#utility.yul\":389:405   */\n      swap1\n      pop\n        /* \"#utility.yul\":334:411   */\n      swap2\n      swap1\n      pop\n      jump\t// out\n        /* \"#utility.yul\":417:539   */\n    tag_157:\n        /* \"#utility.yul\":490:514   */\n      tag_175\n        /* \"#utility.yul\":508:513   */\n      dup2\n        /* \"#utility.yul\":490:514   */\n      tag_156\n      jump\t// in\n    tag_175:\n        /* \"#utility.yul\":483:488   */\n      dup2\n        /* \"#utility.yul\":480:515   */\n      eq\n        /* \"#utility.yul\":470:533   */\n      tag_176\n      jumpi\n        /* \"#utility.yul\":529:530   */\n      0x00\n        /* \"#utility.yul\":526:527   */\n      dup1\n        /* \"#utility.yul\":519:531   */\n      revert\n        /* \"#utility.yul\":470:533   */\n    tag_176:\n        /* \"#utility.yul\":417:539   */\n      pop\n      jump\t// out\n        /* \"#utility.yul\":545:684   */\n    tag_158:\n        /* \"#utility.yul\":591:596   */\n      0x00\n        /* \"#utility.yul\":629:635   */\n      dup2\n        /* \"#utility.yul\":616:636   */\n      calldataload\n        /* \"#utility.yul\":607:636   */\n      swap1\n      pop\n        /* \"#utility.yul\":645:678   */\n      tag_178\n        /* \"#utility.yul\":672:677   */\n      dup2\n        /* \"#utility.yul\":645:678   */\n      tag_157\n      jump\t// in\n    tag_178:\n        /* \"#utility.yul\":545:684   */\n      swap3\n      swap2\n      pop\n      pop\n      jump\t// out\n        /* \"#utility.yul\":690:1019   */\n    tag_10:\n        /* \"#utility.yul\":749:755   */\n      0x00\n        /* \"#utility.yul\":798:800   */\n      0x20\n        /* \"#utility.yul\":786:795   */\n      dup3\n        /* \"#utility.yul\":777:784   */\n      dup5\n        /* \"#utility.yul\":773:796   */\n      sub\n        /* \"#utility.yul\":769:801   */\n      slt\n        /* \"#utility.yul\":766:885   */\n      iszero\n      tag_180\n      jumpi\n        /* \"#utility.yul\":804:883   */\n      tag_181\n      tag_154\n      jump\t// in\n    tag_181:\n        /* \"#utility.yul\":766:885   */\n    tag_180:\n        /* \"#utility.yul\":924:925   */\n      0x00\n        /* \"#utility.yul\":949:1002   */\n      tag_182\n        /* \"#utility.yul\":994:1001   */\n      dup5\n        /* \"#utility.yul\":985:991   */\n      dup3\n        /* \"#utility.yul\":974:983   */\n      dup6\n        /* \"#utility.yul\":970:992   */\n      add\n        /* \"#utility.yul\":949:1002   */\n      tag_158\n      jump\t// in\n    tag_182:\n        /* \"#utility.yul\":939:1002   */\n      swap2\n      pop\n        /* \"#utility.yul\":895:1012   */\n      pop\n        /* \"#utility.yul\":690:1019   */\n      swap3\n      swap2\n      pop\n      pop\n      jump\t// out\n        /* \"#utility.yul\":1025:1139   */\n    tag_159:\n        /* \"#utility.yul\":1092:1098   */\n      0x00\n        /* \"#utility.yul\":1126:1131   */\n      dup2\n        /* \"#utility.yul\":1120:1132   */\n      mload\n        /* \"#utility.yul\":1110:1132   */\n      swap1\n      pop\n        /* \"#utility.yul\":1025:1139   */\n      swap2\n      swap1\n      pop\n      jump\t// out\n        /* \"#utility.yul\":1145:1329   */\n    tag_160:\n        /* \"#utility.yul\":1244:1255   */\n      0x00\n        /* \"#utility.yul\":1278:1284   */\n      dup3\n        /* \"#utility.yul\":1273:1276   */\n      dup3\n        /* \"#utility.yul\":1266:1285   */\n      mstore\n        /* \"#utility.yul\":1318:1322   */\n      0x20\n        /* \"#utility.yul\":1313:1316   */\n      dup3\n        /* \"#utility.yul\":1309:1323   */\n      add\n        /* \"#utility.yul\":1294:1323   */\n      swap1\n      pop\n        /* \"#utility.yul\":1145:1329   */\n      swap3\n      swap2\n      pop\n      pop\n      jump\t// out\n        /* \"#utility.yul\":1335:1467   */\n    tag_161:\n        /* \"#utility.yul\":1402:1406   */\n      0x00\n        /* \"#utility.yul\":1425:1428   */\n      dup2\n        /* \"#utility.yul\":1417:1428   */\n      swap1\n      pop\n        /* \"#utility.yul\":1455:1459   */\n      0x20\n        /* \"#utility.yul\":1450:1453   */\n      dup3\n        /* \"#utility.yul\":1446:1460   */\n      add\n        /* \"#utility.yul\":1438:1460   */\n      swap1\n      pop\n        /* \"#utility.yul\":1335:1467   */\n      swap2\n      swap1\n      pop\n      jump\t// out\n        /* \"#utility.yul\":1473:1581   */\n    tag_162:\n        /* \"#utility.yul\":1550:1574   */\n      tag_187\n        /* \"#utility.yul\":1568:1573   */\n      dup2\n        /* \"#utility.yul\":1550:1574   */\n      tag_156\n      jump\t// in\n    tag_187:\n        /* \"#utility.yul\":1545:1548   */\n      dup3\n        /* \"#utility.yul\":1538:1575   */\n      mstore\n        /* \"#utility.yul\":1473:1581   */\n      pop\n      pop\n      jump\t// out\n        /* \"#utility.yul\":1587:1766   */\n    tag_163:\n        /* \"#utility.yul\":1656:1666   */\n      0x00\n        /* \"#utility.yul\":1677:1723   */\n      tag_189\n        /* \"#utility.yul\":1719:1722   */\n      dup4\n        /* \"#utility.yul\":1711:1717   */\n      dup4\n        /* \"#utility.yul\":1677:1723   */\n      tag_162\n      jump\t// in\n    tag_189:\n        /* \"#utility.yul\":1755:1759   */\n      0x20\n        /* \"#utility.yul\":1750:1753   */\n      dup4\n        /* \"#utility.yul\":1746:1760   */\n      add\n        /* \"#utility.yul\":1732:1760   */\n      swap1\n      pop\n        /* \"#utility.yul\":1587:1766   */\n      swap3\n      swap2\n      pop\n      pop\n      jump\t// out\n        /* \"#utility.yul\":1772:1885   */\n    tag_164:\n        /* \"#utility.yul\":1842:1846   */\n      0x00\n        /* \"#utility.yul\":1874:1878   */\n      0x20\n        /* \"#utility.yul\":1869:1872   */\n      dup3\n        /* \"#utility.yul\":1865:1879   */\n      add\n        /* \"#utility.yul\":1857:1879   */\n      swap1\n      pop\n        /* \"#utility.yul\":1772:1885   */\n      swap2\n      swap1\n      pop\n      jump\t// out\n        /* \"#utility.yul\":1921:2653   */\n    tag_165:\n        /* \"#utility.yul\":2040:2043   */\n      0x00\n        /* \"#utility.yul\":2069:2123   */\n      tag_192\n        /* \"#utility.yul\":2117:2122   */\n      dup3\n        /* \"#utility.yul\":2069:2123   */\n      tag_159\n      jump\t// in\n    tag_192:\n        /* \"#utility.yul\":2139:2225   */\n      tag_193\n        /* \"#utility.yul\":2218:2224   */\n      dup2\n        /* \"#utility.yul\":2213:2216   */\n      dup6\n        /* \"#utility.yul\":2139:2225   */\n      tag_160\n      jump\t// in\n    tag_193:\n        /* \"#utility.yul\":2132:2225   */\n      swap4\n      pop\n        /* \"#utility.yul\":2249:2305   */\n      tag_194\n        /* \"#utility.yul\":2299:2304   */\n      dup4\n        /* \"#utility.yul\":2249:2305   */\n      tag_161\n      jump\t// in\n    tag_194:\n        /* \"#utility.yul\":2328:2335   */\n      dup1\n        /* \"#utility.yul\":2359:2360   */\n      0x00\n        /* \"#utility.yul\":2344:2628   */\n    tag_195:\n        /* \"#utility.yul\":2369:2375   */\n      dup4\n        /* \"#utility.yul\":2366:2367   */\n      dup2\n        /* \"#utility.yul\":2363:2376   */\n      lt\n        /* \"#utility.yul\":2344:2628   */\n      iszero\n      tag_197\n      jumpi\n        /* \"#utility.yul\":2445:2451   */\n      dup2\n        /* \"#utility.yul\":2439:2452   */\n      mload\n        /* \"#utility.yul\":2472:2535   */\n      tag_198\n        /* \"#utility.yul\":2531:2534   */\n      dup9\n        /* \"#utility.yul\":2516:2529   */\n      dup3\n        /* \"#utility.yul\":2472:2535   */\n      tag_163\n      jump\t// in\n    tag_198:\n        /* \"#utility.yul\":2465:2535   */\n      swap8\n      pop\n        /* \"#utility.yul\":2558:2618   */\n      tag_199\n        /* \"#utility.yul\":2611:2617   */\n      dup4\n        /* \"#utility.yul\":2558:2618   */\n      tag_164\n      jump\t// in\n    tag_199:\n        /* \"#utility.yul\":2548:2618   */\n      swap3\n      pop\n        /* \"#utility.yul\":2404:2628   */\n      pop\n        /* \"#utility.yul\":2391:2392   */\n      0x01\n        /* \"#utility.yul\":2388:2389   */\n      dup2\n        /* \"#utility.yul\":2384:2393   */\n      add\n        /* \"#utility.yul\":2379:2393   */\n      swap1\n      pop\n        /* \"#utility.yul\":2344:2628   */\n      jump(tag_195)\n    tag_197:\n        /* \"#utility.yul\":2348:2362   */\n      pop\n        /* \"#utility.yul\":2644:2647   */\n      dup6\n        /* \"#utility.yul\":2637:2647   */\n      swap4\n      pop\n        /* \"#utility.yul\":2045:2653   */\n      pop\n      pop\n      pop\n        /* \"#utility.yul\":1921:2653   */\n      swap3\n      swap2\n      pop\n      pop\n      jump\t// out\n        /* \"#utility.yul\":2659:3032   */\n    tag_24:\n        /* \"#utility.yul\":2802:2806   */\n      0x00\n        /* \"#utility.yul\":2840:2842   */\n      0x20\n        /* \"#utility.yul\":2829:2838   */\n      dup3\n        /* \"#utility.yul\":2825:2843   */\n      add\n        /* \"#utility.yul\":2817:2843   */\n      swap1\n      pop\n        /* \"#utility.yul\":2889:2898   */\n      dup2\n        /* \"#utility.yul\":2883:2887   */\n      dup2\n        /* \"#utility.yul\":2879:2899   */\n      sub\n        /* \"#utility.yul\":2875:2876   */\n      0x00\n        /* \"#utility.yul\":2864:2873   */\n      dup4\n        /* \"#utility.yul\":2860:2877   */\n      add\n        /* \"#utility.yul\":2853:2900   */\n      mstore\n        /* \"#utility.yul\":2917:3025   */\n      tag_201\n        /* \"#utility.yul\":3020:3024   */\n      dup2\n        /* \"#utility.yul\":3011:3017   */\n      dup5\n        /* \"#utility.yul\":2917:3025   */\n      tag_165\n      jump\t// in\n    tag_201:\n        /* \"#utility.yul\":2909:3025   */\n      swap1\n      pop\n        /* \"#utility.yul\":2659:3032   */\n      swap3\n      swap2\n      pop\n      pop\n      jump\t// out\n        /* \"#utility.yul\":3038:3218   */\n    tag_28:\n        /* \"#utility.yul\":3086:3163   */\n      0x4e487b7100000000000000000000000000000000000000000000000000000000\n        /* \"#utility.yul\":3083:3084   */\n      0x00\n        /* \"#utility.yul\":3076:3164   */\n      mstore\n        /* \"#utility.yul\":3183:3187   */\n      0x32\n        /* \"#utility.yul\":3180:3181   */\n      0x04\n        /* \"#utility.yul\":3173:3188   */\n      mstore\n        /* \"#utility.yul\":3207:3211   */\n      0x24\n        /* \"#utility.yul\":3204:3205   */\n      0x00\n        /* \"#utility.yul\":3197:3212   */\n      revert\n        /* \"#utility.yul\":3224:3404   */\n    tag_166:\n        /* \"#utility.yul\":3272:3349   */\n      0x4e487b7100000000000000000000000000000000000000000000000000000000\n        /* \"#utility.yul\":3269:3270   */\n      0x00\n        /* \"#utility.yul\":3262:3350   */\n      mstore\n        /* \"#utility.yul\":3369:3373   */\n      0x11\n        /* \"#utility.yul\":3366:3367   */\n      0x04\n        /* \"#utility.yul\":3359:3374   */\n      mstore\n        /* \"#utility.yul\":3393:3397   */\n      0x24\n        /* \"#utility.yul\":3390:3391   */\n      0x00\n        /* \"#utility.yul\":3383:3398   */\n      revert\n        /* \"#utility.yul\":3410:3643   */\n    tag_54:\n        /* \"#utility.yul\":3449:3452   */\n      0x00\n        /* \"#utility.yul\":3472:3496   */\n      tag_205\n        /* \"#utility.yul\":3490:3495   */\n      dup3\n        /* \"#utility.yul\":3472:3496   */\n      tag_156\n      jump\t// in\n    tag_205:\n        /* \"#utility.yul\":3463:3496   */\n      swap2\n      pop\n        /* \"#utility.yul\":3518:3584   */\n      0xffffffffffffffffffffffffffffffffffffffffffffffffffffffffffffffff\n        /* \"#utility.yul\":3511:3516   */\n      dup3\n        /* \"#utility.yul\":3508:3585   */\n      sub\n        /* \"#utility.yul\":3505:3608   */\n      tag_206\n      jumpi\n        /* \"#utility.yul\":3588:3606   */\n      tag_207\n      tag_166\n      jump\t// in\n    tag_207:\n        /* \"#utility.yul\":3505:3608   */\n    tag_206:\n        /* \"#utility.yul\":3635:3636   */\n      0x01\n        /* \"#utility.yul\":3628:3633   */\n      dup3\n        /* \"#utility.yul\":3624:3637   */\n      add\n        /* \"#utility.yul\":3617:3637   */\n      swap1\n      pop\n        /* \"#utility.yul\":3410:3643   */\n      swap2\n      swap1\n      pop\n      jump\t// out\n        /* \"#utility.yul\":3649:3840   */\n    tag_63:\n        /* \"#utility.yul\":3689:3693   */\n      0x00\n        /* \"#utility.yul\":3709:3729   */\n      tag_209\n        /* \"#utility.yul\":3727:3728   */\n      dup3\n        /* \"#utility.yul\":3709:3729   */\n      tag_156\n      jump\t// in\n    tag_209:\n        /* \"#utility.yul\":3704:3729   */\n      swap2\n      pop\n        /* \"#utility.yul\":3743:3763   */\n      tag_210\n        /* \"#utility.yul\":3761:3762   */\n      dup4\n        /* \"#utility.yul\":3743:3763   */\n      tag_156\n      jump\t// in\n    tag_210:\n        /* \"#utility.yul\":3738:3763   */\n      swap3\n      pop\n        /* \"#utility.yul\":3782:3783   */\n      dup3\n        /* \"#utility.yul\":3779:3780   */\n      dup3\n        /* \"#utility.yul\":3776:3784   */\n      lt\n        /* \"#utility.yul\":3773:3807   */\n      iszero\n      tag_211\n      jumpi\n        /* \"#utility.yul\":3787:3805   */\n      tag_212\n      tag_166\n      jump\t// in\n    tag_212:\n        /* \"#utility.yul\":3773:3807   */\n    tag_211:\n        /* \"#utility.yul\":3832:3833   */\n      dup3\n        /* \"#utility.yul\":3829:3830   */\n      dup3\n        /* \"#utility.yul\":3825:3834   */\n      sub\n        /* \"#utility.yul\":3817:3834   */\n      swap1\n      pop\n        /* \"#utility.yul\":3649:3840   */\n      swap3\n      swap2\n      pop\n      pop\n      jump\t// out\n        /* \"#utility.yul\":3846:3922   */\n    tag_167:\n        /* \"#utility.yul\":3882:3889   */\n      0x00\n        /* \"#utility.yul\":3911:3916   */\n      dup2\n        /* \"#utility.yul\":3900:3916   */\n      swap1\n      pop\n        /* \"#utility.yul\":3846:3922   */\n      swap2\n      swap1\n      pop\n      jump\t// out\n        /* \"#utility.yul\":3928:4455   */\n    tag_83:\n        /* \"#utility.yul\":3967:3971   */\n      0x00\n        /* \"#utility.yul\":3987:4006   */\n      tag_215\n        /* \"#utility.yul\":4004:4005   */\n      dup3\n        /* \"#utility.yul\":3987:4006   */\n      tag_167\n      jump\t// in\n    tag_215:\n        /* \"#utility.yul\":3982:4006   */\n      swap2\n      pop\n        /* \"#utility.yul\":4020:4039   */\n      tag_216\n        /* \"#utility.yul\":4037:4038   */\n      dup4\n        /* \"#utility.yul\":4020:4039   */\n      tag_167\n      jump\t// in\n    tag_216:\n        /* \"#utility.yul\":4015:4039   */\n      swap3\n      pop\n        /* \"#utility.yul\":4209:4210   */\n      dup3\n        /* \"#utility.yul\":4141:4207   */\n      0x8000000000000000000000000000000000000000000000000000000000000000\n        /* \"#utility.yul\":4137:4211   */\n      add\n        /* \"#utility.yul\":4134:4135   */\n      dup3\n        /* \"#utility.yul\":4130:4212   */\n      slt\n        /* \"#utility.yul\":4125:4126   */\n      0x00\n        /* \"#utility.yul\":4122:4123   */\n      dup5\n        /* \"#utility.yul\":4118:4127   */\n      slt\n        /* \"#utility.yul\":4111:4128   */\n      iszero\n        /* \"#utility.yul\":4107:4213   */\n      and\n        /* \"#utility.yul\":4104:4236   */\n      iszero\n      tag_217\n      jumpi\n        /* \"#utility.yul\":4216:4234   */\n      tag_218\n      tag_166\n      jump\t// in\n    tag_218:\n        /* \"#utility.yul\":4104:4236   */\n    tag_217:\n        /* \"#utility.yul\":4395:4396   */\n      dup3\n        /* \"#utility.yul\":4327:4393   */\n      0x7fffffffffffffffffffffffffffffffffffffffffffffffffffffffffffffff\n        /* \"#utility.yul\":4323:4397   */\n      add\n        /* \"#utility.yul\":4320:4321   */\n      dup3\n        /* \"#utility.yul\":4316:4398   */\n      sgt\n        /* \"#utility.yul\":4312:4313   */\n      0x00\n        /* \"#utility.yul\":4309:4310   */\n      dup5\n        /* \"#utility.yul\":4305:4314   */\n      slt\n        /* \"#utility.yul\":4301:4399   */\n      and\n        /* \"#utility.yul\":4298:4422   */\n      iszero\n      tag_219\n      jumpi\n        /* \"#utility.yul\":4402:4420   */\n      tag_220\n      tag_166\n      jump\t// in\n    tag_220:\n        /* \"#utility.yul\":4298:4422   */\n    tag_219:\n        /* \"#utility.yul\":4447:4448   */\n      dup3\n        /* \"#utility.yul\":4444:4445   */\n      dup3\n        /* \"#utility.yul\":4440:4449   */\n      sub\n        /* \"#utility.yul\":4432:4449   */\n      swap1\n      pop\n        /* \"#utility.yul\":3928:4455   */\n      swap3\n      swap2\n      pop\n      pop\n      jump\t// out\n        /* \"#utility.yul\":4461:4641   */\n    tag_168:\n        /* \"#utility.yul\":4509:4586   */\n      0x4e487b7100000000000000000000000000000000000000000000000000000000\n        /* \"#utility.yul\":4506:4507   */\n      0x00\n        /* \"#utility.yul\":4499:4587   */\n      mstore\n        /* \"#utility.yul\":4606:4610   */\n      0x12\n        /* \"#utility.yul\":4603:4604   */\n      0x04\n        /* \"#utility.yul\":4596:4611   */\n      mstore\n        /* \"#utility.yul\":4630:4634   */\n      0x24\n        /* \"#utility.yul\":4627:4628   */\n      0x00\n        /* \"#utility.yul\":4620:4635   */\n      revert\n        /* \"#utility.yul\":4647:5032   */\n    tag_85:\n        /* \"#utility.yul\":4686:4687   */\n      0x00\n        /* \"#utility.yul\":4703:4722   */\n      tag_223\n        /* \"#utility.yul\":4720:4721   */\n      dup3\n        /* \"#utility.yul\":4703:4722   */\n      tag_167\n      jump\t// in\n    tag_223:\n        /* \"#utility.yul\":4698:4722   */\n      swap2\n      pop\n        /* \"#utility.yul\":4736:4755   */\n      tag_224\n        /* \"#utility.yul\":4753:4754   */\n      dup4\n        /* \"#utility.yul\":4736:4755   */\n      tag_167\n      jump\t// in\n    tag_224:\n        /* \"#utility.yul\":4731:4755   */\n      swap3\n      pop\n        /* \"#utility.yul\":4774:4775   */\n      dup3\n        /* \"#utility.yul\":4764:4799   */\n      tag_225\n      jumpi\n        /* \"#utility.yul\":4779:4797   */\n      tag_226\n      tag_168\n      jump\t// in\n    tag_226:\n        /* \"#utility.yul\":4764:4799   */\n    tag_225:\n        /* \"#utility.yul\":4965:4966   */\n      0x01\n        /* \"#utility.yul\":4962:4963   */\n      0x00\n        /* \"#utility.yul\":4958:4967   */\n      sub\n        /* \"#utility.yul\":4955:4956   */\n      dup4\n        /* \"#utility.yul\":4952:4968   */\n      eq\n        /* \"#utility.yul\":4871:4937   */\n      0x8000000000000000000000000000000000000000000000000000000000000000\n        /* \"#utility.yul\":4868:4869   */\n      dup4\n        /* \"#utility.yul\":4865:4938   */\n      eq\n        /* \"#utility.yul\":4848:4978   */\n      and\n        /* \"#utility.yul\":4845:5001   */\n      iszero\n      tag_227\n      jumpi\n        /* \"#utility.yul\":4981:4999   */\n      tag_228\n      tag_166\n      jump\t// in\n    tag_228:\n        /* \"#utility.yul\":4845:5001   */\n    tag_227:\n        /* \"#utility.yul\":5024:5025   */\n      dup3\n        /* \"#utility.yul\":5021:5022   */\n      dup3\n        /* \"#utility.yul\":5016:5026   */\n      sdiv\n        /* \"#utility.yul\":5011:5026   */\n      swap1\n      pop\n        /* \"#utility.yul\":4647:5032   */\n      swap3\n      swap2\n      pop\n      pop\n      jump\t// out\n        /* \"#utility.yul\":5038:5563   */\n    tag_87:\n        /* \"#utility.yul\":5077:5080   */\n      0x00\n        /* \"#utility.yul\":5096:5115   */\n      tag_230\n        /* \"#utility.yul\":5113:5114   */\n      dup3\n        /* \"#utility.yul\":5096:5115   */\n      tag_167\n      jump\t// in\n    tag_230:\n        /* \"#utility.yul\":5091:5115   */\n      swap2\n      pop\n        /* \"#utility.yul\":5129:5148   */\n      tag_231\n        /* \"#utility.yul\":5146:5147   */\n      dup4\n        /* \"#utility.yul\":5129:5148   */\n      tag_167\n      jump\t// in\n    tag_231:\n        /* \"#utility.yul\":5124:5148   */\n      swap3\n      pop\n        /* \"#utility.yul\":5317:5318   */\n      dup2\n        /* \"#utility.yul\":5249:5315   */\n      0x7fffffffffffffffffffffffffffffffffffffffffffffffffffffffffffffff\n        /* \"#utility.yul\":5245:5319   */\n      sub\n        /* \"#utility.yul\":5242:5243   */\n      dup4\n        /* \"#utility.yul\":5238:5320   */\n      sgt\n        /* \"#utility.yul\":5233:5234   */\n      0x00\n        /* \"#utility.yul\":5230:5231   */\n      dup4\n        /* \"#utility.yul\":5226:5235   */\n      slt\n        /* \"#utility.yul\":5219:5236   */\n      iszero\n        /* \"#utility.yul\":5215:5321   */\n      and\n        /* \"#utility.yul\":5212:5344   */\n      iszero\n      tag_232\n      jumpi\n        /* \"#utility.yul\":5324:5342   */\n      tag_233\n      tag_166\n      jump\t// in\n    tag_233:\n        /* \"#utility.yul\":5212:5344   */\n    tag_232:\n        /* \"#utility.yul\":5504:5505   */\n      dup2\n        /* \"#utility.yul\":5436:5502   */\n      0x8000000000000000000000000000000000000000000000000000000000000000\n        /* \"#utility.yul\":5432:5506   */\n      sub\n        /* \"#utility.yul\":5429:5430   */\n      dup4\n        /* \"#utility.yul\":5425:5507   */\n      slt\n        /* \"#utility.yul\":5421:5422   */\n      0x00\n        /* \"#utility.yul\":5418:5419   */\n      dup4\n        /* \"#utility.yul\":5414:5423   */\n      slt\n        /* \"#utility.yul\":5410:5508   */\n      and\n        /* \"#utility.yul\":5407:5531   */\n      iszero\n      tag_234\n      jumpi\n        /* \"#utility.yul\":5511:5529   */\n      tag_235\n      tag_166\n      jump\t// in\n    tag_235:\n        /* \"#utility.yul\":5407:5531   */\n    tag_234:\n        /* \"#utility.yul\":5555:5556   */\n      dup3\n        /* \"#utility.yul\":5552:5553   */\n      dup3\n        /* \"#utility.yul\":5548:5557   */\n      add\n        /* \"#utility.yul\":5541:5557   */\n      swap1\n      pop\n        /* \"#utility.yul\":5038:5563   */\n      swap3\n      swap2\n      pop\n      pop\n      jump\t// out\n        /* \"#utility.yul\":5569:5800   */\n    tag_97:\n        /* \"#utility.yul\":5607:5610   */\n      0x00\n        /* \"#utility.yul\":5630:5653   */\n      tag_237\n        /* \"#utility.yul\":5647:5652   */\n      dup3\n        /* \"#utility.yul\":5630:5653   */\n      tag_167\n      jump\t// in\n    tag_237:\n        /* \"#utility.yul\":5621:5653   */\n      swap2\n      pop\n        /* \"#utility.yul\":5675:5741   */\n      0x7fffffffffffffffffffffffffffffffffffffffffffffffffffffffffffffff\n        /* \"#utility.yul\":5668:5673   */\n      dup3\n        /* \"#utility.yul\":5665:5742   */\n      sub\n        /* \"#utility.yul\":5662:5765   */\n      tag_238\n      jumpi\n        /* \"#utility.yul\":5745:5763   */\n      tag_239\n      tag_166\n      jump\t// in\n    tag_239:\n        /* \"#utility.yul\":5662:5765   */\n    tag_238:\n        /* \"#utility.yul\":5792:5793   */\n      0x01\n        /* \"#utility.yul\":5785:5790   */\n      dup3\n        /* \"#utility.yul\":5781:5794   */\n      add\n        /* \"#utility.yul\":5774:5794   */\n      swap1\n      pop\n        /* \"#utility.yul\":5569:5800   */\n      swap2\n      swap1\n      pop\n      jump\t// out\n        /* \"#utility.yul\":5806:6037   */\n    tag_103:\n        /* \"#utility.yul\":5844:5847   */\n      0x00\n        /* \"#utility.yul\":5867:5890   */\n      tag_241\n        /* \"#utility.yul\":5884:5889   */\n      dup3\n        /* \"#utility.yul\":5867:5890   */\n      tag_167\n      jump\t// in\n    tag_241:\n        /* \"#utility.yul\":5858:5890   */\n      swap2\n      pop\n        /* \"#utility.yul\":5912:5978   */\n      0x8000000000000000000000000000000000000000000000000000000000000000\n        /* \"#utility.yul\":5905:5910   */\n      dup3\n        /* \"#utility.yul\":5902:5979   */\n      sub\n        /* \"#utility.yul\":5899:6002   */\n      tag_242\n      jumpi\n        /* \"#utility.yul\":5982:6000   */\n      tag_243\n      tag_166\n      jump\t// in\n    tag_243:\n        /* \"#utility.yul\":5899:6002   */\n    tag_242:\n        /* \"#utility.yul\":6029:6030   */\n      0x01\n        /* \"#utility.yul\":6022:6027   */\n      dup3\n        /* \"#utility.yul\":6018:6031   */\n      sub\n        /* \"#utility.yul\":6011:6031   */\n      swap1\n      pop\n        /* \"#utility.yul\":5806:6037   */\n      swap2\n      swap1\n      pop\n      jump\t// out\n\n    auxdata: 0xa2646970667358221220788b70c93d5e1c28fabd533ed2ebbca0ff49329d5b31bd37765f6d59f66ffaf064736f6c634300080d0033\n}\n",
				"bytecode": {
					"linkReferences": {},
					"object": "608060405234801561001057600080fd5b50610e67806100206000396000f3fe608060405234801561001057600080fd5b50600436106100575760003560e01c80631628e0f51461005c57806378c5b268146100785780639703ef35146100945780639979ef45146100b0578063ce0cdc87146100cc575b600080fd5b610076600480360381019061007191906109ef565b6100ea565b005b610092600480360381019061008d91906109ef565b610151565b005b6100ae60048036038101906100a991906109ef565b610213565b005b6100ca60048036038101906100c591906109ef565b61027a565b005b6100d461033c565b6040516100e19190610ada565b60405180910390f35b600181815481106100fe576100fd610afc565b5b9060005260206000209060030201600080820160006101000a81549073ffffffffffffffffffffffffffffffffffffffff021916905560018201600090556002820160009055505061014e610462565b50565b600060405180606001604052803373ffffffffffffffffffffffffffffffffffffffff168152602001838152602001428152509050600181908060018154018082558091505060019003906000526020600020906003020160009091909190915060008201518160000160006101000a81548173ffffffffffffffffffffffffffffffffffffffff021916908373ffffffffffffffffffffffffffffffffffffffff160217905550602082015181600101556040820151816002015550505050565b6000818154811061022757610226610afc565b5b9060005260206000209060030201600080820160006101000a81549073ffffffffffffffffffffffffffffffffffffffff0219169055600182016000905560028201600090555050610277610542565b50565b600060405180606001604052803373ffffffffffffffffffffffffffffffffffffffff168152602001838152602001428152509050600081908060018154018082558091505060019003906000526020600020906003020160009091909190915060008201518160000160006101000a81548173ffffffffffffffffffffffffffffffffffffffff021916908373ffffffffffffffffffffffffffffffffffffffff160217905550602082015181600101556040820151816002015550505050565b6060610346610622565b60005b60008054905081101561040b573373ffffffffffffffffffffffffffffffffffffffff166000828154811061038157610380610afc565b5b906000526020600020906003020160000160009054906101000a900473ffffffffffffffffffffffffffffffffffffffff1673ffffffffffffffffffffffffffffffffffffffff16036103f85760028190806001815401808255809150506001900390600052602060002001600090919091909150555b808061040390610b5a565b915050610349565b50600280548060200260200160405190810160405280929190818152602001828054801561045857602002820191906000526020600020905b815481526020019060010190808311610444575b5050505050905090565b6105406000805480602002602001604051908101604052809291908181526020016000905b8282101561052357838290600052602060002090600302016040518060600160405290816000820160009054906101000a900473ffffffffffffffffffffffffffffffffffffffff1673ffffffffffffffffffffffffffffffffffffffff1673ffffffffffffffffffffffffffffffffffffffff1681526020016001820154815260200160028201548152505081526020019060010190610487565b505050506000600160008054905061053b9190610ba2565b61066a565b565b6106206000805480602002602001604051908101604052809291908181526020016000905b8282101561060357838290600052602060002090600302016040518060600160405290816000820160009054906101000a900473ffffffffffffffffffffffffffffffffffffffff1673ffffffffffffffffffffffffffffffffffffffff1673ffffffffffffffffffffffffffffffffffffffff1681526020016001820154815260200160028201548152505081526020019060010190610567565b505050506000600160008054905061061b9190610ba2565b61080f565b565b60005b600280549050811015610667576002818154811061064657610645610afc565b5b9060005260206000200160009055808061065f90610b5a565b915050610625565b50565b6000829050600082905080820361068257505061080a565b600085600286866106939190610be0565b61069d9190610ca3565b866106a89190610d0d565b815181106106b9576106b8610afc565b5b60200260200101516040015190505b8183136107de575b808684815181106106e4576106e3610afc565b5b602002602001015160400151111561070957828061070190610da1565b9350506106d0565b5b85828151811061071d5761071c610afc565b5b60200260200101516040015181111561074357818061073b90610de9565b92505061070a565b8183136107d95785828151811061075d5761075c610afc565b5b602002602001015186848151811061077857610777610afc565b5b602002602001015187858151811061079357610792610afc565b5b602002602001018885815181106107ad576107ac610afc565b5b60200260200101829052829052505082806107c790610da1565b93505081806107d590610de9565b9250505b6106c8565b818512156107f2576107f186868461066a565b5b838312156108065761080586848661066a565b5b5050505b505050565b600082905060008290508082036108275750506109af565b600085600286866108389190610be0565b6108429190610ca3565b8661084d9190610d0d565b8151811061085e5761085d610afc565b5b60200260200101516040015190505b818313610983575b8086848151811061088957610888610afc565b5b60200260200101516040015110156108ae5782806108a690610da1565b935050610875565b5b8582815181106108c2576108c1610afc565b5b6020026020010151604001518110156108e85781806108e090610de9565b9250506108af565b81831361097e5785828151811061090257610901610afc565b5b602002602001015186848151811061091d5761091c610afc565b5b602002602001015187858151811061093857610937610afc565b5b6020026020010188858151811061095257610951610afc565b5b602002602001018290528290525050828061096c90610da1565b935050818061097a90610de9565b9250505b61086d565b818512156109975761099686868461080f565b5b838312156109ab576109aa86848661080f565b5b5050505b505050565b600080fd5b6000819050919050565b6109cc816109b9565b81146109d757600080fd5b50565b6000813590506109e9816109c3565b92915050565b600060208284031215610a0557610a046109b4565b5b6000610a13848285016109da565b91505092915050565b600081519050919050565b600082825260208201905092915050565b6000819050602082019050919050565b610a51816109b9565b82525050565b6000610a638383610a48565b60208301905092915050565b6000602082019050919050565b6000610a8782610a1c565b610a918185610a27565b9350610a9c83610a38565b8060005b83811015610acd578151610ab48882610a57565b9750610abf83610a6f565b925050600181019050610aa0565b5085935050505092915050565b60006020820190508181036000830152610af48184610a7c565b905092915050565b7f4e487b7100000000000000000000000000000000000000000000000000000000600052603260045260246000fd5b7f4e487b7100000000000000000000000000000000000000000000000000000000600052601160045260246000fd5b6000610b65826109b9565b91507fffffffffffffffffffffffffffffffffffffffffffffffffffffffffffffffff8203610b9757610b96610b2b565b5b600182019050919050565b6000610bad826109b9565b9150610bb8836109b9565b925082821015610bcb57610bca610b2b565b5b828203905092915050565b6000819050919050565b6000610beb82610bd6565b9150610bf683610bd6565b9250827f800000000000000000000000000000000000000000000000000000000000000001821260008412151615610c3157610c30610b2b565b5b827f7fffffffffffffffffffffffffffffffffffffffffffffffffffffffffffffff018213600084121615610c6957610c68610b2b565b5b828203905092915050565b7f4e487b7100000000000000000000000000000000000000000000000000000000600052601260045260246000fd5b6000610cae82610bd6565b9150610cb983610bd6565b925082610cc957610cc8610c74565b5b600160000383147f800000000000000000000000000000000000000000000000000000000000000083141615610d0257610d01610b2b565b5b828205905092915050565b6000610d1882610bd6565b9150610d2383610bd6565b9250817f7fffffffffffffffffffffffffffffffffffffffffffffffffffffffffffffff03831360008312151615610d5e57610d5d610b2b565b5b817f8000000000000000000000000000000000000000000000000000000000000000038312600083121615610d9657610d95610b2b565b5b828201905092915050565b6000610dac82610bd6565b91507f7fffffffffffffffffffffffffffffffffffffffffffffffffffffffffffffff8203610dde57610ddd610b2b565b5b600182019050919050565b6000610df482610bd6565b91507f80000000000000000000000000000000000000000000000000000000000000008203610e2657610e25610b2b565b5b60018203905091905056fea2646970667358221220788b70c93d5e1c28fabd533ed2ebbca0ff49329d5b31bd37765f6d59f66ffaf064736f6c634300080d0033",
					"opcodes": "PUSH1 0x80 PUSH1 0x40 MSTORE CALLVALUE DUP1 ISZERO PUSH2 0x10 JUMPI PUSH1 0x0 DUP1 REVERT JUMPDEST POP PUSH2 0xE67 DUP1 PUSH2 0x20 PUSH1 0x0 CODECOPY PUSH1 0x0 RETURN INVALID PUSH1 0x80 PUSH1 0x40 MSTORE CALLVALUE DUP1 ISZERO PUSH2 0x10 JUMPI PUSH1 0x0 DUP1 REVERT JUMPDEST POP PUSH1 0x4 CALLDATASIZE LT PUSH2 0x57 JUMPI PUSH1 0x0 CALLDATALOAD PUSH1 0xE0 SHR DUP1 PUSH4 0x1628E0F5 EQ PUSH2 0x5C JUMPI DUP1 PUSH4 0x78C5B268 EQ PUSH2 0x78 JUMPI DUP1 PUSH4 0x9703EF35 EQ PUSH2 0x94 JUMPI DUP1 PUSH4 0x9979EF45 EQ PUSH2 0xB0 JUMPI DUP1 PUSH4 0xCE0CDC87 EQ PUSH2 0xCC JUMPI JUMPDEST PUSH1 0x0 DUP1 REVERT JUMPDEST PUSH2 0x76 PUSH1 0x4 DUP1 CALLDATASIZE SUB DUP2 ADD SWAP1 PUSH2 0x71 SWAP2 SWAP1 PUSH2 0x9EF JUMP JUMPDEST PUSH2 0xEA JUMP JUMPDEST STOP JUMPDEST PUSH2 0x92 PUSH1 0x4 DUP1 CALLDATASIZE SUB DUP2 ADD SWAP1 PUSH2 0x8D SWAP2 SWAP1 PUSH2 0x9EF JUMP JUMPDEST PUSH2 0x151 JUMP JUMPDEST STOP JUMPDEST PUSH2 0xAE PUSH1 0x4 DUP1 CALLDATASIZE SUB DUP2 ADD SWAP1 PUSH2 0xA9 SWAP2 SWAP1 PUSH2 0x9EF JUMP JUMPDEST PUSH2 0x213 JUMP JUMPDEST STOP JUMPDEST PUSH2 0xCA PUSH1 0x4 DUP1 CALLDATASIZE SUB DUP2 ADD SWAP1 PUSH2 0xC5 SWAP2 SWAP1 PUSH2 0x9EF JUMP JUMPDEST PUSH2 0x27A JUMP JUMPDEST STOP JUMPDEST PUSH2 0xD4 PUSH2 0x33C JUMP JUMPDEST PUSH1 0x40 MLOAD PUSH2 0xE1 SWAP2 SWAP1 PUSH2 0xADA JUMP JUMPDEST PUSH1 0x40 MLOAD DUP1 SWAP2 SUB SWAP1 RETURN JUMPDEST PUSH1 0x1 DUP2 DUP2 SLOAD DUP2 LT PUSH2 0xFE JUMPI PUSH2 0xFD PUSH2 0xAFC JUMP JUMPDEST JUMPDEST SWAP1 PUSH1 0x0 MSTORE PUSH1 0x20 PUSH1 0x0 KECCAK256 SWAP1 PUSH1 0x3 MUL ADD PUSH1 0x0 DUP1 DUP3 ADD PUSH1 0x0 PUSH2 0x100 EXP DUP2 SLOAD SWAP1 PUSH20 0xFFFFFFFFFFFFFFFFFFFFFFFFFFFFFFFFFFFFFFFF MUL NOT AND SWAP1 SSTORE PUSH1 0x1 DUP3 ADD PUSH1 0x0 SWAP1 SSTORE PUSH1 0x2 DUP3 ADD PUSH1 0x0 SWAP1 SSTORE POP POP PUSH2 0x14E PUSH2 0x462 JUMP JUMPDEST POP JUMP JUMPDEST PUSH1 0x0 PUSH1 0x40 MLOAD DUP1 PUSH1 0x60 ADD PUSH1 0x40 MSTORE DUP1 CALLER PUSH20 0xFFFFFFFFFFFFFFFFFFFFFFFFFFFFFFFFFFFFFFFF AND DUP2 MSTORE PUSH1 0x20 ADD DUP4 DUP2 MSTORE PUSH1 0x20 ADD TIMESTAMP DUP2 MSTORE POP SWAP1 POP PUSH1 0x1 DUP2 SWAP1 DUP1 PUSH1 0x1 DUP2 SLOAD ADD DUP1 DUP3 SSTORE DUP1 SWAP2 POP POP PUSH1 0x1 SWAP1 SUB SWAP1 PUSH1 0x0 MSTORE PUSH1 0x20 PUSH1 0x0 KECCAK256 SWAP1 PUSH1 0x3 MUL ADD PUSH1 0x0 SWAP1 SWAP2 SWAP1 SWAP2 SWAP1 SWAP2 POP PUSH1 0x0 DUP3 ADD MLOAD DUP2 PUSH1 0x0 ADD PUSH1 0x0 PUSH2 0x100 EXP DUP2 SLOAD DUP2 PUSH20 0xFFFFFFFFFFFFFFFFFFFFFFFFFFFFFFFFFFFFFFFF MUL NOT AND SWAP1 DUP4 PUSH20 0xFFFFFFFFFFFFFFFFFFFFFFFFFFFFFFFFFFFFFFFF AND MUL OR SWAP1 SSTORE POP PUSH1 0x20 DUP3 ADD MLOAD DUP2 PUSH1 0x1 ADD SSTORE PUSH1 0x40 DUP3 ADD MLOAD DUP2 PUSH1 0x2 ADD SSTORE POP POP POP POP JUMP JUMPDEST PUSH1 0x0 DUP2 DUP2 SLOAD DUP2 LT PUSH2 0x227 JUMPI PUSH2 0x226 PUSH2 0xAFC JUMP JUMPDEST JUMPDEST SWAP1 PUSH1 0x0 MSTORE PUSH1 0x20 PUSH1 0x0 KECCAK256 SWAP1 PUSH1 0x3 MUL ADD PUSH1 0x0 DUP1 DUP3 ADD PUSH1 0x0 PUSH2 0x100 EXP DUP2 SLOAD SWAP1 PUSH20 0xFFFFFFFFFFFFFFFFFFFFFFFFFFFFFFFFFFFFFFFF MUL NOT AND SWAP1 SSTORE PUSH1 0x1 DUP3 ADD PUSH1 0x0 SWAP1 SSTORE PUSH1 0x2 DUP3 ADD PUSH1 0x0 SWAP1 SSTORE POP POP PUSH2 0x277 PUSH2 0x542 JUMP JUMPDEST POP JUMP JUMPDEST PUSH1 0x0 PUSH1 0x40 MLOAD DUP1 PUSH1 0x60 ADD PUSH1 0x40 MSTORE DUP1 CALLER PUSH20 0xFFFFFFFFFFFFFFFFFFFFFFFFFFFFFFFFFFFFFFFF AND DUP2 MSTORE PUSH1 0x20 ADD DUP4 DUP2 MSTORE PUSH1 0x20 ADD TIMESTAMP DUP2 MSTORE POP SWAP1 POP PUSH1 0x0 DUP2 SWAP1 DUP1 PUSH1 0x1 DUP2 SLOAD ADD DUP1 DUP3 SSTORE DUP1 SWAP2 POP POP PUSH1 0x1 SWAP1 SUB SWAP1 PUSH1 0x0 MSTORE PUSH1 0x20 PUSH1 0x0 KECCAK256 SWAP1 PUSH1 0x3 MUL ADD PUSH1 0x0 SWAP1 SWAP2 SWAP1 SWAP2 SWAP1 SWAP2 POP PUSH1 0x0 DUP3 ADD MLOAD DUP2 PUSH1 0x0 ADD PUSH1 0x0 PUSH2 0x100 EXP DUP2 SLOAD DUP2 PUSH20 0xFFFFFFFFFFFFFFFFFFFFFFFFFFFFFFFFFFFFFFFF MUL NOT AND SWAP1 DUP4 PUSH20 0xFFFFFFFFFFFFFFFFFFFFFFFFFFFFFFFFFFFFFFFF AND MUL OR SWAP1 SSTORE POP PUSH1 0x20 DUP3 ADD MLOAD DUP2 PUSH1 0x1 ADD SSTORE PUSH1 0x40 DUP3 ADD MLOAD DUP2 PUSH1 0x2 ADD SSTORE POP POP POP POP JUMP JUMPDEST PUSH1 0x60 PUSH2 0x346 PUSH2 0x622 JUMP JUMPDEST PUSH1 0x0 JUMPDEST PUSH1 0x0 DUP1 SLOAD SWAP1 POP DUP2 LT ISZERO PUSH2 0x40B JUMPI CALLER PUSH20 0xFFFFFFFFFFFFFFFFFFFFFFFFFFFFFFFFFFFFFFFF AND PUSH1 0x0 DUP3 DUP2 SLOAD DUP2 LT PUSH2 0x381 JUMPI PUSH2 0x380 PUSH2 0xAFC JUMP JUMPDEST JUMPDEST SWAP1 PUSH1 0x0 MSTORE PUSH1 0x20 PUSH1 0x0 KECCAK256 SWAP1 PUSH1 0x3 MUL ADD PUSH1 0x0 ADD PUSH1 0x0 SWAP1 SLOAD SWAP1 PUSH2 0x100 EXP SWAP1 DIV PUSH20 0xFFFFFFFFFFFFFFFFFFFFFFFFFFFFFFFFFFFFFFFF AND PUSH20 0xFFFFFFFFFFFFFFFFFFFFFFFFFFFFFFFFFFFFFFFF AND SUB PUSH2 0x3F8 JUMPI PUSH1 0x2 DUP2 SWAP1 DUP1 PUSH1 0x1 DUP2 SLOAD ADD DUP1 DUP3 SSTORE DUP1 SWAP2 POP POP PUSH1 0x1 SWAP1 SUB SWAP1 PUSH1 0x0 MSTORE PUSH1 0x20 PUSH1 0x0 KECCAK256 ADD PUSH1 0x0 SWAP1 SWAP2 SWAP1 SWAP2 SWAP1 SWAP2 POP SSTORE JUMPDEST DUP1 DUP1 PUSH2 0x403 SWAP1 PUSH2 0xB5A JUMP JUMPDEST SWAP2 POP POP PUSH2 0x349 JUMP JUMPDEST POP PUSH1 0x2 DUP1 SLOAD DUP1 PUSH1 0x20 MUL PUSH1 0x20 ADD PUSH1 0x40 MLOAD SWAP1 DUP2 ADD PUSH1 0x40 MSTORE DUP1 SWAP3 SWAP2 SWAP1 DUP2 DUP2 MSTORE PUSH1 0x20 ADD DUP3 DUP1 SLOAD DUP1 ISZERO PUSH2 0x458 JUMPI PUSH1 0x20 MUL DUP3 ADD SWAP2 SWAP1 PUSH1 0x0 MSTORE PUSH1 0x20 PUSH1 0x0 KECCAK256 SWAP1 JUMPDEST DUP2 SLOAD DUP2 MSTORE PUSH1 0x20 ADD SWAP1 PUSH1 0x1 ADD SWAP1 DUP1 DUP4 GT PUSH2 0x444 JUMPI JUMPDEST POP POP POP POP POP SWAP1 POP SWAP1 JUMP JUMPDEST PUSH2 0x540 PUSH1 0x0 DUP1 SLOAD DUP1 PUSH1 0x20 MUL PUSH1 0x20 ADD PUSH1 0x40 MLOAD SWAP1 DUP2 ADD PUSH1 0x40 MSTORE DUP1 SWAP3 SWAP2 SWAP1 DUP2 DUP2 MSTORE PUSH1 0x20 ADD PUSH1 0x0 SWAP1 JUMPDEST DUP3 DUP3 LT ISZERO PUSH2 0x523 JUMPI DUP4 DUP3 SWAP1 PUSH1 0x0 MSTORE PUSH1 0x20 PUSH1 0x0 KECCAK256 SWAP1 PUSH1 0x3 MUL ADD PUSH1 0x40 MLOAD DUP1 PUSH1 0x60 ADD PUSH1 0x40 MSTORE SWAP1 DUP2 PUSH1 0x0 DUP3 ADD PUSH1 0x0 SWAP1 SLOAD SWAP1 PUSH2 0x100 EXP SWAP1 DIV PUSH20 0xFFFFFFFFFFFFFFFFFFFFFFFFFFFFFFFFFFFFFFFF AND PUSH20 0xFFFFFFFFFFFFFFFFFFFFFFFFFFFFFFFFFFFFFFFF AND PUSH20 0xFFFFFFFFFFFFFFFFFFFFFFFFFFFFFFFFFFFFFFFF AND DUP2 MSTORE PUSH1 0x20 ADD PUSH1 0x1 DUP3 ADD SLOAD DUP2 MSTORE PUSH1 0x20 ADD PUSH1 0x2 DUP3 ADD SLOAD DUP2 MSTORE POP POP DUP2 MSTORE PUSH1 0x20 ADD SWAP1 PUSH1 0x1 ADD SWAP1 PUSH2 0x487 JUMP JUMPDEST POP POP POP POP PUSH1 0x0 PUSH1 0x1 PUSH1 0x0 DUP1 SLOAD SWAP1 POP PUSH2 0x53B SWAP2 SWAP1 PUSH2 0xBA2 JUMP JUMPDEST PUSH2 0x66A JUMP JUMPDEST JUMP JUMPDEST PUSH2 0x620 PUSH1 0x0 DUP1 SLOAD DUP1 PUSH1 0x20 MUL PUSH1 0x20 ADD PUSH1 0x40 MLOAD SWAP1 DUP2 ADD PUSH1 0x40 MSTORE DUP1 SWAP3 SWAP2 SWAP1 DUP2 DUP2 MSTORE PUSH1 0x20 ADD PUSH1 0x0 SWAP1 JUMPDEST DUP3 DUP3 LT ISZERO PUSH2 0x603 JUMPI DUP4 DUP3 SWAP1 PUSH1 0x0 MSTORE PUSH1 0x20 PUSH1 0x0 KECCAK256 SWAP1 PUSH1 0x3 MUL ADD PUSH1 0x40 MLOAD DUP1 PUSH1 0x60 ADD PUSH1 0x40 MSTORE SWAP1 DUP2 PUSH1 0x0 DUP3 ADD PUSH1 0x0 SWAP1 SLOAD SWAP1 PUSH2 0x100 EXP SWAP1 DIV PUSH20 0xFFFFFFFFFFFFFFFFFFFFFFFFFFFFFFFFFFFFFFFF AND PUSH20 0xFFFFFFFFFFFFFFFFFFFFFFFFFFFFFFFFFFFFFFFF AND PUSH20 0xFFFFFFFFFFFFFFFFFFFFFFFFFFFFFFFFFFFFFFFF AND DUP2 MSTORE PUSH1 0x20 ADD PUSH1 0x1 DUP3 ADD SLOAD DUP2 MSTORE PUSH1 0x20 ADD PUSH1 0x2 DUP3 ADD SLOAD DUP2 MSTORE POP POP DUP2 MSTORE PUSH1 0x20 ADD SWAP1 PUSH1 0x1 ADD SWAP1 PUSH2 0x567 JUMP JUMPDEST POP POP POP POP PUSH1 0x0 PUSH1 0x1 PUSH1 0x0 DUP1 SLOAD SWAP1 POP PUSH2 0x61B SWAP2 SWAP1 PUSH2 0xBA2 JUMP JUMPDEST PUSH2 0x80F JUMP JUMPDEST JUMP JUMPDEST PUSH1 0x0 JUMPDEST PUSH1 0x2 DUP1 SLOAD SWAP1 POP DUP2 LT ISZERO PUSH2 0x667 JUMPI PUSH1 0x2 DUP2 DUP2 SLOAD DUP2 LT PUSH2 0x646 JUMPI PUSH2 0x645 PUSH2 0xAFC JUMP JUMPDEST JUMPDEST SWAP1 PUSH1 0x0 MSTORE PUSH1 0x20 PUSH1 0x0 KECCAK256 ADD PUSH1 0x0 SWAP1 SSTORE DUP1 DUP1 PUSH2 0x65F SWAP1 PUSH2 0xB5A JUMP JUMPDEST SWAP2 POP POP PUSH2 0x625 JUMP JUMPDEST POP JUMP JUMPDEST PUSH1 0x0 DUP3 SWAP1 POP PUSH1 0x0 DUP3 SWAP1 POP DUP1 DUP3 SUB PUSH2 0x682 JUMPI POP POP PUSH2 0x80A JUMP JUMPDEST PUSH1 0x0 DUP6 PUSH1 0x2 DUP7 DUP7 PUSH2 0x693 SWAP2 SWAP1 PUSH2 0xBE0 JUMP JUMPDEST PUSH2 0x69D SWAP2 SWAP1 PUSH2 0xCA3 JUMP JUMPDEST DUP7 PUSH2 0x6A8 SWAP2 SWAP1 PUSH2 0xD0D JUMP JUMPDEST DUP2 MLOAD DUP2 LT PUSH2 0x6B9 JUMPI PUSH2 0x6B8 PUSH2 0xAFC JUMP JUMPDEST JUMPDEST PUSH1 0x20 MUL PUSH1 0x20 ADD ADD MLOAD PUSH1 0x40 ADD MLOAD SWAP1 POP JUMPDEST DUP2 DUP4 SGT PUSH2 0x7DE JUMPI JUMPDEST DUP1 DUP7 DUP5 DUP2 MLOAD DUP2 LT PUSH2 0x6E4 JUMPI PUSH2 0x6E3 PUSH2 0xAFC JUMP JUMPDEST JUMPDEST PUSH1 0x20 MUL PUSH1 0x20 ADD ADD MLOAD PUSH1 0x40 ADD MLOAD GT ISZERO PUSH2 0x709 JUMPI DUP3 DUP1 PUSH2 0x701 SWAP1 PUSH2 0xDA1 JUMP JUMPDEST SWAP4 POP POP PUSH2 0x6D0 JUMP JUMPDEST JUMPDEST DUP6 DUP3 DUP2 MLOAD DUP2 LT PUSH2 0x71D JUMPI PUSH2 0x71C PUSH2 0xAFC JUMP JUMPDEST JUMPDEST PUSH1 0x20 MUL PUSH1 0x20 ADD ADD MLOAD PUSH1 0x40 ADD MLOAD DUP2 GT ISZERO PUSH2 0x743 JUMPI DUP2 DUP1 PUSH2 0x73B SWAP1 PUSH2 0xDE9 JUMP JUMPDEST SWAP3 POP POP PUSH2 0x70A JUMP JUMPDEST DUP2 DUP4 SGT PUSH2 0x7D9 JUMPI DUP6 DUP3 DUP2 MLOAD DUP2 LT PUSH2 0x75D JUMPI PUSH2 0x75C PUSH2 0xAFC JUMP JUMPDEST JUMPDEST PUSH1 0x20 MUL PUSH1 0x20 ADD ADD MLOAD DUP7 DUP5 DUP2 MLOAD DUP2 LT PUSH2 0x778 JUMPI PUSH2 0x777 PUSH2 0xAFC JUMP JUMPDEST JUMPDEST PUSH1 0x20 MUL PUSH1 0x20 ADD ADD MLOAD DUP8 DUP6 DUP2 MLOAD DUP2 LT PUSH2 0x793 JUMPI PUSH2 0x792 PUSH2 0xAFC JUMP JUMPDEST JUMPDEST PUSH1 0x20 MUL PUSH1 0x20 ADD ADD DUP9 DUP6 DUP2 MLOAD DUP2 LT PUSH2 0x7AD JUMPI PUSH2 0x7AC PUSH2 0xAFC JUMP JUMPDEST JUMPDEST PUSH1 0x20 MUL PUSH1 0x20 ADD ADD DUP3 SWAP1 MSTORE DUP3 SWAP1 MSTORE POP POP DUP3 DUP1 PUSH2 0x7C7 SWAP1 PUSH2 0xDA1 JUMP JUMPDEST SWAP4 POP POP DUP2 DUP1 PUSH2 0x7D5 SWAP1 PUSH2 0xDE9 JUMP JUMPDEST SWAP3 POP POP JUMPDEST PUSH2 0x6C8 JUMP JUMPDEST DUP2 DUP6 SLT ISZERO PUSH2 0x7F2 JUMPI PUSH2 0x7F1 DUP7 DUP7 DUP5 PUSH2 0x66A JUMP JUMPDEST JUMPDEST DUP4 DUP4 SLT ISZERO PUSH2 0x806 JUMPI PUSH2 0x805 DUP7 DUP5 DUP7 PUSH2 0x66A JUMP JUMPDEST JUMPDEST POP POP POP JUMPDEST POP POP POP JUMP JUMPDEST PUSH1 0x0 DUP3 SWAP1 POP PUSH1 0x0 DUP3 SWAP1 POP DUP1 DUP3 SUB PUSH2 0x827 JUMPI POP POP PUSH2 0x9AF JUMP JUMPDEST PUSH1 0x0 DUP6 PUSH1 0x2 DUP7 DUP7 PUSH2 0x838 SWAP2 SWAP1 PUSH2 0xBE0 JUMP JUMPDEST PUSH2 0x842 SWAP2 SWAP1 PUSH2 0xCA3 JUMP JUMPDEST DUP7 PUSH2 0x84D SWAP2 SWAP1 PUSH2 0xD0D JUMP JUMPDEST DUP2 MLOAD DUP2 LT PUSH2 0x85E JUMPI PUSH2 0x85D PUSH2 0xAFC JUMP JUMPDEST JUMPDEST PUSH1 0x20 MUL PUSH1 0x20 ADD ADD MLOAD PUSH1 0x40 ADD MLOAD SWAP1 POP JUMPDEST DUP2 DUP4 SGT PUSH2 0x983 JUMPI JUMPDEST DUP1 DUP7 DUP5 DUP2 MLOAD DUP2 LT PUSH2 0x889 JUMPI PUSH2 0x888 PUSH2 0xAFC JUMP JUMPDEST JUMPDEST PUSH1 0x20 MUL PUSH1 0x20 ADD ADD MLOAD PUSH1 0x40 ADD MLOAD LT ISZERO PUSH2 0x8AE JUMPI DUP3 DUP1 PUSH2 0x8A6 SWAP1 PUSH2 0xDA1 JUMP JUMPDEST SWAP4 POP POP PUSH2 0x875 JUMP JUMPDEST JUMPDEST DUP6 DUP3 DUP2 MLOAD DUP2 LT PUSH2 0x8C2 JUMPI PUSH2 0x8C1 PUSH2 0xAFC JUMP JUMPDEST JUMPDEST PUSH1 0x20 MUL PUSH1 0x20 ADD ADD MLOAD PUSH1 0x40 ADD MLOAD DUP2 LT ISZERO PUSH2 0x8E8 JUMPI DUP2 DUP1 PUSH2 0x8E0 SWAP1 PUSH2 0xDE9 JUMP JUMPDEST SWAP3 POP POP PUSH2 0x8AF JUMP JUMPDEST DUP2 DUP4 SGT PUSH2 0x97E JUMPI DUP6 DUP3 DUP2 MLOAD DUP2 LT PUSH2 0x902 JUMPI PUSH2 0x901 PUSH2 0xAFC JUMP JUMPDEST JUMPDEST PUSH1 0x20 MUL PUSH1 0x20 ADD ADD MLOAD DUP7 DUP5 DUP2 MLOAD DUP2 LT PUSH2 0x91D JUMPI PUSH2 0x91C PUSH2 0xAFC JUMP JUMPDEST JUMPDEST PUSH1 0x20 MUL PUSH1 0x20 ADD ADD MLOAD DUP8 DUP6 DUP2 MLOAD DUP2 LT PUSH2 0x938 JUMPI PUSH2 0x937 PUSH2 0xAFC JUMP JUMPDEST JUMPDEST PUSH1 0x20 MUL PUSH1 0x20 ADD ADD DUP9 DUP6 DUP2 MLOAD DUP2 LT PUSH2 0x952 JUMPI PUSH2 0x951 PUSH2 0xAFC JUMP JUMPDEST JUMPDEST PUSH1 0x20 MUL PUSH1 0x20 ADD ADD DUP3 SWAP1 MSTORE DUP3 SWAP1 MSTORE POP POP DUP3 DUP1 PUSH2 0x96C SWAP1 PUSH2 0xDA1 JUMP JUMPDEST SWAP4 POP POP DUP2 DUP1 PUSH2 0x97A SWAP1 PUSH2 0xDE9 JUMP JUMPDEST SWAP3 POP POP JUMPDEST PUSH2 0x86D JUMP JUMPDEST DUP2 DUP6 SLT ISZERO PUSH2 0x997 JUMPI PUSH2 0x996 DUP7 DUP7 DUP5 PUSH2 0x80F JUMP JUMPDEST JUMPDEST DUP4 DUP4 SLT ISZERO PUSH2 0x9AB JUMPI PUSH2 0x9AA DUP7 DUP5 DUP7 PUSH2 0x80F JUMP JUMPDEST JUMPDEST POP POP POP JUMPDEST POP POP POP JUMP JUMPDEST PUSH1 0x0 DUP1 REVERT JUMPDEST PUSH1 0x0 DUP2 SWAP1 POP SWAP2 SWAP1 POP JUMP JUMPDEST PUSH2 0x9CC DUP2 PUSH2 0x9B9 JUMP JUMPDEST DUP2 EQ PUSH2 0x9D7 JUMPI PUSH1 0x0 DUP1 REVERT JUMPDEST POP JUMP JUMPDEST PUSH1 0x0 DUP2 CALLDATALOAD SWAP1 POP PUSH2 0x9E9 DUP2 PUSH2 0x9C3 JUMP JUMPDEST SWAP3 SWAP2 POP POP JUMP JUMPDEST PUSH1 0x0 PUSH1 0x20 DUP3 DUP5 SUB SLT ISZERO PUSH2 0xA05 JUMPI PUSH2 0xA04 PUSH2 0x9B4 JUMP JUMPDEST JUMPDEST PUSH1 0x0 PUSH2 0xA13 DUP5 DUP3 DUP6 ADD PUSH2 0x9DA JUMP JUMPDEST SWAP2 POP POP SWAP3 SWAP2 POP POP JUMP JUMPDEST PUSH1 0x0 DUP2 MLOAD SWAP1 POP SWAP2 SWAP1 POP JUMP JUMPDEST PUSH1 0x0 DUP3 DUP3 MSTORE PUSH1 0x20 DUP3 ADD SWAP1 POP SWAP3 SWAP2 POP POP JUMP JUMPDEST PUSH1 0x0 DUP2 SWAP1 POP PUSH1 0x20 DUP3 ADD SWAP1 POP SWAP2 SWAP1 POP JUMP JUMPDEST PUSH2 0xA51 DUP2 PUSH2 0x9B9 JUMP JUMPDEST DUP3 MSTORE POP POP JUMP JUMPDEST PUSH1 0x0 PUSH2 0xA63 DUP4 DUP4 PUSH2 0xA48 JUMP JUMPDEST PUSH1 0x20 DUP4 ADD SWAP1 POP SWAP3 SWAP2 POP POP JUMP JUMPDEST PUSH1 0x0 PUSH1 0x20 DUP3 ADD SWAP1 POP SWAP2 SWAP1 POP JUMP JUMPDEST PUSH1 0x0 PUSH2 0xA87 DUP3 PUSH2 0xA1C JUMP JUMPDEST PUSH2 0xA91 DUP2 DUP6 PUSH2 0xA27 JUMP JUMPDEST SWAP4 POP PUSH2 0xA9C DUP4 PUSH2 0xA38 JUMP JUMPDEST DUP1 PUSH1 0x0 JUMPDEST DUP4 DUP2 LT ISZERO PUSH2 0xACD JUMPI DUP2 MLOAD PUSH2 0xAB4 DUP9 DUP3 PUSH2 0xA57 JUMP JUMPDEST SWAP8 POP PUSH2 0xABF DUP4 PUSH2 0xA6F JUMP JUMPDEST SWAP3 POP POP PUSH1 0x1 DUP2 ADD SWAP1 POP PUSH2 0xAA0 JUMP JUMPDEST POP DUP6 SWAP4 POP POP POP POP SWAP3 SWAP2 POP POP JUMP JUMPDEST PUSH1 0x0 PUSH1 0x20 DUP3 ADD SWAP1 POP DUP2 DUP2 SUB PUSH1 0x0 DUP4 ADD MSTORE PUSH2 0xAF4 DUP2 DUP5 PUSH2 0xA7C JUMP JUMPDEST SWAP1 POP SWAP3 SWAP2 POP POP JUMP JUMPDEST PUSH32 0x4E487B7100000000000000000000000000000000000000000000000000000000 PUSH1 0x0 MSTORE PUSH1 0x32 PUSH1 0x4 MSTORE PUSH1 0x24 PUSH1 0x0 REVERT JUMPDEST PUSH32 0x4E487B7100000000000000000000000000000000000000000000000000000000 PUSH1 0x0 MSTORE PUSH1 0x11 PUSH1 0x4 MSTORE PUSH1 0x24 PUSH1 0x0 REVERT JUMPDEST PUSH1 0x0 PUSH2 0xB65 DUP3 PUSH2 0x9B9 JUMP JUMPDEST SWAP2 POP PUSH32 0xFFFFFFFFFFFFFFFFFFFFFFFFFFFFFFFFFFFFFFFFFFFFFFFFFFFFFFFFFFFFFFFF DUP3 SUB PUSH2 0xB97 JUMPI PUSH2 0xB96 PUSH2 0xB2B JUMP JUMPDEST JUMPDEST PUSH1 0x1 DUP3 ADD SWAP1 POP SWAP2 SWAP1 POP JUMP JUMPDEST PUSH1 0x0 PUSH2 0xBAD DUP3 PUSH2 0x9B9 JUMP JUMPDEST SWAP2 POP PUSH2 0xBB8 DUP4 PUSH2 0x9B9 JUMP JUMPDEST SWAP3 POP DUP3 DUP3 LT ISZERO PUSH2 0xBCB JUMPI PUSH2 0xBCA PUSH2 0xB2B JUMP JUMPDEST JUMPDEST DUP3 DUP3 SUB SWAP1 POP SWAP3 SWAP2 POP POP JUMP JUMPDEST PUSH1 0x0 DUP2 SWAP1 POP SWAP2 SWAP1 POP JUMP JUMPDEST PUSH1 0x0 PUSH2 0xBEB DUP3 PUSH2 0xBD6 JUMP JUMPDEST SWAP2 POP PUSH2 0xBF6 DUP4 PUSH2 0xBD6 JUMP JUMPDEST SWAP3 POP DUP3 PUSH32 0x8000000000000000000000000000000000000000000000000000000000000000 ADD DUP3 SLT PUSH1 0x0 DUP5 SLT ISZERO AND ISZERO PUSH2 0xC31 JUMPI PUSH2 0xC30 PUSH2 0xB2B JUMP JUMPDEST JUMPDEST DUP3 PUSH32 0x7FFFFFFFFFFFFFFFFFFFFFFFFFFFFFFFFFFFFFFFFFFFFFFFFFFFFFFFFFFFFFFF ADD DUP3 SGT PUSH1 0x0 DUP5 SLT AND ISZERO PUSH2 0xC69 JUMPI PUSH2 0xC68 PUSH2 0xB2B JUMP JUMPDEST JUMPDEST DUP3 DUP3 SUB SWAP1 POP SWAP3 SWAP2 POP POP JUMP JUMPDEST PUSH32 0x4E487B7100000000000000000000000000000000000000000000000000000000 PUSH1 0x0 MSTORE PUSH1 0x12 PUSH1 0x4 MSTORE PUSH1 0x24 PUSH1 0x0 REVERT JUMPDEST PUSH1 0x0 PUSH2 0xCAE DUP3 PUSH2 0xBD6 JUMP JUMPDEST SWAP2 POP PUSH2 0xCB9 DUP4 PUSH2 0xBD6 JUMP JUMPDEST SWAP3 POP DUP3 PUSH2 0xCC9 JUMPI PUSH2 0xCC8 PUSH2 0xC74 JUMP JUMPDEST JUMPDEST PUSH1 0x1 PUSH1 0x0 SUB DUP4 EQ PUSH32 0x8000000000000000000000000000000000000000000000000000000000000000 DUP4 EQ AND ISZERO PUSH2 0xD02 JUMPI PUSH2 0xD01 PUSH2 0xB2B JUMP JUMPDEST JUMPDEST DUP3 DUP3 SDIV SWAP1 POP SWAP3 SWAP2 POP POP JUMP JUMPDEST PUSH1 0x0 PUSH2 0xD18 DUP3 PUSH2 0xBD6 JUMP JUMPDEST SWAP2 POP PUSH2 0xD23 DUP4 PUSH2 0xBD6 JUMP JUMPDEST SWAP3 POP DUP2 PUSH32 0x7FFFFFFFFFFFFFFFFFFFFFFFFFFFFFFFFFFFFFFFFFFFFFFFFFFFFFFFFFFFFFFF SUB DUP4 SGT PUSH1 0x0 DUP4 SLT ISZERO AND ISZERO PUSH2 0xD5E JUMPI PUSH2 0xD5D PUSH2 0xB2B JUMP JUMPDEST JUMPDEST DUP2 PUSH32 0x8000000000000000000000000000000000000000000000000000000000000000 SUB DUP4 SLT PUSH1 0x0 DUP4 SLT AND ISZERO PUSH2 0xD96 JUMPI PUSH2 0xD95 PUSH2 0xB2B JUMP JUMPDEST JUMPDEST DUP3 DUP3 ADD SWAP1 POP SWAP3 SWAP2 POP POP JUMP JUMPDEST PUSH1 0x0 PUSH2 0xDAC DUP3 PUSH2 0xBD6 JUMP JUMPDEST SWAP2 POP PUSH32 0x7FFFFFFFFFFFFFFFFFFFFFFFFFFFFFFFFFFFFFFFFFFFFFFFFFFFFFFFFFFFFFFF DUP3 SUB PUSH2 0xDDE JUMPI PUSH2 0xDDD PUSH2 0xB2B JUMP JUMPDEST JUMPDEST PUSH1 0x1 DUP3 ADD SWAP1 POP SWAP2 SWAP1 POP JUMP JUMPDEST PUSH1 0x0 PUSH2 0xDF4 DUP3 PUSH2 0xBD6 JUMP JUMPDEST SWAP2 POP PUSH32 0x8000000000000000000000000000000000000000000000000000000000000000 DUP3 SUB PUSH2 0xE26 JUMPI PUSH2 0xE25 PUSH2 0xB2B JUMP JUMPDEST JUMPDEST PUSH1 0x1 DUP3 SUB SWAP1 POP SWAP2 SWAP1 POP JUMP INVALID LOG2 PUSH5 0x6970667358 0x22 SLT KECCAK256 PUSH25 0x8B70C93D5E1C28FABD533ED2EBBCA0FF49329D5B31BD37765F PUSH14 0x59F66FFAF064736F6C634300080D STOP CALLER "
				},
				"gasEstimates": {
					"creation": {
						"codeDepositCost": "737400",
						"executionCost": "773",
						"totalCost": "738173"
					},
					"external": {
						"cancelAsk(uint256)": "infinite",
						"cancelBid(uint256)": "infinite",
						"fetchYourBidIds()": "infinite",
						"placeAsk(uint256)": "93359",
						"placeBid(uint256)": "93403"
					},
					"internal": {
						"ascendingQuickSort(struct OrderBook.order memory[] memory,int256,int256)": "infinite",
						"deleteArray()": "infinite",
						"descendingQuickSort(struct OrderBook.order memory[] memory,int256,int256)": "infinite",
						"sortAsk()": "infinite",
						"sortBid()": "infinite"
					}
				},
				"methodIdentifiers": {
					"cancelAsk(uint256)": "1628e0f5",
					"cancelBid(uint256)": "9703ef35",
					"fetchYourBidIds()": "ce0cdc87",
					"placeAsk(uint256)": "78c5b268",
					"placeBid(uint256)": "9979ef45"
				}
			},
			"storageLayout": {
				"storage": [
					{
						"astId": 12,
						"contract": "contracts/OrderBook.sol:OrderBook",
						"label": "bidBook",
						"offset": 0,
						"slot": "0",
						"type": "t_array(t_struct(order)8_storage)dyn_storage"
					},
					{
						"astId": 16,
						"contract": "contracts/OrderBook.sol:OrderBook",
						"label": "askBook",
						"offset": 0,
						"slot": "1",
						"type": "t_array(t_struct(order)8_storage)dyn_storage"
					},
					{
						"astId": 19,
						"contract": "contracts/OrderBook.sol:OrderBook",
						"label": "request",
						"offset": 0,
						"slot": "2",
						"type": "t_array(t_uint256)dyn_storage"
					}
				],
				"types": {
					"t_address_payable": {
						"encoding": "inplace",
						"label": "address payable",
						"numberOfBytes": "20"
					},
					"t_array(t_struct(order)8_storage)dyn_storage": {
						"base": "t_struct(order)8_storage",
						"encoding": "dynamic_array",
						"label": "struct OrderBook.order[]",
						"numberOfBytes": "32"
					},
					"t_array(t_uint256)dyn_storage": {
						"base": "t_uint256",
						"encoding": "dynamic_array",
						"label": "uint256[]",
						"numberOfBytes": "32"
					},
					"t_struct(order)8_storage": {
						"encoding": "inplace",
						"label": "struct OrderBook.order",
						"members": [
							{
								"astId": 3,
								"contract": "contracts/OrderBook.sol:OrderBook",
								"label": "customer",
								"offset": 0,
								"slot": "0",
								"type": "t_address_payable"
							},
							{
								"astId": 5,
								"contract": "contracts/OrderBook.sol:OrderBook",
								"label": "price",
								"offset": 0,
								"slot": "1",
								"type": "t_uint256"
							},
							{
								"astId": 7,
								"contract": "contracts/OrderBook.sol:OrderBook",
								"label": "timestamp",
								"offset": 0,
								"slot": "2",
								"type": "t_uint256"
							}
						],
						"numberOfBytes": "96"
					},
					"t_uint256": {
						"encoding": "inplace",
						"label": "uint256",
						"numberOfBytes": "32"
					}
				}
			},
			"userdoc": {
				"kind": "user",
				"methods": {},
				"version": 1
			}
		}
	}
}