{
	"contracts/OrderBook.sol": {
		"OrderBook": {
			"abi": [
				{
					"inputs": [
						{
							"internalType": "uint256",
							"name": "_commission",
							"type": "uint256"
						}
					],
					"stateMutability": "nonpayable",
					"type": "constructor"
				},
				{
					"anonymous": false,
					"inputs": [
						{
							"indexed": false,
							"internalType": "uint256",
							"name": "",
							"type": "uint256"
						}
					],
					"name": "askCancelled",
					"type": "event"
				},
				{
					"anonymous": false,
					"inputs": [
						{
							"indexed": false,
							"internalType": "address",
							"name": "",
							"type": "address"
						},
						{
							"indexed": false,
							"internalType": "uint256",
							"name": "",
							"type": "uint256"
						},
						{
							"indexed": false,
							"internalType": "uint256",
							"name": "",
							"type": "uint256"
						},
						{
							"indexed": false,
							"internalType": "enum OrderBook.State",
							"name": "",
							"type": "uint8"
						}
					],
					"name": "askPlaced",
					"type": "event"
				},
				{
					"anonymous": false,
					"inputs": [
						{
							"indexed": false,
							"internalType": "uint256",
							"name": "",
							"type": "uint256"
						}
					],
					"name": "bidCancelled",
					"type": "event"
				},
				{
					"anonymous": false,
					"inputs": [
						{
							"indexed": false,
							"internalType": "address",
							"name": "",
							"type": "address"
						},
						{
							"indexed": false,
							"internalType": "uint256",
							"name": "",
							"type": "uint256"
						},
						{
							"indexed": false,
							"internalType": "uint256",
							"name": "",
							"type": "uint256"
						},
						{
							"indexed": false,
							"internalType": "enum OrderBook.State",
							"name": "",
							"type": "uint8"
						}
					],
					"name": "bidPlaced",
					"type": "event"
				},
				{
					"inputs": [
						{
							"internalType": "uint256",
							"name": "askId",
							"type": "uint256"
						}
					],
					"name": "cancelAsk",
					"outputs": [],
					"stateMutability": "nonpayable",
					"type": "function"
				},
				{
					"inputs": [
						{
							"internalType": "uint256",
							"name": "bidId",
							"type": "uint256"
						}
					],
					"name": "cancelBid",
					"outputs": [],
					"stateMutability": "nonpayable",
					"type": "function"
				},
				{
					"inputs": [],
					"name": "fetchYourAskIds",
					"outputs": [
						{
							"internalType": "uint256[]",
							"name": "",
							"type": "uint256[]"
						}
					],
					"stateMutability": "nonpayable",
					"type": "function"
				},
				{
					"inputs": [],
					"name": "fetchYourBidIds",
					"outputs": [
						{
							"internalType": "uint256[]",
							"name": "",
							"type": "uint256[]"
						}
					],
					"stateMutability": "nonpayable",
					"type": "function"
				},
				{
					"inputs": [
						{
							"internalType": "uint256",
							"name": "id",
							"type": "uint256"
						}
					],
					"name": "getAskAddress",
					"outputs": [
						{
							"internalType": "address payable",
							"name": "",
							"type": "address"
						}
					],
					"stateMutability": "view",
					"type": "function"
				},
				{
					"inputs": [
						{
							"internalType": "uint256",
							"name": "id",
							"type": "uint256"
						}
					],
					"name": "getAskState",
					"outputs": [
						{
							"internalType": "enum OrderBook.State",
							"name": "",
							"type": "uint8"
						}
					],
					"stateMutability": "view",
					"type": "function"
				},
				{
					"inputs": [
						{
							"internalType": "uint256",
							"name": "id",
							"type": "uint256"
						}
					],
					"name": "getAskValue",
					"outputs": [
						{
							"internalType": "uint256",
							"name": "",
							"type": "uint256"
						}
					],
					"stateMutability": "view",
					"type": "function"
				},
				{
					"inputs": [
						{
							"internalType": "uint256",
							"name": "id",
							"type": "uint256"
						}
					],
					"name": "getBidAddress",
					"outputs": [
						{
							"internalType": "address payable",
							"name": "",
							"type": "address"
						}
					],
					"stateMutability": "view",
					"type": "function"
				},
				{
					"inputs": [
						{
							"internalType": "uint256",
							"name": "id",
							"type": "uint256"
						}
					],
					"name": "getBidState",
					"outputs": [
						{
							"internalType": "enum OrderBook.State",
							"name": "",
							"type": "uint8"
						}
					],
					"stateMutability": "view",
					"type": "function"
				},
				{
					"inputs": [
						{
							"internalType": "uint256",
							"name": "id",
							"type": "uint256"
						}
					],
					"name": "getBidValue",
					"outputs": [
						{
							"internalType": "uint256",
							"name": "",
							"type": "uint256"
						}
					],
					"stateMutability": "view",
					"type": "function"
				},
				{
					"inputs": [
						{
							"internalType": "uint256",
							"name": "price",
							"type": "uint256"
						}
					],
					"name": "placeAsk",
					"outputs": [],
					"stateMutability": "payable",
					"type": "function"
				},
				{
					"inputs": [
						{
							"internalType": "uint256",
							"name": "price",
							"type": "uint256"
						}
					],
					"name": "placeBid",
					"outputs": [],
					"stateMutability": "payable",
					"type": "function"
				}
			],
			"devdoc": {
				"kind": "dev",
				"methods": {},
				"version": 1
			},
			"evm": {
				"assembly": "    /* \"contracts/OrderBook.sol\":980:5801  contract OrderBook {... */\n  mstore(0x40, 0x80)\n    /* \"contracts/OrderBook.sol\":1183:1193  msg.sender */\n  caller\n    /* \"contracts/OrderBook.sol\":1150:1194  address payable _owner = payable(msg.sender) */\n  0x01\n  exp(0x0100, 0x00)\n  dup2\n  sload\n  dup2\n  0xffffffffffffffffffffffffffffffffffffffff\n  mul\n  not\n  and\n  swap1\n  dup4\n  0xffffffffffffffffffffffffffffffffffffffff\n  and\n  mul\n  or\n  swap1\n  sstore\n  pop\n    /* \"contracts/OrderBook.sol\":1271:1353  constructor (uint256 _commission) public {... */\n  callvalue\n  dup1\n  iszero\n  tag_1\n  jumpi\n  0x00\n  dup1\n  revert\ntag_1:\n  pop\n  mload(0x40)\n  sub(codesize, bytecodeSize)\n  dup1\n  bytecodeSize\n  dup4\n  codecopy\n  dup2\n  dup2\n  add\n  0x40\n  mstore\n  0x20\n  dup2\n  lt\n  iszero\n  tag_2\n  jumpi\n  0x00\n  dup1\n  revert\ntag_2:\n  dup2\n  add\n  swap1\n  dup1\n  dup1\n  mload\n  swap1\n  0x20\n  add\n  swap1\n  swap3\n  swap2\n  swap1\n  pop\n  pop\n  pop\n    /* \"contracts/OrderBook.sol\":1335:1346  _commission */\n  dup1\n    /* \"contracts/OrderBook.sol\":1322:1332  commission */\n  0x02\n    /* \"contracts/OrderBook.sol\":1322:1346  commission = _commission */\n  dup2\n  swap1\n  sstore\n  pop\n    /* \"contracts/OrderBook.sol\":1271:1353  constructor (uint256 _commission) public {... */\n  pop\n    /* \"contracts/OrderBook.sol\":980:5801  contract OrderBook {... */\n  dataSize(sub_0)\n  dup1\n  dataOffset(sub_0)\n  0x00\n  codecopy\n  0x00\n  return\nstop\n\nsub_0: assembly {\n        /* \"contracts/OrderBook.sol\":980:5801  contract OrderBook {... */\n      mstore(0x40, 0x80)\n      jumpi(tag_1, lt(calldatasize, 0x04))\n      shr(0xe0, calldataload(0x00))\n      dup1\n      0x78c5b268\n      gt\n      tag_14\n      jumpi\n      dup1\n      0x78c5b268\n      eq\n      tag_8\n      jumpi\n      dup1\n      0x9703ef35\n      eq\n      tag_9\n      jumpi\n      dup1\n      0x9979ef45\n      eq\n      tag_10\n      jumpi\n      dup1\n      0xbf77ffae\n      eq\n      tag_11\n      jumpi\n      dup1\n      0xce0cdc87\n      eq\n      tag_12\n      jumpi\n      dup1\n      0xdb3a1396\n      eq\n      tag_13\n      jumpi\n      jump(tag_1)\n    tag_14:\n      dup1\n      0x122de8f2\n      eq\n      tag_2\n      jumpi\n      dup1\n      0x1628e0f5\n      eq\n      tag_3\n      jumpi\n      dup1\n      0x2db6dfa7\n      eq\n      tag_4\n      jumpi\n      dup1\n      0x4d46712d\n      eq\n      tag_5\n      jumpi\n      dup1\n      0x69f632e2\n      eq\n      tag_6\n      jumpi\n      dup1\n      0x734a2e78\n      eq\n      tag_7\n      jumpi\n    tag_1:\n      0x00\n      dup1\n      revert\n        /* \"contracts/OrderBook.sol\":4860:5134  function fetchYourAskIds() public returns (uint[] memory) {... */\n    tag_2:\n      callvalue\n      dup1\n      iszero\n      tag_15\n      jumpi\n      0x00\n      dup1\n      revert\n    tag_15:\n      pop\n      tag_16\n      tag_17\n      jump\t// in\n    tag_16:\n      mload(0x40)\n      dup1\n      dup1\n      0x20\n      add\n      dup3\n      dup2\n      sub\n      dup3\n      mstore\n      dup4\n      dup2\n      dup2\n      mload\n      dup2\n      mstore\n      0x20\n      add\n      swap2\n      pop\n      dup1\n      mload\n      swap1\n      0x20\n      add\n      swap1\n      0x20\n      mul\n      dup1\n      dup4\n      dup4\n      0x00\n    tag_18:\n      dup4\n      dup2\n      lt\n      iszero\n      tag_20\n      jumpi\n      dup1\n      dup3\n      add\n      mload\n      dup2\n      dup5\n      add\n      mstore\n      0x20\n      dup2\n      add\n      swap1\n      pop\n      jump(tag_18)\n    tag_20:\n      pop\n      pop\n      pop\n      pop\n      swap1\n      pop\n      add\n      swap3\n      pop\n      pop\n      pop\n      mload(0x40)\n      dup1\n      swap2\n      sub\n      swap1\n      return\n        /* \"contracts/OrderBook.sol\":4003:4280  function cancelAsk (uint askId) public isPending(askBook[askId]) isAuthorised(askBook[askId], msg.sender) {... */\n    tag_3:\n      callvalue\n      dup1\n      iszero\n      tag_21\n      jumpi\n      0x00\n      dup1\n      revert\n    tag_21:\n      pop\n      tag_22\n      0x04\n      dup1\n      calldatasize\n      sub\n      0x20\n      dup2\n      lt\n      iszero\n      tag_23\n      jumpi\n      0x00\n      dup1\n      revert\n    tag_23:\n      dup2\n      add\n      swap1\n      dup1\n      dup1\n      calldataload\n      swap1\n      0x20\n      add\n      swap1\n      swap3\n      swap2\n      swap1\n      pop\n      pop\n      pop\n      tag_24\n      jump\t// in\n    tag_22:\n      stop\n        /* \"contracts/OrderBook.sol\":5380:5481  function getBidValue (uint id) public view returns(uint256) {... */\n    tag_4:\n      callvalue\n      dup1\n      iszero\n      tag_25\n      jumpi\n      0x00\n      dup1\n      revert\n    tag_25:\n      pop\n      tag_26\n      0x04\n      dup1\n      calldatasize\n      sub\n      0x20\n      dup2\n      lt\n      iszero\n      tag_27\n      jumpi\n      0x00\n      dup1\n      revert\n    tag_27:\n      dup2\n      add\n      swap1\n      dup1\n      dup1\n      calldataload\n      swap1\n      0x20\n      add\n      swap1\n      swap3\n      swap2\n      swap1\n      pop\n      pop\n      pop\n      tag_28\n      jump\t// in\n    tag_26:\n      mload(0x40)\n      dup1\n      dup3\n      dup2\n      mstore\n      0x20\n      add\n      swap2\n      pop\n      pop\n      mload(0x40)\n      dup1\n      swap2\n      sub\n      swap1\n      return\n        /* \"contracts/OrderBook.sol\":5699:5798  function getAskState (uint id) public view returns(State) {... */\n    tag_5:\n      callvalue\n      dup1\n      iszero\n      tag_29\n      jumpi\n      0x00\n      dup1\n      revert\n    tag_29:\n      pop\n      tag_30\n      0x04\n      dup1\n      calldatasize\n      sub\n      0x20\n      dup2\n      lt\n      iszero\n      tag_31\n      jumpi\n      0x00\n      dup1\n      revert\n    tag_31:\n      dup2\n      add\n      swap1\n      dup1\n      dup1\n      calldataload\n      swap1\n      0x20\n      add\n      swap1\n      swap3\n      swap2\n      swap1\n      pop\n      pop\n      pop\n      tag_32\n      jump\t// in\n    tag_30:\n      mload(0x40)\n      dup1\n      dup3\n      0x01\n      dup2\n      gt\n      iszero\n      tag_33\n      jumpi\n      invalid\n    tag_33:\n      dup2\n      mstore\n      0x20\n      add\n      swap2\n      pop\n      pop\n      mload(0x40)\n      dup1\n      swap2\n      sub\n      swap1\n      return\n        /* \"contracts/OrderBook.sol\":5140:5254  function getBidAddress (uint id) public view returns(address payable) {... */\n    tag_6:\n      callvalue\n      dup1\n      iszero\n      tag_34\n      jumpi\n      0x00\n      dup1\n      revert\n    tag_34:\n      pop\n      tag_35\n      0x04\n      dup1\n      calldatasize\n      sub\n      0x20\n      dup2\n      lt\n      iszero\n      tag_36\n      jumpi\n      0x00\n      dup1\n      revert\n    tag_36:\n      dup2\n      add\n      swap1\n      dup1\n      dup1\n      calldataload\n      swap1\n      0x20\n      add\n      swap1\n      swap3\n      swap2\n      swap1\n      pop\n      pop\n      pop\n      tag_37\n      jump\t// in\n    tag_35:\n      mload(0x40)\n      dup1\n      dup3\n      0xffffffffffffffffffffffffffffffffffffffff\n      and\n      dup2\n      mstore\n      0x20\n      add\n      swap2\n      pop\n      pop\n      mload(0x40)\n      dup1\n      swap2\n      sub\n      swap1\n      return\n        /* \"contracts/OrderBook.sol\":5260:5374  function getAskAddress (uint id) public view returns(address payable) {... */\n    tag_7:\n      callvalue\n      dup1\n      iszero\n      tag_38\n      jumpi\n      0x00\n      dup1\n      revert\n    tag_38:\n      pop\n      tag_39\n      0x04\n      dup1\n      calldatasize\n      sub\n      0x20\n      dup2\n      lt\n      iszero\n      tag_40\n      jumpi\n      0x00\n      dup1\n      revert\n    tag_40:\n      dup2\n      add\n      swap1\n      dup1\n      dup1\n      calldataload\n      swap1\n      0x20\n      add\n      swap1\n      swap3\n      swap2\n      swap1\n      pop\n      pop\n      pop\n      tag_41\n      jump\t// in\n    tag_39:\n      mload(0x40)\n      dup1\n      dup3\n      0xffffffffffffffffffffffffffffffffffffffff\n      and\n      dup2\n      mstore\n      0x20\n      add\n      swap2\n      pop\n      pop\n      mload(0x40)\n      dup1\n      swap2\n      sub\n      swap1\n      return\n        /* \"contracts/OrderBook.sol\":3452:3997  function placeAsk (uint256 price) public payable {... */\n    tag_8:\n      tag_42\n      0x04\n      dup1\n      calldatasize\n      sub\n      0x20\n      dup2\n      lt\n      iszero\n      tag_43\n      jumpi\n      0x00\n      dup1\n      revert\n    tag_43:\n      dup2\n      add\n      swap1\n      dup1\n      dup1\n      calldataload\n      swap1\n      0x20\n      add\n      swap1\n      swap3\n      swap2\n      swap1\n      pop\n      pop\n      pop\n      tag_44\n      jump\t// in\n    tag_42:\n      stop\n        /* \"contracts/OrderBook.sol\":3175:3446  function cancelBid (uint bidId) public isPending(bidBook[bidId]) isAuthorised(bidBook[bidId], msg.sender) {... */\n    tag_9:\n      callvalue\n      dup1\n      iszero\n      tag_45\n      jumpi\n      0x00\n      dup1\n      revert\n    tag_45:\n      pop\n      tag_46\n      0x04\n      dup1\n      calldatasize\n      sub\n      0x20\n      dup2\n      lt\n      iszero\n      tag_47\n      jumpi\n      0x00\n      dup1\n      revert\n    tag_47:\n      dup2\n      add\n      swap1\n      dup1\n      dup1\n      calldataload\n      swap1\n      0x20\n      add\n      swap1\n      swap3\n      swap2\n      swap1\n      pop\n      pop\n      pop\n      tag_48\n      jump\t// in\n    tag_46:\n      stop\n        /* \"contracts/OrderBook.sol\":2624:3169  function placeBid (uint256 price) public payable {... */\n    tag_10:\n      tag_49\n      0x04\n      dup1\n      calldatasize\n      sub\n      0x20\n      dup2\n      lt\n      iszero\n      tag_50\n      jumpi\n      0x00\n      dup1\n      revert\n    tag_50:\n      dup2\n      add\n      swap1\n      dup1\n      dup1\n      calldataload\n      swap1\n      0x20\n      add\n      swap1\n      swap3\n      swap2\n      swap1\n      pop\n      pop\n      pop\n      tag_51\n      jump\t// in\n    tag_49:\n      stop\n        /* \"contracts/OrderBook.sol\":5594:5693  function getBidState (uint id) public view returns(State) {... */\n    tag_11:\n      callvalue\n      dup1\n      iszero\n      tag_52\n      jumpi\n      0x00\n      dup1\n      revert\n    tag_52:\n      pop\n      tag_53\n      0x04\n      dup1\n      calldatasize\n      sub\n      0x20\n      dup2\n      lt\n      iszero\n      tag_54\n      jumpi\n      0x00\n      dup1\n      revert\n    tag_54:\n      dup2\n      add\n      swap1\n      dup1\n      dup1\n      calldataload\n      swap1\n      0x20\n      add\n      swap1\n      swap3\n      swap2\n      swap1\n      pop\n      pop\n      pop\n      tag_55\n      jump\t// in\n    tag_53:\n      mload(0x40)\n      dup1\n      dup3\n      0x01\n      dup2\n      gt\n      iszero\n      tag_56\n      jumpi\n      invalid\n    tag_56:\n      dup2\n      mstore\n      0x20\n      add\n      swap2\n      pop\n      pop\n      mload(0x40)\n      dup1\n      swap2\n      sub\n      swap1\n      return\n        /* \"contracts/OrderBook.sol\":4580:4854  function fetchYourBidIds() public returns (uint[] memory) {... */\n    tag_12:\n      callvalue\n      dup1\n      iszero\n      tag_57\n      jumpi\n      0x00\n      dup1\n      revert\n    tag_57:\n      pop\n      tag_58\n      tag_59\n      jump\t// in\n    tag_58:\n      mload(0x40)\n      dup1\n      dup1\n      0x20\n      add\n      dup3\n      dup2\n      sub\n      dup3\n      mstore\n      dup4\n      dup2\n      dup2\n      mload\n      dup2\n      mstore\n      0x20\n      add\n      swap2\n      pop\n      dup1\n      mload\n      swap1\n      0x20\n      add\n      swap1\n      0x20\n      mul\n      dup1\n      dup4\n      dup4\n      0x00\n    tag_60:\n      dup4\n      dup2\n      lt\n      iszero\n      tag_62\n      jumpi\n      dup1\n      dup3\n      add\n      mload\n      dup2\n      dup5\n      add\n      mstore\n      0x20\n      dup2\n      add\n      swap1\n      pop\n      jump(tag_60)\n    tag_62:\n      pop\n      pop\n      pop\n      pop\n      swap1\n      pop\n      add\n      swap3\n      pop\n      pop\n      pop\n      mload(0x40)\n      dup1\n      swap2\n      sub\n      swap1\n      return\n        /* \"contracts/OrderBook.sol\":5487:5588  function getAskValue (uint id) public view returns(uint256) {... */\n    tag_13:\n      callvalue\n      dup1\n      iszero\n      tag_63\n      jumpi\n      0x00\n      dup1\n      revert\n    tag_63:\n      pop\n      tag_64\n      0x04\n      dup1\n      calldatasize\n      sub\n      0x20\n      dup2\n      lt\n      iszero\n      tag_65\n      jumpi\n      0x00\n      dup1\n      revert\n    tag_65:\n      dup2\n      add\n      swap1\n      dup1\n      dup1\n      calldataload\n      swap1\n      0x20\n      add\n      swap1\n      swap3\n      swap2\n      swap1\n      pop\n      pop\n      pop\n      tag_66\n      jump\t// in\n    tag_64:\n      mload(0x40)\n      dup1\n      dup3\n      dup2\n      mstore\n      0x20\n      add\n      swap2\n      pop\n      pop\n      mload(0x40)\n      dup1\n      swap2\n      sub\n      swap1\n      return\n        /* \"contracts/OrderBook.sol\":4860:5134  function fetchYourAskIds() public returns (uint[] memory) {... */\n    tag_17:\n        /* \"contracts/OrderBook.sol\":4903:4916  uint[] memory */\n      0x60\n        /* \"contracts/OrderBook.sol\":4928:4941  deleteArray() */\n      tag_68\n        /* \"contracts/OrderBook.sol\":4928:4939  deleteArray */\n      tag_69\n        /* \"contracts/OrderBook.sol\":4928:4941  deleteArray() */\n      jump\t// in\n    tag_68:\n        /* \"contracts/OrderBook.sol\":4956:4962  uint i */\n      0x00\n        /* \"contracts/OrderBook.sol\":4951:5104  for (uint i = 0; i < askBook.length; i++) {... */\n    tag_70:\n        /* \"contracts/OrderBook.sol\":4972:4979  askBook */\n      0x04\n        /* \"contracts/OrderBook.sol\":4972:4986  askBook.length */\n      dup1\n      sload\n      swap1\n      pop\n        /* \"contracts/OrderBook.sol\":4968:4969  i */\n      dup2\n        /* \"contracts/OrderBook.sol\":4968:4986  i < askBook.length */\n      lt\n        /* \"contracts/OrderBook.sol\":4951:5104  for (uint i = 0; i < askBook.length; i++) {... */\n      iszero\n      tag_71\n      jumpi\n        /* \"contracts/OrderBook.sol\":5034:5044  msg.sender */\n      caller\n        /* \"contracts/OrderBook.sol\":5011:5044  askBook[i].customer == msg.sender */\n      0xffffffffffffffffffffffffffffffffffffffff\n      and\n        /* \"contracts/OrderBook.sol\":5011:5018  askBook */\n      0x04\n        /* \"contracts/OrderBook.sol\":5019:5020  i */\n      dup3\n        /* \"contracts/OrderBook.sol\":5011:5021  askBook[i] */\n      dup2\n      sload\n      dup2\n      lt\n      tag_73\n      jumpi\n      invalid\n    tag_73:\n      swap1\n      0x00\n      mstore\n      keccak256(0x00, 0x20)\n      swap1\n      0x04\n      mul\n      add\n        /* \"contracts/OrderBook.sol\":5011:5030  askBook[i].customer */\n      0x00\n      add\n      0x00\n      swap1\n      sload\n      swap1\n      0x0100\n      exp\n      swap1\n      div\n      0xffffffffffffffffffffffffffffffffffffffff\n      and\n        /* \"contracts/OrderBook.sol\":5011:5044  askBook[i].customer == msg.sender */\n      0xffffffffffffffffffffffffffffffffffffffff\n      and\n      eq\n        /* \"contracts/OrderBook.sol\":5007:5094  if (askBook[i].customer == msg.sender) {... */\n      iszero\n      tag_75\n      jumpi\n        /* \"contracts/OrderBook.sol\":5064:5071  request */\n      0x05\n        /* \"contracts/OrderBook.sol\":5077:5078  i */\n      dup2\n        /* \"contracts/OrderBook.sol\":5064:5079  request.push(i) */\n      swap1\n      dup1\n      0x01\n      dup2\n      sload\n      add\n      dup1\n      dup3\n      sstore\n      dup1\n      swap2\n      pop\n      pop\n      0x01\n      swap1\n      sub\n      swap1\n      0x00\n      mstore\n      keccak256(0x00, 0x20)\n      add\n      0x00\n      swap1\n      swap2\n      swap1\n      swap2\n      swap1\n      swap2\n      pop\n      sstore\n        /* \"contracts/OrderBook.sol\":5007:5094  if (askBook[i].customer == msg.sender) {... */\n    tag_75:\n        /* \"contracts/OrderBook.sol\":4988:4991  i++ */\n      dup1\n      dup1\n      0x01\n      add\n      swap2\n      pop\n      pop\n        /* \"contracts/OrderBook.sol\":4951:5104  for (uint i = 0; i < askBook.length; i++) {... */\n      jump(tag_70)\n    tag_71:\n      pop\n        /* \"contracts/OrderBook.sol\":5120:5127  request */\n      0x05\n        /* \"contracts/OrderBook.sol\":5113:5127  return request */\n      dup1\n      sload\n      dup1\n      0x20\n      mul\n      0x20\n      add\n      mload(0x40)\n      swap1\n      dup2\n      add\n      0x40\n      mstore\n      dup1\n      swap3\n      swap2\n      swap1\n      dup2\n      dup2\n      mstore\n      0x20\n      add\n      dup3\n      dup1\n      sload\n      dup1\n      iszero\n      tag_77\n      jumpi\n      0x20\n      mul\n      dup3\n      add\n      swap2\n      swap1\n      0x00\n      mstore\n      keccak256(0x00, 0x20)\n      swap1\n    tag_78:\n      dup2\n      sload\n      dup2\n      mstore\n      0x20\n      add\n      swap1\n      0x01\n      add\n      swap1\n      dup1\n      dup4\n      gt\n      tag_78\n      jumpi\n    tag_77:\n      pop\n      pop\n      pop\n      pop\n      pop\n      swap1\n      pop\n        /* \"contracts/OrderBook.sol\":4860:5134  function fetchYourAskIds() public returns (uint[] memory) {... */\n      swap1\n      jump\t// out\n        /* \"contracts/OrderBook.sol\":4003:4280  function cancelAsk (uint askId) public isPending(askBook[askId]) isAuthorised(askBook[askId], msg.sender) {... */\n    tag_24:\n        /* \"contracts/OrderBook.sol\":4052:4059  askBook */\n      0x04\n        /* \"contracts/OrderBook.sol\":4060:4065  askId */\n      dup2\n        /* \"contracts/OrderBook.sol\":4052:4066  askBook[askId] */\n      dup2\n      sload\n      dup2\n      lt\n      tag_79\n      jumpi\n      invalid\n    tag_79:\n      swap1\n      0x00\n      mstore\n      keccak256(0x00, 0x20)\n      swap1\n      0x04\n      mul\n      add\n        /* \"contracts/OrderBook.sol\":1797:1920  modifier isPending(order memory _order) {... */\n      mload(0x40)\n      dup1\n      0x80\n      add\n      0x40\n      mstore\n      swap1\n      dup2\n      0x00\n      dup3\n      add\n      0x00\n      swap1\n      sload\n      swap1\n      0x0100\n      exp\n      swap1\n      div\n      0xffffffffffffffffffffffffffffffffffffffff\n      and\n      0xffffffffffffffffffffffffffffffffffffffff\n      and\n      0xffffffffffffffffffffffffffffffffffffffff\n      and\n      dup2\n      mstore\n      0x20\n      add\n      0x01\n      dup3\n      add\n      sload\n      dup2\n      mstore\n      0x20\n      add\n      0x02\n      dup3\n      add\n      sload\n      dup2\n      mstore\n      0x20\n      add\n      0x03\n      dup3\n      add\n      0x00\n      swap1\n      sload\n      swap1\n      0x0100\n      exp\n      swap1\n      div\n      0xff\n      and\n      0x01\n      dup2\n      gt\n      iszero\n      tag_81\n      jumpi\n      invalid\n    tag_81:\n      0x01\n      dup2\n      gt\n      iszero\n      tag_82\n      jumpi\n      invalid\n    tag_82:\n      dup2\n      mstore\n      pop\n      pop\n        /* \"contracts/OrderBook.sol\":1871:1884  State.pending */\n      0x00\n        /* \"contracts/OrderBook.sol\":1855:1884  _order.state == State.pending */\n      0x01\n      dup2\n      gt\n      iszero\n      tag_84\n      jumpi\n      invalid\n    tag_84:\n        /* \"contracts/OrderBook.sol\":1855:1861  _order */\n      dup2\n        /* \"contracts/OrderBook.sol\":1855:1867  _order.state */\n      0x60\n      add\n      mload\n        /* \"contracts/OrderBook.sol\":1855:1884  _order.state == State.pending */\n      0x01\n      dup2\n      gt\n      iszero\n      tag_85\n      jumpi\n      invalid\n    tag_85:\n      eq\n        /* \"contracts/OrderBook.sol\":1847:1902  require(_order.state == State.pending, \"Order Pending\") */\n      tag_86\n      jumpi\n      mload(0x40)\n      0x08c379a000000000000000000000000000000000000000000000000000000000\n      dup2\n      mstore\n      0x04\n      add\n      dup1\n      dup1\n      0x20\n      add\n      dup3\n      dup2\n      sub\n      dup3\n      mstore\n      0x0d\n      dup2\n      mstore\n      0x20\n      add\n      dup1\n      0x4f726465722050656e64696e6700000000000000000000000000000000000000\n      dup2\n      mstore\n      pop\n      0x20\n      add\n      swap2\n      pop\n      pop\n      mload(0x40)\n      dup1\n      swap2\n      sub\n      swap1\n      revert\n    tag_86:\n        /* \"contracts/OrderBook.sol\":4081:4088  askBook */\n      0x04\n        /* \"contracts/OrderBook.sol\":4089:4094  askId */\n      dup3\n        /* \"contracts/OrderBook.sol\":4081:4095  askBook[askId] */\n      dup2\n      sload\n      dup2\n      lt\n      tag_87\n      jumpi\n      invalid\n    tag_87:\n      swap1\n      0x00\n      mstore\n      keccak256(0x00, 0x20)\n      swap1\n      0x04\n      mul\n      add\n        /* \"contracts/OrderBook.sol\":1926:2065  modifier isAuthorised(order memory _order, address sender) {... */\n      mload(0x40)\n      dup1\n      0x80\n      add\n      0x40\n      mstore\n      swap1\n      dup2\n      0x00\n      dup3\n      add\n      0x00\n      swap1\n      sload\n      swap1\n      0x0100\n      exp\n      swap1\n      div\n      0xffffffffffffffffffffffffffffffffffffffff\n      and\n      0xffffffffffffffffffffffffffffffffffffffff\n      and\n      0xffffffffffffffffffffffffffffffffffffffff\n      and\n      dup2\n      mstore\n      0x20\n      add\n      0x01\n      dup3\n      add\n      sload\n      dup2\n      mstore\n      0x20\n      add\n      0x02\n      dup3\n      add\n      sload\n      dup2\n      mstore\n      0x20\n      add\n      0x03\n      dup3\n      add\n      0x00\n      swap1\n      sload\n      swap1\n      0x0100\n      exp\n      swap1\n      div\n      0xff\n      and\n      0x01\n      dup2\n      gt\n      iszero\n      tag_89\n      jumpi\n      invalid\n    tag_89:\n      0x01\n      dup2\n      gt\n      iszero\n      tag_90\n      jumpi\n      invalid\n    tag_90:\n      dup2\n      mstore\n      pop\n      pop\n        /* \"contracts/OrderBook.sol\":4097:4107  msg.sender */\n      caller\n        /* \"contracts/OrderBook.sol\":2022:2028  sender */\n      dup1\n        /* \"contracts/OrderBook.sol\":2003:2028  _order.customer == sender */\n      0xffffffffffffffffffffffffffffffffffffffff\n      and\n        /* \"contracts/OrderBook.sol\":2003:2009  _order */\n      dup3\n        /* \"contracts/OrderBook.sol\":2003:2018  _order.customer */\n      0x00\n      add\n      mload\n        /* \"contracts/OrderBook.sol\":2003:2028  _order.customer == sender */\n      0xffffffffffffffffffffffffffffffffffffffff\n      and\n      eq\n        /* \"contracts/OrderBook.sol\":1995:2047  require(_order.customer == sender, \"Not Authorised\") */\n      tag_92\n      jumpi\n      mload(0x40)\n      0x08c379a000000000000000000000000000000000000000000000000000000000\n      dup2\n      mstore\n      0x04\n      add\n      dup1\n      dup1\n      0x20\n      add\n      dup3\n      dup2\n      sub\n      dup3\n      mstore\n      0x0e\n      dup2\n      mstore\n      0x20\n      add\n      dup1\n      0x4e6f7420417574686f7269736564000000000000000000000000000000000000\n      dup2\n      mstore\n      pop\n      0x20\n      add\n      swap2\n      pop\n      pop\n      mload(0x40)\n      dup1\n      swap2\n      sub\n      swap1\n      revert\n    tag_92:\n        /* \"contracts/OrderBook.sol\":4119:4126  askBook */\n      0x04\n        /* \"contracts/OrderBook.sol\":4127:4132  askId */\n      dup5\n        /* \"contracts/OrderBook.sol\":4119:4133  askBook[askId] */\n      dup2\n      sload\n      dup2\n      lt\n      tag_94\n      jumpi\n      invalid\n    tag_94:\n      swap1\n      0x00\n      mstore\n      keccak256(0x00, 0x20)\n      swap1\n      0x04\n      mul\n      add\n        /* \"contracts/OrderBook.sol\":4119:4142  askBook[askId].customer */\n      0x00\n      add\n      0x00\n      swap1\n      sload\n      swap1\n      0x0100\n      exp\n      swap1\n      div\n      0xffffffffffffffffffffffffffffffffffffffff\n      and\n        /* \"contracts/OrderBook.sol\":4119:4151  askBook[askId].customer.transfer */\n      0xffffffffffffffffffffffffffffffffffffffff\n      and\n        /* \"contracts/OrderBook.sol\":4119:4173  askBook[askId].customer.transfer(askBook[askId].value) */\n      0x08fc\n        /* \"contracts/OrderBook.sol\":4152:4159  askBook */\n      0x04\n        /* \"contracts/OrderBook.sol\":4160:4165  askId */\n      dup7\n        /* \"contracts/OrderBook.sol\":4152:4166  askBook[askId] */\n      dup2\n      sload\n      dup2\n      lt\n      tag_96\n      jumpi\n      invalid\n    tag_96:\n      swap1\n      0x00\n      mstore\n      keccak256(0x00, 0x20)\n      swap1\n      0x04\n      mul\n      add\n        /* \"contracts/OrderBook.sol\":4152:4172  askBook[askId].value */\n      0x01\n      add\n      sload\n        /* \"contracts/OrderBook.sol\":4119:4173  askBook[askId].customer.transfer(askBook[askId].value) */\n      swap1\n      dup2\n      iszero\n      mul\n      swap1\n      mload(0x40)\n      0x00\n      mload(0x40)\n      dup1\n      dup4\n      sub\n      dup2\n      dup6\n      dup9\n      dup9\n      call\n      swap4\n      pop\n      pop\n      pop\n      pop\n      iszero\n      dup1\n      iszero\n      tag_99\n      jumpi\n      returndatasize\n      0x00\n      dup1\n      returndatacopy\n      revert(0x00, returndatasize)\n    tag_99:\n      pop\n        /* \"contracts/OrderBook.sol\":4190:4197  askBook */\n      0x04\n        /* \"contracts/OrderBook.sol\":4198:4203  askId */\n      dup5\n        /* \"contracts/OrderBook.sol\":4190:4204  askBook[askId] */\n      dup2\n      sload\n      dup2\n      lt\n      tag_100\n      jumpi\n      invalid\n    tag_100:\n      swap1\n      0x00\n      mstore\n      keccak256(0x00, 0x20)\n      swap1\n      0x04\n      mul\n      add\n      0x00\n        /* \"contracts/OrderBook.sol\":4183:4204  delete askBook[askId] */\n      dup1\n      dup3\n      add\n      exp(0x0100, 0x00)\n      dup2\n      sload\n      swap1\n      0xffffffffffffffffffffffffffffffffffffffff\n      mul\n      not\n      and\n      swap1\n      sstore\n      0x01\n      dup3\n      add\n      0x00\n      swap1\n      sstore\n      0x02\n      dup3\n      add\n      0x00\n      swap1\n      sstore\n      0x03\n      dup3\n      add\n      exp(0x0100, 0x00)\n      dup2\n      sload\n      swap1\n      0xff\n      mul\n      not\n      and\n      swap1\n      sstore\n      pop\n      pop\n        /* \"contracts/OrderBook.sol\":4254:4273  askCancelled(askId) */\n      0x48d3043fff66c1aee14954ac5aa463b0297fb08c9b60ee00486fb3387bb58aac\n        /* \"contracts/OrderBook.sol\":4267:4272  askId */\n      dup5\n        /* \"contracts/OrderBook.sol\":4254:4273  askCancelled(askId) */\n      mload(0x40)\n      dup1\n      dup3\n      dup2\n      mstore\n      0x20\n      add\n      swap2\n      pop\n      pop\n      mload(0x40)\n      dup1\n      swap2\n      sub\n      swap1\n      log1\n        /* \"contracts/OrderBook.sol\":1912:1913  _ */\n      pop\n      pop\n        /* \"contracts/OrderBook.sol\":4003:4280  function cancelAsk (uint askId) public isPending(askBook[askId]) isAuthorised(askBook[askId], msg.sender) {... */\n      pop\n      pop\n      jump\t// out\n        /* \"contracts/OrderBook.sol\":5380:5481  function getBidValue (uint id) public view returns(uint256) {... */\n    tag_28:\n        /* \"contracts/OrderBook.sol\":5431:5438  uint256 */\n      0x00\n        /* \"contracts/OrderBook.sol\":5457:5464  bidBook */\n      0x03\n        /* \"contracts/OrderBook.sol\":5465:5467  id */\n      dup3\n        /* \"contracts/OrderBook.sol\":5457:5468  bidBook[id] */\n      dup2\n      sload\n      dup2\n      lt\n      tag_103\n      jumpi\n      invalid\n    tag_103:\n      swap1\n      0x00\n      mstore\n      keccak256(0x00, 0x20)\n      swap1\n      0x04\n      mul\n      add\n        /* \"contracts/OrderBook.sol\":5457:5474  bidBook[id].value */\n      0x01\n      add\n      sload\n        /* \"contracts/OrderBook.sol\":5450:5474  return bidBook[id].value */\n      swap1\n      pop\n        /* \"contracts/OrderBook.sol\":5380:5481  function getBidValue (uint id) public view returns(uint256) {... */\n      swap2\n      swap1\n      pop\n      jump\t// out\n        /* \"contracts/OrderBook.sol\":5699:5798  function getAskState (uint id) public view returns(State) {... */\n    tag_32:\n        /* \"contracts/OrderBook.sol\":5750:5755  State */\n      0x00\n        /* \"contracts/OrderBook.sol\":5774:5781  askBook */\n      0x04\n        /* \"contracts/OrderBook.sol\":5782:5784  id */\n      dup3\n        /* \"contracts/OrderBook.sol\":5774:5785  askBook[id] */\n      dup2\n      sload\n      dup2\n      lt\n      tag_106\n      jumpi\n      invalid\n    tag_106:\n      swap1\n      0x00\n      mstore\n      keccak256(0x00, 0x20)\n      swap1\n      0x04\n      mul\n      add\n        /* \"contracts/OrderBook.sol\":5774:5791  askBook[id].state */\n      0x03\n      add\n      0x00\n      swap1\n      sload\n      swap1\n      0x0100\n      exp\n      swap1\n      div\n      0xff\n      and\n        /* \"contracts/OrderBook.sol\":5767:5791  return askBook[id].state */\n      swap1\n      pop\n        /* \"contracts/OrderBook.sol\":5699:5798  function getAskState (uint id) public view returns(State) {... */\n      swap2\n      swap1\n      pop\n      jump\t// out\n        /* \"contracts/OrderBook.sol\":5140:5254  function getBidAddress (uint id) public view returns(address payable) {... */\n    tag_37:\n        /* \"contracts/OrderBook.sol\":5193:5208  address payable */\n      0x00\n        /* \"contracts/OrderBook.sol\":5227:5234  bidBook */\n      0x03\n        /* \"contracts/OrderBook.sol\":5235:5237  id */\n      dup3\n        /* \"contracts/OrderBook.sol\":5227:5238  bidBook[id] */\n      dup2\n      sload\n      dup2\n      lt\n      tag_109\n      jumpi\n      invalid\n    tag_109:\n      swap1\n      0x00\n      mstore\n      keccak256(0x00, 0x20)\n      swap1\n      0x04\n      mul\n      add\n        /* \"contracts/OrderBook.sol\":5227:5247  bidBook[id].customer */\n      0x00\n      add\n      0x00\n      swap1\n      sload\n      swap1\n      0x0100\n      exp\n      swap1\n      div\n      0xffffffffffffffffffffffffffffffffffffffff\n      and\n        /* \"contracts/OrderBook.sol\":5220:5247  return bidBook[id].customer */\n      swap1\n      pop\n        /* \"contracts/OrderBook.sol\":5140:5254  function getBidAddress (uint id) public view returns(address payable) {... */\n      swap2\n      swap1\n      pop\n      jump\t// out\n        /* \"contracts/OrderBook.sol\":5260:5374  function getAskAddress (uint id) public view returns(address payable) {... */\n    tag_41:\n        /* \"contracts/OrderBook.sol\":5313:5328  address payable */\n      0x00\n        /* \"contracts/OrderBook.sol\":5347:5354  askBook */\n      0x04\n        /* \"contracts/OrderBook.sol\":5355:5357  id */\n      dup3\n        /* \"contracts/OrderBook.sol\":5347:5358  askBook[id] */\n      dup2\n      sload\n      dup2\n      lt\n      tag_112\n      jumpi\n      invalid\n    tag_112:\n      swap1\n      0x00\n      mstore\n      keccak256(0x00, 0x20)\n      swap1\n      0x04\n      mul\n      add\n        /* \"contracts/OrderBook.sol\":5347:5367  askBook[id].customer */\n      0x00\n      add\n      0x00\n      swap1\n      sload\n      swap1\n      0x0100\n      exp\n      swap1\n      div\n      0xffffffffffffffffffffffffffffffffffffffff\n      and\n        /* \"contracts/OrderBook.sol\":5340:5367  return askBook[id].customer */\n      swap1\n      pop\n        /* \"contracts/OrderBook.sol\":5260:5374  function getAskAddress (uint id) public view returns(address payable) {... */\n      swap2\n      swap1\n      pop\n      jump\t// out\n        /* \"contracts/OrderBook.sol\":3452:3997  function placeAsk (uint256 price) public payable {... */\n    tag_44:\n        /* \"contracts/OrderBook.sol\":3528:3529  0 */\n      0x00\n        /* \"contracts/OrderBook.sol\":3519:3524  price */\n      dup2\n        /* \"contracts/OrderBook.sol\":3519:3529  price >= 0 */\n      lt\n      iszero\n        /* \"contracts/OrderBook.sol\":3511:3565  require(price >= 0, \"price value must be more than 0\") */\n      tag_115\n      jumpi\n      mload(0x40)\n      0x08c379a000000000000000000000000000000000000000000000000000000000\n      dup2\n      mstore\n      0x04\n      add\n      dup1\n      dup1\n      0x20\n      add\n      dup3\n      dup2\n      sub\n      dup3\n      mstore\n      0x1f\n      dup2\n      mstore\n      0x20\n      add\n      dup1\n      0x70726963652076616c7565206d757374206265206d6f7265207468616e203000\n      dup2\n      mstore\n      pop\n      0x20\n      add\n      swap2\n      pop\n      pop\n      mload(0x40)\n      dup1\n      swap2\n      sub\n      swap1\n      revert\n    tag_115:\n        /* \"contracts/OrderBook.sol\":3596:3601  price */\n      dup1\n        /* \"contracts/OrderBook.sol\":3583:3592  msg.value */\n      callvalue\n        /* \"contracts/OrderBook.sol\":3583:3601  msg.value >= price */\n      lt\n      iszero\n        /* \"contracts/OrderBook.sol\":3575:3636  require(msg.value >= price, \"Not enough blance to place ask\") */\n      tag_116\n      jumpi\n      mload(0x40)\n      0x08c379a000000000000000000000000000000000000000000000000000000000\n      dup2\n      mstore\n      0x04\n      add\n      dup1\n      dup1\n      0x20\n      add\n      dup3\n      dup2\n      sub\n      dup3\n      mstore\n      0x1e\n      dup2\n      mstore\n      0x20\n      add\n      dup1\n      0x4e6f7420656e6f75676820626c616e636520746f20706c6163652061736b0000\n      dup2\n      mstore\n      pop\n      0x20\n      add\n      swap2\n      pop\n      pop\n      mload(0x40)\n      dup1\n      swap2\n      sub\n      swap1\n      revert\n    tag_116:\n        /* \"contracts/OrderBook.sol\":3646:3658  uint256 time */\n      0x00\n        /* \"contracts/OrderBook.sol\":3661:3676  block.timestamp */\n      timestamp\n        /* \"contracts/OrderBook.sol\":3646:3676  uint256 time = block.timestamp */\n      swap1\n      pop\n        /* \"contracts/OrderBook.sol\":3686:3711  uint256 commissionedPrice */\n      0x00\n        /* \"contracts/OrderBook.sol\":3745:3748  100 */\n      0x64\n        /* \"contracts/OrderBook.sol\":3731:3741  commission */\n      sload(0x02)\n        /* \"contracts/OrderBook.sol\":3727:3730  100 */\n      0x64\n        /* \"contracts/OrderBook.sol\":3727:3741  100-commission */\n      sub\n        /* \"contracts/OrderBook.sol\":3714:3723  msg.value */\n      callvalue\n        /* \"contracts/OrderBook.sol\":3714:3742  msg.value * (100-commission) */\n      mul\n        /* \"contracts/OrderBook.sol\":3714:3748  msg.value * (100-commission) / 100 */\n      dup2\n      tag_117\n      jumpi\n      invalid\n    tag_117:\n      div\n        /* \"contracts/OrderBook.sol\":3686:3748  uint256 commissionedPrice = msg.value * (100-commission) / 100 */\n      swap1\n      pop\n        /* \"contracts/OrderBook.sol\":3758:3777  order memory newBid */\n      tag_118\n      tag_119\n      jump\t// in\n    tag_118:\n        /* \"contracts/OrderBook.sol\":3780:3843  order(payable(msg.sender),commissionedPrice,time,State.pending) */\n      mload(0x40)\n      dup1\n      0x80\n      add\n      0x40\n      mstore\n      dup1\n        /* \"contracts/OrderBook.sol\":3794:3804  msg.sender */\n      caller\n        /* \"contracts/OrderBook.sol\":3780:3843  order(payable(msg.sender),commissionedPrice,time,State.pending) */\n      0xffffffffffffffffffffffffffffffffffffffff\n      and\n      dup2\n      mstore\n      0x20\n      add\n        /* \"contracts/OrderBook.sol\":3806:3823  commissionedPrice */\n      dup4\n        /* \"contracts/OrderBook.sol\":3780:3843  order(payable(msg.sender),commissionedPrice,time,State.pending) */\n      dup2\n      mstore\n      0x20\n      add\n        /* \"contracts/OrderBook.sol\":3824:3828  time */\n      dup5\n        /* \"contracts/OrderBook.sol\":3780:3843  order(payable(msg.sender),commissionedPrice,time,State.pending) */\n      dup2\n      mstore\n      0x20\n      add\n        /* \"contracts/OrderBook.sol\":3829:3842  State.pending */\n      0x00\n        /* \"contracts/OrderBook.sol\":3780:3843  order(payable(msg.sender),commissionedPrice,time,State.pending) */\n      0x01\n      dup2\n      gt\n      iszero\n      tag_120\n      jumpi\n      invalid\n    tag_120:\n      dup2\n      mstore\n      pop\n        /* \"contracts/OrderBook.sol\":3758:3843  order memory newBid = order(payable(msg.sender),commissionedPrice,time,State.pending) */\n      swap1\n      pop\n        /* \"contracts/OrderBook.sol\":3853:3860  askBook */\n      0x04\n        /* \"contracts/OrderBook.sol\":3866:3872  newBid */\n      dup2\n        /* \"contracts/OrderBook.sol\":3853:3873  askBook.push(newBid) */\n      swap1\n      dup1\n      0x01\n      dup2\n      sload\n      add\n      dup1\n      dup3\n      sstore\n      dup1\n      swap2\n      pop\n      pop\n      0x01\n      swap1\n      sub\n      swap1\n      0x00\n      mstore\n      keccak256(0x00, 0x20)\n      swap1\n      0x04\n      mul\n      add\n      0x00\n      swap1\n      swap2\n      swap1\n      swap2\n      swap1\n      swap2\n      pop\n      0x00\n      dup3\n      add\n      mload\n      dup2\n      0x00\n      add\n      exp(0x0100, 0x00)\n      dup2\n      sload\n      dup2\n      0xffffffffffffffffffffffffffffffffffffffff\n      mul\n      not\n      and\n      swap1\n      dup4\n      0xffffffffffffffffffffffffffffffffffffffff\n      and\n      mul\n      or\n      swap1\n      sstore\n      pop\n      0x20\n      dup3\n      add\n      mload\n      dup2\n      0x01\n      add\n      sstore\n      0x40\n      dup3\n      add\n      mload\n      dup2\n      0x02\n      add\n      sstore\n      0x60\n      dup3\n      add\n      mload\n      dup2\n      0x03\n      add\n      exp(0x0100, 0x00)\n      dup2\n      sload\n      dup2\n      0xff\n      mul\n      not\n      and\n      swap1\n      dup4\n      0x01\n      dup2\n      gt\n      iszero\n      tag_122\n      jumpi\n      invalid\n    tag_122:\n      mul\n      or\n      swap1\n      sstore\n      pop\n      pop\n      pop\n        /* \"contracts/OrderBook.sol\":3883:3889  _owner */\n      0x01\n      0x00\n      swap1\n      sload\n      swap1\n      0x0100\n      exp\n      swap1\n      div\n      0xffffffffffffffffffffffffffffffffffffffff\n      and\n        /* \"contracts/OrderBook.sol\":3883:3898  _owner.transfer */\n      0xffffffffffffffffffffffffffffffffffffffff\n      and\n        /* \"contracts/OrderBook.sol\":3883:3917  _owner.transfer(commissionedPrice) */\n      0x08fc\n        /* \"contracts/OrderBook.sol\":3899:3916  commissionedPrice */\n      dup4\n        /* \"contracts/OrderBook.sol\":3883:3917  _owner.transfer(commissionedPrice) */\n      swap1\n      dup2\n      iszero\n      mul\n      swap1\n      mload(0x40)\n      0x00\n      mload(0x40)\n      dup1\n      dup4\n      sub\n      dup2\n      dup6\n      dup9\n      dup9\n      call\n      swap4\n      pop\n      pop\n      pop\n      pop\n      iszero\n      dup1\n      iszero\n      tag_124\n      jumpi\n      returndatasize\n      0x00\n      dup1\n      returndatacopy\n      revert(0x00, returndatasize)\n    tag_124:\n      pop\n        /* \"contracts/OrderBook.sol\":3932:3990  askPlaced(msg.sender,commissionedPrice,time,State.pending) */\n      0xc2125a7f3edfeff7a3bbcfe393c5aa3a6589585d4a7ee70db48c34f67c8209e2\n        /* \"contracts/OrderBook.sol\":3942:3952  msg.sender */\n      caller\n        /* \"contracts/OrderBook.sol\":3953:3970  commissionedPrice */\n      dup4\n        /* \"contracts/OrderBook.sol\":3971:3975  time */\n      dup6\n        /* \"contracts/OrderBook.sol\":3976:3989  State.pending */\n      0x00\n        /* \"contracts/OrderBook.sol\":3932:3990  askPlaced(msg.sender,commissionedPrice,time,State.pending) */\n      mload(0x40)\n      dup1\n      dup6\n      0xffffffffffffffffffffffffffffffffffffffff\n      and\n      dup2\n      mstore\n      0x20\n      add\n      dup5\n      dup2\n      mstore\n      0x20\n      add\n      dup4\n      dup2\n      mstore\n      0x20\n      add\n      dup3\n      0x01\n      dup2\n      gt\n      iszero\n      tag_125\n      jumpi\n      invalid\n    tag_125:\n      dup2\n      mstore\n      0x20\n      add\n      swap5\n      pop\n      pop\n      pop\n      pop\n      pop\n      mload(0x40)\n      dup1\n      swap2\n      sub\n      swap1\n      log1\n        /* \"contracts/OrderBook.sol\":3452:3997  function placeAsk (uint256 price) public payable {... */\n      pop\n      pop\n      pop\n      pop\n      jump\t// out\n        /* \"contracts/OrderBook.sol\":3175:3446  function cancelBid (uint bidId) public isPending(bidBook[bidId]) isAuthorised(bidBook[bidId], msg.sender) {... */\n    tag_48:\n        /* \"contracts/OrderBook.sol\":3224:3231  bidBook */\n      0x03\n        /* \"contracts/OrderBook.sol\":3232:3237  bidId */\n      dup2\n        /* \"contracts/OrderBook.sol\":3224:3238  bidBook[bidId] */\n      dup2\n      sload\n      dup2\n      lt\n      tag_126\n      jumpi\n      invalid\n    tag_126:\n      swap1\n      0x00\n      mstore\n      keccak256(0x00, 0x20)\n      swap1\n      0x04\n      mul\n      add\n        /* \"contracts/OrderBook.sol\":1797:1920  modifier isPending(order memory _order) {... */\n      mload(0x40)\n      dup1\n      0x80\n      add\n      0x40\n      mstore\n      swap1\n      dup2\n      0x00\n      dup3\n      add\n      0x00\n      swap1\n      sload\n      swap1\n      0x0100\n      exp\n      swap1\n      div\n      0xffffffffffffffffffffffffffffffffffffffff\n      and\n      0xffffffffffffffffffffffffffffffffffffffff\n      and\n      0xffffffffffffffffffffffffffffffffffffffff\n      and\n      dup2\n      mstore\n      0x20\n      add\n      0x01\n      dup3\n      add\n      sload\n      dup2\n      mstore\n      0x20\n      add\n      0x02\n      dup3\n      add\n      sload\n      dup2\n      mstore\n      0x20\n      add\n      0x03\n      dup3\n      add\n      0x00\n      swap1\n      sload\n      swap1\n      0x0100\n      exp\n      swap1\n      div\n      0xff\n      and\n      0x01\n      dup2\n      gt\n      iszero\n      tag_128\n      jumpi\n      invalid\n    tag_128:\n      0x01\n      dup2\n      gt\n      iszero\n      tag_129\n      jumpi\n      invalid\n    tag_129:\n      dup2\n      mstore\n      pop\n      pop\n        /* \"contracts/OrderBook.sol\":1871:1884  State.pending */\n      0x00\n        /* \"contracts/OrderBook.sol\":1855:1884  _order.state == State.pending */\n      0x01\n      dup2\n      gt\n      iszero\n      tag_131\n      jumpi\n      invalid\n    tag_131:\n        /* \"contracts/OrderBook.sol\":1855:1861  _order */\n      dup2\n        /* \"contracts/OrderBook.sol\":1855:1867  _order.state */\n      0x60\n      add\n      mload\n        /* \"contracts/OrderBook.sol\":1855:1884  _order.state == State.pending */\n      0x01\n      dup2\n      gt\n      iszero\n      tag_132\n      jumpi\n      invalid\n    tag_132:\n      eq\n        /* \"contracts/OrderBook.sol\":1847:1902  require(_order.state == State.pending, \"Order Pending\") */\n      tag_133\n      jumpi\n      mload(0x40)\n      0x08c379a000000000000000000000000000000000000000000000000000000000\n      dup2\n      mstore\n      0x04\n      add\n      dup1\n      dup1\n      0x20\n      add\n      dup3\n      dup2\n      sub\n      dup3\n      mstore\n      0x0d\n      dup2\n      mstore\n      0x20\n      add\n      dup1\n      0x4f726465722050656e64696e6700000000000000000000000000000000000000\n      dup2\n      mstore\n      pop\n      0x20\n      add\n      swap2\n      pop\n      pop\n      mload(0x40)\n      dup1\n      swap2\n      sub\n      swap1\n      revert\n    tag_133:\n        /* \"contracts/OrderBook.sol\":3253:3260  bidBook */\n      0x03\n        /* \"contracts/OrderBook.sol\":3261:3266  bidId */\n      dup3\n        /* \"contracts/OrderBook.sol\":3253:3267  bidBook[bidId] */\n      dup2\n      sload\n      dup2\n      lt\n      tag_134\n      jumpi\n      invalid\n    tag_134:\n      swap1\n      0x00\n      mstore\n      keccak256(0x00, 0x20)\n      swap1\n      0x04\n      mul\n      add\n        /* \"contracts/OrderBook.sol\":1926:2065  modifier isAuthorised(order memory _order, address sender) {... */\n      mload(0x40)\n      dup1\n      0x80\n      add\n      0x40\n      mstore\n      swap1\n      dup2\n      0x00\n      dup3\n      add\n      0x00\n      swap1\n      sload\n      swap1\n      0x0100\n      exp\n      swap1\n      div\n      0xffffffffffffffffffffffffffffffffffffffff\n      and\n      0xffffffffffffffffffffffffffffffffffffffff\n      and\n      0xffffffffffffffffffffffffffffffffffffffff\n      and\n      dup2\n      mstore\n      0x20\n      add\n      0x01\n      dup3\n      add\n      sload\n      dup2\n      mstore\n      0x20\n      add\n      0x02\n      dup3\n      add\n      sload\n      dup2\n      mstore\n      0x20\n      add\n      0x03\n      dup3\n      add\n      0x00\n      swap1\n      sload\n      swap1\n      0x0100\n      exp\n      swap1\n      div\n      0xff\n      and\n      0x01\n      dup2\n      gt\n      iszero\n      tag_136\n      jumpi\n      invalid\n    tag_136:\n      0x01\n      dup2\n      gt\n      iszero\n      tag_137\n      jumpi\n      invalid\n    tag_137:\n      dup2\n      mstore\n      pop\n      pop\n        /* \"contracts/OrderBook.sol\":3269:3279  msg.sender */\n      caller\n        /* \"contracts/OrderBook.sol\":2022:2028  sender */\n      dup1\n        /* \"contracts/OrderBook.sol\":2003:2028  _order.customer == sender */\n      0xffffffffffffffffffffffffffffffffffffffff\n      and\n        /* \"contracts/OrderBook.sol\":2003:2009  _order */\n      dup3\n        /* \"contracts/OrderBook.sol\":2003:2018  _order.customer */\n      0x00\n      add\n      mload\n        /* \"contracts/OrderBook.sol\":2003:2028  _order.customer == sender */\n      0xffffffffffffffffffffffffffffffffffffffff\n      and\n      eq\n        /* \"contracts/OrderBook.sol\":1995:2047  require(_order.customer == sender, \"Not Authorised\") */\n      tag_139\n      jumpi\n      mload(0x40)\n      0x08c379a000000000000000000000000000000000000000000000000000000000\n      dup2\n      mstore\n      0x04\n      add\n      dup1\n      dup1\n      0x20\n      add\n      dup3\n      dup2\n      sub\n      dup3\n      mstore\n      0x0e\n      dup2\n      mstore\n      0x20\n      add\n      dup1\n      0x4e6f7420417574686f7269736564000000000000000000000000000000000000\n      dup2\n      mstore\n      pop\n      0x20\n      add\n      swap2\n      pop\n      pop\n      mload(0x40)\n      dup1\n      swap2\n      sub\n      swap1\n      revert\n    tag_139:\n        /* \"contracts/OrderBook.sol\":3291:3298  bidBook */\n      0x03\n        /* \"contracts/OrderBook.sol\":3299:3304  bidId */\n      dup5\n        /* \"contracts/OrderBook.sol\":3291:3305  bidBook[bidId] */\n      dup2\n      sload\n      dup2\n      lt\n      tag_141\n      jumpi\n      invalid\n    tag_141:\n      swap1\n      0x00\n      mstore\n      keccak256(0x00, 0x20)\n      swap1\n      0x04\n      mul\n      add\n        /* \"contracts/OrderBook.sol\":3291:3314  bidBook[bidId].customer */\n      0x00\n      add\n      0x00\n      swap1\n      sload\n      swap1\n      0x0100\n      exp\n      swap1\n      div\n      0xffffffffffffffffffffffffffffffffffffffff\n      and\n        /* \"contracts/OrderBook.sol\":3291:3323  bidBook[bidId].customer.transfer */\n      0xffffffffffffffffffffffffffffffffffffffff\n      and\n        /* \"contracts/OrderBook.sol\":3291:3345  bidBook[bidId].customer.transfer(bidBook[bidId].value) */\n      0x08fc\n        /* \"contracts/OrderBook.sol\":3324:3331  bidBook */\n      0x03\n        /* \"contracts/OrderBook.sol\":3332:3337  bidId */\n      dup7\n        /* \"contracts/OrderBook.sol\":3324:3338  bidBook[bidId] */\n      dup2\n      sload\n      dup2\n      lt\n      tag_143\n      jumpi\n      invalid\n    tag_143:\n      swap1\n      0x00\n      mstore\n      keccak256(0x00, 0x20)\n      swap1\n      0x04\n      mul\n      add\n        /* \"contracts/OrderBook.sol\":3324:3344  bidBook[bidId].value */\n      0x01\n      add\n      sload\n        /* \"contracts/OrderBook.sol\":3291:3345  bidBook[bidId].customer.transfer(bidBook[bidId].value) */\n      swap1\n      dup2\n      iszero\n      mul\n      swap1\n      mload(0x40)\n      0x00\n      mload(0x40)\n      dup1\n      dup4\n      sub\n      dup2\n      dup6\n      dup9\n      dup9\n      call\n      swap4\n      pop\n      pop\n      pop\n      pop\n      iszero\n      dup1\n      iszero\n      tag_146\n      jumpi\n      returndatasize\n      0x00\n      dup1\n      returndatacopy\n      revert(0x00, returndatasize)\n    tag_146:\n      pop\n        /* \"contracts/OrderBook.sol\":3362:3369  bidBook */\n      0x03\n        /* \"contracts/OrderBook.sol\":3370:3375  bidId */\n      dup5\n        /* \"contracts/OrderBook.sol\":3362:3376  bidBook[bidId] */\n      dup2\n      sload\n      dup2\n      lt\n      tag_147\n      jumpi\n      invalid\n    tag_147:\n      swap1\n      0x00\n      mstore\n      keccak256(0x00, 0x20)\n      swap1\n      0x04\n      mul\n      add\n      0x00\n        /* \"contracts/OrderBook.sol\":3355:3376  delete bidBook[bidId] */\n      dup1\n      dup3\n      add\n      exp(0x0100, 0x00)\n      dup2\n      sload\n      swap1\n      0xffffffffffffffffffffffffffffffffffffffff\n      mul\n      not\n      and\n      swap1\n      sstore\n      0x01\n      dup3\n      add\n      0x00\n      swap1\n      sstore\n      0x02\n      dup3\n      add\n      0x00\n      swap1\n      sstore\n      0x03\n      dup3\n      add\n      exp(0x0100, 0x00)\n      dup2\n      sload\n      swap1\n      0xff\n      mul\n      not\n      and\n      swap1\n      sstore\n      pop\n      pop\n        /* \"contracts/OrderBook.sol\":3420:3439  bidCancelled(bidId) */\n      0xc845a6832afa0a4048dd70bbba2186093508a6b63a8d5d70a508f819fef257f8\n        /* \"contracts/OrderBook.sol\":3433:3438  bidId */\n      dup5\n        /* \"contracts/OrderBook.sol\":3420:3439  bidCancelled(bidId) */\n      mload(0x40)\n      dup1\n      dup3\n      dup2\n      mstore\n      0x20\n      add\n      swap2\n      pop\n      pop\n      mload(0x40)\n      dup1\n      swap2\n      sub\n      swap1\n      log1\n        /* \"contracts/OrderBook.sol\":1912:1913  _ */\n      pop\n      pop\n        /* \"contracts/OrderBook.sol\":3175:3446  function cancelBid (uint bidId) public isPending(bidBook[bidId]) isAuthorised(bidBook[bidId], msg.sender) {... */\n      pop\n      pop\n      jump\t// out\n        /* \"contracts/OrderBook.sol\":2624:3169  function placeBid (uint256 price) public payable {... */\n    tag_51:\n        /* \"contracts/OrderBook.sol\":2700:2701  0 */\n      0x00\n        /* \"contracts/OrderBook.sol\":2691:2696  price */\n      dup2\n        /* \"contracts/OrderBook.sol\":2691:2701  price >= 0 */\n      lt\n      iszero\n        /* \"contracts/OrderBook.sol\":2683:2737  require(price >= 0, \"price value must be more than 0\") */\n      tag_150\n      jumpi\n      mload(0x40)\n      0x08c379a000000000000000000000000000000000000000000000000000000000\n      dup2\n      mstore\n      0x04\n      add\n      dup1\n      dup1\n      0x20\n      add\n      dup3\n      dup2\n      sub\n      dup3\n      mstore\n      0x1f\n      dup2\n      mstore\n      0x20\n      add\n      dup1\n      0x70726963652076616c7565206d757374206265206d6f7265207468616e203000\n      dup2\n      mstore\n      pop\n      0x20\n      add\n      swap2\n      pop\n      pop\n      mload(0x40)\n      dup1\n      swap2\n      sub\n      swap1\n      revert\n    tag_150:\n        /* \"contracts/OrderBook.sol\":2768:2773  price */\n      dup1\n        /* \"contracts/OrderBook.sol\":2755:2764  msg.value */\n      callvalue\n        /* \"contracts/OrderBook.sol\":2755:2773  msg.value >= price */\n      lt\n      iszero\n        /* \"contracts/OrderBook.sol\":2747:2808  require(msg.value >= price, \"Not enough blance to place bid\") */\n      tag_151\n      jumpi\n      mload(0x40)\n      0x08c379a000000000000000000000000000000000000000000000000000000000\n      dup2\n      mstore\n      0x04\n      add\n      dup1\n      dup1\n      0x20\n      add\n      dup3\n      dup2\n      sub\n      dup3\n      mstore\n      0x1e\n      dup2\n      mstore\n      0x20\n      add\n      dup1\n      0x4e6f7420656e6f75676820626c616e636520746f20706c616365206269640000\n      dup2\n      mstore\n      pop\n      0x20\n      add\n      swap2\n      pop\n      pop\n      mload(0x40)\n      dup1\n      swap2\n      sub\n      swap1\n      revert\n    tag_151:\n        /* \"contracts/OrderBook.sol\":2818:2830  uint256 time */\n      0x00\n        /* \"contracts/OrderBook.sol\":2833:2848  block.timestamp */\n      timestamp\n        /* \"contracts/OrderBook.sol\":2818:2848  uint256 time = block.timestamp */\n      swap1\n      pop\n        /* \"contracts/OrderBook.sol\":2858:2883  uint256 commissionedPrice */\n      0x00\n        /* \"contracts/OrderBook.sol\":2917:2920  100 */\n      0x64\n        /* \"contracts/OrderBook.sol\":2903:2913  commission */\n      sload(0x02)\n        /* \"contracts/OrderBook.sol\":2899:2902  100 */\n      0x64\n        /* \"contracts/OrderBook.sol\":2899:2913  100-commission */\n      sub\n        /* \"contracts/OrderBook.sol\":2886:2895  msg.value */\n      callvalue\n        /* \"contracts/OrderBook.sol\":2886:2914  msg.value * (100-commission) */\n      mul\n        /* \"contracts/OrderBook.sol\":2886:2920  msg.value * (100-commission) / 100 */\n      dup2\n      tag_152\n      jumpi\n      invalid\n    tag_152:\n      div\n        /* \"contracts/OrderBook.sol\":2858:2920  uint256 commissionedPrice = msg.value * (100-commission) / 100 */\n      swap1\n      pop\n        /* \"contracts/OrderBook.sol\":2930:2949  order memory newBid */\n      tag_153\n      tag_119\n      jump\t// in\n    tag_153:\n        /* \"contracts/OrderBook.sol\":2952:3015  order(payable(msg.sender),commissionedPrice,time,State.pending) */\n      mload(0x40)\n      dup1\n      0x80\n      add\n      0x40\n      mstore\n      dup1\n        /* \"contracts/OrderBook.sol\":2966:2976  msg.sender */\n      caller\n        /* \"contracts/OrderBook.sol\":2952:3015  order(payable(msg.sender),commissionedPrice,time,State.pending) */\n      0xffffffffffffffffffffffffffffffffffffffff\n      and\n      dup2\n      mstore\n      0x20\n      add\n        /* \"contracts/OrderBook.sol\":2978:2995  commissionedPrice */\n      dup4\n        /* \"contracts/OrderBook.sol\":2952:3015  order(payable(msg.sender),commissionedPrice,time,State.pending) */\n      dup2\n      mstore\n      0x20\n      add\n        /* \"contracts/OrderBook.sol\":2996:3000  time */\n      dup5\n        /* \"contracts/OrderBook.sol\":2952:3015  order(payable(msg.sender),commissionedPrice,time,State.pending) */\n      dup2\n      mstore\n      0x20\n      add\n        /* \"contracts/OrderBook.sol\":3001:3014  State.pending */\n      0x00\n        /* \"contracts/OrderBook.sol\":2952:3015  order(payable(msg.sender),commissionedPrice,time,State.pending) */\n      0x01\n      dup2\n      gt\n      iszero\n      tag_154\n      jumpi\n      invalid\n    tag_154:\n      dup2\n      mstore\n      pop\n        /* \"contracts/OrderBook.sol\":2930:3015  order memory newBid = order(payable(msg.sender),commissionedPrice,time,State.pending) */\n      swap1\n      pop\n        /* \"contracts/OrderBook.sol\":3025:3032  bidBook */\n      0x03\n        /* \"contracts/OrderBook.sol\":3038:3044  newBid */\n      dup2\n        /* \"contracts/OrderBook.sol\":3025:3045  bidBook.push(newBid) */\n      swap1\n      dup1\n      0x01\n      dup2\n      sload\n      add\n      dup1\n      dup3\n      sstore\n      dup1\n      swap2\n      pop\n      pop\n      0x01\n      swap1\n      sub\n      swap1\n      0x00\n      mstore\n      keccak256(0x00, 0x20)\n      swap1\n      0x04\n      mul\n      add\n      0x00\n      swap1\n      swap2\n      swap1\n      swap2\n      swap1\n      swap2\n      pop\n      0x00\n      dup3\n      add\n      mload\n      dup2\n      0x00\n      add\n      exp(0x0100, 0x00)\n      dup2\n      sload\n      dup2\n      0xffffffffffffffffffffffffffffffffffffffff\n      mul\n      not\n      and\n      swap1\n      dup4\n      0xffffffffffffffffffffffffffffffffffffffff\n      and\n      mul\n      or\n      swap1\n      sstore\n      pop\n      0x20\n      dup3\n      add\n      mload\n      dup2\n      0x01\n      add\n      sstore\n      0x40\n      dup3\n      add\n      mload\n      dup2\n      0x02\n      add\n      sstore\n      0x60\n      dup3\n      add\n      mload\n      dup2\n      0x03\n      add\n      exp(0x0100, 0x00)\n      dup2\n      sload\n      dup2\n      0xff\n      mul\n      not\n      and\n      swap1\n      dup4\n      0x01\n      dup2\n      gt\n      iszero\n      tag_156\n      jumpi\n      invalid\n    tag_156:\n      mul\n      or\n      swap1\n      sstore\n      pop\n      pop\n      pop\n        /* \"contracts/OrderBook.sol\":3055:3061  _owner */\n      0x01\n      0x00\n      swap1\n      sload\n      swap1\n      0x0100\n      exp\n      swap1\n      div\n      0xffffffffffffffffffffffffffffffffffffffff\n      and\n        /* \"contracts/OrderBook.sol\":3055:3070  _owner.transfer */\n      0xffffffffffffffffffffffffffffffffffffffff\n      and\n        /* \"contracts/OrderBook.sol\":3055:3089  _owner.transfer(commissionedPrice) */\n      0x08fc\n        /* \"contracts/OrderBook.sol\":3071:3088  commissionedPrice */\n      dup4\n        /* \"contracts/OrderBook.sol\":3055:3089  _owner.transfer(commissionedPrice) */\n      swap1\n      dup2\n      iszero\n      mul\n      swap1\n      mload(0x40)\n      0x00\n      mload(0x40)\n      dup1\n      dup4\n      sub\n      dup2\n      dup6\n      dup9\n      dup9\n      call\n      swap4\n      pop\n      pop\n      pop\n      pop\n      iszero\n      dup1\n      iszero\n      tag_158\n      jumpi\n      returndatasize\n      0x00\n      dup1\n      returndatacopy\n      revert(0x00, returndatasize)\n    tag_158:\n      pop\n        /* \"contracts/OrderBook.sol\":3104:3162  bidPlaced(msg.sender,commissionedPrice,time,State.pending) */\n      0xa64806d6d5d480697a0b11c92b915a4ff7b93c0be28171d65d30041a0c360d04\n        /* \"contracts/OrderBook.sol\":3114:3124  msg.sender */\n      caller\n        /* \"contracts/OrderBook.sol\":3125:3142  commissionedPrice */\n      dup4\n        /* \"contracts/OrderBook.sol\":3143:3147  time */\n      dup6\n        /* \"contracts/OrderBook.sol\":3148:3161  State.pending */\n      0x00\n        /* \"contracts/OrderBook.sol\":3104:3162  bidPlaced(msg.sender,commissionedPrice,time,State.pending) */\n      mload(0x40)\n      dup1\n      dup6\n      0xffffffffffffffffffffffffffffffffffffffff\n      and\n      dup2\n      mstore\n      0x20\n      add\n      dup5\n      dup2\n      mstore\n      0x20\n      add\n      dup4\n      dup2\n      mstore\n      0x20\n      add\n      dup3\n      0x01\n      dup2\n      gt\n      iszero\n      tag_159\n      jumpi\n      invalid\n    tag_159:\n      dup2\n      mstore\n      0x20\n      add\n      swap5\n      pop\n      pop\n      pop\n      pop\n      pop\n      mload(0x40)\n      dup1\n      swap2\n      sub\n      swap1\n      log1\n        /* \"contracts/OrderBook.sol\":2624:3169  function placeBid (uint256 price) public payable {... */\n      pop\n      pop\n      pop\n      pop\n      jump\t// out\n        /* \"contracts/OrderBook.sol\":5594:5693  function getBidState (uint id) public view returns(State) {... */\n    tag_55:\n        /* \"contracts/OrderBook.sol\":5645:5650  State */\n      0x00\n        /* \"contracts/OrderBook.sol\":5669:5676  bidBook */\n      0x03\n        /* \"contracts/OrderBook.sol\":5677:5679  id */\n      dup3\n        /* \"contracts/OrderBook.sol\":5669:5680  bidBook[id] */\n      dup2\n      sload\n      dup2\n      lt\n      tag_161\n      jumpi\n      invalid\n    tag_161:\n      swap1\n      0x00\n      mstore\n      keccak256(0x00, 0x20)\n      swap1\n      0x04\n      mul\n      add\n        /* \"contracts/OrderBook.sol\":5669:5686  bidBook[id].state */\n      0x03\n      add\n      0x00\n      swap1\n      sload\n      swap1\n      0x0100\n      exp\n      swap1\n      div\n      0xff\n      and\n        /* \"contracts/OrderBook.sol\":5662:5686  return bidBook[id].state */\n      swap1\n      pop\n        /* \"contracts/OrderBook.sol\":5594:5693  function getBidState (uint id) public view returns(State) {... */\n      swap2\n      swap1\n      pop\n      jump\t// out\n        /* \"contracts/OrderBook.sol\":4580:4854  function fetchYourBidIds() public returns (uint[] memory) {... */\n    tag_59:\n        /* \"contracts/OrderBook.sol\":4623:4636  uint[] memory */\n      0x60\n        /* \"contracts/OrderBook.sol\":4648:4661  deleteArray() */\n      tag_164\n        /* \"contracts/OrderBook.sol\":4648:4659  deleteArray */\n      tag_69\n        /* \"contracts/OrderBook.sol\":4648:4661  deleteArray() */\n      jump\t// in\n    tag_164:\n        /* \"contracts/OrderBook.sol\":4676:4682  uint i */\n      0x00\n        /* \"contracts/OrderBook.sol\":4671:4824  for (uint i = 0; i < bidBook.length; i++) {... */\n    tag_165:\n        /* \"contracts/OrderBook.sol\":4692:4699  bidBook */\n      0x03\n        /* \"contracts/OrderBook.sol\":4692:4706  bidBook.length */\n      dup1\n      sload\n      swap1\n      pop\n        /* \"contracts/OrderBook.sol\":4688:4689  i */\n      dup2\n        /* \"contracts/OrderBook.sol\":4688:4706  i < bidBook.length */\n      lt\n        /* \"contracts/OrderBook.sol\":4671:4824  for (uint i = 0; i < bidBook.length; i++) {... */\n      iszero\n      tag_166\n      jumpi\n        /* \"contracts/OrderBook.sol\":4754:4764  msg.sender */\n      caller\n        /* \"contracts/OrderBook.sol\":4731:4764  bidBook[i].customer == msg.sender */\n      0xffffffffffffffffffffffffffffffffffffffff\n      and\n        /* \"contracts/OrderBook.sol\":4731:4738  bidBook */\n      0x03\n        /* \"contracts/OrderBook.sol\":4739:4740  i */\n      dup3\n        /* \"contracts/OrderBook.sol\":4731:4741  bidBook[i] */\n      dup2\n      sload\n      dup2\n      lt\n      tag_168\n      jumpi\n      invalid\n    tag_168:\n      swap1\n      0x00\n      mstore\n      keccak256(0x00, 0x20)\n      swap1\n      0x04\n      mul\n      add\n        /* \"contracts/OrderBook.sol\":4731:4750  bidBook[i].customer */\n      0x00\n      add\n      0x00\n      swap1\n      sload\n      swap1\n      0x0100\n      exp\n      swap1\n      div\n      0xffffffffffffffffffffffffffffffffffffffff\n      and\n        /* \"contracts/OrderBook.sol\":4731:4764  bidBook[i].customer == msg.sender */\n      0xffffffffffffffffffffffffffffffffffffffff\n      and\n      eq\n        /* \"contracts/OrderBook.sol\":4727:4814  if (bidBook[i].customer == msg.sender) {... */\n      iszero\n      tag_170\n      jumpi\n        /* \"contracts/OrderBook.sol\":4784:4791  request */\n      0x05\n        /* \"contracts/OrderBook.sol\":4797:4798  i */\n      dup2\n        /* \"contracts/OrderBook.sol\":4784:4799  request.push(i) */\n      swap1\n      dup1\n      0x01\n      dup2\n      sload\n      add\n      dup1\n      dup3\n      sstore\n      dup1\n      swap2\n      pop\n      pop\n      0x01\n      swap1\n      sub\n      swap1\n      0x00\n      mstore\n      keccak256(0x00, 0x20)\n      add\n      0x00\n      swap1\n      swap2\n      swap1\n      swap2\n      swap1\n      swap2\n      pop\n      sstore\n        /* \"contracts/OrderBook.sol\":4727:4814  if (bidBook[i].customer == msg.sender) {... */\n    tag_170:\n        /* \"contracts/OrderBook.sol\":4708:4711  i++ */\n      dup1\n      dup1\n      0x01\n      add\n      swap2\n      pop\n      pop\n        /* \"contracts/OrderBook.sol\":4671:4824  for (uint i = 0; i < bidBook.length; i++) {... */\n      jump(tag_165)\n    tag_166:\n      pop\n        /* \"contracts/OrderBook.sol\":4840:4847  request */\n      0x05\n        /* \"contracts/OrderBook.sol\":4833:4847  return request */\n      dup1\n      sload\n      dup1\n      0x20\n      mul\n      0x20\n      add\n      mload(0x40)\n      swap1\n      dup2\n      add\n      0x40\n      mstore\n      dup1\n      swap3\n      swap2\n      swap1\n      dup2\n      dup2\n      mstore\n      0x20\n      add\n      dup3\n      dup1\n      sload\n      dup1\n      iszero\n      tag_172\n      jumpi\n      0x20\n      mul\n      dup3\n      add\n      swap2\n      swap1\n      0x00\n      mstore\n      keccak256(0x00, 0x20)\n      swap1\n    tag_173:\n      dup2\n      sload\n      dup2\n      mstore\n      0x20\n      add\n      swap1\n      0x01\n      add\n      swap1\n      dup1\n      dup4\n      gt\n      tag_173\n      jumpi\n    tag_172:\n      pop\n      pop\n      pop\n      pop\n      pop\n      swap1\n      pop\n        /* \"contracts/OrderBook.sol\":4580:4854  function fetchYourBidIds() public returns (uint[] memory) {... */\n      swap1\n      jump\t// out\n        /* \"contracts/OrderBook.sol\":5487:5588  function getAskValue (uint id) public view returns(uint256) {... */\n    tag_66:\n        /* \"contracts/OrderBook.sol\":5538:5545  uint256 */\n      0x00\n        /* \"contracts/OrderBook.sol\":5564:5571  askBook */\n      0x04\n        /* \"contracts/OrderBook.sol\":5572:5574  id */\n      dup3\n        /* \"contracts/OrderBook.sol\":5564:5575  askBook[id] */\n      dup2\n      sload\n      dup2\n      lt\n      tag_175\n      jumpi\n      invalid\n    tag_175:\n      swap1\n      0x00\n      mstore\n      keccak256(0x00, 0x20)\n      swap1\n      0x04\n      mul\n      add\n        /* \"contracts/OrderBook.sol\":5564:5581  askBook[id].value */\n      0x01\n      add\n      sload\n        /* \"contracts/OrderBook.sol\":5557:5581  return askBook[id].value */\n      swap1\n      pop\n        /* \"contracts/OrderBook.sol\":5487:5588  function getAskValue (uint id) public view returns(uint256) {... */\n      swap2\n      swap1\n      pop\n      jump\t// out\n        /* \"contracts/OrderBook.sol\":2455:2588  function deleteArray() internal {... */\n    tag_69:\n        /* \"contracts/OrderBook.sol\":2502:2508  uint i */\n      0x00\n        /* \"contracts/OrderBook.sol\":2497:2582  for (uint i = 0; i < request.length; i ++) {... */\n    tag_178:\n        /* \"contracts/OrderBook.sol\":2518:2525  request */\n      0x05\n        /* \"contracts/OrderBook.sol\":2518:2532  request.length */\n      dup1\n      sload\n      swap1\n      pop\n        /* \"contracts/OrderBook.sol\":2514:2515  i */\n      dup2\n        /* \"contracts/OrderBook.sol\":2514:2532  i < request.length */\n      lt\n        /* \"contracts/OrderBook.sol\":2497:2582  for (uint i = 0; i < request.length; i ++) {... */\n      iszero\n      tag_179\n      jumpi\n        /* \"contracts/OrderBook.sol\":2561:2568  request */\n      0x05\n        /* \"contracts/OrderBook.sol\":2569:2570  i */\n      dup2\n        /* \"contracts/OrderBook.sol\":2561:2571  request[i] */\n      dup2\n      sload\n      dup2\n      lt\n      tag_181\n      jumpi\n      invalid\n    tag_181:\n      swap1\n      0x00\n      mstore\n      keccak256(0x00, 0x20)\n      add\n        /* \"contracts/OrderBook.sol\":2554:2571  delete request[i] */\n      0x00\n      swap1\n      sstore\n        /* \"contracts/OrderBook.sol\":2534:2538  i ++ */\n      dup1\n      dup1\n      0x01\n      add\n      swap2\n      pop\n      pop\n        /* \"contracts/OrderBook.sol\":2497:2582  for (uint i = 0; i < request.length; i ++) {... */\n      jump(tag_178)\n    tag_179:\n      pop\n        /* \"contracts/OrderBook.sol\":2455:2588  function deleteArray() internal {... */\n      jump\t// out\n    tag_119:\n      mload(0x40)\n      dup1\n      0x80\n      add\n      0x40\n      mstore\n      dup1\n      and(0xffffffffffffffffffffffffffffffffffffffff, 0x00)\n      dup2\n      mstore\n      0x20\n      add\n      0x00\n      dup2\n      mstore\n      0x20\n      add\n      0x00\n      dup2\n      mstore\n      0x20\n      add\n      0x00\n      0x01\n      dup2\n      gt\n      iszero\n      tag_183\n      jumpi\n      invalid\n    tag_183:\n      dup2\n      mstore\n      pop\n      swap1\n      jump\t// out\n\n    auxdata: 0xa2646970667358221220db80a7d6851a76330a3f1d40c5b44dc953e5402f9b2c8dbaa1a20187ebd4c89264736f6c634300060c0033\n}\n",
				"bytecode": {
					"linkReferences": {},
					"object": "608060405233600160006101000a81548173ffffffffffffffffffffffffffffffffffffffff021916908373ffffffffffffffffffffffffffffffffffffffff16021790555034801561005157600080fd5b506040516117063803806117068339818101604052602081101561007457600080fd5b8101908080519060200190929190505050806002819055505061166a8061009c6000396000f3fe6080604052600436106100a75760003560e01c806378c5b2681161006457806378c5b268146102c65780639703ef35146102f45780639979ef451461032f578063bf77ffae1461035d578063ce0cdc87146103b7578063db3a139614610423576100a7565b8063122de8f2146100ac5780631628e0f5146101185780632db6dfa7146101535780634d46712d146101a257806369f632e2146101fc578063734a2e7814610261575b600080fd5b3480156100b857600080fd5b506100c1610472565b6040518080602001828103825283818151815260200191508051906020019060200280838360005b838110156101045780820151818401526020810190506100e9565b505050509050019250505060405180910390f35b34801561012457600080fd5b506101516004803603602081101561013b57600080fd5b810190808035906020019092919050505061058c565b005b34801561015f57600080fd5b5061018c6004803603602081101561017657600080fd5b8101908080359060200190929190505050610985565b6040518082815260200191505060405180910390f35b3480156101ae57600080fd5b506101db600480360360208110156101c557600080fd5b81019080803590602001909291905050506109ad565b604051808260018111156101eb57fe5b815260200191505060405180910390f35b34801561020857600080fd5b506102356004803603602081101561021f57600080fd5b81019080803590602001909291905050506109e2565b604051808273ffffffffffffffffffffffffffffffffffffffff16815260200191505060405180910390f35b34801561026d57600080fd5b5061029a6004803603602081101561028457600080fd5b8101908080359060200190929190505050610a2a565b604051808273ffffffffffffffffffffffffffffffffffffffff16815260200191505060405180910390f35b6102f2600480360360208110156102dc57600080fd5b8101908080359060200190929190505050610a72565b005b34801561030057600080fd5b5061032d6004803603602081101561031757600080fd5b8101908080359060200190929190505050610d59565b005b61035b6004803603602081101561034557600080fd5b8101908080359060200190929190505050611152565b005b34801561036957600080fd5b506103966004803603602081101561038057600080fd5b8101908080359060200190929190505050611439565b604051808260018111156103a657fe5b815260200191505060405180910390f35b3480156103c357600080fd5b506103cc61146e565b6040518080602001828103825283818151815260200191508051906020019060200280838360005b8381101561040f5780820151818401526020810190506103f4565b505050509050019250505060405180910390f35b34801561042f57600080fd5b5061045c6004803603602081101561044657600080fd5b8101908080359060200190929190505050611588565b6040518082815260200191505060405180910390f35b606061047c6115b0565b60005b600480549050811015610535573373ffffffffffffffffffffffffffffffffffffffff16600482815481106104b057fe5b906000526020600020906004020160000160009054906101000a900473ffffffffffffffffffffffffffffffffffffffff1673ffffffffffffffffffffffffffffffffffffffff1614156105285760058190806001815401808255809150506001900390600052602060002001600090919091909150555b808060010191505061047f565b50600580548060200260200160405190810160405280929190818152602001828054801561058257602002820191906000526020600020905b81548152602001906001019080831161056e575b5050505050905090565b6004818154811061059957fe5b90600052602060002090600402016040518060800160405290816000820160009054906101000a900473ffffffffffffffffffffffffffffffffffffffff1673ffffffffffffffffffffffffffffffffffffffff1673ffffffffffffffffffffffffffffffffffffffff16815260200160018201548152602001600282015481526020016003820160009054906101000a900460ff16600181111561063a57fe5b600181111561064557fe5b815250506000600181111561065657fe5b8160600151600181111561066657fe5b146106d9576040517f08c379a000000000000000000000000000000000000000000000000000000000815260040180806020018281038252600d8152602001807f4f726465722050656e64696e670000000000000000000000000000000000000081525060200191505060405180910390fd5b600482815481106106e657fe5b90600052602060002090600402016040518060800160405290816000820160009054906101000a900473ffffffffffffffffffffffffffffffffffffffff1673ffffffffffffffffffffffffffffffffffffffff1673ffffffffffffffffffffffffffffffffffffffff16815260200160018201548152602001600282015481526020016003820160009054906101000a900460ff16600181111561078757fe5b600181111561079257fe5b81525050338073ffffffffffffffffffffffffffffffffffffffff16826000015173ffffffffffffffffffffffffffffffffffffffff161461083c576040517f08c379a000000000000000000000000000000000000000000000000000000000815260040180806020018281038252600e8152602001807f4e6f7420417574686f726973656400000000000000000000000000000000000081525060200191505060405180910390fd5b6004848154811061084957fe5b906000526020600020906004020160000160009054906101000a900473ffffffffffffffffffffffffffffffffffffffff1673ffffffffffffffffffffffffffffffffffffffff166108fc600486815481106108a157fe5b9060005260206000209060040201600101549081150290604051600060405180830381858888f193505050501580156108de573d6000803e3d6000fd5b50600484815481106108ec57fe5b9060005260206000209060040201600080820160006101000a81549073ffffffffffffffffffffffffffffffffffffffff0219169055600182016000905560028201600090556003820160006101000a81549060ff021916905550507f48d3043fff66c1aee14954ac5aa463b0297fb08c9b60ee00486fb3387bb58aac846040518082815260200191505060405180910390a150505050565b60006003828154811061099457fe5b9060005260206000209060040201600101549050919050565b6000600482815481106109bc57fe5b906000526020600020906004020160030160009054906101000a900460ff169050919050565b6000600382815481106109f157fe5b906000526020600020906004020160000160009054906101000a900473ffffffffffffffffffffffffffffffffffffffff169050919050565b600060048281548110610a3957fe5b906000526020600020906004020160000160009054906101000a900473ffffffffffffffffffffffffffffffffffffffff169050919050565b6000811015610ae9576040517f08c379a000000000000000000000000000000000000000000000000000000000815260040180806020018281038252601f8152602001807f70726963652076616c7565206d757374206265206d6f7265207468616e20300081525060200191505060405180910390fd5b80341015610b5f576040517f08c379a000000000000000000000000000000000000000000000000000000000815260040180806020018281038252601e8152602001807f4e6f7420656e6f75676820626c616e636520746f20706c6163652061736b000081525060200191505060405180910390fd5b600042905060006064600254606403340281610b7757fe5b049050610b826115eb565b60405180608001604052803373ffffffffffffffffffffffffffffffffffffffff16815260200183815260200184815260200160006001811115610bc257fe5b8152509050600481908060018154018082558091505060019003906000526020600020906004020160009091909190915060008201518160000160006101000a81548173ffffffffffffffffffffffffffffffffffffffff021916908373ffffffffffffffffffffffffffffffffffffffff160217905550602082015181600101556040820151816002015560608201518160030160006101000a81548160ff02191690836001811115610c7257fe5b02179055505050600160009054906101000a900473ffffffffffffffffffffffffffffffffffffffff1673ffffffffffffffffffffffffffffffffffffffff166108fc839081150290604051600060405180830381858888f19350505050158015610ce1573d6000803e3d6000fd5b507fc2125a7f3edfeff7a3bbcfe393c5aa3a6589585d4a7ee70db48c34f67c8209e23383856000604051808573ffffffffffffffffffffffffffffffffffffffff168152602001848152602001838152602001826001811115610d4057fe5b815260200194505050505060405180910390a150505050565b60038181548110610d6657fe5b90600052602060002090600402016040518060800160405290816000820160009054906101000a900473ffffffffffffffffffffffffffffffffffffffff1673ffffffffffffffffffffffffffffffffffffffff1673ffffffffffffffffffffffffffffffffffffffff16815260200160018201548152602001600282015481526020016003820160009054906101000a900460ff166001811115610e0757fe5b6001811115610e1257fe5b8152505060006001811115610e2357fe5b81606001516001811115610e3357fe5b14610ea6576040517f08c379a000000000000000000000000000000000000000000000000000000000815260040180806020018281038252600d8152602001807f4f726465722050656e64696e670000000000000000000000000000000000000081525060200191505060405180910390fd5b60038281548110610eb357fe5b90600052602060002090600402016040518060800160405290816000820160009054906101000a900473ffffffffffffffffffffffffffffffffffffffff1673ffffffffffffffffffffffffffffffffffffffff1673ffffffffffffffffffffffffffffffffffffffff16815260200160018201548152602001600282015481526020016003820160009054906101000a900460ff166001811115610f5457fe5b6001811115610f5f57fe5b81525050338073ffffffffffffffffffffffffffffffffffffffff16826000015173ffffffffffffffffffffffffffffffffffffffff1614611009576040517f08c379a000000000000000000000000000000000000000000000000000000000815260040180806020018281038252600e8152602001807f4e6f7420417574686f726973656400000000000000000000000000000000000081525060200191505060405180910390fd5b6003848154811061101657fe5b906000526020600020906004020160000160009054906101000a900473ffffffffffffffffffffffffffffffffffffffff1673ffffffffffffffffffffffffffffffffffffffff166108fc6003868154811061106e57fe5b9060005260206000209060040201600101549081150290604051600060405180830381858888f193505050501580156110ab573d6000803e3d6000fd5b50600384815481106110b957fe5b9060005260206000209060040201600080820160006101000a81549073ffffffffffffffffffffffffffffffffffffffff0219169055600182016000905560028201600090556003820160006101000a81549060ff021916905550507fc845a6832afa0a4048dd70bbba2186093508a6b63a8d5d70a508f819fef257f8846040518082815260200191505060405180910390a150505050565b60008110156111c9576040517f08c379a000000000000000000000000000000000000000000000000000000000815260040180806020018281038252601f8152602001807f70726963652076616c7565206d757374206265206d6f7265207468616e20300081525060200191505060405180910390fd5b8034101561123f576040517f08c379a000000000000000000000000000000000000000000000000000000000815260040180806020018281038252601e8152602001807f4e6f7420656e6f75676820626c616e636520746f20706c61636520626964000081525060200191505060405180910390fd5b60004290506000606460025460640334028161125757fe5b0490506112626115eb565b60405180608001604052803373ffffffffffffffffffffffffffffffffffffffff168152602001838152602001848152602001600060018111156112a257fe5b8152509050600381908060018154018082558091505060019003906000526020600020906004020160009091909190915060008201518160000160006101000a81548173ffffffffffffffffffffffffffffffffffffffff021916908373ffffffffffffffffffffffffffffffffffffffff160217905550602082015181600101556040820151816002015560608201518160030160006101000a81548160ff0219169083600181111561135257fe5b02179055505050600160009054906101000a900473ffffffffffffffffffffffffffffffffffffffff1673ffffffffffffffffffffffffffffffffffffffff166108fc839081150290604051600060405180830381858888f193505050501580156113c1573d6000803e3d6000fd5b507fa64806d6d5d480697a0b11c92b915a4ff7b93c0be28171d65d30041a0c360d043383856000604051808573ffffffffffffffffffffffffffffffffffffffff16815260200184815260200183815260200182600181111561142057fe5b815260200194505050505060405180910390a150505050565b60006003828154811061144857fe5b906000526020600020906004020160030160009054906101000a900460ff169050919050565b60606114786115b0565b60005b600380549050811015611531573373ffffffffffffffffffffffffffffffffffffffff16600382815481106114ac57fe5b906000526020600020906004020160000160009054906101000a900473ffffffffffffffffffffffffffffffffffffffff1673ffffffffffffffffffffffffffffffffffffffff1614156115245760058190806001815401808255809150506001900390600052602060002001600090919091909150555b808060010191505061147b565b50600580548060200260200160405190810160405280929190818152602001828054801561157e57602002820191906000526020600020905b81548152602001906001019080831161156a575b5050505050905090565b60006004828154811061159757fe5b9060005260206000209060040201600101549050919050565b60005b6005805490508110156115e857600581815481106115cd57fe5b906000526020600020016000905580806001019150506115b3565b50565b6040518060800160405280600073ffffffffffffffffffffffffffffffffffffffff16815260200160008152602001600081526020016000600181111561162e57fe5b8152509056fea2646970667358221220db80a7d6851a76330a3f1d40c5b44dc953e5402f9b2c8dbaa1a20187ebd4c89264736f6c634300060c0033",
					"opcodes": "PUSH1 0x80 PUSH1 0x40 MSTORE CALLER PUSH1 0x1 PUSH1 0x0 PUSH2 0x100 EXP DUP2 SLOAD DUP2 PUSH20 0xFFFFFFFFFFFFFFFFFFFFFFFFFFFFFFFFFFFFFFFF MUL NOT AND SWAP1 DUP4 PUSH20 0xFFFFFFFFFFFFFFFFFFFFFFFFFFFFFFFFFFFFFFFF AND MUL OR SWAP1 SSTORE POP CALLVALUE DUP1 ISZERO PUSH2 0x51 JUMPI PUSH1 0x0 DUP1 REVERT JUMPDEST POP PUSH1 0x40 MLOAD PUSH2 0x1706 CODESIZE SUB DUP1 PUSH2 0x1706 DUP4 CODECOPY DUP2 DUP2 ADD PUSH1 0x40 MSTORE PUSH1 0x20 DUP2 LT ISZERO PUSH2 0x74 JUMPI PUSH1 0x0 DUP1 REVERT JUMPDEST DUP2 ADD SWAP1 DUP1 DUP1 MLOAD SWAP1 PUSH1 0x20 ADD SWAP1 SWAP3 SWAP2 SWAP1 POP POP POP DUP1 PUSH1 0x2 DUP2 SWAP1 SSTORE POP POP PUSH2 0x166A DUP1 PUSH2 0x9C PUSH1 0x0 CODECOPY PUSH1 0x0 RETURN INVALID PUSH1 0x80 PUSH1 0x40 MSTORE PUSH1 0x4 CALLDATASIZE LT PUSH2 0xA7 JUMPI PUSH1 0x0 CALLDATALOAD PUSH1 0xE0 SHR DUP1 PUSH4 0x78C5B268 GT PUSH2 0x64 JUMPI DUP1 PUSH4 0x78C5B268 EQ PUSH2 0x2C6 JUMPI DUP1 PUSH4 0x9703EF35 EQ PUSH2 0x2F4 JUMPI DUP1 PUSH4 0x9979EF45 EQ PUSH2 0x32F JUMPI DUP1 PUSH4 0xBF77FFAE EQ PUSH2 0x35D JUMPI DUP1 PUSH4 0xCE0CDC87 EQ PUSH2 0x3B7 JUMPI DUP1 PUSH4 0xDB3A1396 EQ PUSH2 0x423 JUMPI PUSH2 0xA7 JUMP JUMPDEST DUP1 PUSH4 0x122DE8F2 EQ PUSH2 0xAC JUMPI DUP1 PUSH4 0x1628E0F5 EQ PUSH2 0x118 JUMPI DUP1 PUSH4 0x2DB6DFA7 EQ PUSH2 0x153 JUMPI DUP1 PUSH4 0x4D46712D EQ PUSH2 0x1A2 JUMPI DUP1 PUSH4 0x69F632E2 EQ PUSH2 0x1FC JUMPI DUP1 PUSH4 0x734A2E78 EQ PUSH2 0x261 JUMPI JUMPDEST PUSH1 0x0 DUP1 REVERT JUMPDEST CALLVALUE DUP1 ISZERO PUSH2 0xB8 JUMPI PUSH1 0x0 DUP1 REVERT JUMPDEST POP PUSH2 0xC1 PUSH2 0x472 JUMP JUMPDEST PUSH1 0x40 MLOAD DUP1 DUP1 PUSH1 0x20 ADD DUP3 DUP2 SUB DUP3 MSTORE DUP4 DUP2 DUP2 MLOAD DUP2 MSTORE PUSH1 0x20 ADD SWAP2 POP DUP1 MLOAD SWAP1 PUSH1 0x20 ADD SWAP1 PUSH1 0x20 MUL DUP1 DUP4 DUP4 PUSH1 0x0 JUMPDEST DUP4 DUP2 LT ISZERO PUSH2 0x104 JUMPI DUP1 DUP3 ADD MLOAD DUP2 DUP5 ADD MSTORE PUSH1 0x20 DUP2 ADD SWAP1 POP PUSH2 0xE9 JUMP JUMPDEST POP POP POP POP SWAP1 POP ADD SWAP3 POP POP POP PUSH1 0x40 MLOAD DUP1 SWAP2 SUB SWAP1 RETURN JUMPDEST CALLVALUE DUP1 ISZERO PUSH2 0x124 JUMPI PUSH1 0x0 DUP1 REVERT JUMPDEST POP PUSH2 0x151 PUSH1 0x4 DUP1 CALLDATASIZE SUB PUSH1 0x20 DUP2 LT ISZERO PUSH2 0x13B JUMPI PUSH1 0x0 DUP1 REVERT JUMPDEST DUP2 ADD SWAP1 DUP1 DUP1 CALLDATALOAD SWAP1 PUSH1 0x20 ADD SWAP1 SWAP3 SWAP2 SWAP1 POP POP POP PUSH2 0x58C JUMP JUMPDEST STOP JUMPDEST CALLVALUE DUP1 ISZERO PUSH2 0x15F JUMPI PUSH1 0x0 DUP1 REVERT JUMPDEST POP PUSH2 0x18C PUSH1 0x4 DUP1 CALLDATASIZE SUB PUSH1 0x20 DUP2 LT ISZERO PUSH2 0x176 JUMPI PUSH1 0x0 DUP1 REVERT JUMPDEST DUP2 ADD SWAP1 DUP1 DUP1 CALLDATALOAD SWAP1 PUSH1 0x20 ADD SWAP1 SWAP3 SWAP2 SWAP1 POP POP POP PUSH2 0x985 JUMP JUMPDEST PUSH1 0x40 MLOAD DUP1 DUP3 DUP2 MSTORE PUSH1 0x20 ADD SWAP2 POP POP PUSH1 0x40 MLOAD DUP1 SWAP2 SUB SWAP1 RETURN JUMPDEST CALLVALUE DUP1 ISZERO PUSH2 0x1AE JUMPI PUSH1 0x0 DUP1 REVERT JUMPDEST POP PUSH2 0x1DB PUSH1 0x4 DUP1 CALLDATASIZE SUB PUSH1 0x20 DUP2 LT ISZERO PUSH2 0x1C5 JUMPI PUSH1 0x0 DUP1 REVERT JUMPDEST DUP2 ADD SWAP1 DUP1 DUP1 CALLDATALOAD SWAP1 PUSH1 0x20 ADD SWAP1 SWAP3 SWAP2 SWAP1 POP POP POP PUSH2 0x9AD JUMP JUMPDEST PUSH1 0x40 MLOAD DUP1 DUP3 PUSH1 0x1 DUP2 GT ISZERO PUSH2 0x1EB JUMPI INVALID JUMPDEST DUP2 MSTORE PUSH1 0x20 ADD SWAP2 POP POP PUSH1 0x40 MLOAD DUP1 SWAP2 SUB SWAP1 RETURN JUMPDEST CALLVALUE DUP1 ISZERO PUSH2 0x208 JUMPI PUSH1 0x0 DUP1 REVERT JUMPDEST POP PUSH2 0x235 PUSH1 0x4 DUP1 CALLDATASIZE SUB PUSH1 0x20 DUP2 LT ISZERO PUSH2 0x21F JUMPI PUSH1 0x0 DUP1 REVERT JUMPDEST DUP2 ADD SWAP1 DUP1 DUP1 CALLDATALOAD SWAP1 PUSH1 0x20 ADD SWAP1 SWAP3 SWAP2 SWAP1 POP POP POP PUSH2 0x9E2 JUMP JUMPDEST PUSH1 0x40 MLOAD DUP1 DUP3 PUSH20 0xFFFFFFFFFFFFFFFFFFFFFFFFFFFFFFFFFFFFFFFF AND DUP2 MSTORE PUSH1 0x20 ADD SWAP2 POP POP PUSH1 0x40 MLOAD DUP1 SWAP2 SUB SWAP1 RETURN JUMPDEST CALLVALUE DUP1 ISZERO PUSH2 0x26D JUMPI PUSH1 0x0 DUP1 REVERT JUMPDEST POP PUSH2 0x29A PUSH1 0x4 DUP1 CALLDATASIZE SUB PUSH1 0x20 DUP2 LT ISZERO PUSH2 0x284 JUMPI PUSH1 0x0 DUP1 REVERT JUMPDEST DUP2 ADD SWAP1 DUP1 DUP1 CALLDATALOAD SWAP1 PUSH1 0x20 ADD SWAP1 SWAP3 SWAP2 SWAP1 POP POP POP PUSH2 0xA2A JUMP JUMPDEST PUSH1 0x40 MLOAD DUP1 DUP3 PUSH20 0xFFFFFFFFFFFFFFFFFFFFFFFFFFFFFFFFFFFFFFFF AND DUP2 MSTORE PUSH1 0x20 ADD SWAP2 POP POP PUSH1 0x40 MLOAD DUP1 SWAP2 SUB SWAP1 RETURN JUMPDEST PUSH2 0x2F2 PUSH1 0x4 DUP1 CALLDATASIZE SUB PUSH1 0x20 DUP2 LT ISZERO PUSH2 0x2DC JUMPI PUSH1 0x0 DUP1 REVERT JUMPDEST DUP2 ADD SWAP1 DUP1 DUP1 CALLDATALOAD SWAP1 PUSH1 0x20 ADD SWAP1 SWAP3 SWAP2 SWAP1 POP POP POP PUSH2 0xA72 JUMP JUMPDEST STOP JUMPDEST CALLVALUE DUP1 ISZERO PUSH2 0x300 JUMPI PUSH1 0x0 DUP1 REVERT JUMPDEST POP PUSH2 0x32D PUSH1 0x4 DUP1 CALLDATASIZE SUB PUSH1 0x20 DUP2 LT ISZERO PUSH2 0x317 JUMPI PUSH1 0x0 DUP1 REVERT JUMPDEST DUP2 ADD SWAP1 DUP1 DUP1 CALLDATALOAD SWAP1 PUSH1 0x20 ADD SWAP1 SWAP3 SWAP2 SWAP1 POP POP POP PUSH2 0xD59 JUMP JUMPDEST STOP JUMPDEST PUSH2 0x35B PUSH1 0x4 DUP1 CALLDATASIZE SUB PUSH1 0x20 DUP2 LT ISZERO PUSH2 0x345 JUMPI PUSH1 0x0 DUP1 REVERT JUMPDEST DUP2 ADD SWAP1 DUP1 DUP1 CALLDATALOAD SWAP1 PUSH1 0x20 ADD SWAP1 SWAP3 SWAP2 SWAP1 POP POP POP PUSH2 0x1152 JUMP JUMPDEST STOP JUMPDEST CALLVALUE DUP1 ISZERO PUSH2 0x369 JUMPI PUSH1 0x0 DUP1 REVERT JUMPDEST POP PUSH2 0x396 PUSH1 0x4 DUP1 CALLDATASIZE SUB PUSH1 0x20 DUP2 LT ISZERO PUSH2 0x380 JUMPI PUSH1 0x0 DUP1 REVERT JUMPDEST DUP2 ADD SWAP1 DUP1 DUP1 CALLDATALOAD SWAP1 PUSH1 0x20 ADD SWAP1 SWAP3 SWAP2 SWAP1 POP POP POP PUSH2 0x1439 JUMP JUMPDEST PUSH1 0x40 MLOAD DUP1 DUP3 PUSH1 0x1 DUP2 GT ISZERO PUSH2 0x3A6 JUMPI INVALID JUMPDEST DUP2 MSTORE PUSH1 0x20 ADD SWAP2 POP POP PUSH1 0x40 MLOAD DUP1 SWAP2 SUB SWAP1 RETURN JUMPDEST CALLVALUE DUP1 ISZERO PUSH2 0x3C3 JUMPI PUSH1 0x0 DUP1 REVERT JUMPDEST POP PUSH2 0x3CC PUSH2 0x146E JUMP JUMPDEST PUSH1 0x40 MLOAD DUP1 DUP1 PUSH1 0x20 ADD DUP3 DUP2 SUB DUP3 MSTORE DUP4 DUP2 DUP2 MLOAD DUP2 MSTORE PUSH1 0x20 ADD SWAP2 POP DUP1 MLOAD SWAP1 PUSH1 0x20 ADD SWAP1 PUSH1 0x20 MUL DUP1 DUP4 DUP4 PUSH1 0x0 JUMPDEST DUP4 DUP2 LT ISZERO PUSH2 0x40F JUMPI DUP1 DUP3 ADD MLOAD DUP2 DUP5 ADD MSTORE PUSH1 0x20 DUP2 ADD SWAP1 POP PUSH2 0x3F4 JUMP JUMPDEST POP POP POP POP SWAP1 POP ADD SWAP3 POP POP POP PUSH1 0x40 MLOAD DUP1 SWAP2 SUB SWAP1 RETURN JUMPDEST CALLVALUE DUP1 ISZERO PUSH2 0x42F JUMPI PUSH1 0x0 DUP1 REVERT JUMPDEST POP PUSH2 0x45C PUSH1 0x4 DUP1 CALLDATASIZE SUB PUSH1 0x20 DUP2 LT ISZERO PUSH2 0x446 JUMPI PUSH1 0x0 DUP1 REVERT JUMPDEST DUP2 ADD SWAP1 DUP1 DUP1 CALLDATALOAD SWAP1 PUSH1 0x20 ADD SWAP1 SWAP3 SWAP2 SWAP1 POP POP POP PUSH2 0x1588 JUMP JUMPDEST PUSH1 0x40 MLOAD DUP1 DUP3 DUP2 MSTORE PUSH1 0x20 ADD SWAP2 POP POP PUSH1 0x40 MLOAD DUP1 SWAP2 SUB SWAP1 RETURN JUMPDEST PUSH1 0x60 PUSH2 0x47C PUSH2 0x15B0 JUMP JUMPDEST PUSH1 0x0 JUMPDEST PUSH1 0x4 DUP1 SLOAD SWAP1 POP DUP2 LT ISZERO PUSH2 0x535 JUMPI CALLER PUSH20 0xFFFFFFFFFFFFFFFFFFFFFFFFFFFFFFFFFFFFFFFF AND PUSH1 0x4 DUP3 DUP2 SLOAD DUP2 LT PUSH2 0x4B0 JUMPI INVALID JUMPDEST SWAP1 PUSH1 0x0 MSTORE PUSH1 0x20 PUSH1 0x0 KECCAK256 SWAP1 PUSH1 0x4 MUL ADD PUSH1 0x0 ADD PUSH1 0x0 SWAP1 SLOAD SWAP1 PUSH2 0x100 EXP SWAP1 DIV PUSH20 0xFFFFFFFFFFFFFFFFFFFFFFFFFFFFFFFFFFFFFFFF AND PUSH20 0xFFFFFFFFFFFFFFFFFFFFFFFFFFFFFFFFFFFFFFFF AND EQ ISZERO PUSH2 0x528 JUMPI PUSH1 0x5 DUP2 SWAP1 DUP1 PUSH1 0x1 DUP2 SLOAD ADD DUP1 DUP3 SSTORE DUP1 SWAP2 POP POP PUSH1 0x1 SWAP1 SUB SWAP1 PUSH1 0x0 MSTORE PUSH1 0x20 PUSH1 0x0 KECCAK256 ADD PUSH1 0x0 SWAP1 SWAP2 SWAP1 SWAP2 SWAP1 SWAP2 POP SSTORE JUMPDEST DUP1 DUP1 PUSH1 0x1 ADD SWAP2 POP POP PUSH2 0x47F JUMP JUMPDEST POP PUSH1 0x5 DUP1 SLOAD DUP1 PUSH1 0x20 MUL PUSH1 0x20 ADD PUSH1 0x40 MLOAD SWAP1 DUP2 ADD PUSH1 0x40 MSTORE DUP1 SWAP3 SWAP2 SWAP1 DUP2 DUP2 MSTORE PUSH1 0x20 ADD DUP3 DUP1 SLOAD DUP1 ISZERO PUSH2 0x582 JUMPI PUSH1 0x20 MUL DUP3 ADD SWAP2 SWAP1 PUSH1 0x0 MSTORE PUSH1 0x20 PUSH1 0x0 KECCAK256 SWAP1 JUMPDEST DUP2 SLOAD DUP2 MSTORE PUSH1 0x20 ADD SWAP1 PUSH1 0x1 ADD SWAP1 DUP1 DUP4 GT PUSH2 0x56E JUMPI JUMPDEST POP POP POP POP POP SWAP1 POP SWAP1 JUMP JUMPDEST PUSH1 0x4 DUP2 DUP2 SLOAD DUP2 LT PUSH2 0x599 JUMPI INVALID JUMPDEST SWAP1 PUSH1 0x0 MSTORE PUSH1 0x20 PUSH1 0x0 KECCAK256 SWAP1 PUSH1 0x4 MUL ADD PUSH1 0x40 MLOAD DUP1 PUSH1 0x80 ADD PUSH1 0x40 MSTORE SWAP1 DUP2 PUSH1 0x0 DUP3 ADD PUSH1 0x0 SWAP1 SLOAD SWAP1 PUSH2 0x100 EXP SWAP1 DIV PUSH20 0xFFFFFFFFFFFFFFFFFFFFFFFFFFFFFFFFFFFFFFFF AND PUSH20 0xFFFFFFFFFFFFFFFFFFFFFFFFFFFFFFFFFFFFFFFF AND PUSH20 0xFFFFFFFFFFFFFFFFFFFFFFFFFFFFFFFFFFFFFFFF AND DUP2 MSTORE PUSH1 0x20 ADD PUSH1 0x1 DUP3 ADD SLOAD DUP2 MSTORE PUSH1 0x20 ADD PUSH1 0x2 DUP3 ADD SLOAD DUP2 MSTORE PUSH1 0x20 ADD PUSH1 0x3 DUP3 ADD PUSH1 0x0 SWAP1 SLOAD SWAP1 PUSH2 0x100 EXP SWAP1 DIV PUSH1 0xFF AND PUSH1 0x1 DUP2 GT ISZERO PUSH2 0x63A JUMPI INVALID JUMPDEST PUSH1 0x1 DUP2 GT ISZERO PUSH2 0x645 JUMPI INVALID JUMPDEST DUP2 MSTORE POP POP PUSH1 0x0 PUSH1 0x1 DUP2 GT ISZERO PUSH2 0x656 JUMPI INVALID JUMPDEST DUP2 PUSH1 0x60 ADD MLOAD PUSH1 0x1 DUP2 GT ISZERO PUSH2 0x666 JUMPI INVALID JUMPDEST EQ PUSH2 0x6D9 JUMPI PUSH1 0x40 MLOAD PUSH32 0x8C379A000000000000000000000000000000000000000000000000000000000 DUP2 MSTORE PUSH1 0x4 ADD DUP1 DUP1 PUSH1 0x20 ADD DUP3 DUP2 SUB DUP3 MSTORE PUSH1 0xD DUP2 MSTORE PUSH1 0x20 ADD DUP1 PUSH32 0x4F726465722050656E64696E6700000000000000000000000000000000000000 DUP2 MSTORE POP PUSH1 0x20 ADD SWAP2 POP POP PUSH1 0x40 MLOAD DUP1 SWAP2 SUB SWAP1 REVERT JUMPDEST PUSH1 0x4 DUP3 DUP2 SLOAD DUP2 LT PUSH2 0x6E6 JUMPI INVALID JUMPDEST SWAP1 PUSH1 0x0 MSTORE PUSH1 0x20 PUSH1 0x0 KECCAK256 SWAP1 PUSH1 0x4 MUL ADD PUSH1 0x40 MLOAD DUP1 PUSH1 0x80 ADD PUSH1 0x40 MSTORE SWAP1 DUP2 PUSH1 0x0 DUP3 ADD PUSH1 0x0 SWAP1 SLOAD SWAP1 PUSH2 0x100 EXP SWAP1 DIV PUSH20 0xFFFFFFFFFFFFFFFFFFFFFFFFFFFFFFFFFFFFFFFF AND PUSH20 0xFFFFFFFFFFFFFFFFFFFFFFFFFFFFFFFFFFFFFFFF AND PUSH20 0xFFFFFFFFFFFFFFFFFFFFFFFFFFFFFFFFFFFFFFFF AND DUP2 MSTORE PUSH1 0x20 ADD PUSH1 0x1 DUP3 ADD SLOAD DUP2 MSTORE PUSH1 0x20 ADD PUSH1 0x2 DUP3 ADD SLOAD DUP2 MSTORE PUSH1 0x20 ADD PUSH1 0x3 DUP3 ADD PUSH1 0x0 SWAP1 SLOAD SWAP1 PUSH2 0x100 EXP SWAP1 DIV PUSH1 0xFF AND PUSH1 0x1 DUP2 GT ISZERO PUSH2 0x787 JUMPI INVALID JUMPDEST PUSH1 0x1 DUP2 GT ISZERO PUSH2 0x792 JUMPI INVALID JUMPDEST DUP2 MSTORE POP POP CALLER DUP1 PUSH20 0xFFFFFFFFFFFFFFFFFFFFFFFFFFFFFFFFFFFFFFFF AND DUP3 PUSH1 0x0 ADD MLOAD PUSH20 0xFFFFFFFFFFFFFFFFFFFFFFFFFFFFFFFFFFFFFFFF AND EQ PUSH2 0x83C JUMPI PUSH1 0x40 MLOAD PUSH32 0x8C379A000000000000000000000000000000000000000000000000000000000 DUP2 MSTORE PUSH1 0x4 ADD DUP1 DUP1 PUSH1 0x20 ADD DUP3 DUP2 SUB DUP3 MSTORE PUSH1 0xE DUP2 MSTORE PUSH1 0x20 ADD DUP1 PUSH32 0x4E6F7420417574686F7269736564000000000000000000000000000000000000 DUP2 MSTORE POP PUSH1 0x20 ADD SWAP2 POP POP PUSH1 0x40 MLOAD DUP1 SWAP2 SUB SWAP1 REVERT JUMPDEST PUSH1 0x4 DUP5 DUP2 SLOAD DUP2 LT PUSH2 0x849 JUMPI INVALID JUMPDEST SWAP1 PUSH1 0x0 MSTORE PUSH1 0x20 PUSH1 0x0 KECCAK256 SWAP1 PUSH1 0x4 MUL ADD PUSH1 0x0 ADD PUSH1 0x0 SWAP1 SLOAD SWAP1 PUSH2 0x100 EXP SWAP1 DIV PUSH20 0xFFFFFFFFFFFFFFFFFFFFFFFFFFFFFFFFFFFFFFFF AND PUSH20 0xFFFFFFFFFFFFFFFFFFFFFFFFFFFFFFFFFFFFFFFF AND PUSH2 0x8FC PUSH1 0x4 DUP7 DUP2 SLOAD DUP2 LT PUSH2 0x8A1 JUMPI INVALID JUMPDEST SWAP1 PUSH1 0x0 MSTORE PUSH1 0x20 PUSH1 0x0 KECCAK256 SWAP1 PUSH1 0x4 MUL ADD PUSH1 0x1 ADD SLOAD SWAP1 DUP2 ISZERO MUL SWAP1 PUSH1 0x40 MLOAD PUSH1 0x0 PUSH1 0x40 MLOAD DUP1 DUP4 SUB DUP2 DUP6 DUP9 DUP9 CALL SWAP4 POP POP POP POP ISZERO DUP1 ISZERO PUSH2 0x8DE JUMPI RETURNDATASIZE PUSH1 0x0 DUP1 RETURNDATACOPY RETURNDATASIZE PUSH1 0x0 REVERT JUMPDEST POP PUSH1 0x4 DUP5 DUP2 SLOAD DUP2 LT PUSH2 0x8EC JUMPI INVALID JUMPDEST SWAP1 PUSH1 0x0 MSTORE PUSH1 0x20 PUSH1 0x0 KECCAK256 SWAP1 PUSH1 0x4 MUL ADD PUSH1 0x0 DUP1 DUP3 ADD PUSH1 0x0 PUSH2 0x100 EXP DUP2 SLOAD SWAP1 PUSH20 0xFFFFFFFFFFFFFFFFFFFFFFFFFFFFFFFFFFFFFFFF MUL NOT AND SWAP1 SSTORE PUSH1 0x1 DUP3 ADD PUSH1 0x0 SWAP1 SSTORE PUSH1 0x2 DUP3 ADD PUSH1 0x0 SWAP1 SSTORE PUSH1 0x3 DUP3 ADD PUSH1 0x0 PUSH2 0x100 EXP DUP2 SLOAD SWAP1 PUSH1 0xFF MUL NOT AND SWAP1 SSTORE POP POP PUSH32 0x48D3043FFF66C1AEE14954AC5AA463B0297FB08C9B60EE00486FB3387BB58AAC DUP5 PUSH1 0x40 MLOAD DUP1 DUP3 DUP2 MSTORE PUSH1 0x20 ADD SWAP2 POP POP PUSH1 0x40 MLOAD DUP1 SWAP2 SUB SWAP1 LOG1 POP POP POP POP JUMP JUMPDEST PUSH1 0x0 PUSH1 0x3 DUP3 DUP2 SLOAD DUP2 LT PUSH2 0x994 JUMPI INVALID JUMPDEST SWAP1 PUSH1 0x0 MSTORE PUSH1 0x20 PUSH1 0x0 KECCAK256 SWAP1 PUSH1 0x4 MUL ADD PUSH1 0x1 ADD SLOAD SWAP1 POP SWAP2 SWAP1 POP JUMP JUMPDEST PUSH1 0x0 PUSH1 0x4 DUP3 DUP2 SLOAD DUP2 LT PUSH2 0x9BC JUMPI INVALID JUMPDEST SWAP1 PUSH1 0x0 MSTORE PUSH1 0x20 PUSH1 0x0 KECCAK256 SWAP1 PUSH1 0x4 MUL ADD PUSH1 0x3 ADD PUSH1 0x0 SWAP1 SLOAD SWAP1 PUSH2 0x100 EXP SWAP1 DIV PUSH1 0xFF AND SWAP1 POP SWAP2 SWAP1 POP JUMP JUMPDEST PUSH1 0x0 PUSH1 0x3 DUP3 DUP2 SLOAD DUP2 LT PUSH2 0x9F1 JUMPI INVALID JUMPDEST SWAP1 PUSH1 0x0 MSTORE PUSH1 0x20 PUSH1 0x0 KECCAK256 SWAP1 PUSH1 0x4 MUL ADD PUSH1 0x0 ADD PUSH1 0x0 SWAP1 SLOAD SWAP1 PUSH2 0x100 EXP SWAP1 DIV PUSH20 0xFFFFFFFFFFFFFFFFFFFFFFFFFFFFFFFFFFFFFFFF AND SWAP1 POP SWAP2 SWAP1 POP JUMP JUMPDEST PUSH1 0x0 PUSH1 0x4 DUP3 DUP2 SLOAD DUP2 LT PUSH2 0xA39 JUMPI INVALID JUMPDEST SWAP1 PUSH1 0x0 MSTORE PUSH1 0x20 PUSH1 0x0 KECCAK256 SWAP1 PUSH1 0x4 MUL ADD PUSH1 0x0 ADD PUSH1 0x0 SWAP1 SLOAD SWAP1 PUSH2 0x100 EXP SWAP1 DIV PUSH20 0xFFFFFFFFFFFFFFFFFFFFFFFFFFFFFFFFFFFFFFFF AND SWAP1 POP SWAP2 SWAP1 POP JUMP JUMPDEST PUSH1 0x0 DUP2 LT ISZERO PUSH2 0xAE9 JUMPI PUSH1 0x40 MLOAD PUSH32 0x8C379A000000000000000000000000000000000000000000000000000000000 DUP2 MSTORE PUSH1 0x4 ADD DUP1 DUP1 PUSH1 0x20 ADD DUP3 DUP2 SUB DUP3 MSTORE PUSH1 0x1F DUP2 MSTORE PUSH1 0x20 ADD DUP1 PUSH32 0x70726963652076616C7565206D757374206265206D6F7265207468616E203000 DUP2 MSTORE POP PUSH1 0x20 ADD SWAP2 POP POP PUSH1 0x40 MLOAD DUP1 SWAP2 SUB SWAP1 REVERT JUMPDEST DUP1 CALLVALUE LT ISZERO PUSH2 0xB5F JUMPI PUSH1 0x40 MLOAD PUSH32 0x8C379A000000000000000000000000000000000000000000000000000000000 DUP2 MSTORE PUSH1 0x4 ADD DUP1 DUP1 PUSH1 0x20 ADD DUP3 DUP2 SUB DUP3 MSTORE PUSH1 0x1E DUP2 MSTORE PUSH1 0x20 ADD DUP1 PUSH32 0x4E6F7420656E6F75676820626C616E636520746F20706C6163652061736B0000 DUP2 MSTORE POP PUSH1 0x20 ADD SWAP2 POP POP PUSH1 0x40 MLOAD DUP1 SWAP2 SUB SWAP1 REVERT JUMPDEST PUSH1 0x0 TIMESTAMP SWAP1 POP PUSH1 0x0 PUSH1 0x64 PUSH1 0x2 SLOAD PUSH1 0x64 SUB CALLVALUE MUL DUP2 PUSH2 0xB77 JUMPI INVALID JUMPDEST DIV SWAP1 POP PUSH2 0xB82 PUSH2 0x15EB JUMP JUMPDEST PUSH1 0x40 MLOAD DUP1 PUSH1 0x80 ADD PUSH1 0x40 MSTORE DUP1 CALLER PUSH20 0xFFFFFFFFFFFFFFFFFFFFFFFFFFFFFFFFFFFFFFFF AND DUP2 MSTORE PUSH1 0x20 ADD DUP4 DUP2 MSTORE PUSH1 0x20 ADD DUP5 DUP2 MSTORE PUSH1 0x20 ADD PUSH1 0x0 PUSH1 0x1 DUP2 GT ISZERO PUSH2 0xBC2 JUMPI INVALID JUMPDEST DUP2 MSTORE POP SWAP1 POP PUSH1 0x4 DUP2 SWAP1 DUP1 PUSH1 0x1 DUP2 SLOAD ADD DUP1 DUP3 SSTORE DUP1 SWAP2 POP POP PUSH1 0x1 SWAP1 SUB SWAP1 PUSH1 0x0 MSTORE PUSH1 0x20 PUSH1 0x0 KECCAK256 SWAP1 PUSH1 0x4 MUL ADD PUSH1 0x0 SWAP1 SWAP2 SWAP1 SWAP2 SWAP1 SWAP2 POP PUSH1 0x0 DUP3 ADD MLOAD DUP2 PUSH1 0x0 ADD PUSH1 0x0 PUSH2 0x100 EXP DUP2 SLOAD DUP2 PUSH20 0xFFFFFFFFFFFFFFFFFFFFFFFFFFFFFFFFFFFFFFFF MUL NOT AND SWAP1 DUP4 PUSH20 0xFFFFFFFFFFFFFFFFFFFFFFFFFFFFFFFFFFFFFFFF AND MUL OR SWAP1 SSTORE POP PUSH1 0x20 DUP3 ADD MLOAD DUP2 PUSH1 0x1 ADD SSTORE PUSH1 0x40 DUP3 ADD MLOAD DUP2 PUSH1 0x2 ADD SSTORE PUSH1 0x60 DUP3 ADD MLOAD DUP2 PUSH1 0x3 ADD PUSH1 0x0 PUSH2 0x100 EXP DUP2 SLOAD DUP2 PUSH1 0xFF MUL NOT AND SWAP1 DUP4 PUSH1 0x1 DUP2 GT ISZERO PUSH2 0xC72 JUMPI INVALID JUMPDEST MUL OR SWAP1 SSTORE POP POP POP PUSH1 0x1 PUSH1 0x0 SWAP1 SLOAD SWAP1 PUSH2 0x100 EXP SWAP1 DIV PUSH20 0xFFFFFFFFFFFFFFFFFFFFFFFFFFFFFFFFFFFFFFFF AND PUSH20 0xFFFFFFFFFFFFFFFFFFFFFFFFFFFFFFFFFFFFFFFF AND PUSH2 0x8FC DUP4 SWAP1 DUP2 ISZERO MUL SWAP1 PUSH1 0x40 MLOAD PUSH1 0x0 PUSH1 0x40 MLOAD DUP1 DUP4 SUB DUP2 DUP6 DUP9 DUP9 CALL SWAP4 POP POP POP POP ISZERO DUP1 ISZERO PUSH2 0xCE1 JUMPI RETURNDATASIZE PUSH1 0x0 DUP1 RETURNDATACOPY RETURNDATASIZE PUSH1 0x0 REVERT JUMPDEST POP PUSH32 0xC2125A7F3EDFEFF7A3BBCFE393C5AA3A6589585D4A7EE70DB48C34F67C8209E2 CALLER DUP4 DUP6 PUSH1 0x0 PUSH1 0x40 MLOAD DUP1 DUP6 PUSH20 0xFFFFFFFFFFFFFFFFFFFFFFFFFFFFFFFFFFFFFFFF AND DUP2 MSTORE PUSH1 0x20 ADD DUP5 DUP2 MSTORE PUSH1 0x20 ADD DUP4 DUP2 MSTORE PUSH1 0x20 ADD DUP3 PUSH1 0x1 DUP2 GT ISZERO PUSH2 0xD40 JUMPI INVALID JUMPDEST DUP2 MSTORE PUSH1 0x20 ADD SWAP5 POP POP POP POP POP PUSH1 0x40 MLOAD DUP1 SWAP2 SUB SWAP1 LOG1 POP POP POP POP JUMP JUMPDEST PUSH1 0x3 DUP2 DUP2 SLOAD DUP2 LT PUSH2 0xD66 JUMPI INVALID JUMPDEST SWAP1 PUSH1 0x0 MSTORE PUSH1 0x20 PUSH1 0x0 KECCAK256 SWAP1 PUSH1 0x4 MUL ADD PUSH1 0x40 MLOAD DUP1 PUSH1 0x80 ADD PUSH1 0x40 MSTORE SWAP1 DUP2 PUSH1 0x0 DUP3 ADD PUSH1 0x0 SWAP1 SLOAD SWAP1 PUSH2 0x100 EXP SWAP1 DIV PUSH20 0xFFFFFFFFFFFFFFFFFFFFFFFFFFFFFFFFFFFFFFFF AND PUSH20 0xFFFFFFFFFFFFFFFFFFFFFFFFFFFFFFFFFFFFFFFF AND PUSH20 0xFFFFFFFFFFFFFFFFFFFFFFFFFFFFFFFFFFFFFFFF AND DUP2 MSTORE PUSH1 0x20 ADD PUSH1 0x1 DUP3 ADD SLOAD DUP2 MSTORE PUSH1 0x20 ADD PUSH1 0x2 DUP3 ADD SLOAD DUP2 MSTORE PUSH1 0x20 ADD PUSH1 0x3 DUP3 ADD PUSH1 0x0 SWAP1 SLOAD SWAP1 PUSH2 0x100 EXP SWAP1 DIV PUSH1 0xFF AND PUSH1 0x1 DUP2 GT ISZERO PUSH2 0xE07 JUMPI INVALID JUMPDEST PUSH1 0x1 DUP2 GT ISZERO PUSH2 0xE12 JUMPI INVALID JUMPDEST DUP2 MSTORE POP POP PUSH1 0x0 PUSH1 0x1 DUP2 GT ISZERO PUSH2 0xE23 JUMPI INVALID JUMPDEST DUP2 PUSH1 0x60 ADD MLOAD PUSH1 0x1 DUP2 GT ISZERO PUSH2 0xE33 JUMPI INVALID JUMPDEST EQ PUSH2 0xEA6 JUMPI PUSH1 0x40 MLOAD PUSH32 0x8C379A000000000000000000000000000000000000000000000000000000000 DUP2 MSTORE PUSH1 0x4 ADD DUP1 DUP1 PUSH1 0x20 ADD DUP3 DUP2 SUB DUP3 MSTORE PUSH1 0xD DUP2 MSTORE PUSH1 0x20 ADD DUP1 PUSH32 0x4F726465722050656E64696E6700000000000000000000000000000000000000 DUP2 MSTORE POP PUSH1 0x20 ADD SWAP2 POP POP PUSH1 0x40 MLOAD DUP1 SWAP2 SUB SWAP1 REVERT JUMPDEST PUSH1 0x3 DUP3 DUP2 SLOAD DUP2 LT PUSH2 0xEB3 JUMPI INVALID JUMPDEST SWAP1 PUSH1 0x0 MSTORE PUSH1 0x20 PUSH1 0x0 KECCAK256 SWAP1 PUSH1 0x4 MUL ADD PUSH1 0x40 MLOAD DUP1 PUSH1 0x80 ADD PUSH1 0x40 MSTORE SWAP1 DUP2 PUSH1 0x0 DUP3 ADD PUSH1 0x0 SWAP1 SLOAD SWAP1 PUSH2 0x100 EXP SWAP1 DIV PUSH20 0xFFFFFFFFFFFFFFFFFFFFFFFFFFFFFFFFFFFFFFFF AND PUSH20 0xFFFFFFFFFFFFFFFFFFFFFFFFFFFFFFFFFFFFFFFF AND PUSH20 0xFFFFFFFFFFFFFFFFFFFFFFFFFFFFFFFFFFFFFFFF AND DUP2 MSTORE PUSH1 0x20 ADD PUSH1 0x1 DUP3 ADD SLOAD DUP2 MSTORE PUSH1 0x20 ADD PUSH1 0x2 DUP3 ADD SLOAD DUP2 MSTORE PUSH1 0x20 ADD PUSH1 0x3 DUP3 ADD PUSH1 0x0 SWAP1 SLOAD SWAP1 PUSH2 0x100 EXP SWAP1 DIV PUSH1 0xFF AND PUSH1 0x1 DUP2 GT ISZERO PUSH2 0xF54 JUMPI INVALID JUMPDEST PUSH1 0x1 DUP2 GT ISZERO PUSH2 0xF5F JUMPI INVALID JUMPDEST DUP2 MSTORE POP POP CALLER DUP1 PUSH20 0xFFFFFFFFFFFFFFFFFFFFFFFFFFFFFFFFFFFFFFFF AND DUP3 PUSH1 0x0 ADD MLOAD PUSH20 0xFFFFFFFFFFFFFFFFFFFFFFFFFFFFFFFFFFFFFFFF AND EQ PUSH2 0x1009 JUMPI PUSH1 0x40 MLOAD PUSH32 0x8C379A000000000000000000000000000000000000000000000000000000000 DUP2 MSTORE PUSH1 0x4 ADD DUP1 DUP1 PUSH1 0x20 ADD DUP3 DUP2 SUB DUP3 MSTORE PUSH1 0xE DUP2 MSTORE PUSH1 0x20 ADD DUP1 PUSH32 0x4E6F7420417574686F7269736564000000000000000000000000000000000000 DUP2 MSTORE POP PUSH1 0x20 ADD SWAP2 POP POP PUSH1 0x40 MLOAD DUP1 SWAP2 SUB SWAP1 REVERT JUMPDEST PUSH1 0x3 DUP5 DUP2 SLOAD DUP2 LT PUSH2 0x1016 JUMPI INVALID JUMPDEST SWAP1 PUSH1 0x0 MSTORE PUSH1 0x20 PUSH1 0x0 KECCAK256 SWAP1 PUSH1 0x4 MUL ADD PUSH1 0x0 ADD PUSH1 0x0 SWAP1 SLOAD SWAP1 PUSH2 0x100 EXP SWAP1 DIV PUSH20 0xFFFFFFFFFFFFFFFFFFFFFFFFFFFFFFFFFFFFFFFF AND PUSH20 0xFFFFFFFFFFFFFFFFFFFFFFFFFFFFFFFFFFFFFFFF AND PUSH2 0x8FC PUSH1 0x3 DUP7 DUP2 SLOAD DUP2 LT PUSH2 0x106E JUMPI INVALID JUMPDEST SWAP1 PUSH1 0x0 MSTORE PUSH1 0x20 PUSH1 0x0 KECCAK256 SWAP1 PUSH1 0x4 MUL ADD PUSH1 0x1 ADD SLOAD SWAP1 DUP2 ISZERO MUL SWAP1 PUSH1 0x40 MLOAD PUSH1 0x0 PUSH1 0x40 MLOAD DUP1 DUP4 SUB DUP2 DUP6 DUP9 DUP9 CALL SWAP4 POP POP POP POP ISZERO DUP1 ISZERO PUSH2 0x10AB JUMPI RETURNDATASIZE PUSH1 0x0 DUP1 RETURNDATACOPY RETURNDATASIZE PUSH1 0x0 REVERT JUMPDEST POP PUSH1 0x3 DUP5 DUP2 SLOAD DUP2 LT PUSH2 0x10B9 JUMPI INVALID JUMPDEST SWAP1 PUSH1 0x0 MSTORE PUSH1 0x20 PUSH1 0x0 KECCAK256 SWAP1 PUSH1 0x4 MUL ADD PUSH1 0x0 DUP1 DUP3 ADD PUSH1 0x0 PUSH2 0x100 EXP DUP2 SLOAD SWAP1 PUSH20 0xFFFFFFFFFFFFFFFFFFFFFFFFFFFFFFFFFFFFFFFF MUL NOT AND SWAP1 SSTORE PUSH1 0x1 DUP3 ADD PUSH1 0x0 SWAP1 SSTORE PUSH1 0x2 DUP3 ADD PUSH1 0x0 SWAP1 SSTORE PUSH1 0x3 DUP3 ADD PUSH1 0x0 PUSH2 0x100 EXP DUP2 SLOAD SWAP1 PUSH1 0xFF MUL NOT AND SWAP1 SSTORE POP POP PUSH32 0xC845A6832AFA0A4048DD70BBBA2186093508A6B63A8D5D70A508F819FEF257F8 DUP5 PUSH1 0x40 MLOAD DUP1 DUP3 DUP2 MSTORE PUSH1 0x20 ADD SWAP2 POP POP PUSH1 0x40 MLOAD DUP1 SWAP2 SUB SWAP1 LOG1 POP POP POP POP JUMP JUMPDEST PUSH1 0x0 DUP2 LT ISZERO PUSH2 0x11C9 JUMPI PUSH1 0x40 MLOAD PUSH32 0x8C379A000000000000000000000000000000000000000000000000000000000 DUP2 MSTORE PUSH1 0x4 ADD DUP1 DUP1 PUSH1 0x20 ADD DUP3 DUP2 SUB DUP3 MSTORE PUSH1 0x1F DUP2 MSTORE PUSH1 0x20 ADD DUP1 PUSH32 0x70726963652076616C7565206D757374206265206D6F7265207468616E203000 DUP2 MSTORE POP PUSH1 0x20 ADD SWAP2 POP POP PUSH1 0x40 MLOAD DUP1 SWAP2 SUB SWAP1 REVERT JUMPDEST DUP1 CALLVALUE LT ISZERO PUSH2 0x123F JUMPI PUSH1 0x40 MLOAD PUSH32 0x8C379A000000000000000000000000000000000000000000000000000000000 DUP2 MSTORE PUSH1 0x4 ADD DUP1 DUP1 PUSH1 0x20 ADD DUP3 DUP2 SUB DUP3 MSTORE PUSH1 0x1E DUP2 MSTORE PUSH1 0x20 ADD DUP1 PUSH32 0x4E6F7420656E6F75676820626C616E636520746F20706C616365206269640000 DUP2 MSTORE POP PUSH1 0x20 ADD SWAP2 POP POP PUSH1 0x40 MLOAD DUP1 SWAP2 SUB SWAP1 REVERT JUMPDEST PUSH1 0x0 TIMESTAMP SWAP1 POP PUSH1 0x0 PUSH1 0x64 PUSH1 0x2 SLOAD PUSH1 0x64 SUB CALLVALUE MUL DUP2 PUSH2 0x1257 JUMPI INVALID JUMPDEST DIV SWAP1 POP PUSH2 0x1262 PUSH2 0x15EB JUMP JUMPDEST PUSH1 0x40 MLOAD DUP1 PUSH1 0x80 ADD PUSH1 0x40 MSTORE DUP1 CALLER PUSH20 0xFFFFFFFFFFFFFFFFFFFFFFFFFFFFFFFFFFFFFFFF AND DUP2 MSTORE PUSH1 0x20 ADD DUP4 DUP2 MSTORE PUSH1 0x20 ADD DUP5 DUP2 MSTORE PUSH1 0x20 ADD PUSH1 0x0 PUSH1 0x1 DUP2 GT ISZERO PUSH2 0x12A2 JUMPI INVALID JUMPDEST DUP2 MSTORE POP SWAP1 POP PUSH1 0x3 DUP2 SWAP1 DUP1 PUSH1 0x1 DUP2 SLOAD ADD DUP1 DUP3 SSTORE DUP1 SWAP2 POP POP PUSH1 0x1 SWAP1 SUB SWAP1 PUSH1 0x0 MSTORE PUSH1 0x20 PUSH1 0x0 KECCAK256 SWAP1 PUSH1 0x4 MUL ADD PUSH1 0x0 SWAP1 SWAP2 SWAP1 SWAP2 SWAP1 SWAP2 POP PUSH1 0x0 DUP3 ADD MLOAD DUP2 PUSH1 0x0 ADD PUSH1 0x0 PUSH2 0x100 EXP DUP2 SLOAD DUP2 PUSH20 0xFFFFFFFFFFFFFFFFFFFFFFFFFFFFFFFFFFFFFFFF MUL NOT AND SWAP1 DUP4 PUSH20 0xFFFFFFFFFFFFFFFFFFFFFFFFFFFFFFFFFFFFFFFF AND MUL OR SWAP1 SSTORE POP PUSH1 0x20 DUP3 ADD MLOAD DUP2 PUSH1 0x1 ADD SSTORE PUSH1 0x40 DUP3 ADD MLOAD DUP2 PUSH1 0x2 ADD SSTORE PUSH1 0x60 DUP3 ADD MLOAD DUP2 PUSH1 0x3 ADD PUSH1 0x0 PUSH2 0x100 EXP DUP2 SLOAD DUP2 PUSH1 0xFF MUL NOT AND SWAP1 DUP4 PUSH1 0x1 DUP2 GT ISZERO PUSH2 0x1352 JUMPI INVALID JUMPDEST MUL OR SWAP1 SSTORE POP POP POP PUSH1 0x1 PUSH1 0x0 SWAP1 SLOAD SWAP1 PUSH2 0x100 EXP SWAP1 DIV PUSH20 0xFFFFFFFFFFFFFFFFFFFFFFFFFFFFFFFFFFFFFFFF AND PUSH20 0xFFFFFFFFFFFFFFFFFFFFFFFFFFFFFFFFFFFFFFFF AND PUSH2 0x8FC DUP4 SWAP1 DUP2 ISZERO MUL SWAP1 PUSH1 0x40 MLOAD PUSH1 0x0 PUSH1 0x40 MLOAD DUP1 DUP4 SUB DUP2 DUP6 DUP9 DUP9 CALL SWAP4 POP POP POP POP ISZERO DUP1 ISZERO PUSH2 0x13C1 JUMPI RETURNDATASIZE PUSH1 0x0 DUP1 RETURNDATACOPY RETURNDATASIZE PUSH1 0x0 REVERT JUMPDEST POP PUSH32 0xA64806D6D5D480697A0B11C92B915A4FF7B93C0BE28171D65D30041A0C360D04 CALLER DUP4 DUP6 PUSH1 0x0 PUSH1 0x40 MLOAD DUP1 DUP6 PUSH20 0xFFFFFFFFFFFFFFFFFFFFFFFFFFFFFFFFFFFFFFFF AND DUP2 MSTORE PUSH1 0x20 ADD DUP5 DUP2 MSTORE PUSH1 0x20 ADD DUP4 DUP2 MSTORE PUSH1 0x20 ADD DUP3 PUSH1 0x1 DUP2 GT ISZERO PUSH2 0x1420 JUMPI INVALID JUMPDEST DUP2 MSTORE PUSH1 0x20 ADD SWAP5 POP POP POP POP POP PUSH1 0x40 MLOAD DUP1 SWAP2 SUB SWAP1 LOG1 POP POP POP POP JUMP JUMPDEST PUSH1 0x0 PUSH1 0x3 DUP3 DUP2 SLOAD DUP2 LT PUSH2 0x1448 JUMPI INVALID JUMPDEST SWAP1 PUSH1 0x0 MSTORE PUSH1 0x20 PUSH1 0x0 KECCAK256 SWAP1 PUSH1 0x4 MUL ADD PUSH1 0x3 ADD PUSH1 0x0 SWAP1 SLOAD SWAP1 PUSH2 0x100 EXP SWAP1 DIV PUSH1 0xFF AND SWAP1 POP SWAP2 SWAP1 POP JUMP JUMPDEST PUSH1 0x60 PUSH2 0x1478 PUSH2 0x15B0 JUMP JUMPDEST PUSH1 0x0 JUMPDEST PUSH1 0x3 DUP1 SLOAD SWAP1 POP DUP2 LT ISZERO PUSH2 0x1531 JUMPI CALLER PUSH20 0xFFFFFFFFFFFFFFFFFFFFFFFFFFFFFFFFFFFFFFFF AND PUSH1 0x3 DUP3 DUP2 SLOAD DUP2 LT PUSH2 0x14AC JUMPI INVALID JUMPDEST SWAP1 PUSH1 0x0 MSTORE PUSH1 0x20 PUSH1 0x0 KECCAK256 SWAP1 PUSH1 0x4 MUL ADD PUSH1 0x0 ADD PUSH1 0x0 SWAP1 SLOAD SWAP1 PUSH2 0x100 EXP SWAP1 DIV PUSH20 0xFFFFFFFFFFFFFFFFFFFFFFFFFFFFFFFFFFFFFFFF AND PUSH20 0xFFFFFFFFFFFFFFFFFFFFFFFFFFFFFFFFFFFFFFFF AND EQ ISZERO PUSH2 0x1524 JUMPI PUSH1 0x5 DUP2 SWAP1 DUP1 PUSH1 0x1 DUP2 SLOAD ADD DUP1 DUP3 SSTORE DUP1 SWAP2 POP POP PUSH1 0x1 SWAP1 SUB SWAP1 PUSH1 0x0 MSTORE PUSH1 0x20 PUSH1 0x0 KECCAK256 ADD PUSH1 0x0 SWAP1 SWAP2 SWAP1 SWAP2 SWAP1 SWAP2 POP SSTORE JUMPDEST DUP1 DUP1 PUSH1 0x1 ADD SWAP2 POP POP PUSH2 0x147B JUMP JUMPDEST POP PUSH1 0x5 DUP1 SLOAD DUP1 PUSH1 0x20 MUL PUSH1 0x20 ADD PUSH1 0x40 MLOAD SWAP1 DUP2 ADD PUSH1 0x40 MSTORE DUP1 SWAP3 SWAP2 SWAP1 DUP2 DUP2 MSTORE PUSH1 0x20 ADD DUP3 DUP1 SLOAD DUP1 ISZERO PUSH2 0x157E JUMPI PUSH1 0x20 MUL DUP3 ADD SWAP2 SWAP1 PUSH1 0x0 MSTORE PUSH1 0x20 PUSH1 0x0 KECCAK256 SWAP1 JUMPDEST DUP2 SLOAD DUP2 MSTORE PUSH1 0x20 ADD SWAP1 PUSH1 0x1 ADD SWAP1 DUP1 DUP4 GT PUSH2 0x156A JUMPI JUMPDEST POP POP POP POP POP SWAP1 POP SWAP1 JUMP JUMPDEST PUSH1 0x0 PUSH1 0x4 DUP3 DUP2 SLOAD DUP2 LT PUSH2 0x1597 JUMPI INVALID JUMPDEST SWAP1 PUSH1 0x0 MSTORE PUSH1 0x20 PUSH1 0x0 KECCAK256 SWAP1 PUSH1 0x4 MUL ADD PUSH1 0x1 ADD SLOAD SWAP1 POP SWAP2 SWAP1 POP JUMP JUMPDEST PUSH1 0x0 JUMPDEST PUSH1 0x5 DUP1 SLOAD SWAP1 POP DUP2 LT ISZERO PUSH2 0x15E8 JUMPI PUSH1 0x5 DUP2 DUP2 SLOAD DUP2 LT PUSH2 0x15CD JUMPI INVALID JUMPDEST SWAP1 PUSH1 0x0 MSTORE PUSH1 0x20 PUSH1 0x0 KECCAK256 ADD PUSH1 0x0 SWAP1 SSTORE DUP1 DUP1 PUSH1 0x1 ADD SWAP2 POP POP PUSH2 0x15B3 JUMP JUMPDEST POP JUMP JUMPDEST PUSH1 0x40 MLOAD DUP1 PUSH1 0x80 ADD PUSH1 0x40 MSTORE DUP1 PUSH1 0x0 PUSH20 0xFFFFFFFFFFFFFFFFFFFFFFFFFFFFFFFFFFFFFFFF AND DUP2 MSTORE PUSH1 0x20 ADD PUSH1 0x0 DUP2 MSTORE PUSH1 0x20 ADD PUSH1 0x0 DUP2 MSTORE PUSH1 0x20 ADD PUSH1 0x0 PUSH1 0x1 DUP2 GT ISZERO PUSH2 0x162E JUMPI INVALID JUMPDEST DUP2 MSTORE POP SWAP1 JUMP INVALID LOG2 PUSH5 0x6970667358 0x22 SLT KECCAK256 0xDB DUP1 0xA7 0xD6 DUP6 BYTE PUSH23 0x330A3F1D40C5B44DC953E5402F9B2C8DBAA1A20187EBD4 0xC8 SWAP3 PUSH5 0x736F6C6343 STOP MOD 0xC STOP CALLER "
				},
				"gasEstimates": {
					"creation": {
						"codeDepositCost": "1147600",
						"executionCost": "infinite",
						"totalCost": "infinite"
					},
					"external": {
						"cancelAsk(uint256)": "infinite",
						"cancelBid(uint256)": "infinite",
						"fetchYourAskIds()": "infinite",
						"fetchYourBidIds()": "infinite",
						"getAskAddress(uint256)": "2150",
						"getAskState(uint256)": "2126",
						"getAskValue(uint256)": "2107",
						"getBidAddress(uint256)": "2128",
						"getBidState(uint256)": "2125",
						"getBidValue(uint256)": "2042",
						"placeAsk(uint256)": "infinite",
						"placeBid(uint256)": "infinite"
					},
					"internal": {
						"deleteArray()": "infinite"
					}
				},
				"methodIdentifiers": {
					"cancelAsk(uint256)": "1628e0f5",
					"cancelBid(uint256)": "9703ef35",
					"fetchYourAskIds()": "122de8f2",
					"fetchYourBidIds()": "ce0cdc87",
					"getAskAddress(uint256)": "734a2e78",
					"getAskState(uint256)": "4d46712d",
					"getAskValue(uint256)": "db3a1396",
					"getBidAddress(uint256)": "69f632e2",
					"getBidState(uint256)": "bf77ffae",
					"getBidValue(uint256)": "2db6dfa7",
					"placeAsk(uint256)": "78c5b268",
					"placeBid(uint256)": "9979ef45"
				}
			},
			"storageLayout": {
				"storage": [
					{
						"astId": 8,
						"contract": "contracts/OrderBook.sol:OrderBook",
						"label": "bidValues",
						"offset": 0,
						"slot": "0",
						"type": "t_mapping(t_uint256,t_uint256)"
					},
					{
						"astId": 15,
						"contract": "contracts/OrderBook.sol:OrderBook",
						"label": "_owner",
						"offset": 0,
						"slot": "1",
						"type": "t_address_payable"
					},
					{
						"astId": 17,
						"contract": "contracts/OrderBook.sol:OrderBook",
						"label": "commission",
						"offset": 0,
						"slot": "2",
						"type": "t_uint256"
					},
					{
						"astId": 39,
						"contract": "contracts/OrderBook.sol:OrderBook",
						"label": "bidBook",
						"offset": 0,
						"slot": "3",
						"type": "t_array(t_struct(order)36_storage)dyn_storage"
					},
					{
						"astId": 42,
						"contract": "contracts/OrderBook.sol:OrderBook",
						"label": "askBook",
						"offset": 0,
						"slot": "4",
						"type": "t_array(t_struct(order)36_storage)dyn_storage"
					},
					{
						"astId": 45,
						"contract": "contracts/OrderBook.sol:OrderBook",
						"label": "request",
						"offset": 0,
						"slot": "5",
						"type": "t_array(t_uint256)dyn_storage"
					}
				],
				"types": {
					"t_address_payable": {
						"encoding": "inplace",
						"label": "address payable",
						"numberOfBytes": "20"
					},
					"t_array(t_struct(order)36_storage)dyn_storage": {
						"base": "t_struct(order)36_storage",
						"encoding": "dynamic_array",
						"label": "struct OrderBook.order[]",
						"numberOfBytes": "32"
					},
					"t_array(t_uint256)dyn_storage": {
						"base": "t_uint256",
						"encoding": "dynamic_array",
						"label": "uint256[]",
						"numberOfBytes": "32"
					},
					"t_enum(State)4": {
						"encoding": "inplace",
						"label": "enum OrderBook.State",
						"numberOfBytes": "1"
					},
					"t_mapping(t_uint256,t_uint256)": {
						"encoding": "mapping",
						"key": "t_uint256",
						"label": "mapping(uint256 => uint256)",
						"numberOfBytes": "32",
						"value": "t_uint256"
					},
					"t_struct(order)36_storage": {
						"encoding": "inplace",
						"label": "struct OrderBook.order",
						"members": [
							{
								"astId": 29,
								"contract": "contracts/OrderBook.sol:OrderBook",
								"label": "customer",
								"offset": 0,
								"slot": "0",
								"type": "t_address_payable"
							},
							{
								"astId": 31,
								"contract": "contracts/OrderBook.sol:OrderBook",
								"label": "value",
								"offset": 0,
								"slot": "1",
								"type": "t_uint256"
							},
							{
								"astId": 33,
								"contract": "contracts/OrderBook.sol:OrderBook",
								"label": "timestamp",
								"offset": 0,
								"slot": "2",
								"type": "t_uint256"
							},
							{
								"astId": 35,
								"contract": "contracts/OrderBook.sol:OrderBook",
								"label": "state",
								"offset": 0,
								"slot": "3",
								"type": "t_enum(State)4"
							}
						],
						"numberOfBytes": "128"
					},
					"t_uint256": {
						"encoding": "inplace",
						"label": "uint256",
						"numberOfBytes": "32"
					}
				}
			},
			"userdoc": {
				"kind": "user",
				"methods": {},
				"version": 1
			}
		}
	}
}