{
	"contracts/OrderBook.sol": {
		"OrderBook": {
			"abi": [
				{
					"inputs": [
						{
							"internalType": "uint256",
							"name": "askId",
							"type": "uint256"
						}
					],
					"name": "cancelAsk",
					"outputs": [],
					"stateMutability": "nonpayable",
					"type": "function"
				},
				{
					"inputs": [
						{
							"internalType": "uint256",
							"name": "bidId",
							"type": "uint256"
						}
					],
					"name": "cancelBid",
					"outputs": [],
					"stateMutability": "nonpayable",
					"type": "function"
				},
				{
					"inputs": [],
					"name": "fetchYourAskIds",
					"outputs": [
						{
							"internalType": "uint256[]",
							"name": "",
							"type": "uint256[]"
						}
					],
					"stateMutability": "nonpayable",
					"type": "function"
				},
				{
					"inputs": [],
					"name": "fetchYourBidIds",
					"outputs": [
						{
							"internalType": "uint256[]",
							"name": "",
							"type": "uint256[]"
						}
					],
					"stateMutability": "nonpayable",
					"type": "function"
				},
				{
					"inputs": [
						{
							"internalType": "uint256",
							"name": "price",
							"type": "uint256"
						}
					],
					"name": "placeAsk",
					"outputs": [],
					"stateMutability": "nonpayable",
					"type": "function"
				},
				{
					"inputs": [
						{
							"internalType": "uint256",
							"name": "price",
							"type": "uint256"
						}
					],
					"name": "placeBid",
					"outputs": [],
					"stateMutability": "nonpayable",
					"type": "function"
				}
			],
			"devdoc": {
				"kind": "dev",
				"methods": {},
				"version": 1
			},
			"evm": {
				"assembly": "    /* \"contracts/OrderBook.sol\":730:3964  contract OrderBook {... */\n  mstore(0x40, 0x80)\n  callvalue\n  dup1\n  iszero\n  tag_1\n  jumpi\n  0x00\n  dup1\n  revert\ntag_1:\n  pop\n  dataSize(sub_0)\n  dup1\n  dataOffset(sub_0)\n  0x00\n  codecopy\n  0x00\n  return\nstop\n\nsub_0: assembly {\n        /* \"contracts/OrderBook.sol\":730:3964  contract OrderBook {... */\n      mstore(0x40, 0x80)\n      callvalue\n      dup1\n      iszero\n      tag_1\n      jumpi\n      0x00\n      dup1\n      revert\n    tag_1:\n      pop\n      jumpi(tag_2, lt(calldatasize, 0x04))\n      shr(0xe0, calldataload(0x00))\n      dup1\n      0x122de8f2\n      eq\n      tag_3\n      jumpi\n      dup1\n      0x1628e0f5\n      eq\n      tag_4\n      jumpi\n      dup1\n      0x78c5b268\n      eq\n      tag_5\n      jumpi\n      dup1\n      0x9703ef35\n      eq\n      tag_6\n      jumpi\n      dup1\n      0x9979ef45\n      eq\n      tag_7\n      jumpi\n      dup1\n      0xce0cdc87\n      eq\n      tag_8\n      jumpi\n    tag_2:\n      0x00\n      dup1\n      revert\n        /* \"contracts/OrderBook.sol\":3678:3961  function fetchYourAskIds() public returns (uint[] memory) {... */\n    tag_3:\n      tag_9\n      tag_10\n      jump\t// in\n    tag_9:\n      mload(0x40)\n      tag_11\n      swap2\n      swap1\n      tag_12\n      jump\t// in\n    tag_11:\n      mload(0x40)\n      dup1\n      swap2\n      sub\n      swap1\n      return\n        /* \"contracts/OrderBook.sol\":3198:3303  function cancelAsk (uint256 askId) public {... */\n    tag_4:\n      tag_13\n      0x04\n      dup1\n      calldatasize\n      sub\n      dup2\n      add\n      swap1\n      tag_14\n      swap2\n      swap1\n      tag_15\n      jump\t// in\n    tag_14:\n      tag_16\n      jump\t// in\n    tag_13:\n      stop\n        /* \"contracts/OrderBook.sol\":3034:3192  function placeAsk (uint256 price) public {... */\n    tag_5:\n      tag_17\n      0x04\n      dup1\n      calldatasize\n      sub\n      dup2\n      add\n      swap1\n      tag_18\n      swap2\n      swap1\n      tag_15\n      jump\t// in\n    tag_18:\n      tag_19\n      jump\t// in\n    tag_17:\n      stop\n        /* \"contracts/OrderBook.sol\":2929:3028  function cancelBid (uint256 bidId) public {... */\n    tag_6:\n      tag_20\n      0x04\n      dup1\n      calldatasize\n      sub\n      dup2\n      add\n      swap1\n      tag_21\n      swap2\n      swap1\n      tag_15\n      jump\t// in\n    tag_21:\n      tag_22\n      jump\t// in\n    tag_20:\n      stop\n        /* \"contracts/OrderBook.sol\":2742:2900  function placeBid (uint256 price) public {... */\n    tag_7:\n      tag_23\n      0x04\n      dup1\n      calldatasize\n      sub\n      dup2\n      add\n      swap1\n      tag_24\n      swap2\n      swap1\n      tag_15\n      jump\t// in\n    tag_24:\n      tag_25\n      jump\t// in\n    tag_23:\n      stop\n        /* \"contracts/OrderBook.sol\":3389:3672  function fetchYourBidIds() public returns (uint[] memory) {... */\n    tag_8:\n      tag_26\n      tag_27\n      jump\t// in\n    tag_26:\n      mload(0x40)\n      tag_28\n      swap2\n      swap1\n      tag_12\n      jump\t// in\n    tag_28:\n      mload(0x40)\n      dup1\n      swap2\n      sub\n      swap1\n      return\n        /* \"contracts/OrderBook.sol\":3678:3961  function fetchYourAskIds() public returns (uint[] memory) {... */\n    tag_10:\n        /* \"contracts/OrderBook.sol\":3721:3734  uint[] memory */\n      0x60\n        /* \"contracts/OrderBook.sol\":3746:3759  deleteArray() */\n      tag_30\n        /* \"contracts/OrderBook.sol\":3746:3757  deleteArray */\n      tag_31\n        /* \"contracts/OrderBook.sol\":3746:3759  deleteArray() */\n      jump\t// in\n    tag_30:\n        /* \"contracts/OrderBook.sol\":3774:3780  uint i */\n      0x00\n        /* \"contracts/OrderBook.sol\":3769:3931  for (uint i = 0; i < askBook.length; i++) {... */\n    tag_32:\n        /* \"contracts/OrderBook.sol\":3790:3797  askBook */\n      0x01\n        /* \"contracts/OrderBook.sol\":3790:3804  askBook.length */\n      dup1\n      sload\n      swap1\n      pop\n        /* \"contracts/OrderBook.sol\":3786:3787  i */\n      dup2\n        /* \"contracts/OrderBook.sol\":3786:3804  i < askBook.length */\n      lt\n        /* \"contracts/OrderBook.sol\":3769:3931  for (uint i = 0; i < askBook.length; i++) {... */\n      iszero\n      tag_33\n      jumpi\n        /* \"contracts/OrderBook.sol\":3860:3870  msg.sender */\n      caller\n        /* \"contracts/OrderBook.sol\":3829:3871  askBook[i].customer == payable(msg.sender) */\n      0xffffffffffffffffffffffffffffffffffffffff\n      and\n        /* \"contracts/OrderBook.sol\":3829:3836  askBook */\n      0x01\n        /* \"contracts/OrderBook.sol\":3837:3838  i */\n      dup3\n        /* \"contracts/OrderBook.sol\":3829:3839  askBook[i] */\n      dup2\n      sload\n      dup2\n      lt\n      tag_35\n      jumpi\n      tag_36\n      tag_37\n      jump\t// in\n    tag_36:\n    tag_35:\n      swap1\n      0x00\n      mstore\n      keccak256(0x00, 0x20)\n      swap1\n      0x03\n      mul\n      add\n        /* \"contracts/OrderBook.sol\":3829:3848  askBook[i].customer */\n      0x00\n      add\n      0x00\n      swap1\n      sload\n      swap1\n      0x0100\n      exp\n      swap1\n      div\n      0xffffffffffffffffffffffffffffffffffffffff\n      and\n        /* \"contracts/OrderBook.sol\":3829:3871  askBook[i].customer == payable(msg.sender) */\n      0xffffffffffffffffffffffffffffffffffffffff\n      and\n      sub\n        /* \"contracts/OrderBook.sol\":3825:3921  if (askBook[i].customer == payable(msg.sender)) {... */\n      tag_39\n      jumpi\n        /* \"contracts/OrderBook.sol\":3891:3898  request */\n      0x02\n        /* \"contracts/OrderBook.sol\":3904:3905  i */\n      dup2\n        /* \"contracts/OrderBook.sol\":3891:3906  request.push(i) */\n      swap1\n      dup1\n      0x01\n      dup2\n      sload\n      add\n      dup1\n      dup3\n      sstore\n      dup1\n      swap2\n      pop\n      pop\n      0x01\n      swap1\n      sub\n      swap1\n      0x00\n      mstore\n      keccak256(0x00, 0x20)\n      add\n      0x00\n      swap1\n      swap2\n      swap1\n      swap2\n      swap1\n      swap2\n      pop\n      sstore\n        /* \"contracts/OrderBook.sol\":3825:3921  if (askBook[i].customer == payable(msg.sender)) {... */\n    tag_39:\n        /* \"contracts/OrderBook.sol\":3806:3809  i++ */\n      dup1\n      dup1\n      tag_41\n      swap1\n      tag_42\n      jump\t// in\n    tag_41:\n      swap2\n      pop\n      pop\n        /* \"contracts/OrderBook.sol\":3769:3931  for (uint i = 0; i < askBook.length; i++) {... */\n      jump(tag_32)\n    tag_33:\n      pop\n        /* \"contracts/OrderBook.sol\":3947:3954  request */\n      0x02\n        /* \"contracts/OrderBook.sol\":3940:3954  return request */\n      dup1\n      sload\n      dup1\n      0x20\n      mul\n      0x20\n      add\n      mload(0x40)\n      swap1\n      dup2\n      add\n      0x40\n      mstore\n      dup1\n      swap3\n      swap2\n      swap1\n      dup2\n      dup2\n      mstore\n      0x20\n      add\n      dup3\n      dup1\n      sload\n      dup1\n      iszero\n      tag_43\n      jumpi\n      0x20\n      mul\n      dup3\n      add\n      swap2\n      swap1\n      0x00\n      mstore\n      keccak256(0x00, 0x20)\n      swap1\n    tag_44:\n      dup2\n      sload\n      dup2\n      mstore\n      0x20\n      add\n      swap1\n      0x01\n      add\n      swap1\n      dup1\n      dup4\n      gt\n      tag_44\n      jumpi\n    tag_43:\n      pop\n      pop\n      pop\n      pop\n      pop\n      swap1\n      pop\n        /* \"contracts/OrderBook.sol\":3678:3961  function fetchYourAskIds() public returns (uint[] memory) {... */\n      swap1\n      jump\t// out\n        /* \"contracts/OrderBook.sol\":3198:3303  function cancelAsk (uint256 askId) public {... */\n    tag_16:\n        /* \"contracts/OrderBook.sol\":3257:3264  askBook */\n      0x01\n        /* \"contracts/OrderBook.sol\":3265:3270  askId */\n      dup2\n        /* \"contracts/OrderBook.sol\":3257:3271  askBook[askId] */\n      dup2\n      sload\n      dup2\n      lt\n      tag_46\n      jumpi\n      tag_47\n      tag_37\n      jump\t// in\n    tag_47:\n    tag_46:\n      swap1\n      0x00\n      mstore\n      keccak256(0x00, 0x20)\n      swap1\n      0x03\n      mul\n      add\n      0x00\n        /* \"contracts/OrderBook.sol\":3250:3271  delete askBook[askId] */\n      dup1\n      dup3\n      add\n      exp(0x0100, 0x00)\n      dup2\n      sload\n      swap1\n      0xffffffffffffffffffffffffffffffffffffffff\n      mul\n      not\n      and\n      swap1\n      sstore\n      0x01\n      dup3\n      add\n      0x00\n      swap1\n      sstore\n      0x02\n      dup3\n      add\n      0x00\n      swap1\n      sstore\n      pop\n      pop\n        /* \"contracts/OrderBook.sol\":3281:3290  sortAsk() */\n      tag_49\n        /* \"contracts/OrderBook.sol\":3281:3288  sortAsk */\n      tag_50\n        /* \"contracts/OrderBook.sol\":3281:3290  sortAsk() */\n      jump\t// in\n    tag_49:\n        /* \"contracts/OrderBook.sol\":3198:3303  function cancelAsk (uint256 askId) public {... */\n      pop\n      jump\t// out\n        /* \"contracts/OrderBook.sol\":3034:3192  function placeAsk (uint256 price) public {... */\n    tag_19:\n        /* \"contracts/OrderBook.sol\":3085:3104  order memory newBid */\n      0x00\n        /* \"contracts/OrderBook.sol\":3107:3155  order(payable(msg.sender),price,block.timestamp) */\n      mload(0x40)\n      dup1\n      0x60\n      add\n      0x40\n      mstore\n      dup1\n        /* \"contracts/OrderBook.sol\":3121:3131  msg.sender */\n      caller\n        /* \"contracts/OrderBook.sol\":3107:3155  order(payable(msg.sender),price,block.timestamp) */\n      0xffffffffffffffffffffffffffffffffffffffff\n      and\n      dup2\n      mstore\n      0x20\n      add\n        /* \"contracts/OrderBook.sol\":3133:3138  price */\n      dup4\n        /* \"contracts/OrderBook.sol\":3107:3155  order(payable(msg.sender),price,block.timestamp) */\n      dup2\n      mstore\n      0x20\n      add\n        /* \"contracts/OrderBook.sol\":3139:3154  block.timestamp */\n      timestamp\n        /* \"contracts/OrderBook.sol\":3107:3155  order(payable(msg.sender),price,block.timestamp) */\n      dup2\n      mstore\n      pop\n        /* \"contracts/OrderBook.sol\":3085:3155  order memory newBid = order(payable(msg.sender),price,block.timestamp) */\n      swap1\n      pop\n        /* \"contracts/OrderBook.sol\":3165:3172  askBook */\n      0x01\n        /* \"contracts/OrderBook.sol\":3178:3184  newBid */\n      dup2\n        /* \"contracts/OrderBook.sol\":3165:3185  askBook.push(newBid) */\n      swap1\n      dup1\n      0x01\n      dup2\n      sload\n      add\n      dup1\n      dup3\n      sstore\n      dup1\n      swap2\n      pop\n      pop\n      0x01\n      swap1\n      sub\n      swap1\n      0x00\n      mstore\n      keccak256(0x00, 0x20)\n      swap1\n      0x03\n      mul\n      add\n      0x00\n      swap1\n      swap2\n      swap1\n      swap2\n      swap1\n      swap2\n      pop\n      0x00\n      dup3\n      add\n      mload\n      dup2\n      0x00\n      add\n      exp(0x0100, 0x00)\n      dup2\n      sload\n      dup2\n      0xffffffffffffffffffffffffffffffffffffffff\n      mul\n      not\n      and\n      swap1\n      dup4\n      0xffffffffffffffffffffffffffffffffffffffff\n      and\n      mul\n      or\n      swap1\n      sstore\n      pop\n      0x20\n      dup3\n      add\n      mload\n      dup2\n      0x01\n      add\n      sstore\n      0x40\n      dup3\n      add\n      mload\n      dup2\n      0x02\n      add\n      sstore\n      pop\n      pop\n        /* \"contracts/OrderBook.sol\":3075:3192  {... */\n      pop\n        /* \"contracts/OrderBook.sol\":3034:3192  function placeAsk (uint256 price) public {... */\n      pop\n      jump\t// out\n        /* \"contracts/OrderBook.sol\":2929:3028  function cancelBid (uint256 bidId) public {... */\n    tag_22:\n        /* \"contracts/OrderBook.sol\":2988:2995  bidBook */\n      0x00\n        /* \"contracts/OrderBook.sol\":2996:3001  bidId */\n      dup2\n        /* \"contracts/OrderBook.sol\":2988:3002  bidBook[bidId] */\n      dup2\n      sload\n      dup2\n      lt\n      tag_54\n      jumpi\n      tag_55\n      tag_37\n      jump\t// in\n    tag_55:\n    tag_54:\n      swap1\n      0x00\n      mstore\n      keccak256(0x00, 0x20)\n      swap1\n      0x03\n      mul\n      add\n      0x00\n        /* \"contracts/OrderBook.sol\":2981:3002  delete bidBook[bidId] */\n      dup1\n      dup3\n      add\n      exp(0x0100, 0x00)\n      dup2\n      sload\n      swap1\n      0xffffffffffffffffffffffffffffffffffffffff\n      mul\n      not\n      and\n      swap1\n      sstore\n      0x01\n      dup3\n      add\n      0x00\n      swap1\n      sstore\n      0x02\n      dup3\n      add\n      0x00\n      swap1\n      sstore\n      pop\n      pop\n        /* \"contracts/OrderBook.sol\":3012:3021  sortBid() */\n      tag_57\n        /* \"contracts/OrderBook.sol\":3012:3019  sortBid */\n      tag_58\n        /* \"contracts/OrderBook.sol\":3012:3021  sortBid() */\n      jump\t// in\n    tag_57:\n        /* \"contracts/OrderBook.sol\":2929:3028  function cancelBid (uint256 bidId) public {... */\n      pop\n      jump\t// out\n        /* \"contracts/OrderBook.sol\":2742:2900  function placeBid (uint256 price) public {... */\n    tag_25:\n        /* \"contracts/OrderBook.sol\":2793:2812  order memory newBid */\n      0x00\n        /* \"contracts/OrderBook.sol\":2815:2863  order(payable(msg.sender),price,block.timestamp) */\n      mload(0x40)\n      dup1\n      0x60\n      add\n      0x40\n      mstore\n      dup1\n        /* \"contracts/OrderBook.sol\":2829:2839  msg.sender */\n      caller\n        /* \"contracts/OrderBook.sol\":2815:2863  order(payable(msg.sender),price,block.timestamp) */\n      0xffffffffffffffffffffffffffffffffffffffff\n      and\n      dup2\n      mstore\n      0x20\n      add\n        /* \"contracts/OrderBook.sol\":2841:2846  price */\n      dup4\n        /* \"contracts/OrderBook.sol\":2815:2863  order(payable(msg.sender),price,block.timestamp) */\n      dup2\n      mstore\n      0x20\n      add\n        /* \"contracts/OrderBook.sol\":2847:2862  block.timestamp */\n      timestamp\n        /* \"contracts/OrderBook.sol\":2815:2863  order(payable(msg.sender),price,block.timestamp) */\n      dup2\n      mstore\n      pop\n        /* \"contracts/OrderBook.sol\":2793:2863  order memory newBid = order(payable(msg.sender),price,block.timestamp) */\n      swap1\n      pop\n        /* \"contracts/OrderBook.sol\":2873:2880  bidBook */\n      0x00\n        /* \"contracts/OrderBook.sol\":2886:2892  newBid */\n      dup2\n        /* \"contracts/OrderBook.sol\":2873:2893  bidBook.push(newBid) */\n      swap1\n      dup1\n      0x01\n      dup2\n      sload\n      add\n      dup1\n      dup3\n      sstore\n      dup1\n      swap2\n      pop\n      pop\n      0x01\n      swap1\n      sub\n      swap1\n      0x00\n      mstore\n      keccak256(0x00, 0x20)\n      swap1\n      0x03\n      mul\n      add\n      0x00\n      swap1\n      swap2\n      swap1\n      swap2\n      swap1\n      swap2\n      pop\n      0x00\n      dup3\n      add\n      mload\n      dup2\n      0x00\n      add\n      exp(0x0100, 0x00)\n      dup2\n      sload\n      dup2\n      0xffffffffffffffffffffffffffffffffffffffff\n      mul\n      not\n      and\n      swap1\n      dup4\n      0xffffffffffffffffffffffffffffffffffffffff\n      and\n      mul\n      or\n      swap1\n      sstore\n      pop\n      0x20\n      dup3\n      add\n      mload\n      dup2\n      0x01\n      add\n      sstore\n      0x40\n      dup3\n      add\n      mload\n      dup2\n      0x02\n      add\n      sstore\n      pop\n      pop\n        /* \"contracts/OrderBook.sol\":2783:2900  {... */\n      pop\n        /* \"contracts/OrderBook.sol\":2742:2900  function placeBid (uint256 price) public {... */\n      pop\n      jump\t// out\n        /* \"contracts/OrderBook.sol\":3389:3672  function fetchYourBidIds() public returns (uint[] memory) {... */\n    tag_27:\n        /* \"contracts/OrderBook.sol\":3432:3445  uint[] memory */\n      0x60\n        /* \"contracts/OrderBook.sol\":3457:3470  deleteArray() */\n      tag_62\n        /* \"contracts/OrderBook.sol\":3457:3468  deleteArray */\n      tag_31\n        /* \"contracts/OrderBook.sol\":3457:3470  deleteArray() */\n      jump\t// in\n    tag_62:\n        /* \"contracts/OrderBook.sol\":3485:3491  uint i */\n      0x00\n        /* \"contracts/OrderBook.sol\":3480:3642  for (uint i = 0; i < bidBook.length; i++) {... */\n    tag_63:\n        /* \"contracts/OrderBook.sol\":3501:3508  bidBook */\n      0x00\n        /* \"contracts/OrderBook.sol\":3501:3515  bidBook.length */\n      dup1\n      sload\n      swap1\n      pop\n        /* \"contracts/OrderBook.sol\":3497:3498  i */\n      dup2\n        /* \"contracts/OrderBook.sol\":3497:3515  i < bidBook.length */\n      lt\n        /* \"contracts/OrderBook.sol\":3480:3642  for (uint i = 0; i < bidBook.length; i++) {... */\n      iszero\n      tag_64\n      jumpi\n        /* \"contracts/OrderBook.sol\":3571:3581  msg.sender */\n      caller\n        /* \"contracts/OrderBook.sol\":3540:3582  bidBook[i].customer == payable(msg.sender) */\n      0xffffffffffffffffffffffffffffffffffffffff\n      and\n        /* \"contracts/OrderBook.sol\":3540:3547  bidBook */\n      0x00\n        /* \"contracts/OrderBook.sol\":3548:3549  i */\n      dup3\n        /* \"contracts/OrderBook.sol\":3540:3550  bidBook[i] */\n      dup2\n      sload\n      dup2\n      lt\n      tag_66\n      jumpi\n      tag_67\n      tag_37\n      jump\t// in\n    tag_67:\n    tag_66:\n      swap1\n      0x00\n      mstore\n      keccak256(0x00, 0x20)\n      swap1\n      0x03\n      mul\n      add\n        /* \"contracts/OrderBook.sol\":3540:3559  bidBook[i].customer */\n      0x00\n      add\n      0x00\n      swap1\n      sload\n      swap1\n      0x0100\n      exp\n      swap1\n      div\n      0xffffffffffffffffffffffffffffffffffffffff\n      and\n        /* \"contracts/OrderBook.sol\":3540:3582  bidBook[i].customer == payable(msg.sender) */\n      0xffffffffffffffffffffffffffffffffffffffff\n      and\n      sub\n        /* \"contracts/OrderBook.sol\":3536:3632  if (bidBook[i].customer == payable(msg.sender)) {... */\n      tag_69\n      jumpi\n        /* \"contracts/OrderBook.sol\":3602:3609  request */\n      0x02\n        /* \"contracts/OrderBook.sol\":3615:3616  i */\n      dup2\n        /* \"contracts/OrderBook.sol\":3602:3617  request.push(i) */\n      swap1\n      dup1\n      0x01\n      dup2\n      sload\n      add\n      dup1\n      dup3\n      sstore\n      dup1\n      swap2\n      pop\n      pop\n      0x01\n      swap1\n      sub\n      swap1\n      0x00\n      mstore\n      keccak256(0x00, 0x20)\n      add\n      0x00\n      swap1\n      swap2\n      swap1\n      swap2\n      swap1\n      swap2\n      pop\n      sstore\n        /* \"contracts/OrderBook.sol\":3536:3632  if (bidBook[i].customer == payable(msg.sender)) {... */\n    tag_69:\n        /* \"contracts/OrderBook.sol\":3517:3520  i++ */\n      dup1\n      dup1\n      tag_71\n      swap1\n      tag_42\n      jump\t// in\n    tag_71:\n      swap2\n      pop\n      pop\n        /* \"contracts/OrderBook.sol\":3480:3642  for (uint i = 0; i < bidBook.length; i++) {... */\n      jump(tag_63)\n    tag_64:\n      pop\n        /* \"contracts/OrderBook.sol\":3658:3665  request */\n      0x02\n        /* \"contracts/OrderBook.sol\":3651:3665  return request */\n      dup1\n      sload\n      dup1\n      0x20\n      mul\n      0x20\n      add\n      mload(0x40)\n      swap1\n      dup2\n      add\n      0x40\n      mstore\n      dup1\n      swap3\n      swap2\n      swap1\n      dup2\n      dup2\n      mstore\n      0x20\n      add\n      dup3\n      dup1\n      sload\n      dup1\n      iszero\n      tag_72\n      jumpi\n      0x20\n      mul\n      dup3\n      add\n      swap2\n      swap1\n      0x00\n      mstore\n      keccak256(0x00, 0x20)\n      swap1\n    tag_73:\n      dup2\n      sload\n      dup2\n      mstore\n      0x20\n      add\n      swap1\n      0x01\n      add\n      swap1\n      dup1\n      dup4\n      gt\n      tag_73\n      jumpi\n    tag_72:\n      pop\n      pop\n      pop\n      pop\n      pop\n      swap1\n      pop\n        /* \"contracts/OrderBook.sol\":3389:3672  function fetchYourBidIds() public returns (uint[] memory) {... */\n      swap1\n      jump\t// out\n        /* \"contracts/OrderBook.sol\":1218:1351  function deleteArray() internal {... */\n    tag_31:\n        /* \"contracts/OrderBook.sol\":1265:1271  uint i */\n      0x00\n        /* \"contracts/OrderBook.sol\":1260:1345  for (uint i = 0; i < request.length; i ++) {... */\n    tag_75:\n        /* \"contracts/OrderBook.sol\":1281:1288  request */\n      0x02\n        /* \"contracts/OrderBook.sol\":1281:1295  request.length */\n      dup1\n      sload\n      swap1\n      pop\n        /* \"contracts/OrderBook.sol\":1277:1278  i */\n      dup2\n        /* \"contracts/OrderBook.sol\":1277:1295  i < request.length */\n      lt\n        /* \"contracts/OrderBook.sol\":1260:1345  for (uint i = 0; i < request.length; i ++) {... */\n      iszero\n      tag_76\n      jumpi\n        /* \"contracts/OrderBook.sol\":1324:1331  request */\n      0x02\n        /* \"contracts/OrderBook.sol\":1332:1333  i */\n      dup2\n        /* \"contracts/OrderBook.sol\":1324:1334  request[i] */\n      dup2\n      sload\n      dup2\n      lt\n      tag_78\n      jumpi\n      tag_79\n      tag_37\n      jump\t// in\n    tag_79:\n    tag_78:\n      swap1\n      0x00\n      mstore\n      keccak256(0x00, 0x20)\n      add\n        /* \"contracts/OrderBook.sol\":1317:1334  delete request[i] */\n      0x00\n      swap1\n      sstore\n        /* \"contracts/OrderBook.sol\":1297:1301  i ++ */\n      dup1\n      dup1\n      tag_81\n      swap1\n      tag_42\n      jump\t// in\n    tag_81:\n      swap2\n      pop\n      pop\n        /* \"contracts/OrderBook.sol\":1260:1345  for (uint i = 0; i < request.length; i ++) {... */\n      jump(tag_75)\n    tag_76:\n      pop\n        /* \"contracts/OrderBook.sol\":1218:1351  function deleteArray() internal {... */\n      jump\t// out\n        /* \"contracts/OrderBook.sol\":1093:1212  function sortAsk() internal {... */\n    tag_50:\n        /* \"contracts/OrderBook.sol\":1130:1190  ascendingQuickSort(bidBook, int(0), int(bidBook.length - 1)) */\n      tag_83\n        /* \"contracts/OrderBook.sol\":1149:1156  bidBook */\n      0x00\n        /* \"contracts/OrderBook.sol\":1130:1190  ascendingQuickSort(bidBook, int(0), int(bidBook.length - 1)) */\n      dup1\n      sload\n      dup1\n      0x20\n      mul\n      0x20\n      add\n      mload(0x40)\n      swap1\n      dup2\n      add\n      0x40\n      mstore\n      dup1\n      swap3\n      swap2\n      swap1\n      dup2\n      dup2\n      mstore\n      0x20\n      add\n      0x00\n      swap1\n    tag_84:\n      dup3\n      dup3\n      lt\n      iszero\n      tag_85\n      jumpi\n      dup4\n      dup3\n      swap1\n      0x00\n      mstore\n      keccak256(0x00, 0x20)\n      swap1\n      0x03\n      mul\n      add\n      mload(0x40)\n      dup1\n      0x60\n      add\n      0x40\n      mstore\n      swap1\n      dup2\n      0x00\n      dup3\n      add\n      0x00\n      swap1\n      sload\n      swap1\n      0x0100\n      exp\n      swap1\n      div\n      0xffffffffffffffffffffffffffffffffffffffff\n      and\n      0xffffffffffffffffffffffffffffffffffffffff\n      and\n      0xffffffffffffffffffffffffffffffffffffffff\n      and\n      dup2\n      mstore\n      0x20\n      add\n      0x01\n      dup3\n      add\n      sload\n      dup2\n      mstore\n      0x20\n      add\n      0x02\n      dup3\n      add\n      sload\n      dup2\n      mstore\n      pop\n      pop\n      dup2\n      mstore\n      0x20\n      add\n      swap1\n      0x01\n      add\n      swap1\n      jump(tag_84)\n    tag_85:\n      pop\n      pop\n      pop\n      pop\n        /* \"contracts/OrderBook.sol\":1162:1163  0 */\n      0x00\n        /* \"contracts/OrderBook.sol\":1187:1188  1 */\n      0x01\n        /* \"contracts/OrderBook.sol\":1170:1177  bidBook */\n      0x00\n        /* \"contracts/OrderBook.sol\":1170:1184  bidBook.length */\n      dup1\n      sload\n      swap1\n      pop\n        /* \"contracts/OrderBook.sol\":1170:1188  bidBook.length - 1 */\n      tag_87\n      swap2\n      swap1\n      tag_88\n      jump\t// in\n    tag_87:\n        /* \"contracts/OrderBook.sol\":1130:1148  ascendingQuickSort */\n      tag_89\n        /* \"contracts/OrderBook.sol\":1130:1190  ascendingQuickSort(bidBook, int(0), int(bidBook.length - 1)) */\n      jump\t// in\n    tag_83:\n        /* \"contracts/OrderBook.sol\":1093:1212  function sortAsk() internal {... */\n      jump\t// out\n        /* \"contracts/OrderBook.sol\":967:1087  function sortBid() internal {... */\n    tag_58:\n        /* \"contracts/OrderBook.sol\":1004:1065  descendingQuickSort(bidBook, int(0), int(bidBook.length - 1)) */\n      tag_91\n        /* \"contracts/OrderBook.sol\":1024:1031  bidBook */\n      0x00\n        /* \"contracts/OrderBook.sol\":1004:1065  descendingQuickSort(bidBook, int(0), int(bidBook.length - 1)) */\n      dup1\n      sload\n      dup1\n      0x20\n      mul\n      0x20\n      add\n      mload(0x40)\n      swap1\n      dup2\n      add\n      0x40\n      mstore\n      dup1\n      swap3\n      swap2\n      swap1\n      dup2\n      dup2\n      mstore\n      0x20\n      add\n      0x00\n      swap1\n    tag_92:\n      dup3\n      dup3\n      lt\n      iszero\n      tag_93\n      jumpi\n      dup4\n      dup3\n      swap1\n      0x00\n      mstore\n      keccak256(0x00, 0x20)\n      swap1\n      0x03\n      mul\n      add\n      mload(0x40)\n      dup1\n      0x60\n      add\n      0x40\n      mstore\n      swap1\n      dup2\n      0x00\n      dup3\n      add\n      0x00\n      swap1\n      sload\n      swap1\n      0x0100\n      exp\n      swap1\n      div\n      0xffffffffffffffffffffffffffffffffffffffff\n      and\n      0xffffffffffffffffffffffffffffffffffffffff\n      and\n      0xffffffffffffffffffffffffffffffffffffffff\n      and\n      dup2\n      mstore\n      0x20\n      add\n      0x01\n      dup3\n      add\n      sload\n      dup2\n      mstore\n      0x20\n      add\n      0x02\n      dup3\n      add\n      sload\n      dup2\n      mstore\n      pop\n      pop\n      dup2\n      mstore\n      0x20\n      add\n      swap1\n      0x01\n      add\n      swap1\n      jump(tag_92)\n    tag_93:\n      pop\n      pop\n      pop\n      pop\n        /* \"contracts/OrderBook.sol\":1037:1038  0 */\n      0x00\n        /* \"contracts/OrderBook.sol\":1062:1063  1 */\n      0x01\n        /* \"contracts/OrderBook.sol\":1045:1052  bidBook */\n      0x00\n        /* \"contracts/OrderBook.sol\":1045:1059  bidBook.length */\n      dup1\n      sload\n      swap1\n      pop\n        /* \"contracts/OrderBook.sol\":1045:1063  bidBook.length - 1 */\n      tag_95\n      swap2\n      swap1\n      tag_88\n      jump\t// in\n    tag_95:\n        /* \"contracts/OrderBook.sol\":1004:1023  descendingQuickSort */\n      tag_96\n        /* \"contracts/OrderBook.sol\":1004:1065  descendingQuickSort(bidBook, int(0), int(bidBook.length - 1)) */\n      jump\t// in\n    tag_91:\n        /* \"contracts/OrderBook.sol\":967:1087  function sortBid() internal {... */\n      jump\t// out\n        /* \"contracts/OrderBook.sol\":2036:2706  function ascendingQuickSort(order[] memory arr, int left, int right) internal{... */\n    tag_89:\n        /* \"contracts/OrderBook.sol\":2123:2128  int i */\n      0x00\n        /* \"contracts/OrderBook.sol\":2131:2135  left */\n      dup3\n        /* \"contracts/OrderBook.sol\":2123:2135  int i = left */\n      swap1\n      pop\n        /* \"contracts/OrderBook.sol\":2145:2150  int j */\n      0x00\n        /* \"contracts/OrderBook.sol\":2153:2158  right */\n      dup3\n        /* \"contracts/OrderBook.sol\":2145:2158  int j = right */\n      swap1\n      pop\n        /* \"contracts/OrderBook.sol\":2174:2175  j */\n      dup1\n        /* \"contracts/OrderBook.sol\":2171:2172  i */\n      dup3\n        /* \"contracts/OrderBook.sol\":2171:2175  i==j */\n      sub\n        /* \"contracts/OrderBook.sol\":2168:2184  if(i==j) return; */\n      tag_98\n      jumpi\n        /* \"contracts/OrderBook.sol\":2177:2184  return; */\n      pop\n      pop\n      jump(tag_97)\n        /* \"contracts/OrderBook.sol\":2168:2184  if(i==j) return; */\n    tag_98:\n        /* \"contracts/OrderBook.sol\":2193:2206  uint256 pivot */\n      0x00\n        /* \"contracts/OrderBook.sol\":2209:2212  arr */\n      dup6\n        /* \"contracts/OrderBook.sol\":2242:2243  2 */\n      0x02\n        /* \"contracts/OrderBook.sol\":2234:2238  left */\n      dup7\n        /* \"contracts/OrderBook.sol\":2226:2231  right */\n      dup7\n        /* \"contracts/OrderBook.sol\":2226:2238  right - left */\n      tag_99\n      swap2\n      swap1\n      tag_100\n      jump\t// in\n    tag_99:\n        /* \"contracts/OrderBook.sol\":2225:2243  (right - left) / 2 */\n      tag_101\n      swap2\n      swap1\n      tag_102\n      jump\t// in\n    tag_101:\n        /* \"contracts/OrderBook.sol\":2218:2222  left */\n      dup7\n        /* \"contracts/OrderBook.sol\":2218:2243  left + (right - left) / 2 */\n      tag_103\n      swap2\n      swap1\n      tag_104\n      jump\t// in\n    tag_103:\n        /* \"contracts/OrderBook.sol\":2209:2245  arr[uint(left + (right - left) / 2)] */\n      dup2\n      mload\n      dup2\n      lt\n      tag_105\n      jumpi\n      tag_106\n      tag_37\n      jump\t// in\n    tag_106:\n    tag_105:\n      0x20\n      mul\n      0x20\n      add\n      add\n      mload\n        /* \"contracts/OrderBook.sol\":2209:2255  arr[uint(left + (right - left) / 2)].timestamp */\n      0x40\n      add\n      mload\n        /* \"contracts/OrderBook.sol\":2193:2255  uint256 pivot = arr[uint(left + (right - left) / 2)].timestamp */\n      swap1\n      pop\n        /* \"contracts/OrderBook.sol\":2265:2562  while (i <= j) {... */\n    tag_107:\n        /* \"contracts/OrderBook.sol\":2277:2278  j */\n      dup2\n        /* \"contracts/OrderBook.sol\":2272:2273  i */\n      dup4\n        /* \"contracts/OrderBook.sol\":2272:2278  i <= j */\n      sgt\n        /* \"contracts/OrderBook.sol\":2265:2562  while (i <= j) {... */\n      tag_108\n      jumpi\n        /* \"contracts/OrderBook.sol\":2294:2336  while (arr[uint(i)].timestamp > pivot) i++ */\n    tag_109:\n        /* \"contracts/OrderBook.sol\":2326:2331  pivot */\n      dup1\n        /* \"contracts/OrderBook.sol\":2301:2304  arr */\n      dup7\n        /* \"contracts/OrderBook.sol\":2310:2311  i */\n      dup5\n        /* \"contracts/OrderBook.sol\":2301:2313  arr[uint(i)] */\n      dup2\n      mload\n      dup2\n      lt\n      tag_111\n      jumpi\n      tag_112\n      tag_37\n      jump\t// in\n    tag_112:\n    tag_111:\n      0x20\n      mul\n      0x20\n      add\n      add\n      mload\n        /* \"contracts/OrderBook.sol\":2301:2323  arr[uint(i)].timestamp */\n      0x40\n      add\n      mload\n        /* \"contracts/OrderBook.sol\":2301:2331  arr[uint(i)].timestamp > pivot */\n      gt\n        /* \"contracts/OrderBook.sol\":2294:2336  while (arr[uint(i)].timestamp > pivot) i++ */\n      iszero\n      tag_110\n      jumpi\n        /* \"contracts/OrderBook.sol\":2333:2336  i++ */\n      dup3\n      dup1\n      tag_113\n      swap1\n      tag_114\n      jump\t// in\n    tag_113:\n      swap4\n      pop\n      pop\n        /* \"contracts/OrderBook.sol\":2294:2336  while (arr[uint(i)].timestamp > pivot) i++ */\n      jump(tag_109)\n    tag_110:\n        /* \"contracts/OrderBook.sol\":2350:2392  while (pivot > arr[uint(j)].timestamp) j-- */\n    tag_115:\n        /* \"contracts/OrderBook.sol\":2365:2368  arr */\n      dup6\n        /* \"contracts/OrderBook.sol\":2374:2375  j */\n      dup3\n        /* \"contracts/OrderBook.sol\":2365:2377  arr[uint(j)] */\n      dup2\n      mload\n      dup2\n      lt\n      tag_117\n      jumpi\n      tag_118\n      tag_37\n      jump\t// in\n    tag_118:\n    tag_117:\n      0x20\n      mul\n      0x20\n      add\n      add\n      mload\n        /* \"contracts/OrderBook.sol\":2365:2387  arr[uint(j)].timestamp */\n      0x40\n      add\n      mload\n        /* \"contracts/OrderBook.sol\":2357:2362  pivot */\n      dup2\n        /* \"contracts/OrderBook.sol\":2357:2387  pivot > arr[uint(j)].timestamp */\n      gt\n        /* \"contracts/OrderBook.sol\":2350:2392  while (pivot > arr[uint(j)].timestamp) j-- */\n      iszero\n      tag_116\n      jumpi\n        /* \"contracts/OrderBook.sol\":2389:2392  j-- */\n      dup2\n      dup1\n      tag_119\n      swap1\n      tag_120\n      jump\t// in\n    tag_119:\n      swap3\n      pop\n      pop\n        /* \"contracts/OrderBook.sol\":2350:2392  while (pivot > arr[uint(j)].timestamp) j-- */\n      jump(tag_115)\n    tag_116:\n        /* \"contracts/OrderBook.sol\":2415:2416  j */\n      dup2\n        /* \"contracts/OrderBook.sol\":2410:2411  i */\n      dup4\n        /* \"contracts/OrderBook.sol\":2410:2416  i <= j */\n      sgt\n        /* \"contracts/OrderBook.sol\":2406:2552  if (i <= j) {... */\n      tag_121\n      jumpi\n        /* \"contracts/OrderBook.sol\":2468:2471  arr */\n      dup6\n        /* \"contracts/OrderBook.sol\":2477:2478  j */\n      dup3\n        /* \"contracts/OrderBook.sol\":2468:2480  arr[uint(j)] */\n      dup2\n      mload\n      dup2\n      lt\n      tag_122\n      jumpi\n      tag_123\n      tag_37\n      jump\t// in\n    tag_123:\n    tag_122:\n      0x20\n      mul\n      0x20\n      add\n      add\n      mload\n        /* \"contracts/OrderBook.sol\":2482:2485  arr */\n      dup7\n        /* \"contracts/OrderBook.sol\":2491:2492  i */\n      dup5\n        /* \"contracts/OrderBook.sol\":2482:2494  arr[uint(i)] */\n      dup2\n      mload\n      dup2\n      lt\n      tag_124\n      jumpi\n      tag_125\n      tag_37\n      jump\t// in\n    tag_125:\n    tag_124:\n      0x20\n      mul\n      0x20\n      add\n      add\n      mload\n        /* \"contracts/OrderBook.sol\":2437:2440  arr */\n      dup8\n        /* \"contracts/OrderBook.sol\":2446:2447  i */\n      dup6\n        /* \"contracts/OrderBook.sol\":2437:2449  arr[uint(i)] */\n      dup2\n      mload\n      dup2\n      lt\n      tag_126\n      jumpi\n      tag_127\n      tag_37\n      jump\t// in\n    tag_127:\n    tag_126:\n      0x20\n      mul\n      0x20\n      add\n      add\n        /* \"contracts/OrderBook.sol\":2451:2454  arr */\n      dup9\n        /* \"contracts/OrderBook.sol\":2460:2461  j */\n      dup6\n        /* \"contracts/OrderBook.sol\":2451:2463  arr[uint(j)] */\n      dup2\n      mload\n      dup2\n      lt\n      tag_128\n      jumpi\n      tag_129\n      tag_37\n      jump\t// in\n    tag_129:\n    tag_128:\n      0x20\n      mul\n      0x20\n      add\n      add\n        /* \"contracts/OrderBook.sol\":2436:2495  (arr[uint(i)], arr[uint(j)]) = (arr[uint(j)], arr[uint(i)]) */\n      dup3\n      swap1\n      mstore\n      dup3\n      swap1\n      mstore\n      pop\n      pop\n        /* \"contracts/OrderBook.sol\":2513:2516  i++ */\n      dup3\n      dup1\n      tag_130\n      swap1\n      tag_114\n      jump\t// in\n    tag_130:\n      swap4\n      pop\n      pop\n        /* \"contracts/OrderBook.sol\":2534:2537  j-- */\n      dup2\n      dup1\n      tag_131\n      swap1\n      tag_120\n      jump\t// in\n    tag_131:\n      swap3\n      pop\n      pop\n        /* \"contracts/OrderBook.sol\":2406:2552  if (i <= j) {... */\n    tag_121:\n        /* \"contracts/OrderBook.sol\":2265:2562  while (i <= j) {... */\n      jump(tag_107)\n    tag_108:\n        /* \"contracts/OrderBook.sol\":2582:2583  j */\n      dup2\n        /* \"contracts/OrderBook.sol\":2575:2579  left */\n      dup6\n        /* \"contracts/OrderBook.sol\":2575:2583  left < j */\n      slt\n        /* \"contracts/OrderBook.sol\":2571:2629  if (left < j)... */\n      iszero\n      tag_132\n      jumpi\n        /* \"contracts/OrderBook.sol\":2597:2629  ascendingQuickSort(arr, left, j) */\n      tag_133\n        /* \"contracts/OrderBook.sol\":2616:2619  arr */\n      dup7\n        /* \"contracts/OrderBook.sol\":2621:2625  left */\n      dup7\n        /* \"contracts/OrderBook.sol\":2627:2628  j */\n      dup5\n        /* \"contracts/OrderBook.sol\":2597:2615  ascendingQuickSort */\n      tag_89\n        /* \"contracts/OrderBook.sol\":2597:2629  ascendingQuickSort(arr, left, j) */\n      jump\t// in\n    tag_133:\n        /* \"contracts/OrderBook.sol\":2571:2629  if (left < j)... */\n    tag_132:\n        /* \"contracts/OrderBook.sol\":2647:2652  right */\n      dup4\n        /* \"contracts/OrderBook.sol\":2643:2644  i */\n      dup4\n        /* \"contracts/OrderBook.sol\":2643:2652  i < right */\n      slt\n        /* \"contracts/OrderBook.sol\":2639:2699  if (i < right)... */\n      iszero\n      tag_134\n      jumpi\n        /* \"contracts/OrderBook.sol\":2666:2699  ascendingQuickSort(arr, i, right) */\n      tag_135\n        /* \"contracts/OrderBook.sol\":2685:2688  arr */\n      dup7\n        /* \"contracts/OrderBook.sol\":2690:2691  i */\n      dup5\n        /* \"contracts/OrderBook.sol\":2693:2698  right */\n      dup7\n        /* \"contracts/OrderBook.sol\":2666:2684  ascendingQuickSort */\n      tag_89\n        /* \"contracts/OrderBook.sol\":2666:2699  ascendingQuickSort(arr, i, right) */\n      jump\t// in\n    tag_135:\n        /* \"contracts/OrderBook.sol\":2639:2699  if (i < right)... */\n    tag_134:\n        /* \"contracts/OrderBook.sol\":2113:2706  {... */\n      pop\n      pop\n      pop\n        /* \"contracts/OrderBook.sol\":2036:2706  function ascendingQuickSort(order[] memory arr, int left, int right) internal{... */\n    tag_97:\n      pop\n      pop\n      pop\n      jump\t// out\n        /* \"contracts/OrderBook.sol\":1357:2030  function descendingQuickSort(order[] memory arr, int left, int right) internal{... */\n    tag_96:\n        /* \"contracts/OrderBook.sol\":1445:1450  int i */\n      0x00\n        /* \"contracts/OrderBook.sol\":1453:1457  left */\n      dup3\n        /* \"contracts/OrderBook.sol\":1445:1457  int i = left */\n      swap1\n      pop\n        /* \"contracts/OrderBook.sol\":1467:1472  int j */\n      0x00\n        /* \"contracts/OrderBook.sol\":1475:1480  right */\n      dup3\n        /* \"contracts/OrderBook.sol\":1467:1480  int j = right */\n      swap1\n      pop\n        /* \"contracts/OrderBook.sol\":1496:1497  j */\n      dup1\n        /* \"contracts/OrderBook.sol\":1493:1494  i */\n      dup3\n        /* \"contracts/OrderBook.sol\":1493:1497  i==j */\n      sub\n        /* \"contracts/OrderBook.sol\":1490:1506  if(i==j) return; */\n      tag_137\n      jumpi\n        /* \"contracts/OrderBook.sol\":1499:1506  return; */\n      pop\n      pop\n      jump(tag_136)\n        /* \"contracts/OrderBook.sol\":1490:1506  if(i==j) return; */\n    tag_137:\n        /* \"contracts/OrderBook.sol\":1515:1528  uint256 pivot */\n      0x00\n        /* \"contracts/OrderBook.sol\":1531:1534  arr */\n      dup6\n        /* \"contracts/OrderBook.sol\":1564:1565  2 */\n      0x02\n        /* \"contracts/OrderBook.sol\":1556:1560  left */\n      dup7\n        /* \"contracts/OrderBook.sol\":1548:1553  right */\n      dup7\n        /* \"contracts/OrderBook.sol\":1548:1560  right - left */\n      tag_138\n      swap2\n      swap1\n      tag_100\n      jump\t// in\n    tag_138:\n        /* \"contracts/OrderBook.sol\":1547:1565  (right - left) / 2 */\n      tag_139\n      swap2\n      swap1\n      tag_102\n      jump\t// in\n    tag_139:\n        /* \"contracts/OrderBook.sol\":1540:1544  left */\n      dup7\n        /* \"contracts/OrderBook.sol\":1540:1565  left + (right - left) / 2 */\n      tag_140\n      swap2\n      swap1\n      tag_104\n      jump\t// in\n    tag_140:\n        /* \"contracts/OrderBook.sol\":1531:1567  arr[uint(left + (right - left) / 2)] */\n      dup2\n      mload\n      dup2\n      lt\n      tag_141\n      jumpi\n      tag_142\n      tag_37\n      jump\t// in\n    tag_142:\n    tag_141:\n      0x20\n      mul\n      0x20\n      add\n      add\n      mload\n        /* \"contracts/OrderBook.sol\":1531:1577  arr[uint(left + (right - left) / 2)].timestamp */\n      0x40\n      add\n      mload\n        /* \"contracts/OrderBook.sol\":1515:1577  uint256 pivot = arr[uint(left + (right - left) / 2)].timestamp */\n      swap1\n      pop\n        /* \"contracts/OrderBook.sol\":1587:1884  while (i <= j) {... */\n    tag_143:\n        /* \"contracts/OrderBook.sol\":1599:1600  j */\n      dup2\n        /* \"contracts/OrderBook.sol\":1594:1595  i */\n      dup4\n        /* \"contracts/OrderBook.sol\":1594:1600  i <= j */\n      sgt\n        /* \"contracts/OrderBook.sol\":1587:1884  while (i <= j) {... */\n      tag_144\n      jumpi\n        /* \"contracts/OrderBook.sol\":1616:1658  while (arr[uint(i)].timestamp < pivot) i++ */\n    tag_145:\n        /* \"contracts/OrderBook.sol\":1648:1653  pivot */\n      dup1\n        /* \"contracts/OrderBook.sol\":1623:1626  arr */\n      dup7\n        /* \"contracts/OrderBook.sol\":1632:1633  i */\n      dup5\n        /* \"contracts/OrderBook.sol\":1623:1635  arr[uint(i)] */\n      dup2\n      mload\n      dup2\n      lt\n      tag_147\n      jumpi\n      tag_148\n      tag_37\n      jump\t// in\n    tag_148:\n    tag_147:\n      0x20\n      mul\n      0x20\n      add\n      add\n      mload\n        /* \"contracts/OrderBook.sol\":1623:1645  arr[uint(i)].timestamp */\n      0x40\n      add\n      mload\n        /* \"contracts/OrderBook.sol\":1623:1653  arr[uint(i)].timestamp < pivot */\n      lt\n        /* \"contracts/OrderBook.sol\":1616:1658  while (arr[uint(i)].timestamp < pivot) i++ */\n      iszero\n      tag_146\n      jumpi\n        /* \"contracts/OrderBook.sol\":1655:1658  i++ */\n      dup3\n      dup1\n      tag_149\n      swap1\n      tag_114\n      jump\t// in\n    tag_149:\n      swap4\n      pop\n      pop\n        /* \"contracts/OrderBook.sol\":1616:1658  while (arr[uint(i)].timestamp < pivot) i++ */\n      jump(tag_145)\n    tag_146:\n        /* \"contracts/OrderBook.sol\":1672:1714  while (pivot < arr[uint(j)].timestamp) j-- */\n    tag_150:\n        /* \"contracts/OrderBook.sol\":1687:1690  arr */\n      dup6\n        /* \"contracts/OrderBook.sol\":1696:1697  j */\n      dup3\n        /* \"contracts/OrderBook.sol\":1687:1699  arr[uint(j)] */\n      dup2\n      mload\n      dup2\n      lt\n      tag_152\n      jumpi\n      tag_153\n      tag_37\n      jump\t// in\n    tag_153:\n    tag_152:\n      0x20\n      mul\n      0x20\n      add\n      add\n      mload\n        /* \"contracts/OrderBook.sol\":1687:1709  arr[uint(j)].timestamp */\n      0x40\n      add\n      mload\n        /* \"contracts/OrderBook.sol\":1679:1684  pivot */\n      dup2\n        /* \"contracts/OrderBook.sol\":1679:1709  pivot < arr[uint(j)].timestamp */\n      lt\n        /* \"contracts/OrderBook.sol\":1672:1714  while (pivot < arr[uint(j)].timestamp) j-- */\n      iszero\n      tag_151\n      jumpi\n        /* \"contracts/OrderBook.sol\":1711:1714  j-- */\n      dup2\n      dup1\n      tag_154\n      swap1\n      tag_120\n      jump\t// in\n    tag_154:\n      swap3\n      pop\n      pop\n        /* \"contracts/OrderBook.sol\":1672:1714  while (pivot < arr[uint(j)].timestamp) j-- */\n      jump(tag_150)\n    tag_151:\n        /* \"contracts/OrderBook.sol\":1737:1738  j */\n      dup2\n        /* \"contracts/OrderBook.sol\":1732:1733  i */\n      dup4\n        /* \"contracts/OrderBook.sol\":1732:1738  i <= j */\n      sgt\n        /* \"contracts/OrderBook.sol\":1728:1874  if (i <= j) {... */\n      tag_155\n      jumpi\n        /* \"contracts/OrderBook.sol\":1790:1793  arr */\n      dup6\n        /* \"contracts/OrderBook.sol\":1799:1800  j */\n      dup3\n        /* \"contracts/OrderBook.sol\":1790:1802  arr[uint(j)] */\n      dup2\n      mload\n      dup2\n      lt\n      tag_156\n      jumpi\n      tag_157\n      tag_37\n      jump\t// in\n    tag_157:\n    tag_156:\n      0x20\n      mul\n      0x20\n      add\n      add\n      mload\n        /* \"contracts/OrderBook.sol\":1804:1807  arr */\n      dup7\n        /* \"contracts/OrderBook.sol\":1813:1814  i */\n      dup5\n        /* \"contracts/OrderBook.sol\":1804:1816  arr[uint(i)] */\n      dup2\n      mload\n      dup2\n      lt\n      tag_158\n      jumpi\n      tag_159\n      tag_37\n      jump\t// in\n    tag_159:\n    tag_158:\n      0x20\n      mul\n      0x20\n      add\n      add\n      mload\n        /* \"contracts/OrderBook.sol\":1759:1762  arr */\n      dup8\n        /* \"contracts/OrderBook.sol\":1768:1769  i */\n      dup6\n        /* \"contracts/OrderBook.sol\":1759:1771  arr[uint(i)] */\n      dup2\n      mload\n      dup2\n      lt\n      tag_160\n      jumpi\n      tag_161\n      tag_37\n      jump\t// in\n    tag_161:\n    tag_160:\n      0x20\n      mul\n      0x20\n      add\n      add\n        /* \"contracts/OrderBook.sol\":1773:1776  arr */\n      dup9\n        /* \"contracts/OrderBook.sol\":1782:1783  j */\n      dup6\n        /* \"contracts/OrderBook.sol\":1773:1785  arr[uint(j)] */\n      dup2\n      mload\n      dup2\n      lt\n      tag_162\n      jumpi\n      tag_163\n      tag_37\n      jump\t// in\n    tag_163:\n    tag_162:\n      0x20\n      mul\n      0x20\n      add\n      add\n        /* \"contracts/OrderBook.sol\":1758:1817  (arr[uint(i)], arr[uint(j)]) = (arr[uint(j)], arr[uint(i)]) */\n      dup3\n      swap1\n      mstore\n      dup3\n      swap1\n      mstore\n      pop\n      pop\n        /* \"contracts/OrderBook.sol\":1835:1838  i++ */\n      dup3\n      dup1\n      tag_164\n      swap1\n      tag_114\n      jump\t// in\n    tag_164:\n      swap4\n      pop\n      pop\n        /* \"contracts/OrderBook.sol\":1856:1859  j-- */\n      dup2\n      dup1\n      tag_165\n      swap1\n      tag_120\n      jump\t// in\n    tag_165:\n      swap3\n      pop\n      pop\n        /* \"contracts/OrderBook.sol\":1728:1874  if (i <= j) {... */\n    tag_155:\n        /* \"contracts/OrderBook.sol\":1587:1884  while (i <= j) {... */\n      jump(tag_143)\n    tag_144:\n        /* \"contracts/OrderBook.sol\":1904:1905  j */\n      dup2\n        /* \"contracts/OrderBook.sol\":1897:1901  left */\n      dup6\n        /* \"contracts/OrderBook.sol\":1897:1905  left < j */\n      slt\n        /* \"contracts/OrderBook.sol\":1893:1952  if (left < j)... */\n      iszero\n      tag_166\n      jumpi\n        /* \"contracts/OrderBook.sol\":1919:1952  descendingQuickSort(arr, left, j) */\n      tag_167\n        /* \"contracts/OrderBook.sol\":1939:1942  arr */\n      dup7\n        /* \"contracts/OrderBook.sol\":1944:1948  left */\n      dup7\n        /* \"contracts/OrderBook.sol\":1950:1951  j */\n      dup5\n        /* \"contracts/OrderBook.sol\":1919:1938  descendingQuickSort */\n      tag_96\n        /* \"contracts/OrderBook.sol\":1919:1952  descendingQuickSort(arr, left, j) */\n      jump\t// in\n    tag_167:\n        /* \"contracts/OrderBook.sol\":1893:1952  if (left < j)... */\n    tag_166:\n        /* \"contracts/OrderBook.sol\":1970:1975  right */\n      dup4\n        /* \"contracts/OrderBook.sol\":1966:1967  i */\n      dup4\n        /* \"contracts/OrderBook.sol\":1966:1975  i < right */\n      slt\n        /* \"contracts/OrderBook.sol\":1962:2023  if (i < right)... */\n      iszero\n      tag_168\n      jumpi\n        /* \"contracts/OrderBook.sol\":1989:2023  descendingQuickSort(arr, i, right) */\n      tag_169\n        /* \"contracts/OrderBook.sol\":2009:2012  arr */\n      dup7\n        /* \"contracts/OrderBook.sol\":2014:2015  i */\n      dup5\n        /* \"contracts/OrderBook.sol\":2017:2022  right */\n      dup7\n        /* \"contracts/OrderBook.sol\":1989:2008  descendingQuickSort */\n      tag_96\n        /* \"contracts/OrderBook.sol\":1989:2023  descendingQuickSort(arr, i, right) */\n      jump\t// in\n    tag_169:\n        /* \"contracts/OrderBook.sol\":1962:2023  if (i < right)... */\n    tag_168:\n        /* \"contracts/OrderBook.sol\":1435:2030  {... */\n      pop\n      pop\n      pop\n        /* \"contracts/OrderBook.sol\":1357:2030  function descendingQuickSort(order[] memory arr, int left, int right) internal{... */\n    tag_136:\n      pop\n      pop\n      pop\n      jump\t// out\n        /* \"#utility.yul\":7:121   */\n    tag_170:\n        /* \"#utility.yul\":74:80   */\n      0x00\n        /* \"#utility.yul\":108:113   */\n      dup2\n        /* \"#utility.yul\":102:114   */\n      mload\n        /* \"#utility.yul\":92:114   */\n      swap1\n      pop\n        /* \"#utility.yul\":7:121   */\n      swap2\n      swap1\n      pop\n      jump\t// out\n        /* \"#utility.yul\":127:311   */\n    tag_171:\n        /* \"#utility.yul\":226:237   */\n      0x00\n        /* \"#utility.yul\":260:266   */\n      dup3\n        /* \"#utility.yul\":255:258   */\n      dup3\n        /* \"#utility.yul\":248:267   */\n      mstore\n        /* \"#utility.yul\":300:304   */\n      0x20\n        /* \"#utility.yul\":295:298   */\n      dup3\n        /* \"#utility.yul\":291:305   */\n      add\n        /* \"#utility.yul\":276:305   */\n      swap1\n      pop\n        /* \"#utility.yul\":127:311   */\n      swap3\n      swap2\n      pop\n      pop\n      jump\t// out\n        /* \"#utility.yul\":317:449   */\n    tag_172:\n        /* \"#utility.yul\":384:388   */\n      0x00\n        /* \"#utility.yul\":407:410   */\n      dup2\n        /* \"#utility.yul\":399:410   */\n      swap1\n      pop\n        /* \"#utility.yul\":437:441   */\n      0x20\n        /* \"#utility.yul\":432:435   */\n      dup3\n        /* \"#utility.yul\":428:442   */\n      add\n        /* \"#utility.yul\":420:442   */\n      swap1\n      pop\n        /* \"#utility.yul\":317:449   */\n      swap2\n      swap1\n      pop\n      jump\t// out\n        /* \"#utility.yul\":455:532   */\n    tag_173:\n        /* \"#utility.yul\":492:499   */\n      0x00\n        /* \"#utility.yul\":521:526   */\n      dup2\n        /* \"#utility.yul\":510:526   */\n      swap1\n      pop\n        /* \"#utility.yul\":455:532   */\n      swap2\n      swap1\n      pop\n      jump\t// out\n        /* \"#utility.yul\":538:646   */\n    tag_174:\n        /* \"#utility.yul\":615:639   */\n      tag_192\n        /* \"#utility.yul\":633:638   */\n      dup2\n        /* \"#utility.yul\":615:639   */\n      tag_173\n      jump\t// in\n    tag_192:\n        /* \"#utility.yul\":610:613   */\n      dup3\n        /* \"#utility.yul\":603:640   */\n      mstore\n        /* \"#utility.yul\":538:646   */\n      pop\n      pop\n      jump\t// out\n        /* \"#utility.yul\":652:831   */\n    tag_175:\n        /* \"#utility.yul\":721:731   */\n      0x00\n        /* \"#utility.yul\":742:788   */\n      tag_194\n        /* \"#utility.yul\":784:787   */\n      dup4\n        /* \"#utility.yul\":776:782   */\n      dup4\n        /* \"#utility.yul\":742:788   */\n      tag_174\n      jump\t// in\n    tag_194:\n        /* \"#utility.yul\":820:824   */\n      0x20\n        /* \"#utility.yul\":815:818   */\n      dup4\n        /* \"#utility.yul\":811:825   */\n      add\n        /* \"#utility.yul\":797:825   */\n      swap1\n      pop\n        /* \"#utility.yul\":652:831   */\n      swap3\n      swap2\n      pop\n      pop\n      jump\t// out\n        /* \"#utility.yul\":837:950   */\n    tag_176:\n        /* \"#utility.yul\":907:911   */\n      0x00\n        /* \"#utility.yul\":939:943   */\n      0x20\n        /* \"#utility.yul\":934:937   */\n      dup3\n        /* \"#utility.yul\":930:944   */\n      add\n        /* \"#utility.yul\":922:944   */\n      swap1\n      pop\n        /* \"#utility.yul\":837:950   */\n      swap2\n      swap1\n      pop\n      jump\t// out\n        /* \"#utility.yul\":986:1718   */\n    tag_177:\n        /* \"#utility.yul\":1105:1108   */\n      0x00\n        /* \"#utility.yul\":1134:1188   */\n      tag_197\n        /* \"#utility.yul\":1182:1187   */\n      dup3\n        /* \"#utility.yul\":1134:1188   */\n      tag_170\n      jump\t// in\n    tag_197:\n        /* \"#utility.yul\":1204:1290   */\n      tag_198\n        /* \"#utility.yul\":1283:1289   */\n      dup2\n        /* \"#utility.yul\":1278:1281   */\n      dup6\n        /* \"#utility.yul\":1204:1290   */\n      tag_171\n      jump\t// in\n    tag_198:\n        /* \"#utility.yul\":1197:1290   */\n      swap4\n      pop\n        /* \"#utility.yul\":1314:1370   */\n      tag_199\n        /* \"#utility.yul\":1364:1369   */\n      dup4\n        /* \"#utility.yul\":1314:1370   */\n      tag_172\n      jump\t// in\n    tag_199:\n        /* \"#utility.yul\":1393:1400   */\n      dup1\n        /* \"#utility.yul\":1424:1425   */\n      0x00\n        /* \"#utility.yul\":1409:1693   */\n    tag_200:\n        /* \"#utility.yul\":1434:1440   */\n      dup4\n        /* \"#utility.yul\":1431:1432   */\n      dup2\n        /* \"#utility.yul\":1428:1441   */\n      lt\n        /* \"#utility.yul\":1409:1693   */\n      iszero\n      tag_202\n      jumpi\n        /* \"#utility.yul\":1510:1516   */\n      dup2\n        /* \"#utility.yul\":1504:1517   */\n      mload\n        /* \"#utility.yul\":1537:1600   */\n      tag_203\n        /* \"#utility.yul\":1596:1599   */\n      dup9\n        /* \"#utility.yul\":1581:1594   */\n      dup3\n        /* \"#utility.yul\":1537:1600   */\n      tag_175\n      jump\t// in\n    tag_203:\n        /* \"#utility.yul\":1530:1600   */\n      swap8\n      pop\n        /* \"#utility.yul\":1623:1683   */\n      tag_204\n        /* \"#utility.yul\":1676:1682   */\n      dup4\n        /* \"#utility.yul\":1623:1683   */\n      tag_176\n      jump\t// in\n    tag_204:\n        /* \"#utility.yul\":1613:1683   */\n      swap3\n      pop\n        /* \"#utility.yul\":1469:1693   */\n      pop\n        /* \"#utility.yul\":1456:1457   */\n      0x01\n        /* \"#utility.yul\":1453:1454   */\n      dup2\n        /* \"#utility.yul\":1449:1458   */\n      add\n        /* \"#utility.yul\":1444:1458   */\n      swap1\n      pop\n        /* \"#utility.yul\":1409:1693   */\n      jump(tag_200)\n    tag_202:\n        /* \"#utility.yul\":1413:1427   */\n      pop\n        /* \"#utility.yul\":1709:1712   */\n      dup6\n        /* \"#utility.yul\":1702:1712   */\n      swap4\n      pop\n        /* \"#utility.yul\":1110:1718   */\n      pop\n      pop\n      pop\n        /* \"#utility.yul\":986:1718   */\n      swap3\n      swap2\n      pop\n      pop\n      jump\t// out\n        /* \"#utility.yul\":1724:2097   */\n    tag_12:\n        /* \"#utility.yul\":1867:1871   */\n      0x00\n        /* \"#utility.yul\":1905:1907   */\n      0x20\n        /* \"#utility.yul\":1894:1903   */\n      dup3\n        /* \"#utility.yul\":1890:1908   */\n      add\n        /* \"#utility.yul\":1882:1908   */\n      swap1\n      pop\n        /* \"#utility.yul\":1954:1963   */\n      dup2\n        /* \"#utility.yul\":1948:1952   */\n      dup2\n        /* \"#utility.yul\":1944:1964   */\n      sub\n        /* \"#utility.yul\":1940:1941   */\n      0x00\n        /* \"#utility.yul\":1929:1938   */\n      dup4\n        /* \"#utility.yul\":1925:1942   */\n      add\n        /* \"#utility.yul\":1918:1965   */\n      mstore\n        /* \"#utility.yul\":1982:2090   */\n      tag_206\n        /* \"#utility.yul\":2085:2089   */\n      dup2\n        /* \"#utility.yul\":2076:2082   */\n      dup5\n        /* \"#utility.yul\":1982:2090   */\n      tag_177\n      jump\t// in\n    tag_206:\n        /* \"#utility.yul\":1974:2090   */\n      swap1\n      pop\n        /* \"#utility.yul\":1724:2097   */\n      swap3\n      swap2\n      pop\n      pop\n      jump\t// out\n        /* \"#utility.yul\":2184:2301   */\n    tag_179:\n        /* \"#utility.yul\":2293:2294   */\n      0x00\n        /* \"#utility.yul\":2290:2291   */\n      dup1\n        /* \"#utility.yul\":2283:2295   */\n      revert\n        /* \"#utility.yul\":2430:2552   */\n    tag_181:\n        /* \"#utility.yul\":2503:2527   */\n      tag_211\n        /* \"#utility.yul\":2521:2526   */\n      dup2\n        /* \"#utility.yul\":2503:2527   */\n      tag_173\n      jump\t// in\n    tag_211:\n        /* \"#utility.yul\":2496:2501   */\n      dup2\n        /* \"#utility.yul\":2493:2528   */\n      eq\n        /* \"#utility.yul\":2483:2546   */\n      tag_212\n      jumpi\n        /* \"#utility.yul\":2542:2543   */\n      0x00\n        /* \"#utility.yul\":2539:2540   */\n      dup1\n        /* \"#utility.yul\":2532:2544   */\n      revert\n        /* \"#utility.yul\":2483:2546   */\n    tag_212:\n        /* \"#utility.yul\":2430:2552   */\n      pop\n      jump\t// out\n        /* \"#utility.yul\":2558:2697   */\n    tag_182:\n        /* \"#utility.yul\":2604:2609   */\n      0x00\n        /* \"#utility.yul\":2642:2648   */\n      dup2\n        /* \"#utility.yul\":2629:2649   */\n      calldataload\n        /* \"#utility.yul\":2620:2649   */\n      swap1\n      pop\n        /* \"#utility.yul\":2658:2691   */\n      tag_214\n        /* \"#utility.yul\":2685:2690   */\n      dup2\n        /* \"#utility.yul\":2658:2691   */\n      tag_181\n      jump\t// in\n    tag_214:\n        /* \"#utility.yul\":2558:2697   */\n      swap3\n      swap2\n      pop\n      pop\n      jump\t// out\n        /* \"#utility.yul\":2703:3032   */\n    tag_15:\n        /* \"#utility.yul\":2762:2768   */\n      0x00\n        /* \"#utility.yul\":2811:2813   */\n      0x20\n        /* \"#utility.yul\":2799:2808   */\n      dup3\n        /* \"#utility.yul\":2790:2797   */\n      dup5\n        /* \"#utility.yul\":2786:2809   */\n      sub\n        /* \"#utility.yul\":2782:2814   */\n      slt\n        /* \"#utility.yul\":2779:2898   */\n      iszero\n      tag_216\n      jumpi\n        /* \"#utility.yul\":2817:2896   */\n      tag_217\n      tag_179\n      jump\t// in\n    tag_217:\n        /* \"#utility.yul\":2779:2898   */\n    tag_216:\n        /* \"#utility.yul\":2937:2938   */\n      0x00\n        /* \"#utility.yul\":2962:3015   */\n      tag_218\n        /* \"#utility.yul\":3007:3014   */\n      dup5\n        /* \"#utility.yul\":2998:3004   */\n      dup3\n        /* \"#utility.yul\":2987:2996   */\n      dup6\n        /* \"#utility.yul\":2983:3005   */\n      add\n        /* \"#utility.yul\":2962:3015   */\n      tag_182\n      jump\t// in\n    tag_218:\n        /* \"#utility.yul\":2952:3015   */\n      swap2\n      pop\n        /* \"#utility.yul\":2908:3025   */\n      pop\n        /* \"#utility.yul\":2703:3032   */\n      swap3\n      swap2\n      pop\n      pop\n      jump\t// out\n        /* \"#utility.yul\":3038:3218   */\n    tag_37:\n        /* \"#utility.yul\":3086:3163   */\n      0x4e487b7100000000000000000000000000000000000000000000000000000000\n        /* \"#utility.yul\":3083:3084   */\n      0x00\n        /* \"#utility.yul\":3076:3164   */\n      mstore\n        /* \"#utility.yul\":3183:3187   */\n      0x32\n        /* \"#utility.yul\":3180:3181   */\n      0x04\n        /* \"#utility.yul\":3173:3188   */\n      mstore\n        /* \"#utility.yul\":3207:3211   */\n      0x24\n        /* \"#utility.yul\":3204:3205   */\n      0x00\n        /* \"#utility.yul\":3197:3212   */\n      revert\n        /* \"#utility.yul\":3224:3404   */\n    tag_183:\n        /* \"#utility.yul\":3272:3349   */\n      0x4e487b7100000000000000000000000000000000000000000000000000000000\n        /* \"#utility.yul\":3269:3270   */\n      0x00\n        /* \"#utility.yul\":3262:3350   */\n      mstore\n        /* \"#utility.yul\":3369:3373   */\n      0x11\n        /* \"#utility.yul\":3366:3367   */\n      0x04\n        /* \"#utility.yul\":3359:3374   */\n      mstore\n        /* \"#utility.yul\":3393:3397   */\n      0x24\n        /* \"#utility.yul\":3390:3391   */\n      0x00\n        /* \"#utility.yul\":3383:3398   */\n      revert\n        /* \"#utility.yul\":3410:3643   */\n    tag_42:\n        /* \"#utility.yul\":3449:3452   */\n      0x00\n        /* \"#utility.yul\":3472:3496   */\n      tag_222\n        /* \"#utility.yul\":3490:3495   */\n      dup3\n        /* \"#utility.yul\":3472:3496   */\n      tag_173\n      jump\t// in\n    tag_222:\n        /* \"#utility.yul\":3463:3496   */\n      swap2\n      pop\n        /* \"#utility.yul\":3518:3584   */\n      0xffffffffffffffffffffffffffffffffffffffffffffffffffffffffffffffff\n        /* \"#utility.yul\":3511:3516   */\n      dup3\n        /* \"#utility.yul\":3508:3585   */\n      sub\n        /* \"#utility.yul\":3505:3608   */\n      tag_223\n      jumpi\n        /* \"#utility.yul\":3588:3606   */\n      tag_224\n      tag_183\n      jump\t// in\n    tag_224:\n        /* \"#utility.yul\":3505:3608   */\n    tag_223:\n        /* \"#utility.yul\":3635:3636   */\n      0x01\n        /* \"#utility.yul\":3628:3633   */\n      dup3\n        /* \"#utility.yul\":3624:3637   */\n      add\n        /* \"#utility.yul\":3617:3637   */\n      swap1\n      pop\n        /* \"#utility.yul\":3410:3643   */\n      swap2\n      swap1\n      pop\n      jump\t// out\n        /* \"#utility.yul\":3649:3840   */\n    tag_88:\n        /* \"#utility.yul\":3689:3693   */\n      0x00\n        /* \"#utility.yul\":3709:3729   */\n      tag_226\n        /* \"#utility.yul\":3727:3728   */\n      dup3\n        /* \"#utility.yul\":3709:3729   */\n      tag_173\n      jump\t// in\n    tag_226:\n        /* \"#utility.yul\":3704:3729   */\n      swap2\n      pop\n        /* \"#utility.yul\":3743:3763   */\n      tag_227\n        /* \"#utility.yul\":3761:3762   */\n      dup4\n        /* \"#utility.yul\":3743:3763   */\n      tag_173\n      jump\t// in\n    tag_227:\n        /* \"#utility.yul\":3738:3763   */\n      swap3\n      pop\n        /* \"#utility.yul\":3782:3783   */\n      dup3\n        /* \"#utility.yul\":3779:3780   */\n      dup3\n        /* \"#utility.yul\":3776:3784   */\n      lt\n        /* \"#utility.yul\":3773:3807   */\n      iszero\n      tag_228\n      jumpi\n        /* \"#utility.yul\":3787:3805   */\n      tag_229\n      tag_183\n      jump\t// in\n    tag_229:\n        /* \"#utility.yul\":3773:3807   */\n    tag_228:\n        /* \"#utility.yul\":3832:3833   */\n      dup3\n        /* \"#utility.yul\":3829:3830   */\n      dup3\n        /* \"#utility.yul\":3825:3834   */\n      sub\n        /* \"#utility.yul\":3817:3834   */\n      swap1\n      pop\n        /* \"#utility.yul\":3649:3840   */\n      swap3\n      swap2\n      pop\n      pop\n      jump\t// out\n        /* \"#utility.yul\":3846:3922   */\n    tag_184:\n        /* \"#utility.yul\":3882:3889   */\n      0x00\n        /* \"#utility.yul\":3911:3916   */\n      dup2\n        /* \"#utility.yul\":3900:3916   */\n      swap1\n      pop\n        /* \"#utility.yul\":3846:3922   */\n      swap2\n      swap1\n      pop\n      jump\t// out\n        /* \"#utility.yul\":3928:4455   */\n    tag_100:\n        /* \"#utility.yul\":3967:3971   */\n      0x00\n        /* \"#utility.yul\":3987:4006   */\n      tag_232\n        /* \"#utility.yul\":4004:4005   */\n      dup3\n        /* \"#utility.yul\":3987:4006   */\n      tag_184\n      jump\t// in\n    tag_232:\n        /* \"#utility.yul\":3982:4006   */\n      swap2\n      pop\n        /* \"#utility.yul\":4020:4039   */\n      tag_233\n        /* \"#utility.yul\":4037:4038   */\n      dup4\n        /* \"#utility.yul\":4020:4039   */\n      tag_184\n      jump\t// in\n    tag_233:\n        /* \"#utility.yul\":4015:4039   */\n      swap3\n      pop\n        /* \"#utility.yul\":4209:4210   */\n      dup3\n        /* \"#utility.yul\":4141:4207   */\n      0x8000000000000000000000000000000000000000000000000000000000000000\n        /* \"#utility.yul\":4137:4211   */\n      add\n        /* \"#utility.yul\":4134:4135   */\n      dup3\n        /* \"#utility.yul\":4130:4212   */\n      slt\n        /* \"#utility.yul\":4125:4126   */\n      0x00\n        /* \"#utility.yul\":4122:4123   */\n      dup5\n        /* \"#utility.yul\":4118:4127   */\n      slt\n        /* \"#utility.yul\":4111:4128   */\n      iszero\n        /* \"#utility.yul\":4107:4213   */\n      and\n        /* \"#utility.yul\":4104:4236   */\n      iszero\n      tag_234\n      jumpi\n        /* \"#utility.yul\":4216:4234   */\n      tag_235\n      tag_183\n      jump\t// in\n    tag_235:\n        /* \"#utility.yul\":4104:4236   */\n    tag_234:\n        /* \"#utility.yul\":4395:4396   */\n      dup3\n        /* \"#utility.yul\":4327:4393   */\n      0x7fffffffffffffffffffffffffffffffffffffffffffffffffffffffffffffff\n        /* \"#utility.yul\":4323:4397   */\n      add\n        /* \"#utility.yul\":4320:4321   */\n      dup3\n        /* \"#utility.yul\":4316:4398   */\n      sgt\n        /* \"#utility.yul\":4312:4313   */\n      0x00\n        /* \"#utility.yul\":4309:4310   */\n      dup5\n        /* \"#utility.yul\":4305:4314   */\n      slt\n        /* \"#utility.yul\":4301:4399   */\n      and\n        /* \"#utility.yul\":4298:4422   */\n      iszero\n      tag_236\n      jumpi\n        /* \"#utility.yul\":4402:4420   */\n      tag_237\n      tag_183\n      jump\t// in\n    tag_237:\n        /* \"#utility.yul\":4298:4422   */\n    tag_236:\n        /* \"#utility.yul\":4447:4448   */\n      dup3\n        /* \"#utility.yul\":4444:4445   */\n      dup3\n        /* \"#utility.yul\":4440:4449   */\n      sub\n        /* \"#utility.yul\":4432:4449   */\n      swap1\n      pop\n        /* \"#utility.yul\":3928:4455   */\n      swap3\n      swap2\n      pop\n      pop\n      jump\t// out\n        /* \"#utility.yul\":4461:4641   */\n    tag_185:\n        /* \"#utility.yul\":4509:4586   */\n      0x4e487b7100000000000000000000000000000000000000000000000000000000\n        /* \"#utility.yul\":4506:4507   */\n      0x00\n        /* \"#utility.yul\":4499:4587   */\n      mstore\n        /* \"#utility.yul\":4606:4610   */\n      0x12\n        /* \"#utility.yul\":4603:4604   */\n      0x04\n        /* \"#utility.yul\":4596:4611   */\n      mstore\n        /* \"#utility.yul\":4630:4634   */\n      0x24\n        /* \"#utility.yul\":4627:4628   */\n      0x00\n        /* \"#utility.yul\":4620:4635   */\n      revert\n        /* \"#utility.yul\":4647:5032   */\n    tag_102:\n        /* \"#utility.yul\":4686:4687   */\n      0x00\n        /* \"#utility.yul\":4703:4722   */\n      tag_240\n        /* \"#utility.yul\":4720:4721   */\n      dup3\n        /* \"#utility.yul\":4703:4722   */\n      tag_184\n      jump\t// in\n    tag_240:\n        /* \"#utility.yul\":4698:4722   */\n      swap2\n      pop\n        /* \"#utility.yul\":4736:4755   */\n      tag_241\n        /* \"#utility.yul\":4753:4754   */\n      dup4\n        /* \"#utility.yul\":4736:4755   */\n      tag_184\n      jump\t// in\n    tag_241:\n        /* \"#utility.yul\":4731:4755   */\n      swap3\n      pop\n        /* \"#utility.yul\":4774:4775   */\n      dup3\n        /* \"#utility.yul\":4764:4799   */\n      tag_242\n      jumpi\n        /* \"#utility.yul\":4779:4797   */\n      tag_243\n      tag_185\n      jump\t// in\n    tag_243:\n        /* \"#utility.yul\":4764:4799   */\n    tag_242:\n        /* \"#utility.yul\":4965:4966   */\n      0x01\n        /* \"#utility.yul\":4962:4963   */\n      0x00\n        /* \"#utility.yul\":4958:4967   */\n      sub\n        /* \"#utility.yul\":4955:4956   */\n      dup4\n        /* \"#utility.yul\":4952:4968   */\n      eq\n        /* \"#utility.yul\":4871:4937   */\n      0x8000000000000000000000000000000000000000000000000000000000000000\n        /* \"#utility.yul\":4868:4869   */\n      dup4\n        /* \"#utility.yul\":4865:4938   */\n      eq\n        /* \"#utility.yul\":4848:4978   */\n      and\n        /* \"#utility.yul\":4845:5001   */\n      iszero\n      tag_244\n      jumpi\n        /* \"#utility.yul\":4981:4999   */\n      tag_245\n      tag_183\n      jump\t// in\n    tag_245:\n        /* \"#utility.yul\":4845:5001   */\n    tag_244:\n        /* \"#utility.yul\":5024:5025   */\n      dup3\n        /* \"#utility.yul\":5021:5022   */\n      dup3\n        /* \"#utility.yul\":5016:5026   */\n      sdiv\n        /* \"#utility.yul\":5011:5026   */\n      swap1\n      pop\n        /* \"#utility.yul\":4647:5032   */\n      swap3\n      swap2\n      pop\n      pop\n      jump\t// out\n        /* \"#utility.yul\":5038:5563   */\n    tag_104:\n        /* \"#utility.yul\":5077:5080   */\n      0x00\n        /* \"#utility.yul\":5096:5115   */\n      tag_247\n        /* \"#utility.yul\":5113:5114   */\n      dup3\n        /* \"#utility.yul\":5096:5115   */\n      tag_184\n      jump\t// in\n    tag_247:\n        /* \"#utility.yul\":5091:5115   */\n      swap2\n      pop\n        /* \"#utility.yul\":5129:5148   */\n      tag_248\n        /* \"#utility.yul\":5146:5147   */\n      dup4\n        /* \"#utility.yul\":5129:5148   */\n      tag_184\n      jump\t// in\n    tag_248:\n        /* \"#utility.yul\":5124:5148   */\n      swap3\n      pop\n        /* \"#utility.yul\":5317:5318   */\n      dup2\n        /* \"#utility.yul\":5249:5315   */\n      0x7fffffffffffffffffffffffffffffffffffffffffffffffffffffffffffffff\n        /* \"#utility.yul\":5245:5319   */\n      sub\n        /* \"#utility.yul\":5242:5243   */\n      dup4\n        /* \"#utility.yul\":5238:5320   */\n      sgt\n        /* \"#utility.yul\":5233:5234   */\n      0x00\n        /* \"#utility.yul\":5230:5231   */\n      dup4\n        /* \"#utility.yul\":5226:5235   */\n      slt\n        /* \"#utility.yul\":5219:5236   */\n      iszero\n        /* \"#utility.yul\":5215:5321   */\n      and\n        /* \"#utility.yul\":5212:5344   */\n      iszero\n      tag_249\n      jumpi\n        /* \"#utility.yul\":5324:5342   */\n      tag_250\n      tag_183\n      jump\t// in\n    tag_250:\n        /* \"#utility.yul\":5212:5344   */\n    tag_249:\n        /* \"#utility.yul\":5504:5505   */\n      dup2\n        /* \"#utility.yul\":5436:5502   */\n      0x8000000000000000000000000000000000000000000000000000000000000000\n        /* \"#utility.yul\":5432:5506   */\n      sub\n        /* \"#utility.yul\":5429:5430   */\n      dup4\n        /* \"#utility.yul\":5425:5507   */\n      slt\n        /* \"#utility.yul\":5421:5422   */\n      0x00\n        /* \"#utility.yul\":5418:5419   */\n      dup4\n        /* \"#utility.yul\":5414:5423   */\n      slt\n        /* \"#utility.yul\":5410:5508   */\n      and\n        /* \"#utility.yul\":5407:5531   */\n      iszero\n      tag_251\n      jumpi\n        /* \"#utility.yul\":5511:5529   */\n      tag_252\n      tag_183\n      jump\t// in\n    tag_252:\n        /* \"#utility.yul\":5407:5531   */\n    tag_251:\n        /* \"#utility.yul\":5555:5556   */\n      dup3\n        /* \"#utility.yul\":5552:5553   */\n      dup3\n        /* \"#utility.yul\":5548:5557   */\n      add\n        /* \"#utility.yul\":5541:5557   */\n      swap1\n      pop\n        /* \"#utility.yul\":5038:5563   */\n      swap3\n      swap2\n      pop\n      pop\n      jump\t// out\n        /* \"#utility.yul\":5569:5800   */\n    tag_114:\n        /* \"#utility.yul\":5607:5610   */\n      0x00\n        /* \"#utility.yul\":5630:5653   */\n      tag_254\n        /* \"#utility.yul\":5647:5652   */\n      dup3\n        /* \"#utility.yul\":5630:5653   */\n      tag_184\n      jump\t// in\n    tag_254:\n        /* \"#utility.yul\":5621:5653   */\n      swap2\n      pop\n        /* \"#utility.yul\":5675:5741   */\n      0x7fffffffffffffffffffffffffffffffffffffffffffffffffffffffffffffff\n        /* \"#utility.yul\":5668:5673   */\n      dup3\n        /* \"#utility.yul\":5665:5742   */\n      sub\n        /* \"#utility.yul\":5662:5765   */\n      tag_255\n      jumpi\n        /* \"#utility.yul\":5745:5763   */\n      tag_256\n      tag_183\n      jump\t// in\n    tag_256:\n        /* \"#utility.yul\":5662:5765   */\n    tag_255:\n        /* \"#utility.yul\":5792:5793   */\n      0x01\n        /* \"#utility.yul\":5785:5790   */\n      dup3\n        /* \"#utility.yul\":5781:5794   */\n      add\n        /* \"#utility.yul\":5774:5794   */\n      swap1\n      pop\n        /* \"#utility.yul\":5569:5800   */\n      swap2\n      swap1\n      pop\n      jump\t// out\n        /* \"#utility.yul\":5806:6037   */\n    tag_120:\n        /* \"#utility.yul\":5844:5847   */\n      0x00\n        /* \"#utility.yul\":5867:5890   */\n      tag_258\n        /* \"#utility.yul\":5884:5889   */\n      dup3\n        /* \"#utility.yul\":5867:5890   */\n      tag_184\n      jump\t// in\n    tag_258:\n        /* \"#utility.yul\":5858:5890   */\n      swap2\n      pop\n        /* \"#utility.yul\":5912:5978   */\n      0x8000000000000000000000000000000000000000000000000000000000000000\n        /* \"#utility.yul\":5905:5910   */\n      dup3\n        /* \"#utility.yul\":5902:5979   */\n      sub\n        /* \"#utility.yul\":5899:6002   */\n      tag_259\n      jumpi\n        /* \"#utility.yul\":5982:6000   */\n      tag_260\n      tag_183\n      jump\t// in\n    tag_260:\n        /* \"#utility.yul\":5899:6002   */\n    tag_259:\n        /* \"#utility.yul\":6029:6030   */\n      0x01\n        /* \"#utility.yul\":6022:6027   */\n      dup3\n        /* \"#utility.yul\":6018:6031   */\n      sub\n        /* \"#utility.yul\":6011:6031   */\n      swap1\n      pop\n        /* \"#utility.yul\":5806:6037   */\n      swap2\n      swap1\n      pop\n      jump\t// out\n\n    auxdata: 0xa2646970667358221220bf3de109708158a407ab1ab737af66f4149a04b6d1ba16d0f56f58fad1e8fc3464736f6c634300080d0033\n}\n",
				"bytecode": {
					"linkReferences": {},
					"object": "608060405234801561001057600080fd5b50610fb6806100206000396000f3fe608060405234801561001057600080fd5b50600436106100625760003560e01c8063122de8f2146100675780631628e0f51461008557806378c5b268146100a15780639703ef35146100bd5780639979ef45146100d9578063ce0cdc87146100f5575b600080fd5b61006f610113565b60405161007c9190610bcb565b60405180910390f35b61009f600480360381019061009a9190610c1e565b610239565b005b6100bb60048036038101906100b69190610c1e565b6102a0565b005b6100d760048036038101906100d29190610c1e565b610362565b005b6100f360048036038101906100ee9190610c1e565b6103c9565b005b6100fd61048b565b60405161010a9190610bcb565b60405180910390f35b606061011d6105b1565b60005b6001805490508110156101e2573373ffffffffffffffffffffffffffffffffffffffff166001828154811061015857610157610c4b565b5b906000526020600020906003020160000160009054906101000a900473ffffffffffffffffffffffffffffffffffffffff1673ffffffffffffffffffffffffffffffffffffffff16036101cf5760028190806001815401808255809150506001900390600052602060002001600090919091909150555b80806101da90610ca9565b915050610120565b50600280548060200260200160405190810160405280929190818152602001828054801561022f57602002820191906000526020600020905b81548152602001906001019080831161021b575b5050505050905090565b6001818154811061024d5761024c610c4b565b5b9060005260206000209060030201600080820160006101000a81549073ffffffffffffffffffffffffffffffffffffffff021916905560018201600090556002820160009055505061029d6105f9565b50565b600060405180606001604052803373ffffffffffffffffffffffffffffffffffffffff168152602001838152602001428152509050600181908060018154018082558091505060019003906000526020600020906003020160009091909190915060008201518160000160006101000a81548173ffffffffffffffffffffffffffffffffffffffff021916908373ffffffffffffffffffffffffffffffffffffffff160217905550602082015181600101556040820151816002015550505050565b6000818154811061037657610375610c4b565b5b9060005260206000209060030201600080820160006101000a81549073ffffffffffffffffffffffffffffffffffffffff02191690556001820160009055600282016000905550506103c66106d9565b50565b600060405180606001604052803373ffffffffffffffffffffffffffffffffffffffff168152602001838152602001428152509050600081908060018154018082558091505060019003906000526020600020906003020160009091909190915060008201518160000160006101000a81548173ffffffffffffffffffffffffffffffffffffffff021916908373ffffffffffffffffffffffffffffffffffffffff160217905550602082015181600101556040820151816002015550505050565b60606104956105b1565b60005b60008054905081101561055a573373ffffffffffffffffffffffffffffffffffffffff16600082815481106104d0576104cf610c4b565b5b906000526020600020906003020160000160009054906101000a900473ffffffffffffffffffffffffffffffffffffffff1673ffffffffffffffffffffffffffffffffffffffff16036105475760028190806001815401808255809150506001900390600052602060002001600090919091909150555b808061055290610ca9565b915050610498565b5060028054806020026020016040519081016040528092919081815260200182805480156105a757602002820191906000526020600020905b815481526020019060010190808311610593575b5050505050905090565b60005b6002805490508110156105f657600281815481106105d5576105d4610c4b565b5b906000526020600020016000905580806105ee90610ca9565b9150506105b4565b50565b6106d76000805480602002602001604051908101604052809291908181526020016000905b828210156106ba57838290600052602060002090600302016040518060600160405290816000820160009054906101000a900473ffffffffffffffffffffffffffffffffffffffff1673ffffffffffffffffffffffffffffffffffffffff1673ffffffffffffffffffffffffffffffffffffffff168152602001600182015481526020016002820154815250508152602001906001019061061e565b50505050600060016000805490506106d29190610cf1565b6107b9565b565b6107b76000805480602002602001604051908101604052809291908181526020016000905b8282101561079a57838290600052602060002090600302016040518060600160405290816000820160009054906101000a900473ffffffffffffffffffffffffffffffffffffffff1673ffffffffffffffffffffffffffffffffffffffff1673ffffffffffffffffffffffffffffffffffffffff16815260200160018201548152602001600282015481525050815260200190600101906106fe565b50505050600060016000805490506107b29190610cf1565b61095e565b565b600082905060008290508082036107d1575050610959565b600085600286866107e29190610d2f565b6107ec9190610df2565b866107f79190610e5c565b8151811061080857610807610c4b565b5b60200260200101516040015190505b81831361092d575b8086848151811061083357610832610c4b565b5b602002602001015160400151111561085857828061085090610ef0565b93505061081f565b5b85828151811061086c5761086b610c4b565b5b60200260200101516040015181111561089257818061088a90610f38565b925050610859565b818313610928578582815181106108ac576108ab610c4b565b5b60200260200101518684815181106108c7576108c6610c4b565b5b60200260200101518785815181106108e2576108e1610c4b565b5b602002602001018885815181106108fc576108fb610c4b565b5b602002602001018290528290525050828061091690610ef0565b935050818061092490610f38565b9250505b610817565b81851215610941576109408686846107b9565b5b83831215610955576109548684866107b9565b5b5050505b505050565b60008290506000829050808203610976575050610afe565b600085600286866109879190610d2f565b6109919190610df2565b8661099c9190610e5c565b815181106109ad576109ac610c4b565b5b60200260200101516040015190505b818313610ad2575b808684815181106109d8576109d7610c4b565b5b60200260200101516040015110156109fd5782806109f590610ef0565b9350506109c4565b5b858281518110610a1157610a10610c4b565b5b602002602001015160400151811015610a37578180610a2f90610f38565b9250506109fe565b818313610acd57858281518110610a5157610a50610c4b565b5b6020026020010151868481518110610a6c57610a6b610c4b565b5b6020026020010151878581518110610a8757610a86610c4b565b5b60200260200101888581518110610aa157610aa0610c4b565b5b6020026020010182905282905250508280610abb90610ef0565b9350508180610ac990610f38565b9250505b6109bc565b81851215610ae657610ae586868461095e565b5b83831215610afa57610af986848661095e565b5b5050505b505050565b600081519050919050565b600082825260208201905092915050565b6000819050602082019050919050565b6000819050919050565b610b4281610b2f565b82525050565b6000610b548383610b39565b60208301905092915050565b6000602082019050919050565b6000610b7882610b03565b610b828185610b0e565b9350610b8d83610b1f565b8060005b83811015610bbe578151610ba58882610b48565b9750610bb083610b60565b925050600181019050610b91565b5085935050505092915050565b60006020820190508181036000830152610be58184610b6d565b905092915050565b600080fd5b610bfb81610b2f565b8114610c0657600080fd5b50565b600081359050610c1881610bf2565b92915050565b600060208284031215610c3457610c33610bed565b5b6000610c4284828501610c09565b91505092915050565b7f4e487b7100000000000000000000000000000000000000000000000000000000600052603260045260246000fd5b7f4e487b7100000000000000000000000000000000000000000000000000000000600052601160045260246000fd5b6000610cb482610b2f565b91507fffffffffffffffffffffffffffffffffffffffffffffffffffffffffffffffff8203610ce657610ce5610c7a565b5b600182019050919050565b6000610cfc82610b2f565b9150610d0783610b2f565b925082821015610d1a57610d19610c7a565b5b828203905092915050565b6000819050919050565b6000610d3a82610d25565b9150610d4583610d25565b9250827f800000000000000000000000000000000000000000000000000000000000000001821260008412151615610d8057610d7f610c7a565b5b827f7fffffffffffffffffffffffffffffffffffffffffffffffffffffffffffffff018213600084121615610db857610db7610c7a565b5b828203905092915050565b7f4e487b7100000000000000000000000000000000000000000000000000000000600052601260045260246000fd5b6000610dfd82610d25565b9150610e0883610d25565b925082610e1857610e17610dc3565b5b600160000383147f800000000000000000000000000000000000000000000000000000000000000083141615610e5157610e50610c7a565b5b828205905092915050565b6000610e6782610d25565b9150610e7283610d25565b9250817f7fffffffffffffffffffffffffffffffffffffffffffffffffffffffffffffff03831360008312151615610ead57610eac610c7a565b5b817f8000000000000000000000000000000000000000000000000000000000000000038312600083121615610ee557610ee4610c7a565b5b828201905092915050565b6000610efb82610d25565b91507f7fffffffffffffffffffffffffffffffffffffffffffffffffffffffffffffff8203610f2d57610f2c610c7a565b5b600182019050919050565b6000610f4382610d25565b91507f80000000000000000000000000000000000000000000000000000000000000008203610f7557610f74610c7a565b5b60018203905091905056fea2646970667358221220bf3de109708158a407ab1ab737af66f4149a04b6d1ba16d0f56f58fad1e8fc3464736f6c634300080d0033",
					"opcodes": "PUSH1 0x80 PUSH1 0x40 MSTORE CALLVALUE DUP1 ISZERO PUSH2 0x10 JUMPI PUSH1 0x0 DUP1 REVERT JUMPDEST POP PUSH2 0xFB6 DUP1 PUSH2 0x20 PUSH1 0x0 CODECOPY PUSH1 0x0 RETURN INVALID PUSH1 0x80 PUSH1 0x40 MSTORE CALLVALUE DUP1 ISZERO PUSH2 0x10 JUMPI PUSH1 0x0 DUP1 REVERT JUMPDEST POP PUSH1 0x4 CALLDATASIZE LT PUSH2 0x62 JUMPI PUSH1 0x0 CALLDATALOAD PUSH1 0xE0 SHR DUP1 PUSH4 0x122DE8F2 EQ PUSH2 0x67 JUMPI DUP1 PUSH4 0x1628E0F5 EQ PUSH2 0x85 JUMPI DUP1 PUSH4 0x78C5B268 EQ PUSH2 0xA1 JUMPI DUP1 PUSH4 0x9703EF35 EQ PUSH2 0xBD JUMPI DUP1 PUSH4 0x9979EF45 EQ PUSH2 0xD9 JUMPI DUP1 PUSH4 0xCE0CDC87 EQ PUSH2 0xF5 JUMPI JUMPDEST PUSH1 0x0 DUP1 REVERT JUMPDEST PUSH2 0x6F PUSH2 0x113 JUMP JUMPDEST PUSH1 0x40 MLOAD PUSH2 0x7C SWAP2 SWAP1 PUSH2 0xBCB JUMP JUMPDEST PUSH1 0x40 MLOAD DUP1 SWAP2 SUB SWAP1 RETURN JUMPDEST PUSH2 0x9F PUSH1 0x4 DUP1 CALLDATASIZE SUB DUP2 ADD SWAP1 PUSH2 0x9A SWAP2 SWAP1 PUSH2 0xC1E JUMP JUMPDEST PUSH2 0x239 JUMP JUMPDEST STOP JUMPDEST PUSH2 0xBB PUSH1 0x4 DUP1 CALLDATASIZE SUB DUP2 ADD SWAP1 PUSH2 0xB6 SWAP2 SWAP1 PUSH2 0xC1E JUMP JUMPDEST PUSH2 0x2A0 JUMP JUMPDEST STOP JUMPDEST PUSH2 0xD7 PUSH1 0x4 DUP1 CALLDATASIZE SUB DUP2 ADD SWAP1 PUSH2 0xD2 SWAP2 SWAP1 PUSH2 0xC1E JUMP JUMPDEST PUSH2 0x362 JUMP JUMPDEST STOP JUMPDEST PUSH2 0xF3 PUSH1 0x4 DUP1 CALLDATASIZE SUB DUP2 ADD SWAP1 PUSH2 0xEE SWAP2 SWAP1 PUSH2 0xC1E JUMP JUMPDEST PUSH2 0x3C9 JUMP JUMPDEST STOP JUMPDEST PUSH2 0xFD PUSH2 0x48B JUMP JUMPDEST PUSH1 0x40 MLOAD PUSH2 0x10A SWAP2 SWAP1 PUSH2 0xBCB JUMP JUMPDEST PUSH1 0x40 MLOAD DUP1 SWAP2 SUB SWAP1 RETURN JUMPDEST PUSH1 0x60 PUSH2 0x11D PUSH2 0x5B1 JUMP JUMPDEST PUSH1 0x0 JUMPDEST PUSH1 0x1 DUP1 SLOAD SWAP1 POP DUP2 LT ISZERO PUSH2 0x1E2 JUMPI CALLER PUSH20 0xFFFFFFFFFFFFFFFFFFFFFFFFFFFFFFFFFFFFFFFF AND PUSH1 0x1 DUP3 DUP2 SLOAD DUP2 LT PUSH2 0x158 JUMPI PUSH2 0x157 PUSH2 0xC4B JUMP JUMPDEST JUMPDEST SWAP1 PUSH1 0x0 MSTORE PUSH1 0x20 PUSH1 0x0 KECCAK256 SWAP1 PUSH1 0x3 MUL ADD PUSH1 0x0 ADD PUSH1 0x0 SWAP1 SLOAD SWAP1 PUSH2 0x100 EXP SWAP1 DIV PUSH20 0xFFFFFFFFFFFFFFFFFFFFFFFFFFFFFFFFFFFFFFFF AND PUSH20 0xFFFFFFFFFFFFFFFFFFFFFFFFFFFFFFFFFFFFFFFF AND SUB PUSH2 0x1CF JUMPI PUSH1 0x2 DUP2 SWAP1 DUP1 PUSH1 0x1 DUP2 SLOAD ADD DUP1 DUP3 SSTORE DUP1 SWAP2 POP POP PUSH1 0x1 SWAP1 SUB SWAP1 PUSH1 0x0 MSTORE PUSH1 0x20 PUSH1 0x0 KECCAK256 ADD PUSH1 0x0 SWAP1 SWAP2 SWAP1 SWAP2 SWAP1 SWAP2 POP SSTORE JUMPDEST DUP1 DUP1 PUSH2 0x1DA SWAP1 PUSH2 0xCA9 JUMP JUMPDEST SWAP2 POP POP PUSH2 0x120 JUMP JUMPDEST POP PUSH1 0x2 DUP1 SLOAD DUP1 PUSH1 0x20 MUL PUSH1 0x20 ADD PUSH1 0x40 MLOAD SWAP1 DUP2 ADD PUSH1 0x40 MSTORE DUP1 SWAP3 SWAP2 SWAP1 DUP2 DUP2 MSTORE PUSH1 0x20 ADD DUP3 DUP1 SLOAD DUP1 ISZERO PUSH2 0x22F JUMPI PUSH1 0x20 MUL DUP3 ADD SWAP2 SWAP1 PUSH1 0x0 MSTORE PUSH1 0x20 PUSH1 0x0 KECCAK256 SWAP1 JUMPDEST DUP2 SLOAD DUP2 MSTORE PUSH1 0x20 ADD SWAP1 PUSH1 0x1 ADD SWAP1 DUP1 DUP4 GT PUSH2 0x21B JUMPI JUMPDEST POP POP POP POP POP SWAP1 POP SWAP1 JUMP JUMPDEST PUSH1 0x1 DUP2 DUP2 SLOAD DUP2 LT PUSH2 0x24D JUMPI PUSH2 0x24C PUSH2 0xC4B JUMP JUMPDEST JUMPDEST SWAP1 PUSH1 0x0 MSTORE PUSH1 0x20 PUSH1 0x0 KECCAK256 SWAP1 PUSH1 0x3 MUL ADD PUSH1 0x0 DUP1 DUP3 ADD PUSH1 0x0 PUSH2 0x100 EXP DUP2 SLOAD SWAP1 PUSH20 0xFFFFFFFFFFFFFFFFFFFFFFFFFFFFFFFFFFFFFFFF MUL NOT AND SWAP1 SSTORE PUSH1 0x1 DUP3 ADD PUSH1 0x0 SWAP1 SSTORE PUSH1 0x2 DUP3 ADD PUSH1 0x0 SWAP1 SSTORE POP POP PUSH2 0x29D PUSH2 0x5F9 JUMP JUMPDEST POP JUMP JUMPDEST PUSH1 0x0 PUSH1 0x40 MLOAD DUP1 PUSH1 0x60 ADD PUSH1 0x40 MSTORE DUP1 CALLER PUSH20 0xFFFFFFFFFFFFFFFFFFFFFFFFFFFFFFFFFFFFFFFF AND DUP2 MSTORE PUSH1 0x20 ADD DUP4 DUP2 MSTORE PUSH1 0x20 ADD TIMESTAMP DUP2 MSTORE POP SWAP1 POP PUSH1 0x1 DUP2 SWAP1 DUP1 PUSH1 0x1 DUP2 SLOAD ADD DUP1 DUP3 SSTORE DUP1 SWAP2 POP POP PUSH1 0x1 SWAP1 SUB SWAP1 PUSH1 0x0 MSTORE PUSH1 0x20 PUSH1 0x0 KECCAK256 SWAP1 PUSH1 0x3 MUL ADD PUSH1 0x0 SWAP1 SWAP2 SWAP1 SWAP2 SWAP1 SWAP2 POP PUSH1 0x0 DUP3 ADD MLOAD DUP2 PUSH1 0x0 ADD PUSH1 0x0 PUSH2 0x100 EXP DUP2 SLOAD DUP2 PUSH20 0xFFFFFFFFFFFFFFFFFFFFFFFFFFFFFFFFFFFFFFFF MUL NOT AND SWAP1 DUP4 PUSH20 0xFFFFFFFFFFFFFFFFFFFFFFFFFFFFFFFFFFFFFFFF AND MUL OR SWAP1 SSTORE POP PUSH1 0x20 DUP3 ADD MLOAD DUP2 PUSH1 0x1 ADD SSTORE PUSH1 0x40 DUP3 ADD MLOAD DUP2 PUSH1 0x2 ADD SSTORE POP POP POP POP JUMP JUMPDEST PUSH1 0x0 DUP2 DUP2 SLOAD DUP2 LT PUSH2 0x376 JUMPI PUSH2 0x375 PUSH2 0xC4B JUMP JUMPDEST JUMPDEST SWAP1 PUSH1 0x0 MSTORE PUSH1 0x20 PUSH1 0x0 KECCAK256 SWAP1 PUSH1 0x3 MUL ADD PUSH1 0x0 DUP1 DUP3 ADD PUSH1 0x0 PUSH2 0x100 EXP DUP2 SLOAD SWAP1 PUSH20 0xFFFFFFFFFFFFFFFFFFFFFFFFFFFFFFFFFFFFFFFF MUL NOT AND SWAP1 SSTORE PUSH1 0x1 DUP3 ADD PUSH1 0x0 SWAP1 SSTORE PUSH1 0x2 DUP3 ADD PUSH1 0x0 SWAP1 SSTORE POP POP PUSH2 0x3C6 PUSH2 0x6D9 JUMP JUMPDEST POP JUMP JUMPDEST PUSH1 0x0 PUSH1 0x40 MLOAD DUP1 PUSH1 0x60 ADD PUSH1 0x40 MSTORE DUP1 CALLER PUSH20 0xFFFFFFFFFFFFFFFFFFFFFFFFFFFFFFFFFFFFFFFF AND DUP2 MSTORE PUSH1 0x20 ADD DUP4 DUP2 MSTORE PUSH1 0x20 ADD TIMESTAMP DUP2 MSTORE POP SWAP1 POP PUSH1 0x0 DUP2 SWAP1 DUP1 PUSH1 0x1 DUP2 SLOAD ADD DUP1 DUP3 SSTORE DUP1 SWAP2 POP POP PUSH1 0x1 SWAP1 SUB SWAP1 PUSH1 0x0 MSTORE PUSH1 0x20 PUSH1 0x0 KECCAK256 SWAP1 PUSH1 0x3 MUL ADD PUSH1 0x0 SWAP1 SWAP2 SWAP1 SWAP2 SWAP1 SWAP2 POP PUSH1 0x0 DUP3 ADD MLOAD DUP2 PUSH1 0x0 ADD PUSH1 0x0 PUSH2 0x100 EXP DUP2 SLOAD DUP2 PUSH20 0xFFFFFFFFFFFFFFFFFFFFFFFFFFFFFFFFFFFFFFFF MUL NOT AND SWAP1 DUP4 PUSH20 0xFFFFFFFFFFFFFFFFFFFFFFFFFFFFFFFFFFFFFFFF AND MUL OR SWAP1 SSTORE POP PUSH1 0x20 DUP3 ADD MLOAD DUP2 PUSH1 0x1 ADD SSTORE PUSH1 0x40 DUP3 ADD MLOAD DUP2 PUSH1 0x2 ADD SSTORE POP POP POP POP JUMP JUMPDEST PUSH1 0x60 PUSH2 0x495 PUSH2 0x5B1 JUMP JUMPDEST PUSH1 0x0 JUMPDEST PUSH1 0x0 DUP1 SLOAD SWAP1 POP DUP2 LT ISZERO PUSH2 0x55A JUMPI CALLER PUSH20 0xFFFFFFFFFFFFFFFFFFFFFFFFFFFFFFFFFFFFFFFF AND PUSH1 0x0 DUP3 DUP2 SLOAD DUP2 LT PUSH2 0x4D0 JUMPI PUSH2 0x4CF PUSH2 0xC4B JUMP JUMPDEST JUMPDEST SWAP1 PUSH1 0x0 MSTORE PUSH1 0x20 PUSH1 0x0 KECCAK256 SWAP1 PUSH1 0x3 MUL ADD PUSH1 0x0 ADD PUSH1 0x0 SWAP1 SLOAD SWAP1 PUSH2 0x100 EXP SWAP1 DIV PUSH20 0xFFFFFFFFFFFFFFFFFFFFFFFFFFFFFFFFFFFFFFFF AND PUSH20 0xFFFFFFFFFFFFFFFFFFFFFFFFFFFFFFFFFFFFFFFF AND SUB PUSH2 0x547 JUMPI PUSH1 0x2 DUP2 SWAP1 DUP1 PUSH1 0x1 DUP2 SLOAD ADD DUP1 DUP3 SSTORE DUP1 SWAP2 POP POP PUSH1 0x1 SWAP1 SUB SWAP1 PUSH1 0x0 MSTORE PUSH1 0x20 PUSH1 0x0 KECCAK256 ADD PUSH1 0x0 SWAP1 SWAP2 SWAP1 SWAP2 SWAP1 SWAP2 POP SSTORE JUMPDEST DUP1 DUP1 PUSH2 0x552 SWAP1 PUSH2 0xCA9 JUMP JUMPDEST SWAP2 POP POP PUSH2 0x498 JUMP JUMPDEST POP PUSH1 0x2 DUP1 SLOAD DUP1 PUSH1 0x20 MUL PUSH1 0x20 ADD PUSH1 0x40 MLOAD SWAP1 DUP2 ADD PUSH1 0x40 MSTORE DUP1 SWAP3 SWAP2 SWAP1 DUP2 DUP2 MSTORE PUSH1 0x20 ADD DUP3 DUP1 SLOAD DUP1 ISZERO PUSH2 0x5A7 JUMPI PUSH1 0x20 MUL DUP3 ADD SWAP2 SWAP1 PUSH1 0x0 MSTORE PUSH1 0x20 PUSH1 0x0 KECCAK256 SWAP1 JUMPDEST DUP2 SLOAD DUP2 MSTORE PUSH1 0x20 ADD SWAP1 PUSH1 0x1 ADD SWAP1 DUP1 DUP4 GT PUSH2 0x593 JUMPI JUMPDEST POP POP POP POP POP SWAP1 POP SWAP1 JUMP JUMPDEST PUSH1 0x0 JUMPDEST PUSH1 0x2 DUP1 SLOAD SWAP1 POP DUP2 LT ISZERO PUSH2 0x5F6 JUMPI PUSH1 0x2 DUP2 DUP2 SLOAD DUP2 LT PUSH2 0x5D5 JUMPI PUSH2 0x5D4 PUSH2 0xC4B JUMP JUMPDEST JUMPDEST SWAP1 PUSH1 0x0 MSTORE PUSH1 0x20 PUSH1 0x0 KECCAK256 ADD PUSH1 0x0 SWAP1 SSTORE DUP1 DUP1 PUSH2 0x5EE SWAP1 PUSH2 0xCA9 JUMP JUMPDEST SWAP2 POP POP PUSH2 0x5B4 JUMP JUMPDEST POP JUMP JUMPDEST PUSH2 0x6D7 PUSH1 0x0 DUP1 SLOAD DUP1 PUSH1 0x20 MUL PUSH1 0x20 ADD PUSH1 0x40 MLOAD SWAP1 DUP2 ADD PUSH1 0x40 MSTORE DUP1 SWAP3 SWAP2 SWAP1 DUP2 DUP2 MSTORE PUSH1 0x20 ADD PUSH1 0x0 SWAP1 JUMPDEST DUP3 DUP3 LT ISZERO PUSH2 0x6BA JUMPI DUP4 DUP3 SWAP1 PUSH1 0x0 MSTORE PUSH1 0x20 PUSH1 0x0 KECCAK256 SWAP1 PUSH1 0x3 MUL ADD PUSH1 0x40 MLOAD DUP1 PUSH1 0x60 ADD PUSH1 0x40 MSTORE SWAP1 DUP2 PUSH1 0x0 DUP3 ADD PUSH1 0x0 SWAP1 SLOAD SWAP1 PUSH2 0x100 EXP SWAP1 DIV PUSH20 0xFFFFFFFFFFFFFFFFFFFFFFFFFFFFFFFFFFFFFFFF AND PUSH20 0xFFFFFFFFFFFFFFFFFFFFFFFFFFFFFFFFFFFFFFFF AND PUSH20 0xFFFFFFFFFFFFFFFFFFFFFFFFFFFFFFFFFFFFFFFF AND DUP2 MSTORE PUSH1 0x20 ADD PUSH1 0x1 DUP3 ADD SLOAD DUP2 MSTORE PUSH1 0x20 ADD PUSH1 0x2 DUP3 ADD SLOAD DUP2 MSTORE POP POP DUP2 MSTORE PUSH1 0x20 ADD SWAP1 PUSH1 0x1 ADD SWAP1 PUSH2 0x61E JUMP JUMPDEST POP POP POP POP PUSH1 0x0 PUSH1 0x1 PUSH1 0x0 DUP1 SLOAD SWAP1 POP PUSH2 0x6D2 SWAP2 SWAP1 PUSH2 0xCF1 JUMP JUMPDEST PUSH2 0x7B9 JUMP JUMPDEST JUMP JUMPDEST PUSH2 0x7B7 PUSH1 0x0 DUP1 SLOAD DUP1 PUSH1 0x20 MUL PUSH1 0x20 ADD PUSH1 0x40 MLOAD SWAP1 DUP2 ADD PUSH1 0x40 MSTORE DUP1 SWAP3 SWAP2 SWAP1 DUP2 DUP2 MSTORE PUSH1 0x20 ADD PUSH1 0x0 SWAP1 JUMPDEST DUP3 DUP3 LT ISZERO PUSH2 0x79A JUMPI DUP4 DUP3 SWAP1 PUSH1 0x0 MSTORE PUSH1 0x20 PUSH1 0x0 KECCAK256 SWAP1 PUSH1 0x3 MUL ADD PUSH1 0x40 MLOAD DUP1 PUSH1 0x60 ADD PUSH1 0x40 MSTORE SWAP1 DUP2 PUSH1 0x0 DUP3 ADD PUSH1 0x0 SWAP1 SLOAD SWAP1 PUSH2 0x100 EXP SWAP1 DIV PUSH20 0xFFFFFFFFFFFFFFFFFFFFFFFFFFFFFFFFFFFFFFFF AND PUSH20 0xFFFFFFFFFFFFFFFFFFFFFFFFFFFFFFFFFFFFFFFF AND PUSH20 0xFFFFFFFFFFFFFFFFFFFFFFFFFFFFFFFFFFFFFFFF AND DUP2 MSTORE PUSH1 0x20 ADD PUSH1 0x1 DUP3 ADD SLOAD DUP2 MSTORE PUSH1 0x20 ADD PUSH1 0x2 DUP3 ADD SLOAD DUP2 MSTORE POP POP DUP2 MSTORE PUSH1 0x20 ADD SWAP1 PUSH1 0x1 ADD SWAP1 PUSH2 0x6FE JUMP JUMPDEST POP POP POP POP PUSH1 0x0 PUSH1 0x1 PUSH1 0x0 DUP1 SLOAD SWAP1 POP PUSH2 0x7B2 SWAP2 SWAP1 PUSH2 0xCF1 JUMP JUMPDEST PUSH2 0x95E JUMP JUMPDEST JUMP JUMPDEST PUSH1 0x0 DUP3 SWAP1 POP PUSH1 0x0 DUP3 SWAP1 POP DUP1 DUP3 SUB PUSH2 0x7D1 JUMPI POP POP PUSH2 0x959 JUMP JUMPDEST PUSH1 0x0 DUP6 PUSH1 0x2 DUP7 DUP7 PUSH2 0x7E2 SWAP2 SWAP1 PUSH2 0xD2F JUMP JUMPDEST PUSH2 0x7EC SWAP2 SWAP1 PUSH2 0xDF2 JUMP JUMPDEST DUP7 PUSH2 0x7F7 SWAP2 SWAP1 PUSH2 0xE5C JUMP JUMPDEST DUP2 MLOAD DUP2 LT PUSH2 0x808 JUMPI PUSH2 0x807 PUSH2 0xC4B JUMP JUMPDEST JUMPDEST PUSH1 0x20 MUL PUSH1 0x20 ADD ADD MLOAD PUSH1 0x40 ADD MLOAD SWAP1 POP JUMPDEST DUP2 DUP4 SGT PUSH2 0x92D JUMPI JUMPDEST DUP1 DUP7 DUP5 DUP2 MLOAD DUP2 LT PUSH2 0x833 JUMPI PUSH2 0x832 PUSH2 0xC4B JUMP JUMPDEST JUMPDEST PUSH1 0x20 MUL PUSH1 0x20 ADD ADD MLOAD PUSH1 0x40 ADD MLOAD GT ISZERO PUSH2 0x858 JUMPI DUP3 DUP1 PUSH2 0x850 SWAP1 PUSH2 0xEF0 JUMP JUMPDEST SWAP4 POP POP PUSH2 0x81F JUMP JUMPDEST JUMPDEST DUP6 DUP3 DUP2 MLOAD DUP2 LT PUSH2 0x86C JUMPI PUSH2 0x86B PUSH2 0xC4B JUMP JUMPDEST JUMPDEST PUSH1 0x20 MUL PUSH1 0x20 ADD ADD MLOAD PUSH1 0x40 ADD MLOAD DUP2 GT ISZERO PUSH2 0x892 JUMPI DUP2 DUP1 PUSH2 0x88A SWAP1 PUSH2 0xF38 JUMP JUMPDEST SWAP3 POP POP PUSH2 0x859 JUMP JUMPDEST DUP2 DUP4 SGT PUSH2 0x928 JUMPI DUP6 DUP3 DUP2 MLOAD DUP2 LT PUSH2 0x8AC JUMPI PUSH2 0x8AB PUSH2 0xC4B JUMP JUMPDEST JUMPDEST PUSH1 0x20 MUL PUSH1 0x20 ADD ADD MLOAD DUP7 DUP5 DUP2 MLOAD DUP2 LT PUSH2 0x8C7 JUMPI PUSH2 0x8C6 PUSH2 0xC4B JUMP JUMPDEST JUMPDEST PUSH1 0x20 MUL PUSH1 0x20 ADD ADD MLOAD DUP8 DUP6 DUP2 MLOAD DUP2 LT PUSH2 0x8E2 JUMPI PUSH2 0x8E1 PUSH2 0xC4B JUMP JUMPDEST JUMPDEST PUSH1 0x20 MUL PUSH1 0x20 ADD ADD DUP9 DUP6 DUP2 MLOAD DUP2 LT PUSH2 0x8FC JUMPI PUSH2 0x8FB PUSH2 0xC4B JUMP JUMPDEST JUMPDEST PUSH1 0x20 MUL PUSH1 0x20 ADD ADD DUP3 SWAP1 MSTORE DUP3 SWAP1 MSTORE POP POP DUP3 DUP1 PUSH2 0x916 SWAP1 PUSH2 0xEF0 JUMP JUMPDEST SWAP4 POP POP DUP2 DUP1 PUSH2 0x924 SWAP1 PUSH2 0xF38 JUMP JUMPDEST SWAP3 POP POP JUMPDEST PUSH2 0x817 JUMP JUMPDEST DUP2 DUP6 SLT ISZERO PUSH2 0x941 JUMPI PUSH2 0x940 DUP7 DUP7 DUP5 PUSH2 0x7B9 JUMP JUMPDEST JUMPDEST DUP4 DUP4 SLT ISZERO PUSH2 0x955 JUMPI PUSH2 0x954 DUP7 DUP5 DUP7 PUSH2 0x7B9 JUMP JUMPDEST JUMPDEST POP POP POP JUMPDEST POP POP POP JUMP JUMPDEST PUSH1 0x0 DUP3 SWAP1 POP PUSH1 0x0 DUP3 SWAP1 POP DUP1 DUP3 SUB PUSH2 0x976 JUMPI POP POP PUSH2 0xAFE JUMP JUMPDEST PUSH1 0x0 DUP6 PUSH1 0x2 DUP7 DUP7 PUSH2 0x987 SWAP2 SWAP1 PUSH2 0xD2F JUMP JUMPDEST PUSH2 0x991 SWAP2 SWAP1 PUSH2 0xDF2 JUMP JUMPDEST DUP7 PUSH2 0x99C SWAP2 SWAP1 PUSH2 0xE5C JUMP JUMPDEST DUP2 MLOAD DUP2 LT PUSH2 0x9AD JUMPI PUSH2 0x9AC PUSH2 0xC4B JUMP JUMPDEST JUMPDEST PUSH1 0x20 MUL PUSH1 0x20 ADD ADD MLOAD PUSH1 0x40 ADD MLOAD SWAP1 POP JUMPDEST DUP2 DUP4 SGT PUSH2 0xAD2 JUMPI JUMPDEST DUP1 DUP7 DUP5 DUP2 MLOAD DUP2 LT PUSH2 0x9D8 JUMPI PUSH2 0x9D7 PUSH2 0xC4B JUMP JUMPDEST JUMPDEST PUSH1 0x20 MUL PUSH1 0x20 ADD ADD MLOAD PUSH1 0x40 ADD MLOAD LT ISZERO PUSH2 0x9FD JUMPI DUP3 DUP1 PUSH2 0x9F5 SWAP1 PUSH2 0xEF0 JUMP JUMPDEST SWAP4 POP POP PUSH2 0x9C4 JUMP JUMPDEST JUMPDEST DUP6 DUP3 DUP2 MLOAD DUP2 LT PUSH2 0xA11 JUMPI PUSH2 0xA10 PUSH2 0xC4B JUMP JUMPDEST JUMPDEST PUSH1 0x20 MUL PUSH1 0x20 ADD ADD MLOAD PUSH1 0x40 ADD MLOAD DUP2 LT ISZERO PUSH2 0xA37 JUMPI DUP2 DUP1 PUSH2 0xA2F SWAP1 PUSH2 0xF38 JUMP JUMPDEST SWAP3 POP POP PUSH2 0x9FE JUMP JUMPDEST DUP2 DUP4 SGT PUSH2 0xACD JUMPI DUP6 DUP3 DUP2 MLOAD DUP2 LT PUSH2 0xA51 JUMPI PUSH2 0xA50 PUSH2 0xC4B JUMP JUMPDEST JUMPDEST PUSH1 0x20 MUL PUSH1 0x20 ADD ADD MLOAD DUP7 DUP5 DUP2 MLOAD DUP2 LT PUSH2 0xA6C JUMPI PUSH2 0xA6B PUSH2 0xC4B JUMP JUMPDEST JUMPDEST PUSH1 0x20 MUL PUSH1 0x20 ADD ADD MLOAD DUP8 DUP6 DUP2 MLOAD DUP2 LT PUSH2 0xA87 JUMPI PUSH2 0xA86 PUSH2 0xC4B JUMP JUMPDEST JUMPDEST PUSH1 0x20 MUL PUSH1 0x20 ADD ADD DUP9 DUP6 DUP2 MLOAD DUP2 LT PUSH2 0xAA1 JUMPI PUSH2 0xAA0 PUSH2 0xC4B JUMP JUMPDEST JUMPDEST PUSH1 0x20 MUL PUSH1 0x20 ADD ADD DUP3 SWAP1 MSTORE DUP3 SWAP1 MSTORE POP POP DUP3 DUP1 PUSH2 0xABB SWAP1 PUSH2 0xEF0 JUMP JUMPDEST SWAP4 POP POP DUP2 DUP1 PUSH2 0xAC9 SWAP1 PUSH2 0xF38 JUMP JUMPDEST SWAP3 POP POP JUMPDEST PUSH2 0x9BC JUMP JUMPDEST DUP2 DUP6 SLT ISZERO PUSH2 0xAE6 JUMPI PUSH2 0xAE5 DUP7 DUP7 DUP5 PUSH2 0x95E JUMP JUMPDEST JUMPDEST DUP4 DUP4 SLT ISZERO PUSH2 0xAFA JUMPI PUSH2 0xAF9 DUP7 DUP5 DUP7 PUSH2 0x95E JUMP JUMPDEST JUMPDEST POP POP POP JUMPDEST POP POP POP JUMP JUMPDEST PUSH1 0x0 DUP2 MLOAD SWAP1 POP SWAP2 SWAP1 POP JUMP JUMPDEST PUSH1 0x0 DUP3 DUP3 MSTORE PUSH1 0x20 DUP3 ADD SWAP1 POP SWAP3 SWAP2 POP POP JUMP JUMPDEST PUSH1 0x0 DUP2 SWAP1 POP PUSH1 0x20 DUP3 ADD SWAP1 POP SWAP2 SWAP1 POP JUMP JUMPDEST PUSH1 0x0 DUP2 SWAP1 POP SWAP2 SWAP1 POP JUMP JUMPDEST PUSH2 0xB42 DUP2 PUSH2 0xB2F JUMP JUMPDEST DUP3 MSTORE POP POP JUMP JUMPDEST PUSH1 0x0 PUSH2 0xB54 DUP4 DUP4 PUSH2 0xB39 JUMP JUMPDEST PUSH1 0x20 DUP4 ADD SWAP1 POP SWAP3 SWAP2 POP POP JUMP JUMPDEST PUSH1 0x0 PUSH1 0x20 DUP3 ADD SWAP1 POP SWAP2 SWAP1 POP JUMP JUMPDEST PUSH1 0x0 PUSH2 0xB78 DUP3 PUSH2 0xB03 JUMP JUMPDEST PUSH2 0xB82 DUP2 DUP6 PUSH2 0xB0E JUMP JUMPDEST SWAP4 POP PUSH2 0xB8D DUP4 PUSH2 0xB1F JUMP JUMPDEST DUP1 PUSH1 0x0 JUMPDEST DUP4 DUP2 LT ISZERO PUSH2 0xBBE JUMPI DUP2 MLOAD PUSH2 0xBA5 DUP9 DUP3 PUSH2 0xB48 JUMP JUMPDEST SWAP8 POP PUSH2 0xBB0 DUP4 PUSH2 0xB60 JUMP JUMPDEST SWAP3 POP POP PUSH1 0x1 DUP2 ADD SWAP1 POP PUSH2 0xB91 JUMP JUMPDEST POP DUP6 SWAP4 POP POP POP POP SWAP3 SWAP2 POP POP JUMP JUMPDEST PUSH1 0x0 PUSH1 0x20 DUP3 ADD SWAP1 POP DUP2 DUP2 SUB PUSH1 0x0 DUP4 ADD MSTORE PUSH2 0xBE5 DUP2 DUP5 PUSH2 0xB6D JUMP JUMPDEST SWAP1 POP SWAP3 SWAP2 POP POP JUMP JUMPDEST PUSH1 0x0 DUP1 REVERT JUMPDEST PUSH2 0xBFB DUP2 PUSH2 0xB2F JUMP JUMPDEST DUP2 EQ PUSH2 0xC06 JUMPI PUSH1 0x0 DUP1 REVERT JUMPDEST POP JUMP JUMPDEST PUSH1 0x0 DUP2 CALLDATALOAD SWAP1 POP PUSH2 0xC18 DUP2 PUSH2 0xBF2 JUMP JUMPDEST SWAP3 SWAP2 POP POP JUMP JUMPDEST PUSH1 0x0 PUSH1 0x20 DUP3 DUP5 SUB SLT ISZERO PUSH2 0xC34 JUMPI PUSH2 0xC33 PUSH2 0xBED JUMP JUMPDEST JUMPDEST PUSH1 0x0 PUSH2 0xC42 DUP5 DUP3 DUP6 ADD PUSH2 0xC09 JUMP JUMPDEST SWAP2 POP POP SWAP3 SWAP2 POP POP JUMP JUMPDEST PUSH32 0x4E487B7100000000000000000000000000000000000000000000000000000000 PUSH1 0x0 MSTORE PUSH1 0x32 PUSH1 0x4 MSTORE PUSH1 0x24 PUSH1 0x0 REVERT JUMPDEST PUSH32 0x4E487B7100000000000000000000000000000000000000000000000000000000 PUSH1 0x0 MSTORE PUSH1 0x11 PUSH1 0x4 MSTORE PUSH1 0x24 PUSH1 0x0 REVERT JUMPDEST PUSH1 0x0 PUSH2 0xCB4 DUP3 PUSH2 0xB2F JUMP JUMPDEST SWAP2 POP PUSH32 0xFFFFFFFFFFFFFFFFFFFFFFFFFFFFFFFFFFFFFFFFFFFFFFFFFFFFFFFFFFFFFFFF DUP3 SUB PUSH2 0xCE6 JUMPI PUSH2 0xCE5 PUSH2 0xC7A JUMP JUMPDEST JUMPDEST PUSH1 0x1 DUP3 ADD SWAP1 POP SWAP2 SWAP1 POP JUMP JUMPDEST PUSH1 0x0 PUSH2 0xCFC DUP3 PUSH2 0xB2F JUMP JUMPDEST SWAP2 POP PUSH2 0xD07 DUP4 PUSH2 0xB2F JUMP JUMPDEST SWAP3 POP DUP3 DUP3 LT ISZERO PUSH2 0xD1A JUMPI PUSH2 0xD19 PUSH2 0xC7A JUMP JUMPDEST JUMPDEST DUP3 DUP3 SUB SWAP1 POP SWAP3 SWAP2 POP POP JUMP JUMPDEST PUSH1 0x0 DUP2 SWAP1 POP SWAP2 SWAP1 POP JUMP JUMPDEST PUSH1 0x0 PUSH2 0xD3A DUP3 PUSH2 0xD25 JUMP JUMPDEST SWAP2 POP PUSH2 0xD45 DUP4 PUSH2 0xD25 JUMP JUMPDEST SWAP3 POP DUP3 PUSH32 0x8000000000000000000000000000000000000000000000000000000000000000 ADD DUP3 SLT PUSH1 0x0 DUP5 SLT ISZERO AND ISZERO PUSH2 0xD80 JUMPI PUSH2 0xD7F PUSH2 0xC7A JUMP JUMPDEST JUMPDEST DUP3 PUSH32 0x7FFFFFFFFFFFFFFFFFFFFFFFFFFFFFFFFFFFFFFFFFFFFFFFFFFFFFFFFFFFFFFF ADD DUP3 SGT PUSH1 0x0 DUP5 SLT AND ISZERO PUSH2 0xDB8 JUMPI PUSH2 0xDB7 PUSH2 0xC7A JUMP JUMPDEST JUMPDEST DUP3 DUP3 SUB SWAP1 POP SWAP3 SWAP2 POP POP JUMP JUMPDEST PUSH32 0x4E487B7100000000000000000000000000000000000000000000000000000000 PUSH1 0x0 MSTORE PUSH1 0x12 PUSH1 0x4 MSTORE PUSH1 0x24 PUSH1 0x0 REVERT JUMPDEST PUSH1 0x0 PUSH2 0xDFD DUP3 PUSH2 0xD25 JUMP JUMPDEST SWAP2 POP PUSH2 0xE08 DUP4 PUSH2 0xD25 JUMP JUMPDEST SWAP3 POP DUP3 PUSH2 0xE18 JUMPI PUSH2 0xE17 PUSH2 0xDC3 JUMP JUMPDEST JUMPDEST PUSH1 0x1 PUSH1 0x0 SUB DUP4 EQ PUSH32 0x8000000000000000000000000000000000000000000000000000000000000000 DUP4 EQ AND ISZERO PUSH2 0xE51 JUMPI PUSH2 0xE50 PUSH2 0xC7A JUMP JUMPDEST JUMPDEST DUP3 DUP3 SDIV SWAP1 POP SWAP3 SWAP2 POP POP JUMP JUMPDEST PUSH1 0x0 PUSH2 0xE67 DUP3 PUSH2 0xD25 JUMP JUMPDEST SWAP2 POP PUSH2 0xE72 DUP4 PUSH2 0xD25 JUMP JUMPDEST SWAP3 POP DUP2 PUSH32 0x7FFFFFFFFFFFFFFFFFFFFFFFFFFFFFFFFFFFFFFFFFFFFFFFFFFFFFFFFFFFFFFF SUB DUP4 SGT PUSH1 0x0 DUP4 SLT ISZERO AND ISZERO PUSH2 0xEAD JUMPI PUSH2 0xEAC PUSH2 0xC7A JUMP JUMPDEST JUMPDEST DUP2 PUSH32 0x8000000000000000000000000000000000000000000000000000000000000000 SUB DUP4 SLT PUSH1 0x0 DUP4 SLT AND ISZERO PUSH2 0xEE5 JUMPI PUSH2 0xEE4 PUSH2 0xC7A JUMP JUMPDEST JUMPDEST DUP3 DUP3 ADD SWAP1 POP SWAP3 SWAP2 POP POP JUMP JUMPDEST PUSH1 0x0 PUSH2 0xEFB DUP3 PUSH2 0xD25 JUMP JUMPDEST SWAP2 POP PUSH32 0x7FFFFFFFFFFFFFFFFFFFFFFFFFFFFFFFFFFFFFFFFFFFFFFFFFFFFFFFFFFFFFFF DUP3 SUB PUSH2 0xF2D JUMPI PUSH2 0xF2C PUSH2 0xC7A JUMP JUMPDEST JUMPDEST PUSH1 0x1 DUP3 ADD SWAP1 POP SWAP2 SWAP1 POP JUMP JUMPDEST PUSH1 0x0 PUSH2 0xF43 DUP3 PUSH2 0xD25 JUMP JUMPDEST SWAP2 POP PUSH32 0x8000000000000000000000000000000000000000000000000000000000000000 DUP3 SUB PUSH2 0xF75 JUMPI PUSH2 0xF74 PUSH2 0xC7A JUMP JUMPDEST JUMPDEST PUSH1 0x1 DUP3 SUB SWAP1 POP SWAP2 SWAP1 POP JUMP INVALID LOG2 PUSH5 0x6970667358 0x22 SLT KECCAK256 0xBF RETURNDATASIZE 0xE1 MULMOD PUSH17 0x8158A407AB1AB737AF66F4149A04B6D1BA AND 0xD0 CREATE2 PUSH16 0x58FAD1E8FC3464736F6C634300080D00 CALLER "
				},
				"gasEstimates": {
					"creation": {
						"codeDepositCost": "804400",
						"executionCost": "838",
						"totalCost": "805238"
					},
					"external": {
						"cancelAsk(uint256)": "infinite",
						"cancelBid(uint256)": "infinite",
						"fetchYourAskIds()": "infinite",
						"fetchYourBidIds()": "infinite",
						"placeAsk(uint256)": "93381",
						"placeBid(uint256)": "93425"
					},
					"internal": {
						"ascendingQuickSort(struct OrderBook.order memory[] memory,int256,int256)": "infinite",
						"deleteArray()": "infinite",
						"descendingQuickSort(struct OrderBook.order memory[] memory,int256,int256)": "infinite",
						"sortAsk()": "infinite",
						"sortBid()": "infinite"
					}
				},
				"methodIdentifiers": {
					"cancelAsk(uint256)": "1628e0f5",
					"cancelBid(uint256)": "9703ef35",
					"fetchYourAskIds()": "122de8f2",
					"fetchYourBidIds()": "ce0cdc87",
					"placeAsk(uint256)": "78c5b268",
					"placeBid(uint256)": "9979ef45"
				}
			},
			"storageLayout": {
				"storage": [
					{
						"astId": 12,
						"contract": "contracts/OrderBook.sol:OrderBook",
						"label": "bidBook",
						"offset": 0,
						"slot": "0",
						"type": "t_array(t_struct(order)8_storage)dyn_storage"
					},
					{
						"astId": 16,
						"contract": "contracts/OrderBook.sol:OrderBook",
						"label": "askBook",
						"offset": 0,
						"slot": "1",
						"type": "t_array(t_struct(order)8_storage)dyn_storage"
					},
					{
						"astId": 19,
						"contract": "contracts/OrderBook.sol:OrderBook",
						"label": "request",
						"offset": 0,
						"slot": "2",
						"type": "t_array(t_uint256)dyn_storage"
					}
				],
				"types": {
					"t_address_payable": {
						"encoding": "inplace",
						"label": "address payable",
						"numberOfBytes": "20"
					},
					"t_array(t_struct(order)8_storage)dyn_storage": {
						"base": "t_struct(order)8_storage",
						"encoding": "dynamic_array",
						"label": "struct OrderBook.order[]",
						"numberOfBytes": "32"
					},
					"t_array(t_uint256)dyn_storage": {
						"base": "t_uint256",
						"encoding": "dynamic_array",
						"label": "uint256[]",
						"numberOfBytes": "32"
					},
					"t_struct(order)8_storage": {
						"encoding": "inplace",
						"label": "struct OrderBook.order",
						"members": [
							{
								"astId": 3,
								"contract": "contracts/OrderBook.sol:OrderBook",
								"label": "customer",
								"offset": 0,
								"slot": "0",
								"type": "t_address_payable"
							},
							{
								"astId": 5,
								"contract": "contracts/OrderBook.sol:OrderBook",
								"label": "price",
								"offset": 0,
								"slot": "1",
								"type": "t_uint256"
							},
							{
								"astId": 7,
								"contract": "contracts/OrderBook.sol:OrderBook",
								"label": "timestamp",
								"offset": 0,
								"slot": "2",
								"type": "t_uint256"
							}
						],
						"numberOfBytes": "96"
					},
					"t_uint256": {
						"encoding": "inplace",
						"label": "uint256",
						"numberOfBytes": "32"
					}
				}
			},
			"userdoc": {
				"kind": "user",
				"methods": {},
				"version": 1
			}
		}
	}
}