{
	"contracts/OrderBook.sol": {
		"OrderBook": {
			"abi": [
				{
					"inputs": [
						{
							"internalType": "uint256",
							"name": "_commission",
							"type": "uint256"
						}
					],
					"stateMutability": "nonpayable",
					"type": "constructor"
				},
				{
					"anonymous": false,
					"inputs": [
						{
							"indexed": false,
							"internalType": "uint256",
							"name": "",
							"type": "uint256"
						}
					],
					"name": "askCancelled",
					"type": "event"
				},
				{
					"anonymous": false,
					"inputs": [
						{
							"indexed": false,
							"internalType": "address",
							"name": "",
							"type": "address"
						},
						{
							"indexed": false,
							"internalType": "uint256",
							"name": "",
							"type": "uint256"
						},
						{
							"indexed": false,
							"internalType": "uint256",
							"name": "",
							"type": "uint256"
						},
						{
							"indexed": false,
							"internalType": "enum OrderBook.State",
							"name": "",
							"type": "uint8"
						}
					],
					"name": "askPlaced",
					"type": "event"
				},
				{
					"anonymous": false,
					"inputs": [
						{
							"indexed": false,
							"internalType": "uint256",
							"name": "",
							"type": "uint256"
						}
					],
					"name": "bidCancelled",
					"type": "event"
				},
				{
					"anonymous": false,
					"inputs": [
						{
							"indexed": false,
							"internalType": "address",
							"name": "",
							"type": "address"
						},
						{
							"indexed": false,
							"internalType": "uint256",
							"name": "",
							"type": "uint256"
						},
						{
							"indexed": false,
							"internalType": "uint256",
							"name": "",
							"type": "uint256"
						},
						{
							"indexed": false,
							"internalType": "enum OrderBook.State",
							"name": "",
							"type": "uint8"
						}
					],
					"name": "bidPlaced",
					"type": "event"
				},
				{
					"inputs": [
						{
							"internalType": "uint256",
							"name": "askId",
							"type": "uint256"
						}
					],
					"name": "cancelAsk",
					"outputs": [],
					"stateMutability": "nonpayable",
					"type": "function"
				},
				{
					"inputs": [
						{
							"internalType": "uint256",
							"name": "bidId",
							"type": "uint256"
						}
					],
					"name": "cancelBid",
					"outputs": [],
					"stateMutability": "nonpayable",
					"type": "function"
				},
				{
					"inputs": [],
					"name": "fetchAllAsk",
					"outputs": [
						{
							"components": [
								{
									"internalType": "address payable",
									"name": "customer",
									"type": "address"
								},
								{
									"internalType": "uint256",
									"name": "value",
									"type": "uint256"
								},
								{
									"internalType": "uint256",
									"name": "timestamp",
									"type": "uint256"
								},
								{
									"internalType": "enum OrderBook.State",
									"name": "state",
									"type": "uint8"
								}
							],
							"internalType": "struct OrderBook.order[]",
							"name": "",
							"type": "tuple[]"
						}
					],
					"stateMutability": "view",
					"type": "function"
				},
				{
					"inputs": [],
					"name": "fetchAllBid",
					"outputs": [
						{
							"components": [
								{
									"internalType": "address payable",
									"name": "customer",
									"type": "address"
								},
								{
									"internalType": "uint256",
									"name": "value",
									"type": "uint256"
								},
								{
									"internalType": "uint256",
									"name": "timestamp",
									"type": "uint256"
								},
								{
									"internalType": "enum OrderBook.State",
									"name": "state",
									"type": "uint8"
								}
							],
							"internalType": "struct OrderBook.order[]",
							"name": "",
							"type": "tuple[]"
						}
					],
					"stateMutability": "view",
					"type": "function"
				},
				{
					"inputs": [],
					"name": "fetchYourAskIds",
					"outputs": [
						{
							"internalType": "uint256[]",
							"name": "",
							"type": "uint256[]"
						}
					],
					"stateMutability": "nonpayable",
					"type": "function"
				},
				{
					"inputs": [],
					"name": "fetchYourBidIds",
					"outputs": [
						{
							"internalType": "uint256[]",
							"name": "",
							"type": "uint256[]"
						}
					],
					"stateMutability": "nonpayable",
					"type": "function"
				},
				{
					"inputs": [
						{
							"internalType": "uint256",
							"name": "id",
							"type": "uint256"
						}
					],
					"name": "getAskAddress",
					"outputs": [
						{
							"internalType": "address payable",
							"name": "",
							"type": "address"
						}
					],
					"stateMutability": "view",
					"type": "function"
				},
				{
					"inputs": [
						{
							"internalType": "uint256",
							"name": "id",
							"type": "uint256"
						}
					],
					"name": "getBidAddress",
					"outputs": [
						{
							"internalType": "address payable",
							"name": "",
							"type": "address"
						}
					],
					"stateMutability": "view",
					"type": "function"
				},
				{
					"inputs": [
						{
							"internalType": "uint256",
							"name": "price",
							"type": "uint256"
						}
					],
					"name": "placeAsk",
					"outputs": [],
					"stateMutability": "payable",
					"type": "function"
				},
				{
					"inputs": [
						{
							"internalType": "uint256",
							"name": "price",
							"type": "uint256"
						}
					],
					"name": "placeBid",
					"outputs": [],
					"stateMutability": "payable",
					"type": "function"
				}
			],
			"devdoc": {
				"kind": "dev",
				"methods": {},
				"version": 1
			},
			"evm": {
				"assembly": "    /* \"contracts/OrderBook.sol\":730:5960  contract OrderBook {... */\n  mstore(0x40, 0x80)\n    /* \"contracts/OrderBook.sol\":950:1063  constructor (uint256 _commission) {... */\n  callvalue\n  dup1\n  iszero\n  tag_1\n  jumpi\n  0x00\n  dup1\n  revert\ntag_1:\n  pop\n  mload(0x40)\n  sub(codesize, bytecodeSize)\n  dup1\n  bytecodeSize\n  dup4\n  codecopy\n  dup2\n  dup2\n  add\n  0x40\n  mstore\n  dup2\n  add\n  swap1\n  tag_2\n  swap2\n  swap1\n  tag_3\n  jump\t// in\ntag_2:\n    /* \"contracts/OrderBook.sol\":1011:1021  msg.sender */\n  caller\n    /* \"contracts/OrderBook.sol\":994:1000  _owner */\n  0x00\n  dup1\n    /* \"contracts/OrderBook.sol\":994:1022  _owner = payable(msg.sender) */\n  0x0100\n  exp\n  dup2\n  sload\n  dup2\n  0xffffffffffffffffffffffffffffffffffffffff\n  mul\n  not\n  and\n  swap1\n  dup4\n  0xffffffffffffffffffffffffffffffffffffffff\n  and\n  mul\n  or\n  swap1\n  sstore\n  pop\n    /* \"contracts/OrderBook.sol\":1045:1056  _commission */\n  dup1\n    /* \"contracts/OrderBook.sol\":1032:1042  commission */\n  0x01\n    /* \"contracts/OrderBook.sol\":1032:1056  commission = _commission */\n  dup2\n  swap1\n  sstore\n  pop\n    /* \"contracts/OrderBook.sol\":950:1063  constructor (uint256 _commission) {... */\n  pop\n    /* \"contracts/OrderBook.sol\":730:5960  contract OrderBook {... */\n  jump(tag_6)\n    /* \"#utility.yul\":88:205   */\ntag_8:\n    /* \"#utility.yul\":197:198   */\n  0x00\n    /* \"#utility.yul\":194:195   */\n  dup1\n    /* \"#utility.yul\":187:199   */\n  revert\n    /* \"#utility.yul\":334:411   */\ntag_10:\n    /* \"#utility.yul\":371:378   */\n  0x00\n    /* \"#utility.yul\":400:405   */\n  dup2\n    /* \"#utility.yul\":389:405   */\n  swap1\n  pop\n    /* \"#utility.yul\":334:411   */\n  swap2\n  swap1\n  pop\n  jump\t// out\n    /* \"#utility.yul\":417:539   */\ntag_11:\n    /* \"#utility.yul\":490:514   */\n  tag_19\n    /* \"#utility.yul\":508:513   */\n  dup2\n    /* \"#utility.yul\":490:514   */\n  tag_10\n  jump\t// in\ntag_19:\n    /* \"#utility.yul\":483:488   */\n  dup2\n    /* \"#utility.yul\":480:515   */\n  eq\n    /* \"#utility.yul\":470:533   */\n  tag_20\n  jumpi\n    /* \"#utility.yul\":529:530   */\n  0x00\n    /* \"#utility.yul\":526:527   */\n  dup1\n    /* \"#utility.yul\":519:531   */\n  revert\n    /* \"#utility.yul\":470:533   */\ntag_20:\n    /* \"#utility.yul\":417:539   */\n  pop\n  jump\t// out\n    /* \"#utility.yul\":545:688   */\ntag_12:\n    /* \"#utility.yul\":602:607   */\n  0x00\n    /* \"#utility.yul\":633:639   */\n  dup2\n    /* \"#utility.yul\":627:640   */\n  mload\n    /* \"#utility.yul\":618:640   */\n  swap1\n  pop\n    /* \"#utility.yul\":649:682   */\n  tag_22\n    /* \"#utility.yul\":676:681   */\n  dup2\n    /* \"#utility.yul\":649:682   */\n  tag_11\n  jump\t// in\ntag_22:\n    /* \"#utility.yul\":545:688   */\n  swap3\n  swap2\n  pop\n  pop\n  jump\t// out\n    /* \"#utility.yul\":694:1045   */\ntag_3:\n    /* \"#utility.yul\":764:770   */\n  0x00\n    /* \"#utility.yul\":813:815   */\n  0x20\n    /* \"#utility.yul\":801:810   */\n  dup3\n    /* \"#utility.yul\":792:799   */\n  dup5\n    /* \"#utility.yul\":788:811   */\n  sub\n    /* \"#utility.yul\":784:816   */\n  slt\n    /* \"#utility.yul\":781:900   */\n  iszero\n  tag_24\n  jumpi\n    /* \"#utility.yul\":819:898   */\n  tag_25\n  tag_8\n  jump\t// in\ntag_25:\n    /* \"#utility.yul\":781:900   */\ntag_24:\n    /* \"#utility.yul\":939:940   */\n  0x00\n    /* \"#utility.yul\":964:1028   */\n  tag_26\n    /* \"#utility.yul\":1020:1027   */\n  dup5\n    /* \"#utility.yul\":1011:1017   */\n  dup3\n    /* \"#utility.yul\":1000:1009   */\n  dup6\n    /* \"#utility.yul\":996:1018   */\n  add\n    /* \"#utility.yul\":964:1028   */\n  tag_12\n  jump\t// in\ntag_26:\n    /* \"#utility.yul\":954:1028   */\n  swap2\n  pop\n    /* \"#utility.yul\":910:1038   */\n  pop\n    /* \"#utility.yul\":694:1045   */\n  swap3\n  swap2\n  pop\n  pop\n  jump\t// out\n    /* \"contracts/OrderBook.sol\":730:5960  contract OrderBook {... */\ntag_6:\n  dataSize(sub_0)\n  dup1\n  dataOffset(sub_0)\n  0x00\n  codecopy\n  0x00\n  return\nstop\n\nsub_0: assembly {\n        /* \"contracts/OrderBook.sol\":730:5960  contract OrderBook {... */\n      mstore(0x40, 0x80)\n      jumpi(tag_1, lt(calldatasize, 0x04))\n      shr(0xe0, calldataload(0x00))\n      dup1\n      0x78c5b268\n      gt\n      tag_12\n      jumpi\n      dup1\n      0x78c5b268\n      eq\n      tag_7\n      jumpi\n      dup1\n      0x9703ef35\n      eq\n      tag_8\n      jumpi\n      dup1\n      0x9979ef45\n      eq\n      tag_9\n      jumpi\n      dup1\n      0xc5374af2\n      eq\n      tag_10\n      jumpi\n      dup1\n      0xce0cdc87\n      eq\n      tag_11\n      jumpi\n      jump(tag_1)\n    tag_12:\n      dup1\n      0x122de8f2\n      eq\n      tag_2\n      jumpi\n      dup1\n      0x1628e0f5\n      eq\n      tag_3\n      jumpi\n      dup1\n      0x4471417f\n      eq\n      tag_4\n      jumpi\n      dup1\n      0x69f632e2\n      eq\n      tag_5\n      jumpi\n      dup1\n      0x734a2e78\n      eq\n      tag_6\n      jumpi\n    tag_1:\n      0x00\n      dup1\n      revert\n        /* \"contracts/OrderBook.sol\":5433:5716  function fetchYourAskIds() public returns (uint[] memory) {... */\n    tag_2:\n      callvalue\n      dup1\n      iszero\n      tag_13\n      jumpi\n      0x00\n      dup1\n      revert\n    tag_13:\n      pop\n      tag_14\n      tag_15\n      jump\t// in\n    tag_14:\n      mload(0x40)\n      tag_16\n      swap2\n      swap1\n      tag_17\n      jump\t// in\n    tag_16:\n      mload(0x40)\n      dup1\n      swap2\n      sub\n      swap1\n      return\n        /* \"contracts/OrderBook.sol\":4741:4944  function cancelAsk (uint askId) public isPending(askBook[askId]) isAuthorised(askBook[askId], msg.sender) {... */\n    tag_3:\n      callvalue\n      dup1\n      iszero\n      tag_18\n      jumpi\n      0x00\n      dup1\n      revert\n    tag_18:\n      pop\n      tag_19\n      0x04\n      dup1\n      calldatasize\n      sub\n      dup2\n      add\n      swap1\n      tag_20\n      swap2\n      swap1\n      tag_21\n      jump\t// in\n    tag_20:\n      tag_22\n      jump\t// in\n    tag_19:\n      stop\n        /* \"contracts/OrderBook.sol\":4950:5041  function fetchAllBid() public view returns (order[] memory) {... */\n    tag_4:\n      callvalue\n      dup1\n      iszero\n      tag_23\n      jumpi\n      0x00\n      dup1\n      revert\n    tag_23:\n      pop\n      tag_24\n      tag_25\n      jump\t// in\n    tag_24:\n      mload(0x40)\n      tag_26\n      swap2\n      swap1\n      tag_27\n      jump\t// in\n    tag_26:\n      mload(0x40)\n      dup1\n      swap2\n      sub\n      swap1\n      return\n        /* \"contracts/OrderBook.sol\":5722:5836  function getBidAddress (uint id) public view returns(address payable) {... */\n    tag_5:\n      callvalue\n      dup1\n      iszero\n      tag_28\n      jumpi\n      0x00\n      dup1\n      revert\n    tag_28:\n      pop\n      tag_29\n      0x04\n      dup1\n      calldatasize\n      sub\n      dup2\n      add\n      swap1\n      tag_30\n      swap2\n      swap1\n      tag_21\n      jump\t// in\n    tag_30:\n      tag_31\n      jump\t// in\n    tag_29:\n      mload(0x40)\n      tag_32\n      swap2\n      swap1\n      tag_33\n      jump\t// in\n    tag_32:\n      mload(0x40)\n      dup1\n      swap2\n      sub\n      swap1\n      return\n        /* \"contracts/OrderBook.sol\":5842:5956  function getAskAddress (uint id) public view returns(address payable) {... */\n    tag_6:\n      callvalue\n      dup1\n      iszero\n      tag_34\n      jumpi\n      0x00\n      dup1\n      revert\n    tag_34:\n      pop\n      tag_35\n      0x04\n      dup1\n      calldatasize\n      sub\n      dup2\n      add\n      swap1\n      tag_36\n      swap2\n      swap1\n      tag_21\n      jump\t// in\n    tag_36:\n      tag_37\n      jump\t// in\n    tag_35:\n      mload(0x40)\n      tag_38\n      swap2\n      swap1\n      tag_33\n      jump\t// in\n    tag_38:\n      mload(0x40)\n      dup1\n      swap2\n      sub\n      swap1\n      return\n        /* \"contracts/OrderBook.sol\":4268:4735  function placeAsk (uint256 price) public payable {... */\n    tag_7:\n      tag_39\n      0x04\n      dup1\n      calldatasize\n      sub\n      dup2\n      add\n      swap1\n      tag_40\n      swap2\n      swap1\n      tag_21\n      jump\t// in\n    tag_40:\n      tag_41\n      jump\t// in\n    tag_39:\n      stop\n        /* \"contracts/OrderBook.sol\":4065:4262  function cancelBid (uint bidId) public isPending(bidBook[bidId]) isAuthorised(bidBook[bidId], msg.sender) {... */\n    tag_8:\n      callvalue\n      dup1\n      iszero\n      tag_42\n      jumpi\n      0x00\n      dup1\n      revert\n    tag_42:\n      pop\n      tag_43\n      0x04\n      dup1\n      calldatasize\n      sub\n      dup2\n      add\n      swap1\n      tag_44\n      swap2\n      swap1\n      tag_21\n      jump\t// in\n    tag_44:\n      tag_45\n      jump\t// in\n    tag_43:\n      stop\n        /* \"contracts/OrderBook.sol\":3593:4059  function placeBid (uint256 price) public payable {... */\n    tag_9:\n      tag_46\n      0x04\n      dup1\n      calldatasize\n      sub\n      dup2\n      add\n      swap1\n      tag_47\n      swap2\n      swap1\n      tag_21\n      jump\t// in\n    tag_47:\n      tag_48\n      jump\t// in\n    tag_46:\n      stop\n        /* \"contracts/OrderBook.sol\":5047:5138  function fetchAllAsk() public view returns (order[] memory) {... */\n    tag_10:\n      callvalue\n      dup1\n      iszero\n      tag_49\n      jumpi\n      0x00\n      dup1\n      revert\n    tag_49:\n      pop\n      tag_50\n      tag_51\n      jump\t// in\n    tag_50:\n      mload(0x40)\n      tag_52\n      swap2\n      swap1\n      tag_27\n      jump\t// in\n    tag_52:\n      mload(0x40)\n      dup1\n      swap2\n      sub\n      swap1\n      return\n        /* \"contracts/OrderBook.sol\":5144:5427  function fetchYourBidIds() public returns (uint[] memory) {... */\n    tag_11:\n      callvalue\n      dup1\n      iszero\n      tag_53\n      jumpi\n      0x00\n      dup1\n      revert\n    tag_53:\n      pop\n      tag_54\n      tag_55\n      jump\t// in\n    tag_54:\n      mload(0x40)\n      tag_56\n      swap2\n      swap1\n      tag_17\n      jump\t// in\n    tag_56:\n      mload(0x40)\n      dup1\n      swap2\n      sub\n      swap1\n      return\n        /* \"contracts/OrderBook.sol\":5433:5716  function fetchYourAskIds() public returns (uint[] memory) {... */\n    tag_15:\n        /* \"contracts/OrderBook.sol\":5476:5489  uint[] memory */\n      0x60\n        /* \"contracts/OrderBook.sol\":5501:5514  deleteArray() */\n      tag_58\n        /* \"contracts/OrderBook.sol\":5501:5512  deleteArray */\n      tag_59\n        /* \"contracts/OrderBook.sol\":5501:5514  deleteArray() */\n      jump\t// in\n    tag_58:\n        /* \"contracts/OrderBook.sol\":5529:5535  uint i */\n      0x00\n        /* \"contracts/OrderBook.sol\":5524:5686  for (uint i = 0; i < askBook.length; i++) {... */\n    tag_60:\n        /* \"contracts/OrderBook.sol\":5545:5552  askBook */\n      0x03\n        /* \"contracts/OrderBook.sol\":5545:5559  askBook.length */\n      dup1\n      sload\n      swap1\n      pop\n        /* \"contracts/OrderBook.sol\":5541:5542  i */\n      dup2\n        /* \"contracts/OrderBook.sol\":5541:5559  i < askBook.length */\n      lt\n        /* \"contracts/OrderBook.sol\":5524:5686  for (uint i = 0; i < askBook.length; i++) {... */\n      iszero\n      tag_61\n      jumpi\n        /* \"contracts/OrderBook.sol\":5615:5625  msg.sender */\n      caller\n        /* \"contracts/OrderBook.sol\":5584:5626  askBook[i].customer == payable(msg.sender) */\n      0xffffffffffffffffffffffffffffffffffffffff\n      and\n        /* \"contracts/OrderBook.sol\":5584:5591  askBook */\n      0x03\n        /* \"contracts/OrderBook.sol\":5592:5593  i */\n      dup3\n        /* \"contracts/OrderBook.sol\":5584:5594  askBook[i] */\n      dup2\n      sload\n      dup2\n      lt\n      tag_63\n      jumpi\n      tag_64\n      tag_65\n      jump\t// in\n    tag_64:\n    tag_63:\n      swap1\n      0x00\n      mstore\n      keccak256(0x00, 0x20)\n      swap1\n      0x04\n      mul\n      add\n        /* \"contracts/OrderBook.sol\":5584:5603  askBook[i].customer */\n      0x00\n      add\n      0x00\n      swap1\n      sload\n      swap1\n      0x0100\n      exp\n      swap1\n      div\n      0xffffffffffffffffffffffffffffffffffffffff\n      and\n        /* \"contracts/OrderBook.sol\":5584:5626  askBook[i].customer == payable(msg.sender) */\n      0xffffffffffffffffffffffffffffffffffffffff\n      and\n      sub\n        /* \"contracts/OrderBook.sol\":5580:5676  if (askBook[i].customer == payable(msg.sender)) {... */\n      tag_67\n      jumpi\n        /* \"contracts/OrderBook.sol\":5646:5653  request */\n      0x04\n        /* \"contracts/OrderBook.sol\":5659:5660  i */\n      dup2\n        /* \"contracts/OrderBook.sol\":5646:5661  request.push(i) */\n      swap1\n      dup1\n      0x01\n      dup2\n      sload\n      add\n      dup1\n      dup3\n      sstore\n      dup1\n      swap2\n      pop\n      pop\n      0x01\n      swap1\n      sub\n      swap1\n      0x00\n      mstore\n      keccak256(0x00, 0x20)\n      add\n      0x00\n      swap1\n      swap2\n      swap1\n      swap2\n      swap1\n      swap2\n      pop\n      sstore\n        /* \"contracts/OrderBook.sol\":5580:5676  if (askBook[i].customer == payable(msg.sender)) {... */\n    tag_67:\n        /* \"contracts/OrderBook.sol\":5561:5564  i++ */\n      dup1\n      dup1\n      tag_69\n      swap1\n      tag_70\n      jump\t// in\n    tag_69:\n      swap2\n      pop\n      pop\n        /* \"contracts/OrderBook.sol\":5524:5686  for (uint i = 0; i < askBook.length; i++) {... */\n      jump(tag_60)\n    tag_61:\n      pop\n        /* \"contracts/OrderBook.sol\":5702:5709  request */\n      0x04\n        /* \"contracts/OrderBook.sol\":5695:5709  return request */\n      dup1\n      sload\n      dup1\n      0x20\n      mul\n      0x20\n      add\n      mload(0x40)\n      swap1\n      dup2\n      add\n      0x40\n      mstore\n      dup1\n      swap3\n      swap2\n      swap1\n      dup2\n      dup2\n      mstore\n      0x20\n      add\n      dup3\n      dup1\n      sload\n      dup1\n      iszero\n      tag_71\n      jumpi\n      0x20\n      mul\n      dup3\n      add\n      swap2\n      swap1\n      0x00\n      mstore\n      keccak256(0x00, 0x20)\n      swap1\n    tag_72:\n      dup2\n      sload\n      dup2\n      mstore\n      0x20\n      add\n      swap1\n      0x01\n      add\n      swap1\n      dup1\n      dup4\n      gt\n      tag_72\n      jumpi\n    tag_71:\n      pop\n      pop\n      pop\n      pop\n      pop\n      swap1\n      pop\n        /* \"contracts/OrderBook.sol\":5433:5716  function fetchYourAskIds() public returns (uint[] memory) {... */\n      swap1\n      jump\t// out\n        /* \"contracts/OrderBook.sol\":4741:4944  function cancelAsk (uint askId) public isPending(askBook[askId]) isAuthorised(askBook[askId], msg.sender) {... */\n    tag_22:\n        /* \"contracts/OrderBook.sol\":4790:4797  askBook */\n      0x03\n        /* \"contracts/OrderBook.sol\":4798:4803  askId */\n      dup2\n        /* \"contracts/OrderBook.sol\":4790:4804  askBook[askId] */\n      dup2\n      sload\n      dup2\n      lt\n      tag_73\n      jumpi\n      tag_74\n      tag_65\n      jump\t// in\n    tag_74:\n    tag_73:\n      swap1\n      0x00\n      mstore\n      keccak256(0x00, 0x20)\n      swap1\n      0x04\n      mul\n      add\n        /* \"contracts/OrderBook.sol\":1507:1630  modifier isPending(order memory _order) {... */\n      mload(0x40)\n      dup1\n      0x80\n      add\n      0x40\n      mstore\n      swap1\n      dup2\n      0x00\n      dup3\n      add\n      0x00\n      swap1\n      sload\n      swap1\n      0x0100\n      exp\n      swap1\n      div\n      0xffffffffffffffffffffffffffffffffffffffff\n      and\n      0xffffffffffffffffffffffffffffffffffffffff\n      and\n      0xffffffffffffffffffffffffffffffffffffffff\n      and\n      dup2\n      mstore\n      0x20\n      add\n      0x01\n      dup3\n      add\n      sload\n      dup2\n      mstore\n      0x20\n      add\n      0x02\n      dup3\n      add\n      sload\n      dup2\n      mstore\n      0x20\n      add\n      0x03\n      dup3\n      add\n      0x00\n      swap1\n      sload\n      swap1\n      0x0100\n      exp\n      swap1\n      div\n      0xff\n      and\n      0x01\n      dup2\n      gt\n      iszero\n      tag_76\n      jumpi\n      tag_77\n      tag_78\n      jump\t// in\n    tag_77:\n    tag_76:\n      0x01\n      dup2\n      gt\n      iszero\n      tag_79\n      jumpi\n      tag_80\n      tag_78\n      jump\t// in\n    tag_80:\n    tag_79:\n      dup2\n      mstore\n      pop\n      pop\n        /* \"contracts/OrderBook.sol\":1581:1594  State.pending */\n      0x00\n        /* \"contracts/OrderBook.sol\":1565:1594  _order.state == State.pending */\n      0x01\n      dup2\n      gt\n      iszero\n      tag_82\n      jumpi\n      tag_83\n      tag_78\n      jump\t// in\n    tag_83:\n    tag_82:\n        /* \"contracts/OrderBook.sol\":1565:1571  _order */\n      dup2\n        /* \"contracts/OrderBook.sol\":1565:1577  _order.state */\n      0x60\n      add\n      mload\n        /* \"contracts/OrderBook.sol\":1565:1594  _order.state == State.pending */\n      0x01\n      dup2\n      gt\n      iszero\n      tag_84\n      jumpi\n      tag_85\n      tag_78\n      jump\t// in\n    tag_85:\n    tag_84:\n      eq\n        /* \"contracts/OrderBook.sol\":1557:1612  require(_order.state == State.pending, \"Order Pending\") */\n      tag_86\n      jumpi\n      mload(0x40)\n      0x08c379a000000000000000000000000000000000000000000000000000000000\n      dup2\n      mstore\n      0x04\n      add\n      tag_87\n      swap1\n      tag_88\n      jump\t// in\n    tag_87:\n      mload(0x40)\n      dup1\n      swap2\n      sub\n      swap1\n      revert\n    tag_86:\n        /* \"contracts/OrderBook.sol\":4819:4826  askBook */\n      0x03\n        /* \"contracts/OrderBook.sol\":4827:4832  askId */\n      dup3\n        /* \"contracts/OrderBook.sol\":4819:4833  askBook[askId] */\n      dup2\n      sload\n      dup2\n      lt\n      tag_89\n      jumpi\n      tag_90\n      tag_65\n      jump\t// in\n    tag_90:\n    tag_89:\n      swap1\n      0x00\n      mstore\n      keccak256(0x00, 0x20)\n      swap1\n      0x04\n      mul\n      add\n        /* \"contracts/OrderBook.sol\":1636:1784  modifier isAuthorised(order memory _order, address sender) {... */\n      mload(0x40)\n      dup1\n      0x80\n      add\n      0x40\n      mstore\n      swap1\n      dup2\n      0x00\n      dup3\n      add\n      0x00\n      swap1\n      sload\n      swap1\n      0x0100\n      exp\n      swap1\n      div\n      0xffffffffffffffffffffffffffffffffffffffff\n      and\n      0xffffffffffffffffffffffffffffffffffffffff\n      and\n      0xffffffffffffffffffffffffffffffffffffffff\n      and\n      dup2\n      mstore\n      0x20\n      add\n      0x01\n      dup3\n      add\n      sload\n      dup2\n      mstore\n      0x20\n      add\n      0x02\n      dup3\n      add\n      sload\n      dup2\n      mstore\n      0x20\n      add\n      0x03\n      dup3\n      add\n      0x00\n      swap1\n      sload\n      swap1\n      0x0100\n      exp\n      swap1\n      div\n      0xff\n      and\n      0x01\n      dup2\n      gt\n      iszero\n      tag_92\n      jumpi\n      tag_93\n      tag_78\n      jump\t// in\n    tag_93:\n    tag_92:\n      0x01\n      dup2\n      gt\n      iszero\n      tag_94\n      jumpi\n      tag_95\n      tag_78\n      jump\t// in\n    tag_95:\n    tag_94:\n      dup2\n      mstore\n      pop\n      pop\n        /* \"contracts/OrderBook.sol\":4835:4845  msg.sender */\n      caller\n        /* \"contracts/OrderBook.sol\":1740:1746  sender */\n      dup1\n        /* \"contracts/OrderBook.sol\":1713:1747  _order.customer == payable(sender) */\n      0xffffffffffffffffffffffffffffffffffffffff\n      and\n        /* \"contracts/OrderBook.sol\":1713:1719  _order */\n      dup3\n        /* \"contracts/OrderBook.sol\":1713:1728  _order.customer */\n      0x00\n      add\n      mload\n        /* \"contracts/OrderBook.sol\":1713:1747  _order.customer == payable(sender) */\n      0xffffffffffffffffffffffffffffffffffffffff\n      and\n      eq\n        /* \"contracts/OrderBook.sol\":1705:1766  require(_order.customer == payable(sender), \"Not Authorised\") */\n      tag_97\n      jumpi\n      mload(0x40)\n      0x08c379a000000000000000000000000000000000000000000000000000000000\n      dup2\n      mstore\n      0x04\n      add\n      tag_98\n      swap1\n      tag_99\n      jump\t// in\n    tag_98:\n      mload(0x40)\n      dup1\n      swap2\n      sub\n      swap1\n      revert\n    tag_97:\n        /* \"contracts/OrderBook.sol\":4864:4871  askBook */\n      0x03\n        /* \"contracts/OrderBook.sol\":4872:4877  askId */\n      dup5\n        /* \"contracts/OrderBook.sol\":4864:4878  askBook[askId] */\n      dup2\n      sload\n      dup2\n      lt\n      tag_101\n      jumpi\n      tag_102\n      tag_65\n      jump\t// in\n    tag_102:\n    tag_101:\n      swap1\n      0x00\n      mstore\n      keccak256(0x00, 0x20)\n      swap1\n      0x04\n      mul\n      add\n      0x00\n        /* \"contracts/OrderBook.sol\":4857:4878  delete askBook[askId] */\n      dup1\n      dup3\n      add\n      exp(0x0100, 0x00)\n      dup2\n      sload\n      swap1\n      0xffffffffffffffffffffffffffffffffffffffff\n      mul\n      not\n      and\n      swap1\n      sstore\n      0x01\n      dup3\n      add\n      0x00\n      swap1\n      sstore\n      0x02\n      dup3\n      add\n      0x00\n      swap1\n      sstore\n      0x03\n      dup3\n      add\n      exp(0x0100, 0x00)\n      dup2\n      sload\n      swap1\n      0xff\n      mul\n      not\n      and\n      swap1\n      sstore\n      pop\n      pop\n        /* \"contracts/OrderBook.sol\":4888:4897  sortAsk() */\n      tag_104\n        /* \"contracts/OrderBook.sol\":4888:4895  sortAsk */\n      tag_105\n        /* \"contracts/OrderBook.sol\":4888:4897  sortAsk() */\n      jump\t// in\n    tag_104:\n        /* \"contracts/OrderBook.sol\":4918:4937  askCancelled(askId) */\n      0x48d3043fff66c1aee14954ac5aa463b0297fb08c9b60ee00486fb3387bb58aac\n        /* \"contracts/OrderBook.sol\":4931:4936  askId */\n      dup5\n        /* \"contracts/OrderBook.sol\":4918:4937  askCancelled(askId) */\n      mload(0x40)\n      tag_106\n      swap2\n      swap1\n      tag_107\n      jump\t// in\n    tag_106:\n      mload(0x40)\n      dup1\n      swap2\n      sub\n      swap1\n      log1\n        /* \"contracts/OrderBook.sol\":1622:1623  _ */\n      pop\n      pop\n        /* \"contracts/OrderBook.sol\":4741:4944  function cancelAsk (uint askId) public isPending(askBook[askId]) isAuthorised(askBook[askId], msg.sender) {... */\n      pop\n      pop\n      jump\t// out\n        /* \"contracts/OrderBook.sol\":4950:5041  function fetchAllBid() public view returns (order[] memory) {... */\n    tag_25:\n        /* \"contracts/OrderBook.sol\":4994:5008  order[] memory */\n      0x60\n        /* \"contracts/OrderBook.sol\":5027:5034  bidBook */\n      0x02\n        /* \"contracts/OrderBook.sol\":5020:5034  return bidBook */\n      dup1\n      sload\n      dup1\n      0x20\n      mul\n      0x20\n      add\n      mload(0x40)\n      swap1\n      dup2\n      add\n      0x40\n      mstore\n      dup1\n      swap3\n      swap2\n      swap1\n      dup2\n      dup2\n      mstore\n      0x20\n      add\n      0x00\n      swap1\n    tag_109:\n      dup3\n      dup3\n      lt\n      iszero\n      tag_110\n      jumpi\n      dup4\n      dup3\n      swap1\n      0x00\n      mstore\n      keccak256(0x00, 0x20)\n      swap1\n      0x04\n      mul\n      add\n      mload(0x40)\n      dup1\n      0x80\n      add\n      0x40\n      mstore\n      swap1\n      dup2\n      0x00\n      dup3\n      add\n      0x00\n      swap1\n      sload\n      swap1\n      0x0100\n      exp\n      swap1\n      div\n      0xffffffffffffffffffffffffffffffffffffffff\n      and\n      0xffffffffffffffffffffffffffffffffffffffff\n      and\n      0xffffffffffffffffffffffffffffffffffffffff\n      and\n      dup2\n      mstore\n      0x20\n      add\n      0x01\n      dup3\n      add\n      sload\n      dup2\n      mstore\n      0x20\n      add\n      0x02\n      dup3\n      add\n      sload\n      dup2\n      mstore\n      0x20\n      add\n      0x03\n      dup3\n      add\n      0x00\n      swap1\n      sload\n      swap1\n      0x0100\n      exp\n      swap1\n      div\n      0xff\n      and\n      0x01\n      dup2\n      gt\n      iszero\n      tag_112\n      jumpi\n      tag_113\n      tag_78\n      jump\t// in\n    tag_113:\n    tag_112:\n      0x01\n      dup2\n      gt\n      iszero\n      tag_114\n      jumpi\n      tag_115\n      tag_78\n      jump\t// in\n    tag_115:\n    tag_114:\n      dup2\n      mstore\n      pop\n      pop\n      dup2\n      mstore\n      0x20\n      add\n      swap1\n      0x01\n      add\n      swap1\n      jump(tag_109)\n    tag_110:\n      pop\n      pop\n      pop\n      pop\n      swap1\n      pop\n        /* \"contracts/OrderBook.sol\":4950:5041  function fetchAllBid() public view returns (order[] memory) {... */\n      swap1\n      jump\t// out\n        /* \"contracts/OrderBook.sol\":5722:5836  function getBidAddress (uint id) public view returns(address payable) {... */\n    tag_31:\n        /* \"contracts/OrderBook.sol\":5775:5790  address payable */\n      0x00\n        /* \"contracts/OrderBook.sol\":5809:5816  bidBook */\n      0x02\n        /* \"contracts/OrderBook.sol\":5817:5819  id */\n      dup3\n        /* \"contracts/OrderBook.sol\":5809:5820  bidBook[id] */\n      dup2\n      sload\n      dup2\n      lt\n      tag_117\n      jumpi\n      tag_118\n      tag_65\n      jump\t// in\n    tag_118:\n    tag_117:\n      swap1\n      0x00\n      mstore\n      keccak256(0x00, 0x20)\n      swap1\n      0x04\n      mul\n      add\n        /* \"contracts/OrderBook.sol\":5809:5829  bidBook[id].customer */\n      0x00\n      add\n      0x00\n      swap1\n      sload\n      swap1\n      0x0100\n      exp\n      swap1\n      div\n      0xffffffffffffffffffffffffffffffffffffffff\n      and\n        /* \"contracts/OrderBook.sol\":5802:5829  return bidBook[id].customer */\n      swap1\n      pop\n        /* \"contracts/OrderBook.sol\":5722:5836  function getBidAddress (uint id) public view returns(address payable) {... */\n      swap2\n      swap1\n      pop\n      jump\t// out\n        /* \"contracts/OrderBook.sol\":5842:5956  function getAskAddress (uint id) public view returns(address payable) {... */\n    tag_37:\n        /* \"contracts/OrderBook.sol\":5895:5910  address payable */\n      0x00\n        /* \"contracts/OrderBook.sol\":5929:5936  askBook */\n      0x03\n        /* \"contracts/OrderBook.sol\":5937:5939  id */\n      dup3\n        /* \"contracts/OrderBook.sol\":5929:5940  askBook[id] */\n      dup2\n      sload\n      dup2\n      lt\n      tag_121\n      jumpi\n      tag_122\n      tag_65\n      jump\t// in\n    tag_122:\n    tag_121:\n      swap1\n      0x00\n      mstore\n      keccak256(0x00, 0x20)\n      swap1\n      0x04\n      mul\n      add\n        /* \"contracts/OrderBook.sol\":5929:5949  askBook[id].customer */\n      0x00\n      add\n      0x00\n      swap1\n      sload\n      swap1\n      0x0100\n      exp\n      swap1\n      div\n      0xffffffffffffffffffffffffffffffffffffffff\n      and\n        /* \"contracts/OrderBook.sol\":5922:5949  return askBook[id].customer */\n      swap1\n      pop\n        /* \"contracts/OrderBook.sol\":5842:5956  function getAskAddress (uint id) public view returns(address payable) {... */\n      swap2\n      swap1\n      pop\n      jump\t// out\n        /* \"contracts/OrderBook.sol\":4268:4735  function placeAsk (uint256 price) public payable {... */\n    tag_41:\n        /* \"contracts/OrderBook.sol\":4344:4345  0 */\n      0x00\n        /* \"contracts/OrderBook.sol\":4335:4340  price */\n      dup2\n        /* \"contracts/OrderBook.sol\":4335:4345  price >= 0 */\n      lt\n      iszero\n        /* \"contracts/OrderBook.sol\":4327:4381  require(price >= 0, \"price value must be more than 0\") */\n      tag_125\n      jumpi\n      mload(0x40)\n      0x08c379a000000000000000000000000000000000000000000000000000000000\n      dup2\n      mstore\n      0x04\n      add\n      tag_126\n      swap1\n      tag_127\n      jump\t// in\n    tag_126:\n      mload(0x40)\n      dup1\n      swap2\n      sub\n      swap1\n      revert\n    tag_125:\n        /* \"contracts/OrderBook.sol\":4412:4417  price */\n      dup1\n        /* \"contracts/OrderBook.sol\":4399:4408  msg.value */\n      callvalue\n        /* \"contracts/OrderBook.sol\":4399:4417  msg.value >= price */\n      lt\n      iszero\n        /* \"contracts/OrderBook.sol\":4391:4452  require(msg.value >= price, \"Not enough blance to place ask\") */\n      tag_128\n      jumpi\n      mload(0x40)\n      0x08c379a000000000000000000000000000000000000000000000000000000000\n      dup2\n      mstore\n      0x04\n      add\n      tag_129\n      swap1\n      tag_130\n      jump\t// in\n    tag_129:\n      mload(0x40)\n      dup1\n      swap2\n      sub\n      swap1\n      revert\n    tag_128:\n        /* \"contracts/OrderBook.sol\":4462:4474  uint256 time */\n      0x00\n        /* \"contracts/OrderBook.sol\":4477:4492  block.timestamp */\n      timestamp\n        /* \"contracts/OrderBook.sol\":4462:4492  uint256 time = block.timestamp */\n      swap1\n      pop\n        /* \"contracts/OrderBook.sol\":4502:4521  order memory newBid */\n      0x00\n        /* \"contracts/OrderBook.sol\":4524:4575  order(payable(msg.sender),price,time,State.pending) */\n      mload(0x40)\n      dup1\n      0x80\n      add\n      0x40\n      mstore\n      dup1\n        /* \"contracts/OrderBook.sol\":4538:4548  msg.sender */\n      caller\n        /* \"contracts/OrderBook.sol\":4524:4575  order(payable(msg.sender),price,time,State.pending) */\n      0xffffffffffffffffffffffffffffffffffffffff\n      and\n      dup2\n      mstore\n      0x20\n      add\n        /* \"contracts/OrderBook.sol\":4550:4555  price */\n      dup5\n        /* \"contracts/OrderBook.sol\":4524:4575  order(payable(msg.sender),price,time,State.pending) */\n      dup2\n      mstore\n      0x20\n      add\n        /* \"contracts/OrderBook.sol\":4556:4560  time */\n      dup4\n        /* \"contracts/OrderBook.sol\":4524:4575  order(payable(msg.sender),price,time,State.pending) */\n      dup2\n      mstore\n      0x20\n      add\n        /* \"contracts/OrderBook.sol\":4561:4574  State.pending */\n      0x00\n        /* \"contracts/OrderBook.sol\":4524:4575  order(payable(msg.sender),price,time,State.pending) */\n      0x01\n      dup2\n      gt\n      iszero\n      tag_131\n      jumpi\n      tag_132\n      tag_78\n      jump\t// in\n    tag_132:\n    tag_131:\n      dup2\n      mstore\n      pop\n        /* \"contracts/OrderBook.sol\":4502:4575  order memory newBid = order(payable(msg.sender),price,time,State.pending) */\n      swap1\n      pop\n        /* \"contracts/OrderBook.sol\":4585:4592  askBook */\n      0x03\n        /* \"contracts/OrderBook.sol\":4598:4604  newBid */\n      dup2\n        /* \"contracts/OrderBook.sol\":4585:4605  askBook.push(newBid) */\n      swap1\n      dup1\n      0x01\n      dup2\n      sload\n      add\n      dup1\n      dup3\n      sstore\n      dup1\n      swap2\n      pop\n      pop\n      0x01\n      swap1\n      sub\n      swap1\n      0x00\n      mstore\n      keccak256(0x00, 0x20)\n      swap1\n      0x04\n      mul\n      add\n      0x00\n      swap1\n      swap2\n      swap1\n      swap2\n      swap1\n      swap2\n      pop\n      0x00\n      dup3\n      add\n      mload\n      dup2\n      0x00\n      add\n      exp(0x0100, 0x00)\n      dup2\n      sload\n      dup2\n      0xffffffffffffffffffffffffffffffffffffffff\n      mul\n      not\n      and\n      swap1\n      dup4\n      0xffffffffffffffffffffffffffffffffffffffff\n      and\n      mul\n      or\n      swap1\n      sstore\n      pop\n      0x20\n      dup3\n      add\n      mload\n      dup2\n      0x01\n      add\n      sstore\n      0x40\n      dup3\n      add\n      mload\n      dup2\n      0x02\n      add\n      sstore\n      0x60\n      dup3\n      add\n      mload\n      dup2\n      0x03\n      add\n      exp(0x0100, 0x00)\n      dup2\n      sload\n      dup2\n      0xff\n      mul\n      not\n      and\n      swap1\n      dup4\n      0x01\n      dup2\n      gt\n      iszero\n      tag_134\n      jumpi\n      tag_135\n      tag_78\n      jump\t// in\n    tag_135:\n    tag_134:\n      mul\n      or\n      swap1\n      sstore\n      pop\n      pop\n      pop\n        /* \"contracts/OrderBook.sol\":4615:4621  _owner */\n      0x00\n      dup1\n      sload\n      swap1\n      0x0100\n      exp\n      swap1\n      div\n      0xffffffffffffffffffffffffffffffffffffffff\n      and\n        /* \"contracts/OrderBook.sol\":4615:4630  _owner.transfer */\n      0xffffffffffffffffffffffffffffffffffffffff\n      and\n        /* \"contracts/OrderBook.sol\":4615:4667  _owner.transfer(msg.value  * (100-commission) / 100) */\n      0x08fc\n        /* \"contracts/OrderBook.sol\":4663:4666  100 */\n      0x64\n        /* \"contracts/OrderBook.sol\":4649:4659  commission */\n      sload(0x01)\n        /* \"contracts/OrderBook.sol\":4645:4648  100 */\n      0x64\n        /* \"contracts/OrderBook.sol\":4645:4659  100-commission */\n      tag_136\n      swap2\n      swap1\n      tag_137\n      jump\t// in\n    tag_136:\n        /* \"contracts/OrderBook.sol\":4631:4640  msg.value */\n      callvalue\n        /* \"contracts/OrderBook.sol\":4631:4660  msg.value  * (100-commission) */\n      tag_138\n      swap2\n      swap1\n      tag_139\n      jump\t// in\n    tag_138:\n        /* \"contracts/OrderBook.sol\":4631:4666  msg.value  * (100-commission) / 100 */\n      tag_140\n      swap2\n      swap1\n      tag_141\n      jump\t// in\n    tag_140:\n        /* \"contracts/OrderBook.sol\":4615:4667  _owner.transfer(msg.value  * (100-commission) / 100) */\n      swap1\n      dup2\n      iszero\n      mul\n      swap1\n      mload(0x40)\n      0x00\n      mload(0x40)\n      dup1\n      dup4\n      sub\n      dup2\n      dup6\n      dup9\n      dup9\n      call\n      swap4\n      pop\n      pop\n      pop\n      pop\n      iszero\n      dup1\n      iszero\n      tag_143\n      jumpi\n      returndatasize\n      0x00\n      dup1\n      returndatacopy\n      revert(0x00, returndatasize)\n    tag_143:\n      pop\n        /* \"contracts/OrderBook.sol\":4682:4728  askPlaced(msg.sender,price,time,State.pending) */\n      0xc2125a7f3edfeff7a3bbcfe393c5aa3a6589585d4a7ee70db48c34f67c8209e2\n        /* \"contracts/OrderBook.sol\":4692:4702  msg.sender */\n      caller\n        /* \"contracts/OrderBook.sol\":4703:4708  price */\n      dup5\n        /* \"contracts/OrderBook.sol\":4709:4713  time */\n      dup5\n        /* \"contracts/OrderBook.sol\":4714:4727  State.pending */\n      0x00\n        /* \"contracts/OrderBook.sol\":4682:4728  askPlaced(msg.sender,price,time,State.pending) */\n      mload(0x40)\n      tag_144\n      swap5\n      swap4\n      swap3\n      swap2\n      swap1\n      tag_145\n      jump\t// in\n    tag_144:\n      mload(0x40)\n      dup1\n      swap2\n      sub\n      swap1\n      log1\n        /* \"contracts/OrderBook.sol\":4317:4735  {... */\n      pop\n      pop\n        /* \"contracts/OrderBook.sol\":4268:4735  function placeAsk (uint256 price) public payable {... */\n      pop\n      jump\t// out\n        /* \"contracts/OrderBook.sol\":4065:4262  function cancelBid (uint bidId) public isPending(bidBook[bidId]) isAuthorised(bidBook[bidId], msg.sender) {... */\n    tag_45:\n        /* \"contracts/OrderBook.sol\":4114:4121  bidBook */\n      0x02\n        /* \"contracts/OrderBook.sol\":4122:4127  bidId */\n      dup2\n        /* \"contracts/OrderBook.sol\":4114:4128  bidBook[bidId] */\n      dup2\n      sload\n      dup2\n      lt\n      tag_146\n      jumpi\n      tag_147\n      tag_65\n      jump\t// in\n    tag_147:\n    tag_146:\n      swap1\n      0x00\n      mstore\n      keccak256(0x00, 0x20)\n      swap1\n      0x04\n      mul\n      add\n        /* \"contracts/OrderBook.sol\":1507:1630  modifier isPending(order memory _order) {... */\n      mload(0x40)\n      dup1\n      0x80\n      add\n      0x40\n      mstore\n      swap1\n      dup2\n      0x00\n      dup3\n      add\n      0x00\n      swap1\n      sload\n      swap1\n      0x0100\n      exp\n      swap1\n      div\n      0xffffffffffffffffffffffffffffffffffffffff\n      and\n      0xffffffffffffffffffffffffffffffffffffffff\n      and\n      0xffffffffffffffffffffffffffffffffffffffff\n      and\n      dup2\n      mstore\n      0x20\n      add\n      0x01\n      dup3\n      add\n      sload\n      dup2\n      mstore\n      0x20\n      add\n      0x02\n      dup3\n      add\n      sload\n      dup2\n      mstore\n      0x20\n      add\n      0x03\n      dup3\n      add\n      0x00\n      swap1\n      sload\n      swap1\n      0x0100\n      exp\n      swap1\n      div\n      0xff\n      and\n      0x01\n      dup2\n      gt\n      iszero\n      tag_149\n      jumpi\n      tag_150\n      tag_78\n      jump\t// in\n    tag_150:\n    tag_149:\n      0x01\n      dup2\n      gt\n      iszero\n      tag_151\n      jumpi\n      tag_152\n      tag_78\n      jump\t// in\n    tag_152:\n    tag_151:\n      dup2\n      mstore\n      pop\n      pop\n        /* \"contracts/OrderBook.sol\":1581:1594  State.pending */\n      0x00\n        /* \"contracts/OrderBook.sol\":1565:1594  _order.state == State.pending */\n      0x01\n      dup2\n      gt\n      iszero\n      tag_154\n      jumpi\n      tag_155\n      tag_78\n      jump\t// in\n    tag_155:\n    tag_154:\n        /* \"contracts/OrderBook.sol\":1565:1571  _order */\n      dup2\n        /* \"contracts/OrderBook.sol\":1565:1577  _order.state */\n      0x60\n      add\n      mload\n        /* \"contracts/OrderBook.sol\":1565:1594  _order.state == State.pending */\n      0x01\n      dup2\n      gt\n      iszero\n      tag_156\n      jumpi\n      tag_157\n      tag_78\n      jump\t// in\n    tag_157:\n    tag_156:\n      eq\n        /* \"contracts/OrderBook.sol\":1557:1612  require(_order.state == State.pending, \"Order Pending\") */\n      tag_158\n      jumpi\n      mload(0x40)\n      0x08c379a000000000000000000000000000000000000000000000000000000000\n      dup2\n      mstore\n      0x04\n      add\n      tag_159\n      swap1\n      tag_88\n      jump\t// in\n    tag_159:\n      mload(0x40)\n      dup1\n      swap2\n      sub\n      swap1\n      revert\n    tag_158:\n        /* \"contracts/OrderBook.sol\":4143:4150  bidBook */\n      0x02\n        /* \"contracts/OrderBook.sol\":4151:4156  bidId */\n      dup3\n        /* \"contracts/OrderBook.sol\":4143:4157  bidBook[bidId] */\n      dup2\n      sload\n      dup2\n      lt\n      tag_160\n      jumpi\n      tag_161\n      tag_65\n      jump\t// in\n    tag_161:\n    tag_160:\n      swap1\n      0x00\n      mstore\n      keccak256(0x00, 0x20)\n      swap1\n      0x04\n      mul\n      add\n        /* \"contracts/OrderBook.sol\":1636:1784  modifier isAuthorised(order memory _order, address sender) {... */\n      mload(0x40)\n      dup1\n      0x80\n      add\n      0x40\n      mstore\n      swap1\n      dup2\n      0x00\n      dup3\n      add\n      0x00\n      swap1\n      sload\n      swap1\n      0x0100\n      exp\n      swap1\n      div\n      0xffffffffffffffffffffffffffffffffffffffff\n      and\n      0xffffffffffffffffffffffffffffffffffffffff\n      and\n      0xffffffffffffffffffffffffffffffffffffffff\n      and\n      dup2\n      mstore\n      0x20\n      add\n      0x01\n      dup3\n      add\n      sload\n      dup2\n      mstore\n      0x20\n      add\n      0x02\n      dup3\n      add\n      sload\n      dup2\n      mstore\n      0x20\n      add\n      0x03\n      dup3\n      add\n      0x00\n      swap1\n      sload\n      swap1\n      0x0100\n      exp\n      swap1\n      div\n      0xff\n      and\n      0x01\n      dup2\n      gt\n      iszero\n      tag_163\n      jumpi\n      tag_164\n      tag_78\n      jump\t// in\n    tag_164:\n    tag_163:\n      0x01\n      dup2\n      gt\n      iszero\n      tag_165\n      jumpi\n      tag_166\n      tag_78\n      jump\t// in\n    tag_166:\n    tag_165:\n      dup2\n      mstore\n      pop\n      pop\n        /* \"contracts/OrderBook.sol\":4159:4169  msg.sender */\n      caller\n        /* \"contracts/OrderBook.sol\":1740:1746  sender */\n      dup1\n        /* \"contracts/OrderBook.sol\":1713:1747  _order.customer == payable(sender) */\n      0xffffffffffffffffffffffffffffffffffffffff\n      and\n        /* \"contracts/OrderBook.sol\":1713:1719  _order */\n      dup3\n        /* \"contracts/OrderBook.sol\":1713:1728  _order.customer */\n      0x00\n      add\n      mload\n        /* \"contracts/OrderBook.sol\":1713:1747  _order.customer == payable(sender) */\n      0xffffffffffffffffffffffffffffffffffffffff\n      and\n      eq\n        /* \"contracts/OrderBook.sol\":1705:1766  require(_order.customer == payable(sender), \"Not Authorised\") */\n      tag_168\n      jumpi\n      mload(0x40)\n      0x08c379a000000000000000000000000000000000000000000000000000000000\n      dup2\n      mstore\n      0x04\n      add\n      tag_169\n      swap1\n      tag_99\n      jump\t// in\n    tag_169:\n      mload(0x40)\n      dup1\n      swap2\n      sub\n      swap1\n      revert\n    tag_168:\n        /* \"contracts/OrderBook.sol\":4188:4195  bidBook */\n      0x02\n        /* \"contracts/OrderBook.sol\":4196:4201  bidId */\n      dup5\n        /* \"contracts/OrderBook.sol\":4188:4202  bidBook[bidId] */\n      dup2\n      sload\n      dup2\n      lt\n      tag_171\n      jumpi\n      tag_172\n      tag_65\n      jump\t// in\n    tag_172:\n    tag_171:\n      swap1\n      0x00\n      mstore\n      keccak256(0x00, 0x20)\n      swap1\n      0x04\n      mul\n      add\n      0x00\n        /* \"contracts/OrderBook.sol\":4181:4202  delete bidBook[bidId] */\n      dup1\n      dup3\n      add\n      exp(0x0100, 0x00)\n      dup2\n      sload\n      swap1\n      0xffffffffffffffffffffffffffffffffffffffff\n      mul\n      not\n      and\n      swap1\n      sstore\n      0x01\n      dup3\n      add\n      0x00\n      swap1\n      sstore\n      0x02\n      dup3\n      add\n      0x00\n      swap1\n      sstore\n      0x03\n      dup3\n      add\n      exp(0x0100, 0x00)\n      dup2\n      sload\n      swap1\n      0xff\n      mul\n      not\n      and\n      swap1\n      sstore\n      pop\n      pop\n        /* \"contracts/OrderBook.sol\":4212:4221  sortBid() */\n      tag_174\n        /* \"contracts/OrderBook.sol\":4212:4219  sortBid */\n      tag_175\n        /* \"contracts/OrderBook.sol\":4212:4221  sortBid() */\n      jump\t// in\n    tag_174:\n        /* \"contracts/OrderBook.sol\":4236:4255  bidCancelled(bidId) */\n      0xc845a6832afa0a4048dd70bbba2186093508a6b63a8d5d70a508f819fef257f8\n        /* \"contracts/OrderBook.sol\":4249:4254  bidId */\n      dup5\n        /* \"contracts/OrderBook.sol\":4236:4255  bidCancelled(bidId) */\n      mload(0x40)\n      tag_176\n      swap2\n      swap1\n      tag_107\n      jump\t// in\n    tag_176:\n      mload(0x40)\n      dup1\n      swap2\n      sub\n      swap1\n      log1\n        /* \"contracts/OrderBook.sol\":1622:1623  _ */\n      pop\n      pop\n        /* \"contracts/OrderBook.sol\":4065:4262  function cancelBid (uint bidId) public isPending(bidBook[bidId]) isAuthorised(bidBook[bidId], msg.sender) {... */\n      pop\n      pop\n      jump\t// out\n        /* \"contracts/OrderBook.sol\":3593:4059  function placeBid (uint256 price) public payable {... */\n    tag_48:\n        /* \"contracts/OrderBook.sol\":3669:3670  0 */\n      0x00\n        /* \"contracts/OrderBook.sol\":3660:3665  price */\n      dup2\n        /* \"contracts/OrderBook.sol\":3660:3670  price >= 0 */\n      lt\n      iszero\n        /* \"contracts/OrderBook.sol\":3652:3706  require(price >= 0, \"price value must be more than 0\") */\n      tag_178\n      jumpi\n      mload(0x40)\n      0x08c379a000000000000000000000000000000000000000000000000000000000\n      dup2\n      mstore\n      0x04\n      add\n      tag_179\n      swap1\n      tag_127\n      jump\t// in\n    tag_179:\n      mload(0x40)\n      dup1\n      swap2\n      sub\n      swap1\n      revert\n    tag_178:\n        /* \"contracts/OrderBook.sol\":3737:3742  price */\n      dup1\n        /* \"contracts/OrderBook.sol\":3724:3733  msg.value */\n      callvalue\n        /* \"contracts/OrderBook.sol\":3724:3742  msg.value >= price */\n      lt\n      iszero\n        /* \"contracts/OrderBook.sol\":3716:3777  require(msg.value >= price, \"Not enough blance to place bid\") */\n      tag_180\n      jumpi\n      mload(0x40)\n      0x08c379a000000000000000000000000000000000000000000000000000000000\n      dup2\n      mstore\n      0x04\n      add\n      tag_181\n      swap1\n      tag_182\n      jump\t// in\n    tag_181:\n      mload(0x40)\n      dup1\n      swap2\n      sub\n      swap1\n      revert\n    tag_180:\n        /* \"contracts/OrderBook.sol\":3787:3799  uint256 time */\n      0x00\n        /* \"contracts/OrderBook.sol\":3802:3817  block.timestamp */\n      timestamp\n        /* \"contracts/OrderBook.sol\":3787:3817  uint256 time = block.timestamp */\n      swap1\n      pop\n        /* \"contracts/OrderBook.sol\":3827:3846  order memory newBid */\n      0x00\n        /* \"contracts/OrderBook.sol\":3849:3900  order(payable(msg.sender),price,time,State.pending) */\n      mload(0x40)\n      dup1\n      0x80\n      add\n      0x40\n      mstore\n      dup1\n        /* \"contracts/OrderBook.sol\":3863:3873  msg.sender */\n      caller\n        /* \"contracts/OrderBook.sol\":3849:3900  order(payable(msg.sender),price,time,State.pending) */\n      0xffffffffffffffffffffffffffffffffffffffff\n      and\n      dup2\n      mstore\n      0x20\n      add\n        /* \"contracts/OrderBook.sol\":3875:3880  price */\n      dup5\n        /* \"contracts/OrderBook.sol\":3849:3900  order(payable(msg.sender),price,time,State.pending) */\n      dup2\n      mstore\n      0x20\n      add\n        /* \"contracts/OrderBook.sol\":3881:3885  time */\n      dup4\n        /* \"contracts/OrderBook.sol\":3849:3900  order(payable(msg.sender),price,time,State.pending) */\n      dup2\n      mstore\n      0x20\n      add\n        /* \"contracts/OrderBook.sol\":3886:3899  State.pending */\n      0x00\n        /* \"contracts/OrderBook.sol\":3849:3900  order(payable(msg.sender),price,time,State.pending) */\n      0x01\n      dup2\n      gt\n      iszero\n      tag_183\n      jumpi\n      tag_184\n      tag_78\n      jump\t// in\n    tag_184:\n    tag_183:\n      dup2\n      mstore\n      pop\n        /* \"contracts/OrderBook.sol\":3827:3900  order memory newBid = order(payable(msg.sender),price,time,State.pending) */\n      swap1\n      pop\n        /* \"contracts/OrderBook.sol\":3910:3917  bidBook */\n      0x02\n        /* \"contracts/OrderBook.sol\":3923:3929  newBid */\n      dup2\n        /* \"contracts/OrderBook.sol\":3910:3930  bidBook.push(newBid) */\n      swap1\n      dup1\n      0x01\n      dup2\n      sload\n      add\n      dup1\n      dup3\n      sstore\n      dup1\n      swap2\n      pop\n      pop\n      0x01\n      swap1\n      sub\n      swap1\n      0x00\n      mstore\n      keccak256(0x00, 0x20)\n      swap1\n      0x04\n      mul\n      add\n      0x00\n      swap1\n      swap2\n      swap1\n      swap2\n      swap1\n      swap2\n      pop\n      0x00\n      dup3\n      add\n      mload\n      dup2\n      0x00\n      add\n      exp(0x0100, 0x00)\n      dup2\n      sload\n      dup2\n      0xffffffffffffffffffffffffffffffffffffffff\n      mul\n      not\n      and\n      swap1\n      dup4\n      0xffffffffffffffffffffffffffffffffffffffff\n      and\n      mul\n      or\n      swap1\n      sstore\n      pop\n      0x20\n      dup3\n      add\n      mload\n      dup2\n      0x01\n      add\n      sstore\n      0x40\n      dup3\n      add\n      mload\n      dup2\n      0x02\n      add\n      sstore\n      0x60\n      dup3\n      add\n      mload\n      dup2\n      0x03\n      add\n      exp(0x0100, 0x00)\n      dup2\n      sload\n      dup2\n      0xff\n      mul\n      not\n      and\n      swap1\n      dup4\n      0x01\n      dup2\n      gt\n      iszero\n      tag_186\n      jumpi\n      tag_187\n      tag_78\n      jump\t// in\n    tag_187:\n    tag_186:\n      mul\n      or\n      swap1\n      sstore\n      pop\n      pop\n      pop\n        /* \"contracts/OrderBook.sol\":3940:3946  _owner */\n      0x00\n      dup1\n      sload\n      swap1\n      0x0100\n      exp\n      swap1\n      div\n      0xffffffffffffffffffffffffffffffffffffffff\n      and\n        /* \"contracts/OrderBook.sol\":3940:3955  _owner.transfer */\n      0xffffffffffffffffffffffffffffffffffffffff\n      and\n        /* \"contracts/OrderBook.sol\":3940:3991  _owner.transfer(msg.value * (100-commission) / 100) */\n      0x08fc\n        /* \"contracts/OrderBook.sol\":3987:3990  100 */\n      0x64\n        /* \"contracts/OrderBook.sol\":3973:3983  commission */\n      sload(0x01)\n        /* \"contracts/OrderBook.sol\":3969:3972  100 */\n      0x64\n        /* \"contracts/OrderBook.sol\":3969:3983  100-commission */\n      tag_188\n      swap2\n      swap1\n      tag_137\n      jump\t// in\n    tag_188:\n        /* \"contracts/OrderBook.sol\":3956:3965  msg.value */\n      callvalue\n        /* \"contracts/OrderBook.sol\":3956:3984  msg.value * (100-commission) */\n      tag_189\n      swap2\n      swap1\n      tag_139\n      jump\t// in\n    tag_189:\n        /* \"contracts/OrderBook.sol\":3956:3990  msg.value * (100-commission) / 100 */\n      tag_190\n      swap2\n      swap1\n      tag_141\n      jump\t// in\n    tag_190:\n        /* \"contracts/OrderBook.sol\":3940:3991  _owner.transfer(msg.value * (100-commission) / 100) */\n      swap1\n      dup2\n      iszero\n      mul\n      swap1\n      mload(0x40)\n      0x00\n      mload(0x40)\n      dup1\n      dup4\n      sub\n      dup2\n      dup6\n      dup9\n      dup9\n      call\n      swap4\n      pop\n      pop\n      pop\n      pop\n      iszero\n      dup1\n      iszero\n      tag_192\n      jumpi\n      returndatasize\n      0x00\n      dup1\n      returndatacopy\n      revert(0x00, returndatasize)\n    tag_192:\n      pop\n        /* \"contracts/OrderBook.sol\":4006:4052  bidPlaced(msg.sender,price,time,State.pending) */\n      0xa64806d6d5d480697a0b11c92b915a4ff7b93c0be28171d65d30041a0c360d04\n        /* \"contracts/OrderBook.sol\":4016:4026  msg.sender */\n      caller\n        /* \"contracts/OrderBook.sol\":4027:4032  price */\n      dup5\n        /* \"contracts/OrderBook.sol\":4033:4037  time */\n      dup5\n        /* \"contracts/OrderBook.sol\":4038:4051  State.pending */\n      0x00\n        /* \"contracts/OrderBook.sol\":4006:4052  bidPlaced(msg.sender,price,time,State.pending) */\n      mload(0x40)\n      tag_193\n      swap5\n      swap4\n      swap3\n      swap2\n      swap1\n      tag_145\n      jump\t// in\n    tag_193:\n      mload(0x40)\n      dup1\n      swap2\n      sub\n      swap1\n      log1\n        /* \"contracts/OrderBook.sol\":3642:4059  {... */\n      pop\n      pop\n        /* \"contracts/OrderBook.sol\":3593:4059  function placeBid (uint256 price) public payable {... */\n      pop\n      jump\t// out\n        /* \"contracts/OrderBook.sol\":5047:5138  function fetchAllAsk() public view returns (order[] memory) {... */\n    tag_51:\n        /* \"contracts/OrderBook.sol\":5091:5105  order[] memory */\n      0x60\n        /* \"contracts/OrderBook.sol\":5124:5131  askBook */\n      0x03\n        /* \"contracts/OrderBook.sol\":5117:5131  return askBook */\n      dup1\n      sload\n      dup1\n      0x20\n      mul\n      0x20\n      add\n      mload(0x40)\n      swap1\n      dup2\n      add\n      0x40\n      mstore\n      dup1\n      swap3\n      swap2\n      swap1\n      dup2\n      dup2\n      mstore\n      0x20\n      add\n      0x00\n      swap1\n    tag_195:\n      dup3\n      dup3\n      lt\n      iszero\n      tag_196\n      jumpi\n      dup4\n      dup3\n      swap1\n      0x00\n      mstore\n      keccak256(0x00, 0x20)\n      swap1\n      0x04\n      mul\n      add\n      mload(0x40)\n      dup1\n      0x80\n      add\n      0x40\n      mstore\n      swap1\n      dup2\n      0x00\n      dup3\n      add\n      0x00\n      swap1\n      sload\n      swap1\n      0x0100\n      exp\n      swap1\n      div\n      0xffffffffffffffffffffffffffffffffffffffff\n      and\n      0xffffffffffffffffffffffffffffffffffffffff\n      and\n      0xffffffffffffffffffffffffffffffffffffffff\n      and\n      dup2\n      mstore\n      0x20\n      add\n      0x01\n      dup3\n      add\n      sload\n      dup2\n      mstore\n      0x20\n      add\n      0x02\n      dup3\n      add\n      sload\n      dup2\n      mstore\n      0x20\n      add\n      0x03\n      dup3\n      add\n      0x00\n      swap1\n      sload\n      swap1\n      0x0100\n      exp\n      swap1\n      div\n      0xff\n      and\n      0x01\n      dup2\n      gt\n      iszero\n      tag_198\n      jumpi\n      tag_199\n      tag_78\n      jump\t// in\n    tag_199:\n    tag_198:\n      0x01\n      dup2\n      gt\n      iszero\n      tag_200\n      jumpi\n      tag_201\n      tag_78\n      jump\t// in\n    tag_201:\n    tag_200:\n      dup2\n      mstore\n      pop\n      pop\n      dup2\n      mstore\n      0x20\n      add\n      swap1\n      0x01\n      add\n      swap1\n      jump(tag_195)\n    tag_196:\n      pop\n      pop\n      pop\n      pop\n      swap1\n      pop\n        /* \"contracts/OrderBook.sol\":5047:5138  function fetchAllAsk() public view returns (order[] memory) {... */\n      swap1\n      jump\t// out\n        /* \"contracts/OrderBook.sol\":5144:5427  function fetchYourBidIds() public returns (uint[] memory) {... */\n    tag_55:\n        /* \"contracts/OrderBook.sol\":5187:5200  uint[] memory */\n      0x60\n        /* \"contracts/OrderBook.sol\":5212:5225  deleteArray() */\n      tag_203\n        /* \"contracts/OrderBook.sol\":5212:5223  deleteArray */\n      tag_59\n        /* \"contracts/OrderBook.sol\":5212:5225  deleteArray() */\n      jump\t// in\n    tag_203:\n        /* \"contracts/OrderBook.sol\":5240:5246  uint i */\n      0x00\n        /* \"contracts/OrderBook.sol\":5235:5397  for (uint i = 0; i < bidBook.length; i++) {... */\n    tag_204:\n        /* \"contracts/OrderBook.sol\":5256:5263  bidBook */\n      0x02\n        /* \"contracts/OrderBook.sol\":5256:5270  bidBook.length */\n      dup1\n      sload\n      swap1\n      pop\n        /* \"contracts/OrderBook.sol\":5252:5253  i */\n      dup2\n        /* \"contracts/OrderBook.sol\":5252:5270  i < bidBook.length */\n      lt\n        /* \"contracts/OrderBook.sol\":5235:5397  for (uint i = 0; i < bidBook.length; i++) {... */\n      iszero\n      tag_205\n      jumpi\n        /* \"contracts/OrderBook.sol\":5326:5336  msg.sender */\n      caller\n        /* \"contracts/OrderBook.sol\":5295:5337  bidBook[i].customer == payable(msg.sender) */\n      0xffffffffffffffffffffffffffffffffffffffff\n      and\n        /* \"contracts/OrderBook.sol\":5295:5302  bidBook */\n      0x02\n        /* \"contracts/OrderBook.sol\":5303:5304  i */\n      dup3\n        /* \"contracts/OrderBook.sol\":5295:5305  bidBook[i] */\n      dup2\n      sload\n      dup2\n      lt\n      tag_207\n      jumpi\n      tag_208\n      tag_65\n      jump\t// in\n    tag_208:\n    tag_207:\n      swap1\n      0x00\n      mstore\n      keccak256(0x00, 0x20)\n      swap1\n      0x04\n      mul\n      add\n        /* \"contracts/OrderBook.sol\":5295:5314  bidBook[i].customer */\n      0x00\n      add\n      0x00\n      swap1\n      sload\n      swap1\n      0x0100\n      exp\n      swap1\n      div\n      0xffffffffffffffffffffffffffffffffffffffff\n      and\n        /* \"contracts/OrderBook.sol\":5295:5337  bidBook[i].customer == payable(msg.sender) */\n      0xffffffffffffffffffffffffffffffffffffffff\n      and\n      sub\n        /* \"contracts/OrderBook.sol\":5291:5387  if (bidBook[i].customer == payable(msg.sender)) {... */\n      tag_210\n      jumpi\n        /* \"contracts/OrderBook.sol\":5357:5364  request */\n      0x04\n        /* \"contracts/OrderBook.sol\":5370:5371  i */\n      dup2\n        /* \"contracts/OrderBook.sol\":5357:5372  request.push(i) */\n      swap1\n      dup1\n      0x01\n      dup2\n      sload\n      add\n      dup1\n      dup3\n      sstore\n      dup1\n      swap2\n      pop\n      pop\n      0x01\n      swap1\n      sub\n      swap1\n      0x00\n      mstore\n      keccak256(0x00, 0x20)\n      add\n      0x00\n      swap1\n      swap2\n      swap1\n      swap2\n      swap1\n      swap2\n      pop\n      sstore\n        /* \"contracts/OrderBook.sol\":5291:5387  if (bidBook[i].customer == payable(msg.sender)) {... */\n    tag_210:\n        /* \"contracts/OrderBook.sol\":5272:5275  i++ */\n      dup1\n      dup1\n      tag_212\n      swap1\n      tag_70\n      jump\t// in\n    tag_212:\n      swap2\n      pop\n      pop\n        /* \"contracts/OrderBook.sol\":5235:5397  for (uint i = 0; i < bidBook.length; i++) {... */\n      jump(tag_204)\n    tag_205:\n      pop\n        /* \"contracts/OrderBook.sol\":5413:5420  request */\n      0x04\n        /* \"contracts/OrderBook.sol\":5406:5420  return request */\n      dup1\n      sload\n      dup1\n      0x20\n      mul\n      0x20\n      add\n      mload(0x40)\n      swap1\n      dup2\n      add\n      0x40\n      mstore\n      dup1\n      swap3\n      swap2\n      swap1\n      dup2\n      dup2\n      mstore\n      0x20\n      add\n      dup3\n      dup1\n      sload\n      dup1\n      iszero\n      tag_213\n      jumpi\n      0x20\n      mul\n      dup3\n      add\n      swap2\n      swap1\n      0x00\n      mstore\n      keccak256(0x00, 0x20)\n      swap1\n    tag_214:\n      dup2\n      sload\n      dup2\n      mstore\n      0x20\n      add\n      swap1\n      0x01\n      add\n      swap1\n      dup1\n      dup4\n      gt\n      tag_214\n      jumpi\n    tag_213:\n      pop\n      pop\n      pop\n      pop\n      pop\n      swap1\n      pop\n        /* \"contracts/OrderBook.sol\":5144:5427  function fetchYourBidIds() public returns (uint[] memory) {... */\n      swap1\n      jump\t// out\n        /* \"contracts/OrderBook.sol\":2069:2202  function deleteArray() internal {... */\n    tag_59:\n        /* \"contracts/OrderBook.sol\":2116:2122  uint i */\n      0x00\n        /* \"contracts/OrderBook.sol\":2111:2196  for (uint i = 0; i < request.length; i ++) {... */\n    tag_216:\n        /* \"contracts/OrderBook.sol\":2132:2139  request */\n      0x04\n        /* \"contracts/OrderBook.sol\":2132:2146  request.length */\n      dup1\n      sload\n      swap1\n      pop\n        /* \"contracts/OrderBook.sol\":2128:2129  i */\n      dup2\n        /* \"contracts/OrderBook.sol\":2128:2146  i < request.length */\n      lt\n        /* \"contracts/OrderBook.sol\":2111:2196  for (uint i = 0; i < request.length; i ++) {... */\n      iszero\n      tag_217\n      jumpi\n        /* \"contracts/OrderBook.sol\":2175:2182  request */\n      0x04\n        /* \"contracts/OrderBook.sol\":2183:2184  i */\n      dup2\n        /* \"contracts/OrderBook.sol\":2175:2185  request[i] */\n      dup2\n      sload\n      dup2\n      lt\n      tag_219\n      jumpi\n      tag_220\n      tag_65\n      jump\t// in\n    tag_220:\n    tag_219:\n      swap1\n      0x00\n      mstore\n      keccak256(0x00, 0x20)\n      add\n        /* \"contracts/OrderBook.sol\":2168:2185  delete request[i] */\n      0x00\n      swap1\n      sstore\n        /* \"contracts/OrderBook.sol\":2148:2152  i ++ */\n      dup1\n      dup1\n      tag_222\n      swap1\n      tag_70\n      jump\t// in\n    tag_222:\n      swap2\n      pop\n      pop\n        /* \"contracts/OrderBook.sol\":2111:2196  for (uint i = 0; i < request.length; i ++) {... */\n      jump(tag_216)\n    tag_217:\n      pop\n        /* \"contracts/OrderBook.sol\":2069:2202  function deleteArray() internal {... */\n      jump\t// out\n        /* \"contracts/OrderBook.sol\":1944:2063  function sortAsk() internal {... */\n    tag_105:\n        /* \"contracts/OrderBook.sol\":1981:2041  ascendingQuickSort(bidBook, int(0), int(bidBook.length - 1)) */\n      tag_224\n        /* \"contracts/OrderBook.sol\":2000:2007  bidBook */\n      0x02\n        /* \"contracts/OrderBook.sol\":1981:2041  ascendingQuickSort(bidBook, int(0), int(bidBook.length - 1)) */\n      dup1\n      sload\n      dup1\n      0x20\n      mul\n      0x20\n      add\n      mload(0x40)\n      swap1\n      dup2\n      add\n      0x40\n      mstore\n      dup1\n      swap3\n      swap2\n      swap1\n      dup2\n      dup2\n      mstore\n      0x20\n      add\n      0x00\n      swap1\n    tag_225:\n      dup3\n      dup3\n      lt\n      iszero\n      tag_226\n      jumpi\n      dup4\n      dup3\n      swap1\n      0x00\n      mstore\n      keccak256(0x00, 0x20)\n      swap1\n      0x04\n      mul\n      add\n      mload(0x40)\n      dup1\n      0x80\n      add\n      0x40\n      mstore\n      swap1\n      dup2\n      0x00\n      dup3\n      add\n      0x00\n      swap1\n      sload\n      swap1\n      0x0100\n      exp\n      swap1\n      div\n      0xffffffffffffffffffffffffffffffffffffffff\n      and\n      0xffffffffffffffffffffffffffffffffffffffff\n      and\n      0xffffffffffffffffffffffffffffffffffffffff\n      and\n      dup2\n      mstore\n      0x20\n      add\n      0x01\n      dup3\n      add\n      sload\n      dup2\n      mstore\n      0x20\n      add\n      0x02\n      dup3\n      add\n      sload\n      dup2\n      mstore\n      0x20\n      add\n      0x03\n      dup3\n      add\n      0x00\n      swap1\n      sload\n      swap1\n      0x0100\n      exp\n      swap1\n      div\n      0xff\n      and\n      0x01\n      dup2\n      gt\n      iszero\n      tag_228\n      jumpi\n      tag_229\n      tag_78\n      jump\t// in\n    tag_229:\n    tag_228:\n      0x01\n      dup2\n      gt\n      iszero\n      tag_230\n      jumpi\n      tag_231\n      tag_78\n      jump\t// in\n    tag_231:\n    tag_230:\n      dup2\n      mstore\n      pop\n      pop\n      dup2\n      mstore\n      0x20\n      add\n      swap1\n      0x01\n      add\n      swap1\n      jump(tag_225)\n    tag_226:\n      pop\n      pop\n      pop\n      pop\n        /* \"contracts/OrderBook.sol\":2013:2014  0 */\n      0x00\n        /* \"contracts/OrderBook.sol\":2038:2039  1 */\n      0x01\n        /* \"contracts/OrderBook.sol\":2021:2028  bidBook */\n      0x02\n        /* \"contracts/OrderBook.sol\":2021:2035  bidBook.length */\n      dup1\n      sload\n      swap1\n      pop\n        /* \"contracts/OrderBook.sol\":2021:2039  bidBook.length - 1 */\n      tag_232\n      swap2\n      swap1\n      tag_137\n      jump\t// in\n    tag_232:\n        /* \"contracts/OrderBook.sol\":1981:1999  ascendingQuickSort */\n      tag_233\n        /* \"contracts/OrderBook.sol\":1981:2041  ascendingQuickSort(bidBook, int(0), int(bidBook.length - 1)) */\n      jump\t// in\n    tag_224:\n        /* \"contracts/OrderBook.sol\":1944:2063  function sortAsk() internal {... */\n      jump\t// out\n        /* \"contracts/OrderBook.sol\":1818:1938  function sortBid() internal {... */\n    tag_175:\n        /* \"contracts/OrderBook.sol\":1855:1916  descendingQuickSort(bidBook, int(0), int(bidBook.length - 1)) */\n      tag_235\n        /* \"contracts/OrderBook.sol\":1875:1882  bidBook */\n      0x02\n        /* \"contracts/OrderBook.sol\":1855:1916  descendingQuickSort(bidBook, int(0), int(bidBook.length - 1)) */\n      dup1\n      sload\n      dup1\n      0x20\n      mul\n      0x20\n      add\n      mload(0x40)\n      swap1\n      dup2\n      add\n      0x40\n      mstore\n      dup1\n      swap3\n      swap2\n      swap1\n      dup2\n      dup2\n      mstore\n      0x20\n      add\n      0x00\n      swap1\n    tag_236:\n      dup3\n      dup3\n      lt\n      iszero\n      tag_237\n      jumpi\n      dup4\n      dup3\n      swap1\n      0x00\n      mstore\n      keccak256(0x00, 0x20)\n      swap1\n      0x04\n      mul\n      add\n      mload(0x40)\n      dup1\n      0x80\n      add\n      0x40\n      mstore\n      swap1\n      dup2\n      0x00\n      dup3\n      add\n      0x00\n      swap1\n      sload\n      swap1\n      0x0100\n      exp\n      swap1\n      div\n      0xffffffffffffffffffffffffffffffffffffffff\n      and\n      0xffffffffffffffffffffffffffffffffffffffff\n      and\n      0xffffffffffffffffffffffffffffffffffffffff\n      and\n      dup2\n      mstore\n      0x20\n      add\n      0x01\n      dup3\n      add\n      sload\n      dup2\n      mstore\n      0x20\n      add\n      0x02\n      dup3\n      add\n      sload\n      dup2\n      mstore\n      0x20\n      add\n      0x03\n      dup3\n      add\n      0x00\n      swap1\n      sload\n      swap1\n      0x0100\n      exp\n      swap1\n      div\n      0xff\n      and\n      0x01\n      dup2\n      gt\n      iszero\n      tag_239\n      jumpi\n      tag_240\n      tag_78\n      jump\t// in\n    tag_240:\n    tag_239:\n      0x01\n      dup2\n      gt\n      iszero\n      tag_241\n      jumpi\n      tag_242\n      tag_78\n      jump\t// in\n    tag_242:\n    tag_241:\n      dup2\n      mstore\n      pop\n      pop\n      dup2\n      mstore\n      0x20\n      add\n      swap1\n      0x01\n      add\n      swap1\n      jump(tag_236)\n    tag_237:\n      pop\n      pop\n      pop\n      pop\n        /* \"contracts/OrderBook.sol\":1888:1889  0 */\n      0x00\n        /* \"contracts/OrderBook.sol\":1913:1914  1 */\n      0x01\n        /* \"contracts/OrderBook.sol\":1896:1903  bidBook */\n      0x02\n        /* \"contracts/OrderBook.sol\":1896:1910  bidBook.length */\n      dup1\n      sload\n      swap1\n      pop\n        /* \"contracts/OrderBook.sol\":1896:1914  bidBook.length - 1 */\n      tag_243\n      swap2\n      swap1\n      tag_137\n      jump\t// in\n    tag_243:\n        /* \"contracts/OrderBook.sol\":1855:1874  descendingQuickSort */\n      tag_244\n        /* \"contracts/OrderBook.sol\":1855:1916  descendingQuickSort(bidBook, int(0), int(bidBook.length - 1)) */\n      jump\t// in\n    tag_235:\n        /* \"contracts/OrderBook.sol\":1818:1938  function sortBid() internal {... */\n      jump\t// out\n        /* \"contracts/OrderBook.sol\":2887:3557  function ascendingQuickSort(order[] memory arr, int left, int right) internal{... */\n    tag_233:\n        /* \"contracts/OrderBook.sol\":2974:2979  int i */\n      0x00\n        /* \"contracts/OrderBook.sol\":2982:2986  left */\n      dup3\n        /* \"contracts/OrderBook.sol\":2974:2986  int i = left */\n      swap1\n      pop\n        /* \"contracts/OrderBook.sol\":2996:3001  int j */\n      0x00\n        /* \"contracts/OrderBook.sol\":3004:3009  right */\n      dup3\n        /* \"contracts/OrderBook.sol\":2996:3009  int j = right */\n      swap1\n      pop\n        /* \"contracts/OrderBook.sol\":3025:3026  j */\n      dup1\n        /* \"contracts/OrderBook.sol\":3022:3023  i */\n      dup3\n        /* \"contracts/OrderBook.sol\":3022:3026  i==j */\n      sub\n        /* \"contracts/OrderBook.sol\":3019:3035  if(i==j) return; */\n      tag_246\n      jumpi\n        /* \"contracts/OrderBook.sol\":3028:3035  return; */\n      pop\n      pop\n      jump(tag_245)\n        /* \"contracts/OrderBook.sol\":3019:3035  if(i==j) return; */\n    tag_246:\n        /* \"contracts/OrderBook.sol\":3044:3057  uint256 pivot */\n      0x00\n        /* \"contracts/OrderBook.sol\":3060:3063  arr */\n      dup6\n        /* \"contracts/OrderBook.sol\":3093:3094  2 */\n      0x02\n        /* \"contracts/OrderBook.sol\":3085:3089  left */\n      dup7\n        /* \"contracts/OrderBook.sol\":3077:3082  right */\n      dup7\n        /* \"contracts/OrderBook.sol\":3077:3089  right - left */\n      tag_247\n      swap2\n      swap1\n      tag_248\n      jump\t// in\n    tag_247:\n        /* \"contracts/OrderBook.sol\":3076:3094  (right - left) / 2 */\n      tag_249\n      swap2\n      swap1\n      tag_250\n      jump\t// in\n    tag_249:\n        /* \"contracts/OrderBook.sol\":3069:3073  left */\n      dup7\n        /* \"contracts/OrderBook.sol\":3069:3094  left + (right - left) / 2 */\n      tag_251\n      swap2\n      swap1\n      tag_252\n      jump\t// in\n    tag_251:\n        /* \"contracts/OrderBook.sol\":3060:3096  arr[uint(left + (right - left) / 2)] */\n      dup2\n      mload\n      dup2\n      lt\n      tag_253\n      jumpi\n      tag_254\n      tag_65\n      jump\t// in\n    tag_254:\n    tag_253:\n      0x20\n      mul\n      0x20\n      add\n      add\n      mload\n        /* \"contracts/OrderBook.sol\":3060:3106  arr[uint(left + (right - left) / 2)].timestamp */\n      0x40\n      add\n      mload\n        /* \"contracts/OrderBook.sol\":3044:3106  uint256 pivot = arr[uint(left + (right - left) / 2)].timestamp */\n      swap1\n      pop\n        /* \"contracts/OrderBook.sol\":3116:3413  while (i <= j) {... */\n    tag_255:\n        /* \"contracts/OrderBook.sol\":3128:3129  j */\n      dup2\n        /* \"contracts/OrderBook.sol\":3123:3124  i */\n      dup4\n        /* \"contracts/OrderBook.sol\":3123:3129  i <= j */\n      sgt\n        /* \"contracts/OrderBook.sol\":3116:3413  while (i <= j) {... */\n      tag_256\n      jumpi\n        /* \"contracts/OrderBook.sol\":3145:3187  while (arr[uint(i)].timestamp > pivot) i++ */\n    tag_257:\n        /* \"contracts/OrderBook.sol\":3177:3182  pivot */\n      dup1\n        /* \"contracts/OrderBook.sol\":3152:3155  arr */\n      dup7\n        /* \"contracts/OrderBook.sol\":3161:3162  i */\n      dup5\n        /* \"contracts/OrderBook.sol\":3152:3164  arr[uint(i)] */\n      dup2\n      mload\n      dup2\n      lt\n      tag_259\n      jumpi\n      tag_260\n      tag_65\n      jump\t// in\n    tag_260:\n    tag_259:\n      0x20\n      mul\n      0x20\n      add\n      add\n      mload\n        /* \"contracts/OrderBook.sol\":3152:3174  arr[uint(i)].timestamp */\n      0x40\n      add\n      mload\n        /* \"contracts/OrderBook.sol\":3152:3182  arr[uint(i)].timestamp > pivot */\n      gt\n        /* \"contracts/OrderBook.sol\":3145:3187  while (arr[uint(i)].timestamp > pivot) i++ */\n      iszero\n      tag_258\n      jumpi\n        /* \"contracts/OrderBook.sol\":3184:3187  i++ */\n      dup3\n      dup1\n      tag_261\n      swap1\n      tag_262\n      jump\t// in\n    tag_261:\n      swap4\n      pop\n      pop\n        /* \"contracts/OrderBook.sol\":3145:3187  while (arr[uint(i)].timestamp > pivot) i++ */\n      jump(tag_257)\n    tag_258:\n        /* \"contracts/OrderBook.sol\":3201:3243  while (pivot > arr[uint(j)].timestamp) j-- */\n    tag_263:\n        /* \"contracts/OrderBook.sol\":3216:3219  arr */\n      dup6\n        /* \"contracts/OrderBook.sol\":3225:3226  j */\n      dup3\n        /* \"contracts/OrderBook.sol\":3216:3228  arr[uint(j)] */\n      dup2\n      mload\n      dup2\n      lt\n      tag_265\n      jumpi\n      tag_266\n      tag_65\n      jump\t// in\n    tag_266:\n    tag_265:\n      0x20\n      mul\n      0x20\n      add\n      add\n      mload\n        /* \"contracts/OrderBook.sol\":3216:3238  arr[uint(j)].timestamp */\n      0x40\n      add\n      mload\n        /* \"contracts/OrderBook.sol\":3208:3213  pivot */\n      dup2\n        /* \"contracts/OrderBook.sol\":3208:3238  pivot > arr[uint(j)].timestamp */\n      gt\n        /* \"contracts/OrderBook.sol\":3201:3243  while (pivot > arr[uint(j)].timestamp) j-- */\n      iszero\n      tag_264\n      jumpi\n        /* \"contracts/OrderBook.sol\":3240:3243  j-- */\n      dup2\n      dup1\n      tag_267\n      swap1\n      tag_268\n      jump\t// in\n    tag_267:\n      swap3\n      pop\n      pop\n        /* \"contracts/OrderBook.sol\":3201:3243  while (pivot > arr[uint(j)].timestamp) j-- */\n      jump(tag_263)\n    tag_264:\n        /* \"contracts/OrderBook.sol\":3266:3267  j */\n      dup2\n        /* \"contracts/OrderBook.sol\":3261:3262  i */\n      dup4\n        /* \"contracts/OrderBook.sol\":3261:3267  i <= j */\n      sgt\n        /* \"contracts/OrderBook.sol\":3257:3403  if (i <= j) {... */\n      tag_269\n      jumpi\n        /* \"contracts/OrderBook.sol\":3319:3322  arr */\n      dup6\n        /* \"contracts/OrderBook.sol\":3328:3329  j */\n      dup3\n        /* \"contracts/OrderBook.sol\":3319:3331  arr[uint(j)] */\n      dup2\n      mload\n      dup2\n      lt\n      tag_270\n      jumpi\n      tag_271\n      tag_65\n      jump\t// in\n    tag_271:\n    tag_270:\n      0x20\n      mul\n      0x20\n      add\n      add\n      mload\n        /* \"contracts/OrderBook.sol\":3333:3336  arr */\n      dup7\n        /* \"contracts/OrderBook.sol\":3342:3343  i */\n      dup5\n        /* \"contracts/OrderBook.sol\":3333:3345  arr[uint(i)] */\n      dup2\n      mload\n      dup2\n      lt\n      tag_272\n      jumpi\n      tag_273\n      tag_65\n      jump\t// in\n    tag_273:\n    tag_272:\n      0x20\n      mul\n      0x20\n      add\n      add\n      mload\n        /* \"contracts/OrderBook.sol\":3288:3291  arr */\n      dup8\n        /* \"contracts/OrderBook.sol\":3297:3298  i */\n      dup6\n        /* \"contracts/OrderBook.sol\":3288:3300  arr[uint(i)] */\n      dup2\n      mload\n      dup2\n      lt\n      tag_274\n      jumpi\n      tag_275\n      tag_65\n      jump\t// in\n    tag_275:\n    tag_274:\n      0x20\n      mul\n      0x20\n      add\n      add\n        /* \"contracts/OrderBook.sol\":3302:3305  arr */\n      dup9\n        /* \"contracts/OrderBook.sol\":3311:3312  j */\n      dup6\n        /* \"contracts/OrderBook.sol\":3302:3314  arr[uint(j)] */\n      dup2\n      mload\n      dup2\n      lt\n      tag_276\n      jumpi\n      tag_277\n      tag_65\n      jump\t// in\n    tag_277:\n    tag_276:\n      0x20\n      mul\n      0x20\n      add\n      add\n        /* \"contracts/OrderBook.sol\":3287:3346  (arr[uint(i)], arr[uint(j)]) = (arr[uint(j)], arr[uint(i)]) */\n      dup3\n      swap1\n      mstore\n      dup3\n      swap1\n      mstore\n      pop\n      pop\n        /* \"contracts/OrderBook.sol\":3364:3367  i++ */\n      dup3\n      dup1\n      tag_278\n      swap1\n      tag_262\n      jump\t// in\n    tag_278:\n      swap4\n      pop\n      pop\n        /* \"contracts/OrderBook.sol\":3385:3388  j-- */\n      dup2\n      dup1\n      tag_279\n      swap1\n      tag_268\n      jump\t// in\n    tag_279:\n      swap3\n      pop\n      pop\n        /* \"contracts/OrderBook.sol\":3257:3403  if (i <= j) {... */\n    tag_269:\n        /* \"contracts/OrderBook.sol\":3116:3413  while (i <= j) {... */\n      jump(tag_255)\n    tag_256:\n        /* \"contracts/OrderBook.sol\":3433:3434  j */\n      dup2\n        /* \"contracts/OrderBook.sol\":3426:3430  left */\n      dup6\n        /* \"contracts/OrderBook.sol\":3426:3434  left < j */\n      slt\n        /* \"contracts/OrderBook.sol\":3422:3480  if (left < j)... */\n      iszero\n      tag_280\n      jumpi\n        /* \"contracts/OrderBook.sol\":3448:3480  ascendingQuickSort(arr, left, j) */\n      tag_281\n        /* \"contracts/OrderBook.sol\":3467:3470  arr */\n      dup7\n        /* \"contracts/OrderBook.sol\":3472:3476  left */\n      dup7\n        /* \"contracts/OrderBook.sol\":3478:3479  j */\n      dup5\n        /* \"contracts/OrderBook.sol\":3448:3466  ascendingQuickSort */\n      tag_233\n        /* \"contracts/OrderBook.sol\":3448:3480  ascendingQuickSort(arr, left, j) */\n      jump\t// in\n    tag_281:\n        /* \"contracts/OrderBook.sol\":3422:3480  if (left < j)... */\n    tag_280:\n        /* \"contracts/OrderBook.sol\":3498:3503  right */\n      dup4\n        /* \"contracts/OrderBook.sol\":3494:3495  i */\n      dup4\n        /* \"contracts/OrderBook.sol\":3494:3503  i < right */\n      slt\n        /* \"contracts/OrderBook.sol\":3490:3550  if (i < right)... */\n      iszero\n      tag_282\n      jumpi\n        /* \"contracts/OrderBook.sol\":3517:3550  ascendingQuickSort(arr, i, right) */\n      tag_283\n        /* \"contracts/OrderBook.sol\":3536:3539  arr */\n      dup7\n        /* \"contracts/OrderBook.sol\":3541:3542  i */\n      dup5\n        /* \"contracts/OrderBook.sol\":3544:3549  right */\n      dup7\n        /* \"contracts/OrderBook.sol\":3517:3535  ascendingQuickSort */\n      tag_233\n        /* \"contracts/OrderBook.sol\":3517:3550  ascendingQuickSort(arr, i, right) */\n      jump\t// in\n    tag_283:\n        /* \"contracts/OrderBook.sol\":3490:3550  if (i < right)... */\n    tag_282:\n        /* \"contracts/OrderBook.sol\":2964:3557  {... */\n      pop\n      pop\n      pop\n        /* \"contracts/OrderBook.sol\":2887:3557  function ascendingQuickSort(order[] memory arr, int left, int right) internal{... */\n    tag_245:\n      pop\n      pop\n      pop\n      jump\t// out\n        /* \"contracts/OrderBook.sol\":2208:2881  function descendingQuickSort(order[] memory arr, int left, int right) internal{... */\n    tag_244:\n        /* \"contracts/OrderBook.sol\":2296:2301  int i */\n      0x00\n        /* \"contracts/OrderBook.sol\":2304:2308  left */\n      dup3\n        /* \"contracts/OrderBook.sol\":2296:2308  int i = left */\n      swap1\n      pop\n        /* \"contracts/OrderBook.sol\":2318:2323  int j */\n      0x00\n        /* \"contracts/OrderBook.sol\":2326:2331  right */\n      dup3\n        /* \"contracts/OrderBook.sol\":2318:2331  int j = right */\n      swap1\n      pop\n        /* \"contracts/OrderBook.sol\":2347:2348  j */\n      dup1\n        /* \"contracts/OrderBook.sol\":2344:2345  i */\n      dup3\n        /* \"contracts/OrderBook.sol\":2344:2348  i==j */\n      sub\n        /* \"contracts/OrderBook.sol\":2341:2357  if(i==j) return; */\n      tag_285\n      jumpi\n        /* \"contracts/OrderBook.sol\":2350:2357  return; */\n      pop\n      pop\n      jump(tag_284)\n        /* \"contracts/OrderBook.sol\":2341:2357  if(i==j) return; */\n    tag_285:\n        /* \"contracts/OrderBook.sol\":2366:2379  uint256 pivot */\n      0x00\n        /* \"contracts/OrderBook.sol\":2382:2385  arr */\n      dup6\n        /* \"contracts/OrderBook.sol\":2415:2416  2 */\n      0x02\n        /* \"contracts/OrderBook.sol\":2407:2411  left */\n      dup7\n        /* \"contracts/OrderBook.sol\":2399:2404  right */\n      dup7\n        /* \"contracts/OrderBook.sol\":2399:2411  right - left */\n      tag_286\n      swap2\n      swap1\n      tag_248\n      jump\t// in\n    tag_286:\n        /* \"contracts/OrderBook.sol\":2398:2416  (right - left) / 2 */\n      tag_287\n      swap2\n      swap1\n      tag_250\n      jump\t// in\n    tag_287:\n        /* \"contracts/OrderBook.sol\":2391:2395  left */\n      dup7\n        /* \"contracts/OrderBook.sol\":2391:2416  left + (right - left) / 2 */\n      tag_288\n      swap2\n      swap1\n      tag_252\n      jump\t// in\n    tag_288:\n        /* \"contracts/OrderBook.sol\":2382:2418  arr[uint(left + (right - left) / 2)] */\n      dup2\n      mload\n      dup2\n      lt\n      tag_289\n      jumpi\n      tag_290\n      tag_65\n      jump\t// in\n    tag_290:\n    tag_289:\n      0x20\n      mul\n      0x20\n      add\n      add\n      mload\n        /* \"contracts/OrderBook.sol\":2382:2428  arr[uint(left + (right - left) / 2)].timestamp */\n      0x40\n      add\n      mload\n        /* \"contracts/OrderBook.sol\":2366:2428  uint256 pivot = arr[uint(left + (right - left) / 2)].timestamp */\n      swap1\n      pop\n        /* \"contracts/OrderBook.sol\":2438:2735  while (i <= j) {... */\n    tag_291:\n        /* \"contracts/OrderBook.sol\":2450:2451  j */\n      dup2\n        /* \"contracts/OrderBook.sol\":2445:2446  i */\n      dup4\n        /* \"contracts/OrderBook.sol\":2445:2451  i <= j */\n      sgt\n        /* \"contracts/OrderBook.sol\":2438:2735  while (i <= j) {... */\n      tag_292\n      jumpi\n        /* \"contracts/OrderBook.sol\":2467:2509  while (arr[uint(i)].timestamp < pivot) i++ */\n    tag_293:\n        /* \"contracts/OrderBook.sol\":2499:2504  pivot */\n      dup1\n        /* \"contracts/OrderBook.sol\":2474:2477  arr */\n      dup7\n        /* \"contracts/OrderBook.sol\":2483:2484  i */\n      dup5\n        /* \"contracts/OrderBook.sol\":2474:2486  arr[uint(i)] */\n      dup2\n      mload\n      dup2\n      lt\n      tag_295\n      jumpi\n      tag_296\n      tag_65\n      jump\t// in\n    tag_296:\n    tag_295:\n      0x20\n      mul\n      0x20\n      add\n      add\n      mload\n        /* \"contracts/OrderBook.sol\":2474:2496  arr[uint(i)].timestamp */\n      0x40\n      add\n      mload\n        /* \"contracts/OrderBook.sol\":2474:2504  arr[uint(i)].timestamp < pivot */\n      lt\n        /* \"contracts/OrderBook.sol\":2467:2509  while (arr[uint(i)].timestamp < pivot) i++ */\n      iszero\n      tag_294\n      jumpi\n        /* \"contracts/OrderBook.sol\":2506:2509  i++ */\n      dup3\n      dup1\n      tag_297\n      swap1\n      tag_262\n      jump\t// in\n    tag_297:\n      swap4\n      pop\n      pop\n        /* \"contracts/OrderBook.sol\":2467:2509  while (arr[uint(i)].timestamp < pivot) i++ */\n      jump(tag_293)\n    tag_294:\n        /* \"contracts/OrderBook.sol\":2523:2565  while (pivot < arr[uint(j)].timestamp) j-- */\n    tag_298:\n        /* \"contracts/OrderBook.sol\":2538:2541  arr */\n      dup6\n        /* \"contracts/OrderBook.sol\":2547:2548  j */\n      dup3\n        /* \"contracts/OrderBook.sol\":2538:2550  arr[uint(j)] */\n      dup2\n      mload\n      dup2\n      lt\n      tag_300\n      jumpi\n      tag_301\n      tag_65\n      jump\t// in\n    tag_301:\n    tag_300:\n      0x20\n      mul\n      0x20\n      add\n      add\n      mload\n        /* \"contracts/OrderBook.sol\":2538:2560  arr[uint(j)].timestamp */\n      0x40\n      add\n      mload\n        /* \"contracts/OrderBook.sol\":2530:2535  pivot */\n      dup2\n        /* \"contracts/OrderBook.sol\":2530:2560  pivot < arr[uint(j)].timestamp */\n      lt\n        /* \"contracts/OrderBook.sol\":2523:2565  while (pivot < arr[uint(j)].timestamp) j-- */\n      iszero\n      tag_299\n      jumpi\n        /* \"contracts/OrderBook.sol\":2562:2565  j-- */\n      dup2\n      dup1\n      tag_302\n      swap1\n      tag_268\n      jump\t// in\n    tag_302:\n      swap3\n      pop\n      pop\n        /* \"contracts/OrderBook.sol\":2523:2565  while (pivot < arr[uint(j)].timestamp) j-- */\n      jump(tag_298)\n    tag_299:\n        /* \"contracts/OrderBook.sol\":2588:2589  j */\n      dup2\n        /* \"contracts/OrderBook.sol\":2583:2584  i */\n      dup4\n        /* \"contracts/OrderBook.sol\":2583:2589  i <= j */\n      sgt\n        /* \"contracts/OrderBook.sol\":2579:2725  if (i <= j) {... */\n      tag_303\n      jumpi\n        /* \"contracts/OrderBook.sol\":2641:2644  arr */\n      dup6\n        /* \"contracts/OrderBook.sol\":2650:2651  j */\n      dup3\n        /* \"contracts/OrderBook.sol\":2641:2653  arr[uint(j)] */\n      dup2\n      mload\n      dup2\n      lt\n      tag_304\n      jumpi\n      tag_305\n      tag_65\n      jump\t// in\n    tag_305:\n    tag_304:\n      0x20\n      mul\n      0x20\n      add\n      add\n      mload\n        /* \"contracts/OrderBook.sol\":2655:2658  arr */\n      dup7\n        /* \"contracts/OrderBook.sol\":2664:2665  i */\n      dup5\n        /* \"contracts/OrderBook.sol\":2655:2667  arr[uint(i)] */\n      dup2\n      mload\n      dup2\n      lt\n      tag_306\n      jumpi\n      tag_307\n      tag_65\n      jump\t// in\n    tag_307:\n    tag_306:\n      0x20\n      mul\n      0x20\n      add\n      add\n      mload\n        /* \"contracts/OrderBook.sol\":2610:2613  arr */\n      dup8\n        /* \"contracts/OrderBook.sol\":2619:2620  i */\n      dup6\n        /* \"contracts/OrderBook.sol\":2610:2622  arr[uint(i)] */\n      dup2\n      mload\n      dup2\n      lt\n      tag_308\n      jumpi\n      tag_309\n      tag_65\n      jump\t// in\n    tag_309:\n    tag_308:\n      0x20\n      mul\n      0x20\n      add\n      add\n        /* \"contracts/OrderBook.sol\":2624:2627  arr */\n      dup9\n        /* \"contracts/OrderBook.sol\":2633:2634  j */\n      dup6\n        /* \"contracts/OrderBook.sol\":2624:2636  arr[uint(j)] */\n      dup2\n      mload\n      dup2\n      lt\n      tag_310\n      jumpi\n      tag_311\n      tag_65\n      jump\t// in\n    tag_311:\n    tag_310:\n      0x20\n      mul\n      0x20\n      add\n      add\n        /* \"contracts/OrderBook.sol\":2609:2668  (arr[uint(i)], arr[uint(j)]) = (arr[uint(j)], arr[uint(i)]) */\n      dup3\n      swap1\n      mstore\n      dup3\n      swap1\n      mstore\n      pop\n      pop\n        /* \"contracts/OrderBook.sol\":2686:2689  i++ */\n      dup3\n      dup1\n      tag_312\n      swap1\n      tag_262\n      jump\t// in\n    tag_312:\n      swap4\n      pop\n      pop\n        /* \"contracts/OrderBook.sol\":2707:2710  j-- */\n      dup2\n      dup1\n      tag_313\n      swap1\n      tag_268\n      jump\t// in\n    tag_313:\n      swap3\n      pop\n      pop\n        /* \"contracts/OrderBook.sol\":2579:2725  if (i <= j) {... */\n    tag_303:\n        /* \"contracts/OrderBook.sol\":2438:2735  while (i <= j) {... */\n      jump(tag_291)\n    tag_292:\n        /* \"contracts/OrderBook.sol\":2755:2756  j */\n      dup2\n        /* \"contracts/OrderBook.sol\":2748:2752  left */\n      dup6\n        /* \"contracts/OrderBook.sol\":2748:2756  left < j */\n      slt\n        /* \"contracts/OrderBook.sol\":2744:2803  if (left < j)... */\n      iszero\n      tag_314\n      jumpi\n        /* \"contracts/OrderBook.sol\":2770:2803  descendingQuickSort(arr, left, j) */\n      tag_315\n        /* \"contracts/OrderBook.sol\":2790:2793  arr */\n      dup7\n        /* \"contracts/OrderBook.sol\":2795:2799  left */\n      dup7\n        /* \"contracts/OrderBook.sol\":2801:2802  j */\n      dup5\n        /* \"contracts/OrderBook.sol\":2770:2789  descendingQuickSort */\n      tag_244\n        /* \"contracts/OrderBook.sol\":2770:2803  descendingQuickSort(arr, left, j) */\n      jump\t// in\n    tag_315:\n        /* \"contracts/OrderBook.sol\":2744:2803  if (left < j)... */\n    tag_314:\n        /* \"contracts/OrderBook.sol\":2821:2826  right */\n      dup4\n        /* \"contracts/OrderBook.sol\":2817:2818  i */\n      dup4\n        /* \"contracts/OrderBook.sol\":2817:2826  i < right */\n      slt\n        /* \"contracts/OrderBook.sol\":2813:2874  if (i < right)... */\n      iszero\n      tag_316\n      jumpi\n        /* \"contracts/OrderBook.sol\":2840:2874  descendingQuickSort(arr, i, right) */\n      tag_317\n        /* \"contracts/OrderBook.sol\":2860:2863  arr */\n      dup7\n        /* \"contracts/OrderBook.sol\":2865:2866  i */\n      dup5\n        /* \"contracts/OrderBook.sol\":2868:2873  right */\n      dup7\n        /* \"contracts/OrderBook.sol\":2840:2859  descendingQuickSort */\n      tag_244\n        /* \"contracts/OrderBook.sol\":2840:2874  descendingQuickSort(arr, i, right) */\n      jump\t// in\n    tag_317:\n        /* \"contracts/OrderBook.sol\":2813:2874  if (i < right)... */\n    tag_316:\n        /* \"contracts/OrderBook.sol\":2286:2881  {... */\n      pop\n      pop\n      pop\n        /* \"contracts/OrderBook.sol\":2208:2881  function descendingQuickSort(order[] memory arr, int left, int right) internal{... */\n    tag_284:\n      pop\n      pop\n      pop\n      jump\t// out\n        /* \"#utility.yul\":7:121   */\n    tag_318:\n        /* \"#utility.yul\":74:80   */\n      0x00\n        /* \"#utility.yul\":108:113   */\n      dup2\n        /* \"#utility.yul\":102:114   */\n      mload\n        /* \"#utility.yul\":92:114   */\n      swap1\n      pop\n        /* \"#utility.yul\":7:121   */\n      swap2\n      swap1\n      pop\n      jump\t// out\n        /* \"#utility.yul\":127:311   */\n    tag_319:\n        /* \"#utility.yul\":226:237   */\n      0x00\n        /* \"#utility.yul\":260:266   */\n      dup3\n        /* \"#utility.yul\":255:258   */\n      dup3\n        /* \"#utility.yul\":248:267   */\n      mstore\n        /* \"#utility.yul\":300:304   */\n      0x20\n        /* \"#utility.yul\":295:298   */\n      dup3\n        /* \"#utility.yul\":291:305   */\n      add\n        /* \"#utility.yul\":276:305   */\n      swap1\n      pop\n        /* \"#utility.yul\":127:311   */\n      swap3\n      swap2\n      pop\n      pop\n      jump\t// out\n        /* \"#utility.yul\":317:449   */\n    tag_320:\n        /* \"#utility.yul\":384:388   */\n      0x00\n        /* \"#utility.yul\":407:410   */\n      dup2\n        /* \"#utility.yul\":399:410   */\n      swap1\n      pop\n        /* \"#utility.yul\":437:441   */\n      0x20\n        /* \"#utility.yul\":432:435   */\n      dup3\n        /* \"#utility.yul\":428:442   */\n      add\n        /* \"#utility.yul\":420:442   */\n      swap1\n      pop\n        /* \"#utility.yul\":317:449   */\n      swap2\n      swap1\n      pop\n      jump\t// out\n        /* \"#utility.yul\":455:532   */\n    tag_321:\n        /* \"#utility.yul\":492:499   */\n      0x00\n        /* \"#utility.yul\":521:526   */\n      dup2\n        /* \"#utility.yul\":510:526   */\n      swap1\n      pop\n        /* \"#utility.yul\":455:532   */\n      swap2\n      swap1\n      pop\n      jump\t// out\n        /* \"#utility.yul\":538:646   */\n    tag_322:\n        /* \"#utility.yul\":615:639   */\n      tag_370\n        /* \"#utility.yul\":633:638   */\n      dup2\n        /* \"#utility.yul\":615:639   */\n      tag_321\n      jump\t// in\n    tag_370:\n        /* \"#utility.yul\":610:613   */\n      dup3\n        /* \"#utility.yul\":603:640   */\n      mstore\n        /* \"#utility.yul\":538:646   */\n      pop\n      pop\n      jump\t// out\n        /* \"#utility.yul\":652:831   */\n    tag_323:\n        /* \"#utility.yul\":721:731   */\n      0x00\n        /* \"#utility.yul\":742:788   */\n      tag_372\n        /* \"#utility.yul\":784:787   */\n      dup4\n        /* \"#utility.yul\":776:782   */\n      dup4\n        /* \"#utility.yul\":742:788   */\n      tag_322\n      jump\t// in\n    tag_372:\n        /* \"#utility.yul\":820:824   */\n      0x20\n        /* \"#utility.yul\":815:818   */\n      dup4\n        /* \"#utility.yul\":811:825   */\n      add\n        /* \"#utility.yul\":797:825   */\n      swap1\n      pop\n        /* \"#utility.yul\":652:831   */\n      swap3\n      swap2\n      pop\n      pop\n      jump\t// out\n        /* \"#utility.yul\":837:950   */\n    tag_324:\n        /* \"#utility.yul\":907:911   */\n      0x00\n        /* \"#utility.yul\":939:943   */\n      0x20\n        /* \"#utility.yul\":934:937   */\n      dup3\n        /* \"#utility.yul\":930:944   */\n      add\n        /* \"#utility.yul\":922:944   */\n      swap1\n      pop\n        /* \"#utility.yul\":837:950   */\n      swap2\n      swap1\n      pop\n      jump\t// out\n        /* \"#utility.yul\":986:1718   */\n    tag_325:\n        /* \"#utility.yul\":1105:1108   */\n      0x00\n        /* \"#utility.yul\":1134:1188   */\n      tag_375\n        /* \"#utility.yul\":1182:1187   */\n      dup3\n        /* \"#utility.yul\":1134:1188   */\n      tag_318\n      jump\t// in\n    tag_375:\n        /* \"#utility.yul\":1204:1290   */\n      tag_376\n        /* \"#utility.yul\":1283:1289   */\n      dup2\n        /* \"#utility.yul\":1278:1281   */\n      dup6\n        /* \"#utility.yul\":1204:1290   */\n      tag_319\n      jump\t// in\n    tag_376:\n        /* \"#utility.yul\":1197:1290   */\n      swap4\n      pop\n        /* \"#utility.yul\":1314:1370   */\n      tag_377\n        /* \"#utility.yul\":1364:1369   */\n      dup4\n        /* \"#utility.yul\":1314:1370   */\n      tag_320\n      jump\t// in\n    tag_377:\n        /* \"#utility.yul\":1393:1400   */\n      dup1\n        /* \"#utility.yul\":1424:1425   */\n      0x00\n        /* \"#utility.yul\":1409:1693   */\n    tag_378:\n        /* \"#utility.yul\":1434:1440   */\n      dup4\n        /* \"#utility.yul\":1431:1432   */\n      dup2\n        /* \"#utility.yul\":1428:1441   */\n      lt\n        /* \"#utility.yul\":1409:1693   */\n      iszero\n      tag_380\n      jumpi\n        /* \"#utility.yul\":1510:1516   */\n      dup2\n        /* \"#utility.yul\":1504:1517   */\n      mload\n        /* \"#utility.yul\":1537:1600   */\n      tag_381\n        /* \"#utility.yul\":1596:1599   */\n      dup9\n        /* \"#utility.yul\":1581:1594   */\n      dup3\n        /* \"#utility.yul\":1537:1600   */\n      tag_323\n      jump\t// in\n    tag_381:\n        /* \"#utility.yul\":1530:1600   */\n      swap8\n      pop\n        /* \"#utility.yul\":1623:1683   */\n      tag_382\n        /* \"#utility.yul\":1676:1682   */\n      dup4\n        /* \"#utility.yul\":1623:1683   */\n      tag_324\n      jump\t// in\n    tag_382:\n        /* \"#utility.yul\":1613:1683   */\n      swap3\n      pop\n        /* \"#utility.yul\":1469:1693   */\n      pop\n        /* \"#utility.yul\":1456:1457   */\n      0x01\n        /* \"#utility.yul\":1453:1454   */\n      dup2\n        /* \"#utility.yul\":1449:1458   */\n      add\n        /* \"#utility.yul\":1444:1458   */\n      swap1\n      pop\n        /* \"#utility.yul\":1409:1693   */\n      jump(tag_378)\n    tag_380:\n        /* \"#utility.yul\":1413:1427   */\n      pop\n        /* \"#utility.yul\":1709:1712   */\n      dup6\n        /* \"#utility.yul\":1702:1712   */\n      swap4\n      pop\n        /* \"#utility.yul\":1110:1718   */\n      pop\n      pop\n      pop\n        /* \"#utility.yul\":986:1718   */\n      swap3\n      swap2\n      pop\n      pop\n      jump\t// out\n        /* \"#utility.yul\":1724:2097   */\n    tag_17:\n        /* \"#utility.yul\":1867:1871   */\n      0x00\n        /* \"#utility.yul\":1905:1907   */\n      0x20\n        /* \"#utility.yul\":1894:1903   */\n      dup3\n        /* \"#utility.yul\":1890:1908   */\n      add\n        /* \"#utility.yul\":1882:1908   */\n      swap1\n      pop\n        /* \"#utility.yul\":1954:1963   */\n      dup2\n        /* \"#utility.yul\":1948:1952   */\n      dup2\n        /* \"#utility.yul\":1944:1964   */\n      sub\n        /* \"#utility.yul\":1940:1941   */\n      0x00\n        /* \"#utility.yul\":1929:1938   */\n      dup4\n        /* \"#utility.yul\":1925:1942   */\n      add\n        /* \"#utility.yul\":1918:1965   */\n      mstore\n        /* \"#utility.yul\":1982:2090   */\n      tag_384\n        /* \"#utility.yul\":2085:2089   */\n      dup2\n        /* \"#utility.yul\":2076:2082   */\n      dup5\n        /* \"#utility.yul\":1982:2090   */\n      tag_325\n      jump\t// in\n    tag_384:\n        /* \"#utility.yul\":1974:2090   */\n      swap1\n      pop\n        /* \"#utility.yul\":1724:2097   */\n      swap3\n      swap2\n      pop\n      pop\n      jump\t// out\n        /* \"#utility.yul\":2184:2301   */\n    tag_327:\n        /* \"#utility.yul\":2293:2294   */\n      0x00\n        /* \"#utility.yul\":2290:2291   */\n      dup1\n        /* \"#utility.yul\":2283:2295   */\n      revert\n        /* \"#utility.yul\":2430:2552   */\n    tag_329:\n        /* \"#utility.yul\":2503:2527   */\n      tag_389\n        /* \"#utility.yul\":2521:2526   */\n      dup2\n        /* \"#utility.yul\":2503:2527   */\n      tag_321\n      jump\t// in\n    tag_389:\n        /* \"#utility.yul\":2496:2501   */\n      dup2\n        /* \"#utility.yul\":2493:2528   */\n      eq\n        /* \"#utility.yul\":2483:2546   */\n      tag_390\n      jumpi\n        /* \"#utility.yul\":2542:2543   */\n      0x00\n        /* \"#utility.yul\":2539:2540   */\n      dup1\n        /* \"#utility.yul\":2532:2544   */\n      revert\n        /* \"#utility.yul\":2483:2546   */\n    tag_390:\n        /* \"#utility.yul\":2430:2552   */\n      pop\n      jump\t// out\n        /* \"#utility.yul\":2558:2697   */\n    tag_330:\n        /* \"#utility.yul\":2604:2609   */\n      0x00\n        /* \"#utility.yul\":2642:2648   */\n      dup2\n        /* \"#utility.yul\":2629:2649   */\n      calldataload\n        /* \"#utility.yul\":2620:2649   */\n      swap1\n      pop\n        /* \"#utility.yul\":2658:2691   */\n      tag_392\n        /* \"#utility.yul\":2685:2690   */\n      dup2\n        /* \"#utility.yul\":2658:2691   */\n      tag_329\n      jump\t// in\n    tag_392:\n        /* \"#utility.yul\":2558:2697   */\n      swap3\n      swap2\n      pop\n      pop\n      jump\t// out\n        /* \"#utility.yul\":2703:3032   */\n    tag_21:\n        /* \"#utility.yul\":2762:2768   */\n      0x00\n        /* \"#utility.yul\":2811:2813   */\n      0x20\n        /* \"#utility.yul\":2799:2808   */\n      dup3\n        /* \"#utility.yul\":2790:2797   */\n      dup5\n        /* \"#utility.yul\":2786:2809   */\n      sub\n        /* \"#utility.yul\":2782:2814   */\n      slt\n        /* \"#utility.yul\":2779:2898   */\n      iszero\n      tag_394\n      jumpi\n        /* \"#utility.yul\":2817:2896   */\n      tag_395\n      tag_327\n      jump\t// in\n    tag_395:\n        /* \"#utility.yul\":2779:2898   */\n    tag_394:\n        /* \"#utility.yul\":2937:2938   */\n      0x00\n        /* \"#utility.yul\":2962:3015   */\n      tag_396\n        /* \"#utility.yul\":3007:3014   */\n      dup5\n        /* \"#utility.yul\":2998:3004   */\n      dup3\n        /* \"#utility.yul\":2987:2996   */\n      dup6\n        /* \"#utility.yul\":2983:3005   */\n      add\n        /* \"#utility.yul\":2962:3015   */\n      tag_330\n      jump\t// in\n    tag_396:\n        /* \"#utility.yul\":2952:3015   */\n      swap2\n      pop\n        /* \"#utility.yul\":2908:3025   */\n      pop\n        /* \"#utility.yul\":2703:3032   */\n      swap3\n      swap2\n      pop\n      pop\n      jump\t// out\n        /* \"#utility.yul\":3038:3173   */\n    tag_331:\n        /* \"#utility.yul\":3126:3132   */\n      0x00\n        /* \"#utility.yul\":3160:3165   */\n      dup2\n        /* \"#utility.yul\":3154:3166   */\n      mload\n        /* \"#utility.yul\":3144:3166   */\n      swap1\n      pop\n        /* \"#utility.yul\":3038:3173   */\n      swap2\n      swap1\n      pop\n      jump\t// out\n        /* \"#utility.yul\":3179:3384   */\n    tag_332:\n        /* \"#utility.yul\":3299:3310   */\n      0x00\n        /* \"#utility.yul\":3333:3339   */\n      dup3\n        /* \"#utility.yul\":3328:3331   */\n      dup3\n        /* \"#utility.yul\":3321:3340   */\n      mstore\n        /* \"#utility.yul\":3373:3377   */\n      0x20\n        /* \"#utility.yul\":3368:3371   */\n      dup3\n        /* \"#utility.yul\":3364:3378   */\n      add\n        /* \"#utility.yul\":3349:3378   */\n      swap1\n      pop\n        /* \"#utility.yul\":3179:3384   */\n      swap3\n      swap2\n      pop\n      pop\n      jump\t// out\n        /* \"#utility.yul\":3390:3543   */\n    tag_333:\n        /* \"#utility.yul\":3478:3482   */\n      0x00\n        /* \"#utility.yul\":3501:3504   */\n      dup2\n        /* \"#utility.yul\":3493:3504   */\n      swap1\n      pop\n        /* \"#utility.yul\":3531:3535   */\n      0x20\n        /* \"#utility.yul\":3526:3529   */\n      dup3\n        /* \"#utility.yul\":3522:3536   */\n      add\n        /* \"#utility.yul\":3514:3536   */\n      swap1\n      pop\n        /* \"#utility.yul\":3390:3543   */\n      swap2\n      swap1\n      pop\n      jump\t// out\n        /* \"#utility.yul\":3549:3675   */\n    tag_334:\n        /* \"#utility.yul\":3586:3593   */\n      0x00\n        /* \"#utility.yul\":3626:3668   */\n      0xffffffffffffffffffffffffffffffffffffffff\n        /* \"#utility.yul\":3619:3624   */\n      dup3\n        /* \"#utility.yul\":3615:3669   */\n      and\n        /* \"#utility.yul\":3604:3669   */\n      swap1\n      pop\n        /* \"#utility.yul\":3549:3675   */\n      swap2\n      swap1\n      pop\n      jump\t// out\n        /* \"#utility.yul\":3681:3785   */\n    tag_335:\n        /* \"#utility.yul\":3726:3733   */\n      0x00\n        /* \"#utility.yul\":3755:3779   */\n      tag_402\n        /* \"#utility.yul\":3773:3778   */\n      dup3\n        /* \"#utility.yul\":3755:3779   */\n      tag_334\n      jump\t// in\n    tag_402:\n        /* \"#utility.yul\":3744:3779   */\n      swap1\n      pop\n        /* \"#utility.yul\":3681:3785   */\n      swap2\n      swap1\n      pop\n      jump\t// out\n        /* \"#utility.yul\":3791:3923   */\n    tag_336:\n        /* \"#utility.yul\":3884:3916   */\n      tag_404\n        /* \"#utility.yul\":3910:3915   */\n      dup2\n        /* \"#utility.yul\":3884:3916   */\n      tag_335\n      jump\t// in\n    tag_404:\n        /* \"#utility.yul\":3879:3882   */\n      dup3\n        /* \"#utility.yul\":3872:3917   */\n      mstore\n        /* \"#utility.yul\":3791:3923   */\n      pop\n      pop\n      jump\t// out\n        /* \"#utility.yul\":3929:4109   */\n    tag_78:\n        /* \"#utility.yul\":3977:4054   */\n      0x4e487b7100000000000000000000000000000000000000000000000000000000\n        /* \"#utility.yul\":3974:3975   */\n      0x00\n        /* \"#utility.yul\":3967:4055   */\n      mstore\n        /* \"#utility.yul\":4074:4078   */\n      0x21\n        /* \"#utility.yul\":4071:4072   */\n      0x04\n        /* \"#utility.yul\":4064:4079   */\n      mstore\n        /* \"#utility.yul\":4098:4102   */\n      0x24\n        /* \"#utility.yul\":4095:4096   */\n      0x00\n        /* \"#utility.yul\":4088:4103   */\n      revert\n        /* \"#utility.yul\":4115:4227   */\n    tag_337:\n        /* \"#utility.yul\":4195:4196   */\n      0x02\n        /* \"#utility.yul\":4188:4193   */\n      dup2\n        /* \"#utility.yul\":4185:4197   */\n      lt\n        /* \"#utility.yul\":4175:4221   */\n      tag_407\n      jumpi\n        /* \"#utility.yul\":4201:4219   */\n      tag_408\n      tag_78\n      jump\t// in\n    tag_408:\n        /* \"#utility.yul\":4175:4221   */\n    tag_407:\n        /* \"#utility.yul\":4115:4227   */\n      pop\n      jump\t// out\n        /* \"#utility.yul\":4233:4358   */\n    tag_338:\n        /* \"#utility.yul\":4277:4284   */\n      0x00\n        /* \"#utility.yul\":4306:4311   */\n      dup2\n        /* \"#utility.yul\":4295:4311   */\n      swap1\n      pop\n        /* \"#utility.yul\":4312:4352   */\n      tag_410\n        /* \"#utility.yul\":4346:4351   */\n      dup3\n        /* \"#utility.yul\":4312:4352   */\n      tag_337\n      jump\t// in\n    tag_410:\n        /* \"#utility.yul\":4233:4358   */\n      swap2\n      swap1\n      pop\n      jump\t// out\n        /* \"#utility.yul\":4364:4489   */\n    tag_339:\n        /* \"#utility.yul\":4419:4428   */\n      0x00\n        /* \"#utility.yul\":4452:4483   */\n      tag_412\n        /* \"#utility.yul\":4477:4482   */\n      dup3\n        /* \"#utility.yul\":4452:4483   */\n      tag_338\n      jump\t// in\n    tag_412:\n        /* \"#utility.yul\":4439:4483   */\n      swap1\n      pop\n        /* \"#utility.yul\":4364:4489   */\n      swap2\n      swap1\n      pop\n      jump\t// out\n        /* \"#utility.yul\":4495:4626   */\n    tag_340:\n        /* \"#utility.yul\":4577:4619   */\n      tag_414\n        /* \"#utility.yul\":4613:4618   */\n      dup2\n        /* \"#utility.yul\":4577:4619   */\n      tag_339\n      jump\t// in\n    tag_414:\n        /* \"#utility.yul\":4572:4575   */\n      dup3\n        /* \"#utility.yul\":4565:4620   */\n      mstore\n        /* \"#utility.yul\":4495:4626   */\n      pop\n      pop\n      jump\t// out\n        /* \"#utility.yul\":4688:5557   */\n    tag_341:\n        /* \"#utility.yul\":4817:4821   */\n      0x80\n        /* \"#utility.yul\":4812:4815   */\n      dup3\n        /* \"#utility.yul\":4808:4822   */\n      add\n        /* \"#utility.yul\":4908:4912   */\n      0x00\n        /* \"#utility.yul\":4901:4906   */\n      dup3\n        /* \"#utility.yul\":4897:4913   */\n      add\n        /* \"#utility.yul\":4891:4914   */\n      mload\n        /* \"#utility.yul\":4927:5006   */\n      tag_416\n        /* \"#utility.yul\":5000:5004   */\n      0x00\n        /* \"#utility.yul\":4995:4998   */\n      dup6\n        /* \"#utility.yul\":4991:5005   */\n      add\n        /* \"#utility.yul\":4977:4989   */\n      dup3\n        /* \"#utility.yul\":4927:5006   */\n      tag_336\n      jump\t// in\n    tag_416:\n        /* \"#utility.yul\":4832:5016   */\n      pop\n        /* \"#utility.yul\":5099:5103   */\n      0x20\n        /* \"#utility.yul\":5092:5097   */\n      dup3\n        /* \"#utility.yul\":5088:5104   */\n      add\n        /* \"#utility.yul\":5082:5105   */\n      mload\n        /* \"#utility.yul\":5118:5181   */\n      tag_417\n        /* \"#utility.yul\":5175:5179   */\n      0x20\n        /* \"#utility.yul\":5170:5173   */\n      dup6\n        /* \"#utility.yul\":5166:5180   */\n      add\n        /* \"#utility.yul\":5152:5164   */\n      dup3\n        /* \"#utility.yul\":5118:5181   */\n      tag_322\n      jump\t// in\n    tag_417:\n        /* \"#utility.yul\":5026:5191   */\n      pop\n        /* \"#utility.yul\":5278:5282   */\n      0x40\n        /* \"#utility.yul\":5271:5276   */\n      dup3\n        /* \"#utility.yul\":5267:5283   */\n      add\n        /* \"#utility.yul\":5261:5284   */\n      mload\n        /* \"#utility.yul\":5297:5360   */\n      tag_418\n        /* \"#utility.yul\":5354:5358   */\n      0x40\n        /* \"#utility.yul\":5349:5352   */\n      dup6\n        /* \"#utility.yul\":5345:5359   */\n      add\n        /* \"#utility.yul\":5331:5343   */\n      dup3\n        /* \"#utility.yul\":5297:5360   */\n      tag_322\n      jump\t// in\n    tag_418:\n        /* \"#utility.yul\":5201:5370   */\n      pop\n        /* \"#utility.yul\":5453:5457   */\n      0x60\n        /* \"#utility.yul\":5446:5451   */\n      dup3\n        /* \"#utility.yul\":5442:5458   */\n      add\n        /* \"#utility.yul\":5436:5459   */\n      mload\n        /* \"#utility.yul\":5472:5540   */\n      tag_419\n        /* \"#utility.yul\":5534:5538   */\n      0x60\n        /* \"#utility.yul\":5529:5532   */\n      dup6\n        /* \"#utility.yul\":5525:5539   */\n      add\n        /* \"#utility.yul\":5511:5523   */\n      dup3\n        /* \"#utility.yul\":5472:5540   */\n      tag_340\n      jump\t// in\n    tag_419:\n        /* \"#utility.yul\":5380:5550   */\n      pop\n        /* \"#utility.yul\":4786:5557   */\n      pop\n        /* \"#utility.yul\":4688:5557   */\n      pop\n      pop\n      jump\t// out\n        /* \"#utility.yul\":5563:5826   */\n    tag_342:\n        /* \"#utility.yul\":5674:5684   */\n      0x00\n        /* \"#utility.yul\":5695:5783   */\n      tag_421\n        /* \"#utility.yul\":5779:5782   */\n      dup4\n        /* \"#utility.yul\":5771:5777   */\n      dup4\n        /* \"#utility.yul\":5695:5783   */\n      tag_341\n      jump\t// in\n    tag_421:\n        /* \"#utility.yul\":5815:5819   */\n      0x80\n        /* \"#utility.yul\":5810:5813   */\n      dup4\n        /* \"#utility.yul\":5806:5820   */\n      add\n        /* \"#utility.yul\":5792:5820   */\n      swap1\n      pop\n        /* \"#utility.yul\":5563:5826   */\n      swap3\n      swap2\n      pop\n      pop\n      jump\t// out\n        /* \"#utility.yul\":5832:5966   */\n    tag_343:\n        /* \"#utility.yul\":5923:5927   */\n      0x00\n        /* \"#utility.yul\":5955:5959   */\n      0x20\n        /* \"#utility.yul\":5950:5953   */\n      dup3\n        /* \"#utility.yul\":5946:5960   */\n      add\n        /* \"#utility.yul\":5938:5960   */\n      swap1\n      pop\n        /* \"#utility.yul\":5832:5966   */\n      swap2\n      swap1\n      pop\n      jump\t// out\n        /* \"#utility.yul\":6032:6932   */\n    tag_344:\n        /* \"#utility.yul\":6193:6196   */\n      0x00\n        /* \"#utility.yul\":6222:6297   */\n      tag_424\n        /* \"#utility.yul\":6291:6296   */\n      dup3\n        /* \"#utility.yul\":6222:6297   */\n      tag_331\n      jump\t// in\n    tag_424:\n        /* \"#utility.yul\":6313:6420   */\n      tag_425\n        /* \"#utility.yul\":6413:6419   */\n      dup2\n        /* \"#utility.yul\":6408:6411   */\n      dup6\n        /* \"#utility.yul\":6313:6420   */\n      tag_332\n      jump\t// in\n    tag_425:\n        /* \"#utility.yul\":6306:6420   */\n      swap4\n      pop\n        /* \"#utility.yul\":6444:6521   */\n      tag_426\n        /* \"#utility.yul\":6515:6520   */\n      dup4\n        /* \"#utility.yul\":6444:6521   */\n      tag_333\n      jump\t// in\n    tag_426:\n        /* \"#utility.yul\":6544:6551   */\n      dup1\n        /* \"#utility.yul\":6575:6576   */\n      0x00\n        /* \"#utility.yul\":6560:6907   */\n    tag_427:\n        /* \"#utility.yul\":6585:6591   */\n      dup4\n        /* \"#utility.yul\":6582:6583   */\n      dup2\n        /* \"#utility.yul\":6579:6592   */\n      lt\n        /* \"#utility.yul\":6560:6907   */\n      iszero\n      tag_429\n      jumpi\n        /* \"#utility.yul\":6661:6667   */\n      dup2\n        /* \"#utility.yul\":6655:6668   */\n      mload\n        /* \"#utility.yul\":6688:6793   */\n      tag_430\n        /* \"#utility.yul\":6789:6792   */\n      dup9\n        /* \"#utility.yul\":6774:6787   */\n      dup3\n        /* \"#utility.yul\":6688:6793   */\n      tag_342\n      jump\t// in\n    tag_430:\n        /* \"#utility.yul\":6681:6793   */\n      swap8\n      pop\n        /* \"#utility.yul\":6816:6897   */\n      tag_431\n        /* \"#utility.yul\":6890:6896   */\n      dup4\n        /* \"#utility.yul\":6816:6897   */\n      tag_343\n      jump\t// in\n    tag_431:\n        /* \"#utility.yul\":6806:6897   */\n      swap3\n      pop\n        /* \"#utility.yul\":6620:6907   */\n      pop\n        /* \"#utility.yul\":6607:6608   */\n      0x01\n        /* \"#utility.yul\":6604:6605   */\n      dup2\n        /* \"#utility.yul\":6600:6609   */\n      add\n        /* \"#utility.yul\":6595:6609   */\n      swap1\n      pop\n        /* \"#utility.yul\":6560:6907   */\n      jump(tag_427)\n    tag_429:\n        /* \"#utility.yul\":6564:6578   */\n      pop\n        /* \"#utility.yul\":6923:6926   */\n      dup6\n        /* \"#utility.yul\":6916:6926   */\n      swap4\n      pop\n        /* \"#utility.yul\":6198:6932   */\n      pop\n      pop\n      pop\n        /* \"#utility.yul\":6032:6932   */\n      swap3\n      swap2\n      pop\n      pop\n      jump\t// out\n        /* \"#utility.yul\":6938:7395   */\n    tag_27:\n        /* \"#utility.yul\":7123:7127   */\n      0x00\n        /* \"#utility.yul\":7161:7163   */\n      0x20\n        /* \"#utility.yul\":7150:7159   */\n      dup3\n        /* \"#utility.yul\":7146:7164   */\n      add\n        /* \"#utility.yul\":7138:7164   */\n      swap1\n      pop\n        /* \"#utility.yul\":7210:7219   */\n      dup2\n        /* \"#utility.yul\":7204:7208   */\n      dup2\n        /* \"#utility.yul\":7200:7220   */\n      sub\n        /* \"#utility.yul\":7196:7197   */\n      0x00\n        /* \"#utility.yul\":7185:7194   */\n      dup4\n        /* \"#utility.yul\":7181:7198   */\n      add\n        /* \"#utility.yul\":7174:7221   */\n      mstore\n        /* \"#utility.yul\":7238:7388   */\n      tag_433\n        /* \"#utility.yul\":7383:7387   */\n      dup2\n        /* \"#utility.yul\":7374:7380   */\n      dup5\n        /* \"#utility.yul\":7238:7388   */\n      tag_344\n      jump\t// in\n    tag_433:\n        /* \"#utility.yul\":7230:7388   */\n      swap1\n      pop\n        /* \"#utility.yul\":6938:7395   */\n      swap3\n      swap2\n      pop\n      pop\n      jump\t// out\n        /* \"#utility.yul\":7401:7543   */\n    tag_345:\n        /* \"#utility.yul\":7504:7536   */\n      tag_435\n        /* \"#utility.yul\":7530:7535   */\n      dup2\n        /* \"#utility.yul\":7504:7536   */\n      tag_335\n      jump\t// in\n    tag_435:\n        /* \"#utility.yul\":7499:7502   */\n      dup3\n        /* \"#utility.yul\":7492:7537   */\n      mstore\n        /* \"#utility.yul\":7401:7543   */\n      pop\n      pop\n      jump\t// out\n        /* \"#utility.yul\":7549:7803   */\n    tag_33:\n        /* \"#utility.yul\":7658:7662   */\n      0x00\n        /* \"#utility.yul\":7696:7698   */\n      0x20\n        /* \"#utility.yul\":7685:7694   */\n      dup3\n        /* \"#utility.yul\":7681:7699   */\n      add\n        /* \"#utility.yul\":7673:7699   */\n      swap1\n      pop\n        /* \"#utility.yul\":7709:7796   */\n      tag_437\n        /* \"#utility.yul\":7793:7794   */\n      0x00\n        /* \"#utility.yul\":7782:7791   */\n      dup4\n        /* \"#utility.yul\":7778:7795   */\n      add\n        /* \"#utility.yul\":7769:7775   */\n      dup5\n        /* \"#utility.yul\":7709:7796   */\n      tag_345\n      jump\t// in\n    tag_437:\n        /* \"#utility.yul\":7549:7803   */\n      swap3\n      swap2\n      pop\n      pop\n      jump\t// out\n        /* \"#utility.yul\":7809:7989   */\n    tag_65:\n        /* \"#utility.yul\":7857:7934   */\n      0x4e487b7100000000000000000000000000000000000000000000000000000000\n        /* \"#utility.yul\":7854:7855   */\n      0x00\n        /* \"#utility.yul\":7847:7935   */\n      mstore\n        /* \"#utility.yul\":7954:7958   */\n      0x32\n        /* \"#utility.yul\":7951:7952   */\n      0x04\n        /* \"#utility.yul\":7944:7959   */\n      mstore\n        /* \"#utility.yul\":7978:7982   */\n      0x24\n        /* \"#utility.yul\":7975:7976   */\n      0x00\n        /* \"#utility.yul\":7968:7983   */\n      revert\n        /* \"#utility.yul\":7995:8175   */\n    tag_346:\n        /* \"#utility.yul\":8043:8120   */\n      0x4e487b7100000000000000000000000000000000000000000000000000000000\n        /* \"#utility.yul\":8040:8041   */\n      0x00\n        /* \"#utility.yul\":8033:8121   */\n      mstore\n        /* \"#utility.yul\":8140:8144   */\n      0x11\n        /* \"#utility.yul\":8137:8138   */\n      0x04\n        /* \"#utility.yul\":8130:8145   */\n      mstore\n        /* \"#utility.yul\":8164:8168   */\n      0x24\n        /* \"#utility.yul\":8161:8162   */\n      0x00\n        /* \"#utility.yul\":8154:8169   */\n      revert\n        /* \"#utility.yul\":8181:8414   */\n    tag_70:\n        /* \"#utility.yul\":8220:8223   */\n      0x00\n        /* \"#utility.yul\":8243:8267   */\n      tag_441\n        /* \"#utility.yul\":8261:8266   */\n      dup3\n        /* \"#utility.yul\":8243:8267   */\n      tag_321\n      jump\t// in\n    tag_441:\n        /* \"#utility.yul\":8234:8267   */\n      swap2\n      pop\n        /* \"#utility.yul\":8289:8355   */\n      0xffffffffffffffffffffffffffffffffffffffffffffffffffffffffffffffff\n        /* \"#utility.yul\":8282:8287   */\n      dup3\n        /* \"#utility.yul\":8279:8356   */\n      sub\n        /* \"#utility.yul\":8276:8379   */\n      tag_442\n      jumpi\n        /* \"#utility.yul\":8359:8377   */\n      tag_443\n      tag_346\n      jump\t// in\n    tag_443:\n        /* \"#utility.yul\":8276:8379   */\n    tag_442:\n        /* \"#utility.yul\":8406:8407   */\n      0x01\n        /* \"#utility.yul\":8399:8404   */\n      dup3\n        /* \"#utility.yul\":8395:8408   */\n      add\n        /* \"#utility.yul\":8388:8408   */\n      swap1\n      pop\n        /* \"#utility.yul\":8181:8414   */\n      swap2\n      swap1\n      pop\n      jump\t// out\n        /* \"#utility.yul\":8420:8589   */\n    tag_347:\n        /* \"#utility.yul\":8504:8515   */\n      0x00\n        /* \"#utility.yul\":8538:8544   */\n      dup3\n        /* \"#utility.yul\":8533:8536   */\n      dup3\n        /* \"#utility.yul\":8526:8545   */\n      mstore\n        /* \"#utility.yul\":8578:8582   */\n      0x20\n        /* \"#utility.yul\":8573:8576   */\n      dup3\n        /* \"#utility.yul\":8569:8583   */\n      add\n        /* \"#utility.yul\":8554:8583   */\n      swap1\n      pop\n        /* \"#utility.yul\":8420:8589   */\n      swap3\n      swap2\n      pop\n      pop\n      jump\t// out\n        /* \"#utility.yul\":8595:8758   */\n    tag_348:\n        /* \"#utility.yul\":8735:8750   */\n      0x4f726465722050656e64696e6700000000000000000000000000000000000000\n        /* \"#utility.yul\":8731:8732   */\n      0x00\n        /* \"#utility.yul\":8723:8729   */\n      dup3\n        /* \"#utility.yul\":8719:8733   */\n      add\n        /* \"#utility.yul\":8712:8751   */\n      mstore\n        /* \"#utility.yul\":8595:8758   */\n      pop\n      jump\t// out\n        /* \"#utility.yul\":8764:9130   */\n    tag_349:\n        /* \"#utility.yul\":8906:8909   */\n      0x00\n        /* \"#utility.yul\":8927:8994   */\n      tag_447\n        /* \"#utility.yul\":8991:8993   */\n      0x0d\n        /* \"#utility.yul\":8986:8989   */\n      dup4\n        /* \"#utility.yul\":8927:8994   */\n      tag_347\n      jump\t// in\n    tag_447:\n        /* \"#utility.yul\":8920:8994   */\n      swap2\n      pop\n        /* \"#utility.yul\":9003:9096   */\n      tag_448\n        /* \"#utility.yul\":9092:9095   */\n      dup3\n        /* \"#utility.yul\":9003:9096   */\n      tag_348\n      jump\t// in\n    tag_448:\n        /* \"#utility.yul\":9121:9123   */\n      0x20\n        /* \"#utility.yul\":9116:9119   */\n      dup3\n        /* \"#utility.yul\":9112:9124   */\n      add\n        /* \"#utility.yul\":9105:9124   */\n      swap1\n      pop\n        /* \"#utility.yul\":8764:9130   */\n      swap2\n      swap1\n      pop\n      jump\t// out\n        /* \"#utility.yul\":9136:9555   */\n    tag_88:\n        /* \"#utility.yul\":9302:9306   */\n      0x00\n        /* \"#utility.yul\":9340:9342   */\n      0x20\n        /* \"#utility.yul\":9329:9338   */\n      dup3\n        /* \"#utility.yul\":9325:9343   */\n      add\n        /* \"#utility.yul\":9317:9343   */\n      swap1\n      pop\n        /* \"#utility.yul\":9389:9398   */\n      dup2\n        /* \"#utility.yul\":9383:9387   */\n      dup2\n        /* \"#utility.yul\":9379:9399   */\n      sub\n        /* \"#utility.yul\":9375:9376   */\n      0x00\n        /* \"#utility.yul\":9364:9373   */\n      dup4\n        /* \"#utility.yul\":9360:9377   */\n      add\n        /* \"#utility.yul\":9353:9400   */\n      mstore\n        /* \"#utility.yul\":9417:9548   */\n      tag_450\n        /* \"#utility.yul\":9543:9547   */\n      dup2\n        /* \"#utility.yul\":9417:9548   */\n      tag_349\n      jump\t// in\n    tag_450:\n        /* \"#utility.yul\":9409:9548   */\n      swap1\n      pop\n        /* \"#utility.yul\":9136:9555   */\n      swap2\n      swap1\n      pop\n      jump\t// out\n        /* \"#utility.yul\":9561:9725   */\n    tag_350:\n        /* \"#utility.yul\":9701:9717   */\n      0x4e6f7420417574686f7269736564000000000000000000000000000000000000\n        /* \"#utility.yul\":9697:9698   */\n      0x00\n        /* \"#utility.yul\":9689:9695   */\n      dup3\n        /* \"#utility.yul\":9685:9699   */\n      add\n        /* \"#utility.yul\":9678:9718   */\n      mstore\n        /* \"#utility.yul\":9561:9725   */\n      pop\n      jump\t// out\n        /* \"#utility.yul\":9731:10097   */\n    tag_351:\n        /* \"#utility.yul\":9873:9876   */\n      0x00\n        /* \"#utility.yul\":9894:9961   */\n      tag_453\n        /* \"#utility.yul\":9958:9960   */\n      0x0e\n        /* \"#utility.yul\":9953:9956   */\n      dup4\n        /* \"#utility.yul\":9894:9961   */\n      tag_347\n      jump\t// in\n    tag_453:\n        /* \"#utility.yul\":9887:9961   */\n      swap2\n      pop\n        /* \"#utility.yul\":9970:10063   */\n      tag_454\n        /* \"#utility.yul\":10059:10062   */\n      dup3\n        /* \"#utility.yul\":9970:10063   */\n      tag_350\n      jump\t// in\n    tag_454:\n        /* \"#utility.yul\":10088:10090   */\n      0x20\n        /* \"#utility.yul\":10083:10086   */\n      dup3\n        /* \"#utility.yul\":10079:10091   */\n      add\n        /* \"#utility.yul\":10072:10091   */\n      swap1\n      pop\n        /* \"#utility.yul\":9731:10097   */\n      swap2\n      swap1\n      pop\n      jump\t// out\n        /* \"#utility.yul\":10103:10522   */\n    tag_99:\n        /* \"#utility.yul\":10269:10273   */\n      0x00\n        /* \"#utility.yul\":10307:10309   */\n      0x20\n        /* \"#utility.yul\":10296:10305   */\n      dup3\n        /* \"#utility.yul\":10292:10310   */\n      add\n        /* \"#utility.yul\":10284:10310   */\n      swap1\n      pop\n        /* \"#utility.yul\":10356:10365   */\n      dup2\n        /* \"#utility.yul\":10350:10354   */\n      dup2\n        /* \"#utility.yul\":10346:10366   */\n      sub\n        /* \"#utility.yul\":10342:10343   */\n      0x00\n        /* \"#utility.yul\":10331:10340   */\n      dup4\n        /* \"#utility.yul\":10327:10344   */\n      add\n        /* \"#utility.yul\":10320:10367   */\n      mstore\n        /* \"#utility.yul\":10384:10515   */\n      tag_456\n        /* \"#utility.yul\":10510:10514   */\n      dup2\n        /* \"#utility.yul\":10384:10515   */\n      tag_351\n      jump\t// in\n    tag_456:\n        /* \"#utility.yul\":10376:10515   */\n      swap1\n      pop\n        /* \"#utility.yul\":10103:10522   */\n      swap2\n      swap1\n      pop\n      jump\t// out\n        /* \"#utility.yul\":10528:10646   */\n    tag_352:\n        /* \"#utility.yul\":10615:10639   */\n      tag_458\n        /* \"#utility.yul\":10633:10638   */\n      dup2\n        /* \"#utility.yul\":10615:10639   */\n      tag_321\n      jump\t// in\n    tag_458:\n        /* \"#utility.yul\":10610:10613   */\n      dup3\n        /* \"#utility.yul\":10603:10640   */\n      mstore\n        /* \"#utility.yul\":10528:10646   */\n      pop\n      pop\n      jump\t// out\n        /* \"#utility.yul\":10652:10874   */\n    tag_107:\n        /* \"#utility.yul\":10745:10749   */\n      0x00\n        /* \"#utility.yul\":10783:10785   */\n      0x20\n        /* \"#utility.yul\":10772:10781   */\n      dup3\n        /* \"#utility.yul\":10768:10786   */\n      add\n        /* \"#utility.yul\":10760:10786   */\n      swap1\n      pop\n        /* \"#utility.yul\":10796:10867   */\n      tag_460\n        /* \"#utility.yul\":10864:10865   */\n      0x00\n        /* \"#utility.yul\":10853:10862   */\n      dup4\n        /* \"#utility.yul\":10849:10866   */\n      add\n        /* \"#utility.yul\":10840:10846   */\n      dup5\n        /* \"#utility.yul\":10796:10867   */\n      tag_352\n      jump\t// in\n    tag_460:\n        /* \"#utility.yul\":10652:10874   */\n      swap3\n      swap2\n      pop\n      pop\n      jump\t// out\n        /* \"#utility.yul\":10880:11061   */\n    tag_353:\n        /* \"#utility.yul\":11020:11053   */\n      0x70726963652076616c7565206d757374206265206d6f7265207468616e203000\n        /* \"#utility.yul\":11016:11017   */\n      0x00\n        /* \"#utility.yul\":11008:11014   */\n      dup3\n        /* \"#utility.yul\":11004:11018   */\n      add\n        /* \"#utility.yul\":10997:11054   */\n      mstore\n        /* \"#utility.yul\":10880:11061   */\n      pop\n      jump\t// out\n        /* \"#utility.yul\":11067:11433   */\n    tag_354:\n        /* \"#utility.yul\":11209:11212   */\n      0x00\n        /* \"#utility.yul\":11230:11297   */\n      tag_463\n        /* \"#utility.yul\":11294:11296   */\n      0x1f\n        /* \"#utility.yul\":11289:11292   */\n      dup4\n        /* \"#utility.yul\":11230:11297   */\n      tag_347\n      jump\t// in\n    tag_463:\n        /* \"#utility.yul\":11223:11297   */\n      swap2\n      pop\n        /* \"#utility.yul\":11306:11399   */\n      tag_464\n        /* \"#utility.yul\":11395:11398   */\n      dup3\n        /* \"#utility.yul\":11306:11399   */\n      tag_353\n      jump\t// in\n    tag_464:\n        /* \"#utility.yul\":11424:11426   */\n      0x20\n        /* \"#utility.yul\":11419:11422   */\n      dup3\n        /* \"#utility.yul\":11415:11427   */\n      add\n        /* \"#utility.yul\":11408:11427   */\n      swap1\n      pop\n        /* \"#utility.yul\":11067:11433   */\n      swap2\n      swap1\n      pop\n      jump\t// out\n        /* \"#utility.yul\":11439:11858   */\n    tag_127:\n        /* \"#utility.yul\":11605:11609   */\n      0x00\n        /* \"#utility.yul\":11643:11645   */\n      0x20\n        /* \"#utility.yul\":11632:11641   */\n      dup3\n        /* \"#utility.yul\":11628:11646   */\n      add\n        /* \"#utility.yul\":11620:11646   */\n      swap1\n      pop\n        /* \"#utility.yul\":11692:11701   */\n      dup2\n        /* \"#utility.yul\":11686:11690   */\n      dup2\n        /* \"#utility.yul\":11682:11702   */\n      sub\n        /* \"#utility.yul\":11678:11679   */\n      0x00\n        /* \"#utility.yul\":11667:11676   */\n      dup4\n        /* \"#utility.yul\":11663:11680   */\n      add\n        /* \"#utility.yul\":11656:11703   */\n      mstore\n        /* \"#utility.yul\":11720:11851   */\n      tag_466\n        /* \"#utility.yul\":11846:11850   */\n      dup2\n        /* \"#utility.yul\":11720:11851   */\n      tag_354\n      jump\t// in\n    tag_466:\n        /* \"#utility.yul\":11712:11851   */\n      swap1\n      pop\n        /* \"#utility.yul\":11439:11858   */\n      swap2\n      swap1\n      pop\n      jump\t// out\n        /* \"#utility.yul\":11864:12044   */\n    tag_355:\n        /* \"#utility.yul\":12004:12036   */\n      0x4e6f7420656e6f75676820626c616e636520746f20706c6163652061736b0000\n        /* \"#utility.yul\":12000:12001   */\n      0x00\n        /* \"#utility.yul\":11992:11998   */\n      dup3\n        /* \"#utility.yul\":11988:12002   */\n      add\n        /* \"#utility.yul\":11981:12037   */\n      mstore\n        /* \"#utility.yul\":11864:12044   */\n      pop\n      jump\t// out\n        /* \"#utility.yul\":12050:12416   */\n    tag_356:\n        /* \"#utility.yul\":12192:12195   */\n      0x00\n        /* \"#utility.yul\":12213:12280   */\n      tag_469\n        /* \"#utility.yul\":12277:12279   */\n      0x1e\n        /* \"#utility.yul\":12272:12275   */\n      dup4\n        /* \"#utility.yul\":12213:12280   */\n      tag_347\n      jump\t// in\n    tag_469:\n        /* \"#utility.yul\":12206:12280   */\n      swap2\n      pop\n        /* \"#utility.yul\":12289:12382   */\n      tag_470\n        /* \"#utility.yul\":12378:12381   */\n      dup3\n        /* \"#utility.yul\":12289:12382   */\n      tag_355\n      jump\t// in\n    tag_470:\n        /* \"#utility.yul\":12407:12409   */\n      0x20\n        /* \"#utility.yul\":12402:12405   */\n      dup3\n        /* \"#utility.yul\":12398:12410   */\n      add\n        /* \"#utility.yul\":12391:12410   */\n      swap1\n      pop\n        /* \"#utility.yul\":12050:12416   */\n      swap2\n      swap1\n      pop\n      jump\t// out\n        /* \"#utility.yul\":12422:12841   */\n    tag_130:\n        /* \"#utility.yul\":12588:12592   */\n      0x00\n        /* \"#utility.yul\":12626:12628   */\n      0x20\n        /* \"#utility.yul\":12615:12624   */\n      dup3\n        /* \"#utility.yul\":12611:12629   */\n      add\n        /* \"#utility.yul\":12603:12629   */\n      swap1\n      pop\n        /* \"#utility.yul\":12675:12684   */\n      dup2\n        /* \"#utility.yul\":12669:12673   */\n      dup2\n        /* \"#utility.yul\":12665:12685   */\n      sub\n        /* \"#utility.yul\":12661:12662   */\n      0x00\n        /* \"#utility.yul\":12650:12659   */\n      dup4\n        /* \"#utility.yul\":12646:12663   */\n      add\n        /* \"#utility.yul\":12639:12686   */\n      mstore\n        /* \"#utility.yul\":12703:12834   */\n      tag_472\n        /* \"#utility.yul\":12829:12833   */\n      dup2\n        /* \"#utility.yul\":12703:12834   */\n      tag_356\n      jump\t// in\n    tag_472:\n        /* \"#utility.yul\":12695:12834   */\n      swap1\n      pop\n        /* \"#utility.yul\":12422:12841   */\n      swap2\n      swap1\n      pop\n      jump\t// out\n        /* \"#utility.yul\":12847:13038   */\n    tag_137:\n        /* \"#utility.yul\":12887:12891   */\n      0x00\n        /* \"#utility.yul\":12907:12927   */\n      tag_474\n        /* \"#utility.yul\":12925:12926   */\n      dup3\n        /* \"#utility.yul\":12907:12927   */\n      tag_321\n      jump\t// in\n    tag_474:\n        /* \"#utility.yul\":12902:12927   */\n      swap2\n      pop\n        /* \"#utility.yul\":12941:12961   */\n      tag_475\n        /* \"#utility.yul\":12959:12960   */\n      dup4\n        /* \"#utility.yul\":12941:12961   */\n      tag_321\n      jump\t// in\n    tag_475:\n        /* \"#utility.yul\":12936:12961   */\n      swap3\n      pop\n        /* \"#utility.yul\":12980:12981   */\n      dup3\n        /* \"#utility.yul\":12977:12978   */\n      dup3\n        /* \"#utility.yul\":12974:12982   */\n      lt\n        /* \"#utility.yul\":12971:13005   */\n      iszero\n      tag_476\n      jumpi\n        /* \"#utility.yul\":12985:13003   */\n      tag_477\n      tag_346\n      jump\t// in\n    tag_477:\n        /* \"#utility.yul\":12971:13005   */\n    tag_476:\n        /* \"#utility.yul\":13030:13031   */\n      dup3\n        /* \"#utility.yul\":13027:13028   */\n      dup3\n        /* \"#utility.yul\":13023:13032   */\n      sub\n        /* \"#utility.yul\":13015:13032   */\n      swap1\n      pop\n        /* \"#utility.yul\":12847:13038   */\n      swap3\n      swap2\n      pop\n      pop\n      jump\t// out\n        /* \"#utility.yul\":13044:13392   */\n    tag_139:\n        /* \"#utility.yul\":13084:13091   */\n      0x00\n        /* \"#utility.yul\":13107:13127   */\n      tag_479\n        /* \"#utility.yul\":13125:13126   */\n      dup3\n        /* \"#utility.yul\":13107:13127   */\n      tag_321\n      jump\t// in\n    tag_479:\n        /* \"#utility.yul\":13102:13127   */\n      swap2\n      pop\n        /* \"#utility.yul\":13141:13161   */\n      tag_480\n        /* \"#utility.yul\":13159:13160   */\n      dup4\n        /* \"#utility.yul\":13141:13161   */\n      tag_321\n      jump\t// in\n    tag_480:\n        /* \"#utility.yul\":13136:13161   */\n      swap3\n      pop\n        /* \"#utility.yul\":13329:13330   */\n      dup2\n        /* \"#utility.yul\":13261:13327   */\n      0xffffffffffffffffffffffffffffffffffffffffffffffffffffffffffffffff\n        /* \"#utility.yul\":13257:13331   */\n      div\n        /* \"#utility.yul\":13254:13255   */\n      dup4\n        /* \"#utility.yul\":13251:13332   */\n      gt\n        /* \"#utility.yul\":13246:13247   */\n      dup3\n        /* \"#utility.yul\":13239:13248   */\n      iszero\n        /* \"#utility.yul\":13232:13249   */\n      iszero\n        /* \"#utility.yul\":13228:13333   */\n      and\n        /* \"#utility.yul\":13225:13356   */\n      iszero\n      tag_481\n      jumpi\n        /* \"#utility.yul\":13336:13354   */\n      tag_482\n      tag_346\n      jump\t// in\n    tag_482:\n        /* \"#utility.yul\":13225:13356   */\n    tag_481:\n        /* \"#utility.yul\":13384:13385   */\n      dup3\n        /* \"#utility.yul\":13381:13382   */\n      dup3\n        /* \"#utility.yul\":13377:13386   */\n      mul\n        /* \"#utility.yul\":13366:13386   */\n      swap1\n      pop\n        /* \"#utility.yul\":13044:13392   */\n      swap3\n      swap2\n      pop\n      pop\n      jump\t// out\n        /* \"#utility.yul\":13398:13578   */\n    tag_357:\n        /* \"#utility.yul\":13446:13523   */\n      0x4e487b7100000000000000000000000000000000000000000000000000000000\n        /* \"#utility.yul\":13443:13444   */\n      0x00\n        /* \"#utility.yul\":13436:13524   */\n      mstore\n        /* \"#utility.yul\":13543:13547   */\n      0x12\n        /* \"#utility.yul\":13540:13541   */\n      0x04\n        /* \"#utility.yul\":13533:13548   */\n      mstore\n        /* \"#utility.yul\":13567:13571   */\n      0x24\n        /* \"#utility.yul\":13564:13565   */\n      0x00\n        /* \"#utility.yul\":13557:13572   */\n      revert\n        /* \"#utility.yul\":13584:13769   */\n    tag_141:\n        /* \"#utility.yul\":13624:13625   */\n      0x00\n        /* \"#utility.yul\":13641:13661   */\n      tag_485\n        /* \"#utility.yul\":13659:13660   */\n      dup3\n        /* \"#utility.yul\":13641:13661   */\n      tag_321\n      jump\t// in\n    tag_485:\n        /* \"#utility.yul\":13636:13661   */\n      swap2\n      pop\n        /* \"#utility.yul\":13675:13695   */\n      tag_486\n        /* \"#utility.yul\":13693:13694   */\n      dup4\n        /* \"#utility.yul\":13675:13695   */\n      tag_321\n      jump\t// in\n    tag_486:\n        /* \"#utility.yul\":13670:13695   */\n      swap3\n      pop\n        /* \"#utility.yul\":13714:13715   */\n      dup3\n        /* \"#utility.yul\":13704:13739   */\n      tag_487\n      jumpi\n        /* \"#utility.yul\":13719:13737   */\n      tag_488\n      tag_357\n      jump\t// in\n    tag_488:\n        /* \"#utility.yul\":13704:13739   */\n    tag_487:\n        /* \"#utility.yul\":13761:13762   */\n      dup3\n        /* \"#utility.yul\":13758:13759   */\n      dup3\n        /* \"#utility.yul\":13754:13763   */\n      div\n        /* \"#utility.yul\":13749:13763   */\n      swap1\n      pop\n        /* \"#utility.yul\":13584:13769   */\n      swap3\n      swap2\n      pop\n      pop\n      jump\t// out\n        /* \"#utility.yul\":13775:13871   */\n    tag_358:\n        /* \"#utility.yul\":13812:13819   */\n      0x00\n        /* \"#utility.yul\":13841:13865   */\n      tag_490\n        /* \"#utility.yul\":13859:13864   */\n      dup3\n        /* \"#utility.yul\":13841:13865   */\n      tag_334\n      jump\t// in\n    tag_490:\n        /* \"#utility.yul\":13830:13865   */\n      swap1\n      pop\n        /* \"#utility.yul\":13775:13871   */\n      swap2\n      swap1\n      pop\n      jump\t// out\n        /* \"#utility.yul\":13877:13995   */\n    tag_359:\n        /* \"#utility.yul\":13964:13988   */\n      tag_492\n        /* \"#utility.yul\":13982:13987   */\n      dup2\n        /* \"#utility.yul\":13964:13988   */\n      tag_358\n      jump\t// in\n    tag_492:\n        /* \"#utility.yul\":13959:13962   */\n      dup3\n        /* \"#utility.yul\":13952:13989   */\n      mstore\n        /* \"#utility.yul\":13877:13995   */\n      pop\n      pop\n      jump\t// out\n        /* \"#utility.yul\":14001:14142   */\n    tag_360:\n        /* \"#utility.yul\":14093:14135   */\n      tag_494\n        /* \"#utility.yul\":14129:14134   */\n      dup2\n        /* \"#utility.yul\":14093:14135   */\n      tag_339\n      jump\t// in\n    tag_494:\n        /* \"#utility.yul\":14088:14091   */\n      dup3\n        /* \"#utility.yul\":14081:14136   */\n      mstore\n        /* \"#utility.yul\":14001:14142   */\n      pop\n      pop\n      jump\t// out\n        /* \"#utility.yul\":14148:14711   */\n    tag_145:\n        /* \"#utility.yul\":14330:14334   */\n      0x00\n        /* \"#utility.yul\":14368:14371   */\n      0x80\n        /* \"#utility.yul\":14357:14366   */\n      dup3\n        /* \"#utility.yul\":14353:14372   */\n      add\n        /* \"#utility.yul\":14345:14372   */\n      swap1\n      pop\n        /* \"#utility.yul\":14382:14453   */\n      tag_496\n        /* \"#utility.yul\":14450:14451   */\n      0x00\n        /* \"#utility.yul\":14439:14448   */\n      dup4\n        /* \"#utility.yul\":14435:14452   */\n      add\n        /* \"#utility.yul\":14426:14432   */\n      dup8\n        /* \"#utility.yul\":14382:14453   */\n      tag_359\n      jump\t// in\n    tag_496:\n        /* \"#utility.yul\":14463:14535   */\n      tag_497\n        /* \"#utility.yul\":14531:14533   */\n      0x20\n        /* \"#utility.yul\":14520:14529   */\n      dup4\n        /* \"#utility.yul\":14516:14534   */\n      add\n        /* \"#utility.yul\":14507:14513   */\n      dup7\n        /* \"#utility.yul\":14463:14535   */\n      tag_352\n      jump\t// in\n    tag_497:\n        /* \"#utility.yul\":14545:14617   */\n      tag_498\n        /* \"#utility.yul\":14613:14615   */\n      0x40\n        /* \"#utility.yul\":14602:14611   */\n      dup4\n        /* \"#utility.yul\":14598:14616   */\n      add\n        /* \"#utility.yul\":14589:14595   */\n      dup6\n        /* \"#utility.yul\":14545:14617   */\n      tag_352\n      jump\t// in\n    tag_498:\n        /* \"#utility.yul\":14627:14704   */\n      tag_499\n        /* \"#utility.yul\":14700:14702   */\n      0x60\n        /* \"#utility.yul\":14689:14698   */\n      dup4\n        /* \"#utility.yul\":14685:14703   */\n      add\n        /* \"#utility.yul\":14676:14682   */\n      dup5\n        /* \"#utility.yul\":14627:14704   */\n      tag_360\n      jump\t// in\n    tag_499:\n        /* \"#utility.yul\":14148:14711   */\n      swap6\n      swap5\n      pop\n      pop\n      pop\n      pop\n      pop\n      jump\t// out\n        /* \"#utility.yul\":14717:14897   */\n    tag_361:\n        /* \"#utility.yul\":14857:14889   */\n      0x4e6f7420656e6f75676820626c616e636520746f20706c616365206269640000\n        /* \"#utility.yul\":14853:14854   */\n      0x00\n        /* \"#utility.yul\":14845:14851   */\n      dup3\n        /* \"#utility.yul\":14841:14855   */\n      add\n        /* \"#utility.yul\":14834:14890   */\n      mstore\n        /* \"#utility.yul\":14717:14897   */\n      pop\n      jump\t// out\n        /* \"#utility.yul\":14903:15269   */\n    tag_362:\n        /* \"#utility.yul\":15045:15048   */\n      0x00\n        /* \"#utility.yul\":15066:15133   */\n      tag_502\n        /* \"#utility.yul\":15130:15132   */\n      0x1e\n        /* \"#utility.yul\":15125:15128   */\n      dup4\n        /* \"#utility.yul\":15066:15133   */\n      tag_347\n      jump\t// in\n    tag_502:\n        /* \"#utility.yul\":15059:15133   */\n      swap2\n      pop\n        /* \"#utility.yul\":15142:15235   */\n      tag_503\n        /* \"#utility.yul\":15231:15234   */\n      dup3\n        /* \"#utility.yul\":15142:15235   */\n      tag_361\n      jump\t// in\n    tag_503:\n        /* \"#utility.yul\":15260:15262   */\n      0x20\n        /* \"#utility.yul\":15255:15258   */\n      dup3\n        /* \"#utility.yul\":15251:15263   */\n      add\n        /* \"#utility.yul\":15244:15263   */\n      swap1\n      pop\n        /* \"#utility.yul\":14903:15269   */\n      swap2\n      swap1\n      pop\n      jump\t// out\n        /* \"#utility.yul\":15275:15694   */\n    tag_182:\n        /* \"#utility.yul\":15441:15445   */\n      0x00\n        /* \"#utility.yul\":15479:15481   */\n      0x20\n        /* \"#utility.yul\":15468:15477   */\n      dup3\n        /* \"#utility.yul\":15464:15482   */\n      add\n        /* \"#utility.yul\":15456:15482   */\n      swap1\n      pop\n        /* \"#utility.yul\":15528:15537   */\n      dup2\n        /* \"#utility.yul\":15522:15526   */\n      dup2\n        /* \"#utility.yul\":15518:15538   */\n      sub\n        /* \"#utility.yul\":15514:15515   */\n      0x00\n        /* \"#utility.yul\":15503:15512   */\n      dup4\n        /* \"#utility.yul\":15499:15516   */\n      add\n        /* \"#utility.yul\":15492:15539   */\n      mstore\n        /* \"#utility.yul\":15556:15687   */\n      tag_505\n        /* \"#utility.yul\":15682:15686   */\n      dup2\n        /* \"#utility.yul\":15556:15687   */\n      tag_362\n      jump\t// in\n    tag_505:\n        /* \"#utility.yul\":15548:15687   */\n      swap1\n      pop\n        /* \"#utility.yul\":15275:15694   */\n      swap2\n      swap1\n      pop\n      jump\t// out\n        /* \"#utility.yul\":15700:15776   */\n    tag_363:\n        /* \"#utility.yul\":15736:15743   */\n      0x00\n        /* \"#utility.yul\":15765:15770   */\n      dup2\n        /* \"#utility.yul\":15754:15770   */\n      swap1\n      pop\n        /* \"#utility.yul\":15700:15776   */\n      swap2\n      swap1\n      pop\n      jump\t// out\n        /* \"#utility.yul\":15782:16309   */\n    tag_248:\n        /* \"#utility.yul\":15821:15825   */\n      0x00\n        /* \"#utility.yul\":15841:15860   */\n      tag_508\n        /* \"#utility.yul\":15858:15859   */\n      dup3\n        /* \"#utility.yul\":15841:15860   */\n      tag_363\n      jump\t// in\n    tag_508:\n        /* \"#utility.yul\":15836:15860   */\n      swap2\n      pop\n        /* \"#utility.yul\":15874:15893   */\n      tag_509\n        /* \"#utility.yul\":15891:15892   */\n      dup4\n        /* \"#utility.yul\":15874:15893   */\n      tag_363\n      jump\t// in\n    tag_509:\n        /* \"#utility.yul\":15869:15893   */\n      swap3\n      pop\n        /* \"#utility.yul\":16063:16064   */\n      dup3\n        /* \"#utility.yul\":15995:16061   */\n      0x8000000000000000000000000000000000000000000000000000000000000000\n        /* \"#utility.yul\":15991:16065   */\n      add\n        /* \"#utility.yul\":15988:15989   */\n      dup3\n        /* \"#utility.yul\":15984:16066   */\n      slt\n        /* \"#utility.yul\":15979:15980   */\n      0x00\n        /* \"#utility.yul\":15976:15977   */\n      dup5\n        /* \"#utility.yul\":15972:15981   */\n      slt\n        /* \"#utility.yul\":15965:15982   */\n      iszero\n        /* \"#utility.yul\":15961:16067   */\n      and\n        /* \"#utility.yul\":15958:16090   */\n      iszero\n      tag_510\n      jumpi\n        /* \"#utility.yul\":16070:16088   */\n      tag_511\n      tag_346\n      jump\t// in\n    tag_511:\n        /* \"#utility.yul\":15958:16090   */\n    tag_510:\n        /* \"#utility.yul\":16249:16250   */\n      dup3\n        /* \"#utility.yul\":16181:16247   */\n      0x7fffffffffffffffffffffffffffffffffffffffffffffffffffffffffffffff\n        /* \"#utility.yul\":16177:16251   */\n      add\n        /* \"#utility.yul\":16174:16175   */\n      dup3\n        /* \"#utility.yul\":16170:16252   */\n      sgt\n        /* \"#utility.yul\":16166:16167   */\n      0x00\n        /* \"#utility.yul\":16163:16164   */\n      dup5\n        /* \"#utility.yul\":16159:16168   */\n      slt\n        /* \"#utility.yul\":16155:16253   */\n      and\n        /* \"#utility.yul\":16152:16276   */\n      iszero\n      tag_512\n      jumpi\n        /* \"#utility.yul\":16256:16274   */\n      tag_513\n      tag_346\n      jump\t// in\n    tag_513:\n        /* \"#utility.yul\":16152:16276   */\n    tag_512:\n        /* \"#utility.yul\":16301:16302   */\n      dup3\n        /* \"#utility.yul\":16298:16299   */\n      dup3\n        /* \"#utility.yul\":16294:16303   */\n      sub\n        /* \"#utility.yul\":16286:16303   */\n      swap1\n      pop\n        /* \"#utility.yul\":15782:16309   */\n      swap3\n      swap2\n      pop\n      pop\n      jump\t// out\n        /* \"#utility.yul\":16315:16700   */\n    tag_250:\n        /* \"#utility.yul\":16354:16355   */\n      0x00\n        /* \"#utility.yul\":16371:16390   */\n      tag_515\n        /* \"#utility.yul\":16388:16389   */\n      dup3\n        /* \"#utility.yul\":16371:16390   */\n      tag_363\n      jump\t// in\n    tag_515:\n        /* \"#utility.yul\":16366:16390   */\n      swap2\n      pop\n        /* \"#utility.yul\":16404:16423   */\n      tag_516\n        /* \"#utility.yul\":16421:16422   */\n      dup4\n        /* \"#utility.yul\":16404:16423   */\n      tag_363\n      jump\t// in\n    tag_516:\n        /* \"#utility.yul\":16399:16423   */\n      swap3\n      pop\n        /* \"#utility.yul\":16442:16443   */\n      dup3\n        /* \"#utility.yul\":16432:16467   */\n      tag_517\n      jumpi\n        /* \"#utility.yul\":16447:16465   */\n      tag_518\n      tag_357\n      jump\t// in\n    tag_518:\n        /* \"#utility.yul\":16432:16467   */\n    tag_517:\n        /* \"#utility.yul\":16633:16634   */\n      0x01\n        /* \"#utility.yul\":16630:16631   */\n      0x00\n        /* \"#utility.yul\":16626:16635   */\n      sub\n        /* \"#utility.yul\":16623:16624   */\n      dup4\n        /* \"#utility.yul\":16620:16636   */\n      eq\n        /* \"#utility.yul\":16539:16605   */\n      0x8000000000000000000000000000000000000000000000000000000000000000\n        /* \"#utility.yul\":16536:16537   */\n      dup4\n        /* \"#utility.yul\":16533:16606   */\n      eq\n        /* \"#utility.yul\":16516:16646   */\n      and\n        /* \"#utility.yul\":16513:16669   */\n      iszero\n      tag_519\n      jumpi\n        /* \"#utility.yul\":16649:16667   */\n      tag_520\n      tag_346\n      jump\t// in\n    tag_520:\n        /* \"#utility.yul\":16513:16669   */\n    tag_519:\n        /* \"#utility.yul\":16692:16693   */\n      dup3\n        /* \"#utility.yul\":16689:16690   */\n      dup3\n        /* \"#utility.yul\":16684:16694   */\n      sdiv\n        /* \"#utility.yul\":16679:16694   */\n      swap1\n      pop\n        /* \"#utility.yul\":16315:16700   */\n      swap3\n      swap2\n      pop\n      pop\n      jump\t// out\n        /* \"#utility.yul\":16706:17231   */\n    tag_252:\n        /* \"#utility.yul\":16745:16748   */\n      0x00\n        /* \"#utility.yul\":16764:16783   */\n      tag_522\n        /* \"#utility.yul\":16781:16782   */\n      dup3\n        /* \"#utility.yul\":16764:16783   */\n      tag_363\n      jump\t// in\n    tag_522:\n        /* \"#utility.yul\":16759:16783   */\n      swap2\n      pop\n        /* \"#utility.yul\":16797:16816   */\n      tag_523\n        /* \"#utility.yul\":16814:16815   */\n      dup4\n        /* \"#utility.yul\":16797:16816   */\n      tag_363\n      jump\t// in\n    tag_523:\n        /* \"#utility.yul\":16792:16816   */\n      swap3\n      pop\n        /* \"#utility.yul\":16985:16986   */\n      dup2\n        /* \"#utility.yul\":16917:16983   */\n      0x7fffffffffffffffffffffffffffffffffffffffffffffffffffffffffffffff\n        /* \"#utility.yul\":16913:16987   */\n      sub\n        /* \"#utility.yul\":16910:16911   */\n      dup4\n        /* \"#utility.yul\":16906:16988   */\n      sgt\n        /* \"#utility.yul\":16901:16902   */\n      0x00\n        /* \"#utility.yul\":16898:16899   */\n      dup4\n        /* \"#utility.yul\":16894:16903   */\n      slt\n        /* \"#utility.yul\":16887:16904   */\n      iszero\n        /* \"#utility.yul\":16883:16989   */\n      and\n        /* \"#utility.yul\":16880:17012   */\n      iszero\n      tag_524\n      jumpi\n        /* \"#utility.yul\":16992:17010   */\n      tag_525\n      tag_346\n      jump\t// in\n    tag_525:\n        /* \"#utility.yul\":16880:17012   */\n    tag_524:\n        /* \"#utility.yul\":17172:17173   */\n      dup2\n        /* \"#utility.yul\":17104:17170   */\n      0x8000000000000000000000000000000000000000000000000000000000000000\n        /* \"#utility.yul\":17100:17174   */\n      sub\n        /* \"#utility.yul\":17097:17098   */\n      dup4\n        /* \"#utility.yul\":17093:17175   */\n      slt\n        /* \"#utility.yul\":17089:17090   */\n      0x00\n        /* \"#utility.yul\":17086:17087   */\n      dup4\n        /* \"#utility.yul\":17082:17091   */\n      slt\n        /* \"#utility.yul\":17078:17176   */\n      and\n        /* \"#utility.yul\":17075:17199   */\n      iszero\n      tag_526\n      jumpi\n        /* \"#utility.yul\":17179:17197   */\n      tag_527\n      tag_346\n      jump\t// in\n    tag_527:\n        /* \"#utility.yul\":17075:17199   */\n    tag_526:\n        /* \"#utility.yul\":17223:17224   */\n      dup3\n        /* \"#utility.yul\":17220:17221   */\n      dup3\n        /* \"#utility.yul\":17216:17225   */\n      add\n        /* \"#utility.yul\":17209:17225   */\n      swap1\n      pop\n        /* \"#utility.yul\":16706:17231   */\n      swap3\n      swap2\n      pop\n      pop\n      jump\t// out\n        /* \"#utility.yul\":17237:17468   */\n    tag_262:\n        /* \"#utility.yul\":17275:17278   */\n      0x00\n        /* \"#utility.yul\":17298:17321   */\n      tag_529\n        /* \"#utility.yul\":17315:17320   */\n      dup3\n        /* \"#utility.yul\":17298:17321   */\n      tag_363\n      jump\t// in\n    tag_529:\n        /* \"#utility.yul\":17289:17321   */\n      swap2\n      pop\n        /* \"#utility.yul\":17343:17409   */\n      0x7fffffffffffffffffffffffffffffffffffffffffffffffffffffffffffffff\n        /* \"#utility.yul\":17336:17341   */\n      dup3\n        /* \"#utility.yul\":17333:17410   */\n      sub\n        /* \"#utility.yul\":17330:17433   */\n      tag_530\n      jumpi\n        /* \"#utility.yul\":17413:17431   */\n      tag_531\n      tag_346\n      jump\t// in\n    tag_531:\n        /* \"#utility.yul\":17330:17433   */\n    tag_530:\n        /* \"#utility.yul\":17460:17461   */\n      0x01\n        /* \"#utility.yul\":17453:17458   */\n      dup3\n        /* \"#utility.yul\":17449:17462   */\n      add\n        /* \"#utility.yul\":17442:17462   */\n      swap1\n      pop\n        /* \"#utility.yul\":17237:17468   */\n      swap2\n      swap1\n      pop\n      jump\t// out\n        /* \"#utility.yul\":17474:17705   */\n    tag_268:\n        /* \"#utility.yul\":17512:17515   */\n      0x00\n        /* \"#utility.yul\":17535:17558   */\n      tag_533\n        /* \"#utility.yul\":17552:17557   */\n      dup3\n        /* \"#utility.yul\":17535:17558   */\n      tag_363\n      jump\t// in\n    tag_533:\n        /* \"#utility.yul\":17526:17558   */\n      swap2\n      pop\n        /* \"#utility.yul\":17580:17646   */\n      0x8000000000000000000000000000000000000000000000000000000000000000\n        /* \"#utility.yul\":17573:17578   */\n      dup3\n        /* \"#utility.yul\":17570:17647   */\n      sub\n        /* \"#utility.yul\":17567:17670   */\n      tag_534\n      jumpi\n        /* \"#utility.yul\":17650:17668   */\n      tag_535\n      tag_346\n      jump\t// in\n    tag_535:\n        /* \"#utility.yul\":17567:17670   */\n    tag_534:\n        /* \"#utility.yul\":17697:17698   */\n      0x01\n        /* \"#utility.yul\":17690:17695   */\n      dup3\n        /* \"#utility.yul\":17686:17699   */\n      sub\n        /* \"#utility.yul\":17679:17699   */\n      swap1\n      pop\n        /* \"#utility.yul\":17474:17705   */\n      swap2\n      swap1\n      pop\n      jump\t// out\n\n    auxdata: 0xa2646970667358221220b07702f353d6c0ef4233711a041e1544545179f5fa6e4854982b389a676279ea64736f6c634300080d0033\n}\n",
				"bytecode": {
					"linkReferences": {},
					"object": "60806040523480156200001157600080fd5b506040516200234b3803806200234b8339818101604052810190620000379190620000c5565b336000806101000a81548173ffffffffffffffffffffffffffffffffffffffff021916908373ffffffffffffffffffffffffffffffffffffffff1602179055508060018190555050620000f7565b600080fd5b6000819050919050565b6200009f816200008a565b8114620000ab57600080fd5b50565b600081519050620000bf8162000094565b92915050565b600060208284031215620000de57620000dd62000085565b5b6000620000ee84828501620000ae565b91505092915050565b61224480620001076000396000f3fe6080604052600436106100915760003560e01c806378c5b2681161005957806378c5b2681461018f5780639703ef35146101ab5780639979ef45146101d4578063c5374af2146101f0578063ce0cdc871461021b57610091565b8063122de8f2146100965780631628e0f5146100c15780634471417f146100ea57806369f632e214610115578063734a2e7814610152575b600080fd5b3480156100a257600080fd5b506100ab610246565b6040516100b891906118fa565b60405180910390f35b3480156100cd57600080fd5b506100e860048036038101906100e3919061194d565b61036c565b005b3480156100f657600080fd5b506100ff6106a3565b60405161010c9190611b36565b60405180910390f35b34801561012157600080fd5b5061013c6004803603810190610137919061194d565b6107a7565b6040516101499190611b67565b60405180910390f35b34801561015e57600080fd5b506101796004803603810190610174919061194d565b6107f6565b6040516101869190611b67565b60405180910390f35b6101a960048036038101906101a4919061194d565b610845565b005b3480156101b757600080fd5b506101d260048036038101906101cd919061194d565b610aa7565b005b6101ee60048036038101906101e9919061194d565b610dde565b005b3480156101fc57600080fd5b50610205611040565b6040516102129190611b36565b60405180910390f35b34801561022757600080fd5b50610230611144565b60405161023d91906118fa565b60405180910390f35b606061025061126a565b60005b600380549050811015610315573373ffffffffffffffffffffffffffffffffffffffff166003828154811061028b5761028a611b82565b5b906000526020600020906004020160000160009054906101000a900473ffffffffffffffffffffffffffffffffffffffff1673ffffffffffffffffffffffffffffffffffffffff16036103025760048190806001815401808255809150506001900390600052602060002001600090919091909150555b808061030d90611be0565b915050610253565b50600480548060200260200160405190810160405280929190818152602001828054801561036257602002820191906000526020600020905b81548152602001906001019080831161034e575b5050505050905090565b600381815481106103805761037f611b82565b5b90600052602060002090600402016040518060800160405290816000820160009054906101000a900473ffffffffffffffffffffffffffffffffffffffff1673ffffffffffffffffffffffffffffffffffffffff1673ffffffffffffffffffffffffffffffffffffffff16815260200160018201548152602001600282015481526020016003820160009054906101000a900460ff166001811115610428576104276119e7565b5b600181111561043a576104396119e7565b5b8152505060006001811115610452576104516119e7565b5b81606001516001811115610469576104686119e7565b5b146104a9576040517f08c379a00000000000000000000000000000000000000000000000000000000081526004016104a090611c85565b60405180910390fd5b600382815481106104bd576104bc611b82565b5b90600052602060002090600402016040518060800160405290816000820160009054906101000a900473ffffffffffffffffffffffffffffffffffffffff1673ffffffffffffffffffffffffffffffffffffffff1673ffffffffffffffffffffffffffffffffffffffff16815260200160018201548152602001600282015481526020016003820160009054906101000a900460ff166001811115610565576105646119e7565b5b6001811115610577576105766119e7565b5b81525050338073ffffffffffffffffffffffffffffffffffffffff16826000015173ffffffffffffffffffffffffffffffffffffffff16146105ee576040517f08c379a00000000000000000000000000000000000000000000000000000000081526004016105e590611cf1565b60405180910390fd5b6003848154811061060257610601611b82565b5b9060005260206000209060040201600080820160006101000a81549073ffffffffffffffffffffffffffffffffffffffff0219169055600182016000905560028201600090556003820160006101000a81549060ff021916905550506106666112b2565b7f48d3043fff66c1aee14954ac5aa463b0297fb08c9b60ee00486fb3387bb58aac846040516106959190611d20565b60405180910390a150505050565b60606002805480602002602001604051908101604052809291908181526020016000905b8282101561079e57838290600052602060002090600402016040518060800160405290816000820160009054906101000a900473ffffffffffffffffffffffffffffffffffffffff1673ffffffffffffffffffffffffffffffffffffffff1673ffffffffffffffffffffffffffffffffffffffff16815260200160018201548152602001600282015481526020016003820160009054906101000a900460ff166001811115610779576107786119e7565b5b600181111561078b5761078a6119e7565b5b81525050815260200190600101906106c7565b50505050905090565b6000600282815481106107bd576107bc611b82565b5b906000526020600020906004020160000160009054906101000a900473ffffffffffffffffffffffffffffffffffffffff169050919050565b60006003828154811061080c5761080b611b82565b5b906000526020600020906004020160000160009054906101000a900473ffffffffffffffffffffffffffffffffffffffff169050919050565b6000811015610889576040517f08c379a000000000000000000000000000000000000000000000000000000000815260040161088090611d87565b60405180910390fd5b803410156108cc576040517f08c379a00000000000000000000000000000000000000000000000000000000081526004016108c390611df3565b60405180910390fd5b6000429050600060405180608001604052803373ffffffffffffffffffffffffffffffffffffffff1681526020018481526020018381526020016000600181111561091a576109196119e7565b5b8152509050600381908060018154018082558091505060019003906000526020600020906004020160009091909190915060008201518160000160006101000a81548173ffffffffffffffffffffffffffffffffffffffff021916908373ffffffffffffffffffffffffffffffffffffffff160217905550602082015181600101556040820151816002015560608201518160030160006101000a81548160ff021916908360018111156109d1576109d06119e7565b5b0217905550505060008054906101000a900473ffffffffffffffffffffffffffffffffffffffff1673ffffffffffffffffffffffffffffffffffffffff166108fc60646001546064610a239190611e13565b34610a2e9190611e47565b610a389190611ed0565b9081150290604051600060405180830381858888f19350505050158015610a63573d6000803e3d6000fd5b507fc2125a7f3edfeff7a3bbcfe393c5aa3a6589585d4a7ee70db48c34f67c8209e23384846000604051610a9a9493929190611f31565b60405180910390a1505050565b60028181548110610abb57610aba611b82565b5b90600052602060002090600402016040518060800160405290816000820160009054906101000a900473ffffffffffffffffffffffffffffffffffffffff1673ffffffffffffffffffffffffffffffffffffffff1673ffffffffffffffffffffffffffffffffffffffff16815260200160018201548152602001600282015481526020016003820160009054906101000a900460ff166001811115610b6357610b626119e7565b5b6001811115610b7557610b746119e7565b5b8152505060006001811115610b8d57610b8c6119e7565b5b81606001516001811115610ba457610ba36119e7565b5b14610be4576040517f08c379a0000000000000000000000000000000000000000000000000000000008152600401610bdb90611c85565b60405180910390fd5b60028281548110610bf857610bf7611b82565b5b90600052602060002090600402016040518060800160405290816000820160009054906101000a900473ffffffffffffffffffffffffffffffffffffffff1673ffffffffffffffffffffffffffffffffffffffff1673ffffffffffffffffffffffffffffffffffffffff16815260200160018201548152602001600282015481526020016003820160009054906101000a900460ff166001811115610ca057610c9f6119e7565b5b6001811115610cb257610cb16119e7565b5b81525050338073ffffffffffffffffffffffffffffffffffffffff16826000015173ffffffffffffffffffffffffffffffffffffffff1614610d29576040517f08c379a0000000000000000000000000000000000000000000000000000000008152600401610d2090611cf1565b60405180910390fd5b60028481548110610d3d57610d3c611b82565b5b9060005260206000209060040201600080820160006101000a81549073ffffffffffffffffffffffffffffffffffffffff0219169055600182016000905560028201600090556003820160006101000a81549060ff02191690555050610da16113cd565b7fc845a6832afa0a4048dd70bbba2186093508a6b63a8d5d70a508f819fef257f884604051610dd09190611d20565b60405180910390a150505050565b6000811015610e22576040517f08c379a0000000000000000000000000000000000000000000000000000000008152600401610e1990611d87565b60405180910390fd5b80341015610e65576040517f08c379a0000000000000000000000000000000000000000000000000000000008152600401610e5c90611fc2565b60405180910390fd5b6000429050600060405180608001604052803373ffffffffffffffffffffffffffffffffffffffff16815260200184815260200183815260200160006001811115610eb357610eb26119e7565b5b8152509050600281908060018154018082558091505060019003906000526020600020906004020160009091909190915060008201518160000160006101000a81548173ffffffffffffffffffffffffffffffffffffffff021916908373ffffffffffffffffffffffffffffffffffffffff160217905550602082015181600101556040820151816002015560608201518160030160006101000a81548160ff02191690836001811115610f6a57610f696119e7565b5b0217905550505060008054906101000a900473ffffffffffffffffffffffffffffffffffffffff1673ffffffffffffffffffffffffffffffffffffffff166108fc60646001546064610fbc9190611e13565b34610fc79190611e47565b610fd19190611ed0565b9081150290604051600060405180830381858888f19350505050158015610ffc573d6000803e3d6000fd5b507fa64806d6d5d480697a0b11c92b915a4ff7b93c0be28171d65d30041a0c360d0433848460006040516110339493929190611f31565b60405180910390a1505050565b60606003805480602002602001604051908101604052809291908181526020016000905b8282101561113b57838290600052602060002090600402016040518060800160405290816000820160009054906101000a900473ffffffffffffffffffffffffffffffffffffffff1673ffffffffffffffffffffffffffffffffffffffff1673ffffffffffffffffffffffffffffffffffffffff16815260200160018201548152602001600282015481526020016003820160009054906101000a900460ff166001811115611116576111156119e7565b5b6001811115611128576111276119e7565b5b8152505081526020019060010190611064565b50505050905090565b606061114e61126a565b60005b600280549050811015611213573373ffffffffffffffffffffffffffffffffffffffff166002828154811061118957611188611b82565b5b906000526020600020906004020160000160009054906101000a900473ffffffffffffffffffffffffffffffffffffffff1673ffffffffffffffffffffffffffffffffffffffff16036112005760048190806001815401808255809150506001900390600052602060002001600090919091909150555b808061120b90611be0565b915050611151565b50600480548060200260200160405190810160405280929190818152602001828054801561126057602002820191906000526020600020905b81548152602001906001019080831161124c575b5050505050905090565b60005b6004805490508110156112af576004818154811061128e5761128d611b82565b5b906000526020600020016000905580806112a790611be0565b91505061126d565b50565b6113cb6002805480602002602001604051908101604052809291908181526020016000905b828210156113ae57838290600052602060002090600402016040518060800160405290816000820160009054906101000a900473ffffffffffffffffffffffffffffffffffffffff1673ffffffffffffffffffffffffffffffffffffffff1673ffffffffffffffffffffffffffffffffffffffff16815260200160018201548152602001600282015481526020016003820160009054906101000a900460ff166001811115611389576113886119e7565b5b600181111561139b5761139a6119e7565b5b81525050815260200190600101906112d7565b50505050600060016002805490506113c69190611e13565b6114e8565b565b6114e66002805480602002602001604051908101604052809291908181526020016000905b828210156114c957838290600052602060002090600402016040518060800160405290816000820160009054906101000a900473ffffffffffffffffffffffffffffffffffffffff1673ffffffffffffffffffffffffffffffffffffffff1673ffffffffffffffffffffffffffffffffffffffff16815260200160018201548152602001600282015481526020016003820160009054906101000a900460ff1660018111156114a4576114a36119e7565b5b60018111156114b6576114b56119e7565b5b81525050815260200190600101906113f2565b50505050600060016002805490506114e19190611e13565b61168d565b565b60008290506000829050808203611500575050611688565b600085600286866115119190611fec565b61151b9190612080565b8661152691906120ea565b8151811061153757611536611b82565b5b60200260200101516040015190505b81831361165c575b8086848151811061156257611561611b82565b5b602002602001015160400151111561158757828061157f9061217e565b93505061154e565b5b85828151811061159b5761159a611b82565b5b6020026020010151604001518111156115c15781806115b9906121c6565b925050611588565b818313611657578582815181106115db576115da611b82565b5b60200260200101518684815181106115f6576115f5611b82565b5b602002602001015187858151811061161157611610611b82565b5b6020026020010188858151811061162b5761162a611b82565b5b60200260200101829052829052505082806116459061217e565b9350508180611653906121c6565b9250505b611546565b818512156116705761166f8686846114e8565b5b83831215611684576116838684866114e8565b5b5050505b505050565b600082905060008290508082036116a557505061182d565b600085600286866116b69190611fec565b6116c09190612080565b866116cb91906120ea565b815181106116dc576116db611b82565b5b60200260200101516040015190505b818313611801575b8086848151811061170757611706611b82565b5b602002602001015160400151101561172c5782806117249061217e565b9350506116f3565b5b8582815181106117405761173f611b82565b5b60200260200101516040015181101561176657818061175e906121c6565b92505061172d565b8183136117fc578582815181106117805761177f611b82565b5b602002602001015186848151811061179b5761179a611b82565b5b60200260200101518785815181106117b6576117b5611b82565b5b602002602001018885815181106117d0576117cf611b82565b5b60200260200101829052829052505082806117ea9061217e565b93505081806117f8906121c6565b9250505b6116eb565b818512156118155761181486868461168d565b5b838312156118295761182886848661168d565b5b5050505b505050565b600081519050919050565b600082825260208201905092915050565b6000819050602082019050919050565b6000819050919050565b6118718161185e565b82525050565b60006118838383611868565b60208301905092915050565b6000602082019050919050565b60006118a782611832565b6118b1818561183d565b93506118bc8361184e565b8060005b838110156118ed5781516118d48882611877565b97506118df8361188f565b9250506001810190506118c0565b5085935050505092915050565b60006020820190508181036000830152611914818461189c565b905092915050565b600080fd5b61192a8161185e565b811461193557600080fd5b50565b60008135905061194781611921565b92915050565b6000602082840312156119635761196261191c565b5b600061197184828501611938565b91505092915050565b600081519050919050565b600082825260208201905092915050565b6000819050602082019050919050565b600073ffffffffffffffffffffffffffffffffffffffff82169050919050565b60006119d1826119a6565b9050919050565b6119e1816119c6565b82525050565b7f4e487b7100000000000000000000000000000000000000000000000000000000600052602160045260246000fd5b60028110611a2757611a266119e7565b5b50565b6000819050611a3882611a16565b919050565b6000611a4882611a2a565b9050919050565b611a5881611a3d565b82525050565b608082016000820151611a7460008501826119d8565b506020820151611a876020850182611868565b506040820151611a9a6040850182611868565b506060820151611aad6060850182611a4f565b50505050565b6000611abf8383611a5e565b60808301905092915050565b6000602082019050919050565b6000611ae38261197a565b611aed8185611985565b9350611af883611996565b8060005b83811015611b29578151611b108882611ab3565b9750611b1b83611acb565b925050600181019050611afc565b5085935050505092915050565b60006020820190508181036000830152611b508184611ad8565b905092915050565b611b61816119c6565b82525050565b6000602082019050611b7c6000830184611b58565b92915050565b7f4e487b7100000000000000000000000000000000000000000000000000000000600052603260045260246000fd5b7f4e487b7100000000000000000000000000000000000000000000000000000000600052601160045260246000fd5b6000611beb8261185e565b91507fffffffffffffffffffffffffffffffffffffffffffffffffffffffffffffffff8203611c1d57611c1c611bb1565b5b600182019050919050565b600082825260208201905092915050565b7f4f726465722050656e64696e6700000000000000000000000000000000000000600082015250565b6000611c6f600d83611c28565b9150611c7a82611c39565b602082019050919050565b60006020820190508181036000830152611c9e81611c62565b9050919050565b7f4e6f7420417574686f7269736564000000000000000000000000000000000000600082015250565b6000611cdb600e83611c28565b9150611ce682611ca5565b602082019050919050565b60006020820190508181036000830152611d0a81611cce565b9050919050565b611d1a8161185e565b82525050565b6000602082019050611d356000830184611d11565b92915050565b7f70726963652076616c7565206d757374206265206d6f7265207468616e203000600082015250565b6000611d71601f83611c28565b9150611d7c82611d3b565b602082019050919050565b60006020820190508181036000830152611da081611d64565b9050919050565b7f4e6f7420656e6f75676820626c616e636520746f20706c6163652061736b0000600082015250565b6000611ddd601e83611c28565b9150611de882611da7565b602082019050919050565b60006020820190508181036000830152611e0c81611dd0565b9050919050565b6000611e1e8261185e565b9150611e298361185e565b925082821015611e3c57611e3b611bb1565b5b828203905092915050565b6000611e528261185e565b9150611e5d8361185e565b9250817fffffffffffffffffffffffffffffffffffffffffffffffffffffffffffffffff0483118215151615611e9657611e95611bb1565b5b828202905092915050565b7f4e487b7100000000000000000000000000000000000000000000000000000000600052601260045260246000fd5b6000611edb8261185e565b9150611ee68361185e565b925082611ef657611ef5611ea1565b5b828204905092915050565b6000611f0c826119a6565b9050919050565b611f1c81611f01565b82525050565b611f2b81611a3d565b82525050565b6000608082019050611f466000830187611f13565b611f536020830186611d11565b611f606040830185611d11565b611f6d6060830184611f22565b95945050505050565b7f4e6f7420656e6f75676820626c616e636520746f20706c616365206269640000600082015250565b6000611fac601e83611c28565b9150611fb782611f76565b602082019050919050565b60006020820190508181036000830152611fdb81611f9f565b9050919050565b6000819050919050565b6000611ff782611fe2565b915061200283611fe2565b9250827f80000000000000000000000000000000000000000000000000000000000000000182126000841215161561203d5761203c611bb1565b5b827f7fffffffffffffffffffffffffffffffffffffffffffffffffffffffffffffff01821360008412161561207557612074611bb1565b5b828203905092915050565b600061208b82611fe2565b915061209683611fe2565b9250826120a6576120a5611ea1565b5b600160000383147f8000000000000000000000000000000000000000000000000000000000000000831416156120df576120de611bb1565b5b828205905092915050565b60006120f582611fe2565b915061210083611fe2565b9250817f7fffffffffffffffffffffffffffffffffffffffffffffffffffffffffffffff0383136000831215161561213b5761213a611bb1565b5b817f800000000000000000000000000000000000000000000000000000000000000003831260008312161561217357612172611bb1565b5b828201905092915050565b600061218982611fe2565b91507f7fffffffffffffffffffffffffffffffffffffffffffffffffffffffffffffff82036121bb576121ba611bb1565b5b600182019050919050565b60006121d182611fe2565b91507f8000000000000000000000000000000000000000000000000000000000000000820361220357612202611bb1565b5b60018203905091905056fea2646970667358221220b07702f353d6c0ef4233711a041e1544545179f5fa6e4854982b389a676279ea64736f6c634300080d0033",
					"opcodes": "PUSH1 0x80 PUSH1 0x40 MSTORE CALLVALUE DUP1 ISZERO PUSH3 0x11 JUMPI PUSH1 0x0 DUP1 REVERT JUMPDEST POP PUSH1 0x40 MLOAD PUSH3 0x234B CODESIZE SUB DUP1 PUSH3 0x234B DUP4 CODECOPY DUP2 DUP2 ADD PUSH1 0x40 MSTORE DUP2 ADD SWAP1 PUSH3 0x37 SWAP2 SWAP1 PUSH3 0xC5 JUMP JUMPDEST CALLER PUSH1 0x0 DUP1 PUSH2 0x100 EXP DUP2 SLOAD DUP2 PUSH20 0xFFFFFFFFFFFFFFFFFFFFFFFFFFFFFFFFFFFFFFFF MUL NOT AND SWAP1 DUP4 PUSH20 0xFFFFFFFFFFFFFFFFFFFFFFFFFFFFFFFFFFFFFFFF AND MUL OR SWAP1 SSTORE POP DUP1 PUSH1 0x1 DUP2 SWAP1 SSTORE POP POP PUSH3 0xF7 JUMP JUMPDEST PUSH1 0x0 DUP1 REVERT JUMPDEST PUSH1 0x0 DUP2 SWAP1 POP SWAP2 SWAP1 POP JUMP JUMPDEST PUSH3 0x9F DUP2 PUSH3 0x8A JUMP JUMPDEST DUP2 EQ PUSH3 0xAB JUMPI PUSH1 0x0 DUP1 REVERT JUMPDEST POP JUMP JUMPDEST PUSH1 0x0 DUP2 MLOAD SWAP1 POP PUSH3 0xBF DUP2 PUSH3 0x94 JUMP JUMPDEST SWAP3 SWAP2 POP POP JUMP JUMPDEST PUSH1 0x0 PUSH1 0x20 DUP3 DUP5 SUB SLT ISZERO PUSH3 0xDE JUMPI PUSH3 0xDD PUSH3 0x85 JUMP JUMPDEST JUMPDEST PUSH1 0x0 PUSH3 0xEE DUP5 DUP3 DUP6 ADD PUSH3 0xAE JUMP JUMPDEST SWAP2 POP POP SWAP3 SWAP2 POP POP JUMP JUMPDEST PUSH2 0x2244 DUP1 PUSH3 0x107 PUSH1 0x0 CODECOPY PUSH1 0x0 RETURN INVALID PUSH1 0x80 PUSH1 0x40 MSTORE PUSH1 0x4 CALLDATASIZE LT PUSH2 0x91 JUMPI PUSH1 0x0 CALLDATALOAD PUSH1 0xE0 SHR DUP1 PUSH4 0x78C5B268 GT PUSH2 0x59 JUMPI DUP1 PUSH4 0x78C5B268 EQ PUSH2 0x18F JUMPI DUP1 PUSH4 0x9703EF35 EQ PUSH2 0x1AB JUMPI DUP1 PUSH4 0x9979EF45 EQ PUSH2 0x1D4 JUMPI DUP1 PUSH4 0xC5374AF2 EQ PUSH2 0x1F0 JUMPI DUP1 PUSH4 0xCE0CDC87 EQ PUSH2 0x21B JUMPI PUSH2 0x91 JUMP JUMPDEST DUP1 PUSH4 0x122DE8F2 EQ PUSH2 0x96 JUMPI DUP1 PUSH4 0x1628E0F5 EQ PUSH2 0xC1 JUMPI DUP1 PUSH4 0x4471417F EQ PUSH2 0xEA JUMPI DUP1 PUSH4 0x69F632E2 EQ PUSH2 0x115 JUMPI DUP1 PUSH4 0x734A2E78 EQ PUSH2 0x152 JUMPI JUMPDEST PUSH1 0x0 DUP1 REVERT JUMPDEST CALLVALUE DUP1 ISZERO PUSH2 0xA2 JUMPI PUSH1 0x0 DUP1 REVERT JUMPDEST POP PUSH2 0xAB PUSH2 0x246 JUMP JUMPDEST PUSH1 0x40 MLOAD PUSH2 0xB8 SWAP2 SWAP1 PUSH2 0x18FA JUMP JUMPDEST PUSH1 0x40 MLOAD DUP1 SWAP2 SUB SWAP1 RETURN JUMPDEST CALLVALUE DUP1 ISZERO PUSH2 0xCD JUMPI PUSH1 0x0 DUP1 REVERT JUMPDEST POP PUSH2 0xE8 PUSH1 0x4 DUP1 CALLDATASIZE SUB DUP2 ADD SWAP1 PUSH2 0xE3 SWAP2 SWAP1 PUSH2 0x194D JUMP JUMPDEST PUSH2 0x36C JUMP JUMPDEST STOP JUMPDEST CALLVALUE DUP1 ISZERO PUSH2 0xF6 JUMPI PUSH1 0x0 DUP1 REVERT JUMPDEST POP PUSH2 0xFF PUSH2 0x6A3 JUMP JUMPDEST PUSH1 0x40 MLOAD PUSH2 0x10C SWAP2 SWAP1 PUSH2 0x1B36 JUMP JUMPDEST PUSH1 0x40 MLOAD DUP1 SWAP2 SUB SWAP1 RETURN JUMPDEST CALLVALUE DUP1 ISZERO PUSH2 0x121 JUMPI PUSH1 0x0 DUP1 REVERT JUMPDEST POP PUSH2 0x13C PUSH1 0x4 DUP1 CALLDATASIZE SUB DUP2 ADD SWAP1 PUSH2 0x137 SWAP2 SWAP1 PUSH2 0x194D JUMP JUMPDEST PUSH2 0x7A7 JUMP JUMPDEST PUSH1 0x40 MLOAD PUSH2 0x149 SWAP2 SWAP1 PUSH2 0x1B67 JUMP JUMPDEST PUSH1 0x40 MLOAD DUP1 SWAP2 SUB SWAP1 RETURN JUMPDEST CALLVALUE DUP1 ISZERO PUSH2 0x15E JUMPI PUSH1 0x0 DUP1 REVERT JUMPDEST POP PUSH2 0x179 PUSH1 0x4 DUP1 CALLDATASIZE SUB DUP2 ADD SWAP1 PUSH2 0x174 SWAP2 SWAP1 PUSH2 0x194D JUMP JUMPDEST PUSH2 0x7F6 JUMP JUMPDEST PUSH1 0x40 MLOAD PUSH2 0x186 SWAP2 SWAP1 PUSH2 0x1B67 JUMP JUMPDEST PUSH1 0x40 MLOAD DUP1 SWAP2 SUB SWAP1 RETURN JUMPDEST PUSH2 0x1A9 PUSH1 0x4 DUP1 CALLDATASIZE SUB DUP2 ADD SWAP1 PUSH2 0x1A4 SWAP2 SWAP1 PUSH2 0x194D JUMP JUMPDEST PUSH2 0x845 JUMP JUMPDEST STOP JUMPDEST CALLVALUE DUP1 ISZERO PUSH2 0x1B7 JUMPI PUSH1 0x0 DUP1 REVERT JUMPDEST POP PUSH2 0x1D2 PUSH1 0x4 DUP1 CALLDATASIZE SUB DUP2 ADD SWAP1 PUSH2 0x1CD SWAP2 SWAP1 PUSH2 0x194D JUMP JUMPDEST PUSH2 0xAA7 JUMP JUMPDEST STOP JUMPDEST PUSH2 0x1EE PUSH1 0x4 DUP1 CALLDATASIZE SUB DUP2 ADD SWAP1 PUSH2 0x1E9 SWAP2 SWAP1 PUSH2 0x194D JUMP JUMPDEST PUSH2 0xDDE JUMP JUMPDEST STOP JUMPDEST CALLVALUE DUP1 ISZERO PUSH2 0x1FC JUMPI PUSH1 0x0 DUP1 REVERT JUMPDEST POP PUSH2 0x205 PUSH2 0x1040 JUMP JUMPDEST PUSH1 0x40 MLOAD PUSH2 0x212 SWAP2 SWAP1 PUSH2 0x1B36 JUMP JUMPDEST PUSH1 0x40 MLOAD DUP1 SWAP2 SUB SWAP1 RETURN JUMPDEST CALLVALUE DUP1 ISZERO PUSH2 0x227 JUMPI PUSH1 0x0 DUP1 REVERT JUMPDEST POP PUSH2 0x230 PUSH2 0x1144 JUMP JUMPDEST PUSH1 0x40 MLOAD PUSH2 0x23D SWAP2 SWAP1 PUSH2 0x18FA JUMP JUMPDEST PUSH1 0x40 MLOAD DUP1 SWAP2 SUB SWAP1 RETURN JUMPDEST PUSH1 0x60 PUSH2 0x250 PUSH2 0x126A JUMP JUMPDEST PUSH1 0x0 JUMPDEST PUSH1 0x3 DUP1 SLOAD SWAP1 POP DUP2 LT ISZERO PUSH2 0x315 JUMPI CALLER PUSH20 0xFFFFFFFFFFFFFFFFFFFFFFFFFFFFFFFFFFFFFFFF AND PUSH1 0x3 DUP3 DUP2 SLOAD DUP2 LT PUSH2 0x28B JUMPI PUSH2 0x28A PUSH2 0x1B82 JUMP JUMPDEST JUMPDEST SWAP1 PUSH1 0x0 MSTORE PUSH1 0x20 PUSH1 0x0 KECCAK256 SWAP1 PUSH1 0x4 MUL ADD PUSH1 0x0 ADD PUSH1 0x0 SWAP1 SLOAD SWAP1 PUSH2 0x100 EXP SWAP1 DIV PUSH20 0xFFFFFFFFFFFFFFFFFFFFFFFFFFFFFFFFFFFFFFFF AND PUSH20 0xFFFFFFFFFFFFFFFFFFFFFFFFFFFFFFFFFFFFFFFF AND SUB PUSH2 0x302 JUMPI PUSH1 0x4 DUP2 SWAP1 DUP1 PUSH1 0x1 DUP2 SLOAD ADD DUP1 DUP3 SSTORE DUP1 SWAP2 POP POP PUSH1 0x1 SWAP1 SUB SWAP1 PUSH1 0x0 MSTORE PUSH1 0x20 PUSH1 0x0 KECCAK256 ADD PUSH1 0x0 SWAP1 SWAP2 SWAP1 SWAP2 SWAP1 SWAP2 POP SSTORE JUMPDEST DUP1 DUP1 PUSH2 0x30D SWAP1 PUSH2 0x1BE0 JUMP JUMPDEST SWAP2 POP POP PUSH2 0x253 JUMP JUMPDEST POP PUSH1 0x4 DUP1 SLOAD DUP1 PUSH1 0x20 MUL PUSH1 0x20 ADD PUSH1 0x40 MLOAD SWAP1 DUP2 ADD PUSH1 0x40 MSTORE DUP1 SWAP3 SWAP2 SWAP1 DUP2 DUP2 MSTORE PUSH1 0x20 ADD DUP3 DUP1 SLOAD DUP1 ISZERO PUSH2 0x362 JUMPI PUSH1 0x20 MUL DUP3 ADD SWAP2 SWAP1 PUSH1 0x0 MSTORE PUSH1 0x20 PUSH1 0x0 KECCAK256 SWAP1 JUMPDEST DUP2 SLOAD DUP2 MSTORE PUSH1 0x20 ADD SWAP1 PUSH1 0x1 ADD SWAP1 DUP1 DUP4 GT PUSH2 0x34E JUMPI JUMPDEST POP POP POP POP POP SWAP1 POP SWAP1 JUMP JUMPDEST PUSH1 0x3 DUP2 DUP2 SLOAD DUP2 LT PUSH2 0x380 JUMPI PUSH2 0x37F PUSH2 0x1B82 JUMP JUMPDEST JUMPDEST SWAP1 PUSH1 0x0 MSTORE PUSH1 0x20 PUSH1 0x0 KECCAK256 SWAP1 PUSH1 0x4 MUL ADD PUSH1 0x40 MLOAD DUP1 PUSH1 0x80 ADD PUSH1 0x40 MSTORE SWAP1 DUP2 PUSH1 0x0 DUP3 ADD PUSH1 0x0 SWAP1 SLOAD SWAP1 PUSH2 0x100 EXP SWAP1 DIV PUSH20 0xFFFFFFFFFFFFFFFFFFFFFFFFFFFFFFFFFFFFFFFF AND PUSH20 0xFFFFFFFFFFFFFFFFFFFFFFFFFFFFFFFFFFFFFFFF AND PUSH20 0xFFFFFFFFFFFFFFFFFFFFFFFFFFFFFFFFFFFFFFFF AND DUP2 MSTORE PUSH1 0x20 ADD PUSH1 0x1 DUP3 ADD SLOAD DUP2 MSTORE PUSH1 0x20 ADD PUSH1 0x2 DUP3 ADD SLOAD DUP2 MSTORE PUSH1 0x20 ADD PUSH1 0x3 DUP3 ADD PUSH1 0x0 SWAP1 SLOAD SWAP1 PUSH2 0x100 EXP SWAP1 DIV PUSH1 0xFF AND PUSH1 0x1 DUP2 GT ISZERO PUSH2 0x428 JUMPI PUSH2 0x427 PUSH2 0x19E7 JUMP JUMPDEST JUMPDEST PUSH1 0x1 DUP2 GT ISZERO PUSH2 0x43A JUMPI PUSH2 0x439 PUSH2 0x19E7 JUMP JUMPDEST JUMPDEST DUP2 MSTORE POP POP PUSH1 0x0 PUSH1 0x1 DUP2 GT ISZERO PUSH2 0x452 JUMPI PUSH2 0x451 PUSH2 0x19E7 JUMP JUMPDEST JUMPDEST DUP2 PUSH1 0x60 ADD MLOAD PUSH1 0x1 DUP2 GT ISZERO PUSH2 0x469 JUMPI PUSH2 0x468 PUSH2 0x19E7 JUMP JUMPDEST JUMPDEST EQ PUSH2 0x4A9 JUMPI PUSH1 0x40 MLOAD PUSH32 0x8C379A000000000000000000000000000000000000000000000000000000000 DUP2 MSTORE PUSH1 0x4 ADD PUSH2 0x4A0 SWAP1 PUSH2 0x1C85 JUMP JUMPDEST PUSH1 0x40 MLOAD DUP1 SWAP2 SUB SWAP1 REVERT JUMPDEST PUSH1 0x3 DUP3 DUP2 SLOAD DUP2 LT PUSH2 0x4BD JUMPI PUSH2 0x4BC PUSH2 0x1B82 JUMP JUMPDEST JUMPDEST SWAP1 PUSH1 0x0 MSTORE PUSH1 0x20 PUSH1 0x0 KECCAK256 SWAP1 PUSH1 0x4 MUL ADD PUSH1 0x40 MLOAD DUP1 PUSH1 0x80 ADD PUSH1 0x40 MSTORE SWAP1 DUP2 PUSH1 0x0 DUP3 ADD PUSH1 0x0 SWAP1 SLOAD SWAP1 PUSH2 0x100 EXP SWAP1 DIV PUSH20 0xFFFFFFFFFFFFFFFFFFFFFFFFFFFFFFFFFFFFFFFF AND PUSH20 0xFFFFFFFFFFFFFFFFFFFFFFFFFFFFFFFFFFFFFFFF AND PUSH20 0xFFFFFFFFFFFFFFFFFFFFFFFFFFFFFFFFFFFFFFFF AND DUP2 MSTORE PUSH1 0x20 ADD PUSH1 0x1 DUP3 ADD SLOAD DUP2 MSTORE PUSH1 0x20 ADD PUSH1 0x2 DUP3 ADD SLOAD DUP2 MSTORE PUSH1 0x20 ADD PUSH1 0x3 DUP3 ADD PUSH1 0x0 SWAP1 SLOAD SWAP1 PUSH2 0x100 EXP SWAP1 DIV PUSH1 0xFF AND PUSH1 0x1 DUP2 GT ISZERO PUSH2 0x565 JUMPI PUSH2 0x564 PUSH2 0x19E7 JUMP JUMPDEST JUMPDEST PUSH1 0x1 DUP2 GT ISZERO PUSH2 0x577 JUMPI PUSH2 0x576 PUSH2 0x19E7 JUMP JUMPDEST JUMPDEST DUP2 MSTORE POP POP CALLER DUP1 PUSH20 0xFFFFFFFFFFFFFFFFFFFFFFFFFFFFFFFFFFFFFFFF AND DUP3 PUSH1 0x0 ADD MLOAD PUSH20 0xFFFFFFFFFFFFFFFFFFFFFFFFFFFFFFFFFFFFFFFF AND EQ PUSH2 0x5EE JUMPI PUSH1 0x40 MLOAD PUSH32 0x8C379A000000000000000000000000000000000000000000000000000000000 DUP2 MSTORE PUSH1 0x4 ADD PUSH2 0x5E5 SWAP1 PUSH2 0x1CF1 JUMP JUMPDEST PUSH1 0x40 MLOAD DUP1 SWAP2 SUB SWAP1 REVERT JUMPDEST PUSH1 0x3 DUP5 DUP2 SLOAD DUP2 LT PUSH2 0x602 JUMPI PUSH2 0x601 PUSH2 0x1B82 JUMP JUMPDEST JUMPDEST SWAP1 PUSH1 0x0 MSTORE PUSH1 0x20 PUSH1 0x0 KECCAK256 SWAP1 PUSH1 0x4 MUL ADD PUSH1 0x0 DUP1 DUP3 ADD PUSH1 0x0 PUSH2 0x100 EXP DUP2 SLOAD SWAP1 PUSH20 0xFFFFFFFFFFFFFFFFFFFFFFFFFFFFFFFFFFFFFFFF MUL NOT AND SWAP1 SSTORE PUSH1 0x1 DUP3 ADD PUSH1 0x0 SWAP1 SSTORE PUSH1 0x2 DUP3 ADD PUSH1 0x0 SWAP1 SSTORE PUSH1 0x3 DUP3 ADD PUSH1 0x0 PUSH2 0x100 EXP DUP2 SLOAD SWAP1 PUSH1 0xFF MUL NOT AND SWAP1 SSTORE POP POP PUSH2 0x666 PUSH2 0x12B2 JUMP JUMPDEST PUSH32 0x48D3043FFF66C1AEE14954AC5AA463B0297FB08C9B60EE00486FB3387BB58AAC DUP5 PUSH1 0x40 MLOAD PUSH2 0x695 SWAP2 SWAP1 PUSH2 0x1D20 JUMP JUMPDEST PUSH1 0x40 MLOAD DUP1 SWAP2 SUB SWAP1 LOG1 POP POP POP POP JUMP JUMPDEST PUSH1 0x60 PUSH1 0x2 DUP1 SLOAD DUP1 PUSH1 0x20 MUL PUSH1 0x20 ADD PUSH1 0x40 MLOAD SWAP1 DUP2 ADD PUSH1 0x40 MSTORE DUP1 SWAP3 SWAP2 SWAP1 DUP2 DUP2 MSTORE PUSH1 0x20 ADD PUSH1 0x0 SWAP1 JUMPDEST DUP3 DUP3 LT ISZERO PUSH2 0x79E JUMPI DUP4 DUP3 SWAP1 PUSH1 0x0 MSTORE PUSH1 0x20 PUSH1 0x0 KECCAK256 SWAP1 PUSH1 0x4 MUL ADD PUSH1 0x40 MLOAD DUP1 PUSH1 0x80 ADD PUSH1 0x40 MSTORE SWAP1 DUP2 PUSH1 0x0 DUP3 ADD PUSH1 0x0 SWAP1 SLOAD SWAP1 PUSH2 0x100 EXP SWAP1 DIV PUSH20 0xFFFFFFFFFFFFFFFFFFFFFFFFFFFFFFFFFFFFFFFF AND PUSH20 0xFFFFFFFFFFFFFFFFFFFFFFFFFFFFFFFFFFFFFFFF AND PUSH20 0xFFFFFFFFFFFFFFFFFFFFFFFFFFFFFFFFFFFFFFFF AND DUP2 MSTORE PUSH1 0x20 ADD PUSH1 0x1 DUP3 ADD SLOAD DUP2 MSTORE PUSH1 0x20 ADD PUSH1 0x2 DUP3 ADD SLOAD DUP2 MSTORE PUSH1 0x20 ADD PUSH1 0x3 DUP3 ADD PUSH1 0x0 SWAP1 SLOAD SWAP1 PUSH2 0x100 EXP SWAP1 DIV PUSH1 0xFF AND PUSH1 0x1 DUP2 GT ISZERO PUSH2 0x779 JUMPI PUSH2 0x778 PUSH2 0x19E7 JUMP JUMPDEST JUMPDEST PUSH1 0x1 DUP2 GT ISZERO PUSH2 0x78B JUMPI PUSH2 0x78A PUSH2 0x19E7 JUMP JUMPDEST JUMPDEST DUP2 MSTORE POP POP DUP2 MSTORE PUSH1 0x20 ADD SWAP1 PUSH1 0x1 ADD SWAP1 PUSH2 0x6C7 JUMP JUMPDEST POP POP POP POP SWAP1 POP SWAP1 JUMP JUMPDEST PUSH1 0x0 PUSH1 0x2 DUP3 DUP2 SLOAD DUP2 LT PUSH2 0x7BD JUMPI PUSH2 0x7BC PUSH2 0x1B82 JUMP JUMPDEST JUMPDEST SWAP1 PUSH1 0x0 MSTORE PUSH1 0x20 PUSH1 0x0 KECCAK256 SWAP1 PUSH1 0x4 MUL ADD PUSH1 0x0 ADD PUSH1 0x0 SWAP1 SLOAD SWAP1 PUSH2 0x100 EXP SWAP1 DIV PUSH20 0xFFFFFFFFFFFFFFFFFFFFFFFFFFFFFFFFFFFFFFFF AND SWAP1 POP SWAP2 SWAP1 POP JUMP JUMPDEST PUSH1 0x0 PUSH1 0x3 DUP3 DUP2 SLOAD DUP2 LT PUSH2 0x80C JUMPI PUSH2 0x80B PUSH2 0x1B82 JUMP JUMPDEST JUMPDEST SWAP1 PUSH1 0x0 MSTORE PUSH1 0x20 PUSH1 0x0 KECCAK256 SWAP1 PUSH1 0x4 MUL ADD PUSH1 0x0 ADD PUSH1 0x0 SWAP1 SLOAD SWAP1 PUSH2 0x100 EXP SWAP1 DIV PUSH20 0xFFFFFFFFFFFFFFFFFFFFFFFFFFFFFFFFFFFFFFFF AND SWAP1 POP SWAP2 SWAP1 POP JUMP JUMPDEST PUSH1 0x0 DUP2 LT ISZERO PUSH2 0x889 JUMPI PUSH1 0x40 MLOAD PUSH32 0x8C379A000000000000000000000000000000000000000000000000000000000 DUP2 MSTORE PUSH1 0x4 ADD PUSH2 0x880 SWAP1 PUSH2 0x1D87 JUMP JUMPDEST PUSH1 0x40 MLOAD DUP1 SWAP2 SUB SWAP1 REVERT JUMPDEST DUP1 CALLVALUE LT ISZERO PUSH2 0x8CC JUMPI PUSH1 0x40 MLOAD PUSH32 0x8C379A000000000000000000000000000000000000000000000000000000000 DUP2 MSTORE PUSH1 0x4 ADD PUSH2 0x8C3 SWAP1 PUSH2 0x1DF3 JUMP JUMPDEST PUSH1 0x40 MLOAD DUP1 SWAP2 SUB SWAP1 REVERT JUMPDEST PUSH1 0x0 TIMESTAMP SWAP1 POP PUSH1 0x0 PUSH1 0x40 MLOAD DUP1 PUSH1 0x80 ADD PUSH1 0x40 MSTORE DUP1 CALLER PUSH20 0xFFFFFFFFFFFFFFFFFFFFFFFFFFFFFFFFFFFFFFFF AND DUP2 MSTORE PUSH1 0x20 ADD DUP5 DUP2 MSTORE PUSH1 0x20 ADD DUP4 DUP2 MSTORE PUSH1 0x20 ADD PUSH1 0x0 PUSH1 0x1 DUP2 GT ISZERO PUSH2 0x91A JUMPI PUSH2 0x919 PUSH2 0x19E7 JUMP JUMPDEST JUMPDEST DUP2 MSTORE POP SWAP1 POP PUSH1 0x3 DUP2 SWAP1 DUP1 PUSH1 0x1 DUP2 SLOAD ADD DUP1 DUP3 SSTORE DUP1 SWAP2 POP POP PUSH1 0x1 SWAP1 SUB SWAP1 PUSH1 0x0 MSTORE PUSH1 0x20 PUSH1 0x0 KECCAK256 SWAP1 PUSH1 0x4 MUL ADD PUSH1 0x0 SWAP1 SWAP2 SWAP1 SWAP2 SWAP1 SWAP2 POP PUSH1 0x0 DUP3 ADD MLOAD DUP2 PUSH1 0x0 ADD PUSH1 0x0 PUSH2 0x100 EXP DUP2 SLOAD DUP2 PUSH20 0xFFFFFFFFFFFFFFFFFFFFFFFFFFFFFFFFFFFFFFFF MUL NOT AND SWAP1 DUP4 PUSH20 0xFFFFFFFFFFFFFFFFFFFFFFFFFFFFFFFFFFFFFFFF AND MUL OR SWAP1 SSTORE POP PUSH1 0x20 DUP3 ADD MLOAD DUP2 PUSH1 0x1 ADD SSTORE PUSH1 0x40 DUP3 ADD MLOAD DUP2 PUSH1 0x2 ADD SSTORE PUSH1 0x60 DUP3 ADD MLOAD DUP2 PUSH1 0x3 ADD PUSH1 0x0 PUSH2 0x100 EXP DUP2 SLOAD DUP2 PUSH1 0xFF MUL NOT AND SWAP1 DUP4 PUSH1 0x1 DUP2 GT ISZERO PUSH2 0x9D1 JUMPI PUSH2 0x9D0 PUSH2 0x19E7 JUMP JUMPDEST JUMPDEST MUL OR SWAP1 SSTORE POP POP POP PUSH1 0x0 DUP1 SLOAD SWAP1 PUSH2 0x100 EXP SWAP1 DIV PUSH20 0xFFFFFFFFFFFFFFFFFFFFFFFFFFFFFFFFFFFFFFFF AND PUSH20 0xFFFFFFFFFFFFFFFFFFFFFFFFFFFFFFFFFFFFFFFF AND PUSH2 0x8FC PUSH1 0x64 PUSH1 0x1 SLOAD PUSH1 0x64 PUSH2 0xA23 SWAP2 SWAP1 PUSH2 0x1E13 JUMP JUMPDEST CALLVALUE PUSH2 0xA2E SWAP2 SWAP1 PUSH2 0x1E47 JUMP JUMPDEST PUSH2 0xA38 SWAP2 SWAP1 PUSH2 0x1ED0 JUMP JUMPDEST SWAP1 DUP2 ISZERO MUL SWAP1 PUSH1 0x40 MLOAD PUSH1 0x0 PUSH1 0x40 MLOAD DUP1 DUP4 SUB DUP2 DUP6 DUP9 DUP9 CALL SWAP4 POP POP POP POP ISZERO DUP1 ISZERO PUSH2 0xA63 JUMPI RETURNDATASIZE PUSH1 0x0 DUP1 RETURNDATACOPY RETURNDATASIZE PUSH1 0x0 REVERT JUMPDEST POP PUSH32 0xC2125A7F3EDFEFF7A3BBCFE393C5AA3A6589585D4A7EE70DB48C34F67C8209E2 CALLER DUP5 DUP5 PUSH1 0x0 PUSH1 0x40 MLOAD PUSH2 0xA9A SWAP5 SWAP4 SWAP3 SWAP2 SWAP1 PUSH2 0x1F31 JUMP JUMPDEST PUSH1 0x40 MLOAD DUP1 SWAP2 SUB SWAP1 LOG1 POP POP POP JUMP JUMPDEST PUSH1 0x2 DUP2 DUP2 SLOAD DUP2 LT PUSH2 0xABB JUMPI PUSH2 0xABA PUSH2 0x1B82 JUMP JUMPDEST JUMPDEST SWAP1 PUSH1 0x0 MSTORE PUSH1 0x20 PUSH1 0x0 KECCAK256 SWAP1 PUSH1 0x4 MUL ADD PUSH1 0x40 MLOAD DUP1 PUSH1 0x80 ADD PUSH1 0x40 MSTORE SWAP1 DUP2 PUSH1 0x0 DUP3 ADD PUSH1 0x0 SWAP1 SLOAD SWAP1 PUSH2 0x100 EXP SWAP1 DIV PUSH20 0xFFFFFFFFFFFFFFFFFFFFFFFFFFFFFFFFFFFFFFFF AND PUSH20 0xFFFFFFFFFFFFFFFFFFFFFFFFFFFFFFFFFFFFFFFF AND PUSH20 0xFFFFFFFFFFFFFFFFFFFFFFFFFFFFFFFFFFFFFFFF AND DUP2 MSTORE PUSH1 0x20 ADD PUSH1 0x1 DUP3 ADD SLOAD DUP2 MSTORE PUSH1 0x20 ADD PUSH1 0x2 DUP3 ADD SLOAD DUP2 MSTORE PUSH1 0x20 ADD PUSH1 0x3 DUP3 ADD PUSH1 0x0 SWAP1 SLOAD SWAP1 PUSH2 0x100 EXP SWAP1 DIV PUSH1 0xFF AND PUSH1 0x1 DUP2 GT ISZERO PUSH2 0xB63 JUMPI PUSH2 0xB62 PUSH2 0x19E7 JUMP JUMPDEST JUMPDEST PUSH1 0x1 DUP2 GT ISZERO PUSH2 0xB75 JUMPI PUSH2 0xB74 PUSH2 0x19E7 JUMP JUMPDEST JUMPDEST DUP2 MSTORE POP POP PUSH1 0x0 PUSH1 0x1 DUP2 GT ISZERO PUSH2 0xB8D JUMPI PUSH2 0xB8C PUSH2 0x19E7 JUMP JUMPDEST JUMPDEST DUP2 PUSH1 0x60 ADD MLOAD PUSH1 0x1 DUP2 GT ISZERO PUSH2 0xBA4 JUMPI PUSH2 0xBA3 PUSH2 0x19E7 JUMP JUMPDEST JUMPDEST EQ PUSH2 0xBE4 JUMPI PUSH1 0x40 MLOAD PUSH32 0x8C379A000000000000000000000000000000000000000000000000000000000 DUP2 MSTORE PUSH1 0x4 ADD PUSH2 0xBDB SWAP1 PUSH2 0x1C85 JUMP JUMPDEST PUSH1 0x40 MLOAD DUP1 SWAP2 SUB SWAP1 REVERT JUMPDEST PUSH1 0x2 DUP3 DUP2 SLOAD DUP2 LT PUSH2 0xBF8 JUMPI PUSH2 0xBF7 PUSH2 0x1B82 JUMP JUMPDEST JUMPDEST SWAP1 PUSH1 0x0 MSTORE PUSH1 0x20 PUSH1 0x0 KECCAK256 SWAP1 PUSH1 0x4 MUL ADD PUSH1 0x40 MLOAD DUP1 PUSH1 0x80 ADD PUSH1 0x40 MSTORE SWAP1 DUP2 PUSH1 0x0 DUP3 ADD PUSH1 0x0 SWAP1 SLOAD SWAP1 PUSH2 0x100 EXP SWAP1 DIV PUSH20 0xFFFFFFFFFFFFFFFFFFFFFFFFFFFFFFFFFFFFFFFF AND PUSH20 0xFFFFFFFFFFFFFFFFFFFFFFFFFFFFFFFFFFFFFFFF AND PUSH20 0xFFFFFFFFFFFFFFFFFFFFFFFFFFFFFFFFFFFFFFFF AND DUP2 MSTORE PUSH1 0x20 ADD PUSH1 0x1 DUP3 ADD SLOAD DUP2 MSTORE PUSH1 0x20 ADD PUSH1 0x2 DUP3 ADD SLOAD DUP2 MSTORE PUSH1 0x20 ADD PUSH1 0x3 DUP3 ADD PUSH1 0x0 SWAP1 SLOAD SWAP1 PUSH2 0x100 EXP SWAP1 DIV PUSH1 0xFF AND PUSH1 0x1 DUP2 GT ISZERO PUSH2 0xCA0 JUMPI PUSH2 0xC9F PUSH2 0x19E7 JUMP JUMPDEST JUMPDEST PUSH1 0x1 DUP2 GT ISZERO PUSH2 0xCB2 JUMPI PUSH2 0xCB1 PUSH2 0x19E7 JUMP JUMPDEST JUMPDEST DUP2 MSTORE POP POP CALLER DUP1 PUSH20 0xFFFFFFFFFFFFFFFFFFFFFFFFFFFFFFFFFFFFFFFF AND DUP3 PUSH1 0x0 ADD MLOAD PUSH20 0xFFFFFFFFFFFFFFFFFFFFFFFFFFFFFFFFFFFFFFFF AND EQ PUSH2 0xD29 JUMPI PUSH1 0x40 MLOAD PUSH32 0x8C379A000000000000000000000000000000000000000000000000000000000 DUP2 MSTORE PUSH1 0x4 ADD PUSH2 0xD20 SWAP1 PUSH2 0x1CF1 JUMP JUMPDEST PUSH1 0x40 MLOAD DUP1 SWAP2 SUB SWAP1 REVERT JUMPDEST PUSH1 0x2 DUP5 DUP2 SLOAD DUP2 LT PUSH2 0xD3D JUMPI PUSH2 0xD3C PUSH2 0x1B82 JUMP JUMPDEST JUMPDEST SWAP1 PUSH1 0x0 MSTORE PUSH1 0x20 PUSH1 0x0 KECCAK256 SWAP1 PUSH1 0x4 MUL ADD PUSH1 0x0 DUP1 DUP3 ADD PUSH1 0x0 PUSH2 0x100 EXP DUP2 SLOAD SWAP1 PUSH20 0xFFFFFFFFFFFFFFFFFFFFFFFFFFFFFFFFFFFFFFFF MUL NOT AND SWAP1 SSTORE PUSH1 0x1 DUP3 ADD PUSH1 0x0 SWAP1 SSTORE PUSH1 0x2 DUP3 ADD PUSH1 0x0 SWAP1 SSTORE PUSH1 0x3 DUP3 ADD PUSH1 0x0 PUSH2 0x100 EXP DUP2 SLOAD SWAP1 PUSH1 0xFF MUL NOT AND SWAP1 SSTORE POP POP PUSH2 0xDA1 PUSH2 0x13CD JUMP JUMPDEST PUSH32 0xC845A6832AFA0A4048DD70BBBA2186093508A6B63A8D5D70A508F819FEF257F8 DUP5 PUSH1 0x40 MLOAD PUSH2 0xDD0 SWAP2 SWAP1 PUSH2 0x1D20 JUMP JUMPDEST PUSH1 0x40 MLOAD DUP1 SWAP2 SUB SWAP1 LOG1 POP POP POP POP JUMP JUMPDEST PUSH1 0x0 DUP2 LT ISZERO PUSH2 0xE22 JUMPI PUSH1 0x40 MLOAD PUSH32 0x8C379A000000000000000000000000000000000000000000000000000000000 DUP2 MSTORE PUSH1 0x4 ADD PUSH2 0xE19 SWAP1 PUSH2 0x1D87 JUMP JUMPDEST PUSH1 0x40 MLOAD DUP1 SWAP2 SUB SWAP1 REVERT JUMPDEST DUP1 CALLVALUE LT ISZERO PUSH2 0xE65 JUMPI PUSH1 0x40 MLOAD PUSH32 0x8C379A000000000000000000000000000000000000000000000000000000000 DUP2 MSTORE PUSH1 0x4 ADD PUSH2 0xE5C SWAP1 PUSH2 0x1FC2 JUMP JUMPDEST PUSH1 0x40 MLOAD DUP1 SWAP2 SUB SWAP1 REVERT JUMPDEST PUSH1 0x0 TIMESTAMP SWAP1 POP PUSH1 0x0 PUSH1 0x40 MLOAD DUP1 PUSH1 0x80 ADD PUSH1 0x40 MSTORE DUP1 CALLER PUSH20 0xFFFFFFFFFFFFFFFFFFFFFFFFFFFFFFFFFFFFFFFF AND DUP2 MSTORE PUSH1 0x20 ADD DUP5 DUP2 MSTORE PUSH1 0x20 ADD DUP4 DUP2 MSTORE PUSH1 0x20 ADD PUSH1 0x0 PUSH1 0x1 DUP2 GT ISZERO PUSH2 0xEB3 JUMPI PUSH2 0xEB2 PUSH2 0x19E7 JUMP JUMPDEST JUMPDEST DUP2 MSTORE POP SWAP1 POP PUSH1 0x2 DUP2 SWAP1 DUP1 PUSH1 0x1 DUP2 SLOAD ADD DUP1 DUP3 SSTORE DUP1 SWAP2 POP POP PUSH1 0x1 SWAP1 SUB SWAP1 PUSH1 0x0 MSTORE PUSH1 0x20 PUSH1 0x0 KECCAK256 SWAP1 PUSH1 0x4 MUL ADD PUSH1 0x0 SWAP1 SWAP2 SWAP1 SWAP2 SWAP1 SWAP2 POP PUSH1 0x0 DUP3 ADD MLOAD DUP2 PUSH1 0x0 ADD PUSH1 0x0 PUSH2 0x100 EXP DUP2 SLOAD DUP2 PUSH20 0xFFFFFFFFFFFFFFFFFFFFFFFFFFFFFFFFFFFFFFFF MUL NOT AND SWAP1 DUP4 PUSH20 0xFFFFFFFFFFFFFFFFFFFFFFFFFFFFFFFFFFFFFFFF AND MUL OR SWAP1 SSTORE POP PUSH1 0x20 DUP3 ADD MLOAD DUP2 PUSH1 0x1 ADD SSTORE PUSH1 0x40 DUP3 ADD MLOAD DUP2 PUSH1 0x2 ADD SSTORE PUSH1 0x60 DUP3 ADD MLOAD DUP2 PUSH1 0x3 ADD PUSH1 0x0 PUSH2 0x100 EXP DUP2 SLOAD DUP2 PUSH1 0xFF MUL NOT AND SWAP1 DUP4 PUSH1 0x1 DUP2 GT ISZERO PUSH2 0xF6A JUMPI PUSH2 0xF69 PUSH2 0x19E7 JUMP JUMPDEST JUMPDEST MUL OR SWAP1 SSTORE POP POP POP PUSH1 0x0 DUP1 SLOAD SWAP1 PUSH2 0x100 EXP SWAP1 DIV PUSH20 0xFFFFFFFFFFFFFFFFFFFFFFFFFFFFFFFFFFFFFFFF AND PUSH20 0xFFFFFFFFFFFFFFFFFFFFFFFFFFFFFFFFFFFFFFFF AND PUSH2 0x8FC PUSH1 0x64 PUSH1 0x1 SLOAD PUSH1 0x64 PUSH2 0xFBC SWAP2 SWAP1 PUSH2 0x1E13 JUMP JUMPDEST CALLVALUE PUSH2 0xFC7 SWAP2 SWAP1 PUSH2 0x1E47 JUMP JUMPDEST PUSH2 0xFD1 SWAP2 SWAP1 PUSH2 0x1ED0 JUMP JUMPDEST SWAP1 DUP2 ISZERO MUL SWAP1 PUSH1 0x40 MLOAD PUSH1 0x0 PUSH1 0x40 MLOAD DUP1 DUP4 SUB DUP2 DUP6 DUP9 DUP9 CALL SWAP4 POP POP POP POP ISZERO DUP1 ISZERO PUSH2 0xFFC JUMPI RETURNDATASIZE PUSH1 0x0 DUP1 RETURNDATACOPY RETURNDATASIZE PUSH1 0x0 REVERT JUMPDEST POP PUSH32 0xA64806D6D5D480697A0B11C92B915A4FF7B93C0BE28171D65D30041A0C360D04 CALLER DUP5 DUP5 PUSH1 0x0 PUSH1 0x40 MLOAD PUSH2 0x1033 SWAP5 SWAP4 SWAP3 SWAP2 SWAP1 PUSH2 0x1F31 JUMP JUMPDEST PUSH1 0x40 MLOAD DUP1 SWAP2 SUB SWAP1 LOG1 POP POP POP JUMP JUMPDEST PUSH1 0x60 PUSH1 0x3 DUP1 SLOAD DUP1 PUSH1 0x20 MUL PUSH1 0x20 ADD PUSH1 0x40 MLOAD SWAP1 DUP2 ADD PUSH1 0x40 MSTORE DUP1 SWAP3 SWAP2 SWAP1 DUP2 DUP2 MSTORE PUSH1 0x20 ADD PUSH1 0x0 SWAP1 JUMPDEST DUP3 DUP3 LT ISZERO PUSH2 0x113B JUMPI DUP4 DUP3 SWAP1 PUSH1 0x0 MSTORE PUSH1 0x20 PUSH1 0x0 KECCAK256 SWAP1 PUSH1 0x4 MUL ADD PUSH1 0x40 MLOAD DUP1 PUSH1 0x80 ADD PUSH1 0x40 MSTORE SWAP1 DUP2 PUSH1 0x0 DUP3 ADD PUSH1 0x0 SWAP1 SLOAD SWAP1 PUSH2 0x100 EXP SWAP1 DIV PUSH20 0xFFFFFFFFFFFFFFFFFFFFFFFFFFFFFFFFFFFFFFFF AND PUSH20 0xFFFFFFFFFFFFFFFFFFFFFFFFFFFFFFFFFFFFFFFF AND PUSH20 0xFFFFFFFFFFFFFFFFFFFFFFFFFFFFFFFFFFFFFFFF AND DUP2 MSTORE PUSH1 0x20 ADD PUSH1 0x1 DUP3 ADD SLOAD DUP2 MSTORE PUSH1 0x20 ADD PUSH1 0x2 DUP3 ADD SLOAD DUP2 MSTORE PUSH1 0x20 ADD PUSH1 0x3 DUP3 ADD PUSH1 0x0 SWAP1 SLOAD SWAP1 PUSH2 0x100 EXP SWAP1 DIV PUSH1 0xFF AND PUSH1 0x1 DUP2 GT ISZERO PUSH2 0x1116 JUMPI PUSH2 0x1115 PUSH2 0x19E7 JUMP JUMPDEST JUMPDEST PUSH1 0x1 DUP2 GT ISZERO PUSH2 0x1128 JUMPI PUSH2 0x1127 PUSH2 0x19E7 JUMP JUMPDEST JUMPDEST DUP2 MSTORE POP POP DUP2 MSTORE PUSH1 0x20 ADD SWAP1 PUSH1 0x1 ADD SWAP1 PUSH2 0x1064 JUMP JUMPDEST POP POP POP POP SWAP1 POP SWAP1 JUMP JUMPDEST PUSH1 0x60 PUSH2 0x114E PUSH2 0x126A JUMP JUMPDEST PUSH1 0x0 JUMPDEST PUSH1 0x2 DUP1 SLOAD SWAP1 POP DUP2 LT ISZERO PUSH2 0x1213 JUMPI CALLER PUSH20 0xFFFFFFFFFFFFFFFFFFFFFFFFFFFFFFFFFFFFFFFF AND PUSH1 0x2 DUP3 DUP2 SLOAD DUP2 LT PUSH2 0x1189 JUMPI PUSH2 0x1188 PUSH2 0x1B82 JUMP JUMPDEST JUMPDEST SWAP1 PUSH1 0x0 MSTORE PUSH1 0x20 PUSH1 0x0 KECCAK256 SWAP1 PUSH1 0x4 MUL ADD PUSH1 0x0 ADD PUSH1 0x0 SWAP1 SLOAD SWAP1 PUSH2 0x100 EXP SWAP1 DIV PUSH20 0xFFFFFFFFFFFFFFFFFFFFFFFFFFFFFFFFFFFFFFFF AND PUSH20 0xFFFFFFFFFFFFFFFFFFFFFFFFFFFFFFFFFFFFFFFF AND SUB PUSH2 0x1200 JUMPI PUSH1 0x4 DUP2 SWAP1 DUP1 PUSH1 0x1 DUP2 SLOAD ADD DUP1 DUP3 SSTORE DUP1 SWAP2 POP POP PUSH1 0x1 SWAP1 SUB SWAP1 PUSH1 0x0 MSTORE PUSH1 0x20 PUSH1 0x0 KECCAK256 ADD PUSH1 0x0 SWAP1 SWAP2 SWAP1 SWAP2 SWAP1 SWAP2 POP SSTORE JUMPDEST DUP1 DUP1 PUSH2 0x120B SWAP1 PUSH2 0x1BE0 JUMP JUMPDEST SWAP2 POP POP PUSH2 0x1151 JUMP JUMPDEST POP PUSH1 0x4 DUP1 SLOAD DUP1 PUSH1 0x20 MUL PUSH1 0x20 ADD PUSH1 0x40 MLOAD SWAP1 DUP2 ADD PUSH1 0x40 MSTORE DUP1 SWAP3 SWAP2 SWAP1 DUP2 DUP2 MSTORE PUSH1 0x20 ADD DUP3 DUP1 SLOAD DUP1 ISZERO PUSH2 0x1260 JUMPI PUSH1 0x20 MUL DUP3 ADD SWAP2 SWAP1 PUSH1 0x0 MSTORE PUSH1 0x20 PUSH1 0x0 KECCAK256 SWAP1 JUMPDEST DUP2 SLOAD DUP2 MSTORE PUSH1 0x20 ADD SWAP1 PUSH1 0x1 ADD SWAP1 DUP1 DUP4 GT PUSH2 0x124C JUMPI JUMPDEST POP POP POP POP POP SWAP1 POP SWAP1 JUMP JUMPDEST PUSH1 0x0 JUMPDEST PUSH1 0x4 DUP1 SLOAD SWAP1 POP DUP2 LT ISZERO PUSH2 0x12AF JUMPI PUSH1 0x4 DUP2 DUP2 SLOAD DUP2 LT PUSH2 0x128E JUMPI PUSH2 0x128D PUSH2 0x1B82 JUMP JUMPDEST JUMPDEST SWAP1 PUSH1 0x0 MSTORE PUSH1 0x20 PUSH1 0x0 KECCAK256 ADD PUSH1 0x0 SWAP1 SSTORE DUP1 DUP1 PUSH2 0x12A7 SWAP1 PUSH2 0x1BE0 JUMP JUMPDEST SWAP2 POP POP PUSH2 0x126D JUMP JUMPDEST POP JUMP JUMPDEST PUSH2 0x13CB PUSH1 0x2 DUP1 SLOAD DUP1 PUSH1 0x20 MUL PUSH1 0x20 ADD PUSH1 0x40 MLOAD SWAP1 DUP2 ADD PUSH1 0x40 MSTORE DUP1 SWAP3 SWAP2 SWAP1 DUP2 DUP2 MSTORE PUSH1 0x20 ADD PUSH1 0x0 SWAP1 JUMPDEST DUP3 DUP3 LT ISZERO PUSH2 0x13AE JUMPI DUP4 DUP3 SWAP1 PUSH1 0x0 MSTORE PUSH1 0x20 PUSH1 0x0 KECCAK256 SWAP1 PUSH1 0x4 MUL ADD PUSH1 0x40 MLOAD DUP1 PUSH1 0x80 ADD PUSH1 0x40 MSTORE SWAP1 DUP2 PUSH1 0x0 DUP3 ADD PUSH1 0x0 SWAP1 SLOAD SWAP1 PUSH2 0x100 EXP SWAP1 DIV PUSH20 0xFFFFFFFFFFFFFFFFFFFFFFFFFFFFFFFFFFFFFFFF AND PUSH20 0xFFFFFFFFFFFFFFFFFFFFFFFFFFFFFFFFFFFFFFFF AND PUSH20 0xFFFFFFFFFFFFFFFFFFFFFFFFFFFFFFFFFFFFFFFF AND DUP2 MSTORE PUSH1 0x20 ADD PUSH1 0x1 DUP3 ADD SLOAD DUP2 MSTORE PUSH1 0x20 ADD PUSH1 0x2 DUP3 ADD SLOAD DUP2 MSTORE PUSH1 0x20 ADD PUSH1 0x3 DUP3 ADD PUSH1 0x0 SWAP1 SLOAD SWAP1 PUSH2 0x100 EXP SWAP1 DIV PUSH1 0xFF AND PUSH1 0x1 DUP2 GT ISZERO PUSH2 0x1389 JUMPI PUSH2 0x1388 PUSH2 0x19E7 JUMP JUMPDEST JUMPDEST PUSH1 0x1 DUP2 GT ISZERO PUSH2 0x139B JUMPI PUSH2 0x139A PUSH2 0x19E7 JUMP JUMPDEST JUMPDEST DUP2 MSTORE POP POP DUP2 MSTORE PUSH1 0x20 ADD SWAP1 PUSH1 0x1 ADD SWAP1 PUSH2 0x12D7 JUMP JUMPDEST POP POP POP POP PUSH1 0x0 PUSH1 0x1 PUSH1 0x2 DUP1 SLOAD SWAP1 POP PUSH2 0x13C6 SWAP2 SWAP1 PUSH2 0x1E13 JUMP JUMPDEST PUSH2 0x14E8 JUMP JUMPDEST JUMP JUMPDEST PUSH2 0x14E6 PUSH1 0x2 DUP1 SLOAD DUP1 PUSH1 0x20 MUL PUSH1 0x20 ADD PUSH1 0x40 MLOAD SWAP1 DUP2 ADD PUSH1 0x40 MSTORE DUP1 SWAP3 SWAP2 SWAP1 DUP2 DUP2 MSTORE PUSH1 0x20 ADD PUSH1 0x0 SWAP1 JUMPDEST DUP3 DUP3 LT ISZERO PUSH2 0x14C9 JUMPI DUP4 DUP3 SWAP1 PUSH1 0x0 MSTORE PUSH1 0x20 PUSH1 0x0 KECCAK256 SWAP1 PUSH1 0x4 MUL ADD PUSH1 0x40 MLOAD DUP1 PUSH1 0x80 ADD PUSH1 0x40 MSTORE SWAP1 DUP2 PUSH1 0x0 DUP3 ADD PUSH1 0x0 SWAP1 SLOAD SWAP1 PUSH2 0x100 EXP SWAP1 DIV PUSH20 0xFFFFFFFFFFFFFFFFFFFFFFFFFFFFFFFFFFFFFFFF AND PUSH20 0xFFFFFFFFFFFFFFFFFFFFFFFFFFFFFFFFFFFFFFFF AND PUSH20 0xFFFFFFFFFFFFFFFFFFFFFFFFFFFFFFFFFFFFFFFF AND DUP2 MSTORE PUSH1 0x20 ADD PUSH1 0x1 DUP3 ADD SLOAD DUP2 MSTORE PUSH1 0x20 ADD PUSH1 0x2 DUP3 ADD SLOAD DUP2 MSTORE PUSH1 0x20 ADD PUSH1 0x3 DUP3 ADD PUSH1 0x0 SWAP1 SLOAD SWAP1 PUSH2 0x100 EXP SWAP1 DIV PUSH1 0xFF AND PUSH1 0x1 DUP2 GT ISZERO PUSH2 0x14A4 JUMPI PUSH2 0x14A3 PUSH2 0x19E7 JUMP JUMPDEST JUMPDEST PUSH1 0x1 DUP2 GT ISZERO PUSH2 0x14B6 JUMPI PUSH2 0x14B5 PUSH2 0x19E7 JUMP JUMPDEST JUMPDEST DUP2 MSTORE POP POP DUP2 MSTORE PUSH1 0x20 ADD SWAP1 PUSH1 0x1 ADD SWAP1 PUSH2 0x13F2 JUMP JUMPDEST POP POP POP POP PUSH1 0x0 PUSH1 0x1 PUSH1 0x2 DUP1 SLOAD SWAP1 POP PUSH2 0x14E1 SWAP2 SWAP1 PUSH2 0x1E13 JUMP JUMPDEST PUSH2 0x168D JUMP JUMPDEST JUMP JUMPDEST PUSH1 0x0 DUP3 SWAP1 POP PUSH1 0x0 DUP3 SWAP1 POP DUP1 DUP3 SUB PUSH2 0x1500 JUMPI POP POP PUSH2 0x1688 JUMP JUMPDEST PUSH1 0x0 DUP6 PUSH1 0x2 DUP7 DUP7 PUSH2 0x1511 SWAP2 SWAP1 PUSH2 0x1FEC JUMP JUMPDEST PUSH2 0x151B SWAP2 SWAP1 PUSH2 0x2080 JUMP JUMPDEST DUP7 PUSH2 0x1526 SWAP2 SWAP1 PUSH2 0x20EA JUMP JUMPDEST DUP2 MLOAD DUP2 LT PUSH2 0x1537 JUMPI PUSH2 0x1536 PUSH2 0x1B82 JUMP JUMPDEST JUMPDEST PUSH1 0x20 MUL PUSH1 0x20 ADD ADD MLOAD PUSH1 0x40 ADD MLOAD SWAP1 POP JUMPDEST DUP2 DUP4 SGT PUSH2 0x165C JUMPI JUMPDEST DUP1 DUP7 DUP5 DUP2 MLOAD DUP2 LT PUSH2 0x1562 JUMPI PUSH2 0x1561 PUSH2 0x1B82 JUMP JUMPDEST JUMPDEST PUSH1 0x20 MUL PUSH1 0x20 ADD ADD MLOAD PUSH1 0x40 ADD MLOAD GT ISZERO PUSH2 0x1587 JUMPI DUP3 DUP1 PUSH2 0x157F SWAP1 PUSH2 0x217E JUMP JUMPDEST SWAP4 POP POP PUSH2 0x154E JUMP JUMPDEST JUMPDEST DUP6 DUP3 DUP2 MLOAD DUP2 LT PUSH2 0x159B JUMPI PUSH2 0x159A PUSH2 0x1B82 JUMP JUMPDEST JUMPDEST PUSH1 0x20 MUL PUSH1 0x20 ADD ADD MLOAD PUSH1 0x40 ADD MLOAD DUP2 GT ISZERO PUSH2 0x15C1 JUMPI DUP2 DUP1 PUSH2 0x15B9 SWAP1 PUSH2 0x21C6 JUMP JUMPDEST SWAP3 POP POP PUSH2 0x1588 JUMP JUMPDEST DUP2 DUP4 SGT PUSH2 0x1657 JUMPI DUP6 DUP3 DUP2 MLOAD DUP2 LT PUSH2 0x15DB JUMPI PUSH2 0x15DA PUSH2 0x1B82 JUMP JUMPDEST JUMPDEST PUSH1 0x20 MUL PUSH1 0x20 ADD ADD MLOAD DUP7 DUP5 DUP2 MLOAD DUP2 LT PUSH2 0x15F6 JUMPI PUSH2 0x15F5 PUSH2 0x1B82 JUMP JUMPDEST JUMPDEST PUSH1 0x20 MUL PUSH1 0x20 ADD ADD MLOAD DUP8 DUP6 DUP2 MLOAD DUP2 LT PUSH2 0x1611 JUMPI PUSH2 0x1610 PUSH2 0x1B82 JUMP JUMPDEST JUMPDEST PUSH1 0x20 MUL PUSH1 0x20 ADD ADD DUP9 DUP6 DUP2 MLOAD DUP2 LT PUSH2 0x162B JUMPI PUSH2 0x162A PUSH2 0x1B82 JUMP JUMPDEST JUMPDEST PUSH1 0x20 MUL PUSH1 0x20 ADD ADD DUP3 SWAP1 MSTORE DUP3 SWAP1 MSTORE POP POP DUP3 DUP1 PUSH2 0x1645 SWAP1 PUSH2 0x217E JUMP JUMPDEST SWAP4 POP POP DUP2 DUP1 PUSH2 0x1653 SWAP1 PUSH2 0x21C6 JUMP JUMPDEST SWAP3 POP POP JUMPDEST PUSH2 0x1546 JUMP JUMPDEST DUP2 DUP6 SLT ISZERO PUSH2 0x1670 JUMPI PUSH2 0x166F DUP7 DUP7 DUP5 PUSH2 0x14E8 JUMP JUMPDEST JUMPDEST DUP4 DUP4 SLT ISZERO PUSH2 0x1684 JUMPI PUSH2 0x1683 DUP7 DUP5 DUP7 PUSH2 0x14E8 JUMP JUMPDEST JUMPDEST POP POP POP JUMPDEST POP POP POP JUMP JUMPDEST PUSH1 0x0 DUP3 SWAP1 POP PUSH1 0x0 DUP3 SWAP1 POP DUP1 DUP3 SUB PUSH2 0x16A5 JUMPI POP POP PUSH2 0x182D JUMP JUMPDEST PUSH1 0x0 DUP6 PUSH1 0x2 DUP7 DUP7 PUSH2 0x16B6 SWAP2 SWAP1 PUSH2 0x1FEC JUMP JUMPDEST PUSH2 0x16C0 SWAP2 SWAP1 PUSH2 0x2080 JUMP JUMPDEST DUP7 PUSH2 0x16CB SWAP2 SWAP1 PUSH2 0x20EA JUMP JUMPDEST DUP2 MLOAD DUP2 LT PUSH2 0x16DC JUMPI PUSH2 0x16DB PUSH2 0x1B82 JUMP JUMPDEST JUMPDEST PUSH1 0x20 MUL PUSH1 0x20 ADD ADD MLOAD PUSH1 0x40 ADD MLOAD SWAP1 POP JUMPDEST DUP2 DUP4 SGT PUSH2 0x1801 JUMPI JUMPDEST DUP1 DUP7 DUP5 DUP2 MLOAD DUP2 LT PUSH2 0x1707 JUMPI PUSH2 0x1706 PUSH2 0x1B82 JUMP JUMPDEST JUMPDEST PUSH1 0x20 MUL PUSH1 0x20 ADD ADD MLOAD PUSH1 0x40 ADD MLOAD LT ISZERO PUSH2 0x172C JUMPI DUP3 DUP1 PUSH2 0x1724 SWAP1 PUSH2 0x217E JUMP JUMPDEST SWAP4 POP POP PUSH2 0x16F3 JUMP JUMPDEST JUMPDEST DUP6 DUP3 DUP2 MLOAD DUP2 LT PUSH2 0x1740 JUMPI PUSH2 0x173F PUSH2 0x1B82 JUMP JUMPDEST JUMPDEST PUSH1 0x20 MUL PUSH1 0x20 ADD ADD MLOAD PUSH1 0x40 ADD MLOAD DUP2 LT ISZERO PUSH2 0x1766 JUMPI DUP2 DUP1 PUSH2 0x175E SWAP1 PUSH2 0x21C6 JUMP JUMPDEST SWAP3 POP POP PUSH2 0x172D JUMP JUMPDEST DUP2 DUP4 SGT PUSH2 0x17FC JUMPI DUP6 DUP3 DUP2 MLOAD DUP2 LT PUSH2 0x1780 JUMPI PUSH2 0x177F PUSH2 0x1B82 JUMP JUMPDEST JUMPDEST PUSH1 0x20 MUL PUSH1 0x20 ADD ADD MLOAD DUP7 DUP5 DUP2 MLOAD DUP2 LT PUSH2 0x179B JUMPI PUSH2 0x179A PUSH2 0x1B82 JUMP JUMPDEST JUMPDEST PUSH1 0x20 MUL PUSH1 0x20 ADD ADD MLOAD DUP8 DUP6 DUP2 MLOAD DUP2 LT PUSH2 0x17B6 JUMPI PUSH2 0x17B5 PUSH2 0x1B82 JUMP JUMPDEST JUMPDEST PUSH1 0x20 MUL PUSH1 0x20 ADD ADD DUP9 DUP6 DUP2 MLOAD DUP2 LT PUSH2 0x17D0 JUMPI PUSH2 0x17CF PUSH2 0x1B82 JUMP JUMPDEST JUMPDEST PUSH1 0x20 MUL PUSH1 0x20 ADD ADD DUP3 SWAP1 MSTORE DUP3 SWAP1 MSTORE POP POP DUP3 DUP1 PUSH2 0x17EA SWAP1 PUSH2 0x217E JUMP JUMPDEST SWAP4 POP POP DUP2 DUP1 PUSH2 0x17F8 SWAP1 PUSH2 0x21C6 JUMP JUMPDEST SWAP3 POP POP JUMPDEST PUSH2 0x16EB JUMP JUMPDEST DUP2 DUP6 SLT ISZERO PUSH2 0x1815 JUMPI PUSH2 0x1814 DUP7 DUP7 DUP5 PUSH2 0x168D JUMP JUMPDEST JUMPDEST DUP4 DUP4 SLT ISZERO PUSH2 0x1829 JUMPI PUSH2 0x1828 DUP7 DUP5 DUP7 PUSH2 0x168D JUMP JUMPDEST JUMPDEST POP POP POP JUMPDEST POP POP POP JUMP JUMPDEST PUSH1 0x0 DUP2 MLOAD SWAP1 POP SWAP2 SWAP1 POP JUMP JUMPDEST PUSH1 0x0 DUP3 DUP3 MSTORE PUSH1 0x20 DUP3 ADD SWAP1 POP SWAP3 SWAP2 POP POP JUMP JUMPDEST PUSH1 0x0 DUP2 SWAP1 POP PUSH1 0x20 DUP3 ADD SWAP1 POP SWAP2 SWAP1 POP JUMP JUMPDEST PUSH1 0x0 DUP2 SWAP1 POP SWAP2 SWAP1 POP JUMP JUMPDEST PUSH2 0x1871 DUP2 PUSH2 0x185E JUMP JUMPDEST DUP3 MSTORE POP POP JUMP JUMPDEST PUSH1 0x0 PUSH2 0x1883 DUP4 DUP4 PUSH2 0x1868 JUMP JUMPDEST PUSH1 0x20 DUP4 ADD SWAP1 POP SWAP3 SWAP2 POP POP JUMP JUMPDEST PUSH1 0x0 PUSH1 0x20 DUP3 ADD SWAP1 POP SWAP2 SWAP1 POP JUMP JUMPDEST PUSH1 0x0 PUSH2 0x18A7 DUP3 PUSH2 0x1832 JUMP JUMPDEST PUSH2 0x18B1 DUP2 DUP6 PUSH2 0x183D JUMP JUMPDEST SWAP4 POP PUSH2 0x18BC DUP4 PUSH2 0x184E JUMP JUMPDEST DUP1 PUSH1 0x0 JUMPDEST DUP4 DUP2 LT ISZERO PUSH2 0x18ED JUMPI DUP2 MLOAD PUSH2 0x18D4 DUP9 DUP3 PUSH2 0x1877 JUMP JUMPDEST SWAP8 POP PUSH2 0x18DF DUP4 PUSH2 0x188F JUMP JUMPDEST SWAP3 POP POP PUSH1 0x1 DUP2 ADD SWAP1 POP PUSH2 0x18C0 JUMP JUMPDEST POP DUP6 SWAP4 POP POP POP POP SWAP3 SWAP2 POP POP JUMP JUMPDEST PUSH1 0x0 PUSH1 0x20 DUP3 ADD SWAP1 POP DUP2 DUP2 SUB PUSH1 0x0 DUP4 ADD MSTORE PUSH2 0x1914 DUP2 DUP5 PUSH2 0x189C JUMP JUMPDEST SWAP1 POP SWAP3 SWAP2 POP POP JUMP JUMPDEST PUSH1 0x0 DUP1 REVERT JUMPDEST PUSH2 0x192A DUP2 PUSH2 0x185E JUMP JUMPDEST DUP2 EQ PUSH2 0x1935 JUMPI PUSH1 0x0 DUP1 REVERT JUMPDEST POP JUMP JUMPDEST PUSH1 0x0 DUP2 CALLDATALOAD SWAP1 POP PUSH2 0x1947 DUP2 PUSH2 0x1921 JUMP JUMPDEST SWAP3 SWAP2 POP POP JUMP JUMPDEST PUSH1 0x0 PUSH1 0x20 DUP3 DUP5 SUB SLT ISZERO PUSH2 0x1963 JUMPI PUSH2 0x1962 PUSH2 0x191C JUMP JUMPDEST JUMPDEST PUSH1 0x0 PUSH2 0x1971 DUP5 DUP3 DUP6 ADD PUSH2 0x1938 JUMP JUMPDEST SWAP2 POP POP SWAP3 SWAP2 POP POP JUMP JUMPDEST PUSH1 0x0 DUP2 MLOAD SWAP1 POP SWAP2 SWAP1 POP JUMP JUMPDEST PUSH1 0x0 DUP3 DUP3 MSTORE PUSH1 0x20 DUP3 ADD SWAP1 POP SWAP3 SWAP2 POP POP JUMP JUMPDEST PUSH1 0x0 DUP2 SWAP1 POP PUSH1 0x20 DUP3 ADD SWAP1 POP SWAP2 SWAP1 POP JUMP JUMPDEST PUSH1 0x0 PUSH20 0xFFFFFFFFFFFFFFFFFFFFFFFFFFFFFFFFFFFFFFFF DUP3 AND SWAP1 POP SWAP2 SWAP1 POP JUMP JUMPDEST PUSH1 0x0 PUSH2 0x19D1 DUP3 PUSH2 0x19A6 JUMP JUMPDEST SWAP1 POP SWAP2 SWAP1 POP JUMP JUMPDEST PUSH2 0x19E1 DUP2 PUSH2 0x19C6 JUMP JUMPDEST DUP3 MSTORE POP POP JUMP JUMPDEST PUSH32 0x4E487B7100000000000000000000000000000000000000000000000000000000 PUSH1 0x0 MSTORE PUSH1 0x21 PUSH1 0x4 MSTORE PUSH1 0x24 PUSH1 0x0 REVERT JUMPDEST PUSH1 0x2 DUP2 LT PUSH2 0x1A27 JUMPI PUSH2 0x1A26 PUSH2 0x19E7 JUMP JUMPDEST JUMPDEST POP JUMP JUMPDEST PUSH1 0x0 DUP2 SWAP1 POP PUSH2 0x1A38 DUP3 PUSH2 0x1A16 JUMP JUMPDEST SWAP2 SWAP1 POP JUMP JUMPDEST PUSH1 0x0 PUSH2 0x1A48 DUP3 PUSH2 0x1A2A JUMP JUMPDEST SWAP1 POP SWAP2 SWAP1 POP JUMP JUMPDEST PUSH2 0x1A58 DUP2 PUSH2 0x1A3D JUMP JUMPDEST DUP3 MSTORE POP POP JUMP JUMPDEST PUSH1 0x80 DUP3 ADD PUSH1 0x0 DUP3 ADD MLOAD PUSH2 0x1A74 PUSH1 0x0 DUP6 ADD DUP3 PUSH2 0x19D8 JUMP JUMPDEST POP PUSH1 0x20 DUP3 ADD MLOAD PUSH2 0x1A87 PUSH1 0x20 DUP6 ADD DUP3 PUSH2 0x1868 JUMP JUMPDEST POP PUSH1 0x40 DUP3 ADD MLOAD PUSH2 0x1A9A PUSH1 0x40 DUP6 ADD DUP3 PUSH2 0x1868 JUMP JUMPDEST POP PUSH1 0x60 DUP3 ADD MLOAD PUSH2 0x1AAD PUSH1 0x60 DUP6 ADD DUP3 PUSH2 0x1A4F JUMP JUMPDEST POP POP POP POP JUMP JUMPDEST PUSH1 0x0 PUSH2 0x1ABF DUP4 DUP4 PUSH2 0x1A5E JUMP JUMPDEST PUSH1 0x80 DUP4 ADD SWAP1 POP SWAP3 SWAP2 POP POP JUMP JUMPDEST PUSH1 0x0 PUSH1 0x20 DUP3 ADD SWAP1 POP SWAP2 SWAP1 POP JUMP JUMPDEST PUSH1 0x0 PUSH2 0x1AE3 DUP3 PUSH2 0x197A JUMP JUMPDEST PUSH2 0x1AED DUP2 DUP6 PUSH2 0x1985 JUMP JUMPDEST SWAP4 POP PUSH2 0x1AF8 DUP4 PUSH2 0x1996 JUMP JUMPDEST DUP1 PUSH1 0x0 JUMPDEST DUP4 DUP2 LT ISZERO PUSH2 0x1B29 JUMPI DUP2 MLOAD PUSH2 0x1B10 DUP9 DUP3 PUSH2 0x1AB3 JUMP JUMPDEST SWAP8 POP PUSH2 0x1B1B DUP4 PUSH2 0x1ACB JUMP JUMPDEST SWAP3 POP POP PUSH1 0x1 DUP2 ADD SWAP1 POP PUSH2 0x1AFC JUMP JUMPDEST POP DUP6 SWAP4 POP POP POP POP SWAP3 SWAP2 POP POP JUMP JUMPDEST PUSH1 0x0 PUSH1 0x20 DUP3 ADD SWAP1 POP DUP2 DUP2 SUB PUSH1 0x0 DUP4 ADD MSTORE PUSH2 0x1B50 DUP2 DUP5 PUSH2 0x1AD8 JUMP JUMPDEST SWAP1 POP SWAP3 SWAP2 POP POP JUMP JUMPDEST PUSH2 0x1B61 DUP2 PUSH2 0x19C6 JUMP JUMPDEST DUP3 MSTORE POP POP JUMP JUMPDEST PUSH1 0x0 PUSH1 0x20 DUP3 ADD SWAP1 POP PUSH2 0x1B7C PUSH1 0x0 DUP4 ADD DUP5 PUSH2 0x1B58 JUMP JUMPDEST SWAP3 SWAP2 POP POP JUMP JUMPDEST PUSH32 0x4E487B7100000000000000000000000000000000000000000000000000000000 PUSH1 0x0 MSTORE PUSH1 0x32 PUSH1 0x4 MSTORE PUSH1 0x24 PUSH1 0x0 REVERT JUMPDEST PUSH32 0x4E487B7100000000000000000000000000000000000000000000000000000000 PUSH1 0x0 MSTORE PUSH1 0x11 PUSH1 0x4 MSTORE PUSH1 0x24 PUSH1 0x0 REVERT JUMPDEST PUSH1 0x0 PUSH2 0x1BEB DUP3 PUSH2 0x185E JUMP JUMPDEST SWAP2 POP PUSH32 0xFFFFFFFFFFFFFFFFFFFFFFFFFFFFFFFFFFFFFFFFFFFFFFFFFFFFFFFFFFFFFFFF DUP3 SUB PUSH2 0x1C1D JUMPI PUSH2 0x1C1C PUSH2 0x1BB1 JUMP JUMPDEST JUMPDEST PUSH1 0x1 DUP3 ADD SWAP1 POP SWAP2 SWAP1 POP JUMP JUMPDEST PUSH1 0x0 DUP3 DUP3 MSTORE PUSH1 0x20 DUP3 ADD SWAP1 POP SWAP3 SWAP2 POP POP JUMP JUMPDEST PUSH32 0x4F726465722050656E64696E6700000000000000000000000000000000000000 PUSH1 0x0 DUP3 ADD MSTORE POP JUMP JUMPDEST PUSH1 0x0 PUSH2 0x1C6F PUSH1 0xD DUP4 PUSH2 0x1C28 JUMP JUMPDEST SWAP2 POP PUSH2 0x1C7A DUP3 PUSH2 0x1C39 JUMP JUMPDEST PUSH1 0x20 DUP3 ADD SWAP1 POP SWAP2 SWAP1 POP JUMP JUMPDEST PUSH1 0x0 PUSH1 0x20 DUP3 ADD SWAP1 POP DUP2 DUP2 SUB PUSH1 0x0 DUP4 ADD MSTORE PUSH2 0x1C9E DUP2 PUSH2 0x1C62 JUMP JUMPDEST SWAP1 POP SWAP2 SWAP1 POP JUMP JUMPDEST PUSH32 0x4E6F7420417574686F7269736564000000000000000000000000000000000000 PUSH1 0x0 DUP3 ADD MSTORE POP JUMP JUMPDEST PUSH1 0x0 PUSH2 0x1CDB PUSH1 0xE DUP4 PUSH2 0x1C28 JUMP JUMPDEST SWAP2 POP PUSH2 0x1CE6 DUP3 PUSH2 0x1CA5 JUMP JUMPDEST PUSH1 0x20 DUP3 ADD SWAP1 POP SWAP2 SWAP1 POP JUMP JUMPDEST PUSH1 0x0 PUSH1 0x20 DUP3 ADD SWAP1 POP DUP2 DUP2 SUB PUSH1 0x0 DUP4 ADD MSTORE PUSH2 0x1D0A DUP2 PUSH2 0x1CCE JUMP JUMPDEST SWAP1 POP SWAP2 SWAP1 POP JUMP JUMPDEST PUSH2 0x1D1A DUP2 PUSH2 0x185E JUMP JUMPDEST DUP3 MSTORE POP POP JUMP JUMPDEST PUSH1 0x0 PUSH1 0x20 DUP3 ADD SWAP1 POP PUSH2 0x1D35 PUSH1 0x0 DUP4 ADD DUP5 PUSH2 0x1D11 JUMP JUMPDEST SWAP3 SWAP2 POP POP JUMP JUMPDEST PUSH32 0x70726963652076616C7565206D757374206265206D6F7265207468616E203000 PUSH1 0x0 DUP3 ADD MSTORE POP JUMP JUMPDEST PUSH1 0x0 PUSH2 0x1D71 PUSH1 0x1F DUP4 PUSH2 0x1C28 JUMP JUMPDEST SWAP2 POP PUSH2 0x1D7C DUP3 PUSH2 0x1D3B JUMP JUMPDEST PUSH1 0x20 DUP3 ADD SWAP1 POP SWAP2 SWAP1 POP JUMP JUMPDEST PUSH1 0x0 PUSH1 0x20 DUP3 ADD SWAP1 POP DUP2 DUP2 SUB PUSH1 0x0 DUP4 ADD MSTORE PUSH2 0x1DA0 DUP2 PUSH2 0x1D64 JUMP JUMPDEST SWAP1 POP SWAP2 SWAP1 POP JUMP JUMPDEST PUSH32 0x4E6F7420656E6F75676820626C616E636520746F20706C6163652061736B0000 PUSH1 0x0 DUP3 ADD MSTORE POP JUMP JUMPDEST PUSH1 0x0 PUSH2 0x1DDD PUSH1 0x1E DUP4 PUSH2 0x1C28 JUMP JUMPDEST SWAP2 POP PUSH2 0x1DE8 DUP3 PUSH2 0x1DA7 JUMP JUMPDEST PUSH1 0x20 DUP3 ADD SWAP1 POP SWAP2 SWAP1 POP JUMP JUMPDEST PUSH1 0x0 PUSH1 0x20 DUP3 ADD SWAP1 POP DUP2 DUP2 SUB PUSH1 0x0 DUP4 ADD MSTORE PUSH2 0x1E0C DUP2 PUSH2 0x1DD0 JUMP JUMPDEST SWAP1 POP SWAP2 SWAP1 POP JUMP JUMPDEST PUSH1 0x0 PUSH2 0x1E1E DUP3 PUSH2 0x185E JUMP JUMPDEST SWAP2 POP PUSH2 0x1E29 DUP4 PUSH2 0x185E JUMP JUMPDEST SWAP3 POP DUP3 DUP3 LT ISZERO PUSH2 0x1E3C JUMPI PUSH2 0x1E3B PUSH2 0x1BB1 JUMP JUMPDEST JUMPDEST DUP3 DUP3 SUB SWAP1 POP SWAP3 SWAP2 POP POP JUMP JUMPDEST PUSH1 0x0 PUSH2 0x1E52 DUP3 PUSH2 0x185E JUMP JUMPDEST SWAP2 POP PUSH2 0x1E5D DUP4 PUSH2 0x185E JUMP JUMPDEST SWAP3 POP DUP2 PUSH32 0xFFFFFFFFFFFFFFFFFFFFFFFFFFFFFFFFFFFFFFFFFFFFFFFFFFFFFFFFFFFFFFFF DIV DUP4 GT DUP3 ISZERO ISZERO AND ISZERO PUSH2 0x1E96 JUMPI PUSH2 0x1E95 PUSH2 0x1BB1 JUMP JUMPDEST JUMPDEST DUP3 DUP3 MUL SWAP1 POP SWAP3 SWAP2 POP POP JUMP JUMPDEST PUSH32 0x4E487B7100000000000000000000000000000000000000000000000000000000 PUSH1 0x0 MSTORE PUSH1 0x12 PUSH1 0x4 MSTORE PUSH1 0x24 PUSH1 0x0 REVERT JUMPDEST PUSH1 0x0 PUSH2 0x1EDB DUP3 PUSH2 0x185E JUMP JUMPDEST SWAP2 POP PUSH2 0x1EE6 DUP4 PUSH2 0x185E JUMP JUMPDEST SWAP3 POP DUP3 PUSH2 0x1EF6 JUMPI PUSH2 0x1EF5 PUSH2 0x1EA1 JUMP JUMPDEST JUMPDEST DUP3 DUP3 DIV SWAP1 POP SWAP3 SWAP2 POP POP JUMP JUMPDEST PUSH1 0x0 PUSH2 0x1F0C DUP3 PUSH2 0x19A6 JUMP JUMPDEST SWAP1 POP SWAP2 SWAP1 POP JUMP JUMPDEST PUSH2 0x1F1C DUP2 PUSH2 0x1F01 JUMP JUMPDEST DUP3 MSTORE POP POP JUMP JUMPDEST PUSH2 0x1F2B DUP2 PUSH2 0x1A3D JUMP JUMPDEST DUP3 MSTORE POP POP JUMP JUMPDEST PUSH1 0x0 PUSH1 0x80 DUP3 ADD SWAP1 POP PUSH2 0x1F46 PUSH1 0x0 DUP4 ADD DUP8 PUSH2 0x1F13 JUMP JUMPDEST PUSH2 0x1F53 PUSH1 0x20 DUP4 ADD DUP7 PUSH2 0x1D11 JUMP JUMPDEST PUSH2 0x1F60 PUSH1 0x40 DUP4 ADD DUP6 PUSH2 0x1D11 JUMP JUMPDEST PUSH2 0x1F6D PUSH1 0x60 DUP4 ADD DUP5 PUSH2 0x1F22 JUMP JUMPDEST SWAP6 SWAP5 POP POP POP POP POP JUMP JUMPDEST PUSH32 0x4E6F7420656E6F75676820626C616E636520746F20706C616365206269640000 PUSH1 0x0 DUP3 ADD MSTORE POP JUMP JUMPDEST PUSH1 0x0 PUSH2 0x1FAC PUSH1 0x1E DUP4 PUSH2 0x1C28 JUMP JUMPDEST SWAP2 POP PUSH2 0x1FB7 DUP3 PUSH2 0x1F76 JUMP JUMPDEST PUSH1 0x20 DUP3 ADD SWAP1 POP SWAP2 SWAP1 POP JUMP JUMPDEST PUSH1 0x0 PUSH1 0x20 DUP3 ADD SWAP1 POP DUP2 DUP2 SUB PUSH1 0x0 DUP4 ADD MSTORE PUSH2 0x1FDB DUP2 PUSH2 0x1F9F JUMP JUMPDEST SWAP1 POP SWAP2 SWAP1 POP JUMP JUMPDEST PUSH1 0x0 DUP2 SWAP1 POP SWAP2 SWAP1 POP JUMP JUMPDEST PUSH1 0x0 PUSH2 0x1FF7 DUP3 PUSH2 0x1FE2 JUMP JUMPDEST SWAP2 POP PUSH2 0x2002 DUP4 PUSH2 0x1FE2 JUMP JUMPDEST SWAP3 POP DUP3 PUSH32 0x8000000000000000000000000000000000000000000000000000000000000000 ADD DUP3 SLT PUSH1 0x0 DUP5 SLT ISZERO AND ISZERO PUSH2 0x203D JUMPI PUSH2 0x203C PUSH2 0x1BB1 JUMP JUMPDEST JUMPDEST DUP3 PUSH32 0x7FFFFFFFFFFFFFFFFFFFFFFFFFFFFFFFFFFFFFFFFFFFFFFFFFFFFFFFFFFFFFFF ADD DUP3 SGT PUSH1 0x0 DUP5 SLT AND ISZERO PUSH2 0x2075 JUMPI PUSH2 0x2074 PUSH2 0x1BB1 JUMP JUMPDEST JUMPDEST DUP3 DUP3 SUB SWAP1 POP SWAP3 SWAP2 POP POP JUMP JUMPDEST PUSH1 0x0 PUSH2 0x208B DUP3 PUSH2 0x1FE2 JUMP JUMPDEST SWAP2 POP PUSH2 0x2096 DUP4 PUSH2 0x1FE2 JUMP JUMPDEST SWAP3 POP DUP3 PUSH2 0x20A6 JUMPI PUSH2 0x20A5 PUSH2 0x1EA1 JUMP JUMPDEST JUMPDEST PUSH1 0x1 PUSH1 0x0 SUB DUP4 EQ PUSH32 0x8000000000000000000000000000000000000000000000000000000000000000 DUP4 EQ AND ISZERO PUSH2 0x20DF JUMPI PUSH2 0x20DE PUSH2 0x1BB1 JUMP JUMPDEST JUMPDEST DUP3 DUP3 SDIV SWAP1 POP SWAP3 SWAP2 POP POP JUMP JUMPDEST PUSH1 0x0 PUSH2 0x20F5 DUP3 PUSH2 0x1FE2 JUMP JUMPDEST SWAP2 POP PUSH2 0x2100 DUP4 PUSH2 0x1FE2 JUMP JUMPDEST SWAP3 POP DUP2 PUSH32 0x7FFFFFFFFFFFFFFFFFFFFFFFFFFFFFFFFFFFFFFFFFFFFFFFFFFFFFFFFFFFFFFF SUB DUP4 SGT PUSH1 0x0 DUP4 SLT ISZERO AND ISZERO PUSH2 0x213B JUMPI PUSH2 0x213A PUSH2 0x1BB1 JUMP JUMPDEST JUMPDEST DUP2 PUSH32 0x8000000000000000000000000000000000000000000000000000000000000000 SUB DUP4 SLT PUSH1 0x0 DUP4 SLT AND ISZERO PUSH2 0x2173 JUMPI PUSH2 0x2172 PUSH2 0x1BB1 JUMP JUMPDEST JUMPDEST DUP3 DUP3 ADD SWAP1 POP SWAP3 SWAP2 POP POP JUMP JUMPDEST PUSH1 0x0 PUSH2 0x2189 DUP3 PUSH2 0x1FE2 JUMP JUMPDEST SWAP2 POP PUSH32 0x7FFFFFFFFFFFFFFFFFFFFFFFFFFFFFFFFFFFFFFFFFFFFFFFFFFFFFFFFFFFFFFF DUP3 SUB PUSH2 0x21BB JUMPI PUSH2 0x21BA PUSH2 0x1BB1 JUMP JUMPDEST JUMPDEST PUSH1 0x1 DUP3 ADD SWAP1 POP SWAP2 SWAP1 POP JUMP JUMPDEST PUSH1 0x0 PUSH2 0x21D1 DUP3 PUSH2 0x1FE2 JUMP JUMPDEST SWAP2 POP PUSH32 0x8000000000000000000000000000000000000000000000000000000000000000 DUP3 SUB PUSH2 0x2203 JUMPI PUSH2 0x2202 PUSH2 0x1BB1 JUMP JUMPDEST JUMPDEST PUSH1 0x1 DUP3 SUB SWAP1 POP SWAP2 SWAP1 POP JUMP INVALID LOG2 PUSH5 0x6970667358 0x22 SLT KECCAK256 0xB0 PUSH24 0x2F353D6C0EF4233711A041E1544545179F5FA6E4854982B CODESIZE SWAP11 PUSH8 0x6279EA64736F6C63 NUMBER STOP ADDMOD 0xD STOP CALLER "
				},
				"gasEstimates": {
					"creation": {
						"codeDepositCost": "1754400",
						"executionCost": "infinite",
						"totalCost": "infinite"
					},
					"external": {
						"cancelAsk(uint256)": "infinite",
						"cancelBid(uint256)": "infinite",
						"fetchAllAsk()": "infinite",
						"fetchAllBid()": "infinite",
						"fetchYourAskIds()": "infinite",
						"fetchYourBidIds()": "infinite",
						"getAskAddress(uint256)": "5073",
						"getBidAddress(uint256)": "5051",
						"placeAsk(uint256)": "infinite",
						"placeBid(uint256)": "infinite"
					},
					"internal": {
						"ascendingQuickSort(struct OrderBook.order memory[] memory,int256,int256)": "infinite",
						"deleteArray()": "infinite",
						"descendingQuickSort(struct OrderBook.order memory[] memory,int256,int256)": "infinite",
						"sortAsk()": "infinite",
						"sortBid()": "infinite"
					}
				},
				"methodIdentifiers": {
					"cancelAsk(uint256)": "1628e0f5",
					"cancelBid(uint256)": "9703ef35",
					"fetchAllAsk()": "c5374af2",
					"fetchAllBid()": "4471417f",
					"fetchYourAskIds()": "122de8f2",
					"fetchYourBidIds()": "ce0cdc87",
					"getAskAddress(uint256)": "734a2e78",
					"getBidAddress(uint256)": "69f632e2",
					"placeAsk(uint256)": "78c5b268",
					"placeBid(uint256)": "9979ef45"
				}
			},
			"storageLayout": {
				"storage": [
					{
						"astId": 6,
						"contract": "contracts/OrderBook.sol:OrderBook",
						"label": "_owner",
						"offset": 0,
						"slot": "0",
						"type": "t_address_payable"
					},
					{
						"astId": 8,
						"contract": "contracts/OrderBook.sol:OrderBook",
						"label": "commission",
						"offset": 0,
						"slot": "1",
						"type": "t_uint256"
					},
					{
						"astId": 40,
						"contract": "contracts/OrderBook.sol:OrderBook",
						"label": "bidBook",
						"offset": 0,
						"slot": "2",
						"type": "t_array(t_struct(order)36_storage)dyn_storage"
					},
					{
						"astId": 44,
						"contract": "contracts/OrderBook.sol:OrderBook",
						"label": "askBook",
						"offset": 0,
						"slot": "3",
						"type": "t_array(t_struct(order)36_storage)dyn_storage"
					},
					{
						"astId": 47,
						"contract": "contracts/OrderBook.sol:OrderBook",
						"label": "request",
						"offset": 0,
						"slot": "4",
						"type": "t_array(t_uint256)dyn_storage"
					}
				],
				"types": {
					"t_address_payable": {
						"encoding": "inplace",
						"label": "address payable",
						"numberOfBytes": "20"
					},
					"t_array(t_struct(order)36_storage)dyn_storage": {
						"base": "t_struct(order)36_storage",
						"encoding": "dynamic_array",
						"label": "struct OrderBook.order[]",
						"numberOfBytes": "32"
					},
					"t_array(t_uint256)dyn_storage": {
						"base": "t_uint256",
						"encoding": "dynamic_array",
						"label": "uint256[]",
						"numberOfBytes": "32"
					},
					"t_enum(State)4": {
						"encoding": "inplace",
						"label": "enum OrderBook.State",
						"numberOfBytes": "1"
					},
					"t_struct(order)36_storage": {
						"encoding": "inplace",
						"label": "struct OrderBook.order",
						"members": [
							{
								"astId": 28,
								"contract": "contracts/OrderBook.sol:OrderBook",
								"label": "customer",
								"offset": 0,
								"slot": "0",
								"type": "t_address_payable"
							},
							{
								"astId": 30,
								"contract": "contracts/OrderBook.sol:OrderBook",
								"label": "value",
								"offset": 0,
								"slot": "1",
								"type": "t_uint256"
							},
							{
								"astId": 32,
								"contract": "contracts/OrderBook.sol:OrderBook",
								"label": "timestamp",
								"offset": 0,
								"slot": "2",
								"type": "t_uint256"
							},
							{
								"astId": 35,
								"contract": "contracts/OrderBook.sol:OrderBook",
								"label": "state",
								"offset": 0,
								"slot": "3",
								"type": "t_enum(State)4"
							}
						],
						"numberOfBytes": "128"
					},
					"t_uint256": {
						"encoding": "inplace",
						"label": "uint256",
						"numberOfBytes": "32"
					}
				}
			},
			"userdoc": {
				"kind": "user",
				"methods": {},
				"version": 1
			}
		}
	}
}