{
	"contracts/OrderBook.sol": {
		"OrderBook": {
			"abi": [
				{
					"inputs": [
						{
							"internalType": "uint256",
							"name": "_commission",
							"type": "uint256"
						}
					],
					"stateMutability": "nonpayable",
					"type": "constructor"
				},
				{
					"anonymous": false,
					"inputs": [
						{
							"indexed": false,
							"internalType": "uint256",
							"name": "",
							"type": "uint256"
						}
					],
					"name": "askCancelled",
					"type": "event"
				},
				{
					"anonymous": false,
					"inputs": [
						{
							"indexed": false,
							"internalType": "address",
							"name": "",
							"type": "address"
						},
						{
							"indexed": false,
							"internalType": "uint256",
							"name": "",
							"type": "uint256"
						},
						{
							"indexed": false,
							"internalType": "uint256",
							"name": "",
							"type": "uint256"
						},
						{
							"indexed": false,
							"internalType": "enum OrderBook.State",
							"name": "",
							"type": "uint8"
						}
					],
					"name": "askPlaced",
					"type": "event"
				},
				{
					"anonymous": false,
					"inputs": [
						{
							"indexed": false,
							"internalType": "uint256",
							"name": "",
							"type": "uint256"
						}
					],
					"name": "bidCancelled",
					"type": "event"
				},
				{
					"anonymous": false,
					"inputs": [
						{
							"indexed": false,
							"internalType": "address",
							"name": "",
							"type": "address"
						},
						{
							"indexed": false,
							"internalType": "uint256",
							"name": "",
							"type": "uint256"
						},
						{
							"indexed": false,
							"internalType": "uint256",
							"name": "",
							"type": "uint256"
						},
						{
							"indexed": false,
							"internalType": "enum OrderBook.State",
							"name": "",
							"type": "uint8"
						}
					],
					"name": "bidPlaced",
					"type": "event"
				},
				{
					"inputs": [
						{
							"internalType": "uint256",
							"name": "askId",
							"type": "uint256"
						}
					],
					"name": "cancelAsk",
					"outputs": [],
					"stateMutability": "nonpayable",
					"type": "function"
				},
				{
					"inputs": [
						{
							"internalType": "uint256",
							"name": "bidId",
							"type": "uint256"
						}
					],
					"name": "cancelBid",
					"outputs": [],
					"stateMutability": "nonpayable",
					"type": "function"
				},
				{
					"inputs": [],
					"name": "fetchAllAsk",
					"outputs": [
						{
							"components": [
								{
									"internalType": "address payable",
									"name": "customer",
									"type": "address"
								},
								{
									"internalType": "uint256",
									"name": "value",
									"type": "uint256"
								},
								{
									"internalType": "uint256",
									"name": "timestamp",
									"type": "uint256"
								},
								{
									"internalType": "enum OrderBook.State",
									"name": "state",
									"type": "uint8"
								}
							],
							"internalType": "struct OrderBook.order[]",
							"name": "",
							"type": "tuple[]"
						}
					],
					"stateMutability": "view",
					"type": "function"
				},
				{
					"inputs": [],
					"name": "fetchAllBid",
					"outputs": [
						{
							"components": [
								{
									"internalType": "address payable",
									"name": "customer",
									"type": "address"
								},
								{
									"internalType": "uint256",
									"name": "value",
									"type": "uint256"
								},
								{
									"internalType": "uint256",
									"name": "timestamp",
									"type": "uint256"
								},
								{
									"internalType": "enum OrderBook.State",
									"name": "state",
									"type": "uint8"
								}
							],
							"internalType": "struct OrderBook.order[]",
							"name": "",
							"type": "tuple[]"
						}
					],
					"stateMutability": "view",
					"type": "function"
				},
				{
					"inputs": [],
					"name": "fetchYourAskIds",
					"outputs": [
						{
							"internalType": "uint256[]",
							"name": "",
							"type": "uint256[]"
						}
					],
					"stateMutability": "nonpayable",
					"type": "function"
				},
				{
					"inputs": [],
					"name": "fetchYourBidIds",
					"outputs": [
						{
							"internalType": "uint256[]",
							"name": "",
							"type": "uint256[]"
						}
					],
					"stateMutability": "nonpayable",
					"type": "function"
				},
				{
					"inputs": [
						{
							"internalType": "uint256",
							"name": "id",
							"type": "uint256"
						}
					],
					"name": "getAskAddress",
					"outputs": [
						{
							"internalType": "address payable",
							"name": "",
							"type": "address"
						}
					],
					"stateMutability": "view",
					"type": "function"
				},
				{
					"inputs": [
						{
							"internalType": "uint256",
							"name": "id",
							"type": "uint256"
						}
					],
					"name": "getBidAddress",
					"outputs": [
						{
							"internalType": "address payable",
							"name": "",
							"type": "address"
						}
					],
					"stateMutability": "view",
					"type": "function"
				},
				{
					"inputs": [
						{
							"internalType": "uint256",
							"name": "id",
							"type": "uint256"
						}
					],
					"name": "getBidValue",
					"outputs": [
						{
							"internalType": "address payable",
							"name": "",
							"type": "address"
						}
					],
					"stateMutability": "view",
					"type": "function"
				},
				{
					"inputs": [
						{
							"internalType": "uint256",
							"name": "price",
							"type": "uint256"
						}
					],
					"name": "placeAsk",
					"outputs": [],
					"stateMutability": "payable",
					"type": "function"
				},
				{
					"inputs": [
						{
							"internalType": "uint256",
							"name": "price",
							"type": "uint256"
						}
					],
					"name": "placeBid",
					"outputs": [],
					"stateMutability": "payable",
					"type": "function"
				}
			],
			"devdoc": {
				"kind": "dev",
				"methods": {},
				"version": 1
			},
			"evm": {
				"assembly": "    /* \"contracts/OrderBook.sol\":730:6078  contract OrderBook {... */\n  mstore(0x40, 0x80)\n    /* \"contracts/OrderBook.sol\":950:1063  constructor (uint256 _commission) {... */\n  callvalue\n  dup1\n  iszero\n  tag_1\n  jumpi\n  0x00\n  dup1\n  revert\ntag_1:\n  pop\n  mload(0x40)\n  sub(codesize, bytecodeSize)\n  dup1\n  bytecodeSize\n  dup4\n  codecopy\n  dup2\n  dup2\n  add\n  0x40\n  mstore\n  dup2\n  add\n  swap1\n  tag_2\n  swap2\n  swap1\n  tag_3\n  jump\t// in\ntag_2:\n    /* \"contracts/OrderBook.sol\":1011:1021  msg.sender */\n  caller\n    /* \"contracts/OrderBook.sol\":994:1000  _owner */\n  0x00\n  dup1\n    /* \"contracts/OrderBook.sol\":994:1022  _owner = payable(msg.sender) */\n  0x0100\n  exp\n  dup2\n  sload\n  dup2\n  0xffffffffffffffffffffffffffffffffffffffff\n  mul\n  not\n  and\n  swap1\n  dup4\n  0xffffffffffffffffffffffffffffffffffffffff\n  and\n  mul\n  or\n  swap1\n  sstore\n  pop\n    /* \"contracts/OrderBook.sol\":1045:1056  _commission */\n  dup1\n    /* \"contracts/OrderBook.sol\":1032:1042  commission */\n  0x01\n    /* \"contracts/OrderBook.sol\":1032:1056  commission = _commission */\n  dup2\n  swap1\n  sstore\n  pop\n    /* \"contracts/OrderBook.sol\":950:1063  constructor (uint256 _commission) {... */\n  pop\n    /* \"contracts/OrderBook.sol\":730:6078  contract OrderBook {... */\n  jump(tag_6)\n    /* \"#utility.yul\":88:205   */\ntag_8:\n    /* \"#utility.yul\":197:198   */\n  0x00\n    /* \"#utility.yul\":194:195   */\n  dup1\n    /* \"#utility.yul\":187:199   */\n  revert\n    /* \"#utility.yul\":334:411   */\ntag_10:\n    /* \"#utility.yul\":371:378   */\n  0x00\n    /* \"#utility.yul\":400:405   */\n  dup2\n    /* \"#utility.yul\":389:405   */\n  swap1\n  pop\n    /* \"#utility.yul\":334:411   */\n  swap2\n  swap1\n  pop\n  jump\t// out\n    /* \"#utility.yul\":417:539   */\ntag_11:\n    /* \"#utility.yul\":490:514   */\n  tag_19\n    /* \"#utility.yul\":508:513   */\n  dup2\n    /* \"#utility.yul\":490:514   */\n  tag_10\n  jump\t// in\ntag_19:\n    /* \"#utility.yul\":483:488   */\n  dup2\n    /* \"#utility.yul\":480:515   */\n  eq\n    /* \"#utility.yul\":470:533   */\n  tag_20\n  jumpi\n    /* \"#utility.yul\":529:530   */\n  0x00\n    /* \"#utility.yul\":526:527   */\n  dup1\n    /* \"#utility.yul\":519:531   */\n  revert\n    /* \"#utility.yul\":470:533   */\ntag_20:\n    /* \"#utility.yul\":417:539   */\n  pop\n  jump\t// out\n    /* \"#utility.yul\":545:688   */\ntag_12:\n    /* \"#utility.yul\":602:607   */\n  0x00\n    /* \"#utility.yul\":633:639   */\n  dup2\n    /* \"#utility.yul\":627:640   */\n  mload\n    /* \"#utility.yul\":618:640   */\n  swap1\n  pop\n    /* \"#utility.yul\":649:682   */\n  tag_22\n    /* \"#utility.yul\":676:681   */\n  dup2\n    /* \"#utility.yul\":649:682   */\n  tag_11\n  jump\t// in\ntag_22:\n    /* \"#utility.yul\":545:688   */\n  swap3\n  swap2\n  pop\n  pop\n  jump\t// out\n    /* \"#utility.yul\":694:1045   */\ntag_3:\n    /* \"#utility.yul\":764:770   */\n  0x00\n    /* \"#utility.yul\":813:815   */\n  0x20\n    /* \"#utility.yul\":801:810   */\n  dup3\n    /* \"#utility.yul\":792:799   */\n  dup5\n    /* \"#utility.yul\":788:811   */\n  sub\n    /* \"#utility.yul\":784:816   */\n  slt\n    /* \"#utility.yul\":781:900   */\n  iszero\n  tag_24\n  jumpi\n    /* \"#utility.yul\":819:898   */\n  tag_25\n  tag_8\n  jump\t// in\ntag_25:\n    /* \"#utility.yul\":781:900   */\ntag_24:\n    /* \"#utility.yul\":939:940   */\n  0x00\n    /* \"#utility.yul\":964:1028   */\n  tag_26\n    /* \"#utility.yul\":1020:1027   */\n  dup5\n    /* \"#utility.yul\":1011:1017   */\n  dup3\n    /* \"#utility.yul\":1000:1009   */\n  dup6\n    /* \"#utility.yul\":996:1018   */\n  add\n    /* \"#utility.yul\":964:1028   */\n  tag_12\n  jump\t// in\ntag_26:\n    /* \"#utility.yul\":954:1028   */\n  swap2\n  pop\n    /* \"#utility.yul\":910:1038   */\n  pop\n    /* \"#utility.yul\":694:1045   */\n  swap3\n  swap2\n  pop\n  pop\n  jump\t// out\n    /* \"contracts/OrderBook.sol\":730:6078  contract OrderBook {... */\ntag_6:\n  dataSize(sub_0)\n  dup1\n  dataOffset(sub_0)\n  0x00\n  codecopy\n  0x00\n  return\nstop\n\nsub_0: assembly {\n        /* \"contracts/OrderBook.sol\":730:6078  contract OrderBook {... */\n      mstore(0x40, 0x80)\n      jumpi(tag_1, lt(calldatasize, 0x04))\n      shr(0xe0, calldataload(0x00))\n      dup1\n      0x734a2e78\n      gt\n      tag_13\n      jumpi\n      dup1\n      0x734a2e78\n      eq\n      tag_7\n      jumpi\n      dup1\n      0x78c5b268\n      eq\n      tag_8\n      jumpi\n      dup1\n      0x9703ef35\n      eq\n      tag_9\n      jumpi\n      dup1\n      0x9979ef45\n      eq\n      tag_10\n      jumpi\n      dup1\n      0xc5374af2\n      eq\n      tag_11\n      jumpi\n      dup1\n      0xce0cdc87\n      eq\n      tag_12\n      jumpi\n      jump(tag_1)\n    tag_13:\n      dup1\n      0x122de8f2\n      eq\n      tag_2\n      jumpi\n      dup1\n      0x1628e0f5\n      eq\n      tag_3\n      jumpi\n      dup1\n      0x2db6dfa7\n      eq\n      tag_4\n      jumpi\n      dup1\n      0x4471417f\n      eq\n      tag_5\n      jumpi\n      dup1\n      0x69f632e2\n      eq\n      tag_6\n      jumpi\n    tag_1:\n      0x00\n      dup1\n      revert\n        /* \"contracts/OrderBook.sol\":5433:5716  function fetchYourAskIds() public returns (uint[] memory) {... */\n    tag_2:\n      callvalue\n      dup1\n      iszero\n      tag_14\n      jumpi\n      0x00\n      dup1\n      revert\n    tag_14:\n      pop\n      tag_15\n      tag_16\n      jump\t// in\n    tag_15:\n      mload(0x40)\n      tag_17\n      swap2\n      swap1\n      tag_18\n      jump\t// in\n    tag_17:\n      mload(0x40)\n      dup1\n      swap2\n      sub\n      swap1\n      return\n        /* \"contracts/OrderBook.sol\":4741:4944  function cancelAsk (uint askId) public isPending(askBook[askId]) isAuthorised(askBook[askId], msg.sender) {... */\n    tag_3:\n      callvalue\n      dup1\n      iszero\n      tag_19\n      jumpi\n      0x00\n      dup1\n      revert\n    tag_19:\n      pop\n      tag_20\n      0x04\n      dup1\n      calldatasize\n      sub\n      dup2\n      add\n      swap1\n      tag_21\n      swap2\n      swap1\n      tag_22\n      jump\t// in\n    tag_21:\n      tag_23\n      jump\t// in\n    tag_20:\n      stop\n        /* \"contracts/OrderBook.sol\":5962:6074  function getBidValue (uint id) public view returns(address payable) {... */\n    tag_4:\n      callvalue\n      dup1\n      iszero\n      tag_24\n      jumpi\n      0x00\n      dup1\n      revert\n    tag_24:\n      pop\n      tag_25\n      0x04\n      dup1\n      calldatasize\n      sub\n      dup2\n      add\n      swap1\n      tag_26\n      swap2\n      swap1\n      tag_22\n      jump\t// in\n    tag_26:\n      tag_27\n      jump\t// in\n    tag_25:\n      mload(0x40)\n      tag_28\n      swap2\n      swap1\n      tag_29\n      jump\t// in\n    tag_28:\n      mload(0x40)\n      dup1\n      swap2\n      sub\n      swap1\n      return\n        /* \"contracts/OrderBook.sol\":4950:5041  function fetchAllBid() public view returns (order[] memory) {... */\n    tag_5:\n      callvalue\n      dup1\n      iszero\n      tag_30\n      jumpi\n      0x00\n      dup1\n      revert\n    tag_30:\n      pop\n      tag_31\n      tag_32\n      jump\t// in\n    tag_31:\n      mload(0x40)\n      tag_33\n      swap2\n      swap1\n      tag_34\n      jump\t// in\n    tag_33:\n      mload(0x40)\n      dup1\n      swap2\n      sub\n      swap1\n      return\n        /* \"contracts/OrderBook.sol\":5722:5836  function getBidAddress (uint id) public view returns(address payable) {... */\n    tag_6:\n      callvalue\n      dup1\n      iszero\n      tag_35\n      jumpi\n      0x00\n      dup1\n      revert\n    tag_35:\n      pop\n      tag_36\n      0x04\n      dup1\n      calldatasize\n      sub\n      dup2\n      add\n      swap1\n      tag_37\n      swap2\n      swap1\n      tag_22\n      jump\t// in\n    tag_37:\n      tag_38\n      jump\t// in\n    tag_36:\n      mload(0x40)\n      tag_39\n      swap2\n      swap1\n      tag_29\n      jump\t// in\n    tag_39:\n      mload(0x40)\n      dup1\n      swap2\n      sub\n      swap1\n      return\n        /* \"contracts/OrderBook.sol\":5842:5956  function getAskAddress (uint id) public view returns(address payable) {... */\n    tag_7:\n      callvalue\n      dup1\n      iszero\n      tag_40\n      jumpi\n      0x00\n      dup1\n      revert\n    tag_40:\n      pop\n      tag_41\n      0x04\n      dup1\n      calldatasize\n      sub\n      dup2\n      add\n      swap1\n      tag_42\n      swap2\n      swap1\n      tag_22\n      jump\t// in\n    tag_42:\n      tag_43\n      jump\t// in\n    tag_41:\n      mload(0x40)\n      tag_44\n      swap2\n      swap1\n      tag_29\n      jump\t// in\n    tag_44:\n      mload(0x40)\n      dup1\n      swap2\n      sub\n      swap1\n      return\n        /* \"contracts/OrderBook.sol\":4268:4735  function placeAsk (uint256 price) public payable {... */\n    tag_8:\n      tag_45\n      0x04\n      dup1\n      calldatasize\n      sub\n      dup2\n      add\n      swap1\n      tag_46\n      swap2\n      swap1\n      tag_22\n      jump\t// in\n    tag_46:\n      tag_47\n      jump\t// in\n    tag_45:\n      stop\n        /* \"contracts/OrderBook.sol\":4065:4262  function cancelBid (uint bidId) public isPending(bidBook[bidId]) isAuthorised(bidBook[bidId], msg.sender) {... */\n    tag_9:\n      callvalue\n      dup1\n      iszero\n      tag_48\n      jumpi\n      0x00\n      dup1\n      revert\n    tag_48:\n      pop\n      tag_49\n      0x04\n      dup1\n      calldatasize\n      sub\n      dup2\n      add\n      swap1\n      tag_50\n      swap2\n      swap1\n      tag_22\n      jump\t// in\n    tag_50:\n      tag_51\n      jump\t// in\n    tag_49:\n      stop\n        /* \"contracts/OrderBook.sol\":3593:4059  function placeBid (uint256 price) public payable {... */\n    tag_10:\n      tag_52\n      0x04\n      dup1\n      calldatasize\n      sub\n      dup2\n      add\n      swap1\n      tag_53\n      swap2\n      swap1\n      tag_22\n      jump\t// in\n    tag_53:\n      tag_54\n      jump\t// in\n    tag_52:\n      stop\n        /* \"contracts/OrderBook.sol\":5047:5138  function fetchAllAsk() public view returns (order[] memory) {... */\n    tag_11:\n      callvalue\n      dup1\n      iszero\n      tag_55\n      jumpi\n      0x00\n      dup1\n      revert\n    tag_55:\n      pop\n      tag_56\n      tag_57\n      jump\t// in\n    tag_56:\n      mload(0x40)\n      tag_58\n      swap2\n      swap1\n      tag_34\n      jump\t// in\n    tag_58:\n      mload(0x40)\n      dup1\n      swap2\n      sub\n      swap1\n      return\n        /* \"contracts/OrderBook.sol\":5144:5427  function fetchYourBidIds() public returns (uint[] memory) {... */\n    tag_12:\n      callvalue\n      dup1\n      iszero\n      tag_59\n      jumpi\n      0x00\n      dup1\n      revert\n    tag_59:\n      pop\n      tag_60\n      tag_61\n      jump\t// in\n    tag_60:\n      mload(0x40)\n      tag_62\n      swap2\n      swap1\n      tag_18\n      jump\t// in\n    tag_62:\n      mload(0x40)\n      dup1\n      swap2\n      sub\n      swap1\n      return\n        /* \"contracts/OrderBook.sol\":5433:5716  function fetchYourAskIds() public returns (uint[] memory) {... */\n    tag_16:\n        /* \"contracts/OrderBook.sol\":5476:5489  uint[] memory */\n      0x60\n        /* \"contracts/OrderBook.sol\":5501:5514  deleteArray() */\n      tag_64\n        /* \"contracts/OrderBook.sol\":5501:5512  deleteArray */\n      tag_65\n        /* \"contracts/OrderBook.sol\":5501:5514  deleteArray() */\n      jump\t// in\n    tag_64:\n        /* \"contracts/OrderBook.sol\":5529:5535  uint i */\n      0x00\n        /* \"contracts/OrderBook.sol\":5524:5686  for (uint i = 0; i < askBook.length; i++) {... */\n    tag_66:\n        /* \"contracts/OrderBook.sol\":5545:5552  askBook */\n      0x03\n        /* \"contracts/OrderBook.sol\":5545:5559  askBook.length */\n      dup1\n      sload\n      swap1\n      pop\n        /* \"contracts/OrderBook.sol\":5541:5542  i */\n      dup2\n        /* \"contracts/OrderBook.sol\":5541:5559  i < askBook.length */\n      lt\n        /* \"contracts/OrderBook.sol\":5524:5686  for (uint i = 0; i < askBook.length; i++) {... */\n      iszero\n      tag_67\n      jumpi\n        /* \"contracts/OrderBook.sol\":5615:5625  msg.sender */\n      caller\n        /* \"contracts/OrderBook.sol\":5584:5626  askBook[i].customer == payable(msg.sender) */\n      0xffffffffffffffffffffffffffffffffffffffff\n      and\n        /* \"contracts/OrderBook.sol\":5584:5591  askBook */\n      0x03\n        /* \"contracts/OrderBook.sol\":5592:5593  i */\n      dup3\n        /* \"contracts/OrderBook.sol\":5584:5594  askBook[i] */\n      dup2\n      sload\n      dup2\n      lt\n      tag_69\n      jumpi\n      tag_70\n      tag_71\n      jump\t// in\n    tag_70:\n    tag_69:\n      swap1\n      0x00\n      mstore\n      keccak256(0x00, 0x20)\n      swap1\n      0x04\n      mul\n      add\n        /* \"contracts/OrderBook.sol\":5584:5603  askBook[i].customer */\n      0x00\n      add\n      0x00\n      swap1\n      sload\n      swap1\n      0x0100\n      exp\n      swap1\n      div\n      0xffffffffffffffffffffffffffffffffffffffff\n      and\n        /* \"contracts/OrderBook.sol\":5584:5626  askBook[i].customer == payable(msg.sender) */\n      0xffffffffffffffffffffffffffffffffffffffff\n      and\n      sub\n        /* \"contracts/OrderBook.sol\":5580:5676  if (askBook[i].customer == payable(msg.sender)) {... */\n      tag_73\n      jumpi\n        /* \"contracts/OrderBook.sol\":5646:5653  request */\n      0x04\n        /* \"contracts/OrderBook.sol\":5659:5660  i */\n      dup2\n        /* \"contracts/OrderBook.sol\":5646:5661  request.push(i) */\n      swap1\n      dup1\n      0x01\n      dup2\n      sload\n      add\n      dup1\n      dup3\n      sstore\n      dup1\n      swap2\n      pop\n      pop\n      0x01\n      swap1\n      sub\n      swap1\n      0x00\n      mstore\n      keccak256(0x00, 0x20)\n      add\n      0x00\n      swap1\n      swap2\n      swap1\n      swap2\n      swap1\n      swap2\n      pop\n      sstore\n        /* \"contracts/OrderBook.sol\":5580:5676  if (askBook[i].customer == payable(msg.sender)) {... */\n    tag_73:\n        /* \"contracts/OrderBook.sol\":5561:5564  i++ */\n      dup1\n      dup1\n      tag_75\n      swap1\n      tag_76\n      jump\t// in\n    tag_75:\n      swap2\n      pop\n      pop\n        /* \"contracts/OrderBook.sol\":5524:5686  for (uint i = 0; i < askBook.length; i++) {... */\n      jump(tag_66)\n    tag_67:\n      pop\n        /* \"contracts/OrderBook.sol\":5702:5709  request */\n      0x04\n        /* \"contracts/OrderBook.sol\":5695:5709  return request */\n      dup1\n      sload\n      dup1\n      0x20\n      mul\n      0x20\n      add\n      mload(0x40)\n      swap1\n      dup2\n      add\n      0x40\n      mstore\n      dup1\n      swap3\n      swap2\n      swap1\n      dup2\n      dup2\n      mstore\n      0x20\n      add\n      dup3\n      dup1\n      sload\n      dup1\n      iszero\n      tag_77\n      jumpi\n      0x20\n      mul\n      dup3\n      add\n      swap2\n      swap1\n      0x00\n      mstore\n      keccak256(0x00, 0x20)\n      swap1\n    tag_78:\n      dup2\n      sload\n      dup2\n      mstore\n      0x20\n      add\n      swap1\n      0x01\n      add\n      swap1\n      dup1\n      dup4\n      gt\n      tag_78\n      jumpi\n    tag_77:\n      pop\n      pop\n      pop\n      pop\n      pop\n      swap1\n      pop\n        /* \"contracts/OrderBook.sol\":5433:5716  function fetchYourAskIds() public returns (uint[] memory) {... */\n      swap1\n      jump\t// out\n        /* \"contracts/OrderBook.sol\":4741:4944  function cancelAsk (uint askId) public isPending(askBook[askId]) isAuthorised(askBook[askId], msg.sender) {... */\n    tag_23:\n        /* \"contracts/OrderBook.sol\":4790:4797  askBook */\n      0x03\n        /* \"contracts/OrderBook.sol\":4798:4803  askId */\n      dup2\n        /* \"contracts/OrderBook.sol\":4790:4804  askBook[askId] */\n      dup2\n      sload\n      dup2\n      lt\n      tag_79\n      jumpi\n      tag_80\n      tag_71\n      jump\t// in\n    tag_80:\n    tag_79:\n      swap1\n      0x00\n      mstore\n      keccak256(0x00, 0x20)\n      swap1\n      0x04\n      mul\n      add\n        /* \"contracts/OrderBook.sol\":1507:1630  modifier isPending(order memory _order) {... */\n      mload(0x40)\n      dup1\n      0x80\n      add\n      0x40\n      mstore\n      swap1\n      dup2\n      0x00\n      dup3\n      add\n      0x00\n      swap1\n      sload\n      swap1\n      0x0100\n      exp\n      swap1\n      div\n      0xffffffffffffffffffffffffffffffffffffffff\n      and\n      0xffffffffffffffffffffffffffffffffffffffff\n      and\n      0xffffffffffffffffffffffffffffffffffffffff\n      and\n      dup2\n      mstore\n      0x20\n      add\n      0x01\n      dup3\n      add\n      sload\n      dup2\n      mstore\n      0x20\n      add\n      0x02\n      dup3\n      add\n      sload\n      dup2\n      mstore\n      0x20\n      add\n      0x03\n      dup3\n      add\n      0x00\n      swap1\n      sload\n      swap1\n      0x0100\n      exp\n      swap1\n      div\n      0xff\n      and\n      0x01\n      dup2\n      gt\n      iszero\n      tag_82\n      jumpi\n      tag_83\n      tag_84\n      jump\t// in\n    tag_83:\n    tag_82:\n      0x01\n      dup2\n      gt\n      iszero\n      tag_85\n      jumpi\n      tag_86\n      tag_84\n      jump\t// in\n    tag_86:\n    tag_85:\n      dup2\n      mstore\n      pop\n      pop\n        /* \"contracts/OrderBook.sol\":1581:1594  State.pending */\n      0x00\n        /* \"contracts/OrderBook.sol\":1565:1594  _order.state == State.pending */\n      0x01\n      dup2\n      gt\n      iszero\n      tag_88\n      jumpi\n      tag_89\n      tag_84\n      jump\t// in\n    tag_89:\n    tag_88:\n        /* \"contracts/OrderBook.sol\":1565:1571  _order */\n      dup2\n        /* \"contracts/OrderBook.sol\":1565:1577  _order.state */\n      0x60\n      add\n      mload\n        /* \"contracts/OrderBook.sol\":1565:1594  _order.state == State.pending */\n      0x01\n      dup2\n      gt\n      iszero\n      tag_90\n      jumpi\n      tag_91\n      tag_84\n      jump\t// in\n    tag_91:\n    tag_90:\n      eq\n        /* \"contracts/OrderBook.sol\":1557:1612  require(_order.state == State.pending, \"Order Pending\") */\n      tag_92\n      jumpi\n      mload(0x40)\n      0x08c379a000000000000000000000000000000000000000000000000000000000\n      dup2\n      mstore\n      0x04\n      add\n      tag_93\n      swap1\n      tag_94\n      jump\t// in\n    tag_93:\n      mload(0x40)\n      dup1\n      swap2\n      sub\n      swap1\n      revert\n    tag_92:\n        /* \"contracts/OrderBook.sol\":4819:4826  askBook */\n      0x03\n        /* \"contracts/OrderBook.sol\":4827:4832  askId */\n      dup3\n        /* \"contracts/OrderBook.sol\":4819:4833  askBook[askId] */\n      dup2\n      sload\n      dup2\n      lt\n      tag_95\n      jumpi\n      tag_96\n      tag_71\n      jump\t// in\n    tag_96:\n    tag_95:\n      swap1\n      0x00\n      mstore\n      keccak256(0x00, 0x20)\n      swap1\n      0x04\n      mul\n      add\n        /* \"contracts/OrderBook.sol\":1636:1784  modifier isAuthorised(order memory _order, address sender) {... */\n      mload(0x40)\n      dup1\n      0x80\n      add\n      0x40\n      mstore\n      swap1\n      dup2\n      0x00\n      dup3\n      add\n      0x00\n      swap1\n      sload\n      swap1\n      0x0100\n      exp\n      swap1\n      div\n      0xffffffffffffffffffffffffffffffffffffffff\n      and\n      0xffffffffffffffffffffffffffffffffffffffff\n      and\n      0xffffffffffffffffffffffffffffffffffffffff\n      and\n      dup2\n      mstore\n      0x20\n      add\n      0x01\n      dup3\n      add\n      sload\n      dup2\n      mstore\n      0x20\n      add\n      0x02\n      dup3\n      add\n      sload\n      dup2\n      mstore\n      0x20\n      add\n      0x03\n      dup3\n      add\n      0x00\n      swap1\n      sload\n      swap1\n      0x0100\n      exp\n      swap1\n      div\n      0xff\n      and\n      0x01\n      dup2\n      gt\n      iszero\n      tag_98\n      jumpi\n      tag_99\n      tag_84\n      jump\t// in\n    tag_99:\n    tag_98:\n      0x01\n      dup2\n      gt\n      iszero\n      tag_100\n      jumpi\n      tag_101\n      tag_84\n      jump\t// in\n    tag_101:\n    tag_100:\n      dup2\n      mstore\n      pop\n      pop\n        /* \"contracts/OrderBook.sol\":4835:4845  msg.sender */\n      caller\n        /* \"contracts/OrderBook.sol\":1740:1746  sender */\n      dup1\n        /* \"contracts/OrderBook.sol\":1713:1747  _order.customer == payable(sender) */\n      0xffffffffffffffffffffffffffffffffffffffff\n      and\n        /* \"contracts/OrderBook.sol\":1713:1719  _order */\n      dup3\n        /* \"contracts/OrderBook.sol\":1713:1728  _order.customer */\n      0x00\n      add\n      mload\n        /* \"contracts/OrderBook.sol\":1713:1747  _order.customer == payable(sender) */\n      0xffffffffffffffffffffffffffffffffffffffff\n      and\n      eq\n        /* \"contracts/OrderBook.sol\":1705:1766  require(_order.customer == payable(sender), \"Not Authorised\") */\n      tag_103\n      jumpi\n      mload(0x40)\n      0x08c379a000000000000000000000000000000000000000000000000000000000\n      dup2\n      mstore\n      0x04\n      add\n      tag_104\n      swap1\n      tag_105\n      jump\t// in\n    tag_104:\n      mload(0x40)\n      dup1\n      swap2\n      sub\n      swap1\n      revert\n    tag_103:\n        /* \"contracts/OrderBook.sol\":4864:4871  askBook */\n      0x03\n        /* \"contracts/OrderBook.sol\":4872:4877  askId */\n      dup5\n        /* \"contracts/OrderBook.sol\":4864:4878  askBook[askId] */\n      dup2\n      sload\n      dup2\n      lt\n      tag_107\n      jumpi\n      tag_108\n      tag_71\n      jump\t// in\n    tag_108:\n    tag_107:\n      swap1\n      0x00\n      mstore\n      keccak256(0x00, 0x20)\n      swap1\n      0x04\n      mul\n      add\n      0x00\n        /* \"contracts/OrderBook.sol\":4857:4878  delete askBook[askId] */\n      dup1\n      dup3\n      add\n      exp(0x0100, 0x00)\n      dup2\n      sload\n      swap1\n      0xffffffffffffffffffffffffffffffffffffffff\n      mul\n      not\n      and\n      swap1\n      sstore\n      0x01\n      dup3\n      add\n      0x00\n      swap1\n      sstore\n      0x02\n      dup3\n      add\n      0x00\n      swap1\n      sstore\n      0x03\n      dup3\n      add\n      exp(0x0100, 0x00)\n      dup2\n      sload\n      swap1\n      0xff\n      mul\n      not\n      and\n      swap1\n      sstore\n      pop\n      pop\n        /* \"contracts/OrderBook.sol\":4888:4897  sortAsk() */\n      tag_110\n        /* \"contracts/OrderBook.sol\":4888:4895  sortAsk */\n      tag_111\n        /* \"contracts/OrderBook.sol\":4888:4897  sortAsk() */\n      jump\t// in\n    tag_110:\n        /* \"contracts/OrderBook.sol\":4918:4937  askCancelled(askId) */\n      0x48d3043fff66c1aee14954ac5aa463b0297fb08c9b60ee00486fb3387bb58aac\n        /* \"contracts/OrderBook.sol\":4931:4936  askId */\n      dup5\n        /* \"contracts/OrderBook.sol\":4918:4937  askCancelled(askId) */\n      mload(0x40)\n      tag_112\n      swap2\n      swap1\n      tag_113\n      jump\t// in\n    tag_112:\n      mload(0x40)\n      dup1\n      swap2\n      sub\n      swap1\n      log1\n        /* \"contracts/OrderBook.sol\":1622:1623  _ */\n      pop\n      pop\n        /* \"contracts/OrderBook.sol\":4741:4944  function cancelAsk (uint askId) public isPending(askBook[askId]) isAuthorised(askBook[askId], msg.sender) {... */\n      pop\n      pop\n      jump\t// out\n        /* \"contracts/OrderBook.sol\":5962:6074  function getBidValue (uint id) public view returns(address payable) {... */\n    tag_27:\n        /* \"contracts/OrderBook.sol\":6013:6028  address payable */\n      0x00\n        /* \"contracts/OrderBook.sol\":6047:6054  bidBook */\n      0x02\n        /* \"contracts/OrderBook.sol\":6055:6057  id */\n      dup3\n        /* \"contracts/OrderBook.sol\":6047:6058  bidBook[id] */\n      dup2\n      sload\n      dup2\n      lt\n      tag_115\n      jumpi\n      tag_116\n      tag_71\n      jump\t// in\n    tag_116:\n    tag_115:\n      swap1\n      0x00\n      mstore\n      keccak256(0x00, 0x20)\n      swap1\n      0x04\n      mul\n      add\n        /* \"contracts/OrderBook.sol\":6047:6067  bidBook[id].customer */\n      0x00\n      add\n      0x00\n      swap1\n      sload\n      swap1\n      0x0100\n      exp\n      swap1\n      div\n      0xffffffffffffffffffffffffffffffffffffffff\n      and\n        /* \"contracts/OrderBook.sol\":6040:6067  return bidBook[id].customer */\n      swap1\n      pop\n        /* \"contracts/OrderBook.sol\":5962:6074  function getBidValue (uint id) public view returns(address payable) {... */\n      swap2\n      swap1\n      pop\n      jump\t// out\n        /* \"contracts/OrderBook.sol\":4950:5041  function fetchAllBid() public view returns (order[] memory) {... */\n    tag_32:\n        /* \"contracts/OrderBook.sol\":4994:5008  order[] memory */\n      0x60\n        /* \"contracts/OrderBook.sol\":5027:5034  bidBook */\n      0x02\n        /* \"contracts/OrderBook.sol\":5020:5034  return bidBook */\n      dup1\n      sload\n      dup1\n      0x20\n      mul\n      0x20\n      add\n      mload(0x40)\n      swap1\n      dup2\n      add\n      0x40\n      mstore\n      dup1\n      swap3\n      swap2\n      swap1\n      dup2\n      dup2\n      mstore\n      0x20\n      add\n      0x00\n      swap1\n    tag_119:\n      dup3\n      dup3\n      lt\n      iszero\n      tag_120\n      jumpi\n      dup4\n      dup3\n      swap1\n      0x00\n      mstore\n      keccak256(0x00, 0x20)\n      swap1\n      0x04\n      mul\n      add\n      mload(0x40)\n      dup1\n      0x80\n      add\n      0x40\n      mstore\n      swap1\n      dup2\n      0x00\n      dup3\n      add\n      0x00\n      swap1\n      sload\n      swap1\n      0x0100\n      exp\n      swap1\n      div\n      0xffffffffffffffffffffffffffffffffffffffff\n      and\n      0xffffffffffffffffffffffffffffffffffffffff\n      and\n      0xffffffffffffffffffffffffffffffffffffffff\n      and\n      dup2\n      mstore\n      0x20\n      add\n      0x01\n      dup3\n      add\n      sload\n      dup2\n      mstore\n      0x20\n      add\n      0x02\n      dup3\n      add\n      sload\n      dup2\n      mstore\n      0x20\n      add\n      0x03\n      dup3\n      add\n      0x00\n      swap1\n      sload\n      swap1\n      0x0100\n      exp\n      swap1\n      div\n      0xff\n      and\n      0x01\n      dup2\n      gt\n      iszero\n      tag_122\n      jumpi\n      tag_123\n      tag_84\n      jump\t// in\n    tag_123:\n    tag_122:\n      0x01\n      dup2\n      gt\n      iszero\n      tag_124\n      jumpi\n      tag_125\n      tag_84\n      jump\t// in\n    tag_125:\n    tag_124:\n      dup2\n      mstore\n      pop\n      pop\n      dup2\n      mstore\n      0x20\n      add\n      swap1\n      0x01\n      add\n      swap1\n      jump(tag_119)\n    tag_120:\n      pop\n      pop\n      pop\n      pop\n      swap1\n      pop\n        /* \"contracts/OrderBook.sol\":4950:5041  function fetchAllBid() public view returns (order[] memory) {... */\n      swap1\n      jump\t// out\n        /* \"contracts/OrderBook.sol\":5722:5836  function getBidAddress (uint id) public view returns(address payable) {... */\n    tag_38:\n        /* \"contracts/OrderBook.sol\":5775:5790  address payable */\n      0x00\n        /* \"contracts/OrderBook.sol\":5809:5816  bidBook */\n      0x02\n        /* \"contracts/OrderBook.sol\":5817:5819  id */\n      dup3\n        /* \"contracts/OrderBook.sol\":5809:5820  bidBook[id] */\n      dup2\n      sload\n      dup2\n      lt\n      tag_127\n      jumpi\n      tag_128\n      tag_71\n      jump\t// in\n    tag_128:\n    tag_127:\n      swap1\n      0x00\n      mstore\n      keccak256(0x00, 0x20)\n      swap1\n      0x04\n      mul\n      add\n        /* \"contracts/OrderBook.sol\":5809:5829  bidBook[id].customer */\n      0x00\n      add\n      0x00\n      swap1\n      sload\n      swap1\n      0x0100\n      exp\n      swap1\n      div\n      0xffffffffffffffffffffffffffffffffffffffff\n      and\n        /* \"contracts/OrderBook.sol\":5802:5829  return bidBook[id].customer */\n      swap1\n      pop\n        /* \"contracts/OrderBook.sol\":5722:5836  function getBidAddress (uint id) public view returns(address payable) {... */\n      swap2\n      swap1\n      pop\n      jump\t// out\n        /* \"contracts/OrderBook.sol\":5842:5956  function getAskAddress (uint id) public view returns(address payable) {... */\n    tag_43:\n        /* \"contracts/OrderBook.sol\":5895:5910  address payable */\n      0x00\n        /* \"contracts/OrderBook.sol\":5929:5936  askBook */\n      0x03\n        /* \"contracts/OrderBook.sol\":5937:5939  id */\n      dup3\n        /* \"contracts/OrderBook.sol\":5929:5940  askBook[id] */\n      dup2\n      sload\n      dup2\n      lt\n      tag_131\n      jumpi\n      tag_132\n      tag_71\n      jump\t// in\n    tag_132:\n    tag_131:\n      swap1\n      0x00\n      mstore\n      keccak256(0x00, 0x20)\n      swap1\n      0x04\n      mul\n      add\n        /* \"contracts/OrderBook.sol\":5929:5949  askBook[id].customer */\n      0x00\n      add\n      0x00\n      swap1\n      sload\n      swap1\n      0x0100\n      exp\n      swap1\n      div\n      0xffffffffffffffffffffffffffffffffffffffff\n      and\n        /* \"contracts/OrderBook.sol\":5922:5949  return askBook[id].customer */\n      swap1\n      pop\n        /* \"contracts/OrderBook.sol\":5842:5956  function getAskAddress (uint id) public view returns(address payable) {... */\n      swap2\n      swap1\n      pop\n      jump\t// out\n        /* \"contracts/OrderBook.sol\":4268:4735  function placeAsk (uint256 price) public payable {... */\n    tag_47:\n        /* \"contracts/OrderBook.sol\":4344:4345  0 */\n      0x00\n        /* \"contracts/OrderBook.sol\":4335:4340  price */\n      dup2\n        /* \"contracts/OrderBook.sol\":4335:4345  price >= 0 */\n      lt\n      iszero\n        /* \"contracts/OrderBook.sol\":4327:4381  require(price >= 0, \"price value must be more than 0\") */\n      tag_135\n      jumpi\n      mload(0x40)\n      0x08c379a000000000000000000000000000000000000000000000000000000000\n      dup2\n      mstore\n      0x04\n      add\n      tag_136\n      swap1\n      tag_137\n      jump\t// in\n    tag_136:\n      mload(0x40)\n      dup1\n      swap2\n      sub\n      swap1\n      revert\n    tag_135:\n        /* \"contracts/OrderBook.sol\":4412:4417  price */\n      dup1\n        /* \"contracts/OrderBook.sol\":4399:4408  msg.value */\n      callvalue\n        /* \"contracts/OrderBook.sol\":4399:4417  msg.value >= price */\n      lt\n      iszero\n        /* \"contracts/OrderBook.sol\":4391:4452  require(msg.value >= price, \"Not enough blance to place ask\") */\n      tag_138\n      jumpi\n      mload(0x40)\n      0x08c379a000000000000000000000000000000000000000000000000000000000\n      dup2\n      mstore\n      0x04\n      add\n      tag_139\n      swap1\n      tag_140\n      jump\t// in\n    tag_139:\n      mload(0x40)\n      dup1\n      swap2\n      sub\n      swap1\n      revert\n    tag_138:\n        /* \"contracts/OrderBook.sol\":4462:4474  uint256 time */\n      0x00\n        /* \"contracts/OrderBook.sol\":4477:4492  block.timestamp */\n      timestamp\n        /* \"contracts/OrderBook.sol\":4462:4492  uint256 time = block.timestamp */\n      swap1\n      pop\n        /* \"contracts/OrderBook.sol\":4502:4521  order memory newBid */\n      0x00\n        /* \"contracts/OrderBook.sol\":4524:4575  order(payable(msg.sender),price,time,State.pending) */\n      mload(0x40)\n      dup1\n      0x80\n      add\n      0x40\n      mstore\n      dup1\n        /* \"contracts/OrderBook.sol\":4538:4548  msg.sender */\n      caller\n        /* \"contracts/OrderBook.sol\":4524:4575  order(payable(msg.sender),price,time,State.pending) */\n      0xffffffffffffffffffffffffffffffffffffffff\n      and\n      dup2\n      mstore\n      0x20\n      add\n        /* \"contracts/OrderBook.sol\":4550:4555  price */\n      dup5\n        /* \"contracts/OrderBook.sol\":4524:4575  order(payable(msg.sender),price,time,State.pending) */\n      dup2\n      mstore\n      0x20\n      add\n        /* \"contracts/OrderBook.sol\":4556:4560  time */\n      dup4\n        /* \"contracts/OrderBook.sol\":4524:4575  order(payable(msg.sender),price,time,State.pending) */\n      dup2\n      mstore\n      0x20\n      add\n        /* \"contracts/OrderBook.sol\":4561:4574  State.pending */\n      0x00\n        /* \"contracts/OrderBook.sol\":4524:4575  order(payable(msg.sender),price,time,State.pending) */\n      0x01\n      dup2\n      gt\n      iszero\n      tag_141\n      jumpi\n      tag_142\n      tag_84\n      jump\t// in\n    tag_142:\n    tag_141:\n      dup2\n      mstore\n      pop\n        /* \"contracts/OrderBook.sol\":4502:4575  order memory newBid = order(payable(msg.sender),price,time,State.pending) */\n      swap1\n      pop\n        /* \"contracts/OrderBook.sol\":4585:4592  askBook */\n      0x03\n        /* \"contracts/OrderBook.sol\":4598:4604  newBid */\n      dup2\n        /* \"contracts/OrderBook.sol\":4585:4605  askBook.push(newBid) */\n      swap1\n      dup1\n      0x01\n      dup2\n      sload\n      add\n      dup1\n      dup3\n      sstore\n      dup1\n      swap2\n      pop\n      pop\n      0x01\n      swap1\n      sub\n      swap1\n      0x00\n      mstore\n      keccak256(0x00, 0x20)\n      swap1\n      0x04\n      mul\n      add\n      0x00\n      swap1\n      swap2\n      swap1\n      swap2\n      swap1\n      swap2\n      pop\n      0x00\n      dup3\n      add\n      mload\n      dup2\n      0x00\n      add\n      exp(0x0100, 0x00)\n      dup2\n      sload\n      dup2\n      0xffffffffffffffffffffffffffffffffffffffff\n      mul\n      not\n      and\n      swap1\n      dup4\n      0xffffffffffffffffffffffffffffffffffffffff\n      and\n      mul\n      or\n      swap1\n      sstore\n      pop\n      0x20\n      dup3\n      add\n      mload\n      dup2\n      0x01\n      add\n      sstore\n      0x40\n      dup3\n      add\n      mload\n      dup2\n      0x02\n      add\n      sstore\n      0x60\n      dup3\n      add\n      mload\n      dup2\n      0x03\n      add\n      exp(0x0100, 0x00)\n      dup2\n      sload\n      dup2\n      0xff\n      mul\n      not\n      and\n      swap1\n      dup4\n      0x01\n      dup2\n      gt\n      iszero\n      tag_144\n      jumpi\n      tag_145\n      tag_84\n      jump\t// in\n    tag_145:\n    tag_144:\n      mul\n      or\n      swap1\n      sstore\n      pop\n      pop\n      pop\n        /* \"contracts/OrderBook.sol\":4615:4621  _owner */\n      0x00\n      dup1\n      sload\n      swap1\n      0x0100\n      exp\n      swap1\n      div\n      0xffffffffffffffffffffffffffffffffffffffff\n      and\n        /* \"contracts/OrderBook.sol\":4615:4630  _owner.transfer */\n      0xffffffffffffffffffffffffffffffffffffffff\n      and\n        /* \"contracts/OrderBook.sol\":4615:4667  _owner.transfer(msg.value  * (100-commission) / 100) */\n      0x08fc\n        /* \"contracts/OrderBook.sol\":4663:4666  100 */\n      0x64\n        /* \"contracts/OrderBook.sol\":4649:4659  commission */\n      sload(0x01)\n        /* \"contracts/OrderBook.sol\":4645:4648  100 */\n      0x64\n        /* \"contracts/OrderBook.sol\":4645:4659  100-commission */\n      tag_146\n      swap2\n      swap1\n      tag_147\n      jump\t// in\n    tag_146:\n        /* \"contracts/OrderBook.sol\":4631:4640  msg.value */\n      callvalue\n        /* \"contracts/OrderBook.sol\":4631:4660  msg.value  * (100-commission) */\n      tag_148\n      swap2\n      swap1\n      tag_149\n      jump\t// in\n    tag_148:\n        /* \"contracts/OrderBook.sol\":4631:4666  msg.value  * (100-commission) / 100 */\n      tag_150\n      swap2\n      swap1\n      tag_151\n      jump\t// in\n    tag_150:\n        /* \"contracts/OrderBook.sol\":4615:4667  _owner.transfer(msg.value  * (100-commission) / 100) */\n      swap1\n      dup2\n      iszero\n      mul\n      swap1\n      mload(0x40)\n      0x00\n      mload(0x40)\n      dup1\n      dup4\n      sub\n      dup2\n      dup6\n      dup9\n      dup9\n      call\n      swap4\n      pop\n      pop\n      pop\n      pop\n      iszero\n      dup1\n      iszero\n      tag_153\n      jumpi\n      returndatasize\n      0x00\n      dup1\n      returndatacopy\n      revert(0x00, returndatasize)\n    tag_153:\n      pop\n        /* \"contracts/OrderBook.sol\":4682:4728  askPlaced(msg.sender,price,time,State.pending) */\n      0xc2125a7f3edfeff7a3bbcfe393c5aa3a6589585d4a7ee70db48c34f67c8209e2\n        /* \"contracts/OrderBook.sol\":4692:4702  msg.sender */\n      caller\n        /* \"contracts/OrderBook.sol\":4703:4708  price */\n      dup5\n        /* \"contracts/OrderBook.sol\":4709:4713  time */\n      dup5\n        /* \"contracts/OrderBook.sol\":4714:4727  State.pending */\n      0x00\n        /* \"contracts/OrderBook.sol\":4682:4728  askPlaced(msg.sender,price,time,State.pending) */\n      mload(0x40)\n      tag_154\n      swap5\n      swap4\n      swap3\n      swap2\n      swap1\n      tag_155\n      jump\t// in\n    tag_154:\n      mload(0x40)\n      dup1\n      swap2\n      sub\n      swap1\n      log1\n        /* \"contracts/OrderBook.sol\":4317:4735  {... */\n      pop\n      pop\n        /* \"contracts/OrderBook.sol\":4268:4735  function placeAsk (uint256 price) public payable {... */\n      pop\n      jump\t// out\n        /* \"contracts/OrderBook.sol\":4065:4262  function cancelBid (uint bidId) public isPending(bidBook[bidId]) isAuthorised(bidBook[bidId], msg.sender) {... */\n    tag_51:\n        /* \"contracts/OrderBook.sol\":4114:4121  bidBook */\n      0x02\n        /* \"contracts/OrderBook.sol\":4122:4127  bidId */\n      dup2\n        /* \"contracts/OrderBook.sol\":4114:4128  bidBook[bidId] */\n      dup2\n      sload\n      dup2\n      lt\n      tag_156\n      jumpi\n      tag_157\n      tag_71\n      jump\t// in\n    tag_157:\n    tag_156:\n      swap1\n      0x00\n      mstore\n      keccak256(0x00, 0x20)\n      swap1\n      0x04\n      mul\n      add\n        /* \"contracts/OrderBook.sol\":1507:1630  modifier isPending(order memory _order) {... */\n      mload(0x40)\n      dup1\n      0x80\n      add\n      0x40\n      mstore\n      swap1\n      dup2\n      0x00\n      dup3\n      add\n      0x00\n      swap1\n      sload\n      swap1\n      0x0100\n      exp\n      swap1\n      div\n      0xffffffffffffffffffffffffffffffffffffffff\n      and\n      0xffffffffffffffffffffffffffffffffffffffff\n      and\n      0xffffffffffffffffffffffffffffffffffffffff\n      and\n      dup2\n      mstore\n      0x20\n      add\n      0x01\n      dup3\n      add\n      sload\n      dup2\n      mstore\n      0x20\n      add\n      0x02\n      dup3\n      add\n      sload\n      dup2\n      mstore\n      0x20\n      add\n      0x03\n      dup3\n      add\n      0x00\n      swap1\n      sload\n      swap1\n      0x0100\n      exp\n      swap1\n      div\n      0xff\n      and\n      0x01\n      dup2\n      gt\n      iszero\n      tag_159\n      jumpi\n      tag_160\n      tag_84\n      jump\t// in\n    tag_160:\n    tag_159:\n      0x01\n      dup2\n      gt\n      iszero\n      tag_161\n      jumpi\n      tag_162\n      tag_84\n      jump\t// in\n    tag_162:\n    tag_161:\n      dup2\n      mstore\n      pop\n      pop\n        /* \"contracts/OrderBook.sol\":1581:1594  State.pending */\n      0x00\n        /* \"contracts/OrderBook.sol\":1565:1594  _order.state == State.pending */\n      0x01\n      dup2\n      gt\n      iszero\n      tag_164\n      jumpi\n      tag_165\n      tag_84\n      jump\t// in\n    tag_165:\n    tag_164:\n        /* \"contracts/OrderBook.sol\":1565:1571  _order */\n      dup2\n        /* \"contracts/OrderBook.sol\":1565:1577  _order.state */\n      0x60\n      add\n      mload\n        /* \"contracts/OrderBook.sol\":1565:1594  _order.state == State.pending */\n      0x01\n      dup2\n      gt\n      iszero\n      tag_166\n      jumpi\n      tag_167\n      tag_84\n      jump\t// in\n    tag_167:\n    tag_166:\n      eq\n        /* \"contracts/OrderBook.sol\":1557:1612  require(_order.state == State.pending, \"Order Pending\") */\n      tag_168\n      jumpi\n      mload(0x40)\n      0x08c379a000000000000000000000000000000000000000000000000000000000\n      dup2\n      mstore\n      0x04\n      add\n      tag_169\n      swap1\n      tag_94\n      jump\t// in\n    tag_169:\n      mload(0x40)\n      dup1\n      swap2\n      sub\n      swap1\n      revert\n    tag_168:\n        /* \"contracts/OrderBook.sol\":4143:4150  bidBook */\n      0x02\n        /* \"contracts/OrderBook.sol\":4151:4156  bidId */\n      dup3\n        /* \"contracts/OrderBook.sol\":4143:4157  bidBook[bidId] */\n      dup2\n      sload\n      dup2\n      lt\n      tag_170\n      jumpi\n      tag_171\n      tag_71\n      jump\t// in\n    tag_171:\n    tag_170:\n      swap1\n      0x00\n      mstore\n      keccak256(0x00, 0x20)\n      swap1\n      0x04\n      mul\n      add\n        /* \"contracts/OrderBook.sol\":1636:1784  modifier isAuthorised(order memory _order, address sender) {... */\n      mload(0x40)\n      dup1\n      0x80\n      add\n      0x40\n      mstore\n      swap1\n      dup2\n      0x00\n      dup3\n      add\n      0x00\n      swap1\n      sload\n      swap1\n      0x0100\n      exp\n      swap1\n      div\n      0xffffffffffffffffffffffffffffffffffffffff\n      and\n      0xffffffffffffffffffffffffffffffffffffffff\n      and\n      0xffffffffffffffffffffffffffffffffffffffff\n      and\n      dup2\n      mstore\n      0x20\n      add\n      0x01\n      dup3\n      add\n      sload\n      dup2\n      mstore\n      0x20\n      add\n      0x02\n      dup3\n      add\n      sload\n      dup2\n      mstore\n      0x20\n      add\n      0x03\n      dup3\n      add\n      0x00\n      swap1\n      sload\n      swap1\n      0x0100\n      exp\n      swap1\n      div\n      0xff\n      and\n      0x01\n      dup2\n      gt\n      iszero\n      tag_173\n      jumpi\n      tag_174\n      tag_84\n      jump\t// in\n    tag_174:\n    tag_173:\n      0x01\n      dup2\n      gt\n      iszero\n      tag_175\n      jumpi\n      tag_176\n      tag_84\n      jump\t// in\n    tag_176:\n    tag_175:\n      dup2\n      mstore\n      pop\n      pop\n        /* \"contracts/OrderBook.sol\":4159:4169  msg.sender */\n      caller\n        /* \"contracts/OrderBook.sol\":1740:1746  sender */\n      dup1\n        /* \"contracts/OrderBook.sol\":1713:1747  _order.customer == payable(sender) */\n      0xffffffffffffffffffffffffffffffffffffffff\n      and\n        /* \"contracts/OrderBook.sol\":1713:1719  _order */\n      dup3\n        /* \"contracts/OrderBook.sol\":1713:1728  _order.customer */\n      0x00\n      add\n      mload\n        /* \"contracts/OrderBook.sol\":1713:1747  _order.customer == payable(sender) */\n      0xffffffffffffffffffffffffffffffffffffffff\n      and\n      eq\n        /* \"contracts/OrderBook.sol\":1705:1766  require(_order.customer == payable(sender), \"Not Authorised\") */\n      tag_178\n      jumpi\n      mload(0x40)\n      0x08c379a000000000000000000000000000000000000000000000000000000000\n      dup2\n      mstore\n      0x04\n      add\n      tag_179\n      swap1\n      tag_105\n      jump\t// in\n    tag_179:\n      mload(0x40)\n      dup1\n      swap2\n      sub\n      swap1\n      revert\n    tag_178:\n        /* \"contracts/OrderBook.sol\":4188:4195  bidBook */\n      0x02\n        /* \"contracts/OrderBook.sol\":4196:4201  bidId */\n      dup5\n        /* \"contracts/OrderBook.sol\":4188:4202  bidBook[bidId] */\n      dup2\n      sload\n      dup2\n      lt\n      tag_181\n      jumpi\n      tag_182\n      tag_71\n      jump\t// in\n    tag_182:\n    tag_181:\n      swap1\n      0x00\n      mstore\n      keccak256(0x00, 0x20)\n      swap1\n      0x04\n      mul\n      add\n      0x00\n        /* \"contracts/OrderBook.sol\":4181:4202  delete bidBook[bidId] */\n      dup1\n      dup3\n      add\n      exp(0x0100, 0x00)\n      dup2\n      sload\n      swap1\n      0xffffffffffffffffffffffffffffffffffffffff\n      mul\n      not\n      and\n      swap1\n      sstore\n      0x01\n      dup3\n      add\n      0x00\n      swap1\n      sstore\n      0x02\n      dup3\n      add\n      0x00\n      swap1\n      sstore\n      0x03\n      dup3\n      add\n      exp(0x0100, 0x00)\n      dup2\n      sload\n      swap1\n      0xff\n      mul\n      not\n      and\n      swap1\n      sstore\n      pop\n      pop\n        /* \"contracts/OrderBook.sol\":4212:4221  sortBid() */\n      tag_184\n        /* \"contracts/OrderBook.sol\":4212:4219  sortBid */\n      tag_185\n        /* \"contracts/OrderBook.sol\":4212:4221  sortBid() */\n      jump\t// in\n    tag_184:\n        /* \"contracts/OrderBook.sol\":4236:4255  bidCancelled(bidId) */\n      0xc845a6832afa0a4048dd70bbba2186093508a6b63a8d5d70a508f819fef257f8\n        /* \"contracts/OrderBook.sol\":4249:4254  bidId */\n      dup5\n        /* \"contracts/OrderBook.sol\":4236:4255  bidCancelled(bidId) */\n      mload(0x40)\n      tag_186\n      swap2\n      swap1\n      tag_113\n      jump\t// in\n    tag_186:\n      mload(0x40)\n      dup1\n      swap2\n      sub\n      swap1\n      log1\n        /* \"contracts/OrderBook.sol\":1622:1623  _ */\n      pop\n      pop\n        /* \"contracts/OrderBook.sol\":4065:4262  function cancelBid (uint bidId) public isPending(bidBook[bidId]) isAuthorised(bidBook[bidId], msg.sender) {... */\n      pop\n      pop\n      jump\t// out\n        /* \"contracts/OrderBook.sol\":3593:4059  function placeBid (uint256 price) public payable {... */\n    tag_54:\n        /* \"contracts/OrderBook.sol\":3669:3670  0 */\n      0x00\n        /* \"contracts/OrderBook.sol\":3660:3665  price */\n      dup2\n        /* \"contracts/OrderBook.sol\":3660:3670  price >= 0 */\n      lt\n      iszero\n        /* \"contracts/OrderBook.sol\":3652:3706  require(price >= 0, \"price value must be more than 0\") */\n      tag_188\n      jumpi\n      mload(0x40)\n      0x08c379a000000000000000000000000000000000000000000000000000000000\n      dup2\n      mstore\n      0x04\n      add\n      tag_189\n      swap1\n      tag_137\n      jump\t// in\n    tag_189:\n      mload(0x40)\n      dup1\n      swap2\n      sub\n      swap1\n      revert\n    tag_188:\n        /* \"contracts/OrderBook.sol\":3737:3742  price */\n      dup1\n        /* \"contracts/OrderBook.sol\":3724:3733  msg.value */\n      callvalue\n        /* \"contracts/OrderBook.sol\":3724:3742  msg.value >= price */\n      lt\n      iszero\n        /* \"contracts/OrderBook.sol\":3716:3777  require(msg.value >= price, \"Not enough blance to place bid\") */\n      tag_190\n      jumpi\n      mload(0x40)\n      0x08c379a000000000000000000000000000000000000000000000000000000000\n      dup2\n      mstore\n      0x04\n      add\n      tag_191\n      swap1\n      tag_192\n      jump\t// in\n    tag_191:\n      mload(0x40)\n      dup1\n      swap2\n      sub\n      swap1\n      revert\n    tag_190:\n        /* \"contracts/OrderBook.sol\":3787:3799  uint256 time */\n      0x00\n        /* \"contracts/OrderBook.sol\":3802:3817  block.timestamp */\n      timestamp\n        /* \"contracts/OrderBook.sol\":3787:3817  uint256 time = block.timestamp */\n      swap1\n      pop\n        /* \"contracts/OrderBook.sol\":3827:3846  order memory newBid */\n      0x00\n        /* \"contracts/OrderBook.sol\":3849:3900  order(payable(msg.sender),price,time,State.pending) */\n      mload(0x40)\n      dup1\n      0x80\n      add\n      0x40\n      mstore\n      dup1\n        /* \"contracts/OrderBook.sol\":3863:3873  msg.sender */\n      caller\n        /* \"contracts/OrderBook.sol\":3849:3900  order(payable(msg.sender),price,time,State.pending) */\n      0xffffffffffffffffffffffffffffffffffffffff\n      and\n      dup2\n      mstore\n      0x20\n      add\n        /* \"contracts/OrderBook.sol\":3875:3880  price */\n      dup5\n        /* \"contracts/OrderBook.sol\":3849:3900  order(payable(msg.sender),price,time,State.pending) */\n      dup2\n      mstore\n      0x20\n      add\n        /* \"contracts/OrderBook.sol\":3881:3885  time */\n      dup4\n        /* \"contracts/OrderBook.sol\":3849:3900  order(payable(msg.sender),price,time,State.pending) */\n      dup2\n      mstore\n      0x20\n      add\n        /* \"contracts/OrderBook.sol\":3886:3899  State.pending */\n      0x00\n        /* \"contracts/OrderBook.sol\":3849:3900  order(payable(msg.sender),price,time,State.pending) */\n      0x01\n      dup2\n      gt\n      iszero\n      tag_193\n      jumpi\n      tag_194\n      tag_84\n      jump\t// in\n    tag_194:\n    tag_193:\n      dup2\n      mstore\n      pop\n        /* \"contracts/OrderBook.sol\":3827:3900  order memory newBid = order(payable(msg.sender),price,time,State.pending) */\n      swap1\n      pop\n        /* \"contracts/OrderBook.sol\":3910:3917  bidBook */\n      0x02\n        /* \"contracts/OrderBook.sol\":3923:3929  newBid */\n      dup2\n        /* \"contracts/OrderBook.sol\":3910:3930  bidBook.push(newBid) */\n      swap1\n      dup1\n      0x01\n      dup2\n      sload\n      add\n      dup1\n      dup3\n      sstore\n      dup1\n      swap2\n      pop\n      pop\n      0x01\n      swap1\n      sub\n      swap1\n      0x00\n      mstore\n      keccak256(0x00, 0x20)\n      swap1\n      0x04\n      mul\n      add\n      0x00\n      swap1\n      swap2\n      swap1\n      swap2\n      swap1\n      swap2\n      pop\n      0x00\n      dup3\n      add\n      mload\n      dup2\n      0x00\n      add\n      exp(0x0100, 0x00)\n      dup2\n      sload\n      dup2\n      0xffffffffffffffffffffffffffffffffffffffff\n      mul\n      not\n      and\n      swap1\n      dup4\n      0xffffffffffffffffffffffffffffffffffffffff\n      and\n      mul\n      or\n      swap1\n      sstore\n      pop\n      0x20\n      dup3\n      add\n      mload\n      dup2\n      0x01\n      add\n      sstore\n      0x40\n      dup3\n      add\n      mload\n      dup2\n      0x02\n      add\n      sstore\n      0x60\n      dup3\n      add\n      mload\n      dup2\n      0x03\n      add\n      exp(0x0100, 0x00)\n      dup2\n      sload\n      dup2\n      0xff\n      mul\n      not\n      and\n      swap1\n      dup4\n      0x01\n      dup2\n      gt\n      iszero\n      tag_196\n      jumpi\n      tag_197\n      tag_84\n      jump\t// in\n    tag_197:\n    tag_196:\n      mul\n      or\n      swap1\n      sstore\n      pop\n      pop\n      pop\n        /* \"contracts/OrderBook.sol\":3940:3946  _owner */\n      0x00\n      dup1\n      sload\n      swap1\n      0x0100\n      exp\n      swap1\n      div\n      0xffffffffffffffffffffffffffffffffffffffff\n      and\n        /* \"contracts/OrderBook.sol\":3940:3955  _owner.transfer */\n      0xffffffffffffffffffffffffffffffffffffffff\n      and\n        /* \"contracts/OrderBook.sol\":3940:3991  _owner.transfer(msg.value * (100-commission) / 100) */\n      0x08fc\n        /* \"contracts/OrderBook.sol\":3987:3990  100 */\n      0x64\n        /* \"contracts/OrderBook.sol\":3973:3983  commission */\n      sload(0x01)\n        /* \"contracts/OrderBook.sol\":3969:3972  100 */\n      0x64\n        /* \"contracts/OrderBook.sol\":3969:3983  100-commission */\n      tag_198\n      swap2\n      swap1\n      tag_147\n      jump\t// in\n    tag_198:\n        /* \"contracts/OrderBook.sol\":3956:3965  msg.value */\n      callvalue\n        /* \"contracts/OrderBook.sol\":3956:3984  msg.value * (100-commission) */\n      tag_199\n      swap2\n      swap1\n      tag_149\n      jump\t// in\n    tag_199:\n        /* \"contracts/OrderBook.sol\":3956:3990  msg.value * (100-commission) / 100 */\n      tag_200\n      swap2\n      swap1\n      tag_151\n      jump\t// in\n    tag_200:\n        /* \"contracts/OrderBook.sol\":3940:3991  _owner.transfer(msg.value * (100-commission) / 100) */\n      swap1\n      dup2\n      iszero\n      mul\n      swap1\n      mload(0x40)\n      0x00\n      mload(0x40)\n      dup1\n      dup4\n      sub\n      dup2\n      dup6\n      dup9\n      dup9\n      call\n      swap4\n      pop\n      pop\n      pop\n      pop\n      iszero\n      dup1\n      iszero\n      tag_202\n      jumpi\n      returndatasize\n      0x00\n      dup1\n      returndatacopy\n      revert(0x00, returndatasize)\n    tag_202:\n      pop\n        /* \"contracts/OrderBook.sol\":4006:4052  bidPlaced(msg.sender,price,time,State.pending) */\n      0xa64806d6d5d480697a0b11c92b915a4ff7b93c0be28171d65d30041a0c360d04\n        /* \"contracts/OrderBook.sol\":4016:4026  msg.sender */\n      caller\n        /* \"contracts/OrderBook.sol\":4027:4032  price */\n      dup5\n        /* \"contracts/OrderBook.sol\":4033:4037  time */\n      dup5\n        /* \"contracts/OrderBook.sol\":4038:4051  State.pending */\n      0x00\n        /* \"contracts/OrderBook.sol\":4006:4052  bidPlaced(msg.sender,price,time,State.pending) */\n      mload(0x40)\n      tag_203\n      swap5\n      swap4\n      swap3\n      swap2\n      swap1\n      tag_155\n      jump\t// in\n    tag_203:\n      mload(0x40)\n      dup1\n      swap2\n      sub\n      swap1\n      log1\n        /* \"contracts/OrderBook.sol\":3642:4059  {... */\n      pop\n      pop\n        /* \"contracts/OrderBook.sol\":3593:4059  function placeBid (uint256 price) public payable {... */\n      pop\n      jump\t// out\n        /* \"contracts/OrderBook.sol\":5047:5138  function fetchAllAsk() public view returns (order[] memory) {... */\n    tag_57:\n        /* \"contracts/OrderBook.sol\":5091:5105  order[] memory */\n      0x60\n        /* \"contracts/OrderBook.sol\":5124:5131  askBook */\n      0x03\n        /* \"contracts/OrderBook.sol\":5117:5131  return askBook */\n      dup1\n      sload\n      dup1\n      0x20\n      mul\n      0x20\n      add\n      mload(0x40)\n      swap1\n      dup2\n      add\n      0x40\n      mstore\n      dup1\n      swap3\n      swap2\n      swap1\n      dup2\n      dup2\n      mstore\n      0x20\n      add\n      0x00\n      swap1\n    tag_205:\n      dup3\n      dup3\n      lt\n      iszero\n      tag_206\n      jumpi\n      dup4\n      dup3\n      swap1\n      0x00\n      mstore\n      keccak256(0x00, 0x20)\n      swap1\n      0x04\n      mul\n      add\n      mload(0x40)\n      dup1\n      0x80\n      add\n      0x40\n      mstore\n      swap1\n      dup2\n      0x00\n      dup3\n      add\n      0x00\n      swap1\n      sload\n      swap1\n      0x0100\n      exp\n      swap1\n      div\n      0xffffffffffffffffffffffffffffffffffffffff\n      and\n      0xffffffffffffffffffffffffffffffffffffffff\n      and\n      0xffffffffffffffffffffffffffffffffffffffff\n      and\n      dup2\n      mstore\n      0x20\n      add\n      0x01\n      dup3\n      add\n      sload\n      dup2\n      mstore\n      0x20\n      add\n      0x02\n      dup3\n      add\n      sload\n      dup2\n      mstore\n      0x20\n      add\n      0x03\n      dup3\n      add\n      0x00\n      swap1\n      sload\n      swap1\n      0x0100\n      exp\n      swap1\n      div\n      0xff\n      and\n      0x01\n      dup2\n      gt\n      iszero\n      tag_208\n      jumpi\n      tag_209\n      tag_84\n      jump\t// in\n    tag_209:\n    tag_208:\n      0x01\n      dup2\n      gt\n      iszero\n      tag_210\n      jumpi\n      tag_211\n      tag_84\n      jump\t// in\n    tag_211:\n    tag_210:\n      dup2\n      mstore\n      pop\n      pop\n      dup2\n      mstore\n      0x20\n      add\n      swap1\n      0x01\n      add\n      swap1\n      jump(tag_205)\n    tag_206:\n      pop\n      pop\n      pop\n      pop\n      swap1\n      pop\n        /* \"contracts/OrderBook.sol\":5047:5138  function fetchAllAsk() public view returns (order[] memory) {... */\n      swap1\n      jump\t// out\n        /* \"contracts/OrderBook.sol\":5144:5427  function fetchYourBidIds() public returns (uint[] memory) {... */\n    tag_61:\n        /* \"contracts/OrderBook.sol\":5187:5200  uint[] memory */\n      0x60\n        /* \"contracts/OrderBook.sol\":5212:5225  deleteArray() */\n      tag_213\n        /* \"contracts/OrderBook.sol\":5212:5223  deleteArray */\n      tag_65\n        /* \"contracts/OrderBook.sol\":5212:5225  deleteArray() */\n      jump\t// in\n    tag_213:\n        /* \"contracts/OrderBook.sol\":5240:5246  uint i */\n      0x00\n        /* \"contracts/OrderBook.sol\":5235:5397  for (uint i = 0; i < bidBook.length; i++) {... */\n    tag_214:\n        /* \"contracts/OrderBook.sol\":5256:5263  bidBook */\n      0x02\n        /* \"contracts/OrderBook.sol\":5256:5270  bidBook.length */\n      dup1\n      sload\n      swap1\n      pop\n        /* \"contracts/OrderBook.sol\":5252:5253  i */\n      dup2\n        /* \"contracts/OrderBook.sol\":5252:5270  i < bidBook.length */\n      lt\n        /* \"contracts/OrderBook.sol\":5235:5397  for (uint i = 0; i < bidBook.length; i++) {... */\n      iszero\n      tag_215\n      jumpi\n        /* \"contracts/OrderBook.sol\":5326:5336  msg.sender */\n      caller\n        /* \"contracts/OrderBook.sol\":5295:5337  bidBook[i].customer == payable(msg.sender) */\n      0xffffffffffffffffffffffffffffffffffffffff\n      and\n        /* \"contracts/OrderBook.sol\":5295:5302  bidBook */\n      0x02\n        /* \"contracts/OrderBook.sol\":5303:5304  i */\n      dup3\n        /* \"contracts/OrderBook.sol\":5295:5305  bidBook[i] */\n      dup2\n      sload\n      dup2\n      lt\n      tag_217\n      jumpi\n      tag_218\n      tag_71\n      jump\t// in\n    tag_218:\n    tag_217:\n      swap1\n      0x00\n      mstore\n      keccak256(0x00, 0x20)\n      swap1\n      0x04\n      mul\n      add\n        /* \"contracts/OrderBook.sol\":5295:5314  bidBook[i].customer */\n      0x00\n      add\n      0x00\n      swap1\n      sload\n      swap1\n      0x0100\n      exp\n      swap1\n      div\n      0xffffffffffffffffffffffffffffffffffffffff\n      and\n        /* \"contracts/OrderBook.sol\":5295:5337  bidBook[i].customer == payable(msg.sender) */\n      0xffffffffffffffffffffffffffffffffffffffff\n      and\n      sub\n        /* \"contracts/OrderBook.sol\":5291:5387  if (bidBook[i].customer == payable(msg.sender)) {... */\n      tag_220\n      jumpi\n        /* \"contracts/OrderBook.sol\":5357:5364  request */\n      0x04\n        /* \"contracts/OrderBook.sol\":5370:5371  i */\n      dup2\n        /* \"contracts/OrderBook.sol\":5357:5372  request.push(i) */\n      swap1\n      dup1\n      0x01\n      dup2\n      sload\n      add\n      dup1\n      dup3\n      sstore\n      dup1\n      swap2\n      pop\n      pop\n      0x01\n      swap1\n      sub\n      swap1\n      0x00\n      mstore\n      keccak256(0x00, 0x20)\n      add\n      0x00\n      swap1\n      swap2\n      swap1\n      swap2\n      swap1\n      swap2\n      pop\n      sstore\n        /* \"contracts/OrderBook.sol\":5291:5387  if (bidBook[i].customer == payable(msg.sender)) {... */\n    tag_220:\n        /* \"contracts/OrderBook.sol\":5272:5275  i++ */\n      dup1\n      dup1\n      tag_222\n      swap1\n      tag_76\n      jump\t// in\n    tag_222:\n      swap2\n      pop\n      pop\n        /* \"contracts/OrderBook.sol\":5235:5397  for (uint i = 0; i < bidBook.length; i++) {... */\n      jump(tag_214)\n    tag_215:\n      pop\n        /* \"contracts/OrderBook.sol\":5413:5420  request */\n      0x04\n        /* \"contracts/OrderBook.sol\":5406:5420  return request */\n      dup1\n      sload\n      dup1\n      0x20\n      mul\n      0x20\n      add\n      mload(0x40)\n      swap1\n      dup2\n      add\n      0x40\n      mstore\n      dup1\n      swap3\n      swap2\n      swap1\n      dup2\n      dup2\n      mstore\n      0x20\n      add\n      dup3\n      dup1\n      sload\n      dup1\n      iszero\n      tag_223\n      jumpi\n      0x20\n      mul\n      dup3\n      add\n      swap2\n      swap1\n      0x00\n      mstore\n      keccak256(0x00, 0x20)\n      swap1\n    tag_224:\n      dup2\n      sload\n      dup2\n      mstore\n      0x20\n      add\n      swap1\n      0x01\n      add\n      swap1\n      dup1\n      dup4\n      gt\n      tag_224\n      jumpi\n    tag_223:\n      pop\n      pop\n      pop\n      pop\n      pop\n      swap1\n      pop\n        /* \"contracts/OrderBook.sol\":5144:5427  function fetchYourBidIds() public returns (uint[] memory) {... */\n      swap1\n      jump\t// out\n        /* \"contracts/OrderBook.sol\":2069:2202  function deleteArray() internal {... */\n    tag_65:\n        /* \"contracts/OrderBook.sol\":2116:2122  uint i */\n      0x00\n        /* \"contracts/OrderBook.sol\":2111:2196  for (uint i = 0; i < request.length; i ++) {... */\n    tag_226:\n        /* \"contracts/OrderBook.sol\":2132:2139  request */\n      0x04\n        /* \"contracts/OrderBook.sol\":2132:2146  request.length */\n      dup1\n      sload\n      swap1\n      pop\n        /* \"contracts/OrderBook.sol\":2128:2129  i */\n      dup2\n        /* \"contracts/OrderBook.sol\":2128:2146  i < request.length */\n      lt\n        /* \"contracts/OrderBook.sol\":2111:2196  for (uint i = 0; i < request.length; i ++) {... */\n      iszero\n      tag_227\n      jumpi\n        /* \"contracts/OrderBook.sol\":2175:2182  request */\n      0x04\n        /* \"contracts/OrderBook.sol\":2183:2184  i */\n      dup2\n        /* \"contracts/OrderBook.sol\":2175:2185  request[i] */\n      dup2\n      sload\n      dup2\n      lt\n      tag_229\n      jumpi\n      tag_230\n      tag_71\n      jump\t// in\n    tag_230:\n    tag_229:\n      swap1\n      0x00\n      mstore\n      keccak256(0x00, 0x20)\n      add\n        /* \"contracts/OrderBook.sol\":2168:2185  delete request[i] */\n      0x00\n      swap1\n      sstore\n        /* \"contracts/OrderBook.sol\":2148:2152  i ++ */\n      dup1\n      dup1\n      tag_232\n      swap1\n      tag_76\n      jump\t// in\n    tag_232:\n      swap2\n      pop\n      pop\n        /* \"contracts/OrderBook.sol\":2111:2196  for (uint i = 0; i < request.length; i ++) {... */\n      jump(tag_226)\n    tag_227:\n      pop\n        /* \"contracts/OrderBook.sol\":2069:2202  function deleteArray() internal {... */\n      jump\t// out\n        /* \"contracts/OrderBook.sol\":1944:2063  function sortAsk() internal {... */\n    tag_111:\n        /* \"contracts/OrderBook.sol\":1981:2041  ascendingQuickSort(bidBook, int(0), int(bidBook.length - 1)) */\n      tag_234\n        /* \"contracts/OrderBook.sol\":2000:2007  bidBook */\n      0x02\n        /* \"contracts/OrderBook.sol\":1981:2041  ascendingQuickSort(bidBook, int(0), int(bidBook.length - 1)) */\n      dup1\n      sload\n      dup1\n      0x20\n      mul\n      0x20\n      add\n      mload(0x40)\n      swap1\n      dup2\n      add\n      0x40\n      mstore\n      dup1\n      swap3\n      swap2\n      swap1\n      dup2\n      dup2\n      mstore\n      0x20\n      add\n      0x00\n      swap1\n    tag_235:\n      dup3\n      dup3\n      lt\n      iszero\n      tag_236\n      jumpi\n      dup4\n      dup3\n      swap1\n      0x00\n      mstore\n      keccak256(0x00, 0x20)\n      swap1\n      0x04\n      mul\n      add\n      mload(0x40)\n      dup1\n      0x80\n      add\n      0x40\n      mstore\n      swap1\n      dup2\n      0x00\n      dup3\n      add\n      0x00\n      swap1\n      sload\n      swap1\n      0x0100\n      exp\n      swap1\n      div\n      0xffffffffffffffffffffffffffffffffffffffff\n      and\n      0xffffffffffffffffffffffffffffffffffffffff\n      and\n      0xffffffffffffffffffffffffffffffffffffffff\n      and\n      dup2\n      mstore\n      0x20\n      add\n      0x01\n      dup3\n      add\n      sload\n      dup2\n      mstore\n      0x20\n      add\n      0x02\n      dup3\n      add\n      sload\n      dup2\n      mstore\n      0x20\n      add\n      0x03\n      dup3\n      add\n      0x00\n      swap1\n      sload\n      swap1\n      0x0100\n      exp\n      swap1\n      div\n      0xff\n      and\n      0x01\n      dup2\n      gt\n      iszero\n      tag_238\n      jumpi\n      tag_239\n      tag_84\n      jump\t// in\n    tag_239:\n    tag_238:\n      0x01\n      dup2\n      gt\n      iszero\n      tag_240\n      jumpi\n      tag_241\n      tag_84\n      jump\t// in\n    tag_241:\n    tag_240:\n      dup2\n      mstore\n      pop\n      pop\n      dup2\n      mstore\n      0x20\n      add\n      swap1\n      0x01\n      add\n      swap1\n      jump(tag_235)\n    tag_236:\n      pop\n      pop\n      pop\n      pop\n        /* \"contracts/OrderBook.sol\":2013:2014  0 */\n      0x00\n        /* \"contracts/OrderBook.sol\":2038:2039  1 */\n      0x01\n        /* \"contracts/OrderBook.sol\":2021:2028  bidBook */\n      0x02\n        /* \"contracts/OrderBook.sol\":2021:2035  bidBook.length */\n      dup1\n      sload\n      swap1\n      pop\n        /* \"contracts/OrderBook.sol\":2021:2039  bidBook.length - 1 */\n      tag_242\n      swap2\n      swap1\n      tag_147\n      jump\t// in\n    tag_242:\n        /* \"contracts/OrderBook.sol\":1981:1999  ascendingQuickSort */\n      tag_243\n        /* \"contracts/OrderBook.sol\":1981:2041  ascendingQuickSort(bidBook, int(0), int(bidBook.length - 1)) */\n      jump\t// in\n    tag_234:\n        /* \"contracts/OrderBook.sol\":1944:2063  function sortAsk() internal {... */\n      jump\t// out\n        /* \"contracts/OrderBook.sol\":1818:1938  function sortBid() internal {... */\n    tag_185:\n        /* \"contracts/OrderBook.sol\":1855:1916  descendingQuickSort(bidBook, int(0), int(bidBook.length - 1)) */\n      tag_245\n        /* \"contracts/OrderBook.sol\":1875:1882  bidBook */\n      0x02\n        /* \"contracts/OrderBook.sol\":1855:1916  descendingQuickSort(bidBook, int(0), int(bidBook.length - 1)) */\n      dup1\n      sload\n      dup1\n      0x20\n      mul\n      0x20\n      add\n      mload(0x40)\n      swap1\n      dup2\n      add\n      0x40\n      mstore\n      dup1\n      swap3\n      swap2\n      swap1\n      dup2\n      dup2\n      mstore\n      0x20\n      add\n      0x00\n      swap1\n    tag_246:\n      dup3\n      dup3\n      lt\n      iszero\n      tag_247\n      jumpi\n      dup4\n      dup3\n      swap1\n      0x00\n      mstore\n      keccak256(0x00, 0x20)\n      swap1\n      0x04\n      mul\n      add\n      mload(0x40)\n      dup1\n      0x80\n      add\n      0x40\n      mstore\n      swap1\n      dup2\n      0x00\n      dup3\n      add\n      0x00\n      swap1\n      sload\n      swap1\n      0x0100\n      exp\n      swap1\n      div\n      0xffffffffffffffffffffffffffffffffffffffff\n      and\n      0xffffffffffffffffffffffffffffffffffffffff\n      and\n      0xffffffffffffffffffffffffffffffffffffffff\n      and\n      dup2\n      mstore\n      0x20\n      add\n      0x01\n      dup3\n      add\n      sload\n      dup2\n      mstore\n      0x20\n      add\n      0x02\n      dup3\n      add\n      sload\n      dup2\n      mstore\n      0x20\n      add\n      0x03\n      dup3\n      add\n      0x00\n      swap1\n      sload\n      swap1\n      0x0100\n      exp\n      swap1\n      div\n      0xff\n      and\n      0x01\n      dup2\n      gt\n      iszero\n      tag_249\n      jumpi\n      tag_250\n      tag_84\n      jump\t// in\n    tag_250:\n    tag_249:\n      0x01\n      dup2\n      gt\n      iszero\n      tag_251\n      jumpi\n      tag_252\n      tag_84\n      jump\t// in\n    tag_252:\n    tag_251:\n      dup2\n      mstore\n      pop\n      pop\n      dup2\n      mstore\n      0x20\n      add\n      swap1\n      0x01\n      add\n      swap1\n      jump(tag_246)\n    tag_247:\n      pop\n      pop\n      pop\n      pop\n        /* \"contracts/OrderBook.sol\":1888:1889  0 */\n      0x00\n        /* \"contracts/OrderBook.sol\":1913:1914  1 */\n      0x01\n        /* \"contracts/OrderBook.sol\":1896:1903  bidBook */\n      0x02\n        /* \"contracts/OrderBook.sol\":1896:1910  bidBook.length */\n      dup1\n      sload\n      swap1\n      pop\n        /* \"contracts/OrderBook.sol\":1896:1914  bidBook.length - 1 */\n      tag_253\n      swap2\n      swap1\n      tag_147\n      jump\t// in\n    tag_253:\n        /* \"contracts/OrderBook.sol\":1855:1874  descendingQuickSort */\n      tag_254\n        /* \"contracts/OrderBook.sol\":1855:1916  descendingQuickSort(bidBook, int(0), int(bidBook.length - 1)) */\n      jump\t// in\n    tag_245:\n        /* \"contracts/OrderBook.sol\":1818:1938  function sortBid() internal {... */\n      jump\t// out\n        /* \"contracts/OrderBook.sol\":2887:3557  function ascendingQuickSort(order[] memory arr, int left, int right) internal{... */\n    tag_243:\n        /* \"contracts/OrderBook.sol\":2974:2979  int i */\n      0x00\n        /* \"contracts/OrderBook.sol\":2982:2986  left */\n      dup3\n        /* \"contracts/OrderBook.sol\":2974:2986  int i = left */\n      swap1\n      pop\n        /* \"contracts/OrderBook.sol\":2996:3001  int j */\n      0x00\n        /* \"contracts/OrderBook.sol\":3004:3009  right */\n      dup3\n        /* \"contracts/OrderBook.sol\":2996:3009  int j = right */\n      swap1\n      pop\n        /* \"contracts/OrderBook.sol\":3025:3026  j */\n      dup1\n        /* \"contracts/OrderBook.sol\":3022:3023  i */\n      dup3\n        /* \"contracts/OrderBook.sol\":3022:3026  i==j */\n      sub\n        /* \"contracts/OrderBook.sol\":3019:3035  if(i==j) return; */\n      tag_256\n      jumpi\n        /* \"contracts/OrderBook.sol\":3028:3035  return; */\n      pop\n      pop\n      jump(tag_255)\n        /* \"contracts/OrderBook.sol\":3019:3035  if(i==j) return; */\n    tag_256:\n        /* \"contracts/OrderBook.sol\":3044:3057  uint256 pivot */\n      0x00\n        /* \"contracts/OrderBook.sol\":3060:3063  arr */\n      dup6\n        /* \"contracts/OrderBook.sol\":3093:3094  2 */\n      0x02\n        /* \"contracts/OrderBook.sol\":3085:3089  left */\n      dup7\n        /* \"contracts/OrderBook.sol\":3077:3082  right */\n      dup7\n        /* \"contracts/OrderBook.sol\":3077:3089  right - left */\n      tag_257\n      swap2\n      swap1\n      tag_258\n      jump\t// in\n    tag_257:\n        /* \"contracts/OrderBook.sol\":3076:3094  (right - left) / 2 */\n      tag_259\n      swap2\n      swap1\n      tag_260\n      jump\t// in\n    tag_259:\n        /* \"contracts/OrderBook.sol\":3069:3073  left */\n      dup7\n        /* \"contracts/OrderBook.sol\":3069:3094  left + (right - left) / 2 */\n      tag_261\n      swap2\n      swap1\n      tag_262\n      jump\t// in\n    tag_261:\n        /* \"contracts/OrderBook.sol\":3060:3096  arr[uint(left + (right - left) / 2)] */\n      dup2\n      mload\n      dup2\n      lt\n      tag_263\n      jumpi\n      tag_264\n      tag_71\n      jump\t// in\n    tag_264:\n    tag_263:\n      0x20\n      mul\n      0x20\n      add\n      add\n      mload\n        /* \"contracts/OrderBook.sol\":3060:3106  arr[uint(left + (right - left) / 2)].timestamp */\n      0x40\n      add\n      mload\n        /* \"contracts/OrderBook.sol\":3044:3106  uint256 pivot = arr[uint(left + (right - left) / 2)].timestamp */\n      swap1\n      pop\n        /* \"contracts/OrderBook.sol\":3116:3413  while (i <= j) {... */\n    tag_265:\n        /* \"contracts/OrderBook.sol\":3128:3129  j */\n      dup2\n        /* \"contracts/OrderBook.sol\":3123:3124  i */\n      dup4\n        /* \"contracts/OrderBook.sol\":3123:3129  i <= j */\n      sgt\n        /* \"contracts/OrderBook.sol\":3116:3413  while (i <= j) {... */\n      tag_266\n      jumpi\n        /* \"contracts/OrderBook.sol\":3145:3187  while (arr[uint(i)].timestamp > pivot) i++ */\n    tag_267:\n        /* \"contracts/OrderBook.sol\":3177:3182  pivot */\n      dup1\n        /* \"contracts/OrderBook.sol\":3152:3155  arr */\n      dup7\n        /* \"contracts/OrderBook.sol\":3161:3162  i */\n      dup5\n        /* \"contracts/OrderBook.sol\":3152:3164  arr[uint(i)] */\n      dup2\n      mload\n      dup2\n      lt\n      tag_269\n      jumpi\n      tag_270\n      tag_71\n      jump\t// in\n    tag_270:\n    tag_269:\n      0x20\n      mul\n      0x20\n      add\n      add\n      mload\n        /* \"contracts/OrderBook.sol\":3152:3174  arr[uint(i)].timestamp */\n      0x40\n      add\n      mload\n        /* \"contracts/OrderBook.sol\":3152:3182  arr[uint(i)].timestamp > pivot */\n      gt\n        /* \"contracts/OrderBook.sol\":3145:3187  while (arr[uint(i)].timestamp > pivot) i++ */\n      iszero\n      tag_268\n      jumpi\n        /* \"contracts/OrderBook.sol\":3184:3187  i++ */\n      dup3\n      dup1\n      tag_271\n      swap1\n      tag_272\n      jump\t// in\n    tag_271:\n      swap4\n      pop\n      pop\n        /* \"contracts/OrderBook.sol\":3145:3187  while (arr[uint(i)].timestamp > pivot) i++ */\n      jump(tag_267)\n    tag_268:\n        /* \"contracts/OrderBook.sol\":3201:3243  while (pivot > arr[uint(j)].timestamp) j-- */\n    tag_273:\n        /* \"contracts/OrderBook.sol\":3216:3219  arr */\n      dup6\n        /* \"contracts/OrderBook.sol\":3225:3226  j */\n      dup3\n        /* \"contracts/OrderBook.sol\":3216:3228  arr[uint(j)] */\n      dup2\n      mload\n      dup2\n      lt\n      tag_275\n      jumpi\n      tag_276\n      tag_71\n      jump\t// in\n    tag_276:\n    tag_275:\n      0x20\n      mul\n      0x20\n      add\n      add\n      mload\n        /* \"contracts/OrderBook.sol\":3216:3238  arr[uint(j)].timestamp */\n      0x40\n      add\n      mload\n        /* \"contracts/OrderBook.sol\":3208:3213  pivot */\n      dup2\n        /* \"contracts/OrderBook.sol\":3208:3238  pivot > arr[uint(j)].timestamp */\n      gt\n        /* \"contracts/OrderBook.sol\":3201:3243  while (pivot > arr[uint(j)].timestamp) j-- */\n      iszero\n      tag_274\n      jumpi\n        /* \"contracts/OrderBook.sol\":3240:3243  j-- */\n      dup2\n      dup1\n      tag_277\n      swap1\n      tag_278\n      jump\t// in\n    tag_277:\n      swap3\n      pop\n      pop\n        /* \"contracts/OrderBook.sol\":3201:3243  while (pivot > arr[uint(j)].timestamp) j-- */\n      jump(tag_273)\n    tag_274:\n        /* \"contracts/OrderBook.sol\":3266:3267  j */\n      dup2\n        /* \"contracts/OrderBook.sol\":3261:3262  i */\n      dup4\n        /* \"contracts/OrderBook.sol\":3261:3267  i <= j */\n      sgt\n        /* \"contracts/OrderBook.sol\":3257:3403  if (i <= j) {... */\n      tag_279\n      jumpi\n        /* \"contracts/OrderBook.sol\":3319:3322  arr */\n      dup6\n        /* \"contracts/OrderBook.sol\":3328:3329  j */\n      dup3\n        /* \"contracts/OrderBook.sol\":3319:3331  arr[uint(j)] */\n      dup2\n      mload\n      dup2\n      lt\n      tag_280\n      jumpi\n      tag_281\n      tag_71\n      jump\t// in\n    tag_281:\n    tag_280:\n      0x20\n      mul\n      0x20\n      add\n      add\n      mload\n        /* \"contracts/OrderBook.sol\":3333:3336  arr */\n      dup7\n        /* \"contracts/OrderBook.sol\":3342:3343  i */\n      dup5\n        /* \"contracts/OrderBook.sol\":3333:3345  arr[uint(i)] */\n      dup2\n      mload\n      dup2\n      lt\n      tag_282\n      jumpi\n      tag_283\n      tag_71\n      jump\t// in\n    tag_283:\n    tag_282:\n      0x20\n      mul\n      0x20\n      add\n      add\n      mload\n        /* \"contracts/OrderBook.sol\":3288:3291  arr */\n      dup8\n        /* \"contracts/OrderBook.sol\":3297:3298  i */\n      dup6\n        /* \"contracts/OrderBook.sol\":3288:3300  arr[uint(i)] */\n      dup2\n      mload\n      dup2\n      lt\n      tag_284\n      jumpi\n      tag_285\n      tag_71\n      jump\t// in\n    tag_285:\n    tag_284:\n      0x20\n      mul\n      0x20\n      add\n      add\n        /* \"contracts/OrderBook.sol\":3302:3305  arr */\n      dup9\n        /* \"contracts/OrderBook.sol\":3311:3312  j */\n      dup6\n        /* \"contracts/OrderBook.sol\":3302:3314  arr[uint(j)] */\n      dup2\n      mload\n      dup2\n      lt\n      tag_286\n      jumpi\n      tag_287\n      tag_71\n      jump\t// in\n    tag_287:\n    tag_286:\n      0x20\n      mul\n      0x20\n      add\n      add\n        /* \"contracts/OrderBook.sol\":3287:3346  (arr[uint(i)], arr[uint(j)]) = (arr[uint(j)], arr[uint(i)]) */\n      dup3\n      swap1\n      mstore\n      dup3\n      swap1\n      mstore\n      pop\n      pop\n        /* \"contracts/OrderBook.sol\":3364:3367  i++ */\n      dup3\n      dup1\n      tag_288\n      swap1\n      tag_272\n      jump\t// in\n    tag_288:\n      swap4\n      pop\n      pop\n        /* \"contracts/OrderBook.sol\":3385:3388  j-- */\n      dup2\n      dup1\n      tag_289\n      swap1\n      tag_278\n      jump\t// in\n    tag_289:\n      swap3\n      pop\n      pop\n        /* \"contracts/OrderBook.sol\":3257:3403  if (i <= j) {... */\n    tag_279:\n        /* \"contracts/OrderBook.sol\":3116:3413  while (i <= j) {... */\n      jump(tag_265)\n    tag_266:\n        /* \"contracts/OrderBook.sol\":3433:3434  j */\n      dup2\n        /* \"contracts/OrderBook.sol\":3426:3430  left */\n      dup6\n        /* \"contracts/OrderBook.sol\":3426:3434  left < j */\n      slt\n        /* \"contracts/OrderBook.sol\":3422:3480  if (left < j)... */\n      iszero\n      tag_290\n      jumpi\n        /* \"contracts/OrderBook.sol\":3448:3480  ascendingQuickSort(arr, left, j) */\n      tag_291\n        /* \"contracts/OrderBook.sol\":3467:3470  arr */\n      dup7\n        /* \"contracts/OrderBook.sol\":3472:3476  left */\n      dup7\n        /* \"contracts/OrderBook.sol\":3478:3479  j */\n      dup5\n        /* \"contracts/OrderBook.sol\":3448:3466  ascendingQuickSort */\n      tag_243\n        /* \"contracts/OrderBook.sol\":3448:3480  ascendingQuickSort(arr, left, j) */\n      jump\t// in\n    tag_291:\n        /* \"contracts/OrderBook.sol\":3422:3480  if (left < j)... */\n    tag_290:\n        /* \"contracts/OrderBook.sol\":3498:3503  right */\n      dup4\n        /* \"contracts/OrderBook.sol\":3494:3495  i */\n      dup4\n        /* \"contracts/OrderBook.sol\":3494:3503  i < right */\n      slt\n        /* \"contracts/OrderBook.sol\":3490:3550  if (i < right)... */\n      iszero\n      tag_292\n      jumpi\n        /* \"contracts/OrderBook.sol\":3517:3550  ascendingQuickSort(arr, i, right) */\n      tag_293\n        /* \"contracts/OrderBook.sol\":3536:3539  arr */\n      dup7\n        /* \"contracts/OrderBook.sol\":3541:3542  i */\n      dup5\n        /* \"contracts/OrderBook.sol\":3544:3549  right */\n      dup7\n        /* \"contracts/OrderBook.sol\":3517:3535  ascendingQuickSort */\n      tag_243\n        /* \"contracts/OrderBook.sol\":3517:3550  ascendingQuickSort(arr, i, right) */\n      jump\t// in\n    tag_293:\n        /* \"contracts/OrderBook.sol\":3490:3550  if (i < right)... */\n    tag_292:\n        /* \"contracts/OrderBook.sol\":2964:3557  {... */\n      pop\n      pop\n      pop\n        /* \"contracts/OrderBook.sol\":2887:3557  function ascendingQuickSort(order[] memory arr, int left, int right) internal{... */\n    tag_255:\n      pop\n      pop\n      pop\n      jump\t// out\n        /* \"contracts/OrderBook.sol\":2208:2881  function descendingQuickSort(order[] memory arr, int left, int right) internal{... */\n    tag_254:\n        /* \"contracts/OrderBook.sol\":2296:2301  int i */\n      0x00\n        /* \"contracts/OrderBook.sol\":2304:2308  left */\n      dup3\n        /* \"contracts/OrderBook.sol\":2296:2308  int i = left */\n      swap1\n      pop\n        /* \"contracts/OrderBook.sol\":2318:2323  int j */\n      0x00\n        /* \"contracts/OrderBook.sol\":2326:2331  right */\n      dup3\n        /* \"contracts/OrderBook.sol\":2318:2331  int j = right */\n      swap1\n      pop\n        /* \"contracts/OrderBook.sol\":2347:2348  j */\n      dup1\n        /* \"contracts/OrderBook.sol\":2344:2345  i */\n      dup3\n        /* \"contracts/OrderBook.sol\":2344:2348  i==j */\n      sub\n        /* \"contracts/OrderBook.sol\":2341:2357  if(i==j) return; */\n      tag_295\n      jumpi\n        /* \"contracts/OrderBook.sol\":2350:2357  return; */\n      pop\n      pop\n      jump(tag_294)\n        /* \"contracts/OrderBook.sol\":2341:2357  if(i==j) return; */\n    tag_295:\n        /* \"contracts/OrderBook.sol\":2366:2379  uint256 pivot */\n      0x00\n        /* \"contracts/OrderBook.sol\":2382:2385  arr */\n      dup6\n        /* \"contracts/OrderBook.sol\":2415:2416  2 */\n      0x02\n        /* \"contracts/OrderBook.sol\":2407:2411  left */\n      dup7\n        /* \"contracts/OrderBook.sol\":2399:2404  right */\n      dup7\n        /* \"contracts/OrderBook.sol\":2399:2411  right - left */\n      tag_296\n      swap2\n      swap1\n      tag_258\n      jump\t// in\n    tag_296:\n        /* \"contracts/OrderBook.sol\":2398:2416  (right - left) / 2 */\n      tag_297\n      swap2\n      swap1\n      tag_260\n      jump\t// in\n    tag_297:\n        /* \"contracts/OrderBook.sol\":2391:2395  left */\n      dup7\n        /* \"contracts/OrderBook.sol\":2391:2416  left + (right - left) / 2 */\n      tag_298\n      swap2\n      swap1\n      tag_262\n      jump\t// in\n    tag_298:\n        /* \"contracts/OrderBook.sol\":2382:2418  arr[uint(left + (right - left) / 2)] */\n      dup2\n      mload\n      dup2\n      lt\n      tag_299\n      jumpi\n      tag_300\n      tag_71\n      jump\t// in\n    tag_300:\n    tag_299:\n      0x20\n      mul\n      0x20\n      add\n      add\n      mload\n        /* \"contracts/OrderBook.sol\":2382:2428  arr[uint(left + (right - left) / 2)].timestamp */\n      0x40\n      add\n      mload\n        /* \"contracts/OrderBook.sol\":2366:2428  uint256 pivot = arr[uint(left + (right - left) / 2)].timestamp */\n      swap1\n      pop\n        /* \"contracts/OrderBook.sol\":2438:2735  while (i <= j) {... */\n    tag_301:\n        /* \"contracts/OrderBook.sol\":2450:2451  j */\n      dup2\n        /* \"contracts/OrderBook.sol\":2445:2446  i */\n      dup4\n        /* \"contracts/OrderBook.sol\":2445:2451  i <= j */\n      sgt\n        /* \"contracts/OrderBook.sol\":2438:2735  while (i <= j) {... */\n      tag_302\n      jumpi\n        /* \"contracts/OrderBook.sol\":2467:2509  while (arr[uint(i)].timestamp < pivot) i++ */\n    tag_303:\n        /* \"contracts/OrderBook.sol\":2499:2504  pivot */\n      dup1\n        /* \"contracts/OrderBook.sol\":2474:2477  arr */\n      dup7\n        /* \"contracts/OrderBook.sol\":2483:2484  i */\n      dup5\n        /* \"contracts/OrderBook.sol\":2474:2486  arr[uint(i)] */\n      dup2\n      mload\n      dup2\n      lt\n      tag_305\n      jumpi\n      tag_306\n      tag_71\n      jump\t// in\n    tag_306:\n    tag_305:\n      0x20\n      mul\n      0x20\n      add\n      add\n      mload\n        /* \"contracts/OrderBook.sol\":2474:2496  arr[uint(i)].timestamp */\n      0x40\n      add\n      mload\n        /* \"contracts/OrderBook.sol\":2474:2504  arr[uint(i)].timestamp < pivot */\n      lt\n        /* \"contracts/OrderBook.sol\":2467:2509  while (arr[uint(i)].timestamp < pivot) i++ */\n      iszero\n      tag_304\n      jumpi\n        /* \"contracts/OrderBook.sol\":2506:2509  i++ */\n      dup3\n      dup1\n      tag_307\n      swap1\n      tag_272\n      jump\t// in\n    tag_307:\n      swap4\n      pop\n      pop\n        /* \"contracts/OrderBook.sol\":2467:2509  while (arr[uint(i)].timestamp < pivot) i++ */\n      jump(tag_303)\n    tag_304:\n        /* \"contracts/OrderBook.sol\":2523:2565  while (pivot < arr[uint(j)].timestamp) j-- */\n    tag_308:\n        /* \"contracts/OrderBook.sol\":2538:2541  arr */\n      dup6\n        /* \"contracts/OrderBook.sol\":2547:2548  j */\n      dup3\n        /* \"contracts/OrderBook.sol\":2538:2550  arr[uint(j)] */\n      dup2\n      mload\n      dup2\n      lt\n      tag_310\n      jumpi\n      tag_311\n      tag_71\n      jump\t// in\n    tag_311:\n    tag_310:\n      0x20\n      mul\n      0x20\n      add\n      add\n      mload\n        /* \"contracts/OrderBook.sol\":2538:2560  arr[uint(j)].timestamp */\n      0x40\n      add\n      mload\n        /* \"contracts/OrderBook.sol\":2530:2535  pivot */\n      dup2\n        /* \"contracts/OrderBook.sol\":2530:2560  pivot < arr[uint(j)].timestamp */\n      lt\n        /* \"contracts/OrderBook.sol\":2523:2565  while (pivot < arr[uint(j)].timestamp) j-- */\n      iszero\n      tag_309\n      jumpi\n        /* \"contracts/OrderBook.sol\":2562:2565  j-- */\n      dup2\n      dup1\n      tag_312\n      swap1\n      tag_278\n      jump\t// in\n    tag_312:\n      swap3\n      pop\n      pop\n        /* \"contracts/OrderBook.sol\":2523:2565  while (pivot < arr[uint(j)].timestamp) j-- */\n      jump(tag_308)\n    tag_309:\n        /* \"contracts/OrderBook.sol\":2588:2589  j */\n      dup2\n        /* \"contracts/OrderBook.sol\":2583:2584  i */\n      dup4\n        /* \"contracts/OrderBook.sol\":2583:2589  i <= j */\n      sgt\n        /* \"contracts/OrderBook.sol\":2579:2725  if (i <= j) {... */\n      tag_313\n      jumpi\n        /* \"contracts/OrderBook.sol\":2641:2644  arr */\n      dup6\n        /* \"contracts/OrderBook.sol\":2650:2651  j */\n      dup3\n        /* \"contracts/OrderBook.sol\":2641:2653  arr[uint(j)] */\n      dup2\n      mload\n      dup2\n      lt\n      tag_314\n      jumpi\n      tag_315\n      tag_71\n      jump\t// in\n    tag_315:\n    tag_314:\n      0x20\n      mul\n      0x20\n      add\n      add\n      mload\n        /* \"contracts/OrderBook.sol\":2655:2658  arr */\n      dup7\n        /* \"contracts/OrderBook.sol\":2664:2665  i */\n      dup5\n        /* \"contracts/OrderBook.sol\":2655:2667  arr[uint(i)] */\n      dup2\n      mload\n      dup2\n      lt\n      tag_316\n      jumpi\n      tag_317\n      tag_71\n      jump\t// in\n    tag_317:\n    tag_316:\n      0x20\n      mul\n      0x20\n      add\n      add\n      mload\n        /* \"contracts/OrderBook.sol\":2610:2613  arr */\n      dup8\n        /* \"contracts/OrderBook.sol\":2619:2620  i */\n      dup6\n        /* \"contracts/OrderBook.sol\":2610:2622  arr[uint(i)] */\n      dup2\n      mload\n      dup2\n      lt\n      tag_318\n      jumpi\n      tag_319\n      tag_71\n      jump\t// in\n    tag_319:\n    tag_318:\n      0x20\n      mul\n      0x20\n      add\n      add\n        /* \"contracts/OrderBook.sol\":2624:2627  arr */\n      dup9\n        /* \"contracts/OrderBook.sol\":2633:2634  j */\n      dup6\n        /* \"contracts/OrderBook.sol\":2624:2636  arr[uint(j)] */\n      dup2\n      mload\n      dup2\n      lt\n      tag_320\n      jumpi\n      tag_321\n      tag_71\n      jump\t// in\n    tag_321:\n    tag_320:\n      0x20\n      mul\n      0x20\n      add\n      add\n        /* \"contracts/OrderBook.sol\":2609:2668  (arr[uint(i)], arr[uint(j)]) = (arr[uint(j)], arr[uint(i)]) */\n      dup3\n      swap1\n      mstore\n      dup3\n      swap1\n      mstore\n      pop\n      pop\n        /* \"contracts/OrderBook.sol\":2686:2689  i++ */\n      dup3\n      dup1\n      tag_322\n      swap1\n      tag_272\n      jump\t// in\n    tag_322:\n      swap4\n      pop\n      pop\n        /* \"contracts/OrderBook.sol\":2707:2710  j-- */\n      dup2\n      dup1\n      tag_323\n      swap1\n      tag_278\n      jump\t// in\n    tag_323:\n      swap3\n      pop\n      pop\n        /* \"contracts/OrderBook.sol\":2579:2725  if (i <= j) {... */\n    tag_313:\n        /* \"contracts/OrderBook.sol\":2438:2735  while (i <= j) {... */\n      jump(tag_301)\n    tag_302:\n        /* \"contracts/OrderBook.sol\":2755:2756  j */\n      dup2\n        /* \"contracts/OrderBook.sol\":2748:2752  left */\n      dup6\n        /* \"contracts/OrderBook.sol\":2748:2756  left < j */\n      slt\n        /* \"contracts/OrderBook.sol\":2744:2803  if (left < j)... */\n      iszero\n      tag_324\n      jumpi\n        /* \"contracts/OrderBook.sol\":2770:2803  descendingQuickSort(arr, left, j) */\n      tag_325\n        /* \"contracts/OrderBook.sol\":2790:2793  arr */\n      dup7\n        /* \"contracts/OrderBook.sol\":2795:2799  left */\n      dup7\n        /* \"contracts/OrderBook.sol\":2801:2802  j */\n      dup5\n        /* \"contracts/OrderBook.sol\":2770:2789  descendingQuickSort */\n      tag_254\n        /* \"contracts/OrderBook.sol\":2770:2803  descendingQuickSort(arr, left, j) */\n      jump\t// in\n    tag_325:\n        /* \"contracts/OrderBook.sol\":2744:2803  if (left < j)... */\n    tag_324:\n        /* \"contracts/OrderBook.sol\":2821:2826  right */\n      dup4\n        /* \"contracts/OrderBook.sol\":2817:2818  i */\n      dup4\n        /* \"contracts/OrderBook.sol\":2817:2826  i < right */\n      slt\n        /* \"contracts/OrderBook.sol\":2813:2874  if (i < right)... */\n      iszero\n      tag_326\n      jumpi\n        /* \"contracts/OrderBook.sol\":2840:2874  descendingQuickSort(arr, i, right) */\n      tag_327\n        /* \"contracts/OrderBook.sol\":2860:2863  arr */\n      dup7\n        /* \"contracts/OrderBook.sol\":2865:2866  i */\n      dup5\n        /* \"contracts/OrderBook.sol\":2868:2873  right */\n      dup7\n        /* \"contracts/OrderBook.sol\":2840:2859  descendingQuickSort */\n      tag_254\n        /* \"contracts/OrderBook.sol\":2840:2874  descendingQuickSort(arr, i, right) */\n      jump\t// in\n    tag_327:\n        /* \"contracts/OrderBook.sol\":2813:2874  if (i < right)... */\n    tag_326:\n        /* \"contracts/OrderBook.sol\":2286:2881  {... */\n      pop\n      pop\n      pop\n        /* \"contracts/OrderBook.sol\":2208:2881  function descendingQuickSort(order[] memory arr, int left, int right) internal{... */\n    tag_294:\n      pop\n      pop\n      pop\n      jump\t// out\n        /* \"#utility.yul\":7:121   */\n    tag_328:\n        /* \"#utility.yul\":74:80   */\n      0x00\n        /* \"#utility.yul\":108:113   */\n      dup2\n        /* \"#utility.yul\":102:114   */\n      mload\n        /* \"#utility.yul\":92:114   */\n      swap1\n      pop\n        /* \"#utility.yul\":7:121   */\n      swap2\n      swap1\n      pop\n      jump\t// out\n        /* \"#utility.yul\":127:311   */\n    tag_329:\n        /* \"#utility.yul\":226:237   */\n      0x00\n        /* \"#utility.yul\":260:266   */\n      dup3\n        /* \"#utility.yul\":255:258   */\n      dup3\n        /* \"#utility.yul\":248:267   */\n      mstore\n        /* \"#utility.yul\":300:304   */\n      0x20\n        /* \"#utility.yul\":295:298   */\n      dup3\n        /* \"#utility.yul\":291:305   */\n      add\n        /* \"#utility.yul\":276:305   */\n      swap1\n      pop\n        /* \"#utility.yul\":127:311   */\n      swap3\n      swap2\n      pop\n      pop\n      jump\t// out\n        /* \"#utility.yul\":317:449   */\n    tag_330:\n        /* \"#utility.yul\":384:388   */\n      0x00\n        /* \"#utility.yul\":407:410   */\n      dup2\n        /* \"#utility.yul\":399:410   */\n      swap1\n      pop\n        /* \"#utility.yul\":437:441   */\n      0x20\n        /* \"#utility.yul\":432:435   */\n      dup3\n        /* \"#utility.yul\":428:442   */\n      add\n        /* \"#utility.yul\":420:442   */\n      swap1\n      pop\n        /* \"#utility.yul\":317:449   */\n      swap2\n      swap1\n      pop\n      jump\t// out\n        /* \"#utility.yul\":455:532   */\n    tag_331:\n        /* \"#utility.yul\":492:499   */\n      0x00\n        /* \"#utility.yul\":521:526   */\n      dup2\n        /* \"#utility.yul\":510:526   */\n      swap1\n      pop\n        /* \"#utility.yul\":455:532   */\n      swap2\n      swap1\n      pop\n      jump\t// out\n        /* \"#utility.yul\":538:646   */\n    tag_332:\n        /* \"#utility.yul\":615:639   */\n      tag_380\n        /* \"#utility.yul\":633:638   */\n      dup2\n        /* \"#utility.yul\":615:639   */\n      tag_331\n      jump\t// in\n    tag_380:\n        /* \"#utility.yul\":610:613   */\n      dup3\n        /* \"#utility.yul\":603:640   */\n      mstore\n        /* \"#utility.yul\":538:646   */\n      pop\n      pop\n      jump\t// out\n        /* \"#utility.yul\":652:831   */\n    tag_333:\n        /* \"#utility.yul\":721:731   */\n      0x00\n        /* \"#utility.yul\":742:788   */\n      tag_382\n        /* \"#utility.yul\":784:787   */\n      dup4\n        /* \"#utility.yul\":776:782   */\n      dup4\n        /* \"#utility.yul\":742:788   */\n      tag_332\n      jump\t// in\n    tag_382:\n        /* \"#utility.yul\":820:824   */\n      0x20\n        /* \"#utility.yul\":815:818   */\n      dup4\n        /* \"#utility.yul\":811:825   */\n      add\n        /* \"#utility.yul\":797:825   */\n      swap1\n      pop\n        /* \"#utility.yul\":652:831   */\n      swap3\n      swap2\n      pop\n      pop\n      jump\t// out\n        /* \"#utility.yul\":837:950   */\n    tag_334:\n        /* \"#utility.yul\":907:911   */\n      0x00\n        /* \"#utility.yul\":939:943   */\n      0x20\n        /* \"#utility.yul\":934:937   */\n      dup3\n        /* \"#utility.yul\":930:944   */\n      add\n        /* \"#utility.yul\":922:944   */\n      swap1\n      pop\n        /* \"#utility.yul\":837:950   */\n      swap2\n      swap1\n      pop\n      jump\t// out\n        /* \"#utility.yul\":986:1718   */\n    tag_335:\n        /* \"#utility.yul\":1105:1108   */\n      0x00\n        /* \"#utility.yul\":1134:1188   */\n      tag_385\n        /* \"#utility.yul\":1182:1187   */\n      dup3\n        /* \"#utility.yul\":1134:1188   */\n      tag_328\n      jump\t// in\n    tag_385:\n        /* \"#utility.yul\":1204:1290   */\n      tag_386\n        /* \"#utility.yul\":1283:1289   */\n      dup2\n        /* \"#utility.yul\":1278:1281   */\n      dup6\n        /* \"#utility.yul\":1204:1290   */\n      tag_329\n      jump\t// in\n    tag_386:\n        /* \"#utility.yul\":1197:1290   */\n      swap4\n      pop\n        /* \"#utility.yul\":1314:1370   */\n      tag_387\n        /* \"#utility.yul\":1364:1369   */\n      dup4\n        /* \"#utility.yul\":1314:1370   */\n      tag_330\n      jump\t// in\n    tag_387:\n        /* \"#utility.yul\":1393:1400   */\n      dup1\n        /* \"#utility.yul\":1424:1425   */\n      0x00\n        /* \"#utility.yul\":1409:1693   */\n    tag_388:\n        /* \"#utility.yul\":1434:1440   */\n      dup4\n        /* \"#utility.yul\":1431:1432   */\n      dup2\n        /* \"#utility.yul\":1428:1441   */\n      lt\n        /* \"#utility.yul\":1409:1693   */\n      iszero\n      tag_390\n      jumpi\n        /* \"#utility.yul\":1510:1516   */\n      dup2\n        /* \"#utility.yul\":1504:1517   */\n      mload\n        /* \"#utility.yul\":1537:1600   */\n      tag_391\n        /* \"#utility.yul\":1596:1599   */\n      dup9\n        /* \"#utility.yul\":1581:1594   */\n      dup3\n        /* \"#utility.yul\":1537:1600   */\n      tag_333\n      jump\t// in\n    tag_391:\n        /* \"#utility.yul\":1530:1600   */\n      swap8\n      pop\n        /* \"#utility.yul\":1623:1683   */\n      tag_392\n        /* \"#utility.yul\":1676:1682   */\n      dup4\n        /* \"#utility.yul\":1623:1683   */\n      tag_334\n      jump\t// in\n    tag_392:\n        /* \"#utility.yul\":1613:1683   */\n      swap3\n      pop\n        /* \"#utility.yul\":1469:1693   */\n      pop\n        /* \"#utility.yul\":1456:1457   */\n      0x01\n        /* \"#utility.yul\":1453:1454   */\n      dup2\n        /* \"#utility.yul\":1449:1458   */\n      add\n        /* \"#utility.yul\":1444:1458   */\n      swap1\n      pop\n        /* \"#utility.yul\":1409:1693   */\n      jump(tag_388)\n    tag_390:\n        /* \"#utility.yul\":1413:1427   */\n      pop\n        /* \"#utility.yul\":1709:1712   */\n      dup6\n        /* \"#utility.yul\":1702:1712   */\n      swap4\n      pop\n        /* \"#utility.yul\":1110:1718   */\n      pop\n      pop\n      pop\n        /* \"#utility.yul\":986:1718   */\n      swap3\n      swap2\n      pop\n      pop\n      jump\t// out\n        /* \"#utility.yul\":1724:2097   */\n    tag_18:\n        /* \"#utility.yul\":1867:1871   */\n      0x00\n        /* \"#utility.yul\":1905:1907   */\n      0x20\n        /* \"#utility.yul\":1894:1903   */\n      dup3\n        /* \"#utility.yul\":1890:1908   */\n      add\n        /* \"#utility.yul\":1882:1908   */\n      swap1\n      pop\n        /* \"#utility.yul\":1954:1963   */\n      dup2\n        /* \"#utility.yul\":1948:1952   */\n      dup2\n        /* \"#utility.yul\":1944:1964   */\n      sub\n        /* \"#utility.yul\":1940:1941   */\n      0x00\n        /* \"#utility.yul\":1929:1938   */\n      dup4\n        /* \"#utility.yul\":1925:1942   */\n      add\n        /* \"#utility.yul\":1918:1965   */\n      mstore\n        /* \"#utility.yul\":1982:2090   */\n      tag_394\n        /* \"#utility.yul\":2085:2089   */\n      dup2\n        /* \"#utility.yul\":2076:2082   */\n      dup5\n        /* \"#utility.yul\":1982:2090   */\n      tag_335\n      jump\t// in\n    tag_394:\n        /* \"#utility.yul\":1974:2090   */\n      swap1\n      pop\n        /* \"#utility.yul\":1724:2097   */\n      swap3\n      swap2\n      pop\n      pop\n      jump\t// out\n        /* \"#utility.yul\":2184:2301   */\n    tag_337:\n        /* \"#utility.yul\":2293:2294   */\n      0x00\n        /* \"#utility.yul\":2290:2291   */\n      dup1\n        /* \"#utility.yul\":2283:2295   */\n      revert\n        /* \"#utility.yul\":2430:2552   */\n    tag_339:\n        /* \"#utility.yul\":2503:2527   */\n      tag_399\n        /* \"#utility.yul\":2521:2526   */\n      dup2\n        /* \"#utility.yul\":2503:2527   */\n      tag_331\n      jump\t// in\n    tag_399:\n        /* \"#utility.yul\":2496:2501   */\n      dup2\n        /* \"#utility.yul\":2493:2528   */\n      eq\n        /* \"#utility.yul\":2483:2546   */\n      tag_400\n      jumpi\n        /* \"#utility.yul\":2542:2543   */\n      0x00\n        /* \"#utility.yul\":2539:2540   */\n      dup1\n        /* \"#utility.yul\":2532:2544   */\n      revert\n        /* \"#utility.yul\":2483:2546   */\n    tag_400:\n        /* \"#utility.yul\":2430:2552   */\n      pop\n      jump\t// out\n        /* \"#utility.yul\":2558:2697   */\n    tag_340:\n        /* \"#utility.yul\":2604:2609   */\n      0x00\n        /* \"#utility.yul\":2642:2648   */\n      dup2\n        /* \"#utility.yul\":2629:2649   */\n      calldataload\n        /* \"#utility.yul\":2620:2649   */\n      swap1\n      pop\n        /* \"#utility.yul\":2658:2691   */\n      tag_402\n        /* \"#utility.yul\":2685:2690   */\n      dup2\n        /* \"#utility.yul\":2658:2691   */\n      tag_339\n      jump\t// in\n    tag_402:\n        /* \"#utility.yul\":2558:2697   */\n      swap3\n      swap2\n      pop\n      pop\n      jump\t// out\n        /* \"#utility.yul\":2703:3032   */\n    tag_22:\n        /* \"#utility.yul\":2762:2768   */\n      0x00\n        /* \"#utility.yul\":2811:2813   */\n      0x20\n        /* \"#utility.yul\":2799:2808   */\n      dup3\n        /* \"#utility.yul\":2790:2797   */\n      dup5\n        /* \"#utility.yul\":2786:2809   */\n      sub\n        /* \"#utility.yul\":2782:2814   */\n      slt\n        /* \"#utility.yul\":2779:2898   */\n      iszero\n      tag_404\n      jumpi\n        /* \"#utility.yul\":2817:2896   */\n      tag_405\n      tag_337\n      jump\t// in\n    tag_405:\n        /* \"#utility.yul\":2779:2898   */\n    tag_404:\n        /* \"#utility.yul\":2937:2938   */\n      0x00\n        /* \"#utility.yul\":2962:3015   */\n      tag_406\n        /* \"#utility.yul\":3007:3014   */\n      dup5\n        /* \"#utility.yul\":2998:3004   */\n      dup3\n        /* \"#utility.yul\":2987:2996   */\n      dup6\n        /* \"#utility.yul\":2983:3005   */\n      add\n        /* \"#utility.yul\":2962:3015   */\n      tag_340\n      jump\t// in\n    tag_406:\n        /* \"#utility.yul\":2952:3015   */\n      swap2\n      pop\n        /* \"#utility.yul\":2908:3025   */\n      pop\n        /* \"#utility.yul\":2703:3032   */\n      swap3\n      swap2\n      pop\n      pop\n      jump\t// out\n        /* \"#utility.yul\":3038:3164   */\n    tag_341:\n        /* \"#utility.yul\":3075:3082   */\n      0x00\n        /* \"#utility.yul\":3115:3157   */\n      0xffffffffffffffffffffffffffffffffffffffff\n        /* \"#utility.yul\":3108:3113   */\n      dup3\n        /* \"#utility.yul\":3104:3158   */\n      and\n        /* \"#utility.yul\":3093:3158   */\n      swap1\n      pop\n        /* \"#utility.yul\":3038:3164   */\n      swap2\n      swap1\n      pop\n      jump\t// out\n        /* \"#utility.yul\":3170:3274   */\n    tag_342:\n        /* \"#utility.yul\":3215:3222   */\n      0x00\n        /* \"#utility.yul\":3244:3268   */\n      tag_409\n        /* \"#utility.yul\":3262:3267   */\n      dup3\n        /* \"#utility.yul\":3244:3268   */\n      tag_341\n      jump\t// in\n    tag_409:\n        /* \"#utility.yul\":3233:3268   */\n      swap1\n      pop\n        /* \"#utility.yul\":3170:3274   */\n      swap2\n      swap1\n      pop\n      jump\t// out\n        /* \"#utility.yul\":3280:3422   */\n    tag_343:\n        /* \"#utility.yul\":3383:3415   */\n      tag_411\n        /* \"#utility.yul\":3409:3414   */\n      dup2\n        /* \"#utility.yul\":3383:3415   */\n      tag_342\n      jump\t// in\n    tag_411:\n        /* \"#utility.yul\":3378:3381   */\n      dup3\n        /* \"#utility.yul\":3371:3416   */\n      mstore\n        /* \"#utility.yul\":3280:3422   */\n      pop\n      pop\n      jump\t// out\n        /* \"#utility.yul\":3428:3682   */\n    tag_29:\n        /* \"#utility.yul\":3537:3541   */\n      0x00\n        /* \"#utility.yul\":3575:3577   */\n      0x20\n        /* \"#utility.yul\":3564:3573   */\n      dup3\n        /* \"#utility.yul\":3560:3578   */\n      add\n        /* \"#utility.yul\":3552:3578   */\n      swap1\n      pop\n        /* \"#utility.yul\":3588:3675   */\n      tag_413\n        /* \"#utility.yul\":3672:3673   */\n      0x00\n        /* \"#utility.yul\":3661:3670   */\n      dup4\n        /* \"#utility.yul\":3657:3674   */\n      add\n        /* \"#utility.yul\":3648:3654   */\n      dup5\n        /* \"#utility.yul\":3588:3675   */\n      tag_343\n      jump\t// in\n    tag_413:\n        /* \"#utility.yul\":3428:3682   */\n      swap3\n      swap2\n      pop\n      pop\n      jump\t// out\n        /* \"#utility.yul\":3688:3823   */\n    tag_344:\n        /* \"#utility.yul\":3776:3782   */\n      0x00\n        /* \"#utility.yul\":3810:3815   */\n      dup2\n        /* \"#utility.yul\":3804:3816   */\n      mload\n        /* \"#utility.yul\":3794:3816   */\n      swap1\n      pop\n        /* \"#utility.yul\":3688:3823   */\n      swap2\n      swap1\n      pop\n      jump\t// out\n        /* \"#utility.yul\":3829:4034   */\n    tag_345:\n        /* \"#utility.yul\":3949:3960   */\n      0x00\n        /* \"#utility.yul\":3983:3989   */\n      dup3\n        /* \"#utility.yul\":3978:3981   */\n      dup3\n        /* \"#utility.yul\":3971:3990   */\n      mstore\n        /* \"#utility.yul\":4023:4027   */\n      0x20\n        /* \"#utility.yul\":4018:4021   */\n      dup3\n        /* \"#utility.yul\":4014:4028   */\n      add\n        /* \"#utility.yul\":3999:4028   */\n      swap1\n      pop\n        /* \"#utility.yul\":3829:4034   */\n      swap3\n      swap2\n      pop\n      pop\n      jump\t// out\n        /* \"#utility.yul\":4040:4193   */\n    tag_346:\n        /* \"#utility.yul\":4128:4132   */\n      0x00\n        /* \"#utility.yul\":4151:4154   */\n      dup2\n        /* \"#utility.yul\":4143:4154   */\n      swap1\n      pop\n        /* \"#utility.yul\":4181:4185   */\n      0x20\n        /* \"#utility.yul\":4176:4179   */\n      dup3\n        /* \"#utility.yul\":4172:4186   */\n      add\n        /* \"#utility.yul\":4164:4186   */\n      swap1\n      pop\n        /* \"#utility.yul\":4040:4193   */\n      swap2\n      swap1\n      pop\n      jump\t// out\n        /* \"#utility.yul\":4199:4331   */\n    tag_347:\n        /* \"#utility.yul\":4292:4324   */\n      tag_418\n        /* \"#utility.yul\":4318:4323   */\n      dup2\n        /* \"#utility.yul\":4292:4324   */\n      tag_342\n      jump\t// in\n    tag_418:\n        /* \"#utility.yul\":4287:4290   */\n      dup3\n        /* \"#utility.yul\":4280:4325   */\n      mstore\n        /* \"#utility.yul\":4199:4331   */\n      pop\n      pop\n      jump\t// out\n        /* \"#utility.yul\":4337:4517   */\n    tag_84:\n        /* \"#utility.yul\":4385:4462   */\n      0x4e487b7100000000000000000000000000000000000000000000000000000000\n        /* \"#utility.yul\":4382:4383   */\n      0x00\n        /* \"#utility.yul\":4375:4463   */\n      mstore\n        /* \"#utility.yul\":4482:4486   */\n      0x21\n        /* \"#utility.yul\":4479:4480   */\n      0x04\n        /* \"#utility.yul\":4472:4487   */\n      mstore\n        /* \"#utility.yul\":4506:4510   */\n      0x24\n        /* \"#utility.yul\":4503:4504   */\n      0x00\n        /* \"#utility.yul\":4496:4511   */\n      revert\n        /* \"#utility.yul\":4523:4635   */\n    tag_348:\n        /* \"#utility.yul\":4603:4604   */\n      0x02\n        /* \"#utility.yul\":4596:4601   */\n      dup2\n        /* \"#utility.yul\":4593:4605   */\n      lt\n        /* \"#utility.yul\":4583:4629   */\n      tag_421\n      jumpi\n        /* \"#utility.yul\":4609:4627   */\n      tag_422\n      tag_84\n      jump\t// in\n    tag_422:\n        /* \"#utility.yul\":4583:4629   */\n    tag_421:\n        /* \"#utility.yul\":4523:4635   */\n      pop\n      jump\t// out\n        /* \"#utility.yul\":4641:4766   */\n    tag_349:\n        /* \"#utility.yul\":4685:4692   */\n      0x00\n        /* \"#utility.yul\":4714:4719   */\n      dup2\n        /* \"#utility.yul\":4703:4719   */\n      swap1\n      pop\n        /* \"#utility.yul\":4720:4760   */\n      tag_424\n        /* \"#utility.yul\":4754:4759   */\n      dup3\n        /* \"#utility.yul\":4720:4760   */\n      tag_348\n      jump\t// in\n    tag_424:\n        /* \"#utility.yul\":4641:4766   */\n      swap2\n      swap1\n      pop\n      jump\t// out\n        /* \"#utility.yul\":4772:4897   */\n    tag_350:\n        /* \"#utility.yul\":4827:4836   */\n      0x00\n        /* \"#utility.yul\":4860:4891   */\n      tag_426\n        /* \"#utility.yul\":4885:4890   */\n      dup3\n        /* \"#utility.yul\":4860:4891   */\n      tag_349\n      jump\t// in\n    tag_426:\n        /* \"#utility.yul\":4847:4891   */\n      swap1\n      pop\n        /* \"#utility.yul\":4772:4897   */\n      swap2\n      swap1\n      pop\n      jump\t// out\n        /* \"#utility.yul\":4903:5034   */\n    tag_351:\n        /* \"#utility.yul\":4985:5027   */\n      tag_428\n        /* \"#utility.yul\":5021:5026   */\n      dup2\n        /* \"#utility.yul\":4985:5027   */\n      tag_350\n      jump\t// in\n    tag_428:\n        /* \"#utility.yul\":4980:4983   */\n      dup3\n        /* \"#utility.yul\":4973:5028   */\n      mstore\n        /* \"#utility.yul\":4903:5034   */\n      pop\n      pop\n      jump\t// out\n        /* \"#utility.yul\":5096:5965   */\n    tag_352:\n        /* \"#utility.yul\":5225:5229   */\n      0x80\n        /* \"#utility.yul\":5220:5223   */\n      dup3\n        /* \"#utility.yul\":5216:5230   */\n      add\n        /* \"#utility.yul\":5316:5320   */\n      0x00\n        /* \"#utility.yul\":5309:5314   */\n      dup3\n        /* \"#utility.yul\":5305:5321   */\n      add\n        /* \"#utility.yul\":5299:5322   */\n      mload\n        /* \"#utility.yul\":5335:5414   */\n      tag_430\n        /* \"#utility.yul\":5408:5412   */\n      0x00\n        /* \"#utility.yul\":5403:5406   */\n      dup6\n        /* \"#utility.yul\":5399:5413   */\n      add\n        /* \"#utility.yul\":5385:5397   */\n      dup3\n        /* \"#utility.yul\":5335:5414   */\n      tag_347\n      jump\t// in\n    tag_430:\n        /* \"#utility.yul\":5240:5424   */\n      pop\n        /* \"#utility.yul\":5507:5511   */\n      0x20\n        /* \"#utility.yul\":5500:5505   */\n      dup3\n        /* \"#utility.yul\":5496:5512   */\n      add\n        /* \"#utility.yul\":5490:5513   */\n      mload\n        /* \"#utility.yul\":5526:5589   */\n      tag_431\n        /* \"#utility.yul\":5583:5587   */\n      0x20\n        /* \"#utility.yul\":5578:5581   */\n      dup6\n        /* \"#utility.yul\":5574:5588   */\n      add\n        /* \"#utility.yul\":5560:5572   */\n      dup3\n        /* \"#utility.yul\":5526:5589   */\n      tag_332\n      jump\t// in\n    tag_431:\n        /* \"#utility.yul\":5434:5599   */\n      pop\n        /* \"#utility.yul\":5686:5690   */\n      0x40\n        /* \"#utility.yul\":5679:5684   */\n      dup3\n        /* \"#utility.yul\":5675:5691   */\n      add\n        /* \"#utility.yul\":5669:5692   */\n      mload\n        /* \"#utility.yul\":5705:5768   */\n      tag_432\n        /* \"#utility.yul\":5762:5766   */\n      0x40\n        /* \"#utility.yul\":5757:5760   */\n      dup6\n        /* \"#utility.yul\":5753:5767   */\n      add\n        /* \"#utility.yul\":5739:5751   */\n      dup3\n        /* \"#utility.yul\":5705:5768   */\n      tag_332\n      jump\t// in\n    tag_432:\n        /* \"#utility.yul\":5609:5778   */\n      pop\n        /* \"#utility.yul\":5861:5865   */\n      0x60\n        /* \"#utility.yul\":5854:5859   */\n      dup3\n        /* \"#utility.yul\":5850:5866   */\n      add\n        /* \"#utility.yul\":5844:5867   */\n      mload\n        /* \"#utility.yul\":5880:5948   */\n      tag_433\n        /* \"#utility.yul\":5942:5946   */\n      0x60\n        /* \"#utility.yul\":5937:5940   */\n      dup6\n        /* \"#utility.yul\":5933:5947   */\n      add\n        /* \"#utility.yul\":5919:5931   */\n      dup3\n        /* \"#utility.yul\":5880:5948   */\n      tag_351\n      jump\t// in\n    tag_433:\n        /* \"#utility.yul\":5788:5958   */\n      pop\n        /* \"#utility.yul\":5194:5965   */\n      pop\n        /* \"#utility.yul\":5096:5965   */\n      pop\n      pop\n      jump\t// out\n        /* \"#utility.yul\":5971:6234   */\n    tag_353:\n        /* \"#utility.yul\":6082:6092   */\n      0x00\n        /* \"#utility.yul\":6103:6191   */\n      tag_435\n        /* \"#utility.yul\":6187:6190   */\n      dup4\n        /* \"#utility.yul\":6179:6185   */\n      dup4\n        /* \"#utility.yul\":6103:6191   */\n      tag_352\n      jump\t// in\n    tag_435:\n        /* \"#utility.yul\":6223:6227   */\n      0x80\n        /* \"#utility.yul\":6218:6221   */\n      dup4\n        /* \"#utility.yul\":6214:6228   */\n      add\n        /* \"#utility.yul\":6200:6228   */\n      swap1\n      pop\n        /* \"#utility.yul\":5971:6234   */\n      swap3\n      swap2\n      pop\n      pop\n      jump\t// out\n        /* \"#utility.yul\":6240:6374   */\n    tag_354:\n        /* \"#utility.yul\":6331:6335   */\n      0x00\n        /* \"#utility.yul\":6363:6367   */\n      0x20\n        /* \"#utility.yul\":6358:6361   */\n      dup3\n        /* \"#utility.yul\":6354:6368   */\n      add\n        /* \"#utility.yul\":6346:6368   */\n      swap1\n      pop\n        /* \"#utility.yul\":6240:6374   */\n      swap2\n      swap1\n      pop\n      jump\t// out\n        /* \"#utility.yul\":6440:7340   */\n    tag_355:\n        /* \"#utility.yul\":6601:6604   */\n      0x00\n        /* \"#utility.yul\":6630:6705   */\n      tag_438\n        /* \"#utility.yul\":6699:6704   */\n      dup3\n        /* \"#utility.yul\":6630:6705   */\n      tag_344\n      jump\t// in\n    tag_438:\n        /* \"#utility.yul\":6721:6828   */\n      tag_439\n        /* \"#utility.yul\":6821:6827   */\n      dup2\n        /* \"#utility.yul\":6816:6819   */\n      dup6\n        /* \"#utility.yul\":6721:6828   */\n      tag_345\n      jump\t// in\n    tag_439:\n        /* \"#utility.yul\":6714:6828   */\n      swap4\n      pop\n        /* \"#utility.yul\":6852:6929   */\n      tag_440\n        /* \"#utility.yul\":6923:6928   */\n      dup4\n        /* \"#utility.yul\":6852:6929   */\n      tag_346\n      jump\t// in\n    tag_440:\n        /* \"#utility.yul\":6952:6959   */\n      dup1\n        /* \"#utility.yul\":6983:6984   */\n      0x00\n        /* \"#utility.yul\":6968:7315   */\n    tag_441:\n        /* \"#utility.yul\":6993:6999   */\n      dup4\n        /* \"#utility.yul\":6990:6991   */\n      dup2\n        /* \"#utility.yul\":6987:7000   */\n      lt\n        /* \"#utility.yul\":6968:7315   */\n      iszero\n      tag_443\n      jumpi\n        /* \"#utility.yul\":7069:7075   */\n      dup2\n        /* \"#utility.yul\":7063:7076   */\n      mload\n        /* \"#utility.yul\":7096:7201   */\n      tag_444\n        /* \"#utility.yul\":7197:7200   */\n      dup9\n        /* \"#utility.yul\":7182:7195   */\n      dup3\n        /* \"#utility.yul\":7096:7201   */\n      tag_353\n      jump\t// in\n    tag_444:\n        /* \"#utility.yul\":7089:7201   */\n      swap8\n      pop\n        /* \"#utility.yul\":7224:7305   */\n      tag_445\n        /* \"#utility.yul\":7298:7304   */\n      dup4\n        /* \"#utility.yul\":7224:7305   */\n      tag_354\n      jump\t// in\n    tag_445:\n        /* \"#utility.yul\":7214:7305   */\n      swap3\n      pop\n        /* \"#utility.yul\":7028:7315   */\n      pop\n        /* \"#utility.yul\":7015:7016   */\n      0x01\n        /* \"#utility.yul\":7012:7013   */\n      dup2\n        /* \"#utility.yul\":7008:7017   */\n      add\n        /* \"#utility.yul\":7003:7017   */\n      swap1\n      pop\n        /* \"#utility.yul\":6968:7315   */\n      jump(tag_441)\n    tag_443:\n        /* \"#utility.yul\":6972:6986   */\n      pop\n        /* \"#utility.yul\":7331:7334   */\n      dup6\n        /* \"#utility.yul\":7324:7334   */\n      swap4\n      pop\n        /* \"#utility.yul\":6606:7340   */\n      pop\n      pop\n      pop\n        /* \"#utility.yul\":6440:7340   */\n      swap3\n      swap2\n      pop\n      pop\n      jump\t// out\n        /* \"#utility.yul\":7346:7803   */\n    tag_34:\n        /* \"#utility.yul\":7531:7535   */\n      0x00\n        /* \"#utility.yul\":7569:7571   */\n      0x20\n        /* \"#utility.yul\":7558:7567   */\n      dup3\n        /* \"#utility.yul\":7554:7572   */\n      add\n        /* \"#utility.yul\":7546:7572   */\n      swap1\n      pop\n        /* \"#utility.yul\":7618:7627   */\n      dup2\n        /* \"#utility.yul\":7612:7616   */\n      dup2\n        /* \"#utility.yul\":7608:7628   */\n      sub\n        /* \"#utility.yul\":7604:7605   */\n      0x00\n        /* \"#utility.yul\":7593:7602   */\n      dup4\n        /* \"#utility.yul\":7589:7606   */\n      add\n        /* \"#utility.yul\":7582:7629   */\n      mstore\n        /* \"#utility.yul\":7646:7796   */\n      tag_447\n        /* \"#utility.yul\":7791:7795   */\n      dup2\n        /* \"#utility.yul\":7782:7788   */\n      dup5\n        /* \"#utility.yul\":7646:7796   */\n      tag_355\n      jump\t// in\n    tag_447:\n        /* \"#utility.yul\":7638:7796   */\n      swap1\n      pop\n        /* \"#utility.yul\":7346:7803   */\n      swap3\n      swap2\n      pop\n      pop\n      jump\t// out\n        /* \"#utility.yul\":7809:7989   */\n    tag_71:\n        /* \"#utility.yul\":7857:7934   */\n      0x4e487b7100000000000000000000000000000000000000000000000000000000\n        /* \"#utility.yul\":7854:7855   */\n      0x00\n        /* \"#utility.yul\":7847:7935   */\n      mstore\n        /* \"#utility.yul\":7954:7958   */\n      0x32\n        /* \"#utility.yul\":7951:7952   */\n      0x04\n        /* \"#utility.yul\":7944:7959   */\n      mstore\n        /* \"#utility.yul\":7978:7982   */\n      0x24\n        /* \"#utility.yul\":7975:7976   */\n      0x00\n        /* \"#utility.yul\":7968:7983   */\n      revert\n        /* \"#utility.yul\":7995:8175   */\n    tag_356:\n        /* \"#utility.yul\":8043:8120   */\n      0x4e487b7100000000000000000000000000000000000000000000000000000000\n        /* \"#utility.yul\":8040:8041   */\n      0x00\n        /* \"#utility.yul\":8033:8121   */\n      mstore\n        /* \"#utility.yul\":8140:8144   */\n      0x11\n        /* \"#utility.yul\":8137:8138   */\n      0x04\n        /* \"#utility.yul\":8130:8145   */\n      mstore\n        /* \"#utility.yul\":8164:8168   */\n      0x24\n        /* \"#utility.yul\":8161:8162   */\n      0x00\n        /* \"#utility.yul\":8154:8169   */\n      revert\n        /* \"#utility.yul\":8181:8414   */\n    tag_76:\n        /* \"#utility.yul\":8220:8223   */\n      0x00\n        /* \"#utility.yul\":8243:8267   */\n      tag_451\n        /* \"#utility.yul\":8261:8266   */\n      dup3\n        /* \"#utility.yul\":8243:8267   */\n      tag_331\n      jump\t// in\n    tag_451:\n        /* \"#utility.yul\":8234:8267   */\n      swap2\n      pop\n        /* \"#utility.yul\":8289:8355   */\n      0xffffffffffffffffffffffffffffffffffffffffffffffffffffffffffffffff\n        /* \"#utility.yul\":8282:8287   */\n      dup3\n        /* \"#utility.yul\":8279:8356   */\n      sub\n        /* \"#utility.yul\":8276:8379   */\n      tag_452\n      jumpi\n        /* \"#utility.yul\":8359:8377   */\n      tag_453\n      tag_356\n      jump\t// in\n    tag_453:\n        /* \"#utility.yul\":8276:8379   */\n    tag_452:\n        /* \"#utility.yul\":8406:8407   */\n      0x01\n        /* \"#utility.yul\":8399:8404   */\n      dup3\n        /* \"#utility.yul\":8395:8408   */\n      add\n        /* \"#utility.yul\":8388:8408   */\n      swap1\n      pop\n        /* \"#utility.yul\":8181:8414   */\n      swap2\n      swap1\n      pop\n      jump\t// out\n        /* \"#utility.yul\":8420:8589   */\n    tag_357:\n        /* \"#utility.yul\":8504:8515   */\n      0x00\n        /* \"#utility.yul\":8538:8544   */\n      dup3\n        /* \"#utility.yul\":8533:8536   */\n      dup3\n        /* \"#utility.yul\":8526:8545   */\n      mstore\n        /* \"#utility.yul\":8578:8582   */\n      0x20\n        /* \"#utility.yul\":8573:8576   */\n      dup3\n        /* \"#utility.yul\":8569:8583   */\n      add\n        /* \"#utility.yul\":8554:8583   */\n      swap1\n      pop\n        /* \"#utility.yul\":8420:8589   */\n      swap3\n      swap2\n      pop\n      pop\n      jump\t// out\n        /* \"#utility.yul\":8595:8758   */\n    tag_358:\n        /* \"#utility.yul\":8735:8750   */\n      0x4f726465722050656e64696e6700000000000000000000000000000000000000\n        /* \"#utility.yul\":8731:8732   */\n      0x00\n        /* \"#utility.yul\":8723:8729   */\n      dup3\n        /* \"#utility.yul\":8719:8733   */\n      add\n        /* \"#utility.yul\":8712:8751   */\n      mstore\n        /* \"#utility.yul\":8595:8758   */\n      pop\n      jump\t// out\n        /* \"#utility.yul\":8764:9130   */\n    tag_359:\n        /* \"#utility.yul\":8906:8909   */\n      0x00\n        /* \"#utility.yul\":8927:8994   */\n      tag_457\n        /* \"#utility.yul\":8991:8993   */\n      0x0d\n        /* \"#utility.yul\":8986:8989   */\n      dup4\n        /* \"#utility.yul\":8927:8994   */\n      tag_357\n      jump\t// in\n    tag_457:\n        /* \"#utility.yul\":8920:8994   */\n      swap2\n      pop\n        /* \"#utility.yul\":9003:9096   */\n      tag_458\n        /* \"#utility.yul\":9092:9095   */\n      dup3\n        /* \"#utility.yul\":9003:9096   */\n      tag_358\n      jump\t// in\n    tag_458:\n        /* \"#utility.yul\":9121:9123   */\n      0x20\n        /* \"#utility.yul\":9116:9119   */\n      dup3\n        /* \"#utility.yul\":9112:9124   */\n      add\n        /* \"#utility.yul\":9105:9124   */\n      swap1\n      pop\n        /* \"#utility.yul\":8764:9130   */\n      swap2\n      swap1\n      pop\n      jump\t// out\n        /* \"#utility.yul\":9136:9555   */\n    tag_94:\n        /* \"#utility.yul\":9302:9306   */\n      0x00\n        /* \"#utility.yul\":9340:9342   */\n      0x20\n        /* \"#utility.yul\":9329:9338   */\n      dup3\n        /* \"#utility.yul\":9325:9343   */\n      add\n        /* \"#utility.yul\":9317:9343   */\n      swap1\n      pop\n        /* \"#utility.yul\":9389:9398   */\n      dup2\n        /* \"#utility.yul\":9383:9387   */\n      dup2\n        /* \"#utility.yul\":9379:9399   */\n      sub\n        /* \"#utility.yul\":9375:9376   */\n      0x00\n        /* \"#utility.yul\":9364:9373   */\n      dup4\n        /* \"#utility.yul\":9360:9377   */\n      add\n        /* \"#utility.yul\":9353:9400   */\n      mstore\n        /* \"#utility.yul\":9417:9548   */\n      tag_460\n        /* \"#utility.yul\":9543:9547   */\n      dup2\n        /* \"#utility.yul\":9417:9548   */\n      tag_359\n      jump\t// in\n    tag_460:\n        /* \"#utility.yul\":9409:9548   */\n      swap1\n      pop\n        /* \"#utility.yul\":9136:9555   */\n      swap2\n      swap1\n      pop\n      jump\t// out\n        /* \"#utility.yul\":9561:9725   */\n    tag_360:\n        /* \"#utility.yul\":9701:9717   */\n      0x4e6f7420417574686f7269736564000000000000000000000000000000000000\n        /* \"#utility.yul\":9697:9698   */\n      0x00\n        /* \"#utility.yul\":9689:9695   */\n      dup3\n        /* \"#utility.yul\":9685:9699   */\n      add\n        /* \"#utility.yul\":9678:9718   */\n      mstore\n        /* \"#utility.yul\":9561:9725   */\n      pop\n      jump\t// out\n        /* \"#utility.yul\":9731:10097   */\n    tag_361:\n        /* \"#utility.yul\":9873:9876   */\n      0x00\n        /* \"#utility.yul\":9894:9961   */\n      tag_463\n        /* \"#utility.yul\":9958:9960   */\n      0x0e\n        /* \"#utility.yul\":9953:9956   */\n      dup4\n        /* \"#utility.yul\":9894:9961   */\n      tag_357\n      jump\t// in\n    tag_463:\n        /* \"#utility.yul\":9887:9961   */\n      swap2\n      pop\n        /* \"#utility.yul\":9970:10063   */\n      tag_464\n        /* \"#utility.yul\":10059:10062   */\n      dup3\n        /* \"#utility.yul\":9970:10063   */\n      tag_360\n      jump\t// in\n    tag_464:\n        /* \"#utility.yul\":10088:10090   */\n      0x20\n        /* \"#utility.yul\":10083:10086   */\n      dup3\n        /* \"#utility.yul\":10079:10091   */\n      add\n        /* \"#utility.yul\":10072:10091   */\n      swap1\n      pop\n        /* \"#utility.yul\":9731:10097   */\n      swap2\n      swap1\n      pop\n      jump\t// out\n        /* \"#utility.yul\":10103:10522   */\n    tag_105:\n        /* \"#utility.yul\":10269:10273   */\n      0x00\n        /* \"#utility.yul\":10307:10309   */\n      0x20\n        /* \"#utility.yul\":10296:10305   */\n      dup3\n        /* \"#utility.yul\":10292:10310   */\n      add\n        /* \"#utility.yul\":10284:10310   */\n      swap1\n      pop\n        /* \"#utility.yul\":10356:10365   */\n      dup2\n        /* \"#utility.yul\":10350:10354   */\n      dup2\n        /* \"#utility.yul\":10346:10366   */\n      sub\n        /* \"#utility.yul\":10342:10343   */\n      0x00\n        /* \"#utility.yul\":10331:10340   */\n      dup4\n        /* \"#utility.yul\":10327:10344   */\n      add\n        /* \"#utility.yul\":10320:10367   */\n      mstore\n        /* \"#utility.yul\":10384:10515   */\n      tag_466\n        /* \"#utility.yul\":10510:10514   */\n      dup2\n        /* \"#utility.yul\":10384:10515   */\n      tag_361\n      jump\t// in\n    tag_466:\n        /* \"#utility.yul\":10376:10515   */\n      swap1\n      pop\n        /* \"#utility.yul\":10103:10522   */\n      swap2\n      swap1\n      pop\n      jump\t// out\n        /* \"#utility.yul\":10528:10646   */\n    tag_362:\n        /* \"#utility.yul\":10615:10639   */\n      tag_468\n        /* \"#utility.yul\":10633:10638   */\n      dup2\n        /* \"#utility.yul\":10615:10639   */\n      tag_331\n      jump\t// in\n    tag_468:\n        /* \"#utility.yul\":10610:10613   */\n      dup3\n        /* \"#utility.yul\":10603:10640   */\n      mstore\n        /* \"#utility.yul\":10528:10646   */\n      pop\n      pop\n      jump\t// out\n        /* \"#utility.yul\":10652:10874   */\n    tag_113:\n        /* \"#utility.yul\":10745:10749   */\n      0x00\n        /* \"#utility.yul\":10783:10785   */\n      0x20\n        /* \"#utility.yul\":10772:10781   */\n      dup3\n        /* \"#utility.yul\":10768:10786   */\n      add\n        /* \"#utility.yul\":10760:10786   */\n      swap1\n      pop\n        /* \"#utility.yul\":10796:10867   */\n      tag_470\n        /* \"#utility.yul\":10864:10865   */\n      0x00\n        /* \"#utility.yul\":10853:10862   */\n      dup4\n        /* \"#utility.yul\":10849:10866   */\n      add\n        /* \"#utility.yul\":10840:10846   */\n      dup5\n        /* \"#utility.yul\":10796:10867   */\n      tag_362\n      jump\t// in\n    tag_470:\n        /* \"#utility.yul\":10652:10874   */\n      swap3\n      swap2\n      pop\n      pop\n      jump\t// out\n        /* \"#utility.yul\":10880:11061   */\n    tag_363:\n        /* \"#utility.yul\":11020:11053   */\n      0x70726963652076616c7565206d757374206265206d6f7265207468616e203000\n        /* \"#utility.yul\":11016:11017   */\n      0x00\n        /* \"#utility.yul\":11008:11014   */\n      dup3\n        /* \"#utility.yul\":11004:11018   */\n      add\n        /* \"#utility.yul\":10997:11054   */\n      mstore\n        /* \"#utility.yul\":10880:11061   */\n      pop\n      jump\t// out\n        /* \"#utility.yul\":11067:11433   */\n    tag_364:\n        /* \"#utility.yul\":11209:11212   */\n      0x00\n        /* \"#utility.yul\":11230:11297   */\n      tag_473\n        /* \"#utility.yul\":11294:11296   */\n      0x1f\n        /* \"#utility.yul\":11289:11292   */\n      dup4\n        /* \"#utility.yul\":11230:11297   */\n      tag_357\n      jump\t// in\n    tag_473:\n        /* \"#utility.yul\":11223:11297   */\n      swap2\n      pop\n        /* \"#utility.yul\":11306:11399   */\n      tag_474\n        /* \"#utility.yul\":11395:11398   */\n      dup3\n        /* \"#utility.yul\":11306:11399   */\n      tag_363\n      jump\t// in\n    tag_474:\n        /* \"#utility.yul\":11424:11426   */\n      0x20\n        /* \"#utility.yul\":11419:11422   */\n      dup3\n        /* \"#utility.yul\":11415:11427   */\n      add\n        /* \"#utility.yul\":11408:11427   */\n      swap1\n      pop\n        /* \"#utility.yul\":11067:11433   */\n      swap2\n      swap1\n      pop\n      jump\t// out\n        /* \"#utility.yul\":11439:11858   */\n    tag_137:\n        /* \"#utility.yul\":11605:11609   */\n      0x00\n        /* \"#utility.yul\":11643:11645   */\n      0x20\n        /* \"#utility.yul\":11632:11641   */\n      dup3\n        /* \"#utility.yul\":11628:11646   */\n      add\n        /* \"#utility.yul\":11620:11646   */\n      swap1\n      pop\n        /* \"#utility.yul\":11692:11701   */\n      dup2\n        /* \"#utility.yul\":11686:11690   */\n      dup2\n        /* \"#utility.yul\":11682:11702   */\n      sub\n        /* \"#utility.yul\":11678:11679   */\n      0x00\n        /* \"#utility.yul\":11667:11676   */\n      dup4\n        /* \"#utility.yul\":11663:11680   */\n      add\n        /* \"#utility.yul\":11656:11703   */\n      mstore\n        /* \"#utility.yul\":11720:11851   */\n      tag_476\n        /* \"#utility.yul\":11846:11850   */\n      dup2\n        /* \"#utility.yul\":11720:11851   */\n      tag_364\n      jump\t// in\n    tag_476:\n        /* \"#utility.yul\":11712:11851   */\n      swap1\n      pop\n        /* \"#utility.yul\":11439:11858   */\n      swap2\n      swap1\n      pop\n      jump\t// out\n        /* \"#utility.yul\":11864:12044   */\n    tag_365:\n        /* \"#utility.yul\":12004:12036   */\n      0x4e6f7420656e6f75676820626c616e636520746f20706c6163652061736b0000\n        /* \"#utility.yul\":12000:12001   */\n      0x00\n        /* \"#utility.yul\":11992:11998   */\n      dup3\n        /* \"#utility.yul\":11988:12002   */\n      add\n        /* \"#utility.yul\":11981:12037   */\n      mstore\n        /* \"#utility.yul\":11864:12044   */\n      pop\n      jump\t// out\n        /* \"#utility.yul\":12050:12416   */\n    tag_366:\n        /* \"#utility.yul\":12192:12195   */\n      0x00\n        /* \"#utility.yul\":12213:12280   */\n      tag_479\n        /* \"#utility.yul\":12277:12279   */\n      0x1e\n        /* \"#utility.yul\":12272:12275   */\n      dup4\n        /* \"#utility.yul\":12213:12280   */\n      tag_357\n      jump\t// in\n    tag_479:\n        /* \"#utility.yul\":12206:12280   */\n      swap2\n      pop\n        /* \"#utility.yul\":12289:12382   */\n      tag_480\n        /* \"#utility.yul\":12378:12381   */\n      dup3\n        /* \"#utility.yul\":12289:12382   */\n      tag_365\n      jump\t// in\n    tag_480:\n        /* \"#utility.yul\":12407:12409   */\n      0x20\n        /* \"#utility.yul\":12402:12405   */\n      dup3\n        /* \"#utility.yul\":12398:12410   */\n      add\n        /* \"#utility.yul\":12391:12410   */\n      swap1\n      pop\n        /* \"#utility.yul\":12050:12416   */\n      swap2\n      swap1\n      pop\n      jump\t// out\n        /* \"#utility.yul\":12422:12841   */\n    tag_140:\n        /* \"#utility.yul\":12588:12592   */\n      0x00\n        /* \"#utility.yul\":12626:12628   */\n      0x20\n        /* \"#utility.yul\":12615:12624   */\n      dup3\n        /* \"#utility.yul\":12611:12629   */\n      add\n        /* \"#utility.yul\":12603:12629   */\n      swap1\n      pop\n        /* \"#utility.yul\":12675:12684   */\n      dup2\n        /* \"#utility.yul\":12669:12673   */\n      dup2\n        /* \"#utility.yul\":12665:12685   */\n      sub\n        /* \"#utility.yul\":12661:12662   */\n      0x00\n        /* \"#utility.yul\":12650:12659   */\n      dup4\n        /* \"#utility.yul\":12646:12663   */\n      add\n        /* \"#utility.yul\":12639:12686   */\n      mstore\n        /* \"#utility.yul\":12703:12834   */\n      tag_482\n        /* \"#utility.yul\":12829:12833   */\n      dup2\n        /* \"#utility.yul\":12703:12834   */\n      tag_366\n      jump\t// in\n    tag_482:\n        /* \"#utility.yul\":12695:12834   */\n      swap1\n      pop\n        /* \"#utility.yul\":12422:12841   */\n      swap2\n      swap1\n      pop\n      jump\t// out\n        /* \"#utility.yul\":12847:13038   */\n    tag_147:\n        /* \"#utility.yul\":12887:12891   */\n      0x00\n        /* \"#utility.yul\":12907:12927   */\n      tag_484\n        /* \"#utility.yul\":12925:12926   */\n      dup3\n        /* \"#utility.yul\":12907:12927   */\n      tag_331\n      jump\t// in\n    tag_484:\n        /* \"#utility.yul\":12902:12927   */\n      swap2\n      pop\n        /* \"#utility.yul\":12941:12961   */\n      tag_485\n        /* \"#utility.yul\":12959:12960   */\n      dup4\n        /* \"#utility.yul\":12941:12961   */\n      tag_331\n      jump\t// in\n    tag_485:\n        /* \"#utility.yul\":12936:12961   */\n      swap3\n      pop\n        /* \"#utility.yul\":12980:12981   */\n      dup3\n        /* \"#utility.yul\":12977:12978   */\n      dup3\n        /* \"#utility.yul\":12974:12982   */\n      lt\n        /* \"#utility.yul\":12971:13005   */\n      iszero\n      tag_486\n      jumpi\n        /* \"#utility.yul\":12985:13003   */\n      tag_487\n      tag_356\n      jump\t// in\n    tag_487:\n        /* \"#utility.yul\":12971:13005   */\n    tag_486:\n        /* \"#utility.yul\":13030:13031   */\n      dup3\n        /* \"#utility.yul\":13027:13028   */\n      dup3\n        /* \"#utility.yul\":13023:13032   */\n      sub\n        /* \"#utility.yul\":13015:13032   */\n      swap1\n      pop\n        /* \"#utility.yul\":12847:13038   */\n      swap3\n      swap2\n      pop\n      pop\n      jump\t// out\n        /* \"#utility.yul\":13044:13392   */\n    tag_149:\n        /* \"#utility.yul\":13084:13091   */\n      0x00\n        /* \"#utility.yul\":13107:13127   */\n      tag_489\n        /* \"#utility.yul\":13125:13126   */\n      dup3\n        /* \"#utility.yul\":13107:13127   */\n      tag_331\n      jump\t// in\n    tag_489:\n        /* \"#utility.yul\":13102:13127   */\n      swap2\n      pop\n        /* \"#utility.yul\":13141:13161   */\n      tag_490\n        /* \"#utility.yul\":13159:13160   */\n      dup4\n        /* \"#utility.yul\":13141:13161   */\n      tag_331\n      jump\t// in\n    tag_490:\n        /* \"#utility.yul\":13136:13161   */\n      swap3\n      pop\n        /* \"#utility.yul\":13329:13330   */\n      dup2\n        /* \"#utility.yul\":13261:13327   */\n      0xffffffffffffffffffffffffffffffffffffffffffffffffffffffffffffffff\n        /* \"#utility.yul\":13257:13331   */\n      div\n        /* \"#utility.yul\":13254:13255   */\n      dup4\n        /* \"#utility.yul\":13251:13332   */\n      gt\n        /* \"#utility.yul\":13246:13247   */\n      dup3\n        /* \"#utility.yul\":13239:13248   */\n      iszero\n        /* \"#utility.yul\":13232:13249   */\n      iszero\n        /* \"#utility.yul\":13228:13333   */\n      and\n        /* \"#utility.yul\":13225:13356   */\n      iszero\n      tag_491\n      jumpi\n        /* \"#utility.yul\":13336:13354   */\n      tag_492\n      tag_356\n      jump\t// in\n    tag_492:\n        /* \"#utility.yul\":13225:13356   */\n    tag_491:\n        /* \"#utility.yul\":13384:13385   */\n      dup3\n        /* \"#utility.yul\":13381:13382   */\n      dup3\n        /* \"#utility.yul\":13377:13386   */\n      mul\n        /* \"#utility.yul\":13366:13386   */\n      swap1\n      pop\n        /* \"#utility.yul\":13044:13392   */\n      swap3\n      swap2\n      pop\n      pop\n      jump\t// out\n        /* \"#utility.yul\":13398:13578   */\n    tag_367:\n        /* \"#utility.yul\":13446:13523   */\n      0x4e487b7100000000000000000000000000000000000000000000000000000000\n        /* \"#utility.yul\":13443:13444   */\n      0x00\n        /* \"#utility.yul\":13436:13524   */\n      mstore\n        /* \"#utility.yul\":13543:13547   */\n      0x12\n        /* \"#utility.yul\":13540:13541   */\n      0x04\n        /* \"#utility.yul\":13533:13548   */\n      mstore\n        /* \"#utility.yul\":13567:13571   */\n      0x24\n        /* \"#utility.yul\":13564:13565   */\n      0x00\n        /* \"#utility.yul\":13557:13572   */\n      revert\n        /* \"#utility.yul\":13584:13769   */\n    tag_151:\n        /* \"#utility.yul\":13624:13625   */\n      0x00\n        /* \"#utility.yul\":13641:13661   */\n      tag_495\n        /* \"#utility.yul\":13659:13660   */\n      dup3\n        /* \"#utility.yul\":13641:13661   */\n      tag_331\n      jump\t// in\n    tag_495:\n        /* \"#utility.yul\":13636:13661   */\n      swap2\n      pop\n        /* \"#utility.yul\":13675:13695   */\n      tag_496\n        /* \"#utility.yul\":13693:13694   */\n      dup4\n        /* \"#utility.yul\":13675:13695   */\n      tag_331\n      jump\t// in\n    tag_496:\n        /* \"#utility.yul\":13670:13695   */\n      swap3\n      pop\n        /* \"#utility.yul\":13714:13715   */\n      dup3\n        /* \"#utility.yul\":13704:13739   */\n      tag_497\n      jumpi\n        /* \"#utility.yul\":13719:13737   */\n      tag_498\n      tag_367\n      jump\t// in\n    tag_498:\n        /* \"#utility.yul\":13704:13739   */\n    tag_497:\n        /* \"#utility.yul\":13761:13762   */\n      dup3\n        /* \"#utility.yul\":13758:13759   */\n      dup3\n        /* \"#utility.yul\":13754:13763   */\n      div\n        /* \"#utility.yul\":13749:13763   */\n      swap1\n      pop\n        /* \"#utility.yul\":13584:13769   */\n      swap3\n      swap2\n      pop\n      pop\n      jump\t// out\n        /* \"#utility.yul\":13775:13871   */\n    tag_368:\n        /* \"#utility.yul\":13812:13819   */\n      0x00\n        /* \"#utility.yul\":13841:13865   */\n      tag_500\n        /* \"#utility.yul\":13859:13864   */\n      dup3\n        /* \"#utility.yul\":13841:13865   */\n      tag_341\n      jump\t// in\n    tag_500:\n        /* \"#utility.yul\":13830:13865   */\n      swap1\n      pop\n        /* \"#utility.yul\":13775:13871   */\n      swap2\n      swap1\n      pop\n      jump\t// out\n        /* \"#utility.yul\":13877:13995   */\n    tag_369:\n        /* \"#utility.yul\":13964:13988   */\n      tag_502\n        /* \"#utility.yul\":13982:13987   */\n      dup2\n        /* \"#utility.yul\":13964:13988   */\n      tag_368\n      jump\t// in\n    tag_502:\n        /* \"#utility.yul\":13959:13962   */\n      dup3\n        /* \"#utility.yul\":13952:13989   */\n      mstore\n        /* \"#utility.yul\":13877:13995   */\n      pop\n      pop\n      jump\t// out\n        /* \"#utility.yul\":14001:14142   */\n    tag_370:\n        /* \"#utility.yul\":14093:14135   */\n      tag_504\n        /* \"#utility.yul\":14129:14134   */\n      dup2\n        /* \"#utility.yul\":14093:14135   */\n      tag_350\n      jump\t// in\n    tag_504:\n        /* \"#utility.yul\":14088:14091   */\n      dup3\n        /* \"#utility.yul\":14081:14136   */\n      mstore\n        /* \"#utility.yul\":14001:14142   */\n      pop\n      pop\n      jump\t// out\n        /* \"#utility.yul\":14148:14711   */\n    tag_155:\n        /* \"#utility.yul\":14330:14334   */\n      0x00\n        /* \"#utility.yul\":14368:14371   */\n      0x80\n        /* \"#utility.yul\":14357:14366   */\n      dup3\n        /* \"#utility.yul\":14353:14372   */\n      add\n        /* \"#utility.yul\":14345:14372   */\n      swap1\n      pop\n        /* \"#utility.yul\":14382:14453   */\n      tag_506\n        /* \"#utility.yul\":14450:14451   */\n      0x00\n        /* \"#utility.yul\":14439:14448   */\n      dup4\n        /* \"#utility.yul\":14435:14452   */\n      add\n        /* \"#utility.yul\":14426:14432   */\n      dup8\n        /* \"#utility.yul\":14382:14453   */\n      tag_369\n      jump\t// in\n    tag_506:\n        /* \"#utility.yul\":14463:14535   */\n      tag_507\n        /* \"#utility.yul\":14531:14533   */\n      0x20\n        /* \"#utility.yul\":14520:14529   */\n      dup4\n        /* \"#utility.yul\":14516:14534   */\n      add\n        /* \"#utility.yul\":14507:14513   */\n      dup7\n        /* \"#utility.yul\":14463:14535   */\n      tag_362\n      jump\t// in\n    tag_507:\n        /* \"#utility.yul\":14545:14617   */\n      tag_508\n        /* \"#utility.yul\":14613:14615   */\n      0x40\n        /* \"#utility.yul\":14602:14611   */\n      dup4\n        /* \"#utility.yul\":14598:14616   */\n      add\n        /* \"#utility.yul\":14589:14595   */\n      dup6\n        /* \"#utility.yul\":14545:14617   */\n      tag_362\n      jump\t// in\n    tag_508:\n        /* \"#utility.yul\":14627:14704   */\n      tag_509\n        /* \"#utility.yul\":14700:14702   */\n      0x60\n        /* \"#utility.yul\":14689:14698   */\n      dup4\n        /* \"#utility.yul\":14685:14703   */\n      add\n        /* \"#utility.yul\":14676:14682   */\n      dup5\n        /* \"#utility.yul\":14627:14704   */\n      tag_370\n      jump\t// in\n    tag_509:\n        /* \"#utility.yul\":14148:14711   */\n      swap6\n      swap5\n      pop\n      pop\n      pop\n      pop\n      pop\n      jump\t// out\n        /* \"#utility.yul\":14717:14897   */\n    tag_371:\n        /* \"#utility.yul\":14857:14889   */\n      0x4e6f7420656e6f75676820626c616e636520746f20706c616365206269640000\n        /* \"#utility.yul\":14853:14854   */\n      0x00\n        /* \"#utility.yul\":14845:14851   */\n      dup3\n        /* \"#utility.yul\":14841:14855   */\n      add\n        /* \"#utility.yul\":14834:14890   */\n      mstore\n        /* \"#utility.yul\":14717:14897   */\n      pop\n      jump\t// out\n        /* \"#utility.yul\":14903:15269   */\n    tag_372:\n        /* \"#utility.yul\":15045:15048   */\n      0x00\n        /* \"#utility.yul\":15066:15133   */\n      tag_512\n        /* \"#utility.yul\":15130:15132   */\n      0x1e\n        /* \"#utility.yul\":15125:15128   */\n      dup4\n        /* \"#utility.yul\":15066:15133   */\n      tag_357\n      jump\t// in\n    tag_512:\n        /* \"#utility.yul\":15059:15133   */\n      swap2\n      pop\n        /* \"#utility.yul\":15142:15235   */\n      tag_513\n        /* \"#utility.yul\":15231:15234   */\n      dup3\n        /* \"#utility.yul\":15142:15235   */\n      tag_371\n      jump\t// in\n    tag_513:\n        /* \"#utility.yul\":15260:15262   */\n      0x20\n        /* \"#utility.yul\":15255:15258   */\n      dup3\n        /* \"#utility.yul\":15251:15263   */\n      add\n        /* \"#utility.yul\":15244:15263   */\n      swap1\n      pop\n        /* \"#utility.yul\":14903:15269   */\n      swap2\n      swap1\n      pop\n      jump\t// out\n        /* \"#utility.yul\":15275:15694   */\n    tag_192:\n        /* \"#utility.yul\":15441:15445   */\n      0x00\n        /* \"#utility.yul\":15479:15481   */\n      0x20\n        /* \"#utility.yul\":15468:15477   */\n      dup3\n        /* \"#utility.yul\":15464:15482   */\n      add\n        /* \"#utility.yul\":15456:15482   */\n      swap1\n      pop\n        /* \"#utility.yul\":15528:15537   */\n      dup2\n        /* \"#utility.yul\":15522:15526   */\n      dup2\n        /* \"#utility.yul\":15518:15538   */\n      sub\n        /* \"#utility.yul\":15514:15515   */\n      0x00\n        /* \"#utility.yul\":15503:15512   */\n      dup4\n        /* \"#utility.yul\":15499:15516   */\n      add\n        /* \"#utility.yul\":15492:15539   */\n      mstore\n        /* \"#utility.yul\":15556:15687   */\n      tag_515\n        /* \"#utility.yul\":15682:15686   */\n      dup2\n        /* \"#utility.yul\":15556:15687   */\n      tag_372\n      jump\t// in\n    tag_515:\n        /* \"#utility.yul\":15548:15687   */\n      swap1\n      pop\n        /* \"#utility.yul\":15275:15694   */\n      swap2\n      swap1\n      pop\n      jump\t// out\n        /* \"#utility.yul\":15700:15776   */\n    tag_373:\n        /* \"#utility.yul\":15736:15743   */\n      0x00\n        /* \"#utility.yul\":15765:15770   */\n      dup2\n        /* \"#utility.yul\":15754:15770   */\n      swap1\n      pop\n        /* \"#utility.yul\":15700:15776   */\n      swap2\n      swap1\n      pop\n      jump\t// out\n        /* \"#utility.yul\":15782:16309   */\n    tag_258:\n        /* \"#utility.yul\":15821:15825   */\n      0x00\n        /* \"#utility.yul\":15841:15860   */\n      tag_518\n        /* \"#utility.yul\":15858:15859   */\n      dup3\n        /* \"#utility.yul\":15841:15860   */\n      tag_373\n      jump\t// in\n    tag_518:\n        /* \"#utility.yul\":15836:15860   */\n      swap2\n      pop\n        /* \"#utility.yul\":15874:15893   */\n      tag_519\n        /* \"#utility.yul\":15891:15892   */\n      dup4\n        /* \"#utility.yul\":15874:15893   */\n      tag_373\n      jump\t// in\n    tag_519:\n        /* \"#utility.yul\":15869:15893   */\n      swap3\n      pop\n        /* \"#utility.yul\":16063:16064   */\n      dup3\n        /* \"#utility.yul\":15995:16061   */\n      0x8000000000000000000000000000000000000000000000000000000000000000\n        /* \"#utility.yul\":15991:16065   */\n      add\n        /* \"#utility.yul\":15988:15989   */\n      dup3\n        /* \"#utility.yul\":15984:16066   */\n      slt\n        /* \"#utility.yul\":15979:15980   */\n      0x00\n        /* \"#utility.yul\":15976:15977   */\n      dup5\n        /* \"#utility.yul\":15972:15981   */\n      slt\n        /* \"#utility.yul\":15965:15982   */\n      iszero\n        /* \"#utility.yul\":15961:16067   */\n      and\n        /* \"#utility.yul\":15958:16090   */\n      iszero\n      tag_520\n      jumpi\n        /* \"#utility.yul\":16070:16088   */\n      tag_521\n      tag_356\n      jump\t// in\n    tag_521:\n        /* \"#utility.yul\":15958:16090   */\n    tag_520:\n        /* \"#utility.yul\":16249:16250   */\n      dup3\n        /* \"#utility.yul\":16181:16247   */\n      0x7fffffffffffffffffffffffffffffffffffffffffffffffffffffffffffffff\n        /* \"#utility.yul\":16177:16251   */\n      add\n        /* \"#utility.yul\":16174:16175   */\n      dup3\n        /* \"#utility.yul\":16170:16252   */\n      sgt\n        /* \"#utility.yul\":16166:16167   */\n      0x00\n        /* \"#utility.yul\":16163:16164   */\n      dup5\n        /* \"#utility.yul\":16159:16168   */\n      slt\n        /* \"#utility.yul\":16155:16253   */\n      and\n        /* \"#utility.yul\":16152:16276   */\n      iszero\n      tag_522\n      jumpi\n        /* \"#utility.yul\":16256:16274   */\n      tag_523\n      tag_356\n      jump\t// in\n    tag_523:\n        /* \"#utility.yul\":16152:16276   */\n    tag_522:\n        /* \"#utility.yul\":16301:16302   */\n      dup3\n        /* \"#utility.yul\":16298:16299   */\n      dup3\n        /* \"#utility.yul\":16294:16303   */\n      sub\n        /* \"#utility.yul\":16286:16303   */\n      swap1\n      pop\n        /* \"#utility.yul\":15782:16309   */\n      swap3\n      swap2\n      pop\n      pop\n      jump\t// out\n        /* \"#utility.yul\":16315:16700   */\n    tag_260:\n        /* \"#utility.yul\":16354:16355   */\n      0x00\n        /* \"#utility.yul\":16371:16390   */\n      tag_525\n        /* \"#utility.yul\":16388:16389   */\n      dup3\n        /* \"#utility.yul\":16371:16390   */\n      tag_373\n      jump\t// in\n    tag_525:\n        /* \"#utility.yul\":16366:16390   */\n      swap2\n      pop\n        /* \"#utility.yul\":16404:16423   */\n      tag_526\n        /* \"#utility.yul\":16421:16422   */\n      dup4\n        /* \"#utility.yul\":16404:16423   */\n      tag_373\n      jump\t// in\n    tag_526:\n        /* \"#utility.yul\":16399:16423   */\n      swap3\n      pop\n        /* \"#utility.yul\":16442:16443   */\n      dup3\n        /* \"#utility.yul\":16432:16467   */\n      tag_527\n      jumpi\n        /* \"#utility.yul\":16447:16465   */\n      tag_528\n      tag_367\n      jump\t// in\n    tag_528:\n        /* \"#utility.yul\":16432:16467   */\n    tag_527:\n        /* \"#utility.yul\":16633:16634   */\n      0x01\n        /* \"#utility.yul\":16630:16631   */\n      0x00\n        /* \"#utility.yul\":16626:16635   */\n      sub\n        /* \"#utility.yul\":16623:16624   */\n      dup4\n        /* \"#utility.yul\":16620:16636   */\n      eq\n        /* \"#utility.yul\":16539:16605   */\n      0x8000000000000000000000000000000000000000000000000000000000000000\n        /* \"#utility.yul\":16536:16537   */\n      dup4\n        /* \"#utility.yul\":16533:16606   */\n      eq\n        /* \"#utility.yul\":16516:16646   */\n      and\n        /* \"#utility.yul\":16513:16669   */\n      iszero\n      tag_529\n      jumpi\n        /* \"#utility.yul\":16649:16667   */\n      tag_530\n      tag_356\n      jump\t// in\n    tag_530:\n        /* \"#utility.yul\":16513:16669   */\n    tag_529:\n        /* \"#utility.yul\":16692:16693   */\n      dup3\n        /* \"#utility.yul\":16689:16690   */\n      dup3\n        /* \"#utility.yul\":16684:16694   */\n      sdiv\n        /* \"#utility.yul\":16679:16694   */\n      swap1\n      pop\n        /* \"#utility.yul\":16315:16700   */\n      swap3\n      swap2\n      pop\n      pop\n      jump\t// out\n        /* \"#utility.yul\":16706:17231   */\n    tag_262:\n        /* \"#utility.yul\":16745:16748   */\n      0x00\n        /* \"#utility.yul\":16764:16783   */\n      tag_532\n        /* \"#utility.yul\":16781:16782   */\n      dup3\n        /* \"#utility.yul\":16764:16783   */\n      tag_373\n      jump\t// in\n    tag_532:\n        /* \"#utility.yul\":16759:16783   */\n      swap2\n      pop\n        /* \"#utility.yul\":16797:16816   */\n      tag_533\n        /* \"#utility.yul\":16814:16815   */\n      dup4\n        /* \"#utility.yul\":16797:16816   */\n      tag_373\n      jump\t// in\n    tag_533:\n        /* \"#utility.yul\":16792:16816   */\n      swap3\n      pop\n        /* \"#utility.yul\":16985:16986   */\n      dup2\n        /* \"#utility.yul\":16917:16983   */\n      0x7fffffffffffffffffffffffffffffffffffffffffffffffffffffffffffffff\n        /* \"#utility.yul\":16913:16987   */\n      sub\n        /* \"#utility.yul\":16910:16911   */\n      dup4\n        /* \"#utility.yul\":16906:16988   */\n      sgt\n        /* \"#utility.yul\":16901:16902   */\n      0x00\n        /* \"#utility.yul\":16898:16899   */\n      dup4\n        /* \"#utility.yul\":16894:16903   */\n      slt\n        /* \"#utility.yul\":16887:16904   */\n      iszero\n        /* \"#utility.yul\":16883:16989   */\n      and\n        /* \"#utility.yul\":16880:17012   */\n      iszero\n      tag_534\n      jumpi\n        /* \"#utility.yul\":16992:17010   */\n      tag_535\n      tag_356\n      jump\t// in\n    tag_535:\n        /* \"#utility.yul\":16880:17012   */\n    tag_534:\n        /* \"#utility.yul\":17172:17173   */\n      dup2\n        /* \"#utility.yul\":17104:17170   */\n      0x8000000000000000000000000000000000000000000000000000000000000000\n        /* \"#utility.yul\":17100:17174   */\n      sub\n        /* \"#utility.yul\":17097:17098   */\n      dup4\n        /* \"#utility.yul\":17093:17175   */\n      slt\n        /* \"#utility.yul\":17089:17090   */\n      0x00\n        /* \"#utility.yul\":17086:17087   */\n      dup4\n        /* \"#utility.yul\":17082:17091   */\n      slt\n        /* \"#utility.yul\":17078:17176   */\n      and\n        /* \"#utility.yul\":17075:17199   */\n      iszero\n      tag_536\n      jumpi\n        /* \"#utility.yul\":17179:17197   */\n      tag_537\n      tag_356\n      jump\t// in\n    tag_537:\n        /* \"#utility.yul\":17075:17199   */\n    tag_536:\n        /* \"#utility.yul\":17223:17224   */\n      dup3\n        /* \"#utility.yul\":17220:17221   */\n      dup3\n        /* \"#utility.yul\":17216:17225   */\n      add\n        /* \"#utility.yul\":17209:17225   */\n      swap1\n      pop\n        /* \"#utility.yul\":16706:17231   */\n      swap3\n      swap2\n      pop\n      pop\n      jump\t// out\n        /* \"#utility.yul\":17237:17468   */\n    tag_272:\n        /* \"#utility.yul\":17275:17278   */\n      0x00\n        /* \"#utility.yul\":17298:17321   */\n      tag_539\n        /* \"#utility.yul\":17315:17320   */\n      dup3\n        /* \"#utility.yul\":17298:17321   */\n      tag_373\n      jump\t// in\n    tag_539:\n        /* \"#utility.yul\":17289:17321   */\n      swap2\n      pop\n        /* \"#utility.yul\":17343:17409   */\n      0x7fffffffffffffffffffffffffffffffffffffffffffffffffffffffffffffff\n        /* \"#utility.yul\":17336:17341   */\n      dup3\n        /* \"#utility.yul\":17333:17410   */\n      sub\n        /* \"#utility.yul\":17330:17433   */\n      tag_540\n      jumpi\n        /* \"#utility.yul\":17413:17431   */\n      tag_541\n      tag_356\n      jump\t// in\n    tag_541:\n        /* \"#utility.yul\":17330:17433   */\n    tag_540:\n        /* \"#utility.yul\":17460:17461   */\n      0x01\n        /* \"#utility.yul\":17453:17458   */\n      dup3\n        /* \"#utility.yul\":17449:17462   */\n      add\n        /* \"#utility.yul\":17442:17462   */\n      swap1\n      pop\n        /* \"#utility.yul\":17237:17468   */\n      swap2\n      swap1\n      pop\n      jump\t// out\n        /* \"#utility.yul\":17474:17705   */\n    tag_278:\n        /* \"#utility.yul\":17512:17515   */\n      0x00\n        /* \"#utility.yul\":17535:17558   */\n      tag_543\n        /* \"#utility.yul\":17552:17557   */\n      dup3\n        /* \"#utility.yul\":17535:17558   */\n      tag_373\n      jump\t// in\n    tag_543:\n        /* \"#utility.yul\":17526:17558   */\n      swap2\n      pop\n        /* \"#utility.yul\":17580:17646   */\n      0x8000000000000000000000000000000000000000000000000000000000000000\n        /* \"#utility.yul\":17573:17578   */\n      dup3\n        /* \"#utility.yul\":17570:17647   */\n      sub\n        /* \"#utility.yul\":17567:17670   */\n      tag_544\n      jumpi\n        /* \"#utility.yul\":17650:17668   */\n      tag_545\n      tag_356\n      jump\t// in\n    tag_545:\n        /* \"#utility.yul\":17567:17670   */\n    tag_544:\n        /* \"#utility.yul\":17697:17698   */\n      0x01\n        /* \"#utility.yul\":17690:17695   */\n      dup3\n        /* \"#utility.yul\":17686:17699   */\n      sub\n        /* \"#utility.yul\":17679:17699   */\n      swap1\n      pop\n        /* \"#utility.yul\":17474:17705   */\n      swap2\n      swap1\n      pop\n      jump\t// out\n\n    auxdata: 0xa2646970667358221220a4bff38295001f449590d4238936c51025d780ff44138c8f1450f877280c994a64736f6c634300080d0033\n}\n",
				"bytecode": {
					"linkReferences": {},
					"object": "60806040523480156200001157600080fd5b50604051620023e2380380620023e28339818101604052810190620000379190620000c5565b336000806101000a81548173ffffffffffffffffffffffffffffffffffffffff021916908373ffffffffffffffffffffffffffffffffffffffff1602179055508060018190555050620000f7565b600080fd5b6000819050919050565b6200009f816200008a565b8114620000ab57600080fd5b50565b600081519050620000bf8162000094565b92915050565b600060208284031215620000de57620000dd62000085565b5b6000620000ee84828501620000ae565b91505092915050565b6122db80620001076000396000f3fe60806040526004361061009c5760003560e01c8063734a2e7811610064578063734a2e781461019a57806378c5b268146101d75780639703ef35146101f35780639979ef451461021c578063c5374af214610238578063ce0cdc87146102635761009c565b8063122de8f2146100a15780631628e0f5146100cc5780632db6dfa7146100f55780634471417f1461013257806369f632e21461015d575b600080fd5b3480156100ad57600080fd5b506100b661028e565b6040516100c39190611991565b60405180910390f35b3480156100d857600080fd5b506100f360048036038101906100ee91906119e4565b6103b4565b005b34801561010157600080fd5b5061011c600480360381019061011791906119e4565b6106eb565b6040516101299190611a52565b60405180910390f35b34801561013e57600080fd5b5061014761073a565b6040516101549190611bf7565b60405180910390f35b34801561016957600080fd5b50610184600480360381019061017f91906119e4565b61083e565b6040516101919190611a52565b60405180910390f35b3480156101a657600080fd5b506101c160048036038101906101bc91906119e4565b61088d565b6040516101ce9190611a52565b60405180910390f35b6101f160048036038101906101ec91906119e4565b6108dc565b005b3480156101ff57600080fd5b5061021a600480360381019061021591906119e4565b610b3e565b005b610236600480360381019061023191906119e4565b610e75565b005b34801561024457600080fd5b5061024d6110d7565b60405161025a9190611bf7565b60405180910390f35b34801561026f57600080fd5b506102786111db565b6040516102859190611991565b60405180910390f35b6060610298611301565b60005b60038054905081101561035d573373ffffffffffffffffffffffffffffffffffffffff16600382815481106102d3576102d2611c19565b5b906000526020600020906004020160000160009054906101000a900473ffffffffffffffffffffffffffffffffffffffff1673ffffffffffffffffffffffffffffffffffffffff160361034a5760048190806001815401808255809150506001900390600052602060002001600090919091909150555b808061035590611c77565b91505061029b565b5060048054806020026020016040519081016040528092919081815260200182805480156103aa57602002820191906000526020600020905b815481526020019060010190808311610396575b5050505050905090565b600381815481106103c8576103c7611c19565b5b90600052602060002090600402016040518060800160405290816000820160009054906101000a900473ffffffffffffffffffffffffffffffffffffffff1673ffffffffffffffffffffffffffffffffffffffff1673ffffffffffffffffffffffffffffffffffffffff16815260200160018201548152602001600282015481526020016003820160009054906101000a900460ff1660018111156104705761046f611aa8565b5b600181111561048257610481611aa8565b5b815250506000600181111561049a57610499611aa8565b5b816060015160018111156104b1576104b0611aa8565b5b146104f1576040517f08c379a00000000000000000000000000000000000000000000000000000000081526004016104e890611d1c565b60405180910390fd5b6003828154811061050557610504611c19565b5b90600052602060002090600402016040518060800160405290816000820160009054906101000a900473ffffffffffffffffffffffffffffffffffffffff1673ffffffffffffffffffffffffffffffffffffffff1673ffffffffffffffffffffffffffffffffffffffff16815260200160018201548152602001600282015481526020016003820160009054906101000a900460ff1660018111156105ad576105ac611aa8565b5b60018111156105bf576105be611aa8565b5b81525050338073ffffffffffffffffffffffffffffffffffffffff16826000015173ffffffffffffffffffffffffffffffffffffffff1614610636576040517f08c379a000000000000000000000000000000000000000000000000000000000815260040161062d90611d88565b60405180910390fd5b6003848154811061064a57610649611c19565b5b9060005260206000209060040201600080820160006101000a81549073ffffffffffffffffffffffffffffffffffffffff0219169055600182016000905560028201600090556003820160006101000a81549060ff021916905550506106ae611349565b7f48d3043fff66c1aee14954ac5aa463b0297fb08c9b60ee00486fb3387bb58aac846040516106dd9190611db7565b60405180910390a150505050565b60006002828154811061070157610700611c19565b5b906000526020600020906004020160000160009054906101000a900473ffffffffffffffffffffffffffffffffffffffff169050919050565b60606002805480602002602001604051908101604052809291908181526020016000905b8282101561083557838290600052602060002090600402016040518060800160405290816000820160009054906101000a900473ffffffffffffffffffffffffffffffffffffffff1673ffffffffffffffffffffffffffffffffffffffff1673ffffffffffffffffffffffffffffffffffffffff16815260200160018201548152602001600282015481526020016003820160009054906101000a900460ff1660018111156108105761080f611aa8565b5b600181111561082257610821611aa8565b5b815250508152602001906001019061075e565b50505050905090565b60006002828154811061085457610853611c19565b5b906000526020600020906004020160000160009054906101000a900473ffffffffffffffffffffffffffffffffffffffff169050919050565b6000600382815481106108a3576108a2611c19565b5b906000526020600020906004020160000160009054906101000a900473ffffffffffffffffffffffffffffffffffffffff169050919050565b6000811015610920576040517f08c379a000000000000000000000000000000000000000000000000000000000815260040161091790611e1e565b60405180910390fd5b80341015610963576040517f08c379a000000000000000000000000000000000000000000000000000000000815260040161095a90611e8a565b60405180910390fd5b6000429050600060405180608001604052803373ffffffffffffffffffffffffffffffffffffffff168152602001848152602001838152602001600060018111156109b1576109b0611aa8565b5b8152509050600381908060018154018082558091505060019003906000526020600020906004020160009091909190915060008201518160000160006101000a81548173ffffffffffffffffffffffffffffffffffffffff021916908373ffffffffffffffffffffffffffffffffffffffff160217905550602082015181600101556040820151816002015560608201518160030160006101000a81548160ff02191690836001811115610a6857610a67611aa8565b5b0217905550505060008054906101000a900473ffffffffffffffffffffffffffffffffffffffff1673ffffffffffffffffffffffffffffffffffffffff166108fc60646001546064610aba9190611eaa565b34610ac59190611ede565b610acf9190611f67565b9081150290604051600060405180830381858888f19350505050158015610afa573d6000803e3d6000fd5b507fc2125a7f3edfeff7a3bbcfe393c5aa3a6589585d4a7ee70db48c34f67c8209e23384846000604051610b319493929190611fc8565b60405180910390a1505050565b60028181548110610b5257610b51611c19565b5b90600052602060002090600402016040518060800160405290816000820160009054906101000a900473ffffffffffffffffffffffffffffffffffffffff1673ffffffffffffffffffffffffffffffffffffffff1673ffffffffffffffffffffffffffffffffffffffff16815260200160018201548152602001600282015481526020016003820160009054906101000a900460ff166001811115610bfa57610bf9611aa8565b5b6001811115610c0c57610c0b611aa8565b5b8152505060006001811115610c2457610c23611aa8565b5b81606001516001811115610c3b57610c3a611aa8565b5b14610c7b576040517f08c379a0000000000000000000000000000000000000000000000000000000008152600401610c7290611d1c565b60405180910390fd5b60028281548110610c8f57610c8e611c19565b5b90600052602060002090600402016040518060800160405290816000820160009054906101000a900473ffffffffffffffffffffffffffffffffffffffff1673ffffffffffffffffffffffffffffffffffffffff1673ffffffffffffffffffffffffffffffffffffffff16815260200160018201548152602001600282015481526020016003820160009054906101000a900460ff166001811115610d3757610d36611aa8565b5b6001811115610d4957610d48611aa8565b5b81525050338073ffffffffffffffffffffffffffffffffffffffff16826000015173ffffffffffffffffffffffffffffffffffffffff1614610dc0576040517f08c379a0000000000000000000000000000000000000000000000000000000008152600401610db790611d88565b60405180910390fd5b60028481548110610dd457610dd3611c19565b5b9060005260206000209060040201600080820160006101000a81549073ffffffffffffffffffffffffffffffffffffffff0219169055600182016000905560028201600090556003820160006101000a81549060ff02191690555050610e38611464565b7fc845a6832afa0a4048dd70bbba2186093508a6b63a8d5d70a508f819fef257f884604051610e679190611db7565b60405180910390a150505050565b6000811015610eb9576040517f08c379a0000000000000000000000000000000000000000000000000000000008152600401610eb090611e1e565b60405180910390fd5b80341015610efc576040517f08c379a0000000000000000000000000000000000000000000000000000000008152600401610ef390612059565b60405180910390fd5b6000429050600060405180608001604052803373ffffffffffffffffffffffffffffffffffffffff16815260200184815260200183815260200160006001811115610f4a57610f49611aa8565b5b8152509050600281908060018154018082558091505060019003906000526020600020906004020160009091909190915060008201518160000160006101000a81548173ffffffffffffffffffffffffffffffffffffffff021916908373ffffffffffffffffffffffffffffffffffffffff160217905550602082015181600101556040820151816002015560608201518160030160006101000a81548160ff0219169083600181111561100157611000611aa8565b5b0217905550505060008054906101000a900473ffffffffffffffffffffffffffffffffffffffff1673ffffffffffffffffffffffffffffffffffffffff166108fc606460015460646110539190611eaa565b3461105e9190611ede565b6110689190611f67565b9081150290604051600060405180830381858888f19350505050158015611093573d6000803e3d6000fd5b507fa64806d6d5d480697a0b11c92b915a4ff7b93c0be28171d65d30041a0c360d0433848460006040516110ca9493929190611fc8565b60405180910390a1505050565b60606003805480602002602001604051908101604052809291908181526020016000905b828210156111d257838290600052602060002090600402016040518060800160405290816000820160009054906101000a900473ffffffffffffffffffffffffffffffffffffffff1673ffffffffffffffffffffffffffffffffffffffff1673ffffffffffffffffffffffffffffffffffffffff16815260200160018201548152602001600282015481526020016003820160009054906101000a900460ff1660018111156111ad576111ac611aa8565b5b60018111156111bf576111be611aa8565b5b81525050815260200190600101906110fb565b50505050905090565b60606111e5611301565b60005b6002805490508110156112aa573373ffffffffffffffffffffffffffffffffffffffff16600282815481106112205761121f611c19565b5b906000526020600020906004020160000160009054906101000a900473ffffffffffffffffffffffffffffffffffffffff1673ffffffffffffffffffffffffffffffffffffffff16036112975760048190806001815401808255809150506001900390600052602060002001600090919091909150555b80806112a290611c77565b9150506111e8565b5060048054806020026020016040519081016040528092919081815260200182805480156112f757602002820191906000526020600020905b8154815260200190600101908083116112e3575b5050505050905090565b60005b600480549050811015611346576004818154811061132557611324611c19565b5b9060005260206000200160009055808061133e90611c77565b915050611304565b50565b6114626002805480602002602001604051908101604052809291908181526020016000905b8282101561144557838290600052602060002090600402016040518060800160405290816000820160009054906101000a900473ffffffffffffffffffffffffffffffffffffffff1673ffffffffffffffffffffffffffffffffffffffff1673ffffffffffffffffffffffffffffffffffffffff16815260200160018201548152602001600282015481526020016003820160009054906101000a900460ff1660018111156114205761141f611aa8565b5b600181111561143257611431611aa8565b5b815250508152602001906001019061136e565b505050506000600160028054905061145d9190611eaa565b61157f565b565b61157d6002805480602002602001604051908101604052809291908181526020016000905b8282101561156057838290600052602060002090600402016040518060800160405290816000820160009054906101000a900473ffffffffffffffffffffffffffffffffffffffff1673ffffffffffffffffffffffffffffffffffffffff1673ffffffffffffffffffffffffffffffffffffffff16815260200160018201548152602001600282015481526020016003820160009054906101000a900460ff16600181111561153b5761153a611aa8565b5b600181111561154d5761154c611aa8565b5b8152505081526020019060010190611489565b50505050600060016002805490506115789190611eaa565b611724565b565b6000829050600082905080820361159757505061171f565b600085600286866115a89190612083565b6115b29190612117565b866115bd9190612181565b815181106115ce576115cd611c19565b5b60200260200101516040015190505b8183136116f3575b808684815181106115f9576115f8611c19565b5b602002602001015160400151111561161e57828061161690612215565b9350506115e5565b5b85828151811061163257611631611c19565b5b6020026020010151604001518111156116585781806116509061225d565b92505061161f565b8183136116ee5785828151811061167257611671611c19565b5b602002602001015186848151811061168d5761168c611c19565b5b60200260200101518785815181106116a8576116a7611c19565b5b602002602001018885815181106116c2576116c1611c19565b5b60200260200101829052829052505082806116dc90612215565b93505081806116ea9061225d565b9250505b6115dd565b818512156117075761170686868461157f565b5b8383121561171b5761171a86848661157f565b5b5050505b505050565b6000829050600082905080820361173c5750506118c4565b6000856002868661174d9190612083565b6117579190612117565b866117629190612181565b8151811061177357611772611c19565b5b60200260200101516040015190505b818313611898575b8086848151811061179e5761179d611c19565b5b60200260200101516040015110156117c35782806117bb90612215565b93505061178a565b5b8582815181106117d7576117d6611c19565b5b6020026020010151604001518110156117fd5781806117f59061225d565b9250506117c4565b8183136118935785828151811061181757611816611c19565b5b602002602001015186848151811061183257611831611c19565b5b602002602001015187858151811061184d5761184c611c19565b5b6020026020010188858151811061186757611866611c19565b5b602002602001018290528290525050828061188190612215565b935050818061188f9061225d565b9250505b611782565b818512156118ac576118ab868684611724565b5b838312156118c0576118bf868486611724565b5b5050505b505050565b600081519050919050565b600082825260208201905092915050565b6000819050602082019050919050565b6000819050919050565b611908816118f5565b82525050565b600061191a83836118ff565b60208301905092915050565b6000602082019050919050565b600061193e826118c9565b61194881856118d4565b9350611953836118e5565b8060005b8381101561198457815161196b888261190e565b975061197683611926565b925050600181019050611957565b5085935050505092915050565b600060208201905081810360008301526119ab8184611933565b905092915050565b600080fd5b6119c1816118f5565b81146119cc57600080fd5b50565b6000813590506119de816119b8565b92915050565b6000602082840312156119fa576119f96119b3565b5b6000611a08848285016119cf565b91505092915050565b600073ffffffffffffffffffffffffffffffffffffffff82169050919050565b6000611a3c82611a11565b9050919050565b611a4c81611a31565b82525050565b6000602082019050611a676000830184611a43565b92915050565b600081519050919050565b600082825260208201905092915050565b6000819050602082019050919050565b611aa281611a31565b82525050565b7f4e487b7100000000000000000000000000000000000000000000000000000000600052602160045260246000fd5b60028110611ae857611ae7611aa8565b5b50565b6000819050611af982611ad7565b919050565b6000611b0982611aeb565b9050919050565b611b1981611afe565b82525050565b608082016000820151611b356000850182611a99565b506020820151611b4860208501826118ff565b506040820151611b5b60408501826118ff565b506060820151611b6e6060850182611b10565b50505050565b6000611b808383611b1f565b60808301905092915050565b6000602082019050919050565b6000611ba482611a6d565b611bae8185611a78565b9350611bb983611a89565b8060005b83811015611bea578151611bd18882611b74565b9750611bdc83611b8c565b925050600181019050611bbd565b5085935050505092915050565b60006020820190508181036000830152611c118184611b99565b905092915050565b7f4e487b7100000000000000000000000000000000000000000000000000000000600052603260045260246000fd5b7f4e487b7100000000000000000000000000000000000000000000000000000000600052601160045260246000fd5b6000611c82826118f5565b91507fffffffffffffffffffffffffffffffffffffffffffffffffffffffffffffffff8203611cb457611cb3611c48565b5b600182019050919050565b600082825260208201905092915050565b7f4f726465722050656e64696e6700000000000000000000000000000000000000600082015250565b6000611d06600d83611cbf565b9150611d1182611cd0565b602082019050919050565b60006020820190508181036000830152611d3581611cf9565b9050919050565b7f4e6f7420417574686f7269736564000000000000000000000000000000000000600082015250565b6000611d72600e83611cbf565b9150611d7d82611d3c565b602082019050919050565b60006020820190508181036000830152611da181611d65565b9050919050565b611db1816118f5565b82525050565b6000602082019050611dcc6000830184611da8565b92915050565b7f70726963652076616c7565206d757374206265206d6f7265207468616e203000600082015250565b6000611e08601f83611cbf565b9150611e1382611dd2565b602082019050919050565b60006020820190508181036000830152611e3781611dfb565b9050919050565b7f4e6f7420656e6f75676820626c616e636520746f20706c6163652061736b0000600082015250565b6000611e74601e83611cbf565b9150611e7f82611e3e565b602082019050919050565b60006020820190508181036000830152611ea381611e67565b9050919050565b6000611eb5826118f5565b9150611ec0836118f5565b925082821015611ed357611ed2611c48565b5b828203905092915050565b6000611ee9826118f5565b9150611ef4836118f5565b9250817fffffffffffffffffffffffffffffffffffffffffffffffffffffffffffffffff0483118215151615611f2d57611f2c611c48565b5b828202905092915050565b7f4e487b7100000000000000000000000000000000000000000000000000000000600052601260045260246000fd5b6000611f72826118f5565b9150611f7d836118f5565b925082611f8d57611f8c611f38565b5b828204905092915050565b6000611fa382611a11565b9050919050565b611fb381611f98565b82525050565b611fc281611afe565b82525050565b6000608082019050611fdd6000830187611faa565b611fea6020830186611da8565b611ff76040830185611da8565b6120046060830184611fb9565b95945050505050565b7f4e6f7420656e6f75676820626c616e636520746f20706c616365206269640000600082015250565b6000612043601e83611cbf565b915061204e8261200d565b602082019050919050565b6000602082019050818103600083015261207281612036565b9050919050565b6000819050919050565b600061208e82612079565b915061209983612079565b9250827f8000000000000000000000000000000000000000000000000000000000000000018212600084121516156120d4576120d3611c48565b5b827f7fffffffffffffffffffffffffffffffffffffffffffffffffffffffffffffff01821360008412161561210c5761210b611c48565b5b828203905092915050565b600061212282612079565b915061212d83612079565b92508261213d5761213c611f38565b5b600160000383147f80000000000000000000000000000000000000000000000000000000000000008314161561217657612175611c48565b5b828205905092915050565b600061218c82612079565b915061219783612079565b9250817f7fffffffffffffffffffffffffffffffffffffffffffffffffffffffffffffff038313600083121516156121d2576121d1611c48565b5b817f800000000000000000000000000000000000000000000000000000000000000003831260008312161561220a57612209611c48565b5b828201905092915050565b600061222082612079565b91507f7fffffffffffffffffffffffffffffffffffffffffffffffffffffffffffffff820361225257612251611c48565b5b600182019050919050565b600061226882612079565b91507f8000000000000000000000000000000000000000000000000000000000000000820361229a57612299611c48565b5b60018203905091905056fea2646970667358221220a4bff38295001f449590d4238936c51025d780ff44138c8f1450f877280c994a64736f6c634300080d0033",
					"opcodes": "PUSH1 0x80 PUSH1 0x40 MSTORE CALLVALUE DUP1 ISZERO PUSH3 0x11 JUMPI PUSH1 0x0 DUP1 REVERT JUMPDEST POP PUSH1 0x40 MLOAD PUSH3 0x23E2 CODESIZE SUB DUP1 PUSH3 0x23E2 DUP4 CODECOPY DUP2 DUP2 ADD PUSH1 0x40 MSTORE DUP2 ADD SWAP1 PUSH3 0x37 SWAP2 SWAP1 PUSH3 0xC5 JUMP JUMPDEST CALLER PUSH1 0x0 DUP1 PUSH2 0x100 EXP DUP2 SLOAD DUP2 PUSH20 0xFFFFFFFFFFFFFFFFFFFFFFFFFFFFFFFFFFFFFFFF MUL NOT AND SWAP1 DUP4 PUSH20 0xFFFFFFFFFFFFFFFFFFFFFFFFFFFFFFFFFFFFFFFF AND MUL OR SWAP1 SSTORE POP DUP1 PUSH1 0x1 DUP2 SWAP1 SSTORE POP POP PUSH3 0xF7 JUMP JUMPDEST PUSH1 0x0 DUP1 REVERT JUMPDEST PUSH1 0x0 DUP2 SWAP1 POP SWAP2 SWAP1 POP JUMP JUMPDEST PUSH3 0x9F DUP2 PUSH3 0x8A JUMP JUMPDEST DUP2 EQ PUSH3 0xAB JUMPI PUSH1 0x0 DUP1 REVERT JUMPDEST POP JUMP JUMPDEST PUSH1 0x0 DUP2 MLOAD SWAP1 POP PUSH3 0xBF DUP2 PUSH3 0x94 JUMP JUMPDEST SWAP3 SWAP2 POP POP JUMP JUMPDEST PUSH1 0x0 PUSH1 0x20 DUP3 DUP5 SUB SLT ISZERO PUSH3 0xDE JUMPI PUSH3 0xDD PUSH3 0x85 JUMP JUMPDEST JUMPDEST PUSH1 0x0 PUSH3 0xEE DUP5 DUP3 DUP6 ADD PUSH3 0xAE JUMP JUMPDEST SWAP2 POP POP SWAP3 SWAP2 POP POP JUMP JUMPDEST PUSH2 0x22DB DUP1 PUSH3 0x107 PUSH1 0x0 CODECOPY PUSH1 0x0 RETURN INVALID PUSH1 0x80 PUSH1 0x40 MSTORE PUSH1 0x4 CALLDATASIZE LT PUSH2 0x9C JUMPI PUSH1 0x0 CALLDATALOAD PUSH1 0xE0 SHR DUP1 PUSH4 0x734A2E78 GT PUSH2 0x64 JUMPI DUP1 PUSH4 0x734A2E78 EQ PUSH2 0x19A JUMPI DUP1 PUSH4 0x78C5B268 EQ PUSH2 0x1D7 JUMPI DUP1 PUSH4 0x9703EF35 EQ PUSH2 0x1F3 JUMPI DUP1 PUSH4 0x9979EF45 EQ PUSH2 0x21C JUMPI DUP1 PUSH4 0xC5374AF2 EQ PUSH2 0x238 JUMPI DUP1 PUSH4 0xCE0CDC87 EQ PUSH2 0x263 JUMPI PUSH2 0x9C JUMP JUMPDEST DUP1 PUSH4 0x122DE8F2 EQ PUSH2 0xA1 JUMPI DUP1 PUSH4 0x1628E0F5 EQ PUSH2 0xCC JUMPI DUP1 PUSH4 0x2DB6DFA7 EQ PUSH2 0xF5 JUMPI DUP1 PUSH4 0x4471417F EQ PUSH2 0x132 JUMPI DUP1 PUSH4 0x69F632E2 EQ PUSH2 0x15D JUMPI JUMPDEST PUSH1 0x0 DUP1 REVERT JUMPDEST CALLVALUE DUP1 ISZERO PUSH2 0xAD JUMPI PUSH1 0x0 DUP1 REVERT JUMPDEST POP PUSH2 0xB6 PUSH2 0x28E JUMP JUMPDEST PUSH1 0x40 MLOAD PUSH2 0xC3 SWAP2 SWAP1 PUSH2 0x1991 JUMP JUMPDEST PUSH1 0x40 MLOAD DUP1 SWAP2 SUB SWAP1 RETURN JUMPDEST CALLVALUE DUP1 ISZERO PUSH2 0xD8 JUMPI PUSH1 0x0 DUP1 REVERT JUMPDEST POP PUSH2 0xF3 PUSH1 0x4 DUP1 CALLDATASIZE SUB DUP2 ADD SWAP1 PUSH2 0xEE SWAP2 SWAP1 PUSH2 0x19E4 JUMP JUMPDEST PUSH2 0x3B4 JUMP JUMPDEST STOP JUMPDEST CALLVALUE DUP1 ISZERO PUSH2 0x101 JUMPI PUSH1 0x0 DUP1 REVERT JUMPDEST POP PUSH2 0x11C PUSH1 0x4 DUP1 CALLDATASIZE SUB DUP2 ADD SWAP1 PUSH2 0x117 SWAP2 SWAP1 PUSH2 0x19E4 JUMP JUMPDEST PUSH2 0x6EB JUMP JUMPDEST PUSH1 0x40 MLOAD PUSH2 0x129 SWAP2 SWAP1 PUSH2 0x1A52 JUMP JUMPDEST PUSH1 0x40 MLOAD DUP1 SWAP2 SUB SWAP1 RETURN JUMPDEST CALLVALUE DUP1 ISZERO PUSH2 0x13E JUMPI PUSH1 0x0 DUP1 REVERT JUMPDEST POP PUSH2 0x147 PUSH2 0x73A JUMP JUMPDEST PUSH1 0x40 MLOAD PUSH2 0x154 SWAP2 SWAP1 PUSH2 0x1BF7 JUMP JUMPDEST PUSH1 0x40 MLOAD DUP1 SWAP2 SUB SWAP1 RETURN JUMPDEST CALLVALUE DUP1 ISZERO PUSH2 0x169 JUMPI PUSH1 0x0 DUP1 REVERT JUMPDEST POP PUSH2 0x184 PUSH1 0x4 DUP1 CALLDATASIZE SUB DUP2 ADD SWAP1 PUSH2 0x17F SWAP2 SWAP1 PUSH2 0x19E4 JUMP JUMPDEST PUSH2 0x83E JUMP JUMPDEST PUSH1 0x40 MLOAD PUSH2 0x191 SWAP2 SWAP1 PUSH2 0x1A52 JUMP JUMPDEST PUSH1 0x40 MLOAD DUP1 SWAP2 SUB SWAP1 RETURN JUMPDEST CALLVALUE DUP1 ISZERO PUSH2 0x1A6 JUMPI PUSH1 0x0 DUP1 REVERT JUMPDEST POP PUSH2 0x1C1 PUSH1 0x4 DUP1 CALLDATASIZE SUB DUP2 ADD SWAP1 PUSH2 0x1BC SWAP2 SWAP1 PUSH2 0x19E4 JUMP JUMPDEST PUSH2 0x88D JUMP JUMPDEST PUSH1 0x40 MLOAD PUSH2 0x1CE SWAP2 SWAP1 PUSH2 0x1A52 JUMP JUMPDEST PUSH1 0x40 MLOAD DUP1 SWAP2 SUB SWAP1 RETURN JUMPDEST PUSH2 0x1F1 PUSH1 0x4 DUP1 CALLDATASIZE SUB DUP2 ADD SWAP1 PUSH2 0x1EC SWAP2 SWAP1 PUSH2 0x19E4 JUMP JUMPDEST PUSH2 0x8DC JUMP JUMPDEST STOP JUMPDEST CALLVALUE DUP1 ISZERO PUSH2 0x1FF JUMPI PUSH1 0x0 DUP1 REVERT JUMPDEST POP PUSH2 0x21A PUSH1 0x4 DUP1 CALLDATASIZE SUB DUP2 ADD SWAP1 PUSH2 0x215 SWAP2 SWAP1 PUSH2 0x19E4 JUMP JUMPDEST PUSH2 0xB3E JUMP JUMPDEST STOP JUMPDEST PUSH2 0x236 PUSH1 0x4 DUP1 CALLDATASIZE SUB DUP2 ADD SWAP1 PUSH2 0x231 SWAP2 SWAP1 PUSH2 0x19E4 JUMP JUMPDEST PUSH2 0xE75 JUMP JUMPDEST STOP JUMPDEST CALLVALUE DUP1 ISZERO PUSH2 0x244 JUMPI PUSH1 0x0 DUP1 REVERT JUMPDEST POP PUSH2 0x24D PUSH2 0x10D7 JUMP JUMPDEST PUSH1 0x40 MLOAD PUSH2 0x25A SWAP2 SWAP1 PUSH2 0x1BF7 JUMP JUMPDEST PUSH1 0x40 MLOAD DUP1 SWAP2 SUB SWAP1 RETURN JUMPDEST CALLVALUE DUP1 ISZERO PUSH2 0x26F JUMPI PUSH1 0x0 DUP1 REVERT JUMPDEST POP PUSH2 0x278 PUSH2 0x11DB JUMP JUMPDEST PUSH1 0x40 MLOAD PUSH2 0x285 SWAP2 SWAP1 PUSH2 0x1991 JUMP JUMPDEST PUSH1 0x40 MLOAD DUP1 SWAP2 SUB SWAP1 RETURN JUMPDEST PUSH1 0x60 PUSH2 0x298 PUSH2 0x1301 JUMP JUMPDEST PUSH1 0x0 JUMPDEST PUSH1 0x3 DUP1 SLOAD SWAP1 POP DUP2 LT ISZERO PUSH2 0x35D JUMPI CALLER PUSH20 0xFFFFFFFFFFFFFFFFFFFFFFFFFFFFFFFFFFFFFFFF AND PUSH1 0x3 DUP3 DUP2 SLOAD DUP2 LT PUSH2 0x2D3 JUMPI PUSH2 0x2D2 PUSH2 0x1C19 JUMP JUMPDEST JUMPDEST SWAP1 PUSH1 0x0 MSTORE PUSH1 0x20 PUSH1 0x0 KECCAK256 SWAP1 PUSH1 0x4 MUL ADD PUSH1 0x0 ADD PUSH1 0x0 SWAP1 SLOAD SWAP1 PUSH2 0x100 EXP SWAP1 DIV PUSH20 0xFFFFFFFFFFFFFFFFFFFFFFFFFFFFFFFFFFFFFFFF AND PUSH20 0xFFFFFFFFFFFFFFFFFFFFFFFFFFFFFFFFFFFFFFFF AND SUB PUSH2 0x34A JUMPI PUSH1 0x4 DUP2 SWAP1 DUP1 PUSH1 0x1 DUP2 SLOAD ADD DUP1 DUP3 SSTORE DUP1 SWAP2 POP POP PUSH1 0x1 SWAP1 SUB SWAP1 PUSH1 0x0 MSTORE PUSH1 0x20 PUSH1 0x0 KECCAK256 ADD PUSH1 0x0 SWAP1 SWAP2 SWAP1 SWAP2 SWAP1 SWAP2 POP SSTORE JUMPDEST DUP1 DUP1 PUSH2 0x355 SWAP1 PUSH2 0x1C77 JUMP JUMPDEST SWAP2 POP POP PUSH2 0x29B JUMP JUMPDEST POP PUSH1 0x4 DUP1 SLOAD DUP1 PUSH1 0x20 MUL PUSH1 0x20 ADD PUSH1 0x40 MLOAD SWAP1 DUP2 ADD PUSH1 0x40 MSTORE DUP1 SWAP3 SWAP2 SWAP1 DUP2 DUP2 MSTORE PUSH1 0x20 ADD DUP3 DUP1 SLOAD DUP1 ISZERO PUSH2 0x3AA JUMPI PUSH1 0x20 MUL DUP3 ADD SWAP2 SWAP1 PUSH1 0x0 MSTORE PUSH1 0x20 PUSH1 0x0 KECCAK256 SWAP1 JUMPDEST DUP2 SLOAD DUP2 MSTORE PUSH1 0x20 ADD SWAP1 PUSH1 0x1 ADD SWAP1 DUP1 DUP4 GT PUSH2 0x396 JUMPI JUMPDEST POP POP POP POP POP SWAP1 POP SWAP1 JUMP JUMPDEST PUSH1 0x3 DUP2 DUP2 SLOAD DUP2 LT PUSH2 0x3C8 JUMPI PUSH2 0x3C7 PUSH2 0x1C19 JUMP JUMPDEST JUMPDEST SWAP1 PUSH1 0x0 MSTORE PUSH1 0x20 PUSH1 0x0 KECCAK256 SWAP1 PUSH1 0x4 MUL ADD PUSH1 0x40 MLOAD DUP1 PUSH1 0x80 ADD PUSH1 0x40 MSTORE SWAP1 DUP2 PUSH1 0x0 DUP3 ADD PUSH1 0x0 SWAP1 SLOAD SWAP1 PUSH2 0x100 EXP SWAP1 DIV PUSH20 0xFFFFFFFFFFFFFFFFFFFFFFFFFFFFFFFFFFFFFFFF AND PUSH20 0xFFFFFFFFFFFFFFFFFFFFFFFFFFFFFFFFFFFFFFFF AND PUSH20 0xFFFFFFFFFFFFFFFFFFFFFFFFFFFFFFFFFFFFFFFF AND DUP2 MSTORE PUSH1 0x20 ADD PUSH1 0x1 DUP3 ADD SLOAD DUP2 MSTORE PUSH1 0x20 ADD PUSH1 0x2 DUP3 ADD SLOAD DUP2 MSTORE PUSH1 0x20 ADD PUSH1 0x3 DUP3 ADD PUSH1 0x0 SWAP1 SLOAD SWAP1 PUSH2 0x100 EXP SWAP1 DIV PUSH1 0xFF AND PUSH1 0x1 DUP2 GT ISZERO PUSH2 0x470 JUMPI PUSH2 0x46F PUSH2 0x1AA8 JUMP JUMPDEST JUMPDEST PUSH1 0x1 DUP2 GT ISZERO PUSH2 0x482 JUMPI PUSH2 0x481 PUSH2 0x1AA8 JUMP JUMPDEST JUMPDEST DUP2 MSTORE POP POP PUSH1 0x0 PUSH1 0x1 DUP2 GT ISZERO PUSH2 0x49A JUMPI PUSH2 0x499 PUSH2 0x1AA8 JUMP JUMPDEST JUMPDEST DUP2 PUSH1 0x60 ADD MLOAD PUSH1 0x1 DUP2 GT ISZERO PUSH2 0x4B1 JUMPI PUSH2 0x4B0 PUSH2 0x1AA8 JUMP JUMPDEST JUMPDEST EQ PUSH2 0x4F1 JUMPI PUSH1 0x40 MLOAD PUSH32 0x8C379A000000000000000000000000000000000000000000000000000000000 DUP2 MSTORE PUSH1 0x4 ADD PUSH2 0x4E8 SWAP1 PUSH2 0x1D1C JUMP JUMPDEST PUSH1 0x40 MLOAD DUP1 SWAP2 SUB SWAP1 REVERT JUMPDEST PUSH1 0x3 DUP3 DUP2 SLOAD DUP2 LT PUSH2 0x505 JUMPI PUSH2 0x504 PUSH2 0x1C19 JUMP JUMPDEST JUMPDEST SWAP1 PUSH1 0x0 MSTORE PUSH1 0x20 PUSH1 0x0 KECCAK256 SWAP1 PUSH1 0x4 MUL ADD PUSH1 0x40 MLOAD DUP1 PUSH1 0x80 ADD PUSH1 0x40 MSTORE SWAP1 DUP2 PUSH1 0x0 DUP3 ADD PUSH1 0x0 SWAP1 SLOAD SWAP1 PUSH2 0x100 EXP SWAP1 DIV PUSH20 0xFFFFFFFFFFFFFFFFFFFFFFFFFFFFFFFFFFFFFFFF AND PUSH20 0xFFFFFFFFFFFFFFFFFFFFFFFFFFFFFFFFFFFFFFFF AND PUSH20 0xFFFFFFFFFFFFFFFFFFFFFFFFFFFFFFFFFFFFFFFF AND DUP2 MSTORE PUSH1 0x20 ADD PUSH1 0x1 DUP3 ADD SLOAD DUP2 MSTORE PUSH1 0x20 ADD PUSH1 0x2 DUP3 ADD SLOAD DUP2 MSTORE PUSH1 0x20 ADD PUSH1 0x3 DUP3 ADD PUSH1 0x0 SWAP1 SLOAD SWAP1 PUSH2 0x100 EXP SWAP1 DIV PUSH1 0xFF AND PUSH1 0x1 DUP2 GT ISZERO PUSH2 0x5AD JUMPI PUSH2 0x5AC PUSH2 0x1AA8 JUMP JUMPDEST JUMPDEST PUSH1 0x1 DUP2 GT ISZERO PUSH2 0x5BF JUMPI PUSH2 0x5BE PUSH2 0x1AA8 JUMP JUMPDEST JUMPDEST DUP2 MSTORE POP POP CALLER DUP1 PUSH20 0xFFFFFFFFFFFFFFFFFFFFFFFFFFFFFFFFFFFFFFFF AND DUP3 PUSH1 0x0 ADD MLOAD PUSH20 0xFFFFFFFFFFFFFFFFFFFFFFFFFFFFFFFFFFFFFFFF AND EQ PUSH2 0x636 JUMPI PUSH1 0x40 MLOAD PUSH32 0x8C379A000000000000000000000000000000000000000000000000000000000 DUP2 MSTORE PUSH1 0x4 ADD PUSH2 0x62D SWAP1 PUSH2 0x1D88 JUMP JUMPDEST PUSH1 0x40 MLOAD DUP1 SWAP2 SUB SWAP1 REVERT JUMPDEST PUSH1 0x3 DUP5 DUP2 SLOAD DUP2 LT PUSH2 0x64A JUMPI PUSH2 0x649 PUSH2 0x1C19 JUMP JUMPDEST JUMPDEST SWAP1 PUSH1 0x0 MSTORE PUSH1 0x20 PUSH1 0x0 KECCAK256 SWAP1 PUSH1 0x4 MUL ADD PUSH1 0x0 DUP1 DUP3 ADD PUSH1 0x0 PUSH2 0x100 EXP DUP2 SLOAD SWAP1 PUSH20 0xFFFFFFFFFFFFFFFFFFFFFFFFFFFFFFFFFFFFFFFF MUL NOT AND SWAP1 SSTORE PUSH1 0x1 DUP3 ADD PUSH1 0x0 SWAP1 SSTORE PUSH1 0x2 DUP3 ADD PUSH1 0x0 SWAP1 SSTORE PUSH1 0x3 DUP3 ADD PUSH1 0x0 PUSH2 0x100 EXP DUP2 SLOAD SWAP1 PUSH1 0xFF MUL NOT AND SWAP1 SSTORE POP POP PUSH2 0x6AE PUSH2 0x1349 JUMP JUMPDEST PUSH32 0x48D3043FFF66C1AEE14954AC5AA463B0297FB08C9B60EE00486FB3387BB58AAC DUP5 PUSH1 0x40 MLOAD PUSH2 0x6DD SWAP2 SWAP1 PUSH2 0x1DB7 JUMP JUMPDEST PUSH1 0x40 MLOAD DUP1 SWAP2 SUB SWAP1 LOG1 POP POP POP POP JUMP JUMPDEST PUSH1 0x0 PUSH1 0x2 DUP3 DUP2 SLOAD DUP2 LT PUSH2 0x701 JUMPI PUSH2 0x700 PUSH2 0x1C19 JUMP JUMPDEST JUMPDEST SWAP1 PUSH1 0x0 MSTORE PUSH1 0x20 PUSH1 0x0 KECCAK256 SWAP1 PUSH1 0x4 MUL ADD PUSH1 0x0 ADD PUSH1 0x0 SWAP1 SLOAD SWAP1 PUSH2 0x100 EXP SWAP1 DIV PUSH20 0xFFFFFFFFFFFFFFFFFFFFFFFFFFFFFFFFFFFFFFFF AND SWAP1 POP SWAP2 SWAP1 POP JUMP JUMPDEST PUSH1 0x60 PUSH1 0x2 DUP1 SLOAD DUP1 PUSH1 0x20 MUL PUSH1 0x20 ADD PUSH1 0x40 MLOAD SWAP1 DUP2 ADD PUSH1 0x40 MSTORE DUP1 SWAP3 SWAP2 SWAP1 DUP2 DUP2 MSTORE PUSH1 0x20 ADD PUSH1 0x0 SWAP1 JUMPDEST DUP3 DUP3 LT ISZERO PUSH2 0x835 JUMPI DUP4 DUP3 SWAP1 PUSH1 0x0 MSTORE PUSH1 0x20 PUSH1 0x0 KECCAK256 SWAP1 PUSH1 0x4 MUL ADD PUSH1 0x40 MLOAD DUP1 PUSH1 0x80 ADD PUSH1 0x40 MSTORE SWAP1 DUP2 PUSH1 0x0 DUP3 ADD PUSH1 0x0 SWAP1 SLOAD SWAP1 PUSH2 0x100 EXP SWAP1 DIV PUSH20 0xFFFFFFFFFFFFFFFFFFFFFFFFFFFFFFFFFFFFFFFF AND PUSH20 0xFFFFFFFFFFFFFFFFFFFFFFFFFFFFFFFFFFFFFFFF AND PUSH20 0xFFFFFFFFFFFFFFFFFFFFFFFFFFFFFFFFFFFFFFFF AND DUP2 MSTORE PUSH1 0x20 ADD PUSH1 0x1 DUP3 ADD SLOAD DUP2 MSTORE PUSH1 0x20 ADD PUSH1 0x2 DUP3 ADD SLOAD DUP2 MSTORE PUSH1 0x20 ADD PUSH1 0x3 DUP3 ADD PUSH1 0x0 SWAP1 SLOAD SWAP1 PUSH2 0x100 EXP SWAP1 DIV PUSH1 0xFF AND PUSH1 0x1 DUP2 GT ISZERO PUSH2 0x810 JUMPI PUSH2 0x80F PUSH2 0x1AA8 JUMP JUMPDEST JUMPDEST PUSH1 0x1 DUP2 GT ISZERO PUSH2 0x822 JUMPI PUSH2 0x821 PUSH2 0x1AA8 JUMP JUMPDEST JUMPDEST DUP2 MSTORE POP POP DUP2 MSTORE PUSH1 0x20 ADD SWAP1 PUSH1 0x1 ADD SWAP1 PUSH2 0x75E JUMP JUMPDEST POP POP POP POP SWAP1 POP SWAP1 JUMP JUMPDEST PUSH1 0x0 PUSH1 0x2 DUP3 DUP2 SLOAD DUP2 LT PUSH2 0x854 JUMPI PUSH2 0x853 PUSH2 0x1C19 JUMP JUMPDEST JUMPDEST SWAP1 PUSH1 0x0 MSTORE PUSH1 0x20 PUSH1 0x0 KECCAK256 SWAP1 PUSH1 0x4 MUL ADD PUSH1 0x0 ADD PUSH1 0x0 SWAP1 SLOAD SWAP1 PUSH2 0x100 EXP SWAP1 DIV PUSH20 0xFFFFFFFFFFFFFFFFFFFFFFFFFFFFFFFFFFFFFFFF AND SWAP1 POP SWAP2 SWAP1 POP JUMP JUMPDEST PUSH1 0x0 PUSH1 0x3 DUP3 DUP2 SLOAD DUP2 LT PUSH2 0x8A3 JUMPI PUSH2 0x8A2 PUSH2 0x1C19 JUMP JUMPDEST JUMPDEST SWAP1 PUSH1 0x0 MSTORE PUSH1 0x20 PUSH1 0x0 KECCAK256 SWAP1 PUSH1 0x4 MUL ADD PUSH1 0x0 ADD PUSH1 0x0 SWAP1 SLOAD SWAP1 PUSH2 0x100 EXP SWAP1 DIV PUSH20 0xFFFFFFFFFFFFFFFFFFFFFFFFFFFFFFFFFFFFFFFF AND SWAP1 POP SWAP2 SWAP1 POP JUMP JUMPDEST PUSH1 0x0 DUP2 LT ISZERO PUSH2 0x920 JUMPI PUSH1 0x40 MLOAD PUSH32 0x8C379A000000000000000000000000000000000000000000000000000000000 DUP2 MSTORE PUSH1 0x4 ADD PUSH2 0x917 SWAP1 PUSH2 0x1E1E JUMP JUMPDEST PUSH1 0x40 MLOAD DUP1 SWAP2 SUB SWAP1 REVERT JUMPDEST DUP1 CALLVALUE LT ISZERO PUSH2 0x963 JUMPI PUSH1 0x40 MLOAD PUSH32 0x8C379A000000000000000000000000000000000000000000000000000000000 DUP2 MSTORE PUSH1 0x4 ADD PUSH2 0x95A SWAP1 PUSH2 0x1E8A JUMP JUMPDEST PUSH1 0x40 MLOAD DUP1 SWAP2 SUB SWAP1 REVERT JUMPDEST PUSH1 0x0 TIMESTAMP SWAP1 POP PUSH1 0x0 PUSH1 0x40 MLOAD DUP1 PUSH1 0x80 ADD PUSH1 0x40 MSTORE DUP1 CALLER PUSH20 0xFFFFFFFFFFFFFFFFFFFFFFFFFFFFFFFFFFFFFFFF AND DUP2 MSTORE PUSH1 0x20 ADD DUP5 DUP2 MSTORE PUSH1 0x20 ADD DUP4 DUP2 MSTORE PUSH1 0x20 ADD PUSH1 0x0 PUSH1 0x1 DUP2 GT ISZERO PUSH2 0x9B1 JUMPI PUSH2 0x9B0 PUSH2 0x1AA8 JUMP JUMPDEST JUMPDEST DUP2 MSTORE POP SWAP1 POP PUSH1 0x3 DUP2 SWAP1 DUP1 PUSH1 0x1 DUP2 SLOAD ADD DUP1 DUP3 SSTORE DUP1 SWAP2 POP POP PUSH1 0x1 SWAP1 SUB SWAP1 PUSH1 0x0 MSTORE PUSH1 0x20 PUSH1 0x0 KECCAK256 SWAP1 PUSH1 0x4 MUL ADD PUSH1 0x0 SWAP1 SWAP2 SWAP1 SWAP2 SWAP1 SWAP2 POP PUSH1 0x0 DUP3 ADD MLOAD DUP2 PUSH1 0x0 ADD PUSH1 0x0 PUSH2 0x100 EXP DUP2 SLOAD DUP2 PUSH20 0xFFFFFFFFFFFFFFFFFFFFFFFFFFFFFFFFFFFFFFFF MUL NOT AND SWAP1 DUP4 PUSH20 0xFFFFFFFFFFFFFFFFFFFFFFFFFFFFFFFFFFFFFFFF AND MUL OR SWAP1 SSTORE POP PUSH1 0x20 DUP3 ADD MLOAD DUP2 PUSH1 0x1 ADD SSTORE PUSH1 0x40 DUP3 ADD MLOAD DUP2 PUSH1 0x2 ADD SSTORE PUSH1 0x60 DUP3 ADD MLOAD DUP2 PUSH1 0x3 ADD PUSH1 0x0 PUSH2 0x100 EXP DUP2 SLOAD DUP2 PUSH1 0xFF MUL NOT AND SWAP1 DUP4 PUSH1 0x1 DUP2 GT ISZERO PUSH2 0xA68 JUMPI PUSH2 0xA67 PUSH2 0x1AA8 JUMP JUMPDEST JUMPDEST MUL OR SWAP1 SSTORE POP POP POP PUSH1 0x0 DUP1 SLOAD SWAP1 PUSH2 0x100 EXP SWAP1 DIV PUSH20 0xFFFFFFFFFFFFFFFFFFFFFFFFFFFFFFFFFFFFFFFF AND PUSH20 0xFFFFFFFFFFFFFFFFFFFFFFFFFFFFFFFFFFFFFFFF AND PUSH2 0x8FC PUSH1 0x64 PUSH1 0x1 SLOAD PUSH1 0x64 PUSH2 0xABA SWAP2 SWAP1 PUSH2 0x1EAA JUMP JUMPDEST CALLVALUE PUSH2 0xAC5 SWAP2 SWAP1 PUSH2 0x1EDE JUMP JUMPDEST PUSH2 0xACF SWAP2 SWAP1 PUSH2 0x1F67 JUMP JUMPDEST SWAP1 DUP2 ISZERO MUL SWAP1 PUSH1 0x40 MLOAD PUSH1 0x0 PUSH1 0x40 MLOAD DUP1 DUP4 SUB DUP2 DUP6 DUP9 DUP9 CALL SWAP4 POP POP POP POP ISZERO DUP1 ISZERO PUSH2 0xAFA JUMPI RETURNDATASIZE PUSH1 0x0 DUP1 RETURNDATACOPY RETURNDATASIZE PUSH1 0x0 REVERT JUMPDEST POP PUSH32 0xC2125A7F3EDFEFF7A3BBCFE393C5AA3A6589585D4A7EE70DB48C34F67C8209E2 CALLER DUP5 DUP5 PUSH1 0x0 PUSH1 0x40 MLOAD PUSH2 0xB31 SWAP5 SWAP4 SWAP3 SWAP2 SWAP1 PUSH2 0x1FC8 JUMP JUMPDEST PUSH1 0x40 MLOAD DUP1 SWAP2 SUB SWAP1 LOG1 POP POP POP JUMP JUMPDEST PUSH1 0x2 DUP2 DUP2 SLOAD DUP2 LT PUSH2 0xB52 JUMPI PUSH2 0xB51 PUSH2 0x1C19 JUMP JUMPDEST JUMPDEST SWAP1 PUSH1 0x0 MSTORE PUSH1 0x20 PUSH1 0x0 KECCAK256 SWAP1 PUSH1 0x4 MUL ADD PUSH1 0x40 MLOAD DUP1 PUSH1 0x80 ADD PUSH1 0x40 MSTORE SWAP1 DUP2 PUSH1 0x0 DUP3 ADD PUSH1 0x0 SWAP1 SLOAD SWAP1 PUSH2 0x100 EXP SWAP1 DIV PUSH20 0xFFFFFFFFFFFFFFFFFFFFFFFFFFFFFFFFFFFFFFFF AND PUSH20 0xFFFFFFFFFFFFFFFFFFFFFFFFFFFFFFFFFFFFFFFF AND PUSH20 0xFFFFFFFFFFFFFFFFFFFFFFFFFFFFFFFFFFFFFFFF AND DUP2 MSTORE PUSH1 0x20 ADD PUSH1 0x1 DUP3 ADD SLOAD DUP2 MSTORE PUSH1 0x20 ADD PUSH1 0x2 DUP3 ADD SLOAD DUP2 MSTORE PUSH1 0x20 ADD PUSH1 0x3 DUP3 ADD PUSH1 0x0 SWAP1 SLOAD SWAP1 PUSH2 0x100 EXP SWAP1 DIV PUSH1 0xFF AND PUSH1 0x1 DUP2 GT ISZERO PUSH2 0xBFA JUMPI PUSH2 0xBF9 PUSH2 0x1AA8 JUMP JUMPDEST JUMPDEST PUSH1 0x1 DUP2 GT ISZERO PUSH2 0xC0C JUMPI PUSH2 0xC0B PUSH2 0x1AA8 JUMP JUMPDEST JUMPDEST DUP2 MSTORE POP POP PUSH1 0x0 PUSH1 0x1 DUP2 GT ISZERO PUSH2 0xC24 JUMPI PUSH2 0xC23 PUSH2 0x1AA8 JUMP JUMPDEST JUMPDEST DUP2 PUSH1 0x60 ADD MLOAD PUSH1 0x1 DUP2 GT ISZERO PUSH2 0xC3B JUMPI PUSH2 0xC3A PUSH2 0x1AA8 JUMP JUMPDEST JUMPDEST EQ PUSH2 0xC7B JUMPI PUSH1 0x40 MLOAD PUSH32 0x8C379A000000000000000000000000000000000000000000000000000000000 DUP2 MSTORE PUSH1 0x4 ADD PUSH2 0xC72 SWAP1 PUSH2 0x1D1C JUMP JUMPDEST PUSH1 0x40 MLOAD DUP1 SWAP2 SUB SWAP1 REVERT JUMPDEST PUSH1 0x2 DUP3 DUP2 SLOAD DUP2 LT PUSH2 0xC8F JUMPI PUSH2 0xC8E PUSH2 0x1C19 JUMP JUMPDEST JUMPDEST SWAP1 PUSH1 0x0 MSTORE PUSH1 0x20 PUSH1 0x0 KECCAK256 SWAP1 PUSH1 0x4 MUL ADD PUSH1 0x40 MLOAD DUP1 PUSH1 0x80 ADD PUSH1 0x40 MSTORE SWAP1 DUP2 PUSH1 0x0 DUP3 ADD PUSH1 0x0 SWAP1 SLOAD SWAP1 PUSH2 0x100 EXP SWAP1 DIV PUSH20 0xFFFFFFFFFFFFFFFFFFFFFFFFFFFFFFFFFFFFFFFF AND PUSH20 0xFFFFFFFFFFFFFFFFFFFFFFFFFFFFFFFFFFFFFFFF AND PUSH20 0xFFFFFFFFFFFFFFFFFFFFFFFFFFFFFFFFFFFFFFFF AND DUP2 MSTORE PUSH1 0x20 ADD PUSH1 0x1 DUP3 ADD SLOAD DUP2 MSTORE PUSH1 0x20 ADD PUSH1 0x2 DUP3 ADD SLOAD DUP2 MSTORE PUSH1 0x20 ADD PUSH1 0x3 DUP3 ADD PUSH1 0x0 SWAP1 SLOAD SWAP1 PUSH2 0x100 EXP SWAP1 DIV PUSH1 0xFF AND PUSH1 0x1 DUP2 GT ISZERO PUSH2 0xD37 JUMPI PUSH2 0xD36 PUSH2 0x1AA8 JUMP JUMPDEST JUMPDEST PUSH1 0x1 DUP2 GT ISZERO PUSH2 0xD49 JUMPI PUSH2 0xD48 PUSH2 0x1AA8 JUMP JUMPDEST JUMPDEST DUP2 MSTORE POP POP CALLER DUP1 PUSH20 0xFFFFFFFFFFFFFFFFFFFFFFFFFFFFFFFFFFFFFFFF AND DUP3 PUSH1 0x0 ADD MLOAD PUSH20 0xFFFFFFFFFFFFFFFFFFFFFFFFFFFFFFFFFFFFFFFF AND EQ PUSH2 0xDC0 JUMPI PUSH1 0x40 MLOAD PUSH32 0x8C379A000000000000000000000000000000000000000000000000000000000 DUP2 MSTORE PUSH1 0x4 ADD PUSH2 0xDB7 SWAP1 PUSH2 0x1D88 JUMP JUMPDEST PUSH1 0x40 MLOAD DUP1 SWAP2 SUB SWAP1 REVERT JUMPDEST PUSH1 0x2 DUP5 DUP2 SLOAD DUP2 LT PUSH2 0xDD4 JUMPI PUSH2 0xDD3 PUSH2 0x1C19 JUMP JUMPDEST JUMPDEST SWAP1 PUSH1 0x0 MSTORE PUSH1 0x20 PUSH1 0x0 KECCAK256 SWAP1 PUSH1 0x4 MUL ADD PUSH1 0x0 DUP1 DUP3 ADD PUSH1 0x0 PUSH2 0x100 EXP DUP2 SLOAD SWAP1 PUSH20 0xFFFFFFFFFFFFFFFFFFFFFFFFFFFFFFFFFFFFFFFF MUL NOT AND SWAP1 SSTORE PUSH1 0x1 DUP3 ADD PUSH1 0x0 SWAP1 SSTORE PUSH1 0x2 DUP3 ADD PUSH1 0x0 SWAP1 SSTORE PUSH1 0x3 DUP3 ADD PUSH1 0x0 PUSH2 0x100 EXP DUP2 SLOAD SWAP1 PUSH1 0xFF MUL NOT AND SWAP1 SSTORE POP POP PUSH2 0xE38 PUSH2 0x1464 JUMP JUMPDEST PUSH32 0xC845A6832AFA0A4048DD70BBBA2186093508A6B63A8D5D70A508F819FEF257F8 DUP5 PUSH1 0x40 MLOAD PUSH2 0xE67 SWAP2 SWAP1 PUSH2 0x1DB7 JUMP JUMPDEST PUSH1 0x40 MLOAD DUP1 SWAP2 SUB SWAP1 LOG1 POP POP POP POP JUMP JUMPDEST PUSH1 0x0 DUP2 LT ISZERO PUSH2 0xEB9 JUMPI PUSH1 0x40 MLOAD PUSH32 0x8C379A000000000000000000000000000000000000000000000000000000000 DUP2 MSTORE PUSH1 0x4 ADD PUSH2 0xEB0 SWAP1 PUSH2 0x1E1E JUMP JUMPDEST PUSH1 0x40 MLOAD DUP1 SWAP2 SUB SWAP1 REVERT JUMPDEST DUP1 CALLVALUE LT ISZERO PUSH2 0xEFC JUMPI PUSH1 0x40 MLOAD PUSH32 0x8C379A000000000000000000000000000000000000000000000000000000000 DUP2 MSTORE PUSH1 0x4 ADD PUSH2 0xEF3 SWAP1 PUSH2 0x2059 JUMP JUMPDEST PUSH1 0x40 MLOAD DUP1 SWAP2 SUB SWAP1 REVERT JUMPDEST PUSH1 0x0 TIMESTAMP SWAP1 POP PUSH1 0x0 PUSH1 0x40 MLOAD DUP1 PUSH1 0x80 ADD PUSH1 0x40 MSTORE DUP1 CALLER PUSH20 0xFFFFFFFFFFFFFFFFFFFFFFFFFFFFFFFFFFFFFFFF AND DUP2 MSTORE PUSH1 0x20 ADD DUP5 DUP2 MSTORE PUSH1 0x20 ADD DUP4 DUP2 MSTORE PUSH1 0x20 ADD PUSH1 0x0 PUSH1 0x1 DUP2 GT ISZERO PUSH2 0xF4A JUMPI PUSH2 0xF49 PUSH2 0x1AA8 JUMP JUMPDEST JUMPDEST DUP2 MSTORE POP SWAP1 POP PUSH1 0x2 DUP2 SWAP1 DUP1 PUSH1 0x1 DUP2 SLOAD ADD DUP1 DUP3 SSTORE DUP1 SWAP2 POP POP PUSH1 0x1 SWAP1 SUB SWAP1 PUSH1 0x0 MSTORE PUSH1 0x20 PUSH1 0x0 KECCAK256 SWAP1 PUSH1 0x4 MUL ADD PUSH1 0x0 SWAP1 SWAP2 SWAP1 SWAP2 SWAP1 SWAP2 POP PUSH1 0x0 DUP3 ADD MLOAD DUP2 PUSH1 0x0 ADD PUSH1 0x0 PUSH2 0x100 EXP DUP2 SLOAD DUP2 PUSH20 0xFFFFFFFFFFFFFFFFFFFFFFFFFFFFFFFFFFFFFFFF MUL NOT AND SWAP1 DUP4 PUSH20 0xFFFFFFFFFFFFFFFFFFFFFFFFFFFFFFFFFFFFFFFF AND MUL OR SWAP1 SSTORE POP PUSH1 0x20 DUP3 ADD MLOAD DUP2 PUSH1 0x1 ADD SSTORE PUSH1 0x40 DUP3 ADD MLOAD DUP2 PUSH1 0x2 ADD SSTORE PUSH1 0x60 DUP3 ADD MLOAD DUP2 PUSH1 0x3 ADD PUSH1 0x0 PUSH2 0x100 EXP DUP2 SLOAD DUP2 PUSH1 0xFF MUL NOT AND SWAP1 DUP4 PUSH1 0x1 DUP2 GT ISZERO PUSH2 0x1001 JUMPI PUSH2 0x1000 PUSH2 0x1AA8 JUMP JUMPDEST JUMPDEST MUL OR SWAP1 SSTORE POP POP POP PUSH1 0x0 DUP1 SLOAD SWAP1 PUSH2 0x100 EXP SWAP1 DIV PUSH20 0xFFFFFFFFFFFFFFFFFFFFFFFFFFFFFFFFFFFFFFFF AND PUSH20 0xFFFFFFFFFFFFFFFFFFFFFFFFFFFFFFFFFFFFFFFF AND PUSH2 0x8FC PUSH1 0x64 PUSH1 0x1 SLOAD PUSH1 0x64 PUSH2 0x1053 SWAP2 SWAP1 PUSH2 0x1EAA JUMP JUMPDEST CALLVALUE PUSH2 0x105E SWAP2 SWAP1 PUSH2 0x1EDE JUMP JUMPDEST PUSH2 0x1068 SWAP2 SWAP1 PUSH2 0x1F67 JUMP JUMPDEST SWAP1 DUP2 ISZERO MUL SWAP1 PUSH1 0x40 MLOAD PUSH1 0x0 PUSH1 0x40 MLOAD DUP1 DUP4 SUB DUP2 DUP6 DUP9 DUP9 CALL SWAP4 POP POP POP POP ISZERO DUP1 ISZERO PUSH2 0x1093 JUMPI RETURNDATASIZE PUSH1 0x0 DUP1 RETURNDATACOPY RETURNDATASIZE PUSH1 0x0 REVERT JUMPDEST POP PUSH32 0xA64806D6D5D480697A0B11C92B915A4FF7B93C0BE28171D65D30041A0C360D04 CALLER DUP5 DUP5 PUSH1 0x0 PUSH1 0x40 MLOAD PUSH2 0x10CA SWAP5 SWAP4 SWAP3 SWAP2 SWAP1 PUSH2 0x1FC8 JUMP JUMPDEST PUSH1 0x40 MLOAD DUP1 SWAP2 SUB SWAP1 LOG1 POP POP POP JUMP JUMPDEST PUSH1 0x60 PUSH1 0x3 DUP1 SLOAD DUP1 PUSH1 0x20 MUL PUSH1 0x20 ADD PUSH1 0x40 MLOAD SWAP1 DUP2 ADD PUSH1 0x40 MSTORE DUP1 SWAP3 SWAP2 SWAP1 DUP2 DUP2 MSTORE PUSH1 0x20 ADD PUSH1 0x0 SWAP1 JUMPDEST DUP3 DUP3 LT ISZERO PUSH2 0x11D2 JUMPI DUP4 DUP3 SWAP1 PUSH1 0x0 MSTORE PUSH1 0x20 PUSH1 0x0 KECCAK256 SWAP1 PUSH1 0x4 MUL ADD PUSH1 0x40 MLOAD DUP1 PUSH1 0x80 ADD PUSH1 0x40 MSTORE SWAP1 DUP2 PUSH1 0x0 DUP3 ADD PUSH1 0x0 SWAP1 SLOAD SWAP1 PUSH2 0x100 EXP SWAP1 DIV PUSH20 0xFFFFFFFFFFFFFFFFFFFFFFFFFFFFFFFFFFFFFFFF AND PUSH20 0xFFFFFFFFFFFFFFFFFFFFFFFFFFFFFFFFFFFFFFFF AND PUSH20 0xFFFFFFFFFFFFFFFFFFFFFFFFFFFFFFFFFFFFFFFF AND DUP2 MSTORE PUSH1 0x20 ADD PUSH1 0x1 DUP3 ADD SLOAD DUP2 MSTORE PUSH1 0x20 ADD PUSH1 0x2 DUP3 ADD SLOAD DUP2 MSTORE PUSH1 0x20 ADD PUSH1 0x3 DUP3 ADD PUSH1 0x0 SWAP1 SLOAD SWAP1 PUSH2 0x100 EXP SWAP1 DIV PUSH1 0xFF AND PUSH1 0x1 DUP2 GT ISZERO PUSH2 0x11AD JUMPI PUSH2 0x11AC PUSH2 0x1AA8 JUMP JUMPDEST JUMPDEST PUSH1 0x1 DUP2 GT ISZERO PUSH2 0x11BF JUMPI PUSH2 0x11BE PUSH2 0x1AA8 JUMP JUMPDEST JUMPDEST DUP2 MSTORE POP POP DUP2 MSTORE PUSH1 0x20 ADD SWAP1 PUSH1 0x1 ADD SWAP1 PUSH2 0x10FB JUMP JUMPDEST POP POP POP POP SWAP1 POP SWAP1 JUMP JUMPDEST PUSH1 0x60 PUSH2 0x11E5 PUSH2 0x1301 JUMP JUMPDEST PUSH1 0x0 JUMPDEST PUSH1 0x2 DUP1 SLOAD SWAP1 POP DUP2 LT ISZERO PUSH2 0x12AA JUMPI CALLER PUSH20 0xFFFFFFFFFFFFFFFFFFFFFFFFFFFFFFFFFFFFFFFF AND PUSH1 0x2 DUP3 DUP2 SLOAD DUP2 LT PUSH2 0x1220 JUMPI PUSH2 0x121F PUSH2 0x1C19 JUMP JUMPDEST JUMPDEST SWAP1 PUSH1 0x0 MSTORE PUSH1 0x20 PUSH1 0x0 KECCAK256 SWAP1 PUSH1 0x4 MUL ADD PUSH1 0x0 ADD PUSH1 0x0 SWAP1 SLOAD SWAP1 PUSH2 0x100 EXP SWAP1 DIV PUSH20 0xFFFFFFFFFFFFFFFFFFFFFFFFFFFFFFFFFFFFFFFF AND PUSH20 0xFFFFFFFFFFFFFFFFFFFFFFFFFFFFFFFFFFFFFFFF AND SUB PUSH2 0x1297 JUMPI PUSH1 0x4 DUP2 SWAP1 DUP1 PUSH1 0x1 DUP2 SLOAD ADD DUP1 DUP3 SSTORE DUP1 SWAP2 POP POP PUSH1 0x1 SWAP1 SUB SWAP1 PUSH1 0x0 MSTORE PUSH1 0x20 PUSH1 0x0 KECCAK256 ADD PUSH1 0x0 SWAP1 SWAP2 SWAP1 SWAP2 SWAP1 SWAP2 POP SSTORE JUMPDEST DUP1 DUP1 PUSH2 0x12A2 SWAP1 PUSH2 0x1C77 JUMP JUMPDEST SWAP2 POP POP PUSH2 0x11E8 JUMP JUMPDEST POP PUSH1 0x4 DUP1 SLOAD DUP1 PUSH1 0x20 MUL PUSH1 0x20 ADD PUSH1 0x40 MLOAD SWAP1 DUP2 ADD PUSH1 0x40 MSTORE DUP1 SWAP3 SWAP2 SWAP1 DUP2 DUP2 MSTORE PUSH1 0x20 ADD DUP3 DUP1 SLOAD DUP1 ISZERO PUSH2 0x12F7 JUMPI PUSH1 0x20 MUL DUP3 ADD SWAP2 SWAP1 PUSH1 0x0 MSTORE PUSH1 0x20 PUSH1 0x0 KECCAK256 SWAP1 JUMPDEST DUP2 SLOAD DUP2 MSTORE PUSH1 0x20 ADD SWAP1 PUSH1 0x1 ADD SWAP1 DUP1 DUP4 GT PUSH2 0x12E3 JUMPI JUMPDEST POP POP POP POP POP SWAP1 POP SWAP1 JUMP JUMPDEST PUSH1 0x0 JUMPDEST PUSH1 0x4 DUP1 SLOAD SWAP1 POP DUP2 LT ISZERO PUSH2 0x1346 JUMPI PUSH1 0x4 DUP2 DUP2 SLOAD DUP2 LT PUSH2 0x1325 JUMPI PUSH2 0x1324 PUSH2 0x1C19 JUMP JUMPDEST JUMPDEST SWAP1 PUSH1 0x0 MSTORE PUSH1 0x20 PUSH1 0x0 KECCAK256 ADD PUSH1 0x0 SWAP1 SSTORE DUP1 DUP1 PUSH2 0x133E SWAP1 PUSH2 0x1C77 JUMP JUMPDEST SWAP2 POP POP PUSH2 0x1304 JUMP JUMPDEST POP JUMP JUMPDEST PUSH2 0x1462 PUSH1 0x2 DUP1 SLOAD DUP1 PUSH1 0x20 MUL PUSH1 0x20 ADD PUSH1 0x40 MLOAD SWAP1 DUP2 ADD PUSH1 0x40 MSTORE DUP1 SWAP3 SWAP2 SWAP1 DUP2 DUP2 MSTORE PUSH1 0x20 ADD PUSH1 0x0 SWAP1 JUMPDEST DUP3 DUP3 LT ISZERO PUSH2 0x1445 JUMPI DUP4 DUP3 SWAP1 PUSH1 0x0 MSTORE PUSH1 0x20 PUSH1 0x0 KECCAK256 SWAP1 PUSH1 0x4 MUL ADD PUSH1 0x40 MLOAD DUP1 PUSH1 0x80 ADD PUSH1 0x40 MSTORE SWAP1 DUP2 PUSH1 0x0 DUP3 ADD PUSH1 0x0 SWAP1 SLOAD SWAP1 PUSH2 0x100 EXP SWAP1 DIV PUSH20 0xFFFFFFFFFFFFFFFFFFFFFFFFFFFFFFFFFFFFFFFF AND PUSH20 0xFFFFFFFFFFFFFFFFFFFFFFFFFFFFFFFFFFFFFFFF AND PUSH20 0xFFFFFFFFFFFFFFFFFFFFFFFFFFFFFFFFFFFFFFFF AND DUP2 MSTORE PUSH1 0x20 ADD PUSH1 0x1 DUP3 ADD SLOAD DUP2 MSTORE PUSH1 0x20 ADD PUSH1 0x2 DUP3 ADD SLOAD DUP2 MSTORE PUSH1 0x20 ADD PUSH1 0x3 DUP3 ADD PUSH1 0x0 SWAP1 SLOAD SWAP1 PUSH2 0x100 EXP SWAP1 DIV PUSH1 0xFF AND PUSH1 0x1 DUP2 GT ISZERO PUSH2 0x1420 JUMPI PUSH2 0x141F PUSH2 0x1AA8 JUMP JUMPDEST JUMPDEST PUSH1 0x1 DUP2 GT ISZERO PUSH2 0x1432 JUMPI PUSH2 0x1431 PUSH2 0x1AA8 JUMP JUMPDEST JUMPDEST DUP2 MSTORE POP POP DUP2 MSTORE PUSH1 0x20 ADD SWAP1 PUSH1 0x1 ADD SWAP1 PUSH2 0x136E JUMP JUMPDEST POP POP POP POP PUSH1 0x0 PUSH1 0x1 PUSH1 0x2 DUP1 SLOAD SWAP1 POP PUSH2 0x145D SWAP2 SWAP1 PUSH2 0x1EAA JUMP JUMPDEST PUSH2 0x157F JUMP JUMPDEST JUMP JUMPDEST PUSH2 0x157D PUSH1 0x2 DUP1 SLOAD DUP1 PUSH1 0x20 MUL PUSH1 0x20 ADD PUSH1 0x40 MLOAD SWAP1 DUP2 ADD PUSH1 0x40 MSTORE DUP1 SWAP3 SWAP2 SWAP1 DUP2 DUP2 MSTORE PUSH1 0x20 ADD PUSH1 0x0 SWAP1 JUMPDEST DUP3 DUP3 LT ISZERO PUSH2 0x1560 JUMPI DUP4 DUP3 SWAP1 PUSH1 0x0 MSTORE PUSH1 0x20 PUSH1 0x0 KECCAK256 SWAP1 PUSH1 0x4 MUL ADD PUSH1 0x40 MLOAD DUP1 PUSH1 0x80 ADD PUSH1 0x40 MSTORE SWAP1 DUP2 PUSH1 0x0 DUP3 ADD PUSH1 0x0 SWAP1 SLOAD SWAP1 PUSH2 0x100 EXP SWAP1 DIV PUSH20 0xFFFFFFFFFFFFFFFFFFFFFFFFFFFFFFFFFFFFFFFF AND PUSH20 0xFFFFFFFFFFFFFFFFFFFFFFFFFFFFFFFFFFFFFFFF AND PUSH20 0xFFFFFFFFFFFFFFFFFFFFFFFFFFFFFFFFFFFFFFFF AND DUP2 MSTORE PUSH1 0x20 ADD PUSH1 0x1 DUP3 ADD SLOAD DUP2 MSTORE PUSH1 0x20 ADD PUSH1 0x2 DUP3 ADD SLOAD DUP2 MSTORE PUSH1 0x20 ADD PUSH1 0x3 DUP3 ADD PUSH1 0x0 SWAP1 SLOAD SWAP1 PUSH2 0x100 EXP SWAP1 DIV PUSH1 0xFF AND PUSH1 0x1 DUP2 GT ISZERO PUSH2 0x153B JUMPI PUSH2 0x153A PUSH2 0x1AA8 JUMP JUMPDEST JUMPDEST PUSH1 0x1 DUP2 GT ISZERO PUSH2 0x154D JUMPI PUSH2 0x154C PUSH2 0x1AA8 JUMP JUMPDEST JUMPDEST DUP2 MSTORE POP POP DUP2 MSTORE PUSH1 0x20 ADD SWAP1 PUSH1 0x1 ADD SWAP1 PUSH2 0x1489 JUMP JUMPDEST POP POP POP POP PUSH1 0x0 PUSH1 0x1 PUSH1 0x2 DUP1 SLOAD SWAP1 POP PUSH2 0x1578 SWAP2 SWAP1 PUSH2 0x1EAA JUMP JUMPDEST PUSH2 0x1724 JUMP JUMPDEST JUMP JUMPDEST PUSH1 0x0 DUP3 SWAP1 POP PUSH1 0x0 DUP3 SWAP1 POP DUP1 DUP3 SUB PUSH2 0x1597 JUMPI POP POP PUSH2 0x171F JUMP JUMPDEST PUSH1 0x0 DUP6 PUSH1 0x2 DUP7 DUP7 PUSH2 0x15A8 SWAP2 SWAP1 PUSH2 0x2083 JUMP JUMPDEST PUSH2 0x15B2 SWAP2 SWAP1 PUSH2 0x2117 JUMP JUMPDEST DUP7 PUSH2 0x15BD SWAP2 SWAP1 PUSH2 0x2181 JUMP JUMPDEST DUP2 MLOAD DUP2 LT PUSH2 0x15CE JUMPI PUSH2 0x15CD PUSH2 0x1C19 JUMP JUMPDEST JUMPDEST PUSH1 0x20 MUL PUSH1 0x20 ADD ADD MLOAD PUSH1 0x40 ADD MLOAD SWAP1 POP JUMPDEST DUP2 DUP4 SGT PUSH2 0x16F3 JUMPI JUMPDEST DUP1 DUP7 DUP5 DUP2 MLOAD DUP2 LT PUSH2 0x15F9 JUMPI PUSH2 0x15F8 PUSH2 0x1C19 JUMP JUMPDEST JUMPDEST PUSH1 0x20 MUL PUSH1 0x20 ADD ADD MLOAD PUSH1 0x40 ADD MLOAD GT ISZERO PUSH2 0x161E JUMPI DUP3 DUP1 PUSH2 0x1616 SWAP1 PUSH2 0x2215 JUMP JUMPDEST SWAP4 POP POP PUSH2 0x15E5 JUMP JUMPDEST JUMPDEST DUP6 DUP3 DUP2 MLOAD DUP2 LT PUSH2 0x1632 JUMPI PUSH2 0x1631 PUSH2 0x1C19 JUMP JUMPDEST JUMPDEST PUSH1 0x20 MUL PUSH1 0x20 ADD ADD MLOAD PUSH1 0x40 ADD MLOAD DUP2 GT ISZERO PUSH2 0x1658 JUMPI DUP2 DUP1 PUSH2 0x1650 SWAP1 PUSH2 0x225D JUMP JUMPDEST SWAP3 POP POP PUSH2 0x161F JUMP JUMPDEST DUP2 DUP4 SGT PUSH2 0x16EE JUMPI DUP6 DUP3 DUP2 MLOAD DUP2 LT PUSH2 0x1672 JUMPI PUSH2 0x1671 PUSH2 0x1C19 JUMP JUMPDEST JUMPDEST PUSH1 0x20 MUL PUSH1 0x20 ADD ADD MLOAD DUP7 DUP5 DUP2 MLOAD DUP2 LT PUSH2 0x168D JUMPI PUSH2 0x168C PUSH2 0x1C19 JUMP JUMPDEST JUMPDEST PUSH1 0x20 MUL PUSH1 0x20 ADD ADD MLOAD DUP8 DUP6 DUP2 MLOAD DUP2 LT PUSH2 0x16A8 JUMPI PUSH2 0x16A7 PUSH2 0x1C19 JUMP JUMPDEST JUMPDEST PUSH1 0x20 MUL PUSH1 0x20 ADD ADD DUP9 DUP6 DUP2 MLOAD DUP2 LT PUSH2 0x16C2 JUMPI PUSH2 0x16C1 PUSH2 0x1C19 JUMP JUMPDEST JUMPDEST PUSH1 0x20 MUL PUSH1 0x20 ADD ADD DUP3 SWAP1 MSTORE DUP3 SWAP1 MSTORE POP POP DUP3 DUP1 PUSH2 0x16DC SWAP1 PUSH2 0x2215 JUMP JUMPDEST SWAP4 POP POP DUP2 DUP1 PUSH2 0x16EA SWAP1 PUSH2 0x225D JUMP JUMPDEST SWAP3 POP POP JUMPDEST PUSH2 0x15DD JUMP JUMPDEST DUP2 DUP6 SLT ISZERO PUSH2 0x1707 JUMPI PUSH2 0x1706 DUP7 DUP7 DUP5 PUSH2 0x157F JUMP JUMPDEST JUMPDEST DUP4 DUP4 SLT ISZERO PUSH2 0x171B JUMPI PUSH2 0x171A DUP7 DUP5 DUP7 PUSH2 0x157F JUMP JUMPDEST JUMPDEST POP POP POP JUMPDEST POP POP POP JUMP JUMPDEST PUSH1 0x0 DUP3 SWAP1 POP PUSH1 0x0 DUP3 SWAP1 POP DUP1 DUP3 SUB PUSH2 0x173C JUMPI POP POP PUSH2 0x18C4 JUMP JUMPDEST PUSH1 0x0 DUP6 PUSH1 0x2 DUP7 DUP7 PUSH2 0x174D SWAP2 SWAP1 PUSH2 0x2083 JUMP JUMPDEST PUSH2 0x1757 SWAP2 SWAP1 PUSH2 0x2117 JUMP JUMPDEST DUP7 PUSH2 0x1762 SWAP2 SWAP1 PUSH2 0x2181 JUMP JUMPDEST DUP2 MLOAD DUP2 LT PUSH2 0x1773 JUMPI PUSH2 0x1772 PUSH2 0x1C19 JUMP JUMPDEST JUMPDEST PUSH1 0x20 MUL PUSH1 0x20 ADD ADD MLOAD PUSH1 0x40 ADD MLOAD SWAP1 POP JUMPDEST DUP2 DUP4 SGT PUSH2 0x1898 JUMPI JUMPDEST DUP1 DUP7 DUP5 DUP2 MLOAD DUP2 LT PUSH2 0x179E JUMPI PUSH2 0x179D PUSH2 0x1C19 JUMP JUMPDEST JUMPDEST PUSH1 0x20 MUL PUSH1 0x20 ADD ADD MLOAD PUSH1 0x40 ADD MLOAD LT ISZERO PUSH2 0x17C3 JUMPI DUP3 DUP1 PUSH2 0x17BB SWAP1 PUSH2 0x2215 JUMP JUMPDEST SWAP4 POP POP PUSH2 0x178A JUMP JUMPDEST JUMPDEST DUP6 DUP3 DUP2 MLOAD DUP2 LT PUSH2 0x17D7 JUMPI PUSH2 0x17D6 PUSH2 0x1C19 JUMP JUMPDEST JUMPDEST PUSH1 0x20 MUL PUSH1 0x20 ADD ADD MLOAD PUSH1 0x40 ADD MLOAD DUP2 LT ISZERO PUSH2 0x17FD JUMPI DUP2 DUP1 PUSH2 0x17F5 SWAP1 PUSH2 0x225D JUMP JUMPDEST SWAP3 POP POP PUSH2 0x17C4 JUMP JUMPDEST DUP2 DUP4 SGT PUSH2 0x1893 JUMPI DUP6 DUP3 DUP2 MLOAD DUP2 LT PUSH2 0x1817 JUMPI PUSH2 0x1816 PUSH2 0x1C19 JUMP JUMPDEST JUMPDEST PUSH1 0x20 MUL PUSH1 0x20 ADD ADD MLOAD DUP7 DUP5 DUP2 MLOAD DUP2 LT PUSH2 0x1832 JUMPI PUSH2 0x1831 PUSH2 0x1C19 JUMP JUMPDEST JUMPDEST PUSH1 0x20 MUL PUSH1 0x20 ADD ADD MLOAD DUP8 DUP6 DUP2 MLOAD DUP2 LT PUSH2 0x184D JUMPI PUSH2 0x184C PUSH2 0x1C19 JUMP JUMPDEST JUMPDEST PUSH1 0x20 MUL PUSH1 0x20 ADD ADD DUP9 DUP6 DUP2 MLOAD DUP2 LT PUSH2 0x1867 JUMPI PUSH2 0x1866 PUSH2 0x1C19 JUMP JUMPDEST JUMPDEST PUSH1 0x20 MUL PUSH1 0x20 ADD ADD DUP3 SWAP1 MSTORE DUP3 SWAP1 MSTORE POP POP DUP3 DUP1 PUSH2 0x1881 SWAP1 PUSH2 0x2215 JUMP JUMPDEST SWAP4 POP POP DUP2 DUP1 PUSH2 0x188F SWAP1 PUSH2 0x225D JUMP JUMPDEST SWAP3 POP POP JUMPDEST PUSH2 0x1782 JUMP JUMPDEST DUP2 DUP6 SLT ISZERO PUSH2 0x18AC JUMPI PUSH2 0x18AB DUP7 DUP7 DUP5 PUSH2 0x1724 JUMP JUMPDEST JUMPDEST DUP4 DUP4 SLT ISZERO PUSH2 0x18C0 JUMPI PUSH2 0x18BF DUP7 DUP5 DUP7 PUSH2 0x1724 JUMP JUMPDEST JUMPDEST POP POP POP JUMPDEST POP POP POP JUMP JUMPDEST PUSH1 0x0 DUP2 MLOAD SWAP1 POP SWAP2 SWAP1 POP JUMP JUMPDEST PUSH1 0x0 DUP3 DUP3 MSTORE PUSH1 0x20 DUP3 ADD SWAP1 POP SWAP3 SWAP2 POP POP JUMP JUMPDEST PUSH1 0x0 DUP2 SWAP1 POP PUSH1 0x20 DUP3 ADD SWAP1 POP SWAP2 SWAP1 POP JUMP JUMPDEST PUSH1 0x0 DUP2 SWAP1 POP SWAP2 SWAP1 POP JUMP JUMPDEST PUSH2 0x1908 DUP2 PUSH2 0x18F5 JUMP JUMPDEST DUP3 MSTORE POP POP JUMP JUMPDEST PUSH1 0x0 PUSH2 0x191A DUP4 DUP4 PUSH2 0x18FF JUMP JUMPDEST PUSH1 0x20 DUP4 ADD SWAP1 POP SWAP3 SWAP2 POP POP JUMP JUMPDEST PUSH1 0x0 PUSH1 0x20 DUP3 ADD SWAP1 POP SWAP2 SWAP1 POP JUMP JUMPDEST PUSH1 0x0 PUSH2 0x193E DUP3 PUSH2 0x18C9 JUMP JUMPDEST PUSH2 0x1948 DUP2 DUP6 PUSH2 0x18D4 JUMP JUMPDEST SWAP4 POP PUSH2 0x1953 DUP4 PUSH2 0x18E5 JUMP JUMPDEST DUP1 PUSH1 0x0 JUMPDEST DUP4 DUP2 LT ISZERO PUSH2 0x1984 JUMPI DUP2 MLOAD PUSH2 0x196B DUP9 DUP3 PUSH2 0x190E JUMP JUMPDEST SWAP8 POP PUSH2 0x1976 DUP4 PUSH2 0x1926 JUMP JUMPDEST SWAP3 POP POP PUSH1 0x1 DUP2 ADD SWAP1 POP PUSH2 0x1957 JUMP JUMPDEST POP DUP6 SWAP4 POP POP POP POP SWAP3 SWAP2 POP POP JUMP JUMPDEST PUSH1 0x0 PUSH1 0x20 DUP3 ADD SWAP1 POP DUP2 DUP2 SUB PUSH1 0x0 DUP4 ADD MSTORE PUSH2 0x19AB DUP2 DUP5 PUSH2 0x1933 JUMP JUMPDEST SWAP1 POP SWAP3 SWAP2 POP POP JUMP JUMPDEST PUSH1 0x0 DUP1 REVERT JUMPDEST PUSH2 0x19C1 DUP2 PUSH2 0x18F5 JUMP JUMPDEST DUP2 EQ PUSH2 0x19CC JUMPI PUSH1 0x0 DUP1 REVERT JUMPDEST POP JUMP JUMPDEST PUSH1 0x0 DUP2 CALLDATALOAD SWAP1 POP PUSH2 0x19DE DUP2 PUSH2 0x19B8 JUMP JUMPDEST SWAP3 SWAP2 POP POP JUMP JUMPDEST PUSH1 0x0 PUSH1 0x20 DUP3 DUP5 SUB SLT ISZERO PUSH2 0x19FA JUMPI PUSH2 0x19F9 PUSH2 0x19B3 JUMP JUMPDEST JUMPDEST PUSH1 0x0 PUSH2 0x1A08 DUP5 DUP3 DUP6 ADD PUSH2 0x19CF JUMP JUMPDEST SWAP2 POP POP SWAP3 SWAP2 POP POP JUMP JUMPDEST PUSH1 0x0 PUSH20 0xFFFFFFFFFFFFFFFFFFFFFFFFFFFFFFFFFFFFFFFF DUP3 AND SWAP1 POP SWAP2 SWAP1 POP JUMP JUMPDEST PUSH1 0x0 PUSH2 0x1A3C DUP3 PUSH2 0x1A11 JUMP JUMPDEST SWAP1 POP SWAP2 SWAP1 POP JUMP JUMPDEST PUSH2 0x1A4C DUP2 PUSH2 0x1A31 JUMP JUMPDEST DUP3 MSTORE POP POP JUMP JUMPDEST PUSH1 0x0 PUSH1 0x20 DUP3 ADD SWAP1 POP PUSH2 0x1A67 PUSH1 0x0 DUP4 ADD DUP5 PUSH2 0x1A43 JUMP JUMPDEST SWAP3 SWAP2 POP POP JUMP JUMPDEST PUSH1 0x0 DUP2 MLOAD SWAP1 POP SWAP2 SWAP1 POP JUMP JUMPDEST PUSH1 0x0 DUP3 DUP3 MSTORE PUSH1 0x20 DUP3 ADD SWAP1 POP SWAP3 SWAP2 POP POP JUMP JUMPDEST PUSH1 0x0 DUP2 SWAP1 POP PUSH1 0x20 DUP3 ADD SWAP1 POP SWAP2 SWAP1 POP JUMP JUMPDEST PUSH2 0x1AA2 DUP2 PUSH2 0x1A31 JUMP JUMPDEST DUP3 MSTORE POP POP JUMP JUMPDEST PUSH32 0x4E487B7100000000000000000000000000000000000000000000000000000000 PUSH1 0x0 MSTORE PUSH1 0x21 PUSH1 0x4 MSTORE PUSH1 0x24 PUSH1 0x0 REVERT JUMPDEST PUSH1 0x2 DUP2 LT PUSH2 0x1AE8 JUMPI PUSH2 0x1AE7 PUSH2 0x1AA8 JUMP JUMPDEST JUMPDEST POP JUMP JUMPDEST PUSH1 0x0 DUP2 SWAP1 POP PUSH2 0x1AF9 DUP3 PUSH2 0x1AD7 JUMP JUMPDEST SWAP2 SWAP1 POP JUMP JUMPDEST PUSH1 0x0 PUSH2 0x1B09 DUP3 PUSH2 0x1AEB JUMP JUMPDEST SWAP1 POP SWAP2 SWAP1 POP JUMP JUMPDEST PUSH2 0x1B19 DUP2 PUSH2 0x1AFE JUMP JUMPDEST DUP3 MSTORE POP POP JUMP JUMPDEST PUSH1 0x80 DUP3 ADD PUSH1 0x0 DUP3 ADD MLOAD PUSH2 0x1B35 PUSH1 0x0 DUP6 ADD DUP3 PUSH2 0x1A99 JUMP JUMPDEST POP PUSH1 0x20 DUP3 ADD MLOAD PUSH2 0x1B48 PUSH1 0x20 DUP6 ADD DUP3 PUSH2 0x18FF JUMP JUMPDEST POP PUSH1 0x40 DUP3 ADD MLOAD PUSH2 0x1B5B PUSH1 0x40 DUP6 ADD DUP3 PUSH2 0x18FF JUMP JUMPDEST POP PUSH1 0x60 DUP3 ADD MLOAD PUSH2 0x1B6E PUSH1 0x60 DUP6 ADD DUP3 PUSH2 0x1B10 JUMP JUMPDEST POP POP POP POP JUMP JUMPDEST PUSH1 0x0 PUSH2 0x1B80 DUP4 DUP4 PUSH2 0x1B1F JUMP JUMPDEST PUSH1 0x80 DUP4 ADD SWAP1 POP SWAP3 SWAP2 POP POP JUMP JUMPDEST PUSH1 0x0 PUSH1 0x20 DUP3 ADD SWAP1 POP SWAP2 SWAP1 POP JUMP JUMPDEST PUSH1 0x0 PUSH2 0x1BA4 DUP3 PUSH2 0x1A6D JUMP JUMPDEST PUSH2 0x1BAE DUP2 DUP6 PUSH2 0x1A78 JUMP JUMPDEST SWAP4 POP PUSH2 0x1BB9 DUP4 PUSH2 0x1A89 JUMP JUMPDEST DUP1 PUSH1 0x0 JUMPDEST DUP4 DUP2 LT ISZERO PUSH2 0x1BEA JUMPI DUP2 MLOAD PUSH2 0x1BD1 DUP9 DUP3 PUSH2 0x1B74 JUMP JUMPDEST SWAP8 POP PUSH2 0x1BDC DUP4 PUSH2 0x1B8C JUMP JUMPDEST SWAP3 POP POP PUSH1 0x1 DUP2 ADD SWAP1 POP PUSH2 0x1BBD JUMP JUMPDEST POP DUP6 SWAP4 POP POP POP POP SWAP3 SWAP2 POP POP JUMP JUMPDEST PUSH1 0x0 PUSH1 0x20 DUP3 ADD SWAP1 POP DUP2 DUP2 SUB PUSH1 0x0 DUP4 ADD MSTORE PUSH2 0x1C11 DUP2 DUP5 PUSH2 0x1B99 JUMP JUMPDEST SWAP1 POP SWAP3 SWAP2 POP POP JUMP JUMPDEST PUSH32 0x4E487B7100000000000000000000000000000000000000000000000000000000 PUSH1 0x0 MSTORE PUSH1 0x32 PUSH1 0x4 MSTORE PUSH1 0x24 PUSH1 0x0 REVERT JUMPDEST PUSH32 0x4E487B7100000000000000000000000000000000000000000000000000000000 PUSH1 0x0 MSTORE PUSH1 0x11 PUSH1 0x4 MSTORE PUSH1 0x24 PUSH1 0x0 REVERT JUMPDEST PUSH1 0x0 PUSH2 0x1C82 DUP3 PUSH2 0x18F5 JUMP JUMPDEST SWAP2 POP PUSH32 0xFFFFFFFFFFFFFFFFFFFFFFFFFFFFFFFFFFFFFFFFFFFFFFFFFFFFFFFFFFFFFFFF DUP3 SUB PUSH2 0x1CB4 JUMPI PUSH2 0x1CB3 PUSH2 0x1C48 JUMP JUMPDEST JUMPDEST PUSH1 0x1 DUP3 ADD SWAP1 POP SWAP2 SWAP1 POP JUMP JUMPDEST PUSH1 0x0 DUP3 DUP3 MSTORE PUSH1 0x20 DUP3 ADD SWAP1 POP SWAP3 SWAP2 POP POP JUMP JUMPDEST PUSH32 0x4F726465722050656E64696E6700000000000000000000000000000000000000 PUSH1 0x0 DUP3 ADD MSTORE POP JUMP JUMPDEST PUSH1 0x0 PUSH2 0x1D06 PUSH1 0xD DUP4 PUSH2 0x1CBF JUMP JUMPDEST SWAP2 POP PUSH2 0x1D11 DUP3 PUSH2 0x1CD0 JUMP JUMPDEST PUSH1 0x20 DUP3 ADD SWAP1 POP SWAP2 SWAP1 POP JUMP JUMPDEST PUSH1 0x0 PUSH1 0x20 DUP3 ADD SWAP1 POP DUP2 DUP2 SUB PUSH1 0x0 DUP4 ADD MSTORE PUSH2 0x1D35 DUP2 PUSH2 0x1CF9 JUMP JUMPDEST SWAP1 POP SWAP2 SWAP1 POP JUMP JUMPDEST PUSH32 0x4E6F7420417574686F7269736564000000000000000000000000000000000000 PUSH1 0x0 DUP3 ADD MSTORE POP JUMP JUMPDEST PUSH1 0x0 PUSH2 0x1D72 PUSH1 0xE DUP4 PUSH2 0x1CBF JUMP JUMPDEST SWAP2 POP PUSH2 0x1D7D DUP3 PUSH2 0x1D3C JUMP JUMPDEST PUSH1 0x20 DUP3 ADD SWAP1 POP SWAP2 SWAP1 POP JUMP JUMPDEST PUSH1 0x0 PUSH1 0x20 DUP3 ADD SWAP1 POP DUP2 DUP2 SUB PUSH1 0x0 DUP4 ADD MSTORE PUSH2 0x1DA1 DUP2 PUSH2 0x1D65 JUMP JUMPDEST SWAP1 POP SWAP2 SWAP1 POP JUMP JUMPDEST PUSH2 0x1DB1 DUP2 PUSH2 0x18F5 JUMP JUMPDEST DUP3 MSTORE POP POP JUMP JUMPDEST PUSH1 0x0 PUSH1 0x20 DUP3 ADD SWAP1 POP PUSH2 0x1DCC PUSH1 0x0 DUP4 ADD DUP5 PUSH2 0x1DA8 JUMP JUMPDEST SWAP3 SWAP2 POP POP JUMP JUMPDEST PUSH32 0x70726963652076616C7565206D757374206265206D6F7265207468616E203000 PUSH1 0x0 DUP3 ADD MSTORE POP JUMP JUMPDEST PUSH1 0x0 PUSH2 0x1E08 PUSH1 0x1F DUP4 PUSH2 0x1CBF JUMP JUMPDEST SWAP2 POP PUSH2 0x1E13 DUP3 PUSH2 0x1DD2 JUMP JUMPDEST PUSH1 0x20 DUP3 ADD SWAP1 POP SWAP2 SWAP1 POP JUMP JUMPDEST PUSH1 0x0 PUSH1 0x20 DUP3 ADD SWAP1 POP DUP2 DUP2 SUB PUSH1 0x0 DUP4 ADD MSTORE PUSH2 0x1E37 DUP2 PUSH2 0x1DFB JUMP JUMPDEST SWAP1 POP SWAP2 SWAP1 POP JUMP JUMPDEST PUSH32 0x4E6F7420656E6F75676820626C616E636520746F20706C6163652061736B0000 PUSH1 0x0 DUP3 ADD MSTORE POP JUMP JUMPDEST PUSH1 0x0 PUSH2 0x1E74 PUSH1 0x1E DUP4 PUSH2 0x1CBF JUMP JUMPDEST SWAP2 POP PUSH2 0x1E7F DUP3 PUSH2 0x1E3E JUMP JUMPDEST PUSH1 0x20 DUP3 ADD SWAP1 POP SWAP2 SWAP1 POP JUMP JUMPDEST PUSH1 0x0 PUSH1 0x20 DUP3 ADD SWAP1 POP DUP2 DUP2 SUB PUSH1 0x0 DUP4 ADD MSTORE PUSH2 0x1EA3 DUP2 PUSH2 0x1E67 JUMP JUMPDEST SWAP1 POP SWAP2 SWAP1 POP JUMP JUMPDEST PUSH1 0x0 PUSH2 0x1EB5 DUP3 PUSH2 0x18F5 JUMP JUMPDEST SWAP2 POP PUSH2 0x1EC0 DUP4 PUSH2 0x18F5 JUMP JUMPDEST SWAP3 POP DUP3 DUP3 LT ISZERO PUSH2 0x1ED3 JUMPI PUSH2 0x1ED2 PUSH2 0x1C48 JUMP JUMPDEST JUMPDEST DUP3 DUP3 SUB SWAP1 POP SWAP3 SWAP2 POP POP JUMP JUMPDEST PUSH1 0x0 PUSH2 0x1EE9 DUP3 PUSH2 0x18F5 JUMP JUMPDEST SWAP2 POP PUSH2 0x1EF4 DUP4 PUSH2 0x18F5 JUMP JUMPDEST SWAP3 POP DUP2 PUSH32 0xFFFFFFFFFFFFFFFFFFFFFFFFFFFFFFFFFFFFFFFFFFFFFFFFFFFFFFFFFFFFFFFF DIV DUP4 GT DUP3 ISZERO ISZERO AND ISZERO PUSH2 0x1F2D JUMPI PUSH2 0x1F2C PUSH2 0x1C48 JUMP JUMPDEST JUMPDEST DUP3 DUP3 MUL SWAP1 POP SWAP3 SWAP2 POP POP JUMP JUMPDEST PUSH32 0x4E487B7100000000000000000000000000000000000000000000000000000000 PUSH1 0x0 MSTORE PUSH1 0x12 PUSH1 0x4 MSTORE PUSH1 0x24 PUSH1 0x0 REVERT JUMPDEST PUSH1 0x0 PUSH2 0x1F72 DUP3 PUSH2 0x18F5 JUMP JUMPDEST SWAP2 POP PUSH2 0x1F7D DUP4 PUSH2 0x18F5 JUMP JUMPDEST SWAP3 POP DUP3 PUSH2 0x1F8D JUMPI PUSH2 0x1F8C PUSH2 0x1F38 JUMP JUMPDEST JUMPDEST DUP3 DUP3 DIV SWAP1 POP SWAP3 SWAP2 POP POP JUMP JUMPDEST PUSH1 0x0 PUSH2 0x1FA3 DUP3 PUSH2 0x1A11 JUMP JUMPDEST SWAP1 POP SWAP2 SWAP1 POP JUMP JUMPDEST PUSH2 0x1FB3 DUP2 PUSH2 0x1F98 JUMP JUMPDEST DUP3 MSTORE POP POP JUMP JUMPDEST PUSH2 0x1FC2 DUP2 PUSH2 0x1AFE JUMP JUMPDEST DUP3 MSTORE POP POP JUMP JUMPDEST PUSH1 0x0 PUSH1 0x80 DUP3 ADD SWAP1 POP PUSH2 0x1FDD PUSH1 0x0 DUP4 ADD DUP8 PUSH2 0x1FAA JUMP JUMPDEST PUSH2 0x1FEA PUSH1 0x20 DUP4 ADD DUP7 PUSH2 0x1DA8 JUMP JUMPDEST PUSH2 0x1FF7 PUSH1 0x40 DUP4 ADD DUP6 PUSH2 0x1DA8 JUMP JUMPDEST PUSH2 0x2004 PUSH1 0x60 DUP4 ADD DUP5 PUSH2 0x1FB9 JUMP JUMPDEST SWAP6 SWAP5 POP POP POP POP POP JUMP JUMPDEST PUSH32 0x4E6F7420656E6F75676820626C616E636520746F20706C616365206269640000 PUSH1 0x0 DUP3 ADD MSTORE POP JUMP JUMPDEST PUSH1 0x0 PUSH2 0x2043 PUSH1 0x1E DUP4 PUSH2 0x1CBF JUMP JUMPDEST SWAP2 POP PUSH2 0x204E DUP3 PUSH2 0x200D JUMP JUMPDEST PUSH1 0x20 DUP3 ADD SWAP1 POP SWAP2 SWAP1 POP JUMP JUMPDEST PUSH1 0x0 PUSH1 0x20 DUP3 ADD SWAP1 POP DUP2 DUP2 SUB PUSH1 0x0 DUP4 ADD MSTORE PUSH2 0x2072 DUP2 PUSH2 0x2036 JUMP JUMPDEST SWAP1 POP SWAP2 SWAP1 POP JUMP JUMPDEST PUSH1 0x0 DUP2 SWAP1 POP SWAP2 SWAP1 POP JUMP JUMPDEST PUSH1 0x0 PUSH2 0x208E DUP3 PUSH2 0x2079 JUMP JUMPDEST SWAP2 POP PUSH2 0x2099 DUP4 PUSH2 0x2079 JUMP JUMPDEST SWAP3 POP DUP3 PUSH32 0x8000000000000000000000000000000000000000000000000000000000000000 ADD DUP3 SLT PUSH1 0x0 DUP5 SLT ISZERO AND ISZERO PUSH2 0x20D4 JUMPI PUSH2 0x20D3 PUSH2 0x1C48 JUMP JUMPDEST JUMPDEST DUP3 PUSH32 0x7FFFFFFFFFFFFFFFFFFFFFFFFFFFFFFFFFFFFFFFFFFFFFFFFFFFFFFFFFFFFFFF ADD DUP3 SGT PUSH1 0x0 DUP5 SLT AND ISZERO PUSH2 0x210C JUMPI PUSH2 0x210B PUSH2 0x1C48 JUMP JUMPDEST JUMPDEST DUP3 DUP3 SUB SWAP1 POP SWAP3 SWAP2 POP POP JUMP JUMPDEST PUSH1 0x0 PUSH2 0x2122 DUP3 PUSH2 0x2079 JUMP JUMPDEST SWAP2 POP PUSH2 0x212D DUP4 PUSH2 0x2079 JUMP JUMPDEST SWAP3 POP DUP3 PUSH2 0x213D JUMPI PUSH2 0x213C PUSH2 0x1F38 JUMP JUMPDEST JUMPDEST PUSH1 0x1 PUSH1 0x0 SUB DUP4 EQ PUSH32 0x8000000000000000000000000000000000000000000000000000000000000000 DUP4 EQ AND ISZERO PUSH2 0x2176 JUMPI PUSH2 0x2175 PUSH2 0x1C48 JUMP JUMPDEST JUMPDEST DUP3 DUP3 SDIV SWAP1 POP SWAP3 SWAP2 POP POP JUMP JUMPDEST PUSH1 0x0 PUSH2 0x218C DUP3 PUSH2 0x2079 JUMP JUMPDEST SWAP2 POP PUSH2 0x2197 DUP4 PUSH2 0x2079 JUMP JUMPDEST SWAP3 POP DUP2 PUSH32 0x7FFFFFFFFFFFFFFFFFFFFFFFFFFFFFFFFFFFFFFFFFFFFFFFFFFFFFFFFFFFFFFF SUB DUP4 SGT PUSH1 0x0 DUP4 SLT ISZERO AND ISZERO PUSH2 0x21D2 JUMPI PUSH2 0x21D1 PUSH2 0x1C48 JUMP JUMPDEST JUMPDEST DUP2 PUSH32 0x8000000000000000000000000000000000000000000000000000000000000000 SUB DUP4 SLT PUSH1 0x0 DUP4 SLT AND ISZERO PUSH2 0x220A JUMPI PUSH2 0x2209 PUSH2 0x1C48 JUMP JUMPDEST JUMPDEST DUP3 DUP3 ADD SWAP1 POP SWAP3 SWAP2 POP POP JUMP JUMPDEST PUSH1 0x0 PUSH2 0x2220 DUP3 PUSH2 0x2079 JUMP JUMPDEST SWAP2 POP PUSH32 0x7FFFFFFFFFFFFFFFFFFFFFFFFFFFFFFFFFFFFFFFFFFFFFFFFFFFFFFFFFFFFFFF DUP3 SUB PUSH2 0x2252 JUMPI PUSH2 0x2251 PUSH2 0x1C48 JUMP JUMPDEST JUMPDEST PUSH1 0x1 DUP3 ADD SWAP1 POP SWAP2 SWAP1 POP JUMP JUMPDEST PUSH1 0x0 PUSH2 0x2268 DUP3 PUSH2 0x2079 JUMP JUMPDEST SWAP2 POP PUSH32 0x8000000000000000000000000000000000000000000000000000000000000000 DUP3 SUB PUSH2 0x229A JUMPI PUSH2 0x2299 PUSH2 0x1C48 JUMP JUMPDEST JUMPDEST PUSH1 0x1 DUP3 SUB SWAP1 POP SWAP2 SWAP1 POP JUMP INVALID LOG2 PUSH5 0x6970667358 0x22 SLT KECCAK256 LOG4 0xBF RETURN DUP3 SWAP6 STOP 0x1F DIFFICULTY SWAP6 SWAP1 0xD4 0x23 DUP10 CALLDATASIZE 0xC5 LT 0x25 0xD7 DUP1 SELFDESTRUCT DIFFICULTY SGT DUP13 DUP16 EQ POP 0xF8 PUSH24 0x280C994A64736F6C634300080D0033000000000000000000 "
				},
				"gasEstimates": {
					"creation": {
						"codeDepositCost": "1784600",
						"executionCost": "infinite",
						"totalCost": "infinite"
					},
					"external": {
						"cancelAsk(uint256)": "infinite",
						"cancelBid(uint256)": "infinite",
						"fetchAllAsk()": "infinite",
						"fetchAllBid()": "infinite",
						"fetchYourAskIds()": "infinite",
						"fetchYourBidIds()": "infinite",
						"getAskAddress(uint256)": "4984",
						"getBidAddress(uint256)": "5073",
						"getBidValue(uint256)": "5029",
						"placeAsk(uint256)": "infinite",
						"placeBid(uint256)": "infinite"
					},
					"internal": {
						"ascendingQuickSort(struct OrderBook.order memory[] memory,int256,int256)": "infinite",
						"deleteArray()": "infinite",
						"descendingQuickSort(struct OrderBook.order memory[] memory,int256,int256)": "infinite",
						"sortAsk()": "infinite",
						"sortBid()": "infinite"
					}
				},
				"methodIdentifiers": {
					"cancelAsk(uint256)": "1628e0f5",
					"cancelBid(uint256)": "9703ef35",
					"fetchAllAsk()": "c5374af2",
					"fetchAllBid()": "4471417f",
					"fetchYourAskIds()": "122de8f2",
					"fetchYourBidIds()": "ce0cdc87",
					"getAskAddress(uint256)": "734a2e78",
					"getBidAddress(uint256)": "69f632e2",
					"getBidValue(uint256)": "2db6dfa7",
					"placeAsk(uint256)": "78c5b268",
					"placeBid(uint256)": "9979ef45"
				}
			},
			"storageLayout": {
				"storage": [
					{
						"astId": 6,
						"contract": "contracts/OrderBook.sol:OrderBook",
						"label": "_owner",
						"offset": 0,
						"slot": "0",
						"type": "t_address_payable"
					},
					{
						"astId": 8,
						"contract": "contracts/OrderBook.sol:OrderBook",
						"label": "commission",
						"offset": 0,
						"slot": "1",
						"type": "t_uint256"
					},
					{
						"astId": 40,
						"contract": "contracts/OrderBook.sol:OrderBook",
						"label": "bidBook",
						"offset": 0,
						"slot": "2",
						"type": "t_array(t_struct(order)36_storage)dyn_storage"
					},
					{
						"astId": 44,
						"contract": "contracts/OrderBook.sol:OrderBook",
						"label": "askBook",
						"offset": 0,
						"slot": "3",
						"type": "t_array(t_struct(order)36_storage)dyn_storage"
					},
					{
						"astId": 47,
						"contract": "contracts/OrderBook.sol:OrderBook",
						"label": "request",
						"offset": 0,
						"slot": "4",
						"type": "t_array(t_uint256)dyn_storage"
					}
				],
				"types": {
					"t_address_payable": {
						"encoding": "inplace",
						"label": "address payable",
						"numberOfBytes": "20"
					},
					"t_array(t_struct(order)36_storage)dyn_storage": {
						"base": "t_struct(order)36_storage",
						"encoding": "dynamic_array",
						"label": "struct OrderBook.order[]",
						"numberOfBytes": "32"
					},
					"t_array(t_uint256)dyn_storage": {
						"base": "t_uint256",
						"encoding": "dynamic_array",
						"label": "uint256[]",
						"numberOfBytes": "32"
					},
					"t_enum(State)4": {
						"encoding": "inplace",
						"label": "enum OrderBook.State",
						"numberOfBytes": "1"
					},
					"t_struct(order)36_storage": {
						"encoding": "inplace",
						"label": "struct OrderBook.order",
						"members": [
							{
								"astId": 28,
								"contract": "contracts/OrderBook.sol:OrderBook",
								"label": "customer",
								"offset": 0,
								"slot": "0",
								"type": "t_address_payable"
							},
							{
								"astId": 30,
								"contract": "contracts/OrderBook.sol:OrderBook",
								"label": "value",
								"offset": 0,
								"slot": "1",
								"type": "t_uint256"
							},
							{
								"astId": 32,
								"contract": "contracts/OrderBook.sol:OrderBook",
								"label": "timestamp",
								"offset": 0,
								"slot": "2",
								"type": "t_uint256"
							},
							{
								"astId": 35,
								"contract": "contracts/OrderBook.sol:OrderBook",
								"label": "state",
								"offset": 0,
								"slot": "3",
								"type": "t_enum(State)4"
							}
						],
						"numberOfBytes": "128"
					},
					"t_uint256": {
						"encoding": "inplace",
						"label": "uint256",
						"numberOfBytes": "32"
					}
				}
			},
			"userdoc": {
				"kind": "user",
				"methods": {},
				"version": 1
			}
		}
	}
}