{
	"contracts/OrderBook.sol": {
		"OrderBook": {
			"abi": [
				{
					"inputs": [
						{
							"internalType": "uint256",
							"name": "askId",
							"type": "uint256"
						}
					],
					"name": "cancelAsk",
					"outputs": [],
					"stateMutability": "nonpayable",
					"type": "function"
				},
				{
					"inputs": [
						{
							"internalType": "uint256",
							"name": "bidId",
							"type": "uint256"
						}
					],
					"name": "cancelBid",
					"outputs": [],
					"stateMutability": "nonpayable",
					"type": "function"
				},
				{
					"inputs": [],
					"name": "fetchAllBid",
					"outputs": [
						{
							"components": [
								{
									"internalType": "address payable",
									"name": "customer",
									"type": "address"
								},
								{
									"internalType": "uint256",
									"name": "price",
									"type": "uint256"
								},
								{
									"internalType": "uint256",
									"name": "timestamp",
									"type": "uint256"
								}
							],
							"internalType": "struct OrderBook.order[]",
							"name": "",
							"type": "tuple[]"
						}
					],
					"stateMutability": "view",
					"type": "function"
				},
				{
					"inputs": [],
					"name": "fetchYourAskIds",
					"outputs": [
						{
							"internalType": "uint256[]",
							"name": "",
							"type": "uint256[]"
						}
					],
					"stateMutability": "nonpayable",
					"type": "function"
				},
				{
					"inputs": [],
					"name": "fetchYourBidIds",
					"outputs": [
						{
							"internalType": "uint256[]",
							"name": "",
							"type": "uint256[]"
						}
					],
					"stateMutability": "nonpayable",
					"type": "function"
				},
				{
					"inputs": [
						{
							"internalType": "uint256",
							"name": "price",
							"type": "uint256"
						}
					],
					"name": "placeAsk",
					"outputs": [],
					"stateMutability": "nonpayable",
					"type": "function"
				},
				{
					"inputs": [
						{
							"internalType": "uint256",
							"name": "price",
							"type": "uint256"
						}
					],
					"name": "placeBid",
					"outputs": [],
					"stateMutability": "nonpayable",
					"type": "function"
				}
			],
			"devdoc": {
				"kind": "dev",
				"methods": {},
				"version": 1
			},
			"evm": {
				"assembly": "    /* \"contracts/OrderBook.sol\":730:3981  contract OrderBook {... */\n  mstore(0x40, 0x80)\n  callvalue\n  dup1\n  iszero\n  tag_1\n  jumpi\n  0x00\n  dup1\n  revert\ntag_1:\n  pop\n  dataSize(sub_0)\n  dup1\n  dataOffset(sub_0)\n  0x00\n  codecopy\n  0x00\n  return\nstop\n\nsub_0: assembly {\n        /* \"contracts/OrderBook.sol\":730:3981  contract OrderBook {... */\n      mstore(0x40, 0x80)\n      callvalue\n      dup1\n      iszero\n      tag_1\n      jumpi\n      0x00\n      dup1\n      revert\n    tag_1:\n      pop\n      jumpi(tag_2, lt(calldatasize, 0x04))\n      shr(0xe0, calldataload(0x00))\n      dup1\n      0x78c5b268\n      gt\n      tag_10\n      jumpi\n      dup1\n      0x78c5b268\n      eq\n      tag_6\n      jumpi\n      dup1\n      0x9703ef35\n      eq\n      tag_7\n      jumpi\n      dup1\n      0x9979ef45\n      eq\n      tag_8\n      jumpi\n      dup1\n      0xce0cdc87\n      eq\n      tag_9\n      jumpi\n      jump(tag_2)\n    tag_10:\n      dup1\n      0x122de8f2\n      eq\n      tag_3\n      jumpi\n      dup1\n      0x1628e0f5\n      eq\n      tag_4\n      jumpi\n      dup1\n      0x4471417f\n      eq\n      tag_5\n      jumpi\n    tag_2:\n      0x00\n      dup1\n      revert\n        /* \"contracts/OrderBook.sol\":3695:3978  function fetchYourAskIds() public returns (uint[] memory) {... */\n    tag_3:\n      tag_11\n      tag_12\n      jump\t// in\n    tag_11:\n      mload(0x40)\n      tag_13\n      swap2\n      swap1\n      tag_14\n      jump\t// in\n    tag_13:\n      mload(0x40)\n      dup1\n      swap2\n      sub\n      swap1\n      return\n        /* \"contracts/OrderBook.sol\":3198:3303  function cancelAsk (uint256 askId) public {... */\n    tag_4:\n      tag_15\n      0x04\n      dup1\n      calldatasize\n      sub\n      dup2\n      add\n      swap1\n      tag_16\n      swap2\n      swap1\n      tag_17\n      jump\t// in\n    tag_16:\n      tag_18\n      jump\t// in\n    tag_15:\n      stop\n        /* \"contracts/OrderBook.sol\":3309:3400  function fetchAllBid() public view returns (order[] memory) {... */\n    tag_5:\n      tag_19\n      tag_20\n      jump\t// in\n    tag_19:\n      mload(0x40)\n      tag_21\n      swap2\n      swap1\n      tag_22\n      jump\t// in\n    tag_21:\n      mload(0x40)\n      dup1\n      swap2\n      sub\n      swap1\n      return\n        /* \"contracts/OrderBook.sol\":3034:3192  function placeAsk (uint256 price) public {... */\n    tag_6:\n      tag_23\n      0x04\n      dup1\n      calldatasize\n      sub\n      dup2\n      add\n      swap1\n      tag_24\n      swap2\n      swap1\n      tag_17\n      jump\t// in\n    tag_24:\n      tag_25\n      jump\t// in\n    tag_23:\n      stop\n        /* \"contracts/OrderBook.sol\":2929:3028  function cancelBid (uint256 bidId) public {... */\n    tag_7:\n      tag_26\n      0x04\n      dup1\n      calldatasize\n      sub\n      dup2\n      add\n      swap1\n      tag_27\n      swap2\n      swap1\n      tag_17\n      jump\t// in\n    tag_27:\n      tag_28\n      jump\t// in\n    tag_26:\n      stop\n        /* \"contracts/OrderBook.sol\":2742:2900  function placeBid (uint256 price) public {... */\n    tag_8:\n      tag_29\n      0x04\n      dup1\n      calldatasize\n      sub\n      dup2\n      add\n      swap1\n      tag_30\n      swap2\n      swap1\n      tag_17\n      jump\t// in\n    tag_30:\n      tag_31\n      jump\t// in\n    tag_29:\n      stop\n        /* \"contracts/OrderBook.sol\":3406:3689  function fetchYourBidIds() public returns (uint[] memory) {... */\n    tag_9:\n      tag_32\n      tag_33\n      jump\t// in\n    tag_32:\n      mload(0x40)\n      tag_34\n      swap2\n      swap1\n      tag_14\n      jump\t// in\n    tag_34:\n      mload(0x40)\n      dup1\n      swap2\n      sub\n      swap1\n      return\n        /* \"contracts/OrderBook.sol\":3695:3978  function fetchYourAskIds() public returns (uint[] memory) {... */\n    tag_12:\n        /* \"contracts/OrderBook.sol\":3738:3751  uint[] memory */\n      0x60\n        /* \"contracts/OrderBook.sol\":3763:3776  deleteArray() */\n      tag_36\n        /* \"contracts/OrderBook.sol\":3763:3774  deleteArray */\n      tag_37\n        /* \"contracts/OrderBook.sol\":3763:3776  deleteArray() */\n      jump\t// in\n    tag_36:\n        /* \"contracts/OrderBook.sol\":3791:3797  uint i */\n      0x00\n        /* \"contracts/OrderBook.sol\":3786:3948  for (uint i = 0; i < askBook.length; i++) {... */\n    tag_38:\n        /* \"contracts/OrderBook.sol\":3807:3814  askBook */\n      0x01\n        /* \"contracts/OrderBook.sol\":3807:3821  askBook.length */\n      dup1\n      sload\n      swap1\n      pop\n        /* \"contracts/OrderBook.sol\":3803:3804  i */\n      dup2\n        /* \"contracts/OrderBook.sol\":3803:3821  i < askBook.length */\n      lt\n        /* \"contracts/OrderBook.sol\":3786:3948  for (uint i = 0; i < askBook.length; i++) {... */\n      iszero\n      tag_39\n      jumpi\n        /* \"contracts/OrderBook.sol\":3877:3887  msg.sender */\n      caller\n        /* \"contracts/OrderBook.sol\":3846:3888  askBook[i].customer == payable(msg.sender) */\n      0xffffffffffffffffffffffffffffffffffffffff\n      and\n        /* \"contracts/OrderBook.sol\":3846:3853  askBook */\n      0x01\n        /* \"contracts/OrderBook.sol\":3854:3855  i */\n      dup3\n        /* \"contracts/OrderBook.sol\":3846:3856  askBook[i] */\n      dup2\n      sload\n      dup2\n      lt\n      tag_41\n      jumpi\n      tag_42\n      tag_43\n      jump\t// in\n    tag_42:\n    tag_41:\n      swap1\n      0x00\n      mstore\n      keccak256(0x00, 0x20)\n      swap1\n      0x03\n      mul\n      add\n        /* \"contracts/OrderBook.sol\":3846:3865  askBook[i].customer */\n      0x00\n      add\n      0x00\n      swap1\n      sload\n      swap1\n      0x0100\n      exp\n      swap1\n      div\n      0xffffffffffffffffffffffffffffffffffffffff\n      and\n        /* \"contracts/OrderBook.sol\":3846:3888  askBook[i].customer == payable(msg.sender) */\n      0xffffffffffffffffffffffffffffffffffffffff\n      and\n      sub\n        /* \"contracts/OrderBook.sol\":3842:3938  if (askBook[i].customer == payable(msg.sender)) {... */\n      tag_45\n      jumpi\n        /* \"contracts/OrderBook.sol\":3908:3915  request */\n      0x02\n        /* \"contracts/OrderBook.sol\":3921:3922  i */\n      dup2\n        /* \"contracts/OrderBook.sol\":3908:3923  request.push(i) */\n      swap1\n      dup1\n      0x01\n      dup2\n      sload\n      add\n      dup1\n      dup3\n      sstore\n      dup1\n      swap2\n      pop\n      pop\n      0x01\n      swap1\n      sub\n      swap1\n      0x00\n      mstore\n      keccak256(0x00, 0x20)\n      add\n      0x00\n      swap1\n      swap2\n      swap1\n      swap2\n      swap1\n      swap2\n      pop\n      sstore\n        /* \"contracts/OrderBook.sol\":3842:3938  if (askBook[i].customer == payable(msg.sender)) {... */\n    tag_45:\n        /* \"contracts/OrderBook.sol\":3823:3826  i++ */\n      dup1\n      dup1\n      tag_47\n      swap1\n      tag_48\n      jump\t// in\n    tag_47:\n      swap2\n      pop\n      pop\n        /* \"contracts/OrderBook.sol\":3786:3948  for (uint i = 0; i < askBook.length; i++) {... */\n      jump(tag_38)\n    tag_39:\n      pop\n        /* \"contracts/OrderBook.sol\":3964:3971  request */\n      0x02\n        /* \"contracts/OrderBook.sol\":3957:3971  return request */\n      dup1\n      sload\n      dup1\n      0x20\n      mul\n      0x20\n      add\n      mload(0x40)\n      swap1\n      dup2\n      add\n      0x40\n      mstore\n      dup1\n      swap3\n      swap2\n      swap1\n      dup2\n      dup2\n      mstore\n      0x20\n      add\n      dup3\n      dup1\n      sload\n      dup1\n      iszero\n      tag_49\n      jumpi\n      0x20\n      mul\n      dup3\n      add\n      swap2\n      swap1\n      0x00\n      mstore\n      keccak256(0x00, 0x20)\n      swap1\n    tag_50:\n      dup2\n      sload\n      dup2\n      mstore\n      0x20\n      add\n      swap1\n      0x01\n      add\n      swap1\n      dup1\n      dup4\n      gt\n      tag_50\n      jumpi\n    tag_49:\n      pop\n      pop\n      pop\n      pop\n      pop\n      swap1\n      pop\n        /* \"contracts/OrderBook.sol\":3695:3978  function fetchYourAskIds() public returns (uint[] memory) {... */\n      swap1\n      jump\t// out\n        /* \"contracts/OrderBook.sol\":3198:3303  function cancelAsk (uint256 askId) public {... */\n    tag_18:\n        /* \"contracts/OrderBook.sol\":3257:3264  askBook */\n      0x01\n        /* \"contracts/OrderBook.sol\":3265:3270  askId */\n      dup2\n        /* \"contracts/OrderBook.sol\":3257:3271  askBook[askId] */\n      dup2\n      sload\n      dup2\n      lt\n      tag_52\n      jumpi\n      tag_53\n      tag_43\n      jump\t// in\n    tag_53:\n    tag_52:\n      swap1\n      0x00\n      mstore\n      keccak256(0x00, 0x20)\n      swap1\n      0x03\n      mul\n      add\n      0x00\n        /* \"contracts/OrderBook.sol\":3250:3271  delete askBook[askId] */\n      dup1\n      dup3\n      add\n      exp(0x0100, 0x00)\n      dup2\n      sload\n      swap1\n      0xffffffffffffffffffffffffffffffffffffffff\n      mul\n      not\n      and\n      swap1\n      sstore\n      0x01\n      dup3\n      add\n      0x00\n      swap1\n      sstore\n      0x02\n      dup3\n      add\n      0x00\n      swap1\n      sstore\n      pop\n      pop\n        /* \"contracts/OrderBook.sol\":3281:3290  sortAsk() */\n      tag_55\n        /* \"contracts/OrderBook.sol\":3281:3288  sortAsk */\n      tag_56\n        /* \"contracts/OrderBook.sol\":3281:3290  sortAsk() */\n      jump\t// in\n    tag_55:\n        /* \"contracts/OrderBook.sol\":3198:3303  function cancelAsk (uint256 askId) public {... */\n      pop\n      jump\t// out\n        /* \"contracts/OrderBook.sol\":3309:3400  function fetchAllBid() public view returns (order[] memory) {... */\n    tag_20:\n        /* \"contracts/OrderBook.sol\":3353:3367  order[] memory */\n      0x60\n        /* \"contracts/OrderBook.sol\":3386:3393  bidBook */\n      0x00\n        /* \"contracts/OrderBook.sol\":3379:3393  return bidBook */\n      dup1\n      sload\n      dup1\n      0x20\n      mul\n      0x20\n      add\n      mload(0x40)\n      swap1\n      dup2\n      add\n      0x40\n      mstore\n      dup1\n      swap3\n      swap2\n      swap1\n      dup2\n      dup2\n      mstore\n      0x20\n      add\n      0x00\n      swap1\n    tag_58:\n      dup3\n      dup3\n      lt\n      iszero\n      tag_59\n      jumpi\n      dup4\n      dup3\n      swap1\n      0x00\n      mstore\n      keccak256(0x00, 0x20)\n      swap1\n      0x03\n      mul\n      add\n      mload(0x40)\n      dup1\n      0x60\n      add\n      0x40\n      mstore\n      swap1\n      dup2\n      0x00\n      dup3\n      add\n      0x00\n      swap1\n      sload\n      swap1\n      0x0100\n      exp\n      swap1\n      div\n      0xffffffffffffffffffffffffffffffffffffffff\n      and\n      0xffffffffffffffffffffffffffffffffffffffff\n      and\n      0xffffffffffffffffffffffffffffffffffffffff\n      and\n      dup2\n      mstore\n      0x20\n      add\n      0x01\n      dup3\n      add\n      sload\n      dup2\n      mstore\n      0x20\n      add\n      0x02\n      dup3\n      add\n      sload\n      dup2\n      mstore\n      pop\n      pop\n      dup2\n      mstore\n      0x20\n      add\n      swap1\n      0x01\n      add\n      swap1\n      jump(tag_58)\n    tag_59:\n      pop\n      pop\n      pop\n      pop\n      swap1\n      pop\n        /* \"contracts/OrderBook.sol\":3309:3400  function fetchAllBid() public view returns (order[] memory) {... */\n      swap1\n      jump\t// out\n        /* \"contracts/OrderBook.sol\":3034:3192  function placeAsk (uint256 price) public {... */\n    tag_25:\n        /* \"contracts/OrderBook.sol\":3085:3104  order memory newBid */\n      0x00\n        /* \"contracts/OrderBook.sol\":3107:3155  order(payable(msg.sender),price,block.timestamp) */\n      mload(0x40)\n      dup1\n      0x60\n      add\n      0x40\n      mstore\n      dup1\n        /* \"contracts/OrderBook.sol\":3121:3131  msg.sender */\n      caller\n        /* \"contracts/OrderBook.sol\":3107:3155  order(payable(msg.sender),price,block.timestamp) */\n      0xffffffffffffffffffffffffffffffffffffffff\n      and\n      dup2\n      mstore\n      0x20\n      add\n        /* \"contracts/OrderBook.sol\":3133:3138  price */\n      dup4\n        /* \"contracts/OrderBook.sol\":3107:3155  order(payable(msg.sender),price,block.timestamp) */\n      dup2\n      mstore\n      0x20\n      add\n        /* \"contracts/OrderBook.sol\":3139:3154  block.timestamp */\n      timestamp\n        /* \"contracts/OrderBook.sol\":3107:3155  order(payable(msg.sender),price,block.timestamp) */\n      dup2\n      mstore\n      pop\n        /* \"contracts/OrderBook.sol\":3085:3155  order memory newBid = order(payable(msg.sender),price,block.timestamp) */\n      swap1\n      pop\n        /* \"contracts/OrderBook.sol\":3165:3172  askBook */\n      0x01\n        /* \"contracts/OrderBook.sol\":3178:3184  newBid */\n      dup2\n        /* \"contracts/OrderBook.sol\":3165:3185  askBook.push(newBid) */\n      swap1\n      dup1\n      0x01\n      dup2\n      sload\n      add\n      dup1\n      dup3\n      sstore\n      dup1\n      swap2\n      pop\n      pop\n      0x01\n      swap1\n      sub\n      swap1\n      0x00\n      mstore\n      keccak256(0x00, 0x20)\n      swap1\n      0x03\n      mul\n      add\n      0x00\n      swap1\n      swap2\n      swap1\n      swap2\n      swap1\n      swap2\n      pop\n      0x00\n      dup3\n      add\n      mload\n      dup2\n      0x00\n      add\n      exp(0x0100, 0x00)\n      dup2\n      sload\n      dup2\n      0xffffffffffffffffffffffffffffffffffffffff\n      mul\n      not\n      and\n      swap1\n      dup4\n      0xffffffffffffffffffffffffffffffffffffffff\n      and\n      mul\n      or\n      swap1\n      sstore\n      pop\n      0x20\n      dup3\n      add\n      mload\n      dup2\n      0x01\n      add\n      sstore\n      0x40\n      dup3\n      add\n      mload\n      dup2\n      0x02\n      add\n      sstore\n      pop\n      pop\n        /* \"contracts/OrderBook.sol\":3075:3192  {... */\n      pop\n        /* \"contracts/OrderBook.sol\":3034:3192  function placeAsk (uint256 price) public {... */\n      pop\n      jump\t// out\n        /* \"contracts/OrderBook.sol\":2929:3028  function cancelBid (uint256 bidId) public {... */\n    tag_28:\n        /* \"contracts/OrderBook.sol\":2988:2995  bidBook */\n      0x00\n        /* \"contracts/OrderBook.sol\":2996:3001  bidId */\n      dup2\n        /* \"contracts/OrderBook.sol\":2988:3002  bidBook[bidId] */\n      dup2\n      sload\n      dup2\n      lt\n      tag_64\n      jumpi\n      tag_65\n      tag_43\n      jump\t// in\n    tag_65:\n    tag_64:\n      swap1\n      0x00\n      mstore\n      keccak256(0x00, 0x20)\n      swap1\n      0x03\n      mul\n      add\n      0x00\n        /* \"contracts/OrderBook.sol\":2981:3002  delete bidBook[bidId] */\n      dup1\n      dup3\n      add\n      exp(0x0100, 0x00)\n      dup2\n      sload\n      swap1\n      0xffffffffffffffffffffffffffffffffffffffff\n      mul\n      not\n      and\n      swap1\n      sstore\n      0x01\n      dup3\n      add\n      0x00\n      swap1\n      sstore\n      0x02\n      dup3\n      add\n      0x00\n      swap1\n      sstore\n      pop\n      pop\n        /* \"contracts/OrderBook.sol\":3012:3021  sortBid() */\n      tag_67\n        /* \"contracts/OrderBook.sol\":3012:3019  sortBid */\n      tag_68\n        /* \"contracts/OrderBook.sol\":3012:3021  sortBid() */\n      jump\t// in\n    tag_67:\n        /* \"contracts/OrderBook.sol\":2929:3028  function cancelBid (uint256 bidId) public {... */\n      pop\n      jump\t// out\n        /* \"contracts/OrderBook.sol\":2742:2900  function placeBid (uint256 price) public {... */\n    tag_31:\n        /* \"contracts/OrderBook.sol\":2793:2812  order memory newBid */\n      0x00\n        /* \"contracts/OrderBook.sol\":2815:2863  order(payable(msg.sender),price,block.timestamp) */\n      mload(0x40)\n      dup1\n      0x60\n      add\n      0x40\n      mstore\n      dup1\n        /* \"contracts/OrderBook.sol\":2829:2839  msg.sender */\n      caller\n        /* \"contracts/OrderBook.sol\":2815:2863  order(payable(msg.sender),price,block.timestamp) */\n      0xffffffffffffffffffffffffffffffffffffffff\n      and\n      dup2\n      mstore\n      0x20\n      add\n        /* \"contracts/OrderBook.sol\":2841:2846  price */\n      dup4\n        /* \"contracts/OrderBook.sol\":2815:2863  order(payable(msg.sender),price,block.timestamp) */\n      dup2\n      mstore\n      0x20\n      add\n        /* \"contracts/OrderBook.sol\":2847:2862  block.timestamp */\n      timestamp\n        /* \"contracts/OrderBook.sol\":2815:2863  order(payable(msg.sender),price,block.timestamp) */\n      dup2\n      mstore\n      pop\n        /* \"contracts/OrderBook.sol\":2793:2863  order memory newBid = order(payable(msg.sender),price,block.timestamp) */\n      swap1\n      pop\n        /* \"contracts/OrderBook.sol\":2873:2880  bidBook */\n      0x00\n        /* \"contracts/OrderBook.sol\":2886:2892  newBid */\n      dup2\n        /* \"contracts/OrderBook.sol\":2873:2893  bidBook.push(newBid) */\n      swap1\n      dup1\n      0x01\n      dup2\n      sload\n      add\n      dup1\n      dup3\n      sstore\n      dup1\n      swap2\n      pop\n      pop\n      0x01\n      swap1\n      sub\n      swap1\n      0x00\n      mstore\n      keccak256(0x00, 0x20)\n      swap1\n      0x03\n      mul\n      add\n      0x00\n      swap1\n      swap2\n      swap1\n      swap2\n      swap1\n      swap2\n      pop\n      0x00\n      dup3\n      add\n      mload\n      dup2\n      0x00\n      add\n      exp(0x0100, 0x00)\n      dup2\n      sload\n      dup2\n      0xffffffffffffffffffffffffffffffffffffffff\n      mul\n      not\n      and\n      swap1\n      dup4\n      0xffffffffffffffffffffffffffffffffffffffff\n      and\n      mul\n      or\n      swap1\n      sstore\n      pop\n      0x20\n      dup3\n      add\n      mload\n      dup2\n      0x01\n      add\n      sstore\n      0x40\n      dup3\n      add\n      mload\n      dup2\n      0x02\n      add\n      sstore\n      pop\n      pop\n        /* \"contracts/OrderBook.sol\":2783:2900  {... */\n      pop\n        /* \"contracts/OrderBook.sol\":2742:2900  function placeBid (uint256 price) public {... */\n      pop\n      jump\t// out\n        /* \"contracts/OrderBook.sol\":3406:3689  function fetchYourBidIds() public returns (uint[] memory) {... */\n    tag_33:\n        /* \"contracts/OrderBook.sol\":3449:3462  uint[] memory */\n      0x60\n        /* \"contracts/OrderBook.sol\":3474:3487  deleteArray() */\n      tag_72\n        /* \"contracts/OrderBook.sol\":3474:3485  deleteArray */\n      tag_37\n        /* \"contracts/OrderBook.sol\":3474:3487  deleteArray() */\n      jump\t// in\n    tag_72:\n        /* \"contracts/OrderBook.sol\":3502:3508  uint i */\n      0x00\n        /* \"contracts/OrderBook.sol\":3497:3659  for (uint i = 0; i < bidBook.length; i++) {... */\n    tag_73:\n        /* \"contracts/OrderBook.sol\":3518:3525  bidBook */\n      0x00\n        /* \"contracts/OrderBook.sol\":3518:3532  bidBook.length */\n      dup1\n      sload\n      swap1\n      pop\n        /* \"contracts/OrderBook.sol\":3514:3515  i */\n      dup2\n        /* \"contracts/OrderBook.sol\":3514:3532  i < bidBook.length */\n      lt\n        /* \"contracts/OrderBook.sol\":3497:3659  for (uint i = 0; i < bidBook.length; i++) {... */\n      iszero\n      tag_74\n      jumpi\n        /* \"contracts/OrderBook.sol\":3588:3598  msg.sender */\n      caller\n        /* \"contracts/OrderBook.sol\":3557:3599  bidBook[i].customer == payable(msg.sender) */\n      0xffffffffffffffffffffffffffffffffffffffff\n      and\n        /* \"contracts/OrderBook.sol\":3557:3564  bidBook */\n      0x00\n        /* \"contracts/OrderBook.sol\":3565:3566  i */\n      dup3\n        /* \"contracts/OrderBook.sol\":3557:3567  bidBook[i] */\n      dup2\n      sload\n      dup2\n      lt\n      tag_76\n      jumpi\n      tag_77\n      tag_43\n      jump\t// in\n    tag_77:\n    tag_76:\n      swap1\n      0x00\n      mstore\n      keccak256(0x00, 0x20)\n      swap1\n      0x03\n      mul\n      add\n        /* \"contracts/OrderBook.sol\":3557:3576  bidBook[i].customer */\n      0x00\n      add\n      0x00\n      swap1\n      sload\n      swap1\n      0x0100\n      exp\n      swap1\n      div\n      0xffffffffffffffffffffffffffffffffffffffff\n      and\n        /* \"contracts/OrderBook.sol\":3557:3599  bidBook[i].customer == payable(msg.sender) */\n      0xffffffffffffffffffffffffffffffffffffffff\n      and\n      sub\n        /* \"contracts/OrderBook.sol\":3553:3649  if (bidBook[i].customer == payable(msg.sender)) {... */\n      tag_79\n      jumpi\n        /* \"contracts/OrderBook.sol\":3619:3626  request */\n      0x02\n        /* \"contracts/OrderBook.sol\":3632:3633  i */\n      dup2\n        /* \"contracts/OrderBook.sol\":3619:3634  request.push(i) */\n      swap1\n      dup1\n      0x01\n      dup2\n      sload\n      add\n      dup1\n      dup3\n      sstore\n      dup1\n      swap2\n      pop\n      pop\n      0x01\n      swap1\n      sub\n      swap1\n      0x00\n      mstore\n      keccak256(0x00, 0x20)\n      add\n      0x00\n      swap1\n      swap2\n      swap1\n      swap2\n      swap1\n      swap2\n      pop\n      sstore\n        /* \"contracts/OrderBook.sol\":3553:3649  if (bidBook[i].customer == payable(msg.sender)) {... */\n    tag_79:\n        /* \"contracts/OrderBook.sol\":3534:3537  i++ */\n      dup1\n      dup1\n      tag_81\n      swap1\n      tag_48\n      jump\t// in\n    tag_81:\n      swap2\n      pop\n      pop\n        /* \"contracts/OrderBook.sol\":3497:3659  for (uint i = 0; i < bidBook.length; i++) {... */\n      jump(tag_73)\n    tag_74:\n      pop\n        /* \"contracts/OrderBook.sol\":3675:3682  request */\n      0x02\n        /* \"contracts/OrderBook.sol\":3668:3682  return request */\n      dup1\n      sload\n      dup1\n      0x20\n      mul\n      0x20\n      add\n      mload(0x40)\n      swap1\n      dup2\n      add\n      0x40\n      mstore\n      dup1\n      swap3\n      swap2\n      swap1\n      dup2\n      dup2\n      mstore\n      0x20\n      add\n      dup3\n      dup1\n      sload\n      dup1\n      iszero\n      tag_82\n      jumpi\n      0x20\n      mul\n      dup3\n      add\n      swap2\n      swap1\n      0x00\n      mstore\n      keccak256(0x00, 0x20)\n      swap1\n    tag_83:\n      dup2\n      sload\n      dup2\n      mstore\n      0x20\n      add\n      swap1\n      0x01\n      add\n      swap1\n      dup1\n      dup4\n      gt\n      tag_83\n      jumpi\n    tag_82:\n      pop\n      pop\n      pop\n      pop\n      pop\n      swap1\n      pop\n        /* \"contracts/OrderBook.sol\":3406:3689  function fetchYourBidIds() public returns (uint[] memory) {... */\n      swap1\n      jump\t// out\n        /* \"contracts/OrderBook.sol\":1218:1351  function deleteArray() internal {... */\n    tag_37:\n        /* \"contracts/OrderBook.sol\":1265:1271  uint i */\n      0x00\n        /* \"contracts/OrderBook.sol\":1260:1345  for (uint i = 0; i < request.length; i ++) {... */\n    tag_85:\n        /* \"contracts/OrderBook.sol\":1281:1288  request */\n      0x02\n        /* \"contracts/OrderBook.sol\":1281:1295  request.length */\n      dup1\n      sload\n      swap1\n      pop\n        /* \"contracts/OrderBook.sol\":1277:1278  i */\n      dup2\n        /* \"contracts/OrderBook.sol\":1277:1295  i < request.length */\n      lt\n        /* \"contracts/OrderBook.sol\":1260:1345  for (uint i = 0; i < request.length; i ++) {... */\n      iszero\n      tag_86\n      jumpi\n        /* \"contracts/OrderBook.sol\":1324:1331  request */\n      0x02\n        /* \"contracts/OrderBook.sol\":1332:1333  i */\n      dup2\n        /* \"contracts/OrderBook.sol\":1324:1334  request[i] */\n      dup2\n      sload\n      dup2\n      lt\n      tag_88\n      jumpi\n      tag_89\n      tag_43\n      jump\t// in\n    tag_89:\n    tag_88:\n      swap1\n      0x00\n      mstore\n      keccak256(0x00, 0x20)\n      add\n        /* \"contracts/OrderBook.sol\":1317:1334  delete request[i] */\n      0x00\n      swap1\n      sstore\n        /* \"contracts/OrderBook.sol\":1297:1301  i ++ */\n      dup1\n      dup1\n      tag_91\n      swap1\n      tag_48\n      jump\t// in\n    tag_91:\n      swap2\n      pop\n      pop\n        /* \"contracts/OrderBook.sol\":1260:1345  for (uint i = 0; i < request.length; i ++) {... */\n      jump(tag_85)\n    tag_86:\n      pop\n        /* \"contracts/OrderBook.sol\":1218:1351  function deleteArray() internal {... */\n      jump\t// out\n        /* \"contracts/OrderBook.sol\":1093:1212  function sortAsk() internal {... */\n    tag_56:\n        /* \"contracts/OrderBook.sol\":1130:1190  ascendingQuickSort(bidBook, int(0), int(bidBook.length - 1)) */\n      tag_93\n        /* \"contracts/OrderBook.sol\":1149:1156  bidBook */\n      0x00\n        /* \"contracts/OrderBook.sol\":1130:1190  ascendingQuickSort(bidBook, int(0), int(bidBook.length - 1)) */\n      dup1\n      sload\n      dup1\n      0x20\n      mul\n      0x20\n      add\n      mload(0x40)\n      swap1\n      dup2\n      add\n      0x40\n      mstore\n      dup1\n      swap3\n      swap2\n      swap1\n      dup2\n      dup2\n      mstore\n      0x20\n      add\n      0x00\n      swap1\n    tag_94:\n      dup3\n      dup3\n      lt\n      iszero\n      tag_95\n      jumpi\n      dup4\n      dup3\n      swap1\n      0x00\n      mstore\n      keccak256(0x00, 0x20)\n      swap1\n      0x03\n      mul\n      add\n      mload(0x40)\n      dup1\n      0x60\n      add\n      0x40\n      mstore\n      swap1\n      dup2\n      0x00\n      dup3\n      add\n      0x00\n      swap1\n      sload\n      swap1\n      0x0100\n      exp\n      swap1\n      div\n      0xffffffffffffffffffffffffffffffffffffffff\n      and\n      0xffffffffffffffffffffffffffffffffffffffff\n      and\n      0xffffffffffffffffffffffffffffffffffffffff\n      and\n      dup2\n      mstore\n      0x20\n      add\n      0x01\n      dup3\n      add\n      sload\n      dup2\n      mstore\n      0x20\n      add\n      0x02\n      dup3\n      add\n      sload\n      dup2\n      mstore\n      pop\n      pop\n      dup2\n      mstore\n      0x20\n      add\n      swap1\n      0x01\n      add\n      swap1\n      jump(tag_94)\n    tag_95:\n      pop\n      pop\n      pop\n      pop\n        /* \"contracts/OrderBook.sol\":1162:1163  0 */\n      0x00\n        /* \"contracts/OrderBook.sol\":1187:1188  1 */\n      0x01\n        /* \"contracts/OrderBook.sol\":1170:1177  bidBook */\n      0x00\n        /* \"contracts/OrderBook.sol\":1170:1184  bidBook.length */\n      dup1\n      sload\n      swap1\n      pop\n        /* \"contracts/OrderBook.sol\":1170:1188  bidBook.length - 1 */\n      tag_97\n      swap2\n      swap1\n      tag_98\n      jump\t// in\n    tag_97:\n        /* \"contracts/OrderBook.sol\":1130:1148  ascendingQuickSort */\n      tag_99\n        /* \"contracts/OrderBook.sol\":1130:1190  ascendingQuickSort(bidBook, int(0), int(bidBook.length - 1)) */\n      jump\t// in\n    tag_93:\n        /* \"contracts/OrderBook.sol\":1093:1212  function sortAsk() internal {... */\n      jump\t// out\n        /* \"contracts/OrderBook.sol\":967:1087  function sortBid() internal {... */\n    tag_68:\n        /* \"contracts/OrderBook.sol\":1004:1065  descendingQuickSort(bidBook, int(0), int(bidBook.length - 1)) */\n      tag_101\n        /* \"contracts/OrderBook.sol\":1024:1031  bidBook */\n      0x00\n        /* \"contracts/OrderBook.sol\":1004:1065  descendingQuickSort(bidBook, int(0), int(bidBook.length - 1)) */\n      dup1\n      sload\n      dup1\n      0x20\n      mul\n      0x20\n      add\n      mload(0x40)\n      swap1\n      dup2\n      add\n      0x40\n      mstore\n      dup1\n      swap3\n      swap2\n      swap1\n      dup2\n      dup2\n      mstore\n      0x20\n      add\n      0x00\n      swap1\n    tag_102:\n      dup3\n      dup3\n      lt\n      iszero\n      tag_103\n      jumpi\n      dup4\n      dup3\n      swap1\n      0x00\n      mstore\n      keccak256(0x00, 0x20)\n      swap1\n      0x03\n      mul\n      add\n      mload(0x40)\n      dup1\n      0x60\n      add\n      0x40\n      mstore\n      swap1\n      dup2\n      0x00\n      dup3\n      add\n      0x00\n      swap1\n      sload\n      swap1\n      0x0100\n      exp\n      swap1\n      div\n      0xffffffffffffffffffffffffffffffffffffffff\n      and\n      0xffffffffffffffffffffffffffffffffffffffff\n      and\n      0xffffffffffffffffffffffffffffffffffffffff\n      and\n      dup2\n      mstore\n      0x20\n      add\n      0x01\n      dup3\n      add\n      sload\n      dup2\n      mstore\n      0x20\n      add\n      0x02\n      dup3\n      add\n      sload\n      dup2\n      mstore\n      pop\n      pop\n      dup2\n      mstore\n      0x20\n      add\n      swap1\n      0x01\n      add\n      swap1\n      jump(tag_102)\n    tag_103:\n      pop\n      pop\n      pop\n      pop\n        /* \"contracts/OrderBook.sol\":1037:1038  0 */\n      0x00\n        /* \"contracts/OrderBook.sol\":1062:1063  1 */\n      0x01\n        /* \"contracts/OrderBook.sol\":1045:1052  bidBook */\n      0x00\n        /* \"contracts/OrderBook.sol\":1045:1059  bidBook.length */\n      dup1\n      sload\n      swap1\n      pop\n        /* \"contracts/OrderBook.sol\":1045:1063  bidBook.length - 1 */\n      tag_105\n      swap2\n      swap1\n      tag_98\n      jump\t// in\n    tag_105:\n        /* \"contracts/OrderBook.sol\":1004:1023  descendingQuickSort */\n      tag_106\n        /* \"contracts/OrderBook.sol\":1004:1065  descendingQuickSort(bidBook, int(0), int(bidBook.length - 1)) */\n      jump\t// in\n    tag_101:\n        /* \"contracts/OrderBook.sol\":967:1087  function sortBid() internal {... */\n      jump\t// out\n        /* \"contracts/OrderBook.sol\":2036:2706  function ascendingQuickSort(order[] memory arr, int left, int right) internal{... */\n    tag_99:\n        /* \"contracts/OrderBook.sol\":2123:2128  int i */\n      0x00\n        /* \"contracts/OrderBook.sol\":2131:2135  left */\n      dup3\n        /* \"contracts/OrderBook.sol\":2123:2135  int i = left */\n      swap1\n      pop\n        /* \"contracts/OrderBook.sol\":2145:2150  int j */\n      0x00\n        /* \"contracts/OrderBook.sol\":2153:2158  right */\n      dup3\n        /* \"contracts/OrderBook.sol\":2145:2158  int j = right */\n      swap1\n      pop\n        /* \"contracts/OrderBook.sol\":2174:2175  j */\n      dup1\n        /* \"contracts/OrderBook.sol\":2171:2172  i */\n      dup3\n        /* \"contracts/OrderBook.sol\":2171:2175  i==j */\n      sub\n        /* \"contracts/OrderBook.sol\":2168:2184  if(i==j) return; */\n      tag_108\n      jumpi\n        /* \"contracts/OrderBook.sol\":2177:2184  return; */\n      pop\n      pop\n      jump(tag_107)\n        /* \"contracts/OrderBook.sol\":2168:2184  if(i==j) return; */\n    tag_108:\n        /* \"contracts/OrderBook.sol\":2193:2206  uint256 pivot */\n      0x00\n        /* \"contracts/OrderBook.sol\":2209:2212  arr */\n      dup6\n        /* \"contracts/OrderBook.sol\":2242:2243  2 */\n      0x02\n        /* \"contracts/OrderBook.sol\":2234:2238  left */\n      dup7\n        /* \"contracts/OrderBook.sol\":2226:2231  right */\n      dup7\n        /* \"contracts/OrderBook.sol\":2226:2238  right - left */\n      tag_109\n      swap2\n      swap1\n      tag_110\n      jump\t// in\n    tag_109:\n        /* \"contracts/OrderBook.sol\":2225:2243  (right - left) / 2 */\n      tag_111\n      swap2\n      swap1\n      tag_112\n      jump\t// in\n    tag_111:\n        /* \"contracts/OrderBook.sol\":2218:2222  left */\n      dup7\n        /* \"contracts/OrderBook.sol\":2218:2243  left + (right - left) / 2 */\n      tag_113\n      swap2\n      swap1\n      tag_114\n      jump\t// in\n    tag_113:\n        /* \"contracts/OrderBook.sol\":2209:2245  arr[uint(left + (right - left) / 2)] */\n      dup2\n      mload\n      dup2\n      lt\n      tag_115\n      jumpi\n      tag_116\n      tag_43\n      jump\t// in\n    tag_116:\n    tag_115:\n      0x20\n      mul\n      0x20\n      add\n      add\n      mload\n        /* \"contracts/OrderBook.sol\":2209:2255  arr[uint(left + (right - left) / 2)].timestamp */\n      0x40\n      add\n      mload\n        /* \"contracts/OrderBook.sol\":2193:2255  uint256 pivot = arr[uint(left + (right - left) / 2)].timestamp */\n      swap1\n      pop\n        /* \"contracts/OrderBook.sol\":2265:2562  while (i <= j) {... */\n    tag_117:\n        /* \"contracts/OrderBook.sol\":2277:2278  j */\n      dup2\n        /* \"contracts/OrderBook.sol\":2272:2273  i */\n      dup4\n        /* \"contracts/OrderBook.sol\":2272:2278  i <= j */\n      sgt\n        /* \"contracts/OrderBook.sol\":2265:2562  while (i <= j) {... */\n      tag_118\n      jumpi\n        /* \"contracts/OrderBook.sol\":2294:2336  while (arr[uint(i)].timestamp > pivot) i++ */\n    tag_119:\n        /* \"contracts/OrderBook.sol\":2326:2331  pivot */\n      dup1\n        /* \"contracts/OrderBook.sol\":2301:2304  arr */\n      dup7\n        /* \"contracts/OrderBook.sol\":2310:2311  i */\n      dup5\n        /* \"contracts/OrderBook.sol\":2301:2313  arr[uint(i)] */\n      dup2\n      mload\n      dup2\n      lt\n      tag_121\n      jumpi\n      tag_122\n      tag_43\n      jump\t// in\n    tag_122:\n    tag_121:\n      0x20\n      mul\n      0x20\n      add\n      add\n      mload\n        /* \"contracts/OrderBook.sol\":2301:2323  arr[uint(i)].timestamp */\n      0x40\n      add\n      mload\n        /* \"contracts/OrderBook.sol\":2301:2331  arr[uint(i)].timestamp > pivot */\n      gt\n        /* \"contracts/OrderBook.sol\":2294:2336  while (arr[uint(i)].timestamp > pivot) i++ */\n      iszero\n      tag_120\n      jumpi\n        /* \"contracts/OrderBook.sol\":2333:2336  i++ */\n      dup3\n      dup1\n      tag_123\n      swap1\n      tag_124\n      jump\t// in\n    tag_123:\n      swap4\n      pop\n      pop\n        /* \"contracts/OrderBook.sol\":2294:2336  while (arr[uint(i)].timestamp > pivot) i++ */\n      jump(tag_119)\n    tag_120:\n        /* \"contracts/OrderBook.sol\":2350:2392  while (pivot > arr[uint(j)].timestamp) j-- */\n    tag_125:\n        /* \"contracts/OrderBook.sol\":2365:2368  arr */\n      dup6\n        /* \"contracts/OrderBook.sol\":2374:2375  j */\n      dup3\n        /* \"contracts/OrderBook.sol\":2365:2377  arr[uint(j)] */\n      dup2\n      mload\n      dup2\n      lt\n      tag_127\n      jumpi\n      tag_128\n      tag_43\n      jump\t// in\n    tag_128:\n    tag_127:\n      0x20\n      mul\n      0x20\n      add\n      add\n      mload\n        /* \"contracts/OrderBook.sol\":2365:2387  arr[uint(j)].timestamp */\n      0x40\n      add\n      mload\n        /* \"contracts/OrderBook.sol\":2357:2362  pivot */\n      dup2\n        /* \"contracts/OrderBook.sol\":2357:2387  pivot > arr[uint(j)].timestamp */\n      gt\n        /* \"contracts/OrderBook.sol\":2350:2392  while (pivot > arr[uint(j)].timestamp) j-- */\n      iszero\n      tag_126\n      jumpi\n        /* \"contracts/OrderBook.sol\":2389:2392  j-- */\n      dup2\n      dup1\n      tag_129\n      swap1\n      tag_130\n      jump\t// in\n    tag_129:\n      swap3\n      pop\n      pop\n        /* \"contracts/OrderBook.sol\":2350:2392  while (pivot > arr[uint(j)].timestamp) j-- */\n      jump(tag_125)\n    tag_126:\n        /* \"contracts/OrderBook.sol\":2415:2416  j */\n      dup2\n        /* \"contracts/OrderBook.sol\":2410:2411  i */\n      dup4\n        /* \"contracts/OrderBook.sol\":2410:2416  i <= j */\n      sgt\n        /* \"contracts/OrderBook.sol\":2406:2552  if (i <= j) {... */\n      tag_131\n      jumpi\n        /* \"contracts/OrderBook.sol\":2468:2471  arr */\n      dup6\n        /* \"contracts/OrderBook.sol\":2477:2478  j */\n      dup3\n        /* \"contracts/OrderBook.sol\":2468:2480  arr[uint(j)] */\n      dup2\n      mload\n      dup2\n      lt\n      tag_132\n      jumpi\n      tag_133\n      tag_43\n      jump\t// in\n    tag_133:\n    tag_132:\n      0x20\n      mul\n      0x20\n      add\n      add\n      mload\n        /* \"contracts/OrderBook.sol\":2482:2485  arr */\n      dup7\n        /* \"contracts/OrderBook.sol\":2491:2492  i */\n      dup5\n        /* \"contracts/OrderBook.sol\":2482:2494  arr[uint(i)] */\n      dup2\n      mload\n      dup2\n      lt\n      tag_134\n      jumpi\n      tag_135\n      tag_43\n      jump\t// in\n    tag_135:\n    tag_134:\n      0x20\n      mul\n      0x20\n      add\n      add\n      mload\n        /* \"contracts/OrderBook.sol\":2437:2440  arr */\n      dup8\n        /* \"contracts/OrderBook.sol\":2446:2447  i */\n      dup6\n        /* \"contracts/OrderBook.sol\":2437:2449  arr[uint(i)] */\n      dup2\n      mload\n      dup2\n      lt\n      tag_136\n      jumpi\n      tag_137\n      tag_43\n      jump\t// in\n    tag_137:\n    tag_136:\n      0x20\n      mul\n      0x20\n      add\n      add\n        /* \"contracts/OrderBook.sol\":2451:2454  arr */\n      dup9\n        /* \"contracts/OrderBook.sol\":2460:2461  j */\n      dup6\n        /* \"contracts/OrderBook.sol\":2451:2463  arr[uint(j)] */\n      dup2\n      mload\n      dup2\n      lt\n      tag_138\n      jumpi\n      tag_139\n      tag_43\n      jump\t// in\n    tag_139:\n    tag_138:\n      0x20\n      mul\n      0x20\n      add\n      add\n        /* \"contracts/OrderBook.sol\":2436:2495  (arr[uint(i)], arr[uint(j)]) = (arr[uint(j)], arr[uint(i)]) */\n      dup3\n      swap1\n      mstore\n      dup3\n      swap1\n      mstore\n      pop\n      pop\n        /* \"contracts/OrderBook.sol\":2513:2516  i++ */\n      dup3\n      dup1\n      tag_140\n      swap1\n      tag_124\n      jump\t// in\n    tag_140:\n      swap4\n      pop\n      pop\n        /* \"contracts/OrderBook.sol\":2534:2537  j-- */\n      dup2\n      dup1\n      tag_141\n      swap1\n      tag_130\n      jump\t// in\n    tag_141:\n      swap3\n      pop\n      pop\n        /* \"contracts/OrderBook.sol\":2406:2552  if (i <= j) {... */\n    tag_131:\n        /* \"contracts/OrderBook.sol\":2265:2562  while (i <= j) {... */\n      jump(tag_117)\n    tag_118:\n        /* \"contracts/OrderBook.sol\":2582:2583  j */\n      dup2\n        /* \"contracts/OrderBook.sol\":2575:2579  left */\n      dup6\n        /* \"contracts/OrderBook.sol\":2575:2583  left < j */\n      slt\n        /* \"contracts/OrderBook.sol\":2571:2629  if (left < j)... */\n      iszero\n      tag_142\n      jumpi\n        /* \"contracts/OrderBook.sol\":2597:2629  ascendingQuickSort(arr, left, j) */\n      tag_143\n        /* \"contracts/OrderBook.sol\":2616:2619  arr */\n      dup7\n        /* \"contracts/OrderBook.sol\":2621:2625  left */\n      dup7\n        /* \"contracts/OrderBook.sol\":2627:2628  j */\n      dup5\n        /* \"contracts/OrderBook.sol\":2597:2615  ascendingQuickSort */\n      tag_99\n        /* \"contracts/OrderBook.sol\":2597:2629  ascendingQuickSort(arr, left, j) */\n      jump\t// in\n    tag_143:\n        /* \"contracts/OrderBook.sol\":2571:2629  if (left < j)... */\n    tag_142:\n        /* \"contracts/OrderBook.sol\":2647:2652  right */\n      dup4\n        /* \"contracts/OrderBook.sol\":2643:2644  i */\n      dup4\n        /* \"contracts/OrderBook.sol\":2643:2652  i < right */\n      slt\n        /* \"contracts/OrderBook.sol\":2639:2699  if (i < right)... */\n      iszero\n      tag_144\n      jumpi\n        /* \"contracts/OrderBook.sol\":2666:2699  ascendingQuickSort(arr, i, right) */\n      tag_145\n        /* \"contracts/OrderBook.sol\":2685:2688  arr */\n      dup7\n        /* \"contracts/OrderBook.sol\":2690:2691  i */\n      dup5\n        /* \"contracts/OrderBook.sol\":2693:2698  right */\n      dup7\n        /* \"contracts/OrderBook.sol\":2666:2684  ascendingQuickSort */\n      tag_99\n        /* \"contracts/OrderBook.sol\":2666:2699  ascendingQuickSort(arr, i, right) */\n      jump\t// in\n    tag_145:\n        /* \"contracts/OrderBook.sol\":2639:2699  if (i < right)... */\n    tag_144:\n        /* \"contracts/OrderBook.sol\":2113:2706  {... */\n      pop\n      pop\n      pop\n        /* \"contracts/OrderBook.sol\":2036:2706  function ascendingQuickSort(order[] memory arr, int left, int right) internal{... */\n    tag_107:\n      pop\n      pop\n      pop\n      jump\t// out\n        /* \"contracts/OrderBook.sol\":1357:2030  function descendingQuickSort(order[] memory arr, int left, int right) internal{... */\n    tag_106:\n        /* \"contracts/OrderBook.sol\":1445:1450  int i */\n      0x00\n        /* \"contracts/OrderBook.sol\":1453:1457  left */\n      dup3\n        /* \"contracts/OrderBook.sol\":1445:1457  int i = left */\n      swap1\n      pop\n        /* \"contracts/OrderBook.sol\":1467:1472  int j */\n      0x00\n        /* \"contracts/OrderBook.sol\":1475:1480  right */\n      dup3\n        /* \"contracts/OrderBook.sol\":1467:1480  int j = right */\n      swap1\n      pop\n        /* \"contracts/OrderBook.sol\":1496:1497  j */\n      dup1\n        /* \"contracts/OrderBook.sol\":1493:1494  i */\n      dup3\n        /* \"contracts/OrderBook.sol\":1493:1497  i==j */\n      sub\n        /* \"contracts/OrderBook.sol\":1490:1506  if(i==j) return; */\n      tag_147\n      jumpi\n        /* \"contracts/OrderBook.sol\":1499:1506  return; */\n      pop\n      pop\n      jump(tag_146)\n        /* \"contracts/OrderBook.sol\":1490:1506  if(i==j) return; */\n    tag_147:\n        /* \"contracts/OrderBook.sol\":1515:1528  uint256 pivot */\n      0x00\n        /* \"contracts/OrderBook.sol\":1531:1534  arr */\n      dup6\n        /* \"contracts/OrderBook.sol\":1564:1565  2 */\n      0x02\n        /* \"contracts/OrderBook.sol\":1556:1560  left */\n      dup7\n        /* \"contracts/OrderBook.sol\":1548:1553  right */\n      dup7\n        /* \"contracts/OrderBook.sol\":1548:1560  right - left */\n      tag_148\n      swap2\n      swap1\n      tag_110\n      jump\t// in\n    tag_148:\n        /* \"contracts/OrderBook.sol\":1547:1565  (right - left) / 2 */\n      tag_149\n      swap2\n      swap1\n      tag_112\n      jump\t// in\n    tag_149:\n        /* \"contracts/OrderBook.sol\":1540:1544  left */\n      dup7\n        /* \"contracts/OrderBook.sol\":1540:1565  left + (right - left) / 2 */\n      tag_150\n      swap2\n      swap1\n      tag_114\n      jump\t// in\n    tag_150:\n        /* \"contracts/OrderBook.sol\":1531:1567  arr[uint(left + (right - left) / 2)] */\n      dup2\n      mload\n      dup2\n      lt\n      tag_151\n      jumpi\n      tag_152\n      tag_43\n      jump\t// in\n    tag_152:\n    tag_151:\n      0x20\n      mul\n      0x20\n      add\n      add\n      mload\n        /* \"contracts/OrderBook.sol\":1531:1577  arr[uint(left + (right - left) / 2)].timestamp */\n      0x40\n      add\n      mload\n        /* \"contracts/OrderBook.sol\":1515:1577  uint256 pivot = arr[uint(left + (right - left) / 2)].timestamp */\n      swap1\n      pop\n        /* \"contracts/OrderBook.sol\":1587:1884  while (i <= j) {... */\n    tag_153:\n        /* \"contracts/OrderBook.sol\":1599:1600  j */\n      dup2\n        /* \"contracts/OrderBook.sol\":1594:1595  i */\n      dup4\n        /* \"contracts/OrderBook.sol\":1594:1600  i <= j */\n      sgt\n        /* \"contracts/OrderBook.sol\":1587:1884  while (i <= j) {... */\n      tag_154\n      jumpi\n        /* \"contracts/OrderBook.sol\":1616:1658  while (arr[uint(i)].timestamp < pivot) i++ */\n    tag_155:\n        /* \"contracts/OrderBook.sol\":1648:1653  pivot */\n      dup1\n        /* \"contracts/OrderBook.sol\":1623:1626  arr */\n      dup7\n        /* \"contracts/OrderBook.sol\":1632:1633  i */\n      dup5\n        /* \"contracts/OrderBook.sol\":1623:1635  arr[uint(i)] */\n      dup2\n      mload\n      dup2\n      lt\n      tag_157\n      jumpi\n      tag_158\n      tag_43\n      jump\t// in\n    tag_158:\n    tag_157:\n      0x20\n      mul\n      0x20\n      add\n      add\n      mload\n        /* \"contracts/OrderBook.sol\":1623:1645  arr[uint(i)].timestamp */\n      0x40\n      add\n      mload\n        /* \"contracts/OrderBook.sol\":1623:1653  arr[uint(i)].timestamp < pivot */\n      lt\n        /* \"contracts/OrderBook.sol\":1616:1658  while (arr[uint(i)].timestamp < pivot) i++ */\n      iszero\n      tag_156\n      jumpi\n        /* \"contracts/OrderBook.sol\":1655:1658  i++ */\n      dup3\n      dup1\n      tag_159\n      swap1\n      tag_124\n      jump\t// in\n    tag_159:\n      swap4\n      pop\n      pop\n        /* \"contracts/OrderBook.sol\":1616:1658  while (arr[uint(i)].timestamp < pivot) i++ */\n      jump(tag_155)\n    tag_156:\n        /* \"contracts/OrderBook.sol\":1672:1714  while (pivot < arr[uint(j)].timestamp) j-- */\n    tag_160:\n        /* \"contracts/OrderBook.sol\":1687:1690  arr */\n      dup6\n        /* \"contracts/OrderBook.sol\":1696:1697  j */\n      dup3\n        /* \"contracts/OrderBook.sol\":1687:1699  arr[uint(j)] */\n      dup2\n      mload\n      dup2\n      lt\n      tag_162\n      jumpi\n      tag_163\n      tag_43\n      jump\t// in\n    tag_163:\n    tag_162:\n      0x20\n      mul\n      0x20\n      add\n      add\n      mload\n        /* \"contracts/OrderBook.sol\":1687:1709  arr[uint(j)].timestamp */\n      0x40\n      add\n      mload\n        /* \"contracts/OrderBook.sol\":1679:1684  pivot */\n      dup2\n        /* \"contracts/OrderBook.sol\":1679:1709  pivot < arr[uint(j)].timestamp */\n      lt\n        /* \"contracts/OrderBook.sol\":1672:1714  while (pivot < arr[uint(j)].timestamp) j-- */\n      iszero\n      tag_161\n      jumpi\n        /* \"contracts/OrderBook.sol\":1711:1714  j-- */\n      dup2\n      dup1\n      tag_164\n      swap1\n      tag_130\n      jump\t// in\n    tag_164:\n      swap3\n      pop\n      pop\n        /* \"contracts/OrderBook.sol\":1672:1714  while (pivot < arr[uint(j)].timestamp) j-- */\n      jump(tag_160)\n    tag_161:\n        /* \"contracts/OrderBook.sol\":1737:1738  j */\n      dup2\n        /* \"contracts/OrderBook.sol\":1732:1733  i */\n      dup4\n        /* \"contracts/OrderBook.sol\":1732:1738  i <= j */\n      sgt\n        /* \"contracts/OrderBook.sol\":1728:1874  if (i <= j) {... */\n      tag_165\n      jumpi\n        /* \"contracts/OrderBook.sol\":1790:1793  arr */\n      dup6\n        /* \"contracts/OrderBook.sol\":1799:1800  j */\n      dup3\n        /* \"contracts/OrderBook.sol\":1790:1802  arr[uint(j)] */\n      dup2\n      mload\n      dup2\n      lt\n      tag_166\n      jumpi\n      tag_167\n      tag_43\n      jump\t// in\n    tag_167:\n    tag_166:\n      0x20\n      mul\n      0x20\n      add\n      add\n      mload\n        /* \"contracts/OrderBook.sol\":1804:1807  arr */\n      dup7\n        /* \"contracts/OrderBook.sol\":1813:1814  i */\n      dup5\n        /* \"contracts/OrderBook.sol\":1804:1816  arr[uint(i)] */\n      dup2\n      mload\n      dup2\n      lt\n      tag_168\n      jumpi\n      tag_169\n      tag_43\n      jump\t// in\n    tag_169:\n    tag_168:\n      0x20\n      mul\n      0x20\n      add\n      add\n      mload\n        /* \"contracts/OrderBook.sol\":1759:1762  arr */\n      dup8\n        /* \"contracts/OrderBook.sol\":1768:1769  i */\n      dup6\n        /* \"contracts/OrderBook.sol\":1759:1771  arr[uint(i)] */\n      dup2\n      mload\n      dup2\n      lt\n      tag_170\n      jumpi\n      tag_171\n      tag_43\n      jump\t// in\n    tag_171:\n    tag_170:\n      0x20\n      mul\n      0x20\n      add\n      add\n        /* \"contracts/OrderBook.sol\":1773:1776  arr */\n      dup9\n        /* \"contracts/OrderBook.sol\":1782:1783  j */\n      dup6\n        /* \"contracts/OrderBook.sol\":1773:1785  arr[uint(j)] */\n      dup2\n      mload\n      dup2\n      lt\n      tag_172\n      jumpi\n      tag_173\n      tag_43\n      jump\t// in\n    tag_173:\n    tag_172:\n      0x20\n      mul\n      0x20\n      add\n      add\n        /* \"contracts/OrderBook.sol\":1758:1817  (arr[uint(i)], arr[uint(j)]) = (arr[uint(j)], arr[uint(i)]) */\n      dup3\n      swap1\n      mstore\n      dup3\n      swap1\n      mstore\n      pop\n      pop\n        /* \"contracts/OrderBook.sol\":1835:1838  i++ */\n      dup3\n      dup1\n      tag_174\n      swap1\n      tag_124\n      jump\t// in\n    tag_174:\n      swap4\n      pop\n      pop\n        /* \"contracts/OrderBook.sol\":1856:1859  j-- */\n      dup2\n      dup1\n      tag_175\n      swap1\n      tag_130\n      jump\t// in\n    tag_175:\n      swap3\n      pop\n      pop\n        /* \"contracts/OrderBook.sol\":1728:1874  if (i <= j) {... */\n    tag_165:\n        /* \"contracts/OrderBook.sol\":1587:1884  while (i <= j) {... */\n      jump(tag_153)\n    tag_154:\n        /* \"contracts/OrderBook.sol\":1904:1905  j */\n      dup2\n        /* \"contracts/OrderBook.sol\":1897:1901  left */\n      dup6\n        /* \"contracts/OrderBook.sol\":1897:1905  left < j */\n      slt\n        /* \"contracts/OrderBook.sol\":1893:1952  if (left < j)... */\n      iszero\n      tag_176\n      jumpi\n        /* \"contracts/OrderBook.sol\":1919:1952  descendingQuickSort(arr, left, j) */\n      tag_177\n        /* \"contracts/OrderBook.sol\":1939:1942  arr */\n      dup7\n        /* \"contracts/OrderBook.sol\":1944:1948  left */\n      dup7\n        /* \"contracts/OrderBook.sol\":1950:1951  j */\n      dup5\n        /* \"contracts/OrderBook.sol\":1919:1938  descendingQuickSort */\n      tag_106\n        /* \"contracts/OrderBook.sol\":1919:1952  descendingQuickSort(arr, left, j) */\n      jump\t// in\n    tag_177:\n        /* \"contracts/OrderBook.sol\":1893:1952  if (left < j)... */\n    tag_176:\n        /* \"contracts/OrderBook.sol\":1970:1975  right */\n      dup4\n        /* \"contracts/OrderBook.sol\":1966:1967  i */\n      dup4\n        /* \"contracts/OrderBook.sol\":1966:1975  i < right */\n      slt\n        /* \"contracts/OrderBook.sol\":1962:2023  if (i < right)... */\n      iszero\n      tag_178\n      jumpi\n        /* \"contracts/OrderBook.sol\":1989:2023  descendingQuickSort(arr, i, right) */\n      tag_179\n        /* \"contracts/OrderBook.sol\":2009:2012  arr */\n      dup7\n        /* \"contracts/OrderBook.sol\":2014:2015  i */\n      dup5\n        /* \"contracts/OrderBook.sol\":2017:2022  right */\n      dup7\n        /* \"contracts/OrderBook.sol\":1989:2008  descendingQuickSort */\n      tag_106\n        /* \"contracts/OrderBook.sol\":1989:2023  descendingQuickSort(arr, i, right) */\n      jump\t// in\n    tag_179:\n        /* \"contracts/OrderBook.sol\":1962:2023  if (i < right)... */\n    tag_178:\n        /* \"contracts/OrderBook.sol\":1435:2030  {... */\n      pop\n      pop\n      pop\n        /* \"contracts/OrderBook.sol\":1357:2030  function descendingQuickSort(order[] memory arr, int left, int right) internal{... */\n    tag_146:\n      pop\n      pop\n      pop\n      jump\t// out\n        /* \"#utility.yul\":7:121   */\n    tag_180:\n        /* \"#utility.yul\":74:80   */\n      0x00\n        /* \"#utility.yul\":108:113   */\n      dup2\n        /* \"#utility.yul\":102:114   */\n      mload\n        /* \"#utility.yul\":92:114   */\n      swap1\n      pop\n        /* \"#utility.yul\":7:121   */\n      swap2\n      swap1\n      pop\n      jump\t// out\n        /* \"#utility.yul\":127:311   */\n    tag_181:\n        /* \"#utility.yul\":226:237   */\n      0x00\n        /* \"#utility.yul\":260:266   */\n      dup3\n        /* \"#utility.yul\":255:258   */\n      dup3\n        /* \"#utility.yul\":248:267   */\n      mstore\n        /* \"#utility.yul\":300:304   */\n      0x20\n        /* \"#utility.yul\":295:298   */\n      dup3\n        /* \"#utility.yul\":291:305   */\n      add\n        /* \"#utility.yul\":276:305   */\n      swap1\n      pop\n        /* \"#utility.yul\":127:311   */\n      swap3\n      swap2\n      pop\n      pop\n      jump\t// out\n        /* \"#utility.yul\":317:449   */\n    tag_182:\n        /* \"#utility.yul\":384:388   */\n      0x00\n        /* \"#utility.yul\":407:410   */\n      dup2\n        /* \"#utility.yul\":399:410   */\n      swap1\n      pop\n        /* \"#utility.yul\":437:441   */\n      0x20\n        /* \"#utility.yul\":432:435   */\n      dup3\n        /* \"#utility.yul\":428:442   */\n      add\n        /* \"#utility.yul\":420:442   */\n      swap1\n      pop\n        /* \"#utility.yul\":317:449   */\n      swap2\n      swap1\n      pop\n      jump\t// out\n        /* \"#utility.yul\":455:532   */\n    tag_183:\n        /* \"#utility.yul\":492:499   */\n      0x00\n        /* \"#utility.yul\":521:526   */\n      dup2\n        /* \"#utility.yul\":510:526   */\n      swap1\n      pop\n        /* \"#utility.yul\":455:532   */\n      swap2\n      swap1\n      pop\n      jump\t// out\n        /* \"#utility.yul\":538:646   */\n    tag_184:\n        /* \"#utility.yul\":615:639   */\n      tag_212\n        /* \"#utility.yul\":633:638   */\n      dup2\n        /* \"#utility.yul\":615:639   */\n      tag_183\n      jump\t// in\n    tag_212:\n        /* \"#utility.yul\":610:613   */\n      dup3\n        /* \"#utility.yul\":603:640   */\n      mstore\n        /* \"#utility.yul\":538:646   */\n      pop\n      pop\n      jump\t// out\n        /* \"#utility.yul\":652:831   */\n    tag_185:\n        /* \"#utility.yul\":721:731   */\n      0x00\n        /* \"#utility.yul\":742:788   */\n      tag_214\n        /* \"#utility.yul\":784:787   */\n      dup4\n        /* \"#utility.yul\":776:782   */\n      dup4\n        /* \"#utility.yul\":742:788   */\n      tag_184\n      jump\t// in\n    tag_214:\n        /* \"#utility.yul\":820:824   */\n      0x20\n        /* \"#utility.yul\":815:818   */\n      dup4\n        /* \"#utility.yul\":811:825   */\n      add\n        /* \"#utility.yul\":797:825   */\n      swap1\n      pop\n        /* \"#utility.yul\":652:831   */\n      swap3\n      swap2\n      pop\n      pop\n      jump\t// out\n        /* \"#utility.yul\":837:950   */\n    tag_186:\n        /* \"#utility.yul\":907:911   */\n      0x00\n        /* \"#utility.yul\":939:943   */\n      0x20\n        /* \"#utility.yul\":934:937   */\n      dup3\n        /* \"#utility.yul\":930:944   */\n      add\n        /* \"#utility.yul\":922:944   */\n      swap1\n      pop\n        /* \"#utility.yul\":837:950   */\n      swap2\n      swap1\n      pop\n      jump\t// out\n        /* \"#utility.yul\":986:1718   */\n    tag_187:\n        /* \"#utility.yul\":1105:1108   */\n      0x00\n        /* \"#utility.yul\":1134:1188   */\n      tag_217\n        /* \"#utility.yul\":1182:1187   */\n      dup3\n        /* \"#utility.yul\":1134:1188   */\n      tag_180\n      jump\t// in\n    tag_217:\n        /* \"#utility.yul\":1204:1290   */\n      tag_218\n        /* \"#utility.yul\":1283:1289   */\n      dup2\n        /* \"#utility.yul\":1278:1281   */\n      dup6\n        /* \"#utility.yul\":1204:1290   */\n      tag_181\n      jump\t// in\n    tag_218:\n        /* \"#utility.yul\":1197:1290   */\n      swap4\n      pop\n        /* \"#utility.yul\":1314:1370   */\n      tag_219\n        /* \"#utility.yul\":1364:1369   */\n      dup4\n        /* \"#utility.yul\":1314:1370   */\n      tag_182\n      jump\t// in\n    tag_219:\n        /* \"#utility.yul\":1393:1400   */\n      dup1\n        /* \"#utility.yul\":1424:1425   */\n      0x00\n        /* \"#utility.yul\":1409:1693   */\n    tag_220:\n        /* \"#utility.yul\":1434:1440   */\n      dup4\n        /* \"#utility.yul\":1431:1432   */\n      dup2\n        /* \"#utility.yul\":1428:1441   */\n      lt\n        /* \"#utility.yul\":1409:1693   */\n      iszero\n      tag_222\n      jumpi\n        /* \"#utility.yul\":1510:1516   */\n      dup2\n        /* \"#utility.yul\":1504:1517   */\n      mload\n        /* \"#utility.yul\":1537:1600   */\n      tag_223\n        /* \"#utility.yul\":1596:1599   */\n      dup9\n        /* \"#utility.yul\":1581:1594   */\n      dup3\n        /* \"#utility.yul\":1537:1600   */\n      tag_185\n      jump\t// in\n    tag_223:\n        /* \"#utility.yul\":1530:1600   */\n      swap8\n      pop\n        /* \"#utility.yul\":1623:1683   */\n      tag_224\n        /* \"#utility.yul\":1676:1682   */\n      dup4\n        /* \"#utility.yul\":1623:1683   */\n      tag_186\n      jump\t// in\n    tag_224:\n        /* \"#utility.yul\":1613:1683   */\n      swap3\n      pop\n        /* \"#utility.yul\":1469:1693   */\n      pop\n        /* \"#utility.yul\":1456:1457   */\n      0x01\n        /* \"#utility.yul\":1453:1454   */\n      dup2\n        /* \"#utility.yul\":1449:1458   */\n      add\n        /* \"#utility.yul\":1444:1458   */\n      swap1\n      pop\n        /* \"#utility.yul\":1409:1693   */\n      jump(tag_220)\n    tag_222:\n        /* \"#utility.yul\":1413:1427   */\n      pop\n        /* \"#utility.yul\":1709:1712   */\n      dup6\n        /* \"#utility.yul\":1702:1712   */\n      swap4\n      pop\n        /* \"#utility.yul\":1110:1718   */\n      pop\n      pop\n      pop\n        /* \"#utility.yul\":986:1718   */\n      swap3\n      swap2\n      pop\n      pop\n      jump\t// out\n        /* \"#utility.yul\":1724:2097   */\n    tag_14:\n        /* \"#utility.yul\":1867:1871   */\n      0x00\n        /* \"#utility.yul\":1905:1907   */\n      0x20\n        /* \"#utility.yul\":1894:1903   */\n      dup3\n        /* \"#utility.yul\":1890:1908   */\n      add\n        /* \"#utility.yul\":1882:1908   */\n      swap1\n      pop\n        /* \"#utility.yul\":1954:1963   */\n      dup2\n        /* \"#utility.yul\":1948:1952   */\n      dup2\n        /* \"#utility.yul\":1944:1964   */\n      sub\n        /* \"#utility.yul\":1940:1941   */\n      0x00\n        /* \"#utility.yul\":1929:1938   */\n      dup4\n        /* \"#utility.yul\":1925:1942   */\n      add\n        /* \"#utility.yul\":1918:1965   */\n      mstore\n        /* \"#utility.yul\":1982:2090   */\n      tag_226\n        /* \"#utility.yul\":2085:2089   */\n      dup2\n        /* \"#utility.yul\":2076:2082   */\n      dup5\n        /* \"#utility.yul\":1982:2090   */\n      tag_187\n      jump\t// in\n    tag_226:\n        /* \"#utility.yul\":1974:2090   */\n      swap1\n      pop\n        /* \"#utility.yul\":1724:2097   */\n      swap3\n      swap2\n      pop\n      pop\n      jump\t// out\n        /* \"#utility.yul\":2184:2301   */\n    tag_189:\n        /* \"#utility.yul\":2293:2294   */\n      0x00\n        /* \"#utility.yul\":2290:2291   */\n      dup1\n        /* \"#utility.yul\":2283:2295   */\n      revert\n        /* \"#utility.yul\":2430:2552   */\n    tag_191:\n        /* \"#utility.yul\":2503:2527   */\n      tag_231\n        /* \"#utility.yul\":2521:2526   */\n      dup2\n        /* \"#utility.yul\":2503:2527   */\n      tag_183\n      jump\t// in\n    tag_231:\n        /* \"#utility.yul\":2496:2501   */\n      dup2\n        /* \"#utility.yul\":2493:2528   */\n      eq\n        /* \"#utility.yul\":2483:2546   */\n      tag_232\n      jumpi\n        /* \"#utility.yul\":2542:2543   */\n      0x00\n        /* \"#utility.yul\":2539:2540   */\n      dup1\n        /* \"#utility.yul\":2532:2544   */\n      revert\n        /* \"#utility.yul\":2483:2546   */\n    tag_232:\n        /* \"#utility.yul\":2430:2552   */\n      pop\n      jump\t// out\n        /* \"#utility.yul\":2558:2697   */\n    tag_192:\n        /* \"#utility.yul\":2604:2609   */\n      0x00\n        /* \"#utility.yul\":2642:2648   */\n      dup2\n        /* \"#utility.yul\":2629:2649   */\n      calldataload\n        /* \"#utility.yul\":2620:2649   */\n      swap1\n      pop\n        /* \"#utility.yul\":2658:2691   */\n      tag_234\n        /* \"#utility.yul\":2685:2690   */\n      dup2\n        /* \"#utility.yul\":2658:2691   */\n      tag_191\n      jump\t// in\n    tag_234:\n        /* \"#utility.yul\":2558:2697   */\n      swap3\n      swap2\n      pop\n      pop\n      jump\t// out\n        /* \"#utility.yul\":2703:3032   */\n    tag_17:\n        /* \"#utility.yul\":2762:2768   */\n      0x00\n        /* \"#utility.yul\":2811:2813   */\n      0x20\n        /* \"#utility.yul\":2799:2808   */\n      dup3\n        /* \"#utility.yul\":2790:2797   */\n      dup5\n        /* \"#utility.yul\":2786:2809   */\n      sub\n        /* \"#utility.yul\":2782:2814   */\n      slt\n        /* \"#utility.yul\":2779:2898   */\n      iszero\n      tag_236\n      jumpi\n        /* \"#utility.yul\":2817:2896   */\n      tag_237\n      tag_189\n      jump\t// in\n    tag_237:\n        /* \"#utility.yul\":2779:2898   */\n    tag_236:\n        /* \"#utility.yul\":2937:2938   */\n      0x00\n        /* \"#utility.yul\":2962:3015   */\n      tag_238\n        /* \"#utility.yul\":3007:3014   */\n      dup5\n        /* \"#utility.yul\":2998:3004   */\n      dup3\n        /* \"#utility.yul\":2987:2996   */\n      dup6\n        /* \"#utility.yul\":2983:3005   */\n      add\n        /* \"#utility.yul\":2962:3015   */\n      tag_192\n      jump\t// in\n    tag_238:\n        /* \"#utility.yul\":2952:3015   */\n      swap2\n      pop\n        /* \"#utility.yul\":2908:3025   */\n      pop\n        /* \"#utility.yul\":2703:3032   */\n      swap3\n      swap2\n      pop\n      pop\n      jump\t// out\n        /* \"#utility.yul\":3038:3172   */\n    tag_193:\n        /* \"#utility.yul\":3125:3131   */\n      0x00\n        /* \"#utility.yul\":3159:3164   */\n      dup2\n        /* \"#utility.yul\":3153:3165   */\n      mload\n        /* \"#utility.yul\":3143:3165   */\n      swap1\n      pop\n        /* \"#utility.yul\":3038:3172   */\n      swap2\n      swap1\n      pop\n      jump\t// out\n        /* \"#utility.yul\":3178:3382   */\n    tag_194:\n        /* \"#utility.yul\":3297:3308   */\n      0x00\n        /* \"#utility.yul\":3331:3337   */\n      dup3\n        /* \"#utility.yul\":3326:3329   */\n      dup3\n        /* \"#utility.yul\":3319:3338   */\n      mstore\n        /* \"#utility.yul\":3371:3375   */\n      0x20\n        /* \"#utility.yul\":3366:3369   */\n      dup3\n        /* \"#utility.yul\":3362:3376   */\n      add\n        /* \"#utility.yul\":3347:3376   */\n      swap1\n      pop\n        /* \"#utility.yul\":3178:3382   */\n      swap3\n      swap2\n      pop\n      pop\n      jump\t// out\n        /* \"#utility.yul\":3388:3540   */\n    tag_195:\n        /* \"#utility.yul\":3475:3479   */\n      0x00\n        /* \"#utility.yul\":3498:3501   */\n      dup2\n        /* \"#utility.yul\":3490:3501   */\n      swap1\n      pop\n        /* \"#utility.yul\":3528:3532   */\n      0x20\n        /* \"#utility.yul\":3523:3526   */\n      dup3\n        /* \"#utility.yul\":3519:3533   */\n      add\n        /* \"#utility.yul\":3511:3533   */\n      swap1\n      pop\n        /* \"#utility.yul\":3388:3540   */\n      swap2\n      swap1\n      pop\n      jump\t// out\n        /* \"#utility.yul\":3546:3672   */\n    tag_196:\n        /* \"#utility.yul\":3583:3590   */\n      0x00\n        /* \"#utility.yul\":3623:3665   */\n      0xffffffffffffffffffffffffffffffffffffffff\n        /* \"#utility.yul\":3616:3621   */\n      dup3\n        /* \"#utility.yul\":3612:3666   */\n      and\n        /* \"#utility.yul\":3601:3666   */\n      swap1\n      pop\n        /* \"#utility.yul\":3546:3672   */\n      swap2\n      swap1\n      pop\n      jump\t// out\n        /* \"#utility.yul\":3678:3782   */\n    tag_197:\n        /* \"#utility.yul\":3723:3730   */\n      0x00\n        /* \"#utility.yul\":3752:3776   */\n      tag_244\n        /* \"#utility.yul\":3770:3775   */\n      dup3\n        /* \"#utility.yul\":3752:3776   */\n      tag_196\n      jump\t// in\n    tag_244:\n        /* \"#utility.yul\":3741:3776   */\n      swap1\n      pop\n        /* \"#utility.yul\":3678:3782   */\n      swap2\n      swap1\n      pop\n      jump\t// out\n        /* \"#utility.yul\":3788:3920   */\n    tag_198:\n        /* \"#utility.yul\":3881:3913   */\n      tag_246\n        /* \"#utility.yul\":3907:3912   */\n      dup2\n        /* \"#utility.yul\":3881:3913   */\n      tag_197\n      jump\t// in\n    tag_246:\n        /* \"#utility.yul\":3876:3879   */\n      dup3\n        /* \"#utility.yul\":3869:3914   */\n      mstore\n        /* \"#utility.yul\":3788:3920   */\n      pop\n      pop\n      jump\t// out\n        /* \"#utility.yul\":3982:4669   */\n    tag_199:\n        /* \"#utility.yul\":4109:4113   */\n      0x60\n        /* \"#utility.yul\":4104:4107   */\n      dup3\n        /* \"#utility.yul\":4100:4114   */\n      add\n        /* \"#utility.yul\":4200:4204   */\n      0x00\n        /* \"#utility.yul\":4193:4198   */\n      dup3\n        /* \"#utility.yul\":4189:4205   */\n      add\n        /* \"#utility.yul\":4183:4206   */\n      mload\n        /* \"#utility.yul\":4219:4298   */\n      tag_248\n        /* \"#utility.yul\":4292:4296   */\n      0x00\n        /* \"#utility.yul\":4287:4290   */\n      dup6\n        /* \"#utility.yul\":4283:4297   */\n      add\n        /* \"#utility.yul\":4269:4281   */\n      dup3\n        /* \"#utility.yul\":4219:4298   */\n      tag_198\n      jump\t// in\n    tag_248:\n        /* \"#utility.yul\":4124:4308   */\n      pop\n        /* \"#utility.yul\":4391:4395   */\n      0x20\n        /* \"#utility.yul\":4384:4389   */\n      dup3\n        /* \"#utility.yul\":4380:4396   */\n      add\n        /* \"#utility.yul\":4374:4397   */\n      mload\n        /* \"#utility.yul\":4410:4473   */\n      tag_249\n        /* \"#utility.yul\":4467:4471   */\n      0x20\n        /* \"#utility.yul\":4462:4465   */\n      dup6\n        /* \"#utility.yul\":4458:4472   */\n      add\n        /* \"#utility.yul\":4444:4456   */\n      dup3\n        /* \"#utility.yul\":4410:4473   */\n      tag_184\n      jump\t// in\n    tag_249:\n        /* \"#utility.yul\":4318:4483   */\n      pop\n        /* \"#utility.yul\":4570:4574   */\n      0x40\n        /* \"#utility.yul\":4563:4568   */\n      dup3\n        /* \"#utility.yul\":4559:4575   */\n      add\n        /* \"#utility.yul\":4553:4576   */\n      mload\n        /* \"#utility.yul\":4589:4652   */\n      tag_250\n        /* \"#utility.yul\":4646:4650   */\n      0x40\n        /* \"#utility.yul\":4641:4644   */\n      dup6\n        /* \"#utility.yul\":4637:4651   */\n      add\n        /* \"#utility.yul\":4623:4635   */\n      dup3\n        /* \"#utility.yul\":4589:4652   */\n      tag_184\n      jump\t// in\n    tag_250:\n        /* \"#utility.yul\":4493:4662   */\n      pop\n        /* \"#utility.yul\":4078:4669   */\n      pop\n        /* \"#utility.yul\":3982:4669   */\n      pop\n      pop\n      jump\t// out\n        /* \"#utility.yul\":4675:4934   */\n    tag_200:\n        /* \"#utility.yul\":4784:4794   */\n      0x00\n        /* \"#utility.yul\":4805:4891   */\n      tag_252\n        /* \"#utility.yul\":4887:4890   */\n      dup4\n        /* \"#utility.yul\":4879:4885   */\n      dup4\n        /* \"#utility.yul\":4805:4891   */\n      tag_199\n      jump\t// in\n    tag_252:\n        /* \"#utility.yul\":4923:4927   */\n      0x60\n        /* \"#utility.yul\":4918:4921   */\n      dup4\n        /* \"#utility.yul\":4914:4928   */\n      add\n        /* \"#utility.yul\":4900:4928   */\n      swap1\n      pop\n        /* \"#utility.yul\":4675:4934   */\n      swap3\n      swap2\n      pop\n      pop\n      jump\t// out\n        /* \"#utility.yul\":4940:5073   */\n    tag_201:\n        /* \"#utility.yul\":5030:5034   */\n      0x00\n        /* \"#utility.yul\":5062:5066   */\n      0x20\n        /* \"#utility.yul\":5057:5060   */\n      dup3\n        /* \"#utility.yul\":5053:5067   */\n      add\n        /* \"#utility.yul\":5045:5067   */\n      swap1\n      pop\n        /* \"#utility.yul\":4940:5073   */\n      swap2\n      swap1\n      pop\n      jump\t// out\n        /* \"#utility.yul\":5139:6031   */\n    tag_202:\n        /* \"#utility.yul\":5298:5301   */\n      0x00\n        /* \"#utility.yul\":5327:5401   */\n      tag_255\n        /* \"#utility.yul\":5395:5400   */\n      dup3\n        /* \"#utility.yul\":5327:5401   */\n      tag_193\n      jump\t// in\n    tag_255:\n        /* \"#utility.yul\":5417:5523   */\n      tag_256\n        /* \"#utility.yul\":5516:5522   */\n      dup2\n        /* \"#utility.yul\":5511:5514   */\n      dup6\n        /* \"#utility.yul\":5417:5523   */\n      tag_194\n      jump\t// in\n    tag_256:\n        /* \"#utility.yul\":5410:5523   */\n      swap4\n      pop\n        /* \"#utility.yul\":5547:5623   */\n      tag_257\n        /* \"#utility.yul\":5617:5622   */\n      dup4\n        /* \"#utility.yul\":5547:5623   */\n      tag_195\n      jump\t// in\n    tag_257:\n        /* \"#utility.yul\":5646:5653   */\n      dup1\n        /* \"#utility.yul\":5677:5678   */\n      0x00\n        /* \"#utility.yul\":5662:6006   */\n    tag_258:\n        /* \"#utility.yul\":5687:5693   */\n      dup4\n        /* \"#utility.yul\":5684:5685   */\n      dup2\n        /* \"#utility.yul\":5681:5694   */\n      lt\n        /* \"#utility.yul\":5662:6006   */\n      iszero\n      tag_260\n      jumpi\n        /* \"#utility.yul\":5763:5769   */\n      dup2\n        /* \"#utility.yul\":5757:5770   */\n      mload\n        /* \"#utility.yul\":5790:5893   */\n      tag_261\n        /* \"#utility.yul\":5889:5892   */\n      dup9\n        /* \"#utility.yul\":5874:5887   */\n      dup3\n        /* \"#utility.yul\":5790:5893   */\n      tag_200\n      jump\t// in\n    tag_261:\n        /* \"#utility.yul\":5783:5893   */\n      swap8\n      pop\n        /* \"#utility.yul\":5916:5996   */\n      tag_262\n        /* \"#utility.yul\":5989:5995   */\n      dup4\n        /* \"#utility.yul\":5916:5996   */\n      tag_201\n      jump\t// in\n    tag_262:\n        /* \"#utility.yul\":5906:5996   */\n      swap3\n      pop\n        /* \"#utility.yul\":5722:6006   */\n      pop\n        /* \"#utility.yul\":5709:5710   */\n      0x01\n        /* \"#utility.yul\":5706:5707   */\n      dup2\n        /* \"#utility.yul\":5702:5711   */\n      add\n        /* \"#utility.yul\":5697:5711   */\n      swap1\n      pop\n        /* \"#utility.yul\":5662:6006   */\n      jump(tag_258)\n    tag_260:\n        /* \"#utility.yul\":5666:5680   */\n      pop\n        /* \"#utility.yul\":6022:6025   */\n      dup6\n        /* \"#utility.yul\":6015:6025   */\n      swap4\n      pop\n        /* \"#utility.yul\":5303:6031   */\n      pop\n      pop\n      pop\n        /* \"#utility.yul\":5139:6031   */\n      swap3\n      swap2\n      pop\n      pop\n      jump\t// out\n        /* \"#utility.yul\":6037:6490   */\n    tag_22:\n        /* \"#utility.yul\":6220:6224   */\n      0x00\n        /* \"#utility.yul\":6258:6260   */\n      0x20\n        /* \"#utility.yul\":6247:6256   */\n      dup3\n        /* \"#utility.yul\":6243:6261   */\n      add\n        /* \"#utility.yul\":6235:6261   */\n      swap1\n      pop\n        /* \"#utility.yul\":6307:6316   */\n      dup2\n        /* \"#utility.yul\":6301:6305   */\n      dup2\n        /* \"#utility.yul\":6297:6317   */\n      sub\n        /* \"#utility.yul\":6293:6294   */\n      0x00\n        /* \"#utility.yul\":6282:6291   */\n      dup4\n        /* \"#utility.yul\":6278:6295   */\n      add\n        /* \"#utility.yul\":6271:6318   */\n      mstore\n        /* \"#utility.yul\":6335:6483   */\n      tag_264\n        /* \"#utility.yul\":6478:6482   */\n      dup2\n        /* \"#utility.yul\":6469:6475   */\n      dup5\n        /* \"#utility.yul\":6335:6483   */\n      tag_202\n      jump\t// in\n    tag_264:\n        /* \"#utility.yul\":6327:6483   */\n      swap1\n      pop\n        /* \"#utility.yul\":6037:6490   */\n      swap3\n      swap2\n      pop\n      pop\n      jump\t// out\n        /* \"#utility.yul\":6496:6676   */\n    tag_43:\n        /* \"#utility.yul\":6544:6621   */\n      0x4e487b7100000000000000000000000000000000000000000000000000000000\n        /* \"#utility.yul\":6541:6542   */\n      0x00\n        /* \"#utility.yul\":6534:6622   */\n      mstore\n        /* \"#utility.yul\":6641:6645   */\n      0x32\n        /* \"#utility.yul\":6638:6639   */\n      0x04\n        /* \"#utility.yul\":6631:6646   */\n      mstore\n        /* \"#utility.yul\":6665:6669   */\n      0x24\n        /* \"#utility.yul\":6662:6663   */\n      0x00\n        /* \"#utility.yul\":6655:6670   */\n      revert\n        /* \"#utility.yul\":6682:6862   */\n    tag_203:\n        /* \"#utility.yul\":6730:6807   */\n      0x4e487b7100000000000000000000000000000000000000000000000000000000\n        /* \"#utility.yul\":6727:6728   */\n      0x00\n        /* \"#utility.yul\":6720:6808   */\n      mstore\n        /* \"#utility.yul\":6827:6831   */\n      0x11\n        /* \"#utility.yul\":6824:6825   */\n      0x04\n        /* \"#utility.yul\":6817:6832   */\n      mstore\n        /* \"#utility.yul\":6851:6855   */\n      0x24\n        /* \"#utility.yul\":6848:6849   */\n      0x00\n        /* \"#utility.yul\":6841:6856   */\n      revert\n        /* \"#utility.yul\":6868:7101   */\n    tag_48:\n        /* \"#utility.yul\":6907:6910   */\n      0x00\n        /* \"#utility.yul\":6930:6954   */\n      tag_268\n        /* \"#utility.yul\":6948:6953   */\n      dup3\n        /* \"#utility.yul\":6930:6954   */\n      tag_183\n      jump\t// in\n    tag_268:\n        /* \"#utility.yul\":6921:6954   */\n      swap2\n      pop\n        /* \"#utility.yul\":6976:7042   */\n      0xffffffffffffffffffffffffffffffffffffffffffffffffffffffffffffffff\n        /* \"#utility.yul\":6969:6974   */\n      dup3\n        /* \"#utility.yul\":6966:7043   */\n      sub\n        /* \"#utility.yul\":6963:7066   */\n      tag_269\n      jumpi\n        /* \"#utility.yul\":7046:7064   */\n      tag_270\n      tag_203\n      jump\t// in\n    tag_270:\n        /* \"#utility.yul\":6963:7066   */\n    tag_269:\n        /* \"#utility.yul\":7093:7094   */\n      0x01\n        /* \"#utility.yul\":7086:7091   */\n      dup3\n        /* \"#utility.yul\":7082:7095   */\n      add\n        /* \"#utility.yul\":7075:7095   */\n      swap1\n      pop\n        /* \"#utility.yul\":6868:7101   */\n      swap2\n      swap1\n      pop\n      jump\t// out\n        /* \"#utility.yul\":7107:7298   */\n    tag_98:\n        /* \"#utility.yul\":7147:7151   */\n      0x00\n        /* \"#utility.yul\":7167:7187   */\n      tag_272\n        /* \"#utility.yul\":7185:7186   */\n      dup3\n        /* \"#utility.yul\":7167:7187   */\n      tag_183\n      jump\t// in\n    tag_272:\n        /* \"#utility.yul\":7162:7187   */\n      swap2\n      pop\n        /* \"#utility.yul\":7201:7221   */\n      tag_273\n        /* \"#utility.yul\":7219:7220   */\n      dup4\n        /* \"#utility.yul\":7201:7221   */\n      tag_183\n      jump\t// in\n    tag_273:\n        /* \"#utility.yul\":7196:7221   */\n      swap3\n      pop\n        /* \"#utility.yul\":7240:7241   */\n      dup3\n        /* \"#utility.yul\":7237:7238   */\n      dup3\n        /* \"#utility.yul\":7234:7242   */\n      lt\n        /* \"#utility.yul\":7231:7265   */\n      iszero\n      tag_274\n      jumpi\n        /* \"#utility.yul\":7245:7263   */\n      tag_275\n      tag_203\n      jump\t// in\n    tag_275:\n        /* \"#utility.yul\":7231:7265   */\n    tag_274:\n        /* \"#utility.yul\":7290:7291   */\n      dup3\n        /* \"#utility.yul\":7287:7288   */\n      dup3\n        /* \"#utility.yul\":7283:7292   */\n      sub\n        /* \"#utility.yul\":7275:7292   */\n      swap1\n      pop\n        /* \"#utility.yul\":7107:7298   */\n      swap3\n      swap2\n      pop\n      pop\n      jump\t// out\n        /* \"#utility.yul\":7304:7380   */\n    tag_204:\n        /* \"#utility.yul\":7340:7347   */\n      0x00\n        /* \"#utility.yul\":7369:7374   */\n      dup2\n        /* \"#utility.yul\":7358:7374   */\n      swap1\n      pop\n        /* \"#utility.yul\":7304:7380   */\n      swap2\n      swap1\n      pop\n      jump\t// out\n        /* \"#utility.yul\":7386:7913   */\n    tag_110:\n        /* \"#utility.yul\":7425:7429   */\n      0x00\n        /* \"#utility.yul\":7445:7464   */\n      tag_278\n        /* \"#utility.yul\":7462:7463   */\n      dup3\n        /* \"#utility.yul\":7445:7464   */\n      tag_204\n      jump\t// in\n    tag_278:\n        /* \"#utility.yul\":7440:7464   */\n      swap2\n      pop\n        /* \"#utility.yul\":7478:7497   */\n      tag_279\n        /* \"#utility.yul\":7495:7496   */\n      dup4\n        /* \"#utility.yul\":7478:7497   */\n      tag_204\n      jump\t// in\n    tag_279:\n        /* \"#utility.yul\":7473:7497   */\n      swap3\n      pop\n        /* \"#utility.yul\":7667:7668   */\n      dup3\n        /* \"#utility.yul\":7599:7665   */\n      0x8000000000000000000000000000000000000000000000000000000000000000\n        /* \"#utility.yul\":7595:7669   */\n      add\n        /* \"#utility.yul\":7592:7593   */\n      dup3\n        /* \"#utility.yul\":7588:7670   */\n      slt\n        /* \"#utility.yul\":7583:7584   */\n      0x00\n        /* \"#utility.yul\":7580:7581   */\n      dup5\n        /* \"#utility.yul\":7576:7585   */\n      slt\n        /* \"#utility.yul\":7569:7586   */\n      iszero\n        /* \"#utility.yul\":7565:7671   */\n      and\n        /* \"#utility.yul\":7562:7694   */\n      iszero\n      tag_280\n      jumpi\n        /* \"#utility.yul\":7674:7692   */\n      tag_281\n      tag_203\n      jump\t// in\n    tag_281:\n        /* \"#utility.yul\":7562:7694   */\n    tag_280:\n        /* \"#utility.yul\":7853:7854   */\n      dup3\n        /* \"#utility.yul\":7785:7851   */\n      0x7fffffffffffffffffffffffffffffffffffffffffffffffffffffffffffffff\n        /* \"#utility.yul\":7781:7855   */\n      add\n        /* \"#utility.yul\":7778:7779   */\n      dup3\n        /* \"#utility.yul\":7774:7856   */\n      sgt\n        /* \"#utility.yul\":7770:7771   */\n      0x00\n        /* \"#utility.yul\":7767:7768   */\n      dup5\n        /* \"#utility.yul\":7763:7772   */\n      slt\n        /* \"#utility.yul\":7759:7857   */\n      and\n        /* \"#utility.yul\":7756:7880   */\n      iszero\n      tag_282\n      jumpi\n        /* \"#utility.yul\":7860:7878   */\n      tag_283\n      tag_203\n      jump\t// in\n    tag_283:\n        /* \"#utility.yul\":7756:7880   */\n    tag_282:\n        /* \"#utility.yul\":7905:7906   */\n      dup3\n        /* \"#utility.yul\":7902:7903   */\n      dup3\n        /* \"#utility.yul\":7898:7907   */\n      sub\n        /* \"#utility.yul\":7890:7907   */\n      swap1\n      pop\n        /* \"#utility.yul\":7386:7913   */\n      swap3\n      swap2\n      pop\n      pop\n      jump\t// out\n        /* \"#utility.yul\":7919:8099   */\n    tag_205:\n        /* \"#utility.yul\":7967:8044   */\n      0x4e487b7100000000000000000000000000000000000000000000000000000000\n        /* \"#utility.yul\":7964:7965   */\n      0x00\n        /* \"#utility.yul\":7957:8045   */\n      mstore\n        /* \"#utility.yul\":8064:8068   */\n      0x12\n        /* \"#utility.yul\":8061:8062   */\n      0x04\n        /* \"#utility.yul\":8054:8069   */\n      mstore\n        /* \"#utility.yul\":8088:8092   */\n      0x24\n        /* \"#utility.yul\":8085:8086   */\n      0x00\n        /* \"#utility.yul\":8078:8093   */\n      revert\n        /* \"#utility.yul\":8105:8490   */\n    tag_112:\n        /* \"#utility.yul\":8144:8145   */\n      0x00\n        /* \"#utility.yul\":8161:8180   */\n      tag_286\n        /* \"#utility.yul\":8178:8179   */\n      dup3\n        /* \"#utility.yul\":8161:8180   */\n      tag_204\n      jump\t// in\n    tag_286:\n        /* \"#utility.yul\":8156:8180   */\n      swap2\n      pop\n        /* \"#utility.yul\":8194:8213   */\n      tag_287\n        /* \"#utility.yul\":8211:8212   */\n      dup4\n        /* \"#utility.yul\":8194:8213   */\n      tag_204\n      jump\t// in\n    tag_287:\n        /* \"#utility.yul\":8189:8213   */\n      swap3\n      pop\n        /* \"#utility.yul\":8232:8233   */\n      dup3\n        /* \"#utility.yul\":8222:8257   */\n      tag_288\n      jumpi\n        /* \"#utility.yul\":8237:8255   */\n      tag_289\n      tag_205\n      jump\t// in\n    tag_289:\n        /* \"#utility.yul\":8222:8257   */\n    tag_288:\n        /* \"#utility.yul\":8423:8424   */\n      0x01\n        /* \"#utility.yul\":8420:8421   */\n      0x00\n        /* \"#utility.yul\":8416:8425   */\n      sub\n        /* \"#utility.yul\":8413:8414   */\n      dup4\n        /* \"#utility.yul\":8410:8426   */\n      eq\n        /* \"#utility.yul\":8329:8395   */\n      0x8000000000000000000000000000000000000000000000000000000000000000\n        /* \"#utility.yul\":8326:8327   */\n      dup4\n        /* \"#utility.yul\":8323:8396   */\n      eq\n        /* \"#utility.yul\":8306:8436   */\n      and\n        /* \"#utility.yul\":8303:8459   */\n      iszero\n      tag_290\n      jumpi\n        /* \"#utility.yul\":8439:8457   */\n      tag_291\n      tag_203\n      jump\t// in\n    tag_291:\n        /* \"#utility.yul\":8303:8459   */\n    tag_290:\n        /* \"#utility.yul\":8482:8483   */\n      dup3\n        /* \"#utility.yul\":8479:8480   */\n      dup3\n        /* \"#utility.yul\":8474:8484   */\n      sdiv\n        /* \"#utility.yul\":8469:8484   */\n      swap1\n      pop\n        /* \"#utility.yul\":8105:8490   */\n      swap3\n      swap2\n      pop\n      pop\n      jump\t// out\n        /* \"#utility.yul\":8496:9021   */\n    tag_114:\n        /* \"#utility.yul\":8535:8538   */\n      0x00\n        /* \"#utility.yul\":8554:8573   */\n      tag_293\n        /* \"#utility.yul\":8571:8572   */\n      dup3\n        /* \"#utility.yul\":8554:8573   */\n      tag_204\n      jump\t// in\n    tag_293:\n        /* \"#utility.yul\":8549:8573   */\n      swap2\n      pop\n        /* \"#utility.yul\":8587:8606   */\n      tag_294\n        /* \"#utility.yul\":8604:8605   */\n      dup4\n        /* \"#utility.yul\":8587:8606   */\n      tag_204\n      jump\t// in\n    tag_294:\n        /* \"#utility.yul\":8582:8606   */\n      swap3\n      pop\n        /* \"#utility.yul\":8775:8776   */\n      dup2\n        /* \"#utility.yul\":8707:8773   */\n      0x7fffffffffffffffffffffffffffffffffffffffffffffffffffffffffffffff\n        /* \"#utility.yul\":8703:8777   */\n      sub\n        /* \"#utility.yul\":8700:8701   */\n      dup4\n        /* \"#utility.yul\":8696:8778   */\n      sgt\n        /* \"#utility.yul\":8691:8692   */\n      0x00\n        /* \"#utility.yul\":8688:8689   */\n      dup4\n        /* \"#utility.yul\":8684:8693   */\n      slt\n        /* \"#utility.yul\":8677:8694   */\n      iszero\n        /* \"#utility.yul\":8673:8779   */\n      and\n        /* \"#utility.yul\":8670:8802   */\n      iszero\n      tag_295\n      jumpi\n        /* \"#utility.yul\":8782:8800   */\n      tag_296\n      tag_203\n      jump\t// in\n    tag_296:\n        /* \"#utility.yul\":8670:8802   */\n    tag_295:\n        /* \"#utility.yul\":8962:8963   */\n      dup2\n        /* \"#utility.yul\":8894:8960   */\n      0x8000000000000000000000000000000000000000000000000000000000000000\n        /* \"#utility.yul\":8890:8964   */\n      sub\n        /* \"#utility.yul\":8887:8888   */\n      dup4\n        /* \"#utility.yul\":8883:8965   */\n      slt\n        /* \"#utility.yul\":8879:8880   */\n      0x00\n        /* \"#utility.yul\":8876:8877   */\n      dup4\n        /* \"#utility.yul\":8872:8881   */\n      slt\n        /* \"#utility.yul\":8868:8966   */\n      and\n        /* \"#utility.yul\":8865:8989   */\n      iszero\n      tag_297\n      jumpi\n        /* \"#utility.yul\":8969:8987   */\n      tag_298\n      tag_203\n      jump\t// in\n    tag_298:\n        /* \"#utility.yul\":8865:8989   */\n    tag_297:\n        /* \"#utility.yul\":9013:9014   */\n      dup3\n        /* \"#utility.yul\":9010:9011   */\n      dup3\n        /* \"#utility.yul\":9006:9015   */\n      add\n        /* \"#utility.yul\":8999:9015   */\n      swap1\n      pop\n        /* \"#utility.yul\":8496:9021   */\n      swap3\n      swap2\n      pop\n      pop\n      jump\t// out\n        /* \"#utility.yul\":9027:9258   */\n    tag_124:\n        /* \"#utility.yul\":9065:9068   */\n      0x00\n        /* \"#utility.yul\":9088:9111   */\n      tag_300\n        /* \"#utility.yul\":9105:9110   */\n      dup3\n        /* \"#utility.yul\":9088:9111   */\n      tag_204\n      jump\t// in\n    tag_300:\n        /* \"#utility.yul\":9079:9111   */\n      swap2\n      pop\n        /* \"#utility.yul\":9133:9199   */\n      0x7fffffffffffffffffffffffffffffffffffffffffffffffffffffffffffffff\n        /* \"#utility.yul\":9126:9131   */\n      dup3\n        /* \"#utility.yul\":9123:9200   */\n      sub\n        /* \"#utility.yul\":9120:9223   */\n      tag_301\n      jumpi\n        /* \"#utility.yul\":9203:9221   */\n      tag_302\n      tag_203\n      jump\t// in\n    tag_302:\n        /* \"#utility.yul\":9120:9223   */\n    tag_301:\n        /* \"#utility.yul\":9250:9251   */\n      0x01\n        /* \"#utility.yul\":9243:9248   */\n      dup3\n        /* \"#utility.yul\":9239:9252   */\n      add\n        /* \"#utility.yul\":9232:9252   */\n      swap1\n      pop\n        /* \"#utility.yul\":9027:9258   */\n      swap2\n      swap1\n      pop\n      jump\t// out\n        /* \"#utility.yul\":9264:9495   */\n    tag_130:\n        /* \"#utility.yul\":9302:9305   */\n      0x00\n        /* \"#utility.yul\":9325:9348   */\n      tag_304\n        /* \"#utility.yul\":9342:9347   */\n      dup3\n        /* \"#utility.yul\":9325:9348   */\n      tag_204\n      jump\t// in\n    tag_304:\n        /* \"#utility.yul\":9316:9348   */\n      swap2\n      pop\n        /* \"#utility.yul\":9370:9436   */\n      0x8000000000000000000000000000000000000000000000000000000000000000\n        /* \"#utility.yul\":9363:9368   */\n      dup3\n        /* \"#utility.yul\":9360:9437   */\n      sub\n        /* \"#utility.yul\":9357:9460   */\n      tag_305\n      jumpi\n        /* \"#utility.yul\":9440:9458   */\n      tag_306\n      tag_203\n      jump\t// in\n    tag_306:\n        /* \"#utility.yul\":9357:9460   */\n    tag_305:\n        /* \"#utility.yul\":9487:9488   */\n      0x01\n        /* \"#utility.yul\":9480:9485   */\n      dup3\n        /* \"#utility.yul\":9476:9489   */\n      sub\n        /* \"#utility.yul\":9469:9489   */\n      swap1\n      pop\n        /* \"#utility.yul\":9264:9495   */\n      swap2\n      swap1\n      pop\n      jump\t// out\n\n    auxdata: 0xa26469706673582212206481d49660208ac235200abc7676b28f461b8e751a4a068db79df38d55d4ea2364736f6c634300080d0033\n}\n",
				"bytecode": {
					"linkReferences": {},
					"object": "608060405234801561001057600080fd5b5061120c806100206000396000f3fe608060405234801561001057600080fd5b506004361061007d5760003560e01c806378c5b2681161005b57806378c5b268146100da5780639703ef35146100f65780639979ef4514610112578063ce0cdc871461012e5761007d565b8063122de8f2146100825780631628e0f5146100a05780634471417f146100bc575b600080fd5b61008a61014c565b6040516100979190610ccd565b60405180910390f35b6100ba60048036038101906100b59190610d20565b610272565b005b6100c46102d9565b6040516100d19190610e7f565b60405180910390f35b6100f460048036038101906100ef9190610d20565b6103a2565b005b610110600480360381019061010b9190610d20565b610464565b005b61012c60048036038101906101279190610d20565b6104cb565b005b61013661058d565b6040516101439190610ccd565b60405180910390f35b60606101566106b3565b60005b60018054905081101561021b573373ffffffffffffffffffffffffffffffffffffffff166001828154811061019157610190610ea1565b5b906000526020600020906003020160000160009054906101000a900473ffffffffffffffffffffffffffffffffffffffff1673ffffffffffffffffffffffffffffffffffffffff16036102085760028190806001815401808255809150506001900390600052602060002001600090919091909150555b808061021390610eff565b915050610159565b50600280548060200260200160405190810160405280929190818152602001828054801561026857602002820191906000526020600020905b815481526020019060010190808311610254575b5050505050905090565b6001818154811061028657610285610ea1565b5b9060005260206000209060030201600080820160006101000a81549073ffffffffffffffffffffffffffffffffffffffff02191690556001820160009055600282016000905550506102d66106fb565b50565b60606000805480602002602001604051908101604052809291908181526020016000905b8282101561039957838290600052602060002090600302016040518060600160405290816000820160009054906101000a900473ffffffffffffffffffffffffffffffffffffffff1673ffffffffffffffffffffffffffffffffffffffff1673ffffffffffffffffffffffffffffffffffffffff16815260200160018201548152602001600282015481525050815260200190600101906102fd565b50505050905090565b600060405180606001604052803373ffffffffffffffffffffffffffffffffffffffff168152602001838152602001428152509050600181908060018154018082558091505060019003906000526020600020906003020160009091909190915060008201518160000160006101000a81548173ffffffffffffffffffffffffffffffffffffffff021916908373ffffffffffffffffffffffffffffffffffffffff160217905550602082015181600101556040820151816002015550505050565b6000818154811061047857610477610ea1565b5b9060005260206000209060030201600080820160006101000a81549073ffffffffffffffffffffffffffffffffffffffff02191690556001820160009055600282016000905550506104c86107db565b50565b600060405180606001604052803373ffffffffffffffffffffffffffffffffffffffff168152602001838152602001428152509050600081908060018154018082558091505060019003906000526020600020906003020160009091909190915060008201518160000160006101000a81548173ffffffffffffffffffffffffffffffffffffffff021916908373ffffffffffffffffffffffffffffffffffffffff160217905550602082015181600101556040820151816002015550505050565b60606105976106b3565b60005b60008054905081101561065c573373ffffffffffffffffffffffffffffffffffffffff16600082815481106105d2576105d1610ea1565b5b906000526020600020906003020160000160009054906101000a900473ffffffffffffffffffffffffffffffffffffffff1673ffffffffffffffffffffffffffffffffffffffff16036106495760028190806001815401808255809150506001900390600052602060002001600090919091909150555b808061065490610eff565b91505061059a565b5060028054806020026020016040519081016040528092919081815260200182805480156106a957602002820191906000526020600020905b815481526020019060010190808311610695575b5050505050905090565b60005b6002805490508110156106f857600281815481106106d7576106d6610ea1565b5b906000526020600020016000905580806106f090610eff565b9150506106b6565b50565b6107d96000805480602002602001604051908101604052809291908181526020016000905b828210156107bc57838290600052602060002090600302016040518060600160405290816000820160009054906101000a900473ffffffffffffffffffffffffffffffffffffffff1673ffffffffffffffffffffffffffffffffffffffff1673ffffffffffffffffffffffffffffffffffffffff1681526020016001820154815260200160028201548152505081526020019060010190610720565b50505050600060016000805490506107d49190610f47565b6108bb565b565b6108b96000805480602002602001604051908101604052809291908181526020016000905b8282101561089c57838290600052602060002090600302016040518060600160405290816000820160009054906101000a900473ffffffffffffffffffffffffffffffffffffffff1673ffffffffffffffffffffffffffffffffffffffff1673ffffffffffffffffffffffffffffffffffffffff1681526020016001820154815260200160028201548152505081526020019060010190610800565b50505050600060016000805490506108b49190610f47565b610a60565b565b600082905060008290508082036108d3575050610a5b565b600085600286866108e49190610f85565b6108ee9190611048565b866108f991906110b2565b8151811061090a57610909610ea1565b5b60200260200101516040015190505b818313610a2f575b8086848151811061093557610934610ea1565b5b602002602001015160400151111561095a57828061095290611146565b935050610921565b5b85828151811061096e5761096d610ea1565b5b60200260200101516040015181111561099457818061098c9061118e565b92505061095b565b818313610a2a578582815181106109ae576109ad610ea1565b5b60200260200101518684815181106109c9576109c8610ea1565b5b60200260200101518785815181106109e4576109e3610ea1565b5b602002602001018885815181106109fe576109fd610ea1565b5b6020026020010182905282905250508280610a1890611146565b9350508180610a269061118e565b9250505b610919565b81851215610a4357610a428686846108bb565b5b83831215610a5757610a568684866108bb565b5b5050505b505050565b60008290506000829050808203610a78575050610c00565b60008560028686610a899190610f85565b610a939190611048565b86610a9e91906110b2565b81518110610aaf57610aae610ea1565b5b60200260200101516040015190505b818313610bd4575b80868481518110610ada57610ad9610ea1565b5b6020026020010151604001511015610aff578280610af790611146565b935050610ac6565b5b858281518110610b1357610b12610ea1565b5b602002602001015160400151811015610b39578180610b319061118e565b925050610b00565b818313610bcf57858281518110610b5357610b52610ea1565b5b6020026020010151868481518110610b6e57610b6d610ea1565b5b6020026020010151878581518110610b8957610b88610ea1565b5b60200260200101888581518110610ba357610ba2610ea1565b5b6020026020010182905282905250508280610bbd90611146565b9350508180610bcb9061118e565b9250505b610abe565b81851215610be857610be7868684610a60565b5b83831215610bfc57610bfb868486610a60565b5b5050505b505050565b600081519050919050565b600082825260208201905092915050565b6000819050602082019050919050565b6000819050919050565b610c4481610c31565b82525050565b6000610c568383610c3b565b60208301905092915050565b6000602082019050919050565b6000610c7a82610c05565b610c848185610c10565b9350610c8f83610c21565b8060005b83811015610cc0578151610ca78882610c4a565b9750610cb283610c62565b925050600181019050610c93565b5085935050505092915050565b60006020820190508181036000830152610ce78184610c6f565b905092915050565b600080fd5b610cfd81610c31565b8114610d0857600080fd5b50565b600081359050610d1a81610cf4565b92915050565b600060208284031215610d3657610d35610cef565b5b6000610d4484828501610d0b565b91505092915050565b600081519050919050565b600082825260208201905092915050565b6000819050602082019050919050565b600073ffffffffffffffffffffffffffffffffffffffff82169050919050565b6000610da482610d79565b9050919050565b610db481610d99565b82525050565b606082016000820151610dd06000850182610dab565b506020820151610de36020850182610c3b565b506040820151610df66040850182610c3b565b50505050565b6000610e088383610dba565b60608301905092915050565b6000602082019050919050565b6000610e2c82610d4d565b610e368185610d58565b9350610e4183610d69565b8060005b83811015610e72578151610e598882610dfc565b9750610e6483610e14565b925050600181019050610e45565b5085935050505092915050565b60006020820190508181036000830152610e998184610e21565b905092915050565b7f4e487b7100000000000000000000000000000000000000000000000000000000600052603260045260246000fd5b7f4e487b7100000000000000000000000000000000000000000000000000000000600052601160045260246000fd5b6000610f0a82610c31565b91507fffffffffffffffffffffffffffffffffffffffffffffffffffffffffffffffff8203610f3c57610f3b610ed0565b5b600182019050919050565b6000610f5282610c31565b9150610f5d83610c31565b925082821015610f7057610f6f610ed0565b5b828203905092915050565b6000819050919050565b6000610f9082610f7b565b9150610f9b83610f7b565b9250827f800000000000000000000000000000000000000000000000000000000000000001821260008412151615610fd657610fd5610ed0565b5b827f7fffffffffffffffffffffffffffffffffffffffffffffffffffffffffffffff01821360008412161561100e5761100d610ed0565b5b828203905092915050565b7f4e487b7100000000000000000000000000000000000000000000000000000000600052601260045260246000fd5b600061105382610f7b565b915061105e83610f7b565b92508261106e5761106d611019565b5b600160000383147f8000000000000000000000000000000000000000000000000000000000000000831416156110a7576110a6610ed0565b5b828205905092915050565b60006110bd82610f7b565b91506110c883610f7b565b9250817f7fffffffffffffffffffffffffffffffffffffffffffffffffffffffffffffff0383136000831215161561110357611102610ed0565b5b817f800000000000000000000000000000000000000000000000000000000000000003831260008312161561113b5761113a610ed0565b5b828201905092915050565b600061115182610f7b565b91507f7fffffffffffffffffffffffffffffffffffffffffffffffffffffffffffffff820361118357611182610ed0565b5b600182019050919050565b600061119982610f7b565b91507f800000000000000000000000000000000000000000000000000000000000000082036111cb576111ca610ed0565b5b60018203905091905056fea26469706673582212206481d49660208ac235200abc7676b28f461b8e751a4a068db79df38d55d4ea2364736f6c634300080d0033",
					"opcodes": "PUSH1 0x80 PUSH1 0x40 MSTORE CALLVALUE DUP1 ISZERO PUSH2 0x10 JUMPI PUSH1 0x0 DUP1 REVERT JUMPDEST POP PUSH2 0x120C DUP1 PUSH2 0x20 PUSH1 0x0 CODECOPY PUSH1 0x0 RETURN INVALID PUSH1 0x80 PUSH1 0x40 MSTORE CALLVALUE DUP1 ISZERO PUSH2 0x10 JUMPI PUSH1 0x0 DUP1 REVERT JUMPDEST POP PUSH1 0x4 CALLDATASIZE LT PUSH2 0x7D JUMPI PUSH1 0x0 CALLDATALOAD PUSH1 0xE0 SHR DUP1 PUSH4 0x78C5B268 GT PUSH2 0x5B JUMPI DUP1 PUSH4 0x78C5B268 EQ PUSH2 0xDA JUMPI DUP1 PUSH4 0x9703EF35 EQ PUSH2 0xF6 JUMPI DUP1 PUSH4 0x9979EF45 EQ PUSH2 0x112 JUMPI DUP1 PUSH4 0xCE0CDC87 EQ PUSH2 0x12E JUMPI PUSH2 0x7D JUMP JUMPDEST DUP1 PUSH4 0x122DE8F2 EQ PUSH2 0x82 JUMPI DUP1 PUSH4 0x1628E0F5 EQ PUSH2 0xA0 JUMPI DUP1 PUSH4 0x4471417F EQ PUSH2 0xBC JUMPI JUMPDEST PUSH1 0x0 DUP1 REVERT JUMPDEST PUSH2 0x8A PUSH2 0x14C JUMP JUMPDEST PUSH1 0x40 MLOAD PUSH2 0x97 SWAP2 SWAP1 PUSH2 0xCCD JUMP JUMPDEST PUSH1 0x40 MLOAD DUP1 SWAP2 SUB SWAP1 RETURN JUMPDEST PUSH2 0xBA PUSH1 0x4 DUP1 CALLDATASIZE SUB DUP2 ADD SWAP1 PUSH2 0xB5 SWAP2 SWAP1 PUSH2 0xD20 JUMP JUMPDEST PUSH2 0x272 JUMP JUMPDEST STOP JUMPDEST PUSH2 0xC4 PUSH2 0x2D9 JUMP JUMPDEST PUSH1 0x40 MLOAD PUSH2 0xD1 SWAP2 SWAP1 PUSH2 0xE7F JUMP JUMPDEST PUSH1 0x40 MLOAD DUP1 SWAP2 SUB SWAP1 RETURN JUMPDEST PUSH2 0xF4 PUSH1 0x4 DUP1 CALLDATASIZE SUB DUP2 ADD SWAP1 PUSH2 0xEF SWAP2 SWAP1 PUSH2 0xD20 JUMP JUMPDEST PUSH2 0x3A2 JUMP JUMPDEST STOP JUMPDEST PUSH2 0x110 PUSH1 0x4 DUP1 CALLDATASIZE SUB DUP2 ADD SWAP1 PUSH2 0x10B SWAP2 SWAP1 PUSH2 0xD20 JUMP JUMPDEST PUSH2 0x464 JUMP JUMPDEST STOP JUMPDEST PUSH2 0x12C PUSH1 0x4 DUP1 CALLDATASIZE SUB DUP2 ADD SWAP1 PUSH2 0x127 SWAP2 SWAP1 PUSH2 0xD20 JUMP JUMPDEST PUSH2 0x4CB JUMP JUMPDEST STOP JUMPDEST PUSH2 0x136 PUSH2 0x58D JUMP JUMPDEST PUSH1 0x40 MLOAD PUSH2 0x143 SWAP2 SWAP1 PUSH2 0xCCD JUMP JUMPDEST PUSH1 0x40 MLOAD DUP1 SWAP2 SUB SWAP1 RETURN JUMPDEST PUSH1 0x60 PUSH2 0x156 PUSH2 0x6B3 JUMP JUMPDEST PUSH1 0x0 JUMPDEST PUSH1 0x1 DUP1 SLOAD SWAP1 POP DUP2 LT ISZERO PUSH2 0x21B JUMPI CALLER PUSH20 0xFFFFFFFFFFFFFFFFFFFFFFFFFFFFFFFFFFFFFFFF AND PUSH1 0x1 DUP3 DUP2 SLOAD DUP2 LT PUSH2 0x191 JUMPI PUSH2 0x190 PUSH2 0xEA1 JUMP JUMPDEST JUMPDEST SWAP1 PUSH1 0x0 MSTORE PUSH1 0x20 PUSH1 0x0 KECCAK256 SWAP1 PUSH1 0x3 MUL ADD PUSH1 0x0 ADD PUSH1 0x0 SWAP1 SLOAD SWAP1 PUSH2 0x100 EXP SWAP1 DIV PUSH20 0xFFFFFFFFFFFFFFFFFFFFFFFFFFFFFFFFFFFFFFFF AND PUSH20 0xFFFFFFFFFFFFFFFFFFFFFFFFFFFFFFFFFFFFFFFF AND SUB PUSH2 0x208 JUMPI PUSH1 0x2 DUP2 SWAP1 DUP1 PUSH1 0x1 DUP2 SLOAD ADD DUP1 DUP3 SSTORE DUP1 SWAP2 POP POP PUSH1 0x1 SWAP1 SUB SWAP1 PUSH1 0x0 MSTORE PUSH1 0x20 PUSH1 0x0 KECCAK256 ADD PUSH1 0x0 SWAP1 SWAP2 SWAP1 SWAP2 SWAP1 SWAP2 POP SSTORE JUMPDEST DUP1 DUP1 PUSH2 0x213 SWAP1 PUSH2 0xEFF JUMP JUMPDEST SWAP2 POP POP PUSH2 0x159 JUMP JUMPDEST POP PUSH1 0x2 DUP1 SLOAD DUP1 PUSH1 0x20 MUL PUSH1 0x20 ADD PUSH1 0x40 MLOAD SWAP1 DUP2 ADD PUSH1 0x40 MSTORE DUP1 SWAP3 SWAP2 SWAP1 DUP2 DUP2 MSTORE PUSH1 0x20 ADD DUP3 DUP1 SLOAD DUP1 ISZERO PUSH2 0x268 JUMPI PUSH1 0x20 MUL DUP3 ADD SWAP2 SWAP1 PUSH1 0x0 MSTORE PUSH1 0x20 PUSH1 0x0 KECCAK256 SWAP1 JUMPDEST DUP2 SLOAD DUP2 MSTORE PUSH1 0x20 ADD SWAP1 PUSH1 0x1 ADD SWAP1 DUP1 DUP4 GT PUSH2 0x254 JUMPI JUMPDEST POP POP POP POP POP SWAP1 POP SWAP1 JUMP JUMPDEST PUSH1 0x1 DUP2 DUP2 SLOAD DUP2 LT PUSH2 0x286 JUMPI PUSH2 0x285 PUSH2 0xEA1 JUMP JUMPDEST JUMPDEST SWAP1 PUSH1 0x0 MSTORE PUSH1 0x20 PUSH1 0x0 KECCAK256 SWAP1 PUSH1 0x3 MUL ADD PUSH1 0x0 DUP1 DUP3 ADD PUSH1 0x0 PUSH2 0x100 EXP DUP2 SLOAD SWAP1 PUSH20 0xFFFFFFFFFFFFFFFFFFFFFFFFFFFFFFFFFFFFFFFF MUL NOT AND SWAP1 SSTORE PUSH1 0x1 DUP3 ADD PUSH1 0x0 SWAP1 SSTORE PUSH1 0x2 DUP3 ADD PUSH1 0x0 SWAP1 SSTORE POP POP PUSH2 0x2D6 PUSH2 0x6FB JUMP JUMPDEST POP JUMP JUMPDEST PUSH1 0x60 PUSH1 0x0 DUP1 SLOAD DUP1 PUSH1 0x20 MUL PUSH1 0x20 ADD PUSH1 0x40 MLOAD SWAP1 DUP2 ADD PUSH1 0x40 MSTORE DUP1 SWAP3 SWAP2 SWAP1 DUP2 DUP2 MSTORE PUSH1 0x20 ADD PUSH1 0x0 SWAP1 JUMPDEST DUP3 DUP3 LT ISZERO PUSH2 0x399 JUMPI DUP4 DUP3 SWAP1 PUSH1 0x0 MSTORE PUSH1 0x20 PUSH1 0x0 KECCAK256 SWAP1 PUSH1 0x3 MUL ADD PUSH1 0x40 MLOAD DUP1 PUSH1 0x60 ADD PUSH1 0x40 MSTORE SWAP1 DUP2 PUSH1 0x0 DUP3 ADD PUSH1 0x0 SWAP1 SLOAD SWAP1 PUSH2 0x100 EXP SWAP1 DIV PUSH20 0xFFFFFFFFFFFFFFFFFFFFFFFFFFFFFFFFFFFFFFFF AND PUSH20 0xFFFFFFFFFFFFFFFFFFFFFFFFFFFFFFFFFFFFFFFF AND PUSH20 0xFFFFFFFFFFFFFFFFFFFFFFFFFFFFFFFFFFFFFFFF AND DUP2 MSTORE PUSH1 0x20 ADD PUSH1 0x1 DUP3 ADD SLOAD DUP2 MSTORE PUSH1 0x20 ADD PUSH1 0x2 DUP3 ADD SLOAD DUP2 MSTORE POP POP DUP2 MSTORE PUSH1 0x20 ADD SWAP1 PUSH1 0x1 ADD SWAP1 PUSH2 0x2FD JUMP JUMPDEST POP POP POP POP SWAP1 POP SWAP1 JUMP JUMPDEST PUSH1 0x0 PUSH1 0x40 MLOAD DUP1 PUSH1 0x60 ADD PUSH1 0x40 MSTORE DUP1 CALLER PUSH20 0xFFFFFFFFFFFFFFFFFFFFFFFFFFFFFFFFFFFFFFFF AND DUP2 MSTORE PUSH1 0x20 ADD DUP4 DUP2 MSTORE PUSH1 0x20 ADD TIMESTAMP DUP2 MSTORE POP SWAP1 POP PUSH1 0x1 DUP2 SWAP1 DUP1 PUSH1 0x1 DUP2 SLOAD ADD DUP1 DUP3 SSTORE DUP1 SWAP2 POP POP PUSH1 0x1 SWAP1 SUB SWAP1 PUSH1 0x0 MSTORE PUSH1 0x20 PUSH1 0x0 KECCAK256 SWAP1 PUSH1 0x3 MUL ADD PUSH1 0x0 SWAP1 SWAP2 SWAP1 SWAP2 SWAP1 SWAP2 POP PUSH1 0x0 DUP3 ADD MLOAD DUP2 PUSH1 0x0 ADD PUSH1 0x0 PUSH2 0x100 EXP DUP2 SLOAD DUP2 PUSH20 0xFFFFFFFFFFFFFFFFFFFFFFFFFFFFFFFFFFFFFFFF MUL NOT AND SWAP1 DUP4 PUSH20 0xFFFFFFFFFFFFFFFFFFFFFFFFFFFFFFFFFFFFFFFF AND MUL OR SWAP1 SSTORE POP PUSH1 0x20 DUP3 ADD MLOAD DUP2 PUSH1 0x1 ADD SSTORE PUSH1 0x40 DUP3 ADD MLOAD DUP2 PUSH1 0x2 ADD SSTORE POP POP POP POP JUMP JUMPDEST PUSH1 0x0 DUP2 DUP2 SLOAD DUP2 LT PUSH2 0x478 JUMPI PUSH2 0x477 PUSH2 0xEA1 JUMP JUMPDEST JUMPDEST SWAP1 PUSH1 0x0 MSTORE PUSH1 0x20 PUSH1 0x0 KECCAK256 SWAP1 PUSH1 0x3 MUL ADD PUSH1 0x0 DUP1 DUP3 ADD PUSH1 0x0 PUSH2 0x100 EXP DUP2 SLOAD SWAP1 PUSH20 0xFFFFFFFFFFFFFFFFFFFFFFFFFFFFFFFFFFFFFFFF MUL NOT AND SWAP1 SSTORE PUSH1 0x1 DUP3 ADD PUSH1 0x0 SWAP1 SSTORE PUSH1 0x2 DUP3 ADD PUSH1 0x0 SWAP1 SSTORE POP POP PUSH2 0x4C8 PUSH2 0x7DB JUMP JUMPDEST POP JUMP JUMPDEST PUSH1 0x0 PUSH1 0x40 MLOAD DUP1 PUSH1 0x60 ADD PUSH1 0x40 MSTORE DUP1 CALLER PUSH20 0xFFFFFFFFFFFFFFFFFFFFFFFFFFFFFFFFFFFFFFFF AND DUP2 MSTORE PUSH1 0x20 ADD DUP4 DUP2 MSTORE PUSH1 0x20 ADD TIMESTAMP DUP2 MSTORE POP SWAP1 POP PUSH1 0x0 DUP2 SWAP1 DUP1 PUSH1 0x1 DUP2 SLOAD ADD DUP1 DUP3 SSTORE DUP1 SWAP2 POP POP PUSH1 0x1 SWAP1 SUB SWAP1 PUSH1 0x0 MSTORE PUSH1 0x20 PUSH1 0x0 KECCAK256 SWAP1 PUSH1 0x3 MUL ADD PUSH1 0x0 SWAP1 SWAP2 SWAP1 SWAP2 SWAP1 SWAP2 POP PUSH1 0x0 DUP3 ADD MLOAD DUP2 PUSH1 0x0 ADD PUSH1 0x0 PUSH2 0x100 EXP DUP2 SLOAD DUP2 PUSH20 0xFFFFFFFFFFFFFFFFFFFFFFFFFFFFFFFFFFFFFFFF MUL NOT AND SWAP1 DUP4 PUSH20 0xFFFFFFFFFFFFFFFFFFFFFFFFFFFFFFFFFFFFFFFF AND MUL OR SWAP1 SSTORE POP PUSH1 0x20 DUP3 ADD MLOAD DUP2 PUSH1 0x1 ADD SSTORE PUSH1 0x40 DUP3 ADD MLOAD DUP2 PUSH1 0x2 ADD SSTORE POP POP POP POP JUMP JUMPDEST PUSH1 0x60 PUSH2 0x597 PUSH2 0x6B3 JUMP JUMPDEST PUSH1 0x0 JUMPDEST PUSH1 0x0 DUP1 SLOAD SWAP1 POP DUP2 LT ISZERO PUSH2 0x65C JUMPI CALLER PUSH20 0xFFFFFFFFFFFFFFFFFFFFFFFFFFFFFFFFFFFFFFFF AND PUSH1 0x0 DUP3 DUP2 SLOAD DUP2 LT PUSH2 0x5D2 JUMPI PUSH2 0x5D1 PUSH2 0xEA1 JUMP JUMPDEST JUMPDEST SWAP1 PUSH1 0x0 MSTORE PUSH1 0x20 PUSH1 0x0 KECCAK256 SWAP1 PUSH1 0x3 MUL ADD PUSH1 0x0 ADD PUSH1 0x0 SWAP1 SLOAD SWAP1 PUSH2 0x100 EXP SWAP1 DIV PUSH20 0xFFFFFFFFFFFFFFFFFFFFFFFFFFFFFFFFFFFFFFFF AND PUSH20 0xFFFFFFFFFFFFFFFFFFFFFFFFFFFFFFFFFFFFFFFF AND SUB PUSH2 0x649 JUMPI PUSH1 0x2 DUP2 SWAP1 DUP1 PUSH1 0x1 DUP2 SLOAD ADD DUP1 DUP3 SSTORE DUP1 SWAP2 POP POP PUSH1 0x1 SWAP1 SUB SWAP1 PUSH1 0x0 MSTORE PUSH1 0x20 PUSH1 0x0 KECCAK256 ADD PUSH1 0x0 SWAP1 SWAP2 SWAP1 SWAP2 SWAP1 SWAP2 POP SSTORE JUMPDEST DUP1 DUP1 PUSH2 0x654 SWAP1 PUSH2 0xEFF JUMP JUMPDEST SWAP2 POP POP PUSH2 0x59A JUMP JUMPDEST POP PUSH1 0x2 DUP1 SLOAD DUP1 PUSH1 0x20 MUL PUSH1 0x20 ADD PUSH1 0x40 MLOAD SWAP1 DUP2 ADD PUSH1 0x40 MSTORE DUP1 SWAP3 SWAP2 SWAP1 DUP2 DUP2 MSTORE PUSH1 0x20 ADD DUP3 DUP1 SLOAD DUP1 ISZERO PUSH2 0x6A9 JUMPI PUSH1 0x20 MUL DUP3 ADD SWAP2 SWAP1 PUSH1 0x0 MSTORE PUSH1 0x20 PUSH1 0x0 KECCAK256 SWAP1 JUMPDEST DUP2 SLOAD DUP2 MSTORE PUSH1 0x20 ADD SWAP1 PUSH1 0x1 ADD SWAP1 DUP1 DUP4 GT PUSH2 0x695 JUMPI JUMPDEST POP POP POP POP POP SWAP1 POP SWAP1 JUMP JUMPDEST PUSH1 0x0 JUMPDEST PUSH1 0x2 DUP1 SLOAD SWAP1 POP DUP2 LT ISZERO PUSH2 0x6F8 JUMPI PUSH1 0x2 DUP2 DUP2 SLOAD DUP2 LT PUSH2 0x6D7 JUMPI PUSH2 0x6D6 PUSH2 0xEA1 JUMP JUMPDEST JUMPDEST SWAP1 PUSH1 0x0 MSTORE PUSH1 0x20 PUSH1 0x0 KECCAK256 ADD PUSH1 0x0 SWAP1 SSTORE DUP1 DUP1 PUSH2 0x6F0 SWAP1 PUSH2 0xEFF JUMP JUMPDEST SWAP2 POP POP PUSH2 0x6B6 JUMP JUMPDEST POP JUMP JUMPDEST PUSH2 0x7D9 PUSH1 0x0 DUP1 SLOAD DUP1 PUSH1 0x20 MUL PUSH1 0x20 ADD PUSH1 0x40 MLOAD SWAP1 DUP2 ADD PUSH1 0x40 MSTORE DUP1 SWAP3 SWAP2 SWAP1 DUP2 DUP2 MSTORE PUSH1 0x20 ADD PUSH1 0x0 SWAP1 JUMPDEST DUP3 DUP3 LT ISZERO PUSH2 0x7BC JUMPI DUP4 DUP3 SWAP1 PUSH1 0x0 MSTORE PUSH1 0x20 PUSH1 0x0 KECCAK256 SWAP1 PUSH1 0x3 MUL ADD PUSH1 0x40 MLOAD DUP1 PUSH1 0x60 ADD PUSH1 0x40 MSTORE SWAP1 DUP2 PUSH1 0x0 DUP3 ADD PUSH1 0x0 SWAP1 SLOAD SWAP1 PUSH2 0x100 EXP SWAP1 DIV PUSH20 0xFFFFFFFFFFFFFFFFFFFFFFFFFFFFFFFFFFFFFFFF AND PUSH20 0xFFFFFFFFFFFFFFFFFFFFFFFFFFFFFFFFFFFFFFFF AND PUSH20 0xFFFFFFFFFFFFFFFFFFFFFFFFFFFFFFFFFFFFFFFF AND DUP2 MSTORE PUSH1 0x20 ADD PUSH1 0x1 DUP3 ADD SLOAD DUP2 MSTORE PUSH1 0x20 ADD PUSH1 0x2 DUP3 ADD SLOAD DUP2 MSTORE POP POP DUP2 MSTORE PUSH1 0x20 ADD SWAP1 PUSH1 0x1 ADD SWAP1 PUSH2 0x720 JUMP JUMPDEST POP POP POP POP PUSH1 0x0 PUSH1 0x1 PUSH1 0x0 DUP1 SLOAD SWAP1 POP PUSH2 0x7D4 SWAP2 SWAP1 PUSH2 0xF47 JUMP JUMPDEST PUSH2 0x8BB JUMP JUMPDEST JUMP JUMPDEST PUSH2 0x8B9 PUSH1 0x0 DUP1 SLOAD DUP1 PUSH1 0x20 MUL PUSH1 0x20 ADD PUSH1 0x40 MLOAD SWAP1 DUP2 ADD PUSH1 0x40 MSTORE DUP1 SWAP3 SWAP2 SWAP1 DUP2 DUP2 MSTORE PUSH1 0x20 ADD PUSH1 0x0 SWAP1 JUMPDEST DUP3 DUP3 LT ISZERO PUSH2 0x89C JUMPI DUP4 DUP3 SWAP1 PUSH1 0x0 MSTORE PUSH1 0x20 PUSH1 0x0 KECCAK256 SWAP1 PUSH1 0x3 MUL ADD PUSH1 0x40 MLOAD DUP1 PUSH1 0x60 ADD PUSH1 0x40 MSTORE SWAP1 DUP2 PUSH1 0x0 DUP3 ADD PUSH1 0x0 SWAP1 SLOAD SWAP1 PUSH2 0x100 EXP SWAP1 DIV PUSH20 0xFFFFFFFFFFFFFFFFFFFFFFFFFFFFFFFFFFFFFFFF AND PUSH20 0xFFFFFFFFFFFFFFFFFFFFFFFFFFFFFFFFFFFFFFFF AND PUSH20 0xFFFFFFFFFFFFFFFFFFFFFFFFFFFFFFFFFFFFFFFF AND DUP2 MSTORE PUSH1 0x20 ADD PUSH1 0x1 DUP3 ADD SLOAD DUP2 MSTORE PUSH1 0x20 ADD PUSH1 0x2 DUP3 ADD SLOAD DUP2 MSTORE POP POP DUP2 MSTORE PUSH1 0x20 ADD SWAP1 PUSH1 0x1 ADD SWAP1 PUSH2 0x800 JUMP JUMPDEST POP POP POP POP PUSH1 0x0 PUSH1 0x1 PUSH1 0x0 DUP1 SLOAD SWAP1 POP PUSH2 0x8B4 SWAP2 SWAP1 PUSH2 0xF47 JUMP JUMPDEST PUSH2 0xA60 JUMP JUMPDEST JUMP JUMPDEST PUSH1 0x0 DUP3 SWAP1 POP PUSH1 0x0 DUP3 SWAP1 POP DUP1 DUP3 SUB PUSH2 0x8D3 JUMPI POP POP PUSH2 0xA5B JUMP JUMPDEST PUSH1 0x0 DUP6 PUSH1 0x2 DUP7 DUP7 PUSH2 0x8E4 SWAP2 SWAP1 PUSH2 0xF85 JUMP JUMPDEST PUSH2 0x8EE SWAP2 SWAP1 PUSH2 0x1048 JUMP JUMPDEST DUP7 PUSH2 0x8F9 SWAP2 SWAP1 PUSH2 0x10B2 JUMP JUMPDEST DUP2 MLOAD DUP2 LT PUSH2 0x90A JUMPI PUSH2 0x909 PUSH2 0xEA1 JUMP JUMPDEST JUMPDEST PUSH1 0x20 MUL PUSH1 0x20 ADD ADD MLOAD PUSH1 0x40 ADD MLOAD SWAP1 POP JUMPDEST DUP2 DUP4 SGT PUSH2 0xA2F JUMPI JUMPDEST DUP1 DUP7 DUP5 DUP2 MLOAD DUP2 LT PUSH2 0x935 JUMPI PUSH2 0x934 PUSH2 0xEA1 JUMP JUMPDEST JUMPDEST PUSH1 0x20 MUL PUSH1 0x20 ADD ADD MLOAD PUSH1 0x40 ADD MLOAD GT ISZERO PUSH2 0x95A JUMPI DUP3 DUP1 PUSH2 0x952 SWAP1 PUSH2 0x1146 JUMP JUMPDEST SWAP4 POP POP PUSH2 0x921 JUMP JUMPDEST JUMPDEST DUP6 DUP3 DUP2 MLOAD DUP2 LT PUSH2 0x96E JUMPI PUSH2 0x96D PUSH2 0xEA1 JUMP JUMPDEST JUMPDEST PUSH1 0x20 MUL PUSH1 0x20 ADD ADD MLOAD PUSH1 0x40 ADD MLOAD DUP2 GT ISZERO PUSH2 0x994 JUMPI DUP2 DUP1 PUSH2 0x98C SWAP1 PUSH2 0x118E JUMP JUMPDEST SWAP3 POP POP PUSH2 0x95B JUMP JUMPDEST DUP2 DUP4 SGT PUSH2 0xA2A JUMPI DUP6 DUP3 DUP2 MLOAD DUP2 LT PUSH2 0x9AE JUMPI PUSH2 0x9AD PUSH2 0xEA1 JUMP JUMPDEST JUMPDEST PUSH1 0x20 MUL PUSH1 0x20 ADD ADD MLOAD DUP7 DUP5 DUP2 MLOAD DUP2 LT PUSH2 0x9C9 JUMPI PUSH2 0x9C8 PUSH2 0xEA1 JUMP JUMPDEST JUMPDEST PUSH1 0x20 MUL PUSH1 0x20 ADD ADD MLOAD DUP8 DUP6 DUP2 MLOAD DUP2 LT PUSH2 0x9E4 JUMPI PUSH2 0x9E3 PUSH2 0xEA1 JUMP JUMPDEST JUMPDEST PUSH1 0x20 MUL PUSH1 0x20 ADD ADD DUP9 DUP6 DUP2 MLOAD DUP2 LT PUSH2 0x9FE JUMPI PUSH2 0x9FD PUSH2 0xEA1 JUMP JUMPDEST JUMPDEST PUSH1 0x20 MUL PUSH1 0x20 ADD ADD DUP3 SWAP1 MSTORE DUP3 SWAP1 MSTORE POP POP DUP3 DUP1 PUSH2 0xA18 SWAP1 PUSH2 0x1146 JUMP JUMPDEST SWAP4 POP POP DUP2 DUP1 PUSH2 0xA26 SWAP1 PUSH2 0x118E JUMP JUMPDEST SWAP3 POP POP JUMPDEST PUSH2 0x919 JUMP JUMPDEST DUP2 DUP6 SLT ISZERO PUSH2 0xA43 JUMPI PUSH2 0xA42 DUP7 DUP7 DUP5 PUSH2 0x8BB JUMP JUMPDEST JUMPDEST DUP4 DUP4 SLT ISZERO PUSH2 0xA57 JUMPI PUSH2 0xA56 DUP7 DUP5 DUP7 PUSH2 0x8BB JUMP JUMPDEST JUMPDEST POP POP POP JUMPDEST POP POP POP JUMP JUMPDEST PUSH1 0x0 DUP3 SWAP1 POP PUSH1 0x0 DUP3 SWAP1 POP DUP1 DUP3 SUB PUSH2 0xA78 JUMPI POP POP PUSH2 0xC00 JUMP JUMPDEST PUSH1 0x0 DUP6 PUSH1 0x2 DUP7 DUP7 PUSH2 0xA89 SWAP2 SWAP1 PUSH2 0xF85 JUMP JUMPDEST PUSH2 0xA93 SWAP2 SWAP1 PUSH2 0x1048 JUMP JUMPDEST DUP7 PUSH2 0xA9E SWAP2 SWAP1 PUSH2 0x10B2 JUMP JUMPDEST DUP2 MLOAD DUP2 LT PUSH2 0xAAF JUMPI PUSH2 0xAAE PUSH2 0xEA1 JUMP JUMPDEST JUMPDEST PUSH1 0x20 MUL PUSH1 0x20 ADD ADD MLOAD PUSH1 0x40 ADD MLOAD SWAP1 POP JUMPDEST DUP2 DUP4 SGT PUSH2 0xBD4 JUMPI JUMPDEST DUP1 DUP7 DUP5 DUP2 MLOAD DUP2 LT PUSH2 0xADA JUMPI PUSH2 0xAD9 PUSH2 0xEA1 JUMP JUMPDEST JUMPDEST PUSH1 0x20 MUL PUSH1 0x20 ADD ADD MLOAD PUSH1 0x40 ADD MLOAD LT ISZERO PUSH2 0xAFF JUMPI DUP3 DUP1 PUSH2 0xAF7 SWAP1 PUSH2 0x1146 JUMP JUMPDEST SWAP4 POP POP PUSH2 0xAC6 JUMP JUMPDEST JUMPDEST DUP6 DUP3 DUP2 MLOAD DUP2 LT PUSH2 0xB13 JUMPI PUSH2 0xB12 PUSH2 0xEA1 JUMP JUMPDEST JUMPDEST PUSH1 0x20 MUL PUSH1 0x20 ADD ADD MLOAD PUSH1 0x40 ADD MLOAD DUP2 LT ISZERO PUSH2 0xB39 JUMPI DUP2 DUP1 PUSH2 0xB31 SWAP1 PUSH2 0x118E JUMP JUMPDEST SWAP3 POP POP PUSH2 0xB00 JUMP JUMPDEST DUP2 DUP4 SGT PUSH2 0xBCF JUMPI DUP6 DUP3 DUP2 MLOAD DUP2 LT PUSH2 0xB53 JUMPI PUSH2 0xB52 PUSH2 0xEA1 JUMP JUMPDEST JUMPDEST PUSH1 0x20 MUL PUSH1 0x20 ADD ADD MLOAD DUP7 DUP5 DUP2 MLOAD DUP2 LT PUSH2 0xB6E JUMPI PUSH2 0xB6D PUSH2 0xEA1 JUMP JUMPDEST JUMPDEST PUSH1 0x20 MUL PUSH1 0x20 ADD ADD MLOAD DUP8 DUP6 DUP2 MLOAD DUP2 LT PUSH2 0xB89 JUMPI PUSH2 0xB88 PUSH2 0xEA1 JUMP JUMPDEST JUMPDEST PUSH1 0x20 MUL PUSH1 0x20 ADD ADD DUP9 DUP6 DUP2 MLOAD DUP2 LT PUSH2 0xBA3 JUMPI PUSH2 0xBA2 PUSH2 0xEA1 JUMP JUMPDEST JUMPDEST PUSH1 0x20 MUL PUSH1 0x20 ADD ADD DUP3 SWAP1 MSTORE DUP3 SWAP1 MSTORE POP POP DUP3 DUP1 PUSH2 0xBBD SWAP1 PUSH2 0x1146 JUMP JUMPDEST SWAP4 POP POP DUP2 DUP1 PUSH2 0xBCB SWAP1 PUSH2 0x118E JUMP JUMPDEST SWAP3 POP POP JUMPDEST PUSH2 0xABE JUMP JUMPDEST DUP2 DUP6 SLT ISZERO PUSH2 0xBE8 JUMPI PUSH2 0xBE7 DUP7 DUP7 DUP5 PUSH2 0xA60 JUMP JUMPDEST JUMPDEST DUP4 DUP4 SLT ISZERO PUSH2 0xBFC JUMPI PUSH2 0xBFB DUP7 DUP5 DUP7 PUSH2 0xA60 JUMP JUMPDEST JUMPDEST POP POP POP JUMPDEST POP POP POP JUMP JUMPDEST PUSH1 0x0 DUP2 MLOAD SWAP1 POP SWAP2 SWAP1 POP JUMP JUMPDEST PUSH1 0x0 DUP3 DUP3 MSTORE PUSH1 0x20 DUP3 ADD SWAP1 POP SWAP3 SWAP2 POP POP JUMP JUMPDEST PUSH1 0x0 DUP2 SWAP1 POP PUSH1 0x20 DUP3 ADD SWAP1 POP SWAP2 SWAP1 POP JUMP JUMPDEST PUSH1 0x0 DUP2 SWAP1 POP SWAP2 SWAP1 POP JUMP JUMPDEST PUSH2 0xC44 DUP2 PUSH2 0xC31 JUMP JUMPDEST DUP3 MSTORE POP POP JUMP JUMPDEST PUSH1 0x0 PUSH2 0xC56 DUP4 DUP4 PUSH2 0xC3B JUMP JUMPDEST PUSH1 0x20 DUP4 ADD SWAP1 POP SWAP3 SWAP2 POP POP JUMP JUMPDEST PUSH1 0x0 PUSH1 0x20 DUP3 ADD SWAP1 POP SWAP2 SWAP1 POP JUMP JUMPDEST PUSH1 0x0 PUSH2 0xC7A DUP3 PUSH2 0xC05 JUMP JUMPDEST PUSH2 0xC84 DUP2 DUP6 PUSH2 0xC10 JUMP JUMPDEST SWAP4 POP PUSH2 0xC8F DUP4 PUSH2 0xC21 JUMP JUMPDEST DUP1 PUSH1 0x0 JUMPDEST DUP4 DUP2 LT ISZERO PUSH2 0xCC0 JUMPI DUP2 MLOAD PUSH2 0xCA7 DUP9 DUP3 PUSH2 0xC4A JUMP JUMPDEST SWAP8 POP PUSH2 0xCB2 DUP4 PUSH2 0xC62 JUMP JUMPDEST SWAP3 POP POP PUSH1 0x1 DUP2 ADD SWAP1 POP PUSH2 0xC93 JUMP JUMPDEST POP DUP6 SWAP4 POP POP POP POP SWAP3 SWAP2 POP POP JUMP JUMPDEST PUSH1 0x0 PUSH1 0x20 DUP3 ADD SWAP1 POP DUP2 DUP2 SUB PUSH1 0x0 DUP4 ADD MSTORE PUSH2 0xCE7 DUP2 DUP5 PUSH2 0xC6F JUMP JUMPDEST SWAP1 POP SWAP3 SWAP2 POP POP JUMP JUMPDEST PUSH1 0x0 DUP1 REVERT JUMPDEST PUSH2 0xCFD DUP2 PUSH2 0xC31 JUMP JUMPDEST DUP2 EQ PUSH2 0xD08 JUMPI PUSH1 0x0 DUP1 REVERT JUMPDEST POP JUMP JUMPDEST PUSH1 0x0 DUP2 CALLDATALOAD SWAP1 POP PUSH2 0xD1A DUP2 PUSH2 0xCF4 JUMP JUMPDEST SWAP3 SWAP2 POP POP JUMP JUMPDEST PUSH1 0x0 PUSH1 0x20 DUP3 DUP5 SUB SLT ISZERO PUSH2 0xD36 JUMPI PUSH2 0xD35 PUSH2 0xCEF JUMP JUMPDEST JUMPDEST PUSH1 0x0 PUSH2 0xD44 DUP5 DUP3 DUP6 ADD PUSH2 0xD0B JUMP JUMPDEST SWAP2 POP POP SWAP3 SWAP2 POP POP JUMP JUMPDEST PUSH1 0x0 DUP2 MLOAD SWAP1 POP SWAP2 SWAP1 POP JUMP JUMPDEST PUSH1 0x0 DUP3 DUP3 MSTORE PUSH1 0x20 DUP3 ADD SWAP1 POP SWAP3 SWAP2 POP POP JUMP JUMPDEST PUSH1 0x0 DUP2 SWAP1 POP PUSH1 0x20 DUP3 ADD SWAP1 POP SWAP2 SWAP1 POP JUMP JUMPDEST PUSH1 0x0 PUSH20 0xFFFFFFFFFFFFFFFFFFFFFFFFFFFFFFFFFFFFFFFF DUP3 AND SWAP1 POP SWAP2 SWAP1 POP JUMP JUMPDEST PUSH1 0x0 PUSH2 0xDA4 DUP3 PUSH2 0xD79 JUMP JUMPDEST SWAP1 POP SWAP2 SWAP1 POP JUMP JUMPDEST PUSH2 0xDB4 DUP2 PUSH2 0xD99 JUMP JUMPDEST DUP3 MSTORE POP POP JUMP JUMPDEST PUSH1 0x60 DUP3 ADD PUSH1 0x0 DUP3 ADD MLOAD PUSH2 0xDD0 PUSH1 0x0 DUP6 ADD DUP3 PUSH2 0xDAB JUMP JUMPDEST POP PUSH1 0x20 DUP3 ADD MLOAD PUSH2 0xDE3 PUSH1 0x20 DUP6 ADD DUP3 PUSH2 0xC3B JUMP JUMPDEST POP PUSH1 0x40 DUP3 ADD MLOAD PUSH2 0xDF6 PUSH1 0x40 DUP6 ADD DUP3 PUSH2 0xC3B JUMP JUMPDEST POP POP POP POP JUMP JUMPDEST PUSH1 0x0 PUSH2 0xE08 DUP4 DUP4 PUSH2 0xDBA JUMP JUMPDEST PUSH1 0x60 DUP4 ADD SWAP1 POP SWAP3 SWAP2 POP POP JUMP JUMPDEST PUSH1 0x0 PUSH1 0x20 DUP3 ADD SWAP1 POP SWAP2 SWAP1 POP JUMP JUMPDEST PUSH1 0x0 PUSH2 0xE2C DUP3 PUSH2 0xD4D JUMP JUMPDEST PUSH2 0xE36 DUP2 DUP6 PUSH2 0xD58 JUMP JUMPDEST SWAP4 POP PUSH2 0xE41 DUP4 PUSH2 0xD69 JUMP JUMPDEST DUP1 PUSH1 0x0 JUMPDEST DUP4 DUP2 LT ISZERO PUSH2 0xE72 JUMPI DUP2 MLOAD PUSH2 0xE59 DUP9 DUP3 PUSH2 0xDFC JUMP JUMPDEST SWAP8 POP PUSH2 0xE64 DUP4 PUSH2 0xE14 JUMP JUMPDEST SWAP3 POP POP PUSH1 0x1 DUP2 ADD SWAP1 POP PUSH2 0xE45 JUMP JUMPDEST POP DUP6 SWAP4 POP POP POP POP SWAP3 SWAP2 POP POP JUMP JUMPDEST PUSH1 0x0 PUSH1 0x20 DUP3 ADD SWAP1 POP DUP2 DUP2 SUB PUSH1 0x0 DUP4 ADD MSTORE PUSH2 0xE99 DUP2 DUP5 PUSH2 0xE21 JUMP JUMPDEST SWAP1 POP SWAP3 SWAP2 POP POP JUMP JUMPDEST PUSH32 0x4E487B7100000000000000000000000000000000000000000000000000000000 PUSH1 0x0 MSTORE PUSH1 0x32 PUSH1 0x4 MSTORE PUSH1 0x24 PUSH1 0x0 REVERT JUMPDEST PUSH32 0x4E487B7100000000000000000000000000000000000000000000000000000000 PUSH1 0x0 MSTORE PUSH1 0x11 PUSH1 0x4 MSTORE PUSH1 0x24 PUSH1 0x0 REVERT JUMPDEST PUSH1 0x0 PUSH2 0xF0A DUP3 PUSH2 0xC31 JUMP JUMPDEST SWAP2 POP PUSH32 0xFFFFFFFFFFFFFFFFFFFFFFFFFFFFFFFFFFFFFFFFFFFFFFFFFFFFFFFFFFFFFFFF DUP3 SUB PUSH2 0xF3C JUMPI PUSH2 0xF3B PUSH2 0xED0 JUMP JUMPDEST JUMPDEST PUSH1 0x1 DUP3 ADD SWAP1 POP SWAP2 SWAP1 POP JUMP JUMPDEST PUSH1 0x0 PUSH2 0xF52 DUP3 PUSH2 0xC31 JUMP JUMPDEST SWAP2 POP PUSH2 0xF5D DUP4 PUSH2 0xC31 JUMP JUMPDEST SWAP3 POP DUP3 DUP3 LT ISZERO PUSH2 0xF70 JUMPI PUSH2 0xF6F PUSH2 0xED0 JUMP JUMPDEST JUMPDEST DUP3 DUP3 SUB SWAP1 POP SWAP3 SWAP2 POP POP JUMP JUMPDEST PUSH1 0x0 DUP2 SWAP1 POP SWAP2 SWAP1 POP JUMP JUMPDEST PUSH1 0x0 PUSH2 0xF90 DUP3 PUSH2 0xF7B JUMP JUMPDEST SWAP2 POP PUSH2 0xF9B DUP4 PUSH2 0xF7B JUMP JUMPDEST SWAP3 POP DUP3 PUSH32 0x8000000000000000000000000000000000000000000000000000000000000000 ADD DUP3 SLT PUSH1 0x0 DUP5 SLT ISZERO AND ISZERO PUSH2 0xFD6 JUMPI PUSH2 0xFD5 PUSH2 0xED0 JUMP JUMPDEST JUMPDEST DUP3 PUSH32 0x7FFFFFFFFFFFFFFFFFFFFFFFFFFFFFFFFFFFFFFFFFFFFFFFFFFFFFFFFFFFFFFF ADD DUP3 SGT PUSH1 0x0 DUP5 SLT AND ISZERO PUSH2 0x100E JUMPI PUSH2 0x100D PUSH2 0xED0 JUMP JUMPDEST JUMPDEST DUP3 DUP3 SUB SWAP1 POP SWAP3 SWAP2 POP POP JUMP JUMPDEST PUSH32 0x4E487B7100000000000000000000000000000000000000000000000000000000 PUSH1 0x0 MSTORE PUSH1 0x12 PUSH1 0x4 MSTORE PUSH1 0x24 PUSH1 0x0 REVERT JUMPDEST PUSH1 0x0 PUSH2 0x1053 DUP3 PUSH2 0xF7B JUMP JUMPDEST SWAP2 POP PUSH2 0x105E DUP4 PUSH2 0xF7B JUMP JUMPDEST SWAP3 POP DUP3 PUSH2 0x106E JUMPI PUSH2 0x106D PUSH2 0x1019 JUMP JUMPDEST JUMPDEST PUSH1 0x1 PUSH1 0x0 SUB DUP4 EQ PUSH32 0x8000000000000000000000000000000000000000000000000000000000000000 DUP4 EQ AND ISZERO PUSH2 0x10A7 JUMPI PUSH2 0x10A6 PUSH2 0xED0 JUMP JUMPDEST JUMPDEST DUP3 DUP3 SDIV SWAP1 POP SWAP3 SWAP2 POP POP JUMP JUMPDEST PUSH1 0x0 PUSH2 0x10BD DUP3 PUSH2 0xF7B JUMP JUMPDEST SWAP2 POP PUSH2 0x10C8 DUP4 PUSH2 0xF7B JUMP JUMPDEST SWAP3 POP DUP2 PUSH32 0x7FFFFFFFFFFFFFFFFFFFFFFFFFFFFFFFFFFFFFFFFFFFFFFFFFFFFFFFFFFFFFFF SUB DUP4 SGT PUSH1 0x0 DUP4 SLT ISZERO AND ISZERO PUSH2 0x1103 JUMPI PUSH2 0x1102 PUSH2 0xED0 JUMP JUMPDEST JUMPDEST DUP2 PUSH32 0x8000000000000000000000000000000000000000000000000000000000000000 SUB DUP4 SLT PUSH1 0x0 DUP4 SLT AND ISZERO PUSH2 0x113B JUMPI PUSH2 0x113A PUSH2 0xED0 JUMP JUMPDEST JUMPDEST DUP3 DUP3 ADD SWAP1 POP SWAP3 SWAP2 POP POP JUMP JUMPDEST PUSH1 0x0 PUSH2 0x1151 DUP3 PUSH2 0xF7B JUMP JUMPDEST SWAP2 POP PUSH32 0x7FFFFFFFFFFFFFFFFFFFFFFFFFFFFFFFFFFFFFFFFFFFFFFFFFFFFFFFFFFFFFFF DUP3 SUB PUSH2 0x1183 JUMPI PUSH2 0x1182 PUSH2 0xED0 JUMP JUMPDEST JUMPDEST PUSH1 0x1 DUP3 ADD SWAP1 POP SWAP2 SWAP1 POP JUMP JUMPDEST PUSH1 0x0 PUSH2 0x1199 DUP3 PUSH2 0xF7B JUMP JUMPDEST SWAP2 POP PUSH32 0x8000000000000000000000000000000000000000000000000000000000000000 DUP3 SUB PUSH2 0x11CB JUMPI PUSH2 0x11CA PUSH2 0xED0 JUMP JUMPDEST JUMPDEST PUSH1 0x1 DUP3 SUB SWAP1 POP SWAP2 SWAP1 POP JUMP INVALID LOG2 PUSH5 0x6970667358 0x22 SLT KECCAK256 PUSH5 0x81D4966020 DUP11 0xC2 CALLDATALOAD KECCAK256 EXP 0xBC PUSH23 0x76B28F461B8E751A4A068DB79DF38D55D4EA2364736F6C PUSH4 0x4300080D STOP CALLER "
				},
				"gasEstimates": {
					"creation": {
						"codeDepositCost": "924000",
						"executionCost": "962",
						"totalCost": "924962"
					},
					"external": {
						"cancelAsk(uint256)": "infinite",
						"cancelBid(uint256)": "infinite",
						"fetchAllBid()": "infinite",
						"fetchYourAskIds()": "infinite",
						"fetchYourBidIds()": "infinite",
						"placeAsk(uint256)": "93359",
						"placeBid(uint256)": "93403"
					},
					"internal": {
						"ascendingQuickSort(struct OrderBook.order memory[] memory,int256,int256)": "infinite",
						"deleteArray()": "infinite",
						"descendingQuickSort(struct OrderBook.order memory[] memory,int256,int256)": "infinite",
						"sortAsk()": "infinite",
						"sortBid()": "infinite"
					}
				},
				"methodIdentifiers": {
					"cancelAsk(uint256)": "1628e0f5",
					"cancelBid(uint256)": "9703ef35",
					"fetchAllBid()": "4471417f",
					"fetchYourAskIds()": "122de8f2",
					"fetchYourBidIds()": "ce0cdc87",
					"placeAsk(uint256)": "78c5b268",
					"placeBid(uint256)": "9979ef45"
				}
			},
			"storageLayout": {
				"storage": [
					{
						"astId": 12,
						"contract": "contracts/OrderBook.sol:OrderBook",
						"label": "bidBook",
						"offset": 0,
						"slot": "0",
						"type": "t_array(t_struct(order)8_storage)dyn_storage"
					},
					{
						"astId": 16,
						"contract": "contracts/OrderBook.sol:OrderBook",
						"label": "askBook",
						"offset": 0,
						"slot": "1",
						"type": "t_array(t_struct(order)8_storage)dyn_storage"
					},
					{
						"astId": 19,
						"contract": "contracts/OrderBook.sol:OrderBook",
						"label": "request",
						"offset": 0,
						"slot": "2",
						"type": "t_array(t_uint256)dyn_storage"
					}
				],
				"types": {
					"t_address_payable": {
						"encoding": "inplace",
						"label": "address payable",
						"numberOfBytes": "20"
					},
					"t_array(t_struct(order)8_storage)dyn_storage": {
						"base": "t_struct(order)8_storage",
						"encoding": "dynamic_array",
						"label": "struct OrderBook.order[]",
						"numberOfBytes": "32"
					},
					"t_array(t_uint256)dyn_storage": {
						"base": "t_uint256",
						"encoding": "dynamic_array",
						"label": "uint256[]",
						"numberOfBytes": "32"
					},
					"t_struct(order)8_storage": {
						"encoding": "inplace",
						"label": "struct OrderBook.order",
						"members": [
							{
								"astId": 3,
								"contract": "contracts/OrderBook.sol:OrderBook",
								"label": "customer",
								"offset": 0,
								"slot": "0",
								"type": "t_address_payable"
							},
							{
								"astId": 5,
								"contract": "contracts/OrderBook.sol:OrderBook",
								"label": "price",
								"offset": 0,
								"slot": "1",
								"type": "t_uint256"
							},
							{
								"astId": 7,
								"contract": "contracts/OrderBook.sol:OrderBook",
								"label": "timestamp",
								"offset": 0,
								"slot": "2",
								"type": "t_uint256"
							}
						],
						"numberOfBytes": "96"
					},
					"t_uint256": {
						"encoding": "inplace",
						"label": "uint256",
						"numberOfBytes": "32"
					}
				}
			},
			"userdoc": {
				"kind": "user",
				"methods": {},
				"version": 1
			}
		}
	}
}