{
	"contracts/OrderBook.sol": {
		"OrderBook": {
			"abi": [
				{
					"inputs": [
						{
							"internalType": "uint256",
							"name": "_commission",
							"type": "uint256"
						}
					],
					"stateMutability": "nonpayable",
					"type": "constructor"
				},
				{
					"anonymous": false,
					"inputs": [
						{
							"indexed": false,
							"internalType": "uint256",
							"name": "",
							"type": "uint256"
						},
						{
							"indexed": false,
							"internalType": "uint256",
							"name": "",
							"type": "uint256"
						}
					],
					"name": "askLink",
					"type": "event"
				},
				{
					"anonymous": false,
					"inputs": [
						{
							"indexed": false,
							"internalType": "uint256",
							"name": "",
							"type": "uint256"
						},
						{
							"indexed": false,
							"internalType": "uint256",
							"name": "",
							"type": "uint256"
						}
					],
					"name": "bidLink",
					"type": "event"
				},
				{
					"anonymous": false,
					"inputs": [
						{
							"indexed": false,
							"internalType": "uint256",
							"name": "",
							"type": "uint256"
						}
					],
					"name": "newHead",
					"type": "event"
				},
				{
					"anonymous": false,
					"inputs": [
						{
							"indexed": false,
							"internalType": "uint256",
							"name": "",
							"type": "uint256"
						}
					],
					"name": "newTail",
					"type": "event"
				},
				{
					"anonymous": false,
					"inputs": [
						{
							"indexed": false,
							"internalType": "address",
							"name": "",
							"type": "address"
						},
						{
							"indexed": false,
							"internalType": "uint256",
							"name": "",
							"type": "uint256"
						},
						{
							"indexed": false,
							"internalType": "uint256",
							"name": "",
							"type": "uint256"
						},
						{
							"indexed": false,
							"internalType": "enum OrderBook.State",
							"name": "",
							"type": "uint8"
						},
						{
							"indexed": false,
							"internalType": "uint256",
							"name": "",
							"type": "uint256"
						},
						{
							"indexed": false,
							"internalType": "uint256",
							"name": "",
							"type": "uint256"
						},
						{
							"indexed": false,
							"internalType": "uint256",
							"name": "",
							"type": "uint256"
						},
						{
							"indexed": false,
							"internalType": "bool",
							"name": "",
							"type": "bool"
						}
					],
					"name": "orderCreated",
					"type": "event"
				},
				{
					"inputs": [
						{
							"internalType": "uint256",
							"name": "a",
							"type": "uint256"
						},
						{
							"internalType": "uint256",
							"name": "b",
							"type": "uint256"
						}
					],
					"name": "appendString",
					"outputs": [
						{
							"internalType": "string",
							"name": "",
							"type": "string"
						}
					],
					"stateMutability": "pure",
					"type": "function"
				},
				{
					"inputs": [],
					"name": "askCount",
					"outputs": [
						{
							"internalType": "uint256",
							"name": "",
							"type": "uint256"
						}
					],
					"stateMutability": "view",
					"type": "function"
				},
				{
					"inputs": [],
					"name": "askHead",
					"outputs": [
						{
							"internalType": "uint256",
							"name": "",
							"type": "uint256"
						}
					],
					"stateMutability": "view",
					"type": "function"
				},
				{
					"inputs": [],
					"name": "askTail",
					"outputs": [
						{
							"internalType": "uint256",
							"name": "",
							"type": "uint256"
						}
					],
					"stateMutability": "view",
					"type": "function"
				},
				{
					"inputs": [],
					"name": "bidCount",
					"outputs": [
						{
							"internalType": "uint256",
							"name": "",
							"type": "uint256"
						}
					],
					"stateMutability": "view",
					"type": "function"
				},
				{
					"inputs": [],
					"name": "bidHead",
					"outputs": [
						{
							"internalType": "uint256",
							"name": "",
							"type": "uint256"
						}
					],
					"stateMutability": "view",
					"type": "function"
				},
				{
					"inputs": [],
					"name": "bidTail",
					"outputs": [
						{
							"internalType": "uint256",
							"name": "",
							"type": "uint256"
						}
					],
					"stateMutability": "view",
					"type": "function"
				},
				{
					"inputs": [
						{
							"internalType": "uint256",
							"name": "askId",
							"type": "uint256"
						}
					],
					"name": "cancelAsk",
					"outputs": [],
					"stateMutability": "nonpayable",
					"type": "function"
				},
				{
					"inputs": [
						{
							"internalType": "uint256",
							"name": "bidId",
							"type": "uint256"
						}
					],
					"name": "cancelBid",
					"outputs": [],
					"stateMutability": "nonpayable",
					"type": "function"
				},
				{
					"inputs": [
						{
							"internalType": "string",
							"name": "a",
							"type": "string"
						},
						{
							"internalType": "string",
							"name": "b",
							"type": "string"
						}
					],
					"name": "concatenate",
					"outputs": [
						{
							"internalType": "string",
							"name": "",
							"type": "string"
						}
					],
					"stateMutability": "pure",
					"type": "function"
				},
				{
					"inputs": [],
					"name": "fetchAllBid",
					"outputs": [
						{
							"components": [
								{
									"internalType": "address payable",
									"name": "customer",
									"type": "address"
								},
								{
									"internalType": "uint256",
									"name": "value",
									"type": "uint256"
								},
								{
									"internalType": "uint256",
									"name": "timestamp",
									"type": "uint256"
								},
								{
									"internalType": "enum OrderBook.State",
									"name": "state",
									"type": "uint8"
								},
								{
									"internalType": "uint256",
									"name": "id",
									"type": "uint256"
								},
								{
									"internalType": "uint256",
									"name": "next",
									"type": "uint256"
								},
								{
									"internalType": "uint256",
									"name": "prev",
									"type": "uint256"
								}
							],
							"internalType": "struct OrderBook.order[]",
							"name": "",
							"type": "tuple[]"
						}
					],
					"stateMutability": "nonpayable",
					"type": "function"
				},
				{
					"inputs": [],
					"name": "fetchAsk",
					"outputs": [
						{
							"internalType": "string",
							"name": "",
							"type": "string"
						}
					],
					"stateMutability": "view",
					"type": "function"
				},
				{
					"inputs": [],
					"name": "fetchYourAskIds",
					"outputs": [
						{
							"internalType": "uint256[]",
							"name": "",
							"type": "uint256[]"
						}
					],
					"stateMutability": "nonpayable",
					"type": "function"
				},
				{
					"inputs": [],
					"name": "fetchYourBidIds",
					"outputs": [
						{
							"internalType": "uint256[]",
							"name": "",
							"type": "uint256[]"
						}
					],
					"stateMutability": "nonpayable",
					"type": "function"
				},
				{
					"inputs": [
						{
							"internalType": "uint256",
							"name": "id",
							"type": "uint256"
						}
					],
					"name": "getAskAddress",
					"outputs": [
						{
							"internalType": "address payable",
							"name": "",
							"type": "address"
						}
					],
					"stateMutability": "view",
					"type": "function"
				},
				{
					"inputs": [
						{
							"internalType": "uint256",
							"name": "id",
							"type": "uint256"
						}
					],
					"name": "getAskState",
					"outputs": [
						{
							"internalType": "enum OrderBook.State",
							"name": "",
							"type": "uint8"
						}
					],
					"stateMutability": "view",
					"type": "function"
				},
				{
					"inputs": [
						{
							"internalType": "uint256",
							"name": "id",
							"type": "uint256"
						}
					],
					"name": "getAskValue",
					"outputs": [
						{
							"internalType": "uint256",
							"name": "",
							"type": "uint256"
						}
					],
					"stateMutability": "view",
					"type": "function"
				},
				{
					"inputs": [
						{
							"internalType": "uint256",
							"name": "id",
							"type": "uint256"
						}
					],
					"name": "getBidAddress",
					"outputs": [
						{
							"internalType": "address payable",
							"name": "",
							"type": "address"
						}
					],
					"stateMutability": "view",
					"type": "function"
				},
				{
					"inputs": [
						{
							"internalType": "uint256",
							"name": "id",
							"type": "uint256"
						}
					],
					"name": "getBidState",
					"outputs": [
						{
							"internalType": "enum OrderBook.State",
							"name": "",
							"type": "uint8"
						}
					],
					"stateMutability": "view",
					"type": "function"
				},
				{
					"inputs": [
						{
							"internalType": "uint256",
							"name": "id",
							"type": "uint256"
						}
					],
					"name": "getBidValue",
					"outputs": [
						{
							"internalType": "uint256",
							"name": "",
							"type": "uint256"
						}
					],
					"stateMutability": "view",
					"type": "function"
				},
				{
					"inputs": [
						{
							"internalType": "uint256",
							"name": "id",
							"type": "uint256"
						}
					],
					"name": "getOrder",
					"outputs": [
						{
							"internalType": "address payable",
							"name": "",
							"type": "address"
						},
						{
							"internalType": "uint256",
							"name": "",
							"type": "uint256"
						},
						{
							"internalType": "uint256",
							"name": "",
							"type": "uint256"
						},
						{
							"internalType": "enum OrderBook.State",
							"name": "",
							"type": "uint8"
						},
						{
							"internalType": "uint256",
							"name": "",
							"type": "uint256"
						},
						{
							"internalType": "uint256",
							"name": "",
							"type": "uint256"
						},
						{
							"internalType": "uint256",
							"name": "",
							"type": "uint256"
						},
						{
							"internalType": "bool",
							"name": "",
							"type": "bool"
						}
					],
					"stateMutability": "view",
					"type": "function"
				},
				{
					"inputs": [
						{
							"internalType": "uint256",
							"name": "price",
							"type": "uint256"
						}
					],
					"name": "placeAsk",
					"outputs": [],
					"stateMutability": "payable",
					"type": "function"
				},
				{
					"inputs": [
						{
							"internalType": "uint256",
							"name": "price",
							"type": "uint256"
						}
					],
					"name": "placeBid",
					"outputs": [],
					"stateMutability": "payable",
					"type": "function"
				}
			],
			"devdoc": {
				"kind": "dev",
				"methods": {},
				"version": 1
			},
			"evm": {
				"assembly": "    /* \"contracts/OrderBook.sol\":1130:9137  contract OrderBook {... */\n  mstore(0x40, 0x80)\n    /* \"contracts/OrderBook.sol\":1333:1343  msg.sender */\n  caller\n    /* \"contracts/OrderBook.sol\":1300:1344  address payable _owner = payable(msg.sender) */\n  0x01\n  exp(0x0100, 0x00)\n  dup2\n  sload\n  dup2\n  0xffffffffffffffffffffffffffffffffffffffff\n  mul\n  not\n  and\n  swap1\n  dup4\n  0xffffffffffffffffffffffffffffffffffffffff\n  and\n  mul\n  or\n  swap1\n  sstore\n  pop\n    /* \"contracts/OrderBook.sol\":2323:2526  constructor (uint256 _commission) {... */\n  callvalue\n  dup1\n  iszero\n  tag_1\n  jumpi\n  0x00\n  dup1\n  revert\ntag_1:\n  pop\n  mload(0x40)\n  sub(codesize, bytecodeSize)\n  dup1\n  bytecodeSize\n  dup4\n  codecopy\n  dup2\n  dup2\n  add\n  0x40\n  mstore\n  dup2\n  add\n  swap1\n  tag_2\n  swap2\n  swap1\n  tag_3\n  jump\t// in\ntag_2:\n    /* \"contracts/OrderBook.sol\":2380:2391  _commission */\n  dup1\n    /* \"contracts/OrderBook.sol\":2367:2377  commission */\n  0x02\n    /* \"contracts/OrderBook.sol\":2367:2391  commission = _commission */\n  dup2\n  swap1\n  sstore\n  pop\n    /* \"contracts/OrderBook.sol\":2411:2412  0 */\n  0x00\n    /* \"contracts/OrderBook.sol\":2401:2408  bidHead */\n  0x04\n    /* \"contracts/OrderBook.sol\":2401:2412  bidHead = 0 */\n  dup2\n  swap1\n  sstore\n  pop\n    /* \"contracts/OrderBook.sol\":2432:2433  0 */\n  0x00\n    /* \"contracts/OrderBook.sol\":2422:2429  bidTail */\n  0x05\n    /* \"contracts/OrderBook.sol\":2422:2433  bidTail = 0 */\n  dup2\n  swap1\n  sstore\n  pop\n    /* \"contracts/OrderBook.sol\":2454:2455  0 */\n  0x00\n    /* \"contracts/OrderBook.sol\":2443:2451  bidCount */\n  0x06\n    /* \"contracts/OrderBook.sol\":2443:2455  bidCount = 0 */\n  dup2\n  swap1\n  sstore\n  pop\n    /* \"contracts/OrderBook.sol\":2475:2476  0 */\n  0x00\n    /* \"contracts/OrderBook.sol\":2465:2472  askHead */\n  0x08\n    /* \"contracts/OrderBook.sol\":2465:2476  askHead = 0 */\n  dup2\n  swap1\n  sstore\n  pop\n    /* \"contracts/OrderBook.sol\":2496:2497  0 */\n  0x00\n    /* \"contracts/OrderBook.sol\":2486:2493  askTail */\n  0x09\n    /* \"contracts/OrderBook.sol\":2486:2497  askTail = 0 */\n  dup2\n  swap1\n  sstore\n  pop\n    /* \"contracts/OrderBook.sol\":2518:2519  0 */\n  0x00\n    /* \"contracts/OrderBook.sol\":2507:2515  askCount */\n  0x0a\n    /* \"contracts/OrderBook.sol\":2507:2519  askCount = 0 */\n  dup2\n  swap1\n  sstore\n  pop\n    /* \"contracts/OrderBook.sol\":2323:2526  constructor (uint256 _commission) {... */\n  pop\n    /* \"contracts/OrderBook.sol\":1130:9137  contract OrderBook {... */\n  jump(tag_6)\n    /* \"#utility.yul\":88:205   */\ntag_8:\n    /* \"#utility.yul\":197:198   */\n  0x00\n    /* \"#utility.yul\":194:195   */\n  dup1\n    /* \"#utility.yul\":187:199   */\n  revert\n    /* \"#utility.yul\":334:411   */\ntag_10:\n    /* \"#utility.yul\":371:378   */\n  0x00\n    /* \"#utility.yul\":400:405   */\n  dup2\n    /* \"#utility.yul\":389:405   */\n  swap1\n  pop\n    /* \"#utility.yul\":334:411   */\n  swap2\n  swap1\n  pop\n  jump\t// out\n    /* \"#utility.yul\":417:539   */\ntag_11:\n    /* \"#utility.yul\":490:514   */\n  tag_19\n    /* \"#utility.yul\":508:513   */\n  dup2\n    /* \"#utility.yul\":490:514   */\n  tag_10\n  jump\t// in\ntag_19:\n    /* \"#utility.yul\":483:488   */\n  dup2\n    /* \"#utility.yul\":480:515   */\n  eq\n    /* \"#utility.yul\":470:533   */\n  tag_20\n  jumpi\n    /* \"#utility.yul\":529:530   */\n  0x00\n    /* \"#utility.yul\":526:527   */\n  dup1\n    /* \"#utility.yul\":519:531   */\n  revert\n    /* \"#utility.yul\":470:533   */\ntag_20:\n    /* \"#utility.yul\":417:539   */\n  pop\n  jump\t// out\n    /* \"#utility.yul\":545:688   */\ntag_12:\n    /* \"#utility.yul\":602:607   */\n  0x00\n    /* \"#utility.yul\":633:639   */\n  dup2\n    /* \"#utility.yul\":627:640   */\n  mload\n    /* \"#utility.yul\":618:640   */\n  swap1\n  pop\n    /* \"#utility.yul\":649:682   */\n  tag_22\n    /* \"#utility.yul\":676:681   */\n  dup2\n    /* \"#utility.yul\":649:682   */\n  tag_11\n  jump\t// in\ntag_22:\n    /* \"#utility.yul\":545:688   */\n  swap3\n  swap2\n  pop\n  pop\n  jump\t// out\n    /* \"#utility.yul\":694:1045   */\ntag_3:\n    /* \"#utility.yul\":764:770   */\n  0x00\n    /* \"#utility.yul\":813:815   */\n  0x20\n    /* \"#utility.yul\":801:810   */\n  dup3\n    /* \"#utility.yul\":792:799   */\n  dup5\n    /* \"#utility.yul\":788:811   */\n  sub\n    /* \"#utility.yul\":784:816   */\n  slt\n    /* \"#utility.yul\":781:900   */\n  iszero\n  tag_24\n  jumpi\n    /* \"#utility.yul\":819:898   */\n  tag_25\n  tag_8\n  jump\t// in\ntag_25:\n    /* \"#utility.yul\":781:900   */\ntag_24:\n    /* \"#utility.yul\":939:940   */\n  0x00\n    /* \"#utility.yul\":964:1028   */\n  tag_26\n    /* \"#utility.yul\":1020:1027   */\n  dup5\n    /* \"#utility.yul\":1011:1017   */\n  dup3\n    /* \"#utility.yul\":1000:1009   */\n  dup6\n    /* \"#utility.yul\":996:1018   */\n  add\n    /* \"#utility.yul\":964:1028   */\n  tag_12\n  jump\t// in\ntag_26:\n    /* \"#utility.yul\":954:1028   */\n  swap2\n  pop\n    /* \"#utility.yul\":910:1038   */\n  pop\n    /* \"#utility.yul\":694:1045   */\n  swap3\n  swap2\n  pop\n  pop\n  jump\t// out\n    /* \"contracts/OrderBook.sol\":1130:9137  contract OrderBook {... */\ntag_6:\n  dataSize(sub_0)\n  dup1\n  dataOffset(sub_0)\n  0x00\n  codecopy\n  0x00\n  return\nstop\n\nsub_0: assembly {\n        /* \"contracts/OrderBook.sol\":1130:9137  contract OrderBook {... */\n      mstore(0x40, 0x80)\n      jumpi(tag_1, lt(calldatasize, 0x04))\n      shr(0xe0, calldataload(0x00))\n      dup1\n      0x7bb51193\n      gt\n      tag_25\n      jumpi\n      dup1\n      0xbf77ffae\n      gt\n      tag_26\n      jumpi\n      dup1\n      0xbf77ffae\n      eq\n      tag_19\n      jumpi\n      dup1\n      0xc12bcf49\n      eq\n      tag_20\n      jumpi\n      dup1\n      0xce0cdc87\n      eq\n      tag_21\n      jumpi\n      dup1\n      0xd09ef241\n      eq\n      tag_22\n      jumpi\n      dup1\n      0xdb3a1396\n      eq\n      tag_23\n      jumpi\n      dup1\n      0xecdfb860\n      eq\n      tag_24\n      jumpi\n      jump(tag_1)\n    tag_26:\n      dup1\n      0x7bb51193\n      eq\n      tag_13\n      jumpi\n      dup1\n      0x801d9bbd\n      eq\n      tag_14\n      jumpi\n      dup1\n      0x9703ef35\n      eq\n      tag_15\n      jumpi\n      dup1\n      0x9979ef45\n      eq\n      tag_16\n      jumpi\n      dup1\n      0xa394fda7\n      eq\n      tag_17\n      jumpi\n      dup1\n      0xb40a5627\n      eq\n      tag_18\n      jumpi\n      jump(tag_1)\n    tag_25:\n      dup1\n      0x44e791e0\n      gt\n      tag_27\n      jumpi\n      dup1\n      0x44e791e0\n      eq\n      tag_7\n      jumpi\n      dup1\n      0x4d46712d\n      eq\n      tag_8\n      jumpi\n      dup1\n      0x69f632e2\n      eq\n      tag_9\n      jumpi\n      dup1\n      0x6e5b0f00\n      eq\n      tag_10\n      jumpi\n      dup1\n      0x734a2e78\n      eq\n      tag_11\n      jumpi\n      dup1\n      0x78c5b268\n      eq\n      tag_12\n      jumpi\n      jump(tag_1)\n    tag_27:\n      dup1\n      0x122de8f2\n      eq\n      tag_2\n      jumpi\n      dup1\n      0x1628e0f5\n      eq\n      tag_3\n      jumpi\n      dup1\n      0x266001d3\n      eq\n      tag_4\n      jumpi\n      dup1\n      0x2db6dfa7\n      eq\n      tag_5\n      jumpi\n      dup1\n      0x4471417f\n      eq\n      tag_6\n      jumpi\n    tag_1:\n      0x00\n      dup1\n      revert\n        /* \"contracts/OrderBook.sol\":8054:8122  function fetchYourAskIds() public returns (uint256[] memory) {... */\n    tag_2:\n      callvalue\n      dup1\n      iszero\n      tag_28\n      jumpi\n      0x00\n      dup1\n      revert\n    tag_28:\n      pop\n      tag_29\n      tag_30\n      jump\t// in\n    tag_29:\n      mload(0x40)\n      tag_31\n      swap2\n      swap1\n      tag_32\n      jump\t// in\n    tag_31:\n      mload(0x40)\n      dup1\n      swap2\n      sub\n      swap1\n      return\n        /* \"contracts/OrderBook.sol\":7192:7484  function cancelAsk (uint256 askId) public isPending(askBook[askId]) isAuthorised(askBook[askId], msg.sender) {... */\n    tag_3:\n      callvalue\n      dup1\n      iszero\n      tag_33\n      jumpi\n      0x00\n      dup1\n      revert\n    tag_33:\n      pop\n      tag_34\n      0x04\n      dup1\n      calldatasize\n      sub\n      dup2\n      add\n      swap1\n      tag_35\n      swap2\n      swap1\n      tag_36\n      jump\t// in\n    tag_35:\n      tag_37\n      jump\t// in\n    tag_34:\n      stop\n        /* \"contracts/OrderBook.sol\":5759:5905  function concatenate(string memory a,string memory b) public pure returns (string memory){... */\n    tag_4:\n      callvalue\n      dup1\n      iszero\n      tag_38\n      jumpi\n      0x00\n      dup1\n      revert\n    tag_38:\n      pop\n      tag_39\n      0x04\n      dup1\n      calldatasize\n      sub\n      dup2\n      add\n      swap1\n      tag_40\n      swap2\n      swap1\n      tag_41\n      jump\t// in\n    tag_40:\n      tag_42\n      jump\t// in\n    tag_39:\n      mload(0x40)\n      tag_43\n      swap2\n      swap1\n      tag_44\n      jump\t// in\n    tag_43:\n      mload(0x40)\n      dup1\n      swap2\n      sub\n      swap1\n      return\n        /* \"contracts/OrderBook.sol\":8704:8808  function getBidValue (uint256 id) public view returns(uint256) {... */\n    tag_5:\n      callvalue\n      dup1\n      iszero\n      tag_45\n      jumpi\n      0x00\n      dup1\n      revert\n    tag_45:\n      pop\n      tag_46\n      0x04\n      dup1\n      calldatasize\n      sub\n      dup2\n      add\n      swap1\n      tag_47\n      swap2\n      swap1\n      tag_36\n      jump\t// in\n    tag_47:\n      tag_48\n      jump\t// in\n    tag_46:\n      mload(0x40)\n      tag_49\n      swap2\n      swap1\n      tag_50\n      jump\t// in\n    tag_49:\n      mload(0x40)\n      dup1\n      swap2\n      sub\n      swap1\n      return\n        /* \"contracts/OrderBook.sol\":7911:7973  function fetchAllBid() public returns (order[] memory) {... */\n    tag_6:\n      callvalue\n      dup1\n      iszero\n      tag_51\n      jumpi\n      0x00\n      dup1\n      revert\n    tag_51:\n      pop\n      tag_52\n      tag_53\n      jump\t// in\n    tag_52:\n      mload(0x40)\n      tag_54\n      swap2\n      swap1\n      tag_55\n      jump\t// in\n    tag_54:\n      mload(0x40)\n      dup1\n      swap2\n      sub\n      swap1\n      return\n        /* \"contracts/OrderBook.sol\":7518:7742  function fetchAsk() public view returns (string memory) {... */\n    tag_7:\n      callvalue\n      dup1\n      iszero\n      tag_56\n      jumpi\n      0x00\n      dup1\n      revert\n    tag_56:\n      pop\n      tag_57\n      tag_58\n      jump\t// in\n    tag_57:\n      mload(0x40)\n      tag_59\n      swap2\n      swap1\n      tag_44\n      jump\t// in\n    tag_59:\n      mload(0x40)\n      dup1\n      swap2\n      sub\n      swap1\n      return\n        /* \"contracts/OrderBook.sol\":9032:9134  function getAskState (uint256 id) public view returns(State) {... */\n    tag_8:\n      callvalue\n      dup1\n      iszero\n      tag_60\n      jumpi\n      0x00\n      dup1\n      revert\n    tag_60:\n      pop\n      tag_61\n      0x04\n      dup1\n      calldatasize\n      sub\n      dup2\n      add\n      swap1\n      tag_62\n      swap2\n      swap1\n      tag_36\n      jump\t// in\n    tag_62:\n      tag_63\n      jump\t// in\n    tag_61:\n      mload(0x40)\n      tag_64\n      swap2\n      swap1\n      tag_65\n      jump\t// in\n    tag_64:\n      mload(0x40)\n      dup1\n      swap2\n      sub\n      swap1\n      return\n        /* \"contracts/OrderBook.sol\":8458:8575  function getBidAddress (uint256 id) public view returns(address payable) {... */\n    tag_9:\n      callvalue\n      dup1\n      iszero\n      tag_66\n      jumpi\n      0x00\n      dup1\n      revert\n    tag_66:\n      pop\n      tag_67\n      0x04\n      dup1\n      calldatasize\n      sub\n      dup2\n      add\n      swap1\n      tag_68\n      swap2\n      swap1\n      tag_36\n      jump\t// in\n    tag_68:\n      tag_69\n      jump\t// in\n    tag_67:\n      mload(0x40)\n      tag_70\n      swap2\n      swap1\n      tag_71\n      jump\t// in\n    tag_70:\n      mload(0x40)\n      dup1\n      swap2\n      sub\n      swap1\n      return\n        /* \"contracts/OrderBook.sol\":1797:1819  uint256 public bidHead */\n    tag_10:\n      callvalue\n      dup1\n      iszero\n      tag_72\n      jumpi\n      0x00\n      dup1\n      revert\n    tag_72:\n      pop\n      tag_73\n      tag_74\n      jump\t// in\n    tag_73:\n      mload(0x40)\n      tag_75\n      swap2\n      swap1\n      tag_50\n      jump\t// in\n    tag_75:\n      mload(0x40)\n      dup1\n      swap2\n      sub\n      swap1\n      return\n        /* \"contracts/OrderBook.sol\":8581:8698  function getAskAddress (uint256 id) public view returns(address payable) {... */\n    tag_11:\n      callvalue\n      dup1\n      iszero\n      tag_76\n      jumpi\n      0x00\n      dup1\n      revert\n    tag_76:\n      pop\n      tag_77\n      0x04\n      dup1\n      calldatasize\n      sub\n      dup2\n      add\n      swap1\n      tag_78\n      swap2\n      swap1\n      tag_36\n      jump\t// in\n    tag_78:\n      tag_79\n      jump\t// in\n    tag_77:\n      mload(0x40)\n      tag_80\n      swap2\n      swap1\n      tag_71\n      jump\t// in\n    tag_80:\n      mload(0x40)\n      dup1\n      swap2\n      sub\n      swap1\n      return\n        /* \"contracts/OrderBook.sol\":6782:7186  function placeAsk (uint256 price) public payable {... */\n    tag_12:\n      tag_81\n      0x04\n      dup1\n      calldatasize\n      sub\n      dup2\n      add\n      swap1\n      tag_82\n      swap2\n      swap1\n      tag_36\n      jump\t// in\n    tag_82:\n      tag_83\n      jump\t// in\n    tag_81:\n      stop\n        /* \"contracts/OrderBook.sol\":1825:1847  uint256 public bidTail */\n    tag_13:\n      callvalue\n      dup1\n      iszero\n      tag_84\n      jumpi\n      0x00\n      dup1\n      revert\n    tag_84:\n      pop\n      tag_85\n      tag_86\n      jump\t// in\n    tag_85:\n      mload(0x40)\n      tag_87\n      swap2\n      swap1\n      tag_50\n      jump\t// in\n    tag_87:\n      mload(0x40)\n      dup1\n      swap2\n      sub\n      swap1\n      return\n        /* \"contracts/OrderBook.sol\":1970:1992  uint256 public askHead */\n    tag_14:\n      callvalue\n      dup1\n      iszero\n      tag_88\n      jumpi\n      0x00\n      dup1\n      revert\n    tag_88:\n      pop\n      tag_89\n      tag_90\n      jump\t// in\n    tag_89:\n      mload(0x40)\n      tag_91\n      swap2\n      swap1\n      tag_50\n      jump\t// in\n    tag_91:\n      mload(0x40)\n      dup1\n      swap2\n      sub\n      swap1\n      return\n        /* \"contracts/OrderBook.sol\":6519:6776  function cancelBid (uint256 bidId) public isPending(bidBook[bidId]) isAuthorised(bidBook[bidId], msg.sender) {... */\n    tag_15:\n      callvalue\n      dup1\n      iszero\n      tag_92\n      jumpi\n      0x00\n      dup1\n      revert\n    tag_92:\n      pop\n      tag_93\n      0x04\n      dup1\n      calldatasize\n      sub\n      dup2\n      add\n      swap1\n      tag_94\n      swap2\n      swap1\n      tag_36\n      jump\t// in\n    tag_94:\n      tag_95\n      jump\t// in\n    tag_93:\n      stop\n        /* \"contracts/OrderBook.sol\":5944:6513  function placeBid (uint256 price) public payable {... */\n    tag_16:\n      tag_96\n      0x04\n      dup1\n      calldatasize\n      sub\n      dup2\n      add\n      swap1\n      tag_97\n      swap2\n      swap1\n      tag_36\n      jump\t// in\n    tag_97:\n      tag_98\n      jump\t// in\n    tag_96:\n      stop\n        /* \"contracts/OrderBook.sol\":2026:2049  uint256 public askCount */\n    tag_17:\n      callvalue\n      dup1\n      iszero\n      tag_99\n      jumpi\n      0x00\n      dup1\n      revert\n    tag_99:\n      pop\n      tag_100\n      tag_101\n      jump\t// in\n    tag_100:\n      mload(0x40)\n      tag_102\n      swap2\n      swap1\n      tag_50\n      jump\t// in\n    tag_102:\n      mload(0x40)\n      dup1\n      swap2\n      sub\n      swap1\n      return\n        /* \"contracts/OrderBook.sol\":1853:1876  uint256 public bidCount */\n    tag_18:\n      callvalue\n      dup1\n      iszero\n      tag_103\n      jumpi\n      0x00\n      dup1\n      revert\n    tag_103:\n      pop\n      tag_104\n      tag_105\n      jump\t// in\n    tag_104:\n      mload(0x40)\n      tag_106\n      swap2\n      swap1\n      tag_50\n      jump\t// in\n    tag_106:\n      mload(0x40)\n      dup1\n      swap2\n      sub\n      swap1\n      return\n        /* \"contracts/OrderBook.sol\":8924:9026  function getBidState (uint256 id) public view returns(State) {... */\n    tag_19:\n      callvalue\n      dup1\n      iszero\n      tag_107\n      jumpi\n      0x00\n      dup1\n      revert\n    tag_107:\n      pop\n      tag_108\n      0x04\n      dup1\n      calldatasize\n      sub\n      dup2\n      add\n      swap1\n      tag_109\n      swap2\n      swap1\n      tag_36\n      jump\t// in\n    tag_109:\n      tag_110\n      jump\t// in\n    tag_108:\n      mload(0x40)\n      tag_111\n      swap2\n      swap1\n      tag_65\n      jump\t// in\n    tag_111:\n      mload(0x40)\n      dup1\n      swap2\n      sub\n      swap1\n      return\n        /* \"contracts/OrderBook.sol\":7749:7905  function appendString(uint256 a, uint256 b) public pure returns (string memory) {... */\n    tag_20:\n      callvalue\n      dup1\n      iszero\n      tag_112\n      jumpi\n      0x00\n      dup1\n      revert\n    tag_112:\n      pop\n      tag_113\n      0x04\n      dup1\n      calldatasize\n      sub\n      dup2\n      add\n      swap1\n      tag_114\n      swap2\n      swap1\n      tag_115\n      jump\t// in\n    tag_114:\n      tag_116\n      jump\t// in\n    tag_113:\n      mload(0x40)\n      tag_117\n      swap2\n      swap1\n      tag_44\n      jump\t// in\n    tag_117:\n      mload(0x40)\n      dup1\n      swap2\n      sub\n      swap1\n      return\n        /* \"contracts/OrderBook.sol\":7980:8048  function fetchYourBidIds() public returns (uint256[] memory) {... */\n    tag_21:\n      callvalue\n      dup1\n      iszero\n      tag_118\n      jumpi\n      0x00\n      dup1\n      revert\n    tag_118:\n      pop\n      tag_119\n      tag_120\n      jump\t// in\n    tag_119:\n      mload(0x40)\n      tag_121\n      swap2\n      swap1\n      tag_32\n      jump\t// in\n    tag_121:\n      mload(0x40)\n      dup1\n      swap2\n      sub\n      swap1\n      return\n        /* \"contracts/OrderBook.sol\":8128:8452  function getOrder(uint256 id) public view returns(address payable,uint256,uint256,State,uint256,uint256,uint256,bool) {... */\n    tag_22:\n      callvalue\n      dup1\n      iszero\n      tag_122\n      jumpi\n      0x00\n      dup1\n      revert\n    tag_122:\n      pop\n      tag_123\n      0x04\n      dup1\n      calldatasize\n      sub\n      dup2\n      add\n      swap1\n      tag_124\n      swap2\n      swap1\n      tag_36\n      jump\t// in\n    tag_124:\n      tag_125\n      jump\t// in\n    tag_123:\n      mload(0x40)\n      tag_126\n      swap9\n      swap8\n      swap7\n      swap6\n      swap5\n      swap4\n      swap3\n      swap2\n      swap1\n      tag_127\n      jump\t// in\n    tag_126:\n      mload(0x40)\n      dup1\n      swap2\n      sub\n      swap1\n      return\n        /* \"contracts/OrderBook.sol\":8814:8918  function getAskValue (uint256 id) public view returns(uint256) {... */\n    tag_23:\n      callvalue\n      dup1\n      iszero\n      tag_128\n      jumpi\n      0x00\n      dup1\n      revert\n    tag_128:\n      pop\n      tag_129\n      0x04\n      dup1\n      calldatasize\n      sub\n      dup2\n      add\n      swap1\n      tag_130\n      swap2\n      swap1\n      tag_36\n      jump\t// in\n    tag_130:\n      tag_131\n      jump\t// in\n    tag_129:\n      mload(0x40)\n      tag_132\n      swap2\n      swap1\n      tag_50\n      jump\t// in\n    tag_132:\n      mload(0x40)\n      dup1\n      swap2\n      sub\n      swap1\n      return\n        /* \"contracts/OrderBook.sol\":1998:2020  uint256 public askTail */\n    tag_24:\n      callvalue\n      dup1\n      iszero\n      tag_133\n      jumpi\n      0x00\n      dup1\n      revert\n    tag_133:\n      pop\n      tag_134\n      tag_135\n      jump\t// in\n    tag_134:\n      mload(0x40)\n      tag_136\n      swap2\n      swap1\n      tag_50\n      jump\t// in\n    tag_136:\n      mload(0x40)\n      dup1\n      swap2\n      sub\n      swap1\n      return\n        /* \"contracts/OrderBook.sol\":8054:8122  function fetchYourAskIds() public returns (uint256[] memory) {... */\n    tag_30:\n        /* \"contracts/OrderBook.sol\":8097:8113  uint256[] memory */\n      0x60\n        /* \"contracts/OrderBook.sol\":8054:8122  function fetchYourAskIds() public returns (uint256[] memory) {... */\n      swap1\n      jump\t// out\n        /* \"contracts/OrderBook.sol\":7192:7484  function cancelAsk (uint256 askId) public isPending(askBook[askId]) isAuthorised(askBook[askId], msg.sender) {... */\n    tag_37:\n        /* \"contracts/OrderBook.sol\":7244:7251  askBook */\n      0x07\n        /* \"contracts/OrderBook.sol\":7244:7258  askBook[askId] */\n      0x00\n        /* \"contracts/OrderBook.sol\":7252:7257  askId */\n      dup3\n        /* \"contracts/OrderBook.sol\":7244:7258  askBook[askId] */\n      dup2\n      mstore\n      0x20\n      add\n      swap1\n      dup2\n      mstore\n      0x20\n      add\n      0x00\n      keccak256\n        /* \"contracts/OrderBook.sol\":2565:2688  modifier isPending(order memory _order) {... */\n      mload(0x40)\n      dup1\n      0xe0\n      add\n      0x40\n      mstore\n      swap1\n      dup2\n      0x00\n      dup3\n      add\n      0x00\n      swap1\n      sload\n      swap1\n      0x0100\n      exp\n      swap1\n      div\n      0xffffffffffffffffffffffffffffffffffffffff\n      and\n      0xffffffffffffffffffffffffffffffffffffffff\n      and\n      0xffffffffffffffffffffffffffffffffffffffff\n      and\n      dup2\n      mstore\n      0x20\n      add\n      0x01\n      dup3\n      add\n      sload\n      dup2\n      mstore\n      0x20\n      add\n      0x02\n      dup3\n      add\n      sload\n      dup2\n      mstore\n      0x20\n      add\n      0x03\n      dup3\n      add\n      0x00\n      swap1\n      sload\n      swap1\n      0x0100\n      exp\n      swap1\n      div\n      0xff\n      and\n      0x01\n      dup2\n      gt\n      iszero\n      tag_138\n      jumpi\n      tag_139\n      tag_140\n      jump\t// in\n    tag_139:\n    tag_138:\n      0x01\n      dup2\n      gt\n      iszero\n      tag_141\n      jumpi\n      tag_142\n      tag_140\n      jump\t// in\n    tag_142:\n    tag_141:\n      dup2\n      mstore\n      0x20\n      add\n      0x04\n      dup3\n      add\n      sload\n      dup2\n      mstore\n      0x20\n      add\n      0x05\n      dup3\n      add\n      sload\n      dup2\n      mstore\n      0x20\n      add\n      0x06\n      dup3\n      add\n      sload\n      dup2\n      mstore\n      pop\n      pop\n        /* \"contracts/OrderBook.sol\":2639:2652  State.pending */\n      0x00\n        /* \"contracts/OrderBook.sol\":2623:2652  _order.state == State.pending */\n      0x01\n      dup2\n      gt\n      iszero\n      tag_144\n      jumpi\n      tag_145\n      tag_140\n      jump\t// in\n    tag_145:\n    tag_144:\n        /* \"contracts/OrderBook.sol\":2623:2629  _order */\n      dup2\n        /* \"contracts/OrderBook.sol\":2623:2635  _order.state */\n      0x60\n      add\n      mload\n        /* \"contracts/OrderBook.sol\":2623:2652  _order.state == State.pending */\n      0x01\n      dup2\n      gt\n      iszero\n      tag_146\n      jumpi\n      tag_147\n      tag_140\n      jump\t// in\n    tag_147:\n    tag_146:\n      eq\n        /* \"contracts/OrderBook.sol\":2615:2670  require(_order.state == State.pending, \"Order Pending\") */\n      tag_148\n      jumpi\n      mload(0x40)\n      0x08c379a000000000000000000000000000000000000000000000000000000000\n      dup2\n      mstore\n      0x04\n      add\n      tag_149\n      swap1\n      tag_150\n      jump\t// in\n    tag_149:\n      mload(0x40)\n      dup1\n      swap2\n      sub\n      swap1\n      revert\n    tag_148:\n        /* \"contracts/OrderBook.sol\":7273:7280  askBook */\n      0x07\n        /* \"contracts/OrderBook.sol\":7273:7287  askBook[askId] */\n      0x00\n        /* \"contracts/OrderBook.sol\":7281:7286  askId */\n      dup4\n        /* \"contracts/OrderBook.sol\":7273:7287  askBook[askId] */\n      dup2\n      mstore\n      0x20\n      add\n      swap1\n      dup2\n      mstore\n      0x20\n      add\n      0x00\n      keccak256\n        /* \"contracts/OrderBook.sol\":2694:2833  modifier isAuthorised(order memory _order, address sender) {... */\n      mload(0x40)\n      dup1\n      0xe0\n      add\n      0x40\n      mstore\n      swap1\n      dup2\n      0x00\n      dup3\n      add\n      0x00\n      swap1\n      sload\n      swap1\n      0x0100\n      exp\n      swap1\n      div\n      0xffffffffffffffffffffffffffffffffffffffff\n      and\n      0xffffffffffffffffffffffffffffffffffffffff\n      and\n      0xffffffffffffffffffffffffffffffffffffffff\n      and\n      dup2\n      mstore\n      0x20\n      add\n      0x01\n      dup3\n      add\n      sload\n      dup2\n      mstore\n      0x20\n      add\n      0x02\n      dup3\n      add\n      sload\n      dup2\n      mstore\n      0x20\n      add\n      0x03\n      dup3\n      add\n      0x00\n      swap1\n      sload\n      swap1\n      0x0100\n      exp\n      swap1\n      div\n      0xff\n      and\n      0x01\n      dup2\n      gt\n      iszero\n      tag_151\n      jumpi\n      tag_152\n      tag_140\n      jump\t// in\n    tag_152:\n    tag_151:\n      0x01\n      dup2\n      gt\n      iszero\n      tag_153\n      jumpi\n      tag_154\n      tag_140\n      jump\t// in\n    tag_154:\n    tag_153:\n      dup2\n      mstore\n      0x20\n      add\n      0x04\n      dup3\n      add\n      sload\n      dup2\n      mstore\n      0x20\n      add\n      0x05\n      dup3\n      add\n      sload\n      dup2\n      mstore\n      0x20\n      add\n      0x06\n      dup3\n      add\n      sload\n      dup2\n      mstore\n      pop\n      pop\n        /* \"contracts/OrderBook.sol\":7289:7299  msg.sender */\n      caller\n        /* \"contracts/OrderBook.sol\":2790:2796  sender */\n      dup1\n        /* \"contracts/OrderBook.sol\":2771:2796  _order.customer == sender */\n      0xffffffffffffffffffffffffffffffffffffffff\n      and\n        /* \"contracts/OrderBook.sol\":2771:2777  _order */\n      dup3\n        /* \"contracts/OrderBook.sol\":2771:2786  _order.customer */\n      0x00\n      add\n      mload\n        /* \"contracts/OrderBook.sol\":2771:2796  _order.customer == sender */\n      0xffffffffffffffffffffffffffffffffffffffff\n      and\n      eq\n        /* \"contracts/OrderBook.sol\":2763:2815  require(_order.customer == sender, \"Not Authorised\") */\n      tag_156\n      jumpi\n      mload(0x40)\n      0x08c379a000000000000000000000000000000000000000000000000000000000\n      dup2\n      mstore\n      0x04\n      add\n      tag_157\n      swap1\n      tag_158\n      jump\t// in\n    tag_157:\n      mload(0x40)\n      dup1\n      swap2\n      sub\n      swap1\n      revert\n    tag_156:\n        /* \"contracts/OrderBook.sol\":2680:2681  _ */\n      pop\n      pop\n        /* \"contracts/OrderBook.sol\":7192:7484  function cancelAsk (uint256 askId) public isPending(askBook[askId]) isAuthorised(askBook[askId], msg.sender) {... */\n      pop\n      pop\n      jump\t// out\n        /* \"contracts/OrderBook.sol\":5759:5905  function concatenate(string memory a,string memory b) public pure returns (string memory){... */\n    tag_42:\n        /* \"contracts/OrderBook.sol\":5834:5847  string memory */\n      0x60\n        /* \"contracts/OrderBook.sol\":5889:5890  a */\n      dup3\n        /* \"contracts/OrderBook.sol\":5895:5896  b */\n      dup3\n        /* \"contracts/OrderBook.sol\":5872:5897  abi.encodePacked(a,' ',b) */\n      add(0x20, mload(0x40))\n      tag_161\n      swap3\n      swap2\n      swap1\n      tag_162\n      jump\t// in\n    tag_161:\n      mload(0x40)\n      0x20\n      dup2\n      dup4\n      sub\n      sub\n      dup2\n      mstore\n      swap1\n      0x40\n      mstore\n        /* \"contracts/OrderBook.sol\":5858:5898  return string(abi.encodePacked(a,' ',b)) */\n      swap1\n      pop\n        /* \"contracts/OrderBook.sol\":5759:5905  function concatenate(string memory a,string memory b) public pure returns (string memory){... */\n      swap3\n      swap2\n      pop\n      pop\n      jump\t// out\n        /* \"contracts/OrderBook.sol\":8704:8808  function getBidValue (uint256 id) public view returns(uint256) {... */\n    tag_48:\n        /* \"contracts/OrderBook.sol\":8758:8765  uint256 */\n      0x00\n        /* \"contracts/OrderBook.sol\":8784:8791  bidBook */\n      0x03\n        /* \"contracts/OrderBook.sol\":8784:8795  bidBook[id] */\n      0x00\n        /* \"contracts/OrderBook.sol\":8792:8794  id */\n      dup4\n        /* \"contracts/OrderBook.sol\":8784:8795  bidBook[id] */\n      dup2\n      mstore\n      0x20\n      add\n      swap1\n      dup2\n      mstore\n      0x20\n      add\n      0x00\n      keccak256\n        /* \"contracts/OrderBook.sol\":8784:8801  bidBook[id].value */\n      0x01\n      add\n      sload\n        /* \"contracts/OrderBook.sol\":8777:8801  return bidBook[id].value */\n      swap1\n      pop\n        /* \"contracts/OrderBook.sol\":8704:8808  function getBidValue (uint256 id) public view returns(uint256) {... */\n      swap2\n      swap1\n      pop\n      jump\t// out\n        /* \"contracts/OrderBook.sol\":7911:7973  function fetchAllBid() public returns (order[] memory) {... */\n    tag_53:\n        /* \"contracts/OrderBook.sol\":7950:7964  order[] memory */\n      0x60\n        /* \"contracts/OrderBook.sol\":7911:7973  function fetchAllBid() public returns (order[] memory) {... */\n      swap1\n      jump\t// out\n        /* \"contracts/OrderBook.sol\":7518:7742  function fetchAsk() public view returns (string memory) {... */\n    tag_58:\n        /* \"contracts/OrderBook.sol\":7559:7572  string memory */\n      0x60\n        /* \"contracts/OrderBook.sol\":7584:7599  uint256 current */\n      0x00\n        /* \"contracts/OrderBook.sol\":7602:7609  askHead */\n      sload(0x08)\n        /* \"contracts/OrderBook.sol\":7584:7609  uint256 current = askHead */\n      swap1\n      pop\n        /* \"contracts/OrderBook.sol\":7619:7639  string memory output */\n      0x00\n        /* \"contracts/OrderBook.sol\":7619:7644  string memory output = \"\" */\n      mload(0x40)\n      dup1\n      0x20\n      add\n      0x40\n      mstore\n      dup1\n      0x00\n      dup2\n      mstore\n      pop\n      swap1\n      pop\n        /* \"contracts/OrderBook.sol\":7654:7736  while (current != 0) {... */\n    tag_166:\n        /* \"contracts/OrderBook.sol\":7672:7673  0 */\n      0x00\n        /* \"contracts/OrderBook.sol\":7661:7668  current */\n      dup3\n        /* \"contracts/OrderBook.sol\":7661:7673  current != 0 */\n      eq\n        /* \"contracts/OrderBook.sol\":7654:7736  while (current != 0) {... */\n      tag_167\n      jumpi\n        /* \"contracts/OrderBook.sol\":7689:7701  uint256 next */\n      0x00\n        /* \"contracts/OrderBook.sol\":7704:7711  askBook */\n      0x07\n        /* \"contracts/OrderBook.sol\":7704:7720  askBook[current] */\n      0x00\n        /* \"contracts/OrderBook.sol\":7712:7719  current */\n      dup5\n        /* \"contracts/OrderBook.sol\":7704:7720  askBook[current] */\n      dup2\n      mstore\n      0x20\n      add\n      swap1\n      dup2\n      mstore\n      0x20\n      add\n      0x00\n      keccak256\n        /* \"contracts/OrderBook.sol\":7704:7725  askBook[current].next */\n      0x05\n      add\n      sload\n        /* \"contracts/OrderBook.sol\":7689:7725  uint256 next = askBook[current].next */\n      swap1\n      pop\n        /* \"contracts/OrderBook.sol\":7675:7736  {... */\n      pop\n        /* \"contracts/OrderBook.sol\":7654:7736  while (current != 0) {... */\n      jump(tag_166)\n    tag_167:\n        /* \"contracts/OrderBook.sol\":7574:7742  {... */\n      pop\n      pop\n        /* \"contracts/OrderBook.sol\":7518:7742  function fetchAsk() public view returns (string memory) {... */\n      swap1\n      jump\t// out\n        /* \"contracts/OrderBook.sol\":9032:9134  function getAskState (uint256 id) public view returns(State) {... */\n    tag_63:\n        /* \"contracts/OrderBook.sol\":9086:9091  State */\n      0x00\n        /* \"contracts/OrderBook.sol\":9110:9117  askBook */\n      0x07\n        /* \"contracts/OrderBook.sol\":9110:9121  askBook[id] */\n      0x00\n        /* \"contracts/OrderBook.sol\":9118:9120  id */\n      dup4\n        /* \"contracts/OrderBook.sol\":9110:9121  askBook[id] */\n      dup2\n      mstore\n      0x20\n      add\n      swap1\n      dup2\n      mstore\n      0x20\n      add\n      0x00\n      keccak256\n        /* \"contracts/OrderBook.sol\":9110:9127  askBook[id].state */\n      0x03\n      add\n      0x00\n      swap1\n      sload\n      swap1\n      0x0100\n      exp\n      swap1\n      div\n      0xff\n      and\n        /* \"contracts/OrderBook.sol\":9103:9127  return askBook[id].state */\n      swap1\n      pop\n        /* \"contracts/OrderBook.sol\":9032:9134  function getAskState (uint256 id) public view returns(State) {... */\n      swap2\n      swap1\n      pop\n      jump\t// out\n        /* \"contracts/OrderBook.sol\":8458:8575  function getBidAddress (uint256 id) public view returns(address payable) {... */\n    tag_69:\n        /* \"contracts/OrderBook.sol\":8514:8529  address payable */\n      0x00\n        /* \"contracts/OrderBook.sol\":8548:8555  bidBook */\n      0x03\n        /* \"contracts/OrderBook.sol\":8548:8559  bidBook[id] */\n      0x00\n        /* \"contracts/OrderBook.sol\":8556:8558  id */\n      dup4\n        /* \"contracts/OrderBook.sol\":8548:8559  bidBook[id] */\n      dup2\n      mstore\n      0x20\n      add\n      swap1\n      dup2\n      mstore\n      0x20\n      add\n      0x00\n      keccak256\n        /* \"contracts/OrderBook.sol\":8548:8568  bidBook[id].customer */\n      0x00\n      add\n      0x00\n      swap1\n      sload\n      swap1\n      0x0100\n      exp\n      swap1\n      div\n      0xffffffffffffffffffffffffffffffffffffffff\n      and\n        /* \"contracts/OrderBook.sol\":8541:8568  return bidBook[id].customer */\n      swap1\n      pop\n        /* \"contracts/OrderBook.sol\":8458:8575  function getBidAddress (uint256 id) public view returns(address payable) {... */\n      swap2\n      swap1\n      pop\n      jump\t// out\n        /* \"contracts/OrderBook.sol\":1797:1819  uint256 public bidHead */\n    tag_74:\n      sload(0x04)\n      dup2\n      jump\t// out\n        /* \"contracts/OrderBook.sol\":8581:8698  function getAskAddress (uint256 id) public view returns(address payable) {... */\n    tag_79:\n        /* \"contracts/OrderBook.sol\":8637:8652  address payable */\n      0x00\n        /* \"contracts/OrderBook.sol\":8671:8678  askBook */\n      0x07\n        /* \"contracts/OrderBook.sol\":8671:8682  askBook[id] */\n      0x00\n        /* \"contracts/OrderBook.sol\":8679:8681  id */\n      dup4\n        /* \"contracts/OrderBook.sol\":8671:8682  askBook[id] */\n      dup2\n      mstore\n      0x20\n      add\n      swap1\n      dup2\n      mstore\n      0x20\n      add\n      0x00\n      keccak256\n        /* \"contracts/OrderBook.sol\":8671:8691  askBook[id].customer */\n      0x00\n      add\n      0x00\n      swap1\n      sload\n      swap1\n      0x0100\n      exp\n      swap1\n      div\n      0xffffffffffffffffffffffffffffffffffffffff\n      and\n        /* \"contracts/OrderBook.sol\":8664:8691  return askBook[id].customer */\n      swap1\n      pop\n        /* \"contracts/OrderBook.sol\":8581:8698  function getAskAddress (uint256 id) public view returns(address payable) {... */\n      swap2\n      swap1\n      pop\n      jump\t// out\n        /* \"contracts/OrderBook.sol\":6782:7186  function placeAsk (uint256 price) public payable {... */\n    tag_83:\n        /* \"contracts/OrderBook.sol\":6858:6859  0 */\n      0x00\n        /* \"contracts/OrderBook.sol\":6849:6854  price */\n      dup2\n        /* \"contracts/OrderBook.sol\":6849:6859  price >= 0 */\n      lt\n      iszero\n        /* \"contracts/OrderBook.sol\":6841:6895  require(price >= 0, \"price value must be more than 0\") */\n      tag_172\n      jumpi\n      mload(0x40)\n      0x08c379a000000000000000000000000000000000000000000000000000000000\n      dup2\n      mstore\n      0x04\n      add\n      tag_173\n      swap1\n      tag_174\n      jump\t// in\n    tag_173:\n      mload(0x40)\n      dup1\n      swap2\n      sub\n      swap1\n      revert\n    tag_172:\n        /* \"contracts/OrderBook.sol\":6926:6931  price */\n      dup1\n        /* \"contracts/OrderBook.sol\":6913:6922  msg.value */\n      callvalue\n        /* \"contracts/OrderBook.sol\":6913:6931  msg.value >= price */\n      lt\n      iszero\n        /* \"contracts/OrderBook.sol\":6905:6966  require(msg.value >= price, \"Not enough blance to place ask\") */\n      tag_175\n      jumpi\n      mload(0x40)\n      0x08c379a000000000000000000000000000000000000000000000000000000000\n      dup2\n      mstore\n      0x04\n      add\n      tag_176\n      swap1\n      tag_177\n      jump\t// in\n    tag_176:\n      mload(0x40)\n      dup1\n      swap2\n      sub\n      swap1\n      revert\n    tag_175:\n        /* \"contracts/OrderBook.sol\":6976:6988  uint256 time */\n      0x00\n        /* \"contracts/OrderBook.sol\":6991:7006  block.timestamp */\n      timestamp\n        /* \"contracts/OrderBook.sol\":6976:7006  uint256 time = block.timestamp */\n      swap1\n      pop\n        /* \"contracts/OrderBook.sol\":7016:7041  uint256 commissionedPrice */\n      0x00\n        /* \"contracts/OrderBook.sol\":7075:7078  100 */\n      0x64\n        /* \"contracts/OrderBook.sol\":7061:7071  commission */\n      sload(0x02)\n        /* \"contracts/OrderBook.sol\":7057:7060  100 */\n      0x64\n        /* \"contracts/OrderBook.sol\":7057:7071  100-commission */\n      tag_178\n      swap2\n      swap1\n      tag_179\n      jump\t// in\n    tag_178:\n        /* \"contracts/OrderBook.sol\":7044:7053  msg.value */\n      callvalue\n        /* \"contracts/OrderBook.sol\":7044:7072  msg.value * (100-commission) */\n      tag_180\n      swap2\n      swap1\n      tag_181\n      jump\t// in\n    tag_180:\n        /* \"contracts/OrderBook.sol\":7044:7078  msg.value * (100-commission) / 100 */\n      tag_182\n      swap2\n      swap1\n      tag_183\n      jump\t// in\n    tag_182:\n        /* \"contracts/OrderBook.sol\":7016:7078  uint256 commissionedPrice = msg.value * (100-commission) / 100 */\n      swap1\n      pop\n        /* \"contracts/OrderBook.sol\":7088:7107  order memory newAsk */\n      0x00\n        /* \"contracts/OrderBook.sol\":7110:7154  createAsk(msg.sender,time,commissionedPrice) */\n      tag_184\n        /* \"contracts/OrderBook.sol\":7120:7130  msg.sender */\n      caller\n        /* \"contracts/OrderBook.sol\":7131:7135  time */\n      dup5\n        /* \"contracts/OrderBook.sol\":7136:7153  commissionedPrice */\n      dup5\n        /* \"contracts/OrderBook.sol\":7110:7119  createAsk */\n      tag_185\n        /* \"contracts/OrderBook.sol\":7110:7154  createAsk(msg.sender,time,commissionedPrice) */\n      jump\t// in\n    tag_184:\n        /* \"contracts/OrderBook.sol\":7088:7154  order memory newAsk = createAsk(msg.sender,time,commissionedPrice) */\n      swap1\n      pop\n        /* \"contracts/OrderBook.sol\":7164:7179  sortAsk(newAsk) */\n      tag_186\n        /* \"contracts/OrderBook.sol\":7172:7178  newAsk */\n      dup2\n        /* \"contracts/OrderBook.sol\":7164:7171  sortAsk */\n      tag_187\n        /* \"contracts/OrderBook.sol\":7164:7179  sortAsk(newAsk) */\n      jump\t// in\n    tag_186:\n        /* \"contracts/OrderBook.sol\":6831:7186  {... */\n      pop\n      pop\n      pop\n        /* \"contracts/OrderBook.sol\":6782:7186  function placeAsk (uint256 price) public payable {... */\n      pop\n      jump\t// out\n        /* \"contracts/OrderBook.sol\":1825:1847  uint256 public bidTail */\n    tag_86:\n      sload(0x05)\n      dup2\n      jump\t// out\n        /* \"contracts/OrderBook.sol\":1970:1992  uint256 public askHead */\n    tag_90:\n      sload(0x08)\n      dup2\n      jump\t// out\n        /* \"contracts/OrderBook.sol\":6519:6776  function cancelBid (uint256 bidId) public isPending(bidBook[bidId]) isAuthorised(bidBook[bidId], msg.sender) {... */\n    tag_95:\n        /* \"contracts/OrderBook.sol\":6571:6578  bidBook */\n      0x03\n        /* \"contracts/OrderBook.sol\":6571:6585  bidBook[bidId] */\n      0x00\n        /* \"contracts/OrderBook.sol\":6579:6584  bidId */\n      dup3\n        /* \"contracts/OrderBook.sol\":6571:6585  bidBook[bidId] */\n      dup2\n      mstore\n      0x20\n      add\n      swap1\n      dup2\n      mstore\n      0x20\n      add\n      0x00\n      keccak256\n        /* \"contracts/OrderBook.sol\":2565:2688  modifier isPending(order memory _order) {... */\n      mload(0x40)\n      dup1\n      0xe0\n      add\n      0x40\n      mstore\n      swap1\n      dup2\n      0x00\n      dup3\n      add\n      0x00\n      swap1\n      sload\n      swap1\n      0x0100\n      exp\n      swap1\n      div\n      0xffffffffffffffffffffffffffffffffffffffff\n      and\n      0xffffffffffffffffffffffffffffffffffffffff\n      and\n      0xffffffffffffffffffffffffffffffffffffffff\n      and\n      dup2\n      mstore\n      0x20\n      add\n      0x01\n      dup3\n      add\n      sload\n      dup2\n      mstore\n      0x20\n      add\n      0x02\n      dup3\n      add\n      sload\n      dup2\n      mstore\n      0x20\n      add\n      0x03\n      dup3\n      add\n      0x00\n      swap1\n      sload\n      swap1\n      0x0100\n      exp\n      swap1\n      div\n      0xff\n      and\n      0x01\n      dup2\n      gt\n      iszero\n      tag_188\n      jumpi\n      tag_189\n      tag_140\n      jump\t// in\n    tag_189:\n    tag_188:\n      0x01\n      dup2\n      gt\n      iszero\n      tag_190\n      jumpi\n      tag_191\n      tag_140\n      jump\t// in\n    tag_191:\n    tag_190:\n      dup2\n      mstore\n      0x20\n      add\n      0x04\n      dup3\n      add\n      sload\n      dup2\n      mstore\n      0x20\n      add\n      0x05\n      dup3\n      add\n      sload\n      dup2\n      mstore\n      0x20\n      add\n      0x06\n      dup3\n      add\n      sload\n      dup2\n      mstore\n      pop\n      pop\n        /* \"contracts/OrderBook.sol\":2639:2652  State.pending */\n      0x00\n        /* \"contracts/OrderBook.sol\":2623:2652  _order.state == State.pending */\n      0x01\n      dup2\n      gt\n      iszero\n      tag_193\n      jumpi\n      tag_194\n      tag_140\n      jump\t// in\n    tag_194:\n    tag_193:\n        /* \"contracts/OrderBook.sol\":2623:2629  _order */\n      dup2\n        /* \"contracts/OrderBook.sol\":2623:2635  _order.state */\n      0x60\n      add\n      mload\n        /* \"contracts/OrderBook.sol\":2623:2652  _order.state == State.pending */\n      0x01\n      dup2\n      gt\n      iszero\n      tag_195\n      jumpi\n      tag_196\n      tag_140\n      jump\t// in\n    tag_196:\n    tag_195:\n      eq\n        /* \"contracts/OrderBook.sol\":2615:2670  require(_order.state == State.pending, \"Order Pending\") */\n      tag_197\n      jumpi\n      mload(0x40)\n      0x08c379a000000000000000000000000000000000000000000000000000000000\n      dup2\n      mstore\n      0x04\n      add\n      tag_198\n      swap1\n      tag_150\n      jump\t// in\n    tag_198:\n      mload(0x40)\n      dup1\n      swap2\n      sub\n      swap1\n      revert\n    tag_197:\n        /* \"contracts/OrderBook.sol\":6600:6607  bidBook */\n      0x03\n        /* \"contracts/OrderBook.sol\":6600:6614  bidBook[bidId] */\n      0x00\n        /* \"contracts/OrderBook.sol\":6608:6613  bidId */\n      dup4\n        /* \"contracts/OrderBook.sol\":6600:6614  bidBook[bidId] */\n      dup2\n      mstore\n      0x20\n      add\n      swap1\n      dup2\n      mstore\n      0x20\n      add\n      0x00\n      keccak256\n        /* \"contracts/OrderBook.sol\":2694:2833  modifier isAuthorised(order memory _order, address sender) {... */\n      mload(0x40)\n      dup1\n      0xe0\n      add\n      0x40\n      mstore\n      swap1\n      dup2\n      0x00\n      dup3\n      add\n      0x00\n      swap1\n      sload\n      swap1\n      0x0100\n      exp\n      swap1\n      div\n      0xffffffffffffffffffffffffffffffffffffffff\n      and\n      0xffffffffffffffffffffffffffffffffffffffff\n      and\n      0xffffffffffffffffffffffffffffffffffffffff\n      and\n      dup2\n      mstore\n      0x20\n      add\n      0x01\n      dup3\n      add\n      sload\n      dup2\n      mstore\n      0x20\n      add\n      0x02\n      dup3\n      add\n      sload\n      dup2\n      mstore\n      0x20\n      add\n      0x03\n      dup3\n      add\n      0x00\n      swap1\n      sload\n      swap1\n      0x0100\n      exp\n      swap1\n      div\n      0xff\n      and\n      0x01\n      dup2\n      gt\n      iszero\n      tag_199\n      jumpi\n      tag_200\n      tag_140\n      jump\t// in\n    tag_200:\n    tag_199:\n      0x01\n      dup2\n      gt\n      iszero\n      tag_201\n      jumpi\n      tag_202\n      tag_140\n      jump\t// in\n    tag_202:\n    tag_201:\n      dup2\n      mstore\n      0x20\n      add\n      0x04\n      dup3\n      add\n      sload\n      dup2\n      mstore\n      0x20\n      add\n      0x05\n      dup3\n      add\n      sload\n      dup2\n      mstore\n      0x20\n      add\n      0x06\n      dup3\n      add\n      sload\n      dup2\n      mstore\n      pop\n      pop\n        /* \"contracts/OrderBook.sol\":6616:6626  msg.sender */\n      caller\n        /* \"contracts/OrderBook.sol\":2790:2796  sender */\n      dup1\n        /* \"contracts/OrderBook.sol\":2771:2796  _order.customer == sender */\n      0xffffffffffffffffffffffffffffffffffffffff\n      and\n        /* \"contracts/OrderBook.sol\":2771:2777  _order */\n      dup3\n        /* \"contracts/OrderBook.sol\":2771:2786  _order.customer */\n      0x00\n      add\n      mload\n        /* \"contracts/OrderBook.sol\":2771:2796  _order.customer == sender */\n      0xffffffffffffffffffffffffffffffffffffffff\n      and\n      eq\n        /* \"contracts/OrderBook.sol\":2763:2815  require(_order.customer == sender, \"Not Authorised\") */\n      tag_204\n      jumpi\n      mload(0x40)\n      0x08c379a000000000000000000000000000000000000000000000000000000000\n      dup2\n      mstore\n      0x04\n      add\n      tag_205\n      swap1\n      tag_158\n      jump\t// in\n    tag_205:\n      mload(0x40)\n      dup1\n      swap2\n      sub\n      swap1\n      revert\n    tag_204:\n        /* \"contracts/OrderBook.sol\":2680:2681  _ */\n      pop\n      pop\n        /* \"contracts/OrderBook.sol\":6519:6776  function cancelBid (uint256 bidId) public isPending(bidBook[bidId]) isAuthorised(bidBook[bidId], msg.sender) {... */\n      pop\n      pop\n      jump\t// out\n        /* \"contracts/OrderBook.sol\":5944:6513  function placeBid (uint256 price) public payable {... */\n    tag_98:\n        /* \"contracts/OrderBook.sol\":6020:6021  0 */\n      0x00\n        /* \"contracts/OrderBook.sol\":6011:6016  price */\n      dup2\n        /* \"contracts/OrderBook.sol\":6011:6021  price >= 0 */\n      lt\n      iszero\n        /* \"contracts/OrderBook.sol\":6003:6057  require(price >= 0, \"price value must be more than 0\") */\n      tag_208\n      jumpi\n      mload(0x40)\n      0x08c379a000000000000000000000000000000000000000000000000000000000\n      dup2\n      mstore\n      0x04\n      add\n      tag_209\n      swap1\n      tag_174\n      jump\t// in\n    tag_209:\n      mload(0x40)\n      dup1\n      swap2\n      sub\n      swap1\n      revert\n    tag_208:\n        /* \"contracts/OrderBook.sol\":6088:6093  price */\n      dup1\n        /* \"contracts/OrderBook.sol\":6075:6084  msg.value */\n      callvalue\n        /* \"contracts/OrderBook.sol\":6075:6093  msg.value >= price */\n      lt\n      iszero\n        /* \"contracts/OrderBook.sol\":6067:6128  require(msg.value >= price, \"Not enough blance to place bid\") */\n      tag_210\n      jumpi\n      mload(0x40)\n      0x08c379a000000000000000000000000000000000000000000000000000000000\n      dup2\n      mstore\n      0x04\n      add\n      tag_211\n      swap1\n      tag_212\n      jump\t// in\n    tag_211:\n      mload(0x40)\n      dup1\n      swap2\n      sub\n      swap1\n      revert\n    tag_210:\n        /* \"contracts/OrderBook.sol\":5944:6513  function placeBid (uint256 price) public payable {... */\n      pop\n      jump\t// out\n        /* \"contracts/OrderBook.sol\":2026:2049  uint256 public askCount */\n    tag_101:\n      sload(0x0a)\n      dup2\n      jump\t// out\n        /* \"contracts/OrderBook.sol\":1853:1876  uint256 public bidCount */\n    tag_105:\n      sload(0x06)\n      dup2\n      jump\t// out\n        /* \"contracts/OrderBook.sol\":8924:9026  function getBidState (uint256 id) public view returns(State) {... */\n    tag_110:\n        /* \"contracts/OrderBook.sol\":8978:8983  State */\n      0x00\n        /* \"contracts/OrderBook.sol\":9002:9009  bidBook */\n      0x03\n        /* \"contracts/OrderBook.sol\":9002:9013  bidBook[id] */\n      0x00\n        /* \"contracts/OrderBook.sol\":9010:9012  id */\n      dup4\n        /* \"contracts/OrderBook.sol\":9002:9013  bidBook[id] */\n      dup2\n      mstore\n      0x20\n      add\n      swap1\n      dup2\n      mstore\n      0x20\n      add\n      0x00\n      keccak256\n        /* \"contracts/OrderBook.sol\":9002:9019  bidBook[id].state */\n      0x03\n      add\n      0x00\n      swap1\n      sload\n      swap1\n      0x0100\n      exp\n      swap1\n      div\n      0xff\n      and\n        /* \"contracts/OrderBook.sol\":8995:9019  return bidBook[id].state */\n      swap1\n      pop\n        /* \"contracts/OrderBook.sol\":8924:9026  function getBidState (uint256 id) public view returns(State) {... */\n      swap2\n      swap1\n      pop\n      jump\t// out\n        /* \"contracts/OrderBook.sol\":7749:7905  function appendString(uint256 a, uint256 b) public pure returns (string memory) {... */\n    tag_116:\n        /* \"contracts/OrderBook.sol\":7814:7827  string memory */\n      0x60\n        /* \"contracts/OrderBook.sol\":7874:7875  a */\n      dup3\n        /* \"contracts/OrderBook.sol\":7866:7876  bytes32(a) */\n      0x00\n      shl\n        /* \"contracts/OrderBook.sol\":7894:7895  b */\n      dup3\n        /* \"contracts/OrderBook.sol\":7886:7896  bytes32(b) */\n      0x00\n      shl\n        /* \"contracts/OrderBook.sol\":7853:7897  bytes.concat(bytes32(a), \" , \" , bytes32(b)) */\n      add(0x20, mload(0x40))\n      tag_215\n      swap3\n      swap2\n      swap1\n      tag_216\n      jump\t// in\n    tag_215:\n      mload(0x40)\n      0x20\n      dup2\n      dup4\n      sub\n      sub\n      dup2\n      mstore\n      swap1\n      0x40\n      mstore\n        /* \"contracts/OrderBook.sol\":7839:7898  return string(bytes.concat(bytes32(a), \" , \" , bytes32(b))) */\n      swap1\n      pop\n        /* \"contracts/OrderBook.sol\":7749:7905  function appendString(uint256 a, uint256 b) public pure returns (string memory) {... */\n      swap3\n      swap2\n      pop\n      pop\n      jump\t// out\n        /* \"contracts/OrderBook.sol\":7980:8048  function fetchYourBidIds() public returns (uint256[] memory) {... */\n    tag_120:\n        /* \"contracts/OrderBook.sol\":8023:8039  uint256[] memory */\n      0x60\n        /* \"contracts/OrderBook.sol\":7980:8048  function fetchYourBidIds() public returns (uint256[] memory) {... */\n      swap1\n      jump\t// out\n        /* \"contracts/OrderBook.sol\":8128:8452  function getOrder(uint256 id) public view returns(address payable,uint256,uint256,State,uint256,uint256,uint256,bool) {... */\n    tag_125:\n        /* \"contracts/OrderBook.sol\":8178:8193  address payable */\n      0x00\n        /* \"contracts/OrderBook.sol\":8194:8201  uint256 */\n      dup1\n        /* \"contracts/OrderBook.sol\":8202:8209  uint256 */\n      0x00\n        /* \"contracts/OrderBook.sol\":8210:8215  State */\n      dup1\n        /* \"contracts/OrderBook.sol\":8216:8223  uint256 */\n      0x00\n        /* \"contracts/OrderBook.sol\":8224:8231  uint256 */\n      dup1\n        /* \"contracts/OrderBook.sol\":8232:8239  uint256 */\n      0x00\n        /* \"contracts/OrderBook.sol\":8240:8244  bool */\n      dup1\n        /* \"contracts/OrderBook.sol\":8128:8452  function getOrder(uint256 id) public view returns(address payable,uint256,uint256,State,uint256,uint256,uint256,bool) {... */\n      swap2\n      swap4\n      swap6\n      swap8\n      pop\n      swap2\n      swap4\n      swap6\n      swap8\n      jump\t// out\n        /* \"contracts/OrderBook.sol\":8814:8918  function getAskValue (uint256 id) public view returns(uint256) {... */\n    tag_131:\n        /* \"contracts/OrderBook.sol\":8868:8875  uint256 */\n      0x00\n        /* \"contracts/OrderBook.sol\":8894:8901  askBook */\n      0x07\n        /* \"contracts/OrderBook.sol\":8894:8905  askBook[id] */\n      0x00\n        /* \"contracts/OrderBook.sol\":8902:8904  id */\n      dup4\n        /* \"contracts/OrderBook.sol\":8894:8905  askBook[id] */\n      dup2\n      mstore\n      0x20\n      add\n      swap1\n      dup2\n      mstore\n      0x20\n      add\n      0x00\n      keccak256\n        /* \"contracts/OrderBook.sol\":8894:8911  askBook[id].value */\n      0x01\n      add\n      sload\n        /* \"contracts/OrderBook.sol\":8887:8911  return askBook[id].value */\n      swap1\n      pop\n        /* \"contracts/OrderBook.sol\":8814:8918  function getAskValue (uint256 id) public view returns(uint256) {... */\n      swap2\n      swap1\n      pop\n      jump\t// out\n        /* \"contracts/OrderBook.sol\":1998:2020  uint256 public askTail */\n    tag_135:\n      sload(0x09)\n      dup2\n      jump\t// out\n        /* \"contracts/OrderBook.sol\":3350:3828  function createAsk(address customer, uint256 value, uint256 timestamp) internal returns (order memory) {... */\n    tag_185:\n        /* \"contracts/OrderBook.sol\":3439:3451  order memory */\n      tag_220\n      tag_221\n      jump\t// in\n    tag_220:\n        /* \"contracts/OrderBook.sol\":3463:3471  askCount */\n      0x0a\n      0x00\n        /* \"contracts/OrderBook.sol\":3463:3474  askCount ++ */\n      dup2\n      sload\n      dup1\n      swap3\n      swap2\n      swap1\n      tag_223\n      swap1\n      tag_224\n      jump\t// in\n    tag_223:\n      swap2\n      swap1\n      pop\n      sstore\n      pop\n        /* \"contracts/OrderBook.sol\":3484:3503  order memory newAsk */\n      0x00\n        /* \"contracts/OrderBook.sol\":3506:3673  order(... */\n      mload(0x40)\n      dup1\n      0xe0\n      add\n      0x40\n      mstore\n      dup1\n        /* \"contracts/OrderBook.sol\":3533:3541  customer */\n      dup7\n        /* \"contracts/OrderBook.sol\":3506:3673  order(... */\n      0xffffffffffffffffffffffffffffffffffffffff\n      and\n      dup2\n      mstore\n      0x20\n      add\n        /* \"contracts/OrderBook.sol\":3556:3561  value */\n      dup6\n        /* \"contracts/OrderBook.sol\":3506:3673  order(... */\n      dup2\n      mstore\n      0x20\n      add\n        /* \"contracts/OrderBook.sol\":3575:3584  timestamp */\n      dup5\n        /* \"contracts/OrderBook.sol\":3506:3673  order(... */\n      dup2\n      mstore\n      0x20\n      add\n        /* \"contracts/OrderBook.sol\":3598:3611  State.pending */\n      0x00\n        /* \"contracts/OrderBook.sol\":3506:3673  order(... */\n      0x01\n      dup2\n      gt\n      iszero\n      tag_225\n      jumpi\n      tag_226\n      tag_140\n      jump\t// in\n    tag_226:\n    tag_225:\n      dup2\n      mstore\n      0x20\n      add\n        /* \"contracts/OrderBook.sol\":3625:3633  askCount */\n      sload(0x0a)\n        /* \"contracts/OrderBook.sol\":3506:3673  order(... */\n      dup2\n      mstore\n      0x20\n      add\n        /* \"contracts/OrderBook.sol\":3647:3648  0 */\n      0x00\n        /* \"contracts/OrderBook.sol\":3506:3673  order(... */\n      dup2\n      mstore\n      0x20\n      add\n        /* \"contracts/OrderBook.sol\":3662:3663  0 */\n      0x00\n        /* \"contracts/OrderBook.sol\":3506:3673  order(... */\n      dup2\n      mstore\n      pop\n        /* \"contracts/OrderBook.sol\":3484:3673  order memory newAsk = order(... */\n      swap1\n      pop\n        /* \"contracts/OrderBook.sol\":3703:3709  newAsk */\n      dup1\n        /* \"contracts/OrderBook.sol\":3683:3690  askBook */\n      0x07\n        /* \"contracts/OrderBook.sol\":3683:3700  askBook[askCount] */\n      0x00\n        /* \"contracts/OrderBook.sol\":3691:3699  askCount */\n      sload(0x0a)\n        /* \"contracts/OrderBook.sol\":3683:3700  askBook[askCount] */\n      dup2\n      mstore\n      0x20\n      add\n      swap1\n      dup2\n      mstore\n      0x20\n      add\n      0x00\n      keccak256\n        /* \"contracts/OrderBook.sol\":3683:3709  askBook[askCount] = newAsk */\n      0x00\n      dup3\n      add\n      mload\n      dup2\n      0x00\n      add\n      exp(0x0100, 0x00)\n      dup2\n      sload\n      dup2\n      0xffffffffffffffffffffffffffffffffffffffff\n      mul\n      not\n      and\n      swap1\n      dup4\n      0xffffffffffffffffffffffffffffffffffffffff\n      and\n      mul\n      or\n      swap1\n      sstore\n      pop\n      0x20\n      dup3\n      add\n      mload\n      dup2\n      0x01\n      add\n      sstore\n      0x40\n      dup3\n      add\n      mload\n      dup2\n      0x02\n      add\n      sstore\n      0x60\n      dup3\n      add\n      mload\n      dup2\n      0x03\n      add\n      exp(0x0100, 0x00)\n      dup2\n      sload\n      dup2\n      0xff\n      mul\n      not\n      and\n      swap1\n      dup4\n      0x01\n      dup2\n      gt\n      iszero\n      tag_227\n      jumpi\n      tag_228\n      tag_140\n      jump\t// in\n    tag_228:\n    tag_227:\n      mul\n      or\n      swap1\n      sstore\n      pop\n      0x80\n      dup3\n      add\n      mload\n      dup2\n      0x04\n      add\n      sstore\n      0xa0\n      dup3\n      add\n      mload\n      dup2\n      0x05\n      add\n      sstore\n      0xc0\n      dup3\n      add\n      mload\n      dup2\n      0x06\n      add\n      sstore\n      swap1\n      pop\n      pop\n        /* \"contracts/OrderBook.sol\":3724:3795  orderCreated(customer,value,timestamp,State.pending,askCount,0,0,false) */\n      0x93caf6ba1af44020dfe6076e279533e38bd8deefe534c43aa8cc93aad2025b7d\n        /* \"contracts/OrderBook.sol\":3737:3745  customer */\n      dup6\n        /* \"contracts/OrderBook.sol\":3746:3751  value */\n      dup6\n        /* \"contracts/OrderBook.sol\":3752:3761  timestamp */\n      dup6\n        /* \"contracts/OrderBook.sol\":3762:3775  State.pending */\n      0x00\n        /* \"contracts/OrderBook.sol\":3776:3784  askCount */\n      sload(0x0a)\n        /* \"contracts/OrderBook.sol\":3785:3786  0 */\n      0x00\n        /* \"contracts/OrderBook.sol\":3787:3788  0 */\n      dup1\n        /* \"contracts/OrderBook.sol\":3789:3794  false */\n      0x00\n        /* \"contracts/OrderBook.sol\":3724:3795  orderCreated(customer,value,timestamp,State.pending,askCount,0,0,false) */\n      mload(0x40)\n      tag_229\n      swap9\n      swap8\n      swap7\n      swap6\n      swap5\n      swap4\n      swap3\n      swap2\n      swap1\n      tag_230\n      jump\t// in\n    tag_229:\n      mload(0x40)\n      dup1\n      swap2\n      sub\n      swap1\n      log1\n        /* \"contracts/OrderBook.sol\":3815:3821  newAsk */\n      dup1\n        /* \"contracts/OrderBook.sol\":3808:3821  return newAsk */\n      swap2\n      pop\n      pop\n        /* \"contracts/OrderBook.sol\":3350:3828  function createAsk(address customer, uint256 value, uint256 timestamp) internal returns (order memory) {... */\n      swap4\n      swap3\n      pop\n      pop\n      pop\n      jump\t// out\n        /* \"contracts/OrderBook.sol\":4613:5446  function sortAsk(order memory newOrder) internal {... */\n    tag_187:\n        /* \"contracts/OrderBook.sol\":4672:4687  uint256 current */\n      0x00\n        /* \"contracts/OrderBook.sol\":4712:4713  0 */\n      dup1\n        /* \"contracts/OrderBook.sol\":4701:4708  askHead */\n      sload(0x08)\n        /* \"contracts/OrderBook.sol\":4701:4713  askHead == 0 */\n      sub\n        /* \"contracts/OrderBook.sol\":4697:5440  if (askHead == 0) {... */\n      tag_232\n      jumpi\n        /* \"contracts/OrderBook.sol\":4739:4747  newOrder */\n      dup2\n        /* \"contracts/OrderBook.sol\":4739:4750  newOrder.id */\n      0x80\n      add\n      mload\n        /* \"contracts/OrderBook.sol\":4729:4736  askHead */\n      0x08\n        /* \"contracts/OrderBook.sol\":4729:4750  askHead = newOrder.id */\n      dup2\n      swap1\n      sstore\n      pop\n        /* \"contracts/OrderBook.sol\":4697:5440  if (askHead == 0) {... */\n      jump(tag_233)\n    tag_232:\n        /* \"contracts/OrderBook.sol\":4805:4813  newOrder */\n      dup2\n        /* \"contracts/OrderBook.sol\":4805:4819  newOrder.value */\n      0x20\n      add\n      mload\n        /* \"contracts/OrderBook.sol\":4779:4786  askBook */\n      0x07\n        /* \"contracts/OrderBook.sol\":4779:4795  askBook[askHead] */\n      0x00\n        /* \"contracts/OrderBook.sol\":4787:4794  askHead */\n      sload(0x08)\n        /* \"contracts/OrderBook.sol\":4779:4795  askBook[askHead] */\n      dup2\n      mstore\n      0x20\n      add\n      swap1\n      dup2\n      mstore\n      0x20\n      add\n      0x00\n      keccak256\n        /* \"contracts/OrderBook.sol\":4779:4801  askBook[askHead].value */\n      0x01\n      add\n      sload\n        /* \"contracts/OrderBook.sol\":4779:4819  askBook[askHead].value >= newOrder.value */\n      lt\n        /* \"contracts/OrderBook.sol\":4775:5440  if (askBook[askHead].value >= newOrder.value) {... */\n      tag_234\n      jumpi\n        /* \"contracts/OrderBook.sol\":4851:4858  askHead */\n      sload(0x08)\n        /* \"contracts/OrderBook.sol\":4835:4843  newOrder */\n      dup3\n        /* \"contracts/OrderBook.sol\":4835:4848  newOrder.next */\n      0xa0\n      add\n        /* \"contracts/OrderBook.sol\":4835:4858  newOrder.next = askHead */\n      dup2\n      dup2\n      mstore\n      pop\n      pop\n        /* \"contracts/OrderBook.sol\":4902:4910  newOrder */\n      dup2\n        /* \"contracts/OrderBook.sol\":4902:4913  newOrder.id */\n      0x80\n      add\n      mload\n        /* \"contracts/OrderBook.sol\":4872:4879  askBook */\n      0x07\n        /* \"contracts/OrderBook.sol\":4872:4894  askBook[newOrder.next] */\n      0x00\n        /* \"contracts/OrderBook.sol\":4880:4888  newOrder */\n      dup5\n        /* \"contracts/OrderBook.sol\":4880:4893  newOrder.next */\n      0xa0\n      add\n      mload\n        /* \"contracts/OrderBook.sol\":4872:4894  askBook[newOrder.next] */\n      dup2\n      mstore\n      0x20\n      add\n      swap1\n      dup2\n      mstore\n      0x20\n      add\n      0x00\n      keccak256\n        /* \"contracts/OrderBook.sol\":4872:4899  askBook[newOrder.next].prev */\n      0x06\n      add\n        /* \"contracts/OrderBook.sol\":4872:4913  askBook[newOrder.next].prev = newOrder.id */\n      dup2\n      swap1\n      sstore\n      pop\n        /* \"contracts/OrderBook.sol\":4937:4945  newOrder */\n      dup2\n        /* \"contracts/OrderBook.sol\":4937:4948  newOrder.id */\n      0x80\n      add\n      mload\n        /* \"contracts/OrderBook.sol\":4927:4934  askHead */\n      0x08\n        /* \"contracts/OrderBook.sol\":4927:4948  askHead = newOrder.id */\n      dup2\n      swap1\n      sstore\n      pop\n        /* \"contracts/OrderBook.sol\":4775:5440  if (askBook[askHead].value >= newOrder.value) {... */\n      jump(tag_235)\n    tag_234:\n        /* \"contracts/OrderBook.sol\":4997:5004  askHead */\n      sload(0x08)\n        /* \"contracts/OrderBook.sol\":4987:5004  current = askHead */\n      swap1\n      pop\n        /* \"contracts/OrderBook.sol\":5018:5174  while (askBook[current].next != 0 && askBook[askBook[current].next].value < newOrder.value) {... */\n    tag_236:\n        /* \"contracts/OrderBook.sol\":5050:5051  0 */\n      0x00\n        /* \"contracts/OrderBook.sol\":5025:5032  askBook */\n      0x07\n        /* \"contracts/OrderBook.sol\":5025:5041  askBook[current] */\n      0x00\n        /* \"contracts/OrderBook.sol\":5033:5040  current */\n      dup4\n        /* \"contracts/OrderBook.sol\":5025:5041  askBook[current] */\n      dup2\n      mstore\n      0x20\n      add\n      swap1\n      dup2\n      mstore\n      0x20\n      add\n      0x00\n      keccak256\n        /* \"contracts/OrderBook.sol\":5025:5046  askBook[current].next */\n      0x05\n      add\n      sload\n        /* \"contracts/OrderBook.sol\":5025:5051  askBook[current].next != 0 */\n      eq\n      iszero\n        /* \"contracts/OrderBook.sol\":5025:5108  askBook[current].next != 0 && askBook[askBook[current].next].value < newOrder.value */\n      dup1\n      iszero\n      tag_238\n      jumpi\n      pop\n        /* \"contracts/OrderBook.sol\":5094:5102  newOrder */\n      dup2\n        /* \"contracts/OrderBook.sol\":5094:5108  newOrder.value */\n      0x20\n      add\n      mload\n        /* \"contracts/OrderBook.sol\":5055:5062  askBook */\n      0x07\n        /* \"contracts/OrderBook.sol\":5055:5085  askBook[askBook[current].next] */\n      0x00\n        /* \"contracts/OrderBook.sol\":5063:5070  askBook */\n      0x07\n        /* \"contracts/OrderBook.sol\":5063:5079  askBook[current] */\n      0x00\n        /* \"contracts/OrderBook.sol\":5071:5078  current */\n      dup6\n        /* \"contracts/OrderBook.sol\":5063:5079  askBook[current] */\n      dup2\n      mstore\n      0x20\n      add\n      swap1\n      dup2\n      mstore\n      0x20\n      add\n      0x00\n      keccak256\n        /* \"contracts/OrderBook.sol\":5063:5084  askBook[current].next */\n      0x05\n      add\n      sload\n        /* \"contracts/OrderBook.sol\":5055:5085  askBook[askBook[current].next] */\n      dup2\n      mstore\n      0x20\n      add\n      swap1\n      dup2\n      mstore\n      0x20\n      add\n      0x00\n      keccak256\n        /* \"contracts/OrderBook.sol\":5055:5091  askBook[askBook[current].next].value */\n      0x01\n      add\n      sload\n        /* \"contracts/OrderBook.sol\":5055:5108  askBook[askBook[current].next].value < newOrder.value */\n      lt\n        /* \"contracts/OrderBook.sol\":5025:5108  askBook[current].next != 0 && askBook[askBook[current].next].value < newOrder.value */\n    tag_238:\n        /* \"contracts/OrderBook.sol\":5018:5174  while (askBook[current].next != 0 && askBook[askBook[current].next].value < newOrder.value) {... */\n      iszero\n      tag_237\n      jumpi\n        /* \"contracts/OrderBook.sol\":5138:5145  askBook */\n      0x07\n        /* \"contracts/OrderBook.sol\":5138:5154  askBook[current] */\n      0x00\n        /* \"contracts/OrderBook.sol\":5146:5153  current */\n      dup3\n        /* \"contracts/OrderBook.sol\":5138:5154  askBook[current] */\n      dup2\n      mstore\n      0x20\n      add\n      swap1\n      dup2\n      mstore\n      0x20\n      add\n      0x00\n      keccak256\n        /* \"contracts/OrderBook.sol\":5138:5159  askBook[current].next */\n      0x05\n      add\n      sload\n        /* \"contracts/OrderBook.sol\":5128:5159  current = askBook[current].next */\n      swap1\n      pop\n        /* \"contracts/OrderBook.sol\":5018:5174  while (askBook[current].next != 0 && askBook[askBook[current].next].value < newOrder.value) {... */\n      jump(tag_236)\n    tag_237:\n        /* \"contracts/OrderBook.sol\":5203:5210  askBook */\n      0x07\n        /* \"contracts/OrderBook.sol\":5203:5219  askBook[current] */\n      0x00\n        /* \"contracts/OrderBook.sol\":5211:5218  current */\n      dup3\n        /* \"contracts/OrderBook.sol\":5203:5219  askBook[current] */\n      dup2\n      mstore\n      0x20\n      add\n      swap1\n      dup2\n      mstore\n      0x20\n      add\n      0x00\n      keccak256\n        /* \"contracts/OrderBook.sol\":5203:5224  askBook[current].next */\n      0x05\n      add\n      sload\n        /* \"contracts/OrderBook.sol\":5187:5195  newOrder */\n      dup3\n        /* \"contracts/OrderBook.sol\":5187:5200  newOrder.next */\n      0xa0\n      add\n        /* \"contracts/OrderBook.sol\":5187:5224  newOrder.next = askBook[current].next */\n      dup2\n      dup2\n      mstore\n      pop\n      pop\n        /* \"contracts/OrderBook.sol\":5267:5268  0 */\n      0x00\n        /* \"contracts/OrderBook.sol\":5242:5249  askBook */\n      0x07\n        /* \"contracts/OrderBook.sol\":5242:5258  askBook[current] */\n      0x00\n        /* \"contracts/OrderBook.sol\":5250:5257  current */\n      dup4\n        /* \"contracts/OrderBook.sol\":5242:5258  askBook[current] */\n      dup2\n      mstore\n      0x20\n      add\n      swap1\n      dup2\n      mstore\n      0x20\n      add\n      0x00\n      keccak256\n        /* \"contracts/OrderBook.sol\":5242:5263  askBook[current].next */\n      0x05\n      add\n      sload\n        /* \"contracts/OrderBook.sol\":5242:5268  askBook[current].next != 0 */\n      eq\n        /* \"contracts/OrderBook.sol\":5238:5344  if (askBook[current].next != 0) {... */\n      tag_239\n      jumpi\n        /* \"contracts/OrderBook.sol\":5318:5326  newOrder */\n      dup2\n        /* \"contracts/OrderBook.sol\":5318:5329  newOrder.id */\n      0x80\n      add\n      mload\n        /* \"contracts/OrderBook.sol\":5288:5295  askBook */\n      0x07\n        /* \"contracts/OrderBook.sol\":5288:5310  askBook[newOrder.next] */\n      0x00\n        /* \"contracts/OrderBook.sol\":5296:5304  newOrder */\n      dup5\n        /* \"contracts/OrderBook.sol\":5296:5309  newOrder.next */\n      0xa0\n      add\n      mload\n        /* \"contracts/OrderBook.sol\":5288:5310  askBook[newOrder.next] */\n      dup2\n      mstore\n      0x20\n      add\n      swap1\n      dup2\n      mstore\n      0x20\n      add\n      0x00\n      keccak256\n        /* \"contracts/OrderBook.sol\":5288:5315  askBook[newOrder.next].prev */\n      0x06\n      add\n        /* \"contracts/OrderBook.sol\":5288:5329  askBook[newOrder.next].prev = newOrder.id */\n      dup2\n      swap1\n      sstore\n      pop\n        /* \"contracts/OrderBook.sol\":5238:5344  if (askBook[current].next != 0) {... */\n    tag_239:\n        /* \"contracts/OrderBook.sol\":5381:5389  newOrder */\n      dup2\n        /* \"contracts/OrderBook.sol\":5381:5392  newOrder.id */\n      0x80\n      add\n      mload\n        /* \"contracts/OrderBook.sol\":5357:5364  askBook */\n      0x07\n        /* \"contracts/OrderBook.sol\":5357:5373  askBook[current] */\n      0x00\n        /* \"contracts/OrderBook.sol\":5365:5372  current */\n      dup4\n        /* \"contracts/OrderBook.sol\":5357:5373  askBook[current] */\n      dup2\n      mstore\n      0x20\n      add\n      swap1\n      dup2\n      mstore\n      0x20\n      add\n      0x00\n      keccak256\n        /* \"contracts/OrderBook.sol\":5357:5378  askBook[current].next */\n      0x05\n      add\n        /* \"contracts/OrderBook.sol\":5357:5392  askBook[current].next = newOrder.id */\n      dup2\n      swap1\n      sstore\n      pop\n        /* \"contracts/OrderBook.sol\":5422:5429  current */\n      dup1\n        /* \"contracts/OrderBook.sol\":5406:5414  newOrder */\n      dup3\n        /* \"contracts/OrderBook.sol\":5406:5419  newOrder.prev */\n      0xc0\n      add\n        /* \"contracts/OrderBook.sol\":5406:5429  newOrder.prev = current */\n      dup2\n      dup2\n      mstore\n      pop\n      pop\n        /* \"contracts/OrderBook.sol\":4775:5440  if (askBook[askHead].value >= newOrder.value) {... */\n    tag_235:\n        /* \"contracts/OrderBook.sol\":4697:5440  if (askHead == 0) {... */\n    tag_233:\n        /* \"contracts/OrderBook.sol\":4662:5446  {... */\n      pop\n        /* \"contracts/OrderBook.sol\":4613:5446  function sortAsk(order memory newOrder) internal {... */\n      pop\n      jump\t// out\n    tag_221:\n      mload(0x40)\n      dup1\n      0xe0\n      add\n      0x40\n      mstore\n      dup1\n      and(0xffffffffffffffffffffffffffffffffffffffff, 0x00)\n      dup2\n      mstore\n      0x20\n      add\n      0x00\n      dup2\n      mstore\n      0x20\n      add\n      0x00\n      dup2\n      mstore\n      0x20\n      add\n      0x00\n      0x01\n      dup2\n      gt\n      iszero\n      tag_240\n      jumpi\n      tag_241\n      tag_140\n      jump\t// in\n    tag_241:\n    tag_240:\n      dup2\n      mstore\n      0x20\n      add\n      0x00\n      dup2\n      mstore\n      0x20\n      add\n      0x00\n      dup2\n      mstore\n      0x20\n      add\n      0x00\n      dup2\n      mstore\n      pop\n      swap1\n      jump\t// out\n        /* \"#utility.yul\":7:121   */\n    tag_242:\n        /* \"#utility.yul\":74:80   */\n      0x00\n        /* \"#utility.yul\":108:113   */\n      dup2\n        /* \"#utility.yul\":102:114   */\n      mload\n        /* \"#utility.yul\":92:114   */\n      swap1\n      pop\n        /* \"#utility.yul\":7:121   */\n      swap2\n      swap1\n      pop\n      jump\t// out\n        /* \"#utility.yul\":127:311   */\n    tag_243:\n        /* \"#utility.yul\":226:237   */\n      0x00\n        /* \"#utility.yul\":260:266   */\n      dup3\n        /* \"#utility.yul\":255:258   */\n      dup3\n        /* \"#utility.yul\":248:267   */\n      mstore\n        /* \"#utility.yul\":300:304   */\n      0x20\n        /* \"#utility.yul\":295:298   */\n      dup3\n        /* \"#utility.yul\":291:305   */\n      add\n        /* \"#utility.yul\":276:305   */\n      swap1\n      pop\n        /* \"#utility.yul\":127:311   */\n      swap3\n      swap2\n      pop\n      pop\n      jump\t// out\n        /* \"#utility.yul\":317:449   */\n    tag_244:\n        /* \"#utility.yul\":384:388   */\n      0x00\n        /* \"#utility.yul\":407:410   */\n      dup2\n        /* \"#utility.yul\":399:410   */\n      swap1\n      pop\n        /* \"#utility.yul\":437:441   */\n      0x20\n        /* \"#utility.yul\":432:435   */\n      dup3\n        /* \"#utility.yul\":428:442   */\n      add\n        /* \"#utility.yul\":420:442   */\n      swap1\n      pop\n        /* \"#utility.yul\":317:449   */\n      swap2\n      swap1\n      pop\n      jump\t// out\n        /* \"#utility.yul\":455:532   */\n    tag_245:\n        /* \"#utility.yul\":492:499   */\n      0x00\n        /* \"#utility.yul\":521:526   */\n      dup2\n        /* \"#utility.yul\":510:526   */\n      swap1\n      pop\n        /* \"#utility.yul\":455:532   */\n      swap2\n      swap1\n      pop\n      jump\t// out\n        /* \"#utility.yul\":538:646   */\n    tag_246:\n        /* \"#utility.yul\":615:639   */\n      tag_320\n        /* \"#utility.yul\":633:638   */\n      dup2\n        /* \"#utility.yul\":615:639   */\n      tag_245\n      jump\t// in\n    tag_320:\n        /* \"#utility.yul\":610:613   */\n      dup3\n        /* \"#utility.yul\":603:640   */\n      mstore\n        /* \"#utility.yul\":538:646   */\n      pop\n      pop\n      jump\t// out\n        /* \"#utility.yul\":652:831   */\n    tag_247:\n        /* \"#utility.yul\":721:731   */\n      0x00\n        /* \"#utility.yul\":742:788   */\n      tag_322\n        /* \"#utility.yul\":784:787   */\n      dup4\n        /* \"#utility.yul\":776:782   */\n      dup4\n        /* \"#utility.yul\":742:788   */\n      tag_246\n      jump\t// in\n    tag_322:\n        /* \"#utility.yul\":820:824   */\n      0x20\n        /* \"#utility.yul\":815:818   */\n      dup4\n        /* \"#utility.yul\":811:825   */\n      add\n        /* \"#utility.yul\":797:825   */\n      swap1\n      pop\n        /* \"#utility.yul\":652:831   */\n      swap3\n      swap2\n      pop\n      pop\n      jump\t// out\n        /* \"#utility.yul\":837:950   */\n    tag_248:\n        /* \"#utility.yul\":907:911   */\n      0x00\n        /* \"#utility.yul\":939:943   */\n      0x20\n        /* \"#utility.yul\":934:937   */\n      dup3\n        /* \"#utility.yul\":930:944   */\n      add\n        /* \"#utility.yul\":922:944   */\n      swap1\n      pop\n        /* \"#utility.yul\":837:950   */\n      swap2\n      swap1\n      pop\n      jump\t// out\n        /* \"#utility.yul\":986:1718   */\n    tag_249:\n        /* \"#utility.yul\":1105:1108   */\n      0x00\n        /* \"#utility.yul\":1134:1188   */\n      tag_325\n        /* \"#utility.yul\":1182:1187   */\n      dup3\n        /* \"#utility.yul\":1134:1188   */\n      tag_242\n      jump\t// in\n    tag_325:\n        /* \"#utility.yul\":1204:1290   */\n      tag_326\n        /* \"#utility.yul\":1283:1289   */\n      dup2\n        /* \"#utility.yul\":1278:1281   */\n      dup6\n        /* \"#utility.yul\":1204:1290   */\n      tag_243\n      jump\t// in\n    tag_326:\n        /* \"#utility.yul\":1197:1290   */\n      swap4\n      pop\n        /* \"#utility.yul\":1314:1370   */\n      tag_327\n        /* \"#utility.yul\":1364:1369   */\n      dup4\n        /* \"#utility.yul\":1314:1370   */\n      tag_244\n      jump\t// in\n    tag_327:\n        /* \"#utility.yul\":1393:1400   */\n      dup1\n        /* \"#utility.yul\":1424:1425   */\n      0x00\n        /* \"#utility.yul\":1409:1693   */\n    tag_328:\n        /* \"#utility.yul\":1434:1440   */\n      dup4\n        /* \"#utility.yul\":1431:1432   */\n      dup2\n        /* \"#utility.yul\":1428:1441   */\n      lt\n        /* \"#utility.yul\":1409:1693   */\n      iszero\n      tag_330\n      jumpi\n        /* \"#utility.yul\":1510:1516   */\n      dup2\n        /* \"#utility.yul\":1504:1517   */\n      mload\n        /* \"#utility.yul\":1537:1600   */\n      tag_331\n        /* \"#utility.yul\":1596:1599   */\n      dup9\n        /* \"#utility.yul\":1581:1594   */\n      dup3\n        /* \"#utility.yul\":1537:1600   */\n      tag_247\n      jump\t// in\n    tag_331:\n        /* \"#utility.yul\":1530:1600   */\n      swap8\n      pop\n        /* \"#utility.yul\":1623:1683   */\n      tag_332\n        /* \"#utility.yul\":1676:1682   */\n      dup4\n        /* \"#utility.yul\":1623:1683   */\n      tag_248\n      jump\t// in\n    tag_332:\n        /* \"#utility.yul\":1613:1683   */\n      swap3\n      pop\n        /* \"#utility.yul\":1469:1693   */\n      pop\n        /* \"#utility.yul\":1456:1457   */\n      0x01\n        /* \"#utility.yul\":1453:1454   */\n      dup2\n        /* \"#utility.yul\":1449:1458   */\n      add\n        /* \"#utility.yul\":1444:1458   */\n      swap1\n      pop\n        /* \"#utility.yul\":1409:1693   */\n      jump(tag_328)\n    tag_330:\n        /* \"#utility.yul\":1413:1427   */\n      pop\n        /* \"#utility.yul\":1709:1712   */\n      dup6\n        /* \"#utility.yul\":1702:1712   */\n      swap4\n      pop\n        /* \"#utility.yul\":1110:1718   */\n      pop\n      pop\n      pop\n        /* \"#utility.yul\":986:1718   */\n      swap3\n      swap2\n      pop\n      pop\n      jump\t// out\n        /* \"#utility.yul\":1724:2097   */\n    tag_32:\n        /* \"#utility.yul\":1867:1871   */\n      0x00\n        /* \"#utility.yul\":1905:1907   */\n      0x20\n        /* \"#utility.yul\":1894:1903   */\n      dup3\n        /* \"#utility.yul\":1890:1908   */\n      add\n        /* \"#utility.yul\":1882:1908   */\n      swap1\n      pop\n        /* \"#utility.yul\":1954:1963   */\n      dup2\n        /* \"#utility.yul\":1948:1952   */\n      dup2\n        /* \"#utility.yul\":1944:1964   */\n      sub\n        /* \"#utility.yul\":1940:1941   */\n      0x00\n        /* \"#utility.yul\":1929:1938   */\n      dup4\n        /* \"#utility.yul\":1925:1942   */\n      add\n        /* \"#utility.yul\":1918:1965   */\n      mstore\n        /* \"#utility.yul\":1982:2090   */\n      tag_334\n        /* \"#utility.yul\":2085:2089   */\n      dup2\n        /* \"#utility.yul\":2076:2082   */\n      dup5\n        /* \"#utility.yul\":1982:2090   */\n      tag_249\n      jump\t// in\n    tag_334:\n        /* \"#utility.yul\":1974:2090   */\n      swap1\n      pop\n        /* \"#utility.yul\":1724:2097   */\n      swap3\n      swap2\n      pop\n      pop\n      jump\t// out\n        /* \"#utility.yul\":2103:2178   */\n    tag_250:\n        /* \"#utility.yul\":2136:2142   */\n      0x00\n        /* \"#utility.yul\":2169:2171   */\n      0x40\n        /* \"#utility.yul\":2163:2172   */\n      mload\n        /* \"#utility.yul\":2153:2172   */\n      swap1\n      pop\n        /* \"#utility.yul\":2103:2178   */\n      swap1\n      jump\t// out\n        /* \"#utility.yul\":2184:2301   */\n    tag_251:\n        /* \"#utility.yul\":2293:2294   */\n      0x00\n        /* \"#utility.yul\":2290:2291   */\n      dup1\n        /* \"#utility.yul\":2283:2295   */\n      revert\n        /* \"#utility.yul\":2307:2424   */\n    tag_252:\n        /* \"#utility.yul\":2416:2417   */\n      0x00\n        /* \"#utility.yul\":2413:2414   */\n      dup1\n        /* \"#utility.yul\":2406:2418   */\n      revert\n        /* \"#utility.yul\":2430:2552   */\n    tag_253:\n        /* \"#utility.yul\":2503:2527   */\n      tag_339\n        /* \"#utility.yul\":2521:2526   */\n      dup2\n        /* \"#utility.yul\":2503:2527   */\n      tag_245\n      jump\t// in\n    tag_339:\n        /* \"#utility.yul\":2496:2501   */\n      dup2\n        /* \"#utility.yul\":2493:2528   */\n      eq\n        /* \"#utility.yul\":2483:2546   */\n      tag_340\n      jumpi\n        /* \"#utility.yul\":2542:2543   */\n      0x00\n        /* \"#utility.yul\":2539:2540   */\n      dup1\n        /* \"#utility.yul\":2532:2544   */\n      revert\n        /* \"#utility.yul\":2483:2546   */\n    tag_340:\n        /* \"#utility.yul\":2430:2552   */\n      pop\n      jump\t// out\n        /* \"#utility.yul\":2558:2697   */\n    tag_254:\n        /* \"#utility.yul\":2604:2609   */\n      0x00\n        /* \"#utility.yul\":2642:2648   */\n      dup2\n        /* \"#utility.yul\":2629:2649   */\n      calldataload\n        /* \"#utility.yul\":2620:2649   */\n      swap1\n      pop\n        /* \"#utility.yul\":2658:2691   */\n      tag_342\n        /* \"#utility.yul\":2685:2690   */\n      dup2\n        /* \"#utility.yul\":2658:2691   */\n      tag_253\n      jump\t// in\n    tag_342:\n        /* \"#utility.yul\":2558:2697   */\n      swap3\n      swap2\n      pop\n      pop\n      jump\t// out\n        /* \"#utility.yul\":2703:3032   */\n    tag_36:\n        /* \"#utility.yul\":2762:2768   */\n      0x00\n        /* \"#utility.yul\":2811:2813   */\n      0x20\n        /* \"#utility.yul\":2799:2808   */\n      dup3\n        /* \"#utility.yul\":2790:2797   */\n      dup5\n        /* \"#utility.yul\":2786:2809   */\n      sub\n        /* \"#utility.yul\":2782:2814   */\n      slt\n        /* \"#utility.yul\":2779:2898   */\n      iszero\n      tag_344\n      jumpi\n        /* \"#utility.yul\":2817:2896   */\n      tag_345\n      tag_251\n      jump\t// in\n    tag_345:\n        /* \"#utility.yul\":2779:2898   */\n    tag_344:\n        /* \"#utility.yul\":2937:2938   */\n      0x00\n        /* \"#utility.yul\":2962:3015   */\n      tag_346\n        /* \"#utility.yul\":3007:3014   */\n      dup5\n        /* \"#utility.yul\":2998:3004   */\n      dup3\n        /* \"#utility.yul\":2987:2996   */\n      dup6\n        /* \"#utility.yul\":2983:3005   */\n      add\n        /* \"#utility.yul\":2962:3015   */\n      tag_254\n      jump\t// in\n    tag_346:\n        /* \"#utility.yul\":2952:3015   */\n      swap2\n      pop\n        /* \"#utility.yul\":2908:3025   */\n      pop\n        /* \"#utility.yul\":2703:3032   */\n      swap3\n      swap2\n      pop\n      pop\n      jump\t// out\n        /* \"#utility.yul\":3038:3155   */\n    tag_255:\n        /* \"#utility.yul\":3147:3148   */\n      0x00\n        /* \"#utility.yul\":3144:3145   */\n      dup1\n        /* \"#utility.yul\":3137:3149   */\n      revert\n        /* \"#utility.yul\":3161:3278   */\n    tag_256:\n        /* \"#utility.yul\":3270:3271   */\n      0x00\n        /* \"#utility.yul\":3267:3268   */\n      dup1\n        /* \"#utility.yul\":3260:3272   */\n      revert\n        /* \"#utility.yul\":3284:3386   */\n    tag_257:\n        /* \"#utility.yul\":3325:3331   */\n      0x00\n        /* \"#utility.yul\":3376:3378   */\n      0x1f\n        /* \"#utility.yul\":3372:3379   */\n      not\n        /* \"#utility.yul\":3367:3369   */\n      0x1f\n        /* \"#utility.yul\":3360:3365   */\n      dup4\n        /* \"#utility.yul\":3356:3370   */\n      add\n        /* \"#utility.yul\":3352:3380   */\n      and\n        /* \"#utility.yul\":3342:3380   */\n      swap1\n      pop\n        /* \"#utility.yul\":3284:3386   */\n      swap2\n      swap1\n      pop\n      jump\t// out\n        /* \"#utility.yul\":3392:3572   */\n    tag_258:\n        /* \"#utility.yul\":3440:3517   */\n      0x4e487b7100000000000000000000000000000000000000000000000000000000\n        /* \"#utility.yul\":3437:3438   */\n      0x00\n        /* \"#utility.yul\":3430:3518   */\n      mstore\n        /* \"#utility.yul\":3537:3541   */\n      0x41\n        /* \"#utility.yul\":3534:3535   */\n      0x04\n        /* \"#utility.yul\":3527:3542   */\n      mstore\n        /* \"#utility.yul\":3561:3565   */\n      0x24\n        /* \"#utility.yul\":3558:3559   */\n      0x00\n        /* \"#utility.yul\":3551:3566   */\n      revert\n        /* \"#utility.yul\":3578:3859   */\n    tag_259:\n        /* \"#utility.yul\":3661:3688   */\n      tag_352\n        /* \"#utility.yul\":3683:3687   */\n      dup3\n        /* \"#utility.yul\":3661:3688   */\n      tag_257\n      jump\t// in\n    tag_352:\n        /* \"#utility.yul\":3653:3659   */\n      dup2\n        /* \"#utility.yul\":3649:3689   */\n      add\n        /* \"#utility.yul\":3791:3797   */\n      dup2\n        /* \"#utility.yul\":3779:3789   */\n      dup2\n        /* \"#utility.yul\":3776:3798   */\n      lt\n        /* \"#utility.yul\":3755:3773   */\n      0xffffffffffffffff\n        /* \"#utility.yul\":3743:3753   */\n      dup3\n        /* \"#utility.yul\":3740:3774   */\n      gt\n        /* \"#utility.yul\":3737:3799   */\n      or\n        /* \"#utility.yul\":3734:3822   */\n      iszero\n      tag_353\n      jumpi\n        /* \"#utility.yul\":3802:3820   */\n      tag_354\n      tag_258\n      jump\t// in\n    tag_354:\n        /* \"#utility.yul\":3734:3822   */\n    tag_353:\n        /* \"#utility.yul\":3842:3852   */\n      dup1\n        /* \"#utility.yul\":3838:3840   */\n      0x40\n        /* \"#utility.yul\":3831:3853   */\n      mstore\n        /* \"#utility.yul\":3621:3859   */\n      pop\n        /* \"#utility.yul\":3578:3859   */\n      pop\n      pop\n      jump\t// out\n        /* \"#utility.yul\":3865:3994   */\n    tag_260:\n        /* \"#utility.yul\":3899:3905   */\n      0x00\n        /* \"#utility.yul\":3926:3946   */\n      tag_356\n      tag_250\n      jump\t// in\n    tag_356:\n        /* \"#utility.yul\":3916:3946   */\n      swap1\n      pop\n        /* \"#utility.yul\":3955:3988   */\n      tag_357\n        /* \"#utility.yul\":3983:3987   */\n      dup3\n        /* \"#utility.yul\":3975:3981   */\n      dup3\n        /* \"#utility.yul\":3955:3988   */\n      tag_259\n      jump\t// in\n    tag_357:\n        /* \"#utility.yul\":3865:3994   */\n      swap2\n      swap1\n      pop\n      jump\t// out\n        /* \"#utility.yul\":4000:4308   */\n    tag_261:\n        /* \"#utility.yul\":4062:4066   */\n      0x00\n        /* \"#utility.yul\":4152:4170   */\n      0xffffffffffffffff\n        /* \"#utility.yul\":4144:4150   */\n      dup3\n        /* \"#utility.yul\":4141:4171   */\n      gt\n        /* \"#utility.yul\":4138:4194   */\n      iszero\n      tag_359\n      jumpi\n        /* \"#utility.yul\":4174:4192   */\n      tag_360\n      tag_258\n      jump\t// in\n    tag_360:\n        /* \"#utility.yul\":4138:4194   */\n    tag_359:\n        /* \"#utility.yul\":4212:4241   */\n      tag_361\n        /* \"#utility.yul\":4234:4240   */\n      dup3\n        /* \"#utility.yul\":4212:4241   */\n      tag_257\n      jump\t// in\n    tag_361:\n        /* \"#utility.yul\":4204:4241   */\n      swap1\n      pop\n        /* \"#utility.yul\":4296:4300   */\n      0x20\n        /* \"#utility.yul\":4290:4294   */\n      dup2\n        /* \"#utility.yul\":4286:4301   */\n      add\n        /* \"#utility.yul\":4278:4301   */\n      swap1\n      pop\n        /* \"#utility.yul\":4000:4308   */\n      swap2\n      swap1\n      pop\n      jump\t// out\n        /* \"#utility.yul\":4314:4468   */\n    tag_262:\n        /* \"#utility.yul\":4398:4404   */\n      dup3\n        /* \"#utility.yul\":4393:4396   */\n      dup2\n        /* \"#utility.yul\":4388:4391   */\n      dup4\n        /* \"#utility.yul\":4375:4405   */\n      calldatacopy\n        /* \"#utility.yul\":4460:4461   */\n      0x00\n        /* \"#utility.yul\":4451:4457   */\n      dup4\n        /* \"#utility.yul\":4446:4449   */\n      dup4\n        /* \"#utility.yul\":4442:4458   */\n      add\n        /* \"#utility.yul\":4435:4462   */\n      mstore\n        /* \"#utility.yul\":4314:4468   */\n      pop\n      pop\n      pop\n      jump\t// out\n        /* \"#utility.yul\":4474:4886   */\n    tag_263:\n        /* \"#utility.yul\":4552:4557   */\n      0x00\n        /* \"#utility.yul\":4577:4643   */\n      tag_364\n        /* \"#utility.yul\":4593:4642   */\n      tag_365\n        /* \"#utility.yul\":4635:4641   */\n      dup5\n        /* \"#utility.yul\":4593:4642   */\n      tag_261\n      jump\t// in\n    tag_365:\n        /* \"#utility.yul\":4577:4643   */\n      tag_260\n      jump\t// in\n    tag_364:\n        /* \"#utility.yul\":4568:4643   */\n      swap1\n      pop\n        /* \"#utility.yul\":4666:4672   */\n      dup3\n        /* \"#utility.yul\":4659:4664   */\n      dup2\n        /* \"#utility.yul\":4652:4673   */\n      mstore\n        /* \"#utility.yul\":4704:4708   */\n      0x20\n        /* \"#utility.yul\":4697:4702   */\n      dup2\n        /* \"#utility.yul\":4693:4709   */\n      add\n        /* \"#utility.yul\":4742:4745   */\n      dup5\n        /* \"#utility.yul\":4733:4739   */\n      dup5\n        /* \"#utility.yul\":4728:4731   */\n      dup5\n        /* \"#utility.yul\":4724:4740   */\n      add\n        /* \"#utility.yul\":4721:4746   */\n      gt\n        /* \"#utility.yul\":4718:4830   */\n      iszero\n      tag_366\n      jumpi\n        /* \"#utility.yul\":4749:4828   */\n      tag_367\n      tag_256\n      jump\t// in\n    tag_367:\n        /* \"#utility.yul\":4718:4830   */\n    tag_366:\n        /* \"#utility.yul\":4839:4880   */\n      tag_368\n        /* \"#utility.yul\":4873:4879   */\n      dup5\n        /* \"#utility.yul\":4868:4871   */\n      dup3\n        /* \"#utility.yul\":4863:4866   */\n      dup6\n        /* \"#utility.yul\":4839:4880   */\n      tag_262\n      jump\t// in\n    tag_368:\n        /* \"#utility.yul\":4558:4886   */\n      pop\n        /* \"#utility.yul\":4474:4886   */\n      swap4\n      swap3\n      pop\n      pop\n      pop\n      jump\t// out\n        /* \"#utility.yul\":4906:5246   */\n    tag_264:\n        /* \"#utility.yul\":4962:4967   */\n      0x00\n        /* \"#utility.yul\":5011:5014   */\n      dup3\n        /* \"#utility.yul\":5004:5008   */\n      0x1f\n        /* \"#utility.yul\":4996:5002   */\n      dup4\n        /* \"#utility.yul\":4992:5009   */\n      add\n        /* \"#utility.yul\":4988:5015   */\n      slt\n        /* \"#utility.yul\":4978:5100   */\n      tag_370\n      jumpi\n        /* \"#utility.yul\":5019:5098   */\n      tag_371\n      tag_255\n      jump\t// in\n    tag_371:\n        /* \"#utility.yul\":4978:5100   */\n    tag_370:\n        /* \"#utility.yul\":5136:5142   */\n      dup2\n        /* \"#utility.yul\":5123:5143   */\n      calldataload\n        /* \"#utility.yul\":5161:5240   */\n      tag_372\n        /* \"#utility.yul\":5236:5239   */\n      dup5\n        /* \"#utility.yul\":5228:5234   */\n      dup3\n        /* \"#utility.yul\":5221:5225   */\n      0x20\n        /* \"#utility.yul\":5213:5219   */\n      dup7\n        /* \"#utility.yul\":5209:5226   */\n      add\n        /* \"#utility.yul\":5161:5240   */\n      tag_263\n      jump\t// in\n    tag_372:\n        /* \"#utility.yul\":5152:5240   */\n      swap2\n      pop\n        /* \"#utility.yul\":4968:5246   */\n      pop\n        /* \"#utility.yul\":4906:5246   */\n      swap3\n      swap2\n      pop\n      pop\n      jump\t// out\n        /* \"#utility.yul\":5252:6086   */\n    tag_41:\n        /* \"#utility.yul\":5340:5346   */\n      0x00\n        /* \"#utility.yul\":5348:5354   */\n      dup1\n        /* \"#utility.yul\":5397:5399   */\n      0x40\n        /* \"#utility.yul\":5385:5394   */\n      dup4\n        /* \"#utility.yul\":5376:5383   */\n      dup6\n        /* \"#utility.yul\":5372:5395   */\n      sub\n        /* \"#utility.yul\":5368:5400   */\n      slt\n        /* \"#utility.yul\":5365:5484   */\n      iszero\n      tag_374\n      jumpi\n        /* \"#utility.yul\":5403:5482   */\n      tag_375\n      tag_251\n      jump\t// in\n    tag_375:\n        /* \"#utility.yul\":5365:5484   */\n    tag_374:\n        /* \"#utility.yul\":5551:5552   */\n      0x00\n        /* \"#utility.yul\":5540:5549   */\n      dup4\n        /* \"#utility.yul\":5536:5553   */\n      add\n        /* \"#utility.yul\":5523:5554   */\n      calldataload\n        /* \"#utility.yul\":5581:5599   */\n      0xffffffffffffffff\n        /* \"#utility.yul\":5573:5579   */\n      dup2\n        /* \"#utility.yul\":5570:5600   */\n      gt\n        /* \"#utility.yul\":5567:5684   */\n      iszero\n      tag_376\n      jumpi\n        /* \"#utility.yul\":5603:5682   */\n      tag_377\n      tag_252\n      jump\t// in\n    tag_377:\n        /* \"#utility.yul\":5567:5684   */\n    tag_376:\n        /* \"#utility.yul\":5708:5771   */\n      tag_378\n        /* \"#utility.yul\":5763:5770   */\n      dup6\n        /* \"#utility.yul\":5754:5760   */\n      dup3\n        /* \"#utility.yul\":5743:5752   */\n      dup7\n        /* \"#utility.yul\":5739:5761   */\n      add\n        /* \"#utility.yul\":5708:5771   */\n      tag_264\n      jump\t// in\n    tag_378:\n        /* \"#utility.yul\":5698:5771   */\n      swap3\n      pop\n        /* \"#utility.yul\":5494:5781   */\n      pop\n        /* \"#utility.yul\":5848:5850   */\n      0x20\n        /* \"#utility.yul\":5837:5846   */\n      dup4\n        /* \"#utility.yul\":5833:5851   */\n      add\n        /* \"#utility.yul\":5820:5852   */\n      calldataload\n        /* \"#utility.yul\":5879:5897   */\n      0xffffffffffffffff\n        /* \"#utility.yul\":5871:5877   */\n      dup2\n        /* \"#utility.yul\":5868:5898   */\n      gt\n        /* \"#utility.yul\":5865:5982   */\n      iszero\n      tag_379\n      jumpi\n        /* \"#utility.yul\":5901:5980   */\n      tag_380\n      tag_252\n      jump\t// in\n    tag_380:\n        /* \"#utility.yul\":5865:5982   */\n    tag_379:\n        /* \"#utility.yul\":6006:6069   */\n      tag_381\n        /* \"#utility.yul\":6061:6068   */\n      dup6\n        /* \"#utility.yul\":6052:6058   */\n      dup3\n        /* \"#utility.yul\":6041:6050   */\n      dup7\n        /* \"#utility.yul\":6037:6059   */\n      add\n        /* \"#utility.yul\":6006:6069   */\n      tag_264\n      jump\t// in\n    tag_381:\n        /* \"#utility.yul\":5996:6069   */\n      swap2\n      pop\n        /* \"#utility.yul\":5791:6079   */\n      pop\n        /* \"#utility.yul\":5252:6086   */\n      swap3\n      pop\n      swap3\n      swap1\n      pop\n      jump\t// out\n        /* \"#utility.yul\":6092:6191   */\n    tag_265:\n        /* \"#utility.yul\":6144:6150   */\n      0x00\n        /* \"#utility.yul\":6178:6183   */\n      dup2\n        /* \"#utility.yul\":6172:6184   */\n      mload\n        /* \"#utility.yul\":6162:6184   */\n      swap1\n      pop\n        /* \"#utility.yul\":6092:6191   */\n      swap2\n      swap1\n      pop\n      jump\t// out\n        /* \"#utility.yul\":6197:6366   */\n    tag_266:\n        /* \"#utility.yul\":6281:6292   */\n      0x00\n        /* \"#utility.yul\":6315:6321   */\n      dup3\n        /* \"#utility.yul\":6310:6313   */\n      dup3\n        /* \"#utility.yul\":6303:6322   */\n      mstore\n        /* \"#utility.yul\":6355:6359   */\n      0x20\n        /* \"#utility.yul\":6350:6353   */\n      dup3\n        /* \"#utility.yul\":6346:6360   */\n      add\n        /* \"#utility.yul\":6331:6360   */\n      swap1\n      pop\n        /* \"#utility.yul\":6197:6366   */\n      swap3\n      swap2\n      pop\n      pop\n      jump\t// out\n        /* \"#utility.yul\":6372:6679   */\n    tag_267:\n        /* \"#utility.yul\":6440:6441   */\n      0x00\n        /* \"#utility.yul\":6450:6563   */\n    tag_385:\n        /* \"#utility.yul\":6464:6470   */\n      dup4\n        /* \"#utility.yul\":6461:6462   */\n      dup2\n        /* \"#utility.yul\":6458:6471   */\n      lt\n        /* \"#utility.yul\":6450:6563   */\n      iszero\n      tag_387\n      jumpi\n        /* \"#utility.yul\":6549:6550   */\n      dup1\n        /* \"#utility.yul\":6544:6547   */\n      dup3\n        /* \"#utility.yul\":6540:6551   */\n      add\n        /* \"#utility.yul\":6534:6552   */\n      mload\n        /* \"#utility.yul\":6530:6531   */\n      dup2\n        /* \"#utility.yul\":6525:6528   */\n      dup5\n        /* \"#utility.yul\":6521:6532   */\n      add\n        /* \"#utility.yul\":6514:6553   */\n      mstore\n        /* \"#utility.yul\":6486:6488   */\n      0x20\n        /* \"#utility.yul\":6483:6484   */\n      dup2\n        /* \"#utility.yul\":6479:6489   */\n      add\n        /* \"#utility.yul\":6474:6489   */\n      swap1\n      pop\n        /* \"#utility.yul\":6450:6563   */\n      jump(tag_385)\n    tag_387:\n        /* \"#utility.yul\":6581:6587   */\n      dup4\n        /* \"#utility.yul\":6578:6579   */\n      dup2\n        /* \"#utility.yul\":6575:6588   */\n      gt\n        /* \"#utility.yul\":6572:6673   */\n      iszero\n      tag_388\n      jumpi\n        /* \"#utility.yul\":6661:6662   */\n      0x00\n        /* \"#utility.yul\":6652:6658   */\n      dup5\n        /* \"#utility.yul\":6647:6650   */\n      dup5\n        /* \"#utility.yul\":6643:6659   */\n      add\n        /* \"#utility.yul\":6636:6663   */\n      mstore\n        /* \"#utility.yul\":6572:6673   */\n    tag_388:\n        /* \"#utility.yul\":6421:6679   */\n      pop\n        /* \"#utility.yul\":6372:6679   */\n      pop\n      pop\n      pop\n      jump\t// out\n        /* \"#utility.yul\":6685:7049   */\n    tag_268:\n        /* \"#utility.yul\":6773:6776   */\n      0x00\n        /* \"#utility.yul\":6801:6840   */\n      tag_390\n        /* \"#utility.yul\":6834:6839   */\n      dup3\n        /* \"#utility.yul\":6801:6840   */\n      tag_265\n      jump\t// in\n    tag_390:\n        /* \"#utility.yul\":6856:6927   */\n      tag_391\n        /* \"#utility.yul\":6920:6926   */\n      dup2\n        /* \"#utility.yul\":6915:6918   */\n      dup6\n        /* \"#utility.yul\":6856:6927   */\n      tag_266\n      jump\t// in\n    tag_391:\n        /* \"#utility.yul\":6849:6927   */\n      swap4\n      pop\n        /* \"#utility.yul\":6936:6988   */\n      tag_392\n        /* \"#utility.yul\":6981:6987   */\n      dup2\n        /* \"#utility.yul\":6976:6979   */\n      dup6\n        /* \"#utility.yul\":6969:6973   */\n      0x20\n        /* \"#utility.yul\":6962:6967   */\n      dup7\n        /* \"#utility.yul\":6958:6974   */\n      add\n        /* \"#utility.yul\":6936:6988   */\n      tag_267\n      jump\t// in\n    tag_392:\n        /* \"#utility.yul\":7013:7042   */\n      tag_393\n        /* \"#utility.yul\":7035:7041   */\n      dup2\n        /* \"#utility.yul\":7013:7042   */\n      tag_257\n      jump\t// in\n    tag_393:\n        /* \"#utility.yul\":7008:7011   */\n      dup5\n        /* \"#utility.yul\":7004:7043   */\n      add\n        /* \"#utility.yul\":6997:7043   */\n      swap2\n      pop\n        /* \"#utility.yul\":6777:7049   */\n      pop\n        /* \"#utility.yul\":6685:7049   */\n      swap3\n      swap2\n      pop\n      pop\n      jump\t// out\n        /* \"#utility.yul\":7055:7368   */\n    tag_44:\n        /* \"#utility.yul\":7168:7172   */\n      0x00\n        /* \"#utility.yul\":7206:7208   */\n      0x20\n        /* \"#utility.yul\":7195:7204   */\n      dup3\n        /* \"#utility.yul\":7191:7209   */\n      add\n        /* \"#utility.yul\":7183:7209   */\n      swap1\n      pop\n        /* \"#utility.yul\":7255:7264   */\n      dup2\n        /* \"#utility.yul\":7249:7253   */\n      dup2\n        /* \"#utility.yul\":7245:7265   */\n      sub\n        /* \"#utility.yul\":7241:7242   */\n      0x00\n        /* \"#utility.yul\":7230:7239   */\n      dup4\n        /* \"#utility.yul\":7226:7243   */\n      add\n        /* \"#utility.yul\":7219:7266   */\n      mstore\n        /* \"#utility.yul\":7283:7361   */\n      tag_395\n        /* \"#utility.yul\":7356:7360   */\n      dup2\n        /* \"#utility.yul\":7347:7353   */\n      dup5\n        /* \"#utility.yul\":7283:7361   */\n      tag_268\n      jump\t// in\n    tag_395:\n        /* \"#utility.yul\":7275:7361   */\n      swap1\n      pop\n        /* \"#utility.yul\":7055:7368   */\n      swap3\n      swap2\n      pop\n      pop\n      jump\t// out\n        /* \"#utility.yul\":7374:7492   */\n    tag_269:\n        /* \"#utility.yul\":7461:7485   */\n      tag_397\n        /* \"#utility.yul\":7479:7484   */\n      dup2\n        /* \"#utility.yul\":7461:7485   */\n      tag_245\n      jump\t// in\n    tag_397:\n        /* \"#utility.yul\":7456:7459   */\n      dup3\n        /* \"#utility.yul\":7449:7486   */\n      mstore\n        /* \"#utility.yul\":7374:7492   */\n      pop\n      pop\n      jump\t// out\n        /* \"#utility.yul\":7498:7720   */\n    tag_50:\n        /* \"#utility.yul\":7591:7595   */\n      0x00\n        /* \"#utility.yul\":7629:7631   */\n      0x20\n        /* \"#utility.yul\":7618:7627   */\n      dup3\n        /* \"#utility.yul\":7614:7632   */\n      add\n        /* \"#utility.yul\":7606:7632   */\n      swap1\n      pop\n        /* \"#utility.yul\":7642:7713   */\n      tag_399\n        /* \"#utility.yul\":7710:7711   */\n      0x00\n        /* \"#utility.yul\":7699:7708   */\n      dup4\n        /* \"#utility.yul\":7695:7712   */\n      add\n        /* \"#utility.yul\":7686:7692   */\n      dup5\n        /* \"#utility.yul\":7642:7713   */\n      tag_269\n      jump\t// in\n    tag_399:\n        /* \"#utility.yul\":7498:7720   */\n      swap3\n      swap2\n      pop\n      pop\n      jump\t// out\n        /* \"#utility.yul\":7726:7861   */\n    tag_270:\n        /* \"#utility.yul\":7814:7820   */\n      0x00\n        /* \"#utility.yul\":7848:7853   */\n      dup2\n        /* \"#utility.yul\":7842:7854   */\n      mload\n        /* \"#utility.yul\":7832:7854   */\n      swap1\n      pop\n        /* \"#utility.yul\":7726:7861   */\n      swap2\n      swap1\n      pop\n      jump\t// out\n        /* \"#utility.yul\":7867:8072   */\n    tag_271:\n        /* \"#utility.yul\":7987:7998   */\n      0x00\n        /* \"#utility.yul\":8021:8027   */\n      dup3\n        /* \"#utility.yul\":8016:8019   */\n      dup3\n        /* \"#utility.yul\":8009:8028   */\n      mstore\n        /* \"#utility.yul\":8061:8065   */\n      0x20\n        /* \"#utility.yul\":8056:8059   */\n      dup3\n        /* \"#utility.yul\":8052:8066   */\n      add\n        /* \"#utility.yul\":8037:8066   */\n      swap1\n      pop\n        /* \"#utility.yul\":7867:8072   */\n      swap3\n      swap2\n      pop\n      pop\n      jump\t// out\n        /* \"#utility.yul\":8078:8231   */\n    tag_272:\n        /* \"#utility.yul\":8166:8170   */\n      0x00\n        /* \"#utility.yul\":8189:8192   */\n      dup2\n        /* \"#utility.yul\":8181:8192   */\n      swap1\n      pop\n        /* \"#utility.yul\":8219:8223   */\n      0x20\n        /* \"#utility.yul\":8214:8217   */\n      dup3\n        /* \"#utility.yul\":8210:8224   */\n      add\n        /* \"#utility.yul\":8202:8224   */\n      swap1\n      pop\n        /* \"#utility.yul\":8078:8231   */\n      swap2\n      swap1\n      pop\n      jump\t// out\n        /* \"#utility.yul\":8237:8363   */\n    tag_273:\n        /* \"#utility.yul\":8274:8281   */\n      0x00\n        /* \"#utility.yul\":8314:8356   */\n      0xffffffffffffffffffffffffffffffffffffffff\n        /* \"#utility.yul\":8307:8312   */\n      dup3\n        /* \"#utility.yul\":8303:8357   */\n      and\n        /* \"#utility.yul\":8292:8357   */\n      swap1\n      pop\n        /* \"#utility.yul\":8237:8363   */\n      swap2\n      swap1\n      pop\n      jump\t// out\n        /* \"#utility.yul\":8369:8473   */\n    tag_274:\n        /* \"#utility.yul\":8414:8421   */\n      0x00\n        /* \"#utility.yul\":8443:8467   */\n      tag_405\n        /* \"#utility.yul\":8461:8466   */\n      dup3\n        /* \"#utility.yul\":8443:8467   */\n      tag_273\n      jump\t// in\n    tag_405:\n        /* \"#utility.yul\":8432:8467   */\n      swap1\n      pop\n        /* \"#utility.yul\":8369:8473   */\n      swap2\n      swap1\n      pop\n      jump\t// out\n        /* \"#utility.yul\":8479:8611   */\n    tag_275:\n        /* \"#utility.yul\":8572:8604   */\n      tag_407\n        /* \"#utility.yul\":8598:8603   */\n      dup2\n        /* \"#utility.yul\":8572:8604   */\n      tag_274\n      jump\t// in\n    tag_407:\n        /* \"#utility.yul\":8567:8570   */\n      dup3\n        /* \"#utility.yul\":8560:8605   */\n      mstore\n        /* \"#utility.yul\":8479:8611   */\n      pop\n      pop\n      jump\t// out\n        /* \"#utility.yul\":8617:8797   */\n    tag_140:\n        /* \"#utility.yul\":8665:8742   */\n      0x4e487b7100000000000000000000000000000000000000000000000000000000\n        /* \"#utility.yul\":8662:8663   */\n      0x00\n        /* \"#utility.yul\":8655:8743   */\n      mstore\n        /* \"#utility.yul\":8762:8766   */\n      0x21\n        /* \"#utility.yul\":8759:8760   */\n      0x04\n        /* \"#utility.yul\":8752:8767   */\n      mstore\n        /* \"#utility.yul\":8786:8790   */\n      0x24\n        /* \"#utility.yul\":8783:8784   */\n      0x00\n        /* \"#utility.yul\":8776:8791   */\n      revert\n        /* \"#utility.yul\":8803:8915   */\n    tag_276:\n        /* \"#utility.yul\":8883:8884   */\n      0x02\n        /* \"#utility.yul\":8876:8881   */\n      dup2\n        /* \"#utility.yul\":8873:8885   */\n      lt\n        /* \"#utility.yul\":8863:8909   */\n      tag_410\n      jumpi\n        /* \"#utility.yul\":8889:8907   */\n      tag_411\n      tag_140\n      jump\t// in\n    tag_411:\n        /* \"#utility.yul\":8863:8909   */\n    tag_410:\n        /* \"#utility.yul\":8803:8915   */\n      pop\n      jump\t// out\n        /* \"#utility.yul\":8921:9046   */\n    tag_277:\n        /* \"#utility.yul\":8965:8972   */\n      0x00\n        /* \"#utility.yul\":8994:8999   */\n      dup2\n        /* \"#utility.yul\":8983:8999   */\n      swap1\n      pop\n        /* \"#utility.yul\":9000:9040   */\n      tag_413\n        /* \"#utility.yul\":9034:9039   */\n      dup3\n        /* \"#utility.yul\":9000:9040   */\n      tag_276\n      jump\t// in\n    tag_413:\n        /* \"#utility.yul\":8921:9046   */\n      swap2\n      swap1\n      pop\n      jump\t// out\n        /* \"#utility.yul\":9052:9177   */\n    tag_278:\n        /* \"#utility.yul\":9107:9116   */\n      0x00\n        /* \"#utility.yul\":9140:9171   */\n      tag_415\n        /* \"#utility.yul\":9165:9170   */\n      dup3\n        /* \"#utility.yul\":9140:9171   */\n      tag_277\n      jump\t// in\n    tag_415:\n        /* \"#utility.yul\":9127:9171   */\n      swap1\n      pop\n        /* \"#utility.yul\":9052:9177   */\n      swap2\n      swap1\n      pop\n      jump\t// out\n        /* \"#utility.yul\":9183:9314   */\n    tag_279:\n        /* \"#utility.yul\":9265:9307   */\n      tag_417\n        /* \"#utility.yul\":9301:9306   */\n      dup2\n        /* \"#utility.yul\":9265:9307   */\n      tag_278\n      jump\t// in\n    tag_417:\n        /* \"#utility.yul\":9260:9263   */\n      dup3\n        /* \"#utility.yul\":9253:9308   */\n      mstore\n        /* \"#utility.yul\":9183:9314   */\n      pop\n      pop\n      jump\t// out\n        /* \"#utility.yul\":9376:10765   */\n    tag_280:\n        /* \"#utility.yul\":9505:9509   */\n      0xe0\n        /* \"#utility.yul\":9500:9503   */\n      dup3\n        /* \"#utility.yul\":9496:9510   */\n      add\n        /* \"#utility.yul\":9596:9600   */\n      0x00\n        /* \"#utility.yul\":9589:9594   */\n      dup3\n        /* \"#utility.yul\":9585:9601   */\n      add\n        /* \"#utility.yul\":9579:9602   */\n      mload\n        /* \"#utility.yul\":9615:9694   */\n      tag_419\n        /* \"#utility.yul\":9688:9692   */\n      0x00\n        /* \"#utility.yul\":9683:9686   */\n      dup6\n        /* \"#utility.yul\":9679:9693   */\n      add\n        /* \"#utility.yul\":9665:9677   */\n      dup3\n        /* \"#utility.yul\":9615:9694   */\n      tag_275\n      jump\t// in\n    tag_419:\n        /* \"#utility.yul\":9520:9704   */\n      pop\n        /* \"#utility.yul\":9787:9791   */\n      0x20\n        /* \"#utility.yul\":9780:9785   */\n      dup3\n        /* \"#utility.yul\":9776:9792   */\n      add\n        /* \"#utility.yul\":9770:9793   */\n      mload\n        /* \"#utility.yul\":9806:9869   */\n      tag_420\n        /* \"#utility.yul\":9863:9867   */\n      0x20\n        /* \"#utility.yul\":9858:9861   */\n      dup6\n        /* \"#utility.yul\":9854:9868   */\n      add\n        /* \"#utility.yul\":9840:9852   */\n      dup3\n        /* \"#utility.yul\":9806:9869   */\n      tag_246\n      jump\t// in\n    tag_420:\n        /* \"#utility.yul\":9714:9879   */\n      pop\n        /* \"#utility.yul\":9966:9970   */\n      0x40\n        /* \"#utility.yul\":9959:9964   */\n      dup3\n        /* \"#utility.yul\":9955:9971   */\n      add\n        /* \"#utility.yul\":9949:9972   */\n      mload\n        /* \"#utility.yul\":9985:10048   */\n      tag_421\n        /* \"#utility.yul\":10042:10046   */\n      0x40\n        /* \"#utility.yul\":10037:10040   */\n      dup6\n        /* \"#utility.yul\":10033:10047   */\n      add\n        /* \"#utility.yul\":10019:10031   */\n      dup3\n        /* \"#utility.yul\":9985:10048   */\n      tag_246\n      jump\t// in\n    tag_421:\n        /* \"#utility.yul\":9889:10058   */\n      pop\n        /* \"#utility.yul\":10141:10145   */\n      0x60\n        /* \"#utility.yul\":10134:10139   */\n      dup3\n        /* \"#utility.yul\":10130:10146   */\n      add\n        /* \"#utility.yul\":10124:10147   */\n      mload\n        /* \"#utility.yul\":10160:10228   */\n      tag_422\n        /* \"#utility.yul\":10222:10226   */\n      0x60\n        /* \"#utility.yul\":10217:10220   */\n      dup6\n        /* \"#utility.yul\":10213:10227   */\n      add\n        /* \"#utility.yul\":10199:10211   */\n      dup3\n        /* \"#utility.yul\":10160:10228   */\n      tag_279\n      jump\t// in\n    tag_422:\n        /* \"#utility.yul\":10068:10238   */\n      pop\n        /* \"#utility.yul\":10318:10322   */\n      0x80\n        /* \"#utility.yul\":10311:10316   */\n      dup3\n        /* \"#utility.yul\":10307:10323   */\n      add\n        /* \"#utility.yul\":10301:10324   */\n      mload\n        /* \"#utility.yul\":10337:10400   */\n      tag_423\n        /* \"#utility.yul\":10394:10398   */\n      0x80\n        /* \"#utility.yul\":10389:10392   */\n      dup6\n        /* \"#utility.yul\":10385:10399   */\n      add\n        /* \"#utility.yul\":10371:10383   */\n      dup3\n        /* \"#utility.yul\":10337:10400   */\n      tag_246\n      jump\t// in\n    tag_423:\n        /* \"#utility.yul\":10248:10410   */\n      pop\n        /* \"#utility.yul\":10492:10496   */\n      0xa0\n        /* \"#utility.yul\":10485:10490   */\n      dup3\n        /* \"#utility.yul\":10481:10497   */\n      add\n        /* \"#utility.yul\":10475:10498   */\n      mload\n        /* \"#utility.yul\":10511:10574   */\n      tag_424\n        /* \"#utility.yul\":10568:10572   */\n      0xa0\n        /* \"#utility.yul\":10563:10566   */\n      dup6\n        /* \"#utility.yul\":10559:10573   */\n      add\n        /* \"#utility.yul\":10545:10557   */\n      dup3\n        /* \"#utility.yul\":10511:10574   */\n      tag_246\n      jump\t// in\n    tag_424:\n        /* \"#utility.yul\":10420:10584   */\n      pop\n        /* \"#utility.yul\":10666:10670   */\n      0xc0\n        /* \"#utility.yul\":10659:10664   */\n      dup3\n        /* \"#utility.yul\":10655:10671   */\n      add\n        /* \"#utility.yul\":10649:10672   */\n      mload\n        /* \"#utility.yul\":10685:10748   */\n      tag_425\n        /* \"#utility.yul\":10742:10746   */\n      0xc0\n        /* \"#utility.yul\":10737:10740   */\n      dup6\n        /* \"#utility.yul\":10733:10747   */\n      add\n        /* \"#utility.yul\":10719:10731   */\n      dup3\n        /* \"#utility.yul\":10685:10748   */\n      tag_246\n      jump\t// in\n    tag_425:\n        /* \"#utility.yul\":10594:10758   */\n      pop\n        /* \"#utility.yul\":9474:10765   */\n      pop\n        /* \"#utility.yul\":9376:10765   */\n      pop\n      pop\n      jump\t// out\n        /* \"#utility.yul\":10771:11034   */\n    tag_281:\n        /* \"#utility.yul\":10882:10892   */\n      0x00\n        /* \"#utility.yul\":10903:10991   */\n      tag_427\n        /* \"#utility.yul\":10987:10990   */\n      dup4\n        /* \"#utility.yul\":10979:10985   */\n      dup4\n        /* \"#utility.yul\":10903:10991   */\n      tag_280\n      jump\t// in\n    tag_427:\n        /* \"#utility.yul\":11023:11027   */\n      0xe0\n        /* \"#utility.yul\":11018:11021   */\n      dup4\n        /* \"#utility.yul\":11014:11028   */\n      add\n        /* \"#utility.yul\":11000:11028   */\n      swap1\n      pop\n        /* \"#utility.yul\":10771:11034   */\n      swap3\n      swap2\n      pop\n      pop\n      jump\t// out\n        /* \"#utility.yul\":11040:11174   */\n    tag_282:\n        /* \"#utility.yul\":11131:11135   */\n      0x00\n        /* \"#utility.yul\":11163:11167   */\n      0x20\n        /* \"#utility.yul\":11158:11161   */\n      dup3\n        /* \"#utility.yul\":11154:11168   */\n      add\n        /* \"#utility.yul\":11146:11168   */\n      swap1\n      pop\n        /* \"#utility.yul\":11040:11174   */\n      swap2\n      swap1\n      pop\n      jump\t// out\n        /* \"#utility.yul\":11240:12140   */\n    tag_283:\n        /* \"#utility.yul\":11401:11404   */\n      0x00\n        /* \"#utility.yul\":11430:11505   */\n      tag_430\n        /* \"#utility.yul\":11499:11504   */\n      dup3\n        /* \"#utility.yul\":11430:11505   */\n      tag_270\n      jump\t// in\n    tag_430:\n        /* \"#utility.yul\":11521:11628   */\n      tag_431\n        /* \"#utility.yul\":11621:11627   */\n      dup2\n        /* \"#utility.yul\":11616:11619   */\n      dup6\n        /* \"#utility.yul\":11521:11628   */\n      tag_271\n      jump\t// in\n    tag_431:\n        /* \"#utility.yul\":11514:11628   */\n      swap4\n      pop\n        /* \"#utility.yul\":11652:11729   */\n      tag_432\n        /* \"#utility.yul\":11723:11728   */\n      dup4\n        /* \"#utility.yul\":11652:11729   */\n      tag_272\n      jump\t// in\n    tag_432:\n        /* \"#utility.yul\":11752:11759   */\n      dup1\n        /* \"#utility.yul\":11783:11784   */\n      0x00\n        /* \"#utility.yul\":11768:12115   */\n    tag_433:\n        /* \"#utility.yul\":11793:11799   */\n      dup4\n        /* \"#utility.yul\":11790:11791   */\n      dup2\n        /* \"#utility.yul\":11787:11800   */\n      lt\n        /* \"#utility.yul\":11768:12115   */\n      iszero\n      tag_435\n      jumpi\n        /* \"#utility.yul\":11869:11875   */\n      dup2\n        /* \"#utility.yul\":11863:11876   */\n      mload\n        /* \"#utility.yul\":11896:12001   */\n      tag_436\n        /* \"#utility.yul\":11997:12000   */\n      dup9\n        /* \"#utility.yul\":11982:11995   */\n      dup3\n        /* \"#utility.yul\":11896:12001   */\n      tag_281\n      jump\t// in\n    tag_436:\n        /* \"#utility.yul\":11889:12001   */\n      swap8\n      pop\n        /* \"#utility.yul\":12024:12105   */\n      tag_437\n        /* \"#utility.yul\":12098:12104   */\n      dup4\n        /* \"#utility.yul\":12024:12105   */\n      tag_282\n      jump\t// in\n    tag_437:\n        /* \"#utility.yul\":12014:12105   */\n      swap3\n      pop\n        /* \"#utility.yul\":11828:12115   */\n      pop\n        /* \"#utility.yul\":11815:11816   */\n      0x01\n        /* \"#utility.yul\":11812:11813   */\n      dup2\n        /* \"#utility.yul\":11808:11817   */\n      add\n        /* \"#utility.yul\":11803:11817   */\n      swap1\n      pop\n        /* \"#utility.yul\":11768:12115   */\n      jump(tag_433)\n    tag_435:\n        /* \"#utility.yul\":11772:11786   */\n      pop\n        /* \"#utility.yul\":12131:12134   */\n      dup6\n        /* \"#utility.yul\":12124:12134   */\n      swap4\n      pop\n        /* \"#utility.yul\":11406:12140   */\n      pop\n      pop\n      pop\n        /* \"#utility.yul\":11240:12140   */\n      swap3\n      swap2\n      pop\n      pop\n      jump\t// out\n        /* \"#utility.yul\":12146:12603   */\n    tag_55:\n        /* \"#utility.yul\":12331:12335   */\n      0x00\n        /* \"#utility.yul\":12369:12371   */\n      0x20\n        /* \"#utility.yul\":12358:12367   */\n      dup3\n        /* \"#utility.yul\":12354:12372   */\n      add\n        /* \"#utility.yul\":12346:12372   */\n      swap1\n      pop\n        /* \"#utility.yul\":12418:12427   */\n      dup2\n        /* \"#utility.yul\":12412:12416   */\n      dup2\n        /* \"#utility.yul\":12408:12428   */\n      sub\n        /* \"#utility.yul\":12404:12405   */\n      0x00\n        /* \"#utility.yul\":12393:12402   */\n      dup4\n        /* \"#utility.yul\":12389:12406   */\n      add\n        /* \"#utility.yul\":12382:12429   */\n      mstore\n        /* \"#utility.yul\":12446:12596   */\n      tag_439\n        /* \"#utility.yul\":12591:12595   */\n      dup2\n        /* \"#utility.yul\":12582:12588   */\n      dup5\n        /* \"#utility.yul\":12446:12596   */\n      tag_283\n      jump\t// in\n    tag_439:\n        /* \"#utility.yul\":12438:12596   */\n      swap1\n      pop\n        /* \"#utility.yul\":12146:12603   */\n      swap3\n      swap2\n      pop\n      pop\n      jump\t// out\n        /* \"#utility.yul\":12609:12750   */\n    tag_284:\n        /* \"#utility.yul\":12701:12743   */\n      tag_441\n        /* \"#utility.yul\":12737:12742   */\n      dup2\n        /* \"#utility.yul\":12701:12743   */\n      tag_278\n      jump\t// in\n    tag_441:\n        /* \"#utility.yul\":12696:12699   */\n      dup3\n        /* \"#utility.yul\":12689:12744   */\n      mstore\n        /* \"#utility.yul\":12609:12750   */\n      pop\n      pop\n      jump\t// out\n        /* \"#utility.yul\":12756:12988   */\n    tag_65:\n        /* \"#utility.yul\":12854:12858   */\n      0x00\n        /* \"#utility.yul\":12892:12894   */\n      0x20\n        /* \"#utility.yul\":12881:12890   */\n      dup3\n        /* \"#utility.yul\":12877:12895   */\n      add\n        /* \"#utility.yul\":12869:12895   */\n      swap1\n      pop\n        /* \"#utility.yul\":12905:12981   */\n      tag_443\n        /* \"#utility.yul\":12978:12979   */\n      0x00\n        /* \"#utility.yul\":12967:12976   */\n      dup4\n        /* \"#utility.yul\":12963:12980   */\n      add\n        /* \"#utility.yul\":12954:12960   */\n      dup5\n        /* \"#utility.yul\":12905:12981   */\n      tag_284\n      jump\t// in\n    tag_443:\n        /* \"#utility.yul\":12756:12988   */\n      swap3\n      swap2\n      pop\n      pop\n      jump\t// out\n        /* \"#utility.yul\":12994:13136   */\n    tag_285:\n        /* \"#utility.yul\":13097:13129   */\n      tag_445\n        /* \"#utility.yul\":13123:13128   */\n      dup2\n        /* \"#utility.yul\":13097:13129   */\n      tag_274\n      jump\t// in\n    tag_445:\n        /* \"#utility.yul\":13092:13095   */\n      dup3\n        /* \"#utility.yul\":13085:13130   */\n      mstore\n        /* \"#utility.yul\":12994:13136   */\n      pop\n      pop\n      jump\t// out\n        /* \"#utility.yul\":13142:13396   */\n    tag_71:\n        /* \"#utility.yul\":13251:13255   */\n      0x00\n        /* \"#utility.yul\":13289:13291   */\n      0x20\n        /* \"#utility.yul\":13278:13287   */\n      dup3\n        /* \"#utility.yul\":13274:13292   */\n      add\n        /* \"#utility.yul\":13266:13292   */\n      swap1\n      pop\n        /* \"#utility.yul\":13302:13389   */\n      tag_447\n        /* \"#utility.yul\":13386:13387   */\n      0x00\n        /* \"#utility.yul\":13375:13384   */\n      dup4\n        /* \"#utility.yul\":13371:13388   */\n      add\n        /* \"#utility.yul\":13362:13368   */\n      dup5\n        /* \"#utility.yul\":13302:13389   */\n      tag_285\n      jump\t// in\n    tag_447:\n        /* \"#utility.yul\":13142:13396   */\n      swap3\n      swap2\n      pop\n      pop\n      jump\t// out\n        /* \"#utility.yul\":13402:13876   */\n    tag_115:\n        /* \"#utility.yul\":13470:13476   */\n      0x00\n        /* \"#utility.yul\":13478:13484   */\n      dup1\n        /* \"#utility.yul\":13527:13529   */\n      0x40\n        /* \"#utility.yul\":13515:13524   */\n      dup4\n        /* \"#utility.yul\":13506:13513   */\n      dup6\n        /* \"#utility.yul\":13502:13525   */\n      sub\n        /* \"#utility.yul\":13498:13530   */\n      slt\n        /* \"#utility.yul\":13495:13614   */\n      iszero\n      tag_449\n      jumpi\n        /* \"#utility.yul\":13533:13612   */\n      tag_450\n      tag_251\n      jump\t// in\n    tag_450:\n        /* \"#utility.yul\":13495:13614   */\n    tag_449:\n        /* \"#utility.yul\":13653:13654   */\n      0x00\n        /* \"#utility.yul\":13678:13731   */\n      tag_451\n        /* \"#utility.yul\":13723:13730   */\n      dup6\n        /* \"#utility.yul\":13714:13720   */\n      dup3\n        /* \"#utility.yul\":13703:13712   */\n      dup7\n        /* \"#utility.yul\":13699:13721   */\n      add\n        /* \"#utility.yul\":13678:13731   */\n      tag_254\n      jump\t// in\n    tag_451:\n        /* \"#utility.yul\":13668:13731   */\n      swap3\n      pop\n        /* \"#utility.yul\":13624:13741   */\n      pop\n        /* \"#utility.yul\":13780:13782   */\n      0x20\n        /* \"#utility.yul\":13806:13859   */\n      tag_452\n        /* \"#utility.yul\":13851:13858   */\n      dup6\n        /* \"#utility.yul\":13842:13848   */\n      dup3\n        /* \"#utility.yul\":13831:13840   */\n      dup7\n        /* \"#utility.yul\":13827:13849   */\n      add\n        /* \"#utility.yul\":13806:13859   */\n      tag_254\n      jump\t// in\n    tag_452:\n        /* \"#utility.yul\":13796:13859   */\n      swap2\n      pop\n        /* \"#utility.yul\":13751:13869   */\n      pop\n        /* \"#utility.yul\":13402:13876   */\n      swap3\n      pop\n      swap3\n      swap1\n      pop\n      jump\t// out\n        /* \"#utility.yul\":13882:13972   */\n    tag_286:\n        /* \"#utility.yul\":13916:13923   */\n      0x00\n        /* \"#utility.yul\":13959:13964   */\n      dup2\n        /* \"#utility.yul\":13952:13965   */\n      iszero\n        /* \"#utility.yul\":13945:13966   */\n      iszero\n        /* \"#utility.yul\":13934:13966   */\n      swap1\n      pop\n        /* \"#utility.yul\":13882:13972   */\n      swap2\n      swap1\n      pop\n      jump\t// out\n        /* \"#utility.yul\":13978:14087   */\n    tag_287:\n        /* \"#utility.yul\":14059:14080   */\n      tag_455\n        /* \"#utility.yul\":14074:14079   */\n      dup2\n        /* \"#utility.yul\":14059:14080   */\n      tag_286\n      jump\t// in\n    tag_455:\n        /* \"#utility.yul\":14054:14057   */\n      dup3\n        /* \"#utility.yul\":14047:14081   */\n      mstore\n        /* \"#utility.yul\":13978:14087   */\n      pop\n      pop\n      jump\t// out\n        /* \"#utility.yul\":14093:15120   */\n    tag_127:\n        /* \"#utility.yul\":14397:14401   */\n      0x00\n        /* \"#utility.yul\":14435:14438   */\n      0x0100\n        /* \"#utility.yul\":14424:14433   */\n      dup3\n        /* \"#utility.yul\":14420:14439   */\n      add\n        /* \"#utility.yul\":14412:14439   */\n      swap1\n      pop\n        /* \"#utility.yul\":14449:14536   */\n      tag_457\n        /* \"#utility.yul\":14533:14534   */\n      0x00\n        /* \"#utility.yul\":14522:14531   */\n      dup4\n        /* \"#utility.yul\":14518:14535   */\n      add\n        /* \"#utility.yul\":14509:14515   */\n      dup12\n        /* \"#utility.yul\":14449:14536   */\n      tag_285\n      jump\t// in\n    tag_457:\n        /* \"#utility.yul\":14546:14618   */\n      tag_458\n        /* \"#utility.yul\":14614:14616   */\n      0x20\n        /* \"#utility.yul\":14603:14612   */\n      dup4\n        /* \"#utility.yul\":14599:14617   */\n      add\n        /* \"#utility.yul\":14590:14596   */\n      dup11\n        /* \"#utility.yul\":14546:14618   */\n      tag_269\n      jump\t// in\n    tag_458:\n        /* \"#utility.yul\":14628:14700   */\n      tag_459\n        /* \"#utility.yul\":14696:14698   */\n      0x40\n        /* \"#utility.yul\":14685:14694   */\n      dup4\n        /* \"#utility.yul\":14681:14699   */\n      add\n        /* \"#utility.yul\":14672:14678   */\n      dup10\n        /* \"#utility.yul\":14628:14700   */\n      tag_269\n      jump\t// in\n    tag_459:\n        /* \"#utility.yul\":14710:14787   */\n      tag_460\n        /* \"#utility.yul\":14783:14785   */\n      0x60\n        /* \"#utility.yul\":14772:14781   */\n      dup4\n        /* \"#utility.yul\":14768:14786   */\n      add\n        /* \"#utility.yul\":14759:14765   */\n      dup9\n        /* \"#utility.yul\":14710:14787   */\n      tag_284\n      jump\t// in\n    tag_460:\n        /* \"#utility.yul\":14797:14870   */\n      tag_461\n        /* \"#utility.yul\":14865:14868   */\n      0x80\n        /* \"#utility.yul\":14854:14863   */\n      dup4\n        /* \"#utility.yul\":14850:14869   */\n      add\n        /* \"#utility.yul\":14841:14847   */\n      dup8\n        /* \"#utility.yul\":14797:14870   */\n      tag_269\n      jump\t// in\n    tag_461:\n        /* \"#utility.yul\":14880:14953   */\n      tag_462\n        /* \"#utility.yul\":14948:14951   */\n      0xa0\n        /* \"#utility.yul\":14937:14946   */\n      dup4\n        /* \"#utility.yul\":14933:14952   */\n      add\n        /* \"#utility.yul\":14924:14930   */\n      dup7\n        /* \"#utility.yul\":14880:14953   */\n      tag_269\n      jump\t// in\n    tag_462:\n        /* \"#utility.yul\":14963:15036   */\n      tag_463\n        /* \"#utility.yul\":15031:15034   */\n      0xc0\n        /* \"#utility.yul\":15020:15029   */\n      dup4\n        /* \"#utility.yul\":15016:15035   */\n      add\n        /* \"#utility.yul\":15007:15013   */\n      dup6\n        /* \"#utility.yul\":14963:15036   */\n      tag_269\n      jump\t// in\n    tag_463:\n        /* \"#utility.yul\":15046:15113   */\n      tag_464\n        /* \"#utility.yul\":15108:15111   */\n      0xe0\n        /* \"#utility.yul\":15097:15106   */\n      dup4\n        /* \"#utility.yul\":15093:15112   */\n      add\n        /* \"#utility.yul\":15084:15090   */\n      dup5\n        /* \"#utility.yul\":15046:15113   */\n      tag_287\n      jump\t// in\n    tag_464:\n        /* \"#utility.yul\":14093:15120   */\n      swap10\n      swap9\n      pop\n      pop\n      pop\n      pop\n      pop\n      pop\n      pop\n      pop\n      pop\n      jump\t// out\n        /* \"#utility.yul\":15126:15289   */\n    tag_288:\n        /* \"#utility.yul\":15266:15281   */\n      0x4f726465722050656e64696e6700000000000000000000000000000000000000\n        /* \"#utility.yul\":15262:15263   */\n      0x00\n        /* \"#utility.yul\":15254:15260   */\n      dup3\n        /* \"#utility.yul\":15250:15264   */\n      add\n        /* \"#utility.yul\":15243:15282   */\n      mstore\n        /* \"#utility.yul\":15126:15289   */\n      pop\n      jump\t// out\n        /* \"#utility.yul\":15295:15661   */\n    tag_289:\n        /* \"#utility.yul\":15437:15440   */\n      0x00\n        /* \"#utility.yul\":15458:15525   */\n      tag_467\n        /* \"#utility.yul\":15522:15524   */\n      0x0d\n        /* \"#utility.yul\":15517:15520   */\n      dup4\n        /* \"#utility.yul\":15458:15525   */\n      tag_266\n      jump\t// in\n    tag_467:\n        /* \"#utility.yul\":15451:15525   */\n      swap2\n      pop\n        /* \"#utility.yul\":15534:15627   */\n      tag_468\n        /* \"#utility.yul\":15623:15626   */\n      dup3\n        /* \"#utility.yul\":15534:15627   */\n      tag_288\n      jump\t// in\n    tag_468:\n        /* \"#utility.yul\":15652:15654   */\n      0x20\n        /* \"#utility.yul\":15647:15650   */\n      dup3\n        /* \"#utility.yul\":15643:15655   */\n      add\n        /* \"#utility.yul\":15636:15655   */\n      swap1\n      pop\n        /* \"#utility.yul\":15295:15661   */\n      swap2\n      swap1\n      pop\n      jump\t// out\n        /* \"#utility.yul\":15667:16086   */\n    tag_150:\n        /* \"#utility.yul\":15833:15837   */\n      0x00\n        /* \"#utility.yul\":15871:15873   */\n      0x20\n        /* \"#utility.yul\":15860:15869   */\n      dup3\n        /* \"#utility.yul\":15856:15874   */\n      add\n        /* \"#utility.yul\":15848:15874   */\n      swap1\n      pop\n        /* \"#utility.yul\":15920:15929   */\n      dup2\n        /* \"#utility.yul\":15914:15918   */\n      dup2\n        /* \"#utility.yul\":15910:15930   */\n      sub\n        /* \"#utility.yul\":15906:15907   */\n      0x00\n        /* \"#utility.yul\":15895:15904   */\n      dup4\n        /* \"#utility.yul\":15891:15908   */\n      add\n        /* \"#utility.yul\":15884:15931   */\n      mstore\n        /* \"#utility.yul\":15948:16079   */\n      tag_470\n        /* \"#utility.yul\":16074:16078   */\n      dup2\n        /* \"#utility.yul\":15948:16079   */\n      tag_289\n      jump\t// in\n    tag_470:\n        /* \"#utility.yul\":15940:16079   */\n      swap1\n      pop\n        /* \"#utility.yul\":15667:16086   */\n      swap2\n      swap1\n      pop\n      jump\t// out\n        /* \"#utility.yul\":16092:16256   */\n    tag_290:\n        /* \"#utility.yul\":16232:16248   */\n      0x4e6f7420417574686f7269736564000000000000000000000000000000000000\n        /* \"#utility.yul\":16228:16229   */\n      0x00\n        /* \"#utility.yul\":16220:16226   */\n      dup3\n        /* \"#utility.yul\":16216:16230   */\n      add\n        /* \"#utility.yul\":16209:16249   */\n      mstore\n        /* \"#utility.yul\":16092:16256   */\n      pop\n      jump\t// out\n        /* \"#utility.yul\":16262:16628   */\n    tag_291:\n        /* \"#utility.yul\":16404:16407   */\n      0x00\n        /* \"#utility.yul\":16425:16492   */\n      tag_473\n        /* \"#utility.yul\":16489:16491   */\n      0x0e\n        /* \"#utility.yul\":16484:16487   */\n      dup4\n        /* \"#utility.yul\":16425:16492   */\n      tag_266\n      jump\t// in\n    tag_473:\n        /* \"#utility.yul\":16418:16492   */\n      swap2\n      pop\n        /* \"#utility.yul\":16501:16594   */\n      tag_474\n        /* \"#utility.yul\":16590:16593   */\n      dup3\n        /* \"#utility.yul\":16501:16594   */\n      tag_290\n      jump\t// in\n    tag_474:\n        /* \"#utility.yul\":16619:16621   */\n      0x20\n        /* \"#utility.yul\":16614:16617   */\n      dup3\n        /* \"#utility.yul\":16610:16622   */\n      add\n        /* \"#utility.yul\":16603:16622   */\n      swap1\n      pop\n        /* \"#utility.yul\":16262:16628   */\n      swap2\n      swap1\n      pop\n      jump\t// out\n        /* \"#utility.yul\":16634:17053   */\n    tag_158:\n        /* \"#utility.yul\":16800:16804   */\n      0x00\n        /* \"#utility.yul\":16838:16840   */\n      0x20\n        /* \"#utility.yul\":16827:16836   */\n      dup3\n        /* \"#utility.yul\":16823:16841   */\n      add\n        /* \"#utility.yul\":16815:16841   */\n      swap1\n      pop\n        /* \"#utility.yul\":16887:16896   */\n      dup2\n        /* \"#utility.yul\":16881:16885   */\n      dup2\n        /* \"#utility.yul\":16877:16897   */\n      sub\n        /* \"#utility.yul\":16873:16874   */\n      0x00\n        /* \"#utility.yul\":16862:16871   */\n      dup4\n        /* \"#utility.yul\":16858:16875   */\n      add\n        /* \"#utility.yul\":16851:16898   */\n      mstore\n        /* \"#utility.yul\":16915:17046   */\n      tag_476\n        /* \"#utility.yul\":17041:17045   */\n      dup2\n        /* \"#utility.yul\":16915:17046   */\n      tag_291\n      jump\t// in\n    tag_476:\n        /* \"#utility.yul\":16907:17046   */\n      swap1\n      pop\n        /* \"#utility.yul\":16634:17053   */\n      swap2\n      swap1\n      pop\n      jump\t// out\n        /* \"#utility.yul\":17059:17207   */\n    tag_292:\n        /* \"#utility.yul\":17161:17172   */\n      0x00\n        /* \"#utility.yul\":17198:17201   */\n      dup2\n        /* \"#utility.yul\":17183:17201   */\n      swap1\n      pop\n        /* \"#utility.yul\":17059:17207   */\n      swap3\n      swap2\n      pop\n      pop\n      jump\t// out\n        /* \"#utility.yul\":17213:17590   */\n    tag_293:\n        /* \"#utility.yul\":17319:17322   */\n      0x00\n        /* \"#utility.yul\":17347:17386   */\n      tag_479\n        /* \"#utility.yul\":17380:17385   */\n      dup3\n        /* \"#utility.yul\":17347:17386   */\n      tag_265\n      jump\t// in\n    tag_479:\n        /* \"#utility.yul\":17402:17491   */\n      tag_480\n        /* \"#utility.yul\":17484:17490   */\n      dup2\n        /* \"#utility.yul\":17479:17482   */\n      dup6\n        /* \"#utility.yul\":17402:17491   */\n      tag_292\n      jump\t// in\n    tag_480:\n        /* \"#utility.yul\":17395:17491   */\n      swap4\n      pop\n        /* \"#utility.yul\":17500:17552   */\n      tag_481\n        /* \"#utility.yul\":17545:17551   */\n      dup2\n        /* \"#utility.yul\":17540:17543   */\n      dup6\n        /* \"#utility.yul\":17533:17537   */\n      0x20\n        /* \"#utility.yul\":17526:17531   */\n      dup7\n        /* \"#utility.yul\":17522:17538   */\n      add\n        /* \"#utility.yul\":17500:17552   */\n      tag_267\n      jump\t// in\n    tag_481:\n        /* \"#utility.yul\":17577:17583   */\n      dup1\n        /* \"#utility.yul\":17572:17575   */\n      dup5\n        /* \"#utility.yul\":17568:17584   */\n      add\n        /* \"#utility.yul\":17561:17584   */\n      swap2\n      pop\n        /* \"#utility.yul\":17323:17590   */\n      pop\n        /* \"#utility.yul\":17213:17590   */\n      swap3\n      swap2\n      pop\n      pop\n      jump\t// out\n        /* \"#utility.yul\":17596:17747   */\n    tag_294:\n        /* \"#utility.yul\":17736:17739   */\n      0x2000000000000000000000000000000000000000000000000000000000000000\n        /* \"#utility.yul\":17732:17733   */\n      0x00\n        /* \"#utility.yul\":17724:17730   */\n      dup3\n        /* \"#utility.yul\":17720:17734   */\n      add\n        /* \"#utility.yul\":17713:17740   */\n      mstore\n        /* \"#utility.yul\":17596:17747   */\n      pop\n      jump\t// out\n        /* \"#utility.yul\":17753:18153   */\n    tag_295:\n        /* \"#utility.yul\":17913:17916   */\n      0x00\n        /* \"#utility.yul\":17934:18018   */\n      tag_484\n        /* \"#utility.yul\":18016:18017   */\n      0x01\n        /* \"#utility.yul\":18011:18014   */\n      dup4\n        /* \"#utility.yul\":17934:18018   */\n      tag_292\n      jump\t// in\n    tag_484:\n        /* \"#utility.yul\":17927:18018   */\n      swap2\n      pop\n        /* \"#utility.yul\":18027:18120   */\n      tag_485\n        /* \"#utility.yul\":18116:18119   */\n      dup3\n        /* \"#utility.yul\":18027:18120   */\n      tag_294\n      jump\t// in\n    tag_485:\n        /* \"#utility.yul\":18145:18146   */\n      0x01\n        /* \"#utility.yul\":18140:18143   */\n      dup3\n        /* \"#utility.yul\":18136:18147   */\n      add\n        /* \"#utility.yul\":18129:18147   */\n      swap1\n      pop\n        /* \"#utility.yul\":17753:18153   */\n      swap2\n      swap1\n      pop\n      jump\t// out\n        /* \"#utility.yul\":18159:18860   */\n    tag_162:\n        /* \"#utility.yul\":18440:18443   */\n      0x00\n        /* \"#utility.yul\":18462:18557   */\n      tag_487\n        /* \"#utility.yul\":18553:18556   */\n      dup3\n        /* \"#utility.yul\":18544:18550   */\n      dup6\n        /* \"#utility.yul\":18462:18557   */\n      tag_293\n      jump\t// in\n    tag_487:\n        /* \"#utility.yul\":18455:18557   */\n      swap2\n      pop\n        /* \"#utility.yul\":18574:18722   */\n      tag_488\n        /* \"#utility.yul\":18718:18721   */\n      dup3\n        /* \"#utility.yul\":18574:18722   */\n      tag_295\n      jump\t// in\n    tag_488:\n        /* \"#utility.yul\":18567:18722   */\n      swap2\n      pop\n        /* \"#utility.yul\":18739:18834   */\n      tag_489\n        /* \"#utility.yul\":18830:18833   */\n      dup3\n        /* \"#utility.yul\":18821:18827   */\n      dup5\n        /* \"#utility.yul\":18739:18834   */\n      tag_293\n      jump\t// in\n    tag_489:\n        /* \"#utility.yul\":18732:18834   */\n      swap2\n      pop\n        /* \"#utility.yul\":18851:18854   */\n      dup2\n        /* \"#utility.yul\":18844:18854   */\n      swap1\n      pop\n        /* \"#utility.yul\":18159:18860   */\n      swap4\n      swap3\n      pop\n      pop\n      pop\n      jump\t// out\n        /* \"#utility.yul\":18866:19047   */\n    tag_296:\n        /* \"#utility.yul\":19006:19039   */\n      0x70726963652076616c7565206d757374206265206d6f7265207468616e203000\n        /* \"#utility.yul\":19002:19003   */\n      0x00\n        /* \"#utility.yul\":18994:19000   */\n      dup3\n        /* \"#utility.yul\":18990:19004   */\n      add\n        /* \"#utility.yul\":18983:19040   */\n      mstore\n        /* \"#utility.yul\":18866:19047   */\n      pop\n      jump\t// out\n        /* \"#utility.yul\":19053:19419   */\n    tag_297:\n        /* \"#utility.yul\":19195:19198   */\n      0x00\n        /* \"#utility.yul\":19216:19283   */\n      tag_492\n        /* \"#utility.yul\":19280:19282   */\n      0x1f\n        /* \"#utility.yul\":19275:19278   */\n      dup4\n        /* \"#utility.yul\":19216:19283   */\n      tag_266\n      jump\t// in\n    tag_492:\n        /* \"#utility.yul\":19209:19283   */\n      swap2\n      pop\n        /* \"#utility.yul\":19292:19385   */\n      tag_493\n        /* \"#utility.yul\":19381:19384   */\n      dup3\n        /* \"#utility.yul\":19292:19385   */\n      tag_296\n      jump\t// in\n    tag_493:\n        /* \"#utility.yul\":19410:19412   */\n      0x20\n        /* \"#utility.yul\":19405:19408   */\n      dup3\n        /* \"#utility.yul\":19401:19413   */\n      add\n        /* \"#utility.yul\":19394:19413   */\n      swap1\n      pop\n        /* \"#utility.yul\":19053:19419   */\n      swap2\n      swap1\n      pop\n      jump\t// out\n        /* \"#utility.yul\":19425:19844   */\n    tag_174:\n        /* \"#utility.yul\":19591:19595   */\n      0x00\n        /* \"#utility.yul\":19629:19631   */\n      0x20\n        /* \"#utility.yul\":19618:19627   */\n      dup3\n        /* \"#utility.yul\":19614:19632   */\n      add\n        /* \"#utility.yul\":19606:19632   */\n      swap1\n      pop\n        /* \"#utility.yul\":19678:19687   */\n      dup2\n        /* \"#utility.yul\":19672:19676   */\n      dup2\n        /* \"#utility.yul\":19668:19688   */\n      sub\n        /* \"#utility.yul\":19664:19665   */\n      0x00\n        /* \"#utility.yul\":19653:19662   */\n      dup4\n        /* \"#utility.yul\":19649:19666   */\n      add\n        /* \"#utility.yul\":19642:19689   */\n      mstore\n        /* \"#utility.yul\":19706:19837   */\n      tag_495\n        /* \"#utility.yul\":19832:19836   */\n      dup2\n        /* \"#utility.yul\":19706:19837   */\n      tag_297\n      jump\t// in\n    tag_495:\n        /* \"#utility.yul\":19698:19837   */\n      swap1\n      pop\n        /* \"#utility.yul\":19425:19844   */\n      swap2\n      swap1\n      pop\n      jump\t// out\n        /* \"#utility.yul\":19850:20030   */\n    tag_298:\n        /* \"#utility.yul\":19990:20022   */\n      0x4e6f7420656e6f75676820626c616e636520746f20706c6163652061736b0000\n        /* \"#utility.yul\":19986:19987   */\n      0x00\n        /* \"#utility.yul\":19978:19984   */\n      dup3\n        /* \"#utility.yul\":19974:19988   */\n      add\n        /* \"#utility.yul\":19967:20023   */\n      mstore\n        /* \"#utility.yul\":19850:20030   */\n      pop\n      jump\t// out\n        /* \"#utility.yul\":20036:20402   */\n    tag_299:\n        /* \"#utility.yul\":20178:20181   */\n      0x00\n        /* \"#utility.yul\":20199:20266   */\n      tag_498\n        /* \"#utility.yul\":20263:20265   */\n      0x1e\n        /* \"#utility.yul\":20258:20261   */\n      dup4\n        /* \"#utility.yul\":20199:20266   */\n      tag_266\n      jump\t// in\n    tag_498:\n        /* \"#utility.yul\":20192:20266   */\n      swap2\n      pop\n        /* \"#utility.yul\":20275:20368   */\n      tag_499\n        /* \"#utility.yul\":20364:20367   */\n      dup3\n        /* \"#utility.yul\":20275:20368   */\n      tag_298\n      jump\t// in\n    tag_499:\n        /* \"#utility.yul\":20393:20395   */\n      0x20\n        /* \"#utility.yul\":20388:20391   */\n      dup3\n        /* \"#utility.yul\":20384:20396   */\n      add\n        /* \"#utility.yul\":20377:20396   */\n      swap1\n      pop\n        /* \"#utility.yul\":20036:20402   */\n      swap2\n      swap1\n      pop\n      jump\t// out\n        /* \"#utility.yul\":20408:20827   */\n    tag_177:\n        /* \"#utility.yul\":20574:20578   */\n      0x00\n        /* \"#utility.yul\":20612:20614   */\n      0x20\n        /* \"#utility.yul\":20601:20610   */\n      dup3\n        /* \"#utility.yul\":20597:20615   */\n      add\n        /* \"#utility.yul\":20589:20615   */\n      swap1\n      pop\n        /* \"#utility.yul\":20661:20670   */\n      dup2\n        /* \"#utility.yul\":20655:20659   */\n      dup2\n        /* \"#utility.yul\":20651:20671   */\n      sub\n        /* \"#utility.yul\":20647:20648   */\n      0x00\n        /* \"#utility.yul\":20636:20645   */\n      dup4\n        /* \"#utility.yul\":20632:20649   */\n      add\n        /* \"#utility.yul\":20625:20672   */\n      mstore\n        /* \"#utility.yul\":20689:20820   */\n      tag_501\n        /* \"#utility.yul\":20815:20819   */\n      dup2\n        /* \"#utility.yul\":20689:20820   */\n      tag_299\n      jump\t// in\n    tag_501:\n        /* \"#utility.yul\":20681:20820   */\n      swap1\n      pop\n        /* \"#utility.yul\":20408:20827   */\n      swap2\n      swap1\n      pop\n      jump\t// out\n        /* \"#utility.yul\":20833:21013   */\n    tag_300:\n        /* \"#utility.yul\":20881:20958   */\n      0x4e487b7100000000000000000000000000000000000000000000000000000000\n        /* \"#utility.yul\":20878:20879   */\n      0x00\n        /* \"#utility.yul\":20871:20959   */\n      mstore\n        /* \"#utility.yul\":20978:20982   */\n      0x11\n        /* \"#utility.yul\":20975:20976   */\n      0x04\n        /* \"#utility.yul\":20968:20983   */\n      mstore\n        /* \"#utility.yul\":21002:21006   */\n      0x24\n        /* \"#utility.yul\":20999:21000   */\n      0x00\n        /* \"#utility.yul\":20992:21007   */\n      revert\n        /* \"#utility.yul\":21019:21210   */\n    tag_179:\n        /* \"#utility.yul\":21059:21063   */\n      0x00\n        /* \"#utility.yul\":21079:21099   */\n      tag_504\n        /* \"#utility.yul\":21097:21098   */\n      dup3\n        /* \"#utility.yul\":21079:21099   */\n      tag_245\n      jump\t// in\n    tag_504:\n        /* \"#utility.yul\":21074:21099   */\n      swap2\n      pop\n        /* \"#utility.yul\":21113:21133   */\n      tag_505\n        /* \"#utility.yul\":21131:21132   */\n      dup4\n        /* \"#utility.yul\":21113:21133   */\n      tag_245\n      jump\t// in\n    tag_505:\n        /* \"#utility.yul\":21108:21133   */\n      swap3\n      pop\n        /* \"#utility.yul\":21152:21153   */\n      dup3\n        /* \"#utility.yul\":21149:21150   */\n      dup3\n        /* \"#utility.yul\":21146:21154   */\n      lt\n        /* \"#utility.yul\":21143:21177   */\n      iszero\n      tag_506\n      jumpi\n        /* \"#utility.yul\":21157:21175   */\n      tag_507\n      tag_300\n      jump\t// in\n    tag_507:\n        /* \"#utility.yul\":21143:21177   */\n    tag_506:\n        /* \"#utility.yul\":21202:21203   */\n      dup3\n        /* \"#utility.yul\":21199:21200   */\n      dup3\n        /* \"#utility.yul\":21195:21204   */\n      sub\n        /* \"#utility.yul\":21187:21204   */\n      swap1\n      pop\n        /* \"#utility.yul\":21019:21210   */\n      swap3\n      swap2\n      pop\n      pop\n      jump\t// out\n        /* \"#utility.yul\":21216:21564   */\n    tag_181:\n        /* \"#utility.yul\":21256:21263   */\n      0x00\n        /* \"#utility.yul\":21279:21299   */\n      tag_509\n        /* \"#utility.yul\":21297:21298   */\n      dup3\n        /* \"#utility.yul\":21279:21299   */\n      tag_245\n      jump\t// in\n    tag_509:\n        /* \"#utility.yul\":21274:21299   */\n      swap2\n      pop\n        /* \"#utility.yul\":21313:21333   */\n      tag_510\n        /* \"#utility.yul\":21331:21332   */\n      dup4\n        /* \"#utility.yul\":21313:21333   */\n      tag_245\n      jump\t// in\n    tag_510:\n        /* \"#utility.yul\":21308:21333   */\n      swap3\n      pop\n        /* \"#utility.yul\":21501:21502   */\n      dup2\n        /* \"#utility.yul\":21433:21499   */\n      0xffffffffffffffffffffffffffffffffffffffffffffffffffffffffffffffff\n        /* \"#utility.yul\":21429:21503   */\n      div\n        /* \"#utility.yul\":21426:21427   */\n      dup4\n        /* \"#utility.yul\":21423:21504   */\n      gt\n        /* \"#utility.yul\":21418:21419   */\n      dup3\n        /* \"#utility.yul\":21411:21420   */\n      iszero\n        /* \"#utility.yul\":21404:21421   */\n      iszero\n        /* \"#utility.yul\":21400:21505   */\n      and\n        /* \"#utility.yul\":21397:21528   */\n      iszero\n      tag_511\n      jumpi\n        /* \"#utility.yul\":21508:21526   */\n      tag_512\n      tag_300\n      jump\t// in\n    tag_512:\n        /* \"#utility.yul\":21397:21528   */\n    tag_511:\n        /* \"#utility.yul\":21556:21557   */\n      dup3\n        /* \"#utility.yul\":21553:21554   */\n      dup3\n        /* \"#utility.yul\":21549:21558   */\n      mul\n        /* \"#utility.yul\":21538:21558   */\n      swap1\n      pop\n        /* \"#utility.yul\":21216:21564   */\n      swap3\n      swap2\n      pop\n      pop\n      jump\t// out\n        /* \"#utility.yul\":21570:21750   */\n    tag_301:\n        /* \"#utility.yul\":21618:21695   */\n      0x4e487b7100000000000000000000000000000000000000000000000000000000\n        /* \"#utility.yul\":21615:21616   */\n      0x00\n        /* \"#utility.yul\":21608:21696   */\n      mstore\n        /* \"#utility.yul\":21715:21719   */\n      0x12\n        /* \"#utility.yul\":21712:21713   */\n      0x04\n        /* \"#utility.yul\":21705:21720   */\n      mstore\n        /* \"#utility.yul\":21739:21743   */\n      0x24\n        /* \"#utility.yul\":21736:21737   */\n      0x00\n        /* \"#utility.yul\":21729:21744   */\n      revert\n        /* \"#utility.yul\":21756:21941   */\n    tag_183:\n        /* \"#utility.yul\":21796:21797   */\n      0x00\n        /* \"#utility.yul\":21813:21833   */\n      tag_515\n        /* \"#utility.yul\":21831:21832   */\n      dup3\n        /* \"#utility.yul\":21813:21833   */\n      tag_245\n      jump\t// in\n    tag_515:\n        /* \"#utility.yul\":21808:21833   */\n      swap2\n      pop\n        /* \"#utility.yul\":21847:21867   */\n      tag_516\n        /* \"#utility.yul\":21865:21866   */\n      dup4\n        /* \"#utility.yul\":21847:21867   */\n      tag_245\n      jump\t// in\n    tag_516:\n        /* \"#utility.yul\":21842:21867   */\n      swap3\n      pop\n        /* \"#utility.yul\":21886:21887   */\n      dup3\n        /* \"#utility.yul\":21876:21911   */\n      tag_517\n      jumpi\n        /* \"#utility.yul\":21891:21909   */\n      tag_518\n      tag_301\n      jump\t// in\n    tag_518:\n        /* \"#utility.yul\":21876:21911   */\n    tag_517:\n        /* \"#utility.yul\":21933:21934   */\n      dup3\n        /* \"#utility.yul\":21930:21931   */\n      dup3\n        /* \"#utility.yul\":21926:21935   */\n      div\n        /* \"#utility.yul\":21921:21935   */\n      swap1\n      pop\n        /* \"#utility.yul\":21756:21941   */\n      swap3\n      swap2\n      pop\n      pop\n      jump\t// out\n        /* \"#utility.yul\":21947:22127   */\n    tag_302:\n        /* \"#utility.yul\":22087:22119   */\n      0x4e6f7420656e6f75676820626c616e636520746f20706c616365206269640000\n        /* \"#utility.yul\":22083:22084   */\n      0x00\n        /* \"#utility.yul\":22075:22081   */\n      dup3\n        /* \"#utility.yul\":22071:22085   */\n      add\n        /* \"#utility.yul\":22064:22120   */\n      mstore\n        /* \"#utility.yul\":21947:22127   */\n      pop\n      jump\t// out\n        /* \"#utility.yul\":22133:22499   */\n    tag_303:\n        /* \"#utility.yul\":22275:22278   */\n      0x00\n        /* \"#utility.yul\":22296:22363   */\n      tag_521\n        /* \"#utility.yul\":22360:22362   */\n      0x1e\n        /* \"#utility.yul\":22355:22358   */\n      dup4\n        /* \"#utility.yul\":22296:22363   */\n      tag_266\n      jump\t// in\n    tag_521:\n        /* \"#utility.yul\":22289:22363   */\n      swap2\n      pop\n        /* \"#utility.yul\":22372:22465   */\n      tag_522\n        /* \"#utility.yul\":22461:22464   */\n      dup3\n        /* \"#utility.yul\":22372:22465   */\n      tag_302\n      jump\t// in\n    tag_522:\n        /* \"#utility.yul\":22490:22492   */\n      0x20\n        /* \"#utility.yul\":22485:22488   */\n      dup3\n        /* \"#utility.yul\":22481:22493   */\n      add\n        /* \"#utility.yul\":22474:22493   */\n      swap1\n      pop\n        /* \"#utility.yul\":22133:22499   */\n      swap2\n      swap1\n      pop\n      jump\t// out\n        /* \"#utility.yul\":22505:22924   */\n    tag_212:\n        /* \"#utility.yul\":22671:22675   */\n      0x00\n        /* \"#utility.yul\":22709:22711   */\n      0x20\n        /* \"#utility.yul\":22698:22707   */\n      dup3\n        /* \"#utility.yul\":22694:22712   */\n      add\n        /* \"#utility.yul\":22686:22712   */\n      swap1\n      pop\n        /* \"#utility.yul\":22758:22767   */\n      dup2\n        /* \"#utility.yul\":22752:22756   */\n      dup2\n        /* \"#utility.yul\":22748:22768   */\n      sub\n        /* \"#utility.yul\":22744:22745   */\n      0x00\n        /* \"#utility.yul\":22733:22742   */\n      dup4\n        /* \"#utility.yul\":22729:22746   */\n      add\n        /* \"#utility.yul\":22722:22769   */\n      mstore\n        /* \"#utility.yul\":22786:22917   */\n      tag_524\n        /* \"#utility.yul\":22912:22916   */\n      dup2\n        /* \"#utility.yul\":22786:22917   */\n      tag_303\n      jump\t// in\n    tag_524:\n        /* \"#utility.yul\":22778:22917   */\n      swap1\n      pop\n        /* \"#utility.yul\":22505:22924   */\n      swap2\n      swap1\n      pop\n      jump\t// out\n        /* \"#utility.yul\":22930:23007   */\n    tag_304:\n        /* \"#utility.yul\":22967:22974   */\n      0x00\n        /* \"#utility.yul\":22996:23001   */\n      dup2\n        /* \"#utility.yul\":22985:23001   */\n      swap1\n      pop\n        /* \"#utility.yul\":22930:23007   */\n      swap2\n      swap1\n      pop\n      jump\t// out\n        /* \"#utility.yul\":23013:23092   */\n    tag_305:\n        /* \"#utility.yul\":23052:23059   */\n      0x00\n        /* \"#utility.yul\":23081:23086   */\n      dup2\n        /* \"#utility.yul\":23070:23086   */\n      swap1\n      pop\n        /* \"#utility.yul\":23013:23092   */\n      swap2\n      swap1\n      pop\n      jump\t// out\n        /* \"#utility.yul\":23098:23255   */\n    tag_306:\n        /* \"#utility.yul\":23203:23248   */\n      tag_528\n        /* \"#utility.yul\":23223:23247   */\n      tag_529\n        /* \"#utility.yul\":23241:23246   */\n      dup3\n        /* \"#utility.yul\":23223:23247   */\n      tag_304\n      jump\t// in\n    tag_529:\n        /* \"#utility.yul\":23203:23248   */\n      tag_305\n      jump\t// in\n    tag_528:\n        /* \"#utility.yul\":23198:23201   */\n      dup3\n        /* \"#utility.yul\":23191:23249   */\n      mstore\n        /* \"#utility.yul\":23098:23255   */\n      pop\n      pop\n      jump\t// out\n        /* \"#utility.yul\":23261:23441   */\n    tag_307:\n        /* \"#utility.yul\":23429:23434   */\n      0x202c200000000000000000000000000000000000000000000000000000000000\n        /* \"#utility.yul\":23424:23427   */\n      dup2\n        /* \"#utility.yul\":23417:23435   */\n      mstore\n        /* \"#utility.yul\":23261:23441   */\n      pop\n      jump\t// out\n        /* \"#utility.yul\":23447:24108   */\n    tag_216:\n        /* \"#utility.yul\":23677:23680   */\n      0x00\n        /* \"#utility.yul\":23692:23767   */\n      tag_532\n        /* \"#utility.yul\":23763:23766   */\n      dup3\n        /* \"#utility.yul\":23754:23760   */\n      dup6\n        /* \"#utility.yul\":23692:23767   */\n      tag_306\n      jump\t// in\n    tag_532:\n        /* \"#utility.yul\":23792:23794   */\n      0x20\n        /* \"#utility.yul\":23787:23790   */\n      dup3\n        /* \"#utility.yul\":23783:23795   */\n      add\n        /* \"#utility.yul\":23776:23795   */\n      swap2\n      pop\n        /* \"#utility.yul\":23805:23942   */\n      tag_533\n        /* \"#utility.yul\":23938:23941   */\n      dup3\n        /* \"#utility.yul\":23805:23942   */\n      tag_307\n      jump\t// in\n    tag_533:\n        /* \"#utility.yul\":23967:23968   */\n      0x03\n        /* \"#utility.yul\":23962:23965   */\n      dup3\n        /* \"#utility.yul\":23958:23969   */\n      add\n        /* \"#utility.yul\":23951:23969   */\n      swap2\n      pop\n        /* \"#utility.yul\":23979:24054   */\n      tag_534\n        /* \"#utility.yul\":24050:24053   */\n      dup3\n        /* \"#utility.yul\":24041:24047   */\n      dup5\n        /* \"#utility.yul\":23979:24054   */\n      tag_306\n      jump\t// in\n    tag_534:\n        /* \"#utility.yul\":24079:24081   */\n      0x20\n        /* \"#utility.yul\":24074:24077   */\n      dup3\n        /* \"#utility.yul\":24070:24082   */\n      add\n        /* \"#utility.yul\":24063:24082   */\n      swap2\n      pop\n        /* \"#utility.yul\":24099:24102   */\n      dup2\n        /* \"#utility.yul\":24092:24102   */\n      swap1\n      pop\n        /* \"#utility.yul\":23447:24108   */\n      swap4\n      swap3\n      pop\n      pop\n      pop\n      jump\t// out\n        /* \"#utility.yul\":24114:24347   */\n    tag_224:\n        /* \"#utility.yul\":24153:24156   */\n      0x00\n        /* \"#utility.yul\":24176:24200   */\n      tag_536\n        /* \"#utility.yul\":24194:24199   */\n      dup3\n        /* \"#utility.yul\":24176:24200   */\n      tag_245\n      jump\t// in\n    tag_536:\n        /* \"#utility.yul\":24167:24200   */\n      swap2\n      pop\n        /* \"#utility.yul\":24222:24288   */\n      0xffffffffffffffffffffffffffffffffffffffffffffffffffffffffffffffff\n        /* \"#utility.yul\":24215:24220   */\n      dup3\n        /* \"#utility.yul\":24212:24289   */\n      sub\n        /* \"#utility.yul\":24209:24312   */\n      tag_537\n      jumpi\n        /* \"#utility.yul\":24292:24310   */\n      tag_538\n      tag_300\n      jump\t// in\n    tag_538:\n        /* \"#utility.yul\":24209:24312   */\n    tag_537:\n        /* \"#utility.yul\":24339:24340   */\n      0x01\n        /* \"#utility.yul\":24332:24337   */\n      dup3\n        /* \"#utility.yul\":24328:24341   */\n      add\n        /* \"#utility.yul\":24321:24341   */\n      swap1\n      pop\n        /* \"#utility.yul\":24114:24347   */\n      swap2\n      swap1\n      pop\n      jump\t// out\n        /* \"#utility.yul\":24353:24449   */\n    tag_308:\n        /* \"#utility.yul\":24390:24397   */\n      0x00\n        /* \"#utility.yul\":24419:24443   */\n      tag_540\n        /* \"#utility.yul\":24437:24442   */\n      dup3\n        /* \"#utility.yul\":24419:24443   */\n      tag_273\n      jump\t// in\n    tag_540:\n        /* \"#utility.yul\":24408:24443   */\n      swap1\n      pop\n        /* \"#utility.yul\":24353:24449   */\n      swap2\n      swap1\n      pop\n      jump\t// out\n        /* \"#utility.yul\":24455:24573   */\n    tag_309:\n        /* \"#utility.yul\":24542:24566   */\n      tag_542\n        /* \"#utility.yul\":24560:24565   */\n      dup2\n        /* \"#utility.yul\":24542:24566   */\n      tag_308\n      jump\t// in\n    tag_542:\n        /* \"#utility.yul\":24537:24540   */\n      dup3\n        /* \"#utility.yul\":24530:24567   */\n      mstore\n        /* \"#utility.yul\":24455:24573   */\n      pop\n      pop\n      jump\t// out\n        /* \"#utility.yul\":24579:24664   */\n    tag_310:\n        /* \"#utility.yul\":24624:24631   */\n      0x00\n        /* \"#utility.yul\":24653:24658   */\n      dup2\n        /* \"#utility.yul\":24642:24658   */\n      swap1\n      pop\n        /* \"#utility.yul\":24579:24664   */\n      swap2\n      swap1\n      pop\n      jump\t// out\n        /* \"#utility.yul\":24670:24730   */\n    tag_311:\n        /* \"#utility.yul\":24698:24701   */\n      0x00\n        /* \"#utility.yul\":24719:24724   */\n      dup2\n        /* \"#utility.yul\":24712:24724   */\n      swap1\n      pop\n        /* \"#utility.yul\":24670:24730   */\n      swap2\n      swap1\n      pop\n      jump\t// out\n        /* \"#utility.yul\":24736:24894   */\n    tag_312:\n        /* \"#utility.yul\":24794:24803   */\n      0x00\n        /* \"#utility.yul\":24827:24888   */\n      tag_546\n        /* \"#utility.yul\":24845:24887   */\n      tag_547\n        /* \"#utility.yul\":24854:24886   */\n      tag_548\n        /* \"#utility.yul\":24880:24885   */\n      dup5\n        /* \"#utility.yul\":24854:24886   */\n      tag_310\n      jump\t// in\n    tag_548:\n        /* \"#utility.yul\":24845:24887   */\n      tag_311\n      jump\t// in\n    tag_547:\n        /* \"#utility.yul\":24827:24888   */\n      tag_245\n      jump\t// in\n    tag_546:\n        /* \"#utility.yul\":24814:24888   */\n      swap1\n      pop\n        /* \"#utility.yul\":24736:24894   */\n      swap2\n      swap1\n      pop\n      jump\t// out\n        /* \"#utility.yul\":24900:25047   */\n    tag_313:\n        /* \"#utility.yul\":24995:25040   */\n      tag_550\n        /* \"#utility.yul\":25034:25039   */\n      dup2\n        /* \"#utility.yul\":24995:25040   */\n      tag_312\n      jump\t// in\n    tag_550:\n        /* \"#utility.yul\":24990:24993   */\n      dup3\n        /* \"#utility.yul\":24983:25041   */\n      mstore\n        /* \"#utility.yul\":24900:25047   */\n      pop\n      pop\n      jump\t// out\n        /* \"#utility.yul\":25053:26080   */\n    tag_230:\n        /* \"#utility.yul\":25357:25361   */\n      0x00\n        /* \"#utility.yul\":25395:25398   */\n      0x0100\n        /* \"#utility.yul\":25384:25393   */\n      dup3\n        /* \"#utility.yul\":25380:25399   */\n      add\n        /* \"#utility.yul\":25372:25399   */\n      swap1\n      pop\n        /* \"#utility.yul\":25409:25480   */\n      tag_552\n        /* \"#utility.yul\":25477:25478   */\n      0x00\n        /* \"#utility.yul\":25466:25475   */\n      dup4\n        /* \"#utility.yul\":25462:25479   */\n      add\n        /* \"#utility.yul\":25453:25459   */\n      dup12\n        /* \"#utility.yul\":25409:25480   */\n      tag_309\n      jump\t// in\n    tag_552:\n        /* \"#utility.yul\":25490:25562   */\n      tag_553\n        /* \"#utility.yul\":25558:25560   */\n      0x20\n        /* \"#utility.yul\":25547:25556   */\n      dup4\n        /* \"#utility.yul\":25543:25561   */\n      add\n        /* \"#utility.yul\":25534:25540   */\n      dup11\n        /* \"#utility.yul\":25490:25562   */\n      tag_269\n      jump\t// in\n    tag_553:\n        /* \"#utility.yul\":25572:25644   */\n      tag_554\n        /* \"#utility.yul\":25640:25642   */\n      0x40\n        /* \"#utility.yul\":25629:25638   */\n      dup4\n        /* \"#utility.yul\":25625:25643   */\n      add\n        /* \"#utility.yul\":25616:25622   */\n      dup10\n        /* \"#utility.yul\":25572:25644   */\n      tag_269\n      jump\t// in\n    tag_554:\n        /* \"#utility.yul\":25654:25731   */\n      tag_555\n        /* \"#utility.yul\":25727:25729   */\n      0x60\n        /* \"#utility.yul\":25716:25725   */\n      dup4\n        /* \"#utility.yul\":25712:25730   */\n      add\n        /* \"#utility.yul\":25703:25709   */\n      dup9\n        /* \"#utility.yul\":25654:25731   */\n      tag_284\n      jump\t// in\n    tag_555:\n        /* \"#utility.yul\":25741:25814   */\n      tag_556\n        /* \"#utility.yul\":25809:25812   */\n      0x80\n        /* \"#utility.yul\":25798:25807   */\n      dup4\n        /* \"#utility.yul\":25794:25813   */\n      add\n        /* \"#utility.yul\":25785:25791   */\n      dup8\n        /* \"#utility.yul\":25741:25814   */\n      tag_269\n      jump\t// in\n    tag_556:\n        /* \"#utility.yul\":25824:25905   */\n      tag_557\n        /* \"#utility.yul\":25900:25903   */\n      0xa0\n        /* \"#utility.yul\":25889:25898   */\n      dup4\n        /* \"#utility.yul\":25885:25904   */\n      add\n        /* \"#utility.yul\":25876:25882   */\n      dup7\n        /* \"#utility.yul\":25824:25905   */\n      tag_313\n      jump\t// in\n    tag_557:\n        /* \"#utility.yul\":25915:25996   */\n      tag_558\n        /* \"#utility.yul\":25991:25994   */\n      0xc0\n        /* \"#utility.yul\":25980:25989   */\n      dup4\n        /* \"#utility.yul\":25976:25995   */\n      add\n        /* \"#utility.yul\":25967:25973   */\n      dup6\n        /* \"#utility.yul\":25915:25996   */\n      tag_313\n      jump\t// in\n    tag_558:\n        /* \"#utility.yul\":26006:26073   */\n      tag_559\n        /* \"#utility.yul\":26068:26071   */\n      0xe0\n        /* \"#utility.yul\":26057:26066   */\n      dup4\n        /* \"#utility.yul\":26053:26072   */\n      add\n        /* \"#utility.yul\":26044:26050   */\n      dup5\n        /* \"#utility.yul\":26006:26073   */\n      tag_287\n      jump\t// in\n    tag_559:\n        /* \"#utility.yul\":25053:26080   */\n      swap10\n      swap9\n      pop\n      pop\n      pop\n      pop\n      pop\n      pop\n      pop\n      pop\n      pop\n      jump\t// out\n\n    auxdata: 0xa26469706673582212202ca94d34d5c7c494d03263289b9cf5da2173a471b5003490f839e29a1d24613464736f6c634300080d0033\n}\n",
				"bytecode": {
					"linkReferences": {},
					"object": "608060405233600160006101000a81548173ffffffffffffffffffffffffffffffffffffffff021916908373ffffffffffffffffffffffffffffffffffffffff1602179055503480156200005257600080fd5b5060405162002031380380620020318339818101604052810190620000789190620000f6565b80600281905550600060048190555060006005819055506000600681905550600060088190555060006009819055506000600a819055505062000128565b600080fd5b6000819050919050565b620000d081620000bb565b8114620000dc57600080fd5b50565b600081519050620000f081620000c5565b92915050565b6000602082840312156200010f576200010e620000b6565b5b60006200011f84828501620000df565b91505092915050565b611ef980620001386000396000f3fe6080604052600436106101405760003560e01c80637bb51193116100b6578063bf77ffae1161006f578063bf77ffae14610458578063c12bcf4914610495578063ce0cdc87146104d2578063d09ef241146104fd578063db3a139614610541578063ecdfb8601461057e57610140565b80637bb5119314610367578063801d9bbd146103925780639703ef35146103bd5780639979ef45146103e6578063a394fda714610402578063b40a56271461042d57610140565b806344e791e01161010857806344e791e01461023e5780634d46712d1461026957806369f632e2146102a65780636e5b0f00146102e3578063734a2e781461030e57806378c5b2681461034b57610140565b8063122de8f2146101455780631628e0f514610170578063266001d3146101995780632db6dfa7146101d65780634471417f14610213575b600080fd5b34801561015157600080fd5b5061015a6105a9565b60405161016791906112b6565b60405180910390f35b34801561017c57600080fd5b5061019760048036038101906101929190611318565b6105ae565b005b3480156101a557600080fd5b506101c060048036038101906101bb919061148b565b610854565b6040516101cd919061158b565b60405180910390f35b3480156101e257600080fd5b506101fd60048036038101906101f89190611318565b610880565b60405161020a91906115bc565b60405180910390f35b34801561021f57600080fd5b506102286108a0565b60405161023591906117cc565b60405180910390f35b34801561024a57600080fd5b506102536108a5565b604051610260919061158b565b60405180910390f35b34801561027557600080fd5b50610290600480360381019061028b9190611318565b6108f1565b60405161029d91906117fd565b60405180910390f35b3480156102b257600080fd5b506102cd60048036038101906102c89190611318565b61091e565b6040516102da9190611827565b60405180910390f35b3480156102ef57600080fd5b506102f861095e565b60405161030591906115bc565b60405180910390f35b34801561031a57600080fd5b5061033560048036038101906103309190611318565b610964565b6040516103429190611827565b60405180910390f35b61036560048036038101906103609190611318565b6109a4565b005b34801561037357600080fd5b5061037c610a78565b60405161038991906115bc565b60405180910390f35b34801561039e57600080fd5b506103a7610a7e565b6040516103b491906115bc565b60405180910390f35b3480156103c957600080fd5b506103e460048036038101906103df9190611318565b610a84565b005b61040060048036038101906103fb9190611318565b610d2a565b005b34801561040e57600080fd5b50610417610db4565b60405161042491906115bc565b60405180910390f35b34801561043957600080fd5b50610442610dba565b60405161044f91906115bc565b60405180910390f35b34801561046457600080fd5b5061047f600480360381019061047a9190611318565b610dc0565b60405161048c91906117fd565b60405180910390f35b3480156104a157600080fd5b506104bc60048036038101906104b79190611842565b610ded565b6040516104c9919061158b565b60405180910390f35b3480156104de57600080fd5b506104e7610e1f565b6040516104f491906112b6565b60405180910390f35b34801561050957600080fd5b50610524600480360381019061051f9190611318565b610e24565b60405161053898979695949392919061189d565b60405180910390f35b34801561054d57600080fd5b5061056860048036038101906105639190611318565b610e3b565b60405161057591906115bc565b60405180910390f35b34801561058a57600080fd5b50610593610e5b565b6040516105a091906115bc565b60405180910390f35b606090565b600760008281526020019081526020016000206040518060e00160405290816000820160009054906101000a900473ffffffffffffffffffffffffffffffffffffffff1673ffffffffffffffffffffffffffffffffffffffff1673ffffffffffffffffffffffffffffffffffffffff16815260200160018201548152602001600282015481526020016003820160009054906101000a900460ff16600181111561065b5761065a611644565b5b600181111561066d5761066c611644565b5b81526020016004820154815260200160058201548152602001600682015481525050600060018111156106a3576106a2611644565b5b816060015160018111156106ba576106b9611644565b5b146106fa576040517f08c379a00000000000000000000000000000000000000000000000000000000081526004016106f190611967565b60405180910390fd5b600760008381526020019081526020016000206040518060e00160405290816000820160009054906101000a900473ffffffffffffffffffffffffffffffffffffffff1673ffffffffffffffffffffffffffffffffffffffff1673ffffffffffffffffffffffffffffffffffffffff16815260200160018201548152602001600282015481526020016003820160009054906101000a900460ff1660018111156107a7576107a6611644565b5b60018111156107b9576107b8611644565b5b81526020016004820154815260200160058201548152602001600682015481525050338073ffffffffffffffffffffffffffffffffffffffff16826000015173ffffffffffffffffffffffffffffffffffffffff161461084e576040517f08c379a0000000000000000000000000000000000000000000000000000000008152600401610845906119d3565b60405180910390fd5b50505050565b60608282604051602001610869929190611a7b565b604051602081830303815290604052905092915050565b600060036000838152602001908152602001600020600101549050919050565b606090565b60606000600854905060006040518060200160405280600081525090505b600082146108ec57600060076000848152602001908152602001600020600501549050506108c3565b505090565b60006007600083815260200190815260200160002060030160009054906101000a900460ff169050919050565b60006003600083815260200190815260200160002060000160009054906101000a900473ffffffffffffffffffffffffffffffffffffffff169050919050565b60045481565b60006007600083815260200190815260200160002060000160009054906101000a900473ffffffffffffffffffffffffffffffffffffffff169050919050565b60008110156109e8576040517f08c379a00000000000000000000000000000000000000000000000000000000081526004016109df90611af6565b60405180910390fd5b80341015610a2b576040517f08c379a0000000000000000000000000000000000000000000000000000000008152600401610a2290611b62565b60405180910390fd5b6000429050600060646002546064610a439190611bb1565b34610a4e9190611be5565b610a589190611c6e565b90506000610a67338484610e61565b9050610a7281610ffc565b50505050565b60055481565b60085481565b600360008281526020019081526020016000206040518060e00160405290816000820160009054906101000a900473ffffffffffffffffffffffffffffffffffffffff1673ffffffffffffffffffffffffffffffffffffffff1673ffffffffffffffffffffffffffffffffffffffff16815260200160018201548152602001600282015481526020016003820160009054906101000a900460ff166001811115610b3157610b30611644565b5b6001811115610b4357610b42611644565b5b8152602001600482015481526020016005820154815260200160068201548152505060006001811115610b7957610b78611644565b5b81606001516001811115610b9057610b8f611644565b5b14610bd0576040517f08c379a0000000000000000000000000000000000000000000000000000000008152600401610bc790611967565b60405180910390fd5b600360008381526020019081526020016000206040518060e00160405290816000820160009054906101000a900473ffffffffffffffffffffffffffffffffffffffff1673ffffffffffffffffffffffffffffffffffffffff1673ffffffffffffffffffffffffffffffffffffffff16815260200160018201548152602001600282015481526020016003820160009054906101000a900460ff166001811115610c7d57610c7c611644565b5b6001811115610c8f57610c8e611644565b5b81526020016004820154815260200160058201548152602001600682015481525050338073ffffffffffffffffffffffffffffffffffffffff16826000015173ffffffffffffffffffffffffffffffffffffffff1614610d24576040517f08c379a0000000000000000000000000000000000000000000000000000000008152600401610d1b906119d3565b60405180910390fd5b50505050565b6000811015610d6e576040517f08c379a0000000000000000000000000000000000000000000000000000000008152600401610d6590611af6565b60405180910390fd5b80341015610db1576040517f08c379a0000000000000000000000000000000000000000000000000000000008152600401610da890611ceb565b60405180910390fd5b50565b600a5481565b60065481565b60006003600083815260200190815260200160002060030160009054906101000a900460ff169050919050565b60608260001b8260001b604051602001610e08929190611d5c565b604051602081830303815290604052905092915050565b606090565b600080600080600080600080919395975091939597565b600060076000838152602001908152602001600020600101549050919050565b60095481565b610e69611189565b600a6000815480929190610e7c90611d97565b919050555060006040518060e001604052808673ffffffffffffffffffffffffffffffffffffffff16815260200185815260200184815260200160006001811115610eca57610ec9611644565b5b8152602001600a54815260200160008152602001600081525090508060076000600a54815260200190815260200160002060008201518160000160006101000a81548173ffffffffffffffffffffffffffffffffffffffff021916908373ffffffffffffffffffffffffffffffffffffffff160217905550602082015181600101556040820151816002015560608201518160030160006101000a81548160ff02191690836001811115610f8157610f80611644565b5b02179055506080820151816004015560a0820151816005015560c082015181600601559050507f93caf6ba1af44020dfe6076e279533e38bd8deefe534c43aa8cc93aad2025b7d8585856000600a546000806000604051610fe9989796959493929190611e45565b60405180910390a1809150509392505050565b60008060085403611017578160800151600881905550611185565b81602001516007600060085481526020019081526020016000206001015410611079576008548260a00181815250508160800151600760008460a001518152602001908152602001600020600601819055508160800151600881905550611184565b60085490505b60006007600083815260200190815260200160002060050154141580156110d557508160200151600760006007600085815260200190815260200160002060050154815260200190815260200160002060010154105b156110f8576007600082815260200190815260200160002060050154905061107f565b60076000828152602001908152602001600020600501548260a0018181525050600060076000838152602001908152602001600020600501541461115a578160800151600760008460a001518152602001908152602001600020600601819055505b81608001516007600083815260200190815260200160002060050181905550808260c00181815250505b5b5050565b6040518060e00160405280600073ffffffffffffffffffffffffffffffffffffffff1681526020016000815260200160008152602001600060018111156111d3576111d2611644565b5b81526020016000815260200160008152602001600081525090565b600081519050919050565b600082825260208201905092915050565b6000819050602082019050919050565b6000819050919050565b61122d8161121a565b82525050565b600061123f8383611224565b60208301905092915050565b6000602082019050919050565b6000611263826111ee565b61126d81856111f9565b93506112788361120a565b8060005b838110156112a95781516112908882611233565b975061129b8361124b565b92505060018101905061127c565b5085935050505092915050565b600060208201905081810360008301526112d08184611258565b905092915050565b6000604051905090565b600080fd5b600080fd5b6112f58161121a565b811461130057600080fd5b50565b600081359050611312816112ec565b92915050565b60006020828403121561132e5761132d6112e2565b5b600061133c84828501611303565b91505092915050565b600080fd5b600080fd5b6000601f19601f8301169050919050565b7f4e487b7100000000000000000000000000000000000000000000000000000000600052604160045260246000fd5b6113988261134f565b810181811067ffffffffffffffff821117156113b7576113b6611360565b5b80604052505050565b60006113ca6112d8565b90506113d6828261138f565b919050565b600067ffffffffffffffff8211156113f6576113f5611360565b5b6113ff8261134f565b9050602081019050919050565b82818337600083830152505050565b600061142e611429846113db565b6113c0565b90508281526020810184848401111561144a5761144961134a565b5b61145584828561140c565b509392505050565b600082601f83011261147257611471611345565b5b813561148284826020860161141b565b91505092915050565b600080604083850312156114a2576114a16112e2565b5b600083013567ffffffffffffffff8111156114c0576114bf6112e7565b5b6114cc8582860161145d565b925050602083013567ffffffffffffffff8111156114ed576114ec6112e7565b5b6114f98582860161145d565b9150509250929050565b600081519050919050565b600082825260208201905092915050565b60005b8381101561153d578082015181840152602081019050611522565b8381111561154c576000848401525b50505050565b600061155d82611503565b611567818561150e565b935061157781856020860161151f565b6115808161134f565b840191505092915050565b600060208201905081810360008301526115a58184611552565b905092915050565b6115b68161121a565b82525050565b60006020820190506115d160008301846115ad565b92915050565b600081519050919050565b600082825260208201905092915050565b6000819050602082019050919050565b600073ffffffffffffffffffffffffffffffffffffffff82169050919050565b600061162e82611603565b9050919050565b61163e81611623565b82525050565b7f4e487b7100000000000000000000000000000000000000000000000000000000600052602160045260246000fd5b6002811061168457611683611644565b5b50565b600081905061169582611673565b919050565b60006116a582611687565b9050919050565b6116b58161169a565b82525050565b60e0820160008201516116d16000850182611635565b5060208201516116e46020850182611224565b5060408201516116f76040850182611224565b50606082015161170a60608501826116ac565b50608082015161171d6080850182611224565b5060a082015161173060a0850182611224565b5060c082015161174360c0850182611224565b50505050565b600061175583836116bb565b60e08301905092915050565b6000602082019050919050565b6000611779826115d7565b61178381856115e2565b935061178e836115f3565b8060005b838110156117bf5781516117a68882611749565b97506117b183611761565b925050600181019050611792565b5085935050505092915050565b600060208201905081810360008301526117e6818461176e565b905092915050565b6117f78161169a565b82525050565b600060208201905061181260008301846117ee565b92915050565b61182181611623565b82525050565b600060208201905061183c6000830184611818565b92915050565b60008060408385031215611859576118586112e2565b5b600061186785828601611303565b925050602061187885828601611303565b9150509250929050565b60008115159050919050565b61189781611882565b82525050565b6000610100820190506118b3600083018b611818565b6118c0602083018a6115ad565b6118cd60408301896115ad565b6118da60608301886117ee565b6118e760808301876115ad565b6118f460a08301866115ad565b61190160c08301856115ad565b61190e60e083018461188e565b9998505050505050505050565b7f4f726465722050656e64696e6700000000000000000000000000000000000000600082015250565b6000611951600d8361150e565b915061195c8261191b565b602082019050919050565b6000602082019050818103600083015261198081611944565b9050919050565b7f4e6f7420417574686f7269736564000000000000000000000000000000000000600082015250565b60006119bd600e8361150e565b91506119c882611987565b602082019050919050565b600060208201905081810360008301526119ec816119b0565b9050919050565b600081905092915050565b6000611a0982611503565b611a1381856119f3565b9350611a2381856020860161151f565b80840191505092915050565b7f2000000000000000000000000000000000000000000000000000000000000000600082015250565b6000611a656001836119f3565b9150611a7082611a2f565b600182019050919050565b6000611a8782856119fe565b9150611a9282611a58565b9150611a9e82846119fe565b91508190509392505050565b7f70726963652076616c7565206d757374206265206d6f7265207468616e203000600082015250565b6000611ae0601f8361150e565b9150611aeb82611aaa565b602082019050919050565b60006020820190508181036000830152611b0f81611ad3565b9050919050565b7f4e6f7420656e6f75676820626c616e636520746f20706c6163652061736b0000600082015250565b6000611b4c601e8361150e565b9150611b5782611b16565b602082019050919050565b60006020820190508181036000830152611b7b81611b3f565b9050919050565b7f4e487b7100000000000000000000000000000000000000000000000000000000600052601160045260246000fd5b6000611bbc8261121a565b9150611bc78361121a565b925082821015611bda57611bd9611b82565b5b828203905092915050565b6000611bf08261121a565b9150611bfb8361121a565b9250817fffffffffffffffffffffffffffffffffffffffffffffffffffffffffffffffff0483118215151615611c3457611c33611b82565b5b828202905092915050565b7f4e487b7100000000000000000000000000000000000000000000000000000000600052601260045260246000fd5b6000611c798261121a565b9150611c848361121a565b925082611c9457611c93611c3f565b5b828204905092915050565b7f4e6f7420656e6f75676820626c616e636520746f20706c616365206269640000600082015250565b6000611cd5601e8361150e565b9150611ce082611c9f565b602082019050919050565b60006020820190508181036000830152611d0481611cc8565b9050919050565b6000819050919050565b6000819050919050565b611d30611d2b82611d0b565b611d15565b82525050565b7f202c200000000000000000000000000000000000000000000000000000000000815250565b6000611d688285611d1f565b602082019150611d7782611d36565b600382019150611d878284611d1f565b6020820191508190509392505050565b6000611da28261121a565b91507fffffffffffffffffffffffffffffffffffffffffffffffffffffffffffffffff8203611dd457611dd3611b82565b5b600182019050919050565b6000611dea82611603565b9050919050565b611dfa81611ddf565b82525050565b6000819050919050565b6000819050919050565b6000611e2f611e2a611e2584611e00565b611e0a565b61121a565b9050919050565b611e3f81611e14565b82525050565b600061010082019050611e5b600083018b611df1565b611e68602083018a6115ad565b611e7560408301896115ad565b611e8260608301886117ee565b611e8f60808301876115ad565b611e9c60a0830186611e36565b611ea960c0830185611e36565b611eb660e083018461188e565b999850505050505050505056fea26469706673582212202ca94d34d5c7c494d03263289b9cf5da2173a471b5003490f839e29a1d24613464736f6c634300080d0033",
					"opcodes": "PUSH1 0x80 PUSH1 0x40 MSTORE CALLER PUSH1 0x1 PUSH1 0x0 PUSH2 0x100 EXP DUP2 SLOAD DUP2 PUSH20 0xFFFFFFFFFFFFFFFFFFFFFFFFFFFFFFFFFFFFFFFF MUL NOT AND SWAP1 DUP4 PUSH20 0xFFFFFFFFFFFFFFFFFFFFFFFFFFFFFFFFFFFFFFFF AND MUL OR SWAP1 SSTORE POP CALLVALUE DUP1 ISZERO PUSH3 0x52 JUMPI PUSH1 0x0 DUP1 REVERT JUMPDEST POP PUSH1 0x40 MLOAD PUSH3 0x2031 CODESIZE SUB DUP1 PUSH3 0x2031 DUP4 CODECOPY DUP2 DUP2 ADD PUSH1 0x40 MSTORE DUP2 ADD SWAP1 PUSH3 0x78 SWAP2 SWAP1 PUSH3 0xF6 JUMP JUMPDEST DUP1 PUSH1 0x2 DUP2 SWAP1 SSTORE POP PUSH1 0x0 PUSH1 0x4 DUP2 SWAP1 SSTORE POP PUSH1 0x0 PUSH1 0x5 DUP2 SWAP1 SSTORE POP PUSH1 0x0 PUSH1 0x6 DUP2 SWAP1 SSTORE POP PUSH1 0x0 PUSH1 0x8 DUP2 SWAP1 SSTORE POP PUSH1 0x0 PUSH1 0x9 DUP2 SWAP1 SSTORE POP PUSH1 0x0 PUSH1 0xA DUP2 SWAP1 SSTORE POP POP PUSH3 0x128 JUMP JUMPDEST PUSH1 0x0 DUP1 REVERT JUMPDEST PUSH1 0x0 DUP2 SWAP1 POP SWAP2 SWAP1 POP JUMP JUMPDEST PUSH3 0xD0 DUP2 PUSH3 0xBB JUMP JUMPDEST DUP2 EQ PUSH3 0xDC JUMPI PUSH1 0x0 DUP1 REVERT JUMPDEST POP JUMP JUMPDEST PUSH1 0x0 DUP2 MLOAD SWAP1 POP PUSH3 0xF0 DUP2 PUSH3 0xC5 JUMP JUMPDEST SWAP3 SWAP2 POP POP JUMP JUMPDEST PUSH1 0x0 PUSH1 0x20 DUP3 DUP5 SUB SLT ISZERO PUSH3 0x10F JUMPI PUSH3 0x10E PUSH3 0xB6 JUMP JUMPDEST JUMPDEST PUSH1 0x0 PUSH3 0x11F DUP5 DUP3 DUP6 ADD PUSH3 0xDF JUMP JUMPDEST SWAP2 POP POP SWAP3 SWAP2 POP POP JUMP JUMPDEST PUSH2 0x1EF9 DUP1 PUSH3 0x138 PUSH1 0x0 CODECOPY PUSH1 0x0 RETURN INVALID PUSH1 0x80 PUSH1 0x40 MSTORE PUSH1 0x4 CALLDATASIZE LT PUSH2 0x140 JUMPI PUSH1 0x0 CALLDATALOAD PUSH1 0xE0 SHR DUP1 PUSH4 0x7BB51193 GT PUSH2 0xB6 JUMPI DUP1 PUSH4 0xBF77FFAE GT PUSH2 0x6F JUMPI DUP1 PUSH4 0xBF77FFAE EQ PUSH2 0x458 JUMPI DUP1 PUSH4 0xC12BCF49 EQ PUSH2 0x495 JUMPI DUP1 PUSH4 0xCE0CDC87 EQ PUSH2 0x4D2 JUMPI DUP1 PUSH4 0xD09EF241 EQ PUSH2 0x4FD JUMPI DUP1 PUSH4 0xDB3A1396 EQ PUSH2 0x541 JUMPI DUP1 PUSH4 0xECDFB860 EQ PUSH2 0x57E JUMPI PUSH2 0x140 JUMP JUMPDEST DUP1 PUSH4 0x7BB51193 EQ PUSH2 0x367 JUMPI DUP1 PUSH4 0x801D9BBD EQ PUSH2 0x392 JUMPI DUP1 PUSH4 0x9703EF35 EQ PUSH2 0x3BD JUMPI DUP1 PUSH4 0x9979EF45 EQ PUSH2 0x3E6 JUMPI DUP1 PUSH4 0xA394FDA7 EQ PUSH2 0x402 JUMPI DUP1 PUSH4 0xB40A5627 EQ PUSH2 0x42D JUMPI PUSH2 0x140 JUMP JUMPDEST DUP1 PUSH4 0x44E791E0 GT PUSH2 0x108 JUMPI DUP1 PUSH4 0x44E791E0 EQ PUSH2 0x23E JUMPI DUP1 PUSH4 0x4D46712D EQ PUSH2 0x269 JUMPI DUP1 PUSH4 0x69F632E2 EQ PUSH2 0x2A6 JUMPI DUP1 PUSH4 0x6E5B0F00 EQ PUSH2 0x2E3 JUMPI DUP1 PUSH4 0x734A2E78 EQ PUSH2 0x30E JUMPI DUP1 PUSH4 0x78C5B268 EQ PUSH2 0x34B JUMPI PUSH2 0x140 JUMP JUMPDEST DUP1 PUSH4 0x122DE8F2 EQ PUSH2 0x145 JUMPI DUP1 PUSH4 0x1628E0F5 EQ PUSH2 0x170 JUMPI DUP1 PUSH4 0x266001D3 EQ PUSH2 0x199 JUMPI DUP1 PUSH4 0x2DB6DFA7 EQ PUSH2 0x1D6 JUMPI DUP1 PUSH4 0x4471417F EQ PUSH2 0x213 JUMPI JUMPDEST PUSH1 0x0 DUP1 REVERT JUMPDEST CALLVALUE DUP1 ISZERO PUSH2 0x151 JUMPI PUSH1 0x0 DUP1 REVERT JUMPDEST POP PUSH2 0x15A PUSH2 0x5A9 JUMP JUMPDEST PUSH1 0x40 MLOAD PUSH2 0x167 SWAP2 SWAP1 PUSH2 0x12B6 JUMP JUMPDEST PUSH1 0x40 MLOAD DUP1 SWAP2 SUB SWAP1 RETURN JUMPDEST CALLVALUE DUP1 ISZERO PUSH2 0x17C JUMPI PUSH1 0x0 DUP1 REVERT JUMPDEST POP PUSH2 0x197 PUSH1 0x4 DUP1 CALLDATASIZE SUB DUP2 ADD SWAP1 PUSH2 0x192 SWAP2 SWAP1 PUSH2 0x1318 JUMP JUMPDEST PUSH2 0x5AE JUMP JUMPDEST STOP JUMPDEST CALLVALUE DUP1 ISZERO PUSH2 0x1A5 JUMPI PUSH1 0x0 DUP1 REVERT JUMPDEST POP PUSH2 0x1C0 PUSH1 0x4 DUP1 CALLDATASIZE SUB DUP2 ADD SWAP1 PUSH2 0x1BB SWAP2 SWAP1 PUSH2 0x148B JUMP JUMPDEST PUSH2 0x854 JUMP JUMPDEST PUSH1 0x40 MLOAD PUSH2 0x1CD SWAP2 SWAP1 PUSH2 0x158B JUMP JUMPDEST PUSH1 0x40 MLOAD DUP1 SWAP2 SUB SWAP1 RETURN JUMPDEST CALLVALUE DUP1 ISZERO PUSH2 0x1E2 JUMPI PUSH1 0x0 DUP1 REVERT JUMPDEST POP PUSH2 0x1FD PUSH1 0x4 DUP1 CALLDATASIZE SUB DUP2 ADD SWAP1 PUSH2 0x1F8 SWAP2 SWAP1 PUSH2 0x1318 JUMP JUMPDEST PUSH2 0x880 JUMP JUMPDEST PUSH1 0x40 MLOAD PUSH2 0x20A SWAP2 SWAP1 PUSH2 0x15BC JUMP JUMPDEST PUSH1 0x40 MLOAD DUP1 SWAP2 SUB SWAP1 RETURN JUMPDEST CALLVALUE DUP1 ISZERO PUSH2 0x21F JUMPI PUSH1 0x0 DUP1 REVERT JUMPDEST POP PUSH2 0x228 PUSH2 0x8A0 JUMP JUMPDEST PUSH1 0x40 MLOAD PUSH2 0x235 SWAP2 SWAP1 PUSH2 0x17CC JUMP JUMPDEST PUSH1 0x40 MLOAD DUP1 SWAP2 SUB SWAP1 RETURN JUMPDEST CALLVALUE DUP1 ISZERO PUSH2 0x24A JUMPI PUSH1 0x0 DUP1 REVERT JUMPDEST POP PUSH2 0x253 PUSH2 0x8A5 JUMP JUMPDEST PUSH1 0x40 MLOAD PUSH2 0x260 SWAP2 SWAP1 PUSH2 0x158B JUMP JUMPDEST PUSH1 0x40 MLOAD DUP1 SWAP2 SUB SWAP1 RETURN JUMPDEST CALLVALUE DUP1 ISZERO PUSH2 0x275 JUMPI PUSH1 0x0 DUP1 REVERT JUMPDEST POP PUSH2 0x290 PUSH1 0x4 DUP1 CALLDATASIZE SUB DUP2 ADD SWAP1 PUSH2 0x28B SWAP2 SWAP1 PUSH2 0x1318 JUMP JUMPDEST PUSH2 0x8F1 JUMP JUMPDEST PUSH1 0x40 MLOAD PUSH2 0x29D SWAP2 SWAP1 PUSH2 0x17FD JUMP JUMPDEST PUSH1 0x40 MLOAD DUP1 SWAP2 SUB SWAP1 RETURN JUMPDEST CALLVALUE DUP1 ISZERO PUSH2 0x2B2 JUMPI PUSH1 0x0 DUP1 REVERT JUMPDEST POP PUSH2 0x2CD PUSH1 0x4 DUP1 CALLDATASIZE SUB DUP2 ADD SWAP1 PUSH2 0x2C8 SWAP2 SWAP1 PUSH2 0x1318 JUMP JUMPDEST PUSH2 0x91E JUMP JUMPDEST PUSH1 0x40 MLOAD PUSH2 0x2DA SWAP2 SWAP1 PUSH2 0x1827 JUMP JUMPDEST PUSH1 0x40 MLOAD DUP1 SWAP2 SUB SWAP1 RETURN JUMPDEST CALLVALUE DUP1 ISZERO PUSH2 0x2EF JUMPI PUSH1 0x0 DUP1 REVERT JUMPDEST POP PUSH2 0x2F8 PUSH2 0x95E JUMP JUMPDEST PUSH1 0x40 MLOAD PUSH2 0x305 SWAP2 SWAP1 PUSH2 0x15BC JUMP JUMPDEST PUSH1 0x40 MLOAD DUP1 SWAP2 SUB SWAP1 RETURN JUMPDEST CALLVALUE DUP1 ISZERO PUSH2 0x31A JUMPI PUSH1 0x0 DUP1 REVERT JUMPDEST POP PUSH2 0x335 PUSH1 0x4 DUP1 CALLDATASIZE SUB DUP2 ADD SWAP1 PUSH2 0x330 SWAP2 SWAP1 PUSH2 0x1318 JUMP JUMPDEST PUSH2 0x964 JUMP JUMPDEST PUSH1 0x40 MLOAD PUSH2 0x342 SWAP2 SWAP1 PUSH2 0x1827 JUMP JUMPDEST PUSH1 0x40 MLOAD DUP1 SWAP2 SUB SWAP1 RETURN JUMPDEST PUSH2 0x365 PUSH1 0x4 DUP1 CALLDATASIZE SUB DUP2 ADD SWAP1 PUSH2 0x360 SWAP2 SWAP1 PUSH2 0x1318 JUMP JUMPDEST PUSH2 0x9A4 JUMP JUMPDEST STOP JUMPDEST CALLVALUE DUP1 ISZERO PUSH2 0x373 JUMPI PUSH1 0x0 DUP1 REVERT JUMPDEST POP PUSH2 0x37C PUSH2 0xA78 JUMP JUMPDEST PUSH1 0x40 MLOAD PUSH2 0x389 SWAP2 SWAP1 PUSH2 0x15BC JUMP JUMPDEST PUSH1 0x40 MLOAD DUP1 SWAP2 SUB SWAP1 RETURN JUMPDEST CALLVALUE DUP1 ISZERO PUSH2 0x39E JUMPI PUSH1 0x0 DUP1 REVERT JUMPDEST POP PUSH2 0x3A7 PUSH2 0xA7E JUMP JUMPDEST PUSH1 0x40 MLOAD PUSH2 0x3B4 SWAP2 SWAP1 PUSH2 0x15BC JUMP JUMPDEST PUSH1 0x40 MLOAD DUP1 SWAP2 SUB SWAP1 RETURN JUMPDEST CALLVALUE DUP1 ISZERO PUSH2 0x3C9 JUMPI PUSH1 0x0 DUP1 REVERT JUMPDEST POP PUSH2 0x3E4 PUSH1 0x4 DUP1 CALLDATASIZE SUB DUP2 ADD SWAP1 PUSH2 0x3DF SWAP2 SWAP1 PUSH2 0x1318 JUMP JUMPDEST PUSH2 0xA84 JUMP JUMPDEST STOP JUMPDEST PUSH2 0x400 PUSH1 0x4 DUP1 CALLDATASIZE SUB DUP2 ADD SWAP1 PUSH2 0x3FB SWAP2 SWAP1 PUSH2 0x1318 JUMP JUMPDEST PUSH2 0xD2A JUMP JUMPDEST STOP JUMPDEST CALLVALUE DUP1 ISZERO PUSH2 0x40E JUMPI PUSH1 0x0 DUP1 REVERT JUMPDEST POP PUSH2 0x417 PUSH2 0xDB4 JUMP JUMPDEST PUSH1 0x40 MLOAD PUSH2 0x424 SWAP2 SWAP1 PUSH2 0x15BC JUMP JUMPDEST PUSH1 0x40 MLOAD DUP1 SWAP2 SUB SWAP1 RETURN JUMPDEST CALLVALUE DUP1 ISZERO PUSH2 0x439 JUMPI PUSH1 0x0 DUP1 REVERT JUMPDEST POP PUSH2 0x442 PUSH2 0xDBA JUMP JUMPDEST PUSH1 0x40 MLOAD PUSH2 0x44F SWAP2 SWAP1 PUSH2 0x15BC JUMP JUMPDEST PUSH1 0x40 MLOAD DUP1 SWAP2 SUB SWAP1 RETURN JUMPDEST CALLVALUE DUP1 ISZERO PUSH2 0x464 JUMPI PUSH1 0x0 DUP1 REVERT JUMPDEST POP PUSH2 0x47F PUSH1 0x4 DUP1 CALLDATASIZE SUB DUP2 ADD SWAP1 PUSH2 0x47A SWAP2 SWAP1 PUSH2 0x1318 JUMP JUMPDEST PUSH2 0xDC0 JUMP JUMPDEST PUSH1 0x40 MLOAD PUSH2 0x48C SWAP2 SWAP1 PUSH2 0x17FD JUMP JUMPDEST PUSH1 0x40 MLOAD DUP1 SWAP2 SUB SWAP1 RETURN JUMPDEST CALLVALUE DUP1 ISZERO PUSH2 0x4A1 JUMPI PUSH1 0x0 DUP1 REVERT JUMPDEST POP PUSH2 0x4BC PUSH1 0x4 DUP1 CALLDATASIZE SUB DUP2 ADD SWAP1 PUSH2 0x4B7 SWAP2 SWAP1 PUSH2 0x1842 JUMP JUMPDEST PUSH2 0xDED JUMP JUMPDEST PUSH1 0x40 MLOAD PUSH2 0x4C9 SWAP2 SWAP1 PUSH2 0x158B JUMP JUMPDEST PUSH1 0x40 MLOAD DUP1 SWAP2 SUB SWAP1 RETURN JUMPDEST CALLVALUE DUP1 ISZERO PUSH2 0x4DE JUMPI PUSH1 0x0 DUP1 REVERT JUMPDEST POP PUSH2 0x4E7 PUSH2 0xE1F JUMP JUMPDEST PUSH1 0x40 MLOAD PUSH2 0x4F4 SWAP2 SWAP1 PUSH2 0x12B6 JUMP JUMPDEST PUSH1 0x40 MLOAD DUP1 SWAP2 SUB SWAP1 RETURN JUMPDEST CALLVALUE DUP1 ISZERO PUSH2 0x509 JUMPI PUSH1 0x0 DUP1 REVERT JUMPDEST POP PUSH2 0x524 PUSH1 0x4 DUP1 CALLDATASIZE SUB DUP2 ADD SWAP1 PUSH2 0x51F SWAP2 SWAP1 PUSH2 0x1318 JUMP JUMPDEST PUSH2 0xE24 JUMP JUMPDEST PUSH1 0x40 MLOAD PUSH2 0x538 SWAP9 SWAP8 SWAP7 SWAP6 SWAP5 SWAP4 SWAP3 SWAP2 SWAP1 PUSH2 0x189D JUMP JUMPDEST PUSH1 0x40 MLOAD DUP1 SWAP2 SUB SWAP1 RETURN JUMPDEST CALLVALUE DUP1 ISZERO PUSH2 0x54D JUMPI PUSH1 0x0 DUP1 REVERT JUMPDEST POP PUSH2 0x568 PUSH1 0x4 DUP1 CALLDATASIZE SUB DUP2 ADD SWAP1 PUSH2 0x563 SWAP2 SWAP1 PUSH2 0x1318 JUMP JUMPDEST PUSH2 0xE3B JUMP JUMPDEST PUSH1 0x40 MLOAD PUSH2 0x575 SWAP2 SWAP1 PUSH2 0x15BC JUMP JUMPDEST PUSH1 0x40 MLOAD DUP1 SWAP2 SUB SWAP1 RETURN JUMPDEST CALLVALUE DUP1 ISZERO PUSH2 0x58A JUMPI PUSH1 0x0 DUP1 REVERT JUMPDEST POP PUSH2 0x593 PUSH2 0xE5B JUMP JUMPDEST PUSH1 0x40 MLOAD PUSH2 0x5A0 SWAP2 SWAP1 PUSH2 0x15BC JUMP JUMPDEST PUSH1 0x40 MLOAD DUP1 SWAP2 SUB SWAP1 RETURN JUMPDEST PUSH1 0x60 SWAP1 JUMP JUMPDEST PUSH1 0x7 PUSH1 0x0 DUP3 DUP2 MSTORE PUSH1 0x20 ADD SWAP1 DUP2 MSTORE PUSH1 0x20 ADD PUSH1 0x0 KECCAK256 PUSH1 0x40 MLOAD DUP1 PUSH1 0xE0 ADD PUSH1 0x40 MSTORE SWAP1 DUP2 PUSH1 0x0 DUP3 ADD PUSH1 0x0 SWAP1 SLOAD SWAP1 PUSH2 0x100 EXP SWAP1 DIV PUSH20 0xFFFFFFFFFFFFFFFFFFFFFFFFFFFFFFFFFFFFFFFF AND PUSH20 0xFFFFFFFFFFFFFFFFFFFFFFFFFFFFFFFFFFFFFFFF AND PUSH20 0xFFFFFFFFFFFFFFFFFFFFFFFFFFFFFFFFFFFFFFFF AND DUP2 MSTORE PUSH1 0x20 ADD PUSH1 0x1 DUP3 ADD SLOAD DUP2 MSTORE PUSH1 0x20 ADD PUSH1 0x2 DUP3 ADD SLOAD DUP2 MSTORE PUSH1 0x20 ADD PUSH1 0x3 DUP3 ADD PUSH1 0x0 SWAP1 SLOAD SWAP1 PUSH2 0x100 EXP SWAP1 DIV PUSH1 0xFF AND PUSH1 0x1 DUP2 GT ISZERO PUSH2 0x65B JUMPI PUSH2 0x65A PUSH2 0x1644 JUMP JUMPDEST JUMPDEST PUSH1 0x1 DUP2 GT ISZERO PUSH2 0x66D JUMPI PUSH2 0x66C PUSH2 0x1644 JUMP JUMPDEST JUMPDEST DUP2 MSTORE PUSH1 0x20 ADD PUSH1 0x4 DUP3 ADD SLOAD DUP2 MSTORE PUSH1 0x20 ADD PUSH1 0x5 DUP3 ADD SLOAD DUP2 MSTORE PUSH1 0x20 ADD PUSH1 0x6 DUP3 ADD SLOAD DUP2 MSTORE POP POP PUSH1 0x0 PUSH1 0x1 DUP2 GT ISZERO PUSH2 0x6A3 JUMPI PUSH2 0x6A2 PUSH2 0x1644 JUMP JUMPDEST JUMPDEST DUP2 PUSH1 0x60 ADD MLOAD PUSH1 0x1 DUP2 GT ISZERO PUSH2 0x6BA JUMPI PUSH2 0x6B9 PUSH2 0x1644 JUMP JUMPDEST JUMPDEST EQ PUSH2 0x6FA JUMPI PUSH1 0x40 MLOAD PUSH32 0x8C379A000000000000000000000000000000000000000000000000000000000 DUP2 MSTORE PUSH1 0x4 ADD PUSH2 0x6F1 SWAP1 PUSH2 0x1967 JUMP JUMPDEST PUSH1 0x40 MLOAD DUP1 SWAP2 SUB SWAP1 REVERT JUMPDEST PUSH1 0x7 PUSH1 0x0 DUP4 DUP2 MSTORE PUSH1 0x20 ADD SWAP1 DUP2 MSTORE PUSH1 0x20 ADD PUSH1 0x0 KECCAK256 PUSH1 0x40 MLOAD DUP1 PUSH1 0xE0 ADD PUSH1 0x40 MSTORE SWAP1 DUP2 PUSH1 0x0 DUP3 ADD PUSH1 0x0 SWAP1 SLOAD SWAP1 PUSH2 0x100 EXP SWAP1 DIV PUSH20 0xFFFFFFFFFFFFFFFFFFFFFFFFFFFFFFFFFFFFFFFF AND PUSH20 0xFFFFFFFFFFFFFFFFFFFFFFFFFFFFFFFFFFFFFFFF AND PUSH20 0xFFFFFFFFFFFFFFFFFFFFFFFFFFFFFFFFFFFFFFFF AND DUP2 MSTORE PUSH1 0x20 ADD PUSH1 0x1 DUP3 ADD SLOAD DUP2 MSTORE PUSH1 0x20 ADD PUSH1 0x2 DUP3 ADD SLOAD DUP2 MSTORE PUSH1 0x20 ADD PUSH1 0x3 DUP3 ADD PUSH1 0x0 SWAP1 SLOAD SWAP1 PUSH2 0x100 EXP SWAP1 DIV PUSH1 0xFF AND PUSH1 0x1 DUP2 GT ISZERO PUSH2 0x7A7 JUMPI PUSH2 0x7A6 PUSH2 0x1644 JUMP JUMPDEST JUMPDEST PUSH1 0x1 DUP2 GT ISZERO PUSH2 0x7B9 JUMPI PUSH2 0x7B8 PUSH2 0x1644 JUMP JUMPDEST JUMPDEST DUP2 MSTORE PUSH1 0x20 ADD PUSH1 0x4 DUP3 ADD SLOAD DUP2 MSTORE PUSH1 0x20 ADD PUSH1 0x5 DUP3 ADD SLOAD DUP2 MSTORE PUSH1 0x20 ADD PUSH1 0x6 DUP3 ADD SLOAD DUP2 MSTORE POP POP CALLER DUP1 PUSH20 0xFFFFFFFFFFFFFFFFFFFFFFFFFFFFFFFFFFFFFFFF AND DUP3 PUSH1 0x0 ADD MLOAD PUSH20 0xFFFFFFFFFFFFFFFFFFFFFFFFFFFFFFFFFFFFFFFF AND EQ PUSH2 0x84E JUMPI PUSH1 0x40 MLOAD PUSH32 0x8C379A000000000000000000000000000000000000000000000000000000000 DUP2 MSTORE PUSH1 0x4 ADD PUSH2 0x845 SWAP1 PUSH2 0x19D3 JUMP JUMPDEST PUSH1 0x40 MLOAD DUP1 SWAP2 SUB SWAP1 REVERT JUMPDEST POP POP POP POP JUMP JUMPDEST PUSH1 0x60 DUP3 DUP3 PUSH1 0x40 MLOAD PUSH1 0x20 ADD PUSH2 0x869 SWAP3 SWAP2 SWAP1 PUSH2 0x1A7B JUMP JUMPDEST PUSH1 0x40 MLOAD PUSH1 0x20 DUP2 DUP4 SUB SUB DUP2 MSTORE SWAP1 PUSH1 0x40 MSTORE SWAP1 POP SWAP3 SWAP2 POP POP JUMP JUMPDEST PUSH1 0x0 PUSH1 0x3 PUSH1 0x0 DUP4 DUP2 MSTORE PUSH1 0x20 ADD SWAP1 DUP2 MSTORE PUSH1 0x20 ADD PUSH1 0x0 KECCAK256 PUSH1 0x1 ADD SLOAD SWAP1 POP SWAP2 SWAP1 POP JUMP JUMPDEST PUSH1 0x60 SWAP1 JUMP JUMPDEST PUSH1 0x60 PUSH1 0x0 PUSH1 0x8 SLOAD SWAP1 POP PUSH1 0x0 PUSH1 0x40 MLOAD DUP1 PUSH1 0x20 ADD PUSH1 0x40 MSTORE DUP1 PUSH1 0x0 DUP2 MSTORE POP SWAP1 POP JUMPDEST PUSH1 0x0 DUP3 EQ PUSH2 0x8EC JUMPI PUSH1 0x0 PUSH1 0x7 PUSH1 0x0 DUP5 DUP2 MSTORE PUSH1 0x20 ADD SWAP1 DUP2 MSTORE PUSH1 0x20 ADD PUSH1 0x0 KECCAK256 PUSH1 0x5 ADD SLOAD SWAP1 POP POP PUSH2 0x8C3 JUMP JUMPDEST POP POP SWAP1 JUMP JUMPDEST PUSH1 0x0 PUSH1 0x7 PUSH1 0x0 DUP4 DUP2 MSTORE PUSH1 0x20 ADD SWAP1 DUP2 MSTORE PUSH1 0x20 ADD PUSH1 0x0 KECCAK256 PUSH1 0x3 ADD PUSH1 0x0 SWAP1 SLOAD SWAP1 PUSH2 0x100 EXP SWAP1 DIV PUSH1 0xFF AND SWAP1 POP SWAP2 SWAP1 POP JUMP JUMPDEST PUSH1 0x0 PUSH1 0x3 PUSH1 0x0 DUP4 DUP2 MSTORE PUSH1 0x20 ADD SWAP1 DUP2 MSTORE PUSH1 0x20 ADD PUSH1 0x0 KECCAK256 PUSH1 0x0 ADD PUSH1 0x0 SWAP1 SLOAD SWAP1 PUSH2 0x100 EXP SWAP1 DIV PUSH20 0xFFFFFFFFFFFFFFFFFFFFFFFFFFFFFFFFFFFFFFFF AND SWAP1 POP SWAP2 SWAP1 POP JUMP JUMPDEST PUSH1 0x4 SLOAD DUP2 JUMP JUMPDEST PUSH1 0x0 PUSH1 0x7 PUSH1 0x0 DUP4 DUP2 MSTORE PUSH1 0x20 ADD SWAP1 DUP2 MSTORE PUSH1 0x20 ADD PUSH1 0x0 KECCAK256 PUSH1 0x0 ADD PUSH1 0x0 SWAP1 SLOAD SWAP1 PUSH2 0x100 EXP SWAP1 DIV PUSH20 0xFFFFFFFFFFFFFFFFFFFFFFFFFFFFFFFFFFFFFFFF AND SWAP1 POP SWAP2 SWAP1 POP JUMP JUMPDEST PUSH1 0x0 DUP2 LT ISZERO PUSH2 0x9E8 JUMPI PUSH1 0x40 MLOAD PUSH32 0x8C379A000000000000000000000000000000000000000000000000000000000 DUP2 MSTORE PUSH1 0x4 ADD PUSH2 0x9DF SWAP1 PUSH2 0x1AF6 JUMP JUMPDEST PUSH1 0x40 MLOAD DUP1 SWAP2 SUB SWAP1 REVERT JUMPDEST DUP1 CALLVALUE LT ISZERO PUSH2 0xA2B JUMPI PUSH1 0x40 MLOAD PUSH32 0x8C379A000000000000000000000000000000000000000000000000000000000 DUP2 MSTORE PUSH1 0x4 ADD PUSH2 0xA22 SWAP1 PUSH2 0x1B62 JUMP JUMPDEST PUSH1 0x40 MLOAD DUP1 SWAP2 SUB SWAP1 REVERT JUMPDEST PUSH1 0x0 TIMESTAMP SWAP1 POP PUSH1 0x0 PUSH1 0x64 PUSH1 0x2 SLOAD PUSH1 0x64 PUSH2 0xA43 SWAP2 SWAP1 PUSH2 0x1BB1 JUMP JUMPDEST CALLVALUE PUSH2 0xA4E SWAP2 SWAP1 PUSH2 0x1BE5 JUMP JUMPDEST PUSH2 0xA58 SWAP2 SWAP1 PUSH2 0x1C6E JUMP JUMPDEST SWAP1 POP PUSH1 0x0 PUSH2 0xA67 CALLER DUP5 DUP5 PUSH2 0xE61 JUMP JUMPDEST SWAP1 POP PUSH2 0xA72 DUP2 PUSH2 0xFFC JUMP JUMPDEST POP POP POP POP JUMP JUMPDEST PUSH1 0x5 SLOAD DUP2 JUMP JUMPDEST PUSH1 0x8 SLOAD DUP2 JUMP JUMPDEST PUSH1 0x3 PUSH1 0x0 DUP3 DUP2 MSTORE PUSH1 0x20 ADD SWAP1 DUP2 MSTORE PUSH1 0x20 ADD PUSH1 0x0 KECCAK256 PUSH1 0x40 MLOAD DUP1 PUSH1 0xE0 ADD PUSH1 0x40 MSTORE SWAP1 DUP2 PUSH1 0x0 DUP3 ADD PUSH1 0x0 SWAP1 SLOAD SWAP1 PUSH2 0x100 EXP SWAP1 DIV PUSH20 0xFFFFFFFFFFFFFFFFFFFFFFFFFFFFFFFFFFFFFFFF AND PUSH20 0xFFFFFFFFFFFFFFFFFFFFFFFFFFFFFFFFFFFFFFFF AND PUSH20 0xFFFFFFFFFFFFFFFFFFFFFFFFFFFFFFFFFFFFFFFF AND DUP2 MSTORE PUSH1 0x20 ADD PUSH1 0x1 DUP3 ADD SLOAD DUP2 MSTORE PUSH1 0x20 ADD PUSH1 0x2 DUP3 ADD SLOAD DUP2 MSTORE PUSH1 0x20 ADD PUSH1 0x3 DUP3 ADD PUSH1 0x0 SWAP1 SLOAD SWAP1 PUSH2 0x100 EXP SWAP1 DIV PUSH1 0xFF AND PUSH1 0x1 DUP2 GT ISZERO PUSH2 0xB31 JUMPI PUSH2 0xB30 PUSH2 0x1644 JUMP JUMPDEST JUMPDEST PUSH1 0x1 DUP2 GT ISZERO PUSH2 0xB43 JUMPI PUSH2 0xB42 PUSH2 0x1644 JUMP JUMPDEST JUMPDEST DUP2 MSTORE PUSH1 0x20 ADD PUSH1 0x4 DUP3 ADD SLOAD DUP2 MSTORE PUSH1 0x20 ADD PUSH1 0x5 DUP3 ADD SLOAD DUP2 MSTORE PUSH1 0x20 ADD PUSH1 0x6 DUP3 ADD SLOAD DUP2 MSTORE POP POP PUSH1 0x0 PUSH1 0x1 DUP2 GT ISZERO PUSH2 0xB79 JUMPI PUSH2 0xB78 PUSH2 0x1644 JUMP JUMPDEST JUMPDEST DUP2 PUSH1 0x60 ADD MLOAD PUSH1 0x1 DUP2 GT ISZERO PUSH2 0xB90 JUMPI PUSH2 0xB8F PUSH2 0x1644 JUMP JUMPDEST JUMPDEST EQ PUSH2 0xBD0 JUMPI PUSH1 0x40 MLOAD PUSH32 0x8C379A000000000000000000000000000000000000000000000000000000000 DUP2 MSTORE PUSH1 0x4 ADD PUSH2 0xBC7 SWAP1 PUSH2 0x1967 JUMP JUMPDEST PUSH1 0x40 MLOAD DUP1 SWAP2 SUB SWAP1 REVERT JUMPDEST PUSH1 0x3 PUSH1 0x0 DUP4 DUP2 MSTORE PUSH1 0x20 ADD SWAP1 DUP2 MSTORE PUSH1 0x20 ADD PUSH1 0x0 KECCAK256 PUSH1 0x40 MLOAD DUP1 PUSH1 0xE0 ADD PUSH1 0x40 MSTORE SWAP1 DUP2 PUSH1 0x0 DUP3 ADD PUSH1 0x0 SWAP1 SLOAD SWAP1 PUSH2 0x100 EXP SWAP1 DIV PUSH20 0xFFFFFFFFFFFFFFFFFFFFFFFFFFFFFFFFFFFFFFFF AND PUSH20 0xFFFFFFFFFFFFFFFFFFFFFFFFFFFFFFFFFFFFFFFF AND PUSH20 0xFFFFFFFFFFFFFFFFFFFFFFFFFFFFFFFFFFFFFFFF AND DUP2 MSTORE PUSH1 0x20 ADD PUSH1 0x1 DUP3 ADD SLOAD DUP2 MSTORE PUSH1 0x20 ADD PUSH1 0x2 DUP3 ADD SLOAD DUP2 MSTORE PUSH1 0x20 ADD PUSH1 0x3 DUP3 ADD PUSH1 0x0 SWAP1 SLOAD SWAP1 PUSH2 0x100 EXP SWAP1 DIV PUSH1 0xFF AND PUSH1 0x1 DUP2 GT ISZERO PUSH2 0xC7D JUMPI PUSH2 0xC7C PUSH2 0x1644 JUMP JUMPDEST JUMPDEST PUSH1 0x1 DUP2 GT ISZERO PUSH2 0xC8F JUMPI PUSH2 0xC8E PUSH2 0x1644 JUMP JUMPDEST JUMPDEST DUP2 MSTORE PUSH1 0x20 ADD PUSH1 0x4 DUP3 ADD SLOAD DUP2 MSTORE PUSH1 0x20 ADD PUSH1 0x5 DUP3 ADD SLOAD DUP2 MSTORE PUSH1 0x20 ADD PUSH1 0x6 DUP3 ADD SLOAD DUP2 MSTORE POP POP CALLER DUP1 PUSH20 0xFFFFFFFFFFFFFFFFFFFFFFFFFFFFFFFFFFFFFFFF AND DUP3 PUSH1 0x0 ADD MLOAD PUSH20 0xFFFFFFFFFFFFFFFFFFFFFFFFFFFFFFFFFFFFFFFF AND EQ PUSH2 0xD24 JUMPI PUSH1 0x40 MLOAD PUSH32 0x8C379A000000000000000000000000000000000000000000000000000000000 DUP2 MSTORE PUSH1 0x4 ADD PUSH2 0xD1B SWAP1 PUSH2 0x19D3 JUMP JUMPDEST PUSH1 0x40 MLOAD DUP1 SWAP2 SUB SWAP1 REVERT JUMPDEST POP POP POP POP JUMP JUMPDEST PUSH1 0x0 DUP2 LT ISZERO PUSH2 0xD6E JUMPI PUSH1 0x40 MLOAD PUSH32 0x8C379A000000000000000000000000000000000000000000000000000000000 DUP2 MSTORE PUSH1 0x4 ADD PUSH2 0xD65 SWAP1 PUSH2 0x1AF6 JUMP JUMPDEST PUSH1 0x40 MLOAD DUP1 SWAP2 SUB SWAP1 REVERT JUMPDEST DUP1 CALLVALUE LT ISZERO PUSH2 0xDB1 JUMPI PUSH1 0x40 MLOAD PUSH32 0x8C379A000000000000000000000000000000000000000000000000000000000 DUP2 MSTORE PUSH1 0x4 ADD PUSH2 0xDA8 SWAP1 PUSH2 0x1CEB JUMP JUMPDEST PUSH1 0x40 MLOAD DUP1 SWAP2 SUB SWAP1 REVERT JUMPDEST POP JUMP JUMPDEST PUSH1 0xA SLOAD DUP2 JUMP JUMPDEST PUSH1 0x6 SLOAD DUP2 JUMP JUMPDEST PUSH1 0x0 PUSH1 0x3 PUSH1 0x0 DUP4 DUP2 MSTORE PUSH1 0x20 ADD SWAP1 DUP2 MSTORE PUSH1 0x20 ADD PUSH1 0x0 KECCAK256 PUSH1 0x3 ADD PUSH1 0x0 SWAP1 SLOAD SWAP1 PUSH2 0x100 EXP SWAP1 DIV PUSH1 0xFF AND SWAP1 POP SWAP2 SWAP1 POP JUMP JUMPDEST PUSH1 0x60 DUP3 PUSH1 0x0 SHL DUP3 PUSH1 0x0 SHL PUSH1 0x40 MLOAD PUSH1 0x20 ADD PUSH2 0xE08 SWAP3 SWAP2 SWAP1 PUSH2 0x1D5C JUMP JUMPDEST PUSH1 0x40 MLOAD PUSH1 0x20 DUP2 DUP4 SUB SUB DUP2 MSTORE SWAP1 PUSH1 0x40 MSTORE SWAP1 POP SWAP3 SWAP2 POP POP JUMP JUMPDEST PUSH1 0x60 SWAP1 JUMP JUMPDEST PUSH1 0x0 DUP1 PUSH1 0x0 DUP1 PUSH1 0x0 DUP1 PUSH1 0x0 DUP1 SWAP2 SWAP4 SWAP6 SWAP8 POP SWAP2 SWAP4 SWAP6 SWAP8 JUMP JUMPDEST PUSH1 0x0 PUSH1 0x7 PUSH1 0x0 DUP4 DUP2 MSTORE PUSH1 0x20 ADD SWAP1 DUP2 MSTORE PUSH1 0x20 ADD PUSH1 0x0 KECCAK256 PUSH1 0x1 ADD SLOAD SWAP1 POP SWAP2 SWAP1 POP JUMP JUMPDEST PUSH1 0x9 SLOAD DUP2 JUMP JUMPDEST PUSH2 0xE69 PUSH2 0x1189 JUMP JUMPDEST PUSH1 0xA PUSH1 0x0 DUP2 SLOAD DUP1 SWAP3 SWAP2 SWAP1 PUSH2 0xE7C SWAP1 PUSH2 0x1D97 JUMP JUMPDEST SWAP2 SWAP1 POP SSTORE POP PUSH1 0x0 PUSH1 0x40 MLOAD DUP1 PUSH1 0xE0 ADD PUSH1 0x40 MSTORE DUP1 DUP7 PUSH20 0xFFFFFFFFFFFFFFFFFFFFFFFFFFFFFFFFFFFFFFFF AND DUP2 MSTORE PUSH1 0x20 ADD DUP6 DUP2 MSTORE PUSH1 0x20 ADD DUP5 DUP2 MSTORE PUSH1 0x20 ADD PUSH1 0x0 PUSH1 0x1 DUP2 GT ISZERO PUSH2 0xECA JUMPI PUSH2 0xEC9 PUSH2 0x1644 JUMP JUMPDEST JUMPDEST DUP2 MSTORE PUSH1 0x20 ADD PUSH1 0xA SLOAD DUP2 MSTORE PUSH1 0x20 ADD PUSH1 0x0 DUP2 MSTORE PUSH1 0x20 ADD PUSH1 0x0 DUP2 MSTORE POP SWAP1 POP DUP1 PUSH1 0x7 PUSH1 0x0 PUSH1 0xA SLOAD DUP2 MSTORE PUSH1 0x20 ADD SWAP1 DUP2 MSTORE PUSH1 0x20 ADD PUSH1 0x0 KECCAK256 PUSH1 0x0 DUP3 ADD MLOAD DUP2 PUSH1 0x0 ADD PUSH1 0x0 PUSH2 0x100 EXP DUP2 SLOAD DUP2 PUSH20 0xFFFFFFFFFFFFFFFFFFFFFFFFFFFFFFFFFFFFFFFF MUL NOT AND SWAP1 DUP4 PUSH20 0xFFFFFFFFFFFFFFFFFFFFFFFFFFFFFFFFFFFFFFFF AND MUL OR SWAP1 SSTORE POP PUSH1 0x20 DUP3 ADD MLOAD DUP2 PUSH1 0x1 ADD SSTORE PUSH1 0x40 DUP3 ADD MLOAD DUP2 PUSH1 0x2 ADD SSTORE PUSH1 0x60 DUP3 ADD MLOAD DUP2 PUSH1 0x3 ADD PUSH1 0x0 PUSH2 0x100 EXP DUP2 SLOAD DUP2 PUSH1 0xFF MUL NOT AND SWAP1 DUP4 PUSH1 0x1 DUP2 GT ISZERO PUSH2 0xF81 JUMPI PUSH2 0xF80 PUSH2 0x1644 JUMP JUMPDEST JUMPDEST MUL OR SWAP1 SSTORE POP PUSH1 0x80 DUP3 ADD MLOAD DUP2 PUSH1 0x4 ADD SSTORE PUSH1 0xA0 DUP3 ADD MLOAD DUP2 PUSH1 0x5 ADD SSTORE PUSH1 0xC0 DUP3 ADD MLOAD DUP2 PUSH1 0x6 ADD SSTORE SWAP1 POP POP PUSH32 0x93CAF6BA1AF44020DFE6076E279533E38BD8DEEFE534C43AA8CC93AAD2025B7D DUP6 DUP6 DUP6 PUSH1 0x0 PUSH1 0xA SLOAD PUSH1 0x0 DUP1 PUSH1 0x0 PUSH1 0x40 MLOAD PUSH2 0xFE9 SWAP9 SWAP8 SWAP7 SWAP6 SWAP5 SWAP4 SWAP3 SWAP2 SWAP1 PUSH2 0x1E45 JUMP JUMPDEST PUSH1 0x40 MLOAD DUP1 SWAP2 SUB SWAP1 LOG1 DUP1 SWAP2 POP POP SWAP4 SWAP3 POP POP POP JUMP JUMPDEST PUSH1 0x0 DUP1 PUSH1 0x8 SLOAD SUB PUSH2 0x1017 JUMPI DUP2 PUSH1 0x80 ADD MLOAD PUSH1 0x8 DUP2 SWAP1 SSTORE POP PUSH2 0x1185 JUMP JUMPDEST DUP2 PUSH1 0x20 ADD MLOAD PUSH1 0x7 PUSH1 0x0 PUSH1 0x8 SLOAD DUP2 MSTORE PUSH1 0x20 ADD SWAP1 DUP2 MSTORE PUSH1 0x20 ADD PUSH1 0x0 KECCAK256 PUSH1 0x1 ADD SLOAD LT PUSH2 0x1079 JUMPI PUSH1 0x8 SLOAD DUP3 PUSH1 0xA0 ADD DUP2 DUP2 MSTORE POP POP DUP2 PUSH1 0x80 ADD MLOAD PUSH1 0x7 PUSH1 0x0 DUP5 PUSH1 0xA0 ADD MLOAD DUP2 MSTORE PUSH1 0x20 ADD SWAP1 DUP2 MSTORE PUSH1 0x20 ADD PUSH1 0x0 KECCAK256 PUSH1 0x6 ADD DUP2 SWAP1 SSTORE POP DUP2 PUSH1 0x80 ADD MLOAD PUSH1 0x8 DUP2 SWAP1 SSTORE POP PUSH2 0x1184 JUMP JUMPDEST PUSH1 0x8 SLOAD SWAP1 POP JUMPDEST PUSH1 0x0 PUSH1 0x7 PUSH1 0x0 DUP4 DUP2 MSTORE PUSH1 0x20 ADD SWAP1 DUP2 MSTORE PUSH1 0x20 ADD PUSH1 0x0 KECCAK256 PUSH1 0x5 ADD SLOAD EQ ISZERO DUP1 ISZERO PUSH2 0x10D5 JUMPI POP DUP2 PUSH1 0x20 ADD MLOAD PUSH1 0x7 PUSH1 0x0 PUSH1 0x7 PUSH1 0x0 DUP6 DUP2 MSTORE PUSH1 0x20 ADD SWAP1 DUP2 MSTORE PUSH1 0x20 ADD PUSH1 0x0 KECCAK256 PUSH1 0x5 ADD SLOAD DUP2 MSTORE PUSH1 0x20 ADD SWAP1 DUP2 MSTORE PUSH1 0x20 ADD PUSH1 0x0 KECCAK256 PUSH1 0x1 ADD SLOAD LT JUMPDEST ISZERO PUSH2 0x10F8 JUMPI PUSH1 0x7 PUSH1 0x0 DUP3 DUP2 MSTORE PUSH1 0x20 ADD SWAP1 DUP2 MSTORE PUSH1 0x20 ADD PUSH1 0x0 KECCAK256 PUSH1 0x5 ADD SLOAD SWAP1 POP PUSH2 0x107F JUMP JUMPDEST PUSH1 0x7 PUSH1 0x0 DUP3 DUP2 MSTORE PUSH1 0x20 ADD SWAP1 DUP2 MSTORE PUSH1 0x20 ADD PUSH1 0x0 KECCAK256 PUSH1 0x5 ADD SLOAD DUP3 PUSH1 0xA0 ADD DUP2 DUP2 MSTORE POP POP PUSH1 0x0 PUSH1 0x7 PUSH1 0x0 DUP4 DUP2 MSTORE PUSH1 0x20 ADD SWAP1 DUP2 MSTORE PUSH1 0x20 ADD PUSH1 0x0 KECCAK256 PUSH1 0x5 ADD SLOAD EQ PUSH2 0x115A JUMPI DUP2 PUSH1 0x80 ADD MLOAD PUSH1 0x7 PUSH1 0x0 DUP5 PUSH1 0xA0 ADD MLOAD DUP2 MSTORE PUSH1 0x20 ADD SWAP1 DUP2 MSTORE PUSH1 0x20 ADD PUSH1 0x0 KECCAK256 PUSH1 0x6 ADD DUP2 SWAP1 SSTORE POP JUMPDEST DUP2 PUSH1 0x80 ADD MLOAD PUSH1 0x7 PUSH1 0x0 DUP4 DUP2 MSTORE PUSH1 0x20 ADD SWAP1 DUP2 MSTORE PUSH1 0x20 ADD PUSH1 0x0 KECCAK256 PUSH1 0x5 ADD DUP2 SWAP1 SSTORE POP DUP1 DUP3 PUSH1 0xC0 ADD DUP2 DUP2 MSTORE POP POP JUMPDEST JUMPDEST POP POP JUMP JUMPDEST PUSH1 0x40 MLOAD DUP1 PUSH1 0xE0 ADD PUSH1 0x40 MSTORE DUP1 PUSH1 0x0 PUSH20 0xFFFFFFFFFFFFFFFFFFFFFFFFFFFFFFFFFFFFFFFF AND DUP2 MSTORE PUSH1 0x20 ADD PUSH1 0x0 DUP2 MSTORE PUSH1 0x20 ADD PUSH1 0x0 DUP2 MSTORE PUSH1 0x20 ADD PUSH1 0x0 PUSH1 0x1 DUP2 GT ISZERO PUSH2 0x11D3 JUMPI PUSH2 0x11D2 PUSH2 0x1644 JUMP JUMPDEST JUMPDEST DUP2 MSTORE PUSH1 0x20 ADD PUSH1 0x0 DUP2 MSTORE PUSH1 0x20 ADD PUSH1 0x0 DUP2 MSTORE PUSH1 0x20 ADD PUSH1 0x0 DUP2 MSTORE POP SWAP1 JUMP JUMPDEST PUSH1 0x0 DUP2 MLOAD SWAP1 POP SWAP2 SWAP1 POP JUMP JUMPDEST PUSH1 0x0 DUP3 DUP3 MSTORE PUSH1 0x20 DUP3 ADD SWAP1 POP SWAP3 SWAP2 POP POP JUMP JUMPDEST PUSH1 0x0 DUP2 SWAP1 POP PUSH1 0x20 DUP3 ADD SWAP1 POP SWAP2 SWAP1 POP JUMP JUMPDEST PUSH1 0x0 DUP2 SWAP1 POP SWAP2 SWAP1 POP JUMP JUMPDEST PUSH2 0x122D DUP2 PUSH2 0x121A JUMP JUMPDEST DUP3 MSTORE POP POP JUMP JUMPDEST PUSH1 0x0 PUSH2 0x123F DUP4 DUP4 PUSH2 0x1224 JUMP JUMPDEST PUSH1 0x20 DUP4 ADD SWAP1 POP SWAP3 SWAP2 POP POP JUMP JUMPDEST PUSH1 0x0 PUSH1 0x20 DUP3 ADD SWAP1 POP SWAP2 SWAP1 POP JUMP JUMPDEST PUSH1 0x0 PUSH2 0x1263 DUP3 PUSH2 0x11EE JUMP JUMPDEST PUSH2 0x126D DUP2 DUP6 PUSH2 0x11F9 JUMP JUMPDEST SWAP4 POP PUSH2 0x1278 DUP4 PUSH2 0x120A JUMP JUMPDEST DUP1 PUSH1 0x0 JUMPDEST DUP4 DUP2 LT ISZERO PUSH2 0x12A9 JUMPI DUP2 MLOAD PUSH2 0x1290 DUP9 DUP3 PUSH2 0x1233 JUMP JUMPDEST SWAP8 POP PUSH2 0x129B DUP4 PUSH2 0x124B JUMP JUMPDEST SWAP3 POP POP PUSH1 0x1 DUP2 ADD SWAP1 POP PUSH2 0x127C JUMP JUMPDEST POP DUP6 SWAP4 POP POP POP POP SWAP3 SWAP2 POP POP JUMP JUMPDEST PUSH1 0x0 PUSH1 0x20 DUP3 ADD SWAP1 POP DUP2 DUP2 SUB PUSH1 0x0 DUP4 ADD MSTORE PUSH2 0x12D0 DUP2 DUP5 PUSH2 0x1258 JUMP JUMPDEST SWAP1 POP SWAP3 SWAP2 POP POP JUMP JUMPDEST PUSH1 0x0 PUSH1 0x40 MLOAD SWAP1 POP SWAP1 JUMP JUMPDEST PUSH1 0x0 DUP1 REVERT JUMPDEST PUSH1 0x0 DUP1 REVERT JUMPDEST PUSH2 0x12F5 DUP2 PUSH2 0x121A JUMP JUMPDEST DUP2 EQ PUSH2 0x1300 JUMPI PUSH1 0x0 DUP1 REVERT JUMPDEST POP JUMP JUMPDEST PUSH1 0x0 DUP2 CALLDATALOAD SWAP1 POP PUSH2 0x1312 DUP2 PUSH2 0x12EC JUMP JUMPDEST SWAP3 SWAP2 POP POP JUMP JUMPDEST PUSH1 0x0 PUSH1 0x20 DUP3 DUP5 SUB SLT ISZERO PUSH2 0x132E JUMPI PUSH2 0x132D PUSH2 0x12E2 JUMP JUMPDEST JUMPDEST PUSH1 0x0 PUSH2 0x133C DUP5 DUP3 DUP6 ADD PUSH2 0x1303 JUMP JUMPDEST SWAP2 POP POP SWAP3 SWAP2 POP POP JUMP JUMPDEST PUSH1 0x0 DUP1 REVERT JUMPDEST PUSH1 0x0 DUP1 REVERT JUMPDEST PUSH1 0x0 PUSH1 0x1F NOT PUSH1 0x1F DUP4 ADD AND SWAP1 POP SWAP2 SWAP1 POP JUMP JUMPDEST PUSH32 0x4E487B7100000000000000000000000000000000000000000000000000000000 PUSH1 0x0 MSTORE PUSH1 0x41 PUSH1 0x4 MSTORE PUSH1 0x24 PUSH1 0x0 REVERT JUMPDEST PUSH2 0x1398 DUP3 PUSH2 0x134F JUMP JUMPDEST DUP2 ADD DUP2 DUP2 LT PUSH8 0xFFFFFFFFFFFFFFFF DUP3 GT OR ISZERO PUSH2 0x13B7 JUMPI PUSH2 0x13B6 PUSH2 0x1360 JUMP JUMPDEST JUMPDEST DUP1 PUSH1 0x40 MSTORE POP POP POP JUMP JUMPDEST PUSH1 0x0 PUSH2 0x13CA PUSH2 0x12D8 JUMP JUMPDEST SWAP1 POP PUSH2 0x13D6 DUP3 DUP3 PUSH2 0x138F JUMP JUMPDEST SWAP2 SWAP1 POP JUMP JUMPDEST PUSH1 0x0 PUSH8 0xFFFFFFFFFFFFFFFF DUP3 GT ISZERO PUSH2 0x13F6 JUMPI PUSH2 0x13F5 PUSH2 0x1360 JUMP JUMPDEST JUMPDEST PUSH2 0x13FF DUP3 PUSH2 0x134F JUMP JUMPDEST SWAP1 POP PUSH1 0x20 DUP2 ADD SWAP1 POP SWAP2 SWAP1 POP JUMP JUMPDEST DUP3 DUP2 DUP4 CALLDATACOPY PUSH1 0x0 DUP4 DUP4 ADD MSTORE POP POP POP JUMP JUMPDEST PUSH1 0x0 PUSH2 0x142E PUSH2 0x1429 DUP5 PUSH2 0x13DB JUMP JUMPDEST PUSH2 0x13C0 JUMP JUMPDEST SWAP1 POP DUP3 DUP2 MSTORE PUSH1 0x20 DUP2 ADD DUP5 DUP5 DUP5 ADD GT ISZERO PUSH2 0x144A JUMPI PUSH2 0x1449 PUSH2 0x134A JUMP JUMPDEST JUMPDEST PUSH2 0x1455 DUP5 DUP3 DUP6 PUSH2 0x140C JUMP JUMPDEST POP SWAP4 SWAP3 POP POP POP JUMP JUMPDEST PUSH1 0x0 DUP3 PUSH1 0x1F DUP4 ADD SLT PUSH2 0x1472 JUMPI PUSH2 0x1471 PUSH2 0x1345 JUMP JUMPDEST JUMPDEST DUP2 CALLDATALOAD PUSH2 0x1482 DUP5 DUP3 PUSH1 0x20 DUP7 ADD PUSH2 0x141B JUMP JUMPDEST SWAP2 POP POP SWAP3 SWAP2 POP POP JUMP JUMPDEST PUSH1 0x0 DUP1 PUSH1 0x40 DUP4 DUP6 SUB SLT ISZERO PUSH2 0x14A2 JUMPI PUSH2 0x14A1 PUSH2 0x12E2 JUMP JUMPDEST JUMPDEST PUSH1 0x0 DUP4 ADD CALLDATALOAD PUSH8 0xFFFFFFFFFFFFFFFF DUP2 GT ISZERO PUSH2 0x14C0 JUMPI PUSH2 0x14BF PUSH2 0x12E7 JUMP JUMPDEST JUMPDEST PUSH2 0x14CC DUP6 DUP3 DUP7 ADD PUSH2 0x145D JUMP JUMPDEST SWAP3 POP POP PUSH1 0x20 DUP4 ADD CALLDATALOAD PUSH8 0xFFFFFFFFFFFFFFFF DUP2 GT ISZERO PUSH2 0x14ED JUMPI PUSH2 0x14EC PUSH2 0x12E7 JUMP JUMPDEST JUMPDEST PUSH2 0x14F9 DUP6 DUP3 DUP7 ADD PUSH2 0x145D JUMP JUMPDEST SWAP2 POP POP SWAP3 POP SWAP3 SWAP1 POP JUMP JUMPDEST PUSH1 0x0 DUP2 MLOAD SWAP1 POP SWAP2 SWAP1 POP JUMP JUMPDEST PUSH1 0x0 DUP3 DUP3 MSTORE PUSH1 0x20 DUP3 ADD SWAP1 POP SWAP3 SWAP2 POP POP JUMP JUMPDEST PUSH1 0x0 JUMPDEST DUP4 DUP2 LT ISZERO PUSH2 0x153D JUMPI DUP1 DUP3 ADD MLOAD DUP2 DUP5 ADD MSTORE PUSH1 0x20 DUP2 ADD SWAP1 POP PUSH2 0x1522 JUMP JUMPDEST DUP4 DUP2 GT ISZERO PUSH2 0x154C JUMPI PUSH1 0x0 DUP5 DUP5 ADD MSTORE JUMPDEST POP POP POP POP JUMP JUMPDEST PUSH1 0x0 PUSH2 0x155D DUP3 PUSH2 0x1503 JUMP JUMPDEST PUSH2 0x1567 DUP2 DUP6 PUSH2 0x150E JUMP JUMPDEST SWAP4 POP PUSH2 0x1577 DUP2 DUP6 PUSH1 0x20 DUP7 ADD PUSH2 0x151F JUMP JUMPDEST PUSH2 0x1580 DUP2 PUSH2 0x134F JUMP JUMPDEST DUP5 ADD SWAP2 POP POP SWAP3 SWAP2 POP POP JUMP JUMPDEST PUSH1 0x0 PUSH1 0x20 DUP3 ADD SWAP1 POP DUP2 DUP2 SUB PUSH1 0x0 DUP4 ADD MSTORE PUSH2 0x15A5 DUP2 DUP5 PUSH2 0x1552 JUMP JUMPDEST SWAP1 POP SWAP3 SWAP2 POP POP JUMP JUMPDEST PUSH2 0x15B6 DUP2 PUSH2 0x121A JUMP JUMPDEST DUP3 MSTORE POP POP JUMP JUMPDEST PUSH1 0x0 PUSH1 0x20 DUP3 ADD SWAP1 POP PUSH2 0x15D1 PUSH1 0x0 DUP4 ADD DUP5 PUSH2 0x15AD JUMP JUMPDEST SWAP3 SWAP2 POP POP JUMP JUMPDEST PUSH1 0x0 DUP2 MLOAD SWAP1 POP SWAP2 SWAP1 POP JUMP JUMPDEST PUSH1 0x0 DUP3 DUP3 MSTORE PUSH1 0x20 DUP3 ADD SWAP1 POP SWAP3 SWAP2 POP POP JUMP JUMPDEST PUSH1 0x0 DUP2 SWAP1 POP PUSH1 0x20 DUP3 ADD SWAP1 POP SWAP2 SWAP1 POP JUMP JUMPDEST PUSH1 0x0 PUSH20 0xFFFFFFFFFFFFFFFFFFFFFFFFFFFFFFFFFFFFFFFF DUP3 AND SWAP1 POP SWAP2 SWAP1 POP JUMP JUMPDEST PUSH1 0x0 PUSH2 0x162E DUP3 PUSH2 0x1603 JUMP JUMPDEST SWAP1 POP SWAP2 SWAP1 POP JUMP JUMPDEST PUSH2 0x163E DUP2 PUSH2 0x1623 JUMP JUMPDEST DUP3 MSTORE POP POP JUMP JUMPDEST PUSH32 0x4E487B7100000000000000000000000000000000000000000000000000000000 PUSH1 0x0 MSTORE PUSH1 0x21 PUSH1 0x4 MSTORE PUSH1 0x24 PUSH1 0x0 REVERT JUMPDEST PUSH1 0x2 DUP2 LT PUSH2 0x1684 JUMPI PUSH2 0x1683 PUSH2 0x1644 JUMP JUMPDEST JUMPDEST POP JUMP JUMPDEST PUSH1 0x0 DUP2 SWAP1 POP PUSH2 0x1695 DUP3 PUSH2 0x1673 JUMP JUMPDEST SWAP2 SWAP1 POP JUMP JUMPDEST PUSH1 0x0 PUSH2 0x16A5 DUP3 PUSH2 0x1687 JUMP JUMPDEST SWAP1 POP SWAP2 SWAP1 POP JUMP JUMPDEST PUSH2 0x16B5 DUP2 PUSH2 0x169A JUMP JUMPDEST DUP3 MSTORE POP POP JUMP JUMPDEST PUSH1 0xE0 DUP3 ADD PUSH1 0x0 DUP3 ADD MLOAD PUSH2 0x16D1 PUSH1 0x0 DUP6 ADD DUP3 PUSH2 0x1635 JUMP JUMPDEST POP PUSH1 0x20 DUP3 ADD MLOAD PUSH2 0x16E4 PUSH1 0x20 DUP6 ADD DUP3 PUSH2 0x1224 JUMP JUMPDEST POP PUSH1 0x40 DUP3 ADD MLOAD PUSH2 0x16F7 PUSH1 0x40 DUP6 ADD DUP3 PUSH2 0x1224 JUMP JUMPDEST POP PUSH1 0x60 DUP3 ADD MLOAD PUSH2 0x170A PUSH1 0x60 DUP6 ADD DUP3 PUSH2 0x16AC JUMP JUMPDEST POP PUSH1 0x80 DUP3 ADD MLOAD PUSH2 0x171D PUSH1 0x80 DUP6 ADD DUP3 PUSH2 0x1224 JUMP JUMPDEST POP PUSH1 0xA0 DUP3 ADD MLOAD PUSH2 0x1730 PUSH1 0xA0 DUP6 ADD DUP3 PUSH2 0x1224 JUMP JUMPDEST POP PUSH1 0xC0 DUP3 ADD MLOAD PUSH2 0x1743 PUSH1 0xC0 DUP6 ADD DUP3 PUSH2 0x1224 JUMP JUMPDEST POP POP POP POP JUMP JUMPDEST PUSH1 0x0 PUSH2 0x1755 DUP4 DUP4 PUSH2 0x16BB JUMP JUMPDEST PUSH1 0xE0 DUP4 ADD SWAP1 POP SWAP3 SWAP2 POP POP JUMP JUMPDEST PUSH1 0x0 PUSH1 0x20 DUP3 ADD SWAP1 POP SWAP2 SWAP1 POP JUMP JUMPDEST PUSH1 0x0 PUSH2 0x1779 DUP3 PUSH2 0x15D7 JUMP JUMPDEST PUSH2 0x1783 DUP2 DUP6 PUSH2 0x15E2 JUMP JUMPDEST SWAP4 POP PUSH2 0x178E DUP4 PUSH2 0x15F3 JUMP JUMPDEST DUP1 PUSH1 0x0 JUMPDEST DUP4 DUP2 LT ISZERO PUSH2 0x17BF JUMPI DUP2 MLOAD PUSH2 0x17A6 DUP9 DUP3 PUSH2 0x1749 JUMP JUMPDEST SWAP8 POP PUSH2 0x17B1 DUP4 PUSH2 0x1761 JUMP JUMPDEST SWAP3 POP POP PUSH1 0x1 DUP2 ADD SWAP1 POP PUSH2 0x1792 JUMP JUMPDEST POP DUP6 SWAP4 POP POP POP POP SWAP3 SWAP2 POP POP JUMP JUMPDEST PUSH1 0x0 PUSH1 0x20 DUP3 ADD SWAP1 POP DUP2 DUP2 SUB PUSH1 0x0 DUP4 ADD MSTORE PUSH2 0x17E6 DUP2 DUP5 PUSH2 0x176E JUMP JUMPDEST SWAP1 POP SWAP3 SWAP2 POP POP JUMP JUMPDEST PUSH2 0x17F7 DUP2 PUSH2 0x169A JUMP JUMPDEST DUP3 MSTORE POP POP JUMP JUMPDEST PUSH1 0x0 PUSH1 0x20 DUP3 ADD SWAP1 POP PUSH2 0x1812 PUSH1 0x0 DUP4 ADD DUP5 PUSH2 0x17EE JUMP JUMPDEST SWAP3 SWAP2 POP POP JUMP JUMPDEST PUSH2 0x1821 DUP2 PUSH2 0x1623 JUMP JUMPDEST DUP3 MSTORE POP POP JUMP JUMPDEST PUSH1 0x0 PUSH1 0x20 DUP3 ADD SWAP1 POP PUSH2 0x183C PUSH1 0x0 DUP4 ADD DUP5 PUSH2 0x1818 JUMP JUMPDEST SWAP3 SWAP2 POP POP JUMP JUMPDEST PUSH1 0x0 DUP1 PUSH1 0x40 DUP4 DUP6 SUB SLT ISZERO PUSH2 0x1859 JUMPI PUSH2 0x1858 PUSH2 0x12E2 JUMP JUMPDEST JUMPDEST PUSH1 0x0 PUSH2 0x1867 DUP6 DUP3 DUP7 ADD PUSH2 0x1303 JUMP JUMPDEST SWAP3 POP POP PUSH1 0x20 PUSH2 0x1878 DUP6 DUP3 DUP7 ADD PUSH2 0x1303 JUMP JUMPDEST SWAP2 POP POP SWAP3 POP SWAP3 SWAP1 POP JUMP JUMPDEST PUSH1 0x0 DUP2 ISZERO ISZERO SWAP1 POP SWAP2 SWAP1 POP JUMP JUMPDEST PUSH2 0x1897 DUP2 PUSH2 0x1882 JUMP JUMPDEST DUP3 MSTORE POP POP JUMP JUMPDEST PUSH1 0x0 PUSH2 0x100 DUP3 ADD SWAP1 POP PUSH2 0x18B3 PUSH1 0x0 DUP4 ADD DUP12 PUSH2 0x1818 JUMP JUMPDEST PUSH2 0x18C0 PUSH1 0x20 DUP4 ADD DUP11 PUSH2 0x15AD JUMP JUMPDEST PUSH2 0x18CD PUSH1 0x40 DUP4 ADD DUP10 PUSH2 0x15AD JUMP JUMPDEST PUSH2 0x18DA PUSH1 0x60 DUP4 ADD DUP9 PUSH2 0x17EE JUMP JUMPDEST PUSH2 0x18E7 PUSH1 0x80 DUP4 ADD DUP8 PUSH2 0x15AD JUMP JUMPDEST PUSH2 0x18F4 PUSH1 0xA0 DUP4 ADD DUP7 PUSH2 0x15AD JUMP JUMPDEST PUSH2 0x1901 PUSH1 0xC0 DUP4 ADD DUP6 PUSH2 0x15AD JUMP JUMPDEST PUSH2 0x190E PUSH1 0xE0 DUP4 ADD DUP5 PUSH2 0x188E JUMP JUMPDEST SWAP10 SWAP9 POP POP POP POP POP POP POP POP POP JUMP JUMPDEST PUSH32 0x4F726465722050656E64696E6700000000000000000000000000000000000000 PUSH1 0x0 DUP3 ADD MSTORE POP JUMP JUMPDEST PUSH1 0x0 PUSH2 0x1951 PUSH1 0xD DUP4 PUSH2 0x150E JUMP JUMPDEST SWAP2 POP PUSH2 0x195C DUP3 PUSH2 0x191B JUMP JUMPDEST PUSH1 0x20 DUP3 ADD SWAP1 POP SWAP2 SWAP1 POP JUMP JUMPDEST PUSH1 0x0 PUSH1 0x20 DUP3 ADD SWAP1 POP DUP2 DUP2 SUB PUSH1 0x0 DUP4 ADD MSTORE PUSH2 0x1980 DUP2 PUSH2 0x1944 JUMP JUMPDEST SWAP1 POP SWAP2 SWAP1 POP JUMP JUMPDEST PUSH32 0x4E6F7420417574686F7269736564000000000000000000000000000000000000 PUSH1 0x0 DUP3 ADD MSTORE POP JUMP JUMPDEST PUSH1 0x0 PUSH2 0x19BD PUSH1 0xE DUP4 PUSH2 0x150E JUMP JUMPDEST SWAP2 POP PUSH2 0x19C8 DUP3 PUSH2 0x1987 JUMP JUMPDEST PUSH1 0x20 DUP3 ADD SWAP1 POP SWAP2 SWAP1 POP JUMP JUMPDEST PUSH1 0x0 PUSH1 0x20 DUP3 ADD SWAP1 POP DUP2 DUP2 SUB PUSH1 0x0 DUP4 ADD MSTORE PUSH2 0x19EC DUP2 PUSH2 0x19B0 JUMP JUMPDEST SWAP1 POP SWAP2 SWAP1 POP JUMP JUMPDEST PUSH1 0x0 DUP2 SWAP1 POP SWAP3 SWAP2 POP POP JUMP JUMPDEST PUSH1 0x0 PUSH2 0x1A09 DUP3 PUSH2 0x1503 JUMP JUMPDEST PUSH2 0x1A13 DUP2 DUP6 PUSH2 0x19F3 JUMP JUMPDEST SWAP4 POP PUSH2 0x1A23 DUP2 DUP6 PUSH1 0x20 DUP7 ADD PUSH2 0x151F JUMP JUMPDEST DUP1 DUP5 ADD SWAP2 POP POP SWAP3 SWAP2 POP POP JUMP JUMPDEST PUSH32 0x2000000000000000000000000000000000000000000000000000000000000000 PUSH1 0x0 DUP3 ADD MSTORE POP JUMP JUMPDEST PUSH1 0x0 PUSH2 0x1A65 PUSH1 0x1 DUP4 PUSH2 0x19F3 JUMP JUMPDEST SWAP2 POP PUSH2 0x1A70 DUP3 PUSH2 0x1A2F JUMP JUMPDEST PUSH1 0x1 DUP3 ADD SWAP1 POP SWAP2 SWAP1 POP JUMP JUMPDEST PUSH1 0x0 PUSH2 0x1A87 DUP3 DUP6 PUSH2 0x19FE JUMP JUMPDEST SWAP2 POP PUSH2 0x1A92 DUP3 PUSH2 0x1A58 JUMP JUMPDEST SWAP2 POP PUSH2 0x1A9E DUP3 DUP5 PUSH2 0x19FE JUMP JUMPDEST SWAP2 POP DUP2 SWAP1 POP SWAP4 SWAP3 POP POP POP JUMP JUMPDEST PUSH32 0x70726963652076616C7565206D757374206265206D6F7265207468616E203000 PUSH1 0x0 DUP3 ADD MSTORE POP JUMP JUMPDEST PUSH1 0x0 PUSH2 0x1AE0 PUSH1 0x1F DUP4 PUSH2 0x150E JUMP JUMPDEST SWAP2 POP PUSH2 0x1AEB DUP3 PUSH2 0x1AAA JUMP JUMPDEST PUSH1 0x20 DUP3 ADD SWAP1 POP SWAP2 SWAP1 POP JUMP JUMPDEST PUSH1 0x0 PUSH1 0x20 DUP3 ADD SWAP1 POP DUP2 DUP2 SUB PUSH1 0x0 DUP4 ADD MSTORE PUSH2 0x1B0F DUP2 PUSH2 0x1AD3 JUMP JUMPDEST SWAP1 POP SWAP2 SWAP1 POP JUMP JUMPDEST PUSH32 0x4E6F7420656E6F75676820626C616E636520746F20706C6163652061736B0000 PUSH1 0x0 DUP3 ADD MSTORE POP JUMP JUMPDEST PUSH1 0x0 PUSH2 0x1B4C PUSH1 0x1E DUP4 PUSH2 0x150E JUMP JUMPDEST SWAP2 POP PUSH2 0x1B57 DUP3 PUSH2 0x1B16 JUMP JUMPDEST PUSH1 0x20 DUP3 ADD SWAP1 POP SWAP2 SWAP1 POP JUMP JUMPDEST PUSH1 0x0 PUSH1 0x20 DUP3 ADD SWAP1 POP DUP2 DUP2 SUB PUSH1 0x0 DUP4 ADD MSTORE PUSH2 0x1B7B DUP2 PUSH2 0x1B3F JUMP JUMPDEST SWAP1 POP SWAP2 SWAP1 POP JUMP JUMPDEST PUSH32 0x4E487B7100000000000000000000000000000000000000000000000000000000 PUSH1 0x0 MSTORE PUSH1 0x11 PUSH1 0x4 MSTORE PUSH1 0x24 PUSH1 0x0 REVERT JUMPDEST PUSH1 0x0 PUSH2 0x1BBC DUP3 PUSH2 0x121A JUMP JUMPDEST SWAP2 POP PUSH2 0x1BC7 DUP4 PUSH2 0x121A JUMP JUMPDEST SWAP3 POP DUP3 DUP3 LT ISZERO PUSH2 0x1BDA JUMPI PUSH2 0x1BD9 PUSH2 0x1B82 JUMP JUMPDEST JUMPDEST DUP3 DUP3 SUB SWAP1 POP SWAP3 SWAP2 POP POP JUMP JUMPDEST PUSH1 0x0 PUSH2 0x1BF0 DUP3 PUSH2 0x121A JUMP JUMPDEST SWAP2 POP PUSH2 0x1BFB DUP4 PUSH2 0x121A JUMP JUMPDEST SWAP3 POP DUP2 PUSH32 0xFFFFFFFFFFFFFFFFFFFFFFFFFFFFFFFFFFFFFFFFFFFFFFFFFFFFFFFFFFFFFFFF DIV DUP4 GT DUP3 ISZERO ISZERO AND ISZERO PUSH2 0x1C34 JUMPI PUSH2 0x1C33 PUSH2 0x1B82 JUMP JUMPDEST JUMPDEST DUP3 DUP3 MUL SWAP1 POP SWAP3 SWAP2 POP POP JUMP JUMPDEST PUSH32 0x4E487B7100000000000000000000000000000000000000000000000000000000 PUSH1 0x0 MSTORE PUSH1 0x12 PUSH1 0x4 MSTORE PUSH1 0x24 PUSH1 0x0 REVERT JUMPDEST PUSH1 0x0 PUSH2 0x1C79 DUP3 PUSH2 0x121A JUMP JUMPDEST SWAP2 POP PUSH2 0x1C84 DUP4 PUSH2 0x121A JUMP JUMPDEST SWAP3 POP DUP3 PUSH2 0x1C94 JUMPI PUSH2 0x1C93 PUSH2 0x1C3F JUMP JUMPDEST JUMPDEST DUP3 DUP3 DIV SWAP1 POP SWAP3 SWAP2 POP POP JUMP JUMPDEST PUSH32 0x4E6F7420656E6F75676820626C616E636520746F20706C616365206269640000 PUSH1 0x0 DUP3 ADD MSTORE POP JUMP JUMPDEST PUSH1 0x0 PUSH2 0x1CD5 PUSH1 0x1E DUP4 PUSH2 0x150E JUMP JUMPDEST SWAP2 POP PUSH2 0x1CE0 DUP3 PUSH2 0x1C9F JUMP JUMPDEST PUSH1 0x20 DUP3 ADD SWAP1 POP SWAP2 SWAP1 POP JUMP JUMPDEST PUSH1 0x0 PUSH1 0x20 DUP3 ADD SWAP1 POP DUP2 DUP2 SUB PUSH1 0x0 DUP4 ADD MSTORE PUSH2 0x1D04 DUP2 PUSH2 0x1CC8 JUMP JUMPDEST SWAP1 POP SWAP2 SWAP1 POP JUMP JUMPDEST PUSH1 0x0 DUP2 SWAP1 POP SWAP2 SWAP1 POP JUMP JUMPDEST PUSH1 0x0 DUP2 SWAP1 POP SWAP2 SWAP1 POP JUMP JUMPDEST PUSH2 0x1D30 PUSH2 0x1D2B DUP3 PUSH2 0x1D0B JUMP JUMPDEST PUSH2 0x1D15 JUMP JUMPDEST DUP3 MSTORE POP POP JUMP JUMPDEST PUSH32 0x202C200000000000000000000000000000000000000000000000000000000000 DUP2 MSTORE POP JUMP JUMPDEST PUSH1 0x0 PUSH2 0x1D68 DUP3 DUP6 PUSH2 0x1D1F JUMP JUMPDEST PUSH1 0x20 DUP3 ADD SWAP2 POP PUSH2 0x1D77 DUP3 PUSH2 0x1D36 JUMP JUMPDEST PUSH1 0x3 DUP3 ADD SWAP2 POP PUSH2 0x1D87 DUP3 DUP5 PUSH2 0x1D1F JUMP JUMPDEST PUSH1 0x20 DUP3 ADD SWAP2 POP DUP2 SWAP1 POP SWAP4 SWAP3 POP POP POP JUMP JUMPDEST PUSH1 0x0 PUSH2 0x1DA2 DUP3 PUSH2 0x121A JUMP JUMPDEST SWAP2 POP PUSH32 0xFFFFFFFFFFFFFFFFFFFFFFFFFFFFFFFFFFFFFFFFFFFFFFFFFFFFFFFFFFFFFFFF DUP3 SUB PUSH2 0x1DD4 JUMPI PUSH2 0x1DD3 PUSH2 0x1B82 JUMP JUMPDEST JUMPDEST PUSH1 0x1 DUP3 ADD SWAP1 POP SWAP2 SWAP1 POP JUMP JUMPDEST PUSH1 0x0 PUSH2 0x1DEA DUP3 PUSH2 0x1603 JUMP JUMPDEST SWAP1 POP SWAP2 SWAP1 POP JUMP JUMPDEST PUSH2 0x1DFA DUP2 PUSH2 0x1DDF JUMP JUMPDEST DUP3 MSTORE POP POP JUMP JUMPDEST PUSH1 0x0 DUP2 SWAP1 POP SWAP2 SWAP1 POP JUMP JUMPDEST PUSH1 0x0 DUP2 SWAP1 POP SWAP2 SWAP1 POP JUMP JUMPDEST PUSH1 0x0 PUSH2 0x1E2F PUSH2 0x1E2A PUSH2 0x1E25 DUP5 PUSH2 0x1E00 JUMP JUMPDEST PUSH2 0x1E0A JUMP JUMPDEST PUSH2 0x121A JUMP JUMPDEST SWAP1 POP SWAP2 SWAP1 POP JUMP JUMPDEST PUSH2 0x1E3F DUP2 PUSH2 0x1E14 JUMP JUMPDEST DUP3 MSTORE POP POP JUMP JUMPDEST PUSH1 0x0 PUSH2 0x100 DUP3 ADD SWAP1 POP PUSH2 0x1E5B PUSH1 0x0 DUP4 ADD DUP12 PUSH2 0x1DF1 JUMP JUMPDEST PUSH2 0x1E68 PUSH1 0x20 DUP4 ADD DUP11 PUSH2 0x15AD JUMP JUMPDEST PUSH2 0x1E75 PUSH1 0x40 DUP4 ADD DUP10 PUSH2 0x15AD JUMP JUMPDEST PUSH2 0x1E82 PUSH1 0x60 DUP4 ADD DUP9 PUSH2 0x17EE JUMP JUMPDEST PUSH2 0x1E8F PUSH1 0x80 DUP4 ADD DUP8 PUSH2 0x15AD JUMP JUMPDEST PUSH2 0x1E9C PUSH1 0xA0 DUP4 ADD DUP7 PUSH2 0x1E36 JUMP JUMPDEST PUSH2 0x1EA9 PUSH1 0xC0 DUP4 ADD DUP6 PUSH2 0x1E36 JUMP JUMPDEST PUSH2 0x1EB6 PUSH1 0xE0 DUP4 ADD DUP5 PUSH2 0x188E JUMP JUMPDEST SWAP10 SWAP9 POP POP POP POP POP POP POP POP POP JUMP INVALID LOG2 PUSH5 0x6970667358 0x22 SLT KECCAK256 0x2C 0xA9 0x4D CALLVALUE 0xD5 0xC7 0xC4 SWAP5 0xD0 ORIGIN PUSH4 0x289B9CF5 0xDA 0x21 PUSH20 0xA471B5003490F839E29A1D24613464736F6C6343 STOP ADDMOD 0xD STOP CALLER "
				},
				"gasEstimates": {
					"creation": {
						"codeDepositCost": "1585800",
						"executionCost": "infinite",
						"totalCost": "infinite"
					},
					"external": {
						"appendString(uint256,uint256)": "infinite",
						"askCount()": "2540",
						"askHead()": "2474",
						"askTail()": "2561",
						"bidCount()": "2562",
						"bidHead()": "2518",
						"bidTail()": "2452",
						"cancelAsk(uint256)": "31089",
						"cancelBid(uint256)": "31110",
						"concatenate(string,string)": "infinite",
						"fetchAllBid()": "infinite",
						"fetchAsk()": "infinite",
						"fetchYourAskIds()": "infinite",
						"fetchYourBidIds()": "infinite",
						"getAskAddress(uint256)": "2982",
						"getAskState(uint256)": "2962",
						"getAskValue(uint256)": "infinite",
						"getBidAddress(uint256)": "2938",
						"getBidState(uint256)": "2939",
						"getBidValue(uint256)": "infinite",
						"getOrder(uint256)": "infinite",
						"placeAsk(uint256)": "infinite",
						"placeBid(uint256)": "809"
					},
					"internal": {
						"askBid(uint256,uint256)": "infinite",
						"createAsk(address,uint256,uint256)": "infinite",
						"createBid(address,uint256,uint256)": "infinite",
						"insertionSortAsk()": "infinite",
						"linkBid(uint256,uint256)": "infinite",
						"setAskHead(uint256)": "infinite",
						"setAskTail(uint256)": "infinite",
						"setBidHead(uint256)": "infinite",
						"setBidTail(uint256)": "infinite",
						"sortAsk(struct OrderBook.order memory)": "infinite"
					}
				},
				"methodIdentifiers": {
					"appendString(uint256,uint256)": "c12bcf49",
					"askCount()": "a394fda7",
					"askHead()": "801d9bbd",
					"askTail()": "ecdfb860",
					"bidCount()": "b40a5627",
					"bidHead()": "6e5b0f00",
					"bidTail()": "7bb51193",
					"cancelAsk(uint256)": "1628e0f5",
					"cancelBid(uint256)": "9703ef35",
					"concatenate(string,string)": "266001d3",
					"fetchAllBid()": "4471417f",
					"fetchAsk()": "44e791e0",
					"fetchYourAskIds()": "122de8f2",
					"fetchYourBidIds()": "ce0cdc87",
					"getAskAddress(uint256)": "734a2e78",
					"getAskState(uint256)": "4d46712d",
					"getAskValue(uint256)": "db3a1396",
					"getBidAddress(uint256)": "69f632e2",
					"getBidState(uint256)": "bf77ffae",
					"getBidValue(uint256)": "2db6dfa7",
					"getOrder(uint256)": "d09ef241",
					"placeAsk(uint256)": "78c5b268",
					"placeBid(uint256)": "9979ef45"
				}
			},
			"storageLayout": {
				"storage": [
					{
						"astId": 8,
						"contract": "contracts/OrderBook.sol:OrderBook",
						"label": "bidValues",
						"offset": 0,
						"slot": "0",
						"type": "t_mapping(t_uint256,t_uint256)"
					},
					{
						"astId": 15,
						"contract": "contracts/OrderBook.sol:OrderBook",
						"label": "_owner",
						"offset": 0,
						"slot": "1",
						"type": "t_address_payable"
					},
					{
						"astId": 17,
						"contract": "contracts/OrderBook.sol:OrderBook",
						"label": "commission",
						"offset": 0,
						"slot": "2",
						"type": "t_uint256"
					},
					{
						"astId": 38,
						"contract": "contracts/OrderBook.sol:OrderBook",
						"label": "bidBook",
						"offset": 0,
						"slot": "3",
						"type": "t_mapping(t_uint256,t_struct(order)33_storage)"
					},
					{
						"astId": 40,
						"contract": "contracts/OrderBook.sol:OrderBook",
						"label": "bidHead",
						"offset": 0,
						"slot": "4",
						"type": "t_uint256"
					},
					{
						"astId": 42,
						"contract": "contracts/OrderBook.sol:OrderBook",
						"label": "bidTail",
						"offset": 0,
						"slot": "5",
						"type": "t_uint256"
					},
					{
						"astId": 44,
						"contract": "contracts/OrderBook.sol:OrderBook",
						"label": "bidCount",
						"offset": 0,
						"slot": "6",
						"type": "t_uint256"
					},
					{
						"astId": 49,
						"contract": "contracts/OrderBook.sol:OrderBook",
						"label": "askBook",
						"offset": 0,
						"slot": "7",
						"type": "t_mapping(t_uint256,t_struct(order)33_storage)"
					},
					{
						"astId": 51,
						"contract": "contracts/OrderBook.sol:OrderBook",
						"label": "askHead",
						"offset": 0,
						"slot": "8",
						"type": "t_uint256"
					},
					{
						"astId": 53,
						"contract": "contracts/OrderBook.sol:OrderBook",
						"label": "askTail",
						"offset": 0,
						"slot": "9",
						"type": "t_uint256"
					},
					{
						"astId": 55,
						"contract": "contracts/OrderBook.sol:OrderBook",
						"label": "askCount",
						"offset": 0,
						"slot": "10",
						"type": "t_uint256"
					}
				],
				"types": {
					"t_address_payable": {
						"encoding": "inplace",
						"label": "address payable",
						"numberOfBytes": "20"
					},
					"t_enum(State)4": {
						"encoding": "inplace",
						"label": "enum OrderBook.State",
						"numberOfBytes": "1"
					},
					"t_mapping(t_uint256,t_struct(order)33_storage)": {
						"encoding": "mapping",
						"key": "t_uint256",
						"label": "mapping(uint256 => struct OrderBook.order)",
						"numberOfBytes": "32",
						"value": "t_struct(order)33_storage"
					},
					"t_mapping(t_uint256,t_uint256)": {
						"encoding": "mapping",
						"key": "t_uint256",
						"label": "mapping(uint256 => uint256)",
						"numberOfBytes": "32",
						"value": "t_uint256"
					},
					"t_struct(order)33_storage": {
						"encoding": "inplace",
						"label": "struct OrderBook.order",
						"members": [
							{
								"astId": 19,
								"contract": "contracts/OrderBook.sol:OrderBook",
								"label": "customer",
								"offset": 0,
								"slot": "0",
								"type": "t_address_payable"
							},
							{
								"astId": 21,
								"contract": "contracts/OrderBook.sol:OrderBook",
								"label": "value",
								"offset": 0,
								"slot": "1",
								"type": "t_uint256"
							},
							{
								"astId": 23,
								"contract": "contracts/OrderBook.sol:OrderBook",
								"label": "timestamp",
								"offset": 0,
								"slot": "2",
								"type": "t_uint256"
							},
							{
								"astId": 26,
								"contract": "contracts/OrderBook.sol:OrderBook",
								"label": "state",
								"offset": 0,
								"slot": "3",
								"type": "t_enum(State)4"
							},
							{
								"astId": 28,
								"contract": "contracts/OrderBook.sol:OrderBook",
								"label": "id",
								"offset": 0,
								"slot": "4",
								"type": "t_uint256"
							},
							{
								"astId": 30,
								"contract": "contracts/OrderBook.sol:OrderBook",
								"label": "next",
								"offset": 0,
								"slot": "5",
								"type": "t_uint256"
							},
							{
								"astId": 32,
								"contract": "contracts/OrderBook.sol:OrderBook",
								"label": "prev",
								"offset": 0,
								"slot": "6",
								"type": "t_uint256"
							}
						],
						"numberOfBytes": "224"
					},
					"t_uint256": {
						"encoding": "inplace",
						"label": "uint256",
						"numberOfBytes": "32"
					}
				}
			},
			"userdoc": {
				"kind": "user",
				"methods": {},
				"version": 1
			}
		}
	}
}