{
	"contracts/OrderBook.sol": {
		"OrderBook": {
			"abi": [
				{
					"inputs": [
						{
							"internalType": "uint256",
							"name": "_commission",
							"type": "uint256"
						}
					],
					"stateMutability": "nonpayable",
					"type": "constructor"
				},
				{
					"anonymous": false,
					"inputs": [
						{
							"indexed": false,
							"internalType": "uint256",
							"name": "",
							"type": "uint256"
						},
						{
							"indexed": false,
							"internalType": "uint256",
							"name": "",
							"type": "uint256"
						}
					],
					"name": "askLink",
					"type": "event"
				},
				{
					"anonymous": false,
					"inputs": [
						{
							"indexed": false,
							"internalType": "uint256",
							"name": "",
							"type": "uint256"
						},
						{
							"indexed": false,
							"internalType": "uint256",
							"name": "",
							"type": "uint256"
						}
					],
					"name": "bidLink",
					"type": "event"
				},
				{
					"anonymous": false,
					"inputs": [
						{
							"indexed": false,
							"internalType": "uint256",
							"name": "",
							"type": "uint256"
						}
					],
					"name": "newHead",
					"type": "event"
				},
				{
					"anonymous": false,
					"inputs": [
						{
							"indexed": false,
							"internalType": "uint256",
							"name": "",
							"type": "uint256"
						}
					],
					"name": "newTail",
					"type": "event"
				},
				{
					"anonymous": false,
					"inputs": [
						{
							"indexed": false,
							"internalType": "address",
							"name": "",
							"type": "address"
						},
						{
							"indexed": false,
							"internalType": "uint256",
							"name": "",
							"type": "uint256"
						},
						{
							"indexed": false,
							"internalType": "uint256",
							"name": "",
							"type": "uint256"
						},
						{
							"indexed": false,
							"internalType": "enum OrderBook.State",
							"name": "",
							"type": "uint8"
						},
						{
							"indexed": false,
							"internalType": "uint256",
							"name": "",
							"type": "uint256"
						},
						{
							"indexed": false,
							"internalType": "uint256",
							"name": "",
							"type": "uint256"
						},
						{
							"indexed": false,
							"internalType": "uint256",
							"name": "",
							"type": "uint256"
						},
						{
							"indexed": false,
							"internalType": "bool",
							"name": "",
							"type": "bool"
						}
					],
					"name": "orderCreated",
					"type": "event"
				},
				{
					"inputs": [
						{
							"internalType": "uint256",
							"name": "a",
							"type": "uint256"
						},
						{
							"internalType": "uint256",
							"name": "b",
							"type": "uint256"
						}
					],
					"name": "appendString",
					"outputs": [
						{
							"internalType": "string",
							"name": "",
							"type": "string"
						}
					],
					"stateMutability": "pure",
					"type": "function"
				},
				{
					"inputs": [],
					"name": "askCount",
					"outputs": [
						{
							"internalType": "uint256",
							"name": "",
							"type": "uint256"
						}
					],
					"stateMutability": "view",
					"type": "function"
				},
				{
					"inputs": [],
					"name": "askHead",
					"outputs": [
						{
							"internalType": "uint256",
							"name": "",
							"type": "uint256"
						}
					],
					"stateMutability": "view",
					"type": "function"
				},
				{
					"inputs": [],
					"name": "askTail",
					"outputs": [
						{
							"internalType": "uint256",
							"name": "",
							"type": "uint256"
						}
					],
					"stateMutability": "view",
					"type": "function"
				},
				{
					"inputs": [],
					"name": "bidCount",
					"outputs": [
						{
							"internalType": "uint256",
							"name": "",
							"type": "uint256"
						}
					],
					"stateMutability": "view",
					"type": "function"
				},
				{
					"inputs": [],
					"name": "bidHead",
					"outputs": [
						{
							"internalType": "uint256",
							"name": "",
							"type": "uint256"
						}
					],
					"stateMutability": "view",
					"type": "function"
				},
				{
					"inputs": [],
					"name": "bidTail",
					"outputs": [
						{
							"internalType": "uint256",
							"name": "",
							"type": "uint256"
						}
					],
					"stateMutability": "view",
					"type": "function"
				},
				{
					"inputs": [
						{
							"internalType": "uint256",
							"name": "askId",
							"type": "uint256"
						}
					],
					"name": "cancelAsk",
					"outputs": [],
					"stateMutability": "nonpayable",
					"type": "function"
				},
				{
					"inputs": [
						{
							"internalType": "uint256",
							"name": "bidId",
							"type": "uint256"
						}
					],
					"name": "cancelBid",
					"outputs": [],
					"stateMutability": "nonpayable",
					"type": "function"
				},
				{
					"inputs": [],
					"name": "fetchAllBid",
					"outputs": [
						{
							"components": [
								{
									"internalType": "address payable",
									"name": "customer",
									"type": "address"
								},
								{
									"internalType": "uint256",
									"name": "value",
									"type": "uint256"
								},
								{
									"internalType": "uint256",
									"name": "timestamp",
									"type": "uint256"
								},
								{
									"internalType": "enum OrderBook.State",
									"name": "state",
									"type": "uint8"
								},
								{
									"internalType": "uint256",
									"name": "id",
									"type": "uint256"
								},
								{
									"internalType": "uint256",
									"name": "next",
									"type": "uint256"
								},
								{
									"internalType": "uint256",
									"name": "prev",
									"type": "uint256"
								}
							],
							"internalType": "struct OrderBook.order[]",
							"name": "",
							"type": "tuple[]"
						}
					],
					"stateMutability": "nonpayable",
					"type": "function"
				},
				{
					"inputs": [],
					"name": "fetchAsk",
					"outputs": [
						{
							"internalType": "string",
							"name": "",
							"type": "string"
						}
					],
					"stateMutability": "view",
					"type": "function"
				},
				{
					"inputs": [],
					"name": "fetchYourAskIds",
					"outputs": [
						{
							"internalType": "uint256[]",
							"name": "",
							"type": "uint256[]"
						}
					],
					"stateMutability": "nonpayable",
					"type": "function"
				},
				{
					"inputs": [],
					"name": "fetchYourBidIds",
					"outputs": [
						{
							"internalType": "uint256[]",
							"name": "",
							"type": "uint256[]"
						}
					],
					"stateMutability": "nonpayable",
					"type": "function"
				},
				{
					"inputs": [
						{
							"internalType": "uint256",
							"name": "id",
							"type": "uint256"
						}
					],
					"name": "getAskAddress",
					"outputs": [
						{
							"internalType": "address payable",
							"name": "",
							"type": "address"
						}
					],
					"stateMutability": "view",
					"type": "function"
				},
				{
					"inputs": [
						{
							"internalType": "uint256",
							"name": "id",
							"type": "uint256"
						}
					],
					"name": "getAskState",
					"outputs": [
						{
							"internalType": "enum OrderBook.State",
							"name": "",
							"type": "uint8"
						}
					],
					"stateMutability": "view",
					"type": "function"
				},
				{
					"inputs": [
						{
							"internalType": "uint256",
							"name": "id",
							"type": "uint256"
						}
					],
					"name": "getAskValue",
					"outputs": [
						{
							"internalType": "uint256",
							"name": "",
							"type": "uint256"
						}
					],
					"stateMutability": "view",
					"type": "function"
				},
				{
					"inputs": [
						{
							"internalType": "uint256",
							"name": "id",
							"type": "uint256"
						}
					],
					"name": "getBidAddress",
					"outputs": [
						{
							"internalType": "address payable",
							"name": "",
							"type": "address"
						}
					],
					"stateMutability": "view",
					"type": "function"
				},
				{
					"inputs": [
						{
							"internalType": "uint256",
							"name": "id",
							"type": "uint256"
						}
					],
					"name": "getBidState",
					"outputs": [
						{
							"internalType": "enum OrderBook.State",
							"name": "",
							"type": "uint8"
						}
					],
					"stateMutability": "view",
					"type": "function"
				},
				{
					"inputs": [
						{
							"internalType": "uint256",
							"name": "id",
							"type": "uint256"
						}
					],
					"name": "getBidValue",
					"outputs": [
						{
							"internalType": "uint256",
							"name": "",
							"type": "uint256"
						}
					],
					"stateMutability": "view",
					"type": "function"
				},
				{
					"inputs": [
						{
							"internalType": "uint256",
							"name": "id",
							"type": "uint256"
						}
					],
					"name": "getOrder",
					"outputs": [
						{
							"internalType": "address payable",
							"name": "",
							"type": "address"
						},
						{
							"internalType": "uint256",
							"name": "",
							"type": "uint256"
						},
						{
							"internalType": "uint256",
							"name": "",
							"type": "uint256"
						},
						{
							"internalType": "enum OrderBook.State",
							"name": "",
							"type": "uint8"
						},
						{
							"internalType": "uint256",
							"name": "",
							"type": "uint256"
						},
						{
							"internalType": "uint256",
							"name": "",
							"type": "uint256"
						},
						{
							"internalType": "uint256",
							"name": "",
							"type": "uint256"
						},
						{
							"internalType": "bool",
							"name": "",
							"type": "bool"
						}
					],
					"stateMutability": "view",
					"type": "function"
				},
				{
					"inputs": [
						{
							"internalType": "uint256",
							"name": "price",
							"type": "uint256"
						}
					],
					"name": "placeAsk",
					"outputs": [],
					"stateMutability": "payable",
					"type": "function"
				},
				{
					"inputs": [
						{
							"internalType": "uint256",
							"name": "price",
							"type": "uint256"
						}
					],
					"name": "placeBid",
					"outputs": [],
					"stateMutability": "payable",
					"type": "function"
				}
			],
			"devdoc": {
				"kind": "dev",
				"methods": {},
				"version": 1
			},
			"evm": {
				"assembly": "    /* \"contracts/OrderBook.sol\":1130:8987  contract OrderBook {... */\n  mstore(0x40, 0x80)\n    /* \"contracts/OrderBook.sol\":1333:1343  msg.sender */\n  caller\n    /* \"contracts/OrderBook.sol\":1300:1344  address payable _owner = payable(msg.sender) */\n  0x01\n  exp(0x0100, 0x00)\n  dup2\n  sload\n  dup2\n  0xffffffffffffffffffffffffffffffffffffffff\n  mul\n  not\n  and\n  swap1\n  dup4\n  0xffffffffffffffffffffffffffffffffffffffff\n  and\n  mul\n  or\n  swap1\n  sstore\n  pop\n    /* \"contracts/OrderBook.sol\":2323:2526  constructor (uint256 _commission) {... */\n  callvalue\n  dup1\n  iszero\n  tag_1\n  jumpi\n  0x00\n  dup1\n  revert\ntag_1:\n  pop\n  mload(0x40)\n  sub(codesize, bytecodeSize)\n  dup1\n  bytecodeSize\n  dup4\n  codecopy\n  dup2\n  dup2\n  add\n  0x40\n  mstore\n  dup2\n  add\n  swap1\n  tag_2\n  swap2\n  swap1\n  tag_3\n  jump\t// in\ntag_2:\n    /* \"contracts/OrderBook.sol\":2380:2391  _commission */\n  dup1\n    /* \"contracts/OrderBook.sol\":2367:2377  commission */\n  0x02\n    /* \"contracts/OrderBook.sol\":2367:2391  commission = _commission */\n  dup2\n  swap1\n  sstore\n  pop\n    /* \"contracts/OrderBook.sol\":2411:2412  0 */\n  0x00\n    /* \"contracts/OrderBook.sol\":2401:2408  bidHead */\n  0x04\n    /* \"contracts/OrderBook.sol\":2401:2412  bidHead = 0 */\n  dup2\n  swap1\n  sstore\n  pop\n    /* \"contracts/OrderBook.sol\":2432:2433  0 */\n  0x00\n    /* \"contracts/OrderBook.sol\":2422:2429  bidTail */\n  0x05\n    /* \"contracts/OrderBook.sol\":2422:2433  bidTail = 0 */\n  dup2\n  swap1\n  sstore\n  pop\n    /* \"contracts/OrderBook.sol\":2454:2455  0 */\n  0x00\n    /* \"contracts/OrderBook.sol\":2443:2451  bidCount */\n  0x06\n    /* \"contracts/OrderBook.sol\":2443:2455  bidCount = 0 */\n  dup2\n  swap1\n  sstore\n  pop\n    /* \"contracts/OrderBook.sol\":2475:2476  0 */\n  0x00\n    /* \"contracts/OrderBook.sol\":2465:2472  askHead */\n  0x08\n    /* \"contracts/OrderBook.sol\":2465:2476  askHead = 0 */\n  dup2\n  swap1\n  sstore\n  pop\n    /* \"contracts/OrderBook.sol\":2496:2497  0 */\n  0x00\n    /* \"contracts/OrderBook.sol\":2486:2493  askTail */\n  0x09\n    /* \"contracts/OrderBook.sol\":2486:2497  askTail = 0 */\n  dup2\n  swap1\n  sstore\n  pop\n    /* \"contracts/OrderBook.sol\":2518:2519  0 */\n  0x00\n    /* \"contracts/OrderBook.sol\":2507:2515  askCount */\n  0x0a\n    /* \"contracts/OrderBook.sol\":2507:2519  askCount = 0 */\n  dup2\n  swap1\n  sstore\n  pop\n    /* \"contracts/OrderBook.sol\":2323:2526  constructor (uint256 _commission) {... */\n  pop\n    /* \"contracts/OrderBook.sol\":1130:8987  contract OrderBook {... */\n  jump(tag_6)\n    /* \"#utility.yul\":88:205   */\ntag_8:\n    /* \"#utility.yul\":197:198   */\n  0x00\n    /* \"#utility.yul\":194:195   */\n  dup1\n    /* \"#utility.yul\":187:199   */\n  revert\n    /* \"#utility.yul\":334:411   */\ntag_10:\n    /* \"#utility.yul\":371:378   */\n  0x00\n    /* \"#utility.yul\":400:405   */\n  dup2\n    /* \"#utility.yul\":389:405   */\n  swap1\n  pop\n    /* \"#utility.yul\":334:411   */\n  swap2\n  swap1\n  pop\n  jump\t// out\n    /* \"#utility.yul\":417:539   */\ntag_11:\n    /* \"#utility.yul\":490:514   */\n  tag_19\n    /* \"#utility.yul\":508:513   */\n  dup2\n    /* \"#utility.yul\":490:514   */\n  tag_10\n  jump\t// in\ntag_19:\n    /* \"#utility.yul\":483:488   */\n  dup2\n    /* \"#utility.yul\":480:515   */\n  eq\n    /* \"#utility.yul\":470:533   */\n  tag_20\n  jumpi\n    /* \"#utility.yul\":529:530   */\n  0x00\n    /* \"#utility.yul\":526:527   */\n  dup1\n    /* \"#utility.yul\":519:531   */\n  revert\n    /* \"#utility.yul\":470:533   */\ntag_20:\n    /* \"#utility.yul\":417:539   */\n  pop\n  jump\t// out\n    /* \"#utility.yul\":545:688   */\ntag_12:\n    /* \"#utility.yul\":602:607   */\n  0x00\n    /* \"#utility.yul\":633:639   */\n  dup2\n    /* \"#utility.yul\":627:640   */\n  mload\n    /* \"#utility.yul\":618:640   */\n  swap1\n  pop\n    /* \"#utility.yul\":649:682   */\n  tag_22\n    /* \"#utility.yul\":676:681   */\n  dup2\n    /* \"#utility.yul\":649:682   */\n  tag_11\n  jump\t// in\ntag_22:\n    /* \"#utility.yul\":545:688   */\n  swap3\n  swap2\n  pop\n  pop\n  jump\t// out\n    /* \"#utility.yul\":694:1045   */\ntag_3:\n    /* \"#utility.yul\":764:770   */\n  0x00\n    /* \"#utility.yul\":813:815   */\n  0x20\n    /* \"#utility.yul\":801:810   */\n  dup3\n    /* \"#utility.yul\":792:799   */\n  dup5\n    /* \"#utility.yul\":788:811   */\n  sub\n    /* \"#utility.yul\":784:816   */\n  slt\n    /* \"#utility.yul\":781:900   */\n  iszero\n  tag_24\n  jumpi\n    /* \"#utility.yul\":819:898   */\n  tag_25\n  tag_8\n  jump\t// in\ntag_25:\n    /* \"#utility.yul\":781:900   */\ntag_24:\n    /* \"#utility.yul\":939:940   */\n  0x00\n    /* \"#utility.yul\":964:1028   */\n  tag_26\n    /* \"#utility.yul\":1020:1027   */\n  dup5\n    /* \"#utility.yul\":1011:1017   */\n  dup3\n    /* \"#utility.yul\":1000:1009   */\n  dup6\n    /* \"#utility.yul\":996:1018   */\n  add\n    /* \"#utility.yul\":964:1028   */\n  tag_12\n  jump\t// in\ntag_26:\n    /* \"#utility.yul\":954:1028   */\n  swap2\n  pop\n    /* \"#utility.yul\":910:1038   */\n  pop\n    /* \"#utility.yul\":694:1045   */\n  swap3\n  swap2\n  pop\n  pop\n  jump\t// out\n    /* \"contracts/OrderBook.sol\":1130:8987  contract OrderBook {... */\ntag_6:\n  dataSize(sub_0)\n  dup1\n  dataOffset(sub_0)\n  0x00\n  codecopy\n  0x00\n  return\nstop\n\nsub_0: assembly {\n        /* \"contracts/OrderBook.sol\":1130:8987  contract OrderBook {... */\n      mstore(0x40, 0x80)\n      jumpi(tag_1, lt(calldatasize, 0x04))\n      shr(0xe0, calldataload(0x00))\n      dup1\n      0x801d9bbd\n      gt\n      tag_24\n      jumpi\n      dup1\n      0xbf77ffae\n      gt\n      tag_25\n      jumpi\n      dup1\n      0xbf77ffae\n      eq\n      tag_18\n      jumpi\n      dup1\n      0xc12bcf49\n      eq\n      tag_19\n      jumpi\n      dup1\n      0xce0cdc87\n      eq\n      tag_20\n      jumpi\n      dup1\n      0xd09ef241\n      eq\n      tag_21\n      jumpi\n      dup1\n      0xdb3a1396\n      eq\n      tag_22\n      jumpi\n      dup1\n      0xecdfb860\n      eq\n      tag_23\n      jumpi\n      jump(tag_1)\n    tag_25:\n      dup1\n      0x801d9bbd\n      eq\n      tag_13\n      jumpi\n      dup1\n      0x9703ef35\n      eq\n      tag_14\n      jumpi\n      dup1\n      0x9979ef45\n      eq\n      tag_15\n      jumpi\n      dup1\n      0xa394fda7\n      eq\n      tag_16\n      jumpi\n      dup1\n      0xb40a5627\n      eq\n      tag_17\n      jumpi\n      jump(tag_1)\n    tag_24:\n      dup1\n      0x4d46712d\n      gt\n      tag_26\n      jumpi\n      dup1\n      0x4d46712d\n      eq\n      tag_7\n      jumpi\n      dup1\n      0x69f632e2\n      eq\n      tag_8\n      jumpi\n      dup1\n      0x6e5b0f00\n      eq\n      tag_9\n      jumpi\n      dup1\n      0x734a2e78\n      eq\n      tag_10\n      jumpi\n      dup1\n      0x78c5b268\n      eq\n      tag_11\n      jumpi\n      dup1\n      0x7bb51193\n      eq\n      tag_12\n      jumpi\n      jump(tag_1)\n    tag_26:\n      dup1\n      0x122de8f2\n      eq\n      tag_2\n      jumpi\n      dup1\n      0x1628e0f5\n      eq\n      tag_3\n      jumpi\n      dup1\n      0x2db6dfa7\n      eq\n      tag_4\n      jumpi\n      dup1\n      0x4471417f\n      eq\n      tag_5\n      jumpi\n      dup1\n      0x44e791e0\n      eq\n      tag_6\n      jumpi\n    tag_1:\n      0x00\n      dup1\n      revert\n        /* \"contracts/OrderBook.sol\":7904:7972  function fetchYourAskIds() public returns (uint256[] memory) {... */\n    tag_2:\n      callvalue\n      dup1\n      iszero\n      tag_27\n      jumpi\n      0x00\n      dup1\n      revert\n    tag_27:\n      pop\n      tag_28\n      tag_29\n      jump\t// in\n    tag_28:\n      mload(0x40)\n      tag_30\n      swap2\n      swap1\n      tag_31\n      jump\t// in\n    tag_30:\n      mload(0x40)\n      dup1\n      swap2\n      sub\n      swap1\n      return\n        /* \"contracts/OrderBook.sol\":7200:7492  function cancelAsk (uint256 askId) public isPending(askBook[askId]) isAuthorised(askBook[askId], msg.sender) {... */\n    tag_3:\n      callvalue\n      dup1\n      iszero\n      tag_32\n      jumpi\n      0x00\n      dup1\n      revert\n    tag_32:\n      pop\n      tag_33\n      0x04\n      dup1\n      calldatasize\n      sub\n      dup2\n      add\n      swap1\n      tag_34\n      swap2\n      swap1\n      tag_35\n      jump\t// in\n    tag_34:\n      tag_36\n      jump\t// in\n    tag_33:\n      stop\n        /* \"contracts/OrderBook.sol\":8554:8658  function getBidValue (uint256 id) public view returns(uint256) {... */\n    tag_4:\n      callvalue\n      dup1\n      iszero\n      tag_37\n      jumpi\n      0x00\n      dup1\n      revert\n    tag_37:\n      pop\n      tag_38\n      0x04\n      dup1\n      calldatasize\n      sub\n      dup2\n      add\n      swap1\n      tag_39\n      swap2\n      swap1\n      tag_35\n      jump\t// in\n    tag_39:\n      tag_40\n      jump\t// in\n    tag_38:\n      mload(0x40)\n      tag_41\n      swap2\n      swap1\n      tag_42\n      jump\t// in\n    tag_41:\n      mload(0x40)\n      dup1\n      swap2\n      sub\n      swap1\n      return\n        /* \"contracts/OrderBook.sol\":7761:7823  function fetchAllBid() public returns (order[] memory) {... */\n    tag_5:\n      callvalue\n      dup1\n      iszero\n      tag_43\n      jumpi\n      0x00\n      dup1\n      revert\n    tag_43:\n      pop\n      tag_44\n      tag_45\n      jump\t// in\n    tag_44:\n      mload(0x40)\n      tag_46\n      swap2\n      swap1\n      tag_47\n      jump\t// in\n    tag_46:\n      mload(0x40)\n      dup1\n      swap2\n      sub\n      swap1\n      return\n        /* \"contracts/OrderBook.sol\":7526:7755  function fetchAsk() public view returns (string memory) {... */\n    tag_6:\n      callvalue\n      dup1\n      iszero\n      tag_48\n      jumpi\n      0x00\n      dup1\n      revert\n    tag_48:\n      pop\n      tag_49\n      tag_50\n      jump\t// in\n    tag_49:\n      mload(0x40)\n      tag_51\n      swap2\n      swap1\n      tag_52\n      jump\t// in\n    tag_51:\n      mload(0x40)\n      dup1\n      swap2\n      sub\n      swap1\n      return\n        /* \"contracts/OrderBook.sol\":8882:8984  function getAskState (uint256 id) public view returns(State) {... */\n    tag_7:\n      callvalue\n      dup1\n      iszero\n      tag_53\n      jumpi\n      0x00\n      dup1\n      revert\n    tag_53:\n      pop\n      tag_54\n      0x04\n      dup1\n      calldatasize\n      sub\n      dup2\n      add\n      swap1\n      tag_55\n      swap2\n      swap1\n      tag_35\n      jump\t// in\n    tag_55:\n      tag_56\n      jump\t// in\n    tag_54:\n      mload(0x40)\n      tag_57\n      swap2\n      swap1\n      tag_58\n      jump\t// in\n    tag_57:\n      mload(0x40)\n      dup1\n      swap2\n      sub\n      swap1\n      return\n        /* \"contracts/OrderBook.sol\":8308:8425  function getBidAddress (uint256 id) public view returns(address payable) {... */\n    tag_8:\n      callvalue\n      dup1\n      iszero\n      tag_59\n      jumpi\n      0x00\n      dup1\n      revert\n    tag_59:\n      pop\n      tag_60\n      0x04\n      dup1\n      calldatasize\n      sub\n      dup2\n      add\n      swap1\n      tag_61\n      swap2\n      swap1\n      tag_35\n      jump\t// in\n    tag_61:\n      tag_62\n      jump\t// in\n    tag_60:\n      mload(0x40)\n      tag_63\n      swap2\n      swap1\n      tag_64\n      jump\t// in\n    tag_63:\n      mload(0x40)\n      dup1\n      swap2\n      sub\n      swap1\n      return\n        /* \"contracts/OrderBook.sol\":1797:1819  uint256 public bidHead */\n    tag_9:\n      callvalue\n      dup1\n      iszero\n      tag_65\n      jumpi\n      0x00\n      dup1\n      revert\n    tag_65:\n      pop\n      tag_66\n      tag_67\n      jump\t// in\n    tag_66:\n      mload(0x40)\n      tag_68\n      swap2\n      swap1\n      tag_42\n      jump\t// in\n    tag_68:\n      mload(0x40)\n      dup1\n      swap2\n      sub\n      swap1\n      return\n        /* \"contracts/OrderBook.sol\":8431:8548  function getAskAddress (uint256 id) public view returns(address payable) {... */\n    tag_10:\n      callvalue\n      dup1\n      iszero\n      tag_69\n      jumpi\n      0x00\n      dup1\n      revert\n    tag_69:\n      pop\n      tag_70\n      0x04\n      dup1\n      calldatasize\n      sub\n      dup2\n      add\n      swap1\n      tag_71\n      swap2\n      swap1\n      tag_35\n      jump\t// in\n    tag_71:\n      tag_72\n      jump\t// in\n    tag_70:\n      mload(0x40)\n      tag_73\n      swap2\n      swap1\n      tag_64\n      jump\t// in\n    tag_73:\n      mload(0x40)\n      dup1\n      swap2\n      sub\n      swap1\n      return\n        /* \"contracts/OrderBook.sol\":6790:7194  function placeAsk (uint256 price) public payable {... */\n    tag_11:\n      tag_74\n      0x04\n      dup1\n      calldatasize\n      sub\n      dup2\n      add\n      swap1\n      tag_75\n      swap2\n      swap1\n      tag_35\n      jump\t// in\n    tag_75:\n      tag_76\n      jump\t// in\n    tag_74:\n      stop\n        /* \"contracts/OrderBook.sol\":1825:1847  uint256 public bidTail */\n    tag_12:\n      callvalue\n      dup1\n      iszero\n      tag_77\n      jumpi\n      0x00\n      dup1\n      revert\n    tag_77:\n      pop\n      tag_78\n      tag_79\n      jump\t// in\n    tag_78:\n      mload(0x40)\n      tag_80\n      swap2\n      swap1\n      tag_42\n      jump\t// in\n    tag_80:\n      mload(0x40)\n      dup1\n      swap2\n      sub\n      swap1\n      return\n        /* \"contracts/OrderBook.sol\":1970:1992  uint256 public askHead */\n    tag_13:\n      callvalue\n      dup1\n      iszero\n      tag_81\n      jumpi\n      0x00\n      dup1\n      revert\n    tag_81:\n      pop\n      tag_82\n      tag_83\n      jump\t// in\n    tag_82:\n      mload(0x40)\n      tag_84\n      swap2\n      swap1\n      tag_42\n      jump\t// in\n    tag_84:\n      mload(0x40)\n      dup1\n      swap2\n      sub\n      swap1\n      return\n        /* \"contracts/OrderBook.sol\":6527:6784  function cancelBid (uint256 bidId) public isPending(bidBook[bidId]) isAuthorised(bidBook[bidId], msg.sender) {... */\n    tag_14:\n      callvalue\n      dup1\n      iszero\n      tag_85\n      jumpi\n      0x00\n      dup1\n      revert\n    tag_85:\n      pop\n      tag_86\n      0x04\n      dup1\n      calldatasize\n      sub\n      dup2\n      add\n      swap1\n      tag_87\n      swap2\n      swap1\n      tag_35\n      jump\t// in\n    tag_87:\n      tag_88\n      jump\t// in\n    tag_86:\n      stop\n        /* \"contracts/OrderBook.sol\":5952:6521  function placeBid (uint256 price) public payable {... */\n    tag_15:\n      tag_89\n      0x04\n      dup1\n      calldatasize\n      sub\n      dup2\n      add\n      swap1\n      tag_90\n      swap2\n      swap1\n      tag_35\n      jump\t// in\n    tag_90:\n      tag_91\n      jump\t// in\n    tag_89:\n      stop\n        /* \"contracts/OrderBook.sol\":2026:2049  uint256 public askCount */\n    tag_16:\n      callvalue\n      dup1\n      iszero\n      tag_92\n      jumpi\n      0x00\n      dup1\n      revert\n    tag_92:\n      pop\n      tag_93\n      tag_94\n      jump\t// in\n    tag_93:\n      mload(0x40)\n      tag_95\n      swap2\n      swap1\n      tag_42\n      jump\t// in\n    tag_95:\n      mload(0x40)\n      dup1\n      swap2\n      sub\n      swap1\n      return\n        /* \"contracts/OrderBook.sol\":1853:1876  uint256 public bidCount */\n    tag_17:\n      callvalue\n      dup1\n      iszero\n      tag_96\n      jumpi\n      0x00\n      dup1\n      revert\n    tag_96:\n      pop\n      tag_97\n      tag_98\n      jump\t// in\n    tag_97:\n      mload(0x40)\n      tag_99\n      swap2\n      swap1\n      tag_42\n      jump\t// in\n    tag_99:\n      mload(0x40)\n      dup1\n      swap2\n      sub\n      swap1\n      return\n        /* \"contracts/OrderBook.sol\":8774:8876  function getBidState (uint256 id) public view returns(State) {... */\n    tag_18:\n      callvalue\n      dup1\n      iszero\n      tag_100\n      jumpi\n      0x00\n      dup1\n      revert\n    tag_100:\n      pop\n      tag_101\n      0x04\n      dup1\n      calldatasize\n      sub\n      dup2\n      add\n      swap1\n      tag_102\n      swap2\n      swap1\n      tag_35\n      jump\t// in\n    tag_102:\n      tag_103\n      jump\t// in\n    tag_101:\n      mload(0x40)\n      tag_104\n      swap2\n      swap1\n      tag_58\n      jump\t// in\n    tag_104:\n      mload(0x40)\n      dup1\n      swap2\n      sub\n      swap1\n      return\n        /* \"contracts/OrderBook.sol\":5758:5914  function appendString(uint256 a, uint256 b) public pure returns (string memory) {... */\n    tag_19:\n      callvalue\n      dup1\n      iszero\n      tag_105\n      jumpi\n      0x00\n      dup1\n      revert\n    tag_105:\n      pop\n      tag_106\n      0x04\n      dup1\n      calldatasize\n      sub\n      dup2\n      add\n      swap1\n      tag_107\n      swap2\n      swap1\n      tag_108\n      jump\t// in\n    tag_107:\n      tag_109\n      jump\t// in\n    tag_106:\n      mload(0x40)\n      tag_110\n      swap2\n      swap1\n      tag_52\n      jump\t// in\n    tag_110:\n      mload(0x40)\n      dup1\n      swap2\n      sub\n      swap1\n      return\n        /* \"contracts/OrderBook.sol\":7830:7898  function fetchYourBidIds() public returns (uint256[] memory) {... */\n    tag_20:\n      callvalue\n      dup1\n      iszero\n      tag_111\n      jumpi\n      0x00\n      dup1\n      revert\n    tag_111:\n      pop\n      tag_112\n      tag_113\n      jump\t// in\n    tag_112:\n      mload(0x40)\n      tag_114\n      swap2\n      swap1\n      tag_31\n      jump\t// in\n    tag_114:\n      mload(0x40)\n      dup1\n      swap2\n      sub\n      swap1\n      return\n        /* \"contracts/OrderBook.sol\":7978:8302  function getOrder(uint256 id) public view returns(address payable,uint256,uint256,State,uint256,uint256,uint256,bool) {... */\n    tag_21:\n      callvalue\n      dup1\n      iszero\n      tag_115\n      jumpi\n      0x00\n      dup1\n      revert\n    tag_115:\n      pop\n      tag_116\n      0x04\n      dup1\n      calldatasize\n      sub\n      dup2\n      add\n      swap1\n      tag_117\n      swap2\n      swap1\n      tag_35\n      jump\t// in\n    tag_117:\n      tag_118\n      jump\t// in\n    tag_116:\n      mload(0x40)\n      tag_119\n      swap9\n      swap8\n      swap7\n      swap6\n      swap5\n      swap4\n      swap3\n      swap2\n      swap1\n      tag_120\n      jump\t// in\n    tag_119:\n      mload(0x40)\n      dup1\n      swap2\n      sub\n      swap1\n      return\n        /* \"contracts/OrderBook.sol\":8664:8768  function getAskValue (uint256 id) public view returns(uint256) {... */\n    tag_22:\n      callvalue\n      dup1\n      iszero\n      tag_121\n      jumpi\n      0x00\n      dup1\n      revert\n    tag_121:\n      pop\n      tag_122\n      0x04\n      dup1\n      calldatasize\n      sub\n      dup2\n      add\n      swap1\n      tag_123\n      swap2\n      swap1\n      tag_35\n      jump\t// in\n    tag_123:\n      tag_124\n      jump\t// in\n    tag_122:\n      mload(0x40)\n      tag_125\n      swap2\n      swap1\n      tag_42\n      jump\t// in\n    tag_125:\n      mload(0x40)\n      dup1\n      swap2\n      sub\n      swap1\n      return\n        /* \"contracts/OrderBook.sol\":1998:2020  uint256 public askTail */\n    tag_23:\n      callvalue\n      dup1\n      iszero\n      tag_126\n      jumpi\n      0x00\n      dup1\n      revert\n    tag_126:\n      pop\n      tag_127\n      tag_128\n      jump\t// in\n    tag_127:\n      mload(0x40)\n      tag_129\n      swap2\n      swap1\n      tag_42\n      jump\t// in\n    tag_129:\n      mload(0x40)\n      dup1\n      swap2\n      sub\n      swap1\n      return\n        /* \"contracts/OrderBook.sol\":7904:7972  function fetchYourAskIds() public returns (uint256[] memory) {... */\n    tag_29:\n        /* \"contracts/OrderBook.sol\":7947:7963  uint256[] memory */\n      0x60\n        /* \"contracts/OrderBook.sol\":7904:7972  function fetchYourAskIds() public returns (uint256[] memory) {... */\n      swap1\n      jump\t// out\n        /* \"contracts/OrderBook.sol\":7200:7492  function cancelAsk (uint256 askId) public isPending(askBook[askId]) isAuthorised(askBook[askId], msg.sender) {... */\n    tag_36:\n        /* \"contracts/OrderBook.sol\":7252:7259  askBook */\n      0x07\n        /* \"contracts/OrderBook.sol\":7252:7266  askBook[askId] */\n      0x00\n        /* \"contracts/OrderBook.sol\":7260:7265  askId */\n      dup3\n        /* \"contracts/OrderBook.sol\":7252:7266  askBook[askId] */\n      dup2\n      mstore\n      0x20\n      add\n      swap1\n      dup2\n      mstore\n      0x20\n      add\n      0x00\n      keccak256\n        /* \"contracts/OrderBook.sol\":2565:2688  modifier isPending(order memory _order) {... */\n      mload(0x40)\n      dup1\n      0xe0\n      add\n      0x40\n      mstore\n      swap1\n      dup2\n      0x00\n      dup3\n      add\n      0x00\n      swap1\n      sload\n      swap1\n      0x0100\n      exp\n      swap1\n      div\n      0xffffffffffffffffffffffffffffffffffffffff\n      and\n      0xffffffffffffffffffffffffffffffffffffffff\n      and\n      0xffffffffffffffffffffffffffffffffffffffff\n      and\n      dup2\n      mstore\n      0x20\n      add\n      0x01\n      dup3\n      add\n      sload\n      dup2\n      mstore\n      0x20\n      add\n      0x02\n      dup3\n      add\n      sload\n      dup2\n      mstore\n      0x20\n      add\n      0x03\n      dup3\n      add\n      0x00\n      swap1\n      sload\n      swap1\n      0x0100\n      exp\n      swap1\n      div\n      0xff\n      and\n      0x01\n      dup2\n      gt\n      iszero\n      tag_131\n      jumpi\n      tag_132\n      tag_133\n      jump\t// in\n    tag_132:\n    tag_131:\n      0x01\n      dup2\n      gt\n      iszero\n      tag_134\n      jumpi\n      tag_135\n      tag_133\n      jump\t// in\n    tag_135:\n    tag_134:\n      dup2\n      mstore\n      0x20\n      add\n      0x04\n      dup3\n      add\n      sload\n      dup2\n      mstore\n      0x20\n      add\n      0x05\n      dup3\n      add\n      sload\n      dup2\n      mstore\n      0x20\n      add\n      0x06\n      dup3\n      add\n      sload\n      dup2\n      mstore\n      pop\n      pop\n        /* \"contracts/OrderBook.sol\":2639:2652  State.pending */\n      0x00\n        /* \"contracts/OrderBook.sol\":2623:2652  _order.state == State.pending */\n      0x01\n      dup2\n      gt\n      iszero\n      tag_137\n      jumpi\n      tag_138\n      tag_133\n      jump\t// in\n    tag_138:\n    tag_137:\n        /* \"contracts/OrderBook.sol\":2623:2629  _order */\n      dup2\n        /* \"contracts/OrderBook.sol\":2623:2635  _order.state */\n      0x60\n      add\n      mload\n        /* \"contracts/OrderBook.sol\":2623:2652  _order.state == State.pending */\n      0x01\n      dup2\n      gt\n      iszero\n      tag_139\n      jumpi\n      tag_140\n      tag_133\n      jump\t// in\n    tag_140:\n    tag_139:\n      eq\n        /* \"contracts/OrderBook.sol\":2615:2670  require(_order.state == State.pending, \"Order Pending\") */\n      tag_141\n      jumpi\n      mload(0x40)\n      0x08c379a000000000000000000000000000000000000000000000000000000000\n      dup2\n      mstore\n      0x04\n      add\n      tag_142\n      swap1\n      tag_143\n      jump\t// in\n    tag_142:\n      mload(0x40)\n      dup1\n      swap2\n      sub\n      swap1\n      revert\n    tag_141:\n        /* \"contracts/OrderBook.sol\":7281:7288  askBook */\n      0x07\n        /* \"contracts/OrderBook.sol\":7281:7295  askBook[askId] */\n      0x00\n        /* \"contracts/OrderBook.sol\":7289:7294  askId */\n      dup4\n        /* \"contracts/OrderBook.sol\":7281:7295  askBook[askId] */\n      dup2\n      mstore\n      0x20\n      add\n      swap1\n      dup2\n      mstore\n      0x20\n      add\n      0x00\n      keccak256\n        /* \"contracts/OrderBook.sol\":2694:2833  modifier isAuthorised(order memory _order, address sender) {... */\n      mload(0x40)\n      dup1\n      0xe0\n      add\n      0x40\n      mstore\n      swap1\n      dup2\n      0x00\n      dup3\n      add\n      0x00\n      swap1\n      sload\n      swap1\n      0x0100\n      exp\n      swap1\n      div\n      0xffffffffffffffffffffffffffffffffffffffff\n      and\n      0xffffffffffffffffffffffffffffffffffffffff\n      and\n      0xffffffffffffffffffffffffffffffffffffffff\n      and\n      dup2\n      mstore\n      0x20\n      add\n      0x01\n      dup3\n      add\n      sload\n      dup2\n      mstore\n      0x20\n      add\n      0x02\n      dup3\n      add\n      sload\n      dup2\n      mstore\n      0x20\n      add\n      0x03\n      dup3\n      add\n      0x00\n      swap1\n      sload\n      swap1\n      0x0100\n      exp\n      swap1\n      div\n      0xff\n      and\n      0x01\n      dup2\n      gt\n      iszero\n      tag_144\n      jumpi\n      tag_145\n      tag_133\n      jump\t// in\n    tag_145:\n    tag_144:\n      0x01\n      dup2\n      gt\n      iszero\n      tag_146\n      jumpi\n      tag_147\n      tag_133\n      jump\t// in\n    tag_147:\n    tag_146:\n      dup2\n      mstore\n      0x20\n      add\n      0x04\n      dup3\n      add\n      sload\n      dup2\n      mstore\n      0x20\n      add\n      0x05\n      dup3\n      add\n      sload\n      dup2\n      mstore\n      0x20\n      add\n      0x06\n      dup3\n      add\n      sload\n      dup2\n      mstore\n      pop\n      pop\n        /* \"contracts/OrderBook.sol\":7297:7307  msg.sender */\n      caller\n        /* \"contracts/OrderBook.sol\":2790:2796  sender */\n      dup1\n        /* \"contracts/OrderBook.sol\":2771:2796  _order.customer == sender */\n      0xffffffffffffffffffffffffffffffffffffffff\n      and\n        /* \"contracts/OrderBook.sol\":2771:2777  _order */\n      dup3\n        /* \"contracts/OrderBook.sol\":2771:2786  _order.customer */\n      0x00\n      add\n      mload\n        /* \"contracts/OrderBook.sol\":2771:2796  _order.customer == sender */\n      0xffffffffffffffffffffffffffffffffffffffff\n      and\n      eq\n        /* \"contracts/OrderBook.sol\":2763:2815  require(_order.customer == sender, \"Not Authorised\") */\n      tag_149\n      jumpi\n      mload(0x40)\n      0x08c379a000000000000000000000000000000000000000000000000000000000\n      dup2\n      mstore\n      0x04\n      add\n      tag_150\n      swap1\n      tag_151\n      jump\t// in\n    tag_150:\n      mload(0x40)\n      dup1\n      swap2\n      sub\n      swap1\n      revert\n    tag_149:\n        /* \"contracts/OrderBook.sol\":2680:2681  _ */\n      pop\n      pop\n        /* \"contracts/OrderBook.sol\":7200:7492  function cancelAsk (uint256 askId) public isPending(askBook[askId]) isAuthorised(askBook[askId], msg.sender) {... */\n      pop\n      pop\n      jump\t// out\n        /* \"contracts/OrderBook.sol\":8554:8658  function getBidValue (uint256 id) public view returns(uint256) {... */\n    tag_40:\n        /* \"contracts/OrderBook.sol\":8608:8615  uint256 */\n      0x00\n        /* \"contracts/OrderBook.sol\":8634:8641  bidBook */\n      0x03\n        /* \"contracts/OrderBook.sol\":8634:8645  bidBook[id] */\n      0x00\n        /* \"contracts/OrderBook.sol\":8642:8644  id */\n      dup4\n        /* \"contracts/OrderBook.sol\":8634:8645  bidBook[id] */\n      dup2\n      mstore\n      0x20\n      add\n      swap1\n      dup2\n      mstore\n      0x20\n      add\n      0x00\n      keccak256\n        /* \"contracts/OrderBook.sol\":8634:8651  bidBook[id].value */\n      0x01\n      add\n      sload\n        /* \"contracts/OrderBook.sol\":8627:8651  return bidBook[id].value */\n      swap1\n      pop\n        /* \"contracts/OrderBook.sol\":8554:8658  function getBidValue (uint256 id) public view returns(uint256) {... */\n      swap2\n      swap1\n      pop\n      jump\t// out\n        /* \"contracts/OrderBook.sol\":7761:7823  function fetchAllBid() public returns (order[] memory) {... */\n    tag_45:\n        /* \"contracts/OrderBook.sol\":7800:7814  order[] memory */\n      0x60\n        /* \"contracts/OrderBook.sol\":7761:7823  function fetchAllBid() public returns (order[] memory) {... */\n      swap1\n      jump\t// out\n        /* \"contracts/OrderBook.sol\":7526:7755  function fetchAsk() public view returns (string memory) {... */\n    tag_50:\n        /* \"contracts/OrderBook.sol\":7567:7580  string memory */\n      0x60\n        /* \"contracts/OrderBook.sol\":7592:7607  uint256 current */\n      0x00\n        /* \"contracts/OrderBook.sol\":7610:7617  askHead */\n      sload(0x08)\n        /* \"contracts/OrderBook.sol\":7592:7617  uint256 current = askHead */\n      swap1\n      pop\n        /* \"contracts/OrderBook.sol\":7627:7749  while (current != 0) {... */\n    tag_156:\n        /* \"contracts/OrderBook.sol\":7645:7646  0 */\n      0x00\n        /* \"contracts/OrderBook.sol\":7634:7641  current */\n      dup2\n        /* \"contracts/OrderBook.sol\":7634:7646  current != 0 */\n      eq\n        /* \"contracts/OrderBook.sol\":7627:7749  while (current != 0) {... */\n      tag_157\n      jumpi\n        /* \"contracts/OrderBook.sol\":7662:7674  uint256 next */\n      0x00\n        /* \"contracts/OrderBook.sol\":7677:7684  askBook */\n      0x07\n        /* \"contracts/OrderBook.sol\":7677:7693  askBook[current] */\n      0x00\n        /* \"contracts/OrderBook.sol\":7685:7692  current */\n      dup4\n        /* \"contracts/OrderBook.sol\":7677:7693  askBook[current] */\n      dup2\n      mstore\n      0x20\n      add\n      swap1\n      dup2\n      mstore\n      0x20\n      add\n      0x00\n      keccak256\n        /* \"contracts/OrderBook.sol\":7677:7698  askBook[current].next */\n      0x05\n      add\n      sload\n        /* \"contracts/OrderBook.sol\":7662:7698  uint256 next = askBook[current].next */\n      swap1\n      pop\n        /* \"contracts/OrderBook.sol\":7712:7738  appendString(current,next) */\n      tag_158\n        /* \"contracts/OrderBook.sol\":7725:7732  current */\n      dup3\n        /* \"contracts/OrderBook.sol\":7733:7737  next */\n      dup3\n        /* \"contracts/OrderBook.sol\":7712:7724  appendString */\n      tag_109\n        /* \"contracts/OrderBook.sol\":7712:7738  appendString(current,next) */\n      jump\t// in\n    tag_158:\n      pop\n        /* \"contracts/OrderBook.sol\":7648:7749  {... */\n      pop\n        /* \"contracts/OrderBook.sol\":7627:7749  while (current != 0) {... */\n      jump(tag_156)\n    tag_157:\n        /* \"contracts/OrderBook.sol\":7582:7755  {... */\n      pop\n        /* \"contracts/OrderBook.sol\":7526:7755  function fetchAsk() public view returns (string memory) {... */\n      swap1\n      jump\t// out\n        /* \"contracts/OrderBook.sol\":8882:8984  function getAskState (uint256 id) public view returns(State) {... */\n    tag_56:\n        /* \"contracts/OrderBook.sol\":8936:8941  State */\n      0x00\n        /* \"contracts/OrderBook.sol\":8960:8967  askBook */\n      0x07\n        /* \"contracts/OrderBook.sol\":8960:8971  askBook[id] */\n      0x00\n        /* \"contracts/OrderBook.sol\":8968:8970  id */\n      dup4\n        /* \"contracts/OrderBook.sol\":8960:8971  askBook[id] */\n      dup2\n      mstore\n      0x20\n      add\n      swap1\n      dup2\n      mstore\n      0x20\n      add\n      0x00\n      keccak256\n        /* \"contracts/OrderBook.sol\":8960:8977  askBook[id].state */\n      0x03\n      add\n      0x00\n      swap1\n      sload\n      swap1\n      0x0100\n      exp\n      swap1\n      div\n      0xff\n      and\n        /* \"contracts/OrderBook.sol\":8953:8977  return askBook[id].state */\n      swap1\n      pop\n        /* \"contracts/OrderBook.sol\":8882:8984  function getAskState (uint256 id) public view returns(State) {... */\n      swap2\n      swap1\n      pop\n      jump\t// out\n        /* \"contracts/OrderBook.sol\":8308:8425  function getBidAddress (uint256 id) public view returns(address payable) {... */\n    tag_62:\n        /* \"contracts/OrderBook.sol\":8364:8379  address payable */\n      0x00\n        /* \"contracts/OrderBook.sol\":8398:8405  bidBook */\n      0x03\n        /* \"contracts/OrderBook.sol\":8398:8409  bidBook[id] */\n      0x00\n        /* \"contracts/OrderBook.sol\":8406:8408  id */\n      dup4\n        /* \"contracts/OrderBook.sol\":8398:8409  bidBook[id] */\n      dup2\n      mstore\n      0x20\n      add\n      swap1\n      dup2\n      mstore\n      0x20\n      add\n      0x00\n      keccak256\n        /* \"contracts/OrderBook.sol\":8398:8418  bidBook[id].customer */\n      0x00\n      add\n      0x00\n      swap1\n      sload\n      swap1\n      0x0100\n      exp\n      swap1\n      div\n      0xffffffffffffffffffffffffffffffffffffffff\n      and\n        /* \"contracts/OrderBook.sol\":8391:8418  return bidBook[id].customer */\n      swap1\n      pop\n        /* \"contracts/OrderBook.sol\":8308:8425  function getBidAddress (uint256 id) public view returns(address payable) {... */\n      swap2\n      swap1\n      pop\n      jump\t// out\n        /* \"contracts/OrderBook.sol\":1797:1819  uint256 public bidHead */\n    tag_67:\n      sload(0x04)\n      dup2\n      jump\t// out\n        /* \"contracts/OrderBook.sol\":8431:8548  function getAskAddress (uint256 id) public view returns(address payable) {... */\n    tag_72:\n        /* \"contracts/OrderBook.sol\":8487:8502  address payable */\n      0x00\n        /* \"contracts/OrderBook.sol\":8521:8528  askBook */\n      0x07\n        /* \"contracts/OrderBook.sol\":8521:8532  askBook[id] */\n      0x00\n        /* \"contracts/OrderBook.sol\":8529:8531  id */\n      dup4\n        /* \"contracts/OrderBook.sol\":8521:8532  askBook[id] */\n      dup2\n      mstore\n      0x20\n      add\n      swap1\n      dup2\n      mstore\n      0x20\n      add\n      0x00\n      keccak256\n        /* \"contracts/OrderBook.sol\":8521:8541  askBook[id].customer */\n      0x00\n      add\n      0x00\n      swap1\n      sload\n      swap1\n      0x0100\n      exp\n      swap1\n      div\n      0xffffffffffffffffffffffffffffffffffffffff\n      and\n        /* \"contracts/OrderBook.sol\":8514:8541  return askBook[id].customer */\n      swap1\n      pop\n        /* \"contracts/OrderBook.sol\":8431:8548  function getAskAddress (uint256 id) public view returns(address payable) {... */\n      swap2\n      swap1\n      pop\n      jump\t// out\n        /* \"contracts/OrderBook.sol\":6790:7194  function placeAsk (uint256 price) public payable {... */\n    tag_76:\n        /* \"contracts/OrderBook.sol\":6866:6867  0 */\n      0x00\n        /* \"contracts/OrderBook.sol\":6857:6862  price */\n      dup2\n        /* \"contracts/OrderBook.sol\":6857:6867  price >= 0 */\n      lt\n      iszero\n        /* \"contracts/OrderBook.sol\":6849:6903  require(price >= 0, \"price value must be more than 0\") */\n      tag_163\n      jumpi\n      mload(0x40)\n      0x08c379a000000000000000000000000000000000000000000000000000000000\n      dup2\n      mstore\n      0x04\n      add\n      tag_164\n      swap1\n      tag_165\n      jump\t// in\n    tag_164:\n      mload(0x40)\n      dup1\n      swap2\n      sub\n      swap1\n      revert\n    tag_163:\n        /* \"contracts/OrderBook.sol\":6934:6939  price */\n      dup1\n        /* \"contracts/OrderBook.sol\":6921:6930  msg.value */\n      callvalue\n        /* \"contracts/OrderBook.sol\":6921:6939  msg.value >= price */\n      lt\n      iszero\n        /* \"contracts/OrderBook.sol\":6913:6974  require(msg.value >= price, \"Not enough blance to place ask\") */\n      tag_166\n      jumpi\n      mload(0x40)\n      0x08c379a000000000000000000000000000000000000000000000000000000000\n      dup2\n      mstore\n      0x04\n      add\n      tag_167\n      swap1\n      tag_168\n      jump\t// in\n    tag_167:\n      mload(0x40)\n      dup1\n      swap2\n      sub\n      swap1\n      revert\n    tag_166:\n        /* \"contracts/OrderBook.sol\":6984:6996  uint256 time */\n      0x00\n        /* \"contracts/OrderBook.sol\":6999:7014  block.timestamp */\n      timestamp\n        /* \"contracts/OrderBook.sol\":6984:7014  uint256 time = block.timestamp */\n      swap1\n      pop\n        /* \"contracts/OrderBook.sol\":7024:7049  uint256 commissionedPrice */\n      0x00\n        /* \"contracts/OrderBook.sol\":7083:7086  100 */\n      0x64\n        /* \"contracts/OrderBook.sol\":7069:7079  commission */\n      sload(0x02)\n        /* \"contracts/OrderBook.sol\":7065:7068  100 */\n      0x64\n        /* \"contracts/OrderBook.sol\":7065:7079  100-commission */\n      tag_169\n      swap2\n      swap1\n      tag_170\n      jump\t// in\n    tag_169:\n        /* \"contracts/OrderBook.sol\":7052:7061  msg.value */\n      callvalue\n        /* \"contracts/OrderBook.sol\":7052:7080  msg.value * (100-commission) */\n      tag_171\n      swap2\n      swap1\n      tag_172\n      jump\t// in\n    tag_171:\n        /* \"contracts/OrderBook.sol\":7052:7086  msg.value * (100-commission) / 100 */\n      tag_173\n      swap2\n      swap1\n      tag_174\n      jump\t// in\n    tag_173:\n        /* \"contracts/OrderBook.sol\":7024:7086  uint256 commissionedPrice = msg.value * (100-commission) / 100 */\n      swap1\n      pop\n        /* \"contracts/OrderBook.sol\":7096:7115  order memory newAsk */\n      0x00\n        /* \"contracts/OrderBook.sol\":7118:7162  createAsk(msg.sender,time,commissionedPrice) */\n      tag_175\n        /* \"contracts/OrderBook.sol\":7128:7138  msg.sender */\n      caller\n        /* \"contracts/OrderBook.sol\":7139:7143  time */\n      dup5\n        /* \"contracts/OrderBook.sol\":7144:7161  commissionedPrice */\n      dup5\n        /* \"contracts/OrderBook.sol\":7118:7127  createAsk */\n      tag_176\n        /* \"contracts/OrderBook.sol\":7118:7162  createAsk(msg.sender,time,commissionedPrice) */\n      jump\t// in\n    tag_175:\n        /* \"contracts/OrderBook.sol\":7096:7162  order memory newAsk = createAsk(msg.sender,time,commissionedPrice) */\n      swap1\n      pop\n        /* \"contracts/OrderBook.sol\":7172:7187  sortAsk(newAsk) */\n      tag_177\n        /* \"contracts/OrderBook.sol\":7180:7186  newAsk */\n      dup2\n        /* \"contracts/OrderBook.sol\":7172:7179  sortAsk */\n      tag_178\n        /* \"contracts/OrderBook.sol\":7172:7187  sortAsk(newAsk) */\n      jump\t// in\n    tag_177:\n        /* \"contracts/OrderBook.sol\":6839:7194  {... */\n      pop\n      pop\n      pop\n        /* \"contracts/OrderBook.sol\":6790:7194  function placeAsk (uint256 price) public payable {... */\n      pop\n      jump\t// out\n        /* \"contracts/OrderBook.sol\":1825:1847  uint256 public bidTail */\n    tag_79:\n      sload(0x05)\n      dup2\n      jump\t// out\n        /* \"contracts/OrderBook.sol\":1970:1992  uint256 public askHead */\n    tag_83:\n      sload(0x08)\n      dup2\n      jump\t// out\n        /* \"contracts/OrderBook.sol\":6527:6784  function cancelBid (uint256 bidId) public isPending(bidBook[bidId]) isAuthorised(bidBook[bidId], msg.sender) {... */\n    tag_88:\n        /* \"contracts/OrderBook.sol\":6579:6586  bidBook */\n      0x03\n        /* \"contracts/OrderBook.sol\":6579:6593  bidBook[bidId] */\n      0x00\n        /* \"contracts/OrderBook.sol\":6587:6592  bidId */\n      dup3\n        /* \"contracts/OrderBook.sol\":6579:6593  bidBook[bidId] */\n      dup2\n      mstore\n      0x20\n      add\n      swap1\n      dup2\n      mstore\n      0x20\n      add\n      0x00\n      keccak256\n        /* \"contracts/OrderBook.sol\":2565:2688  modifier isPending(order memory _order) {... */\n      mload(0x40)\n      dup1\n      0xe0\n      add\n      0x40\n      mstore\n      swap1\n      dup2\n      0x00\n      dup3\n      add\n      0x00\n      swap1\n      sload\n      swap1\n      0x0100\n      exp\n      swap1\n      div\n      0xffffffffffffffffffffffffffffffffffffffff\n      and\n      0xffffffffffffffffffffffffffffffffffffffff\n      and\n      0xffffffffffffffffffffffffffffffffffffffff\n      and\n      dup2\n      mstore\n      0x20\n      add\n      0x01\n      dup3\n      add\n      sload\n      dup2\n      mstore\n      0x20\n      add\n      0x02\n      dup3\n      add\n      sload\n      dup2\n      mstore\n      0x20\n      add\n      0x03\n      dup3\n      add\n      0x00\n      swap1\n      sload\n      swap1\n      0x0100\n      exp\n      swap1\n      div\n      0xff\n      and\n      0x01\n      dup2\n      gt\n      iszero\n      tag_179\n      jumpi\n      tag_180\n      tag_133\n      jump\t// in\n    tag_180:\n    tag_179:\n      0x01\n      dup2\n      gt\n      iszero\n      tag_181\n      jumpi\n      tag_182\n      tag_133\n      jump\t// in\n    tag_182:\n    tag_181:\n      dup2\n      mstore\n      0x20\n      add\n      0x04\n      dup3\n      add\n      sload\n      dup2\n      mstore\n      0x20\n      add\n      0x05\n      dup3\n      add\n      sload\n      dup2\n      mstore\n      0x20\n      add\n      0x06\n      dup3\n      add\n      sload\n      dup2\n      mstore\n      pop\n      pop\n        /* \"contracts/OrderBook.sol\":2639:2652  State.pending */\n      0x00\n        /* \"contracts/OrderBook.sol\":2623:2652  _order.state == State.pending */\n      0x01\n      dup2\n      gt\n      iszero\n      tag_184\n      jumpi\n      tag_185\n      tag_133\n      jump\t// in\n    tag_185:\n    tag_184:\n        /* \"contracts/OrderBook.sol\":2623:2629  _order */\n      dup2\n        /* \"contracts/OrderBook.sol\":2623:2635  _order.state */\n      0x60\n      add\n      mload\n        /* \"contracts/OrderBook.sol\":2623:2652  _order.state == State.pending */\n      0x01\n      dup2\n      gt\n      iszero\n      tag_186\n      jumpi\n      tag_187\n      tag_133\n      jump\t// in\n    tag_187:\n    tag_186:\n      eq\n        /* \"contracts/OrderBook.sol\":2615:2670  require(_order.state == State.pending, \"Order Pending\") */\n      tag_188\n      jumpi\n      mload(0x40)\n      0x08c379a000000000000000000000000000000000000000000000000000000000\n      dup2\n      mstore\n      0x04\n      add\n      tag_189\n      swap1\n      tag_143\n      jump\t// in\n    tag_189:\n      mload(0x40)\n      dup1\n      swap2\n      sub\n      swap1\n      revert\n    tag_188:\n        /* \"contracts/OrderBook.sol\":6608:6615  bidBook */\n      0x03\n        /* \"contracts/OrderBook.sol\":6608:6622  bidBook[bidId] */\n      0x00\n        /* \"contracts/OrderBook.sol\":6616:6621  bidId */\n      dup4\n        /* \"contracts/OrderBook.sol\":6608:6622  bidBook[bidId] */\n      dup2\n      mstore\n      0x20\n      add\n      swap1\n      dup2\n      mstore\n      0x20\n      add\n      0x00\n      keccak256\n        /* \"contracts/OrderBook.sol\":2694:2833  modifier isAuthorised(order memory _order, address sender) {... */\n      mload(0x40)\n      dup1\n      0xe0\n      add\n      0x40\n      mstore\n      swap1\n      dup2\n      0x00\n      dup3\n      add\n      0x00\n      swap1\n      sload\n      swap1\n      0x0100\n      exp\n      swap1\n      div\n      0xffffffffffffffffffffffffffffffffffffffff\n      and\n      0xffffffffffffffffffffffffffffffffffffffff\n      and\n      0xffffffffffffffffffffffffffffffffffffffff\n      and\n      dup2\n      mstore\n      0x20\n      add\n      0x01\n      dup3\n      add\n      sload\n      dup2\n      mstore\n      0x20\n      add\n      0x02\n      dup3\n      add\n      sload\n      dup2\n      mstore\n      0x20\n      add\n      0x03\n      dup3\n      add\n      0x00\n      swap1\n      sload\n      swap1\n      0x0100\n      exp\n      swap1\n      div\n      0xff\n      and\n      0x01\n      dup2\n      gt\n      iszero\n      tag_190\n      jumpi\n      tag_191\n      tag_133\n      jump\t// in\n    tag_191:\n    tag_190:\n      0x01\n      dup2\n      gt\n      iszero\n      tag_192\n      jumpi\n      tag_193\n      tag_133\n      jump\t// in\n    tag_193:\n    tag_192:\n      dup2\n      mstore\n      0x20\n      add\n      0x04\n      dup3\n      add\n      sload\n      dup2\n      mstore\n      0x20\n      add\n      0x05\n      dup3\n      add\n      sload\n      dup2\n      mstore\n      0x20\n      add\n      0x06\n      dup3\n      add\n      sload\n      dup2\n      mstore\n      pop\n      pop\n        /* \"contracts/OrderBook.sol\":6624:6634  msg.sender */\n      caller\n        /* \"contracts/OrderBook.sol\":2790:2796  sender */\n      dup1\n        /* \"contracts/OrderBook.sol\":2771:2796  _order.customer == sender */\n      0xffffffffffffffffffffffffffffffffffffffff\n      and\n        /* \"contracts/OrderBook.sol\":2771:2777  _order */\n      dup3\n        /* \"contracts/OrderBook.sol\":2771:2786  _order.customer */\n      0x00\n      add\n      mload\n        /* \"contracts/OrderBook.sol\":2771:2796  _order.customer == sender */\n      0xffffffffffffffffffffffffffffffffffffffff\n      and\n      eq\n        /* \"contracts/OrderBook.sol\":2763:2815  require(_order.customer == sender, \"Not Authorised\") */\n      tag_195\n      jumpi\n      mload(0x40)\n      0x08c379a000000000000000000000000000000000000000000000000000000000\n      dup2\n      mstore\n      0x04\n      add\n      tag_196\n      swap1\n      tag_151\n      jump\t// in\n    tag_196:\n      mload(0x40)\n      dup1\n      swap2\n      sub\n      swap1\n      revert\n    tag_195:\n        /* \"contracts/OrderBook.sol\":2680:2681  _ */\n      pop\n      pop\n        /* \"contracts/OrderBook.sol\":6527:6784  function cancelBid (uint256 bidId) public isPending(bidBook[bidId]) isAuthorised(bidBook[bidId], msg.sender) {... */\n      pop\n      pop\n      jump\t// out\n        /* \"contracts/OrderBook.sol\":5952:6521  function placeBid (uint256 price) public payable {... */\n    tag_91:\n        /* \"contracts/OrderBook.sol\":6028:6029  0 */\n      0x00\n        /* \"contracts/OrderBook.sol\":6019:6024  price */\n      dup2\n        /* \"contracts/OrderBook.sol\":6019:6029  price >= 0 */\n      lt\n      iszero\n        /* \"contracts/OrderBook.sol\":6011:6065  require(price >= 0, \"price value must be more than 0\") */\n      tag_199\n      jumpi\n      mload(0x40)\n      0x08c379a000000000000000000000000000000000000000000000000000000000\n      dup2\n      mstore\n      0x04\n      add\n      tag_200\n      swap1\n      tag_165\n      jump\t// in\n    tag_200:\n      mload(0x40)\n      dup1\n      swap2\n      sub\n      swap1\n      revert\n    tag_199:\n        /* \"contracts/OrderBook.sol\":6096:6101  price */\n      dup1\n        /* \"contracts/OrderBook.sol\":6083:6092  msg.value */\n      callvalue\n        /* \"contracts/OrderBook.sol\":6083:6101  msg.value >= price */\n      lt\n      iszero\n        /* \"contracts/OrderBook.sol\":6075:6136  require(msg.value >= price, \"Not enough blance to place bid\") */\n      tag_201\n      jumpi\n      mload(0x40)\n      0x08c379a000000000000000000000000000000000000000000000000000000000\n      dup2\n      mstore\n      0x04\n      add\n      tag_202\n      swap1\n      tag_203\n      jump\t// in\n    tag_202:\n      mload(0x40)\n      dup1\n      swap2\n      sub\n      swap1\n      revert\n    tag_201:\n        /* \"contracts/OrderBook.sol\":5952:6521  function placeBid (uint256 price) public payable {... */\n      pop\n      jump\t// out\n        /* \"contracts/OrderBook.sol\":2026:2049  uint256 public askCount */\n    tag_94:\n      sload(0x0a)\n      dup2\n      jump\t// out\n        /* \"contracts/OrderBook.sol\":1853:1876  uint256 public bidCount */\n    tag_98:\n      sload(0x06)\n      dup2\n      jump\t// out\n        /* \"contracts/OrderBook.sol\":8774:8876  function getBidState (uint256 id) public view returns(State) {... */\n    tag_103:\n        /* \"contracts/OrderBook.sol\":8828:8833  State */\n      0x00\n        /* \"contracts/OrderBook.sol\":8852:8859  bidBook */\n      0x03\n        /* \"contracts/OrderBook.sol\":8852:8863  bidBook[id] */\n      0x00\n        /* \"contracts/OrderBook.sol\":8860:8862  id */\n      dup4\n        /* \"contracts/OrderBook.sol\":8852:8863  bidBook[id] */\n      dup2\n      mstore\n      0x20\n      add\n      swap1\n      dup2\n      mstore\n      0x20\n      add\n      0x00\n      keccak256\n        /* \"contracts/OrderBook.sol\":8852:8869  bidBook[id].state */\n      0x03\n      add\n      0x00\n      swap1\n      sload\n      swap1\n      0x0100\n      exp\n      swap1\n      div\n      0xff\n      and\n        /* \"contracts/OrderBook.sol\":8845:8869  return bidBook[id].state */\n      swap1\n      pop\n        /* \"contracts/OrderBook.sol\":8774:8876  function getBidState (uint256 id) public view returns(State) {... */\n      swap2\n      swap1\n      pop\n      jump\t// out\n        /* \"contracts/OrderBook.sol\":5758:5914  function appendString(uint256 a, uint256 b) public pure returns (string memory) {... */\n    tag_109:\n        /* \"contracts/OrderBook.sol\":5823:5836  string memory */\n      0x60\n        /* \"contracts/OrderBook.sol\":5883:5884  a */\n      dup3\n        /* \"contracts/OrderBook.sol\":5875:5885  bytes32(a) */\n      0x00\n      shl\n        /* \"contracts/OrderBook.sol\":5903:5904  b */\n      dup3\n        /* \"contracts/OrderBook.sol\":5895:5905  bytes32(b) */\n      0x00\n      shl\n        /* \"contracts/OrderBook.sol\":5862:5906  bytes.concat(bytes32(a), \" , \" , bytes32(b)) */\n      add(0x20, mload(0x40))\n      tag_206\n      swap3\n      swap2\n      swap1\n      tag_207\n      jump\t// in\n    tag_206:\n      mload(0x40)\n      0x20\n      dup2\n      dup4\n      sub\n      sub\n      dup2\n      mstore\n      swap1\n      0x40\n      mstore\n        /* \"contracts/OrderBook.sol\":5848:5907  return string(bytes.concat(bytes32(a), \" , \" , bytes32(b))) */\n      swap1\n      pop\n        /* \"contracts/OrderBook.sol\":5758:5914  function appendString(uint256 a, uint256 b) public pure returns (string memory) {... */\n      swap3\n      swap2\n      pop\n      pop\n      jump\t// out\n        /* \"contracts/OrderBook.sol\":7830:7898  function fetchYourBidIds() public returns (uint256[] memory) {... */\n    tag_113:\n        /* \"contracts/OrderBook.sol\":7873:7889  uint256[] memory */\n      0x60\n        /* \"contracts/OrderBook.sol\":7830:7898  function fetchYourBidIds() public returns (uint256[] memory) {... */\n      swap1\n      jump\t// out\n        /* \"contracts/OrderBook.sol\":7978:8302  function getOrder(uint256 id) public view returns(address payable,uint256,uint256,State,uint256,uint256,uint256,bool) {... */\n    tag_118:\n        /* \"contracts/OrderBook.sol\":8028:8043  address payable */\n      0x00\n        /* \"contracts/OrderBook.sol\":8044:8051  uint256 */\n      dup1\n        /* \"contracts/OrderBook.sol\":8052:8059  uint256 */\n      0x00\n        /* \"contracts/OrderBook.sol\":8060:8065  State */\n      dup1\n        /* \"contracts/OrderBook.sol\":8066:8073  uint256 */\n      0x00\n        /* \"contracts/OrderBook.sol\":8074:8081  uint256 */\n      dup1\n        /* \"contracts/OrderBook.sol\":8082:8089  uint256 */\n      0x00\n        /* \"contracts/OrderBook.sol\":8090:8094  bool */\n      dup1\n        /* \"contracts/OrderBook.sol\":7978:8302  function getOrder(uint256 id) public view returns(address payable,uint256,uint256,State,uint256,uint256,uint256,bool) {... */\n      swap2\n      swap4\n      swap6\n      swap8\n      pop\n      swap2\n      swap4\n      swap6\n      swap8\n      jump\t// out\n        /* \"contracts/OrderBook.sol\":8664:8768  function getAskValue (uint256 id) public view returns(uint256) {... */\n    tag_124:\n        /* \"contracts/OrderBook.sol\":8718:8725  uint256 */\n      0x00\n        /* \"contracts/OrderBook.sol\":8744:8751  askBook */\n      0x07\n        /* \"contracts/OrderBook.sol\":8744:8755  askBook[id] */\n      0x00\n        /* \"contracts/OrderBook.sol\":8752:8754  id */\n      dup4\n        /* \"contracts/OrderBook.sol\":8744:8755  askBook[id] */\n      dup2\n      mstore\n      0x20\n      add\n      swap1\n      dup2\n      mstore\n      0x20\n      add\n      0x00\n      keccak256\n        /* \"contracts/OrderBook.sol\":8744:8761  askBook[id].value */\n      0x01\n      add\n      sload\n        /* \"contracts/OrderBook.sol\":8737:8761  return askBook[id].value */\n      swap1\n      pop\n        /* \"contracts/OrderBook.sol\":8664:8768  function getAskValue (uint256 id) public view returns(uint256) {... */\n      swap2\n      swap1\n      pop\n      jump\t// out\n        /* \"contracts/OrderBook.sol\":1998:2020  uint256 public askTail */\n    tag_128:\n      sload(0x09)\n      dup2\n      jump\t// out\n        /* \"contracts/OrderBook.sol\":3350:3828  function createAsk(address customer, uint256 value, uint256 timestamp) internal returns (order memory) {... */\n    tag_176:\n        /* \"contracts/OrderBook.sol\":3439:3451  order memory */\n      tag_211\n      tag_212\n      jump\t// in\n    tag_211:\n        /* \"contracts/OrderBook.sol\":3463:3471  askCount */\n      0x0a\n      0x00\n        /* \"contracts/OrderBook.sol\":3463:3474  askCount ++ */\n      dup2\n      sload\n      dup1\n      swap3\n      swap2\n      swap1\n      tag_214\n      swap1\n      tag_215\n      jump\t// in\n    tag_214:\n      swap2\n      swap1\n      pop\n      sstore\n      pop\n        /* \"contracts/OrderBook.sol\":3484:3503  order memory newAsk */\n      0x00\n        /* \"contracts/OrderBook.sol\":3506:3673  order(... */\n      mload(0x40)\n      dup1\n      0xe0\n      add\n      0x40\n      mstore\n      dup1\n        /* \"contracts/OrderBook.sol\":3533:3541  customer */\n      dup7\n        /* \"contracts/OrderBook.sol\":3506:3673  order(... */\n      0xffffffffffffffffffffffffffffffffffffffff\n      and\n      dup2\n      mstore\n      0x20\n      add\n        /* \"contracts/OrderBook.sol\":3556:3561  value */\n      dup6\n        /* \"contracts/OrderBook.sol\":3506:3673  order(... */\n      dup2\n      mstore\n      0x20\n      add\n        /* \"contracts/OrderBook.sol\":3575:3584  timestamp */\n      dup5\n        /* \"contracts/OrderBook.sol\":3506:3673  order(... */\n      dup2\n      mstore\n      0x20\n      add\n        /* \"contracts/OrderBook.sol\":3598:3611  State.pending */\n      0x00\n        /* \"contracts/OrderBook.sol\":3506:3673  order(... */\n      0x01\n      dup2\n      gt\n      iszero\n      tag_216\n      jumpi\n      tag_217\n      tag_133\n      jump\t// in\n    tag_217:\n    tag_216:\n      dup2\n      mstore\n      0x20\n      add\n        /* \"contracts/OrderBook.sol\":3625:3633  askCount */\n      sload(0x0a)\n        /* \"contracts/OrderBook.sol\":3506:3673  order(... */\n      dup2\n      mstore\n      0x20\n      add\n        /* \"contracts/OrderBook.sol\":3647:3648  0 */\n      0x00\n        /* \"contracts/OrderBook.sol\":3506:3673  order(... */\n      dup2\n      mstore\n      0x20\n      add\n        /* \"contracts/OrderBook.sol\":3662:3663  0 */\n      0x00\n        /* \"contracts/OrderBook.sol\":3506:3673  order(... */\n      dup2\n      mstore\n      pop\n        /* \"contracts/OrderBook.sol\":3484:3673  order memory newAsk = order(... */\n      swap1\n      pop\n        /* \"contracts/OrderBook.sol\":3703:3709  newAsk */\n      dup1\n        /* \"contracts/OrderBook.sol\":3683:3690  askBook */\n      0x07\n        /* \"contracts/OrderBook.sol\":3683:3700  askBook[askCount] */\n      0x00\n        /* \"contracts/OrderBook.sol\":3691:3699  askCount */\n      sload(0x0a)\n        /* \"contracts/OrderBook.sol\":3683:3700  askBook[askCount] */\n      dup2\n      mstore\n      0x20\n      add\n      swap1\n      dup2\n      mstore\n      0x20\n      add\n      0x00\n      keccak256\n        /* \"contracts/OrderBook.sol\":3683:3709  askBook[askCount] = newAsk */\n      0x00\n      dup3\n      add\n      mload\n      dup2\n      0x00\n      add\n      exp(0x0100, 0x00)\n      dup2\n      sload\n      dup2\n      0xffffffffffffffffffffffffffffffffffffffff\n      mul\n      not\n      and\n      swap1\n      dup4\n      0xffffffffffffffffffffffffffffffffffffffff\n      and\n      mul\n      or\n      swap1\n      sstore\n      pop\n      0x20\n      dup3\n      add\n      mload\n      dup2\n      0x01\n      add\n      sstore\n      0x40\n      dup3\n      add\n      mload\n      dup2\n      0x02\n      add\n      sstore\n      0x60\n      dup3\n      add\n      mload\n      dup2\n      0x03\n      add\n      exp(0x0100, 0x00)\n      dup2\n      sload\n      dup2\n      0xff\n      mul\n      not\n      and\n      swap1\n      dup4\n      0x01\n      dup2\n      gt\n      iszero\n      tag_218\n      jumpi\n      tag_219\n      tag_133\n      jump\t// in\n    tag_219:\n    tag_218:\n      mul\n      or\n      swap1\n      sstore\n      pop\n      0x80\n      dup3\n      add\n      mload\n      dup2\n      0x04\n      add\n      sstore\n      0xa0\n      dup3\n      add\n      mload\n      dup2\n      0x05\n      add\n      sstore\n      0xc0\n      dup3\n      add\n      mload\n      dup2\n      0x06\n      add\n      sstore\n      swap1\n      pop\n      pop\n        /* \"contracts/OrderBook.sol\":3724:3795  orderCreated(customer,value,timestamp,State.pending,askCount,0,0,false) */\n      0x93caf6ba1af44020dfe6076e279533e38bd8deefe534c43aa8cc93aad2025b7d\n        /* \"contracts/OrderBook.sol\":3737:3745  customer */\n      dup6\n        /* \"contracts/OrderBook.sol\":3746:3751  value */\n      dup6\n        /* \"contracts/OrderBook.sol\":3752:3761  timestamp */\n      dup6\n        /* \"contracts/OrderBook.sol\":3762:3775  State.pending */\n      0x00\n        /* \"contracts/OrderBook.sol\":3776:3784  askCount */\n      sload(0x0a)\n        /* \"contracts/OrderBook.sol\":3785:3786  0 */\n      0x00\n        /* \"contracts/OrderBook.sol\":3787:3788  0 */\n      dup1\n        /* \"contracts/OrderBook.sol\":3789:3794  false */\n      0x00\n        /* \"contracts/OrderBook.sol\":3724:3795  orderCreated(customer,value,timestamp,State.pending,askCount,0,0,false) */\n      mload(0x40)\n      tag_220\n      swap9\n      swap8\n      swap7\n      swap6\n      swap5\n      swap4\n      swap3\n      swap2\n      swap1\n      tag_221\n      jump\t// in\n    tag_220:\n      mload(0x40)\n      dup1\n      swap2\n      sub\n      swap1\n      log1\n        /* \"contracts/OrderBook.sol\":3815:3821  newAsk */\n      dup1\n        /* \"contracts/OrderBook.sol\":3808:3821  return newAsk */\n      swap2\n      pop\n      pop\n        /* \"contracts/OrderBook.sol\":3350:3828  function createAsk(address customer, uint256 value, uint256 timestamp) internal returns (order memory) {... */\n      swap4\n      swap3\n      pop\n      pop\n      pop\n      jump\t// out\n        /* \"contracts/OrderBook.sol\":4613:5446  function sortAsk(order memory newOrder) internal {... */\n    tag_178:\n        /* \"contracts/OrderBook.sol\":4672:4687  uint256 current */\n      0x00\n        /* \"contracts/OrderBook.sol\":4712:4713  0 */\n      dup1\n        /* \"contracts/OrderBook.sol\":4701:4708  askHead */\n      sload(0x08)\n        /* \"contracts/OrderBook.sol\":4701:4713  askHead == 0 */\n      sub\n        /* \"contracts/OrderBook.sol\":4697:5440  if (askHead == 0) {... */\n      tag_223\n      jumpi\n        /* \"contracts/OrderBook.sol\":4739:4747  newOrder */\n      dup2\n        /* \"contracts/OrderBook.sol\":4739:4750  newOrder.id */\n      0x80\n      add\n      mload\n        /* \"contracts/OrderBook.sol\":4729:4736  askHead */\n      0x08\n        /* \"contracts/OrderBook.sol\":4729:4750  askHead = newOrder.id */\n      dup2\n      swap1\n      sstore\n      pop\n        /* \"contracts/OrderBook.sol\":4697:5440  if (askHead == 0) {... */\n      jump(tag_224)\n    tag_223:\n        /* \"contracts/OrderBook.sol\":4805:4813  newOrder */\n      dup2\n        /* \"contracts/OrderBook.sol\":4805:4819  newOrder.value */\n      0x20\n      add\n      mload\n        /* \"contracts/OrderBook.sol\":4779:4786  askBook */\n      0x07\n        /* \"contracts/OrderBook.sol\":4779:4795  askBook[askHead] */\n      0x00\n        /* \"contracts/OrderBook.sol\":4787:4794  askHead */\n      sload(0x08)\n        /* \"contracts/OrderBook.sol\":4779:4795  askBook[askHead] */\n      dup2\n      mstore\n      0x20\n      add\n      swap1\n      dup2\n      mstore\n      0x20\n      add\n      0x00\n      keccak256\n        /* \"contracts/OrderBook.sol\":4779:4801  askBook[askHead].value */\n      0x01\n      add\n      sload\n        /* \"contracts/OrderBook.sol\":4779:4819  askBook[askHead].value >= newOrder.value */\n      lt\n        /* \"contracts/OrderBook.sol\":4775:5440  if (askBook[askHead].value >= newOrder.value) {... */\n      tag_225\n      jumpi\n        /* \"contracts/OrderBook.sol\":4851:4858  askHead */\n      sload(0x08)\n        /* \"contracts/OrderBook.sol\":4835:4843  newOrder */\n      dup3\n        /* \"contracts/OrderBook.sol\":4835:4848  newOrder.next */\n      0xa0\n      add\n        /* \"contracts/OrderBook.sol\":4835:4858  newOrder.next = askHead */\n      dup2\n      dup2\n      mstore\n      pop\n      pop\n        /* \"contracts/OrderBook.sol\":4902:4910  newOrder */\n      dup2\n        /* \"contracts/OrderBook.sol\":4902:4913  newOrder.id */\n      0x80\n      add\n      mload\n        /* \"contracts/OrderBook.sol\":4872:4879  askBook */\n      0x07\n        /* \"contracts/OrderBook.sol\":4872:4894  askBook[newOrder.next] */\n      0x00\n        /* \"contracts/OrderBook.sol\":4880:4888  newOrder */\n      dup5\n        /* \"contracts/OrderBook.sol\":4880:4893  newOrder.next */\n      0xa0\n      add\n      mload\n        /* \"contracts/OrderBook.sol\":4872:4894  askBook[newOrder.next] */\n      dup2\n      mstore\n      0x20\n      add\n      swap1\n      dup2\n      mstore\n      0x20\n      add\n      0x00\n      keccak256\n        /* \"contracts/OrderBook.sol\":4872:4899  askBook[newOrder.next].prev */\n      0x06\n      add\n        /* \"contracts/OrderBook.sol\":4872:4913  askBook[newOrder.next].prev = newOrder.id */\n      dup2\n      swap1\n      sstore\n      pop\n        /* \"contracts/OrderBook.sol\":4937:4945  newOrder */\n      dup2\n        /* \"contracts/OrderBook.sol\":4937:4948  newOrder.id */\n      0x80\n      add\n      mload\n        /* \"contracts/OrderBook.sol\":4927:4934  askHead */\n      0x08\n        /* \"contracts/OrderBook.sol\":4927:4948  askHead = newOrder.id */\n      dup2\n      swap1\n      sstore\n      pop\n        /* \"contracts/OrderBook.sol\":4775:5440  if (askBook[askHead].value >= newOrder.value) {... */\n      jump(tag_226)\n    tag_225:\n        /* \"contracts/OrderBook.sol\":4997:5004  askHead */\n      sload(0x08)\n        /* \"contracts/OrderBook.sol\":4987:5004  current = askHead */\n      swap1\n      pop\n        /* \"contracts/OrderBook.sol\":5018:5174  while (askBook[current].next != 0 && askBook[askBook[current].next].value < newOrder.value) {... */\n    tag_227:\n        /* \"contracts/OrderBook.sol\":5050:5051  0 */\n      0x00\n        /* \"contracts/OrderBook.sol\":5025:5032  askBook */\n      0x07\n        /* \"contracts/OrderBook.sol\":5025:5041  askBook[current] */\n      0x00\n        /* \"contracts/OrderBook.sol\":5033:5040  current */\n      dup4\n        /* \"contracts/OrderBook.sol\":5025:5041  askBook[current] */\n      dup2\n      mstore\n      0x20\n      add\n      swap1\n      dup2\n      mstore\n      0x20\n      add\n      0x00\n      keccak256\n        /* \"contracts/OrderBook.sol\":5025:5046  askBook[current].next */\n      0x05\n      add\n      sload\n        /* \"contracts/OrderBook.sol\":5025:5051  askBook[current].next != 0 */\n      eq\n      iszero\n        /* \"contracts/OrderBook.sol\":5025:5108  askBook[current].next != 0 && askBook[askBook[current].next].value < newOrder.value */\n      dup1\n      iszero\n      tag_229\n      jumpi\n      pop\n        /* \"contracts/OrderBook.sol\":5094:5102  newOrder */\n      dup2\n        /* \"contracts/OrderBook.sol\":5094:5108  newOrder.value */\n      0x20\n      add\n      mload\n        /* \"contracts/OrderBook.sol\":5055:5062  askBook */\n      0x07\n        /* \"contracts/OrderBook.sol\":5055:5085  askBook[askBook[current].next] */\n      0x00\n        /* \"contracts/OrderBook.sol\":5063:5070  askBook */\n      0x07\n        /* \"contracts/OrderBook.sol\":5063:5079  askBook[current] */\n      0x00\n        /* \"contracts/OrderBook.sol\":5071:5078  current */\n      dup6\n        /* \"contracts/OrderBook.sol\":5063:5079  askBook[current] */\n      dup2\n      mstore\n      0x20\n      add\n      swap1\n      dup2\n      mstore\n      0x20\n      add\n      0x00\n      keccak256\n        /* \"contracts/OrderBook.sol\":5063:5084  askBook[current].next */\n      0x05\n      add\n      sload\n        /* \"contracts/OrderBook.sol\":5055:5085  askBook[askBook[current].next] */\n      dup2\n      mstore\n      0x20\n      add\n      swap1\n      dup2\n      mstore\n      0x20\n      add\n      0x00\n      keccak256\n        /* \"contracts/OrderBook.sol\":5055:5091  askBook[askBook[current].next].value */\n      0x01\n      add\n      sload\n        /* \"contracts/OrderBook.sol\":5055:5108  askBook[askBook[current].next].value < newOrder.value */\n      lt\n        /* \"contracts/OrderBook.sol\":5025:5108  askBook[current].next != 0 && askBook[askBook[current].next].value < newOrder.value */\n    tag_229:\n        /* \"contracts/OrderBook.sol\":5018:5174  while (askBook[current].next != 0 && askBook[askBook[current].next].value < newOrder.value) {... */\n      iszero\n      tag_228\n      jumpi\n        /* \"contracts/OrderBook.sol\":5138:5145  askBook */\n      0x07\n        /* \"contracts/OrderBook.sol\":5138:5154  askBook[current] */\n      0x00\n        /* \"contracts/OrderBook.sol\":5146:5153  current */\n      dup3\n        /* \"contracts/OrderBook.sol\":5138:5154  askBook[current] */\n      dup2\n      mstore\n      0x20\n      add\n      swap1\n      dup2\n      mstore\n      0x20\n      add\n      0x00\n      keccak256\n        /* \"contracts/OrderBook.sol\":5138:5159  askBook[current].next */\n      0x05\n      add\n      sload\n        /* \"contracts/OrderBook.sol\":5128:5159  current = askBook[current].next */\n      swap1\n      pop\n        /* \"contracts/OrderBook.sol\":5018:5174  while (askBook[current].next != 0 && askBook[askBook[current].next].value < newOrder.value) {... */\n      jump(tag_227)\n    tag_228:\n        /* \"contracts/OrderBook.sol\":5203:5210  askBook */\n      0x07\n        /* \"contracts/OrderBook.sol\":5203:5219  askBook[current] */\n      0x00\n        /* \"contracts/OrderBook.sol\":5211:5218  current */\n      dup3\n        /* \"contracts/OrderBook.sol\":5203:5219  askBook[current] */\n      dup2\n      mstore\n      0x20\n      add\n      swap1\n      dup2\n      mstore\n      0x20\n      add\n      0x00\n      keccak256\n        /* \"contracts/OrderBook.sol\":5203:5224  askBook[current].next */\n      0x05\n      add\n      sload\n        /* \"contracts/OrderBook.sol\":5187:5195  newOrder */\n      dup3\n        /* \"contracts/OrderBook.sol\":5187:5200  newOrder.next */\n      0xa0\n      add\n        /* \"contracts/OrderBook.sol\":5187:5224  newOrder.next = askBook[current].next */\n      dup2\n      dup2\n      mstore\n      pop\n      pop\n        /* \"contracts/OrderBook.sol\":5267:5268  0 */\n      0x00\n        /* \"contracts/OrderBook.sol\":5242:5249  askBook */\n      0x07\n        /* \"contracts/OrderBook.sol\":5242:5258  askBook[current] */\n      0x00\n        /* \"contracts/OrderBook.sol\":5250:5257  current */\n      dup4\n        /* \"contracts/OrderBook.sol\":5242:5258  askBook[current] */\n      dup2\n      mstore\n      0x20\n      add\n      swap1\n      dup2\n      mstore\n      0x20\n      add\n      0x00\n      keccak256\n        /* \"contracts/OrderBook.sol\":5242:5263  askBook[current].next */\n      0x05\n      add\n      sload\n        /* \"contracts/OrderBook.sol\":5242:5268  askBook[current].next != 0 */\n      eq\n        /* \"contracts/OrderBook.sol\":5238:5344  if (askBook[current].next != 0) {... */\n      tag_230\n      jumpi\n        /* \"contracts/OrderBook.sol\":5318:5326  newOrder */\n      dup2\n        /* \"contracts/OrderBook.sol\":5318:5329  newOrder.id */\n      0x80\n      add\n      mload\n        /* \"contracts/OrderBook.sol\":5288:5295  askBook */\n      0x07\n        /* \"contracts/OrderBook.sol\":5288:5310  askBook[newOrder.next] */\n      0x00\n        /* \"contracts/OrderBook.sol\":5296:5304  newOrder */\n      dup5\n        /* \"contracts/OrderBook.sol\":5296:5309  newOrder.next */\n      0xa0\n      add\n      mload\n        /* \"contracts/OrderBook.sol\":5288:5310  askBook[newOrder.next] */\n      dup2\n      mstore\n      0x20\n      add\n      swap1\n      dup2\n      mstore\n      0x20\n      add\n      0x00\n      keccak256\n        /* \"contracts/OrderBook.sol\":5288:5315  askBook[newOrder.next].prev */\n      0x06\n      add\n        /* \"contracts/OrderBook.sol\":5288:5329  askBook[newOrder.next].prev = newOrder.id */\n      dup2\n      swap1\n      sstore\n      pop\n        /* \"contracts/OrderBook.sol\":5238:5344  if (askBook[current].next != 0) {... */\n    tag_230:\n        /* \"contracts/OrderBook.sol\":5381:5389  newOrder */\n      dup2\n        /* \"contracts/OrderBook.sol\":5381:5392  newOrder.id */\n      0x80\n      add\n      mload\n        /* \"contracts/OrderBook.sol\":5357:5364  askBook */\n      0x07\n        /* \"contracts/OrderBook.sol\":5357:5373  askBook[current] */\n      0x00\n        /* \"contracts/OrderBook.sol\":5365:5372  current */\n      dup4\n        /* \"contracts/OrderBook.sol\":5357:5373  askBook[current] */\n      dup2\n      mstore\n      0x20\n      add\n      swap1\n      dup2\n      mstore\n      0x20\n      add\n      0x00\n      keccak256\n        /* \"contracts/OrderBook.sol\":5357:5378  askBook[current].next */\n      0x05\n      add\n        /* \"contracts/OrderBook.sol\":5357:5392  askBook[current].next = newOrder.id */\n      dup2\n      swap1\n      sstore\n      pop\n        /* \"contracts/OrderBook.sol\":5422:5429  current */\n      dup1\n        /* \"contracts/OrderBook.sol\":5406:5414  newOrder */\n      dup3\n        /* \"contracts/OrderBook.sol\":5406:5419  newOrder.prev */\n      0xc0\n      add\n        /* \"contracts/OrderBook.sol\":5406:5429  newOrder.prev = current */\n      dup2\n      dup2\n      mstore\n      pop\n      pop\n        /* \"contracts/OrderBook.sol\":4775:5440  if (askBook[askHead].value >= newOrder.value) {... */\n    tag_226:\n        /* \"contracts/OrderBook.sol\":4697:5440  if (askHead == 0) {... */\n    tag_224:\n        /* \"contracts/OrderBook.sol\":4662:5446  {... */\n      pop\n        /* \"contracts/OrderBook.sol\":4613:5446  function sortAsk(order memory newOrder) internal {... */\n      pop\n      jump\t// out\n    tag_212:\n      mload(0x40)\n      dup1\n      0xe0\n      add\n      0x40\n      mstore\n      dup1\n      and(0xffffffffffffffffffffffffffffffffffffffff, 0x00)\n      dup2\n      mstore\n      0x20\n      add\n      0x00\n      dup2\n      mstore\n      0x20\n      add\n      0x00\n      dup2\n      mstore\n      0x20\n      add\n      0x00\n      0x01\n      dup2\n      gt\n      iszero\n      tag_231\n      jumpi\n      tag_232\n      tag_133\n      jump\t// in\n    tag_232:\n    tag_231:\n      dup2\n      mstore\n      0x20\n      add\n      0x00\n      dup2\n      mstore\n      0x20\n      add\n      0x00\n      dup2\n      mstore\n      0x20\n      add\n      0x00\n      dup2\n      mstore\n      pop\n      swap1\n      jump\t// out\n        /* \"#utility.yul\":7:121   */\n    tag_233:\n        /* \"#utility.yul\":74:80   */\n      0x00\n        /* \"#utility.yul\":108:113   */\n      dup2\n        /* \"#utility.yul\":102:114   */\n      mload\n        /* \"#utility.yul\":92:114   */\n      swap1\n      pop\n        /* \"#utility.yul\":7:121   */\n      swap2\n      swap1\n      pop\n      jump\t// out\n        /* \"#utility.yul\":127:311   */\n    tag_234:\n        /* \"#utility.yul\":226:237   */\n      0x00\n        /* \"#utility.yul\":260:266   */\n      dup3\n        /* \"#utility.yul\":255:258   */\n      dup3\n        /* \"#utility.yul\":248:267   */\n      mstore\n        /* \"#utility.yul\":300:304   */\n      0x20\n        /* \"#utility.yul\":295:298   */\n      dup3\n        /* \"#utility.yul\":291:305   */\n      add\n        /* \"#utility.yul\":276:305   */\n      swap1\n      pop\n        /* \"#utility.yul\":127:311   */\n      swap3\n      swap2\n      pop\n      pop\n      jump\t// out\n        /* \"#utility.yul\":317:449   */\n    tag_235:\n        /* \"#utility.yul\":384:388   */\n      0x00\n        /* \"#utility.yul\":407:410   */\n      dup2\n        /* \"#utility.yul\":399:410   */\n      swap1\n      pop\n        /* \"#utility.yul\":437:441   */\n      0x20\n        /* \"#utility.yul\":432:435   */\n      dup3\n        /* \"#utility.yul\":428:442   */\n      add\n        /* \"#utility.yul\":420:442   */\n      swap1\n      pop\n        /* \"#utility.yul\":317:449   */\n      swap2\n      swap1\n      pop\n      jump\t// out\n        /* \"#utility.yul\":455:532   */\n    tag_236:\n        /* \"#utility.yul\":492:499   */\n      0x00\n        /* \"#utility.yul\":521:526   */\n      dup2\n        /* \"#utility.yul\":510:526   */\n      swap1\n      pop\n        /* \"#utility.yul\":455:532   */\n      swap2\n      swap1\n      pop\n      jump\t// out\n        /* \"#utility.yul\":538:646   */\n    tag_237:\n        /* \"#utility.yul\":615:639   */\n      tag_298\n        /* \"#utility.yul\":633:638   */\n      dup2\n        /* \"#utility.yul\":615:639   */\n      tag_236\n      jump\t// in\n    tag_298:\n        /* \"#utility.yul\":610:613   */\n      dup3\n        /* \"#utility.yul\":603:640   */\n      mstore\n        /* \"#utility.yul\":538:646   */\n      pop\n      pop\n      jump\t// out\n        /* \"#utility.yul\":652:831   */\n    tag_238:\n        /* \"#utility.yul\":721:731   */\n      0x00\n        /* \"#utility.yul\":742:788   */\n      tag_300\n        /* \"#utility.yul\":784:787   */\n      dup4\n        /* \"#utility.yul\":776:782   */\n      dup4\n        /* \"#utility.yul\":742:788   */\n      tag_237\n      jump\t// in\n    tag_300:\n        /* \"#utility.yul\":820:824   */\n      0x20\n        /* \"#utility.yul\":815:818   */\n      dup4\n        /* \"#utility.yul\":811:825   */\n      add\n        /* \"#utility.yul\":797:825   */\n      swap1\n      pop\n        /* \"#utility.yul\":652:831   */\n      swap3\n      swap2\n      pop\n      pop\n      jump\t// out\n        /* \"#utility.yul\":837:950   */\n    tag_239:\n        /* \"#utility.yul\":907:911   */\n      0x00\n        /* \"#utility.yul\":939:943   */\n      0x20\n        /* \"#utility.yul\":934:937   */\n      dup3\n        /* \"#utility.yul\":930:944   */\n      add\n        /* \"#utility.yul\":922:944   */\n      swap1\n      pop\n        /* \"#utility.yul\":837:950   */\n      swap2\n      swap1\n      pop\n      jump\t// out\n        /* \"#utility.yul\":986:1718   */\n    tag_240:\n        /* \"#utility.yul\":1105:1108   */\n      0x00\n        /* \"#utility.yul\":1134:1188   */\n      tag_303\n        /* \"#utility.yul\":1182:1187   */\n      dup3\n        /* \"#utility.yul\":1134:1188   */\n      tag_233\n      jump\t// in\n    tag_303:\n        /* \"#utility.yul\":1204:1290   */\n      tag_304\n        /* \"#utility.yul\":1283:1289   */\n      dup2\n        /* \"#utility.yul\":1278:1281   */\n      dup6\n        /* \"#utility.yul\":1204:1290   */\n      tag_234\n      jump\t// in\n    tag_304:\n        /* \"#utility.yul\":1197:1290   */\n      swap4\n      pop\n        /* \"#utility.yul\":1314:1370   */\n      tag_305\n        /* \"#utility.yul\":1364:1369   */\n      dup4\n        /* \"#utility.yul\":1314:1370   */\n      tag_235\n      jump\t// in\n    tag_305:\n        /* \"#utility.yul\":1393:1400   */\n      dup1\n        /* \"#utility.yul\":1424:1425   */\n      0x00\n        /* \"#utility.yul\":1409:1693   */\n    tag_306:\n        /* \"#utility.yul\":1434:1440   */\n      dup4\n        /* \"#utility.yul\":1431:1432   */\n      dup2\n        /* \"#utility.yul\":1428:1441   */\n      lt\n        /* \"#utility.yul\":1409:1693   */\n      iszero\n      tag_308\n      jumpi\n        /* \"#utility.yul\":1510:1516   */\n      dup2\n        /* \"#utility.yul\":1504:1517   */\n      mload\n        /* \"#utility.yul\":1537:1600   */\n      tag_309\n        /* \"#utility.yul\":1596:1599   */\n      dup9\n        /* \"#utility.yul\":1581:1594   */\n      dup3\n        /* \"#utility.yul\":1537:1600   */\n      tag_238\n      jump\t// in\n    tag_309:\n        /* \"#utility.yul\":1530:1600   */\n      swap8\n      pop\n        /* \"#utility.yul\":1623:1683   */\n      tag_310\n        /* \"#utility.yul\":1676:1682   */\n      dup4\n        /* \"#utility.yul\":1623:1683   */\n      tag_239\n      jump\t// in\n    tag_310:\n        /* \"#utility.yul\":1613:1683   */\n      swap3\n      pop\n        /* \"#utility.yul\":1469:1693   */\n      pop\n        /* \"#utility.yul\":1456:1457   */\n      0x01\n        /* \"#utility.yul\":1453:1454   */\n      dup2\n        /* \"#utility.yul\":1449:1458   */\n      add\n        /* \"#utility.yul\":1444:1458   */\n      swap1\n      pop\n        /* \"#utility.yul\":1409:1693   */\n      jump(tag_306)\n    tag_308:\n        /* \"#utility.yul\":1413:1427   */\n      pop\n        /* \"#utility.yul\":1709:1712   */\n      dup6\n        /* \"#utility.yul\":1702:1712   */\n      swap4\n      pop\n        /* \"#utility.yul\":1110:1718   */\n      pop\n      pop\n      pop\n        /* \"#utility.yul\":986:1718   */\n      swap3\n      swap2\n      pop\n      pop\n      jump\t// out\n        /* \"#utility.yul\":1724:2097   */\n    tag_31:\n        /* \"#utility.yul\":1867:1871   */\n      0x00\n        /* \"#utility.yul\":1905:1907   */\n      0x20\n        /* \"#utility.yul\":1894:1903   */\n      dup3\n        /* \"#utility.yul\":1890:1908   */\n      add\n        /* \"#utility.yul\":1882:1908   */\n      swap1\n      pop\n        /* \"#utility.yul\":1954:1963   */\n      dup2\n        /* \"#utility.yul\":1948:1952   */\n      dup2\n        /* \"#utility.yul\":1944:1964   */\n      sub\n        /* \"#utility.yul\":1940:1941   */\n      0x00\n        /* \"#utility.yul\":1929:1938   */\n      dup4\n        /* \"#utility.yul\":1925:1942   */\n      add\n        /* \"#utility.yul\":1918:1965   */\n      mstore\n        /* \"#utility.yul\":1982:2090   */\n      tag_312\n        /* \"#utility.yul\":2085:2089   */\n      dup2\n        /* \"#utility.yul\":2076:2082   */\n      dup5\n        /* \"#utility.yul\":1982:2090   */\n      tag_240\n      jump\t// in\n    tag_312:\n        /* \"#utility.yul\":1974:2090   */\n      swap1\n      pop\n        /* \"#utility.yul\":1724:2097   */\n      swap3\n      swap2\n      pop\n      pop\n      jump\t// out\n        /* \"#utility.yul\":2184:2301   */\n    tag_242:\n        /* \"#utility.yul\":2293:2294   */\n      0x00\n        /* \"#utility.yul\":2290:2291   */\n      dup1\n        /* \"#utility.yul\":2283:2295   */\n      revert\n        /* \"#utility.yul\":2430:2552   */\n    tag_244:\n        /* \"#utility.yul\":2503:2527   */\n      tag_317\n        /* \"#utility.yul\":2521:2526   */\n      dup2\n        /* \"#utility.yul\":2503:2527   */\n      tag_236\n      jump\t// in\n    tag_317:\n        /* \"#utility.yul\":2496:2501   */\n      dup2\n        /* \"#utility.yul\":2493:2528   */\n      eq\n        /* \"#utility.yul\":2483:2546   */\n      tag_318\n      jumpi\n        /* \"#utility.yul\":2542:2543   */\n      0x00\n        /* \"#utility.yul\":2539:2540   */\n      dup1\n        /* \"#utility.yul\":2532:2544   */\n      revert\n        /* \"#utility.yul\":2483:2546   */\n    tag_318:\n        /* \"#utility.yul\":2430:2552   */\n      pop\n      jump\t// out\n        /* \"#utility.yul\":2558:2697   */\n    tag_245:\n        /* \"#utility.yul\":2604:2609   */\n      0x00\n        /* \"#utility.yul\":2642:2648   */\n      dup2\n        /* \"#utility.yul\":2629:2649   */\n      calldataload\n        /* \"#utility.yul\":2620:2649   */\n      swap1\n      pop\n        /* \"#utility.yul\":2658:2691   */\n      tag_320\n        /* \"#utility.yul\":2685:2690   */\n      dup2\n        /* \"#utility.yul\":2658:2691   */\n      tag_244\n      jump\t// in\n    tag_320:\n        /* \"#utility.yul\":2558:2697   */\n      swap3\n      swap2\n      pop\n      pop\n      jump\t// out\n        /* \"#utility.yul\":2703:3032   */\n    tag_35:\n        /* \"#utility.yul\":2762:2768   */\n      0x00\n        /* \"#utility.yul\":2811:2813   */\n      0x20\n        /* \"#utility.yul\":2799:2808   */\n      dup3\n        /* \"#utility.yul\":2790:2797   */\n      dup5\n        /* \"#utility.yul\":2786:2809   */\n      sub\n        /* \"#utility.yul\":2782:2814   */\n      slt\n        /* \"#utility.yul\":2779:2898   */\n      iszero\n      tag_322\n      jumpi\n        /* \"#utility.yul\":2817:2896   */\n      tag_323\n      tag_242\n      jump\t// in\n    tag_323:\n        /* \"#utility.yul\":2779:2898   */\n    tag_322:\n        /* \"#utility.yul\":2937:2938   */\n      0x00\n        /* \"#utility.yul\":2962:3015   */\n      tag_324\n        /* \"#utility.yul\":3007:3014   */\n      dup5\n        /* \"#utility.yul\":2998:3004   */\n      dup3\n        /* \"#utility.yul\":2987:2996   */\n      dup6\n        /* \"#utility.yul\":2983:3005   */\n      add\n        /* \"#utility.yul\":2962:3015   */\n      tag_245\n      jump\t// in\n    tag_324:\n        /* \"#utility.yul\":2952:3015   */\n      swap2\n      pop\n        /* \"#utility.yul\":2908:3025   */\n      pop\n        /* \"#utility.yul\":2703:3032   */\n      swap3\n      swap2\n      pop\n      pop\n      jump\t// out\n        /* \"#utility.yul\":3038:3156   */\n    tag_246:\n        /* \"#utility.yul\":3125:3149   */\n      tag_326\n        /* \"#utility.yul\":3143:3148   */\n      dup2\n        /* \"#utility.yul\":3125:3149   */\n      tag_236\n      jump\t// in\n    tag_326:\n        /* \"#utility.yul\":3120:3123   */\n      dup3\n        /* \"#utility.yul\":3113:3150   */\n      mstore\n        /* \"#utility.yul\":3038:3156   */\n      pop\n      pop\n      jump\t// out\n        /* \"#utility.yul\":3162:3384   */\n    tag_42:\n        /* \"#utility.yul\":3255:3259   */\n      0x00\n        /* \"#utility.yul\":3293:3295   */\n      0x20\n        /* \"#utility.yul\":3282:3291   */\n      dup3\n        /* \"#utility.yul\":3278:3296   */\n      add\n        /* \"#utility.yul\":3270:3296   */\n      swap1\n      pop\n        /* \"#utility.yul\":3306:3377   */\n      tag_328\n        /* \"#utility.yul\":3374:3375   */\n      0x00\n        /* \"#utility.yul\":3363:3372   */\n      dup4\n        /* \"#utility.yul\":3359:3376   */\n      add\n        /* \"#utility.yul\":3350:3356   */\n      dup5\n        /* \"#utility.yul\":3306:3377   */\n      tag_246\n      jump\t// in\n    tag_328:\n        /* \"#utility.yul\":3162:3384   */\n      swap3\n      swap2\n      pop\n      pop\n      jump\t// out\n        /* \"#utility.yul\":3390:3525   */\n    tag_247:\n        /* \"#utility.yul\":3478:3484   */\n      0x00\n        /* \"#utility.yul\":3512:3517   */\n      dup2\n        /* \"#utility.yul\":3506:3518   */\n      mload\n        /* \"#utility.yul\":3496:3518   */\n      swap1\n      pop\n        /* \"#utility.yul\":3390:3525   */\n      swap2\n      swap1\n      pop\n      jump\t// out\n        /* \"#utility.yul\":3531:3736   */\n    tag_248:\n        /* \"#utility.yul\":3651:3662   */\n      0x00\n        /* \"#utility.yul\":3685:3691   */\n      dup3\n        /* \"#utility.yul\":3680:3683   */\n      dup3\n        /* \"#utility.yul\":3673:3692   */\n      mstore\n        /* \"#utility.yul\":3725:3729   */\n      0x20\n        /* \"#utility.yul\":3720:3723   */\n      dup3\n        /* \"#utility.yul\":3716:3730   */\n      add\n        /* \"#utility.yul\":3701:3730   */\n      swap1\n      pop\n        /* \"#utility.yul\":3531:3736   */\n      swap3\n      swap2\n      pop\n      pop\n      jump\t// out\n        /* \"#utility.yul\":3742:3895   */\n    tag_249:\n        /* \"#utility.yul\":3830:3834   */\n      0x00\n        /* \"#utility.yul\":3853:3856   */\n      dup2\n        /* \"#utility.yul\":3845:3856   */\n      swap1\n      pop\n        /* \"#utility.yul\":3883:3887   */\n      0x20\n        /* \"#utility.yul\":3878:3881   */\n      dup3\n        /* \"#utility.yul\":3874:3888   */\n      add\n        /* \"#utility.yul\":3866:3888   */\n      swap1\n      pop\n        /* \"#utility.yul\":3742:3895   */\n      swap2\n      swap1\n      pop\n      jump\t// out\n        /* \"#utility.yul\":3901:4027   */\n    tag_250:\n        /* \"#utility.yul\":3938:3945   */\n      0x00\n        /* \"#utility.yul\":3978:4020   */\n      0xffffffffffffffffffffffffffffffffffffffff\n        /* \"#utility.yul\":3971:3976   */\n      dup3\n        /* \"#utility.yul\":3967:4021   */\n      and\n        /* \"#utility.yul\":3956:4021   */\n      swap1\n      pop\n        /* \"#utility.yul\":3901:4027   */\n      swap2\n      swap1\n      pop\n      jump\t// out\n        /* \"#utility.yul\":4033:4137   */\n    tag_251:\n        /* \"#utility.yul\":4078:4085   */\n      0x00\n        /* \"#utility.yul\":4107:4131   */\n      tag_334\n        /* \"#utility.yul\":4125:4130   */\n      dup3\n        /* \"#utility.yul\":4107:4131   */\n      tag_250\n      jump\t// in\n    tag_334:\n        /* \"#utility.yul\":4096:4131   */\n      swap1\n      pop\n        /* \"#utility.yul\":4033:4137   */\n      swap2\n      swap1\n      pop\n      jump\t// out\n        /* \"#utility.yul\":4143:4275   */\n    tag_252:\n        /* \"#utility.yul\":4236:4268   */\n      tag_336\n        /* \"#utility.yul\":4262:4267   */\n      dup2\n        /* \"#utility.yul\":4236:4268   */\n      tag_251\n      jump\t// in\n    tag_336:\n        /* \"#utility.yul\":4231:4234   */\n      dup3\n        /* \"#utility.yul\":4224:4269   */\n      mstore\n        /* \"#utility.yul\":4143:4275   */\n      pop\n      pop\n      jump\t// out\n        /* \"#utility.yul\":4281:4461   */\n    tag_133:\n        /* \"#utility.yul\":4329:4406   */\n      0x4e487b7100000000000000000000000000000000000000000000000000000000\n        /* \"#utility.yul\":4326:4327   */\n      0x00\n        /* \"#utility.yul\":4319:4407   */\n      mstore\n        /* \"#utility.yul\":4426:4430   */\n      0x21\n        /* \"#utility.yul\":4423:4424   */\n      0x04\n        /* \"#utility.yul\":4416:4431   */\n      mstore\n        /* \"#utility.yul\":4450:4454   */\n      0x24\n        /* \"#utility.yul\":4447:4448   */\n      0x00\n        /* \"#utility.yul\":4440:4455   */\n      revert\n        /* \"#utility.yul\":4467:4579   */\n    tag_253:\n        /* \"#utility.yul\":4547:4548   */\n      0x02\n        /* \"#utility.yul\":4540:4545   */\n      dup2\n        /* \"#utility.yul\":4537:4549   */\n      lt\n        /* \"#utility.yul\":4527:4573   */\n      tag_339\n      jumpi\n        /* \"#utility.yul\":4553:4571   */\n      tag_340\n      tag_133\n      jump\t// in\n    tag_340:\n        /* \"#utility.yul\":4527:4573   */\n    tag_339:\n        /* \"#utility.yul\":4467:4579   */\n      pop\n      jump\t// out\n        /* \"#utility.yul\":4585:4710   */\n    tag_254:\n        /* \"#utility.yul\":4629:4636   */\n      0x00\n        /* \"#utility.yul\":4658:4663   */\n      dup2\n        /* \"#utility.yul\":4647:4663   */\n      swap1\n      pop\n        /* \"#utility.yul\":4664:4704   */\n      tag_342\n        /* \"#utility.yul\":4698:4703   */\n      dup3\n        /* \"#utility.yul\":4664:4704   */\n      tag_253\n      jump\t// in\n    tag_342:\n        /* \"#utility.yul\":4585:4710   */\n      swap2\n      swap1\n      pop\n      jump\t// out\n        /* \"#utility.yul\":4716:4841   */\n    tag_255:\n        /* \"#utility.yul\":4771:4780   */\n      0x00\n        /* \"#utility.yul\":4804:4835   */\n      tag_344\n        /* \"#utility.yul\":4829:4834   */\n      dup3\n        /* \"#utility.yul\":4804:4835   */\n      tag_254\n      jump\t// in\n    tag_344:\n        /* \"#utility.yul\":4791:4835   */\n      swap1\n      pop\n        /* \"#utility.yul\":4716:4841   */\n      swap2\n      swap1\n      pop\n      jump\t// out\n        /* \"#utility.yul\":4847:4978   */\n    tag_256:\n        /* \"#utility.yul\":4929:4971   */\n      tag_346\n        /* \"#utility.yul\":4965:4970   */\n      dup2\n        /* \"#utility.yul\":4929:4971   */\n      tag_255\n      jump\t// in\n    tag_346:\n        /* \"#utility.yul\":4924:4927   */\n      dup3\n        /* \"#utility.yul\":4917:4972   */\n      mstore\n        /* \"#utility.yul\":4847:4978   */\n      pop\n      pop\n      jump\t// out\n        /* \"#utility.yul\":5040:6429   */\n    tag_257:\n        /* \"#utility.yul\":5169:5173   */\n      0xe0\n        /* \"#utility.yul\":5164:5167   */\n      dup3\n        /* \"#utility.yul\":5160:5174   */\n      add\n        /* \"#utility.yul\":5260:5264   */\n      0x00\n        /* \"#utility.yul\":5253:5258   */\n      dup3\n        /* \"#utility.yul\":5249:5265   */\n      add\n        /* \"#utility.yul\":5243:5266   */\n      mload\n        /* \"#utility.yul\":5279:5358   */\n      tag_348\n        /* \"#utility.yul\":5352:5356   */\n      0x00\n        /* \"#utility.yul\":5347:5350   */\n      dup6\n        /* \"#utility.yul\":5343:5357   */\n      add\n        /* \"#utility.yul\":5329:5341   */\n      dup3\n        /* \"#utility.yul\":5279:5358   */\n      tag_252\n      jump\t// in\n    tag_348:\n        /* \"#utility.yul\":5184:5368   */\n      pop\n        /* \"#utility.yul\":5451:5455   */\n      0x20\n        /* \"#utility.yul\":5444:5449   */\n      dup3\n        /* \"#utility.yul\":5440:5456   */\n      add\n        /* \"#utility.yul\":5434:5457   */\n      mload\n        /* \"#utility.yul\":5470:5533   */\n      tag_349\n        /* \"#utility.yul\":5527:5531   */\n      0x20\n        /* \"#utility.yul\":5522:5525   */\n      dup6\n        /* \"#utility.yul\":5518:5532   */\n      add\n        /* \"#utility.yul\":5504:5516   */\n      dup3\n        /* \"#utility.yul\":5470:5533   */\n      tag_237\n      jump\t// in\n    tag_349:\n        /* \"#utility.yul\":5378:5543   */\n      pop\n        /* \"#utility.yul\":5630:5634   */\n      0x40\n        /* \"#utility.yul\":5623:5628   */\n      dup3\n        /* \"#utility.yul\":5619:5635   */\n      add\n        /* \"#utility.yul\":5613:5636   */\n      mload\n        /* \"#utility.yul\":5649:5712   */\n      tag_350\n        /* \"#utility.yul\":5706:5710   */\n      0x40\n        /* \"#utility.yul\":5701:5704   */\n      dup6\n        /* \"#utility.yul\":5697:5711   */\n      add\n        /* \"#utility.yul\":5683:5695   */\n      dup3\n        /* \"#utility.yul\":5649:5712   */\n      tag_237\n      jump\t// in\n    tag_350:\n        /* \"#utility.yul\":5553:5722   */\n      pop\n        /* \"#utility.yul\":5805:5809   */\n      0x60\n        /* \"#utility.yul\":5798:5803   */\n      dup3\n        /* \"#utility.yul\":5794:5810   */\n      add\n        /* \"#utility.yul\":5788:5811   */\n      mload\n        /* \"#utility.yul\":5824:5892   */\n      tag_351\n        /* \"#utility.yul\":5886:5890   */\n      0x60\n        /* \"#utility.yul\":5881:5884   */\n      dup6\n        /* \"#utility.yul\":5877:5891   */\n      add\n        /* \"#utility.yul\":5863:5875   */\n      dup3\n        /* \"#utility.yul\":5824:5892   */\n      tag_256\n      jump\t// in\n    tag_351:\n        /* \"#utility.yul\":5732:5902   */\n      pop\n        /* \"#utility.yul\":5982:5986   */\n      0x80\n        /* \"#utility.yul\":5975:5980   */\n      dup3\n        /* \"#utility.yul\":5971:5987   */\n      add\n        /* \"#utility.yul\":5965:5988   */\n      mload\n        /* \"#utility.yul\":6001:6064   */\n      tag_352\n        /* \"#utility.yul\":6058:6062   */\n      0x80\n        /* \"#utility.yul\":6053:6056   */\n      dup6\n        /* \"#utility.yul\":6049:6063   */\n      add\n        /* \"#utility.yul\":6035:6047   */\n      dup3\n        /* \"#utility.yul\":6001:6064   */\n      tag_237\n      jump\t// in\n    tag_352:\n        /* \"#utility.yul\":5912:6074   */\n      pop\n        /* \"#utility.yul\":6156:6160   */\n      0xa0\n        /* \"#utility.yul\":6149:6154   */\n      dup3\n        /* \"#utility.yul\":6145:6161   */\n      add\n        /* \"#utility.yul\":6139:6162   */\n      mload\n        /* \"#utility.yul\":6175:6238   */\n      tag_353\n        /* \"#utility.yul\":6232:6236   */\n      0xa0\n        /* \"#utility.yul\":6227:6230   */\n      dup6\n        /* \"#utility.yul\":6223:6237   */\n      add\n        /* \"#utility.yul\":6209:6221   */\n      dup3\n        /* \"#utility.yul\":6175:6238   */\n      tag_237\n      jump\t// in\n    tag_353:\n        /* \"#utility.yul\":6084:6248   */\n      pop\n        /* \"#utility.yul\":6330:6334   */\n      0xc0\n        /* \"#utility.yul\":6323:6328   */\n      dup3\n        /* \"#utility.yul\":6319:6335   */\n      add\n        /* \"#utility.yul\":6313:6336   */\n      mload\n        /* \"#utility.yul\":6349:6412   */\n      tag_354\n        /* \"#utility.yul\":6406:6410   */\n      0xc0\n        /* \"#utility.yul\":6401:6404   */\n      dup6\n        /* \"#utility.yul\":6397:6411   */\n      add\n        /* \"#utility.yul\":6383:6395   */\n      dup3\n        /* \"#utility.yul\":6349:6412   */\n      tag_237\n      jump\t// in\n    tag_354:\n        /* \"#utility.yul\":6258:6422   */\n      pop\n        /* \"#utility.yul\":5138:6429   */\n      pop\n        /* \"#utility.yul\":5040:6429   */\n      pop\n      pop\n      jump\t// out\n        /* \"#utility.yul\":6435:6698   */\n    tag_258:\n        /* \"#utility.yul\":6546:6556   */\n      0x00\n        /* \"#utility.yul\":6567:6655   */\n      tag_356\n        /* \"#utility.yul\":6651:6654   */\n      dup4\n        /* \"#utility.yul\":6643:6649   */\n      dup4\n        /* \"#utility.yul\":6567:6655   */\n      tag_257\n      jump\t// in\n    tag_356:\n        /* \"#utility.yul\":6687:6691   */\n      0xe0\n        /* \"#utility.yul\":6682:6685   */\n      dup4\n        /* \"#utility.yul\":6678:6692   */\n      add\n        /* \"#utility.yul\":6664:6692   */\n      swap1\n      pop\n        /* \"#utility.yul\":6435:6698   */\n      swap3\n      swap2\n      pop\n      pop\n      jump\t// out\n        /* \"#utility.yul\":6704:6838   */\n    tag_259:\n        /* \"#utility.yul\":6795:6799   */\n      0x00\n        /* \"#utility.yul\":6827:6831   */\n      0x20\n        /* \"#utility.yul\":6822:6825   */\n      dup3\n        /* \"#utility.yul\":6818:6832   */\n      add\n        /* \"#utility.yul\":6810:6832   */\n      swap1\n      pop\n        /* \"#utility.yul\":6704:6838   */\n      swap2\n      swap1\n      pop\n      jump\t// out\n        /* \"#utility.yul\":6904:7804   */\n    tag_260:\n        /* \"#utility.yul\":7065:7068   */\n      0x00\n        /* \"#utility.yul\":7094:7169   */\n      tag_359\n        /* \"#utility.yul\":7163:7168   */\n      dup3\n        /* \"#utility.yul\":7094:7169   */\n      tag_247\n      jump\t// in\n    tag_359:\n        /* \"#utility.yul\":7185:7292   */\n      tag_360\n        /* \"#utility.yul\":7285:7291   */\n      dup2\n        /* \"#utility.yul\":7280:7283   */\n      dup6\n        /* \"#utility.yul\":7185:7292   */\n      tag_248\n      jump\t// in\n    tag_360:\n        /* \"#utility.yul\":7178:7292   */\n      swap4\n      pop\n        /* \"#utility.yul\":7316:7393   */\n      tag_361\n        /* \"#utility.yul\":7387:7392   */\n      dup4\n        /* \"#utility.yul\":7316:7393   */\n      tag_249\n      jump\t// in\n    tag_361:\n        /* \"#utility.yul\":7416:7423   */\n      dup1\n        /* \"#utility.yul\":7447:7448   */\n      0x00\n        /* \"#utility.yul\":7432:7779   */\n    tag_362:\n        /* \"#utility.yul\":7457:7463   */\n      dup4\n        /* \"#utility.yul\":7454:7455   */\n      dup2\n        /* \"#utility.yul\":7451:7464   */\n      lt\n        /* \"#utility.yul\":7432:7779   */\n      iszero\n      tag_364\n      jumpi\n        /* \"#utility.yul\":7533:7539   */\n      dup2\n        /* \"#utility.yul\":7527:7540   */\n      mload\n        /* \"#utility.yul\":7560:7665   */\n      tag_365\n        /* \"#utility.yul\":7661:7664   */\n      dup9\n        /* \"#utility.yul\":7646:7659   */\n      dup3\n        /* \"#utility.yul\":7560:7665   */\n      tag_258\n      jump\t// in\n    tag_365:\n        /* \"#utility.yul\":7553:7665   */\n      swap8\n      pop\n        /* \"#utility.yul\":7688:7769   */\n      tag_366\n        /* \"#utility.yul\":7762:7768   */\n      dup4\n        /* \"#utility.yul\":7688:7769   */\n      tag_259\n      jump\t// in\n    tag_366:\n        /* \"#utility.yul\":7678:7769   */\n      swap3\n      pop\n        /* \"#utility.yul\":7492:7779   */\n      pop\n        /* \"#utility.yul\":7479:7480   */\n      0x01\n        /* \"#utility.yul\":7476:7477   */\n      dup2\n        /* \"#utility.yul\":7472:7481   */\n      add\n        /* \"#utility.yul\":7467:7481   */\n      swap1\n      pop\n        /* \"#utility.yul\":7432:7779   */\n      jump(tag_362)\n    tag_364:\n        /* \"#utility.yul\":7436:7450   */\n      pop\n        /* \"#utility.yul\":7795:7798   */\n      dup6\n        /* \"#utility.yul\":7788:7798   */\n      swap4\n      pop\n        /* \"#utility.yul\":7070:7804   */\n      pop\n      pop\n      pop\n        /* \"#utility.yul\":6904:7804   */\n      swap3\n      swap2\n      pop\n      pop\n      jump\t// out\n        /* \"#utility.yul\":7810:8267   */\n    tag_47:\n        /* \"#utility.yul\":7995:7999   */\n      0x00\n        /* \"#utility.yul\":8033:8035   */\n      0x20\n        /* \"#utility.yul\":8022:8031   */\n      dup3\n        /* \"#utility.yul\":8018:8036   */\n      add\n        /* \"#utility.yul\":8010:8036   */\n      swap1\n      pop\n        /* \"#utility.yul\":8082:8091   */\n      dup2\n        /* \"#utility.yul\":8076:8080   */\n      dup2\n        /* \"#utility.yul\":8072:8092   */\n      sub\n        /* \"#utility.yul\":8068:8069   */\n      0x00\n        /* \"#utility.yul\":8057:8066   */\n      dup4\n        /* \"#utility.yul\":8053:8070   */\n      add\n        /* \"#utility.yul\":8046:8093   */\n      mstore\n        /* \"#utility.yul\":8110:8260   */\n      tag_368\n        /* \"#utility.yul\":8255:8259   */\n      dup2\n        /* \"#utility.yul\":8246:8252   */\n      dup5\n        /* \"#utility.yul\":8110:8260   */\n      tag_260\n      jump\t// in\n    tag_368:\n        /* \"#utility.yul\":8102:8260   */\n      swap1\n      pop\n        /* \"#utility.yul\":7810:8267   */\n      swap3\n      swap2\n      pop\n      pop\n      jump\t// out\n        /* \"#utility.yul\":8273:8372   */\n    tag_261:\n        /* \"#utility.yul\":8325:8331   */\n      0x00\n        /* \"#utility.yul\":8359:8364   */\n      dup2\n        /* \"#utility.yul\":8353:8365   */\n      mload\n        /* \"#utility.yul\":8343:8365   */\n      swap1\n      pop\n        /* \"#utility.yul\":8273:8372   */\n      swap2\n      swap1\n      pop\n      jump\t// out\n        /* \"#utility.yul\":8378:8547   */\n    tag_262:\n        /* \"#utility.yul\":8462:8473   */\n      0x00\n        /* \"#utility.yul\":8496:8502   */\n      dup3\n        /* \"#utility.yul\":8491:8494   */\n      dup3\n        /* \"#utility.yul\":8484:8503   */\n      mstore\n        /* \"#utility.yul\":8536:8540   */\n      0x20\n        /* \"#utility.yul\":8531:8534   */\n      dup3\n        /* \"#utility.yul\":8527:8541   */\n      add\n        /* \"#utility.yul\":8512:8541   */\n      swap1\n      pop\n        /* \"#utility.yul\":8378:8547   */\n      swap3\n      swap2\n      pop\n      pop\n      jump\t// out\n        /* \"#utility.yul\":8553:8860   */\n    tag_263:\n        /* \"#utility.yul\":8621:8622   */\n      0x00\n        /* \"#utility.yul\":8631:8744   */\n    tag_372:\n        /* \"#utility.yul\":8645:8651   */\n      dup4\n        /* \"#utility.yul\":8642:8643   */\n      dup2\n        /* \"#utility.yul\":8639:8652   */\n      lt\n        /* \"#utility.yul\":8631:8744   */\n      iszero\n      tag_374\n      jumpi\n        /* \"#utility.yul\":8730:8731   */\n      dup1\n        /* \"#utility.yul\":8725:8728   */\n      dup3\n        /* \"#utility.yul\":8721:8732   */\n      add\n        /* \"#utility.yul\":8715:8733   */\n      mload\n        /* \"#utility.yul\":8711:8712   */\n      dup2\n        /* \"#utility.yul\":8706:8709   */\n      dup5\n        /* \"#utility.yul\":8702:8713   */\n      add\n        /* \"#utility.yul\":8695:8734   */\n      mstore\n        /* \"#utility.yul\":8667:8669   */\n      0x20\n        /* \"#utility.yul\":8664:8665   */\n      dup2\n        /* \"#utility.yul\":8660:8670   */\n      add\n        /* \"#utility.yul\":8655:8670   */\n      swap1\n      pop\n        /* \"#utility.yul\":8631:8744   */\n      jump(tag_372)\n    tag_374:\n        /* \"#utility.yul\":8762:8768   */\n      dup4\n        /* \"#utility.yul\":8759:8760   */\n      dup2\n        /* \"#utility.yul\":8756:8769   */\n      gt\n        /* \"#utility.yul\":8753:8854   */\n      iszero\n      tag_375\n      jumpi\n        /* \"#utility.yul\":8842:8843   */\n      0x00\n        /* \"#utility.yul\":8833:8839   */\n      dup5\n        /* \"#utility.yul\":8828:8831   */\n      dup5\n        /* \"#utility.yul\":8824:8840   */\n      add\n        /* \"#utility.yul\":8817:8844   */\n      mstore\n        /* \"#utility.yul\":8753:8854   */\n    tag_375:\n        /* \"#utility.yul\":8602:8860   */\n      pop\n        /* \"#utility.yul\":8553:8860   */\n      pop\n      pop\n      pop\n      jump\t// out\n        /* \"#utility.yul\":8866:8968   */\n    tag_264:\n        /* \"#utility.yul\":8907:8913   */\n      0x00\n        /* \"#utility.yul\":8958:8960   */\n      0x1f\n        /* \"#utility.yul\":8954:8961   */\n      not\n        /* \"#utility.yul\":8949:8951   */\n      0x1f\n        /* \"#utility.yul\":8942:8947   */\n      dup4\n        /* \"#utility.yul\":8938:8952   */\n      add\n        /* \"#utility.yul\":8934:8962   */\n      and\n        /* \"#utility.yul\":8924:8962   */\n      swap1\n      pop\n        /* \"#utility.yul\":8866:8968   */\n      swap2\n      swap1\n      pop\n      jump\t// out\n        /* \"#utility.yul\":8974:9338   */\n    tag_265:\n        /* \"#utility.yul\":9062:9065   */\n      0x00\n        /* \"#utility.yul\":9090:9129   */\n      tag_378\n        /* \"#utility.yul\":9123:9128   */\n      dup3\n        /* \"#utility.yul\":9090:9129   */\n      tag_261\n      jump\t// in\n    tag_378:\n        /* \"#utility.yul\":9145:9216   */\n      tag_379\n        /* \"#utility.yul\":9209:9215   */\n      dup2\n        /* \"#utility.yul\":9204:9207   */\n      dup6\n        /* \"#utility.yul\":9145:9216   */\n      tag_262\n      jump\t// in\n    tag_379:\n        /* \"#utility.yul\":9138:9216   */\n      swap4\n      pop\n        /* \"#utility.yul\":9225:9277   */\n      tag_380\n        /* \"#utility.yul\":9270:9276   */\n      dup2\n        /* \"#utility.yul\":9265:9268   */\n      dup6\n        /* \"#utility.yul\":9258:9262   */\n      0x20\n        /* \"#utility.yul\":9251:9256   */\n      dup7\n        /* \"#utility.yul\":9247:9263   */\n      add\n        /* \"#utility.yul\":9225:9277   */\n      tag_263\n      jump\t// in\n    tag_380:\n        /* \"#utility.yul\":9302:9331   */\n      tag_381\n        /* \"#utility.yul\":9324:9330   */\n      dup2\n        /* \"#utility.yul\":9302:9331   */\n      tag_264\n      jump\t// in\n    tag_381:\n        /* \"#utility.yul\":9297:9300   */\n      dup5\n        /* \"#utility.yul\":9293:9332   */\n      add\n        /* \"#utility.yul\":9286:9332   */\n      swap2\n      pop\n        /* \"#utility.yul\":9066:9338   */\n      pop\n        /* \"#utility.yul\":8974:9338   */\n      swap3\n      swap2\n      pop\n      pop\n      jump\t// out\n        /* \"#utility.yul\":9344:9657   */\n    tag_52:\n        /* \"#utility.yul\":9457:9461   */\n      0x00\n        /* \"#utility.yul\":9495:9497   */\n      0x20\n        /* \"#utility.yul\":9484:9493   */\n      dup3\n        /* \"#utility.yul\":9480:9498   */\n      add\n        /* \"#utility.yul\":9472:9498   */\n      swap1\n      pop\n        /* \"#utility.yul\":9544:9553   */\n      dup2\n        /* \"#utility.yul\":9538:9542   */\n      dup2\n        /* \"#utility.yul\":9534:9554   */\n      sub\n        /* \"#utility.yul\":9530:9531   */\n      0x00\n        /* \"#utility.yul\":9519:9528   */\n      dup4\n        /* \"#utility.yul\":9515:9532   */\n      add\n        /* \"#utility.yul\":9508:9555   */\n      mstore\n        /* \"#utility.yul\":9572:9650   */\n      tag_383\n        /* \"#utility.yul\":9645:9649   */\n      dup2\n        /* \"#utility.yul\":9636:9642   */\n      dup5\n        /* \"#utility.yul\":9572:9650   */\n      tag_265\n      jump\t// in\n    tag_383:\n        /* \"#utility.yul\":9564:9650   */\n      swap1\n      pop\n        /* \"#utility.yul\":9344:9657   */\n      swap3\n      swap2\n      pop\n      pop\n      jump\t// out\n        /* \"#utility.yul\":9663:9804   */\n    tag_266:\n        /* \"#utility.yul\":9755:9797   */\n      tag_385\n        /* \"#utility.yul\":9791:9796   */\n      dup2\n        /* \"#utility.yul\":9755:9797   */\n      tag_255\n      jump\t// in\n    tag_385:\n        /* \"#utility.yul\":9750:9753   */\n      dup3\n        /* \"#utility.yul\":9743:9798   */\n      mstore\n        /* \"#utility.yul\":9663:9804   */\n      pop\n      pop\n      jump\t// out\n        /* \"#utility.yul\":9810:10042   */\n    tag_58:\n        /* \"#utility.yul\":9908:9912   */\n      0x00\n        /* \"#utility.yul\":9946:9948   */\n      0x20\n        /* \"#utility.yul\":9935:9944   */\n      dup3\n        /* \"#utility.yul\":9931:9949   */\n      add\n        /* \"#utility.yul\":9923:9949   */\n      swap1\n      pop\n        /* \"#utility.yul\":9959:10035   */\n      tag_387\n        /* \"#utility.yul\":10032:10033   */\n      0x00\n        /* \"#utility.yul\":10021:10030   */\n      dup4\n        /* \"#utility.yul\":10017:10034   */\n      add\n        /* \"#utility.yul\":10008:10014   */\n      dup5\n        /* \"#utility.yul\":9959:10035   */\n      tag_266\n      jump\t// in\n    tag_387:\n        /* \"#utility.yul\":9810:10042   */\n      swap3\n      swap2\n      pop\n      pop\n      jump\t// out\n        /* \"#utility.yul\":10048:10190   */\n    tag_267:\n        /* \"#utility.yul\":10151:10183   */\n      tag_389\n        /* \"#utility.yul\":10177:10182   */\n      dup2\n        /* \"#utility.yul\":10151:10183   */\n      tag_251\n      jump\t// in\n    tag_389:\n        /* \"#utility.yul\":10146:10149   */\n      dup3\n        /* \"#utility.yul\":10139:10184   */\n      mstore\n        /* \"#utility.yul\":10048:10190   */\n      pop\n      pop\n      jump\t// out\n        /* \"#utility.yul\":10196:10450   */\n    tag_64:\n        /* \"#utility.yul\":10305:10309   */\n      0x00\n        /* \"#utility.yul\":10343:10345   */\n      0x20\n        /* \"#utility.yul\":10332:10341   */\n      dup3\n        /* \"#utility.yul\":10328:10346   */\n      add\n        /* \"#utility.yul\":10320:10346   */\n      swap1\n      pop\n        /* \"#utility.yul\":10356:10443   */\n      tag_391\n        /* \"#utility.yul\":10440:10441   */\n      0x00\n        /* \"#utility.yul\":10429:10438   */\n      dup4\n        /* \"#utility.yul\":10425:10442   */\n      add\n        /* \"#utility.yul\":10416:10422   */\n      dup5\n        /* \"#utility.yul\":10356:10443   */\n      tag_267\n      jump\t// in\n    tag_391:\n        /* \"#utility.yul\":10196:10450   */\n      swap3\n      swap2\n      pop\n      pop\n      jump\t// out\n        /* \"#utility.yul\":10456:10930   */\n    tag_108:\n        /* \"#utility.yul\":10524:10530   */\n      0x00\n        /* \"#utility.yul\":10532:10538   */\n      dup1\n        /* \"#utility.yul\":10581:10583   */\n      0x40\n        /* \"#utility.yul\":10569:10578   */\n      dup4\n        /* \"#utility.yul\":10560:10567   */\n      dup6\n        /* \"#utility.yul\":10556:10579   */\n      sub\n        /* \"#utility.yul\":10552:10584   */\n      slt\n        /* \"#utility.yul\":10549:10668   */\n      iszero\n      tag_393\n      jumpi\n        /* \"#utility.yul\":10587:10666   */\n      tag_394\n      tag_242\n      jump\t// in\n    tag_394:\n        /* \"#utility.yul\":10549:10668   */\n    tag_393:\n        /* \"#utility.yul\":10707:10708   */\n      0x00\n        /* \"#utility.yul\":10732:10785   */\n      tag_395\n        /* \"#utility.yul\":10777:10784   */\n      dup6\n        /* \"#utility.yul\":10768:10774   */\n      dup3\n        /* \"#utility.yul\":10757:10766   */\n      dup7\n        /* \"#utility.yul\":10753:10775   */\n      add\n        /* \"#utility.yul\":10732:10785   */\n      tag_245\n      jump\t// in\n    tag_395:\n        /* \"#utility.yul\":10722:10785   */\n      swap3\n      pop\n        /* \"#utility.yul\":10678:10795   */\n      pop\n        /* \"#utility.yul\":10834:10836   */\n      0x20\n        /* \"#utility.yul\":10860:10913   */\n      tag_396\n        /* \"#utility.yul\":10905:10912   */\n      dup6\n        /* \"#utility.yul\":10896:10902   */\n      dup3\n        /* \"#utility.yul\":10885:10894   */\n      dup7\n        /* \"#utility.yul\":10881:10903   */\n      add\n        /* \"#utility.yul\":10860:10913   */\n      tag_245\n      jump\t// in\n    tag_396:\n        /* \"#utility.yul\":10850:10913   */\n      swap2\n      pop\n        /* \"#utility.yul\":10805:10923   */\n      pop\n        /* \"#utility.yul\":10456:10930   */\n      swap3\n      pop\n      swap3\n      swap1\n      pop\n      jump\t// out\n        /* \"#utility.yul\":10936:11026   */\n    tag_268:\n        /* \"#utility.yul\":10970:10977   */\n      0x00\n        /* \"#utility.yul\":11013:11018   */\n      dup2\n        /* \"#utility.yul\":11006:11019   */\n      iszero\n        /* \"#utility.yul\":10999:11020   */\n      iszero\n        /* \"#utility.yul\":10988:11020   */\n      swap1\n      pop\n        /* \"#utility.yul\":10936:11026   */\n      swap2\n      swap1\n      pop\n      jump\t// out\n        /* \"#utility.yul\":11032:11141   */\n    tag_269:\n        /* \"#utility.yul\":11113:11134   */\n      tag_399\n        /* \"#utility.yul\":11128:11133   */\n      dup2\n        /* \"#utility.yul\":11113:11134   */\n      tag_268\n      jump\t// in\n    tag_399:\n        /* \"#utility.yul\":11108:11111   */\n      dup3\n        /* \"#utility.yul\":11101:11135   */\n      mstore\n        /* \"#utility.yul\":11032:11141   */\n      pop\n      pop\n      jump\t// out\n        /* \"#utility.yul\":11147:12174   */\n    tag_120:\n        /* \"#utility.yul\":11451:11455   */\n      0x00\n        /* \"#utility.yul\":11489:11492   */\n      0x0100\n        /* \"#utility.yul\":11478:11487   */\n      dup3\n        /* \"#utility.yul\":11474:11493   */\n      add\n        /* \"#utility.yul\":11466:11493   */\n      swap1\n      pop\n        /* \"#utility.yul\":11503:11590   */\n      tag_401\n        /* \"#utility.yul\":11587:11588   */\n      0x00\n        /* \"#utility.yul\":11576:11585   */\n      dup4\n        /* \"#utility.yul\":11572:11589   */\n      add\n        /* \"#utility.yul\":11563:11569   */\n      dup12\n        /* \"#utility.yul\":11503:11590   */\n      tag_267\n      jump\t// in\n    tag_401:\n        /* \"#utility.yul\":11600:11672   */\n      tag_402\n        /* \"#utility.yul\":11668:11670   */\n      0x20\n        /* \"#utility.yul\":11657:11666   */\n      dup4\n        /* \"#utility.yul\":11653:11671   */\n      add\n        /* \"#utility.yul\":11644:11650   */\n      dup11\n        /* \"#utility.yul\":11600:11672   */\n      tag_246\n      jump\t// in\n    tag_402:\n        /* \"#utility.yul\":11682:11754   */\n      tag_403\n        /* \"#utility.yul\":11750:11752   */\n      0x40\n        /* \"#utility.yul\":11739:11748   */\n      dup4\n        /* \"#utility.yul\":11735:11753   */\n      add\n        /* \"#utility.yul\":11726:11732   */\n      dup10\n        /* \"#utility.yul\":11682:11754   */\n      tag_246\n      jump\t// in\n    tag_403:\n        /* \"#utility.yul\":11764:11841   */\n      tag_404\n        /* \"#utility.yul\":11837:11839   */\n      0x60\n        /* \"#utility.yul\":11826:11835   */\n      dup4\n        /* \"#utility.yul\":11822:11840   */\n      add\n        /* \"#utility.yul\":11813:11819   */\n      dup9\n        /* \"#utility.yul\":11764:11841   */\n      tag_266\n      jump\t// in\n    tag_404:\n        /* \"#utility.yul\":11851:11924   */\n      tag_405\n        /* \"#utility.yul\":11919:11922   */\n      0x80\n        /* \"#utility.yul\":11908:11917   */\n      dup4\n        /* \"#utility.yul\":11904:11923   */\n      add\n        /* \"#utility.yul\":11895:11901   */\n      dup8\n        /* \"#utility.yul\":11851:11924   */\n      tag_246\n      jump\t// in\n    tag_405:\n        /* \"#utility.yul\":11934:12007   */\n      tag_406\n        /* \"#utility.yul\":12002:12005   */\n      0xa0\n        /* \"#utility.yul\":11991:12000   */\n      dup4\n        /* \"#utility.yul\":11987:12006   */\n      add\n        /* \"#utility.yul\":11978:11984   */\n      dup7\n        /* \"#utility.yul\":11934:12007   */\n      tag_246\n      jump\t// in\n    tag_406:\n        /* \"#utility.yul\":12017:12090   */\n      tag_407\n        /* \"#utility.yul\":12085:12088   */\n      0xc0\n        /* \"#utility.yul\":12074:12083   */\n      dup4\n        /* \"#utility.yul\":12070:12089   */\n      add\n        /* \"#utility.yul\":12061:12067   */\n      dup6\n        /* \"#utility.yul\":12017:12090   */\n      tag_246\n      jump\t// in\n    tag_407:\n        /* \"#utility.yul\":12100:12167   */\n      tag_408\n        /* \"#utility.yul\":12162:12165   */\n      0xe0\n        /* \"#utility.yul\":12151:12160   */\n      dup4\n        /* \"#utility.yul\":12147:12166   */\n      add\n        /* \"#utility.yul\":12138:12144   */\n      dup5\n        /* \"#utility.yul\":12100:12167   */\n      tag_269\n      jump\t// in\n    tag_408:\n        /* \"#utility.yul\":11147:12174   */\n      swap10\n      swap9\n      pop\n      pop\n      pop\n      pop\n      pop\n      pop\n      pop\n      pop\n      pop\n      jump\t// out\n        /* \"#utility.yul\":12180:12343   */\n    tag_270:\n        /* \"#utility.yul\":12320:12335   */\n      0x4f726465722050656e64696e6700000000000000000000000000000000000000\n        /* \"#utility.yul\":12316:12317   */\n      0x00\n        /* \"#utility.yul\":12308:12314   */\n      dup3\n        /* \"#utility.yul\":12304:12318   */\n      add\n        /* \"#utility.yul\":12297:12336   */\n      mstore\n        /* \"#utility.yul\":12180:12343   */\n      pop\n      jump\t// out\n        /* \"#utility.yul\":12349:12715   */\n    tag_271:\n        /* \"#utility.yul\":12491:12494   */\n      0x00\n        /* \"#utility.yul\":12512:12579   */\n      tag_411\n        /* \"#utility.yul\":12576:12578   */\n      0x0d\n        /* \"#utility.yul\":12571:12574   */\n      dup4\n        /* \"#utility.yul\":12512:12579   */\n      tag_262\n      jump\t// in\n    tag_411:\n        /* \"#utility.yul\":12505:12579   */\n      swap2\n      pop\n        /* \"#utility.yul\":12588:12681   */\n      tag_412\n        /* \"#utility.yul\":12677:12680   */\n      dup3\n        /* \"#utility.yul\":12588:12681   */\n      tag_270\n      jump\t// in\n    tag_412:\n        /* \"#utility.yul\":12706:12708   */\n      0x20\n        /* \"#utility.yul\":12701:12704   */\n      dup3\n        /* \"#utility.yul\":12697:12709   */\n      add\n        /* \"#utility.yul\":12690:12709   */\n      swap1\n      pop\n        /* \"#utility.yul\":12349:12715   */\n      swap2\n      swap1\n      pop\n      jump\t// out\n        /* \"#utility.yul\":12721:13140   */\n    tag_143:\n        /* \"#utility.yul\":12887:12891   */\n      0x00\n        /* \"#utility.yul\":12925:12927   */\n      0x20\n        /* \"#utility.yul\":12914:12923   */\n      dup3\n        /* \"#utility.yul\":12910:12928   */\n      add\n        /* \"#utility.yul\":12902:12928   */\n      swap1\n      pop\n        /* \"#utility.yul\":12974:12983   */\n      dup2\n        /* \"#utility.yul\":12968:12972   */\n      dup2\n        /* \"#utility.yul\":12964:12984   */\n      sub\n        /* \"#utility.yul\":12960:12961   */\n      0x00\n        /* \"#utility.yul\":12949:12958   */\n      dup4\n        /* \"#utility.yul\":12945:12962   */\n      add\n        /* \"#utility.yul\":12938:12985   */\n      mstore\n        /* \"#utility.yul\":13002:13133   */\n      tag_414\n        /* \"#utility.yul\":13128:13132   */\n      dup2\n        /* \"#utility.yul\":13002:13133   */\n      tag_271\n      jump\t// in\n    tag_414:\n        /* \"#utility.yul\":12994:13133   */\n      swap1\n      pop\n        /* \"#utility.yul\":12721:13140   */\n      swap2\n      swap1\n      pop\n      jump\t// out\n        /* \"#utility.yul\":13146:13310   */\n    tag_272:\n        /* \"#utility.yul\":13286:13302   */\n      0x4e6f7420417574686f7269736564000000000000000000000000000000000000\n        /* \"#utility.yul\":13282:13283   */\n      0x00\n        /* \"#utility.yul\":13274:13280   */\n      dup3\n        /* \"#utility.yul\":13270:13284   */\n      add\n        /* \"#utility.yul\":13263:13303   */\n      mstore\n        /* \"#utility.yul\":13146:13310   */\n      pop\n      jump\t// out\n        /* \"#utility.yul\":13316:13682   */\n    tag_273:\n        /* \"#utility.yul\":13458:13461   */\n      0x00\n        /* \"#utility.yul\":13479:13546   */\n      tag_417\n        /* \"#utility.yul\":13543:13545   */\n      0x0e\n        /* \"#utility.yul\":13538:13541   */\n      dup4\n        /* \"#utility.yul\":13479:13546   */\n      tag_262\n      jump\t// in\n    tag_417:\n        /* \"#utility.yul\":13472:13546   */\n      swap2\n      pop\n        /* \"#utility.yul\":13555:13648   */\n      tag_418\n        /* \"#utility.yul\":13644:13647   */\n      dup3\n        /* \"#utility.yul\":13555:13648   */\n      tag_272\n      jump\t// in\n    tag_418:\n        /* \"#utility.yul\":13673:13675   */\n      0x20\n        /* \"#utility.yul\":13668:13671   */\n      dup3\n        /* \"#utility.yul\":13664:13676   */\n      add\n        /* \"#utility.yul\":13657:13676   */\n      swap1\n      pop\n        /* \"#utility.yul\":13316:13682   */\n      swap2\n      swap1\n      pop\n      jump\t// out\n        /* \"#utility.yul\":13688:14107   */\n    tag_151:\n        /* \"#utility.yul\":13854:13858   */\n      0x00\n        /* \"#utility.yul\":13892:13894   */\n      0x20\n        /* \"#utility.yul\":13881:13890   */\n      dup3\n        /* \"#utility.yul\":13877:13895   */\n      add\n        /* \"#utility.yul\":13869:13895   */\n      swap1\n      pop\n        /* \"#utility.yul\":13941:13950   */\n      dup2\n        /* \"#utility.yul\":13935:13939   */\n      dup2\n        /* \"#utility.yul\":13931:13951   */\n      sub\n        /* \"#utility.yul\":13927:13928   */\n      0x00\n        /* \"#utility.yul\":13916:13925   */\n      dup4\n        /* \"#utility.yul\":13912:13929   */\n      add\n        /* \"#utility.yul\":13905:13952   */\n      mstore\n        /* \"#utility.yul\":13969:14100   */\n      tag_420\n        /* \"#utility.yul\":14095:14099   */\n      dup2\n        /* \"#utility.yul\":13969:14100   */\n      tag_273\n      jump\t// in\n    tag_420:\n        /* \"#utility.yul\":13961:14100   */\n      swap1\n      pop\n        /* \"#utility.yul\":13688:14107   */\n      swap2\n      swap1\n      pop\n      jump\t// out\n        /* \"#utility.yul\":14113:14294   */\n    tag_274:\n        /* \"#utility.yul\":14253:14286   */\n      0x70726963652076616c7565206d757374206265206d6f7265207468616e203000\n        /* \"#utility.yul\":14249:14250   */\n      0x00\n        /* \"#utility.yul\":14241:14247   */\n      dup3\n        /* \"#utility.yul\":14237:14251   */\n      add\n        /* \"#utility.yul\":14230:14287   */\n      mstore\n        /* \"#utility.yul\":14113:14294   */\n      pop\n      jump\t// out\n        /* \"#utility.yul\":14300:14666   */\n    tag_275:\n        /* \"#utility.yul\":14442:14445   */\n      0x00\n        /* \"#utility.yul\":14463:14530   */\n      tag_423\n        /* \"#utility.yul\":14527:14529   */\n      0x1f\n        /* \"#utility.yul\":14522:14525   */\n      dup4\n        /* \"#utility.yul\":14463:14530   */\n      tag_262\n      jump\t// in\n    tag_423:\n        /* \"#utility.yul\":14456:14530   */\n      swap2\n      pop\n        /* \"#utility.yul\":14539:14632   */\n      tag_424\n        /* \"#utility.yul\":14628:14631   */\n      dup3\n        /* \"#utility.yul\":14539:14632   */\n      tag_274\n      jump\t// in\n    tag_424:\n        /* \"#utility.yul\":14657:14659   */\n      0x20\n        /* \"#utility.yul\":14652:14655   */\n      dup3\n        /* \"#utility.yul\":14648:14660   */\n      add\n        /* \"#utility.yul\":14641:14660   */\n      swap1\n      pop\n        /* \"#utility.yul\":14300:14666   */\n      swap2\n      swap1\n      pop\n      jump\t// out\n        /* \"#utility.yul\":14672:15091   */\n    tag_165:\n        /* \"#utility.yul\":14838:14842   */\n      0x00\n        /* \"#utility.yul\":14876:14878   */\n      0x20\n        /* \"#utility.yul\":14865:14874   */\n      dup3\n        /* \"#utility.yul\":14861:14879   */\n      add\n        /* \"#utility.yul\":14853:14879   */\n      swap1\n      pop\n        /* \"#utility.yul\":14925:14934   */\n      dup2\n        /* \"#utility.yul\":14919:14923   */\n      dup2\n        /* \"#utility.yul\":14915:14935   */\n      sub\n        /* \"#utility.yul\":14911:14912   */\n      0x00\n        /* \"#utility.yul\":14900:14909   */\n      dup4\n        /* \"#utility.yul\":14896:14913   */\n      add\n        /* \"#utility.yul\":14889:14936   */\n      mstore\n        /* \"#utility.yul\":14953:15084   */\n      tag_426\n        /* \"#utility.yul\":15079:15083   */\n      dup2\n        /* \"#utility.yul\":14953:15084   */\n      tag_275\n      jump\t// in\n    tag_426:\n        /* \"#utility.yul\":14945:15084   */\n      swap1\n      pop\n        /* \"#utility.yul\":14672:15091   */\n      swap2\n      swap1\n      pop\n      jump\t// out\n        /* \"#utility.yul\":15097:15277   */\n    tag_276:\n        /* \"#utility.yul\":15237:15269   */\n      0x4e6f7420656e6f75676820626c616e636520746f20706c6163652061736b0000\n        /* \"#utility.yul\":15233:15234   */\n      0x00\n        /* \"#utility.yul\":15225:15231   */\n      dup3\n        /* \"#utility.yul\":15221:15235   */\n      add\n        /* \"#utility.yul\":15214:15270   */\n      mstore\n        /* \"#utility.yul\":15097:15277   */\n      pop\n      jump\t// out\n        /* \"#utility.yul\":15283:15649   */\n    tag_277:\n        /* \"#utility.yul\":15425:15428   */\n      0x00\n        /* \"#utility.yul\":15446:15513   */\n      tag_429\n        /* \"#utility.yul\":15510:15512   */\n      0x1e\n        /* \"#utility.yul\":15505:15508   */\n      dup4\n        /* \"#utility.yul\":15446:15513   */\n      tag_262\n      jump\t// in\n    tag_429:\n        /* \"#utility.yul\":15439:15513   */\n      swap2\n      pop\n        /* \"#utility.yul\":15522:15615   */\n      tag_430\n        /* \"#utility.yul\":15611:15614   */\n      dup3\n        /* \"#utility.yul\":15522:15615   */\n      tag_276\n      jump\t// in\n    tag_430:\n        /* \"#utility.yul\":15640:15642   */\n      0x20\n        /* \"#utility.yul\":15635:15638   */\n      dup3\n        /* \"#utility.yul\":15631:15643   */\n      add\n        /* \"#utility.yul\":15624:15643   */\n      swap1\n      pop\n        /* \"#utility.yul\":15283:15649   */\n      swap2\n      swap1\n      pop\n      jump\t// out\n        /* \"#utility.yul\":15655:16074   */\n    tag_168:\n        /* \"#utility.yul\":15821:15825   */\n      0x00\n        /* \"#utility.yul\":15859:15861   */\n      0x20\n        /* \"#utility.yul\":15848:15857   */\n      dup3\n        /* \"#utility.yul\":15844:15862   */\n      add\n        /* \"#utility.yul\":15836:15862   */\n      swap1\n      pop\n        /* \"#utility.yul\":15908:15917   */\n      dup2\n        /* \"#utility.yul\":15902:15906   */\n      dup2\n        /* \"#utility.yul\":15898:15918   */\n      sub\n        /* \"#utility.yul\":15894:15895   */\n      0x00\n        /* \"#utility.yul\":15883:15892   */\n      dup4\n        /* \"#utility.yul\":15879:15896   */\n      add\n        /* \"#utility.yul\":15872:15919   */\n      mstore\n        /* \"#utility.yul\":15936:16067   */\n      tag_432\n        /* \"#utility.yul\":16062:16066   */\n      dup2\n        /* \"#utility.yul\":15936:16067   */\n      tag_277\n      jump\t// in\n    tag_432:\n        /* \"#utility.yul\":15928:16067   */\n      swap1\n      pop\n        /* \"#utility.yul\":15655:16074   */\n      swap2\n      swap1\n      pop\n      jump\t// out\n        /* \"#utility.yul\":16080:16260   */\n    tag_278:\n        /* \"#utility.yul\":16128:16205   */\n      0x4e487b7100000000000000000000000000000000000000000000000000000000\n        /* \"#utility.yul\":16125:16126   */\n      0x00\n        /* \"#utility.yul\":16118:16206   */\n      mstore\n        /* \"#utility.yul\":16225:16229   */\n      0x11\n        /* \"#utility.yul\":16222:16223   */\n      0x04\n        /* \"#utility.yul\":16215:16230   */\n      mstore\n        /* \"#utility.yul\":16249:16253   */\n      0x24\n        /* \"#utility.yul\":16246:16247   */\n      0x00\n        /* \"#utility.yul\":16239:16254   */\n      revert\n        /* \"#utility.yul\":16266:16457   */\n    tag_170:\n        /* \"#utility.yul\":16306:16310   */\n      0x00\n        /* \"#utility.yul\":16326:16346   */\n      tag_435\n        /* \"#utility.yul\":16344:16345   */\n      dup3\n        /* \"#utility.yul\":16326:16346   */\n      tag_236\n      jump\t// in\n    tag_435:\n        /* \"#utility.yul\":16321:16346   */\n      swap2\n      pop\n        /* \"#utility.yul\":16360:16380   */\n      tag_436\n        /* \"#utility.yul\":16378:16379   */\n      dup4\n        /* \"#utility.yul\":16360:16380   */\n      tag_236\n      jump\t// in\n    tag_436:\n        /* \"#utility.yul\":16355:16380   */\n      swap3\n      pop\n        /* \"#utility.yul\":16399:16400   */\n      dup3\n        /* \"#utility.yul\":16396:16397   */\n      dup3\n        /* \"#utility.yul\":16393:16401   */\n      lt\n        /* \"#utility.yul\":16390:16424   */\n      iszero\n      tag_437\n      jumpi\n        /* \"#utility.yul\":16404:16422   */\n      tag_438\n      tag_278\n      jump\t// in\n    tag_438:\n        /* \"#utility.yul\":16390:16424   */\n    tag_437:\n        /* \"#utility.yul\":16449:16450   */\n      dup3\n        /* \"#utility.yul\":16446:16447   */\n      dup3\n        /* \"#utility.yul\":16442:16451   */\n      sub\n        /* \"#utility.yul\":16434:16451   */\n      swap1\n      pop\n        /* \"#utility.yul\":16266:16457   */\n      swap3\n      swap2\n      pop\n      pop\n      jump\t// out\n        /* \"#utility.yul\":16463:16811   */\n    tag_172:\n        /* \"#utility.yul\":16503:16510   */\n      0x00\n        /* \"#utility.yul\":16526:16546   */\n      tag_440\n        /* \"#utility.yul\":16544:16545   */\n      dup3\n        /* \"#utility.yul\":16526:16546   */\n      tag_236\n      jump\t// in\n    tag_440:\n        /* \"#utility.yul\":16521:16546   */\n      swap2\n      pop\n        /* \"#utility.yul\":16560:16580   */\n      tag_441\n        /* \"#utility.yul\":16578:16579   */\n      dup4\n        /* \"#utility.yul\":16560:16580   */\n      tag_236\n      jump\t// in\n    tag_441:\n        /* \"#utility.yul\":16555:16580   */\n      swap3\n      pop\n        /* \"#utility.yul\":16748:16749   */\n      dup2\n        /* \"#utility.yul\":16680:16746   */\n      0xffffffffffffffffffffffffffffffffffffffffffffffffffffffffffffffff\n        /* \"#utility.yul\":16676:16750   */\n      div\n        /* \"#utility.yul\":16673:16674   */\n      dup4\n        /* \"#utility.yul\":16670:16751   */\n      gt\n        /* \"#utility.yul\":16665:16666   */\n      dup3\n        /* \"#utility.yul\":16658:16667   */\n      iszero\n        /* \"#utility.yul\":16651:16668   */\n      iszero\n        /* \"#utility.yul\":16647:16752   */\n      and\n        /* \"#utility.yul\":16644:16775   */\n      iszero\n      tag_442\n      jumpi\n        /* \"#utility.yul\":16755:16773   */\n      tag_443\n      tag_278\n      jump\t// in\n    tag_443:\n        /* \"#utility.yul\":16644:16775   */\n    tag_442:\n        /* \"#utility.yul\":16803:16804   */\n      dup3\n        /* \"#utility.yul\":16800:16801   */\n      dup3\n        /* \"#utility.yul\":16796:16805   */\n      mul\n        /* \"#utility.yul\":16785:16805   */\n      swap1\n      pop\n        /* \"#utility.yul\":16463:16811   */\n      swap3\n      swap2\n      pop\n      pop\n      jump\t// out\n        /* \"#utility.yul\":16817:16997   */\n    tag_279:\n        /* \"#utility.yul\":16865:16942   */\n      0x4e487b7100000000000000000000000000000000000000000000000000000000\n        /* \"#utility.yul\":16862:16863   */\n      0x00\n        /* \"#utility.yul\":16855:16943   */\n      mstore\n        /* \"#utility.yul\":16962:16966   */\n      0x12\n        /* \"#utility.yul\":16959:16960   */\n      0x04\n        /* \"#utility.yul\":16952:16967   */\n      mstore\n        /* \"#utility.yul\":16986:16990   */\n      0x24\n        /* \"#utility.yul\":16983:16984   */\n      0x00\n        /* \"#utility.yul\":16976:16991   */\n      revert\n        /* \"#utility.yul\":17003:17188   */\n    tag_174:\n        /* \"#utility.yul\":17043:17044   */\n      0x00\n        /* \"#utility.yul\":17060:17080   */\n      tag_446\n        /* \"#utility.yul\":17078:17079   */\n      dup3\n        /* \"#utility.yul\":17060:17080   */\n      tag_236\n      jump\t// in\n    tag_446:\n        /* \"#utility.yul\":17055:17080   */\n      swap2\n      pop\n        /* \"#utility.yul\":17094:17114   */\n      tag_447\n        /* \"#utility.yul\":17112:17113   */\n      dup4\n        /* \"#utility.yul\":17094:17114   */\n      tag_236\n      jump\t// in\n    tag_447:\n        /* \"#utility.yul\":17089:17114   */\n      swap3\n      pop\n        /* \"#utility.yul\":17133:17134   */\n      dup3\n        /* \"#utility.yul\":17123:17158   */\n      tag_448\n      jumpi\n        /* \"#utility.yul\":17138:17156   */\n      tag_449\n      tag_279\n      jump\t// in\n    tag_449:\n        /* \"#utility.yul\":17123:17158   */\n    tag_448:\n        /* \"#utility.yul\":17180:17181   */\n      dup3\n        /* \"#utility.yul\":17177:17178   */\n      dup3\n        /* \"#utility.yul\":17173:17182   */\n      div\n        /* \"#utility.yul\":17168:17182   */\n      swap1\n      pop\n        /* \"#utility.yul\":17003:17188   */\n      swap3\n      swap2\n      pop\n      pop\n      jump\t// out\n        /* \"#utility.yul\":17194:17374   */\n    tag_280:\n        /* \"#utility.yul\":17334:17366   */\n      0x4e6f7420656e6f75676820626c616e636520746f20706c616365206269640000\n        /* \"#utility.yul\":17330:17331   */\n      0x00\n        /* \"#utility.yul\":17322:17328   */\n      dup3\n        /* \"#utility.yul\":17318:17332   */\n      add\n        /* \"#utility.yul\":17311:17367   */\n      mstore\n        /* \"#utility.yul\":17194:17374   */\n      pop\n      jump\t// out\n        /* \"#utility.yul\":17380:17746   */\n    tag_281:\n        /* \"#utility.yul\":17522:17525   */\n      0x00\n        /* \"#utility.yul\":17543:17610   */\n      tag_452\n        /* \"#utility.yul\":17607:17609   */\n      0x1e\n        /* \"#utility.yul\":17602:17605   */\n      dup4\n        /* \"#utility.yul\":17543:17610   */\n      tag_262\n      jump\t// in\n    tag_452:\n        /* \"#utility.yul\":17536:17610   */\n      swap2\n      pop\n        /* \"#utility.yul\":17619:17712   */\n      tag_453\n        /* \"#utility.yul\":17708:17711   */\n      dup3\n        /* \"#utility.yul\":17619:17712   */\n      tag_280\n      jump\t// in\n    tag_453:\n        /* \"#utility.yul\":17737:17739   */\n      0x20\n        /* \"#utility.yul\":17732:17735   */\n      dup3\n        /* \"#utility.yul\":17728:17740   */\n      add\n        /* \"#utility.yul\":17721:17740   */\n      swap1\n      pop\n        /* \"#utility.yul\":17380:17746   */\n      swap2\n      swap1\n      pop\n      jump\t// out\n        /* \"#utility.yul\":17752:18171   */\n    tag_203:\n        /* \"#utility.yul\":17918:17922   */\n      0x00\n        /* \"#utility.yul\":17956:17958   */\n      0x20\n        /* \"#utility.yul\":17945:17954   */\n      dup3\n        /* \"#utility.yul\":17941:17959   */\n      add\n        /* \"#utility.yul\":17933:17959   */\n      swap1\n      pop\n        /* \"#utility.yul\":18005:18014   */\n      dup2\n        /* \"#utility.yul\":17999:18003   */\n      dup2\n        /* \"#utility.yul\":17995:18015   */\n      sub\n        /* \"#utility.yul\":17991:17992   */\n      0x00\n        /* \"#utility.yul\":17980:17989   */\n      dup4\n        /* \"#utility.yul\":17976:17993   */\n      add\n        /* \"#utility.yul\":17969:18016   */\n      mstore\n        /* \"#utility.yul\":18033:18164   */\n      tag_455\n        /* \"#utility.yul\":18159:18163   */\n      dup2\n        /* \"#utility.yul\":18033:18164   */\n      tag_281\n      jump\t// in\n    tag_455:\n        /* \"#utility.yul\":18025:18164   */\n      swap1\n      pop\n        /* \"#utility.yul\":17752:18171   */\n      swap2\n      swap1\n      pop\n      jump\t// out\n        /* \"#utility.yul\":18177:18254   */\n    tag_282:\n        /* \"#utility.yul\":18214:18221   */\n      0x00\n        /* \"#utility.yul\":18243:18248   */\n      dup2\n        /* \"#utility.yul\":18232:18248   */\n      swap1\n      pop\n        /* \"#utility.yul\":18177:18254   */\n      swap2\n      swap1\n      pop\n      jump\t// out\n        /* \"#utility.yul\":18260:18339   */\n    tag_283:\n        /* \"#utility.yul\":18299:18306   */\n      0x00\n        /* \"#utility.yul\":18328:18333   */\n      dup2\n        /* \"#utility.yul\":18317:18333   */\n      swap1\n      pop\n        /* \"#utility.yul\":18260:18339   */\n      swap2\n      swap1\n      pop\n      jump\t// out\n        /* \"#utility.yul\":18345:18502   */\n    tag_284:\n        /* \"#utility.yul\":18450:18495   */\n      tag_459\n        /* \"#utility.yul\":18470:18494   */\n      tag_460\n        /* \"#utility.yul\":18488:18493   */\n      dup3\n        /* \"#utility.yul\":18470:18494   */\n      tag_282\n      jump\t// in\n    tag_460:\n        /* \"#utility.yul\":18450:18495   */\n      tag_283\n      jump\t// in\n    tag_459:\n        /* \"#utility.yul\":18445:18448   */\n      dup3\n        /* \"#utility.yul\":18438:18496   */\n      mstore\n        /* \"#utility.yul\":18345:18502   */\n      pop\n      pop\n      jump\t// out\n        /* \"#utility.yul\":18508:18688   */\n    tag_285:\n        /* \"#utility.yul\":18676:18681   */\n      0x202c200000000000000000000000000000000000000000000000000000000000\n        /* \"#utility.yul\":18671:18674   */\n      dup2\n        /* \"#utility.yul\":18664:18682   */\n      mstore\n        /* \"#utility.yul\":18508:18688   */\n      pop\n      jump\t// out\n        /* \"#utility.yul\":18694:19355   */\n    tag_207:\n        /* \"#utility.yul\":18924:18927   */\n      0x00\n        /* \"#utility.yul\":18939:19014   */\n      tag_463\n        /* \"#utility.yul\":19010:19013   */\n      dup3\n        /* \"#utility.yul\":19001:19007   */\n      dup6\n        /* \"#utility.yul\":18939:19014   */\n      tag_284\n      jump\t// in\n    tag_463:\n        /* \"#utility.yul\":19039:19041   */\n      0x20\n        /* \"#utility.yul\":19034:19037   */\n      dup3\n        /* \"#utility.yul\":19030:19042   */\n      add\n        /* \"#utility.yul\":19023:19042   */\n      swap2\n      pop\n        /* \"#utility.yul\":19052:19189   */\n      tag_464\n        /* \"#utility.yul\":19185:19188   */\n      dup3\n        /* \"#utility.yul\":19052:19189   */\n      tag_285\n      jump\t// in\n    tag_464:\n        /* \"#utility.yul\":19214:19215   */\n      0x03\n        /* \"#utility.yul\":19209:19212   */\n      dup3\n        /* \"#utility.yul\":19205:19216   */\n      add\n        /* \"#utility.yul\":19198:19216   */\n      swap2\n      pop\n        /* \"#utility.yul\":19226:19301   */\n      tag_465\n        /* \"#utility.yul\":19297:19300   */\n      dup3\n        /* \"#utility.yul\":19288:19294   */\n      dup5\n        /* \"#utility.yul\":19226:19301   */\n      tag_284\n      jump\t// in\n    tag_465:\n        /* \"#utility.yul\":19326:19328   */\n      0x20\n        /* \"#utility.yul\":19321:19324   */\n      dup3\n        /* \"#utility.yul\":19317:19329   */\n      add\n        /* \"#utility.yul\":19310:19329   */\n      swap2\n      pop\n        /* \"#utility.yul\":19346:19349   */\n      dup2\n        /* \"#utility.yul\":19339:19349   */\n      swap1\n      pop\n        /* \"#utility.yul\":18694:19355   */\n      swap4\n      swap3\n      pop\n      pop\n      pop\n      jump\t// out\n        /* \"#utility.yul\":19361:19594   */\n    tag_215:\n        /* \"#utility.yul\":19400:19403   */\n      0x00\n        /* \"#utility.yul\":19423:19447   */\n      tag_467\n        /* \"#utility.yul\":19441:19446   */\n      dup3\n        /* \"#utility.yul\":19423:19447   */\n      tag_236\n      jump\t// in\n    tag_467:\n        /* \"#utility.yul\":19414:19447   */\n      swap2\n      pop\n        /* \"#utility.yul\":19469:19535   */\n      0xffffffffffffffffffffffffffffffffffffffffffffffffffffffffffffffff\n        /* \"#utility.yul\":19462:19467   */\n      dup3\n        /* \"#utility.yul\":19459:19536   */\n      sub\n        /* \"#utility.yul\":19456:19559   */\n      tag_468\n      jumpi\n        /* \"#utility.yul\":19539:19557   */\n      tag_469\n      tag_278\n      jump\t// in\n    tag_469:\n        /* \"#utility.yul\":19456:19559   */\n    tag_468:\n        /* \"#utility.yul\":19586:19587   */\n      0x01\n        /* \"#utility.yul\":19579:19584   */\n      dup3\n        /* \"#utility.yul\":19575:19588   */\n      add\n        /* \"#utility.yul\":19568:19588   */\n      swap1\n      pop\n        /* \"#utility.yul\":19361:19594   */\n      swap2\n      swap1\n      pop\n      jump\t// out\n        /* \"#utility.yul\":19600:19696   */\n    tag_286:\n        /* \"#utility.yul\":19637:19644   */\n      0x00\n        /* \"#utility.yul\":19666:19690   */\n      tag_471\n        /* \"#utility.yul\":19684:19689   */\n      dup3\n        /* \"#utility.yul\":19666:19690   */\n      tag_250\n      jump\t// in\n    tag_471:\n        /* \"#utility.yul\":19655:19690   */\n      swap1\n      pop\n        /* \"#utility.yul\":19600:19696   */\n      swap2\n      swap1\n      pop\n      jump\t// out\n        /* \"#utility.yul\":19702:19820   */\n    tag_287:\n        /* \"#utility.yul\":19789:19813   */\n      tag_473\n        /* \"#utility.yul\":19807:19812   */\n      dup2\n        /* \"#utility.yul\":19789:19813   */\n      tag_286\n      jump\t// in\n    tag_473:\n        /* \"#utility.yul\":19784:19787   */\n      dup3\n        /* \"#utility.yul\":19777:19814   */\n      mstore\n        /* \"#utility.yul\":19702:19820   */\n      pop\n      pop\n      jump\t// out\n        /* \"#utility.yul\":19826:19911   */\n    tag_288:\n        /* \"#utility.yul\":19871:19878   */\n      0x00\n        /* \"#utility.yul\":19900:19905   */\n      dup2\n        /* \"#utility.yul\":19889:19905   */\n      swap1\n      pop\n        /* \"#utility.yul\":19826:19911   */\n      swap2\n      swap1\n      pop\n      jump\t// out\n        /* \"#utility.yul\":19917:19977   */\n    tag_289:\n        /* \"#utility.yul\":19945:19948   */\n      0x00\n        /* \"#utility.yul\":19966:19971   */\n      dup2\n        /* \"#utility.yul\":19959:19971   */\n      swap1\n      pop\n        /* \"#utility.yul\":19917:19977   */\n      swap2\n      swap1\n      pop\n      jump\t// out\n        /* \"#utility.yul\":19983:20141   */\n    tag_290:\n        /* \"#utility.yul\":20041:20050   */\n      0x00\n        /* \"#utility.yul\":20074:20135   */\n      tag_477\n        /* \"#utility.yul\":20092:20134   */\n      tag_478\n        /* \"#utility.yul\":20101:20133   */\n      tag_479\n        /* \"#utility.yul\":20127:20132   */\n      dup5\n        /* \"#utility.yul\":20101:20133   */\n      tag_288\n      jump\t// in\n    tag_479:\n        /* \"#utility.yul\":20092:20134   */\n      tag_289\n      jump\t// in\n    tag_478:\n        /* \"#utility.yul\":20074:20135   */\n      tag_236\n      jump\t// in\n    tag_477:\n        /* \"#utility.yul\":20061:20135   */\n      swap1\n      pop\n        /* \"#utility.yul\":19983:20141   */\n      swap2\n      swap1\n      pop\n      jump\t// out\n        /* \"#utility.yul\":20147:20294   */\n    tag_291:\n        /* \"#utility.yul\":20242:20287   */\n      tag_481\n        /* \"#utility.yul\":20281:20286   */\n      dup2\n        /* \"#utility.yul\":20242:20287   */\n      tag_290\n      jump\t// in\n    tag_481:\n        /* \"#utility.yul\":20237:20240   */\n      dup3\n        /* \"#utility.yul\":20230:20288   */\n      mstore\n        /* \"#utility.yul\":20147:20294   */\n      pop\n      pop\n      jump\t// out\n        /* \"#utility.yul\":20300:21327   */\n    tag_221:\n        /* \"#utility.yul\":20604:20608   */\n      0x00\n        /* \"#utility.yul\":20642:20645   */\n      0x0100\n        /* \"#utility.yul\":20631:20640   */\n      dup3\n        /* \"#utility.yul\":20627:20646   */\n      add\n        /* \"#utility.yul\":20619:20646   */\n      swap1\n      pop\n        /* \"#utility.yul\":20656:20727   */\n      tag_483\n        /* \"#utility.yul\":20724:20725   */\n      0x00\n        /* \"#utility.yul\":20713:20722   */\n      dup4\n        /* \"#utility.yul\":20709:20726   */\n      add\n        /* \"#utility.yul\":20700:20706   */\n      dup12\n        /* \"#utility.yul\":20656:20727   */\n      tag_287\n      jump\t// in\n    tag_483:\n        /* \"#utility.yul\":20737:20809   */\n      tag_484\n        /* \"#utility.yul\":20805:20807   */\n      0x20\n        /* \"#utility.yul\":20794:20803   */\n      dup4\n        /* \"#utility.yul\":20790:20808   */\n      add\n        /* \"#utility.yul\":20781:20787   */\n      dup11\n        /* \"#utility.yul\":20737:20809   */\n      tag_246\n      jump\t// in\n    tag_484:\n        /* \"#utility.yul\":20819:20891   */\n      tag_485\n        /* \"#utility.yul\":20887:20889   */\n      0x40\n        /* \"#utility.yul\":20876:20885   */\n      dup4\n        /* \"#utility.yul\":20872:20890   */\n      add\n        /* \"#utility.yul\":20863:20869   */\n      dup10\n        /* \"#utility.yul\":20819:20891   */\n      tag_246\n      jump\t// in\n    tag_485:\n        /* \"#utility.yul\":20901:20978   */\n      tag_486\n        /* \"#utility.yul\":20974:20976   */\n      0x60\n        /* \"#utility.yul\":20963:20972   */\n      dup4\n        /* \"#utility.yul\":20959:20977   */\n      add\n        /* \"#utility.yul\":20950:20956   */\n      dup9\n        /* \"#utility.yul\":20901:20978   */\n      tag_266\n      jump\t// in\n    tag_486:\n        /* \"#utility.yul\":20988:21061   */\n      tag_487\n        /* \"#utility.yul\":21056:21059   */\n      0x80\n        /* \"#utility.yul\":21045:21054   */\n      dup4\n        /* \"#utility.yul\":21041:21060   */\n      add\n        /* \"#utility.yul\":21032:21038   */\n      dup8\n        /* \"#utility.yul\":20988:21061   */\n      tag_246\n      jump\t// in\n    tag_487:\n        /* \"#utility.yul\":21071:21152   */\n      tag_488\n        /* \"#utility.yul\":21147:21150   */\n      0xa0\n        /* \"#utility.yul\":21136:21145   */\n      dup4\n        /* \"#utility.yul\":21132:21151   */\n      add\n        /* \"#utility.yul\":21123:21129   */\n      dup7\n        /* \"#utility.yul\":21071:21152   */\n      tag_291\n      jump\t// in\n    tag_488:\n        /* \"#utility.yul\":21162:21243   */\n      tag_489\n        /* \"#utility.yul\":21238:21241   */\n      0xc0\n        /* \"#utility.yul\":21227:21236   */\n      dup4\n        /* \"#utility.yul\":21223:21242   */\n      add\n        /* \"#utility.yul\":21214:21220   */\n      dup6\n        /* \"#utility.yul\":21162:21243   */\n      tag_291\n      jump\t// in\n    tag_489:\n        /* \"#utility.yul\":21253:21320   */\n      tag_490\n        /* \"#utility.yul\":21315:21318   */\n      0xe0\n        /* \"#utility.yul\":21304:21313   */\n      dup4\n        /* \"#utility.yul\":21300:21319   */\n      add\n        /* \"#utility.yul\":21291:21297   */\n      dup5\n        /* \"#utility.yul\":21253:21320   */\n      tag_269\n      jump\t// in\n    tag_490:\n        /* \"#utility.yul\":20300:21327   */\n      swap10\n      swap9\n      pop\n      pop\n      pop\n      pop\n      pop\n      pop\n      pop\n      pop\n      pop\n      jump\t// out\n\n    auxdata: 0xa264697066735822122072631f39d1f05b0a9362e5826213685d2d5e0712334fe91b4aef45a81e3400ed64736f6c634300080d0033\n}\n",
				"bytecode": {
					"linkReferences": {},
					"object": "608060405233600160006101000a81548173ffffffffffffffffffffffffffffffffffffffff021916908373ffffffffffffffffffffffffffffffffffffffff1602179055503480156200005257600080fd5b5060405162001d4038038062001d408339818101604052810190620000789190620000f6565b80600281905550600060048190555060006005819055506000600681905550600060088190555060006009819055506000600a819055505062000128565b600080fd5b6000819050919050565b620000d081620000bb565b8114620000dc57600080fd5b50565b600081519050620000f081620000c5565b92915050565b6000602082840312156200010f576200010e620000b6565b5b60006200011f84828501620000df565b91505092915050565b611c0880620001386000396000f3fe6080604052600436106101355760003560e01c8063801d9bbd116100ab578063bf77ffae1161006f578063bf77ffae14610410578063c12bcf491461044d578063ce0cdc871461048a578063d09ef241146104b5578063db3a1396146104f9578063ecdfb8601461053657610135565b8063801d9bbd1461034a5780639703ef35146103755780639979ef451461039e578063a394fda7146103ba578063b40a5627146103e557610135565b80634d46712d116100fd5780634d46712d1461022157806369f632e21461025e5780636e5b0f001461029b578063734a2e78146102c657806378c5b268146103035780637bb511931461031f57610135565b8063122de8f21461013a5780631628e0f5146101655780632db6dfa71461018e5780634471417f146101cb57806344e791e0146101f6575b600080fd5b34801561014657600080fd5b5061014f610561565b60405161015c9190611238565b60405180910390f35b34801561017157600080fd5b5061018c6004803603810190610187919061128b565b610566565b005b34801561019a57600080fd5b506101b560048036038101906101b0919061128b565b61080c565b6040516101c291906112c7565b60405180910390f35b3480156101d757600080fd5b506101e061082c565b6040516101ed91906114d7565b60405180910390f35b34801561020257600080fd5b5061020b610831565b6040516102189190611592565b60405180910390f35b34801561022d57600080fd5b506102486004803603810190610243919061128b565b610873565b60405161025591906115c3565b60405180910390f35b34801561026a57600080fd5b506102856004803603810190610280919061128b565b6108a0565b60405161029291906115ed565b60405180910390f35b3480156102a757600080fd5b506102b06108e0565b6040516102bd91906112c7565b60405180910390f35b3480156102d257600080fd5b506102ed60048036038101906102e8919061128b565b6108e6565b6040516102fa91906115ed565b60405180910390f35b61031d6004803603810190610318919061128b565b610926565b005b34801561032b57600080fd5b506103346109fa565b60405161034191906112c7565b60405180910390f35b34801561035657600080fd5b5061035f610a00565b60405161036c91906112c7565b60405180910390f35b34801561038157600080fd5b5061039c6004803603810190610397919061128b565b610a06565b005b6103b860048036038101906103b3919061128b565b610cac565b005b3480156103c657600080fd5b506103cf610d36565b6040516103dc91906112c7565b60405180910390f35b3480156103f157600080fd5b506103fa610d3c565b60405161040791906112c7565b60405180910390f35b34801561041c57600080fd5b506104376004803603810190610432919061128b565b610d42565b60405161044491906115c3565b60405180910390f35b34801561045957600080fd5b50610474600480360381019061046f9190611608565b610d6f565b6040516104819190611592565b60405180910390f35b34801561049657600080fd5b5061049f610da1565b6040516104ac9190611238565b60405180910390f35b3480156104c157600080fd5b506104dc60048036038101906104d7919061128b565b610da6565b6040516104f0989796959493929190611663565b60405180910390f35b34801561050557600080fd5b50610520600480360381019061051b919061128b565b610dbd565b60405161052d91906112c7565b60405180910390f35b34801561054257600080fd5b5061054b610ddd565b60405161055891906112c7565b60405180910390f35b606090565b600760008281526020019081526020016000206040518060e00160405290816000820160009054906101000a900473ffffffffffffffffffffffffffffffffffffffff1673ffffffffffffffffffffffffffffffffffffffff1673ffffffffffffffffffffffffffffffffffffffff16815260200160018201548152602001600282015481526020016003820160009054906101000a900460ff1660018111156106135761061261134f565b5b60018111156106255761062461134f565b5b815260200160048201548152602001600582015481526020016006820154815250506000600181111561065b5761065a61134f565b5b816060015160018111156106725761067161134f565b5b146106b2576040517f08c379a00000000000000000000000000000000000000000000000000000000081526004016106a99061172d565b60405180910390fd5b600760008381526020019081526020016000206040518060e00160405290816000820160009054906101000a900473ffffffffffffffffffffffffffffffffffffffff1673ffffffffffffffffffffffffffffffffffffffff1673ffffffffffffffffffffffffffffffffffffffff16815260200160018201548152602001600282015481526020016003820160009054906101000a900460ff16600181111561075f5761075e61134f565b5b60018111156107715761077061134f565b5b81526020016004820154815260200160058201548152602001600682015481525050338073ffffffffffffffffffffffffffffffffffffffff16826000015173ffffffffffffffffffffffffffffffffffffffff1614610806576040517f08c379a00000000000000000000000000000000000000000000000000000000081526004016107fd90611799565b60405180910390fd5b50505050565b600060036000838152602001908152602001600020600101549050919050565b606090565b6060600060085490505b6000811461086f576000600760008381526020019081526020016000206005015490506108688282610d6f565b505061083b565b5090565b60006007600083815260200190815260200160002060030160009054906101000a900460ff169050919050565b60006003600083815260200190815260200160002060000160009054906101000a900473ffffffffffffffffffffffffffffffffffffffff169050919050565b60045481565b60006007600083815260200190815260200160002060000160009054906101000a900473ffffffffffffffffffffffffffffffffffffffff169050919050565b600081101561096a576040517f08c379a000000000000000000000000000000000000000000000000000000000815260040161096190611805565b60405180910390fd5b803410156109ad576040517f08c379a00000000000000000000000000000000000000000000000000000000081526004016109a490611871565b60405180910390fd5b60004290506000606460025460646109c591906118c0565b346109d091906118f4565b6109da919061197d565b905060006109e9338484610de3565b90506109f481610f7e565b50505050565b60055481565b60085481565b600360008281526020019081526020016000206040518060e00160405290816000820160009054906101000a900473ffffffffffffffffffffffffffffffffffffffff1673ffffffffffffffffffffffffffffffffffffffff1673ffffffffffffffffffffffffffffffffffffffff16815260200160018201548152602001600282015481526020016003820160009054906101000a900460ff166001811115610ab357610ab261134f565b5b6001811115610ac557610ac461134f565b5b8152602001600482015481526020016005820154815260200160068201548152505060006001811115610afb57610afa61134f565b5b81606001516001811115610b1257610b1161134f565b5b14610b52576040517f08c379a0000000000000000000000000000000000000000000000000000000008152600401610b499061172d565b60405180910390fd5b600360008381526020019081526020016000206040518060e00160405290816000820160009054906101000a900473ffffffffffffffffffffffffffffffffffffffff1673ffffffffffffffffffffffffffffffffffffffff1673ffffffffffffffffffffffffffffffffffffffff16815260200160018201548152602001600282015481526020016003820160009054906101000a900460ff166001811115610bff57610bfe61134f565b5b6001811115610c1157610c1061134f565b5b81526020016004820154815260200160058201548152602001600682015481525050338073ffffffffffffffffffffffffffffffffffffffff16826000015173ffffffffffffffffffffffffffffffffffffffff1614610ca6576040517f08c379a0000000000000000000000000000000000000000000000000000000008152600401610c9d90611799565b60405180910390fd5b50505050565b6000811015610cf0576040517f08c379a0000000000000000000000000000000000000000000000000000000008152600401610ce790611805565b60405180910390fd5b80341015610d33576040517f08c379a0000000000000000000000000000000000000000000000000000000008152600401610d2a906119fa565b60405180910390fd5b50565b600a5481565b60065481565b60006003600083815260200190815260200160002060030160009054906101000a900460ff169050919050565b60608260001b8260001b604051602001610d8a929190611a6b565b604051602081830303815290604052905092915050565b606090565b600080600080600080600080919395975091939597565b600060076000838152602001908152602001600020600101549050919050565b60095481565b610deb61110b565b600a6000815480929190610dfe90611aa6565b919050555060006040518060e001604052808673ffffffffffffffffffffffffffffffffffffffff16815260200185815260200184815260200160006001811115610e4c57610e4b61134f565b5b8152602001600a54815260200160008152602001600081525090508060076000600a54815260200190815260200160002060008201518160000160006101000a81548173ffffffffffffffffffffffffffffffffffffffff021916908373ffffffffffffffffffffffffffffffffffffffff160217905550602082015181600101556040820151816002015560608201518160030160006101000a81548160ff02191690836001811115610f0357610f0261134f565b5b02179055506080820151816004015560a0820151816005015560c082015181600601559050507f93caf6ba1af44020dfe6076e279533e38bd8deefe534c43aa8cc93aad2025b7d8585856000600a546000806000604051610f6b989796959493929190611b54565b60405180910390a1809150509392505050565b60008060085403610f99578160800151600881905550611107565b81602001516007600060085481526020019081526020016000206001015410610ffb576008548260a00181815250508160800151600760008460a001518152602001908152602001600020600601819055508160800151600881905550611106565b60085490505b600060076000838152602001908152602001600020600501541415801561105757508160200151600760006007600085815260200190815260200160002060050154815260200190815260200160002060010154105b1561107a5760076000828152602001908152602001600020600501549050611001565b60076000828152602001908152602001600020600501548260a001818152505060006007600083815260200190815260200160002060050154146110dc578160800151600760008460a001518152602001908152602001600020600601819055505b81608001516007600083815260200190815260200160002060050181905550808260c00181815250505b5b5050565b6040518060e00160405280600073ffffffffffffffffffffffffffffffffffffffff1681526020016000815260200160008152602001600060018111156111555761115461134f565b5b81526020016000815260200160008152602001600081525090565b600081519050919050565b600082825260208201905092915050565b6000819050602082019050919050565b6000819050919050565b6111af8161119c565b82525050565b60006111c183836111a6565b60208301905092915050565b6000602082019050919050565b60006111e582611170565b6111ef818561117b565b93506111fa8361118c565b8060005b8381101561122b57815161121288826111b5565b975061121d836111cd565b9250506001810190506111fe565b5085935050505092915050565b6000602082019050818103600083015261125281846111da565b905092915050565b600080fd5b6112688161119c565b811461127357600080fd5b50565b6000813590506112858161125f565b92915050565b6000602082840312156112a1576112a061125a565b5b60006112af84828501611276565b91505092915050565b6112c18161119c565b82525050565b60006020820190506112dc60008301846112b8565b92915050565b600081519050919050565b600082825260208201905092915050565b6000819050602082019050919050565b600073ffffffffffffffffffffffffffffffffffffffff82169050919050565b60006113398261130e565b9050919050565b6113498161132e565b82525050565b7f4e487b7100000000000000000000000000000000000000000000000000000000600052602160045260246000fd5b6002811061138f5761138e61134f565b5b50565b60008190506113a08261137e565b919050565b60006113b082611392565b9050919050565b6113c0816113a5565b82525050565b60e0820160008201516113dc6000850182611340565b5060208201516113ef60208501826111a6565b50604082015161140260408501826111a6565b50606082015161141560608501826113b7565b50608082015161142860808501826111a6565b5060a082015161143b60a08501826111a6565b5060c082015161144e60c08501826111a6565b50505050565b600061146083836113c6565b60e08301905092915050565b6000602082019050919050565b6000611484826112e2565b61148e81856112ed565b9350611499836112fe565b8060005b838110156114ca5781516114b18882611454565b97506114bc8361146c565b92505060018101905061149d565b5085935050505092915050565b600060208201905081810360008301526114f18184611479565b905092915050565b600081519050919050565b600082825260208201905092915050565b60005b83811015611533578082015181840152602081019050611518565b83811115611542576000848401525b50505050565b6000601f19601f8301169050919050565b6000611564826114f9565b61156e8185611504565b935061157e818560208601611515565b61158781611548565b840191505092915050565b600060208201905081810360008301526115ac8184611559565b905092915050565b6115bd816113a5565b82525050565b60006020820190506115d860008301846115b4565b92915050565b6115e78161132e565b82525050565b600060208201905061160260008301846115de565b92915050565b6000806040838503121561161f5761161e61125a565b5b600061162d85828601611276565b925050602061163e85828601611276565b9150509250929050565b60008115159050919050565b61165d81611648565b82525050565b600061010082019050611679600083018b6115de565b611686602083018a6112b8565b61169360408301896112b8565b6116a060608301886115b4565b6116ad60808301876112b8565b6116ba60a08301866112b8565b6116c760c08301856112b8565b6116d460e0830184611654565b9998505050505050505050565b7f4f726465722050656e64696e6700000000000000000000000000000000000000600082015250565b6000611717600d83611504565b9150611722826116e1565b602082019050919050565b600060208201905081810360008301526117468161170a565b9050919050565b7f4e6f7420417574686f7269736564000000000000000000000000000000000000600082015250565b6000611783600e83611504565b915061178e8261174d565b602082019050919050565b600060208201905081810360008301526117b281611776565b9050919050565b7f70726963652076616c7565206d757374206265206d6f7265207468616e203000600082015250565b60006117ef601f83611504565b91506117fa826117b9565b602082019050919050565b6000602082019050818103600083015261181e816117e2565b9050919050565b7f4e6f7420656e6f75676820626c616e636520746f20706c6163652061736b0000600082015250565b600061185b601e83611504565b915061186682611825565b602082019050919050565b6000602082019050818103600083015261188a8161184e565b9050919050565b7f4e487b7100000000000000000000000000000000000000000000000000000000600052601160045260246000fd5b60006118cb8261119c565b91506118d68361119c565b9250828210156118e9576118e8611891565b5b828203905092915050565b60006118ff8261119c565b915061190a8361119c565b9250817fffffffffffffffffffffffffffffffffffffffffffffffffffffffffffffffff048311821515161561194357611942611891565b5b828202905092915050565b7f4e487b7100000000000000000000000000000000000000000000000000000000600052601260045260246000fd5b60006119888261119c565b91506119938361119c565b9250826119a3576119a261194e565b5b828204905092915050565b7f4e6f7420656e6f75676820626c616e636520746f20706c616365206269640000600082015250565b60006119e4601e83611504565b91506119ef826119ae565b602082019050919050565b60006020820190508181036000830152611a13816119d7565b9050919050565b6000819050919050565b6000819050919050565b611a3f611a3a82611a1a565b611a24565b82525050565b7f202c200000000000000000000000000000000000000000000000000000000000815250565b6000611a778285611a2e565b602082019150611a8682611a45565b600382019150611a968284611a2e565b6020820191508190509392505050565b6000611ab18261119c565b91507fffffffffffffffffffffffffffffffffffffffffffffffffffffffffffffffff8203611ae357611ae2611891565b5b600182019050919050565b6000611af98261130e565b9050919050565b611b0981611aee565b82525050565b6000819050919050565b6000819050919050565b6000611b3e611b39611b3484611b0f565b611b19565b61119c565b9050919050565b611b4e81611b23565b82525050565b600061010082019050611b6a600083018b611b00565b611b77602083018a6112b8565b611b8460408301896112b8565b611b9160608301886115b4565b611b9e60808301876112b8565b611bab60a0830186611b45565b611bb860c0830185611b45565b611bc560e0830184611654565b999850505050505050505056fea264697066735822122072631f39d1f05b0a9362e5826213685d2d5e0712334fe91b4aef45a81e3400ed64736f6c634300080d0033",
					"opcodes": "PUSH1 0x80 PUSH1 0x40 MSTORE CALLER PUSH1 0x1 PUSH1 0x0 PUSH2 0x100 EXP DUP2 SLOAD DUP2 PUSH20 0xFFFFFFFFFFFFFFFFFFFFFFFFFFFFFFFFFFFFFFFF MUL NOT AND SWAP1 DUP4 PUSH20 0xFFFFFFFFFFFFFFFFFFFFFFFFFFFFFFFFFFFFFFFF AND MUL OR SWAP1 SSTORE POP CALLVALUE DUP1 ISZERO PUSH3 0x52 JUMPI PUSH1 0x0 DUP1 REVERT JUMPDEST POP PUSH1 0x40 MLOAD PUSH3 0x1D40 CODESIZE SUB DUP1 PUSH3 0x1D40 DUP4 CODECOPY DUP2 DUP2 ADD PUSH1 0x40 MSTORE DUP2 ADD SWAP1 PUSH3 0x78 SWAP2 SWAP1 PUSH3 0xF6 JUMP JUMPDEST DUP1 PUSH1 0x2 DUP2 SWAP1 SSTORE POP PUSH1 0x0 PUSH1 0x4 DUP2 SWAP1 SSTORE POP PUSH1 0x0 PUSH1 0x5 DUP2 SWAP1 SSTORE POP PUSH1 0x0 PUSH1 0x6 DUP2 SWAP1 SSTORE POP PUSH1 0x0 PUSH1 0x8 DUP2 SWAP1 SSTORE POP PUSH1 0x0 PUSH1 0x9 DUP2 SWAP1 SSTORE POP PUSH1 0x0 PUSH1 0xA DUP2 SWAP1 SSTORE POP POP PUSH3 0x128 JUMP JUMPDEST PUSH1 0x0 DUP1 REVERT JUMPDEST PUSH1 0x0 DUP2 SWAP1 POP SWAP2 SWAP1 POP JUMP JUMPDEST PUSH3 0xD0 DUP2 PUSH3 0xBB JUMP JUMPDEST DUP2 EQ PUSH3 0xDC JUMPI PUSH1 0x0 DUP1 REVERT JUMPDEST POP JUMP JUMPDEST PUSH1 0x0 DUP2 MLOAD SWAP1 POP PUSH3 0xF0 DUP2 PUSH3 0xC5 JUMP JUMPDEST SWAP3 SWAP2 POP POP JUMP JUMPDEST PUSH1 0x0 PUSH1 0x20 DUP3 DUP5 SUB SLT ISZERO PUSH3 0x10F JUMPI PUSH3 0x10E PUSH3 0xB6 JUMP JUMPDEST JUMPDEST PUSH1 0x0 PUSH3 0x11F DUP5 DUP3 DUP6 ADD PUSH3 0xDF JUMP JUMPDEST SWAP2 POP POP SWAP3 SWAP2 POP POP JUMP JUMPDEST PUSH2 0x1C08 DUP1 PUSH3 0x138 PUSH1 0x0 CODECOPY PUSH1 0x0 RETURN INVALID PUSH1 0x80 PUSH1 0x40 MSTORE PUSH1 0x4 CALLDATASIZE LT PUSH2 0x135 JUMPI PUSH1 0x0 CALLDATALOAD PUSH1 0xE0 SHR DUP1 PUSH4 0x801D9BBD GT PUSH2 0xAB JUMPI DUP1 PUSH4 0xBF77FFAE GT PUSH2 0x6F JUMPI DUP1 PUSH4 0xBF77FFAE EQ PUSH2 0x410 JUMPI DUP1 PUSH4 0xC12BCF49 EQ PUSH2 0x44D JUMPI DUP1 PUSH4 0xCE0CDC87 EQ PUSH2 0x48A JUMPI DUP1 PUSH4 0xD09EF241 EQ PUSH2 0x4B5 JUMPI DUP1 PUSH4 0xDB3A1396 EQ PUSH2 0x4F9 JUMPI DUP1 PUSH4 0xECDFB860 EQ PUSH2 0x536 JUMPI PUSH2 0x135 JUMP JUMPDEST DUP1 PUSH4 0x801D9BBD EQ PUSH2 0x34A JUMPI DUP1 PUSH4 0x9703EF35 EQ PUSH2 0x375 JUMPI DUP1 PUSH4 0x9979EF45 EQ PUSH2 0x39E JUMPI DUP1 PUSH4 0xA394FDA7 EQ PUSH2 0x3BA JUMPI DUP1 PUSH4 0xB40A5627 EQ PUSH2 0x3E5 JUMPI PUSH2 0x135 JUMP JUMPDEST DUP1 PUSH4 0x4D46712D GT PUSH2 0xFD JUMPI DUP1 PUSH4 0x4D46712D EQ PUSH2 0x221 JUMPI DUP1 PUSH4 0x69F632E2 EQ PUSH2 0x25E JUMPI DUP1 PUSH4 0x6E5B0F00 EQ PUSH2 0x29B JUMPI DUP1 PUSH4 0x734A2E78 EQ PUSH2 0x2C6 JUMPI DUP1 PUSH4 0x78C5B268 EQ PUSH2 0x303 JUMPI DUP1 PUSH4 0x7BB51193 EQ PUSH2 0x31F JUMPI PUSH2 0x135 JUMP JUMPDEST DUP1 PUSH4 0x122DE8F2 EQ PUSH2 0x13A JUMPI DUP1 PUSH4 0x1628E0F5 EQ PUSH2 0x165 JUMPI DUP1 PUSH4 0x2DB6DFA7 EQ PUSH2 0x18E JUMPI DUP1 PUSH4 0x4471417F EQ PUSH2 0x1CB JUMPI DUP1 PUSH4 0x44E791E0 EQ PUSH2 0x1F6 JUMPI JUMPDEST PUSH1 0x0 DUP1 REVERT JUMPDEST CALLVALUE DUP1 ISZERO PUSH2 0x146 JUMPI PUSH1 0x0 DUP1 REVERT JUMPDEST POP PUSH2 0x14F PUSH2 0x561 JUMP JUMPDEST PUSH1 0x40 MLOAD PUSH2 0x15C SWAP2 SWAP1 PUSH2 0x1238 JUMP JUMPDEST PUSH1 0x40 MLOAD DUP1 SWAP2 SUB SWAP1 RETURN JUMPDEST CALLVALUE DUP1 ISZERO PUSH2 0x171 JUMPI PUSH1 0x0 DUP1 REVERT JUMPDEST POP PUSH2 0x18C PUSH1 0x4 DUP1 CALLDATASIZE SUB DUP2 ADD SWAP1 PUSH2 0x187 SWAP2 SWAP1 PUSH2 0x128B JUMP JUMPDEST PUSH2 0x566 JUMP JUMPDEST STOP JUMPDEST CALLVALUE DUP1 ISZERO PUSH2 0x19A JUMPI PUSH1 0x0 DUP1 REVERT JUMPDEST POP PUSH2 0x1B5 PUSH1 0x4 DUP1 CALLDATASIZE SUB DUP2 ADD SWAP1 PUSH2 0x1B0 SWAP2 SWAP1 PUSH2 0x128B JUMP JUMPDEST PUSH2 0x80C JUMP JUMPDEST PUSH1 0x40 MLOAD PUSH2 0x1C2 SWAP2 SWAP1 PUSH2 0x12C7 JUMP JUMPDEST PUSH1 0x40 MLOAD DUP1 SWAP2 SUB SWAP1 RETURN JUMPDEST CALLVALUE DUP1 ISZERO PUSH2 0x1D7 JUMPI PUSH1 0x0 DUP1 REVERT JUMPDEST POP PUSH2 0x1E0 PUSH2 0x82C JUMP JUMPDEST PUSH1 0x40 MLOAD PUSH2 0x1ED SWAP2 SWAP1 PUSH2 0x14D7 JUMP JUMPDEST PUSH1 0x40 MLOAD DUP1 SWAP2 SUB SWAP1 RETURN JUMPDEST CALLVALUE DUP1 ISZERO PUSH2 0x202 JUMPI PUSH1 0x0 DUP1 REVERT JUMPDEST POP PUSH2 0x20B PUSH2 0x831 JUMP JUMPDEST PUSH1 0x40 MLOAD PUSH2 0x218 SWAP2 SWAP1 PUSH2 0x1592 JUMP JUMPDEST PUSH1 0x40 MLOAD DUP1 SWAP2 SUB SWAP1 RETURN JUMPDEST CALLVALUE DUP1 ISZERO PUSH2 0x22D JUMPI PUSH1 0x0 DUP1 REVERT JUMPDEST POP PUSH2 0x248 PUSH1 0x4 DUP1 CALLDATASIZE SUB DUP2 ADD SWAP1 PUSH2 0x243 SWAP2 SWAP1 PUSH2 0x128B JUMP JUMPDEST PUSH2 0x873 JUMP JUMPDEST PUSH1 0x40 MLOAD PUSH2 0x255 SWAP2 SWAP1 PUSH2 0x15C3 JUMP JUMPDEST PUSH1 0x40 MLOAD DUP1 SWAP2 SUB SWAP1 RETURN JUMPDEST CALLVALUE DUP1 ISZERO PUSH2 0x26A JUMPI PUSH1 0x0 DUP1 REVERT JUMPDEST POP PUSH2 0x285 PUSH1 0x4 DUP1 CALLDATASIZE SUB DUP2 ADD SWAP1 PUSH2 0x280 SWAP2 SWAP1 PUSH2 0x128B JUMP JUMPDEST PUSH2 0x8A0 JUMP JUMPDEST PUSH1 0x40 MLOAD PUSH2 0x292 SWAP2 SWAP1 PUSH2 0x15ED JUMP JUMPDEST PUSH1 0x40 MLOAD DUP1 SWAP2 SUB SWAP1 RETURN JUMPDEST CALLVALUE DUP1 ISZERO PUSH2 0x2A7 JUMPI PUSH1 0x0 DUP1 REVERT JUMPDEST POP PUSH2 0x2B0 PUSH2 0x8E0 JUMP JUMPDEST PUSH1 0x40 MLOAD PUSH2 0x2BD SWAP2 SWAP1 PUSH2 0x12C7 JUMP JUMPDEST PUSH1 0x40 MLOAD DUP1 SWAP2 SUB SWAP1 RETURN JUMPDEST CALLVALUE DUP1 ISZERO PUSH2 0x2D2 JUMPI PUSH1 0x0 DUP1 REVERT JUMPDEST POP PUSH2 0x2ED PUSH1 0x4 DUP1 CALLDATASIZE SUB DUP2 ADD SWAP1 PUSH2 0x2E8 SWAP2 SWAP1 PUSH2 0x128B JUMP JUMPDEST PUSH2 0x8E6 JUMP JUMPDEST PUSH1 0x40 MLOAD PUSH2 0x2FA SWAP2 SWAP1 PUSH2 0x15ED JUMP JUMPDEST PUSH1 0x40 MLOAD DUP1 SWAP2 SUB SWAP1 RETURN JUMPDEST PUSH2 0x31D PUSH1 0x4 DUP1 CALLDATASIZE SUB DUP2 ADD SWAP1 PUSH2 0x318 SWAP2 SWAP1 PUSH2 0x128B JUMP JUMPDEST PUSH2 0x926 JUMP JUMPDEST STOP JUMPDEST CALLVALUE DUP1 ISZERO PUSH2 0x32B JUMPI PUSH1 0x0 DUP1 REVERT JUMPDEST POP PUSH2 0x334 PUSH2 0x9FA JUMP JUMPDEST PUSH1 0x40 MLOAD PUSH2 0x341 SWAP2 SWAP1 PUSH2 0x12C7 JUMP JUMPDEST PUSH1 0x40 MLOAD DUP1 SWAP2 SUB SWAP1 RETURN JUMPDEST CALLVALUE DUP1 ISZERO PUSH2 0x356 JUMPI PUSH1 0x0 DUP1 REVERT JUMPDEST POP PUSH2 0x35F PUSH2 0xA00 JUMP JUMPDEST PUSH1 0x40 MLOAD PUSH2 0x36C SWAP2 SWAP1 PUSH2 0x12C7 JUMP JUMPDEST PUSH1 0x40 MLOAD DUP1 SWAP2 SUB SWAP1 RETURN JUMPDEST CALLVALUE DUP1 ISZERO PUSH2 0x381 JUMPI PUSH1 0x0 DUP1 REVERT JUMPDEST POP PUSH2 0x39C PUSH1 0x4 DUP1 CALLDATASIZE SUB DUP2 ADD SWAP1 PUSH2 0x397 SWAP2 SWAP1 PUSH2 0x128B JUMP JUMPDEST PUSH2 0xA06 JUMP JUMPDEST STOP JUMPDEST PUSH2 0x3B8 PUSH1 0x4 DUP1 CALLDATASIZE SUB DUP2 ADD SWAP1 PUSH2 0x3B3 SWAP2 SWAP1 PUSH2 0x128B JUMP JUMPDEST PUSH2 0xCAC JUMP JUMPDEST STOP JUMPDEST CALLVALUE DUP1 ISZERO PUSH2 0x3C6 JUMPI PUSH1 0x0 DUP1 REVERT JUMPDEST POP PUSH2 0x3CF PUSH2 0xD36 JUMP JUMPDEST PUSH1 0x40 MLOAD PUSH2 0x3DC SWAP2 SWAP1 PUSH2 0x12C7 JUMP JUMPDEST PUSH1 0x40 MLOAD DUP1 SWAP2 SUB SWAP1 RETURN JUMPDEST CALLVALUE DUP1 ISZERO PUSH2 0x3F1 JUMPI PUSH1 0x0 DUP1 REVERT JUMPDEST POP PUSH2 0x3FA PUSH2 0xD3C JUMP JUMPDEST PUSH1 0x40 MLOAD PUSH2 0x407 SWAP2 SWAP1 PUSH2 0x12C7 JUMP JUMPDEST PUSH1 0x40 MLOAD DUP1 SWAP2 SUB SWAP1 RETURN JUMPDEST CALLVALUE DUP1 ISZERO PUSH2 0x41C JUMPI PUSH1 0x0 DUP1 REVERT JUMPDEST POP PUSH2 0x437 PUSH1 0x4 DUP1 CALLDATASIZE SUB DUP2 ADD SWAP1 PUSH2 0x432 SWAP2 SWAP1 PUSH2 0x128B JUMP JUMPDEST PUSH2 0xD42 JUMP JUMPDEST PUSH1 0x40 MLOAD PUSH2 0x444 SWAP2 SWAP1 PUSH2 0x15C3 JUMP JUMPDEST PUSH1 0x40 MLOAD DUP1 SWAP2 SUB SWAP1 RETURN JUMPDEST CALLVALUE DUP1 ISZERO PUSH2 0x459 JUMPI PUSH1 0x0 DUP1 REVERT JUMPDEST POP PUSH2 0x474 PUSH1 0x4 DUP1 CALLDATASIZE SUB DUP2 ADD SWAP1 PUSH2 0x46F SWAP2 SWAP1 PUSH2 0x1608 JUMP JUMPDEST PUSH2 0xD6F JUMP JUMPDEST PUSH1 0x40 MLOAD PUSH2 0x481 SWAP2 SWAP1 PUSH2 0x1592 JUMP JUMPDEST PUSH1 0x40 MLOAD DUP1 SWAP2 SUB SWAP1 RETURN JUMPDEST CALLVALUE DUP1 ISZERO PUSH2 0x496 JUMPI PUSH1 0x0 DUP1 REVERT JUMPDEST POP PUSH2 0x49F PUSH2 0xDA1 JUMP JUMPDEST PUSH1 0x40 MLOAD PUSH2 0x4AC SWAP2 SWAP1 PUSH2 0x1238 JUMP JUMPDEST PUSH1 0x40 MLOAD DUP1 SWAP2 SUB SWAP1 RETURN JUMPDEST CALLVALUE DUP1 ISZERO PUSH2 0x4C1 JUMPI PUSH1 0x0 DUP1 REVERT JUMPDEST POP PUSH2 0x4DC PUSH1 0x4 DUP1 CALLDATASIZE SUB DUP2 ADD SWAP1 PUSH2 0x4D7 SWAP2 SWAP1 PUSH2 0x128B JUMP JUMPDEST PUSH2 0xDA6 JUMP JUMPDEST PUSH1 0x40 MLOAD PUSH2 0x4F0 SWAP9 SWAP8 SWAP7 SWAP6 SWAP5 SWAP4 SWAP3 SWAP2 SWAP1 PUSH2 0x1663 JUMP JUMPDEST PUSH1 0x40 MLOAD DUP1 SWAP2 SUB SWAP1 RETURN JUMPDEST CALLVALUE DUP1 ISZERO PUSH2 0x505 JUMPI PUSH1 0x0 DUP1 REVERT JUMPDEST POP PUSH2 0x520 PUSH1 0x4 DUP1 CALLDATASIZE SUB DUP2 ADD SWAP1 PUSH2 0x51B SWAP2 SWAP1 PUSH2 0x128B JUMP JUMPDEST PUSH2 0xDBD JUMP JUMPDEST PUSH1 0x40 MLOAD PUSH2 0x52D SWAP2 SWAP1 PUSH2 0x12C7 JUMP JUMPDEST PUSH1 0x40 MLOAD DUP1 SWAP2 SUB SWAP1 RETURN JUMPDEST CALLVALUE DUP1 ISZERO PUSH2 0x542 JUMPI PUSH1 0x0 DUP1 REVERT JUMPDEST POP PUSH2 0x54B PUSH2 0xDDD JUMP JUMPDEST PUSH1 0x40 MLOAD PUSH2 0x558 SWAP2 SWAP1 PUSH2 0x12C7 JUMP JUMPDEST PUSH1 0x40 MLOAD DUP1 SWAP2 SUB SWAP1 RETURN JUMPDEST PUSH1 0x60 SWAP1 JUMP JUMPDEST PUSH1 0x7 PUSH1 0x0 DUP3 DUP2 MSTORE PUSH1 0x20 ADD SWAP1 DUP2 MSTORE PUSH1 0x20 ADD PUSH1 0x0 KECCAK256 PUSH1 0x40 MLOAD DUP1 PUSH1 0xE0 ADD PUSH1 0x40 MSTORE SWAP1 DUP2 PUSH1 0x0 DUP3 ADD PUSH1 0x0 SWAP1 SLOAD SWAP1 PUSH2 0x100 EXP SWAP1 DIV PUSH20 0xFFFFFFFFFFFFFFFFFFFFFFFFFFFFFFFFFFFFFFFF AND PUSH20 0xFFFFFFFFFFFFFFFFFFFFFFFFFFFFFFFFFFFFFFFF AND PUSH20 0xFFFFFFFFFFFFFFFFFFFFFFFFFFFFFFFFFFFFFFFF AND DUP2 MSTORE PUSH1 0x20 ADD PUSH1 0x1 DUP3 ADD SLOAD DUP2 MSTORE PUSH1 0x20 ADD PUSH1 0x2 DUP3 ADD SLOAD DUP2 MSTORE PUSH1 0x20 ADD PUSH1 0x3 DUP3 ADD PUSH1 0x0 SWAP1 SLOAD SWAP1 PUSH2 0x100 EXP SWAP1 DIV PUSH1 0xFF AND PUSH1 0x1 DUP2 GT ISZERO PUSH2 0x613 JUMPI PUSH2 0x612 PUSH2 0x134F JUMP JUMPDEST JUMPDEST PUSH1 0x1 DUP2 GT ISZERO PUSH2 0x625 JUMPI PUSH2 0x624 PUSH2 0x134F JUMP JUMPDEST JUMPDEST DUP2 MSTORE PUSH1 0x20 ADD PUSH1 0x4 DUP3 ADD SLOAD DUP2 MSTORE PUSH1 0x20 ADD PUSH1 0x5 DUP3 ADD SLOAD DUP2 MSTORE PUSH1 0x20 ADD PUSH1 0x6 DUP3 ADD SLOAD DUP2 MSTORE POP POP PUSH1 0x0 PUSH1 0x1 DUP2 GT ISZERO PUSH2 0x65B JUMPI PUSH2 0x65A PUSH2 0x134F JUMP JUMPDEST JUMPDEST DUP2 PUSH1 0x60 ADD MLOAD PUSH1 0x1 DUP2 GT ISZERO PUSH2 0x672 JUMPI PUSH2 0x671 PUSH2 0x134F JUMP JUMPDEST JUMPDEST EQ PUSH2 0x6B2 JUMPI PUSH1 0x40 MLOAD PUSH32 0x8C379A000000000000000000000000000000000000000000000000000000000 DUP2 MSTORE PUSH1 0x4 ADD PUSH2 0x6A9 SWAP1 PUSH2 0x172D JUMP JUMPDEST PUSH1 0x40 MLOAD DUP1 SWAP2 SUB SWAP1 REVERT JUMPDEST PUSH1 0x7 PUSH1 0x0 DUP4 DUP2 MSTORE PUSH1 0x20 ADD SWAP1 DUP2 MSTORE PUSH1 0x20 ADD PUSH1 0x0 KECCAK256 PUSH1 0x40 MLOAD DUP1 PUSH1 0xE0 ADD PUSH1 0x40 MSTORE SWAP1 DUP2 PUSH1 0x0 DUP3 ADD PUSH1 0x0 SWAP1 SLOAD SWAP1 PUSH2 0x100 EXP SWAP1 DIV PUSH20 0xFFFFFFFFFFFFFFFFFFFFFFFFFFFFFFFFFFFFFFFF AND PUSH20 0xFFFFFFFFFFFFFFFFFFFFFFFFFFFFFFFFFFFFFFFF AND PUSH20 0xFFFFFFFFFFFFFFFFFFFFFFFFFFFFFFFFFFFFFFFF AND DUP2 MSTORE PUSH1 0x20 ADD PUSH1 0x1 DUP3 ADD SLOAD DUP2 MSTORE PUSH1 0x20 ADD PUSH1 0x2 DUP3 ADD SLOAD DUP2 MSTORE PUSH1 0x20 ADD PUSH1 0x3 DUP3 ADD PUSH1 0x0 SWAP1 SLOAD SWAP1 PUSH2 0x100 EXP SWAP1 DIV PUSH1 0xFF AND PUSH1 0x1 DUP2 GT ISZERO PUSH2 0x75F JUMPI PUSH2 0x75E PUSH2 0x134F JUMP JUMPDEST JUMPDEST PUSH1 0x1 DUP2 GT ISZERO PUSH2 0x771 JUMPI PUSH2 0x770 PUSH2 0x134F JUMP JUMPDEST JUMPDEST DUP2 MSTORE PUSH1 0x20 ADD PUSH1 0x4 DUP3 ADD SLOAD DUP2 MSTORE PUSH1 0x20 ADD PUSH1 0x5 DUP3 ADD SLOAD DUP2 MSTORE PUSH1 0x20 ADD PUSH1 0x6 DUP3 ADD SLOAD DUP2 MSTORE POP POP CALLER DUP1 PUSH20 0xFFFFFFFFFFFFFFFFFFFFFFFFFFFFFFFFFFFFFFFF AND DUP3 PUSH1 0x0 ADD MLOAD PUSH20 0xFFFFFFFFFFFFFFFFFFFFFFFFFFFFFFFFFFFFFFFF AND EQ PUSH2 0x806 JUMPI PUSH1 0x40 MLOAD PUSH32 0x8C379A000000000000000000000000000000000000000000000000000000000 DUP2 MSTORE PUSH1 0x4 ADD PUSH2 0x7FD SWAP1 PUSH2 0x1799 JUMP JUMPDEST PUSH1 0x40 MLOAD DUP1 SWAP2 SUB SWAP1 REVERT JUMPDEST POP POP POP POP JUMP JUMPDEST PUSH1 0x0 PUSH1 0x3 PUSH1 0x0 DUP4 DUP2 MSTORE PUSH1 0x20 ADD SWAP1 DUP2 MSTORE PUSH1 0x20 ADD PUSH1 0x0 KECCAK256 PUSH1 0x1 ADD SLOAD SWAP1 POP SWAP2 SWAP1 POP JUMP JUMPDEST PUSH1 0x60 SWAP1 JUMP JUMPDEST PUSH1 0x60 PUSH1 0x0 PUSH1 0x8 SLOAD SWAP1 POP JUMPDEST PUSH1 0x0 DUP2 EQ PUSH2 0x86F JUMPI PUSH1 0x0 PUSH1 0x7 PUSH1 0x0 DUP4 DUP2 MSTORE PUSH1 0x20 ADD SWAP1 DUP2 MSTORE PUSH1 0x20 ADD PUSH1 0x0 KECCAK256 PUSH1 0x5 ADD SLOAD SWAP1 POP PUSH2 0x868 DUP3 DUP3 PUSH2 0xD6F JUMP JUMPDEST POP POP PUSH2 0x83B JUMP JUMPDEST POP SWAP1 JUMP JUMPDEST PUSH1 0x0 PUSH1 0x7 PUSH1 0x0 DUP4 DUP2 MSTORE PUSH1 0x20 ADD SWAP1 DUP2 MSTORE PUSH1 0x20 ADD PUSH1 0x0 KECCAK256 PUSH1 0x3 ADD PUSH1 0x0 SWAP1 SLOAD SWAP1 PUSH2 0x100 EXP SWAP1 DIV PUSH1 0xFF AND SWAP1 POP SWAP2 SWAP1 POP JUMP JUMPDEST PUSH1 0x0 PUSH1 0x3 PUSH1 0x0 DUP4 DUP2 MSTORE PUSH1 0x20 ADD SWAP1 DUP2 MSTORE PUSH1 0x20 ADD PUSH1 0x0 KECCAK256 PUSH1 0x0 ADD PUSH1 0x0 SWAP1 SLOAD SWAP1 PUSH2 0x100 EXP SWAP1 DIV PUSH20 0xFFFFFFFFFFFFFFFFFFFFFFFFFFFFFFFFFFFFFFFF AND SWAP1 POP SWAP2 SWAP1 POP JUMP JUMPDEST PUSH1 0x4 SLOAD DUP2 JUMP JUMPDEST PUSH1 0x0 PUSH1 0x7 PUSH1 0x0 DUP4 DUP2 MSTORE PUSH1 0x20 ADD SWAP1 DUP2 MSTORE PUSH1 0x20 ADD PUSH1 0x0 KECCAK256 PUSH1 0x0 ADD PUSH1 0x0 SWAP1 SLOAD SWAP1 PUSH2 0x100 EXP SWAP1 DIV PUSH20 0xFFFFFFFFFFFFFFFFFFFFFFFFFFFFFFFFFFFFFFFF AND SWAP1 POP SWAP2 SWAP1 POP JUMP JUMPDEST PUSH1 0x0 DUP2 LT ISZERO PUSH2 0x96A JUMPI PUSH1 0x40 MLOAD PUSH32 0x8C379A000000000000000000000000000000000000000000000000000000000 DUP2 MSTORE PUSH1 0x4 ADD PUSH2 0x961 SWAP1 PUSH2 0x1805 JUMP JUMPDEST PUSH1 0x40 MLOAD DUP1 SWAP2 SUB SWAP1 REVERT JUMPDEST DUP1 CALLVALUE LT ISZERO PUSH2 0x9AD JUMPI PUSH1 0x40 MLOAD PUSH32 0x8C379A000000000000000000000000000000000000000000000000000000000 DUP2 MSTORE PUSH1 0x4 ADD PUSH2 0x9A4 SWAP1 PUSH2 0x1871 JUMP JUMPDEST PUSH1 0x40 MLOAD DUP1 SWAP2 SUB SWAP1 REVERT JUMPDEST PUSH1 0x0 TIMESTAMP SWAP1 POP PUSH1 0x0 PUSH1 0x64 PUSH1 0x2 SLOAD PUSH1 0x64 PUSH2 0x9C5 SWAP2 SWAP1 PUSH2 0x18C0 JUMP JUMPDEST CALLVALUE PUSH2 0x9D0 SWAP2 SWAP1 PUSH2 0x18F4 JUMP JUMPDEST PUSH2 0x9DA SWAP2 SWAP1 PUSH2 0x197D JUMP JUMPDEST SWAP1 POP PUSH1 0x0 PUSH2 0x9E9 CALLER DUP5 DUP5 PUSH2 0xDE3 JUMP JUMPDEST SWAP1 POP PUSH2 0x9F4 DUP2 PUSH2 0xF7E JUMP JUMPDEST POP POP POP POP JUMP JUMPDEST PUSH1 0x5 SLOAD DUP2 JUMP JUMPDEST PUSH1 0x8 SLOAD DUP2 JUMP JUMPDEST PUSH1 0x3 PUSH1 0x0 DUP3 DUP2 MSTORE PUSH1 0x20 ADD SWAP1 DUP2 MSTORE PUSH1 0x20 ADD PUSH1 0x0 KECCAK256 PUSH1 0x40 MLOAD DUP1 PUSH1 0xE0 ADD PUSH1 0x40 MSTORE SWAP1 DUP2 PUSH1 0x0 DUP3 ADD PUSH1 0x0 SWAP1 SLOAD SWAP1 PUSH2 0x100 EXP SWAP1 DIV PUSH20 0xFFFFFFFFFFFFFFFFFFFFFFFFFFFFFFFFFFFFFFFF AND PUSH20 0xFFFFFFFFFFFFFFFFFFFFFFFFFFFFFFFFFFFFFFFF AND PUSH20 0xFFFFFFFFFFFFFFFFFFFFFFFFFFFFFFFFFFFFFFFF AND DUP2 MSTORE PUSH1 0x20 ADD PUSH1 0x1 DUP3 ADD SLOAD DUP2 MSTORE PUSH1 0x20 ADD PUSH1 0x2 DUP3 ADD SLOAD DUP2 MSTORE PUSH1 0x20 ADD PUSH1 0x3 DUP3 ADD PUSH1 0x0 SWAP1 SLOAD SWAP1 PUSH2 0x100 EXP SWAP1 DIV PUSH1 0xFF AND PUSH1 0x1 DUP2 GT ISZERO PUSH2 0xAB3 JUMPI PUSH2 0xAB2 PUSH2 0x134F JUMP JUMPDEST JUMPDEST PUSH1 0x1 DUP2 GT ISZERO PUSH2 0xAC5 JUMPI PUSH2 0xAC4 PUSH2 0x134F JUMP JUMPDEST JUMPDEST DUP2 MSTORE PUSH1 0x20 ADD PUSH1 0x4 DUP3 ADD SLOAD DUP2 MSTORE PUSH1 0x20 ADD PUSH1 0x5 DUP3 ADD SLOAD DUP2 MSTORE PUSH1 0x20 ADD PUSH1 0x6 DUP3 ADD SLOAD DUP2 MSTORE POP POP PUSH1 0x0 PUSH1 0x1 DUP2 GT ISZERO PUSH2 0xAFB JUMPI PUSH2 0xAFA PUSH2 0x134F JUMP JUMPDEST JUMPDEST DUP2 PUSH1 0x60 ADD MLOAD PUSH1 0x1 DUP2 GT ISZERO PUSH2 0xB12 JUMPI PUSH2 0xB11 PUSH2 0x134F JUMP JUMPDEST JUMPDEST EQ PUSH2 0xB52 JUMPI PUSH1 0x40 MLOAD PUSH32 0x8C379A000000000000000000000000000000000000000000000000000000000 DUP2 MSTORE PUSH1 0x4 ADD PUSH2 0xB49 SWAP1 PUSH2 0x172D JUMP JUMPDEST PUSH1 0x40 MLOAD DUP1 SWAP2 SUB SWAP1 REVERT JUMPDEST PUSH1 0x3 PUSH1 0x0 DUP4 DUP2 MSTORE PUSH1 0x20 ADD SWAP1 DUP2 MSTORE PUSH1 0x20 ADD PUSH1 0x0 KECCAK256 PUSH1 0x40 MLOAD DUP1 PUSH1 0xE0 ADD PUSH1 0x40 MSTORE SWAP1 DUP2 PUSH1 0x0 DUP3 ADD PUSH1 0x0 SWAP1 SLOAD SWAP1 PUSH2 0x100 EXP SWAP1 DIV PUSH20 0xFFFFFFFFFFFFFFFFFFFFFFFFFFFFFFFFFFFFFFFF AND PUSH20 0xFFFFFFFFFFFFFFFFFFFFFFFFFFFFFFFFFFFFFFFF AND PUSH20 0xFFFFFFFFFFFFFFFFFFFFFFFFFFFFFFFFFFFFFFFF AND DUP2 MSTORE PUSH1 0x20 ADD PUSH1 0x1 DUP3 ADD SLOAD DUP2 MSTORE PUSH1 0x20 ADD PUSH1 0x2 DUP3 ADD SLOAD DUP2 MSTORE PUSH1 0x20 ADD PUSH1 0x3 DUP3 ADD PUSH1 0x0 SWAP1 SLOAD SWAP1 PUSH2 0x100 EXP SWAP1 DIV PUSH1 0xFF AND PUSH1 0x1 DUP2 GT ISZERO PUSH2 0xBFF JUMPI PUSH2 0xBFE PUSH2 0x134F JUMP JUMPDEST JUMPDEST PUSH1 0x1 DUP2 GT ISZERO PUSH2 0xC11 JUMPI PUSH2 0xC10 PUSH2 0x134F JUMP JUMPDEST JUMPDEST DUP2 MSTORE PUSH1 0x20 ADD PUSH1 0x4 DUP3 ADD SLOAD DUP2 MSTORE PUSH1 0x20 ADD PUSH1 0x5 DUP3 ADD SLOAD DUP2 MSTORE PUSH1 0x20 ADD PUSH1 0x6 DUP3 ADD SLOAD DUP2 MSTORE POP POP CALLER DUP1 PUSH20 0xFFFFFFFFFFFFFFFFFFFFFFFFFFFFFFFFFFFFFFFF AND DUP3 PUSH1 0x0 ADD MLOAD PUSH20 0xFFFFFFFFFFFFFFFFFFFFFFFFFFFFFFFFFFFFFFFF AND EQ PUSH2 0xCA6 JUMPI PUSH1 0x40 MLOAD PUSH32 0x8C379A000000000000000000000000000000000000000000000000000000000 DUP2 MSTORE PUSH1 0x4 ADD PUSH2 0xC9D SWAP1 PUSH2 0x1799 JUMP JUMPDEST PUSH1 0x40 MLOAD DUP1 SWAP2 SUB SWAP1 REVERT JUMPDEST POP POP POP POP JUMP JUMPDEST PUSH1 0x0 DUP2 LT ISZERO PUSH2 0xCF0 JUMPI PUSH1 0x40 MLOAD PUSH32 0x8C379A000000000000000000000000000000000000000000000000000000000 DUP2 MSTORE PUSH1 0x4 ADD PUSH2 0xCE7 SWAP1 PUSH2 0x1805 JUMP JUMPDEST PUSH1 0x40 MLOAD DUP1 SWAP2 SUB SWAP1 REVERT JUMPDEST DUP1 CALLVALUE LT ISZERO PUSH2 0xD33 JUMPI PUSH1 0x40 MLOAD PUSH32 0x8C379A000000000000000000000000000000000000000000000000000000000 DUP2 MSTORE PUSH1 0x4 ADD PUSH2 0xD2A SWAP1 PUSH2 0x19FA JUMP JUMPDEST PUSH1 0x40 MLOAD DUP1 SWAP2 SUB SWAP1 REVERT JUMPDEST POP JUMP JUMPDEST PUSH1 0xA SLOAD DUP2 JUMP JUMPDEST PUSH1 0x6 SLOAD DUP2 JUMP JUMPDEST PUSH1 0x0 PUSH1 0x3 PUSH1 0x0 DUP4 DUP2 MSTORE PUSH1 0x20 ADD SWAP1 DUP2 MSTORE PUSH1 0x20 ADD PUSH1 0x0 KECCAK256 PUSH1 0x3 ADD PUSH1 0x0 SWAP1 SLOAD SWAP1 PUSH2 0x100 EXP SWAP1 DIV PUSH1 0xFF AND SWAP1 POP SWAP2 SWAP1 POP JUMP JUMPDEST PUSH1 0x60 DUP3 PUSH1 0x0 SHL DUP3 PUSH1 0x0 SHL PUSH1 0x40 MLOAD PUSH1 0x20 ADD PUSH2 0xD8A SWAP3 SWAP2 SWAP1 PUSH2 0x1A6B JUMP JUMPDEST PUSH1 0x40 MLOAD PUSH1 0x20 DUP2 DUP4 SUB SUB DUP2 MSTORE SWAP1 PUSH1 0x40 MSTORE SWAP1 POP SWAP3 SWAP2 POP POP JUMP JUMPDEST PUSH1 0x60 SWAP1 JUMP JUMPDEST PUSH1 0x0 DUP1 PUSH1 0x0 DUP1 PUSH1 0x0 DUP1 PUSH1 0x0 DUP1 SWAP2 SWAP4 SWAP6 SWAP8 POP SWAP2 SWAP4 SWAP6 SWAP8 JUMP JUMPDEST PUSH1 0x0 PUSH1 0x7 PUSH1 0x0 DUP4 DUP2 MSTORE PUSH1 0x20 ADD SWAP1 DUP2 MSTORE PUSH1 0x20 ADD PUSH1 0x0 KECCAK256 PUSH1 0x1 ADD SLOAD SWAP1 POP SWAP2 SWAP1 POP JUMP JUMPDEST PUSH1 0x9 SLOAD DUP2 JUMP JUMPDEST PUSH2 0xDEB PUSH2 0x110B JUMP JUMPDEST PUSH1 0xA PUSH1 0x0 DUP2 SLOAD DUP1 SWAP3 SWAP2 SWAP1 PUSH2 0xDFE SWAP1 PUSH2 0x1AA6 JUMP JUMPDEST SWAP2 SWAP1 POP SSTORE POP PUSH1 0x0 PUSH1 0x40 MLOAD DUP1 PUSH1 0xE0 ADD PUSH1 0x40 MSTORE DUP1 DUP7 PUSH20 0xFFFFFFFFFFFFFFFFFFFFFFFFFFFFFFFFFFFFFFFF AND DUP2 MSTORE PUSH1 0x20 ADD DUP6 DUP2 MSTORE PUSH1 0x20 ADD DUP5 DUP2 MSTORE PUSH1 0x20 ADD PUSH1 0x0 PUSH1 0x1 DUP2 GT ISZERO PUSH2 0xE4C JUMPI PUSH2 0xE4B PUSH2 0x134F JUMP JUMPDEST JUMPDEST DUP2 MSTORE PUSH1 0x20 ADD PUSH1 0xA SLOAD DUP2 MSTORE PUSH1 0x20 ADD PUSH1 0x0 DUP2 MSTORE PUSH1 0x20 ADD PUSH1 0x0 DUP2 MSTORE POP SWAP1 POP DUP1 PUSH1 0x7 PUSH1 0x0 PUSH1 0xA SLOAD DUP2 MSTORE PUSH1 0x20 ADD SWAP1 DUP2 MSTORE PUSH1 0x20 ADD PUSH1 0x0 KECCAK256 PUSH1 0x0 DUP3 ADD MLOAD DUP2 PUSH1 0x0 ADD PUSH1 0x0 PUSH2 0x100 EXP DUP2 SLOAD DUP2 PUSH20 0xFFFFFFFFFFFFFFFFFFFFFFFFFFFFFFFFFFFFFFFF MUL NOT AND SWAP1 DUP4 PUSH20 0xFFFFFFFFFFFFFFFFFFFFFFFFFFFFFFFFFFFFFFFF AND MUL OR SWAP1 SSTORE POP PUSH1 0x20 DUP3 ADD MLOAD DUP2 PUSH1 0x1 ADD SSTORE PUSH1 0x40 DUP3 ADD MLOAD DUP2 PUSH1 0x2 ADD SSTORE PUSH1 0x60 DUP3 ADD MLOAD DUP2 PUSH1 0x3 ADD PUSH1 0x0 PUSH2 0x100 EXP DUP2 SLOAD DUP2 PUSH1 0xFF MUL NOT AND SWAP1 DUP4 PUSH1 0x1 DUP2 GT ISZERO PUSH2 0xF03 JUMPI PUSH2 0xF02 PUSH2 0x134F JUMP JUMPDEST JUMPDEST MUL OR SWAP1 SSTORE POP PUSH1 0x80 DUP3 ADD MLOAD DUP2 PUSH1 0x4 ADD SSTORE PUSH1 0xA0 DUP3 ADD MLOAD DUP2 PUSH1 0x5 ADD SSTORE PUSH1 0xC0 DUP3 ADD MLOAD DUP2 PUSH1 0x6 ADD SSTORE SWAP1 POP POP PUSH32 0x93CAF6BA1AF44020DFE6076E279533E38BD8DEEFE534C43AA8CC93AAD2025B7D DUP6 DUP6 DUP6 PUSH1 0x0 PUSH1 0xA SLOAD PUSH1 0x0 DUP1 PUSH1 0x0 PUSH1 0x40 MLOAD PUSH2 0xF6B SWAP9 SWAP8 SWAP7 SWAP6 SWAP5 SWAP4 SWAP3 SWAP2 SWAP1 PUSH2 0x1B54 JUMP JUMPDEST PUSH1 0x40 MLOAD DUP1 SWAP2 SUB SWAP1 LOG1 DUP1 SWAP2 POP POP SWAP4 SWAP3 POP POP POP JUMP JUMPDEST PUSH1 0x0 DUP1 PUSH1 0x8 SLOAD SUB PUSH2 0xF99 JUMPI DUP2 PUSH1 0x80 ADD MLOAD PUSH1 0x8 DUP2 SWAP1 SSTORE POP PUSH2 0x1107 JUMP JUMPDEST DUP2 PUSH1 0x20 ADD MLOAD PUSH1 0x7 PUSH1 0x0 PUSH1 0x8 SLOAD DUP2 MSTORE PUSH1 0x20 ADD SWAP1 DUP2 MSTORE PUSH1 0x20 ADD PUSH1 0x0 KECCAK256 PUSH1 0x1 ADD SLOAD LT PUSH2 0xFFB JUMPI PUSH1 0x8 SLOAD DUP3 PUSH1 0xA0 ADD DUP2 DUP2 MSTORE POP POP DUP2 PUSH1 0x80 ADD MLOAD PUSH1 0x7 PUSH1 0x0 DUP5 PUSH1 0xA0 ADD MLOAD DUP2 MSTORE PUSH1 0x20 ADD SWAP1 DUP2 MSTORE PUSH1 0x20 ADD PUSH1 0x0 KECCAK256 PUSH1 0x6 ADD DUP2 SWAP1 SSTORE POP DUP2 PUSH1 0x80 ADD MLOAD PUSH1 0x8 DUP2 SWAP1 SSTORE POP PUSH2 0x1106 JUMP JUMPDEST PUSH1 0x8 SLOAD SWAP1 POP JUMPDEST PUSH1 0x0 PUSH1 0x7 PUSH1 0x0 DUP4 DUP2 MSTORE PUSH1 0x20 ADD SWAP1 DUP2 MSTORE PUSH1 0x20 ADD PUSH1 0x0 KECCAK256 PUSH1 0x5 ADD SLOAD EQ ISZERO DUP1 ISZERO PUSH2 0x1057 JUMPI POP DUP2 PUSH1 0x20 ADD MLOAD PUSH1 0x7 PUSH1 0x0 PUSH1 0x7 PUSH1 0x0 DUP6 DUP2 MSTORE PUSH1 0x20 ADD SWAP1 DUP2 MSTORE PUSH1 0x20 ADD PUSH1 0x0 KECCAK256 PUSH1 0x5 ADD SLOAD DUP2 MSTORE PUSH1 0x20 ADD SWAP1 DUP2 MSTORE PUSH1 0x20 ADD PUSH1 0x0 KECCAK256 PUSH1 0x1 ADD SLOAD LT JUMPDEST ISZERO PUSH2 0x107A JUMPI PUSH1 0x7 PUSH1 0x0 DUP3 DUP2 MSTORE PUSH1 0x20 ADD SWAP1 DUP2 MSTORE PUSH1 0x20 ADD PUSH1 0x0 KECCAK256 PUSH1 0x5 ADD SLOAD SWAP1 POP PUSH2 0x1001 JUMP JUMPDEST PUSH1 0x7 PUSH1 0x0 DUP3 DUP2 MSTORE PUSH1 0x20 ADD SWAP1 DUP2 MSTORE PUSH1 0x20 ADD PUSH1 0x0 KECCAK256 PUSH1 0x5 ADD SLOAD DUP3 PUSH1 0xA0 ADD DUP2 DUP2 MSTORE POP POP PUSH1 0x0 PUSH1 0x7 PUSH1 0x0 DUP4 DUP2 MSTORE PUSH1 0x20 ADD SWAP1 DUP2 MSTORE PUSH1 0x20 ADD PUSH1 0x0 KECCAK256 PUSH1 0x5 ADD SLOAD EQ PUSH2 0x10DC JUMPI DUP2 PUSH1 0x80 ADD MLOAD PUSH1 0x7 PUSH1 0x0 DUP5 PUSH1 0xA0 ADD MLOAD DUP2 MSTORE PUSH1 0x20 ADD SWAP1 DUP2 MSTORE PUSH1 0x20 ADD PUSH1 0x0 KECCAK256 PUSH1 0x6 ADD DUP2 SWAP1 SSTORE POP JUMPDEST DUP2 PUSH1 0x80 ADD MLOAD PUSH1 0x7 PUSH1 0x0 DUP4 DUP2 MSTORE PUSH1 0x20 ADD SWAP1 DUP2 MSTORE PUSH1 0x20 ADD PUSH1 0x0 KECCAK256 PUSH1 0x5 ADD DUP2 SWAP1 SSTORE POP DUP1 DUP3 PUSH1 0xC0 ADD DUP2 DUP2 MSTORE POP POP JUMPDEST JUMPDEST POP POP JUMP JUMPDEST PUSH1 0x40 MLOAD DUP1 PUSH1 0xE0 ADD PUSH1 0x40 MSTORE DUP1 PUSH1 0x0 PUSH20 0xFFFFFFFFFFFFFFFFFFFFFFFFFFFFFFFFFFFFFFFF AND DUP2 MSTORE PUSH1 0x20 ADD PUSH1 0x0 DUP2 MSTORE PUSH1 0x20 ADD PUSH1 0x0 DUP2 MSTORE PUSH1 0x20 ADD PUSH1 0x0 PUSH1 0x1 DUP2 GT ISZERO PUSH2 0x1155 JUMPI PUSH2 0x1154 PUSH2 0x134F JUMP JUMPDEST JUMPDEST DUP2 MSTORE PUSH1 0x20 ADD PUSH1 0x0 DUP2 MSTORE PUSH1 0x20 ADD PUSH1 0x0 DUP2 MSTORE PUSH1 0x20 ADD PUSH1 0x0 DUP2 MSTORE POP SWAP1 JUMP JUMPDEST PUSH1 0x0 DUP2 MLOAD SWAP1 POP SWAP2 SWAP1 POP JUMP JUMPDEST PUSH1 0x0 DUP3 DUP3 MSTORE PUSH1 0x20 DUP3 ADD SWAP1 POP SWAP3 SWAP2 POP POP JUMP JUMPDEST PUSH1 0x0 DUP2 SWAP1 POP PUSH1 0x20 DUP3 ADD SWAP1 POP SWAP2 SWAP1 POP JUMP JUMPDEST PUSH1 0x0 DUP2 SWAP1 POP SWAP2 SWAP1 POP JUMP JUMPDEST PUSH2 0x11AF DUP2 PUSH2 0x119C JUMP JUMPDEST DUP3 MSTORE POP POP JUMP JUMPDEST PUSH1 0x0 PUSH2 0x11C1 DUP4 DUP4 PUSH2 0x11A6 JUMP JUMPDEST PUSH1 0x20 DUP4 ADD SWAP1 POP SWAP3 SWAP2 POP POP JUMP JUMPDEST PUSH1 0x0 PUSH1 0x20 DUP3 ADD SWAP1 POP SWAP2 SWAP1 POP JUMP JUMPDEST PUSH1 0x0 PUSH2 0x11E5 DUP3 PUSH2 0x1170 JUMP JUMPDEST PUSH2 0x11EF DUP2 DUP6 PUSH2 0x117B JUMP JUMPDEST SWAP4 POP PUSH2 0x11FA DUP4 PUSH2 0x118C JUMP JUMPDEST DUP1 PUSH1 0x0 JUMPDEST DUP4 DUP2 LT ISZERO PUSH2 0x122B JUMPI DUP2 MLOAD PUSH2 0x1212 DUP9 DUP3 PUSH2 0x11B5 JUMP JUMPDEST SWAP8 POP PUSH2 0x121D DUP4 PUSH2 0x11CD JUMP JUMPDEST SWAP3 POP POP PUSH1 0x1 DUP2 ADD SWAP1 POP PUSH2 0x11FE JUMP JUMPDEST POP DUP6 SWAP4 POP POP POP POP SWAP3 SWAP2 POP POP JUMP JUMPDEST PUSH1 0x0 PUSH1 0x20 DUP3 ADD SWAP1 POP DUP2 DUP2 SUB PUSH1 0x0 DUP4 ADD MSTORE PUSH2 0x1252 DUP2 DUP5 PUSH2 0x11DA JUMP JUMPDEST SWAP1 POP SWAP3 SWAP2 POP POP JUMP JUMPDEST PUSH1 0x0 DUP1 REVERT JUMPDEST PUSH2 0x1268 DUP2 PUSH2 0x119C JUMP JUMPDEST DUP2 EQ PUSH2 0x1273 JUMPI PUSH1 0x0 DUP1 REVERT JUMPDEST POP JUMP JUMPDEST PUSH1 0x0 DUP2 CALLDATALOAD SWAP1 POP PUSH2 0x1285 DUP2 PUSH2 0x125F JUMP JUMPDEST SWAP3 SWAP2 POP POP JUMP JUMPDEST PUSH1 0x0 PUSH1 0x20 DUP3 DUP5 SUB SLT ISZERO PUSH2 0x12A1 JUMPI PUSH2 0x12A0 PUSH2 0x125A JUMP JUMPDEST JUMPDEST PUSH1 0x0 PUSH2 0x12AF DUP5 DUP3 DUP6 ADD PUSH2 0x1276 JUMP JUMPDEST SWAP2 POP POP SWAP3 SWAP2 POP POP JUMP JUMPDEST PUSH2 0x12C1 DUP2 PUSH2 0x119C JUMP JUMPDEST DUP3 MSTORE POP POP JUMP JUMPDEST PUSH1 0x0 PUSH1 0x20 DUP3 ADD SWAP1 POP PUSH2 0x12DC PUSH1 0x0 DUP4 ADD DUP5 PUSH2 0x12B8 JUMP JUMPDEST SWAP3 SWAP2 POP POP JUMP JUMPDEST PUSH1 0x0 DUP2 MLOAD SWAP1 POP SWAP2 SWAP1 POP JUMP JUMPDEST PUSH1 0x0 DUP3 DUP3 MSTORE PUSH1 0x20 DUP3 ADD SWAP1 POP SWAP3 SWAP2 POP POP JUMP JUMPDEST PUSH1 0x0 DUP2 SWAP1 POP PUSH1 0x20 DUP3 ADD SWAP1 POP SWAP2 SWAP1 POP JUMP JUMPDEST PUSH1 0x0 PUSH20 0xFFFFFFFFFFFFFFFFFFFFFFFFFFFFFFFFFFFFFFFF DUP3 AND SWAP1 POP SWAP2 SWAP1 POP JUMP JUMPDEST PUSH1 0x0 PUSH2 0x1339 DUP3 PUSH2 0x130E JUMP JUMPDEST SWAP1 POP SWAP2 SWAP1 POP JUMP JUMPDEST PUSH2 0x1349 DUP2 PUSH2 0x132E JUMP JUMPDEST DUP3 MSTORE POP POP JUMP JUMPDEST PUSH32 0x4E487B7100000000000000000000000000000000000000000000000000000000 PUSH1 0x0 MSTORE PUSH1 0x21 PUSH1 0x4 MSTORE PUSH1 0x24 PUSH1 0x0 REVERT JUMPDEST PUSH1 0x2 DUP2 LT PUSH2 0x138F JUMPI PUSH2 0x138E PUSH2 0x134F JUMP JUMPDEST JUMPDEST POP JUMP JUMPDEST PUSH1 0x0 DUP2 SWAP1 POP PUSH2 0x13A0 DUP3 PUSH2 0x137E JUMP JUMPDEST SWAP2 SWAP1 POP JUMP JUMPDEST PUSH1 0x0 PUSH2 0x13B0 DUP3 PUSH2 0x1392 JUMP JUMPDEST SWAP1 POP SWAP2 SWAP1 POP JUMP JUMPDEST PUSH2 0x13C0 DUP2 PUSH2 0x13A5 JUMP JUMPDEST DUP3 MSTORE POP POP JUMP JUMPDEST PUSH1 0xE0 DUP3 ADD PUSH1 0x0 DUP3 ADD MLOAD PUSH2 0x13DC PUSH1 0x0 DUP6 ADD DUP3 PUSH2 0x1340 JUMP JUMPDEST POP PUSH1 0x20 DUP3 ADD MLOAD PUSH2 0x13EF PUSH1 0x20 DUP6 ADD DUP3 PUSH2 0x11A6 JUMP JUMPDEST POP PUSH1 0x40 DUP3 ADD MLOAD PUSH2 0x1402 PUSH1 0x40 DUP6 ADD DUP3 PUSH2 0x11A6 JUMP JUMPDEST POP PUSH1 0x60 DUP3 ADD MLOAD PUSH2 0x1415 PUSH1 0x60 DUP6 ADD DUP3 PUSH2 0x13B7 JUMP JUMPDEST POP PUSH1 0x80 DUP3 ADD MLOAD PUSH2 0x1428 PUSH1 0x80 DUP6 ADD DUP3 PUSH2 0x11A6 JUMP JUMPDEST POP PUSH1 0xA0 DUP3 ADD MLOAD PUSH2 0x143B PUSH1 0xA0 DUP6 ADD DUP3 PUSH2 0x11A6 JUMP JUMPDEST POP PUSH1 0xC0 DUP3 ADD MLOAD PUSH2 0x144E PUSH1 0xC0 DUP6 ADD DUP3 PUSH2 0x11A6 JUMP JUMPDEST POP POP POP POP JUMP JUMPDEST PUSH1 0x0 PUSH2 0x1460 DUP4 DUP4 PUSH2 0x13C6 JUMP JUMPDEST PUSH1 0xE0 DUP4 ADD SWAP1 POP SWAP3 SWAP2 POP POP JUMP JUMPDEST PUSH1 0x0 PUSH1 0x20 DUP3 ADD SWAP1 POP SWAP2 SWAP1 POP JUMP JUMPDEST PUSH1 0x0 PUSH2 0x1484 DUP3 PUSH2 0x12E2 JUMP JUMPDEST PUSH2 0x148E DUP2 DUP6 PUSH2 0x12ED JUMP JUMPDEST SWAP4 POP PUSH2 0x1499 DUP4 PUSH2 0x12FE JUMP JUMPDEST DUP1 PUSH1 0x0 JUMPDEST DUP4 DUP2 LT ISZERO PUSH2 0x14CA JUMPI DUP2 MLOAD PUSH2 0x14B1 DUP9 DUP3 PUSH2 0x1454 JUMP JUMPDEST SWAP8 POP PUSH2 0x14BC DUP4 PUSH2 0x146C JUMP JUMPDEST SWAP3 POP POP PUSH1 0x1 DUP2 ADD SWAP1 POP PUSH2 0x149D JUMP JUMPDEST POP DUP6 SWAP4 POP POP POP POP SWAP3 SWAP2 POP POP JUMP JUMPDEST PUSH1 0x0 PUSH1 0x20 DUP3 ADD SWAP1 POP DUP2 DUP2 SUB PUSH1 0x0 DUP4 ADD MSTORE PUSH2 0x14F1 DUP2 DUP5 PUSH2 0x1479 JUMP JUMPDEST SWAP1 POP SWAP3 SWAP2 POP POP JUMP JUMPDEST PUSH1 0x0 DUP2 MLOAD SWAP1 POP SWAP2 SWAP1 POP JUMP JUMPDEST PUSH1 0x0 DUP3 DUP3 MSTORE PUSH1 0x20 DUP3 ADD SWAP1 POP SWAP3 SWAP2 POP POP JUMP JUMPDEST PUSH1 0x0 JUMPDEST DUP4 DUP2 LT ISZERO PUSH2 0x1533 JUMPI DUP1 DUP3 ADD MLOAD DUP2 DUP5 ADD MSTORE PUSH1 0x20 DUP2 ADD SWAP1 POP PUSH2 0x1518 JUMP JUMPDEST DUP4 DUP2 GT ISZERO PUSH2 0x1542 JUMPI PUSH1 0x0 DUP5 DUP5 ADD MSTORE JUMPDEST POP POP POP POP JUMP JUMPDEST PUSH1 0x0 PUSH1 0x1F NOT PUSH1 0x1F DUP4 ADD AND SWAP1 POP SWAP2 SWAP1 POP JUMP JUMPDEST PUSH1 0x0 PUSH2 0x1564 DUP3 PUSH2 0x14F9 JUMP JUMPDEST PUSH2 0x156E DUP2 DUP6 PUSH2 0x1504 JUMP JUMPDEST SWAP4 POP PUSH2 0x157E DUP2 DUP6 PUSH1 0x20 DUP7 ADD PUSH2 0x1515 JUMP JUMPDEST PUSH2 0x1587 DUP2 PUSH2 0x1548 JUMP JUMPDEST DUP5 ADD SWAP2 POP POP SWAP3 SWAP2 POP POP JUMP JUMPDEST PUSH1 0x0 PUSH1 0x20 DUP3 ADD SWAP1 POP DUP2 DUP2 SUB PUSH1 0x0 DUP4 ADD MSTORE PUSH2 0x15AC DUP2 DUP5 PUSH2 0x1559 JUMP JUMPDEST SWAP1 POP SWAP3 SWAP2 POP POP JUMP JUMPDEST PUSH2 0x15BD DUP2 PUSH2 0x13A5 JUMP JUMPDEST DUP3 MSTORE POP POP JUMP JUMPDEST PUSH1 0x0 PUSH1 0x20 DUP3 ADD SWAP1 POP PUSH2 0x15D8 PUSH1 0x0 DUP4 ADD DUP5 PUSH2 0x15B4 JUMP JUMPDEST SWAP3 SWAP2 POP POP JUMP JUMPDEST PUSH2 0x15E7 DUP2 PUSH2 0x132E JUMP JUMPDEST DUP3 MSTORE POP POP JUMP JUMPDEST PUSH1 0x0 PUSH1 0x20 DUP3 ADD SWAP1 POP PUSH2 0x1602 PUSH1 0x0 DUP4 ADD DUP5 PUSH2 0x15DE JUMP JUMPDEST SWAP3 SWAP2 POP POP JUMP JUMPDEST PUSH1 0x0 DUP1 PUSH1 0x40 DUP4 DUP6 SUB SLT ISZERO PUSH2 0x161F JUMPI PUSH2 0x161E PUSH2 0x125A JUMP JUMPDEST JUMPDEST PUSH1 0x0 PUSH2 0x162D DUP6 DUP3 DUP7 ADD PUSH2 0x1276 JUMP JUMPDEST SWAP3 POP POP PUSH1 0x20 PUSH2 0x163E DUP6 DUP3 DUP7 ADD PUSH2 0x1276 JUMP JUMPDEST SWAP2 POP POP SWAP3 POP SWAP3 SWAP1 POP JUMP JUMPDEST PUSH1 0x0 DUP2 ISZERO ISZERO SWAP1 POP SWAP2 SWAP1 POP JUMP JUMPDEST PUSH2 0x165D DUP2 PUSH2 0x1648 JUMP JUMPDEST DUP3 MSTORE POP POP JUMP JUMPDEST PUSH1 0x0 PUSH2 0x100 DUP3 ADD SWAP1 POP PUSH2 0x1679 PUSH1 0x0 DUP4 ADD DUP12 PUSH2 0x15DE JUMP JUMPDEST PUSH2 0x1686 PUSH1 0x20 DUP4 ADD DUP11 PUSH2 0x12B8 JUMP JUMPDEST PUSH2 0x1693 PUSH1 0x40 DUP4 ADD DUP10 PUSH2 0x12B8 JUMP JUMPDEST PUSH2 0x16A0 PUSH1 0x60 DUP4 ADD DUP9 PUSH2 0x15B4 JUMP JUMPDEST PUSH2 0x16AD PUSH1 0x80 DUP4 ADD DUP8 PUSH2 0x12B8 JUMP JUMPDEST PUSH2 0x16BA PUSH1 0xA0 DUP4 ADD DUP7 PUSH2 0x12B8 JUMP JUMPDEST PUSH2 0x16C7 PUSH1 0xC0 DUP4 ADD DUP6 PUSH2 0x12B8 JUMP JUMPDEST PUSH2 0x16D4 PUSH1 0xE0 DUP4 ADD DUP5 PUSH2 0x1654 JUMP JUMPDEST SWAP10 SWAP9 POP POP POP POP POP POP POP POP POP JUMP JUMPDEST PUSH32 0x4F726465722050656E64696E6700000000000000000000000000000000000000 PUSH1 0x0 DUP3 ADD MSTORE POP JUMP JUMPDEST PUSH1 0x0 PUSH2 0x1717 PUSH1 0xD DUP4 PUSH2 0x1504 JUMP JUMPDEST SWAP2 POP PUSH2 0x1722 DUP3 PUSH2 0x16E1 JUMP JUMPDEST PUSH1 0x20 DUP3 ADD SWAP1 POP SWAP2 SWAP1 POP JUMP JUMPDEST PUSH1 0x0 PUSH1 0x20 DUP3 ADD SWAP1 POP DUP2 DUP2 SUB PUSH1 0x0 DUP4 ADD MSTORE PUSH2 0x1746 DUP2 PUSH2 0x170A JUMP JUMPDEST SWAP1 POP SWAP2 SWAP1 POP JUMP JUMPDEST PUSH32 0x4E6F7420417574686F7269736564000000000000000000000000000000000000 PUSH1 0x0 DUP3 ADD MSTORE POP JUMP JUMPDEST PUSH1 0x0 PUSH2 0x1783 PUSH1 0xE DUP4 PUSH2 0x1504 JUMP JUMPDEST SWAP2 POP PUSH2 0x178E DUP3 PUSH2 0x174D JUMP JUMPDEST PUSH1 0x20 DUP3 ADD SWAP1 POP SWAP2 SWAP1 POP JUMP JUMPDEST PUSH1 0x0 PUSH1 0x20 DUP3 ADD SWAP1 POP DUP2 DUP2 SUB PUSH1 0x0 DUP4 ADD MSTORE PUSH2 0x17B2 DUP2 PUSH2 0x1776 JUMP JUMPDEST SWAP1 POP SWAP2 SWAP1 POP JUMP JUMPDEST PUSH32 0x70726963652076616C7565206D757374206265206D6F7265207468616E203000 PUSH1 0x0 DUP3 ADD MSTORE POP JUMP JUMPDEST PUSH1 0x0 PUSH2 0x17EF PUSH1 0x1F DUP4 PUSH2 0x1504 JUMP JUMPDEST SWAP2 POP PUSH2 0x17FA DUP3 PUSH2 0x17B9 JUMP JUMPDEST PUSH1 0x20 DUP3 ADD SWAP1 POP SWAP2 SWAP1 POP JUMP JUMPDEST PUSH1 0x0 PUSH1 0x20 DUP3 ADD SWAP1 POP DUP2 DUP2 SUB PUSH1 0x0 DUP4 ADD MSTORE PUSH2 0x181E DUP2 PUSH2 0x17E2 JUMP JUMPDEST SWAP1 POP SWAP2 SWAP1 POP JUMP JUMPDEST PUSH32 0x4E6F7420656E6F75676820626C616E636520746F20706C6163652061736B0000 PUSH1 0x0 DUP3 ADD MSTORE POP JUMP JUMPDEST PUSH1 0x0 PUSH2 0x185B PUSH1 0x1E DUP4 PUSH2 0x1504 JUMP JUMPDEST SWAP2 POP PUSH2 0x1866 DUP3 PUSH2 0x1825 JUMP JUMPDEST PUSH1 0x20 DUP3 ADD SWAP1 POP SWAP2 SWAP1 POP JUMP JUMPDEST PUSH1 0x0 PUSH1 0x20 DUP3 ADD SWAP1 POP DUP2 DUP2 SUB PUSH1 0x0 DUP4 ADD MSTORE PUSH2 0x188A DUP2 PUSH2 0x184E JUMP JUMPDEST SWAP1 POP SWAP2 SWAP1 POP JUMP JUMPDEST PUSH32 0x4E487B7100000000000000000000000000000000000000000000000000000000 PUSH1 0x0 MSTORE PUSH1 0x11 PUSH1 0x4 MSTORE PUSH1 0x24 PUSH1 0x0 REVERT JUMPDEST PUSH1 0x0 PUSH2 0x18CB DUP3 PUSH2 0x119C JUMP JUMPDEST SWAP2 POP PUSH2 0x18D6 DUP4 PUSH2 0x119C JUMP JUMPDEST SWAP3 POP DUP3 DUP3 LT ISZERO PUSH2 0x18E9 JUMPI PUSH2 0x18E8 PUSH2 0x1891 JUMP JUMPDEST JUMPDEST DUP3 DUP3 SUB SWAP1 POP SWAP3 SWAP2 POP POP JUMP JUMPDEST PUSH1 0x0 PUSH2 0x18FF DUP3 PUSH2 0x119C JUMP JUMPDEST SWAP2 POP PUSH2 0x190A DUP4 PUSH2 0x119C JUMP JUMPDEST SWAP3 POP DUP2 PUSH32 0xFFFFFFFFFFFFFFFFFFFFFFFFFFFFFFFFFFFFFFFFFFFFFFFFFFFFFFFFFFFFFFFF DIV DUP4 GT DUP3 ISZERO ISZERO AND ISZERO PUSH2 0x1943 JUMPI PUSH2 0x1942 PUSH2 0x1891 JUMP JUMPDEST JUMPDEST DUP3 DUP3 MUL SWAP1 POP SWAP3 SWAP2 POP POP JUMP JUMPDEST PUSH32 0x4E487B7100000000000000000000000000000000000000000000000000000000 PUSH1 0x0 MSTORE PUSH1 0x12 PUSH1 0x4 MSTORE PUSH1 0x24 PUSH1 0x0 REVERT JUMPDEST PUSH1 0x0 PUSH2 0x1988 DUP3 PUSH2 0x119C JUMP JUMPDEST SWAP2 POP PUSH2 0x1993 DUP4 PUSH2 0x119C JUMP JUMPDEST SWAP3 POP DUP3 PUSH2 0x19A3 JUMPI PUSH2 0x19A2 PUSH2 0x194E JUMP JUMPDEST JUMPDEST DUP3 DUP3 DIV SWAP1 POP SWAP3 SWAP2 POP POP JUMP JUMPDEST PUSH32 0x4E6F7420656E6F75676820626C616E636520746F20706C616365206269640000 PUSH1 0x0 DUP3 ADD MSTORE POP JUMP JUMPDEST PUSH1 0x0 PUSH2 0x19E4 PUSH1 0x1E DUP4 PUSH2 0x1504 JUMP JUMPDEST SWAP2 POP PUSH2 0x19EF DUP3 PUSH2 0x19AE JUMP JUMPDEST PUSH1 0x20 DUP3 ADD SWAP1 POP SWAP2 SWAP1 POP JUMP JUMPDEST PUSH1 0x0 PUSH1 0x20 DUP3 ADD SWAP1 POP DUP2 DUP2 SUB PUSH1 0x0 DUP4 ADD MSTORE PUSH2 0x1A13 DUP2 PUSH2 0x19D7 JUMP JUMPDEST SWAP1 POP SWAP2 SWAP1 POP JUMP JUMPDEST PUSH1 0x0 DUP2 SWAP1 POP SWAP2 SWAP1 POP JUMP JUMPDEST PUSH1 0x0 DUP2 SWAP1 POP SWAP2 SWAP1 POP JUMP JUMPDEST PUSH2 0x1A3F PUSH2 0x1A3A DUP3 PUSH2 0x1A1A JUMP JUMPDEST PUSH2 0x1A24 JUMP JUMPDEST DUP3 MSTORE POP POP JUMP JUMPDEST PUSH32 0x202C200000000000000000000000000000000000000000000000000000000000 DUP2 MSTORE POP JUMP JUMPDEST PUSH1 0x0 PUSH2 0x1A77 DUP3 DUP6 PUSH2 0x1A2E JUMP JUMPDEST PUSH1 0x20 DUP3 ADD SWAP2 POP PUSH2 0x1A86 DUP3 PUSH2 0x1A45 JUMP JUMPDEST PUSH1 0x3 DUP3 ADD SWAP2 POP PUSH2 0x1A96 DUP3 DUP5 PUSH2 0x1A2E JUMP JUMPDEST PUSH1 0x20 DUP3 ADD SWAP2 POP DUP2 SWAP1 POP SWAP4 SWAP3 POP POP POP JUMP JUMPDEST PUSH1 0x0 PUSH2 0x1AB1 DUP3 PUSH2 0x119C JUMP JUMPDEST SWAP2 POP PUSH32 0xFFFFFFFFFFFFFFFFFFFFFFFFFFFFFFFFFFFFFFFFFFFFFFFFFFFFFFFFFFFFFFFF DUP3 SUB PUSH2 0x1AE3 JUMPI PUSH2 0x1AE2 PUSH2 0x1891 JUMP JUMPDEST JUMPDEST PUSH1 0x1 DUP3 ADD SWAP1 POP SWAP2 SWAP1 POP JUMP JUMPDEST PUSH1 0x0 PUSH2 0x1AF9 DUP3 PUSH2 0x130E JUMP JUMPDEST SWAP1 POP SWAP2 SWAP1 POP JUMP JUMPDEST PUSH2 0x1B09 DUP2 PUSH2 0x1AEE JUMP JUMPDEST DUP3 MSTORE POP POP JUMP JUMPDEST PUSH1 0x0 DUP2 SWAP1 POP SWAP2 SWAP1 POP JUMP JUMPDEST PUSH1 0x0 DUP2 SWAP1 POP SWAP2 SWAP1 POP JUMP JUMPDEST PUSH1 0x0 PUSH2 0x1B3E PUSH2 0x1B39 PUSH2 0x1B34 DUP5 PUSH2 0x1B0F JUMP JUMPDEST PUSH2 0x1B19 JUMP JUMPDEST PUSH2 0x119C JUMP JUMPDEST SWAP1 POP SWAP2 SWAP1 POP JUMP JUMPDEST PUSH2 0x1B4E DUP2 PUSH2 0x1B23 JUMP JUMPDEST DUP3 MSTORE POP POP JUMP JUMPDEST PUSH1 0x0 PUSH2 0x100 DUP3 ADD SWAP1 POP PUSH2 0x1B6A PUSH1 0x0 DUP4 ADD DUP12 PUSH2 0x1B00 JUMP JUMPDEST PUSH2 0x1B77 PUSH1 0x20 DUP4 ADD DUP11 PUSH2 0x12B8 JUMP JUMPDEST PUSH2 0x1B84 PUSH1 0x40 DUP4 ADD DUP10 PUSH2 0x12B8 JUMP JUMPDEST PUSH2 0x1B91 PUSH1 0x60 DUP4 ADD DUP9 PUSH2 0x15B4 JUMP JUMPDEST PUSH2 0x1B9E PUSH1 0x80 DUP4 ADD DUP8 PUSH2 0x12B8 JUMP JUMPDEST PUSH2 0x1BAB PUSH1 0xA0 DUP4 ADD DUP7 PUSH2 0x1B45 JUMP JUMPDEST PUSH2 0x1BB8 PUSH1 0xC0 DUP4 ADD DUP6 PUSH2 0x1B45 JUMP JUMPDEST PUSH2 0x1BC5 PUSH1 0xE0 DUP4 ADD DUP5 PUSH2 0x1654 JUMP JUMPDEST SWAP10 SWAP9 POP POP POP POP POP POP POP POP POP JUMP INVALID LOG2 PUSH5 0x6970667358 0x22 SLT KECCAK256 PUSH19 0x631F39D1F05B0A9362E5826213685D2D5E0712 CALLER 0x4F 0xE9 SHL 0x4A 0xEF GASLIMIT 0xA8 0x1E CALLVALUE STOP 0xED PUSH5 0x736F6C6343 STOP ADDMOD 0xD STOP CALLER "
				},
				"gasEstimates": {
					"creation": {
						"codeDepositCost": "1435200",
						"executionCost": "infinite",
						"totalCost": "infinite"
					},
					"external": {
						"appendString(uint256,uint256)": "infinite",
						"askCount()": "2518",
						"askHead()": "2452",
						"askTail()": "2561",
						"bidCount()": "2540",
						"bidHead()": "2496",
						"bidTail()": "2562",
						"cancelAsk(uint256)": "31089",
						"cancelBid(uint256)": "31088",
						"fetchAllBid()": "infinite",
						"fetchAsk()": "infinite",
						"fetchYourAskIds()": "infinite",
						"fetchYourBidIds()": "infinite",
						"getAskAddress(uint256)": "2960",
						"getAskState(uint256)": "2940",
						"getAskValue(uint256)": "infinite",
						"getBidAddress(uint256)": "2916",
						"getBidState(uint256)": "2939",
						"getBidValue(uint256)": "infinite",
						"getOrder(uint256)": "infinite",
						"placeAsk(uint256)": "infinite",
						"placeBid(uint256)": "787"
					},
					"internal": {
						"askBid(uint256,uint256)": "infinite",
						"createAsk(address,uint256,uint256)": "infinite",
						"createBid(address,uint256,uint256)": "infinite",
						"insertionSortAsk()": "infinite",
						"linkBid(uint256,uint256)": "infinite",
						"setAskHead(uint256)": "infinite",
						"setAskTail(uint256)": "infinite",
						"setBidHead(uint256)": "infinite",
						"setBidTail(uint256)": "infinite",
						"sortAsk(struct OrderBook.order memory)": "infinite"
					}
				},
				"methodIdentifiers": {
					"appendString(uint256,uint256)": "c12bcf49",
					"askCount()": "a394fda7",
					"askHead()": "801d9bbd",
					"askTail()": "ecdfb860",
					"bidCount()": "b40a5627",
					"bidHead()": "6e5b0f00",
					"bidTail()": "7bb51193",
					"cancelAsk(uint256)": "1628e0f5",
					"cancelBid(uint256)": "9703ef35",
					"fetchAllBid()": "4471417f",
					"fetchAsk()": "44e791e0",
					"fetchYourAskIds()": "122de8f2",
					"fetchYourBidIds()": "ce0cdc87",
					"getAskAddress(uint256)": "734a2e78",
					"getAskState(uint256)": "4d46712d",
					"getAskValue(uint256)": "db3a1396",
					"getBidAddress(uint256)": "69f632e2",
					"getBidState(uint256)": "bf77ffae",
					"getBidValue(uint256)": "2db6dfa7",
					"getOrder(uint256)": "d09ef241",
					"placeAsk(uint256)": "78c5b268",
					"placeBid(uint256)": "9979ef45"
				}
			},
			"storageLayout": {
				"storage": [
					{
						"astId": 8,
						"contract": "contracts/OrderBook.sol:OrderBook",
						"label": "bidValues",
						"offset": 0,
						"slot": "0",
						"type": "t_mapping(t_uint256,t_uint256)"
					},
					{
						"astId": 15,
						"contract": "contracts/OrderBook.sol:OrderBook",
						"label": "_owner",
						"offset": 0,
						"slot": "1",
						"type": "t_address_payable"
					},
					{
						"astId": 17,
						"contract": "contracts/OrderBook.sol:OrderBook",
						"label": "commission",
						"offset": 0,
						"slot": "2",
						"type": "t_uint256"
					},
					{
						"astId": 38,
						"contract": "contracts/OrderBook.sol:OrderBook",
						"label": "bidBook",
						"offset": 0,
						"slot": "3",
						"type": "t_mapping(t_uint256,t_struct(order)33_storage)"
					},
					{
						"astId": 40,
						"contract": "contracts/OrderBook.sol:OrderBook",
						"label": "bidHead",
						"offset": 0,
						"slot": "4",
						"type": "t_uint256"
					},
					{
						"astId": 42,
						"contract": "contracts/OrderBook.sol:OrderBook",
						"label": "bidTail",
						"offset": 0,
						"slot": "5",
						"type": "t_uint256"
					},
					{
						"astId": 44,
						"contract": "contracts/OrderBook.sol:OrderBook",
						"label": "bidCount",
						"offset": 0,
						"slot": "6",
						"type": "t_uint256"
					},
					{
						"astId": 49,
						"contract": "contracts/OrderBook.sol:OrderBook",
						"label": "askBook",
						"offset": 0,
						"slot": "7",
						"type": "t_mapping(t_uint256,t_struct(order)33_storage)"
					},
					{
						"astId": 51,
						"contract": "contracts/OrderBook.sol:OrderBook",
						"label": "askHead",
						"offset": 0,
						"slot": "8",
						"type": "t_uint256"
					},
					{
						"astId": 53,
						"contract": "contracts/OrderBook.sol:OrderBook",
						"label": "askTail",
						"offset": 0,
						"slot": "9",
						"type": "t_uint256"
					},
					{
						"astId": 55,
						"contract": "contracts/OrderBook.sol:OrderBook",
						"label": "askCount",
						"offset": 0,
						"slot": "10",
						"type": "t_uint256"
					}
				],
				"types": {
					"t_address_payable": {
						"encoding": "inplace",
						"label": "address payable",
						"numberOfBytes": "20"
					},
					"t_enum(State)4": {
						"encoding": "inplace",
						"label": "enum OrderBook.State",
						"numberOfBytes": "1"
					},
					"t_mapping(t_uint256,t_struct(order)33_storage)": {
						"encoding": "mapping",
						"key": "t_uint256",
						"label": "mapping(uint256 => struct OrderBook.order)",
						"numberOfBytes": "32",
						"value": "t_struct(order)33_storage"
					},
					"t_mapping(t_uint256,t_uint256)": {
						"encoding": "mapping",
						"key": "t_uint256",
						"label": "mapping(uint256 => uint256)",
						"numberOfBytes": "32",
						"value": "t_uint256"
					},
					"t_struct(order)33_storage": {
						"encoding": "inplace",
						"label": "struct OrderBook.order",
						"members": [
							{
								"astId": 19,
								"contract": "contracts/OrderBook.sol:OrderBook",
								"label": "customer",
								"offset": 0,
								"slot": "0",
								"type": "t_address_payable"
							},
							{
								"astId": 21,
								"contract": "contracts/OrderBook.sol:OrderBook",
								"label": "value",
								"offset": 0,
								"slot": "1",
								"type": "t_uint256"
							},
							{
								"astId": 23,
								"contract": "contracts/OrderBook.sol:OrderBook",
								"label": "timestamp",
								"offset": 0,
								"slot": "2",
								"type": "t_uint256"
							},
							{
								"astId": 26,
								"contract": "contracts/OrderBook.sol:OrderBook",
								"label": "state",
								"offset": 0,
								"slot": "3",
								"type": "t_enum(State)4"
							},
							{
								"astId": 28,
								"contract": "contracts/OrderBook.sol:OrderBook",
								"label": "id",
								"offset": 0,
								"slot": "4",
								"type": "t_uint256"
							},
							{
								"astId": 30,
								"contract": "contracts/OrderBook.sol:OrderBook",
								"label": "next",
								"offset": 0,
								"slot": "5",
								"type": "t_uint256"
							},
							{
								"astId": 32,
								"contract": "contracts/OrderBook.sol:OrderBook",
								"label": "prev",
								"offset": 0,
								"slot": "6",
								"type": "t_uint256"
							}
						],
						"numberOfBytes": "224"
					},
					"t_uint256": {
						"encoding": "inplace",
						"label": "uint256",
						"numberOfBytes": "32"
					}
				}
			},
			"userdoc": {
				"kind": "user",
				"methods": {},
				"version": 1
			}
		}
	}
}