{
	"contracts/OrderBook.sol": {
		"OrderBook": {
			"abi": [
				{
					"inputs": [
						{
							"internalType": "uint256",
							"name": "_commission",
							"type": "uint256"
						}
					],
					"stateMutability": "nonpayable",
					"type": "constructor"
				},
				{
					"anonymous": false,
					"inputs": [
						{
							"indexed": false,
							"internalType": "uint256",
							"name": "",
							"type": "uint256"
						}
					],
					"name": "askCancelled",
					"type": "event"
				},
				{
					"anonymous": false,
					"inputs": [
						{
							"indexed": false,
							"internalType": "address",
							"name": "",
							"type": "address"
						},
						{
							"indexed": false,
							"internalType": "uint256",
							"name": "",
							"type": "uint256"
						},
						{
							"indexed": false,
							"internalType": "uint256",
							"name": "",
							"type": "uint256"
						},
						{
							"indexed": false,
							"internalType": "enum OrderBook.State",
							"name": "",
							"type": "uint8"
						}
					],
					"name": "askPlaced",
					"type": "event"
				},
				{
					"anonymous": false,
					"inputs": [
						{
							"indexed": false,
							"internalType": "uint256",
							"name": "",
							"type": "uint256"
						}
					],
					"name": "bidCancelled",
					"type": "event"
				},
				{
					"anonymous": false,
					"inputs": [
						{
							"indexed": false,
							"internalType": "address",
							"name": "",
							"type": "address"
						},
						{
							"indexed": false,
							"internalType": "uint256",
							"name": "",
							"type": "uint256"
						},
						{
							"indexed": false,
							"internalType": "uint256",
							"name": "",
							"type": "uint256"
						},
						{
							"indexed": false,
							"internalType": "enum OrderBook.State",
							"name": "",
							"type": "uint8"
						}
					],
					"name": "bidPlaced",
					"type": "event"
				},
				{
					"inputs": [
						{
							"internalType": "uint256",
							"name": "askId",
							"type": "uint256"
						}
					],
					"name": "cancelAsk",
					"outputs": [],
					"stateMutability": "nonpayable",
					"type": "function"
				},
				{
					"inputs": [
						{
							"internalType": "uint256",
							"name": "bidId",
							"type": "uint256"
						}
					],
					"name": "cancelBid",
					"outputs": [],
					"stateMutability": "nonpayable",
					"type": "function"
				},
				{
					"inputs": [],
					"name": "fetchAllBid",
					"outputs": [
						{
							"components": [
								{
									"internalType": "address payable",
									"name": "customer",
									"type": "address"
								},
								{
									"internalType": "uint256",
									"name": "value",
									"type": "uint256"
								},
								{
									"internalType": "uint256",
									"name": "timestamp",
									"type": "uint256"
								},
								{
									"internalType": "enum OrderBook.State",
									"name": "state",
									"type": "uint8"
								},
								{
									"internalType": "uint256",
									"name": "next",
									"type": "uint256"
								},
								{
									"internalType": "uint256",
									"name": "prev",
									"type": "uint256"
								},
								{
									"internalType": "bool",
									"name": "delb",
									"type": "bool"
								}
							],
							"internalType": "struct OrderBook.order[]",
							"name": "",
							"type": "tuple[]"
						}
					],
					"stateMutability": "nonpayable",
					"type": "function"
				},
				{
					"inputs": [],
					"name": "fetchYourAskIds",
					"outputs": [
						{
							"internalType": "uint256[]",
							"name": "",
							"type": "uint256[]"
						}
					],
					"stateMutability": "nonpayable",
					"type": "function"
				},
				{
					"inputs": [],
					"name": "fetchYourBidIds",
					"outputs": [
						{
							"internalType": "uint256[]",
							"name": "",
							"type": "uint256[]"
						}
					],
					"stateMutability": "nonpayable",
					"type": "function"
				},
				{
					"inputs": [
						{
							"internalType": "uint256",
							"name": "id",
							"type": "uint256"
						}
					],
					"name": "getAskAddress",
					"outputs": [
						{
							"internalType": "address payable",
							"name": "",
							"type": "address"
						}
					],
					"stateMutability": "view",
					"type": "function"
				},
				{
					"inputs": [
						{
							"internalType": "uint256",
							"name": "id",
							"type": "uint256"
						}
					],
					"name": "getAskState",
					"outputs": [
						{
							"internalType": "enum OrderBook.State",
							"name": "",
							"type": "uint8"
						}
					],
					"stateMutability": "view",
					"type": "function"
				},
				{
					"inputs": [
						{
							"internalType": "uint256",
							"name": "id",
							"type": "uint256"
						}
					],
					"name": "getAskValue",
					"outputs": [
						{
							"internalType": "uint256",
							"name": "",
							"type": "uint256"
						}
					],
					"stateMutability": "view",
					"type": "function"
				},
				{
					"inputs": [
						{
							"internalType": "uint256",
							"name": "id",
							"type": "uint256"
						}
					],
					"name": "getBidAddress",
					"outputs": [
						{
							"internalType": "address payable",
							"name": "",
							"type": "address"
						}
					],
					"stateMutability": "view",
					"type": "function"
				},
				{
					"inputs": [
						{
							"internalType": "uint256",
							"name": "id",
							"type": "uint256"
						}
					],
					"name": "getBidState",
					"outputs": [
						{
							"internalType": "enum OrderBook.State",
							"name": "",
							"type": "uint8"
						}
					],
					"stateMutability": "view",
					"type": "function"
				},
				{
					"inputs": [
						{
							"internalType": "uint256",
							"name": "id",
							"type": "uint256"
						}
					],
					"name": "getBidValue",
					"outputs": [
						{
							"internalType": "uint256",
							"name": "",
							"type": "uint256"
						}
					],
					"stateMutability": "view",
					"type": "function"
				},
				{
					"inputs": [
						{
							"internalType": "uint256",
							"name": "price",
							"type": "uint256"
						}
					],
					"name": "placeAsk",
					"outputs": [],
					"stateMutability": "payable",
					"type": "function"
				},
				{
					"inputs": [
						{
							"internalType": "uint256",
							"name": "price",
							"type": "uint256"
						}
					],
					"name": "placeBid",
					"outputs": [],
					"stateMutability": "payable",
					"type": "function"
				}
			],
			"devdoc": {
				"kind": "dev",
				"methods": {},
				"version": 1
			},
			"evm": {
				"assembly": "    /* \"contracts/OrderBook.sol\":1047:5819  contract OrderBook {... */\n  mstore(0x40, 0x80)\n    /* \"contracts/OrderBook.sol\":1350:1360  msg.sender */\n  caller\n    /* \"contracts/OrderBook.sol\":1317:1361  address payable _owner = payable(msg.sender) */\n  0x03\n  exp(0x0100, 0x00)\n  dup2\n  sload\n  dup2\n  0xffffffffffffffffffffffffffffffffffffffff\n  mul\n  not\n  and\n  swap1\n  dup4\n  0xffffffffffffffffffffffffffffffffffffffff\n  and\n  mul\n  or\n  swap1\n  sstore\n  pop\n    /* \"contracts/OrderBook.sol\":1901:1902  0 */\n  0x00\n    /* \"contracts/OrderBook.sol\":1885:1902  uint bidCount = 0 */\n  0x06\n  sstore\n    /* \"contracts/OrderBook.sol\":2009:2010  0 */\n  0x00\n    /* \"contracts/OrderBook.sol\":1993:2010  uint askCount = 0 */\n  0x08\n  sstore\n    /* \"contracts/OrderBook.sol\":1438:1513  constructor (uint256 _commission) {... */\n  callvalue\n  dup1\n  iszero\n  tag_1\n  jumpi\n  0x00\n  dup1\n  revert\ntag_1:\n  pop\n  mload(0x40)\n  sub(codesize, bytecodeSize)\n  dup1\n  bytecodeSize\n  dup4\n  codecopy\n  dup2\n  dup2\n  add\n  0x40\n  mstore\n  dup2\n  add\n  swap1\n  tag_2\n  swap2\n  swap1\n  tag_3\n  jump\t// in\ntag_2:\n    /* \"contracts/OrderBook.sol\":1495:1506  _commission */\n  dup1\n    /* \"contracts/OrderBook.sol\":1482:1492  commission */\n  0x04\n    /* \"contracts/OrderBook.sol\":1482:1506  commission = _commission */\n  dup2\n  swap1\n  sstore\n  pop\n    /* \"contracts/OrderBook.sol\":1438:1513  constructor (uint256 _commission) {... */\n  pop\n    /* \"contracts/OrderBook.sol\":1047:5819  contract OrderBook {... */\n  jump(tag_6)\n    /* \"#utility.yul\":88:205   */\ntag_8:\n    /* \"#utility.yul\":197:198   */\n  0x00\n    /* \"#utility.yul\":194:195   */\n  dup1\n    /* \"#utility.yul\":187:199   */\n  revert\n    /* \"#utility.yul\":334:411   */\ntag_10:\n    /* \"#utility.yul\":371:378   */\n  0x00\n    /* \"#utility.yul\":400:405   */\n  dup2\n    /* \"#utility.yul\":389:405   */\n  swap1\n  pop\n    /* \"#utility.yul\":334:411   */\n  swap2\n  swap1\n  pop\n  jump\t// out\n    /* \"#utility.yul\":417:539   */\ntag_11:\n    /* \"#utility.yul\":490:514   */\n  tag_19\n    /* \"#utility.yul\":508:513   */\n  dup2\n    /* \"#utility.yul\":490:514   */\n  tag_10\n  jump\t// in\ntag_19:\n    /* \"#utility.yul\":483:488   */\n  dup2\n    /* \"#utility.yul\":480:515   */\n  eq\n    /* \"#utility.yul\":470:533   */\n  tag_20\n  jumpi\n    /* \"#utility.yul\":529:530   */\n  0x00\n    /* \"#utility.yul\":526:527   */\n  dup1\n    /* \"#utility.yul\":519:531   */\n  revert\n    /* \"#utility.yul\":470:533   */\ntag_20:\n    /* \"#utility.yul\":417:539   */\n  pop\n  jump\t// out\n    /* \"#utility.yul\":545:688   */\ntag_12:\n    /* \"#utility.yul\":602:607   */\n  0x00\n    /* \"#utility.yul\":633:639   */\n  dup2\n    /* \"#utility.yul\":627:640   */\n  mload\n    /* \"#utility.yul\":618:640   */\n  swap1\n  pop\n    /* \"#utility.yul\":649:682   */\n  tag_22\n    /* \"#utility.yul\":676:681   */\n  dup2\n    /* \"#utility.yul\":649:682   */\n  tag_11\n  jump\t// in\ntag_22:\n    /* \"#utility.yul\":545:688   */\n  swap3\n  swap2\n  pop\n  pop\n  jump\t// out\n    /* \"#utility.yul\":694:1045   */\ntag_3:\n    /* \"#utility.yul\":764:770   */\n  0x00\n    /* \"#utility.yul\":813:815   */\n  0x20\n    /* \"#utility.yul\":801:810   */\n  dup3\n    /* \"#utility.yul\":792:799   */\n  dup5\n    /* \"#utility.yul\":788:811   */\n  sub\n    /* \"#utility.yul\":784:816   */\n  slt\n    /* \"#utility.yul\":781:900   */\n  iszero\n  tag_24\n  jumpi\n    /* \"#utility.yul\":819:898   */\n  tag_25\n  tag_8\n  jump\t// in\ntag_25:\n    /* \"#utility.yul\":781:900   */\ntag_24:\n    /* \"#utility.yul\":939:940   */\n  0x00\n    /* \"#utility.yul\":964:1028   */\n  tag_26\n    /* \"#utility.yul\":1020:1027   */\n  dup5\n    /* \"#utility.yul\":1011:1017   */\n  dup3\n    /* \"#utility.yul\":1000:1009   */\n  dup6\n    /* \"#utility.yul\":996:1018   */\n  add\n    /* \"#utility.yul\":964:1028   */\n  tag_12\n  jump\t// in\ntag_26:\n    /* \"#utility.yul\":954:1028   */\n  swap2\n  pop\n    /* \"#utility.yul\":910:1038   */\n  pop\n    /* \"#utility.yul\":694:1045   */\n  swap3\n  swap2\n  pop\n  pop\n  jump\t// out\n    /* \"contracts/OrderBook.sol\":1047:5819  contract OrderBook {... */\ntag_6:\n  dataSize(sub_0)\n  dup1\n  dataOffset(sub_0)\n  0x00\n  codecopy\n  0x00\n  return\nstop\n\nsub_0: assembly {\n        /* \"contracts/OrderBook.sol\":1047:5819  contract OrderBook {... */\n      mstore(0x40, 0x80)\n      jumpi(tag_1, lt(calldatasize, 0x04))\n      shr(0xe0, calldataload(0x00))\n      dup1\n      0x734a2e78\n      gt\n      tag_15\n      jumpi\n      dup1\n      0x9979ef45\n      gt\n      tag_16\n      jumpi\n      dup1\n      0x9979ef45\n      eq\n      tag_11\n      jumpi\n      dup1\n      0xbf77ffae\n      eq\n      tag_12\n      jumpi\n      dup1\n      0xce0cdc87\n      eq\n      tag_13\n      jumpi\n      dup1\n      0xdb3a1396\n      eq\n      tag_14\n      jumpi\n      jump(tag_1)\n    tag_16:\n      dup1\n      0x734a2e78\n      eq\n      tag_8\n      jumpi\n      dup1\n      0x78c5b268\n      eq\n      tag_9\n      jumpi\n      dup1\n      0x9703ef35\n      eq\n      tag_10\n      jumpi\n      jump(tag_1)\n    tag_15:\n      dup1\n      0x122de8f2\n      eq\n      tag_2\n      jumpi\n      dup1\n      0x1628e0f5\n      eq\n      tag_3\n      jumpi\n      dup1\n      0x2db6dfa7\n      eq\n      tag_4\n      jumpi\n      dup1\n      0x4471417f\n      eq\n      tag_5\n      jumpi\n      dup1\n      0x4d46712d\n      eq\n      tag_6\n      jumpi\n      dup1\n      0x69f632e2\n      eq\n      tag_7\n      jumpi\n    tag_1:\n      0x00\n      dup1\n      revert\n        /* \"contracts/OrderBook.sol\":4883:5152  function fetchYourAskIds() public returns (uint[] memory) {... */\n    tag_2:\n      callvalue\n      dup1\n      iszero\n      tag_17\n      jumpi\n      0x00\n      dup1\n      revert\n    tag_17:\n      pop\n      tag_18\n      tag_19\n      jump\t// in\n    tag_18:\n      mload(0x40)\n      tag_20\n      swap2\n      swap1\n      tag_21\n      jump\t// in\n    tag_20:\n      mload(0x40)\n      dup1\n      swap2\n      sub\n      swap1\n      return\n        /* \"contracts/OrderBook.sol\":4063:4340  function cancelAsk (uint askId) public isPending(askBook[askId]) isAuthorised(askBook[askId], msg.sender) {... */\n    tag_3:\n      callvalue\n      dup1\n      iszero\n      tag_22\n      jumpi\n      0x00\n      dup1\n      revert\n    tag_22:\n      pop\n      tag_23\n      0x04\n      dup1\n      calldatasize\n      sub\n      dup2\n      add\n      swap1\n      tag_24\n      swap2\n      swap1\n      tag_25\n      jump\t// in\n    tag_24:\n      tag_26\n      jump\t// in\n    tag_23:\n      stop\n        /* \"contracts/OrderBook.sol\":5398:5499  function getBidValue (uint id) public view returns(uint256) {... */\n    tag_4:\n      callvalue\n      dup1\n      iszero\n      tag_27\n      jumpi\n      0x00\n      dup1\n      revert\n    tag_27:\n      pop\n      tag_28\n      0x04\n      dup1\n      calldatasize\n      sub\n      dup2\n      add\n      swap1\n      tag_29\n      swap2\n      swap1\n      tag_25\n      jump\t// in\n    tag_29:\n      tag_30\n      jump\t// in\n    tag_28:\n      mload(0x40)\n      tag_31\n      swap2\n      swap1\n      tag_32\n      jump\t// in\n    tag_31:\n      mload(0x40)\n      dup1\n      swap2\n      sub\n      swap1\n      return\n        /* \"contracts/OrderBook.sol\":4374:4469  function fetchAllBid() public returns (order[] memory) {... */\n    tag_5:\n      callvalue\n      dup1\n      iszero\n      tag_33\n      jumpi\n      0x00\n      dup1\n      revert\n    tag_33:\n      pop\n      tag_34\n      tag_35\n      jump\t// in\n    tag_34:\n      mload(0x40)\n      tag_36\n      swap2\n      swap1\n      tag_37\n      jump\t// in\n    tag_36:\n      mload(0x40)\n      dup1\n      swap2\n      sub\n      swap1\n      return\n        /* \"contracts/OrderBook.sol\":5717:5816  function getAskState (uint id) public view returns(State) {... */\n    tag_6:\n      callvalue\n      dup1\n      iszero\n      tag_38\n      jumpi\n      0x00\n      dup1\n      revert\n    tag_38:\n      pop\n      tag_39\n      0x04\n      dup1\n      calldatasize\n      sub\n      dup2\n      add\n      swap1\n      tag_40\n      swap2\n      swap1\n      tag_25\n      jump\t// in\n    tag_40:\n      tag_41\n      jump\t// in\n    tag_39:\n      mload(0x40)\n      tag_42\n      swap2\n      swap1\n      tag_43\n      jump\t// in\n    tag_42:\n      mload(0x40)\n      dup1\n      swap2\n      sub\n      swap1\n      return\n        /* \"contracts/OrderBook.sol\":5158:5272  function getBidAddress (uint id) public view returns(address payable) {... */\n    tag_7:\n      callvalue\n      dup1\n      iszero\n      tag_44\n      jumpi\n      0x00\n      dup1\n      revert\n    tag_44:\n      pop\n      tag_45\n      0x04\n      dup1\n      calldatasize\n      sub\n      dup2\n      add\n      swap1\n      tag_46\n      swap2\n      swap1\n      tag_25\n      jump\t// in\n    tag_46:\n      tag_47\n      jump\t// in\n    tag_45:\n      mload(0x40)\n      tag_48\n      swap2\n      swap1\n      tag_49\n      jump\t// in\n    tag_48:\n      mload(0x40)\n      dup1\n      swap2\n      sub\n      swap1\n      return\n        /* \"contracts/OrderBook.sol\":5278:5392  function getAskAddress (uint id) public view returns(address payable) {... */\n    tag_8:\n      callvalue\n      dup1\n      iszero\n      tag_50\n      jumpi\n      0x00\n      dup1\n      revert\n    tag_50:\n      pop\n      tag_51\n      0x04\n      dup1\n      calldatasize\n      sub\n      dup2\n      add\n      swap1\n      tag_52\n      swap2\n      swap1\n      tag_25\n      jump\t// in\n    tag_52:\n      tag_53\n      jump\t// in\n    tag_51:\n      mload(0x40)\n      tag_54\n      swap2\n      swap1\n      tag_49\n      jump\t// in\n    tag_54:\n      mload(0x40)\n      dup1\n      swap2\n      sub\n      swap1\n      return\n        /* \"contracts/OrderBook.sol\":3506:4057  function placeAsk (uint256 price) public payable {... */\n    tag_9:\n      tag_55\n      0x04\n      dup1\n      calldatasize\n      sub\n      dup2\n      add\n      swap1\n      tag_56\n      swap2\n      swap1\n      tag_25\n      jump\t// in\n    tag_56:\n      tag_57\n      jump\t// in\n    tag_55:\n      stop\n        /* \"contracts/OrderBook.sol\":3258:3500  function cancelBid (uint bidId) public isPending(bidBook[bidId]) isAuthorised(bidBook[bidId], msg.sender) {... */\n    tag_10:\n      callvalue\n      dup1\n      iszero\n      tag_58\n      jumpi\n      0x00\n      dup1\n      revert\n    tag_58:\n      pop\n      tag_59\n      0x04\n      dup1\n      calldatasize\n      sub\n      dup2\n      add\n      swap1\n      tag_60\n      swap2\n      swap1\n      tag_25\n      jump\t// in\n    tag_60:\n      tag_61\n      jump\t// in\n    tag_59:\n      stop\n        /* \"contracts/OrderBook.sol\":2701:3252  function placeBid (uint256 price) public payable {... */\n    tag_11:\n      tag_62\n      0x04\n      dup1\n      calldatasize\n      sub\n      dup2\n      add\n      swap1\n      tag_63\n      swap2\n      swap1\n      tag_25\n      jump\t// in\n    tag_63:\n      tag_64\n      jump\t// in\n    tag_62:\n      stop\n        /* \"contracts/OrderBook.sol\":5612:5711  function getBidState (uint id) public view returns(State) {... */\n    tag_12:\n      callvalue\n      dup1\n      iszero\n      tag_65\n      jumpi\n      0x00\n      dup1\n      revert\n    tag_65:\n      pop\n      tag_66\n      0x04\n      dup1\n      calldatasize\n      sub\n      dup2\n      add\n      swap1\n      tag_67\n      swap2\n      swap1\n      tag_25\n      jump\t// in\n    tag_67:\n      tag_68\n      jump\t// in\n    tag_66:\n      mload(0x40)\n      tag_69\n      swap2\n      swap1\n      tag_43\n      jump\t// in\n    tag_69:\n      mload(0x40)\n      dup1\n      swap2\n      sub\n      swap1\n      return\n        /* \"contracts/OrderBook.sol\":4608:4877  function fetchYourBidIds() public returns (uint[] memory) {... */\n    tag_13:\n      callvalue\n      dup1\n      iszero\n      tag_70\n      jumpi\n      0x00\n      dup1\n      revert\n    tag_70:\n      pop\n      tag_71\n      tag_72\n      jump\t// in\n    tag_71:\n      mload(0x40)\n      tag_73\n      swap2\n      swap1\n      tag_21\n      jump\t// in\n    tag_73:\n      mload(0x40)\n      dup1\n      swap2\n      sub\n      swap1\n      return\n        /* \"contracts/OrderBook.sol\":5505:5606  function getAskValue (uint id) public view returns(uint256) {... */\n    tag_14:\n      callvalue\n      dup1\n      iszero\n      tag_74\n      jumpi\n      0x00\n      dup1\n      revert\n    tag_74:\n      pop\n      tag_75\n      0x04\n      dup1\n      calldatasize\n      sub\n      dup2\n      add\n      swap1\n      tag_76\n      swap2\n      swap1\n      tag_25\n      jump\t// in\n    tag_76:\n      tag_77\n      jump\t// in\n    tag_75:\n      mload(0x40)\n      tag_78\n      swap2\n      swap1\n      tag_32\n      jump\t// in\n    tag_78:\n      mload(0x40)\n      dup1\n      swap2\n      sub\n      swap1\n      return\n        /* \"contracts/OrderBook.sol\":4883:5152  function fetchYourAskIds() public returns (uint[] memory) {... */\n    tag_19:\n        /* \"contracts/OrderBook.sol\":4926:4939  uint[] memory */\n      0x60\n        /* \"contracts/OrderBook.sol\":4883:5152  function fetchYourAskIds() public returns (uint[] memory) {... */\n      swap1\n      jump\t// out\n        /* \"contracts/OrderBook.sol\":4063:4340  function cancelAsk (uint askId) public isPending(askBook[askId]) isAuthorised(askBook[askId], msg.sender) {... */\n    tag_26:\n        /* \"contracts/OrderBook.sol\":4112:4119  askBook */\n      0x07\n        /* \"contracts/OrderBook.sol\":4112:4126  askBook[askId] */\n      0x00\n        /* \"contracts/OrderBook.sol\":4120:4125  askId */\n      dup3\n        /* \"contracts/OrderBook.sol\":4112:4126  askBook[askId] */\n      dup2\n      mstore\n      0x20\n      add\n      swap1\n      dup2\n      mstore\n      0x20\n      add\n      0x00\n      keccak256\n        /* \"contracts/OrderBook.sol\":2264:2387  modifier isPending(order memory _order) {... */\n      mload(0x40)\n      dup1\n      0xe0\n      add\n      0x40\n      mstore\n      swap1\n      dup2\n      0x00\n      dup3\n      add\n      0x00\n      swap1\n      sload\n      swap1\n      0x0100\n      exp\n      swap1\n      div\n      0xffffffffffffffffffffffffffffffffffffffff\n      and\n      0xffffffffffffffffffffffffffffffffffffffff\n      and\n      0xffffffffffffffffffffffffffffffffffffffff\n      and\n      dup2\n      mstore\n      0x20\n      add\n      0x01\n      dup3\n      add\n      sload\n      dup2\n      mstore\n      0x20\n      add\n      0x02\n      dup3\n      add\n      sload\n      dup2\n      mstore\n      0x20\n      add\n      0x03\n      dup3\n      add\n      0x00\n      swap1\n      sload\n      swap1\n      0x0100\n      exp\n      swap1\n      div\n      0xff\n      and\n      0x01\n      dup2\n      gt\n      iszero\n      tag_80\n      jumpi\n      tag_81\n      tag_82\n      jump\t// in\n    tag_81:\n    tag_80:\n      0x01\n      dup2\n      gt\n      iszero\n      tag_83\n      jumpi\n      tag_84\n      tag_82\n      jump\t// in\n    tag_84:\n    tag_83:\n      dup2\n      mstore\n      0x20\n      add\n      0x04\n      dup3\n      add\n      sload\n      dup2\n      mstore\n      0x20\n      add\n      0x05\n      dup3\n      add\n      sload\n      dup2\n      mstore\n      0x20\n      add\n      0x06\n      dup3\n      add\n      0x00\n      swap1\n      sload\n      swap1\n      0x0100\n      exp\n      swap1\n      div\n      0xff\n      and\n      iszero\n      iszero\n      iszero\n      iszero\n      dup2\n      mstore\n      pop\n      pop\n        /* \"contracts/OrderBook.sol\":2338:2351  State.pending */\n      0x00\n        /* \"contracts/OrderBook.sol\":2322:2351  _order.state == State.pending */\n      0x01\n      dup2\n      gt\n      iszero\n      tag_86\n      jumpi\n      tag_87\n      tag_82\n      jump\t// in\n    tag_87:\n    tag_86:\n        /* \"contracts/OrderBook.sol\":2322:2328  _order */\n      dup2\n        /* \"contracts/OrderBook.sol\":2322:2334  _order.state */\n      0x60\n      add\n      mload\n        /* \"contracts/OrderBook.sol\":2322:2351  _order.state == State.pending */\n      0x01\n      dup2\n      gt\n      iszero\n      tag_88\n      jumpi\n      tag_89\n      tag_82\n      jump\t// in\n    tag_89:\n    tag_88:\n      eq\n        /* \"contracts/OrderBook.sol\":2314:2369  require(_order.state == State.pending, \"Order Pending\") */\n      tag_90\n      jumpi\n      mload(0x40)\n      0x08c379a000000000000000000000000000000000000000000000000000000000\n      dup2\n      mstore\n      0x04\n      add\n      tag_91\n      swap1\n      tag_92\n      jump\t// in\n    tag_91:\n      mload(0x40)\n      dup1\n      swap2\n      sub\n      swap1\n      revert\n    tag_90:\n        /* \"contracts/OrderBook.sol\":4141:4148  askBook */\n      0x07\n        /* \"contracts/OrderBook.sol\":4141:4155  askBook[askId] */\n      0x00\n        /* \"contracts/OrderBook.sol\":4149:4154  askId */\n      dup4\n        /* \"contracts/OrderBook.sol\":4141:4155  askBook[askId] */\n      dup2\n      mstore\n      0x20\n      add\n      swap1\n      dup2\n      mstore\n      0x20\n      add\n      0x00\n      keccak256\n        /* \"contracts/OrderBook.sol\":2393:2532  modifier isAuthorised(order memory _order, address sender) {... */\n      mload(0x40)\n      dup1\n      0xe0\n      add\n      0x40\n      mstore\n      swap1\n      dup2\n      0x00\n      dup3\n      add\n      0x00\n      swap1\n      sload\n      swap1\n      0x0100\n      exp\n      swap1\n      div\n      0xffffffffffffffffffffffffffffffffffffffff\n      and\n      0xffffffffffffffffffffffffffffffffffffffff\n      and\n      0xffffffffffffffffffffffffffffffffffffffff\n      and\n      dup2\n      mstore\n      0x20\n      add\n      0x01\n      dup3\n      add\n      sload\n      dup2\n      mstore\n      0x20\n      add\n      0x02\n      dup3\n      add\n      sload\n      dup2\n      mstore\n      0x20\n      add\n      0x03\n      dup3\n      add\n      0x00\n      swap1\n      sload\n      swap1\n      0x0100\n      exp\n      swap1\n      div\n      0xff\n      and\n      0x01\n      dup2\n      gt\n      iszero\n      tag_93\n      jumpi\n      tag_94\n      tag_82\n      jump\t// in\n    tag_94:\n    tag_93:\n      0x01\n      dup2\n      gt\n      iszero\n      tag_95\n      jumpi\n      tag_96\n      tag_82\n      jump\t// in\n    tag_96:\n    tag_95:\n      dup2\n      mstore\n      0x20\n      add\n      0x04\n      dup3\n      add\n      sload\n      dup2\n      mstore\n      0x20\n      add\n      0x05\n      dup3\n      add\n      sload\n      dup2\n      mstore\n      0x20\n      add\n      0x06\n      dup3\n      add\n      0x00\n      swap1\n      sload\n      swap1\n      0x0100\n      exp\n      swap1\n      div\n      0xff\n      and\n      iszero\n      iszero\n      iszero\n      iszero\n      dup2\n      mstore\n      pop\n      pop\n        /* \"contracts/OrderBook.sol\":4157:4167  msg.sender */\n      caller\n        /* \"contracts/OrderBook.sol\":2489:2495  sender */\n      dup1\n        /* \"contracts/OrderBook.sol\":2470:2495  _order.customer == sender */\n      0xffffffffffffffffffffffffffffffffffffffff\n      and\n        /* \"contracts/OrderBook.sol\":2470:2476  _order */\n      dup3\n        /* \"contracts/OrderBook.sol\":2470:2485  _order.customer */\n      0x00\n      add\n      mload\n        /* \"contracts/OrderBook.sol\":2470:2495  _order.customer == sender */\n      0xffffffffffffffffffffffffffffffffffffffff\n      and\n      eq\n        /* \"contracts/OrderBook.sol\":2462:2514  require(_order.customer == sender, \"Not Authorised\") */\n      tag_98\n      jumpi\n      mload(0x40)\n      0x08c379a000000000000000000000000000000000000000000000000000000000\n      dup2\n      mstore\n      0x04\n      add\n      tag_99\n      swap1\n      tag_100\n      jump\t// in\n    tag_99:\n      mload(0x40)\n      dup1\n      swap2\n      sub\n      swap1\n      revert\n    tag_98:\n        /* \"contracts/OrderBook.sol\":4179:4186  askBook */\n      0x07\n        /* \"contracts/OrderBook.sol\":4179:4193  askBook[askId] */\n      0x00\n        /* \"contracts/OrderBook.sol\":4187:4192  askId */\n      dup6\n        /* \"contracts/OrderBook.sol\":4179:4193  askBook[askId] */\n      dup2\n      mstore\n      0x20\n      add\n      swap1\n      dup2\n      mstore\n      0x20\n      add\n      0x00\n      keccak256\n        /* \"contracts/OrderBook.sol\":4179:4202  askBook[askId].customer */\n      0x00\n      add\n      0x00\n      swap1\n      sload\n      swap1\n      0x0100\n      exp\n      swap1\n      div\n      0xffffffffffffffffffffffffffffffffffffffff\n      and\n        /* \"contracts/OrderBook.sol\":4179:4211  askBook[askId].customer.transfer */\n      0xffffffffffffffffffffffffffffffffffffffff\n      and\n        /* \"contracts/OrderBook.sol\":4179:4233  askBook[askId].customer.transfer(askBook[askId].value) */\n      0x08fc\n        /* \"contracts/OrderBook.sol\":4212:4219  askBook */\n      0x07\n        /* \"contracts/OrderBook.sol\":4212:4226  askBook[askId] */\n      0x00\n        /* \"contracts/OrderBook.sol\":4220:4225  askId */\n      dup8\n        /* \"contracts/OrderBook.sol\":4212:4226  askBook[askId] */\n      dup2\n      mstore\n      0x20\n      add\n      swap1\n      dup2\n      mstore\n      0x20\n      add\n      0x00\n      keccak256\n        /* \"contracts/OrderBook.sol\":4212:4232  askBook[askId].value */\n      0x01\n      add\n      sload\n        /* \"contracts/OrderBook.sol\":4179:4233  askBook[askId].customer.transfer(askBook[askId].value) */\n      swap1\n      dup2\n      iszero\n      mul\n      swap1\n      mload(0x40)\n      0x00\n      mload(0x40)\n      dup1\n      dup4\n      sub\n      dup2\n      dup6\n      dup9\n      dup9\n      call\n      swap4\n      pop\n      pop\n      pop\n      pop\n      iszero\n      dup1\n      iszero\n      tag_103\n      jumpi\n      returndatasize\n      0x00\n      dup1\n      returndatacopy\n      revert(0x00, returndatasize)\n    tag_103:\n      pop\n        /* \"contracts/OrderBook.sol\":4250:4257  askBook */\n      0x07\n        /* \"contracts/OrderBook.sol\":4250:4264  askBook[askId] */\n      0x00\n        /* \"contracts/OrderBook.sol\":4258:4263  askId */\n      dup6\n        /* \"contracts/OrderBook.sol\":4250:4264  askBook[askId] */\n      dup2\n      mstore\n      0x20\n      add\n      swap1\n      dup2\n      mstore\n      0x20\n      add\n      0x00\n      keccak256\n      0x00\n        /* \"contracts/OrderBook.sol\":4243:4264  delete askBook[askId] */\n      dup1\n      dup3\n      add\n      exp(0x0100, 0x00)\n      dup2\n      sload\n      swap1\n      0xffffffffffffffffffffffffffffffffffffffff\n      mul\n      not\n      and\n      swap1\n      sstore\n      0x01\n      dup3\n      add\n      0x00\n      swap1\n      sstore\n      0x02\n      dup3\n      add\n      0x00\n      swap1\n      sstore\n      0x03\n      dup3\n      add\n      exp(0x0100, 0x00)\n      dup2\n      sload\n      swap1\n      0xff\n      mul\n      not\n      and\n      swap1\n      sstore\n      0x04\n      dup3\n      add\n      0x00\n      swap1\n      sstore\n      0x05\n      dup3\n      add\n      0x00\n      swap1\n      sstore\n      0x06\n      dup3\n      add\n      exp(0x0100, 0x00)\n      dup2\n      sload\n      swap1\n      0xff\n      mul\n      not\n      and\n      swap1\n      sstore\n      pop\n      pop\n        /* \"contracts/OrderBook.sol\":4314:4333  askCancelled(askId) */\n      0x48d3043fff66c1aee14954ac5aa463b0297fb08c9b60ee00486fb3387bb58aac\n        /* \"contracts/OrderBook.sol\":4327:4332  askId */\n      dup5\n        /* \"contracts/OrderBook.sol\":4314:4333  askCancelled(askId) */\n      mload(0x40)\n      tag_104\n      swap2\n      swap1\n      tag_32\n      jump\t// in\n    tag_104:\n      mload(0x40)\n      dup1\n      swap2\n      sub\n      swap1\n      log1\n        /* \"contracts/OrderBook.sol\":2379:2380  _ */\n      pop\n      pop\n        /* \"contracts/OrderBook.sol\":4063:4340  function cancelAsk (uint askId) public isPending(askBook[askId]) isAuthorised(askBook[askId], msg.sender) {... */\n      pop\n      pop\n      jump\t// out\n        /* \"contracts/OrderBook.sol\":5398:5499  function getBidValue (uint id) public view returns(uint256) {... */\n    tag_30:\n        /* \"contracts/OrderBook.sol\":5449:5456  uint256 */\n      0x00\n        /* \"contracts/OrderBook.sol\":5475:5482  bidBook */\n      0x05\n        /* \"contracts/OrderBook.sol\":5475:5486  bidBook[id] */\n      0x00\n        /* \"contracts/OrderBook.sol\":5483:5485  id */\n      dup4\n        /* \"contracts/OrderBook.sol\":5475:5486  bidBook[id] */\n      dup2\n      mstore\n      0x20\n      add\n      swap1\n      dup2\n      mstore\n      0x20\n      add\n      0x00\n      keccak256\n        /* \"contracts/OrderBook.sol\":5475:5492  bidBook[id].value */\n      0x01\n      add\n      sload\n        /* \"contracts/OrderBook.sol\":5468:5492  return bidBook[id].value */\n      swap1\n      pop\n        /* \"contracts/OrderBook.sol\":5398:5499  function getBidValue (uint id) public view returns(uint256) {... */\n      swap2\n      swap1\n      pop\n      jump\t// out\n        /* \"contracts/OrderBook.sol\":4374:4469  function fetchAllBid() public returns (order[] memory) {... */\n    tag_35:\n        /* \"contracts/OrderBook.sol\":4413:4427  order[] memory */\n      0x60\n        /* \"contracts/OrderBook.sol\":4374:4469  function fetchAllBid() public returns (order[] memory) {... */\n      swap1\n      jump\t// out\n        /* \"contracts/OrderBook.sol\":5717:5816  function getAskState (uint id) public view returns(State) {... */\n    tag_41:\n        /* \"contracts/OrderBook.sol\":5768:5773  State */\n      0x00\n        /* \"contracts/OrderBook.sol\":5792:5799  askBook */\n      0x07\n        /* \"contracts/OrderBook.sol\":5792:5803  askBook[id] */\n      0x00\n        /* \"contracts/OrderBook.sol\":5800:5802  id */\n      dup4\n        /* \"contracts/OrderBook.sol\":5792:5803  askBook[id] */\n      dup2\n      mstore\n      0x20\n      add\n      swap1\n      dup2\n      mstore\n      0x20\n      add\n      0x00\n      keccak256\n        /* \"contracts/OrderBook.sol\":5792:5809  askBook[id].state */\n      0x03\n      add\n      0x00\n      swap1\n      sload\n      swap1\n      0x0100\n      exp\n      swap1\n      div\n      0xff\n      and\n        /* \"contracts/OrderBook.sol\":5785:5809  return askBook[id].state */\n      swap1\n      pop\n        /* \"contracts/OrderBook.sol\":5717:5816  function getAskState (uint id) public view returns(State) {... */\n      swap2\n      swap1\n      pop\n      jump\t// out\n        /* \"contracts/OrderBook.sol\":5158:5272  function getBidAddress (uint id) public view returns(address payable) {... */\n    tag_47:\n        /* \"contracts/OrderBook.sol\":5211:5226  address payable */\n      0x00\n        /* \"contracts/OrderBook.sol\":5245:5252  bidBook */\n      0x05\n        /* \"contracts/OrderBook.sol\":5245:5256  bidBook[id] */\n      0x00\n        /* \"contracts/OrderBook.sol\":5253:5255  id */\n      dup4\n        /* \"contracts/OrderBook.sol\":5245:5256  bidBook[id] */\n      dup2\n      mstore\n      0x20\n      add\n      swap1\n      dup2\n      mstore\n      0x20\n      add\n      0x00\n      keccak256\n        /* \"contracts/OrderBook.sol\":5245:5265  bidBook[id].customer */\n      0x00\n      add\n      0x00\n      swap1\n      sload\n      swap1\n      0x0100\n      exp\n      swap1\n      div\n      0xffffffffffffffffffffffffffffffffffffffff\n      and\n        /* \"contracts/OrderBook.sol\":5238:5265  return bidBook[id].customer */\n      swap1\n      pop\n        /* \"contracts/OrderBook.sol\":5158:5272  function getBidAddress (uint id) public view returns(address payable) {... */\n      swap2\n      swap1\n      pop\n      jump\t// out\n        /* \"contracts/OrderBook.sol\":5278:5392  function getAskAddress (uint id) public view returns(address payable) {... */\n    tag_53:\n        /* \"contracts/OrderBook.sol\":5331:5346  address payable */\n      0x00\n        /* \"contracts/OrderBook.sol\":5365:5372  askBook */\n      0x07\n        /* \"contracts/OrderBook.sol\":5365:5376  askBook[id] */\n      0x00\n        /* \"contracts/OrderBook.sol\":5373:5375  id */\n      dup4\n        /* \"contracts/OrderBook.sol\":5365:5376  askBook[id] */\n      dup2\n      mstore\n      0x20\n      add\n      swap1\n      dup2\n      mstore\n      0x20\n      add\n      0x00\n      keccak256\n        /* \"contracts/OrderBook.sol\":5365:5385  askBook[id].customer */\n      0x00\n      add\n      0x00\n      swap1\n      sload\n      swap1\n      0x0100\n      exp\n      swap1\n      div\n      0xffffffffffffffffffffffffffffffffffffffff\n      and\n        /* \"contracts/OrderBook.sol\":5358:5385  return askBook[id].customer */\n      swap1\n      pop\n        /* \"contracts/OrderBook.sol\":5278:5392  function getAskAddress (uint id) public view returns(address payable) {... */\n      swap2\n      swap1\n      pop\n      jump\t// out\n        /* \"contracts/OrderBook.sol\":3506:4057  function placeAsk (uint256 price) public payable {... */\n    tag_57:\n        /* \"contracts/OrderBook.sol\":3582:3583  0 */\n      0x00\n        /* \"contracts/OrderBook.sol\":3573:3578  price */\n      dup2\n        /* \"contracts/OrderBook.sol\":3573:3583  price >= 0 */\n      lt\n      iszero\n        /* \"contracts/OrderBook.sol\":3565:3619  require(price >= 0, \"price value must be more than 0\") */\n      tag_111\n      jumpi\n      mload(0x40)\n      0x08c379a000000000000000000000000000000000000000000000000000000000\n      dup2\n      mstore\n      0x04\n      add\n      tag_112\n      swap1\n      tag_113\n      jump\t// in\n    tag_112:\n      mload(0x40)\n      dup1\n      swap2\n      sub\n      swap1\n      revert\n    tag_111:\n        /* \"contracts/OrderBook.sol\":3650:3655  price */\n      dup1\n        /* \"contracts/OrderBook.sol\":3637:3646  msg.value */\n      callvalue\n        /* \"contracts/OrderBook.sol\":3637:3655  msg.value >= price */\n      lt\n      iszero\n        /* \"contracts/OrderBook.sol\":3629:3690  require(msg.value >= price, \"Not enough blance to place ask\") */\n      tag_114\n      jumpi\n      mload(0x40)\n      0x08c379a000000000000000000000000000000000000000000000000000000000\n      dup2\n      mstore\n      0x04\n      add\n      tag_115\n      swap1\n      tag_116\n      jump\t// in\n    tag_115:\n      mload(0x40)\n      dup1\n      swap2\n      sub\n      swap1\n      revert\n    tag_114:\n        /* \"contracts/OrderBook.sol\":3700:3712  uint256 time */\n      0x00\n        /* \"contracts/OrderBook.sol\":3715:3730  block.timestamp */\n      timestamp\n        /* \"contracts/OrderBook.sol\":3700:3730  uint256 time = block.timestamp */\n      swap1\n      pop\n        /* \"contracts/OrderBook.sol\":3740:3765  uint256 commissionedPrice */\n      0x00\n        /* \"contracts/OrderBook.sol\":3799:3802  100 */\n      0x64\n        /* \"contracts/OrderBook.sol\":3785:3795  commission */\n      sload(0x04)\n        /* \"contracts/OrderBook.sol\":3781:3784  100 */\n      0x64\n        /* \"contracts/OrderBook.sol\":3781:3795  100-commission */\n      tag_117\n      swap2\n      swap1\n      tag_118\n      jump\t// in\n    tag_117:\n        /* \"contracts/OrderBook.sol\":3768:3777  msg.value */\n      callvalue\n        /* \"contracts/OrderBook.sol\":3768:3796  msg.value * (100-commission) */\n      tag_119\n      swap2\n      swap1\n      tag_120\n      jump\t// in\n    tag_119:\n        /* \"contracts/OrderBook.sol\":3768:3802  msg.value * (100-commission) / 100 */\n      tag_121\n      swap2\n      swap1\n      tag_122\n      jump\t// in\n    tag_121:\n        /* \"contracts/OrderBook.sol\":3740:3802  uint256 commissionedPrice = msg.value * (100-commission) / 100 */\n      swap1\n      pop\n        /* \"contracts/OrderBook.sol\":3943:3949  _owner */\n      0x03\n      0x00\n      swap1\n      sload\n      swap1\n      0x0100\n      exp\n      swap1\n      div\n      0xffffffffffffffffffffffffffffffffffffffff\n      and\n        /* \"contracts/OrderBook.sol\":3943:3958  _owner.transfer */\n      0xffffffffffffffffffffffffffffffffffffffff\n      and\n        /* \"contracts/OrderBook.sol\":3943:3977  _owner.transfer(commissionedPrice) */\n      0x08fc\n        /* \"contracts/OrderBook.sol\":3959:3976  commissionedPrice */\n      dup3\n        /* \"contracts/OrderBook.sol\":3943:3977  _owner.transfer(commissionedPrice) */\n      swap1\n      dup2\n      iszero\n      mul\n      swap1\n      mload(0x40)\n      0x00\n      mload(0x40)\n      dup1\n      dup4\n      sub\n      dup2\n      dup6\n      dup9\n      dup9\n      call\n      swap4\n      pop\n      pop\n      pop\n      pop\n      iszero\n      dup1\n      iszero\n      tag_124\n      jumpi\n      returndatasize\n      0x00\n      dup1\n      returndatacopy\n      revert(0x00, returndatasize)\n    tag_124:\n      pop\n        /* \"contracts/OrderBook.sol\":3992:4050  askPlaced(msg.sender,commissionedPrice,time,State.pending) */\n      0xc2125a7f3edfeff7a3bbcfe393c5aa3a6589585d4a7ee70db48c34f67c8209e2\n        /* \"contracts/OrderBook.sol\":4002:4012  msg.sender */\n      caller\n        /* \"contracts/OrderBook.sol\":4013:4030  commissionedPrice */\n      dup3\n        /* \"contracts/OrderBook.sol\":4031:4035  time */\n      dup5\n        /* \"contracts/OrderBook.sol\":4036:4049  State.pending */\n      0x00\n        /* \"contracts/OrderBook.sol\":3992:4050  askPlaced(msg.sender,commissionedPrice,time,State.pending) */\n      mload(0x40)\n      tag_125\n      swap5\n      swap4\n      swap3\n      swap2\n      swap1\n      tag_126\n      jump\t// in\n    tag_125:\n      mload(0x40)\n      dup1\n      swap2\n      sub\n      swap1\n      log1\n        /* \"contracts/OrderBook.sol\":3555:4057  {... */\n      pop\n      pop\n        /* \"contracts/OrderBook.sol\":3506:4057  function placeAsk (uint256 price) public payable {... */\n      pop\n      jump\t// out\n        /* \"contracts/OrderBook.sol\":3258:3500  function cancelBid (uint bidId) public isPending(bidBook[bidId]) isAuthorised(bidBook[bidId], msg.sender) {... */\n    tag_61:\n        /* \"contracts/OrderBook.sol\":3307:3314  bidBook */\n      0x05\n        /* \"contracts/OrderBook.sol\":3307:3321  bidBook[bidId] */\n      0x00\n        /* \"contracts/OrderBook.sol\":3315:3320  bidId */\n      dup3\n        /* \"contracts/OrderBook.sol\":3307:3321  bidBook[bidId] */\n      dup2\n      mstore\n      0x20\n      add\n      swap1\n      dup2\n      mstore\n      0x20\n      add\n      0x00\n      keccak256\n        /* \"contracts/OrderBook.sol\":2264:2387  modifier isPending(order memory _order) {... */\n      mload(0x40)\n      dup1\n      0xe0\n      add\n      0x40\n      mstore\n      swap1\n      dup2\n      0x00\n      dup3\n      add\n      0x00\n      swap1\n      sload\n      swap1\n      0x0100\n      exp\n      swap1\n      div\n      0xffffffffffffffffffffffffffffffffffffffff\n      and\n      0xffffffffffffffffffffffffffffffffffffffff\n      and\n      0xffffffffffffffffffffffffffffffffffffffff\n      and\n      dup2\n      mstore\n      0x20\n      add\n      0x01\n      dup3\n      add\n      sload\n      dup2\n      mstore\n      0x20\n      add\n      0x02\n      dup3\n      add\n      sload\n      dup2\n      mstore\n      0x20\n      add\n      0x03\n      dup3\n      add\n      0x00\n      swap1\n      sload\n      swap1\n      0x0100\n      exp\n      swap1\n      div\n      0xff\n      and\n      0x01\n      dup2\n      gt\n      iszero\n      tag_127\n      jumpi\n      tag_128\n      tag_82\n      jump\t// in\n    tag_128:\n    tag_127:\n      0x01\n      dup2\n      gt\n      iszero\n      tag_129\n      jumpi\n      tag_130\n      tag_82\n      jump\t// in\n    tag_130:\n    tag_129:\n      dup2\n      mstore\n      0x20\n      add\n      0x04\n      dup3\n      add\n      sload\n      dup2\n      mstore\n      0x20\n      add\n      0x05\n      dup3\n      add\n      sload\n      dup2\n      mstore\n      0x20\n      add\n      0x06\n      dup3\n      add\n      0x00\n      swap1\n      sload\n      swap1\n      0x0100\n      exp\n      swap1\n      div\n      0xff\n      and\n      iszero\n      iszero\n      iszero\n      iszero\n      dup2\n      mstore\n      pop\n      pop\n        /* \"contracts/OrderBook.sol\":2338:2351  State.pending */\n      0x00\n        /* \"contracts/OrderBook.sol\":2322:2351  _order.state == State.pending */\n      0x01\n      dup2\n      gt\n      iszero\n      tag_132\n      jumpi\n      tag_133\n      tag_82\n      jump\t// in\n    tag_133:\n    tag_132:\n        /* \"contracts/OrderBook.sol\":2322:2328  _order */\n      dup2\n        /* \"contracts/OrderBook.sol\":2322:2334  _order.state */\n      0x60\n      add\n      mload\n        /* \"contracts/OrderBook.sol\":2322:2351  _order.state == State.pending */\n      0x01\n      dup2\n      gt\n      iszero\n      tag_134\n      jumpi\n      tag_135\n      tag_82\n      jump\t// in\n    tag_135:\n    tag_134:\n      eq\n        /* \"contracts/OrderBook.sol\":2314:2369  require(_order.state == State.pending, \"Order Pending\") */\n      tag_136\n      jumpi\n      mload(0x40)\n      0x08c379a000000000000000000000000000000000000000000000000000000000\n      dup2\n      mstore\n      0x04\n      add\n      tag_137\n      swap1\n      tag_92\n      jump\t// in\n    tag_137:\n      mload(0x40)\n      dup1\n      swap2\n      sub\n      swap1\n      revert\n    tag_136:\n        /* \"contracts/OrderBook.sol\":3336:3343  bidBook */\n      0x05\n        /* \"contracts/OrderBook.sol\":3336:3350  bidBook[bidId] */\n      0x00\n        /* \"contracts/OrderBook.sol\":3344:3349  bidId */\n      dup4\n        /* \"contracts/OrderBook.sol\":3336:3350  bidBook[bidId] */\n      dup2\n      mstore\n      0x20\n      add\n      swap1\n      dup2\n      mstore\n      0x20\n      add\n      0x00\n      keccak256\n        /* \"contracts/OrderBook.sol\":2393:2532  modifier isAuthorised(order memory _order, address sender) {... */\n      mload(0x40)\n      dup1\n      0xe0\n      add\n      0x40\n      mstore\n      swap1\n      dup2\n      0x00\n      dup3\n      add\n      0x00\n      swap1\n      sload\n      swap1\n      0x0100\n      exp\n      swap1\n      div\n      0xffffffffffffffffffffffffffffffffffffffff\n      and\n      0xffffffffffffffffffffffffffffffffffffffff\n      and\n      0xffffffffffffffffffffffffffffffffffffffff\n      and\n      dup2\n      mstore\n      0x20\n      add\n      0x01\n      dup3\n      add\n      sload\n      dup2\n      mstore\n      0x20\n      add\n      0x02\n      dup3\n      add\n      sload\n      dup2\n      mstore\n      0x20\n      add\n      0x03\n      dup3\n      add\n      0x00\n      swap1\n      sload\n      swap1\n      0x0100\n      exp\n      swap1\n      div\n      0xff\n      and\n      0x01\n      dup2\n      gt\n      iszero\n      tag_138\n      jumpi\n      tag_139\n      tag_82\n      jump\t// in\n    tag_139:\n    tag_138:\n      0x01\n      dup2\n      gt\n      iszero\n      tag_140\n      jumpi\n      tag_141\n      tag_82\n      jump\t// in\n    tag_141:\n    tag_140:\n      dup2\n      mstore\n      0x20\n      add\n      0x04\n      dup3\n      add\n      sload\n      dup2\n      mstore\n      0x20\n      add\n      0x05\n      dup3\n      add\n      sload\n      dup2\n      mstore\n      0x20\n      add\n      0x06\n      dup3\n      add\n      0x00\n      swap1\n      sload\n      swap1\n      0x0100\n      exp\n      swap1\n      div\n      0xff\n      and\n      iszero\n      iszero\n      iszero\n      iszero\n      dup2\n      mstore\n      pop\n      pop\n        /* \"contracts/OrderBook.sol\":3352:3362  msg.sender */\n      caller\n        /* \"contracts/OrderBook.sol\":2489:2495  sender */\n      dup1\n        /* \"contracts/OrderBook.sol\":2470:2495  _order.customer == sender */\n      0xffffffffffffffffffffffffffffffffffffffff\n      and\n        /* \"contracts/OrderBook.sol\":2470:2476  _order */\n      dup3\n        /* \"contracts/OrderBook.sol\":2470:2485  _order.customer */\n      0x00\n      add\n      mload\n        /* \"contracts/OrderBook.sol\":2470:2495  _order.customer == sender */\n      0xffffffffffffffffffffffffffffffffffffffff\n      and\n      eq\n        /* \"contracts/OrderBook.sol\":2462:2514  require(_order.customer == sender, \"Not Authorised\") */\n      tag_143\n      jumpi\n      mload(0x40)\n      0x08c379a000000000000000000000000000000000000000000000000000000000\n      dup2\n      mstore\n      0x04\n      add\n      tag_144\n      swap1\n      tag_100\n      jump\t// in\n    tag_144:\n      mload(0x40)\n      dup1\n      swap2\n      sub\n      swap1\n      revert\n    tag_143:\n        /* \"contracts/OrderBook.sol\":3374:3381  bidBook */\n      0x05\n        /* \"contracts/OrderBook.sol\":3374:3388  bidBook[bidId] */\n      0x00\n        /* \"contracts/OrderBook.sol\":3382:3387  bidId */\n      dup6\n        /* \"contracts/OrderBook.sol\":3374:3388  bidBook[bidId] */\n      dup2\n      mstore\n      0x20\n      add\n      swap1\n      dup2\n      mstore\n      0x20\n      add\n      0x00\n      keccak256\n        /* \"contracts/OrderBook.sol\":3374:3397  bidBook[bidId].customer */\n      0x00\n      add\n      0x00\n      swap1\n      sload\n      swap1\n      0x0100\n      exp\n      swap1\n      div\n      0xffffffffffffffffffffffffffffffffffffffff\n      and\n        /* \"contracts/OrderBook.sol\":3374:3406  bidBook[bidId].customer.transfer */\n      0xffffffffffffffffffffffffffffffffffffffff\n      and\n        /* \"contracts/OrderBook.sol\":3374:3428  bidBook[bidId].customer.transfer(bidBook[bidId].value) */\n      0x08fc\n        /* \"contracts/OrderBook.sol\":3407:3414  bidBook */\n      0x05\n        /* \"contracts/OrderBook.sol\":3407:3421  bidBook[bidId] */\n      0x00\n        /* \"contracts/OrderBook.sol\":3415:3420  bidId */\n      dup8\n        /* \"contracts/OrderBook.sol\":3407:3421  bidBook[bidId] */\n      dup2\n      mstore\n      0x20\n      add\n      swap1\n      dup2\n      mstore\n      0x20\n      add\n      0x00\n      keccak256\n        /* \"contracts/OrderBook.sol\":3407:3427  bidBook[bidId].value */\n      0x01\n      add\n      sload\n        /* \"contracts/OrderBook.sol\":3374:3428  bidBook[bidId].customer.transfer(bidBook[bidId].value) */\n      swap1\n      dup2\n      iszero\n      mul\n      swap1\n      mload(0x40)\n      0x00\n      mload(0x40)\n      dup1\n      dup4\n      sub\n      dup2\n      dup6\n      dup9\n      dup9\n      call\n      swap4\n      pop\n      pop\n      pop\n      pop\n      iszero\n      dup1\n      iszero\n      tag_147\n      jumpi\n      returndatasize\n      0x00\n      dup1\n      returndatacopy\n      revert(0x00, returndatasize)\n    tag_147:\n      pop\n        /* \"contracts/OrderBook.sol\":3445:3452  bidBook */\n      0x05\n        /* \"contracts/OrderBook.sol\":3445:3459  bidBook[bidId] */\n      0x00\n        /* \"contracts/OrderBook.sol\":3453:3458  bidId */\n      dup6\n        /* \"contracts/OrderBook.sol\":3445:3459  bidBook[bidId] */\n      dup2\n      mstore\n      0x20\n      add\n      swap1\n      dup2\n      mstore\n      0x20\n      add\n      0x00\n      keccak256\n      0x00\n        /* \"contracts/OrderBook.sol\":3438:3459  delete bidBook[bidId] */\n      dup1\n      dup3\n      add\n      exp(0x0100, 0x00)\n      dup2\n      sload\n      swap1\n      0xffffffffffffffffffffffffffffffffffffffff\n      mul\n      not\n      and\n      swap1\n      sstore\n      0x01\n      dup3\n      add\n      0x00\n      swap1\n      sstore\n      0x02\n      dup3\n      add\n      0x00\n      swap1\n      sstore\n      0x03\n      dup3\n      add\n      exp(0x0100, 0x00)\n      dup2\n      sload\n      swap1\n      0xff\n      mul\n      not\n      and\n      swap1\n      sstore\n      0x04\n      dup3\n      add\n      0x00\n      swap1\n      sstore\n      0x05\n      dup3\n      add\n      0x00\n      swap1\n      sstore\n      0x06\n      dup3\n      add\n      exp(0x0100, 0x00)\n      dup2\n      sload\n      swap1\n      0xff\n      mul\n      not\n      and\n      swap1\n      sstore\n      pop\n      pop\n        /* \"contracts/OrderBook.sol\":3474:3493  bidCancelled(bidId) */\n      0xc845a6832afa0a4048dd70bbba2186093508a6b63a8d5d70a508f819fef257f8\n        /* \"contracts/OrderBook.sol\":3487:3492  bidId */\n      dup5\n        /* \"contracts/OrderBook.sol\":3474:3493  bidCancelled(bidId) */\n      mload(0x40)\n      tag_148\n      swap2\n      swap1\n      tag_32\n      jump\t// in\n    tag_148:\n      mload(0x40)\n      dup1\n      swap2\n      sub\n      swap1\n      log1\n        /* \"contracts/OrderBook.sol\":2379:2380  _ */\n      pop\n      pop\n        /* \"contracts/OrderBook.sol\":3258:3500  function cancelBid (uint bidId) public isPending(bidBook[bidId]) isAuthorised(bidBook[bidId], msg.sender) {... */\n      pop\n      pop\n      jump\t// out\n        /* \"contracts/OrderBook.sol\":2701:3252  function placeBid (uint256 price) public payable {... */\n    tag_64:\n        /* \"contracts/OrderBook.sol\":2777:2778  0 */\n      0x00\n        /* \"contracts/OrderBook.sol\":2768:2773  price */\n      dup2\n        /* \"contracts/OrderBook.sol\":2768:2778  price >= 0 */\n      lt\n      iszero\n        /* \"contracts/OrderBook.sol\":2760:2814  require(price >= 0, \"price value must be more than 0\") */\n      tag_150\n      jumpi\n      mload(0x40)\n      0x08c379a000000000000000000000000000000000000000000000000000000000\n      dup2\n      mstore\n      0x04\n      add\n      tag_151\n      swap1\n      tag_113\n      jump\t// in\n    tag_151:\n      mload(0x40)\n      dup1\n      swap2\n      sub\n      swap1\n      revert\n    tag_150:\n        /* \"contracts/OrderBook.sol\":2845:2850  price */\n      dup1\n        /* \"contracts/OrderBook.sol\":2832:2841  msg.value */\n      callvalue\n        /* \"contracts/OrderBook.sol\":2832:2850  msg.value >= price */\n      lt\n      iszero\n        /* \"contracts/OrderBook.sol\":2824:2885  require(msg.value >= price, \"Not enough blance to place bid\") */\n      tag_152\n      jumpi\n      mload(0x40)\n      0x08c379a000000000000000000000000000000000000000000000000000000000\n      dup2\n      mstore\n      0x04\n      add\n      tag_153\n      swap1\n      tag_154\n      jump\t// in\n    tag_153:\n      mload(0x40)\n      dup1\n      swap2\n      sub\n      swap1\n      revert\n    tag_152:\n        /* \"contracts/OrderBook.sol\":2895:2907  uint256 time */\n      0x00\n        /* \"contracts/OrderBook.sol\":2910:2925  block.timestamp */\n      timestamp\n        /* \"contracts/OrderBook.sol\":2895:2925  uint256 time = block.timestamp */\n      swap1\n      pop\n        /* \"contracts/OrderBook.sol\":2935:2960  uint256 commissionedPrice */\n      0x00\n        /* \"contracts/OrderBook.sol\":2994:2997  100 */\n      0x64\n        /* \"contracts/OrderBook.sol\":2980:2990  commission */\n      sload(0x04)\n        /* \"contracts/OrderBook.sol\":2976:2979  100 */\n      0x64\n        /* \"contracts/OrderBook.sol\":2976:2990  100-commission */\n      tag_155\n      swap2\n      swap1\n      tag_118\n      jump\t// in\n    tag_155:\n        /* \"contracts/OrderBook.sol\":2963:2972  msg.value */\n      callvalue\n        /* \"contracts/OrderBook.sol\":2963:2991  msg.value * (100-commission) */\n      tag_156\n      swap2\n      swap1\n      tag_120\n      jump\t// in\n    tag_156:\n        /* \"contracts/OrderBook.sol\":2963:2997  msg.value * (100-commission) / 100 */\n      tag_157\n      swap2\n      swap1\n      tag_122\n      jump\t// in\n    tag_157:\n        /* \"contracts/OrderBook.sol\":2935:2997  uint256 commissionedPrice = msg.value * (100-commission) / 100 */\n      swap1\n      pop\n        /* \"contracts/OrderBook.sol\":3138:3144  _owner */\n      0x03\n      0x00\n      swap1\n      sload\n      swap1\n      0x0100\n      exp\n      swap1\n      div\n      0xffffffffffffffffffffffffffffffffffffffff\n      and\n        /* \"contracts/OrderBook.sol\":3138:3153  _owner.transfer */\n      0xffffffffffffffffffffffffffffffffffffffff\n      and\n        /* \"contracts/OrderBook.sol\":3138:3172  _owner.transfer(commissionedPrice) */\n      0x08fc\n        /* \"contracts/OrderBook.sol\":3154:3171  commissionedPrice */\n      dup3\n        /* \"contracts/OrderBook.sol\":3138:3172  _owner.transfer(commissionedPrice) */\n      swap1\n      dup2\n      iszero\n      mul\n      swap1\n      mload(0x40)\n      0x00\n      mload(0x40)\n      dup1\n      dup4\n      sub\n      dup2\n      dup6\n      dup9\n      dup9\n      call\n      swap4\n      pop\n      pop\n      pop\n      pop\n      iszero\n      dup1\n      iszero\n      tag_159\n      jumpi\n      returndatasize\n      0x00\n      dup1\n      returndatacopy\n      revert(0x00, returndatasize)\n    tag_159:\n      pop\n        /* \"contracts/OrderBook.sol\":3187:3245  bidPlaced(msg.sender,commissionedPrice,time,State.pending) */\n      0xa64806d6d5d480697a0b11c92b915a4ff7b93c0be28171d65d30041a0c360d04\n        /* \"contracts/OrderBook.sol\":3197:3207  msg.sender */\n      caller\n        /* \"contracts/OrderBook.sol\":3208:3225  commissionedPrice */\n      dup3\n        /* \"contracts/OrderBook.sol\":3226:3230  time */\n      dup5\n        /* \"contracts/OrderBook.sol\":3231:3244  State.pending */\n      0x00\n        /* \"contracts/OrderBook.sol\":3187:3245  bidPlaced(msg.sender,commissionedPrice,time,State.pending) */\n      mload(0x40)\n      tag_160\n      swap5\n      swap4\n      swap3\n      swap2\n      swap1\n      tag_126\n      jump\t// in\n    tag_160:\n      mload(0x40)\n      dup1\n      swap2\n      sub\n      swap1\n      log1\n        /* \"contracts/OrderBook.sol\":2750:3252  {... */\n      pop\n      pop\n        /* \"contracts/OrderBook.sol\":2701:3252  function placeBid (uint256 price) public payable {... */\n      pop\n      jump\t// out\n        /* \"contracts/OrderBook.sol\":5612:5711  function getBidState (uint id) public view returns(State) {... */\n    tag_68:\n        /* \"contracts/OrderBook.sol\":5663:5668  State */\n      0x00\n        /* \"contracts/OrderBook.sol\":5687:5694  bidBook */\n      0x05\n        /* \"contracts/OrderBook.sol\":5687:5698  bidBook[id] */\n      0x00\n        /* \"contracts/OrderBook.sol\":5695:5697  id */\n      dup4\n        /* \"contracts/OrderBook.sol\":5687:5698  bidBook[id] */\n      dup2\n      mstore\n      0x20\n      add\n      swap1\n      dup2\n      mstore\n      0x20\n      add\n      0x00\n      keccak256\n        /* \"contracts/OrderBook.sol\":5687:5704  bidBook[id].state */\n      0x03\n      add\n      0x00\n      swap1\n      sload\n      swap1\n      0x0100\n      exp\n      swap1\n      div\n      0xff\n      and\n        /* \"contracts/OrderBook.sol\":5680:5704  return bidBook[id].state */\n      swap1\n      pop\n        /* \"contracts/OrderBook.sol\":5612:5711  function getBidState (uint id) public view returns(State) {... */\n      swap2\n      swap1\n      pop\n      jump\t// out\n        /* \"contracts/OrderBook.sol\":4608:4877  function fetchYourBidIds() public returns (uint[] memory) {... */\n    tag_72:\n        /* \"contracts/OrderBook.sol\":4651:4664  uint[] memory */\n      0x60\n        /* \"contracts/OrderBook.sol\":4608:4877  function fetchYourBidIds() public returns (uint[] memory) {... */\n      swap1\n      jump\t// out\n        /* \"contracts/OrderBook.sol\":5505:5606  function getAskValue (uint id) public view returns(uint256) {... */\n    tag_77:\n        /* \"contracts/OrderBook.sol\":5556:5563  uint256 */\n      0x00\n        /* \"contracts/OrderBook.sol\":5582:5589  askBook */\n      0x07\n        /* \"contracts/OrderBook.sol\":5582:5593  askBook[id] */\n      0x00\n        /* \"contracts/OrderBook.sol\":5590:5592  id */\n      dup4\n        /* \"contracts/OrderBook.sol\":5582:5593  askBook[id] */\n      dup2\n      mstore\n      0x20\n      add\n      swap1\n      dup2\n      mstore\n      0x20\n      add\n      0x00\n      keccak256\n        /* \"contracts/OrderBook.sol\":5582:5599  askBook[id].value */\n      0x01\n      add\n      sload\n        /* \"contracts/OrderBook.sol\":5575:5599  return askBook[id].value */\n      swap1\n      pop\n        /* \"contracts/OrderBook.sol\":5505:5606  function getAskValue (uint id) public view returns(uint256) {... */\n      swap2\n      swap1\n      pop\n      jump\t// out\n        /* \"#utility.yul\":7:121   */\n    tag_164:\n        /* \"#utility.yul\":74:80   */\n      0x00\n        /* \"#utility.yul\":108:113   */\n      dup2\n        /* \"#utility.yul\":102:114   */\n      mload\n        /* \"#utility.yul\":92:114   */\n      swap1\n      pop\n        /* \"#utility.yul\":7:121   */\n      swap2\n      swap1\n      pop\n      jump\t// out\n        /* \"#utility.yul\":127:311   */\n    tag_165:\n        /* \"#utility.yul\":226:237   */\n      0x00\n        /* \"#utility.yul\":260:266   */\n      dup3\n        /* \"#utility.yul\":255:258   */\n      dup3\n        /* \"#utility.yul\":248:267   */\n      mstore\n        /* \"#utility.yul\":300:304   */\n      0x20\n        /* \"#utility.yul\":295:298   */\n      dup3\n        /* \"#utility.yul\":291:305   */\n      add\n        /* \"#utility.yul\":276:305   */\n      swap1\n      pop\n        /* \"#utility.yul\":127:311   */\n      swap3\n      swap2\n      pop\n      pop\n      jump\t// out\n        /* \"#utility.yul\":317:449   */\n    tag_166:\n        /* \"#utility.yul\":384:388   */\n      0x00\n        /* \"#utility.yul\":407:410   */\n      dup2\n        /* \"#utility.yul\":399:410   */\n      swap1\n      pop\n        /* \"#utility.yul\":437:441   */\n      0x20\n        /* \"#utility.yul\":432:435   */\n      dup3\n        /* \"#utility.yul\":428:442   */\n      add\n        /* \"#utility.yul\":420:442   */\n      swap1\n      pop\n        /* \"#utility.yul\":317:449   */\n      swap2\n      swap1\n      pop\n      jump\t// out\n        /* \"#utility.yul\":455:532   */\n    tag_167:\n        /* \"#utility.yul\":492:499   */\n      0x00\n        /* \"#utility.yul\":521:526   */\n      dup2\n        /* \"#utility.yul\":510:526   */\n      swap1\n      pop\n        /* \"#utility.yul\":455:532   */\n      swap2\n      swap1\n      pop\n      jump\t// out\n        /* \"#utility.yul\":538:646   */\n    tag_168:\n        /* \"#utility.yul\":615:639   */\n      tag_217\n        /* \"#utility.yul\":633:638   */\n      dup2\n        /* \"#utility.yul\":615:639   */\n      tag_167\n      jump\t// in\n    tag_217:\n        /* \"#utility.yul\":610:613   */\n      dup3\n        /* \"#utility.yul\":603:640   */\n      mstore\n        /* \"#utility.yul\":538:646   */\n      pop\n      pop\n      jump\t// out\n        /* \"#utility.yul\":652:831   */\n    tag_169:\n        /* \"#utility.yul\":721:731   */\n      0x00\n        /* \"#utility.yul\":742:788   */\n      tag_219\n        /* \"#utility.yul\":784:787   */\n      dup4\n        /* \"#utility.yul\":776:782   */\n      dup4\n        /* \"#utility.yul\":742:788   */\n      tag_168\n      jump\t// in\n    tag_219:\n        /* \"#utility.yul\":820:824   */\n      0x20\n        /* \"#utility.yul\":815:818   */\n      dup4\n        /* \"#utility.yul\":811:825   */\n      add\n        /* \"#utility.yul\":797:825   */\n      swap1\n      pop\n        /* \"#utility.yul\":652:831   */\n      swap3\n      swap2\n      pop\n      pop\n      jump\t// out\n        /* \"#utility.yul\":837:950   */\n    tag_170:\n        /* \"#utility.yul\":907:911   */\n      0x00\n        /* \"#utility.yul\":939:943   */\n      0x20\n        /* \"#utility.yul\":934:937   */\n      dup3\n        /* \"#utility.yul\":930:944   */\n      add\n        /* \"#utility.yul\":922:944   */\n      swap1\n      pop\n        /* \"#utility.yul\":837:950   */\n      swap2\n      swap1\n      pop\n      jump\t// out\n        /* \"#utility.yul\":986:1718   */\n    tag_171:\n        /* \"#utility.yul\":1105:1108   */\n      0x00\n        /* \"#utility.yul\":1134:1188   */\n      tag_222\n        /* \"#utility.yul\":1182:1187   */\n      dup3\n        /* \"#utility.yul\":1134:1188   */\n      tag_164\n      jump\t// in\n    tag_222:\n        /* \"#utility.yul\":1204:1290   */\n      tag_223\n        /* \"#utility.yul\":1283:1289   */\n      dup2\n        /* \"#utility.yul\":1278:1281   */\n      dup6\n        /* \"#utility.yul\":1204:1290   */\n      tag_165\n      jump\t// in\n    tag_223:\n        /* \"#utility.yul\":1197:1290   */\n      swap4\n      pop\n        /* \"#utility.yul\":1314:1370   */\n      tag_224\n        /* \"#utility.yul\":1364:1369   */\n      dup4\n        /* \"#utility.yul\":1314:1370   */\n      tag_166\n      jump\t// in\n    tag_224:\n        /* \"#utility.yul\":1393:1400   */\n      dup1\n        /* \"#utility.yul\":1424:1425   */\n      0x00\n        /* \"#utility.yul\":1409:1693   */\n    tag_225:\n        /* \"#utility.yul\":1434:1440   */\n      dup4\n        /* \"#utility.yul\":1431:1432   */\n      dup2\n        /* \"#utility.yul\":1428:1441   */\n      lt\n        /* \"#utility.yul\":1409:1693   */\n      iszero\n      tag_227\n      jumpi\n        /* \"#utility.yul\":1510:1516   */\n      dup2\n        /* \"#utility.yul\":1504:1517   */\n      mload\n        /* \"#utility.yul\":1537:1600   */\n      tag_228\n        /* \"#utility.yul\":1596:1599   */\n      dup9\n        /* \"#utility.yul\":1581:1594   */\n      dup3\n        /* \"#utility.yul\":1537:1600   */\n      tag_169\n      jump\t// in\n    tag_228:\n        /* \"#utility.yul\":1530:1600   */\n      swap8\n      pop\n        /* \"#utility.yul\":1623:1683   */\n      tag_229\n        /* \"#utility.yul\":1676:1682   */\n      dup4\n        /* \"#utility.yul\":1623:1683   */\n      tag_170\n      jump\t// in\n    tag_229:\n        /* \"#utility.yul\":1613:1683   */\n      swap3\n      pop\n        /* \"#utility.yul\":1469:1693   */\n      pop\n        /* \"#utility.yul\":1456:1457   */\n      0x01\n        /* \"#utility.yul\":1453:1454   */\n      dup2\n        /* \"#utility.yul\":1449:1458   */\n      add\n        /* \"#utility.yul\":1444:1458   */\n      swap1\n      pop\n        /* \"#utility.yul\":1409:1693   */\n      jump(tag_225)\n    tag_227:\n        /* \"#utility.yul\":1413:1427   */\n      pop\n        /* \"#utility.yul\":1709:1712   */\n      dup6\n        /* \"#utility.yul\":1702:1712   */\n      swap4\n      pop\n        /* \"#utility.yul\":1110:1718   */\n      pop\n      pop\n      pop\n        /* \"#utility.yul\":986:1718   */\n      swap3\n      swap2\n      pop\n      pop\n      jump\t// out\n        /* \"#utility.yul\":1724:2097   */\n    tag_21:\n        /* \"#utility.yul\":1867:1871   */\n      0x00\n        /* \"#utility.yul\":1905:1907   */\n      0x20\n        /* \"#utility.yul\":1894:1903   */\n      dup3\n        /* \"#utility.yul\":1890:1908   */\n      add\n        /* \"#utility.yul\":1882:1908   */\n      swap1\n      pop\n        /* \"#utility.yul\":1954:1963   */\n      dup2\n        /* \"#utility.yul\":1948:1952   */\n      dup2\n        /* \"#utility.yul\":1944:1964   */\n      sub\n        /* \"#utility.yul\":1940:1941   */\n      0x00\n        /* \"#utility.yul\":1929:1938   */\n      dup4\n        /* \"#utility.yul\":1925:1942   */\n      add\n        /* \"#utility.yul\":1918:1965   */\n      mstore\n        /* \"#utility.yul\":1982:2090   */\n      tag_231\n        /* \"#utility.yul\":2085:2089   */\n      dup2\n        /* \"#utility.yul\":2076:2082   */\n      dup5\n        /* \"#utility.yul\":1982:2090   */\n      tag_171\n      jump\t// in\n    tag_231:\n        /* \"#utility.yul\":1974:2090   */\n      swap1\n      pop\n        /* \"#utility.yul\":1724:2097   */\n      swap3\n      swap2\n      pop\n      pop\n      jump\t// out\n        /* \"#utility.yul\":2184:2301   */\n    tag_173:\n        /* \"#utility.yul\":2293:2294   */\n      0x00\n        /* \"#utility.yul\":2290:2291   */\n      dup1\n        /* \"#utility.yul\":2283:2295   */\n      revert\n        /* \"#utility.yul\":2430:2552   */\n    tag_175:\n        /* \"#utility.yul\":2503:2527   */\n      tag_236\n        /* \"#utility.yul\":2521:2526   */\n      dup2\n        /* \"#utility.yul\":2503:2527   */\n      tag_167\n      jump\t// in\n    tag_236:\n        /* \"#utility.yul\":2496:2501   */\n      dup2\n        /* \"#utility.yul\":2493:2528   */\n      eq\n        /* \"#utility.yul\":2483:2546   */\n      tag_237\n      jumpi\n        /* \"#utility.yul\":2542:2543   */\n      0x00\n        /* \"#utility.yul\":2539:2540   */\n      dup1\n        /* \"#utility.yul\":2532:2544   */\n      revert\n        /* \"#utility.yul\":2483:2546   */\n    tag_237:\n        /* \"#utility.yul\":2430:2552   */\n      pop\n      jump\t// out\n        /* \"#utility.yul\":2558:2697   */\n    tag_176:\n        /* \"#utility.yul\":2604:2609   */\n      0x00\n        /* \"#utility.yul\":2642:2648   */\n      dup2\n        /* \"#utility.yul\":2629:2649   */\n      calldataload\n        /* \"#utility.yul\":2620:2649   */\n      swap1\n      pop\n        /* \"#utility.yul\":2658:2691   */\n      tag_239\n        /* \"#utility.yul\":2685:2690   */\n      dup2\n        /* \"#utility.yul\":2658:2691   */\n      tag_175\n      jump\t// in\n    tag_239:\n        /* \"#utility.yul\":2558:2697   */\n      swap3\n      swap2\n      pop\n      pop\n      jump\t// out\n        /* \"#utility.yul\":2703:3032   */\n    tag_25:\n        /* \"#utility.yul\":2762:2768   */\n      0x00\n        /* \"#utility.yul\":2811:2813   */\n      0x20\n        /* \"#utility.yul\":2799:2808   */\n      dup3\n        /* \"#utility.yul\":2790:2797   */\n      dup5\n        /* \"#utility.yul\":2786:2809   */\n      sub\n        /* \"#utility.yul\":2782:2814   */\n      slt\n        /* \"#utility.yul\":2779:2898   */\n      iszero\n      tag_241\n      jumpi\n        /* \"#utility.yul\":2817:2896   */\n      tag_242\n      tag_173\n      jump\t// in\n    tag_242:\n        /* \"#utility.yul\":2779:2898   */\n    tag_241:\n        /* \"#utility.yul\":2937:2938   */\n      0x00\n        /* \"#utility.yul\":2962:3015   */\n      tag_243\n        /* \"#utility.yul\":3007:3014   */\n      dup5\n        /* \"#utility.yul\":2998:3004   */\n      dup3\n        /* \"#utility.yul\":2987:2996   */\n      dup6\n        /* \"#utility.yul\":2983:3005   */\n      add\n        /* \"#utility.yul\":2962:3015   */\n      tag_176\n      jump\t// in\n    tag_243:\n        /* \"#utility.yul\":2952:3015   */\n      swap2\n      pop\n        /* \"#utility.yul\":2908:3025   */\n      pop\n        /* \"#utility.yul\":2703:3032   */\n      swap3\n      swap2\n      pop\n      pop\n      jump\t// out\n        /* \"#utility.yul\":3038:3156   */\n    tag_177:\n        /* \"#utility.yul\":3125:3149   */\n      tag_245\n        /* \"#utility.yul\":3143:3148   */\n      dup2\n        /* \"#utility.yul\":3125:3149   */\n      tag_167\n      jump\t// in\n    tag_245:\n        /* \"#utility.yul\":3120:3123   */\n      dup3\n        /* \"#utility.yul\":3113:3150   */\n      mstore\n        /* \"#utility.yul\":3038:3156   */\n      pop\n      pop\n      jump\t// out\n        /* \"#utility.yul\":3162:3384   */\n    tag_32:\n        /* \"#utility.yul\":3255:3259   */\n      0x00\n        /* \"#utility.yul\":3293:3295   */\n      0x20\n        /* \"#utility.yul\":3282:3291   */\n      dup3\n        /* \"#utility.yul\":3278:3296   */\n      add\n        /* \"#utility.yul\":3270:3296   */\n      swap1\n      pop\n        /* \"#utility.yul\":3306:3377   */\n      tag_247\n        /* \"#utility.yul\":3374:3375   */\n      0x00\n        /* \"#utility.yul\":3363:3372   */\n      dup4\n        /* \"#utility.yul\":3359:3376   */\n      add\n        /* \"#utility.yul\":3350:3356   */\n      dup5\n        /* \"#utility.yul\":3306:3377   */\n      tag_177\n      jump\t// in\n    tag_247:\n        /* \"#utility.yul\":3162:3384   */\n      swap3\n      swap2\n      pop\n      pop\n      jump\t// out\n        /* \"#utility.yul\":3390:3525   */\n    tag_178:\n        /* \"#utility.yul\":3478:3484   */\n      0x00\n        /* \"#utility.yul\":3512:3517   */\n      dup2\n        /* \"#utility.yul\":3506:3518   */\n      mload\n        /* \"#utility.yul\":3496:3518   */\n      swap1\n      pop\n        /* \"#utility.yul\":3390:3525   */\n      swap2\n      swap1\n      pop\n      jump\t// out\n        /* \"#utility.yul\":3531:3736   */\n    tag_179:\n        /* \"#utility.yul\":3651:3662   */\n      0x00\n        /* \"#utility.yul\":3685:3691   */\n      dup3\n        /* \"#utility.yul\":3680:3683   */\n      dup3\n        /* \"#utility.yul\":3673:3692   */\n      mstore\n        /* \"#utility.yul\":3725:3729   */\n      0x20\n        /* \"#utility.yul\":3720:3723   */\n      dup3\n        /* \"#utility.yul\":3716:3730   */\n      add\n        /* \"#utility.yul\":3701:3730   */\n      swap1\n      pop\n        /* \"#utility.yul\":3531:3736   */\n      swap3\n      swap2\n      pop\n      pop\n      jump\t// out\n        /* \"#utility.yul\":3742:3895   */\n    tag_180:\n        /* \"#utility.yul\":3830:3834   */\n      0x00\n        /* \"#utility.yul\":3853:3856   */\n      dup2\n        /* \"#utility.yul\":3845:3856   */\n      swap1\n      pop\n        /* \"#utility.yul\":3883:3887   */\n      0x20\n        /* \"#utility.yul\":3878:3881   */\n      dup3\n        /* \"#utility.yul\":3874:3888   */\n      add\n        /* \"#utility.yul\":3866:3888   */\n      swap1\n      pop\n        /* \"#utility.yul\":3742:3895   */\n      swap2\n      swap1\n      pop\n      jump\t// out\n        /* \"#utility.yul\":3901:4027   */\n    tag_181:\n        /* \"#utility.yul\":3938:3945   */\n      0x00\n        /* \"#utility.yul\":3978:4020   */\n      0xffffffffffffffffffffffffffffffffffffffff\n        /* \"#utility.yul\":3971:3976   */\n      dup3\n        /* \"#utility.yul\":3967:4021   */\n      and\n        /* \"#utility.yul\":3956:4021   */\n      swap1\n      pop\n        /* \"#utility.yul\":3901:4027   */\n      swap2\n      swap1\n      pop\n      jump\t// out\n        /* \"#utility.yul\":4033:4137   */\n    tag_182:\n        /* \"#utility.yul\":4078:4085   */\n      0x00\n        /* \"#utility.yul\":4107:4131   */\n      tag_253\n        /* \"#utility.yul\":4125:4130   */\n      dup3\n        /* \"#utility.yul\":4107:4131   */\n      tag_181\n      jump\t// in\n    tag_253:\n        /* \"#utility.yul\":4096:4131   */\n      swap1\n      pop\n        /* \"#utility.yul\":4033:4137   */\n      swap2\n      swap1\n      pop\n      jump\t// out\n        /* \"#utility.yul\":4143:4275   */\n    tag_183:\n        /* \"#utility.yul\":4236:4268   */\n      tag_255\n        /* \"#utility.yul\":4262:4267   */\n      dup2\n        /* \"#utility.yul\":4236:4268   */\n      tag_182\n      jump\t// in\n    tag_255:\n        /* \"#utility.yul\":4231:4234   */\n      dup3\n        /* \"#utility.yul\":4224:4269   */\n      mstore\n        /* \"#utility.yul\":4143:4275   */\n      pop\n      pop\n      jump\t// out\n        /* \"#utility.yul\":4281:4461   */\n    tag_82:\n        /* \"#utility.yul\":4329:4406   */\n      0x4e487b7100000000000000000000000000000000000000000000000000000000\n        /* \"#utility.yul\":4326:4327   */\n      0x00\n        /* \"#utility.yul\":4319:4407   */\n      mstore\n        /* \"#utility.yul\":4426:4430   */\n      0x21\n        /* \"#utility.yul\":4423:4424   */\n      0x04\n        /* \"#utility.yul\":4416:4431   */\n      mstore\n        /* \"#utility.yul\":4450:4454   */\n      0x24\n        /* \"#utility.yul\":4447:4448   */\n      0x00\n        /* \"#utility.yul\":4440:4455   */\n      revert\n        /* \"#utility.yul\":4467:4580   */\n    tag_184:\n        /* \"#utility.yul\":4548:4549   */\n      0x02\n        /* \"#utility.yul\":4541:4546   */\n      dup2\n        /* \"#utility.yul\":4538:4550   */\n      lt\n        /* \"#utility.yul\":4528:4574   */\n      tag_258\n      jumpi\n        /* \"#utility.yul\":4554:4572   */\n      tag_259\n      tag_82\n      jump\t// in\n    tag_259:\n        /* \"#utility.yul\":4528:4574   */\n    tag_258:\n        /* \"#utility.yul\":4467:4580   */\n      pop\n      jump\t// out\n        /* \"#utility.yul\":4586:4713   */\n    tag_185:\n        /* \"#utility.yul\":4631:4638   */\n      0x00\n        /* \"#utility.yul\":4660:4665   */\n      dup2\n        /* \"#utility.yul\":4649:4665   */\n      swap1\n      pop\n        /* \"#utility.yul\":4666:4707   */\n      tag_261\n        /* \"#utility.yul\":4701:4706   */\n      dup3\n        /* \"#utility.yul\":4666:4707   */\n      tag_184\n      jump\t// in\n    tag_261:\n        /* \"#utility.yul\":4586:4713   */\n      swap2\n      swap1\n      pop\n      jump\t// out\n        /* \"#utility.yul\":4719:4846   */\n    tag_186:\n        /* \"#utility.yul\":4775:4784   */\n      0x00\n        /* \"#utility.yul\":4808:4840   */\n      tag_263\n        /* \"#utility.yul\":4834:4839   */\n      dup3\n        /* \"#utility.yul\":4808:4840   */\n      tag_185\n      jump\t// in\n    tag_263:\n        /* \"#utility.yul\":4795:4840   */\n      swap1\n      pop\n        /* \"#utility.yul\":4719:4846   */\n      swap2\n      swap1\n      pop\n      jump\t// out\n        /* \"#utility.yul\":4852:4985   */\n    tag_187:\n        /* \"#utility.yul\":4935:4978   */\n      tag_265\n        /* \"#utility.yul\":4972:4977   */\n      dup2\n        /* \"#utility.yul\":4935:4978   */\n      tag_186\n      jump\t// in\n    tag_265:\n        /* \"#utility.yul\":4930:4933   */\n      dup3\n        /* \"#utility.yul\":4923:4979   */\n      mstore\n        /* \"#utility.yul\":4852:4985   */\n      pop\n      pop\n      jump\t// out\n        /* \"#utility.yul\":4991:5081   */\n    tag_188:\n        /* \"#utility.yul\":5025:5032   */\n      0x00\n        /* \"#utility.yul\":5068:5073   */\n      dup2\n        /* \"#utility.yul\":5061:5074   */\n      iszero\n        /* \"#utility.yul\":5054:5075   */\n      iszero\n        /* \"#utility.yul\":5043:5075   */\n      swap1\n      pop\n        /* \"#utility.yul\":4991:5081   */\n      swap2\n      swap1\n      pop\n      jump\t// out\n        /* \"#utility.yul\":5087:5186   */\n    tag_189:\n        /* \"#utility.yul\":5158:5179   */\n      tag_268\n        /* \"#utility.yul\":5173:5178   */\n      dup2\n        /* \"#utility.yul\":5158:5179   */\n      tag_188\n      jump\t// in\n    tag_268:\n        /* \"#utility.yul\":5153:5156   */\n      dup3\n        /* \"#utility.yul\":5146:5180   */\n      mstore\n        /* \"#utility.yul\":5087:5186   */\n      pop\n      pop\n      jump\t// out\n        /* \"#utility.yul\":5248:6634   */\n    tag_190:\n        /* \"#utility.yul\":5377:5381   */\n      0xe0\n        /* \"#utility.yul\":5372:5375   */\n      dup3\n        /* \"#utility.yul\":5368:5382   */\n      add\n        /* \"#utility.yul\":5468:5472   */\n      0x00\n        /* \"#utility.yul\":5461:5466   */\n      dup3\n        /* \"#utility.yul\":5457:5473   */\n      add\n        /* \"#utility.yul\":5451:5474   */\n      mload\n        /* \"#utility.yul\":5487:5566   */\n      tag_270\n        /* \"#utility.yul\":5560:5564   */\n      0x00\n        /* \"#utility.yul\":5555:5558   */\n      dup6\n        /* \"#utility.yul\":5551:5565   */\n      add\n        /* \"#utility.yul\":5537:5549   */\n      dup3\n        /* \"#utility.yul\":5487:5566   */\n      tag_183\n      jump\t// in\n    tag_270:\n        /* \"#utility.yul\":5392:5576   */\n      pop\n        /* \"#utility.yul\":5659:5663   */\n      0x20\n        /* \"#utility.yul\":5652:5657   */\n      dup3\n        /* \"#utility.yul\":5648:5664   */\n      add\n        /* \"#utility.yul\":5642:5665   */\n      mload\n        /* \"#utility.yul\":5678:5741   */\n      tag_271\n        /* \"#utility.yul\":5735:5739   */\n      0x20\n        /* \"#utility.yul\":5730:5733   */\n      dup6\n        /* \"#utility.yul\":5726:5740   */\n      add\n        /* \"#utility.yul\":5712:5724   */\n      dup3\n        /* \"#utility.yul\":5678:5741   */\n      tag_168\n      jump\t// in\n    tag_271:\n        /* \"#utility.yul\":5586:5751   */\n      pop\n        /* \"#utility.yul\":5838:5842   */\n      0x40\n        /* \"#utility.yul\":5831:5836   */\n      dup3\n        /* \"#utility.yul\":5827:5843   */\n      add\n        /* \"#utility.yul\":5821:5844   */\n      mload\n        /* \"#utility.yul\":5857:5920   */\n      tag_272\n        /* \"#utility.yul\":5914:5918   */\n      0x40\n        /* \"#utility.yul\":5909:5912   */\n      dup6\n        /* \"#utility.yul\":5905:5919   */\n      add\n        /* \"#utility.yul\":5891:5903   */\n      dup3\n        /* \"#utility.yul\":5857:5920   */\n      tag_168\n      jump\t// in\n    tag_272:\n        /* \"#utility.yul\":5761:5930   */\n      pop\n        /* \"#utility.yul\":6013:6017   */\n      0x60\n        /* \"#utility.yul\":6006:6011   */\n      dup3\n        /* \"#utility.yul\":6002:6018   */\n      add\n        /* \"#utility.yul\":5996:6019   */\n      mload\n        /* \"#utility.yul\":6032:6101   */\n      tag_273\n        /* \"#utility.yul\":6095:6099   */\n      0x60\n        /* \"#utility.yul\":6090:6093   */\n      dup6\n        /* \"#utility.yul\":6086:6100   */\n      add\n        /* \"#utility.yul\":6072:6084   */\n      dup3\n        /* \"#utility.yul\":6032:6101   */\n      tag_187\n      jump\t// in\n    tag_273:\n        /* \"#utility.yul\":5940:6111   */\n      pop\n        /* \"#utility.yul\":6193:6197   */\n      0x80\n        /* \"#utility.yul\":6186:6191   */\n      dup3\n        /* \"#utility.yul\":6182:6198   */\n      add\n        /* \"#utility.yul\":6176:6199   */\n      mload\n        /* \"#utility.yul\":6212:6275   */\n      tag_274\n        /* \"#utility.yul\":6269:6273   */\n      0x80\n        /* \"#utility.yul\":6264:6267   */\n      dup6\n        /* \"#utility.yul\":6260:6274   */\n      add\n        /* \"#utility.yul\":6246:6258   */\n      dup3\n        /* \"#utility.yul\":6212:6275   */\n      tag_168\n      jump\t// in\n    tag_274:\n        /* \"#utility.yul\":6121:6285   */\n      pop\n        /* \"#utility.yul\":6367:6371   */\n      0xa0\n        /* \"#utility.yul\":6360:6365   */\n      dup3\n        /* \"#utility.yul\":6356:6372   */\n      add\n        /* \"#utility.yul\":6350:6373   */\n      mload\n        /* \"#utility.yul\":6386:6449   */\n      tag_275\n        /* \"#utility.yul\":6443:6447   */\n      0xa0\n        /* \"#utility.yul\":6438:6441   */\n      dup6\n        /* \"#utility.yul\":6434:6448   */\n      add\n        /* \"#utility.yul\":6420:6432   */\n      dup3\n        /* \"#utility.yul\":6386:6449   */\n      tag_168\n      jump\t// in\n    tag_275:\n        /* \"#utility.yul\":6295:6459   */\n      pop\n        /* \"#utility.yul\":6541:6545   */\n      0xc0\n        /* \"#utility.yul\":6534:6539   */\n      dup3\n        /* \"#utility.yul\":6530:6546   */\n      add\n        /* \"#utility.yul\":6524:6547   */\n      mload\n        /* \"#utility.yul\":6560:6617   */\n      tag_276\n        /* \"#utility.yul\":6611:6615   */\n      0xc0\n        /* \"#utility.yul\":6606:6609   */\n      dup6\n        /* \"#utility.yul\":6602:6616   */\n      add\n        /* \"#utility.yul\":6588:6600   */\n      dup3\n        /* \"#utility.yul\":6560:6617   */\n      tag_189\n      jump\t// in\n    tag_276:\n        /* \"#utility.yul\":6469:6627   */\n      pop\n        /* \"#utility.yul\":5346:6634   */\n      pop\n        /* \"#utility.yul\":5248:6634   */\n      pop\n      pop\n      jump\t// out\n        /* \"#utility.yul\":6640:6903   */\n    tag_191:\n        /* \"#utility.yul\":6751:6761   */\n      0x00\n        /* \"#utility.yul\":6772:6860   */\n      tag_278\n        /* \"#utility.yul\":6856:6859   */\n      dup4\n        /* \"#utility.yul\":6848:6854   */\n      dup4\n        /* \"#utility.yul\":6772:6860   */\n      tag_190\n      jump\t// in\n    tag_278:\n        /* \"#utility.yul\":6892:6896   */\n      0xe0\n        /* \"#utility.yul\":6887:6890   */\n      dup4\n        /* \"#utility.yul\":6883:6897   */\n      add\n        /* \"#utility.yul\":6869:6897   */\n      swap1\n      pop\n        /* \"#utility.yul\":6640:6903   */\n      swap3\n      swap2\n      pop\n      pop\n      jump\t// out\n        /* \"#utility.yul\":6909:7043   */\n    tag_192:\n        /* \"#utility.yul\":7000:7004   */\n      0x00\n        /* \"#utility.yul\":7032:7036   */\n      0x20\n        /* \"#utility.yul\":7027:7030   */\n      dup3\n        /* \"#utility.yul\":7023:7037   */\n      add\n        /* \"#utility.yul\":7015:7037   */\n      swap1\n      pop\n        /* \"#utility.yul\":6909:7043   */\n      swap2\n      swap1\n      pop\n      jump\t// out\n        /* \"#utility.yul\":7109:8009   */\n    tag_193:\n        /* \"#utility.yul\":7270:7273   */\n      0x00\n        /* \"#utility.yul\":7299:7374   */\n      tag_281\n        /* \"#utility.yul\":7368:7373   */\n      dup3\n        /* \"#utility.yul\":7299:7374   */\n      tag_178\n      jump\t// in\n    tag_281:\n        /* \"#utility.yul\":7390:7497   */\n      tag_282\n        /* \"#utility.yul\":7490:7496   */\n      dup2\n        /* \"#utility.yul\":7485:7488   */\n      dup6\n        /* \"#utility.yul\":7390:7497   */\n      tag_179\n      jump\t// in\n    tag_282:\n        /* \"#utility.yul\":7383:7497   */\n      swap4\n      pop\n        /* \"#utility.yul\":7521:7598   */\n      tag_283\n        /* \"#utility.yul\":7592:7597   */\n      dup4\n        /* \"#utility.yul\":7521:7598   */\n      tag_180\n      jump\t// in\n    tag_283:\n        /* \"#utility.yul\":7621:7628   */\n      dup1\n        /* \"#utility.yul\":7652:7653   */\n      0x00\n        /* \"#utility.yul\":7637:7984   */\n    tag_284:\n        /* \"#utility.yul\":7662:7668   */\n      dup4\n        /* \"#utility.yul\":7659:7660   */\n      dup2\n        /* \"#utility.yul\":7656:7669   */\n      lt\n        /* \"#utility.yul\":7637:7984   */\n      iszero\n      tag_286\n      jumpi\n        /* \"#utility.yul\":7738:7744   */\n      dup2\n        /* \"#utility.yul\":7732:7745   */\n      mload\n        /* \"#utility.yul\":7765:7870   */\n      tag_287\n        /* \"#utility.yul\":7866:7869   */\n      dup9\n        /* \"#utility.yul\":7851:7864   */\n      dup3\n        /* \"#utility.yul\":7765:7870   */\n      tag_191\n      jump\t// in\n    tag_287:\n        /* \"#utility.yul\":7758:7870   */\n      swap8\n      pop\n        /* \"#utility.yul\":7893:7974   */\n      tag_288\n        /* \"#utility.yul\":7967:7973   */\n      dup4\n        /* \"#utility.yul\":7893:7974   */\n      tag_192\n      jump\t// in\n    tag_288:\n        /* \"#utility.yul\":7883:7974   */\n      swap3\n      pop\n        /* \"#utility.yul\":7697:7984   */\n      pop\n        /* \"#utility.yul\":7684:7685   */\n      0x01\n        /* \"#utility.yul\":7681:7682   */\n      dup2\n        /* \"#utility.yul\":7677:7686   */\n      add\n        /* \"#utility.yul\":7672:7686   */\n      swap1\n      pop\n        /* \"#utility.yul\":7637:7984   */\n      jump(tag_284)\n    tag_286:\n        /* \"#utility.yul\":7641:7655   */\n      pop\n        /* \"#utility.yul\":8000:8003   */\n      dup6\n        /* \"#utility.yul\":7993:8003   */\n      swap4\n      pop\n        /* \"#utility.yul\":7275:8009   */\n      pop\n      pop\n      pop\n        /* \"#utility.yul\":7109:8009   */\n      swap3\n      swap2\n      pop\n      pop\n      jump\t// out\n        /* \"#utility.yul\":8015:8472   */\n    tag_37:\n        /* \"#utility.yul\":8200:8204   */\n      0x00\n        /* \"#utility.yul\":8238:8240   */\n      0x20\n        /* \"#utility.yul\":8227:8236   */\n      dup3\n        /* \"#utility.yul\":8223:8241   */\n      add\n        /* \"#utility.yul\":8215:8241   */\n      swap1\n      pop\n        /* \"#utility.yul\":8287:8296   */\n      dup2\n        /* \"#utility.yul\":8281:8285   */\n      dup2\n        /* \"#utility.yul\":8277:8297   */\n      sub\n        /* \"#utility.yul\":8273:8274   */\n      0x00\n        /* \"#utility.yul\":8262:8271   */\n      dup4\n        /* \"#utility.yul\":8258:8275   */\n      add\n        /* \"#utility.yul\":8251:8298   */\n      mstore\n        /* \"#utility.yul\":8315:8465   */\n      tag_290\n        /* \"#utility.yul\":8460:8464   */\n      dup2\n        /* \"#utility.yul\":8451:8457   */\n      dup5\n        /* \"#utility.yul\":8315:8465   */\n      tag_193\n      jump\t// in\n    tag_290:\n        /* \"#utility.yul\":8307:8465   */\n      swap1\n      pop\n        /* \"#utility.yul\":8015:8472   */\n      swap3\n      swap2\n      pop\n      pop\n      jump\t// out\n        /* \"#utility.yul\":8478:8621   */\n    tag_194:\n        /* \"#utility.yul\":8571:8614   */\n      tag_292\n        /* \"#utility.yul\":8608:8613   */\n      dup2\n        /* \"#utility.yul\":8571:8614   */\n      tag_186\n      jump\t// in\n    tag_292:\n        /* \"#utility.yul\":8566:8569   */\n      dup3\n        /* \"#utility.yul\":8559:8615   */\n      mstore\n        /* \"#utility.yul\":8478:8621   */\n      pop\n      pop\n      jump\t// out\n        /* \"#utility.yul\":8627:8861   */\n    tag_43:\n        /* \"#utility.yul\":8726:8730   */\n      0x00\n        /* \"#utility.yul\":8764:8766   */\n      0x20\n        /* \"#utility.yul\":8753:8762   */\n      dup3\n        /* \"#utility.yul\":8749:8767   */\n      add\n        /* \"#utility.yul\":8741:8767   */\n      swap1\n      pop\n        /* \"#utility.yul\":8777:8854   */\n      tag_294\n        /* \"#utility.yul\":8851:8852   */\n      0x00\n        /* \"#utility.yul\":8840:8849   */\n      dup4\n        /* \"#utility.yul\":8836:8853   */\n      add\n        /* \"#utility.yul\":8827:8833   */\n      dup5\n        /* \"#utility.yul\":8777:8854   */\n      tag_194\n      jump\t// in\n    tag_294:\n        /* \"#utility.yul\":8627:8861   */\n      swap3\n      swap2\n      pop\n      pop\n      jump\t// out\n        /* \"#utility.yul\":8867:9009   */\n    tag_195:\n        /* \"#utility.yul\":8970:9002   */\n      tag_296\n        /* \"#utility.yul\":8996:9001   */\n      dup2\n        /* \"#utility.yul\":8970:9002   */\n      tag_182\n      jump\t// in\n    tag_296:\n        /* \"#utility.yul\":8965:8968   */\n      dup3\n        /* \"#utility.yul\":8958:9003   */\n      mstore\n        /* \"#utility.yul\":8867:9009   */\n      pop\n      pop\n      jump\t// out\n        /* \"#utility.yul\":9015:9269   */\n    tag_49:\n        /* \"#utility.yul\":9124:9128   */\n      0x00\n        /* \"#utility.yul\":9162:9164   */\n      0x20\n        /* \"#utility.yul\":9151:9160   */\n      dup3\n        /* \"#utility.yul\":9147:9165   */\n      add\n        /* \"#utility.yul\":9139:9165   */\n      swap1\n      pop\n        /* \"#utility.yul\":9175:9262   */\n      tag_298\n        /* \"#utility.yul\":9259:9260   */\n      0x00\n        /* \"#utility.yul\":9248:9257   */\n      dup4\n        /* \"#utility.yul\":9244:9261   */\n      add\n        /* \"#utility.yul\":9235:9241   */\n      dup5\n        /* \"#utility.yul\":9175:9262   */\n      tag_195\n      jump\t// in\n    tag_298:\n        /* \"#utility.yul\":9015:9269   */\n      swap3\n      swap2\n      pop\n      pop\n      jump\t// out\n        /* \"#utility.yul\":9275:9444   */\n    tag_196:\n        /* \"#utility.yul\":9359:9370   */\n      0x00\n        /* \"#utility.yul\":9393:9399   */\n      dup3\n        /* \"#utility.yul\":9388:9391   */\n      dup3\n        /* \"#utility.yul\":9381:9400   */\n      mstore\n        /* \"#utility.yul\":9433:9437   */\n      0x20\n        /* \"#utility.yul\":9428:9431   */\n      dup3\n        /* \"#utility.yul\":9424:9438   */\n      add\n        /* \"#utility.yul\":9409:9438   */\n      swap1\n      pop\n        /* \"#utility.yul\":9275:9444   */\n      swap3\n      swap2\n      pop\n      pop\n      jump\t// out\n        /* \"#utility.yul\":9450:9613   */\n    tag_197:\n        /* \"#utility.yul\":9590:9605   */\n      0x4f726465722050656e64696e6700000000000000000000000000000000000000\n        /* \"#utility.yul\":9586:9587   */\n      0x00\n        /* \"#utility.yul\":9578:9584   */\n      dup3\n        /* \"#utility.yul\":9574:9588   */\n      add\n        /* \"#utility.yul\":9567:9606   */\n      mstore\n        /* \"#utility.yul\":9450:9613   */\n      pop\n      jump\t// out\n        /* \"#utility.yul\":9619:9985   */\n    tag_198:\n        /* \"#utility.yul\":9761:9764   */\n      0x00\n        /* \"#utility.yul\":9782:9849   */\n      tag_302\n        /* \"#utility.yul\":9846:9848   */\n      0x0d\n        /* \"#utility.yul\":9841:9844   */\n      dup4\n        /* \"#utility.yul\":9782:9849   */\n      tag_196\n      jump\t// in\n    tag_302:\n        /* \"#utility.yul\":9775:9849   */\n      swap2\n      pop\n        /* \"#utility.yul\":9858:9951   */\n      tag_303\n        /* \"#utility.yul\":9947:9950   */\n      dup3\n        /* \"#utility.yul\":9858:9951   */\n      tag_197\n      jump\t// in\n    tag_303:\n        /* \"#utility.yul\":9976:9978   */\n      0x20\n        /* \"#utility.yul\":9971:9974   */\n      dup3\n        /* \"#utility.yul\":9967:9979   */\n      add\n        /* \"#utility.yul\":9960:9979   */\n      swap1\n      pop\n        /* \"#utility.yul\":9619:9985   */\n      swap2\n      swap1\n      pop\n      jump\t// out\n        /* \"#utility.yul\":9991:10410   */\n    tag_92:\n        /* \"#utility.yul\":10157:10161   */\n      0x00\n        /* \"#utility.yul\":10195:10197   */\n      0x20\n        /* \"#utility.yul\":10184:10193   */\n      dup3\n        /* \"#utility.yul\":10180:10198   */\n      add\n        /* \"#utility.yul\":10172:10198   */\n      swap1\n      pop\n        /* \"#utility.yul\":10244:10253   */\n      dup2\n        /* \"#utility.yul\":10238:10242   */\n      dup2\n        /* \"#utility.yul\":10234:10254   */\n      sub\n        /* \"#utility.yul\":10230:10231   */\n      0x00\n        /* \"#utility.yul\":10219:10228   */\n      dup4\n        /* \"#utility.yul\":10215:10232   */\n      add\n        /* \"#utility.yul\":10208:10255   */\n      mstore\n        /* \"#utility.yul\":10272:10403   */\n      tag_305\n        /* \"#utility.yul\":10398:10402   */\n      dup2\n        /* \"#utility.yul\":10272:10403   */\n      tag_198\n      jump\t// in\n    tag_305:\n        /* \"#utility.yul\":10264:10403   */\n      swap1\n      pop\n        /* \"#utility.yul\":9991:10410   */\n      swap2\n      swap1\n      pop\n      jump\t// out\n        /* \"#utility.yul\":10416:10580   */\n    tag_199:\n        /* \"#utility.yul\":10556:10572   */\n      0x4e6f7420417574686f7269736564000000000000000000000000000000000000\n        /* \"#utility.yul\":10552:10553   */\n      0x00\n        /* \"#utility.yul\":10544:10550   */\n      dup3\n        /* \"#utility.yul\":10540:10554   */\n      add\n        /* \"#utility.yul\":10533:10573   */\n      mstore\n        /* \"#utility.yul\":10416:10580   */\n      pop\n      jump\t// out\n        /* \"#utility.yul\":10586:10952   */\n    tag_200:\n        /* \"#utility.yul\":10728:10731   */\n      0x00\n        /* \"#utility.yul\":10749:10816   */\n      tag_308\n        /* \"#utility.yul\":10813:10815   */\n      0x0e\n        /* \"#utility.yul\":10808:10811   */\n      dup4\n        /* \"#utility.yul\":10749:10816   */\n      tag_196\n      jump\t// in\n    tag_308:\n        /* \"#utility.yul\":10742:10816   */\n      swap2\n      pop\n        /* \"#utility.yul\":10825:10918   */\n      tag_309\n        /* \"#utility.yul\":10914:10917   */\n      dup3\n        /* \"#utility.yul\":10825:10918   */\n      tag_199\n      jump\t// in\n    tag_309:\n        /* \"#utility.yul\":10943:10945   */\n      0x20\n        /* \"#utility.yul\":10938:10941   */\n      dup3\n        /* \"#utility.yul\":10934:10946   */\n      add\n        /* \"#utility.yul\":10927:10946   */\n      swap1\n      pop\n        /* \"#utility.yul\":10586:10952   */\n      swap2\n      swap1\n      pop\n      jump\t// out\n        /* \"#utility.yul\":10958:11377   */\n    tag_100:\n        /* \"#utility.yul\":11124:11128   */\n      0x00\n        /* \"#utility.yul\":11162:11164   */\n      0x20\n        /* \"#utility.yul\":11151:11160   */\n      dup3\n        /* \"#utility.yul\":11147:11165   */\n      add\n        /* \"#utility.yul\":11139:11165   */\n      swap1\n      pop\n        /* \"#utility.yul\":11211:11220   */\n      dup2\n        /* \"#utility.yul\":11205:11209   */\n      dup2\n        /* \"#utility.yul\":11201:11221   */\n      sub\n        /* \"#utility.yul\":11197:11198   */\n      0x00\n        /* \"#utility.yul\":11186:11195   */\n      dup4\n        /* \"#utility.yul\":11182:11199   */\n      add\n        /* \"#utility.yul\":11175:11222   */\n      mstore\n        /* \"#utility.yul\":11239:11370   */\n      tag_311\n        /* \"#utility.yul\":11365:11369   */\n      dup2\n        /* \"#utility.yul\":11239:11370   */\n      tag_200\n      jump\t// in\n    tag_311:\n        /* \"#utility.yul\":11231:11370   */\n      swap1\n      pop\n        /* \"#utility.yul\":10958:11377   */\n      swap2\n      swap1\n      pop\n      jump\t// out\n        /* \"#utility.yul\":11383:11564   */\n    tag_201:\n        /* \"#utility.yul\":11523:11556   */\n      0x70726963652076616c7565206d757374206265206d6f7265207468616e203000\n        /* \"#utility.yul\":11519:11520   */\n      0x00\n        /* \"#utility.yul\":11511:11517   */\n      dup3\n        /* \"#utility.yul\":11507:11521   */\n      add\n        /* \"#utility.yul\":11500:11557   */\n      mstore\n        /* \"#utility.yul\":11383:11564   */\n      pop\n      jump\t// out\n        /* \"#utility.yul\":11570:11936   */\n    tag_202:\n        /* \"#utility.yul\":11712:11715   */\n      0x00\n        /* \"#utility.yul\":11733:11800   */\n      tag_314\n        /* \"#utility.yul\":11797:11799   */\n      0x1f\n        /* \"#utility.yul\":11792:11795   */\n      dup4\n        /* \"#utility.yul\":11733:11800   */\n      tag_196\n      jump\t// in\n    tag_314:\n        /* \"#utility.yul\":11726:11800   */\n      swap2\n      pop\n        /* \"#utility.yul\":11809:11902   */\n      tag_315\n        /* \"#utility.yul\":11898:11901   */\n      dup3\n        /* \"#utility.yul\":11809:11902   */\n      tag_201\n      jump\t// in\n    tag_315:\n        /* \"#utility.yul\":11927:11929   */\n      0x20\n        /* \"#utility.yul\":11922:11925   */\n      dup3\n        /* \"#utility.yul\":11918:11930   */\n      add\n        /* \"#utility.yul\":11911:11930   */\n      swap1\n      pop\n        /* \"#utility.yul\":11570:11936   */\n      swap2\n      swap1\n      pop\n      jump\t// out\n        /* \"#utility.yul\":11942:12361   */\n    tag_113:\n        /* \"#utility.yul\":12108:12112   */\n      0x00\n        /* \"#utility.yul\":12146:12148   */\n      0x20\n        /* \"#utility.yul\":12135:12144   */\n      dup3\n        /* \"#utility.yul\":12131:12149   */\n      add\n        /* \"#utility.yul\":12123:12149   */\n      swap1\n      pop\n        /* \"#utility.yul\":12195:12204   */\n      dup2\n        /* \"#utility.yul\":12189:12193   */\n      dup2\n        /* \"#utility.yul\":12185:12205   */\n      sub\n        /* \"#utility.yul\":12181:12182   */\n      0x00\n        /* \"#utility.yul\":12170:12179   */\n      dup4\n        /* \"#utility.yul\":12166:12183   */\n      add\n        /* \"#utility.yul\":12159:12206   */\n      mstore\n        /* \"#utility.yul\":12223:12354   */\n      tag_317\n        /* \"#utility.yul\":12349:12353   */\n      dup2\n        /* \"#utility.yul\":12223:12354   */\n      tag_202\n      jump\t// in\n    tag_317:\n        /* \"#utility.yul\":12215:12354   */\n      swap1\n      pop\n        /* \"#utility.yul\":11942:12361   */\n      swap2\n      swap1\n      pop\n      jump\t// out\n        /* \"#utility.yul\":12367:12547   */\n    tag_203:\n        /* \"#utility.yul\":12507:12539   */\n      0x4e6f7420656e6f75676820626c616e636520746f20706c6163652061736b0000\n        /* \"#utility.yul\":12503:12504   */\n      0x00\n        /* \"#utility.yul\":12495:12501   */\n      dup3\n        /* \"#utility.yul\":12491:12505   */\n      add\n        /* \"#utility.yul\":12484:12540   */\n      mstore\n        /* \"#utility.yul\":12367:12547   */\n      pop\n      jump\t// out\n        /* \"#utility.yul\":12553:12919   */\n    tag_204:\n        /* \"#utility.yul\":12695:12698   */\n      0x00\n        /* \"#utility.yul\":12716:12783   */\n      tag_320\n        /* \"#utility.yul\":12780:12782   */\n      0x1e\n        /* \"#utility.yul\":12775:12778   */\n      dup4\n        /* \"#utility.yul\":12716:12783   */\n      tag_196\n      jump\t// in\n    tag_320:\n        /* \"#utility.yul\":12709:12783   */\n      swap2\n      pop\n        /* \"#utility.yul\":12792:12885   */\n      tag_321\n        /* \"#utility.yul\":12881:12884   */\n      dup3\n        /* \"#utility.yul\":12792:12885   */\n      tag_203\n      jump\t// in\n    tag_321:\n        /* \"#utility.yul\":12910:12912   */\n      0x20\n        /* \"#utility.yul\":12905:12908   */\n      dup3\n        /* \"#utility.yul\":12901:12913   */\n      add\n        /* \"#utility.yul\":12894:12913   */\n      swap1\n      pop\n        /* \"#utility.yul\":12553:12919   */\n      swap2\n      swap1\n      pop\n      jump\t// out\n        /* \"#utility.yul\":12925:13344   */\n    tag_116:\n        /* \"#utility.yul\":13091:13095   */\n      0x00\n        /* \"#utility.yul\":13129:13131   */\n      0x20\n        /* \"#utility.yul\":13118:13127   */\n      dup3\n        /* \"#utility.yul\":13114:13132   */\n      add\n        /* \"#utility.yul\":13106:13132   */\n      swap1\n      pop\n        /* \"#utility.yul\":13178:13187   */\n      dup2\n        /* \"#utility.yul\":13172:13176   */\n      dup2\n        /* \"#utility.yul\":13168:13188   */\n      sub\n        /* \"#utility.yul\":13164:13165   */\n      0x00\n        /* \"#utility.yul\":13153:13162   */\n      dup4\n        /* \"#utility.yul\":13149:13166   */\n      add\n        /* \"#utility.yul\":13142:13189   */\n      mstore\n        /* \"#utility.yul\":13206:13337   */\n      tag_323\n        /* \"#utility.yul\":13332:13336   */\n      dup2\n        /* \"#utility.yul\":13206:13337   */\n      tag_204\n      jump\t// in\n    tag_323:\n        /* \"#utility.yul\":13198:13337   */\n      swap1\n      pop\n        /* \"#utility.yul\":12925:13344   */\n      swap2\n      swap1\n      pop\n      jump\t// out\n        /* \"#utility.yul\":13350:13530   */\n    tag_205:\n        /* \"#utility.yul\":13398:13475   */\n      0x4e487b7100000000000000000000000000000000000000000000000000000000\n        /* \"#utility.yul\":13395:13396   */\n      0x00\n        /* \"#utility.yul\":13388:13476   */\n      mstore\n        /* \"#utility.yul\":13495:13499   */\n      0x11\n        /* \"#utility.yul\":13492:13493   */\n      0x04\n        /* \"#utility.yul\":13485:13500   */\n      mstore\n        /* \"#utility.yul\":13519:13523   */\n      0x24\n        /* \"#utility.yul\":13516:13517   */\n      0x00\n        /* \"#utility.yul\":13509:13524   */\n      revert\n        /* \"#utility.yul\":13536:13727   */\n    tag_118:\n        /* \"#utility.yul\":13576:13580   */\n      0x00\n        /* \"#utility.yul\":13596:13616   */\n      tag_326\n        /* \"#utility.yul\":13614:13615   */\n      dup3\n        /* \"#utility.yul\":13596:13616   */\n      tag_167\n      jump\t// in\n    tag_326:\n        /* \"#utility.yul\":13591:13616   */\n      swap2\n      pop\n        /* \"#utility.yul\":13630:13650   */\n      tag_327\n        /* \"#utility.yul\":13648:13649   */\n      dup4\n        /* \"#utility.yul\":13630:13650   */\n      tag_167\n      jump\t// in\n    tag_327:\n        /* \"#utility.yul\":13625:13650   */\n      swap3\n      pop\n        /* \"#utility.yul\":13669:13670   */\n      dup3\n        /* \"#utility.yul\":13666:13667   */\n      dup3\n        /* \"#utility.yul\":13663:13671   */\n      lt\n        /* \"#utility.yul\":13660:13694   */\n      iszero\n      tag_328\n      jumpi\n        /* \"#utility.yul\":13674:13692   */\n      tag_329\n      tag_205\n      jump\t// in\n    tag_329:\n        /* \"#utility.yul\":13660:13694   */\n    tag_328:\n        /* \"#utility.yul\":13719:13720   */\n      dup3\n        /* \"#utility.yul\":13716:13717   */\n      dup3\n        /* \"#utility.yul\":13712:13721   */\n      sub\n        /* \"#utility.yul\":13704:13721   */\n      swap1\n      pop\n        /* \"#utility.yul\":13536:13727   */\n      swap3\n      swap2\n      pop\n      pop\n      jump\t// out\n        /* \"#utility.yul\":13733:14081   */\n    tag_120:\n        /* \"#utility.yul\":13773:13780   */\n      0x00\n        /* \"#utility.yul\":13796:13816   */\n      tag_331\n        /* \"#utility.yul\":13814:13815   */\n      dup3\n        /* \"#utility.yul\":13796:13816   */\n      tag_167\n      jump\t// in\n    tag_331:\n        /* \"#utility.yul\":13791:13816   */\n      swap2\n      pop\n        /* \"#utility.yul\":13830:13850   */\n      tag_332\n        /* \"#utility.yul\":13848:13849   */\n      dup4\n        /* \"#utility.yul\":13830:13850   */\n      tag_167\n      jump\t// in\n    tag_332:\n        /* \"#utility.yul\":13825:13850   */\n      swap3\n      pop\n        /* \"#utility.yul\":14018:14019   */\n      dup2\n        /* \"#utility.yul\":13950:14016   */\n      0xffffffffffffffffffffffffffffffffffffffffffffffffffffffffffffffff\n        /* \"#utility.yul\":13946:14020   */\n      div\n        /* \"#utility.yul\":13943:13944   */\n      dup4\n        /* \"#utility.yul\":13940:14021   */\n      gt\n        /* \"#utility.yul\":13935:13936   */\n      dup3\n        /* \"#utility.yul\":13928:13937   */\n      iszero\n        /* \"#utility.yul\":13921:13938   */\n      iszero\n        /* \"#utility.yul\":13917:14022   */\n      and\n        /* \"#utility.yul\":13914:14045   */\n      iszero\n      tag_333\n      jumpi\n        /* \"#utility.yul\":14025:14043   */\n      tag_334\n      tag_205\n      jump\t// in\n    tag_334:\n        /* \"#utility.yul\":13914:14045   */\n    tag_333:\n        /* \"#utility.yul\":14073:14074   */\n      dup3\n        /* \"#utility.yul\":14070:14071   */\n      dup3\n        /* \"#utility.yul\":14066:14075   */\n      mul\n        /* \"#utility.yul\":14055:14075   */\n      swap1\n      pop\n        /* \"#utility.yul\":13733:14081   */\n      swap3\n      swap2\n      pop\n      pop\n      jump\t// out\n        /* \"#utility.yul\":14087:14267   */\n    tag_206:\n        /* \"#utility.yul\":14135:14212   */\n      0x4e487b7100000000000000000000000000000000000000000000000000000000\n        /* \"#utility.yul\":14132:14133   */\n      0x00\n        /* \"#utility.yul\":14125:14213   */\n      mstore\n        /* \"#utility.yul\":14232:14236   */\n      0x12\n        /* \"#utility.yul\":14229:14230   */\n      0x04\n        /* \"#utility.yul\":14222:14237   */\n      mstore\n        /* \"#utility.yul\":14256:14260   */\n      0x24\n        /* \"#utility.yul\":14253:14254   */\n      0x00\n        /* \"#utility.yul\":14246:14261   */\n      revert\n        /* \"#utility.yul\":14273:14458   */\n    tag_122:\n        /* \"#utility.yul\":14313:14314   */\n      0x00\n        /* \"#utility.yul\":14330:14350   */\n      tag_337\n        /* \"#utility.yul\":14348:14349   */\n      dup3\n        /* \"#utility.yul\":14330:14350   */\n      tag_167\n      jump\t// in\n    tag_337:\n        /* \"#utility.yul\":14325:14350   */\n      swap2\n      pop\n        /* \"#utility.yul\":14364:14384   */\n      tag_338\n        /* \"#utility.yul\":14382:14383   */\n      dup4\n        /* \"#utility.yul\":14364:14384   */\n      tag_167\n      jump\t// in\n    tag_338:\n        /* \"#utility.yul\":14359:14384   */\n      swap3\n      pop\n        /* \"#utility.yul\":14403:14404   */\n      dup3\n        /* \"#utility.yul\":14393:14428   */\n      tag_339\n      jumpi\n        /* \"#utility.yul\":14408:14426   */\n      tag_340\n      tag_206\n      jump\t// in\n    tag_340:\n        /* \"#utility.yul\":14393:14428   */\n    tag_339:\n        /* \"#utility.yul\":14450:14451   */\n      dup3\n        /* \"#utility.yul\":14447:14448   */\n      dup3\n        /* \"#utility.yul\":14443:14452   */\n      div\n        /* \"#utility.yul\":14438:14452   */\n      swap1\n      pop\n        /* \"#utility.yul\":14273:14458   */\n      swap3\n      swap2\n      pop\n      pop\n      jump\t// out\n        /* \"#utility.yul\":14464:14560   */\n    tag_207:\n        /* \"#utility.yul\":14501:14508   */\n      0x00\n        /* \"#utility.yul\":14530:14554   */\n      tag_342\n        /* \"#utility.yul\":14548:14553   */\n      dup3\n        /* \"#utility.yul\":14530:14554   */\n      tag_181\n      jump\t// in\n    tag_342:\n        /* \"#utility.yul\":14519:14554   */\n      swap1\n      pop\n        /* \"#utility.yul\":14464:14560   */\n      swap2\n      swap1\n      pop\n      jump\t// out\n        /* \"#utility.yul\":14566:14684   */\n    tag_208:\n        /* \"#utility.yul\":14653:14677   */\n      tag_344\n        /* \"#utility.yul\":14671:14676   */\n      dup2\n        /* \"#utility.yul\":14653:14677   */\n      tag_207\n      jump\t// in\n    tag_344:\n        /* \"#utility.yul\":14648:14651   */\n      dup3\n        /* \"#utility.yul\":14641:14678   */\n      mstore\n        /* \"#utility.yul\":14566:14684   */\n      pop\n      pop\n      jump\t// out\n        /* \"#utility.yul\":14690:15255   */\n    tag_126:\n        /* \"#utility.yul\":14873:14877   */\n      0x00\n        /* \"#utility.yul\":14911:14914   */\n      0x80\n        /* \"#utility.yul\":14900:14909   */\n      dup3\n        /* \"#utility.yul\":14896:14915   */\n      add\n        /* \"#utility.yul\":14888:14915   */\n      swap1\n      pop\n        /* \"#utility.yul\":14925:14996   */\n      tag_346\n        /* \"#utility.yul\":14993:14994   */\n      0x00\n        /* \"#utility.yul\":14982:14991   */\n      dup4\n        /* \"#utility.yul\":14978:14995   */\n      add\n        /* \"#utility.yul\":14969:14975   */\n      dup8\n        /* \"#utility.yul\":14925:14996   */\n      tag_208\n      jump\t// in\n    tag_346:\n        /* \"#utility.yul\":15006:15078   */\n      tag_347\n        /* \"#utility.yul\":15074:15076   */\n      0x20\n        /* \"#utility.yul\":15063:15072   */\n      dup4\n        /* \"#utility.yul\":15059:15077   */\n      add\n        /* \"#utility.yul\":15050:15056   */\n      dup7\n        /* \"#utility.yul\":15006:15078   */\n      tag_177\n      jump\t// in\n    tag_347:\n        /* \"#utility.yul\":15088:15160   */\n      tag_348\n        /* \"#utility.yul\":15156:15158   */\n      0x40\n        /* \"#utility.yul\":15145:15154   */\n      dup4\n        /* \"#utility.yul\":15141:15159   */\n      add\n        /* \"#utility.yul\":15132:15138   */\n      dup6\n        /* \"#utility.yul\":15088:15160   */\n      tag_177\n      jump\t// in\n    tag_348:\n        /* \"#utility.yul\":15170:15248   */\n      tag_349\n        /* \"#utility.yul\":15244:15246   */\n      0x60\n        /* \"#utility.yul\":15233:15242   */\n      dup4\n        /* \"#utility.yul\":15229:15247   */\n      add\n        /* \"#utility.yul\":15220:15226   */\n      dup5\n        /* \"#utility.yul\":15170:15248   */\n      tag_194\n      jump\t// in\n    tag_349:\n        /* \"#utility.yul\":14690:15255   */\n      swap6\n      swap5\n      pop\n      pop\n      pop\n      pop\n      pop\n      jump\t// out\n        /* \"#utility.yul\":15261:15441   */\n    tag_209:\n        /* \"#utility.yul\":15401:15433   */\n      0x4e6f7420656e6f75676820626c616e636520746f20706c616365206269640000\n        /* \"#utility.yul\":15397:15398   */\n      0x00\n        /* \"#utility.yul\":15389:15395   */\n      dup3\n        /* \"#utility.yul\":15385:15399   */\n      add\n        /* \"#utility.yul\":15378:15434   */\n      mstore\n        /* \"#utility.yul\":15261:15441   */\n      pop\n      jump\t// out\n        /* \"#utility.yul\":15447:15813   */\n    tag_210:\n        /* \"#utility.yul\":15589:15592   */\n      0x00\n        /* \"#utility.yul\":15610:15677   */\n      tag_352\n        /* \"#utility.yul\":15674:15676   */\n      0x1e\n        /* \"#utility.yul\":15669:15672   */\n      dup4\n        /* \"#utility.yul\":15610:15677   */\n      tag_196\n      jump\t// in\n    tag_352:\n        /* \"#utility.yul\":15603:15677   */\n      swap2\n      pop\n        /* \"#utility.yul\":15686:15779   */\n      tag_353\n        /* \"#utility.yul\":15775:15778   */\n      dup3\n        /* \"#utility.yul\":15686:15779   */\n      tag_209\n      jump\t// in\n    tag_353:\n        /* \"#utility.yul\":15804:15806   */\n      0x20\n        /* \"#utility.yul\":15799:15802   */\n      dup3\n        /* \"#utility.yul\":15795:15807   */\n      add\n        /* \"#utility.yul\":15788:15807   */\n      swap1\n      pop\n        /* \"#utility.yul\":15447:15813   */\n      swap2\n      swap1\n      pop\n      jump\t// out\n        /* \"#utility.yul\":15819:16238   */\n    tag_154:\n        /* \"#utility.yul\":15985:15989   */\n      0x00\n        /* \"#utility.yul\":16023:16025   */\n      0x20\n        /* \"#utility.yul\":16012:16021   */\n      dup3\n        /* \"#utility.yul\":16008:16026   */\n      add\n        /* \"#utility.yul\":16000:16026   */\n      swap1\n      pop\n        /* \"#utility.yul\":16072:16081   */\n      dup2\n        /* \"#utility.yul\":16066:16070   */\n      dup2\n        /* \"#utility.yul\":16062:16082   */\n      sub\n        /* \"#utility.yul\":16058:16059   */\n      0x00\n        /* \"#utility.yul\":16047:16056   */\n      dup4\n        /* \"#utility.yul\":16043:16060   */\n      add\n        /* \"#utility.yul\":16036:16083   */\n      mstore\n        /* \"#utility.yul\":16100:16231   */\n      tag_355\n        /* \"#utility.yul\":16226:16230   */\n      dup2\n        /* \"#utility.yul\":16100:16231   */\n      tag_210\n      jump\t// in\n    tag_355:\n        /* \"#utility.yul\":16092:16231   */\n      swap1\n      pop\n        /* \"#utility.yul\":15819:16238   */\n      swap2\n      swap1\n      pop\n      jump\t// out\n\n    auxdata: 0xa26469706673582212209fe1771134c3b9dab106756523cec42f63876d76c5b767fd097cadaed254a76364736f6c634300080d0033\n}\n",
				"bytecode": {
					"linkReferences": {},
					"object": "608060405233600360006101000a81548173ffffffffffffffffffffffffffffffffffffffff021916908373ffffffffffffffffffffffffffffffffffffffff160217905550600060065560006008553480156200005c57600080fd5b506040516200184b3803806200184b8339818101604052810190620000829190620000d0565b806004819055505062000102565b600080fd5b6000819050919050565b620000aa8162000095565b8114620000b657600080fd5b50565b600081519050620000ca816200009f565b92915050565b600060208284031215620000e957620000e862000090565b5b6000620000f984828501620000b9565b91505092915050565b61173980620001126000396000f3fe6080604052600436106100c25760003560e01c8063734a2e781161007f5780639979ef45116100595780639979ef451461027f578063bf77ffae1461029b578063ce0cdc87146102d8578063db3a139614610303576100c2565b8063734a2e78146101fd57806378c5b2681461023a5780639703ef3514610256576100c2565b8063122de8f2146100c75780631628e0f5146100f25780632db6dfa71461011b5780634471417f146101585780634d46712d1461018357806369f632e2146101c0575b600080fd5b3480156100d357600080fd5b506100dc610340565b6040516100e99190611023565b60405180910390f35b3480156100fe57600080fd5b5061011960048036038101906101149190611076565b610345565b005b34801561012757600080fd5b50610142600480360381019061013d9190611076565b61075c565b60405161014f91906110b2565b60405180910390f35b34801561016457600080fd5b5061016d61077c565b60405161017a91906112dd565b60405180910390f35b34801561018f57600080fd5b506101aa60048036038101906101a59190611076565b610781565b6040516101b7919061130e565b60405180910390f35b3480156101cc57600080fd5b506101e760048036038101906101e29190611076565b6107ae565b6040516101f49190611338565b60405180910390f35b34801561020957600080fd5b50610224600480360381019061021f9190611076565b6107ee565b6040516102319190611338565b60405180910390f35b610254600480360381019061024f9190611076565b61082e565b005b34801561026257600080fd5b5061027d60048036038101906102789190611076565b610990565b005b61029960048036038101906102949190611076565b610da7565b005b3480156102a757600080fd5b506102c260048036038101906102bd9190611076565b610f09565b6040516102cf919061130e565b60405180910390f35b3480156102e457600080fd5b506102ed610f36565b6040516102fa9190611023565b60405180910390f35b34801561030f57600080fd5b5061032a60048036038101906103259190611076565b610f3b565b60405161033791906110b2565b60405180910390f35b606090565b600760008281526020019081526020016000206040518060e00160405290816000820160009054906101000a900473ffffffffffffffffffffffffffffffffffffffff1673ffffffffffffffffffffffffffffffffffffffff1673ffffffffffffffffffffffffffffffffffffffff16815260200160018201548152602001600282015481526020016003820160009054906101000a900460ff1660018111156103f2576103f161113a565b5b60018111156104045761040361113a565b5b815260200160048201548152602001600582015481526020016006820160009054906101000a900460ff1615151515815250506000600181111561044b5761044a61113a565b5b816060015160018111156104625761046161113a565b5b146104a2576040517f08c379a0000000000000000000000000000000000000000000000000000000008152600401610499906113b0565b60405180910390fd5b600760008381526020019081526020016000206040518060e00160405290816000820160009054906101000a900473ffffffffffffffffffffffffffffffffffffffff1673ffffffffffffffffffffffffffffffffffffffff1673ffffffffffffffffffffffffffffffffffffffff16815260200160018201548152602001600282015481526020016003820160009054906101000a900460ff16600181111561054f5761054e61113a565b5b60018111156105615761056061113a565b5b815260200160048201548152602001600582015481526020016006820160009054906101000a900460ff161515151581525050338073ffffffffffffffffffffffffffffffffffffffff16826000015173ffffffffffffffffffffffffffffffffffffffff1614610607576040517f08c379a00000000000000000000000000000000000000000000000000000000081526004016105fe9061141c565b60405180910390fd5b6007600085815260200190815260200160002060000160009054906101000a900473ffffffffffffffffffffffffffffffffffffffff1673ffffffffffffffffffffffffffffffffffffffff166108fc60076000878152602001908152602001600020600101549081150290604051600060405180830381858888f19350505050158015610699573d6000803e3d6000fd5b5060076000858152602001908152602001600020600080820160006101000a81549073ffffffffffffffffffffffffffffffffffffffff0219169055600182016000905560028201600090556003820160006101000a81549060ff0219169055600482016000905560058201600090556006820160006101000a81549060ff021916905550507f48d3043fff66c1aee14954ac5aa463b0297fb08c9b60ee00486fb3387bb58aac8460405161074e91906110b2565b60405180910390a150505050565b600060056000838152602001908152602001600020600101549050919050565b606090565b60006007600083815260200190815260200160002060030160009054906101000a900460ff169050919050565b60006005600083815260200190815260200160002060000160009054906101000a900473ffffffffffffffffffffffffffffffffffffffff169050919050565b60006007600083815260200190815260200160002060000160009054906101000a900473ffffffffffffffffffffffffffffffffffffffff169050919050565b6000811015610872576040517f08c379a000000000000000000000000000000000000000000000000000000000815260040161086990611488565b60405180910390fd5b803410156108b5576040517f08c379a00000000000000000000000000000000000000000000000000000000081526004016108ac906114f4565b60405180910390fd5b60004290506000606460045460646108cd9190611543565b346108d89190611577565b6108e29190611600565b9050600360009054906101000a900473ffffffffffffffffffffffffffffffffffffffff1673ffffffffffffffffffffffffffffffffffffffff166108fc829081150290604051600060405180830381858888f1935050505015801561094c573d6000803e3d6000fd5b507fc2125a7f3edfeff7a3bbcfe393c5aa3a6589585d4a7ee70db48c34f67c8209e233828460006040516109839493929190611652565b60405180910390a1505050565b600560008281526020019081526020016000206040518060e00160405290816000820160009054906101000a900473ffffffffffffffffffffffffffffffffffffffff1673ffffffffffffffffffffffffffffffffffffffff1673ffffffffffffffffffffffffffffffffffffffff16815260200160018201548152602001600282015481526020016003820160009054906101000a900460ff166001811115610a3d57610a3c61113a565b5b6001811115610a4f57610a4e61113a565b5b815260200160048201548152602001600582015481526020016006820160009054906101000a900460ff16151515158152505060006001811115610a9657610a9561113a565b5b81606001516001811115610aad57610aac61113a565b5b14610aed576040517f08c379a0000000000000000000000000000000000000000000000000000000008152600401610ae4906113b0565b60405180910390fd5b600560008381526020019081526020016000206040518060e00160405290816000820160009054906101000a900473ffffffffffffffffffffffffffffffffffffffff1673ffffffffffffffffffffffffffffffffffffffff1673ffffffffffffffffffffffffffffffffffffffff16815260200160018201548152602001600282015481526020016003820160009054906101000a900460ff166001811115610b9a57610b9961113a565b5b6001811115610bac57610bab61113a565b5b815260200160048201548152602001600582015481526020016006820160009054906101000a900460ff161515151581525050338073ffffffffffffffffffffffffffffffffffffffff16826000015173ffffffffffffffffffffffffffffffffffffffff1614610c52576040517f08c379a0000000000000000000000000000000000000000000000000000000008152600401610c499061141c565b60405180910390fd5b6005600085815260200190815260200160002060000160009054906101000a900473ffffffffffffffffffffffffffffffffffffffff1673ffffffffffffffffffffffffffffffffffffffff166108fc60056000878152602001908152602001600020600101549081150290604051600060405180830381858888f19350505050158015610ce4573d6000803e3d6000fd5b5060056000858152602001908152602001600020600080820160006101000a81549073ffffffffffffffffffffffffffffffffffffffff0219169055600182016000905560028201600090556003820160006101000a81549060ff0219169055600482016000905560058201600090556006820160006101000a81549060ff021916905550507fc845a6832afa0a4048dd70bbba2186093508a6b63a8d5d70a508f819fef257f884604051610d9991906110b2565b60405180910390a150505050565b6000811015610deb576040517f08c379a0000000000000000000000000000000000000000000000000000000008152600401610de290611488565b60405180910390fd5b80341015610e2e576040517f08c379a0000000000000000000000000000000000000000000000000000000008152600401610e25906116e3565b60405180910390fd5b6000429050600060646004546064610e469190611543565b34610e519190611577565b610e5b9190611600565b9050600360009054906101000a900473ffffffffffffffffffffffffffffffffffffffff1673ffffffffffffffffffffffffffffffffffffffff166108fc829081150290604051600060405180830381858888f19350505050158015610ec5573d6000803e3d6000fd5b507fa64806d6d5d480697a0b11c92b915a4ff7b93c0be28171d65d30041a0c360d043382846000604051610efc9493929190611652565b60405180910390a1505050565b60006005600083815260200190815260200160002060030160009054906101000a900460ff169050919050565b606090565b600060076000838152602001908152602001600020600101549050919050565b600081519050919050565b600082825260208201905092915050565b6000819050602082019050919050565b6000819050919050565b610f9a81610f87565b82525050565b6000610fac8383610f91565b60208301905092915050565b6000602082019050919050565b6000610fd082610f5b565b610fda8185610f66565b9350610fe583610f77565b8060005b83811015611016578151610ffd8882610fa0565b975061100883610fb8565b925050600181019050610fe9565b5085935050505092915050565b6000602082019050818103600083015261103d8184610fc5565b905092915050565b600080fd5b61105381610f87565b811461105e57600080fd5b50565b6000813590506110708161104a565b92915050565b60006020828403121561108c5761108b611045565b5b600061109a84828501611061565b91505092915050565b6110ac81610f87565b82525050565b60006020820190506110c760008301846110a3565b92915050565b600081519050919050565b600082825260208201905092915050565b6000819050602082019050919050565b600073ffffffffffffffffffffffffffffffffffffffff82169050919050565b6000611124826110f9565b9050919050565b61113481611119565b82525050565b7f4e487b7100000000000000000000000000000000000000000000000000000000600052602160045260246000fd5b6002811061117a5761117961113a565b5b50565b600081905061118b82611169565b919050565b600061119b8261117d565b9050919050565b6111ab81611190565b82525050565b60008115159050919050565b6111c6816111b1565b82525050565b60e0820160008201516111e2600085018261112b565b5060208201516111f56020850182610f91565b5060408201516112086040850182610f91565b50606082015161121b60608501826111a2565b50608082015161122e6080850182610f91565b5060a082015161124160a0850182610f91565b5060c082015161125460c08501826111bd565b50505050565b600061126683836111cc565b60e08301905092915050565b6000602082019050919050565b600061128a826110cd565b61129481856110d8565b935061129f836110e9565b8060005b838110156112d05781516112b7888261125a565b97506112c283611272565b9250506001810190506112a3565b5085935050505092915050565b600060208201905081810360008301526112f7818461127f565b905092915050565b61130881611190565b82525050565b600060208201905061132360008301846112ff565b92915050565b61133281611119565b82525050565b600060208201905061134d6000830184611329565b92915050565b600082825260208201905092915050565b7f4f726465722050656e64696e6700000000000000000000000000000000000000600082015250565b600061139a600d83611353565b91506113a582611364565b602082019050919050565b600060208201905081810360008301526113c98161138d565b9050919050565b7f4e6f7420417574686f7269736564000000000000000000000000000000000000600082015250565b6000611406600e83611353565b9150611411826113d0565b602082019050919050565b60006020820190508181036000830152611435816113f9565b9050919050565b7f70726963652076616c7565206d757374206265206d6f7265207468616e203000600082015250565b6000611472601f83611353565b915061147d8261143c565b602082019050919050565b600060208201905081810360008301526114a181611465565b9050919050565b7f4e6f7420656e6f75676820626c616e636520746f20706c6163652061736b0000600082015250565b60006114de601e83611353565b91506114e9826114a8565b602082019050919050565b6000602082019050818103600083015261150d816114d1565b9050919050565b7f4e487b7100000000000000000000000000000000000000000000000000000000600052601160045260246000fd5b600061154e82610f87565b915061155983610f87565b92508282101561156c5761156b611514565b5b828203905092915050565b600061158282610f87565b915061158d83610f87565b9250817fffffffffffffffffffffffffffffffffffffffffffffffffffffffffffffffff04831182151516156115c6576115c5611514565b5b828202905092915050565b7f4e487b7100000000000000000000000000000000000000000000000000000000600052601260045260246000fd5b600061160b82610f87565b915061161683610f87565b925082611626576116256115d1565b5b828204905092915050565b600061163c826110f9565b9050919050565b61164c81611631565b82525050565b60006080820190506116676000830187611643565b61167460208301866110a3565b61168160408301856110a3565b61168e60608301846112ff565b95945050505050565b7f4e6f7420656e6f75676820626c616e636520746f20706c616365206269640000600082015250565b60006116cd601e83611353565b91506116d882611697565b602082019050919050565b600060208201905081810360008301526116fc816116c0565b905091905056fea26469706673582212209fe1771134c3b9dab106756523cec42f63876d76c5b767fd097cadaed254a76364736f6c634300080d0033",
					"opcodes": "PUSH1 0x80 PUSH1 0x40 MSTORE CALLER PUSH1 0x3 PUSH1 0x0 PUSH2 0x100 EXP DUP2 SLOAD DUP2 PUSH20 0xFFFFFFFFFFFFFFFFFFFFFFFFFFFFFFFFFFFFFFFF MUL NOT AND SWAP1 DUP4 PUSH20 0xFFFFFFFFFFFFFFFFFFFFFFFFFFFFFFFFFFFFFFFF AND MUL OR SWAP1 SSTORE POP PUSH1 0x0 PUSH1 0x6 SSTORE PUSH1 0x0 PUSH1 0x8 SSTORE CALLVALUE DUP1 ISZERO PUSH3 0x5C JUMPI PUSH1 0x0 DUP1 REVERT JUMPDEST POP PUSH1 0x40 MLOAD PUSH3 0x184B CODESIZE SUB DUP1 PUSH3 0x184B DUP4 CODECOPY DUP2 DUP2 ADD PUSH1 0x40 MSTORE DUP2 ADD SWAP1 PUSH3 0x82 SWAP2 SWAP1 PUSH3 0xD0 JUMP JUMPDEST DUP1 PUSH1 0x4 DUP2 SWAP1 SSTORE POP POP PUSH3 0x102 JUMP JUMPDEST PUSH1 0x0 DUP1 REVERT JUMPDEST PUSH1 0x0 DUP2 SWAP1 POP SWAP2 SWAP1 POP JUMP JUMPDEST PUSH3 0xAA DUP2 PUSH3 0x95 JUMP JUMPDEST DUP2 EQ PUSH3 0xB6 JUMPI PUSH1 0x0 DUP1 REVERT JUMPDEST POP JUMP JUMPDEST PUSH1 0x0 DUP2 MLOAD SWAP1 POP PUSH3 0xCA DUP2 PUSH3 0x9F JUMP JUMPDEST SWAP3 SWAP2 POP POP JUMP JUMPDEST PUSH1 0x0 PUSH1 0x20 DUP3 DUP5 SUB SLT ISZERO PUSH3 0xE9 JUMPI PUSH3 0xE8 PUSH3 0x90 JUMP JUMPDEST JUMPDEST PUSH1 0x0 PUSH3 0xF9 DUP5 DUP3 DUP6 ADD PUSH3 0xB9 JUMP JUMPDEST SWAP2 POP POP SWAP3 SWAP2 POP POP JUMP JUMPDEST PUSH2 0x1739 DUP1 PUSH3 0x112 PUSH1 0x0 CODECOPY PUSH1 0x0 RETURN INVALID PUSH1 0x80 PUSH1 0x40 MSTORE PUSH1 0x4 CALLDATASIZE LT PUSH2 0xC2 JUMPI PUSH1 0x0 CALLDATALOAD PUSH1 0xE0 SHR DUP1 PUSH4 0x734A2E78 GT PUSH2 0x7F JUMPI DUP1 PUSH4 0x9979EF45 GT PUSH2 0x59 JUMPI DUP1 PUSH4 0x9979EF45 EQ PUSH2 0x27F JUMPI DUP1 PUSH4 0xBF77FFAE EQ PUSH2 0x29B JUMPI DUP1 PUSH4 0xCE0CDC87 EQ PUSH2 0x2D8 JUMPI DUP1 PUSH4 0xDB3A1396 EQ PUSH2 0x303 JUMPI PUSH2 0xC2 JUMP JUMPDEST DUP1 PUSH4 0x734A2E78 EQ PUSH2 0x1FD JUMPI DUP1 PUSH4 0x78C5B268 EQ PUSH2 0x23A JUMPI DUP1 PUSH4 0x9703EF35 EQ PUSH2 0x256 JUMPI PUSH2 0xC2 JUMP JUMPDEST DUP1 PUSH4 0x122DE8F2 EQ PUSH2 0xC7 JUMPI DUP1 PUSH4 0x1628E0F5 EQ PUSH2 0xF2 JUMPI DUP1 PUSH4 0x2DB6DFA7 EQ PUSH2 0x11B JUMPI DUP1 PUSH4 0x4471417F EQ PUSH2 0x158 JUMPI DUP1 PUSH4 0x4D46712D EQ PUSH2 0x183 JUMPI DUP1 PUSH4 0x69F632E2 EQ PUSH2 0x1C0 JUMPI JUMPDEST PUSH1 0x0 DUP1 REVERT JUMPDEST CALLVALUE DUP1 ISZERO PUSH2 0xD3 JUMPI PUSH1 0x0 DUP1 REVERT JUMPDEST POP PUSH2 0xDC PUSH2 0x340 JUMP JUMPDEST PUSH1 0x40 MLOAD PUSH2 0xE9 SWAP2 SWAP1 PUSH2 0x1023 JUMP JUMPDEST PUSH1 0x40 MLOAD DUP1 SWAP2 SUB SWAP1 RETURN JUMPDEST CALLVALUE DUP1 ISZERO PUSH2 0xFE JUMPI PUSH1 0x0 DUP1 REVERT JUMPDEST POP PUSH2 0x119 PUSH1 0x4 DUP1 CALLDATASIZE SUB DUP2 ADD SWAP1 PUSH2 0x114 SWAP2 SWAP1 PUSH2 0x1076 JUMP JUMPDEST PUSH2 0x345 JUMP JUMPDEST STOP JUMPDEST CALLVALUE DUP1 ISZERO PUSH2 0x127 JUMPI PUSH1 0x0 DUP1 REVERT JUMPDEST POP PUSH2 0x142 PUSH1 0x4 DUP1 CALLDATASIZE SUB DUP2 ADD SWAP1 PUSH2 0x13D SWAP2 SWAP1 PUSH2 0x1076 JUMP JUMPDEST PUSH2 0x75C JUMP JUMPDEST PUSH1 0x40 MLOAD PUSH2 0x14F SWAP2 SWAP1 PUSH2 0x10B2 JUMP JUMPDEST PUSH1 0x40 MLOAD DUP1 SWAP2 SUB SWAP1 RETURN JUMPDEST CALLVALUE DUP1 ISZERO PUSH2 0x164 JUMPI PUSH1 0x0 DUP1 REVERT JUMPDEST POP PUSH2 0x16D PUSH2 0x77C JUMP JUMPDEST PUSH1 0x40 MLOAD PUSH2 0x17A SWAP2 SWAP1 PUSH2 0x12DD JUMP JUMPDEST PUSH1 0x40 MLOAD DUP1 SWAP2 SUB SWAP1 RETURN JUMPDEST CALLVALUE DUP1 ISZERO PUSH2 0x18F JUMPI PUSH1 0x0 DUP1 REVERT JUMPDEST POP PUSH2 0x1AA PUSH1 0x4 DUP1 CALLDATASIZE SUB DUP2 ADD SWAP1 PUSH2 0x1A5 SWAP2 SWAP1 PUSH2 0x1076 JUMP JUMPDEST PUSH2 0x781 JUMP JUMPDEST PUSH1 0x40 MLOAD PUSH2 0x1B7 SWAP2 SWAP1 PUSH2 0x130E JUMP JUMPDEST PUSH1 0x40 MLOAD DUP1 SWAP2 SUB SWAP1 RETURN JUMPDEST CALLVALUE DUP1 ISZERO PUSH2 0x1CC JUMPI PUSH1 0x0 DUP1 REVERT JUMPDEST POP PUSH2 0x1E7 PUSH1 0x4 DUP1 CALLDATASIZE SUB DUP2 ADD SWAP1 PUSH2 0x1E2 SWAP2 SWAP1 PUSH2 0x1076 JUMP JUMPDEST PUSH2 0x7AE JUMP JUMPDEST PUSH1 0x40 MLOAD PUSH2 0x1F4 SWAP2 SWAP1 PUSH2 0x1338 JUMP JUMPDEST PUSH1 0x40 MLOAD DUP1 SWAP2 SUB SWAP1 RETURN JUMPDEST CALLVALUE DUP1 ISZERO PUSH2 0x209 JUMPI PUSH1 0x0 DUP1 REVERT JUMPDEST POP PUSH2 0x224 PUSH1 0x4 DUP1 CALLDATASIZE SUB DUP2 ADD SWAP1 PUSH2 0x21F SWAP2 SWAP1 PUSH2 0x1076 JUMP JUMPDEST PUSH2 0x7EE JUMP JUMPDEST PUSH1 0x40 MLOAD PUSH2 0x231 SWAP2 SWAP1 PUSH2 0x1338 JUMP JUMPDEST PUSH1 0x40 MLOAD DUP1 SWAP2 SUB SWAP1 RETURN JUMPDEST PUSH2 0x254 PUSH1 0x4 DUP1 CALLDATASIZE SUB DUP2 ADD SWAP1 PUSH2 0x24F SWAP2 SWAP1 PUSH2 0x1076 JUMP JUMPDEST PUSH2 0x82E JUMP JUMPDEST STOP JUMPDEST CALLVALUE DUP1 ISZERO PUSH2 0x262 JUMPI PUSH1 0x0 DUP1 REVERT JUMPDEST POP PUSH2 0x27D PUSH1 0x4 DUP1 CALLDATASIZE SUB DUP2 ADD SWAP1 PUSH2 0x278 SWAP2 SWAP1 PUSH2 0x1076 JUMP JUMPDEST PUSH2 0x990 JUMP JUMPDEST STOP JUMPDEST PUSH2 0x299 PUSH1 0x4 DUP1 CALLDATASIZE SUB DUP2 ADD SWAP1 PUSH2 0x294 SWAP2 SWAP1 PUSH2 0x1076 JUMP JUMPDEST PUSH2 0xDA7 JUMP JUMPDEST STOP JUMPDEST CALLVALUE DUP1 ISZERO PUSH2 0x2A7 JUMPI PUSH1 0x0 DUP1 REVERT JUMPDEST POP PUSH2 0x2C2 PUSH1 0x4 DUP1 CALLDATASIZE SUB DUP2 ADD SWAP1 PUSH2 0x2BD SWAP2 SWAP1 PUSH2 0x1076 JUMP JUMPDEST PUSH2 0xF09 JUMP JUMPDEST PUSH1 0x40 MLOAD PUSH2 0x2CF SWAP2 SWAP1 PUSH2 0x130E JUMP JUMPDEST PUSH1 0x40 MLOAD DUP1 SWAP2 SUB SWAP1 RETURN JUMPDEST CALLVALUE DUP1 ISZERO PUSH2 0x2E4 JUMPI PUSH1 0x0 DUP1 REVERT JUMPDEST POP PUSH2 0x2ED PUSH2 0xF36 JUMP JUMPDEST PUSH1 0x40 MLOAD PUSH2 0x2FA SWAP2 SWAP1 PUSH2 0x1023 JUMP JUMPDEST PUSH1 0x40 MLOAD DUP1 SWAP2 SUB SWAP1 RETURN JUMPDEST CALLVALUE DUP1 ISZERO PUSH2 0x30F JUMPI PUSH1 0x0 DUP1 REVERT JUMPDEST POP PUSH2 0x32A PUSH1 0x4 DUP1 CALLDATASIZE SUB DUP2 ADD SWAP1 PUSH2 0x325 SWAP2 SWAP1 PUSH2 0x1076 JUMP JUMPDEST PUSH2 0xF3B JUMP JUMPDEST PUSH1 0x40 MLOAD PUSH2 0x337 SWAP2 SWAP1 PUSH2 0x10B2 JUMP JUMPDEST PUSH1 0x40 MLOAD DUP1 SWAP2 SUB SWAP1 RETURN JUMPDEST PUSH1 0x60 SWAP1 JUMP JUMPDEST PUSH1 0x7 PUSH1 0x0 DUP3 DUP2 MSTORE PUSH1 0x20 ADD SWAP1 DUP2 MSTORE PUSH1 0x20 ADD PUSH1 0x0 KECCAK256 PUSH1 0x40 MLOAD DUP1 PUSH1 0xE0 ADD PUSH1 0x40 MSTORE SWAP1 DUP2 PUSH1 0x0 DUP3 ADD PUSH1 0x0 SWAP1 SLOAD SWAP1 PUSH2 0x100 EXP SWAP1 DIV PUSH20 0xFFFFFFFFFFFFFFFFFFFFFFFFFFFFFFFFFFFFFFFF AND PUSH20 0xFFFFFFFFFFFFFFFFFFFFFFFFFFFFFFFFFFFFFFFF AND PUSH20 0xFFFFFFFFFFFFFFFFFFFFFFFFFFFFFFFFFFFFFFFF AND DUP2 MSTORE PUSH1 0x20 ADD PUSH1 0x1 DUP3 ADD SLOAD DUP2 MSTORE PUSH1 0x20 ADD PUSH1 0x2 DUP3 ADD SLOAD DUP2 MSTORE PUSH1 0x20 ADD PUSH1 0x3 DUP3 ADD PUSH1 0x0 SWAP1 SLOAD SWAP1 PUSH2 0x100 EXP SWAP1 DIV PUSH1 0xFF AND PUSH1 0x1 DUP2 GT ISZERO PUSH2 0x3F2 JUMPI PUSH2 0x3F1 PUSH2 0x113A JUMP JUMPDEST JUMPDEST PUSH1 0x1 DUP2 GT ISZERO PUSH2 0x404 JUMPI PUSH2 0x403 PUSH2 0x113A JUMP JUMPDEST JUMPDEST DUP2 MSTORE PUSH1 0x20 ADD PUSH1 0x4 DUP3 ADD SLOAD DUP2 MSTORE PUSH1 0x20 ADD PUSH1 0x5 DUP3 ADD SLOAD DUP2 MSTORE PUSH1 0x20 ADD PUSH1 0x6 DUP3 ADD PUSH1 0x0 SWAP1 SLOAD SWAP1 PUSH2 0x100 EXP SWAP1 DIV PUSH1 0xFF AND ISZERO ISZERO ISZERO ISZERO DUP2 MSTORE POP POP PUSH1 0x0 PUSH1 0x1 DUP2 GT ISZERO PUSH2 0x44B JUMPI PUSH2 0x44A PUSH2 0x113A JUMP JUMPDEST JUMPDEST DUP2 PUSH1 0x60 ADD MLOAD PUSH1 0x1 DUP2 GT ISZERO PUSH2 0x462 JUMPI PUSH2 0x461 PUSH2 0x113A JUMP JUMPDEST JUMPDEST EQ PUSH2 0x4A2 JUMPI PUSH1 0x40 MLOAD PUSH32 0x8C379A000000000000000000000000000000000000000000000000000000000 DUP2 MSTORE PUSH1 0x4 ADD PUSH2 0x499 SWAP1 PUSH2 0x13B0 JUMP JUMPDEST PUSH1 0x40 MLOAD DUP1 SWAP2 SUB SWAP1 REVERT JUMPDEST PUSH1 0x7 PUSH1 0x0 DUP4 DUP2 MSTORE PUSH1 0x20 ADD SWAP1 DUP2 MSTORE PUSH1 0x20 ADD PUSH1 0x0 KECCAK256 PUSH1 0x40 MLOAD DUP1 PUSH1 0xE0 ADD PUSH1 0x40 MSTORE SWAP1 DUP2 PUSH1 0x0 DUP3 ADD PUSH1 0x0 SWAP1 SLOAD SWAP1 PUSH2 0x100 EXP SWAP1 DIV PUSH20 0xFFFFFFFFFFFFFFFFFFFFFFFFFFFFFFFFFFFFFFFF AND PUSH20 0xFFFFFFFFFFFFFFFFFFFFFFFFFFFFFFFFFFFFFFFF AND PUSH20 0xFFFFFFFFFFFFFFFFFFFFFFFFFFFFFFFFFFFFFFFF AND DUP2 MSTORE PUSH1 0x20 ADD PUSH1 0x1 DUP3 ADD SLOAD DUP2 MSTORE PUSH1 0x20 ADD PUSH1 0x2 DUP3 ADD SLOAD DUP2 MSTORE PUSH1 0x20 ADD PUSH1 0x3 DUP3 ADD PUSH1 0x0 SWAP1 SLOAD SWAP1 PUSH2 0x100 EXP SWAP1 DIV PUSH1 0xFF AND PUSH1 0x1 DUP2 GT ISZERO PUSH2 0x54F JUMPI PUSH2 0x54E PUSH2 0x113A JUMP JUMPDEST JUMPDEST PUSH1 0x1 DUP2 GT ISZERO PUSH2 0x561 JUMPI PUSH2 0x560 PUSH2 0x113A JUMP JUMPDEST JUMPDEST DUP2 MSTORE PUSH1 0x20 ADD PUSH1 0x4 DUP3 ADD SLOAD DUP2 MSTORE PUSH1 0x20 ADD PUSH1 0x5 DUP3 ADD SLOAD DUP2 MSTORE PUSH1 0x20 ADD PUSH1 0x6 DUP3 ADD PUSH1 0x0 SWAP1 SLOAD SWAP1 PUSH2 0x100 EXP SWAP1 DIV PUSH1 0xFF AND ISZERO ISZERO ISZERO ISZERO DUP2 MSTORE POP POP CALLER DUP1 PUSH20 0xFFFFFFFFFFFFFFFFFFFFFFFFFFFFFFFFFFFFFFFF AND DUP3 PUSH1 0x0 ADD MLOAD PUSH20 0xFFFFFFFFFFFFFFFFFFFFFFFFFFFFFFFFFFFFFFFF AND EQ PUSH2 0x607 JUMPI PUSH1 0x40 MLOAD PUSH32 0x8C379A000000000000000000000000000000000000000000000000000000000 DUP2 MSTORE PUSH1 0x4 ADD PUSH2 0x5FE SWAP1 PUSH2 0x141C JUMP JUMPDEST PUSH1 0x40 MLOAD DUP1 SWAP2 SUB SWAP1 REVERT JUMPDEST PUSH1 0x7 PUSH1 0x0 DUP6 DUP2 MSTORE PUSH1 0x20 ADD SWAP1 DUP2 MSTORE PUSH1 0x20 ADD PUSH1 0x0 KECCAK256 PUSH1 0x0 ADD PUSH1 0x0 SWAP1 SLOAD SWAP1 PUSH2 0x100 EXP SWAP1 DIV PUSH20 0xFFFFFFFFFFFFFFFFFFFFFFFFFFFFFFFFFFFFFFFF AND PUSH20 0xFFFFFFFFFFFFFFFFFFFFFFFFFFFFFFFFFFFFFFFF AND PUSH2 0x8FC PUSH1 0x7 PUSH1 0x0 DUP8 DUP2 MSTORE PUSH1 0x20 ADD SWAP1 DUP2 MSTORE PUSH1 0x20 ADD PUSH1 0x0 KECCAK256 PUSH1 0x1 ADD SLOAD SWAP1 DUP2 ISZERO MUL SWAP1 PUSH1 0x40 MLOAD PUSH1 0x0 PUSH1 0x40 MLOAD DUP1 DUP4 SUB DUP2 DUP6 DUP9 DUP9 CALL SWAP4 POP POP POP POP ISZERO DUP1 ISZERO PUSH2 0x699 JUMPI RETURNDATASIZE PUSH1 0x0 DUP1 RETURNDATACOPY RETURNDATASIZE PUSH1 0x0 REVERT JUMPDEST POP PUSH1 0x7 PUSH1 0x0 DUP6 DUP2 MSTORE PUSH1 0x20 ADD SWAP1 DUP2 MSTORE PUSH1 0x20 ADD PUSH1 0x0 KECCAK256 PUSH1 0x0 DUP1 DUP3 ADD PUSH1 0x0 PUSH2 0x100 EXP DUP2 SLOAD SWAP1 PUSH20 0xFFFFFFFFFFFFFFFFFFFFFFFFFFFFFFFFFFFFFFFF MUL NOT AND SWAP1 SSTORE PUSH1 0x1 DUP3 ADD PUSH1 0x0 SWAP1 SSTORE PUSH1 0x2 DUP3 ADD PUSH1 0x0 SWAP1 SSTORE PUSH1 0x3 DUP3 ADD PUSH1 0x0 PUSH2 0x100 EXP DUP2 SLOAD SWAP1 PUSH1 0xFF MUL NOT AND SWAP1 SSTORE PUSH1 0x4 DUP3 ADD PUSH1 0x0 SWAP1 SSTORE PUSH1 0x5 DUP3 ADD PUSH1 0x0 SWAP1 SSTORE PUSH1 0x6 DUP3 ADD PUSH1 0x0 PUSH2 0x100 EXP DUP2 SLOAD SWAP1 PUSH1 0xFF MUL NOT AND SWAP1 SSTORE POP POP PUSH32 0x48D3043FFF66C1AEE14954AC5AA463B0297FB08C9B60EE00486FB3387BB58AAC DUP5 PUSH1 0x40 MLOAD PUSH2 0x74E SWAP2 SWAP1 PUSH2 0x10B2 JUMP JUMPDEST PUSH1 0x40 MLOAD DUP1 SWAP2 SUB SWAP1 LOG1 POP POP POP POP JUMP JUMPDEST PUSH1 0x0 PUSH1 0x5 PUSH1 0x0 DUP4 DUP2 MSTORE PUSH1 0x20 ADD SWAP1 DUP2 MSTORE PUSH1 0x20 ADD PUSH1 0x0 KECCAK256 PUSH1 0x1 ADD SLOAD SWAP1 POP SWAP2 SWAP1 POP JUMP JUMPDEST PUSH1 0x60 SWAP1 JUMP JUMPDEST PUSH1 0x0 PUSH1 0x7 PUSH1 0x0 DUP4 DUP2 MSTORE PUSH1 0x20 ADD SWAP1 DUP2 MSTORE PUSH1 0x20 ADD PUSH1 0x0 KECCAK256 PUSH1 0x3 ADD PUSH1 0x0 SWAP1 SLOAD SWAP1 PUSH2 0x100 EXP SWAP1 DIV PUSH1 0xFF AND SWAP1 POP SWAP2 SWAP1 POP JUMP JUMPDEST PUSH1 0x0 PUSH1 0x5 PUSH1 0x0 DUP4 DUP2 MSTORE PUSH1 0x20 ADD SWAP1 DUP2 MSTORE PUSH1 0x20 ADD PUSH1 0x0 KECCAK256 PUSH1 0x0 ADD PUSH1 0x0 SWAP1 SLOAD SWAP1 PUSH2 0x100 EXP SWAP1 DIV PUSH20 0xFFFFFFFFFFFFFFFFFFFFFFFFFFFFFFFFFFFFFFFF AND SWAP1 POP SWAP2 SWAP1 POP JUMP JUMPDEST PUSH1 0x0 PUSH1 0x7 PUSH1 0x0 DUP4 DUP2 MSTORE PUSH1 0x20 ADD SWAP1 DUP2 MSTORE PUSH1 0x20 ADD PUSH1 0x0 KECCAK256 PUSH1 0x0 ADD PUSH1 0x0 SWAP1 SLOAD SWAP1 PUSH2 0x100 EXP SWAP1 DIV PUSH20 0xFFFFFFFFFFFFFFFFFFFFFFFFFFFFFFFFFFFFFFFF AND SWAP1 POP SWAP2 SWAP1 POP JUMP JUMPDEST PUSH1 0x0 DUP2 LT ISZERO PUSH2 0x872 JUMPI PUSH1 0x40 MLOAD PUSH32 0x8C379A000000000000000000000000000000000000000000000000000000000 DUP2 MSTORE PUSH1 0x4 ADD PUSH2 0x869 SWAP1 PUSH2 0x1488 JUMP JUMPDEST PUSH1 0x40 MLOAD DUP1 SWAP2 SUB SWAP1 REVERT JUMPDEST DUP1 CALLVALUE LT ISZERO PUSH2 0x8B5 JUMPI PUSH1 0x40 MLOAD PUSH32 0x8C379A000000000000000000000000000000000000000000000000000000000 DUP2 MSTORE PUSH1 0x4 ADD PUSH2 0x8AC SWAP1 PUSH2 0x14F4 JUMP JUMPDEST PUSH1 0x40 MLOAD DUP1 SWAP2 SUB SWAP1 REVERT JUMPDEST PUSH1 0x0 TIMESTAMP SWAP1 POP PUSH1 0x0 PUSH1 0x64 PUSH1 0x4 SLOAD PUSH1 0x64 PUSH2 0x8CD SWAP2 SWAP1 PUSH2 0x1543 JUMP JUMPDEST CALLVALUE PUSH2 0x8D8 SWAP2 SWAP1 PUSH2 0x1577 JUMP JUMPDEST PUSH2 0x8E2 SWAP2 SWAP1 PUSH2 0x1600 JUMP JUMPDEST SWAP1 POP PUSH1 0x3 PUSH1 0x0 SWAP1 SLOAD SWAP1 PUSH2 0x100 EXP SWAP1 DIV PUSH20 0xFFFFFFFFFFFFFFFFFFFFFFFFFFFFFFFFFFFFFFFF AND PUSH20 0xFFFFFFFFFFFFFFFFFFFFFFFFFFFFFFFFFFFFFFFF AND PUSH2 0x8FC DUP3 SWAP1 DUP2 ISZERO MUL SWAP1 PUSH1 0x40 MLOAD PUSH1 0x0 PUSH1 0x40 MLOAD DUP1 DUP4 SUB DUP2 DUP6 DUP9 DUP9 CALL SWAP4 POP POP POP POP ISZERO DUP1 ISZERO PUSH2 0x94C JUMPI RETURNDATASIZE PUSH1 0x0 DUP1 RETURNDATACOPY RETURNDATASIZE PUSH1 0x0 REVERT JUMPDEST POP PUSH32 0xC2125A7F3EDFEFF7A3BBCFE393C5AA3A6589585D4A7EE70DB48C34F67C8209E2 CALLER DUP3 DUP5 PUSH1 0x0 PUSH1 0x40 MLOAD PUSH2 0x983 SWAP5 SWAP4 SWAP3 SWAP2 SWAP1 PUSH2 0x1652 JUMP JUMPDEST PUSH1 0x40 MLOAD DUP1 SWAP2 SUB SWAP1 LOG1 POP POP POP JUMP JUMPDEST PUSH1 0x5 PUSH1 0x0 DUP3 DUP2 MSTORE PUSH1 0x20 ADD SWAP1 DUP2 MSTORE PUSH1 0x20 ADD PUSH1 0x0 KECCAK256 PUSH1 0x40 MLOAD DUP1 PUSH1 0xE0 ADD PUSH1 0x40 MSTORE SWAP1 DUP2 PUSH1 0x0 DUP3 ADD PUSH1 0x0 SWAP1 SLOAD SWAP1 PUSH2 0x100 EXP SWAP1 DIV PUSH20 0xFFFFFFFFFFFFFFFFFFFFFFFFFFFFFFFFFFFFFFFF AND PUSH20 0xFFFFFFFFFFFFFFFFFFFFFFFFFFFFFFFFFFFFFFFF AND PUSH20 0xFFFFFFFFFFFFFFFFFFFFFFFFFFFFFFFFFFFFFFFF AND DUP2 MSTORE PUSH1 0x20 ADD PUSH1 0x1 DUP3 ADD SLOAD DUP2 MSTORE PUSH1 0x20 ADD PUSH1 0x2 DUP3 ADD SLOAD DUP2 MSTORE PUSH1 0x20 ADD PUSH1 0x3 DUP3 ADD PUSH1 0x0 SWAP1 SLOAD SWAP1 PUSH2 0x100 EXP SWAP1 DIV PUSH1 0xFF AND PUSH1 0x1 DUP2 GT ISZERO PUSH2 0xA3D JUMPI PUSH2 0xA3C PUSH2 0x113A JUMP JUMPDEST JUMPDEST PUSH1 0x1 DUP2 GT ISZERO PUSH2 0xA4F JUMPI PUSH2 0xA4E PUSH2 0x113A JUMP JUMPDEST JUMPDEST DUP2 MSTORE PUSH1 0x20 ADD PUSH1 0x4 DUP3 ADD SLOAD DUP2 MSTORE PUSH1 0x20 ADD PUSH1 0x5 DUP3 ADD SLOAD DUP2 MSTORE PUSH1 0x20 ADD PUSH1 0x6 DUP3 ADD PUSH1 0x0 SWAP1 SLOAD SWAP1 PUSH2 0x100 EXP SWAP1 DIV PUSH1 0xFF AND ISZERO ISZERO ISZERO ISZERO DUP2 MSTORE POP POP PUSH1 0x0 PUSH1 0x1 DUP2 GT ISZERO PUSH2 0xA96 JUMPI PUSH2 0xA95 PUSH2 0x113A JUMP JUMPDEST JUMPDEST DUP2 PUSH1 0x60 ADD MLOAD PUSH1 0x1 DUP2 GT ISZERO PUSH2 0xAAD JUMPI PUSH2 0xAAC PUSH2 0x113A JUMP JUMPDEST JUMPDEST EQ PUSH2 0xAED JUMPI PUSH1 0x40 MLOAD PUSH32 0x8C379A000000000000000000000000000000000000000000000000000000000 DUP2 MSTORE PUSH1 0x4 ADD PUSH2 0xAE4 SWAP1 PUSH2 0x13B0 JUMP JUMPDEST PUSH1 0x40 MLOAD DUP1 SWAP2 SUB SWAP1 REVERT JUMPDEST PUSH1 0x5 PUSH1 0x0 DUP4 DUP2 MSTORE PUSH1 0x20 ADD SWAP1 DUP2 MSTORE PUSH1 0x20 ADD PUSH1 0x0 KECCAK256 PUSH1 0x40 MLOAD DUP1 PUSH1 0xE0 ADD PUSH1 0x40 MSTORE SWAP1 DUP2 PUSH1 0x0 DUP3 ADD PUSH1 0x0 SWAP1 SLOAD SWAP1 PUSH2 0x100 EXP SWAP1 DIV PUSH20 0xFFFFFFFFFFFFFFFFFFFFFFFFFFFFFFFFFFFFFFFF AND PUSH20 0xFFFFFFFFFFFFFFFFFFFFFFFFFFFFFFFFFFFFFFFF AND PUSH20 0xFFFFFFFFFFFFFFFFFFFFFFFFFFFFFFFFFFFFFFFF AND DUP2 MSTORE PUSH1 0x20 ADD PUSH1 0x1 DUP3 ADD SLOAD DUP2 MSTORE PUSH1 0x20 ADD PUSH1 0x2 DUP3 ADD SLOAD DUP2 MSTORE PUSH1 0x20 ADD PUSH1 0x3 DUP3 ADD PUSH1 0x0 SWAP1 SLOAD SWAP1 PUSH2 0x100 EXP SWAP1 DIV PUSH1 0xFF AND PUSH1 0x1 DUP2 GT ISZERO PUSH2 0xB9A JUMPI PUSH2 0xB99 PUSH2 0x113A JUMP JUMPDEST JUMPDEST PUSH1 0x1 DUP2 GT ISZERO PUSH2 0xBAC JUMPI PUSH2 0xBAB PUSH2 0x113A JUMP JUMPDEST JUMPDEST DUP2 MSTORE PUSH1 0x20 ADD PUSH1 0x4 DUP3 ADD SLOAD DUP2 MSTORE PUSH1 0x20 ADD PUSH1 0x5 DUP3 ADD SLOAD DUP2 MSTORE PUSH1 0x20 ADD PUSH1 0x6 DUP3 ADD PUSH1 0x0 SWAP1 SLOAD SWAP1 PUSH2 0x100 EXP SWAP1 DIV PUSH1 0xFF AND ISZERO ISZERO ISZERO ISZERO DUP2 MSTORE POP POP CALLER DUP1 PUSH20 0xFFFFFFFFFFFFFFFFFFFFFFFFFFFFFFFFFFFFFFFF AND DUP3 PUSH1 0x0 ADD MLOAD PUSH20 0xFFFFFFFFFFFFFFFFFFFFFFFFFFFFFFFFFFFFFFFF AND EQ PUSH2 0xC52 JUMPI PUSH1 0x40 MLOAD PUSH32 0x8C379A000000000000000000000000000000000000000000000000000000000 DUP2 MSTORE PUSH1 0x4 ADD PUSH2 0xC49 SWAP1 PUSH2 0x141C JUMP JUMPDEST PUSH1 0x40 MLOAD DUP1 SWAP2 SUB SWAP1 REVERT JUMPDEST PUSH1 0x5 PUSH1 0x0 DUP6 DUP2 MSTORE PUSH1 0x20 ADD SWAP1 DUP2 MSTORE PUSH1 0x20 ADD PUSH1 0x0 KECCAK256 PUSH1 0x0 ADD PUSH1 0x0 SWAP1 SLOAD SWAP1 PUSH2 0x100 EXP SWAP1 DIV PUSH20 0xFFFFFFFFFFFFFFFFFFFFFFFFFFFFFFFFFFFFFFFF AND PUSH20 0xFFFFFFFFFFFFFFFFFFFFFFFFFFFFFFFFFFFFFFFF AND PUSH2 0x8FC PUSH1 0x5 PUSH1 0x0 DUP8 DUP2 MSTORE PUSH1 0x20 ADD SWAP1 DUP2 MSTORE PUSH1 0x20 ADD PUSH1 0x0 KECCAK256 PUSH1 0x1 ADD SLOAD SWAP1 DUP2 ISZERO MUL SWAP1 PUSH1 0x40 MLOAD PUSH1 0x0 PUSH1 0x40 MLOAD DUP1 DUP4 SUB DUP2 DUP6 DUP9 DUP9 CALL SWAP4 POP POP POP POP ISZERO DUP1 ISZERO PUSH2 0xCE4 JUMPI RETURNDATASIZE PUSH1 0x0 DUP1 RETURNDATACOPY RETURNDATASIZE PUSH1 0x0 REVERT JUMPDEST POP PUSH1 0x5 PUSH1 0x0 DUP6 DUP2 MSTORE PUSH1 0x20 ADD SWAP1 DUP2 MSTORE PUSH1 0x20 ADD PUSH1 0x0 KECCAK256 PUSH1 0x0 DUP1 DUP3 ADD PUSH1 0x0 PUSH2 0x100 EXP DUP2 SLOAD SWAP1 PUSH20 0xFFFFFFFFFFFFFFFFFFFFFFFFFFFFFFFFFFFFFFFF MUL NOT AND SWAP1 SSTORE PUSH1 0x1 DUP3 ADD PUSH1 0x0 SWAP1 SSTORE PUSH1 0x2 DUP3 ADD PUSH1 0x0 SWAP1 SSTORE PUSH1 0x3 DUP3 ADD PUSH1 0x0 PUSH2 0x100 EXP DUP2 SLOAD SWAP1 PUSH1 0xFF MUL NOT AND SWAP1 SSTORE PUSH1 0x4 DUP3 ADD PUSH1 0x0 SWAP1 SSTORE PUSH1 0x5 DUP3 ADD PUSH1 0x0 SWAP1 SSTORE PUSH1 0x6 DUP3 ADD PUSH1 0x0 PUSH2 0x100 EXP DUP2 SLOAD SWAP1 PUSH1 0xFF MUL NOT AND SWAP1 SSTORE POP POP PUSH32 0xC845A6832AFA0A4048DD70BBBA2186093508A6B63A8D5D70A508F819FEF257F8 DUP5 PUSH1 0x40 MLOAD PUSH2 0xD99 SWAP2 SWAP1 PUSH2 0x10B2 JUMP JUMPDEST PUSH1 0x40 MLOAD DUP1 SWAP2 SUB SWAP1 LOG1 POP POP POP POP JUMP JUMPDEST PUSH1 0x0 DUP2 LT ISZERO PUSH2 0xDEB JUMPI PUSH1 0x40 MLOAD PUSH32 0x8C379A000000000000000000000000000000000000000000000000000000000 DUP2 MSTORE PUSH1 0x4 ADD PUSH2 0xDE2 SWAP1 PUSH2 0x1488 JUMP JUMPDEST PUSH1 0x40 MLOAD DUP1 SWAP2 SUB SWAP1 REVERT JUMPDEST DUP1 CALLVALUE LT ISZERO PUSH2 0xE2E JUMPI PUSH1 0x40 MLOAD PUSH32 0x8C379A000000000000000000000000000000000000000000000000000000000 DUP2 MSTORE PUSH1 0x4 ADD PUSH2 0xE25 SWAP1 PUSH2 0x16E3 JUMP JUMPDEST PUSH1 0x40 MLOAD DUP1 SWAP2 SUB SWAP1 REVERT JUMPDEST PUSH1 0x0 TIMESTAMP SWAP1 POP PUSH1 0x0 PUSH1 0x64 PUSH1 0x4 SLOAD PUSH1 0x64 PUSH2 0xE46 SWAP2 SWAP1 PUSH2 0x1543 JUMP JUMPDEST CALLVALUE PUSH2 0xE51 SWAP2 SWAP1 PUSH2 0x1577 JUMP JUMPDEST PUSH2 0xE5B SWAP2 SWAP1 PUSH2 0x1600 JUMP JUMPDEST SWAP1 POP PUSH1 0x3 PUSH1 0x0 SWAP1 SLOAD SWAP1 PUSH2 0x100 EXP SWAP1 DIV PUSH20 0xFFFFFFFFFFFFFFFFFFFFFFFFFFFFFFFFFFFFFFFF AND PUSH20 0xFFFFFFFFFFFFFFFFFFFFFFFFFFFFFFFFFFFFFFFF AND PUSH2 0x8FC DUP3 SWAP1 DUP2 ISZERO MUL SWAP1 PUSH1 0x40 MLOAD PUSH1 0x0 PUSH1 0x40 MLOAD DUP1 DUP4 SUB DUP2 DUP6 DUP9 DUP9 CALL SWAP4 POP POP POP POP ISZERO DUP1 ISZERO PUSH2 0xEC5 JUMPI RETURNDATASIZE PUSH1 0x0 DUP1 RETURNDATACOPY RETURNDATASIZE PUSH1 0x0 REVERT JUMPDEST POP PUSH32 0xA64806D6D5D480697A0B11C92B915A4FF7B93C0BE28171D65D30041A0C360D04 CALLER DUP3 DUP5 PUSH1 0x0 PUSH1 0x40 MLOAD PUSH2 0xEFC SWAP5 SWAP4 SWAP3 SWAP2 SWAP1 PUSH2 0x1652 JUMP JUMPDEST PUSH1 0x40 MLOAD DUP1 SWAP2 SUB SWAP1 LOG1 POP POP POP JUMP JUMPDEST PUSH1 0x0 PUSH1 0x5 PUSH1 0x0 DUP4 DUP2 MSTORE PUSH1 0x20 ADD SWAP1 DUP2 MSTORE PUSH1 0x20 ADD PUSH1 0x0 KECCAK256 PUSH1 0x3 ADD PUSH1 0x0 SWAP1 SLOAD SWAP1 PUSH2 0x100 EXP SWAP1 DIV PUSH1 0xFF AND SWAP1 POP SWAP2 SWAP1 POP JUMP JUMPDEST PUSH1 0x60 SWAP1 JUMP JUMPDEST PUSH1 0x0 PUSH1 0x7 PUSH1 0x0 DUP4 DUP2 MSTORE PUSH1 0x20 ADD SWAP1 DUP2 MSTORE PUSH1 0x20 ADD PUSH1 0x0 KECCAK256 PUSH1 0x1 ADD SLOAD SWAP1 POP SWAP2 SWAP1 POP JUMP JUMPDEST PUSH1 0x0 DUP2 MLOAD SWAP1 POP SWAP2 SWAP1 POP JUMP JUMPDEST PUSH1 0x0 DUP3 DUP3 MSTORE PUSH1 0x20 DUP3 ADD SWAP1 POP SWAP3 SWAP2 POP POP JUMP JUMPDEST PUSH1 0x0 DUP2 SWAP1 POP PUSH1 0x20 DUP3 ADD SWAP1 POP SWAP2 SWAP1 POP JUMP JUMPDEST PUSH1 0x0 DUP2 SWAP1 POP SWAP2 SWAP1 POP JUMP JUMPDEST PUSH2 0xF9A DUP2 PUSH2 0xF87 JUMP JUMPDEST DUP3 MSTORE POP POP JUMP JUMPDEST PUSH1 0x0 PUSH2 0xFAC DUP4 DUP4 PUSH2 0xF91 JUMP JUMPDEST PUSH1 0x20 DUP4 ADD SWAP1 POP SWAP3 SWAP2 POP POP JUMP JUMPDEST PUSH1 0x0 PUSH1 0x20 DUP3 ADD SWAP1 POP SWAP2 SWAP1 POP JUMP JUMPDEST PUSH1 0x0 PUSH2 0xFD0 DUP3 PUSH2 0xF5B JUMP JUMPDEST PUSH2 0xFDA DUP2 DUP6 PUSH2 0xF66 JUMP JUMPDEST SWAP4 POP PUSH2 0xFE5 DUP4 PUSH2 0xF77 JUMP JUMPDEST DUP1 PUSH1 0x0 JUMPDEST DUP4 DUP2 LT ISZERO PUSH2 0x1016 JUMPI DUP2 MLOAD PUSH2 0xFFD DUP9 DUP3 PUSH2 0xFA0 JUMP JUMPDEST SWAP8 POP PUSH2 0x1008 DUP4 PUSH2 0xFB8 JUMP JUMPDEST SWAP3 POP POP PUSH1 0x1 DUP2 ADD SWAP1 POP PUSH2 0xFE9 JUMP JUMPDEST POP DUP6 SWAP4 POP POP POP POP SWAP3 SWAP2 POP POP JUMP JUMPDEST PUSH1 0x0 PUSH1 0x20 DUP3 ADD SWAP1 POP DUP2 DUP2 SUB PUSH1 0x0 DUP4 ADD MSTORE PUSH2 0x103D DUP2 DUP5 PUSH2 0xFC5 JUMP JUMPDEST SWAP1 POP SWAP3 SWAP2 POP POP JUMP JUMPDEST PUSH1 0x0 DUP1 REVERT JUMPDEST PUSH2 0x1053 DUP2 PUSH2 0xF87 JUMP JUMPDEST DUP2 EQ PUSH2 0x105E JUMPI PUSH1 0x0 DUP1 REVERT JUMPDEST POP JUMP JUMPDEST PUSH1 0x0 DUP2 CALLDATALOAD SWAP1 POP PUSH2 0x1070 DUP2 PUSH2 0x104A JUMP JUMPDEST SWAP3 SWAP2 POP POP JUMP JUMPDEST PUSH1 0x0 PUSH1 0x20 DUP3 DUP5 SUB SLT ISZERO PUSH2 0x108C JUMPI PUSH2 0x108B PUSH2 0x1045 JUMP JUMPDEST JUMPDEST PUSH1 0x0 PUSH2 0x109A DUP5 DUP3 DUP6 ADD PUSH2 0x1061 JUMP JUMPDEST SWAP2 POP POP SWAP3 SWAP2 POP POP JUMP JUMPDEST PUSH2 0x10AC DUP2 PUSH2 0xF87 JUMP JUMPDEST DUP3 MSTORE POP POP JUMP JUMPDEST PUSH1 0x0 PUSH1 0x20 DUP3 ADD SWAP1 POP PUSH2 0x10C7 PUSH1 0x0 DUP4 ADD DUP5 PUSH2 0x10A3 JUMP JUMPDEST SWAP3 SWAP2 POP POP JUMP JUMPDEST PUSH1 0x0 DUP2 MLOAD SWAP1 POP SWAP2 SWAP1 POP JUMP JUMPDEST PUSH1 0x0 DUP3 DUP3 MSTORE PUSH1 0x20 DUP3 ADD SWAP1 POP SWAP3 SWAP2 POP POP JUMP JUMPDEST PUSH1 0x0 DUP2 SWAP1 POP PUSH1 0x20 DUP3 ADD SWAP1 POP SWAP2 SWAP1 POP JUMP JUMPDEST PUSH1 0x0 PUSH20 0xFFFFFFFFFFFFFFFFFFFFFFFFFFFFFFFFFFFFFFFF DUP3 AND SWAP1 POP SWAP2 SWAP1 POP JUMP JUMPDEST PUSH1 0x0 PUSH2 0x1124 DUP3 PUSH2 0x10F9 JUMP JUMPDEST SWAP1 POP SWAP2 SWAP1 POP JUMP JUMPDEST PUSH2 0x1134 DUP2 PUSH2 0x1119 JUMP JUMPDEST DUP3 MSTORE POP POP JUMP JUMPDEST PUSH32 0x4E487B7100000000000000000000000000000000000000000000000000000000 PUSH1 0x0 MSTORE PUSH1 0x21 PUSH1 0x4 MSTORE PUSH1 0x24 PUSH1 0x0 REVERT JUMPDEST PUSH1 0x2 DUP2 LT PUSH2 0x117A JUMPI PUSH2 0x1179 PUSH2 0x113A JUMP JUMPDEST JUMPDEST POP JUMP JUMPDEST PUSH1 0x0 DUP2 SWAP1 POP PUSH2 0x118B DUP3 PUSH2 0x1169 JUMP JUMPDEST SWAP2 SWAP1 POP JUMP JUMPDEST PUSH1 0x0 PUSH2 0x119B DUP3 PUSH2 0x117D JUMP JUMPDEST SWAP1 POP SWAP2 SWAP1 POP JUMP JUMPDEST PUSH2 0x11AB DUP2 PUSH2 0x1190 JUMP JUMPDEST DUP3 MSTORE POP POP JUMP JUMPDEST PUSH1 0x0 DUP2 ISZERO ISZERO SWAP1 POP SWAP2 SWAP1 POP JUMP JUMPDEST PUSH2 0x11C6 DUP2 PUSH2 0x11B1 JUMP JUMPDEST DUP3 MSTORE POP POP JUMP JUMPDEST PUSH1 0xE0 DUP3 ADD PUSH1 0x0 DUP3 ADD MLOAD PUSH2 0x11E2 PUSH1 0x0 DUP6 ADD DUP3 PUSH2 0x112B JUMP JUMPDEST POP PUSH1 0x20 DUP3 ADD MLOAD PUSH2 0x11F5 PUSH1 0x20 DUP6 ADD DUP3 PUSH2 0xF91 JUMP JUMPDEST POP PUSH1 0x40 DUP3 ADD MLOAD PUSH2 0x1208 PUSH1 0x40 DUP6 ADD DUP3 PUSH2 0xF91 JUMP JUMPDEST POP PUSH1 0x60 DUP3 ADD MLOAD PUSH2 0x121B PUSH1 0x60 DUP6 ADD DUP3 PUSH2 0x11A2 JUMP JUMPDEST POP PUSH1 0x80 DUP3 ADD MLOAD PUSH2 0x122E PUSH1 0x80 DUP6 ADD DUP3 PUSH2 0xF91 JUMP JUMPDEST POP PUSH1 0xA0 DUP3 ADD MLOAD PUSH2 0x1241 PUSH1 0xA0 DUP6 ADD DUP3 PUSH2 0xF91 JUMP JUMPDEST POP PUSH1 0xC0 DUP3 ADD MLOAD PUSH2 0x1254 PUSH1 0xC0 DUP6 ADD DUP3 PUSH2 0x11BD JUMP JUMPDEST POP POP POP POP JUMP JUMPDEST PUSH1 0x0 PUSH2 0x1266 DUP4 DUP4 PUSH2 0x11CC JUMP JUMPDEST PUSH1 0xE0 DUP4 ADD SWAP1 POP SWAP3 SWAP2 POP POP JUMP JUMPDEST PUSH1 0x0 PUSH1 0x20 DUP3 ADD SWAP1 POP SWAP2 SWAP1 POP JUMP JUMPDEST PUSH1 0x0 PUSH2 0x128A DUP3 PUSH2 0x10CD JUMP JUMPDEST PUSH2 0x1294 DUP2 DUP6 PUSH2 0x10D8 JUMP JUMPDEST SWAP4 POP PUSH2 0x129F DUP4 PUSH2 0x10E9 JUMP JUMPDEST DUP1 PUSH1 0x0 JUMPDEST DUP4 DUP2 LT ISZERO PUSH2 0x12D0 JUMPI DUP2 MLOAD PUSH2 0x12B7 DUP9 DUP3 PUSH2 0x125A JUMP JUMPDEST SWAP8 POP PUSH2 0x12C2 DUP4 PUSH2 0x1272 JUMP JUMPDEST SWAP3 POP POP PUSH1 0x1 DUP2 ADD SWAP1 POP PUSH2 0x12A3 JUMP JUMPDEST POP DUP6 SWAP4 POP POP POP POP SWAP3 SWAP2 POP POP JUMP JUMPDEST PUSH1 0x0 PUSH1 0x20 DUP3 ADD SWAP1 POP DUP2 DUP2 SUB PUSH1 0x0 DUP4 ADD MSTORE PUSH2 0x12F7 DUP2 DUP5 PUSH2 0x127F JUMP JUMPDEST SWAP1 POP SWAP3 SWAP2 POP POP JUMP JUMPDEST PUSH2 0x1308 DUP2 PUSH2 0x1190 JUMP JUMPDEST DUP3 MSTORE POP POP JUMP JUMPDEST PUSH1 0x0 PUSH1 0x20 DUP3 ADD SWAP1 POP PUSH2 0x1323 PUSH1 0x0 DUP4 ADD DUP5 PUSH2 0x12FF JUMP JUMPDEST SWAP3 SWAP2 POP POP JUMP JUMPDEST PUSH2 0x1332 DUP2 PUSH2 0x1119 JUMP JUMPDEST DUP3 MSTORE POP POP JUMP JUMPDEST PUSH1 0x0 PUSH1 0x20 DUP3 ADD SWAP1 POP PUSH2 0x134D PUSH1 0x0 DUP4 ADD DUP5 PUSH2 0x1329 JUMP JUMPDEST SWAP3 SWAP2 POP POP JUMP JUMPDEST PUSH1 0x0 DUP3 DUP3 MSTORE PUSH1 0x20 DUP3 ADD SWAP1 POP SWAP3 SWAP2 POP POP JUMP JUMPDEST PUSH32 0x4F726465722050656E64696E6700000000000000000000000000000000000000 PUSH1 0x0 DUP3 ADD MSTORE POP JUMP JUMPDEST PUSH1 0x0 PUSH2 0x139A PUSH1 0xD DUP4 PUSH2 0x1353 JUMP JUMPDEST SWAP2 POP PUSH2 0x13A5 DUP3 PUSH2 0x1364 JUMP JUMPDEST PUSH1 0x20 DUP3 ADD SWAP1 POP SWAP2 SWAP1 POP JUMP JUMPDEST PUSH1 0x0 PUSH1 0x20 DUP3 ADD SWAP1 POP DUP2 DUP2 SUB PUSH1 0x0 DUP4 ADD MSTORE PUSH2 0x13C9 DUP2 PUSH2 0x138D JUMP JUMPDEST SWAP1 POP SWAP2 SWAP1 POP JUMP JUMPDEST PUSH32 0x4E6F7420417574686F7269736564000000000000000000000000000000000000 PUSH1 0x0 DUP3 ADD MSTORE POP JUMP JUMPDEST PUSH1 0x0 PUSH2 0x1406 PUSH1 0xE DUP4 PUSH2 0x1353 JUMP JUMPDEST SWAP2 POP PUSH2 0x1411 DUP3 PUSH2 0x13D0 JUMP JUMPDEST PUSH1 0x20 DUP3 ADD SWAP1 POP SWAP2 SWAP1 POP JUMP JUMPDEST PUSH1 0x0 PUSH1 0x20 DUP3 ADD SWAP1 POP DUP2 DUP2 SUB PUSH1 0x0 DUP4 ADD MSTORE PUSH2 0x1435 DUP2 PUSH2 0x13F9 JUMP JUMPDEST SWAP1 POP SWAP2 SWAP1 POP JUMP JUMPDEST PUSH32 0x70726963652076616C7565206D757374206265206D6F7265207468616E203000 PUSH1 0x0 DUP3 ADD MSTORE POP JUMP JUMPDEST PUSH1 0x0 PUSH2 0x1472 PUSH1 0x1F DUP4 PUSH2 0x1353 JUMP JUMPDEST SWAP2 POP PUSH2 0x147D DUP3 PUSH2 0x143C JUMP JUMPDEST PUSH1 0x20 DUP3 ADD SWAP1 POP SWAP2 SWAP1 POP JUMP JUMPDEST PUSH1 0x0 PUSH1 0x20 DUP3 ADD SWAP1 POP DUP2 DUP2 SUB PUSH1 0x0 DUP4 ADD MSTORE PUSH2 0x14A1 DUP2 PUSH2 0x1465 JUMP JUMPDEST SWAP1 POP SWAP2 SWAP1 POP JUMP JUMPDEST PUSH32 0x4E6F7420656E6F75676820626C616E636520746F20706C6163652061736B0000 PUSH1 0x0 DUP3 ADD MSTORE POP JUMP JUMPDEST PUSH1 0x0 PUSH2 0x14DE PUSH1 0x1E DUP4 PUSH2 0x1353 JUMP JUMPDEST SWAP2 POP PUSH2 0x14E9 DUP3 PUSH2 0x14A8 JUMP JUMPDEST PUSH1 0x20 DUP3 ADD SWAP1 POP SWAP2 SWAP1 POP JUMP JUMPDEST PUSH1 0x0 PUSH1 0x20 DUP3 ADD SWAP1 POP DUP2 DUP2 SUB PUSH1 0x0 DUP4 ADD MSTORE PUSH2 0x150D DUP2 PUSH2 0x14D1 JUMP JUMPDEST SWAP1 POP SWAP2 SWAP1 POP JUMP JUMPDEST PUSH32 0x4E487B7100000000000000000000000000000000000000000000000000000000 PUSH1 0x0 MSTORE PUSH1 0x11 PUSH1 0x4 MSTORE PUSH1 0x24 PUSH1 0x0 REVERT JUMPDEST PUSH1 0x0 PUSH2 0x154E DUP3 PUSH2 0xF87 JUMP JUMPDEST SWAP2 POP PUSH2 0x1559 DUP4 PUSH2 0xF87 JUMP JUMPDEST SWAP3 POP DUP3 DUP3 LT ISZERO PUSH2 0x156C JUMPI PUSH2 0x156B PUSH2 0x1514 JUMP JUMPDEST JUMPDEST DUP3 DUP3 SUB SWAP1 POP SWAP3 SWAP2 POP POP JUMP JUMPDEST PUSH1 0x0 PUSH2 0x1582 DUP3 PUSH2 0xF87 JUMP JUMPDEST SWAP2 POP PUSH2 0x158D DUP4 PUSH2 0xF87 JUMP JUMPDEST SWAP3 POP DUP2 PUSH32 0xFFFFFFFFFFFFFFFFFFFFFFFFFFFFFFFFFFFFFFFFFFFFFFFFFFFFFFFFFFFFFFFF DIV DUP4 GT DUP3 ISZERO ISZERO AND ISZERO PUSH2 0x15C6 JUMPI PUSH2 0x15C5 PUSH2 0x1514 JUMP JUMPDEST JUMPDEST DUP3 DUP3 MUL SWAP1 POP SWAP3 SWAP2 POP POP JUMP JUMPDEST PUSH32 0x4E487B7100000000000000000000000000000000000000000000000000000000 PUSH1 0x0 MSTORE PUSH1 0x12 PUSH1 0x4 MSTORE PUSH1 0x24 PUSH1 0x0 REVERT JUMPDEST PUSH1 0x0 PUSH2 0x160B DUP3 PUSH2 0xF87 JUMP JUMPDEST SWAP2 POP PUSH2 0x1616 DUP4 PUSH2 0xF87 JUMP JUMPDEST SWAP3 POP DUP3 PUSH2 0x1626 JUMPI PUSH2 0x1625 PUSH2 0x15D1 JUMP JUMPDEST JUMPDEST DUP3 DUP3 DIV SWAP1 POP SWAP3 SWAP2 POP POP JUMP JUMPDEST PUSH1 0x0 PUSH2 0x163C DUP3 PUSH2 0x10F9 JUMP JUMPDEST SWAP1 POP SWAP2 SWAP1 POP JUMP JUMPDEST PUSH2 0x164C DUP2 PUSH2 0x1631 JUMP JUMPDEST DUP3 MSTORE POP POP JUMP JUMPDEST PUSH1 0x0 PUSH1 0x80 DUP3 ADD SWAP1 POP PUSH2 0x1667 PUSH1 0x0 DUP4 ADD DUP8 PUSH2 0x1643 JUMP JUMPDEST PUSH2 0x1674 PUSH1 0x20 DUP4 ADD DUP7 PUSH2 0x10A3 JUMP JUMPDEST PUSH2 0x1681 PUSH1 0x40 DUP4 ADD DUP6 PUSH2 0x10A3 JUMP JUMPDEST PUSH2 0x168E PUSH1 0x60 DUP4 ADD DUP5 PUSH2 0x12FF JUMP JUMPDEST SWAP6 SWAP5 POP POP POP POP POP JUMP JUMPDEST PUSH32 0x4E6F7420656E6F75676820626C616E636520746F20706C616365206269640000 PUSH1 0x0 DUP3 ADD MSTORE POP JUMP JUMPDEST PUSH1 0x0 PUSH2 0x16CD PUSH1 0x1E DUP4 PUSH2 0x1353 JUMP JUMPDEST SWAP2 POP PUSH2 0x16D8 DUP3 PUSH2 0x1697 JUMP JUMPDEST PUSH1 0x20 DUP3 ADD SWAP1 POP SWAP2 SWAP1 POP JUMP JUMPDEST PUSH1 0x0 PUSH1 0x20 DUP3 ADD SWAP1 POP DUP2 DUP2 SUB PUSH1 0x0 DUP4 ADD MSTORE PUSH2 0x16FC DUP2 PUSH2 0x16C0 JUMP JUMPDEST SWAP1 POP SWAP2 SWAP1 POP JUMP INVALID LOG2 PUSH5 0x6970667358 0x22 SLT KECCAK256 SWAP16 0xE1 PUSH24 0x1134C3B9DAB106756523CEC42F63876D76C5B767FD097CAD 0xAE 0xD2 SLOAD 0xA7 PUSH4 0x64736F6C PUSH4 0x4300080D STOP CALLER "
				},
				"gasEstimates": {
					"creation": {
						"codeDepositCost": "1189000",
						"executionCost": "infinite",
						"totalCost": "infinite"
					},
					"external": {
						"cancelAsk(uint256)": "infinite",
						"cancelBid(uint256)": "infinite",
						"fetchAllBid()": "infinite",
						"fetchYourAskIds()": "infinite",
						"fetchYourBidIds()": "infinite",
						"getAskAddress(uint256)": "2894",
						"getAskState(uint256)": "3006",
						"getAskValue(uint256)": "infinite",
						"getBidAddress(uint256)": "2982",
						"getBidState(uint256)": "2961",
						"getBidValue(uint256)": "infinite",
						"placeAsk(uint256)": "infinite",
						"placeBid(uint256)": "infinite"
					}
				},
				"methodIdentifiers": {
					"cancelAsk(uint256)": "1628e0f5",
					"cancelBid(uint256)": "9703ef35",
					"fetchAllBid()": "4471417f",
					"fetchYourAskIds()": "122de8f2",
					"fetchYourBidIds()": "ce0cdc87",
					"getAskAddress(uint256)": "734a2e78",
					"getAskState(uint256)": "4d46712d",
					"getAskValue(uint256)": "db3a1396",
					"getBidAddress(uint256)": "69f632e2",
					"getBidState(uint256)": "bf77ffae",
					"getBidValue(uint256)": "2db6dfa7",
					"placeAsk(uint256)": "78c5b268",
					"placeBid(uint256)": "9979ef45"
				}
			},
			"storageLayout": {
				"storage": [
					{
						"astId": 9,
						"contract": "contracts/OrderBook.sol:OrderBook",
						"label": "list",
						"offset": 0,
						"slot": "0",
						"type": "t_struct(List)447_storage"
					},
					{
						"astId": 16,
						"contract": "contracts/OrderBook.sol:OrderBook",
						"label": "bidValues",
						"offset": 0,
						"slot": "2",
						"type": "t_mapping(t_uint256,t_uint256)"
					},
					{
						"astId": 23,
						"contract": "contracts/OrderBook.sol:OrderBook",
						"label": "_owner",
						"offset": 0,
						"slot": "3",
						"type": "t_address_payable"
					},
					{
						"astId": 25,
						"contract": "contracts/OrderBook.sol:OrderBook",
						"label": "commission",
						"offset": 0,
						"slot": "4",
						"type": "t_uint256"
					},
					{
						"astId": 56,
						"contract": "contracts/OrderBook.sol:OrderBook",
						"label": "bidBook",
						"offset": 0,
						"slot": "5",
						"type": "t_mapping(t_uint256,t_struct(order)51_storage)"
					},
					{
						"astId": 59,
						"contract": "contracts/OrderBook.sol:OrderBook",
						"label": "bidCount",
						"offset": 0,
						"slot": "6",
						"type": "t_uint256"
					},
					{
						"astId": 64,
						"contract": "contracts/OrderBook.sol:OrderBook",
						"label": "askBook",
						"offset": 0,
						"slot": "7",
						"type": "t_mapping(t_uint256,t_struct(order)51_storage)"
					},
					{
						"astId": 67,
						"contract": "contracts/OrderBook.sol:OrderBook",
						"label": "askCount",
						"offset": 0,
						"slot": "8",
						"type": "t_uint256"
					}
				],
				"types": {
					"t_address_payable": {
						"encoding": "inplace",
						"label": "address payable",
						"numberOfBytes": "20"
					},
					"t_bool": {
						"encoding": "inplace",
						"label": "bool",
						"numberOfBytes": "1"
					},
					"t_enum(State)12": {
						"encoding": "inplace",
						"label": "enum OrderBook.State",
						"numberOfBytes": "1"
					},
					"t_mapping(t_bool,t_uint256)": {
						"encoding": "mapping",
						"key": "t_bool",
						"label": "mapping(bool => uint256)",
						"numberOfBytes": "32",
						"value": "t_uint256"
					},
					"t_mapping(t_uint256,t_mapping(t_bool,t_uint256))": {
						"encoding": "mapping",
						"key": "t_uint256",
						"label": "mapping(uint256 => mapping(bool => uint256))",
						"numberOfBytes": "32",
						"value": "t_mapping(t_bool,t_uint256)"
					},
					"t_mapping(t_uint256,t_struct(order)51_storage)": {
						"encoding": "mapping",
						"key": "t_uint256",
						"label": "mapping(uint256 => struct OrderBook.order)",
						"numberOfBytes": "32",
						"value": "t_struct(order)51_storage"
					},
					"t_mapping(t_uint256,t_uint256)": {
						"encoding": "mapping",
						"key": "t_uint256",
						"label": "mapping(uint256 => uint256)",
						"numberOfBytes": "32",
						"value": "t_uint256"
					},
					"t_struct(List)447_storage": {
						"encoding": "inplace",
						"label": "struct StructuredLinkedList.List",
						"members": [
							{
								"astId": 440,
								"contract": "contracts/OrderBook.sol:OrderBook",
								"label": "size",
								"offset": 0,
								"slot": "0",
								"type": "t_uint256"
							},
							{
								"astId": 446,
								"contract": "contracts/OrderBook.sol:OrderBook",
								"label": "list",
								"offset": 0,
								"slot": "1",
								"type": "t_mapping(t_uint256,t_mapping(t_bool,t_uint256))"
							}
						],
						"numberOfBytes": "64"
					},
					"t_struct(order)51_storage": {
						"encoding": "inplace",
						"label": "struct OrderBook.order",
						"members": [
							{
								"astId": 37,
								"contract": "contracts/OrderBook.sol:OrderBook",
								"label": "customer",
								"offset": 0,
								"slot": "0",
								"type": "t_address_payable"
							},
							{
								"astId": 39,
								"contract": "contracts/OrderBook.sol:OrderBook",
								"label": "value",
								"offset": 0,
								"slot": "1",
								"type": "t_uint256"
							},
							{
								"astId": 41,
								"contract": "contracts/OrderBook.sol:OrderBook",
								"label": "timestamp",
								"offset": 0,
								"slot": "2",
								"type": "t_uint256"
							},
							{
								"astId": 44,
								"contract": "contracts/OrderBook.sol:OrderBook",
								"label": "state",
								"offset": 0,
								"slot": "3",
								"type": "t_enum(State)12"
							},
							{
								"astId": 46,
								"contract": "contracts/OrderBook.sol:OrderBook",
								"label": "next",
								"offset": 0,
								"slot": "4",
								"type": "t_uint256"
							},
							{
								"astId": 48,
								"contract": "contracts/OrderBook.sol:OrderBook",
								"label": "prev",
								"offset": 0,
								"slot": "5",
								"type": "t_uint256"
							},
							{
								"astId": 50,
								"contract": "contracts/OrderBook.sol:OrderBook",
								"label": "delb",
								"offset": 0,
								"slot": "6",
								"type": "t_bool"
							}
						],
						"numberOfBytes": "224"
					},
					"t_uint256": {
						"encoding": "inplace",
						"label": "uint256",
						"numberOfBytes": "32"
					}
				}
			},
			"userdoc": {
				"kind": "user",
				"methods": {},
				"version": 1
			}
		}
	}
}