{
	"contracts/OrderBook.sol": {
		"OrderBook": {
			"abi": [
				{
					"inputs": [
						{
							"internalType": "uint256",
							"name": "_commission",
							"type": "uint256"
						}
					],
					"stateMutability": "nonpayable",
					"type": "constructor"
				},
				{
					"anonymous": false,
					"inputs": [
						{
							"indexed": false,
							"internalType": "uint256",
							"name": "",
							"type": "uint256"
						},
						{
							"indexed": false,
							"internalType": "uint256",
							"name": "",
							"type": "uint256"
						}
					],
					"name": "askLink",
					"type": "event"
				},
				{
					"anonymous": false,
					"inputs": [
						{
							"indexed": false,
							"internalType": "uint256",
							"name": "",
							"type": "uint256"
						},
						{
							"indexed": false,
							"internalType": "uint256",
							"name": "",
							"type": "uint256"
						}
					],
					"name": "bidLink",
					"type": "event"
				},
				{
					"anonymous": false,
					"inputs": [
						{
							"indexed": false,
							"internalType": "uint256",
							"name": "",
							"type": "uint256"
						}
					],
					"name": "newHead",
					"type": "event"
				},
				{
					"anonymous": false,
					"inputs": [
						{
							"indexed": false,
							"internalType": "uint256",
							"name": "",
							"type": "uint256"
						}
					],
					"name": "newTail",
					"type": "event"
				},
				{
					"anonymous": false,
					"inputs": [
						{
							"indexed": false,
							"internalType": "address",
							"name": "",
							"type": "address"
						},
						{
							"indexed": false,
							"internalType": "uint256",
							"name": "",
							"type": "uint256"
						},
						{
							"indexed": false,
							"internalType": "uint256",
							"name": "",
							"type": "uint256"
						},
						{
							"indexed": false,
							"internalType": "enum OrderBook.State",
							"name": "",
							"type": "uint8"
						},
						{
							"indexed": false,
							"internalType": "uint256",
							"name": "",
							"type": "uint256"
						},
						{
							"indexed": false,
							"internalType": "uint256",
							"name": "",
							"type": "uint256"
						},
						{
							"indexed": false,
							"internalType": "uint256",
							"name": "",
							"type": "uint256"
						},
						{
							"indexed": false,
							"internalType": "bool",
							"name": "",
							"type": "bool"
						}
					],
					"name": "orderCreated",
					"type": "event"
				},
				{
					"inputs": [],
					"name": "askCount",
					"outputs": [
						{
							"internalType": "uint256",
							"name": "",
							"type": "uint256"
						}
					],
					"stateMutability": "view",
					"type": "function"
				},
				{
					"inputs": [],
					"name": "askHead",
					"outputs": [
						{
							"internalType": "uint256",
							"name": "",
							"type": "uint256"
						}
					],
					"stateMutability": "view",
					"type": "function"
				},
				{
					"inputs": [],
					"name": "bidCount",
					"outputs": [
						{
							"internalType": "uint256",
							"name": "",
							"type": "uint256"
						}
					],
					"stateMutability": "view",
					"type": "function"
				},
				{
					"inputs": [],
					"name": "bidHead",
					"outputs": [
						{
							"internalType": "uint256",
							"name": "",
							"type": "uint256"
						}
					],
					"stateMutability": "view",
					"type": "function"
				},
				{
					"inputs": [
						{
							"internalType": "uint256",
							"name": "askId",
							"type": "uint256"
						}
					],
					"name": "cancelAsk",
					"outputs": [],
					"stateMutability": "nonpayable",
					"type": "function"
				},
				{
					"inputs": [
						{
							"internalType": "uint256",
							"name": "bidId",
							"type": "uint256"
						}
					],
					"name": "cancelBid",
					"outputs": [],
					"stateMutability": "nonpayable",
					"type": "function"
				},
				{
					"inputs": [],
					"name": "fetchAllBid",
					"outputs": [
						{
							"components": [
								{
									"internalType": "address payable",
									"name": "customer",
									"type": "address"
								},
								{
									"internalType": "uint256",
									"name": "value",
									"type": "uint256"
								},
								{
									"internalType": "uint256",
									"name": "timestamp",
									"type": "uint256"
								},
								{
									"internalType": "enum OrderBook.State",
									"name": "state",
									"type": "uint8"
								},
								{
									"internalType": "uint256",
									"name": "id",
									"type": "uint256"
								},
								{
									"internalType": "uint256",
									"name": "next",
									"type": "uint256"
								},
								{
									"internalType": "uint256",
									"name": "prev",
									"type": "uint256"
								}
							],
							"internalType": "struct OrderBook.order[]",
							"name": "",
							"type": "tuple[]"
						}
					],
					"stateMutability": "nonpayable",
					"type": "function"
				},
				{
					"inputs": [],
					"name": "fetchAsk",
					"outputs": [
						{
							"internalType": "string",
							"name": "",
							"type": "string"
						}
					],
					"stateMutability": "view",
					"type": "function"
				},
				{
					"inputs": [],
					"name": "fetchYourAskIds",
					"outputs": [
						{
							"internalType": "uint256[]",
							"name": "",
							"type": "uint256[]"
						}
					],
					"stateMutability": "nonpayable",
					"type": "function"
				},
				{
					"inputs": [],
					"name": "fetchYourBidIds",
					"outputs": [
						{
							"internalType": "uint256[]",
							"name": "",
							"type": "uint256[]"
						}
					],
					"stateMutability": "nonpayable",
					"type": "function"
				},
				{
					"inputs": [
						{
							"internalType": "uint256",
							"name": "id",
							"type": "uint256"
						}
					],
					"name": "getAskAddress",
					"outputs": [
						{
							"internalType": "address payable",
							"name": "",
							"type": "address"
						}
					],
					"stateMutability": "view",
					"type": "function"
				},
				{
					"inputs": [
						{
							"internalType": "uint256",
							"name": "id",
							"type": "uint256"
						}
					],
					"name": "getAskState",
					"outputs": [
						{
							"internalType": "enum OrderBook.State",
							"name": "",
							"type": "uint8"
						}
					],
					"stateMutability": "view",
					"type": "function"
				},
				{
					"inputs": [
						{
							"internalType": "uint256",
							"name": "id",
							"type": "uint256"
						}
					],
					"name": "getAskValue",
					"outputs": [
						{
							"internalType": "uint256",
							"name": "",
							"type": "uint256"
						}
					],
					"stateMutability": "view",
					"type": "function"
				},
				{
					"inputs": [
						{
							"internalType": "uint256",
							"name": "id",
							"type": "uint256"
						}
					],
					"name": "getBidAddress",
					"outputs": [
						{
							"internalType": "address payable",
							"name": "",
							"type": "address"
						}
					],
					"stateMutability": "view",
					"type": "function"
				},
				{
					"inputs": [
						{
							"internalType": "uint256",
							"name": "id",
							"type": "uint256"
						}
					],
					"name": "getBidState",
					"outputs": [
						{
							"internalType": "enum OrderBook.State",
							"name": "",
							"type": "uint8"
						}
					],
					"stateMutability": "view",
					"type": "function"
				},
				{
					"inputs": [
						{
							"internalType": "uint256",
							"name": "id",
							"type": "uint256"
						}
					],
					"name": "getBidValue",
					"outputs": [
						{
							"internalType": "uint256",
							"name": "",
							"type": "uint256"
						}
					],
					"stateMutability": "view",
					"type": "function"
				},
				{
					"inputs": [
						{
							"internalType": "uint256",
							"name": "id",
							"type": "uint256"
						}
					],
					"name": "getOrder",
					"outputs": [
						{
							"internalType": "address payable",
							"name": "",
							"type": "address"
						},
						{
							"internalType": "uint256",
							"name": "",
							"type": "uint256"
						},
						{
							"internalType": "uint256",
							"name": "",
							"type": "uint256"
						},
						{
							"internalType": "enum OrderBook.State",
							"name": "",
							"type": "uint8"
						},
						{
							"internalType": "uint256",
							"name": "",
							"type": "uint256"
						},
						{
							"internalType": "uint256",
							"name": "",
							"type": "uint256"
						},
						{
							"internalType": "uint256",
							"name": "",
							"type": "uint256"
						},
						{
							"internalType": "bool",
							"name": "",
							"type": "bool"
						}
					],
					"stateMutability": "view",
					"type": "function"
				},
				{
					"inputs": [
						{
							"internalType": "uint256",
							"name": "price",
							"type": "uint256"
						}
					],
					"name": "placeAsk",
					"outputs": [],
					"stateMutability": "payable",
					"type": "function"
				},
				{
					"inputs": [
						{
							"internalType": "uint256",
							"name": "price",
							"type": "uint256"
						}
					],
					"name": "placeBid",
					"outputs": [],
					"stateMutability": "payable",
					"type": "function"
				}
			],
			"devdoc": {
				"kind": "dev",
				"methods": {},
				"version": 1
			},
			"evm": {
				"assembly": "    /* \"contracts/OrderBook.sol\":1155:8688  contract OrderBook {... */\n  mstore(0x40, 0x80)\n    /* \"contracts/OrderBook.sol\":1358:1368  msg.sender */\n  caller\n    /* \"contracts/OrderBook.sol\":1325:1369  address payable _owner = payable(msg.sender) */\n  0x01\n  exp(0x0100, 0x00)\n  dup2\n  sload\n  dup2\n  0xffffffffffffffffffffffffffffffffffffffff\n  mul\n  not\n  and\n  swap1\n  dup4\n  0xffffffffffffffffffffffffffffffffffffffff\n  and\n  mul\n  or\n  swap1\n  sstore\n  pop\n    /* \"contracts/OrderBook.sol\":2292:2453  constructor (uint256 _commission) {... */\n  callvalue\n  dup1\n  iszero\n  tag_1\n  jumpi\n  0x00\n  dup1\n  revert\ntag_1:\n  pop\n  mload(0x40)\n  sub(codesize, bytecodeSize)\n  dup1\n  bytecodeSize\n  dup4\n  codecopy\n  dup2\n  dup2\n  add\n  0x40\n  mstore\n  dup2\n  add\n  swap1\n  tag_2\n  swap2\n  swap1\n  tag_3\n  jump\t// in\ntag_2:\n    /* \"contracts/OrderBook.sol\":2349:2360  _commission */\n  dup1\n    /* \"contracts/OrderBook.sol\":2336:2346  commission */\n  0x02\n    /* \"contracts/OrderBook.sol\":2336:2360  commission = _commission */\n  dup2\n  swap1\n  sstore\n  pop\n    /* \"contracts/OrderBook.sol\":2380:2381  0 */\n  0x00\n    /* \"contracts/OrderBook.sol\":2370:2377  bidHead */\n  0x04\n    /* \"contracts/OrderBook.sol\":2370:2381  bidHead = 0 */\n  dup2\n  swap1\n  sstore\n  pop\n    /* \"contracts/OrderBook.sol\":2402:2403  0 */\n  0x00\n    /* \"contracts/OrderBook.sol\":2391:2399  bidCount */\n  0x05\n    /* \"contracts/OrderBook.sol\":2391:2403  bidCount = 0 */\n  dup2\n  swap1\n  sstore\n  pop\n    /* \"contracts/OrderBook.sol\":2423:2424  0 */\n  0x00\n    /* \"contracts/OrderBook.sol\":2413:2420  askHead */\n  0x07\n    /* \"contracts/OrderBook.sol\":2413:2424  askHead = 0 */\n  dup2\n  swap1\n  sstore\n  pop\n    /* \"contracts/OrderBook.sol\":2445:2446  0 */\n  0x00\n    /* \"contracts/OrderBook.sol\":2434:2442  askCount */\n  0x08\n    /* \"contracts/OrderBook.sol\":2434:2446  askCount = 0 */\n  dup2\n  swap1\n  sstore\n  pop\n    /* \"contracts/OrderBook.sol\":2292:2453  constructor (uint256 _commission) {... */\n  pop\n    /* \"contracts/OrderBook.sol\":1155:8688  contract OrderBook {... */\n  jump(tag_6)\n    /* \"#utility.yul\":88:205   */\ntag_8:\n    /* \"#utility.yul\":197:198   */\n  0x00\n    /* \"#utility.yul\":194:195   */\n  dup1\n    /* \"#utility.yul\":187:199   */\n  revert\n    /* \"#utility.yul\":334:411   */\ntag_10:\n    /* \"#utility.yul\":371:378   */\n  0x00\n    /* \"#utility.yul\":400:405   */\n  dup2\n    /* \"#utility.yul\":389:405   */\n  swap1\n  pop\n    /* \"#utility.yul\":334:411   */\n  swap2\n  swap1\n  pop\n  jump\t// out\n    /* \"#utility.yul\":417:539   */\ntag_11:\n    /* \"#utility.yul\":490:514   */\n  tag_19\n    /* \"#utility.yul\":508:513   */\n  dup2\n    /* \"#utility.yul\":490:514   */\n  tag_10\n  jump\t// in\ntag_19:\n    /* \"#utility.yul\":483:488   */\n  dup2\n    /* \"#utility.yul\":480:515   */\n  eq\n    /* \"#utility.yul\":470:533   */\n  tag_20\n  jumpi\n    /* \"#utility.yul\":529:530   */\n  0x00\n    /* \"#utility.yul\":526:527   */\n  dup1\n    /* \"#utility.yul\":519:531   */\n  revert\n    /* \"#utility.yul\":470:533   */\ntag_20:\n    /* \"#utility.yul\":417:539   */\n  pop\n  jump\t// out\n    /* \"#utility.yul\":545:688   */\ntag_12:\n    /* \"#utility.yul\":602:607   */\n  0x00\n    /* \"#utility.yul\":633:639   */\n  dup2\n    /* \"#utility.yul\":627:640   */\n  mload\n    /* \"#utility.yul\":618:640   */\n  swap1\n  pop\n    /* \"#utility.yul\":649:682   */\n  tag_22\n    /* \"#utility.yul\":676:681   */\n  dup2\n    /* \"#utility.yul\":649:682   */\n  tag_11\n  jump\t// in\ntag_22:\n    /* \"#utility.yul\":545:688   */\n  swap3\n  swap2\n  pop\n  pop\n  jump\t// out\n    /* \"#utility.yul\":694:1045   */\ntag_3:\n    /* \"#utility.yul\":764:770   */\n  0x00\n    /* \"#utility.yul\":813:815   */\n  0x20\n    /* \"#utility.yul\":801:810   */\n  dup3\n    /* \"#utility.yul\":792:799   */\n  dup5\n    /* \"#utility.yul\":788:811   */\n  sub\n    /* \"#utility.yul\":784:816   */\n  slt\n    /* \"#utility.yul\":781:900   */\n  iszero\n  tag_24\n  jumpi\n    /* \"#utility.yul\":819:898   */\n  tag_25\n  tag_8\n  jump\t// in\ntag_25:\n    /* \"#utility.yul\":781:900   */\ntag_24:\n    /* \"#utility.yul\":939:940   */\n  0x00\n    /* \"#utility.yul\":964:1028   */\n  tag_26\n    /* \"#utility.yul\":1020:1027   */\n  dup5\n    /* \"#utility.yul\":1011:1017   */\n  dup3\n    /* \"#utility.yul\":1000:1009   */\n  dup6\n    /* \"#utility.yul\":996:1018   */\n  add\n    /* \"#utility.yul\":964:1028   */\n  tag_12\n  jump\t// in\ntag_26:\n    /* \"#utility.yul\":954:1028   */\n  swap2\n  pop\n    /* \"#utility.yul\":910:1038   */\n  pop\n    /* \"#utility.yul\":694:1045   */\n  swap3\n  swap2\n  pop\n  pop\n  jump\t// out\n    /* \"contracts/OrderBook.sol\":1155:8688  contract OrderBook {... */\ntag_6:\n  dataSize(sub_0)\n  dup1\n  dataOffset(sub_0)\n  0x00\n  codecopy\n  0x00\n  return\nstop\n\nsub_0: assembly {\n        /* \"contracts/OrderBook.sol\":1155:8688  contract OrderBook {... */\n      mstore(0x40, 0x80)\n      jumpi(tag_1, lt(calldatasize, 0x04))\n      shr(0xe0, calldataload(0x00))\n      dup1\n      0x78c5b268\n      gt\n      tag_21\n      jumpi\n      dup1\n      0xb40a5627\n      gt\n      tag_22\n      jumpi\n      dup1\n      0xb40a5627\n      eq\n      tag_16\n      jumpi\n      dup1\n      0xbf77ffae\n      eq\n      tag_17\n      jumpi\n      dup1\n      0xce0cdc87\n      eq\n      tag_18\n      jumpi\n      dup1\n      0xd09ef241\n      eq\n      tag_19\n      jumpi\n      dup1\n      0xdb3a1396\n      eq\n      tag_20\n      jumpi\n      jump(tag_1)\n    tag_22:\n      dup1\n      0x78c5b268\n      eq\n      tag_11\n      jumpi\n      dup1\n      0x801d9bbd\n      eq\n      tag_12\n      jumpi\n      dup1\n      0x9703ef35\n      eq\n      tag_13\n      jumpi\n      dup1\n      0x9979ef45\n      eq\n      tag_14\n      jumpi\n      dup1\n      0xa394fda7\n      eq\n      tag_15\n      jumpi\n      jump(tag_1)\n    tag_21:\n      dup1\n      0x44e791e0\n      gt\n      tag_23\n      jumpi\n      dup1\n      0x44e791e0\n      eq\n      tag_6\n      jumpi\n      dup1\n      0x4d46712d\n      eq\n      tag_7\n      jumpi\n      dup1\n      0x69f632e2\n      eq\n      tag_8\n      jumpi\n      dup1\n      0x6e5b0f00\n      eq\n      tag_9\n      jumpi\n      dup1\n      0x734a2e78\n      eq\n      tag_10\n      jumpi\n      jump(tag_1)\n    tag_23:\n      dup1\n      0x122de8f2\n      eq\n      tag_2\n      jumpi\n      dup1\n      0x1628e0f5\n      eq\n      tag_3\n      jumpi\n      dup1\n      0x2db6dfa7\n      eq\n      tag_4\n      jumpi\n      dup1\n      0x4471417f\n      eq\n      tag_5\n      jumpi\n    tag_1:\n      0x00\n      dup1\n      revert\n        /* \"contracts/OrderBook.sol\":7605:7673  function fetchYourAskIds() public returns (uint256[] memory) {... */\n    tag_2:\n      callvalue\n      dup1\n      iszero\n      tag_24\n      jumpi\n      0x00\n      dup1\n      revert\n    tag_24:\n      pop\n      tag_25\n      tag_26\n      jump\t// in\n    tag_25:\n      mload(0x40)\n      tag_27\n      swap2\n      swap1\n      tag_28\n      jump\t// in\n    tag_27:\n      mload(0x40)\n      dup1\n      swap2\n      sub\n      swap1\n      return\n        /* \"contracts/OrderBook.sol\":6789:7081  function cancelAsk (uint256 askId) public isPending(askBook[askId]) isAuthorised(askBook[askId], msg.sender) {... */\n    tag_3:\n      callvalue\n      dup1\n      iszero\n      tag_29\n      jumpi\n      0x00\n      dup1\n      revert\n    tag_29:\n      pop\n      tag_30\n      0x04\n      dup1\n      calldatasize\n      sub\n      dup2\n      add\n      swap1\n      tag_31\n      swap2\n      swap1\n      tag_32\n      jump\t// in\n    tag_31:\n      tag_33\n      jump\t// in\n    tag_30:\n      stop\n        /* \"contracts/OrderBook.sol\":8255:8359  function getBidValue (uint256 id) public view returns(uint256) {... */\n    tag_4:\n      callvalue\n      dup1\n      iszero\n      tag_34\n      jumpi\n      0x00\n      dup1\n      revert\n    tag_34:\n      pop\n      tag_35\n      0x04\n      dup1\n      calldatasize\n      sub\n      dup2\n      add\n      swap1\n      tag_36\n      swap2\n      swap1\n      tag_32\n      jump\t// in\n    tag_36:\n      tag_37\n      jump\t// in\n    tag_35:\n      mload(0x40)\n      tag_38\n      swap2\n      swap1\n      tag_39\n      jump\t// in\n    tag_38:\n      mload(0x40)\n      dup1\n      swap2\n      sub\n      swap1\n      return\n        /* \"contracts/OrderBook.sol\":7462:7524  function fetchAllBid() public returns (order[] memory) {... */\n    tag_5:\n      callvalue\n      dup1\n      iszero\n      tag_40\n      jumpi\n      0x00\n      dup1\n      revert\n    tag_40:\n      pop\n      tag_41\n      tag_42\n      jump\t// in\n    tag_41:\n      mload(0x40)\n      tag_43\n      swap2\n      swap1\n      tag_44\n      jump\t// in\n    tag_43:\n      mload(0x40)\n      dup1\n      swap2\n      sub\n      swap1\n      return\n        /* \"contracts/OrderBook.sol\":7115:7456  function fetchAsk() public view returns (string memory) {... */\n    tag_6:\n      callvalue\n      dup1\n      iszero\n      tag_45\n      jumpi\n      0x00\n      dup1\n      revert\n    tag_45:\n      pop\n      tag_46\n      tag_47\n      jump\t// in\n    tag_46:\n      mload(0x40)\n      tag_48\n      swap2\n      swap1\n      tag_49\n      jump\t// in\n    tag_48:\n      mload(0x40)\n      dup1\n      swap2\n      sub\n      swap1\n      return\n        /* \"contracts/OrderBook.sol\":8583:8685  function getAskState (uint256 id) public view returns(State) {... */\n    tag_7:\n      callvalue\n      dup1\n      iszero\n      tag_50\n      jumpi\n      0x00\n      dup1\n      revert\n    tag_50:\n      pop\n      tag_51\n      0x04\n      dup1\n      calldatasize\n      sub\n      dup2\n      add\n      swap1\n      tag_52\n      swap2\n      swap1\n      tag_32\n      jump\t// in\n    tag_52:\n      tag_53\n      jump\t// in\n    tag_51:\n      mload(0x40)\n      tag_54\n      swap2\n      swap1\n      tag_55\n      jump\t// in\n    tag_54:\n      mload(0x40)\n      dup1\n      swap2\n      sub\n      swap1\n      return\n        /* \"contracts/OrderBook.sol\":8009:8126  function getBidAddress (uint256 id) public view returns(address payable) {... */\n    tag_8:\n      callvalue\n      dup1\n      iszero\n      tag_56\n      jumpi\n      0x00\n      dup1\n      revert\n    tag_56:\n      pop\n      tag_57\n      0x04\n      dup1\n      calldatasize\n      sub\n      dup2\n      add\n      swap1\n      tag_58\n      swap2\n      swap1\n      tag_32\n      jump\t// in\n    tag_58:\n      tag_59\n      jump\t// in\n    tag_57:\n      mload(0x40)\n      tag_60\n      swap2\n      swap1\n      tag_61\n      jump\t// in\n    tag_60:\n      mload(0x40)\n      dup1\n      swap2\n      sub\n      swap1\n      return\n        /* \"contracts/OrderBook.sol\":1822:1844  uint256 public bidHead */\n    tag_9:\n      callvalue\n      dup1\n      iszero\n      tag_62\n      jumpi\n      0x00\n      dup1\n      revert\n    tag_62:\n      pop\n      tag_63\n      tag_64\n      jump\t// in\n    tag_63:\n      mload(0x40)\n      tag_65\n      swap2\n      swap1\n      tag_39\n      jump\t// in\n    tag_65:\n      mload(0x40)\n      dup1\n      swap2\n      sub\n      swap1\n      return\n        /* \"contracts/OrderBook.sol\":8132:8249  function getAskAddress (uint256 id) public view returns(address payable) {... */\n    tag_10:\n      callvalue\n      dup1\n      iszero\n      tag_66\n      jumpi\n      0x00\n      dup1\n      revert\n    tag_66:\n      pop\n      tag_67\n      0x04\n      dup1\n      calldatasize\n      sub\n      dup2\n      add\n      swap1\n      tag_68\n      swap2\n      swap1\n      tag_32\n      jump\t// in\n    tag_68:\n      tag_69\n      jump\t// in\n    tag_67:\n      mload(0x40)\n      tag_70\n      swap2\n      swap1\n      tag_61\n      jump\t// in\n    tag_70:\n      mload(0x40)\n      dup1\n      swap2\n      sub\n      swap1\n      return\n        /* \"contracts/OrderBook.sol\":6379:6783  function placeAsk (uint256 price) public payable {... */\n    tag_11:\n      tag_71\n      0x04\n      dup1\n      calldatasize\n      sub\n      dup2\n      add\n      swap1\n      tag_72\n      swap2\n      swap1\n      tag_32\n      jump\t// in\n    tag_72:\n      tag_73\n      jump\t// in\n    tag_71:\n      stop\n        /* \"contracts/OrderBook.sol\":1967:1989  uint256 public askHead */\n    tag_12:\n      callvalue\n      dup1\n      iszero\n      tag_74\n      jumpi\n      0x00\n      dup1\n      revert\n    tag_74:\n      pop\n      tag_75\n      tag_76\n      jump\t// in\n    tag_75:\n      mload(0x40)\n      tag_77\n      swap2\n      swap1\n      tag_39\n      jump\t// in\n    tag_77:\n      mload(0x40)\n      dup1\n      swap2\n      sub\n      swap1\n      return\n        /* \"contracts/OrderBook.sol\":6116:6373  function cancelBid (uint256 bidId) public isPending(bidBook[bidId]) isAuthorised(bidBook[bidId], msg.sender) {... */\n    tag_13:\n      callvalue\n      dup1\n      iszero\n      tag_78\n      jumpi\n      0x00\n      dup1\n      revert\n    tag_78:\n      pop\n      tag_79\n      0x04\n      dup1\n      calldatasize\n      sub\n      dup2\n      add\n      swap1\n      tag_80\n      swap2\n      swap1\n      tag_32\n      jump\t// in\n    tag_80:\n      tag_81\n      jump\t// in\n    tag_79:\n      stop\n        /* \"contracts/OrderBook.sol\":5541:6110  function placeBid (uint256 price) public payable {... */\n    tag_14:\n      tag_82\n      0x04\n      dup1\n      calldatasize\n      sub\n      dup2\n      add\n      swap1\n      tag_83\n      swap2\n      swap1\n      tag_32\n      jump\t// in\n    tag_83:\n      tag_84\n      jump\t// in\n    tag_82:\n      stop\n        /* \"contracts/OrderBook.sol\":1995:2018  uint256 public askCount */\n    tag_15:\n      callvalue\n      dup1\n      iszero\n      tag_85\n      jumpi\n      0x00\n      dup1\n      revert\n    tag_85:\n      pop\n      tag_86\n      tag_87\n      jump\t// in\n    tag_86:\n      mload(0x40)\n      tag_88\n      swap2\n      swap1\n      tag_39\n      jump\t// in\n    tag_88:\n      mload(0x40)\n      dup1\n      swap2\n      sub\n      swap1\n      return\n        /* \"contracts/OrderBook.sol\":1850:1873  uint256 public bidCount */\n    tag_16:\n      callvalue\n      dup1\n      iszero\n      tag_89\n      jumpi\n      0x00\n      dup1\n      revert\n    tag_89:\n      pop\n      tag_90\n      tag_91\n      jump\t// in\n    tag_90:\n      mload(0x40)\n      tag_92\n      swap2\n      swap1\n      tag_39\n      jump\t// in\n    tag_92:\n      mload(0x40)\n      dup1\n      swap2\n      sub\n      swap1\n      return\n        /* \"contracts/OrderBook.sol\":8475:8577  function getBidState (uint256 id) public view returns(State) {... */\n    tag_17:\n      callvalue\n      dup1\n      iszero\n      tag_93\n      jumpi\n      0x00\n      dup1\n      revert\n    tag_93:\n      pop\n      tag_94\n      0x04\n      dup1\n      calldatasize\n      sub\n      dup2\n      add\n      swap1\n      tag_95\n      swap2\n      swap1\n      tag_32\n      jump\t// in\n    tag_95:\n      tag_96\n      jump\t// in\n    tag_94:\n      mload(0x40)\n      tag_97\n      swap2\n      swap1\n      tag_55\n      jump\t// in\n    tag_97:\n      mload(0x40)\n      dup1\n      swap2\n      sub\n      swap1\n      return\n        /* \"contracts/OrderBook.sol\":7531:7599  function fetchYourBidIds() public returns (uint256[] memory) {... */\n    tag_18:\n      callvalue\n      dup1\n      iszero\n      tag_98\n      jumpi\n      0x00\n      dup1\n      revert\n    tag_98:\n      pop\n      tag_99\n      tag_100\n      jump\t// in\n    tag_99:\n      mload(0x40)\n      tag_101\n      swap2\n      swap1\n      tag_28\n      jump\t// in\n    tag_101:\n      mload(0x40)\n      dup1\n      swap2\n      sub\n      swap1\n      return\n        /* \"contracts/OrderBook.sol\":7679:8003  function getOrder(uint256 id) public view returns(address payable,uint256,uint256,State,uint256,uint256,uint256,bool) {... */\n    tag_19:\n      callvalue\n      dup1\n      iszero\n      tag_102\n      jumpi\n      0x00\n      dup1\n      revert\n    tag_102:\n      pop\n      tag_103\n      0x04\n      dup1\n      calldatasize\n      sub\n      dup2\n      add\n      swap1\n      tag_104\n      swap2\n      swap1\n      tag_32\n      jump\t// in\n    tag_104:\n      tag_105\n      jump\t// in\n    tag_103:\n      mload(0x40)\n      tag_106\n      swap9\n      swap8\n      swap7\n      swap6\n      swap5\n      swap4\n      swap3\n      swap2\n      swap1\n      tag_107\n      jump\t// in\n    tag_106:\n      mload(0x40)\n      dup1\n      swap2\n      sub\n      swap1\n      return\n        /* \"contracts/OrderBook.sol\":8365:8469  function getAskValue (uint256 id) public view returns(uint256) {... */\n    tag_20:\n      callvalue\n      dup1\n      iszero\n      tag_108\n      jumpi\n      0x00\n      dup1\n      revert\n    tag_108:\n      pop\n      tag_109\n      0x04\n      dup1\n      calldatasize\n      sub\n      dup2\n      add\n      swap1\n      tag_110\n      swap2\n      swap1\n      tag_32\n      jump\t// in\n    tag_110:\n      tag_111\n      jump\t// in\n    tag_109:\n      mload(0x40)\n      tag_112\n      swap2\n      swap1\n      tag_39\n      jump\t// in\n    tag_112:\n      mload(0x40)\n      dup1\n      swap2\n      sub\n      swap1\n      return\n        /* \"contracts/OrderBook.sol\":7605:7673  function fetchYourAskIds() public returns (uint256[] memory) {... */\n    tag_26:\n        /* \"contracts/OrderBook.sol\":7648:7664  uint256[] memory */\n      0x60\n        /* \"contracts/OrderBook.sol\":7605:7673  function fetchYourAskIds() public returns (uint256[] memory) {... */\n      swap1\n      jump\t// out\n        /* \"contracts/OrderBook.sol\":6789:7081  function cancelAsk (uint256 askId) public isPending(askBook[askId]) isAuthorised(askBook[askId], msg.sender) {... */\n    tag_33:\n        /* \"contracts/OrderBook.sol\":6841:6848  askBook */\n      0x06\n        /* \"contracts/OrderBook.sol\":6841:6855  askBook[askId] */\n      0x00\n        /* \"contracts/OrderBook.sol\":6849:6854  askId */\n      dup3\n        /* \"contracts/OrderBook.sol\":6841:6855  askBook[askId] */\n      dup2\n      mstore\n      0x20\n      add\n      swap1\n      dup2\n      mstore\n      0x20\n      add\n      0x00\n      keccak256\n        /* \"contracts/OrderBook.sol\":2492:2615  modifier isPending(order memory _order) {... */\n      mload(0x40)\n      dup1\n      0xe0\n      add\n      0x40\n      mstore\n      swap1\n      dup2\n      0x00\n      dup3\n      add\n      0x00\n      swap1\n      sload\n      swap1\n      0x0100\n      exp\n      swap1\n      div\n      0xffffffffffffffffffffffffffffffffffffffff\n      and\n      0xffffffffffffffffffffffffffffffffffffffff\n      and\n      0xffffffffffffffffffffffffffffffffffffffff\n      and\n      dup2\n      mstore\n      0x20\n      add\n      0x01\n      dup3\n      add\n      sload\n      dup2\n      mstore\n      0x20\n      add\n      0x02\n      dup3\n      add\n      sload\n      dup2\n      mstore\n      0x20\n      add\n      0x03\n      dup3\n      add\n      0x00\n      swap1\n      sload\n      swap1\n      0x0100\n      exp\n      swap1\n      div\n      0xff\n      and\n      0x01\n      dup2\n      gt\n      iszero\n      tag_114\n      jumpi\n      tag_115\n      tag_116\n      jump\t// in\n    tag_115:\n    tag_114:\n      0x01\n      dup2\n      gt\n      iszero\n      tag_117\n      jumpi\n      tag_118\n      tag_116\n      jump\t// in\n    tag_118:\n    tag_117:\n      dup2\n      mstore\n      0x20\n      add\n      0x04\n      dup3\n      add\n      sload\n      dup2\n      mstore\n      0x20\n      add\n      0x05\n      dup3\n      add\n      sload\n      dup2\n      mstore\n      0x20\n      add\n      0x06\n      dup3\n      add\n      sload\n      dup2\n      mstore\n      pop\n      pop\n        /* \"contracts/OrderBook.sol\":2566:2579  State.pending */\n      0x00\n        /* \"contracts/OrderBook.sol\":2550:2579  _order.state == State.pending */\n      0x01\n      dup2\n      gt\n      iszero\n      tag_120\n      jumpi\n      tag_121\n      tag_116\n      jump\t// in\n    tag_121:\n    tag_120:\n        /* \"contracts/OrderBook.sol\":2550:2556  _order */\n      dup2\n        /* \"contracts/OrderBook.sol\":2550:2562  _order.state */\n      0x60\n      add\n      mload\n        /* \"contracts/OrderBook.sol\":2550:2579  _order.state == State.pending */\n      0x01\n      dup2\n      gt\n      iszero\n      tag_122\n      jumpi\n      tag_123\n      tag_116\n      jump\t// in\n    tag_123:\n    tag_122:\n      eq\n        /* \"contracts/OrderBook.sol\":2542:2597  require(_order.state == State.pending, \"Order Pending\") */\n      tag_124\n      jumpi\n      mload(0x40)\n      0x08c379a000000000000000000000000000000000000000000000000000000000\n      dup2\n      mstore\n      0x04\n      add\n      tag_125\n      swap1\n      tag_126\n      jump\t// in\n    tag_125:\n      mload(0x40)\n      dup1\n      swap2\n      sub\n      swap1\n      revert\n    tag_124:\n        /* \"contracts/OrderBook.sol\":6870:6877  askBook */\n      0x06\n        /* \"contracts/OrderBook.sol\":6870:6884  askBook[askId] */\n      0x00\n        /* \"contracts/OrderBook.sol\":6878:6883  askId */\n      dup4\n        /* \"contracts/OrderBook.sol\":6870:6884  askBook[askId] */\n      dup2\n      mstore\n      0x20\n      add\n      swap1\n      dup2\n      mstore\n      0x20\n      add\n      0x00\n      keccak256\n        /* \"contracts/OrderBook.sol\":2621:2760  modifier isAuthorised(order memory _order, address sender) {... */\n      mload(0x40)\n      dup1\n      0xe0\n      add\n      0x40\n      mstore\n      swap1\n      dup2\n      0x00\n      dup3\n      add\n      0x00\n      swap1\n      sload\n      swap1\n      0x0100\n      exp\n      swap1\n      div\n      0xffffffffffffffffffffffffffffffffffffffff\n      and\n      0xffffffffffffffffffffffffffffffffffffffff\n      and\n      0xffffffffffffffffffffffffffffffffffffffff\n      and\n      dup2\n      mstore\n      0x20\n      add\n      0x01\n      dup3\n      add\n      sload\n      dup2\n      mstore\n      0x20\n      add\n      0x02\n      dup3\n      add\n      sload\n      dup2\n      mstore\n      0x20\n      add\n      0x03\n      dup3\n      add\n      0x00\n      swap1\n      sload\n      swap1\n      0x0100\n      exp\n      swap1\n      div\n      0xff\n      and\n      0x01\n      dup2\n      gt\n      iszero\n      tag_127\n      jumpi\n      tag_128\n      tag_116\n      jump\t// in\n    tag_128:\n    tag_127:\n      0x01\n      dup2\n      gt\n      iszero\n      tag_129\n      jumpi\n      tag_130\n      tag_116\n      jump\t// in\n    tag_130:\n    tag_129:\n      dup2\n      mstore\n      0x20\n      add\n      0x04\n      dup3\n      add\n      sload\n      dup2\n      mstore\n      0x20\n      add\n      0x05\n      dup3\n      add\n      sload\n      dup2\n      mstore\n      0x20\n      add\n      0x06\n      dup3\n      add\n      sload\n      dup2\n      mstore\n      pop\n      pop\n        /* \"contracts/OrderBook.sol\":6886:6896  msg.sender */\n      caller\n        /* \"contracts/OrderBook.sol\":2717:2723  sender */\n      dup1\n        /* \"contracts/OrderBook.sol\":2698:2723  _order.customer == sender */\n      0xffffffffffffffffffffffffffffffffffffffff\n      and\n        /* \"contracts/OrderBook.sol\":2698:2704  _order */\n      dup3\n        /* \"contracts/OrderBook.sol\":2698:2713  _order.customer */\n      0x00\n      add\n      mload\n        /* \"contracts/OrderBook.sol\":2698:2723  _order.customer == sender */\n      0xffffffffffffffffffffffffffffffffffffffff\n      and\n      eq\n        /* \"contracts/OrderBook.sol\":2690:2742  require(_order.customer == sender, \"Not Authorised\") */\n      tag_132\n      jumpi\n      mload(0x40)\n      0x08c379a000000000000000000000000000000000000000000000000000000000\n      dup2\n      mstore\n      0x04\n      add\n      tag_133\n      swap1\n      tag_134\n      jump\t// in\n    tag_133:\n      mload(0x40)\n      dup1\n      swap2\n      sub\n      swap1\n      revert\n    tag_132:\n        /* \"contracts/OrderBook.sol\":2607:2608  _ */\n      pop\n      pop\n        /* \"contracts/OrderBook.sol\":6789:7081  function cancelAsk (uint256 askId) public isPending(askBook[askId]) isAuthorised(askBook[askId], msg.sender) {... */\n      pop\n      pop\n      jump\t// out\n        /* \"contracts/OrderBook.sol\":8255:8359  function getBidValue (uint256 id) public view returns(uint256) {... */\n    tag_37:\n        /* \"contracts/OrderBook.sol\":8309:8316  uint256 */\n      0x00\n        /* \"contracts/OrderBook.sol\":8335:8342  bidBook */\n      0x03\n        /* \"contracts/OrderBook.sol\":8335:8346  bidBook[id] */\n      0x00\n        /* \"contracts/OrderBook.sol\":8343:8345  id */\n      dup4\n        /* \"contracts/OrderBook.sol\":8335:8346  bidBook[id] */\n      dup2\n      mstore\n      0x20\n      add\n      swap1\n      dup2\n      mstore\n      0x20\n      add\n      0x00\n      keccak256\n        /* \"contracts/OrderBook.sol\":8335:8352  bidBook[id].value */\n      0x01\n      add\n      sload\n        /* \"contracts/OrderBook.sol\":8328:8352  return bidBook[id].value */\n      swap1\n      pop\n        /* \"contracts/OrderBook.sol\":8255:8359  function getBidValue (uint256 id) public view returns(uint256) {... */\n      swap2\n      swap1\n      pop\n      jump\t// out\n        /* \"contracts/OrderBook.sol\":7462:7524  function fetchAllBid() public returns (order[] memory) {... */\n    tag_42:\n        /* \"contracts/OrderBook.sol\":7501:7515  order[] memory */\n      0x60\n        /* \"contracts/OrderBook.sol\":7462:7524  function fetchAllBid() public returns (order[] memory) {... */\n      swap1\n      jump\t// out\n        /* \"contracts/OrderBook.sol\":7115:7456  function fetchAsk() public view returns (string memory) {... */\n    tag_47:\n        /* \"contracts/OrderBook.sol\":7156:7169  string memory */\n      0x60\n        /* \"contracts/OrderBook.sol\":7181:7196  uint256 current */\n      0x00\n        /* \"contracts/OrderBook.sol\":7199:7206  askHead */\n      sload(0x07)\n        /* \"contracts/OrderBook.sol\":7181:7206  uint256 current = askHead */\n      swap1\n      pop\n        /* \"contracts/OrderBook.sol\":7216:7236  string memory output */\n      0x00\n        /* \"contracts/OrderBook.sol\":7216:7241  string memory output = \"\" */\n      mload(0x40)\n      dup1\n      0x20\n      add\n      0x40\n      mstore\n      dup1\n      0x00\n      dup2\n      mstore\n      pop\n      swap1\n      pop\n        /* \"contracts/OrderBook.sol\":7251:7427  while (current != 0) {... */\n    tag_139:\n        /* \"contracts/OrderBook.sol\":7269:7270  0 */\n      0x00\n        /* \"contracts/OrderBook.sol\":7258:7265  current */\n      dup3\n        /* \"contracts/OrderBook.sol\":7258:7270  current != 0 */\n      eq\n        /* \"contracts/OrderBook.sol\":7251:7427  while (current != 0) {... */\n      tag_140\n      jumpi\n        /* \"contracts/OrderBook.sol\":7286:7298  uint256 next */\n      0x00\n        /* \"contracts/OrderBook.sol\":7301:7308  askBook */\n      0x06\n        /* \"contracts/OrderBook.sol\":7301:7317  askBook[current] */\n      0x00\n        /* \"contracts/OrderBook.sol\":7309:7316  current */\n      dup5\n        /* \"contracts/OrderBook.sol\":7301:7317  askBook[current] */\n      dup2\n      mstore\n      0x20\n      add\n      swap1\n      dup2\n      mstore\n      0x20\n      add\n      0x00\n      keccak256\n        /* \"contracts/OrderBook.sol\":7301:7322  askBook[current].next */\n      0x05\n      add\n      sload\n        /* \"contracts/OrderBook.sol\":7286:7322  uint256 next = askBook[current].next */\n      swap1\n      pop\n        /* \"contracts/OrderBook.sol\":7336:7360  string memory currString */\n      0x00\n        /* \"contracts/OrderBook.sol\":7363:7388  Strings.toString(current) */\n      tag_141\n        /* \"contracts/OrderBook.sol\":7380:7387  current */\n      dup5\n        /* \"contracts/OrderBook.sol\":7363:7379  Strings.toString */\n      tag_142\n        /* \"contracts/OrderBook.sol\":7363:7388  Strings.toString(current) */\n      jump\t// in\n    tag_141:\n        /* \"contracts/OrderBook.sol\":7336:7388  string memory currString = Strings.toString(current) */\n      swap1\n      pop\n        /* \"contracts/OrderBook.sol\":7412:7416  next */\n      dup2\n        /* \"contracts/OrderBook.sol\":7402:7416  current = next */\n      swap4\n      pop\n        /* \"contracts/OrderBook.sol\":7272:7427  {... */\n      pop\n      pop\n        /* \"contracts/OrderBook.sol\":7251:7427  while (current != 0) {... */\n      jump(tag_139)\n    tag_140:\n        /* \"contracts/OrderBook.sol\":7443:7449  output */\n      dup1\n        /* \"contracts/OrderBook.sol\":7436:7449  return output */\n      swap3\n      pop\n      pop\n      pop\n        /* \"contracts/OrderBook.sol\":7115:7456  function fetchAsk() public view returns (string memory) {... */\n      swap1\n      jump\t// out\n        /* \"contracts/OrderBook.sol\":8583:8685  function getAskState (uint256 id) public view returns(State) {... */\n    tag_53:\n        /* \"contracts/OrderBook.sol\":8637:8642  State */\n      0x00\n        /* \"contracts/OrderBook.sol\":8661:8668  askBook */\n      0x06\n        /* \"contracts/OrderBook.sol\":8661:8672  askBook[id] */\n      0x00\n        /* \"contracts/OrderBook.sol\":8669:8671  id */\n      dup4\n        /* \"contracts/OrderBook.sol\":8661:8672  askBook[id] */\n      dup2\n      mstore\n      0x20\n      add\n      swap1\n      dup2\n      mstore\n      0x20\n      add\n      0x00\n      keccak256\n        /* \"contracts/OrderBook.sol\":8661:8678  askBook[id].state */\n      0x03\n      add\n      0x00\n      swap1\n      sload\n      swap1\n      0x0100\n      exp\n      swap1\n      div\n      0xff\n      and\n        /* \"contracts/OrderBook.sol\":8654:8678  return askBook[id].state */\n      swap1\n      pop\n        /* \"contracts/OrderBook.sol\":8583:8685  function getAskState (uint256 id) public view returns(State) {... */\n      swap2\n      swap1\n      pop\n      jump\t// out\n        /* \"contracts/OrderBook.sol\":8009:8126  function getBidAddress (uint256 id) public view returns(address payable) {... */\n    tag_59:\n        /* \"contracts/OrderBook.sol\":8065:8080  address payable */\n      0x00\n        /* \"contracts/OrderBook.sol\":8099:8106  bidBook */\n      0x03\n        /* \"contracts/OrderBook.sol\":8099:8110  bidBook[id] */\n      0x00\n        /* \"contracts/OrderBook.sol\":8107:8109  id */\n      dup4\n        /* \"contracts/OrderBook.sol\":8099:8110  bidBook[id] */\n      dup2\n      mstore\n      0x20\n      add\n      swap1\n      dup2\n      mstore\n      0x20\n      add\n      0x00\n      keccak256\n        /* \"contracts/OrderBook.sol\":8099:8119  bidBook[id].customer */\n      0x00\n      add\n      0x00\n      swap1\n      sload\n      swap1\n      0x0100\n      exp\n      swap1\n      div\n      0xffffffffffffffffffffffffffffffffffffffff\n      and\n        /* \"contracts/OrderBook.sol\":8092:8119  return bidBook[id].customer */\n      swap1\n      pop\n        /* \"contracts/OrderBook.sol\":8009:8126  function getBidAddress (uint256 id) public view returns(address payable) {... */\n      swap2\n      swap1\n      pop\n      jump\t// out\n        /* \"contracts/OrderBook.sol\":1822:1844  uint256 public bidHead */\n    tag_64:\n      sload(0x04)\n      dup2\n      jump\t// out\n        /* \"contracts/OrderBook.sol\":8132:8249  function getAskAddress (uint256 id) public view returns(address payable) {... */\n    tag_69:\n        /* \"contracts/OrderBook.sol\":8188:8203  address payable */\n      0x00\n        /* \"contracts/OrderBook.sol\":8222:8229  askBook */\n      0x06\n        /* \"contracts/OrderBook.sol\":8222:8233  askBook[id] */\n      0x00\n        /* \"contracts/OrderBook.sol\":8230:8232  id */\n      dup4\n        /* \"contracts/OrderBook.sol\":8222:8233  askBook[id] */\n      dup2\n      mstore\n      0x20\n      add\n      swap1\n      dup2\n      mstore\n      0x20\n      add\n      0x00\n      keccak256\n        /* \"contracts/OrderBook.sol\":8222:8242  askBook[id].customer */\n      0x00\n      add\n      0x00\n      swap1\n      sload\n      swap1\n      0x0100\n      exp\n      swap1\n      div\n      0xffffffffffffffffffffffffffffffffffffffff\n      and\n        /* \"contracts/OrderBook.sol\":8215:8242  return askBook[id].customer */\n      swap1\n      pop\n        /* \"contracts/OrderBook.sol\":8132:8249  function getAskAddress (uint256 id) public view returns(address payable) {... */\n      swap2\n      swap1\n      pop\n      jump\t// out\n        /* \"contracts/OrderBook.sol\":6379:6783  function placeAsk (uint256 price) public payable {... */\n    tag_73:\n        /* \"contracts/OrderBook.sol\":6455:6456  0 */\n      0x00\n        /* \"contracts/OrderBook.sol\":6446:6451  price */\n      dup2\n        /* \"contracts/OrderBook.sol\":6446:6456  price >= 0 */\n      lt\n      iszero\n        /* \"contracts/OrderBook.sol\":6438:6492  require(price >= 0, \"price value must be more than 0\") */\n      tag_147\n      jumpi\n      mload(0x40)\n      0x08c379a000000000000000000000000000000000000000000000000000000000\n      dup2\n      mstore\n      0x04\n      add\n      tag_148\n      swap1\n      tag_149\n      jump\t// in\n    tag_148:\n      mload(0x40)\n      dup1\n      swap2\n      sub\n      swap1\n      revert\n    tag_147:\n        /* \"contracts/OrderBook.sol\":6523:6528  price */\n      dup1\n        /* \"contracts/OrderBook.sol\":6510:6519  msg.value */\n      callvalue\n        /* \"contracts/OrderBook.sol\":6510:6528  msg.value >= price */\n      lt\n      iszero\n        /* \"contracts/OrderBook.sol\":6502:6563  require(msg.value >= price, \"Not enough blance to place ask\") */\n      tag_150\n      jumpi\n      mload(0x40)\n      0x08c379a000000000000000000000000000000000000000000000000000000000\n      dup2\n      mstore\n      0x04\n      add\n      tag_151\n      swap1\n      tag_152\n      jump\t// in\n    tag_151:\n      mload(0x40)\n      dup1\n      swap2\n      sub\n      swap1\n      revert\n    tag_150:\n        /* \"contracts/OrderBook.sol\":6573:6585  uint256 time */\n      0x00\n        /* \"contracts/OrderBook.sol\":6588:6603  block.timestamp */\n      timestamp\n        /* \"contracts/OrderBook.sol\":6573:6603  uint256 time = block.timestamp */\n      swap1\n      pop\n        /* \"contracts/OrderBook.sol\":6613:6638  uint256 commissionedPrice */\n      0x00\n        /* \"contracts/OrderBook.sol\":6672:6675  100 */\n      0x64\n        /* \"contracts/OrderBook.sol\":6658:6668  commission */\n      sload(0x02)\n        /* \"contracts/OrderBook.sol\":6654:6657  100 */\n      0x64\n        /* \"contracts/OrderBook.sol\":6654:6668  100-commission */\n      tag_153\n      swap2\n      swap1\n      tag_154\n      jump\t// in\n    tag_153:\n        /* \"contracts/OrderBook.sol\":6641:6650  msg.value */\n      callvalue\n        /* \"contracts/OrderBook.sol\":6641:6669  msg.value * (100-commission) */\n      tag_155\n      swap2\n      swap1\n      tag_156\n      jump\t// in\n    tag_155:\n        /* \"contracts/OrderBook.sol\":6641:6675  msg.value * (100-commission) / 100 */\n      tag_157\n      swap2\n      swap1\n      tag_158\n      jump\t// in\n    tag_157:\n        /* \"contracts/OrderBook.sol\":6613:6675  uint256 commissionedPrice = msg.value * (100-commission) / 100 */\n      swap1\n      pop\n        /* \"contracts/OrderBook.sol\":6685:6704  order memory newAsk */\n      0x00\n        /* \"contracts/OrderBook.sol\":6707:6751  createAsk(msg.sender,time,commissionedPrice) */\n      tag_159\n        /* \"contracts/OrderBook.sol\":6717:6727  msg.sender */\n      caller\n        /* \"contracts/OrderBook.sol\":6728:6732  time */\n      dup5\n        /* \"contracts/OrderBook.sol\":6733:6750  commissionedPrice */\n      dup5\n        /* \"contracts/OrderBook.sol\":6707:6716  createAsk */\n      tag_160\n        /* \"contracts/OrderBook.sol\":6707:6751  createAsk(msg.sender,time,commissionedPrice) */\n      jump\t// in\n    tag_159:\n        /* \"contracts/OrderBook.sol\":6685:6751  order memory newAsk = createAsk(msg.sender,time,commissionedPrice) */\n      swap1\n      pop\n        /* \"contracts/OrderBook.sol\":6761:6776  sortAsk(newAsk) */\n      tag_161\n        /* \"contracts/OrderBook.sol\":6769:6775  newAsk */\n      dup2\n        /* \"contracts/OrderBook.sol\":6761:6768  sortAsk */\n      tag_162\n        /* \"contracts/OrderBook.sol\":6761:6776  sortAsk(newAsk) */\n      jump\t// in\n    tag_161:\n        /* \"contracts/OrderBook.sol\":6428:6783  {... */\n      pop\n      pop\n      pop\n        /* \"contracts/OrderBook.sol\":6379:6783  function placeAsk (uint256 price) public payable {... */\n      pop\n      jump\t// out\n        /* \"contracts/OrderBook.sol\":1967:1989  uint256 public askHead */\n    tag_76:\n      sload(0x07)\n      dup2\n      jump\t// out\n        /* \"contracts/OrderBook.sol\":6116:6373  function cancelBid (uint256 bidId) public isPending(bidBook[bidId]) isAuthorised(bidBook[bidId], msg.sender) {... */\n    tag_81:\n        /* \"contracts/OrderBook.sol\":6168:6175  bidBook */\n      0x03\n        /* \"contracts/OrderBook.sol\":6168:6182  bidBook[bidId] */\n      0x00\n        /* \"contracts/OrderBook.sol\":6176:6181  bidId */\n      dup3\n        /* \"contracts/OrderBook.sol\":6168:6182  bidBook[bidId] */\n      dup2\n      mstore\n      0x20\n      add\n      swap1\n      dup2\n      mstore\n      0x20\n      add\n      0x00\n      keccak256\n        /* \"contracts/OrderBook.sol\":2492:2615  modifier isPending(order memory _order) {... */\n      mload(0x40)\n      dup1\n      0xe0\n      add\n      0x40\n      mstore\n      swap1\n      dup2\n      0x00\n      dup3\n      add\n      0x00\n      swap1\n      sload\n      swap1\n      0x0100\n      exp\n      swap1\n      div\n      0xffffffffffffffffffffffffffffffffffffffff\n      and\n      0xffffffffffffffffffffffffffffffffffffffff\n      and\n      0xffffffffffffffffffffffffffffffffffffffff\n      and\n      dup2\n      mstore\n      0x20\n      add\n      0x01\n      dup3\n      add\n      sload\n      dup2\n      mstore\n      0x20\n      add\n      0x02\n      dup3\n      add\n      sload\n      dup2\n      mstore\n      0x20\n      add\n      0x03\n      dup3\n      add\n      0x00\n      swap1\n      sload\n      swap1\n      0x0100\n      exp\n      swap1\n      div\n      0xff\n      and\n      0x01\n      dup2\n      gt\n      iszero\n      tag_163\n      jumpi\n      tag_164\n      tag_116\n      jump\t// in\n    tag_164:\n    tag_163:\n      0x01\n      dup2\n      gt\n      iszero\n      tag_165\n      jumpi\n      tag_166\n      tag_116\n      jump\t// in\n    tag_166:\n    tag_165:\n      dup2\n      mstore\n      0x20\n      add\n      0x04\n      dup3\n      add\n      sload\n      dup2\n      mstore\n      0x20\n      add\n      0x05\n      dup3\n      add\n      sload\n      dup2\n      mstore\n      0x20\n      add\n      0x06\n      dup3\n      add\n      sload\n      dup2\n      mstore\n      pop\n      pop\n        /* \"contracts/OrderBook.sol\":2566:2579  State.pending */\n      0x00\n        /* \"contracts/OrderBook.sol\":2550:2579  _order.state == State.pending */\n      0x01\n      dup2\n      gt\n      iszero\n      tag_168\n      jumpi\n      tag_169\n      tag_116\n      jump\t// in\n    tag_169:\n    tag_168:\n        /* \"contracts/OrderBook.sol\":2550:2556  _order */\n      dup2\n        /* \"contracts/OrderBook.sol\":2550:2562  _order.state */\n      0x60\n      add\n      mload\n        /* \"contracts/OrderBook.sol\":2550:2579  _order.state == State.pending */\n      0x01\n      dup2\n      gt\n      iszero\n      tag_170\n      jumpi\n      tag_171\n      tag_116\n      jump\t// in\n    tag_171:\n    tag_170:\n      eq\n        /* \"contracts/OrderBook.sol\":2542:2597  require(_order.state == State.pending, \"Order Pending\") */\n      tag_172\n      jumpi\n      mload(0x40)\n      0x08c379a000000000000000000000000000000000000000000000000000000000\n      dup2\n      mstore\n      0x04\n      add\n      tag_173\n      swap1\n      tag_126\n      jump\t// in\n    tag_173:\n      mload(0x40)\n      dup1\n      swap2\n      sub\n      swap1\n      revert\n    tag_172:\n        /* \"contracts/OrderBook.sol\":6197:6204  bidBook */\n      0x03\n        /* \"contracts/OrderBook.sol\":6197:6211  bidBook[bidId] */\n      0x00\n        /* \"contracts/OrderBook.sol\":6205:6210  bidId */\n      dup4\n        /* \"contracts/OrderBook.sol\":6197:6211  bidBook[bidId] */\n      dup2\n      mstore\n      0x20\n      add\n      swap1\n      dup2\n      mstore\n      0x20\n      add\n      0x00\n      keccak256\n        /* \"contracts/OrderBook.sol\":2621:2760  modifier isAuthorised(order memory _order, address sender) {... */\n      mload(0x40)\n      dup1\n      0xe0\n      add\n      0x40\n      mstore\n      swap1\n      dup2\n      0x00\n      dup3\n      add\n      0x00\n      swap1\n      sload\n      swap1\n      0x0100\n      exp\n      swap1\n      div\n      0xffffffffffffffffffffffffffffffffffffffff\n      and\n      0xffffffffffffffffffffffffffffffffffffffff\n      and\n      0xffffffffffffffffffffffffffffffffffffffff\n      and\n      dup2\n      mstore\n      0x20\n      add\n      0x01\n      dup3\n      add\n      sload\n      dup2\n      mstore\n      0x20\n      add\n      0x02\n      dup3\n      add\n      sload\n      dup2\n      mstore\n      0x20\n      add\n      0x03\n      dup3\n      add\n      0x00\n      swap1\n      sload\n      swap1\n      0x0100\n      exp\n      swap1\n      div\n      0xff\n      and\n      0x01\n      dup2\n      gt\n      iszero\n      tag_174\n      jumpi\n      tag_175\n      tag_116\n      jump\t// in\n    tag_175:\n    tag_174:\n      0x01\n      dup2\n      gt\n      iszero\n      tag_176\n      jumpi\n      tag_177\n      tag_116\n      jump\t// in\n    tag_177:\n    tag_176:\n      dup2\n      mstore\n      0x20\n      add\n      0x04\n      dup3\n      add\n      sload\n      dup2\n      mstore\n      0x20\n      add\n      0x05\n      dup3\n      add\n      sload\n      dup2\n      mstore\n      0x20\n      add\n      0x06\n      dup3\n      add\n      sload\n      dup2\n      mstore\n      pop\n      pop\n        /* \"contracts/OrderBook.sol\":6213:6223  msg.sender */\n      caller\n        /* \"contracts/OrderBook.sol\":2717:2723  sender */\n      dup1\n        /* \"contracts/OrderBook.sol\":2698:2723  _order.customer == sender */\n      0xffffffffffffffffffffffffffffffffffffffff\n      and\n        /* \"contracts/OrderBook.sol\":2698:2704  _order */\n      dup3\n        /* \"contracts/OrderBook.sol\":2698:2713  _order.customer */\n      0x00\n      add\n      mload\n        /* \"contracts/OrderBook.sol\":2698:2723  _order.customer == sender */\n      0xffffffffffffffffffffffffffffffffffffffff\n      and\n      eq\n        /* \"contracts/OrderBook.sol\":2690:2742  require(_order.customer == sender, \"Not Authorised\") */\n      tag_179\n      jumpi\n      mload(0x40)\n      0x08c379a000000000000000000000000000000000000000000000000000000000\n      dup2\n      mstore\n      0x04\n      add\n      tag_180\n      swap1\n      tag_134\n      jump\t// in\n    tag_180:\n      mload(0x40)\n      dup1\n      swap2\n      sub\n      swap1\n      revert\n    tag_179:\n        /* \"contracts/OrderBook.sol\":2607:2608  _ */\n      pop\n      pop\n        /* \"contracts/OrderBook.sol\":6116:6373  function cancelBid (uint256 bidId) public isPending(bidBook[bidId]) isAuthorised(bidBook[bidId], msg.sender) {... */\n      pop\n      pop\n      jump\t// out\n        /* \"contracts/OrderBook.sol\":5541:6110  function placeBid (uint256 price) public payable {... */\n    tag_84:\n        /* \"contracts/OrderBook.sol\":5617:5618  0 */\n      0x00\n        /* \"contracts/OrderBook.sol\":5608:5613  price */\n      dup2\n        /* \"contracts/OrderBook.sol\":5608:5618  price >= 0 */\n      lt\n      iszero\n        /* \"contracts/OrderBook.sol\":5600:5654  require(price >= 0, \"price value must be more than 0\") */\n      tag_183\n      jumpi\n      mload(0x40)\n      0x08c379a000000000000000000000000000000000000000000000000000000000\n      dup2\n      mstore\n      0x04\n      add\n      tag_184\n      swap1\n      tag_149\n      jump\t// in\n    tag_184:\n      mload(0x40)\n      dup1\n      swap2\n      sub\n      swap1\n      revert\n    tag_183:\n        /* \"contracts/OrderBook.sol\":5685:5690  price */\n      dup1\n        /* \"contracts/OrderBook.sol\":5672:5681  msg.value */\n      callvalue\n        /* \"contracts/OrderBook.sol\":5672:5690  msg.value >= price */\n      lt\n      iszero\n        /* \"contracts/OrderBook.sol\":5664:5725  require(msg.value >= price, \"Not enough blance to place bid\") */\n      tag_185\n      jumpi\n      mload(0x40)\n      0x08c379a000000000000000000000000000000000000000000000000000000000\n      dup2\n      mstore\n      0x04\n      add\n      tag_186\n      swap1\n      tag_187\n      jump\t// in\n    tag_186:\n      mload(0x40)\n      dup1\n      swap2\n      sub\n      swap1\n      revert\n    tag_185:\n        /* \"contracts/OrderBook.sol\":5541:6110  function placeBid (uint256 price) public payable {... */\n      pop\n      jump\t// out\n        /* \"contracts/OrderBook.sol\":1995:2018  uint256 public askCount */\n    tag_87:\n      sload(0x08)\n      dup2\n      jump\t// out\n        /* \"contracts/OrderBook.sol\":1850:1873  uint256 public bidCount */\n    tag_91:\n      sload(0x05)\n      dup2\n      jump\t// out\n        /* \"contracts/OrderBook.sol\":8475:8577  function getBidState (uint256 id) public view returns(State) {... */\n    tag_96:\n        /* \"contracts/OrderBook.sol\":8529:8534  State */\n      0x00\n        /* \"contracts/OrderBook.sol\":8553:8560  bidBook */\n      0x03\n        /* \"contracts/OrderBook.sol\":8553:8564  bidBook[id] */\n      0x00\n        /* \"contracts/OrderBook.sol\":8561:8563  id */\n      dup4\n        /* \"contracts/OrderBook.sol\":8553:8564  bidBook[id] */\n      dup2\n      mstore\n      0x20\n      add\n      swap1\n      dup2\n      mstore\n      0x20\n      add\n      0x00\n      keccak256\n        /* \"contracts/OrderBook.sol\":8553:8570  bidBook[id].state */\n      0x03\n      add\n      0x00\n      swap1\n      sload\n      swap1\n      0x0100\n      exp\n      swap1\n      div\n      0xff\n      and\n        /* \"contracts/OrderBook.sol\":8546:8570  return bidBook[id].state */\n      swap1\n      pop\n        /* \"contracts/OrderBook.sol\":8475:8577  function getBidState (uint256 id) public view returns(State) {... */\n      swap2\n      swap1\n      pop\n      jump\t// out\n        /* \"contracts/OrderBook.sol\":7531:7599  function fetchYourBidIds() public returns (uint256[] memory) {... */\n    tag_100:\n        /* \"contracts/OrderBook.sol\":7574:7590  uint256[] memory */\n      0x60\n        /* \"contracts/OrderBook.sol\":7531:7599  function fetchYourBidIds() public returns (uint256[] memory) {... */\n      swap1\n      jump\t// out\n        /* \"contracts/OrderBook.sol\":7679:8003  function getOrder(uint256 id) public view returns(address payable,uint256,uint256,State,uint256,uint256,uint256,bool) {... */\n    tag_105:\n        /* \"contracts/OrderBook.sol\":7729:7744  address payable */\n      0x00\n        /* \"contracts/OrderBook.sol\":7745:7752  uint256 */\n      dup1\n        /* \"contracts/OrderBook.sol\":7753:7760  uint256 */\n      0x00\n        /* \"contracts/OrderBook.sol\":7761:7766  State */\n      dup1\n        /* \"contracts/OrderBook.sol\":7767:7774  uint256 */\n      0x00\n        /* \"contracts/OrderBook.sol\":7775:7782  uint256 */\n      dup1\n        /* \"contracts/OrderBook.sol\":7783:7790  uint256 */\n      0x00\n        /* \"contracts/OrderBook.sol\":7791:7795  bool */\n      dup1\n        /* \"contracts/OrderBook.sol\":7679:8003  function getOrder(uint256 id) public view returns(address payable,uint256,uint256,State,uint256,uint256,uint256,bool) {... */\n      swap2\n      swap4\n      swap6\n      swap8\n      pop\n      swap2\n      swap4\n      swap6\n      swap8\n      jump\t// out\n        /* \"contracts/OrderBook.sol\":8365:8469  function getAskValue (uint256 id) public view returns(uint256) {... */\n    tag_111:\n        /* \"contracts/OrderBook.sol\":8419:8426  uint256 */\n      0x00\n        /* \"contracts/OrderBook.sol\":8445:8452  askBook */\n      0x06\n        /* \"contracts/OrderBook.sol\":8445:8456  askBook[id] */\n      0x00\n        /* \"contracts/OrderBook.sol\":8453:8455  id */\n      dup4\n        /* \"contracts/OrderBook.sol\":8445:8456  askBook[id] */\n      dup2\n      mstore\n      0x20\n      add\n      swap1\n      dup2\n      mstore\n      0x20\n      add\n      0x00\n      keccak256\n        /* \"contracts/OrderBook.sol\":8445:8462  askBook[id].value */\n      0x01\n      add\n      sload\n        /* \"contracts/OrderBook.sol\":8438:8462  return askBook[id].value */\n      swap1\n      pop\n        /* \"contracts/OrderBook.sol\":8365:8469  function getAskValue (uint256 id) public view returns(uint256) {... */\n      swap2\n      swap1\n      pop\n      jump\t// out\n        /* \"contracts/Strings.sol\":328:1031  function toString(uint256 value) internal pure returns (string memory) {... */\n    tag_142:\n        /* \"contracts/Strings.sol\":384:397  string memory */\n      0x60\n        /* \"contracts/Strings.sol\":610:611  0 */\n      0x00\n        /* \"contracts/Strings.sol\":601:606  value */\n      dup3\n        /* \"contracts/Strings.sol\":601:611  value == 0 */\n      sub\n        /* \"contracts/Strings.sol\":597:648  if (value == 0) {... */\n      tag_193\n      jumpi\n        /* \"contracts/Strings.sol\":627:637  return \"0\" */\n      mload(0x40)\n      dup1\n      0x40\n      add\n      0x40\n      mstore\n      dup1\n      0x01\n      dup2\n      mstore\n      0x20\n      add\n      0x3000000000000000000000000000000000000000000000000000000000000000\n      dup2\n      mstore\n      pop\n      swap1\n      pop\n      jump(tag_192)\n        /* \"contracts/Strings.sol\":597:648  if (value == 0) {... */\n    tag_193:\n        /* \"contracts/Strings.sol\":657:669  uint256 temp */\n      0x00\n        /* \"contracts/Strings.sol\":672:677  value */\n      dup3\n        /* \"contracts/Strings.sol\":657:677  uint256 temp = value */\n      swap1\n      pop\n        /* \"contracts/Strings.sol\":687:701  uint256 digits */\n      0x00\n        /* \"contracts/Strings.sol\":711:786  while (temp != 0) {... */\n    tag_194:\n        /* \"contracts/Strings.sol\":726:727  0 */\n      0x00\n        /* \"contracts/Strings.sol\":718:722  temp */\n      dup3\n        /* \"contracts/Strings.sol\":718:727  temp != 0 */\n      eq\n        /* \"contracts/Strings.sol\":711:786  while (temp != 0) {... */\n      tag_195\n      jumpi\n        /* \"contracts/Strings.sol\":743:751  digits++ */\n      dup1\n      dup1\n      tag_196\n      swap1\n      tag_197\n      jump\t// in\n    tag_196:\n      swap2\n      pop\n      pop\n        /* \"contracts/Strings.sol\":773:775  10 */\n      0x0a\n        /* \"contracts/Strings.sol\":765:775  temp /= 10 */\n      dup3\n      tag_198\n      swap2\n      swap1\n      tag_158\n      jump\t// in\n    tag_198:\n      swap2\n      pop\n        /* \"contracts/Strings.sol\":711:786  while (temp != 0) {... */\n      jump(tag_194)\n    tag_195:\n        /* \"contracts/Strings.sol\":795:814  bytes memory buffer */\n      0x00\n        /* \"contracts/Strings.sol\":827:833  digits */\n      dup2\n        /* \"contracts/Strings.sol\":817:834  new bytes(digits) */\n      0xffffffffffffffff\n      dup2\n      gt\n      iszero\n      tag_199\n      jumpi\n      tag_200\n      tag_201\n      jump\t// in\n    tag_200:\n    tag_199:\n      mload(0x40)\n      swap1\n      dup1\n      dup3\n      mstore\n      dup1\n      0x1f\n      add\n      not(0x1f)\n      and\n      0x20\n      add\n      dup3\n      add\n      0x40\n      mstore\n      dup1\n      iszero\n      tag_202\n      jumpi\n      dup2\n      0x20\n      add\n      0x01\n      dup3\n      mul\n      dup1\n      calldatasize\n      dup4\n      calldatacopy\n      dup1\n      dup3\n      add\n      swap2\n      pop\n      pop\n      swap1\n      pop\n    tag_202:\n      pop\n        /* \"contracts/Strings.sol\":795:834  bytes memory buffer = new bytes(digits) */\n      swap1\n      pop\n        /* \"contracts/Strings.sol\":844:994  while (value != 0) {... */\n    tag_203:\n        /* \"contracts/Strings.sol\":860:861  0 */\n      0x00\n        /* \"contracts/Strings.sol\":851:856  value */\n      dup6\n        /* \"contracts/Strings.sol\":851:861  value != 0 */\n      eq\n        /* \"contracts/Strings.sol\":844:994  while (value != 0) {... */\n      tag_204\n      jumpi\n        /* \"contracts/Strings.sol\":887:888  1 */\n      0x01\n        /* \"contracts/Strings.sol\":877:888  digits -= 1 */\n      dup3\n      tag_205\n      swap2\n      swap1\n      tag_154\n      jump\t// in\n    tag_205:\n      swap2\n      pop\n        /* \"contracts/Strings.sol\":953:955  10 */\n      0x0a\n        /* \"contracts/Strings.sol\":945:950  value */\n      dup6\n        /* \"contracts/Strings.sol\":945:955  value % 10 */\n      tag_206\n      swap2\n      swap1\n      tag_207\n      jump\t// in\n    tag_206:\n        /* \"contracts/Strings.sol\":932:934  48 */\n      0x30\n        /* \"contracts/Strings.sol\":932:956  48 + uint256(value % 10) */\n      tag_208\n      swap2\n      swap1\n      tag_209\n      jump\t// in\n    tag_208:\n        /* \"contracts/Strings.sol\":919:958  bytes1(uint8(48 + uint256(value % 10))) */\n      0xf8\n      shl\n        /* \"contracts/Strings.sol\":902:908  buffer */\n      dup2\n        /* \"contracts/Strings.sol\":909:915  digits */\n      dup4\n        /* \"contracts/Strings.sol\":902:916  buffer[digits] */\n      dup2\n      mload\n      dup2\n      lt\n      tag_210\n      jumpi\n      tag_211\n      tag_212\n      jump\t// in\n    tag_211:\n    tag_210:\n      0x20\n      add\n      add\n        /* \"contracts/Strings.sol\":902:958  buffer[digits] = bytes1(uint8(48 + uint256(value % 10))) */\n      swap1\n      not(0xffffffffffffffffffffffffffffffffffffffffffffffffffffffffffffff)\n      and\n      swap1\n      dup2\n      0x00\n      byte\n      swap1\n      mstore8\n      pop\n        /* \"contracts/Strings.sol\":981:983  10 */\n      0x0a\n        /* \"contracts/Strings.sol\":972:983  value /= 10 */\n      dup6\n      tag_213\n      swap2\n      swap1\n      tag_158\n      jump\t// in\n    tag_213:\n      swap5\n      pop\n        /* \"contracts/Strings.sol\":844:994  while (value != 0) {... */\n      jump(tag_203)\n    tag_204:\n        /* \"contracts/Strings.sol\":1017:1023  buffer */\n      dup1\n        /* \"contracts/Strings.sol\":1003:1024  return string(buffer) */\n      swap4\n      pop\n      pop\n      pop\n      pop\n        /* \"contracts/Strings.sol\":328:1031  function toString(uint256 value) internal pure returns (string memory) {... */\n    tag_192:\n      swap2\n      swap1\n      pop\n      jump\t// out\n        /* \"contracts/OrderBook.sol\":3277:3755  function createAsk(address customer, uint256 value, uint256 timestamp) internal returns (order memory) {... */\n    tag_160:\n        /* \"contracts/OrderBook.sol\":3366:3378  order memory */\n      tag_214\n      tag_215\n      jump\t// in\n    tag_214:\n        /* \"contracts/OrderBook.sol\":3390:3398  askCount */\n      0x08\n      0x00\n        /* \"contracts/OrderBook.sol\":3390:3401  askCount ++ */\n      dup2\n      sload\n      dup1\n      swap3\n      swap2\n      swap1\n      tag_217\n      swap1\n      tag_197\n      jump\t// in\n    tag_217:\n      swap2\n      swap1\n      pop\n      sstore\n      pop\n        /* \"contracts/OrderBook.sol\":3411:3430  order memory newAsk */\n      0x00\n        /* \"contracts/OrderBook.sol\":3433:3600  order(... */\n      mload(0x40)\n      dup1\n      0xe0\n      add\n      0x40\n      mstore\n      dup1\n        /* \"contracts/OrderBook.sol\":3460:3468  customer */\n      dup7\n        /* \"contracts/OrderBook.sol\":3433:3600  order(... */\n      0xffffffffffffffffffffffffffffffffffffffff\n      and\n      dup2\n      mstore\n      0x20\n      add\n        /* \"contracts/OrderBook.sol\":3483:3488  value */\n      dup6\n        /* \"contracts/OrderBook.sol\":3433:3600  order(... */\n      dup2\n      mstore\n      0x20\n      add\n        /* \"contracts/OrderBook.sol\":3502:3511  timestamp */\n      dup5\n        /* \"contracts/OrderBook.sol\":3433:3600  order(... */\n      dup2\n      mstore\n      0x20\n      add\n        /* \"contracts/OrderBook.sol\":3525:3538  State.pending */\n      0x00\n        /* \"contracts/OrderBook.sol\":3433:3600  order(... */\n      0x01\n      dup2\n      gt\n      iszero\n      tag_218\n      jumpi\n      tag_219\n      tag_116\n      jump\t// in\n    tag_219:\n    tag_218:\n      dup2\n      mstore\n      0x20\n      add\n        /* \"contracts/OrderBook.sol\":3552:3560  askCount */\n      sload(0x08)\n        /* \"contracts/OrderBook.sol\":3433:3600  order(... */\n      dup2\n      mstore\n      0x20\n      add\n        /* \"contracts/OrderBook.sol\":3574:3575  0 */\n      0x00\n        /* \"contracts/OrderBook.sol\":3433:3600  order(... */\n      dup2\n      mstore\n      0x20\n      add\n        /* \"contracts/OrderBook.sol\":3589:3590  0 */\n      0x00\n        /* \"contracts/OrderBook.sol\":3433:3600  order(... */\n      dup2\n      mstore\n      pop\n        /* \"contracts/OrderBook.sol\":3411:3600  order memory newAsk = order(... */\n      swap1\n      pop\n        /* \"contracts/OrderBook.sol\":3630:3636  newAsk */\n      dup1\n        /* \"contracts/OrderBook.sol\":3610:3617  askBook */\n      0x06\n        /* \"contracts/OrderBook.sol\":3610:3627  askBook[askCount] */\n      0x00\n        /* \"contracts/OrderBook.sol\":3618:3626  askCount */\n      sload(0x08)\n        /* \"contracts/OrderBook.sol\":3610:3627  askBook[askCount] */\n      dup2\n      mstore\n      0x20\n      add\n      swap1\n      dup2\n      mstore\n      0x20\n      add\n      0x00\n      keccak256\n        /* \"contracts/OrderBook.sol\":3610:3636  askBook[askCount] = newAsk */\n      0x00\n      dup3\n      add\n      mload\n      dup2\n      0x00\n      add\n      exp(0x0100, 0x00)\n      dup2\n      sload\n      dup2\n      0xffffffffffffffffffffffffffffffffffffffff\n      mul\n      not\n      and\n      swap1\n      dup4\n      0xffffffffffffffffffffffffffffffffffffffff\n      and\n      mul\n      or\n      swap1\n      sstore\n      pop\n      0x20\n      dup3\n      add\n      mload\n      dup2\n      0x01\n      add\n      sstore\n      0x40\n      dup3\n      add\n      mload\n      dup2\n      0x02\n      add\n      sstore\n      0x60\n      dup3\n      add\n      mload\n      dup2\n      0x03\n      add\n      exp(0x0100, 0x00)\n      dup2\n      sload\n      dup2\n      0xff\n      mul\n      not\n      and\n      swap1\n      dup4\n      0x01\n      dup2\n      gt\n      iszero\n      tag_220\n      jumpi\n      tag_221\n      tag_116\n      jump\t// in\n    tag_221:\n    tag_220:\n      mul\n      or\n      swap1\n      sstore\n      pop\n      0x80\n      dup3\n      add\n      mload\n      dup2\n      0x04\n      add\n      sstore\n      0xa0\n      dup3\n      add\n      mload\n      dup2\n      0x05\n      add\n      sstore\n      0xc0\n      dup3\n      add\n      mload\n      dup2\n      0x06\n      add\n      sstore\n      swap1\n      pop\n      pop\n        /* \"contracts/OrderBook.sol\":3651:3722  orderCreated(customer,value,timestamp,State.pending,askCount,0,0,false) */\n      0x93caf6ba1af44020dfe6076e279533e38bd8deefe534c43aa8cc93aad2025b7d\n        /* \"contracts/OrderBook.sol\":3664:3672  customer */\n      dup6\n        /* \"contracts/OrderBook.sol\":3673:3678  value */\n      dup6\n        /* \"contracts/OrderBook.sol\":3679:3688  timestamp */\n      dup6\n        /* \"contracts/OrderBook.sol\":3689:3702  State.pending */\n      0x00\n        /* \"contracts/OrderBook.sol\":3703:3711  askCount */\n      sload(0x08)\n        /* \"contracts/OrderBook.sol\":3712:3713  0 */\n      0x00\n        /* \"contracts/OrderBook.sol\":3714:3715  0 */\n      dup1\n        /* \"contracts/OrderBook.sol\":3716:3721  false */\n      0x00\n        /* \"contracts/OrderBook.sol\":3651:3722  orderCreated(customer,value,timestamp,State.pending,askCount,0,0,false) */\n      mload(0x40)\n      tag_222\n      swap9\n      swap8\n      swap7\n      swap6\n      swap5\n      swap4\n      swap3\n      swap2\n      swap1\n      tag_223\n      jump\t// in\n    tag_222:\n      mload(0x40)\n      dup1\n      swap2\n      sub\n      swap1\n      log1\n        /* \"contracts/OrderBook.sol\":3742:3748  newAsk */\n      dup1\n        /* \"contracts/OrderBook.sol\":3735:3748  return newAsk */\n      swap2\n      pop\n      pop\n        /* \"contracts/OrderBook.sol\":3277:3755  function createAsk(address customer, uint256 value, uint256 timestamp) internal returns (order memory) {... */\n      swap4\n      swap3\n      pop\n      pop\n      pop\n      jump\t// out\n        /* \"contracts/OrderBook.sol\":4358:5191  function sortAsk(order memory newOrder) internal {... */\n    tag_162:\n        /* \"contracts/OrderBook.sol\":4417:4432  uint256 current */\n      0x00\n        /* \"contracts/OrderBook.sol\":4457:4458  0 */\n      dup1\n        /* \"contracts/OrderBook.sol\":4446:4453  askHead */\n      sload(0x07)\n        /* \"contracts/OrderBook.sol\":4446:4458  askHead == 0 */\n      sub\n        /* \"contracts/OrderBook.sol\":4442:5185  if (askHead == 0) {... */\n      tag_225\n      jumpi\n        /* \"contracts/OrderBook.sol\":4484:4492  newOrder */\n      dup2\n        /* \"contracts/OrderBook.sol\":4484:4495  newOrder.id */\n      0x80\n      add\n      mload\n        /* \"contracts/OrderBook.sol\":4474:4481  askHead */\n      0x07\n        /* \"contracts/OrderBook.sol\":4474:4495  askHead = newOrder.id */\n      dup2\n      swap1\n      sstore\n      pop\n        /* \"contracts/OrderBook.sol\":4442:5185  if (askHead == 0) {... */\n      jump(tag_226)\n    tag_225:\n        /* \"contracts/OrderBook.sol\":4550:4558  newOrder */\n      dup2\n        /* \"contracts/OrderBook.sol\":4550:4564  newOrder.value */\n      0x20\n      add\n      mload\n        /* \"contracts/OrderBook.sol\":4524:4531  askBook */\n      0x06\n        /* \"contracts/OrderBook.sol\":4524:4540  askBook[askHead] */\n      0x00\n        /* \"contracts/OrderBook.sol\":4532:4539  askHead */\n      sload(0x07)\n        /* \"contracts/OrderBook.sol\":4524:4540  askBook[askHead] */\n      dup2\n      mstore\n      0x20\n      add\n      swap1\n      dup2\n      mstore\n      0x20\n      add\n      0x00\n      keccak256\n        /* \"contracts/OrderBook.sol\":4524:4546  askBook[askHead].value */\n      0x01\n      add\n      sload\n        /* \"contracts/OrderBook.sol\":4524:4564  askBook[askHead].value >= newOrder.value */\n      lt\n        /* \"contracts/OrderBook.sol\":4520:5185  if (askBook[askHead].value >= newOrder.value) {... */\n      tag_227\n      jumpi\n        /* \"contracts/OrderBook.sol\":4596:4603  askHead */\n      sload(0x07)\n        /* \"contracts/OrderBook.sol\":4580:4588  newOrder */\n      dup3\n        /* \"contracts/OrderBook.sol\":4580:4593  newOrder.next */\n      0xa0\n      add\n        /* \"contracts/OrderBook.sol\":4580:4603  newOrder.next = askHead */\n      dup2\n      dup2\n      mstore\n      pop\n      pop\n        /* \"contracts/OrderBook.sol\":4647:4655  newOrder */\n      dup2\n        /* \"contracts/OrderBook.sol\":4647:4658  newOrder.id */\n      0x80\n      add\n      mload\n        /* \"contracts/OrderBook.sol\":4617:4624  askBook */\n      0x06\n        /* \"contracts/OrderBook.sol\":4617:4639  askBook[newOrder.next] */\n      0x00\n        /* \"contracts/OrderBook.sol\":4625:4633  newOrder */\n      dup5\n        /* \"contracts/OrderBook.sol\":4625:4638  newOrder.next */\n      0xa0\n      add\n      mload\n        /* \"contracts/OrderBook.sol\":4617:4639  askBook[newOrder.next] */\n      dup2\n      mstore\n      0x20\n      add\n      swap1\n      dup2\n      mstore\n      0x20\n      add\n      0x00\n      keccak256\n        /* \"contracts/OrderBook.sol\":4617:4644  askBook[newOrder.next].prev */\n      0x06\n      add\n        /* \"contracts/OrderBook.sol\":4617:4658  askBook[newOrder.next].prev = newOrder.id */\n      dup2\n      swap1\n      sstore\n      pop\n        /* \"contracts/OrderBook.sol\":4682:4690  newOrder */\n      dup2\n        /* \"contracts/OrderBook.sol\":4682:4693  newOrder.id */\n      0x80\n      add\n      mload\n        /* \"contracts/OrderBook.sol\":4672:4679  askHead */\n      0x07\n        /* \"contracts/OrderBook.sol\":4672:4693  askHead = newOrder.id */\n      dup2\n      swap1\n      sstore\n      pop\n        /* \"contracts/OrderBook.sol\":4520:5185  if (askBook[askHead].value >= newOrder.value) {... */\n      jump(tag_228)\n    tag_227:\n        /* \"contracts/OrderBook.sol\":4742:4749  askHead */\n      sload(0x07)\n        /* \"contracts/OrderBook.sol\":4732:4749  current = askHead */\n      swap1\n      pop\n        /* \"contracts/OrderBook.sol\":4763:4919  while (askBook[current].next != 0 && askBook[askBook[current].next].value < newOrder.value) {... */\n    tag_229:\n        /* \"contracts/OrderBook.sol\":4795:4796  0 */\n      0x00\n        /* \"contracts/OrderBook.sol\":4770:4777  askBook */\n      0x06\n        /* \"contracts/OrderBook.sol\":4770:4786  askBook[current] */\n      0x00\n        /* \"contracts/OrderBook.sol\":4778:4785  current */\n      dup4\n        /* \"contracts/OrderBook.sol\":4770:4786  askBook[current] */\n      dup2\n      mstore\n      0x20\n      add\n      swap1\n      dup2\n      mstore\n      0x20\n      add\n      0x00\n      keccak256\n        /* \"contracts/OrderBook.sol\":4770:4791  askBook[current].next */\n      0x05\n      add\n      sload\n        /* \"contracts/OrderBook.sol\":4770:4796  askBook[current].next != 0 */\n      eq\n      iszero\n        /* \"contracts/OrderBook.sol\":4770:4853  askBook[current].next != 0 && askBook[askBook[current].next].value < newOrder.value */\n      dup1\n      iszero\n      tag_231\n      jumpi\n      pop\n        /* \"contracts/OrderBook.sol\":4839:4847  newOrder */\n      dup2\n        /* \"contracts/OrderBook.sol\":4839:4853  newOrder.value */\n      0x20\n      add\n      mload\n        /* \"contracts/OrderBook.sol\":4800:4807  askBook */\n      0x06\n        /* \"contracts/OrderBook.sol\":4800:4830  askBook[askBook[current].next] */\n      0x00\n        /* \"contracts/OrderBook.sol\":4808:4815  askBook */\n      0x06\n        /* \"contracts/OrderBook.sol\":4808:4824  askBook[current] */\n      0x00\n        /* \"contracts/OrderBook.sol\":4816:4823  current */\n      dup6\n        /* \"contracts/OrderBook.sol\":4808:4824  askBook[current] */\n      dup2\n      mstore\n      0x20\n      add\n      swap1\n      dup2\n      mstore\n      0x20\n      add\n      0x00\n      keccak256\n        /* \"contracts/OrderBook.sol\":4808:4829  askBook[current].next */\n      0x05\n      add\n      sload\n        /* \"contracts/OrderBook.sol\":4800:4830  askBook[askBook[current].next] */\n      dup2\n      mstore\n      0x20\n      add\n      swap1\n      dup2\n      mstore\n      0x20\n      add\n      0x00\n      keccak256\n        /* \"contracts/OrderBook.sol\":4800:4836  askBook[askBook[current].next].value */\n      0x01\n      add\n      sload\n        /* \"contracts/OrderBook.sol\":4800:4853  askBook[askBook[current].next].value < newOrder.value */\n      lt\n        /* \"contracts/OrderBook.sol\":4770:4853  askBook[current].next != 0 && askBook[askBook[current].next].value < newOrder.value */\n    tag_231:\n        /* \"contracts/OrderBook.sol\":4763:4919  while (askBook[current].next != 0 && askBook[askBook[current].next].value < newOrder.value) {... */\n      iszero\n      tag_230\n      jumpi\n        /* \"contracts/OrderBook.sol\":4883:4890  askBook */\n      0x06\n        /* \"contracts/OrderBook.sol\":4883:4899  askBook[current] */\n      0x00\n        /* \"contracts/OrderBook.sol\":4891:4898  current */\n      dup3\n        /* \"contracts/OrderBook.sol\":4883:4899  askBook[current] */\n      dup2\n      mstore\n      0x20\n      add\n      swap1\n      dup2\n      mstore\n      0x20\n      add\n      0x00\n      keccak256\n        /* \"contracts/OrderBook.sol\":4883:4904  askBook[current].next */\n      0x05\n      add\n      sload\n        /* \"contracts/OrderBook.sol\":4873:4904  current = askBook[current].next */\n      swap1\n      pop\n        /* \"contracts/OrderBook.sol\":4763:4919  while (askBook[current].next != 0 && askBook[askBook[current].next].value < newOrder.value) {... */\n      jump(tag_229)\n    tag_230:\n        /* \"contracts/OrderBook.sol\":4948:4955  askBook */\n      0x06\n        /* \"contracts/OrderBook.sol\":4948:4964  askBook[current] */\n      0x00\n        /* \"contracts/OrderBook.sol\":4956:4963  current */\n      dup3\n        /* \"contracts/OrderBook.sol\":4948:4964  askBook[current] */\n      dup2\n      mstore\n      0x20\n      add\n      swap1\n      dup2\n      mstore\n      0x20\n      add\n      0x00\n      keccak256\n        /* \"contracts/OrderBook.sol\":4948:4969  askBook[current].next */\n      0x05\n      add\n      sload\n        /* \"contracts/OrderBook.sol\":4932:4940  newOrder */\n      dup3\n        /* \"contracts/OrderBook.sol\":4932:4945  newOrder.next */\n      0xa0\n      add\n        /* \"contracts/OrderBook.sol\":4932:4969  newOrder.next = askBook[current].next */\n      dup2\n      dup2\n      mstore\n      pop\n      pop\n        /* \"contracts/OrderBook.sol\":5012:5013  0 */\n      0x00\n        /* \"contracts/OrderBook.sol\":4987:4994  askBook */\n      0x06\n        /* \"contracts/OrderBook.sol\":4987:5003  askBook[current] */\n      0x00\n        /* \"contracts/OrderBook.sol\":4995:5002  current */\n      dup4\n        /* \"contracts/OrderBook.sol\":4987:5003  askBook[current] */\n      dup2\n      mstore\n      0x20\n      add\n      swap1\n      dup2\n      mstore\n      0x20\n      add\n      0x00\n      keccak256\n        /* \"contracts/OrderBook.sol\":4987:5008  askBook[current].next */\n      0x05\n      add\n      sload\n        /* \"contracts/OrderBook.sol\":4987:5013  askBook[current].next != 0 */\n      eq\n        /* \"contracts/OrderBook.sol\":4983:5089  if (askBook[current].next != 0) {... */\n      tag_232\n      jumpi\n        /* \"contracts/OrderBook.sol\":5063:5071  newOrder */\n      dup2\n        /* \"contracts/OrderBook.sol\":5063:5074  newOrder.id */\n      0x80\n      add\n      mload\n        /* \"contracts/OrderBook.sol\":5033:5040  askBook */\n      0x06\n        /* \"contracts/OrderBook.sol\":5033:5055  askBook[newOrder.next] */\n      0x00\n        /* \"contracts/OrderBook.sol\":5041:5049  newOrder */\n      dup5\n        /* \"contracts/OrderBook.sol\":5041:5054  newOrder.next */\n      0xa0\n      add\n      mload\n        /* \"contracts/OrderBook.sol\":5033:5055  askBook[newOrder.next] */\n      dup2\n      mstore\n      0x20\n      add\n      swap1\n      dup2\n      mstore\n      0x20\n      add\n      0x00\n      keccak256\n        /* \"contracts/OrderBook.sol\":5033:5060  askBook[newOrder.next].prev */\n      0x06\n      add\n        /* \"contracts/OrderBook.sol\":5033:5074  askBook[newOrder.next].prev = newOrder.id */\n      dup2\n      swap1\n      sstore\n      pop\n        /* \"contracts/OrderBook.sol\":4983:5089  if (askBook[current].next != 0) {... */\n    tag_232:\n        /* \"contracts/OrderBook.sol\":5126:5134  newOrder */\n      dup2\n        /* \"contracts/OrderBook.sol\":5126:5137  newOrder.id */\n      0x80\n      add\n      mload\n        /* \"contracts/OrderBook.sol\":5102:5109  askBook */\n      0x06\n        /* \"contracts/OrderBook.sol\":5102:5118  askBook[current] */\n      0x00\n        /* \"contracts/OrderBook.sol\":5110:5117  current */\n      dup4\n        /* \"contracts/OrderBook.sol\":5102:5118  askBook[current] */\n      dup2\n      mstore\n      0x20\n      add\n      swap1\n      dup2\n      mstore\n      0x20\n      add\n      0x00\n      keccak256\n        /* \"contracts/OrderBook.sol\":5102:5123  askBook[current].next */\n      0x05\n      add\n        /* \"contracts/OrderBook.sol\":5102:5137  askBook[current].next = newOrder.id */\n      dup2\n      swap1\n      sstore\n      pop\n        /* \"contracts/OrderBook.sol\":5167:5174  current */\n      dup1\n        /* \"contracts/OrderBook.sol\":5151:5159  newOrder */\n      dup3\n        /* \"contracts/OrderBook.sol\":5151:5164  newOrder.prev */\n      0xc0\n      add\n        /* \"contracts/OrderBook.sol\":5151:5174  newOrder.prev = current */\n      dup2\n      dup2\n      mstore\n      pop\n      pop\n        /* \"contracts/OrderBook.sol\":4520:5185  if (askBook[askHead].value >= newOrder.value) {... */\n    tag_228:\n        /* \"contracts/OrderBook.sol\":4442:5185  if (askHead == 0) {... */\n    tag_226:\n        /* \"contracts/OrderBook.sol\":4407:5191  {... */\n      pop\n        /* \"contracts/OrderBook.sol\":4358:5191  function sortAsk(order memory newOrder) internal {... */\n      pop\n      jump\t// out\n    tag_215:\n      mload(0x40)\n      dup1\n      0xe0\n      add\n      0x40\n      mstore\n      dup1\n      and(0xffffffffffffffffffffffffffffffffffffffff, 0x00)\n      dup2\n      mstore\n      0x20\n      add\n      0x00\n      dup2\n      mstore\n      0x20\n      add\n      0x00\n      dup2\n      mstore\n      0x20\n      add\n      0x00\n      0x01\n      dup2\n      gt\n      iszero\n      tag_233\n      jumpi\n      tag_234\n      tag_116\n      jump\t// in\n    tag_234:\n    tag_233:\n      dup2\n      mstore\n      0x20\n      add\n      0x00\n      dup2\n      mstore\n      0x20\n      add\n      0x00\n      dup2\n      mstore\n      0x20\n      add\n      0x00\n      dup2\n      mstore\n      pop\n      swap1\n      jump\t// out\n        /* \"#utility.yul\":7:121   */\n    tag_235:\n        /* \"#utility.yul\":74:80   */\n      0x00\n        /* \"#utility.yul\":108:113   */\n      dup2\n        /* \"#utility.yul\":102:114   */\n      mload\n        /* \"#utility.yul\":92:114   */\n      swap1\n      pop\n        /* \"#utility.yul\":7:121   */\n      swap2\n      swap1\n      pop\n      jump\t// out\n        /* \"#utility.yul\":127:311   */\n    tag_236:\n        /* \"#utility.yul\":226:237   */\n      0x00\n        /* \"#utility.yul\":260:266   */\n      dup3\n        /* \"#utility.yul\":255:258   */\n      dup3\n        /* \"#utility.yul\":248:267   */\n      mstore\n        /* \"#utility.yul\":300:304   */\n      0x20\n        /* \"#utility.yul\":295:298   */\n      dup3\n        /* \"#utility.yul\":291:305   */\n      add\n        /* \"#utility.yul\":276:305   */\n      swap1\n      pop\n        /* \"#utility.yul\":127:311   */\n      swap3\n      swap2\n      pop\n      pop\n      jump\t// out\n        /* \"#utility.yul\":317:449   */\n    tag_237:\n        /* \"#utility.yul\":384:388   */\n      0x00\n        /* \"#utility.yul\":407:410   */\n      dup2\n        /* \"#utility.yul\":399:410   */\n      swap1\n      pop\n        /* \"#utility.yul\":437:441   */\n      0x20\n        /* \"#utility.yul\":432:435   */\n      dup3\n        /* \"#utility.yul\":428:442   */\n      add\n        /* \"#utility.yul\":420:442   */\n      swap1\n      pop\n        /* \"#utility.yul\":317:449   */\n      swap2\n      swap1\n      pop\n      jump\t// out\n        /* \"#utility.yul\":455:532   */\n    tag_238:\n        /* \"#utility.yul\":492:499   */\n      0x00\n        /* \"#utility.yul\":521:526   */\n      dup2\n        /* \"#utility.yul\":510:526   */\n      swap1\n      pop\n        /* \"#utility.yul\":455:532   */\n      swap2\n      swap1\n      pop\n      jump\t// out\n        /* \"#utility.yul\":538:646   */\n    tag_239:\n        /* \"#utility.yul\":615:639   */\n      tag_296\n        /* \"#utility.yul\":633:638   */\n      dup2\n        /* \"#utility.yul\":615:639   */\n      tag_238\n      jump\t// in\n    tag_296:\n        /* \"#utility.yul\":610:613   */\n      dup3\n        /* \"#utility.yul\":603:640   */\n      mstore\n        /* \"#utility.yul\":538:646   */\n      pop\n      pop\n      jump\t// out\n        /* \"#utility.yul\":652:831   */\n    tag_240:\n        /* \"#utility.yul\":721:731   */\n      0x00\n        /* \"#utility.yul\":742:788   */\n      tag_298\n        /* \"#utility.yul\":784:787   */\n      dup4\n        /* \"#utility.yul\":776:782   */\n      dup4\n        /* \"#utility.yul\":742:788   */\n      tag_239\n      jump\t// in\n    tag_298:\n        /* \"#utility.yul\":820:824   */\n      0x20\n        /* \"#utility.yul\":815:818   */\n      dup4\n        /* \"#utility.yul\":811:825   */\n      add\n        /* \"#utility.yul\":797:825   */\n      swap1\n      pop\n        /* \"#utility.yul\":652:831   */\n      swap3\n      swap2\n      pop\n      pop\n      jump\t// out\n        /* \"#utility.yul\":837:950   */\n    tag_241:\n        /* \"#utility.yul\":907:911   */\n      0x00\n        /* \"#utility.yul\":939:943   */\n      0x20\n        /* \"#utility.yul\":934:937   */\n      dup3\n        /* \"#utility.yul\":930:944   */\n      add\n        /* \"#utility.yul\":922:944   */\n      swap1\n      pop\n        /* \"#utility.yul\":837:950   */\n      swap2\n      swap1\n      pop\n      jump\t// out\n        /* \"#utility.yul\":986:1718   */\n    tag_242:\n        /* \"#utility.yul\":1105:1108   */\n      0x00\n        /* \"#utility.yul\":1134:1188   */\n      tag_301\n        /* \"#utility.yul\":1182:1187   */\n      dup3\n        /* \"#utility.yul\":1134:1188   */\n      tag_235\n      jump\t// in\n    tag_301:\n        /* \"#utility.yul\":1204:1290   */\n      tag_302\n        /* \"#utility.yul\":1283:1289   */\n      dup2\n        /* \"#utility.yul\":1278:1281   */\n      dup6\n        /* \"#utility.yul\":1204:1290   */\n      tag_236\n      jump\t// in\n    tag_302:\n        /* \"#utility.yul\":1197:1290   */\n      swap4\n      pop\n        /* \"#utility.yul\":1314:1370   */\n      tag_303\n        /* \"#utility.yul\":1364:1369   */\n      dup4\n        /* \"#utility.yul\":1314:1370   */\n      tag_237\n      jump\t// in\n    tag_303:\n        /* \"#utility.yul\":1393:1400   */\n      dup1\n        /* \"#utility.yul\":1424:1425   */\n      0x00\n        /* \"#utility.yul\":1409:1693   */\n    tag_304:\n        /* \"#utility.yul\":1434:1440   */\n      dup4\n        /* \"#utility.yul\":1431:1432   */\n      dup2\n        /* \"#utility.yul\":1428:1441   */\n      lt\n        /* \"#utility.yul\":1409:1693   */\n      iszero\n      tag_306\n      jumpi\n        /* \"#utility.yul\":1510:1516   */\n      dup2\n        /* \"#utility.yul\":1504:1517   */\n      mload\n        /* \"#utility.yul\":1537:1600   */\n      tag_307\n        /* \"#utility.yul\":1596:1599   */\n      dup9\n        /* \"#utility.yul\":1581:1594   */\n      dup3\n        /* \"#utility.yul\":1537:1600   */\n      tag_240\n      jump\t// in\n    tag_307:\n        /* \"#utility.yul\":1530:1600   */\n      swap8\n      pop\n        /* \"#utility.yul\":1623:1683   */\n      tag_308\n        /* \"#utility.yul\":1676:1682   */\n      dup4\n        /* \"#utility.yul\":1623:1683   */\n      tag_241\n      jump\t// in\n    tag_308:\n        /* \"#utility.yul\":1613:1683   */\n      swap3\n      pop\n        /* \"#utility.yul\":1469:1693   */\n      pop\n        /* \"#utility.yul\":1456:1457   */\n      0x01\n        /* \"#utility.yul\":1453:1454   */\n      dup2\n        /* \"#utility.yul\":1449:1458   */\n      add\n        /* \"#utility.yul\":1444:1458   */\n      swap1\n      pop\n        /* \"#utility.yul\":1409:1693   */\n      jump(tag_304)\n    tag_306:\n        /* \"#utility.yul\":1413:1427   */\n      pop\n        /* \"#utility.yul\":1709:1712   */\n      dup6\n        /* \"#utility.yul\":1702:1712   */\n      swap4\n      pop\n        /* \"#utility.yul\":1110:1718   */\n      pop\n      pop\n      pop\n        /* \"#utility.yul\":986:1718   */\n      swap3\n      swap2\n      pop\n      pop\n      jump\t// out\n        /* \"#utility.yul\":1724:2097   */\n    tag_28:\n        /* \"#utility.yul\":1867:1871   */\n      0x00\n        /* \"#utility.yul\":1905:1907   */\n      0x20\n        /* \"#utility.yul\":1894:1903   */\n      dup3\n        /* \"#utility.yul\":1890:1908   */\n      add\n        /* \"#utility.yul\":1882:1908   */\n      swap1\n      pop\n        /* \"#utility.yul\":1954:1963   */\n      dup2\n        /* \"#utility.yul\":1948:1952   */\n      dup2\n        /* \"#utility.yul\":1944:1964   */\n      sub\n        /* \"#utility.yul\":1940:1941   */\n      0x00\n        /* \"#utility.yul\":1929:1938   */\n      dup4\n        /* \"#utility.yul\":1925:1942   */\n      add\n        /* \"#utility.yul\":1918:1965   */\n      mstore\n        /* \"#utility.yul\":1982:2090   */\n      tag_310\n        /* \"#utility.yul\":2085:2089   */\n      dup2\n        /* \"#utility.yul\":2076:2082   */\n      dup5\n        /* \"#utility.yul\":1982:2090   */\n      tag_242\n      jump\t// in\n    tag_310:\n        /* \"#utility.yul\":1974:2090   */\n      swap1\n      pop\n        /* \"#utility.yul\":1724:2097   */\n      swap3\n      swap2\n      pop\n      pop\n      jump\t// out\n        /* \"#utility.yul\":2184:2301   */\n    tag_244:\n        /* \"#utility.yul\":2293:2294   */\n      0x00\n        /* \"#utility.yul\":2290:2291   */\n      dup1\n        /* \"#utility.yul\":2283:2295   */\n      revert\n        /* \"#utility.yul\":2430:2552   */\n    tag_246:\n        /* \"#utility.yul\":2503:2527   */\n      tag_315\n        /* \"#utility.yul\":2521:2526   */\n      dup2\n        /* \"#utility.yul\":2503:2527   */\n      tag_238\n      jump\t// in\n    tag_315:\n        /* \"#utility.yul\":2496:2501   */\n      dup2\n        /* \"#utility.yul\":2493:2528   */\n      eq\n        /* \"#utility.yul\":2483:2546   */\n      tag_316\n      jumpi\n        /* \"#utility.yul\":2542:2543   */\n      0x00\n        /* \"#utility.yul\":2539:2540   */\n      dup1\n        /* \"#utility.yul\":2532:2544   */\n      revert\n        /* \"#utility.yul\":2483:2546   */\n    tag_316:\n        /* \"#utility.yul\":2430:2552   */\n      pop\n      jump\t// out\n        /* \"#utility.yul\":2558:2697   */\n    tag_247:\n        /* \"#utility.yul\":2604:2609   */\n      0x00\n        /* \"#utility.yul\":2642:2648   */\n      dup2\n        /* \"#utility.yul\":2629:2649   */\n      calldataload\n        /* \"#utility.yul\":2620:2649   */\n      swap1\n      pop\n        /* \"#utility.yul\":2658:2691   */\n      tag_318\n        /* \"#utility.yul\":2685:2690   */\n      dup2\n        /* \"#utility.yul\":2658:2691   */\n      tag_246\n      jump\t// in\n    tag_318:\n        /* \"#utility.yul\":2558:2697   */\n      swap3\n      swap2\n      pop\n      pop\n      jump\t// out\n        /* \"#utility.yul\":2703:3032   */\n    tag_32:\n        /* \"#utility.yul\":2762:2768   */\n      0x00\n        /* \"#utility.yul\":2811:2813   */\n      0x20\n        /* \"#utility.yul\":2799:2808   */\n      dup3\n        /* \"#utility.yul\":2790:2797   */\n      dup5\n        /* \"#utility.yul\":2786:2809   */\n      sub\n        /* \"#utility.yul\":2782:2814   */\n      slt\n        /* \"#utility.yul\":2779:2898   */\n      iszero\n      tag_320\n      jumpi\n        /* \"#utility.yul\":2817:2896   */\n      tag_321\n      tag_244\n      jump\t// in\n    tag_321:\n        /* \"#utility.yul\":2779:2898   */\n    tag_320:\n        /* \"#utility.yul\":2937:2938   */\n      0x00\n        /* \"#utility.yul\":2962:3015   */\n      tag_322\n        /* \"#utility.yul\":3007:3014   */\n      dup5\n        /* \"#utility.yul\":2998:3004   */\n      dup3\n        /* \"#utility.yul\":2987:2996   */\n      dup6\n        /* \"#utility.yul\":2983:3005   */\n      add\n        /* \"#utility.yul\":2962:3015   */\n      tag_247\n      jump\t// in\n    tag_322:\n        /* \"#utility.yul\":2952:3015   */\n      swap2\n      pop\n        /* \"#utility.yul\":2908:3025   */\n      pop\n        /* \"#utility.yul\":2703:3032   */\n      swap3\n      swap2\n      pop\n      pop\n      jump\t// out\n        /* \"#utility.yul\":3038:3156   */\n    tag_248:\n        /* \"#utility.yul\":3125:3149   */\n      tag_324\n        /* \"#utility.yul\":3143:3148   */\n      dup2\n        /* \"#utility.yul\":3125:3149   */\n      tag_238\n      jump\t// in\n    tag_324:\n        /* \"#utility.yul\":3120:3123   */\n      dup3\n        /* \"#utility.yul\":3113:3150   */\n      mstore\n        /* \"#utility.yul\":3038:3156   */\n      pop\n      pop\n      jump\t// out\n        /* \"#utility.yul\":3162:3384   */\n    tag_39:\n        /* \"#utility.yul\":3255:3259   */\n      0x00\n        /* \"#utility.yul\":3293:3295   */\n      0x20\n        /* \"#utility.yul\":3282:3291   */\n      dup3\n        /* \"#utility.yul\":3278:3296   */\n      add\n        /* \"#utility.yul\":3270:3296   */\n      swap1\n      pop\n        /* \"#utility.yul\":3306:3377   */\n      tag_326\n        /* \"#utility.yul\":3374:3375   */\n      0x00\n        /* \"#utility.yul\":3363:3372   */\n      dup4\n        /* \"#utility.yul\":3359:3376   */\n      add\n        /* \"#utility.yul\":3350:3356   */\n      dup5\n        /* \"#utility.yul\":3306:3377   */\n      tag_248\n      jump\t// in\n    tag_326:\n        /* \"#utility.yul\":3162:3384   */\n      swap3\n      swap2\n      pop\n      pop\n      jump\t// out\n        /* \"#utility.yul\":3390:3525   */\n    tag_249:\n        /* \"#utility.yul\":3478:3484   */\n      0x00\n        /* \"#utility.yul\":3512:3517   */\n      dup2\n        /* \"#utility.yul\":3506:3518   */\n      mload\n        /* \"#utility.yul\":3496:3518   */\n      swap1\n      pop\n        /* \"#utility.yul\":3390:3525   */\n      swap2\n      swap1\n      pop\n      jump\t// out\n        /* \"#utility.yul\":3531:3736   */\n    tag_250:\n        /* \"#utility.yul\":3651:3662   */\n      0x00\n        /* \"#utility.yul\":3685:3691   */\n      dup3\n        /* \"#utility.yul\":3680:3683   */\n      dup3\n        /* \"#utility.yul\":3673:3692   */\n      mstore\n        /* \"#utility.yul\":3725:3729   */\n      0x20\n        /* \"#utility.yul\":3720:3723   */\n      dup3\n        /* \"#utility.yul\":3716:3730   */\n      add\n        /* \"#utility.yul\":3701:3730   */\n      swap1\n      pop\n        /* \"#utility.yul\":3531:3736   */\n      swap3\n      swap2\n      pop\n      pop\n      jump\t// out\n        /* \"#utility.yul\":3742:3895   */\n    tag_251:\n        /* \"#utility.yul\":3830:3834   */\n      0x00\n        /* \"#utility.yul\":3853:3856   */\n      dup2\n        /* \"#utility.yul\":3845:3856   */\n      swap1\n      pop\n        /* \"#utility.yul\":3883:3887   */\n      0x20\n        /* \"#utility.yul\":3878:3881   */\n      dup3\n        /* \"#utility.yul\":3874:3888   */\n      add\n        /* \"#utility.yul\":3866:3888   */\n      swap1\n      pop\n        /* \"#utility.yul\":3742:3895   */\n      swap2\n      swap1\n      pop\n      jump\t// out\n        /* \"#utility.yul\":3901:4027   */\n    tag_252:\n        /* \"#utility.yul\":3938:3945   */\n      0x00\n        /* \"#utility.yul\":3978:4020   */\n      0xffffffffffffffffffffffffffffffffffffffff\n        /* \"#utility.yul\":3971:3976   */\n      dup3\n        /* \"#utility.yul\":3967:4021   */\n      and\n        /* \"#utility.yul\":3956:4021   */\n      swap1\n      pop\n        /* \"#utility.yul\":3901:4027   */\n      swap2\n      swap1\n      pop\n      jump\t// out\n        /* \"#utility.yul\":4033:4137   */\n    tag_253:\n        /* \"#utility.yul\":4078:4085   */\n      0x00\n        /* \"#utility.yul\":4107:4131   */\n      tag_332\n        /* \"#utility.yul\":4125:4130   */\n      dup3\n        /* \"#utility.yul\":4107:4131   */\n      tag_252\n      jump\t// in\n    tag_332:\n        /* \"#utility.yul\":4096:4131   */\n      swap1\n      pop\n        /* \"#utility.yul\":4033:4137   */\n      swap2\n      swap1\n      pop\n      jump\t// out\n        /* \"#utility.yul\":4143:4275   */\n    tag_254:\n        /* \"#utility.yul\":4236:4268   */\n      tag_334\n        /* \"#utility.yul\":4262:4267   */\n      dup2\n        /* \"#utility.yul\":4236:4268   */\n      tag_253\n      jump\t// in\n    tag_334:\n        /* \"#utility.yul\":4231:4234   */\n      dup3\n        /* \"#utility.yul\":4224:4269   */\n      mstore\n        /* \"#utility.yul\":4143:4275   */\n      pop\n      pop\n      jump\t// out\n        /* \"#utility.yul\":4281:4461   */\n    tag_116:\n        /* \"#utility.yul\":4329:4406   */\n      0x4e487b7100000000000000000000000000000000000000000000000000000000\n        /* \"#utility.yul\":4326:4327   */\n      0x00\n        /* \"#utility.yul\":4319:4407   */\n      mstore\n        /* \"#utility.yul\":4426:4430   */\n      0x21\n        /* \"#utility.yul\":4423:4424   */\n      0x04\n        /* \"#utility.yul\":4416:4431   */\n      mstore\n        /* \"#utility.yul\":4450:4454   */\n      0x24\n        /* \"#utility.yul\":4447:4448   */\n      0x00\n        /* \"#utility.yul\":4440:4455   */\n      revert\n        /* \"#utility.yul\":4467:4579   */\n    tag_255:\n        /* \"#utility.yul\":4547:4548   */\n      0x02\n        /* \"#utility.yul\":4540:4545   */\n      dup2\n        /* \"#utility.yul\":4537:4549   */\n      lt\n        /* \"#utility.yul\":4527:4573   */\n      tag_337\n      jumpi\n        /* \"#utility.yul\":4553:4571   */\n      tag_338\n      tag_116\n      jump\t// in\n    tag_338:\n        /* \"#utility.yul\":4527:4573   */\n    tag_337:\n        /* \"#utility.yul\":4467:4579   */\n      pop\n      jump\t// out\n        /* \"#utility.yul\":4585:4710   */\n    tag_256:\n        /* \"#utility.yul\":4629:4636   */\n      0x00\n        /* \"#utility.yul\":4658:4663   */\n      dup2\n        /* \"#utility.yul\":4647:4663   */\n      swap1\n      pop\n        /* \"#utility.yul\":4664:4704   */\n      tag_340\n        /* \"#utility.yul\":4698:4703   */\n      dup3\n        /* \"#utility.yul\":4664:4704   */\n      tag_255\n      jump\t// in\n    tag_340:\n        /* \"#utility.yul\":4585:4710   */\n      swap2\n      swap1\n      pop\n      jump\t// out\n        /* \"#utility.yul\":4716:4841   */\n    tag_257:\n        /* \"#utility.yul\":4771:4780   */\n      0x00\n        /* \"#utility.yul\":4804:4835   */\n      tag_342\n        /* \"#utility.yul\":4829:4834   */\n      dup3\n        /* \"#utility.yul\":4804:4835   */\n      tag_256\n      jump\t// in\n    tag_342:\n        /* \"#utility.yul\":4791:4835   */\n      swap1\n      pop\n        /* \"#utility.yul\":4716:4841   */\n      swap2\n      swap1\n      pop\n      jump\t// out\n        /* \"#utility.yul\":4847:4978   */\n    tag_258:\n        /* \"#utility.yul\":4929:4971   */\n      tag_344\n        /* \"#utility.yul\":4965:4970   */\n      dup2\n        /* \"#utility.yul\":4929:4971   */\n      tag_257\n      jump\t// in\n    tag_344:\n        /* \"#utility.yul\":4924:4927   */\n      dup3\n        /* \"#utility.yul\":4917:4972   */\n      mstore\n        /* \"#utility.yul\":4847:4978   */\n      pop\n      pop\n      jump\t// out\n        /* \"#utility.yul\":5040:6429   */\n    tag_259:\n        /* \"#utility.yul\":5169:5173   */\n      0xe0\n        /* \"#utility.yul\":5164:5167   */\n      dup3\n        /* \"#utility.yul\":5160:5174   */\n      add\n        /* \"#utility.yul\":5260:5264   */\n      0x00\n        /* \"#utility.yul\":5253:5258   */\n      dup3\n        /* \"#utility.yul\":5249:5265   */\n      add\n        /* \"#utility.yul\":5243:5266   */\n      mload\n        /* \"#utility.yul\":5279:5358   */\n      tag_346\n        /* \"#utility.yul\":5352:5356   */\n      0x00\n        /* \"#utility.yul\":5347:5350   */\n      dup6\n        /* \"#utility.yul\":5343:5357   */\n      add\n        /* \"#utility.yul\":5329:5341   */\n      dup3\n        /* \"#utility.yul\":5279:5358   */\n      tag_254\n      jump\t// in\n    tag_346:\n        /* \"#utility.yul\":5184:5368   */\n      pop\n        /* \"#utility.yul\":5451:5455   */\n      0x20\n        /* \"#utility.yul\":5444:5449   */\n      dup3\n        /* \"#utility.yul\":5440:5456   */\n      add\n        /* \"#utility.yul\":5434:5457   */\n      mload\n        /* \"#utility.yul\":5470:5533   */\n      tag_347\n        /* \"#utility.yul\":5527:5531   */\n      0x20\n        /* \"#utility.yul\":5522:5525   */\n      dup6\n        /* \"#utility.yul\":5518:5532   */\n      add\n        /* \"#utility.yul\":5504:5516   */\n      dup3\n        /* \"#utility.yul\":5470:5533   */\n      tag_239\n      jump\t// in\n    tag_347:\n        /* \"#utility.yul\":5378:5543   */\n      pop\n        /* \"#utility.yul\":5630:5634   */\n      0x40\n        /* \"#utility.yul\":5623:5628   */\n      dup3\n        /* \"#utility.yul\":5619:5635   */\n      add\n        /* \"#utility.yul\":5613:5636   */\n      mload\n        /* \"#utility.yul\":5649:5712   */\n      tag_348\n        /* \"#utility.yul\":5706:5710   */\n      0x40\n        /* \"#utility.yul\":5701:5704   */\n      dup6\n        /* \"#utility.yul\":5697:5711   */\n      add\n        /* \"#utility.yul\":5683:5695   */\n      dup3\n        /* \"#utility.yul\":5649:5712   */\n      tag_239\n      jump\t// in\n    tag_348:\n        /* \"#utility.yul\":5553:5722   */\n      pop\n        /* \"#utility.yul\":5805:5809   */\n      0x60\n        /* \"#utility.yul\":5798:5803   */\n      dup3\n        /* \"#utility.yul\":5794:5810   */\n      add\n        /* \"#utility.yul\":5788:5811   */\n      mload\n        /* \"#utility.yul\":5824:5892   */\n      tag_349\n        /* \"#utility.yul\":5886:5890   */\n      0x60\n        /* \"#utility.yul\":5881:5884   */\n      dup6\n        /* \"#utility.yul\":5877:5891   */\n      add\n        /* \"#utility.yul\":5863:5875   */\n      dup3\n        /* \"#utility.yul\":5824:5892   */\n      tag_258\n      jump\t// in\n    tag_349:\n        /* \"#utility.yul\":5732:5902   */\n      pop\n        /* \"#utility.yul\":5982:5986   */\n      0x80\n        /* \"#utility.yul\":5975:5980   */\n      dup3\n        /* \"#utility.yul\":5971:5987   */\n      add\n        /* \"#utility.yul\":5965:5988   */\n      mload\n        /* \"#utility.yul\":6001:6064   */\n      tag_350\n        /* \"#utility.yul\":6058:6062   */\n      0x80\n        /* \"#utility.yul\":6053:6056   */\n      dup6\n        /* \"#utility.yul\":6049:6063   */\n      add\n        /* \"#utility.yul\":6035:6047   */\n      dup3\n        /* \"#utility.yul\":6001:6064   */\n      tag_239\n      jump\t// in\n    tag_350:\n        /* \"#utility.yul\":5912:6074   */\n      pop\n        /* \"#utility.yul\":6156:6160   */\n      0xa0\n        /* \"#utility.yul\":6149:6154   */\n      dup3\n        /* \"#utility.yul\":6145:6161   */\n      add\n        /* \"#utility.yul\":6139:6162   */\n      mload\n        /* \"#utility.yul\":6175:6238   */\n      tag_351\n        /* \"#utility.yul\":6232:6236   */\n      0xa0\n        /* \"#utility.yul\":6227:6230   */\n      dup6\n        /* \"#utility.yul\":6223:6237   */\n      add\n        /* \"#utility.yul\":6209:6221   */\n      dup3\n        /* \"#utility.yul\":6175:6238   */\n      tag_239\n      jump\t// in\n    tag_351:\n        /* \"#utility.yul\":6084:6248   */\n      pop\n        /* \"#utility.yul\":6330:6334   */\n      0xc0\n        /* \"#utility.yul\":6323:6328   */\n      dup3\n        /* \"#utility.yul\":6319:6335   */\n      add\n        /* \"#utility.yul\":6313:6336   */\n      mload\n        /* \"#utility.yul\":6349:6412   */\n      tag_352\n        /* \"#utility.yul\":6406:6410   */\n      0xc0\n        /* \"#utility.yul\":6401:6404   */\n      dup6\n        /* \"#utility.yul\":6397:6411   */\n      add\n        /* \"#utility.yul\":6383:6395   */\n      dup3\n        /* \"#utility.yul\":6349:6412   */\n      tag_239\n      jump\t// in\n    tag_352:\n        /* \"#utility.yul\":6258:6422   */\n      pop\n        /* \"#utility.yul\":5138:6429   */\n      pop\n        /* \"#utility.yul\":5040:6429   */\n      pop\n      pop\n      jump\t// out\n        /* \"#utility.yul\":6435:6698   */\n    tag_260:\n        /* \"#utility.yul\":6546:6556   */\n      0x00\n        /* \"#utility.yul\":6567:6655   */\n      tag_354\n        /* \"#utility.yul\":6651:6654   */\n      dup4\n        /* \"#utility.yul\":6643:6649   */\n      dup4\n        /* \"#utility.yul\":6567:6655   */\n      tag_259\n      jump\t// in\n    tag_354:\n        /* \"#utility.yul\":6687:6691   */\n      0xe0\n        /* \"#utility.yul\":6682:6685   */\n      dup4\n        /* \"#utility.yul\":6678:6692   */\n      add\n        /* \"#utility.yul\":6664:6692   */\n      swap1\n      pop\n        /* \"#utility.yul\":6435:6698   */\n      swap3\n      swap2\n      pop\n      pop\n      jump\t// out\n        /* \"#utility.yul\":6704:6838   */\n    tag_261:\n        /* \"#utility.yul\":6795:6799   */\n      0x00\n        /* \"#utility.yul\":6827:6831   */\n      0x20\n        /* \"#utility.yul\":6822:6825   */\n      dup3\n        /* \"#utility.yul\":6818:6832   */\n      add\n        /* \"#utility.yul\":6810:6832   */\n      swap1\n      pop\n        /* \"#utility.yul\":6704:6838   */\n      swap2\n      swap1\n      pop\n      jump\t// out\n        /* \"#utility.yul\":6904:7804   */\n    tag_262:\n        /* \"#utility.yul\":7065:7068   */\n      0x00\n        /* \"#utility.yul\":7094:7169   */\n      tag_357\n        /* \"#utility.yul\":7163:7168   */\n      dup3\n        /* \"#utility.yul\":7094:7169   */\n      tag_249\n      jump\t// in\n    tag_357:\n        /* \"#utility.yul\":7185:7292   */\n      tag_358\n        /* \"#utility.yul\":7285:7291   */\n      dup2\n        /* \"#utility.yul\":7280:7283   */\n      dup6\n        /* \"#utility.yul\":7185:7292   */\n      tag_250\n      jump\t// in\n    tag_358:\n        /* \"#utility.yul\":7178:7292   */\n      swap4\n      pop\n        /* \"#utility.yul\":7316:7393   */\n      tag_359\n        /* \"#utility.yul\":7387:7392   */\n      dup4\n        /* \"#utility.yul\":7316:7393   */\n      tag_251\n      jump\t// in\n    tag_359:\n        /* \"#utility.yul\":7416:7423   */\n      dup1\n        /* \"#utility.yul\":7447:7448   */\n      0x00\n        /* \"#utility.yul\":7432:7779   */\n    tag_360:\n        /* \"#utility.yul\":7457:7463   */\n      dup4\n        /* \"#utility.yul\":7454:7455   */\n      dup2\n        /* \"#utility.yul\":7451:7464   */\n      lt\n        /* \"#utility.yul\":7432:7779   */\n      iszero\n      tag_362\n      jumpi\n        /* \"#utility.yul\":7533:7539   */\n      dup2\n        /* \"#utility.yul\":7527:7540   */\n      mload\n        /* \"#utility.yul\":7560:7665   */\n      tag_363\n        /* \"#utility.yul\":7661:7664   */\n      dup9\n        /* \"#utility.yul\":7646:7659   */\n      dup3\n        /* \"#utility.yul\":7560:7665   */\n      tag_260\n      jump\t// in\n    tag_363:\n        /* \"#utility.yul\":7553:7665   */\n      swap8\n      pop\n        /* \"#utility.yul\":7688:7769   */\n      tag_364\n        /* \"#utility.yul\":7762:7768   */\n      dup4\n        /* \"#utility.yul\":7688:7769   */\n      tag_261\n      jump\t// in\n    tag_364:\n        /* \"#utility.yul\":7678:7769   */\n      swap3\n      pop\n        /* \"#utility.yul\":7492:7779   */\n      pop\n        /* \"#utility.yul\":7479:7480   */\n      0x01\n        /* \"#utility.yul\":7476:7477   */\n      dup2\n        /* \"#utility.yul\":7472:7481   */\n      add\n        /* \"#utility.yul\":7467:7481   */\n      swap1\n      pop\n        /* \"#utility.yul\":7432:7779   */\n      jump(tag_360)\n    tag_362:\n        /* \"#utility.yul\":7436:7450   */\n      pop\n        /* \"#utility.yul\":7795:7798   */\n      dup6\n        /* \"#utility.yul\":7788:7798   */\n      swap4\n      pop\n        /* \"#utility.yul\":7070:7804   */\n      pop\n      pop\n      pop\n        /* \"#utility.yul\":6904:7804   */\n      swap3\n      swap2\n      pop\n      pop\n      jump\t// out\n        /* \"#utility.yul\":7810:8267   */\n    tag_44:\n        /* \"#utility.yul\":7995:7999   */\n      0x00\n        /* \"#utility.yul\":8033:8035   */\n      0x20\n        /* \"#utility.yul\":8022:8031   */\n      dup3\n        /* \"#utility.yul\":8018:8036   */\n      add\n        /* \"#utility.yul\":8010:8036   */\n      swap1\n      pop\n        /* \"#utility.yul\":8082:8091   */\n      dup2\n        /* \"#utility.yul\":8076:8080   */\n      dup2\n        /* \"#utility.yul\":8072:8092   */\n      sub\n        /* \"#utility.yul\":8068:8069   */\n      0x00\n        /* \"#utility.yul\":8057:8066   */\n      dup4\n        /* \"#utility.yul\":8053:8070   */\n      add\n        /* \"#utility.yul\":8046:8093   */\n      mstore\n        /* \"#utility.yul\":8110:8260   */\n      tag_366\n        /* \"#utility.yul\":8255:8259   */\n      dup2\n        /* \"#utility.yul\":8246:8252   */\n      dup5\n        /* \"#utility.yul\":8110:8260   */\n      tag_262\n      jump\t// in\n    tag_366:\n        /* \"#utility.yul\":8102:8260   */\n      swap1\n      pop\n        /* \"#utility.yul\":7810:8267   */\n      swap3\n      swap2\n      pop\n      pop\n      jump\t// out\n        /* \"#utility.yul\":8273:8372   */\n    tag_263:\n        /* \"#utility.yul\":8325:8331   */\n      0x00\n        /* \"#utility.yul\":8359:8364   */\n      dup2\n        /* \"#utility.yul\":8353:8365   */\n      mload\n        /* \"#utility.yul\":8343:8365   */\n      swap1\n      pop\n        /* \"#utility.yul\":8273:8372   */\n      swap2\n      swap1\n      pop\n      jump\t// out\n        /* \"#utility.yul\":8378:8547   */\n    tag_264:\n        /* \"#utility.yul\":8462:8473   */\n      0x00\n        /* \"#utility.yul\":8496:8502   */\n      dup3\n        /* \"#utility.yul\":8491:8494   */\n      dup3\n        /* \"#utility.yul\":8484:8503   */\n      mstore\n        /* \"#utility.yul\":8536:8540   */\n      0x20\n        /* \"#utility.yul\":8531:8534   */\n      dup3\n        /* \"#utility.yul\":8527:8541   */\n      add\n        /* \"#utility.yul\":8512:8541   */\n      swap1\n      pop\n        /* \"#utility.yul\":8378:8547   */\n      swap3\n      swap2\n      pop\n      pop\n      jump\t// out\n        /* \"#utility.yul\":8553:8860   */\n    tag_265:\n        /* \"#utility.yul\":8621:8622   */\n      0x00\n        /* \"#utility.yul\":8631:8744   */\n    tag_370:\n        /* \"#utility.yul\":8645:8651   */\n      dup4\n        /* \"#utility.yul\":8642:8643   */\n      dup2\n        /* \"#utility.yul\":8639:8652   */\n      lt\n        /* \"#utility.yul\":8631:8744   */\n      iszero\n      tag_372\n      jumpi\n        /* \"#utility.yul\":8730:8731   */\n      dup1\n        /* \"#utility.yul\":8725:8728   */\n      dup3\n        /* \"#utility.yul\":8721:8732   */\n      add\n        /* \"#utility.yul\":8715:8733   */\n      mload\n        /* \"#utility.yul\":8711:8712   */\n      dup2\n        /* \"#utility.yul\":8706:8709   */\n      dup5\n        /* \"#utility.yul\":8702:8713   */\n      add\n        /* \"#utility.yul\":8695:8734   */\n      mstore\n        /* \"#utility.yul\":8667:8669   */\n      0x20\n        /* \"#utility.yul\":8664:8665   */\n      dup2\n        /* \"#utility.yul\":8660:8670   */\n      add\n        /* \"#utility.yul\":8655:8670   */\n      swap1\n      pop\n        /* \"#utility.yul\":8631:8744   */\n      jump(tag_370)\n    tag_372:\n        /* \"#utility.yul\":8762:8768   */\n      dup4\n        /* \"#utility.yul\":8759:8760   */\n      dup2\n        /* \"#utility.yul\":8756:8769   */\n      gt\n        /* \"#utility.yul\":8753:8854   */\n      iszero\n      tag_373\n      jumpi\n        /* \"#utility.yul\":8842:8843   */\n      0x00\n        /* \"#utility.yul\":8833:8839   */\n      dup5\n        /* \"#utility.yul\":8828:8831   */\n      dup5\n        /* \"#utility.yul\":8824:8840   */\n      add\n        /* \"#utility.yul\":8817:8844   */\n      mstore\n        /* \"#utility.yul\":8753:8854   */\n    tag_373:\n        /* \"#utility.yul\":8602:8860   */\n      pop\n        /* \"#utility.yul\":8553:8860   */\n      pop\n      pop\n      pop\n      jump\t// out\n        /* \"#utility.yul\":8866:8968   */\n    tag_266:\n        /* \"#utility.yul\":8907:8913   */\n      0x00\n        /* \"#utility.yul\":8958:8960   */\n      0x1f\n        /* \"#utility.yul\":8954:8961   */\n      not\n        /* \"#utility.yul\":8949:8951   */\n      0x1f\n        /* \"#utility.yul\":8942:8947   */\n      dup4\n        /* \"#utility.yul\":8938:8952   */\n      add\n        /* \"#utility.yul\":8934:8962   */\n      and\n        /* \"#utility.yul\":8924:8962   */\n      swap1\n      pop\n        /* \"#utility.yul\":8866:8968   */\n      swap2\n      swap1\n      pop\n      jump\t// out\n        /* \"#utility.yul\":8974:9338   */\n    tag_267:\n        /* \"#utility.yul\":9062:9065   */\n      0x00\n        /* \"#utility.yul\":9090:9129   */\n      tag_376\n        /* \"#utility.yul\":9123:9128   */\n      dup3\n        /* \"#utility.yul\":9090:9129   */\n      tag_263\n      jump\t// in\n    tag_376:\n        /* \"#utility.yul\":9145:9216   */\n      tag_377\n        /* \"#utility.yul\":9209:9215   */\n      dup2\n        /* \"#utility.yul\":9204:9207   */\n      dup6\n        /* \"#utility.yul\":9145:9216   */\n      tag_264\n      jump\t// in\n    tag_377:\n        /* \"#utility.yul\":9138:9216   */\n      swap4\n      pop\n        /* \"#utility.yul\":9225:9277   */\n      tag_378\n        /* \"#utility.yul\":9270:9276   */\n      dup2\n        /* \"#utility.yul\":9265:9268   */\n      dup6\n        /* \"#utility.yul\":9258:9262   */\n      0x20\n        /* \"#utility.yul\":9251:9256   */\n      dup7\n        /* \"#utility.yul\":9247:9263   */\n      add\n        /* \"#utility.yul\":9225:9277   */\n      tag_265\n      jump\t// in\n    tag_378:\n        /* \"#utility.yul\":9302:9331   */\n      tag_379\n        /* \"#utility.yul\":9324:9330   */\n      dup2\n        /* \"#utility.yul\":9302:9331   */\n      tag_266\n      jump\t// in\n    tag_379:\n        /* \"#utility.yul\":9297:9300   */\n      dup5\n        /* \"#utility.yul\":9293:9332   */\n      add\n        /* \"#utility.yul\":9286:9332   */\n      swap2\n      pop\n        /* \"#utility.yul\":9066:9338   */\n      pop\n        /* \"#utility.yul\":8974:9338   */\n      swap3\n      swap2\n      pop\n      pop\n      jump\t// out\n        /* \"#utility.yul\":9344:9657   */\n    tag_49:\n        /* \"#utility.yul\":9457:9461   */\n      0x00\n        /* \"#utility.yul\":9495:9497   */\n      0x20\n        /* \"#utility.yul\":9484:9493   */\n      dup3\n        /* \"#utility.yul\":9480:9498   */\n      add\n        /* \"#utility.yul\":9472:9498   */\n      swap1\n      pop\n        /* \"#utility.yul\":9544:9553   */\n      dup2\n        /* \"#utility.yul\":9538:9542   */\n      dup2\n        /* \"#utility.yul\":9534:9554   */\n      sub\n        /* \"#utility.yul\":9530:9531   */\n      0x00\n        /* \"#utility.yul\":9519:9528   */\n      dup4\n        /* \"#utility.yul\":9515:9532   */\n      add\n        /* \"#utility.yul\":9508:9555   */\n      mstore\n        /* \"#utility.yul\":9572:9650   */\n      tag_381\n        /* \"#utility.yul\":9645:9649   */\n      dup2\n        /* \"#utility.yul\":9636:9642   */\n      dup5\n        /* \"#utility.yul\":9572:9650   */\n      tag_267\n      jump\t// in\n    tag_381:\n        /* \"#utility.yul\":9564:9650   */\n      swap1\n      pop\n        /* \"#utility.yul\":9344:9657   */\n      swap3\n      swap2\n      pop\n      pop\n      jump\t// out\n        /* \"#utility.yul\":9663:9804   */\n    tag_268:\n        /* \"#utility.yul\":9755:9797   */\n      tag_383\n        /* \"#utility.yul\":9791:9796   */\n      dup2\n        /* \"#utility.yul\":9755:9797   */\n      tag_257\n      jump\t// in\n    tag_383:\n        /* \"#utility.yul\":9750:9753   */\n      dup3\n        /* \"#utility.yul\":9743:9798   */\n      mstore\n        /* \"#utility.yul\":9663:9804   */\n      pop\n      pop\n      jump\t// out\n        /* \"#utility.yul\":9810:10042   */\n    tag_55:\n        /* \"#utility.yul\":9908:9912   */\n      0x00\n        /* \"#utility.yul\":9946:9948   */\n      0x20\n        /* \"#utility.yul\":9935:9944   */\n      dup3\n        /* \"#utility.yul\":9931:9949   */\n      add\n        /* \"#utility.yul\":9923:9949   */\n      swap1\n      pop\n        /* \"#utility.yul\":9959:10035   */\n      tag_385\n        /* \"#utility.yul\":10032:10033   */\n      0x00\n        /* \"#utility.yul\":10021:10030   */\n      dup4\n        /* \"#utility.yul\":10017:10034   */\n      add\n        /* \"#utility.yul\":10008:10014   */\n      dup5\n        /* \"#utility.yul\":9959:10035   */\n      tag_268\n      jump\t// in\n    tag_385:\n        /* \"#utility.yul\":9810:10042   */\n      swap3\n      swap2\n      pop\n      pop\n      jump\t// out\n        /* \"#utility.yul\":10048:10190   */\n    tag_269:\n        /* \"#utility.yul\":10151:10183   */\n      tag_387\n        /* \"#utility.yul\":10177:10182   */\n      dup2\n        /* \"#utility.yul\":10151:10183   */\n      tag_253\n      jump\t// in\n    tag_387:\n        /* \"#utility.yul\":10146:10149   */\n      dup3\n        /* \"#utility.yul\":10139:10184   */\n      mstore\n        /* \"#utility.yul\":10048:10190   */\n      pop\n      pop\n      jump\t// out\n        /* \"#utility.yul\":10196:10450   */\n    tag_61:\n        /* \"#utility.yul\":10305:10309   */\n      0x00\n        /* \"#utility.yul\":10343:10345   */\n      0x20\n        /* \"#utility.yul\":10332:10341   */\n      dup3\n        /* \"#utility.yul\":10328:10346   */\n      add\n        /* \"#utility.yul\":10320:10346   */\n      swap1\n      pop\n        /* \"#utility.yul\":10356:10443   */\n      tag_389\n        /* \"#utility.yul\":10440:10441   */\n      0x00\n        /* \"#utility.yul\":10429:10438   */\n      dup4\n        /* \"#utility.yul\":10425:10442   */\n      add\n        /* \"#utility.yul\":10416:10422   */\n      dup5\n        /* \"#utility.yul\":10356:10443   */\n      tag_269\n      jump\t// in\n    tag_389:\n        /* \"#utility.yul\":10196:10450   */\n      swap3\n      swap2\n      pop\n      pop\n      jump\t// out\n        /* \"#utility.yul\":10456:10546   */\n    tag_270:\n        /* \"#utility.yul\":10490:10497   */\n      0x00\n        /* \"#utility.yul\":10533:10538   */\n      dup2\n        /* \"#utility.yul\":10526:10539   */\n      iszero\n        /* \"#utility.yul\":10519:10540   */\n      iszero\n        /* \"#utility.yul\":10508:10540   */\n      swap1\n      pop\n        /* \"#utility.yul\":10456:10546   */\n      swap2\n      swap1\n      pop\n      jump\t// out\n        /* \"#utility.yul\":10552:10661   */\n    tag_271:\n        /* \"#utility.yul\":10633:10654   */\n      tag_392\n        /* \"#utility.yul\":10648:10653   */\n      dup2\n        /* \"#utility.yul\":10633:10654   */\n      tag_270\n      jump\t// in\n    tag_392:\n        /* \"#utility.yul\":10628:10631   */\n      dup3\n        /* \"#utility.yul\":10621:10655   */\n      mstore\n        /* \"#utility.yul\":10552:10661   */\n      pop\n      pop\n      jump\t// out\n        /* \"#utility.yul\":10667:11694   */\n    tag_107:\n        /* \"#utility.yul\":10971:10975   */\n      0x00\n        /* \"#utility.yul\":11009:11012   */\n      0x0100\n        /* \"#utility.yul\":10998:11007   */\n      dup3\n        /* \"#utility.yul\":10994:11013   */\n      add\n        /* \"#utility.yul\":10986:11013   */\n      swap1\n      pop\n        /* \"#utility.yul\":11023:11110   */\n      tag_394\n        /* \"#utility.yul\":11107:11108   */\n      0x00\n        /* \"#utility.yul\":11096:11105   */\n      dup4\n        /* \"#utility.yul\":11092:11109   */\n      add\n        /* \"#utility.yul\":11083:11089   */\n      dup12\n        /* \"#utility.yul\":11023:11110   */\n      tag_269\n      jump\t// in\n    tag_394:\n        /* \"#utility.yul\":11120:11192   */\n      tag_395\n        /* \"#utility.yul\":11188:11190   */\n      0x20\n        /* \"#utility.yul\":11177:11186   */\n      dup4\n        /* \"#utility.yul\":11173:11191   */\n      add\n        /* \"#utility.yul\":11164:11170   */\n      dup11\n        /* \"#utility.yul\":11120:11192   */\n      tag_248\n      jump\t// in\n    tag_395:\n        /* \"#utility.yul\":11202:11274   */\n      tag_396\n        /* \"#utility.yul\":11270:11272   */\n      0x40\n        /* \"#utility.yul\":11259:11268   */\n      dup4\n        /* \"#utility.yul\":11255:11273   */\n      add\n        /* \"#utility.yul\":11246:11252   */\n      dup10\n        /* \"#utility.yul\":11202:11274   */\n      tag_248\n      jump\t// in\n    tag_396:\n        /* \"#utility.yul\":11284:11361   */\n      tag_397\n        /* \"#utility.yul\":11357:11359   */\n      0x60\n        /* \"#utility.yul\":11346:11355   */\n      dup4\n        /* \"#utility.yul\":11342:11360   */\n      add\n        /* \"#utility.yul\":11333:11339   */\n      dup9\n        /* \"#utility.yul\":11284:11361   */\n      tag_268\n      jump\t// in\n    tag_397:\n        /* \"#utility.yul\":11371:11444   */\n      tag_398\n        /* \"#utility.yul\":11439:11442   */\n      0x80\n        /* \"#utility.yul\":11428:11437   */\n      dup4\n        /* \"#utility.yul\":11424:11443   */\n      add\n        /* \"#utility.yul\":11415:11421   */\n      dup8\n        /* \"#utility.yul\":11371:11444   */\n      tag_248\n      jump\t// in\n    tag_398:\n        /* \"#utility.yul\":11454:11527   */\n      tag_399\n        /* \"#utility.yul\":11522:11525   */\n      0xa0\n        /* \"#utility.yul\":11511:11520   */\n      dup4\n        /* \"#utility.yul\":11507:11526   */\n      add\n        /* \"#utility.yul\":11498:11504   */\n      dup7\n        /* \"#utility.yul\":11454:11527   */\n      tag_248\n      jump\t// in\n    tag_399:\n        /* \"#utility.yul\":11537:11610   */\n      tag_400\n        /* \"#utility.yul\":11605:11608   */\n      0xc0\n        /* \"#utility.yul\":11594:11603   */\n      dup4\n        /* \"#utility.yul\":11590:11609   */\n      add\n        /* \"#utility.yul\":11581:11587   */\n      dup6\n        /* \"#utility.yul\":11537:11610   */\n      tag_248\n      jump\t// in\n    tag_400:\n        /* \"#utility.yul\":11620:11687   */\n      tag_401\n        /* \"#utility.yul\":11682:11685   */\n      0xe0\n        /* \"#utility.yul\":11671:11680   */\n      dup4\n        /* \"#utility.yul\":11667:11686   */\n      add\n        /* \"#utility.yul\":11658:11664   */\n      dup5\n        /* \"#utility.yul\":11620:11687   */\n      tag_271\n      jump\t// in\n    tag_401:\n        /* \"#utility.yul\":10667:11694   */\n      swap10\n      swap9\n      pop\n      pop\n      pop\n      pop\n      pop\n      pop\n      pop\n      pop\n      pop\n      jump\t// out\n        /* \"#utility.yul\":11700:11863   */\n    tag_272:\n        /* \"#utility.yul\":11840:11855   */\n      0x4f726465722050656e64696e6700000000000000000000000000000000000000\n        /* \"#utility.yul\":11836:11837   */\n      0x00\n        /* \"#utility.yul\":11828:11834   */\n      dup3\n        /* \"#utility.yul\":11824:11838   */\n      add\n        /* \"#utility.yul\":11817:11856   */\n      mstore\n        /* \"#utility.yul\":11700:11863   */\n      pop\n      jump\t// out\n        /* \"#utility.yul\":11869:12235   */\n    tag_273:\n        /* \"#utility.yul\":12011:12014   */\n      0x00\n        /* \"#utility.yul\":12032:12099   */\n      tag_404\n        /* \"#utility.yul\":12096:12098   */\n      0x0d\n        /* \"#utility.yul\":12091:12094   */\n      dup4\n        /* \"#utility.yul\":12032:12099   */\n      tag_264\n      jump\t// in\n    tag_404:\n        /* \"#utility.yul\":12025:12099   */\n      swap2\n      pop\n        /* \"#utility.yul\":12108:12201   */\n      tag_405\n        /* \"#utility.yul\":12197:12200   */\n      dup3\n        /* \"#utility.yul\":12108:12201   */\n      tag_272\n      jump\t// in\n    tag_405:\n        /* \"#utility.yul\":12226:12228   */\n      0x20\n        /* \"#utility.yul\":12221:12224   */\n      dup3\n        /* \"#utility.yul\":12217:12229   */\n      add\n        /* \"#utility.yul\":12210:12229   */\n      swap1\n      pop\n        /* \"#utility.yul\":11869:12235   */\n      swap2\n      swap1\n      pop\n      jump\t// out\n        /* \"#utility.yul\":12241:12660   */\n    tag_126:\n        /* \"#utility.yul\":12407:12411   */\n      0x00\n        /* \"#utility.yul\":12445:12447   */\n      0x20\n        /* \"#utility.yul\":12434:12443   */\n      dup3\n        /* \"#utility.yul\":12430:12448   */\n      add\n        /* \"#utility.yul\":12422:12448   */\n      swap1\n      pop\n        /* \"#utility.yul\":12494:12503   */\n      dup2\n        /* \"#utility.yul\":12488:12492   */\n      dup2\n        /* \"#utility.yul\":12484:12504   */\n      sub\n        /* \"#utility.yul\":12480:12481   */\n      0x00\n        /* \"#utility.yul\":12469:12478   */\n      dup4\n        /* \"#utility.yul\":12465:12482   */\n      add\n        /* \"#utility.yul\":12458:12505   */\n      mstore\n        /* \"#utility.yul\":12522:12653   */\n      tag_407\n        /* \"#utility.yul\":12648:12652   */\n      dup2\n        /* \"#utility.yul\":12522:12653   */\n      tag_273\n      jump\t// in\n    tag_407:\n        /* \"#utility.yul\":12514:12653   */\n      swap1\n      pop\n        /* \"#utility.yul\":12241:12660   */\n      swap2\n      swap1\n      pop\n      jump\t// out\n        /* \"#utility.yul\":12666:12830   */\n    tag_274:\n        /* \"#utility.yul\":12806:12822   */\n      0x4e6f7420417574686f7269736564000000000000000000000000000000000000\n        /* \"#utility.yul\":12802:12803   */\n      0x00\n        /* \"#utility.yul\":12794:12800   */\n      dup3\n        /* \"#utility.yul\":12790:12804   */\n      add\n        /* \"#utility.yul\":12783:12823   */\n      mstore\n        /* \"#utility.yul\":12666:12830   */\n      pop\n      jump\t// out\n        /* \"#utility.yul\":12836:13202   */\n    tag_275:\n        /* \"#utility.yul\":12978:12981   */\n      0x00\n        /* \"#utility.yul\":12999:13066   */\n      tag_410\n        /* \"#utility.yul\":13063:13065   */\n      0x0e\n        /* \"#utility.yul\":13058:13061   */\n      dup4\n        /* \"#utility.yul\":12999:13066   */\n      tag_264\n      jump\t// in\n    tag_410:\n        /* \"#utility.yul\":12992:13066   */\n      swap2\n      pop\n        /* \"#utility.yul\":13075:13168   */\n      tag_411\n        /* \"#utility.yul\":13164:13167   */\n      dup3\n        /* \"#utility.yul\":13075:13168   */\n      tag_274\n      jump\t// in\n    tag_411:\n        /* \"#utility.yul\":13193:13195   */\n      0x20\n        /* \"#utility.yul\":13188:13191   */\n      dup3\n        /* \"#utility.yul\":13184:13196   */\n      add\n        /* \"#utility.yul\":13177:13196   */\n      swap1\n      pop\n        /* \"#utility.yul\":12836:13202   */\n      swap2\n      swap1\n      pop\n      jump\t// out\n        /* \"#utility.yul\":13208:13627   */\n    tag_134:\n        /* \"#utility.yul\":13374:13378   */\n      0x00\n        /* \"#utility.yul\":13412:13414   */\n      0x20\n        /* \"#utility.yul\":13401:13410   */\n      dup3\n        /* \"#utility.yul\":13397:13415   */\n      add\n        /* \"#utility.yul\":13389:13415   */\n      swap1\n      pop\n        /* \"#utility.yul\":13461:13470   */\n      dup2\n        /* \"#utility.yul\":13455:13459   */\n      dup2\n        /* \"#utility.yul\":13451:13471   */\n      sub\n        /* \"#utility.yul\":13447:13448   */\n      0x00\n        /* \"#utility.yul\":13436:13445   */\n      dup4\n        /* \"#utility.yul\":13432:13449   */\n      add\n        /* \"#utility.yul\":13425:13472   */\n      mstore\n        /* \"#utility.yul\":13489:13620   */\n      tag_413\n        /* \"#utility.yul\":13615:13619   */\n      dup2\n        /* \"#utility.yul\":13489:13620   */\n      tag_275\n      jump\t// in\n    tag_413:\n        /* \"#utility.yul\":13481:13620   */\n      swap1\n      pop\n        /* \"#utility.yul\":13208:13627   */\n      swap2\n      swap1\n      pop\n      jump\t// out\n        /* \"#utility.yul\":13633:13814   */\n    tag_276:\n        /* \"#utility.yul\":13773:13806   */\n      0x70726963652076616c7565206d757374206265206d6f7265207468616e203000\n        /* \"#utility.yul\":13769:13770   */\n      0x00\n        /* \"#utility.yul\":13761:13767   */\n      dup3\n        /* \"#utility.yul\":13757:13771   */\n      add\n        /* \"#utility.yul\":13750:13807   */\n      mstore\n        /* \"#utility.yul\":13633:13814   */\n      pop\n      jump\t// out\n        /* \"#utility.yul\":13820:14186   */\n    tag_277:\n        /* \"#utility.yul\":13962:13965   */\n      0x00\n        /* \"#utility.yul\":13983:14050   */\n      tag_416\n        /* \"#utility.yul\":14047:14049   */\n      0x1f\n        /* \"#utility.yul\":14042:14045   */\n      dup4\n        /* \"#utility.yul\":13983:14050   */\n      tag_264\n      jump\t// in\n    tag_416:\n        /* \"#utility.yul\":13976:14050   */\n      swap2\n      pop\n        /* \"#utility.yul\":14059:14152   */\n      tag_417\n        /* \"#utility.yul\":14148:14151   */\n      dup3\n        /* \"#utility.yul\":14059:14152   */\n      tag_276\n      jump\t// in\n    tag_417:\n        /* \"#utility.yul\":14177:14179   */\n      0x20\n        /* \"#utility.yul\":14172:14175   */\n      dup3\n        /* \"#utility.yul\":14168:14180   */\n      add\n        /* \"#utility.yul\":14161:14180   */\n      swap1\n      pop\n        /* \"#utility.yul\":13820:14186   */\n      swap2\n      swap1\n      pop\n      jump\t// out\n        /* \"#utility.yul\":14192:14611   */\n    tag_149:\n        /* \"#utility.yul\":14358:14362   */\n      0x00\n        /* \"#utility.yul\":14396:14398   */\n      0x20\n        /* \"#utility.yul\":14385:14394   */\n      dup3\n        /* \"#utility.yul\":14381:14399   */\n      add\n        /* \"#utility.yul\":14373:14399   */\n      swap1\n      pop\n        /* \"#utility.yul\":14445:14454   */\n      dup2\n        /* \"#utility.yul\":14439:14443   */\n      dup2\n        /* \"#utility.yul\":14435:14455   */\n      sub\n        /* \"#utility.yul\":14431:14432   */\n      0x00\n        /* \"#utility.yul\":14420:14429   */\n      dup4\n        /* \"#utility.yul\":14416:14433   */\n      add\n        /* \"#utility.yul\":14409:14456   */\n      mstore\n        /* \"#utility.yul\":14473:14604   */\n      tag_419\n        /* \"#utility.yul\":14599:14603   */\n      dup2\n        /* \"#utility.yul\":14473:14604   */\n      tag_277\n      jump\t// in\n    tag_419:\n        /* \"#utility.yul\":14465:14604   */\n      swap1\n      pop\n        /* \"#utility.yul\":14192:14611   */\n      swap2\n      swap1\n      pop\n      jump\t// out\n        /* \"#utility.yul\":14617:14797   */\n    tag_278:\n        /* \"#utility.yul\":14757:14789   */\n      0x4e6f7420656e6f75676820626c616e636520746f20706c6163652061736b0000\n        /* \"#utility.yul\":14753:14754   */\n      0x00\n        /* \"#utility.yul\":14745:14751   */\n      dup3\n        /* \"#utility.yul\":14741:14755   */\n      add\n        /* \"#utility.yul\":14734:14790   */\n      mstore\n        /* \"#utility.yul\":14617:14797   */\n      pop\n      jump\t// out\n        /* \"#utility.yul\":14803:15169   */\n    tag_279:\n        /* \"#utility.yul\":14945:14948   */\n      0x00\n        /* \"#utility.yul\":14966:15033   */\n      tag_422\n        /* \"#utility.yul\":15030:15032   */\n      0x1e\n        /* \"#utility.yul\":15025:15028   */\n      dup4\n        /* \"#utility.yul\":14966:15033   */\n      tag_264\n      jump\t// in\n    tag_422:\n        /* \"#utility.yul\":14959:15033   */\n      swap2\n      pop\n        /* \"#utility.yul\":15042:15135   */\n      tag_423\n        /* \"#utility.yul\":15131:15134   */\n      dup3\n        /* \"#utility.yul\":15042:15135   */\n      tag_278\n      jump\t// in\n    tag_423:\n        /* \"#utility.yul\":15160:15162   */\n      0x20\n        /* \"#utility.yul\":15155:15158   */\n      dup3\n        /* \"#utility.yul\":15151:15163   */\n      add\n        /* \"#utility.yul\":15144:15163   */\n      swap1\n      pop\n        /* \"#utility.yul\":14803:15169   */\n      swap2\n      swap1\n      pop\n      jump\t// out\n        /* \"#utility.yul\":15175:15594   */\n    tag_152:\n        /* \"#utility.yul\":15341:15345   */\n      0x00\n        /* \"#utility.yul\":15379:15381   */\n      0x20\n        /* \"#utility.yul\":15368:15377   */\n      dup3\n        /* \"#utility.yul\":15364:15382   */\n      add\n        /* \"#utility.yul\":15356:15382   */\n      swap1\n      pop\n        /* \"#utility.yul\":15428:15437   */\n      dup2\n        /* \"#utility.yul\":15422:15426   */\n      dup2\n        /* \"#utility.yul\":15418:15438   */\n      sub\n        /* \"#utility.yul\":15414:15415   */\n      0x00\n        /* \"#utility.yul\":15403:15412   */\n      dup4\n        /* \"#utility.yul\":15399:15416   */\n      add\n        /* \"#utility.yul\":15392:15439   */\n      mstore\n        /* \"#utility.yul\":15456:15587   */\n      tag_425\n        /* \"#utility.yul\":15582:15586   */\n      dup2\n        /* \"#utility.yul\":15456:15587   */\n      tag_279\n      jump\t// in\n    tag_425:\n        /* \"#utility.yul\":15448:15587   */\n      swap1\n      pop\n        /* \"#utility.yul\":15175:15594   */\n      swap2\n      swap1\n      pop\n      jump\t// out\n        /* \"#utility.yul\":15600:15780   */\n    tag_280:\n        /* \"#utility.yul\":15648:15725   */\n      0x4e487b7100000000000000000000000000000000000000000000000000000000\n        /* \"#utility.yul\":15645:15646   */\n      0x00\n        /* \"#utility.yul\":15638:15726   */\n      mstore\n        /* \"#utility.yul\":15745:15749   */\n      0x11\n        /* \"#utility.yul\":15742:15743   */\n      0x04\n        /* \"#utility.yul\":15735:15750   */\n      mstore\n        /* \"#utility.yul\":15769:15773   */\n      0x24\n        /* \"#utility.yul\":15766:15767   */\n      0x00\n        /* \"#utility.yul\":15759:15774   */\n      revert\n        /* \"#utility.yul\":15786:15977   */\n    tag_154:\n        /* \"#utility.yul\":15826:15830   */\n      0x00\n        /* \"#utility.yul\":15846:15866   */\n      tag_428\n        /* \"#utility.yul\":15864:15865   */\n      dup3\n        /* \"#utility.yul\":15846:15866   */\n      tag_238\n      jump\t// in\n    tag_428:\n        /* \"#utility.yul\":15841:15866   */\n      swap2\n      pop\n        /* \"#utility.yul\":15880:15900   */\n      tag_429\n        /* \"#utility.yul\":15898:15899   */\n      dup4\n        /* \"#utility.yul\":15880:15900   */\n      tag_238\n      jump\t// in\n    tag_429:\n        /* \"#utility.yul\":15875:15900   */\n      swap3\n      pop\n        /* \"#utility.yul\":15919:15920   */\n      dup3\n        /* \"#utility.yul\":15916:15917   */\n      dup3\n        /* \"#utility.yul\":15913:15921   */\n      lt\n        /* \"#utility.yul\":15910:15944   */\n      iszero\n      tag_430\n      jumpi\n        /* \"#utility.yul\":15924:15942   */\n      tag_431\n      tag_280\n      jump\t// in\n    tag_431:\n        /* \"#utility.yul\":15910:15944   */\n    tag_430:\n        /* \"#utility.yul\":15969:15970   */\n      dup3\n        /* \"#utility.yul\":15966:15967   */\n      dup3\n        /* \"#utility.yul\":15962:15971   */\n      sub\n        /* \"#utility.yul\":15954:15971   */\n      swap1\n      pop\n        /* \"#utility.yul\":15786:15977   */\n      swap3\n      swap2\n      pop\n      pop\n      jump\t// out\n        /* \"#utility.yul\":15983:16331   */\n    tag_156:\n        /* \"#utility.yul\":16023:16030   */\n      0x00\n        /* \"#utility.yul\":16046:16066   */\n      tag_433\n        /* \"#utility.yul\":16064:16065   */\n      dup3\n        /* \"#utility.yul\":16046:16066   */\n      tag_238\n      jump\t// in\n    tag_433:\n        /* \"#utility.yul\":16041:16066   */\n      swap2\n      pop\n        /* \"#utility.yul\":16080:16100   */\n      tag_434\n        /* \"#utility.yul\":16098:16099   */\n      dup4\n        /* \"#utility.yul\":16080:16100   */\n      tag_238\n      jump\t// in\n    tag_434:\n        /* \"#utility.yul\":16075:16100   */\n      swap3\n      pop\n        /* \"#utility.yul\":16268:16269   */\n      dup2\n        /* \"#utility.yul\":16200:16266   */\n      0xffffffffffffffffffffffffffffffffffffffffffffffffffffffffffffffff\n        /* \"#utility.yul\":16196:16270   */\n      div\n        /* \"#utility.yul\":16193:16194   */\n      dup4\n        /* \"#utility.yul\":16190:16271   */\n      gt\n        /* \"#utility.yul\":16185:16186   */\n      dup3\n        /* \"#utility.yul\":16178:16187   */\n      iszero\n        /* \"#utility.yul\":16171:16188   */\n      iszero\n        /* \"#utility.yul\":16167:16272   */\n      and\n        /* \"#utility.yul\":16164:16295   */\n      iszero\n      tag_435\n      jumpi\n        /* \"#utility.yul\":16275:16293   */\n      tag_436\n      tag_280\n      jump\t// in\n    tag_436:\n        /* \"#utility.yul\":16164:16295   */\n    tag_435:\n        /* \"#utility.yul\":16323:16324   */\n      dup3\n        /* \"#utility.yul\":16320:16321   */\n      dup3\n        /* \"#utility.yul\":16316:16325   */\n      mul\n        /* \"#utility.yul\":16305:16325   */\n      swap1\n      pop\n        /* \"#utility.yul\":15983:16331   */\n      swap3\n      swap2\n      pop\n      pop\n      jump\t// out\n        /* \"#utility.yul\":16337:16517   */\n    tag_281:\n        /* \"#utility.yul\":16385:16462   */\n      0x4e487b7100000000000000000000000000000000000000000000000000000000\n        /* \"#utility.yul\":16382:16383   */\n      0x00\n        /* \"#utility.yul\":16375:16463   */\n      mstore\n        /* \"#utility.yul\":16482:16486   */\n      0x12\n        /* \"#utility.yul\":16479:16480   */\n      0x04\n        /* \"#utility.yul\":16472:16487   */\n      mstore\n        /* \"#utility.yul\":16506:16510   */\n      0x24\n        /* \"#utility.yul\":16503:16504   */\n      0x00\n        /* \"#utility.yul\":16496:16511   */\n      revert\n        /* \"#utility.yul\":16523:16708   */\n    tag_158:\n        /* \"#utility.yul\":16563:16564   */\n      0x00\n        /* \"#utility.yul\":16580:16600   */\n      tag_439\n        /* \"#utility.yul\":16598:16599   */\n      dup3\n        /* \"#utility.yul\":16580:16600   */\n      tag_238\n      jump\t// in\n    tag_439:\n        /* \"#utility.yul\":16575:16600   */\n      swap2\n      pop\n        /* \"#utility.yul\":16614:16634   */\n      tag_440\n        /* \"#utility.yul\":16632:16633   */\n      dup4\n        /* \"#utility.yul\":16614:16634   */\n      tag_238\n      jump\t// in\n    tag_440:\n        /* \"#utility.yul\":16609:16634   */\n      swap3\n      pop\n        /* \"#utility.yul\":16653:16654   */\n      dup3\n        /* \"#utility.yul\":16643:16678   */\n      tag_441\n      jumpi\n        /* \"#utility.yul\":16658:16676   */\n      tag_442\n      tag_281\n      jump\t// in\n    tag_442:\n        /* \"#utility.yul\":16643:16678   */\n    tag_441:\n        /* \"#utility.yul\":16700:16701   */\n      dup3\n        /* \"#utility.yul\":16697:16698   */\n      dup3\n        /* \"#utility.yul\":16693:16702   */\n      div\n        /* \"#utility.yul\":16688:16702   */\n      swap1\n      pop\n        /* \"#utility.yul\":16523:16708   */\n      swap3\n      swap2\n      pop\n      pop\n      jump\t// out\n        /* \"#utility.yul\":16714:16894   */\n    tag_282:\n        /* \"#utility.yul\":16854:16886   */\n      0x4e6f7420656e6f75676820626c616e636520746f20706c616365206269640000\n        /* \"#utility.yul\":16850:16851   */\n      0x00\n        /* \"#utility.yul\":16842:16848   */\n      dup3\n        /* \"#utility.yul\":16838:16852   */\n      add\n        /* \"#utility.yul\":16831:16887   */\n      mstore\n        /* \"#utility.yul\":16714:16894   */\n      pop\n      jump\t// out\n        /* \"#utility.yul\":16900:17266   */\n    tag_283:\n        /* \"#utility.yul\":17042:17045   */\n      0x00\n        /* \"#utility.yul\":17063:17130   */\n      tag_445\n        /* \"#utility.yul\":17127:17129   */\n      0x1e\n        /* \"#utility.yul\":17122:17125   */\n      dup4\n        /* \"#utility.yul\":17063:17130   */\n      tag_264\n      jump\t// in\n    tag_445:\n        /* \"#utility.yul\":17056:17130   */\n      swap2\n      pop\n        /* \"#utility.yul\":17139:17232   */\n      tag_446\n        /* \"#utility.yul\":17228:17231   */\n      dup3\n        /* \"#utility.yul\":17139:17232   */\n      tag_282\n      jump\t// in\n    tag_446:\n        /* \"#utility.yul\":17257:17259   */\n      0x20\n        /* \"#utility.yul\":17252:17255   */\n      dup3\n        /* \"#utility.yul\":17248:17260   */\n      add\n        /* \"#utility.yul\":17241:17260   */\n      swap1\n      pop\n        /* \"#utility.yul\":16900:17266   */\n      swap2\n      swap1\n      pop\n      jump\t// out\n        /* \"#utility.yul\":17272:17691   */\n    tag_187:\n        /* \"#utility.yul\":17438:17442   */\n      0x00\n        /* \"#utility.yul\":17476:17478   */\n      0x20\n        /* \"#utility.yul\":17465:17474   */\n      dup3\n        /* \"#utility.yul\":17461:17479   */\n      add\n        /* \"#utility.yul\":17453:17479   */\n      swap1\n      pop\n        /* \"#utility.yul\":17525:17534   */\n      dup2\n        /* \"#utility.yul\":17519:17523   */\n      dup2\n        /* \"#utility.yul\":17515:17535   */\n      sub\n        /* \"#utility.yul\":17511:17512   */\n      0x00\n        /* \"#utility.yul\":17500:17509   */\n      dup4\n        /* \"#utility.yul\":17496:17513   */\n      add\n        /* \"#utility.yul\":17489:17536   */\n      mstore\n        /* \"#utility.yul\":17553:17684   */\n      tag_448\n        /* \"#utility.yul\":17679:17683   */\n      dup2\n        /* \"#utility.yul\":17553:17684   */\n      tag_283\n      jump\t// in\n    tag_448:\n        /* \"#utility.yul\":17545:17684   */\n      swap1\n      pop\n        /* \"#utility.yul\":17272:17691   */\n      swap2\n      swap1\n      pop\n      jump\t// out\n        /* \"#utility.yul\":17697:17930   */\n    tag_197:\n        /* \"#utility.yul\":17736:17739   */\n      0x00\n        /* \"#utility.yul\":17759:17783   */\n      tag_450\n        /* \"#utility.yul\":17777:17782   */\n      dup3\n        /* \"#utility.yul\":17759:17783   */\n      tag_238\n      jump\t// in\n    tag_450:\n        /* \"#utility.yul\":17750:17783   */\n      swap2\n      pop\n        /* \"#utility.yul\":17805:17871   */\n      0xffffffffffffffffffffffffffffffffffffffffffffffffffffffffffffffff\n        /* \"#utility.yul\":17798:17803   */\n      dup3\n        /* \"#utility.yul\":17795:17872   */\n      sub\n        /* \"#utility.yul\":17792:17895   */\n      tag_451\n      jumpi\n        /* \"#utility.yul\":17875:17893   */\n      tag_452\n      tag_280\n      jump\t// in\n    tag_452:\n        /* \"#utility.yul\":17792:17895   */\n    tag_451:\n        /* \"#utility.yul\":17922:17923   */\n      0x01\n        /* \"#utility.yul\":17915:17920   */\n      dup3\n        /* \"#utility.yul\":17911:17924   */\n      add\n        /* \"#utility.yul\":17904:17924   */\n      swap1\n      pop\n        /* \"#utility.yul\":17697:17930   */\n      swap2\n      swap1\n      pop\n      jump\t// out\n        /* \"#utility.yul\":17936:18116   */\n    tag_201:\n        /* \"#utility.yul\":17984:18061   */\n      0x4e487b7100000000000000000000000000000000000000000000000000000000\n        /* \"#utility.yul\":17981:17982   */\n      0x00\n        /* \"#utility.yul\":17974:18062   */\n      mstore\n        /* \"#utility.yul\":18081:18085   */\n      0x41\n        /* \"#utility.yul\":18078:18079   */\n      0x04\n        /* \"#utility.yul\":18071:18086   */\n      mstore\n        /* \"#utility.yul\":18105:18109   */\n      0x24\n        /* \"#utility.yul\":18102:18103   */\n      0x00\n        /* \"#utility.yul\":18095:18110   */\n      revert\n        /* \"#utility.yul\":18122:18298   */\n    tag_207:\n        /* \"#utility.yul\":18154:18155   */\n      0x00\n        /* \"#utility.yul\":18171:18191   */\n      tag_455\n        /* \"#utility.yul\":18189:18190   */\n      dup3\n        /* \"#utility.yul\":18171:18191   */\n      tag_238\n      jump\t// in\n    tag_455:\n        /* \"#utility.yul\":18166:18191   */\n      swap2\n      pop\n        /* \"#utility.yul\":18205:18225   */\n      tag_456\n        /* \"#utility.yul\":18223:18224   */\n      dup4\n        /* \"#utility.yul\":18205:18225   */\n      tag_238\n      jump\t// in\n    tag_456:\n        /* \"#utility.yul\":18200:18225   */\n      swap3\n      pop\n        /* \"#utility.yul\":18244:18245   */\n      dup3\n        /* \"#utility.yul\":18234:18269   */\n      tag_457\n      jumpi\n        /* \"#utility.yul\":18249:18267   */\n      tag_458\n      tag_281\n      jump\t// in\n    tag_458:\n        /* \"#utility.yul\":18234:18269   */\n    tag_457:\n        /* \"#utility.yul\":18290:18291   */\n      dup3\n        /* \"#utility.yul\":18287:18288   */\n      dup3\n        /* \"#utility.yul\":18283:18292   */\n      mod\n        /* \"#utility.yul\":18278:18292   */\n      swap1\n      pop\n        /* \"#utility.yul\":18122:18298   */\n      swap3\n      swap2\n      pop\n      pop\n      jump\t// out\n        /* \"#utility.yul\":18304:18609   */\n    tag_209:\n        /* \"#utility.yul\":18344:18347   */\n      0x00\n        /* \"#utility.yul\":18363:18383   */\n      tag_460\n        /* \"#utility.yul\":18381:18382   */\n      dup3\n        /* \"#utility.yul\":18363:18383   */\n      tag_238\n      jump\t// in\n    tag_460:\n        /* \"#utility.yul\":18358:18383   */\n      swap2\n      pop\n        /* \"#utility.yul\":18397:18417   */\n      tag_461\n        /* \"#utility.yul\":18415:18416   */\n      dup4\n        /* \"#utility.yul\":18397:18417   */\n      tag_238\n      jump\t// in\n    tag_461:\n        /* \"#utility.yul\":18392:18417   */\n      swap3\n      pop\n        /* \"#utility.yul\":18551:18552   */\n      dup3\n        /* \"#utility.yul\":18483:18549   */\n      0xffffffffffffffffffffffffffffffffffffffffffffffffffffffffffffffff\n        /* \"#utility.yul\":18479:18553   */\n      sub\n        /* \"#utility.yul\":18476:18477   */\n      dup3\n        /* \"#utility.yul\":18473:18554   */\n      gt\n        /* \"#utility.yul\":18470:18577   */\n      iszero\n      tag_462\n      jumpi\n        /* \"#utility.yul\":18557:18575   */\n      tag_463\n      tag_280\n      jump\t// in\n    tag_463:\n        /* \"#utility.yul\":18470:18577   */\n    tag_462:\n        /* \"#utility.yul\":18601:18602   */\n      dup3\n        /* \"#utility.yul\":18598:18599   */\n      dup3\n        /* \"#utility.yul\":18594:18603   */\n      add\n        /* \"#utility.yul\":18587:18603   */\n      swap1\n      pop\n        /* \"#utility.yul\":18304:18609   */\n      swap3\n      swap2\n      pop\n      pop\n      jump\t// out\n        /* \"#utility.yul\":18615:18795   */\n    tag_212:\n        /* \"#utility.yul\":18663:18740   */\n      0x4e487b7100000000000000000000000000000000000000000000000000000000\n        /* \"#utility.yul\":18660:18661   */\n      0x00\n        /* \"#utility.yul\":18653:18741   */\n      mstore\n        /* \"#utility.yul\":18760:18764   */\n      0x32\n        /* \"#utility.yul\":18757:18758   */\n      0x04\n        /* \"#utility.yul\":18750:18765   */\n      mstore\n        /* \"#utility.yul\":18784:18788   */\n      0x24\n        /* \"#utility.yul\":18781:18782   */\n      0x00\n        /* \"#utility.yul\":18774:18789   */\n      revert\n        /* \"#utility.yul\":18801:18897   */\n    tag_284:\n        /* \"#utility.yul\":18838:18845   */\n      0x00\n        /* \"#utility.yul\":18867:18891   */\n      tag_466\n        /* \"#utility.yul\":18885:18890   */\n      dup3\n        /* \"#utility.yul\":18867:18891   */\n      tag_252\n      jump\t// in\n    tag_466:\n        /* \"#utility.yul\":18856:18891   */\n      swap1\n      pop\n        /* \"#utility.yul\":18801:18897   */\n      swap2\n      swap1\n      pop\n      jump\t// out\n        /* \"#utility.yul\":18903:19021   */\n    tag_285:\n        /* \"#utility.yul\":18990:19014   */\n      tag_468\n        /* \"#utility.yul\":19008:19013   */\n      dup2\n        /* \"#utility.yul\":18990:19014   */\n      tag_284\n      jump\t// in\n    tag_468:\n        /* \"#utility.yul\":18985:18988   */\n      dup3\n        /* \"#utility.yul\":18978:19015   */\n      mstore\n        /* \"#utility.yul\":18903:19021   */\n      pop\n      pop\n      jump\t// out\n        /* \"#utility.yul\":19027:19112   */\n    tag_286:\n        /* \"#utility.yul\":19072:19079   */\n      0x00\n        /* \"#utility.yul\":19101:19106   */\n      dup2\n        /* \"#utility.yul\":19090:19106   */\n      swap1\n      pop\n        /* \"#utility.yul\":19027:19112   */\n      swap2\n      swap1\n      pop\n      jump\t// out\n        /* \"#utility.yul\":19118:19178   */\n    tag_287:\n        /* \"#utility.yul\":19146:19149   */\n      0x00\n        /* \"#utility.yul\":19167:19172   */\n      dup2\n        /* \"#utility.yul\":19160:19172   */\n      swap1\n      pop\n        /* \"#utility.yul\":19118:19178   */\n      swap2\n      swap1\n      pop\n      jump\t// out\n        /* \"#utility.yul\":19184:19342   */\n    tag_288:\n        /* \"#utility.yul\":19242:19251   */\n      0x00\n        /* \"#utility.yul\":19275:19336   */\n      tag_472\n        /* \"#utility.yul\":19293:19335   */\n      tag_473\n        /* \"#utility.yul\":19302:19334   */\n      tag_474\n        /* \"#utility.yul\":19328:19333   */\n      dup5\n        /* \"#utility.yul\":19302:19334   */\n      tag_286\n      jump\t// in\n    tag_474:\n        /* \"#utility.yul\":19293:19335   */\n      tag_287\n      jump\t// in\n    tag_473:\n        /* \"#utility.yul\":19275:19336   */\n      tag_238\n      jump\t// in\n    tag_472:\n        /* \"#utility.yul\":19262:19336   */\n      swap1\n      pop\n        /* \"#utility.yul\":19184:19342   */\n      swap2\n      swap1\n      pop\n      jump\t// out\n        /* \"#utility.yul\":19348:19495   */\n    tag_289:\n        /* \"#utility.yul\":19443:19488   */\n      tag_476\n        /* \"#utility.yul\":19482:19487   */\n      dup2\n        /* \"#utility.yul\":19443:19488   */\n      tag_288\n      jump\t// in\n    tag_476:\n        /* \"#utility.yul\":19438:19441   */\n      dup3\n        /* \"#utility.yul\":19431:19489   */\n      mstore\n        /* \"#utility.yul\":19348:19495   */\n      pop\n      pop\n      jump\t// out\n        /* \"#utility.yul\":19501:20528   */\n    tag_223:\n        /* \"#utility.yul\":19805:19809   */\n      0x00\n        /* \"#utility.yul\":19843:19846   */\n      0x0100\n        /* \"#utility.yul\":19832:19841   */\n      dup3\n        /* \"#utility.yul\":19828:19847   */\n      add\n        /* \"#utility.yul\":19820:19847   */\n      swap1\n      pop\n        /* \"#utility.yul\":19857:19928   */\n      tag_478\n        /* \"#utility.yul\":19925:19926   */\n      0x00\n        /* \"#utility.yul\":19914:19923   */\n      dup4\n        /* \"#utility.yul\":19910:19927   */\n      add\n        /* \"#utility.yul\":19901:19907   */\n      dup12\n        /* \"#utility.yul\":19857:19928   */\n      tag_285\n      jump\t// in\n    tag_478:\n        /* \"#utility.yul\":19938:20010   */\n      tag_479\n        /* \"#utility.yul\":20006:20008   */\n      0x20\n        /* \"#utility.yul\":19995:20004   */\n      dup4\n        /* \"#utility.yul\":19991:20009   */\n      add\n        /* \"#utility.yul\":19982:19988   */\n      dup11\n        /* \"#utility.yul\":19938:20010   */\n      tag_248\n      jump\t// in\n    tag_479:\n        /* \"#utility.yul\":20020:20092   */\n      tag_480\n        /* \"#utility.yul\":20088:20090   */\n      0x40\n        /* \"#utility.yul\":20077:20086   */\n      dup4\n        /* \"#utility.yul\":20073:20091   */\n      add\n        /* \"#utility.yul\":20064:20070   */\n      dup10\n        /* \"#utility.yul\":20020:20092   */\n      tag_248\n      jump\t// in\n    tag_480:\n        /* \"#utility.yul\":20102:20179   */\n      tag_481\n        /* \"#utility.yul\":20175:20177   */\n      0x60\n        /* \"#utility.yul\":20164:20173   */\n      dup4\n        /* \"#utility.yul\":20160:20178   */\n      add\n        /* \"#utility.yul\":20151:20157   */\n      dup9\n        /* \"#utility.yul\":20102:20179   */\n      tag_268\n      jump\t// in\n    tag_481:\n        /* \"#utility.yul\":20189:20262   */\n      tag_482\n        /* \"#utility.yul\":20257:20260   */\n      0x80\n        /* \"#utility.yul\":20246:20255   */\n      dup4\n        /* \"#utility.yul\":20242:20261   */\n      add\n        /* \"#utility.yul\":20233:20239   */\n      dup8\n        /* \"#utility.yul\":20189:20262   */\n      tag_248\n      jump\t// in\n    tag_482:\n        /* \"#utility.yul\":20272:20353   */\n      tag_483\n        /* \"#utility.yul\":20348:20351   */\n      0xa0\n        /* \"#utility.yul\":20337:20346   */\n      dup4\n        /* \"#utility.yul\":20333:20352   */\n      add\n        /* \"#utility.yul\":20324:20330   */\n      dup7\n        /* \"#utility.yul\":20272:20353   */\n      tag_289\n      jump\t// in\n    tag_483:\n        /* \"#utility.yul\":20363:20444   */\n      tag_484\n        /* \"#utility.yul\":20439:20442   */\n      0xc0\n        /* \"#utility.yul\":20428:20437   */\n      dup4\n        /* \"#utility.yul\":20424:20443   */\n      add\n        /* \"#utility.yul\":20415:20421   */\n      dup6\n        /* \"#utility.yul\":20363:20444   */\n      tag_289\n      jump\t// in\n    tag_484:\n        /* \"#utility.yul\":20454:20521   */\n      tag_485\n        /* \"#utility.yul\":20516:20519   */\n      0xe0\n        /* \"#utility.yul\":20505:20514   */\n      dup4\n        /* \"#utility.yul\":20501:20520   */\n      add\n        /* \"#utility.yul\":20492:20498   */\n      dup5\n        /* \"#utility.yul\":20454:20521   */\n      tag_271\n      jump\t// in\n    tag_485:\n        /* \"#utility.yul\":19501:20528   */\n      swap10\n      swap9\n      pop\n      pop\n      pop\n      pop\n      pop\n      pop\n      pop\n      pop\n      pop\n      jump\t// out\n\n    auxdata: 0xa2646970667358221220700c91e19865865a05227c029edc5cd7ae02ed01ec51022e8d91c9c82bde6c8b64736f6c634300080d0033\n}\n",
				"bytecode": {
					"linkReferences": {},
					"object": "608060405233600160006101000a81548173ffffffffffffffffffffffffffffffffffffffff021916908373ffffffffffffffffffffffffffffffffffffffff1602179055503480156200005257600080fd5b5060405162001dd538038062001dd58339818101604052810190620000789190620000e6565b8060028190555060006004819055506000600581905550600060078190555060006008819055505062000118565b600080fd5b6000819050919050565b620000c081620000ab565b8114620000cc57600080fd5b50565b600081519050620000e081620000b5565b92915050565b600060208284031215620000ff57620000fe620000a6565b5b60006200010f84828501620000cf565b91505092915050565b611cad80620001286000396000f3fe6080604052600436106101145760003560e01c806378c5b268116100a0578063b40a562711610064578063b40a562714610399578063bf77ffae146103c4578063ce0cdc8714610401578063d09ef2411461042c578063db3a13961461047057610114565b806378c5b268146102e2578063801d9bbd146102fe5780639703ef35146103295780639979ef4514610352578063a394fda71461036e57610114565b806344e791e0116100e757806344e791e0146101d55780634d46712d1461020057806369f632e21461023d5780636e5b0f001461027a578063734a2e78146102a557610114565b8063122de8f2146101195780631628e0f5146101445780632db6dfa71461016d5780634471417f146101aa575b600080fd5b34801561012557600080fd5b5061012e6104ad565b60405161013b91906112c4565b60405180910390f35b34801561015057600080fd5b5061016b60048036038101906101669190611317565b6104b2565b005b34801561017957600080fd5b50610194600480360381019061018f9190611317565b610758565b6040516101a19190611353565b60405180910390f35b3480156101b657600080fd5b506101bf610778565b6040516101cc9190611563565b60405180910390f35b3480156101e157600080fd5b506101ea61077d565b6040516101f7919061161e565b60405180910390f35b34801561020c57600080fd5b5061022760048036038101906102229190611317565b6107dd565b604051610234919061164f565b60405180910390f35b34801561024957600080fd5b50610264600480360381019061025f9190611317565b61080a565b6040516102719190611679565b60405180910390f35b34801561028657600080fd5b5061028f61084a565b60405161029c9190611353565b60405180910390f35b3480156102b157600080fd5b506102cc60048036038101906102c79190611317565b610850565b6040516102d99190611679565b60405180910390f35b6102fc60048036038101906102f79190611317565b610890565b005b34801561030a57600080fd5b50610313610964565b6040516103209190611353565b60405180910390f35b34801561033557600080fd5b50610350600480360381019061034b9190611317565b61096a565b005b61036c60048036038101906103679190611317565b610c10565b005b34801561037a57600080fd5b50610383610c9a565b6040516103909190611353565b60405180910390f35b3480156103a557600080fd5b506103ae610ca0565b6040516103bb9190611353565b60405180910390f35b3480156103d057600080fd5b506103eb60048036038101906103e69190611317565b610ca6565b6040516103f8919061164f565b60405180910390f35b34801561040d57600080fd5b50610416610cd3565b60405161042391906112c4565b60405180910390f35b34801561043857600080fd5b50610453600480360381019061044e9190611317565b610cd8565b6040516104679897969594939291906116af565b60405180910390f35b34801561047c57600080fd5b5061049760048036038101906104929190611317565b610cef565b6040516104a49190611353565b60405180910390f35b606090565b600660008281526020019081526020016000206040518060e00160405290816000820160009054906101000a900473ffffffffffffffffffffffffffffffffffffffff1673ffffffffffffffffffffffffffffffffffffffff1673ffffffffffffffffffffffffffffffffffffffff16815260200160018201548152602001600282015481526020016003820160009054906101000a900460ff16600181111561055f5761055e6113db565b5b6001811115610571576105706113db565b5b81526020016004820154815260200160058201548152602001600682015481525050600060018111156105a7576105a66113db565b5b816060015160018111156105be576105bd6113db565b5b146105fe576040517f08c379a00000000000000000000000000000000000000000000000000000000081526004016105f590611779565b60405180910390fd5b600660008381526020019081526020016000206040518060e00160405290816000820160009054906101000a900473ffffffffffffffffffffffffffffffffffffffff1673ffffffffffffffffffffffffffffffffffffffff1673ffffffffffffffffffffffffffffffffffffffff16815260200160018201548152602001600282015481526020016003820160009054906101000a900460ff1660018111156106ab576106aa6113db565b5b60018111156106bd576106bc6113db565b5b81526020016004820154815260200160058201548152602001600682015481525050338073ffffffffffffffffffffffffffffffffffffffff16826000015173ffffffffffffffffffffffffffffffffffffffff1614610752576040517f08c379a0000000000000000000000000000000000000000000000000000000008152600401610749906117e5565b60405180910390fd5b50505050565b600060036000838152602001908152602001600020600101549050919050565b606090565b60606000600754905060006040518060200160405280600081525090505b600082146107d55760006006600084815260200190815260200160002060050154905060006107c984610d0f565b9050819350505061079b565b809250505090565b60006006600083815260200190815260200160002060030160009054906101000a900460ff169050919050565b60006003600083815260200190815260200160002060000160009054906101000a900473ffffffffffffffffffffffffffffffffffffffff169050919050565b60045481565b60006006600083815260200190815260200160002060000160009054906101000a900473ffffffffffffffffffffffffffffffffffffffff169050919050565b60008110156108d4576040517f08c379a00000000000000000000000000000000000000000000000000000000081526004016108cb90611851565b60405180910390fd5b80341015610917576040517f08c379a000000000000000000000000000000000000000000000000000000000815260040161090e906118bd565b60405180910390fd5b600042905060006064600254606461092f919061190c565b3461093a9190611940565b61094491906119c9565b90506000610953338484610e6f565b905061095e8161100a565b50505050565b60075481565b600360008281526020019081526020016000206040518060e00160405290816000820160009054906101000a900473ffffffffffffffffffffffffffffffffffffffff1673ffffffffffffffffffffffffffffffffffffffff1673ffffffffffffffffffffffffffffffffffffffff16815260200160018201548152602001600282015481526020016003820160009054906101000a900460ff166001811115610a1757610a166113db565b5b6001811115610a2957610a286113db565b5b8152602001600482015481526020016005820154815260200160068201548152505060006001811115610a5f57610a5e6113db565b5b81606001516001811115610a7657610a756113db565b5b14610ab6576040517f08c379a0000000000000000000000000000000000000000000000000000000008152600401610aad90611779565b60405180910390fd5b600360008381526020019081526020016000206040518060e00160405290816000820160009054906101000a900473ffffffffffffffffffffffffffffffffffffffff1673ffffffffffffffffffffffffffffffffffffffff1673ffffffffffffffffffffffffffffffffffffffff16815260200160018201548152602001600282015481526020016003820160009054906101000a900460ff166001811115610b6357610b626113db565b5b6001811115610b7557610b746113db565b5b81526020016004820154815260200160058201548152602001600682015481525050338073ffffffffffffffffffffffffffffffffffffffff16826000015173ffffffffffffffffffffffffffffffffffffffff1614610c0a576040517f08c379a0000000000000000000000000000000000000000000000000000000008152600401610c01906117e5565b60405180910390fd5b50505050565b6000811015610c54576040517f08c379a0000000000000000000000000000000000000000000000000000000008152600401610c4b90611851565b60405180910390fd5b80341015610c97576040517f08c379a0000000000000000000000000000000000000000000000000000000008152600401610c8e90611a46565b60405180910390fd5b50565b60085481565b60055481565b60006003600083815260200190815260200160002060030160009054906101000a900460ff169050919050565b606090565b600080600080600080600080919395975091939597565b600060066000838152602001908152602001600020600101549050919050565b606060008203610d56576040518060400160405280600181526020017f30000000000000000000000000000000000000000000000000000000000000008152509050610e6a565b600082905060005b60008214610d88578080610d7190611a66565b915050600a82610d8191906119c9565b9150610d5e565b60008167ffffffffffffffff811115610da457610da3611aae565b5b6040519080825280601f01601f191660200182016040528015610dd65781602001600182028036833780820191505090505b5090505b60008514610e6357600182610def919061190c565b9150600a85610dfe9190611add565b6030610e0a9190611b0e565b60f81b818381518110610e2057610e1f611b64565b5b60200101907effffffffffffffffffffffffffffffffffffffffffffffffffffffffffffff1916908160001a905350600a85610e5c91906119c9565b9450610dda565b8093505050505b919050565b610e77611197565b60086000815480929190610e8a90611a66565b919050555060006040518060e001604052808673ffffffffffffffffffffffffffffffffffffffff16815260200185815260200184815260200160006001811115610ed857610ed76113db565b5b8152602001600854815260200160008152602001600081525090508060066000600854815260200190815260200160002060008201518160000160006101000a81548173ffffffffffffffffffffffffffffffffffffffff021916908373ffffffffffffffffffffffffffffffffffffffff160217905550602082015181600101556040820151816002015560608201518160030160006101000a81548160ff02191690836001811115610f8f57610f8e6113db565b5b02179055506080820151816004015560a0820151816005015560c082015181600601559050507f93caf6ba1af44020dfe6076e279533e38bd8deefe534c43aa8cc93aad2025b7d85858560006008546000806000604051610ff7989796959493929190611bf9565b60405180910390a1809150509392505050565b60008060075403611025578160800151600781905550611193565b81602001516006600060075481526020019081526020016000206001015410611087576007548260a00181815250508160800151600660008460a001518152602001908152602001600020600601819055508160800151600781905550611192565b60075490505b60006006600083815260200190815260200160002060050154141580156110e357508160200151600660006006600085815260200190815260200160002060050154815260200190815260200160002060010154105b15611106576006600082815260200190815260200160002060050154905061108d565b60066000828152602001908152602001600020600501548260a00181815250506000600660008381526020019081526020016000206005015414611168578160800151600660008460a001518152602001908152602001600020600601819055505b81608001516006600083815260200190815260200160002060050181905550808260c00181815250505b5b5050565b6040518060e00160405280600073ffffffffffffffffffffffffffffffffffffffff1681526020016000815260200160008152602001600060018111156111e1576111e06113db565b5b81526020016000815260200160008152602001600081525090565b600081519050919050565b600082825260208201905092915050565b6000819050602082019050919050565b6000819050919050565b61123b81611228565b82525050565b600061124d8383611232565b60208301905092915050565b6000602082019050919050565b6000611271826111fc565b61127b8185611207565b935061128683611218565b8060005b838110156112b757815161129e8882611241565b97506112a983611259565b92505060018101905061128a565b5085935050505092915050565b600060208201905081810360008301526112de8184611266565b905092915050565b600080fd5b6112f481611228565b81146112ff57600080fd5b50565b600081359050611311816112eb565b92915050565b60006020828403121561132d5761132c6112e6565b5b600061133b84828501611302565b91505092915050565b61134d81611228565b82525050565b60006020820190506113686000830184611344565b92915050565b600081519050919050565b600082825260208201905092915050565b6000819050602082019050919050565b600073ffffffffffffffffffffffffffffffffffffffff82169050919050565b60006113c58261139a565b9050919050565b6113d5816113ba565b82525050565b7f4e487b7100000000000000000000000000000000000000000000000000000000600052602160045260246000fd5b6002811061141b5761141a6113db565b5b50565b600081905061142c8261140a565b919050565b600061143c8261141e565b9050919050565b61144c81611431565b82525050565b60e08201600082015161146860008501826113cc565b50602082015161147b6020850182611232565b50604082015161148e6040850182611232565b5060608201516114a16060850182611443565b5060808201516114b46080850182611232565b5060a08201516114c760a0850182611232565b5060c08201516114da60c0850182611232565b50505050565b60006114ec8383611452565b60e08301905092915050565b6000602082019050919050565b60006115108261136e565b61151a8185611379565b93506115258361138a565b8060005b8381101561155657815161153d88826114e0565b9750611548836114f8565b925050600181019050611529565b5085935050505092915050565b6000602082019050818103600083015261157d8184611505565b905092915050565b600081519050919050565b600082825260208201905092915050565b60005b838110156115bf5780820151818401526020810190506115a4565b838111156115ce576000848401525b50505050565b6000601f19601f8301169050919050565b60006115f082611585565b6115fa8185611590565b935061160a8185602086016115a1565b611613816115d4565b840191505092915050565b6000602082019050818103600083015261163881846115e5565b905092915050565b61164981611431565b82525050565b60006020820190506116646000830184611640565b92915050565b611673816113ba565b82525050565b600060208201905061168e600083018461166a565b92915050565b60008115159050919050565b6116a981611694565b82525050565b6000610100820190506116c5600083018b61166a565b6116d2602083018a611344565b6116df6040830189611344565b6116ec6060830188611640565b6116f96080830187611344565b61170660a0830186611344565b61171360c0830185611344565b61172060e08301846116a0565b9998505050505050505050565b7f4f726465722050656e64696e6700000000000000000000000000000000000000600082015250565b6000611763600d83611590565b915061176e8261172d565b602082019050919050565b6000602082019050818103600083015261179281611756565b9050919050565b7f4e6f7420417574686f7269736564000000000000000000000000000000000000600082015250565b60006117cf600e83611590565b91506117da82611799565b602082019050919050565b600060208201905081810360008301526117fe816117c2565b9050919050565b7f70726963652076616c7565206d757374206265206d6f7265207468616e203000600082015250565b600061183b601f83611590565b915061184682611805565b602082019050919050565b6000602082019050818103600083015261186a8161182e565b9050919050565b7f4e6f7420656e6f75676820626c616e636520746f20706c6163652061736b0000600082015250565b60006118a7601e83611590565b91506118b282611871565b602082019050919050565b600060208201905081810360008301526118d68161189a565b9050919050565b7f4e487b7100000000000000000000000000000000000000000000000000000000600052601160045260246000fd5b600061191782611228565b915061192283611228565b925082821015611935576119346118dd565b5b828203905092915050565b600061194b82611228565b915061195683611228565b9250817fffffffffffffffffffffffffffffffffffffffffffffffffffffffffffffffff048311821515161561198f5761198e6118dd565b5b828202905092915050565b7f4e487b7100000000000000000000000000000000000000000000000000000000600052601260045260246000fd5b60006119d482611228565b91506119df83611228565b9250826119ef576119ee61199a565b5b828204905092915050565b7f4e6f7420656e6f75676820626c616e636520746f20706c616365206269640000600082015250565b6000611a30601e83611590565b9150611a3b826119fa565b602082019050919050565b60006020820190508181036000830152611a5f81611a23565b9050919050565b6000611a7182611228565b91507fffffffffffffffffffffffffffffffffffffffffffffffffffffffffffffffff8203611aa357611aa26118dd565b5b600182019050919050565b7f4e487b7100000000000000000000000000000000000000000000000000000000600052604160045260246000fd5b6000611ae882611228565b9150611af383611228565b925082611b0357611b0261199a565b5b828206905092915050565b6000611b1982611228565b9150611b2483611228565b9250827fffffffffffffffffffffffffffffffffffffffffffffffffffffffffffffffff03821115611b5957611b586118dd565b5b828201905092915050565b7f4e487b7100000000000000000000000000000000000000000000000000000000600052603260045260246000fd5b6000611b9e8261139a565b9050919050565b611bae81611b93565b82525050565b6000819050919050565b6000819050919050565b6000611be3611bde611bd984611bb4565b611bbe565b611228565b9050919050565b611bf381611bc8565b82525050565b600061010082019050611c0f600083018b611ba5565b611c1c602083018a611344565b611c296040830189611344565b611c366060830188611640565b611c436080830187611344565b611c5060a0830186611bea565b611c5d60c0830185611bea565b611c6a60e08301846116a0565b999850505050505050505056fea2646970667358221220700c91e19865865a05227c029edc5cd7ae02ed01ec51022e8d91c9c82bde6c8b64736f6c634300080d0033",
					"opcodes": "PUSH1 0x80 PUSH1 0x40 MSTORE CALLER PUSH1 0x1 PUSH1 0x0 PUSH2 0x100 EXP DUP2 SLOAD DUP2 PUSH20 0xFFFFFFFFFFFFFFFFFFFFFFFFFFFFFFFFFFFFFFFF MUL NOT AND SWAP1 DUP4 PUSH20 0xFFFFFFFFFFFFFFFFFFFFFFFFFFFFFFFFFFFFFFFF AND MUL OR SWAP1 SSTORE POP CALLVALUE DUP1 ISZERO PUSH3 0x52 JUMPI PUSH1 0x0 DUP1 REVERT JUMPDEST POP PUSH1 0x40 MLOAD PUSH3 0x1DD5 CODESIZE SUB DUP1 PUSH3 0x1DD5 DUP4 CODECOPY DUP2 DUP2 ADD PUSH1 0x40 MSTORE DUP2 ADD SWAP1 PUSH3 0x78 SWAP2 SWAP1 PUSH3 0xE6 JUMP JUMPDEST DUP1 PUSH1 0x2 DUP2 SWAP1 SSTORE POP PUSH1 0x0 PUSH1 0x4 DUP2 SWAP1 SSTORE POP PUSH1 0x0 PUSH1 0x5 DUP2 SWAP1 SSTORE POP PUSH1 0x0 PUSH1 0x7 DUP2 SWAP1 SSTORE POP PUSH1 0x0 PUSH1 0x8 DUP2 SWAP1 SSTORE POP POP PUSH3 0x118 JUMP JUMPDEST PUSH1 0x0 DUP1 REVERT JUMPDEST PUSH1 0x0 DUP2 SWAP1 POP SWAP2 SWAP1 POP JUMP JUMPDEST PUSH3 0xC0 DUP2 PUSH3 0xAB JUMP JUMPDEST DUP2 EQ PUSH3 0xCC JUMPI PUSH1 0x0 DUP1 REVERT JUMPDEST POP JUMP JUMPDEST PUSH1 0x0 DUP2 MLOAD SWAP1 POP PUSH3 0xE0 DUP2 PUSH3 0xB5 JUMP JUMPDEST SWAP3 SWAP2 POP POP JUMP JUMPDEST PUSH1 0x0 PUSH1 0x20 DUP3 DUP5 SUB SLT ISZERO PUSH3 0xFF JUMPI PUSH3 0xFE PUSH3 0xA6 JUMP JUMPDEST JUMPDEST PUSH1 0x0 PUSH3 0x10F DUP5 DUP3 DUP6 ADD PUSH3 0xCF JUMP JUMPDEST SWAP2 POP POP SWAP3 SWAP2 POP POP JUMP JUMPDEST PUSH2 0x1CAD DUP1 PUSH3 0x128 PUSH1 0x0 CODECOPY PUSH1 0x0 RETURN INVALID PUSH1 0x80 PUSH1 0x40 MSTORE PUSH1 0x4 CALLDATASIZE LT PUSH2 0x114 JUMPI PUSH1 0x0 CALLDATALOAD PUSH1 0xE0 SHR DUP1 PUSH4 0x78C5B268 GT PUSH2 0xA0 JUMPI DUP1 PUSH4 0xB40A5627 GT PUSH2 0x64 JUMPI DUP1 PUSH4 0xB40A5627 EQ PUSH2 0x399 JUMPI DUP1 PUSH4 0xBF77FFAE EQ PUSH2 0x3C4 JUMPI DUP1 PUSH4 0xCE0CDC87 EQ PUSH2 0x401 JUMPI DUP1 PUSH4 0xD09EF241 EQ PUSH2 0x42C JUMPI DUP1 PUSH4 0xDB3A1396 EQ PUSH2 0x470 JUMPI PUSH2 0x114 JUMP JUMPDEST DUP1 PUSH4 0x78C5B268 EQ PUSH2 0x2E2 JUMPI DUP1 PUSH4 0x801D9BBD EQ PUSH2 0x2FE JUMPI DUP1 PUSH4 0x9703EF35 EQ PUSH2 0x329 JUMPI DUP1 PUSH4 0x9979EF45 EQ PUSH2 0x352 JUMPI DUP1 PUSH4 0xA394FDA7 EQ PUSH2 0x36E JUMPI PUSH2 0x114 JUMP JUMPDEST DUP1 PUSH4 0x44E791E0 GT PUSH2 0xE7 JUMPI DUP1 PUSH4 0x44E791E0 EQ PUSH2 0x1D5 JUMPI DUP1 PUSH4 0x4D46712D EQ PUSH2 0x200 JUMPI DUP1 PUSH4 0x69F632E2 EQ PUSH2 0x23D JUMPI DUP1 PUSH4 0x6E5B0F00 EQ PUSH2 0x27A JUMPI DUP1 PUSH4 0x734A2E78 EQ PUSH2 0x2A5 JUMPI PUSH2 0x114 JUMP JUMPDEST DUP1 PUSH4 0x122DE8F2 EQ PUSH2 0x119 JUMPI DUP1 PUSH4 0x1628E0F5 EQ PUSH2 0x144 JUMPI DUP1 PUSH4 0x2DB6DFA7 EQ PUSH2 0x16D JUMPI DUP1 PUSH4 0x4471417F EQ PUSH2 0x1AA JUMPI JUMPDEST PUSH1 0x0 DUP1 REVERT JUMPDEST CALLVALUE DUP1 ISZERO PUSH2 0x125 JUMPI PUSH1 0x0 DUP1 REVERT JUMPDEST POP PUSH2 0x12E PUSH2 0x4AD JUMP JUMPDEST PUSH1 0x40 MLOAD PUSH2 0x13B SWAP2 SWAP1 PUSH2 0x12C4 JUMP JUMPDEST PUSH1 0x40 MLOAD DUP1 SWAP2 SUB SWAP1 RETURN JUMPDEST CALLVALUE DUP1 ISZERO PUSH2 0x150 JUMPI PUSH1 0x0 DUP1 REVERT JUMPDEST POP PUSH2 0x16B PUSH1 0x4 DUP1 CALLDATASIZE SUB DUP2 ADD SWAP1 PUSH2 0x166 SWAP2 SWAP1 PUSH2 0x1317 JUMP JUMPDEST PUSH2 0x4B2 JUMP JUMPDEST STOP JUMPDEST CALLVALUE DUP1 ISZERO PUSH2 0x179 JUMPI PUSH1 0x0 DUP1 REVERT JUMPDEST POP PUSH2 0x194 PUSH1 0x4 DUP1 CALLDATASIZE SUB DUP2 ADD SWAP1 PUSH2 0x18F SWAP2 SWAP1 PUSH2 0x1317 JUMP JUMPDEST PUSH2 0x758 JUMP JUMPDEST PUSH1 0x40 MLOAD PUSH2 0x1A1 SWAP2 SWAP1 PUSH2 0x1353 JUMP JUMPDEST PUSH1 0x40 MLOAD DUP1 SWAP2 SUB SWAP1 RETURN JUMPDEST CALLVALUE DUP1 ISZERO PUSH2 0x1B6 JUMPI PUSH1 0x0 DUP1 REVERT JUMPDEST POP PUSH2 0x1BF PUSH2 0x778 JUMP JUMPDEST PUSH1 0x40 MLOAD PUSH2 0x1CC SWAP2 SWAP1 PUSH2 0x1563 JUMP JUMPDEST PUSH1 0x40 MLOAD DUP1 SWAP2 SUB SWAP1 RETURN JUMPDEST CALLVALUE DUP1 ISZERO PUSH2 0x1E1 JUMPI PUSH1 0x0 DUP1 REVERT JUMPDEST POP PUSH2 0x1EA PUSH2 0x77D JUMP JUMPDEST PUSH1 0x40 MLOAD PUSH2 0x1F7 SWAP2 SWAP1 PUSH2 0x161E JUMP JUMPDEST PUSH1 0x40 MLOAD DUP1 SWAP2 SUB SWAP1 RETURN JUMPDEST CALLVALUE DUP1 ISZERO PUSH2 0x20C JUMPI PUSH1 0x0 DUP1 REVERT JUMPDEST POP PUSH2 0x227 PUSH1 0x4 DUP1 CALLDATASIZE SUB DUP2 ADD SWAP1 PUSH2 0x222 SWAP2 SWAP1 PUSH2 0x1317 JUMP JUMPDEST PUSH2 0x7DD JUMP JUMPDEST PUSH1 0x40 MLOAD PUSH2 0x234 SWAP2 SWAP1 PUSH2 0x164F JUMP JUMPDEST PUSH1 0x40 MLOAD DUP1 SWAP2 SUB SWAP1 RETURN JUMPDEST CALLVALUE DUP1 ISZERO PUSH2 0x249 JUMPI PUSH1 0x0 DUP1 REVERT JUMPDEST POP PUSH2 0x264 PUSH1 0x4 DUP1 CALLDATASIZE SUB DUP2 ADD SWAP1 PUSH2 0x25F SWAP2 SWAP1 PUSH2 0x1317 JUMP JUMPDEST PUSH2 0x80A JUMP JUMPDEST PUSH1 0x40 MLOAD PUSH2 0x271 SWAP2 SWAP1 PUSH2 0x1679 JUMP JUMPDEST PUSH1 0x40 MLOAD DUP1 SWAP2 SUB SWAP1 RETURN JUMPDEST CALLVALUE DUP1 ISZERO PUSH2 0x286 JUMPI PUSH1 0x0 DUP1 REVERT JUMPDEST POP PUSH2 0x28F PUSH2 0x84A JUMP JUMPDEST PUSH1 0x40 MLOAD PUSH2 0x29C SWAP2 SWAP1 PUSH2 0x1353 JUMP JUMPDEST PUSH1 0x40 MLOAD DUP1 SWAP2 SUB SWAP1 RETURN JUMPDEST CALLVALUE DUP1 ISZERO PUSH2 0x2B1 JUMPI PUSH1 0x0 DUP1 REVERT JUMPDEST POP PUSH2 0x2CC PUSH1 0x4 DUP1 CALLDATASIZE SUB DUP2 ADD SWAP1 PUSH2 0x2C7 SWAP2 SWAP1 PUSH2 0x1317 JUMP JUMPDEST PUSH2 0x850 JUMP JUMPDEST PUSH1 0x40 MLOAD PUSH2 0x2D9 SWAP2 SWAP1 PUSH2 0x1679 JUMP JUMPDEST PUSH1 0x40 MLOAD DUP1 SWAP2 SUB SWAP1 RETURN JUMPDEST PUSH2 0x2FC PUSH1 0x4 DUP1 CALLDATASIZE SUB DUP2 ADD SWAP1 PUSH2 0x2F7 SWAP2 SWAP1 PUSH2 0x1317 JUMP JUMPDEST PUSH2 0x890 JUMP JUMPDEST STOP JUMPDEST CALLVALUE DUP1 ISZERO PUSH2 0x30A JUMPI PUSH1 0x0 DUP1 REVERT JUMPDEST POP PUSH2 0x313 PUSH2 0x964 JUMP JUMPDEST PUSH1 0x40 MLOAD PUSH2 0x320 SWAP2 SWAP1 PUSH2 0x1353 JUMP JUMPDEST PUSH1 0x40 MLOAD DUP1 SWAP2 SUB SWAP1 RETURN JUMPDEST CALLVALUE DUP1 ISZERO PUSH2 0x335 JUMPI PUSH1 0x0 DUP1 REVERT JUMPDEST POP PUSH2 0x350 PUSH1 0x4 DUP1 CALLDATASIZE SUB DUP2 ADD SWAP1 PUSH2 0x34B SWAP2 SWAP1 PUSH2 0x1317 JUMP JUMPDEST PUSH2 0x96A JUMP JUMPDEST STOP JUMPDEST PUSH2 0x36C PUSH1 0x4 DUP1 CALLDATASIZE SUB DUP2 ADD SWAP1 PUSH2 0x367 SWAP2 SWAP1 PUSH2 0x1317 JUMP JUMPDEST PUSH2 0xC10 JUMP JUMPDEST STOP JUMPDEST CALLVALUE DUP1 ISZERO PUSH2 0x37A JUMPI PUSH1 0x0 DUP1 REVERT JUMPDEST POP PUSH2 0x383 PUSH2 0xC9A JUMP JUMPDEST PUSH1 0x40 MLOAD PUSH2 0x390 SWAP2 SWAP1 PUSH2 0x1353 JUMP JUMPDEST PUSH1 0x40 MLOAD DUP1 SWAP2 SUB SWAP1 RETURN JUMPDEST CALLVALUE DUP1 ISZERO PUSH2 0x3A5 JUMPI PUSH1 0x0 DUP1 REVERT JUMPDEST POP PUSH2 0x3AE PUSH2 0xCA0 JUMP JUMPDEST PUSH1 0x40 MLOAD PUSH2 0x3BB SWAP2 SWAP1 PUSH2 0x1353 JUMP JUMPDEST PUSH1 0x40 MLOAD DUP1 SWAP2 SUB SWAP1 RETURN JUMPDEST CALLVALUE DUP1 ISZERO PUSH2 0x3D0 JUMPI PUSH1 0x0 DUP1 REVERT JUMPDEST POP PUSH2 0x3EB PUSH1 0x4 DUP1 CALLDATASIZE SUB DUP2 ADD SWAP1 PUSH2 0x3E6 SWAP2 SWAP1 PUSH2 0x1317 JUMP JUMPDEST PUSH2 0xCA6 JUMP JUMPDEST PUSH1 0x40 MLOAD PUSH2 0x3F8 SWAP2 SWAP1 PUSH2 0x164F JUMP JUMPDEST PUSH1 0x40 MLOAD DUP1 SWAP2 SUB SWAP1 RETURN JUMPDEST CALLVALUE DUP1 ISZERO PUSH2 0x40D JUMPI PUSH1 0x0 DUP1 REVERT JUMPDEST POP PUSH2 0x416 PUSH2 0xCD3 JUMP JUMPDEST PUSH1 0x40 MLOAD PUSH2 0x423 SWAP2 SWAP1 PUSH2 0x12C4 JUMP JUMPDEST PUSH1 0x40 MLOAD DUP1 SWAP2 SUB SWAP1 RETURN JUMPDEST CALLVALUE DUP1 ISZERO PUSH2 0x438 JUMPI PUSH1 0x0 DUP1 REVERT JUMPDEST POP PUSH2 0x453 PUSH1 0x4 DUP1 CALLDATASIZE SUB DUP2 ADD SWAP1 PUSH2 0x44E SWAP2 SWAP1 PUSH2 0x1317 JUMP JUMPDEST PUSH2 0xCD8 JUMP JUMPDEST PUSH1 0x40 MLOAD PUSH2 0x467 SWAP9 SWAP8 SWAP7 SWAP6 SWAP5 SWAP4 SWAP3 SWAP2 SWAP1 PUSH2 0x16AF JUMP JUMPDEST PUSH1 0x40 MLOAD DUP1 SWAP2 SUB SWAP1 RETURN JUMPDEST CALLVALUE DUP1 ISZERO PUSH2 0x47C JUMPI PUSH1 0x0 DUP1 REVERT JUMPDEST POP PUSH2 0x497 PUSH1 0x4 DUP1 CALLDATASIZE SUB DUP2 ADD SWAP1 PUSH2 0x492 SWAP2 SWAP1 PUSH2 0x1317 JUMP JUMPDEST PUSH2 0xCEF JUMP JUMPDEST PUSH1 0x40 MLOAD PUSH2 0x4A4 SWAP2 SWAP1 PUSH2 0x1353 JUMP JUMPDEST PUSH1 0x40 MLOAD DUP1 SWAP2 SUB SWAP1 RETURN JUMPDEST PUSH1 0x60 SWAP1 JUMP JUMPDEST PUSH1 0x6 PUSH1 0x0 DUP3 DUP2 MSTORE PUSH1 0x20 ADD SWAP1 DUP2 MSTORE PUSH1 0x20 ADD PUSH1 0x0 KECCAK256 PUSH1 0x40 MLOAD DUP1 PUSH1 0xE0 ADD PUSH1 0x40 MSTORE SWAP1 DUP2 PUSH1 0x0 DUP3 ADD PUSH1 0x0 SWAP1 SLOAD SWAP1 PUSH2 0x100 EXP SWAP1 DIV PUSH20 0xFFFFFFFFFFFFFFFFFFFFFFFFFFFFFFFFFFFFFFFF AND PUSH20 0xFFFFFFFFFFFFFFFFFFFFFFFFFFFFFFFFFFFFFFFF AND PUSH20 0xFFFFFFFFFFFFFFFFFFFFFFFFFFFFFFFFFFFFFFFF AND DUP2 MSTORE PUSH1 0x20 ADD PUSH1 0x1 DUP3 ADD SLOAD DUP2 MSTORE PUSH1 0x20 ADD PUSH1 0x2 DUP3 ADD SLOAD DUP2 MSTORE PUSH1 0x20 ADD PUSH1 0x3 DUP3 ADD PUSH1 0x0 SWAP1 SLOAD SWAP1 PUSH2 0x100 EXP SWAP1 DIV PUSH1 0xFF AND PUSH1 0x1 DUP2 GT ISZERO PUSH2 0x55F JUMPI PUSH2 0x55E PUSH2 0x13DB JUMP JUMPDEST JUMPDEST PUSH1 0x1 DUP2 GT ISZERO PUSH2 0x571 JUMPI PUSH2 0x570 PUSH2 0x13DB JUMP JUMPDEST JUMPDEST DUP2 MSTORE PUSH1 0x20 ADD PUSH1 0x4 DUP3 ADD SLOAD DUP2 MSTORE PUSH1 0x20 ADD PUSH1 0x5 DUP3 ADD SLOAD DUP2 MSTORE PUSH1 0x20 ADD PUSH1 0x6 DUP3 ADD SLOAD DUP2 MSTORE POP POP PUSH1 0x0 PUSH1 0x1 DUP2 GT ISZERO PUSH2 0x5A7 JUMPI PUSH2 0x5A6 PUSH2 0x13DB JUMP JUMPDEST JUMPDEST DUP2 PUSH1 0x60 ADD MLOAD PUSH1 0x1 DUP2 GT ISZERO PUSH2 0x5BE JUMPI PUSH2 0x5BD PUSH2 0x13DB JUMP JUMPDEST JUMPDEST EQ PUSH2 0x5FE JUMPI PUSH1 0x40 MLOAD PUSH32 0x8C379A000000000000000000000000000000000000000000000000000000000 DUP2 MSTORE PUSH1 0x4 ADD PUSH2 0x5F5 SWAP1 PUSH2 0x1779 JUMP JUMPDEST PUSH1 0x40 MLOAD DUP1 SWAP2 SUB SWAP1 REVERT JUMPDEST PUSH1 0x6 PUSH1 0x0 DUP4 DUP2 MSTORE PUSH1 0x20 ADD SWAP1 DUP2 MSTORE PUSH1 0x20 ADD PUSH1 0x0 KECCAK256 PUSH1 0x40 MLOAD DUP1 PUSH1 0xE0 ADD PUSH1 0x40 MSTORE SWAP1 DUP2 PUSH1 0x0 DUP3 ADD PUSH1 0x0 SWAP1 SLOAD SWAP1 PUSH2 0x100 EXP SWAP1 DIV PUSH20 0xFFFFFFFFFFFFFFFFFFFFFFFFFFFFFFFFFFFFFFFF AND PUSH20 0xFFFFFFFFFFFFFFFFFFFFFFFFFFFFFFFFFFFFFFFF AND PUSH20 0xFFFFFFFFFFFFFFFFFFFFFFFFFFFFFFFFFFFFFFFF AND DUP2 MSTORE PUSH1 0x20 ADD PUSH1 0x1 DUP3 ADD SLOAD DUP2 MSTORE PUSH1 0x20 ADD PUSH1 0x2 DUP3 ADD SLOAD DUP2 MSTORE PUSH1 0x20 ADD PUSH1 0x3 DUP3 ADD PUSH1 0x0 SWAP1 SLOAD SWAP1 PUSH2 0x100 EXP SWAP1 DIV PUSH1 0xFF AND PUSH1 0x1 DUP2 GT ISZERO PUSH2 0x6AB JUMPI PUSH2 0x6AA PUSH2 0x13DB JUMP JUMPDEST JUMPDEST PUSH1 0x1 DUP2 GT ISZERO PUSH2 0x6BD JUMPI PUSH2 0x6BC PUSH2 0x13DB JUMP JUMPDEST JUMPDEST DUP2 MSTORE PUSH1 0x20 ADD PUSH1 0x4 DUP3 ADD SLOAD DUP2 MSTORE PUSH1 0x20 ADD PUSH1 0x5 DUP3 ADD SLOAD DUP2 MSTORE PUSH1 0x20 ADD PUSH1 0x6 DUP3 ADD SLOAD DUP2 MSTORE POP POP CALLER DUP1 PUSH20 0xFFFFFFFFFFFFFFFFFFFFFFFFFFFFFFFFFFFFFFFF AND DUP3 PUSH1 0x0 ADD MLOAD PUSH20 0xFFFFFFFFFFFFFFFFFFFFFFFFFFFFFFFFFFFFFFFF AND EQ PUSH2 0x752 JUMPI PUSH1 0x40 MLOAD PUSH32 0x8C379A000000000000000000000000000000000000000000000000000000000 DUP2 MSTORE PUSH1 0x4 ADD PUSH2 0x749 SWAP1 PUSH2 0x17E5 JUMP JUMPDEST PUSH1 0x40 MLOAD DUP1 SWAP2 SUB SWAP1 REVERT JUMPDEST POP POP POP POP JUMP JUMPDEST PUSH1 0x0 PUSH1 0x3 PUSH1 0x0 DUP4 DUP2 MSTORE PUSH1 0x20 ADD SWAP1 DUP2 MSTORE PUSH1 0x20 ADD PUSH1 0x0 KECCAK256 PUSH1 0x1 ADD SLOAD SWAP1 POP SWAP2 SWAP1 POP JUMP JUMPDEST PUSH1 0x60 SWAP1 JUMP JUMPDEST PUSH1 0x60 PUSH1 0x0 PUSH1 0x7 SLOAD SWAP1 POP PUSH1 0x0 PUSH1 0x40 MLOAD DUP1 PUSH1 0x20 ADD PUSH1 0x40 MSTORE DUP1 PUSH1 0x0 DUP2 MSTORE POP SWAP1 POP JUMPDEST PUSH1 0x0 DUP3 EQ PUSH2 0x7D5 JUMPI PUSH1 0x0 PUSH1 0x6 PUSH1 0x0 DUP5 DUP2 MSTORE PUSH1 0x20 ADD SWAP1 DUP2 MSTORE PUSH1 0x20 ADD PUSH1 0x0 KECCAK256 PUSH1 0x5 ADD SLOAD SWAP1 POP PUSH1 0x0 PUSH2 0x7C9 DUP5 PUSH2 0xD0F JUMP JUMPDEST SWAP1 POP DUP2 SWAP4 POP POP POP PUSH2 0x79B JUMP JUMPDEST DUP1 SWAP3 POP POP POP SWAP1 JUMP JUMPDEST PUSH1 0x0 PUSH1 0x6 PUSH1 0x0 DUP4 DUP2 MSTORE PUSH1 0x20 ADD SWAP1 DUP2 MSTORE PUSH1 0x20 ADD PUSH1 0x0 KECCAK256 PUSH1 0x3 ADD PUSH1 0x0 SWAP1 SLOAD SWAP1 PUSH2 0x100 EXP SWAP1 DIV PUSH1 0xFF AND SWAP1 POP SWAP2 SWAP1 POP JUMP JUMPDEST PUSH1 0x0 PUSH1 0x3 PUSH1 0x0 DUP4 DUP2 MSTORE PUSH1 0x20 ADD SWAP1 DUP2 MSTORE PUSH1 0x20 ADD PUSH1 0x0 KECCAK256 PUSH1 0x0 ADD PUSH1 0x0 SWAP1 SLOAD SWAP1 PUSH2 0x100 EXP SWAP1 DIV PUSH20 0xFFFFFFFFFFFFFFFFFFFFFFFFFFFFFFFFFFFFFFFF AND SWAP1 POP SWAP2 SWAP1 POP JUMP JUMPDEST PUSH1 0x4 SLOAD DUP2 JUMP JUMPDEST PUSH1 0x0 PUSH1 0x6 PUSH1 0x0 DUP4 DUP2 MSTORE PUSH1 0x20 ADD SWAP1 DUP2 MSTORE PUSH1 0x20 ADD PUSH1 0x0 KECCAK256 PUSH1 0x0 ADD PUSH1 0x0 SWAP1 SLOAD SWAP1 PUSH2 0x100 EXP SWAP1 DIV PUSH20 0xFFFFFFFFFFFFFFFFFFFFFFFFFFFFFFFFFFFFFFFF AND SWAP1 POP SWAP2 SWAP1 POP JUMP JUMPDEST PUSH1 0x0 DUP2 LT ISZERO PUSH2 0x8D4 JUMPI PUSH1 0x40 MLOAD PUSH32 0x8C379A000000000000000000000000000000000000000000000000000000000 DUP2 MSTORE PUSH1 0x4 ADD PUSH2 0x8CB SWAP1 PUSH2 0x1851 JUMP JUMPDEST PUSH1 0x40 MLOAD DUP1 SWAP2 SUB SWAP1 REVERT JUMPDEST DUP1 CALLVALUE LT ISZERO PUSH2 0x917 JUMPI PUSH1 0x40 MLOAD PUSH32 0x8C379A000000000000000000000000000000000000000000000000000000000 DUP2 MSTORE PUSH1 0x4 ADD PUSH2 0x90E SWAP1 PUSH2 0x18BD JUMP JUMPDEST PUSH1 0x40 MLOAD DUP1 SWAP2 SUB SWAP1 REVERT JUMPDEST PUSH1 0x0 TIMESTAMP SWAP1 POP PUSH1 0x0 PUSH1 0x64 PUSH1 0x2 SLOAD PUSH1 0x64 PUSH2 0x92F SWAP2 SWAP1 PUSH2 0x190C JUMP JUMPDEST CALLVALUE PUSH2 0x93A SWAP2 SWAP1 PUSH2 0x1940 JUMP JUMPDEST PUSH2 0x944 SWAP2 SWAP1 PUSH2 0x19C9 JUMP JUMPDEST SWAP1 POP PUSH1 0x0 PUSH2 0x953 CALLER DUP5 DUP5 PUSH2 0xE6F JUMP JUMPDEST SWAP1 POP PUSH2 0x95E DUP2 PUSH2 0x100A JUMP JUMPDEST POP POP POP POP JUMP JUMPDEST PUSH1 0x7 SLOAD DUP2 JUMP JUMPDEST PUSH1 0x3 PUSH1 0x0 DUP3 DUP2 MSTORE PUSH1 0x20 ADD SWAP1 DUP2 MSTORE PUSH1 0x20 ADD PUSH1 0x0 KECCAK256 PUSH1 0x40 MLOAD DUP1 PUSH1 0xE0 ADD PUSH1 0x40 MSTORE SWAP1 DUP2 PUSH1 0x0 DUP3 ADD PUSH1 0x0 SWAP1 SLOAD SWAP1 PUSH2 0x100 EXP SWAP1 DIV PUSH20 0xFFFFFFFFFFFFFFFFFFFFFFFFFFFFFFFFFFFFFFFF AND PUSH20 0xFFFFFFFFFFFFFFFFFFFFFFFFFFFFFFFFFFFFFFFF AND PUSH20 0xFFFFFFFFFFFFFFFFFFFFFFFFFFFFFFFFFFFFFFFF AND DUP2 MSTORE PUSH1 0x20 ADD PUSH1 0x1 DUP3 ADD SLOAD DUP2 MSTORE PUSH1 0x20 ADD PUSH1 0x2 DUP3 ADD SLOAD DUP2 MSTORE PUSH1 0x20 ADD PUSH1 0x3 DUP3 ADD PUSH1 0x0 SWAP1 SLOAD SWAP1 PUSH2 0x100 EXP SWAP1 DIV PUSH1 0xFF AND PUSH1 0x1 DUP2 GT ISZERO PUSH2 0xA17 JUMPI PUSH2 0xA16 PUSH2 0x13DB JUMP JUMPDEST JUMPDEST PUSH1 0x1 DUP2 GT ISZERO PUSH2 0xA29 JUMPI PUSH2 0xA28 PUSH2 0x13DB JUMP JUMPDEST JUMPDEST DUP2 MSTORE PUSH1 0x20 ADD PUSH1 0x4 DUP3 ADD SLOAD DUP2 MSTORE PUSH1 0x20 ADD PUSH1 0x5 DUP3 ADD SLOAD DUP2 MSTORE PUSH1 0x20 ADD PUSH1 0x6 DUP3 ADD SLOAD DUP2 MSTORE POP POP PUSH1 0x0 PUSH1 0x1 DUP2 GT ISZERO PUSH2 0xA5F JUMPI PUSH2 0xA5E PUSH2 0x13DB JUMP JUMPDEST JUMPDEST DUP2 PUSH1 0x60 ADD MLOAD PUSH1 0x1 DUP2 GT ISZERO PUSH2 0xA76 JUMPI PUSH2 0xA75 PUSH2 0x13DB JUMP JUMPDEST JUMPDEST EQ PUSH2 0xAB6 JUMPI PUSH1 0x40 MLOAD PUSH32 0x8C379A000000000000000000000000000000000000000000000000000000000 DUP2 MSTORE PUSH1 0x4 ADD PUSH2 0xAAD SWAP1 PUSH2 0x1779 JUMP JUMPDEST PUSH1 0x40 MLOAD DUP1 SWAP2 SUB SWAP1 REVERT JUMPDEST PUSH1 0x3 PUSH1 0x0 DUP4 DUP2 MSTORE PUSH1 0x20 ADD SWAP1 DUP2 MSTORE PUSH1 0x20 ADD PUSH1 0x0 KECCAK256 PUSH1 0x40 MLOAD DUP1 PUSH1 0xE0 ADD PUSH1 0x40 MSTORE SWAP1 DUP2 PUSH1 0x0 DUP3 ADD PUSH1 0x0 SWAP1 SLOAD SWAP1 PUSH2 0x100 EXP SWAP1 DIV PUSH20 0xFFFFFFFFFFFFFFFFFFFFFFFFFFFFFFFFFFFFFFFF AND PUSH20 0xFFFFFFFFFFFFFFFFFFFFFFFFFFFFFFFFFFFFFFFF AND PUSH20 0xFFFFFFFFFFFFFFFFFFFFFFFFFFFFFFFFFFFFFFFF AND DUP2 MSTORE PUSH1 0x20 ADD PUSH1 0x1 DUP3 ADD SLOAD DUP2 MSTORE PUSH1 0x20 ADD PUSH1 0x2 DUP3 ADD SLOAD DUP2 MSTORE PUSH1 0x20 ADD PUSH1 0x3 DUP3 ADD PUSH1 0x0 SWAP1 SLOAD SWAP1 PUSH2 0x100 EXP SWAP1 DIV PUSH1 0xFF AND PUSH1 0x1 DUP2 GT ISZERO PUSH2 0xB63 JUMPI PUSH2 0xB62 PUSH2 0x13DB JUMP JUMPDEST JUMPDEST PUSH1 0x1 DUP2 GT ISZERO PUSH2 0xB75 JUMPI PUSH2 0xB74 PUSH2 0x13DB JUMP JUMPDEST JUMPDEST DUP2 MSTORE PUSH1 0x20 ADD PUSH1 0x4 DUP3 ADD SLOAD DUP2 MSTORE PUSH1 0x20 ADD PUSH1 0x5 DUP3 ADD SLOAD DUP2 MSTORE PUSH1 0x20 ADD PUSH1 0x6 DUP3 ADD SLOAD DUP2 MSTORE POP POP CALLER DUP1 PUSH20 0xFFFFFFFFFFFFFFFFFFFFFFFFFFFFFFFFFFFFFFFF AND DUP3 PUSH1 0x0 ADD MLOAD PUSH20 0xFFFFFFFFFFFFFFFFFFFFFFFFFFFFFFFFFFFFFFFF AND EQ PUSH2 0xC0A JUMPI PUSH1 0x40 MLOAD PUSH32 0x8C379A000000000000000000000000000000000000000000000000000000000 DUP2 MSTORE PUSH1 0x4 ADD PUSH2 0xC01 SWAP1 PUSH2 0x17E5 JUMP JUMPDEST PUSH1 0x40 MLOAD DUP1 SWAP2 SUB SWAP1 REVERT JUMPDEST POP POP POP POP JUMP JUMPDEST PUSH1 0x0 DUP2 LT ISZERO PUSH2 0xC54 JUMPI PUSH1 0x40 MLOAD PUSH32 0x8C379A000000000000000000000000000000000000000000000000000000000 DUP2 MSTORE PUSH1 0x4 ADD PUSH2 0xC4B SWAP1 PUSH2 0x1851 JUMP JUMPDEST PUSH1 0x40 MLOAD DUP1 SWAP2 SUB SWAP1 REVERT JUMPDEST DUP1 CALLVALUE LT ISZERO PUSH2 0xC97 JUMPI PUSH1 0x40 MLOAD PUSH32 0x8C379A000000000000000000000000000000000000000000000000000000000 DUP2 MSTORE PUSH1 0x4 ADD PUSH2 0xC8E SWAP1 PUSH2 0x1A46 JUMP JUMPDEST PUSH1 0x40 MLOAD DUP1 SWAP2 SUB SWAP1 REVERT JUMPDEST POP JUMP JUMPDEST PUSH1 0x8 SLOAD DUP2 JUMP JUMPDEST PUSH1 0x5 SLOAD DUP2 JUMP JUMPDEST PUSH1 0x0 PUSH1 0x3 PUSH1 0x0 DUP4 DUP2 MSTORE PUSH1 0x20 ADD SWAP1 DUP2 MSTORE PUSH1 0x20 ADD PUSH1 0x0 KECCAK256 PUSH1 0x3 ADD PUSH1 0x0 SWAP1 SLOAD SWAP1 PUSH2 0x100 EXP SWAP1 DIV PUSH1 0xFF AND SWAP1 POP SWAP2 SWAP1 POP JUMP JUMPDEST PUSH1 0x60 SWAP1 JUMP JUMPDEST PUSH1 0x0 DUP1 PUSH1 0x0 DUP1 PUSH1 0x0 DUP1 PUSH1 0x0 DUP1 SWAP2 SWAP4 SWAP6 SWAP8 POP SWAP2 SWAP4 SWAP6 SWAP8 JUMP JUMPDEST PUSH1 0x0 PUSH1 0x6 PUSH1 0x0 DUP4 DUP2 MSTORE PUSH1 0x20 ADD SWAP1 DUP2 MSTORE PUSH1 0x20 ADD PUSH1 0x0 KECCAK256 PUSH1 0x1 ADD SLOAD SWAP1 POP SWAP2 SWAP1 POP JUMP JUMPDEST PUSH1 0x60 PUSH1 0x0 DUP3 SUB PUSH2 0xD56 JUMPI PUSH1 0x40 MLOAD DUP1 PUSH1 0x40 ADD PUSH1 0x40 MSTORE DUP1 PUSH1 0x1 DUP2 MSTORE PUSH1 0x20 ADD PUSH32 0x3000000000000000000000000000000000000000000000000000000000000000 DUP2 MSTORE POP SWAP1 POP PUSH2 0xE6A JUMP JUMPDEST PUSH1 0x0 DUP3 SWAP1 POP PUSH1 0x0 JUMPDEST PUSH1 0x0 DUP3 EQ PUSH2 0xD88 JUMPI DUP1 DUP1 PUSH2 0xD71 SWAP1 PUSH2 0x1A66 JUMP JUMPDEST SWAP2 POP POP PUSH1 0xA DUP3 PUSH2 0xD81 SWAP2 SWAP1 PUSH2 0x19C9 JUMP JUMPDEST SWAP2 POP PUSH2 0xD5E JUMP JUMPDEST PUSH1 0x0 DUP2 PUSH8 0xFFFFFFFFFFFFFFFF DUP2 GT ISZERO PUSH2 0xDA4 JUMPI PUSH2 0xDA3 PUSH2 0x1AAE JUMP JUMPDEST JUMPDEST PUSH1 0x40 MLOAD SWAP1 DUP1 DUP3 MSTORE DUP1 PUSH1 0x1F ADD PUSH1 0x1F NOT AND PUSH1 0x20 ADD DUP3 ADD PUSH1 0x40 MSTORE DUP1 ISZERO PUSH2 0xDD6 JUMPI DUP2 PUSH1 0x20 ADD PUSH1 0x1 DUP3 MUL DUP1 CALLDATASIZE DUP4 CALLDATACOPY DUP1 DUP3 ADD SWAP2 POP POP SWAP1 POP JUMPDEST POP SWAP1 POP JUMPDEST PUSH1 0x0 DUP6 EQ PUSH2 0xE63 JUMPI PUSH1 0x1 DUP3 PUSH2 0xDEF SWAP2 SWAP1 PUSH2 0x190C JUMP JUMPDEST SWAP2 POP PUSH1 0xA DUP6 PUSH2 0xDFE SWAP2 SWAP1 PUSH2 0x1ADD JUMP JUMPDEST PUSH1 0x30 PUSH2 0xE0A SWAP2 SWAP1 PUSH2 0x1B0E JUMP JUMPDEST PUSH1 0xF8 SHL DUP2 DUP4 DUP2 MLOAD DUP2 LT PUSH2 0xE20 JUMPI PUSH2 0xE1F PUSH2 0x1B64 JUMP JUMPDEST JUMPDEST PUSH1 0x20 ADD ADD SWAP1 PUSH31 0xFFFFFFFFFFFFFFFFFFFFFFFFFFFFFFFFFFFFFFFFFFFFFFFFFFFFFFFFFFFFFF NOT AND SWAP1 DUP2 PUSH1 0x0 BYTE SWAP1 MSTORE8 POP PUSH1 0xA DUP6 PUSH2 0xE5C SWAP2 SWAP1 PUSH2 0x19C9 JUMP JUMPDEST SWAP5 POP PUSH2 0xDDA JUMP JUMPDEST DUP1 SWAP4 POP POP POP POP JUMPDEST SWAP2 SWAP1 POP JUMP JUMPDEST PUSH2 0xE77 PUSH2 0x1197 JUMP JUMPDEST PUSH1 0x8 PUSH1 0x0 DUP2 SLOAD DUP1 SWAP3 SWAP2 SWAP1 PUSH2 0xE8A SWAP1 PUSH2 0x1A66 JUMP JUMPDEST SWAP2 SWAP1 POP SSTORE POP PUSH1 0x0 PUSH1 0x40 MLOAD DUP1 PUSH1 0xE0 ADD PUSH1 0x40 MSTORE DUP1 DUP7 PUSH20 0xFFFFFFFFFFFFFFFFFFFFFFFFFFFFFFFFFFFFFFFF AND DUP2 MSTORE PUSH1 0x20 ADD DUP6 DUP2 MSTORE PUSH1 0x20 ADD DUP5 DUP2 MSTORE PUSH1 0x20 ADD PUSH1 0x0 PUSH1 0x1 DUP2 GT ISZERO PUSH2 0xED8 JUMPI PUSH2 0xED7 PUSH2 0x13DB JUMP JUMPDEST JUMPDEST DUP2 MSTORE PUSH1 0x20 ADD PUSH1 0x8 SLOAD DUP2 MSTORE PUSH1 0x20 ADD PUSH1 0x0 DUP2 MSTORE PUSH1 0x20 ADD PUSH1 0x0 DUP2 MSTORE POP SWAP1 POP DUP1 PUSH1 0x6 PUSH1 0x0 PUSH1 0x8 SLOAD DUP2 MSTORE PUSH1 0x20 ADD SWAP1 DUP2 MSTORE PUSH1 0x20 ADD PUSH1 0x0 KECCAK256 PUSH1 0x0 DUP3 ADD MLOAD DUP2 PUSH1 0x0 ADD PUSH1 0x0 PUSH2 0x100 EXP DUP2 SLOAD DUP2 PUSH20 0xFFFFFFFFFFFFFFFFFFFFFFFFFFFFFFFFFFFFFFFF MUL NOT AND SWAP1 DUP4 PUSH20 0xFFFFFFFFFFFFFFFFFFFFFFFFFFFFFFFFFFFFFFFF AND MUL OR SWAP1 SSTORE POP PUSH1 0x20 DUP3 ADD MLOAD DUP2 PUSH1 0x1 ADD SSTORE PUSH1 0x40 DUP3 ADD MLOAD DUP2 PUSH1 0x2 ADD SSTORE PUSH1 0x60 DUP3 ADD MLOAD DUP2 PUSH1 0x3 ADD PUSH1 0x0 PUSH2 0x100 EXP DUP2 SLOAD DUP2 PUSH1 0xFF MUL NOT AND SWAP1 DUP4 PUSH1 0x1 DUP2 GT ISZERO PUSH2 0xF8F JUMPI PUSH2 0xF8E PUSH2 0x13DB JUMP JUMPDEST JUMPDEST MUL OR SWAP1 SSTORE POP PUSH1 0x80 DUP3 ADD MLOAD DUP2 PUSH1 0x4 ADD SSTORE PUSH1 0xA0 DUP3 ADD MLOAD DUP2 PUSH1 0x5 ADD SSTORE PUSH1 0xC0 DUP3 ADD MLOAD DUP2 PUSH1 0x6 ADD SSTORE SWAP1 POP POP PUSH32 0x93CAF6BA1AF44020DFE6076E279533E38BD8DEEFE534C43AA8CC93AAD2025B7D DUP6 DUP6 DUP6 PUSH1 0x0 PUSH1 0x8 SLOAD PUSH1 0x0 DUP1 PUSH1 0x0 PUSH1 0x40 MLOAD PUSH2 0xFF7 SWAP9 SWAP8 SWAP7 SWAP6 SWAP5 SWAP4 SWAP3 SWAP2 SWAP1 PUSH2 0x1BF9 JUMP JUMPDEST PUSH1 0x40 MLOAD DUP1 SWAP2 SUB SWAP1 LOG1 DUP1 SWAP2 POP POP SWAP4 SWAP3 POP POP POP JUMP JUMPDEST PUSH1 0x0 DUP1 PUSH1 0x7 SLOAD SUB PUSH2 0x1025 JUMPI DUP2 PUSH1 0x80 ADD MLOAD PUSH1 0x7 DUP2 SWAP1 SSTORE POP PUSH2 0x1193 JUMP JUMPDEST DUP2 PUSH1 0x20 ADD MLOAD PUSH1 0x6 PUSH1 0x0 PUSH1 0x7 SLOAD DUP2 MSTORE PUSH1 0x20 ADD SWAP1 DUP2 MSTORE PUSH1 0x20 ADD PUSH1 0x0 KECCAK256 PUSH1 0x1 ADD SLOAD LT PUSH2 0x1087 JUMPI PUSH1 0x7 SLOAD DUP3 PUSH1 0xA0 ADD DUP2 DUP2 MSTORE POP POP DUP2 PUSH1 0x80 ADD MLOAD PUSH1 0x6 PUSH1 0x0 DUP5 PUSH1 0xA0 ADD MLOAD DUP2 MSTORE PUSH1 0x20 ADD SWAP1 DUP2 MSTORE PUSH1 0x20 ADD PUSH1 0x0 KECCAK256 PUSH1 0x6 ADD DUP2 SWAP1 SSTORE POP DUP2 PUSH1 0x80 ADD MLOAD PUSH1 0x7 DUP2 SWAP1 SSTORE POP PUSH2 0x1192 JUMP JUMPDEST PUSH1 0x7 SLOAD SWAP1 POP JUMPDEST PUSH1 0x0 PUSH1 0x6 PUSH1 0x0 DUP4 DUP2 MSTORE PUSH1 0x20 ADD SWAP1 DUP2 MSTORE PUSH1 0x20 ADD PUSH1 0x0 KECCAK256 PUSH1 0x5 ADD SLOAD EQ ISZERO DUP1 ISZERO PUSH2 0x10E3 JUMPI POP DUP2 PUSH1 0x20 ADD MLOAD PUSH1 0x6 PUSH1 0x0 PUSH1 0x6 PUSH1 0x0 DUP6 DUP2 MSTORE PUSH1 0x20 ADD SWAP1 DUP2 MSTORE PUSH1 0x20 ADD PUSH1 0x0 KECCAK256 PUSH1 0x5 ADD SLOAD DUP2 MSTORE PUSH1 0x20 ADD SWAP1 DUP2 MSTORE PUSH1 0x20 ADD PUSH1 0x0 KECCAK256 PUSH1 0x1 ADD SLOAD LT JUMPDEST ISZERO PUSH2 0x1106 JUMPI PUSH1 0x6 PUSH1 0x0 DUP3 DUP2 MSTORE PUSH1 0x20 ADD SWAP1 DUP2 MSTORE PUSH1 0x20 ADD PUSH1 0x0 KECCAK256 PUSH1 0x5 ADD SLOAD SWAP1 POP PUSH2 0x108D JUMP JUMPDEST PUSH1 0x6 PUSH1 0x0 DUP3 DUP2 MSTORE PUSH1 0x20 ADD SWAP1 DUP2 MSTORE PUSH1 0x20 ADD PUSH1 0x0 KECCAK256 PUSH1 0x5 ADD SLOAD DUP3 PUSH1 0xA0 ADD DUP2 DUP2 MSTORE POP POP PUSH1 0x0 PUSH1 0x6 PUSH1 0x0 DUP4 DUP2 MSTORE PUSH1 0x20 ADD SWAP1 DUP2 MSTORE PUSH1 0x20 ADD PUSH1 0x0 KECCAK256 PUSH1 0x5 ADD SLOAD EQ PUSH2 0x1168 JUMPI DUP2 PUSH1 0x80 ADD MLOAD PUSH1 0x6 PUSH1 0x0 DUP5 PUSH1 0xA0 ADD MLOAD DUP2 MSTORE PUSH1 0x20 ADD SWAP1 DUP2 MSTORE PUSH1 0x20 ADD PUSH1 0x0 KECCAK256 PUSH1 0x6 ADD DUP2 SWAP1 SSTORE POP JUMPDEST DUP2 PUSH1 0x80 ADD MLOAD PUSH1 0x6 PUSH1 0x0 DUP4 DUP2 MSTORE PUSH1 0x20 ADD SWAP1 DUP2 MSTORE PUSH1 0x20 ADD PUSH1 0x0 KECCAK256 PUSH1 0x5 ADD DUP2 SWAP1 SSTORE POP DUP1 DUP3 PUSH1 0xC0 ADD DUP2 DUP2 MSTORE POP POP JUMPDEST JUMPDEST POP POP JUMP JUMPDEST PUSH1 0x40 MLOAD DUP1 PUSH1 0xE0 ADD PUSH1 0x40 MSTORE DUP1 PUSH1 0x0 PUSH20 0xFFFFFFFFFFFFFFFFFFFFFFFFFFFFFFFFFFFFFFFF AND DUP2 MSTORE PUSH1 0x20 ADD PUSH1 0x0 DUP2 MSTORE PUSH1 0x20 ADD PUSH1 0x0 DUP2 MSTORE PUSH1 0x20 ADD PUSH1 0x0 PUSH1 0x1 DUP2 GT ISZERO PUSH2 0x11E1 JUMPI PUSH2 0x11E0 PUSH2 0x13DB JUMP JUMPDEST JUMPDEST DUP2 MSTORE PUSH1 0x20 ADD PUSH1 0x0 DUP2 MSTORE PUSH1 0x20 ADD PUSH1 0x0 DUP2 MSTORE PUSH1 0x20 ADD PUSH1 0x0 DUP2 MSTORE POP SWAP1 JUMP JUMPDEST PUSH1 0x0 DUP2 MLOAD SWAP1 POP SWAP2 SWAP1 POP JUMP JUMPDEST PUSH1 0x0 DUP3 DUP3 MSTORE PUSH1 0x20 DUP3 ADD SWAP1 POP SWAP3 SWAP2 POP POP JUMP JUMPDEST PUSH1 0x0 DUP2 SWAP1 POP PUSH1 0x20 DUP3 ADD SWAP1 POP SWAP2 SWAP1 POP JUMP JUMPDEST PUSH1 0x0 DUP2 SWAP1 POP SWAP2 SWAP1 POP JUMP JUMPDEST PUSH2 0x123B DUP2 PUSH2 0x1228 JUMP JUMPDEST DUP3 MSTORE POP POP JUMP JUMPDEST PUSH1 0x0 PUSH2 0x124D DUP4 DUP4 PUSH2 0x1232 JUMP JUMPDEST PUSH1 0x20 DUP4 ADD SWAP1 POP SWAP3 SWAP2 POP POP JUMP JUMPDEST PUSH1 0x0 PUSH1 0x20 DUP3 ADD SWAP1 POP SWAP2 SWAP1 POP JUMP JUMPDEST PUSH1 0x0 PUSH2 0x1271 DUP3 PUSH2 0x11FC JUMP JUMPDEST PUSH2 0x127B DUP2 DUP6 PUSH2 0x1207 JUMP JUMPDEST SWAP4 POP PUSH2 0x1286 DUP4 PUSH2 0x1218 JUMP JUMPDEST DUP1 PUSH1 0x0 JUMPDEST DUP4 DUP2 LT ISZERO PUSH2 0x12B7 JUMPI DUP2 MLOAD PUSH2 0x129E DUP9 DUP3 PUSH2 0x1241 JUMP JUMPDEST SWAP8 POP PUSH2 0x12A9 DUP4 PUSH2 0x1259 JUMP JUMPDEST SWAP3 POP POP PUSH1 0x1 DUP2 ADD SWAP1 POP PUSH2 0x128A JUMP JUMPDEST POP DUP6 SWAP4 POP POP POP POP SWAP3 SWAP2 POP POP JUMP JUMPDEST PUSH1 0x0 PUSH1 0x20 DUP3 ADD SWAP1 POP DUP2 DUP2 SUB PUSH1 0x0 DUP4 ADD MSTORE PUSH2 0x12DE DUP2 DUP5 PUSH2 0x1266 JUMP JUMPDEST SWAP1 POP SWAP3 SWAP2 POP POP JUMP JUMPDEST PUSH1 0x0 DUP1 REVERT JUMPDEST PUSH2 0x12F4 DUP2 PUSH2 0x1228 JUMP JUMPDEST DUP2 EQ PUSH2 0x12FF JUMPI PUSH1 0x0 DUP1 REVERT JUMPDEST POP JUMP JUMPDEST PUSH1 0x0 DUP2 CALLDATALOAD SWAP1 POP PUSH2 0x1311 DUP2 PUSH2 0x12EB JUMP JUMPDEST SWAP3 SWAP2 POP POP JUMP JUMPDEST PUSH1 0x0 PUSH1 0x20 DUP3 DUP5 SUB SLT ISZERO PUSH2 0x132D JUMPI PUSH2 0x132C PUSH2 0x12E6 JUMP JUMPDEST JUMPDEST PUSH1 0x0 PUSH2 0x133B DUP5 DUP3 DUP6 ADD PUSH2 0x1302 JUMP JUMPDEST SWAP2 POP POP SWAP3 SWAP2 POP POP JUMP JUMPDEST PUSH2 0x134D DUP2 PUSH2 0x1228 JUMP JUMPDEST DUP3 MSTORE POP POP JUMP JUMPDEST PUSH1 0x0 PUSH1 0x20 DUP3 ADD SWAP1 POP PUSH2 0x1368 PUSH1 0x0 DUP4 ADD DUP5 PUSH2 0x1344 JUMP JUMPDEST SWAP3 SWAP2 POP POP JUMP JUMPDEST PUSH1 0x0 DUP2 MLOAD SWAP1 POP SWAP2 SWAP1 POP JUMP JUMPDEST PUSH1 0x0 DUP3 DUP3 MSTORE PUSH1 0x20 DUP3 ADD SWAP1 POP SWAP3 SWAP2 POP POP JUMP JUMPDEST PUSH1 0x0 DUP2 SWAP1 POP PUSH1 0x20 DUP3 ADD SWAP1 POP SWAP2 SWAP1 POP JUMP JUMPDEST PUSH1 0x0 PUSH20 0xFFFFFFFFFFFFFFFFFFFFFFFFFFFFFFFFFFFFFFFF DUP3 AND SWAP1 POP SWAP2 SWAP1 POP JUMP JUMPDEST PUSH1 0x0 PUSH2 0x13C5 DUP3 PUSH2 0x139A JUMP JUMPDEST SWAP1 POP SWAP2 SWAP1 POP JUMP JUMPDEST PUSH2 0x13D5 DUP2 PUSH2 0x13BA JUMP JUMPDEST DUP3 MSTORE POP POP JUMP JUMPDEST PUSH32 0x4E487B7100000000000000000000000000000000000000000000000000000000 PUSH1 0x0 MSTORE PUSH1 0x21 PUSH1 0x4 MSTORE PUSH1 0x24 PUSH1 0x0 REVERT JUMPDEST PUSH1 0x2 DUP2 LT PUSH2 0x141B JUMPI PUSH2 0x141A PUSH2 0x13DB JUMP JUMPDEST JUMPDEST POP JUMP JUMPDEST PUSH1 0x0 DUP2 SWAP1 POP PUSH2 0x142C DUP3 PUSH2 0x140A JUMP JUMPDEST SWAP2 SWAP1 POP JUMP JUMPDEST PUSH1 0x0 PUSH2 0x143C DUP3 PUSH2 0x141E JUMP JUMPDEST SWAP1 POP SWAP2 SWAP1 POP JUMP JUMPDEST PUSH2 0x144C DUP2 PUSH2 0x1431 JUMP JUMPDEST DUP3 MSTORE POP POP JUMP JUMPDEST PUSH1 0xE0 DUP3 ADD PUSH1 0x0 DUP3 ADD MLOAD PUSH2 0x1468 PUSH1 0x0 DUP6 ADD DUP3 PUSH2 0x13CC JUMP JUMPDEST POP PUSH1 0x20 DUP3 ADD MLOAD PUSH2 0x147B PUSH1 0x20 DUP6 ADD DUP3 PUSH2 0x1232 JUMP JUMPDEST POP PUSH1 0x40 DUP3 ADD MLOAD PUSH2 0x148E PUSH1 0x40 DUP6 ADD DUP3 PUSH2 0x1232 JUMP JUMPDEST POP PUSH1 0x60 DUP3 ADD MLOAD PUSH2 0x14A1 PUSH1 0x60 DUP6 ADD DUP3 PUSH2 0x1443 JUMP JUMPDEST POP PUSH1 0x80 DUP3 ADD MLOAD PUSH2 0x14B4 PUSH1 0x80 DUP6 ADD DUP3 PUSH2 0x1232 JUMP JUMPDEST POP PUSH1 0xA0 DUP3 ADD MLOAD PUSH2 0x14C7 PUSH1 0xA0 DUP6 ADD DUP3 PUSH2 0x1232 JUMP JUMPDEST POP PUSH1 0xC0 DUP3 ADD MLOAD PUSH2 0x14DA PUSH1 0xC0 DUP6 ADD DUP3 PUSH2 0x1232 JUMP JUMPDEST POP POP POP POP JUMP JUMPDEST PUSH1 0x0 PUSH2 0x14EC DUP4 DUP4 PUSH2 0x1452 JUMP JUMPDEST PUSH1 0xE0 DUP4 ADD SWAP1 POP SWAP3 SWAP2 POP POP JUMP JUMPDEST PUSH1 0x0 PUSH1 0x20 DUP3 ADD SWAP1 POP SWAP2 SWAP1 POP JUMP JUMPDEST PUSH1 0x0 PUSH2 0x1510 DUP3 PUSH2 0x136E JUMP JUMPDEST PUSH2 0x151A DUP2 DUP6 PUSH2 0x1379 JUMP JUMPDEST SWAP4 POP PUSH2 0x1525 DUP4 PUSH2 0x138A JUMP JUMPDEST DUP1 PUSH1 0x0 JUMPDEST DUP4 DUP2 LT ISZERO PUSH2 0x1556 JUMPI DUP2 MLOAD PUSH2 0x153D DUP9 DUP3 PUSH2 0x14E0 JUMP JUMPDEST SWAP8 POP PUSH2 0x1548 DUP4 PUSH2 0x14F8 JUMP JUMPDEST SWAP3 POP POP PUSH1 0x1 DUP2 ADD SWAP1 POP PUSH2 0x1529 JUMP JUMPDEST POP DUP6 SWAP4 POP POP POP POP SWAP3 SWAP2 POP POP JUMP JUMPDEST PUSH1 0x0 PUSH1 0x20 DUP3 ADD SWAP1 POP DUP2 DUP2 SUB PUSH1 0x0 DUP4 ADD MSTORE PUSH2 0x157D DUP2 DUP5 PUSH2 0x1505 JUMP JUMPDEST SWAP1 POP SWAP3 SWAP2 POP POP JUMP JUMPDEST PUSH1 0x0 DUP2 MLOAD SWAP1 POP SWAP2 SWAP1 POP JUMP JUMPDEST PUSH1 0x0 DUP3 DUP3 MSTORE PUSH1 0x20 DUP3 ADD SWAP1 POP SWAP3 SWAP2 POP POP JUMP JUMPDEST PUSH1 0x0 JUMPDEST DUP4 DUP2 LT ISZERO PUSH2 0x15BF JUMPI DUP1 DUP3 ADD MLOAD DUP2 DUP5 ADD MSTORE PUSH1 0x20 DUP2 ADD SWAP1 POP PUSH2 0x15A4 JUMP JUMPDEST DUP4 DUP2 GT ISZERO PUSH2 0x15CE JUMPI PUSH1 0x0 DUP5 DUP5 ADD MSTORE JUMPDEST POP POP POP POP JUMP JUMPDEST PUSH1 0x0 PUSH1 0x1F NOT PUSH1 0x1F DUP4 ADD AND SWAP1 POP SWAP2 SWAP1 POP JUMP JUMPDEST PUSH1 0x0 PUSH2 0x15F0 DUP3 PUSH2 0x1585 JUMP JUMPDEST PUSH2 0x15FA DUP2 DUP6 PUSH2 0x1590 JUMP JUMPDEST SWAP4 POP PUSH2 0x160A DUP2 DUP6 PUSH1 0x20 DUP7 ADD PUSH2 0x15A1 JUMP JUMPDEST PUSH2 0x1613 DUP2 PUSH2 0x15D4 JUMP JUMPDEST DUP5 ADD SWAP2 POP POP SWAP3 SWAP2 POP POP JUMP JUMPDEST PUSH1 0x0 PUSH1 0x20 DUP3 ADD SWAP1 POP DUP2 DUP2 SUB PUSH1 0x0 DUP4 ADD MSTORE PUSH2 0x1638 DUP2 DUP5 PUSH2 0x15E5 JUMP JUMPDEST SWAP1 POP SWAP3 SWAP2 POP POP JUMP JUMPDEST PUSH2 0x1649 DUP2 PUSH2 0x1431 JUMP JUMPDEST DUP3 MSTORE POP POP JUMP JUMPDEST PUSH1 0x0 PUSH1 0x20 DUP3 ADD SWAP1 POP PUSH2 0x1664 PUSH1 0x0 DUP4 ADD DUP5 PUSH2 0x1640 JUMP JUMPDEST SWAP3 SWAP2 POP POP JUMP JUMPDEST PUSH2 0x1673 DUP2 PUSH2 0x13BA JUMP JUMPDEST DUP3 MSTORE POP POP JUMP JUMPDEST PUSH1 0x0 PUSH1 0x20 DUP3 ADD SWAP1 POP PUSH2 0x168E PUSH1 0x0 DUP4 ADD DUP5 PUSH2 0x166A JUMP JUMPDEST SWAP3 SWAP2 POP POP JUMP JUMPDEST PUSH1 0x0 DUP2 ISZERO ISZERO SWAP1 POP SWAP2 SWAP1 POP JUMP JUMPDEST PUSH2 0x16A9 DUP2 PUSH2 0x1694 JUMP JUMPDEST DUP3 MSTORE POP POP JUMP JUMPDEST PUSH1 0x0 PUSH2 0x100 DUP3 ADD SWAP1 POP PUSH2 0x16C5 PUSH1 0x0 DUP4 ADD DUP12 PUSH2 0x166A JUMP JUMPDEST PUSH2 0x16D2 PUSH1 0x20 DUP4 ADD DUP11 PUSH2 0x1344 JUMP JUMPDEST PUSH2 0x16DF PUSH1 0x40 DUP4 ADD DUP10 PUSH2 0x1344 JUMP JUMPDEST PUSH2 0x16EC PUSH1 0x60 DUP4 ADD DUP9 PUSH2 0x1640 JUMP JUMPDEST PUSH2 0x16F9 PUSH1 0x80 DUP4 ADD DUP8 PUSH2 0x1344 JUMP JUMPDEST PUSH2 0x1706 PUSH1 0xA0 DUP4 ADD DUP7 PUSH2 0x1344 JUMP JUMPDEST PUSH2 0x1713 PUSH1 0xC0 DUP4 ADD DUP6 PUSH2 0x1344 JUMP JUMPDEST PUSH2 0x1720 PUSH1 0xE0 DUP4 ADD DUP5 PUSH2 0x16A0 JUMP JUMPDEST SWAP10 SWAP9 POP POP POP POP POP POP POP POP POP JUMP JUMPDEST PUSH32 0x4F726465722050656E64696E6700000000000000000000000000000000000000 PUSH1 0x0 DUP3 ADD MSTORE POP JUMP JUMPDEST PUSH1 0x0 PUSH2 0x1763 PUSH1 0xD DUP4 PUSH2 0x1590 JUMP JUMPDEST SWAP2 POP PUSH2 0x176E DUP3 PUSH2 0x172D JUMP JUMPDEST PUSH1 0x20 DUP3 ADD SWAP1 POP SWAP2 SWAP1 POP JUMP JUMPDEST PUSH1 0x0 PUSH1 0x20 DUP3 ADD SWAP1 POP DUP2 DUP2 SUB PUSH1 0x0 DUP4 ADD MSTORE PUSH2 0x1792 DUP2 PUSH2 0x1756 JUMP JUMPDEST SWAP1 POP SWAP2 SWAP1 POP JUMP JUMPDEST PUSH32 0x4E6F7420417574686F7269736564000000000000000000000000000000000000 PUSH1 0x0 DUP3 ADD MSTORE POP JUMP JUMPDEST PUSH1 0x0 PUSH2 0x17CF PUSH1 0xE DUP4 PUSH2 0x1590 JUMP JUMPDEST SWAP2 POP PUSH2 0x17DA DUP3 PUSH2 0x1799 JUMP JUMPDEST PUSH1 0x20 DUP3 ADD SWAP1 POP SWAP2 SWAP1 POP JUMP JUMPDEST PUSH1 0x0 PUSH1 0x20 DUP3 ADD SWAP1 POP DUP2 DUP2 SUB PUSH1 0x0 DUP4 ADD MSTORE PUSH2 0x17FE DUP2 PUSH2 0x17C2 JUMP JUMPDEST SWAP1 POP SWAP2 SWAP1 POP JUMP JUMPDEST PUSH32 0x70726963652076616C7565206D757374206265206D6F7265207468616E203000 PUSH1 0x0 DUP3 ADD MSTORE POP JUMP JUMPDEST PUSH1 0x0 PUSH2 0x183B PUSH1 0x1F DUP4 PUSH2 0x1590 JUMP JUMPDEST SWAP2 POP PUSH2 0x1846 DUP3 PUSH2 0x1805 JUMP JUMPDEST PUSH1 0x20 DUP3 ADD SWAP1 POP SWAP2 SWAP1 POP JUMP JUMPDEST PUSH1 0x0 PUSH1 0x20 DUP3 ADD SWAP1 POP DUP2 DUP2 SUB PUSH1 0x0 DUP4 ADD MSTORE PUSH2 0x186A DUP2 PUSH2 0x182E JUMP JUMPDEST SWAP1 POP SWAP2 SWAP1 POP JUMP JUMPDEST PUSH32 0x4E6F7420656E6F75676820626C616E636520746F20706C6163652061736B0000 PUSH1 0x0 DUP3 ADD MSTORE POP JUMP JUMPDEST PUSH1 0x0 PUSH2 0x18A7 PUSH1 0x1E DUP4 PUSH2 0x1590 JUMP JUMPDEST SWAP2 POP PUSH2 0x18B2 DUP3 PUSH2 0x1871 JUMP JUMPDEST PUSH1 0x20 DUP3 ADD SWAP1 POP SWAP2 SWAP1 POP JUMP JUMPDEST PUSH1 0x0 PUSH1 0x20 DUP3 ADD SWAP1 POP DUP2 DUP2 SUB PUSH1 0x0 DUP4 ADD MSTORE PUSH2 0x18D6 DUP2 PUSH2 0x189A JUMP JUMPDEST SWAP1 POP SWAP2 SWAP1 POP JUMP JUMPDEST PUSH32 0x4E487B7100000000000000000000000000000000000000000000000000000000 PUSH1 0x0 MSTORE PUSH1 0x11 PUSH1 0x4 MSTORE PUSH1 0x24 PUSH1 0x0 REVERT JUMPDEST PUSH1 0x0 PUSH2 0x1917 DUP3 PUSH2 0x1228 JUMP JUMPDEST SWAP2 POP PUSH2 0x1922 DUP4 PUSH2 0x1228 JUMP JUMPDEST SWAP3 POP DUP3 DUP3 LT ISZERO PUSH2 0x1935 JUMPI PUSH2 0x1934 PUSH2 0x18DD JUMP JUMPDEST JUMPDEST DUP3 DUP3 SUB SWAP1 POP SWAP3 SWAP2 POP POP JUMP JUMPDEST PUSH1 0x0 PUSH2 0x194B DUP3 PUSH2 0x1228 JUMP JUMPDEST SWAP2 POP PUSH2 0x1956 DUP4 PUSH2 0x1228 JUMP JUMPDEST SWAP3 POP DUP2 PUSH32 0xFFFFFFFFFFFFFFFFFFFFFFFFFFFFFFFFFFFFFFFFFFFFFFFFFFFFFFFFFFFFFFFF DIV DUP4 GT DUP3 ISZERO ISZERO AND ISZERO PUSH2 0x198F JUMPI PUSH2 0x198E PUSH2 0x18DD JUMP JUMPDEST JUMPDEST DUP3 DUP3 MUL SWAP1 POP SWAP3 SWAP2 POP POP JUMP JUMPDEST PUSH32 0x4E487B7100000000000000000000000000000000000000000000000000000000 PUSH1 0x0 MSTORE PUSH1 0x12 PUSH1 0x4 MSTORE PUSH1 0x24 PUSH1 0x0 REVERT JUMPDEST PUSH1 0x0 PUSH2 0x19D4 DUP3 PUSH2 0x1228 JUMP JUMPDEST SWAP2 POP PUSH2 0x19DF DUP4 PUSH2 0x1228 JUMP JUMPDEST SWAP3 POP DUP3 PUSH2 0x19EF JUMPI PUSH2 0x19EE PUSH2 0x199A JUMP JUMPDEST JUMPDEST DUP3 DUP3 DIV SWAP1 POP SWAP3 SWAP2 POP POP JUMP JUMPDEST PUSH32 0x4E6F7420656E6F75676820626C616E636520746F20706C616365206269640000 PUSH1 0x0 DUP3 ADD MSTORE POP JUMP JUMPDEST PUSH1 0x0 PUSH2 0x1A30 PUSH1 0x1E DUP4 PUSH2 0x1590 JUMP JUMPDEST SWAP2 POP PUSH2 0x1A3B DUP3 PUSH2 0x19FA JUMP JUMPDEST PUSH1 0x20 DUP3 ADD SWAP1 POP SWAP2 SWAP1 POP JUMP JUMPDEST PUSH1 0x0 PUSH1 0x20 DUP3 ADD SWAP1 POP DUP2 DUP2 SUB PUSH1 0x0 DUP4 ADD MSTORE PUSH2 0x1A5F DUP2 PUSH2 0x1A23 JUMP JUMPDEST SWAP1 POP SWAP2 SWAP1 POP JUMP JUMPDEST PUSH1 0x0 PUSH2 0x1A71 DUP3 PUSH2 0x1228 JUMP JUMPDEST SWAP2 POP PUSH32 0xFFFFFFFFFFFFFFFFFFFFFFFFFFFFFFFFFFFFFFFFFFFFFFFFFFFFFFFFFFFFFFFF DUP3 SUB PUSH2 0x1AA3 JUMPI PUSH2 0x1AA2 PUSH2 0x18DD JUMP JUMPDEST JUMPDEST PUSH1 0x1 DUP3 ADD SWAP1 POP SWAP2 SWAP1 POP JUMP JUMPDEST PUSH32 0x4E487B7100000000000000000000000000000000000000000000000000000000 PUSH1 0x0 MSTORE PUSH1 0x41 PUSH1 0x4 MSTORE PUSH1 0x24 PUSH1 0x0 REVERT JUMPDEST PUSH1 0x0 PUSH2 0x1AE8 DUP3 PUSH2 0x1228 JUMP JUMPDEST SWAP2 POP PUSH2 0x1AF3 DUP4 PUSH2 0x1228 JUMP JUMPDEST SWAP3 POP DUP3 PUSH2 0x1B03 JUMPI PUSH2 0x1B02 PUSH2 0x199A JUMP JUMPDEST JUMPDEST DUP3 DUP3 MOD SWAP1 POP SWAP3 SWAP2 POP POP JUMP JUMPDEST PUSH1 0x0 PUSH2 0x1B19 DUP3 PUSH2 0x1228 JUMP JUMPDEST SWAP2 POP PUSH2 0x1B24 DUP4 PUSH2 0x1228 JUMP JUMPDEST SWAP3 POP DUP3 PUSH32 0xFFFFFFFFFFFFFFFFFFFFFFFFFFFFFFFFFFFFFFFFFFFFFFFFFFFFFFFFFFFFFFFF SUB DUP3 GT ISZERO PUSH2 0x1B59 JUMPI PUSH2 0x1B58 PUSH2 0x18DD JUMP JUMPDEST JUMPDEST DUP3 DUP3 ADD SWAP1 POP SWAP3 SWAP2 POP POP JUMP JUMPDEST PUSH32 0x4E487B7100000000000000000000000000000000000000000000000000000000 PUSH1 0x0 MSTORE PUSH1 0x32 PUSH1 0x4 MSTORE PUSH1 0x24 PUSH1 0x0 REVERT JUMPDEST PUSH1 0x0 PUSH2 0x1B9E DUP3 PUSH2 0x139A JUMP JUMPDEST SWAP1 POP SWAP2 SWAP1 POP JUMP JUMPDEST PUSH2 0x1BAE DUP2 PUSH2 0x1B93 JUMP JUMPDEST DUP3 MSTORE POP POP JUMP JUMPDEST PUSH1 0x0 DUP2 SWAP1 POP SWAP2 SWAP1 POP JUMP JUMPDEST PUSH1 0x0 DUP2 SWAP1 POP SWAP2 SWAP1 POP JUMP JUMPDEST PUSH1 0x0 PUSH2 0x1BE3 PUSH2 0x1BDE PUSH2 0x1BD9 DUP5 PUSH2 0x1BB4 JUMP JUMPDEST PUSH2 0x1BBE JUMP JUMPDEST PUSH2 0x1228 JUMP JUMPDEST SWAP1 POP SWAP2 SWAP1 POP JUMP JUMPDEST PUSH2 0x1BF3 DUP2 PUSH2 0x1BC8 JUMP JUMPDEST DUP3 MSTORE POP POP JUMP JUMPDEST PUSH1 0x0 PUSH2 0x100 DUP3 ADD SWAP1 POP PUSH2 0x1C0F PUSH1 0x0 DUP4 ADD DUP12 PUSH2 0x1BA5 JUMP JUMPDEST PUSH2 0x1C1C PUSH1 0x20 DUP4 ADD DUP11 PUSH2 0x1344 JUMP JUMPDEST PUSH2 0x1C29 PUSH1 0x40 DUP4 ADD DUP10 PUSH2 0x1344 JUMP JUMPDEST PUSH2 0x1C36 PUSH1 0x60 DUP4 ADD DUP9 PUSH2 0x1640 JUMP JUMPDEST PUSH2 0x1C43 PUSH1 0x80 DUP4 ADD DUP8 PUSH2 0x1344 JUMP JUMPDEST PUSH2 0x1C50 PUSH1 0xA0 DUP4 ADD DUP7 PUSH2 0x1BEA JUMP JUMPDEST PUSH2 0x1C5D PUSH1 0xC0 DUP4 ADD DUP6 PUSH2 0x1BEA JUMP JUMPDEST PUSH2 0x1C6A PUSH1 0xE0 DUP4 ADD DUP5 PUSH2 0x16A0 JUMP JUMPDEST SWAP10 SWAP9 POP POP POP POP POP POP POP POP POP JUMP INVALID LOG2 PUSH5 0x6970667358 0x22 SLT KECCAK256 PUSH17 0xC91E19865865A05227C029EDC5CD7AE02 0xED ADD 0xEC MLOAD MUL 0x2E DUP14 SWAP2 0xC9 0xC8 0x2B 0xDE PUSH13 0x8B64736F6C634300080D003300 "
				},
				"gasEstimates": {
					"creation": {
						"codeDepositCost": "1468200",
						"executionCost": "infinite",
						"totalCost": "infinite"
					},
					"external": {
						"askCount()": "2540",
						"askHead()": "2474",
						"bidCount()": "2451",
						"bidHead()": "2518",
						"cancelAsk(uint256)": "31089",
						"cancelBid(uint256)": "31110",
						"fetchAllBid()": "infinite",
						"fetchAsk()": "infinite",
						"fetchYourAskIds()": "infinite",
						"fetchYourBidIds()": "infinite",
						"getAskAddress(uint256)": "2982",
						"getAskState(uint256)": "2962",
						"getAskValue(uint256)": "infinite",
						"getBidAddress(uint256)": "2938",
						"getBidState(uint256)": "2961",
						"getBidValue(uint256)": "infinite",
						"getOrder(uint256)": "infinite",
						"placeAsk(uint256)": "infinite",
						"placeBid(uint256)": "809"
					},
					"internal": {
						"askBid(uint256,uint256)": "infinite",
						"createAsk(address,uint256,uint256)": "infinite",
						"createBid(address,uint256,uint256)": "infinite",
						"insertionSortAsk()": "infinite",
						"linkBid(uint256,uint256)": "infinite",
						"setAskHead(uint256)": "infinite",
						"setBidHead(uint256)": "infinite",
						"sortAsk(struct OrderBook.order memory)": "infinite"
					}
				},
				"methodIdentifiers": {
					"askCount()": "a394fda7",
					"askHead()": "801d9bbd",
					"bidCount()": "b40a5627",
					"bidHead()": "6e5b0f00",
					"cancelAsk(uint256)": "1628e0f5",
					"cancelBid(uint256)": "9703ef35",
					"fetchAllBid()": "4471417f",
					"fetchAsk()": "44e791e0",
					"fetchYourAskIds()": "122de8f2",
					"fetchYourBidIds()": "ce0cdc87",
					"getAskAddress(uint256)": "734a2e78",
					"getAskState(uint256)": "4d46712d",
					"getAskValue(uint256)": "db3a1396",
					"getBidAddress(uint256)": "69f632e2",
					"getBidState(uint256)": "bf77ffae",
					"getBidValue(uint256)": "2db6dfa7",
					"getOrder(uint256)": "d09ef241",
					"placeAsk(uint256)": "78c5b268",
					"placeBid(uint256)": "9979ef45"
				}
			},
			"storageLayout": {
				"storage": [
					{
						"astId": 9,
						"contract": "contracts/OrderBook.sol:OrderBook",
						"label": "bidValues",
						"offset": 0,
						"slot": "0",
						"type": "t_mapping(t_uint256,t_uint256)"
					},
					{
						"astId": 16,
						"contract": "contracts/OrderBook.sol:OrderBook",
						"label": "_owner",
						"offset": 0,
						"slot": "1",
						"type": "t_address_payable"
					},
					{
						"astId": 18,
						"contract": "contracts/OrderBook.sol:OrderBook",
						"label": "commission",
						"offset": 0,
						"slot": "2",
						"type": "t_uint256"
					},
					{
						"astId": 39,
						"contract": "contracts/OrderBook.sol:OrderBook",
						"label": "bidBook",
						"offset": 0,
						"slot": "3",
						"type": "t_mapping(t_uint256,t_struct(order)34_storage)"
					},
					{
						"astId": 41,
						"contract": "contracts/OrderBook.sol:OrderBook",
						"label": "bidHead",
						"offset": 0,
						"slot": "4",
						"type": "t_uint256"
					},
					{
						"astId": 43,
						"contract": "contracts/OrderBook.sol:OrderBook",
						"label": "bidCount",
						"offset": 0,
						"slot": "5",
						"type": "t_uint256"
					},
					{
						"astId": 48,
						"contract": "contracts/OrderBook.sol:OrderBook",
						"label": "askBook",
						"offset": 0,
						"slot": "6",
						"type": "t_mapping(t_uint256,t_struct(order)34_storage)"
					},
					{
						"astId": 50,
						"contract": "contracts/OrderBook.sol:OrderBook",
						"label": "askHead",
						"offset": 0,
						"slot": "7",
						"type": "t_uint256"
					},
					{
						"astId": 52,
						"contract": "contracts/OrderBook.sol:OrderBook",
						"label": "askCount",
						"offset": 0,
						"slot": "8",
						"type": "t_uint256"
					}
				],
				"types": {
					"t_address_payable": {
						"encoding": "inplace",
						"label": "address payable",
						"numberOfBytes": "20"
					},
					"t_enum(State)5": {
						"encoding": "inplace",
						"label": "enum OrderBook.State",
						"numberOfBytes": "1"
					},
					"t_mapping(t_uint256,t_struct(order)34_storage)": {
						"encoding": "mapping",
						"key": "t_uint256",
						"label": "mapping(uint256 => struct OrderBook.order)",
						"numberOfBytes": "32",
						"value": "t_struct(order)34_storage"
					},
					"t_mapping(t_uint256,t_uint256)": {
						"encoding": "mapping",
						"key": "t_uint256",
						"label": "mapping(uint256 => uint256)",
						"numberOfBytes": "32",
						"value": "t_uint256"
					},
					"t_struct(order)34_storage": {
						"encoding": "inplace",
						"label": "struct OrderBook.order",
						"members": [
							{
								"astId": 20,
								"contract": "contracts/OrderBook.sol:OrderBook",
								"label": "customer",
								"offset": 0,
								"slot": "0",
								"type": "t_address_payable"
							},
							{
								"astId": 22,
								"contract": "contracts/OrderBook.sol:OrderBook",
								"label": "value",
								"offset": 0,
								"slot": "1",
								"type": "t_uint256"
							},
							{
								"astId": 24,
								"contract": "contracts/OrderBook.sol:OrderBook",
								"label": "timestamp",
								"offset": 0,
								"slot": "2",
								"type": "t_uint256"
							},
							{
								"astId": 27,
								"contract": "contracts/OrderBook.sol:OrderBook",
								"label": "state",
								"offset": 0,
								"slot": "3",
								"type": "t_enum(State)5"
							},
							{
								"astId": 29,
								"contract": "contracts/OrderBook.sol:OrderBook",
								"label": "id",
								"offset": 0,
								"slot": "4",
								"type": "t_uint256"
							},
							{
								"astId": 31,
								"contract": "contracts/OrderBook.sol:OrderBook",
								"label": "next",
								"offset": 0,
								"slot": "5",
								"type": "t_uint256"
							},
							{
								"astId": 33,
								"contract": "contracts/OrderBook.sol:OrderBook",
								"label": "prev",
								"offset": 0,
								"slot": "6",
								"type": "t_uint256"
							}
						],
						"numberOfBytes": "224"
					},
					"t_uint256": {
						"encoding": "inplace",
						"label": "uint256",
						"numberOfBytes": "32"
					}
				}
			},
			"userdoc": {
				"kind": "user",
				"methods": {},
				"version": 1
			}
		}
	}
}