{
	"contracts/OrderBook.sol": {
		"OrderBook": {
			"abi": [
				{
					"inputs": [
						{
							"internalType": "uint256",
							"name": "_commission",
							"type": "uint256"
						}
					],
					"stateMutability": "nonpayable",
					"type": "constructor"
				},
				{
					"anonymous": false,
					"inputs": [
						{
							"indexed": false,
							"internalType": "uint256",
							"name": "",
							"type": "uint256"
						},
						{
							"indexed": false,
							"internalType": "uint256",
							"name": "",
							"type": "uint256"
						}
					],
					"name": "askLink",
					"type": "event"
				},
				{
					"anonymous": false,
					"inputs": [
						{
							"indexed": false,
							"internalType": "uint256",
							"name": "",
							"type": "uint256"
						},
						{
							"indexed": false,
							"internalType": "uint256",
							"name": "",
							"type": "uint256"
						}
					],
					"name": "bidLink",
					"type": "event"
				},
				{
					"anonymous": false,
					"inputs": [
						{
							"indexed": false,
							"internalType": "uint256",
							"name": "",
							"type": "uint256"
						}
					],
					"name": "newHead",
					"type": "event"
				},
				{
					"anonymous": false,
					"inputs": [
						{
							"indexed": false,
							"internalType": "uint256",
							"name": "",
							"type": "uint256"
						}
					],
					"name": "newTail",
					"type": "event"
				},
				{
					"anonymous": false,
					"inputs": [
						{
							"indexed": false,
							"internalType": "address",
							"name": "",
							"type": "address"
						},
						{
							"indexed": false,
							"internalType": "uint256",
							"name": "",
							"type": "uint256"
						},
						{
							"indexed": false,
							"internalType": "uint256",
							"name": "",
							"type": "uint256"
						},
						{
							"indexed": false,
							"internalType": "enum OrderBook.State",
							"name": "",
							"type": "uint8"
						},
						{
							"indexed": false,
							"internalType": "uint256",
							"name": "",
							"type": "uint256"
						},
						{
							"indexed": false,
							"internalType": "uint256",
							"name": "",
							"type": "uint256"
						},
						{
							"indexed": false,
							"internalType": "uint256",
							"name": "",
							"type": "uint256"
						}
					],
					"name": "orderCreated",
					"type": "event"
				},
				{
					"inputs": [],
					"name": "askCount",
					"outputs": [
						{
							"internalType": "uint256",
							"name": "",
							"type": "uint256"
						}
					],
					"stateMutability": "view",
					"type": "function"
				},
				{
					"inputs": [],
					"name": "askHead",
					"outputs": [
						{
							"internalType": "uint256",
							"name": "",
							"type": "uint256"
						}
					],
					"stateMutability": "view",
					"type": "function"
				},
				{
					"inputs": [],
					"name": "bidCount",
					"outputs": [
						{
							"internalType": "uint256",
							"name": "",
							"type": "uint256"
						}
					],
					"stateMutability": "view",
					"type": "function"
				},
				{
					"inputs": [],
					"name": "bidHead",
					"outputs": [
						{
							"internalType": "uint256",
							"name": "",
							"type": "uint256"
						}
					],
					"stateMutability": "view",
					"type": "function"
				},
				{
					"inputs": [
						{
							"internalType": "uint256",
							"name": "askId",
							"type": "uint256"
						}
					],
					"name": "cancelAsk",
					"outputs": [],
					"stateMutability": "nonpayable",
					"type": "function"
				},
				{
					"inputs": [
						{
							"internalType": "uint256",
							"name": "bidId",
							"type": "uint256"
						}
					],
					"name": "cancelBid",
					"outputs": [],
					"stateMutability": "nonpayable",
					"type": "function"
				},
				{
					"inputs": [
						{
							"internalType": "string",
							"name": "a",
							"type": "string"
						},
						{
							"internalType": "string",
							"name": "b",
							"type": "string"
						}
					],
					"name": "concatenate",
					"outputs": [
						{
							"internalType": "string",
							"name": "",
							"type": "string"
						}
					],
					"stateMutability": "pure",
					"type": "function"
				},
				{
					"inputs": [],
					"name": "fetchAsk",
					"outputs": [
						{
							"internalType": "string",
							"name": "",
							"type": "string"
						}
					],
					"stateMutability": "view",
					"type": "function"
				},
				{
					"inputs": [],
					"name": "fetchBid",
					"outputs": [
						{
							"internalType": "string",
							"name": "",
							"type": "string"
						}
					],
					"stateMutability": "view",
					"type": "function"
				},
				{
					"inputs": [],
					"name": "fetchYourAskIds",
					"outputs": [
						{
							"internalType": "uint256[]",
							"name": "",
							"type": "uint256[]"
						}
					],
					"stateMutability": "nonpayable",
					"type": "function"
				},
				{
					"inputs": [],
					"name": "fetchYourBidIds",
					"outputs": [
						{
							"internalType": "uint256[]",
							"name": "",
							"type": "uint256[]"
						}
					],
					"stateMutability": "nonpayable",
					"type": "function"
				},
				{
					"inputs": [
						{
							"internalType": "uint256",
							"name": "id",
							"type": "uint256"
						}
					],
					"name": "getAskAddress",
					"outputs": [
						{
							"internalType": "address payable",
							"name": "",
							"type": "address"
						}
					],
					"stateMutability": "view",
					"type": "function"
				},
				{
					"inputs": [
						{
							"internalType": "uint256",
							"name": "id",
							"type": "uint256"
						}
					],
					"name": "getAskNext",
					"outputs": [
						{
							"internalType": "uint256",
							"name": "",
							"type": "uint256"
						}
					],
					"stateMutability": "view",
					"type": "function"
				},
				{
					"inputs": [
						{
							"internalType": "uint256",
							"name": "id",
							"type": "uint256"
						}
					],
					"name": "getAskPrev",
					"outputs": [
						{
							"internalType": "uint256",
							"name": "",
							"type": "uint256"
						}
					],
					"stateMutability": "view",
					"type": "function"
				},
				{
					"inputs": [
						{
							"internalType": "uint256",
							"name": "id",
							"type": "uint256"
						}
					],
					"name": "getAskState",
					"outputs": [
						{
							"internalType": "enum OrderBook.State",
							"name": "",
							"type": "uint8"
						}
					],
					"stateMutability": "view",
					"type": "function"
				},
				{
					"inputs": [
						{
							"internalType": "uint256",
							"name": "id",
							"type": "uint256"
						}
					],
					"name": "getAskValue",
					"outputs": [
						{
							"internalType": "uint256",
							"name": "",
							"type": "uint256"
						}
					],
					"stateMutability": "view",
					"type": "function"
				},
				{
					"inputs": [
						{
							"internalType": "uint256",
							"name": "id",
							"type": "uint256"
						}
					],
					"name": "getBidAddress",
					"outputs": [
						{
							"internalType": "address payable",
							"name": "",
							"type": "address"
						}
					],
					"stateMutability": "view",
					"type": "function"
				},
				{
					"inputs": [
						{
							"internalType": "uint256",
							"name": "id",
							"type": "uint256"
						}
					],
					"name": "getBidState",
					"outputs": [
						{
							"internalType": "enum OrderBook.State",
							"name": "",
							"type": "uint8"
						}
					],
					"stateMutability": "view",
					"type": "function"
				},
				{
					"inputs": [
						{
							"internalType": "uint256",
							"name": "id",
							"type": "uint256"
						}
					],
					"name": "getBidValue",
					"outputs": [
						{
							"internalType": "uint256",
							"name": "",
							"type": "uint256"
						}
					],
					"stateMutability": "view",
					"type": "function"
				},
				{
					"inputs": [
						{
							"internalType": "uint256",
							"name": "id",
							"type": "uint256"
						}
					],
					"name": "getOrder",
					"outputs": [
						{
							"internalType": "address payable",
							"name": "",
							"type": "address"
						},
						{
							"internalType": "uint256",
							"name": "",
							"type": "uint256"
						},
						{
							"internalType": "uint256",
							"name": "",
							"type": "uint256"
						},
						{
							"internalType": "enum OrderBook.State",
							"name": "",
							"type": "uint8"
						},
						{
							"internalType": "uint256",
							"name": "",
							"type": "uint256"
						},
						{
							"internalType": "uint256",
							"name": "",
							"type": "uint256"
						},
						{
							"internalType": "uint256",
							"name": "",
							"type": "uint256"
						},
						{
							"internalType": "bool",
							"name": "",
							"type": "bool"
						}
					],
					"stateMutability": "view",
					"type": "function"
				},
				{
					"inputs": [
						{
							"internalType": "uint256",
							"name": "price",
							"type": "uint256"
						}
					],
					"name": "placeAsk",
					"outputs": [],
					"stateMutability": "payable",
					"type": "function"
				},
				{
					"inputs": [
						{
							"internalType": "uint256",
							"name": "price",
							"type": "uint256"
						}
					],
					"name": "placeBid",
					"outputs": [],
					"stateMutability": "payable",
					"type": "function"
				}
			],
			"devdoc": {
				"kind": "dev",
				"methods": {},
				"version": 1
			},
			"evm": {
				"assembly": "    /* \"contracts/OrderBook.sol\":1155:9893  contract OrderBook {... */\n  mstore(0x40, 0x80)\n    /* \"contracts/OrderBook.sol\":1358:1368  msg.sender */\n  caller\n    /* \"contracts/OrderBook.sol\":1325:1369  address payable _owner = payable(msg.sender) */\n  0x01\n  exp(0x0100, 0x00)\n  dup2\n  sload\n  dup2\n  0xffffffffffffffffffffffffffffffffffffffff\n  mul\n  not\n  and\n  swap1\n  dup4\n  0xffffffffffffffffffffffffffffffffffffffff\n  and\n  mul\n  or\n  swap1\n  sstore\n  pop\n    /* \"contracts/OrderBook.sol\":2287:2448  constructor (uint256 _commission) {... */\n  callvalue\n  dup1\n  iszero\n  tag_1\n  jumpi\n  0x00\n  dup1\n  revert\ntag_1:\n  pop\n  mload(0x40)\n  sub(codesize, bytecodeSize)\n  dup1\n  bytecodeSize\n  dup4\n  codecopy\n  dup2\n  dup2\n  add\n  0x40\n  mstore\n  dup2\n  add\n  swap1\n  tag_2\n  swap2\n  swap1\n  tag_3\n  jump\t// in\ntag_2:\n    /* \"contracts/OrderBook.sol\":2344:2355  _commission */\n  dup1\n    /* \"contracts/OrderBook.sol\":2331:2341  commission */\n  0x02\n    /* \"contracts/OrderBook.sol\":2331:2355  commission = _commission */\n  dup2\n  swap1\n  sstore\n  pop\n    /* \"contracts/OrderBook.sol\":2375:2376  0 */\n  0x00\n    /* \"contracts/OrderBook.sol\":2365:2372  bidHead */\n  0x04\n    /* \"contracts/OrderBook.sol\":2365:2376  bidHead = 0 */\n  dup2\n  swap1\n  sstore\n  pop\n    /* \"contracts/OrderBook.sol\":2397:2398  0 */\n  0x00\n    /* \"contracts/OrderBook.sol\":2386:2394  bidCount */\n  0x05\n    /* \"contracts/OrderBook.sol\":2386:2398  bidCount = 0 */\n  dup2\n  swap1\n  sstore\n  pop\n    /* \"contracts/OrderBook.sol\":2418:2419  0 */\n  0x00\n    /* \"contracts/OrderBook.sol\":2408:2415  askHead */\n  0x07\n    /* \"contracts/OrderBook.sol\":2408:2419  askHead = 0 */\n  dup2\n  swap1\n  sstore\n  pop\n    /* \"contracts/OrderBook.sol\":2440:2441  0 */\n  0x00\n    /* \"contracts/OrderBook.sol\":2429:2437  askCount */\n  0x08\n    /* \"contracts/OrderBook.sol\":2429:2441  askCount = 0 */\n  dup2\n  swap1\n  sstore\n  pop\n    /* \"contracts/OrderBook.sol\":2287:2448  constructor (uint256 _commission) {... */\n  pop\n    /* \"contracts/OrderBook.sol\":1155:9893  contract OrderBook {... */\n  jump(tag_6)\n    /* \"#utility.yul\":7:150   */\ntag_8:\n    /* \"#utility.yul\":64:69   */\n  0x00\n    /* \"#utility.yul\":95:101   */\n  dup2\n    /* \"#utility.yul\":89:102   */\n  mload\n    /* \"#utility.yul\":80:102   */\n  swap1\n  pop\n    /* \"#utility.yul\":111:144   */\n  tag_10\n    /* \"#utility.yul\":138:143   */\n  dup2\n    /* \"#utility.yul\":111:144   */\n  tag_11\n  jump\t// in\ntag_10:\n    /* \"#utility.yul\":7:150   */\n  swap3\n  swap2\n  pop\n  pop\n  jump\t// out\n    /* \"#utility.yul\":156:507   */\ntag_3:\n    /* \"#utility.yul\":226:232   */\n  0x00\n    /* \"#utility.yul\":275:277   */\n  0x20\n    /* \"#utility.yul\":263:272   */\n  dup3\n    /* \"#utility.yul\":254:261   */\n  dup5\n    /* \"#utility.yul\":250:273   */\n  sub\n    /* \"#utility.yul\":246:278   */\n  slt\n    /* \"#utility.yul\":243:362   */\n  iszero\n  tag_13\n  jumpi\n    /* \"#utility.yul\":281:360   */\n  tag_14\n  tag_15\n  jump\t// in\ntag_14:\n    /* \"#utility.yul\":243:362   */\ntag_13:\n    /* \"#utility.yul\":401:402   */\n  0x00\n    /* \"#utility.yul\":426:490   */\n  tag_16\n    /* \"#utility.yul\":482:489   */\n  dup5\n    /* \"#utility.yul\":473:479   */\n  dup3\n    /* \"#utility.yul\":462:471   */\n  dup6\n    /* \"#utility.yul\":458:480   */\n  add\n    /* \"#utility.yul\":426:490   */\n  tag_8\n  jump\t// in\ntag_16:\n    /* \"#utility.yul\":416:490   */\n  swap2\n  pop\n    /* \"#utility.yul\":372:500   */\n  pop\n    /* \"#utility.yul\":156:507   */\n  swap3\n  swap2\n  pop\n  pop\n  jump\t// out\n    /* \"#utility.yul\":594:671   */\ntag_19:\n    /* \"#utility.yul\":631:638   */\n  0x00\n    /* \"#utility.yul\":660:665   */\n  dup2\n    /* \"#utility.yul\":649:665   */\n  swap1\n  pop\n    /* \"#utility.yul\":594:671   */\n  swap2\n  swap1\n  pop\n  jump\t// out\n    /* \"#utility.yul\":800:917   */\ntag_15:\n    /* \"#utility.yul\":909:910   */\n  0x00\n    /* \"#utility.yul\":906:907   */\n  dup1\n    /* \"#utility.yul\":899:911   */\n  revert\n    /* \"#utility.yul\":923:1045   */\ntag_11:\n    /* \"#utility.yul\":996:1020   */\n  tag_25\n    /* \"#utility.yul\":1014:1019   */\n  dup2\n    /* \"#utility.yul\":996:1020   */\n  tag_19\n  jump\t// in\ntag_25:\n    /* \"#utility.yul\":989:994   */\n  dup2\n    /* \"#utility.yul\":986:1021   */\n  eq\n    /* \"#utility.yul\":976:1039   */\n  tag_26\n  jumpi\n    /* \"#utility.yul\":1035:1036   */\n  0x00\n    /* \"#utility.yul\":1032:1033   */\n  dup1\n    /* \"#utility.yul\":1025:1037   */\n  revert\n    /* \"#utility.yul\":976:1039   */\ntag_26:\n    /* \"#utility.yul\":923:1045   */\n  pop\n  jump\t// out\n    /* \"contracts/OrderBook.sol\":1155:9893  contract OrderBook {... */\ntag_6:\n  dataSize(sub_0)\n  dup1\n  dataOffset(sub_0)\n  0x00\n  codecopy\n  0x00\n  return\nstop\n\nsub_0: assembly {\n        /* \"contracts/OrderBook.sol\":1155:9893  contract OrderBook {... */\n      mstore(0x40, 0x80)\n      jumpi(tag_1, lt(calldatasize, 0x04))\n      shr(0xe0, calldataload(0x00))\n      dup1\n      0x78c5b268\n      gt\n      tag_24\n      jumpi\n      dup1\n      0xb40a5627\n      gt\n      tag_25\n      jumpi\n      dup1\n      0xb40a5627\n      eq\n      tag_18\n      jumpi\n      dup1\n      0xbf77ffae\n      eq\n      tag_19\n      jumpi\n      dup1\n      0xce0cdc87\n      eq\n      tag_20\n      jumpi\n      dup1\n      0xd05c28cb\n      eq\n      tag_21\n      jumpi\n      dup1\n      0xd09ef241\n      eq\n      tag_22\n      jumpi\n      dup1\n      0xdb3a1396\n      eq\n      tag_23\n      jumpi\n      jump(tag_1)\n    tag_25:\n      dup1\n      0x78c5b268\n      eq\n      tag_13\n      jumpi\n      dup1\n      0x801d9bbd\n      eq\n      tag_14\n      jumpi\n      dup1\n      0x9703ef35\n      eq\n      tag_15\n      jumpi\n      dup1\n      0x9979ef45\n      eq\n      tag_16\n      jumpi\n      dup1\n      0xa394fda7\n      eq\n      tag_17\n      jumpi\n      jump(tag_1)\n    tag_24:\n      dup1\n      0x44e791e0\n      gt\n      tag_26\n      jumpi\n      dup1\n      0x44e791e0\n      eq\n      tag_7\n      jumpi\n      dup1\n      0x4d46712d\n      eq\n      tag_8\n      jumpi\n      dup1\n      0x69f632e2\n      eq\n      tag_9\n      jumpi\n      dup1\n      0x6e5b0f00\n      eq\n      tag_10\n      jumpi\n      dup1\n      0x733672f4\n      eq\n      tag_11\n      jumpi\n      dup1\n      0x734a2e78\n      eq\n      tag_12\n      jumpi\n      jump(tag_1)\n    tag_26:\n      dup1\n      0x0f38f2b1\n      eq\n      tag_2\n      jumpi\n      dup1\n      0x122de8f2\n      eq\n      tag_3\n      jumpi\n      dup1\n      0x1628e0f5\n      eq\n      tag_4\n      jumpi\n      dup1\n      0x266001d3\n      eq\n      tag_5\n      jumpi\n      dup1\n      0x2db6dfa7\n      eq\n      tag_6\n      jumpi\n    tag_1:\n      0x00\n      dup1\n      revert\n        /* \"contracts/OrderBook.sol\":8120:8514  function fetchBid() public view returns (string memory) {... */\n    tag_2:\n      callvalue\n      dup1\n      iszero\n      tag_27\n      jumpi\n      0x00\n      dup1\n      revert\n    tag_27:\n      pop\n      tag_28\n      tag_29\n      jump\t// in\n    tag_28:\n      mload(0x40)\n      tag_30\n      swap2\n      swap1\n      tag_31\n      jump\t// in\n    tag_30:\n      mload(0x40)\n      dup1\n      swap2\n      sub\n      swap1\n      return\n        /* \"contracts/OrderBook.sol\":8594:8662  function fetchYourAskIds() public returns (uint256[] memory) {... */\n    tag_3:\n      callvalue\n      dup1\n      iszero\n      tag_32\n      jumpi\n      0x00\n      dup1\n      revert\n    tag_32:\n      pop\n      tag_33\n      tag_34\n      jump\t// in\n    tag_33:\n      mload(0x40)\n      tag_35\n      swap2\n      swap1\n      tag_36\n      jump\t// in\n    tag_35:\n      mload(0x40)\n      dup1\n      swap2\n      sub\n      swap1\n      return\n        /* \"contracts/OrderBook.sol\":7394:7686  function cancelAsk (uint256 askId) public isPending(askBook[askId]) isAuthorised(askBook[askId], msg.sender) {... */\n    tag_4:\n      callvalue\n      dup1\n      iszero\n      tag_37\n      jumpi\n      0x00\n      dup1\n      revert\n    tag_37:\n      pop\n      tag_38\n      0x04\n      dup1\n      calldatasize\n      sub\n      dup2\n      add\n      swap1\n      tag_39\n      swap2\n      swap1\n      tag_40\n      jump\t// in\n    tag_39:\n      tag_41\n      jump\t// in\n    tag_38:\n      stop\n        /* \"contracts/OrderBook.sol\":6040:6186  function concatenate(string memory a,string memory b) public pure returns (string memory){... */\n    tag_5:\n      callvalue\n      dup1\n      iszero\n      tag_42\n      jumpi\n      0x00\n      dup1\n      revert\n    tag_42:\n      pop\n      tag_43\n      0x04\n      dup1\n      calldatasize\n      sub\n      dup2\n      add\n      swap1\n      tag_44\n      swap2\n      swap1\n      tag_45\n      jump\t// in\n    tag_44:\n      tag_46\n      jump\t// in\n    tag_43:\n      mload(0x40)\n      tag_47\n      swap2\n      swap1\n      tag_31\n      jump\t// in\n    tag_47:\n      mload(0x40)\n      dup1\n      swap2\n      sub\n      swap1\n      return\n        /* \"contracts/OrderBook.sol\":9244:9348  function getBidValue (uint256 id) public view returns(uint256) {... */\n    tag_6:\n      callvalue\n      dup1\n      iszero\n      tag_48\n      jumpi\n      0x00\n      dup1\n      revert\n    tag_48:\n      pop\n      tag_49\n      0x04\n      dup1\n      calldatasize\n      sub\n      dup2\n      add\n      swap1\n      tag_50\n      swap2\n      swap1\n      tag_40\n      jump\t// in\n    tag_50:\n      tag_51\n      jump\t// in\n    tag_49:\n      mload(0x40)\n      tag_52\n      swap2\n      swap1\n      tag_53\n      jump\t// in\n    tag_52:\n      mload(0x40)\n      dup1\n      swap2\n      sub\n      swap1\n      return\n        /* \"contracts/OrderBook.sol\":7720:8114  function fetchAsk() public view returns (string memory) {... */\n    tag_7:\n      callvalue\n      dup1\n      iszero\n      tag_54\n      jumpi\n      0x00\n      dup1\n      revert\n    tag_54:\n      pop\n      tag_55\n      tag_56\n      jump\t// in\n    tag_55:\n      mload(0x40)\n      tag_57\n      swap2\n      swap1\n      tag_31\n      jump\t// in\n    tag_57:\n      mload(0x40)\n      dup1\n      swap2\n      sub\n      swap1\n      return\n        /* \"contracts/OrderBook.sol\":9572:9674  function getAskState (uint256 id) public view returns(State) {... */\n    tag_8:\n      callvalue\n      dup1\n      iszero\n      tag_58\n      jumpi\n      0x00\n      dup1\n      revert\n    tag_58:\n      pop\n      tag_59\n      0x04\n      dup1\n      calldatasize\n      sub\n      dup2\n      add\n      swap1\n      tag_60\n      swap2\n      swap1\n      tag_40\n      jump\t// in\n    tag_60:\n      tag_61\n      jump\t// in\n    tag_59:\n      mload(0x40)\n      tag_62\n      swap2\n      swap1\n      tag_63\n      jump\t// in\n    tag_62:\n      mload(0x40)\n      dup1\n      swap2\n      sub\n      swap1\n      return\n        /* \"contracts/OrderBook.sol\":8998:9115  function getBidAddress (uint256 id) public view returns(address payable) {... */\n    tag_9:\n      callvalue\n      dup1\n      iszero\n      tag_64\n      jumpi\n      0x00\n      dup1\n      revert\n    tag_64:\n      pop\n      tag_65\n      0x04\n      dup1\n      calldatasize\n      sub\n      dup2\n      add\n      swap1\n      tag_66\n      swap2\n      swap1\n      tag_40\n      jump\t// in\n    tag_66:\n      tag_67\n      jump\t// in\n    tag_65:\n      mload(0x40)\n      tag_68\n      swap2\n      swap1\n      tag_69\n      jump\t// in\n    tag_68:\n      mload(0x40)\n      dup1\n      swap2\n      sub\n      swap1\n      return\n        /* \"contracts/OrderBook.sol\":1822:1844  uint256 public bidHead */\n    tag_10:\n      callvalue\n      dup1\n      iszero\n      tag_70\n      jumpi\n      0x00\n      dup1\n      revert\n    tag_70:\n      pop\n      tag_71\n      tag_72\n      jump\t// in\n    tag_71:\n      mload(0x40)\n      tag_73\n      swap2\n      swap1\n      tag_53\n      jump\t// in\n    tag_73:\n      mload(0x40)\n      dup1\n      swap2\n      sub\n      swap1\n      return\n        /* \"contracts/OrderBook.sol\":9680:9782  function getAskNext (uint256 id) public view returns(uint256) {... */\n    tag_11:\n      callvalue\n      dup1\n      iszero\n      tag_74\n      jumpi\n      0x00\n      dup1\n      revert\n    tag_74:\n      pop\n      tag_75\n      0x04\n      dup1\n      calldatasize\n      sub\n      dup2\n      add\n      swap1\n      tag_76\n      swap2\n      swap1\n      tag_40\n      jump\t// in\n    tag_76:\n      tag_77\n      jump\t// in\n    tag_75:\n      mload(0x40)\n      tag_78\n      swap2\n      swap1\n      tag_53\n      jump\t// in\n    tag_78:\n      mload(0x40)\n      dup1\n      swap2\n      sub\n      swap1\n      return\n        /* \"contracts/OrderBook.sol\":9121:9238  function getAskAddress (uint256 id) public view returns(address payable) {... */\n    tag_12:\n      callvalue\n      dup1\n      iszero\n      tag_79\n      jumpi\n      0x00\n      dup1\n      revert\n    tag_79:\n      pop\n      tag_80\n      0x04\n      dup1\n      calldatasize\n      sub\n      dup2\n      add\n      swap1\n      tag_81\n      swap2\n      swap1\n      tag_40\n      jump\t// in\n    tag_81:\n      tag_82\n      jump\t// in\n    tag_80:\n      mload(0x40)\n      tag_83\n      swap2\n      swap1\n      tag_69\n      jump\t// in\n    tag_83:\n      mload(0x40)\n      dup1\n      swap2\n      sub\n      swap1\n      return\n        /* \"contracts/OrderBook.sol\":6940:7388  function placeAsk (uint256 price) public payable {... */\n    tag_13:\n      tag_84\n      0x04\n      dup1\n      calldatasize\n      sub\n      dup2\n      add\n      swap1\n      tag_85\n      swap2\n      swap1\n      tag_40\n      jump\t// in\n    tag_85:\n      tag_86\n      jump\t// in\n    tag_84:\n      stop\n        /* \"contracts/OrderBook.sol\":1967:1989  uint256 public askHead */\n    tag_14:\n      callvalue\n      dup1\n      iszero\n      tag_87\n      jumpi\n      0x00\n      dup1\n      revert\n    tag_87:\n      pop\n      tag_88\n      tag_89\n      jump\t// in\n    tag_88:\n      mload(0x40)\n      tag_90\n      swap2\n      swap1\n      tag_53\n      jump\t// in\n    tag_90:\n      mload(0x40)\n      dup1\n      swap2\n      sub\n      swap1\n      return\n        /* \"contracts/OrderBook.sol\":6677:6934  function cancelBid (uint256 bidId) public isPending(bidBook[bidId]) isAuthorised(bidBook[bidId], msg.sender) {... */\n    tag_15:\n      callvalue\n      dup1\n      iszero\n      tag_91\n      jumpi\n      0x00\n      dup1\n      revert\n    tag_91:\n      pop\n      tag_92\n      0x04\n      dup1\n      calldatasize\n      sub\n      dup2\n      add\n      swap1\n      tag_93\n      swap2\n      swap1\n      tag_40\n      jump\t// in\n    tag_93:\n      tag_94\n      jump\t// in\n    tag_92:\n      stop\n        /* \"contracts/OrderBook.sol\":6223:6671  function placeBid (uint256 price) public payable {... */\n    tag_16:\n      tag_95\n      0x04\n      dup1\n      calldatasize\n      sub\n      dup2\n      add\n      swap1\n      tag_96\n      swap2\n      swap1\n      tag_40\n      jump\t// in\n    tag_96:\n      tag_97\n      jump\t// in\n    tag_95:\n      stop\n        /* \"contracts/OrderBook.sol\":1995:2018  uint256 public askCount */\n    tag_17:\n      callvalue\n      dup1\n      iszero\n      tag_98\n      jumpi\n      0x00\n      dup1\n      revert\n    tag_98:\n      pop\n      tag_99\n      tag_100\n      jump\t// in\n    tag_99:\n      mload(0x40)\n      tag_101\n      swap2\n      swap1\n      tag_53\n      jump\t// in\n    tag_101:\n      mload(0x40)\n      dup1\n      swap2\n      sub\n      swap1\n      return\n        /* \"contracts/OrderBook.sol\":1850:1873  uint256 public bidCount */\n    tag_18:\n      callvalue\n      dup1\n      iszero\n      tag_102\n      jumpi\n      0x00\n      dup1\n      revert\n    tag_102:\n      pop\n      tag_103\n      tag_104\n      jump\t// in\n    tag_103:\n      mload(0x40)\n      tag_105\n      swap2\n      swap1\n      tag_53\n      jump\t// in\n    tag_105:\n      mload(0x40)\n      dup1\n      swap2\n      sub\n      swap1\n      return\n        /* \"contracts/OrderBook.sol\":9464:9566  function getBidState (uint256 id) public view returns(State) {... */\n    tag_19:\n      callvalue\n      dup1\n      iszero\n      tag_106\n      jumpi\n      0x00\n      dup1\n      revert\n    tag_106:\n      pop\n      tag_107\n      0x04\n      dup1\n      calldatasize\n      sub\n      dup2\n      add\n      swap1\n      tag_108\n      swap2\n      swap1\n      tag_40\n      jump\t// in\n    tag_108:\n      tag_109\n      jump\t// in\n    tag_107:\n      mload(0x40)\n      tag_110\n      swap2\n      swap1\n      tag_63\n      jump\t// in\n    tag_110:\n      mload(0x40)\n      dup1\n      swap2\n      sub\n      swap1\n      return\n        /* \"contracts/OrderBook.sol\":8520:8588  function fetchYourBidIds() public returns (uint256[] memory) {... */\n    tag_20:\n      callvalue\n      dup1\n      iszero\n      tag_111\n      jumpi\n      0x00\n      dup1\n      revert\n    tag_111:\n      pop\n      tag_112\n      tag_113\n      jump\t// in\n    tag_112:\n      mload(0x40)\n      tag_114\n      swap2\n      swap1\n      tag_36\n      jump\t// in\n    tag_114:\n      mload(0x40)\n      dup1\n      swap2\n      sub\n      swap1\n      return\n        /* \"contracts/OrderBook.sol\":9788:9890  function getAskPrev (uint256 id) public view returns(uint256) {... */\n    tag_21:\n      callvalue\n      dup1\n      iszero\n      tag_115\n      jumpi\n      0x00\n      dup1\n      revert\n    tag_115:\n      pop\n      tag_116\n      0x04\n      dup1\n      calldatasize\n      sub\n      dup2\n      add\n      swap1\n      tag_117\n      swap2\n      swap1\n      tag_40\n      jump\t// in\n    tag_117:\n      tag_118\n      jump\t// in\n    tag_116:\n      mload(0x40)\n      tag_119\n      swap2\n      swap1\n      tag_53\n      jump\t// in\n    tag_119:\n      mload(0x40)\n      dup1\n      swap2\n      sub\n      swap1\n      return\n        /* \"contracts/OrderBook.sol\":8668:8992  function getOrder(uint256 id) public view returns(address payable,uint256,uint256,State,uint256,uint256,uint256,bool) {... */\n    tag_22:\n      callvalue\n      dup1\n      iszero\n      tag_120\n      jumpi\n      0x00\n      dup1\n      revert\n    tag_120:\n      pop\n      tag_121\n      0x04\n      dup1\n      calldatasize\n      sub\n      dup2\n      add\n      swap1\n      tag_122\n      swap2\n      swap1\n      tag_40\n      jump\t// in\n    tag_122:\n      tag_123\n      jump\t// in\n    tag_121:\n      mload(0x40)\n      tag_124\n      swap9\n      swap8\n      swap7\n      swap6\n      swap5\n      swap4\n      swap3\n      swap2\n      swap1\n      tag_125\n      jump\t// in\n    tag_124:\n      mload(0x40)\n      dup1\n      swap2\n      sub\n      swap1\n      return\n        /* \"contracts/OrderBook.sol\":9354:9458  function getAskValue (uint256 id) public view returns(uint256) {... */\n    tag_23:\n      callvalue\n      dup1\n      iszero\n      tag_126\n      jumpi\n      0x00\n      dup1\n      revert\n    tag_126:\n      pop\n      tag_127\n      0x04\n      dup1\n      calldatasize\n      sub\n      dup2\n      add\n      swap1\n      tag_128\n      swap2\n      swap1\n      tag_40\n      jump\t// in\n    tag_128:\n      tag_129\n      jump\t// in\n    tag_127:\n      mload(0x40)\n      tag_130\n      swap2\n      swap1\n      tag_53\n      jump\t// in\n    tag_130:\n      mload(0x40)\n      dup1\n      swap2\n      sub\n      swap1\n      return\n        /* \"contracts/OrderBook.sol\":8120:8514  function fetchBid() public view returns (string memory) {... */\n    tag_29:\n        /* \"contracts/OrderBook.sol\":8161:8174  string memory */\n      0x60\n        /* \"contracts/OrderBook.sol\":8186:8201  uint256 current */\n      0x00\n        /* \"contracts/OrderBook.sol\":8204:8211  bidHead */\n      sload(0x04)\n        /* \"contracts/OrderBook.sol\":8186:8211  uint256 current = bidHead */\n      swap1\n      pop\n        /* \"contracts/OrderBook.sol\":8221:8241  string memory output */\n      0x00\n        /* \"contracts/OrderBook.sol\":8221:8246  string memory output = \"\" */\n      mload(0x40)\n      dup1\n      0x20\n      add\n      0x40\n      mstore\n      dup1\n      0x00\n      dup2\n      mstore\n      pop\n      swap1\n      pop\n        /* \"contracts/OrderBook.sol\":8256:8485  while (current != 0) {... */\n    tag_132:\n        /* \"contracts/OrderBook.sol\":8274:8275  0 */\n      0x00\n        /* \"contracts/OrderBook.sol\":8263:8270  current */\n      dup3\n        /* \"contracts/OrderBook.sol\":8263:8275  current != 0 */\n      eq\n        /* \"contracts/OrderBook.sol\":8256:8485  while (current != 0) {... */\n      tag_133\n      jumpi\n        /* \"contracts/OrderBook.sol\":8291:8303  uint256 next */\n      0x00\n        /* \"contracts/OrderBook.sol\":8306:8313  bidBook */\n      0x03\n        /* \"contracts/OrderBook.sol\":8306:8322  bidBook[current] */\n      0x00\n        /* \"contracts/OrderBook.sol\":8314:8321  current */\n      dup5\n        /* \"contracts/OrderBook.sol\":8306:8322  bidBook[current] */\n      dup2\n      mstore\n      0x20\n      add\n      swap1\n      dup2\n      mstore\n      0x20\n      add\n      0x00\n      keccak256\n        /* \"contracts/OrderBook.sol\":8306:8327  bidBook[current].next */\n      0x05\n      add\n      sload\n        /* \"contracts/OrderBook.sol\":8291:8327  uint256 next = bidBook[current].next */\n      swap1\n      pop\n        /* \"contracts/OrderBook.sol\":8341:8365  string memory currString */\n      0x00\n        /* \"contracts/OrderBook.sol\":8368:8393  Strings.toString(current) */\n      tag_134\n        /* \"contracts/OrderBook.sol\":8385:8392  current */\n      dup5\n        /* \"contracts/OrderBook.sol\":8368:8384  Strings.toString */\n      tag_135\n        /* \"contracts/OrderBook.sol\":8368:8393  Strings.toString(current) */\n      jump\t// in\n    tag_134:\n        /* \"contracts/OrderBook.sol\":8341:8393  string memory currString = Strings.toString(current) */\n      swap1\n      pop\n        /* \"contracts/OrderBook.sol\":8416:8446  concatenate(output,currString) */\n      tag_136\n        /* \"contracts/OrderBook.sol\":8428:8434  output */\n      dup4\n        /* \"contracts/OrderBook.sol\":8435:8445  currString */\n      dup3\n        /* \"contracts/OrderBook.sol\":8416:8427  concatenate */\n      tag_46\n        /* \"contracts/OrderBook.sol\":8416:8446  concatenate(output,currString) */\n      jump\t// in\n    tag_136:\n        /* \"contracts/OrderBook.sol\":8407:8446  output = concatenate(output,currString) */\n      swap3\n      pop\n        /* \"contracts/OrderBook.sol\":8470:8474  next */\n      dup2\n        /* \"contracts/OrderBook.sol\":8460:8474  current = next */\n      swap4\n      pop\n        /* \"contracts/OrderBook.sol\":8277:8485  {... */\n      pop\n      pop\n        /* \"contracts/OrderBook.sol\":8256:8485  while (current != 0) {... */\n      jump(tag_132)\n    tag_133:\n        /* \"contracts/OrderBook.sol\":8501:8507  output */\n      dup1\n        /* \"contracts/OrderBook.sol\":8494:8507  return output */\n      swap3\n      pop\n      pop\n      pop\n        /* \"contracts/OrderBook.sol\":8120:8514  function fetchBid() public view returns (string memory) {... */\n      swap1\n      jump\t// out\n        /* \"contracts/OrderBook.sol\":8594:8662  function fetchYourAskIds() public returns (uint256[] memory) {... */\n    tag_34:\n        /* \"contracts/OrderBook.sol\":8637:8653  uint256[] memory */\n      0x60\n        /* \"contracts/OrderBook.sol\":8594:8662  function fetchYourAskIds() public returns (uint256[] memory) {... */\n      swap1\n      jump\t// out\n        /* \"contracts/OrderBook.sol\":7394:7686  function cancelAsk (uint256 askId) public isPending(askBook[askId]) isAuthorised(askBook[askId], msg.sender) {... */\n    tag_41:\n        /* \"contracts/OrderBook.sol\":7446:7453  askBook */\n      0x06\n        /* \"contracts/OrderBook.sol\":7446:7460  askBook[askId] */\n      0x00\n        /* \"contracts/OrderBook.sol\":7454:7459  askId */\n      dup3\n        /* \"contracts/OrderBook.sol\":7446:7460  askBook[askId] */\n      dup2\n      mstore\n      0x20\n      add\n      swap1\n      dup2\n      mstore\n      0x20\n      add\n      0x00\n      keccak256\n        /* \"contracts/OrderBook.sol\":2487:2610  modifier isPending(order memory _order) {... */\n      mload(0x40)\n      dup1\n      0xe0\n      add\n      0x40\n      mstore\n      swap1\n      dup2\n      0x00\n      dup3\n      add\n      0x00\n      swap1\n      sload\n      swap1\n      0x0100\n      exp\n      swap1\n      div\n      0xffffffffffffffffffffffffffffffffffffffff\n      and\n      0xffffffffffffffffffffffffffffffffffffffff\n      and\n      0xffffffffffffffffffffffffffffffffffffffff\n      and\n      dup2\n      mstore\n      0x20\n      add\n      0x01\n      dup3\n      add\n      sload\n      dup2\n      mstore\n      0x20\n      add\n      0x02\n      dup3\n      add\n      sload\n      dup2\n      mstore\n      0x20\n      add\n      0x03\n      dup3\n      add\n      0x00\n      swap1\n      sload\n      swap1\n      0x0100\n      exp\n      swap1\n      div\n      0xff\n      and\n      0x01\n      dup2\n      gt\n      iszero\n      tag_138\n      jumpi\n      tag_139\n      tag_140\n      jump\t// in\n    tag_139:\n    tag_138:\n      0x01\n      dup2\n      gt\n      iszero\n      tag_141\n      jumpi\n      tag_142\n      tag_140\n      jump\t// in\n    tag_142:\n    tag_141:\n      dup2\n      mstore\n      0x20\n      add\n      0x04\n      dup3\n      add\n      sload\n      dup2\n      mstore\n      0x20\n      add\n      0x05\n      dup3\n      add\n      sload\n      dup2\n      mstore\n      0x20\n      add\n      0x06\n      dup3\n      add\n      sload\n      dup2\n      mstore\n      pop\n      pop\n        /* \"contracts/OrderBook.sol\":2561:2574  State.pending */\n      0x00\n        /* \"contracts/OrderBook.sol\":2545:2574  _order.state == State.pending */\n      0x01\n      dup2\n      gt\n      iszero\n      tag_144\n      jumpi\n      tag_145\n      tag_140\n      jump\t// in\n    tag_145:\n    tag_144:\n        /* \"contracts/OrderBook.sol\":2545:2551  _order */\n      dup2\n        /* \"contracts/OrderBook.sol\":2545:2557  _order.state */\n      0x60\n      add\n      mload\n        /* \"contracts/OrderBook.sol\":2545:2574  _order.state == State.pending */\n      0x01\n      dup2\n      gt\n      iszero\n      tag_146\n      jumpi\n      tag_147\n      tag_140\n      jump\t// in\n    tag_147:\n    tag_146:\n      eq\n        /* \"contracts/OrderBook.sol\":2537:2592  require(_order.state == State.pending, \"Order Pending\") */\n      tag_148\n      jumpi\n      mload(0x40)\n      0x08c379a000000000000000000000000000000000000000000000000000000000\n      dup2\n      mstore\n      0x04\n      add\n      tag_149\n      swap1\n      tag_150\n      jump\t// in\n    tag_149:\n      mload(0x40)\n      dup1\n      swap2\n      sub\n      swap1\n      revert\n    tag_148:\n        /* \"contracts/OrderBook.sol\":7475:7482  askBook */\n      0x06\n        /* \"contracts/OrderBook.sol\":7475:7489  askBook[askId] */\n      0x00\n        /* \"contracts/OrderBook.sol\":7483:7488  askId */\n      dup4\n        /* \"contracts/OrderBook.sol\":7475:7489  askBook[askId] */\n      dup2\n      mstore\n      0x20\n      add\n      swap1\n      dup2\n      mstore\n      0x20\n      add\n      0x00\n      keccak256\n        /* \"contracts/OrderBook.sol\":2616:2755  modifier isAuthorised(order memory _order, address sender) {... */\n      mload(0x40)\n      dup1\n      0xe0\n      add\n      0x40\n      mstore\n      swap1\n      dup2\n      0x00\n      dup3\n      add\n      0x00\n      swap1\n      sload\n      swap1\n      0x0100\n      exp\n      swap1\n      div\n      0xffffffffffffffffffffffffffffffffffffffff\n      and\n      0xffffffffffffffffffffffffffffffffffffffff\n      and\n      0xffffffffffffffffffffffffffffffffffffffff\n      and\n      dup2\n      mstore\n      0x20\n      add\n      0x01\n      dup3\n      add\n      sload\n      dup2\n      mstore\n      0x20\n      add\n      0x02\n      dup3\n      add\n      sload\n      dup2\n      mstore\n      0x20\n      add\n      0x03\n      dup3\n      add\n      0x00\n      swap1\n      sload\n      swap1\n      0x0100\n      exp\n      swap1\n      div\n      0xff\n      and\n      0x01\n      dup2\n      gt\n      iszero\n      tag_151\n      jumpi\n      tag_152\n      tag_140\n      jump\t// in\n    tag_152:\n    tag_151:\n      0x01\n      dup2\n      gt\n      iszero\n      tag_153\n      jumpi\n      tag_154\n      tag_140\n      jump\t// in\n    tag_154:\n    tag_153:\n      dup2\n      mstore\n      0x20\n      add\n      0x04\n      dup3\n      add\n      sload\n      dup2\n      mstore\n      0x20\n      add\n      0x05\n      dup3\n      add\n      sload\n      dup2\n      mstore\n      0x20\n      add\n      0x06\n      dup3\n      add\n      sload\n      dup2\n      mstore\n      pop\n      pop\n        /* \"contracts/OrderBook.sol\":7491:7501  msg.sender */\n      caller\n        /* \"contracts/OrderBook.sol\":2712:2718  sender */\n      dup1\n        /* \"contracts/OrderBook.sol\":2693:2718  _order.customer == sender */\n      0xffffffffffffffffffffffffffffffffffffffff\n      and\n        /* \"contracts/OrderBook.sol\":2693:2699  _order */\n      dup3\n        /* \"contracts/OrderBook.sol\":2693:2708  _order.customer */\n      0x00\n      add\n      mload\n        /* \"contracts/OrderBook.sol\":2693:2718  _order.customer == sender */\n      0xffffffffffffffffffffffffffffffffffffffff\n      and\n      eq\n        /* \"contracts/OrderBook.sol\":2685:2737  require(_order.customer == sender, \"Not Authorised\") */\n      tag_156\n      jumpi\n      mload(0x40)\n      0x08c379a000000000000000000000000000000000000000000000000000000000\n      dup2\n      mstore\n      0x04\n      add\n      tag_157\n      swap1\n      tag_158\n      jump\t// in\n    tag_157:\n      mload(0x40)\n      dup1\n      swap2\n      sub\n      swap1\n      revert\n    tag_156:\n        /* \"contracts/OrderBook.sol\":2602:2603  _ */\n      pop\n      pop\n        /* \"contracts/OrderBook.sol\":7394:7686  function cancelAsk (uint256 askId) public isPending(askBook[askId]) isAuthorised(askBook[askId], msg.sender) {... */\n      pop\n      pop\n      jump\t// out\n        /* \"contracts/OrderBook.sol\":6040:6186  function concatenate(string memory a,string memory b) public pure returns (string memory){... */\n    tag_46:\n        /* \"contracts/OrderBook.sol\":6115:6128  string memory */\n      0x60\n        /* \"contracts/OrderBook.sol\":6170:6171  a */\n      dup3\n        /* \"contracts/OrderBook.sol\":6176:6177  b */\n      dup3\n        /* \"contracts/OrderBook.sol\":6153:6178  abi.encodePacked(a,' ',b) */\n      add(0x20, mload(0x40))\n      tag_161\n      swap3\n      swap2\n      swap1\n      tag_162\n      jump\t// in\n    tag_161:\n      mload(0x40)\n      0x20\n      dup2\n      dup4\n      sub\n      sub\n      dup2\n      mstore\n      swap1\n      0x40\n      mstore\n        /* \"contracts/OrderBook.sol\":6139:6179  return string(abi.encodePacked(a,' ',b)) */\n      swap1\n      pop\n        /* \"contracts/OrderBook.sol\":6040:6186  function concatenate(string memory a,string memory b) public pure returns (string memory){... */\n      swap3\n      swap2\n      pop\n      pop\n      jump\t// out\n        /* \"contracts/OrderBook.sol\":9244:9348  function getBidValue (uint256 id) public view returns(uint256) {... */\n    tag_51:\n        /* \"contracts/OrderBook.sol\":9298:9305  uint256 */\n      0x00\n        /* \"contracts/OrderBook.sol\":9324:9331  bidBook */\n      0x03\n        /* \"contracts/OrderBook.sol\":9324:9335  bidBook[id] */\n      0x00\n        /* \"contracts/OrderBook.sol\":9332:9334  id */\n      dup4\n        /* \"contracts/OrderBook.sol\":9324:9335  bidBook[id] */\n      dup2\n      mstore\n      0x20\n      add\n      swap1\n      dup2\n      mstore\n      0x20\n      add\n      0x00\n      keccak256\n        /* \"contracts/OrderBook.sol\":9324:9341  bidBook[id].value */\n      0x01\n      add\n      sload\n        /* \"contracts/OrderBook.sol\":9317:9341  return bidBook[id].value */\n      swap1\n      pop\n        /* \"contracts/OrderBook.sol\":9244:9348  function getBidValue (uint256 id) public view returns(uint256) {... */\n      swap2\n      swap1\n      pop\n      jump\t// out\n        /* \"contracts/OrderBook.sol\":7720:8114  function fetchAsk() public view returns (string memory) {... */\n    tag_56:\n        /* \"contracts/OrderBook.sol\":7761:7774  string memory */\n      0x60\n        /* \"contracts/OrderBook.sol\":7786:7801  uint256 current */\n      0x00\n        /* \"contracts/OrderBook.sol\":7804:7811  askHead */\n      sload(0x07)\n        /* \"contracts/OrderBook.sol\":7786:7811  uint256 current = askHead */\n      swap1\n      pop\n        /* \"contracts/OrderBook.sol\":7821:7841  string memory output */\n      0x00\n        /* \"contracts/OrderBook.sol\":7821:7846  string memory output = \"\" */\n      mload(0x40)\n      dup1\n      0x20\n      add\n      0x40\n      mstore\n      dup1\n      0x00\n      dup2\n      mstore\n      pop\n      swap1\n      pop\n        /* \"contracts/OrderBook.sol\":7856:8085  while (current != 0) {... */\n    tag_165:\n        /* \"contracts/OrderBook.sol\":7874:7875  0 */\n      0x00\n        /* \"contracts/OrderBook.sol\":7863:7870  current */\n      dup3\n        /* \"contracts/OrderBook.sol\":7863:7875  current != 0 */\n      eq\n        /* \"contracts/OrderBook.sol\":7856:8085  while (current != 0) {... */\n      tag_166\n      jumpi\n        /* \"contracts/OrderBook.sol\":7891:7903  uint256 next */\n      0x00\n        /* \"contracts/OrderBook.sol\":7906:7913  askBook */\n      0x06\n        /* \"contracts/OrderBook.sol\":7906:7922  askBook[current] */\n      0x00\n        /* \"contracts/OrderBook.sol\":7914:7921  current */\n      dup5\n        /* \"contracts/OrderBook.sol\":7906:7922  askBook[current] */\n      dup2\n      mstore\n      0x20\n      add\n      swap1\n      dup2\n      mstore\n      0x20\n      add\n      0x00\n      keccak256\n        /* \"contracts/OrderBook.sol\":7906:7927  askBook[current].next */\n      0x05\n      add\n      sload\n        /* \"contracts/OrderBook.sol\":7891:7927  uint256 next = askBook[current].next */\n      swap1\n      pop\n        /* \"contracts/OrderBook.sol\":7941:7965  string memory currString */\n      0x00\n        /* \"contracts/OrderBook.sol\":7968:7993  Strings.toString(current) */\n      tag_167\n        /* \"contracts/OrderBook.sol\":7985:7992  current */\n      dup5\n        /* \"contracts/OrderBook.sol\":7968:7984  Strings.toString */\n      tag_135\n        /* \"contracts/OrderBook.sol\":7968:7993  Strings.toString(current) */\n      jump\t// in\n    tag_167:\n        /* \"contracts/OrderBook.sol\":7941:7993  string memory currString = Strings.toString(current) */\n      swap1\n      pop\n        /* \"contracts/OrderBook.sol\":8016:8046  concatenate(output,currString) */\n      tag_168\n        /* \"contracts/OrderBook.sol\":8028:8034  output */\n      dup4\n        /* \"contracts/OrderBook.sol\":8035:8045  currString */\n      dup3\n        /* \"contracts/OrderBook.sol\":8016:8027  concatenate */\n      tag_46\n        /* \"contracts/OrderBook.sol\":8016:8046  concatenate(output,currString) */\n      jump\t// in\n    tag_168:\n        /* \"contracts/OrderBook.sol\":8007:8046  output = concatenate(output,currString) */\n      swap3\n      pop\n        /* \"contracts/OrderBook.sol\":8070:8074  next */\n      dup2\n        /* \"contracts/OrderBook.sol\":8060:8074  current = next */\n      swap4\n      pop\n        /* \"contracts/OrderBook.sol\":7877:8085  {... */\n      pop\n      pop\n        /* \"contracts/OrderBook.sol\":7856:8085  while (current != 0) {... */\n      jump(tag_165)\n    tag_166:\n        /* \"contracts/OrderBook.sol\":8101:8107  output */\n      dup1\n        /* \"contracts/OrderBook.sol\":8094:8107  return output */\n      swap3\n      pop\n      pop\n      pop\n        /* \"contracts/OrderBook.sol\":7720:8114  function fetchAsk() public view returns (string memory) {... */\n      swap1\n      jump\t// out\n        /* \"contracts/OrderBook.sol\":9572:9674  function getAskState (uint256 id) public view returns(State) {... */\n    tag_61:\n        /* \"contracts/OrderBook.sol\":9626:9631  State */\n      0x00\n        /* \"contracts/OrderBook.sol\":9650:9657  askBook */\n      0x06\n        /* \"contracts/OrderBook.sol\":9650:9661  askBook[id] */\n      0x00\n        /* \"contracts/OrderBook.sol\":9658:9660  id */\n      dup4\n        /* \"contracts/OrderBook.sol\":9650:9661  askBook[id] */\n      dup2\n      mstore\n      0x20\n      add\n      swap1\n      dup2\n      mstore\n      0x20\n      add\n      0x00\n      keccak256\n        /* \"contracts/OrderBook.sol\":9650:9667  askBook[id].state */\n      0x03\n      add\n      0x00\n      swap1\n      sload\n      swap1\n      0x0100\n      exp\n      swap1\n      div\n      0xff\n      and\n        /* \"contracts/OrderBook.sol\":9643:9667  return askBook[id].state */\n      swap1\n      pop\n        /* \"contracts/OrderBook.sol\":9572:9674  function getAskState (uint256 id) public view returns(State) {... */\n      swap2\n      swap1\n      pop\n      jump\t// out\n        /* \"contracts/OrderBook.sol\":8998:9115  function getBidAddress (uint256 id) public view returns(address payable) {... */\n    tag_67:\n        /* \"contracts/OrderBook.sol\":9054:9069  address payable */\n      0x00\n        /* \"contracts/OrderBook.sol\":9088:9095  bidBook */\n      0x03\n        /* \"contracts/OrderBook.sol\":9088:9099  bidBook[id] */\n      0x00\n        /* \"contracts/OrderBook.sol\":9096:9098  id */\n      dup4\n        /* \"contracts/OrderBook.sol\":9088:9099  bidBook[id] */\n      dup2\n      mstore\n      0x20\n      add\n      swap1\n      dup2\n      mstore\n      0x20\n      add\n      0x00\n      keccak256\n        /* \"contracts/OrderBook.sol\":9088:9108  bidBook[id].customer */\n      0x00\n      add\n      0x00\n      swap1\n      sload\n      swap1\n      0x0100\n      exp\n      swap1\n      div\n      0xffffffffffffffffffffffffffffffffffffffff\n      and\n        /* \"contracts/OrderBook.sol\":9081:9108  return bidBook[id].customer */\n      swap1\n      pop\n        /* \"contracts/OrderBook.sol\":8998:9115  function getBidAddress (uint256 id) public view returns(address payable) {... */\n      swap2\n      swap1\n      pop\n      jump\t// out\n        /* \"contracts/OrderBook.sol\":1822:1844  uint256 public bidHead */\n    tag_72:\n      sload(0x04)\n      dup2\n      jump\t// out\n        /* \"contracts/OrderBook.sol\":9680:9782  function getAskNext (uint256 id) public view returns(uint256) {... */\n    tag_77:\n        /* \"contracts/OrderBook.sol\":9733:9740  uint256 */\n      0x00\n        /* \"contracts/OrderBook.sol\":9759:9766  askBook */\n      0x06\n        /* \"contracts/OrderBook.sol\":9759:9770  askBook[id] */\n      0x00\n        /* \"contracts/OrderBook.sol\":9767:9769  id */\n      dup4\n        /* \"contracts/OrderBook.sol\":9759:9770  askBook[id] */\n      dup2\n      mstore\n      0x20\n      add\n      swap1\n      dup2\n      mstore\n      0x20\n      add\n      0x00\n      keccak256\n        /* \"contracts/OrderBook.sol\":9759:9775  askBook[id].next */\n      0x05\n      add\n      sload\n        /* \"contracts/OrderBook.sol\":9752:9775  return askBook[id].next */\n      swap1\n      pop\n        /* \"contracts/OrderBook.sol\":9680:9782  function getAskNext (uint256 id) public view returns(uint256) {... */\n      swap2\n      swap1\n      pop\n      jump\t// out\n        /* \"contracts/OrderBook.sol\":9121:9238  function getAskAddress (uint256 id) public view returns(address payable) {... */\n    tag_82:\n        /* \"contracts/OrderBook.sol\":9177:9192  address payable */\n      0x00\n        /* \"contracts/OrderBook.sol\":9211:9218  askBook */\n      0x06\n        /* \"contracts/OrderBook.sol\":9211:9222  askBook[id] */\n      0x00\n        /* \"contracts/OrderBook.sol\":9219:9221  id */\n      dup4\n        /* \"contracts/OrderBook.sol\":9211:9222  askBook[id] */\n      dup2\n      mstore\n      0x20\n      add\n      swap1\n      dup2\n      mstore\n      0x20\n      add\n      0x00\n      keccak256\n        /* \"contracts/OrderBook.sol\":9211:9231  askBook[id].customer */\n      0x00\n      add\n      0x00\n      swap1\n      sload\n      swap1\n      0x0100\n      exp\n      swap1\n      div\n      0xffffffffffffffffffffffffffffffffffffffff\n      and\n        /* \"contracts/OrderBook.sol\":9204:9231  return askBook[id].customer */\n      swap1\n      pop\n        /* \"contracts/OrderBook.sol\":9121:9238  function getAskAddress (uint256 id) public view returns(address payable) {... */\n      swap2\n      swap1\n      pop\n      jump\t// out\n        /* \"contracts/OrderBook.sol\":6940:7388  function placeAsk (uint256 price) public payable {... */\n    tag_86:\n        /* \"contracts/OrderBook.sol\":7016:7017  0 */\n      0x00\n        /* \"contracts/OrderBook.sol\":7007:7012  price */\n      dup2\n        /* \"contracts/OrderBook.sol\":7007:7017  price >= 0 */\n      lt\n      iszero\n        /* \"contracts/OrderBook.sol\":6999:7053  require(price >= 0, \"price value must be more than 0\") */\n      tag_174\n      jumpi\n      mload(0x40)\n      0x08c379a000000000000000000000000000000000000000000000000000000000\n      dup2\n      mstore\n      0x04\n      add\n      tag_175\n      swap1\n      tag_176\n      jump\t// in\n    tag_175:\n      mload(0x40)\n      dup1\n      swap2\n      sub\n      swap1\n      revert\n    tag_174:\n        /* \"contracts/OrderBook.sol\":7084:7089  price */\n      dup1\n        /* \"contracts/OrderBook.sol\":7071:7080  msg.value */\n      callvalue\n        /* \"contracts/OrderBook.sol\":7071:7089  msg.value >= price */\n      lt\n      iszero\n        /* \"contracts/OrderBook.sol\":7063:7124  require(msg.value >= price, \"Not enough blance to place ask\") */\n      tag_177\n      jumpi\n      mload(0x40)\n      0x08c379a000000000000000000000000000000000000000000000000000000000\n      dup2\n      mstore\n      0x04\n      add\n      tag_178\n      swap1\n      tag_179\n      jump\t// in\n    tag_178:\n      mload(0x40)\n      dup1\n      swap2\n      sub\n      swap1\n      revert\n    tag_177:\n        /* \"contracts/OrderBook.sol\":7134:7146  uint256 time */\n      0x00\n        /* \"contracts/OrderBook.sol\":7149:7164  block.timestamp */\n      timestamp\n        /* \"contracts/OrderBook.sol\":7134:7164  uint256 time = block.timestamp */\n      swap1\n      pop\n        /* \"contracts/OrderBook.sol\":7174:7199  uint256 commissionedPrice */\n      0x00\n        /* \"contracts/OrderBook.sol\":7233:7236  100 */\n      0x64\n        /* \"contracts/OrderBook.sol\":7219:7229  commission */\n      sload(0x02)\n        /* \"contracts/OrderBook.sol\":7215:7218  100 */\n      0x64\n        /* \"contracts/OrderBook.sol\":7215:7229  100-commission */\n      tag_180\n      swap2\n      swap1\n      tag_181\n      jump\t// in\n    tag_180:\n        /* \"contracts/OrderBook.sol\":7202:7211  msg.value */\n      callvalue\n        /* \"contracts/OrderBook.sol\":7202:7230  msg.value * (100-commission) */\n      tag_182\n      swap2\n      swap1\n      tag_183\n      jump\t// in\n    tag_182:\n        /* \"contracts/OrderBook.sol\":7202:7236  msg.value * (100-commission) / 100 */\n      tag_184\n      swap2\n      swap1\n      tag_185\n      jump\t// in\n    tag_184:\n        /* \"contracts/OrderBook.sol\":7174:7236  uint256 commissionedPrice = msg.value * (100-commission) / 100 */\n      swap1\n      pop\n        /* \"contracts/OrderBook.sol\":7246:7265  order memory newAsk */\n      0x00\n        /* \"contracts/OrderBook.sol\":7268:7312  createAsk(msg.sender,commissionedPrice,time) */\n      tag_186\n        /* \"contracts/OrderBook.sol\":7278:7288  msg.sender */\n      caller\n        /* \"contracts/OrderBook.sol\":7289:7306  commissionedPrice */\n      dup4\n        /* \"contracts/OrderBook.sol\":7307:7311  time */\n      dup6\n        /* \"contracts/OrderBook.sol\":7268:7277  createAsk */\n      tag_187\n        /* \"contracts/OrderBook.sol\":7268:7312  createAsk(msg.sender,commissionedPrice,time) */\n      jump\t// in\n    tag_186:\n        /* \"contracts/OrderBook.sol\":7246:7312  order memory newAsk = createAsk(msg.sender,commissionedPrice,time) */\n      swap1\n      pop\n        /* \"contracts/OrderBook.sol\":7322:7337  sortAsk(newAsk) */\n      tag_188\n        /* \"contracts/OrderBook.sol\":7330:7336  newAsk */\n      dup2\n        /* \"contracts/OrderBook.sol\":7322:7329  sortAsk */\n      tag_189\n        /* \"contracts/OrderBook.sol\":7322:7337  sortAsk(newAsk) */\n      jump\t// in\n    tag_188:\n        /* \"contracts/OrderBook.sol\":7347:7353  _owner */\n      0x01\n      0x00\n      swap1\n      sload\n      swap1\n      0x0100\n      exp\n      swap1\n      div\n      0xffffffffffffffffffffffffffffffffffffffff\n      and\n        /* \"contracts/OrderBook.sol\":7347:7362  _owner.transfer */\n      0xffffffffffffffffffffffffffffffffffffffff\n      and\n        /* \"contracts/OrderBook.sol\":7347:7381  _owner.transfer(commissionedPrice) */\n      0x08fc\n        /* \"contracts/OrderBook.sol\":7363:7380  commissionedPrice */\n      dup4\n        /* \"contracts/OrderBook.sol\":7347:7381  _owner.transfer(commissionedPrice) */\n      swap1\n      dup2\n      iszero\n      mul\n      swap1\n      mload(0x40)\n      0x00\n      mload(0x40)\n      dup1\n      dup4\n      sub\n      dup2\n      dup6\n      dup9\n      dup9\n      call\n      swap4\n      pop\n      pop\n      pop\n      pop\n      iszero\n      dup1\n      iszero\n      tag_191\n      jumpi\n      returndatasize\n      0x00\n      dup1\n      returndatacopy\n      revert(0x00, returndatasize)\n    tag_191:\n      pop\n        /* \"contracts/OrderBook.sol\":6989:7388  {... */\n      pop\n      pop\n      pop\n        /* \"contracts/OrderBook.sol\":6940:7388  function placeAsk (uint256 price) public payable {... */\n      pop\n      jump\t// out\n        /* \"contracts/OrderBook.sol\":1967:1989  uint256 public askHead */\n    tag_89:\n      sload(0x07)\n      dup2\n      jump\t// out\n        /* \"contracts/OrderBook.sol\":6677:6934  function cancelBid (uint256 bidId) public isPending(bidBook[bidId]) isAuthorised(bidBook[bidId], msg.sender) {... */\n    tag_94:\n        /* \"contracts/OrderBook.sol\":6729:6736  bidBook */\n      0x03\n        /* \"contracts/OrderBook.sol\":6729:6743  bidBook[bidId] */\n      0x00\n        /* \"contracts/OrderBook.sol\":6737:6742  bidId */\n      dup3\n        /* \"contracts/OrderBook.sol\":6729:6743  bidBook[bidId] */\n      dup2\n      mstore\n      0x20\n      add\n      swap1\n      dup2\n      mstore\n      0x20\n      add\n      0x00\n      keccak256\n        /* \"contracts/OrderBook.sol\":2487:2610  modifier isPending(order memory _order) {... */\n      mload(0x40)\n      dup1\n      0xe0\n      add\n      0x40\n      mstore\n      swap1\n      dup2\n      0x00\n      dup3\n      add\n      0x00\n      swap1\n      sload\n      swap1\n      0x0100\n      exp\n      swap1\n      div\n      0xffffffffffffffffffffffffffffffffffffffff\n      and\n      0xffffffffffffffffffffffffffffffffffffffff\n      and\n      0xffffffffffffffffffffffffffffffffffffffff\n      and\n      dup2\n      mstore\n      0x20\n      add\n      0x01\n      dup3\n      add\n      sload\n      dup2\n      mstore\n      0x20\n      add\n      0x02\n      dup3\n      add\n      sload\n      dup2\n      mstore\n      0x20\n      add\n      0x03\n      dup3\n      add\n      0x00\n      swap1\n      sload\n      swap1\n      0x0100\n      exp\n      swap1\n      div\n      0xff\n      and\n      0x01\n      dup2\n      gt\n      iszero\n      tag_192\n      jumpi\n      tag_193\n      tag_140\n      jump\t// in\n    tag_193:\n    tag_192:\n      0x01\n      dup2\n      gt\n      iszero\n      tag_194\n      jumpi\n      tag_195\n      tag_140\n      jump\t// in\n    tag_195:\n    tag_194:\n      dup2\n      mstore\n      0x20\n      add\n      0x04\n      dup3\n      add\n      sload\n      dup2\n      mstore\n      0x20\n      add\n      0x05\n      dup3\n      add\n      sload\n      dup2\n      mstore\n      0x20\n      add\n      0x06\n      dup3\n      add\n      sload\n      dup2\n      mstore\n      pop\n      pop\n        /* \"contracts/OrderBook.sol\":2561:2574  State.pending */\n      0x00\n        /* \"contracts/OrderBook.sol\":2545:2574  _order.state == State.pending */\n      0x01\n      dup2\n      gt\n      iszero\n      tag_197\n      jumpi\n      tag_198\n      tag_140\n      jump\t// in\n    tag_198:\n    tag_197:\n        /* \"contracts/OrderBook.sol\":2545:2551  _order */\n      dup2\n        /* \"contracts/OrderBook.sol\":2545:2557  _order.state */\n      0x60\n      add\n      mload\n        /* \"contracts/OrderBook.sol\":2545:2574  _order.state == State.pending */\n      0x01\n      dup2\n      gt\n      iszero\n      tag_199\n      jumpi\n      tag_200\n      tag_140\n      jump\t// in\n    tag_200:\n    tag_199:\n      eq\n        /* \"contracts/OrderBook.sol\":2537:2592  require(_order.state == State.pending, \"Order Pending\") */\n      tag_201\n      jumpi\n      mload(0x40)\n      0x08c379a000000000000000000000000000000000000000000000000000000000\n      dup2\n      mstore\n      0x04\n      add\n      tag_202\n      swap1\n      tag_150\n      jump\t// in\n    tag_202:\n      mload(0x40)\n      dup1\n      swap2\n      sub\n      swap1\n      revert\n    tag_201:\n        /* \"contracts/OrderBook.sol\":6758:6765  bidBook */\n      0x03\n        /* \"contracts/OrderBook.sol\":6758:6772  bidBook[bidId] */\n      0x00\n        /* \"contracts/OrderBook.sol\":6766:6771  bidId */\n      dup4\n        /* \"contracts/OrderBook.sol\":6758:6772  bidBook[bidId] */\n      dup2\n      mstore\n      0x20\n      add\n      swap1\n      dup2\n      mstore\n      0x20\n      add\n      0x00\n      keccak256\n        /* \"contracts/OrderBook.sol\":2616:2755  modifier isAuthorised(order memory _order, address sender) {... */\n      mload(0x40)\n      dup1\n      0xe0\n      add\n      0x40\n      mstore\n      swap1\n      dup2\n      0x00\n      dup3\n      add\n      0x00\n      swap1\n      sload\n      swap1\n      0x0100\n      exp\n      swap1\n      div\n      0xffffffffffffffffffffffffffffffffffffffff\n      and\n      0xffffffffffffffffffffffffffffffffffffffff\n      and\n      0xffffffffffffffffffffffffffffffffffffffff\n      and\n      dup2\n      mstore\n      0x20\n      add\n      0x01\n      dup3\n      add\n      sload\n      dup2\n      mstore\n      0x20\n      add\n      0x02\n      dup3\n      add\n      sload\n      dup2\n      mstore\n      0x20\n      add\n      0x03\n      dup3\n      add\n      0x00\n      swap1\n      sload\n      swap1\n      0x0100\n      exp\n      swap1\n      div\n      0xff\n      and\n      0x01\n      dup2\n      gt\n      iszero\n      tag_203\n      jumpi\n      tag_204\n      tag_140\n      jump\t// in\n    tag_204:\n    tag_203:\n      0x01\n      dup2\n      gt\n      iszero\n      tag_205\n      jumpi\n      tag_206\n      tag_140\n      jump\t// in\n    tag_206:\n    tag_205:\n      dup2\n      mstore\n      0x20\n      add\n      0x04\n      dup3\n      add\n      sload\n      dup2\n      mstore\n      0x20\n      add\n      0x05\n      dup3\n      add\n      sload\n      dup2\n      mstore\n      0x20\n      add\n      0x06\n      dup3\n      add\n      sload\n      dup2\n      mstore\n      pop\n      pop\n        /* \"contracts/OrderBook.sol\":6774:6784  msg.sender */\n      caller\n        /* \"contracts/OrderBook.sol\":2712:2718  sender */\n      dup1\n        /* \"contracts/OrderBook.sol\":2693:2718  _order.customer == sender */\n      0xffffffffffffffffffffffffffffffffffffffff\n      and\n        /* \"contracts/OrderBook.sol\":2693:2699  _order */\n      dup3\n        /* \"contracts/OrderBook.sol\":2693:2708  _order.customer */\n      0x00\n      add\n      mload\n        /* \"contracts/OrderBook.sol\":2693:2718  _order.customer == sender */\n      0xffffffffffffffffffffffffffffffffffffffff\n      and\n      eq\n        /* \"contracts/OrderBook.sol\":2685:2737  require(_order.customer == sender, \"Not Authorised\") */\n      tag_208\n      jumpi\n      mload(0x40)\n      0x08c379a000000000000000000000000000000000000000000000000000000000\n      dup2\n      mstore\n      0x04\n      add\n      tag_209\n      swap1\n      tag_158\n      jump\t// in\n    tag_209:\n      mload(0x40)\n      dup1\n      swap2\n      sub\n      swap1\n      revert\n    tag_208:\n        /* \"contracts/OrderBook.sol\":2602:2603  _ */\n      pop\n      pop\n        /* \"contracts/OrderBook.sol\":6677:6934  function cancelBid (uint256 bidId) public isPending(bidBook[bidId]) isAuthorised(bidBook[bidId], msg.sender) {... */\n      pop\n      pop\n      jump\t// out\n        /* \"contracts/OrderBook.sol\":6223:6671  function placeBid (uint256 price) public payable {... */\n    tag_97:\n        /* \"contracts/OrderBook.sol\":6299:6300  0 */\n      0x00\n        /* \"contracts/OrderBook.sol\":6290:6295  price */\n      dup2\n        /* \"contracts/OrderBook.sol\":6290:6300  price >= 0 */\n      lt\n      iszero\n        /* \"contracts/OrderBook.sol\":6282:6336  require(price >= 0, \"price value must be more than 0\") */\n      tag_212\n      jumpi\n      mload(0x40)\n      0x08c379a000000000000000000000000000000000000000000000000000000000\n      dup2\n      mstore\n      0x04\n      add\n      tag_213\n      swap1\n      tag_176\n      jump\t// in\n    tag_213:\n      mload(0x40)\n      dup1\n      swap2\n      sub\n      swap1\n      revert\n    tag_212:\n        /* \"contracts/OrderBook.sol\":6367:6372  price */\n      dup1\n        /* \"contracts/OrderBook.sol\":6354:6363  msg.value */\n      callvalue\n        /* \"contracts/OrderBook.sol\":6354:6372  msg.value >= price */\n      lt\n      iszero\n        /* \"contracts/OrderBook.sol\":6346:6407  require(msg.value >= price, \"Not enough blance to place bid\") */\n      tag_214\n      jumpi\n      mload(0x40)\n      0x08c379a000000000000000000000000000000000000000000000000000000000\n      dup2\n      mstore\n      0x04\n      add\n      tag_215\n      swap1\n      tag_216\n      jump\t// in\n    tag_215:\n      mload(0x40)\n      dup1\n      swap2\n      sub\n      swap1\n      revert\n    tag_214:\n        /* \"contracts/OrderBook.sol\":6417:6429  uint256 time */\n      0x00\n        /* \"contracts/OrderBook.sol\":6432:6447  block.timestamp */\n      timestamp\n        /* \"contracts/OrderBook.sol\":6417:6447  uint256 time = block.timestamp */\n      swap1\n      pop\n        /* \"contracts/OrderBook.sol\":6457:6482  uint256 commissionedPrice */\n      0x00\n        /* \"contracts/OrderBook.sol\":6516:6519  100 */\n      0x64\n        /* \"contracts/OrderBook.sol\":6502:6512  commission */\n      sload(0x02)\n        /* \"contracts/OrderBook.sol\":6498:6501  100 */\n      0x64\n        /* \"contracts/OrderBook.sol\":6498:6512  100-commission */\n      tag_217\n      swap2\n      swap1\n      tag_181\n      jump\t// in\n    tag_217:\n        /* \"contracts/OrderBook.sol\":6485:6494  msg.value */\n      callvalue\n        /* \"contracts/OrderBook.sol\":6485:6513  msg.value * (100-commission) */\n      tag_218\n      swap2\n      swap1\n      tag_183\n      jump\t// in\n    tag_218:\n        /* \"contracts/OrderBook.sol\":6485:6519  msg.value * (100-commission) / 100 */\n      tag_219\n      swap2\n      swap1\n      tag_185\n      jump\t// in\n    tag_219:\n        /* \"contracts/OrderBook.sol\":6457:6519  uint256 commissionedPrice = msg.value * (100-commission) / 100 */\n      swap1\n      pop\n        /* \"contracts/OrderBook.sol\":6529:6548  order memory newBid */\n      0x00\n        /* \"contracts/OrderBook.sol\":6551:6595  createBid(msg.sender,commissionedPrice,time) */\n      tag_220\n        /* \"contracts/OrderBook.sol\":6561:6571  msg.sender */\n      caller\n        /* \"contracts/OrderBook.sol\":6572:6589  commissionedPrice */\n      dup4\n        /* \"contracts/OrderBook.sol\":6590:6594  time */\n      dup6\n        /* \"contracts/OrderBook.sol\":6551:6560  createBid */\n      tag_221\n        /* \"contracts/OrderBook.sol\":6551:6595  createBid(msg.sender,commissionedPrice,time) */\n      jump\t// in\n    tag_220:\n        /* \"contracts/OrderBook.sol\":6529:6595  order memory newBid = createBid(msg.sender,commissionedPrice,time) */\n      swap1\n      pop\n        /* \"contracts/OrderBook.sol\":6605:6620  sortBid(newBid) */\n      tag_222\n        /* \"contracts/OrderBook.sol\":6613:6619  newBid */\n      dup2\n        /* \"contracts/OrderBook.sol\":6605:6612  sortBid */\n      tag_223\n        /* \"contracts/OrderBook.sol\":6605:6620  sortBid(newBid) */\n      jump\t// in\n    tag_222:\n        /* \"contracts/OrderBook.sol\":6630:6636  _owner */\n      0x01\n      0x00\n      swap1\n      sload\n      swap1\n      0x0100\n      exp\n      swap1\n      div\n      0xffffffffffffffffffffffffffffffffffffffff\n      and\n        /* \"contracts/OrderBook.sol\":6630:6645  _owner.transfer */\n      0xffffffffffffffffffffffffffffffffffffffff\n      and\n        /* \"contracts/OrderBook.sol\":6630:6664  _owner.transfer(commissionedPrice) */\n      0x08fc\n        /* \"contracts/OrderBook.sol\":6646:6663  commissionedPrice */\n      dup4\n        /* \"contracts/OrderBook.sol\":6630:6664  _owner.transfer(commissionedPrice) */\n      swap1\n      dup2\n      iszero\n      mul\n      swap1\n      mload(0x40)\n      0x00\n      mload(0x40)\n      dup1\n      dup4\n      sub\n      dup2\n      dup6\n      dup9\n      dup9\n      call\n      swap4\n      pop\n      pop\n      pop\n      pop\n      iszero\n      dup1\n      iszero\n      tag_225\n      jumpi\n      returndatasize\n      0x00\n      dup1\n      returndatacopy\n      revert(0x00, returndatasize)\n    tag_225:\n      pop\n        /* \"contracts/OrderBook.sol\":6272:6671  {... */\n      pop\n      pop\n      pop\n        /* \"contracts/OrderBook.sol\":6223:6671  function placeBid (uint256 price) public payable {... */\n      pop\n      jump\t// out\n        /* \"contracts/OrderBook.sol\":1995:2018  uint256 public askCount */\n    tag_100:\n      sload(0x08)\n      dup2\n      jump\t// out\n        /* \"contracts/OrderBook.sol\":1850:1873  uint256 public bidCount */\n    tag_104:\n      sload(0x05)\n      dup2\n      jump\t// out\n        /* \"contracts/OrderBook.sol\":9464:9566  function getBidState (uint256 id) public view returns(State) {... */\n    tag_109:\n        /* \"contracts/OrderBook.sol\":9518:9523  State */\n      0x00\n        /* \"contracts/OrderBook.sol\":9542:9549  bidBook */\n      0x03\n        /* \"contracts/OrderBook.sol\":9542:9553  bidBook[id] */\n      0x00\n        /* \"contracts/OrderBook.sol\":9550:9552  id */\n      dup4\n        /* \"contracts/OrderBook.sol\":9542:9553  bidBook[id] */\n      dup2\n      mstore\n      0x20\n      add\n      swap1\n      dup2\n      mstore\n      0x20\n      add\n      0x00\n      keccak256\n        /* \"contracts/OrderBook.sol\":9542:9559  bidBook[id].state */\n      0x03\n      add\n      0x00\n      swap1\n      sload\n      swap1\n      0x0100\n      exp\n      swap1\n      div\n      0xff\n      and\n        /* \"contracts/OrderBook.sol\":9535:9559  return bidBook[id].state */\n      swap1\n      pop\n        /* \"contracts/OrderBook.sol\":9464:9566  function getBidState (uint256 id) public view returns(State) {... */\n      swap2\n      swap1\n      pop\n      jump\t// out\n        /* \"contracts/OrderBook.sol\":8520:8588  function fetchYourBidIds() public returns (uint256[] memory) {... */\n    tag_113:\n        /* \"contracts/OrderBook.sol\":8563:8579  uint256[] memory */\n      0x60\n        /* \"contracts/OrderBook.sol\":8520:8588  function fetchYourBidIds() public returns (uint256[] memory) {... */\n      swap1\n      jump\t// out\n        /* \"contracts/OrderBook.sol\":9788:9890  function getAskPrev (uint256 id) public view returns(uint256) {... */\n    tag_118:\n        /* \"contracts/OrderBook.sol\":9841:9848  uint256 */\n      0x00\n        /* \"contracts/OrderBook.sol\":9867:9874  askBook */\n      0x06\n        /* \"contracts/OrderBook.sol\":9867:9878  askBook[id] */\n      0x00\n        /* \"contracts/OrderBook.sol\":9875:9877  id */\n      dup4\n        /* \"contracts/OrderBook.sol\":9867:9878  askBook[id] */\n      dup2\n      mstore\n      0x20\n      add\n      swap1\n      dup2\n      mstore\n      0x20\n      add\n      0x00\n      keccak256\n        /* \"contracts/OrderBook.sol\":9867:9883  askBook[id].prev */\n      0x06\n      add\n      sload\n        /* \"contracts/OrderBook.sol\":9860:9883  return askBook[id].prev */\n      swap1\n      pop\n        /* \"contracts/OrderBook.sol\":9788:9890  function getAskPrev (uint256 id) public view returns(uint256) {... */\n      swap2\n      swap1\n      pop\n      jump\t// out\n        /* \"contracts/OrderBook.sol\":8668:8992  function getOrder(uint256 id) public view returns(address payable,uint256,uint256,State,uint256,uint256,uint256,bool) {... */\n    tag_123:\n        /* \"contracts/OrderBook.sol\":8718:8733  address payable */\n      0x00\n        /* \"contracts/OrderBook.sol\":8734:8741  uint256 */\n      dup1\n        /* \"contracts/OrderBook.sol\":8742:8749  uint256 */\n      0x00\n        /* \"contracts/OrderBook.sol\":8750:8755  State */\n      dup1\n        /* \"contracts/OrderBook.sol\":8756:8763  uint256 */\n      0x00\n        /* \"contracts/OrderBook.sol\":8764:8771  uint256 */\n      dup1\n        /* \"contracts/OrderBook.sol\":8772:8779  uint256 */\n      0x00\n        /* \"contracts/OrderBook.sol\":8780:8784  bool */\n      dup1\n        /* \"contracts/OrderBook.sol\":8668:8992  function getOrder(uint256 id) public view returns(address payable,uint256,uint256,State,uint256,uint256,uint256,bool) {... */\n      swap2\n      swap4\n      swap6\n      swap8\n      pop\n      swap2\n      swap4\n      swap6\n      swap8\n      jump\t// out\n        /* \"contracts/OrderBook.sol\":9354:9458  function getAskValue (uint256 id) public view returns(uint256) {... */\n    tag_129:\n        /* \"contracts/OrderBook.sol\":9408:9415  uint256 */\n      0x00\n        /* \"contracts/OrderBook.sol\":9434:9441  askBook */\n      0x06\n        /* \"contracts/OrderBook.sol\":9434:9445  askBook[id] */\n      0x00\n        /* \"contracts/OrderBook.sol\":9442:9444  id */\n      dup4\n        /* \"contracts/OrderBook.sol\":9434:9445  askBook[id] */\n      dup2\n      mstore\n      0x20\n      add\n      swap1\n      dup2\n      mstore\n      0x20\n      add\n      0x00\n      keccak256\n        /* \"contracts/OrderBook.sol\":9434:9451  askBook[id].value */\n      0x01\n      add\n      sload\n        /* \"contracts/OrderBook.sol\":9427:9451  return askBook[id].value */\n      swap1\n      pop\n        /* \"contracts/OrderBook.sol\":9354:9458  function getAskValue (uint256 id) public view returns(uint256) {... */\n      swap2\n      swap1\n      pop\n      jump\t// out\n        /* \"contracts/Strings.sol\":328:1031  function toString(uint256 value) internal pure returns (string memory) {... */\n    tag_135:\n        /* \"contracts/Strings.sol\":384:397  string memory */\n      0x60\n        /* \"contracts/Strings.sol\":610:611  0 */\n      0x00\n        /* \"contracts/Strings.sol\":601:606  value */\n      dup3\n        /* \"contracts/Strings.sol\":601:611  value == 0 */\n      eq\n        /* \"contracts/Strings.sol\":597:648  if (value == 0) {... */\n      iszero\n      tag_232\n      jumpi\n        /* \"contracts/Strings.sol\":627:637  return \"0\" */\n      mload(0x40)\n      dup1\n      0x40\n      add\n      0x40\n      mstore\n      dup1\n      0x01\n      dup2\n      mstore\n      0x20\n      add\n      0x3000000000000000000000000000000000000000000000000000000000000000\n      dup2\n      mstore\n      pop\n      swap1\n      pop\n      jump(tag_231)\n        /* \"contracts/Strings.sol\":597:648  if (value == 0) {... */\n    tag_232:\n        /* \"contracts/Strings.sol\":657:669  uint256 temp */\n      0x00\n        /* \"contracts/Strings.sol\":672:677  value */\n      dup3\n        /* \"contracts/Strings.sol\":657:677  uint256 temp = value */\n      swap1\n      pop\n        /* \"contracts/Strings.sol\":687:701  uint256 digits */\n      0x00\n        /* \"contracts/Strings.sol\":711:786  while (temp != 0) {... */\n    tag_233:\n        /* \"contracts/Strings.sol\":726:727  0 */\n      0x00\n        /* \"contracts/Strings.sol\":718:722  temp */\n      dup3\n        /* \"contracts/Strings.sol\":718:727  temp != 0 */\n      eq\n        /* \"contracts/Strings.sol\":711:786  while (temp != 0) {... */\n      tag_234\n      jumpi\n        /* \"contracts/Strings.sol\":743:751  digits++ */\n      dup1\n      dup1\n      tag_235\n      swap1\n      tag_236\n      jump\t// in\n    tag_235:\n      swap2\n      pop\n      pop\n        /* \"contracts/Strings.sol\":773:775  10 */\n      0x0a\n        /* \"contracts/Strings.sol\":765:775  temp /= 10 */\n      dup3\n      tag_237\n      swap2\n      swap1\n      tag_185\n      jump\t// in\n    tag_237:\n      swap2\n      pop\n        /* \"contracts/Strings.sol\":711:786  while (temp != 0) {... */\n      jump(tag_233)\n    tag_234:\n        /* \"contracts/Strings.sol\":795:814  bytes memory buffer */\n      0x00\n        /* \"contracts/Strings.sol\":827:833  digits */\n      dup2\n        /* \"contracts/Strings.sol\":817:834  new bytes(digits) */\n      0xffffffffffffffff\n      dup2\n      gt\n      iszero\n      tag_238\n      jumpi\n      tag_239\n      tag_240\n      jump\t// in\n    tag_239:\n    tag_238:\n      mload(0x40)\n      swap1\n      dup1\n      dup3\n      mstore\n      dup1\n      0x1f\n      add\n      not(0x1f)\n      and\n      0x20\n      add\n      dup3\n      add\n      0x40\n      mstore\n      dup1\n      iszero\n      tag_241\n      jumpi\n      dup2\n      0x20\n      add\n      0x01\n      dup3\n      mul\n      dup1\n      calldatasize\n      dup4\n      calldatacopy\n      dup1\n      dup3\n      add\n      swap2\n      pop\n      pop\n      swap1\n      pop\n    tag_241:\n      pop\n        /* \"contracts/Strings.sol\":795:834  bytes memory buffer = new bytes(digits) */\n      swap1\n      pop\n        /* \"contracts/Strings.sol\":844:994  while (value != 0) {... */\n    tag_242:\n        /* \"contracts/Strings.sol\":860:861  0 */\n      0x00\n        /* \"contracts/Strings.sol\":851:856  value */\n      dup6\n        /* \"contracts/Strings.sol\":851:861  value != 0 */\n      eq\n        /* \"contracts/Strings.sol\":844:994  while (value != 0) {... */\n      tag_243\n      jumpi\n        /* \"contracts/Strings.sol\":887:888  1 */\n      0x01\n        /* \"contracts/Strings.sol\":877:888  digits -= 1 */\n      dup3\n      tag_244\n      swap2\n      swap1\n      tag_181\n      jump\t// in\n    tag_244:\n      swap2\n      pop\n        /* \"contracts/Strings.sol\":953:955  10 */\n      0x0a\n        /* \"contracts/Strings.sol\":945:950  value */\n      dup6\n        /* \"contracts/Strings.sol\":945:955  value % 10 */\n      tag_245\n      swap2\n      swap1\n      tag_246\n      jump\t// in\n    tag_245:\n        /* \"contracts/Strings.sol\":932:934  48 */\n      0x30\n        /* \"contracts/Strings.sol\":932:956  48 + uint256(value % 10) */\n      tag_247\n      swap2\n      swap1\n      tag_248\n      jump\t// in\n    tag_247:\n        /* \"contracts/Strings.sol\":919:958  bytes1(uint8(48 + uint256(value % 10))) */\n      0xf8\n      shl\n        /* \"contracts/Strings.sol\":902:908  buffer */\n      dup2\n        /* \"contracts/Strings.sol\":909:915  digits */\n      dup4\n        /* \"contracts/Strings.sol\":902:916  buffer[digits] */\n      dup2\n      mload\n      dup2\n      lt\n      tag_249\n      jumpi\n      tag_250\n      tag_251\n      jump\t// in\n    tag_250:\n    tag_249:\n      0x20\n      add\n      add\n        /* \"contracts/Strings.sol\":902:958  buffer[digits] = bytes1(uint8(48 + uint256(value % 10))) */\n      swap1\n      not(0xffffffffffffffffffffffffffffffffffffffffffffffffffffffffffffff)\n      and\n      swap1\n      dup2\n      0x00\n      byte\n      swap1\n      mstore8\n      pop\n        /* \"contracts/Strings.sol\":981:983  10 */\n      0x0a\n        /* \"contracts/Strings.sol\":972:983  value /= 10 */\n      dup6\n      tag_252\n      swap2\n      swap1\n      tag_185\n      jump\t// in\n    tag_252:\n      swap5\n      pop\n        /* \"contracts/Strings.sol\":844:994  while (value != 0) {... */\n      jump(tag_242)\n    tag_243:\n        /* \"contracts/Strings.sol\":1017:1023  buffer */\n      dup1\n        /* \"contracts/Strings.sol\":1003:1024  return string(buffer) */\n      swap4\n      pop\n      pop\n      pop\n      pop\n        /* \"contracts/Strings.sol\":328:1031  function toString(uint256 value) internal pure returns (string memory) {... */\n    tag_231:\n      swap2\n      swap1\n      pop\n      jump\t// out\n        /* \"contracts/OrderBook.sol\":3266:3738  function createAsk(address customer, uint256 value, uint256 timestamp) internal returns (order memory) {... */\n    tag_187:\n        /* \"contracts/OrderBook.sol\":3355:3367  order memory */\n      tag_253\n      tag_254\n      jump\t// in\n    tag_253:\n        /* \"contracts/OrderBook.sol\":3379:3387  askCount */\n      0x08\n      0x00\n        /* \"contracts/OrderBook.sol\":3379:3390  askCount ++ */\n      dup2\n      sload\n      dup1\n      swap3\n      swap2\n      swap1\n      tag_256\n      swap1\n      tag_236\n      jump\t// in\n    tag_256:\n      swap2\n      swap1\n      pop\n      sstore\n      pop\n        /* \"contracts/OrderBook.sol\":3400:3419  order memory newAsk */\n      0x00\n        /* \"contracts/OrderBook.sol\":3422:3589  order(... */\n      mload(0x40)\n      dup1\n      0xe0\n      add\n      0x40\n      mstore\n      dup1\n        /* \"contracts/OrderBook.sol\":3449:3457  customer */\n      dup7\n        /* \"contracts/OrderBook.sol\":3422:3589  order(... */\n      0xffffffffffffffffffffffffffffffffffffffff\n      and\n      dup2\n      mstore\n      0x20\n      add\n        /* \"contracts/OrderBook.sol\":3472:3477  value */\n      dup6\n        /* \"contracts/OrderBook.sol\":3422:3589  order(... */\n      dup2\n      mstore\n      0x20\n      add\n        /* \"contracts/OrderBook.sol\":3491:3500  timestamp */\n      dup5\n        /* \"contracts/OrderBook.sol\":3422:3589  order(... */\n      dup2\n      mstore\n      0x20\n      add\n        /* \"contracts/OrderBook.sol\":3514:3527  State.pending */\n      0x00\n        /* \"contracts/OrderBook.sol\":3422:3589  order(... */\n      0x01\n      dup2\n      gt\n      iszero\n      tag_257\n      jumpi\n      tag_258\n      tag_140\n      jump\t// in\n    tag_258:\n    tag_257:\n      dup2\n      mstore\n      0x20\n      add\n        /* \"contracts/OrderBook.sol\":3541:3549  askCount */\n      sload(0x08)\n        /* \"contracts/OrderBook.sol\":3422:3589  order(... */\n      dup2\n      mstore\n      0x20\n      add\n        /* \"contracts/OrderBook.sol\":3563:3564  0 */\n      0x00\n        /* \"contracts/OrderBook.sol\":3422:3589  order(... */\n      dup2\n      mstore\n      0x20\n      add\n        /* \"contracts/OrderBook.sol\":3578:3579  0 */\n      0x00\n        /* \"contracts/OrderBook.sol\":3422:3589  order(... */\n      dup2\n      mstore\n      pop\n        /* \"contracts/OrderBook.sol\":3400:3589  order memory newAsk = order(... */\n      swap1\n      pop\n        /* \"contracts/OrderBook.sol\":3619:3625  newAsk */\n      dup1\n        /* \"contracts/OrderBook.sol\":3599:3606  askBook */\n      0x06\n        /* \"contracts/OrderBook.sol\":3599:3616  askBook[askCount] */\n      0x00\n        /* \"contracts/OrderBook.sol\":3607:3615  askCount */\n      sload(0x08)\n        /* \"contracts/OrderBook.sol\":3599:3616  askBook[askCount] */\n      dup2\n      mstore\n      0x20\n      add\n      swap1\n      dup2\n      mstore\n      0x20\n      add\n      0x00\n      keccak256\n        /* \"contracts/OrderBook.sol\":3599:3625  askBook[askCount] = newAsk */\n      0x00\n      dup3\n      add\n      mload\n      dup2\n      0x00\n      add\n      exp(0x0100, 0x00)\n      dup2\n      sload\n      dup2\n      0xffffffffffffffffffffffffffffffffffffffff\n      mul\n      not\n      and\n      swap1\n      dup4\n      0xffffffffffffffffffffffffffffffffffffffff\n      and\n      mul\n      or\n      swap1\n      sstore\n      pop\n      0x20\n      dup3\n      add\n      mload\n      dup2\n      0x01\n      add\n      sstore\n      0x40\n      dup3\n      add\n      mload\n      dup2\n      0x02\n      add\n      sstore\n      0x60\n      dup3\n      add\n      mload\n      dup2\n      0x03\n      add\n      exp(0x0100, 0x00)\n      dup2\n      sload\n      dup2\n      0xff\n      mul\n      not\n      and\n      swap1\n      dup4\n      0x01\n      dup2\n      gt\n      iszero\n      tag_259\n      jumpi\n      tag_260\n      tag_140\n      jump\t// in\n    tag_260:\n    tag_259:\n      mul\n      or\n      swap1\n      sstore\n      pop\n      0x80\n      dup3\n      add\n      mload\n      dup2\n      0x04\n      add\n      sstore\n      0xa0\n      dup3\n      add\n      mload\n      dup2\n      0x05\n      add\n      sstore\n      0xc0\n      dup3\n      add\n      mload\n      dup2\n      0x06\n      add\n      sstore\n      swap1\n      pop\n      pop\n        /* \"contracts/OrderBook.sol\":3640:3705  orderCreated(customer,value,timestamp,State.pending,askCount,0,0) */\n      0xb363d8961e2dcc4e4f9cafac06e22ffe5a3ee9b47f614e483f989b932167e865\n        /* \"contracts/OrderBook.sol\":3653:3661  customer */\n      dup6\n        /* \"contracts/OrderBook.sol\":3662:3667  value */\n      dup6\n        /* \"contracts/OrderBook.sol\":3668:3677  timestamp */\n      dup6\n        /* \"contracts/OrderBook.sol\":3678:3691  State.pending */\n      0x00\n        /* \"contracts/OrderBook.sol\":3692:3700  askCount */\n      sload(0x08)\n        /* \"contracts/OrderBook.sol\":3701:3702  0 */\n      0x00\n        /* \"contracts/OrderBook.sol\":3703:3704  0 */\n      dup1\n        /* \"contracts/OrderBook.sol\":3640:3705  orderCreated(customer,value,timestamp,State.pending,askCount,0,0) */\n      mload(0x40)\n      tag_261\n      swap8\n      swap7\n      swap6\n      swap5\n      swap4\n      swap3\n      swap2\n      swap1\n      tag_262\n      jump\t// in\n    tag_261:\n      mload(0x40)\n      dup1\n      swap2\n      sub\n      swap1\n      log1\n        /* \"contracts/OrderBook.sol\":3725:3731  newAsk */\n      dup1\n        /* \"contracts/OrderBook.sol\":3718:3731  return newAsk */\n      swap2\n      pop\n      pop\n        /* \"contracts/OrderBook.sol\":3266:3738  function createAsk(address customer, uint256 value, uint256 timestamp) internal returns (order memory) {... */\n      swap4\n      swap3\n      pop\n      pop\n      pop\n      jump\t// out\n        /* \"contracts/OrderBook.sol\":3766:4643  function sortAsk(order memory newOrder) internal {... */\n    tag_189:\n        /* \"contracts/OrderBook.sol\":3825:3840  uint256 current */\n      0x00\n        /* \"contracts/OrderBook.sol\":3865:3866  0 */\n      dup1\n        /* \"contracts/OrderBook.sol\":3854:3861  askHead */\n      sload(0x07)\n        /* \"contracts/OrderBook.sol\":3854:3866  askHead == 0 */\n      eq\n        /* \"contracts/OrderBook.sol\":3850:4637  if (askHead == 0) {... */\n      iszero\n      tag_264\n      jumpi\n        /* \"contracts/OrderBook.sol\":3892:3900  newOrder */\n      dup2\n        /* \"contracts/OrderBook.sol\":3892:3903  newOrder.id */\n      0x80\n      add\n      mload\n        /* \"contracts/OrderBook.sol\":3882:3889  askHead */\n      0x07\n        /* \"contracts/OrderBook.sol\":3882:3903  askHead = newOrder.id */\n      dup2\n      swap1\n      sstore\n      pop\n        /* \"contracts/OrderBook.sol\":3850:4637  if (askHead == 0) {... */\n      jump(tag_265)\n    tag_264:\n        /* \"contracts/OrderBook.sol\":3950:3958  newOrder */\n      dup2\n        /* \"contracts/OrderBook.sol\":3950:3964  newOrder.value */\n      0x20\n      add\n      mload\n        /* \"contracts/OrderBook.sol\":3924:3931  askBook */\n      0x06\n        /* \"contracts/OrderBook.sol\":3924:3940  askBook[askHead] */\n      0x00\n        /* \"contracts/OrderBook.sol\":3932:3939  askHead */\n      sload(0x07)\n        /* \"contracts/OrderBook.sol\":3924:3940  askBook[askHead] */\n      dup2\n      mstore\n      0x20\n      add\n      swap1\n      dup2\n      mstore\n      0x20\n      add\n      0x00\n      keccak256\n        /* \"contracts/OrderBook.sol\":3924:3946  askBook[askHead].value */\n      0x01\n      add\n      sload\n        /* \"contracts/OrderBook.sol\":3924:3964  askBook[askHead].value >= newOrder.value */\n      lt\n        /* \"contracts/OrderBook.sol\":3920:4637  if (askBook[askHead].value >= newOrder.value) {... */\n      tag_266\n      jumpi\n        /* \"contracts/OrderBook.sol\":4008:4015  askHead */\n      sload(0x07)\n        /* \"contracts/OrderBook.sol\":3980:3987  askBook */\n      0x06\n        /* \"contracts/OrderBook.sol\":3980:4000  askBook[newOrder.id] */\n      0x00\n        /* \"contracts/OrderBook.sol\":3988:3996  newOrder */\n      dup5\n        /* \"contracts/OrderBook.sol\":3988:3999  newOrder.id */\n      0x80\n      add\n      mload\n        /* \"contracts/OrderBook.sol\":3980:4000  askBook[newOrder.id] */\n      dup2\n      mstore\n      0x20\n      add\n      swap1\n      dup2\n      mstore\n      0x20\n      add\n      0x00\n      keccak256\n        /* \"contracts/OrderBook.sol\":3980:4005  askBook[newOrder.id].next */\n      0x05\n      add\n        /* \"contracts/OrderBook.sol\":3980:4015  askBook[newOrder.id].next = askHead */\n      dup2\n      swap1\n      sstore\n      pop\n        /* \"contracts/OrderBook.sol\":4071:4079  newOrder */\n      dup2\n        /* \"contracts/OrderBook.sol\":4071:4082  newOrder.id */\n      0x80\n      add\n      mload\n        /* \"contracts/OrderBook.sol\":4029:4036  askBook */\n      0x06\n        /* \"contracts/OrderBook.sol\":4029:4063  askBook[askBook[newOrder.id].next] */\n      0x00\n        /* \"contracts/OrderBook.sol\":4037:4044  askBook */\n      0x06\n        /* \"contracts/OrderBook.sol\":4037:4057  askBook[newOrder.id] */\n      0x00\n        /* \"contracts/OrderBook.sol\":4045:4053  newOrder */\n      dup7\n        /* \"contracts/OrderBook.sol\":4045:4056  newOrder.id */\n      0x80\n      add\n      mload\n        /* \"contracts/OrderBook.sol\":4037:4057  askBook[newOrder.id] */\n      dup2\n      mstore\n      0x20\n      add\n      swap1\n      dup2\n      mstore\n      0x20\n      add\n      0x00\n      keccak256\n        /* \"contracts/OrderBook.sol\":4037:4062  askBook[newOrder.id].next */\n      0x05\n      add\n      sload\n        /* \"contracts/OrderBook.sol\":4029:4063  askBook[askBook[newOrder.id].next] */\n      dup2\n      mstore\n      0x20\n      add\n      swap1\n      dup2\n      mstore\n      0x20\n      add\n      0x00\n      keccak256\n        /* \"contracts/OrderBook.sol\":4029:4068  askBook[askBook[newOrder.id].next].prev */\n      0x06\n      add\n        /* \"contracts/OrderBook.sol\":4029:4082  askBook[askBook[newOrder.id].next].prev = newOrder.id */\n      dup2\n      swap1\n      sstore\n      pop\n        /* \"contracts/OrderBook.sol\":4106:4114  newOrder */\n      dup2\n        /* \"contracts/OrderBook.sol\":4106:4117  newOrder.id */\n      0x80\n      add\n      mload\n        /* \"contracts/OrderBook.sol\":4096:4103  askHead */\n      0x07\n        /* \"contracts/OrderBook.sol\":4096:4117  askHead = newOrder.id */\n      dup2\n      swap1\n      sstore\n      pop\n        /* \"contracts/OrderBook.sol\":3920:4637  if (askBook[askHead].value >= newOrder.value) {... */\n      jump(tag_267)\n    tag_266:\n        /* \"contracts/OrderBook.sol\":4158:4165  askHead */\n      sload(0x07)\n        /* \"contracts/OrderBook.sol\":4148:4165  current = askHead */\n      swap1\n      pop\n        /* \"contracts/OrderBook.sol\":4179:4335  while (askBook[current].next != 0 && askBook[askBook[current].next].value < newOrder.value) {... */\n    tag_268:\n        /* \"contracts/OrderBook.sol\":4211:4212  0 */\n      0x00\n        /* \"contracts/OrderBook.sol\":4186:4193  askBook */\n      0x06\n        /* \"contracts/OrderBook.sol\":4186:4202  askBook[current] */\n      0x00\n        /* \"contracts/OrderBook.sol\":4194:4201  current */\n      dup4\n        /* \"contracts/OrderBook.sol\":4186:4202  askBook[current] */\n      dup2\n      mstore\n      0x20\n      add\n      swap1\n      dup2\n      mstore\n      0x20\n      add\n      0x00\n      keccak256\n        /* \"contracts/OrderBook.sol\":4186:4207  askBook[current].next */\n      0x05\n      add\n      sload\n        /* \"contracts/OrderBook.sol\":4186:4212  askBook[current].next != 0 */\n      eq\n      iszero\n        /* \"contracts/OrderBook.sol\":4186:4269  askBook[current].next != 0 && askBook[askBook[current].next].value < newOrder.value */\n      dup1\n      iszero\n      tag_270\n      jumpi\n      pop\n        /* \"contracts/OrderBook.sol\":4255:4263  newOrder */\n      dup2\n        /* \"contracts/OrderBook.sol\":4255:4269  newOrder.value */\n      0x20\n      add\n      mload\n        /* \"contracts/OrderBook.sol\":4216:4223  askBook */\n      0x06\n        /* \"contracts/OrderBook.sol\":4216:4246  askBook[askBook[current].next] */\n      0x00\n        /* \"contracts/OrderBook.sol\":4224:4231  askBook */\n      0x06\n        /* \"contracts/OrderBook.sol\":4224:4240  askBook[current] */\n      0x00\n        /* \"contracts/OrderBook.sol\":4232:4239  current */\n      dup6\n        /* \"contracts/OrderBook.sol\":4224:4240  askBook[current] */\n      dup2\n      mstore\n      0x20\n      add\n      swap1\n      dup2\n      mstore\n      0x20\n      add\n      0x00\n      keccak256\n        /* \"contracts/OrderBook.sol\":4224:4245  askBook[current].next */\n      0x05\n      add\n      sload\n        /* \"contracts/OrderBook.sol\":4216:4246  askBook[askBook[current].next] */\n      dup2\n      mstore\n      0x20\n      add\n      swap1\n      dup2\n      mstore\n      0x20\n      add\n      0x00\n      keccak256\n        /* \"contracts/OrderBook.sol\":4216:4252  askBook[askBook[current].next].value */\n      0x01\n      add\n      sload\n        /* \"contracts/OrderBook.sol\":4216:4269  askBook[askBook[current].next].value < newOrder.value */\n      lt\n        /* \"contracts/OrderBook.sol\":4186:4269  askBook[current].next != 0 && askBook[askBook[current].next].value < newOrder.value */\n    tag_270:\n        /* \"contracts/OrderBook.sol\":4179:4335  while (askBook[current].next != 0 && askBook[askBook[current].next].value < newOrder.value) {... */\n      iszero\n      tag_269\n      jumpi\n        /* \"contracts/OrderBook.sol\":4299:4306  askBook */\n      0x06\n        /* \"contracts/OrderBook.sol\":4299:4315  askBook[current] */\n      0x00\n        /* \"contracts/OrderBook.sol\":4307:4314  current */\n      dup3\n        /* \"contracts/OrderBook.sol\":4299:4315  askBook[current] */\n      dup2\n      mstore\n      0x20\n      add\n      swap1\n      dup2\n      mstore\n      0x20\n      add\n      0x00\n      keccak256\n        /* \"contracts/OrderBook.sol\":4299:4320  askBook[current].next */\n      0x05\n      add\n      sload\n        /* \"contracts/OrderBook.sol\":4289:4320  current = askBook[current].next */\n      swap1\n      pop\n        /* \"contracts/OrderBook.sol\":4179:4335  while (askBook[current].next != 0 && askBook[askBook[current].next].value < newOrder.value) {... */\n      jump(tag_268)\n    tag_269:\n        /* \"contracts/OrderBook.sol\":4376:4383  askBook */\n      0x06\n        /* \"contracts/OrderBook.sol\":4376:4392  askBook[current] */\n      0x00\n        /* \"contracts/OrderBook.sol\":4384:4391  current */\n      dup3\n        /* \"contracts/OrderBook.sol\":4376:4392  askBook[current] */\n      dup2\n      mstore\n      0x20\n      add\n      swap1\n      dup2\n      mstore\n      0x20\n      add\n      0x00\n      keccak256\n        /* \"contracts/OrderBook.sol\":4376:4397  askBook[current].next */\n      0x05\n      add\n      sload\n        /* \"contracts/OrderBook.sol\":4348:4355  askBook */\n      0x06\n        /* \"contracts/OrderBook.sol\":4348:4368  askBook[newOrder.id] */\n      0x00\n        /* \"contracts/OrderBook.sol\":4356:4364  newOrder */\n      dup5\n        /* \"contracts/OrderBook.sol\":4356:4367  newOrder.id */\n      0x80\n      add\n      mload\n        /* \"contracts/OrderBook.sol\":4348:4368  askBook[newOrder.id] */\n      dup2\n      mstore\n      0x20\n      add\n      swap1\n      dup2\n      mstore\n      0x20\n      add\n      0x00\n      keccak256\n        /* \"contracts/OrderBook.sol\":4348:4373  askBook[newOrder.id].next */\n      0x05\n      add\n        /* \"contracts/OrderBook.sol\":4348:4397  askBook[newOrder.id].next = askBook[current].next */\n      dup2\n      swap1\n      sstore\n      pop\n        /* \"contracts/OrderBook.sol\":4440:4441  0 */\n      0x00\n        /* \"contracts/OrderBook.sol\":4415:4422  askBook */\n      0x06\n        /* \"contracts/OrderBook.sol\":4415:4431  askBook[current] */\n      0x00\n        /* \"contracts/OrderBook.sol\":4423:4430  current */\n      dup4\n        /* \"contracts/OrderBook.sol\":4415:4431  askBook[current] */\n      dup2\n      mstore\n      0x20\n      add\n      swap1\n      dup2\n      mstore\n      0x20\n      add\n      0x00\n      keccak256\n        /* \"contracts/OrderBook.sol\":4415:4436  askBook[current].next */\n      0x05\n      add\n      sload\n        /* \"contracts/OrderBook.sol\":4415:4441  askBook[current].next != 0 */\n      eq\n        /* \"contracts/OrderBook.sol\":4411:4529  if (askBook[current].next != 0) {... */\n      tag_271\n      jumpi\n        /* \"contracts/OrderBook.sol\":4503:4511  newOrder */\n      dup2\n        /* \"contracts/OrderBook.sol\":4503:4514  newOrder.id */\n      0x80\n      add\n      mload\n        /* \"contracts/OrderBook.sol\":4461:4468  askBook */\n      0x06\n        /* \"contracts/OrderBook.sol\":4461:4495  askBook[askBook[newOrder.id].next] */\n      0x00\n        /* \"contracts/OrderBook.sol\":4469:4476  askBook */\n      0x06\n        /* \"contracts/OrderBook.sol\":4469:4489  askBook[newOrder.id] */\n      0x00\n        /* \"contracts/OrderBook.sol\":4477:4485  newOrder */\n      dup7\n        /* \"contracts/OrderBook.sol\":4477:4488  newOrder.id */\n      0x80\n      add\n      mload\n        /* \"contracts/OrderBook.sol\":4469:4489  askBook[newOrder.id] */\n      dup2\n      mstore\n      0x20\n      add\n      swap1\n      dup2\n      mstore\n      0x20\n      add\n      0x00\n      keccak256\n        /* \"contracts/OrderBook.sol\":4469:4494  askBook[newOrder.id].next */\n      0x05\n      add\n      sload\n        /* \"contracts/OrderBook.sol\":4461:4495  askBook[askBook[newOrder.id].next] */\n      dup2\n      mstore\n      0x20\n      add\n      swap1\n      dup2\n      mstore\n      0x20\n      add\n      0x00\n      keccak256\n        /* \"contracts/OrderBook.sol\":4461:4500  askBook[askBook[newOrder.id].next].prev */\n      0x06\n      add\n        /* \"contracts/OrderBook.sol\":4461:4514  askBook[askBook[newOrder.id].next].prev = newOrder.id */\n      dup2\n      swap1\n      sstore\n      pop\n        /* \"contracts/OrderBook.sol\":4411:4529  if (askBook[current].next != 0) {... */\n    tag_271:\n        /* \"contracts/OrderBook.sol\":4566:4574  newOrder */\n      dup2\n        /* \"contracts/OrderBook.sol\":4566:4577  newOrder.id */\n      0x80\n      add\n      mload\n        /* \"contracts/OrderBook.sol\":4542:4549  askBook */\n      0x06\n        /* \"contracts/OrderBook.sol\":4542:4558  askBook[current] */\n      0x00\n        /* \"contracts/OrderBook.sol\":4550:4557  current */\n      dup4\n        /* \"contracts/OrderBook.sol\":4542:4558  askBook[current] */\n      dup2\n      mstore\n      0x20\n      add\n      swap1\n      dup2\n      mstore\n      0x20\n      add\n      0x00\n      keccak256\n        /* \"contracts/OrderBook.sol\":4542:4563  askBook[current].next */\n      0x05\n      add\n        /* \"contracts/OrderBook.sol\":4542:4577  askBook[current].next = newOrder.id */\n      dup2\n      swap1\n      sstore\n      pop\n        /* \"contracts/OrderBook.sol\":4619:4626  current */\n      dup1\n        /* \"contracts/OrderBook.sol\":4591:4598  askBook */\n      0x06\n        /* \"contracts/OrderBook.sol\":4591:4611  askBook[newOrder.id] */\n      0x00\n        /* \"contracts/OrderBook.sol\":4599:4607  newOrder */\n      dup5\n        /* \"contracts/OrderBook.sol\":4599:4610  newOrder.id */\n      0x80\n      add\n      mload\n        /* \"contracts/OrderBook.sol\":4591:4611  askBook[newOrder.id] */\n      dup2\n      mstore\n      0x20\n      add\n      swap1\n      dup2\n      mstore\n      0x20\n      add\n      0x00\n      keccak256\n        /* \"contracts/OrderBook.sol\":4591:4616  askBook[newOrder.id].prev */\n      0x06\n      add\n        /* \"contracts/OrderBook.sol\":4591:4626  askBook[newOrder.id].prev = current */\n      dup2\n      swap1\n      sstore\n      pop\n        /* \"contracts/OrderBook.sol\":3920:4637  if (askBook[askHead].value >= newOrder.value) {... */\n    tag_267:\n        /* \"contracts/OrderBook.sol\":3850:4637  if (askHead == 0) {... */\n    tag_265:\n        /* \"contracts/OrderBook.sol\":3815:4643  {... */\n      pop\n        /* \"contracts/OrderBook.sol\":3766:4643  function sortAsk(order memory newOrder) internal {... */\n      pop\n      jump\t// out\n        /* \"contracts/OrderBook.sol\":2788:3260  function createBid(address customer, uint256 value, uint256 timestamp) internal returns (order memory) {... */\n    tag_221:\n        /* \"contracts/OrderBook.sol\":2877:2889  order memory */\n      tag_272\n      tag_254\n      jump\t// in\n    tag_272:\n        /* \"contracts/OrderBook.sol\":2901:2909  bidCount */\n      0x05\n      0x00\n        /* \"contracts/OrderBook.sol\":2901:2912  bidCount ++ */\n      dup2\n      sload\n      dup1\n      swap3\n      swap2\n      swap1\n      tag_274\n      swap1\n      tag_236\n      jump\t// in\n    tag_274:\n      swap2\n      swap1\n      pop\n      sstore\n      pop\n        /* \"contracts/OrderBook.sol\":2922:2941  order memory newBid */\n      0x00\n        /* \"contracts/OrderBook.sol\":2944:3111  order(... */\n      mload(0x40)\n      dup1\n      0xe0\n      add\n      0x40\n      mstore\n      dup1\n        /* \"contracts/OrderBook.sol\":2971:2979  customer */\n      dup7\n        /* \"contracts/OrderBook.sol\":2944:3111  order(... */\n      0xffffffffffffffffffffffffffffffffffffffff\n      and\n      dup2\n      mstore\n      0x20\n      add\n        /* \"contracts/OrderBook.sol\":2994:2999  value */\n      dup6\n        /* \"contracts/OrderBook.sol\":2944:3111  order(... */\n      dup2\n      mstore\n      0x20\n      add\n        /* \"contracts/OrderBook.sol\":3013:3022  timestamp */\n      dup5\n        /* \"contracts/OrderBook.sol\":2944:3111  order(... */\n      dup2\n      mstore\n      0x20\n      add\n        /* \"contracts/OrderBook.sol\":3036:3049  State.pending */\n      0x00\n        /* \"contracts/OrderBook.sol\":2944:3111  order(... */\n      0x01\n      dup2\n      gt\n      iszero\n      tag_275\n      jumpi\n      tag_276\n      tag_140\n      jump\t// in\n    tag_276:\n    tag_275:\n      dup2\n      mstore\n      0x20\n      add\n        /* \"contracts/OrderBook.sol\":3063:3071  bidCount */\n      sload(0x05)\n        /* \"contracts/OrderBook.sol\":2944:3111  order(... */\n      dup2\n      mstore\n      0x20\n      add\n        /* \"contracts/OrderBook.sol\":3085:3086  0 */\n      0x00\n        /* \"contracts/OrderBook.sol\":2944:3111  order(... */\n      dup2\n      mstore\n      0x20\n      add\n        /* \"contracts/OrderBook.sol\":3100:3101  0 */\n      0x00\n        /* \"contracts/OrderBook.sol\":2944:3111  order(... */\n      dup2\n      mstore\n      pop\n        /* \"contracts/OrderBook.sol\":2922:3111  order memory newBid = order(... */\n      swap1\n      pop\n        /* \"contracts/OrderBook.sol\":3141:3147  newBid */\n      dup1\n        /* \"contracts/OrderBook.sol\":3121:3128  bidBook */\n      0x03\n        /* \"contracts/OrderBook.sol\":3121:3138  bidBook[bidCount] */\n      0x00\n        /* \"contracts/OrderBook.sol\":3129:3137  bidCount */\n      sload(0x05)\n        /* \"contracts/OrderBook.sol\":3121:3138  bidBook[bidCount] */\n      dup2\n      mstore\n      0x20\n      add\n      swap1\n      dup2\n      mstore\n      0x20\n      add\n      0x00\n      keccak256\n        /* \"contracts/OrderBook.sol\":3121:3147  bidBook[bidCount] = newBid */\n      0x00\n      dup3\n      add\n      mload\n      dup2\n      0x00\n      add\n      exp(0x0100, 0x00)\n      dup2\n      sload\n      dup2\n      0xffffffffffffffffffffffffffffffffffffffff\n      mul\n      not\n      and\n      swap1\n      dup4\n      0xffffffffffffffffffffffffffffffffffffffff\n      and\n      mul\n      or\n      swap1\n      sstore\n      pop\n      0x20\n      dup3\n      add\n      mload\n      dup2\n      0x01\n      add\n      sstore\n      0x40\n      dup3\n      add\n      mload\n      dup2\n      0x02\n      add\n      sstore\n      0x60\n      dup3\n      add\n      mload\n      dup2\n      0x03\n      add\n      exp(0x0100, 0x00)\n      dup2\n      sload\n      dup2\n      0xff\n      mul\n      not\n      and\n      swap1\n      dup4\n      0x01\n      dup2\n      gt\n      iszero\n      tag_277\n      jumpi\n      tag_278\n      tag_140\n      jump\t// in\n    tag_278:\n    tag_277:\n      mul\n      or\n      swap1\n      sstore\n      pop\n      0x80\n      dup3\n      add\n      mload\n      dup2\n      0x04\n      add\n      sstore\n      0xa0\n      dup3\n      add\n      mload\n      dup2\n      0x05\n      add\n      sstore\n      0xc0\n      dup3\n      add\n      mload\n      dup2\n      0x06\n      add\n      sstore\n      swap1\n      pop\n      pop\n        /* \"contracts/OrderBook.sol\":3162:3227  orderCreated(customer,value,timestamp,State.pending,bidCount,0,0) */\n      0xb363d8961e2dcc4e4f9cafac06e22ffe5a3ee9b47f614e483f989b932167e865\n        /* \"contracts/OrderBook.sol\":3175:3183  customer */\n      dup6\n        /* \"contracts/OrderBook.sol\":3184:3189  value */\n      dup6\n        /* \"contracts/OrderBook.sol\":3190:3199  timestamp */\n      dup6\n        /* \"contracts/OrderBook.sol\":3200:3213  State.pending */\n      0x00\n        /* \"contracts/OrderBook.sol\":3214:3222  bidCount */\n      sload(0x05)\n        /* \"contracts/OrderBook.sol\":3223:3224  0 */\n      0x00\n        /* \"contracts/OrderBook.sol\":3225:3226  0 */\n      dup1\n        /* \"contracts/OrderBook.sol\":3162:3227  orderCreated(customer,value,timestamp,State.pending,bidCount,0,0) */\n      mload(0x40)\n      tag_279\n      swap8\n      swap7\n      swap6\n      swap5\n      swap4\n      swap3\n      swap2\n      swap1\n      tag_262\n      jump\t// in\n    tag_279:\n      mload(0x40)\n      dup1\n      swap2\n      sub\n      swap1\n      log1\n        /* \"contracts/OrderBook.sol\":3247:3253  newBid */\n      dup1\n        /* \"contracts/OrderBook.sol\":3240:3253  return newBid */\n      swap2\n      pop\n      pop\n        /* \"contracts/OrderBook.sol\":2788:3260  function createBid(address customer, uint256 value, uint256 timestamp) internal returns (order memory) {... */\n      swap4\n      swap3\n      pop\n      pop\n      pop\n      jump\t// out\n        /* \"contracts/OrderBook.sol\":4671:5548  function sortBid(order memory newOrder) internal {... */\n    tag_223:\n        /* \"contracts/OrderBook.sol\":4730:4745  uint256 current */\n      0x00\n        /* \"contracts/OrderBook.sol\":4770:4771  0 */\n      dup1\n        /* \"contracts/OrderBook.sol\":4759:4766  bidHead */\n      sload(0x04)\n        /* \"contracts/OrderBook.sol\":4759:4771  bidHead == 0 */\n      eq\n        /* \"contracts/OrderBook.sol\":4755:5542  if (bidHead == 0) {... */\n      iszero\n      tag_281\n      jumpi\n        /* \"contracts/OrderBook.sol\":4797:4805  newOrder */\n      dup2\n        /* \"contracts/OrderBook.sol\":4797:4808  newOrder.id */\n      0x80\n      add\n      mload\n        /* \"contracts/OrderBook.sol\":4787:4794  bidHead */\n      0x04\n        /* \"contracts/OrderBook.sol\":4787:4808  bidHead = newOrder.id */\n      dup2\n      swap1\n      sstore\n      pop\n        /* \"contracts/OrderBook.sol\":4755:5542  if (bidHead == 0) {... */\n      jump(tag_282)\n    tag_281:\n        /* \"contracts/OrderBook.sol\":4855:4863  newOrder */\n      dup2\n        /* \"contracts/OrderBook.sol\":4855:4869  newOrder.value */\n      0x20\n      add\n      mload\n        /* \"contracts/OrderBook.sol\":4829:4836  bidBook */\n      0x03\n        /* \"contracts/OrderBook.sol\":4829:4845  bidBook[bidHead] */\n      0x00\n        /* \"contracts/OrderBook.sol\":4837:4844  bidHead */\n      sload(0x04)\n        /* \"contracts/OrderBook.sol\":4829:4845  bidBook[bidHead] */\n      dup2\n      mstore\n      0x20\n      add\n      swap1\n      dup2\n      mstore\n      0x20\n      add\n      0x00\n      keccak256\n        /* \"contracts/OrderBook.sol\":4829:4851  bidBook[bidHead].value */\n      0x01\n      add\n      sload\n        /* \"contracts/OrderBook.sol\":4829:4869  bidBook[bidHead].value <= newOrder.value */\n      gt\n        /* \"contracts/OrderBook.sol\":4825:5542  if (bidBook[bidHead].value <= newOrder.value) {... */\n      tag_283\n      jumpi\n        /* \"contracts/OrderBook.sol\":4913:4920  bidHead */\n      sload(0x04)\n        /* \"contracts/OrderBook.sol\":4885:4892  bidBook */\n      0x03\n        /* \"contracts/OrderBook.sol\":4885:4905  bidBook[newOrder.id] */\n      0x00\n        /* \"contracts/OrderBook.sol\":4893:4901  newOrder */\n      dup5\n        /* \"contracts/OrderBook.sol\":4893:4904  newOrder.id */\n      0x80\n      add\n      mload\n        /* \"contracts/OrderBook.sol\":4885:4905  bidBook[newOrder.id] */\n      dup2\n      mstore\n      0x20\n      add\n      swap1\n      dup2\n      mstore\n      0x20\n      add\n      0x00\n      keccak256\n        /* \"contracts/OrderBook.sol\":4885:4910  bidBook[newOrder.id].next */\n      0x05\n      add\n        /* \"contracts/OrderBook.sol\":4885:4920  bidBook[newOrder.id].next = bidHead */\n      dup2\n      swap1\n      sstore\n      pop\n        /* \"contracts/OrderBook.sol\":4976:4984  newOrder */\n      dup2\n        /* \"contracts/OrderBook.sol\":4976:4987  newOrder.id */\n      0x80\n      add\n      mload\n        /* \"contracts/OrderBook.sol\":4934:4941  bidBook */\n      0x03\n        /* \"contracts/OrderBook.sol\":4934:4968  bidBook[bidBook[newOrder.id].next] */\n      0x00\n        /* \"contracts/OrderBook.sol\":4942:4949  bidBook */\n      0x03\n        /* \"contracts/OrderBook.sol\":4942:4962  bidBook[newOrder.id] */\n      0x00\n        /* \"contracts/OrderBook.sol\":4950:4958  newOrder */\n      dup7\n        /* \"contracts/OrderBook.sol\":4950:4961  newOrder.id */\n      0x80\n      add\n      mload\n        /* \"contracts/OrderBook.sol\":4942:4962  bidBook[newOrder.id] */\n      dup2\n      mstore\n      0x20\n      add\n      swap1\n      dup2\n      mstore\n      0x20\n      add\n      0x00\n      keccak256\n        /* \"contracts/OrderBook.sol\":4942:4967  bidBook[newOrder.id].next */\n      0x05\n      add\n      sload\n        /* \"contracts/OrderBook.sol\":4934:4968  bidBook[bidBook[newOrder.id].next] */\n      dup2\n      mstore\n      0x20\n      add\n      swap1\n      dup2\n      mstore\n      0x20\n      add\n      0x00\n      keccak256\n        /* \"contracts/OrderBook.sol\":4934:4973  bidBook[bidBook[newOrder.id].next].prev */\n      0x06\n      add\n        /* \"contracts/OrderBook.sol\":4934:4987  bidBook[bidBook[newOrder.id].next].prev = newOrder.id */\n      dup2\n      swap1\n      sstore\n      pop\n        /* \"contracts/OrderBook.sol\":5011:5019  newOrder */\n      dup2\n        /* \"contracts/OrderBook.sol\":5011:5022  newOrder.id */\n      0x80\n      add\n      mload\n        /* \"contracts/OrderBook.sol\":5001:5008  bidHead */\n      0x04\n        /* \"contracts/OrderBook.sol\":5001:5022  bidHead = newOrder.id */\n      dup2\n      swap1\n      sstore\n      pop\n        /* \"contracts/OrderBook.sol\":4825:5542  if (bidBook[bidHead].value <= newOrder.value) {... */\n      jump(tag_284)\n    tag_283:\n        /* \"contracts/OrderBook.sol\":5063:5070  bidHead */\n      sload(0x04)\n        /* \"contracts/OrderBook.sol\":5053:5070  current = bidHead */\n      swap1\n      pop\n        /* \"contracts/OrderBook.sol\":5084:5240  while (bidBook[current].next != 0 && bidBook[bidBook[current].next].value > newOrder.value) {... */\n    tag_285:\n        /* \"contracts/OrderBook.sol\":5116:5117  0 */\n      0x00\n        /* \"contracts/OrderBook.sol\":5091:5098  bidBook */\n      0x03\n        /* \"contracts/OrderBook.sol\":5091:5107  bidBook[current] */\n      0x00\n        /* \"contracts/OrderBook.sol\":5099:5106  current */\n      dup4\n        /* \"contracts/OrderBook.sol\":5091:5107  bidBook[current] */\n      dup2\n      mstore\n      0x20\n      add\n      swap1\n      dup2\n      mstore\n      0x20\n      add\n      0x00\n      keccak256\n        /* \"contracts/OrderBook.sol\":5091:5112  bidBook[current].next */\n      0x05\n      add\n      sload\n        /* \"contracts/OrderBook.sol\":5091:5117  bidBook[current].next != 0 */\n      eq\n      iszero\n        /* \"contracts/OrderBook.sol\":5091:5174  bidBook[current].next != 0 && bidBook[bidBook[current].next].value > newOrder.value */\n      dup1\n      iszero\n      tag_287\n      jumpi\n      pop\n        /* \"contracts/OrderBook.sol\":5160:5168  newOrder */\n      dup2\n        /* \"contracts/OrderBook.sol\":5160:5174  newOrder.value */\n      0x20\n      add\n      mload\n        /* \"contracts/OrderBook.sol\":5121:5128  bidBook */\n      0x03\n        /* \"contracts/OrderBook.sol\":5121:5151  bidBook[bidBook[current].next] */\n      0x00\n        /* \"contracts/OrderBook.sol\":5129:5136  bidBook */\n      0x03\n        /* \"contracts/OrderBook.sol\":5129:5145  bidBook[current] */\n      0x00\n        /* \"contracts/OrderBook.sol\":5137:5144  current */\n      dup6\n        /* \"contracts/OrderBook.sol\":5129:5145  bidBook[current] */\n      dup2\n      mstore\n      0x20\n      add\n      swap1\n      dup2\n      mstore\n      0x20\n      add\n      0x00\n      keccak256\n        /* \"contracts/OrderBook.sol\":5129:5150  bidBook[current].next */\n      0x05\n      add\n      sload\n        /* \"contracts/OrderBook.sol\":5121:5151  bidBook[bidBook[current].next] */\n      dup2\n      mstore\n      0x20\n      add\n      swap1\n      dup2\n      mstore\n      0x20\n      add\n      0x00\n      keccak256\n        /* \"contracts/OrderBook.sol\":5121:5157  bidBook[bidBook[current].next].value */\n      0x01\n      add\n      sload\n        /* \"contracts/OrderBook.sol\":5121:5174  bidBook[bidBook[current].next].value > newOrder.value */\n      gt\n        /* \"contracts/OrderBook.sol\":5091:5174  bidBook[current].next != 0 && bidBook[bidBook[current].next].value > newOrder.value */\n    tag_287:\n        /* \"contracts/OrderBook.sol\":5084:5240  while (bidBook[current].next != 0 && bidBook[bidBook[current].next].value > newOrder.value) {... */\n      iszero\n      tag_286\n      jumpi\n        /* \"contracts/OrderBook.sol\":5204:5211  bidBook */\n      0x03\n        /* \"contracts/OrderBook.sol\":5204:5220  bidBook[current] */\n      0x00\n        /* \"contracts/OrderBook.sol\":5212:5219  current */\n      dup3\n        /* \"contracts/OrderBook.sol\":5204:5220  bidBook[current] */\n      dup2\n      mstore\n      0x20\n      add\n      swap1\n      dup2\n      mstore\n      0x20\n      add\n      0x00\n      keccak256\n        /* \"contracts/OrderBook.sol\":5204:5225  bidBook[current].next */\n      0x05\n      add\n      sload\n        /* \"contracts/OrderBook.sol\":5194:5225  current = bidBook[current].next */\n      swap1\n      pop\n        /* \"contracts/OrderBook.sol\":5084:5240  while (bidBook[current].next != 0 && bidBook[bidBook[current].next].value > newOrder.value) {... */\n      jump(tag_285)\n    tag_286:\n        /* \"contracts/OrderBook.sol\":5281:5288  bidBook */\n      0x03\n        /* \"contracts/OrderBook.sol\":5281:5297  bidBook[current] */\n      0x00\n        /* \"contracts/OrderBook.sol\":5289:5296  current */\n      dup3\n        /* \"contracts/OrderBook.sol\":5281:5297  bidBook[current] */\n      dup2\n      mstore\n      0x20\n      add\n      swap1\n      dup2\n      mstore\n      0x20\n      add\n      0x00\n      keccak256\n        /* \"contracts/OrderBook.sol\":5281:5302  bidBook[current].next */\n      0x05\n      add\n      sload\n        /* \"contracts/OrderBook.sol\":5253:5260  bidBook */\n      0x03\n        /* \"contracts/OrderBook.sol\":5253:5273  bidBook[newOrder.id] */\n      0x00\n        /* \"contracts/OrderBook.sol\":5261:5269  newOrder */\n      dup5\n        /* \"contracts/OrderBook.sol\":5261:5272  newOrder.id */\n      0x80\n      add\n      mload\n        /* \"contracts/OrderBook.sol\":5253:5273  bidBook[newOrder.id] */\n      dup2\n      mstore\n      0x20\n      add\n      swap1\n      dup2\n      mstore\n      0x20\n      add\n      0x00\n      keccak256\n        /* \"contracts/OrderBook.sol\":5253:5278  bidBook[newOrder.id].next */\n      0x05\n      add\n        /* \"contracts/OrderBook.sol\":5253:5302  bidBook[newOrder.id].next = bidBook[current].next */\n      dup2\n      swap1\n      sstore\n      pop\n        /* \"contracts/OrderBook.sol\":5345:5346  0 */\n      0x00\n        /* \"contracts/OrderBook.sol\":5320:5327  bidBook */\n      0x03\n        /* \"contracts/OrderBook.sol\":5320:5336  bidBook[current] */\n      0x00\n        /* \"contracts/OrderBook.sol\":5328:5335  current */\n      dup4\n        /* \"contracts/OrderBook.sol\":5320:5336  bidBook[current] */\n      dup2\n      mstore\n      0x20\n      add\n      swap1\n      dup2\n      mstore\n      0x20\n      add\n      0x00\n      keccak256\n        /* \"contracts/OrderBook.sol\":5320:5341  bidBook[current].next */\n      0x05\n      add\n      sload\n        /* \"contracts/OrderBook.sol\":5320:5346  bidBook[current].next != 0 */\n      eq\n        /* \"contracts/OrderBook.sol\":5316:5434  if (bidBook[current].next != 0) {... */\n      tag_288\n      jumpi\n        /* \"contracts/OrderBook.sol\":5408:5416  newOrder */\n      dup2\n        /* \"contracts/OrderBook.sol\":5408:5419  newOrder.id */\n      0x80\n      add\n      mload\n        /* \"contracts/OrderBook.sol\":5366:5373  bidBook */\n      0x03\n        /* \"contracts/OrderBook.sol\":5366:5400  bidBook[bidBook[newOrder.id].next] */\n      0x00\n        /* \"contracts/OrderBook.sol\":5374:5381  bidBook */\n      0x03\n        /* \"contracts/OrderBook.sol\":5374:5394  bidBook[newOrder.id] */\n      0x00\n        /* \"contracts/OrderBook.sol\":5382:5390  newOrder */\n      dup7\n        /* \"contracts/OrderBook.sol\":5382:5393  newOrder.id */\n      0x80\n      add\n      mload\n        /* \"contracts/OrderBook.sol\":5374:5394  bidBook[newOrder.id] */\n      dup2\n      mstore\n      0x20\n      add\n      swap1\n      dup2\n      mstore\n      0x20\n      add\n      0x00\n      keccak256\n        /* \"contracts/OrderBook.sol\":5374:5399  bidBook[newOrder.id].next */\n      0x05\n      add\n      sload\n        /* \"contracts/OrderBook.sol\":5366:5400  bidBook[bidBook[newOrder.id].next] */\n      dup2\n      mstore\n      0x20\n      add\n      swap1\n      dup2\n      mstore\n      0x20\n      add\n      0x00\n      keccak256\n        /* \"contracts/OrderBook.sol\":5366:5405  bidBook[bidBook[newOrder.id].next].prev */\n      0x06\n      add\n        /* \"contracts/OrderBook.sol\":5366:5419  bidBook[bidBook[newOrder.id].next].prev = newOrder.id */\n      dup2\n      swap1\n      sstore\n      pop\n        /* \"contracts/OrderBook.sol\":5316:5434  if (bidBook[current].next != 0) {... */\n    tag_288:\n        /* \"contracts/OrderBook.sol\":5471:5479  newOrder */\n      dup2\n        /* \"contracts/OrderBook.sol\":5471:5482  newOrder.id */\n      0x80\n      add\n      mload\n        /* \"contracts/OrderBook.sol\":5447:5454  bidBook */\n      0x03\n        /* \"contracts/OrderBook.sol\":5447:5463  bidBook[current] */\n      0x00\n        /* \"contracts/OrderBook.sol\":5455:5462  current */\n      dup4\n        /* \"contracts/OrderBook.sol\":5447:5463  bidBook[current] */\n      dup2\n      mstore\n      0x20\n      add\n      swap1\n      dup2\n      mstore\n      0x20\n      add\n      0x00\n      keccak256\n        /* \"contracts/OrderBook.sol\":5447:5468  bidBook[current].next */\n      0x05\n      add\n        /* \"contracts/OrderBook.sol\":5447:5482  bidBook[current].next = newOrder.id */\n      dup2\n      swap1\n      sstore\n      pop\n        /* \"contracts/OrderBook.sol\":5524:5531  current */\n      dup1\n        /* \"contracts/OrderBook.sol\":5496:5503  bidBook */\n      0x03\n        /* \"contracts/OrderBook.sol\":5496:5516  bidBook[newOrder.id] */\n      0x00\n        /* \"contracts/OrderBook.sol\":5504:5512  newOrder */\n      dup5\n        /* \"contracts/OrderBook.sol\":5504:5515  newOrder.id */\n      0x80\n      add\n      mload\n        /* \"contracts/OrderBook.sol\":5496:5516  bidBook[newOrder.id] */\n      dup2\n      mstore\n      0x20\n      add\n      swap1\n      dup2\n      mstore\n      0x20\n      add\n      0x00\n      keccak256\n        /* \"contracts/OrderBook.sol\":5496:5521  bidBook[newOrder.id].prev */\n      0x06\n      add\n        /* \"contracts/OrderBook.sol\":5496:5531  bidBook[newOrder.id].prev = current */\n      dup2\n      swap1\n      sstore\n      pop\n        /* \"contracts/OrderBook.sol\":4825:5542  if (bidBook[bidHead].value <= newOrder.value) {... */\n    tag_284:\n        /* \"contracts/OrderBook.sol\":4755:5542  if (bidHead == 0) {... */\n    tag_282:\n        /* \"contracts/OrderBook.sol\":4720:5548  {... */\n      pop\n        /* \"contracts/OrderBook.sol\":4671:5548  function sortBid(order memory newOrder) internal {... */\n      pop\n      jump\t// out\n    tag_254:\n      mload(0x40)\n      dup1\n      0xe0\n      add\n      0x40\n      mstore\n      dup1\n      and(0xffffffffffffffffffffffffffffffffffffffff, 0x00)\n      dup2\n      mstore\n      0x20\n      add\n      0x00\n      dup2\n      mstore\n      0x20\n      add\n      0x00\n      dup2\n      mstore\n      0x20\n      add\n      0x00\n      0x01\n      dup2\n      gt\n      iszero\n      tag_289\n      jumpi\n      tag_290\n      tag_140\n      jump\t// in\n    tag_290:\n    tag_289:\n      dup2\n      mstore\n      0x20\n      add\n      0x00\n      dup2\n      mstore\n      0x20\n      add\n      0x00\n      dup2\n      mstore\n      0x20\n      add\n      0x00\n      dup2\n      mstore\n      pop\n      swap1\n      jump\t// out\n        /* \"#utility.yul\":7:419   */\n    tag_292:\n        /* \"#utility.yul\":85:90   */\n      0x00\n        /* \"#utility.yul\":110:176   */\n      tag_294\n        /* \"#utility.yul\":126:175   */\n      tag_295\n        /* \"#utility.yul\":168:174   */\n      dup5\n        /* \"#utility.yul\":126:175   */\n      tag_296\n      jump\t// in\n    tag_295:\n        /* \"#utility.yul\":110:176   */\n      tag_297\n      jump\t// in\n    tag_294:\n        /* \"#utility.yul\":101:176   */\n      swap1\n      pop\n        /* \"#utility.yul\":199:205   */\n      dup3\n        /* \"#utility.yul\":192:197   */\n      dup2\n        /* \"#utility.yul\":185:206   */\n      mstore\n        /* \"#utility.yul\":237:241   */\n      0x20\n        /* \"#utility.yul\":230:235   */\n      dup2\n        /* \"#utility.yul\":226:242   */\n      add\n        /* \"#utility.yul\":275:278   */\n      dup5\n        /* \"#utility.yul\":266:272   */\n      dup5\n        /* \"#utility.yul\":261:264   */\n      dup5\n        /* \"#utility.yul\":257:273   */\n      add\n        /* \"#utility.yul\":254:279   */\n      gt\n        /* \"#utility.yul\":251:363   */\n      iszero\n      tag_298\n      jumpi\n        /* \"#utility.yul\":282:361   */\n      tag_299\n      tag_300\n      jump\t// in\n    tag_299:\n        /* \"#utility.yul\":251:363   */\n    tag_298:\n        /* \"#utility.yul\":372:413   */\n      tag_301\n        /* \"#utility.yul\":406:412   */\n      dup5\n        /* \"#utility.yul\":401:404   */\n      dup3\n        /* \"#utility.yul\":396:399   */\n      dup6\n        /* \"#utility.yul\":372:413   */\n      tag_302\n      jump\t// in\n    tag_301:\n        /* \"#utility.yul\":91:419   */\n      pop\n        /* \"#utility.yul\":7:419   */\n      swap4\n      swap3\n      pop\n      pop\n      pop\n      jump\t// out\n        /* \"#utility.yul\":439:779   */\n    tag_303:\n        /* \"#utility.yul\":495:500   */\n      0x00\n        /* \"#utility.yul\":544:547   */\n      dup3\n        /* \"#utility.yul\":537:541   */\n      0x1f\n        /* \"#utility.yul\":529:535   */\n      dup4\n        /* \"#utility.yul\":525:542   */\n      add\n        /* \"#utility.yul\":521:548   */\n      slt\n        /* \"#utility.yul\":511:633   */\n      tag_305\n      jumpi\n        /* \"#utility.yul\":552:631   */\n      tag_306\n      tag_307\n      jump\t// in\n    tag_306:\n        /* \"#utility.yul\":511:633   */\n    tag_305:\n        /* \"#utility.yul\":669:675   */\n      dup2\n        /* \"#utility.yul\":656:676   */\n      calldataload\n        /* \"#utility.yul\":694:773   */\n      tag_308\n        /* \"#utility.yul\":769:772   */\n      dup5\n        /* \"#utility.yul\":761:767   */\n      dup3\n        /* \"#utility.yul\":754:758   */\n      0x20\n        /* \"#utility.yul\":746:752   */\n      dup7\n        /* \"#utility.yul\":742:759   */\n      add\n        /* \"#utility.yul\":694:773   */\n      tag_292\n      jump\t// in\n    tag_308:\n        /* \"#utility.yul\":685:773   */\n      swap2\n      pop\n        /* \"#utility.yul\":501:779   */\n      pop\n        /* \"#utility.yul\":439:779   */\n      swap3\n      swap2\n      pop\n      pop\n      jump\t// out\n        /* \"#utility.yul\":785:924   */\n    tag_309:\n        /* \"#utility.yul\":831:836   */\n      0x00\n        /* \"#utility.yul\":869:875   */\n      dup2\n        /* \"#utility.yul\":856:876   */\n      calldataload\n        /* \"#utility.yul\":847:876   */\n      swap1\n      pop\n        /* \"#utility.yul\":885:918   */\n      tag_311\n        /* \"#utility.yul\":912:917   */\n      dup2\n        /* \"#utility.yul\":885:918   */\n      tag_312\n      jump\t// in\n    tag_311:\n        /* \"#utility.yul\":785:924   */\n      swap3\n      swap2\n      pop\n      pop\n      jump\t// out\n        /* \"#utility.yul\":930:1764   */\n    tag_45:\n        /* \"#utility.yul\":1018:1024   */\n      0x00\n        /* \"#utility.yul\":1026:1032   */\n      dup1\n        /* \"#utility.yul\":1075:1077   */\n      0x40\n        /* \"#utility.yul\":1063:1072   */\n      dup4\n        /* \"#utility.yul\":1054:1061   */\n      dup6\n        /* \"#utility.yul\":1050:1073   */\n      sub\n        /* \"#utility.yul\":1046:1078   */\n      slt\n        /* \"#utility.yul\":1043:1162   */\n      iszero\n      tag_314\n      jumpi\n        /* \"#utility.yul\":1081:1160   */\n      tag_315\n      tag_316\n      jump\t// in\n    tag_315:\n        /* \"#utility.yul\":1043:1162   */\n    tag_314:\n        /* \"#utility.yul\":1229:1230   */\n      0x00\n        /* \"#utility.yul\":1218:1227   */\n      dup4\n        /* \"#utility.yul\":1214:1231   */\n      add\n        /* \"#utility.yul\":1201:1232   */\n      calldataload\n        /* \"#utility.yul\":1259:1277   */\n      0xffffffffffffffff\n        /* \"#utility.yul\":1251:1257   */\n      dup2\n        /* \"#utility.yul\":1248:1278   */\n      gt\n        /* \"#utility.yul\":1245:1362   */\n      iszero\n      tag_317\n      jumpi\n        /* \"#utility.yul\":1281:1360   */\n      tag_318\n      tag_319\n      jump\t// in\n    tag_318:\n        /* \"#utility.yul\":1245:1362   */\n    tag_317:\n        /* \"#utility.yul\":1386:1449   */\n      tag_320\n        /* \"#utility.yul\":1441:1448   */\n      dup6\n        /* \"#utility.yul\":1432:1438   */\n      dup3\n        /* \"#utility.yul\":1421:1430   */\n      dup7\n        /* \"#utility.yul\":1417:1439   */\n      add\n        /* \"#utility.yul\":1386:1449   */\n      tag_303\n      jump\t// in\n    tag_320:\n        /* \"#utility.yul\":1376:1449   */\n      swap3\n      pop\n        /* \"#utility.yul\":1172:1459   */\n      pop\n        /* \"#utility.yul\":1526:1528   */\n      0x20\n        /* \"#utility.yul\":1515:1524   */\n      dup4\n        /* \"#utility.yul\":1511:1529   */\n      add\n        /* \"#utility.yul\":1498:1530   */\n      calldataload\n        /* \"#utility.yul\":1557:1575   */\n      0xffffffffffffffff\n        /* \"#utility.yul\":1549:1555   */\n      dup2\n        /* \"#utility.yul\":1546:1576   */\n      gt\n        /* \"#utility.yul\":1543:1660   */\n      iszero\n      tag_321\n      jumpi\n        /* \"#utility.yul\":1579:1658   */\n      tag_322\n      tag_319\n      jump\t// in\n    tag_322:\n        /* \"#utility.yul\":1543:1660   */\n    tag_321:\n        /* \"#utility.yul\":1684:1747   */\n      tag_323\n        /* \"#utility.yul\":1739:1746   */\n      dup6\n        /* \"#utility.yul\":1730:1736   */\n      dup3\n        /* \"#utility.yul\":1719:1728   */\n      dup7\n        /* \"#utility.yul\":1715:1737   */\n      add\n        /* \"#utility.yul\":1684:1747   */\n      tag_303\n      jump\t// in\n    tag_323:\n        /* \"#utility.yul\":1674:1747   */\n      swap2\n      pop\n        /* \"#utility.yul\":1469:1757   */\n      pop\n        /* \"#utility.yul\":930:1764   */\n      swap3\n      pop\n      swap3\n      swap1\n      pop\n      jump\t// out\n        /* \"#utility.yul\":1770:2099   */\n    tag_40:\n        /* \"#utility.yul\":1829:1835   */\n      0x00\n        /* \"#utility.yul\":1878:1880   */\n      0x20\n        /* \"#utility.yul\":1866:1875   */\n      dup3\n        /* \"#utility.yul\":1857:1864   */\n      dup5\n        /* \"#utility.yul\":1853:1876   */\n      sub\n        /* \"#utility.yul\":1849:1881   */\n      slt\n        /* \"#utility.yul\":1846:1965   */\n      iszero\n      tag_325\n      jumpi\n        /* \"#utility.yul\":1884:1963   */\n      tag_326\n      tag_316\n      jump\t// in\n    tag_326:\n        /* \"#utility.yul\":1846:1965   */\n    tag_325:\n        /* \"#utility.yul\":2004:2005   */\n      0x00\n        /* \"#utility.yul\":2029:2082   */\n      tag_327\n        /* \"#utility.yul\":2074:2081   */\n      dup5\n        /* \"#utility.yul\":2065:2071   */\n      dup3\n        /* \"#utility.yul\":2054:2063   */\n      dup6\n        /* \"#utility.yul\":2050:2072   */\n      add\n        /* \"#utility.yul\":2029:2082   */\n      tag_309\n      jump\t// in\n    tag_327:\n        /* \"#utility.yul\":2019:2082   */\n      swap2\n      pop\n        /* \"#utility.yul\":1975:2092   */\n      pop\n        /* \"#utility.yul\":1770:2099   */\n      swap3\n      swap2\n      pop\n      pop\n      jump\t// out\n        /* \"#utility.yul\":2105:2284   */\n    tag_328:\n        /* \"#utility.yul\":2174:2184   */\n      0x00\n        /* \"#utility.yul\":2195:2241   */\n      tag_330\n        /* \"#utility.yul\":2237:2240   */\n      dup4\n        /* \"#utility.yul\":2229:2235   */\n      dup4\n        /* \"#utility.yul\":2195:2241   */\n      tag_331\n      jump\t// in\n    tag_330:\n        /* \"#utility.yul\":2273:2277   */\n      0x20\n        /* \"#utility.yul\":2268:2271   */\n      dup4\n        /* \"#utility.yul\":2264:2278   */\n      add\n        /* \"#utility.yul\":2250:2278   */\n      swap1\n      pop\n        /* \"#utility.yul\":2105:2284   */\n      swap3\n      swap2\n      pop\n      pop\n      jump\t// out\n        /* \"#utility.yul\":2290:2432   */\n    tag_332:\n        /* \"#utility.yul\":2393:2425   */\n      tag_334\n        /* \"#utility.yul\":2419:2424   */\n      dup2\n        /* \"#utility.yul\":2393:2425   */\n      tag_335\n      jump\t// in\n    tag_334:\n        /* \"#utility.yul\":2388:2391   */\n      dup3\n        /* \"#utility.yul\":2381:2426   */\n      mstore\n        /* \"#utility.yul\":2290:2432   */\n      pop\n      pop\n      jump\t// out\n        /* \"#utility.yul\":2438:2556   */\n    tag_336:\n        /* \"#utility.yul\":2525:2549   */\n      tag_338\n        /* \"#utility.yul\":2543:2548   */\n      dup2\n        /* \"#utility.yul\":2525:2549   */\n      tag_339\n      jump\t// in\n    tag_338:\n        /* \"#utility.yul\":2520:2523   */\n      dup3\n        /* \"#utility.yul\":2513:2550   */\n      mstore\n        /* \"#utility.yul\":2438:2556   */\n      pop\n      pop\n      jump\t// out\n        /* \"#utility.yul\":2592:3324   */\n    tag_340:\n        /* \"#utility.yul\":2711:2714   */\n      0x00\n        /* \"#utility.yul\":2740:2794   */\n      tag_342\n        /* \"#utility.yul\":2788:2793   */\n      dup3\n        /* \"#utility.yul\":2740:2794   */\n      tag_343\n      jump\t// in\n    tag_342:\n        /* \"#utility.yul\":2810:2896   */\n      tag_344\n        /* \"#utility.yul\":2889:2895   */\n      dup2\n        /* \"#utility.yul\":2884:2887   */\n      dup6\n        /* \"#utility.yul\":2810:2896   */\n      tag_345\n      jump\t// in\n    tag_344:\n        /* \"#utility.yul\":2803:2896   */\n      swap4\n      pop\n        /* \"#utility.yul\":2920:2976   */\n      tag_346\n        /* \"#utility.yul\":2970:2975   */\n      dup4\n        /* \"#utility.yul\":2920:2976   */\n      tag_347\n      jump\t// in\n    tag_346:\n        /* \"#utility.yul\":2999:3006   */\n      dup1\n        /* \"#utility.yul\":3030:3031   */\n      0x00\n        /* \"#utility.yul\":3015:3299   */\n    tag_348:\n        /* \"#utility.yul\":3040:3046   */\n      dup4\n        /* \"#utility.yul\":3037:3038   */\n      dup2\n        /* \"#utility.yul\":3034:3047   */\n      lt\n        /* \"#utility.yul\":3015:3299   */\n      iszero\n      tag_350\n      jumpi\n        /* \"#utility.yul\":3116:3122   */\n      dup2\n        /* \"#utility.yul\":3110:3123   */\n      mload\n        /* \"#utility.yul\":3143:3206   */\n      tag_351\n        /* \"#utility.yul\":3202:3205   */\n      dup9\n        /* \"#utility.yul\":3187:3200   */\n      dup3\n        /* \"#utility.yul\":3143:3206   */\n      tag_328\n      jump\t// in\n    tag_351:\n        /* \"#utility.yul\":3136:3206   */\n      swap8\n      pop\n        /* \"#utility.yul\":3229:3289   */\n      tag_352\n        /* \"#utility.yul\":3282:3288   */\n      dup4\n        /* \"#utility.yul\":3229:3289   */\n      tag_353\n      jump\t// in\n    tag_352:\n        /* \"#utility.yul\":3219:3289   */\n      swap3\n      pop\n        /* \"#utility.yul\":3075:3299   */\n      pop\n        /* \"#utility.yul\":3062:3063   */\n      0x01\n        /* \"#utility.yul\":3059:3060   */\n      dup2\n        /* \"#utility.yul\":3055:3064   */\n      add\n        /* \"#utility.yul\":3050:3064   */\n      swap1\n      pop\n        /* \"#utility.yul\":3015:3299   */\n      jump(tag_348)\n    tag_350:\n        /* \"#utility.yul\":3019:3033   */\n      pop\n        /* \"#utility.yul\":3315:3318   */\n      dup6\n        /* \"#utility.yul\":3308:3318   */\n      swap4\n      pop\n        /* \"#utility.yul\":2716:3324   */\n      pop\n      pop\n      pop\n        /* \"#utility.yul\":2592:3324   */\n      swap3\n      swap2\n      pop\n      pop\n      jump\t// out\n        /* \"#utility.yul\":3330:3439   */\n    tag_354:\n        /* \"#utility.yul\":3411:3432   */\n      tag_356\n        /* \"#utility.yul\":3426:3431   */\n      dup2\n        /* \"#utility.yul\":3411:3432   */\n      tag_357\n      jump\t// in\n    tag_356:\n        /* \"#utility.yul\":3406:3409   */\n      dup3\n        /* \"#utility.yul\":3399:3433   */\n      mstore\n        /* \"#utility.yul\":3330:3439   */\n      pop\n      pop\n      jump\t// out\n        /* \"#utility.yul\":3445:3586   */\n    tag_358:\n        /* \"#utility.yul\":3537:3579   */\n      tag_360\n        /* \"#utility.yul\":3573:3578   */\n      dup2\n        /* \"#utility.yul\":3537:3579   */\n      tag_361\n      jump\t// in\n    tag_360:\n        /* \"#utility.yul\":3532:3535   */\n      dup3\n        /* \"#utility.yul\":3525:3580   */\n      mstore\n        /* \"#utility.yul\":3445:3586   */\n      pop\n      pop\n      jump\t// out\n        /* \"#utility.yul\":3592:3739   */\n    tag_362:\n        /* \"#utility.yul\":3687:3732   */\n      tag_364\n        /* \"#utility.yul\":3726:3731   */\n      dup2\n        /* \"#utility.yul\":3687:3732   */\n      tag_365\n      jump\t// in\n    tag_364:\n        /* \"#utility.yul\":3682:3685   */\n      dup3\n        /* \"#utility.yul\":3675:3733   */\n      mstore\n        /* \"#utility.yul\":3592:3739   */\n      pop\n      pop\n      jump\t// out\n        /* \"#utility.yul\":3745:4109   */\n    tag_366:\n        /* \"#utility.yul\":3833:3836   */\n      0x00\n        /* \"#utility.yul\":3861:3900   */\n      tag_368\n        /* \"#utility.yul\":3894:3899   */\n      dup3\n        /* \"#utility.yul\":3861:3900   */\n      tag_369\n      jump\t// in\n    tag_368:\n        /* \"#utility.yul\":3916:3987   */\n      tag_370\n        /* \"#utility.yul\":3980:3986   */\n      dup2\n        /* \"#utility.yul\":3975:3978   */\n      dup6\n        /* \"#utility.yul\":3916:3987   */\n      tag_371\n      jump\t// in\n    tag_370:\n        /* \"#utility.yul\":3909:3987   */\n      swap4\n      pop\n        /* \"#utility.yul\":3996:4048   */\n      tag_372\n        /* \"#utility.yul\":4041:4047   */\n      dup2\n        /* \"#utility.yul\":4036:4039   */\n      dup6\n        /* \"#utility.yul\":4029:4033   */\n      0x20\n        /* \"#utility.yul\":4022:4027   */\n      dup7\n        /* \"#utility.yul\":4018:4034   */\n      add\n        /* \"#utility.yul\":3996:4048   */\n      tag_373\n      jump\t// in\n    tag_372:\n        /* \"#utility.yul\":4073:4102   */\n      tag_374\n        /* \"#utility.yul\":4095:4101   */\n      dup2\n        /* \"#utility.yul\":4073:4102   */\n      tag_375\n      jump\t// in\n    tag_374:\n        /* \"#utility.yul\":4068:4071   */\n      dup5\n        /* \"#utility.yul\":4064:4103   */\n      add\n        /* \"#utility.yul\":4057:4103   */\n      swap2\n      pop\n        /* \"#utility.yul\":3837:4109   */\n      pop\n        /* \"#utility.yul\":3745:4109   */\n      swap3\n      swap2\n      pop\n      pop\n      jump\t// out\n        /* \"#utility.yul\":4115:4492   */\n    tag_376:\n        /* \"#utility.yul\":4221:4224   */\n      0x00\n        /* \"#utility.yul\":4249:4288   */\n      tag_378\n        /* \"#utility.yul\":4282:4287   */\n      dup3\n        /* \"#utility.yul\":4249:4288   */\n      tag_369\n      jump\t// in\n    tag_378:\n        /* \"#utility.yul\":4304:4393   */\n      tag_379\n        /* \"#utility.yul\":4386:4392   */\n      dup2\n        /* \"#utility.yul\":4381:4384   */\n      dup6\n        /* \"#utility.yul\":4304:4393   */\n      tag_380\n      jump\t// in\n    tag_379:\n        /* \"#utility.yul\":4297:4393   */\n      swap4\n      pop\n        /* \"#utility.yul\":4402:4454   */\n      tag_381\n        /* \"#utility.yul\":4447:4453   */\n      dup2\n        /* \"#utility.yul\":4442:4445   */\n      dup6\n        /* \"#utility.yul\":4435:4439   */\n      0x20\n        /* \"#utility.yul\":4428:4433   */\n      dup7\n        /* \"#utility.yul\":4424:4440   */\n      add\n        /* \"#utility.yul\":4402:4454   */\n      tag_373\n      jump\t// in\n    tag_381:\n        /* \"#utility.yul\":4479:4485   */\n      dup1\n        /* \"#utility.yul\":4474:4477   */\n      dup5\n        /* \"#utility.yul\":4470:4486   */\n      add\n        /* \"#utility.yul\":4463:4486   */\n      swap2\n      pop\n        /* \"#utility.yul\":4225:4492   */\n      pop\n        /* \"#utility.yul\":4115:4492   */\n      swap3\n      swap2\n      pop\n      pop\n      jump\t// out\n        /* \"#utility.yul\":4498:4864   */\n    tag_382:\n        /* \"#utility.yul\":4640:4643   */\n      0x00\n        /* \"#utility.yul\":4661:4728   */\n      tag_384\n        /* \"#utility.yul\":4725:4727   */\n      0x0e\n        /* \"#utility.yul\":4720:4723   */\n      dup4\n        /* \"#utility.yul\":4661:4728   */\n      tag_371\n      jump\t// in\n    tag_384:\n        /* \"#utility.yul\":4654:4728   */\n      swap2\n      pop\n        /* \"#utility.yul\":4737:4830   */\n      tag_385\n        /* \"#utility.yul\":4826:4829   */\n      dup3\n        /* \"#utility.yul\":4737:4830   */\n      tag_386\n      jump\t// in\n    tag_385:\n        /* \"#utility.yul\":4855:4857   */\n      0x20\n        /* \"#utility.yul\":4850:4853   */\n      dup3\n        /* \"#utility.yul\":4846:4858   */\n      add\n        /* \"#utility.yul\":4839:4858   */\n      swap1\n      pop\n        /* \"#utility.yul\":4498:4864   */\n      swap2\n      swap1\n      pop\n      jump\t// out\n        /* \"#utility.yul\":4870:5236   */\n    tag_387:\n        /* \"#utility.yul\":5012:5015   */\n      0x00\n        /* \"#utility.yul\":5033:5100   */\n      tag_389\n        /* \"#utility.yul\":5097:5099   */\n      0x0d\n        /* \"#utility.yul\":5092:5095   */\n      dup4\n        /* \"#utility.yul\":5033:5100   */\n      tag_371\n      jump\t// in\n    tag_389:\n        /* \"#utility.yul\":5026:5100   */\n      swap2\n      pop\n        /* \"#utility.yul\":5109:5202   */\n      tag_390\n        /* \"#utility.yul\":5198:5201   */\n      dup3\n        /* \"#utility.yul\":5109:5202   */\n      tag_391\n      jump\t// in\n    tag_390:\n        /* \"#utility.yul\":5227:5229   */\n      0x20\n        /* \"#utility.yul\":5222:5225   */\n      dup3\n        /* \"#utility.yul\":5218:5230   */\n      add\n        /* \"#utility.yul\":5211:5230   */\n      swap1\n      pop\n        /* \"#utility.yul\":4870:5236   */\n      swap2\n      swap1\n      pop\n      jump\t// out\n        /* \"#utility.yul\":5242:5642   */\n    tag_392:\n        /* \"#utility.yul\":5402:5405   */\n      0x00\n        /* \"#utility.yul\":5423:5507   */\n      tag_394\n        /* \"#utility.yul\":5505:5506   */\n      0x01\n        /* \"#utility.yul\":5500:5503   */\n      dup4\n        /* \"#utility.yul\":5423:5507   */\n      tag_380\n      jump\t// in\n    tag_394:\n        /* \"#utility.yul\":5416:5507   */\n      swap2\n      pop\n        /* \"#utility.yul\":5516:5609   */\n      tag_395\n        /* \"#utility.yul\":5605:5608   */\n      dup3\n        /* \"#utility.yul\":5516:5609   */\n      tag_396\n      jump\t// in\n    tag_395:\n        /* \"#utility.yul\":5634:5635   */\n      0x01\n        /* \"#utility.yul\":5629:5632   */\n      dup3\n        /* \"#utility.yul\":5625:5636   */\n      add\n        /* \"#utility.yul\":5618:5636   */\n      swap1\n      pop\n        /* \"#utility.yul\":5242:5642   */\n      swap2\n      swap1\n      pop\n      jump\t// out\n        /* \"#utility.yul\":5648:6014   */\n    tag_397:\n        /* \"#utility.yul\":5790:5793   */\n      0x00\n        /* \"#utility.yul\":5811:5878   */\n      tag_399\n        /* \"#utility.yul\":5875:5877   */\n      0x1e\n        /* \"#utility.yul\":5870:5873   */\n      dup4\n        /* \"#utility.yul\":5811:5878   */\n      tag_371\n      jump\t// in\n    tag_399:\n        /* \"#utility.yul\":5804:5878   */\n      swap2\n      pop\n        /* \"#utility.yul\":5887:5980   */\n      tag_400\n        /* \"#utility.yul\":5976:5979   */\n      dup3\n        /* \"#utility.yul\":5887:5980   */\n      tag_401\n      jump\t// in\n    tag_400:\n        /* \"#utility.yul\":6005:6007   */\n      0x20\n        /* \"#utility.yul\":6000:6003   */\n      dup3\n        /* \"#utility.yul\":5996:6008   */\n      add\n        /* \"#utility.yul\":5989:6008   */\n      swap1\n      pop\n        /* \"#utility.yul\":5648:6014   */\n      swap2\n      swap1\n      pop\n      jump\t// out\n        /* \"#utility.yul\":6020:6386   */\n    tag_402:\n        /* \"#utility.yul\":6162:6165   */\n      0x00\n        /* \"#utility.yul\":6183:6250   */\n      tag_404\n        /* \"#utility.yul\":6247:6249   */\n      0x1f\n        /* \"#utility.yul\":6242:6245   */\n      dup4\n        /* \"#utility.yul\":6183:6250   */\n      tag_371\n      jump\t// in\n    tag_404:\n        /* \"#utility.yul\":6176:6250   */\n      swap2\n      pop\n        /* \"#utility.yul\":6259:6352   */\n      tag_405\n        /* \"#utility.yul\":6348:6351   */\n      dup3\n        /* \"#utility.yul\":6259:6352   */\n      tag_406\n      jump\t// in\n    tag_405:\n        /* \"#utility.yul\":6377:6379   */\n      0x20\n        /* \"#utility.yul\":6372:6375   */\n      dup3\n        /* \"#utility.yul\":6368:6380   */\n      add\n        /* \"#utility.yul\":6361:6380   */\n      swap1\n      pop\n        /* \"#utility.yul\":6020:6386   */\n      swap2\n      swap1\n      pop\n      jump\t// out\n        /* \"#utility.yul\":6392:6758   */\n    tag_407:\n        /* \"#utility.yul\":6534:6537   */\n      0x00\n        /* \"#utility.yul\":6555:6622   */\n      tag_409\n        /* \"#utility.yul\":6619:6621   */\n      0x1e\n        /* \"#utility.yul\":6614:6617   */\n      dup4\n        /* \"#utility.yul\":6555:6622   */\n      tag_371\n      jump\t// in\n    tag_409:\n        /* \"#utility.yul\":6548:6622   */\n      swap2\n      pop\n        /* \"#utility.yul\":6631:6724   */\n      tag_410\n        /* \"#utility.yul\":6720:6723   */\n      dup3\n        /* \"#utility.yul\":6631:6724   */\n      tag_411\n      jump\t// in\n    tag_410:\n        /* \"#utility.yul\":6749:6751   */\n      0x20\n        /* \"#utility.yul\":6744:6747   */\n      dup3\n        /* \"#utility.yul\":6740:6752   */\n      add\n        /* \"#utility.yul\":6733:6752   */\n      swap1\n      pop\n        /* \"#utility.yul\":6392:6758   */\n      swap2\n      swap1\n      pop\n      jump\t// out\n        /* \"#utility.yul\":6764:6872   */\n    tag_331:\n        /* \"#utility.yul\":6841:6865   */\n      tag_413\n        /* \"#utility.yul\":6859:6864   */\n      dup2\n        /* \"#utility.yul\":6841:6865   */\n      tag_414\n      jump\t// in\n    tag_413:\n        /* \"#utility.yul\":6836:6839   */\n      dup3\n        /* \"#utility.yul\":6829:6866   */\n      mstore\n        /* \"#utility.yul\":6764:6872   */\n      pop\n      pop\n      jump\t// out\n        /* \"#utility.yul\":6878:6996   */\n    tag_415:\n        /* \"#utility.yul\":6965:6989   */\n      tag_417\n        /* \"#utility.yul\":6983:6988   */\n      dup2\n        /* \"#utility.yul\":6965:6989   */\n      tag_414\n      jump\t// in\n    tag_417:\n        /* \"#utility.yul\":6960:6963   */\n      dup3\n        /* \"#utility.yul\":6953:6990   */\n      mstore\n        /* \"#utility.yul\":6878:6996   */\n      pop\n      pop\n      jump\t// out\n        /* \"#utility.yul\":7002:7703   */\n    tag_162:\n        /* \"#utility.yul\":7283:7286   */\n      0x00\n        /* \"#utility.yul\":7305:7400   */\n      tag_419\n        /* \"#utility.yul\":7396:7399   */\n      dup3\n        /* \"#utility.yul\":7387:7393   */\n      dup6\n        /* \"#utility.yul\":7305:7400   */\n      tag_376\n      jump\t// in\n    tag_419:\n        /* \"#utility.yul\":7298:7400   */\n      swap2\n      pop\n        /* \"#utility.yul\":7417:7565   */\n      tag_420\n        /* \"#utility.yul\":7561:7564   */\n      dup3\n        /* \"#utility.yul\":7417:7565   */\n      tag_392\n      jump\t// in\n    tag_420:\n        /* \"#utility.yul\":7410:7565   */\n      swap2\n      pop\n        /* \"#utility.yul\":7582:7677   */\n      tag_421\n        /* \"#utility.yul\":7673:7676   */\n      dup3\n        /* \"#utility.yul\":7664:7670   */\n      dup5\n        /* \"#utility.yul\":7582:7677   */\n      tag_376\n      jump\t// in\n    tag_421:\n        /* \"#utility.yul\":7575:7677   */\n      swap2\n      pop\n        /* \"#utility.yul\":7694:7697   */\n      dup2\n        /* \"#utility.yul\":7687:7697   */\n      swap1\n      pop\n        /* \"#utility.yul\":7002:7703   */\n      swap4\n      swap3\n      pop\n      pop\n      pop\n      jump\t// out\n        /* \"#utility.yul\":7709:7963   */\n    tag_69:\n        /* \"#utility.yul\":7818:7822   */\n      0x00\n        /* \"#utility.yul\":7856:7858   */\n      0x20\n        /* \"#utility.yul\":7845:7854   */\n      dup3\n        /* \"#utility.yul\":7841:7859   */\n      add\n        /* \"#utility.yul\":7833:7859   */\n      swap1\n      pop\n        /* \"#utility.yul\":7869:7956   */\n      tag_423\n        /* \"#utility.yul\":7953:7954   */\n      0x00\n        /* \"#utility.yul\":7942:7951   */\n      dup4\n        /* \"#utility.yul\":7938:7955   */\n      add\n        /* \"#utility.yul\":7929:7935   */\n      dup5\n        /* \"#utility.yul\":7869:7956   */\n      tag_332\n      jump\t// in\n    tag_423:\n        /* \"#utility.yul\":7709:7963   */\n      swap3\n      swap2\n      pop\n      pop\n      jump\t// out\n        /* \"#utility.yul\":7969:8996   */\n    tag_125:\n        /* \"#utility.yul\":8273:8277   */\n      0x00\n        /* \"#utility.yul\":8311:8314   */\n      0x0100\n        /* \"#utility.yul\":8300:8309   */\n      dup3\n        /* \"#utility.yul\":8296:8315   */\n      add\n        /* \"#utility.yul\":8288:8315   */\n      swap1\n      pop\n        /* \"#utility.yul\":8325:8412   */\n      tag_425\n        /* \"#utility.yul\":8409:8410   */\n      0x00\n        /* \"#utility.yul\":8398:8407   */\n      dup4\n        /* \"#utility.yul\":8394:8411   */\n      add\n        /* \"#utility.yul\":8385:8391   */\n      dup12\n        /* \"#utility.yul\":8325:8412   */\n      tag_332\n      jump\t// in\n    tag_425:\n        /* \"#utility.yul\":8422:8494   */\n      tag_426\n        /* \"#utility.yul\":8490:8492   */\n      0x20\n        /* \"#utility.yul\":8479:8488   */\n      dup4\n        /* \"#utility.yul\":8475:8493   */\n      add\n        /* \"#utility.yul\":8466:8472   */\n      dup11\n        /* \"#utility.yul\":8422:8494   */\n      tag_415\n      jump\t// in\n    tag_426:\n        /* \"#utility.yul\":8504:8576   */\n      tag_427\n        /* \"#utility.yul\":8572:8574   */\n      0x40\n        /* \"#utility.yul\":8561:8570   */\n      dup4\n        /* \"#utility.yul\":8557:8575   */\n      add\n        /* \"#utility.yul\":8548:8554   */\n      dup10\n        /* \"#utility.yul\":8504:8576   */\n      tag_415\n      jump\t// in\n    tag_427:\n        /* \"#utility.yul\":8586:8663   */\n      tag_428\n        /* \"#utility.yul\":8659:8661   */\n      0x60\n        /* \"#utility.yul\":8648:8657   */\n      dup4\n        /* \"#utility.yul\":8644:8662   */\n      add\n        /* \"#utility.yul\":8635:8641   */\n      dup9\n        /* \"#utility.yul\":8586:8663   */\n      tag_358\n      jump\t// in\n    tag_428:\n        /* \"#utility.yul\":8673:8746   */\n      tag_429\n        /* \"#utility.yul\":8741:8744   */\n      0x80\n        /* \"#utility.yul\":8730:8739   */\n      dup4\n        /* \"#utility.yul\":8726:8745   */\n      add\n        /* \"#utility.yul\":8717:8723   */\n      dup8\n        /* \"#utility.yul\":8673:8746   */\n      tag_415\n      jump\t// in\n    tag_429:\n        /* \"#utility.yul\":8756:8829   */\n      tag_430\n        /* \"#utility.yul\":8824:8827   */\n      0xa0\n        /* \"#utility.yul\":8813:8822   */\n      dup4\n        /* \"#utility.yul\":8809:8828   */\n      add\n        /* \"#utility.yul\":8800:8806   */\n      dup7\n        /* \"#utility.yul\":8756:8829   */\n      tag_415\n      jump\t// in\n    tag_430:\n        /* \"#utility.yul\":8839:8912   */\n      tag_431\n        /* \"#utility.yul\":8907:8910   */\n      0xc0\n        /* \"#utility.yul\":8896:8905   */\n      dup4\n        /* \"#utility.yul\":8892:8911   */\n      add\n        /* \"#utility.yul\":8883:8889   */\n      dup6\n        /* \"#utility.yul\":8839:8912   */\n      tag_415\n      jump\t// in\n    tag_431:\n        /* \"#utility.yul\":8922:8989   */\n      tag_432\n        /* \"#utility.yul\":8984:8987   */\n      0xe0\n        /* \"#utility.yul\":8973:8982   */\n      dup4\n        /* \"#utility.yul\":8969:8988   */\n      add\n        /* \"#utility.yul\":8960:8966   */\n      dup5\n        /* \"#utility.yul\":8922:8989   */\n      tag_354\n      jump\t// in\n    tag_432:\n        /* \"#utility.yul\":7969:8996   */\n      swap10\n      swap9\n      pop\n      pop\n      pop\n      pop\n      pop\n      pop\n      pop\n      pop\n      pop\n      jump\t// out\n        /* \"#utility.yul\":9002:9930   */\n    tag_262:\n        /* \"#utility.yul\":9284:9288   */\n      0x00\n        /* \"#utility.yul\":9322:9325   */\n      0xe0\n        /* \"#utility.yul\":9311:9320   */\n      dup3\n        /* \"#utility.yul\":9307:9326   */\n      add\n        /* \"#utility.yul\":9299:9326   */\n      swap1\n      pop\n        /* \"#utility.yul\":9336:9407   */\n      tag_434\n        /* \"#utility.yul\":9404:9405   */\n      0x00\n        /* \"#utility.yul\":9393:9402   */\n      dup4\n        /* \"#utility.yul\":9389:9406   */\n      add\n        /* \"#utility.yul\":9380:9386   */\n      dup11\n        /* \"#utility.yul\":9336:9407   */\n      tag_336\n      jump\t// in\n    tag_434:\n        /* \"#utility.yul\":9417:9489   */\n      tag_435\n        /* \"#utility.yul\":9485:9487   */\n      0x20\n        /* \"#utility.yul\":9474:9483   */\n      dup4\n        /* \"#utility.yul\":9470:9488   */\n      add\n        /* \"#utility.yul\":9461:9467   */\n      dup10\n        /* \"#utility.yul\":9417:9489   */\n      tag_415\n      jump\t// in\n    tag_435:\n        /* \"#utility.yul\":9499:9571   */\n      tag_436\n        /* \"#utility.yul\":9567:9569   */\n      0x40\n        /* \"#utility.yul\":9556:9565   */\n      dup4\n        /* \"#utility.yul\":9552:9570   */\n      add\n        /* \"#utility.yul\":9543:9549   */\n      dup9\n        /* \"#utility.yul\":9499:9571   */\n      tag_415\n      jump\t// in\n    tag_436:\n        /* \"#utility.yul\":9581:9658   */\n      tag_437\n        /* \"#utility.yul\":9654:9656   */\n      0x60\n        /* \"#utility.yul\":9643:9652   */\n      dup4\n        /* \"#utility.yul\":9639:9657   */\n      add\n        /* \"#utility.yul\":9630:9636   */\n      dup8\n        /* \"#utility.yul\":9581:9658   */\n      tag_358\n      jump\t// in\n    tag_437:\n        /* \"#utility.yul\":9668:9741   */\n      tag_438\n        /* \"#utility.yul\":9736:9739   */\n      0x80\n        /* \"#utility.yul\":9725:9734   */\n      dup4\n        /* \"#utility.yul\":9721:9740   */\n      add\n        /* \"#utility.yul\":9712:9718   */\n      dup7\n        /* \"#utility.yul\":9668:9741   */\n      tag_415\n      jump\t// in\n    tag_438:\n        /* \"#utility.yul\":9751:9832   */\n      tag_439\n        /* \"#utility.yul\":9827:9830   */\n      0xa0\n        /* \"#utility.yul\":9816:9825   */\n      dup4\n        /* \"#utility.yul\":9812:9831   */\n      add\n        /* \"#utility.yul\":9803:9809   */\n      dup6\n        /* \"#utility.yul\":9751:9832   */\n      tag_362\n      jump\t// in\n    tag_439:\n        /* \"#utility.yul\":9842:9923   */\n      tag_440\n        /* \"#utility.yul\":9918:9921   */\n      0xc0\n        /* \"#utility.yul\":9907:9916   */\n      dup4\n        /* \"#utility.yul\":9903:9922   */\n      add\n        /* \"#utility.yul\":9894:9900   */\n      dup5\n        /* \"#utility.yul\":9842:9923   */\n      tag_362\n      jump\t// in\n    tag_440:\n        /* \"#utility.yul\":9002:9930   */\n      swap9\n      swap8\n      pop\n      pop\n      pop\n      pop\n      pop\n      pop\n      pop\n      pop\n      jump\t// out\n        /* \"#utility.yul\":9936:10309   */\n    tag_36:\n        /* \"#utility.yul\":10079:10083   */\n      0x00\n        /* \"#utility.yul\":10117:10119   */\n      0x20\n        /* \"#utility.yul\":10106:10115   */\n      dup3\n        /* \"#utility.yul\":10102:10120   */\n      add\n        /* \"#utility.yul\":10094:10120   */\n      swap1\n      pop\n        /* \"#utility.yul\":10166:10175   */\n      dup2\n        /* \"#utility.yul\":10160:10164   */\n      dup2\n        /* \"#utility.yul\":10156:10176   */\n      sub\n        /* \"#utility.yul\":10152:10153   */\n      0x00\n        /* \"#utility.yul\":10141:10150   */\n      dup4\n        /* \"#utility.yul\":10137:10154   */\n      add\n        /* \"#utility.yul\":10130:10177   */\n      mstore\n        /* \"#utility.yul\":10194:10302   */\n      tag_442\n        /* \"#utility.yul\":10297:10301   */\n      dup2\n        /* \"#utility.yul\":10288:10294   */\n      dup5\n        /* \"#utility.yul\":10194:10302   */\n      tag_340\n      jump\t// in\n    tag_442:\n        /* \"#utility.yul\":10186:10302   */\n      swap1\n      pop\n        /* \"#utility.yul\":9936:10309   */\n      swap3\n      swap2\n      pop\n      pop\n      jump\t// out\n        /* \"#utility.yul\":10315:10547   */\n    tag_63:\n        /* \"#utility.yul\":10413:10417   */\n      0x00\n        /* \"#utility.yul\":10451:10453   */\n      0x20\n        /* \"#utility.yul\":10440:10449   */\n      dup3\n        /* \"#utility.yul\":10436:10454   */\n      add\n        /* \"#utility.yul\":10428:10454   */\n      swap1\n      pop\n        /* \"#utility.yul\":10464:10540   */\n      tag_444\n        /* \"#utility.yul\":10537:10538   */\n      0x00\n        /* \"#utility.yul\":10526:10535   */\n      dup4\n        /* \"#utility.yul\":10522:10539   */\n      add\n        /* \"#utility.yul\":10513:10519   */\n      dup5\n        /* \"#utility.yul\":10464:10540   */\n      tag_358\n      jump\t// in\n    tag_444:\n        /* \"#utility.yul\":10315:10547   */\n      swap3\n      swap2\n      pop\n      pop\n      jump\t// out\n        /* \"#utility.yul\":10553:10866   */\n    tag_31:\n        /* \"#utility.yul\":10666:10670   */\n      0x00\n        /* \"#utility.yul\":10704:10706   */\n      0x20\n        /* \"#utility.yul\":10693:10702   */\n      dup3\n        /* \"#utility.yul\":10689:10707   */\n      add\n        /* \"#utility.yul\":10681:10707   */\n      swap1\n      pop\n        /* \"#utility.yul\":10753:10762   */\n      dup2\n        /* \"#utility.yul\":10747:10751   */\n      dup2\n        /* \"#utility.yul\":10743:10763   */\n      sub\n        /* \"#utility.yul\":10739:10740   */\n      0x00\n        /* \"#utility.yul\":10728:10737   */\n      dup4\n        /* \"#utility.yul\":10724:10741   */\n      add\n        /* \"#utility.yul\":10717:10764   */\n      mstore\n        /* \"#utility.yul\":10781:10859   */\n      tag_446\n        /* \"#utility.yul\":10854:10858   */\n      dup2\n        /* \"#utility.yul\":10845:10851   */\n      dup5\n        /* \"#utility.yul\":10781:10859   */\n      tag_366\n      jump\t// in\n    tag_446:\n        /* \"#utility.yul\":10773:10859   */\n      swap1\n      pop\n        /* \"#utility.yul\":10553:10866   */\n      swap3\n      swap2\n      pop\n      pop\n      jump\t// out\n        /* \"#utility.yul\":10872:11291   */\n    tag_158:\n        /* \"#utility.yul\":11038:11042   */\n      0x00\n        /* \"#utility.yul\":11076:11078   */\n      0x20\n        /* \"#utility.yul\":11065:11074   */\n      dup3\n        /* \"#utility.yul\":11061:11079   */\n      add\n        /* \"#utility.yul\":11053:11079   */\n      swap1\n      pop\n        /* \"#utility.yul\":11125:11134   */\n      dup2\n        /* \"#utility.yul\":11119:11123   */\n      dup2\n        /* \"#utility.yul\":11115:11135   */\n      sub\n        /* \"#utility.yul\":11111:11112   */\n      0x00\n        /* \"#utility.yul\":11100:11109   */\n      dup4\n        /* \"#utility.yul\":11096:11113   */\n      add\n        /* \"#utility.yul\":11089:11136   */\n      mstore\n        /* \"#utility.yul\":11153:11284   */\n      tag_448\n        /* \"#utility.yul\":11279:11283   */\n      dup2\n        /* \"#utility.yul\":11153:11284   */\n      tag_382\n      jump\t// in\n    tag_448:\n        /* \"#utility.yul\":11145:11284   */\n      swap1\n      pop\n        /* \"#utility.yul\":10872:11291   */\n      swap2\n      swap1\n      pop\n      jump\t// out\n        /* \"#utility.yul\":11297:11716   */\n    tag_150:\n        /* \"#utility.yul\":11463:11467   */\n      0x00\n        /* \"#utility.yul\":11501:11503   */\n      0x20\n        /* \"#utility.yul\":11490:11499   */\n      dup3\n        /* \"#utility.yul\":11486:11504   */\n      add\n        /* \"#utility.yul\":11478:11504   */\n      swap1\n      pop\n        /* \"#utility.yul\":11550:11559   */\n      dup2\n        /* \"#utility.yul\":11544:11548   */\n      dup2\n        /* \"#utility.yul\":11540:11560   */\n      sub\n        /* \"#utility.yul\":11536:11537   */\n      0x00\n        /* \"#utility.yul\":11525:11534   */\n      dup4\n        /* \"#utility.yul\":11521:11538   */\n      add\n        /* \"#utility.yul\":11514:11561   */\n      mstore\n        /* \"#utility.yul\":11578:11709   */\n      tag_450\n        /* \"#utility.yul\":11704:11708   */\n      dup2\n        /* \"#utility.yul\":11578:11709   */\n      tag_387\n      jump\t// in\n    tag_450:\n        /* \"#utility.yul\":11570:11709   */\n      swap1\n      pop\n        /* \"#utility.yul\":11297:11716   */\n      swap2\n      swap1\n      pop\n      jump\t// out\n        /* \"#utility.yul\":11722:12141   */\n    tag_216:\n        /* \"#utility.yul\":11888:11892   */\n      0x00\n        /* \"#utility.yul\":11926:11928   */\n      0x20\n        /* \"#utility.yul\":11915:11924   */\n      dup3\n        /* \"#utility.yul\":11911:11929   */\n      add\n        /* \"#utility.yul\":11903:11929   */\n      swap1\n      pop\n        /* \"#utility.yul\":11975:11984   */\n      dup2\n        /* \"#utility.yul\":11969:11973   */\n      dup2\n        /* \"#utility.yul\":11965:11985   */\n      sub\n        /* \"#utility.yul\":11961:11962   */\n      0x00\n        /* \"#utility.yul\":11950:11959   */\n      dup4\n        /* \"#utility.yul\":11946:11963   */\n      add\n        /* \"#utility.yul\":11939:11986   */\n      mstore\n        /* \"#utility.yul\":12003:12134   */\n      tag_452\n        /* \"#utility.yul\":12129:12133   */\n      dup2\n        /* \"#utility.yul\":12003:12134   */\n      tag_397\n      jump\t// in\n    tag_452:\n        /* \"#utility.yul\":11995:12134   */\n      swap1\n      pop\n        /* \"#utility.yul\":11722:12141   */\n      swap2\n      swap1\n      pop\n      jump\t// out\n        /* \"#utility.yul\":12147:12566   */\n    tag_176:\n        /* \"#utility.yul\":12313:12317   */\n      0x00\n        /* \"#utility.yul\":12351:12353   */\n      0x20\n        /* \"#utility.yul\":12340:12349   */\n      dup3\n        /* \"#utility.yul\":12336:12354   */\n      add\n        /* \"#utility.yul\":12328:12354   */\n      swap1\n      pop\n        /* \"#utility.yul\":12400:12409   */\n      dup2\n        /* \"#utility.yul\":12394:12398   */\n      dup2\n        /* \"#utility.yul\":12390:12410   */\n      sub\n        /* \"#utility.yul\":12386:12387   */\n      0x00\n        /* \"#utility.yul\":12375:12384   */\n      dup4\n        /* \"#utility.yul\":12371:12388   */\n      add\n        /* \"#utility.yul\":12364:12411   */\n      mstore\n        /* \"#utility.yul\":12428:12559   */\n      tag_454\n        /* \"#utility.yul\":12554:12558   */\n      dup2\n        /* \"#utility.yul\":12428:12559   */\n      tag_402\n      jump\t// in\n    tag_454:\n        /* \"#utility.yul\":12420:12559   */\n      swap1\n      pop\n        /* \"#utility.yul\":12147:12566   */\n      swap2\n      swap1\n      pop\n      jump\t// out\n        /* \"#utility.yul\":12572:12991   */\n    tag_179:\n        /* \"#utility.yul\":12738:12742   */\n      0x00\n        /* \"#utility.yul\":12776:12778   */\n      0x20\n        /* \"#utility.yul\":12765:12774   */\n      dup3\n        /* \"#utility.yul\":12761:12779   */\n      add\n        /* \"#utility.yul\":12753:12779   */\n      swap1\n      pop\n        /* \"#utility.yul\":12825:12834   */\n      dup2\n        /* \"#utility.yul\":12819:12823   */\n      dup2\n        /* \"#utility.yul\":12815:12835   */\n      sub\n        /* \"#utility.yul\":12811:12812   */\n      0x00\n        /* \"#utility.yul\":12800:12809   */\n      dup4\n        /* \"#utility.yul\":12796:12813   */\n      add\n        /* \"#utility.yul\":12789:12836   */\n      mstore\n        /* \"#utility.yul\":12853:12984   */\n      tag_456\n        /* \"#utility.yul\":12979:12983   */\n      dup2\n        /* \"#utility.yul\":12853:12984   */\n      tag_407\n      jump\t// in\n    tag_456:\n        /* \"#utility.yul\":12845:12984   */\n      swap1\n      pop\n        /* \"#utility.yul\":12572:12991   */\n      swap2\n      swap1\n      pop\n      jump\t// out\n        /* \"#utility.yul\":12997:13219   */\n    tag_53:\n        /* \"#utility.yul\":13090:13094   */\n      0x00\n        /* \"#utility.yul\":13128:13130   */\n      0x20\n        /* \"#utility.yul\":13117:13126   */\n      dup3\n        /* \"#utility.yul\":13113:13131   */\n      add\n        /* \"#utility.yul\":13105:13131   */\n      swap1\n      pop\n        /* \"#utility.yul\":13141:13212   */\n      tag_458\n        /* \"#utility.yul\":13209:13210   */\n      0x00\n        /* \"#utility.yul\":13198:13207   */\n      dup4\n        /* \"#utility.yul\":13194:13211   */\n      add\n        /* \"#utility.yul\":13185:13191   */\n      dup5\n        /* \"#utility.yul\":13141:13212   */\n      tag_415\n      jump\t// in\n    tag_458:\n        /* \"#utility.yul\":12997:13219   */\n      swap3\n      swap2\n      pop\n      pop\n      jump\t// out\n        /* \"#utility.yul\":13225:13354   */\n    tag_297:\n        /* \"#utility.yul\":13259:13265   */\n      0x00\n        /* \"#utility.yul\":13286:13306   */\n      tag_460\n      tag_461\n      jump\t// in\n    tag_460:\n        /* \"#utility.yul\":13276:13306   */\n      swap1\n      pop\n        /* \"#utility.yul\":13315:13348   */\n      tag_462\n        /* \"#utility.yul\":13343:13347   */\n      dup3\n        /* \"#utility.yul\":13335:13341   */\n      dup3\n        /* \"#utility.yul\":13315:13348   */\n      tag_463\n      jump\t// in\n    tag_462:\n        /* \"#utility.yul\":13225:13354   */\n      swap2\n      swap1\n      pop\n      jump\t// out\n        /* \"#utility.yul\":13360:13435   */\n    tag_461:\n        /* \"#utility.yul\":13393:13399   */\n      0x00\n        /* \"#utility.yul\":13426:13428   */\n      0x40\n        /* \"#utility.yul\":13420:13429   */\n      mload\n        /* \"#utility.yul\":13410:13429   */\n      swap1\n      pop\n        /* \"#utility.yul\":13360:13435   */\n      swap1\n      jump\t// out\n        /* \"#utility.yul\":13441:13749   */\n    tag_296:\n        /* \"#utility.yul\":13503:13507   */\n      0x00\n        /* \"#utility.yul\":13593:13611   */\n      0xffffffffffffffff\n        /* \"#utility.yul\":13585:13591   */\n      dup3\n        /* \"#utility.yul\":13582:13612   */\n      gt\n        /* \"#utility.yul\":13579:13635   */\n      iszero\n      tag_466\n      jumpi\n        /* \"#utility.yul\":13615:13633   */\n      tag_467\n      tag_240\n      jump\t// in\n    tag_467:\n        /* \"#utility.yul\":13579:13635   */\n    tag_466:\n        /* \"#utility.yul\":13653:13682   */\n      tag_468\n        /* \"#utility.yul\":13675:13681   */\n      dup3\n        /* \"#utility.yul\":13653:13682   */\n      tag_375\n      jump\t// in\n    tag_468:\n        /* \"#utility.yul\":13645:13682   */\n      swap1\n      pop\n        /* \"#utility.yul\":13737:13741   */\n      0x20\n        /* \"#utility.yul\":13731:13735   */\n      dup2\n        /* \"#utility.yul\":13727:13742   */\n      add\n        /* \"#utility.yul\":13719:13742   */\n      swap1\n      pop\n        /* \"#utility.yul\":13441:13749   */\n      swap2\n      swap1\n      pop\n      jump\t// out\n        /* \"#utility.yul\":13755:13887   */\n    tag_347:\n        /* \"#utility.yul\":13822:13826   */\n      0x00\n        /* \"#utility.yul\":13845:13848   */\n      dup2\n        /* \"#utility.yul\":13837:13848   */\n      swap1\n      pop\n        /* \"#utility.yul\":13875:13879   */\n      0x20\n        /* \"#utility.yul\":13870:13873   */\n      dup3\n        /* \"#utility.yul\":13866:13880   */\n      add\n        /* \"#utility.yul\":13858:13880   */\n      swap1\n      pop\n        /* \"#utility.yul\":13755:13887   */\n      swap2\n      swap1\n      pop\n      jump\t// out\n        /* \"#utility.yul\":13893:14007   */\n    tag_343:\n        /* \"#utility.yul\":13960:13966   */\n      0x00\n        /* \"#utility.yul\":13994:13999   */\n      dup2\n        /* \"#utility.yul\":13988:14000   */\n      mload\n        /* \"#utility.yul\":13978:14000   */\n      swap1\n      pop\n        /* \"#utility.yul\":13893:14007   */\n      swap2\n      swap1\n      pop\n      jump\t// out\n        /* \"#utility.yul\":14013:14112   */\n    tag_369:\n        /* \"#utility.yul\":14065:14071   */\n      0x00\n        /* \"#utility.yul\":14099:14104   */\n      dup2\n        /* \"#utility.yul\":14093:14105   */\n      mload\n        /* \"#utility.yul\":14083:14105   */\n      swap1\n      pop\n        /* \"#utility.yul\":14013:14112   */\n      swap2\n      swap1\n      pop\n      jump\t// out\n        /* \"#utility.yul\":14118:14231   */\n    tag_353:\n        /* \"#utility.yul\":14188:14192   */\n      0x00\n        /* \"#utility.yul\":14220:14224   */\n      0x20\n        /* \"#utility.yul\":14215:14218   */\n      dup3\n        /* \"#utility.yul\":14211:14225   */\n      add\n        /* \"#utility.yul\":14203:14225   */\n      swap1\n      pop\n        /* \"#utility.yul\":14118:14231   */\n      swap2\n      swap1\n      pop\n      jump\t// out\n        /* \"#utility.yul\":14237:14421   */\n    tag_345:\n        /* \"#utility.yul\":14336:14347   */\n      0x00\n        /* \"#utility.yul\":14370:14376   */\n      dup3\n        /* \"#utility.yul\":14365:14368   */\n      dup3\n        /* \"#utility.yul\":14358:14377   */\n      mstore\n        /* \"#utility.yul\":14410:14414   */\n      0x20\n        /* \"#utility.yul\":14405:14408   */\n      dup3\n        /* \"#utility.yul\":14401:14415   */\n      add\n        /* \"#utility.yul\":14386:14415   */\n      swap1\n      pop\n        /* \"#utility.yul\":14237:14421   */\n      swap3\n      swap2\n      pop\n      pop\n      jump\t// out\n        /* \"#utility.yul\":14427:14596   */\n    tag_371:\n        /* \"#utility.yul\":14511:14522   */\n      0x00\n        /* \"#utility.yul\":14545:14551   */\n      dup3\n        /* \"#utility.yul\":14540:14543   */\n      dup3\n        /* \"#utility.yul\":14533:14552   */\n      mstore\n        /* \"#utility.yul\":14585:14589   */\n      0x20\n        /* \"#utility.yul\":14580:14583   */\n      dup3\n        /* \"#utility.yul\":14576:14590   */\n      add\n        /* \"#utility.yul\":14561:14590   */\n      swap1\n      pop\n        /* \"#utility.yul\":14427:14596   */\n      swap3\n      swap2\n      pop\n      pop\n      jump\t// out\n        /* \"#utility.yul\":14602:14750   */\n    tag_380:\n        /* \"#utility.yul\":14704:14715   */\n      0x00\n        /* \"#utility.yul\":14741:14744   */\n      dup2\n        /* \"#utility.yul\":14726:14744   */\n      swap1\n      pop\n        /* \"#utility.yul\":14602:14750   */\n      swap3\n      swap2\n      pop\n      pop\n      jump\t// out\n        /* \"#utility.yul\":14756:15061   */\n    tag_248:\n        /* \"#utility.yul\":14796:14799   */\n      0x00\n        /* \"#utility.yul\":14815:14835   */\n      tag_477\n        /* \"#utility.yul\":14833:14834   */\n      dup3\n        /* \"#utility.yul\":14815:14835   */\n      tag_414\n      jump\t// in\n    tag_477:\n        /* \"#utility.yul\":14810:14835   */\n      swap2\n      pop\n        /* \"#utility.yul\":14849:14869   */\n      tag_478\n        /* \"#utility.yul\":14867:14868   */\n      dup4\n        /* \"#utility.yul\":14849:14869   */\n      tag_414\n      jump\t// in\n    tag_478:\n        /* \"#utility.yul\":14844:14869   */\n      swap3\n      pop\n        /* \"#utility.yul\":15003:15004   */\n      dup3\n        /* \"#utility.yul\":14935:15001   */\n      0xffffffffffffffffffffffffffffffffffffffffffffffffffffffffffffffff\n        /* \"#utility.yul\":14931:15005   */\n      sub\n        /* \"#utility.yul\":14928:14929   */\n      dup3\n        /* \"#utility.yul\":14925:15006   */\n      gt\n        /* \"#utility.yul\":14922:15029   */\n      iszero\n      tag_479\n      jumpi\n        /* \"#utility.yul\":15009:15027   */\n      tag_480\n      tag_481\n      jump\t// in\n    tag_480:\n        /* \"#utility.yul\":14922:15029   */\n    tag_479:\n        /* \"#utility.yul\":15053:15054   */\n      dup3\n        /* \"#utility.yul\":15050:15051   */\n      dup3\n        /* \"#utility.yul\":15046:15055   */\n      add\n        /* \"#utility.yul\":15039:15055   */\n      swap1\n      pop\n        /* \"#utility.yul\":14756:15061   */\n      swap3\n      swap2\n      pop\n      pop\n      jump\t// out\n        /* \"#utility.yul\":15067:15252   */\n    tag_185:\n        /* \"#utility.yul\":15107:15108   */\n      0x00\n        /* \"#utility.yul\":15124:15144   */\n      tag_483\n        /* \"#utility.yul\":15142:15143   */\n      dup3\n        /* \"#utility.yul\":15124:15144   */\n      tag_414\n      jump\t// in\n    tag_483:\n        /* \"#utility.yul\":15119:15144   */\n      swap2\n      pop\n        /* \"#utility.yul\":15158:15178   */\n      tag_484\n        /* \"#utility.yul\":15176:15177   */\n      dup4\n        /* \"#utility.yul\":15158:15178   */\n      tag_414\n      jump\t// in\n    tag_484:\n        /* \"#utility.yul\":15153:15178   */\n      swap3\n      pop\n        /* \"#utility.yul\":15197:15198   */\n      dup3\n        /* \"#utility.yul\":15187:15222   */\n      tag_485\n      jumpi\n        /* \"#utility.yul\":15202:15220   */\n      tag_486\n      tag_487\n      jump\t// in\n    tag_486:\n        /* \"#utility.yul\":15187:15222   */\n    tag_485:\n        /* \"#utility.yul\":15244:15245   */\n      dup3\n        /* \"#utility.yul\":15241:15242   */\n      dup3\n        /* \"#utility.yul\":15237:15246   */\n      div\n        /* \"#utility.yul\":15232:15246   */\n      swap1\n      pop\n        /* \"#utility.yul\":15067:15252   */\n      swap3\n      swap2\n      pop\n      pop\n      jump\t// out\n        /* \"#utility.yul\":15258:15606   */\n    tag_183:\n        /* \"#utility.yul\":15298:15305   */\n      0x00\n        /* \"#utility.yul\":15321:15341   */\n      tag_489\n        /* \"#utility.yul\":15339:15340   */\n      dup3\n        /* \"#utility.yul\":15321:15341   */\n      tag_414\n      jump\t// in\n    tag_489:\n        /* \"#utility.yul\":15316:15341   */\n      swap2\n      pop\n        /* \"#utility.yul\":15355:15375   */\n      tag_490\n        /* \"#utility.yul\":15373:15374   */\n      dup4\n        /* \"#utility.yul\":15355:15375   */\n      tag_414\n      jump\t// in\n    tag_490:\n        /* \"#utility.yul\":15350:15375   */\n      swap3\n      pop\n        /* \"#utility.yul\":15543:15544   */\n      dup2\n        /* \"#utility.yul\":15475:15541   */\n      0xffffffffffffffffffffffffffffffffffffffffffffffffffffffffffffffff\n        /* \"#utility.yul\":15471:15545   */\n      div\n        /* \"#utility.yul\":15468:15469   */\n      dup4\n        /* \"#utility.yul\":15465:15546   */\n      gt\n        /* \"#utility.yul\":15460:15461   */\n      dup3\n        /* \"#utility.yul\":15453:15462   */\n      iszero\n        /* \"#utility.yul\":15446:15463   */\n      iszero\n        /* \"#utility.yul\":15442:15547   */\n      and\n        /* \"#utility.yul\":15439:15570   */\n      iszero\n      tag_491\n      jumpi\n        /* \"#utility.yul\":15550:15568   */\n      tag_492\n      tag_481\n      jump\t// in\n    tag_492:\n        /* \"#utility.yul\":15439:15570   */\n    tag_491:\n        /* \"#utility.yul\":15598:15599   */\n      dup3\n        /* \"#utility.yul\":15595:15596   */\n      dup3\n        /* \"#utility.yul\":15591:15600   */\n      mul\n        /* \"#utility.yul\":15580:15600   */\n      swap1\n      pop\n        /* \"#utility.yul\":15258:15606   */\n      swap3\n      swap2\n      pop\n      pop\n      jump\t// out\n        /* \"#utility.yul\":15612:15803   */\n    tag_181:\n        /* \"#utility.yul\":15652:15656   */\n      0x00\n        /* \"#utility.yul\":15672:15692   */\n      tag_494\n        /* \"#utility.yul\":15690:15691   */\n      dup3\n        /* \"#utility.yul\":15672:15692   */\n      tag_414\n      jump\t// in\n    tag_494:\n        /* \"#utility.yul\":15667:15692   */\n      swap2\n      pop\n        /* \"#utility.yul\":15706:15726   */\n      tag_495\n        /* \"#utility.yul\":15724:15725   */\n      dup4\n        /* \"#utility.yul\":15706:15726   */\n      tag_414\n      jump\t// in\n    tag_495:\n        /* \"#utility.yul\":15701:15726   */\n      swap3\n      pop\n        /* \"#utility.yul\":15745:15746   */\n      dup3\n        /* \"#utility.yul\":15742:15743   */\n      dup3\n        /* \"#utility.yul\":15739:15747   */\n      lt\n        /* \"#utility.yul\":15736:15770   */\n      iszero\n      tag_496\n      jumpi\n        /* \"#utility.yul\":15750:15768   */\n      tag_497\n      tag_481\n      jump\t// in\n    tag_497:\n        /* \"#utility.yul\":15736:15770   */\n    tag_496:\n        /* \"#utility.yul\":15795:15796   */\n      dup3\n        /* \"#utility.yul\":15792:15793   */\n      dup3\n        /* \"#utility.yul\":15788:15797   */\n      sub\n        /* \"#utility.yul\":15780:15797   */\n      swap1\n      pop\n        /* \"#utility.yul\":15612:15803   */\n      swap3\n      swap2\n      pop\n      pop\n      jump\t// out\n        /* \"#utility.yul\":15809:15905   */\n    tag_339:\n        /* \"#utility.yul\":15846:15853   */\n      0x00\n        /* \"#utility.yul\":15875:15899   */\n      tag_499\n        /* \"#utility.yul\":15893:15898   */\n      dup3\n        /* \"#utility.yul\":15875:15899   */\n      tag_500\n      jump\t// in\n    tag_499:\n        /* \"#utility.yul\":15864:15899   */\n      swap1\n      pop\n        /* \"#utility.yul\":15809:15905   */\n      swap2\n      swap1\n      pop\n      jump\t// out\n        /* \"#utility.yul\":15911:16015   */\n    tag_335:\n        /* \"#utility.yul\":15956:15963   */\n      0x00\n        /* \"#utility.yul\":15985:16009   */\n      tag_502\n        /* \"#utility.yul\":16003:16008   */\n      dup3\n        /* \"#utility.yul\":15985:16009   */\n      tag_500\n      jump\t// in\n    tag_502:\n        /* \"#utility.yul\":15974:16009   */\n      swap1\n      pop\n        /* \"#utility.yul\":15911:16015   */\n      swap2\n      swap1\n      pop\n      jump\t// out\n        /* \"#utility.yul\":16021:16111   */\n    tag_357:\n        /* \"#utility.yul\":16055:16062   */\n      0x00\n        /* \"#utility.yul\":16098:16103   */\n      dup2\n        /* \"#utility.yul\":16091:16104   */\n      iszero\n        /* \"#utility.yul\":16084:16105   */\n      iszero\n        /* \"#utility.yul\":16073:16105   */\n      swap1\n      pop\n        /* \"#utility.yul\":16021:16111   */\n      swap2\n      swap1\n      pop\n      jump\t// out\n        /* \"#utility.yul\":16117:16242   */\n    tag_504:\n        /* \"#utility.yul\":16161:16168   */\n      0x00\n        /* \"#utility.yul\":16190:16195   */\n      dup2\n        /* \"#utility.yul\":16179:16195   */\n      swap1\n      pop\n        /* \"#utility.yul\":16196:16236   */\n      tag_506\n        /* \"#utility.yul\":16230:16235   */\n      dup3\n        /* \"#utility.yul\":16196:16236   */\n      tag_507\n      jump\t// in\n    tag_506:\n        /* \"#utility.yul\":16117:16242   */\n      swap2\n      swap1\n      pop\n      jump\t// out\n        /* \"#utility.yul\":16248:16374   */\n    tag_500:\n        /* \"#utility.yul\":16285:16292   */\n      0x00\n        /* \"#utility.yul\":16325:16367   */\n      0xffffffffffffffffffffffffffffffffffffffff\n        /* \"#utility.yul\":16318:16323   */\n      dup3\n        /* \"#utility.yul\":16314:16368   */\n      and\n        /* \"#utility.yul\":16303:16368   */\n      swap1\n      pop\n        /* \"#utility.yul\":16248:16374   */\n      swap2\n      swap1\n      pop\n      jump\t// out\n        /* \"#utility.yul\":16380:16457   */\n    tag_414:\n        /* \"#utility.yul\":16417:16424   */\n      0x00\n        /* \"#utility.yul\":16446:16451   */\n      dup2\n        /* \"#utility.yul\":16435:16451   */\n      swap1\n      pop\n        /* \"#utility.yul\":16380:16457   */\n      swap2\n      swap1\n      pop\n      jump\t// out\n        /* \"#utility.yul\":16463:16588   */\n    tag_361:\n        /* \"#utility.yul\":16518:16527   */\n      0x00\n        /* \"#utility.yul\":16551:16582   */\n      tag_511\n        /* \"#utility.yul\":16576:16581   */\n      dup3\n        /* \"#utility.yul\":16551:16582   */\n      tag_504\n      jump\t// in\n    tag_511:\n        /* \"#utility.yul\":16538:16582   */\n      swap1\n      pop\n        /* \"#utility.yul\":16463:16588   */\n      swap2\n      swap1\n      pop\n      jump\t// out\n        /* \"#utility.yul\":16594:16715   */\n    tag_365:\n        /* \"#utility.yul\":16652:16661   */\n      0x00\n        /* \"#utility.yul\":16685:16709   */\n      tag_513\n        /* \"#utility.yul\":16703:16708   */\n      dup3\n        /* \"#utility.yul\":16685:16709   */\n      tag_414\n      jump\t// in\n    tag_513:\n        /* \"#utility.yul\":16672:16709   */\n      swap1\n      pop\n        /* \"#utility.yul\":16594:16715   */\n      swap2\n      swap1\n      pop\n      jump\t// out\n        /* \"#utility.yul\":16721:16875   */\n    tag_302:\n        /* \"#utility.yul\":16805:16811   */\n      dup3\n        /* \"#utility.yul\":16800:16803   */\n      dup2\n        /* \"#utility.yul\":16795:16798   */\n      dup4\n        /* \"#utility.yul\":16782:16812   */\n      calldatacopy\n        /* \"#utility.yul\":16867:16868   */\n      0x00\n        /* \"#utility.yul\":16858:16864   */\n      dup4\n        /* \"#utility.yul\":16853:16856   */\n      dup4\n        /* \"#utility.yul\":16849:16865   */\n      add\n        /* \"#utility.yul\":16842:16869   */\n      mstore\n        /* \"#utility.yul\":16721:16875   */\n      pop\n      pop\n      pop\n      jump\t// out\n        /* \"#utility.yul\":16881:17188   */\n    tag_373:\n        /* \"#utility.yul\":16949:16950   */\n      0x00\n        /* \"#utility.yul\":16959:17072   */\n    tag_516:\n        /* \"#utility.yul\":16973:16979   */\n      dup4\n        /* \"#utility.yul\":16970:16971   */\n      dup2\n        /* \"#utility.yul\":16967:16980   */\n      lt\n        /* \"#utility.yul\":16959:17072   */\n      iszero\n      tag_518\n      jumpi\n        /* \"#utility.yul\":17058:17059   */\n      dup1\n        /* \"#utility.yul\":17053:17056   */\n      dup3\n        /* \"#utility.yul\":17049:17060   */\n      add\n        /* \"#utility.yul\":17043:17061   */\n      mload\n        /* \"#utility.yul\":17039:17040   */\n      dup2\n        /* \"#utility.yul\":17034:17037   */\n      dup5\n        /* \"#utility.yul\":17030:17041   */\n      add\n        /* \"#utility.yul\":17023:17062   */\n      mstore\n        /* \"#utility.yul\":16995:16997   */\n      0x20\n        /* \"#utility.yul\":16992:16993   */\n      dup2\n        /* \"#utility.yul\":16988:16998   */\n      add\n        /* \"#utility.yul\":16983:16998   */\n      swap1\n      pop\n        /* \"#utility.yul\":16959:17072   */\n      jump(tag_516)\n    tag_518:\n        /* \"#utility.yul\":17090:17096   */\n      dup4\n        /* \"#utility.yul\":17087:17088   */\n      dup2\n        /* \"#utility.yul\":17084:17097   */\n      gt\n        /* \"#utility.yul\":17081:17182   */\n      iszero\n      tag_519\n      jumpi\n        /* \"#utility.yul\":17170:17171   */\n      0x00\n        /* \"#utility.yul\":17161:17167   */\n      dup5\n        /* \"#utility.yul\":17156:17159   */\n      dup5\n        /* \"#utility.yul\":17152:17168   */\n      add\n        /* \"#utility.yul\":17145:17172   */\n      mstore\n        /* \"#utility.yul\":17081:17182   */\n    tag_519:\n        /* \"#utility.yul\":16930:17188   */\n      pop\n        /* \"#utility.yul\":16881:17188   */\n      pop\n      pop\n      pop\n      jump\t// out\n        /* \"#utility.yul\":17194:17475   */\n    tag_463:\n        /* \"#utility.yul\":17277:17304   */\n      tag_521\n        /* \"#utility.yul\":17299:17303   */\n      dup3\n        /* \"#utility.yul\":17277:17304   */\n      tag_375\n      jump\t// in\n    tag_521:\n        /* \"#utility.yul\":17269:17275   */\n      dup2\n        /* \"#utility.yul\":17265:17305   */\n      add\n        /* \"#utility.yul\":17407:17413   */\n      dup2\n        /* \"#utility.yul\":17395:17405   */\n      dup2\n        /* \"#utility.yul\":17392:17414   */\n      lt\n        /* \"#utility.yul\":17371:17389   */\n      0xffffffffffffffff\n        /* \"#utility.yul\":17359:17369   */\n      dup3\n        /* \"#utility.yul\":17356:17390   */\n      gt\n        /* \"#utility.yul\":17353:17415   */\n      or\n        /* \"#utility.yul\":17350:17438   */\n      iszero\n      tag_522\n      jumpi\n        /* \"#utility.yul\":17418:17436   */\n      tag_523\n      tag_240\n      jump\t// in\n    tag_523:\n        /* \"#utility.yul\":17350:17438   */\n    tag_522:\n        /* \"#utility.yul\":17458:17468   */\n      dup1\n        /* \"#utility.yul\":17454:17456   */\n      0x40\n        /* \"#utility.yul\":17447:17469   */\n      mstore\n        /* \"#utility.yul\":17237:17475   */\n      pop\n        /* \"#utility.yul\":17194:17475   */\n      pop\n      pop\n      jump\t// out\n        /* \"#utility.yul\":17481:17714   */\n    tag_236:\n        /* \"#utility.yul\":17520:17523   */\n      0x00\n        /* \"#utility.yul\":17543:17567   */\n      tag_525\n        /* \"#utility.yul\":17561:17566   */\n      dup3\n        /* \"#utility.yul\":17543:17567   */\n      tag_414\n      jump\t// in\n    tag_525:\n        /* \"#utility.yul\":17534:17567   */\n      swap2\n      pop\n        /* \"#utility.yul\":17589:17655   */\n      0xffffffffffffffffffffffffffffffffffffffffffffffffffffffffffffffff\n        /* \"#utility.yul\":17582:17587   */\n      dup3\n        /* \"#utility.yul\":17579:17656   */\n      eq\n        /* \"#utility.yul\":17576:17679   */\n      iszero\n      tag_526\n      jumpi\n        /* \"#utility.yul\":17659:17677   */\n      tag_527\n      tag_481\n      jump\t// in\n    tag_527:\n        /* \"#utility.yul\":17576:17679   */\n    tag_526:\n        /* \"#utility.yul\":17706:17707   */\n      0x01\n        /* \"#utility.yul\":17699:17704   */\n      dup3\n        /* \"#utility.yul\":17695:17708   */\n      add\n        /* \"#utility.yul\":17688:17708   */\n      swap1\n      pop\n        /* \"#utility.yul\":17481:17714   */\n      swap2\n      swap1\n      pop\n      jump\t// out\n        /* \"#utility.yul\":17720:17896   */\n    tag_246:\n        /* \"#utility.yul\":17752:17753   */\n      0x00\n        /* \"#utility.yul\":17769:17789   */\n      tag_529\n        /* \"#utility.yul\":17787:17788   */\n      dup3\n        /* \"#utility.yul\":17769:17789   */\n      tag_414\n      jump\t// in\n    tag_529:\n        /* \"#utility.yul\":17764:17789   */\n      swap2\n      pop\n        /* \"#utility.yul\":17803:17823   */\n      tag_530\n        /* \"#utility.yul\":17821:17822   */\n      dup4\n        /* \"#utility.yul\":17803:17823   */\n      tag_414\n      jump\t// in\n    tag_530:\n        /* \"#utility.yul\":17798:17823   */\n      swap3\n      pop\n        /* \"#utility.yul\":17842:17843   */\n      dup3\n        /* \"#utility.yul\":17832:17867   */\n      tag_531\n      jumpi\n        /* \"#utility.yul\":17847:17865   */\n      tag_532\n      tag_487\n      jump\t// in\n    tag_532:\n        /* \"#utility.yul\":17832:17867   */\n    tag_531:\n        /* \"#utility.yul\":17888:17889   */\n      dup3\n        /* \"#utility.yul\":17885:17886   */\n      dup3\n        /* \"#utility.yul\":17881:17890   */\n      mod\n        /* \"#utility.yul\":17876:17890   */\n      swap1\n      pop\n        /* \"#utility.yul\":17720:17896   */\n      swap3\n      swap2\n      pop\n      pop\n      jump\t// out\n        /* \"#utility.yul\":17902:18082   */\n    tag_481:\n        /* \"#utility.yul\":17950:18027   */\n      0x4e487b7100000000000000000000000000000000000000000000000000000000\n        /* \"#utility.yul\":17947:17948   */\n      0x00\n        /* \"#utility.yul\":17940:18028   */\n      mstore\n        /* \"#utility.yul\":18047:18051   */\n      0x11\n        /* \"#utility.yul\":18044:18045   */\n      0x04\n        /* \"#utility.yul\":18037:18052   */\n      mstore\n        /* \"#utility.yul\":18071:18075   */\n      0x24\n        /* \"#utility.yul\":18068:18069   */\n      0x00\n        /* \"#utility.yul\":18061:18076   */\n      revert\n        /* \"#utility.yul\":18088:18268   */\n    tag_487:\n        /* \"#utility.yul\":18136:18213   */\n      0x4e487b7100000000000000000000000000000000000000000000000000000000\n        /* \"#utility.yul\":18133:18134   */\n      0x00\n        /* \"#utility.yul\":18126:18214   */\n      mstore\n        /* \"#utility.yul\":18233:18237   */\n      0x12\n        /* \"#utility.yul\":18230:18231   */\n      0x04\n        /* \"#utility.yul\":18223:18238   */\n      mstore\n        /* \"#utility.yul\":18257:18261   */\n      0x24\n        /* \"#utility.yul\":18254:18255   */\n      0x00\n        /* \"#utility.yul\":18247:18262   */\n      revert\n        /* \"#utility.yul\":18274:18454   */\n    tag_140:\n        /* \"#utility.yul\":18322:18399   */\n      0x4e487b7100000000000000000000000000000000000000000000000000000000\n        /* \"#utility.yul\":18319:18320   */\n      0x00\n        /* \"#utility.yul\":18312:18400   */\n      mstore\n        /* \"#utility.yul\":18419:18423   */\n      0x21\n        /* \"#utility.yul\":18416:18417   */\n      0x04\n        /* \"#utility.yul\":18409:18424   */\n      mstore\n        /* \"#utility.yul\":18443:18447   */\n      0x24\n        /* \"#utility.yul\":18440:18441   */\n      0x00\n        /* \"#utility.yul\":18433:18448   */\n      revert\n        /* \"#utility.yul\":18460:18640   */\n    tag_251:\n        /* \"#utility.yul\":18508:18585   */\n      0x4e487b7100000000000000000000000000000000000000000000000000000000\n        /* \"#utility.yul\":18505:18506   */\n      0x00\n        /* \"#utility.yul\":18498:18586   */\n      mstore\n        /* \"#utility.yul\":18605:18609   */\n      0x32\n        /* \"#utility.yul\":18602:18603   */\n      0x04\n        /* \"#utility.yul\":18595:18610   */\n      mstore\n        /* \"#utility.yul\":18629:18633   */\n      0x24\n        /* \"#utility.yul\":18626:18627   */\n      0x00\n        /* \"#utility.yul\":18619:18634   */\n      revert\n        /* \"#utility.yul\":18646:18826   */\n    tag_240:\n        /* \"#utility.yul\":18694:18771   */\n      0x4e487b7100000000000000000000000000000000000000000000000000000000\n        /* \"#utility.yul\":18691:18692   */\n      0x00\n        /* \"#utility.yul\":18684:18772   */\n      mstore\n        /* \"#utility.yul\":18791:18795   */\n      0x41\n        /* \"#utility.yul\":18788:18789   */\n      0x04\n        /* \"#utility.yul\":18781:18796   */\n      mstore\n        /* \"#utility.yul\":18815:18819   */\n      0x24\n        /* \"#utility.yul\":18812:18813   */\n      0x00\n        /* \"#utility.yul\":18805:18820   */\n      revert\n        /* \"#utility.yul\":18832:18949   */\n    tag_307:\n        /* \"#utility.yul\":18941:18942   */\n      0x00\n        /* \"#utility.yul\":18938:18939   */\n      dup1\n        /* \"#utility.yul\":18931:18943   */\n      revert\n        /* \"#utility.yul\":18955:19072   */\n    tag_300:\n        /* \"#utility.yul\":19064:19065   */\n      0x00\n        /* \"#utility.yul\":19061:19062   */\n      dup1\n        /* \"#utility.yul\":19054:19066   */\n      revert\n        /* \"#utility.yul\":19078:19195   */\n    tag_319:\n        /* \"#utility.yul\":19187:19188   */\n      0x00\n        /* \"#utility.yul\":19184:19185   */\n      dup1\n        /* \"#utility.yul\":19177:19189   */\n      revert\n        /* \"#utility.yul\":19201:19318   */\n    tag_316:\n        /* \"#utility.yul\":19310:19311   */\n      0x00\n        /* \"#utility.yul\":19307:19308   */\n      dup1\n        /* \"#utility.yul\":19300:19312   */\n      revert\n        /* \"#utility.yul\":19324:19426   */\n    tag_375:\n        /* \"#utility.yul\":19365:19371   */\n      0x00\n        /* \"#utility.yul\":19416:19418   */\n      0x1f\n        /* \"#utility.yul\":19412:19419   */\n      not\n        /* \"#utility.yul\":19407:19409   */\n      0x1f\n        /* \"#utility.yul\":19400:19405   */\n      dup4\n        /* \"#utility.yul\":19396:19410   */\n      add\n        /* \"#utility.yul\":19392:19420   */\n      and\n        /* \"#utility.yul\":19382:19420   */\n      swap1\n      pop\n        /* \"#utility.yul\":19324:19426   */\n      swap2\n      swap1\n      pop\n      jump\t// out\n        /* \"#utility.yul\":19432:19596   */\n    tag_386:\n        /* \"#utility.yul\":19572:19588   */\n      0x4e6f7420417574686f7269736564000000000000000000000000000000000000\n        /* \"#utility.yul\":19568:19569   */\n      0x00\n        /* \"#utility.yul\":19560:19566   */\n      dup3\n        /* \"#utility.yul\":19556:19570   */\n      add\n        /* \"#utility.yul\":19549:19589   */\n      mstore\n        /* \"#utility.yul\":19432:19596   */\n      pop\n      jump\t// out\n        /* \"#utility.yul\":19602:19765   */\n    tag_391:\n        /* \"#utility.yul\":19742:19757   */\n      0x4f726465722050656e64696e6700000000000000000000000000000000000000\n        /* \"#utility.yul\":19738:19739   */\n      0x00\n        /* \"#utility.yul\":19730:19736   */\n      dup3\n        /* \"#utility.yul\":19726:19740   */\n      add\n        /* \"#utility.yul\":19719:19758   */\n      mstore\n        /* \"#utility.yul\":19602:19765   */\n      pop\n      jump\t// out\n        /* \"#utility.yul\":19771:19922   */\n    tag_396:\n        /* \"#utility.yul\":19911:19914   */\n      0x2000000000000000000000000000000000000000000000000000000000000000\n        /* \"#utility.yul\":19907:19908   */\n      0x00\n        /* \"#utility.yul\":19899:19905   */\n      dup3\n        /* \"#utility.yul\":19895:19909   */\n      add\n        /* \"#utility.yul\":19888:19915   */\n      mstore\n        /* \"#utility.yul\":19771:19922   */\n      pop\n      jump\t// out\n        /* \"#utility.yul\":19928:20108   */\n    tag_401:\n        /* \"#utility.yul\":20068:20100   */\n      0x4e6f7420656e6f75676820626c616e636520746f20706c616365206269640000\n        /* \"#utility.yul\":20064:20065   */\n      0x00\n        /* \"#utility.yul\":20056:20062   */\n      dup3\n        /* \"#utility.yul\":20052:20066   */\n      add\n        /* \"#utility.yul\":20045:20101   */\n      mstore\n        /* \"#utility.yul\":19928:20108   */\n      pop\n      jump\t// out\n        /* \"#utility.yul\":20114:20295   */\n    tag_406:\n        /* \"#utility.yul\":20254:20287   */\n      0x70726963652076616c7565206d757374206265206d6f7265207468616e203000\n        /* \"#utility.yul\":20250:20251   */\n      0x00\n        /* \"#utility.yul\":20242:20248   */\n      dup3\n        /* \"#utility.yul\":20238:20252   */\n      add\n        /* \"#utility.yul\":20231:20288   */\n      mstore\n        /* \"#utility.yul\":20114:20295   */\n      pop\n      jump\t// out\n        /* \"#utility.yul\":20301:20481   */\n    tag_411:\n        /* \"#utility.yul\":20441:20473   */\n      0x4e6f7420656e6f75676820626c616e636520746f20706c6163652061736b0000\n        /* \"#utility.yul\":20437:20438   */\n      0x00\n        /* \"#utility.yul\":20429:20435   */\n      dup3\n        /* \"#utility.yul\":20425:20439   */\n      add\n        /* \"#utility.yul\":20418:20474   */\n      mstore\n        /* \"#utility.yul\":20301:20481   */\n      pop\n      jump\t// out\n        /* \"#utility.yul\":20487:20599   */\n    tag_507:\n        /* \"#utility.yul\":20567:20568   */\n      0x02\n        /* \"#utility.yul\":20560:20565   */\n      dup2\n        /* \"#utility.yul\":20557:20569   */\n      lt\n        /* \"#utility.yul\":20547:20593   */\n      tag_550\n      jumpi\n        /* \"#utility.yul\":20573:20591   */\n      tag_551\n      tag_140\n      jump\t// in\n    tag_551:\n        /* \"#utility.yul\":20547:20593   */\n    tag_550:\n        /* \"#utility.yul\":20487:20599   */\n      pop\n      jump\t// out\n        /* \"#utility.yul\":20605:20727   */\n    tag_312:\n        /* \"#utility.yul\":20678:20702   */\n      tag_553\n        /* \"#utility.yul\":20696:20701   */\n      dup2\n        /* \"#utility.yul\":20678:20702   */\n      tag_414\n      jump\t// in\n    tag_553:\n        /* \"#utility.yul\":20671:20676   */\n      dup2\n        /* \"#utility.yul\":20668:20703   */\n      eq\n        /* \"#utility.yul\":20658:20721   */\n      tag_554\n      jumpi\n        /* \"#utility.yul\":20717:20718   */\n      0x00\n        /* \"#utility.yul\":20714:20715   */\n      dup1\n        /* \"#utility.yul\":20707:20719   */\n      revert\n        /* \"#utility.yul\":20658:20721   */\n    tag_554:\n        /* \"#utility.yul\":20605:20727   */\n      pop\n      jump\t// out\n\n    auxdata: 0xa2646970667358221220061737a08b662f1c083f054f372a2c6f45c81d64fd3ea02c4affb7401a6f11a864736f6c63430008070033\n}\n",
				"bytecode": {
					"linkReferences": {},
					"object": "608060405233600160006101000a81548173ffffffffffffffffffffffffffffffffffffffff021916908373ffffffffffffffffffffffffffffffffffffffff1602179055503480156200005257600080fd5b5060405162002538380380620025388339818101604052810190620000789190620000bd565b8060028190555060006004819055506000600581905550600060078190555060006008819055505062000118565b600081519050620000b781620000fe565b92915050565b600060208284031215620000d657620000d5620000f9565b5b6000620000e684828501620000a6565b91505092915050565b6000819050919050565b600080fd5b6200010981620000ef565b81146200011557600080fd5b50565b61241080620001286000396000f3fe6080604052600436106101355760003560e01c806378c5b268116100ab578063b40a56271161006f578063b40a562714610434578063bf77ffae1461045f578063ce0cdc871461049c578063d05c28cb146104c7578063d09ef24114610504578063db3a13961461054857610135565b806378c5b2681461037d578063801d9bbd146103995780639703ef35146103c45780639979ef45146103ed578063a394fda71461040957610135565b806344e791e0116100fd57806344e791e0146102335780634d46712d1461025e57806369f632e21461029b5780636e5b0f00146102d8578063733672f414610303578063734a2e781461034057610135565b80630f38f2b11461013a578063122de8f2146101655780631628e0f514610190578063266001d3146101b95780632db6dfa7146101f6575b600080fd5b34801561014657600080fd5b5061014f610585565b60405161015c9190611d83565b60405180910390f35b34801561017157600080fd5b5061017a6105f1565b6040516101879190611d46565b60405180910390f35b34801561019c57600080fd5b506101b760048036038101906101b291906119c7565b6105f6565b005b3480156101c557600080fd5b506101e060048036038101906101db919061194f565b61089c565b6040516101ed9190611d83565b60405180910390f35b34801561020257600080fd5b5061021d600480360381019061021891906119c7565b6108c8565b60405161022a9190611e45565b60405180910390f35b34801561023f57600080fd5b506102486108e8565b6040516102559190611d83565b60405180910390f35b34801561026a57600080fd5b50610285600480360381019061028091906119c7565b610954565b6040516102929190611d68565b60405180910390f35b3480156102a757600080fd5b506102c260048036038101906102bd91906119c7565b610981565b6040516102cf9190611c3e565b60405180910390f35b3480156102e457600080fd5b506102ed6109c1565b6040516102fa9190611e45565b60405180910390f35b34801561030f57600080fd5b5061032a600480360381019061032591906119c7565b6109c7565b6040516103379190611e45565b60405180910390f35b34801561034c57600080fd5b50610367600480360381019061036291906119c7565b6109e7565b6040516103749190611c3e565b60405180910390f35b610397600480360381019061039291906119c7565b610a27565b005b3480156103a557600080fd5b506103ae610b64565b6040516103bb9190611e45565b60405180910390f35b3480156103d057600080fd5b506103eb60048036038101906103e691906119c7565b610b6a565b005b610407600480360381019061040291906119c7565b610e10565b005b34801561041557600080fd5b5061041e610f4d565b60405161042b9190611e45565b60405180910390f35b34801561044057600080fd5b50610449610f53565b6040516104569190611e45565b60405180910390f35b34801561046b57600080fd5b50610486600480360381019061048191906119c7565b610f59565b6040516104939190611d68565b60405180910390f35b3480156104a857600080fd5b506104b1610f86565b6040516104be9190611d46565b60405180910390f35b3480156104d357600080fd5b506104ee60048036038101906104e991906119c7565b610f8b565b6040516104fb9190611e45565b60405180910390f35b34801561051057600080fd5b5061052b600480360381019061052691906119c7565b610fab565b60405161053f989796959493929190611c59565b60405180910390f35b34801561055457600080fd5b5061056f600480360381019061056a91906119c7565b610fc2565b60405161057c9190611e45565b60405180910390f35b60606000600454905060006040518060200160405280600081525090505b600082146105e95760006003600084815260200190815260200160002060050154905060006105d184610fe2565b90506105dd838261089c565b925081935050506105a3565b809250505090565b606090565b600660008281526020019081526020016000206040518060e00160405290816000820160009054906101000a900473ffffffffffffffffffffffffffffffffffffffff1673ffffffffffffffffffffffffffffffffffffffff1673ffffffffffffffffffffffffffffffffffffffff16815260200160018201548152602001600282015481526020016003820160009054906101000a900460ff1660018111156106a3576106a2612207565b5b60018111156106b5576106b4612207565b5b81526020016004820154815260200160058201548152602001600682015481525050600060018111156106eb576106ea612207565b5b8160600151600181111561070257610701612207565b5b14610742576040517f08c379a000000000000000000000000000000000000000000000000000000000815260040161073990611dc5565b60405180910390fd5b600660008381526020019081526020016000206040518060e00160405290816000820160009054906101000a900473ffffffffffffffffffffffffffffffffffffffff1673ffffffffffffffffffffffffffffffffffffffff1673ffffffffffffffffffffffffffffffffffffffff16815260200160018201548152602001600282015481526020016003820160009054906101000a900460ff1660018111156107ef576107ee612207565b5b600181111561080157610800612207565b5b81526020016004820154815260200160058201548152602001600682015481525050338073ffffffffffffffffffffffffffffffffffffffff16826000015173ffffffffffffffffffffffffffffffffffffffff1614610896576040517f08c379a000000000000000000000000000000000000000000000000000000000815260040161088d90611da5565b60405180910390fd5b50505050565b606082826040516020016108b1929190611c0f565b604051602081830303815290604052905092915050565b600060036000838152602001908152602001600020600101549050919050565b60606000600754905060006040518060200160405280600081525090505b6000821461094c57600060066000848152602001908152602001600020600501549050600061093484610fe2565b9050610940838261089c565b92508193505050610906565b809250505090565b60006006600083815260200190815260200160002060030160009054906101000a900460ff169050919050565b60006003600083815260200190815260200160002060000160009054906101000a900473ffffffffffffffffffffffffffffffffffffffff169050919050565b60045481565b600060066000838152602001908152602001600020600501549050919050565b60006006600083815260200190815260200160002060000160009054906101000a900473ffffffffffffffffffffffffffffffffffffffff169050919050565b6000811015610a6b576040517f08c379a0000000000000000000000000000000000000000000000000000000008152600401610a6290611e05565b60405180910390fd5b80341015610aae576040517f08c379a0000000000000000000000000000000000000000000000000000000008152600401610aa590611e25565b60405180910390fd5b6000429050600060646002546064610ac69190611ff7565b34610ad19190611f9d565b610adb9190611f6c565b90506000610aea338385611143565b9050610af5816112db565b600160009054906101000a900473ffffffffffffffffffffffffffffffffffffffff1673ffffffffffffffffffffffffffffffffffffffff166108fc839081150290604051600060405180830381858888f19350505050158015610b5d573d6000803e3d6000fd5b5050505050565b60075481565b600360008281526020019081526020016000206040518060e00160405290816000820160009054906101000a900473ffffffffffffffffffffffffffffffffffffffff1673ffffffffffffffffffffffffffffffffffffffff1673ffffffffffffffffffffffffffffffffffffffff16815260200160018201548152602001600282015481526020016003820160009054906101000a900460ff166001811115610c1757610c16612207565b5b6001811115610c2957610c28612207565b5b8152602001600482015481526020016005820154815260200160068201548152505060006001811115610c5f57610c5e612207565b5b81606001516001811115610c7657610c75612207565b5b14610cb6576040517f08c379a0000000000000000000000000000000000000000000000000000000008152600401610cad90611dc5565b60405180910390fd5b600360008381526020019081526020016000206040518060e00160405290816000820160009054906101000a900473ffffffffffffffffffffffffffffffffffffffff1673ffffffffffffffffffffffffffffffffffffffff1673ffffffffffffffffffffffffffffffffffffffff16815260200160018201548152602001600282015481526020016003820160009054906101000a900460ff166001811115610d6357610d62612207565b5b6001811115610d7557610d74612207565b5b81526020016004820154815260200160058201548152602001600682015481525050338073ffffffffffffffffffffffffffffffffffffffff16826000015173ffffffffffffffffffffffffffffffffffffffff1614610e0a576040517f08c379a0000000000000000000000000000000000000000000000000000000008152600401610e0190611da5565b60405180910390fd5b50505050565b6000811015610e54576040517f08c379a0000000000000000000000000000000000000000000000000000000008152600401610e4b90611e05565b60405180910390fd5b80341015610e97576040517f08c379a0000000000000000000000000000000000000000000000000000000008152600401610e8e90611de5565b60405180910390fd5b6000429050600060646002546064610eaf9190611ff7565b34610eba9190611f9d565b610ec49190611f6c565b90506000610ed33383856114d4565b9050610ede8161166c565b600160009054906101000a900473ffffffffffffffffffffffffffffffffffffffff1673ffffffffffffffffffffffffffffffffffffffff166108fc839081150290604051600060405180830381858888f19350505050158015610f46573d6000803e3d6000fd5b5050505050565b60085481565b60055481565b60006003600083815260200190815260200160002060030160009054906101000a900460ff169050919050565b606090565b600060066000838152602001908152602001600020600601549050919050565b600080600080600080600080919395975091939597565b600060066000838152602001908152602001600020600101549050919050565b6060600082141561102a576040518060400160405280600181526020017f3000000000000000000000000000000000000000000000000000000000000000815250905061113e565b600082905060005b6000821461105c5780806110459061212f565b915050600a826110559190611f6c565b9150611032565b60008167ffffffffffffffff81111561107857611077612265565b5b6040519080825280601f01601f1916602001820160405280156110aa5781602001600182028036833780820191505090505b5090505b60008514611137576001826110c39190611ff7565b9150600a856110d29190612178565b60306110de9190611f16565b60f81b8183815181106110f4576110f3612236565b5b60200101907effffffffffffffffffffffffffffffffffffffffffffffffffffffffffffff1916908160001a905350600a856111309190611f6c565b94506110ae565b8093505050505b919050565b61114b611865565b6008600081548092919061115e9061212f565b919050555060006040518060e001604052808673ffffffffffffffffffffffffffffffffffffffff168152602001858152602001848152602001600060018111156111ac576111ab612207565b5b8152602001600854815260200160008152602001600081525090508060066000600854815260200190815260200160002060008201518160000160006101000a81548173ffffffffffffffffffffffffffffffffffffffff021916908373ffffffffffffffffffffffffffffffffffffffff160217905550602082015181600101556040820151816002015560608201518160030160006101000a81548160ff0219169083600181111561126357611262612207565b5b02179055506080820151816004015560a0820151816005015560c082015181600601559050507fb363d8961e2dcc4e4f9cafac06e22ffe5a3ee9b47f614e483f989b932167e86585858560006008546000806040516112c89796959493929190611cd7565b60405180910390a1809150509392505050565b60008060075414156112f75781608001516007819055506114d0565b816020015160066000600754815260200190815260200160002060010154106113845760075460066000846080015181526020019081526020016000206005018190555081608001516006600060066000866080015181526020019081526020016000206005015481526020019081526020016000206006018190555081608001516007819055506114cf565b60075490505b60006006600083815260200190815260200160002060050154141580156113e057508160200151600660006006600085815260200190815260200160002060050154815260200190815260200160002060010154105b15611403576006600082815260200190815260200160002060050154905061138a565b60066000828152602001908152602001600020600501546006600084608001518152602001908152602001600020600501819055506000600660008381526020019081526020016000206005015414611490578160800151600660006006600086608001518152602001908152602001600020600501548152602001908152602001600020600601819055505b81608001516006600083815260200190815260200160002060050181905550806006600084608001518152602001908152602001600020600601819055505b5b5050565b6114dc611865565b600560008154809291906114ef9061212f565b919050555060006040518060e001604052808673ffffffffffffffffffffffffffffffffffffffff1681526020018581526020018481526020016000600181111561153d5761153c612207565b5b8152602001600554815260200160008152602001600081525090508060036000600554815260200190815260200160002060008201518160000160006101000a81548173ffffffffffffffffffffffffffffffffffffffff021916908373ffffffffffffffffffffffffffffffffffffffff160217905550602082015181600101556040820151816002015560608201518160030160006101000a81548160ff021916908360018111156115f4576115f3612207565b5b02179055506080820151816004015560a0820151816005015560c082015181600601559050507fb363d8961e2dcc4e4f9cafac06e22ffe5a3ee9b47f614e483f989b932167e86585858560006005546000806040516116599796959493929190611cd7565b60405180910390a1809150509392505050565b6000806004541415611688578160800151600481905550611861565b81602001516003600060045481526020019081526020016000206001015411611715576004546003600084608001518152602001908152602001600020600501819055508160800151600360006003600086608001518152602001908152602001600020600501548152602001908152602001600020600601819055508160800151600481905550611860565b60045490505b600060036000838152602001908152602001600020600501541415801561177157508160200151600360006003600085815260200190815260200160002060050154815260200190815260200160002060010154115b15611794576003600082815260200190815260200160002060050154905061171b565b60036000828152602001908152602001600020600501546003600084608001518152602001908152602001600020600501819055506000600360008381526020019081526020016000206005015414611821578160800151600360006003600086608001518152602001908152602001600020600501548152602001908152602001600020600601819055505b81608001516003600083815260200190815260200160002060050181905550806003600084608001518152602001908152602001600020600601819055505b5b5050565b6040518060e00160405280600073ffffffffffffffffffffffffffffffffffffffff1681526020016000815260200160008152602001600060018111156118af576118ae612207565b5b81526020016000815260200160008152602001600081525090565b60006118dd6118d884611e85565b611e60565b9050828152602081018484840111156118f9576118f8612299565b5b6119048482856120bc565b509392505050565b600082601f83011261192157611920612294565b5b81356119318482602086016118ca565b91505092915050565b600081359050611949816123c3565b92915050565b60008060408385031215611966576119656122a3565b5b600083013567ffffffffffffffff8111156119845761198361229e565b5b6119908582860161190c565b925050602083013567ffffffffffffffff8111156119b1576119b061229e565b5b6119bd8582860161190c565b9150509250929050565b6000602082840312156119dd576119dc6122a3565b5b60006119eb8482850161193a565b91505092915050565b6000611a008383611bf1565b60208301905092915050565b611a158161203d565b82525050565b611a248161202b565b82525050565b6000611a3582611ec6565b611a3f8185611ee9565b9350611a4a83611eb6565b8060005b83811015611a7b578151611a6288826119f4565b9750611a6d83611edc565b925050600181019050611a4e565b5085935050505092915050565b611a918161204f565b82525050565b611aa081612098565b82525050565b611aaf816120aa565b82525050565b6000611ac082611ed1565b611aca8185611efa565b9350611ada8185602086016120cb565b611ae3816122a8565b840191505092915050565b6000611af982611ed1565b611b038185611f0b565b9350611b138185602086016120cb565b80840191505092915050565b6000611b2c600e83611efa565b9150611b37826122b9565b602082019050919050565b6000611b4f600d83611efa565b9150611b5a826122e2565b602082019050919050565b6000611b72600183611f0b565b9150611b7d8261230b565b600182019050919050565b6000611b95601e83611efa565b9150611ba082612334565b602082019050919050565b6000611bb8601f83611efa565b9150611bc38261235d565b602082019050919050565b6000611bdb601e83611efa565b9150611be682612386565b602082019050919050565b611bfa8161208e565b82525050565b611c098161208e565b82525050565b6000611c1b8285611aee565b9150611c2682611b65565b9150611c328284611aee565b91508190509392505050565b6000602082019050611c536000830184611a0c565b92915050565b600061010082019050611c6f600083018b611a0c565b611c7c602083018a611c00565b611c896040830189611c00565b611c966060830188611a97565b611ca36080830187611c00565b611cb060a0830186611c00565b611cbd60c0830185611c00565b611cca60e0830184611a88565b9998505050505050505050565b600060e082019050611cec600083018a611a1b565b611cf96020830189611c00565b611d066040830188611c00565b611d136060830187611a97565b611d206080830186611c00565b611d2d60a0830185611aa6565b611d3a60c0830184611aa6565b98975050505050505050565b60006020820190508181036000830152611d608184611a2a565b905092915050565b6000602082019050611d7d6000830184611a97565b92915050565b60006020820190508181036000830152611d9d8184611ab5565b905092915050565b60006020820190508181036000830152611dbe81611b1f565b9050919050565b60006020820190508181036000830152611dde81611b42565b9050919050565b60006020820190508181036000830152611dfe81611b88565b9050919050565b60006020820190508181036000830152611e1e81611bab565b9050919050565b60006020820190508181036000830152611e3e81611bce565b9050919050565b6000602082019050611e5a6000830184611c00565b92915050565b6000611e6a611e7b565b9050611e7682826120fe565b919050565b6000604051905090565b600067ffffffffffffffff821115611ea057611e9f612265565b5b611ea9826122a8565b9050602081019050919050565b6000819050602082019050919050565b600081519050919050565b600081519050919050565b6000602082019050919050565b600082825260208201905092915050565b600082825260208201905092915050565b600081905092915050565b6000611f218261208e565b9150611f2c8361208e565b9250827fffffffffffffffffffffffffffffffffffffffffffffffffffffffffffffffff03821115611f6157611f606121a9565b5b828201905092915050565b6000611f778261208e565b9150611f828361208e565b925082611f9257611f916121d8565b5b828204905092915050565b6000611fa88261208e565b9150611fb38361208e565b9250817fffffffffffffffffffffffffffffffffffffffffffffffffffffffffffffffff0483118215151615611fec57611feb6121a9565b5b828202905092915050565b60006120028261208e565b915061200d8361208e565b9250828210156120205761201f6121a9565b5b828203905092915050565b60006120368261206e565b9050919050565b60006120488261206e565b9050919050565b60008115159050919050565b6000819050612069826123af565b919050565b600073ffffffffffffffffffffffffffffffffffffffff82169050919050565b6000819050919050565b60006120a38261205b565b9050919050565b60006120b58261208e565b9050919050565b82818337600083830152505050565b60005b838110156120e95780820151818401526020810190506120ce565b838111156120f8576000848401525b50505050565b612107826122a8565b810181811067ffffffffffffffff8211171561212657612125612265565b5b80604052505050565b600061213a8261208e565b91507fffffffffffffffffffffffffffffffffffffffffffffffffffffffffffffffff82141561216d5761216c6121a9565b5b600182019050919050565b60006121838261208e565b915061218e8361208e565b92508261219e5761219d6121d8565b5b828206905092915050565b7f4e487b7100000000000000000000000000000000000000000000000000000000600052601160045260246000fd5b7f4e487b7100000000000000000000000000000000000000000000000000000000600052601260045260246000fd5b7f4e487b7100000000000000000000000000000000000000000000000000000000600052602160045260246000fd5b7f4e487b7100000000000000000000000000000000000000000000000000000000600052603260045260246000fd5b7f4e487b7100000000000000000000000000000000000000000000000000000000600052604160045260246000fd5b600080fd5b600080fd5b600080fd5b600080fd5b6000601f19601f8301169050919050565b7f4e6f7420417574686f7269736564000000000000000000000000000000000000600082015250565b7f4f726465722050656e64696e6700000000000000000000000000000000000000600082015250565b7f2000000000000000000000000000000000000000000000000000000000000000600082015250565b7f4e6f7420656e6f75676820626c616e636520746f20706c616365206269640000600082015250565b7f70726963652076616c7565206d757374206265206d6f7265207468616e203000600082015250565b7f4e6f7420656e6f75676820626c616e636520746f20706c6163652061736b0000600082015250565b600281106123c0576123bf612207565b5b50565b6123cc8161208e565b81146123d757600080fd5b5056fea2646970667358221220061737a08b662f1c083f054f372a2c6f45c81d64fd3ea02c4affb7401a6f11a864736f6c63430008070033",
					"opcodes": "PUSH1 0x80 PUSH1 0x40 MSTORE CALLER PUSH1 0x1 PUSH1 0x0 PUSH2 0x100 EXP DUP2 SLOAD DUP2 PUSH20 0xFFFFFFFFFFFFFFFFFFFFFFFFFFFFFFFFFFFFFFFF MUL NOT AND SWAP1 DUP4 PUSH20 0xFFFFFFFFFFFFFFFFFFFFFFFFFFFFFFFFFFFFFFFF AND MUL OR SWAP1 SSTORE POP CALLVALUE DUP1 ISZERO PUSH3 0x52 JUMPI PUSH1 0x0 DUP1 REVERT JUMPDEST POP PUSH1 0x40 MLOAD PUSH3 0x2538 CODESIZE SUB DUP1 PUSH3 0x2538 DUP4 CODECOPY DUP2 DUP2 ADD PUSH1 0x40 MSTORE DUP2 ADD SWAP1 PUSH3 0x78 SWAP2 SWAP1 PUSH3 0xBD JUMP JUMPDEST DUP1 PUSH1 0x2 DUP2 SWAP1 SSTORE POP PUSH1 0x0 PUSH1 0x4 DUP2 SWAP1 SSTORE POP PUSH1 0x0 PUSH1 0x5 DUP2 SWAP1 SSTORE POP PUSH1 0x0 PUSH1 0x7 DUP2 SWAP1 SSTORE POP PUSH1 0x0 PUSH1 0x8 DUP2 SWAP1 SSTORE POP POP PUSH3 0x118 JUMP JUMPDEST PUSH1 0x0 DUP2 MLOAD SWAP1 POP PUSH3 0xB7 DUP2 PUSH3 0xFE JUMP JUMPDEST SWAP3 SWAP2 POP POP JUMP JUMPDEST PUSH1 0x0 PUSH1 0x20 DUP3 DUP5 SUB SLT ISZERO PUSH3 0xD6 JUMPI PUSH3 0xD5 PUSH3 0xF9 JUMP JUMPDEST JUMPDEST PUSH1 0x0 PUSH3 0xE6 DUP5 DUP3 DUP6 ADD PUSH3 0xA6 JUMP JUMPDEST SWAP2 POP POP SWAP3 SWAP2 POP POP JUMP JUMPDEST PUSH1 0x0 DUP2 SWAP1 POP SWAP2 SWAP1 POP JUMP JUMPDEST PUSH1 0x0 DUP1 REVERT JUMPDEST PUSH3 0x109 DUP2 PUSH3 0xEF JUMP JUMPDEST DUP2 EQ PUSH3 0x115 JUMPI PUSH1 0x0 DUP1 REVERT JUMPDEST POP JUMP JUMPDEST PUSH2 0x2410 DUP1 PUSH3 0x128 PUSH1 0x0 CODECOPY PUSH1 0x0 RETURN INVALID PUSH1 0x80 PUSH1 0x40 MSTORE PUSH1 0x4 CALLDATASIZE LT PUSH2 0x135 JUMPI PUSH1 0x0 CALLDATALOAD PUSH1 0xE0 SHR DUP1 PUSH4 0x78C5B268 GT PUSH2 0xAB JUMPI DUP1 PUSH4 0xB40A5627 GT PUSH2 0x6F JUMPI DUP1 PUSH4 0xB40A5627 EQ PUSH2 0x434 JUMPI DUP1 PUSH4 0xBF77FFAE EQ PUSH2 0x45F JUMPI DUP1 PUSH4 0xCE0CDC87 EQ PUSH2 0x49C JUMPI DUP1 PUSH4 0xD05C28CB EQ PUSH2 0x4C7 JUMPI DUP1 PUSH4 0xD09EF241 EQ PUSH2 0x504 JUMPI DUP1 PUSH4 0xDB3A1396 EQ PUSH2 0x548 JUMPI PUSH2 0x135 JUMP JUMPDEST DUP1 PUSH4 0x78C5B268 EQ PUSH2 0x37D JUMPI DUP1 PUSH4 0x801D9BBD EQ PUSH2 0x399 JUMPI DUP1 PUSH4 0x9703EF35 EQ PUSH2 0x3C4 JUMPI DUP1 PUSH4 0x9979EF45 EQ PUSH2 0x3ED JUMPI DUP1 PUSH4 0xA394FDA7 EQ PUSH2 0x409 JUMPI PUSH2 0x135 JUMP JUMPDEST DUP1 PUSH4 0x44E791E0 GT PUSH2 0xFD JUMPI DUP1 PUSH4 0x44E791E0 EQ PUSH2 0x233 JUMPI DUP1 PUSH4 0x4D46712D EQ PUSH2 0x25E JUMPI DUP1 PUSH4 0x69F632E2 EQ PUSH2 0x29B JUMPI DUP1 PUSH4 0x6E5B0F00 EQ PUSH2 0x2D8 JUMPI DUP1 PUSH4 0x733672F4 EQ PUSH2 0x303 JUMPI DUP1 PUSH4 0x734A2E78 EQ PUSH2 0x340 JUMPI PUSH2 0x135 JUMP JUMPDEST DUP1 PUSH4 0xF38F2B1 EQ PUSH2 0x13A JUMPI DUP1 PUSH4 0x122DE8F2 EQ PUSH2 0x165 JUMPI DUP1 PUSH4 0x1628E0F5 EQ PUSH2 0x190 JUMPI DUP1 PUSH4 0x266001D3 EQ PUSH2 0x1B9 JUMPI DUP1 PUSH4 0x2DB6DFA7 EQ PUSH2 0x1F6 JUMPI JUMPDEST PUSH1 0x0 DUP1 REVERT JUMPDEST CALLVALUE DUP1 ISZERO PUSH2 0x146 JUMPI PUSH1 0x0 DUP1 REVERT JUMPDEST POP PUSH2 0x14F PUSH2 0x585 JUMP JUMPDEST PUSH1 0x40 MLOAD PUSH2 0x15C SWAP2 SWAP1 PUSH2 0x1D83 JUMP JUMPDEST PUSH1 0x40 MLOAD DUP1 SWAP2 SUB SWAP1 RETURN JUMPDEST CALLVALUE DUP1 ISZERO PUSH2 0x171 JUMPI PUSH1 0x0 DUP1 REVERT JUMPDEST POP PUSH2 0x17A PUSH2 0x5F1 JUMP JUMPDEST PUSH1 0x40 MLOAD PUSH2 0x187 SWAP2 SWAP1 PUSH2 0x1D46 JUMP JUMPDEST PUSH1 0x40 MLOAD DUP1 SWAP2 SUB SWAP1 RETURN JUMPDEST CALLVALUE DUP1 ISZERO PUSH2 0x19C JUMPI PUSH1 0x0 DUP1 REVERT JUMPDEST POP PUSH2 0x1B7 PUSH1 0x4 DUP1 CALLDATASIZE SUB DUP2 ADD SWAP1 PUSH2 0x1B2 SWAP2 SWAP1 PUSH2 0x19C7 JUMP JUMPDEST PUSH2 0x5F6 JUMP JUMPDEST STOP JUMPDEST CALLVALUE DUP1 ISZERO PUSH2 0x1C5 JUMPI PUSH1 0x0 DUP1 REVERT JUMPDEST POP PUSH2 0x1E0 PUSH1 0x4 DUP1 CALLDATASIZE SUB DUP2 ADD SWAP1 PUSH2 0x1DB SWAP2 SWAP1 PUSH2 0x194F JUMP JUMPDEST PUSH2 0x89C JUMP JUMPDEST PUSH1 0x40 MLOAD PUSH2 0x1ED SWAP2 SWAP1 PUSH2 0x1D83 JUMP JUMPDEST PUSH1 0x40 MLOAD DUP1 SWAP2 SUB SWAP1 RETURN JUMPDEST CALLVALUE DUP1 ISZERO PUSH2 0x202 JUMPI PUSH1 0x0 DUP1 REVERT JUMPDEST POP PUSH2 0x21D PUSH1 0x4 DUP1 CALLDATASIZE SUB DUP2 ADD SWAP1 PUSH2 0x218 SWAP2 SWAP1 PUSH2 0x19C7 JUMP JUMPDEST PUSH2 0x8C8 JUMP JUMPDEST PUSH1 0x40 MLOAD PUSH2 0x22A SWAP2 SWAP1 PUSH2 0x1E45 JUMP JUMPDEST PUSH1 0x40 MLOAD DUP1 SWAP2 SUB SWAP1 RETURN JUMPDEST CALLVALUE DUP1 ISZERO PUSH2 0x23F JUMPI PUSH1 0x0 DUP1 REVERT JUMPDEST POP PUSH2 0x248 PUSH2 0x8E8 JUMP JUMPDEST PUSH1 0x40 MLOAD PUSH2 0x255 SWAP2 SWAP1 PUSH2 0x1D83 JUMP JUMPDEST PUSH1 0x40 MLOAD DUP1 SWAP2 SUB SWAP1 RETURN JUMPDEST CALLVALUE DUP1 ISZERO PUSH2 0x26A JUMPI PUSH1 0x0 DUP1 REVERT JUMPDEST POP PUSH2 0x285 PUSH1 0x4 DUP1 CALLDATASIZE SUB DUP2 ADD SWAP1 PUSH2 0x280 SWAP2 SWAP1 PUSH2 0x19C7 JUMP JUMPDEST PUSH2 0x954 JUMP JUMPDEST PUSH1 0x40 MLOAD PUSH2 0x292 SWAP2 SWAP1 PUSH2 0x1D68 JUMP JUMPDEST PUSH1 0x40 MLOAD DUP1 SWAP2 SUB SWAP1 RETURN JUMPDEST CALLVALUE DUP1 ISZERO PUSH2 0x2A7 JUMPI PUSH1 0x0 DUP1 REVERT JUMPDEST POP PUSH2 0x2C2 PUSH1 0x4 DUP1 CALLDATASIZE SUB DUP2 ADD SWAP1 PUSH2 0x2BD SWAP2 SWAP1 PUSH2 0x19C7 JUMP JUMPDEST PUSH2 0x981 JUMP JUMPDEST PUSH1 0x40 MLOAD PUSH2 0x2CF SWAP2 SWAP1 PUSH2 0x1C3E JUMP JUMPDEST PUSH1 0x40 MLOAD DUP1 SWAP2 SUB SWAP1 RETURN JUMPDEST CALLVALUE DUP1 ISZERO PUSH2 0x2E4 JUMPI PUSH1 0x0 DUP1 REVERT JUMPDEST POP PUSH2 0x2ED PUSH2 0x9C1 JUMP JUMPDEST PUSH1 0x40 MLOAD PUSH2 0x2FA SWAP2 SWAP1 PUSH2 0x1E45 JUMP JUMPDEST PUSH1 0x40 MLOAD DUP1 SWAP2 SUB SWAP1 RETURN JUMPDEST CALLVALUE DUP1 ISZERO PUSH2 0x30F JUMPI PUSH1 0x0 DUP1 REVERT JUMPDEST POP PUSH2 0x32A PUSH1 0x4 DUP1 CALLDATASIZE SUB DUP2 ADD SWAP1 PUSH2 0x325 SWAP2 SWAP1 PUSH2 0x19C7 JUMP JUMPDEST PUSH2 0x9C7 JUMP JUMPDEST PUSH1 0x40 MLOAD PUSH2 0x337 SWAP2 SWAP1 PUSH2 0x1E45 JUMP JUMPDEST PUSH1 0x40 MLOAD DUP1 SWAP2 SUB SWAP1 RETURN JUMPDEST CALLVALUE DUP1 ISZERO PUSH2 0x34C JUMPI PUSH1 0x0 DUP1 REVERT JUMPDEST POP PUSH2 0x367 PUSH1 0x4 DUP1 CALLDATASIZE SUB DUP2 ADD SWAP1 PUSH2 0x362 SWAP2 SWAP1 PUSH2 0x19C7 JUMP JUMPDEST PUSH2 0x9E7 JUMP JUMPDEST PUSH1 0x40 MLOAD PUSH2 0x374 SWAP2 SWAP1 PUSH2 0x1C3E JUMP JUMPDEST PUSH1 0x40 MLOAD DUP1 SWAP2 SUB SWAP1 RETURN JUMPDEST PUSH2 0x397 PUSH1 0x4 DUP1 CALLDATASIZE SUB DUP2 ADD SWAP1 PUSH2 0x392 SWAP2 SWAP1 PUSH2 0x19C7 JUMP JUMPDEST PUSH2 0xA27 JUMP JUMPDEST STOP JUMPDEST CALLVALUE DUP1 ISZERO PUSH2 0x3A5 JUMPI PUSH1 0x0 DUP1 REVERT JUMPDEST POP PUSH2 0x3AE PUSH2 0xB64 JUMP JUMPDEST PUSH1 0x40 MLOAD PUSH2 0x3BB SWAP2 SWAP1 PUSH2 0x1E45 JUMP JUMPDEST PUSH1 0x40 MLOAD DUP1 SWAP2 SUB SWAP1 RETURN JUMPDEST CALLVALUE DUP1 ISZERO PUSH2 0x3D0 JUMPI PUSH1 0x0 DUP1 REVERT JUMPDEST POP PUSH2 0x3EB PUSH1 0x4 DUP1 CALLDATASIZE SUB DUP2 ADD SWAP1 PUSH2 0x3E6 SWAP2 SWAP1 PUSH2 0x19C7 JUMP JUMPDEST PUSH2 0xB6A JUMP JUMPDEST STOP JUMPDEST PUSH2 0x407 PUSH1 0x4 DUP1 CALLDATASIZE SUB DUP2 ADD SWAP1 PUSH2 0x402 SWAP2 SWAP1 PUSH2 0x19C7 JUMP JUMPDEST PUSH2 0xE10 JUMP JUMPDEST STOP JUMPDEST CALLVALUE DUP1 ISZERO PUSH2 0x415 JUMPI PUSH1 0x0 DUP1 REVERT JUMPDEST POP PUSH2 0x41E PUSH2 0xF4D JUMP JUMPDEST PUSH1 0x40 MLOAD PUSH2 0x42B SWAP2 SWAP1 PUSH2 0x1E45 JUMP JUMPDEST PUSH1 0x40 MLOAD DUP1 SWAP2 SUB SWAP1 RETURN JUMPDEST CALLVALUE DUP1 ISZERO PUSH2 0x440 JUMPI PUSH1 0x0 DUP1 REVERT JUMPDEST POP PUSH2 0x449 PUSH2 0xF53 JUMP JUMPDEST PUSH1 0x40 MLOAD PUSH2 0x456 SWAP2 SWAP1 PUSH2 0x1E45 JUMP JUMPDEST PUSH1 0x40 MLOAD DUP1 SWAP2 SUB SWAP1 RETURN JUMPDEST CALLVALUE DUP1 ISZERO PUSH2 0x46B JUMPI PUSH1 0x0 DUP1 REVERT JUMPDEST POP PUSH2 0x486 PUSH1 0x4 DUP1 CALLDATASIZE SUB DUP2 ADD SWAP1 PUSH2 0x481 SWAP2 SWAP1 PUSH2 0x19C7 JUMP JUMPDEST PUSH2 0xF59 JUMP JUMPDEST PUSH1 0x40 MLOAD PUSH2 0x493 SWAP2 SWAP1 PUSH2 0x1D68 JUMP JUMPDEST PUSH1 0x40 MLOAD DUP1 SWAP2 SUB SWAP1 RETURN JUMPDEST CALLVALUE DUP1 ISZERO PUSH2 0x4A8 JUMPI PUSH1 0x0 DUP1 REVERT JUMPDEST POP PUSH2 0x4B1 PUSH2 0xF86 JUMP JUMPDEST PUSH1 0x40 MLOAD PUSH2 0x4BE SWAP2 SWAP1 PUSH2 0x1D46 JUMP JUMPDEST PUSH1 0x40 MLOAD DUP1 SWAP2 SUB SWAP1 RETURN JUMPDEST CALLVALUE DUP1 ISZERO PUSH2 0x4D3 JUMPI PUSH1 0x0 DUP1 REVERT JUMPDEST POP PUSH2 0x4EE PUSH1 0x4 DUP1 CALLDATASIZE SUB DUP2 ADD SWAP1 PUSH2 0x4E9 SWAP2 SWAP1 PUSH2 0x19C7 JUMP JUMPDEST PUSH2 0xF8B JUMP JUMPDEST PUSH1 0x40 MLOAD PUSH2 0x4FB SWAP2 SWAP1 PUSH2 0x1E45 JUMP JUMPDEST PUSH1 0x40 MLOAD DUP1 SWAP2 SUB SWAP1 RETURN JUMPDEST CALLVALUE DUP1 ISZERO PUSH2 0x510 JUMPI PUSH1 0x0 DUP1 REVERT JUMPDEST POP PUSH2 0x52B PUSH1 0x4 DUP1 CALLDATASIZE SUB DUP2 ADD SWAP1 PUSH2 0x526 SWAP2 SWAP1 PUSH2 0x19C7 JUMP JUMPDEST PUSH2 0xFAB JUMP JUMPDEST PUSH1 0x40 MLOAD PUSH2 0x53F SWAP9 SWAP8 SWAP7 SWAP6 SWAP5 SWAP4 SWAP3 SWAP2 SWAP1 PUSH2 0x1C59 JUMP JUMPDEST PUSH1 0x40 MLOAD DUP1 SWAP2 SUB SWAP1 RETURN JUMPDEST CALLVALUE DUP1 ISZERO PUSH2 0x554 JUMPI PUSH1 0x0 DUP1 REVERT JUMPDEST POP PUSH2 0x56F PUSH1 0x4 DUP1 CALLDATASIZE SUB DUP2 ADD SWAP1 PUSH2 0x56A SWAP2 SWAP1 PUSH2 0x19C7 JUMP JUMPDEST PUSH2 0xFC2 JUMP JUMPDEST PUSH1 0x40 MLOAD PUSH2 0x57C SWAP2 SWAP1 PUSH2 0x1E45 JUMP JUMPDEST PUSH1 0x40 MLOAD DUP1 SWAP2 SUB SWAP1 RETURN JUMPDEST PUSH1 0x60 PUSH1 0x0 PUSH1 0x4 SLOAD SWAP1 POP PUSH1 0x0 PUSH1 0x40 MLOAD DUP1 PUSH1 0x20 ADD PUSH1 0x40 MSTORE DUP1 PUSH1 0x0 DUP2 MSTORE POP SWAP1 POP JUMPDEST PUSH1 0x0 DUP3 EQ PUSH2 0x5E9 JUMPI PUSH1 0x0 PUSH1 0x3 PUSH1 0x0 DUP5 DUP2 MSTORE PUSH1 0x20 ADD SWAP1 DUP2 MSTORE PUSH1 0x20 ADD PUSH1 0x0 KECCAK256 PUSH1 0x5 ADD SLOAD SWAP1 POP PUSH1 0x0 PUSH2 0x5D1 DUP5 PUSH2 0xFE2 JUMP JUMPDEST SWAP1 POP PUSH2 0x5DD DUP4 DUP3 PUSH2 0x89C JUMP JUMPDEST SWAP3 POP DUP2 SWAP4 POP POP POP PUSH2 0x5A3 JUMP JUMPDEST DUP1 SWAP3 POP POP POP SWAP1 JUMP JUMPDEST PUSH1 0x60 SWAP1 JUMP JUMPDEST PUSH1 0x6 PUSH1 0x0 DUP3 DUP2 MSTORE PUSH1 0x20 ADD SWAP1 DUP2 MSTORE PUSH1 0x20 ADD PUSH1 0x0 KECCAK256 PUSH1 0x40 MLOAD DUP1 PUSH1 0xE0 ADD PUSH1 0x40 MSTORE SWAP1 DUP2 PUSH1 0x0 DUP3 ADD PUSH1 0x0 SWAP1 SLOAD SWAP1 PUSH2 0x100 EXP SWAP1 DIV PUSH20 0xFFFFFFFFFFFFFFFFFFFFFFFFFFFFFFFFFFFFFFFF AND PUSH20 0xFFFFFFFFFFFFFFFFFFFFFFFFFFFFFFFFFFFFFFFF AND PUSH20 0xFFFFFFFFFFFFFFFFFFFFFFFFFFFFFFFFFFFFFFFF AND DUP2 MSTORE PUSH1 0x20 ADD PUSH1 0x1 DUP3 ADD SLOAD DUP2 MSTORE PUSH1 0x20 ADD PUSH1 0x2 DUP3 ADD SLOAD DUP2 MSTORE PUSH1 0x20 ADD PUSH1 0x3 DUP3 ADD PUSH1 0x0 SWAP1 SLOAD SWAP1 PUSH2 0x100 EXP SWAP1 DIV PUSH1 0xFF AND PUSH1 0x1 DUP2 GT ISZERO PUSH2 0x6A3 JUMPI PUSH2 0x6A2 PUSH2 0x2207 JUMP JUMPDEST JUMPDEST PUSH1 0x1 DUP2 GT ISZERO PUSH2 0x6B5 JUMPI PUSH2 0x6B4 PUSH2 0x2207 JUMP JUMPDEST JUMPDEST DUP2 MSTORE PUSH1 0x20 ADD PUSH1 0x4 DUP3 ADD SLOAD DUP2 MSTORE PUSH1 0x20 ADD PUSH1 0x5 DUP3 ADD SLOAD DUP2 MSTORE PUSH1 0x20 ADD PUSH1 0x6 DUP3 ADD SLOAD DUP2 MSTORE POP POP PUSH1 0x0 PUSH1 0x1 DUP2 GT ISZERO PUSH2 0x6EB JUMPI PUSH2 0x6EA PUSH2 0x2207 JUMP JUMPDEST JUMPDEST DUP2 PUSH1 0x60 ADD MLOAD PUSH1 0x1 DUP2 GT ISZERO PUSH2 0x702 JUMPI PUSH2 0x701 PUSH2 0x2207 JUMP JUMPDEST JUMPDEST EQ PUSH2 0x742 JUMPI PUSH1 0x40 MLOAD PUSH32 0x8C379A000000000000000000000000000000000000000000000000000000000 DUP2 MSTORE PUSH1 0x4 ADD PUSH2 0x739 SWAP1 PUSH2 0x1DC5 JUMP JUMPDEST PUSH1 0x40 MLOAD DUP1 SWAP2 SUB SWAP1 REVERT JUMPDEST PUSH1 0x6 PUSH1 0x0 DUP4 DUP2 MSTORE PUSH1 0x20 ADD SWAP1 DUP2 MSTORE PUSH1 0x20 ADD PUSH1 0x0 KECCAK256 PUSH1 0x40 MLOAD DUP1 PUSH1 0xE0 ADD PUSH1 0x40 MSTORE SWAP1 DUP2 PUSH1 0x0 DUP3 ADD PUSH1 0x0 SWAP1 SLOAD SWAP1 PUSH2 0x100 EXP SWAP1 DIV PUSH20 0xFFFFFFFFFFFFFFFFFFFFFFFFFFFFFFFFFFFFFFFF AND PUSH20 0xFFFFFFFFFFFFFFFFFFFFFFFFFFFFFFFFFFFFFFFF AND PUSH20 0xFFFFFFFFFFFFFFFFFFFFFFFFFFFFFFFFFFFFFFFF AND DUP2 MSTORE PUSH1 0x20 ADD PUSH1 0x1 DUP3 ADD SLOAD DUP2 MSTORE PUSH1 0x20 ADD PUSH1 0x2 DUP3 ADD SLOAD DUP2 MSTORE PUSH1 0x20 ADD PUSH1 0x3 DUP3 ADD PUSH1 0x0 SWAP1 SLOAD SWAP1 PUSH2 0x100 EXP SWAP1 DIV PUSH1 0xFF AND PUSH1 0x1 DUP2 GT ISZERO PUSH2 0x7EF JUMPI PUSH2 0x7EE PUSH2 0x2207 JUMP JUMPDEST JUMPDEST PUSH1 0x1 DUP2 GT ISZERO PUSH2 0x801 JUMPI PUSH2 0x800 PUSH2 0x2207 JUMP JUMPDEST JUMPDEST DUP2 MSTORE PUSH1 0x20 ADD PUSH1 0x4 DUP3 ADD SLOAD DUP2 MSTORE PUSH1 0x20 ADD PUSH1 0x5 DUP3 ADD SLOAD DUP2 MSTORE PUSH1 0x20 ADD PUSH1 0x6 DUP3 ADD SLOAD DUP2 MSTORE POP POP CALLER DUP1 PUSH20 0xFFFFFFFFFFFFFFFFFFFFFFFFFFFFFFFFFFFFFFFF AND DUP3 PUSH1 0x0 ADD MLOAD PUSH20 0xFFFFFFFFFFFFFFFFFFFFFFFFFFFFFFFFFFFFFFFF AND EQ PUSH2 0x896 JUMPI PUSH1 0x40 MLOAD PUSH32 0x8C379A000000000000000000000000000000000000000000000000000000000 DUP2 MSTORE PUSH1 0x4 ADD PUSH2 0x88D SWAP1 PUSH2 0x1DA5 JUMP JUMPDEST PUSH1 0x40 MLOAD DUP1 SWAP2 SUB SWAP1 REVERT JUMPDEST POP POP POP POP JUMP JUMPDEST PUSH1 0x60 DUP3 DUP3 PUSH1 0x40 MLOAD PUSH1 0x20 ADD PUSH2 0x8B1 SWAP3 SWAP2 SWAP1 PUSH2 0x1C0F JUMP JUMPDEST PUSH1 0x40 MLOAD PUSH1 0x20 DUP2 DUP4 SUB SUB DUP2 MSTORE SWAP1 PUSH1 0x40 MSTORE SWAP1 POP SWAP3 SWAP2 POP POP JUMP JUMPDEST PUSH1 0x0 PUSH1 0x3 PUSH1 0x0 DUP4 DUP2 MSTORE PUSH1 0x20 ADD SWAP1 DUP2 MSTORE PUSH1 0x20 ADD PUSH1 0x0 KECCAK256 PUSH1 0x1 ADD SLOAD SWAP1 POP SWAP2 SWAP1 POP JUMP JUMPDEST PUSH1 0x60 PUSH1 0x0 PUSH1 0x7 SLOAD SWAP1 POP PUSH1 0x0 PUSH1 0x40 MLOAD DUP1 PUSH1 0x20 ADD PUSH1 0x40 MSTORE DUP1 PUSH1 0x0 DUP2 MSTORE POP SWAP1 POP JUMPDEST PUSH1 0x0 DUP3 EQ PUSH2 0x94C JUMPI PUSH1 0x0 PUSH1 0x6 PUSH1 0x0 DUP5 DUP2 MSTORE PUSH1 0x20 ADD SWAP1 DUP2 MSTORE PUSH1 0x20 ADD PUSH1 0x0 KECCAK256 PUSH1 0x5 ADD SLOAD SWAP1 POP PUSH1 0x0 PUSH2 0x934 DUP5 PUSH2 0xFE2 JUMP JUMPDEST SWAP1 POP PUSH2 0x940 DUP4 DUP3 PUSH2 0x89C JUMP JUMPDEST SWAP3 POP DUP2 SWAP4 POP POP POP PUSH2 0x906 JUMP JUMPDEST DUP1 SWAP3 POP POP POP SWAP1 JUMP JUMPDEST PUSH1 0x0 PUSH1 0x6 PUSH1 0x0 DUP4 DUP2 MSTORE PUSH1 0x20 ADD SWAP1 DUP2 MSTORE PUSH1 0x20 ADD PUSH1 0x0 KECCAK256 PUSH1 0x3 ADD PUSH1 0x0 SWAP1 SLOAD SWAP1 PUSH2 0x100 EXP SWAP1 DIV PUSH1 0xFF AND SWAP1 POP SWAP2 SWAP1 POP JUMP JUMPDEST PUSH1 0x0 PUSH1 0x3 PUSH1 0x0 DUP4 DUP2 MSTORE PUSH1 0x20 ADD SWAP1 DUP2 MSTORE PUSH1 0x20 ADD PUSH1 0x0 KECCAK256 PUSH1 0x0 ADD PUSH1 0x0 SWAP1 SLOAD SWAP1 PUSH2 0x100 EXP SWAP1 DIV PUSH20 0xFFFFFFFFFFFFFFFFFFFFFFFFFFFFFFFFFFFFFFFF AND SWAP1 POP SWAP2 SWAP1 POP JUMP JUMPDEST PUSH1 0x4 SLOAD DUP2 JUMP JUMPDEST PUSH1 0x0 PUSH1 0x6 PUSH1 0x0 DUP4 DUP2 MSTORE PUSH1 0x20 ADD SWAP1 DUP2 MSTORE PUSH1 0x20 ADD PUSH1 0x0 KECCAK256 PUSH1 0x5 ADD SLOAD SWAP1 POP SWAP2 SWAP1 POP JUMP JUMPDEST PUSH1 0x0 PUSH1 0x6 PUSH1 0x0 DUP4 DUP2 MSTORE PUSH1 0x20 ADD SWAP1 DUP2 MSTORE PUSH1 0x20 ADD PUSH1 0x0 KECCAK256 PUSH1 0x0 ADD PUSH1 0x0 SWAP1 SLOAD SWAP1 PUSH2 0x100 EXP SWAP1 DIV PUSH20 0xFFFFFFFFFFFFFFFFFFFFFFFFFFFFFFFFFFFFFFFF AND SWAP1 POP SWAP2 SWAP1 POP JUMP JUMPDEST PUSH1 0x0 DUP2 LT ISZERO PUSH2 0xA6B JUMPI PUSH1 0x40 MLOAD PUSH32 0x8C379A000000000000000000000000000000000000000000000000000000000 DUP2 MSTORE PUSH1 0x4 ADD PUSH2 0xA62 SWAP1 PUSH2 0x1E05 JUMP JUMPDEST PUSH1 0x40 MLOAD DUP1 SWAP2 SUB SWAP1 REVERT JUMPDEST DUP1 CALLVALUE LT ISZERO PUSH2 0xAAE JUMPI PUSH1 0x40 MLOAD PUSH32 0x8C379A000000000000000000000000000000000000000000000000000000000 DUP2 MSTORE PUSH1 0x4 ADD PUSH2 0xAA5 SWAP1 PUSH2 0x1E25 JUMP JUMPDEST PUSH1 0x40 MLOAD DUP1 SWAP2 SUB SWAP1 REVERT JUMPDEST PUSH1 0x0 TIMESTAMP SWAP1 POP PUSH1 0x0 PUSH1 0x64 PUSH1 0x2 SLOAD PUSH1 0x64 PUSH2 0xAC6 SWAP2 SWAP1 PUSH2 0x1FF7 JUMP JUMPDEST CALLVALUE PUSH2 0xAD1 SWAP2 SWAP1 PUSH2 0x1F9D JUMP JUMPDEST PUSH2 0xADB SWAP2 SWAP1 PUSH2 0x1F6C JUMP JUMPDEST SWAP1 POP PUSH1 0x0 PUSH2 0xAEA CALLER DUP4 DUP6 PUSH2 0x1143 JUMP JUMPDEST SWAP1 POP PUSH2 0xAF5 DUP2 PUSH2 0x12DB JUMP JUMPDEST PUSH1 0x1 PUSH1 0x0 SWAP1 SLOAD SWAP1 PUSH2 0x100 EXP SWAP1 DIV PUSH20 0xFFFFFFFFFFFFFFFFFFFFFFFFFFFFFFFFFFFFFFFF AND PUSH20 0xFFFFFFFFFFFFFFFFFFFFFFFFFFFFFFFFFFFFFFFF AND PUSH2 0x8FC DUP4 SWAP1 DUP2 ISZERO MUL SWAP1 PUSH1 0x40 MLOAD PUSH1 0x0 PUSH1 0x40 MLOAD DUP1 DUP4 SUB DUP2 DUP6 DUP9 DUP9 CALL SWAP4 POP POP POP POP ISZERO DUP1 ISZERO PUSH2 0xB5D JUMPI RETURNDATASIZE PUSH1 0x0 DUP1 RETURNDATACOPY RETURNDATASIZE PUSH1 0x0 REVERT JUMPDEST POP POP POP POP POP JUMP JUMPDEST PUSH1 0x7 SLOAD DUP2 JUMP JUMPDEST PUSH1 0x3 PUSH1 0x0 DUP3 DUP2 MSTORE PUSH1 0x20 ADD SWAP1 DUP2 MSTORE PUSH1 0x20 ADD PUSH1 0x0 KECCAK256 PUSH1 0x40 MLOAD DUP1 PUSH1 0xE0 ADD PUSH1 0x40 MSTORE SWAP1 DUP2 PUSH1 0x0 DUP3 ADD PUSH1 0x0 SWAP1 SLOAD SWAP1 PUSH2 0x100 EXP SWAP1 DIV PUSH20 0xFFFFFFFFFFFFFFFFFFFFFFFFFFFFFFFFFFFFFFFF AND PUSH20 0xFFFFFFFFFFFFFFFFFFFFFFFFFFFFFFFFFFFFFFFF AND PUSH20 0xFFFFFFFFFFFFFFFFFFFFFFFFFFFFFFFFFFFFFFFF AND DUP2 MSTORE PUSH1 0x20 ADD PUSH1 0x1 DUP3 ADD SLOAD DUP2 MSTORE PUSH1 0x20 ADD PUSH1 0x2 DUP3 ADD SLOAD DUP2 MSTORE PUSH1 0x20 ADD PUSH1 0x3 DUP3 ADD PUSH1 0x0 SWAP1 SLOAD SWAP1 PUSH2 0x100 EXP SWAP1 DIV PUSH1 0xFF AND PUSH1 0x1 DUP2 GT ISZERO PUSH2 0xC17 JUMPI PUSH2 0xC16 PUSH2 0x2207 JUMP JUMPDEST JUMPDEST PUSH1 0x1 DUP2 GT ISZERO PUSH2 0xC29 JUMPI PUSH2 0xC28 PUSH2 0x2207 JUMP JUMPDEST JUMPDEST DUP2 MSTORE PUSH1 0x20 ADD PUSH1 0x4 DUP3 ADD SLOAD DUP2 MSTORE PUSH1 0x20 ADD PUSH1 0x5 DUP3 ADD SLOAD DUP2 MSTORE PUSH1 0x20 ADD PUSH1 0x6 DUP3 ADD SLOAD DUP2 MSTORE POP POP PUSH1 0x0 PUSH1 0x1 DUP2 GT ISZERO PUSH2 0xC5F JUMPI PUSH2 0xC5E PUSH2 0x2207 JUMP JUMPDEST JUMPDEST DUP2 PUSH1 0x60 ADD MLOAD PUSH1 0x1 DUP2 GT ISZERO PUSH2 0xC76 JUMPI PUSH2 0xC75 PUSH2 0x2207 JUMP JUMPDEST JUMPDEST EQ PUSH2 0xCB6 JUMPI PUSH1 0x40 MLOAD PUSH32 0x8C379A000000000000000000000000000000000000000000000000000000000 DUP2 MSTORE PUSH1 0x4 ADD PUSH2 0xCAD SWAP1 PUSH2 0x1DC5 JUMP JUMPDEST PUSH1 0x40 MLOAD DUP1 SWAP2 SUB SWAP1 REVERT JUMPDEST PUSH1 0x3 PUSH1 0x0 DUP4 DUP2 MSTORE PUSH1 0x20 ADD SWAP1 DUP2 MSTORE PUSH1 0x20 ADD PUSH1 0x0 KECCAK256 PUSH1 0x40 MLOAD DUP1 PUSH1 0xE0 ADD PUSH1 0x40 MSTORE SWAP1 DUP2 PUSH1 0x0 DUP3 ADD PUSH1 0x0 SWAP1 SLOAD SWAP1 PUSH2 0x100 EXP SWAP1 DIV PUSH20 0xFFFFFFFFFFFFFFFFFFFFFFFFFFFFFFFFFFFFFFFF AND PUSH20 0xFFFFFFFFFFFFFFFFFFFFFFFFFFFFFFFFFFFFFFFF AND PUSH20 0xFFFFFFFFFFFFFFFFFFFFFFFFFFFFFFFFFFFFFFFF AND DUP2 MSTORE PUSH1 0x20 ADD PUSH1 0x1 DUP3 ADD SLOAD DUP2 MSTORE PUSH1 0x20 ADD PUSH1 0x2 DUP3 ADD SLOAD DUP2 MSTORE PUSH1 0x20 ADD PUSH1 0x3 DUP3 ADD PUSH1 0x0 SWAP1 SLOAD SWAP1 PUSH2 0x100 EXP SWAP1 DIV PUSH1 0xFF AND PUSH1 0x1 DUP2 GT ISZERO PUSH2 0xD63 JUMPI PUSH2 0xD62 PUSH2 0x2207 JUMP JUMPDEST JUMPDEST PUSH1 0x1 DUP2 GT ISZERO PUSH2 0xD75 JUMPI PUSH2 0xD74 PUSH2 0x2207 JUMP JUMPDEST JUMPDEST DUP2 MSTORE PUSH1 0x20 ADD PUSH1 0x4 DUP3 ADD SLOAD DUP2 MSTORE PUSH1 0x20 ADD PUSH1 0x5 DUP3 ADD SLOAD DUP2 MSTORE PUSH1 0x20 ADD PUSH1 0x6 DUP3 ADD SLOAD DUP2 MSTORE POP POP CALLER DUP1 PUSH20 0xFFFFFFFFFFFFFFFFFFFFFFFFFFFFFFFFFFFFFFFF AND DUP3 PUSH1 0x0 ADD MLOAD PUSH20 0xFFFFFFFFFFFFFFFFFFFFFFFFFFFFFFFFFFFFFFFF AND EQ PUSH2 0xE0A JUMPI PUSH1 0x40 MLOAD PUSH32 0x8C379A000000000000000000000000000000000000000000000000000000000 DUP2 MSTORE PUSH1 0x4 ADD PUSH2 0xE01 SWAP1 PUSH2 0x1DA5 JUMP JUMPDEST PUSH1 0x40 MLOAD DUP1 SWAP2 SUB SWAP1 REVERT JUMPDEST POP POP POP POP JUMP JUMPDEST PUSH1 0x0 DUP2 LT ISZERO PUSH2 0xE54 JUMPI PUSH1 0x40 MLOAD PUSH32 0x8C379A000000000000000000000000000000000000000000000000000000000 DUP2 MSTORE PUSH1 0x4 ADD PUSH2 0xE4B SWAP1 PUSH2 0x1E05 JUMP JUMPDEST PUSH1 0x40 MLOAD DUP1 SWAP2 SUB SWAP1 REVERT JUMPDEST DUP1 CALLVALUE LT ISZERO PUSH2 0xE97 JUMPI PUSH1 0x40 MLOAD PUSH32 0x8C379A000000000000000000000000000000000000000000000000000000000 DUP2 MSTORE PUSH1 0x4 ADD PUSH2 0xE8E SWAP1 PUSH2 0x1DE5 JUMP JUMPDEST PUSH1 0x40 MLOAD DUP1 SWAP2 SUB SWAP1 REVERT JUMPDEST PUSH1 0x0 TIMESTAMP SWAP1 POP PUSH1 0x0 PUSH1 0x64 PUSH1 0x2 SLOAD PUSH1 0x64 PUSH2 0xEAF SWAP2 SWAP1 PUSH2 0x1FF7 JUMP JUMPDEST CALLVALUE PUSH2 0xEBA SWAP2 SWAP1 PUSH2 0x1F9D JUMP JUMPDEST PUSH2 0xEC4 SWAP2 SWAP1 PUSH2 0x1F6C JUMP JUMPDEST SWAP1 POP PUSH1 0x0 PUSH2 0xED3 CALLER DUP4 DUP6 PUSH2 0x14D4 JUMP JUMPDEST SWAP1 POP PUSH2 0xEDE DUP2 PUSH2 0x166C JUMP JUMPDEST PUSH1 0x1 PUSH1 0x0 SWAP1 SLOAD SWAP1 PUSH2 0x100 EXP SWAP1 DIV PUSH20 0xFFFFFFFFFFFFFFFFFFFFFFFFFFFFFFFFFFFFFFFF AND PUSH20 0xFFFFFFFFFFFFFFFFFFFFFFFFFFFFFFFFFFFFFFFF AND PUSH2 0x8FC DUP4 SWAP1 DUP2 ISZERO MUL SWAP1 PUSH1 0x40 MLOAD PUSH1 0x0 PUSH1 0x40 MLOAD DUP1 DUP4 SUB DUP2 DUP6 DUP9 DUP9 CALL SWAP4 POP POP POP POP ISZERO DUP1 ISZERO PUSH2 0xF46 JUMPI RETURNDATASIZE PUSH1 0x0 DUP1 RETURNDATACOPY RETURNDATASIZE PUSH1 0x0 REVERT JUMPDEST POP POP POP POP POP JUMP JUMPDEST PUSH1 0x8 SLOAD DUP2 JUMP JUMPDEST PUSH1 0x5 SLOAD DUP2 JUMP JUMPDEST PUSH1 0x0 PUSH1 0x3 PUSH1 0x0 DUP4 DUP2 MSTORE PUSH1 0x20 ADD SWAP1 DUP2 MSTORE PUSH1 0x20 ADD PUSH1 0x0 KECCAK256 PUSH1 0x3 ADD PUSH1 0x0 SWAP1 SLOAD SWAP1 PUSH2 0x100 EXP SWAP1 DIV PUSH1 0xFF AND SWAP1 POP SWAP2 SWAP1 POP JUMP JUMPDEST PUSH1 0x60 SWAP1 JUMP JUMPDEST PUSH1 0x0 PUSH1 0x6 PUSH1 0x0 DUP4 DUP2 MSTORE PUSH1 0x20 ADD SWAP1 DUP2 MSTORE PUSH1 0x20 ADD PUSH1 0x0 KECCAK256 PUSH1 0x6 ADD SLOAD SWAP1 POP SWAP2 SWAP1 POP JUMP JUMPDEST PUSH1 0x0 DUP1 PUSH1 0x0 DUP1 PUSH1 0x0 DUP1 PUSH1 0x0 DUP1 SWAP2 SWAP4 SWAP6 SWAP8 POP SWAP2 SWAP4 SWAP6 SWAP8 JUMP JUMPDEST PUSH1 0x0 PUSH1 0x6 PUSH1 0x0 DUP4 DUP2 MSTORE PUSH1 0x20 ADD SWAP1 DUP2 MSTORE PUSH1 0x20 ADD PUSH1 0x0 KECCAK256 PUSH1 0x1 ADD SLOAD SWAP1 POP SWAP2 SWAP1 POP JUMP JUMPDEST PUSH1 0x60 PUSH1 0x0 DUP3 EQ ISZERO PUSH2 0x102A JUMPI PUSH1 0x40 MLOAD DUP1 PUSH1 0x40 ADD PUSH1 0x40 MSTORE DUP1 PUSH1 0x1 DUP2 MSTORE PUSH1 0x20 ADD PUSH32 0x3000000000000000000000000000000000000000000000000000000000000000 DUP2 MSTORE POP SWAP1 POP PUSH2 0x113E JUMP JUMPDEST PUSH1 0x0 DUP3 SWAP1 POP PUSH1 0x0 JUMPDEST PUSH1 0x0 DUP3 EQ PUSH2 0x105C JUMPI DUP1 DUP1 PUSH2 0x1045 SWAP1 PUSH2 0x212F JUMP JUMPDEST SWAP2 POP POP PUSH1 0xA DUP3 PUSH2 0x1055 SWAP2 SWAP1 PUSH2 0x1F6C JUMP JUMPDEST SWAP2 POP PUSH2 0x1032 JUMP JUMPDEST PUSH1 0x0 DUP2 PUSH8 0xFFFFFFFFFFFFFFFF DUP2 GT ISZERO PUSH2 0x1078 JUMPI PUSH2 0x1077 PUSH2 0x2265 JUMP JUMPDEST JUMPDEST PUSH1 0x40 MLOAD SWAP1 DUP1 DUP3 MSTORE DUP1 PUSH1 0x1F ADD PUSH1 0x1F NOT AND PUSH1 0x20 ADD DUP3 ADD PUSH1 0x40 MSTORE DUP1 ISZERO PUSH2 0x10AA JUMPI DUP2 PUSH1 0x20 ADD PUSH1 0x1 DUP3 MUL DUP1 CALLDATASIZE DUP4 CALLDATACOPY DUP1 DUP3 ADD SWAP2 POP POP SWAP1 POP JUMPDEST POP SWAP1 POP JUMPDEST PUSH1 0x0 DUP6 EQ PUSH2 0x1137 JUMPI PUSH1 0x1 DUP3 PUSH2 0x10C3 SWAP2 SWAP1 PUSH2 0x1FF7 JUMP JUMPDEST SWAP2 POP PUSH1 0xA DUP6 PUSH2 0x10D2 SWAP2 SWAP1 PUSH2 0x2178 JUMP JUMPDEST PUSH1 0x30 PUSH2 0x10DE SWAP2 SWAP1 PUSH2 0x1F16 JUMP JUMPDEST PUSH1 0xF8 SHL DUP2 DUP4 DUP2 MLOAD DUP2 LT PUSH2 0x10F4 JUMPI PUSH2 0x10F3 PUSH2 0x2236 JUMP JUMPDEST JUMPDEST PUSH1 0x20 ADD ADD SWAP1 PUSH31 0xFFFFFFFFFFFFFFFFFFFFFFFFFFFFFFFFFFFFFFFFFFFFFFFFFFFFFFFFFFFFFF NOT AND SWAP1 DUP2 PUSH1 0x0 BYTE SWAP1 MSTORE8 POP PUSH1 0xA DUP6 PUSH2 0x1130 SWAP2 SWAP1 PUSH2 0x1F6C JUMP JUMPDEST SWAP5 POP PUSH2 0x10AE JUMP JUMPDEST DUP1 SWAP4 POP POP POP POP JUMPDEST SWAP2 SWAP1 POP JUMP JUMPDEST PUSH2 0x114B PUSH2 0x1865 JUMP JUMPDEST PUSH1 0x8 PUSH1 0x0 DUP2 SLOAD DUP1 SWAP3 SWAP2 SWAP1 PUSH2 0x115E SWAP1 PUSH2 0x212F JUMP JUMPDEST SWAP2 SWAP1 POP SSTORE POP PUSH1 0x0 PUSH1 0x40 MLOAD DUP1 PUSH1 0xE0 ADD PUSH1 0x40 MSTORE DUP1 DUP7 PUSH20 0xFFFFFFFFFFFFFFFFFFFFFFFFFFFFFFFFFFFFFFFF AND DUP2 MSTORE PUSH1 0x20 ADD DUP6 DUP2 MSTORE PUSH1 0x20 ADD DUP5 DUP2 MSTORE PUSH1 0x20 ADD PUSH1 0x0 PUSH1 0x1 DUP2 GT ISZERO PUSH2 0x11AC JUMPI PUSH2 0x11AB PUSH2 0x2207 JUMP JUMPDEST JUMPDEST DUP2 MSTORE PUSH1 0x20 ADD PUSH1 0x8 SLOAD DUP2 MSTORE PUSH1 0x20 ADD PUSH1 0x0 DUP2 MSTORE PUSH1 0x20 ADD PUSH1 0x0 DUP2 MSTORE POP SWAP1 POP DUP1 PUSH1 0x6 PUSH1 0x0 PUSH1 0x8 SLOAD DUP2 MSTORE PUSH1 0x20 ADD SWAP1 DUP2 MSTORE PUSH1 0x20 ADD PUSH1 0x0 KECCAK256 PUSH1 0x0 DUP3 ADD MLOAD DUP2 PUSH1 0x0 ADD PUSH1 0x0 PUSH2 0x100 EXP DUP2 SLOAD DUP2 PUSH20 0xFFFFFFFFFFFFFFFFFFFFFFFFFFFFFFFFFFFFFFFF MUL NOT AND SWAP1 DUP4 PUSH20 0xFFFFFFFFFFFFFFFFFFFFFFFFFFFFFFFFFFFFFFFF AND MUL OR SWAP1 SSTORE POP PUSH1 0x20 DUP3 ADD MLOAD DUP2 PUSH1 0x1 ADD SSTORE PUSH1 0x40 DUP3 ADD MLOAD DUP2 PUSH1 0x2 ADD SSTORE PUSH1 0x60 DUP3 ADD MLOAD DUP2 PUSH1 0x3 ADD PUSH1 0x0 PUSH2 0x100 EXP DUP2 SLOAD DUP2 PUSH1 0xFF MUL NOT AND SWAP1 DUP4 PUSH1 0x1 DUP2 GT ISZERO PUSH2 0x1263 JUMPI PUSH2 0x1262 PUSH2 0x2207 JUMP JUMPDEST JUMPDEST MUL OR SWAP1 SSTORE POP PUSH1 0x80 DUP3 ADD MLOAD DUP2 PUSH1 0x4 ADD SSTORE PUSH1 0xA0 DUP3 ADD MLOAD DUP2 PUSH1 0x5 ADD SSTORE PUSH1 0xC0 DUP3 ADD MLOAD DUP2 PUSH1 0x6 ADD SSTORE SWAP1 POP POP PUSH32 0xB363D8961E2DCC4E4F9CAFAC06E22FFE5A3EE9B47F614E483F989B932167E865 DUP6 DUP6 DUP6 PUSH1 0x0 PUSH1 0x8 SLOAD PUSH1 0x0 DUP1 PUSH1 0x40 MLOAD PUSH2 0x12C8 SWAP8 SWAP7 SWAP6 SWAP5 SWAP4 SWAP3 SWAP2 SWAP1 PUSH2 0x1CD7 JUMP JUMPDEST PUSH1 0x40 MLOAD DUP1 SWAP2 SUB SWAP1 LOG1 DUP1 SWAP2 POP POP SWAP4 SWAP3 POP POP POP JUMP JUMPDEST PUSH1 0x0 DUP1 PUSH1 0x7 SLOAD EQ ISZERO PUSH2 0x12F7 JUMPI DUP2 PUSH1 0x80 ADD MLOAD PUSH1 0x7 DUP2 SWAP1 SSTORE POP PUSH2 0x14D0 JUMP JUMPDEST DUP2 PUSH1 0x20 ADD MLOAD PUSH1 0x6 PUSH1 0x0 PUSH1 0x7 SLOAD DUP2 MSTORE PUSH1 0x20 ADD SWAP1 DUP2 MSTORE PUSH1 0x20 ADD PUSH1 0x0 KECCAK256 PUSH1 0x1 ADD SLOAD LT PUSH2 0x1384 JUMPI PUSH1 0x7 SLOAD PUSH1 0x6 PUSH1 0x0 DUP5 PUSH1 0x80 ADD MLOAD DUP2 MSTORE PUSH1 0x20 ADD SWAP1 DUP2 MSTORE PUSH1 0x20 ADD PUSH1 0x0 KECCAK256 PUSH1 0x5 ADD DUP2 SWAP1 SSTORE POP DUP2 PUSH1 0x80 ADD MLOAD PUSH1 0x6 PUSH1 0x0 PUSH1 0x6 PUSH1 0x0 DUP7 PUSH1 0x80 ADD MLOAD DUP2 MSTORE PUSH1 0x20 ADD SWAP1 DUP2 MSTORE PUSH1 0x20 ADD PUSH1 0x0 KECCAK256 PUSH1 0x5 ADD SLOAD DUP2 MSTORE PUSH1 0x20 ADD SWAP1 DUP2 MSTORE PUSH1 0x20 ADD PUSH1 0x0 KECCAK256 PUSH1 0x6 ADD DUP2 SWAP1 SSTORE POP DUP2 PUSH1 0x80 ADD MLOAD PUSH1 0x7 DUP2 SWAP1 SSTORE POP PUSH2 0x14CF JUMP JUMPDEST PUSH1 0x7 SLOAD SWAP1 POP JUMPDEST PUSH1 0x0 PUSH1 0x6 PUSH1 0x0 DUP4 DUP2 MSTORE PUSH1 0x20 ADD SWAP1 DUP2 MSTORE PUSH1 0x20 ADD PUSH1 0x0 KECCAK256 PUSH1 0x5 ADD SLOAD EQ ISZERO DUP1 ISZERO PUSH2 0x13E0 JUMPI POP DUP2 PUSH1 0x20 ADD MLOAD PUSH1 0x6 PUSH1 0x0 PUSH1 0x6 PUSH1 0x0 DUP6 DUP2 MSTORE PUSH1 0x20 ADD SWAP1 DUP2 MSTORE PUSH1 0x20 ADD PUSH1 0x0 KECCAK256 PUSH1 0x5 ADD SLOAD DUP2 MSTORE PUSH1 0x20 ADD SWAP1 DUP2 MSTORE PUSH1 0x20 ADD PUSH1 0x0 KECCAK256 PUSH1 0x1 ADD SLOAD LT JUMPDEST ISZERO PUSH2 0x1403 JUMPI PUSH1 0x6 PUSH1 0x0 DUP3 DUP2 MSTORE PUSH1 0x20 ADD SWAP1 DUP2 MSTORE PUSH1 0x20 ADD PUSH1 0x0 KECCAK256 PUSH1 0x5 ADD SLOAD SWAP1 POP PUSH2 0x138A JUMP JUMPDEST PUSH1 0x6 PUSH1 0x0 DUP3 DUP2 MSTORE PUSH1 0x20 ADD SWAP1 DUP2 MSTORE PUSH1 0x20 ADD PUSH1 0x0 KECCAK256 PUSH1 0x5 ADD SLOAD PUSH1 0x6 PUSH1 0x0 DUP5 PUSH1 0x80 ADD MLOAD DUP2 MSTORE PUSH1 0x20 ADD SWAP1 DUP2 MSTORE PUSH1 0x20 ADD PUSH1 0x0 KECCAK256 PUSH1 0x5 ADD DUP2 SWAP1 SSTORE POP PUSH1 0x0 PUSH1 0x6 PUSH1 0x0 DUP4 DUP2 MSTORE PUSH1 0x20 ADD SWAP1 DUP2 MSTORE PUSH1 0x20 ADD PUSH1 0x0 KECCAK256 PUSH1 0x5 ADD SLOAD EQ PUSH2 0x1490 JUMPI DUP2 PUSH1 0x80 ADD MLOAD PUSH1 0x6 PUSH1 0x0 PUSH1 0x6 PUSH1 0x0 DUP7 PUSH1 0x80 ADD MLOAD DUP2 MSTORE PUSH1 0x20 ADD SWAP1 DUP2 MSTORE PUSH1 0x20 ADD PUSH1 0x0 KECCAK256 PUSH1 0x5 ADD SLOAD DUP2 MSTORE PUSH1 0x20 ADD SWAP1 DUP2 MSTORE PUSH1 0x20 ADD PUSH1 0x0 KECCAK256 PUSH1 0x6 ADD DUP2 SWAP1 SSTORE POP JUMPDEST DUP2 PUSH1 0x80 ADD MLOAD PUSH1 0x6 PUSH1 0x0 DUP4 DUP2 MSTORE PUSH1 0x20 ADD SWAP1 DUP2 MSTORE PUSH1 0x20 ADD PUSH1 0x0 KECCAK256 PUSH1 0x5 ADD DUP2 SWAP1 SSTORE POP DUP1 PUSH1 0x6 PUSH1 0x0 DUP5 PUSH1 0x80 ADD MLOAD DUP2 MSTORE PUSH1 0x20 ADD SWAP1 DUP2 MSTORE PUSH1 0x20 ADD PUSH1 0x0 KECCAK256 PUSH1 0x6 ADD DUP2 SWAP1 SSTORE POP JUMPDEST JUMPDEST POP POP JUMP JUMPDEST PUSH2 0x14DC PUSH2 0x1865 JUMP JUMPDEST PUSH1 0x5 PUSH1 0x0 DUP2 SLOAD DUP1 SWAP3 SWAP2 SWAP1 PUSH2 0x14EF SWAP1 PUSH2 0x212F JUMP JUMPDEST SWAP2 SWAP1 POP SSTORE POP PUSH1 0x0 PUSH1 0x40 MLOAD DUP1 PUSH1 0xE0 ADD PUSH1 0x40 MSTORE DUP1 DUP7 PUSH20 0xFFFFFFFFFFFFFFFFFFFFFFFFFFFFFFFFFFFFFFFF AND DUP2 MSTORE PUSH1 0x20 ADD DUP6 DUP2 MSTORE PUSH1 0x20 ADD DUP5 DUP2 MSTORE PUSH1 0x20 ADD PUSH1 0x0 PUSH1 0x1 DUP2 GT ISZERO PUSH2 0x153D JUMPI PUSH2 0x153C PUSH2 0x2207 JUMP JUMPDEST JUMPDEST DUP2 MSTORE PUSH1 0x20 ADD PUSH1 0x5 SLOAD DUP2 MSTORE PUSH1 0x20 ADD PUSH1 0x0 DUP2 MSTORE PUSH1 0x20 ADD PUSH1 0x0 DUP2 MSTORE POP SWAP1 POP DUP1 PUSH1 0x3 PUSH1 0x0 PUSH1 0x5 SLOAD DUP2 MSTORE PUSH1 0x20 ADD SWAP1 DUP2 MSTORE PUSH1 0x20 ADD PUSH1 0x0 KECCAK256 PUSH1 0x0 DUP3 ADD MLOAD DUP2 PUSH1 0x0 ADD PUSH1 0x0 PUSH2 0x100 EXP DUP2 SLOAD DUP2 PUSH20 0xFFFFFFFFFFFFFFFFFFFFFFFFFFFFFFFFFFFFFFFF MUL NOT AND SWAP1 DUP4 PUSH20 0xFFFFFFFFFFFFFFFFFFFFFFFFFFFFFFFFFFFFFFFF AND MUL OR SWAP1 SSTORE POP PUSH1 0x20 DUP3 ADD MLOAD DUP2 PUSH1 0x1 ADD SSTORE PUSH1 0x40 DUP3 ADD MLOAD DUP2 PUSH1 0x2 ADD SSTORE PUSH1 0x60 DUP3 ADD MLOAD DUP2 PUSH1 0x3 ADD PUSH1 0x0 PUSH2 0x100 EXP DUP2 SLOAD DUP2 PUSH1 0xFF MUL NOT AND SWAP1 DUP4 PUSH1 0x1 DUP2 GT ISZERO PUSH2 0x15F4 JUMPI PUSH2 0x15F3 PUSH2 0x2207 JUMP JUMPDEST JUMPDEST MUL OR SWAP1 SSTORE POP PUSH1 0x80 DUP3 ADD MLOAD DUP2 PUSH1 0x4 ADD SSTORE PUSH1 0xA0 DUP3 ADD MLOAD DUP2 PUSH1 0x5 ADD SSTORE PUSH1 0xC0 DUP3 ADD MLOAD DUP2 PUSH1 0x6 ADD SSTORE SWAP1 POP POP PUSH32 0xB363D8961E2DCC4E4F9CAFAC06E22FFE5A3EE9B47F614E483F989B932167E865 DUP6 DUP6 DUP6 PUSH1 0x0 PUSH1 0x5 SLOAD PUSH1 0x0 DUP1 PUSH1 0x40 MLOAD PUSH2 0x1659 SWAP8 SWAP7 SWAP6 SWAP5 SWAP4 SWAP3 SWAP2 SWAP1 PUSH2 0x1CD7 JUMP JUMPDEST PUSH1 0x40 MLOAD DUP1 SWAP2 SUB SWAP1 LOG1 DUP1 SWAP2 POP POP SWAP4 SWAP3 POP POP POP JUMP JUMPDEST PUSH1 0x0 DUP1 PUSH1 0x4 SLOAD EQ ISZERO PUSH2 0x1688 JUMPI DUP2 PUSH1 0x80 ADD MLOAD PUSH1 0x4 DUP2 SWAP1 SSTORE POP PUSH2 0x1861 JUMP JUMPDEST DUP2 PUSH1 0x20 ADD MLOAD PUSH1 0x3 PUSH1 0x0 PUSH1 0x4 SLOAD DUP2 MSTORE PUSH1 0x20 ADD SWAP1 DUP2 MSTORE PUSH1 0x20 ADD PUSH1 0x0 KECCAK256 PUSH1 0x1 ADD SLOAD GT PUSH2 0x1715 JUMPI PUSH1 0x4 SLOAD PUSH1 0x3 PUSH1 0x0 DUP5 PUSH1 0x80 ADD MLOAD DUP2 MSTORE PUSH1 0x20 ADD SWAP1 DUP2 MSTORE PUSH1 0x20 ADD PUSH1 0x0 KECCAK256 PUSH1 0x5 ADD DUP2 SWAP1 SSTORE POP DUP2 PUSH1 0x80 ADD MLOAD PUSH1 0x3 PUSH1 0x0 PUSH1 0x3 PUSH1 0x0 DUP7 PUSH1 0x80 ADD MLOAD DUP2 MSTORE PUSH1 0x20 ADD SWAP1 DUP2 MSTORE PUSH1 0x20 ADD PUSH1 0x0 KECCAK256 PUSH1 0x5 ADD SLOAD DUP2 MSTORE PUSH1 0x20 ADD SWAP1 DUP2 MSTORE PUSH1 0x20 ADD PUSH1 0x0 KECCAK256 PUSH1 0x6 ADD DUP2 SWAP1 SSTORE POP DUP2 PUSH1 0x80 ADD MLOAD PUSH1 0x4 DUP2 SWAP1 SSTORE POP PUSH2 0x1860 JUMP JUMPDEST PUSH1 0x4 SLOAD SWAP1 POP JUMPDEST PUSH1 0x0 PUSH1 0x3 PUSH1 0x0 DUP4 DUP2 MSTORE PUSH1 0x20 ADD SWAP1 DUP2 MSTORE PUSH1 0x20 ADD PUSH1 0x0 KECCAK256 PUSH1 0x5 ADD SLOAD EQ ISZERO DUP1 ISZERO PUSH2 0x1771 JUMPI POP DUP2 PUSH1 0x20 ADD MLOAD PUSH1 0x3 PUSH1 0x0 PUSH1 0x3 PUSH1 0x0 DUP6 DUP2 MSTORE PUSH1 0x20 ADD SWAP1 DUP2 MSTORE PUSH1 0x20 ADD PUSH1 0x0 KECCAK256 PUSH1 0x5 ADD SLOAD DUP2 MSTORE PUSH1 0x20 ADD SWAP1 DUP2 MSTORE PUSH1 0x20 ADD PUSH1 0x0 KECCAK256 PUSH1 0x1 ADD SLOAD GT JUMPDEST ISZERO PUSH2 0x1794 JUMPI PUSH1 0x3 PUSH1 0x0 DUP3 DUP2 MSTORE PUSH1 0x20 ADD SWAP1 DUP2 MSTORE PUSH1 0x20 ADD PUSH1 0x0 KECCAK256 PUSH1 0x5 ADD SLOAD SWAP1 POP PUSH2 0x171B JUMP JUMPDEST PUSH1 0x3 PUSH1 0x0 DUP3 DUP2 MSTORE PUSH1 0x20 ADD SWAP1 DUP2 MSTORE PUSH1 0x20 ADD PUSH1 0x0 KECCAK256 PUSH1 0x5 ADD SLOAD PUSH1 0x3 PUSH1 0x0 DUP5 PUSH1 0x80 ADD MLOAD DUP2 MSTORE PUSH1 0x20 ADD SWAP1 DUP2 MSTORE PUSH1 0x20 ADD PUSH1 0x0 KECCAK256 PUSH1 0x5 ADD DUP2 SWAP1 SSTORE POP PUSH1 0x0 PUSH1 0x3 PUSH1 0x0 DUP4 DUP2 MSTORE PUSH1 0x20 ADD SWAP1 DUP2 MSTORE PUSH1 0x20 ADD PUSH1 0x0 KECCAK256 PUSH1 0x5 ADD SLOAD EQ PUSH2 0x1821 JUMPI DUP2 PUSH1 0x80 ADD MLOAD PUSH1 0x3 PUSH1 0x0 PUSH1 0x3 PUSH1 0x0 DUP7 PUSH1 0x80 ADD MLOAD DUP2 MSTORE PUSH1 0x20 ADD SWAP1 DUP2 MSTORE PUSH1 0x20 ADD PUSH1 0x0 KECCAK256 PUSH1 0x5 ADD SLOAD DUP2 MSTORE PUSH1 0x20 ADD SWAP1 DUP2 MSTORE PUSH1 0x20 ADD PUSH1 0x0 KECCAK256 PUSH1 0x6 ADD DUP2 SWAP1 SSTORE POP JUMPDEST DUP2 PUSH1 0x80 ADD MLOAD PUSH1 0x3 PUSH1 0x0 DUP4 DUP2 MSTORE PUSH1 0x20 ADD SWAP1 DUP2 MSTORE PUSH1 0x20 ADD PUSH1 0x0 KECCAK256 PUSH1 0x5 ADD DUP2 SWAP1 SSTORE POP DUP1 PUSH1 0x3 PUSH1 0x0 DUP5 PUSH1 0x80 ADD MLOAD DUP2 MSTORE PUSH1 0x20 ADD SWAP1 DUP2 MSTORE PUSH1 0x20 ADD PUSH1 0x0 KECCAK256 PUSH1 0x6 ADD DUP2 SWAP1 SSTORE POP JUMPDEST JUMPDEST POP POP JUMP JUMPDEST PUSH1 0x40 MLOAD DUP1 PUSH1 0xE0 ADD PUSH1 0x40 MSTORE DUP1 PUSH1 0x0 PUSH20 0xFFFFFFFFFFFFFFFFFFFFFFFFFFFFFFFFFFFFFFFF AND DUP2 MSTORE PUSH1 0x20 ADD PUSH1 0x0 DUP2 MSTORE PUSH1 0x20 ADD PUSH1 0x0 DUP2 MSTORE PUSH1 0x20 ADD PUSH1 0x0 PUSH1 0x1 DUP2 GT ISZERO PUSH2 0x18AF JUMPI PUSH2 0x18AE PUSH2 0x2207 JUMP JUMPDEST JUMPDEST DUP2 MSTORE PUSH1 0x20 ADD PUSH1 0x0 DUP2 MSTORE PUSH1 0x20 ADD PUSH1 0x0 DUP2 MSTORE PUSH1 0x20 ADD PUSH1 0x0 DUP2 MSTORE POP SWAP1 JUMP JUMPDEST PUSH1 0x0 PUSH2 0x18DD PUSH2 0x18D8 DUP5 PUSH2 0x1E85 JUMP JUMPDEST PUSH2 0x1E60 JUMP JUMPDEST SWAP1 POP DUP3 DUP2 MSTORE PUSH1 0x20 DUP2 ADD DUP5 DUP5 DUP5 ADD GT ISZERO PUSH2 0x18F9 JUMPI PUSH2 0x18F8 PUSH2 0x2299 JUMP JUMPDEST JUMPDEST PUSH2 0x1904 DUP5 DUP3 DUP6 PUSH2 0x20BC JUMP JUMPDEST POP SWAP4 SWAP3 POP POP POP JUMP JUMPDEST PUSH1 0x0 DUP3 PUSH1 0x1F DUP4 ADD SLT PUSH2 0x1921 JUMPI PUSH2 0x1920 PUSH2 0x2294 JUMP JUMPDEST JUMPDEST DUP2 CALLDATALOAD PUSH2 0x1931 DUP5 DUP3 PUSH1 0x20 DUP7 ADD PUSH2 0x18CA JUMP JUMPDEST SWAP2 POP POP SWAP3 SWAP2 POP POP JUMP JUMPDEST PUSH1 0x0 DUP2 CALLDATALOAD SWAP1 POP PUSH2 0x1949 DUP2 PUSH2 0x23C3 JUMP JUMPDEST SWAP3 SWAP2 POP POP JUMP JUMPDEST PUSH1 0x0 DUP1 PUSH1 0x40 DUP4 DUP6 SUB SLT ISZERO PUSH2 0x1966 JUMPI PUSH2 0x1965 PUSH2 0x22A3 JUMP JUMPDEST JUMPDEST PUSH1 0x0 DUP4 ADD CALLDATALOAD PUSH8 0xFFFFFFFFFFFFFFFF DUP2 GT ISZERO PUSH2 0x1984 JUMPI PUSH2 0x1983 PUSH2 0x229E JUMP JUMPDEST JUMPDEST PUSH2 0x1990 DUP6 DUP3 DUP7 ADD PUSH2 0x190C JUMP JUMPDEST SWAP3 POP POP PUSH1 0x20 DUP4 ADD CALLDATALOAD PUSH8 0xFFFFFFFFFFFFFFFF DUP2 GT ISZERO PUSH2 0x19B1 JUMPI PUSH2 0x19B0 PUSH2 0x229E JUMP JUMPDEST JUMPDEST PUSH2 0x19BD DUP6 DUP3 DUP7 ADD PUSH2 0x190C JUMP JUMPDEST SWAP2 POP POP SWAP3 POP SWAP3 SWAP1 POP JUMP JUMPDEST PUSH1 0x0 PUSH1 0x20 DUP3 DUP5 SUB SLT ISZERO PUSH2 0x19DD JUMPI PUSH2 0x19DC PUSH2 0x22A3 JUMP JUMPDEST JUMPDEST PUSH1 0x0 PUSH2 0x19EB DUP5 DUP3 DUP6 ADD PUSH2 0x193A JUMP JUMPDEST SWAP2 POP POP SWAP3 SWAP2 POP POP JUMP JUMPDEST PUSH1 0x0 PUSH2 0x1A00 DUP4 DUP4 PUSH2 0x1BF1 JUMP JUMPDEST PUSH1 0x20 DUP4 ADD SWAP1 POP SWAP3 SWAP2 POP POP JUMP JUMPDEST PUSH2 0x1A15 DUP2 PUSH2 0x203D JUMP JUMPDEST DUP3 MSTORE POP POP JUMP JUMPDEST PUSH2 0x1A24 DUP2 PUSH2 0x202B JUMP JUMPDEST DUP3 MSTORE POP POP JUMP JUMPDEST PUSH1 0x0 PUSH2 0x1A35 DUP3 PUSH2 0x1EC6 JUMP JUMPDEST PUSH2 0x1A3F DUP2 DUP6 PUSH2 0x1EE9 JUMP JUMPDEST SWAP4 POP PUSH2 0x1A4A DUP4 PUSH2 0x1EB6 JUMP JUMPDEST DUP1 PUSH1 0x0 JUMPDEST DUP4 DUP2 LT ISZERO PUSH2 0x1A7B JUMPI DUP2 MLOAD PUSH2 0x1A62 DUP9 DUP3 PUSH2 0x19F4 JUMP JUMPDEST SWAP8 POP PUSH2 0x1A6D DUP4 PUSH2 0x1EDC JUMP JUMPDEST SWAP3 POP POP PUSH1 0x1 DUP2 ADD SWAP1 POP PUSH2 0x1A4E JUMP JUMPDEST POP DUP6 SWAP4 POP POP POP POP SWAP3 SWAP2 POP POP JUMP JUMPDEST PUSH2 0x1A91 DUP2 PUSH2 0x204F JUMP JUMPDEST DUP3 MSTORE POP POP JUMP JUMPDEST PUSH2 0x1AA0 DUP2 PUSH2 0x2098 JUMP JUMPDEST DUP3 MSTORE POP POP JUMP JUMPDEST PUSH2 0x1AAF DUP2 PUSH2 0x20AA JUMP JUMPDEST DUP3 MSTORE POP POP JUMP JUMPDEST PUSH1 0x0 PUSH2 0x1AC0 DUP3 PUSH2 0x1ED1 JUMP JUMPDEST PUSH2 0x1ACA DUP2 DUP6 PUSH2 0x1EFA JUMP JUMPDEST SWAP4 POP PUSH2 0x1ADA DUP2 DUP6 PUSH1 0x20 DUP7 ADD PUSH2 0x20CB JUMP JUMPDEST PUSH2 0x1AE3 DUP2 PUSH2 0x22A8 JUMP JUMPDEST DUP5 ADD SWAP2 POP POP SWAP3 SWAP2 POP POP JUMP JUMPDEST PUSH1 0x0 PUSH2 0x1AF9 DUP3 PUSH2 0x1ED1 JUMP JUMPDEST PUSH2 0x1B03 DUP2 DUP6 PUSH2 0x1F0B JUMP JUMPDEST SWAP4 POP PUSH2 0x1B13 DUP2 DUP6 PUSH1 0x20 DUP7 ADD PUSH2 0x20CB JUMP JUMPDEST DUP1 DUP5 ADD SWAP2 POP POP SWAP3 SWAP2 POP POP JUMP JUMPDEST PUSH1 0x0 PUSH2 0x1B2C PUSH1 0xE DUP4 PUSH2 0x1EFA JUMP JUMPDEST SWAP2 POP PUSH2 0x1B37 DUP3 PUSH2 0x22B9 JUMP JUMPDEST PUSH1 0x20 DUP3 ADD SWAP1 POP SWAP2 SWAP1 POP JUMP JUMPDEST PUSH1 0x0 PUSH2 0x1B4F PUSH1 0xD DUP4 PUSH2 0x1EFA JUMP JUMPDEST SWAP2 POP PUSH2 0x1B5A DUP3 PUSH2 0x22E2 JUMP JUMPDEST PUSH1 0x20 DUP3 ADD SWAP1 POP SWAP2 SWAP1 POP JUMP JUMPDEST PUSH1 0x0 PUSH2 0x1B72 PUSH1 0x1 DUP4 PUSH2 0x1F0B JUMP JUMPDEST SWAP2 POP PUSH2 0x1B7D DUP3 PUSH2 0x230B JUMP JUMPDEST PUSH1 0x1 DUP3 ADD SWAP1 POP SWAP2 SWAP1 POP JUMP JUMPDEST PUSH1 0x0 PUSH2 0x1B95 PUSH1 0x1E DUP4 PUSH2 0x1EFA JUMP JUMPDEST SWAP2 POP PUSH2 0x1BA0 DUP3 PUSH2 0x2334 JUMP JUMPDEST PUSH1 0x20 DUP3 ADD SWAP1 POP SWAP2 SWAP1 POP JUMP JUMPDEST PUSH1 0x0 PUSH2 0x1BB8 PUSH1 0x1F DUP4 PUSH2 0x1EFA JUMP JUMPDEST SWAP2 POP PUSH2 0x1BC3 DUP3 PUSH2 0x235D JUMP JUMPDEST PUSH1 0x20 DUP3 ADD SWAP1 POP SWAP2 SWAP1 POP JUMP JUMPDEST PUSH1 0x0 PUSH2 0x1BDB PUSH1 0x1E DUP4 PUSH2 0x1EFA JUMP JUMPDEST SWAP2 POP PUSH2 0x1BE6 DUP3 PUSH2 0x2386 JUMP JUMPDEST PUSH1 0x20 DUP3 ADD SWAP1 POP SWAP2 SWAP1 POP JUMP JUMPDEST PUSH2 0x1BFA DUP2 PUSH2 0x208E JUMP JUMPDEST DUP3 MSTORE POP POP JUMP JUMPDEST PUSH2 0x1C09 DUP2 PUSH2 0x208E JUMP JUMPDEST DUP3 MSTORE POP POP JUMP JUMPDEST PUSH1 0x0 PUSH2 0x1C1B DUP3 DUP6 PUSH2 0x1AEE JUMP JUMPDEST SWAP2 POP PUSH2 0x1C26 DUP3 PUSH2 0x1B65 JUMP JUMPDEST SWAP2 POP PUSH2 0x1C32 DUP3 DUP5 PUSH2 0x1AEE JUMP JUMPDEST SWAP2 POP DUP2 SWAP1 POP SWAP4 SWAP3 POP POP POP JUMP JUMPDEST PUSH1 0x0 PUSH1 0x20 DUP3 ADD SWAP1 POP PUSH2 0x1C53 PUSH1 0x0 DUP4 ADD DUP5 PUSH2 0x1A0C JUMP JUMPDEST SWAP3 SWAP2 POP POP JUMP JUMPDEST PUSH1 0x0 PUSH2 0x100 DUP3 ADD SWAP1 POP PUSH2 0x1C6F PUSH1 0x0 DUP4 ADD DUP12 PUSH2 0x1A0C JUMP JUMPDEST PUSH2 0x1C7C PUSH1 0x20 DUP4 ADD DUP11 PUSH2 0x1C00 JUMP JUMPDEST PUSH2 0x1C89 PUSH1 0x40 DUP4 ADD DUP10 PUSH2 0x1C00 JUMP JUMPDEST PUSH2 0x1C96 PUSH1 0x60 DUP4 ADD DUP9 PUSH2 0x1A97 JUMP JUMPDEST PUSH2 0x1CA3 PUSH1 0x80 DUP4 ADD DUP8 PUSH2 0x1C00 JUMP JUMPDEST PUSH2 0x1CB0 PUSH1 0xA0 DUP4 ADD DUP7 PUSH2 0x1C00 JUMP JUMPDEST PUSH2 0x1CBD PUSH1 0xC0 DUP4 ADD DUP6 PUSH2 0x1C00 JUMP JUMPDEST PUSH2 0x1CCA PUSH1 0xE0 DUP4 ADD DUP5 PUSH2 0x1A88 JUMP JUMPDEST SWAP10 SWAP9 POP POP POP POP POP POP POP POP POP JUMP JUMPDEST PUSH1 0x0 PUSH1 0xE0 DUP3 ADD SWAP1 POP PUSH2 0x1CEC PUSH1 0x0 DUP4 ADD DUP11 PUSH2 0x1A1B JUMP JUMPDEST PUSH2 0x1CF9 PUSH1 0x20 DUP4 ADD DUP10 PUSH2 0x1C00 JUMP JUMPDEST PUSH2 0x1D06 PUSH1 0x40 DUP4 ADD DUP9 PUSH2 0x1C00 JUMP JUMPDEST PUSH2 0x1D13 PUSH1 0x60 DUP4 ADD DUP8 PUSH2 0x1A97 JUMP JUMPDEST PUSH2 0x1D20 PUSH1 0x80 DUP4 ADD DUP7 PUSH2 0x1C00 JUMP JUMPDEST PUSH2 0x1D2D PUSH1 0xA0 DUP4 ADD DUP6 PUSH2 0x1AA6 JUMP JUMPDEST PUSH2 0x1D3A PUSH1 0xC0 DUP4 ADD DUP5 PUSH2 0x1AA6 JUMP JUMPDEST SWAP9 SWAP8 POP POP POP POP POP POP POP POP JUMP JUMPDEST PUSH1 0x0 PUSH1 0x20 DUP3 ADD SWAP1 POP DUP2 DUP2 SUB PUSH1 0x0 DUP4 ADD MSTORE PUSH2 0x1D60 DUP2 DUP5 PUSH2 0x1A2A JUMP JUMPDEST SWAP1 POP SWAP3 SWAP2 POP POP JUMP JUMPDEST PUSH1 0x0 PUSH1 0x20 DUP3 ADD SWAP1 POP PUSH2 0x1D7D PUSH1 0x0 DUP4 ADD DUP5 PUSH2 0x1A97 JUMP JUMPDEST SWAP3 SWAP2 POP POP JUMP JUMPDEST PUSH1 0x0 PUSH1 0x20 DUP3 ADD SWAP1 POP DUP2 DUP2 SUB PUSH1 0x0 DUP4 ADD MSTORE PUSH2 0x1D9D DUP2 DUP5 PUSH2 0x1AB5 JUMP JUMPDEST SWAP1 POP SWAP3 SWAP2 POP POP JUMP JUMPDEST PUSH1 0x0 PUSH1 0x20 DUP3 ADD SWAP1 POP DUP2 DUP2 SUB PUSH1 0x0 DUP4 ADD MSTORE PUSH2 0x1DBE DUP2 PUSH2 0x1B1F JUMP JUMPDEST SWAP1 POP SWAP2 SWAP1 POP JUMP JUMPDEST PUSH1 0x0 PUSH1 0x20 DUP3 ADD SWAP1 POP DUP2 DUP2 SUB PUSH1 0x0 DUP4 ADD MSTORE PUSH2 0x1DDE DUP2 PUSH2 0x1B42 JUMP JUMPDEST SWAP1 POP SWAP2 SWAP1 POP JUMP JUMPDEST PUSH1 0x0 PUSH1 0x20 DUP3 ADD SWAP1 POP DUP2 DUP2 SUB PUSH1 0x0 DUP4 ADD MSTORE PUSH2 0x1DFE DUP2 PUSH2 0x1B88 JUMP JUMPDEST SWAP1 POP SWAP2 SWAP1 POP JUMP JUMPDEST PUSH1 0x0 PUSH1 0x20 DUP3 ADD SWAP1 POP DUP2 DUP2 SUB PUSH1 0x0 DUP4 ADD MSTORE PUSH2 0x1E1E DUP2 PUSH2 0x1BAB JUMP JUMPDEST SWAP1 POP SWAP2 SWAP1 POP JUMP JUMPDEST PUSH1 0x0 PUSH1 0x20 DUP3 ADD SWAP1 POP DUP2 DUP2 SUB PUSH1 0x0 DUP4 ADD MSTORE PUSH2 0x1E3E DUP2 PUSH2 0x1BCE JUMP JUMPDEST SWAP1 POP SWAP2 SWAP1 POP JUMP JUMPDEST PUSH1 0x0 PUSH1 0x20 DUP3 ADD SWAP1 POP PUSH2 0x1E5A PUSH1 0x0 DUP4 ADD DUP5 PUSH2 0x1C00 JUMP JUMPDEST SWAP3 SWAP2 POP POP JUMP JUMPDEST PUSH1 0x0 PUSH2 0x1E6A PUSH2 0x1E7B JUMP JUMPDEST SWAP1 POP PUSH2 0x1E76 DUP3 DUP3 PUSH2 0x20FE JUMP JUMPDEST SWAP2 SWAP1 POP JUMP JUMPDEST PUSH1 0x0 PUSH1 0x40 MLOAD SWAP1 POP SWAP1 JUMP JUMPDEST PUSH1 0x0 PUSH8 0xFFFFFFFFFFFFFFFF DUP3 GT ISZERO PUSH2 0x1EA0 JUMPI PUSH2 0x1E9F PUSH2 0x2265 JUMP JUMPDEST JUMPDEST PUSH2 0x1EA9 DUP3 PUSH2 0x22A8 JUMP JUMPDEST SWAP1 POP PUSH1 0x20 DUP2 ADD SWAP1 POP SWAP2 SWAP1 POP JUMP JUMPDEST PUSH1 0x0 DUP2 SWAP1 POP PUSH1 0x20 DUP3 ADD SWAP1 POP SWAP2 SWAP1 POP JUMP JUMPDEST PUSH1 0x0 DUP2 MLOAD SWAP1 POP SWAP2 SWAP1 POP JUMP JUMPDEST PUSH1 0x0 DUP2 MLOAD SWAP1 POP SWAP2 SWAP1 POP JUMP JUMPDEST PUSH1 0x0 PUSH1 0x20 DUP3 ADD SWAP1 POP SWAP2 SWAP1 POP JUMP JUMPDEST PUSH1 0x0 DUP3 DUP3 MSTORE PUSH1 0x20 DUP3 ADD SWAP1 POP SWAP3 SWAP2 POP POP JUMP JUMPDEST PUSH1 0x0 DUP3 DUP3 MSTORE PUSH1 0x20 DUP3 ADD SWAP1 POP SWAP3 SWAP2 POP POP JUMP JUMPDEST PUSH1 0x0 DUP2 SWAP1 POP SWAP3 SWAP2 POP POP JUMP JUMPDEST PUSH1 0x0 PUSH2 0x1F21 DUP3 PUSH2 0x208E JUMP JUMPDEST SWAP2 POP PUSH2 0x1F2C DUP4 PUSH2 0x208E JUMP JUMPDEST SWAP3 POP DUP3 PUSH32 0xFFFFFFFFFFFFFFFFFFFFFFFFFFFFFFFFFFFFFFFFFFFFFFFFFFFFFFFFFFFFFFFF SUB DUP3 GT ISZERO PUSH2 0x1F61 JUMPI PUSH2 0x1F60 PUSH2 0x21A9 JUMP JUMPDEST JUMPDEST DUP3 DUP3 ADD SWAP1 POP SWAP3 SWAP2 POP POP JUMP JUMPDEST PUSH1 0x0 PUSH2 0x1F77 DUP3 PUSH2 0x208E JUMP JUMPDEST SWAP2 POP PUSH2 0x1F82 DUP4 PUSH2 0x208E JUMP JUMPDEST SWAP3 POP DUP3 PUSH2 0x1F92 JUMPI PUSH2 0x1F91 PUSH2 0x21D8 JUMP JUMPDEST JUMPDEST DUP3 DUP3 DIV SWAP1 POP SWAP3 SWAP2 POP POP JUMP JUMPDEST PUSH1 0x0 PUSH2 0x1FA8 DUP3 PUSH2 0x208E JUMP JUMPDEST SWAP2 POP PUSH2 0x1FB3 DUP4 PUSH2 0x208E JUMP JUMPDEST SWAP3 POP DUP2 PUSH32 0xFFFFFFFFFFFFFFFFFFFFFFFFFFFFFFFFFFFFFFFFFFFFFFFFFFFFFFFFFFFFFFFF DIV DUP4 GT DUP3 ISZERO ISZERO AND ISZERO PUSH2 0x1FEC JUMPI PUSH2 0x1FEB PUSH2 0x21A9 JUMP JUMPDEST JUMPDEST DUP3 DUP3 MUL SWAP1 POP SWAP3 SWAP2 POP POP JUMP JUMPDEST PUSH1 0x0 PUSH2 0x2002 DUP3 PUSH2 0x208E JUMP JUMPDEST SWAP2 POP PUSH2 0x200D DUP4 PUSH2 0x208E JUMP JUMPDEST SWAP3 POP DUP3 DUP3 LT ISZERO PUSH2 0x2020 JUMPI PUSH2 0x201F PUSH2 0x21A9 JUMP JUMPDEST JUMPDEST DUP3 DUP3 SUB SWAP1 POP SWAP3 SWAP2 POP POP JUMP JUMPDEST PUSH1 0x0 PUSH2 0x2036 DUP3 PUSH2 0x206E JUMP JUMPDEST SWAP1 POP SWAP2 SWAP1 POP JUMP JUMPDEST PUSH1 0x0 PUSH2 0x2048 DUP3 PUSH2 0x206E JUMP JUMPDEST SWAP1 POP SWAP2 SWAP1 POP JUMP JUMPDEST PUSH1 0x0 DUP2 ISZERO ISZERO SWAP1 POP SWAP2 SWAP1 POP JUMP JUMPDEST PUSH1 0x0 DUP2 SWAP1 POP PUSH2 0x2069 DUP3 PUSH2 0x23AF JUMP JUMPDEST SWAP2 SWAP1 POP JUMP JUMPDEST PUSH1 0x0 PUSH20 0xFFFFFFFFFFFFFFFFFFFFFFFFFFFFFFFFFFFFFFFF DUP3 AND SWAP1 POP SWAP2 SWAP1 POP JUMP JUMPDEST PUSH1 0x0 DUP2 SWAP1 POP SWAP2 SWAP1 POP JUMP JUMPDEST PUSH1 0x0 PUSH2 0x20A3 DUP3 PUSH2 0x205B JUMP JUMPDEST SWAP1 POP SWAP2 SWAP1 POP JUMP JUMPDEST PUSH1 0x0 PUSH2 0x20B5 DUP3 PUSH2 0x208E JUMP JUMPDEST SWAP1 POP SWAP2 SWAP1 POP JUMP JUMPDEST DUP3 DUP2 DUP4 CALLDATACOPY PUSH1 0x0 DUP4 DUP4 ADD MSTORE POP POP POP JUMP JUMPDEST PUSH1 0x0 JUMPDEST DUP4 DUP2 LT ISZERO PUSH2 0x20E9 JUMPI DUP1 DUP3 ADD MLOAD DUP2 DUP5 ADD MSTORE PUSH1 0x20 DUP2 ADD SWAP1 POP PUSH2 0x20CE JUMP JUMPDEST DUP4 DUP2 GT ISZERO PUSH2 0x20F8 JUMPI PUSH1 0x0 DUP5 DUP5 ADD MSTORE JUMPDEST POP POP POP POP JUMP JUMPDEST PUSH2 0x2107 DUP3 PUSH2 0x22A8 JUMP JUMPDEST DUP2 ADD DUP2 DUP2 LT PUSH8 0xFFFFFFFFFFFFFFFF DUP3 GT OR ISZERO PUSH2 0x2126 JUMPI PUSH2 0x2125 PUSH2 0x2265 JUMP JUMPDEST JUMPDEST DUP1 PUSH1 0x40 MSTORE POP POP POP JUMP JUMPDEST PUSH1 0x0 PUSH2 0x213A DUP3 PUSH2 0x208E JUMP JUMPDEST SWAP2 POP PUSH32 0xFFFFFFFFFFFFFFFFFFFFFFFFFFFFFFFFFFFFFFFFFFFFFFFFFFFFFFFFFFFFFFFF DUP3 EQ ISZERO PUSH2 0x216D JUMPI PUSH2 0x216C PUSH2 0x21A9 JUMP JUMPDEST JUMPDEST PUSH1 0x1 DUP3 ADD SWAP1 POP SWAP2 SWAP1 POP JUMP JUMPDEST PUSH1 0x0 PUSH2 0x2183 DUP3 PUSH2 0x208E JUMP JUMPDEST SWAP2 POP PUSH2 0x218E DUP4 PUSH2 0x208E JUMP JUMPDEST SWAP3 POP DUP3 PUSH2 0x219E JUMPI PUSH2 0x219D PUSH2 0x21D8 JUMP JUMPDEST JUMPDEST DUP3 DUP3 MOD SWAP1 POP SWAP3 SWAP2 POP POP JUMP JUMPDEST PUSH32 0x4E487B7100000000000000000000000000000000000000000000000000000000 PUSH1 0x0 MSTORE PUSH1 0x11 PUSH1 0x4 MSTORE PUSH1 0x24 PUSH1 0x0 REVERT JUMPDEST PUSH32 0x4E487B7100000000000000000000000000000000000000000000000000000000 PUSH1 0x0 MSTORE PUSH1 0x12 PUSH1 0x4 MSTORE PUSH1 0x24 PUSH1 0x0 REVERT JUMPDEST PUSH32 0x4E487B7100000000000000000000000000000000000000000000000000000000 PUSH1 0x0 MSTORE PUSH1 0x21 PUSH1 0x4 MSTORE PUSH1 0x24 PUSH1 0x0 REVERT JUMPDEST PUSH32 0x4E487B7100000000000000000000000000000000000000000000000000000000 PUSH1 0x0 MSTORE PUSH1 0x32 PUSH1 0x4 MSTORE PUSH1 0x24 PUSH1 0x0 REVERT JUMPDEST PUSH32 0x4E487B7100000000000000000000000000000000000000000000000000000000 PUSH1 0x0 MSTORE PUSH1 0x41 PUSH1 0x4 MSTORE PUSH1 0x24 PUSH1 0x0 REVERT JUMPDEST PUSH1 0x0 DUP1 REVERT JUMPDEST PUSH1 0x0 DUP1 REVERT JUMPDEST PUSH1 0x0 DUP1 REVERT JUMPDEST PUSH1 0x0 DUP1 REVERT JUMPDEST PUSH1 0x0 PUSH1 0x1F NOT PUSH1 0x1F DUP4 ADD AND SWAP1 POP SWAP2 SWAP1 POP JUMP JUMPDEST PUSH32 0x4E6F7420417574686F7269736564000000000000000000000000000000000000 PUSH1 0x0 DUP3 ADD MSTORE POP JUMP JUMPDEST PUSH32 0x4F726465722050656E64696E6700000000000000000000000000000000000000 PUSH1 0x0 DUP3 ADD MSTORE POP JUMP JUMPDEST PUSH32 0x2000000000000000000000000000000000000000000000000000000000000000 PUSH1 0x0 DUP3 ADD MSTORE POP JUMP JUMPDEST PUSH32 0x4E6F7420656E6F75676820626C616E636520746F20706C616365206269640000 PUSH1 0x0 DUP3 ADD MSTORE POP JUMP JUMPDEST PUSH32 0x70726963652076616C7565206D757374206265206D6F7265207468616E203000 PUSH1 0x0 DUP3 ADD MSTORE POP JUMP JUMPDEST PUSH32 0x4E6F7420656E6F75676820626C616E636520746F20706C6163652061736B0000 PUSH1 0x0 DUP3 ADD MSTORE POP JUMP JUMPDEST PUSH1 0x2 DUP2 LT PUSH2 0x23C0 JUMPI PUSH2 0x23BF PUSH2 0x2207 JUMP JUMPDEST JUMPDEST POP JUMP JUMPDEST PUSH2 0x23CC DUP2 PUSH2 0x208E JUMP JUMPDEST DUP2 EQ PUSH2 0x23D7 JUMPI PUSH1 0x0 DUP1 REVERT JUMPDEST POP JUMP INVALID LOG2 PUSH5 0x6970667358 0x22 SLT KECCAK256 MOD OR CALLDATACOPY LOG0 DUP12 PUSH7 0x2F1C083F054F37 0x2A 0x2C PUSH16 0x45C81D64FD3EA02C4AFFB7401A6F11A8 PUSH5 0x736F6C6343 STOP ADDMOD SMOD STOP CALLER "
				},
				"gasEstimates": {
					"creation": {
						"codeDepositCost": "1846400",
						"executionCost": "infinite",
						"totalCost": "infinite"
					},
					"external": {
						"askCount()": "2540",
						"askHead()": "2474",
						"bidCount()": "2451",
						"bidHead()": "2518",
						"cancelAsk(uint256)": "31111",
						"cancelBid(uint256)": "31110",
						"concatenate(string,string)": "infinite",
						"fetchAsk()": "infinite",
						"fetchBid()": "infinite",
						"fetchYourAskIds()": "infinite",
						"fetchYourBidIds()": "infinite",
						"getAskAddress(uint256)": "3004",
						"getAskNext(uint256)": "infinite",
						"getAskPrev(uint256)": "infinite",
						"getAskState(uint256)": "2962",
						"getAskValue(uint256)": "infinite",
						"getBidAddress(uint256)": "2938",
						"getBidState(uint256)": "2961",
						"getBidValue(uint256)": "infinite",
						"getOrder(uint256)": "infinite",
						"placeAsk(uint256)": "infinite",
						"placeBid(uint256)": "infinite"
					},
					"internal": {
						"createAsk(address,uint256,uint256)": "infinite",
						"createBid(address,uint256,uint256)": "infinite",
						"insertionSortAsk()": "infinite",
						"insertionSortBid()": "infinite",
						"sortAsk(struct OrderBook.order memory)": "infinite",
						"sortBid(struct OrderBook.order memory)": "infinite"
					}
				},
				"methodIdentifiers": {
					"askCount()": "a394fda7",
					"askHead()": "801d9bbd",
					"bidCount()": "b40a5627",
					"bidHead()": "6e5b0f00",
					"cancelAsk(uint256)": "1628e0f5",
					"cancelBid(uint256)": "9703ef35",
					"concatenate(string,string)": "266001d3",
					"fetchAsk()": "44e791e0",
					"fetchBid()": "0f38f2b1",
					"fetchYourAskIds()": "122de8f2",
					"fetchYourBidIds()": "ce0cdc87",
					"getAskAddress(uint256)": "734a2e78",
					"getAskNext(uint256)": "733672f4",
					"getAskPrev(uint256)": "d05c28cb",
					"getAskState(uint256)": "4d46712d",
					"getAskValue(uint256)": "db3a1396",
					"getBidAddress(uint256)": "69f632e2",
					"getBidState(uint256)": "bf77ffae",
					"getBidValue(uint256)": "2db6dfa7",
					"getOrder(uint256)": "d09ef241",
					"placeAsk(uint256)": "78c5b268",
					"placeBid(uint256)": "9979ef45"
				}
			},
			"storageLayout": {
				"storage": [
					{
						"astId": 9,
						"contract": "contracts/OrderBook.sol:OrderBook",
						"label": "bidValues",
						"offset": 0,
						"slot": "0",
						"type": "t_mapping(t_uint256,t_uint256)"
					},
					{
						"astId": 16,
						"contract": "contracts/OrderBook.sol:OrderBook",
						"label": "_owner",
						"offset": 0,
						"slot": "1",
						"type": "t_address_payable"
					},
					{
						"astId": 18,
						"contract": "contracts/OrderBook.sol:OrderBook",
						"label": "commission",
						"offset": 0,
						"slot": "2",
						"type": "t_uint256"
					},
					{
						"astId": 39,
						"contract": "contracts/OrderBook.sol:OrderBook",
						"label": "bidBook",
						"offset": 0,
						"slot": "3",
						"type": "t_mapping(t_uint256,t_struct(order)34_storage)"
					},
					{
						"astId": 41,
						"contract": "contracts/OrderBook.sol:OrderBook",
						"label": "bidHead",
						"offset": 0,
						"slot": "4",
						"type": "t_uint256"
					},
					{
						"astId": 43,
						"contract": "contracts/OrderBook.sol:OrderBook",
						"label": "bidCount",
						"offset": 0,
						"slot": "5",
						"type": "t_uint256"
					},
					{
						"astId": 48,
						"contract": "contracts/OrderBook.sol:OrderBook",
						"label": "askBook",
						"offset": 0,
						"slot": "6",
						"type": "t_mapping(t_uint256,t_struct(order)34_storage)"
					},
					{
						"astId": 50,
						"contract": "contracts/OrderBook.sol:OrderBook",
						"label": "askHead",
						"offset": 0,
						"slot": "7",
						"type": "t_uint256"
					},
					{
						"astId": 52,
						"contract": "contracts/OrderBook.sol:OrderBook",
						"label": "askCount",
						"offset": 0,
						"slot": "8",
						"type": "t_uint256"
					}
				],
				"types": {
					"t_address_payable": {
						"encoding": "inplace",
						"label": "address payable",
						"numberOfBytes": "20"
					},
					"t_enum(State)5": {
						"encoding": "inplace",
						"label": "enum OrderBook.State",
						"numberOfBytes": "1"
					},
					"t_mapping(t_uint256,t_struct(order)34_storage)": {
						"encoding": "mapping",
						"key": "t_uint256",
						"label": "mapping(uint256 => struct OrderBook.order)",
						"numberOfBytes": "32",
						"value": "t_struct(order)34_storage"
					},
					"t_mapping(t_uint256,t_uint256)": {
						"encoding": "mapping",
						"key": "t_uint256",
						"label": "mapping(uint256 => uint256)",
						"numberOfBytes": "32",
						"value": "t_uint256"
					},
					"t_struct(order)34_storage": {
						"encoding": "inplace",
						"label": "struct OrderBook.order",
						"members": [
							{
								"astId": 20,
								"contract": "contracts/OrderBook.sol:OrderBook",
								"label": "customer",
								"offset": 0,
								"slot": "0",
								"type": "t_address_payable"
							},
							{
								"astId": 22,
								"contract": "contracts/OrderBook.sol:OrderBook",
								"label": "value",
								"offset": 0,
								"slot": "1",
								"type": "t_uint256"
							},
							{
								"astId": 24,
								"contract": "contracts/OrderBook.sol:OrderBook",
								"label": "timestamp",
								"offset": 0,
								"slot": "2",
								"type": "t_uint256"
							},
							{
								"astId": 27,
								"contract": "contracts/OrderBook.sol:OrderBook",
								"label": "state",
								"offset": 0,
								"slot": "3",
								"type": "t_enum(State)5"
							},
							{
								"astId": 29,
								"contract": "contracts/OrderBook.sol:OrderBook",
								"label": "id",
								"offset": 0,
								"slot": "4",
								"type": "t_uint256"
							},
							{
								"astId": 31,
								"contract": "contracts/OrderBook.sol:OrderBook",
								"label": "next",
								"offset": 0,
								"slot": "5",
								"type": "t_uint256"
							},
							{
								"astId": 33,
								"contract": "contracts/OrderBook.sol:OrderBook",
								"label": "prev",
								"offset": 0,
								"slot": "6",
								"type": "t_uint256"
							}
						],
						"numberOfBytes": "224"
					},
					"t_uint256": {
						"encoding": "inplace",
						"label": "uint256",
						"numberOfBytes": "32"
					}
				}
			},
			"userdoc": {
				"kind": "user",
				"methods": {},
				"version": 1
			}
		}
	}
}