{
	"contracts/OrderBook.sol": {
		"OrderBook": {
			"abi": [
				{
					"inputs": [
						{
							"internalType": "uint256",
							"name": "_commission",
							"type": "uint256"
						}
					],
					"stateMutability": "nonpayable",
					"type": "constructor"
				},
				{
					"anonymous": false,
					"inputs": [
						{
							"indexed": false,
							"internalType": "address",
							"name": "",
							"type": "address"
						},
						{
							"indexed": false,
							"internalType": "uint256",
							"name": "",
							"type": "uint256"
						}
					],
					"name": "askCancelled",
					"type": "event"
				},
				{
					"anonymous": false,
					"inputs": [
						{
							"indexed": false,
							"internalType": "address",
							"name": "",
							"type": "address"
						},
						{
							"indexed": false,
							"internalType": "uint256",
							"name": "",
							"type": "uint256"
						}
					],
					"name": "askPlaced",
					"type": "event"
				},
				{
					"anonymous": false,
					"inputs": [
						{
							"indexed": false,
							"internalType": "address",
							"name": "",
							"type": "address"
						},
						{
							"indexed": false,
							"internalType": "uint256",
							"name": "",
							"type": "uint256"
						}
					],
					"name": "bidCancelled",
					"type": "event"
				},
				{
					"anonymous": false,
					"inputs": [
						{
							"indexed": false,
							"internalType": "address",
							"name": "",
							"type": "address"
						},
						{
							"indexed": false,
							"internalType": "uint256",
							"name": "",
							"type": "uint256"
						}
					],
					"name": "bidPlaced",
					"type": "event"
				},
				{
					"inputs": [],
					"name": "askCount",
					"outputs": [
						{
							"internalType": "uint256",
							"name": "",
							"type": "uint256"
						}
					],
					"stateMutability": "view",
					"type": "function"
				},
				{
					"inputs": [],
					"name": "askHead",
					"outputs": [
						{
							"internalType": "uint256",
							"name": "",
							"type": "uint256"
						}
					],
					"stateMutability": "view",
					"type": "function"
				},
				{
					"inputs": [],
					"name": "bidCount",
					"outputs": [
						{
							"internalType": "uint256",
							"name": "",
							"type": "uint256"
						}
					],
					"stateMutability": "view",
					"type": "function"
				},
				{
					"inputs": [],
					"name": "bidHead",
					"outputs": [
						{
							"internalType": "uint256",
							"name": "",
							"type": "uint256"
						}
					],
					"stateMutability": "view",
					"type": "function"
				},
				{
					"inputs": [
						{
							"internalType": "uint256",
							"name": "askId",
							"type": "uint256"
						}
					],
					"name": "cancelAsk",
					"outputs": [],
					"stateMutability": "payable",
					"type": "function"
				},
				{
					"inputs": [
						{
							"internalType": "uint256",
							"name": "bidId",
							"type": "uint256"
						}
					],
					"name": "cancelBid",
					"outputs": [],
					"stateMutability": "payable",
					"type": "function"
				},
				{
					"inputs": [
						{
							"internalType": "string",
							"name": "a",
							"type": "string"
						},
						{
							"internalType": "string",
							"name": "b",
							"type": "string"
						}
					],
					"name": "concatenate",
					"outputs": [
						{
							"internalType": "string",
							"name": "",
							"type": "string"
						}
					],
					"stateMutability": "pure",
					"type": "function"
				},
				{
					"inputs": [],
					"name": "fetchAsk",
					"outputs": [
						{
							"internalType": "string",
							"name": "",
							"type": "string"
						}
					],
					"stateMutability": "view",
					"type": "function"
				},
				{
					"inputs": [],
					"name": "fetchBid",
					"outputs": [
						{
							"internalType": "string",
							"name": "",
							"type": "string"
						}
					],
					"stateMutability": "view",
					"type": "function"
				},
				{
					"inputs": [
						{
							"internalType": "uint256",
							"name": "id",
							"type": "uint256"
						}
					],
					"name": "getAskNext",
					"outputs": [
						{
							"internalType": "uint256",
							"name": "",
							"type": "uint256"
						}
					],
					"stateMutability": "view",
					"type": "function"
				},
				{
					"inputs": [
						{
							"internalType": "uint256",
							"name": "id",
							"type": "uint256"
						}
					],
					"name": "getAskPrev",
					"outputs": [
						{
							"internalType": "uint256",
							"name": "",
							"type": "uint256"
						}
					],
					"stateMutability": "view",
					"type": "function"
				},
				{
					"inputs": [
						{
							"internalType": "uint256",
							"name": "id",
							"type": "uint256"
						}
					],
					"name": "getAskState",
					"outputs": [
						{
							"internalType": "enum OrderBook.State",
							"name": "",
							"type": "uint8"
						}
					],
					"stateMutability": "view",
					"type": "function"
				},
				{
					"inputs": [
						{
							"internalType": "uint256",
							"name": "id",
							"type": "uint256"
						}
					],
					"name": "getAskValue",
					"outputs": [
						{
							"internalType": "uint256",
							"name": "",
							"type": "uint256"
						}
					],
					"stateMutability": "view",
					"type": "function"
				},
				{
					"inputs": [
						{
							"internalType": "uint256",
							"name": "id",
							"type": "uint256"
						}
					],
					"name": "getBidNext",
					"outputs": [
						{
							"internalType": "uint256",
							"name": "",
							"type": "uint256"
						}
					],
					"stateMutability": "view",
					"type": "function"
				},
				{
					"inputs": [
						{
							"internalType": "uint256",
							"name": "id",
							"type": "uint256"
						}
					],
					"name": "getBidPrev",
					"outputs": [
						{
							"internalType": "uint256",
							"name": "",
							"type": "uint256"
						}
					],
					"stateMutability": "view",
					"type": "function"
				},
				{
					"inputs": [
						{
							"internalType": "uint256",
							"name": "id",
							"type": "uint256"
						}
					],
					"name": "getBidState",
					"outputs": [
						{
							"internalType": "enum OrderBook.State",
							"name": "",
							"type": "uint8"
						}
					],
					"stateMutability": "view",
					"type": "function"
				},
				{
					"inputs": [
						{
							"internalType": "uint256",
							"name": "id",
							"type": "uint256"
						}
					],
					"name": "getBidValue",
					"outputs": [
						{
							"internalType": "uint256",
							"name": "",
							"type": "uint256"
						}
					],
					"stateMutability": "view",
					"type": "function"
				},
				{
					"inputs": [
						{
							"internalType": "uint256",
							"name": "price",
							"type": "uint256"
						}
					],
					"name": "placeAsk",
					"outputs": [],
					"stateMutability": "payable",
					"type": "function"
				},
				{
					"inputs": [
						{
							"internalType": "uint256",
							"name": "price",
							"type": "uint256"
						}
					],
					"name": "placeBid",
					"outputs": [],
					"stateMutability": "payable",
					"type": "function"
				}
			],
			"devdoc": {
				"kind": "dev",
				"methods": {},
				"version": 1
			},
			"evm": {
				"assembly": "    /* \"contracts/OrderBook.sol\":995:10062  contract OrderBook {... */\n  mstore(0x40, 0x80)\n    /* \"contracts/OrderBook.sol\":1198:1208  msg.sender */\n  caller\n    /* \"contracts/OrderBook.sol\":1165:1209  address payable _owner = payable(msg.sender) */\n  0x01\n  exp(0x0100, 0x00)\n  dup2\n  sload\n  dup2\n  0xffffffffffffffffffffffffffffffffffffffff\n  mul\n  not\n  and\n  swap1\n  dup4\n  0xffffffffffffffffffffffffffffffffffffffff\n  and\n  mul\n  or\n  swap1\n  sstore\n  pop\n    /* \"contracts/OrderBook.sol\":1981:2142  constructor (uint256 _commission) {... */\n  callvalue\n  dup1\n  iszero\n  tag_1\n  jumpi\n  0x00\n  dup1\n  revert\ntag_1:\n  pop\n  mload(0x40)\n  sub(codesize, bytecodeSize)\n  dup1\n  bytecodeSize\n  dup4\n  codecopy\n  dup2\n  dup2\n  add\n  0x40\n  mstore\n  dup2\n  add\n  swap1\n  tag_2\n  swap2\n  swap1\n  tag_3\n  jump\t// in\ntag_2:\n    /* \"contracts/OrderBook.sol\":2038:2049  _commission */\n  dup1\n    /* \"contracts/OrderBook.sol\":2025:2035  commission */\n  0x02\n    /* \"contracts/OrderBook.sol\":2025:2049  commission = _commission */\n  dup2\n  swap1\n  sstore\n  pop\n    /* \"contracts/OrderBook.sol\":2069:2070  0 */\n  0x00\n    /* \"contracts/OrderBook.sol\":2059:2066  bidHead */\n  0x04\n    /* \"contracts/OrderBook.sol\":2059:2070  bidHead = 0 */\n  dup2\n  swap1\n  sstore\n  pop\n    /* \"contracts/OrderBook.sol\":2091:2092  0 */\n  0x00\n    /* \"contracts/OrderBook.sol\":2080:2088  bidCount */\n  0x05\n    /* \"contracts/OrderBook.sol\":2080:2092  bidCount = 0 */\n  dup2\n  swap1\n  sstore\n  pop\n    /* \"contracts/OrderBook.sol\":2112:2113  0 */\n  0x00\n    /* \"contracts/OrderBook.sol\":2102:2109  askHead */\n  0x07\n    /* \"contracts/OrderBook.sol\":2102:2113  askHead = 0 */\n  dup2\n  swap1\n  sstore\n  pop\n    /* \"contracts/OrderBook.sol\":2134:2135  0 */\n  0x00\n    /* \"contracts/OrderBook.sol\":2123:2131  askCount */\n  0x08\n    /* \"contracts/OrderBook.sol\":2123:2135  askCount = 0 */\n  dup2\n  swap1\n  sstore\n  pop\n    /* \"contracts/OrderBook.sol\":1981:2142  constructor (uint256 _commission) {... */\n  pop\n    /* \"contracts/OrderBook.sol\":995:10062  contract OrderBook {... */\n  jump(tag_6)\n    /* \"#utility.yul\":7:150   */\ntag_8:\n    /* \"#utility.yul\":64:69   */\n  0x00\n    /* \"#utility.yul\":95:101   */\n  dup2\n    /* \"#utility.yul\":89:102   */\n  mload\n    /* \"#utility.yul\":80:102   */\n  swap1\n  pop\n    /* \"#utility.yul\":111:144   */\n  tag_10\n    /* \"#utility.yul\":138:143   */\n  dup2\n    /* \"#utility.yul\":111:144   */\n  tag_11\n  jump\t// in\ntag_10:\n    /* \"#utility.yul\":7:150   */\n  swap3\n  swap2\n  pop\n  pop\n  jump\t// out\n    /* \"#utility.yul\":156:507   */\ntag_3:\n    /* \"#utility.yul\":226:232   */\n  0x00\n    /* \"#utility.yul\":275:277   */\n  0x20\n    /* \"#utility.yul\":263:272   */\n  dup3\n    /* \"#utility.yul\":254:261   */\n  dup5\n    /* \"#utility.yul\":250:273   */\n  sub\n    /* \"#utility.yul\":246:278   */\n  slt\n    /* \"#utility.yul\":243:362   */\n  iszero\n  tag_13\n  jumpi\n    /* \"#utility.yul\":281:360   */\n  tag_14\n  tag_15\n  jump\t// in\ntag_14:\n    /* \"#utility.yul\":243:362   */\ntag_13:\n    /* \"#utility.yul\":401:402   */\n  0x00\n    /* \"#utility.yul\":426:490   */\n  tag_16\n    /* \"#utility.yul\":482:489   */\n  dup5\n    /* \"#utility.yul\":473:479   */\n  dup3\n    /* \"#utility.yul\":462:471   */\n  dup6\n    /* \"#utility.yul\":458:480   */\n  add\n    /* \"#utility.yul\":426:490   */\n  tag_8\n  jump\t// in\ntag_16:\n    /* \"#utility.yul\":416:490   */\n  swap2\n  pop\n    /* \"#utility.yul\":372:500   */\n  pop\n    /* \"#utility.yul\":156:507   */\n  swap3\n  swap2\n  pop\n  pop\n  jump\t// out\n    /* \"#utility.yul\":594:671   */\ntag_19:\n    /* \"#utility.yul\":631:638   */\n  0x00\n    /* \"#utility.yul\":660:665   */\n  dup2\n    /* \"#utility.yul\":649:665   */\n  swap1\n  pop\n    /* \"#utility.yul\":594:671   */\n  swap2\n  swap1\n  pop\n  jump\t// out\n    /* \"#utility.yul\":800:917   */\ntag_15:\n    /* \"#utility.yul\":909:910   */\n  0x00\n    /* \"#utility.yul\":906:907   */\n  dup1\n    /* \"#utility.yul\":899:911   */\n  revert\n    /* \"#utility.yul\":923:1045   */\ntag_11:\n    /* \"#utility.yul\":996:1020   */\n  tag_25\n    /* \"#utility.yul\":1014:1019   */\n  dup2\n    /* \"#utility.yul\":996:1020   */\n  tag_19\n  jump\t// in\ntag_25:\n    /* \"#utility.yul\":989:994   */\n  dup2\n    /* \"#utility.yul\":986:1021   */\n  eq\n    /* \"#utility.yul\":976:1039   */\n  tag_26\n  jumpi\n    /* \"#utility.yul\":1035:1036   */\n  0x00\n    /* \"#utility.yul\":1032:1033   */\n  dup1\n    /* \"#utility.yul\":1025:1037   */\n  revert\n    /* \"#utility.yul\":976:1039   */\ntag_26:\n    /* \"#utility.yul\":923:1045   */\n  pop\n  jump\t// out\n    /* \"contracts/OrderBook.sol\":995:10062  contract OrderBook {... */\ntag_6:\n  dataSize(sub_0)\n  dup1\n  dataOffset(sub_0)\n  0x00\n  codecopy\n  0x00\n  return\nstop\n\nsub_0: assembly {\n        /* \"contracts/OrderBook.sol\":995:10062  contract OrderBook {... */\n      mstore(0x40, 0x80)\n      jumpi(tag_1, lt(calldatasize, 0x04))\n      shr(0xe0, calldataload(0x00))\n      dup1\n      0x78c5b268\n      gt\n      tag_21\n      jumpi\n      dup1\n      0xa394fda7\n      gt\n      tag_22\n      jumpi\n      dup1\n      0xa394fda7\n      eq\n      tag_16\n      jumpi\n      dup1\n      0xb40a5627\n      eq\n      tag_17\n      jumpi\n      dup1\n      0xbf77ffae\n      eq\n      tag_18\n      jumpi\n      dup1\n      0xd05c28cb\n      eq\n      tag_19\n      jumpi\n      dup1\n      0xdb3a1396\n      eq\n      tag_20\n      jumpi\n      jump(tag_1)\n    tag_22:\n      dup1\n      0x78c5b268\n      eq\n      tag_11\n      jumpi\n      dup1\n      0x801d9bbd\n      eq\n      tag_12\n      jumpi\n      dup1\n      0x9703ef35\n      eq\n      tag_13\n      jumpi\n      dup1\n      0x9979ef45\n      eq\n      tag_14\n      jumpi\n      dup1\n      0x9db70fad\n      eq\n      tag_15\n      jumpi\n      jump(tag_1)\n    tag_21:\n      dup1\n      0x356e6206\n      gt\n      tag_23\n      jumpi\n      dup1\n      0x356e6206\n      eq\n      tag_6\n      jumpi\n      dup1\n      0x44e791e0\n      eq\n      tag_7\n      jumpi\n      dup1\n      0x4d46712d\n      eq\n      tag_8\n      jumpi\n      dup1\n      0x6e5b0f00\n      eq\n      tag_9\n      jumpi\n      dup1\n      0x733672f4\n      eq\n      tag_10\n      jumpi\n      jump(tag_1)\n    tag_23:\n      dup1\n      0x0f38f2b1\n      eq\n      tag_2\n      jumpi\n      dup1\n      0x1628e0f5\n      eq\n      tag_3\n      jumpi\n      dup1\n      0x266001d3\n      eq\n      tag_4\n      jumpi\n      dup1\n      0x2db6dfa7\n      eq\n      tag_5\n      jumpi\n    tag_1:\n      0x00\n      dup1\n      revert\n        /* \"contracts/OrderBook.sol\":8797:9191  function fetchBid() public view returns (string memory) {... */\n    tag_2:\n      callvalue\n      dup1\n      iszero\n      tag_24\n      jumpi\n      0x00\n      dup1\n      revert\n    tag_24:\n      pop\n      tag_25\n      tag_26\n      jump\t// in\n    tag_25:\n      mload(0x40)\n      tag_27\n      swap2\n      swap1\n      tag_28\n      jump\t// in\n    tag_27:\n      mload(0x40)\n      dup1\n      swap2\n      sub\n      swap1\n      return\n        /* \"contracts/OrderBook.sol\":8017:8363  function cancelAsk (uint256 askId) public payable isPending(askBook[askId]) isAuthorised(askBook[askId], msg.sender) {... */\n    tag_3:\n      tag_29\n      0x04\n      dup1\n      calldatasize\n      sub\n      dup2\n      add\n      swap1\n      tag_30\n      swap2\n      swap1\n      tag_31\n      jump\t// in\n    tag_30:\n      tag_32\n      jump\t// in\n    tag_29:\n      stop\n        /* \"contracts/OrderBook.sol\":6486:6632  function concatenate(string memory a,string memory b) public pure returns (string memory){... */\n    tag_4:\n      callvalue\n      dup1\n      iszero\n      tag_33\n      jumpi\n      0x00\n      dup1\n      revert\n    tag_33:\n      pop\n      tag_34\n      0x04\n      dup1\n      calldatasize\n      sub\n      dup2\n      add\n      swap1\n      tag_35\n      swap2\n      swap1\n      tag_36\n      jump\t// in\n    tag_35:\n      tag_37\n      jump\t// in\n    tag_34:\n      mload(0x40)\n      tag_38\n      swap2\n      swap1\n      tag_28\n      jump\t// in\n    tag_38:\n      mload(0x40)\n      dup1\n      swap2\n      sub\n      swap1\n      return\n        /* \"contracts/OrderBook.sol\":9197:9301  function getBidValue (uint256 id) public view returns(uint256) {... */\n    tag_5:\n      callvalue\n      dup1\n      iszero\n      tag_39\n      jumpi\n      0x00\n      dup1\n      revert\n    tag_39:\n      pop\n      tag_40\n      0x04\n      dup1\n      calldatasize\n      sub\n      dup2\n      add\n      swap1\n      tag_41\n      swap2\n      swap1\n      tag_31\n      jump\t// in\n    tag_41:\n      tag_42\n      jump\t// in\n    tag_40:\n      mload(0x40)\n      tag_43\n      swap2\n      swap1\n      tag_44\n      jump\t// in\n    tag_43:\n      mload(0x40)\n      dup1\n      swap2\n      sub\n      swap1\n      return\n        /* \"contracts/OrderBook.sol\":9849:9951  function getBidPrev (uint256 id) public view returns(uint256) {... */\n    tag_6:\n      callvalue\n      dup1\n      iszero\n      tag_45\n      jumpi\n      0x00\n      dup1\n      revert\n    tag_45:\n      pop\n      tag_46\n      0x04\n      dup1\n      calldatasize\n      sub\n      dup2\n      add\n      swap1\n      tag_47\n      swap2\n      swap1\n      tag_31\n      jump\t// in\n    tag_47:\n      tag_48\n      jump\t// in\n    tag_46:\n      mload(0x40)\n      tag_49\n      swap2\n      swap1\n      tag_44\n      jump\t// in\n    tag_49:\n      mload(0x40)\n      dup1\n      swap2\n      sub\n      swap1\n      return\n        /* \"contracts/OrderBook.sol\":8397:8791  function fetchAsk() public view returns (string memory) {... */\n    tag_7:\n      callvalue\n      dup1\n      iszero\n      tag_50\n      jumpi\n      0x00\n      dup1\n      revert\n    tag_50:\n      pop\n      tag_51\n      tag_52\n      jump\t// in\n    tag_51:\n      mload(0x40)\n      tag_53\n      swap2\n      swap1\n      tag_28\n      jump\t// in\n    tag_53:\n      mload(0x40)\n      dup1\n      swap2\n      sub\n      swap1\n      return\n        /* \"contracts/OrderBook.sol\":9525:9627  function getAskState (uint256 id) public view returns(State) {... */\n    tag_8:\n      callvalue\n      dup1\n      iszero\n      tag_54\n      jumpi\n      0x00\n      dup1\n      revert\n    tag_54:\n      pop\n      tag_55\n      0x04\n      dup1\n      calldatasize\n      sub\n      dup2\n      add\n      swap1\n      tag_56\n      swap2\n      swap1\n      tag_31\n      jump\t// in\n    tag_56:\n      tag_57\n      jump\t// in\n    tag_55:\n      mload(0x40)\n      tag_58\n      swap2\n      swap1\n      tag_59\n      jump\t// in\n    tag_58:\n      mload(0x40)\n      dup1\n      swap2\n      sub\n      swap1\n      return\n        /* \"contracts/OrderBook.sol\":1662:1684  uint256 public bidHead */\n    tag_9:\n      callvalue\n      dup1\n      iszero\n      tag_60\n      jumpi\n      0x00\n      dup1\n      revert\n    tag_60:\n      pop\n      tag_61\n      tag_62\n      jump\t// in\n    tag_61:\n      mload(0x40)\n      tag_63\n      swap2\n      swap1\n      tag_44\n      jump\t// in\n    tag_63:\n      mload(0x40)\n      dup1\n      swap2\n      sub\n      swap1\n      return\n        /* \"contracts/OrderBook.sol\":9741:9843  function getAskNext (uint256 id) public view returns(uint256) {... */\n    tag_10:\n      callvalue\n      dup1\n      iszero\n      tag_64\n      jumpi\n      0x00\n      dup1\n      revert\n    tag_64:\n      pop\n      tag_65\n      0x04\n      dup1\n      calldatasize\n      sub\n      dup2\n      add\n      swap1\n      tag_66\n      swap2\n      swap1\n      tag_31\n      jump\t// in\n    tag_66:\n      tag_67\n      jump\t// in\n    tag_65:\n      mload(0x40)\n      tag_68\n      swap2\n      swap1\n      tag_44\n      jump\t// in\n    tag_68:\n      mload(0x40)\n      dup1\n      swap2\n      sub\n      swap1\n      return\n        /* \"contracts/OrderBook.sol\":7520:8011  function placeAsk (uint256 price) public payable {... */\n    tag_11:\n      tag_69\n      0x04\n      dup1\n      calldatasize\n      sub\n      dup2\n      add\n      swap1\n      tag_70\n      swap2\n      swap1\n      tag_31\n      jump\t// in\n    tag_70:\n      tag_71\n      jump\t// in\n    tag_69:\n      stop\n        /* \"contracts/OrderBook.sol\":1759:1781  uint256 public askHead */\n    tag_12:\n      callvalue\n      dup1\n      iszero\n      tag_72\n      jumpi\n      0x00\n      dup1\n      revert\n    tag_72:\n      pop\n      tag_73\n      tag_74\n      jump\t// in\n    tag_73:\n      mload(0x40)\n      tag_75\n      swap2\n      swap1\n      tag_44\n      jump\t// in\n    tag_75:\n      mload(0x40)\n      dup1\n      swap2\n      sub\n      swap1\n      return\n        /* \"contracts/OrderBook.sol\":7166:7514  function cancelBid (uint256 bidId) public payable isPending(bidBook[bidId]) isAuthorised(bidBook[bidId], msg.sender) {... */\n    tag_13:\n      tag_76\n      0x04\n      dup1\n      calldatasize\n      sub\n      dup2\n      add\n      swap1\n      tag_77\n      swap2\n      swap1\n      tag_31\n      jump\t// in\n    tag_77:\n      tag_78\n      jump\t// in\n    tag_76:\n      stop\n        /* \"contracts/OrderBook.sol\":6669:7160  function placeBid (uint256 price) public payable {... */\n    tag_14:\n      tag_79\n      0x04\n      dup1\n      calldatasize\n      sub\n      dup2\n      add\n      swap1\n      tag_80\n      swap2\n      swap1\n      tag_31\n      jump\t// in\n    tag_80:\n      tag_81\n      jump\t// in\n    tag_79:\n      stop\n        /* \"contracts/OrderBook.sol\":9633:9735  function getBidNext (uint256 id) public view returns(uint256) {... */\n    tag_15:\n      callvalue\n      dup1\n      iszero\n      tag_82\n      jumpi\n      0x00\n      dup1\n      revert\n    tag_82:\n      pop\n      tag_83\n      0x04\n      dup1\n      calldatasize\n      sub\n      dup2\n      add\n      swap1\n      tag_84\n      swap2\n      swap1\n      tag_31\n      jump\t// in\n    tag_84:\n      tag_85\n      jump\t// in\n    tag_83:\n      mload(0x40)\n      tag_86\n      swap2\n      swap1\n      tag_44\n      jump\t// in\n    tag_86:\n      mload(0x40)\n      dup1\n      swap2\n      sub\n      swap1\n      return\n        /* \"contracts/OrderBook.sol\":1787:1810  uint256 public askCount */\n    tag_16:\n      callvalue\n      dup1\n      iszero\n      tag_87\n      jumpi\n      0x00\n      dup1\n      revert\n    tag_87:\n      pop\n      tag_88\n      tag_89\n      jump\t// in\n    tag_88:\n      mload(0x40)\n      tag_90\n      swap2\n      swap1\n      tag_44\n      jump\t// in\n    tag_90:\n      mload(0x40)\n      dup1\n      swap2\n      sub\n      swap1\n      return\n        /* \"contracts/OrderBook.sol\":1690:1713  uint256 public bidCount */\n    tag_17:\n      callvalue\n      dup1\n      iszero\n      tag_91\n      jumpi\n      0x00\n      dup1\n      revert\n    tag_91:\n      pop\n      tag_92\n      tag_93\n      jump\t// in\n    tag_92:\n      mload(0x40)\n      tag_94\n      swap2\n      swap1\n      tag_44\n      jump\t// in\n    tag_94:\n      mload(0x40)\n      dup1\n      swap2\n      sub\n      swap1\n      return\n        /* \"contracts/OrderBook.sol\":9417:9519  function getBidState (uint256 id) public view returns(State) {... */\n    tag_18:\n      callvalue\n      dup1\n      iszero\n      tag_95\n      jumpi\n      0x00\n      dup1\n      revert\n    tag_95:\n      pop\n      tag_96\n      0x04\n      dup1\n      calldatasize\n      sub\n      dup2\n      add\n      swap1\n      tag_97\n      swap2\n      swap1\n      tag_31\n      jump\t// in\n    tag_97:\n      tag_98\n      jump\t// in\n    tag_96:\n      mload(0x40)\n      tag_99\n      swap2\n      swap1\n      tag_59\n      jump\t// in\n    tag_99:\n      mload(0x40)\n      dup1\n      swap2\n      sub\n      swap1\n      return\n        /* \"contracts/OrderBook.sol\":9957:10059  function getAskPrev (uint256 id) public view returns(uint256) {... */\n    tag_19:\n      callvalue\n      dup1\n      iszero\n      tag_100\n      jumpi\n      0x00\n      dup1\n      revert\n    tag_100:\n      pop\n      tag_101\n      0x04\n      dup1\n      calldatasize\n      sub\n      dup2\n      add\n      swap1\n      tag_102\n      swap2\n      swap1\n      tag_31\n      jump\t// in\n    tag_102:\n      tag_103\n      jump\t// in\n    tag_101:\n      mload(0x40)\n      tag_104\n      swap2\n      swap1\n      tag_44\n      jump\t// in\n    tag_104:\n      mload(0x40)\n      dup1\n      swap2\n      sub\n      swap1\n      return\n        /* \"contracts/OrderBook.sol\":9307:9411  function getAskValue (uint256 id) public view returns(uint256) {... */\n    tag_20:\n      callvalue\n      dup1\n      iszero\n      tag_105\n      jumpi\n      0x00\n      dup1\n      revert\n    tag_105:\n      pop\n      tag_106\n      0x04\n      dup1\n      calldatasize\n      sub\n      dup2\n      add\n      swap1\n      tag_107\n      swap2\n      swap1\n      tag_31\n      jump\t// in\n    tag_107:\n      tag_108\n      jump\t// in\n    tag_106:\n      mload(0x40)\n      tag_109\n      swap2\n      swap1\n      tag_44\n      jump\t// in\n    tag_109:\n      mload(0x40)\n      dup1\n      swap2\n      sub\n      swap1\n      return\n        /* \"contracts/OrderBook.sol\":8797:9191  function fetchBid() public view returns (string memory) {... */\n    tag_26:\n        /* \"contracts/OrderBook.sol\":8838:8851  string memory */\n      0x60\n        /* \"contracts/OrderBook.sol\":8863:8878  uint256 current */\n      0x00\n        /* \"contracts/OrderBook.sol\":8881:8888  bidHead */\n      sload(0x04)\n        /* \"contracts/OrderBook.sol\":8863:8888  uint256 current = bidHead */\n      swap1\n      pop\n        /* \"contracts/OrderBook.sol\":8898:8918  string memory output */\n      0x00\n        /* \"contracts/OrderBook.sol\":8898:8923  string memory output = \"\" */\n      mload(0x40)\n      dup1\n      0x20\n      add\n      0x40\n      mstore\n      dup1\n      0x00\n      dup2\n      mstore\n      pop\n      swap1\n      pop\n        /* \"contracts/OrderBook.sol\":8933:9162  while (current != 0) {... */\n    tag_111:\n        /* \"contracts/OrderBook.sol\":8951:8952  0 */\n      0x00\n        /* \"contracts/OrderBook.sol\":8940:8947  current */\n      dup3\n        /* \"contracts/OrderBook.sol\":8940:8952  current != 0 */\n      eq\n        /* \"contracts/OrderBook.sol\":8933:9162  while (current != 0) {... */\n      tag_112\n      jumpi\n        /* \"contracts/OrderBook.sol\":8968:8980  uint256 next */\n      0x00\n        /* \"contracts/OrderBook.sol\":8983:8990  bidBook */\n      0x03\n        /* \"contracts/OrderBook.sol\":8983:8999  bidBook[current] */\n      0x00\n        /* \"contracts/OrderBook.sol\":8991:8998  current */\n      dup5\n        /* \"contracts/OrderBook.sol\":8983:8999  bidBook[current] */\n      dup2\n      mstore\n      0x20\n      add\n      swap1\n      dup2\n      mstore\n      0x20\n      add\n      0x00\n      keccak256\n        /* \"contracts/OrderBook.sol\":8983:9004  bidBook[current].next */\n      0x05\n      add\n      sload\n        /* \"contracts/OrderBook.sol\":8968:9004  uint256 next = bidBook[current].next */\n      swap1\n      pop\n        /* \"contracts/OrderBook.sol\":9018:9042  string memory currString */\n      0x00\n        /* \"contracts/OrderBook.sol\":9045:9070  Strings.toString(current) */\n      tag_113\n        /* \"contracts/OrderBook.sol\":9062:9069  current */\n      dup5\n        /* \"contracts/OrderBook.sol\":9045:9061  Strings.toString */\n      tag_114\n        /* \"contracts/OrderBook.sol\":9045:9070  Strings.toString(current) */\n      jump\t// in\n    tag_113:\n        /* \"contracts/OrderBook.sol\":9018:9070  string memory currString = Strings.toString(current) */\n      swap1\n      pop\n        /* \"contracts/OrderBook.sol\":9093:9123  concatenate(output,currString) */\n      tag_115\n        /* \"contracts/OrderBook.sol\":9105:9111  output */\n      dup4\n        /* \"contracts/OrderBook.sol\":9112:9122  currString */\n      dup3\n        /* \"contracts/OrderBook.sol\":9093:9104  concatenate */\n      tag_37\n        /* \"contracts/OrderBook.sol\":9093:9123  concatenate(output,currString) */\n      jump\t// in\n    tag_115:\n        /* \"contracts/OrderBook.sol\":9084:9123  output = concatenate(output,currString) */\n      swap3\n      pop\n        /* \"contracts/OrderBook.sol\":9147:9151  next */\n      dup2\n        /* \"contracts/OrderBook.sol\":9137:9151  current = next */\n      swap4\n      pop\n        /* \"contracts/OrderBook.sol\":8954:9162  {... */\n      pop\n      pop\n        /* \"contracts/OrderBook.sol\":8933:9162  while (current != 0) {... */\n      jump(tag_111)\n    tag_112:\n        /* \"contracts/OrderBook.sol\":9178:9184  output */\n      dup1\n        /* \"contracts/OrderBook.sol\":9171:9184  return output */\n      swap3\n      pop\n      pop\n      pop\n        /* \"contracts/OrderBook.sol\":8797:9191  function fetchBid() public view returns (string memory) {... */\n      swap1\n      jump\t// out\n        /* \"contracts/OrderBook.sol\":8017:8363  function cancelAsk (uint256 askId) public payable isPending(askBook[askId]) isAuthorised(askBook[askId], msg.sender) {... */\n    tag_32:\n        /* \"contracts/OrderBook.sol\":8077:8084  askBook */\n      0x06\n        /* \"contracts/OrderBook.sol\":8077:8091  askBook[askId] */\n      0x00\n        /* \"contracts/OrderBook.sol\":8085:8090  askId */\n      dup3\n        /* \"contracts/OrderBook.sol\":8077:8091  askBook[askId] */\n      dup2\n      mstore\n      0x20\n      add\n      swap1\n      dup2\n      mstore\n      0x20\n      add\n      0x00\n      keccak256\n        /* \"contracts/OrderBook.sol\":2181:2308  modifier isPending(order memory _order) {... */\n      mload(0x40)\n      dup1\n      0xe0\n      add\n      0x40\n      mstore\n      swap1\n      dup2\n      0x00\n      dup3\n      add\n      0x00\n      swap1\n      sload\n      swap1\n      0x0100\n      exp\n      swap1\n      div\n      0xffffffffffffffffffffffffffffffffffffffff\n      and\n      0xffffffffffffffffffffffffffffffffffffffff\n      and\n      0xffffffffffffffffffffffffffffffffffffffff\n      and\n      dup2\n      mstore\n      0x20\n      add\n      0x01\n      dup3\n      add\n      sload\n      dup2\n      mstore\n      0x20\n      add\n      0x02\n      dup3\n      add\n      sload\n      dup2\n      mstore\n      0x20\n      add\n      0x03\n      dup3\n      add\n      0x00\n      swap1\n      sload\n      swap1\n      0x0100\n      exp\n      swap1\n      div\n      0xff\n      and\n      0x01\n      dup2\n      gt\n      iszero\n      tag_116\n      jumpi\n      tag_117\n      tag_118\n      jump\t// in\n    tag_117:\n    tag_116:\n      0x01\n      dup2\n      gt\n      iszero\n      tag_119\n      jumpi\n      tag_120\n      tag_118\n      jump\t// in\n    tag_120:\n    tag_119:\n      dup2\n      mstore\n      0x20\n      add\n      0x04\n      dup3\n      add\n      sload\n      dup2\n      mstore\n      0x20\n      add\n      0x05\n      dup3\n      add\n      sload\n      dup2\n      mstore\n      0x20\n      add\n      0x06\n      dup3\n      add\n      sload\n      dup2\n      mstore\n      pop\n      pop\n        /* \"contracts/OrderBook.sol\":2255:2268  State.pending */\n      0x00\n        /* \"contracts/OrderBook.sol\":2239:2268  _order.state == State.pending */\n      0x01\n      dup2\n      gt\n      iszero\n      tag_122\n      jumpi\n      tag_123\n      tag_118\n      jump\t// in\n    tag_123:\n    tag_122:\n        /* \"contracts/OrderBook.sol\":2239:2245  _order */\n      dup2\n        /* \"contracts/OrderBook.sol\":2239:2251  _order.state */\n      0x60\n      add\n      mload\n        /* \"contracts/OrderBook.sol\":2239:2268  _order.state == State.pending */\n      0x01\n      dup2\n      gt\n      iszero\n      tag_124\n      jumpi\n      tag_125\n      tag_118\n      jump\t// in\n    tag_125:\n    tag_124:\n      eq\n        /* \"contracts/OrderBook.sol\":2231:2290  require(_order.state == State.pending, \"Order Not Pending\") */\n      tag_126\n      jumpi\n      mload(0x40)\n      0x08c379a000000000000000000000000000000000000000000000000000000000\n      dup2\n      mstore\n      0x04\n      add\n      tag_127\n      swap1\n      tag_128\n      jump\t// in\n    tag_127:\n      mload(0x40)\n      dup1\n      swap2\n      sub\n      swap1\n      revert\n    tag_126:\n        /* \"contracts/OrderBook.sol\":8106:8113  askBook */\n      0x06\n        /* \"contracts/OrderBook.sol\":8106:8120  askBook[askId] */\n      0x00\n        /* \"contracts/OrderBook.sol\":8114:8119  askId */\n      dup4\n        /* \"contracts/OrderBook.sol\":8106:8120  askBook[askId] */\n      dup2\n      mstore\n      0x20\n      add\n      swap1\n      dup2\n      mstore\n      0x20\n      add\n      0x00\n      keccak256\n        /* \"contracts/OrderBook.sol\":2314:2453  modifier isAuthorised(order memory _order, address sender) {... */\n      mload(0x40)\n      dup1\n      0xe0\n      add\n      0x40\n      mstore\n      swap1\n      dup2\n      0x00\n      dup3\n      add\n      0x00\n      swap1\n      sload\n      swap1\n      0x0100\n      exp\n      swap1\n      div\n      0xffffffffffffffffffffffffffffffffffffffff\n      and\n      0xffffffffffffffffffffffffffffffffffffffff\n      and\n      0xffffffffffffffffffffffffffffffffffffffff\n      and\n      dup2\n      mstore\n      0x20\n      add\n      0x01\n      dup3\n      add\n      sload\n      dup2\n      mstore\n      0x20\n      add\n      0x02\n      dup3\n      add\n      sload\n      dup2\n      mstore\n      0x20\n      add\n      0x03\n      dup3\n      add\n      0x00\n      swap1\n      sload\n      swap1\n      0x0100\n      exp\n      swap1\n      div\n      0xff\n      and\n      0x01\n      dup2\n      gt\n      iszero\n      tag_129\n      jumpi\n      tag_130\n      tag_118\n      jump\t// in\n    tag_130:\n    tag_129:\n      0x01\n      dup2\n      gt\n      iszero\n      tag_131\n      jumpi\n      tag_132\n      tag_118\n      jump\t// in\n    tag_132:\n    tag_131:\n      dup2\n      mstore\n      0x20\n      add\n      0x04\n      dup3\n      add\n      sload\n      dup2\n      mstore\n      0x20\n      add\n      0x05\n      dup3\n      add\n      sload\n      dup2\n      mstore\n      0x20\n      add\n      0x06\n      dup3\n      add\n      sload\n      dup2\n      mstore\n      pop\n      pop\n        /* \"contracts/OrderBook.sol\":8122:8132  msg.sender */\n      caller\n        /* \"contracts/OrderBook.sol\":2410:2416  sender */\n      dup1\n        /* \"contracts/OrderBook.sol\":2391:2416  _order.customer == sender */\n      0xffffffffffffffffffffffffffffffffffffffff\n      and\n        /* \"contracts/OrderBook.sol\":2391:2397  _order */\n      dup3\n        /* \"contracts/OrderBook.sol\":2391:2406  _order.customer */\n      0x00\n      add\n      mload\n        /* \"contracts/OrderBook.sol\":2391:2416  _order.customer == sender */\n      0xffffffffffffffffffffffffffffffffffffffff\n      and\n      eq\n        /* \"contracts/OrderBook.sol\":2383:2435  require(_order.customer == sender, \"Not Authorised\") */\n      tag_134\n      jumpi\n      mload(0x40)\n      0x08c379a000000000000000000000000000000000000000000000000000000000\n      dup2\n      mstore\n      0x04\n      add\n      tag_135\n      swap1\n      tag_136\n      jump\t// in\n    tag_135:\n      mload(0x40)\n      dup1\n      swap2\n      sub\n      swap1\n      revert\n    tag_134:\n        /* \"contracts/OrderBook.sol\":8144:8157  uint256 value */\n      0x00\n        /* \"contracts/OrderBook.sol\":8183:8192  msg.value */\n      callvalue\n        /* \"contracts/OrderBook.sol\":8160:8167  askBook */\n      0x06\n        /* \"contracts/OrderBook.sol\":8160:8174  askBook[askId] */\n      0x00\n        /* \"contracts/OrderBook.sol\":8168:8173  askId */\n      dup8\n        /* \"contracts/OrderBook.sol\":8160:8174  askBook[askId] */\n      dup2\n      mstore\n      0x20\n      add\n      swap1\n      dup2\n      mstore\n      0x20\n      add\n      0x00\n      keccak256\n        /* \"contracts/OrderBook.sol\":8160:8180  askBook[askId].value */\n      0x01\n      add\n      sload\n        /* \"contracts/OrderBook.sol\":8160:8192  askBook[askId].value - msg.value */\n      tag_138\n      swap2\n      swap1\n      tag_139\n      jump\t// in\n    tag_138:\n        /* \"contracts/OrderBook.sol\":8144:8192  uint256 value = askBook[askId].value - msg.value */\n      swap1\n      pop\n        /* \"contracts/OrderBook.sol\":8202:8218  deleteAsk(askId) */\n      tag_140\n        /* \"contracts/OrderBook.sol\":8212:8217  askId */\n      dup6\n        /* \"contracts/OrderBook.sol\":8202:8211  deleteAsk */\n      tag_141\n        /* \"contracts/OrderBook.sol\":8202:8218  deleteAsk(askId) */\n      jump\t// in\n    tag_140:\n        /* \"contracts/OrderBook.sol\":8228:8252  address payable receiver */\n      0x00\n        /* \"contracts/OrderBook.sol\":8263:8273  msg.sender */\n      caller\n        /* \"contracts/OrderBook.sol\":8228:8274  address payable receiver = payable(msg.sender) */\n      swap1\n      pop\n        /* \"contracts/OrderBook.sol\":8325:8356  askCancelled(msg.sender, askId) */\n      0x43e78b27488df9c2ee6374158e61dc6b31fca6cf0b52739358b4a7570682fbf1\n        /* \"contracts/OrderBook.sol\":8338:8348  msg.sender */\n      caller\n        /* \"contracts/OrderBook.sol\":8350:8355  askId */\n      dup8\n        /* \"contracts/OrderBook.sol\":8325:8356  askCancelled(msg.sender, askId) */\n      mload(0x40)\n      tag_142\n      swap3\n      swap2\n      swap1\n      tag_143\n      jump\t// in\n    tag_142:\n      mload(0x40)\n      dup1\n      swap2\n      sub\n      swap1\n      log1\n        /* \"contracts/OrderBook.sol\":8134:8363  {... */\n      pop\n      pop\n        /* \"contracts/OrderBook.sol\":2300:2301  _ */\n      pop\n      pop\n        /* \"contracts/OrderBook.sol\":8017:8363  function cancelAsk (uint256 askId) public payable isPending(askBook[askId]) isAuthorised(askBook[askId], msg.sender) {... */\n      pop\n      pop\n      jump\t// out\n        /* \"contracts/OrderBook.sol\":6486:6632  function concatenate(string memory a,string memory b) public pure returns (string memory){... */\n    tag_37:\n        /* \"contracts/OrderBook.sol\":6561:6574  string memory */\n      0x60\n        /* \"contracts/OrderBook.sol\":6616:6617  a */\n      dup3\n        /* \"contracts/OrderBook.sol\":6622:6623  b */\n      dup3\n        /* \"contracts/OrderBook.sol\":6599:6624  abi.encodePacked(a,' ',b) */\n      add(0x20, mload(0x40))\n      tag_145\n      swap3\n      swap2\n      swap1\n      tag_146\n      jump\t// in\n    tag_145:\n      mload(0x40)\n      0x20\n      dup2\n      dup4\n      sub\n      sub\n      dup2\n      mstore\n      swap1\n      0x40\n      mstore\n        /* \"contracts/OrderBook.sol\":6585:6625  return string(abi.encodePacked(a,' ',b)) */\n      swap1\n      pop\n        /* \"contracts/OrderBook.sol\":6486:6632  function concatenate(string memory a,string memory b) public pure returns (string memory){... */\n      swap3\n      swap2\n      pop\n      pop\n      jump\t// out\n        /* \"contracts/OrderBook.sol\":9197:9301  function getBidValue (uint256 id) public view returns(uint256) {... */\n    tag_42:\n        /* \"contracts/OrderBook.sol\":9251:9258  uint256 */\n      0x00\n        /* \"contracts/OrderBook.sol\":9277:9284  bidBook */\n      0x03\n        /* \"contracts/OrderBook.sol\":9277:9288  bidBook[id] */\n      0x00\n        /* \"contracts/OrderBook.sol\":9285:9287  id */\n      dup4\n        /* \"contracts/OrderBook.sol\":9277:9288  bidBook[id] */\n      dup2\n      mstore\n      0x20\n      add\n      swap1\n      dup2\n      mstore\n      0x20\n      add\n      0x00\n      keccak256\n        /* \"contracts/OrderBook.sol\":9277:9294  bidBook[id].value */\n      0x01\n      add\n      sload\n        /* \"contracts/OrderBook.sol\":9270:9294  return bidBook[id].value */\n      swap1\n      pop\n        /* \"contracts/OrderBook.sol\":9197:9301  function getBidValue (uint256 id) public view returns(uint256) {... */\n      swap2\n      swap1\n      pop\n      jump\t// out\n        /* \"contracts/OrderBook.sol\":9849:9951  function getBidPrev (uint256 id) public view returns(uint256) {... */\n    tag_48:\n        /* \"contracts/OrderBook.sol\":9902:9909  uint256 */\n      0x00\n        /* \"contracts/OrderBook.sol\":9928:9935  bidBook */\n      0x03\n        /* \"contracts/OrderBook.sol\":9928:9939  bidBook[id] */\n      0x00\n        /* \"contracts/OrderBook.sol\":9936:9938  id */\n      dup4\n        /* \"contracts/OrderBook.sol\":9928:9939  bidBook[id] */\n      dup2\n      mstore\n      0x20\n      add\n      swap1\n      dup2\n      mstore\n      0x20\n      add\n      0x00\n      keccak256\n        /* \"contracts/OrderBook.sol\":9928:9944  bidBook[id].prev */\n      0x06\n      add\n      sload\n        /* \"contracts/OrderBook.sol\":9921:9944  return bidBook[id].prev */\n      swap1\n      pop\n        /* \"contracts/OrderBook.sol\":9849:9951  function getBidPrev (uint256 id) public view returns(uint256) {... */\n      swap2\n      swap1\n      pop\n      jump\t// out\n        /* \"contracts/OrderBook.sol\":8397:8791  function fetchAsk() public view returns (string memory) {... */\n    tag_52:\n        /* \"contracts/OrderBook.sol\":8438:8451  string memory */\n      0x60\n        /* \"contracts/OrderBook.sol\":8463:8478  uint256 current */\n      0x00\n        /* \"contracts/OrderBook.sol\":8481:8488  askHead */\n      sload(0x07)\n        /* \"contracts/OrderBook.sol\":8463:8488  uint256 current = askHead */\n      swap1\n      pop\n        /* \"contracts/OrderBook.sol\":8498:8518  string memory output */\n      0x00\n        /* \"contracts/OrderBook.sol\":8498:8523  string memory output = \"\" */\n      mload(0x40)\n      dup1\n      0x20\n      add\n      0x40\n      mstore\n      dup1\n      0x00\n      dup2\n      mstore\n      pop\n      swap1\n      pop\n        /* \"contracts/OrderBook.sol\":8533:8762  while (current != 0) {... */\n    tag_150:\n        /* \"contracts/OrderBook.sol\":8551:8552  0 */\n      0x00\n        /* \"contracts/OrderBook.sol\":8540:8547  current */\n      dup3\n        /* \"contracts/OrderBook.sol\":8540:8552  current != 0 */\n      eq\n        /* \"contracts/OrderBook.sol\":8533:8762  while (current != 0) {... */\n      tag_151\n      jumpi\n        /* \"contracts/OrderBook.sol\":8568:8580  uint256 next */\n      0x00\n        /* \"contracts/OrderBook.sol\":8583:8590  askBook */\n      0x06\n        /* \"contracts/OrderBook.sol\":8583:8599  askBook[current] */\n      0x00\n        /* \"contracts/OrderBook.sol\":8591:8598  current */\n      dup5\n        /* \"contracts/OrderBook.sol\":8583:8599  askBook[current] */\n      dup2\n      mstore\n      0x20\n      add\n      swap1\n      dup2\n      mstore\n      0x20\n      add\n      0x00\n      keccak256\n        /* \"contracts/OrderBook.sol\":8583:8604  askBook[current].next */\n      0x05\n      add\n      sload\n        /* \"contracts/OrderBook.sol\":8568:8604  uint256 next = askBook[current].next */\n      swap1\n      pop\n        /* \"contracts/OrderBook.sol\":8618:8642  string memory currString */\n      0x00\n        /* \"contracts/OrderBook.sol\":8645:8670  Strings.toString(current) */\n      tag_152\n        /* \"contracts/OrderBook.sol\":8662:8669  current */\n      dup5\n        /* \"contracts/OrderBook.sol\":8645:8661  Strings.toString */\n      tag_114\n        /* \"contracts/OrderBook.sol\":8645:8670  Strings.toString(current) */\n      jump\t// in\n    tag_152:\n        /* \"contracts/OrderBook.sol\":8618:8670  string memory currString = Strings.toString(current) */\n      swap1\n      pop\n        /* \"contracts/OrderBook.sol\":8693:8723  concatenate(output,currString) */\n      tag_153\n        /* \"contracts/OrderBook.sol\":8705:8711  output */\n      dup4\n        /* \"contracts/OrderBook.sol\":8712:8722  currString */\n      dup3\n        /* \"contracts/OrderBook.sol\":8693:8704  concatenate */\n      tag_37\n        /* \"contracts/OrderBook.sol\":8693:8723  concatenate(output,currString) */\n      jump\t// in\n    tag_153:\n        /* \"contracts/OrderBook.sol\":8684:8723  output = concatenate(output,currString) */\n      swap3\n      pop\n        /* \"contracts/OrderBook.sol\":8747:8751  next */\n      dup2\n        /* \"contracts/OrderBook.sol\":8737:8751  current = next */\n      swap4\n      pop\n        /* \"contracts/OrderBook.sol\":8554:8762  {... */\n      pop\n      pop\n        /* \"contracts/OrderBook.sol\":8533:8762  while (current != 0) {... */\n      jump(tag_150)\n    tag_151:\n        /* \"contracts/OrderBook.sol\":8778:8784  output */\n      dup1\n        /* \"contracts/OrderBook.sol\":8771:8784  return output */\n      swap3\n      pop\n      pop\n      pop\n        /* \"contracts/OrderBook.sol\":8397:8791  function fetchAsk() public view returns (string memory) {... */\n      swap1\n      jump\t// out\n        /* \"contracts/OrderBook.sol\":9525:9627  function getAskState (uint256 id) public view returns(State) {... */\n    tag_57:\n        /* \"contracts/OrderBook.sol\":9579:9584  State */\n      0x00\n        /* \"contracts/OrderBook.sol\":9603:9610  askBook */\n      0x06\n        /* \"contracts/OrderBook.sol\":9603:9614  askBook[id] */\n      0x00\n        /* \"contracts/OrderBook.sol\":9611:9613  id */\n      dup4\n        /* \"contracts/OrderBook.sol\":9603:9614  askBook[id] */\n      dup2\n      mstore\n      0x20\n      add\n      swap1\n      dup2\n      mstore\n      0x20\n      add\n      0x00\n      keccak256\n        /* \"contracts/OrderBook.sol\":9603:9620  askBook[id].state */\n      0x03\n      add\n      0x00\n      swap1\n      sload\n      swap1\n      0x0100\n      exp\n      swap1\n      div\n      0xff\n      and\n        /* \"contracts/OrderBook.sol\":9596:9620  return askBook[id].state */\n      swap1\n      pop\n        /* \"contracts/OrderBook.sol\":9525:9627  function getAskState (uint256 id) public view returns(State) {... */\n      swap2\n      swap1\n      pop\n      jump\t// out\n        /* \"contracts/OrderBook.sol\":1662:1684  uint256 public bidHead */\n    tag_62:\n      sload(0x04)\n      dup2\n      jump\t// out\n        /* \"contracts/OrderBook.sol\":9741:9843  function getAskNext (uint256 id) public view returns(uint256) {... */\n    tag_67:\n        /* \"contracts/OrderBook.sol\":9794:9801  uint256 */\n      0x00\n        /* \"contracts/OrderBook.sol\":9820:9827  askBook */\n      0x06\n        /* \"contracts/OrderBook.sol\":9820:9831  askBook[id] */\n      0x00\n        /* \"contracts/OrderBook.sol\":9828:9830  id */\n      dup4\n        /* \"contracts/OrderBook.sol\":9820:9831  askBook[id] */\n      dup2\n      mstore\n      0x20\n      add\n      swap1\n      dup2\n      mstore\n      0x20\n      add\n      0x00\n      keccak256\n        /* \"contracts/OrderBook.sol\":9820:9836  askBook[id].next */\n      0x05\n      add\n      sload\n        /* \"contracts/OrderBook.sol\":9813:9836  return askBook[id].next */\n      swap1\n      pop\n        /* \"contracts/OrderBook.sol\":9741:9843  function getAskNext (uint256 id) public view returns(uint256) {... */\n      swap2\n      swap1\n      pop\n      jump\t// out\n        /* \"contracts/OrderBook.sol\":7520:8011  function placeAsk (uint256 price) public payable {... */\n    tag_71:\n        /* \"contracts/OrderBook.sol\":7596:7597  0 */\n      0x00\n        /* \"contracts/OrderBook.sol\":7587:7592  price */\n      dup2\n        /* \"contracts/OrderBook.sol\":7587:7597  price >= 0 */\n      lt\n      iszero\n        /* \"contracts/OrderBook.sol\":7579:7633  require(price >= 0, \"price value must be more than 0\") */\n      tag_157\n      jumpi\n      mload(0x40)\n      0x08c379a000000000000000000000000000000000000000000000000000000000\n      dup2\n      mstore\n      0x04\n      add\n      tag_158\n      swap1\n      tag_159\n      jump\t// in\n    tag_158:\n      mload(0x40)\n      dup1\n      swap2\n      sub\n      swap1\n      revert\n    tag_157:\n        /* \"contracts/OrderBook.sol\":7664:7669  price */\n      dup1\n        /* \"contracts/OrderBook.sol\":7651:7660  msg.value */\n      callvalue\n        /* \"contracts/OrderBook.sol\":7651:7669  msg.value >= price */\n      lt\n      iszero\n        /* \"contracts/OrderBook.sol\":7643:7704  require(msg.value >= price, \"Not enough blance to place ask\") */\n      tag_160\n      jumpi\n      mload(0x40)\n      0x08c379a000000000000000000000000000000000000000000000000000000000\n      dup2\n      mstore\n      0x04\n      add\n      tag_161\n      swap1\n      tag_162\n      jump\t// in\n    tag_161:\n      mload(0x40)\n      dup1\n      swap2\n      sub\n      swap1\n      revert\n    tag_160:\n        /* \"contracts/OrderBook.sol\":7714:7726  uint256 time */\n      0x00\n        /* \"contracts/OrderBook.sol\":7729:7744  block.timestamp */\n      timestamp\n        /* \"contracts/OrderBook.sol\":7714:7744  uint256 time = block.timestamp */\n      swap1\n      pop\n        /* \"contracts/OrderBook.sol\":7754:7779  uint256 commissionedPrice */\n      0x00\n        /* \"contracts/OrderBook.sol\":7813:7816  100 */\n      0x64\n        /* \"contracts/OrderBook.sol\":7799:7809  commission */\n      sload(0x02)\n        /* \"contracts/OrderBook.sol\":7795:7798  100 */\n      0x64\n        /* \"contracts/OrderBook.sol\":7795:7809  100-commission */\n      tag_163\n      swap2\n      swap1\n      tag_139\n      jump\t// in\n    tag_163:\n        /* \"contracts/OrderBook.sol\":7782:7791  msg.value */\n      callvalue\n        /* \"contracts/OrderBook.sol\":7782:7810  msg.value * (100-commission) */\n      tag_164\n      swap2\n      swap1\n      tag_165\n      jump\t// in\n    tag_164:\n        /* \"contracts/OrderBook.sol\":7782:7816  msg.value * (100-commission) / 100 */\n      tag_166\n      swap2\n      swap1\n      tag_167\n      jump\t// in\n    tag_166:\n        /* \"contracts/OrderBook.sol\":7754:7816  uint256 commissionedPrice = msg.value * (100-commission) / 100 */\n      swap1\n      pop\n        /* \"contracts/OrderBook.sol\":7826:7845  order memory newAsk */\n      0x00\n        /* \"contracts/OrderBook.sol\":7848:7892  createAsk(msg.sender,commissionedPrice,time) */\n      tag_168\n        /* \"contracts/OrderBook.sol\":7858:7868  msg.sender */\n      caller\n        /* \"contracts/OrderBook.sol\":7869:7886  commissionedPrice */\n      dup4\n        /* \"contracts/OrderBook.sol\":7887:7891  time */\n      dup6\n        /* \"contracts/OrderBook.sol\":7848:7857  createAsk */\n      tag_169\n        /* \"contracts/OrderBook.sol\":7848:7892  createAsk(msg.sender,commissionedPrice,time) */\n      jump\t// in\n    tag_168:\n        /* \"contracts/OrderBook.sol\":7826:7892  order memory newAsk = createAsk(msg.sender,commissionedPrice,time) */\n      swap1\n      pop\n        /* \"contracts/OrderBook.sol\":7902:7917  sortAsk(newAsk) */\n      tag_170\n        /* \"contracts/OrderBook.sol\":7910:7916  newAsk */\n      dup2\n        /* \"contracts/OrderBook.sol\":7902:7909  sortAsk */\n      tag_171\n        /* \"contracts/OrderBook.sol\":7902:7917  sortAsk(newAsk) */\n      jump\t// in\n    tag_170:\n        /* \"contracts/OrderBook.sol\":7927:7933  _owner */\n      0x01\n      0x00\n      swap1\n      sload\n      swap1\n      0x0100\n      exp\n      swap1\n      div\n      0xffffffffffffffffffffffffffffffffffffffff\n      and\n        /* \"contracts/OrderBook.sol\":7927:7942  _owner.transfer */\n      0xffffffffffffffffffffffffffffffffffffffff\n      and\n        /* \"contracts/OrderBook.sol\":7927:7961  _owner.transfer(commissionedPrice) */\n      0x08fc\n        /* \"contracts/OrderBook.sol\":7943:7960  commissionedPrice */\n      dup4\n        /* \"contracts/OrderBook.sol\":7927:7961  _owner.transfer(commissionedPrice) */\n      swap1\n      dup2\n      iszero\n      mul\n      swap1\n      mload(0x40)\n      0x00\n      mload(0x40)\n      dup1\n      dup4\n      sub\n      dup2\n      dup6\n      dup9\n      dup9\n      call\n      swap4\n      pop\n      pop\n      pop\n      pop\n      iszero\n      dup1\n      iszero\n      tag_173\n      jumpi\n      returndatasize\n      0x00\n      dup1\n      returndatacopy\n      revert(0x00, returndatasize)\n    tag_173:\n      pop\n        /* \"contracts/OrderBook.sol\":7976:8004  askPlaced(msg.sender, price) */\n      0x090819816e3985f3da86030dc7384e3afcc4912920b30c9e9d28f5b967f90816\n        /* \"contracts/OrderBook.sol\":7986:7996  msg.sender */\n      caller\n        /* \"contracts/OrderBook.sol\":7998:8003  price */\n      dup6\n        /* \"contracts/OrderBook.sol\":7976:8004  askPlaced(msg.sender, price) */\n      mload(0x40)\n      tag_174\n      swap3\n      swap2\n      swap1\n      tag_143\n      jump\t// in\n    tag_174:\n      mload(0x40)\n      dup1\n      swap2\n      sub\n      swap1\n      log1\n        /* \"contracts/OrderBook.sol\":7569:8011  {... */\n      pop\n      pop\n      pop\n        /* \"contracts/OrderBook.sol\":7520:8011  function placeAsk (uint256 price) public payable {... */\n      pop\n      jump\t// out\n        /* \"contracts/OrderBook.sol\":1759:1781  uint256 public askHead */\n    tag_74:\n      sload(0x07)\n      dup2\n      jump\t// out\n        /* \"contracts/OrderBook.sol\":7166:7514  function cancelBid (uint256 bidId) public payable isPending(bidBook[bidId]) isAuthorised(bidBook[bidId], msg.sender) {... */\n    tag_78:\n        /* \"contracts/OrderBook.sol\":7226:7233  bidBook */\n      0x03\n        /* \"contracts/OrderBook.sol\":7226:7240  bidBook[bidId] */\n      0x00\n        /* \"contracts/OrderBook.sol\":7234:7239  bidId */\n      dup3\n        /* \"contracts/OrderBook.sol\":7226:7240  bidBook[bidId] */\n      dup2\n      mstore\n      0x20\n      add\n      swap1\n      dup2\n      mstore\n      0x20\n      add\n      0x00\n      keccak256\n        /* \"contracts/OrderBook.sol\":2181:2308  modifier isPending(order memory _order) {... */\n      mload(0x40)\n      dup1\n      0xe0\n      add\n      0x40\n      mstore\n      swap1\n      dup2\n      0x00\n      dup3\n      add\n      0x00\n      swap1\n      sload\n      swap1\n      0x0100\n      exp\n      swap1\n      div\n      0xffffffffffffffffffffffffffffffffffffffff\n      and\n      0xffffffffffffffffffffffffffffffffffffffff\n      and\n      0xffffffffffffffffffffffffffffffffffffffff\n      and\n      dup2\n      mstore\n      0x20\n      add\n      0x01\n      dup3\n      add\n      sload\n      dup2\n      mstore\n      0x20\n      add\n      0x02\n      dup3\n      add\n      sload\n      dup2\n      mstore\n      0x20\n      add\n      0x03\n      dup3\n      add\n      0x00\n      swap1\n      sload\n      swap1\n      0x0100\n      exp\n      swap1\n      div\n      0xff\n      and\n      0x01\n      dup2\n      gt\n      iszero\n      tag_175\n      jumpi\n      tag_176\n      tag_118\n      jump\t// in\n    tag_176:\n    tag_175:\n      0x01\n      dup2\n      gt\n      iszero\n      tag_177\n      jumpi\n      tag_178\n      tag_118\n      jump\t// in\n    tag_178:\n    tag_177:\n      dup2\n      mstore\n      0x20\n      add\n      0x04\n      dup3\n      add\n      sload\n      dup2\n      mstore\n      0x20\n      add\n      0x05\n      dup3\n      add\n      sload\n      dup2\n      mstore\n      0x20\n      add\n      0x06\n      dup3\n      add\n      sload\n      dup2\n      mstore\n      pop\n      pop\n        /* \"contracts/OrderBook.sol\":2255:2268  State.pending */\n      0x00\n        /* \"contracts/OrderBook.sol\":2239:2268  _order.state == State.pending */\n      0x01\n      dup2\n      gt\n      iszero\n      tag_180\n      jumpi\n      tag_181\n      tag_118\n      jump\t// in\n    tag_181:\n    tag_180:\n        /* \"contracts/OrderBook.sol\":2239:2245  _order */\n      dup2\n        /* \"contracts/OrderBook.sol\":2239:2251  _order.state */\n      0x60\n      add\n      mload\n        /* \"contracts/OrderBook.sol\":2239:2268  _order.state == State.pending */\n      0x01\n      dup2\n      gt\n      iszero\n      tag_182\n      jumpi\n      tag_183\n      tag_118\n      jump\t// in\n    tag_183:\n    tag_182:\n      eq\n        /* \"contracts/OrderBook.sol\":2231:2290  require(_order.state == State.pending, \"Order Not Pending\") */\n      tag_184\n      jumpi\n      mload(0x40)\n      0x08c379a000000000000000000000000000000000000000000000000000000000\n      dup2\n      mstore\n      0x04\n      add\n      tag_185\n      swap1\n      tag_128\n      jump\t// in\n    tag_185:\n      mload(0x40)\n      dup1\n      swap2\n      sub\n      swap1\n      revert\n    tag_184:\n        /* \"contracts/OrderBook.sol\":7255:7262  bidBook */\n      0x03\n        /* \"contracts/OrderBook.sol\":7255:7269  bidBook[bidId] */\n      0x00\n        /* \"contracts/OrderBook.sol\":7263:7268  bidId */\n      dup4\n        /* \"contracts/OrderBook.sol\":7255:7269  bidBook[bidId] */\n      dup2\n      mstore\n      0x20\n      add\n      swap1\n      dup2\n      mstore\n      0x20\n      add\n      0x00\n      keccak256\n        /* \"contracts/OrderBook.sol\":2314:2453  modifier isAuthorised(order memory _order, address sender) {... */\n      mload(0x40)\n      dup1\n      0xe0\n      add\n      0x40\n      mstore\n      swap1\n      dup2\n      0x00\n      dup3\n      add\n      0x00\n      swap1\n      sload\n      swap1\n      0x0100\n      exp\n      swap1\n      div\n      0xffffffffffffffffffffffffffffffffffffffff\n      and\n      0xffffffffffffffffffffffffffffffffffffffff\n      and\n      0xffffffffffffffffffffffffffffffffffffffff\n      and\n      dup2\n      mstore\n      0x20\n      add\n      0x01\n      dup3\n      add\n      sload\n      dup2\n      mstore\n      0x20\n      add\n      0x02\n      dup3\n      add\n      sload\n      dup2\n      mstore\n      0x20\n      add\n      0x03\n      dup3\n      add\n      0x00\n      swap1\n      sload\n      swap1\n      0x0100\n      exp\n      swap1\n      div\n      0xff\n      and\n      0x01\n      dup2\n      gt\n      iszero\n      tag_186\n      jumpi\n      tag_187\n      tag_118\n      jump\t// in\n    tag_187:\n    tag_186:\n      0x01\n      dup2\n      gt\n      iszero\n      tag_188\n      jumpi\n      tag_189\n      tag_118\n      jump\t// in\n    tag_189:\n    tag_188:\n      dup2\n      mstore\n      0x20\n      add\n      0x04\n      dup3\n      add\n      sload\n      dup2\n      mstore\n      0x20\n      add\n      0x05\n      dup3\n      add\n      sload\n      dup2\n      mstore\n      0x20\n      add\n      0x06\n      dup3\n      add\n      sload\n      dup2\n      mstore\n      pop\n      pop\n        /* \"contracts/OrderBook.sol\":7271:7281  msg.sender */\n      caller\n        /* \"contracts/OrderBook.sol\":2410:2416  sender */\n      dup1\n        /* \"contracts/OrderBook.sol\":2391:2416  _order.customer == sender */\n      0xffffffffffffffffffffffffffffffffffffffff\n      and\n        /* \"contracts/OrderBook.sol\":2391:2397  _order */\n      dup3\n        /* \"contracts/OrderBook.sol\":2391:2406  _order.customer */\n      0x00\n      add\n      mload\n        /* \"contracts/OrderBook.sol\":2391:2416  _order.customer == sender */\n      0xffffffffffffffffffffffffffffffffffffffff\n      and\n      eq\n        /* \"contracts/OrderBook.sol\":2383:2435  require(_order.customer == sender, \"Not Authorised\") */\n      tag_191\n      jumpi\n      mload(0x40)\n      0x08c379a000000000000000000000000000000000000000000000000000000000\n      dup2\n      mstore\n      0x04\n      add\n      tag_192\n      swap1\n      tag_136\n      jump\t// in\n    tag_192:\n      mload(0x40)\n      dup1\n      swap2\n      sub\n      swap1\n      revert\n    tag_191:\n        /* \"contracts/OrderBook.sol\":7293:7306  uint256 value */\n      0x00\n        /* \"contracts/OrderBook.sol\":7332:7341  msg.value */\n      callvalue\n        /* \"contracts/OrderBook.sol\":7309:7316  bidBook */\n      0x03\n        /* \"contracts/OrderBook.sol\":7309:7323  bidBook[bidId] */\n      0x00\n        /* \"contracts/OrderBook.sol\":7317:7322  bidId */\n      dup8\n        /* \"contracts/OrderBook.sol\":7309:7323  bidBook[bidId] */\n      dup2\n      mstore\n      0x20\n      add\n      swap1\n      dup2\n      mstore\n      0x20\n      add\n      0x00\n      keccak256\n        /* \"contracts/OrderBook.sol\":7309:7329  bidBook[bidId].value */\n      0x01\n      add\n      sload\n        /* \"contracts/OrderBook.sol\":7309:7341  bidBook[bidId].value - msg.value */\n      tag_194\n      swap2\n      swap1\n      tag_139\n      jump\t// in\n    tag_194:\n        /* \"contracts/OrderBook.sol\":7293:7341  uint256 value = bidBook[bidId].value - msg.value */\n      swap1\n      pop\n        /* \"contracts/OrderBook.sol\":7351:7367  deleteAsk(bidId) */\n      tag_195\n        /* \"contracts/OrderBook.sol\":7361:7366  bidId */\n      dup6\n        /* \"contracts/OrderBook.sol\":7351:7360  deleteAsk */\n      tag_141\n        /* \"contracts/OrderBook.sol\":7351:7367  deleteAsk(bidId) */\n      jump\t// in\n    tag_195:\n        /* \"contracts/OrderBook.sol\":7377:7401  address payable receiver */\n      0x00\n        /* \"contracts/OrderBook.sol\":7412:7422  msg.sender */\n      caller\n        /* \"contracts/OrderBook.sol\":7377:7423  address payable receiver = payable(msg.sender) */\n      swap1\n      pop\n        /* \"contracts/OrderBook.sol\":7476:7507  bidCancelled(msg.sender, bidId) */\n      0xd24436b2ccb68c2831794915323c111aa63f4708ef97b7ac8e64fa8f8a97c0fb\n        /* \"contracts/OrderBook.sol\":7489:7499  msg.sender */\n      caller\n        /* \"contracts/OrderBook.sol\":7501:7506  bidId */\n      dup8\n        /* \"contracts/OrderBook.sol\":7476:7507  bidCancelled(msg.sender, bidId) */\n      mload(0x40)\n      tag_196\n      swap3\n      swap2\n      swap1\n      tag_143\n      jump\t// in\n    tag_196:\n      mload(0x40)\n      dup1\n      swap2\n      sub\n      swap1\n      log1\n        /* \"contracts/OrderBook.sol\":7283:7514  {... */\n      pop\n      pop\n        /* \"contracts/OrderBook.sol\":2300:2301  _ */\n      pop\n      pop\n        /* \"contracts/OrderBook.sol\":7166:7514  function cancelBid (uint256 bidId) public payable isPending(bidBook[bidId]) isAuthorised(bidBook[bidId], msg.sender) {... */\n      pop\n      pop\n      jump\t// out\n        /* \"contracts/OrderBook.sol\":6669:7160  function placeBid (uint256 price) public payable {... */\n    tag_81:\n        /* \"contracts/OrderBook.sol\":6745:6746  0 */\n      0x00\n        /* \"contracts/OrderBook.sol\":6736:6741  price */\n      dup2\n        /* \"contracts/OrderBook.sol\":6736:6746  price >= 0 */\n      lt\n      iszero\n        /* \"contracts/OrderBook.sol\":6728:6782  require(price >= 0, \"price value must be more than 0\") */\n      tag_198\n      jumpi\n      mload(0x40)\n      0x08c379a000000000000000000000000000000000000000000000000000000000\n      dup2\n      mstore\n      0x04\n      add\n      tag_199\n      swap1\n      tag_159\n      jump\t// in\n    tag_199:\n      mload(0x40)\n      dup1\n      swap2\n      sub\n      swap1\n      revert\n    tag_198:\n        /* \"contracts/OrderBook.sol\":6813:6818  price */\n      dup1\n        /* \"contracts/OrderBook.sol\":6800:6809  msg.value */\n      callvalue\n        /* \"contracts/OrderBook.sol\":6800:6818  msg.value >= price */\n      lt\n      iszero\n        /* \"contracts/OrderBook.sol\":6792:6853  require(msg.value >= price, \"Not enough blance to place bid\") */\n      tag_200\n      jumpi\n      mload(0x40)\n      0x08c379a000000000000000000000000000000000000000000000000000000000\n      dup2\n      mstore\n      0x04\n      add\n      tag_201\n      swap1\n      tag_202\n      jump\t// in\n    tag_201:\n      mload(0x40)\n      dup1\n      swap2\n      sub\n      swap1\n      revert\n    tag_200:\n        /* \"contracts/OrderBook.sol\":6863:6875  uint256 time */\n      0x00\n        /* \"contracts/OrderBook.sol\":6878:6893  block.timestamp */\n      timestamp\n        /* \"contracts/OrderBook.sol\":6863:6893  uint256 time = block.timestamp */\n      swap1\n      pop\n        /* \"contracts/OrderBook.sol\":6903:6928  uint256 commissionedPrice */\n      0x00\n        /* \"contracts/OrderBook.sol\":6962:6965  100 */\n      0x64\n        /* \"contracts/OrderBook.sol\":6948:6958  commission */\n      sload(0x02)\n        /* \"contracts/OrderBook.sol\":6944:6947  100 */\n      0x64\n        /* \"contracts/OrderBook.sol\":6944:6958  100-commission */\n      tag_203\n      swap2\n      swap1\n      tag_139\n      jump\t// in\n    tag_203:\n        /* \"contracts/OrderBook.sol\":6931:6940  msg.value */\n      callvalue\n        /* \"contracts/OrderBook.sol\":6931:6959  msg.value * (100-commission) */\n      tag_204\n      swap2\n      swap1\n      tag_165\n      jump\t// in\n    tag_204:\n        /* \"contracts/OrderBook.sol\":6931:6965  msg.value * (100-commission) / 100 */\n      tag_205\n      swap2\n      swap1\n      tag_167\n      jump\t// in\n    tag_205:\n        /* \"contracts/OrderBook.sol\":6903:6965  uint256 commissionedPrice = msg.value * (100-commission) / 100 */\n      swap1\n      pop\n        /* \"contracts/OrderBook.sol\":6975:6994  order memory newBid */\n      0x00\n        /* \"contracts/OrderBook.sol\":6997:7041  createBid(msg.sender,commissionedPrice,time) */\n      tag_206\n        /* \"contracts/OrderBook.sol\":7007:7017  msg.sender */\n      caller\n        /* \"contracts/OrderBook.sol\":7018:7035  commissionedPrice */\n      dup4\n        /* \"contracts/OrderBook.sol\":7036:7040  time */\n      dup6\n        /* \"contracts/OrderBook.sol\":6997:7006  createBid */\n      tag_207\n        /* \"contracts/OrderBook.sol\":6997:7041  createBid(msg.sender,commissionedPrice,time) */\n      jump\t// in\n    tag_206:\n        /* \"contracts/OrderBook.sol\":6975:7041  order memory newBid = createBid(msg.sender,commissionedPrice,time) */\n      swap1\n      pop\n        /* \"contracts/OrderBook.sol\":7051:7066  sortBid(newBid) */\n      tag_208\n        /* \"contracts/OrderBook.sol\":7059:7065  newBid */\n      dup2\n        /* \"contracts/OrderBook.sol\":7051:7058  sortBid */\n      tag_209\n        /* \"contracts/OrderBook.sol\":7051:7066  sortBid(newBid) */\n      jump\t// in\n    tag_208:\n        /* \"contracts/OrderBook.sol\":7076:7082  _owner */\n      0x01\n      0x00\n      swap1\n      sload\n      swap1\n      0x0100\n      exp\n      swap1\n      div\n      0xffffffffffffffffffffffffffffffffffffffff\n      and\n        /* \"contracts/OrderBook.sol\":7076:7091  _owner.transfer */\n      0xffffffffffffffffffffffffffffffffffffffff\n      and\n        /* \"contracts/OrderBook.sol\":7076:7110  _owner.transfer(commissionedPrice) */\n      0x08fc\n        /* \"contracts/OrderBook.sol\":7092:7109  commissionedPrice */\n      dup4\n        /* \"contracts/OrderBook.sol\":7076:7110  _owner.transfer(commissionedPrice) */\n      swap1\n      dup2\n      iszero\n      mul\n      swap1\n      mload(0x40)\n      0x00\n      mload(0x40)\n      dup1\n      dup4\n      sub\n      dup2\n      dup6\n      dup9\n      dup9\n      call\n      swap4\n      pop\n      pop\n      pop\n      pop\n      iszero\n      dup1\n      iszero\n      tag_211\n      jumpi\n      returndatasize\n      0x00\n      dup1\n      returndatacopy\n      revert(0x00, returndatasize)\n    tag_211:\n      pop\n        /* \"contracts/OrderBook.sol\":7125:7153  bidPlaced(msg.sender, price) */\n      0xf7d2dbe81680a1f0c2b9aaeb63d4184de5c64951ba06bf1b5900341760775a22\n        /* \"contracts/OrderBook.sol\":7135:7145  msg.sender */\n      caller\n        /* \"contracts/OrderBook.sol\":7147:7152  price */\n      dup6\n        /* \"contracts/OrderBook.sol\":7125:7153  bidPlaced(msg.sender, price) */\n      mload(0x40)\n      tag_212\n      swap3\n      swap2\n      swap1\n      tag_143\n      jump\t// in\n    tag_212:\n      mload(0x40)\n      dup1\n      swap2\n      sub\n      swap1\n      log1\n        /* \"contracts/OrderBook.sol\":6718:7160  {... */\n      pop\n      pop\n      pop\n        /* \"contracts/OrderBook.sol\":6669:7160  function placeBid (uint256 price) public payable {... */\n      pop\n      jump\t// out\n        /* \"contracts/OrderBook.sol\":9633:9735  function getBidNext (uint256 id) public view returns(uint256) {... */\n    tag_85:\n        /* \"contracts/OrderBook.sol\":9686:9693  uint256 */\n      0x00\n        /* \"contracts/OrderBook.sol\":9712:9719  bidBook */\n      0x03\n        /* \"contracts/OrderBook.sol\":9712:9723  bidBook[id] */\n      0x00\n        /* \"contracts/OrderBook.sol\":9720:9722  id */\n      dup4\n        /* \"contracts/OrderBook.sol\":9712:9723  bidBook[id] */\n      dup2\n      mstore\n      0x20\n      add\n      swap1\n      dup2\n      mstore\n      0x20\n      add\n      0x00\n      keccak256\n        /* \"contracts/OrderBook.sol\":9712:9728  bidBook[id].next */\n      0x05\n      add\n      sload\n        /* \"contracts/OrderBook.sol\":9705:9728  return bidBook[id].next */\n      swap1\n      pop\n        /* \"contracts/OrderBook.sol\":9633:9735  function getBidNext (uint256 id) public view returns(uint256) {... */\n      swap2\n      swap1\n      pop\n      jump\t// out\n        /* \"contracts/OrderBook.sol\":1787:1810  uint256 public askCount */\n    tag_89:\n      sload(0x08)\n      dup2\n      jump\t// out\n        /* \"contracts/OrderBook.sol\":1690:1713  uint256 public bidCount */\n    tag_93:\n      sload(0x05)\n      dup2\n      jump\t// out\n        /* \"contracts/OrderBook.sol\":9417:9519  function getBidState (uint256 id) public view returns(State) {... */\n    tag_98:\n        /* \"contracts/OrderBook.sol\":9471:9476  State */\n      0x00\n        /* \"contracts/OrderBook.sol\":9495:9502  bidBook */\n      0x03\n        /* \"contracts/OrderBook.sol\":9495:9506  bidBook[id] */\n      0x00\n        /* \"contracts/OrderBook.sol\":9503:9505  id */\n      dup4\n        /* \"contracts/OrderBook.sol\":9495:9506  bidBook[id] */\n      dup2\n      mstore\n      0x20\n      add\n      swap1\n      dup2\n      mstore\n      0x20\n      add\n      0x00\n      keccak256\n        /* \"contracts/OrderBook.sol\":9495:9512  bidBook[id].state */\n      0x03\n      add\n      0x00\n      swap1\n      sload\n      swap1\n      0x0100\n      exp\n      swap1\n      div\n      0xff\n      and\n        /* \"contracts/OrderBook.sol\":9488:9512  return bidBook[id].state */\n      swap1\n      pop\n        /* \"contracts/OrderBook.sol\":9417:9519  function getBidState (uint256 id) public view returns(State) {... */\n      swap2\n      swap1\n      pop\n      jump\t// out\n        /* \"contracts/OrderBook.sol\":9957:10059  function getAskPrev (uint256 id) public view returns(uint256) {... */\n    tag_103:\n        /* \"contracts/OrderBook.sol\":10010:10017  uint256 */\n      0x00\n        /* \"contracts/OrderBook.sol\":10036:10043  askBook */\n      0x06\n        /* \"contracts/OrderBook.sol\":10036:10047  askBook[id] */\n      0x00\n        /* \"contracts/OrderBook.sol\":10044:10046  id */\n      dup4\n        /* \"contracts/OrderBook.sol\":10036:10047  askBook[id] */\n      dup2\n      mstore\n      0x20\n      add\n      swap1\n      dup2\n      mstore\n      0x20\n      add\n      0x00\n      keccak256\n        /* \"contracts/OrderBook.sol\":10036:10052  askBook[id].prev */\n      0x06\n      add\n      sload\n        /* \"contracts/OrderBook.sol\":10029:10052  return askBook[id].prev */\n      swap1\n      pop\n        /* \"contracts/OrderBook.sol\":9957:10059  function getAskPrev (uint256 id) public view returns(uint256) {... */\n      swap2\n      swap1\n      pop\n      jump\t// out\n        /* \"contracts/OrderBook.sol\":9307:9411  function getAskValue (uint256 id) public view returns(uint256) {... */\n    tag_108:\n        /* \"contracts/OrderBook.sol\":9361:9368  uint256 */\n      0x00\n        /* \"contracts/OrderBook.sol\":9387:9394  askBook */\n      0x06\n        /* \"contracts/OrderBook.sol\":9387:9398  askBook[id] */\n      0x00\n        /* \"contracts/OrderBook.sol\":9395:9397  id */\n      dup4\n        /* \"contracts/OrderBook.sol\":9387:9398  askBook[id] */\n      dup2\n      mstore\n      0x20\n      add\n      swap1\n      dup2\n      mstore\n      0x20\n      add\n      0x00\n      keccak256\n        /* \"contracts/OrderBook.sol\":9387:9404  askBook[id].value */\n      0x01\n      add\n      sload\n        /* \"contracts/OrderBook.sol\":9380:9404  return askBook[id].value */\n      swap1\n      pop\n        /* \"contracts/OrderBook.sol\":9307:9411  function getAskValue (uint256 id) public view returns(uint256) {... */\n      swap2\n      swap1\n      pop\n      jump\t// out\n        /* \"contracts/Strings.sol\":328:1031  function toString(uint256 value) internal pure returns (string memory) {... */\n    tag_114:\n        /* \"contracts/Strings.sol\":384:397  string memory */\n      0x60\n        /* \"contracts/Strings.sol\":610:611  0 */\n      0x00\n        /* \"contracts/Strings.sol\":601:606  value */\n      dup3\n        /* \"contracts/Strings.sol\":601:611  value == 0 */\n      eq\n        /* \"contracts/Strings.sol\":597:648  if (value == 0) {... */\n      iszero\n      tag_218\n      jumpi\n        /* \"contracts/Strings.sol\":627:637  return \"0\" */\n      mload(0x40)\n      dup1\n      0x40\n      add\n      0x40\n      mstore\n      dup1\n      0x01\n      dup2\n      mstore\n      0x20\n      add\n      0x3000000000000000000000000000000000000000000000000000000000000000\n      dup2\n      mstore\n      pop\n      swap1\n      pop\n      jump(tag_217)\n        /* \"contracts/Strings.sol\":597:648  if (value == 0) {... */\n    tag_218:\n        /* \"contracts/Strings.sol\":657:669  uint256 temp */\n      0x00\n        /* \"contracts/Strings.sol\":672:677  value */\n      dup3\n        /* \"contracts/Strings.sol\":657:677  uint256 temp = value */\n      swap1\n      pop\n        /* \"contracts/Strings.sol\":687:701  uint256 digits */\n      0x00\n        /* \"contracts/Strings.sol\":711:786  while (temp != 0) {... */\n    tag_219:\n        /* \"contracts/Strings.sol\":726:727  0 */\n      0x00\n        /* \"contracts/Strings.sol\":718:722  temp */\n      dup3\n        /* \"contracts/Strings.sol\":718:727  temp != 0 */\n      eq\n        /* \"contracts/Strings.sol\":711:786  while (temp != 0) {... */\n      tag_220\n      jumpi\n        /* \"contracts/Strings.sol\":743:751  digits++ */\n      dup1\n      dup1\n      tag_221\n      swap1\n      tag_222\n      jump\t// in\n    tag_221:\n      swap2\n      pop\n      pop\n        /* \"contracts/Strings.sol\":773:775  10 */\n      0x0a\n        /* \"contracts/Strings.sol\":765:775  temp /= 10 */\n      dup3\n      tag_223\n      swap2\n      swap1\n      tag_167\n      jump\t// in\n    tag_223:\n      swap2\n      pop\n        /* \"contracts/Strings.sol\":711:786  while (temp != 0) {... */\n      jump(tag_219)\n    tag_220:\n        /* \"contracts/Strings.sol\":795:814  bytes memory buffer */\n      0x00\n        /* \"contracts/Strings.sol\":827:833  digits */\n      dup2\n        /* \"contracts/Strings.sol\":817:834  new bytes(digits) */\n      0xffffffffffffffff\n      dup2\n      gt\n      iszero\n      tag_224\n      jumpi\n      tag_225\n      tag_226\n      jump\t// in\n    tag_225:\n    tag_224:\n      mload(0x40)\n      swap1\n      dup1\n      dup3\n      mstore\n      dup1\n      0x1f\n      add\n      not(0x1f)\n      and\n      0x20\n      add\n      dup3\n      add\n      0x40\n      mstore\n      dup1\n      iszero\n      tag_227\n      jumpi\n      dup2\n      0x20\n      add\n      0x01\n      dup3\n      mul\n      dup1\n      calldatasize\n      dup4\n      calldatacopy\n      dup1\n      dup3\n      add\n      swap2\n      pop\n      pop\n      swap1\n      pop\n    tag_227:\n      pop\n        /* \"contracts/Strings.sol\":795:834  bytes memory buffer = new bytes(digits) */\n      swap1\n      pop\n        /* \"contracts/Strings.sol\":844:994  while (value != 0) {... */\n    tag_228:\n        /* \"contracts/Strings.sol\":860:861  0 */\n      0x00\n        /* \"contracts/Strings.sol\":851:856  value */\n      dup6\n        /* \"contracts/Strings.sol\":851:861  value != 0 */\n      eq\n        /* \"contracts/Strings.sol\":844:994  while (value != 0) {... */\n      tag_229\n      jumpi\n        /* \"contracts/Strings.sol\":887:888  1 */\n      0x01\n        /* \"contracts/Strings.sol\":877:888  digits -= 1 */\n      dup3\n      tag_230\n      swap2\n      swap1\n      tag_139\n      jump\t// in\n    tag_230:\n      swap2\n      pop\n        /* \"contracts/Strings.sol\":953:955  10 */\n      0x0a\n        /* \"contracts/Strings.sol\":945:950  value */\n      dup6\n        /* \"contracts/Strings.sol\":945:955  value % 10 */\n      tag_231\n      swap2\n      swap1\n      tag_232\n      jump\t// in\n    tag_231:\n        /* \"contracts/Strings.sol\":932:934  48 */\n      0x30\n        /* \"contracts/Strings.sol\":932:956  48 + uint256(value % 10) */\n      tag_233\n      swap2\n      swap1\n      tag_234\n      jump\t// in\n    tag_233:\n        /* \"contracts/Strings.sol\":919:958  bytes1(uint8(48 + uint256(value % 10))) */\n      0xf8\n      shl\n        /* \"contracts/Strings.sol\":902:908  buffer */\n      dup2\n        /* \"contracts/Strings.sol\":909:915  digits */\n      dup4\n        /* \"contracts/Strings.sol\":902:916  buffer[digits] */\n      dup2\n      mload\n      dup2\n      lt\n      tag_235\n      jumpi\n      tag_236\n      tag_237\n      jump\t// in\n    tag_236:\n    tag_235:\n      0x20\n      add\n      add\n        /* \"contracts/Strings.sol\":902:958  buffer[digits] = bytes1(uint8(48 + uint256(value % 10))) */\n      swap1\n      not(0xffffffffffffffffffffffffffffffffffffffffffffffffffffffffffffff)\n      and\n      swap1\n      dup2\n      0x00\n      byte\n      swap1\n      mstore8\n      pop\n        /* \"contracts/Strings.sol\":981:983  10 */\n      0x0a\n        /* \"contracts/Strings.sol\":972:983  value /= 10 */\n      dup6\n      tag_238\n      swap2\n      swap1\n      tag_167\n      jump\t// in\n    tag_238:\n      swap5\n      pop\n        /* \"contracts/Strings.sol\":844:994  while (value != 0) {... */\n      jump(tag_228)\n    tag_229:\n        /* \"contracts/Strings.sol\":1017:1023  buffer */\n      dup1\n        /* \"contracts/Strings.sol\":1003:1024  return string(buffer) */\n      swap4\n      pop\n      pop\n      pop\n      pop\n        /* \"contracts/Strings.sol\":328:1031  function toString(uint256 value) internal pure returns (string memory) {... */\n    tag_217:\n      swap2\n      swap1\n      pop\n      jump\t// out\n        /* \"contracts/OrderBook.sol\":3276:3727  function deleteAsk(uint256 id) internal {... */\n    tag_141:\n        /* \"contracts/OrderBook.sol\":3341:3342  0 */\n      0x00\n        /* \"contracts/OrderBook.sol\":3330:3337  askHead */\n      sload(0x07)\n        /* \"contracts/OrderBook.sol\":3330:3342  askHead == 0 */\n      eq\n        /* \"contracts/OrderBook.sol\":3330:3353  askHead == 0 || id == 0 */\n      dup1\n      tag_240\n      jumpi\n      pop\n        /* \"contracts/OrderBook.sol\":3352:3353  0 */\n      0x00\n        /* \"contracts/OrderBook.sol\":3346:3348  id */\n      dup2\n        /* \"contracts/OrderBook.sol\":3346:3353  id == 0 */\n      eq\n        /* \"contracts/OrderBook.sol\":3330:3353  askHead == 0 || id == 0 */\n    tag_240:\n        /* \"contracts/OrderBook.sol\":3326:3386  if (askHead == 0 || id == 0) {... */\n      iszero\n      tag_241\n      jumpi\n        /* \"contracts/OrderBook.sol\":3369:3376  return; */\n      jump(tag_239)\n        /* \"contracts/OrderBook.sol\":3326:3386  if (askHead == 0 || id == 0) {... */\n    tag_241:\n        /* \"contracts/OrderBook.sol\":3410:3412  id */\n      dup1\n        /* \"contracts/OrderBook.sol\":3399:3406  askHead */\n      sload(0x07)\n        /* \"contracts/OrderBook.sol\":3399:3412  askHead == id */\n      eq\n        /* \"contracts/OrderBook.sol\":3395:3465  if (askHead == id) {... */\n      iszero\n      tag_242\n      jumpi\n        /* \"contracts/OrderBook.sol\":3438:3445  askBook */\n      0x06\n        /* \"contracts/OrderBook.sol\":3438:3449  askBook[id] */\n      0x00\n        /* \"contracts/OrderBook.sol\":3446:3448  id */\n      dup3\n        /* \"contracts/OrderBook.sol\":3438:3449  askBook[id] */\n      dup2\n      mstore\n      0x20\n      add\n      swap1\n      dup2\n      mstore\n      0x20\n      add\n      0x00\n      keccak256\n        /* \"contracts/OrderBook.sol\":3438:3454  askBook[id].next */\n      0x05\n      add\n      sload\n        /* \"contracts/OrderBook.sol\":3428:3435  askHead */\n      0x07\n        /* \"contracts/OrderBook.sol\":3428:3454  askHead = askBook[id].next */\n      dup2\n      swap1\n      sstore\n      pop\n        /* \"contracts/OrderBook.sol\":3395:3465  if (askHead == id) {... */\n    tag_242:\n        /* \"contracts/OrderBook.sol\":3498:3499  0 */\n      0x00\n        /* \"contracts/OrderBook.sol\":3478:3485  askBook */\n      0x06\n        /* \"contracts/OrderBook.sol\":3478:3489  askBook[id] */\n      0x00\n        /* \"contracts/OrderBook.sol\":3486:3488  id */\n      dup4\n        /* \"contracts/OrderBook.sol\":3478:3489  askBook[id] */\n      dup2\n      mstore\n      0x20\n      add\n      swap1\n      dup2\n      mstore\n      0x20\n      add\n      0x00\n      keccak256\n        /* \"contracts/OrderBook.sol\":3478:3494  askBook[id].next */\n      0x05\n      add\n      sload\n        /* \"contracts/OrderBook.sol\":3478:3499  askBook[id].next != 0 */\n      eq\n        /* \"contracts/OrderBook.sol\":3474:3575  if (askBook[id].next != 0) {... */\n      tag_243\n      jumpi\n        /* \"contracts/OrderBook.sol\":3548:3555  askBook */\n      0x06\n        /* \"contracts/OrderBook.sol\":3548:3559  askBook[id] */\n      0x00\n        /* \"contracts/OrderBook.sol\":3556:3558  id */\n      dup3\n        /* \"contracts/OrderBook.sol\":3548:3559  askBook[id] */\n      dup2\n      mstore\n      0x20\n      add\n      swap1\n      dup2\n      mstore\n      0x20\n      add\n      0x00\n      keccak256\n        /* \"contracts/OrderBook.sol\":3548:3564  askBook[id].prev */\n      0x06\n      add\n      sload\n        /* \"contracts/OrderBook.sol\":3515:3522  askBook */\n      0x06\n        /* \"contracts/OrderBook.sol\":3515:3540  askBook[askBook[id].next] */\n      0x00\n        /* \"contracts/OrderBook.sol\":3523:3530  askBook */\n      0x06\n        /* \"contracts/OrderBook.sol\":3523:3534  askBook[id] */\n      0x00\n        /* \"contracts/OrderBook.sol\":3531:3533  id */\n      dup6\n        /* \"contracts/OrderBook.sol\":3523:3534  askBook[id] */\n      dup2\n      mstore\n      0x20\n      add\n      swap1\n      dup2\n      mstore\n      0x20\n      add\n      0x00\n      keccak256\n        /* \"contracts/OrderBook.sol\":3523:3539  askBook[id].next */\n      0x05\n      add\n      sload\n        /* \"contracts/OrderBook.sol\":3515:3540  askBook[askBook[id].next] */\n      dup2\n      mstore\n      0x20\n      add\n      swap1\n      dup2\n      mstore\n      0x20\n      add\n      0x00\n      keccak256\n        /* \"contracts/OrderBook.sol\":3515:3545  askBook[askBook[id].next].prev */\n      0x06\n      add\n        /* \"contracts/OrderBook.sol\":3515:3564  askBook[askBook[id].next].prev = askBook[id].prev */\n      dup2\n      swap1\n      sstore\n      pop\n        /* \"contracts/OrderBook.sol\":3474:3575  if (askBook[id].next != 0) {... */\n    tag_243:\n        /* \"contracts/OrderBook.sol\":3608:3609  0 */\n      0x00\n        /* \"contracts/OrderBook.sol\":3588:3595  askBook */\n      0x06\n        /* \"contracts/OrderBook.sol\":3588:3599  askBook[id] */\n      0x00\n        /* \"contracts/OrderBook.sol\":3596:3598  id */\n      dup4\n        /* \"contracts/OrderBook.sol\":3588:3599  askBook[id] */\n      dup2\n      mstore\n      0x20\n      add\n      swap1\n      dup2\n      mstore\n      0x20\n      add\n      0x00\n      keccak256\n        /* \"contracts/OrderBook.sol\":3588:3604  askBook[id].prev */\n      0x06\n      add\n      sload\n        /* \"contracts/OrderBook.sol\":3588:3609  askBook[id].prev != 0 */\n      eq\n        /* \"contracts/OrderBook.sol\":3584:3685  if (askBook[id].prev != 0) {... */\n      tag_244\n      jumpi\n        /* \"contracts/OrderBook.sol\":3658:3665  askBook */\n      0x06\n        /* \"contracts/OrderBook.sol\":3658:3669  askBook[id] */\n      0x00\n        /* \"contracts/OrderBook.sol\":3666:3668  id */\n      dup3\n        /* \"contracts/OrderBook.sol\":3658:3669  askBook[id] */\n      dup2\n      mstore\n      0x20\n      add\n      swap1\n      dup2\n      mstore\n      0x20\n      add\n      0x00\n      keccak256\n        /* \"contracts/OrderBook.sol\":3658:3674  askBook[id].next */\n      0x05\n      add\n      sload\n        /* \"contracts/OrderBook.sol\":3625:3632  askBook */\n      0x06\n        /* \"contracts/OrderBook.sol\":3625:3650  askBook[askBook[id].prev] */\n      0x00\n        /* \"contracts/OrderBook.sol\":3633:3640  askBook */\n      0x06\n        /* \"contracts/OrderBook.sol\":3633:3644  askBook[id] */\n      0x00\n        /* \"contracts/OrderBook.sol\":3641:3643  id */\n      dup6\n        /* \"contracts/OrderBook.sol\":3633:3644  askBook[id] */\n      dup2\n      mstore\n      0x20\n      add\n      swap1\n      dup2\n      mstore\n      0x20\n      add\n      0x00\n      keccak256\n        /* \"contracts/OrderBook.sol\":3633:3649  askBook[id].prev */\n      0x06\n      add\n      sload\n        /* \"contracts/OrderBook.sol\":3625:3650  askBook[askBook[id].prev] */\n      dup2\n      mstore\n      0x20\n      add\n      swap1\n      dup2\n      mstore\n      0x20\n      add\n      0x00\n      keccak256\n        /* \"contracts/OrderBook.sol\":3625:3655  askBook[askBook[id].prev].next */\n      0x05\n      add\n        /* \"contracts/OrderBook.sol\":3625:3674  askBook[askBook[id].prev].next = askBook[id].next */\n      dup2\n      swap1\n      sstore\n      pop\n        /* \"contracts/OrderBook.sol\":3584:3685  if (askBook[id].prev != 0) {... */\n    tag_244:\n        /* \"contracts/OrderBook.sol\":3694:3702  askCount */\n      0x08\n      0x00\n        /* \"contracts/OrderBook.sol\":3694:3704  askCount-- */\n      dup2\n      sload\n      dup1\n      swap3\n      swap2\n      swap1\n      tag_245\n      swap1\n      tag_246\n      jump\t// in\n    tag_245:\n      swap2\n      swap1\n      pop\n      sstore\n      pop\n        /* \"contracts/OrderBook.sol\":3276:3727  function deleteAsk(uint256 id) internal {... */\n    tag_239:\n      pop\n      jump\t// out\n        /* \"contracts/OrderBook.sol\":2881:3270  function createAsk(address customer, uint256 value, uint256 timestamp) internal returns (order memory) {... */\n    tag_169:\n        /* \"contracts/OrderBook.sol\":2970:2982  order memory */\n      tag_247\n      tag_248\n      jump\t// in\n    tag_247:\n        /* \"contracts/OrderBook.sol\":2994:3002  askCount */\n      0x08\n      0x00\n        /* \"contracts/OrderBook.sol\":2994:3005  askCount ++ */\n      dup2\n      sload\n      dup1\n      swap3\n      swap2\n      swap1\n      tag_250\n      swap1\n      tag_222\n      jump\t// in\n    tag_250:\n      swap2\n      swap1\n      pop\n      sstore\n      pop\n        /* \"contracts/OrderBook.sol\":3015:3034  order memory newAsk */\n      0x00\n        /* \"contracts/OrderBook.sol\":3037:3204  order(... */\n      mload(0x40)\n      dup1\n      0xe0\n      add\n      0x40\n      mstore\n      dup1\n        /* \"contracts/OrderBook.sol\":3064:3072  customer */\n      dup7\n        /* \"contracts/OrderBook.sol\":3037:3204  order(... */\n      0xffffffffffffffffffffffffffffffffffffffff\n      and\n      dup2\n      mstore\n      0x20\n      add\n        /* \"contracts/OrderBook.sol\":3087:3092  value */\n      dup6\n        /* \"contracts/OrderBook.sol\":3037:3204  order(... */\n      dup2\n      mstore\n      0x20\n      add\n        /* \"contracts/OrderBook.sol\":3106:3115  timestamp */\n      dup5\n        /* \"contracts/OrderBook.sol\":3037:3204  order(... */\n      dup2\n      mstore\n      0x20\n      add\n        /* \"contracts/OrderBook.sol\":3129:3142  State.pending */\n      0x00\n        /* \"contracts/OrderBook.sol\":3037:3204  order(... */\n      0x01\n      dup2\n      gt\n      iszero\n      tag_251\n      jumpi\n      tag_252\n      tag_118\n      jump\t// in\n    tag_252:\n    tag_251:\n      dup2\n      mstore\n      0x20\n      add\n        /* \"contracts/OrderBook.sol\":3156:3164  askCount */\n      sload(0x08)\n        /* \"contracts/OrderBook.sol\":3037:3204  order(... */\n      dup2\n      mstore\n      0x20\n      add\n        /* \"contracts/OrderBook.sol\":3178:3179  0 */\n      0x00\n        /* \"contracts/OrderBook.sol\":3037:3204  order(... */\n      dup2\n      mstore\n      0x20\n      add\n        /* \"contracts/OrderBook.sol\":3193:3194  0 */\n      0x00\n        /* \"contracts/OrderBook.sol\":3037:3204  order(... */\n      dup2\n      mstore\n      pop\n        /* \"contracts/OrderBook.sol\":3015:3204  order memory newAsk = order(... */\n      swap1\n      pop\n        /* \"contracts/OrderBook.sol\":3234:3240  newAsk */\n      dup1\n        /* \"contracts/OrderBook.sol\":3214:3221  askBook */\n      0x06\n        /* \"contracts/OrderBook.sol\":3214:3231  askBook[askCount] */\n      0x00\n        /* \"contracts/OrderBook.sol\":3222:3230  askCount */\n      sload(0x08)\n        /* \"contracts/OrderBook.sol\":3214:3231  askBook[askCount] */\n      dup2\n      mstore\n      0x20\n      add\n      swap1\n      dup2\n      mstore\n      0x20\n      add\n      0x00\n      keccak256\n        /* \"contracts/OrderBook.sol\":3214:3240  askBook[askCount] = newAsk */\n      0x00\n      dup3\n      add\n      mload\n      dup2\n      0x00\n      add\n      exp(0x0100, 0x00)\n      dup2\n      sload\n      dup2\n      0xffffffffffffffffffffffffffffffffffffffff\n      mul\n      not\n      and\n      swap1\n      dup4\n      0xffffffffffffffffffffffffffffffffffffffff\n      and\n      mul\n      or\n      swap1\n      sstore\n      pop\n      0x20\n      dup3\n      add\n      mload\n      dup2\n      0x01\n      add\n      sstore\n      0x40\n      dup3\n      add\n      mload\n      dup2\n      0x02\n      add\n      sstore\n      0x60\n      dup3\n      add\n      mload\n      dup2\n      0x03\n      add\n      exp(0x0100, 0x00)\n      dup2\n      sload\n      dup2\n      0xff\n      mul\n      not\n      and\n      swap1\n      dup4\n      0x01\n      dup2\n      gt\n      iszero\n      tag_253\n      jumpi\n      tag_254\n      tag_118\n      jump\t// in\n    tag_254:\n    tag_253:\n      mul\n      or\n      swap1\n      sstore\n      pop\n      0x80\n      dup3\n      add\n      mload\n      dup2\n      0x04\n      add\n      sstore\n      0xa0\n      dup3\n      add\n      mload\n      dup2\n      0x05\n      add\n      sstore\n      0xc0\n      dup3\n      add\n      mload\n      dup2\n      0x06\n      add\n      sstore\n      swap1\n      pop\n      pop\n        /* \"contracts/OrderBook.sol\":3257:3263  newAsk */\n      dup1\n        /* \"contracts/OrderBook.sol\":3250:3263  return newAsk */\n      swap2\n      pop\n      pop\n        /* \"contracts/OrderBook.sol\":2881:3270  function createAsk(address customer, uint256 value, uint256 timestamp) internal returns (order memory) {... */\n      swap4\n      swap3\n      pop\n      pop\n      pop\n      jump\t// out\n        /* \"contracts/OrderBook.sol\":4212:5089  function sortAsk(order memory newOrder) internal {... */\n    tag_171:\n        /* \"contracts/OrderBook.sol\":4271:4286  uint256 current */\n      0x00\n        /* \"contracts/OrderBook.sol\":4311:4312  0 */\n      dup1\n        /* \"contracts/OrderBook.sol\":4300:4307  askHead */\n      sload(0x07)\n        /* \"contracts/OrderBook.sol\":4300:4312  askHead == 0 */\n      eq\n        /* \"contracts/OrderBook.sol\":4296:5083  if (askHead == 0) {... */\n      iszero\n      tag_256\n      jumpi\n        /* \"contracts/OrderBook.sol\":4338:4346  newOrder */\n      dup2\n        /* \"contracts/OrderBook.sol\":4338:4349  newOrder.id */\n      0x80\n      add\n      mload\n        /* \"contracts/OrderBook.sol\":4328:4335  askHead */\n      0x07\n        /* \"contracts/OrderBook.sol\":4328:4349  askHead = newOrder.id */\n      dup2\n      swap1\n      sstore\n      pop\n        /* \"contracts/OrderBook.sol\":4296:5083  if (askHead == 0) {... */\n      jump(tag_257)\n    tag_256:\n        /* \"contracts/OrderBook.sol\":4396:4404  newOrder */\n      dup2\n        /* \"contracts/OrderBook.sol\":4396:4410  newOrder.value */\n      0x20\n      add\n      mload\n        /* \"contracts/OrderBook.sol\":4370:4377  askBook */\n      0x06\n        /* \"contracts/OrderBook.sol\":4370:4386  askBook[askHead] */\n      0x00\n        /* \"contracts/OrderBook.sol\":4378:4385  askHead */\n      sload(0x07)\n        /* \"contracts/OrderBook.sol\":4370:4386  askBook[askHead] */\n      dup2\n      mstore\n      0x20\n      add\n      swap1\n      dup2\n      mstore\n      0x20\n      add\n      0x00\n      keccak256\n        /* \"contracts/OrderBook.sol\":4370:4392  askBook[askHead].value */\n      0x01\n      add\n      sload\n        /* \"contracts/OrderBook.sol\":4370:4410  askBook[askHead].value >= newOrder.value */\n      lt\n        /* \"contracts/OrderBook.sol\":4366:5083  if (askBook[askHead].value >= newOrder.value) {... */\n      tag_258\n      jumpi\n        /* \"contracts/OrderBook.sol\":4454:4461  askHead */\n      sload(0x07)\n        /* \"contracts/OrderBook.sol\":4426:4433  askBook */\n      0x06\n        /* \"contracts/OrderBook.sol\":4426:4446  askBook[newOrder.id] */\n      0x00\n        /* \"contracts/OrderBook.sol\":4434:4442  newOrder */\n      dup5\n        /* \"contracts/OrderBook.sol\":4434:4445  newOrder.id */\n      0x80\n      add\n      mload\n        /* \"contracts/OrderBook.sol\":4426:4446  askBook[newOrder.id] */\n      dup2\n      mstore\n      0x20\n      add\n      swap1\n      dup2\n      mstore\n      0x20\n      add\n      0x00\n      keccak256\n        /* \"contracts/OrderBook.sol\":4426:4451  askBook[newOrder.id].next */\n      0x05\n      add\n        /* \"contracts/OrderBook.sol\":4426:4461  askBook[newOrder.id].next = askHead */\n      dup2\n      swap1\n      sstore\n      pop\n        /* \"contracts/OrderBook.sol\":4517:4525  newOrder */\n      dup2\n        /* \"contracts/OrderBook.sol\":4517:4528  newOrder.id */\n      0x80\n      add\n      mload\n        /* \"contracts/OrderBook.sol\":4475:4482  askBook */\n      0x06\n        /* \"contracts/OrderBook.sol\":4475:4509  askBook[askBook[newOrder.id].next] */\n      0x00\n        /* \"contracts/OrderBook.sol\":4483:4490  askBook */\n      0x06\n        /* \"contracts/OrderBook.sol\":4483:4503  askBook[newOrder.id] */\n      0x00\n        /* \"contracts/OrderBook.sol\":4491:4499  newOrder */\n      dup7\n        /* \"contracts/OrderBook.sol\":4491:4502  newOrder.id */\n      0x80\n      add\n      mload\n        /* \"contracts/OrderBook.sol\":4483:4503  askBook[newOrder.id] */\n      dup2\n      mstore\n      0x20\n      add\n      swap1\n      dup2\n      mstore\n      0x20\n      add\n      0x00\n      keccak256\n        /* \"contracts/OrderBook.sol\":4483:4508  askBook[newOrder.id].next */\n      0x05\n      add\n      sload\n        /* \"contracts/OrderBook.sol\":4475:4509  askBook[askBook[newOrder.id].next] */\n      dup2\n      mstore\n      0x20\n      add\n      swap1\n      dup2\n      mstore\n      0x20\n      add\n      0x00\n      keccak256\n        /* \"contracts/OrderBook.sol\":4475:4514  askBook[askBook[newOrder.id].next].prev */\n      0x06\n      add\n        /* \"contracts/OrderBook.sol\":4475:4528  askBook[askBook[newOrder.id].next].prev = newOrder.id */\n      dup2\n      swap1\n      sstore\n      pop\n        /* \"contracts/OrderBook.sol\":4552:4560  newOrder */\n      dup2\n        /* \"contracts/OrderBook.sol\":4552:4563  newOrder.id */\n      0x80\n      add\n      mload\n        /* \"contracts/OrderBook.sol\":4542:4549  askHead */\n      0x07\n        /* \"contracts/OrderBook.sol\":4542:4563  askHead = newOrder.id */\n      dup2\n      swap1\n      sstore\n      pop\n        /* \"contracts/OrderBook.sol\":4366:5083  if (askBook[askHead].value >= newOrder.value) {... */\n      jump(tag_259)\n    tag_258:\n        /* \"contracts/OrderBook.sol\":4604:4611  askHead */\n      sload(0x07)\n        /* \"contracts/OrderBook.sol\":4594:4611  current = askHead */\n      swap1\n      pop\n        /* \"contracts/OrderBook.sol\":4625:4781  while (askBook[current].next != 0 && askBook[askBook[current].next].value < newOrder.value) {... */\n    tag_260:\n        /* \"contracts/OrderBook.sol\":4657:4658  0 */\n      0x00\n        /* \"contracts/OrderBook.sol\":4632:4639  askBook */\n      0x06\n        /* \"contracts/OrderBook.sol\":4632:4648  askBook[current] */\n      0x00\n        /* \"contracts/OrderBook.sol\":4640:4647  current */\n      dup4\n        /* \"contracts/OrderBook.sol\":4632:4648  askBook[current] */\n      dup2\n      mstore\n      0x20\n      add\n      swap1\n      dup2\n      mstore\n      0x20\n      add\n      0x00\n      keccak256\n        /* \"contracts/OrderBook.sol\":4632:4653  askBook[current].next */\n      0x05\n      add\n      sload\n        /* \"contracts/OrderBook.sol\":4632:4658  askBook[current].next != 0 */\n      eq\n      iszero\n        /* \"contracts/OrderBook.sol\":4632:4715  askBook[current].next != 0 && askBook[askBook[current].next].value < newOrder.value */\n      dup1\n      iszero\n      tag_262\n      jumpi\n      pop\n        /* \"contracts/OrderBook.sol\":4701:4709  newOrder */\n      dup2\n        /* \"contracts/OrderBook.sol\":4701:4715  newOrder.value */\n      0x20\n      add\n      mload\n        /* \"contracts/OrderBook.sol\":4662:4669  askBook */\n      0x06\n        /* \"contracts/OrderBook.sol\":4662:4692  askBook[askBook[current].next] */\n      0x00\n        /* \"contracts/OrderBook.sol\":4670:4677  askBook */\n      0x06\n        /* \"contracts/OrderBook.sol\":4670:4686  askBook[current] */\n      0x00\n        /* \"contracts/OrderBook.sol\":4678:4685  current */\n      dup6\n        /* \"contracts/OrderBook.sol\":4670:4686  askBook[current] */\n      dup2\n      mstore\n      0x20\n      add\n      swap1\n      dup2\n      mstore\n      0x20\n      add\n      0x00\n      keccak256\n        /* \"contracts/OrderBook.sol\":4670:4691  askBook[current].next */\n      0x05\n      add\n      sload\n        /* \"contracts/OrderBook.sol\":4662:4692  askBook[askBook[current].next] */\n      dup2\n      mstore\n      0x20\n      add\n      swap1\n      dup2\n      mstore\n      0x20\n      add\n      0x00\n      keccak256\n        /* \"contracts/OrderBook.sol\":4662:4698  askBook[askBook[current].next].value */\n      0x01\n      add\n      sload\n        /* \"contracts/OrderBook.sol\":4662:4715  askBook[askBook[current].next].value < newOrder.value */\n      lt\n        /* \"contracts/OrderBook.sol\":4632:4715  askBook[current].next != 0 && askBook[askBook[current].next].value < newOrder.value */\n    tag_262:\n        /* \"contracts/OrderBook.sol\":4625:4781  while (askBook[current].next != 0 && askBook[askBook[current].next].value < newOrder.value) {... */\n      iszero\n      tag_261\n      jumpi\n        /* \"contracts/OrderBook.sol\":4745:4752  askBook */\n      0x06\n        /* \"contracts/OrderBook.sol\":4745:4761  askBook[current] */\n      0x00\n        /* \"contracts/OrderBook.sol\":4753:4760  current */\n      dup3\n        /* \"contracts/OrderBook.sol\":4745:4761  askBook[current] */\n      dup2\n      mstore\n      0x20\n      add\n      swap1\n      dup2\n      mstore\n      0x20\n      add\n      0x00\n      keccak256\n        /* \"contracts/OrderBook.sol\":4745:4766  askBook[current].next */\n      0x05\n      add\n      sload\n        /* \"contracts/OrderBook.sol\":4735:4766  current = askBook[current].next */\n      swap1\n      pop\n        /* \"contracts/OrderBook.sol\":4625:4781  while (askBook[current].next != 0 && askBook[askBook[current].next].value < newOrder.value) {... */\n      jump(tag_260)\n    tag_261:\n        /* \"contracts/OrderBook.sol\":4822:4829  askBook */\n      0x06\n        /* \"contracts/OrderBook.sol\":4822:4838  askBook[current] */\n      0x00\n        /* \"contracts/OrderBook.sol\":4830:4837  current */\n      dup3\n        /* \"contracts/OrderBook.sol\":4822:4838  askBook[current] */\n      dup2\n      mstore\n      0x20\n      add\n      swap1\n      dup2\n      mstore\n      0x20\n      add\n      0x00\n      keccak256\n        /* \"contracts/OrderBook.sol\":4822:4843  askBook[current].next */\n      0x05\n      add\n      sload\n        /* \"contracts/OrderBook.sol\":4794:4801  askBook */\n      0x06\n        /* \"contracts/OrderBook.sol\":4794:4814  askBook[newOrder.id] */\n      0x00\n        /* \"contracts/OrderBook.sol\":4802:4810  newOrder */\n      dup5\n        /* \"contracts/OrderBook.sol\":4802:4813  newOrder.id */\n      0x80\n      add\n      mload\n        /* \"contracts/OrderBook.sol\":4794:4814  askBook[newOrder.id] */\n      dup2\n      mstore\n      0x20\n      add\n      swap1\n      dup2\n      mstore\n      0x20\n      add\n      0x00\n      keccak256\n        /* \"contracts/OrderBook.sol\":4794:4819  askBook[newOrder.id].next */\n      0x05\n      add\n        /* \"contracts/OrderBook.sol\":4794:4843  askBook[newOrder.id].next = askBook[current].next */\n      dup2\n      swap1\n      sstore\n      pop\n        /* \"contracts/OrderBook.sol\":4886:4887  0 */\n      0x00\n        /* \"contracts/OrderBook.sol\":4861:4868  askBook */\n      0x06\n        /* \"contracts/OrderBook.sol\":4861:4877  askBook[current] */\n      0x00\n        /* \"contracts/OrderBook.sol\":4869:4876  current */\n      dup4\n        /* \"contracts/OrderBook.sol\":4861:4877  askBook[current] */\n      dup2\n      mstore\n      0x20\n      add\n      swap1\n      dup2\n      mstore\n      0x20\n      add\n      0x00\n      keccak256\n        /* \"contracts/OrderBook.sol\":4861:4882  askBook[current].next */\n      0x05\n      add\n      sload\n        /* \"contracts/OrderBook.sol\":4861:4887  askBook[current].next != 0 */\n      eq\n        /* \"contracts/OrderBook.sol\":4857:4975  if (askBook[current].next != 0) {... */\n      tag_263\n      jumpi\n        /* \"contracts/OrderBook.sol\":4949:4957  newOrder */\n      dup2\n        /* \"contracts/OrderBook.sol\":4949:4960  newOrder.id */\n      0x80\n      add\n      mload\n        /* \"contracts/OrderBook.sol\":4907:4914  askBook */\n      0x06\n        /* \"contracts/OrderBook.sol\":4907:4941  askBook[askBook[newOrder.id].next] */\n      0x00\n        /* \"contracts/OrderBook.sol\":4915:4922  askBook */\n      0x06\n        /* \"contracts/OrderBook.sol\":4915:4935  askBook[newOrder.id] */\n      0x00\n        /* \"contracts/OrderBook.sol\":4923:4931  newOrder */\n      dup7\n        /* \"contracts/OrderBook.sol\":4923:4934  newOrder.id */\n      0x80\n      add\n      mload\n        /* \"contracts/OrderBook.sol\":4915:4935  askBook[newOrder.id] */\n      dup2\n      mstore\n      0x20\n      add\n      swap1\n      dup2\n      mstore\n      0x20\n      add\n      0x00\n      keccak256\n        /* \"contracts/OrderBook.sol\":4915:4940  askBook[newOrder.id].next */\n      0x05\n      add\n      sload\n        /* \"contracts/OrderBook.sol\":4907:4941  askBook[askBook[newOrder.id].next] */\n      dup2\n      mstore\n      0x20\n      add\n      swap1\n      dup2\n      mstore\n      0x20\n      add\n      0x00\n      keccak256\n        /* \"contracts/OrderBook.sol\":4907:4946  askBook[askBook[newOrder.id].next].prev */\n      0x06\n      add\n        /* \"contracts/OrderBook.sol\":4907:4960  askBook[askBook[newOrder.id].next].prev = newOrder.id */\n      dup2\n      swap1\n      sstore\n      pop\n        /* \"contracts/OrderBook.sol\":4857:4975  if (askBook[current].next != 0) {... */\n    tag_263:\n        /* \"contracts/OrderBook.sol\":5012:5020  newOrder */\n      dup2\n        /* \"contracts/OrderBook.sol\":5012:5023  newOrder.id */\n      0x80\n      add\n      mload\n        /* \"contracts/OrderBook.sol\":4988:4995  askBook */\n      0x06\n        /* \"contracts/OrderBook.sol\":4988:5004  askBook[current] */\n      0x00\n        /* \"contracts/OrderBook.sol\":4996:5003  current */\n      dup4\n        /* \"contracts/OrderBook.sol\":4988:5004  askBook[current] */\n      dup2\n      mstore\n      0x20\n      add\n      swap1\n      dup2\n      mstore\n      0x20\n      add\n      0x00\n      keccak256\n        /* \"contracts/OrderBook.sol\":4988:5009  askBook[current].next */\n      0x05\n      add\n        /* \"contracts/OrderBook.sol\":4988:5023  askBook[current].next = newOrder.id */\n      dup2\n      swap1\n      sstore\n      pop\n        /* \"contracts/OrderBook.sol\":5065:5072  current */\n      dup1\n        /* \"contracts/OrderBook.sol\":5037:5044  askBook */\n      0x06\n        /* \"contracts/OrderBook.sol\":5037:5057  askBook[newOrder.id] */\n      0x00\n        /* \"contracts/OrderBook.sol\":5045:5053  newOrder */\n      dup5\n        /* \"contracts/OrderBook.sol\":5045:5056  newOrder.id */\n      0x80\n      add\n      mload\n        /* \"contracts/OrderBook.sol\":5037:5057  askBook[newOrder.id] */\n      dup2\n      mstore\n      0x20\n      add\n      swap1\n      dup2\n      mstore\n      0x20\n      add\n      0x00\n      keccak256\n        /* \"contracts/OrderBook.sol\":5037:5062  askBook[newOrder.id].prev */\n      0x06\n      add\n        /* \"contracts/OrderBook.sol\":5037:5072  askBook[newOrder.id].prev = current */\n      dup2\n      swap1\n      sstore\n      pop\n        /* \"contracts/OrderBook.sol\":4366:5083  if (askBook[askHead].value >= newOrder.value) {... */\n    tag_259:\n        /* \"contracts/OrderBook.sol\":4296:5083  if (askHead == 0) {... */\n    tag_257:\n        /* \"contracts/OrderBook.sol\":4261:5089  {... */\n      pop\n        /* \"contracts/OrderBook.sol\":4212:5089  function sortAsk(order memory newOrder) internal {... */\n      pop\n      jump\t// out\n        /* \"contracts/OrderBook.sol\":2486:2875  function createBid(address customer, uint256 value, uint256 timestamp) internal returns (order memory) {... */\n    tag_207:\n        /* \"contracts/OrderBook.sol\":2575:2587  order memory */\n      tag_264\n      tag_248\n      jump\t// in\n    tag_264:\n        /* \"contracts/OrderBook.sol\":2599:2607  bidCount */\n      0x05\n      0x00\n        /* \"contracts/OrderBook.sol\":2599:2610  bidCount ++ */\n      dup2\n      sload\n      dup1\n      swap3\n      swap2\n      swap1\n      tag_266\n      swap1\n      tag_222\n      jump\t// in\n    tag_266:\n      swap2\n      swap1\n      pop\n      sstore\n      pop\n        /* \"contracts/OrderBook.sol\":2620:2639  order memory newBid */\n      0x00\n        /* \"contracts/OrderBook.sol\":2642:2809  order(... */\n      mload(0x40)\n      dup1\n      0xe0\n      add\n      0x40\n      mstore\n      dup1\n        /* \"contracts/OrderBook.sol\":2669:2677  customer */\n      dup7\n        /* \"contracts/OrderBook.sol\":2642:2809  order(... */\n      0xffffffffffffffffffffffffffffffffffffffff\n      and\n      dup2\n      mstore\n      0x20\n      add\n        /* \"contracts/OrderBook.sol\":2692:2697  value */\n      dup6\n        /* \"contracts/OrderBook.sol\":2642:2809  order(... */\n      dup2\n      mstore\n      0x20\n      add\n        /* \"contracts/OrderBook.sol\":2711:2720  timestamp */\n      dup5\n        /* \"contracts/OrderBook.sol\":2642:2809  order(... */\n      dup2\n      mstore\n      0x20\n      add\n        /* \"contracts/OrderBook.sol\":2734:2747  State.pending */\n      0x00\n        /* \"contracts/OrderBook.sol\":2642:2809  order(... */\n      0x01\n      dup2\n      gt\n      iszero\n      tag_267\n      jumpi\n      tag_268\n      tag_118\n      jump\t// in\n    tag_268:\n    tag_267:\n      dup2\n      mstore\n      0x20\n      add\n        /* \"contracts/OrderBook.sol\":2761:2769  bidCount */\n      sload(0x05)\n        /* \"contracts/OrderBook.sol\":2642:2809  order(... */\n      dup2\n      mstore\n      0x20\n      add\n        /* \"contracts/OrderBook.sol\":2783:2784  0 */\n      0x00\n        /* \"contracts/OrderBook.sol\":2642:2809  order(... */\n      dup2\n      mstore\n      0x20\n      add\n        /* \"contracts/OrderBook.sol\":2798:2799  0 */\n      0x00\n        /* \"contracts/OrderBook.sol\":2642:2809  order(... */\n      dup2\n      mstore\n      pop\n        /* \"contracts/OrderBook.sol\":2620:2809  order memory newBid = order(... */\n      swap1\n      pop\n        /* \"contracts/OrderBook.sol\":2839:2845  newBid */\n      dup1\n        /* \"contracts/OrderBook.sol\":2819:2826  bidBook */\n      0x03\n        /* \"contracts/OrderBook.sol\":2819:2836  bidBook[bidCount] */\n      0x00\n        /* \"contracts/OrderBook.sol\":2827:2835  bidCount */\n      sload(0x05)\n        /* \"contracts/OrderBook.sol\":2819:2836  bidBook[bidCount] */\n      dup2\n      mstore\n      0x20\n      add\n      swap1\n      dup2\n      mstore\n      0x20\n      add\n      0x00\n      keccak256\n        /* \"contracts/OrderBook.sol\":2819:2845  bidBook[bidCount] = newBid */\n      0x00\n      dup3\n      add\n      mload\n      dup2\n      0x00\n      add\n      exp(0x0100, 0x00)\n      dup2\n      sload\n      dup2\n      0xffffffffffffffffffffffffffffffffffffffff\n      mul\n      not\n      and\n      swap1\n      dup4\n      0xffffffffffffffffffffffffffffffffffffffff\n      and\n      mul\n      or\n      swap1\n      sstore\n      pop\n      0x20\n      dup3\n      add\n      mload\n      dup2\n      0x01\n      add\n      sstore\n      0x40\n      dup3\n      add\n      mload\n      dup2\n      0x02\n      add\n      sstore\n      0x60\n      dup3\n      add\n      mload\n      dup2\n      0x03\n      add\n      exp(0x0100, 0x00)\n      dup2\n      sload\n      dup2\n      0xff\n      mul\n      not\n      and\n      swap1\n      dup4\n      0x01\n      dup2\n      gt\n      iszero\n      tag_269\n      jumpi\n      tag_270\n      tag_118\n      jump\t// in\n    tag_270:\n    tag_269:\n      mul\n      or\n      swap1\n      sstore\n      pop\n      0x80\n      dup3\n      add\n      mload\n      dup2\n      0x04\n      add\n      sstore\n      0xa0\n      dup3\n      add\n      mload\n      dup2\n      0x05\n      add\n      sstore\n      0xc0\n      dup3\n      add\n      mload\n      dup2\n      0x06\n      add\n      sstore\n      swap1\n      pop\n      pop\n        /* \"contracts/OrderBook.sol\":2862:2868  newBid */\n      dup1\n        /* \"contracts/OrderBook.sol\":2855:2868  return newBid */\n      swap2\n      pop\n      pop\n        /* \"contracts/OrderBook.sol\":2486:2875  function createBid(address customer, uint256 value, uint256 timestamp) internal returns (order memory) {... */\n      swap4\n      swap3\n      pop\n      pop\n      pop\n      jump\t// out\n        /* \"contracts/OrderBook.sol\":5117:5994  function sortBid(order memory newOrder) internal {... */\n    tag_209:\n        /* \"contracts/OrderBook.sol\":5176:5191  uint256 current */\n      0x00\n        /* \"contracts/OrderBook.sol\":5216:5217  0 */\n      dup1\n        /* \"contracts/OrderBook.sol\":5205:5212  bidHead */\n      sload(0x04)\n        /* \"contracts/OrderBook.sol\":5205:5217  bidHead == 0 */\n      eq\n        /* \"contracts/OrderBook.sol\":5201:5988  if (bidHead == 0) {... */\n      iszero\n      tag_272\n      jumpi\n        /* \"contracts/OrderBook.sol\":5243:5251  newOrder */\n      dup2\n        /* \"contracts/OrderBook.sol\":5243:5254  newOrder.id */\n      0x80\n      add\n      mload\n        /* \"contracts/OrderBook.sol\":5233:5240  bidHead */\n      0x04\n        /* \"contracts/OrderBook.sol\":5233:5254  bidHead = newOrder.id */\n      dup2\n      swap1\n      sstore\n      pop\n        /* \"contracts/OrderBook.sol\":5201:5988  if (bidHead == 0) {... */\n      jump(tag_273)\n    tag_272:\n        /* \"contracts/OrderBook.sol\":5301:5309  newOrder */\n      dup2\n        /* \"contracts/OrderBook.sol\":5301:5315  newOrder.value */\n      0x20\n      add\n      mload\n        /* \"contracts/OrderBook.sol\":5275:5282  bidBook */\n      0x03\n        /* \"contracts/OrderBook.sol\":5275:5291  bidBook[bidHead] */\n      0x00\n        /* \"contracts/OrderBook.sol\":5283:5290  bidHead */\n      sload(0x04)\n        /* \"contracts/OrderBook.sol\":5275:5291  bidBook[bidHead] */\n      dup2\n      mstore\n      0x20\n      add\n      swap1\n      dup2\n      mstore\n      0x20\n      add\n      0x00\n      keccak256\n        /* \"contracts/OrderBook.sol\":5275:5297  bidBook[bidHead].value */\n      0x01\n      add\n      sload\n        /* \"contracts/OrderBook.sol\":5275:5315  bidBook[bidHead].value <= newOrder.value */\n      gt\n        /* \"contracts/OrderBook.sol\":5271:5988  if (bidBook[bidHead].value <= newOrder.value) {... */\n      tag_274\n      jumpi\n        /* \"contracts/OrderBook.sol\":5359:5366  bidHead */\n      sload(0x04)\n        /* \"contracts/OrderBook.sol\":5331:5338  bidBook */\n      0x03\n        /* \"contracts/OrderBook.sol\":5331:5351  bidBook[newOrder.id] */\n      0x00\n        /* \"contracts/OrderBook.sol\":5339:5347  newOrder */\n      dup5\n        /* \"contracts/OrderBook.sol\":5339:5350  newOrder.id */\n      0x80\n      add\n      mload\n        /* \"contracts/OrderBook.sol\":5331:5351  bidBook[newOrder.id] */\n      dup2\n      mstore\n      0x20\n      add\n      swap1\n      dup2\n      mstore\n      0x20\n      add\n      0x00\n      keccak256\n        /* \"contracts/OrderBook.sol\":5331:5356  bidBook[newOrder.id].next */\n      0x05\n      add\n        /* \"contracts/OrderBook.sol\":5331:5366  bidBook[newOrder.id].next = bidHead */\n      dup2\n      swap1\n      sstore\n      pop\n        /* \"contracts/OrderBook.sol\":5422:5430  newOrder */\n      dup2\n        /* \"contracts/OrderBook.sol\":5422:5433  newOrder.id */\n      0x80\n      add\n      mload\n        /* \"contracts/OrderBook.sol\":5380:5387  bidBook */\n      0x03\n        /* \"contracts/OrderBook.sol\":5380:5414  bidBook[bidBook[newOrder.id].next] */\n      0x00\n        /* \"contracts/OrderBook.sol\":5388:5395  bidBook */\n      0x03\n        /* \"contracts/OrderBook.sol\":5388:5408  bidBook[newOrder.id] */\n      0x00\n        /* \"contracts/OrderBook.sol\":5396:5404  newOrder */\n      dup7\n        /* \"contracts/OrderBook.sol\":5396:5407  newOrder.id */\n      0x80\n      add\n      mload\n        /* \"contracts/OrderBook.sol\":5388:5408  bidBook[newOrder.id] */\n      dup2\n      mstore\n      0x20\n      add\n      swap1\n      dup2\n      mstore\n      0x20\n      add\n      0x00\n      keccak256\n        /* \"contracts/OrderBook.sol\":5388:5413  bidBook[newOrder.id].next */\n      0x05\n      add\n      sload\n        /* \"contracts/OrderBook.sol\":5380:5414  bidBook[bidBook[newOrder.id].next] */\n      dup2\n      mstore\n      0x20\n      add\n      swap1\n      dup2\n      mstore\n      0x20\n      add\n      0x00\n      keccak256\n        /* \"contracts/OrderBook.sol\":5380:5419  bidBook[bidBook[newOrder.id].next].prev */\n      0x06\n      add\n        /* \"contracts/OrderBook.sol\":5380:5433  bidBook[bidBook[newOrder.id].next].prev = newOrder.id */\n      dup2\n      swap1\n      sstore\n      pop\n        /* \"contracts/OrderBook.sol\":5457:5465  newOrder */\n      dup2\n        /* \"contracts/OrderBook.sol\":5457:5468  newOrder.id */\n      0x80\n      add\n      mload\n        /* \"contracts/OrderBook.sol\":5447:5454  bidHead */\n      0x04\n        /* \"contracts/OrderBook.sol\":5447:5468  bidHead = newOrder.id */\n      dup2\n      swap1\n      sstore\n      pop\n        /* \"contracts/OrderBook.sol\":5271:5988  if (bidBook[bidHead].value <= newOrder.value) {... */\n      jump(tag_275)\n    tag_274:\n        /* \"contracts/OrderBook.sol\":5509:5516  bidHead */\n      sload(0x04)\n        /* \"contracts/OrderBook.sol\":5499:5516  current = bidHead */\n      swap1\n      pop\n        /* \"contracts/OrderBook.sol\":5530:5686  while (bidBook[current].next != 0 && bidBook[bidBook[current].next].value > newOrder.value) {... */\n    tag_276:\n        /* \"contracts/OrderBook.sol\":5562:5563  0 */\n      0x00\n        /* \"contracts/OrderBook.sol\":5537:5544  bidBook */\n      0x03\n        /* \"contracts/OrderBook.sol\":5537:5553  bidBook[current] */\n      0x00\n        /* \"contracts/OrderBook.sol\":5545:5552  current */\n      dup4\n        /* \"contracts/OrderBook.sol\":5537:5553  bidBook[current] */\n      dup2\n      mstore\n      0x20\n      add\n      swap1\n      dup2\n      mstore\n      0x20\n      add\n      0x00\n      keccak256\n        /* \"contracts/OrderBook.sol\":5537:5558  bidBook[current].next */\n      0x05\n      add\n      sload\n        /* \"contracts/OrderBook.sol\":5537:5563  bidBook[current].next != 0 */\n      eq\n      iszero\n        /* \"contracts/OrderBook.sol\":5537:5620  bidBook[current].next != 0 && bidBook[bidBook[current].next].value > newOrder.value */\n      dup1\n      iszero\n      tag_278\n      jumpi\n      pop\n        /* \"contracts/OrderBook.sol\":5606:5614  newOrder */\n      dup2\n        /* \"contracts/OrderBook.sol\":5606:5620  newOrder.value */\n      0x20\n      add\n      mload\n        /* \"contracts/OrderBook.sol\":5567:5574  bidBook */\n      0x03\n        /* \"contracts/OrderBook.sol\":5567:5597  bidBook[bidBook[current].next] */\n      0x00\n        /* \"contracts/OrderBook.sol\":5575:5582  bidBook */\n      0x03\n        /* \"contracts/OrderBook.sol\":5575:5591  bidBook[current] */\n      0x00\n        /* \"contracts/OrderBook.sol\":5583:5590  current */\n      dup6\n        /* \"contracts/OrderBook.sol\":5575:5591  bidBook[current] */\n      dup2\n      mstore\n      0x20\n      add\n      swap1\n      dup2\n      mstore\n      0x20\n      add\n      0x00\n      keccak256\n        /* \"contracts/OrderBook.sol\":5575:5596  bidBook[current].next */\n      0x05\n      add\n      sload\n        /* \"contracts/OrderBook.sol\":5567:5597  bidBook[bidBook[current].next] */\n      dup2\n      mstore\n      0x20\n      add\n      swap1\n      dup2\n      mstore\n      0x20\n      add\n      0x00\n      keccak256\n        /* \"contracts/OrderBook.sol\":5567:5603  bidBook[bidBook[current].next].value */\n      0x01\n      add\n      sload\n        /* \"contracts/OrderBook.sol\":5567:5620  bidBook[bidBook[current].next].value > newOrder.value */\n      gt\n        /* \"contracts/OrderBook.sol\":5537:5620  bidBook[current].next != 0 && bidBook[bidBook[current].next].value > newOrder.value */\n    tag_278:\n        /* \"contracts/OrderBook.sol\":5530:5686  while (bidBook[current].next != 0 && bidBook[bidBook[current].next].value > newOrder.value) {... */\n      iszero\n      tag_277\n      jumpi\n        /* \"contracts/OrderBook.sol\":5650:5657  bidBook */\n      0x03\n        /* \"contracts/OrderBook.sol\":5650:5666  bidBook[current] */\n      0x00\n        /* \"contracts/OrderBook.sol\":5658:5665  current */\n      dup3\n        /* \"contracts/OrderBook.sol\":5650:5666  bidBook[current] */\n      dup2\n      mstore\n      0x20\n      add\n      swap1\n      dup2\n      mstore\n      0x20\n      add\n      0x00\n      keccak256\n        /* \"contracts/OrderBook.sol\":5650:5671  bidBook[current].next */\n      0x05\n      add\n      sload\n        /* \"contracts/OrderBook.sol\":5640:5671  current = bidBook[current].next */\n      swap1\n      pop\n        /* \"contracts/OrderBook.sol\":5530:5686  while (bidBook[current].next != 0 && bidBook[bidBook[current].next].value > newOrder.value) {... */\n      jump(tag_276)\n    tag_277:\n        /* \"contracts/OrderBook.sol\":5727:5734  bidBook */\n      0x03\n        /* \"contracts/OrderBook.sol\":5727:5743  bidBook[current] */\n      0x00\n        /* \"contracts/OrderBook.sol\":5735:5742  current */\n      dup3\n        /* \"contracts/OrderBook.sol\":5727:5743  bidBook[current] */\n      dup2\n      mstore\n      0x20\n      add\n      swap1\n      dup2\n      mstore\n      0x20\n      add\n      0x00\n      keccak256\n        /* \"contracts/OrderBook.sol\":5727:5748  bidBook[current].next */\n      0x05\n      add\n      sload\n        /* \"contracts/OrderBook.sol\":5699:5706  bidBook */\n      0x03\n        /* \"contracts/OrderBook.sol\":5699:5719  bidBook[newOrder.id] */\n      0x00\n        /* \"contracts/OrderBook.sol\":5707:5715  newOrder */\n      dup5\n        /* \"contracts/OrderBook.sol\":5707:5718  newOrder.id */\n      0x80\n      add\n      mload\n        /* \"contracts/OrderBook.sol\":5699:5719  bidBook[newOrder.id] */\n      dup2\n      mstore\n      0x20\n      add\n      swap1\n      dup2\n      mstore\n      0x20\n      add\n      0x00\n      keccak256\n        /* \"contracts/OrderBook.sol\":5699:5724  bidBook[newOrder.id].next */\n      0x05\n      add\n        /* \"contracts/OrderBook.sol\":5699:5748  bidBook[newOrder.id].next = bidBook[current].next */\n      dup2\n      swap1\n      sstore\n      pop\n        /* \"contracts/OrderBook.sol\":5791:5792  0 */\n      0x00\n        /* \"contracts/OrderBook.sol\":5766:5773  bidBook */\n      0x03\n        /* \"contracts/OrderBook.sol\":5766:5782  bidBook[current] */\n      0x00\n        /* \"contracts/OrderBook.sol\":5774:5781  current */\n      dup4\n        /* \"contracts/OrderBook.sol\":5766:5782  bidBook[current] */\n      dup2\n      mstore\n      0x20\n      add\n      swap1\n      dup2\n      mstore\n      0x20\n      add\n      0x00\n      keccak256\n        /* \"contracts/OrderBook.sol\":5766:5787  bidBook[current].next */\n      0x05\n      add\n      sload\n        /* \"contracts/OrderBook.sol\":5766:5792  bidBook[current].next != 0 */\n      eq\n        /* \"contracts/OrderBook.sol\":5762:5880  if (bidBook[current].next != 0) {... */\n      tag_279\n      jumpi\n        /* \"contracts/OrderBook.sol\":5854:5862  newOrder */\n      dup2\n        /* \"contracts/OrderBook.sol\":5854:5865  newOrder.id */\n      0x80\n      add\n      mload\n        /* \"contracts/OrderBook.sol\":5812:5819  bidBook */\n      0x03\n        /* \"contracts/OrderBook.sol\":5812:5846  bidBook[bidBook[newOrder.id].next] */\n      0x00\n        /* \"contracts/OrderBook.sol\":5820:5827  bidBook */\n      0x03\n        /* \"contracts/OrderBook.sol\":5820:5840  bidBook[newOrder.id] */\n      0x00\n        /* \"contracts/OrderBook.sol\":5828:5836  newOrder */\n      dup7\n        /* \"contracts/OrderBook.sol\":5828:5839  newOrder.id */\n      0x80\n      add\n      mload\n        /* \"contracts/OrderBook.sol\":5820:5840  bidBook[newOrder.id] */\n      dup2\n      mstore\n      0x20\n      add\n      swap1\n      dup2\n      mstore\n      0x20\n      add\n      0x00\n      keccak256\n        /* \"contracts/OrderBook.sol\":5820:5845  bidBook[newOrder.id].next */\n      0x05\n      add\n      sload\n        /* \"contracts/OrderBook.sol\":5812:5846  bidBook[bidBook[newOrder.id].next] */\n      dup2\n      mstore\n      0x20\n      add\n      swap1\n      dup2\n      mstore\n      0x20\n      add\n      0x00\n      keccak256\n        /* \"contracts/OrderBook.sol\":5812:5851  bidBook[bidBook[newOrder.id].next].prev */\n      0x06\n      add\n        /* \"contracts/OrderBook.sol\":5812:5865  bidBook[bidBook[newOrder.id].next].prev = newOrder.id */\n      dup2\n      swap1\n      sstore\n      pop\n        /* \"contracts/OrderBook.sol\":5762:5880  if (bidBook[current].next != 0) {... */\n    tag_279:\n        /* \"contracts/OrderBook.sol\":5917:5925  newOrder */\n      dup2\n        /* \"contracts/OrderBook.sol\":5917:5928  newOrder.id */\n      0x80\n      add\n      mload\n        /* \"contracts/OrderBook.sol\":5893:5900  bidBook */\n      0x03\n        /* \"contracts/OrderBook.sol\":5893:5909  bidBook[current] */\n      0x00\n        /* \"contracts/OrderBook.sol\":5901:5908  current */\n      dup4\n        /* \"contracts/OrderBook.sol\":5893:5909  bidBook[current] */\n      dup2\n      mstore\n      0x20\n      add\n      swap1\n      dup2\n      mstore\n      0x20\n      add\n      0x00\n      keccak256\n        /* \"contracts/OrderBook.sol\":5893:5914  bidBook[current].next */\n      0x05\n      add\n        /* \"contracts/OrderBook.sol\":5893:5928  bidBook[current].next = newOrder.id */\n      dup2\n      swap1\n      sstore\n      pop\n        /* \"contracts/OrderBook.sol\":5970:5977  current */\n      dup1\n        /* \"contracts/OrderBook.sol\":5942:5949  bidBook */\n      0x03\n        /* \"contracts/OrderBook.sol\":5942:5962  bidBook[newOrder.id] */\n      0x00\n        /* \"contracts/OrderBook.sol\":5950:5958  newOrder */\n      dup5\n        /* \"contracts/OrderBook.sol\":5950:5961  newOrder.id */\n      0x80\n      add\n      mload\n        /* \"contracts/OrderBook.sol\":5942:5962  bidBook[newOrder.id] */\n      dup2\n      mstore\n      0x20\n      add\n      swap1\n      dup2\n      mstore\n      0x20\n      add\n      0x00\n      keccak256\n        /* \"contracts/OrderBook.sol\":5942:5967  bidBook[newOrder.id].prev */\n      0x06\n      add\n        /* \"contracts/OrderBook.sol\":5942:5977  bidBook[newOrder.id].prev = current */\n      dup2\n      swap1\n      sstore\n      pop\n        /* \"contracts/OrderBook.sol\":5271:5988  if (bidBook[bidHead].value <= newOrder.value) {... */\n    tag_275:\n        /* \"contracts/OrderBook.sol\":5201:5988  if (bidHead == 0) {... */\n    tag_273:\n        /* \"contracts/OrderBook.sol\":5166:5994  {... */\n      pop\n        /* \"contracts/OrderBook.sol\":5117:5994  function sortBid(order memory newOrder) internal {... */\n      pop\n      jump\t// out\n    tag_248:\n      mload(0x40)\n      dup1\n      0xe0\n      add\n      0x40\n      mstore\n      dup1\n      and(0xffffffffffffffffffffffffffffffffffffffff, 0x00)\n      dup2\n      mstore\n      0x20\n      add\n      0x00\n      dup2\n      mstore\n      0x20\n      add\n      0x00\n      dup2\n      mstore\n      0x20\n      add\n      0x00\n      0x01\n      dup2\n      gt\n      iszero\n      tag_280\n      jumpi\n      tag_281\n      tag_118\n      jump\t// in\n    tag_281:\n    tag_280:\n      dup2\n      mstore\n      0x20\n      add\n      0x00\n      dup2\n      mstore\n      0x20\n      add\n      0x00\n      dup2\n      mstore\n      0x20\n      add\n      0x00\n      dup2\n      mstore\n      pop\n      swap1\n      jump\t// out\n        /* \"#utility.yul\":7:419   */\n    tag_283:\n        /* \"#utility.yul\":85:90   */\n      0x00\n        /* \"#utility.yul\":110:176   */\n      tag_285\n        /* \"#utility.yul\":126:175   */\n      tag_286\n        /* \"#utility.yul\":168:174   */\n      dup5\n        /* \"#utility.yul\":126:175   */\n      tag_287\n      jump\t// in\n    tag_286:\n        /* \"#utility.yul\":110:176   */\n      tag_288\n      jump\t// in\n    tag_285:\n        /* \"#utility.yul\":101:176   */\n      swap1\n      pop\n        /* \"#utility.yul\":199:205   */\n      dup3\n        /* \"#utility.yul\":192:197   */\n      dup2\n        /* \"#utility.yul\":185:206   */\n      mstore\n        /* \"#utility.yul\":237:241   */\n      0x20\n        /* \"#utility.yul\":230:235   */\n      dup2\n        /* \"#utility.yul\":226:242   */\n      add\n        /* \"#utility.yul\":275:278   */\n      dup5\n        /* \"#utility.yul\":266:272   */\n      dup5\n        /* \"#utility.yul\":261:264   */\n      dup5\n        /* \"#utility.yul\":257:273   */\n      add\n        /* \"#utility.yul\":254:279   */\n      gt\n        /* \"#utility.yul\":251:363   */\n      iszero\n      tag_289\n      jumpi\n        /* \"#utility.yul\":282:361   */\n      tag_290\n      tag_291\n      jump\t// in\n    tag_290:\n        /* \"#utility.yul\":251:363   */\n    tag_289:\n        /* \"#utility.yul\":372:413   */\n      tag_292\n        /* \"#utility.yul\":406:412   */\n      dup5\n        /* \"#utility.yul\":401:404   */\n      dup3\n        /* \"#utility.yul\":396:399   */\n      dup6\n        /* \"#utility.yul\":372:413   */\n      tag_293\n      jump\t// in\n    tag_292:\n        /* \"#utility.yul\":91:419   */\n      pop\n        /* \"#utility.yul\":7:419   */\n      swap4\n      swap3\n      pop\n      pop\n      pop\n      jump\t// out\n        /* \"#utility.yul\":439:779   */\n    tag_294:\n        /* \"#utility.yul\":495:500   */\n      0x00\n        /* \"#utility.yul\":544:547   */\n      dup3\n        /* \"#utility.yul\":537:541   */\n      0x1f\n        /* \"#utility.yul\":529:535   */\n      dup4\n        /* \"#utility.yul\":525:542   */\n      add\n        /* \"#utility.yul\":521:548   */\n      slt\n        /* \"#utility.yul\":511:633   */\n      tag_296\n      jumpi\n        /* \"#utility.yul\":552:631   */\n      tag_297\n      tag_298\n      jump\t// in\n    tag_297:\n        /* \"#utility.yul\":511:633   */\n    tag_296:\n        /* \"#utility.yul\":669:675   */\n      dup2\n        /* \"#utility.yul\":656:676   */\n      calldataload\n        /* \"#utility.yul\":694:773   */\n      tag_299\n        /* \"#utility.yul\":769:772   */\n      dup5\n        /* \"#utility.yul\":761:767   */\n      dup3\n        /* \"#utility.yul\":754:758   */\n      0x20\n        /* \"#utility.yul\":746:752   */\n      dup7\n        /* \"#utility.yul\":742:759   */\n      add\n        /* \"#utility.yul\":694:773   */\n      tag_283\n      jump\t// in\n    tag_299:\n        /* \"#utility.yul\":685:773   */\n      swap2\n      pop\n        /* \"#utility.yul\":501:779   */\n      pop\n        /* \"#utility.yul\":439:779   */\n      swap3\n      swap2\n      pop\n      pop\n      jump\t// out\n        /* \"#utility.yul\":785:924   */\n    tag_300:\n        /* \"#utility.yul\":831:836   */\n      0x00\n        /* \"#utility.yul\":869:875   */\n      dup2\n        /* \"#utility.yul\":856:876   */\n      calldataload\n        /* \"#utility.yul\":847:876   */\n      swap1\n      pop\n        /* \"#utility.yul\":885:918   */\n      tag_302\n        /* \"#utility.yul\":912:917   */\n      dup2\n        /* \"#utility.yul\":885:918   */\n      tag_303\n      jump\t// in\n    tag_302:\n        /* \"#utility.yul\":785:924   */\n      swap3\n      swap2\n      pop\n      pop\n      jump\t// out\n        /* \"#utility.yul\":930:1764   */\n    tag_36:\n        /* \"#utility.yul\":1018:1024   */\n      0x00\n        /* \"#utility.yul\":1026:1032   */\n      dup1\n        /* \"#utility.yul\":1075:1077   */\n      0x40\n        /* \"#utility.yul\":1063:1072   */\n      dup4\n        /* \"#utility.yul\":1054:1061   */\n      dup6\n        /* \"#utility.yul\":1050:1073   */\n      sub\n        /* \"#utility.yul\":1046:1078   */\n      slt\n        /* \"#utility.yul\":1043:1162   */\n      iszero\n      tag_305\n      jumpi\n        /* \"#utility.yul\":1081:1160   */\n      tag_306\n      tag_307\n      jump\t// in\n    tag_306:\n        /* \"#utility.yul\":1043:1162   */\n    tag_305:\n        /* \"#utility.yul\":1229:1230   */\n      0x00\n        /* \"#utility.yul\":1218:1227   */\n      dup4\n        /* \"#utility.yul\":1214:1231   */\n      add\n        /* \"#utility.yul\":1201:1232   */\n      calldataload\n        /* \"#utility.yul\":1259:1277   */\n      0xffffffffffffffff\n        /* \"#utility.yul\":1251:1257   */\n      dup2\n        /* \"#utility.yul\":1248:1278   */\n      gt\n        /* \"#utility.yul\":1245:1362   */\n      iszero\n      tag_308\n      jumpi\n        /* \"#utility.yul\":1281:1360   */\n      tag_309\n      tag_310\n      jump\t// in\n    tag_309:\n        /* \"#utility.yul\":1245:1362   */\n    tag_308:\n        /* \"#utility.yul\":1386:1449   */\n      tag_311\n        /* \"#utility.yul\":1441:1448   */\n      dup6\n        /* \"#utility.yul\":1432:1438   */\n      dup3\n        /* \"#utility.yul\":1421:1430   */\n      dup7\n        /* \"#utility.yul\":1417:1439   */\n      add\n        /* \"#utility.yul\":1386:1449   */\n      tag_294\n      jump\t// in\n    tag_311:\n        /* \"#utility.yul\":1376:1449   */\n      swap3\n      pop\n        /* \"#utility.yul\":1172:1459   */\n      pop\n        /* \"#utility.yul\":1526:1528   */\n      0x20\n        /* \"#utility.yul\":1515:1524   */\n      dup4\n        /* \"#utility.yul\":1511:1529   */\n      add\n        /* \"#utility.yul\":1498:1530   */\n      calldataload\n        /* \"#utility.yul\":1557:1575   */\n      0xffffffffffffffff\n        /* \"#utility.yul\":1549:1555   */\n      dup2\n        /* \"#utility.yul\":1546:1576   */\n      gt\n        /* \"#utility.yul\":1543:1660   */\n      iszero\n      tag_312\n      jumpi\n        /* \"#utility.yul\":1579:1658   */\n      tag_313\n      tag_310\n      jump\t// in\n    tag_313:\n        /* \"#utility.yul\":1543:1660   */\n    tag_312:\n        /* \"#utility.yul\":1684:1747   */\n      tag_314\n        /* \"#utility.yul\":1739:1746   */\n      dup6\n        /* \"#utility.yul\":1730:1736   */\n      dup3\n        /* \"#utility.yul\":1719:1728   */\n      dup7\n        /* \"#utility.yul\":1715:1737   */\n      add\n        /* \"#utility.yul\":1684:1747   */\n      tag_294\n      jump\t// in\n    tag_314:\n        /* \"#utility.yul\":1674:1747   */\n      swap2\n      pop\n        /* \"#utility.yul\":1469:1757   */\n      pop\n        /* \"#utility.yul\":930:1764   */\n      swap3\n      pop\n      swap3\n      swap1\n      pop\n      jump\t// out\n        /* \"#utility.yul\":1770:2099   */\n    tag_31:\n        /* \"#utility.yul\":1829:1835   */\n      0x00\n        /* \"#utility.yul\":1878:1880   */\n      0x20\n        /* \"#utility.yul\":1866:1875   */\n      dup3\n        /* \"#utility.yul\":1857:1864   */\n      dup5\n        /* \"#utility.yul\":1853:1876   */\n      sub\n        /* \"#utility.yul\":1849:1881   */\n      slt\n        /* \"#utility.yul\":1846:1965   */\n      iszero\n      tag_316\n      jumpi\n        /* \"#utility.yul\":1884:1963   */\n      tag_317\n      tag_307\n      jump\t// in\n    tag_317:\n        /* \"#utility.yul\":1846:1965   */\n    tag_316:\n        /* \"#utility.yul\":2004:2005   */\n      0x00\n        /* \"#utility.yul\":2029:2082   */\n      tag_318\n        /* \"#utility.yul\":2074:2081   */\n      dup5\n        /* \"#utility.yul\":2065:2071   */\n      dup3\n        /* \"#utility.yul\":2054:2063   */\n      dup6\n        /* \"#utility.yul\":2050:2072   */\n      add\n        /* \"#utility.yul\":2029:2082   */\n      tag_300\n      jump\t// in\n    tag_318:\n        /* \"#utility.yul\":2019:2082   */\n      swap2\n      pop\n        /* \"#utility.yul\":1975:2092   */\n      pop\n        /* \"#utility.yul\":1770:2099   */\n      swap3\n      swap2\n      pop\n      pop\n      jump\t// out\n        /* \"#utility.yul\":2105:2223   */\n    tag_319:\n        /* \"#utility.yul\":2192:2216   */\n      tag_321\n        /* \"#utility.yul\":2210:2215   */\n      dup2\n        /* \"#utility.yul\":2192:2216   */\n      tag_322\n      jump\t// in\n    tag_321:\n        /* \"#utility.yul\":2187:2190   */\n      dup3\n        /* \"#utility.yul\":2180:2217   */\n      mstore\n        /* \"#utility.yul\":2105:2223   */\n      pop\n      pop\n      jump\t// out\n        /* \"#utility.yul\":2229:2370   */\n    tag_323:\n        /* \"#utility.yul\":2321:2363   */\n      tag_325\n        /* \"#utility.yul\":2357:2362   */\n      dup2\n        /* \"#utility.yul\":2321:2363   */\n      tag_326\n      jump\t// in\n    tag_325:\n        /* \"#utility.yul\":2316:2319   */\n      dup3\n        /* \"#utility.yul\":2309:2364   */\n      mstore\n        /* \"#utility.yul\":2229:2370   */\n      pop\n      pop\n      jump\t// out\n        /* \"#utility.yul\":2376:2740   */\n    tag_327:\n        /* \"#utility.yul\":2464:2467   */\n      0x00\n        /* \"#utility.yul\":2492:2531   */\n      tag_329\n        /* \"#utility.yul\":2525:2530   */\n      dup3\n        /* \"#utility.yul\":2492:2531   */\n      tag_330\n      jump\t// in\n    tag_329:\n        /* \"#utility.yul\":2547:2618   */\n      tag_331\n        /* \"#utility.yul\":2611:2617   */\n      dup2\n        /* \"#utility.yul\":2606:2609   */\n      dup6\n        /* \"#utility.yul\":2547:2618   */\n      tag_332\n      jump\t// in\n    tag_331:\n        /* \"#utility.yul\":2540:2618   */\n      swap4\n      pop\n        /* \"#utility.yul\":2627:2679   */\n      tag_333\n        /* \"#utility.yul\":2672:2678   */\n      dup2\n        /* \"#utility.yul\":2667:2670   */\n      dup6\n        /* \"#utility.yul\":2660:2664   */\n      0x20\n        /* \"#utility.yul\":2653:2658   */\n      dup7\n        /* \"#utility.yul\":2649:2665   */\n      add\n        /* \"#utility.yul\":2627:2679   */\n      tag_334\n      jump\t// in\n    tag_333:\n        /* \"#utility.yul\":2704:2733   */\n      tag_335\n        /* \"#utility.yul\":2726:2732   */\n      dup2\n        /* \"#utility.yul\":2704:2733   */\n      tag_336\n      jump\t// in\n    tag_335:\n        /* \"#utility.yul\":2699:2702   */\n      dup5\n        /* \"#utility.yul\":2695:2734   */\n      add\n        /* \"#utility.yul\":2688:2734   */\n      swap2\n      pop\n        /* \"#utility.yul\":2468:2740   */\n      pop\n        /* \"#utility.yul\":2376:2740   */\n      swap3\n      swap2\n      pop\n      pop\n      jump\t// out\n        /* \"#utility.yul\":2746:3123   */\n    tag_337:\n        /* \"#utility.yul\":2852:2855   */\n      0x00\n        /* \"#utility.yul\":2880:2919   */\n      tag_339\n        /* \"#utility.yul\":2913:2918   */\n      dup3\n        /* \"#utility.yul\":2880:2919   */\n      tag_330\n      jump\t// in\n    tag_339:\n        /* \"#utility.yul\":2935:3024   */\n      tag_340\n        /* \"#utility.yul\":3017:3023   */\n      dup2\n        /* \"#utility.yul\":3012:3015   */\n      dup6\n        /* \"#utility.yul\":2935:3024   */\n      tag_341\n      jump\t// in\n    tag_340:\n        /* \"#utility.yul\":2928:3024   */\n      swap4\n      pop\n        /* \"#utility.yul\":3033:3085   */\n      tag_342\n        /* \"#utility.yul\":3078:3084   */\n      dup2\n        /* \"#utility.yul\":3073:3076   */\n      dup6\n        /* \"#utility.yul\":3066:3070   */\n      0x20\n        /* \"#utility.yul\":3059:3064   */\n      dup7\n        /* \"#utility.yul\":3055:3071   */\n      add\n        /* \"#utility.yul\":3033:3085   */\n      tag_334\n      jump\t// in\n    tag_342:\n        /* \"#utility.yul\":3110:3116   */\n      dup1\n        /* \"#utility.yul\":3105:3108   */\n      dup5\n        /* \"#utility.yul\":3101:3117   */\n      add\n        /* \"#utility.yul\":3094:3117   */\n      swap2\n      pop\n        /* \"#utility.yul\":2856:3123   */\n      pop\n        /* \"#utility.yul\":2746:3123   */\n      swap3\n      swap2\n      pop\n      pop\n      jump\t// out\n        /* \"#utility.yul\":3129:3495   */\n    tag_343:\n        /* \"#utility.yul\":3271:3274   */\n      0x00\n        /* \"#utility.yul\":3292:3359   */\n      tag_345\n        /* \"#utility.yul\":3356:3358   */\n      0x0e\n        /* \"#utility.yul\":3351:3354   */\n      dup4\n        /* \"#utility.yul\":3292:3359   */\n      tag_332\n      jump\t// in\n    tag_345:\n        /* \"#utility.yul\":3285:3359   */\n      swap2\n      pop\n        /* \"#utility.yul\":3368:3461   */\n      tag_346\n        /* \"#utility.yul\":3457:3460   */\n      dup3\n        /* \"#utility.yul\":3368:3461   */\n      tag_347\n      jump\t// in\n    tag_346:\n        /* \"#utility.yul\":3486:3488   */\n      0x20\n        /* \"#utility.yul\":3481:3484   */\n      dup3\n        /* \"#utility.yul\":3477:3489   */\n      add\n        /* \"#utility.yul\":3470:3489   */\n      swap1\n      pop\n        /* \"#utility.yul\":3129:3495   */\n      swap2\n      swap1\n      pop\n      jump\t// out\n        /* \"#utility.yul\":3501:3901   */\n    tag_348:\n        /* \"#utility.yul\":3661:3664   */\n      0x00\n        /* \"#utility.yul\":3682:3766   */\n      tag_350\n        /* \"#utility.yul\":3764:3765   */\n      0x01\n        /* \"#utility.yul\":3759:3762   */\n      dup4\n        /* \"#utility.yul\":3682:3766   */\n      tag_341\n      jump\t// in\n    tag_350:\n        /* \"#utility.yul\":3675:3766   */\n      swap2\n      pop\n        /* \"#utility.yul\":3775:3868   */\n      tag_351\n        /* \"#utility.yul\":3864:3867   */\n      dup3\n        /* \"#utility.yul\":3775:3868   */\n      tag_352\n      jump\t// in\n    tag_351:\n        /* \"#utility.yul\":3893:3894   */\n      0x01\n        /* \"#utility.yul\":3888:3891   */\n      dup3\n        /* \"#utility.yul\":3884:3895   */\n      add\n        /* \"#utility.yul\":3877:3895   */\n      swap1\n      pop\n        /* \"#utility.yul\":3501:3901   */\n      swap2\n      swap1\n      pop\n      jump\t// out\n        /* \"#utility.yul\":3907:4273   */\n    tag_353:\n        /* \"#utility.yul\":4049:4052   */\n      0x00\n        /* \"#utility.yul\":4070:4137   */\n      tag_355\n        /* \"#utility.yul\":4134:4136   */\n      0x1e\n        /* \"#utility.yul\":4129:4132   */\n      dup4\n        /* \"#utility.yul\":4070:4137   */\n      tag_332\n      jump\t// in\n    tag_355:\n        /* \"#utility.yul\":4063:4137   */\n      swap2\n      pop\n        /* \"#utility.yul\":4146:4239   */\n      tag_356\n        /* \"#utility.yul\":4235:4238   */\n      dup3\n        /* \"#utility.yul\":4146:4239   */\n      tag_357\n      jump\t// in\n    tag_356:\n        /* \"#utility.yul\":4264:4266   */\n      0x20\n        /* \"#utility.yul\":4259:4262   */\n      dup3\n        /* \"#utility.yul\":4255:4267   */\n      add\n        /* \"#utility.yul\":4248:4267   */\n      swap1\n      pop\n        /* \"#utility.yul\":3907:4273   */\n      swap2\n      swap1\n      pop\n      jump\t// out\n        /* \"#utility.yul\":4279:4645   */\n    tag_358:\n        /* \"#utility.yul\":4421:4424   */\n      0x00\n        /* \"#utility.yul\":4442:4509   */\n      tag_360\n        /* \"#utility.yul\":4506:4508   */\n      0x11\n        /* \"#utility.yul\":4501:4504   */\n      dup4\n        /* \"#utility.yul\":4442:4509   */\n      tag_332\n      jump\t// in\n    tag_360:\n        /* \"#utility.yul\":4435:4509   */\n      swap2\n      pop\n        /* \"#utility.yul\":4518:4611   */\n      tag_361\n        /* \"#utility.yul\":4607:4610   */\n      dup3\n        /* \"#utility.yul\":4518:4611   */\n      tag_362\n      jump\t// in\n    tag_361:\n        /* \"#utility.yul\":4636:4638   */\n      0x20\n        /* \"#utility.yul\":4631:4634   */\n      dup3\n        /* \"#utility.yul\":4627:4639   */\n      add\n        /* \"#utility.yul\":4620:4639   */\n      swap1\n      pop\n        /* \"#utility.yul\":4279:4645   */\n      swap2\n      swap1\n      pop\n      jump\t// out\n        /* \"#utility.yul\":4651:5017   */\n    tag_363:\n        /* \"#utility.yul\":4793:4796   */\n      0x00\n        /* \"#utility.yul\":4814:4881   */\n      tag_365\n        /* \"#utility.yul\":4878:4880   */\n      0x1f\n        /* \"#utility.yul\":4873:4876   */\n      dup4\n        /* \"#utility.yul\":4814:4881   */\n      tag_332\n      jump\t// in\n    tag_365:\n        /* \"#utility.yul\":4807:4881   */\n      swap2\n      pop\n        /* \"#utility.yul\":4890:4983   */\n      tag_366\n        /* \"#utility.yul\":4979:4982   */\n      dup3\n        /* \"#utility.yul\":4890:4983   */\n      tag_367\n      jump\t// in\n    tag_366:\n        /* \"#utility.yul\":5008:5010   */\n      0x20\n        /* \"#utility.yul\":5003:5006   */\n      dup3\n        /* \"#utility.yul\":4999:5011   */\n      add\n        /* \"#utility.yul\":4992:5011   */\n      swap1\n      pop\n        /* \"#utility.yul\":4651:5017   */\n      swap2\n      swap1\n      pop\n      jump\t// out\n        /* \"#utility.yul\":5023:5389   */\n    tag_368:\n        /* \"#utility.yul\":5165:5168   */\n      0x00\n        /* \"#utility.yul\":5186:5253   */\n      tag_370\n        /* \"#utility.yul\":5250:5252   */\n      0x1e\n        /* \"#utility.yul\":5245:5248   */\n      dup4\n        /* \"#utility.yul\":5186:5253   */\n      tag_332\n      jump\t// in\n    tag_370:\n        /* \"#utility.yul\":5179:5253   */\n      swap2\n      pop\n        /* \"#utility.yul\":5262:5355   */\n      tag_371\n        /* \"#utility.yul\":5351:5354   */\n      dup3\n        /* \"#utility.yul\":5262:5355   */\n      tag_372\n      jump\t// in\n    tag_371:\n        /* \"#utility.yul\":5380:5382   */\n      0x20\n        /* \"#utility.yul\":5375:5378   */\n      dup3\n        /* \"#utility.yul\":5371:5383   */\n      add\n        /* \"#utility.yul\":5364:5383   */\n      swap1\n      pop\n        /* \"#utility.yul\":5023:5389   */\n      swap2\n      swap1\n      pop\n      jump\t// out\n        /* \"#utility.yul\":5395:5513   */\n    tag_373:\n        /* \"#utility.yul\":5482:5506   */\n      tag_375\n        /* \"#utility.yul\":5500:5505   */\n      dup2\n        /* \"#utility.yul\":5482:5506   */\n      tag_376\n      jump\t// in\n    tag_375:\n        /* \"#utility.yul\":5477:5480   */\n      dup3\n        /* \"#utility.yul\":5470:5507   */\n      mstore\n        /* \"#utility.yul\":5395:5513   */\n      pop\n      pop\n      jump\t// out\n        /* \"#utility.yul\":5519:6220   */\n    tag_146:\n        /* \"#utility.yul\":5800:5803   */\n      0x00\n        /* \"#utility.yul\":5822:5917   */\n      tag_378\n        /* \"#utility.yul\":5913:5916   */\n      dup3\n        /* \"#utility.yul\":5904:5910   */\n      dup6\n        /* \"#utility.yul\":5822:5917   */\n      tag_337\n      jump\t// in\n    tag_378:\n        /* \"#utility.yul\":5815:5917   */\n      swap2\n      pop\n        /* \"#utility.yul\":5934:6082   */\n      tag_379\n        /* \"#utility.yul\":6078:6081   */\n      dup3\n        /* \"#utility.yul\":5934:6082   */\n      tag_348\n      jump\t// in\n    tag_379:\n        /* \"#utility.yul\":5927:6082   */\n      swap2\n      pop\n        /* \"#utility.yul\":6099:6194   */\n      tag_380\n        /* \"#utility.yul\":6190:6193   */\n      dup3\n        /* \"#utility.yul\":6181:6187   */\n      dup5\n        /* \"#utility.yul\":6099:6194   */\n      tag_337\n      jump\t// in\n    tag_380:\n        /* \"#utility.yul\":6092:6194   */\n      swap2\n      pop\n        /* \"#utility.yul\":6211:6214   */\n      dup2\n        /* \"#utility.yul\":6204:6214   */\n      swap1\n      pop\n        /* \"#utility.yul\":5519:6220   */\n      swap4\n      swap3\n      pop\n      pop\n      pop\n      jump\t// out\n        /* \"#utility.yul\":6226:6558   */\n    tag_143:\n        /* \"#utility.yul\":6347:6351   */\n      0x00\n        /* \"#utility.yul\":6385:6387   */\n      0x40\n        /* \"#utility.yul\":6374:6383   */\n      dup3\n        /* \"#utility.yul\":6370:6388   */\n      add\n        /* \"#utility.yul\":6362:6388   */\n      swap1\n      pop\n        /* \"#utility.yul\":6398:6469   */\n      tag_382\n        /* \"#utility.yul\":6466:6467   */\n      0x00\n        /* \"#utility.yul\":6455:6464   */\n      dup4\n        /* \"#utility.yul\":6451:6468   */\n      add\n        /* \"#utility.yul\":6442:6448   */\n      dup6\n        /* \"#utility.yul\":6398:6469   */\n      tag_319\n      jump\t// in\n    tag_382:\n        /* \"#utility.yul\":6479:6551   */\n      tag_383\n        /* \"#utility.yul\":6547:6549   */\n      0x20\n        /* \"#utility.yul\":6536:6545   */\n      dup4\n        /* \"#utility.yul\":6532:6550   */\n      add\n        /* \"#utility.yul\":6523:6529   */\n      dup5\n        /* \"#utility.yul\":6479:6551   */\n      tag_373\n      jump\t// in\n    tag_383:\n        /* \"#utility.yul\":6226:6558   */\n      swap4\n      swap3\n      pop\n      pop\n      pop\n      jump\t// out\n        /* \"#utility.yul\":6564:6796   */\n    tag_59:\n        /* \"#utility.yul\":6662:6666   */\n      0x00\n        /* \"#utility.yul\":6700:6702   */\n      0x20\n        /* \"#utility.yul\":6689:6698   */\n      dup3\n        /* \"#utility.yul\":6685:6703   */\n      add\n        /* \"#utility.yul\":6677:6703   */\n      swap1\n      pop\n        /* \"#utility.yul\":6713:6789   */\n      tag_385\n        /* \"#utility.yul\":6786:6787   */\n      0x00\n        /* \"#utility.yul\":6775:6784   */\n      dup4\n        /* \"#utility.yul\":6771:6788   */\n      add\n        /* \"#utility.yul\":6762:6768   */\n      dup5\n        /* \"#utility.yul\":6713:6789   */\n      tag_323\n      jump\t// in\n    tag_385:\n        /* \"#utility.yul\":6564:6796   */\n      swap3\n      swap2\n      pop\n      pop\n      jump\t// out\n        /* \"#utility.yul\":6802:7115   */\n    tag_28:\n        /* \"#utility.yul\":6915:6919   */\n      0x00\n        /* \"#utility.yul\":6953:6955   */\n      0x20\n        /* \"#utility.yul\":6942:6951   */\n      dup3\n        /* \"#utility.yul\":6938:6956   */\n      add\n        /* \"#utility.yul\":6930:6956   */\n      swap1\n      pop\n        /* \"#utility.yul\":7002:7011   */\n      dup2\n        /* \"#utility.yul\":6996:7000   */\n      dup2\n        /* \"#utility.yul\":6992:7012   */\n      sub\n        /* \"#utility.yul\":6988:6989   */\n      0x00\n        /* \"#utility.yul\":6977:6986   */\n      dup4\n        /* \"#utility.yul\":6973:6990   */\n      add\n        /* \"#utility.yul\":6966:7013   */\n      mstore\n        /* \"#utility.yul\":7030:7108   */\n      tag_387\n        /* \"#utility.yul\":7103:7107   */\n      dup2\n        /* \"#utility.yul\":7094:7100   */\n      dup5\n        /* \"#utility.yul\":7030:7108   */\n      tag_327\n      jump\t// in\n    tag_387:\n        /* \"#utility.yul\":7022:7108   */\n      swap1\n      pop\n        /* \"#utility.yul\":6802:7115   */\n      swap3\n      swap2\n      pop\n      pop\n      jump\t// out\n        /* \"#utility.yul\":7121:7540   */\n    tag_136:\n        /* \"#utility.yul\":7287:7291   */\n      0x00\n        /* \"#utility.yul\":7325:7327   */\n      0x20\n        /* \"#utility.yul\":7314:7323   */\n      dup3\n        /* \"#utility.yul\":7310:7328   */\n      add\n        /* \"#utility.yul\":7302:7328   */\n      swap1\n      pop\n        /* \"#utility.yul\":7374:7383   */\n      dup2\n        /* \"#utility.yul\":7368:7372   */\n      dup2\n        /* \"#utility.yul\":7364:7384   */\n      sub\n        /* \"#utility.yul\":7360:7361   */\n      0x00\n        /* \"#utility.yul\":7349:7358   */\n      dup4\n        /* \"#utility.yul\":7345:7362   */\n      add\n        /* \"#utility.yul\":7338:7385   */\n      mstore\n        /* \"#utility.yul\":7402:7533   */\n      tag_389\n        /* \"#utility.yul\":7528:7532   */\n      dup2\n        /* \"#utility.yul\":7402:7533   */\n      tag_343\n      jump\t// in\n    tag_389:\n        /* \"#utility.yul\":7394:7533   */\n      swap1\n      pop\n        /* \"#utility.yul\":7121:7540   */\n      swap2\n      swap1\n      pop\n      jump\t// out\n        /* \"#utility.yul\":7546:7965   */\n    tag_202:\n        /* \"#utility.yul\":7712:7716   */\n      0x00\n        /* \"#utility.yul\":7750:7752   */\n      0x20\n        /* \"#utility.yul\":7739:7748   */\n      dup3\n        /* \"#utility.yul\":7735:7753   */\n      add\n        /* \"#utility.yul\":7727:7753   */\n      swap1\n      pop\n        /* \"#utility.yul\":7799:7808   */\n      dup2\n        /* \"#utility.yul\":7793:7797   */\n      dup2\n        /* \"#utility.yul\":7789:7809   */\n      sub\n        /* \"#utility.yul\":7785:7786   */\n      0x00\n        /* \"#utility.yul\":7774:7783   */\n      dup4\n        /* \"#utility.yul\":7770:7787   */\n      add\n        /* \"#utility.yul\":7763:7810   */\n      mstore\n        /* \"#utility.yul\":7827:7958   */\n      tag_391\n        /* \"#utility.yul\":7953:7957   */\n      dup2\n        /* \"#utility.yul\":7827:7958   */\n      tag_353\n      jump\t// in\n    tag_391:\n        /* \"#utility.yul\":7819:7958   */\n      swap1\n      pop\n        /* \"#utility.yul\":7546:7965   */\n      swap2\n      swap1\n      pop\n      jump\t// out\n        /* \"#utility.yul\":7971:8390   */\n    tag_128:\n        /* \"#utility.yul\":8137:8141   */\n      0x00\n        /* \"#utility.yul\":8175:8177   */\n      0x20\n        /* \"#utility.yul\":8164:8173   */\n      dup3\n        /* \"#utility.yul\":8160:8178   */\n      add\n        /* \"#utility.yul\":8152:8178   */\n      swap1\n      pop\n        /* \"#utility.yul\":8224:8233   */\n      dup2\n        /* \"#utility.yul\":8218:8222   */\n      dup2\n        /* \"#utility.yul\":8214:8234   */\n      sub\n        /* \"#utility.yul\":8210:8211   */\n      0x00\n        /* \"#utility.yul\":8199:8208   */\n      dup4\n        /* \"#utility.yul\":8195:8212   */\n      add\n        /* \"#utility.yul\":8188:8235   */\n      mstore\n        /* \"#utility.yul\":8252:8383   */\n      tag_393\n        /* \"#utility.yul\":8378:8382   */\n      dup2\n        /* \"#utility.yul\":8252:8383   */\n      tag_358\n      jump\t// in\n    tag_393:\n        /* \"#utility.yul\":8244:8383   */\n      swap1\n      pop\n        /* \"#utility.yul\":7971:8390   */\n      swap2\n      swap1\n      pop\n      jump\t// out\n        /* \"#utility.yul\":8396:8815   */\n    tag_159:\n        /* \"#utility.yul\":8562:8566   */\n      0x00\n        /* \"#utility.yul\":8600:8602   */\n      0x20\n        /* \"#utility.yul\":8589:8598   */\n      dup3\n        /* \"#utility.yul\":8585:8603   */\n      add\n        /* \"#utility.yul\":8577:8603   */\n      swap1\n      pop\n        /* \"#utility.yul\":8649:8658   */\n      dup2\n        /* \"#utility.yul\":8643:8647   */\n      dup2\n        /* \"#utility.yul\":8639:8659   */\n      sub\n        /* \"#utility.yul\":8635:8636   */\n      0x00\n        /* \"#utility.yul\":8624:8633   */\n      dup4\n        /* \"#utility.yul\":8620:8637   */\n      add\n        /* \"#utility.yul\":8613:8660   */\n      mstore\n        /* \"#utility.yul\":8677:8808   */\n      tag_395\n        /* \"#utility.yul\":8803:8807   */\n      dup2\n        /* \"#utility.yul\":8677:8808   */\n      tag_363\n      jump\t// in\n    tag_395:\n        /* \"#utility.yul\":8669:8808   */\n      swap1\n      pop\n        /* \"#utility.yul\":8396:8815   */\n      swap2\n      swap1\n      pop\n      jump\t// out\n        /* \"#utility.yul\":8821:9240   */\n    tag_162:\n        /* \"#utility.yul\":8987:8991   */\n      0x00\n        /* \"#utility.yul\":9025:9027   */\n      0x20\n        /* \"#utility.yul\":9014:9023   */\n      dup3\n        /* \"#utility.yul\":9010:9028   */\n      add\n        /* \"#utility.yul\":9002:9028   */\n      swap1\n      pop\n        /* \"#utility.yul\":9074:9083   */\n      dup2\n        /* \"#utility.yul\":9068:9072   */\n      dup2\n        /* \"#utility.yul\":9064:9084   */\n      sub\n        /* \"#utility.yul\":9060:9061   */\n      0x00\n        /* \"#utility.yul\":9049:9058   */\n      dup4\n        /* \"#utility.yul\":9045:9062   */\n      add\n        /* \"#utility.yul\":9038:9085   */\n      mstore\n        /* \"#utility.yul\":9102:9233   */\n      tag_397\n        /* \"#utility.yul\":9228:9232   */\n      dup2\n        /* \"#utility.yul\":9102:9233   */\n      tag_368\n      jump\t// in\n    tag_397:\n        /* \"#utility.yul\":9094:9233   */\n      swap1\n      pop\n        /* \"#utility.yul\":8821:9240   */\n      swap2\n      swap1\n      pop\n      jump\t// out\n        /* \"#utility.yul\":9246:9468   */\n    tag_44:\n        /* \"#utility.yul\":9339:9343   */\n      0x00\n        /* \"#utility.yul\":9377:9379   */\n      0x20\n        /* \"#utility.yul\":9366:9375   */\n      dup3\n        /* \"#utility.yul\":9362:9380   */\n      add\n        /* \"#utility.yul\":9354:9380   */\n      swap1\n      pop\n        /* \"#utility.yul\":9390:9461   */\n      tag_399\n        /* \"#utility.yul\":9458:9459   */\n      0x00\n        /* \"#utility.yul\":9447:9456   */\n      dup4\n        /* \"#utility.yul\":9443:9460   */\n      add\n        /* \"#utility.yul\":9434:9440   */\n      dup5\n        /* \"#utility.yul\":9390:9461   */\n      tag_373\n      jump\t// in\n    tag_399:\n        /* \"#utility.yul\":9246:9468   */\n      swap3\n      swap2\n      pop\n      pop\n      jump\t// out\n        /* \"#utility.yul\":9474:9603   */\n    tag_288:\n        /* \"#utility.yul\":9508:9514   */\n      0x00\n        /* \"#utility.yul\":9535:9555   */\n      tag_401\n      tag_402\n      jump\t// in\n    tag_401:\n        /* \"#utility.yul\":9525:9555   */\n      swap1\n      pop\n        /* \"#utility.yul\":9564:9597   */\n      tag_403\n        /* \"#utility.yul\":9592:9596   */\n      dup3\n        /* \"#utility.yul\":9584:9590   */\n      dup3\n        /* \"#utility.yul\":9564:9597   */\n      tag_404\n      jump\t// in\n    tag_403:\n        /* \"#utility.yul\":9474:9603   */\n      swap2\n      swap1\n      pop\n      jump\t// out\n        /* \"#utility.yul\":9609:9684   */\n    tag_402:\n        /* \"#utility.yul\":9642:9648   */\n      0x00\n        /* \"#utility.yul\":9675:9677   */\n      0x40\n        /* \"#utility.yul\":9669:9678   */\n      mload\n        /* \"#utility.yul\":9659:9678   */\n      swap1\n      pop\n        /* \"#utility.yul\":9609:9684   */\n      swap1\n      jump\t// out\n        /* \"#utility.yul\":9690:9998   */\n    tag_287:\n        /* \"#utility.yul\":9752:9756   */\n      0x00\n        /* \"#utility.yul\":9842:9860   */\n      0xffffffffffffffff\n        /* \"#utility.yul\":9834:9840   */\n      dup3\n        /* \"#utility.yul\":9831:9861   */\n      gt\n        /* \"#utility.yul\":9828:9884   */\n      iszero\n      tag_407\n      jumpi\n        /* \"#utility.yul\":9864:9882   */\n      tag_408\n      tag_226\n      jump\t// in\n    tag_408:\n        /* \"#utility.yul\":9828:9884   */\n    tag_407:\n        /* \"#utility.yul\":9902:9931   */\n      tag_409\n        /* \"#utility.yul\":9924:9930   */\n      dup3\n        /* \"#utility.yul\":9902:9931   */\n      tag_336\n      jump\t// in\n    tag_409:\n        /* \"#utility.yul\":9894:9931   */\n      swap1\n      pop\n        /* \"#utility.yul\":9986:9990   */\n      0x20\n        /* \"#utility.yul\":9980:9984   */\n      dup2\n        /* \"#utility.yul\":9976:9991   */\n      add\n        /* \"#utility.yul\":9968:9991   */\n      swap1\n      pop\n        /* \"#utility.yul\":9690:9998   */\n      swap2\n      swap1\n      pop\n      jump\t// out\n        /* \"#utility.yul\":10004:10103   */\n    tag_330:\n        /* \"#utility.yul\":10056:10062   */\n      0x00\n        /* \"#utility.yul\":10090:10095   */\n      dup2\n        /* \"#utility.yul\":10084:10096   */\n      mload\n        /* \"#utility.yul\":10074:10096   */\n      swap1\n      pop\n        /* \"#utility.yul\":10004:10103   */\n      swap2\n      swap1\n      pop\n      jump\t// out\n        /* \"#utility.yul\":10109:10278   */\n    tag_332:\n        /* \"#utility.yul\":10193:10204   */\n      0x00\n        /* \"#utility.yul\":10227:10233   */\n      dup3\n        /* \"#utility.yul\":10222:10225   */\n      dup3\n        /* \"#utility.yul\":10215:10234   */\n      mstore\n        /* \"#utility.yul\":10267:10271   */\n      0x20\n        /* \"#utility.yul\":10262:10265   */\n      dup3\n        /* \"#utility.yul\":10258:10272   */\n      add\n        /* \"#utility.yul\":10243:10272   */\n      swap1\n      pop\n        /* \"#utility.yul\":10109:10278   */\n      swap3\n      swap2\n      pop\n      pop\n      jump\t// out\n        /* \"#utility.yul\":10284:10432   */\n    tag_341:\n        /* \"#utility.yul\":10386:10397   */\n      0x00\n        /* \"#utility.yul\":10423:10426   */\n      dup2\n        /* \"#utility.yul\":10408:10426   */\n      swap1\n      pop\n        /* \"#utility.yul\":10284:10432   */\n      swap3\n      swap2\n      pop\n      pop\n      jump\t// out\n        /* \"#utility.yul\":10438:10743   */\n    tag_234:\n        /* \"#utility.yul\":10478:10481   */\n      0x00\n        /* \"#utility.yul\":10497:10517   */\n      tag_414\n        /* \"#utility.yul\":10515:10516   */\n      dup3\n        /* \"#utility.yul\":10497:10517   */\n      tag_376\n      jump\t// in\n    tag_414:\n        /* \"#utility.yul\":10492:10517   */\n      swap2\n      pop\n        /* \"#utility.yul\":10531:10551   */\n      tag_415\n        /* \"#utility.yul\":10549:10550   */\n      dup4\n        /* \"#utility.yul\":10531:10551   */\n      tag_376\n      jump\t// in\n    tag_415:\n        /* \"#utility.yul\":10526:10551   */\n      swap3\n      pop\n        /* \"#utility.yul\":10685:10686   */\n      dup3\n        /* \"#utility.yul\":10617:10683   */\n      0xffffffffffffffffffffffffffffffffffffffffffffffffffffffffffffffff\n        /* \"#utility.yul\":10613:10687   */\n      sub\n        /* \"#utility.yul\":10610:10611   */\n      dup3\n        /* \"#utility.yul\":10607:10688   */\n      gt\n        /* \"#utility.yul\":10604:10711   */\n      iszero\n      tag_416\n      jumpi\n        /* \"#utility.yul\":10691:10709   */\n      tag_417\n      tag_418\n      jump\t// in\n    tag_417:\n        /* \"#utility.yul\":10604:10711   */\n    tag_416:\n        /* \"#utility.yul\":10735:10736   */\n      dup3\n        /* \"#utility.yul\":10732:10733   */\n      dup3\n        /* \"#utility.yul\":10728:10737   */\n      add\n        /* \"#utility.yul\":10721:10737   */\n      swap1\n      pop\n        /* \"#utility.yul\":10438:10743   */\n      swap3\n      swap2\n      pop\n      pop\n      jump\t// out\n        /* \"#utility.yul\":10749:10934   */\n    tag_167:\n        /* \"#utility.yul\":10789:10790   */\n      0x00\n        /* \"#utility.yul\":10806:10826   */\n      tag_420\n        /* \"#utility.yul\":10824:10825   */\n      dup3\n        /* \"#utility.yul\":10806:10826   */\n      tag_376\n      jump\t// in\n    tag_420:\n        /* \"#utility.yul\":10801:10826   */\n      swap2\n      pop\n        /* \"#utility.yul\":10840:10860   */\n      tag_421\n        /* \"#utility.yul\":10858:10859   */\n      dup4\n        /* \"#utility.yul\":10840:10860   */\n      tag_376\n      jump\t// in\n    tag_421:\n        /* \"#utility.yul\":10835:10860   */\n      swap3\n      pop\n        /* \"#utility.yul\":10879:10880   */\n      dup3\n        /* \"#utility.yul\":10869:10904   */\n      tag_422\n      jumpi\n        /* \"#utility.yul\":10884:10902   */\n      tag_423\n      tag_424\n      jump\t// in\n    tag_423:\n        /* \"#utility.yul\":10869:10904   */\n    tag_422:\n        /* \"#utility.yul\":10926:10927   */\n      dup3\n        /* \"#utility.yul\":10923:10924   */\n      dup3\n        /* \"#utility.yul\":10919:10928   */\n      div\n        /* \"#utility.yul\":10914:10928   */\n      swap1\n      pop\n        /* \"#utility.yul\":10749:10934   */\n      swap3\n      swap2\n      pop\n      pop\n      jump\t// out\n        /* \"#utility.yul\":10940:11288   */\n    tag_165:\n        /* \"#utility.yul\":10980:10987   */\n      0x00\n        /* \"#utility.yul\":11003:11023   */\n      tag_426\n        /* \"#utility.yul\":11021:11022   */\n      dup3\n        /* \"#utility.yul\":11003:11023   */\n      tag_376\n      jump\t// in\n    tag_426:\n        /* \"#utility.yul\":10998:11023   */\n      swap2\n      pop\n        /* \"#utility.yul\":11037:11057   */\n      tag_427\n        /* \"#utility.yul\":11055:11056   */\n      dup4\n        /* \"#utility.yul\":11037:11057   */\n      tag_376\n      jump\t// in\n    tag_427:\n        /* \"#utility.yul\":11032:11057   */\n      swap3\n      pop\n        /* \"#utility.yul\":11225:11226   */\n      dup2\n        /* \"#utility.yul\":11157:11223   */\n      0xffffffffffffffffffffffffffffffffffffffffffffffffffffffffffffffff\n        /* \"#utility.yul\":11153:11227   */\n      div\n        /* \"#utility.yul\":11150:11151   */\n      dup4\n        /* \"#utility.yul\":11147:11228   */\n      gt\n        /* \"#utility.yul\":11142:11143   */\n      dup3\n        /* \"#utility.yul\":11135:11144   */\n      iszero\n        /* \"#utility.yul\":11128:11145   */\n      iszero\n        /* \"#utility.yul\":11124:11229   */\n      and\n        /* \"#utility.yul\":11121:11252   */\n      iszero\n      tag_428\n      jumpi\n        /* \"#utility.yul\":11232:11250   */\n      tag_429\n      tag_418\n      jump\t// in\n    tag_429:\n        /* \"#utility.yul\":11121:11252   */\n    tag_428:\n        /* \"#utility.yul\":11280:11281   */\n      dup3\n        /* \"#utility.yul\":11277:11278   */\n      dup3\n        /* \"#utility.yul\":11273:11282   */\n      mul\n        /* \"#utility.yul\":11262:11282   */\n      swap1\n      pop\n        /* \"#utility.yul\":10940:11288   */\n      swap3\n      swap2\n      pop\n      pop\n      jump\t// out\n        /* \"#utility.yul\":11294:11485   */\n    tag_139:\n        /* \"#utility.yul\":11334:11338   */\n      0x00\n        /* \"#utility.yul\":11354:11374   */\n      tag_431\n        /* \"#utility.yul\":11372:11373   */\n      dup3\n        /* \"#utility.yul\":11354:11374   */\n      tag_376\n      jump\t// in\n    tag_431:\n        /* \"#utility.yul\":11349:11374   */\n      swap2\n      pop\n        /* \"#utility.yul\":11388:11408   */\n      tag_432\n        /* \"#utility.yul\":11406:11407   */\n      dup4\n        /* \"#utility.yul\":11388:11408   */\n      tag_376\n      jump\t// in\n    tag_432:\n        /* \"#utility.yul\":11383:11408   */\n      swap3\n      pop\n        /* \"#utility.yul\":11427:11428   */\n      dup3\n        /* \"#utility.yul\":11424:11425   */\n      dup3\n        /* \"#utility.yul\":11421:11429   */\n      lt\n        /* \"#utility.yul\":11418:11452   */\n      iszero\n      tag_433\n      jumpi\n        /* \"#utility.yul\":11432:11450   */\n      tag_434\n      tag_418\n      jump\t// in\n    tag_434:\n        /* \"#utility.yul\":11418:11452   */\n    tag_433:\n        /* \"#utility.yul\":11477:11478   */\n      dup3\n        /* \"#utility.yul\":11474:11475   */\n      dup3\n        /* \"#utility.yul\":11470:11479   */\n      sub\n        /* \"#utility.yul\":11462:11479   */\n      swap1\n      pop\n        /* \"#utility.yul\":11294:11485   */\n      swap3\n      swap2\n      pop\n      pop\n      jump\t// out\n        /* \"#utility.yul\":11491:11587   */\n    tag_322:\n        /* \"#utility.yul\":11528:11535   */\n      0x00\n        /* \"#utility.yul\":11557:11581   */\n      tag_436\n        /* \"#utility.yul\":11575:11580   */\n      dup3\n        /* \"#utility.yul\":11557:11581   */\n      tag_437\n      jump\t// in\n    tag_436:\n        /* \"#utility.yul\":11546:11581   */\n      swap1\n      pop\n        /* \"#utility.yul\":11491:11587   */\n      swap2\n      swap1\n      pop\n      jump\t// out\n        /* \"#utility.yul\":11593:11718   */\n    tag_438:\n        /* \"#utility.yul\":11637:11644   */\n      0x00\n        /* \"#utility.yul\":11666:11671   */\n      dup2\n        /* \"#utility.yul\":11655:11671   */\n      swap1\n      pop\n        /* \"#utility.yul\":11672:11712   */\n      tag_440\n        /* \"#utility.yul\":11706:11711   */\n      dup3\n        /* \"#utility.yul\":11672:11712   */\n      tag_441\n      jump\t// in\n    tag_440:\n        /* \"#utility.yul\":11593:11718   */\n      swap2\n      swap1\n      pop\n      jump\t// out\n        /* \"#utility.yul\":11724:11850   */\n    tag_437:\n        /* \"#utility.yul\":11761:11768   */\n      0x00\n        /* \"#utility.yul\":11801:11843   */\n      0xffffffffffffffffffffffffffffffffffffffff\n        /* \"#utility.yul\":11794:11799   */\n      dup3\n        /* \"#utility.yul\":11790:11844   */\n      and\n        /* \"#utility.yul\":11779:11844   */\n      swap1\n      pop\n        /* \"#utility.yul\":11724:11850   */\n      swap2\n      swap1\n      pop\n      jump\t// out\n        /* \"#utility.yul\":11856:11933   */\n    tag_376:\n        /* \"#utility.yul\":11893:11900   */\n      0x00\n        /* \"#utility.yul\":11922:11927   */\n      dup2\n        /* \"#utility.yul\":11911:11927   */\n      swap1\n      pop\n        /* \"#utility.yul\":11856:11933   */\n      swap2\n      swap1\n      pop\n      jump\t// out\n        /* \"#utility.yul\":11939:12064   */\n    tag_326:\n        /* \"#utility.yul\":11994:12003   */\n      0x00\n        /* \"#utility.yul\":12027:12058   */\n      tag_445\n        /* \"#utility.yul\":12052:12057   */\n      dup3\n        /* \"#utility.yul\":12027:12058   */\n      tag_438\n      jump\t// in\n    tag_445:\n        /* \"#utility.yul\":12014:12058   */\n      swap1\n      pop\n        /* \"#utility.yul\":11939:12064   */\n      swap2\n      swap1\n      pop\n      jump\t// out\n        /* \"#utility.yul\":12070:12224   */\n    tag_293:\n        /* \"#utility.yul\":12154:12160   */\n      dup3\n        /* \"#utility.yul\":12149:12152   */\n      dup2\n        /* \"#utility.yul\":12144:12147   */\n      dup4\n        /* \"#utility.yul\":12131:12161   */\n      calldatacopy\n        /* \"#utility.yul\":12216:12217   */\n      0x00\n        /* \"#utility.yul\":12207:12213   */\n      dup4\n        /* \"#utility.yul\":12202:12205   */\n      dup4\n        /* \"#utility.yul\":12198:12214   */\n      add\n        /* \"#utility.yul\":12191:12218   */\n      mstore\n        /* \"#utility.yul\":12070:12224   */\n      pop\n      pop\n      pop\n      jump\t// out\n        /* \"#utility.yul\":12230:12537   */\n    tag_334:\n        /* \"#utility.yul\":12298:12299   */\n      0x00\n        /* \"#utility.yul\":12308:12421   */\n    tag_448:\n        /* \"#utility.yul\":12322:12328   */\n      dup4\n        /* \"#utility.yul\":12319:12320   */\n      dup2\n        /* \"#utility.yul\":12316:12329   */\n      lt\n        /* \"#utility.yul\":12308:12421   */\n      iszero\n      tag_450\n      jumpi\n        /* \"#utility.yul\":12407:12408   */\n      dup1\n        /* \"#utility.yul\":12402:12405   */\n      dup3\n        /* \"#utility.yul\":12398:12409   */\n      add\n        /* \"#utility.yul\":12392:12410   */\n      mload\n        /* \"#utility.yul\":12388:12389   */\n      dup2\n        /* \"#utility.yul\":12383:12386   */\n      dup5\n        /* \"#utility.yul\":12379:12390   */\n      add\n        /* \"#utility.yul\":12372:12411   */\n      mstore\n        /* \"#utility.yul\":12344:12346   */\n      0x20\n        /* \"#utility.yul\":12341:12342   */\n      dup2\n        /* \"#utility.yul\":12337:12347   */\n      add\n        /* \"#utility.yul\":12332:12347   */\n      swap1\n      pop\n        /* \"#utility.yul\":12308:12421   */\n      jump(tag_448)\n    tag_450:\n        /* \"#utility.yul\":12439:12445   */\n      dup4\n        /* \"#utility.yul\":12436:12437   */\n      dup2\n        /* \"#utility.yul\":12433:12446   */\n      gt\n        /* \"#utility.yul\":12430:12531   */\n      iszero\n      tag_451\n      jumpi\n        /* \"#utility.yul\":12519:12520   */\n      0x00\n        /* \"#utility.yul\":12510:12516   */\n      dup5\n        /* \"#utility.yul\":12505:12508   */\n      dup5\n        /* \"#utility.yul\":12501:12517   */\n      add\n        /* \"#utility.yul\":12494:12521   */\n      mstore\n        /* \"#utility.yul\":12430:12531   */\n    tag_451:\n        /* \"#utility.yul\":12279:12537   */\n      pop\n        /* \"#utility.yul\":12230:12537   */\n      pop\n      pop\n      pop\n      jump\t// out\n        /* \"#utility.yul\":12543:12714   */\n    tag_246:\n        /* \"#utility.yul\":12582:12585   */\n      0x00\n        /* \"#utility.yul\":12605:12629   */\n      tag_453\n        /* \"#utility.yul\":12623:12628   */\n      dup3\n        /* \"#utility.yul\":12605:12629   */\n      tag_376\n      jump\t// in\n    tag_453:\n        /* \"#utility.yul\":12596:12629   */\n      swap2\n      pop\n        /* \"#utility.yul\":12651:12655   */\n      0x00\n        /* \"#utility.yul\":12644:12649   */\n      dup3\n        /* \"#utility.yul\":12641:12656   */\n      eq\n        /* \"#utility.yul\":12638:12679   */\n      iszero\n      tag_454\n      jumpi\n        /* \"#utility.yul\":12659:12677   */\n      tag_455\n      tag_418\n      jump\t// in\n    tag_455:\n        /* \"#utility.yul\":12638:12679   */\n    tag_454:\n        /* \"#utility.yul\":12706:12707   */\n      0x01\n        /* \"#utility.yul\":12699:12704   */\n      dup3\n        /* \"#utility.yul\":12695:12708   */\n      sub\n        /* \"#utility.yul\":12688:12708   */\n      swap1\n      pop\n        /* \"#utility.yul\":12543:12714   */\n      swap2\n      swap1\n      pop\n      jump\t// out\n        /* \"#utility.yul\":12720:13001   */\n    tag_404:\n        /* \"#utility.yul\":12803:12830   */\n      tag_457\n        /* \"#utility.yul\":12825:12829   */\n      dup3\n        /* \"#utility.yul\":12803:12830   */\n      tag_336\n      jump\t// in\n    tag_457:\n        /* \"#utility.yul\":12795:12801   */\n      dup2\n        /* \"#utility.yul\":12791:12831   */\n      add\n        /* \"#utility.yul\":12933:12939   */\n      dup2\n        /* \"#utility.yul\":12921:12931   */\n      dup2\n        /* \"#utility.yul\":12918:12940   */\n      lt\n        /* \"#utility.yul\":12897:12915   */\n      0xffffffffffffffff\n        /* \"#utility.yul\":12885:12895   */\n      dup3\n        /* \"#utility.yul\":12882:12916   */\n      gt\n        /* \"#utility.yul\":12879:12941   */\n      or\n        /* \"#utility.yul\":12876:12964   */\n      iszero\n      tag_458\n      jumpi\n        /* \"#utility.yul\":12944:12962   */\n      tag_459\n      tag_226\n      jump\t// in\n    tag_459:\n        /* \"#utility.yul\":12876:12964   */\n    tag_458:\n        /* \"#utility.yul\":12984:12994   */\n      dup1\n        /* \"#utility.yul\":12980:12982   */\n      0x40\n        /* \"#utility.yul\":12973:12995   */\n      mstore\n        /* \"#utility.yul\":12763:13001   */\n      pop\n        /* \"#utility.yul\":12720:13001   */\n      pop\n      pop\n      jump\t// out\n        /* \"#utility.yul\":13007:13240   */\n    tag_222:\n        /* \"#utility.yul\":13046:13049   */\n      0x00\n        /* \"#utility.yul\":13069:13093   */\n      tag_461\n        /* \"#utility.yul\":13087:13092   */\n      dup3\n        /* \"#utility.yul\":13069:13093   */\n      tag_376\n      jump\t// in\n    tag_461:\n        /* \"#utility.yul\":13060:13093   */\n      swap2\n      pop\n        /* \"#utility.yul\":13115:13181   */\n      0xffffffffffffffffffffffffffffffffffffffffffffffffffffffffffffffff\n        /* \"#utility.yul\":13108:13113   */\n      dup3\n        /* \"#utility.yul\":13105:13182   */\n      eq\n        /* \"#utility.yul\":13102:13205   */\n      iszero\n      tag_462\n      jumpi\n        /* \"#utility.yul\":13185:13203   */\n      tag_463\n      tag_418\n      jump\t// in\n    tag_463:\n        /* \"#utility.yul\":13102:13205   */\n    tag_462:\n        /* \"#utility.yul\":13232:13233   */\n      0x01\n        /* \"#utility.yul\":13225:13230   */\n      dup3\n        /* \"#utility.yul\":13221:13234   */\n      add\n        /* \"#utility.yul\":13214:13234   */\n      swap1\n      pop\n        /* \"#utility.yul\":13007:13240   */\n      swap2\n      swap1\n      pop\n      jump\t// out\n        /* \"#utility.yul\":13246:13422   */\n    tag_232:\n        /* \"#utility.yul\":13278:13279   */\n      0x00\n        /* \"#utility.yul\":13295:13315   */\n      tag_465\n        /* \"#utility.yul\":13313:13314   */\n      dup3\n        /* \"#utility.yul\":13295:13315   */\n      tag_376\n      jump\t// in\n    tag_465:\n        /* \"#utility.yul\":13290:13315   */\n      swap2\n      pop\n        /* \"#utility.yul\":13329:13349   */\n      tag_466\n        /* \"#utility.yul\":13347:13348   */\n      dup4\n        /* \"#utility.yul\":13329:13349   */\n      tag_376\n      jump\t// in\n    tag_466:\n        /* \"#utility.yul\":13324:13349   */\n      swap3\n      pop\n        /* \"#utility.yul\":13368:13369   */\n      dup3\n        /* \"#utility.yul\":13358:13393   */\n      tag_467\n      jumpi\n        /* \"#utility.yul\":13373:13391   */\n      tag_468\n      tag_424\n      jump\t// in\n    tag_468:\n        /* \"#utility.yul\":13358:13393   */\n    tag_467:\n        /* \"#utility.yul\":13414:13415   */\n      dup3\n        /* \"#utility.yul\":13411:13412   */\n      dup3\n        /* \"#utility.yul\":13407:13416   */\n      mod\n        /* \"#utility.yul\":13402:13416   */\n      swap1\n      pop\n        /* \"#utility.yul\":13246:13422   */\n      swap3\n      swap2\n      pop\n      pop\n      jump\t// out\n        /* \"#utility.yul\":13428:13608   */\n    tag_418:\n        /* \"#utility.yul\":13476:13553   */\n      0x4e487b7100000000000000000000000000000000000000000000000000000000\n        /* \"#utility.yul\":13473:13474   */\n      0x00\n        /* \"#utility.yul\":13466:13554   */\n      mstore\n        /* \"#utility.yul\":13573:13577   */\n      0x11\n        /* \"#utility.yul\":13570:13571   */\n      0x04\n        /* \"#utility.yul\":13563:13578   */\n      mstore\n        /* \"#utility.yul\":13597:13601   */\n      0x24\n        /* \"#utility.yul\":13594:13595   */\n      0x00\n        /* \"#utility.yul\":13587:13602   */\n      revert\n        /* \"#utility.yul\":13614:13794   */\n    tag_424:\n        /* \"#utility.yul\":13662:13739   */\n      0x4e487b7100000000000000000000000000000000000000000000000000000000\n        /* \"#utility.yul\":13659:13660   */\n      0x00\n        /* \"#utility.yul\":13652:13740   */\n      mstore\n        /* \"#utility.yul\":13759:13763   */\n      0x12\n        /* \"#utility.yul\":13756:13757   */\n      0x04\n        /* \"#utility.yul\":13749:13764   */\n      mstore\n        /* \"#utility.yul\":13783:13787   */\n      0x24\n        /* \"#utility.yul\":13780:13781   */\n      0x00\n        /* \"#utility.yul\":13773:13788   */\n      revert\n        /* \"#utility.yul\":13800:13980   */\n    tag_118:\n        /* \"#utility.yul\":13848:13925   */\n      0x4e487b7100000000000000000000000000000000000000000000000000000000\n        /* \"#utility.yul\":13845:13846   */\n      0x00\n        /* \"#utility.yul\":13838:13926   */\n      mstore\n        /* \"#utility.yul\":13945:13949   */\n      0x21\n        /* \"#utility.yul\":13942:13943   */\n      0x04\n        /* \"#utility.yul\":13935:13950   */\n      mstore\n        /* \"#utility.yul\":13969:13973   */\n      0x24\n        /* \"#utility.yul\":13966:13967   */\n      0x00\n        /* \"#utility.yul\":13959:13974   */\n      revert\n        /* \"#utility.yul\":13986:14166   */\n    tag_237:\n        /* \"#utility.yul\":14034:14111   */\n      0x4e487b7100000000000000000000000000000000000000000000000000000000\n        /* \"#utility.yul\":14031:14032   */\n      0x00\n        /* \"#utility.yul\":14024:14112   */\n      mstore\n        /* \"#utility.yul\":14131:14135   */\n      0x32\n        /* \"#utility.yul\":14128:14129   */\n      0x04\n        /* \"#utility.yul\":14121:14136   */\n      mstore\n        /* \"#utility.yul\":14155:14159   */\n      0x24\n        /* \"#utility.yul\":14152:14153   */\n      0x00\n        /* \"#utility.yul\":14145:14160   */\n      revert\n        /* \"#utility.yul\":14172:14352   */\n    tag_226:\n        /* \"#utility.yul\":14220:14297   */\n      0x4e487b7100000000000000000000000000000000000000000000000000000000\n        /* \"#utility.yul\":14217:14218   */\n      0x00\n        /* \"#utility.yul\":14210:14298   */\n      mstore\n        /* \"#utility.yul\":14317:14321   */\n      0x41\n        /* \"#utility.yul\":14314:14315   */\n      0x04\n        /* \"#utility.yul\":14307:14322   */\n      mstore\n        /* \"#utility.yul\":14341:14345   */\n      0x24\n        /* \"#utility.yul\":14338:14339   */\n      0x00\n        /* \"#utility.yul\":14331:14346   */\n      revert\n        /* \"#utility.yul\":14358:14475   */\n    tag_298:\n        /* \"#utility.yul\":14467:14468   */\n      0x00\n        /* \"#utility.yul\":14464:14465   */\n      dup1\n        /* \"#utility.yul\":14457:14469   */\n      revert\n        /* \"#utility.yul\":14481:14598   */\n    tag_291:\n        /* \"#utility.yul\":14590:14591   */\n      0x00\n        /* \"#utility.yul\":14587:14588   */\n      dup1\n        /* \"#utility.yul\":14580:14592   */\n      revert\n        /* \"#utility.yul\":14604:14721   */\n    tag_310:\n        /* \"#utility.yul\":14713:14714   */\n      0x00\n        /* \"#utility.yul\":14710:14711   */\n      dup1\n        /* \"#utility.yul\":14703:14715   */\n      revert\n        /* \"#utility.yul\":14727:14844   */\n    tag_307:\n        /* \"#utility.yul\":14836:14837   */\n      0x00\n        /* \"#utility.yul\":14833:14834   */\n      dup1\n        /* \"#utility.yul\":14826:14838   */\n      revert\n        /* \"#utility.yul\":14850:14952   */\n    tag_336:\n        /* \"#utility.yul\":14891:14897   */\n      0x00\n        /* \"#utility.yul\":14942:14944   */\n      0x1f\n        /* \"#utility.yul\":14938:14945   */\n      not\n        /* \"#utility.yul\":14933:14935   */\n      0x1f\n        /* \"#utility.yul\":14926:14931   */\n      dup4\n        /* \"#utility.yul\":14922:14936   */\n      add\n        /* \"#utility.yul\":14918:14946   */\n      and\n        /* \"#utility.yul\":14908:14946   */\n      swap1\n      pop\n        /* \"#utility.yul\":14850:14952   */\n      swap2\n      swap1\n      pop\n      jump\t// out\n        /* \"#utility.yul\":14958:15122   */\n    tag_347:\n        /* \"#utility.yul\":15098:15114   */\n      0x4e6f7420417574686f7269736564000000000000000000000000000000000000\n        /* \"#utility.yul\":15094:15095   */\n      0x00\n        /* \"#utility.yul\":15086:15092   */\n      dup3\n        /* \"#utility.yul\":15082:15096   */\n      add\n        /* \"#utility.yul\":15075:15115   */\n      mstore\n        /* \"#utility.yul\":14958:15122   */\n      pop\n      jump\t// out\n        /* \"#utility.yul\":15128:15279   */\n    tag_352:\n        /* \"#utility.yul\":15268:15271   */\n      0x2000000000000000000000000000000000000000000000000000000000000000\n        /* \"#utility.yul\":15264:15265   */\n      0x00\n        /* \"#utility.yul\":15256:15262   */\n      dup3\n        /* \"#utility.yul\":15252:15266   */\n      add\n        /* \"#utility.yul\":15245:15272   */\n      mstore\n        /* \"#utility.yul\":15128:15279   */\n      pop\n      jump\t// out\n        /* \"#utility.yul\":15285:15465   */\n    tag_357:\n        /* \"#utility.yul\":15425:15457   */\n      0x4e6f7420656e6f75676820626c616e636520746f20706c616365206269640000\n        /* \"#utility.yul\":15421:15422   */\n      0x00\n        /* \"#utility.yul\":15413:15419   */\n      dup3\n        /* \"#utility.yul\":15409:15423   */\n      add\n        /* \"#utility.yul\":15402:15458   */\n      mstore\n        /* \"#utility.yul\":15285:15465   */\n      pop\n      jump\t// out\n        /* \"#utility.yul\":15471:15638   */\n    tag_362:\n        /* \"#utility.yul\":15611:15630   */\n      0x4f72646572204e6f742050656e64696e67000000000000000000000000000000\n        /* \"#utility.yul\":15607:15608   */\n      0x00\n        /* \"#utility.yul\":15599:15605   */\n      dup3\n        /* \"#utility.yul\":15595:15609   */\n      add\n        /* \"#utility.yul\":15588:15631   */\n      mstore\n        /* \"#utility.yul\":15471:15638   */\n      pop\n      jump\t// out\n        /* \"#utility.yul\":15644:15825   */\n    tag_367:\n        /* \"#utility.yul\":15784:15817   */\n      0x70726963652076616c7565206d757374206265206d6f7265207468616e203000\n        /* \"#utility.yul\":15780:15781   */\n      0x00\n        /* \"#utility.yul\":15772:15778   */\n      dup3\n        /* \"#utility.yul\":15768:15782   */\n      add\n        /* \"#utility.yul\":15761:15818   */\n      mstore\n        /* \"#utility.yul\":15644:15825   */\n      pop\n      jump\t// out\n        /* \"#utility.yul\":15831:16011   */\n    tag_372:\n        /* \"#utility.yul\":15971:16003   */\n      0x4e6f7420656e6f75676820626c616e636520746f20706c6163652061736b0000\n        /* \"#utility.yul\":15967:15968   */\n      0x00\n        /* \"#utility.yul\":15959:15965   */\n      dup3\n        /* \"#utility.yul\":15955:15969   */\n      add\n        /* \"#utility.yul\":15948:16004   */\n      mstore\n        /* \"#utility.yul\":15831:16011   */\n      pop\n      jump\t// out\n        /* \"#utility.yul\":16017:16129   */\n    tag_441:\n        /* \"#utility.yul\":16097:16098   */\n      0x02\n        /* \"#utility.yul\":16090:16095   */\n      dup2\n        /* \"#utility.yul\":16087:16099   */\n      lt\n        /* \"#utility.yul\":16077:16123   */\n      tag_486\n      jumpi\n        /* \"#utility.yul\":16103:16121   */\n      tag_487\n      tag_118\n      jump\t// in\n    tag_487:\n        /* \"#utility.yul\":16077:16123   */\n    tag_486:\n        /* \"#utility.yul\":16017:16129   */\n      pop\n      jump\t// out\n        /* \"#utility.yul\":16135:16257   */\n    tag_303:\n        /* \"#utility.yul\":16208:16232   */\n      tag_489\n        /* \"#utility.yul\":16226:16231   */\n      dup2\n        /* \"#utility.yul\":16208:16232   */\n      tag_376\n      jump\t// in\n    tag_489:\n        /* \"#utility.yul\":16201:16206   */\n      dup2\n        /* \"#utility.yul\":16198:16233   */\n      eq\n        /* \"#utility.yul\":16188:16251   */\n      tag_490\n      jumpi\n        /* \"#utility.yul\":16247:16248   */\n      0x00\n        /* \"#utility.yul\":16244:16245   */\n      dup1\n        /* \"#utility.yul\":16237:16249   */\n      revert\n        /* \"#utility.yul\":16188:16251   */\n    tag_490:\n        /* \"#utility.yul\":16135:16257   */\n      pop\n      jump\t// out\n\n    auxdata: 0xa2646970667358221220831c93d34552c4995adbee827ff05606f659321db1c608c63bf9fe3db13566aa64736f6c63430008070033\n}\n",
				"bytecode": {
					"linkReferences": {},
					"object": "608060405233600160006101000a81548173ffffffffffffffffffffffffffffffffffffffff021916908373ffffffffffffffffffffffffffffffffffffffff1602179055503480156200005257600080fd5b50604051620023fd380380620023fd8339818101604052810190620000789190620000bd565b8060028190555060006004819055506000600581905550600060078190555060006008819055505062000118565b600081519050620000b781620000fe565b92915050565b600060208284031215620000d657620000d5620000f9565b5b6000620000e684828501620000a6565b91505092915050565b6000819050919050565b600080fd5b6200010981620000ef565b81146200011557600080fd5b50565b6122d580620001286000396000f3fe6080604052600436106101145760003560e01c806378c5b268116100a0578063a394fda711610064578063a394fda7146103a3578063b40a5627146103ce578063bf77ffae146103f9578063d05c28cb14610436578063db3a13961461047357610114565b806378c5b268146102e7578063801d9bbd146103035780639703ef351461032e5780639979ef451461034a5780639db70fad1461036657610114565b8063356e6206116100e7578063356e6206146101da57806344e791e0146102175780634d46712d146102425780636e5b0f001461027f578063733672f4146102aa57610114565b80630f38f2b1146101195780631628e0f514610144578063266001d3146101605780632db6dfa71461019d575b600080fd5b34801561012557600080fd5b5061012e6104b0565b60405161013b9190611c87565b60405180910390f35b61015e60048036038101906101599190611a7e565b61051c565b005b34801561016c57600080fd5b5061018760048036038101906101829190611a06565b610831565b6040516101949190611c87565b60405180910390f35b3480156101a957600080fd5b506101c460048036038101906101bf9190611a7e565b61085d565b6040516101d19190611d49565b60405180910390f35b3480156101e657600080fd5b5061020160048036038101906101fc9190611a7e565b61087d565b60405161020e9190611d49565b60405180910390f35b34801561022357600080fd5b5061022c61089d565b6040516102399190611c87565b60405180910390f35b34801561024e57600080fd5b5061026960048036038101906102649190611a7e565b610909565b6040516102769190611c6c565b60405180910390f35b34801561028b57600080fd5b50610294610936565b6040516102a19190611d49565b60405180910390f35b3480156102b657600080fd5b506102d160048036038101906102cc9190611a7e565b61093c565b6040516102de9190611d49565b60405180910390f35b61030160048036038101906102fc9190611a7e565b61095c565b005b34801561030f57600080fd5b50610318610ad2565b6040516103259190611d49565b60405180910390f35b61034860048036038101906103439190611a7e565b610ad8565b005b610364600480360381019061035f9190611a7e565b610ded565b005b34801561037257600080fd5b5061038d60048036038101906103889190611a7e565b610f63565b60405161039a9190611d49565b60405180910390f35b3480156103af57600080fd5b506103b8610f83565b6040516103c59190611d49565b60405180910390f35b3480156103da57600080fd5b506103e3610f89565b6040516103f09190611d49565b60405180910390f35b34801561040557600080fd5b50610420600480360381019061041b9190611a7e565b610f8f565b60405161042d9190611c6c565b60405180910390f35b34801561044257600080fd5b5061045d60048036038101906104589190611a7e565b610fbc565b60405161046a9190611d49565b60405180910390f35b34801561047f57600080fd5b5061049a60048036038101906104959190611a7e565b610fdc565b6040516104a79190611d49565b60405180910390f35b60606000600454905060006040518060200160405280600081525090505b600082146105145760006003600084815260200190815260200160002060050154905060006104fc84610ffc565b90506105088382610831565b925081935050506104ce565b809250505090565b600660008281526020019081526020016000206040518060e00160405290816000820160009054906101000a900473ffffffffffffffffffffffffffffffffffffffff1673ffffffffffffffffffffffffffffffffffffffff1673ffffffffffffffffffffffffffffffffffffffff16815260200160018201548152602001600282015481526020016003820160009054906101000a900460ff1660018111156105c9576105c86120cc565b5b60018111156105db576105da6120cc565b5b8152602001600482015481526020016005820154815260200160068201548152505060006001811115610611576106106120cc565b5b81606001516001811115610628576106276120cc565b5b14610668576040517f08c379a000000000000000000000000000000000000000000000000000000000815260040161065f90611ce9565b60405180910390fd5b600660008381526020019081526020016000206040518060e00160405290816000820160009054906101000a900473ffffffffffffffffffffffffffffffffffffffff1673ffffffffffffffffffffffffffffffffffffffff1673ffffffffffffffffffffffffffffffffffffffff16815260200160018201548152602001600282015481526020016003820160009054906101000a900460ff166001811115610715576107146120cc565b5b6001811115610727576107266120cc565b5b81526020016004820154815260200160058201548152602001600682015481525050338073ffffffffffffffffffffffffffffffffffffffff16826000015173ffffffffffffffffffffffffffffffffffffffff16146107bc576040517f08c379a00000000000000000000000000000000000000000000000000000000081526004016107b390611ca9565b60405180910390fd5b60003460066000878152602001908152602001600020600101546107e09190611ec2565b90506107eb8561115d565b60003390507f43e78b27488df9c2ee6374158e61dc6b31fca6cf0b52739358b4a7570682fbf13387604051610821929190611c43565b60405180910390a1505050505050565b60608282604051602001610846929190611c14565b604051602081830303815290604052905092915050565b600060036000838152602001908152602001600020600101549050919050565b600060036000838152602001908152602001600020600601549050919050565b60606000600754905060006040518060200160405280600081525090505b600082146109015760006006600084815260200190815260200160002060050154905060006108e984610ffc565b90506108f58382610831565b925081935050506108bb565b809250505090565b60006006600083815260200190815260200160002060030160009054906101000a900460ff169050919050565b60045481565b600060066000838152602001908152602001600020600501549050919050565b60008110156109a0576040517f08c379a000000000000000000000000000000000000000000000000000000000815260040161099790611d09565b60405180910390fd5b803410156109e3576040517f08c379a00000000000000000000000000000000000000000000000000000000081526004016109da90611d29565b60405180910390fd5b60004290506000606460025460646109fb9190611ec2565b34610a069190611e68565b610a109190611e37565b90506000610a1f338385611288565b9050610a2a816113d9565b600160009054906101000a900473ffffffffffffffffffffffffffffffffffffffff1673ffffffffffffffffffffffffffffffffffffffff166108fc839081150290604051600060405180830381858888f19350505050158015610a92573d6000803e3d6000fd5b507f090819816e3985f3da86030dc7384e3afcc4912920b30c9e9d28f5b967f908163385604051610ac4929190611c43565b60405180910390a150505050565b60075481565b600360008281526020019081526020016000206040518060e00160405290816000820160009054906101000a900473ffffffffffffffffffffffffffffffffffffffff1673ffffffffffffffffffffffffffffffffffffffff1673ffffffffffffffffffffffffffffffffffffffff16815260200160018201548152602001600282015481526020016003820160009054906101000a900460ff166001811115610b8557610b846120cc565b5b6001811115610b9757610b966120cc565b5b8152602001600482015481526020016005820154815260200160068201548152505060006001811115610bcd57610bcc6120cc565b5b81606001516001811115610be457610be36120cc565b5b14610c24576040517f08c379a0000000000000000000000000000000000000000000000000000000008152600401610c1b90611ce9565b60405180910390fd5b600360008381526020019081526020016000206040518060e00160405290816000820160009054906101000a900473ffffffffffffffffffffffffffffffffffffffff1673ffffffffffffffffffffffffffffffffffffffff1673ffffffffffffffffffffffffffffffffffffffff16815260200160018201548152602001600282015481526020016003820160009054906101000a900460ff166001811115610cd157610cd06120cc565b5b6001811115610ce357610ce26120cc565b5b81526020016004820154815260200160058201548152602001600682015481525050338073ffffffffffffffffffffffffffffffffffffffff16826000015173ffffffffffffffffffffffffffffffffffffffff1614610d78576040517f08c379a0000000000000000000000000000000000000000000000000000000008152600401610d6f90611ca9565b60405180910390fd5b6000346003600087815260200190815260200160002060010154610d9c9190611ec2565b9050610da78561115d565b60003390507fd24436b2ccb68c2831794915323c111aa63f4708ef97b7ac8e64fa8f8a97c0fb3387604051610ddd929190611c43565b60405180910390a1505050505050565b6000811015610e31576040517f08c379a0000000000000000000000000000000000000000000000000000000008152600401610e2890611d09565b60405180910390fd5b80341015610e74576040517f08c379a0000000000000000000000000000000000000000000000000000000008152600401610e6b90611cc9565b60405180910390fd5b6000429050600060646002546064610e8c9190611ec2565b34610e979190611e68565b610ea19190611e37565b90506000610eb03383856115d2565b9050610ebb81611723565b600160009054906101000a900473ffffffffffffffffffffffffffffffffffffffff1673ffffffffffffffffffffffffffffffffffffffff166108fc839081150290604051600060405180830381858888f19350505050158015610f23573d6000803e3d6000fd5b507ff7d2dbe81680a1f0c2b9aaeb63d4184de5c64951ba06bf1b5900341760775a223385604051610f55929190611c43565b60405180910390a150505050565b600060036000838152602001908152602001600020600501549050919050565b60085481565b60055481565b60006003600083815260200190815260200160002060030160009054906101000a900460ff169050919050565b600060066000838152602001908152602001600020600601549050919050565b600060066000838152602001908152602001600020600101549050919050565b60606000821415611044576040518060400160405280600181526020017f30000000000000000000000000000000000000000000000000000000000000008152509050611158565b600082905060005b6000821461107657808061105f90611ff4565b915050600a8261106f9190611e37565b915061104c565b60008167ffffffffffffffff8111156110925761109161212a565b5b6040519080825280601f01601f1916602001820160405280156110c45781602001600182028036833780820191505090505b5090505b60008514611151576001826110dd9190611ec2565b9150600a856110ec919061203d565b60306110f89190611de1565b60f81b81838151811061110e5761110d6120fb565b5b60200101907effffffffffffffffffffffffffffffffffffffffffffffffffffffffffffff1916908160001a905350600a8561114a9190611e37565b94506110c8565b8093505050505b919050565b6000600754148061116e5750600081145b1561117857611285565b8060075414156111a05760066000828152602001908152602001600020600501546007819055505b60006006600083815260200190815260200160002060050154146112065760066000828152602001908152602001600020600601546006600060066000858152602001908152602001600020600501548152602001908152602001600020600601819055505b600060066000838152602001908152602001600020600601541461126c5760066000828152602001908152602001600020600501546006600060066000858152602001908152602001600020600601548152602001908152602001600020600501819055505b6008600081548092919061127f90611f99565b91905055505b50565b61129061191c565b600860008154809291906112a390611ff4565b919050555060006040518060e001604052808673ffffffffffffffffffffffffffffffffffffffff168152602001858152602001848152602001600060018111156112f1576112f06120cc565b5b8152602001600854815260200160008152602001600081525090508060066000600854815260200190815260200160002060008201518160000160006101000a81548173ffffffffffffffffffffffffffffffffffffffff021916908373ffffffffffffffffffffffffffffffffffffffff160217905550602082015181600101556040820151816002015560608201518160030160006101000a81548160ff021916908360018111156113a8576113a76120cc565b5b02179055506080820151816004015560a0820151816005015560c08201518160060155905050809150509392505050565b60008060075414156113f55781608001516007819055506115ce565b816020015160066000600754815260200190815260200160002060010154106114825760075460066000846080015181526020019081526020016000206005018190555081608001516006600060066000866080015181526020019081526020016000206005015481526020019081526020016000206006018190555081608001516007819055506115cd565b60075490505b60006006600083815260200190815260200160002060050154141580156114de57508160200151600660006006600085815260200190815260200160002060050154815260200190815260200160002060010154105b156115015760066000828152602001908152602001600020600501549050611488565b6006600082815260200190815260200160002060050154600660008460800151815260200190815260200160002060050181905550600060066000838152602001908152602001600020600501541461158e578160800151600660006006600086608001518152602001908152602001600020600501548152602001908152602001600020600601819055505b81608001516006600083815260200190815260200160002060050181905550806006600084608001518152602001908152602001600020600601819055505b5b5050565b6115da61191c565b600560008154809291906115ed90611ff4565b919050555060006040518060e001604052808673ffffffffffffffffffffffffffffffffffffffff1681526020018581526020018481526020016000600181111561163b5761163a6120cc565b5b8152602001600554815260200160008152602001600081525090508060036000600554815260200190815260200160002060008201518160000160006101000a81548173ffffffffffffffffffffffffffffffffffffffff021916908373ffffffffffffffffffffffffffffffffffffffff160217905550602082015181600101556040820151816002015560608201518160030160006101000a81548160ff021916908360018111156116f2576116f16120cc565b5b02179055506080820151816004015560a0820151816005015560c08201518160060155905050809150509392505050565b600080600454141561173f578160800151600481905550611918565b816020015160036000600454815260200190815260200160002060010154116117cc576004546003600084608001518152602001908152602001600020600501819055508160800151600360006003600086608001518152602001908152602001600020600501548152602001908152602001600020600601819055508160800151600481905550611917565b60045490505b600060036000838152602001908152602001600020600501541415801561182857508160200151600360006003600085815260200190815260200160002060050154815260200190815260200160002060010154115b1561184b57600360008281526020019081526020016000206005015490506117d2565b600360008281526020019081526020016000206005015460036000846080015181526020019081526020016000206005018190555060006003600083815260200190815260200160002060050154146118d8578160800151600360006003600086608001518152602001908152602001600020600501548152602001908152602001600020600601819055505b81608001516003600083815260200190815260200160002060050181905550806003600084608001518152602001908152602001600020600601819055505b5b5050565b6040518060e00160405280600073ffffffffffffffffffffffffffffffffffffffff168152602001600081526020016000815260200160006001811115611966576119656120cc565b5b81526020016000815260200160008152602001600081525090565b600061199461198f84611d89565b611d64565b9050828152602081018484840111156119b0576119af61215e565b5b6119bb848285611f57565b509392505050565b600082601f8301126119d8576119d7612159565b5b81356119e8848260208601611981565b91505092915050565b600081359050611a0081612288565b92915050565b60008060408385031215611a1d57611a1c612168565b5b600083013567ffffffffffffffff811115611a3b57611a3a612163565b5b611a47858286016119c3565b925050602083013567ffffffffffffffff811115611a6857611a67612163565b5b611a74858286016119c3565b9150509250929050565b600060208284031215611a9457611a93612168565b5b6000611aa2848285016119f1565b91505092915050565b611ab481611ef6565b82525050565b611ac381611f45565b82525050565b6000611ad482611dba565b611ade8185611dc5565b9350611aee818560208601611f66565b611af78161216d565b840191505092915050565b6000611b0d82611dba565b611b178185611dd6565b9350611b27818560208601611f66565b80840191505092915050565b6000611b40600e83611dc5565b9150611b4b8261217e565b602082019050919050565b6000611b63600183611dd6565b9150611b6e826121a7565b600182019050919050565b6000611b86601e83611dc5565b9150611b91826121d0565b602082019050919050565b6000611ba9601183611dc5565b9150611bb4826121f9565b602082019050919050565b6000611bcc601f83611dc5565b9150611bd782612222565b602082019050919050565b6000611bef601e83611dc5565b9150611bfa8261224b565b602082019050919050565b611c0e81611f3b565b82525050565b6000611c208285611b02565b9150611c2b82611b56565b9150611c378284611b02565b91508190509392505050565b6000604082019050611c586000830185611aab565b611c656020830184611c05565b9392505050565b6000602082019050611c816000830184611aba565b92915050565b60006020820190508181036000830152611ca18184611ac9565b905092915050565b60006020820190508181036000830152611cc281611b33565b9050919050565b60006020820190508181036000830152611ce281611b79565b9050919050565b60006020820190508181036000830152611d0281611b9c565b9050919050565b60006020820190508181036000830152611d2281611bbf565b9050919050565b60006020820190508181036000830152611d4281611be2565b9050919050565b6000602082019050611d5e6000830184611c05565b92915050565b6000611d6e611d7f565b9050611d7a8282611fc3565b919050565b6000604051905090565b600067ffffffffffffffff821115611da457611da361212a565b5b611dad8261216d565b9050602081019050919050565b600081519050919050565b600082825260208201905092915050565b600081905092915050565b6000611dec82611f3b565b9150611df783611f3b565b9250827fffffffffffffffffffffffffffffffffffffffffffffffffffffffffffffffff03821115611e2c57611e2b61206e565b5b828201905092915050565b6000611e4282611f3b565b9150611e4d83611f3b565b925082611e5d57611e5c61209d565b5b828204905092915050565b6000611e7382611f3b565b9150611e7e83611f3b565b9250817fffffffffffffffffffffffffffffffffffffffffffffffffffffffffffffffff0483118215151615611eb757611eb661206e565b5b828202905092915050565b6000611ecd82611f3b565b9150611ed883611f3b565b925082821015611eeb57611eea61206e565b5b828203905092915050565b6000611f0182611f1b565b9050919050565b6000819050611f1682612274565b919050565b600073ffffffffffffffffffffffffffffffffffffffff82169050919050565b6000819050919050565b6000611f5082611f08565b9050919050565b82818337600083830152505050565b60005b83811015611f84578082015181840152602081019050611f69565b83811115611f93576000848401525b50505050565b6000611fa482611f3b565b91506000821415611fb857611fb761206e565b5b600182039050919050565b611fcc8261216d565b810181811067ffffffffffffffff82111715611feb57611fea61212a565b5b80604052505050565b6000611fff82611f3b565b91507fffffffffffffffffffffffffffffffffffffffffffffffffffffffffffffffff8214156120325761203161206e565b5b600182019050919050565b600061204882611f3b565b915061205383611f3b565b9250826120635761206261209d565b5b828206905092915050565b7f4e487b7100000000000000000000000000000000000000000000000000000000600052601160045260246000fd5b7f4e487b7100000000000000000000000000000000000000000000000000000000600052601260045260246000fd5b7f4e487b7100000000000000000000000000000000000000000000000000000000600052602160045260246000fd5b7f4e487b7100000000000000000000000000000000000000000000000000000000600052603260045260246000fd5b7f4e487b7100000000000000000000000000000000000000000000000000000000600052604160045260246000fd5b600080fd5b600080fd5b600080fd5b600080fd5b6000601f19601f8301169050919050565b7f4e6f7420417574686f7269736564000000000000000000000000000000000000600082015250565b7f2000000000000000000000000000000000000000000000000000000000000000600082015250565b7f4e6f7420656e6f75676820626c616e636520746f20706c616365206269640000600082015250565b7f4f72646572204e6f742050656e64696e67000000000000000000000000000000600082015250565b7f70726963652076616c7565206d757374206265206d6f7265207468616e203000600082015250565b7f4e6f7420656e6f75676820626c616e636520746f20706c6163652061736b0000600082015250565b60028110612285576122846120cc565b5b50565b61229181611f3b565b811461229c57600080fd5b5056fea2646970667358221220831c93d34552c4995adbee827ff05606f659321db1c608c63bf9fe3db13566aa64736f6c63430008070033",
					"opcodes": "PUSH1 0x80 PUSH1 0x40 MSTORE CALLER PUSH1 0x1 PUSH1 0x0 PUSH2 0x100 EXP DUP2 SLOAD DUP2 PUSH20 0xFFFFFFFFFFFFFFFFFFFFFFFFFFFFFFFFFFFFFFFF MUL NOT AND SWAP1 DUP4 PUSH20 0xFFFFFFFFFFFFFFFFFFFFFFFFFFFFFFFFFFFFFFFF AND MUL OR SWAP1 SSTORE POP CALLVALUE DUP1 ISZERO PUSH3 0x52 JUMPI PUSH1 0x0 DUP1 REVERT JUMPDEST POP PUSH1 0x40 MLOAD PUSH3 0x23FD CODESIZE SUB DUP1 PUSH3 0x23FD DUP4 CODECOPY DUP2 DUP2 ADD PUSH1 0x40 MSTORE DUP2 ADD SWAP1 PUSH3 0x78 SWAP2 SWAP1 PUSH3 0xBD JUMP JUMPDEST DUP1 PUSH1 0x2 DUP2 SWAP1 SSTORE POP PUSH1 0x0 PUSH1 0x4 DUP2 SWAP1 SSTORE POP PUSH1 0x0 PUSH1 0x5 DUP2 SWAP1 SSTORE POP PUSH1 0x0 PUSH1 0x7 DUP2 SWAP1 SSTORE POP PUSH1 0x0 PUSH1 0x8 DUP2 SWAP1 SSTORE POP POP PUSH3 0x118 JUMP JUMPDEST PUSH1 0x0 DUP2 MLOAD SWAP1 POP PUSH3 0xB7 DUP2 PUSH3 0xFE JUMP JUMPDEST SWAP3 SWAP2 POP POP JUMP JUMPDEST PUSH1 0x0 PUSH1 0x20 DUP3 DUP5 SUB SLT ISZERO PUSH3 0xD6 JUMPI PUSH3 0xD5 PUSH3 0xF9 JUMP JUMPDEST JUMPDEST PUSH1 0x0 PUSH3 0xE6 DUP5 DUP3 DUP6 ADD PUSH3 0xA6 JUMP JUMPDEST SWAP2 POP POP SWAP3 SWAP2 POP POP JUMP JUMPDEST PUSH1 0x0 DUP2 SWAP1 POP SWAP2 SWAP1 POP JUMP JUMPDEST PUSH1 0x0 DUP1 REVERT JUMPDEST PUSH3 0x109 DUP2 PUSH3 0xEF JUMP JUMPDEST DUP2 EQ PUSH3 0x115 JUMPI PUSH1 0x0 DUP1 REVERT JUMPDEST POP JUMP JUMPDEST PUSH2 0x22D5 DUP1 PUSH3 0x128 PUSH1 0x0 CODECOPY PUSH1 0x0 RETURN INVALID PUSH1 0x80 PUSH1 0x40 MSTORE PUSH1 0x4 CALLDATASIZE LT PUSH2 0x114 JUMPI PUSH1 0x0 CALLDATALOAD PUSH1 0xE0 SHR DUP1 PUSH4 0x78C5B268 GT PUSH2 0xA0 JUMPI DUP1 PUSH4 0xA394FDA7 GT PUSH2 0x64 JUMPI DUP1 PUSH4 0xA394FDA7 EQ PUSH2 0x3A3 JUMPI DUP1 PUSH4 0xB40A5627 EQ PUSH2 0x3CE JUMPI DUP1 PUSH4 0xBF77FFAE EQ PUSH2 0x3F9 JUMPI DUP1 PUSH4 0xD05C28CB EQ PUSH2 0x436 JUMPI DUP1 PUSH4 0xDB3A1396 EQ PUSH2 0x473 JUMPI PUSH2 0x114 JUMP JUMPDEST DUP1 PUSH4 0x78C5B268 EQ PUSH2 0x2E7 JUMPI DUP1 PUSH4 0x801D9BBD EQ PUSH2 0x303 JUMPI DUP1 PUSH4 0x9703EF35 EQ PUSH2 0x32E JUMPI DUP1 PUSH4 0x9979EF45 EQ PUSH2 0x34A JUMPI DUP1 PUSH4 0x9DB70FAD EQ PUSH2 0x366 JUMPI PUSH2 0x114 JUMP JUMPDEST DUP1 PUSH4 0x356E6206 GT PUSH2 0xE7 JUMPI DUP1 PUSH4 0x356E6206 EQ PUSH2 0x1DA JUMPI DUP1 PUSH4 0x44E791E0 EQ PUSH2 0x217 JUMPI DUP1 PUSH4 0x4D46712D EQ PUSH2 0x242 JUMPI DUP1 PUSH4 0x6E5B0F00 EQ PUSH2 0x27F JUMPI DUP1 PUSH4 0x733672F4 EQ PUSH2 0x2AA JUMPI PUSH2 0x114 JUMP JUMPDEST DUP1 PUSH4 0xF38F2B1 EQ PUSH2 0x119 JUMPI DUP1 PUSH4 0x1628E0F5 EQ PUSH2 0x144 JUMPI DUP1 PUSH4 0x266001D3 EQ PUSH2 0x160 JUMPI DUP1 PUSH4 0x2DB6DFA7 EQ PUSH2 0x19D JUMPI JUMPDEST PUSH1 0x0 DUP1 REVERT JUMPDEST CALLVALUE DUP1 ISZERO PUSH2 0x125 JUMPI PUSH1 0x0 DUP1 REVERT JUMPDEST POP PUSH2 0x12E PUSH2 0x4B0 JUMP JUMPDEST PUSH1 0x40 MLOAD PUSH2 0x13B SWAP2 SWAP1 PUSH2 0x1C87 JUMP JUMPDEST PUSH1 0x40 MLOAD DUP1 SWAP2 SUB SWAP1 RETURN JUMPDEST PUSH2 0x15E PUSH1 0x4 DUP1 CALLDATASIZE SUB DUP2 ADD SWAP1 PUSH2 0x159 SWAP2 SWAP1 PUSH2 0x1A7E JUMP JUMPDEST PUSH2 0x51C JUMP JUMPDEST STOP JUMPDEST CALLVALUE DUP1 ISZERO PUSH2 0x16C JUMPI PUSH1 0x0 DUP1 REVERT JUMPDEST POP PUSH2 0x187 PUSH1 0x4 DUP1 CALLDATASIZE SUB DUP2 ADD SWAP1 PUSH2 0x182 SWAP2 SWAP1 PUSH2 0x1A06 JUMP JUMPDEST PUSH2 0x831 JUMP JUMPDEST PUSH1 0x40 MLOAD PUSH2 0x194 SWAP2 SWAP1 PUSH2 0x1C87 JUMP JUMPDEST PUSH1 0x40 MLOAD DUP1 SWAP2 SUB SWAP1 RETURN JUMPDEST CALLVALUE DUP1 ISZERO PUSH2 0x1A9 JUMPI PUSH1 0x0 DUP1 REVERT JUMPDEST POP PUSH2 0x1C4 PUSH1 0x4 DUP1 CALLDATASIZE SUB DUP2 ADD SWAP1 PUSH2 0x1BF SWAP2 SWAP1 PUSH2 0x1A7E JUMP JUMPDEST PUSH2 0x85D JUMP JUMPDEST PUSH1 0x40 MLOAD PUSH2 0x1D1 SWAP2 SWAP1 PUSH2 0x1D49 JUMP JUMPDEST PUSH1 0x40 MLOAD DUP1 SWAP2 SUB SWAP1 RETURN JUMPDEST CALLVALUE DUP1 ISZERO PUSH2 0x1E6 JUMPI PUSH1 0x0 DUP1 REVERT JUMPDEST POP PUSH2 0x201 PUSH1 0x4 DUP1 CALLDATASIZE SUB DUP2 ADD SWAP1 PUSH2 0x1FC SWAP2 SWAP1 PUSH2 0x1A7E JUMP JUMPDEST PUSH2 0x87D JUMP JUMPDEST PUSH1 0x40 MLOAD PUSH2 0x20E SWAP2 SWAP1 PUSH2 0x1D49 JUMP JUMPDEST PUSH1 0x40 MLOAD DUP1 SWAP2 SUB SWAP1 RETURN JUMPDEST CALLVALUE DUP1 ISZERO PUSH2 0x223 JUMPI PUSH1 0x0 DUP1 REVERT JUMPDEST POP PUSH2 0x22C PUSH2 0x89D JUMP JUMPDEST PUSH1 0x40 MLOAD PUSH2 0x239 SWAP2 SWAP1 PUSH2 0x1C87 JUMP JUMPDEST PUSH1 0x40 MLOAD DUP1 SWAP2 SUB SWAP1 RETURN JUMPDEST CALLVALUE DUP1 ISZERO PUSH2 0x24E JUMPI PUSH1 0x0 DUP1 REVERT JUMPDEST POP PUSH2 0x269 PUSH1 0x4 DUP1 CALLDATASIZE SUB DUP2 ADD SWAP1 PUSH2 0x264 SWAP2 SWAP1 PUSH2 0x1A7E JUMP JUMPDEST PUSH2 0x909 JUMP JUMPDEST PUSH1 0x40 MLOAD PUSH2 0x276 SWAP2 SWAP1 PUSH2 0x1C6C JUMP JUMPDEST PUSH1 0x40 MLOAD DUP1 SWAP2 SUB SWAP1 RETURN JUMPDEST CALLVALUE DUP1 ISZERO PUSH2 0x28B JUMPI PUSH1 0x0 DUP1 REVERT JUMPDEST POP PUSH2 0x294 PUSH2 0x936 JUMP JUMPDEST PUSH1 0x40 MLOAD PUSH2 0x2A1 SWAP2 SWAP1 PUSH2 0x1D49 JUMP JUMPDEST PUSH1 0x40 MLOAD DUP1 SWAP2 SUB SWAP1 RETURN JUMPDEST CALLVALUE DUP1 ISZERO PUSH2 0x2B6 JUMPI PUSH1 0x0 DUP1 REVERT JUMPDEST POP PUSH2 0x2D1 PUSH1 0x4 DUP1 CALLDATASIZE SUB DUP2 ADD SWAP1 PUSH2 0x2CC SWAP2 SWAP1 PUSH2 0x1A7E JUMP JUMPDEST PUSH2 0x93C JUMP JUMPDEST PUSH1 0x40 MLOAD PUSH2 0x2DE SWAP2 SWAP1 PUSH2 0x1D49 JUMP JUMPDEST PUSH1 0x40 MLOAD DUP1 SWAP2 SUB SWAP1 RETURN JUMPDEST PUSH2 0x301 PUSH1 0x4 DUP1 CALLDATASIZE SUB DUP2 ADD SWAP1 PUSH2 0x2FC SWAP2 SWAP1 PUSH2 0x1A7E JUMP JUMPDEST PUSH2 0x95C JUMP JUMPDEST STOP JUMPDEST CALLVALUE DUP1 ISZERO PUSH2 0x30F JUMPI PUSH1 0x0 DUP1 REVERT JUMPDEST POP PUSH2 0x318 PUSH2 0xAD2 JUMP JUMPDEST PUSH1 0x40 MLOAD PUSH2 0x325 SWAP2 SWAP1 PUSH2 0x1D49 JUMP JUMPDEST PUSH1 0x40 MLOAD DUP1 SWAP2 SUB SWAP1 RETURN JUMPDEST PUSH2 0x348 PUSH1 0x4 DUP1 CALLDATASIZE SUB DUP2 ADD SWAP1 PUSH2 0x343 SWAP2 SWAP1 PUSH2 0x1A7E JUMP JUMPDEST PUSH2 0xAD8 JUMP JUMPDEST STOP JUMPDEST PUSH2 0x364 PUSH1 0x4 DUP1 CALLDATASIZE SUB DUP2 ADD SWAP1 PUSH2 0x35F SWAP2 SWAP1 PUSH2 0x1A7E JUMP JUMPDEST PUSH2 0xDED JUMP JUMPDEST STOP JUMPDEST CALLVALUE DUP1 ISZERO PUSH2 0x372 JUMPI PUSH1 0x0 DUP1 REVERT JUMPDEST POP PUSH2 0x38D PUSH1 0x4 DUP1 CALLDATASIZE SUB DUP2 ADD SWAP1 PUSH2 0x388 SWAP2 SWAP1 PUSH2 0x1A7E JUMP JUMPDEST PUSH2 0xF63 JUMP JUMPDEST PUSH1 0x40 MLOAD PUSH2 0x39A SWAP2 SWAP1 PUSH2 0x1D49 JUMP JUMPDEST PUSH1 0x40 MLOAD DUP1 SWAP2 SUB SWAP1 RETURN JUMPDEST CALLVALUE DUP1 ISZERO PUSH2 0x3AF JUMPI PUSH1 0x0 DUP1 REVERT JUMPDEST POP PUSH2 0x3B8 PUSH2 0xF83 JUMP JUMPDEST PUSH1 0x40 MLOAD PUSH2 0x3C5 SWAP2 SWAP1 PUSH2 0x1D49 JUMP JUMPDEST PUSH1 0x40 MLOAD DUP1 SWAP2 SUB SWAP1 RETURN JUMPDEST CALLVALUE DUP1 ISZERO PUSH2 0x3DA JUMPI PUSH1 0x0 DUP1 REVERT JUMPDEST POP PUSH2 0x3E3 PUSH2 0xF89 JUMP JUMPDEST PUSH1 0x40 MLOAD PUSH2 0x3F0 SWAP2 SWAP1 PUSH2 0x1D49 JUMP JUMPDEST PUSH1 0x40 MLOAD DUP1 SWAP2 SUB SWAP1 RETURN JUMPDEST CALLVALUE DUP1 ISZERO PUSH2 0x405 JUMPI PUSH1 0x0 DUP1 REVERT JUMPDEST POP PUSH2 0x420 PUSH1 0x4 DUP1 CALLDATASIZE SUB DUP2 ADD SWAP1 PUSH2 0x41B SWAP2 SWAP1 PUSH2 0x1A7E JUMP JUMPDEST PUSH2 0xF8F JUMP JUMPDEST PUSH1 0x40 MLOAD PUSH2 0x42D SWAP2 SWAP1 PUSH2 0x1C6C JUMP JUMPDEST PUSH1 0x40 MLOAD DUP1 SWAP2 SUB SWAP1 RETURN JUMPDEST CALLVALUE DUP1 ISZERO PUSH2 0x442 JUMPI PUSH1 0x0 DUP1 REVERT JUMPDEST POP PUSH2 0x45D PUSH1 0x4 DUP1 CALLDATASIZE SUB DUP2 ADD SWAP1 PUSH2 0x458 SWAP2 SWAP1 PUSH2 0x1A7E JUMP JUMPDEST PUSH2 0xFBC JUMP JUMPDEST PUSH1 0x40 MLOAD PUSH2 0x46A SWAP2 SWAP1 PUSH2 0x1D49 JUMP JUMPDEST PUSH1 0x40 MLOAD DUP1 SWAP2 SUB SWAP1 RETURN JUMPDEST CALLVALUE DUP1 ISZERO PUSH2 0x47F JUMPI PUSH1 0x0 DUP1 REVERT JUMPDEST POP PUSH2 0x49A PUSH1 0x4 DUP1 CALLDATASIZE SUB DUP2 ADD SWAP1 PUSH2 0x495 SWAP2 SWAP1 PUSH2 0x1A7E JUMP JUMPDEST PUSH2 0xFDC JUMP JUMPDEST PUSH1 0x40 MLOAD PUSH2 0x4A7 SWAP2 SWAP1 PUSH2 0x1D49 JUMP JUMPDEST PUSH1 0x40 MLOAD DUP1 SWAP2 SUB SWAP1 RETURN JUMPDEST PUSH1 0x60 PUSH1 0x0 PUSH1 0x4 SLOAD SWAP1 POP PUSH1 0x0 PUSH1 0x40 MLOAD DUP1 PUSH1 0x20 ADD PUSH1 0x40 MSTORE DUP1 PUSH1 0x0 DUP2 MSTORE POP SWAP1 POP JUMPDEST PUSH1 0x0 DUP3 EQ PUSH2 0x514 JUMPI PUSH1 0x0 PUSH1 0x3 PUSH1 0x0 DUP5 DUP2 MSTORE PUSH1 0x20 ADD SWAP1 DUP2 MSTORE PUSH1 0x20 ADD PUSH1 0x0 KECCAK256 PUSH1 0x5 ADD SLOAD SWAP1 POP PUSH1 0x0 PUSH2 0x4FC DUP5 PUSH2 0xFFC JUMP JUMPDEST SWAP1 POP PUSH2 0x508 DUP4 DUP3 PUSH2 0x831 JUMP JUMPDEST SWAP3 POP DUP2 SWAP4 POP POP POP PUSH2 0x4CE JUMP JUMPDEST DUP1 SWAP3 POP POP POP SWAP1 JUMP JUMPDEST PUSH1 0x6 PUSH1 0x0 DUP3 DUP2 MSTORE PUSH1 0x20 ADD SWAP1 DUP2 MSTORE PUSH1 0x20 ADD PUSH1 0x0 KECCAK256 PUSH1 0x40 MLOAD DUP1 PUSH1 0xE0 ADD PUSH1 0x40 MSTORE SWAP1 DUP2 PUSH1 0x0 DUP3 ADD PUSH1 0x0 SWAP1 SLOAD SWAP1 PUSH2 0x100 EXP SWAP1 DIV PUSH20 0xFFFFFFFFFFFFFFFFFFFFFFFFFFFFFFFFFFFFFFFF AND PUSH20 0xFFFFFFFFFFFFFFFFFFFFFFFFFFFFFFFFFFFFFFFF AND PUSH20 0xFFFFFFFFFFFFFFFFFFFFFFFFFFFFFFFFFFFFFFFF AND DUP2 MSTORE PUSH1 0x20 ADD PUSH1 0x1 DUP3 ADD SLOAD DUP2 MSTORE PUSH1 0x20 ADD PUSH1 0x2 DUP3 ADD SLOAD DUP2 MSTORE PUSH1 0x20 ADD PUSH1 0x3 DUP3 ADD PUSH1 0x0 SWAP1 SLOAD SWAP1 PUSH2 0x100 EXP SWAP1 DIV PUSH1 0xFF AND PUSH1 0x1 DUP2 GT ISZERO PUSH2 0x5C9 JUMPI PUSH2 0x5C8 PUSH2 0x20CC JUMP JUMPDEST JUMPDEST PUSH1 0x1 DUP2 GT ISZERO PUSH2 0x5DB JUMPI PUSH2 0x5DA PUSH2 0x20CC JUMP JUMPDEST JUMPDEST DUP2 MSTORE PUSH1 0x20 ADD PUSH1 0x4 DUP3 ADD SLOAD DUP2 MSTORE PUSH1 0x20 ADD PUSH1 0x5 DUP3 ADD SLOAD DUP2 MSTORE PUSH1 0x20 ADD PUSH1 0x6 DUP3 ADD SLOAD DUP2 MSTORE POP POP PUSH1 0x0 PUSH1 0x1 DUP2 GT ISZERO PUSH2 0x611 JUMPI PUSH2 0x610 PUSH2 0x20CC JUMP JUMPDEST JUMPDEST DUP2 PUSH1 0x60 ADD MLOAD PUSH1 0x1 DUP2 GT ISZERO PUSH2 0x628 JUMPI PUSH2 0x627 PUSH2 0x20CC JUMP JUMPDEST JUMPDEST EQ PUSH2 0x668 JUMPI PUSH1 0x40 MLOAD PUSH32 0x8C379A000000000000000000000000000000000000000000000000000000000 DUP2 MSTORE PUSH1 0x4 ADD PUSH2 0x65F SWAP1 PUSH2 0x1CE9 JUMP JUMPDEST PUSH1 0x40 MLOAD DUP1 SWAP2 SUB SWAP1 REVERT JUMPDEST PUSH1 0x6 PUSH1 0x0 DUP4 DUP2 MSTORE PUSH1 0x20 ADD SWAP1 DUP2 MSTORE PUSH1 0x20 ADD PUSH1 0x0 KECCAK256 PUSH1 0x40 MLOAD DUP1 PUSH1 0xE0 ADD PUSH1 0x40 MSTORE SWAP1 DUP2 PUSH1 0x0 DUP3 ADD PUSH1 0x0 SWAP1 SLOAD SWAP1 PUSH2 0x100 EXP SWAP1 DIV PUSH20 0xFFFFFFFFFFFFFFFFFFFFFFFFFFFFFFFFFFFFFFFF AND PUSH20 0xFFFFFFFFFFFFFFFFFFFFFFFFFFFFFFFFFFFFFFFF AND PUSH20 0xFFFFFFFFFFFFFFFFFFFFFFFFFFFFFFFFFFFFFFFF AND DUP2 MSTORE PUSH1 0x20 ADD PUSH1 0x1 DUP3 ADD SLOAD DUP2 MSTORE PUSH1 0x20 ADD PUSH1 0x2 DUP3 ADD SLOAD DUP2 MSTORE PUSH1 0x20 ADD PUSH1 0x3 DUP3 ADD PUSH1 0x0 SWAP1 SLOAD SWAP1 PUSH2 0x100 EXP SWAP1 DIV PUSH1 0xFF AND PUSH1 0x1 DUP2 GT ISZERO PUSH2 0x715 JUMPI PUSH2 0x714 PUSH2 0x20CC JUMP JUMPDEST JUMPDEST PUSH1 0x1 DUP2 GT ISZERO PUSH2 0x727 JUMPI PUSH2 0x726 PUSH2 0x20CC JUMP JUMPDEST JUMPDEST DUP2 MSTORE PUSH1 0x20 ADD PUSH1 0x4 DUP3 ADD SLOAD DUP2 MSTORE PUSH1 0x20 ADD PUSH1 0x5 DUP3 ADD SLOAD DUP2 MSTORE PUSH1 0x20 ADD PUSH1 0x6 DUP3 ADD SLOAD DUP2 MSTORE POP POP CALLER DUP1 PUSH20 0xFFFFFFFFFFFFFFFFFFFFFFFFFFFFFFFFFFFFFFFF AND DUP3 PUSH1 0x0 ADD MLOAD PUSH20 0xFFFFFFFFFFFFFFFFFFFFFFFFFFFFFFFFFFFFFFFF AND EQ PUSH2 0x7BC JUMPI PUSH1 0x40 MLOAD PUSH32 0x8C379A000000000000000000000000000000000000000000000000000000000 DUP2 MSTORE PUSH1 0x4 ADD PUSH2 0x7B3 SWAP1 PUSH2 0x1CA9 JUMP JUMPDEST PUSH1 0x40 MLOAD DUP1 SWAP2 SUB SWAP1 REVERT JUMPDEST PUSH1 0x0 CALLVALUE PUSH1 0x6 PUSH1 0x0 DUP8 DUP2 MSTORE PUSH1 0x20 ADD SWAP1 DUP2 MSTORE PUSH1 0x20 ADD PUSH1 0x0 KECCAK256 PUSH1 0x1 ADD SLOAD PUSH2 0x7E0 SWAP2 SWAP1 PUSH2 0x1EC2 JUMP JUMPDEST SWAP1 POP PUSH2 0x7EB DUP6 PUSH2 0x115D JUMP JUMPDEST PUSH1 0x0 CALLER SWAP1 POP PUSH32 0x43E78B27488DF9C2EE6374158E61DC6B31FCA6CF0B52739358B4A7570682FBF1 CALLER DUP8 PUSH1 0x40 MLOAD PUSH2 0x821 SWAP3 SWAP2 SWAP1 PUSH2 0x1C43 JUMP JUMPDEST PUSH1 0x40 MLOAD DUP1 SWAP2 SUB SWAP1 LOG1 POP POP POP POP POP POP JUMP JUMPDEST PUSH1 0x60 DUP3 DUP3 PUSH1 0x40 MLOAD PUSH1 0x20 ADD PUSH2 0x846 SWAP3 SWAP2 SWAP1 PUSH2 0x1C14 JUMP JUMPDEST PUSH1 0x40 MLOAD PUSH1 0x20 DUP2 DUP4 SUB SUB DUP2 MSTORE SWAP1 PUSH1 0x40 MSTORE SWAP1 POP SWAP3 SWAP2 POP POP JUMP JUMPDEST PUSH1 0x0 PUSH1 0x3 PUSH1 0x0 DUP4 DUP2 MSTORE PUSH1 0x20 ADD SWAP1 DUP2 MSTORE PUSH1 0x20 ADD PUSH1 0x0 KECCAK256 PUSH1 0x1 ADD SLOAD SWAP1 POP SWAP2 SWAP1 POP JUMP JUMPDEST PUSH1 0x0 PUSH1 0x3 PUSH1 0x0 DUP4 DUP2 MSTORE PUSH1 0x20 ADD SWAP1 DUP2 MSTORE PUSH1 0x20 ADD PUSH1 0x0 KECCAK256 PUSH1 0x6 ADD SLOAD SWAP1 POP SWAP2 SWAP1 POP JUMP JUMPDEST PUSH1 0x60 PUSH1 0x0 PUSH1 0x7 SLOAD SWAP1 POP PUSH1 0x0 PUSH1 0x40 MLOAD DUP1 PUSH1 0x20 ADD PUSH1 0x40 MSTORE DUP1 PUSH1 0x0 DUP2 MSTORE POP SWAP1 POP JUMPDEST PUSH1 0x0 DUP3 EQ PUSH2 0x901 JUMPI PUSH1 0x0 PUSH1 0x6 PUSH1 0x0 DUP5 DUP2 MSTORE PUSH1 0x20 ADD SWAP1 DUP2 MSTORE PUSH1 0x20 ADD PUSH1 0x0 KECCAK256 PUSH1 0x5 ADD SLOAD SWAP1 POP PUSH1 0x0 PUSH2 0x8E9 DUP5 PUSH2 0xFFC JUMP JUMPDEST SWAP1 POP PUSH2 0x8F5 DUP4 DUP3 PUSH2 0x831 JUMP JUMPDEST SWAP3 POP DUP2 SWAP4 POP POP POP PUSH2 0x8BB JUMP JUMPDEST DUP1 SWAP3 POP POP POP SWAP1 JUMP JUMPDEST PUSH1 0x0 PUSH1 0x6 PUSH1 0x0 DUP4 DUP2 MSTORE PUSH1 0x20 ADD SWAP1 DUP2 MSTORE PUSH1 0x20 ADD PUSH1 0x0 KECCAK256 PUSH1 0x3 ADD PUSH1 0x0 SWAP1 SLOAD SWAP1 PUSH2 0x100 EXP SWAP1 DIV PUSH1 0xFF AND SWAP1 POP SWAP2 SWAP1 POP JUMP JUMPDEST PUSH1 0x4 SLOAD DUP2 JUMP JUMPDEST PUSH1 0x0 PUSH1 0x6 PUSH1 0x0 DUP4 DUP2 MSTORE PUSH1 0x20 ADD SWAP1 DUP2 MSTORE PUSH1 0x20 ADD PUSH1 0x0 KECCAK256 PUSH1 0x5 ADD SLOAD SWAP1 POP SWAP2 SWAP1 POP JUMP JUMPDEST PUSH1 0x0 DUP2 LT ISZERO PUSH2 0x9A0 JUMPI PUSH1 0x40 MLOAD PUSH32 0x8C379A000000000000000000000000000000000000000000000000000000000 DUP2 MSTORE PUSH1 0x4 ADD PUSH2 0x997 SWAP1 PUSH2 0x1D09 JUMP JUMPDEST PUSH1 0x40 MLOAD DUP1 SWAP2 SUB SWAP1 REVERT JUMPDEST DUP1 CALLVALUE LT ISZERO PUSH2 0x9E3 JUMPI PUSH1 0x40 MLOAD PUSH32 0x8C379A000000000000000000000000000000000000000000000000000000000 DUP2 MSTORE PUSH1 0x4 ADD PUSH2 0x9DA SWAP1 PUSH2 0x1D29 JUMP JUMPDEST PUSH1 0x40 MLOAD DUP1 SWAP2 SUB SWAP1 REVERT JUMPDEST PUSH1 0x0 TIMESTAMP SWAP1 POP PUSH1 0x0 PUSH1 0x64 PUSH1 0x2 SLOAD PUSH1 0x64 PUSH2 0x9FB SWAP2 SWAP1 PUSH2 0x1EC2 JUMP JUMPDEST CALLVALUE PUSH2 0xA06 SWAP2 SWAP1 PUSH2 0x1E68 JUMP JUMPDEST PUSH2 0xA10 SWAP2 SWAP1 PUSH2 0x1E37 JUMP JUMPDEST SWAP1 POP PUSH1 0x0 PUSH2 0xA1F CALLER DUP4 DUP6 PUSH2 0x1288 JUMP JUMPDEST SWAP1 POP PUSH2 0xA2A DUP2 PUSH2 0x13D9 JUMP JUMPDEST PUSH1 0x1 PUSH1 0x0 SWAP1 SLOAD SWAP1 PUSH2 0x100 EXP SWAP1 DIV PUSH20 0xFFFFFFFFFFFFFFFFFFFFFFFFFFFFFFFFFFFFFFFF AND PUSH20 0xFFFFFFFFFFFFFFFFFFFFFFFFFFFFFFFFFFFFFFFF AND PUSH2 0x8FC DUP4 SWAP1 DUP2 ISZERO MUL SWAP1 PUSH1 0x40 MLOAD PUSH1 0x0 PUSH1 0x40 MLOAD DUP1 DUP4 SUB DUP2 DUP6 DUP9 DUP9 CALL SWAP4 POP POP POP POP ISZERO DUP1 ISZERO PUSH2 0xA92 JUMPI RETURNDATASIZE PUSH1 0x0 DUP1 RETURNDATACOPY RETURNDATASIZE PUSH1 0x0 REVERT JUMPDEST POP PUSH32 0x90819816E3985F3DA86030DC7384E3AFCC4912920B30C9E9D28F5B967F90816 CALLER DUP6 PUSH1 0x40 MLOAD PUSH2 0xAC4 SWAP3 SWAP2 SWAP1 PUSH2 0x1C43 JUMP JUMPDEST PUSH1 0x40 MLOAD DUP1 SWAP2 SUB SWAP1 LOG1 POP POP POP POP JUMP JUMPDEST PUSH1 0x7 SLOAD DUP2 JUMP JUMPDEST PUSH1 0x3 PUSH1 0x0 DUP3 DUP2 MSTORE PUSH1 0x20 ADD SWAP1 DUP2 MSTORE PUSH1 0x20 ADD PUSH1 0x0 KECCAK256 PUSH1 0x40 MLOAD DUP1 PUSH1 0xE0 ADD PUSH1 0x40 MSTORE SWAP1 DUP2 PUSH1 0x0 DUP3 ADD PUSH1 0x0 SWAP1 SLOAD SWAP1 PUSH2 0x100 EXP SWAP1 DIV PUSH20 0xFFFFFFFFFFFFFFFFFFFFFFFFFFFFFFFFFFFFFFFF AND PUSH20 0xFFFFFFFFFFFFFFFFFFFFFFFFFFFFFFFFFFFFFFFF AND PUSH20 0xFFFFFFFFFFFFFFFFFFFFFFFFFFFFFFFFFFFFFFFF AND DUP2 MSTORE PUSH1 0x20 ADD PUSH1 0x1 DUP3 ADD SLOAD DUP2 MSTORE PUSH1 0x20 ADD PUSH1 0x2 DUP3 ADD SLOAD DUP2 MSTORE PUSH1 0x20 ADD PUSH1 0x3 DUP3 ADD PUSH1 0x0 SWAP1 SLOAD SWAP1 PUSH2 0x100 EXP SWAP1 DIV PUSH1 0xFF AND PUSH1 0x1 DUP2 GT ISZERO PUSH2 0xB85 JUMPI PUSH2 0xB84 PUSH2 0x20CC JUMP JUMPDEST JUMPDEST PUSH1 0x1 DUP2 GT ISZERO PUSH2 0xB97 JUMPI PUSH2 0xB96 PUSH2 0x20CC JUMP JUMPDEST JUMPDEST DUP2 MSTORE PUSH1 0x20 ADD PUSH1 0x4 DUP3 ADD SLOAD DUP2 MSTORE PUSH1 0x20 ADD PUSH1 0x5 DUP3 ADD SLOAD DUP2 MSTORE PUSH1 0x20 ADD PUSH1 0x6 DUP3 ADD SLOAD DUP2 MSTORE POP POP PUSH1 0x0 PUSH1 0x1 DUP2 GT ISZERO PUSH2 0xBCD JUMPI PUSH2 0xBCC PUSH2 0x20CC JUMP JUMPDEST JUMPDEST DUP2 PUSH1 0x60 ADD MLOAD PUSH1 0x1 DUP2 GT ISZERO PUSH2 0xBE4 JUMPI PUSH2 0xBE3 PUSH2 0x20CC JUMP JUMPDEST JUMPDEST EQ PUSH2 0xC24 JUMPI PUSH1 0x40 MLOAD PUSH32 0x8C379A000000000000000000000000000000000000000000000000000000000 DUP2 MSTORE PUSH1 0x4 ADD PUSH2 0xC1B SWAP1 PUSH2 0x1CE9 JUMP JUMPDEST PUSH1 0x40 MLOAD DUP1 SWAP2 SUB SWAP1 REVERT JUMPDEST PUSH1 0x3 PUSH1 0x0 DUP4 DUP2 MSTORE PUSH1 0x20 ADD SWAP1 DUP2 MSTORE PUSH1 0x20 ADD PUSH1 0x0 KECCAK256 PUSH1 0x40 MLOAD DUP1 PUSH1 0xE0 ADD PUSH1 0x40 MSTORE SWAP1 DUP2 PUSH1 0x0 DUP3 ADD PUSH1 0x0 SWAP1 SLOAD SWAP1 PUSH2 0x100 EXP SWAP1 DIV PUSH20 0xFFFFFFFFFFFFFFFFFFFFFFFFFFFFFFFFFFFFFFFF AND PUSH20 0xFFFFFFFFFFFFFFFFFFFFFFFFFFFFFFFFFFFFFFFF AND PUSH20 0xFFFFFFFFFFFFFFFFFFFFFFFFFFFFFFFFFFFFFFFF AND DUP2 MSTORE PUSH1 0x20 ADD PUSH1 0x1 DUP3 ADD SLOAD DUP2 MSTORE PUSH1 0x20 ADD PUSH1 0x2 DUP3 ADD SLOAD DUP2 MSTORE PUSH1 0x20 ADD PUSH1 0x3 DUP3 ADD PUSH1 0x0 SWAP1 SLOAD SWAP1 PUSH2 0x100 EXP SWAP1 DIV PUSH1 0xFF AND PUSH1 0x1 DUP2 GT ISZERO PUSH2 0xCD1 JUMPI PUSH2 0xCD0 PUSH2 0x20CC JUMP JUMPDEST JUMPDEST PUSH1 0x1 DUP2 GT ISZERO PUSH2 0xCE3 JUMPI PUSH2 0xCE2 PUSH2 0x20CC JUMP JUMPDEST JUMPDEST DUP2 MSTORE PUSH1 0x20 ADD PUSH1 0x4 DUP3 ADD SLOAD DUP2 MSTORE PUSH1 0x20 ADD PUSH1 0x5 DUP3 ADD SLOAD DUP2 MSTORE PUSH1 0x20 ADD PUSH1 0x6 DUP3 ADD SLOAD DUP2 MSTORE POP POP CALLER DUP1 PUSH20 0xFFFFFFFFFFFFFFFFFFFFFFFFFFFFFFFFFFFFFFFF AND DUP3 PUSH1 0x0 ADD MLOAD PUSH20 0xFFFFFFFFFFFFFFFFFFFFFFFFFFFFFFFFFFFFFFFF AND EQ PUSH2 0xD78 JUMPI PUSH1 0x40 MLOAD PUSH32 0x8C379A000000000000000000000000000000000000000000000000000000000 DUP2 MSTORE PUSH1 0x4 ADD PUSH2 0xD6F SWAP1 PUSH2 0x1CA9 JUMP JUMPDEST PUSH1 0x40 MLOAD DUP1 SWAP2 SUB SWAP1 REVERT JUMPDEST PUSH1 0x0 CALLVALUE PUSH1 0x3 PUSH1 0x0 DUP8 DUP2 MSTORE PUSH1 0x20 ADD SWAP1 DUP2 MSTORE PUSH1 0x20 ADD PUSH1 0x0 KECCAK256 PUSH1 0x1 ADD SLOAD PUSH2 0xD9C SWAP2 SWAP1 PUSH2 0x1EC2 JUMP JUMPDEST SWAP1 POP PUSH2 0xDA7 DUP6 PUSH2 0x115D JUMP JUMPDEST PUSH1 0x0 CALLER SWAP1 POP PUSH32 0xD24436B2CCB68C2831794915323C111AA63F4708EF97B7AC8E64FA8F8A97C0FB CALLER DUP8 PUSH1 0x40 MLOAD PUSH2 0xDDD SWAP3 SWAP2 SWAP1 PUSH2 0x1C43 JUMP JUMPDEST PUSH1 0x40 MLOAD DUP1 SWAP2 SUB SWAP1 LOG1 POP POP POP POP POP POP JUMP JUMPDEST PUSH1 0x0 DUP2 LT ISZERO PUSH2 0xE31 JUMPI PUSH1 0x40 MLOAD PUSH32 0x8C379A000000000000000000000000000000000000000000000000000000000 DUP2 MSTORE PUSH1 0x4 ADD PUSH2 0xE28 SWAP1 PUSH2 0x1D09 JUMP JUMPDEST PUSH1 0x40 MLOAD DUP1 SWAP2 SUB SWAP1 REVERT JUMPDEST DUP1 CALLVALUE LT ISZERO PUSH2 0xE74 JUMPI PUSH1 0x40 MLOAD PUSH32 0x8C379A000000000000000000000000000000000000000000000000000000000 DUP2 MSTORE PUSH1 0x4 ADD PUSH2 0xE6B SWAP1 PUSH2 0x1CC9 JUMP JUMPDEST PUSH1 0x40 MLOAD DUP1 SWAP2 SUB SWAP1 REVERT JUMPDEST PUSH1 0x0 TIMESTAMP SWAP1 POP PUSH1 0x0 PUSH1 0x64 PUSH1 0x2 SLOAD PUSH1 0x64 PUSH2 0xE8C SWAP2 SWAP1 PUSH2 0x1EC2 JUMP JUMPDEST CALLVALUE PUSH2 0xE97 SWAP2 SWAP1 PUSH2 0x1E68 JUMP JUMPDEST PUSH2 0xEA1 SWAP2 SWAP1 PUSH2 0x1E37 JUMP JUMPDEST SWAP1 POP PUSH1 0x0 PUSH2 0xEB0 CALLER DUP4 DUP6 PUSH2 0x15D2 JUMP JUMPDEST SWAP1 POP PUSH2 0xEBB DUP2 PUSH2 0x1723 JUMP JUMPDEST PUSH1 0x1 PUSH1 0x0 SWAP1 SLOAD SWAP1 PUSH2 0x100 EXP SWAP1 DIV PUSH20 0xFFFFFFFFFFFFFFFFFFFFFFFFFFFFFFFFFFFFFFFF AND PUSH20 0xFFFFFFFFFFFFFFFFFFFFFFFFFFFFFFFFFFFFFFFF AND PUSH2 0x8FC DUP4 SWAP1 DUP2 ISZERO MUL SWAP1 PUSH1 0x40 MLOAD PUSH1 0x0 PUSH1 0x40 MLOAD DUP1 DUP4 SUB DUP2 DUP6 DUP9 DUP9 CALL SWAP4 POP POP POP POP ISZERO DUP1 ISZERO PUSH2 0xF23 JUMPI RETURNDATASIZE PUSH1 0x0 DUP1 RETURNDATACOPY RETURNDATASIZE PUSH1 0x0 REVERT JUMPDEST POP PUSH32 0xF7D2DBE81680A1F0C2B9AAEB63D4184DE5C64951BA06BF1B5900341760775A22 CALLER DUP6 PUSH1 0x40 MLOAD PUSH2 0xF55 SWAP3 SWAP2 SWAP1 PUSH2 0x1C43 JUMP JUMPDEST PUSH1 0x40 MLOAD DUP1 SWAP2 SUB SWAP1 LOG1 POP POP POP POP JUMP JUMPDEST PUSH1 0x0 PUSH1 0x3 PUSH1 0x0 DUP4 DUP2 MSTORE PUSH1 0x20 ADD SWAP1 DUP2 MSTORE PUSH1 0x20 ADD PUSH1 0x0 KECCAK256 PUSH1 0x5 ADD SLOAD SWAP1 POP SWAP2 SWAP1 POP JUMP JUMPDEST PUSH1 0x8 SLOAD DUP2 JUMP JUMPDEST PUSH1 0x5 SLOAD DUP2 JUMP JUMPDEST PUSH1 0x0 PUSH1 0x3 PUSH1 0x0 DUP4 DUP2 MSTORE PUSH1 0x20 ADD SWAP1 DUP2 MSTORE PUSH1 0x20 ADD PUSH1 0x0 KECCAK256 PUSH1 0x3 ADD PUSH1 0x0 SWAP1 SLOAD SWAP1 PUSH2 0x100 EXP SWAP1 DIV PUSH1 0xFF AND SWAP1 POP SWAP2 SWAP1 POP JUMP JUMPDEST PUSH1 0x0 PUSH1 0x6 PUSH1 0x0 DUP4 DUP2 MSTORE PUSH1 0x20 ADD SWAP1 DUP2 MSTORE PUSH1 0x20 ADD PUSH1 0x0 KECCAK256 PUSH1 0x6 ADD SLOAD SWAP1 POP SWAP2 SWAP1 POP JUMP JUMPDEST PUSH1 0x0 PUSH1 0x6 PUSH1 0x0 DUP4 DUP2 MSTORE PUSH1 0x20 ADD SWAP1 DUP2 MSTORE PUSH1 0x20 ADD PUSH1 0x0 KECCAK256 PUSH1 0x1 ADD SLOAD SWAP1 POP SWAP2 SWAP1 POP JUMP JUMPDEST PUSH1 0x60 PUSH1 0x0 DUP3 EQ ISZERO PUSH2 0x1044 JUMPI PUSH1 0x40 MLOAD DUP1 PUSH1 0x40 ADD PUSH1 0x40 MSTORE DUP1 PUSH1 0x1 DUP2 MSTORE PUSH1 0x20 ADD PUSH32 0x3000000000000000000000000000000000000000000000000000000000000000 DUP2 MSTORE POP SWAP1 POP PUSH2 0x1158 JUMP JUMPDEST PUSH1 0x0 DUP3 SWAP1 POP PUSH1 0x0 JUMPDEST PUSH1 0x0 DUP3 EQ PUSH2 0x1076 JUMPI DUP1 DUP1 PUSH2 0x105F SWAP1 PUSH2 0x1FF4 JUMP JUMPDEST SWAP2 POP POP PUSH1 0xA DUP3 PUSH2 0x106F SWAP2 SWAP1 PUSH2 0x1E37 JUMP JUMPDEST SWAP2 POP PUSH2 0x104C JUMP JUMPDEST PUSH1 0x0 DUP2 PUSH8 0xFFFFFFFFFFFFFFFF DUP2 GT ISZERO PUSH2 0x1092 JUMPI PUSH2 0x1091 PUSH2 0x212A JUMP JUMPDEST JUMPDEST PUSH1 0x40 MLOAD SWAP1 DUP1 DUP3 MSTORE DUP1 PUSH1 0x1F ADD PUSH1 0x1F NOT AND PUSH1 0x20 ADD DUP3 ADD PUSH1 0x40 MSTORE DUP1 ISZERO PUSH2 0x10C4 JUMPI DUP2 PUSH1 0x20 ADD PUSH1 0x1 DUP3 MUL DUP1 CALLDATASIZE DUP4 CALLDATACOPY DUP1 DUP3 ADD SWAP2 POP POP SWAP1 POP JUMPDEST POP SWAP1 POP JUMPDEST PUSH1 0x0 DUP6 EQ PUSH2 0x1151 JUMPI PUSH1 0x1 DUP3 PUSH2 0x10DD SWAP2 SWAP1 PUSH2 0x1EC2 JUMP JUMPDEST SWAP2 POP PUSH1 0xA DUP6 PUSH2 0x10EC SWAP2 SWAP1 PUSH2 0x203D JUMP JUMPDEST PUSH1 0x30 PUSH2 0x10F8 SWAP2 SWAP1 PUSH2 0x1DE1 JUMP JUMPDEST PUSH1 0xF8 SHL DUP2 DUP4 DUP2 MLOAD DUP2 LT PUSH2 0x110E JUMPI PUSH2 0x110D PUSH2 0x20FB JUMP JUMPDEST JUMPDEST PUSH1 0x20 ADD ADD SWAP1 PUSH31 0xFFFFFFFFFFFFFFFFFFFFFFFFFFFFFFFFFFFFFFFFFFFFFFFFFFFFFFFFFFFFFF NOT AND SWAP1 DUP2 PUSH1 0x0 BYTE SWAP1 MSTORE8 POP PUSH1 0xA DUP6 PUSH2 0x114A SWAP2 SWAP1 PUSH2 0x1E37 JUMP JUMPDEST SWAP5 POP PUSH2 0x10C8 JUMP JUMPDEST DUP1 SWAP4 POP POP POP POP JUMPDEST SWAP2 SWAP1 POP JUMP JUMPDEST PUSH1 0x0 PUSH1 0x7 SLOAD EQ DUP1 PUSH2 0x116E JUMPI POP PUSH1 0x0 DUP2 EQ JUMPDEST ISZERO PUSH2 0x1178 JUMPI PUSH2 0x1285 JUMP JUMPDEST DUP1 PUSH1 0x7 SLOAD EQ ISZERO PUSH2 0x11A0 JUMPI PUSH1 0x6 PUSH1 0x0 DUP3 DUP2 MSTORE PUSH1 0x20 ADD SWAP1 DUP2 MSTORE PUSH1 0x20 ADD PUSH1 0x0 KECCAK256 PUSH1 0x5 ADD SLOAD PUSH1 0x7 DUP2 SWAP1 SSTORE POP JUMPDEST PUSH1 0x0 PUSH1 0x6 PUSH1 0x0 DUP4 DUP2 MSTORE PUSH1 0x20 ADD SWAP1 DUP2 MSTORE PUSH1 0x20 ADD PUSH1 0x0 KECCAK256 PUSH1 0x5 ADD SLOAD EQ PUSH2 0x1206 JUMPI PUSH1 0x6 PUSH1 0x0 DUP3 DUP2 MSTORE PUSH1 0x20 ADD SWAP1 DUP2 MSTORE PUSH1 0x20 ADD PUSH1 0x0 KECCAK256 PUSH1 0x6 ADD SLOAD PUSH1 0x6 PUSH1 0x0 PUSH1 0x6 PUSH1 0x0 DUP6 DUP2 MSTORE PUSH1 0x20 ADD SWAP1 DUP2 MSTORE PUSH1 0x20 ADD PUSH1 0x0 KECCAK256 PUSH1 0x5 ADD SLOAD DUP2 MSTORE PUSH1 0x20 ADD SWAP1 DUP2 MSTORE PUSH1 0x20 ADD PUSH1 0x0 KECCAK256 PUSH1 0x6 ADD DUP2 SWAP1 SSTORE POP JUMPDEST PUSH1 0x0 PUSH1 0x6 PUSH1 0x0 DUP4 DUP2 MSTORE PUSH1 0x20 ADD SWAP1 DUP2 MSTORE PUSH1 0x20 ADD PUSH1 0x0 KECCAK256 PUSH1 0x6 ADD SLOAD EQ PUSH2 0x126C JUMPI PUSH1 0x6 PUSH1 0x0 DUP3 DUP2 MSTORE PUSH1 0x20 ADD SWAP1 DUP2 MSTORE PUSH1 0x20 ADD PUSH1 0x0 KECCAK256 PUSH1 0x5 ADD SLOAD PUSH1 0x6 PUSH1 0x0 PUSH1 0x6 PUSH1 0x0 DUP6 DUP2 MSTORE PUSH1 0x20 ADD SWAP1 DUP2 MSTORE PUSH1 0x20 ADD PUSH1 0x0 KECCAK256 PUSH1 0x6 ADD SLOAD DUP2 MSTORE PUSH1 0x20 ADD SWAP1 DUP2 MSTORE PUSH1 0x20 ADD PUSH1 0x0 KECCAK256 PUSH1 0x5 ADD DUP2 SWAP1 SSTORE POP JUMPDEST PUSH1 0x8 PUSH1 0x0 DUP2 SLOAD DUP1 SWAP3 SWAP2 SWAP1 PUSH2 0x127F SWAP1 PUSH2 0x1F99 JUMP JUMPDEST SWAP2 SWAP1 POP SSTORE POP JUMPDEST POP JUMP JUMPDEST PUSH2 0x1290 PUSH2 0x191C JUMP JUMPDEST PUSH1 0x8 PUSH1 0x0 DUP2 SLOAD DUP1 SWAP3 SWAP2 SWAP1 PUSH2 0x12A3 SWAP1 PUSH2 0x1FF4 JUMP JUMPDEST SWAP2 SWAP1 POP SSTORE POP PUSH1 0x0 PUSH1 0x40 MLOAD DUP1 PUSH1 0xE0 ADD PUSH1 0x40 MSTORE DUP1 DUP7 PUSH20 0xFFFFFFFFFFFFFFFFFFFFFFFFFFFFFFFFFFFFFFFF AND DUP2 MSTORE PUSH1 0x20 ADD DUP6 DUP2 MSTORE PUSH1 0x20 ADD DUP5 DUP2 MSTORE PUSH1 0x20 ADD PUSH1 0x0 PUSH1 0x1 DUP2 GT ISZERO PUSH2 0x12F1 JUMPI PUSH2 0x12F0 PUSH2 0x20CC JUMP JUMPDEST JUMPDEST DUP2 MSTORE PUSH1 0x20 ADD PUSH1 0x8 SLOAD DUP2 MSTORE PUSH1 0x20 ADD PUSH1 0x0 DUP2 MSTORE PUSH1 0x20 ADD PUSH1 0x0 DUP2 MSTORE POP SWAP1 POP DUP1 PUSH1 0x6 PUSH1 0x0 PUSH1 0x8 SLOAD DUP2 MSTORE PUSH1 0x20 ADD SWAP1 DUP2 MSTORE PUSH1 0x20 ADD PUSH1 0x0 KECCAK256 PUSH1 0x0 DUP3 ADD MLOAD DUP2 PUSH1 0x0 ADD PUSH1 0x0 PUSH2 0x100 EXP DUP2 SLOAD DUP2 PUSH20 0xFFFFFFFFFFFFFFFFFFFFFFFFFFFFFFFFFFFFFFFF MUL NOT AND SWAP1 DUP4 PUSH20 0xFFFFFFFFFFFFFFFFFFFFFFFFFFFFFFFFFFFFFFFF AND MUL OR SWAP1 SSTORE POP PUSH1 0x20 DUP3 ADD MLOAD DUP2 PUSH1 0x1 ADD SSTORE PUSH1 0x40 DUP3 ADD MLOAD DUP2 PUSH1 0x2 ADD SSTORE PUSH1 0x60 DUP3 ADD MLOAD DUP2 PUSH1 0x3 ADD PUSH1 0x0 PUSH2 0x100 EXP DUP2 SLOAD DUP2 PUSH1 0xFF MUL NOT AND SWAP1 DUP4 PUSH1 0x1 DUP2 GT ISZERO PUSH2 0x13A8 JUMPI PUSH2 0x13A7 PUSH2 0x20CC JUMP JUMPDEST JUMPDEST MUL OR SWAP1 SSTORE POP PUSH1 0x80 DUP3 ADD MLOAD DUP2 PUSH1 0x4 ADD SSTORE PUSH1 0xA0 DUP3 ADD MLOAD DUP2 PUSH1 0x5 ADD SSTORE PUSH1 0xC0 DUP3 ADD MLOAD DUP2 PUSH1 0x6 ADD SSTORE SWAP1 POP POP DUP1 SWAP2 POP POP SWAP4 SWAP3 POP POP POP JUMP JUMPDEST PUSH1 0x0 DUP1 PUSH1 0x7 SLOAD EQ ISZERO PUSH2 0x13F5 JUMPI DUP2 PUSH1 0x80 ADD MLOAD PUSH1 0x7 DUP2 SWAP1 SSTORE POP PUSH2 0x15CE JUMP JUMPDEST DUP2 PUSH1 0x20 ADD MLOAD PUSH1 0x6 PUSH1 0x0 PUSH1 0x7 SLOAD DUP2 MSTORE PUSH1 0x20 ADD SWAP1 DUP2 MSTORE PUSH1 0x20 ADD PUSH1 0x0 KECCAK256 PUSH1 0x1 ADD SLOAD LT PUSH2 0x1482 JUMPI PUSH1 0x7 SLOAD PUSH1 0x6 PUSH1 0x0 DUP5 PUSH1 0x80 ADD MLOAD DUP2 MSTORE PUSH1 0x20 ADD SWAP1 DUP2 MSTORE PUSH1 0x20 ADD PUSH1 0x0 KECCAK256 PUSH1 0x5 ADD DUP2 SWAP1 SSTORE POP DUP2 PUSH1 0x80 ADD MLOAD PUSH1 0x6 PUSH1 0x0 PUSH1 0x6 PUSH1 0x0 DUP7 PUSH1 0x80 ADD MLOAD DUP2 MSTORE PUSH1 0x20 ADD SWAP1 DUP2 MSTORE PUSH1 0x20 ADD PUSH1 0x0 KECCAK256 PUSH1 0x5 ADD SLOAD DUP2 MSTORE PUSH1 0x20 ADD SWAP1 DUP2 MSTORE PUSH1 0x20 ADD PUSH1 0x0 KECCAK256 PUSH1 0x6 ADD DUP2 SWAP1 SSTORE POP DUP2 PUSH1 0x80 ADD MLOAD PUSH1 0x7 DUP2 SWAP1 SSTORE POP PUSH2 0x15CD JUMP JUMPDEST PUSH1 0x7 SLOAD SWAP1 POP JUMPDEST PUSH1 0x0 PUSH1 0x6 PUSH1 0x0 DUP4 DUP2 MSTORE PUSH1 0x20 ADD SWAP1 DUP2 MSTORE PUSH1 0x20 ADD PUSH1 0x0 KECCAK256 PUSH1 0x5 ADD SLOAD EQ ISZERO DUP1 ISZERO PUSH2 0x14DE JUMPI POP DUP2 PUSH1 0x20 ADD MLOAD PUSH1 0x6 PUSH1 0x0 PUSH1 0x6 PUSH1 0x0 DUP6 DUP2 MSTORE PUSH1 0x20 ADD SWAP1 DUP2 MSTORE PUSH1 0x20 ADD PUSH1 0x0 KECCAK256 PUSH1 0x5 ADD SLOAD DUP2 MSTORE PUSH1 0x20 ADD SWAP1 DUP2 MSTORE PUSH1 0x20 ADD PUSH1 0x0 KECCAK256 PUSH1 0x1 ADD SLOAD LT JUMPDEST ISZERO PUSH2 0x1501 JUMPI PUSH1 0x6 PUSH1 0x0 DUP3 DUP2 MSTORE PUSH1 0x20 ADD SWAP1 DUP2 MSTORE PUSH1 0x20 ADD PUSH1 0x0 KECCAK256 PUSH1 0x5 ADD SLOAD SWAP1 POP PUSH2 0x1488 JUMP JUMPDEST PUSH1 0x6 PUSH1 0x0 DUP3 DUP2 MSTORE PUSH1 0x20 ADD SWAP1 DUP2 MSTORE PUSH1 0x20 ADD PUSH1 0x0 KECCAK256 PUSH1 0x5 ADD SLOAD PUSH1 0x6 PUSH1 0x0 DUP5 PUSH1 0x80 ADD MLOAD DUP2 MSTORE PUSH1 0x20 ADD SWAP1 DUP2 MSTORE PUSH1 0x20 ADD PUSH1 0x0 KECCAK256 PUSH1 0x5 ADD DUP2 SWAP1 SSTORE POP PUSH1 0x0 PUSH1 0x6 PUSH1 0x0 DUP4 DUP2 MSTORE PUSH1 0x20 ADD SWAP1 DUP2 MSTORE PUSH1 0x20 ADD PUSH1 0x0 KECCAK256 PUSH1 0x5 ADD SLOAD EQ PUSH2 0x158E JUMPI DUP2 PUSH1 0x80 ADD MLOAD PUSH1 0x6 PUSH1 0x0 PUSH1 0x6 PUSH1 0x0 DUP7 PUSH1 0x80 ADD MLOAD DUP2 MSTORE PUSH1 0x20 ADD SWAP1 DUP2 MSTORE PUSH1 0x20 ADD PUSH1 0x0 KECCAK256 PUSH1 0x5 ADD SLOAD DUP2 MSTORE PUSH1 0x20 ADD SWAP1 DUP2 MSTORE PUSH1 0x20 ADD PUSH1 0x0 KECCAK256 PUSH1 0x6 ADD DUP2 SWAP1 SSTORE POP JUMPDEST DUP2 PUSH1 0x80 ADD MLOAD PUSH1 0x6 PUSH1 0x0 DUP4 DUP2 MSTORE PUSH1 0x20 ADD SWAP1 DUP2 MSTORE PUSH1 0x20 ADD PUSH1 0x0 KECCAK256 PUSH1 0x5 ADD DUP2 SWAP1 SSTORE POP DUP1 PUSH1 0x6 PUSH1 0x0 DUP5 PUSH1 0x80 ADD MLOAD DUP2 MSTORE PUSH1 0x20 ADD SWAP1 DUP2 MSTORE PUSH1 0x20 ADD PUSH1 0x0 KECCAK256 PUSH1 0x6 ADD DUP2 SWAP1 SSTORE POP JUMPDEST JUMPDEST POP POP JUMP JUMPDEST PUSH2 0x15DA PUSH2 0x191C JUMP JUMPDEST PUSH1 0x5 PUSH1 0x0 DUP2 SLOAD DUP1 SWAP3 SWAP2 SWAP1 PUSH2 0x15ED SWAP1 PUSH2 0x1FF4 JUMP JUMPDEST SWAP2 SWAP1 POP SSTORE POP PUSH1 0x0 PUSH1 0x40 MLOAD DUP1 PUSH1 0xE0 ADD PUSH1 0x40 MSTORE DUP1 DUP7 PUSH20 0xFFFFFFFFFFFFFFFFFFFFFFFFFFFFFFFFFFFFFFFF AND DUP2 MSTORE PUSH1 0x20 ADD DUP6 DUP2 MSTORE PUSH1 0x20 ADD DUP5 DUP2 MSTORE PUSH1 0x20 ADD PUSH1 0x0 PUSH1 0x1 DUP2 GT ISZERO PUSH2 0x163B JUMPI PUSH2 0x163A PUSH2 0x20CC JUMP JUMPDEST JUMPDEST DUP2 MSTORE PUSH1 0x20 ADD PUSH1 0x5 SLOAD DUP2 MSTORE PUSH1 0x20 ADD PUSH1 0x0 DUP2 MSTORE PUSH1 0x20 ADD PUSH1 0x0 DUP2 MSTORE POP SWAP1 POP DUP1 PUSH1 0x3 PUSH1 0x0 PUSH1 0x5 SLOAD DUP2 MSTORE PUSH1 0x20 ADD SWAP1 DUP2 MSTORE PUSH1 0x20 ADD PUSH1 0x0 KECCAK256 PUSH1 0x0 DUP3 ADD MLOAD DUP2 PUSH1 0x0 ADD PUSH1 0x0 PUSH2 0x100 EXP DUP2 SLOAD DUP2 PUSH20 0xFFFFFFFFFFFFFFFFFFFFFFFFFFFFFFFFFFFFFFFF MUL NOT AND SWAP1 DUP4 PUSH20 0xFFFFFFFFFFFFFFFFFFFFFFFFFFFFFFFFFFFFFFFF AND MUL OR SWAP1 SSTORE POP PUSH1 0x20 DUP3 ADD MLOAD DUP2 PUSH1 0x1 ADD SSTORE PUSH1 0x40 DUP3 ADD MLOAD DUP2 PUSH1 0x2 ADD SSTORE PUSH1 0x60 DUP3 ADD MLOAD DUP2 PUSH1 0x3 ADD PUSH1 0x0 PUSH2 0x100 EXP DUP2 SLOAD DUP2 PUSH1 0xFF MUL NOT AND SWAP1 DUP4 PUSH1 0x1 DUP2 GT ISZERO PUSH2 0x16F2 JUMPI PUSH2 0x16F1 PUSH2 0x20CC JUMP JUMPDEST JUMPDEST MUL OR SWAP1 SSTORE POP PUSH1 0x80 DUP3 ADD MLOAD DUP2 PUSH1 0x4 ADD SSTORE PUSH1 0xA0 DUP3 ADD MLOAD DUP2 PUSH1 0x5 ADD SSTORE PUSH1 0xC0 DUP3 ADD MLOAD DUP2 PUSH1 0x6 ADD SSTORE SWAP1 POP POP DUP1 SWAP2 POP POP SWAP4 SWAP3 POP POP POP JUMP JUMPDEST PUSH1 0x0 DUP1 PUSH1 0x4 SLOAD EQ ISZERO PUSH2 0x173F JUMPI DUP2 PUSH1 0x80 ADD MLOAD PUSH1 0x4 DUP2 SWAP1 SSTORE POP PUSH2 0x1918 JUMP JUMPDEST DUP2 PUSH1 0x20 ADD MLOAD PUSH1 0x3 PUSH1 0x0 PUSH1 0x4 SLOAD DUP2 MSTORE PUSH1 0x20 ADD SWAP1 DUP2 MSTORE PUSH1 0x20 ADD PUSH1 0x0 KECCAK256 PUSH1 0x1 ADD SLOAD GT PUSH2 0x17CC JUMPI PUSH1 0x4 SLOAD PUSH1 0x3 PUSH1 0x0 DUP5 PUSH1 0x80 ADD MLOAD DUP2 MSTORE PUSH1 0x20 ADD SWAP1 DUP2 MSTORE PUSH1 0x20 ADD PUSH1 0x0 KECCAK256 PUSH1 0x5 ADD DUP2 SWAP1 SSTORE POP DUP2 PUSH1 0x80 ADD MLOAD PUSH1 0x3 PUSH1 0x0 PUSH1 0x3 PUSH1 0x0 DUP7 PUSH1 0x80 ADD MLOAD DUP2 MSTORE PUSH1 0x20 ADD SWAP1 DUP2 MSTORE PUSH1 0x20 ADD PUSH1 0x0 KECCAK256 PUSH1 0x5 ADD SLOAD DUP2 MSTORE PUSH1 0x20 ADD SWAP1 DUP2 MSTORE PUSH1 0x20 ADD PUSH1 0x0 KECCAK256 PUSH1 0x6 ADD DUP2 SWAP1 SSTORE POP DUP2 PUSH1 0x80 ADD MLOAD PUSH1 0x4 DUP2 SWAP1 SSTORE POP PUSH2 0x1917 JUMP JUMPDEST PUSH1 0x4 SLOAD SWAP1 POP JUMPDEST PUSH1 0x0 PUSH1 0x3 PUSH1 0x0 DUP4 DUP2 MSTORE PUSH1 0x20 ADD SWAP1 DUP2 MSTORE PUSH1 0x20 ADD PUSH1 0x0 KECCAK256 PUSH1 0x5 ADD SLOAD EQ ISZERO DUP1 ISZERO PUSH2 0x1828 JUMPI POP DUP2 PUSH1 0x20 ADD MLOAD PUSH1 0x3 PUSH1 0x0 PUSH1 0x3 PUSH1 0x0 DUP6 DUP2 MSTORE PUSH1 0x20 ADD SWAP1 DUP2 MSTORE PUSH1 0x20 ADD PUSH1 0x0 KECCAK256 PUSH1 0x5 ADD SLOAD DUP2 MSTORE PUSH1 0x20 ADD SWAP1 DUP2 MSTORE PUSH1 0x20 ADD PUSH1 0x0 KECCAK256 PUSH1 0x1 ADD SLOAD GT JUMPDEST ISZERO PUSH2 0x184B JUMPI PUSH1 0x3 PUSH1 0x0 DUP3 DUP2 MSTORE PUSH1 0x20 ADD SWAP1 DUP2 MSTORE PUSH1 0x20 ADD PUSH1 0x0 KECCAK256 PUSH1 0x5 ADD SLOAD SWAP1 POP PUSH2 0x17D2 JUMP JUMPDEST PUSH1 0x3 PUSH1 0x0 DUP3 DUP2 MSTORE PUSH1 0x20 ADD SWAP1 DUP2 MSTORE PUSH1 0x20 ADD PUSH1 0x0 KECCAK256 PUSH1 0x5 ADD SLOAD PUSH1 0x3 PUSH1 0x0 DUP5 PUSH1 0x80 ADD MLOAD DUP2 MSTORE PUSH1 0x20 ADD SWAP1 DUP2 MSTORE PUSH1 0x20 ADD PUSH1 0x0 KECCAK256 PUSH1 0x5 ADD DUP2 SWAP1 SSTORE POP PUSH1 0x0 PUSH1 0x3 PUSH1 0x0 DUP4 DUP2 MSTORE PUSH1 0x20 ADD SWAP1 DUP2 MSTORE PUSH1 0x20 ADD PUSH1 0x0 KECCAK256 PUSH1 0x5 ADD SLOAD EQ PUSH2 0x18D8 JUMPI DUP2 PUSH1 0x80 ADD MLOAD PUSH1 0x3 PUSH1 0x0 PUSH1 0x3 PUSH1 0x0 DUP7 PUSH1 0x80 ADD MLOAD DUP2 MSTORE PUSH1 0x20 ADD SWAP1 DUP2 MSTORE PUSH1 0x20 ADD PUSH1 0x0 KECCAK256 PUSH1 0x5 ADD SLOAD DUP2 MSTORE PUSH1 0x20 ADD SWAP1 DUP2 MSTORE PUSH1 0x20 ADD PUSH1 0x0 KECCAK256 PUSH1 0x6 ADD DUP2 SWAP1 SSTORE POP JUMPDEST DUP2 PUSH1 0x80 ADD MLOAD PUSH1 0x3 PUSH1 0x0 DUP4 DUP2 MSTORE PUSH1 0x20 ADD SWAP1 DUP2 MSTORE PUSH1 0x20 ADD PUSH1 0x0 KECCAK256 PUSH1 0x5 ADD DUP2 SWAP1 SSTORE POP DUP1 PUSH1 0x3 PUSH1 0x0 DUP5 PUSH1 0x80 ADD MLOAD DUP2 MSTORE PUSH1 0x20 ADD SWAP1 DUP2 MSTORE PUSH1 0x20 ADD PUSH1 0x0 KECCAK256 PUSH1 0x6 ADD DUP2 SWAP1 SSTORE POP JUMPDEST JUMPDEST POP POP JUMP JUMPDEST PUSH1 0x40 MLOAD DUP1 PUSH1 0xE0 ADD PUSH1 0x40 MSTORE DUP1 PUSH1 0x0 PUSH20 0xFFFFFFFFFFFFFFFFFFFFFFFFFFFFFFFFFFFFFFFF AND DUP2 MSTORE PUSH1 0x20 ADD PUSH1 0x0 DUP2 MSTORE PUSH1 0x20 ADD PUSH1 0x0 DUP2 MSTORE PUSH1 0x20 ADD PUSH1 0x0 PUSH1 0x1 DUP2 GT ISZERO PUSH2 0x1966 JUMPI PUSH2 0x1965 PUSH2 0x20CC JUMP JUMPDEST JUMPDEST DUP2 MSTORE PUSH1 0x20 ADD PUSH1 0x0 DUP2 MSTORE PUSH1 0x20 ADD PUSH1 0x0 DUP2 MSTORE PUSH1 0x20 ADD PUSH1 0x0 DUP2 MSTORE POP SWAP1 JUMP JUMPDEST PUSH1 0x0 PUSH2 0x1994 PUSH2 0x198F DUP5 PUSH2 0x1D89 JUMP JUMPDEST PUSH2 0x1D64 JUMP JUMPDEST SWAP1 POP DUP3 DUP2 MSTORE PUSH1 0x20 DUP2 ADD DUP5 DUP5 DUP5 ADD GT ISZERO PUSH2 0x19B0 JUMPI PUSH2 0x19AF PUSH2 0x215E JUMP JUMPDEST JUMPDEST PUSH2 0x19BB DUP5 DUP3 DUP6 PUSH2 0x1F57 JUMP JUMPDEST POP SWAP4 SWAP3 POP POP POP JUMP JUMPDEST PUSH1 0x0 DUP3 PUSH1 0x1F DUP4 ADD SLT PUSH2 0x19D8 JUMPI PUSH2 0x19D7 PUSH2 0x2159 JUMP JUMPDEST JUMPDEST DUP2 CALLDATALOAD PUSH2 0x19E8 DUP5 DUP3 PUSH1 0x20 DUP7 ADD PUSH2 0x1981 JUMP JUMPDEST SWAP2 POP POP SWAP3 SWAP2 POP POP JUMP JUMPDEST PUSH1 0x0 DUP2 CALLDATALOAD SWAP1 POP PUSH2 0x1A00 DUP2 PUSH2 0x2288 JUMP JUMPDEST SWAP3 SWAP2 POP POP JUMP JUMPDEST PUSH1 0x0 DUP1 PUSH1 0x40 DUP4 DUP6 SUB SLT ISZERO PUSH2 0x1A1D JUMPI PUSH2 0x1A1C PUSH2 0x2168 JUMP JUMPDEST JUMPDEST PUSH1 0x0 DUP4 ADD CALLDATALOAD PUSH8 0xFFFFFFFFFFFFFFFF DUP2 GT ISZERO PUSH2 0x1A3B JUMPI PUSH2 0x1A3A PUSH2 0x2163 JUMP JUMPDEST JUMPDEST PUSH2 0x1A47 DUP6 DUP3 DUP7 ADD PUSH2 0x19C3 JUMP JUMPDEST SWAP3 POP POP PUSH1 0x20 DUP4 ADD CALLDATALOAD PUSH8 0xFFFFFFFFFFFFFFFF DUP2 GT ISZERO PUSH2 0x1A68 JUMPI PUSH2 0x1A67 PUSH2 0x2163 JUMP JUMPDEST JUMPDEST PUSH2 0x1A74 DUP6 DUP3 DUP7 ADD PUSH2 0x19C3 JUMP JUMPDEST SWAP2 POP POP SWAP3 POP SWAP3 SWAP1 POP JUMP JUMPDEST PUSH1 0x0 PUSH1 0x20 DUP3 DUP5 SUB SLT ISZERO PUSH2 0x1A94 JUMPI PUSH2 0x1A93 PUSH2 0x2168 JUMP JUMPDEST JUMPDEST PUSH1 0x0 PUSH2 0x1AA2 DUP5 DUP3 DUP6 ADD PUSH2 0x19F1 JUMP JUMPDEST SWAP2 POP POP SWAP3 SWAP2 POP POP JUMP JUMPDEST PUSH2 0x1AB4 DUP2 PUSH2 0x1EF6 JUMP JUMPDEST DUP3 MSTORE POP POP JUMP JUMPDEST PUSH2 0x1AC3 DUP2 PUSH2 0x1F45 JUMP JUMPDEST DUP3 MSTORE POP POP JUMP JUMPDEST PUSH1 0x0 PUSH2 0x1AD4 DUP3 PUSH2 0x1DBA JUMP JUMPDEST PUSH2 0x1ADE DUP2 DUP6 PUSH2 0x1DC5 JUMP JUMPDEST SWAP4 POP PUSH2 0x1AEE DUP2 DUP6 PUSH1 0x20 DUP7 ADD PUSH2 0x1F66 JUMP JUMPDEST PUSH2 0x1AF7 DUP2 PUSH2 0x216D JUMP JUMPDEST DUP5 ADD SWAP2 POP POP SWAP3 SWAP2 POP POP JUMP JUMPDEST PUSH1 0x0 PUSH2 0x1B0D DUP3 PUSH2 0x1DBA JUMP JUMPDEST PUSH2 0x1B17 DUP2 DUP6 PUSH2 0x1DD6 JUMP JUMPDEST SWAP4 POP PUSH2 0x1B27 DUP2 DUP6 PUSH1 0x20 DUP7 ADD PUSH2 0x1F66 JUMP JUMPDEST DUP1 DUP5 ADD SWAP2 POP POP SWAP3 SWAP2 POP POP JUMP JUMPDEST PUSH1 0x0 PUSH2 0x1B40 PUSH1 0xE DUP4 PUSH2 0x1DC5 JUMP JUMPDEST SWAP2 POP PUSH2 0x1B4B DUP3 PUSH2 0x217E JUMP JUMPDEST PUSH1 0x20 DUP3 ADD SWAP1 POP SWAP2 SWAP1 POP JUMP JUMPDEST PUSH1 0x0 PUSH2 0x1B63 PUSH1 0x1 DUP4 PUSH2 0x1DD6 JUMP JUMPDEST SWAP2 POP PUSH2 0x1B6E DUP3 PUSH2 0x21A7 JUMP JUMPDEST PUSH1 0x1 DUP3 ADD SWAP1 POP SWAP2 SWAP1 POP JUMP JUMPDEST PUSH1 0x0 PUSH2 0x1B86 PUSH1 0x1E DUP4 PUSH2 0x1DC5 JUMP JUMPDEST SWAP2 POP PUSH2 0x1B91 DUP3 PUSH2 0x21D0 JUMP JUMPDEST PUSH1 0x20 DUP3 ADD SWAP1 POP SWAP2 SWAP1 POP JUMP JUMPDEST PUSH1 0x0 PUSH2 0x1BA9 PUSH1 0x11 DUP4 PUSH2 0x1DC5 JUMP JUMPDEST SWAP2 POP PUSH2 0x1BB4 DUP3 PUSH2 0x21F9 JUMP JUMPDEST PUSH1 0x20 DUP3 ADD SWAP1 POP SWAP2 SWAP1 POP JUMP JUMPDEST PUSH1 0x0 PUSH2 0x1BCC PUSH1 0x1F DUP4 PUSH2 0x1DC5 JUMP JUMPDEST SWAP2 POP PUSH2 0x1BD7 DUP3 PUSH2 0x2222 JUMP JUMPDEST PUSH1 0x20 DUP3 ADD SWAP1 POP SWAP2 SWAP1 POP JUMP JUMPDEST PUSH1 0x0 PUSH2 0x1BEF PUSH1 0x1E DUP4 PUSH2 0x1DC5 JUMP JUMPDEST SWAP2 POP PUSH2 0x1BFA DUP3 PUSH2 0x224B JUMP JUMPDEST PUSH1 0x20 DUP3 ADD SWAP1 POP SWAP2 SWAP1 POP JUMP JUMPDEST PUSH2 0x1C0E DUP2 PUSH2 0x1F3B JUMP JUMPDEST DUP3 MSTORE POP POP JUMP JUMPDEST PUSH1 0x0 PUSH2 0x1C20 DUP3 DUP6 PUSH2 0x1B02 JUMP JUMPDEST SWAP2 POP PUSH2 0x1C2B DUP3 PUSH2 0x1B56 JUMP JUMPDEST SWAP2 POP PUSH2 0x1C37 DUP3 DUP5 PUSH2 0x1B02 JUMP JUMPDEST SWAP2 POP DUP2 SWAP1 POP SWAP4 SWAP3 POP POP POP JUMP JUMPDEST PUSH1 0x0 PUSH1 0x40 DUP3 ADD SWAP1 POP PUSH2 0x1C58 PUSH1 0x0 DUP4 ADD DUP6 PUSH2 0x1AAB JUMP JUMPDEST PUSH2 0x1C65 PUSH1 0x20 DUP4 ADD DUP5 PUSH2 0x1C05 JUMP JUMPDEST SWAP4 SWAP3 POP POP POP JUMP JUMPDEST PUSH1 0x0 PUSH1 0x20 DUP3 ADD SWAP1 POP PUSH2 0x1C81 PUSH1 0x0 DUP4 ADD DUP5 PUSH2 0x1ABA JUMP JUMPDEST SWAP3 SWAP2 POP POP JUMP JUMPDEST PUSH1 0x0 PUSH1 0x20 DUP3 ADD SWAP1 POP DUP2 DUP2 SUB PUSH1 0x0 DUP4 ADD MSTORE PUSH2 0x1CA1 DUP2 DUP5 PUSH2 0x1AC9 JUMP JUMPDEST SWAP1 POP SWAP3 SWAP2 POP POP JUMP JUMPDEST PUSH1 0x0 PUSH1 0x20 DUP3 ADD SWAP1 POP DUP2 DUP2 SUB PUSH1 0x0 DUP4 ADD MSTORE PUSH2 0x1CC2 DUP2 PUSH2 0x1B33 JUMP JUMPDEST SWAP1 POP SWAP2 SWAP1 POP JUMP JUMPDEST PUSH1 0x0 PUSH1 0x20 DUP3 ADD SWAP1 POP DUP2 DUP2 SUB PUSH1 0x0 DUP4 ADD MSTORE PUSH2 0x1CE2 DUP2 PUSH2 0x1B79 JUMP JUMPDEST SWAP1 POP SWAP2 SWAP1 POP JUMP JUMPDEST PUSH1 0x0 PUSH1 0x20 DUP3 ADD SWAP1 POP DUP2 DUP2 SUB PUSH1 0x0 DUP4 ADD MSTORE PUSH2 0x1D02 DUP2 PUSH2 0x1B9C JUMP JUMPDEST SWAP1 POP SWAP2 SWAP1 POP JUMP JUMPDEST PUSH1 0x0 PUSH1 0x20 DUP3 ADD SWAP1 POP DUP2 DUP2 SUB PUSH1 0x0 DUP4 ADD MSTORE PUSH2 0x1D22 DUP2 PUSH2 0x1BBF JUMP JUMPDEST SWAP1 POP SWAP2 SWAP1 POP JUMP JUMPDEST PUSH1 0x0 PUSH1 0x20 DUP3 ADD SWAP1 POP DUP2 DUP2 SUB PUSH1 0x0 DUP4 ADD MSTORE PUSH2 0x1D42 DUP2 PUSH2 0x1BE2 JUMP JUMPDEST SWAP1 POP SWAP2 SWAP1 POP JUMP JUMPDEST PUSH1 0x0 PUSH1 0x20 DUP3 ADD SWAP1 POP PUSH2 0x1D5E PUSH1 0x0 DUP4 ADD DUP5 PUSH2 0x1C05 JUMP JUMPDEST SWAP3 SWAP2 POP POP JUMP JUMPDEST PUSH1 0x0 PUSH2 0x1D6E PUSH2 0x1D7F JUMP JUMPDEST SWAP1 POP PUSH2 0x1D7A DUP3 DUP3 PUSH2 0x1FC3 JUMP JUMPDEST SWAP2 SWAP1 POP JUMP JUMPDEST PUSH1 0x0 PUSH1 0x40 MLOAD SWAP1 POP SWAP1 JUMP JUMPDEST PUSH1 0x0 PUSH8 0xFFFFFFFFFFFFFFFF DUP3 GT ISZERO PUSH2 0x1DA4 JUMPI PUSH2 0x1DA3 PUSH2 0x212A JUMP JUMPDEST JUMPDEST PUSH2 0x1DAD DUP3 PUSH2 0x216D JUMP JUMPDEST SWAP1 POP PUSH1 0x20 DUP2 ADD SWAP1 POP SWAP2 SWAP1 POP JUMP JUMPDEST PUSH1 0x0 DUP2 MLOAD SWAP1 POP SWAP2 SWAP1 POP JUMP JUMPDEST PUSH1 0x0 DUP3 DUP3 MSTORE PUSH1 0x20 DUP3 ADD SWAP1 POP SWAP3 SWAP2 POP POP JUMP JUMPDEST PUSH1 0x0 DUP2 SWAP1 POP SWAP3 SWAP2 POP POP JUMP JUMPDEST PUSH1 0x0 PUSH2 0x1DEC DUP3 PUSH2 0x1F3B JUMP JUMPDEST SWAP2 POP PUSH2 0x1DF7 DUP4 PUSH2 0x1F3B JUMP JUMPDEST SWAP3 POP DUP3 PUSH32 0xFFFFFFFFFFFFFFFFFFFFFFFFFFFFFFFFFFFFFFFFFFFFFFFFFFFFFFFFFFFFFFFF SUB DUP3 GT ISZERO PUSH2 0x1E2C JUMPI PUSH2 0x1E2B PUSH2 0x206E JUMP JUMPDEST JUMPDEST DUP3 DUP3 ADD SWAP1 POP SWAP3 SWAP2 POP POP JUMP JUMPDEST PUSH1 0x0 PUSH2 0x1E42 DUP3 PUSH2 0x1F3B JUMP JUMPDEST SWAP2 POP PUSH2 0x1E4D DUP4 PUSH2 0x1F3B JUMP JUMPDEST SWAP3 POP DUP3 PUSH2 0x1E5D JUMPI PUSH2 0x1E5C PUSH2 0x209D JUMP JUMPDEST JUMPDEST DUP3 DUP3 DIV SWAP1 POP SWAP3 SWAP2 POP POP JUMP JUMPDEST PUSH1 0x0 PUSH2 0x1E73 DUP3 PUSH2 0x1F3B JUMP JUMPDEST SWAP2 POP PUSH2 0x1E7E DUP4 PUSH2 0x1F3B JUMP JUMPDEST SWAP3 POP DUP2 PUSH32 0xFFFFFFFFFFFFFFFFFFFFFFFFFFFFFFFFFFFFFFFFFFFFFFFFFFFFFFFFFFFFFFFF DIV DUP4 GT DUP3 ISZERO ISZERO AND ISZERO PUSH2 0x1EB7 JUMPI PUSH2 0x1EB6 PUSH2 0x206E JUMP JUMPDEST JUMPDEST DUP3 DUP3 MUL SWAP1 POP SWAP3 SWAP2 POP POP JUMP JUMPDEST PUSH1 0x0 PUSH2 0x1ECD DUP3 PUSH2 0x1F3B JUMP JUMPDEST SWAP2 POP PUSH2 0x1ED8 DUP4 PUSH2 0x1F3B JUMP JUMPDEST SWAP3 POP DUP3 DUP3 LT ISZERO PUSH2 0x1EEB JUMPI PUSH2 0x1EEA PUSH2 0x206E JUMP JUMPDEST JUMPDEST DUP3 DUP3 SUB SWAP1 POP SWAP3 SWAP2 POP POP JUMP JUMPDEST PUSH1 0x0 PUSH2 0x1F01 DUP3 PUSH2 0x1F1B JUMP JUMPDEST SWAP1 POP SWAP2 SWAP1 POP JUMP JUMPDEST PUSH1 0x0 DUP2 SWAP1 POP PUSH2 0x1F16 DUP3 PUSH2 0x2274 JUMP JUMPDEST SWAP2 SWAP1 POP JUMP JUMPDEST PUSH1 0x0 PUSH20 0xFFFFFFFFFFFFFFFFFFFFFFFFFFFFFFFFFFFFFFFF DUP3 AND SWAP1 POP SWAP2 SWAP1 POP JUMP JUMPDEST PUSH1 0x0 DUP2 SWAP1 POP SWAP2 SWAP1 POP JUMP JUMPDEST PUSH1 0x0 PUSH2 0x1F50 DUP3 PUSH2 0x1F08 JUMP JUMPDEST SWAP1 POP SWAP2 SWAP1 POP JUMP JUMPDEST DUP3 DUP2 DUP4 CALLDATACOPY PUSH1 0x0 DUP4 DUP4 ADD MSTORE POP POP POP JUMP JUMPDEST PUSH1 0x0 JUMPDEST DUP4 DUP2 LT ISZERO PUSH2 0x1F84 JUMPI DUP1 DUP3 ADD MLOAD DUP2 DUP5 ADD MSTORE PUSH1 0x20 DUP2 ADD SWAP1 POP PUSH2 0x1F69 JUMP JUMPDEST DUP4 DUP2 GT ISZERO PUSH2 0x1F93 JUMPI PUSH1 0x0 DUP5 DUP5 ADD MSTORE JUMPDEST POP POP POP POP JUMP JUMPDEST PUSH1 0x0 PUSH2 0x1FA4 DUP3 PUSH2 0x1F3B JUMP JUMPDEST SWAP2 POP PUSH1 0x0 DUP3 EQ ISZERO PUSH2 0x1FB8 JUMPI PUSH2 0x1FB7 PUSH2 0x206E JUMP JUMPDEST JUMPDEST PUSH1 0x1 DUP3 SUB SWAP1 POP SWAP2 SWAP1 POP JUMP JUMPDEST PUSH2 0x1FCC DUP3 PUSH2 0x216D JUMP JUMPDEST DUP2 ADD DUP2 DUP2 LT PUSH8 0xFFFFFFFFFFFFFFFF DUP3 GT OR ISZERO PUSH2 0x1FEB JUMPI PUSH2 0x1FEA PUSH2 0x212A JUMP JUMPDEST JUMPDEST DUP1 PUSH1 0x40 MSTORE POP POP POP JUMP JUMPDEST PUSH1 0x0 PUSH2 0x1FFF DUP3 PUSH2 0x1F3B JUMP JUMPDEST SWAP2 POP PUSH32 0xFFFFFFFFFFFFFFFFFFFFFFFFFFFFFFFFFFFFFFFFFFFFFFFFFFFFFFFFFFFFFFFF DUP3 EQ ISZERO PUSH2 0x2032 JUMPI PUSH2 0x2031 PUSH2 0x206E JUMP JUMPDEST JUMPDEST PUSH1 0x1 DUP3 ADD SWAP1 POP SWAP2 SWAP1 POP JUMP JUMPDEST PUSH1 0x0 PUSH2 0x2048 DUP3 PUSH2 0x1F3B JUMP JUMPDEST SWAP2 POP PUSH2 0x2053 DUP4 PUSH2 0x1F3B JUMP JUMPDEST SWAP3 POP DUP3 PUSH2 0x2063 JUMPI PUSH2 0x2062 PUSH2 0x209D JUMP JUMPDEST JUMPDEST DUP3 DUP3 MOD SWAP1 POP SWAP3 SWAP2 POP POP JUMP JUMPDEST PUSH32 0x4E487B7100000000000000000000000000000000000000000000000000000000 PUSH1 0x0 MSTORE PUSH1 0x11 PUSH1 0x4 MSTORE PUSH1 0x24 PUSH1 0x0 REVERT JUMPDEST PUSH32 0x4E487B7100000000000000000000000000000000000000000000000000000000 PUSH1 0x0 MSTORE PUSH1 0x12 PUSH1 0x4 MSTORE PUSH1 0x24 PUSH1 0x0 REVERT JUMPDEST PUSH32 0x4E487B7100000000000000000000000000000000000000000000000000000000 PUSH1 0x0 MSTORE PUSH1 0x21 PUSH1 0x4 MSTORE PUSH1 0x24 PUSH1 0x0 REVERT JUMPDEST PUSH32 0x4E487B7100000000000000000000000000000000000000000000000000000000 PUSH1 0x0 MSTORE PUSH1 0x32 PUSH1 0x4 MSTORE PUSH1 0x24 PUSH1 0x0 REVERT JUMPDEST PUSH32 0x4E487B7100000000000000000000000000000000000000000000000000000000 PUSH1 0x0 MSTORE PUSH1 0x41 PUSH1 0x4 MSTORE PUSH1 0x24 PUSH1 0x0 REVERT JUMPDEST PUSH1 0x0 DUP1 REVERT JUMPDEST PUSH1 0x0 DUP1 REVERT JUMPDEST PUSH1 0x0 DUP1 REVERT JUMPDEST PUSH1 0x0 DUP1 REVERT JUMPDEST PUSH1 0x0 PUSH1 0x1F NOT PUSH1 0x1F DUP4 ADD AND SWAP1 POP SWAP2 SWAP1 POP JUMP JUMPDEST PUSH32 0x4E6F7420417574686F7269736564000000000000000000000000000000000000 PUSH1 0x0 DUP3 ADD MSTORE POP JUMP JUMPDEST PUSH32 0x2000000000000000000000000000000000000000000000000000000000000000 PUSH1 0x0 DUP3 ADD MSTORE POP JUMP JUMPDEST PUSH32 0x4E6F7420656E6F75676820626C616E636520746F20706C616365206269640000 PUSH1 0x0 DUP3 ADD MSTORE POP JUMP JUMPDEST PUSH32 0x4F72646572204E6F742050656E64696E67000000000000000000000000000000 PUSH1 0x0 DUP3 ADD MSTORE POP JUMP JUMPDEST PUSH32 0x70726963652076616C7565206D757374206265206D6F7265207468616E203000 PUSH1 0x0 DUP3 ADD MSTORE POP JUMP JUMPDEST PUSH32 0x4E6F7420656E6F75676820626C616E636520746F20706C6163652061736B0000 PUSH1 0x0 DUP3 ADD MSTORE POP JUMP JUMPDEST PUSH1 0x2 DUP2 LT PUSH2 0x2285 JUMPI PUSH2 0x2284 PUSH2 0x20CC JUMP JUMPDEST JUMPDEST POP JUMP JUMPDEST PUSH2 0x2291 DUP2 PUSH2 0x1F3B JUMP JUMPDEST DUP2 EQ PUSH2 0x229C JUMPI PUSH1 0x0 DUP1 REVERT JUMPDEST POP JUMP INVALID LOG2 PUSH5 0x6970667358 0x22 SLT KECCAK256 DUP4 SHR SWAP4 0xD3 GASLIMIT MSTORE 0xC4 SWAP10 GAS 0xDB 0xEE DUP3 PUSH32 0xF05606F659321DB1C608C63BF9FE3DB13566AA64736F6C634300080700330000 "
				},
				"gasEstimates": {
					"creation": {
						"codeDepositCost": "1783400",
						"executionCost": "infinite",
						"totalCost": "infinite"
					},
					"external": {
						"askCount()": "2451",
						"askHead()": "2474",
						"bidCount()": "2473",
						"bidHead()": "2518",
						"cancelAsk(uint256)": "infinite",
						"cancelBid(uint256)": "infinite",
						"concatenate(string,string)": "infinite",
						"fetchAsk()": "infinite",
						"fetchBid()": "infinite",
						"getAskNext(uint256)": "infinite",
						"getAskPrev(uint256)": "infinite",
						"getAskState(uint256)": "2984",
						"getAskValue(uint256)": "infinite",
						"getBidNext(uint256)": "infinite",
						"getBidPrev(uint256)": "infinite",
						"getBidState(uint256)": "2983",
						"getBidValue(uint256)": "infinite",
						"placeAsk(uint256)": "infinite",
						"placeBid(uint256)": "infinite"
					},
					"internal": {
						"createAsk(address,uint256,uint256)": "infinite",
						"createBid(address,uint256,uint256)": "infinite",
						"deleteAsk(uint256)": "110502",
						"deleteBid(uint256)": "infinite",
						"insertionSortAsk()": "infinite",
						"insertionSortBid()": "infinite",
						"sortAsk(struct OrderBook.order memory)": "infinite",
						"sortBid(struct OrderBook.order memory)": "infinite"
					}
				},
				"methodIdentifiers": {
					"askCount()": "a394fda7",
					"askHead()": "801d9bbd",
					"bidCount()": "b40a5627",
					"bidHead()": "6e5b0f00",
					"cancelAsk(uint256)": "1628e0f5",
					"cancelBid(uint256)": "9703ef35",
					"concatenate(string,string)": "266001d3",
					"fetchAsk()": "44e791e0",
					"fetchBid()": "0f38f2b1",
					"getAskNext(uint256)": "733672f4",
					"getAskPrev(uint256)": "d05c28cb",
					"getAskState(uint256)": "4d46712d",
					"getAskValue(uint256)": "db3a1396",
					"getBidNext(uint256)": "9db70fad",
					"getBidPrev(uint256)": "356e6206",
					"getBidState(uint256)": "bf77ffae",
					"getBidValue(uint256)": "2db6dfa7",
					"placeAsk(uint256)": "78c5b268",
					"placeBid(uint256)": "9979ef45"
				}
			},
			"storageLayout": {
				"storage": [
					{
						"astId": 9,
						"contract": "contracts/OrderBook.sol:OrderBook",
						"label": "bidValues",
						"offset": 0,
						"slot": "0",
						"type": "t_mapping(t_uint256,t_uint256)"
					},
					{
						"astId": 16,
						"contract": "contracts/OrderBook.sol:OrderBook",
						"label": "_owner",
						"offset": 0,
						"slot": "1",
						"type": "t_address_payable"
					},
					{
						"astId": 18,
						"contract": "contracts/OrderBook.sol:OrderBook",
						"label": "commission",
						"offset": 0,
						"slot": "2",
						"type": "t_uint256"
					},
					{
						"astId": 39,
						"contract": "contracts/OrderBook.sol:OrderBook",
						"label": "bidBook",
						"offset": 0,
						"slot": "3",
						"type": "t_mapping(t_uint256,t_struct(order)34_storage)"
					},
					{
						"astId": 41,
						"contract": "contracts/OrderBook.sol:OrderBook",
						"label": "bidHead",
						"offset": 0,
						"slot": "4",
						"type": "t_uint256"
					},
					{
						"astId": 43,
						"contract": "contracts/OrderBook.sol:OrderBook",
						"label": "bidCount",
						"offset": 0,
						"slot": "5",
						"type": "t_uint256"
					},
					{
						"astId": 48,
						"contract": "contracts/OrderBook.sol:OrderBook",
						"label": "askBook",
						"offset": 0,
						"slot": "6",
						"type": "t_mapping(t_uint256,t_struct(order)34_storage)"
					},
					{
						"astId": 50,
						"contract": "contracts/OrderBook.sol:OrderBook",
						"label": "askHead",
						"offset": 0,
						"slot": "7",
						"type": "t_uint256"
					},
					{
						"astId": 52,
						"contract": "contracts/OrderBook.sol:OrderBook",
						"label": "askCount",
						"offset": 0,
						"slot": "8",
						"type": "t_uint256"
					}
				],
				"types": {
					"t_address_payable": {
						"encoding": "inplace",
						"label": "address payable",
						"numberOfBytes": "20"
					},
					"t_enum(State)5": {
						"encoding": "inplace",
						"label": "enum OrderBook.State",
						"numberOfBytes": "1"
					},
					"t_mapping(t_uint256,t_struct(order)34_storage)": {
						"encoding": "mapping",
						"key": "t_uint256",
						"label": "mapping(uint256 => struct OrderBook.order)",
						"numberOfBytes": "32",
						"value": "t_struct(order)34_storage"
					},
					"t_mapping(t_uint256,t_uint256)": {
						"encoding": "mapping",
						"key": "t_uint256",
						"label": "mapping(uint256 => uint256)",
						"numberOfBytes": "32",
						"value": "t_uint256"
					},
					"t_struct(order)34_storage": {
						"encoding": "inplace",
						"label": "struct OrderBook.order",
						"members": [
							{
								"astId": 20,
								"contract": "contracts/OrderBook.sol:OrderBook",
								"label": "customer",
								"offset": 0,
								"slot": "0",
								"type": "t_address_payable"
							},
							{
								"astId": 22,
								"contract": "contracts/OrderBook.sol:OrderBook",
								"label": "value",
								"offset": 0,
								"slot": "1",
								"type": "t_uint256"
							},
							{
								"astId": 24,
								"contract": "contracts/OrderBook.sol:OrderBook",
								"label": "timestamp",
								"offset": 0,
								"slot": "2",
								"type": "t_uint256"
							},
							{
								"astId": 27,
								"contract": "contracts/OrderBook.sol:OrderBook",
								"label": "state",
								"offset": 0,
								"slot": "3",
								"type": "t_enum(State)5"
							},
							{
								"astId": 29,
								"contract": "contracts/OrderBook.sol:OrderBook",
								"label": "id",
								"offset": 0,
								"slot": "4",
								"type": "t_uint256"
							},
							{
								"astId": 31,
								"contract": "contracts/OrderBook.sol:OrderBook",
								"label": "next",
								"offset": 0,
								"slot": "5",
								"type": "t_uint256"
							},
							{
								"astId": 33,
								"contract": "contracts/OrderBook.sol:OrderBook",
								"label": "prev",
								"offset": 0,
								"slot": "6",
								"type": "t_uint256"
							}
						],
						"numberOfBytes": "224"
					},
					"t_uint256": {
						"encoding": "inplace",
						"label": "uint256",
						"numberOfBytes": "32"
					}
				}
			},
			"userdoc": {
				"kind": "user",
				"methods": {},
				"version": 1
			}
		}
	}
}