{
	"contracts/OrderBook.sol": {
		"OrderBook": {
			"abi": [
				{
					"inputs": [
						{
							"internalType": "uint256",
							"name": "_commission",
							"type": "uint256"
						}
					],
					"stateMutability": "nonpayable",
					"type": "constructor"
				},
				{
					"anonymous": false,
					"inputs": [
						{
							"indexed": false,
							"internalType": "uint256",
							"name": "",
							"type": "uint256"
						},
						{
							"indexed": false,
							"internalType": "uint256",
							"name": "",
							"type": "uint256"
						}
					],
					"name": "askLink",
					"type": "event"
				},
				{
					"anonymous": false,
					"inputs": [
						{
							"indexed": false,
							"internalType": "uint256",
							"name": "",
							"type": "uint256"
						},
						{
							"indexed": false,
							"internalType": "uint256",
							"name": "",
							"type": "uint256"
						}
					],
					"name": "bidLink",
					"type": "event"
				},
				{
					"anonymous": false,
					"inputs": [
						{
							"indexed": false,
							"internalType": "uint256",
							"name": "",
							"type": "uint256"
						}
					],
					"name": "newHead",
					"type": "event"
				},
				{
					"anonymous": false,
					"inputs": [
						{
							"indexed": false,
							"internalType": "uint256",
							"name": "",
							"type": "uint256"
						}
					],
					"name": "newTail",
					"type": "event"
				},
				{
					"anonymous": false,
					"inputs": [
						{
							"indexed": false,
							"internalType": "address",
							"name": "",
							"type": "address"
						},
						{
							"indexed": false,
							"internalType": "uint256",
							"name": "",
							"type": "uint256"
						},
						{
							"indexed": false,
							"internalType": "uint256",
							"name": "",
							"type": "uint256"
						},
						{
							"indexed": false,
							"internalType": "enum OrderBook.State",
							"name": "",
							"type": "uint8"
						},
						{
							"indexed": false,
							"internalType": "uint256",
							"name": "",
							"type": "uint256"
						},
						{
							"indexed": false,
							"internalType": "uint256",
							"name": "",
							"type": "uint256"
						},
						{
							"indexed": false,
							"internalType": "uint256",
							"name": "",
							"type": "uint256"
						}
					],
					"name": "orderCreated",
					"type": "event"
				},
				{
					"inputs": [],
					"name": "askCount",
					"outputs": [
						{
							"internalType": "uint256",
							"name": "",
							"type": "uint256"
						}
					],
					"stateMutability": "view",
					"type": "function"
				},
				{
					"inputs": [],
					"name": "askHead",
					"outputs": [
						{
							"internalType": "uint256",
							"name": "",
							"type": "uint256"
						}
					],
					"stateMutability": "view",
					"type": "function"
				},
				{
					"inputs": [],
					"name": "bidCount",
					"outputs": [
						{
							"internalType": "uint256",
							"name": "",
							"type": "uint256"
						}
					],
					"stateMutability": "view",
					"type": "function"
				},
				{
					"inputs": [],
					"name": "bidHead",
					"outputs": [
						{
							"internalType": "uint256",
							"name": "",
							"type": "uint256"
						}
					],
					"stateMutability": "view",
					"type": "function"
				},
				{
					"inputs": [
						{
							"internalType": "uint256",
							"name": "askId",
							"type": "uint256"
						}
					],
					"name": "cancelAsk",
					"outputs": [],
					"stateMutability": "nonpayable",
					"type": "function"
				},
				{
					"inputs": [
						{
							"internalType": "uint256",
							"name": "bidId",
							"type": "uint256"
						}
					],
					"name": "cancelBid",
					"outputs": [],
					"stateMutability": "nonpayable",
					"type": "function"
				},
				{
					"inputs": [
						{
							"internalType": "string",
							"name": "a",
							"type": "string"
						},
						{
							"internalType": "string",
							"name": "b",
							"type": "string"
						}
					],
					"name": "concatenate",
					"outputs": [
						{
							"internalType": "string",
							"name": "",
							"type": "string"
						}
					],
					"stateMutability": "pure",
					"type": "function"
				},
				{
					"inputs": [],
					"name": "fetchAsk",
					"outputs": [
						{
							"internalType": "string",
							"name": "",
							"type": "string"
						}
					],
					"stateMutability": "view",
					"type": "function"
				},
				{
					"inputs": [],
					"name": "fetchBid",
					"outputs": [
						{
							"internalType": "string",
							"name": "",
							"type": "string"
						}
					],
					"stateMutability": "view",
					"type": "function"
				},
				{
					"inputs": [
						{
							"internalType": "uint256",
							"name": "id",
							"type": "uint256"
						}
					],
					"name": "getAskAddress",
					"outputs": [
						{
							"internalType": "address payable",
							"name": "",
							"type": "address"
						}
					],
					"stateMutability": "view",
					"type": "function"
				},
				{
					"inputs": [
						{
							"internalType": "uint256",
							"name": "id",
							"type": "uint256"
						}
					],
					"name": "getAskNext",
					"outputs": [
						{
							"internalType": "uint256",
							"name": "",
							"type": "uint256"
						}
					],
					"stateMutability": "view",
					"type": "function"
				},
				{
					"inputs": [
						{
							"internalType": "uint256",
							"name": "id",
							"type": "uint256"
						}
					],
					"name": "getAskPrev",
					"outputs": [
						{
							"internalType": "uint256",
							"name": "",
							"type": "uint256"
						}
					],
					"stateMutability": "view",
					"type": "function"
				},
				{
					"inputs": [
						{
							"internalType": "uint256",
							"name": "id",
							"type": "uint256"
						}
					],
					"name": "getAskState",
					"outputs": [
						{
							"internalType": "enum OrderBook.State",
							"name": "",
							"type": "uint8"
						}
					],
					"stateMutability": "view",
					"type": "function"
				},
				{
					"inputs": [
						{
							"internalType": "uint256",
							"name": "id",
							"type": "uint256"
						}
					],
					"name": "getAskValue",
					"outputs": [
						{
							"internalType": "uint256",
							"name": "",
							"type": "uint256"
						}
					],
					"stateMutability": "view",
					"type": "function"
				},
				{
					"inputs": [
						{
							"internalType": "uint256",
							"name": "id",
							"type": "uint256"
						}
					],
					"name": "getBidAddress",
					"outputs": [
						{
							"internalType": "address payable",
							"name": "",
							"type": "address"
						}
					],
					"stateMutability": "view",
					"type": "function"
				},
				{
					"inputs": [
						{
							"internalType": "uint256",
							"name": "id",
							"type": "uint256"
						}
					],
					"name": "getBidState",
					"outputs": [
						{
							"internalType": "enum OrderBook.State",
							"name": "",
							"type": "uint8"
						}
					],
					"stateMutability": "view",
					"type": "function"
				},
				{
					"inputs": [
						{
							"internalType": "uint256",
							"name": "id",
							"type": "uint256"
						}
					],
					"name": "getBidValue",
					"outputs": [
						{
							"internalType": "uint256",
							"name": "",
							"type": "uint256"
						}
					],
					"stateMutability": "view",
					"type": "function"
				},
				{
					"inputs": [
						{
							"internalType": "uint256",
							"name": "price",
							"type": "uint256"
						}
					],
					"name": "placeAsk",
					"outputs": [],
					"stateMutability": "payable",
					"type": "function"
				},
				{
					"inputs": [
						{
							"internalType": "uint256",
							"name": "price",
							"type": "uint256"
						}
					],
					"name": "placeBid",
					"outputs": [],
					"stateMutability": "payable",
					"type": "function"
				}
			],
			"devdoc": {
				"kind": "dev",
				"methods": {},
				"version": 1
			},
			"evm": {
				"assembly": "    /* \"contracts/OrderBook.sol\":1155:9838  contract OrderBook {... */\n  mstore(0x40, 0x80)\n    /* \"contracts/OrderBook.sol\":1358:1368  msg.sender */\n  caller\n    /* \"contracts/OrderBook.sol\":1325:1369  address payable _owner = payable(msg.sender) */\n  0x01\n  exp(0x0100, 0x00)\n  dup2\n  sload\n  dup2\n  0xffffffffffffffffffffffffffffffffffffffff\n  mul\n  not\n  and\n  swap1\n  dup4\n  0xffffffffffffffffffffffffffffffffffffffff\n  and\n  mul\n  or\n  swap1\n  sstore\n  pop\n    /* \"contracts/OrderBook.sol\":2287:2448  constructor (uint256 _commission) {... */\n  callvalue\n  dup1\n  iszero\n  tag_1\n  jumpi\n  0x00\n  dup1\n  revert\ntag_1:\n  pop\n  mload(0x40)\n  sub(codesize, bytecodeSize)\n  dup1\n  bytecodeSize\n  dup4\n  codecopy\n  dup2\n  dup2\n  add\n  0x40\n  mstore\n  dup2\n  add\n  swap1\n  tag_2\n  swap2\n  swap1\n  tag_3\n  jump\t// in\ntag_2:\n    /* \"contracts/OrderBook.sol\":2344:2355  _commission */\n  dup1\n    /* \"contracts/OrderBook.sol\":2331:2341  commission */\n  0x02\n    /* \"contracts/OrderBook.sol\":2331:2355  commission = _commission */\n  dup2\n  swap1\n  sstore\n  pop\n    /* \"contracts/OrderBook.sol\":2375:2376  0 */\n  0x00\n    /* \"contracts/OrderBook.sol\":2365:2372  bidHead */\n  0x04\n    /* \"contracts/OrderBook.sol\":2365:2376  bidHead = 0 */\n  dup2\n  swap1\n  sstore\n  pop\n    /* \"contracts/OrderBook.sol\":2397:2398  0 */\n  0x00\n    /* \"contracts/OrderBook.sol\":2386:2394  bidCount */\n  0x05\n    /* \"contracts/OrderBook.sol\":2386:2398  bidCount = 0 */\n  dup2\n  swap1\n  sstore\n  pop\n    /* \"contracts/OrderBook.sol\":2418:2419  0 */\n  0x00\n    /* \"contracts/OrderBook.sol\":2408:2415  askHead */\n  0x07\n    /* \"contracts/OrderBook.sol\":2408:2419  askHead = 0 */\n  dup2\n  swap1\n  sstore\n  pop\n    /* \"contracts/OrderBook.sol\":2440:2441  0 */\n  0x00\n    /* \"contracts/OrderBook.sol\":2429:2437  askCount */\n  0x08\n    /* \"contracts/OrderBook.sol\":2429:2441  askCount = 0 */\n  dup2\n  swap1\n  sstore\n  pop\n    /* \"contracts/OrderBook.sol\":2287:2448  constructor (uint256 _commission) {... */\n  pop\n    /* \"contracts/OrderBook.sol\":1155:9838  contract OrderBook {... */\n  jump(tag_6)\n    /* \"#utility.yul\":7:150   */\ntag_8:\n    /* \"#utility.yul\":64:69   */\n  0x00\n    /* \"#utility.yul\":95:101   */\n  dup2\n    /* \"#utility.yul\":89:102   */\n  mload\n    /* \"#utility.yul\":80:102   */\n  swap1\n  pop\n    /* \"#utility.yul\":111:144   */\n  tag_10\n    /* \"#utility.yul\":138:143   */\n  dup2\n    /* \"#utility.yul\":111:144   */\n  tag_11\n  jump\t// in\ntag_10:\n    /* \"#utility.yul\":7:150   */\n  swap3\n  swap2\n  pop\n  pop\n  jump\t// out\n    /* \"#utility.yul\":156:507   */\ntag_3:\n    /* \"#utility.yul\":226:232   */\n  0x00\n    /* \"#utility.yul\":275:277   */\n  0x20\n    /* \"#utility.yul\":263:272   */\n  dup3\n    /* \"#utility.yul\":254:261   */\n  dup5\n    /* \"#utility.yul\":250:273   */\n  sub\n    /* \"#utility.yul\":246:278   */\n  slt\n    /* \"#utility.yul\":243:362   */\n  iszero\n  tag_13\n  jumpi\n    /* \"#utility.yul\":281:360   */\n  tag_14\n  tag_15\n  jump\t// in\ntag_14:\n    /* \"#utility.yul\":243:362   */\ntag_13:\n    /* \"#utility.yul\":401:402   */\n  0x00\n    /* \"#utility.yul\":426:490   */\n  tag_16\n    /* \"#utility.yul\":482:489   */\n  dup5\n    /* \"#utility.yul\":473:479   */\n  dup3\n    /* \"#utility.yul\":462:471   */\n  dup6\n    /* \"#utility.yul\":458:480   */\n  add\n    /* \"#utility.yul\":426:490   */\n  tag_8\n  jump\t// in\ntag_16:\n    /* \"#utility.yul\":416:490   */\n  swap2\n  pop\n    /* \"#utility.yul\":372:500   */\n  pop\n    /* \"#utility.yul\":156:507   */\n  swap3\n  swap2\n  pop\n  pop\n  jump\t// out\n    /* \"#utility.yul\":594:671   */\ntag_19:\n    /* \"#utility.yul\":631:638   */\n  0x00\n    /* \"#utility.yul\":660:665   */\n  dup2\n    /* \"#utility.yul\":649:665   */\n  swap1\n  pop\n    /* \"#utility.yul\":594:671   */\n  swap2\n  swap1\n  pop\n  jump\t// out\n    /* \"#utility.yul\":800:917   */\ntag_15:\n    /* \"#utility.yul\":909:910   */\n  0x00\n    /* \"#utility.yul\":906:907   */\n  dup1\n    /* \"#utility.yul\":899:911   */\n  revert\n    /* \"#utility.yul\":923:1045   */\ntag_11:\n    /* \"#utility.yul\":996:1020   */\n  tag_25\n    /* \"#utility.yul\":1014:1019   */\n  dup2\n    /* \"#utility.yul\":996:1020   */\n  tag_19\n  jump\t// in\ntag_25:\n    /* \"#utility.yul\":989:994   */\n  dup2\n    /* \"#utility.yul\":986:1021   */\n  eq\n    /* \"#utility.yul\":976:1039   */\n  tag_26\n  jumpi\n    /* \"#utility.yul\":1035:1036   */\n  0x00\n    /* \"#utility.yul\":1032:1033   */\n  dup1\n    /* \"#utility.yul\":1025:1037   */\n  revert\n    /* \"#utility.yul\":976:1039   */\ntag_26:\n    /* \"#utility.yul\":923:1045   */\n  pop\n  jump\t// out\n    /* \"contracts/OrderBook.sol\":1155:9838  contract OrderBook {... */\ntag_6:\n  dataSize(sub_0)\n  dup1\n  dataOffset(sub_0)\n  0x00\n  codecopy\n  0x00\n  return\nstop\n\nsub_0: assembly {\n        /* \"contracts/OrderBook.sol\":1155:9838  contract OrderBook {... */\n      mstore(0x40, 0x80)\n      jumpi(tag_1, lt(calldatasize, 0x04))\n      shr(0xe0, calldataload(0x00))\n      dup1\n      0x734a2e78\n      gt\n      tag_21\n      jumpi\n      dup1\n      0xa394fda7\n      gt\n      tag_22\n      jumpi\n      dup1\n      0xa394fda7\n      eq\n      tag_16\n      jumpi\n      dup1\n      0xb40a5627\n      eq\n      tag_17\n      jumpi\n      dup1\n      0xbf77ffae\n      eq\n      tag_18\n      jumpi\n      dup1\n      0xd05c28cb\n      eq\n      tag_19\n      jumpi\n      dup1\n      0xdb3a1396\n      eq\n      tag_20\n      jumpi\n      jump(tag_1)\n    tag_22:\n      dup1\n      0x734a2e78\n      eq\n      tag_11\n      jumpi\n      dup1\n      0x78c5b268\n      eq\n      tag_12\n      jumpi\n      dup1\n      0x801d9bbd\n      eq\n      tag_13\n      jumpi\n      dup1\n      0x9703ef35\n      eq\n      tag_14\n      jumpi\n      dup1\n      0x9979ef45\n      eq\n      tag_15\n      jumpi\n      jump(tag_1)\n    tag_21:\n      dup1\n      0x44e791e0\n      gt\n      tag_23\n      jumpi\n      dup1\n      0x44e791e0\n      eq\n      tag_6\n      jumpi\n      dup1\n      0x4d46712d\n      eq\n      tag_7\n      jumpi\n      dup1\n      0x69f632e2\n      eq\n      tag_8\n      jumpi\n      dup1\n      0x6e5b0f00\n      eq\n      tag_9\n      jumpi\n      dup1\n      0x733672f4\n      eq\n      tag_10\n      jumpi\n      jump(tag_1)\n    tag_23:\n      dup1\n      0x0f38f2b1\n      eq\n      tag_2\n      jumpi\n      dup1\n      0x1628e0f5\n      eq\n      tag_3\n      jumpi\n      dup1\n      0x266001d3\n      eq\n      tag_4\n      jumpi\n      dup1\n      0x2db6dfa7\n      eq\n      tag_5\n      jumpi\n    tag_1:\n      0x00\n      dup1\n      revert\n        /* \"contracts/OrderBook.sol\":8543:8937  function fetchBid() public view returns (string memory) {... */\n    tag_2:\n      callvalue\n      dup1\n      iszero\n      tag_24\n      jumpi\n      0x00\n      dup1\n      revert\n    tag_24:\n      pop\n      tag_25\n      tag_26\n      jump\t// in\n    tag_25:\n      mload(0x40)\n      tag_27\n      swap2\n      swap1\n      tag_28\n      jump\t// in\n    tag_27:\n      mload(0x40)\n      dup1\n      swap2\n      sub\n      swap1\n      return\n        /* \"contracts/OrderBook.sol\":7831:8109  function cancelAsk (uint256 askId) public isPending(askBook[askId]) isAuthorised(askBook[askId], msg.sender) {... */\n    tag_3:\n      callvalue\n      dup1\n      iszero\n      tag_29\n      jumpi\n      0x00\n      dup1\n      revert\n    tag_29:\n      pop\n      tag_30\n      0x04\n      dup1\n      calldatasize\n      sub\n      dup2\n      add\n      swap1\n      tag_31\n      swap2\n      swap1\n      tag_32\n      jump\t// in\n    tag_31:\n      tag_33\n      jump\t// in\n    tag_30:\n      stop\n        /* \"contracts/OrderBook.sol\":6477:6623  function concatenate(string memory a,string memory b) public pure returns (string memory){... */\n    tag_4:\n      callvalue\n      dup1\n      iszero\n      tag_34\n      jumpi\n      0x00\n      dup1\n      revert\n    tag_34:\n      pop\n      tag_35\n      0x04\n      dup1\n      calldatasize\n      sub\n      dup2\n      add\n      swap1\n      tag_36\n      swap2\n      swap1\n      tag_37\n      jump\t// in\n    tag_36:\n      tag_38\n      jump\t// in\n    tag_35:\n      mload(0x40)\n      tag_39\n      swap2\n      swap1\n      tag_28\n      jump\t// in\n    tag_39:\n      mload(0x40)\n      dup1\n      swap2\n      sub\n      swap1\n      return\n        /* \"contracts/OrderBook.sol\":9189:9293  function getBidValue (uint256 id) public view returns(uint256) {... */\n    tag_5:\n      callvalue\n      dup1\n      iszero\n      tag_40\n      jumpi\n      0x00\n      dup1\n      revert\n    tag_40:\n      pop\n      tag_41\n      0x04\n      dup1\n      calldatasize\n      sub\n      dup2\n      add\n      swap1\n      tag_42\n      swap2\n      swap1\n      tag_32\n      jump\t// in\n    tag_42:\n      tag_43\n      jump\t// in\n    tag_41:\n      mload(0x40)\n      tag_44\n      swap2\n      swap1\n      tag_45\n      jump\t// in\n    tag_44:\n      mload(0x40)\n      dup1\n      swap2\n      sub\n      swap1\n      return\n        /* \"contracts/OrderBook.sol\":8143:8537  function fetchAsk() public view returns (string memory) {... */\n    tag_6:\n      callvalue\n      dup1\n      iszero\n      tag_46\n      jumpi\n      0x00\n      dup1\n      revert\n    tag_46:\n      pop\n      tag_47\n      tag_48\n      jump\t// in\n    tag_47:\n      mload(0x40)\n      tag_49\n      swap2\n      swap1\n      tag_28\n      jump\t// in\n    tag_49:\n      mload(0x40)\n      dup1\n      swap2\n      sub\n      swap1\n      return\n        /* \"contracts/OrderBook.sol\":9517:9619  function getAskState (uint256 id) public view returns(State) {... */\n    tag_7:\n      callvalue\n      dup1\n      iszero\n      tag_50\n      jumpi\n      0x00\n      dup1\n      revert\n    tag_50:\n      pop\n      tag_51\n      0x04\n      dup1\n      calldatasize\n      sub\n      dup2\n      add\n      swap1\n      tag_52\n      swap2\n      swap1\n      tag_32\n      jump\t// in\n    tag_52:\n      tag_53\n      jump\t// in\n    tag_51:\n      mload(0x40)\n      tag_54\n      swap2\n      swap1\n      tag_55\n      jump\t// in\n    tag_54:\n      mload(0x40)\n      dup1\n      swap2\n      sub\n      swap1\n      return\n        /* \"contracts/OrderBook.sol\":8943:9060  function getBidAddress (uint256 id) public view returns(address payable) {... */\n    tag_8:\n      callvalue\n      dup1\n      iszero\n      tag_56\n      jumpi\n      0x00\n      dup1\n      revert\n    tag_56:\n      pop\n      tag_57\n      0x04\n      dup1\n      calldatasize\n      sub\n      dup2\n      add\n      swap1\n      tag_58\n      swap2\n      swap1\n      tag_32\n      jump\t// in\n    tag_58:\n      tag_59\n      jump\t// in\n    tag_57:\n      mload(0x40)\n      tag_60\n      swap2\n      swap1\n      tag_61\n      jump\t// in\n    tag_60:\n      mload(0x40)\n      dup1\n      swap2\n      sub\n      swap1\n      return\n        /* \"contracts/OrderBook.sol\":1822:1844  uint256 public bidHead */\n    tag_9:\n      callvalue\n      dup1\n      iszero\n      tag_62\n      jumpi\n      0x00\n      dup1\n      revert\n    tag_62:\n      pop\n      tag_63\n      tag_64\n      jump\t// in\n    tag_63:\n      mload(0x40)\n      tag_65\n      swap2\n      swap1\n      tag_45\n      jump\t// in\n    tag_65:\n      mload(0x40)\n      dup1\n      swap2\n      sub\n      swap1\n      return\n        /* \"contracts/OrderBook.sol\":9625:9727  function getAskNext (uint256 id) public view returns(uint256) {... */\n    tag_10:\n      callvalue\n      dup1\n      iszero\n      tag_66\n      jumpi\n      0x00\n      dup1\n      revert\n    tag_66:\n      pop\n      tag_67\n      0x04\n      dup1\n      calldatasize\n      sub\n      dup2\n      add\n      swap1\n      tag_68\n      swap2\n      swap1\n      tag_32\n      jump\t// in\n    tag_68:\n      tag_69\n      jump\t// in\n    tag_67:\n      mload(0x40)\n      tag_70\n      swap2\n      swap1\n      tag_45\n      jump\t// in\n    tag_70:\n      mload(0x40)\n      dup1\n      swap2\n      sub\n      swap1\n      return\n        /* \"contracts/OrderBook.sol\":9066:9183  function getAskAddress (uint256 id) public view returns(address payable) {... */\n    tag_11:\n      callvalue\n      dup1\n      iszero\n      tag_71\n      jumpi\n      0x00\n      dup1\n      revert\n    tag_71:\n      pop\n      tag_72\n      0x04\n      dup1\n      calldatasize\n      sub\n      dup2\n      add\n      swap1\n      tag_73\n      swap2\n      swap1\n      tag_32\n      jump\t// in\n    tag_73:\n      tag_74\n      jump\t// in\n    tag_72:\n      mload(0x40)\n      tag_75\n      swap2\n      swap1\n      tag_61\n      jump\t// in\n    tag_75:\n      mload(0x40)\n      dup1\n      swap2\n      sub\n      swap1\n      return\n        /* \"contracts/OrderBook.sol\":7377:7825  function placeAsk (uint256 price) public payable {... */\n    tag_12:\n      tag_76\n      0x04\n      dup1\n      calldatasize\n      sub\n      dup2\n      add\n      swap1\n      tag_77\n      swap2\n      swap1\n      tag_32\n      jump\t// in\n    tag_77:\n      tag_78\n      jump\t// in\n    tag_76:\n      stop\n        /* \"contracts/OrderBook.sol\":1967:1989  uint256 public askHead */\n    tag_13:\n      callvalue\n      dup1\n      iszero\n      tag_79\n      jumpi\n      0x00\n      dup1\n      revert\n    tag_79:\n      pop\n      tag_80\n      tag_81\n      jump\t// in\n    tag_80:\n      mload(0x40)\n      tag_82\n      swap2\n      swap1\n      tag_45\n      jump\t// in\n    tag_82:\n      mload(0x40)\n      dup1\n      swap2\n      sub\n      swap1\n      return\n        /* \"contracts/OrderBook.sol\":7114:7371  function cancelBid (uint256 bidId) public isPending(bidBook[bidId]) isAuthorised(bidBook[bidId], msg.sender) {... */\n    tag_14:\n      callvalue\n      dup1\n      iszero\n      tag_83\n      jumpi\n      0x00\n      dup1\n      revert\n    tag_83:\n      pop\n      tag_84\n      0x04\n      dup1\n      calldatasize\n      sub\n      dup2\n      add\n      swap1\n      tag_85\n      swap2\n      swap1\n      tag_32\n      jump\t// in\n    tag_85:\n      tag_86\n      jump\t// in\n    tag_84:\n      stop\n        /* \"contracts/OrderBook.sol\":6660:7108  function placeBid (uint256 price) public payable {... */\n    tag_15:\n      tag_87\n      0x04\n      dup1\n      calldatasize\n      sub\n      dup2\n      add\n      swap1\n      tag_88\n      swap2\n      swap1\n      tag_32\n      jump\t// in\n    tag_88:\n      tag_89\n      jump\t// in\n    tag_87:\n      stop\n        /* \"contracts/OrderBook.sol\":1995:2018  uint256 public askCount */\n    tag_16:\n      callvalue\n      dup1\n      iszero\n      tag_90\n      jumpi\n      0x00\n      dup1\n      revert\n    tag_90:\n      pop\n      tag_91\n      tag_92\n      jump\t// in\n    tag_91:\n      mload(0x40)\n      tag_93\n      swap2\n      swap1\n      tag_45\n      jump\t// in\n    tag_93:\n      mload(0x40)\n      dup1\n      swap2\n      sub\n      swap1\n      return\n        /* \"contracts/OrderBook.sol\":1850:1873  uint256 public bidCount */\n    tag_17:\n      callvalue\n      dup1\n      iszero\n      tag_94\n      jumpi\n      0x00\n      dup1\n      revert\n    tag_94:\n      pop\n      tag_95\n      tag_96\n      jump\t// in\n    tag_95:\n      mload(0x40)\n      tag_97\n      swap2\n      swap1\n      tag_45\n      jump\t// in\n    tag_97:\n      mload(0x40)\n      dup1\n      swap2\n      sub\n      swap1\n      return\n        /* \"contracts/OrderBook.sol\":9409:9511  function getBidState (uint256 id) public view returns(State) {... */\n    tag_18:\n      callvalue\n      dup1\n      iszero\n      tag_98\n      jumpi\n      0x00\n      dup1\n      revert\n    tag_98:\n      pop\n      tag_99\n      0x04\n      dup1\n      calldatasize\n      sub\n      dup2\n      add\n      swap1\n      tag_100\n      swap2\n      swap1\n      tag_32\n      jump\t// in\n    tag_100:\n      tag_101\n      jump\t// in\n    tag_99:\n      mload(0x40)\n      tag_102\n      swap2\n      swap1\n      tag_55\n      jump\t// in\n    tag_102:\n      mload(0x40)\n      dup1\n      swap2\n      sub\n      swap1\n      return\n        /* \"contracts/OrderBook.sol\":9733:9835  function getAskPrev (uint256 id) public view returns(uint256) {... */\n    tag_19:\n      callvalue\n      dup1\n      iszero\n      tag_103\n      jumpi\n      0x00\n      dup1\n      revert\n    tag_103:\n      pop\n      tag_104\n      0x04\n      dup1\n      calldatasize\n      sub\n      dup2\n      add\n      swap1\n      tag_105\n      swap2\n      swap1\n      tag_32\n      jump\t// in\n    tag_105:\n      tag_106\n      jump\t// in\n    tag_104:\n      mload(0x40)\n      tag_107\n      swap2\n      swap1\n      tag_45\n      jump\t// in\n    tag_107:\n      mload(0x40)\n      dup1\n      swap2\n      sub\n      swap1\n      return\n        /* \"contracts/OrderBook.sol\":9299:9403  function getAskValue (uint256 id) public view returns(uint256) {... */\n    tag_20:\n      callvalue\n      dup1\n      iszero\n      tag_108\n      jumpi\n      0x00\n      dup1\n      revert\n    tag_108:\n      pop\n      tag_109\n      0x04\n      dup1\n      calldatasize\n      sub\n      dup2\n      add\n      swap1\n      tag_110\n      swap2\n      swap1\n      tag_32\n      jump\t// in\n    tag_110:\n      tag_111\n      jump\t// in\n    tag_109:\n      mload(0x40)\n      tag_112\n      swap2\n      swap1\n      tag_45\n      jump\t// in\n    tag_112:\n      mload(0x40)\n      dup1\n      swap2\n      sub\n      swap1\n      return\n        /* \"contracts/OrderBook.sol\":8543:8937  function fetchBid() public view returns (string memory) {... */\n    tag_26:\n        /* \"contracts/OrderBook.sol\":8584:8597  string memory */\n      0x60\n        /* \"contracts/OrderBook.sol\":8609:8624  uint256 current */\n      0x00\n        /* \"contracts/OrderBook.sol\":8627:8634  bidHead */\n      sload(0x04)\n        /* \"contracts/OrderBook.sol\":8609:8634  uint256 current = bidHead */\n      swap1\n      pop\n        /* \"contracts/OrderBook.sol\":8644:8664  string memory output */\n      0x00\n        /* \"contracts/OrderBook.sol\":8644:8669  string memory output = \"\" */\n      mload(0x40)\n      dup1\n      0x20\n      add\n      0x40\n      mstore\n      dup1\n      0x00\n      dup2\n      mstore\n      pop\n      swap1\n      pop\n        /* \"contracts/OrderBook.sol\":8679:8908  while (current != 0) {... */\n    tag_114:\n        /* \"contracts/OrderBook.sol\":8697:8698  0 */\n      0x00\n        /* \"contracts/OrderBook.sol\":8686:8693  current */\n      dup3\n        /* \"contracts/OrderBook.sol\":8686:8698  current != 0 */\n      eq\n        /* \"contracts/OrderBook.sol\":8679:8908  while (current != 0) {... */\n      tag_115\n      jumpi\n        /* \"contracts/OrderBook.sol\":8714:8726  uint256 next */\n      0x00\n        /* \"contracts/OrderBook.sol\":8729:8736  bidBook */\n      0x03\n        /* \"contracts/OrderBook.sol\":8729:8745  bidBook[current] */\n      0x00\n        /* \"contracts/OrderBook.sol\":8737:8744  current */\n      dup5\n        /* \"contracts/OrderBook.sol\":8729:8745  bidBook[current] */\n      dup2\n      mstore\n      0x20\n      add\n      swap1\n      dup2\n      mstore\n      0x20\n      add\n      0x00\n      keccak256\n        /* \"contracts/OrderBook.sol\":8729:8750  bidBook[current].next */\n      0x05\n      add\n      sload\n        /* \"contracts/OrderBook.sol\":8714:8750  uint256 next = bidBook[current].next */\n      swap1\n      pop\n        /* \"contracts/OrderBook.sol\":8764:8788  string memory currString */\n      0x00\n        /* \"contracts/OrderBook.sol\":8791:8816  Strings.toString(current) */\n      tag_116\n        /* \"contracts/OrderBook.sol\":8808:8815  current */\n      dup5\n        /* \"contracts/OrderBook.sol\":8791:8807  Strings.toString */\n      tag_117\n        /* \"contracts/OrderBook.sol\":8791:8816  Strings.toString(current) */\n      jump\t// in\n    tag_116:\n        /* \"contracts/OrderBook.sol\":8764:8816  string memory currString = Strings.toString(current) */\n      swap1\n      pop\n        /* \"contracts/OrderBook.sol\":8839:8869  concatenate(output,currString) */\n      tag_118\n        /* \"contracts/OrderBook.sol\":8851:8857  output */\n      dup4\n        /* \"contracts/OrderBook.sol\":8858:8868  currString */\n      dup3\n        /* \"contracts/OrderBook.sol\":8839:8850  concatenate */\n      tag_38\n        /* \"contracts/OrderBook.sol\":8839:8869  concatenate(output,currString) */\n      jump\t// in\n    tag_118:\n        /* \"contracts/OrderBook.sol\":8830:8869  output = concatenate(output,currString) */\n      swap3\n      pop\n        /* \"contracts/OrderBook.sol\":8893:8897  next */\n      dup2\n        /* \"contracts/OrderBook.sol\":8883:8897  current = next */\n      swap4\n      pop\n        /* \"contracts/OrderBook.sol\":8700:8908  {... */\n      pop\n      pop\n        /* \"contracts/OrderBook.sol\":8679:8908  while (current != 0) {... */\n      jump(tag_114)\n    tag_115:\n        /* \"contracts/OrderBook.sol\":8924:8930  output */\n      dup1\n        /* \"contracts/OrderBook.sol\":8917:8930  return output */\n      swap3\n      pop\n      pop\n      pop\n        /* \"contracts/OrderBook.sol\":8543:8937  function fetchBid() public view returns (string memory) {... */\n      swap1\n      jump\t// out\n        /* \"contracts/OrderBook.sol\":7831:8109  function cancelAsk (uint256 askId) public isPending(askBook[askId]) isAuthorised(askBook[askId], msg.sender) {... */\n    tag_33:\n        /* \"contracts/OrderBook.sol\":7883:7890  askBook */\n      0x06\n        /* \"contracts/OrderBook.sol\":7883:7897  askBook[askId] */\n      0x00\n        /* \"contracts/OrderBook.sol\":7891:7896  askId */\n      dup3\n        /* \"contracts/OrderBook.sol\":7883:7897  askBook[askId] */\n      dup2\n      mstore\n      0x20\n      add\n      swap1\n      dup2\n      mstore\n      0x20\n      add\n      0x00\n      keccak256\n        /* \"contracts/OrderBook.sol\":2487:2610  modifier isPending(order memory _order) {... */\n      mload(0x40)\n      dup1\n      0xe0\n      add\n      0x40\n      mstore\n      swap1\n      dup2\n      0x00\n      dup3\n      add\n      0x00\n      swap1\n      sload\n      swap1\n      0x0100\n      exp\n      swap1\n      div\n      0xffffffffffffffffffffffffffffffffffffffff\n      and\n      0xffffffffffffffffffffffffffffffffffffffff\n      and\n      0xffffffffffffffffffffffffffffffffffffffff\n      and\n      dup2\n      mstore\n      0x20\n      add\n      0x01\n      dup3\n      add\n      sload\n      dup2\n      mstore\n      0x20\n      add\n      0x02\n      dup3\n      add\n      sload\n      dup2\n      mstore\n      0x20\n      add\n      0x03\n      dup3\n      add\n      0x00\n      swap1\n      sload\n      swap1\n      0x0100\n      exp\n      swap1\n      div\n      0xff\n      and\n      0x01\n      dup2\n      gt\n      iszero\n      tag_119\n      jumpi\n      tag_120\n      tag_121\n      jump\t// in\n    tag_120:\n    tag_119:\n      0x01\n      dup2\n      gt\n      iszero\n      tag_122\n      jumpi\n      tag_123\n      tag_121\n      jump\t// in\n    tag_123:\n    tag_122:\n      dup2\n      mstore\n      0x20\n      add\n      0x04\n      dup3\n      add\n      sload\n      dup2\n      mstore\n      0x20\n      add\n      0x05\n      dup3\n      add\n      sload\n      dup2\n      mstore\n      0x20\n      add\n      0x06\n      dup3\n      add\n      sload\n      dup2\n      mstore\n      pop\n      pop\n        /* \"contracts/OrderBook.sol\":2561:2574  State.pending */\n      0x00\n        /* \"contracts/OrderBook.sol\":2545:2574  _order.state == State.pending */\n      0x01\n      dup2\n      gt\n      iszero\n      tag_125\n      jumpi\n      tag_126\n      tag_121\n      jump\t// in\n    tag_126:\n    tag_125:\n        /* \"contracts/OrderBook.sol\":2545:2551  _order */\n      dup2\n        /* \"contracts/OrderBook.sol\":2545:2557  _order.state */\n      0x60\n      add\n      mload\n        /* \"contracts/OrderBook.sol\":2545:2574  _order.state == State.pending */\n      0x01\n      dup2\n      gt\n      iszero\n      tag_127\n      jumpi\n      tag_128\n      tag_121\n      jump\t// in\n    tag_128:\n    tag_127:\n      eq\n        /* \"contracts/OrderBook.sol\":2537:2592  require(_order.state == State.pending, \"Order Pending\") */\n      tag_129\n      jumpi\n      mload(0x40)\n      0x08c379a000000000000000000000000000000000000000000000000000000000\n      dup2\n      mstore\n      0x04\n      add\n      tag_130\n      swap1\n      tag_131\n      jump\t// in\n    tag_130:\n      mload(0x40)\n      dup1\n      swap2\n      sub\n      swap1\n      revert\n    tag_129:\n        /* \"contracts/OrderBook.sol\":7912:7919  askBook */\n      0x06\n        /* \"contracts/OrderBook.sol\":7912:7926  askBook[askId] */\n      0x00\n        /* \"contracts/OrderBook.sol\":7920:7925  askId */\n      dup4\n        /* \"contracts/OrderBook.sol\":7912:7926  askBook[askId] */\n      dup2\n      mstore\n      0x20\n      add\n      swap1\n      dup2\n      mstore\n      0x20\n      add\n      0x00\n      keccak256\n        /* \"contracts/OrderBook.sol\":2616:2755  modifier isAuthorised(order memory _order, address sender) {... */\n      mload(0x40)\n      dup1\n      0xe0\n      add\n      0x40\n      mstore\n      swap1\n      dup2\n      0x00\n      dup3\n      add\n      0x00\n      swap1\n      sload\n      swap1\n      0x0100\n      exp\n      swap1\n      div\n      0xffffffffffffffffffffffffffffffffffffffff\n      and\n      0xffffffffffffffffffffffffffffffffffffffff\n      and\n      0xffffffffffffffffffffffffffffffffffffffff\n      and\n      dup2\n      mstore\n      0x20\n      add\n      0x01\n      dup3\n      add\n      sload\n      dup2\n      mstore\n      0x20\n      add\n      0x02\n      dup3\n      add\n      sload\n      dup2\n      mstore\n      0x20\n      add\n      0x03\n      dup3\n      add\n      0x00\n      swap1\n      sload\n      swap1\n      0x0100\n      exp\n      swap1\n      div\n      0xff\n      and\n      0x01\n      dup2\n      gt\n      iszero\n      tag_132\n      jumpi\n      tag_133\n      tag_121\n      jump\t// in\n    tag_133:\n    tag_132:\n      0x01\n      dup2\n      gt\n      iszero\n      tag_134\n      jumpi\n      tag_135\n      tag_121\n      jump\t// in\n    tag_135:\n    tag_134:\n      dup2\n      mstore\n      0x20\n      add\n      0x04\n      dup3\n      add\n      sload\n      dup2\n      mstore\n      0x20\n      add\n      0x05\n      dup3\n      add\n      sload\n      dup2\n      mstore\n      0x20\n      add\n      0x06\n      dup3\n      add\n      sload\n      dup2\n      mstore\n      pop\n      pop\n        /* \"contracts/OrderBook.sol\":7928:7938  msg.sender */\n      caller\n        /* \"contracts/OrderBook.sol\":2712:2718  sender */\n      dup1\n        /* \"contracts/OrderBook.sol\":2693:2718  _order.customer == sender */\n      0xffffffffffffffffffffffffffffffffffffffff\n      and\n        /* \"contracts/OrderBook.sol\":2693:2699  _order */\n      dup3\n        /* \"contracts/OrderBook.sol\":2693:2708  _order.customer */\n      0x00\n      add\n      mload\n        /* \"contracts/OrderBook.sol\":2693:2718  _order.customer == sender */\n      0xffffffffffffffffffffffffffffffffffffffff\n      and\n      eq\n        /* \"contracts/OrderBook.sol\":2685:2737  require(_order.customer == sender, \"Not Authorised\") */\n      tag_137\n      jumpi\n      mload(0x40)\n      0x08c379a000000000000000000000000000000000000000000000000000000000\n      dup2\n      mstore\n      0x04\n      add\n      tag_138\n      swap1\n      tag_139\n      jump\t// in\n    tag_138:\n      mload(0x40)\n      dup1\n      swap2\n      sub\n      swap1\n      revert\n    tag_137:\n        /* \"contracts/OrderBook.sol\":7950:7963  uint256 value */\n      0x00\n        /* \"contracts/OrderBook.sol\":7966:7973  askBook */\n      0x06\n        /* \"contracts/OrderBook.sol\":7966:7980  askBook[askId] */\n      0x00\n        /* \"contracts/OrderBook.sol\":7974:7979  askId */\n      dup7\n        /* \"contracts/OrderBook.sol\":7966:7980  askBook[askId] */\n      dup2\n      mstore\n      0x20\n      add\n      swap1\n      dup2\n      mstore\n      0x20\n      add\n      0x00\n      keccak256\n        /* \"contracts/OrderBook.sol\":7966:7986  askBook[askId].value */\n      0x01\n      add\n      sload\n        /* \"contracts/OrderBook.sol\":7950:7986  uint256 value = askBook[askId].value */\n      swap1\n      pop\n        /* \"contracts/OrderBook.sol\":7996:8012  deleteAsk(askId) */\n      tag_141\n        /* \"contracts/OrderBook.sol\":8006:8011  askId */\n      dup6\n        /* \"contracts/OrderBook.sol\":7996:8005  deleteAsk */\n      tag_142\n        /* \"contracts/OrderBook.sol\":7996:8012  deleteAsk(askId) */\n      jump\t// in\n    tag_141:\n        /* \"contracts/OrderBook.sol\":8022:8046  address payable receiver */\n      0x00\n        /* \"contracts/OrderBook.sol\":8057:8067  msg.sender */\n      caller\n        /* \"contracts/OrderBook.sol\":8022:8068  address payable receiver = payable(msg.sender) */\n      swap1\n      pop\n        /* \"contracts/OrderBook.sol\":8078:8086  receiver */\n      dup1\n        /* \"contracts/OrderBook.sol\":8078:8095  receiver.transfer */\n      0xffffffffffffffffffffffffffffffffffffffff\n      and\n        /* \"contracts/OrderBook.sol\":8078:8102  receiver.transfer(value) */\n      0x08fc\n        /* \"contracts/OrderBook.sol\":8096:8101  value */\n      dup4\n        /* \"contracts/OrderBook.sol\":8078:8102  receiver.transfer(value) */\n      swap1\n      dup2\n      iszero\n      mul\n      swap1\n      mload(0x40)\n      0x00\n      mload(0x40)\n      dup1\n      dup4\n      sub\n      dup2\n      dup6\n      dup9\n      dup9\n      call\n      swap4\n      pop\n      pop\n      pop\n      pop\n      iszero\n      dup1\n      iszero\n      tag_144\n      jumpi\n      returndatasize\n      0x00\n      dup1\n      returndatacopy\n      revert(0x00, returndatasize)\n    tag_144:\n      pop\n        /* \"contracts/OrderBook.sol\":7940:8109  {... */\n      pop\n      pop\n        /* \"contracts/OrderBook.sol\":2602:2603  _ */\n      pop\n      pop\n        /* \"contracts/OrderBook.sol\":7831:8109  function cancelAsk (uint256 askId) public isPending(askBook[askId]) isAuthorised(askBook[askId], msg.sender) {... */\n      pop\n      pop\n      jump\t// out\n        /* \"contracts/OrderBook.sol\":6477:6623  function concatenate(string memory a,string memory b) public pure returns (string memory){... */\n    tag_38:\n        /* \"contracts/OrderBook.sol\":6552:6565  string memory */\n      0x60\n        /* \"contracts/OrderBook.sol\":6607:6608  a */\n      dup3\n        /* \"contracts/OrderBook.sol\":6613:6614  b */\n      dup3\n        /* \"contracts/OrderBook.sol\":6590:6615  abi.encodePacked(a,' ',b) */\n      add(0x20, mload(0x40))\n      tag_146\n      swap3\n      swap2\n      swap1\n      tag_147\n      jump\t// in\n    tag_146:\n      mload(0x40)\n      0x20\n      dup2\n      dup4\n      sub\n      sub\n      dup2\n      mstore\n      swap1\n      0x40\n      mstore\n        /* \"contracts/OrderBook.sol\":6576:6616  return string(abi.encodePacked(a,' ',b)) */\n      swap1\n      pop\n        /* \"contracts/OrderBook.sol\":6477:6623  function concatenate(string memory a,string memory b) public pure returns (string memory){... */\n      swap3\n      swap2\n      pop\n      pop\n      jump\t// out\n        /* \"contracts/OrderBook.sol\":9189:9293  function getBidValue (uint256 id) public view returns(uint256) {... */\n    tag_43:\n        /* \"contracts/OrderBook.sol\":9243:9250  uint256 */\n      0x00\n        /* \"contracts/OrderBook.sol\":9269:9276  bidBook */\n      0x03\n        /* \"contracts/OrderBook.sol\":9269:9280  bidBook[id] */\n      0x00\n        /* \"contracts/OrderBook.sol\":9277:9279  id */\n      dup4\n        /* \"contracts/OrderBook.sol\":9269:9280  bidBook[id] */\n      dup2\n      mstore\n      0x20\n      add\n      swap1\n      dup2\n      mstore\n      0x20\n      add\n      0x00\n      keccak256\n        /* \"contracts/OrderBook.sol\":9269:9286  bidBook[id].value */\n      0x01\n      add\n      sload\n        /* \"contracts/OrderBook.sol\":9262:9286  return bidBook[id].value */\n      swap1\n      pop\n        /* \"contracts/OrderBook.sol\":9189:9293  function getBidValue (uint256 id) public view returns(uint256) {... */\n      swap2\n      swap1\n      pop\n      jump\t// out\n        /* \"contracts/OrderBook.sol\":8143:8537  function fetchAsk() public view returns (string memory) {... */\n    tag_48:\n        /* \"contracts/OrderBook.sol\":8184:8197  string memory */\n      0x60\n        /* \"contracts/OrderBook.sol\":8209:8224  uint256 current */\n      0x00\n        /* \"contracts/OrderBook.sol\":8227:8234  askHead */\n      sload(0x07)\n        /* \"contracts/OrderBook.sol\":8209:8234  uint256 current = askHead */\n      swap1\n      pop\n        /* \"contracts/OrderBook.sol\":8244:8264  string memory output */\n      0x00\n        /* \"contracts/OrderBook.sol\":8244:8269  string memory output = \"\" */\n      mload(0x40)\n      dup1\n      0x20\n      add\n      0x40\n      mstore\n      dup1\n      0x00\n      dup2\n      mstore\n      pop\n      swap1\n      pop\n        /* \"contracts/OrderBook.sol\":8279:8508  while (current != 0) {... */\n    tag_150:\n        /* \"contracts/OrderBook.sol\":8297:8298  0 */\n      0x00\n        /* \"contracts/OrderBook.sol\":8286:8293  current */\n      dup3\n        /* \"contracts/OrderBook.sol\":8286:8298  current != 0 */\n      eq\n        /* \"contracts/OrderBook.sol\":8279:8508  while (current != 0) {... */\n      tag_151\n      jumpi\n        /* \"contracts/OrderBook.sol\":8314:8326  uint256 next */\n      0x00\n        /* \"contracts/OrderBook.sol\":8329:8336  askBook */\n      0x06\n        /* \"contracts/OrderBook.sol\":8329:8345  askBook[current] */\n      0x00\n        /* \"contracts/OrderBook.sol\":8337:8344  current */\n      dup5\n        /* \"contracts/OrderBook.sol\":8329:8345  askBook[current] */\n      dup2\n      mstore\n      0x20\n      add\n      swap1\n      dup2\n      mstore\n      0x20\n      add\n      0x00\n      keccak256\n        /* \"contracts/OrderBook.sol\":8329:8350  askBook[current].next */\n      0x05\n      add\n      sload\n        /* \"contracts/OrderBook.sol\":8314:8350  uint256 next = askBook[current].next */\n      swap1\n      pop\n        /* \"contracts/OrderBook.sol\":8364:8388  string memory currString */\n      0x00\n        /* \"contracts/OrderBook.sol\":8391:8416  Strings.toString(current) */\n      tag_152\n        /* \"contracts/OrderBook.sol\":8408:8415  current */\n      dup5\n        /* \"contracts/OrderBook.sol\":8391:8407  Strings.toString */\n      tag_117\n        /* \"contracts/OrderBook.sol\":8391:8416  Strings.toString(current) */\n      jump\t// in\n    tag_152:\n        /* \"contracts/OrderBook.sol\":8364:8416  string memory currString = Strings.toString(current) */\n      swap1\n      pop\n        /* \"contracts/OrderBook.sol\":8439:8469  concatenate(output,currString) */\n      tag_153\n        /* \"contracts/OrderBook.sol\":8451:8457  output */\n      dup4\n        /* \"contracts/OrderBook.sol\":8458:8468  currString */\n      dup3\n        /* \"contracts/OrderBook.sol\":8439:8450  concatenate */\n      tag_38\n        /* \"contracts/OrderBook.sol\":8439:8469  concatenate(output,currString) */\n      jump\t// in\n    tag_153:\n        /* \"contracts/OrderBook.sol\":8430:8469  output = concatenate(output,currString) */\n      swap3\n      pop\n        /* \"contracts/OrderBook.sol\":8493:8497  next */\n      dup2\n        /* \"contracts/OrderBook.sol\":8483:8497  current = next */\n      swap4\n      pop\n        /* \"contracts/OrderBook.sol\":8300:8508  {... */\n      pop\n      pop\n        /* \"contracts/OrderBook.sol\":8279:8508  while (current != 0) {... */\n      jump(tag_150)\n    tag_151:\n        /* \"contracts/OrderBook.sol\":8524:8530  output */\n      dup1\n        /* \"contracts/OrderBook.sol\":8517:8530  return output */\n      swap3\n      pop\n      pop\n      pop\n        /* \"contracts/OrderBook.sol\":8143:8537  function fetchAsk() public view returns (string memory) {... */\n      swap1\n      jump\t// out\n        /* \"contracts/OrderBook.sol\":9517:9619  function getAskState (uint256 id) public view returns(State) {... */\n    tag_53:\n        /* \"contracts/OrderBook.sol\":9571:9576  State */\n      0x00\n        /* \"contracts/OrderBook.sol\":9595:9602  askBook */\n      0x06\n        /* \"contracts/OrderBook.sol\":9595:9606  askBook[id] */\n      0x00\n        /* \"contracts/OrderBook.sol\":9603:9605  id */\n      dup4\n        /* \"contracts/OrderBook.sol\":9595:9606  askBook[id] */\n      dup2\n      mstore\n      0x20\n      add\n      swap1\n      dup2\n      mstore\n      0x20\n      add\n      0x00\n      keccak256\n        /* \"contracts/OrderBook.sol\":9595:9612  askBook[id].state */\n      0x03\n      add\n      0x00\n      swap1\n      sload\n      swap1\n      0x0100\n      exp\n      swap1\n      div\n      0xff\n      and\n        /* \"contracts/OrderBook.sol\":9588:9612  return askBook[id].state */\n      swap1\n      pop\n        /* \"contracts/OrderBook.sol\":9517:9619  function getAskState (uint256 id) public view returns(State) {... */\n      swap2\n      swap1\n      pop\n      jump\t// out\n        /* \"contracts/OrderBook.sol\":8943:9060  function getBidAddress (uint256 id) public view returns(address payable) {... */\n    tag_59:\n        /* \"contracts/OrderBook.sol\":8999:9014  address payable */\n      0x00\n        /* \"contracts/OrderBook.sol\":9033:9040  bidBook */\n      0x03\n        /* \"contracts/OrderBook.sol\":9033:9044  bidBook[id] */\n      0x00\n        /* \"contracts/OrderBook.sol\":9041:9043  id */\n      dup4\n        /* \"contracts/OrderBook.sol\":9033:9044  bidBook[id] */\n      dup2\n      mstore\n      0x20\n      add\n      swap1\n      dup2\n      mstore\n      0x20\n      add\n      0x00\n      keccak256\n        /* \"contracts/OrderBook.sol\":9033:9053  bidBook[id].customer */\n      0x00\n      add\n      0x00\n      swap1\n      sload\n      swap1\n      0x0100\n      exp\n      swap1\n      div\n      0xffffffffffffffffffffffffffffffffffffffff\n      and\n        /* \"contracts/OrderBook.sol\":9026:9053  return bidBook[id].customer */\n      swap1\n      pop\n        /* \"contracts/OrderBook.sol\":8943:9060  function getBidAddress (uint256 id) public view returns(address payable) {... */\n      swap2\n      swap1\n      pop\n      jump\t// out\n        /* \"contracts/OrderBook.sol\":1822:1844  uint256 public bidHead */\n    tag_64:\n      sload(0x04)\n      dup2\n      jump\t// out\n        /* \"contracts/OrderBook.sol\":9625:9727  function getAskNext (uint256 id) public view returns(uint256) {... */\n    tag_69:\n        /* \"contracts/OrderBook.sol\":9678:9685  uint256 */\n      0x00\n        /* \"contracts/OrderBook.sol\":9704:9711  askBook */\n      0x06\n        /* \"contracts/OrderBook.sol\":9704:9715  askBook[id] */\n      0x00\n        /* \"contracts/OrderBook.sol\":9712:9714  id */\n      dup4\n        /* \"contracts/OrderBook.sol\":9704:9715  askBook[id] */\n      dup2\n      mstore\n      0x20\n      add\n      swap1\n      dup2\n      mstore\n      0x20\n      add\n      0x00\n      keccak256\n        /* \"contracts/OrderBook.sol\":9704:9720  askBook[id].next */\n      0x05\n      add\n      sload\n        /* \"contracts/OrderBook.sol\":9697:9720  return askBook[id].next */\n      swap1\n      pop\n        /* \"contracts/OrderBook.sol\":9625:9727  function getAskNext (uint256 id) public view returns(uint256) {... */\n      swap2\n      swap1\n      pop\n      jump\t// out\n        /* \"contracts/OrderBook.sol\":9066:9183  function getAskAddress (uint256 id) public view returns(address payable) {... */\n    tag_74:\n        /* \"contracts/OrderBook.sol\":9122:9137  address payable */\n      0x00\n        /* \"contracts/OrderBook.sol\":9156:9163  askBook */\n      0x06\n        /* \"contracts/OrderBook.sol\":9156:9167  askBook[id] */\n      0x00\n        /* \"contracts/OrderBook.sol\":9164:9166  id */\n      dup4\n        /* \"contracts/OrderBook.sol\":9156:9167  askBook[id] */\n      dup2\n      mstore\n      0x20\n      add\n      swap1\n      dup2\n      mstore\n      0x20\n      add\n      0x00\n      keccak256\n        /* \"contracts/OrderBook.sol\":9156:9176  askBook[id].customer */\n      0x00\n      add\n      0x00\n      swap1\n      sload\n      swap1\n      0x0100\n      exp\n      swap1\n      div\n      0xffffffffffffffffffffffffffffffffffffffff\n      and\n        /* \"contracts/OrderBook.sol\":9149:9176  return askBook[id].customer */\n      swap1\n      pop\n        /* \"contracts/OrderBook.sol\":9066:9183  function getAskAddress (uint256 id) public view returns(address payable) {... */\n      swap2\n      swap1\n      pop\n      jump\t// out\n        /* \"contracts/OrderBook.sol\":7377:7825  function placeAsk (uint256 price) public payable {... */\n    tag_78:\n        /* \"contracts/OrderBook.sol\":7453:7454  0 */\n      0x00\n        /* \"contracts/OrderBook.sol\":7444:7449  price */\n      dup2\n        /* \"contracts/OrderBook.sol\":7444:7454  price >= 0 */\n      lt\n      iszero\n        /* \"contracts/OrderBook.sol\":7436:7490  require(price >= 0, \"price value must be more than 0\") */\n      tag_159\n      jumpi\n      mload(0x40)\n      0x08c379a000000000000000000000000000000000000000000000000000000000\n      dup2\n      mstore\n      0x04\n      add\n      tag_160\n      swap1\n      tag_161\n      jump\t// in\n    tag_160:\n      mload(0x40)\n      dup1\n      swap2\n      sub\n      swap1\n      revert\n    tag_159:\n        /* \"contracts/OrderBook.sol\":7521:7526  price */\n      dup1\n        /* \"contracts/OrderBook.sol\":7508:7517  msg.value */\n      callvalue\n        /* \"contracts/OrderBook.sol\":7508:7526  msg.value >= price */\n      lt\n      iszero\n        /* \"contracts/OrderBook.sol\":7500:7561  require(msg.value >= price, \"Not enough blance to place ask\") */\n      tag_162\n      jumpi\n      mload(0x40)\n      0x08c379a000000000000000000000000000000000000000000000000000000000\n      dup2\n      mstore\n      0x04\n      add\n      tag_163\n      swap1\n      tag_164\n      jump\t// in\n    tag_163:\n      mload(0x40)\n      dup1\n      swap2\n      sub\n      swap1\n      revert\n    tag_162:\n        /* \"contracts/OrderBook.sol\":7571:7583  uint256 time */\n      0x00\n        /* \"contracts/OrderBook.sol\":7586:7601  block.timestamp */\n      timestamp\n        /* \"contracts/OrderBook.sol\":7571:7601  uint256 time = block.timestamp */\n      swap1\n      pop\n        /* \"contracts/OrderBook.sol\":7611:7636  uint256 commissionedPrice */\n      0x00\n        /* \"contracts/OrderBook.sol\":7670:7673  100 */\n      0x64\n        /* \"contracts/OrderBook.sol\":7656:7666  commission */\n      sload(0x02)\n        /* \"contracts/OrderBook.sol\":7652:7655  100 */\n      0x64\n        /* \"contracts/OrderBook.sol\":7652:7666  100-commission */\n      tag_165\n      swap2\n      swap1\n      tag_166\n      jump\t// in\n    tag_165:\n        /* \"contracts/OrderBook.sol\":7639:7648  msg.value */\n      callvalue\n        /* \"contracts/OrderBook.sol\":7639:7667  msg.value * (100-commission) */\n      tag_167\n      swap2\n      swap1\n      tag_168\n      jump\t// in\n    tag_167:\n        /* \"contracts/OrderBook.sol\":7639:7673  msg.value * (100-commission) / 100 */\n      tag_169\n      swap2\n      swap1\n      tag_170\n      jump\t// in\n    tag_169:\n        /* \"contracts/OrderBook.sol\":7611:7673  uint256 commissionedPrice = msg.value * (100-commission) / 100 */\n      swap1\n      pop\n        /* \"contracts/OrderBook.sol\":7683:7702  order memory newAsk */\n      0x00\n        /* \"contracts/OrderBook.sol\":7705:7749  createAsk(msg.sender,commissionedPrice,time) */\n      tag_171\n        /* \"contracts/OrderBook.sol\":7715:7725  msg.sender */\n      caller\n        /* \"contracts/OrderBook.sol\":7726:7743  commissionedPrice */\n      dup4\n        /* \"contracts/OrderBook.sol\":7744:7748  time */\n      dup6\n        /* \"contracts/OrderBook.sol\":7705:7714  createAsk */\n      tag_172\n        /* \"contracts/OrderBook.sol\":7705:7749  createAsk(msg.sender,commissionedPrice,time) */\n      jump\t// in\n    tag_171:\n        /* \"contracts/OrderBook.sol\":7683:7749  order memory newAsk = createAsk(msg.sender,commissionedPrice,time) */\n      swap1\n      pop\n        /* \"contracts/OrderBook.sol\":7759:7774  sortAsk(newAsk) */\n      tag_173\n        /* \"contracts/OrderBook.sol\":7767:7773  newAsk */\n      dup2\n        /* \"contracts/OrderBook.sol\":7759:7766  sortAsk */\n      tag_174\n        /* \"contracts/OrderBook.sol\":7759:7774  sortAsk(newAsk) */\n      jump\t// in\n    tag_173:\n        /* \"contracts/OrderBook.sol\":7784:7790  _owner */\n      0x01\n      0x00\n      swap1\n      sload\n      swap1\n      0x0100\n      exp\n      swap1\n      div\n      0xffffffffffffffffffffffffffffffffffffffff\n      and\n        /* \"contracts/OrderBook.sol\":7784:7799  _owner.transfer */\n      0xffffffffffffffffffffffffffffffffffffffff\n      and\n        /* \"contracts/OrderBook.sol\":7784:7818  _owner.transfer(commissionedPrice) */\n      0x08fc\n        /* \"contracts/OrderBook.sol\":7800:7817  commissionedPrice */\n      dup4\n        /* \"contracts/OrderBook.sol\":7784:7818  _owner.transfer(commissionedPrice) */\n      swap1\n      dup2\n      iszero\n      mul\n      swap1\n      mload(0x40)\n      0x00\n      mload(0x40)\n      dup1\n      dup4\n      sub\n      dup2\n      dup6\n      dup9\n      dup9\n      call\n      swap4\n      pop\n      pop\n      pop\n      pop\n      iszero\n      dup1\n      iszero\n      tag_176\n      jumpi\n      returndatasize\n      0x00\n      dup1\n      returndatacopy\n      revert(0x00, returndatasize)\n    tag_176:\n      pop\n        /* \"contracts/OrderBook.sol\":7426:7825  {... */\n      pop\n      pop\n      pop\n        /* \"contracts/OrderBook.sol\":7377:7825  function placeAsk (uint256 price) public payable {... */\n      pop\n      jump\t// out\n        /* \"contracts/OrderBook.sol\":1967:1989  uint256 public askHead */\n    tag_81:\n      sload(0x07)\n      dup2\n      jump\t// out\n        /* \"contracts/OrderBook.sol\":7114:7371  function cancelBid (uint256 bidId) public isPending(bidBook[bidId]) isAuthorised(bidBook[bidId], msg.sender) {... */\n    tag_86:\n        /* \"contracts/OrderBook.sol\":7166:7173  bidBook */\n      0x03\n        /* \"contracts/OrderBook.sol\":7166:7180  bidBook[bidId] */\n      0x00\n        /* \"contracts/OrderBook.sol\":7174:7179  bidId */\n      dup3\n        /* \"contracts/OrderBook.sol\":7166:7180  bidBook[bidId] */\n      dup2\n      mstore\n      0x20\n      add\n      swap1\n      dup2\n      mstore\n      0x20\n      add\n      0x00\n      keccak256\n        /* \"contracts/OrderBook.sol\":2487:2610  modifier isPending(order memory _order) {... */\n      mload(0x40)\n      dup1\n      0xe0\n      add\n      0x40\n      mstore\n      swap1\n      dup2\n      0x00\n      dup3\n      add\n      0x00\n      swap1\n      sload\n      swap1\n      0x0100\n      exp\n      swap1\n      div\n      0xffffffffffffffffffffffffffffffffffffffff\n      and\n      0xffffffffffffffffffffffffffffffffffffffff\n      and\n      0xffffffffffffffffffffffffffffffffffffffff\n      and\n      dup2\n      mstore\n      0x20\n      add\n      0x01\n      dup3\n      add\n      sload\n      dup2\n      mstore\n      0x20\n      add\n      0x02\n      dup3\n      add\n      sload\n      dup2\n      mstore\n      0x20\n      add\n      0x03\n      dup3\n      add\n      0x00\n      swap1\n      sload\n      swap1\n      0x0100\n      exp\n      swap1\n      div\n      0xff\n      and\n      0x01\n      dup2\n      gt\n      iszero\n      tag_177\n      jumpi\n      tag_178\n      tag_121\n      jump\t// in\n    tag_178:\n    tag_177:\n      0x01\n      dup2\n      gt\n      iszero\n      tag_179\n      jumpi\n      tag_180\n      tag_121\n      jump\t// in\n    tag_180:\n    tag_179:\n      dup2\n      mstore\n      0x20\n      add\n      0x04\n      dup3\n      add\n      sload\n      dup2\n      mstore\n      0x20\n      add\n      0x05\n      dup3\n      add\n      sload\n      dup2\n      mstore\n      0x20\n      add\n      0x06\n      dup3\n      add\n      sload\n      dup2\n      mstore\n      pop\n      pop\n        /* \"contracts/OrderBook.sol\":2561:2574  State.pending */\n      0x00\n        /* \"contracts/OrderBook.sol\":2545:2574  _order.state == State.pending */\n      0x01\n      dup2\n      gt\n      iszero\n      tag_182\n      jumpi\n      tag_183\n      tag_121\n      jump\t// in\n    tag_183:\n    tag_182:\n        /* \"contracts/OrderBook.sol\":2545:2551  _order */\n      dup2\n        /* \"contracts/OrderBook.sol\":2545:2557  _order.state */\n      0x60\n      add\n      mload\n        /* \"contracts/OrderBook.sol\":2545:2574  _order.state == State.pending */\n      0x01\n      dup2\n      gt\n      iszero\n      tag_184\n      jumpi\n      tag_185\n      tag_121\n      jump\t// in\n    tag_185:\n    tag_184:\n      eq\n        /* \"contracts/OrderBook.sol\":2537:2592  require(_order.state == State.pending, \"Order Pending\") */\n      tag_186\n      jumpi\n      mload(0x40)\n      0x08c379a000000000000000000000000000000000000000000000000000000000\n      dup2\n      mstore\n      0x04\n      add\n      tag_187\n      swap1\n      tag_131\n      jump\t// in\n    tag_187:\n      mload(0x40)\n      dup1\n      swap2\n      sub\n      swap1\n      revert\n    tag_186:\n        /* \"contracts/OrderBook.sol\":7195:7202  bidBook */\n      0x03\n        /* \"contracts/OrderBook.sol\":7195:7209  bidBook[bidId] */\n      0x00\n        /* \"contracts/OrderBook.sol\":7203:7208  bidId */\n      dup4\n        /* \"contracts/OrderBook.sol\":7195:7209  bidBook[bidId] */\n      dup2\n      mstore\n      0x20\n      add\n      swap1\n      dup2\n      mstore\n      0x20\n      add\n      0x00\n      keccak256\n        /* \"contracts/OrderBook.sol\":2616:2755  modifier isAuthorised(order memory _order, address sender) {... */\n      mload(0x40)\n      dup1\n      0xe0\n      add\n      0x40\n      mstore\n      swap1\n      dup2\n      0x00\n      dup3\n      add\n      0x00\n      swap1\n      sload\n      swap1\n      0x0100\n      exp\n      swap1\n      div\n      0xffffffffffffffffffffffffffffffffffffffff\n      and\n      0xffffffffffffffffffffffffffffffffffffffff\n      and\n      0xffffffffffffffffffffffffffffffffffffffff\n      and\n      dup2\n      mstore\n      0x20\n      add\n      0x01\n      dup3\n      add\n      sload\n      dup2\n      mstore\n      0x20\n      add\n      0x02\n      dup3\n      add\n      sload\n      dup2\n      mstore\n      0x20\n      add\n      0x03\n      dup3\n      add\n      0x00\n      swap1\n      sload\n      swap1\n      0x0100\n      exp\n      swap1\n      div\n      0xff\n      and\n      0x01\n      dup2\n      gt\n      iszero\n      tag_188\n      jumpi\n      tag_189\n      tag_121\n      jump\t// in\n    tag_189:\n    tag_188:\n      0x01\n      dup2\n      gt\n      iszero\n      tag_190\n      jumpi\n      tag_191\n      tag_121\n      jump\t// in\n    tag_191:\n    tag_190:\n      dup2\n      mstore\n      0x20\n      add\n      0x04\n      dup3\n      add\n      sload\n      dup2\n      mstore\n      0x20\n      add\n      0x05\n      dup3\n      add\n      sload\n      dup2\n      mstore\n      0x20\n      add\n      0x06\n      dup3\n      add\n      sload\n      dup2\n      mstore\n      pop\n      pop\n        /* \"contracts/OrderBook.sol\":7211:7221  msg.sender */\n      caller\n        /* \"contracts/OrderBook.sol\":2712:2718  sender */\n      dup1\n        /* \"contracts/OrderBook.sol\":2693:2718  _order.customer == sender */\n      0xffffffffffffffffffffffffffffffffffffffff\n      and\n        /* \"contracts/OrderBook.sol\":2693:2699  _order */\n      dup3\n        /* \"contracts/OrderBook.sol\":2693:2708  _order.customer */\n      0x00\n      add\n      mload\n        /* \"contracts/OrderBook.sol\":2693:2718  _order.customer == sender */\n      0xffffffffffffffffffffffffffffffffffffffff\n      and\n      eq\n        /* \"contracts/OrderBook.sol\":2685:2737  require(_order.customer == sender, \"Not Authorised\") */\n      tag_193\n      jumpi\n      mload(0x40)\n      0x08c379a000000000000000000000000000000000000000000000000000000000\n      dup2\n      mstore\n      0x04\n      add\n      tag_194\n      swap1\n      tag_139\n      jump\t// in\n    tag_194:\n      mload(0x40)\n      dup1\n      swap2\n      sub\n      swap1\n      revert\n    tag_193:\n        /* \"contracts/OrderBook.sol\":2602:2603  _ */\n      pop\n      pop\n        /* \"contracts/OrderBook.sol\":7114:7371  function cancelBid (uint256 bidId) public isPending(bidBook[bidId]) isAuthorised(bidBook[bidId], msg.sender) {... */\n      pop\n      pop\n      jump\t// out\n        /* \"contracts/OrderBook.sol\":6660:7108  function placeBid (uint256 price) public payable {... */\n    tag_89:\n        /* \"contracts/OrderBook.sol\":6736:6737  0 */\n      0x00\n        /* \"contracts/OrderBook.sol\":6727:6732  price */\n      dup2\n        /* \"contracts/OrderBook.sol\":6727:6737  price >= 0 */\n      lt\n      iszero\n        /* \"contracts/OrderBook.sol\":6719:6773  require(price >= 0, \"price value must be more than 0\") */\n      tag_197\n      jumpi\n      mload(0x40)\n      0x08c379a000000000000000000000000000000000000000000000000000000000\n      dup2\n      mstore\n      0x04\n      add\n      tag_198\n      swap1\n      tag_161\n      jump\t// in\n    tag_198:\n      mload(0x40)\n      dup1\n      swap2\n      sub\n      swap1\n      revert\n    tag_197:\n        /* \"contracts/OrderBook.sol\":6804:6809  price */\n      dup1\n        /* \"contracts/OrderBook.sol\":6791:6800  msg.value */\n      callvalue\n        /* \"contracts/OrderBook.sol\":6791:6809  msg.value >= price */\n      lt\n      iszero\n        /* \"contracts/OrderBook.sol\":6783:6844  require(msg.value >= price, \"Not enough blance to place bid\") */\n      tag_199\n      jumpi\n      mload(0x40)\n      0x08c379a000000000000000000000000000000000000000000000000000000000\n      dup2\n      mstore\n      0x04\n      add\n      tag_200\n      swap1\n      tag_201\n      jump\t// in\n    tag_200:\n      mload(0x40)\n      dup1\n      swap2\n      sub\n      swap1\n      revert\n    tag_199:\n        /* \"contracts/OrderBook.sol\":6854:6866  uint256 time */\n      0x00\n        /* \"contracts/OrderBook.sol\":6869:6884  block.timestamp */\n      timestamp\n        /* \"contracts/OrderBook.sol\":6854:6884  uint256 time = block.timestamp */\n      swap1\n      pop\n        /* \"contracts/OrderBook.sol\":6894:6919  uint256 commissionedPrice */\n      0x00\n        /* \"contracts/OrderBook.sol\":6953:6956  100 */\n      0x64\n        /* \"contracts/OrderBook.sol\":6939:6949  commission */\n      sload(0x02)\n        /* \"contracts/OrderBook.sol\":6935:6938  100 */\n      0x64\n        /* \"contracts/OrderBook.sol\":6935:6949  100-commission */\n      tag_202\n      swap2\n      swap1\n      tag_166\n      jump\t// in\n    tag_202:\n        /* \"contracts/OrderBook.sol\":6922:6931  msg.value */\n      callvalue\n        /* \"contracts/OrderBook.sol\":6922:6950  msg.value * (100-commission) */\n      tag_203\n      swap2\n      swap1\n      tag_168\n      jump\t// in\n    tag_203:\n        /* \"contracts/OrderBook.sol\":6922:6956  msg.value * (100-commission) / 100 */\n      tag_204\n      swap2\n      swap1\n      tag_170\n      jump\t// in\n    tag_204:\n        /* \"contracts/OrderBook.sol\":6894:6956  uint256 commissionedPrice = msg.value * (100-commission) / 100 */\n      swap1\n      pop\n        /* \"contracts/OrderBook.sol\":6966:6985  order memory newBid */\n      0x00\n        /* \"contracts/OrderBook.sol\":6988:7032  createBid(msg.sender,commissionedPrice,time) */\n      tag_205\n        /* \"contracts/OrderBook.sol\":6998:7008  msg.sender */\n      caller\n        /* \"contracts/OrderBook.sol\":7009:7026  commissionedPrice */\n      dup4\n        /* \"contracts/OrderBook.sol\":7027:7031  time */\n      dup6\n        /* \"contracts/OrderBook.sol\":6988:6997  createBid */\n      tag_206\n        /* \"contracts/OrderBook.sol\":6988:7032  createBid(msg.sender,commissionedPrice,time) */\n      jump\t// in\n    tag_205:\n        /* \"contracts/OrderBook.sol\":6966:7032  order memory newBid = createBid(msg.sender,commissionedPrice,time) */\n      swap1\n      pop\n        /* \"contracts/OrderBook.sol\":7042:7057  sortBid(newBid) */\n      tag_207\n        /* \"contracts/OrderBook.sol\":7050:7056  newBid */\n      dup2\n        /* \"contracts/OrderBook.sol\":7042:7049  sortBid */\n      tag_208\n        /* \"contracts/OrderBook.sol\":7042:7057  sortBid(newBid) */\n      jump\t// in\n    tag_207:\n        /* \"contracts/OrderBook.sol\":7067:7073  _owner */\n      0x01\n      0x00\n      swap1\n      sload\n      swap1\n      0x0100\n      exp\n      swap1\n      div\n      0xffffffffffffffffffffffffffffffffffffffff\n      and\n        /* \"contracts/OrderBook.sol\":7067:7082  _owner.transfer */\n      0xffffffffffffffffffffffffffffffffffffffff\n      and\n        /* \"contracts/OrderBook.sol\":7067:7101  _owner.transfer(commissionedPrice) */\n      0x08fc\n        /* \"contracts/OrderBook.sol\":7083:7100  commissionedPrice */\n      dup4\n        /* \"contracts/OrderBook.sol\":7067:7101  _owner.transfer(commissionedPrice) */\n      swap1\n      dup2\n      iszero\n      mul\n      swap1\n      mload(0x40)\n      0x00\n      mload(0x40)\n      dup1\n      dup4\n      sub\n      dup2\n      dup6\n      dup9\n      dup9\n      call\n      swap4\n      pop\n      pop\n      pop\n      pop\n      iszero\n      dup1\n      iszero\n      tag_210\n      jumpi\n      returndatasize\n      0x00\n      dup1\n      returndatacopy\n      revert(0x00, returndatasize)\n    tag_210:\n      pop\n        /* \"contracts/OrderBook.sol\":6709:7108  {... */\n      pop\n      pop\n      pop\n        /* \"contracts/OrderBook.sol\":6660:7108  function placeBid (uint256 price) public payable {... */\n      pop\n      jump\t// out\n        /* \"contracts/OrderBook.sol\":1995:2018  uint256 public askCount */\n    tag_92:\n      sload(0x08)\n      dup2\n      jump\t// out\n        /* \"contracts/OrderBook.sol\":1850:1873  uint256 public bidCount */\n    tag_96:\n      sload(0x05)\n      dup2\n      jump\t// out\n        /* \"contracts/OrderBook.sol\":9409:9511  function getBidState (uint256 id) public view returns(State) {... */\n    tag_101:\n        /* \"contracts/OrderBook.sol\":9463:9468  State */\n      0x00\n        /* \"contracts/OrderBook.sol\":9487:9494  bidBook */\n      0x03\n        /* \"contracts/OrderBook.sol\":9487:9498  bidBook[id] */\n      0x00\n        /* \"contracts/OrderBook.sol\":9495:9497  id */\n      dup4\n        /* \"contracts/OrderBook.sol\":9487:9498  bidBook[id] */\n      dup2\n      mstore\n      0x20\n      add\n      swap1\n      dup2\n      mstore\n      0x20\n      add\n      0x00\n      keccak256\n        /* \"contracts/OrderBook.sol\":9487:9504  bidBook[id].state */\n      0x03\n      add\n      0x00\n      swap1\n      sload\n      swap1\n      0x0100\n      exp\n      swap1\n      div\n      0xff\n      and\n        /* \"contracts/OrderBook.sol\":9480:9504  return bidBook[id].state */\n      swap1\n      pop\n        /* \"contracts/OrderBook.sol\":9409:9511  function getBidState (uint256 id) public view returns(State) {... */\n      swap2\n      swap1\n      pop\n      jump\t// out\n        /* \"contracts/OrderBook.sol\":9733:9835  function getAskPrev (uint256 id) public view returns(uint256) {... */\n    tag_106:\n        /* \"contracts/OrderBook.sol\":9786:9793  uint256 */\n      0x00\n        /* \"contracts/OrderBook.sol\":9812:9819  askBook */\n      0x06\n        /* \"contracts/OrderBook.sol\":9812:9823  askBook[id] */\n      0x00\n        /* \"contracts/OrderBook.sol\":9820:9822  id */\n      dup4\n        /* \"contracts/OrderBook.sol\":9812:9823  askBook[id] */\n      dup2\n      mstore\n      0x20\n      add\n      swap1\n      dup2\n      mstore\n      0x20\n      add\n      0x00\n      keccak256\n        /* \"contracts/OrderBook.sol\":9812:9828  askBook[id].prev */\n      0x06\n      add\n      sload\n        /* \"contracts/OrderBook.sol\":9805:9828  return askBook[id].prev */\n      swap1\n      pop\n        /* \"contracts/OrderBook.sol\":9733:9835  function getAskPrev (uint256 id) public view returns(uint256) {... */\n      swap2\n      swap1\n      pop\n      jump\t// out\n        /* \"contracts/OrderBook.sol\":9299:9403  function getAskValue (uint256 id) public view returns(uint256) {... */\n    tag_111:\n        /* \"contracts/OrderBook.sol\":9353:9360  uint256 */\n      0x00\n        /* \"contracts/OrderBook.sol\":9379:9386  askBook */\n      0x06\n        /* \"contracts/OrderBook.sol\":9379:9390  askBook[id] */\n      0x00\n        /* \"contracts/OrderBook.sol\":9387:9389  id */\n      dup4\n        /* \"contracts/OrderBook.sol\":9379:9390  askBook[id] */\n      dup2\n      mstore\n      0x20\n      add\n      swap1\n      dup2\n      mstore\n      0x20\n      add\n      0x00\n      keccak256\n        /* \"contracts/OrderBook.sol\":9379:9396  askBook[id].value */\n      0x01\n      add\n      sload\n        /* \"contracts/OrderBook.sol\":9372:9396  return askBook[id].value */\n      swap1\n      pop\n        /* \"contracts/OrderBook.sol\":9299:9403  function getAskValue (uint256 id) public view returns(uint256) {... */\n      swap2\n      swap1\n      pop\n      jump\t// out\n        /* \"contracts/Strings.sol\":328:1031  function toString(uint256 value) internal pure returns (string memory) {... */\n    tag_117:\n        /* \"contracts/Strings.sol\":384:397  string memory */\n      0x60\n        /* \"contracts/Strings.sol\":610:611  0 */\n      0x00\n        /* \"contracts/Strings.sol\":601:606  value */\n      dup3\n        /* \"contracts/Strings.sol\":601:611  value == 0 */\n      eq\n        /* \"contracts/Strings.sol\":597:648  if (value == 0) {... */\n      iszero\n      tag_215\n      jumpi\n        /* \"contracts/Strings.sol\":627:637  return \"0\" */\n      mload(0x40)\n      dup1\n      0x40\n      add\n      0x40\n      mstore\n      dup1\n      0x01\n      dup2\n      mstore\n      0x20\n      add\n      0x3000000000000000000000000000000000000000000000000000000000000000\n      dup2\n      mstore\n      pop\n      swap1\n      pop\n      jump(tag_214)\n        /* \"contracts/Strings.sol\":597:648  if (value == 0) {... */\n    tag_215:\n        /* \"contracts/Strings.sol\":657:669  uint256 temp */\n      0x00\n        /* \"contracts/Strings.sol\":672:677  value */\n      dup3\n        /* \"contracts/Strings.sol\":657:677  uint256 temp = value */\n      swap1\n      pop\n        /* \"contracts/Strings.sol\":687:701  uint256 digits */\n      0x00\n        /* \"contracts/Strings.sol\":711:786  while (temp != 0) {... */\n    tag_216:\n        /* \"contracts/Strings.sol\":726:727  0 */\n      0x00\n        /* \"contracts/Strings.sol\":718:722  temp */\n      dup3\n        /* \"contracts/Strings.sol\":718:727  temp != 0 */\n      eq\n        /* \"contracts/Strings.sol\":711:786  while (temp != 0) {... */\n      tag_217\n      jumpi\n        /* \"contracts/Strings.sol\":743:751  digits++ */\n      dup1\n      dup1\n      tag_218\n      swap1\n      tag_219\n      jump\t// in\n    tag_218:\n      swap2\n      pop\n      pop\n        /* \"contracts/Strings.sol\":773:775  10 */\n      0x0a\n        /* \"contracts/Strings.sol\":765:775  temp /= 10 */\n      dup3\n      tag_220\n      swap2\n      swap1\n      tag_170\n      jump\t// in\n    tag_220:\n      swap2\n      pop\n        /* \"contracts/Strings.sol\":711:786  while (temp != 0) {... */\n      jump(tag_216)\n    tag_217:\n        /* \"contracts/Strings.sol\":795:814  bytes memory buffer */\n      0x00\n        /* \"contracts/Strings.sol\":827:833  digits */\n      dup2\n        /* \"contracts/Strings.sol\":817:834  new bytes(digits) */\n      0xffffffffffffffff\n      dup2\n      gt\n      iszero\n      tag_221\n      jumpi\n      tag_222\n      tag_223\n      jump\t// in\n    tag_222:\n    tag_221:\n      mload(0x40)\n      swap1\n      dup1\n      dup3\n      mstore\n      dup1\n      0x1f\n      add\n      not(0x1f)\n      and\n      0x20\n      add\n      dup3\n      add\n      0x40\n      mstore\n      dup1\n      iszero\n      tag_224\n      jumpi\n      dup2\n      0x20\n      add\n      0x01\n      dup3\n      mul\n      dup1\n      calldatasize\n      dup4\n      calldatacopy\n      dup1\n      dup3\n      add\n      swap2\n      pop\n      pop\n      swap1\n      pop\n    tag_224:\n      pop\n        /* \"contracts/Strings.sol\":795:834  bytes memory buffer = new bytes(digits) */\n      swap1\n      pop\n        /* \"contracts/Strings.sol\":844:994  while (value != 0) {... */\n    tag_225:\n        /* \"contracts/Strings.sol\":860:861  0 */\n      0x00\n        /* \"contracts/Strings.sol\":851:856  value */\n      dup6\n        /* \"contracts/Strings.sol\":851:861  value != 0 */\n      eq\n        /* \"contracts/Strings.sol\":844:994  while (value != 0) {... */\n      tag_226\n      jumpi\n        /* \"contracts/Strings.sol\":887:888  1 */\n      0x01\n        /* \"contracts/Strings.sol\":877:888  digits -= 1 */\n      dup3\n      tag_227\n      swap2\n      swap1\n      tag_166\n      jump\t// in\n    tag_227:\n      swap2\n      pop\n        /* \"contracts/Strings.sol\":953:955  10 */\n      0x0a\n        /* \"contracts/Strings.sol\":945:950  value */\n      dup6\n        /* \"contracts/Strings.sol\":945:955  value % 10 */\n      tag_228\n      swap2\n      swap1\n      tag_229\n      jump\t// in\n    tag_228:\n        /* \"contracts/Strings.sol\":932:934  48 */\n      0x30\n        /* \"contracts/Strings.sol\":932:956  48 + uint256(value % 10) */\n      tag_230\n      swap2\n      swap1\n      tag_231\n      jump\t// in\n    tag_230:\n        /* \"contracts/Strings.sol\":919:958  bytes1(uint8(48 + uint256(value % 10))) */\n      0xf8\n      shl\n        /* \"contracts/Strings.sol\":902:908  buffer */\n      dup2\n        /* \"contracts/Strings.sol\":909:915  digits */\n      dup4\n        /* \"contracts/Strings.sol\":902:916  buffer[digits] */\n      dup2\n      mload\n      dup2\n      lt\n      tag_232\n      jumpi\n      tag_233\n      tag_234\n      jump\t// in\n    tag_233:\n    tag_232:\n      0x20\n      add\n      add\n        /* \"contracts/Strings.sol\":902:958  buffer[digits] = bytes1(uint8(48 + uint256(value % 10))) */\n      swap1\n      not(0xffffffffffffffffffffffffffffffffffffffffffffffffffffffffffffff)\n      and\n      swap1\n      dup2\n      0x00\n      byte\n      swap1\n      mstore8\n      pop\n        /* \"contracts/Strings.sol\":981:983  10 */\n      0x0a\n        /* \"contracts/Strings.sol\":972:983  value /= 10 */\n      dup6\n      tag_235\n      swap2\n      swap1\n      tag_170\n      jump\t// in\n    tag_235:\n      swap5\n      pop\n        /* \"contracts/Strings.sol\":844:994  while (value != 0) {... */\n      jump(tag_225)\n    tag_226:\n        /* \"contracts/Strings.sol\":1017:1023  buffer */\n      dup1\n        /* \"contracts/Strings.sol\":1003:1024  return string(buffer) */\n      swap4\n      pop\n      pop\n      pop\n      pop\n        /* \"contracts/Strings.sol\":328:1031  function toString(uint256 value) internal pure returns (string memory) {... */\n    tag_214:\n      swap2\n      swap1\n      pop\n      jump\t// out\n        /* \"contracts/OrderBook.sol\":3744:4175  function deleteAsk(uint256 id) internal {... */\n    tag_142:\n        /* \"contracts/OrderBook.sol\":3809:3810  0 */\n      0x00\n        /* \"contracts/OrderBook.sol\":3798:3805  askHead */\n      sload(0x07)\n        /* \"contracts/OrderBook.sol\":3798:3810  askHead == 0 */\n      eq\n        /* \"contracts/OrderBook.sol\":3798:3821  askHead == 0 || id == 0 */\n      dup1\n      tag_237\n      jumpi\n      pop\n        /* \"contracts/OrderBook.sol\":3820:3821  0 */\n      0x00\n        /* \"contracts/OrderBook.sol\":3814:3816  id */\n      dup2\n        /* \"contracts/OrderBook.sol\":3814:3821  id == 0 */\n      eq\n        /* \"contracts/OrderBook.sol\":3798:3821  askHead == 0 || id == 0 */\n    tag_237:\n        /* \"contracts/OrderBook.sol\":3794:3854  if (askHead == 0 || id == 0) {... */\n      iszero\n      tag_238\n      jumpi\n        /* \"contracts/OrderBook.sol\":3837:3844  return; */\n      jump(tag_236)\n        /* \"contracts/OrderBook.sol\":3794:3854  if (askHead == 0 || id == 0) {... */\n    tag_238:\n        /* \"contracts/OrderBook.sol\":3878:3880  id */\n      dup1\n        /* \"contracts/OrderBook.sol\":3867:3874  askHead */\n      sload(0x07)\n        /* \"contracts/OrderBook.sol\":3867:3880  askHead == id */\n      eq\n        /* \"contracts/OrderBook.sol\":3863:3933  if (askHead == id) {... */\n      iszero\n      tag_239\n      jumpi\n        /* \"contracts/OrderBook.sol\":3906:3913  askBook */\n      0x06\n        /* \"contracts/OrderBook.sol\":3906:3917  askBook[id] */\n      0x00\n        /* \"contracts/OrderBook.sol\":3914:3916  id */\n      dup3\n        /* \"contracts/OrderBook.sol\":3906:3917  askBook[id] */\n      dup2\n      mstore\n      0x20\n      add\n      swap1\n      dup2\n      mstore\n      0x20\n      add\n      0x00\n      keccak256\n        /* \"contracts/OrderBook.sol\":3906:3922  askBook[id].next */\n      0x05\n      add\n      sload\n        /* \"contracts/OrderBook.sol\":3896:3903  askHead */\n      0x07\n        /* \"contracts/OrderBook.sol\":3896:3922  askHead = askBook[id].next */\n      dup2\n      swap1\n      sstore\n      pop\n        /* \"contracts/OrderBook.sol\":3863:3933  if (askHead == id) {... */\n    tag_239:\n        /* \"contracts/OrderBook.sol\":3966:3967  0 */\n      0x00\n        /* \"contracts/OrderBook.sol\":3946:3953  askBook */\n      0x06\n        /* \"contracts/OrderBook.sol\":3946:3957  askBook[id] */\n      0x00\n        /* \"contracts/OrderBook.sol\":3954:3956  id */\n      dup4\n        /* \"contracts/OrderBook.sol\":3946:3957  askBook[id] */\n      dup2\n      mstore\n      0x20\n      add\n      swap1\n      dup2\n      mstore\n      0x20\n      add\n      0x00\n      keccak256\n        /* \"contracts/OrderBook.sol\":3946:3962  askBook[id].next */\n      0x05\n      add\n      sload\n        /* \"contracts/OrderBook.sol\":3946:3967  askBook[id].next != 0 */\n      eq\n        /* \"contracts/OrderBook.sol\":3942:4043  if (askBook[id].next != 0) {... */\n      tag_240\n      jumpi\n        /* \"contracts/OrderBook.sol\":4016:4023  askBook */\n      0x06\n        /* \"contracts/OrderBook.sol\":4016:4027  askBook[id] */\n      0x00\n        /* \"contracts/OrderBook.sol\":4024:4026  id */\n      dup3\n        /* \"contracts/OrderBook.sol\":4016:4027  askBook[id] */\n      dup2\n      mstore\n      0x20\n      add\n      swap1\n      dup2\n      mstore\n      0x20\n      add\n      0x00\n      keccak256\n        /* \"contracts/OrderBook.sol\":4016:4032  askBook[id].prev */\n      0x06\n      add\n      sload\n        /* \"contracts/OrderBook.sol\":3983:3990  askBook */\n      0x06\n        /* \"contracts/OrderBook.sol\":3983:4008  askBook[askBook[id].next] */\n      0x00\n        /* \"contracts/OrderBook.sol\":3991:3998  askBook */\n      0x06\n        /* \"contracts/OrderBook.sol\":3991:4002  askBook[id] */\n      0x00\n        /* \"contracts/OrderBook.sol\":3999:4001  id */\n      dup6\n        /* \"contracts/OrderBook.sol\":3991:4002  askBook[id] */\n      dup2\n      mstore\n      0x20\n      add\n      swap1\n      dup2\n      mstore\n      0x20\n      add\n      0x00\n      keccak256\n        /* \"contracts/OrderBook.sol\":3991:4007  askBook[id].next */\n      0x05\n      add\n      sload\n        /* \"contracts/OrderBook.sol\":3983:4008  askBook[askBook[id].next] */\n      dup2\n      mstore\n      0x20\n      add\n      swap1\n      dup2\n      mstore\n      0x20\n      add\n      0x00\n      keccak256\n        /* \"contracts/OrderBook.sol\":3983:4013  askBook[askBook[id].next].prev */\n      0x06\n      add\n        /* \"contracts/OrderBook.sol\":3983:4032  askBook[askBook[id].next].prev = askBook[id].prev */\n      dup2\n      swap1\n      sstore\n      pop\n        /* \"contracts/OrderBook.sol\":3942:4043  if (askBook[id].next != 0) {... */\n    tag_240:\n        /* \"contracts/OrderBook.sol\":4076:4077  0 */\n      0x00\n        /* \"contracts/OrderBook.sol\":4056:4063  askBook */\n      0x06\n        /* \"contracts/OrderBook.sol\":4056:4067  askBook[id] */\n      0x00\n        /* \"contracts/OrderBook.sol\":4064:4066  id */\n      dup4\n        /* \"contracts/OrderBook.sol\":4056:4067  askBook[id] */\n      dup2\n      mstore\n      0x20\n      add\n      swap1\n      dup2\n      mstore\n      0x20\n      add\n      0x00\n      keccak256\n        /* \"contracts/OrderBook.sol\":4056:4072  askBook[id].prev */\n      0x06\n      add\n      sload\n        /* \"contracts/OrderBook.sol\":4056:4077  askBook[id].prev != 0 */\n      eq\n        /* \"contracts/OrderBook.sol\":4052:4153  if (askBook[id].prev != 0) {... */\n      tag_241\n      jumpi\n        /* \"contracts/OrderBook.sol\":4126:4133  askBook */\n      0x06\n        /* \"contracts/OrderBook.sol\":4126:4137  askBook[id] */\n      0x00\n        /* \"contracts/OrderBook.sol\":4134:4136  id */\n      dup3\n        /* \"contracts/OrderBook.sol\":4126:4137  askBook[id] */\n      dup2\n      mstore\n      0x20\n      add\n      swap1\n      dup2\n      mstore\n      0x20\n      add\n      0x00\n      keccak256\n        /* \"contracts/OrderBook.sol\":4126:4142  askBook[id].next */\n      0x05\n      add\n      sload\n        /* \"contracts/OrderBook.sol\":4093:4100  askBook */\n      0x06\n        /* \"contracts/OrderBook.sol\":4093:4118  askBook[askBook[id].prev] */\n      0x00\n        /* \"contracts/OrderBook.sol\":4101:4108  askBook */\n      0x06\n        /* \"contracts/OrderBook.sol\":4101:4112  askBook[id] */\n      0x00\n        /* \"contracts/OrderBook.sol\":4109:4111  id */\n      dup6\n        /* \"contracts/OrderBook.sol\":4101:4112  askBook[id] */\n      dup2\n      mstore\n      0x20\n      add\n      swap1\n      dup2\n      mstore\n      0x20\n      add\n      0x00\n      keccak256\n        /* \"contracts/OrderBook.sol\":4101:4117  askBook[id].prev */\n      0x06\n      add\n      sload\n        /* \"contracts/OrderBook.sol\":4093:4118  askBook[askBook[id].prev] */\n      dup2\n      mstore\n      0x20\n      add\n      swap1\n      dup2\n      mstore\n      0x20\n      add\n      0x00\n      keccak256\n        /* \"contracts/OrderBook.sol\":4093:4123  askBook[askBook[id].prev].next */\n      0x05\n      add\n        /* \"contracts/OrderBook.sol\":4093:4142  askBook[askBook[id].prev].next = askBook[id].next */\n      dup2\n      swap1\n      sstore\n      pop\n        /* \"contracts/OrderBook.sol\":4052:4153  if (askBook[id].prev != 0) {... */\n    tag_241:\n        /* \"contracts/OrderBook.sol\":3744:4175  function deleteAsk(uint256 id) internal {... */\n    tag_236:\n      pop\n      jump\t// out\n        /* \"contracts/OrderBook.sol\":3266:3738  function createAsk(address customer, uint256 value, uint256 timestamp) internal returns (order memory) {... */\n    tag_172:\n        /* \"contracts/OrderBook.sol\":3355:3367  order memory */\n      tag_242\n      tag_243\n      jump\t// in\n    tag_242:\n        /* \"contracts/OrderBook.sol\":3379:3387  askCount */\n      0x08\n      0x00\n        /* \"contracts/OrderBook.sol\":3379:3390  askCount ++ */\n      dup2\n      sload\n      dup1\n      swap3\n      swap2\n      swap1\n      tag_245\n      swap1\n      tag_219\n      jump\t// in\n    tag_245:\n      swap2\n      swap1\n      pop\n      sstore\n      pop\n        /* \"contracts/OrderBook.sol\":3400:3419  order memory newAsk */\n      0x00\n        /* \"contracts/OrderBook.sol\":3422:3589  order(... */\n      mload(0x40)\n      dup1\n      0xe0\n      add\n      0x40\n      mstore\n      dup1\n        /* \"contracts/OrderBook.sol\":3449:3457  customer */\n      dup7\n        /* \"contracts/OrderBook.sol\":3422:3589  order(... */\n      0xffffffffffffffffffffffffffffffffffffffff\n      and\n      dup2\n      mstore\n      0x20\n      add\n        /* \"contracts/OrderBook.sol\":3472:3477  value */\n      dup6\n        /* \"contracts/OrderBook.sol\":3422:3589  order(... */\n      dup2\n      mstore\n      0x20\n      add\n        /* \"contracts/OrderBook.sol\":3491:3500  timestamp */\n      dup5\n        /* \"contracts/OrderBook.sol\":3422:3589  order(... */\n      dup2\n      mstore\n      0x20\n      add\n        /* \"contracts/OrderBook.sol\":3514:3527  State.pending */\n      0x00\n        /* \"contracts/OrderBook.sol\":3422:3589  order(... */\n      0x01\n      dup2\n      gt\n      iszero\n      tag_246\n      jumpi\n      tag_247\n      tag_121\n      jump\t// in\n    tag_247:\n    tag_246:\n      dup2\n      mstore\n      0x20\n      add\n        /* \"contracts/OrderBook.sol\":3541:3549  askCount */\n      sload(0x08)\n        /* \"contracts/OrderBook.sol\":3422:3589  order(... */\n      dup2\n      mstore\n      0x20\n      add\n        /* \"contracts/OrderBook.sol\":3563:3564  0 */\n      0x00\n        /* \"contracts/OrderBook.sol\":3422:3589  order(... */\n      dup2\n      mstore\n      0x20\n      add\n        /* \"contracts/OrderBook.sol\":3578:3579  0 */\n      0x00\n        /* \"contracts/OrderBook.sol\":3422:3589  order(... */\n      dup2\n      mstore\n      pop\n        /* \"contracts/OrderBook.sol\":3400:3589  order memory newAsk = order(... */\n      swap1\n      pop\n        /* \"contracts/OrderBook.sol\":3619:3625  newAsk */\n      dup1\n        /* \"contracts/OrderBook.sol\":3599:3606  askBook */\n      0x06\n        /* \"contracts/OrderBook.sol\":3599:3616  askBook[askCount] */\n      0x00\n        /* \"contracts/OrderBook.sol\":3607:3615  askCount */\n      sload(0x08)\n        /* \"contracts/OrderBook.sol\":3599:3616  askBook[askCount] */\n      dup2\n      mstore\n      0x20\n      add\n      swap1\n      dup2\n      mstore\n      0x20\n      add\n      0x00\n      keccak256\n        /* \"contracts/OrderBook.sol\":3599:3625  askBook[askCount] = newAsk */\n      0x00\n      dup3\n      add\n      mload\n      dup2\n      0x00\n      add\n      exp(0x0100, 0x00)\n      dup2\n      sload\n      dup2\n      0xffffffffffffffffffffffffffffffffffffffff\n      mul\n      not\n      and\n      swap1\n      dup4\n      0xffffffffffffffffffffffffffffffffffffffff\n      and\n      mul\n      or\n      swap1\n      sstore\n      pop\n      0x20\n      dup3\n      add\n      mload\n      dup2\n      0x01\n      add\n      sstore\n      0x40\n      dup3\n      add\n      mload\n      dup2\n      0x02\n      add\n      sstore\n      0x60\n      dup3\n      add\n      mload\n      dup2\n      0x03\n      add\n      exp(0x0100, 0x00)\n      dup2\n      sload\n      dup2\n      0xff\n      mul\n      not\n      and\n      swap1\n      dup4\n      0x01\n      dup2\n      gt\n      iszero\n      tag_248\n      jumpi\n      tag_249\n      tag_121\n      jump\t// in\n    tag_249:\n    tag_248:\n      mul\n      or\n      swap1\n      sstore\n      pop\n      0x80\n      dup3\n      add\n      mload\n      dup2\n      0x04\n      add\n      sstore\n      0xa0\n      dup3\n      add\n      mload\n      dup2\n      0x05\n      add\n      sstore\n      0xc0\n      dup3\n      add\n      mload\n      dup2\n      0x06\n      add\n      sstore\n      swap1\n      pop\n      pop\n        /* \"contracts/OrderBook.sol\":3640:3705  orderCreated(customer,value,timestamp,State.pending,askCount,0,0) */\n      0xb363d8961e2dcc4e4f9cafac06e22ffe5a3ee9b47f614e483f989b932167e865\n        /* \"contracts/OrderBook.sol\":3653:3661  customer */\n      dup6\n        /* \"contracts/OrderBook.sol\":3662:3667  value */\n      dup6\n        /* \"contracts/OrderBook.sol\":3668:3677  timestamp */\n      dup6\n        /* \"contracts/OrderBook.sol\":3678:3691  State.pending */\n      0x00\n        /* \"contracts/OrderBook.sol\":3692:3700  askCount */\n      sload(0x08)\n        /* \"contracts/OrderBook.sol\":3701:3702  0 */\n      0x00\n        /* \"contracts/OrderBook.sol\":3703:3704  0 */\n      dup1\n        /* \"contracts/OrderBook.sol\":3640:3705  orderCreated(customer,value,timestamp,State.pending,askCount,0,0) */\n      mload(0x40)\n      tag_250\n      swap8\n      swap7\n      swap6\n      swap5\n      swap4\n      swap3\n      swap2\n      swap1\n      tag_251\n      jump\t// in\n    tag_250:\n      mload(0x40)\n      dup1\n      swap2\n      sub\n      swap1\n      log1\n        /* \"contracts/OrderBook.sol\":3725:3731  newAsk */\n      dup1\n        /* \"contracts/OrderBook.sol\":3718:3731  return newAsk */\n      swap2\n      pop\n      pop\n        /* \"contracts/OrderBook.sol\":3266:3738  function createAsk(address customer, uint256 value, uint256 timestamp) internal returns (order memory) {... */\n      swap4\n      swap3\n      pop\n      pop\n      pop\n      jump\t// out\n        /* \"contracts/OrderBook.sol\":4203:5080  function sortAsk(order memory newOrder) internal {... */\n    tag_174:\n        /* \"contracts/OrderBook.sol\":4262:4277  uint256 current */\n      0x00\n        /* \"contracts/OrderBook.sol\":4302:4303  0 */\n      dup1\n        /* \"contracts/OrderBook.sol\":4291:4298  askHead */\n      sload(0x07)\n        /* \"contracts/OrderBook.sol\":4291:4303  askHead == 0 */\n      eq\n        /* \"contracts/OrderBook.sol\":4287:5074  if (askHead == 0) {... */\n      iszero\n      tag_253\n      jumpi\n        /* \"contracts/OrderBook.sol\":4329:4337  newOrder */\n      dup2\n        /* \"contracts/OrderBook.sol\":4329:4340  newOrder.id */\n      0x80\n      add\n      mload\n        /* \"contracts/OrderBook.sol\":4319:4326  askHead */\n      0x07\n        /* \"contracts/OrderBook.sol\":4319:4340  askHead = newOrder.id */\n      dup2\n      swap1\n      sstore\n      pop\n        /* \"contracts/OrderBook.sol\":4287:5074  if (askHead == 0) {... */\n      jump(tag_254)\n    tag_253:\n        /* \"contracts/OrderBook.sol\":4387:4395  newOrder */\n      dup2\n        /* \"contracts/OrderBook.sol\":4387:4401  newOrder.value */\n      0x20\n      add\n      mload\n        /* \"contracts/OrderBook.sol\":4361:4368  askBook */\n      0x06\n        /* \"contracts/OrderBook.sol\":4361:4377  askBook[askHead] */\n      0x00\n        /* \"contracts/OrderBook.sol\":4369:4376  askHead */\n      sload(0x07)\n        /* \"contracts/OrderBook.sol\":4361:4377  askBook[askHead] */\n      dup2\n      mstore\n      0x20\n      add\n      swap1\n      dup2\n      mstore\n      0x20\n      add\n      0x00\n      keccak256\n        /* \"contracts/OrderBook.sol\":4361:4383  askBook[askHead].value */\n      0x01\n      add\n      sload\n        /* \"contracts/OrderBook.sol\":4361:4401  askBook[askHead].value >= newOrder.value */\n      lt\n        /* \"contracts/OrderBook.sol\":4357:5074  if (askBook[askHead].value >= newOrder.value) {... */\n      tag_255\n      jumpi\n        /* \"contracts/OrderBook.sol\":4445:4452  askHead */\n      sload(0x07)\n        /* \"contracts/OrderBook.sol\":4417:4424  askBook */\n      0x06\n        /* \"contracts/OrderBook.sol\":4417:4437  askBook[newOrder.id] */\n      0x00\n        /* \"contracts/OrderBook.sol\":4425:4433  newOrder */\n      dup5\n        /* \"contracts/OrderBook.sol\":4425:4436  newOrder.id */\n      0x80\n      add\n      mload\n        /* \"contracts/OrderBook.sol\":4417:4437  askBook[newOrder.id] */\n      dup2\n      mstore\n      0x20\n      add\n      swap1\n      dup2\n      mstore\n      0x20\n      add\n      0x00\n      keccak256\n        /* \"contracts/OrderBook.sol\":4417:4442  askBook[newOrder.id].next */\n      0x05\n      add\n        /* \"contracts/OrderBook.sol\":4417:4452  askBook[newOrder.id].next = askHead */\n      dup2\n      swap1\n      sstore\n      pop\n        /* \"contracts/OrderBook.sol\":4508:4516  newOrder */\n      dup2\n        /* \"contracts/OrderBook.sol\":4508:4519  newOrder.id */\n      0x80\n      add\n      mload\n        /* \"contracts/OrderBook.sol\":4466:4473  askBook */\n      0x06\n        /* \"contracts/OrderBook.sol\":4466:4500  askBook[askBook[newOrder.id].next] */\n      0x00\n        /* \"contracts/OrderBook.sol\":4474:4481  askBook */\n      0x06\n        /* \"contracts/OrderBook.sol\":4474:4494  askBook[newOrder.id] */\n      0x00\n        /* \"contracts/OrderBook.sol\":4482:4490  newOrder */\n      dup7\n        /* \"contracts/OrderBook.sol\":4482:4493  newOrder.id */\n      0x80\n      add\n      mload\n        /* \"contracts/OrderBook.sol\":4474:4494  askBook[newOrder.id] */\n      dup2\n      mstore\n      0x20\n      add\n      swap1\n      dup2\n      mstore\n      0x20\n      add\n      0x00\n      keccak256\n        /* \"contracts/OrderBook.sol\":4474:4499  askBook[newOrder.id].next */\n      0x05\n      add\n      sload\n        /* \"contracts/OrderBook.sol\":4466:4500  askBook[askBook[newOrder.id].next] */\n      dup2\n      mstore\n      0x20\n      add\n      swap1\n      dup2\n      mstore\n      0x20\n      add\n      0x00\n      keccak256\n        /* \"contracts/OrderBook.sol\":4466:4505  askBook[askBook[newOrder.id].next].prev */\n      0x06\n      add\n        /* \"contracts/OrderBook.sol\":4466:4519  askBook[askBook[newOrder.id].next].prev = newOrder.id */\n      dup2\n      swap1\n      sstore\n      pop\n        /* \"contracts/OrderBook.sol\":4543:4551  newOrder */\n      dup2\n        /* \"contracts/OrderBook.sol\":4543:4554  newOrder.id */\n      0x80\n      add\n      mload\n        /* \"contracts/OrderBook.sol\":4533:4540  askHead */\n      0x07\n        /* \"contracts/OrderBook.sol\":4533:4554  askHead = newOrder.id */\n      dup2\n      swap1\n      sstore\n      pop\n        /* \"contracts/OrderBook.sol\":4357:5074  if (askBook[askHead].value >= newOrder.value) {... */\n      jump(tag_256)\n    tag_255:\n        /* \"contracts/OrderBook.sol\":4595:4602  askHead */\n      sload(0x07)\n        /* \"contracts/OrderBook.sol\":4585:4602  current = askHead */\n      swap1\n      pop\n        /* \"contracts/OrderBook.sol\":4616:4772  while (askBook[current].next != 0 && askBook[askBook[current].next].value < newOrder.value) {... */\n    tag_257:\n        /* \"contracts/OrderBook.sol\":4648:4649  0 */\n      0x00\n        /* \"contracts/OrderBook.sol\":4623:4630  askBook */\n      0x06\n        /* \"contracts/OrderBook.sol\":4623:4639  askBook[current] */\n      0x00\n        /* \"contracts/OrderBook.sol\":4631:4638  current */\n      dup4\n        /* \"contracts/OrderBook.sol\":4623:4639  askBook[current] */\n      dup2\n      mstore\n      0x20\n      add\n      swap1\n      dup2\n      mstore\n      0x20\n      add\n      0x00\n      keccak256\n        /* \"contracts/OrderBook.sol\":4623:4644  askBook[current].next */\n      0x05\n      add\n      sload\n        /* \"contracts/OrderBook.sol\":4623:4649  askBook[current].next != 0 */\n      eq\n      iszero\n        /* \"contracts/OrderBook.sol\":4623:4706  askBook[current].next != 0 && askBook[askBook[current].next].value < newOrder.value */\n      dup1\n      iszero\n      tag_259\n      jumpi\n      pop\n        /* \"contracts/OrderBook.sol\":4692:4700  newOrder */\n      dup2\n        /* \"contracts/OrderBook.sol\":4692:4706  newOrder.value */\n      0x20\n      add\n      mload\n        /* \"contracts/OrderBook.sol\":4653:4660  askBook */\n      0x06\n        /* \"contracts/OrderBook.sol\":4653:4683  askBook[askBook[current].next] */\n      0x00\n        /* \"contracts/OrderBook.sol\":4661:4668  askBook */\n      0x06\n        /* \"contracts/OrderBook.sol\":4661:4677  askBook[current] */\n      0x00\n        /* \"contracts/OrderBook.sol\":4669:4676  current */\n      dup6\n        /* \"contracts/OrderBook.sol\":4661:4677  askBook[current] */\n      dup2\n      mstore\n      0x20\n      add\n      swap1\n      dup2\n      mstore\n      0x20\n      add\n      0x00\n      keccak256\n        /* \"contracts/OrderBook.sol\":4661:4682  askBook[current].next */\n      0x05\n      add\n      sload\n        /* \"contracts/OrderBook.sol\":4653:4683  askBook[askBook[current].next] */\n      dup2\n      mstore\n      0x20\n      add\n      swap1\n      dup2\n      mstore\n      0x20\n      add\n      0x00\n      keccak256\n        /* \"contracts/OrderBook.sol\":4653:4689  askBook[askBook[current].next].value */\n      0x01\n      add\n      sload\n        /* \"contracts/OrderBook.sol\":4653:4706  askBook[askBook[current].next].value < newOrder.value */\n      lt\n        /* \"contracts/OrderBook.sol\":4623:4706  askBook[current].next != 0 && askBook[askBook[current].next].value < newOrder.value */\n    tag_259:\n        /* \"contracts/OrderBook.sol\":4616:4772  while (askBook[current].next != 0 && askBook[askBook[current].next].value < newOrder.value) {... */\n      iszero\n      tag_258\n      jumpi\n        /* \"contracts/OrderBook.sol\":4736:4743  askBook */\n      0x06\n        /* \"contracts/OrderBook.sol\":4736:4752  askBook[current] */\n      0x00\n        /* \"contracts/OrderBook.sol\":4744:4751  current */\n      dup3\n        /* \"contracts/OrderBook.sol\":4736:4752  askBook[current] */\n      dup2\n      mstore\n      0x20\n      add\n      swap1\n      dup2\n      mstore\n      0x20\n      add\n      0x00\n      keccak256\n        /* \"contracts/OrderBook.sol\":4736:4757  askBook[current].next */\n      0x05\n      add\n      sload\n        /* \"contracts/OrderBook.sol\":4726:4757  current = askBook[current].next */\n      swap1\n      pop\n        /* \"contracts/OrderBook.sol\":4616:4772  while (askBook[current].next != 0 && askBook[askBook[current].next].value < newOrder.value) {... */\n      jump(tag_257)\n    tag_258:\n        /* \"contracts/OrderBook.sol\":4813:4820  askBook */\n      0x06\n        /* \"contracts/OrderBook.sol\":4813:4829  askBook[current] */\n      0x00\n        /* \"contracts/OrderBook.sol\":4821:4828  current */\n      dup3\n        /* \"contracts/OrderBook.sol\":4813:4829  askBook[current] */\n      dup2\n      mstore\n      0x20\n      add\n      swap1\n      dup2\n      mstore\n      0x20\n      add\n      0x00\n      keccak256\n        /* \"contracts/OrderBook.sol\":4813:4834  askBook[current].next */\n      0x05\n      add\n      sload\n        /* \"contracts/OrderBook.sol\":4785:4792  askBook */\n      0x06\n        /* \"contracts/OrderBook.sol\":4785:4805  askBook[newOrder.id] */\n      0x00\n        /* \"contracts/OrderBook.sol\":4793:4801  newOrder */\n      dup5\n        /* \"contracts/OrderBook.sol\":4793:4804  newOrder.id */\n      0x80\n      add\n      mload\n        /* \"contracts/OrderBook.sol\":4785:4805  askBook[newOrder.id] */\n      dup2\n      mstore\n      0x20\n      add\n      swap1\n      dup2\n      mstore\n      0x20\n      add\n      0x00\n      keccak256\n        /* \"contracts/OrderBook.sol\":4785:4810  askBook[newOrder.id].next */\n      0x05\n      add\n        /* \"contracts/OrderBook.sol\":4785:4834  askBook[newOrder.id].next = askBook[current].next */\n      dup2\n      swap1\n      sstore\n      pop\n        /* \"contracts/OrderBook.sol\":4877:4878  0 */\n      0x00\n        /* \"contracts/OrderBook.sol\":4852:4859  askBook */\n      0x06\n        /* \"contracts/OrderBook.sol\":4852:4868  askBook[current] */\n      0x00\n        /* \"contracts/OrderBook.sol\":4860:4867  current */\n      dup4\n        /* \"contracts/OrderBook.sol\":4852:4868  askBook[current] */\n      dup2\n      mstore\n      0x20\n      add\n      swap1\n      dup2\n      mstore\n      0x20\n      add\n      0x00\n      keccak256\n        /* \"contracts/OrderBook.sol\":4852:4873  askBook[current].next */\n      0x05\n      add\n      sload\n        /* \"contracts/OrderBook.sol\":4852:4878  askBook[current].next != 0 */\n      eq\n        /* \"contracts/OrderBook.sol\":4848:4966  if (askBook[current].next != 0) {... */\n      tag_260\n      jumpi\n        /* \"contracts/OrderBook.sol\":4940:4948  newOrder */\n      dup2\n        /* \"contracts/OrderBook.sol\":4940:4951  newOrder.id */\n      0x80\n      add\n      mload\n        /* \"contracts/OrderBook.sol\":4898:4905  askBook */\n      0x06\n        /* \"contracts/OrderBook.sol\":4898:4932  askBook[askBook[newOrder.id].next] */\n      0x00\n        /* \"contracts/OrderBook.sol\":4906:4913  askBook */\n      0x06\n        /* \"contracts/OrderBook.sol\":4906:4926  askBook[newOrder.id] */\n      0x00\n        /* \"contracts/OrderBook.sol\":4914:4922  newOrder */\n      dup7\n        /* \"contracts/OrderBook.sol\":4914:4925  newOrder.id */\n      0x80\n      add\n      mload\n        /* \"contracts/OrderBook.sol\":4906:4926  askBook[newOrder.id] */\n      dup2\n      mstore\n      0x20\n      add\n      swap1\n      dup2\n      mstore\n      0x20\n      add\n      0x00\n      keccak256\n        /* \"contracts/OrderBook.sol\":4906:4931  askBook[newOrder.id].next */\n      0x05\n      add\n      sload\n        /* \"contracts/OrderBook.sol\":4898:4932  askBook[askBook[newOrder.id].next] */\n      dup2\n      mstore\n      0x20\n      add\n      swap1\n      dup2\n      mstore\n      0x20\n      add\n      0x00\n      keccak256\n        /* \"contracts/OrderBook.sol\":4898:4937  askBook[askBook[newOrder.id].next].prev */\n      0x06\n      add\n        /* \"contracts/OrderBook.sol\":4898:4951  askBook[askBook[newOrder.id].next].prev = newOrder.id */\n      dup2\n      swap1\n      sstore\n      pop\n        /* \"contracts/OrderBook.sol\":4848:4966  if (askBook[current].next != 0) {... */\n    tag_260:\n        /* \"contracts/OrderBook.sol\":5003:5011  newOrder */\n      dup2\n        /* \"contracts/OrderBook.sol\":5003:5014  newOrder.id */\n      0x80\n      add\n      mload\n        /* \"contracts/OrderBook.sol\":4979:4986  askBook */\n      0x06\n        /* \"contracts/OrderBook.sol\":4979:4995  askBook[current] */\n      0x00\n        /* \"contracts/OrderBook.sol\":4987:4994  current */\n      dup4\n        /* \"contracts/OrderBook.sol\":4979:4995  askBook[current] */\n      dup2\n      mstore\n      0x20\n      add\n      swap1\n      dup2\n      mstore\n      0x20\n      add\n      0x00\n      keccak256\n        /* \"contracts/OrderBook.sol\":4979:5000  askBook[current].next */\n      0x05\n      add\n        /* \"contracts/OrderBook.sol\":4979:5014  askBook[current].next = newOrder.id */\n      dup2\n      swap1\n      sstore\n      pop\n        /* \"contracts/OrderBook.sol\":5056:5063  current */\n      dup1\n        /* \"contracts/OrderBook.sol\":5028:5035  askBook */\n      0x06\n        /* \"contracts/OrderBook.sol\":5028:5048  askBook[newOrder.id] */\n      0x00\n        /* \"contracts/OrderBook.sol\":5036:5044  newOrder */\n      dup5\n        /* \"contracts/OrderBook.sol\":5036:5047  newOrder.id */\n      0x80\n      add\n      mload\n        /* \"contracts/OrderBook.sol\":5028:5048  askBook[newOrder.id] */\n      dup2\n      mstore\n      0x20\n      add\n      swap1\n      dup2\n      mstore\n      0x20\n      add\n      0x00\n      keccak256\n        /* \"contracts/OrderBook.sol\":5028:5053  askBook[newOrder.id].prev */\n      0x06\n      add\n        /* \"contracts/OrderBook.sol\":5028:5063  askBook[newOrder.id].prev = current */\n      dup2\n      swap1\n      sstore\n      pop\n        /* \"contracts/OrderBook.sol\":4357:5074  if (askBook[askHead].value >= newOrder.value) {... */\n    tag_256:\n        /* \"contracts/OrderBook.sol\":4287:5074  if (askHead == 0) {... */\n    tag_254:\n        /* \"contracts/OrderBook.sol\":4252:5080  {... */\n      pop\n        /* \"contracts/OrderBook.sol\":4203:5080  function sortAsk(order memory newOrder) internal {... */\n      pop\n      jump\t// out\n        /* \"contracts/OrderBook.sol\":2788:3260  function createBid(address customer, uint256 value, uint256 timestamp) internal returns (order memory) {... */\n    tag_206:\n        /* \"contracts/OrderBook.sol\":2877:2889  order memory */\n      tag_261\n      tag_243\n      jump\t// in\n    tag_261:\n        /* \"contracts/OrderBook.sol\":2901:2909  bidCount */\n      0x05\n      0x00\n        /* \"contracts/OrderBook.sol\":2901:2912  bidCount ++ */\n      dup2\n      sload\n      dup1\n      swap3\n      swap2\n      swap1\n      tag_263\n      swap1\n      tag_219\n      jump\t// in\n    tag_263:\n      swap2\n      swap1\n      pop\n      sstore\n      pop\n        /* \"contracts/OrderBook.sol\":2922:2941  order memory newBid */\n      0x00\n        /* \"contracts/OrderBook.sol\":2944:3111  order(... */\n      mload(0x40)\n      dup1\n      0xe0\n      add\n      0x40\n      mstore\n      dup1\n        /* \"contracts/OrderBook.sol\":2971:2979  customer */\n      dup7\n        /* \"contracts/OrderBook.sol\":2944:3111  order(... */\n      0xffffffffffffffffffffffffffffffffffffffff\n      and\n      dup2\n      mstore\n      0x20\n      add\n        /* \"contracts/OrderBook.sol\":2994:2999  value */\n      dup6\n        /* \"contracts/OrderBook.sol\":2944:3111  order(... */\n      dup2\n      mstore\n      0x20\n      add\n        /* \"contracts/OrderBook.sol\":3013:3022  timestamp */\n      dup5\n        /* \"contracts/OrderBook.sol\":2944:3111  order(... */\n      dup2\n      mstore\n      0x20\n      add\n        /* \"contracts/OrderBook.sol\":3036:3049  State.pending */\n      0x00\n        /* \"contracts/OrderBook.sol\":2944:3111  order(... */\n      0x01\n      dup2\n      gt\n      iszero\n      tag_264\n      jumpi\n      tag_265\n      tag_121\n      jump\t// in\n    tag_265:\n    tag_264:\n      dup2\n      mstore\n      0x20\n      add\n        /* \"contracts/OrderBook.sol\":3063:3071  bidCount */\n      sload(0x05)\n        /* \"contracts/OrderBook.sol\":2944:3111  order(... */\n      dup2\n      mstore\n      0x20\n      add\n        /* \"contracts/OrderBook.sol\":3085:3086  0 */\n      0x00\n        /* \"contracts/OrderBook.sol\":2944:3111  order(... */\n      dup2\n      mstore\n      0x20\n      add\n        /* \"contracts/OrderBook.sol\":3100:3101  0 */\n      0x00\n        /* \"contracts/OrderBook.sol\":2944:3111  order(... */\n      dup2\n      mstore\n      pop\n        /* \"contracts/OrderBook.sol\":2922:3111  order memory newBid = order(... */\n      swap1\n      pop\n        /* \"contracts/OrderBook.sol\":3141:3147  newBid */\n      dup1\n        /* \"contracts/OrderBook.sol\":3121:3128  bidBook */\n      0x03\n        /* \"contracts/OrderBook.sol\":3121:3138  bidBook[bidCount] */\n      0x00\n        /* \"contracts/OrderBook.sol\":3129:3137  bidCount */\n      sload(0x05)\n        /* \"contracts/OrderBook.sol\":3121:3138  bidBook[bidCount] */\n      dup2\n      mstore\n      0x20\n      add\n      swap1\n      dup2\n      mstore\n      0x20\n      add\n      0x00\n      keccak256\n        /* \"contracts/OrderBook.sol\":3121:3147  bidBook[bidCount] = newBid */\n      0x00\n      dup3\n      add\n      mload\n      dup2\n      0x00\n      add\n      exp(0x0100, 0x00)\n      dup2\n      sload\n      dup2\n      0xffffffffffffffffffffffffffffffffffffffff\n      mul\n      not\n      and\n      swap1\n      dup4\n      0xffffffffffffffffffffffffffffffffffffffff\n      and\n      mul\n      or\n      swap1\n      sstore\n      pop\n      0x20\n      dup3\n      add\n      mload\n      dup2\n      0x01\n      add\n      sstore\n      0x40\n      dup3\n      add\n      mload\n      dup2\n      0x02\n      add\n      sstore\n      0x60\n      dup3\n      add\n      mload\n      dup2\n      0x03\n      add\n      exp(0x0100, 0x00)\n      dup2\n      sload\n      dup2\n      0xff\n      mul\n      not\n      and\n      swap1\n      dup4\n      0x01\n      dup2\n      gt\n      iszero\n      tag_266\n      jumpi\n      tag_267\n      tag_121\n      jump\t// in\n    tag_267:\n    tag_266:\n      mul\n      or\n      swap1\n      sstore\n      pop\n      0x80\n      dup3\n      add\n      mload\n      dup2\n      0x04\n      add\n      sstore\n      0xa0\n      dup3\n      add\n      mload\n      dup2\n      0x05\n      add\n      sstore\n      0xc0\n      dup3\n      add\n      mload\n      dup2\n      0x06\n      add\n      sstore\n      swap1\n      pop\n      pop\n        /* \"contracts/OrderBook.sol\":3162:3227  orderCreated(customer,value,timestamp,State.pending,bidCount,0,0) */\n      0xb363d8961e2dcc4e4f9cafac06e22ffe5a3ee9b47f614e483f989b932167e865\n        /* \"contracts/OrderBook.sol\":3175:3183  customer */\n      dup6\n        /* \"contracts/OrderBook.sol\":3184:3189  value */\n      dup6\n        /* \"contracts/OrderBook.sol\":3190:3199  timestamp */\n      dup6\n        /* \"contracts/OrderBook.sol\":3200:3213  State.pending */\n      0x00\n        /* \"contracts/OrderBook.sol\":3214:3222  bidCount */\n      sload(0x05)\n        /* \"contracts/OrderBook.sol\":3223:3224  0 */\n      0x00\n        /* \"contracts/OrderBook.sol\":3225:3226  0 */\n      dup1\n        /* \"contracts/OrderBook.sol\":3162:3227  orderCreated(customer,value,timestamp,State.pending,bidCount,0,0) */\n      mload(0x40)\n      tag_268\n      swap8\n      swap7\n      swap6\n      swap5\n      swap4\n      swap3\n      swap2\n      swap1\n      tag_251\n      jump\t// in\n    tag_268:\n      mload(0x40)\n      dup1\n      swap2\n      sub\n      swap1\n      log1\n        /* \"contracts/OrderBook.sol\":3247:3253  newBid */\n      dup1\n        /* \"contracts/OrderBook.sol\":3240:3253  return newBid */\n      swap2\n      pop\n      pop\n        /* \"contracts/OrderBook.sol\":2788:3260  function createBid(address customer, uint256 value, uint256 timestamp) internal returns (order memory) {... */\n      swap4\n      swap3\n      pop\n      pop\n      pop\n      jump\t// out\n        /* \"contracts/OrderBook.sol\":5108:5985  function sortBid(order memory newOrder) internal {... */\n    tag_208:\n        /* \"contracts/OrderBook.sol\":5167:5182  uint256 current */\n      0x00\n        /* \"contracts/OrderBook.sol\":5207:5208  0 */\n      dup1\n        /* \"contracts/OrderBook.sol\":5196:5203  bidHead */\n      sload(0x04)\n        /* \"contracts/OrderBook.sol\":5196:5208  bidHead == 0 */\n      eq\n        /* \"contracts/OrderBook.sol\":5192:5979  if (bidHead == 0) {... */\n      iszero\n      tag_270\n      jumpi\n        /* \"contracts/OrderBook.sol\":5234:5242  newOrder */\n      dup2\n        /* \"contracts/OrderBook.sol\":5234:5245  newOrder.id */\n      0x80\n      add\n      mload\n        /* \"contracts/OrderBook.sol\":5224:5231  bidHead */\n      0x04\n        /* \"contracts/OrderBook.sol\":5224:5245  bidHead = newOrder.id */\n      dup2\n      swap1\n      sstore\n      pop\n        /* \"contracts/OrderBook.sol\":5192:5979  if (bidHead == 0) {... */\n      jump(tag_271)\n    tag_270:\n        /* \"contracts/OrderBook.sol\":5292:5300  newOrder */\n      dup2\n        /* \"contracts/OrderBook.sol\":5292:5306  newOrder.value */\n      0x20\n      add\n      mload\n        /* \"contracts/OrderBook.sol\":5266:5273  bidBook */\n      0x03\n        /* \"contracts/OrderBook.sol\":5266:5282  bidBook[bidHead] */\n      0x00\n        /* \"contracts/OrderBook.sol\":5274:5281  bidHead */\n      sload(0x04)\n        /* \"contracts/OrderBook.sol\":5266:5282  bidBook[bidHead] */\n      dup2\n      mstore\n      0x20\n      add\n      swap1\n      dup2\n      mstore\n      0x20\n      add\n      0x00\n      keccak256\n        /* \"contracts/OrderBook.sol\":5266:5288  bidBook[bidHead].value */\n      0x01\n      add\n      sload\n        /* \"contracts/OrderBook.sol\":5266:5306  bidBook[bidHead].value <= newOrder.value */\n      gt\n        /* \"contracts/OrderBook.sol\":5262:5979  if (bidBook[bidHead].value <= newOrder.value) {... */\n      tag_272\n      jumpi\n        /* \"contracts/OrderBook.sol\":5350:5357  bidHead */\n      sload(0x04)\n        /* \"contracts/OrderBook.sol\":5322:5329  bidBook */\n      0x03\n        /* \"contracts/OrderBook.sol\":5322:5342  bidBook[newOrder.id] */\n      0x00\n        /* \"contracts/OrderBook.sol\":5330:5338  newOrder */\n      dup5\n        /* \"contracts/OrderBook.sol\":5330:5341  newOrder.id */\n      0x80\n      add\n      mload\n        /* \"contracts/OrderBook.sol\":5322:5342  bidBook[newOrder.id] */\n      dup2\n      mstore\n      0x20\n      add\n      swap1\n      dup2\n      mstore\n      0x20\n      add\n      0x00\n      keccak256\n        /* \"contracts/OrderBook.sol\":5322:5347  bidBook[newOrder.id].next */\n      0x05\n      add\n        /* \"contracts/OrderBook.sol\":5322:5357  bidBook[newOrder.id].next = bidHead */\n      dup2\n      swap1\n      sstore\n      pop\n        /* \"contracts/OrderBook.sol\":5413:5421  newOrder */\n      dup2\n        /* \"contracts/OrderBook.sol\":5413:5424  newOrder.id */\n      0x80\n      add\n      mload\n        /* \"contracts/OrderBook.sol\":5371:5378  bidBook */\n      0x03\n        /* \"contracts/OrderBook.sol\":5371:5405  bidBook[bidBook[newOrder.id].next] */\n      0x00\n        /* \"contracts/OrderBook.sol\":5379:5386  bidBook */\n      0x03\n        /* \"contracts/OrderBook.sol\":5379:5399  bidBook[newOrder.id] */\n      0x00\n        /* \"contracts/OrderBook.sol\":5387:5395  newOrder */\n      dup7\n        /* \"contracts/OrderBook.sol\":5387:5398  newOrder.id */\n      0x80\n      add\n      mload\n        /* \"contracts/OrderBook.sol\":5379:5399  bidBook[newOrder.id] */\n      dup2\n      mstore\n      0x20\n      add\n      swap1\n      dup2\n      mstore\n      0x20\n      add\n      0x00\n      keccak256\n        /* \"contracts/OrderBook.sol\":5379:5404  bidBook[newOrder.id].next */\n      0x05\n      add\n      sload\n        /* \"contracts/OrderBook.sol\":5371:5405  bidBook[bidBook[newOrder.id].next] */\n      dup2\n      mstore\n      0x20\n      add\n      swap1\n      dup2\n      mstore\n      0x20\n      add\n      0x00\n      keccak256\n        /* \"contracts/OrderBook.sol\":5371:5410  bidBook[bidBook[newOrder.id].next].prev */\n      0x06\n      add\n        /* \"contracts/OrderBook.sol\":5371:5424  bidBook[bidBook[newOrder.id].next].prev = newOrder.id */\n      dup2\n      swap1\n      sstore\n      pop\n        /* \"contracts/OrderBook.sol\":5448:5456  newOrder */\n      dup2\n        /* \"contracts/OrderBook.sol\":5448:5459  newOrder.id */\n      0x80\n      add\n      mload\n        /* \"contracts/OrderBook.sol\":5438:5445  bidHead */\n      0x04\n        /* \"contracts/OrderBook.sol\":5438:5459  bidHead = newOrder.id */\n      dup2\n      swap1\n      sstore\n      pop\n        /* \"contracts/OrderBook.sol\":5262:5979  if (bidBook[bidHead].value <= newOrder.value) {... */\n      jump(tag_273)\n    tag_272:\n        /* \"contracts/OrderBook.sol\":5500:5507  bidHead */\n      sload(0x04)\n        /* \"contracts/OrderBook.sol\":5490:5507  current = bidHead */\n      swap1\n      pop\n        /* \"contracts/OrderBook.sol\":5521:5677  while (bidBook[current].next != 0 && bidBook[bidBook[current].next].value > newOrder.value) {... */\n    tag_274:\n        /* \"contracts/OrderBook.sol\":5553:5554  0 */\n      0x00\n        /* \"contracts/OrderBook.sol\":5528:5535  bidBook */\n      0x03\n        /* \"contracts/OrderBook.sol\":5528:5544  bidBook[current] */\n      0x00\n        /* \"contracts/OrderBook.sol\":5536:5543  current */\n      dup4\n        /* \"contracts/OrderBook.sol\":5528:5544  bidBook[current] */\n      dup2\n      mstore\n      0x20\n      add\n      swap1\n      dup2\n      mstore\n      0x20\n      add\n      0x00\n      keccak256\n        /* \"contracts/OrderBook.sol\":5528:5549  bidBook[current].next */\n      0x05\n      add\n      sload\n        /* \"contracts/OrderBook.sol\":5528:5554  bidBook[current].next != 0 */\n      eq\n      iszero\n        /* \"contracts/OrderBook.sol\":5528:5611  bidBook[current].next != 0 && bidBook[bidBook[current].next].value > newOrder.value */\n      dup1\n      iszero\n      tag_276\n      jumpi\n      pop\n        /* \"contracts/OrderBook.sol\":5597:5605  newOrder */\n      dup2\n        /* \"contracts/OrderBook.sol\":5597:5611  newOrder.value */\n      0x20\n      add\n      mload\n        /* \"contracts/OrderBook.sol\":5558:5565  bidBook */\n      0x03\n        /* \"contracts/OrderBook.sol\":5558:5588  bidBook[bidBook[current].next] */\n      0x00\n        /* \"contracts/OrderBook.sol\":5566:5573  bidBook */\n      0x03\n        /* \"contracts/OrderBook.sol\":5566:5582  bidBook[current] */\n      0x00\n        /* \"contracts/OrderBook.sol\":5574:5581  current */\n      dup6\n        /* \"contracts/OrderBook.sol\":5566:5582  bidBook[current] */\n      dup2\n      mstore\n      0x20\n      add\n      swap1\n      dup2\n      mstore\n      0x20\n      add\n      0x00\n      keccak256\n        /* \"contracts/OrderBook.sol\":5566:5587  bidBook[current].next */\n      0x05\n      add\n      sload\n        /* \"contracts/OrderBook.sol\":5558:5588  bidBook[bidBook[current].next] */\n      dup2\n      mstore\n      0x20\n      add\n      swap1\n      dup2\n      mstore\n      0x20\n      add\n      0x00\n      keccak256\n        /* \"contracts/OrderBook.sol\":5558:5594  bidBook[bidBook[current].next].value */\n      0x01\n      add\n      sload\n        /* \"contracts/OrderBook.sol\":5558:5611  bidBook[bidBook[current].next].value > newOrder.value */\n      gt\n        /* \"contracts/OrderBook.sol\":5528:5611  bidBook[current].next != 0 && bidBook[bidBook[current].next].value > newOrder.value */\n    tag_276:\n        /* \"contracts/OrderBook.sol\":5521:5677  while (bidBook[current].next != 0 && bidBook[bidBook[current].next].value > newOrder.value) {... */\n      iszero\n      tag_275\n      jumpi\n        /* \"contracts/OrderBook.sol\":5641:5648  bidBook */\n      0x03\n        /* \"contracts/OrderBook.sol\":5641:5657  bidBook[current] */\n      0x00\n        /* \"contracts/OrderBook.sol\":5649:5656  current */\n      dup3\n        /* \"contracts/OrderBook.sol\":5641:5657  bidBook[current] */\n      dup2\n      mstore\n      0x20\n      add\n      swap1\n      dup2\n      mstore\n      0x20\n      add\n      0x00\n      keccak256\n        /* \"contracts/OrderBook.sol\":5641:5662  bidBook[current].next */\n      0x05\n      add\n      sload\n        /* \"contracts/OrderBook.sol\":5631:5662  current = bidBook[current].next */\n      swap1\n      pop\n        /* \"contracts/OrderBook.sol\":5521:5677  while (bidBook[current].next != 0 && bidBook[bidBook[current].next].value > newOrder.value) {... */\n      jump(tag_274)\n    tag_275:\n        /* \"contracts/OrderBook.sol\":5718:5725  bidBook */\n      0x03\n        /* \"contracts/OrderBook.sol\":5718:5734  bidBook[current] */\n      0x00\n        /* \"contracts/OrderBook.sol\":5726:5733  current */\n      dup3\n        /* \"contracts/OrderBook.sol\":5718:5734  bidBook[current] */\n      dup2\n      mstore\n      0x20\n      add\n      swap1\n      dup2\n      mstore\n      0x20\n      add\n      0x00\n      keccak256\n        /* \"contracts/OrderBook.sol\":5718:5739  bidBook[current].next */\n      0x05\n      add\n      sload\n        /* \"contracts/OrderBook.sol\":5690:5697  bidBook */\n      0x03\n        /* \"contracts/OrderBook.sol\":5690:5710  bidBook[newOrder.id] */\n      0x00\n        /* \"contracts/OrderBook.sol\":5698:5706  newOrder */\n      dup5\n        /* \"contracts/OrderBook.sol\":5698:5709  newOrder.id */\n      0x80\n      add\n      mload\n        /* \"contracts/OrderBook.sol\":5690:5710  bidBook[newOrder.id] */\n      dup2\n      mstore\n      0x20\n      add\n      swap1\n      dup2\n      mstore\n      0x20\n      add\n      0x00\n      keccak256\n        /* \"contracts/OrderBook.sol\":5690:5715  bidBook[newOrder.id].next */\n      0x05\n      add\n        /* \"contracts/OrderBook.sol\":5690:5739  bidBook[newOrder.id].next = bidBook[current].next */\n      dup2\n      swap1\n      sstore\n      pop\n        /* \"contracts/OrderBook.sol\":5782:5783  0 */\n      0x00\n        /* \"contracts/OrderBook.sol\":5757:5764  bidBook */\n      0x03\n        /* \"contracts/OrderBook.sol\":5757:5773  bidBook[current] */\n      0x00\n        /* \"contracts/OrderBook.sol\":5765:5772  current */\n      dup4\n        /* \"contracts/OrderBook.sol\":5757:5773  bidBook[current] */\n      dup2\n      mstore\n      0x20\n      add\n      swap1\n      dup2\n      mstore\n      0x20\n      add\n      0x00\n      keccak256\n        /* \"contracts/OrderBook.sol\":5757:5778  bidBook[current].next */\n      0x05\n      add\n      sload\n        /* \"contracts/OrderBook.sol\":5757:5783  bidBook[current].next != 0 */\n      eq\n        /* \"contracts/OrderBook.sol\":5753:5871  if (bidBook[current].next != 0) {... */\n      tag_277\n      jumpi\n        /* \"contracts/OrderBook.sol\":5845:5853  newOrder */\n      dup2\n        /* \"contracts/OrderBook.sol\":5845:5856  newOrder.id */\n      0x80\n      add\n      mload\n        /* \"contracts/OrderBook.sol\":5803:5810  bidBook */\n      0x03\n        /* \"contracts/OrderBook.sol\":5803:5837  bidBook[bidBook[newOrder.id].next] */\n      0x00\n        /* \"contracts/OrderBook.sol\":5811:5818  bidBook */\n      0x03\n        /* \"contracts/OrderBook.sol\":5811:5831  bidBook[newOrder.id] */\n      0x00\n        /* \"contracts/OrderBook.sol\":5819:5827  newOrder */\n      dup7\n        /* \"contracts/OrderBook.sol\":5819:5830  newOrder.id */\n      0x80\n      add\n      mload\n        /* \"contracts/OrderBook.sol\":5811:5831  bidBook[newOrder.id] */\n      dup2\n      mstore\n      0x20\n      add\n      swap1\n      dup2\n      mstore\n      0x20\n      add\n      0x00\n      keccak256\n        /* \"contracts/OrderBook.sol\":5811:5836  bidBook[newOrder.id].next */\n      0x05\n      add\n      sload\n        /* \"contracts/OrderBook.sol\":5803:5837  bidBook[bidBook[newOrder.id].next] */\n      dup2\n      mstore\n      0x20\n      add\n      swap1\n      dup2\n      mstore\n      0x20\n      add\n      0x00\n      keccak256\n        /* \"contracts/OrderBook.sol\":5803:5842  bidBook[bidBook[newOrder.id].next].prev */\n      0x06\n      add\n        /* \"contracts/OrderBook.sol\":5803:5856  bidBook[bidBook[newOrder.id].next].prev = newOrder.id */\n      dup2\n      swap1\n      sstore\n      pop\n        /* \"contracts/OrderBook.sol\":5753:5871  if (bidBook[current].next != 0) {... */\n    tag_277:\n        /* \"contracts/OrderBook.sol\":5908:5916  newOrder */\n      dup2\n        /* \"contracts/OrderBook.sol\":5908:5919  newOrder.id */\n      0x80\n      add\n      mload\n        /* \"contracts/OrderBook.sol\":5884:5891  bidBook */\n      0x03\n        /* \"contracts/OrderBook.sol\":5884:5900  bidBook[current] */\n      0x00\n        /* \"contracts/OrderBook.sol\":5892:5899  current */\n      dup4\n        /* \"contracts/OrderBook.sol\":5884:5900  bidBook[current] */\n      dup2\n      mstore\n      0x20\n      add\n      swap1\n      dup2\n      mstore\n      0x20\n      add\n      0x00\n      keccak256\n        /* \"contracts/OrderBook.sol\":5884:5905  bidBook[current].next */\n      0x05\n      add\n        /* \"contracts/OrderBook.sol\":5884:5919  bidBook[current].next = newOrder.id */\n      dup2\n      swap1\n      sstore\n      pop\n        /* \"contracts/OrderBook.sol\":5961:5968  current */\n      dup1\n        /* \"contracts/OrderBook.sol\":5933:5940  bidBook */\n      0x03\n        /* \"contracts/OrderBook.sol\":5933:5953  bidBook[newOrder.id] */\n      0x00\n        /* \"contracts/OrderBook.sol\":5941:5949  newOrder */\n      dup5\n        /* \"contracts/OrderBook.sol\":5941:5952  newOrder.id */\n      0x80\n      add\n      mload\n        /* \"contracts/OrderBook.sol\":5933:5953  bidBook[newOrder.id] */\n      dup2\n      mstore\n      0x20\n      add\n      swap1\n      dup2\n      mstore\n      0x20\n      add\n      0x00\n      keccak256\n        /* \"contracts/OrderBook.sol\":5933:5958  bidBook[newOrder.id].prev */\n      0x06\n      add\n        /* \"contracts/OrderBook.sol\":5933:5968  bidBook[newOrder.id].prev = current */\n      dup2\n      swap1\n      sstore\n      pop\n        /* \"contracts/OrderBook.sol\":5262:5979  if (bidBook[bidHead].value <= newOrder.value) {... */\n    tag_273:\n        /* \"contracts/OrderBook.sol\":5192:5979  if (bidHead == 0) {... */\n    tag_271:\n        /* \"contracts/OrderBook.sol\":5157:5985  {... */\n      pop\n        /* \"contracts/OrderBook.sol\":5108:5985  function sortBid(order memory newOrder) internal {... */\n      pop\n      jump\t// out\n    tag_243:\n      mload(0x40)\n      dup1\n      0xe0\n      add\n      0x40\n      mstore\n      dup1\n      and(0xffffffffffffffffffffffffffffffffffffffff, 0x00)\n      dup2\n      mstore\n      0x20\n      add\n      0x00\n      dup2\n      mstore\n      0x20\n      add\n      0x00\n      dup2\n      mstore\n      0x20\n      add\n      0x00\n      0x01\n      dup2\n      gt\n      iszero\n      tag_278\n      jumpi\n      tag_279\n      tag_121\n      jump\t// in\n    tag_279:\n    tag_278:\n      dup2\n      mstore\n      0x20\n      add\n      0x00\n      dup2\n      mstore\n      0x20\n      add\n      0x00\n      dup2\n      mstore\n      0x20\n      add\n      0x00\n      dup2\n      mstore\n      pop\n      swap1\n      jump\t// out\n        /* \"#utility.yul\":7:419   */\n    tag_281:\n        /* \"#utility.yul\":85:90   */\n      0x00\n        /* \"#utility.yul\":110:176   */\n      tag_283\n        /* \"#utility.yul\":126:175   */\n      tag_284\n        /* \"#utility.yul\":168:174   */\n      dup5\n        /* \"#utility.yul\":126:175   */\n      tag_285\n      jump\t// in\n    tag_284:\n        /* \"#utility.yul\":110:176   */\n      tag_286\n      jump\t// in\n    tag_283:\n        /* \"#utility.yul\":101:176   */\n      swap1\n      pop\n        /* \"#utility.yul\":199:205   */\n      dup3\n        /* \"#utility.yul\":192:197   */\n      dup2\n        /* \"#utility.yul\":185:206   */\n      mstore\n        /* \"#utility.yul\":237:241   */\n      0x20\n        /* \"#utility.yul\":230:235   */\n      dup2\n        /* \"#utility.yul\":226:242   */\n      add\n        /* \"#utility.yul\":275:278   */\n      dup5\n        /* \"#utility.yul\":266:272   */\n      dup5\n        /* \"#utility.yul\":261:264   */\n      dup5\n        /* \"#utility.yul\":257:273   */\n      add\n        /* \"#utility.yul\":254:279   */\n      gt\n        /* \"#utility.yul\":251:363   */\n      iszero\n      tag_287\n      jumpi\n        /* \"#utility.yul\":282:361   */\n      tag_288\n      tag_289\n      jump\t// in\n    tag_288:\n        /* \"#utility.yul\":251:363   */\n    tag_287:\n        /* \"#utility.yul\":372:413   */\n      tag_290\n        /* \"#utility.yul\":406:412   */\n      dup5\n        /* \"#utility.yul\":401:404   */\n      dup3\n        /* \"#utility.yul\":396:399   */\n      dup6\n        /* \"#utility.yul\":372:413   */\n      tag_291\n      jump\t// in\n    tag_290:\n        /* \"#utility.yul\":91:419   */\n      pop\n        /* \"#utility.yul\":7:419   */\n      swap4\n      swap3\n      pop\n      pop\n      pop\n      jump\t// out\n        /* \"#utility.yul\":439:779   */\n    tag_292:\n        /* \"#utility.yul\":495:500   */\n      0x00\n        /* \"#utility.yul\":544:547   */\n      dup3\n        /* \"#utility.yul\":537:541   */\n      0x1f\n        /* \"#utility.yul\":529:535   */\n      dup4\n        /* \"#utility.yul\":525:542   */\n      add\n        /* \"#utility.yul\":521:548   */\n      slt\n        /* \"#utility.yul\":511:633   */\n      tag_294\n      jumpi\n        /* \"#utility.yul\":552:631   */\n      tag_295\n      tag_296\n      jump\t// in\n    tag_295:\n        /* \"#utility.yul\":511:633   */\n    tag_294:\n        /* \"#utility.yul\":669:675   */\n      dup2\n        /* \"#utility.yul\":656:676   */\n      calldataload\n        /* \"#utility.yul\":694:773   */\n      tag_297\n        /* \"#utility.yul\":769:772   */\n      dup5\n        /* \"#utility.yul\":761:767   */\n      dup3\n        /* \"#utility.yul\":754:758   */\n      0x20\n        /* \"#utility.yul\":746:752   */\n      dup7\n        /* \"#utility.yul\":742:759   */\n      add\n        /* \"#utility.yul\":694:773   */\n      tag_281\n      jump\t// in\n    tag_297:\n        /* \"#utility.yul\":685:773   */\n      swap2\n      pop\n        /* \"#utility.yul\":501:779   */\n      pop\n        /* \"#utility.yul\":439:779   */\n      swap3\n      swap2\n      pop\n      pop\n      jump\t// out\n        /* \"#utility.yul\":785:924   */\n    tag_298:\n        /* \"#utility.yul\":831:836   */\n      0x00\n        /* \"#utility.yul\":869:875   */\n      dup2\n        /* \"#utility.yul\":856:876   */\n      calldataload\n        /* \"#utility.yul\":847:876   */\n      swap1\n      pop\n        /* \"#utility.yul\":885:918   */\n      tag_300\n        /* \"#utility.yul\":912:917   */\n      dup2\n        /* \"#utility.yul\":885:918   */\n      tag_301\n      jump\t// in\n    tag_300:\n        /* \"#utility.yul\":785:924   */\n      swap3\n      swap2\n      pop\n      pop\n      jump\t// out\n        /* \"#utility.yul\":930:1764   */\n    tag_37:\n        /* \"#utility.yul\":1018:1024   */\n      0x00\n        /* \"#utility.yul\":1026:1032   */\n      dup1\n        /* \"#utility.yul\":1075:1077   */\n      0x40\n        /* \"#utility.yul\":1063:1072   */\n      dup4\n        /* \"#utility.yul\":1054:1061   */\n      dup6\n        /* \"#utility.yul\":1050:1073   */\n      sub\n        /* \"#utility.yul\":1046:1078   */\n      slt\n        /* \"#utility.yul\":1043:1162   */\n      iszero\n      tag_303\n      jumpi\n        /* \"#utility.yul\":1081:1160   */\n      tag_304\n      tag_305\n      jump\t// in\n    tag_304:\n        /* \"#utility.yul\":1043:1162   */\n    tag_303:\n        /* \"#utility.yul\":1229:1230   */\n      0x00\n        /* \"#utility.yul\":1218:1227   */\n      dup4\n        /* \"#utility.yul\":1214:1231   */\n      add\n        /* \"#utility.yul\":1201:1232   */\n      calldataload\n        /* \"#utility.yul\":1259:1277   */\n      0xffffffffffffffff\n        /* \"#utility.yul\":1251:1257   */\n      dup2\n        /* \"#utility.yul\":1248:1278   */\n      gt\n        /* \"#utility.yul\":1245:1362   */\n      iszero\n      tag_306\n      jumpi\n        /* \"#utility.yul\":1281:1360   */\n      tag_307\n      tag_308\n      jump\t// in\n    tag_307:\n        /* \"#utility.yul\":1245:1362   */\n    tag_306:\n        /* \"#utility.yul\":1386:1449   */\n      tag_309\n        /* \"#utility.yul\":1441:1448   */\n      dup6\n        /* \"#utility.yul\":1432:1438   */\n      dup3\n        /* \"#utility.yul\":1421:1430   */\n      dup7\n        /* \"#utility.yul\":1417:1439   */\n      add\n        /* \"#utility.yul\":1386:1449   */\n      tag_292\n      jump\t// in\n    tag_309:\n        /* \"#utility.yul\":1376:1449   */\n      swap3\n      pop\n        /* \"#utility.yul\":1172:1459   */\n      pop\n        /* \"#utility.yul\":1526:1528   */\n      0x20\n        /* \"#utility.yul\":1515:1524   */\n      dup4\n        /* \"#utility.yul\":1511:1529   */\n      add\n        /* \"#utility.yul\":1498:1530   */\n      calldataload\n        /* \"#utility.yul\":1557:1575   */\n      0xffffffffffffffff\n        /* \"#utility.yul\":1549:1555   */\n      dup2\n        /* \"#utility.yul\":1546:1576   */\n      gt\n        /* \"#utility.yul\":1543:1660   */\n      iszero\n      tag_310\n      jumpi\n        /* \"#utility.yul\":1579:1658   */\n      tag_311\n      tag_308\n      jump\t// in\n    tag_311:\n        /* \"#utility.yul\":1543:1660   */\n    tag_310:\n        /* \"#utility.yul\":1684:1747   */\n      tag_312\n        /* \"#utility.yul\":1739:1746   */\n      dup6\n        /* \"#utility.yul\":1730:1736   */\n      dup3\n        /* \"#utility.yul\":1719:1728   */\n      dup7\n        /* \"#utility.yul\":1715:1737   */\n      add\n        /* \"#utility.yul\":1684:1747   */\n      tag_292\n      jump\t// in\n    tag_312:\n        /* \"#utility.yul\":1674:1747   */\n      swap2\n      pop\n        /* \"#utility.yul\":1469:1757   */\n      pop\n        /* \"#utility.yul\":930:1764   */\n      swap3\n      pop\n      swap3\n      swap1\n      pop\n      jump\t// out\n        /* \"#utility.yul\":1770:2099   */\n    tag_32:\n        /* \"#utility.yul\":1829:1835   */\n      0x00\n        /* \"#utility.yul\":1878:1880   */\n      0x20\n        /* \"#utility.yul\":1866:1875   */\n      dup3\n        /* \"#utility.yul\":1857:1864   */\n      dup5\n        /* \"#utility.yul\":1853:1876   */\n      sub\n        /* \"#utility.yul\":1849:1881   */\n      slt\n        /* \"#utility.yul\":1846:1965   */\n      iszero\n      tag_314\n      jumpi\n        /* \"#utility.yul\":1884:1963   */\n      tag_315\n      tag_305\n      jump\t// in\n    tag_315:\n        /* \"#utility.yul\":1846:1965   */\n    tag_314:\n        /* \"#utility.yul\":2004:2005   */\n      0x00\n        /* \"#utility.yul\":2029:2082   */\n      tag_316\n        /* \"#utility.yul\":2074:2081   */\n      dup5\n        /* \"#utility.yul\":2065:2071   */\n      dup3\n        /* \"#utility.yul\":2054:2063   */\n      dup6\n        /* \"#utility.yul\":2050:2072   */\n      add\n        /* \"#utility.yul\":2029:2082   */\n      tag_298\n      jump\t// in\n    tag_316:\n        /* \"#utility.yul\":2019:2082   */\n      swap2\n      pop\n        /* \"#utility.yul\":1975:2092   */\n      pop\n        /* \"#utility.yul\":1770:2099   */\n      swap3\n      swap2\n      pop\n      pop\n      jump\t// out\n        /* \"#utility.yul\":2105:2247   */\n    tag_317:\n        /* \"#utility.yul\":2208:2240   */\n      tag_319\n        /* \"#utility.yul\":2234:2239   */\n      dup2\n        /* \"#utility.yul\":2208:2240   */\n      tag_320\n      jump\t// in\n    tag_319:\n        /* \"#utility.yul\":2203:2206   */\n      dup3\n        /* \"#utility.yul\":2196:2241   */\n      mstore\n        /* \"#utility.yul\":2105:2247   */\n      pop\n      pop\n      jump\t// out\n        /* \"#utility.yul\":2253:2371   */\n    tag_321:\n        /* \"#utility.yul\":2340:2364   */\n      tag_323\n        /* \"#utility.yul\":2358:2363   */\n      dup2\n        /* \"#utility.yul\":2340:2364   */\n      tag_324\n      jump\t// in\n    tag_323:\n        /* \"#utility.yul\":2335:2338   */\n      dup3\n        /* \"#utility.yul\":2328:2365   */\n      mstore\n        /* \"#utility.yul\":2253:2371   */\n      pop\n      pop\n      jump\t// out\n        /* \"#utility.yul\":2377:2518   */\n    tag_325:\n        /* \"#utility.yul\":2469:2511   */\n      tag_327\n        /* \"#utility.yul\":2505:2510   */\n      dup2\n        /* \"#utility.yul\":2469:2511   */\n      tag_328\n      jump\t// in\n    tag_327:\n        /* \"#utility.yul\":2464:2467   */\n      dup3\n        /* \"#utility.yul\":2457:2512   */\n      mstore\n        /* \"#utility.yul\":2377:2518   */\n      pop\n      pop\n      jump\t// out\n        /* \"#utility.yul\":2524:2671   */\n    tag_329:\n        /* \"#utility.yul\":2619:2664   */\n      tag_331\n        /* \"#utility.yul\":2658:2663   */\n      dup2\n        /* \"#utility.yul\":2619:2664   */\n      tag_332\n      jump\t// in\n    tag_331:\n        /* \"#utility.yul\":2614:2617   */\n      dup3\n        /* \"#utility.yul\":2607:2665   */\n      mstore\n        /* \"#utility.yul\":2524:2671   */\n      pop\n      pop\n      jump\t// out\n        /* \"#utility.yul\":2677:3041   */\n    tag_333:\n        /* \"#utility.yul\":2765:2768   */\n      0x00\n        /* \"#utility.yul\":2793:2832   */\n      tag_335\n        /* \"#utility.yul\":2826:2831   */\n      dup3\n        /* \"#utility.yul\":2793:2832   */\n      tag_336\n      jump\t// in\n    tag_335:\n        /* \"#utility.yul\":2848:2919   */\n      tag_337\n        /* \"#utility.yul\":2912:2918   */\n      dup2\n        /* \"#utility.yul\":2907:2910   */\n      dup6\n        /* \"#utility.yul\":2848:2919   */\n      tag_338\n      jump\t// in\n    tag_337:\n        /* \"#utility.yul\":2841:2919   */\n      swap4\n      pop\n        /* \"#utility.yul\":2928:2980   */\n      tag_339\n        /* \"#utility.yul\":2973:2979   */\n      dup2\n        /* \"#utility.yul\":2968:2971   */\n      dup6\n        /* \"#utility.yul\":2961:2965   */\n      0x20\n        /* \"#utility.yul\":2954:2959   */\n      dup7\n        /* \"#utility.yul\":2950:2966   */\n      add\n        /* \"#utility.yul\":2928:2980   */\n      tag_340\n      jump\t// in\n    tag_339:\n        /* \"#utility.yul\":3005:3034   */\n      tag_341\n        /* \"#utility.yul\":3027:3033   */\n      dup2\n        /* \"#utility.yul\":3005:3034   */\n      tag_342\n      jump\t// in\n    tag_341:\n        /* \"#utility.yul\":3000:3003   */\n      dup5\n        /* \"#utility.yul\":2996:3035   */\n      add\n        /* \"#utility.yul\":2989:3035   */\n      swap2\n      pop\n        /* \"#utility.yul\":2769:3041   */\n      pop\n        /* \"#utility.yul\":2677:3041   */\n      swap3\n      swap2\n      pop\n      pop\n      jump\t// out\n        /* \"#utility.yul\":3047:3424   */\n    tag_343:\n        /* \"#utility.yul\":3153:3156   */\n      0x00\n        /* \"#utility.yul\":3181:3220   */\n      tag_345\n        /* \"#utility.yul\":3214:3219   */\n      dup3\n        /* \"#utility.yul\":3181:3220   */\n      tag_336\n      jump\t// in\n    tag_345:\n        /* \"#utility.yul\":3236:3325   */\n      tag_346\n        /* \"#utility.yul\":3318:3324   */\n      dup2\n        /* \"#utility.yul\":3313:3316   */\n      dup6\n        /* \"#utility.yul\":3236:3325   */\n      tag_347\n      jump\t// in\n    tag_346:\n        /* \"#utility.yul\":3229:3325   */\n      swap4\n      pop\n        /* \"#utility.yul\":3334:3386   */\n      tag_348\n        /* \"#utility.yul\":3379:3385   */\n      dup2\n        /* \"#utility.yul\":3374:3377   */\n      dup6\n        /* \"#utility.yul\":3367:3371   */\n      0x20\n        /* \"#utility.yul\":3360:3365   */\n      dup7\n        /* \"#utility.yul\":3356:3372   */\n      add\n        /* \"#utility.yul\":3334:3386   */\n      tag_340\n      jump\t// in\n    tag_348:\n        /* \"#utility.yul\":3411:3417   */\n      dup1\n        /* \"#utility.yul\":3406:3409   */\n      dup5\n        /* \"#utility.yul\":3402:3418   */\n      add\n        /* \"#utility.yul\":3395:3418   */\n      swap2\n      pop\n        /* \"#utility.yul\":3157:3424   */\n      pop\n        /* \"#utility.yul\":3047:3424   */\n      swap3\n      swap2\n      pop\n      pop\n      jump\t// out\n        /* \"#utility.yul\":3430:3796   */\n    tag_349:\n        /* \"#utility.yul\":3572:3575   */\n      0x00\n        /* \"#utility.yul\":3593:3660   */\n      tag_351\n        /* \"#utility.yul\":3657:3659   */\n      0x0e\n        /* \"#utility.yul\":3652:3655   */\n      dup4\n        /* \"#utility.yul\":3593:3660   */\n      tag_338\n      jump\t// in\n    tag_351:\n        /* \"#utility.yul\":3586:3660   */\n      swap2\n      pop\n        /* \"#utility.yul\":3669:3762   */\n      tag_352\n        /* \"#utility.yul\":3758:3761   */\n      dup3\n        /* \"#utility.yul\":3669:3762   */\n      tag_353\n      jump\t// in\n    tag_352:\n        /* \"#utility.yul\":3787:3789   */\n      0x20\n        /* \"#utility.yul\":3782:3785   */\n      dup3\n        /* \"#utility.yul\":3778:3790   */\n      add\n        /* \"#utility.yul\":3771:3790   */\n      swap1\n      pop\n        /* \"#utility.yul\":3430:3796   */\n      swap2\n      swap1\n      pop\n      jump\t// out\n        /* \"#utility.yul\":3802:4168   */\n    tag_354:\n        /* \"#utility.yul\":3944:3947   */\n      0x00\n        /* \"#utility.yul\":3965:4032   */\n      tag_356\n        /* \"#utility.yul\":4029:4031   */\n      0x0d\n        /* \"#utility.yul\":4024:4027   */\n      dup4\n        /* \"#utility.yul\":3965:4032   */\n      tag_338\n      jump\t// in\n    tag_356:\n        /* \"#utility.yul\":3958:4032   */\n      swap2\n      pop\n        /* \"#utility.yul\":4041:4134   */\n      tag_357\n        /* \"#utility.yul\":4130:4133   */\n      dup3\n        /* \"#utility.yul\":4041:4134   */\n      tag_358\n      jump\t// in\n    tag_357:\n        /* \"#utility.yul\":4159:4161   */\n      0x20\n        /* \"#utility.yul\":4154:4157   */\n      dup3\n        /* \"#utility.yul\":4150:4162   */\n      add\n        /* \"#utility.yul\":4143:4162   */\n      swap1\n      pop\n        /* \"#utility.yul\":3802:4168   */\n      swap2\n      swap1\n      pop\n      jump\t// out\n        /* \"#utility.yul\":4174:4574   */\n    tag_359:\n        /* \"#utility.yul\":4334:4337   */\n      0x00\n        /* \"#utility.yul\":4355:4439   */\n      tag_361\n        /* \"#utility.yul\":4437:4438   */\n      0x01\n        /* \"#utility.yul\":4432:4435   */\n      dup4\n        /* \"#utility.yul\":4355:4439   */\n      tag_347\n      jump\t// in\n    tag_361:\n        /* \"#utility.yul\":4348:4439   */\n      swap2\n      pop\n        /* \"#utility.yul\":4448:4541   */\n      tag_362\n        /* \"#utility.yul\":4537:4540   */\n      dup3\n        /* \"#utility.yul\":4448:4541   */\n      tag_363\n      jump\t// in\n    tag_362:\n        /* \"#utility.yul\":4566:4567   */\n      0x01\n        /* \"#utility.yul\":4561:4564   */\n      dup3\n        /* \"#utility.yul\":4557:4568   */\n      add\n        /* \"#utility.yul\":4550:4568   */\n      swap1\n      pop\n        /* \"#utility.yul\":4174:4574   */\n      swap2\n      swap1\n      pop\n      jump\t// out\n        /* \"#utility.yul\":4580:4946   */\n    tag_364:\n        /* \"#utility.yul\":4722:4725   */\n      0x00\n        /* \"#utility.yul\":4743:4810   */\n      tag_366\n        /* \"#utility.yul\":4807:4809   */\n      0x1e\n        /* \"#utility.yul\":4802:4805   */\n      dup4\n        /* \"#utility.yul\":4743:4810   */\n      tag_338\n      jump\t// in\n    tag_366:\n        /* \"#utility.yul\":4736:4810   */\n      swap2\n      pop\n        /* \"#utility.yul\":4819:4912   */\n      tag_367\n        /* \"#utility.yul\":4908:4911   */\n      dup3\n        /* \"#utility.yul\":4819:4912   */\n      tag_368\n      jump\t// in\n    tag_367:\n        /* \"#utility.yul\":4937:4939   */\n      0x20\n        /* \"#utility.yul\":4932:4935   */\n      dup3\n        /* \"#utility.yul\":4928:4940   */\n      add\n        /* \"#utility.yul\":4921:4940   */\n      swap1\n      pop\n        /* \"#utility.yul\":4580:4946   */\n      swap2\n      swap1\n      pop\n      jump\t// out\n        /* \"#utility.yul\":4952:5318   */\n    tag_369:\n        /* \"#utility.yul\":5094:5097   */\n      0x00\n        /* \"#utility.yul\":5115:5182   */\n      tag_371\n        /* \"#utility.yul\":5179:5181   */\n      0x1f\n        /* \"#utility.yul\":5174:5177   */\n      dup4\n        /* \"#utility.yul\":5115:5182   */\n      tag_338\n      jump\t// in\n    tag_371:\n        /* \"#utility.yul\":5108:5182   */\n      swap2\n      pop\n        /* \"#utility.yul\":5191:5284   */\n      tag_372\n        /* \"#utility.yul\":5280:5283   */\n      dup3\n        /* \"#utility.yul\":5191:5284   */\n      tag_373\n      jump\t// in\n    tag_372:\n        /* \"#utility.yul\":5309:5311   */\n      0x20\n        /* \"#utility.yul\":5304:5307   */\n      dup3\n        /* \"#utility.yul\":5300:5312   */\n      add\n        /* \"#utility.yul\":5293:5312   */\n      swap1\n      pop\n        /* \"#utility.yul\":4952:5318   */\n      swap2\n      swap1\n      pop\n      jump\t// out\n        /* \"#utility.yul\":5324:5690   */\n    tag_374:\n        /* \"#utility.yul\":5466:5469   */\n      0x00\n        /* \"#utility.yul\":5487:5554   */\n      tag_376\n        /* \"#utility.yul\":5551:5553   */\n      0x1e\n        /* \"#utility.yul\":5546:5549   */\n      dup4\n        /* \"#utility.yul\":5487:5554   */\n      tag_338\n      jump\t// in\n    tag_376:\n        /* \"#utility.yul\":5480:5554   */\n      swap2\n      pop\n        /* \"#utility.yul\":5563:5656   */\n      tag_377\n        /* \"#utility.yul\":5652:5655   */\n      dup3\n        /* \"#utility.yul\":5563:5656   */\n      tag_378\n      jump\t// in\n    tag_377:\n        /* \"#utility.yul\":5681:5683   */\n      0x20\n        /* \"#utility.yul\":5676:5679   */\n      dup3\n        /* \"#utility.yul\":5672:5684   */\n      add\n        /* \"#utility.yul\":5665:5684   */\n      swap1\n      pop\n        /* \"#utility.yul\":5324:5690   */\n      swap2\n      swap1\n      pop\n      jump\t// out\n        /* \"#utility.yul\":5696:5814   */\n    tag_379:\n        /* \"#utility.yul\":5783:5807   */\n      tag_381\n        /* \"#utility.yul\":5801:5806   */\n      dup2\n        /* \"#utility.yul\":5783:5807   */\n      tag_382\n      jump\t// in\n    tag_381:\n        /* \"#utility.yul\":5778:5781   */\n      dup3\n        /* \"#utility.yul\":5771:5808   */\n      mstore\n        /* \"#utility.yul\":5696:5814   */\n      pop\n      pop\n      jump\t// out\n        /* \"#utility.yul\":5820:6521   */\n    tag_147:\n        /* \"#utility.yul\":6101:6104   */\n      0x00\n        /* \"#utility.yul\":6123:6218   */\n      tag_384\n        /* \"#utility.yul\":6214:6217   */\n      dup3\n        /* \"#utility.yul\":6205:6211   */\n      dup6\n        /* \"#utility.yul\":6123:6218   */\n      tag_343\n      jump\t// in\n    tag_384:\n        /* \"#utility.yul\":6116:6218   */\n      swap2\n      pop\n        /* \"#utility.yul\":6235:6383   */\n      tag_385\n        /* \"#utility.yul\":6379:6382   */\n      dup3\n        /* \"#utility.yul\":6235:6383   */\n      tag_359\n      jump\t// in\n    tag_385:\n        /* \"#utility.yul\":6228:6383   */\n      swap2\n      pop\n        /* \"#utility.yul\":6400:6495   */\n      tag_386\n        /* \"#utility.yul\":6491:6494   */\n      dup3\n        /* \"#utility.yul\":6482:6488   */\n      dup5\n        /* \"#utility.yul\":6400:6495   */\n      tag_343\n      jump\t// in\n    tag_386:\n        /* \"#utility.yul\":6393:6495   */\n      swap2\n      pop\n        /* \"#utility.yul\":6512:6515   */\n      dup2\n        /* \"#utility.yul\":6505:6515   */\n      swap1\n      pop\n        /* \"#utility.yul\":5820:6521   */\n      swap4\n      swap3\n      pop\n      pop\n      pop\n      jump\t// out\n        /* \"#utility.yul\":6527:6781   */\n    tag_61:\n        /* \"#utility.yul\":6636:6640   */\n      0x00\n        /* \"#utility.yul\":6674:6676   */\n      0x20\n        /* \"#utility.yul\":6663:6672   */\n      dup3\n        /* \"#utility.yul\":6659:6677   */\n      add\n        /* \"#utility.yul\":6651:6677   */\n      swap1\n      pop\n        /* \"#utility.yul\":6687:6774   */\n      tag_388\n        /* \"#utility.yul\":6771:6772   */\n      0x00\n        /* \"#utility.yul\":6760:6769   */\n      dup4\n        /* \"#utility.yul\":6756:6773   */\n      add\n        /* \"#utility.yul\":6747:6753   */\n      dup5\n        /* \"#utility.yul\":6687:6774   */\n      tag_317\n      jump\t// in\n    tag_388:\n        /* \"#utility.yul\":6527:6781   */\n      swap3\n      swap2\n      pop\n      pop\n      jump\t// out\n        /* \"#utility.yul\":6787:7715   */\n    tag_251:\n        /* \"#utility.yul\":7069:7073   */\n      0x00\n        /* \"#utility.yul\":7107:7110   */\n      0xe0\n        /* \"#utility.yul\":7096:7105   */\n      dup3\n        /* \"#utility.yul\":7092:7111   */\n      add\n        /* \"#utility.yul\":7084:7111   */\n      swap1\n      pop\n        /* \"#utility.yul\":7121:7192   */\n      tag_390\n        /* \"#utility.yul\":7189:7190   */\n      0x00\n        /* \"#utility.yul\":7178:7187   */\n      dup4\n        /* \"#utility.yul\":7174:7191   */\n      add\n        /* \"#utility.yul\":7165:7171   */\n      dup11\n        /* \"#utility.yul\":7121:7192   */\n      tag_321\n      jump\t// in\n    tag_390:\n        /* \"#utility.yul\":7202:7274   */\n      tag_391\n        /* \"#utility.yul\":7270:7272   */\n      0x20\n        /* \"#utility.yul\":7259:7268   */\n      dup4\n        /* \"#utility.yul\":7255:7273   */\n      add\n        /* \"#utility.yul\":7246:7252   */\n      dup10\n        /* \"#utility.yul\":7202:7274   */\n      tag_379\n      jump\t// in\n    tag_391:\n        /* \"#utility.yul\":7284:7356   */\n      tag_392\n        /* \"#utility.yul\":7352:7354   */\n      0x40\n        /* \"#utility.yul\":7341:7350   */\n      dup4\n        /* \"#utility.yul\":7337:7355   */\n      add\n        /* \"#utility.yul\":7328:7334   */\n      dup9\n        /* \"#utility.yul\":7284:7356   */\n      tag_379\n      jump\t// in\n    tag_392:\n        /* \"#utility.yul\":7366:7443   */\n      tag_393\n        /* \"#utility.yul\":7439:7441   */\n      0x60\n        /* \"#utility.yul\":7428:7437   */\n      dup4\n        /* \"#utility.yul\":7424:7442   */\n      add\n        /* \"#utility.yul\":7415:7421   */\n      dup8\n        /* \"#utility.yul\":7366:7443   */\n      tag_325\n      jump\t// in\n    tag_393:\n        /* \"#utility.yul\":7453:7526   */\n      tag_394\n        /* \"#utility.yul\":7521:7524   */\n      0x80\n        /* \"#utility.yul\":7510:7519   */\n      dup4\n        /* \"#utility.yul\":7506:7525   */\n      add\n        /* \"#utility.yul\":7497:7503   */\n      dup7\n        /* \"#utility.yul\":7453:7526   */\n      tag_379\n      jump\t// in\n    tag_394:\n        /* \"#utility.yul\":7536:7617   */\n      tag_395\n        /* \"#utility.yul\":7612:7615   */\n      0xa0\n        /* \"#utility.yul\":7601:7610   */\n      dup4\n        /* \"#utility.yul\":7597:7616   */\n      add\n        /* \"#utility.yul\":7588:7594   */\n      dup6\n        /* \"#utility.yul\":7536:7617   */\n      tag_329\n      jump\t// in\n    tag_395:\n        /* \"#utility.yul\":7627:7708   */\n      tag_396\n        /* \"#utility.yul\":7703:7706   */\n      0xc0\n        /* \"#utility.yul\":7692:7701   */\n      dup4\n        /* \"#utility.yul\":7688:7707   */\n      add\n        /* \"#utility.yul\":7679:7685   */\n      dup5\n        /* \"#utility.yul\":7627:7708   */\n      tag_329\n      jump\t// in\n    tag_396:\n        /* \"#utility.yul\":6787:7715   */\n      swap9\n      swap8\n      pop\n      pop\n      pop\n      pop\n      pop\n      pop\n      pop\n      pop\n      jump\t// out\n        /* \"#utility.yul\":7721:7953   */\n    tag_55:\n        /* \"#utility.yul\":7819:7823   */\n      0x00\n        /* \"#utility.yul\":7857:7859   */\n      0x20\n        /* \"#utility.yul\":7846:7855   */\n      dup3\n        /* \"#utility.yul\":7842:7860   */\n      add\n        /* \"#utility.yul\":7834:7860   */\n      swap1\n      pop\n        /* \"#utility.yul\":7870:7946   */\n      tag_398\n        /* \"#utility.yul\":7943:7944   */\n      0x00\n        /* \"#utility.yul\":7932:7941   */\n      dup4\n        /* \"#utility.yul\":7928:7945   */\n      add\n        /* \"#utility.yul\":7919:7925   */\n      dup5\n        /* \"#utility.yul\":7870:7946   */\n      tag_325\n      jump\t// in\n    tag_398:\n        /* \"#utility.yul\":7721:7953   */\n      swap3\n      swap2\n      pop\n      pop\n      jump\t// out\n        /* \"#utility.yul\":7959:8272   */\n    tag_28:\n        /* \"#utility.yul\":8072:8076   */\n      0x00\n        /* \"#utility.yul\":8110:8112   */\n      0x20\n        /* \"#utility.yul\":8099:8108   */\n      dup3\n        /* \"#utility.yul\":8095:8113   */\n      add\n        /* \"#utility.yul\":8087:8113   */\n      swap1\n      pop\n        /* \"#utility.yul\":8159:8168   */\n      dup2\n        /* \"#utility.yul\":8153:8157   */\n      dup2\n        /* \"#utility.yul\":8149:8169   */\n      sub\n        /* \"#utility.yul\":8145:8146   */\n      0x00\n        /* \"#utility.yul\":8134:8143   */\n      dup4\n        /* \"#utility.yul\":8130:8147   */\n      add\n        /* \"#utility.yul\":8123:8170   */\n      mstore\n        /* \"#utility.yul\":8187:8265   */\n      tag_400\n        /* \"#utility.yul\":8260:8264   */\n      dup2\n        /* \"#utility.yul\":8251:8257   */\n      dup5\n        /* \"#utility.yul\":8187:8265   */\n      tag_333\n      jump\t// in\n    tag_400:\n        /* \"#utility.yul\":8179:8265   */\n      swap1\n      pop\n        /* \"#utility.yul\":7959:8272   */\n      swap3\n      swap2\n      pop\n      pop\n      jump\t// out\n        /* \"#utility.yul\":8278:8697   */\n    tag_139:\n        /* \"#utility.yul\":8444:8448   */\n      0x00\n        /* \"#utility.yul\":8482:8484   */\n      0x20\n        /* \"#utility.yul\":8471:8480   */\n      dup3\n        /* \"#utility.yul\":8467:8485   */\n      add\n        /* \"#utility.yul\":8459:8485   */\n      swap1\n      pop\n        /* \"#utility.yul\":8531:8540   */\n      dup2\n        /* \"#utility.yul\":8525:8529   */\n      dup2\n        /* \"#utility.yul\":8521:8541   */\n      sub\n        /* \"#utility.yul\":8517:8518   */\n      0x00\n        /* \"#utility.yul\":8506:8515   */\n      dup4\n        /* \"#utility.yul\":8502:8519   */\n      add\n        /* \"#utility.yul\":8495:8542   */\n      mstore\n        /* \"#utility.yul\":8559:8690   */\n      tag_402\n        /* \"#utility.yul\":8685:8689   */\n      dup2\n        /* \"#utility.yul\":8559:8690   */\n      tag_349\n      jump\t// in\n    tag_402:\n        /* \"#utility.yul\":8551:8690   */\n      swap1\n      pop\n        /* \"#utility.yul\":8278:8697   */\n      swap2\n      swap1\n      pop\n      jump\t// out\n        /* \"#utility.yul\":8703:9122   */\n    tag_131:\n        /* \"#utility.yul\":8869:8873   */\n      0x00\n        /* \"#utility.yul\":8907:8909   */\n      0x20\n        /* \"#utility.yul\":8896:8905   */\n      dup3\n        /* \"#utility.yul\":8892:8910   */\n      add\n        /* \"#utility.yul\":8884:8910   */\n      swap1\n      pop\n        /* \"#utility.yul\":8956:8965   */\n      dup2\n        /* \"#utility.yul\":8950:8954   */\n      dup2\n        /* \"#utility.yul\":8946:8966   */\n      sub\n        /* \"#utility.yul\":8942:8943   */\n      0x00\n        /* \"#utility.yul\":8931:8940   */\n      dup4\n        /* \"#utility.yul\":8927:8944   */\n      add\n        /* \"#utility.yul\":8920:8967   */\n      mstore\n        /* \"#utility.yul\":8984:9115   */\n      tag_404\n        /* \"#utility.yul\":9110:9114   */\n      dup2\n        /* \"#utility.yul\":8984:9115   */\n      tag_354\n      jump\t// in\n    tag_404:\n        /* \"#utility.yul\":8976:9115   */\n      swap1\n      pop\n        /* \"#utility.yul\":8703:9122   */\n      swap2\n      swap1\n      pop\n      jump\t// out\n        /* \"#utility.yul\":9128:9547   */\n    tag_201:\n        /* \"#utility.yul\":9294:9298   */\n      0x00\n        /* \"#utility.yul\":9332:9334   */\n      0x20\n        /* \"#utility.yul\":9321:9330   */\n      dup3\n        /* \"#utility.yul\":9317:9335   */\n      add\n        /* \"#utility.yul\":9309:9335   */\n      swap1\n      pop\n        /* \"#utility.yul\":9381:9390   */\n      dup2\n        /* \"#utility.yul\":9375:9379   */\n      dup2\n        /* \"#utility.yul\":9371:9391   */\n      sub\n        /* \"#utility.yul\":9367:9368   */\n      0x00\n        /* \"#utility.yul\":9356:9365   */\n      dup4\n        /* \"#utility.yul\":9352:9369   */\n      add\n        /* \"#utility.yul\":9345:9392   */\n      mstore\n        /* \"#utility.yul\":9409:9540   */\n      tag_406\n        /* \"#utility.yul\":9535:9539   */\n      dup2\n        /* \"#utility.yul\":9409:9540   */\n      tag_364\n      jump\t// in\n    tag_406:\n        /* \"#utility.yul\":9401:9540   */\n      swap1\n      pop\n        /* \"#utility.yul\":9128:9547   */\n      swap2\n      swap1\n      pop\n      jump\t// out\n        /* \"#utility.yul\":9553:9972   */\n    tag_161:\n        /* \"#utility.yul\":9719:9723   */\n      0x00\n        /* \"#utility.yul\":9757:9759   */\n      0x20\n        /* \"#utility.yul\":9746:9755   */\n      dup3\n        /* \"#utility.yul\":9742:9760   */\n      add\n        /* \"#utility.yul\":9734:9760   */\n      swap1\n      pop\n        /* \"#utility.yul\":9806:9815   */\n      dup2\n        /* \"#utility.yul\":9800:9804   */\n      dup2\n        /* \"#utility.yul\":9796:9816   */\n      sub\n        /* \"#utility.yul\":9792:9793   */\n      0x00\n        /* \"#utility.yul\":9781:9790   */\n      dup4\n        /* \"#utility.yul\":9777:9794   */\n      add\n        /* \"#utility.yul\":9770:9817   */\n      mstore\n        /* \"#utility.yul\":9834:9965   */\n      tag_408\n        /* \"#utility.yul\":9960:9964   */\n      dup2\n        /* \"#utility.yul\":9834:9965   */\n      tag_369\n      jump\t// in\n    tag_408:\n        /* \"#utility.yul\":9826:9965   */\n      swap1\n      pop\n        /* \"#utility.yul\":9553:9972   */\n      swap2\n      swap1\n      pop\n      jump\t// out\n        /* \"#utility.yul\":9978:10397   */\n    tag_164:\n        /* \"#utility.yul\":10144:10148   */\n      0x00\n        /* \"#utility.yul\":10182:10184   */\n      0x20\n        /* \"#utility.yul\":10171:10180   */\n      dup3\n        /* \"#utility.yul\":10167:10185   */\n      add\n        /* \"#utility.yul\":10159:10185   */\n      swap1\n      pop\n        /* \"#utility.yul\":10231:10240   */\n      dup2\n        /* \"#utility.yul\":10225:10229   */\n      dup2\n        /* \"#utility.yul\":10221:10241   */\n      sub\n        /* \"#utility.yul\":10217:10218   */\n      0x00\n        /* \"#utility.yul\":10206:10215   */\n      dup4\n        /* \"#utility.yul\":10202:10219   */\n      add\n        /* \"#utility.yul\":10195:10242   */\n      mstore\n        /* \"#utility.yul\":10259:10390   */\n      tag_410\n        /* \"#utility.yul\":10385:10389   */\n      dup2\n        /* \"#utility.yul\":10259:10390   */\n      tag_374\n      jump\t// in\n    tag_410:\n        /* \"#utility.yul\":10251:10390   */\n      swap1\n      pop\n        /* \"#utility.yul\":9978:10397   */\n      swap2\n      swap1\n      pop\n      jump\t// out\n        /* \"#utility.yul\":10403:10625   */\n    tag_45:\n        /* \"#utility.yul\":10496:10500   */\n      0x00\n        /* \"#utility.yul\":10534:10536   */\n      0x20\n        /* \"#utility.yul\":10523:10532   */\n      dup3\n        /* \"#utility.yul\":10519:10537   */\n      add\n        /* \"#utility.yul\":10511:10537   */\n      swap1\n      pop\n        /* \"#utility.yul\":10547:10618   */\n      tag_412\n        /* \"#utility.yul\":10615:10616   */\n      0x00\n        /* \"#utility.yul\":10604:10613   */\n      dup4\n        /* \"#utility.yul\":10600:10617   */\n      add\n        /* \"#utility.yul\":10591:10597   */\n      dup5\n        /* \"#utility.yul\":10547:10618   */\n      tag_379\n      jump\t// in\n    tag_412:\n        /* \"#utility.yul\":10403:10625   */\n      swap3\n      swap2\n      pop\n      pop\n      jump\t// out\n        /* \"#utility.yul\":10631:10760   */\n    tag_286:\n        /* \"#utility.yul\":10665:10671   */\n      0x00\n        /* \"#utility.yul\":10692:10712   */\n      tag_414\n      tag_415\n      jump\t// in\n    tag_414:\n        /* \"#utility.yul\":10682:10712   */\n      swap1\n      pop\n        /* \"#utility.yul\":10721:10754   */\n      tag_416\n        /* \"#utility.yul\":10749:10753   */\n      dup3\n        /* \"#utility.yul\":10741:10747   */\n      dup3\n        /* \"#utility.yul\":10721:10754   */\n      tag_417\n      jump\t// in\n    tag_416:\n        /* \"#utility.yul\":10631:10760   */\n      swap2\n      swap1\n      pop\n      jump\t// out\n        /* \"#utility.yul\":10766:10841   */\n    tag_415:\n        /* \"#utility.yul\":10799:10805   */\n      0x00\n        /* \"#utility.yul\":10832:10834   */\n      0x40\n        /* \"#utility.yul\":10826:10835   */\n      mload\n        /* \"#utility.yul\":10816:10835   */\n      swap1\n      pop\n        /* \"#utility.yul\":10766:10841   */\n      swap1\n      jump\t// out\n        /* \"#utility.yul\":10847:11155   */\n    tag_285:\n        /* \"#utility.yul\":10909:10913   */\n      0x00\n        /* \"#utility.yul\":10999:11017   */\n      0xffffffffffffffff\n        /* \"#utility.yul\":10991:10997   */\n      dup3\n        /* \"#utility.yul\":10988:11018   */\n      gt\n        /* \"#utility.yul\":10985:11041   */\n      iszero\n      tag_420\n      jumpi\n        /* \"#utility.yul\":11021:11039   */\n      tag_421\n      tag_223\n      jump\t// in\n    tag_421:\n        /* \"#utility.yul\":10985:11041   */\n    tag_420:\n        /* \"#utility.yul\":11059:11088   */\n      tag_422\n        /* \"#utility.yul\":11081:11087   */\n      dup3\n        /* \"#utility.yul\":11059:11088   */\n      tag_342\n      jump\t// in\n    tag_422:\n        /* \"#utility.yul\":11051:11088   */\n      swap1\n      pop\n        /* \"#utility.yul\":11143:11147   */\n      0x20\n        /* \"#utility.yul\":11137:11141   */\n      dup2\n        /* \"#utility.yul\":11133:11148   */\n      add\n        /* \"#utility.yul\":11125:11148   */\n      swap1\n      pop\n        /* \"#utility.yul\":10847:11155   */\n      swap2\n      swap1\n      pop\n      jump\t// out\n        /* \"#utility.yul\":11161:11260   */\n    tag_336:\n        /* \"#utility.yul\":11213:11219   */\n      0x00\n        /* \"#utility.yul\":11247:11252   */\n      dup2\n        /* \"#utility.yul\":11241:11253   */\n      mload\n        /* \"#utility.yul\":11231:11253   */\n      swap1\n      pop\n        /* \"#utility.yul\":11161:11260   */\n      swap2\n      swap1\n      pop\n      jump\t// out\n        /* \"#utility.yul\":11266:11435   */\n    tag_338:\n        /* \"#utility.yul\":11350:11361   */\n      0x00\n        /* \"#utility.yul\":11384:11390   */\n      dup3\n        /* \"#utility.yul\":11379:11382   */\n      dup3\n        /* \"#utility.yul\":11372:11391   */\n      mstore\n        /* \"#utility.yul\":11424:11428   */\n      0x20\n        /* \"#utility.yul\":11419:11422   */\n      dup3\n        /* \"#utility.yul\":11415:11429   */\n      add\n        /* \"#utility.yul\":11400:11429   */\n      swap1\n      pop\n        /* \"#utility.yul\":11266:11435   */\n      swap3\n      swap2\n      pop\n      pop\n      jump\t// out\n        /* \"#utility.yul\":11441:11589   */\n    tag_347:\n        /* \"#utility.yul\":11543:11554   */\n      0x00\n        /* \"#utility.yul\":11580:11583   */\n      dup2\n        /* \"#utility.yul\":11565:11583   */\n      swap1\n      pop\n        /* \"#utility.yul\":11441:11589   */\n      swap3\n      swap2\n      pop\n      pop\n      jump\t// out\n        /* \"#utility.yul\":11595:11900   */\n    tag_231:\n        /* \"#utility.yul\":11635:11638   */\n      0x00\n        /* \"#utility.yul\":11654:11674   */\n      tag_427\n        /* \"#utility.yul\":11672:11673   */\n      dup3\n        /* \"#utility.yul\":11654:11674   */\n      tag_382\n      jump\t// in\n    tag_427:\n        /* \"#utility.yul\":11649:11674   */\n      swap2\n      pop\n        /* \"#utility.yul\":11688:11708   */\n      tag_428\n        /* \"#utility.yul\":11706:11707   */\n      dup4\n        /* \"#utility.yul\":11688:11708   */\n      tag_382\n      jump\t// in\n    tag_428:\n        /* \"#utility.yul\":11683:11708   */\n      swap3\n      pop\n        /* \"#utility.yul\":11842:11843   */\n      dup3\n        /* \"#utility.yul\":11774:11840   */\n      0xffffffffffffffffffffffffffffffffffffffffffffffffffffffffffffffff\n        /* \"#utility.yul\":11770:11844   */\n      sub\n        /* \"#utility.yul\":11767:11768   */\n      dup3\n        /* \"#utility.yul\":11764:11845   */\n      gt\n        /* \"#utility.yul\":11761:11868   */\n      iszero\n      tag_429\n      jumpi\n        /* \"#utility.yul\":11848:11866   */\n      tag_430\n      tag_431\n      jump\t// in\n    tag_430:\n        /* \"#utility.yul\":11761:11868   */\n    tag_429:\n        /* \"#utility.yul\":11892:11893   */\n      dup3\n        /* \"#utility.yul\":11889:11890   */\n      dup3\n        /* \"#utility.yul\":11885:11894   */\n      add\n        /* \"#utility.yul\":11878:11894   */\n      swap1\n      pop\n        /* \"#utility.yul\":11595:11900   */\n      swap3\n      swap2\n      pop\n      pop\n      jump\t// out\n        /* \"#utility.yul\":11906:12091   */\n    tag_170:\n        /* \"#utility.yul\":11946:11947   */\n      0x00\n        /* \"#utility.yul\":11963:11983   */\n      tag_433\n        /* \"#utility.yul\":11981:11982   */\n      dup3\n        /* \"#utility.yul\":11963:11983   */\n      tag_382\n      jump\t// in\n    tag_433:\n        /* \"#utility.yul\":11958:11983   */\n      swap2\n      pop\n        /* \"#utility.yul\":11997:12017   */\n      tag_434\n        /* \"#utility.yul\":12015:12016   */\n      dup4\n        /* \"#utility.yul\":11997:12017   */\n      tag_382\n      jump\t// in\n    tag_434:\n        /* \"#utility.yul\":11992:12017   */\n      swap3\n      pop\n        /* \"#utility.yul\":12036:12037   */\n      dup3\n        /* \"#utility.yul\":12026:12061   */\n      tag_435\n      jumpi\n        /* \"#utility.yul\":12041:12059   */\n      tag_436\n      tag_437\n      jump\t// in\n    tag_436:\n        /* \"#utility.yul\":12026:12061   */\n    tag_435:\n        /* \"#utility.yul\":12083:12084   */\n      dup3\n        /* \"#utility.yul\":12080:12081   */\n      dup3\n        /* \"#utility.yul\":12076:12085   */\n      div\n        /* \"#utility.yul\":12071:12085   */\n      swap1\n      pop\n        /* \"#utility.yul\":11906:12091   */\n      swap3\n      swap2\n      pop\n      pop\n      jump\t// out\n        /* \"#utility.yul\":12097:12445   */\n    tag_168:\n        /* \"#utility.yul\":12137:12144   */\n      0x00\n        /* \"#utility.yul\":12160:12180   */\n      tag_439\n        /* \"#utility.yul\":12178:12179   */\n      dup3\n        /* \"#utility.yul\":12160:12180   */\n      tag_382\n      jump\t// in\n    tag_439:\n        /* \"#utility.yul\":12155:12180   */\n      swap2\n      pop\n        /* \"#utility.yul\":12194:12214   */\n      tag_440\n        /* \"#utility.yul\":12212:12213   */\n      dup4\n        /* \"#utility.yul\":12194:12214   */\n      tag_382\n      jump\t// in\n    tag_440:\n        /* \"#utility.yul\":12189:12214   */\n      swap3\n      pop\n        /* \"#utility.yul\":12382:12383   */\n      dup2\n        /* \"#utility.yul\":12314:12380   */\n      0xffffffffffffffffffffffffffffffffffffffffffffffffffffffffffffffff\n        /* \"#utility.yul\":12310:12384   */\n      div\n        /* \"#utility.yul\":12307:12308   */\n      dup4\n        /* \"#utility.yul\":12304:12385   */\n      gt\n        /* \"#utility.yul\":12299:12300   */\n      dup3\n        /* \"#utility.yul\":12292:12301   */\n      iszero\n        /* \"#utility.yul\":12285:12302   */\n      iszero\n        /* \"#utility.yul\":12281:12386   */\n      and\n        /* \"#utility.yul\":12278:12409   */\n      iszero\n      tag_441\n      jumpi\n        /* \"#utility.yul\":12389:12407   */\n      tag_442\n      tag_431\n      jump\t// in\n    tag_442:\n        /* \"#utility.yul\":12278:12409   */\n    tag_441:\n        /* \"#utility.yul\":12437:12438   */\n      dup3\n        /* \"#utility.yul\":12434:12435   */\n      dup3\n        /* \"#utility.yul\":12430:12439   */\n      mul\n        /* \"#utility.yul\":12419:12439   */\n      swap1\n      pop\n        /* \"#utility.yul\":12097:12445   */\n      swap3\n      swap2\n      pop\n      pop\n      jump\t// out\n        /* \"#utility.yul\":12451:12642   */\n    tag_166:\n        /* \"#utility.yul\":12491:12495   */\n      0x00\n        /* \"#utility.yul\":12511:12531   */\n      tag_444\n        /* \"#utility.yul\":12529:12530   */\n      dup3\n        /* \"#utility.yul\":12511:12531   */\n      tag_382\n      jump\t// in\n    tag_444:\n        /* \"#utility.yul\":12506:12531   */\n      swap2\n      pop\n        /* \"#utility.yul\":12545:12565   */\n      tag_445\n        /* \"#utility.yul\":12563:12564   */\n      dup4\n        /* \"#utility.yul\":12545:12565   */\n      tag_382\n      jump\t// in\n    tag_445:\n        /* \"#utility.yul\":12540:12565   */\n      swap3\n      pop\n        /* \"#utility.yul\":12584:12585   */\n      dup3\n        /* \"#utility.yul\":12581:12582   */\n      dup3\n        /* \"#utility.yul\":12578:12586   */\n      lt\n        /* \"#utility.yul\":12575:12609   */\n      iszero\n      tag_446\n      jumpi\n        /* \"#utility.yul\":12589:12607   */\n      tag_447\n      tag_431\n      jump\t// in\n    tag_447:\n        /* \"#utility.yul\":12575:12609   */\n    tag_446:\n        /* \"#utility.yul\":12634:12635   */\n      dup3\n        /* \"#utility.yul\":12631:12632   */\n      dup3\n        /* \"#utility.yul\":12627:12636   */\n      sub\n        /* \"#utility.yul\":12619:12636   */\n      swap1\n      pop\n        /* \"#utility.yul\":12451:12642   */\n      swap3\n      swap2\n      pop\n      pop\n      jump\t// out\n        /* \"#utility.yul\":12648:12744   */\n    tag_324:\n        /* \"#utility.yul\":12685:12692   */\n      0x00\n        /* \"#utility.yul\":12714:12738   */\n      tag_449\n        /* \"#utility.yul\":12732:12737   */\n      dup3\n        /* \"#utility.yul\":12714:12738   */\n      tag_450\n      jump\t// in\n    tag_449:\n        /* \"#utility.yul\":12703:12738   */\n      swap1\n      pop\n        /* \"#utility.yul\":12648:12744   */\n      swap2\n      swap1\n      pop\n      jump\t// out\n        /* \"#utility.yul\":12750:12854   */\n    tag_320:\n        /* \"#utility.yul\":12795:12802   */\n      0x00\n        /* \"#utility.yul\":12824:12848   */\n      tag_452\n        /* \"#utility.yul\":12842:12847   */\n      dup3\n        /* \"#utility.yul\":12824:12848   */\n      tag_450\n      jump\t// in\n    tag_452:\n        /* \"#utility.yul\":12813:12848   */\n      swap1\n      pop\n        /* \"#utility.yul\":12750:12854   */\n      swap2\n      swap1\n      pop\n      jump\t// out\n        /* \"#utility.yul\":12860:12985   */\n    tag_453:\n        /* \"#utility.yul\":12904:12911   */\n      0x00\n        /* \"#utility.yul\":12933:12938   */\n      dup2\n        /* \"#utility.yul\":12922:12938   */\n      swap1\n      pop\n        /* \"#utility.yul\":12939:12979   */\n      tag_455\n        /* \"#utility.yul\":12973:12978   */\n      dup3\n        /* \"#utility.yul\":12939:12979   */\n      tag_456\n      jump\t// in\n    tag_455:\n        /* \"#utility.yul\":12860:12985   */\n      swap2\n      swap1\n      pop\n      jump\t// out\n        /* \"#utility.yul\":12991:13117   */\n    tag_450:\n        /* \"#utility.yul\":13028:13035   */\n      0x00\n        /* \"#utility.yul\":13068:13110   */\n      0xffffffffffffffffffffffffffffffffffffffff\n        /* \"#utility.yul\":13061:13066   */\n      dup3\n        /* \"#utility.yul\":13057:13111   */\n      and\n        /* \"#utility.yul\":13046:13111   */\n      swap1\n      pop\n        /* \"#utility.yul\":12991:13117   */\n      swap2\n      swap1\n      pop\n      jump\t// out\n        /* \"#utility.yul\":13123:13200   */\n    tag_382:\n        /* \"#utility.yul\":13160:13167   */\n      0x00\n        /* \"#utility.yul\":13189:13194   */\n      dup2\n        /* \"#utility.yul\":13178:13194   */\n      swap1\n      pop\n        /* \"#utility.yul\":13123:13200   */\n      swap2\n      swap1\n      pop\n      jump\t// out\n        /* \"#utility.yul\":13206:13331   */\n    tag_328:\n        /* \"#utility.yul\":13261:13270   */\n      0x00\n        /* \"#utility.yul\":13294:13325   */\n      tag_460\n        /* \"#utility.yul\":13319:13324   */\n      dup3\n        /* \"#utility.yul\":13294:13325   */\n      tag_453\n      jump\t// in\n    tag_460:\n        /* \"#utility.yul\":13281:13325   */\n      swap1\n      pop\n        /* \"#utility.yul\":13206:13331   */\n      swap2\n      swap1\n      pop\n      jump\t// out\n        /* \"#utility.yul\":13337:13458   */\n    tag_332:\n        /* \"#utility.yul\":13395:13404   */\n      0x00\n        /* \"#utility.yul\":13428:13452   */\n      tag_462\n        /* \"#utility.yul\":13446:13451   */\n      dup3\n        /* \"#utility.yul\":13428:13452   */\n      tag_382\n      jump\t// in\n    tag_462:\n        /* \"#utility.yul\":13415:13452   */\n      swap1\n      pop\n        /* \"#utility.yul\":13337:13458   */\n      swap2\n      swap1\n      pop\n      jump\t// out\n        /* \"#utility.yul\":13464:13618   */\n    tag_291:\n        /* \"#utility.yul\":13548:13554   */\n      dup3\n        /* \"#utility.yul\":13543:13546   */\n      dup2\n        /* \"#utility.yul\":13538:13541   */\n      dup4\n        /* \"#utility.yul\":13525:13555   */\n      calldatacopy\n        /* \"#utility.yul\":13610:13611   */\n      0x00\n        /* \"#utility.yul\":13601:13607   */\n      dup4\n        /* \"#utility.yul\":13596:13599   */\n      dup4\n        /* \"#utility.yul\":13592:13608   */\n      add\n        /* \"#utility.yul\":13585:13612   */\n      mstore\n        /* \"#utility.yul\":13464:13618   */\n      pop\n      pop\n      pop\n      jump\t// out\n        /* \"#utility.yul\":13624:13931   */\n    tag_340:\n        /* \"#utility.yul\":13692:13693   */\n      0x00\n        /* \"#utility.yul\":13702:13815   */\n    tag_465:\n        /* \"#utility.yul\":13716:13722   */\n      dup4\n        /* \"#utility.yul\":13713:13714   */\n      dup2\n        /* \"#utility.yul\":13710:13723   */\n      lt\n        /* \"#utility.yul\":13702:13815   */\n      iszero\n      tag_467\n      jumpi\n        /* \"#utility.yul\":13801:13802   */\n      dup1\n        /* \"#utility.yul\":13796:13799   */\n      dup3\n        /* \"#utility.yul\":13792:13803   */\n      add\n        /* \"#utility.yul\":13786:13804   */\n      mload\n        /* \"#utility.yul\":13782:13783   */\n      dup2\n        /* \"#utility.yul\":13777:13780   */\n      dup5\n        /* \"#utility.yul\":13773:13784   */\n      add\n        /* \"#utility.yul\":13766:13805   */\n      mstore\n        /* \"#utility.yul\":13738:13740   */\n      0x20\n        /* \"#utility.yul\":13735:13736   */\n      dup2\n        /* \"#utility.yul\":13731:13741   */\n      add\n        /* \"#utility.yul\":13726:13741   */\n      swap1\n      pop\n        /* \"#utility.yul\":13702:13815   */\n      jump(tag_465)\n    tag_467:\n        /* \"#utility.yul\":13833:13839   */\n      dup4\n        /* \"#utility.yul\":13830:13831   */\n      dup2\n        /* \"#utility.yul\":13827:13840   */\n      gt\n        /* \"#utility.yul\":13824:13925   */\n      iszero\n      tag_468\n      jumpi\n        /* \"#utility.yul\":13913:13914   */\n      0x00\n        /* \"#utility.yul\":13904:13910   */\n      dup5\n        /* \"#utility.yul\":13899:13902   */\n      dup5\n        /* \"#utility.yul\":13895:13911   */\n      add\n        /* \"#utility.yul\":13888:13915   */\n      mstore\n        /* \"#utility.yul\":13824:13925   */\n    tag_468:\n        /* \"#utility.yul\":13673:13931   */\n      pop\n        /* \"#utility.yul\":13624:13931   */\n      pop\n      pop\n      pop\n      jump\t// out\n        /* \"#utility.yul\":13937:14218   */\n    tag_417:\n        /* \"#utility.yul\":14020:14047   */\n      tag_470\n        /* \"#utility.yul\":14042:14046   */\n      dup3\n        /* \"#utility.yul\":14020:14047   */\n      tag_342\n      jump\t// in\n    tag_470:\n        /* \"#utility.yul\":14012:14018   */\n      dup2\n        /* \"#utility.yul\":14008:14048   */\n      add\n        /* \"#utility.yul\":14150:14156   */\n      dup2\n        /* \"#utility.yul\":14138:14148   */\n      dup2\n        /* \"#utility.yul\":14135:14157   */\n      lt\n        /* \"#utility.yul\":14114:14132   */\n      0xffffffffffffffff\n        /* \"#utility.yul\":14102:14112   */\n      dup3\n        /* \"#utility.yul\":14099:14133   */\n      gt\n        /* \"#utility.yul\":14096:14158   */\n      or\n        /* \"#utility.yul\":14093:14181   */\n      iszero\n      tag_471\n      jumpi\n        /* \"#utility.yul\":14161:14179   */\n      tag_472\n      tag_223\n      jump\t// in\n    tag_472:\n        /* \"#utility.yul\":14093:14181   */\n    tag_471:\n        /* \"#utility.yul\":14201:14211   */\n      dup1\n        /* \"#utility.yul\":14197:14199   */\n      0x40\n        /* \"#utility.yul\":14190:14212   */\n      mstore\n        /* \"#utility.yul\":13980:14218   */\n      pop\n        /* \"#utility.yul\":13937:14218   */\n      pop\n      pop\n      jump\t// out\n        /* \"#utility.yul\":14224:14457   */\n    tag_219:\n        /* \"#utility.yul\":14263:14266   */\n      0x00\n        /* \"#utility.yul\":14286:14310   */\n      tag_474\n        /* \"#utility.yul\":14304:14309   */\n      dup3\n        /* \"#utility.yul\":14286:14310   */\n      tag_382\n      jump\t// in\n    tag_474:\n        /* \"#utility.yul\":14277:14310   */\n      swap2\n      pop\n        /* \"#utility.yul\":14332:14398   */\n      0xffffffffffffffffffffffffffffffffffffffffffffffffffffffffffffffff\n        /* \"#utility.yul\":14325:14330   */\n      dup3\n        /* \"#utility.yul\":14322:14399   */\n      eq\n        /* \"#utility.yul\":14319:14422   */\n      iszero\n      tag_475\n      jumpi\n        /* \"#utility.yul\":14402:14420   */\n      tag_476\n      tag_431\n      jump\t// in\n    tag_476:\n        /* \"#utility.yul\":14319:14422   */\n    tag_475:\n        /* \"#utility.yul\":14449:14450   */\n      0x01\n        /* \"#utility.yul\":14442:14447   */\n      dup3\n        /* \"#utility.yul\":14438:14451   */\n      add\n        /* \"#utility.yul\":14431:14451   */\n      swap1\n      pop\n        /* \"#utility.yul\":14224:14457   */\n      swap2\n      swap1\n      pop\n      jump\t// out\n        /* \"#utility.yul\":14463:14639   */\n    tag_229:\n        /* \"#utility.yul\":14495:14496   */\n      0x00\n        /* \"#utility.yul\":14512:14532   */\n      tag_478\n        /* \"#utility.yul\":14530:14531   */\n      dup3\n        /* \"#utility.yul\":14512:14532   */\n      tag_382\n      jump\t// in\n    tag_478:\n        /* \"#utility.yul\":14507:14532   */\n      swap2\n      pop\n        /* \"#utility.yul\":14546:14566   */\n      tag_479\n        /* \"#utility.yul\":14564:14565   */\n      dup4\n        /* \"#utility.yul\":14546:14566   */\n      tag_382\n      jump\t// in\n    tag_479:\n        /* \"#utility.yul\":14541:14566   */\n      swap3\n      pop\n        /* \"#utility.yul\":14585:14586   */\n      dup3\n        /* \"#utility.yul\":14575:14610   */\n      tag_480\n      jumpi\n        /* \"#utility.yul\":14590:14608   */\n      tag_481\n      tag_437\n      jump\t// in\n    tag_481:\n        /* \"#utility.yul\":14575:14610   */\n    tag_480:\n        /* \"#utility.yul\":14631:14632   */\n      dup3\n        /* \"#utility.yul\":14628:14629   */\n      dup3\n        /* \"#utility.yul\":14624:14633   */\n      mod\n        /* \"#utility.yul\":14619:14633   */\n      swap1\n      pop\n        /* \"#utility.yul\":14463:14639   */\n      swap3\n      swap2\n      pop\n      pop\n      jump\t// out\n        /* \"#utility.yul\":14645:14825   */\n    tag_431:\n        /* \"#utility.yul\":14693:14770   */\n      0x4e487b7100000000000000000000000000000000000000000000000000000000\n        /* \"#utility.yul\":14690:14691   */\n      0x00\n        /* \"#utility.yul\":14683:14771   */\n      mstore\n        /* \"#utility.yul\":14790:14794   */\n      0x11\n        /* \"#utility.yul\":14787:14788   */\n      0x04\n        /* \"#utility.yul\":14780:14795   */\n      mstore\n        /* \"#utility.yul\":14814:14818   */\n      0x24\n        /* \"#utility.yul\":14811:14812   */\n      0x00\n        /* \"#utility.yul\":14804:14819   */\n      revert\n        /* \"#utility.yul\":14831:15011   */\n    tag_437:\n        /* \"#utility.yul\":14879:14956   */\n      0x4e487b7100000000000000000000000000000000000000000000000000000000\n        /* \"#utility.yul\":14876:14877   */\n      0x00\n        /* \"#utility.yul\":14869:14957   */\n      mstore\n        /* \"#utility.yul\":14976:14980   */\n      0x12\n        /* \"#utility.yul\":14973:14974   */\n      0x04\n        /* \"#utility.yul\":14966:14981   */\n      mstore\n        /* \"#utility.yul\":15000:15004   */\n      0x24\n        /* \"#utility.yul\":14997:14998   */\n      0x00\n        /* \"#utility.yul\":14990:15005   */\n      revert\n        /* \"#utility.yul\":15017:15197   */\n    tag_121:\n        /* \"#utility.yul\":15065:15142   */\n      0x4e487b7100000000000000000000000000000000000000000000000000000000\n        /* \"#utility.yul\":15062:15063   */\n      0x00\n        /* \"#utility.yul\":15055:15143   */\n      mstore\n        /* \"#utility.yul\":15162:15166   */\n      0x21\n        /* \"#utility.yul\":15159:15160   */\n      0x04\n        /* \"#utility.yul\":15152:15167   */\n      mstore\n        /* \"#utility.yul\":15186:15190   */\n      0x24\n        /* \"#utility.yul\":15183:15184   */\n      0x00\n        /* \"#utility.yul\":15176:15191   */\n      revert\n        /* \"#utility.yul\":15203:15383   */\n    tag_234:\n        /* \"#utility.yul\":15251:15328   */\n      0x4e487b7100000000000000000000000000000000000000000000000000000000\n        /* \"#utility.yul\":15248:15249   */\n      0x00\n        /* \"#utility.yul\":15241:15329   */\n      mstore\n        /* \"#utility.yul\":15348:15352   */\n      0x32\n        /* \"#utility.yul\":15345:15346   */\n      0x04\n        /* \"#utility.yul\":15338:15353   */\n      mstore\n        /* \"#utility.yul\":15372:15376   */\n      0x24\n        /* \"#utility.yul\":15369:15370   */\n      0x00\n        /* \"#utility.yul\":15362:15377   */\n      revert\n        /* \"#utility.yul\":15389:15569   */\n    tag_223:\n        /* \"#utility.yul\":15437:15514   */\n      0x4e487b7100000000000000000000000000000000000000000000000000000000\n        /* \"#utility.yul\":15434:15435   */\n      0x00\n        /* \"#utility.yul\":15427:15515   */\n      mstore\n        /* \"#utility.yul\":15534:15538   */\n      0x41\n        /* \"#utility.yul\":15531:15532   */\n      0x04\n        /* \"#utility.yul\":15524:15539   */\n      mstore\n        /* \"#utility.yul\":15558:15562   */\n      0x24\n        /* \"#utility.yul\":15555:15556   */\n      0x00\n        /* \"#utility.yul\":15548:15563   */\n      revert\n        /* \"#utility.yul\":15575:15692   */\n    tag_296:\n        /* \"#utility.yul\":15684:15685   */\n      0x00\n        /* \"#utility.yul\":15681:15682   */\n      dup1\n        /* \"#utility.yul\":15674:15686   */\n      revert\n        /* \"#utility.yul\":15698:15815   */\n    tag_289:\n        /* \"#utility.yul\":15807:15808   */\n      0x00\n        /* \"#utility.yul\":15804:15805   */\n      dup1\n        /* \"#utility.yul\":15797:15809   */\n      revert\n        /* \"#utility.yul\":15821:15938   */\n    tag_308:\n        /* \"#utility.yul\":15930:15931   */\n      0x00\n        /* \"#utility.yul\":15927:15928   */\n      dup1\n        /* \"#utility.yul\":15920:15932   */\n      revert\n        /* \"#utility.yul\":15944:16061   */\n    tag_305:\n        /* \"#utility.yul\":16053:16054   */\n      0x00\n        /* \"#utility.yul\":16050:16051   */\n      dup1\n        /* \"#utility.yul\":16043:16055   */\n      revert\n        /* \"#utility.yul\":16067:16169   */\n    tag_342:\n        /* \"#utility.yul\":16108:16114   */\n      0x00\n        /* \"#utility.yul\":16159:16161   */\n      0x1f\n        /* \"#utility.yul\":16155:16162   */\n      not\n        /* \"#utility.yul\":16150:16152   */\n      0x1f\n        /* \"#utility.yul\":16143:16148   */\n      dup4\n        /* \"#utility.yul\":16139:16153   */\n      add\n        /* \"#utility.yul\":16135:16163   */\n      and\n        /* \"#utility.yul\":16125:16163   */\n      swap1\n      pop\n        /* \"#utility.yul\":16067:16169   */\n      swap2\n      swap1\n      pop\n      jump\t// out\n        /* \"#utility.yul\":16175:16339   */\n    tag_353:\n        /* \"#utility.yul\":16315:16331   */\n      0x4e6f7420417574686f7269736564000000000000000000000000000000000000\n        /* \"#utility.yul\":16311:16312   */\n      0x00\n        /* \"#utility.yul\":16303:16309   */\n      dup3\n        /* \"#utility.yul\":16299:16313   */\n      add\n        /* \"#utility.yul\":16292:16332   */\n      mstore\n        /* \"#utility.yul\":16175:16339   */\n      pop\n      jump\t// out\n        /* \"#utility.yul\":16345:16508   */\n    tag_358:\n        /* \"#utility.yul\":16485:16500   */\n      0x4f726465722050656e64696e6700000000000000000000000000000000000000\n        /* \"#utility.yul\":16481:16482   */\n      0x00\n        /* \"#utility.yul\":16473:16479   */\n      dup3\n        /* \"#utility.yul\":16469:16483   */\n      add\n        /* \"#utility.yul\":16462:16501   */\n      mstore\n        /* \"#utility.yul\":16345:16508   */\n      pop\n      jump\t// out\n        /* \"#utility.yul\":16514:16665   */\n    tag_363:\n        /* \"#utility.yul\":16654:16657   */\n      0x2000000000000000000000000000000000000000000000000000000000000000\n        /* \"#utility.yul\":16650:16651   */\n      0x00\n        /* \"#utility.yul\":16642:16648   */\n      dup3\n        /* \"#utility.yul\":16638:16652   */\n      add\n        /* \"#utility.yul\":16631:16658   */\n      mstore\n        /* \"#utility.yul\":16514:16665   */\n      pop\n      jump\t// out\n        /* \"#utility.yul\":16671:16851   */\n    tag_368:\n        /* \"#utility.yul\":16811:16843   */\n      0x4e6f7420656e6f75676820626c616e636520746f20706c616365206269640000\n        /* \"#utility.yul\":16807:16808   */\n      0x00\n        /* \"#utility.yul\":16799:16805   */\n      dup3\n        /* \"#utility.yul\":16795:16809   */\n      add\n        /* \"#utility.yul\":16788:16844   */\n      mstore\n        /* \"#utility.yul\":16671:16851   */\n      pop\n      jump\t// out\n        /* \"#utility.yul\":16857:17038   */\n    tag_373:\n        /* \"#utility.yul\":16997:17030   */\n      0x70726963652076616c7565206d757374206265206d6f7265207468616e203000\n        /* \"#utility.yul\":16993:16994   */\n      0x00\n        /* \"#utility.yul\":16985:16991   */\n      dup3\n        /* \"#utility.yul\":16981:16995   */\n      add\n        /* \"#utility.yul\":16974:17031   */\n      mstore\n        /* \"#utility.yul\":16857:17038   */\n      pop\n      jump\t// out\n        /* \"#utility.yul\":17044:17224   */\n    tag_378:\n        /* \"#utility.yul\":17184:17216   */\n      0x4e6f7420656e6f75676820626c616e636520746f20706c6163652061736b0000\n        /* \"#utility.yul\":17180:17181   */\n      0x00\n        /* \"#utility.yul\":17172:17178   */\n      dup3\n        /* \"#utility.yul\":17168:17182   */\n      add\n        /* \"#utility.yul\":17161:17217   */\n      mstore\n        /* \"#utility.yul\":17044:17224   */\n      pop\n      jump\t// out\n        /* \"#utility.yul\":17230:17342   */\n    tag_456:\n        /* \"#utility.yul\":17310:17311   */\n      0x02\n        /* \"#utility.yul\":17303:17308   */\n      dup2\n        /* \"#utility.yul\":17300:17312   */\n      lt\n        /* \"#utility.yul\":17290:17336   */\n      tag_499\n      jumpi\n        /* \"#utility.yul\":17316:17334   */\n      tag_500\n      tag_121\n      jump\t// in\n    tag_500:\n        /* \"#utility.yul\":17290:17336   */\n    tag_499:\n        /* \"#utility.yul\":17230:17342   */\n      pop\n      jump\t// out\n        /* \"#utility.yul\":17348:17470   */\n    tag_301:\n        /* \"#utility.yul\":17421:17445   */\n      tag_502\n        /* \"#utility.yul\":17439:17444   */\n      dup2\n        /* \"#utility.yul\":17421:17445   */\n      tag_382\n      jump\t// in\n    tag_502:\n        /* \"#utility.yul\":17414:17419   */\n      dup2\n        /* \"#utility.yul\":17411:17446   */\n      eq\n        /* \"#utility.yul\":17401:17464   */\n      tag_503\n      jumpi\n        /* \"#utility.yul\":17460:17461   */\n      0x00\n        /* \"#utility.yul\":17457:17458   */\n      dup1\n        /* \"#utility.yul\":17450:17462   */\n      revert\n        /* \"#utility.yul\":17401:17464   */\n    tag_503:\n        /* \"#utility.yul\":17348:17470   */\n      pop\n      jump\t// out\n\n    auxdata: 0xa264697066735822122091b7504d1e5960920bf3a0861793d3f979e8c1a4a30805d0c4c94fc47280399064736f6c63430008070033\n}\n",
				"bytecode": {
					"linkReferences": {},
					"object": "608060405233600160006101000a81548173ffffffffffffffffffffffffffffffffffffffff021916908373ffffffffffffffffffffffffffffffffffffffff1602179055503480156200005257600080fd5b5060405162002468380380620024688339818101604052810190620000789190620000bd565b8060028190555060006004819055506000600581905550600060078190555060006008819055505062000118565b600081519050620000b781620000fe565b92915050565b600060208284031215620000d657620000d5620000f9565b5b6000620000e684828501620000a6565b91505092915050565b6000819050919050565b600080fd5b6200010981620000ef565b81146200011557600080fd5b50565b61234080620001286000396000f3fe6080604052600436106101145760003560e01c8063734a2e78116100a0578063a394fda711610064578063a394fda7146103bd578063b40a5627146103e8578063bf77ffae14610413578063d05c28cb14610450578063db3a13961461048d57610114565b8063734a2e78146102f457806378c5b26814610331578063801d9bbd1461034d5780639703ef35146103785780639979ef45146103a157610114565b806344e791e0116100e757806344e791e0146101e75780634d46712d1461021257806369f632e21461024f5780636e5b0f001461028c578063733672f4146102b757610114565b80630f38f2b1146101195780631628e0f514610144578063266001d31461016d5780632db6dfa7146101aa575b600080fd5b34801561012557600080fd5b5061012e6104ca565b60405161013b9190611cf8565b60405180910390f35b34801561015057600080fd5b5061016b60048036038101906101669190611a70565b610536565b005b34801561017957600080fd5b50610194600480360381019061018f91906119f8565b61084e565b6040516101a19190611cf8565b60405180910390f35b3480156101b657600080fd5b506101d160048036038101906101cc9190611a70565b61087a565b6040516101de9190611dba565b60405180910390f35b3480156101f357600080fd5b506101fc61089a565b6040516102099190611cf8565b60405180910390f35b34801561021e57600080fd5b5061023960048036038101906102349190611a70565b610906565b6040516102469190611cdd565b60405180910390f35b34801561025b57600080fd5b5061027660048036038101906102719190611a70565b610933565b6040516102839190611c53565b60405180910390f35b34801561029857600080fd5b506102a1610973565b6040516102ae9190611dba565b60405180910390f35b3480156102c357600080fd5b506102de60048036038101906102d99190611a70565b610979565b6040516102eb9190611dba565b60405180910390f35b34801561030057600080fd5b5061031b60048036038101906103169190611a70565b610999565b6040516103289190611c53565b60405180910390f35b61034b60048036038101906103469190611a70565b6109d9565b005b34801561035957600080fd5b50610362610b16565b60405161036f9190611dba565b60405180910390f35b34801561038457600080fd5b5061039f600480360381019061039a9190611a70565b610b1c565b005b6103bb60048036038101906103b69190611a70565b610dc2565b005b3480156103c957600080fd5b506103d2610eff565b6040516103df9190611dba565b60405180910390f35b3480156103f457600080fd5b506103fd610f05565b60405161040a9190611dba565b60405180910390f35b34801561041f57600080fd5b5061043a60048036038101906104359190611a70565b610f0b565b6040516104479190611cdd565b60405180910390f35b34801561045c57600080fd5b5061047760048036038101906104729190611a70565b610f38565b6040516104849190611dba565b60405180910390f35b34801561049957600080fd5b506104b460048036038101906104af9190611a70565b610f58565b6040516104c19190611dba565b60405180910390f35b60606000600454905060006040518060200160405280600081525090505b6000821461052e57600060036000848152602001908152602001600020600501549050600061051684610f78565b9050610522838261084e565b925081935050506104e8565b809250505090565b600660008281526020019081526020016000206040518060e00160405290816000820160009054906101000a900473ffffffffffffffffffffffffffffffffffffffff1673ffffffffffffffffffffffffffffffffffffffff1673ffffffffffffffffffffffffffffffffffffffff16815260200160018201548152602001600282015481526020016003820160009054906101000a900460ff1660018111156105e3576105e2612137565b5b60018111156105f5576105f4612137565b5b815260200160048201548152602001600582015481526020016006820154815250506000600181111561062b5761062a612137565b5b8160600151600181111561064257610641612137565b5b14610682576040517f08c379a000000000000000000000000000000000000000000000000000000000815260040161067990611d3a565b60405180910390fd5b600660008381526020019081526020016000206040518060e00160405290816000820160009054906101000a900473ffffffffffffffffffffffffffffffffffffffff1673ffffffffffffffffffffffffffffffffffffffff1673ffffffffffffffffffffffffffffffffffffffff16815260200160018201548152602001600282015481526020016003820160009054906101000a900460ff16600181111561072f5761072e612137565b5b600181111561074157610740612137565b5b81526020016004820154815260200160058201548152602001600682015481525050338073ffffffffffffffffffffffffffffffffffffffff16826000015173ffffffffffffffffffffffffffffffffffffffff16146107d6576040517f08c379a00000000000000000000000000000000000000000000000000000000081526004016107cd90611d1a565b60405180910390fd5b6000600660008681526020019081526020016000206001015490506107fa856110d9565b60003390508073ffffffffffffffffffffffffffffffffffffffff166108fc839081150290604051600060405180830381858888f19350505050158015610845573d6000803e3d6000fd5b50505050505050565b60608282604051602001610863929190611c24565b604051602081830303815290604052905092915050565b600060036000838152602001908152602001600020600101549050919050565b60606000600754905060006040518060200160405280600081525090505b600082146108fe5760006006600084815260200190815260200160002060050154905060006108e684610f78565b90506108f2838261084e565b925081935050506108b8565b809250505090565b60006006600083815260200190815260200160002060030160009054906101000a900460ff169050919050565b60006003600083815260200190815260200160002060000160009054906101000a900473ffffffffffffffffffffffffffffffffffffffff169050919050565b60045481565b600060066000838152602001908152602001600020600501549050919050565b60006006600083815260200190815260200160002060000160009054906101000a900473ffffffffffffffffffffffffffffffffffffffff169050919050565b6000811015610a1d576040517f08c379a0000000000000000000000000000000000000000000000000000000008152600401610a1490611d7a565b60405180910390fd5b80341015610a60576040517f08c379a0000000000000000000000000000000000000000000000000000000008152600401610a5790611d9a565b60405180910390fd5b6000429050600060646002546064610a789190611f33565b34610a839190611ed9565b610a8d9190611ea8565b90506000610a9c3383856111ec565b9050610aa781611384565b600160009054906101000a900473ffffffffffffffffffffffffffffffffffffffff1673ffffffffffffffffffffffffffffffffffffffff166108fc839081150290604051600060405180830381858888f19350505050158015610b0f573d6000803e3d6000fd5b5050505050565b60075481565b600360008281526020019081526020016000206040518060e00160405290816000820160009054906101000a900473ffffffffffffffffffffffffffffffffffffffff1673ffffffffffffffffffffffffffffffffffffffff1673ffffffffffffffffffffffffffffffffffffffff16815260200160018201548152602001600282015481526020016003820160009054906101000a900460ff166001811115610bc957610bc8612137565b5b6001811115610bdb57610bda612137565b5b8152602001600482015481526020016005820154815260200160068201548152505060006001811115610c1157610c10612137565b5b81606001516001811115610c2857610c27612137565b5b14610c68576040517f08c379a0000000000000000000000000000000000000000000000000000000008152600401610c5f90611d3a565b60405180910390fd5b600360008381526020019081526020016000206040518060e00160405290816000820160009054906101000a900473ffffffffffffffffffffffffffffffffffffffff1673ffffffffffffffffffffffffffffffffffffffff1673ffffffffffffffffffffffffffffffffffffffff16815260200160018201548152602001600282015481526020016003820160009054906101000a900460ff166001811115610d1557610d14612137565b5b6001811115610d2757610d26612137565b5b81526020016004820154815260200160058201548152602001600682015481525050338073ffffffffffffffffffffffffffffffffffffffff16826000015173ffffffffffffffffffffffffffffffffffffffff1614610dbc576040517f08c379a0000000000000000000000000000000000000000000000000000000008152600401610db390611d1a565b60405180910390fd5b50505050565b6000811015610e06576040517f08c379a0000000000000000000000000000000000000000000000000000000008152600401610dfd90611d7a565b60405180910390fd5b80341015610e49576040517f08c379a0000000000000000000000000000000000000000000000000000000008152600401610e4090611d5a565b60405180910390fd5b6000429050600060646002546064610e619190611f33565b34610e6c9190611ed9565b610e769190611ea8565b90506000610e8533838561157d565b9050610e9081611715565b600160009054906101000a900473ffffffffffffffffffffffffffffffffffffffff1673ffffffffffffffffffffffffffffffffffffffff166108fc839081150290604051600060405180830381858888f19350505050158015610ef8573d6000803e3d6000fd5b5050505050565b60085481565b60055481565b60006003600083815260200190815260200160002060030160009054906101000a900460ff169050919050565b600060066000838152602001908152602001600020600601549050919050565b600060066000838152602001908152602001600020600101549050919050565b60606000821415610fc0576040518060400160405280600181526020017f300000000000000000000000000000000000000000000000000000000000000081525090506110d4565b600082905060005b60008214610ff2578080610fdb9061205f565b915050600a82610feb9190611ea8565b9150610fc8565b60008167ffffffffffffffff81111561100e5761100d612195565b5b6040519080825280601f01601f1916602001820160405280156110405781602001600182028036833780820191505090505b5090505b600085146110cd576001826110599190611f33565b9150600a8561106891906120a8565b60306110749190611e52565b60f81b81838151811061108a57611089612166565b5b60200101907effffffffffffffffffffffffffffffffffffffffffffffffffffffffffffff1916908160001a905350600a856110c69190611ea8565b9450611044565b8093505050505b919050565b600060075414806110ea5750600081145b156110f4576111e9565b80600754141561111c5760066000828152602001908152602001600020600501546007819055505b60006006600083815260200190815260200160002060050154146111825760066000828152602001908152602001600020600601546006600060066000858152602001908152602001600020600501548152602001908152602001600020600601819055505b60006006600083815260200190815260200160002060060154146111e85760066000828152602001908152602001600020600501546006600060066000858152602001908152602001600020600601548152602001908152602001600020600501819055505b5b50565b6111f461190e565b600860008154809291906112079061205f565b919050555060006040518060e001604052808673ffffffffffffffffffffffffffffffffffffffff1681526020018581526020018481526020016000600181111561125557611254612137565b5b8152602001600854815260200160008152602001600081525090508060066000600854815260200190815260200160002060008201518160000160006101000a81548173ffffffffffffffffffffffffffffffffffffffff021916908373ffffffffffffffffffffffffffffffffffffffff160217905550602082015181600101556040820151816002015560608201518160030160006101000a81548160ff0219169083600181111561130c5761130b612137565b5b02179055506080820151816004015560a0820151816005015560c082015181600601559050507fb363d8961e2dcc4e4f9cafac06e22ffe5a3ee9b47f614e483f989b932167e86585858560006008546000806040516113719796959493929190611c6e565b60405180910390a1809150509392505050565b60008060075414156113a0578160800151600781905550611579565b8160200151600660006007548152602001908152602001600020600101541061142d576007546006600084608001518152602001908152602001600020600501819055508160800151600660006006600086608001518152602001908152602001600020600501548152602001908152602001600020600601819055508160800151600781905550611578565b60075490505b600060066000838152602001908152602001600020600501541415801561148957508160200151600660006006600085815260200190815260200160002060050154815260200190815260200160002060010154105b156114ac5760066000828152602001908152602001600020600501549050611433565b60066000828152602001908152602001600020600501546006600084608001518152602001908152602001600020600501819055506000600660008381526020019081526020016000206005015414611539578160800151600660006006600086608001518152602001908152602001600020600501548152602001908152602001600020600601819055505b81608001516006600083815260200190815260200160002060050181905550806006600084608001518152602001908152602001600020600601819055505b5b5050565b61158561190e565b600560008154809291906115989061205f565b919050555060006040518060e001604052808673ffffffffffffffffffffffffffffffffffffffff168152602001858152602001848152602001600060018111156115e6576115e5612137565b5b8152602001600554815260200160008152602001600081525090508060036000600554815260200190815260200160002060008201518160000160006101000a81548173ffffffffffffffffffffffffffffffffffffffff021916908373ffffffffffffffffffffffffffffffffffffffff160217905550602082015181600101556040820151816002015560608201518160030160006101000a81548160ff0219169083600181111561169d5761169c612137565b5b02179055506080820151816004015560a0820151816005015560c082015181600601559050507fb363d8961e2dcc4e4f9cafac06e22ffe5a3ee9b47f614e483f989b932167e86585858560006005546000806040516117029796959493929190611c6e565b60405180910390a1809150509392505050565b600080600454141561173157816080015160048190555061190a565b816020015160036000600454815260200190815260200160002060010154116117be576004546003600084608001518152602001908152602001600020600501819055508160800151600360006003600086608001518152602001908152602001600020600501548152602001908152602001600020600601819055508160800151600481905550611909565b60045490505b600060036000838152602001908152602001600020600501541415801561181a57508160200151600360006003600085815260200190815260200160002060050154815260200190815260200160002060010154115b1561183d57600360008281526020019081526020016000206005015490506117c4565b600360008281526020019081526020016000206005015460036000846080015181526020019081526020016000206005018190555060006003600083815260200190815260200160002060050154146118ca578160800151600360006003600086608001518152602001908152602001600020600501548152602001908152602001600020600601819055505b81608001516003600083815260200190815260200160002060050181905550806003600084608001518152602001908152602001600020600601819055505b5b5050565b6040518060e00160405280600073ffffffffffffffffffffffffffffffffffffffff16815260200160008152602001600081526020016000600181111561195857611957612137565b5b81526020016000815260200160008152602001600081525090565b600061198661198184611dfa565b611dd5565b9050828152602081018484840111156119a2576119a16121c9565b5b6119ad848285611fec565b509392505050565b600082601f8301126119ca576119c96121c4565b5b81356119da848260208601611973565b91505092915050565b6000813590506119f2816122f3565b92915050565b60008060408385031215611a0f57611a0e6121d3565b5b600083013567ffffffffffffffff811115611a2d57611a2c6121ce565b5b611a39858286016119b5565b925050602083013567ffffffffffffffff811115611a5a57611a596121ce565b5b611a66858286016119b5565b9150509250929050565b600060208284031215611a8657611a856121d3565b5b6000611a94848285016119e3565b91505092915050565b611aa681611f79565b82525050565b611ab581611f67565b82525050565b611ac481611fc8565b82525050565b611ad381611fda565b82525050565b6000611ae482611e2b565b611aee8185611e36565b9350611afe818560208601611ffb565b611b07816121d8565b840191505092915050565b6000611b1d82611e2b565b611b278185611e47565b9350611b37818560208601611ffb565b80840191505092915050565b6000611b50600e83611e36565b9150611b5b826121e9565b602082019050919050565b6000611b73600d83611e36565b9150611b7e82612212565b602082019050919050565b6000611b96600183611e47565b9150611ba18261223b565b600182019050919050565b6000611bb9601e83611e36565b9150611bc482612264565b602082019050919050565b6000611bdc601f83611e36565b9150611be78261228d565b602082019050919050565b6000611bff601e83611e36565b9150611c0a826122b6565b602082019050919050565b611c1e81611fbe565b82525050565b6000611c308285611b12565b9150611c3b82611b89565b9150611c478284611b12565b91508190509392505050565b6000602082019050611c686000830184611a9d565b92915050565b600060e082019050611c83600083018a611aac565b611c906020830189611c15565b611c9d6040830188611c15565b611caa6060830187611abb565b611cb76080830186611c15565b611cc460a0830185611aca565b611cd160c0830184611aca565b98975050505050505050565b6000602082019050611cf26000830184611abb565b92915050565b60006020820190508181036000830152611d128184611ad9565b905092915050565b60006020820190508181036000830152611d3381611b43565b9050919050565b60006020820190508181036000830152611d5381611b66565b9050919050565b60006020820190508181036000830152611d7381611bac565b9050919050565b60006020820190508181036000830152611d9381611bcf565b9050919050565b60006020820190508181036000830152611db381611bf2565b9050919050565b6000602082019050611dcf6000830184611c15565b92915050565b6000611ddf611df0565b9050611deb828261202e565b919050565b6000604051905090565b600067ffffffffffffffff821115611e1557611e14612195565b5b611e1e826121d8565b9050602081019050919050565b600081519050919050565b600082825260208201905092915050565b600081905092915050565b6000611e5d82611fbe565b9150611e6883611fbe565b9250827fffffffffffffffffffffffffffffffffffffffffffffffffffffffffffffffff03821115611e9d57611e9c6120d9565b5b828201905092915050565b6000611eb382611fbe565b9150611ebe83611fbe565b925082611ece57611ecd612108565b5b828204905092915050565b6000611ee482611fbe565b9150611eef83611fbe565b9250817fffffffffffffffffffffffffffffffffffffffffffffffffffffffffffffffff0483118215151615611f2857611f276120d9565b5b828202905092915050565b6000611f3e82611fbe565b9150611f4983611fbe565b925082821015611f5c57611f5b6120d9565b5b828203905092915050565b6000611f7282611f9e565b9050919050565b6000611f8482611f9e565b9050919050565b6000819050611f99826122df565b919050565b600073ffffffffffffffffffffffffffffffffffffffff82169050919050565b6000819050919050565b6000611fd382611f8b565b9050919050565b6000611fe582611fbe565b9050919050565b82818337600083830152505050565b60005b83811015612019578082015181840152602081019050611ffe565b83811115612028576000848401525b50505050565b612037826121d8565b810181811067ffffffffffffffff8211171561205657612055612195565b5b80604052505050565b600061206a82611fbe565b91507fffffffffffffffffffffffffffffffffffffffffffffffffffffffffffffffff82141561209d5761209c6120d9565b5b600182019050919050565b60006120b382611fbe565b91506120be83611fbe565b9250826120ce576120cd612108565b5b828206905092915050565b7f4e487b7100000000000000000000000000000000000000000000000000000000600052601160045260246000fd5b7f4e487b7100000000000000000000000000000000000000000000000000000000600052601260045260246000fd5b7f4e487b7100000000000000000000000000000000000000000000000000000000600052602160045260246000fd5b7f4e487b7100000000000000000000000000000000000000000000000000000000600052603260045260246000fd5b7f4e487b7100000000000000000000000000000000000000000000000000000000600052604160045260246000fd5b600080fd5b600080fd5b600080fd5b600080fd5b6000601f19601f8301169050919050565b7f4e6f7420417574686f7269736564000000000000000000000000000000000000600082015250565b7f4f726465722050656e64696e6700000000000000000000000000000000000000600082015250565b7f2000000000000000000000000000000000000000000000000000000000000000600082015250565b7f4e6f7420656e6f75676820626c616e636520746f20706c616365206269640000600082015250565b7f70726963652076616c7565206d757374206265206d6f7265207468616e203000600082015250565b7f4e6f7420656e6f75676820626c616e636520746f20706c6163652061736b0000600082015250565b600281106122f0576122ef612137565b5b50565b6122fc81611fbe565b811461230757600080fd5b5056fea264697066735822122091b7504d1e5960920bf3a0861793d3f979e8c1a4a30805d0c4c94fc47280399064736f6c63430008070033",
					"opcodes": "PUSH1 0x80 PUSH1 0x40 MSTORE CALLER PUSH1 0x1 PUSH1 0x0 PUSH2 0x100 EXP DUP2 SLOAD DUP2 PUSH20 0xFFFFFFFFFFFFFFFFFFFFFFFFFFFFFFFFFFFFFFFF MUL NOT AND SWAP1 DUP4 PUSH20 0xFFFFFFFFFFFFFFFFFFFFFFFFFFFFFFFFFFFFFFFF AND MUL OR SWAP1 SSTORE POP CALLVALUE DUP1 ISZERO PUSH3 0x52 JUMPI PUSH1 0x0 DUP1 REVERT JUMPDEST POP PUSH1 0x40 MLOAD PUSH3 0x2468 CODESIZE SUB DUP1 PUSH3 0x2468 DUP4 CODECOPY DUP2 DUP2 ADD PUSH1 0x40 MSTORE DUP2 ADD SWAP1 PUSH3 0x78 SWAP2 SWAP1 PUSH3 0xBD JUMP JUMPDEST DUP1 PUSH1 0x2 DUP2 SWAP1 SSTORE POP PUSH1 0x0 PUSH1 0x4 DUP2 SWAP1 SSTORE POP PUSH1 0x0 PUSH1 0x5 DUP2 SWAP1 SSTORE POP PUSH1 0x0 PUSH1 0x7 DUP2 SWAP1 SSTORE POP PUSH1 0x0 PUSH1 0x8 DUP2 SWAP1 SSTORE POP POP PUSH3 0x118 JUMP JUMPDEST PUSH1 0x0 DUP2 MLOAD SWAP1 POP PUSH3 0xB7 DUP2 PUSH3 0xFE JUMP JUMPDEST SWAP3 SWAP2 POP POP JUMP JUMPDEST PUSH1 0x0 PUSH1 0x20 DUP3 DUP5 SUB SLT ISZERO PUSH3 0xD6 JUMPI PUSH3 0xD5 PUSH3 0xF9 JUMP JUMPDEST JUMPDEST PUSH1 0x0 PUSH3 0xE6 DUP5 DUP3 DUP6 ADD PUSH3 0xA6 JUMP JUMPDEST SWAP2 POP POP SWAP3 SWAP2 POP POP JUMP JUMPDEST PUSH1 0x0 DUP2 SWAP1 POP SWAP2 SWAP1 POP JUMP JUMPDEST PUSH1 0x0 DUP1 REVERT JUMPDEST PUSH3 0x109 DUP2 PUSH3 0xEF JUMP JUMPDEST DUP2 EQ PUSH3 0x115 JUMPI PUSH1 0x0 DUP1 REVERT JUMPDEST POP JUMP JUMPDEST PUSH2 0x2340 DUP1 PUSH3 0x128 PUSH1 0x0 CODECOPY PUSH1 0x0 RETURN INVALID PUSH1 0x80 PUSH1 0x40 MSTORE PUSH1 0x4 CALLDATASIZE LT PUSH2 0x114 JUMPI PUSH1 0x0 CALLDATALOAD PUSH1 0xE0 SHR DUP1 PUSH4 0x734A2E78 GT PUSH2 0xA0 JUMPI DUP1 PUSH4 0xA394FDA7 GT PUSH2 0x64 JUMPI DUP1 PUSH4 0xA394FDA7 EQ PUSH2 0x3BD JUMPI DUP1 PUSH4 0xB40A5627 EQ PUSH2 0x3E8 JUMPI DUP1 PUSH4 0xBF77FFAE EQ PUSH2 0x413 JUMPI DUP1 PUSH4 0xD05C28CB EQ PUSH2 0x450 JUMPI DUP1 PUSH4 0xDB3A1396 EQ PUSH2 0x48D JUMPI PUSH2 0x114 JUMP JUMPDEST DUP1 PUSH4 0x734A2E78 EQ PUSH2 0x2F4 JUMPI DUP1 PUSH4 0x78C5B268 EQ PUSH2 0x331 JUMPI DUP1 PUSH4 0x801D9BBD EQ PUSH2 0x34D JUMPI DUP1 PUSH4 0x9703EF35 EQ PUSH2 0x378 JUMPI DUP1 PUSH4 0x9979EF45 EQ PUSH2 0x3A1 JUMPI PUSH2 0x114 JUMP JUMPDEST DUP1 PUSH4 0x44E791E0 GT PUSH2 0xE7 JUMPI DUP1 PUSH4 0x44E791E0 EQ PUSH2 0x1E7 JUMPI DUP1 PUSH4 0x4D46712D EQ PUSH2 0x212 JUMPI DUP1 PUSH4 0x69F632E2 EQ PUSH2 0x24F JUMPI DUP1 PUSH4 0x6E5B0F00 EQ PUSH2 0x28C JUMPI DUP1 PUSH4 0x733672F4 EQ PUSH2 0x2B7 JUMPI PUSH2 0x114 JUMP JUMPDEST DUP1 PUSH4 0xF38F2B1 EQ PUSH2 0x119 JUMPI DUP1 PUSH4 0x1628E0F5 EQ PUSH2 0x144 JUMPI DUP1 PUSH4 0x266001D3 EQ PUSH2 0x16D JUMPI DUP1 PUSH4 0x2DB6DFA7 EQ PUSH2 0x1AA JUMPI JUMPDEST PUSH1 0x0 DUP1 REVERT JUMPDEST CALLVALUE DUP1 ISZERO PUSH2 0x125 JUMPI PUSH1 0x0 DUP1 REVERT JUMPDEST POP PUSH2 0x12E PUSH2 0x4CA JUMP JUMPDEST PUSH1 0x40 MLOAD PUSH2 0x13B SWAP2 SWAP1 PUSH2 0x1CF8 JUMP JUMPDEST PUSH1 0x40 MLOAD DUP1 SWAP2 SUB SWAP1 RETURN JUMPDEST CALLVALUE DUP1 ISZERO PUSH2 0x150 JUMPI PUSH1 0x0 DUP1 REVERT JUMPDEST POP PUSH2 0x16B PUSH1 0x4 DUP1 CALLDATASIZE SUB DUP2 ADD SWAP1 PUSH2 0x166 SWAP2 SWAP1 PUSH2 0x1A70 JUMP JUMPDEST PUSH2 0x536 JUMP JUMPDEST STOP JUMPDEST CALLVALUE DUP1 ISZERO PUSH2 0x179 JUMPI PUSH1 0x0 DUP1 REVERT JUMPDEST POP PUSH2 0x194 PUSH1 0x4 DUP1 CALLDATASIZE SUB DUP2 ADD SWAP1 PUSH2 0x18F SWAP2 SWAP1 PUSH2 0x19F8 JUMP JUMPDEST PUSH2 0x84E JUMP JUMPDEST PUSH1 0x40 MLOAD PUSH2 0x1A1 SWAP2 SWAP1 PUSH2 0x1CF8 JUMP JUMPDEST PUSH1 0x40 MLOAD DUP1 SWAP2 SUB SWAP1 RETURN JUMPDEST CALLVALUE DUP1 ISZERO PUSH2 0x1B6 JUMPI PUSH1 0x0 DUP1 REVERT JUMPDEST POP PUSH2 0x1D1 PUSH1 0x4 DUP1 CALLDATASIZE SUB DUP2 ADD SWAP1 PUSH2 0x1CC SWAP2 SWAP1 PUSH2 0x1A70 JUMP JUMPDEST PUSH2 0x87A JUMP JUMPDEST PUSH1 0x40 MLOAD PUSH2 0x1DE SWAP2 SWAP1 PUSH2 0x1DBA JUMP JUMPDEST PUSH1 0x40 MLOAD DUP1 SWAP2 SUB SWAP1 RETURN JUMPDEST CALLVALUE DUP1 ISZERO PUSH2 0x1F3 JUMPI PUSH1 0x0 DUP1 REVERT JUMPDEST POP PUSH2 0x1FC PUSH2 0x89A JUMP JUMPDEST PUSH1 0x40 MLOAD PUSH2 0x209 SWAP2 SWAP1 PUSH2 0x1CF8 JUMP JUMPDEST PUSH1 0x40 MLOAD DUP1 SWAP2 SUB SWAP1 RETURN JUMPDEST CALLVALUE DUP1 ISZERO PUSH2 0x21E JUMPI PUSH1 0x0 DUP1 REVERT JUMPDEST POP PUSH2 0x239 PUSH1 0x4 DUP1 CALLDATASIZE SUB DUP2 ADD SWAP1 PUSH2 0x234 SWAP2 SWAP1 PUSH2 0x1A70 JUMP JUMPDEST PUSH2 0x906 JUMP JUMPDEST PUSH1 0x40 MLOAD PUSH2 0x246 SWAP2 SWAP1 PUSH2 0x1CDD JUMP JUMPDEST PUSH1 0x40 MLOAD DUP1 SWAP2 SUB SWAP1 RETURN JUMPDEST CALLVALUE DUP1 ISZERO PUSH2 0x25B JUMPI PUSH1 0x0 DUP1 REVERT JUMPDEST POP PUSH2 0x276 PUSH1 0x4 DUP1 CALLDATASIZE SUB DUP2 ADD SWAP1 PUSH2 0x271 SWAP2 SWAP1 PUSH2 0x1A70 JUMP JUMPDEST PUSH2 0x933 JUMP JUMPDEST PUSH1 0x40 MLOAD PUSH2 0x283 SWAP2 SWAP1 PUSH2 0x1C53 JUMP JUMPDEST PUSH1 0x40 MLOAD DUP1 SWAP2 SUB SWAP1 RETURN JUMPDEST CALLVALUE DUP1 ISZERO PUSH2 0x298 JUMPI PUSH1 0x0 DUP1 REVERT JUMPDEST POP PUSH2 0x2A1 PUSH2 0x973 JUMP JUMPDEST PUSH1 0x40 MLOAD PUSH2 0x2AE SWAP2 SWAP1 PUSH2 0x1DBA JUMP JUMPDEST PUSH1 0x40 MLOAD DUP1 SWAP2 SUB SWAP1 RETURN JUMPDEST CALLVALUE DUP1 ISZERO PUSH2 0x2C3 JUMPI PUSH1 0x0 DUP1 REVERT JUMPDEST POP PUSH2 0x2DE PUSH1 0x4 DUP1 CALLDATASIZE SUB DUP2 ADD SWAP1 PUSH2 0x2D9 SWAP2 SWAP1 PUSH2 0x1A70 JUMP JUMPDEST PUSH2 0x979 JUMP JUMPDEST PUSH1 0x40 MLOAD PUSH2 0x2EB SWAP2 SWAP1 PUSH2 0x1DBA JUMP JUMPDEST PUSH1 0x40 MLOAD DUP1 SWAP2 SUB SWAP1 RETURN JUMPDEST CALLVALUE DUP1 ISZERO PUSH2 0x300 JUMPI PUSH1 0x0 DUP1 REVERT JUMPDEST POP PUSH2 0x31B PUSH1 0x4 DUP1 CALLDATASIZE SUB DUP2 ADD SWAP1 PUSH2 0x316 SWAP2 SWAP1 PUSH2 0x1A70 JUMP JUMPDEST PUSH2 0x999 JUMP JUMPDEST PUSH1 0x40 MLOAD PUSH2 0x328 SWAP2 SWAP1 PUSH2 0x1C53 JUMP JUMPDEST PUSH1 0x40 MLOAD DUP1 SWAP2 SUB SWAP1 RETURN JUMPDEST PUSH2 0x34B PUSH1 0x4 DUP1 CALLDATASIZE SUB DUP2 ADD SWAP1 PUSH2 0x346 SWAP2 SWAP1 PUSH2 0x1A70 JUMP JUMPDEST PUSH2 0x9D9 JUMP JUMPDEST STOP JUMPDEST CALLVALUE DUP1 ISZERO PUSH2 0x359 JUMPI PUSH1 0x0 DUP1 REVERT JUMPDEST POP PUSH2 0x362 PUSH2 0xB16 JUMP JUMPDEST PUSH1 0x40 MLOAD PUSH2 0x36F SWAP2 SWAP1 PUSH2 0x1DBA JUMP JUMPDEST PUSH1 0x40 MLOAD DUP1 SWAP2 SUB SWAP1 RETURN JUMPDEST CALLVALUE DUP1 ISZERO PUSH2 0x384 JUMPI PUSH1 0x0 DUP1 REVERT JUMPDEST POP PUSH2 0x39F PUSH1 0x4 DUP1 CALLDATASIZE SUB DUP2 ADD SWAP1 PUSH2 0x39A SWAP2 SWAP1 PUSH2 0x1A70 JUMP JUMPDEST PUSH2 0xB1C JUMP JUMPDEST STOP JUMPDEST PUSH2 0x3BB PUSH1 0x4 DUP1 CALLDATASIZE SUB DUP2 ADD SWAP1 PUSH2 0x3B6 SWAP2 SWAP1 PUSH2 0x1A70 JUMP JUMPDEST PUSH2 0xDC2 JUMP JUMPDEST STOP JUMPDEST CALLVALUE DUP1 ISZERO PUSH2 0x3C9 JUMPI PUSH1 0x0 DUP1 REVERT JUMPDEST POP PUSH2 0x3D2 PUSH2 0xEFF JUMP JUMPDEST PUSH1 0x40 MLOAD PUSH2 0x3DF SWAP2 SWAP1 PUSH2 0x1DBA JUMP JUMPDEST PUSH1 0x40 MLOAD DUP1 SWAP2 SUB SWAP1 RETURN JUMPDEST CALLVALUE DUP1 ISZERO PUSH2 0x3F4 JUMPI PUSH1 0x0 DUP1 REVERT JUMPDEST POP PUSH2 0x3FD PUSH2 0xF05 JUMP JUMPDEST PUSH1 0x40 MLOAD PUSH2 0x40A SWAP2 SWAP1 PUSH2 0x1DBA JUMP JUMPDEST PUSH1 0x40 MLOAD DUP1 SWAP2 SUB SWAP1 RETURN JUMPDEST CALLVALUE DUP1 ISZERO PUSH2 0x41F JUMPI PUSH1 0x0 DUP1 REVERT JUMPDEST POP PUSH2 0x43A PUSH1 0x4 DUP1 CALLDATASIZE SUB DUP2 ADD SWAP1 PUSH2 0x435 SWAP2 SWAP1 PUSH2 0x1A70 JUMP JUMPDEST PUSH2 0xF0B JUMP JUMPDEST PUSH1 0x40 MLOAD PUSH2 0x447 SWAP2 SWAP1 PUSH2 0x1CDD JUMP JUMPDEST PUSH1 0x40 MLOAD DUP1 SWAP2 SUB SWAP1 RETURN JUMPDEST CALLVALUE DUP1 ISZERO PUSH2 0x45C JUMPI PUSH1 0x0 DUP1 REVERT JUMPDEST POP PUSH2 0x477 PUSH1 0x4 DUP1 CALLDATASIZE SUB DUP2 ADD SWAP1 PUSH2 0x472 SWAP2 SWAP1 PUSH2 0x1A70 JUMP JUMPDEST PUSH2 0xF38 JUMP JUMPDEST PUSH1 0x40 MLOAD PUSH2 0x484 SWAP2 SWAP1 PUSH2 0x1DBA JUMP JUMPDEST PUSH1 0x40 MLOAD DUP1 SWAP2 SUB SWAP1 RETURN JUMPDEST CALLVALUE DUP1 ISZERO PUSH2 0x499 JUMPI PUSH1 0x0 DUP1 REVERT JUMPDEST POP PUSH2 0x4B4 PUSH1 0x4 DUP1 CALLDATASIZE SUB DUP2 ADD SWAP1 PUSH2 0x4AF SWAP2 SWAP1 PUSH2 0x1A70 JUMP JUMPDEST PUSH2 0xF58 JUMP JUMPDEST PUSH1 0x40 MLOAD PUSH2 0x4C1 SWAP2 SWAP1 PUSH2 0x1DBA JUMP JUMPDEST PUSH1 0x40 MLOAD DUP1 SWAP2 SUB SWAP1 RETURN JUMPDEST PUSH1 0x60 PUSH1 0x0 PUSH1 0x4 SLOAD SWAP1 POP PUSH1 0x0 PUSH1 0x40 MLOAD DUP1 PUSH1 0x20 ADD PUSH1 0x40 MSTORE DUP1 PUSH1 0x0 DUP2 MSTORE POP SWAP1 POP JUMPDEST PUSH1 0x0 DUP3 EQ PUSH2 0x52E JUMPI PUSH1 0x0 PUSH1 0x3 PUSH1 0x0 DUP5 DUP2 MSTORE PUSH1 0x20 ADD SWAP1 DUP2 MSTORE PUSH1 0x20 ADD PUSH1 0x0 KECCAK256 PUSH1 0x5 ADD SLOAD SWAP1 POP PUSH1 0x0 PUSH2 0x516 DUP5 PUSH2 0xF78 JUMP JUMPDEST SWAP1 POP PUSH2 0x522 DUP4 DUP3 PUSH2 0x84E JUMP JUMPDEST SWAP3 POP DUP2 SWAP4 POP POP POP PUSH2 0x4E8 JUMP JUMPDEST DUP1 SWAP3 POP POP POP SWAP1 JUMP JUMPDEST PUSH1 0x6 PUSH1 0x0 DUP3 DUP2 MSTORE PUSH1 0x20 ADD SWAP1 DUP2 MSTORE PUSH1 0x20 ADD PUSH1 0x0 KECCAK256 PUSH1 0x40 MLOAD DUP1 PUSH1 0xE0 ADD PUSH1 0x40 MSTORE SWAP1 DUP2 PUSH1 0x0 DUP3 ADD PUSH1 0x0 SWAP1 SLOAD SWAP1 PUSH2 0x100 EXP SWAP1 DIV PUSH20 0xFFFFFFFFFFFFFFFFFFFFFFFFFFFFFFFFFFFFFFFF AND PUSH20 0xFFFFFFFFFFFFFFFFFFFFFFFFFFFFFFFFFFFFFFFF AND PUSH20 0xFFFFFFFFFFFFFFFFFFFFFFFFFFFFFFFFFFFFFFFF AND DUP2 MSTORE PUSH1 0x20 ADD PUSH1 0x1 DUP3 ADD SLOAD DUP2 MSTORE PUSH1 0x20 ADD PUSH1 0x2 DUP3 ADD SLOAD DUP2 MSTORE PUSH1 0x20 ADD PUSH1 0x3 DUP3 ADD PUSH1 0x0 SWAP1 SLOAD SWAP1 PUSH2 0x100 EXP SWAP1 DIV PUSH1 0xFF AND PUSH1 0x1 DUP2 GT ISZERO PUSH2 0x5E3 JUMPI PUSH2 0x5E2 PUSH2 0x2137 JUMP JUMPDEST JUMPDEST PUSH1 0x1 DUP2 GT ISZERO PUSH2 0x5F5 JUMPI PUSH2 0x5F4 PUSH2 0x2137 JUMP JUMPDEST JUMPDEST DUP2 MSTORE PUSH1 0x20 ADD PUSH1 0x4 DUP3 ADD SLOAD DUP2 MSTORE PUSH1 0x20 ADD PUSH1 0x5 DUP3 ADD SLOAD DUP2 MSTORE PUSH1 0x20 ADD PUSH1 0x6 DUP3 ADD SLOAD DUP2 MSTORE POP POP PUSH1 0x0 PUSH1 0x1 DUP2 GT ISZERO PUSH2 0x62B JUMPI PUSH2 0x62A PUSH2 0x2137 JUMP JUMPDEST JUMPDEST DUP2 PUSH1 0x60 ADD MLOAD PUSH1 0x1 DUP2 GT ISZERO PUSH2 0x642 JUMPI PUSH2 0x641 PUSH2 0x2137 JUMP JUMPDEST JUMPDEST EQ PUSH2 0x682 JUMPI PUSH1 0x40 MLOAD PUSH32 0x8C379A000000000000000000000000000000000000000000000000000000000 DUP2 MSTORE PUSH1 0x4 ADD PUSH2 0x679 SWAP1 PUSH2 0x1D3A JUMP JUMPDEST PUSH1 0x40 MLOAD DUP1 SWAP2 SUB SWAP1 REVERT JUMPDEST PUSH1 0x6 PUSH1 0x0 DUP4 DUP2 MSTORE PUSH1 0x20 ADD SWAP1 DUP2 MSTORE PUSH1 0x20 ADD PUSH1 0x0 KECCAK256 PUSH1 0x40 MLOAD DUP1 PUSH1 0xE0 ADD PUSH1 0x40 MSTORE SWAP1 DUP2 PUSH1 0x0 DUP3 ADD PUSH1 0x0 SWAP1 SLOAD SWAP1 PUSH2 0x100 EXP SWAP1 DIV PUSH20 0xFFFFFFFFFFFFFFFFFFFFFFFFFFFFFFFFFFFFFFFF AND PUSH20 0xFFFFFFFFFFFFFFFFFFFFFFFFFFFFFFFFFFFFFFFF AND PUSH20 0xFFFFFFFFFFFFFFFFFFFFFFFFFFFFFFFFFFFFFFFF AND DUP2 MSTORE PUSH1 0x20 ADD PUSH1 0x1 DUP3 ADD SLOAD DUP2 MSTORE PUSH1 0x20 ADD PUSH1 0x2 DUP3 ADD SLOAD DUP2 MSTORE PUSH1 0x20 ADD PUSH1 0x3 DUP3 ADD PUSH1 0x0 SWAP1 SLOAD SWAP1 PUSH2 0x100 EXP SWAP1 DIV PUSH1 0xFF AND PUSH1 0x1 DUP2 GT ISZERO PUSH2 0x72F JUMPI PUSH2 0x72E PUSH2 0x2137 JUMP JUMPDEST JUMPDEST PUSH1 0x1 DUP2 GT ISZERO PUSH2 0x741 JUMPI PUSH2 0x740 PUSH2 0x2137 JUMP JUMPDEST JUMPDEST DUP2 MSTORE PUSH1 0x20 ADD PUSH1 0x4 DUP3 ADD SLOAD DUP2 MSTORE PUSH1 0x20 ADD PUSH1 0x5 DUP3 ADD SLOAD DUP2 MSTORE PUSH1 0x20 ADD PUSH1 0x6 DUP3 ADD SLOAD DUP2 MSTORE POP POP CALLER DUP1 PUSH20 0xFFFFFFFFFFFFFFFFFFFFFFFFFFFFFFFFFFFFFFFF AND DUP3 PUSH1 0x0 ADD MLOAD PUSH20 0xFFFFFFFFFFFFFFFFFFFFFFFFFFFFFFFFFFFFFFFF AND EQ PUSH2 0x7D6 JUMPI PUSH1 0x40 MLOAD PUSH32 0x8C379A000000000000000000000000000000000000000000000000000000000 DUP2 MSTORE PUSH1 0x4 ADD PUSH2 0x7CD SWAP1 PUSH2 0x1D1A JUMP JUMPDEST PUSH1 0x40 MLOAD DUP1 SWAP2 SUB SWAP1 REVERT JUMPDEST PUSH1 0x0 PUSH1 0x6 PUSH1 0x0 DUP7 DUP2 MSTORE PUSH1 0x20 ADD SWAP1 DUP2 MSTORE PUSH1 0x20 ADD PUSH1 0x0 KECCAK256 PUSH1 0x1 ADD SLOAD SWAP1 POP PUSH2 0x7FA DUP6 PUSH2 0x10D9 JUMP JUMPDEST PUSH1 0x0 CALLER SWAP1 POP DUP1 PUSH20 0xFFFFFFFFFFFFFFFFFFFFFFFFFFFFFFFFFFFFFFFF AND PUSH2 0x8FC DUP4 SWAP1 DUP2 ISZERO MUL SWAP1 PUSH1 0x40 MLOAD PUSH1 0x0 PUSH1 0x40 MLOAD DUP1 DUP4 SUB DUP2 DUP6 DUP9 DUP9 CALL SWAP4 POP POP POP POP ISZERO DUP1 ISZERO PUSH2 0x845 JUMPI RETURNDATASIZE PUSH1 0x0 DUP1 RETURNDATACOPY RETURNDATASIZE PUSH1 0x0 REVERT JUMPDEST POP POP POP POP POP POP POP JUMP JUMPDEST PUSH1 0x60 DUP3 DUP3 PUSH1 0x40 MLOAD PUSH1 0x20 ADD PUSH2 0x863 SWAP3 SWAP2 SWAP1 PUSH2 0x1C24 JUMP JUMPDEST PUSH1 0x40 MLOAD PUSH1 0x20 DUP2 DUP4 SUB SUB DUP2 MSTORE SWAP1 PUSH1 0x40 MSTORE SWAP1 POP SWAP3 SWAP2 POP POP JUMP JUMPDEST PUSH1 0x0 PUSH1 0x3 PUSH1 0x0 DUP4 DUP2 MSTORE PUSH1 0x20 ADD SWAP1 DUP2 MSTORE PUSH1 0x20 ADD PUSH1 0x0 KECCAK256 PUSH1 0x1 ADD SLOAD SWAP1 POP SWAP2 SWAP1 POP JUMP JUMPDEST PUSH1 0x60 PUSH1 0x0 PUSH1 0x7 SLOAD SWAP1 POP PUSH1 0x0 PUSH1 0x40 MLOAD DUP1 PUSH1 0x20 ADD PUSH1 0x40 MSTORE DUP1 PUSH1 0x0 DUP2 MSTORE POP SWAP1 POP JUMPDEST PUSH1 0x0 DUP3 EQ PUSH2 0x8FE JUMPI PUSH1 0x0 PUSH1 0x6 PUSH1 0x0 DUP5 DUP2 MSTORE PUSH1 0x20 ADD SWAP1 DUP2 MSTORE PUSH1 0x20 ADD PUSH1 0x0 KECCAK256 PUSH1 0x5 ADD SLOAD SWAP1 POP PUSH1 0x0 PUSH2 0x8E6 DUP5 PUSH2 0xF78 JUMP JUMPDEST SWAP1 POP PUSH2 0x8F2 DUP4 DUP3 PUSH2 0x84E JUMP JUMPDEST SWAP3 POP DUP2 SWAP4 POP POP POP PUSH2 0x8B8 JUMP JUMPDEST DUP1 SWAP3 POP POP POP SWAP1 JUMP JUMPDEST PUSH1 0x0 PUSH1 0x6 PUSH1 0x0 DUP4 DUP2 MSTORE PUSH1 0x20 ADD SWAP1 DUP2 MSTORE PUSH1 0x20 ADD PUSH1 0x0 KECCAK256 PUSH1 0x3 ADD PUSH1 0x0 SWAP1 SLOAD SWAP1 PUSH2 0x100 EXP SWAP1 DIV PUSH1 0xFF AND SWAP1 POP SWAP2 SWAP1 POP JUMP JUMPDEST PUSH1 0x0 PUSH1 0x3 PUSH1 0x0 DUP4 DUP2 MSTORE PUSH1 0x20 ADD SWAP1 DUP2 MSTORE PUSH1 0x20 ADD PUSH1 0x0 KECCAK256 PUSH1 0x0 ADD PUSH1 0x0 SWAP1 SLOAD SWAP1 PUSH2 0x100 EXP SWAP1 DIV PUSH20 0xFFFFFFFFFFFFFFFFFFFFFFFFFFFFFFFFFFFFFFFF AND SWAP1 POP SWAP2 SWAP1 POP JUMP JUMPDEST PUSH1 0x4 SLOAD DUP2 JUMP JUMPDEST PUSH1 0x0 PUSH1 0x6 PUSH1 0x0 DUP4 DUP2 MSTORE PUSH1 0x20 ADD SWAP1 DUP2 MSTORE PUSH1 0x20 ADD PUSH1 0x0 KECCAK256 PUSH1 0x5 ADD SLOAD SWAP1 POP SWAP2 SWAP1 POP JUMP JUMPDEST PUSH1 0x0 PUSH1 0x6 PUSH1 0x0 DUP4 DUP2 MSTORE PUSH1 0x20 ADD SWAP1 DUP2 MSTORE PUSH1 0x20 ADD PUSH1 0x0 KECCAK256 PUSH1 0x0 ADD PUSH1 0x0 SWAP1 SLOAD SWAP1 PUSH2 0x100 EXP SWAP1 DIV PUSH20 0xFFFFFFFFFFFFFFFFFFFFFFFFFFFFFFFFFFFFFFFF AND SWAP1 POP SWAP2 SWAP1 POP JUMP JUMPDEST PUSH1 0x0 DUP2 LT ISZERO PUSH2 0xA1D JUMPI PUSH1 0x40 MLOAD PUSH32 0x8C379A000000000000000000000000000000000000000000000000000000000 DUP2 MSTORE PUSH1 0x4 ADD PUSH2 0xA14 SWAP1 PUSH2 0x1D7A JUMP JUMPDEST PUSH1 0x40 MLOAD DUP1 SWAP2 SUB SWAP1 REVERT JUMPDEST DUP1 CALLVALUE LT ISZERO PUSH2 0xA60 JUMPI PUSH1 0x40 MLOAD PUSH32 0x8C379A000000000000000000000000000000000000000000000000000000000 DUP2 MSTORE PUSH1 0x4 ADD PUSH2 0xA57 SWAP1 PUSH2 0x1D9A JUMP JUMPDEST PUSH1 0x40 MLOAD DUP1 SWAP2 SUB SWAP1 REVERT JUMPDEST PUSH1 0x0 TIMESTAMP SWAP1 POP PUSH1 0x0 PUSH1 0x64 PUSH1 0x2 SLOAD PUSH1 0x64 PUSH2 0xA78 SWAP2 SWAP1 PUSH2 0x1F33 JUMP JUMPDEST CALLVALUE PUSH2 0xA83 SWAP2 SWAP1 PUSH2 0x1ED9 JUMP JUMPDEST PUSH2 0xA8D SWAP2 SWAP1 PUSH2 0x1EA8 JUMP JUMPDEST SWAP1 POP PUSH1 0x0 PUSH2 0xA9C CALLER DUP4 DUP6 PUSH2 0x11EC JUMP JUMPDEST SWAP1 POP PUSH2 0xAA7 DUP2 PUSH2 0x1384 JUMP JUMPDEST PUSH1 0x1 PUSH1 0x0 SWAP1 SLOAD SWAP1 PUSH2 0x100 EXP SWAP1 DIV PUSH20 0xFFFFFFFFFFFFFFFFFFFFFFFFFFFFFFFFFFFFFFFF AND PUSH20 0xFFFFFFFFFFFFFFFFFFFFFFFFFFFFFFFFFFFFFFFF AND PUSH2 0x8FC DUP4 SWAP1 DUP2 ISZERO MUL SWAP1 PUSH1 0x40 MLOAD PUSH1 0x0 PUSH1 0x40 MLOAD DUP1 DUP4 SUB DUP2 DUP6 DUP9 DUP9 CALL SWAP4 POP POP POP POP ISZERO DUP1 ISZERO PUSH2 0xB0F JUMPI RETURNDATASIZE PUSH1 0x0 DUP1 RETURNDATACOPY RETURNDATASIZE PUSH1 0x0 REVERT JUMPDEST POP POP POP POP POP JUMP JUMPDEST PUSH1 0x7 SLOAD DUP2 JUMP JUMPDEST PUSH1 0x3 PUSH1 0x0 DUP3 DUP2 MSTORE PUSH1 0x20 ADD SWAP1 DUP2 MSTORE PUSH1 0x20 ADD PUSH1 0x0 KECCAK256 PUSH1 0x40 MLOAD DUP1 PUSH1 0xE0 ADD PUSH1 0x40 MSTORE SWAP1 DUP2 PUSH1 0x0 DUP3 ADD PUSH1 0x0 SWAP1 SLOAD SWAP1 PUSH2 0x100 EXP SWAP1 DIV PUSH20 0xFFFFFFFFFFFFFFFFFFFFFFFFFFFFFFFFFFFFFFFF AND PUSH20 0xFFFFFFFFFFFFFFFFFFFFFFFFFFFFFFFFFFFFFFFF AND PUSH20 0xFFFFFFFFFFFFFFFFFFFFFFFFFFFFFFFFFFFFFFFF AND DUP2 MSTORE PUSH1 0x20 ADD PUSH1 0x1 DUP3 ADD SLOAD DUP2 MSTORE PUSH1 0x20 ADD PUSH1 0x2 DUP3 ADD SLOAD DUP2 MSTORE PUSH1 0x20 ADD PUSH1 0x3 DUP3 ADD PUSH1 0x0 SWAP1 SLOAD SWAP1 PUSH2 0x100 EXP SWAP1 DIV PUSH1 0xFF AND PUSH1 0x1 DUP2 GT ISZERO PUSH2 0xBC9 JUMPI PUSH2 0xBC8 PUSH2 0x2137 JUMP JUMPDEST JUMPDEST PUSH1 0x1 DUP2 GT ISZERO PUSH2 0xBDB JUMPI PUSH2 0xBDA PUSH2 0x2137 JUMP JUMPDEST JUMPDEST DUP2 MSTORE PUSH1 0x20 ADD PUSH1 0x4 DUP3 ADD SLOAD DUP2 MSTORE PUSH1 0x20 ADD PUSH1 0x5 DUP3 ADD SLOAD DUP2 MSTORE PUSH1 0x20 ADD PUSH1 0x6 DUP3 ADD SLOAD DUP2 MSTORE POP POP PUSH1 0x0 PUSH1 0x1 DUP2 GT ISZERO PUSH2 0xC11 JUMPI PUSH2 0xC10 PUSH2 0x2137 JUMP JUMPDEST JUMPDEST DUP2 PUSH1 0x60 ADD MLOAD PUSH1 0x1 DUP2 GT ISZERO PUSH2 0xC28 JUMPI PUSH2 0xC27 PUSH2 0x2137 JUMP JUMPDEST JUMPDEST EQ PUSH2 0xC68 JUMPI PUSH1 0x40 MLOAD PUSH32 0x8C379A000000000000000000000000000000000000000000000000000000000 DUP2 MSTORE PUSH1 0x4 ADD PUSH2 0xC5F SWAP1 PUSH2 0x1D3A JUMP JUMPDEST PUSH1 0x40 MLOAD DUP1 SWAP2 SUB SWAP1 REVERT JUMPDEST PUSH1 0x3 PUSH1 0x0 DUP4 DUP2 MSTORE PUSH1 0x20 ADD SWAP1 DUP2 MSTORE PUSH1 0x20 ADD PUSH1 0x0 KECCAK256 PUSH1 0x40 MLOAD DUP1 PUSH1 0xE0 ADD PUSH1 0x40 MSTORE SWAP1 DUP2 PUSH1 0x0 DUP3 ADD PUSH1 0x0 SWAP1 SLOAD SWAP1 PUSH2 0x100 EXP SWAP1 DIV PUSH20 0xFFFFFFFFFFFFFFFFFFFFFFFFFFFFFFFFFFFFFFFF AND PUSH20 0xFFFFFFFFFFFFFFFFFFFFFFFFFFFFFFFFFFFFFFFF AND PUSH20 0xFFFFFFFFFFFFFFFFFFFFFFFFFFFFFFFFFFFFFFFF AND DUP2 MSTORE PUSH1 0x20 ADD PUSH1 0x1 DUP3 ADD SLOAD DUP2 MSTORE PUSH1 0x20 ADD PUSH1 0x2 DUP3 ADD SLOAD DUP2 MSTORE PUSH1 0x20 ADD PUSH1 0x3 DUP3 ADD PUSH1 0x0 SWAP1 SLOAD SWAP1 PUSH2 0x100 EXP SWAP1 DIV PUSH1 0xFF AND PUSH1 0x1 DUP2 GT ISZERO PUSH2 0xD15 JUMPI PUSH2 0xD14 PUSH2 0x2137 JUMP JUMPDEST JUMPDEST PUSH1 0x1 DUP2 GT ISZERO PUSH2 0xD27 JUMPI PUSH2 0xD26 PUSH2 0x2137 JUMP JUMPDEST JUMPDEST DUP2 MSTORE PUSH1 0x20 ADD PUSH1 0x4 DUP3 ADD SLOAD DUP2 MSTORE PUSH1 0x20 ADD PUSH1 0x5 DUP3 ADD SLOAD DUP2 MSTORE PUSH1 0x20 ADD PUSH1 0x6 DUP3 ADD SLOAD DUP2 MSTORE POP POP CALLER DUP1 PUSH20 0xFFFFFFFFFFFFFFFFFFFFFFFFFFFFFFFFFFFFFFFF AND DUP3 PUSH1 0x0 ADD MLOAD PUSH20 0xFFFFFFFFFFFFFFFFFFFFFFFFFFFFFFFFFFFFFFFF AND EQ PUSH2 0xDBC JUMPI PUSH1 0x40 MLOAD PUSH32 0x8C379A000000000000000000000000000000000000000000000000000000000 DUP2 MSTORE PUSH1 0x4 ADD PUSH2 0xDB3 SWAP1 PUSH2 0x1D1A JUMP JUMPDEST PUSH1 0x40 MLOAD DUP1 SWAP2 SUB SWAP1 REVERT JUMPDEST POP POP POP POP JUMP JUMPDEST PUSH1 0x0 DUP2 LT ISZERO PUSH2 0xE06 JUMPI PUSH1 0x40 MLOAD PUSH32 0x8C379A000000000000000000000000000000000000000000000000000000000 DUP2 MSTORE PUSH1 0x4 ADD PUSH2 0xDFD SWAP1 PUSH2 0x1D7A JUMP JUMPDEST PUSH1 0x40 MLOAD DUP1 SWAP2 SUB SWAP1 REVERT JUMPDEST DUP1 CALLVALUE LT ISZERO PUSH2 0xE49 JUMPI PUSH1 0x40 MLOAD PUSH32 0x8C379A000000000000000000000000000000000000000000000000000000000 DUP2 MSTORE PUSH1 0x4 ADD PUSH2 0xE40 SWAP1 PUSH2 0x1D5A JUMP JUMPDEST PUSH1 0x40 MLOAD DUP1 SWAP2 SUB SWAP1 REVERT JUMPDEST PUSH1 0x0 TIMESTAMP SWAP1 POP PUSH1 0x0 PUSH1 0x64 PUSH1 0x2 SLOAD PUSH1 0x64 PUSH2 0xE61 SWAP2 SWAP1 PUSH2 0x1F33 JUMP JUMPDEST CALLVALUE PUSH2 0xE6C SWAP2 SWAP1 PUSH2 0x1ED9 JUMP JUMPDEST PUSH2 0xE76 SWAP2 SWAP1 PUSH2 0x1EA8 JUMP JUMPDEST SWAP1 POP PUSH1 0x0 PUSH2 0xE85 CALLER DUP4 DUP6 PUSH2 0x157D JUMP JUMPDEST SWAP1 POP PUSH2 0xE90 DUP2 PUSH2 0x1715 JUMP JUMPDEST PUSH1 0x1 PUSH1 0x0 SWAP1 SLOAD SWAP1 PUSH2 0x100 EXP SWAP1 DIV PUSH20 0xFFFFFFFFFFFFFFFFFFFFFFFFFFFFFFFFFFFFFFFF AND PUSH20 0xFFFFFFFFFFFFFFFFFFFFFFFFFFFFFFFFFFFFFFFF AND PUSH2 0x8FC DUP4 SWAP1 DUP2 ISZERO MUL SWAP1 PUSH1 0x40 MLOAD PUSH1 0x0 PUSH1 0x40 MLOAD DUP1 DUP4 SUB DUP2 DUP6 DUP9 DUP9 CALL SWAP4 POP POP POP POP ISZERO DUP1 ISZERO PUSH2 0xEF8 JUMPI RETURNDATASIZE PUSH1 0x0 DUP1 RETURNDATACOPY RETURNDATASIZE PUSH1 0x0 REVERT JUMPDEST POP POP POP POP POP JUMP JUMPDEST PUSH1 0x8 SLOAD DUP2 JUMP JUMPDEST PUSH1 0x5 SLOAD DUP2 JUMP JUMPDEST PUSH1 0x0 PUSH1 0x3 PUSH1 0x0 DUP4 DUP2 MSTORE PUSH1 0x20 ADD SWAP1 DUP2 MSTORE PUSH1 0x20 ADD PUSH1 0x0 KECCAK256 PUSH1 0x3 ADD PUSH1 0x0 SWAP1 SLOAD SWAP1 PUSH2 0x100 EXP SWAP1 DIV PUSH1 0xFF AND SWAP1 POP SWAP2 SWAP1 POP JUMP JUMPDEST PUSH1 0x0 PUSH1 0x6 PUSH1 0x0 DUP4 DUP2 MSTORE PUSH1 0x20 ADD SWAP1 DUP2 MSTORE PUSH1 0x20 ADD PUSH1 0x0 KECCAK256 PUSH1 0x6 ADD SLOAD SWAP1 POP SWAP2 SWAP1 POP JUMP JUMPDEST PUSH1 0x0 PUSH1 0x6 PUSH1 0x0 DUP4 DUP2 MSTORE PUSH1 0x20 ADD SWAP1 DUP2 MSTORE PUSH1 0x20 ADD PUSH1 0x0 KECCAK256 PUSH1 0x1 ADD SLOAD SWAP1 POP SWAP2 SWAP1 POP JUMP JUMPDEST PUSH1 0x60 PUSH1 0x0 DUP3 EQ ISZERO PUSH2 0xFC0 JUMPI PUSH1 0x40 MLOAD DUP1 PUSH1 0x40 ADD PUSH1 0x40 MSTORE DUP1 PUSH1 0x1 DUP2 MSTORE PUSH1 0x20 ADD PUSH32 0x3000000000000000000000000000000000000000000000000000000000000000 DUP2 MSTORE POP SWAP1 POP PUSH2 0x10D4 JUMP JUMPDEST PUSH1 0x0 DUP3 SWAP1 POP PUSH1 0x0 JUMPDEST PUSH1 0x0 DUP3 EQ PUSH2 0xFF2 JUMPI DUP1 DUP1 PUSH2 0xFDB SWAP1 PUSH2 0x205F JUMP JUMPDEST SWAP2 POP POP PUSH1 0xA DUP3 PUSH2 0xFEB SWAP2 SWAP1 PUSH2 0x1EA8 JUMP JUMPDEST SWAP2 POP PUSH2 0xFC8 JUMP JUMPDEST PUSH1 0x0 DUP2 PUSH8 0xFFFFFFFFFFFFFFFF DUP2 GT ISZERO PUSH2 0x100E JUMPI PUSH2 0x100D PUSH2 0x2195 JUMP JUMPDEST JUMPDEST PUSH1 0x40 MLOAD SWAP1 DUP1 DUP3 MSTORE DUP1 PUSH1 0x1F ADD PUSH1 0x1F NOT AND PUSH1 0x20 ADD DUP3 ADD PUSH1 0x40 MSTORE DUP1 ISZERO PUSH2 0x1040 JUMPI DUP2 PUSH1 0x20 ADD PUSH1 0x1 DUP3 MUL DUP1 CALLDATASIZE DUP4 CALLDATACOPY DUP1 DUP3 ADD SWAP2 POP POP SWAP1 POP JUMPDEST POP SWAP1 POP JUMPDEST PUSH1 0x0 DUP6 EQ PUSH2 0x10CD JUMPI PUSH1 0x1 DUP3 PUSH2 0x1059 SWAP2 SWAP1 PUSH2 0x1F33 JUMP JUMPDEST SWAP2 POP PUSH1 0xA DUP6 PUSH2 0x1068 SWAP2 SWAP1 PUSH2 0x20A8 JUMP JUMPDEST PUSH1 0x30 PUSH2 0x1074 SWAP2 SWAP1 PUSH2 0x1E52 JUMP JUMPDEST PUSH1 0xF8 SHL DUP2 DUP4 DUP2 MLOAD DUP2 LT PUSH2 0x108A JUMPI PUSH2 0x1089 PUSH2 0x2166 JUMP JUMPDEST JUMPDEST PUSH1 0x20 ADD ADD SWAP1 PUSH31 0xFFFFFFFFFFFFFFFFFFFFFFFFFFFFFFFFFFFFFFFFFFFFFFFFFFFFFFFFFFFFFF NOT AND SWAP1 DUP2 PUSH1 0x0 BYTE SWAP1 MSTORE8 POP PUSH1 0xA DUP6 PUSH2 0x10C6 SWAP2 SWAP1 PUSH2 0x1EA8 JUMP JUMPDEST SWAP5 POP PUSH2 0x1044 JUMP JUMPDEST DUP1 SWAP4 POP POP POP POP JUMPDEST SWAP2 SWAP1 POP JUMP JUMPDEST PUSH1 0x0 PUSH1 0x7 SLOAD EQ DUP1 PUSH2 0x10EA JUMPI POP PUSH1 0x0 DUP2 EQ JUMPDEST ISZERO PUSH2 0x10F4 JUMPI PUSH2 0x11E9 JUMP JUMPDEST DUP1 PUSH1 0x7 SLOAD EQ ISZERO PUSH2 0x111C JUMPI PUSH1 0x6 PUSH1 0x0 DUP3 DUP2 MSTORE PUSH1 0x20 ADD SWAP1 DUP2 MSTORE PUSH1 0x20 ADD PUSH1 0x0 KECCAK256 PUSH1 0x5 ADD SLOAD PUSH1 0x7 DUP2 SWAP1 SSTORE POP JUMPDEST PUSH1 0x0 PUSH1 0x6 PUSH1 0x0 DUP4 DUP2 MSTORE PUSH1 0x20 ADD SWAP1 DUP2 MSTORE PUSH1 0x20 ADD PUSH1 0x0 KECCAK256 PUSH1 0x5 ADD SLOAD EQ PUSH2 0x1182 JUMPI PUSH1 0x6 PUSH1 0x0 DUP3 DUP2 MSTORE PUSH1 0x20 ADD SWAP1 DUP2 MSTORE PUSH1 0x20 ADD PUSH1 0x0 KECCAK256 PUSH1 0x6 ADD SLOAD PUSH1 0x6 PUSH1 0x0 PUSH1 0x6 PUSH1 0x0 DUP6 DUP2 MSTORE PUSH1 0x20 ADD SWAP1 DUP2 MSTORE PUSH1 0x20 ADD PUSH1 0x0 KECCAK256 PUSH1 0x5 ADD SLOAD DUP2 MSTORE PUSH1 0x20 ADD SWAP1 DUP2 MSTORE PUSH1 0x20 ADD PUSH1 0x0 KECCAK256 PUSH1 0x6 ADD DUP2 SWAP1 SSTORE POP JUMPDEST PUSH1 0x0 PUSH1 0x6 PUSH1 0x0 DUP4 DUP2 MSTORE PUSH1 0x20 ADD SWAP1 DUP2 MSTORE PUSH1 0x20 ADD PUSH1 0x0 KECCAK256 PUSH1 0x6 ADD SLOAD EQ PUSH2 0x11E8 JUMPI PUSH1 0x6 PUSH1 0x0 DUP3 DUP2 MSTORE PUSH1 0x20 ADD SWAP1 DUP2 MSTORE PUSH1 0x20 ADD PUSH1 0x0 KECCAK256 PUSH1 0x5 ADD SLOAD PUSH1 0x6 PUSH1 0x0 PUSH1 0x6 PUSH1 0x0 DUP6 DUP2 MSTORE PUSH1 0x20 ADD SWAP1 DUP2 MSTORE PUSH1 0x20 ADD PUSH1 0x0 KECCAK256 PUSH1 0x6 ADD SLOAD DUP2 MSTORE PUSH1 0x20 ADD SWAP1 DUP2 MSTORE PUSH1 0x20 ADD PUSH1 0x0 KECCAK256 PUSH1 0x5 ADD DUP2 SWAP1 SSTORE POP JUMPDEST JUMPDEST POP JUMP JUMPDEST PUSH2 0x11F4 PUSH2 0x190E JUMP JUMPDEST PUSH1 0x8 PUSH1 0x0 DUP2 SLOAD DUP1 SWAP3 SWAP2 SWAP1 PUSH2 0x1207 SWAP1 PUSH2 0x205F JUMP JUMPDEST SWAP2 SWAP1 POP SSTORE POP PUSH1 0x0 PUSH1 0x40 MLOAD DUP1 PUSH1 0xE0 ADD PUSH1 0x40 MSTORE DUP1 DUP7 PUSH20 0xFFFFFFFFFFFFFFFFFFFFFFFFFFFFFFFFFFFFFFFF AND DUP2 MSTORE PUSH1 0x20 ADD DUP6 DUP2 MSTORE PUSH1 0x20 ADD DUP5 DUP2 MSTORE PUSH1 0x20 ADD PUSH1 0x0 PUSH1 0x1 DUP2 GT ISZERO PUSH2 0x1255 JUMPI PUSH2 0x1254 PUSH2 0x2137 JUMP JUMPDEST JUMPDEST DUP2 MSTORE PUSH1 0x20 ADD PUSH1 0x8 SLOAD DUP2 MSTORE PUSH1 0x20 ADD PUSH1 0x0 DUP2 MSTORE PUSH1 0x20 ADD PUSH1 0x0 DUP2 MSTORE POP SWAP1 POP DUP1 PUSH1 0x6 PUSH1 0x0 PUSH1 0x8 SLOAD DUP2 MSTORE PUSH1 0x20 ADD SWAP1 DUP2 MSTORE PUSH1 0x20 ADD PUSH1 0x0 KECCAK256 PUSH1 0x0 DUP3 ADD MLOAD DUP2 PUSH1 0x0 ADD PUSH1 0x0 PUSH2 0x100 EXP DUP2 SLOAD DUP2 PUSH20 0xFFFFFFFFFFFFFFFFFFFFFFFFFFFFFFFFFFFFFFFF MUL NOT AND SWAP1 DUP4 PUSH20 0xFFFFFFFFFFFFFFFFFFFFFFFFFFFFFFFFFFFFFFFF AND MUL OR SWAP1 SSTORE POP PUSH1 0x20 DUP3 ADD MLOAD DUP2 PUSH1 0x1 ADD SSTORE PUSH1 0x40 DUP3 ADD MLOAD DUP2 PUSH1 0x2 ADD SSTORE PUSH1 0x60 DUP3 ADD MLOAD DUP2 PUSH1 0x3 ADD PUSH1 0x0 PUSH2 0x100 EXP DUP2 SLOAD DUP2 PUSH1 0xFF MUL NOT AND SWAP1 DUP4 PUSH1 0x1 DUP2 GT ISZERO PUSH2 0x130C JUMPI PUSH2 0x130B PUSH2 0x2137 JUMP JUMPDEST JUMPDEST MUL OR SWAP1 SSTORE POP PUSH1 0x80 DUP3 ADD MLOAD DUP2 PUSH1 0x4 ADD SSTORE PUSH1 0xA0 DUP3 ADD MLOAD DUP2 PUSH1 0x5 ADD SSTORE PUSH1 0xC0 DUP3 ADD MLOAD DUP2 PUSH1 0x6 ADD SSTORE SWAP1 POP POP PUSH32 0xB363D8961E2DCC4E4F9CAFAC06E22FFE5A3EE9B47F614E483F989B932167E865 DUP6 DUP6 DUP6 PUSH1 0x0 PUSH1 0x8 SLOAD PUSH1 0x0 DUP1 PUSH1 0x40 MLOAD PUSH2 0x1371 SWAP8 SWAP7 SWAP6 SWAP5 SWAP4 SWAP3 SWAP2 SWAP1 PUSH2 0x1C6E JUMP JUMPDEST PUSH1 0x40 MLOAD DUP1 SWAP2 SUB SWAP1 LOG1 DUP1 SWAP2 POP POP SWAP4 SWAP3 POP POP POP JUMP JUMPDEST PUSH1 0x0 DUP1 PUSH1 0x7 SLOAD EQ ISZERO PUSH2 0x13A0 JUMPI DUP2 PUSH1 0x80 ADD MLOAD PUSH1 0x7 DUP2 SWAP1 SSTORE POP PUSH2 0x1579 JUMP JUMPDEST DUP2 PUSH1 0x20 ADD MLOAD PUSH1 0x6 PUSH1 0x0 PUSH1 0x7 SLOAD DUP2 MSTORE PUSH1 0x20 ADD SWAP1 DUP2 MSTORE PUSH1 0x20 ADD PUSH1 0x0 KECCAK256 PUSH1 0x1 ADD SLOAD LT PUSH2 0x142D JUMPI PUSH1 0x7 SLOAD PUSH1 0x6 PUSH1 0x0 DUP5 PUSH1 0x80 ADD MLOAD DUP2 MSTORE PUSH1 0x20 ADD SWAP1 DUP2 MSTORE PUSH1 0x20 ADD PUSH1 0x0 KECCAK256 PUSH1 0x5 ADD DUP2 SWAP1 SSTORE POP DUP2 PUSH1 0x80 ADD MLOAD PUSH1 0x6 PUSH1 0x0 PUSH1 0x6 PUSH1 0x0 DUP7 PUSH1 0x80 ADD MLOAD DUP2 MSTORE PUSH1 0x20 ADD SWAP1 DUP2 MSTORE PUSH1 0x20 ADD PUSH1 0x0 KECCAK256 PUSH1 0x5 ADD SLOAD DUP2 MSTORE PUSH1 0x20 ADD SWAP1 DUP2 MSTORE PUSH1 0x20 ADD PUSH1 0x0 KECCAK256 PUSH1 0x6 ADD DUP2 SWAP1 SSTORE POP DUP2 PUSH1 0x80 ADD MLOAD PUSH1 0x7 DUP2 SWAP1 SSTORE POP PUSH2 0x1578 JUMP JUMPDEST PUSH1 0x7 SLOAD SWAP1 POP JUMPDEST PUSH1 0x0 PUSH1 0x6 PUSH1 0x0 DUP4 DUP2 MSTORE PUSH1 0x20 ADD SWAP1 DUP2 MSTORE PUSH1 0x20 ADD PUSH1 0x0 KECCAK256 PUSH1 0x5 ADD SLOAD EQ ISZERO DUP1 ISZERO PUSH2 0x1489 JUMPI POP DUP2 PUSH1 0x20 ADD MLOAD PUSH1 0x6 PUSH1 0x0 PUSH1 0x6 PUSH1 0x0 DUP6 DUP2 MSTORE PUSH1 0x20 ADD SWAP1 DUP2 MSTORE PUSH1 0x20 ADD PUSH1 0x0 KECCAK256 PUSH1 0x5 ADD SLOAD DUP2 MSTORE PUSH1 0x20 ADD SWAP1 DUP2 MSTORE PUSH1 0x20 ADD PUSH1 0x0 KECCAK256 PUSH1 0x1 ADD SLOAD LT JUMPDEST ISZERO PUSH2 0x14AC JUMPI PUSH1 0x6 PUSH1 0x0 DUP3 DUP2 MSTORE PUSH1 0x20 ADD SWAP1 DUP2 MSTORE PUSH1 0x20 ADD PUSH1 0x0 KECCAK256 PUSH1 0x5 ADD SLOAD SWAP1 POP PUSH2 0x1433 JUMP JUMPDEST PUSH1 0x6 PUSH1 0x0 DUP3 DUP2 MSTORE PUSH1 0x20 ADD SWAP1 DUP2 MSTORE PUSH1 0x20 ADD PUSH1 0x0 KECCAK256 PUSH1 0x5 ADD SLOAD PUSH1 0x6 PUSH1 0x0 DUP5 PUSH1 0x80 ADD MLOAD DUP2 MSTORE PUSH1 0x20 ADD SWAP1 DUP2 MSTORE PUSH1 0x20 ADD PUSH1 0x0 KECCAK256 PUSH1 0x5 ADD DUP2 SWAP1 SSTORE POP PUSH1 0x0 PUSH1 0x6 PUSH1 0x0 DUP4 DUP2 MSTORE PUSH1 0x20 ADD SWAP1 DUP2 MSTORE PUSH1 0x20 ADD PUSH1 0x0 KECCAK256 PUSH1 0x5 ADD SLOAD EQ PUSH2 0x1539 JUMPI DUP2 PUSH1 0x80 ADD MLOAD PUSH1 0x6 PUSH1 0x0 PUSH1 0x6 PUSH1 0x0 DUP7 PUSH1 0x80 ADD MLOAD DUP2 MSTORE PUSH1 0x20 ADD SWAP1 DUP2 MSTORE PUSH1 0x20 ADD PUSH1 0x0 KECCAK256 PUSH1 0x5 ADD SLOAD DUP2 MSTORE PUSH1 0x20 ADD SWAP1 DUP2 MSTORE PUSH1 0x20 ADD PUSH1 0x0 KECCAK256 PUSH1 0x6 ADD DUP2 SWAP1 SSTORE POP JUMPDEST DUP2 PUSH1 0x80 ADD MLOAD PUSH1 0x6 PUSH1 0x0 DUP4 DUP2 MSTORE PUSH1 0x20 ADD SWAP1 DUP2 MSTORE PUSH1 0x20 ADD PUSH1 0x0 KECCAK256 PUSH1 0x5 ADD DUP2 SWAP1 SSTORE POP DUP1 PUSH1 0x6 PUSH1 0x0 DUP5 PUSH1 0x80 ADD MLOAD DUP2 MSTORE PUSH1 0x20 ADD SWAP1 DUP2 MSTORE PUSH1 0x20 ADD PUSH1 0x0 KECCAK256 PUSH1 0x6 ADD DUP2 SWAP1 SSTORE POP JUMPDEST JUMPDEST POP POP JUMP JUMPDEST PUSH2 0x1585 PUSH2 0x190E JUMP JUMPDEST PUSH1 0x5 PUSH1 0x0 DUP2 SLOAD DUP1 SWAP3 SWAP2 SWAP1 PUSH2 0x1598 SWAP1 PUSH2 0x205F JUMP JUMPDEST SWAP2 SWAP1 POP SSTORE POP PUSH1 0x0 PUSH1 0x40 MLOAD DUP1 PUSH1 0xE0 ADD PUSH1 0x40 MSTORE DUP1 DUP7 PUSH20 0xFFFFFFFFFFFFFFFFFFFFFFFFFFFFFFFFFFFFFFFF AND DUP2 MSTORE PUSH1 0x20 ADD DUP6 DUP2 MSTORE PUSH1 0x20 ADD DUP5 DUP2 MSTORE PUSH1 0x20 ADD PUSH1 0x0 PUSH1 0x1 DUP2 GT ISZERO PUSH2 0x15E6 JUMPI PUSH2 0x15E5 PUSH2 0x2137 JUMP JUMPDEST JUMPDEST DUP2 MSTORE PUSH1 0x20 ADD PUSH1 0x5 SLOAD DUP2 MSTORE PUSH1 0x20 ADD PUSH1 0x0 DUP2 MSTORE PUSH1 0x20 ADD PUSH1 0x0 DUP2 MSTORE POP SWAP1 POP DUP1 PUSH1 0x3 PUSH1 0x0 PUSH1 0x5 SLOAD DUP2 MSTORE PUSH1 0x20 ADD SWAP1 DUP2 MSTORE PUSH1 0x20 ADD PUSH1 0x0 KECCAK256 PUSH1 0x0 DUP3 ADD MLOAD DUP2 PUSH1 0x0 ADD PUSH1 0x0 PUSH2 0x100 EXP DUP2 SLOAD DUP2 PUSH20 0xFFFFFFFFFFFFFFFFFFFFFFFFFFFFFFFFFFFFFFFF MUL NOT AND SWAP1 DUP4 PUSH20 0xFFFFFFFFFFFFFFFFFFFFFFFFFFFFFFFFFFFFFFFF AND MUL OR SWAP1 SSTORE POP PUSH1 0x20 DUP3 ADD MLOAD DUP2 PUSH1 0x1 ADD SSTORE PUSH1 0x40 DUP3 ADD MLOAD DUP2 PUSH1 0x2 ADD SSTORE PUSH1 0x60 DUP3 ADD MLOAD DUP2 PUSH1 0x3 ADD PUSH1 0x0 PUSH2 0x100 EXP DUP2 SLOAD DUP2 PUSH1 0xFF MUL NOT AND SWAP1 DUP4 PUSH1 0x1 DUP2 GT ISZERO PUSH2 0x169D JUMPI PUSH2 0x169C PUSH2 0x2137 JUMP JUMPDEST JUMPDEST MUL OR SWAP1 SSTORE POP PUSH1 0x80 DUP3 ADD MLOAD DUP2 PUSH1 0x4 ADD SSTORE PUSH1 0xA0 DUP3 ADD MLOAD DUP2 PUSH1 0x5 ADD SSTORE PUSH1 0xC0 DUP3 ADD MLOAD DUP2 PUSH1 0x6 ADD SSTORE SWAP1 POP POP PUSH32 0xB363D8961E2DCC4E4F9CAFAC06E22FFE5A3EE9B47F614E483F989B932167E865 DUP6 DUP6 DUP6 PUSH1 0x0 PUSH1 0x5 SLOAD PUSH1 0x0 DUP1 PUSH1 0x40 MLOAD PUSH2 0x1702 SWAP8 SWAP7 SWAP6 SWAP5 SWAP4 SWAP3 SWAP2 SWAP1 PUSH2 0x1C6E JUMP JUMPDEST PUSH1 0x40 MLOAD DUP1 SWAP2 SUB SWAP1 LOG1 DUP1 SWAP2 POP POP SWAP4 SWAP3 POP POP POP JUMP JUMPDEST PUSH1 0x0 DUP1 PUSH1 0x4 SLOAD EQ ISZERO PUSH2 0x1731 JUMPI DUP2 PUSH1 0x80 ADD MLOAD PUSH1 0x4 DUP2 SWAP1 SSTORE POP PUSH2 0x190A JUMP JUMPDEST DUP2 PUSH1 0x20 ADD MLOAD PUSH1 0x3 PUSH1 0x0 PUSH1 0x4 SLOAD DUP2 MSTORE PUSH1 0x20 ADD SWAP1 DUP2 MSTORE PUSH1 0x20 ADD PUSH1 0x0 KECCAK256 PUSH1 0x1 ADD SLOAD GT PUSH2 0x17BE JUMPI PUSH1 0x4 SLOAD PUSH1 0x3 PUSH1 0x0 DUP5 PUSH1 0x80 ADD MLOAD DUP2 MSTORE PUSH1 0x20 ADD SWAP1 DUP2 MSTORE PUSH1 0x20 ADD PUSH1 0x0 KECCAK256 PUSH1 0x5 ADD DUP2 SWAP1 SSTORE POP DUP2 PUSH1 0x80 ADD MLOAD PUSH1 0x3 PUSH1 0x0 PUSH1 0x3 PUSH1 0x0 DUP7 PUSH1 0x80 ADD MLOAD DUP2 MSTORE PUSH1 0x20 ADD SWAP1 DUP2 MSTORE PUSH1 0x20 ADD PUSH1 0x0 KECCAK256 PUSH1 0x5 ADD SLOAD DUP2 MSTORE PUSH1 0x20 ADD SWAP1 DUP2 MSTORE PUSH1 0x20 ADD PUSH1 0x0 KECCAK256 PUSH1 0x6 ADD DUP2 SWAP1 SSTORE POP DUP2 PUSH1 0x80 ADD MLOAD PUSH1 0x4 DUP2 SWAP1 SSTORE POP PUSH2 0x1909 JUMP JUMPDEST PUSH1 0x4 SLOAD SWAP1 POP JUMPDEST PUSH1 0x0 PUSH1 0x3 PUSH1 0x0 DUP4 DUP2 MSTORE PUSH1 0x20 ADD SWAP1 DUP2 MSTORE PUSH1 0x20 ADD PUSH1 0x0 KECCAK256 PUSH1 0x5 ADD SLOAD EQ ISZERO DUP1 ISZERO PUSH2 0x181A JUMPI POP DUP2 PUSH1 0x20 ADD MLOAD PUSH1 0x3 PUSH1 0x0 PUSH1 0x3 PUSH1 0x0 DUP6 DUP2 MSTORE PUSH1 0x20 ADD SWAP1 DUP2 MSTORE PUSH1 0x20 ADD PUSH1 0x0 KECCAK256 PUSH1 0x5 ADD SLOAD DUP2 MSTORE PUSH1 0x20 ADD SWAP1 DUP2 MSTORE PUSH1 0x20 ADD PUSH1 0x0 KECCAK256 PUSH1 0x1 ADD SLOAD GT JUMPDEST ISZERO PUSH2 0x183D JUMPI PUSH1 0x3 PUSH1 0x0 DUP3 DUP2 MSTORE PUSH1 0x20 ADD SWAP1 DUP2 MSTORE PUSH1 0x20 ADD PUSH1 0x0 KECCAK256 PUSH1 0x5 ADD SLOAD SWAP1 POP PUSH2 0x17C4 JUMP JUMPDEST PUSH1 0x3 PUSH1 0x0 DUP3 DUP2 MSTORE PUSH1 0x20 ADD SWAP1 DUP2 MSTORE PUSH1 0x20 ADD PUSH1 0x0 KECCAK256 PUSH1 0x5 ADD SLOAD PUSH1 0x3 PUSH1 0x0 DUP5 PUSH1 0x80 ADD MLOAD DUP2 MSTORE PUSH1 0x20 ADD SWAP1 DUP2 MSTORE PUSH1 0x20 ADD PUSH1 0x0 KECCAK256 PUSH1 0x5 ADD DUP2 SWAP1 SSTORE POP PUSH1 0x0 PUSH1 0x3 PUSH1 0x0 DUP4 DUP2 MSTORE PUSH1 0x20 ADD SWAP1 DUP2 MSTORE PUSH1 0x20 ADD PUSH1 0x0 KECCAK256 PUSH1 0x5 ADD SLOAD EQ PUSH2 0x18CA JUMPI DUP2 PUSH1 0x80 ADD MLOAD PUSH1 0x3 PUSH1 0x0 PUSH1 0x3 PUSH1 0x0 DUP7 PUSH1 0x80 ADD MLOAD DUP2 MSTORE PUSH1 0x20 ADD SWAP1 DUP2 MSTORE PUSH1 0x20 ADD PUSH1 0x0 KECCAK256 PUSH1 0x5 ADD SLOAD DUP2 MSTORE PUSH1 0x20 ADD SWAP1 DUP2 MSTORE PUSH1 0x20 ADD PUSH1 0x0 KECCAK256 PUSH1 0x6 ADD DUP2 SWAP1 SSTORE POP JUMPDEST DUP2 PUSH1 0x80 ADD MLOAD PUSH1 0x3 PUSH1 0x0 DUP4 DUP2 MSTORE PUSH1 0x20 ADD SWAP1 DUP2 MSTORE PUSH1 0x20 ADD PUSH1 0x0 KECCAK256 PUSH1 0x5 ADD DUP2 SWAP1 SSTORE POP DUP1 PUSH1 0x3 PUSH1 0x0 DUP5 PUSH1 0x80 ADD MLOAD DUP2 MSTORE PUSH1 0x20 ADD SWAP1 DUP2 MSTORE PUSH1 0x20 ADD PUSH1 0x0 KECCAK256 PUSH1 0x6 ADD DUP2 SWAP1 SSTORE POP JUMPDEST JUMPDEST POP POP JUMP JUMPDEST PUSH1 0x40 MLOAD DUP1 PUSH1 0xE0 ADD PUSH1 0x40 MSTORE DUP1 PUSH1 0x0 PUSH20 0xFFFFFFFFFFFFFFFFFFFFFFFFFFFFFFFFFFFFFFFF AND DUP2 MSTORE PUSH1 0x20 ADD PUSH1 0x0 DUP2 MSTORE PUSH1 0x20 ADD PUSH1 0x0 DUP2 MSTORE PUSH1 0x20 ADD PUSH1 0x0 PUSH1 0x1 DUP2 GT ISZERO PUSH2 0x1958 JUMPI PUSH2 0x1957 PUSH2 0x2137 JUMP JUMPDEST JUMPDEST DUP2 MSTORE PUSH1 0x20 ADD PUSH1 0x0 DUP2 MSTORE PUSH1 0x20 ADD PUSH1 0x0 DUP2 MSTORE PUSH1 0x20 ADD PUSH1 0x0 DUP2 MSTORE POP SWAP1 JUMP JUMPDEST PUSH1 0x0 PUSH2 0x1986 PUSH2 0x1981 DUP5 PUSH2 0x1DFA JUMP JUMPDEST PUSH2 0x1DD5 JUMP JUMPDEST SWAP1 POP DUP3 DUP2 MSTORE PUSH1 0x20 DUP2 ADD DUP5 DUP5 DUP5 ADD GT ISZERO PUSH2 0x19A2 JUMPI PUSH2 0x19A1 PUSH2 0x21C9 JUMP JUMPDEST JUMPDEST PUSH2 0x19AD DUP5 DUP3 DUP6 PUSH2 0x1FEC JUMP JUMPDEST POP SWAP4 SWAP3 POP POP POP JUMP JUMPDEST PUSH1 0x0 DUP3 PUSH1 0x1F DUP4 ADD SLT PUSH2 0x19CA JUMPI PUSH2 0x19C9 PUSH2 0x21C4 JUMP JUMPDEST JUMPDEST DUP2 CALLDATALOAD PUSH2 0x19DA DUP5 DUP3 PUSH1 0x20 DUP7 ADD PUSH2 0x1973 JUMP JUMPDEST SWAP2 POP POP SWAP3 SWAP2 POP POP JUMP JUMPDEST PUSH1 0x0 DUP2 CALLDATALOAD SWAP1 POP PUSH2 0x19F2 DUP2 PUSH2 0x22F3 JUMP JUMPDEST SWAP3 SWAP2 POP POP JUMP JUMPDEST PUSH1 0x0 DUP1 PUSH1 0x40 DUP4 DUP6 SUB SLT ISZERO PUSH2 0x1A0F JUMPI PUSH2 0x1A0E PUSH2 0x21D3 JUMP JUMPDEST JUMPDEST PUSH1 0x0 DUP4 ADD CALLDATALOAD PUSH8 0xFFFFFFFFFFFFFFFF DUP2 GT ISZERO PUSH2 0x1A2D JUMPI PUSH2 0x1A2C PUSH2 0x21CE JUMP JUMPDEST JUMPDEST PUSH2 0x1A39 DUP6 DUP3 DUP7 ADD PUSH2 0x19B5 JUMP JUMPDEST SWAP3 POP POP PUSH1 0x20 DUP4 ADD CALLDATALOAD PUSH8 0xFFFFFFFFFFFFFFFF DUP2 GT ISZERO PUSH2 0x1A5A JUMPI PUSH2 0x1A59 PUSH2 0x21CE JUMP JUMPDEST JUMPDEST PUSH2 0x1A66 DUP6 DUP3 DUP7 ADD PUSH2 0x19B5 JUMP JUMPDEST SWAP2 POP POP SWAP3 POP SWAP3 SWAP1 POP JUMP JUMPDEST PUSH1 0x0 PUSH1 0x20 DUP3 DUP5 SUB SLT ISZERO PUSH2 0x1A86 JUMPI PUSH2 0x1A85 PUSH2 0x21D3 JUMP JUMPDEST JUMPDEST PUSH1 0x0 PUSH2 0x1A94 DUP5 DUP3 DUP6 ADD PUSH2 0x19E3 JUMP JUMPDEST SWAP2 POP POP SWAP3 SWAP2 POP POP JUMP JUMPDEST PUSH2 0x1AA6 DUP2 PUSH2 0x1F79 JUMP JUMPDEST DUP3 MSTORE POP POP JUMP JUMPDEST PUSH2 0x1AB5 DUP2 PUSH2 0x1F67 JUMP JUMPDEST DUP3 MSTORE POP POP JUMP JUMPDEST PUSH2 0x1AC4 DUP2 PUSH2 0x1FC8 JUMP JUMPDEST DUP3 MSTORE POP POP JUMP JUMPDEST PUSH2 0x1AD3 DUP2 PUSH2 0x1FDA JUMP JUMPDEST DUP3 MSTORE POP POP JUMP JUMPDEST PUSH1 0x0 PUSH2 0x1AE4 DUP3 PUSH2 0x1E2B JUMP JUMPDEST PUSH2 0x1AEE DUP2 DUP6 PUSH2 0x1E36 JUMP JUMPDEST SWAP4 POP PUSH2 0x1AFE DUP2 DUP6 PUSH1 0x20 DUP7 ADD PUSH2 0x1FFB JUMP JUMPDEST PUSH2 0x1B07 DUP2 PUSH2 0x21D8 JUMP JUMPDEST DUP5 ADD SWAP2 POP POP SWAP3 SWAP2 POP POP JUMP JUMPDEST PUSH1 0x0 PUSH2 0x1B1D DUP3 PUSH2 0x1E2B JUMP JUMPDEST PUSH2 0x1B27 DUP2 DUP6 PUSH2 0x1E47 JUMP JUMPDEST SWAP4 POP PUSH2 0x1B37 DUP2 DUP6 PUSH1 0x20 DUP7 ADD PUSH2 0x1FFB JUMP JUMPDEST DUP1 DUP5 ADD SWAP2 POP POP SWAP3 SWAP2 POP POP JUMP JUMPDEST PUSH1 0x0 PUSH2 0x1B50 PUSH1 0xE DUP4 PUSH2 0x1E36 JUMP JUMPDEST SWAP2 POP PUSH2 0x1B5B DUP3 PUSH2 0x21E9 JUMP JUMPDEST PUSH1 0x20 DUP3 ADD SWAP1 POP SWAP2 SWAP1 POP JUMP JUMPDEST PUSH1 0x0 PUSH2 0x1B73 PUSH1 0xD DUP4 PUSH2 0x1E36 JUMP JUMPDEST SWAP2 POP PUSH2 0x1B7E DUP3 PUSH2 0x2212 JUMP JUMPDEST PUSH1 0x20 DUP3 ADD SWAP1 POP SWAP2 SWAP1 POP JUMP JUMPDEST PUSH1 0x0 PUSH2 0x1B96 PUSH1 0x1 DUP4 PUSH2 0x1E47 JUMP JUMPDEST SWAP2 POP PUSH2 0x1BA1 DUP3 PUSH2 0x223B JUMP JUMPDEST PUSH1 0x1 DUP3 ADD SWAP1 POP SWAP2 SWAP1 POP JUMP JUMPDEST PUSH1 0x0 PUSH2 0x1BB9 PUSH1 0x1E DUP4 PUSH2 0x1E36 JUMP JUMPDEST SWAP2 POP PUSH2 0x1BC4 DUP3 PUSH2 0x2264 JUMP JUMPDEST PUSH1 0x20 DUP3 ADD SWAP1 POP SWAP2 SWAP1 POP JUMP JUMPDEST PUSH1 0x0 PUSH2 0x1BDC PUSH1 0x1F DUP4 PUSH2 0x1E36 JUMP JUMPDEST SWAP2 POP PUSH2 0x1BE7 DUP3 PUSH2 0x228D JUMP JUMPDEST PUSH1 0x20 DUP3 ADD SWAP1 POP SWAP2 SWAP1 POP JUMP JUMPDEST PUSH1 0x0 PUSH2 0x1BFF PUSH1 0x1E DUP4 PUSH2 0x1E36 JUMP JUMPDEST SWAP2 POP PUSH2 0x1C0A DUP3 PUSH2 0x22B6 JUMP JUMPDEST PUSH1 0x20 DUP3 ADD SWAP1 POP SWAP2 SWAP1 POP JUMP JUMPDEST PUSH2 0x1C1E DUP2 PUSH2 0x1FBE JUMP JUMPDEST DUP3 MSTORE POP POP JUMP JUMPDEST PUSH1 0x0 PUSH2 0x1C30 DUP3 DUP6 PUSH2 0x1B12 JUMP JUMPDEST SWAP2 POP PUSH2 0x1C3B DUP3 PUSH2 0x1B89 JUMP JUMPDEST SWAP2 POP PUSH2 0x1C47 DUP3 DUP5 PUSH2 0x1B12 JUMP JUMPDEST SWAP2 POP DUP2 SWAP1 POP SWAP4 SWAP3 POP POP POP JUMP JUMPDEST PUSH1 0x0 PUSH1 0x20 DUP3 ADD SWAP1 POP PUSH2 0x1C68 PUSH1 0x0 DUP4 ADD DUP5 PUSH2 0x1A9D JUMP JUMPDEST SWAP3 SWAP2 POP POP JUMP JUMPDEST PUSH1 0x0 PUSH1 0xE0 DUP3 ADD SWAP1 POP PUSH2 0x1C83 PUSH1 0x0 DUP4 ADD DUP11 PUSH2 0x1AAC JUMP JUMPDEST PUSH2 0x1C90 PUSH1 0x20 DUP4 ADD DUP10 PUSH2 0x1C15 JUMP JUMPDEST PUSH2 0x1C9D PUSH1 0x40 DUP4 ADD DUP9 PUSH2 0x1C15 JUMP JUMPDEST PUSH2 0x1CAA PUSH1 0x60 DUP4 ADD DUP8 PUSH2 0x1ABB JUMP JUMPDEST PUSH2 0x1CB7 PUSH1 0x80 DUP4 ADD DUP7 PUSH2 0x1C15 JUMP JUMPDEST PUSH2 0x1CC4 PUSH1 0xA0 DUP4 ADD DUP6 PUSH2 0x1ACA JUMP JUMPDEST PUSH2 0x1CD1 PUSH1 0xC0 DUP4 ADD DUP5 PUSH2 0x1ACA JUMP JUMPDEST SWAP9 SWAP8 POP POP POP POP POP POP POP POP JUMP JUMPDEST PUSH1 0x0 PUSH1 0x20 DUP3 ADD SWAP1 POP PUSH2 0x1CF2 PUSH1 0x0 DUP4 ADD DUP5 PUSH2 0x1ABB JUMP JUMPDEST SWAP3 SWAP2 POP POP JUMP JUMPDEST PUSH1 0x0 PUSH1 0x20 DUP3 ADD SWAP1 POP DUP2 DUP2 SUB PUSH1 0x0 DUP4 ADD MSTORE PUSH2 0x1D12 DUP2 DUP5 PUSH2 0x1AD9 JUMP JUMPDEST SWAP1 POP SWAP3 SWAP2 POP POP JUMP JUMPDEST PUSH1 0x0 PUSH1 0x20 DUP3 ADD SWAP1 POP DUP2 DUP2 SUB PUSH1 0x0 DUP4 ADD MSTORE PUSH2 0x1D33 DUP2 PUSH2 0x1B43 JUMP JUMPDEST SWAP1 POP SWAP2 SWAP1 POP JUMP JUMPDEST PUSH1 0x0 PUSH1 0x20 DUP3 ADD SWAP1 POP DUP2 DUP2 SUB PUSH1 0x0 DUP4 ADD MSTORE PUSH2 0x1D53 DUP2 PUSH2 0x1B66 JUMP JUMPDEST SWAP1 POP SWAP2 SWAP1 POP JUMP JUMPDEST PUSH1 0x0 PUSH1 0x20 DUP3 ADD SWAP1 POP DUP2 DUP2 SUB PUSH1 0x0 DUP4 ADD MSTORE PUSH2 0x1D73 DUP2 PUSH2 0x1BAC JUMP JUMPDEST SWAP1 POP SWAP2 SWAP1 POP JUMP JUMPDEST PUSH1 0x0 PUSH1 0x20 DUP3 ADD SWAP1 POP DUP2 DUP2 SUB PUSH1 0x0 DUP4 ADD MSTORE PUSH2 0x1D93 DUP2 PUSH2 0x1BCF JUMP JUMPDEST SWAP1 POP SWAP2 SWAP1 POP JUMP JUMPDEST PUSH1 0x0 PUSH1 0x20 DUP3 ADD SWAP1 POP DUP2 DUP2 SUB PUSH1 0x0 DUP4 ADD MSTORE PUSH2 0x1DB3 DUP2 PUSH2 0x1BF2 JUMP JUMPDEST SWAP1 POP SWAP2 SWAP1 POP JUMP JUMPDEST PUSH1 0x0 PUSH1 0x20 DUP3 ADD SWAP1 POP PUSH2 0x1DCF PUSH1 0x0 DUP4 ADD DUP5 PUSH2 0x1C15 JUMP JUMPDEST SWAP3 SWAP2 POP POP JUMP JUMPDEST PUSH1 0x0 PUSH2 0x1DDF PUSH2 0x1DF0 JUMP JUMPDEST SWAP1 POP PUSH2 0x1DEB DUP3 DUP3 PUSH2 0x202E JUMP JUMPDEST SWAP2 SWAP1 POP JUMP JUMPDEST PUSH1 0x0 PUSH1 0x40 MLOAD SWAP1 POP SWAP1 JUMP JUMPDEST PUSH1 0x0 PUSH8 0xFFFFFFFFFFFFFFFF DUP3 GT ISZERO PUSH2 0x1E15 JUMPI PUSH2 0x1E14 PUSH2 0x2195 JUMP JUMPDEST JUMPDEST PUSH2 0x1E1E DUP3 PUSH2 0x21D8 JUMP JUMPDEST SWAP1 POP PUSH1 0x20 DUP2 ADD SWAP1 POP SWAP2 SWAP1 POP JUMP JUMPDEST PUSH1 0x0 DUP2 MLOAD SWAP1 POP SWAP2 SWAP1 POP JUMP JUMPDEST PUSH1 0x0 DUP3 DUP3 MSTORE PUSH1 0x20 DUP3 ADD SWAP1 POP SWAP3 SWAP2 POP POP JUMP JUMPDEST PUSH1 0x0 DUP2 SWAP1 POP SWAP3 SWAP2 POP POP JUMP JUMPDEST PUSH1 0x0 PUSH2 0x1E5D DUP3 PUSH2 0x1FBE JUMP JUMPDEST SWAP2 POP PUSH2 0x1E68 DUP4 PUSH2 0x1FBE JUMP JUMPDEST SWAP3 POP DUP3 PUSH32 0xFFFFFFFFFFFFFFFFFFFFFFFFFFFFFFFFFFFFFFFFFFFFFFFFFFFFFFFFFFFFFFFF SUB DUP3 GT ISZERO PUSH2 0x1E9D JUMPI PUSH2 0x1E9C PUSH2 0x20D9 JUMP JUMPDEST JUMPDEST DUP3 DUP3 ADD SWAP1 POP SWAP3 SWAP2 POP POP JUMP JUMPDEST PUSH1 0x0 PUSH2 0x1EB3 DUP3 PUSH2 0x1FBE JUMP JUMPDEST SWAP2 POP PUSH2 0x1EBE DUP4 PUSH2 0x1FBE JUMP JUMPDEST SWAP3 POP DUP3 PUSH2 0x1ECE JUMPI PUSH2 0x1ECD PUSH2 0x2108 JUMP JUMPDEST JUMPDEST DUP3 DUP3 DIV SWAP1 POP SWAP3 SWAP2 POP POP JUMP JUMPDEST PUSH1 0x0 PUSH2 0x1EE4 DUP3 PUSH2 0x1FBE JUMP JUMPDEST SWAP2 POP PUSH2 0x1EEF DUP4 PUSH2 0x1FBE JUMP JUMPDEST SWAP3 POP DUP2 PUSH32 0xFFFFFFFFFFFFFFFFFFFFFFFFFFFFFFFFFFFFFFFFFFFFFFFFFFFFFFFFFFFFFFFF DIV DUP4 GT DUP3 ISZERO ISZERO AND ISZERO PUSH2 0x1F28 JUMPI PUSH2 0x1F27 PUSH2 0x20D9 JUMP JUMPDEST JUMPDEST DUP3 DUP3 MUL SWAP1 POP SWAP3 SWAP2 POP POP JUMP JUMPDEST PUSH1 0x0 PUSH2 0x1F3E DUP3 PUSH2 0x1FBE JUMP JUMPDEST SWAP2 POP PUSH2 0x1F49 DUP4 PUSH2 0x1FBE JUMP JUMPDEST SWAP3 POP DUP3 DUP3 LT ISZERO PUSH2 0x1F5C JUMPI PUSH2 0x1F5B PUSH2 0x20D9 JUMP JUMPDEST JUMPDEST DUP3 DUP3 SUB SWAP1 POP SWAP3 SWAP2 POP POP JUMP JUMPDEST PUSH1 0x0 PUSH2 0x1F72 DUP3 PUSH2 0x1F9E JUMP JUMPDEST SWAP1 POP SWAP2 SWAP1 POP JUMP JUMPDEST PUSH1 0x0 PUSH2 0x1F84 DUP3 PUSH2 0x1F9E JUMP JUMPDEST SWAP1 POP SWAP2 SWAP1 POP JUMP JUMPDEST PUSH1 0x0 DUP2 SWAP1 POP PUSH2 0x1F99 DUP3 PUSH2 0x22DF JUMP JUMPDEST SWAP2 SWAP1 POP JUMP JUMPDEST PUSH1 0x0 PUSH20 0xFFFFFFFFFFFFFFFFFFFFFFFFFFFFFFFFFFFFFFFF DUP3 AND SWAP1 POP SWAP2 SWAP1 POP JUMP JUMPDEST PUSH1 0x0 DUP2 SWAP1 POP SWAP2 SWAP1 POP JUMP JUMPDEST PUSH1 0x0 PUSH2 0x1FD3 DUP3 PUSH2 0x1F8B JUMP JUMPDEST SWAP1 POP SWAP2 SWAP1 POP JUMP JUMPDEST PUSH1 0x0 PUSH2 0x1FE5 DUP3 PUSH2 0x1FBE JUMP JUMPDEST SWAP1 POP SWAP2 SWAP1 POP JUMP JUMPDEST DUP3 DUP2 DUP4 CALLDATACOPY PUSH1 0x0 DUP4 DUP4 ADD MSTORE POP POP POP JUMP JUMPDEST PUSH1 0x0 JUMPDEST DUP4 DUP2 LT ISZERO PUSH2 0x2019 JUMPI DUP1 DUP3 ADD MLOAD DUP2 DUP5 ADD MSTORE PUSH1 0x20 DUP2 ADD SWAP1 POP PUSH2 0x1FFE JUMP JUMPDEST DUP4 DUP2 GT ISZERO PUSH2 0x2028 JUMPI PUSH1 0x0 DUP5 DUP5 ADD MSTORE JUMPDEST POP POP POP POP JUMP JUMPDEST PUSH2 0x2037 DUP3 PUSH2 0x21D8 JUMP JUMPDEST DUP2 ADD DUP2 DUP2 LT PUSH8 0xFFFFFFFFFFFFFFFF DUP3 GT OR ISZERO PUSH2 0x2056 JUMPI PUSH2 0x2055 PUSH2 0x2195 JUMP JUMPDEST JUMPDEST DUP1 PUSH1 0x40 MSTORE POP POP POP JUMP JUMPDEST PUSH1 0x0 PUSH2 0x206A DUP3 PUSH2 0x1FBE JUMP JUMPDEST SWAP2 POP PUSH32 0xFFFFFFFFFFFFFFFFFFFFFFFFFFFFFFFFFFFFFFFFFFFFFFFFFFFFFFFFFFFFFFFF DUP3 EQ ISZERO PUSH2 0x209D JUMPI PUSH2 0x209C PUSH2 0x20D9 JUMP JUMPDEST JUMPDEST PUSH1 0x1 DUP3 ADD SWAP1 POP SWAP2 SWAP1 POP JUMP JUMPDEST PUSH1 0x0 PUSH2 0x20B3 DUP3 PUSH2 0x1FBE JUMP JUMPDEST SWAP2 POP PUSH2 0x20BE DUP4 PUSH2 0x1FBE JUMP JUMPDEST SWAP3 POP DUP3 PUSH2 0x20CE JUMPI PUSH2 0x20CD PUSH2 0x2108 JUMP JUMPDEST JUMPDEST DUP3 DUP3 MOD SWAP1 POP SWAP3 SWAP2 POP POP JUMP JUMPDEST PUSH32 0x4E487B7100000000000000000000000000000000000000000000000000000000 PUSH1 0x0 MSTORE PUSH1 0x11 PUSH1 0x4 MSTORE PUSH1 0x24 PUSH1 0x0 REVERT JUMPDEST PUSH32 0x4E487B7100000000000000000000000000000000000000000000000000000000 PUSH1 0x0 MSTORE PUSH1 0x12 PUSH1 0x4 MSTORE PUSH1 0x24 PUSH1 0x0 REVERT JUMPDEST PUSH32 0x4E487B7100000000000000000000000000000000000000000000000000000000 PUSH1 0x0 MSTORE PUSH1 0x21 PUSH1 0x4 MSTORE PUSH1 0x24 PUSH1 0x0 REVERT JUMPDEST PUSH32 0x4E487B7100000000000000000000000000000000000000000000000000000000 PUSH1 0x0 MSTORE PUSH1 0x32 PUSH1 0x4 MSTORE PUSH1 0x24 PUSH1 0x0 REVERT JUMPDEST PUSH32 0x4E487B7100000000000000000000000000000000000000000000000000000000 PUSH1 0x0 MSTORE PUSH1 0x41 PUSH1 0x4 MSTORE PUSH1 0x24 PUSH1 0x0 REVERT JUMPDEST PUSH1 0x0 DUP1 REVERT JUMPDEST PUSH1 0x0 DUP1 REVERT JUMPDEST PUSH1 0x0 DUP1 REVERT JUMPDEST PUSH1 0x0 DUP1 REVERT JUMPDEST PUSH1 0x0 PUSH1 0x1F NOT PUSH1 0x1F DUP4 ADD AND SWAP1 POP SWAP2 SWAP1 POP JUMP JUMPDEST PUSH32 0x4E6F7420417574686F7269736564000000000000000000000000000000000000 PUSH1 0x0 DUP3 ADD MSTORE POP JUMP JUMPDEST PUSH32 0x4F726465722050656E64696E6700000000000000000000000000000000000000 PUSH1 0x0 DUP3 ADD MSTORE POP JUMP JUMPDEST PUSH32 0x2000000000000000000000000000000000000000000000000000000000000000 PUSH1 0x0 DUP3 ADD MSTORE POP JUMP JUMPDEST PUSH32 0x4E6F7420656E6F75676820626C616E636520746F20706C616365206269640000 PUSH1 0x0 DUP3 ADD MSTORE POP JUMP JUMPDEST PUSH32 0x70726963652076616C7565206D757374206265206D6F7265207468616E203000 PUSH1 0x0 DUP3 ADD MSTORE POP JUMP JUMPDEST PUSH32 0x4E6F7420656E6F75676820626C616E636520746F20706C6163652061736B0000 PUSH1 0x0 DUP3 ADD MSTORE POP JUMP JUMPDEST PUSH1 0x2 DUP2 LT PUSH2 0x22F0 JUMPI PUSH2 0x22EF PUSH2 0x2137 JUMP JUMPDEST JUMPDEST POP JUMP JUMPDEST PUSH2 0x22FC DUP2 PUSH2 0x1FBE JUMP JUMPDEST DUP2 EQ PUSH2 0x2307 JUMPI PUSH1 0x0 DUP1 REVERT JUMPDEST POP JUMP INVALID LOG2 PUSH5 0x6970667358 0x22 SLT KECCAK256 SWAP2 0xB7 POP 0x4D 0x1E MSIZE PUSH1 0x92 SIGNEXTEND RETURN LOG0 DUP7 OR SWAP4 0xD3 0xF9 PUSH26 0xE8C1A4A30805D0C4C94FC47280399064736F6C63430008070033 "
				},
				"gasEstimates": {
					"creation": {
						"codeDepositCost": "1804800",
						"executionCost": "infinite",
						"totalCost": "infinite"
					},
					"external": {
						"askCount()": "2451",
						"askHead()": "2496",
						"bidCount()": "2473",
						"bidHead()": "2518",
						"cancelAsk(uint256)": "infinite",
						"cancelBid(uint256)": "31132",
						"concatenate(string,string)": "infinite",
						"fetchAsk()": "infinite",
						"fetchBid()": "infinite",
						"getAskAddress(uint256)": "2894",
						"getAskNext(uint256)": "infinite",
						"getAskPrev(uint256)": "infinite",
						"getAskState(uint256)": "2962",
						"getAskValue(uint256)": "infinite",
						"getBidAddress(uint256)": "2938",
						"getBidState(uint256)": "2983",
						"getBidValue(uint256)": "infinite",
						"placeAsk(uint256)": "infinite",
						"placeBid(uint256)": "infinite"
					},
					"internal": {
						"createAsk(address,uint256,uint256)": "infinite",
						"createBid(address,uint256,uint256)": "infinite",
						"deleteAsk(uint256)": "86142",
						"insertionSortAsk()": "infinite",
						"insertionSortBid()": "infinite",
						"sortAsk(struct OrderBook.order memory)": "infinite",
						"sortBid(struct OrderBook.order memory)": "infinite"
					}
				},
				"methodIdentifiers": {
					"askCount()": "a394fda7",
					"askHead()": "801d9bbd",
					"bidCount()": "b40a5627",
					"bidHead()": "6e5b0f00",
					"cancelAsk(uint256)": "1628e0f5",
					"cancelBid(uint256)": "9703ef35",
					"concatenate(string,string)": "266001d3",
					"fetchAsk()": "44e791e0",
					"fetchBid()": "0f38f2b1",
					"getAskAddress(uint256)": "734a2e78",
					"getAskNext(uint256)": "733672f4",
					"getAskPrev(uint256)": "d05c28cb",
					"getAskState(uint256)": "4d46712d",
					"getAskValue(uint256)": "db3a1396",
					"getBidAddress(uint256)": "69f632e2",
					"getBidState(uint256)": "bf77ffae",
					"getBidValue(uint256)": "2db6dfa7",
					"placeAsk(uint256)": "78c5b268",
					"placeBid(uint256)": "9979ef45"
				}
			},
			"storageLayout": {
				"storage": [
					{
						"astId": 9,
						"contract": "contracts/OrderBook.sol:OrderBook",
						"label": "bidValues",
						"offset": 0,
						"slot": "0",
						"type": "t_mapping(t_uint256,t_uint256)"
					},
					{
						"astId": 16,
						"contract": "contracts/OrderBook.sol:OrderBook",
						"label": "_owner",
						"offset": 0,
						"slot": "1",
						"type": "t_address_payable"
					},
					{
						"astId": 18,
						"contract": "contracts/OrderBook.sol:OrderBook",
						"label": "commission",
						"offset": 0,
						"slot": "2",
						"type": "t_uint256"
					},
					{
						"astId": 39,
						"contract": "contracts/OrderBook.sol:OrderBook",
						"label": "bidBook",
						"offset": 0,
						"slot": "3",
						"type": "t_mapping(t_uint256,t_struct(order)34_storage)"
					},
					{
						"astId": 41,
						"contract": "contracts/OrderBook.sol:OrderBook",
						"label": "bidHead",
						"offset": 0,
						"slot": "4",
						"type": "t_uint256"
					},
					{
						"astId": 43,
						"contract": "contracts/OrderBook.sol:OrderBook",
						"label": "bidCount",
						"offset": 0,
						"slot": "5",
						"type": "t_uint256"
					},
					{
						"astId": 48,
						"contract": "contracts/OrderBook.sol:OrderBook",
						"label": "askBook",
						"offset": 0,
						"slot": "6",
						"type": "t_mapping(t_uint256,t_struct(order)34_storage)"
					},
					{
						"astId": 50,
						"contract": "contracts/OrderBook.sol:OrderBook",
						"label": "askHead",
						"offset": 0,
						"slot": "7",
						"type": "t_uint256"
					},
					{
						"astId": 52,
						"contract": "contracts/OrderBook.sol:OrderBook",
						"label": "askCount",
						"offset": 0,
						"slot": "8",
						"type": "t_uint256"
					}
				],
				"types": {
					"t_address_payable": {
						"encoding": "inplace",
						"label": "address payable",
						"numberOfBytes": "20"
					},
					"t_enum(State)5": {
						"encoding": "inplace",
						"label": "enum OrderBook.State",
						"numberOfBytes": "1"
					},
					"t_mapping(t_uint256,t_struct(order)34_storage)": {
						"encoding": "mapping",
						"key": "t_uint256",
						"label": "mapping(uint256 => struct OrderBook.order)",
						"numberOfBytes": "32",
						"value": "t_struct(order)34_storage"
					},
					"t_mapping(t_uint256,t_uint256)": {
						"encoding": "mapping",
						"key": "t_uint256",
						"label": "mapping(uint256 => uint256)",
						"numberOfBytes": "32",
						"value": "t_uint256"
					},
					"t_struct(order)34_storage": {
						"encoding": "inplace",
						"label": "struct OrderBook.order",
						"members": [
							{
								"astId": 20,
								"contract": "contracts/OrderBook.sol:OrderBook",
								"label": "customer",
								"offset": 0,
								"slot": "0",
								"type": "t_address_payable"
							},
							{
								"astId": 22,
								"contract": "contracts/OrderBook.sol:OrderBook",
								"label": "value",
								"offset": 0,
								"slot": "1",
								"type": "t_uint256"
							},
							{
								"astId": 24,
								"contract": "contracts/OrderBook.sol:OrderBook",
								"label": "timestamp",
								"offset": 0,
								"slot": "2",
								"type": "t_uint256"
							},
							{
								"astId": 27,
								"contract": "contracts/OrderBook.sol:OrderBook",
								"label": "state",
								"offset": 0,
								"slot": "3",
								"type": "t_enum(State)5"
							},
							{
								"astId": 29,
								"contract": "contracts/OrderBook.sol:OrderBook",
								"label": "id",
								"offset": 0,
								"slot": "4",
								"type": "t_uint256"
							},
							{
								"astId": 31,
								"contract": "contracts/OrderBook.sol:OrderBook",
								"label": "next",
								"offset": 0,
								"slot": "5",
								"type": "t_uint256"
							},
							{
								"astId": 33,
								"contract": "contracts/OrderBook.sol:OrderBook",
								"label": "prev",
								"offset": 0,
								"slot": "6",
								"type": "t_uint256"
							}
						],
						"numberOfBytes": "224"
					},
					"t_uint256": {
						"encoding": "inplace",
						"label": "uint256",
						"numberOfBytes": "32"
					}
				}
			},
			"userdoc": {
				"kind": "user",
				"methods": {},
				"version": 1
			}
		}
	}
}