{
	"contracts/OrderBook.sol": {
		"OrderBook": {
			"abi": [
				{
					"inputs": [
						{
							"internalType": "uint256",
							"name": "_commission",
							"type": "uint256"
						}
					],
					"stateMutability": "nonpayable",
					"type": "constructor"
				},
				{
					"anonymous": false,
					"inputs": [
						{
							"indexed": false,
							"internalType": "uint256",
							"name": "",
							"type": "uint256"
						},
						{
							"indexed": false,
							"internalType": "uint256",
							"name": "",
							"type": "uint256"
						}
					],
					"name": "askLink",
					"type": "event"
				},
				{
					"anonymous": false,
					"inputs": [
						{
							"indexed": false,
							"internalType": "uint256",
							"name": "",
							"type": "uint256"
						},
						{
							"indexed": false,
							"internalType": "uint256",
							"name": "",
							"type": "uint256"
						}
					],
					"name": "bidLink",
					"type": "event"
				},
				{
					"anonymous": false,
					"inputs": [
						{
							"indexed": false,
							"internalType": "uint256",
							"name": "",
							"type": "uint256"
						}
					],
					"name": "newHead",
					"type": "event"
				},
				{
					"anonymous": false,
					"inputs": [
						{
							"indexed": false,
							"internalType": "uint256",
							"name": "",
							"type": "uint256"
						}
					],
					"name": "newTail",
					"type": "event"
				},
				{
					"anonymous": false,
					"inputs": [
						{
							"indexed": false,
							"internalType": "address",
							"name": "",
							"type": "address"
						},
						{
							"indexed": false,
							"internalType": "uint256",
							"name": "",
							"type": "uint256"
						},
						{
							"indexed": false,
							"internalType": "uint256",
							"name": "",
							"type": "uint256"
						},
						{
							"indexed": false,
							"internalType": "enum OrderBook.State",
							"name": "",
							"type": "uint8"
						},
						{
							"indexed": false,
							"internalType": "uint256",
							"name": "",
							"type": "uint256"
						},
						{
							"indexed": false,
							"internalType": "uint256",
							"name": "",
							"type": "uint256"
						},
						{
							"indexed": false,
							"internalType": "uint256",
							"name": "",
							"type": "uint256"
						},
						{
							"indexed": false,
							"internalType": "bool",
							"name": "",
							"type": "bool"
						}
					],
					"name": "orderCreated",
					"type": "event"
				},
				{
					"inputs": [],
					"name": "askCount",
					"outputs": [
						{
							"internalType": "uint256",
							"name": "",
							"type": "uint256"
						}
					],
					"stateMutability": "view",
					"type": "function"
				},
				{
					"inputs": [],
					"name": "askHead",
					"outputs": [
						{
							"internalType": "uint256",
							"name": "",
							"type": "uint256"
						}
					],
					"stateMutability": "view",
					"type": "function"
				},
				{
					"inputs": [],
					"name": "bidCount",
					"outputs": [
						{
							"internalType": "uint256",
							"name": "",
							"type": "uint256"
						}
					],
					"stateMutability": "view",
					"type": "function"
				},
				{
					"inputs": [],
					"name": "bidHead",
					"outputs": [
						{
							"internalType": "uint256",
							"name": "",
							"type": "uint256"
						}
					],
					"stateMutability": "view",
					"type": "function"
				},
				{
					"inputs": [
						{
							"internalType": "uint256",
							"name": "askId",
							"type": "uint256"
						}
					],
					"name": "cancelAsk",
					"outputs": [],
					"stateMutability": "nonpayable",
					"type": "function"
				},
				{
					"inputs": [
						{
							"internalType": "uint256",
							"name": "bidId",
							"type": "uint256"
						}
					],
					"name": "cancelBid",
					"outputs": [],
					"stateMutability": "nonpayable",
					"type": "function"
				},
				{
					"inputs": [
						{
							"internalType": "string",
							"name": "a",
							"type": "string"
						},
						{
							"internalType": "string",
							"name": "b",
							"type": "string"
						}
					],
					"name": "concatenate",
					"outputs": [
						{
							"internalType": "string",
							"name": "",
							"type": "string"
						}
					],
					"stateMutability": "pure",
					"type": "function"
				},
				{
					"inputs": [],
					"name": "fetchAllBid",
					"outputs": [
						{
							"components": [
								{
									"internalType": "address payable",
									"name": "customer",
									"type": "address"
								},
								{
									"internalType": "uint256",
									"name": "value",
									"type": "uint256"
								},
								{
									"internalType": "uint256",
									"name": "timestamp",
									"type": "uint256"
								},
								{
									"internalType": "enum OrderBook.State",
									"name": "state",
									"type": "uint8"
								},
								{
									"internalType": "uint256",
									"name": "id",
									"type": "uint256"
								},
								{
									"internalType": "uint256",
									"name": "next",
									"type": "uint256"
								},
								{
									"internalType": "uint256",
									"name": "prev",
									"type": "uint256"
								}
							],
							"internalType": "struct OrderBook.order[]",
							"name": "",
							"type": "tuple[]"
						}
					],
					"stateMutability": "nonpayable",
					"type": "function"
				},
				{
					"inputs": [],
					"name": "fetchAsk",
					"outputs": [
						{
							"internalType": "string",
							"name": "",
							"type": "string"
						}
					],
					"stateMutability": "view",
					"type": "function"
				},
				{
					"inputs": [],
					"name": "fetchYourAskIds",
					"outputs": [
						{
							"internalType": "uint256[]",
							"name": "",
							"type": "uint256[]"
						}
					],
					"stateMutability": "nonpayable",
					"type": "function"
				},
				{
					"inputs": [],
					"name": "fetchYourBidIds",
					"outputs": [
						{
							"internalType": "uint256[]",
							"name": "",
							"type": "uint256[]"
						}
					],
					"stateMutability": "nonpayable",
					"type": "function"
				},
				{
					"inputs": [
						{
							"internalType": "uint256",
							"name": "id",
							"type": "uint256"
						}
					],
					"name": "getAskAddress",
					"outputs": [
						{
							"internalType": "address payable",
							"name": "",
							"type": "address"
						}
					],
					"stateMutability": "view",
					"type": "function"
				},
				{
					"inputs": [
						{
							"internalType": "uint256",
							"name": "id",
							"type": "uint256"
						}
					],
					"name": "getAskState",
					"outputs": [
						{
							"internalType": "enum OrderBook.State",
							"name": "",
							"type": "uint8"
						}
					],
					"stateMutability": "view",
					"type": "function"
				},
				{
					"inputs": [
						{
							"internalType": "uint256",
							"name": "id",
							"type": "uint256"
						}
					],
					"name": "getAskValue",
					"outputs": [
						{
							"internalType": "uint256",
							"name": "",
							"type": "uint256"
						}
					],
					"stateMutability": "view",
					"type": "function"
				},
				{
					"inputs": [
						{
							"internalType": "uint256",
							"name": "id",
							"type": "uint256"
						}
					],
					"name": "getBidAddress",
					"outputs": [
						{
							"internalType": "address payable",
							"name": "",
							"type": "address"
						}
					],
					"stateMutability": "view",
					"type": "function"
				},
				{
					"inputs": [
						{
							"internalType": "uint256",
							"name": "id",
							"type": "uint256"
						}
					],
					"name": "getBidState",
					"outputs": [
						{
							"internalType": "enum OrderBook.State",
							"name": "",
							"type": "uint8"
						}
					],
					"stateMutability": "view",
					"type": "function"
				},
				{
					"inputs": [
						{
							"internalType": "uint256",
							"name": "id",
							"type": "uint256"
						}
					],
					"name": "getBidValue",
					"outputs": [
						{
							"internalType": "uint256",
							"name": "",
							"type": "uint256"
						}
					],
					"stateMutability": "view",
					"type": "function"
				},
				{
					"inputs": [
						{
							"internalType": "uint256",
							"name": "id",
							"type": "uint256"
						}
					],
					"name": "getOrder",
					"outputs": [
						{
							"internalType": "address payable",
							"name": "",
							"type": "address"
						},
						{
							"internalType": "uint256",
							"name": "",
							"type": "uint256"
						},
						{
							"internalType": "uint256",
							"name": "",
							"type": "uint256"
						},
						{
							"internalType": "enum OrderBook.State",
							"name": "",
							"type": "uint8"
						},
						{
							"internalType": "uint256",
							"name": "",
							"type": "uint256"
						},
						{
							"internalType": "uint256",
							"name": "",
							"type": "uint256"
						},
						{
							"internalType": "uint256",
							"name": "",
							"type": "uint256"
						},
						{
							"internalType": "bool",
							"name": "",
							"type": "bool"
						}
					],
					"stateMutability": "view",
					"type": "function"
				},
				{
					"inputs": [
						{
							"internalType": "uint256",
							"name": "price",
							"type": "uint256"
						}
					],
					"name": "placeAsk",
					"outputs": [],
					"stateMutability": "payable",
					"type": "function"
				},
				{
					"inputs": [
						{
							"internalType": "uint256",
							"name": "price",
							"type": "uint256"
						}
					],
					"name": "placeBid",
					"outputs": [],
					"stateMutability": "payable",
					"type": "function"
				}
			],
			"devdoc": {
				"kind": "dev",
				"methods": {},
				"version": 1
			},
			"evm": {
				"assembly": "    /* \"contracts/OrderBook.sol\":1155:8888  contract OrderBook {... */\n  mstore(0x40, 0x80)\n    /* \"contracts/OrderBook.sol\":1358:1368  msg.sender */\n  caller\n    /* \"contracts/OrderBook.sol\":1325:1369  address payable _owner = payable(msg.sender) */\n  0x01\n  exp(0x0100, 0x00)\n  dup2\n  sload\n  dup2\n  0xffffffffffffffffffffffffffffffffffffffff\n  mul\n  not\n  and\n  swap1\n  dup4\n  0xffffffffffffffffffffffffffffffffffffffff\n  and\n  mul\n  or\n  swap1\n  sstore\n  pop\n    /* \"contracts/OrderBook.sol\":2292:2453  constructor (uint256 _commission) {... */\n  callvalue\n  dup1\n  iszero\n  tag_1\n  jumpi\n  0x00\n  dup1\n  revert\ntag_1:\n  pop\n  mload(0x40)\n  sub(codesize, bytecodeSize)\n  dup1\n  bytecodeSize\n  dup4\n  codecopy\n  dup2\n  dup2\n  add\n  0x40\n  mstore\n  dup2\n  add\n  swap1\n  tag_2\n  swap2\n  swap1\n  tag_3\n  jump\t// in\ntag_2:\n    /* \"contracts/OrderBook.sol\":2349:2360  _commission */\n  dup1\n    /* \"contracts/OrderBook.sol\":2336:2346  commission */\n  0x02\n    /* \"contracts/OrderBook.sol\":2336:2360  commission = _commission */\n  dup2\n  swap1\n  sstore\n  pop\n    /* \"contracts/OrderBook.sol\":2380:2381  0 */\n  0x00\n    /* \"contracts/OrderBook.sol\":2370:2377  bidHead */\n  0x04\n    /* \"contracts/OrderBook.sol\":2370:2381  bidHead = 0 */\n  dup2\n  swap1\n  sstore\n  pop\n    /* \"contracts/OrderBook.sol\":2402:2403  0 */\n  0x00\n    /* \"contracts/OrderBook.sol\":2391:2399  bidCount */\n  0x05\n    /* \"contracts/OrderBook.sol\":2391:2403  bidCount = 0 */\n  dup2\n  swap1\n  sstore\n  pop\n    /* \"contracts/OrderBook.sol\":2423:2424  0 */\n  0x00\n    /* \"contracts/OrderBook.sol\":2413:2420  askHead */\n  0x07\n    /* \"contracts/OrderBook.sol\":2413:2424  askHead = 0 */\n  dup2\n  swap1\n  sstore\n  pop\n    /* \"contracts/OrderBook.sol\":2445:2446  0 */\n  0x00\n    /* \"contracts/OrderBook.sol\":2434:2442  askCount */\n  0x08\n    /* \"contracts/OrderBook.sol\":2434:2446  askCount = 0 */\n  dup2\n  swap1\n  sstore\n  pop\n    /* \"contracts/OrderBook.sol\":2292:2453  constructor (uint256 _commission) {... */\n  pop\n    /* \"contracts/OrderBook.sol\":1155:8888  contract OrderBook {... */\n  jump(tag_6)\n    /* \"#utility.yul\":88:205   */\ntag_8:\n    /* \"#utility.yul\":197:198   */\n  0x00\n    /* \"#utility.yul\":194:195   */\n  dup1\n    /* \"#utility.yul\":187:199   */\n  revert\n    /* \"#utility.yul\":334:411   */\ntag_10:\n    /* \"#utility.yul\":371:378   */\n  0x00\n    /* \"#utility.yul\":400:405   */\n  dup2\n    /* \"#utility.yul\":389:405   */\n  swap1\n  pop\n    /* \"#utility.yul\":334:411   */\n  swap2\n  swap1\n  pop\n  jump\t// out\n    /* \"#utility.yul\":417:539   */\ntag_11:\n    /* \"#utility.yul\":490:514   */\n  tag_19\n    /* \"#utility.yul\":508:513   */\n  dup2\n    /* \"#utility.yul\":490:514   */\n  tag_10\n  jump\t// in\ntag_19:\n    /* \"#utility.yul\":483:488   */\n  dup2\n    /* \"#utility.yul\":480:515   */\n  eq\n    /* \"#utility.yul\":470:533   */\n  tag_20\n  jumpi\n    /* \"#utility.yul\":529:530   */\n  0x00\n    /* \"#utility.yul\":526:527   */\n  dup1\n    /* \"#utility.yul\":519:531   */\n  revert\n    /* \"#utility.yul\":470:533   */\ntag_20:\n    /* \"#utility.yul\":417:539   */\n  pop\n  jump\t// out\n    /* \"#utility.yul\":545:688   */\ntag_12:\n    /* \"#utility.yul\":602:607   */\n  0x00\n    /* \"#utility.yul\":633:639   */\n  dup2\n    /* \"#utility.yul\":627:640   */\n  mload\n    /* \"#utility.yul\":618:640   */\n  swap1\n  pop\n    /* \"#utility.yul\":649:682   */\n  tag_22\n    /* \"#utility.yul\":676:681   */\n  dup2\n    /* \"#utility.yul\":649:682   */\n  tag_11\n  jump\t// in\ntag_22:\n    /* \"#utility.yul\":545:688   */\n  swap3\n  swap2\n  pop\n  pop\n  jump\t// out\n    /* \"#utility.yul\":694:1045   */\ntag_3:\n    /* \"#utility.yul\":764:770   */\n  0x00\n    /* \"#utility.yul\":813:815   */\n  0x20\n    /* \"#utility.yul\":801:810   */\n  dup3\n    /* \"#utility.yul\":792:799   */\n  dup5\n    /* \"#utility.yul\":788:811   */\n  sub\n    /* \"#utility.yul\":784:816   */\n  slt\n    /* \"#utility.yul\":781:900   */\n  iszero\n  tag_24\n  jumpi\n    /* \"#utility.yul\":819:898   */\n  tag_25\n  tag_8\n  jump\t// in\ntag_25:\n    /* \"#utility.yul\":781:900   */\ntag_24:\n    /* \"#utility.yul\":939:940   */\n  0x00\n    /* \"#utility.yul\":964:1028   */\n  tag_26\n    /* \"#utility.yul\":1020:1027   */\n  dup5\n    /* \"#utility.yul\":1011:1017   */\n  dup3\n    /* \"#utility.yul\":1000:1009   */\n  dup6\n    /* \"#utility.yul\":996:1018   */\n  add\n    /* \"#utility.yul\":964:1028   */\n  tag_12\n  jump\t// in\ntag_26:\n    /* \"#utility.yul\":954:1028   */\n  swap2\n  pop\n    /* \"#utility.yul\":910:1038   */\n  pop\n    /* \"#utility.yul\":694:1045   */\n  swap3\n  swap2\n  pop\n  pop\n  jump\t// out\n    /* \"contracts/OrderBook.sol\":1155:8888  contract OrderBook {... */\ntag_6:\n  dataSize(sub_0)\n  dup1\n  dataOffset(sub_0)\n  0x00\n  codecopy\n  0x00\n  return\nstop\n\nsub_0: assembly {\n        /* \"contracts/OrderBook.sol\":1155:8888  contract OrderBook {... */\n      mstore(0x40, 0x80)\n      jumpi(tag_1, lt(calldatasize, 0x04))\n      shr(0xe0, calldataload(0x00))\n      dup1\n      0x78c5b268\n      gt\n      tag_22\n      jumpi\n      dup1\n      0xb40a5627\n      gt\n      tag_23\n      jumpi\n      dup1\n      0xb40a5627\n      eq\n      tag_17\n      jumpi\n      dup1\n      0xbf77ffae\n      eq\n      tag_18\n      jumpi\n      dup1\n      0xce0cdc87\n      eq\n      tag_19\n      jumpi\n      dup1\n      0xd09ef241\n      eq\n      tag_20\n      jumpi\n      dup1\n      0xdb3a1396\n      eq\n      tag_21\n      jumpi\n      jump(tag_1)\n    tag_23:\n      dup1\n      0x78c5b268\n      eq\n      tag_12\n      jumpi\n      dup1\n      0x801d9bbd\n      eq\n      tag_13\n      jumpi\n      dup1\n      0x9703ef35\n      eq\n      tag_14\n      jumpi\n      dup1\n      0x9979ef45\n      eq\n      tag_15\n      jumpi\n      dup1\n      0xa394fda7\n      eq\n      tag_16\n      jumpi\n      jump(tag_1)\n    tag_22:\n      dup1\n      0x44e791e0\n      gt\n      tag_24\n      jumpi\n      dup1\n      0x44e791e0\n      eq\n      tag_7\n      jumpi\n      dup1\n      0x4d46712d\n      eq\n      tag_8\n      jumpi\n      dup1\n      0x69f632e2\n      eq\n      tag_9\n      jumpi\n      dup1\n      0x6e5b0f00\n      eq\n      tag_10\n      jumpi\n      dup1\n      0x734a2e78\n      eq\n      tag_11\n      jumpi\n      jump(tag_1)\n    tag_24:\n      dup1\n      0x122de8f2\n      eq\n      tag_2\n      jumpi\n      dup1\n      0x1628e0f5\n      eq\n      tag_3\n      jumpi\n      dup1\n      0x266001d3\n      eq\n      tag_4\n      jumpi\n      dup1\n      0x2db6dfa7\n      eq\n      tag_5\n      jumpi\n      dup1\n      0x4471417f\n      eq\n      tag_6\n      jumpi\n    tag_1:\n      0x00\n      dup1\n      revert\n        /* \"contracts/OrderBook.sol\":7805:7873  function fetchYourAskIds() public returns (uint256[] memory) {... */\n    tag_2:\n      callvalue\n      dup1\n      iszero\n      tag_25\n      jumpi\n      0x00\n      dup1\n      revert\n    tag_25:\n      pop\n      tag_26\n      tag_27\n      jump\t// in\n    tag_26:\n      mload(0x40)\n      tag_28\n      swap2\n      swap1\n      tag_29\n      jump\t// in\n    tag_28:\n      mload(0x40)\n      dup1\n      swap2\n      sub\n      swap1\n      return\n        /* \"contracts/OrderBook.sol\":6936:7228  function cancelAsk (uint256 askId) public isPending(askBook[askId]) isAuthorised(askBook[askId], msg.sender) {... */\n    tag_3:\n      callvalue\n      dup1\n      iszero\n      tag_30\n      jumpi\n      0x00\n      dup1\n      revert\n    tag_30:\n      pop\n      tag_31\n      0x04\n      dup1\n      calldatasize\n      sub\n      dup2\n      add\n      swap1\n      tag_32\n      swap2\n      swap1\n      tag_33\n      jump\t// in\n    tag_32:\n      tag_34\n      jump\t// in\n    tag_31:\n      stop\n        /* \"contracts/OrderBook.sol\":5503:5649  function concatenate(string memory a,string memory b) public pure returns (string memory){... */\n    tag_4:\n      callvalue\n      dup1\n      iszero\n      tag_35\n      jumpi\n      0x00\n      dup1\n      revert\n    tag_35:\n      pop\n      tag_36\n      0x04\n      dup1\n      calldatasize\n      sub\n      dup2\n      add\n      swap1\n      tag_37\n      swap2\n      swap1\n      tag_38\n      jump\t// in\n    tag_37:\n      tag_39\n      jump\t// in\n    tag_36:\n      mload(0x40)\n      tag_40\n      swap2\n      swap1\n      tag_41\n      jump\t// in\n    tag_40:\n      mload(0x40)\n      dup1\n      swap2\n      sub\n      swap1\n      return\n        /* \"contracts/OrderBook.sol\":8455:8559  function getBidValue (uint256 id) public view returns(uint256) {... */\n    tag_5:\n      callvalue\n      dup1\n      iszero\n      tag_42\n      jumpi\n      0x00\n      dup1\n      revert\n    tag_42:\n      pop\n      tag_43\n      0x04\n      dup1\n      calldatasize\n      sub\n      dup2\n      add\n      swap1\n      tag_44\n      swap2\n      swap1\n      tag_33\n      jump\t// in\n    tag_44:\n      tag_45\n      jump\t// in\n    tag_43:\n      mload(0x40)\n      tag_46\n      swap2\n      swap1\n      tag_47\n      jump\t// in\n    tag_46:\n      mload(0x40)\n      dup1\n      swap2\n      sub\n      swap1\n      return\n        /* \"contracts/OrderBook.sol\":7662:7724  function fetchAllBid() public returns (order[] memory) {... */\n    tag_6:\n      callvalue\n      dup1\n      iszero\n      tag_48\n      jumpi\n      0x00\n      dup1\n      revert\n    tag_48:\n      pop\n      tag_49\n      tag_50\n      jump\t// in\n    tag_49:\n      mload(0x40)\n      tag_51\n      swap2\n      swap1\n      tag_52\n      jump\t// in\n    tag_51:\n      mload(0x40)\n      dup1\n      swap2\n      sub\n      swap1\n      return\n        /* \"contracts/OrderBook.sol\":7262:7656  function fetchAsk() public view returns (string memory) {... */\n    tag_7:\n      callvalue\n      dup1\n      iszero\n      tag_53\n      jumpi\n      0x00\n      dup1\n      revert\n    tag_53:\n      pop\n      tag_54\n      tag_55\n      jump\t// in\n    tag_54:\n      mload(0x40)\n      tag_56\n      swap2\n      swap1\n      tag_41\n      jump\t// in\n    tag_56:\n      mload(0x40)\n      dup1\n      swap2\n      sub\n      swap1\n      return\n        /* \"contracts/OrderBook.sol\":8783:8885  function getAskState (uint256 id) public view returns(State) {... */\n    tag_8:\n      callvalue\n      dup1\n      iszero\n      tag_57\n      jumpi\n      0x00\n      dup1\n      revert\n    tag_57:\n      pop\n      tag_58\n      0x04\n      dup1\n      calldatasize\n      sub\n      dup2\n      add\n      swap1\n      tag_59\n      swap2\n      swap1\n      tag_33\n      jump\t// in\n    tag_59:\n      tag_60\n      jump\t// in\n    tag_58:\n      mload(0x40)\n      tag_61\n      swap2\n      swap1\n      tag_62\n      jump\t// in\n    tag_61:\n      mload(0x40)\n      dup1\n      swap2\n      sub\n      swap1\n      return\n        /* \"contracts/OrderBook.sol\":8209:8326  function getBidAddress (uint256 id) public view returns(address payable) {... */\n    tag_9:\n      callvalue\n      dup1\n      iszero\n      tag_63\n      jumpi\n      0x00\n      dup1\n      revert\n    tag_63:\n      pop\n      tag_64\n      0x04\n      dup1\n      calldatasize\n      sub\n      dup2\n      add\n      swap1\n      tag_65\n      swap2\n      swap1\n      tag_33\n      jump\t// in\n    tag_65:\n      tag_66\n      jump\t// in\n    tag_64:\n      mload(0x40)\n      tag_67\n      swap2\n      swap1\n      tag_68\n      jump\t// in\n    tag_67:\n      mload(0x40)\n      dup1\n      swap2\n      sub\n      swap1\n      return\n        /* \"contracts/OrderBook.sol\":1822:1844  uint256 public bidHead */\n    tag_10:\n      callvalue\n      dup1\n      iszero\n      tag_69\n      jumpi\n      0x00\n      dup1\n      revert\n    tag_69:\n      pop\n      tag_70\n      tag_71\n      jump\t// in\n    tag_70:\n      mload(0x40)\n      tag_72\n      swap2\n      swap1\n      tag_47\n      jump\t// in\n    tag_72:\n      mload(0x40)\n      dup1\n      swap2\n      sub\n      swap1\n      return\n        /* \"contracts/OrderBook.sol\":8332:8449  function getAskAddress (uint256 id) public view returns(address payable) {... */\n    tag_11:\n      callvalue\n      dup1\n      iszero\n      tag_73\n      jumpi\n      0x00\n      dup1\n      revert\n    tag_73:\n      pop\n      tag_74\n      0x04\n      dup1\n      calldatasize\n      sub\n      dup2\n      add\n      swap1\n      tag_75\n      swap2\n      swap1\n      tag_33\n      jump\t// in\n    tag_75:\n      tag_76\n      jump\t// in\n    tag_74:\n      mload(0x40)\n      tag_77\n      swap2\n      swap1\n      tag_68\n      jump\t// in\n    tag_77:\n      mload(0x40)\n      dup1\n      swap2\n      sub\n      swap1\n      return\n        /* \"contracts/OrderBook.sol\":6526:6930  function placeAsk (uint256 price) public payable {... */\n    tag_12:\n      tag_78\n      0x04\n      dup1\n      calldatasize\n      sub\n      dup2\n      add\n      swap1\n      tag_79\n      swap2\n      swap1\n      tag_33\n      jump\t// in\n    tag_79:\n      tag_80\n      jump\t// in\n    tag_78:\n      stop\n        /* \"contracts/OrderBook.sol\":1967:1989  uint256 public askHead */\n    tag_13:\n      callvalue\n      dup1\n      iszero\n      tag_81\n      jumpi\n      0x00\n      dup1\n      revert\n    tag_81:\n      pop\n      tag_82\n      tag_83\n      jump\t// in\n    tag_82:\n      mload(0x40)\n      tag_84\n      swap2\n      swap1\n      tag_47\n      jump\t// in\n    tag_84:\n      mload(0x40)\n      dup1\n      swap2\n      sub\n      swap1\n      return\n        /* \"contracts/OrderBook.sol\":6263:6520  function cancelBid (uint256 bidId) public isPending(bidBook[bidId]) isAuthorised(bidBook[bidId], msg.sender) {... */\n    tag_14:\n      callvalue\n      dup1\n      iszero\n      tag_85\n      jumpi\n      0x00\n      dup1\n      revert\n    tag_85:\n      pop\n      tag_86\n      0x04\n      dup1\n      calldatasize\n      sub\n      dup2\n      add\n      swap1\n      tag_87\n      swap2\n      swap1\n      tag_33\n      jump\t// in\n    tag_87:\n      tag_88\n      jump\t// in\n    tag_86:\n      stop\n        /* \"contracts/OrderBook.sol\":5688:6257  function placeBid (uint256 price) public payable {... */\n    tag_15:\n      tag_89\n      0x04\n      dup1\n      calldatasize\n      sub\n      dup2\n      add\n      swap1\n      tag_90\n      swap2\n      swap1\n      tag_33\n      jump\t// in\n    tag_90:\n      tag_91\n      jump\t// in\n    tag_89:\n      stop\n        /* \"contracts/OrderBook.sol\":1995:2018  uint256 public askCount */\n    tag_16:\n      callvalue\n      dup1\n      iszero\n      tag_92\n      jumpi\n      0x00\n      dup1\n      revert\n    tag_92:\n      pop\n      tag_93\n      tag_94\n      jump\t// in\n    tag_93:\n      mload(0x40)\n      tag_95\n      swap2\n      swap1\n      tag_47\n      jump\t// in\n    tag_95:\n      mload(0x40)\n      dup1\n      swap2\n      sub\n      swap1\n      return\n        /* \"contracts/OrderBook.sol\":1850:1873  uint256 public bidCount */\n    tag_17:\n      callvalue\n      dup1\n      iszero\n      tag_96\n      jumpi\n      0x00\n      dup1\n      revert\n    tag_96:\n      pop\n      tag_97\n      tag_98\n      jump\t// in\n    tag_97:\n      mload(0x40)\n      tag_99\n      swap2\n      swap1\n      tag_47\n      jump\t// in\n    tag_99:\n      mload(0x40)\n      dup1\n      swap2\n      sub\n      swap1\n      return\n        /* \"contracts/OrderBook.sol\":8675:8777  function getBidState (uint256 id) public view returns(State) {... */\n    tag_18:\n      callvalue\n      dup1\n      iszero\n      tag_100\n      jumpi\n      0x00\n      dup1\n      revert\n    tag_100:\n      pop\n      tag_101\n      0x04\n      dup1\n      calldatasize\n      sub\n      dup2\n      add\n      swap1\n      tag_102\n      swap2\n      swap1\n      tag_33\n      jump\t// in\n    tag_102:\n      tag_103\n      jump\t// in\n    tag_101:\n      mload(0x40)\n      tag_104\n      swap2\n      swap1\n      tag_62\n      jump\t// in\n    tag_104:\n      mload(0x40)\n      dup1\n      swap2\n      sub\n      swap1\n      return\n        /* \"contracts/OrderBook.sol\":7731:7799  function fetchYourBidIds() public returns (uint256[] memory) {... */\n    tag_19:\n      callvalue\n      dup1\n      iszero\n      tag_105\n      jumpi\n      0x00\n      dup1\n      revert\n    tag_105:\n      pop\n      tag_106\n      tag_107\n      jump\t// in\n    tag_106:\n      mload(0x40)\n      tag_108\n      swap2\n      swap1\n      tag_29\n      jump\t// in\n    tag_108:\n      mload(0x40)\n      dup1\n      swap2\n      sub\n      swap1\n      return\n        /* \"contracts/OrderBook.sol\":7879:8203  function getOrder(uint256 id) public view returns(address payable,uint256,uint256,State,uint256,uint256,uint256,bool) {... */\n    tag_20:\n      callvalue\n      dup1\n      iszero\n      tag_109\n      jumpi\n      0x00\n      dup1\n      revert\n    tag_109:\n      pop\n      tag_110\n      0x04\n      dup1\n      calldatasize\n      sub\n      dup2\n      add\n      swap1\n      tag_111\n      swap2\n      swap1\n      tag_33\n      jump\t// in\n    tag_111:\n      tag_112\n      jump\t// in\n    tag_110:\n      mload(0x40)\n      tag_113\n      swap9\n      swap8\n      swap7\n      swap6\n      swap5\n      swap4\n      swap3\n      swap2\n      swap1\n      tag_114\n      jump\t// in\n    tag_113:\n      mload(0x40)\n      dup1\n      swap2\n      sub\n      swap1\n      return\n        /* \"contracts/OrderBook.sol\":8565:8669  function getAskValue (uint256 id) public view returns(uint256) {... */\n    tag_21:\n      callvalue\n      dup1\n      iszero\n      tag_115\n      jumpi\n      0x00\n      dup1\n      revert\n    tag_115:\n      pop\n      tag_116\n      0x04\n      dup1\n      calldatasize\n      sub\n      dup2\n      add\n      swap1\n      tag_117\n      swap2\n      swap1\n      tag_33\n      jump\t// in\n    tag_117:\n      tag_118\n      jump\t// in\n    tag_116:\n      mload(0x40)\n      tag_119\n      swap2\n      swap1\n      tag_47\n      jump\t// in\n    tag_119:\n      mload(0x40)\n      dup1\n      swap2\n      sub\n      swap1\n      return\n        /* \"contracts/OrderBook.sol\":7805:7873  function fetchYourAskIds() public returns (uint256[] memory) {... */\n    tag_27:\n        /* \"contracts/OrderBook.sol\":7848:7864  uint256[] memory */\n      0x60\n        /* \"contracts/OrderBook.sol\":7805:7873  function fetchYourAskIds() public returns (uint256[] memory) {... */\n      swap1\n      jump\t// out\n        /* \"contracts/OrderBook.sol\":6936:7228  function cancelAsk (uint256 askId) public isPending(askBook[askId]) isAuthorised(askBook[askId], msg.sender) {... */\n    tag_34:\n        /* \"contracts/OrderBook.sol\":6988:6995  askBook */\n      0x06\n        /* \"contracts/OrderBook.sol\":6988:7002  askBook[askId] */\n      0x00\n        /* \"contracts/OrderBook.sol\":6996:7001  askId */\n      dup3\n        /* \"contracts/OrderBook.sol\":6988:7002  askBook[askId] */\n      dup2\n      mstore\n      0x20\n      add\n      swap1\n      dup2\n      mstore\n      0x20\n      add\n      0x00\n      keccak256\n        /* \"contracts/OrderBook.sol\":2492:2615  modifier isPending(order memory _order) {... */\n      mload(0x40)\n      dup1\n      0xe0\n      add\n      0x40\n      mstore\n      swap1\n      dup2\n      0x00\n      dup3\n      add\n      0x00\n      swap1\n      sload\n      swap1\n      0x0100\n      exp\n      swap1\n      div\n      0xffffffffffffffffffffffffffffffffffffffff\n      and\n      0xffffffffffffffffffffffffffffffffffffffff\n      and\n      0xffffffffffffffffffffffffffffffffffffffff\n      and\n      dup2\n      mstore\n      0x20\n      add\n      0x01\n      dup3\n      add\n      sload\n      dup2\n      mstore\n      0x20\n      add\n      0x02\n      dup3\n      add\n      sload\n      dup2\n      mstore\n      0x20\n      add\n      0x03\n      dup3\n      add\n      0x00\n      swap1\n      sload\n      swap1\n      0x0100\n      exp\n      swap1\n      div\n      0xff\n      and\n      0x01\n      dup2\n      gt\n      iszero\n      tag_121\n      jumpi\n      tag_122\n      tag_123\n      jump\t// in\n    tag_122:\n    tag_121:\n      0x01\n      dup2\n      gt\n      iszero\n      tag_124\n      jumpi\n      tag_125\n      tag_123\n      jump\t// in\n    tag_125:\n    tag_124:\n      dup2\n      mstore\n      0x20\n      add\n      0x04\n      dup3\n      add\n      sload\n      dup2\n      mstore\n      0x20\n      add\n      0x05\n      dup3\n      add\n      sload\n      dup2\n      mstore\n      0x20\n      add\n      0x06\n      dup3\n      add\n      sload\n      dup2\n      mstore\n      pop\n      pop\n        /* \"contracts/OrderBook.sol\":2566:2579  State.pending */\n      0x00\n        /* \"contracts/OrderBook.sol\":2550:2579  _order.state == State.pending */\n      0x01\n      dup2\n      gt\n      iszero\n      tag_127\n      jumpi\n      tag_128\n      tag_123\n      jump\t// in\n    tag_128:\n    tag_127:\n        /* \"contracts/OrderBook.sol\":2550:2556  _order */\n      dup2\n        /* \"contracts/OrderBook.sol\":2550:2562  _order.state */\n      0x60\n      add\n      mload\n        /* \"contracts/OrderBook.sol\":2550:2579  _order.state == State.pending */\n      0x01\n      dup2\n      gt\n      iszero\n      tag_129\n      jumpi\n      tag_130\n      tag_123\n      jump\t// in\n    tag_130:\n    tag_129:\n      eq\n        /* \"contracts/OrderBook.sol\":2542:2597  require(_order.state == State.pending, \"Order Pending\") */\n      tag_131\n      jumpi\n      mload(0x40)\n      0x08c379a000000000000000000000000000000000000000000000000000000000\n      dup2\n      mstore\n      0x04\n      add\n      tag_132\n      swap1\n      tag_133\n      jump\t// in\n    tag_132:\n      mload(0x40)\n      dup1\n      swap2\n      sub\n      swap1\n      revert\n    tag_131:\n        /* \"contracts/OrderBook.sol\":7017:7024  askBook */\n      0x06\n        /* \"contracts/OrderBook.sol\":7017:7031  askBook[askId] */\n      0x00\n        /* \"contracts/OrderBook.sol\":7025:7030  askId */\n      dup4\n        /* \"contracts/OrderBook.sol\":7017:7031  askBook[askId] */\n      dup2\n      mstore\n      0x20\n      add\n      swap1\n      dup2\n      mstore\n      0x20\n      add\n      0x00\n      keccak256\n        /* \"contracts/OrderBook.sol\":2621:2760  modifier isAuthorised(order memory _order, address sender) {... */\n      mload(0x40)\n      dup1\n      0xe0\n      add\n      0x40\n      mstore\n      swap1\n      dup2\n      0x00\n      dup3\n      add\n      0x00\n      swap1\n      sload\n      swap1\n      0x0100\n      exp\n      swap1\n      div\n      0xffffffffffffffffffffffffffffffffffffffff\n      and\n      0xffffffffffffffffffffffffffffffffffffffff\n      and\n      0xffffffffffffffffffffffffffffffffffffffff\n      and\n      dup2\n      mstore\n      0x20\n      add\n      0x01\n      dup3\n      add\n      sload\n      dup2\n      mstore\n      0x20\n      add\n      0x02\n      dup3\n      add\n      sload\n      dup2\n      mstore\n      0x20\n      add\n      0x03\n      dup3\n      add\n      0x00\n      swap1\n      sload\n      swap1\n      0x0100\n      exp\n      swap1\n      div\n      0xff\n      and\n      0x01\n      dup2\n      gt\n      iszero\n      tag_134\n      jumpi\n      tag_135\n      tag_123\n      jump\t// in\n    tag_135:\n    tag_134:\n      0x01\n      dup2\n      gt\n      iszero\n      tag_136\n      jumpi\n      tag_137\n      tag_123\n      jump\t// in\n    tag_137:\n    tag_136:\n      dup2\n      mstore\n      0x20\n      add\n      0x04\n      dup3\n      add\n      sload\n      dup2\n      mstore\n      0x20\n      add\n      0x05\n      dup3\n      add\n      sload\n      dup2\n      mstore\n      0x20\n      add\n      0x06\n      dup3\n      add\n      sload\n      dup2\n      mstore\n      pop\n      pop\n        /* \"contracts/OrderBook.sol\":7033:7043  msg.sender */\n      caller\n        /* \"contracts/OrderBook.sol\":2717:2723  sender */\n      dup1\n        /* \"contracts/OrderBook.sol\":2698:2723  _order.customer == sender */\n      0xffffffffffffffffffffffffffffffffffffffff\n      and\n        /* \"contracts/OrderBook.sol\":2698:2704  _order */\n      dup3\n        /* \"contracts/OrderBook.sol\":2698:2713  _order.customer */\n      0x00\n      add\n      mload\n        /* \"contracts/OrderBook.sol\":2698:2723  _order.customer == sender */\n      0xffffffffffffffffffffffffffffffffffffffff\n      and\n      eq\n        /* \"contracts/OrderBook.sol\":2690:2742  require(_order.customer == sender, \"Not Authorised\") */\n      tag_139\n      jumpi\n      mload(0x40)\n      0x08c379a000000000000000000000000000000000000000000000000000000000\n      dup2\n      mstore\n      0x04\n      add\n      tag_140\n      swap1\n      tag_141\n      jump\t// in\n    tag_140:\n      mload(0x40)\n      dup1\n      swap2\n      sub\n      swap1\n      revert\n    tag_139:\n        /* \"contracts/OrderBook.sol\":2607:2608  _ */\n      pop\n      pop\n        /* \"contracts/OrderBook.sol\":6936:7228  function cancelAsk (uint256 askId) public isPending(askBook[askId]) isAuthorised(askBook[askId], msg.sender) {... */\n      pop\n      pop\n      jump\t// out\n        /* \"contracts/OrderBook.sol\":5503:5649  function concatenate(string memory a,string memory b) public pure returns (string memory){... */\n    tag_39:\n        /* \"contracts/OrderBook.sol\":5578:5591  string memory */\n      0x60\n        /* \"contracts/OrderBook.sol\":5633:5634  a */\n      dup3\n        /* \"contracts/OrderBook.sol\":5639:5640  b */\n      dup3\n        /* \"contracts/OrderBook.sol\":5616:5641  abi.encodePacked(a,' ',b) */\n      add(0x20, mload(0x40))\n      tag_144\n      swap3\n      swap2\n      swap1\n      tag_145\n      jump\t// in\n    tag_144:\n      mload(0x40)\n      0x20\n      dup2\n      dup4\n      sub\n      sub\n      dup2\n      mstore\n      swap1\n      0x40\n      mstore\n        /* \"contracts/OrderBook.sol\":5602:5642  return string(abi.encodePacked(a,' ',b)) */\n      swap1\n      pop\n        /* \"contracts/OrderBook.sol\":5503:5649  function concatenate(string memory a,string memory b) public pure returns (string memory){... */\n      swap3\n      swap2\n      pop\n      pop\n      jump\t// out\n        /* \"contracts/OrderBook.sol\":8455:8559  function getBidValue (uint256 id) public view returns(uint256) {... */\n    tag_45:\n        /* \"contracts/OrderBook.sol\":8509:8516  uint256 */\n      0x00\n        /* \"contracts/OrderBook.sol\":8535:8542  bidBook */\n      0x03\n        /* \"contracts/OrderBook.sol\":8535:8546  bidBook[id] */\n      0x00\n        /* \"contracts/OrderBook.sol\":8543:8545  id */\n      dup4\n        /* \"contracts/OrderBook.sol\":8535:8546  bidBook[id] */\n      dup2\n      mstore\n      0x20\n      add\n      swap1\n      dup2\n      mstore\n      0x20\n      add\n      0x00\n      keccak256\n        /* \"contracts/OrderBook.sol\":8535:8552  bidBook[id].value */\n      0x01\n      add\n      sload\n        /* \"contracts/OrderBook.sol\":8528:8552  return bidBook[id].value */\n      swap1\n      pop\n        /* \"contracts/OrderBook.sol\":8455:8559  function getBidValue (uint256 id) public view returns(uint256) {... */\n      swap2\n      swap1\n      pop\n      jump\t// out\n        /* \"contracts/OrderBook.sol\":7662:7724  function fetchAllBid() public returns (order[] memory) {... */\n    tag_50:\n        /* \"contracts/OrderBook.sol\":7701:7715  order[] memory */\n      0x60\n        /* \"contracts/OrderBook.sol\":7662:7724  function fetchAllBid() public returns (order[] memory) {... */\n      swap1\n      jump\t// out\n        /* \"contracts/OrderBook.sol\":7262:7656  function fetchAsk() public view returns (string memory) {... */\n    tag_55:\n        /* \"contracts/OrderBook.sol\":7303:7316  string memory */\n      0x60\n        /* \"contracts/OrderBook.sol\":7328:7343  uint256 current */\n      0x00\n        /* \"contracts/OrderBook.sol\":7346:7353  askHead */\n      sload(0x07)\n        /* \"contracts/OrderBook.sol\":7328:7353  uint256 current = askHead */\n      swap1\n      pop\n        /* \"contracts/OrderBook.sol\":7363:7383  string memory output */\n      0x00\n        /* \"contracts/OrderBook.sol\":7363:7388  string memory output = \"\" */\n      mload(0x40)\n      dup1\n      0x20\n      add\n      0x40\n      mstore\n      dup1\n      0x00\n      dup2\n      mstore\n      pop\n      swap1\n      pop\n        /* \"contracts/OrderBook.sol\":7398:7627  while (current != 0) {... */\n    tag_149:\n        /* \"contracts/OrderBook.sol\":7416:7417  0 */\n      0x00\n        /* \"contracts/OrderBook.sol\":7405:7412  current */\n      dup3\n        /* \"contracts/OrderBook.sol\":7405:7417  current != 0 */\n      eq\n        /* \"contracts/OrderBook.sol\":7398:7627  while (current != 0) {... */\n      tag_150\n      jumpi\n        /* \"contracts/OrderBook.sol\":7433:7445  uint256 next */\n      0x00\n        /* \"contracts/OrderBook.sol\":7448:7455  askBook */\n      0x06\n        /* \"contracts/OrderBook.sol\":7448:7464  askBook[current] */\n      0x00\n        /* \"contracts/OrderBook.sol\":7456:7463  current */\n      dup5\n        /* \"contracts/OrderBook.sol\":7448:7464  askBook[current] */\n      dup2\n      mstore\n      0x20\n      add\n      swap1\n      dup2\n      mstore\n      0x20\n      add\n      0x00\n      keccak256\n        /* \"contracts/OrderBook.sol\":7448:7469  askBook[current].next */\n      0x05\n      add\n      sload\n        /* \"contracts/OrderBook.sol\":7433:7469  uint256 next = askBook[current].next */\n      swap1\n      pop\n        /* \"contracts/OrderBook.sol\":7483:7507  string memory currString */\n      0x00\n        /* \"contracts/OrderBook.sol\":7510:7535  Strings.toString(current) */\n      tag_151\n        /* \"contracts/OrderBook.sol\":7527:7534  current */\n      dup5\n        /* \"contracts/OrderBook.sol\":7510:7526  Strings.toString */\n      tag_152\n        /* \"contracts/OrderBook.sol\":7510:7535  Strings.toString(current) */\n      jump\t// in\n    tag_151:\n        /* \"contracts/OrderBook.sol\":7483:7535  string memory currString = Strings.toString(current) */\n      swap1\n      pop\n        /* \"contracts/OrderBook.sol\":7558:7588  concatenate(output,currString) */\n      tag_153\n        /* \"contracts/OrderBook.sol\":7570:7576  output */\n      dup4\n        /* \"contracts/OrderBook.sol\":7577:7587  currString */\n      dup3\n        /* \"contracts/OrderBook.sol\":7558:7569  concatenate */\n      tag_39\n        /* \"contracts/OrderBook.sol\":7558:7588  concatenate(output,currString) */\n      jump\t// in\n    tag_153:\n        /* \"contracts/OrderBook.sol\":7549:7588  output = concatenate(output,currString) */\n      swap3\n      pop\n        /* \"contracts/OrderBook.sol\":7612:7616  next */\n      dup2\n        /* \"contracts/OrderBook.sol\":7602:7616  current = next */\n      swap4\n      pop\n        /* \"contracts/OrderBook.sol\":7419:7627  {... */\n      pop\n      pop\n        /* \"contracts/OrderBook.sol\":7398:7627  while (current != 0) {... */\n      jump(tag_149)\n    tag_150:\n        /* \"contracts/OrderBook.sol\":7643:7649  output */\n      dup1\n        /* \"contracts/OrderBook.sol\":7636:7649  return output */\n      swap3\n      pop\n      pop\n      pop\n        /* \"contracts/OrderBook.sol\":7262:7656  function fetchAsk() public view returns (string memory) {... */\n      swap1\n      jump\t// out\n        /* \"contracts/OrderBook.sol\":8783:8885  function getAskState (uint256 id) public view returns(State) {... */\n    tag_60:\n        /* \"contracts/OrderBook.sol\":8837:8842  State */\n      0x00\n        /* \"contracts/OrderBook.sol\":8861:8868  askBook */\n      0x06\n        /* \"contracts/OrderBook.sol\":8861:8872  askBook[id] */\n      0x00\n        /* \"contracts/OrderBook.sol\":8869:8871  id */\n      dup4\n        /* \"contracts/OrderBook.sol\":8861:8872  askBook[id] */\n      dup2\n      mstore\n      0x20\n      add\n      swap1\n      dup2\n      mstore\n      0x20\n      add\n      0x00\n      keccak256\n        /* \"contracts/OrderBook.sol\":8861:8878  askBook[id].state */\n      0x03\n      add\n      0x00\n      swap1\n      sload\n      swap1\n      0x0100\n      exp\n      swap1\n      div\n      0xff\n      and\n        /* \"contracts/OrderBook.sol\":8854:8878  return askBook[id].state */\n      swap1\n      pop\n        /* \"contracts/OrderBook.sol\":8783:8885  function getAskState (uint256 id) public view returns(State) {... */\n      swap2\n      swap1\n      pop\n      jump\t// out\n        /* \"contracts/OrderBook.sol\":8209:8326  function getBidAddress (uint256 id) public view returns(address payable) {... */\n    tag_66:\n        /* \"contracts/OrderBook.sol\":8265:8280  address payable */\n      0x00\n        /* \"contracts/OrderBook.sol\":8299:8306  bidBook */\n      0x03\n        /* \"contracts/OrderBook.sol\":8299:8310  bidBook[id] */\n      0x00\n        /* \"contracts/OrderBook.sol\":8307:8309  id */\n      dup4\n        /* \"contracts/OrderBook.sol\":8299:8310  bidBook[id] */\n      dup2\n      mstore\n      0x20\n      add\n      swap1\n      dup2\n      mstore\n      0x20\n      add\n      0x00\n      keccak256\n        /* \"contracts/OrderBook.sol\":8299:8319  bidBook[id].customer */\n      0x00\n      add\n      0x00\n      swap1\n      sload\n      swap1\n      0x0100\n      exp\n      swap1\n      div\n      0xffffffffffffffffffffffffffffffffffffffff\n      and\n        /* \"contracts/OrderBook.sol\":8292:8319  return bidBook[id].customer */\n      swap1\n      pop\n        /* \"contracts/OrderBook.sol\":8209:8326  function getBidAddress (uint256 id) public view returns(address payable) {... */\n      swap2\n      swap1\n      pop\n      jump\t// out\n        /* \"contracts/OrderBook.sol\":1822:1844  uint256 public bidHead */\n    tag_71:\n      sload(0x04)\n      dup2\n      jump\t// out\n        /* \"contracts/OrderBook.sol\":8332:8449  function getAskAddress (uint256 id) public view returns(address payable) {... */\n    tag_76:\n        /* \"contracts/OrderBook.sol\":8388:8403  address payable */\n      0x00\n        /* \"contracts/OrderBook.sol\":8422:8429  askBook */\n      0x06\n        /* \"contracts/OrderBook.sol\":8422:8433  askBook[id] */\n      0x00\n        /* \"contracts/OrderBook.sol\":8430:8432  id */\n      dup4\n        /* \"contracts/OrderBook.sol\":8422:8433  askBook[id] */\n      dup2\n      mstore\n      0x20\n      add\n      swap1\n      dup2\n      mstore\n      0x20\n      add\n      0x00\n      keccak256\n        /* \"contracts/OrderBook.sol\":8422:8442  askBook[id].customer */\n      0x00\n      add\n      0x00\n      swap1\n      sload\n      swap1\n      0x0100\n      exp\n      swap1\n      div\n      0xffffffffffffffffffffffffffffffffffffffff\n      and\n        /* \"contracts/OrderBook.sol\":8415:8442  return askBook[id].customer */\n      swap1\n      pop\n        /* \"contracts/OrderBook.sol\":8332:8449  function getAskAddress (uint256 id) public view returns(address payable) {... */\n      swap2\n      swap1\n      pop\n      jump\t// out\n        /* \"contracts/OrderBook.sol\":6526:6930  function placeAsk (uint256 price) public payable {... */\n    tag_80:\n        /* \"contracts/OrderBook.sol\":6602:6603  0 */\n      0x00\n        /* \"contracts/OrderBook.sol\":6593:6598  price */\n      dup2\n        /* \"contracts/OrderBook.sol\":6593:6603  price >= 0 */\n      lt\n      iszero\n        /* \"contracts/OrderBook.sol\":6585:6639  require(price >= 0, \"price value must be more than 0\") */\n      tag_158\n      jumpi\n      mload(0x40)\n      0x08c379a000000000000000000000000000000000000000000000000000000000\n      dup2\n      mstore\n      0x04\n      add\n      tag_159\n      swap1\n      tag_160\n      jump\t// in\n    tag_159:\n      mload(0x40)\n      dup1\n      swap2\n      sub\n      swap1\n      revert\n    tag_158:\n        /* \"contracts/OrderBook.sol\":6670:6675  price */\n      dup1\n        /* \"contracts/OrderBook.sol\":6657:6666  msg.value */\n      callvalue\n        /* \"contracts/OrderBook.sol\":6657:6675  msg.value >= price */\n      lt\n      iszero\n        /* \"contracts/OrderBook.sol\":6649:6710  require(msg.value >= price, \"Not enough blance to place ask\") */\n      tag_161\n      jumpi\n      mload(0x40)\n      0x08c379a000000000000000000000000000000000000000000000000000000000\n      dup2\n      mstore\n      0x04\n      add\n      tag_162\n      swap1\n      tag_163\n      jump\t// in\n    tag_162:\n      mload(0x40)\n      dup1\n      swap2\n      sub\n      swap1\n      revert\n    tag_161:\n        /* \"contracts/OrderBook.sol\":6720:6732  uint256 time */\n      0x00\n        /* \"contracts/OrderBook.sol\":6735:6750  block.timestamp */\n      timestamp\n        /* \"contracts/OrderBook.sol\":6720:6750  uint256 time = block.timestamp */\n      swap1\n      pop\n        /* \"contracts/OrderBook.sol\":6760:6785  uint256 commissionedPrice */\n      0x00\n        /* \"contracts/OrderBook.sol\":6819:6822  100 */\n      0x64\n        /* \"contracts/OrderBook.sol\":6805:6815  commission */\n      sload(0x02)\n        /* \"contracts/OrderBook.sol\":6801:6804  100 */\n      0x64\n        /* \"contracts/OrderBook.sol\":6801:6815  100-commission */\n      tag_164\n      swap2\n      swap1\n      tag_165\n      jump\t// in\n    tag_164:\n        /* \"contracts/OrderBook.sol\":6788:6797  msg.value */\n      callvalue\n        /* \"contracts/OrderBook.sol\":6788:6816  msg.value * (100-commission) */\n      tag_166\n      swap2\n      swap1\n      tag_167\n      jump\t// in\n    tag_166:\n        /* \"contracts/OrderBook.sol\":6788:6822  msg.value * (100-commission) / 100 */\n      tag_168\n      swap2\n      swap1\n      tag_169\n      jump\t// in\n    tag_168:\n        /* \"contracts/OrderBook.sol\":6760:6822  uint256 commissionedPrice = msg.value * (100-commission) / 100 */\n      swap1\n      pop\n        /* \"contracts/OrderBook.sol\":6832:6851  order memory newAsk */\n      0x00\n        /* \"contracts/OrderBook.sol\":6854:6898  createAsk(msg.sender,commissionedPrice,time) */\n      tag_170\n        /* \"contracts/OrderBook.sol\":6864:6874  msg.sender */\n      caller\n        /* \"contracts/OrderBook.sol\":6875:6892  commissionedPrice */\n      dup4\n        /* \"contracts/OrderBook.sol\":6893:6897  time */\n      dup6\n        /* \"contracts/OrderBook.sol\":6854:6863  createAsk */\n      tag_171\n        /* \"contracts/OrderBook.sol\":6854:6898  createAsk(msg.sender,commissionedPrice,time) */\n      jump\t// in\n    tag_170:\n        /* \"contracts/OrderBook.sol\":6832:6898  order memory newAsk = createAsk(msg.sender,commissionedPrice,time) */\n      swap1\n      pop\n        /* \"contracts/OrderBook.sol\":6908:6923  sortAsk(newAsk) */\n      tag_172\n        /* \"contracts/OrderBook.sol\":6916:6922  newAsk */\n      dup2\n        /* \"contracts/OrderBook.sol\":6908:6915  sortAsk */\n      tag_173\n        /* \"contracts/OrderBook.sol\":6908:6923  sortAsk(newAsk) */\n      jump\t// in\n    tag_172:\n        /* \"contracts/OrderBook.sol\":6575:6930  {... */\n      pop\n      pop\n      pop\n        /* \"contracts/OrderBook.sol\":6526:6930  function placeAsk (uint256 price) public payable {... */\n      pop\n      jump\t// out\n        /* \"contracts/OrderBook.sol\":1967:1989  uint256 public askHead */\n    tag_83:\n      sload(0x07)\n      dup2\n      jump\t// out\n        /* \"contracts/OrderBook.sol\":6263:6520  function cancelBid (uint256 bidId) public isPending(bidBook[bidId]) isAuthorised(bidBook[bidId], msg.sender) {... */\n    tag_88:\n        /* \"contracts/OrderBook.sol\":6315:6322  bidBook */\n      0x03\n        /* \"contracts/OrderBook.sol\":6315:6329  bidBook[bidId] */\n      0x00\n        /* \"contracts/OrderBook.sol\":6323:6328  bidId */\n      dup3\n        /* \"contracts/OrderBook.sol\":6315:6329  bidBook[bidId] */\n      dup2\n      mstore\n      0x20\n      add\n      swap1\n      dup2\n      mstore\n      0x20\n      add\n      0x00\n      keccak256\n        /* \"contracts/OrderBook.sol\":2492:2615  modifier isPending(order memory _order) {... */\n      mload(0x40)\n      dup1\n      0xe0\n      add\n      0x40\n      mstore\n      swap1\n      dup2\n      0x00\n      dup3\n      add\n      0x00\n      swap1\n      sload\n      swap1\n      0x0100\n      exp\n      swap1\n      div\n      0xffffffffffffffffffffffffffffffffffffffff\n      and\n      0xffffffffffffffffffffffffffffffffffffffff\n      and\n      0xffffffffffffffffffffffffffffffffffffffff\n      and\n      dup2\n      mstore\n      0x20\n      add\n      0x01\n      dup3\n      add\n      sload\n      dup2\n      mstore\n      0x20\n      add\n      0x02\n      dup3\n      add\n      sload\n      dup2\n      mstore\n      0x20\n      add\n      0x03\n      dup3\n      add\n      0x00\n      swap1\n      sload\n      swap1\n      0x0100\n      exp\n      swap1\n      div\n      0xff\n      and\n      0x01\n      dup2\n      gt\n      iszero\n      tag_174\n      jumpi\n      tag_175\n      tag_123\n      jump\t// in\n    tag_175:\n    tag_174:\n      0x01\n      dup2\n      gt\n      iszero\n      tag_176\n      jumpi\n      tag_177\n      tag_123\n      jump\t// in\n    tag_177:\n    tag_176:\n      dup2\n      mstore\n      0x20\n      add\n      0x04\n      dup3\n      add\n      sload\n      dup2\n      mstore\n      0x20\n      add\n      0x05\n      dup3\n      add\n      sload\n      dup2\n      mstore\n      0x20\n      add\n      0x06\n      dup3\n      add\n      sload\n      dup2\n      mstore\n      pop\n      pop\n        /* \"contracts/OrderBook.sol\":2566:2579  State.pending */\n      0x00\n        /* \"contracts/OrderBook.sol\":2550:2579  _order.state == State.pending */\n      0x01\n      dup2\n      gt\n      iszero\n      tag_179\n      jumpi\n      tag_180\n      tag_123\n      jump\t// in\n    tag_180:\n    tag_179:\n        /* \"contracts/OrderBook.sol\":2550:2556  _order */\n      dup2\n        /* \"contracts/OrderBook.sol\":2550:2562  _order.state */\n      0x60\n      add\n      mload\n        /* \"contracts/OrderBook.sol\":2550:2579  _order.state == State.pending */\n      0x01\n      dup2\n      gt\n      iszero\n      tag_181\n      jumpi\n      tag_182\n      tag_123\n      jump\t// in\n    tag_182:\n    tag_181:\n      eq\n        /* \"contracts/OrderBook.sol\":2542:2597  require(_order.state == State.pending, \"Order Pending\") */\n      tag_183\n      jumpi\n      mload(0x40)\n      0x08c379a000000000000000000000000000000000000000000000000000000000\n      dup2\n      mstore\n      0x04\n      add\n      tag_184\n      swap1\n      tag_133\n      jump\t// in\n    tag_184:\n      mload(0x40)\n      dup1\n      swap2\n      sub\n      swap1\n      revert\n    tag_183:\n        /* \"contracts/OrderBook.sol\":6344:6351  bidBook */\n      0x03\n        /* \"contracts/OrderBook.sol\":6344:6358  bidBook[bidId] */\n      0x00\n        /* \"contracts/OrderBook.sol\":6352:6357  bidId */\n      dup4\n        /* \"contracts/OrderBook.sol\":6344:6358  bidBook[bidId] */\n      dup2\n      mstore\n      0x20\n      add\n      swap1\n      dup2\n      mstore\n      0x20\n      add\n      0x00\n      keccak256\n        /* \"contracts/OrderBook.sol\":2621:2760  modifier isAuthorised(order memory _order, address sender) {... */\n      mload(0x40)\n      dup1\n      0xe0\n      add\n      0x40\n      mstore\n      swap1\n      dup2\n      0x00\n      dup3\n      add\n      0x00\n      swap1\n      sload\n      swap1\n      0x0100\n      exp\n      swap1\n      div\n      0xffffffffffffffffffffffffffffffffffffffff\n      and\n      0xffffffffffffffffffffffffffffffffffffffff\n      and\n      0xffffffffffffffffffffffffffffffffffffffff\n      and\n      dup2\n      mstore\n      0x20\n      add\n      0x01\n      dup3\n      add\n      sload\n      dup2\n      mstore\n      0x20\n      add\n      0x02\n      dup3\n      add\n      sload\n      dup2\n      mstore\n      0x20\n      add\n      0x03\n      dup3\n      add\n      0x00\n      swap1\n      sload\n      swap1\n      0x0100\n      exp\n      swap1\n      div\n      0xff\n      and\n      0x01\n      dup2\n      gt\n      iszero\n      tag_185\n      jumpi\n      tag_186\n      tag_123\n      jump\t// in\n    tag_186:\n    tag_185:\n      0x01\n      dup2\n      gt\n      iszero\n      tag_187\n      jumpi\n      tag_188\n      tag_123\n      jump\t// in\n    tag_188:\n    tag_187:\n      dup2\n      mstore\n      0x20\n      add\n      0x04\n      dup3\n      add\n      sload\n      dup2\n      mstore\n      0x20\n      add\n      0x05\n      dup3\n      add\n      sload\n      dup2\n      mstore\n      0x20\n      add\n      0x06\n      dup3\n      add\n      sload\n      dup2\n      mstore\n      pop\n      pop\n        /* \"contracts/OrderBook.sol\":6360:6370  msg.sender */\n      caller\n        /* \"contracts/OrderBook.sol\":2717:2723  sender */\n      dup1\n        /* \"contracts/OrderBook.sol\":2698:2723  _order.customer == sender */\n      0xffffffffffffffffffffffffffffffffffffffff\n      and\n        /* \"contracts/OrderBook.sol\":2698:2704  _order */\n      dup3\n        /* \"contracts/OrderBook.sol\":2698:2713  _order.customer */\n      0x00\n      add\n      mload\n        /* \"contracts/OrderBook.sol\":2698:2723  _order.customer == sender */\n      0xffffffffffffffffffffffffffffffffffffffff\n      and\n      eq\n        /* \"contracts/OrderBook.sol\":2690:2742  require(_order.customer == sender, \"Not Authorised\") */\n      tag_190\n      jumpi\n      mload(0x40)\n      0x08c379a000000000000000000000000000000000000000000000000000000000\n      dup2\n      mstore\n      0x04\n      add\n      tag_191\n      swap1\n      tag_141\n      jump\t// in\n    tag_191:\n      mload(0x40)\n      dup1\n      swap2\n      sub\n      swap1\n      revert\n    tag_190:\n        /* \"contracts/OrderBook.sol\":2607:2608  _ */\n      pop\n      pop\n        /* \"contracts/OrderBook.sol\":6263:6520  function cancelBid (uint256 bidId) public isPending(bidBook[bidId]) isAuthorised(bidBook[bidId], msg.sender) {... */\n      pop\n      pop\n      jump\t// out\n        /* \"contracts/OrderBook.sol\":5688:6257  function placeBid (uint256 price) public payable {... */\n    tag_91:\n        /* \"contracts/OrderBook.sol\":5764:5765  0 */\n      0x00\n        /* \"contracts/OrderBook.sol\":5755:5760  price */\n      dup2\n        /* \"contracts/OrderBook.sol\":5755:5765  price >= 0 */\n      lt\n      iszero\n        /* \"contracts/OrderBook.sol\":5747:5801  require(price >= 0, \"price value must be more than 0\") */\n      tag_194\n      jumpi\n      mload(0x40)\n      0x08c379a000000000000000000000000000000000000000000000000000000000\n      dup2\n      mstore\n      0x04\n      add\n      tag_195\n      swap1\n      tag_160\n      jump\t// in\n    tag_195:\n      mload(0x40)\n      dup1\n      swap2\n      sub\n      swap1\n      revert\n    tag_194:\n        /* \"contracts/OrderBook.sol\":5832:5837  price */\n      dup1\n        /* \"contracts/OrderBook.sol\":5819:5828  msg.value */\n      callvalue\n        /* \"contracts/OrderBook.sol\":5819:5837  msg.value >= price */\n      lt\n      iszero\n        /* \"contracts/OrderBook.sol\":5811:5872  require(msg.value >= price, \"Not enough blance to place bid\") */\n      tag_196\n      jumpi\n      mload(0x40)\n      0x08c379a000000000000000000000000000000000000000000000000000000000\n      dup2\n      mstore\n      0x04\n      add\n      tag_197\n      swap1\n      tag_198\n      jump\t// in\n    tag_197:\n      mload(0x40)\n      dup1\n      swap2\n      sub\n      swap1\n      revert\n    tag_196:\n        /* \"contracts/OrderBook.sol\":5688:6257  function placeBid (uint256 price) public payable {... */\n      pop\n      jump\t// out\n        /* \"contracts/OrderBook.sol\":1995:2018  uint256 public askCount */\n    tag_94:\n      sload(0x08)\n      dup2\n      jump\t// out\n        /* \"contracts/OrderBook.sol\":1850:1873  uint256 public bidCount */\n    tag_98:\n      sload(0x05)\n      dup2\n      jump\t// out\n        /* \"contracts/OrderBook.sol\":8675:8777  function getBidState (uint256 id) public view returns(State) {... */\n    tag_103:\n        /* \"contracts/OrderBook.sol\":8729:8734  State */\n      0x00\n        /* \"contracts/OrderBook.sol\":8753:8760  bidBook */\n      0x03\n        /* \"contracts/OrderBook.sol\":8753:8764  bidBook[id] */\n      0x00\n        /* \"contracts/OrderBook.sol\":8761:8763  id */\n      dup4\n        /* \"contracts/OrderBook.sol\":8753:8764  bidBook[id] */\n      dup2\n      mstore\n      0x20\n      add\n      swap1\n      dup2\n      mstore\n      0x20\n      add\n      0x00\n      keccak256\n        /* \"contracts/OrderBook.sol\":8753:8770  bidBook[id].state */\n      0x03\n      add\n      0x00\n      swap1\n      sload\n      swap1\n      0x0100\n      exp\n      swap1\n      div\n      0xff\n      and\n        /* \"contracts/OrderBook.sol\":8746:8770  return bidBook[id].state */\n      swap1\n      pop\n        /* \"contracts/OrderBook.sol\":8675:8777  function getBidState (uint256 id) public view returns(State) {... */\n      swap2\n      swap1\n      pop\n      jump\t// out\n        /* \"contracts/OrderBook.sol\":7731:7799  function fetchYourBidIds() public returns (uint256[] memory) {... */\n    tag_107:\n        /* \"contracts/OrderBook.sol\":7774:7790  uint256[] memory */\n      0x60\n        /* \"contracts/OrderBook.sol\":7731:7799  function fetchYourBidIds() public returns (uint256[] memory) {... */\n      swap1\n      jump\t// out\n        /* \"contracts/OrderBook.sol\":7879:8203  function getOrder(uint256 id) public view returns(address payable,uint256,uint256,State,uint256,uint256,uint256,bool) {... */\n    tag_112:\n        /* \"contracts/OrderBook.sol\":7929:7944  address payable */\n      0x00\n        /* \"contracts/OrderBook.sol\":7945:7952  uint256 */\n      dup1\n        /* \"contracts/OrderBook.sol\":7953:7960  uint256 */\n      0x00\n        /* \"contracts/OrderBook.sol\":7961:7966  State */\n      dup1\n        /* \"contracts/OrderBook.sol\":7967:7974  uint256 */\n      0x00\n        /* \"contracts/OrderBook.sol\":7975:7982  uint256 */\n      dup1\n        /* \"contracts/OrderBook.sol\":7983:7990  uint256 */\n      0x00\n        /* \"contracts/OrderBook.sol\":7991:7995  bool */\n      dup1\n        /* \"contracts/OrderBook.sol\":7879:8203  function getOrder(uint256 id) public view returns(address payable,uint256,uint256,State,uint256,uint256,uint256,bool) {... */\n      swap2\n      swap4\n      swap6\n      swap8\n      pop\n      swap2\n      swap4\n      swap6\n      swap8\n      jump\t// out\n        /* \"contracts/OrderBook.sol\":8565:8669  function getAskValue (uint256 id) public view returns(uint256) {... */\n    tag_118:\n        /* \"contracts/OrderBook.sol\":8619:8626  uint256 */\n      0x00\n        /* \"contracts/OrderBook.sol\":8645:8652  askBook */\n      0x06\n        /* \"contracts/OrderBook.sol\":8645:8656  askBook[id] */\n      0x00\n        /* \"contracts/OrderBook.sol\":8653:8655  id */\n      dup4\n        /* \"contracts/OrderBook.sol\":8645:8656  askBook[id] */\n      dup2\n      mstore\n      0x20\n      add\n      swap1\n      dup2\n      mstore\n      0x20\n      add\n      0x00\n      keccak256\n        /* \"contracts/OrderBook.sol\":8645:8662  askBook[id].value */\n      0x01\n      add\n      sload\n        /* \"contracts/OrderBook.sol\":8638:8662  return askBook[id].value */\n      swap1\n      pop\n        /* \"contracts/OrderBook.sol\":8565:8669  function getAskValue (uint256 id) public view returns(uint256) {... */\n      swap2\n      swap1\n      pop\n      jump\t// out\n        /* \"contracts/Strings.sol\":328:1031  function toString(uint256 value) internal pure returns (string memory) {... */\n    tag_152:\n        /* \"contracts/Strings.sol\":384:397  string memory */\n      0x60\n        /* \"contracts/Strings.sol\":610:611  0 */\n      0x00\n        /* \"contracts/Strings.sol\":601:606  value */\n      dup3\n        /* \"contracts/Strings.sol\":601:611  value == 0 */\n      sub\n        /* \"contracts/Strings.sol\":597:648  if (value == 0) {... */\n      tag_204\n      jumpi\n        /* \"contracts/Strings.sol\":627:637  return \"0\" */\n      mload(0x40)\n      dup1\n      0x40\n      add\n      0x40\n      mstore\n      dup1\n      0x01\n      dup2\n      mstore\n      0x20\n      add\n      0x3000000000000000000000000000000000000000000000000000000000000000\n      dup2\n      mstore\n      pop\n      swap1\n      pop\n      jump(tag_203)\n        /* \"contracts/Strings.sol\":597:648  if (value == 0) {... */\n    tag_204:\n        /* \"contracts/Strings.sol\":657:669  uint256 temp */\n      0x00\n        /* \"contracts/Strings.sol\":672:677  value */\n      dup3\n        /* \"contracts/Strings.sol\":657:677  uint256 temp = value */\n      swap1\n      pop\n        /* \"contracts/Strings.sol\":687:701  uint256 digits */\n      0x00\n        /* \"contracts/Strings.sol\":711:786  while (temp != 0) {... */\n    tag_205:\n        /* \"contracts/Strings.sol\":726:727  0 */\n      0x00\n        /* \"contracts/Strings.sol\":718:722  temp */\n      dup3\n        /* \"contracts/Strings.sol\":718:727  temp != 0 */\n      eq\n        /* \"contracts/Strings.sol\":711:786  while (temp != 0) {... */\n      tag_206\n      jumpi\n        /* \"contracts/Strings.sol\":743:751  digits++ */\n      dup1\n      dup1\n      tag_207\n      swap1\n      tag_208\n      jump\t// in\n    tag_207:\n      swap2\n      pop\n      pop\n        /* \"contracts/Strings.sol\":773:775  10 */\n      0x0a\n        /* \"contracts/Strings.sol\":765:775  temp /= 10 */\n      dup3\n      tag_209\n      swap2\n      swap1\n      tag_169\n      jump\t// in\n    tag_209:\n      swap2\n      pop\n        /* \"contracts/Strings.sol\":711:786  while (temp != 0) {... */\n      jump(tag_205)\n    tag_206:\n        /* \"contracts/Strings.sol\":795:814  bytes memory buffer */\n      0x00\n        /* \"contracts/Strings.sol\":827:833  digits */\n      dup2\n        /* \"contracts/Strings.sol\":817:834  new bytes(digits) */\n      0xffffffffffffffff\n      dup2\n      gt\n      iszero\n      tag_210\n      jumpi\n      tag_211\n      tag_212\n      jump\t// in\n    tag_211:\n    tag_210:\n      mload(0x40)\n      swap1\n      dup1\n      dup3\n      mstore\n      dup1\n      0x1f\n      add\n      not(0x1f)\n      and\n      0x20\n      add\n      dup3\n      add\n      0x40\n      mstore\n      dup1\n      iszero\n      tag_213\n      jumpi\n      dup2\n      0x20\n      add\n      0x01\n      dup3\n      mul\n      dup1\n      calldatasize\n      dup4\n      calldatacopy\n      dup1\n      dup3\n      add\n      swap2\n      pop\n      pop\n      swap1\n      pop\n    tag_213:\n      pop\n        /* \"contracts/Strings.sol\":795:834  bytes memory buffer = new bytes(digits) */\n      swap1\n      pop\n        /* \"contracts/Strings.sol\":844:994  while (value != 0) {... */\n    tag_214:\n        /* \"contracts/Strings.sol\":860:861  0 */\n      0x00\n        /* \"contracts/Strings.sol\":851:856  value */\n      dup6\n        /* \"contracts/Strings.sol\":851:861  value != 0 */\n      eq\n        /* \"contracts/Strings.sol\":844:994  while (value != 0) {... */\n      tag_215\n      jumpi\n        /* \"contracts/Strings.sol\":887:888  1 */\n      0x01\n        /* \"contracts/Strings.sol\":877:888  digits -= 1 */\n      dup3\n      tag_216\n      swap2\n      swap1\n      tag_165\n      jump\t// in\n    tag_216:\n      swap2\n      pop\n        /* \"contracts/Strings.sol\":953:955  10 */\n      0x0a\n        /* \"contracts/Strings.sol\":945:950  value */\n      dup6\n        /* \"contracts/Strings.sol\":945:955  value % 10 */\n      tag_217\n      swap2\n      swap1\n      tag_218\n      jump\t// in\n    tag_217:\n        /* \"contracts/Strings.sol\":932:934  48 */\n      0x30\n        /* \"contracts/Strings.sol\":932:956  48 + uint256(value % 10) */\n      tag_219\n      swap2\n      swap1\n      tag_220\n      jump\t// in\n    tag_219:\n        /* \"contracts/Strings.sol\":919:958  bytes1(uint8(48 + uint256(value % 10))) */\n      0xf8\n      shl\n        /* \"contracts/Strings.sol\":902:908  buffer */\n      dup2\n        /* \"contracts/Strings.sol\":909:915  digits */\n      dup4\n        /* \"contracts/Strings.sol\":902:916  buffer[digits] */\n      dup2\n      mload\n      dup2\n      lt\n      tag_221\n      jumpi\n      tag_222\n      tag_223\n      jump\t// in\n    tag_222:\n    tag_221:\n      0x20\n      add\n      add\n        /* \"contracts/Strings.sol\":902:958  buffer[digits] = bytes1(uint8(48 + uint256(value % 10))) */\n      swap1\n      not(0xffffffffffffffffffffffffffffffffffffffffffffffffffffffffffffff)\n      and\n      swap1\n      dup2\n      0x00\n      byte\n      swap1\n      mstore8\n      pop\n        /* \"contracts/Strings.sol\":981:983  10 */\n      0x0a\n        /* \"contracts/Strings.sol\":972:983  value /= 10 */\n      dup6\n      tag_224\n      swap2\n      swap1\n      tag_169\n      jump\t// in\n    tag_224:\n      swap5\n      pop\n        /* \"contracts/Strings.sol\":844:994  while (value != 0) {... */\n      jump(tag_214)\n    tag_215:\n        /* \"contracts/Strings.sol\":1017:1023  buffer */\n      dup1\n        /* \"contracts/Strings.sol\":1003:1024  return string(buffer) */\n      swap4\n      pop\n      pop\n      pop\n      pop\n        /* \"contracts/Strings.sol\":328:1031  function toString(uint256 value) internal pure returns (string memory) {... */\n    tag_203:\n      swap2\n      swap1\n      pop\n      jump\t// out\n        /* \"contracts/OrderBook.sol\":3277:3755  function createAsk(address customer, uint256 value, uint256 timestamp) internal returns (order memory) {... */\n    tag_171:\n        /* \"contracts/OrderBook.sol\":3366:3378  order memory */\n      tag_225\n      tag_226\n      jump\t// in\n    tag_225:\n        /* \"contracts/OrderBook.sol\":3390:3398  askCount */\n      0x08\n      0x00\n        /* \"contracts/OrderBook.sol\":3390:3401  askCount ++ */\n      dup2\n      sload\n      dup1\n      swap3\n      swap2\n      swap1\n      tag_228\n      swap1\n      tag_208\n      jump\t// in\n    tag_228:\n      swap2\n      swap1\n      pop\n      sstore\n      pop\n        /* \"contracts/OrderBook.sol\":3411:3430  order memory newAsk */\n      0x00\n        /* \"contracts/OrderBook.sol\":3433:3600  order(... */\n      mload(0x40)\n      dup1\n      0xe0\n      add\n      0x40\n      mstore\n      dup1\n        /* \"contracts/OrderBook.sol\":3460:3468  customer */\n      dup7\n        /* \"contracts/OrderBook.sol\":3433:3600  order(... */\n      0xffffffffffffffffffffffffffffffffffffffff\n      and\n      dup2\n      mstore\n      0x20\n      add\n        /* \"contracts/OrderBook.sol\":3483:3488  value */\n      dup6\n        /* \"contracts/OrderBook.sol\":3433:3600  order(... */\n      dup2\n      mstore\n      0x20\n      add\n        /* \"contracts/OrderBook.sol\":3502:3511  timestamp */\n      dup5\n        /* \"contracts/OrderBook.sol\":3433:3600  order(... */\n      dup2\n      mstore\n      0x20\n      add\n        /* \"contracts/OrderBook.sol\":3525:3538  State.pending */\n      0x00\n        /* \"contracts/OrderBook.sol\":3433:3600  order(... */\n      0x01\n      dup2\n      gt\n      iszero\n      tag_229\n      jumpi\n      tag_230\n      tag_123\n      jump\t// in\n    tag_230:\n    tag_229:\n      dup2\n      mstore\n      0x20\n      add\n        /* \"contracts/OrderBook.sol\":3552:3560  askCount */\n      sload(0x08)\n        /* \"contracts/OrderBook.sol\":3433:3600  order(... */\n      dup2\n      mstore\n      0x20\n      add\n        /* \"contracts/OrderBook.sol\":3574:3575  0 */\n      0x00\n        /* \"contracts/OrderBook.sol\":3433:3600  order(... */\n      dup2\n      mstore\n      0x20\n      add\n        /* \"contracts/OrderBook.sol\":3589:3590  0 */\n      0x00\n        /* \"contracts/OrderBook.sol\":3433:3600  order(... */\n      dup2\n      mstore\n      pop\n        /* \"contracts/OrderBook.sol\":3411:3600  order memory newAsk = order(... */\n      swap1\n      pop\n        /* \"contracts/OrderBook.sol\":3630:3636  newAsk */\n      dup1\n        /* \"contracts/OrderBook.sol\":3610:3617  askBook */\n      0x06\n        /* \"contracts/OrderBook.sol\":3610:3627  askBook[askCount] */\n      0x00\n        /* \"contracts/OrderBook.sol\":3618:3626  askCount */\n      sload(0x08)\n        /* \"contracts/OrderBook.sol\":3610:3627  askBook[askCount] */\n      dup2\n      mstore\n      0x20\n      add\n      swap1\n      dup2\n      mstore\n      0x20\n      add\n      0x00\n      keccak256\n        /* \"contracts/OrderBook.sol\":3610:3636  askBook[askCount] = newAsk */\n      0x00\n      dup3\n      add\n      mload\n      dup2\n      0x00\n      add\n      exp(0x0100, 0x00)\n      dup2\n      sload\n      dup2\n      0xffffffffffffffffffffffffffffffffffffffff\n      mul\n      not\n      and\n      swap1\n      dup4\n      0xffffffffffffffffffffffffffffffffffffffff\n      and\n      mul\n      or\n      swap1\n      sstore\n      pop\n      0x20\n      dup3\n      add\n      mload\n      dup2\n      0x01\n      add\n      sstore\n      0x40\n      dup3\n      add\n      mload\n      dup2\n      0x02\n      add\n      sstore\n      0x60\n      dup3\n      add\n      mload\n      dup2\n      0x03\n      add\n      exp(0x0100, 0x00)\n      dup2\n      sload\n      dup2\n      0xff\n      mul\n      not\n      and\n      swap1\n      dup4\n      0x01\n      dup2\n      gt\n      iszero\n      tag_231\n      jumpi\n      tag_232\n      tag_123\n      jump\t// in\n    tag_232:\n    tag_231:\n      mul\n      or\n      swap1\n      sstore\n      pop\n      0x80\n      dup3\n      add\n      mload\n      dup2\n      0x04\n      add\n      sstore\n      0xa0\n      dup3\n      add\n      mload\n      dup2\n      0x05\n      add\n      sstore\n      0xc0\n      dup3\n      add\n      mload\n      dup2\n      0x06\n      add\n      sstore\n      swap1\n      pop\n      pop\n        /* \"contracts/OrderBook.sol\":3651:3722  orderCreated(customer,value,timestamp,State.pending,askCount,0,0,false) */\n      0x93caf6ba1af44020dfe6076e279533e38bd8deefe534c43aa8cc93aad2025b7d\n        /* \"contracts/OrderBook.sol\":3664:3672  customer */\n      dup6\n        /* \"contracts/OrderBook.sol\":3673:3678  value */\n      dup6\n        /* \"contracts/OrderBook.sol\":3679:3688  timestamp */\n      dup6\n        /* \"contracts/OrderBook.sol\":3689:3702  State.pending */\n      0x00\n        /* \"contracts/OrderBook.sol\":3703:3711  askCount */\n      sload(0x08)\n        /* \"contracts/OrderBook.sol\":3712:3713  0 */\n      0x00\n        /* \"contracts/OrderBook.sol\":3714:3715  0 */\n      dup1\n        /* \"contracts/OrderBook.sol\":3716:3721  false */\n      0x00\n        /* \"contracts/OrderBook.sol\":3651:3722  orderCreated(customer,value,timestamp,State.pending,askCount,0,0,false) */\n      mload(0x40)\n      tag_233\n      swap9\n      swap8\n      swap7\n      swap6\n      swap5\n      swap4\n      swap3\n      swap2\n      swap1\n      tag_234\n      jump\t// in\n    tag_233:\n      mload(0x40)\n      dup1\n      swap2\n      sub\n      swap1\n      log1\n        /* \"contracts/OrderBook.sol\":3742:3748  newAsk */\n      dup1\n        /* \"contracts/OrderBook.sol\":3735:3748  return newAsk */\n      swap2\n      pop\n      pop\n        /* \"contracts/OrderBook.sol\":3277:3755  function createAsk(address customer, uint256 value, uint256 timestamp) internal returns (order memory) {... */\n      swap4\n      swap3\n      pop\n      pop\n      pop\n      jump\t// out\n        /* \"contracts/OrderBook.sol\":4358:5191  function sortAsk(order memory newOrder) internal {... */\n    tag_173:\n        /* \"contracts/OrderBook.sol\":4417:4432  uint256 current */\n      0x00\n        /* \"contracts/OrderBook.sol\":4457:4458  0 */\n      dup1\n        /* \"contracts/OrderBook.sol\":4446:4453  askHead */\n      sload(0x07)\n        /* \"contracts/OrderBook.sol\":4446:4458  askHead == 0 */\n      sub\n        /* \"contracts/OrderBook.sol\":4442:5185  if (askHead == 0) {... */\n      tag_236\n      jumpi\n        /* \"contracts/OrderBook.sol\":4484:4492  newOrder */\n      dup2\n        /* \"contracts/OrderBook.sol\":4484:4495  newOrder.id */\n      0x80\n      add\n      mload\n        /* \"contracts/OrderBook.sol\":4474:4481  askHead */\n      0x07\n        /* \"contracts/OrderBook.sol\":4474:4495  askHead = newOrder.id */\n      dup2\n      swap1\n      sstore\n      pop\n        /* \"contracts/OrderBook.sol\":4442:5185  if (askHead == 0) {... */\n      jump(tag_237)\n    tag_236:\n        /* \"contracts/OrderBook.sol\":4550:4558  newOrder */\n      dup2\n        /* \"contracts/OrderBook.sol\":4550:4564  newOrder.value */\n      0x20\n      add\n      mload\n        /* \"contracts/OrderBook.sol\":4524:4531  askBook */\n      0x06\n        /* \"contracts/OrderBook.sol\":4524:4540  askBook[askHead] */\n      0x00\n        /* \"contracts/OrderBook.sol\":4532:4539  askHead */\n      sload(0x07)\n        /* \"contracts/OrderBook.sol\":4524:4540  askBook[askHead] */\n      dup2\n      mstore\n      0x20\n      add\n      swap1\n      dup2\n      mstore\n      0x20\n      add\n      0x00\n      keccak256\n        /* \"contracts/OrderBook.sol\":4524:4546  askBook[askHead].value */\n      0x01\n      add\n      sload\n        /* \"contracts/OrderBook.sol\":4524:4564  askBook[askHead].value >= newOrder.value */\n      lt\n        /* \"contracts/OrderBook.sol\":4520:5185  if (askBook[askHead].value >= newOrder.value) {... */\n      tag_238\n      jumpi\n        /* \"contracts/OrderBook.sol\":4596:4603  askHead */\n      sload(0x07)\n        /* \"contracts/OrderBook.sol\":4580:4588  newOrder */\n      dup3\n        /* \"contracts/OrderBook.sol\":4580:4593  newOrder.next */\n      0xa0\n      add\n        /* \"contracts/OrderBook.sol\":4580:4603  newOrder.next = askHead */\n      dup2\n      dup2\n      mstore\n      pop\n      pop\n        /* \"contracts/OrderBook.sol\":4647:4655  newOrder */\n      dup2\n        /* \"contracts/OrderBook.sol\":4647:4658  newOrder.id */\n      0x80\n      add\n      mload\n        /* \"contracts/OrderBook.sol\":4617:4624  askBook */\n      0x06\n        /* \"contracts/OrderBook.sol\":4617:4639  askBook[newOrder.next] */\n      0x00\n        /* \"contracts/OrderBook.sol\":4625:4633  newOrder */\n      dup5\n        /* \"contracts/OrderBook.sol\":4625:4638  newOrder.next */\n      0xa0\n      add\n      mload\n        /* \"contracts/OrderBook.sol\":4617:4639  askBook[newOrder.next] */\n      dup2\n      mstore\n      0x20\n      add\n      swap1\n      dup2\n      mstore\n      0x20\n      add\n      0x00\n      keccak256\n        /* \"contracts/OrderBook.sol\":4617:4644  askBook[newOrder.next].prev */\n      0x06\n      add\n        /* \"contracts/OrderBook.sol\":4617:4658  askBook[newOrder.next].prev = newOrder.id */\n      dup2\n      swap1\n      sstore\n      pop\n        /* \"contracts/OrderBook.sol\":4682:4690  newOrder */\n      dup2\n        /* \"contracts/OrderBook.sol\":4682:4693  newOrder.id */\n      0x80\n      add\n      mload\n        /* \"contracts/OrderBook.sol\":4672:4679  askHead */\n      0x07\n        /* \"contracts/OrderBook.sol\":4672:4693  askHead = newOrder.id */\n      dup2\n      swap1\n      sstore\n      pop\n        /* \"contracts/OrderBook.sol\":4520:5185  if (askBook[askHead].value >= newOrder.value) {... */\n      jump(tag_239)\n    tag_238:\n        /* \"contracts/OrderBook.sol\":4742:4749  askHead */\n      sload(0x07)\n        /* \"contracts/OrderBook.sol\":4732:4749  current = askHead */\n      swap1\n      pop\n        /* \"contracts/OrderBook.sol\":4763:4919  while (askBook[current].next != 0 && askBook[askBook[current].next].value < newOrder.value) {... */\n    tag_240:\n        /* \"contracts/OrderBook.sol\":4795:4796  0 */\n      0x00\n        /* \"contracts/OrderBook.sol\":4770:4777  askBook */\n      0x06\n        /* \"contracts/OrderBook.sol\":4770:4786  askBook[current] */\n      0x00\n        /* \"contracts/OrderBook.sol\":4778:4785  current */\n      dup4\n        /* \"contracts/OrderBook.sol\":4770:4786  askBook[current] */\n      dup2\n      mstore\n      0x20\n      add\n      swap1\n      dup2\n      mstore\n      0x20\n      add\n      0x00\n      keccak256\n        /* \"contracts/OrderBook.sol\":4770:4791  askBook[current].next */\n      0x05\n      add\n      sload\n        /* \"contracts/OrderBook.sol\":4770:4796  askBook[current].next != 0 */\n      eq\n      iszero\n        /* \"contracts/OrderBook.sol\":4770:4853  askBook[current].next != 0 && askBook[askBook[current].next].value < newOrder.value */\n      dup1\n      iszero\n      tag_242\n      jumpi\n      pop\n        /* \"contracts/OrderBook.sol\":4839:4847  newOrder */\n      dup2\n        /* \"contracts/OrderBook.sol\":4839:4853  newOrder.value */\n      0x20\n      add\n      mload\n        /* \"contracts/OrderBook.sol\":4800:4807  askBook */\n      0x06\n        /* \"contracts/OrderBook.sol\":4800:4830  askBook[askBook[current].next] */\n      0x00\n        /* \"contracts/OrderBook.sol\":4808:4815  askBook */\n      0x06\n        /* \"contracts/OrderBook.sol\":4808:4824  askBook[current] */\n      0x00\n        /* \"contracts/OrderBook.sol\":4816:4823  current */\n      dup6\n        /* \"contracts/OrderBook.sol\":4808:4824  askBook[current] */\n      dup2\n      mstore\n      0x20\n      add\n      swap1\n      dup2\n      mstore\n      0x20\n      add\n      0x00\n      keccak256\n        /* \"contracts/OrderBook.sol\":4808:4829  askBook[current].next */\n      0x05\n      add\n      sload\n        /* \"contracts/OrderBook.sol\":4800:4830  askBook[askBook[current].next] */\n      dup2\n      mstore\n      0x20\n      add\n      swap1\n      dup2\n      mstore\n      0x20\n      add\n      0x00\n      keccak256\n        /* \"contracts/OrderBook.sol\":4800:4836  askBook[askBook[current].next].value */\n      0x01\n      add\n      sload\n        /* \"contracts/OrderBook.sol\":4800:4853  askBook[askBook[current].next].value < newOrder.value */\n      lt\n        /* \"contracts/OrderBook.sol\":4770:4853  askBook[current].next != 0 && askBook[askBook[current].next].value < newOrder.value */\n    tag_242:\n        /* \"contracts/OrderBook.sol\":4763:4919  while (askBook[current].next != 0 && askBook[askBook[current].next].value < newOrder.value) {... */\n      iszero\n      tag_241\n      jumpi\n        /* \"contracts/OrderBook.sol\":4883:4890  askBook */\n      0x06\n        /* \"contracts/OrderBook.sol\":4883:4899  askBook[current] */\n      0x00\n        /* \"contracts/OrderBook.sol\":4891:4898  current */\n      dup3\n        /* \"contracts/OrderBook.sol\":4883:4899  askBook[current] */\n      dup2\n      mstore\n      0x20\n      add\n      swap1\n      dup2\n      mstore\n      0x20\n      add\n      0x00\n      keccak256\n        /* \"contracts/OrderBook.sol\":4883:4904  askBook[current].next */\n      0x05\n      add\n      sload\n        /* \"contracts/OrderBook.sol\":4873:4904  current = askBook[current].next */\n      swap1\n      pop\n        /* \"contracts/OrderBook.sol\":4763:4919  while (askBook[current].next != 0 && askBook[askBook[current].next].value < newOrder.value) {... */\n      jump(tag_240)\n    tag_241:\n        /* \"contracts/OrderBook.sol\":4948:4955  askBook */\n      0x06\n        /* \"contracts/OrderBook.sol\":4948:4964  askBook[current] */\n      0x00\n        /* \"contracts/OrderBook.sol\":4956:4963  current */\n      dup3\n        /* \"contracts/OrderBook.sol\":4948:4964  askBook[current] */\n      dup2\n      mstore\n      0x20\n      add\n      swap1\n      dup2\n      mstore\n      0x20\n      add\n      0x00\n      keccak256\n        /* \"contracts/OrderBook.sol\":4948:4969  askBook[current].next */\n      0x05\n      add\n      sload\n        /* \"contracts/OrderBook.sol\":4932:4940  newOrder */\n      dup3\n        /* \"contracts/OrderBook.sol\":4932:4945  newOrder.next */\n      0xa0\n      add\n        /* \"contracts/OrderBook.sol\":4932:4969  newOrder.next = askBook[current].next */\n      dup2\n      dup2\n      mstore\n      pop\n      pop\n        /* \"contracts/OrderBook.sol\":5012:5013  0 */\n      0x00\n        /* \"contracts/OrderBook.sol\":4987:4994  askBook */\n      0x06\n        /* \"contracts/OrderBook.sol\":4987:5003  askBook[current] */\n      0x00\n        /* \"contracts/OrderBook.sol\":4995:5002  current */\n      dup4\n        /* \"contracts/OrderBook.sol\":4987:5003  askBook[current] */\n      dup2\n      mstore\n      0x20\n      add\n      swap1\n      dup2\n      mstore\n      0x20\n      add\n      0x00\n      keccak256\n        /* \"contracts/OrderBook.sol\":4987:5008  askBook[current].next */\n      0x05\n      add\n      sload\n        /* \"contracts/OrderBook.sol\":4987:5013  askBook[current].next != 0 */\n      eq\n        /* \"contracts/OrderBook.sol\":4983:5089  if (askBook[current].next != 0) {... */\n      tag_243\n      jumpi\n        /* \"contracts/OrderBook.sol\":5063:5071  newOrder */\n      dup2\n        /* \"contracts/OrderBook.sol\":5063:5074  newOrder.id */\n      0x80\n      add\n      mload\n        /* \"contracts/OrderBook.sol\":5033:5040  askBook */\n      0x06\n        /* \"contracts/OrderBook.sol\":5033:5055  askBook[newOrder.next] */\n      0x00\n        /* \"contracts/OrderBook.sol\":5041:5049  newOrder */\n      dup5\n        /* \"contracts/OrderBook.sol\":5041:5054  newOrder.next */\n      0xa0\n      add\n      mload\n        /* \"contracts/OrderBook.sol\":5033:5055  askBook[newOrder.next] */\n      dup2\n      mstore\n      0x20\n      add\n      swap1\n      dup2\n      mstore\n      0x20\n      add\n      0x00\n      keccak256\n        /* \"contracts/OrderBook.sol\":5033:5060  askBook[newOrder.next].prev */\n      0x06\n      add\n        /* \"contracts/OrderBook.sol\":5033:5074  askBook[newOrder.next].prev = newOrder.id */\n      dup2\n      swap1\n      sstore\n      pop\n        /* \"contracts/OrderBook.sol\":4983:5089  if (askBook[current].next != 0) {... */\n    tag_243:\n        /* \"contracts/OrderBook.sol\":5126:5134  newOrder */\n      dup2\n        /* \"contracts/OrderBook.sol\":5126:5137  newOrder.id */\n      0x80\n      add\n      mload\n        /* \"contracts/OrderBook.sol\":5102:5109  askBook */\n      0x06\n        /* \"contracts/OrderBook.sol\":5102:5118  askBook[current] */\n      0x00\n        /* \"contracts/OrderBook.sol\":5110:5117  current */\n      dup4\n        /* \"contracts/OrderBook.sol\":5102:5118  askBook[current] */\n      dup2\n      mstore\n      0x20\n      add\n      swap1\n      dup2\n      mstore\n      0x20\n      add\n      0x00\n      keccak256\n        /* \"contracts/OrderBook.sol\":5102:5123  askBook[current].next */\n      0x05\n      add\n        /* \"contracts/OrderBook.sol\":5102:5137  askBook[current].next = newOrder.id */\n      dup2\n      swap1\n      sstore\n      pop\n        /* \"contracts/OrderBook.sol\":5167:5174  current */\n      dup1\n        /* \"contracts/OrderBook.sol\":5151:5159  newOrder */\n      dup3\n        /* \"contracts/OrderBook.sol\":5151:5164  newOrder.prev */\n      0xc0\n      add\n        /* \"contracts/OrderBook.sol\":5151:5174  newOrder.prev = current */\n      dup2\n      dup2\n      mstore\n      pop\n      pop\n        /* \"contracts/OrderBook.sol\":4520:5185  if (askBook[askHead].value >= newOrder.value) {... */\n    tag_239:\n        /* \"contracts/OrderBook.sol\":4442:5185  if (askHead == 0) {... */\n    tag_237:\n        /* \"contracts/OrderBook.sol\":4407:5191  {... */\n      pop\n        /* \"contracts/OrderBook.sol\":4358:5191  function sortAsk(order memory newOrder) internal {... */\n      pop\n      jump\t// out\n    tag_226:\n      mload(0x40)\n      dup1\n      0xe0\n      add\n      0x40\n      mstore\n      dup1\n      and(0xffffffffffffffffffffffffffffffffffffffff, 0x00)\n      dup2\n      mstore\n      0x20\n      add\n      0x00\n      dup2\n      mstore\n      0x20\n      add\n      0x00\n      dup2\n      mstore\n      0x20\n      add\n      0x00\n      0x01\n      dup2\n      gt\n      iszero\n      tag_244\n      jumpi\n      tag_245\n      tag_123\n      jump\t// in\n    tag_245:\n    tag_244:\n      dup2\n      mstore\n      0x20\n      add\n      0x00\n      dup2\n      mstore\n      0x20\n      add\n      0x00\n      dup2\n      mstore\n      0x20\n      add\n      0x00\n      dup2\n      mstore\n      pop\n      swap1\n      jump\t// out\n        /* \"#utility.yul\":7:121   */\n    tag_246:\n        /* \"#utility.yul\":74:80   */\n      0x00\n        /* \"#utility.yul\":108:113   */\n      dup2\n        /* \"#utility.yul\":102:114   */\n      mload\n        /* \"#utility.yul\":92:114   */\n      swap1\n      pop\n        /* \"#utility.yul\":7:121   */\n      swap2\n      swap1\n      pop\n      jump\t// out\n        /* \"#utility.yul\":127:311   */\n    tag_247:\n        /* \"#utility.yul\":226:237   */\n      0x00\n        /* \"#utility.yul\":260:266   */\n      dup3\n        /* \"#utility.yul\":255:258   */\n      dup3\n        /* \"#utility.yul\":248:267   */\n      mstore\n        /* \"#utility.yul\":300:304   */\n      0x20\n        /* \"#utility.yul\":295:298   */\n      dup3\n        /* \"#utility.yul\":291:305   */\n      add\n        /* \"#utility.yul\":276:305   */\n      swap1\n      pop\n        /* \"#utility.yul\":127:311   */\n      swap3\n      swap2\n      pop\n      pop\n      jump\t// out\n        /* \"#utility.yul\":317:449   */\n    tag_248:\n        /* \"#utility.yul\":384:388   */\n      0x00\n        /* \"#utility.yul\":407:410   */\n      dup2\n        /* \"#utility.yul\":399:410   */\n      swap1\n      pop\n        /* \"#utility.yul\":437:441   */\n      0x20\n        /* \"#utility.yul\":432:435   */\n      dup3\n        /* \"#utility.yul\":428:442   */\n      add\n        /* \"#utility.yul\":420:442   */\n      swap1\n      pop\n        /* \"#utility.yul\":317:449   */\n      swap2\n      swap1\n      pop\n      jump\t// out\n        /* \"#utility.yul\":455:532   */\n    tag_249:\n        /* \"#utility.yul\":492:499   */\n      0x00\n        /* \"#utility.yul\":521:526   */\n      dup2\n        /* \"#utility.yul\":510:526   */\n      swap1\n      pop\n        /* \"#utility.yul\":455:532   */\n      swap2\n      swap1\n      pop\n      jump\t// out\n        /* \"#utility.yul\":538:646   */\n    tag_250:\n        /* \"#utility.yul\":615:639   */\n      tag_319\n        /* \"#utility.yul\":633:638   */\n      dup2\n        /* \"#utility.yul\":615:639   */\n      tag_249\n      jump\t// in\n    tag_319:\n        /* \"#utility.yul\":610:613   */\n      dup3\n        /* \"#utility.yul\":603:640   */\n      mstore\n        /* \"#utility.yul\":538:646   */\n      pop\n      pop\n      jump\t// out\n        /* \"#utility.yul\":652:831   */\n    tag_251:\n        /* \"#utility.yul\":721:731   */\n      0x00\n        /* \"#utility.yul\":742:788   */\n      tag_321\n        /* \"#utility.yul\":784:787   */\n      dup4\n        /* \"#utility.yul\":776:782   */\n      dup4\n        /* \"#utility.yul\":742:788   */\n      tag_250\n      jump\t// in\n    tag_321:\n        /* \"#utility.yul\":820:824   */\n      0x20\n        /* \"#utility.yul\":815:818   */\n      dup4\n        /* \"#utility.yul\":811:825   */\n      add\n        /* \"#utility.yul\":797:825   */\n      swap1\n      pop\n        /* \"#utility.yul\":652:831   */\n      swap3\n      swap2\n      pop\n      pop\n      jump\t// out\n        /* \"#utility.yul\":837:950   */\n    tag_252:\n        /* \"#utility.yul\":907:911   */\n      0x00\n        /* \"#utility.yul\":939:943   */\n      0x20\n        /* \"#utility.yul\":934:937   */\n      dup3\n        /* \"#utility.yul\":930:944   */\n      add\n        /* \"#utility.yul\":922:944   */\n      swap1\n      pop\n        /* \"#utility.yul\":837:950   */\n      swap2\n      swap1\n      pop\n      jump\t// out\n        /* \"#utility.yul\":986:1718   */\n    tag_253:\n        /* \"#utility.yul\":1105:1108   */\n      0x00\n        /* \"#utility.yul\":1134:1188   */\n      tag_324\n        /* \"#utility.yul\":1182:1187   */\n      dup3\n        /* \"#utility.yul\":1134:1188   */\n      tag_246\n      jump\t// in\n    tag_324:\n        /* \"#utility.yul\":1204:1290   */\n      tag_325\n        /* \"#utility.yul\":1283:1289   */\n      dup2\n        /* \"#utility.yul\":1278:1281   */\n      dup6\n        /* \"#utility.yul\":1204:1290   */\n      tag_247\n      jump\t// in\n    tag_325:\n        /* \"#utility.yul\":1197:1290   */\n      swap4\n      pop\n        /* \"#utility.yul\":1314:1370   */\n      tag_326\n        /* \"#utility.yul\":1364:1369   */\n      dup4\n        /* \"#utility.yul\":1314:1370   */\n      tag_248\n      jump\t// in\n    tag_326:\n        /* \"#utility.yul\":1393:1400   */\n      dup1\n        /* \"#utility.yul\":1424:1425   */\n      0x00\n        /* \"#utility.yul\":1409:1693   */\n    tag_327:\n        /* \"#utility.yul\":1434:1440   */\n      dup4\n        /* \"#utility.yul\":1431:1432   */\n      dup2\n        /* \"#utility.yul\":1428:1441   */\n      lt\n        /* \"#utility.yul\":1409:1693   */\n      iszero\n      tag_329\n      jumpi\n        /* \"#utility.yul\":1510:1516   */\n      dup2\n        /* \"#utility.yul\":1504:1517   */\n      mload\n        /* \"#utility.yul\":1537:1600   */\n      tag_330\n        /* \"#utility.yul\":1596:1599   */\n      dup9\n        /* \"#utility.yul\":1581:1594   */\n      dup3\n        /* \"#utility.yul\":1537:1600   */\n      tag_251\n      jump\t// in\n    tag_330:\n        /* \"#utility.yul\":1530:1600   */\n      swap8\n      pop\n        /* \"#utility.yul\":1623:1683   */\n      tag_331\n        /* \"#utility.yul\":1676:1682   */\n      dup4\n        /* \"#utility.yul\":1623:1683   */\n      tag_252\n      jump\t// in\n    tag_331:\n        /* \"#utility.yul\":1613:1683   */\n      swap3\n      pop\n        /* \"#utility.yul\":1469:1693   */\n      pop\n        /* \"#utility.yul\":1456:1457   */\n      0x01\n        /* \"#utility.yul\":1453:1454   */\n      dup2\n        /* \"#utility.yul\":1449:1458   */\n      add\n        /* \"#utility.yul\":1444:1458   */\n      swap1\n      pop\n        /* \"#utility.yul\":1409:1693   */\n      jump(tag_327)\n    tag_329:\n        /* \"#utility.yul\":1413:1427   */\n      pop\n        /* \"#utility.yul\":1709:1712   */\n      dup6\n        /* \"#utility.yul\":1702:1712   */\n      swap4\n      pop\n        /* \"#utility.yul\":1110:1718   */\n      pop\n      pop\n      pop\n        /* \"#utility.yul\":986:1718   */\n      swap3\n      swap2\n      pop\n      pop\n      jump\t// out\n        /* \"#utility.yul\":1724:2097   */\n    tag_29:\n        /* \"#utility.yul\":1867:1871   */\n      0x00\n        /* \"#utility.yul\":1905:1907   */\n      0x20\n        /* \"#utility.yul\":1894:1903   */\n      dup3\n        /* \"#utility.yul\":1890:1908   */\n      add\n        /* \"#utility.yul\":1882:1908   */\n      swap1\n      pop\n        /* \"#utility.yul\":1954:1963   */\n      dup2\n        /* \"#utility.yul\":1948:1952   */\n      dup2\n        /* \"#utility.yul\":1944:1964   */\n      sub\n        /* \"#utility.yul\":1940:1941   */\n      0x00\n        /* \"#utility.yul\":1929:1938   */\n      dup4\n        /* \"#utility.yul\":1925:1942   */\n      add\n        /* \"#utility.yul\":1918:1965   */\n      mstore\n        /* \"#utility.yul\":1982:2090   */\n      tag_333\n        /* \"#utility.yul\":2085:2089   */\n      dup2\n        /* \"#utility.yul\":2076:2082   */\n      dup5\n        /* \"#utility.yul\":1982:2090   */\n      tag_253\n      jump\t// in\n    tag_333:\n        /* \"#utility.yul\":1974:2090   */\n      swap1\n      pop\n        /* \"#utility.yul\":1724:2097   */\n      swap3\n      swap2\n      pop\n      pop\n      jump\t// out\n        /* \"#utility.yul\":2103:2178   */\n    tag_254:\n        /* \"#utility.yul\":2136:2142   */\n      0x00\n        /* \"#utility.yul\":2169:2171   */\n      0x40\n        /* \"#utility.yul\":2163:2172   */\n      mload\n        /* \"#utility.yul\":2153:2172   */\n      swap1\n      pop\n        /* \"#utility.yul\":2103:2178   */\n      swap1\n      jump\t// out\n        /* \"#utility.yul\":2184:2301   */\n    tag_255:\n        /* \"#utility.yul\":2293:2294   */\n      0x00\n        /* \"#utility.yul\":2290:2291   */\n      dup1\n        /* \"#utility.yul\":2283:2295   */\n      revert\n        /* \"#utility.yul\":2307:2424   */\n    tag_256:\n        /* \"#utility.yul\":2416:2417   */\n      0x00\n        /* \"#utility.yul\":2413:2414   */\n      dup1\n        /* \"#utility.yul\":2406:2418   */\n      revert\n        /* \"#utility.yul\":2430:2552   */\n    tag_257:\n        /* \"#utility.yul\":2503:2527   */\n      tag_338\n        /* \"#utility.yul\":2521:2526   */\n      dup2\n        /* \"#utility.yul\":2503:2527   */\n      tag_249\n      jump\t// in\n    tag_338:\n        /* \"#utility.yul\":2496:2501   */\n      dup2\n        /* \"#utility.yul\":2493:2528   */\n      eq\n        /* \"#utility.yul\":2483:2546   */\n      tag_339\n      jumpi\n        /* \"#utility.yul\":2542:2543   */\n      0x00\n        /* \"#utility.yul\":2539:2540   */\n      dup1\n        /* \"#utility.yul\":2532:2544   */\n      revert\n        /* \"#utility.yul\":2483:2546   */\n    tag_339:\n        /* \"#utility.yul\":2430:2552   */\n      pop\n      jump\t// out\n        /* \"#utility.yul\":2558:2697   */\n    tag_258:\n        /* \"#utility.yul\":2604:2609   */\n      0x00\n        /* \"#utility.yul\":2642:2648   */\n      dup2\n        /* \"#utility.yul\":2629:2649   */\n      calldataload\n        /* \"#utility.yul\":2620:2649   */\n      swap1\n      pop\n        /* \"#utility.yul\":2658:2691   */\n      tag_341\n        /* \"#utility.yul\":2685:2690   */\n      dup2\n        /* \"#utility.yul\":2658:2691   */\n      tag_257\n      jump\t// in\n    tag_341:\n        /* \"#utility.yul\":2558:2697   */\n      swap3\n      swap2\n      pop\n      pop\n      jump\t// out\n        /* \"#utility.yul\":2703:3032   */\n    tag_33:\n        /* \"#utility.yul\":2762:2768   */\n      0x00\n        /* \"#utility.yul\":2811:2813   */\n      0x20\n        /* \"#utility.yul\":2799:2808   */\n      dup3\n        /* \"#utility.yul\":2790:2797   */\n      dup5\n        /* \"#utility.yul\":2786:2809   */\n      sub\n        /* \"#utility.yul\":2782:2814   */\n      slt\n        /* \"#utility.yul\":2779:2898   */\n      iszero\n      tag_343\n      jumpi\n        /* \"#utility.yul\":2817:2896   */\n      tag_344\n      tag_255\n      jump\t// in\n    tag_344:\n        /* \"#utility.yul\":2779:2898   */\n    tag_343:\n        /* \"#utility.yul\":2937:2938   */\n      0x00\n        /* \"#utility.yul\":2962:3015   */\n      tag_345\n        /* \"#utility.yul\":3007:3014   */\n      dup5\n        /* \"#utility.yul\":2998:3004   */\n      dup3\n        /* \"#utility.yul\":2987:2996   */\n      dup6\n        /* \"#utility.yul\":2983:3005   */\n      add\n        /* \"#utility.yul\":2962:3015   */\n      tag_258\n      jump\t// in\n    tag_345:\n        /* \"#utility.yul\":2952:3015   */\n      swap2\n      pop\n        /* \"#utility.yul\":2908:3025   */\n      pop\n        /* \"#utility.yul\":2703:3032   */\n      swap3\n      swap2\n      pop\n      pop\n      jump\t// out\n        /* \"#utility.yul\":3038:3155   */\n    tag_259:\n        /* \"#utility.yul\":3147:3148   */\n      0x00\n        /* \"#utility.yul\":3144:3145   */\n      dup1\n        /* \"#utility.yul\":3137:3149   */\n      revert\n        /* \"#utility.yul\":3161:3278   */\n    tag_260:\n        /* \"#utility.yul\":3270:3271   */\n      0x00\n        /* \"#utility.yul\":3267:3268   */\n      dup1\n        /* \"#utility.yul\":3260:3272   */\n      revert\n        /* \"#utility.yul\":3284:3386   */\n    tag_261:\n        /* \"#utility.yul\":3325:3331   */\n      0x00\n        /* \"#utility.yul\":3376:3378   */\n      0x1f\n        /* \"#utility.yul\":3372:3379   */\n      not\n        /* \"#utility.yul\":3367:3369   */\n      0x1f\n        /* \"#utility.yul\":3360:3365   */\n      dup4\n        /* \"#utility.yul\":3356:3370   */\n      add\n        /* \"#utility.yul\":3352:3380   */\n      and\n        /* \"#utility.yul\":3342:3380   */\n      swap1\n      pop\n        /* \"#utility.yul\":3284:3386   */\n      swap2\n      swap1\n      pop\n      jump\t// out\n        /* \"#utility.yul\":3392:3572   */\n    tag_212:\n        /* \"#utility.yul\":3440:3517   */\n      0x4e487b7100000000000000000000000000000000000000000000000000000000\n        /* \"#utility.yul\":3437:3438   */\n      0x00\n        /* \"#utility.yul\":3430:3518   */\n      mstore\n        /* \"#utility.yul\":3537:3541   */\n      0x41\n        /* \"#utility.yul\":3534:3535   */\n      0x04\n        /* \"#utility.yul\":3527:3542   */\n      mstore\n        /* \"#utility.yul\":3561:3565   */\n      0x24\n        /* \"#utility.yul\":3558:3559   */\n      0x00\n        /* \"#utility.yul\":3551:3566   */\n      revert\n        /* \"#utility.yul\":3578:3859   */\n    tag_262:\n        /* \"#utility.yul\":3661:3688   */\n      tag_351\n        /* \"#utility.yul\":3683:3687   */\n      dup3\n        /* \"#utility.yul\":3661:3688   */\n      tag_261\n      jump\t// in\n    tag_351:\n        /* \"#utility.yul\":3653:3659   */\n      dup2\n        /* \"#utility.yul\":3649:3689   */\n      add\n        /* \"#utility.yul\":3791:3797   */\n      dup2\n        /* \"#utility.yul\":3779:3789   */\n      dup2\n        /* \"#utility.yul\":3776:3798   */\n      lt\n        /* \"#utility.yul\":3755:3773   */\n      0xffffffffffffffff\n        /* \"#utility.yul\":3743:3753   */\n      dup3\n        /* \"#utility.yul\":3740:3774   */\n      gt\n        /* \"#utility.yul\":3737:3799   */\n      or\n        /* \"#utility.yul\":3734:3822   */\n      iszero\n      tag_352\n      jumpi\n        /* \"#utility.yul\":3802:3820   */\n      tag_353\n      tag_212\n      jump\t// in\n    tag_353:\n        /* \"#utility.yul\":3734:3822   */\n    tag_352:\n        /* \"#utility.yul\":3842:3852   */\n      dup1\n        /* \"#utility.yul\":3838:3840   */\n      0x40\n        /* \"#utility.yul\":3831:3853   */\n      mstore\n        /* \"#utility.yul\":3621:3859   */\n      pop\n        /* \"#utility.yul\":3578:3859   */\n      pop\n      pop\n      jump\t// out\n        /* \"#utility.yul\":3865:3994   */\n    tag_263:\n        /* \"#utility.yul\":3899:3905   */\n      0x00\n        /* \"#utility.yul\":3926:3946   */\n      tag_355\n      tag_254\n      jump\t// in\n    tag_355:\n        /* \"#utility.yul\":3916:3946   */\n      swap1\n      pop\n        /* \"#utility.yul\":3955:3988   */\n      tag_356\n        /* \"#utility.yul\":3983:3987   */\n      dup3\n        /* \"#utility.yul\":3975:3981   */\n      dup3\n        /* \"#utility.yul\":3955:3988   */\n      tag_262\n      jump\t// in\n    tag_356:\n        /* \"#utility.yul\":3865:3994   */\n      swap2\n      swap1\n      pop\n      jump\t// out\n        /* \"#utility.yul\":4000:4308   */\n    tag_264:\n        /* \"#utility.yul\":4062:4066   */\n      0x00\n        /* \"#utility.yul\":4152:4170   */\n      0xffffffffffffffff\n        /* \"#utility.yul\":4144:4150   */\n      dup3\n        /* \"#utility.yul\":4141:4171   */\n      gt\n        /* \"#utility.yul\":4138:4194   */\n      iszero\n      tag_358\n      jumpi\n        /* \"#utility.yul\":4174:4192   */\n      tag_359\n      tag_212\n      jump\t// in\n    tag_359:\n        /* \"#utility.yul\":4138:4194   */\n    tag_358:\n        /* \"#utility.yul\":4212:4241   */\n      tag_360\n        /* \"#utility.yul\":4234:4240   */\n      dup3\n        /* \"#utility.yul\":4212:4241   */\n      tag_261\n      jump\t// in\n    tag_360:\n        /* \"#utility.yul\":4204:4241   */\n      swap1\n      pop\n        /* \"#utility.yul\":4296:4300   */\n      0x20\n        /* \"#utility.yul\":4290:4294   */\n      dup2\n        /* \"#utility.yul\":4286:4301   */\n      add\n        /* \"#utility.yul\":4278:4301   */\n      swap1\n      pop\n        /* \"#utility.yul\":4000:4308   */\n      swap2\n      swap1\n      pop\n      jump\t// out\n        /* \"#utility.yul\":4314:4468   */\n    tag_265:\n        /* \"#utility.yul\":4398:4404   */\n      dup3\n        /* \"#utility.yul\":4393:4396   */\n      dup2\n        /* \"#utility.yul\":4388:4391   */\n      dup4\n        /* \"#utility.yul\":4375:4405   */\n      calldatacopy\n        /* \"#utility.yul\":4460:4461   */\n      0x00\n        /* \"#utility.yul\":4451:4457   */\n      dup4\n        /* \"#utility.yul\":4446:4449   */\n      dup4\n        /* \"#utility.yul\":4442:4458   */\n      add\n        /* \"#utility.yul\":4435:4462   */\n      mstore\n        /* \"#utility.yul\":4314:4468   */\n      pop\n      pop\n      pop\n      jump\t// out\n        /* \"#utility.yul\":4474:4886   */\n    tag_266:\n        /* \"#utility.yul\":4552:4557   */\n      0x00\n        /* \"#utility.yul\":4577:4643   */\n      tag_363\n        /* \"#utility.yul\":4593:4642   */\n      tag_364\n        /* \"#utility.yul\":4635:4641   */\n      dup5\n        /* \"#utility.yul\":4593:4642   */\n      tag_264\n      jump\t// in\n    tag_364:\n        /* \"#utility.yul\":4577:4643   */\n      tag_263\n      jump\t// in\n    tag_363:\n        /* \"#utility.yul\":4568:4643   */\n      swap1\n      pop\n        /* \"#utility.yul\":4666:4672   */\n      dup3\n        /* \"#utility.yul\":4659:4664   */\n      dup2\n        /* \"#utility.yul\":4652:4673   */\n      mstore\n        /* \"#utility.yul\":4704:4708   */\n      0x20\n        /* \"#utility.yul\":4697:4702   */\n      dup2\n        /* \"#utility.yul\":4693:4709   */\n      add\n        /* \"#utility.yul\":4742:4745   */\n      dup5\n        /* \"#utility.yul\":4733:4739   */\n      dup5\n        /* \"#utility.yul\":4728:4731   */\n      dup5\n        /* \"#utility.yul\":4724:4740   */\n      add\n        /* \"#utility.yul\":4721:4746   */\n      gt\n        /* \"#utility.yul\":4718:4830   */\n      iszero\n      tag_365\n      jumpi\n        /* \"#utility.yul\":4749:4828   */\n      tag_366\n      tag_260\n      jump\t// in\n    tag_366:\n        /* \"#utility.yul\":4718:4830   */\n    tag_365:\n        /* \"#utility.yul\":4839:4880   */\n      tag_367\n        /* \"#utility.yul\":4873:4879   */\n      dup5\n        /* \"#utility.yul\":4868:4871   */\n      dup3\n        /* \"#utility.yul\":4863:4866   */\n      dup6\n        /* \"#utility.yul\":4839:4880   */\n      tag_265\n      jump\t// in\n    tag_367:\n        /* \"#utility.yul\":4558:4886   */\n      pop\n        /* \"#utility.yul\":4474:4886   */\n      swap4\n      swap3\n      pop\n      pop\n      pop\n      jump\t// out\n        /* \"#utility.yul\":4906:5246   */\n    tag_267:\n        /* \"#utility.yul\":4962:4967   */\n      0x00\n        /* \"#utility.yul\":5011:5014   */\n      dup3\n        /* \"#utility.yul\":5004:5008   */\n      0x1f\n        /* \"#utility.yul\":4996:5002   */\n      dup4\n        /* \"#utility.yul\":4992:5009   */\n      add\n        /* \"#utility.yul\":4988:5015   */\n      slt\n        /* \"#utility.yul\":4978:5100   */\n      tag_369\n      jumpi\n        /* \"#utility.yul\":5019:5098   */\n      tag_370\n      tag_259\n      jump\t// in\n    tag_370:\n        /* \"#utility.yul\":4978:5100   */\n    tag_369:\n        /* \"#utility.yul\":5136:5142   */\n      dup2\n        /* \"#utility.yul\":5123:5143   */\n      calldataload\n        /* \"#utility.yul\":5161:5240   */\n      tag_371\n        /* \"#utility.yul\":5236:5239   */\n      dup5\n        /* \"#utility.yul\":5228:5234   */\n      dup3\n        /* \"#utility.yul\":5221:5225   */\n      0x20\n        /* \"#utility.yul\":5213:5219   */\n      dup7\n        /* \"#utility.yul\":5209:5226   */\n      add\n        /* \"#utility.yul\":5161:5240   */\n      tag_266\n      jump\t// in\n    tag_371:\n        /* \"#utility.yul\":5152:5240   */\n      swap2\n      pop\n        /* \"#utility.yul\":4968:5246   */\n      pop\n        /* \"#utility.yul\":4906:5246   */\n      swap3\n      swap2\n      pop\n      pop\n      jump\t// out\n        /* \"#utility.yul\":5252:6086   */\n    tag_38:\n        /* \"#utility.yul\":5340:5346   */\n      0x00\n        /* \"#utility.yul\":5348:5354   */\n      dup1\n        /* \"#utility.yul\":5397:5399   */\n      0x40\n        /* \"#utility.yul\":5385:5394   */\n      dup4\n        /* \"#utility.yul\":5376:5383   */\n      dup6\n        /* \"#utility.yul\":5372:5395   */\n      sub\n        /* \"#utility.yul\":5368:5400   */\n      slt\n        /* \"#utility.yul\":5365:5484   */\n      iszero\n      tag_373\n      jumpi\n        /* \"#utility.yul\":5403:5482   */\n      tag_374\n      tag_255\n      jump\t// in\n    tag_374:\n        /* \"#utility.yul\":5365:5484   */\n    tag_373:\n        /* \"#utility.yul\":5551:5552   */\n      0x00\n        /* \"#utility.yul\":5540:5549   */\n      dup4\n        /* \"#utility.yul\":5536:5553   */\n      add\n        /* \"#utility.yul\":5523:5554   */\n      calldataload\n        /* \"#utility.yul\":5581:5599   */\n      0xffffffffffffffff\n        /* \"#utility.yul\":5573:5579   */\n      dup2\n        /* \"#utility.yul\":5570:5600   */\n      gt\n        /* \"#utility.yul\":5567:5684   */\n      iszero\n      tag_375\n      jumpi\n        /* \"#utility.yul\":5603:5682   */\n      tag_376\n      tag_256\n      jump\t// in\n    tag_376:\n        /* \"#utility.yul\":5567:5684   */\n    tag_375:\n        /* \"#utility.yul\":5708:5771   */\n      tag_377\n        /* \"#utility.yul\":5763:5770   */\n      dup6\n        /* \"#utility.yul\":5754:5760   */\n      dup3\n        /* \"#utility.yul\":5743:5752   */\n      dup7\n        /* \"#utility.yul\":5739:5761   */\n      add\n        /* \"#utility.yul\":5708:5771   */\n      tag_267\n      jump\t// in\n    tag_377:\n        /* \"#utility.yul\":5698:5771   */\n      swap3\n      pop\n        /* \"#utility.yul\":5494:5781   */\n      pop\n        /* \"#utility.yul\":5848:5850   */\n      0x20\n        /* \"#utility.yul\":5837:5846   */\n      dup4\n        /* \"#utility.yul\":5833:5851   */\n      add\n        /* \"#utility.yul\":5820:5852   */\n      calldataload\n        /* \"#utility.yul\":5879:5897   */\n      0xffffffffffffffff\n        /* \"#utility.yul\":5871:5877   */\n      dup2\n        /* \"#utility.yul\":5868:5898   */\n      gt\n        /* \"#utility.yul\":5865:5982   */\n      iszero\n      tag_378\n      jumpi\n        /* \"#utility.yul\":5901:5980   */\n      tag_379\n      tag_256\n      jump\t// in\n    tag_379:\n        /* \"#utility.yul\":5865:5982   */\n    tag_378:\n        /* \"#utility.yul\":6006:6069   */\n      tag_380\n        /* \"#utility.yul\":6061:6068   */\n      dup6\n        /* \"#utility.yul\":6052:6058   */\n      dup3\n        /* \"#utility.yul\":6041:6050   */\n      dup7\n        /* \"#utility.yul\":6037:6059   */\n      add\n        /* \"#utility.yul\":6006:6069   */\n      tag_267\n      jump\t// in\n    tag_380:\n        /* \"#utility.yul\":5996:6069   */\n      swap2\n      pop\n        /* \"#utility.yul\":5791:6079   */\n      pop\n        /* \"#utility.yul\":5252:6086   */\n      swap3\n      pop\n      swap3\n      swap1\n      pop\n      jump\t// out\n        /* \"#utility.yul\":6092:6191   */\n    tag_268:\n        /* \"#utility.yul\":6144:6150   */\n      0x00\n        /* \"#utility.yul\":6178:6183   */\n      dup2\n        /* \"#utility.yul\":6172:6184   */\n      mload\n        /* \"#utility.yul\":6162:6184   */\n      swap1\n      pop\n        /* \"#utility.yul\":6092:6191   */\n      swap2\n      swap1\n      pop\n      jump\t// out\n        /* \"#utility.yul\":6197:6366   */\n    tag_269:\n        /* \"#utility.yul\":6281:6292   */\n      0x00\n        /* \"#utility.yul\":6315:6321   */\n      dup3\n        /* \"#utility.yul\":6310:6313   */\n      dup3\n        /* \"#utility.yul\":6303:6322   */\n      mstore\n        /* \"#utility.yul\":6355:6359   */\n      0x20\n        /* \"#utility.yul\":6350:6353   */\n      dup3\n        /* \"#utility.yul\":6346:6360   */\n      add\n        /* \"#utility.yul\":6331:6360   */\n      swap1\n      pop\n        /* \"#utility.yul\":6197:6366   */\n      swap3\n      swap2\n      pop\n      pop\n      jump\t// out\n        /* \"#utility.yul\":6372:6679   */\n    tag_270:\n        /* \"#utility.yul\":6440:6441   */\n      0x00\n        /* \"#utility.yul\":6450:6563   */\n    tag_384:\n        /* \"#utility.yul\":6464:6470   */\n      dup4\n        /* \"#utility.yul\":6461:6462   */\n      dup2\n        /* \"#utility.yul\":6458:6471   */\n      lt\n        /* \"#utility.yul\":6450:6563   */\n      iszero\n      tag_386\n      jumpi\n        /* \"#utility.yul\":6549:6550   */\n      dup1\n        /* \"#utility.yul\":6544:6547   */\n      dup3\n        /* \"#utility.yul\":6540:6551   */\n      add\n        /* \"#utility.yul\":6534:6552   */\n      mload\n        /* \"#utility.yul\":6530:6531   */\n      dup2\n        /* \"#utility.yul\":6525:6528   */\n      dup5\n        /* \"#utility.yul\":6521:6532   */\n      add\n        /* \"#utility.yul\":6514:6553   */\n      mstore\n        /* \"#utility.yul\":6486:6488   */\n      0x20\n        /* \"#utility.yul\":6483:6484   */\n      dup2\n        /* \"#utility.yul\":6479:6489   */\n      add\n        /* \"#utility.yul\":6474:6489   */\n      swap1\n      pop\n        /* \"#utility.yul\":6450:6563   */\n      jump(tag_384)\n    tag_386:\n        /* \"#utility.yul\":6581:6587   */\n      dup4\n        /* \"#utility.yul\":6578:6579   */\n      dup2\n        /* \"#utility.yul\":6575:6588   */\n      gt\n        /* \"#utility.yul\":6572:6673   */\n      iszero\n      tag_387\n      jumpi\n        /* \"#utility.yul\":6661:6662   */\n      0x00\n        /* \"#utility.yul\":6652:6658   */\n      dup5\n        /* \"#utility.yul\":6647:6650   */\n      dup5\n        /* \"#utility.yul\":6643:6659   */\n      add\n        /* \"#utility.yul\":6636:6663   */\n      mstore\n        /* \"#utility.yul\":6572:6673   */\n    tag_387:\n        /* \"#utility.yul\":6421:6679   */\n      pop\n        /* \"#utility.yul\":6372:6679   */\n      pop\n      pop\n      pop\n      jump\t// out\n        /* \"#utility.yul\":6685:7049   */\n    tag_271:\n        /* \"#utility.yul\":6773:6776   */\n      0x00\n        /* \"#utility.yul\":6801:6840   */\n      tag_389\n        /* \"#utility.yul\":6834:6839   */\n      dup3\n        /* \"#utility.yul\":6801:6840   */\n      tag_268\n      jump\t// in\n    tag_389:\n        /* \"#utility.yul\":6856:6927   */\n      tag_390\n        /* \"#utility.yul\":6920:6926   */\n      dup2\n        /* \"#utility.yul\":6915:6918   */\n      dup6\n        /* \"#utility.yul\":6856:6927   */\n      tag_269\n      jump\t// in\n    tag_390:\n        /* \"#utility.yul\":6849:6927   */\n      swap4\n      pop\n        /* \"#utility.yul\":6936:6988   */\n      tag_391\n        /* \"#utility.yul\":6981:6987   */\n      dup2\n        /* \"#utility.yul\":6976:6979   */\n      dup6\n        /* \"#utility.yul\":6969:6973   */\n      0x20\n        /* \"#utility.yul\":6962:6967   */\n      dup7\n        /* \"#utility.yul\":6958:6974   */\n      add\n        /* \"#utility.yul\":6936:6988   */\n      tag_270\n      jump\t// in\n    tag_391:\n        /* \"#utility.yul\":7013:7042   */\n      tag_392\n        /* \"#utility.yul\":7035:7041   */\n      dup2\n        /* \"#utility.yul\":7013:7042   */\n      tag_261\n      jump\t// in\n    tag_392:\n        /* \"#utility.yul\":7008:7011   */\n      dup5\n        /* \"#utility.yul\":7004:7043   */\n      add\n        /* \"#utility.yul\":6997:7043   */\n      swap2\n      pop\n        /* \"#utility.yul\":6777:7049   */\n      pop\n        /* \"#utility.yul\":6685:7049   */\n      swap3\n      swap2\n      pop\n      pop\n      jump\t// out\n        /* \"#utility.yul\":7055:7368   */\n    tag_41:\n        /* \"#utility.yul\":7168:7172   */\n      0x00\n        /* \"#utility.yul\":7206:7208   */\n      0x20\n        /* \"#utility.yul\":7195:7204   */\n      dup3\n        /* \"#utility.yul\":7191:7209   */\n      add\n        /* \"#utility.yul\":7183:7209   */\n      swap1\n      pop\n        /* \"#utility.yul\":7255:7264   */\n      dup2\n        /* \"#utility.yul\":7249:7253   */\n      dup2\n        /* \"#utility.yul\":7245:7265   */\n      sub\n        /* \"#utility.yul\":7241:7242   */\n      0x00\n        /* \"#utility.yul\":7230:7239   */\n      dup4\n        /* \"#utility.yul\":7226:7243   */\n      add\n        /* \"#utility.yul\":7219:7266   */\n      mstore\n        /* \"#utility.yul\":7283:7361   */\n      tag_394\n        /* \"#utility.yul\":7356:7360   */\n      dup2\n        /* \"#utility.yul\":7347:7353   */\n      dup5\n        /* \"#utility.yul\":7283:7361   */\n      tag_271\n      jump\t// in\n    tag_394:\n        /* \"#utility.yul\":7275:7361   */\n      swap1\n      pop\n        /* \"#utility.yul\":7055:7368   */\n      swap3\n      swap2\n      pop\n      pop\n      jump\t// out\n        /* \"#utility.yul\":7374:7492   */\n    tag_272:\n        /* \"#utility.yul\":7461:7485   */\n      tag_396\n        /* \"#utility.yul\":7479:7484   */\n      dup2\n        /* \"#utility.yul\":7461:7485   */\n      tag_249\n      jump\t// in\n    tag_396:\n        /* \"#utility.yul\":7456:7459   */\n      dup3\n        /* \"#utility.yul\":7449:7486   */\n      mstore\n        /* \"#utility.yul\":7374:7492   */\n      pop\n      pop\n      jump\t// out\n        /* \"#utility.yul\":7498:7720   */\n    tag_47:\n        /* \"#utility.yul\":7591:7595   */\n      0x00\n        /* \"#utility.yul\":7629:7631   */\n      0x20\n        /* \"#utility.yul\":7618:7627   */\n      dup3\n        /* \"#utility.yul\":7614:7632   */\n      add\n        /* \"#utility.yul\":7606:7632   */\n      swap1\n      pop\n        /* \"#utility.yul\":7642:7713   */\n      tag_398\n        /* \"#utility.yul\":7710:7711   */\n      0x00\n        /* \"#utility.yul\":7699:7708   */\n      dup4\n        /* \"#utility.yul\":7695:7712   */\n      add\n        /* \"#utility.yul\":7686:7692   */\n      dup5\n        /* \"#utility.yul\":7642:7713   */\n      tag_272\n      jump\t// in\n    tag_398:\n        /* \"#utility.yul\":7498:7720   */\n      swap3\n      swap2\n      pop\n      pop\n      jump\t// out\n        /* \"#utility.yul\":7726:7861   */\n    tag_273:\n        /* \"#utility.yul\":7814:7820   */\n      0x00\n        /* \"#utility.yul\":7848:7853   */\n      dup2\n        /* \"#utility.yul\":7842:7854   */\n      mload\n        /* \"#utility.yul\":7832:7854   */\n      swap1\n      pop\n        /* \"#utility.yul\":7726:7861   */\n      swap2\n      swap1\n      pop\n      jump\t// out\n        /* \"#utility.yul\":7867:8072   */\n    tag_274:\n        /* \"#utility.yul\":7987:7998   */\n      0x00\n        /* \"#utility.yul\":8021:8027   */\n      dup3\n        /* \"#utility.yul\":8016:8019   */\n      dup3\n        /* \"#utility.yul\":8009:8028   */\n      mstore\n        /* \"#utility.yul\":8061:8065   */\n      0x20\n        /* \"#utility.yul\":8056:8059   */\n      dup3\n        /* \"#utility.yul\":8052:8066   */\n      add\n        /* \"#utility.yul\":8037:8066   */\n      swap1\n      pop\n        /* \"#utility.yul\":7867:8072   */\n      swap3\n      swap2\n      pop\n      pop\n      jump\t// out\n        /* \"#utility.yul\":8078:8231   */\n    tag_275:\n        /* \"#utility.yul\":8166:8170   */\n      0x00\n        /* \"#utility.yul\":8189:8192   */\n      dup2\n        /* \"#utility.yul\":8181:8192   */\n      swap1\n      pop\n        /* \"#utility.yul\":8219:8223   */\n      0x20\n        /* \"#utility.yul\":8214:8217   */\n      dup3\n        /* \"#utility.yul\":8210:8224   */\n      add\n        /* \"#utility.yul\":8202:8224   */\n      swap1\n      pop\n        /* \"#utility.yul\":8078:8231   */\n      swap2\n      swap1\n      pop\n      jump\t// out\n        /* \"#utility.yul\":8237:8363   */\n    tag_276:\n        /* \"#utility.yul\":8274:8281   */\n      0x00\n        /* \"#utility.yul\":8314:8356   */\n      0xffffffffffffffffffffffffffffffffffffffff\n        /* \"#utility.yul\":8307:8312   */\n      dup3\n        /* \"#utility.yul\":8303:8357   */\n      and\n        /* \"#utility.yul\":8292:8357   */\n      swap1\n      pop\n        /* \"#utility.yul\":8237:8363   */\n      swap2\n      swap1\n      pop\n      jump\t// out\n        /* \"#utility.yul\":8369:8473   */\n    tag_277:\n        /* \"#utility.yul\":8414:8421   */\n      0x00\n        /* \"#utility.yul\":8443:8467   */\n      tag_404\n        /* \"#utility.yul\":8461:8466   */\n      dup3\n        /* \"#utility.yul\":8443:8467   */\n      tag_276\n      jump\t// in\n    tag_404:\n        /* \"#utility.yul\":8432:8467   */\n      swap1\n      pop\n        /* \"#utility.yul\":8369:8473   */\n      swap2\n      swap1\n      pop\n      jump\t// out\n        /* \"#utility.yul\":8479:8611   */\n    tag_278:\n        /* \"#utility.yul\":8572:8604   */\n      tag_406\n        /* \"#utility.yul\":8598:8603   */\n      dup2\n        /* \"#utility.yul\":8572:8604   */\n      tag_277\n      jump\t// in\n    tag_406:\n        /* \"#utility.yul\":8567:8570   */\n      dup3\n        /* \"#utility.yul\":8560:8605   */\n      mstore\n        /* \"#utility.yul\":8479:8611   */\n      pop\n      pop\n      jump\t// out\n        /* \"#utility.yul\":8617:8797   */\n    tag_123:\n        /* \"#utility.yul\":8665:8742   */\n      0x4e487b7100000000000000000000000000000000000000000000000000000000\n        /* \"#utility.yul\":8662:8663   */\n      0x00\n        /* \"#utility.yul\":8655:8743   */\n      mstore\n        /* \"#utility.yul\":8762:8766   */\n      0x21\n        /* \"#utility.yul\":8759:8760   */\n      0x04\n        /* \"#utility.yul\":8752:8767   */\n      mstore\n        /* \"#utility.yul\":8786:8790   */\n      0x24\n        /* \"#utility.yul\":8783:8784   */\n      0x00\n        /* \"#utility.yul\":8776:8791   */\n      revert\n        /* \"#utility.yul\":8803:8915   */\n    tag_279:\n        /* \"#utility.yul\":8883:8884   */\n      0x02\n        /* \"#utility.yul\":8876:8881   */\n      dup2\n        /* \"#utility.yul\":8873:8885   */\n      lt\n        /* \"#utility.yul\":8863:8909   */\n      tag_409\n      jumpi\n        /* \"#utility.yul\":8889:8907   */\n      tag_410\n      tag_123\n      jump\t// in\n    tag_410:\n        /* \"#utility.yul\":8863:8909   */\n    tag_409:\n        /* \"#utility.yul\":8803:8915   */\n      pop\n      jump\t// out\n        /* \"#utility.yul\":8921:9046   */\n    tag_280:\n        /* \"#utility.yul\":8965:8972   */\n      0x00\n        /* \"#utility.yul\":8994:8999   */\n      dup2\n        /* \"#utility.yul\":8983:8999   */\n      swap1\n      pop\n        /* \"#utility.yul\":9000:9040   */\n      tag_412\n        /* \"#utility.yul\":9034:9039   */\n      dup3\n        /* \"#utility.yul\":9000:9040   */\n      tag_279\n      jump\t// in\n    tag_412:\n        /* \"#utility.yul\":8921:9046   */\n      swap2\n      swap1\n      pop\n      jump\t// out\n        /* \"#utility.yul\":9052:9177   */\n    tag_281:\n        /* \"#utility.yul\":9107:9116   */\n      0x00\n        /* \"#utility.yul\":9140:9171   */\n      tag_414\n        /* \"#utility.yul\":9165:9170   */\n      dup3\n        /* \"#utility.yul\":9140:9171   */\n      tag_280\n      jump\t// in\n    tag_414:\n        /* \"#utility.yul\":9127:9171   */\n      swap1\n      pop\n        /* \"#utility.yul\":9052:9177   */\n      swap2\n      swap1\n      pop\n      jump\t// out\n        /* \"#utility.yul\":9183:9314   */\n    tag_282:\n        /* \"#utility.yul\":9265:9307   */\n      tag_416\n        /* \"#utility.yul\":9301:9306   */\n      dup2\n        /* \"#utility.yul\":9265:9307   */\n      tag_281\n      jump\t// in\n    tag_416:\n        /* \"#utility.yul\":9260:9263   */\n      dup3\n        /* \"#utility.yul\":9253:9308   */\n      mstore\n        /* \"#utility.yul\":9183:9314   */\n      pop\n      pop\n      jump\t// out\n        /* \"#utility.yul\":9376:10765   */\n    tag_283:\n        /* \"#utility.yul\":9505:9509   */\n      0xe0\n        /* \"#utility.yul\":9500:9503   */\n      dup3\n        /* \"#utility.yul\":9496:9510   */\n      add\n        /* \"#utility.yul\":9596:9600   */\n      0x00\n        /* \"#utility.yul\":9589:9594   */\n      dup3\n        /* \"#utility.yul\":9585:9601   */\n      add\n        /* \"#utility.yul\":9579:9602   */\n      mload\n        /* \"#utility.yul\":9615:9694   */\n      tag_418\n        /* \"#utility.yul\":9688:9692   */\n      0x00\n        /* \"#utility.yul\":9683:9686   */\n      dup6\n        /* \"#utility.yul\":9679:9693   */\n      add\n        /* \"#utility.yul\":9665:9677   */\n      dup3\n        /* \"#utility.yul\":9615:9694   */\n      tag_278\n      jump\t// in\n    tag_418:\n        /* \"#utility.yul\":9520:9704   */\n      pop\n        /* \"#utility.yul\":9787:9791   */\n      0x20\n        /* \"#utility.yul\":9780:9785   */\n      dup3\n        /* \"#utility.yul\":9776:9792   */\n      add\n        /* \"#utility.yul\":9770:9793   */\n      mload\n        /* \"#utility.yul\":9806:9869   */\n      tag_419\n        /* \"#utility.yul\":9863:9867   */\n      0x20\n        /* \"#utility.yul\":9858:9861   */\n      dup6\n        /* \"#utility.yul\":9854:9868   */\n      add\n        /* \"#utility.yul\":9840:9852   */\n      dup3\n        /* \"#utility.yul\":9806:9869   */\n      tag_250\n      jump\t// in\n    tag_419:\n        /* \"#utility.yul\":9714:9879   */\n      pop\n        /* \"#utility.yul\":9966:9970   */\n      0x40\n        /* \"#utility.yul\":9959:9964   */\n      dup3\n        /* \"#utility.yul\":9955:9971   */\n      add\n        /* \"#utility.yul\":9949:9972   */\n      mload\n        /* \"#utility.yul\":9985:10048   */\n      tag_420\n        /* \"#utility.yul\":10042:10046   */\n      0x40\n        /* \"#utility.yul\":10037:10040   */\n      dup6\n        /* \"#utility.yul\":10033:10047   */\n      add\n        /* \"#utility.yul\":10019:10031   */\n      dup3\n        /* \"#utility.yul\":9985:10048   */\n      tag_250\n      jump\t// in\n    tag_420:\n        /* \"#utility.yul\":9889:10058   */\n      pop\n        /* \"#utility.yul\":10141:10145   */\n      0x60\n        /* \"#utility.yul\":10134:10139   */\n      dup3\n        /* \"#utility.yul\":10130:10146   */\n      add\n        /* \"#utility.yul\":10124:10147   */\n      mload\n        /* \"#utility.yul\":10160:10228   */\n      tag_421\n        /* \"#utility.yul\":10222:10226   */\n      0x60\n        /* \"#utility.yul\":10217:10220   */\n      dup6\n        /* \"#utility.yul\":10213:10227   */\n      add\n        /* \"#utility.yul\":10199:10211   */\n      dup3\n        /* \"#utility.yul\":10160:10228   */\n      tag_282\n      jump\t// in\n    tag_421:\n        /* \"#utility.yul\":10068:10238   */\n      pop\n        /* \"#utility.yul\":10318:10322   */\n      0x80\n        /* \"#utility.yul\":10311:10316   */\n      dup3\n        /* \"#utility.yul\":10307:10323   */\n      add\n        /* \"#utility.yul\":10301:10324   */\n      mload\n        /* \"#utility.yul\":10337:10400   */\n      tag_422\n        /* \"#utility.yul\":10394:10398   */\n      0x80\n        /* \"#utility.yul\":10389:10392   */\n      dup6\n        /* \"#utility.yul\":10385:10399   */\n      add\n        /* \"#utility.yul\":10371:10383   */\n      dup3\n        /* \"#utility.yul\":10337:10400   */\n      tag_250\n      jump\t// in\n    tag_422:\n        /* \"#utility.yul\":10248:10410   */\n      pop\n        /* \"#utility.yul\":10492:10496   */\n      0xa0\n        /* \"#utility.yul\":10485:10490   */\n      dup3\n        /* \"#utility.yul\":10481:10497   */\n      add\n        /* \"#utility.yul\":10475:10498   */\n      mload\n        /* \"#utility.yul\":10511:10574   */\n      tag_423\n        /* \"#utility.yul\":10568:10572   */\n      0xa0\n        /* \"#utility.yul\":10563:10566   */\n      dup6\n        /* \"#utility.yul\":10559:10573   */\n      add\n        /* \"#utility.yul\":10545:10557   */\n      dup3\n        /* \"#utility.yul\":10511:10574   */\n      tag_250\n      jump\t// in\n    tag_423:\n        /* \"#utility.yul\":10420:10584   */\n      pop\n        /* \"#utility.yul\":10666:10670   */\n      0xc0\n        /* \"#utility.yul\":10659:10664   */\n      dup3\n        /* \"#utility.yul\":10655:10671   */\n      add\n        /* \"#utility.yul\":10649:10672   */\n      mload\n        /* \"#utility.yul\":10685:10748   */\n      tag_424\n        /* \"#utility.yul\":10742:10746   */\n      0xc0\n        /* \"#utility.yul\":10737:10740   */\n      dup6\n        /* \"#utility.yul\":10733:10747   */\n      add\n        /* \"#utility.yul\":10719:10731   */\n      dup3\n        /* \"#utility.yul\":10685:10748   */\n      tag_250\n      jump\t// in\n    tag_424:\n        /* \"#utility.yul\":10594:10758   */\n      pop\n        /* \"#utility.yul\":9474:10765   */\n      pop\n        /* \"#utility.yul\":9376:10765   */\n      pop\n      pop\n      jump\t// out\n        /* \"#utility.yul\":10771:11034   */\n    tag_284:\n        /* \"#utility.yul\":10882:10892   */\n      0x00\n        /* \"#utility.yul\":10903:10991   */\n      tag_426\n        /* \"#utility.yul\":10987:10990   */\n      dup4\n        /* \"#utility.yul\":10979:10985   */\n      dup4\n        /* \"#utility.yul\":10903:10991   */\n      tag_283\n      jump\t// in\n    tag_426:\n        /* \"#utility.yul\":11023:11027   */\n      0xe0\n        /* \"#utility.yul\":11018:11021   */\n      dup4\n        /* \"#utility.yul\":11014:11028   */\n      add\n        /* \"#utility.yul\":11000:11028   */\n      swap1\n      pop\n        /* \"#utility.yul\":10771:11034   */\n      swap3\n      swap2\n      pop\n      pop\n      jump\t// out\n        /* \"#utility.yul\":11040:11174   */\n    tag_285:\n        /* \"#utility.yul\":11131:11135   */\n      0x00\n        /* \"#utility.yul\":11163:11167   */\n      0x20\n        /* \"#utility.yul\":11158:11161   */\n      dup3\n        /* \"#utility.yul\":11154:11168   */\n      add\n        /* \"#utility.yul\":11146:11168   */\n      swap1\n      pop\n        /* \"#utility.yul\":11040:11174   */\n      swap2\n      swap1\n      pop\n      jump\t// out\n        /* \"#utility.yul\":11240:12140   */\n    tag_286:\n        /* \"#utility.yul\":11401:11404   */\n      0x00\n        /* \"#utility.yul\":11430:11505   */\n      tag_429\n        /* \"#utility.yul\":11499:11504   */\n      dup3\n        /* \"#utility.yul\":11430:11505   */\n      tag_273\n      jump\t// in\n    tag_429:\n        /* \"#utility.yul\":11521:11628   */\n      tag_430\n        /* \"#utility.yul\":11621:11627   */\n      dup2\n        /* \"#utility.yul\":11616:11619   */\n      dup6\n        /* \"#utility.yul\":11521:11628   */\n      tag_274\n      jump\t// in\n    tag_430:\n        /* \"#utility.yul\":11514:11628   */\n      swap4\n      pop\n        /* \"#utility.yul\":11652:11729   */\n      tag_431\n        /* \"#utility.yul\":11723:11728   */\n      dup4\n        /* \"#utility.yul\":11652:11729   */\n      tag_275\n      jump\t// in\n    tag_431:\n        /* \"#utility.yul\":11752:11759   */\n      dup1\n        /* \"#utility.yul\":11783:11784   */\n      0x00\n        /* \"#utility.yul\":11768:12115   */\n    tag_432:\n        /* \"#utility.yul\":11793:11799   */\n      dup4\n        /* \"#utility.yul\":11790:11791   */\n      dup2\n        /* \"#utility.yul\":11787:11800   */\n      lt\n        /* \"#utility.yul\":11768:12115   */\n      iszero\n      tag_434\n      jumpi\n        /* \"#utility.yul\":11869:11875   */\n      dup2\n        /* \"#utility.yul\":11863:11876   */\n      mload\n        /* \"#utility.yul\":11896:12001   */\n      tag_435\n        /* \"#utility.yul\":11997:12000   */\n      dup9\n        /* \"#utility.yul\":11982:11995   */\n      dup3\n        /* \"#utility.yul\":11896:12001   */\n      tag_284\n      jump\t// in\n    tag_435:\n        /* \"#utility.yul\":11889:12001   */\n      swap8\n      pop\n        /* \"#utility.yul\":12024:12105   */\n      tag_436\n        /* \"#utility.yul\":12098:12104   */\n      dup4\n        /* \"#utility.yul\":12024:12105   */\n      tag_285\n      jump\t// in\n    tag_436:\n        /* \"#utility.yul\":12014:12105   */\n      swap3\n      pop\n        /* \"#utility.yul\":11828:12115   */\n      pop\n        /* \"#utility.yul\":11815:11816   */\n      0x01\n        /* \"#utility.yul\":11812:11813   */\n      dup2\n        /* \"#utility.yul\":11808:11817   */\n      add\n        /* \"#utility.yul\":11803:11817   */\n      swap1\n      pop\n        /* \"#utility.yul\":11768:12115   */\n      jump(tag_432)\n    tag_434:\n        /* \"#utility.yul\":11772:11786   */\n      pop\n        /* \"#utility.yul\":12131:12134   */\n      dup6\n        /* \"#utility.yul\":12124:12134   */\n      swap4\n      pop\n        /* \"#utility.yul\":11406:12140   */\n      pop\n      pop\n      pop\n        /* \"#utility.yul\":11240:12140   */\n      swap3\n      swap2\n      pop\n      pop\n      jump\t// out\n        /* \"#utility.yul\":12146:12603   */\n    tag_52:\n        /* \"#utility.yul\":12331:12335   */\n      0x00\n        /* \"#utility.yul\":12369:12371   */\n      0x20\n        /* \"#utility.yul\":12358:12367   */\n      dup3\n        /* \"#utility.yul\":12354:12372   */\n      add\n        /* \"#utility.yul\":12346:12372   */\n      swap1\n      pop\n        /* \"#utility.yul\":12418:12427   */\n      dup2\n        /* \"#utility.yul\":12412:12416   */\n      dup2\n        /* \"#utility.yul\":12408:12428   */\n      sub\n        /* \"#utility.yul\":12404:12405   */\n      0x00\n        /* \"#utility.yul\":12393:12402   */\n      dup4\n        /* \"#utility.yul\":12389:12406   */\n      add\n        /* \"#utility.yul\":12382:12429   */\n      mstore\n        /* \"#utility.yul\":12446:12596   */\n      tag_438\n        /* \"#utility.yul\":12591:12595   */\n      dup2\n        /* \"#utility.yul\":12582:12588   */\n      dup5\n        /* \"#utility.yul\":12446:12596   */\n      tag_286\n      jump\t// in\n    tag_438:\n        /* \"#utility.yul\":12438:12596   */\n      swap1\n      pop\n        /* \"#utility.yul\":12146:12603   */\n      swap3\n      swap2\n      pop\n      pop\n      jump\t// out\n        /* \"#utility.yul\":12609:12750   */\n    tag_287:\n        /* \"#utility.yul\":12701:12743   */\n      tag_440\n        /* \"#utility.yul\":12737:12742   */\n      dup2\n        /* \"#utility.yul\":12701:12743   */\n      tag_281\n      jump\t// in\n    tag_440:\n        /* \"#utility.yul\":12696:12699   */\n      dup3\n        /* \"#utility.yul\":12689:12744   */\n      mstore\n        /* \"#utility.yul\":12609:12750   */\n      pop\n      pop\n      jump\t// out\n        /* \"#utility.yul\":12756:12988   */\n    tag_62:\n        /* \"#utility.yul\":12854:12858   */\n      0x00\n        /* \"#utility.yul\":12892:12894   */\n      0x20\n        /* \"#utility.yul\":12881:12890   */\n      dup3\n        /* \"#utility.yul\":12877:12895   */\n      add\n        /* \"#utility.yul\":12869:12895   */\n      swap1\n      pop\n        /* \"#utility.yul\":12905:12981   */\n      tag_442\n        /* \"#utility.yul\":12978:12979   */\n      0x00\n        /* \"#utility.yul\":12967:12976   */\n      dup4\n        /* \"#utility.yul\":12963:12980   */\n      add\n        /* \"#utility.yul\":12954:12960   */\n      dup5\n        /* \"#utility.yul\":12905:12981   */\n      tag_287\n      jump\t// in\n    tag_442:\n        /* \"#utility.yul\":12756:12988   */\n      swap3\n      swap2\n      pop\n      pop\n      jump\t// out\n        /* \"#utility.yul\":12994:13136   */\n    tag_288:\n        /* \"#utility.yul\":13097:13129   */\n      tag_444\n        /* \"#utility.yul\":13123:13128   */\n      dup2\n        /* \"#utility.yul\":13097:13129   */\n      tag_277\n      jump\t// in\n    tag_444:\n        /* \"#utility.yul\":13092:13095   */\n      dup3\n        /* \"#utility.yul\":13085:13130   */\n      mstore\n        /* \"#utility.yul\":12994:13136   */\n      pop\n      pop\n      jump\t// out\n        /* \"#utility.yul\":13142:13396   */\n    tag_68:\n        /* \"#utility.yul\":13251:13255   */\n      0x00\n        /* \"#utility.yul\":13289:13291   */\n      0x20\n        /* \"#utility.yul\":13278:13287   */\n      dup3\n        /* \"#utility.yul\":13274:13292   */\n      add\n        /* \"#utility.yul\":13266:13292   */\n      swap1\n      pop\n        /* \"#utility.yul\":13302:13389   */\n      tag_446\n        /* \"#utility.yul\":13386:13387   */\n      0x00\n        /* \"#utility.yul\":13375:13384   */\n      dup4\n        /* \"#utility.yul\":13371:13388   */\n      add\n        /* \"#utility.yul\":13362:13368   */\n      dup5\n        /* \"#utility.yul\":13302:13389   */\n      tag_288\n      jump\t// in\n    tag_446:\n        /* \"#utility.yul\":13142:13396   */\n      swap3\n      swap2\n      pop\n      pop\n      jump\t// out\n        /* \"#utility.yul\":13402:13492   */\n    tag_289:\n        /* \"#utility.yul\":13436:13443   */\n      0x00\n        /* \"#utility.yul\":13479:13484   */\n      dup2\n        /* \"#utility.yul\":13472:13485   */\n      iszero\n        /* \"#utility.yul\":13465:13486   */\n      iszero\n        /* \"#utility.yul\":13454:13486   */\n      swap1\n      pop\n        /* \"#utility.yul\":13402:13492   */\n      swap2\n      swap1\n      pop\n      jump\t// out\n        /* \"#utility.yul\":13498:13607   */\n    tag_290:\n        /* \"#utility.yul\":13579:13600   */\n      tag_449\n        /* \"#utility.yul\":13594:13599   */\n      dup2\n        /* \"#utility.yul\":13579:13600   */\n      tag_289\n      jump\t// in\n    tag_449:\n        /* \"#utility.yul\":13574:13577   */\n      dup3\n        /* \"#utility.yul\":13567:13601   */\n      mstore\n        /* \"#utility.yul\":13498:13607   */\n      pop\n      pop\n      jump\t// out\n        /* \"#utility.yul\":13613:14640   */\n    tag_114:\n        /* \"#utility.yul\":13917:13921   */\n      0x00\n        /* \"#utility.yul\":13955:13958   */\n      0x0100\n        /* \"#utility.yul\":13944:13953   */\n      dup3\n        /* \"#utility.yul\":13940:13959   */\n      add\n        /* \"#utility.yul\":13932:13959   */\n      swap1\n      pop\n        /* \"#utility.yul\":13969:14056   */\n      tag_451\n        /* \"#utility.yul\":14053:14054   */\n      0x00\n        /* \"#utility.yul\":14042:14051   */\n      dup4\n        /* \"#utility.yul\":14038:14055   */\n      add\n        /* \"#utility.yul\":14029:14035   */\n      dup12\n        /* \"#utility.yul\":13969:14056   */\n      tag_288\n      jump\t// in\n    tag_451:\n        /* \"#utility.yul\":14066:14138   */\n      tag_452\n        /* \"#utility.yul\":14134:14136   */\n      0x20\n        /* \"#utility.yul\":14123:14132   */\n      dup4\n        /* \"#utility.yul\":14119:14137   */\n      add\n        /* \"#utility.yul\":14110:14116   */\n      dup11\n        /* \"#utility.yul\":14066:14138   */\n      tag_272\n      jump\t// in\n    tag_452:\n        /* \"#utility.yul\":14148:14220   */\n      tag_453\n        /* \"#utility.yul\":14216:14218   */\n      0x40\n        /* \"#utility.yul\":14205:14214   */\n      dup4\n        /* \"#utility.yul\":14201:14219   */\n      add\n        /* \"#utility.yul\":14192:14198   */\n      dup10\n        /* \"#utility.yul\":14148:14220   */\n      tag_272\n      jump\t// in\n    tag_453:\n        /* \"#utility.yul\":14230:14307   */\n      tag_454\n        /* \"#utility.yul\":14303:14305   */\n      0x60\n        /* \"#utility.yul\":14292:14301   */\n      dup4\n        /* \"#utility.yul\":14288:14306   */\n      add\n        /* \"#utility.yul\":14279:14285   */\n      dup9\n        /* \"#utility.yul\":14230:14307   */\n      tag_287\n      jump\t// in\n    tag_454:\n        /* \"#utility.yul\":14317:14390   */\n      tag_455\n        /* \"#utility.yul\":14385:14388   */\n      0x80\n        /* \"#utility.yul\":14374:14383   */\n      dup4\n        /* \"#utility.yul\":14370:14389   */\n      add\n        /* \"#utility.yul\":14361:14367   */\n      dup8\n        /* \"#utility.yul\":14317:14390   */\n      tag_272\n      jump\t// in\n    tag_455:\n        /* \"#utility.yul\":14400:14473   */\n      tag_456\n        /* \"#utility.yul\":14468:14471   */\n      0xa0\n        /* \"#utility.yul\":14457:14466   */\n      dup4\n        /* \"#utility.yul\":14453:14472   */\n      add\n        /* \"#utility.yul\":14444:14450   */\n      dup7\n        /* \"#utility.yul\":14400:14473   */\n      tag_272\n      jump\t// in\n    tag_456:\n        /* \"#utility.yul\":14483:14556   */\n      tag_457\n        /* \"#utility.yul\":14551:14554   */\n      0xc0\n        /* \"#utility.yul\":14540:14549   */\n      dup4\n        /* \"#utility.yul\":14536:14555   */\n      add\n        /* \"#utility.yul\":14527:14533   */\n      dup6\n        /* \"#utility.yul\":14483:14556   */\n      tag_272\n      jump\t// in\n    tag_457:\n        /* \"#utility.yul\":14566:14633   */\n      tag_458\n        /* \"#utility.yul\":14628:14631   */\n      0xe0\n        /* \"#utility.yul\":14617:14626   */\n      dup4\n        /* \"#utility.yul\":14613:14632   */\n      add\n        /* \"#utility.yul\":14604:14610   */\n      dup5\n        /* \"#utility.yul\":14566:14633   */\n      tag_290\n      jump\t// in\n    tag_458:\n        /* \"#utility.yul\":13613:14640   */\n      swap10\n      swap9\n      pop\n      pop\n      pop\n      pop\n      pop\n      pop\n      pop\n      pop\n      pop\n      jump\t// out\n        /* \"#utility.yul\":14646:14809   */\n    tag_291:\n        /* \"#utility.yul\":14786:14801   */\n      0x4f726465722050656e64696e6700000000000000000000000000000000000000\n        /* \"#utility.yul\":14782:14783   */\n      0x00\n        /* \"#utility.yul\":14774:14780   */\n      dup3\n        /* \"#utility.yul\":14770:14784   */\n      add\n        /* \"#utility.yul\":14763:14802   */\n      mstore\n        /* \"#utility.yul\":14646:14809   */\n      pop\n      jump\t// out\n        /* \"#utility.yul\":14815:15181   */\n    tag_292:\n        /* \"#utility.yul\":14957:14960   */\n      0x00\n        /* \"#utility.yul\":14978:15045   */\n      tag_461\n        /* \"#utility.yul\":15042:15044   */\n      0x0d\n        /* \"#utility.yul\":15037:15040   */\n      dup4\n        /* \"#utility.yul\":14978:15045   */\n      tag_269\n      jump\t// in\n    tag_461:\n        /* \"#utility.yul\":14971:15045   */\n      swap2\n      pop\n        /* \"#utility.yul\":15054:15147   */\n      tag_462\n        /* \"#utility.yul\":15143:15146   */\n      dup3\n        /* \"#utility.yul\":15054:15147   */\n      tag_291\n      jump\t// in\n    tag_462:\n        /* \"#utility.yul\":15172:15174   */\n      0x20\n        /* \"#utility.yul\":15167:15170   */\n      dup3\n        /* \"#utility.yul\":15163:15175   */\n      add\n        /* \"#utility.yul\":15156:15175   */\n      swap1\n      pop\n        /* \"#utility.yul\":14815:15181   */\n      swap2\n      swap1\n      pop\n      jump\t// out\n        /* \"#utility.yul\":15187:15606   */\n    tag_133:\n        /* \"#utility.yul\":15353:15357   */\n      0x00\n        /* \"#utility.yul\":15391:15393   */\n      0x20\n        /* \"#utility.yul\":15380:15389   */\n      dup3\n        /* \"#utility.yul\":15376:15394   */\n      add\n        /* \"#utility.yul\":15368:15394   */\n      swap1\n      pop\n        /* \"#utility.yul\":15440:15449   */\n      dup2\n        /* \"#utility.yul\":15434:15438   */\n      dup2\n        /* \"#utility.yul\":15430:15450   */\n      sub\n        /* \"#utility.yul\":15426:15427   */\n      0x00\n        /* \"#utility.yul\":15415:15424   */\n      dup4\n        /* \"#utility.yul\":15411:15428   */\n      add\n        /* \"#utility.yul\":15404:15451   */\n      mstore\n        /* \"#utility.yul\":15468:15599   */\n      tag_464\n        /* \"#utility.yul\":15594:15598   */\n      dup2\n        /* \"#utility.yul\":15468:15599   */\n      tag_292\n      jump\t// in\n    tag_464:\n        /* \"#utility.yul\":15460:15599   */\n      swap1\n      pop\n        /* \"#utility.yul\":15187:15606   */\n      swap2\n      swap1\n      pop\n      jump\t// out\n        /* \"#utility.yul\":15612:15776   */\n    tag_293:\n        /* \"#utility.yul\":15752:15768   */\n      0x4e6f7420417574686f7269736564000000000000000000000000000000000000\n        /* \"#utility.yul\":15748:15749   */\n      0x00\n        /* \"#utility.yul\":15740:15746   */\n      dup3\n        /* \"#utility.yul\":15736:15750   */\n      add\n        /* \"#utility.yul\":15729:15769   */\n      mstore\n        /* \"#utility.yul\":15612:15776   */\n      pop\n      jump\t// out\n        /* \"#utility.yul\":15782:16148   */\n    tag_294:\n        /* \"#utility.yul\":15924:15927   */\n      0x00\n        /* \"#utility.yul\":15945:16012   */\n      tag_467\n        /* \"#utility.yul\":16009:16011   */\n      0x0e\n        /* \"#utility.yul\":16004:16007   */\n      dup4\n        /* \"#utility.yul\":15945:16012   */\n      tag_269\n      jump\t// in\n    tag_467:\n        /* \"#utility.yul\":15938:16012   */\n      swap2\n      pop\n        /* \"#utility.yul\":16021:16114   */\n      tag_468\n        /* \"#utility.yul\":16110:16113   */\n      dup3\n        /* \"#utility.yul\":16021:16114   */\n      tag_293\n      jump\t// in\n    tag_468:\n        /* \"#utility.yul\":16139:16141   */\n      0x20\n        /* \"#utility.yul\":16134:16137   */\n      dup3\n        /* \"#utility.yul\":16130:16142   */\n      add\n        /* \"#utility.yul\":16123:16142   */\n      swap1\n      pop\n        /* \"#utility.yul\":15782:16148   */\n      swap2\n      swap1\n      pop\n      jump\t// out\n        /* \"#utility.yul\":16154:16573   */\n    tag_141:\n        /* \"#utility.yul\":16320:16324   */\n      0x00\n        /* \"#utility.yul\":16358:16360   */\n      0x20\n        /* \"#utility.yul\":16347:16356   */\n      dup3\n        /* \"#utility.yul\":16343:16361   */\n      add\n        /* \"#utility.yul\":16335:16361   */\n      swap1\n      pop\n        /* \"#utility.yul\":16407:16416   */\n      dup2\n        /* \"#utility.yul\":16401:16405   */\n      dup2\n        /* \"#utility.yul\":16397:16417   */\n      sub\n        /* \"#utility.yul\":16393:16394   */\n      0x00\n        /* \"#utility.yul\":16382:16391   */\n      dup4\n        /* \"#utility.yul\":16378:16395   */\n      add\n        /* \"#utility.yul\":16371:16418   */\n      mstore\n        /* \"#utility.yul\":16435:16566   */\n      tag_470\n        /* \"#utility.yul\":16561:16565   */\n      dup2\n        /* \"#utility.yul\":16435:16566   */\n      tag_294\n      jump\t// in\n    tag_470:\n        /* \"#utility.yul\":16427:16566   */\n      swap1\n      pop\n        /* \"#utility.yul\":16154:16573   */\n      swap2\n      swap1\n      pop\n      jump\t// out\n        /* \"#utility.yul\":16579:16727   */\n    tag_295:\n        /* \"#utility.yul\":16681:16692   */\n      0x00\n        /* \"#utility.yul\":16718:16721   */\n      dup2\n        /* \"#utility.yul\":16703:16721   */\n      swap1\n      pop\n        /* \"#utility.yul\":16579:16727   */\n      swap3\n      swap2\n      pop\n      pop\n      jump\t// out\n        /* \"#utility.yul\":16733:17110   */\n    tag_296:\n        /* \"#utility.yul\":16839:16842   */\n      0x00\n        /* \"#utility.yul\":16867:16906   */\n      tag_473\n        /* \"#utility.yul\":16900:16905   */\n      dup3\n        /* \"#utility.yul\":16867:16906   */\n      tag_268\n      jump\t// in\n    tag_473:\n        /* \"#utility.yul\":16922:17011   */\n      tag_474\n        /* \"#utility.yul\":17004:17010   */\n      dup2\n        /* \"#utility.yul\":16999:17002   */\n      dup6\n        /* \"#utility.yul\":16922:17011   */\n      tag_295\n      jump\t// in\n    tag_474:\n        /* \"#utility.yul\":16915:17011   */\n      swap4\n      pop\n        /* \"#utility.yul\":17020:17072   */\n      tag_475\n        /* \"#utility.yul\":17065:17071   */\n      dup2\n        /* \"#utility.yul\":17060:17063   */\n      dup6\n        /* \"#utility.yul\":17053:17057   */\n      0x20\n        /* \"#utility.yul\":17046:17051   */\n      dup7\n        /* \"#utility.yul\":17042:17058   */\n      add\n        /* \"#utility.yul\":17020:17072   */\n      tag_270\n      jump\t// in\n    tag_475:\n        /* \"#utility.yul\":17097:17103   */\n      dup1\n        /* \"#utility.yul\":17092:17095   */\n      dup5\n        /* \"#utility.yul\":17088:17104   */\n      add\n        /* \"#utility.yul\":17081:17104   */\n      swap2\n      pop\n        /* \"#utility.yul\":16843:17110   */\n      pop\n        /* \"#utility.yul\":16733:17110   */\n      swap3\n      swap2\n      pop\n      pop\n      jump\t// out\n        /* \"#utility.yul\":17116:17267   */\n    tag_297:\n        /* \"#utility.yul\":17256:17259   */\n      0x2000000000000000000000000000000000000000000000000000000000000000\n        /* \"#utility.yul\":17252:17253   */\n      0x00\n        /* \"#utility.yul\":17244:17250   */\n      dup3\n        /* \"#utility.yul\":17240:17254   */\n      add\n        /* \"#utility.yul\":17233:17260   */\n      mstore\n        /* \"#utility.yul\":17116:17267   */\n      pop\n      jump\t// out\n        /* \"#utility.yul\":17273:17673   */\n    tag_298:\n        /* \"#utility.yul\":17433:17436   */\n      0x00\n        /* \"#utility.yul\":17454:17538   */\n      tag_478\n        /* \"#utility.yul\":17536:17537   */\n      0x01\n        /* \"#utility.yul\":17531:17534   */\n      dup4\n        /* \"#utility.yul\":17454:17538   */\n      tag_295\n      jump\t// in\n    tag_478:\n        /* \"#utility.yul\":17447:17538   */\n      swap2\n      pop\n        /* \"#utility.yul\":17547:17640   */\n      tag_479\n        /* \"#utility.yul\":17636:17639   */\n      dup3\n        /* \"#utility.yul\":17547:17640   */\n      tag_297\n      jump\t// in\n    tag_479:\n        /* \"#utility.yul\":17665:17666   */\n      0x01\n        /* \"#utility.yul\":17660:17663   */\n      dup3\n        /* \"#utility.yul\":17656:17667   */\n      add\n        /* \"#utility.yul\":17649:17667   */\n      swap1\n      pop\n        /* \"#utility.yul\":17273:17673   */\n      swap2\n      swap1\n      pop\n      jump\t// out\n        /* \"#utility.yul\":17679:18380   */\n    tag_145:\n        /* \"#utility.yul\":17960:17963   */\n      0x00\n        /* \"#utility.yul\":17982:18077   */\n      tag_481\n        /* \"#utility.yul\":18073:18076   */\n      dup3\n        /* \"#utility.yul\":18064:18070   */\n      dup6\n        /* \"#utility.yul\":17982:18077   */\n      tag_296\n      jump\t// in\n    tag_481:\n        /* \"#utility.yul\":17975:18077   */\n      swap2\n      pop\n        /* \"#utility.yul\":18094:18242   */\n      tag_482\n        /* \"#utility.yul\":18238:18241   */\n      dup3\n        /* \"#utility.yul\":18094:18242   */\n      tag_298\n      jump\t// in\n    tag_482:\n        /* \"#utility.yul\":18087:18242   */\n      swap2\n      pop\n        /* \"#utility.yul\":18259:18354   */\n      tag_483\n        /* \"#utility.yul\":18350:18353   */\n      dup3\n        /* \"#utility.yul\":18341:18347   */\n      dup5\n        /* \"#utility.yul\":18259:18354   */\n      tag_296\n      jump\t// in\n    tag_483:\n        /* \"#utility.yul\":18252:18354   */\n      swap2\n      pop\n        /* \"#utility.yul\":18371:18374   */\n      dup2\n        /* \"#utility.yul\":18364:18374   */\n      swap1\n      pop\n        /* \"#utility.yul\":17679:18380   */\n      swap4\n      swap3\n      pop\n      pop\n      pop\n      jump\t// out\n        /* \"#utility.yul\":18386:18567   */\n    tag_299:\n        /* \"#utility.yul\":18526:18559   */\n      0x70726963652076616c7565206d757374206265206d6f7265207468616e203000\n        /* \"#utility.yul\":18522:18523   */\n      0x00\n        /* \"#utility.yul\":18514:18520   */\n      dup3\n        /* \"#utility.yul\":18510:18524   */\n      add\n        /* \"#utility.yul\":18503:18560   */\n      mstore\n        /* \"#utility.yul\":18386:18567   */\n      pop\n      jump\t// out\n        /* \"#utility.yul\":18573:18939   */\n    tag_300:\n        /* \"#utility.yul\":18715:18718   */\n      0x00\n        /* \"#utility.yul\":18736:18803   */\n      tag_486\n        /* \"#utility.yul\":18800:18802   */\n      0x1f\n        /* \"#utility.yul\":18795:18798   */\n      dup4\n        /* \"#utility.yul\":18736:18803   */\n      tag_269\n      jump\t// in\n    tag_486:\n        /* \"#utility.yul\":18729:18803   */\n      swap2\n      pop\n        /* \"#utility.yul\":18812:18905   */\n      tag_487\n        /* \"#utility.yul\":18901:18904   */\n      dup3\n        /* \"#utility.yul\":18812:18905   */\n      tag_299\n      jump\t// in\n    tag_487:\n        /* \"#utility.yul\":18930:18932   */\n      0x20\n        /* \"#utility.yul\":18925:18928   */\n      dup3\n        /* \"#utility.yul\":18921:18933   */\n      add\n        /* \"#utility.yul\":18914:18933   */\n      swap1\n      pop\n        /* \"#utility.yul\":18573:18939   */\n      swap2\n      swap1\n      pop\n      jump\t// out\n        /* \"#utility.yul\":18945:19364   */\n    tag_160:\n        /* \"#utility.yul\":19111:19115   */\n      0x00\n        /* \"#utility.yul\":19149:19151   */\n      0x20\n        /* \"#utility.yul\":19138:19147   */\n      dup3\n        /* \"#utility.yul\":19134:19152   */\n      add\n        /* \"#utility.yul\":19126:19152   */\n      swap1\n      pop\n        /* \"#utility.yul\":19198:19207   */\n      dup2\n        /* \"#utility.yul\":19192:19196   */\n      dup2\n        /* \"#utility.yul\":19188:19208   */\n      sub\n        /* \"#utility.yul\":19184:19185   */\n      0x00\n        /* \"#utility.yul\":19173:19182   */\n      dup4\n        /* \"#utility.yul\":19169:19186   */\n      add\n        /* \"#utility.yul\":19162:19209   */\n      mstore\n        /* \"#utility.yul\":19226:19357   */\n      tag_489\n        /* \"#utility.yul\":19352:19356   */\n      dup2\n        /* \"#utility.yul\":19226:19357   */\n      tag_300\n      jump\t// in\n    tag_489:\n        /* \"#utility.yul\":19218:19357   */\n      swap1\n      pop\n        /* \"#utility.yul\":18945:19364   */\n      swap2\n      swap1\n      pop\n      jump\t// out\n        /* \"#utility.yul\":19370:19550   */\n    tag_301:\n        /* \"#utility.yul\":19510:19542   */\n      0x4e6f7420656e6f75676820626c616e636520746f20706c6163652061736b0000\n        /* \"#utility.yul\":19506:19507   */\n      0x00\n        /* \"#utility.yul\":19498:19504   */\n      dup3\n        /* \"#utility.yul\":19494:19508   */\n      add\n        /* \"#utility.yul\":19487:19543   */\n      mstore\n        /* \"#utility.yul\":19370:19550   */\n      pop\n      jump\t// out\n        /* \"#utility.yul\":19556:19922   */\n    tag_302:\n        /* \"#utility.yul\":19698:19701   */\n      0x00\n        /* \"#utility.yul\":19719:19786   */\n      tag_492\n        /* \"#utility.yul\":19783:19785   */\n      0x1e\n        /* \"#utility.yul\":19778:19781   */\n      dup4\n        /* \"#utility.yul\":19719:19786   */\n      tag_269\n      jump\t// in\n    tag_492:\n        /* \"#utility.yul\":19712:19786   */\n      swap2\n      pop\n        /* \"#utility.yul\":19795:19888   */\n      tag_493\n        /* \"#utility.yul\":19884:19887   */\n      dup3\n        /* \"#utility.yul\":19795:19888   */\n      tag_301\n      jump\t// in\n    tag_493:\n        /* \"#utility.yul\":19913:19915   */\n      0x20\n        /* \"#utility.yul\":19908:19911   */\n      dup3\n        /* \"#utility.yul\":19904:19916   */\n      add\n        /* \"#utility.yul\":19897:19916   */\n      swap1\n      pop\n        /* \"#utility.yul\":19556:19922   */\n      swap2\n      swap1\n      pop\n      jump\t// out\n        /* \"#utility.yul\":19928:20347   */\n    tag_163:\n        /* \"#utility.yul\":20094:20098   */\n      0x00\n        /* \"#utility.yul\":20132:20134   */\n      0x20\n        /* \"#utility.yul\":20121:20130   */\n      dup3\n        /* \"#utility.yul\":20117:20135   */\n      add\n        /* \"#utility.yul\":20109:20135   */\n      swap1\n      pop\n        /* \"#utility.yul\":20181:20190   */\n      dup2\n        /* \"#utility.yul\":20175:20179   */\n      dup2\n        /* \"#utility.yul\":20171:20191   */\n      sub\n        /* \"#utility.yul\":20167:20168   */\n      0x00\n        /* \"#utility.yul\":20156:20165   */\n      dup4\n        /* \"#utility.yul\":20152:20169   */\n      add\n        /* \"#utility.yul\":20145:20192   */\n      mstore\n        /* \"#utility.yul\":20209:20340   */\n      tag_495\n        /* \"#utility.yul\":20335:20339   */\n      dup2\n        /* \"#utility.yul\":20209:20340   */\n      tag_302\n      jump\t// in\n    tag_495:\n        /* \"#utility.yul\":20201:20340   */\n      swap1\n      pop\n        /* \"#utility.yul\":19928:20347   */\n      swap2\n      swap1\n      pop\n      jump\t// out\n        /* \"#utility.yul\":20353:20533   */\n    tag_303:\n        /* \"#utility.yul\":20401:20478   */\n      0x4e487b7100000000000000000000000000000000000000000000000000000000\n        /* \"#utility.yul\":20398:20399   */\n      0x00\n        /* \"#utility.yul\":20391:20479   */\n      mstore\n        /* \"#utility.yul\":20498:20502   */\n      0x11\n        /* \"#utility.yul\":20495:20496   */\n      0x04\n        /* \"#utility.yul\":20488:20503   */\n      mstore\n        /* \"#utility.yul\":20522:20526   */\n      0x24\n        /* \"#utility.yul\":20519:20520   */\n      0x00\n        /* \"#utility.yul\":20512:20527   */\n      revert\n        /* \"#utility.yul\":20539:20730   */\n    tag_165:\n        /* \"#utility.yul\":20579:20583   */\n      0x00\n        /* \"#utility.yul\":20599:20619   */\n      tag_498\n        /* \"#utility.yul\":20617:20618   */\n      dup3\n        /* \"#utility.yul\":20599:20619   */\n      tag_249\n      jump\t// in\n    tag_498:\n        /* \"#utility.yul\":20594:20619   */\n      swap2\n      pop\n        /* \"#utility.yul\":20633:20653   */\n      tag_499\n        /* \"#utility.yul\":20651:20652   */\n      dup4\n        /* \"#utility.yul\":20633:20653   */\n      tag_249\n      jump\t// in\n    tag_499:\n        /* \"#utility.yul\":20628:20653   */\n      swap3\n      pop\n        /* \"#utility.yul\":20672:20673   */\n      dup3\n        /* \"#utility.yul\":20669:20670   */\n      dup3\n        /* \"#utility.yul\":20666:20674   */\n      lt\n        /* \"#utility.yul\":20663:20697   */\n      iszero\n      tag_500\n      jumpi\n        /* \"#utility.yul\":20677:20695   */\n      tag_501\n      tag_303\n      jump\t// in\n    tag_501:\n        /* \"#utility.yul\":20663:20697   */\n    tag_500:\n        /* \"#utility.yul\":20722:20723   */\n      dup3\n        /* \"#utility.yul\":20719:20720   */\n      dup3\n        /* \"#utility.yul\":20715:20724   */\n      sub\n        /* \"#utility.yul\":20707:20724   */\n      swap1\n      pop\n        /* \"#utility.yul\":20539:20730   */\n      swap3\n      swap2\n      pop\n      pop\n      jump\t// out\n        /* \"#utility.yul\":20736:21084   */\n    tag_167:\n        /* \"#utility.yul\":20776:20783   */\n      0x00\n        /* \"#utility.yul\":20799:20819   */\n      tag_503\n        /* \"#utility.yul\":20817:20818   */\n      dup3\n        /* \"#utility.yul\":20799:20819   */\n      tag_249\n      jump\t// in\n    tag_503:\n        /* \"#utility.yul\":20794:20819   */\n      swap2\n      pop\n        /* \"#utility.yul\":20833:20853   */\n      tag_504\n        /* \"#utility.yul\":20851:20852   */\n      dup4\n        /* \"#utility.yul\":20833:20853   */\n      tag_249\n      jump\t// in\n    tag_504:\n        /* \"#utility.yul\":20828:20853   */\n      swap3\n      pop\n        /* \"#utility.yul\":21021:21022   */\n      dup2\n        /* \"#utility.yul\":20953:21019   */\n      0xffffffffffffffffffffffffffffffffffffffffffffffffffffffffffffffff\n        /* \"#utility.yul\":20949:21023   */\n      div\n        /* \"#utility.yul\":20946:20947   */\n      dup4\n        /* \"#utility.yul\":20943:21024   */\n      gt\n        /* \"#utility.yul\":20938:20939   */\n      dup3\n        /* \"#utility.yul\":20931:20940   */\n      iszero\n        /* \"#utility.yul\":20924:20941   */\n      iszero\n        /* \"#utility.yul\":20920:21025   */\n      and\n        /* \"#utility.yul\":20917:21048   */\n      iszero\n      tag_505\n      jumpi\n        /* \"#utility.yul\":21028:21046   */\n      tag_506\n      tag_303\n      jump\t// in\n    tag_506:\n        /* \"#utility.yul\":20917:21048   */\n    tag_505:\n        /* \"#utility.yul\":21076:21077   */\n      dup3\n        /* \"#utility.yul\":21073:21074   */\n      dup3\n        /* \"#utility.yul\":21069:21078   */\n      mul\n        /* \"#utility.yul\":21058:21078   */\n      swap1\n      pop\n        /* \"#utility.yul\":20736:21084   */\n      swap3\n      swap2\n      pop\n      pop\n      jump\t// out\n        /* \"#utility.yul\":21090:21270   */\n    tag_304:\n        /* \"#utility.yul\":21138:21215   */\n      0x4e487b7100000000000000000000000000000000000000000000000000000000\n        /* \"#utility.yul\":21135:21136   */\n      0x00\n        /* \"#utility.yul\":21128:21216   */\n      mstore\n        /* \"#utility.yul\":21235:21239   */\n      0x12\n        /* \"#utility.yul\":21232:21233   */\n      0x04\n        /* \"#utility.yul\":21225:21240   */\n      mstore\n        /* \"#utility.yul\":21259:21263   */\n      0x24\n        /* \"#utility.yul\":21256:21257   */\n      0x00\n        /* \"#utility.yul\":21249:21264   */\n      revert\n        /* \"#utility.yul\":21276:21461   */\n    tag_169:\n        /* \"#utility.yul\":21316:21317   */\n      0x00\n        /* \"#utility.yul\":21333:21353   */\n      tag_509\n        /* \"#utility.yul\":21351:21352   */\n      dup3\n        /* \"#utility.yul\":21333:21353   */\n      tag_249\n      jump\t// in\n    tag_509:\n        /* \"#utility.yul\":21328:21353   */\n      swap2\n      pop\n        /* \"#utility.yul\":21367:21387   */\n      tag_510\n        /* \"#utility.yul\":21385:21386   */\n      dup4\n        /* \"#utility.yul\":21367:21387   */\n      tag_249\n      jump\t// in\n    tag_510:\n        /* \"#utility.yul\":21362:21387   */\n      swap3\n      pop\n        /* \"#utility.yul\":21406:21407   */\n      dup3\n        /* \"#utility.yul\":21396:21431   */\n      tag_511\n      jumpi\n        /* \"#utility.yul\":21411:21429   */\n      tag_512\n      tag_304\n      jump\t// in\n    tag_512:\n        /* \"#utility.yul\":21396:21431   */\n    tag_511:\n        /* \"#utility.yul\":21453:21454   */\n      dup3\n        /* \"#utility.yul\":21450:21451   */\n      dup3\n        /* \"#utility.yul\":21446:21455   */\n      div\n        /* \"#utility.yul\":21441:21455   */\n      swap1\n      pop\n        /* \"#utility.yul\":21276:21461   */\n      swap3\n      swap2\n      pop\n      pop\n      jump\t// out\n        /* \"#utility.yul\":21467:21647   */\n    tag_305:\n        /* \"#utility.yul\":21607:21639   */\n      0x4e6f7420656e6f75676820626c616e636520746f20706c616365206269640000\n        /* \"#utility.yul\":21603:21604   */\n      0x00\n        /* \"#utility.yul\":21595:21601   */\n      dup3\n        /* \"#utility.yul\":21591:21605   */\n      add\n        /* \"#utility.yul\":21584:21640   */\n      mstore\n        /* \"#utility.yul\":21467:21647   */\n      pop\n      jump\t// out\n        /* \"#utility.yul\":21653:22019   */\n    tag_306:\n        /* \"#utility.yul\":21795:21798   */\n      0x00\n        /* \"#utility.yul\":21816:21883   */\n      tag_515\n        /* \"#utility.yul\":21880:21882   */\n      0x1e\n        /* \"#utility.yul\":21875:21878   */\n      dup4\n        /* \"#utility.yul\":21816:21883   */\n      tag_269\n      jump\t// in\n    tag_515:\n        /* \"#utility.yul\":21809:21883   */\n      swap2\n      pop\n        /* \"#utility.yul\":21892:21985   */\n      tag_516\n        /* \"#utility.yul\":21981:21984   */\n      dup3\n        /* \"#utility.yul\":21892:21985   */\n      tag_305\n      jump\t// in\n    tag_516:\n        /* \"#utility.yul\":22010:22012   */\n      0x20\n        /* \"#utility.yul\":22005:22008   */\n      dup3\n        /* \"#utility.yul\":22001:22013   */\n      add\n        /* \"#utility.yul\":21994:22013   */\n      swap1\n      pop\n        /* \"#utility.yul\":21653:22019   */\n      swap2\n      swap1\n      pop\n      jump\t// out\n        /* \"#utility.yul\":22025:22444   */\n    tag_198:\n        /* \"#utility.yul\":22191:22195   */\n      0x00\n        /* \"#utility.yul\":22229:22231   */\n      0x20\n        /* \"#utility.yul\":22218:22227   */\n      dup3\n        /* \"#utility.yul\":22214:22232   */\n      add\n        /* \"#utility.yul\":22206:22232   */\n      swap1\n      pop\n        /* \"#utility.yul\":22278:22287   */\n      dup2\n        /* \"#utility.yul\":22272:22276   */\n      dup2\n        /* \"#utility.yul\":22268:22288   */\n      sub\n        /* \"#utility.yul\":22264:22265   */\n      0x00\n        /* \"#utility.yul\":22253:22262   */\n      dup4\n        /* \"#utility.yul\":22249:22266   */\n      add\n        /* \"#utility.yul\":22242:22289   */\n      mstore\n        /* \"#utility.yul\":22306:22437   */\n      tag_518\n        /* \"#utility.yul\":22432:22436   */\n      dup2\n        /* \"#utility.yul\":22306:22437   */\n      tag_306\n      jump\t// in\n    tag_518:\n        /* \"#utility.yul\":22298:22437   */\n      swap1\n      pop\n        /* \"#utility.yul\":22025:22444   */\n      swap2\n      swap1\n      pop\n      jump\t// out\n        /* \"#utility.yul\":22450:22683   */\n    tag_208:\n        /* \"#utility.yul\":22489:22492   */\n      0x00\n        /* \"#utility.yul\":22512:22536   */\n      tag_520\n        /* \"#utility.yul\":22530:22535   */\n      dup3\n        /* \"#utility.yul\":22512:22536   */\n      tag_249\n      jump\t// in\n    tag_520:\n        /* \"#utility.yul\":22503:22536   */\n      swap2\n      pop\n        /* \"#utility.yul\":22558:22624   */\n      0xffffffffffffffffffffffffffffffffffffffffffffffffffffffffffffffff\n        /* \"#utility.yul\":22551:22556   */\n      dup3\n        /* \"#utility.yul\":22548:22625   */\n      sub\n        /* \"#utility.yul\":22545:22648   */\n      tag_521\n      jumpi\n        /* \"#utility.yul\":22628:22646   */\n      tag_522\n      tag_303\n      jump\t// in\n    tag_522:\n        /* \"#utility.yul\":22545:22648   */\n    tag_521:\n        /* \"#utility.yul\":22675:22676   */\n      0x01\n        /* \"#utility.yul\":22668:22673   */\n      dup3\n        /* \"#utility.yul\":22664:22677   */\n      add\n        /* \"#utility.yul\":22657:22677   */\n      swap1\n      pop\n        /* \"#utility.yul\":22450:22683   */\n      swap2\n      swap1\n      pop\n      jump\t// out\n        /* \"#utility.yul\":22689:22865   */\n    tag_218:\n        /* \"#utility.yul\":22721:22722   */\n      0x00\n        /* \"#utility.yul\":22738:22758   */\n      tag_524\n        /* \"#utility.yul\":22756:22757   */\n      dup3\n        /* \"#utility.yul\":22738:22758   */\n      tag_249\n      jump\t// in\n    tag_524:\n        /* \"#utility.yul\":22733:22758   */\n      swap2\n      pop\n        /* \"#utility.yul\":22772:22792   */\n      tag_525\n        /* \"#utility.yul\":22790:22791   */\n      dup4\n        /* \"#utility.yul\":22772:22792   */\n      tag_249\n      jump\t// in\n    tag_525:\n        /* \"#utility.yul\":22767:22792   */\n      swap3\n      pop\n        /* \"#utility.yul\":22811:22812   */\n      dup3\n        /* \"#utility.yul\":22801:22836   */\n      tag_526\n      jumpi\n        /* \"#utility.yul\":22816:22834   */\n      tag_527\n      tag_304\n      jump\t// in\n    tag_527:\n        /* \"#utility.yul\":22801:22836   */\n    tag_526:\n        /* \"#utility.yul\":22857:22858   */\n      dup3\n        /* \"#utility.yul\":22854:22855   */\n      dup3\n        /* \"#utility.yul\":22850:22859   */\n      mod\n        /* \"#utility.yul\":22845:22859   */\n      swap1\n      pop\n        /* \"#utility.yul\":22689:22865   */\n      swap3\n      swap2\n      pop\n      pop\n      jump\t// out\n        /* \"#utility.yul\":22871:23176   */\n    tag_220:\n        /* \"#utility.yul\":22911:22914   */\n      0x00\n        /* \"#utility.yul\":22930:22950   */\n      tag_529\n        /* \"#utility.yul\":22948:22949   */\n      dup3\n        /* \"#utility.yul\":22930:22950   */\n      tag_249\n      jump\t// in\n    tag_529:\n        /* \"#utility.yul\":22925:22950   */\n      swap2\n      pop\n        /* \"#utility.yul\":22964:22984   */\n      tag_530\n        /* \"#utility.yul\":22982:22983   */\n      dup4\n        /* \"#utility.yul\":22964:22984   */\n      tag_249\n      jump\t// in\n    tag_530:\n        /* \"#utility.yul\":22959:22984   */\n      swap3\n      pop\n        /* \"#utility.yul\":23118:23119   */\n      dup3\n        /* \"#utility.yul\":23050:23116   */\n      0xffffffffffffffffffffffffffffffffffffffffffffffffffffffffffffffff\n        /* \"#utility.yul\":23046:23120   */\n      sub\n        /* \"#utility.yul\":23043:23044   */\n      dup3\n        /* \"#utility.yul\":23040:23121   */\n      gt\n        /* \"#utility.yul\":23037:23144   */\n      iszero\n      tag_531\n      jumpi\n        /* \"#utility.yul\":23124:23142   */\n      tag_532\n      tag_303\n      jump\t// in\n    tag_532:\n        /* \"#utility.yul\":23037:23144   */\n    tag_531:\n        /* \"#utility.yul\":23168:23169   */\n      dup3\n        /* \"#utility.yul\":23165:23166   */\n      dup3\n        /* \"#utility.yul\":23161:23170   */\n      add\n        /* \"#utility.yul\":23154:23170   */\n      swap1\n      pop\n        /* \"#utility.yul\":22871:23176   */\n      swap3\n      swap2\n      pop\n      pop\n      jump\t// out\n        /* \"#utility.yul\":23182:23362   */\n    tag_223:\n        /* \"#utility.yul\":23230:23307   */\n      0x4e487b7100000000000000000000000000000000000000000000000000000000\n        /* \"#utility.yul\":23227:23228   */\n      0x00\n        /* \"#utility.yul\":23220:23308   */\n      mstore\n        /* \"#utility.yul\":23327:23331   */\n      0x32\n        /* \"#utility.yul\":23324:23325   */\n      0x04\n        /* \"#utility.yul\":23317:23332   */\n      mstore\n        /* \"#utility.yul\":23351:23355   */\n      0x24\n        /* \"#utility.yul\":23348:23349   */\n      0x00\n        /* \"#utility.yul\":23341:23356   */\n      revert\n        /* \"#utility.yul\":23368:23464   */\n    tag_307:\n        /* \"#utility.yul\":23405:23412   */\n      0x00\n        /* \"#utility.yul\":23434:23458   */\n      tag_535\n        /* \"#utility.yul\":23452:23457   */\n      dup3\n        /* \"#utility.yul\":23434:23458   */\n      tag_276\n      jump\t// in\n    tag_535:\n        /* \"#utility.yul\":23423:23458   */\n      swap1\n      pop\n        /* \"#utility.yul\":23368:23464   */\n      swap2\n      swap1\n      pop\n      jump\t// out\n        /* \"#utility.yul\":23470:23588   */\n    tag_308:\n        /* \"#utility.yul\":23557:23581   */\n      tag_537\n        /* \"#utility.yul\":23575:23580   */\n      dup2\n        /* \"#utility.yul\":23557:23581   */\n      tag_307\n      jump\t// in\n    tag_537:\n        /* \"#utility.yul\":23552:23555   */\n      dup3\n        /* \"#utility.yul\":23545:23582   */\n      mstore\n        /* \"#utility.yul\":23470:23588   */\n      pop\n      pop\n      jump\t// out\n        /* \"#utility.yul\":23594:23679   */\n    tag_309:\n        /* \"#utility.yul\":23639:23646   */\n      0x00\n        /* \"#utility.yul\":23668:23673   */\n      dup2\n        /* \"#utility.yul\":23657:23673   */\n      swap1\n      pop\n        /* \"#utility.yul\":23594:23679   */\n      swap2\n      swap1\n      pop\n      jump\t// out\n        /* \"#utility.yul\":23685:23745   */\n    tag_310:\n        /* \"#utility.yul\":23713:23716   */\n      0x00\n        /* \"#utility.yul\":23734:23739   */\n      dup2\n        /* \"#utility.yul\":23727:23739   */\n      swap1\n      pop\n        /* \"#utility.yul\":23685:23745   */\n      swap2\n      swap1\n      pop\n      jump\t// out\n        /* \"#utility.yul\":23751:23909   */\n    tag_311:\n        /* \"#utility.yul\":23809:23818   */\n      0x00\n        /* \"#utility.yul\":23842:23903   */\n      tag_541\n        /* \"#utility.yul\":23860:23902   */\n      tag_542\n        /* \"#utility.yul\":23869:23901   */\n      tag_543\n        /* \"#utility.yul\":23895:23900   */\n      dup5\n        /* \"#utility.yul\":23869:23901   */\n      tag_309\n      jump\t// in\n    tag_543:\n        /* \"#utility.yul\":23860:23902   */\n      tag_310\n      jump\t// in\n    tag_542:\n        /* \"#utility.yul\":23842:23903   */\n      tag_249\n      jump\t// in\n    tag_541:\n        /* \"#utility.yul\":23829:23903   */\n      swap1\n      pop\n        /* \"#utility.yul\":23751:23909   */\n      swap2\n      swap1\n      pop\n      jump\t// out\n        /* \"#utility.yul\":23915:24062   */\n    tag_312:\n        /* \"#utility.yul\":24010:24055   */\n      tag_545\n        /* \"#utility.yul\":24049:24054   */\n      dup2\n        /* \"#utility.yul\":24010:24055   */\n      tag_311\n      jump\t// in\n    tag_545:\n        /* \"#utility.yul\":24005:24008   */\n      dup3\n        /* \"#utility.yul\":23998:24056   */\n      mstore\n        /* \"#utility.yul\":23915:24062   */\n      pop\n      pop\n      jump\t// out\n        /* \"#utility.yul\":24068:25095   */\n    tag_234:\n        /* \"#utility.yul\":24372:24376   */\n      0x00\n        /* \"#utility.yul\":24410:24413   */\n      0x0100\n        /* \"#utility.yul\":24399:24408   */\n      dup3\n        /* \"#utility.yul\":24395:24414   */\n      add\n        /* \"#utility.yul\":24387:24414   */\n      swap1\n      pop\n        /* \"#utility.yul\":24424:24495   */\n      tag_547\n        /* \"#utility.yul\":24492:24493   */\n      0x00\n        /* \"#utility.yul\":24481:24490   */\n      dup4\n        /* \"#utility.yul\":24477:24494   */\n      add\n        /* \"#utility.yul\":24468:24474   */\n      dup12\n        /* \"#utility.yul\":24424:24495   */\n      tag_308\n      jump\t// in\n    tag_547:\n        /* \"#utility.yul\":24505:24577   */\n      tag_548\n        /* \"#utility.yul\":24573:24575   */\n      0x20\n        /* \"#utility.yul\":24562:24571   */\n      dup4\n        /* \"#utility.yul\":24558:24576   */\n      add\n        /* \"#utility.yul\":24549:24555   */\n      dup11\n        /* \"#utility.yul\":24505:24577   */\n      tag_272\n      jump\t// in\n    tag_548:\n        /* \"#utility.yul\":24587:24659   */\n      tag_549\n        /* \"#utility.yul\":24655:24657   */\n      0x40\n        /* \"#utility.yul\":24644:24653   */\n      dup4\n        /* \"#utility.yul\":24640:24658   */\n      add\n        /* \"#utility.yul\":24631:24637   */\n      dup10\n        /* \"#utility.yul\":24587:24659   */\n      tag_272\n      jump\t// in\n    tag_549:\n        /* \"#utility.yul\":24669:24746   */\n      tag_550\n        /* \"#utility.yul\":24742:24744   */\n      0x60\n        /* \"#utility.yul\":24731:24740   */\n      dup4\n        /* \"#utility.yul\":24727:24745   */\n      add\n        /* \"#utility.yul\":24718:24724   */\n      dup9\n        /* \"#utility.yul\":24669:24746   */\n      tag_287\n      jump\t// in\n    tag_550:\n        /* \"#utility.yul\":24756:24829   */\n      tag_551\n        /* \"#utility.yul\":24824:24827   */\n      0x80\n        /* \"#utility.yul\":24813:24822   */\n      dup4\n        /* \"#utility.yul\":24809:24828   */\n      add\n        /* \"#utility.yul\":24800:24806   */\n      dup8\n        /* \"#utility.yul\":24756:24829   */\n      tag_272\n      jump\t// in\n    tag_551:\n        /* \"#utility.yul\":24839:24920   */\n      tag_552\n        /* \"#utility.yul\":24915:24918   */\n      0xa0\n        /* \"#utility.yul\":24904:24913   */\n      dup4\n        /* \"#utility.yul\":24900:24919   */\n      add\n        /* \"#utility.yul\":24891:24897   */\n      dup7\n        /* \"#utility.yul\":24839:24920   */\n      tag_312\n      jump\t// in\n    tag_552:\n        /* \"#utility.yul\":24930:25011   */\n      tag_553\n        /* \"#utility.yul\":25006:25009   */\n      0xc0\n        /* \"#utility.yul\":24995:25004   */\n      dup4\n        /* \"#utility.yul\":24991:25010   */\n      add\n        /* \"#utility.yul\":24982:24988   */\n      dup6\n        /* \"#utility.yul\":24930:25011   */\n      tag_312\n      jump\t// in\n    tag_553:\n        /* \"#utility.yul\":25021:25088   */\n      tag_554\n        /* \"#utility.yul\":25083:25086   */\n      0xe0\n        /* \"#utility.yul\":25072:25081   */\n      dup4\n        /* \"#utility.yul\":25068:25087   */\n      add\n        /* \"#utility.yul\":25059:25065   */\n      dup5\n        /* \"#utility.yul\":25021:25088   */\n      tag_290\n      jump\t// in\n    tag_554:\n        /* \"#utility.yul\":24068:25095   */\n      swap10\n      swap9\n      pop\n      pop\n      pop\n      pop\n      pop\n      pop\n      pop\n      pop\n      pop\n      jump\t// out\n\n    auxdata: 0xa2646970667358221220c1adc71e8c63905a5f495111fa088d41f950d762a795c314c6c2c4cb59c12c7664736f6c634300080d0033\n}\n",
				"bytecode": {
					"linkReferences": {},
					"object": "608060405233600160006101000a81548173ffffffffffffffffffffffffffffffffffffffff021916908373ffffffffffffffffffffffffffffffffffffffff1602179055503480156200005257600080fd5b5060405162002099380380620020998339818101604052810190620000789190620000e6565b8060028190555060006004819055506000600581905550600060078190555060006008819055505062000118565b600080fd5b6000819050919050565b620000c081620000ab565b8114620000cc57600080fd5b50565b600081519050620000e081620000b5565b92915050565b600060208284031215620000ff57620000fe620000a6565b5b60006200010f84828501620000cf565b91505092915050565b611f7180620001286000396000f3fe60806040526004361061011f5760003560e01c806378c5b268116100a0578063b40a562711610064578063b40a5627146103e1578063bf77ffae1461040c578063ce0cdc8714610449578063d09ef24114610474578063db3a1396146104b85761011f565b806378c5b2681461032a578063801d9bbd146103465780639703ef35146103715780639979ef451461039a578063a394fda7146103b65761011f565b806344e791e0116100e757806344e791e01461021d5780634d46712d1461024857806369f632e2146102855780636e5b0f00146102c2578063734a2e78146102ed5761011f565b8063122de8f2146101245780631628e0f51461014f578063266001d3146101785780632db6dfa7146101b55780634471417f146101f2575b600080fd5b34801561013057600080fd5b506101396104f5565b6040516101469190611344565b60405180910390f35b34801561015b57600080fd5b50610176600480360381019061017191906113a6565b6104fa565b005b34801561018457600080fd5b5061019f600480360381019061019a9190611519565b6107a0565b6040516101ac9190611619565b60405180910390f35b3480156101c157600080fd5b506101dc60048036038101906101d791906113a6565b6107cc565b6040516101e9919061164a565b60405180910390f35b3480156101fe57600080fd5b506102076107ec565b604051610214919061185a565b60405180910390f35b34801561022957600080fd5b506102326107f1565b60405161023f9190611619565b60405180910390f35b34801561025457600080fd5b5061026f600480360381019061026a91906113a6565b61085d565b60405161027c919061188b565b60405180910390f35b34801561029157600080fd5b506102ac60048036038101906102a791906113a6565b61088a565b6040516102b991906118b5565b60405180910390f35b3480156102ce57600080fd5b506102d76108ca565b6040516102e4919061164a565b60405180910390f35b3480156102f957600080fd5b50610314600480360381019061030f91906113a6565b6108d0565b60405161032191906118b5565b60405180910390f35b610344600480360381019061033f91906113a6565b610910565b005b34801561035257600080fd5b5061035b6109e4565b604051610368919061164a565b60405180910390f35b34801561037d57600080fd5b50610398600480360381019061039391906113a6565b6109ea565b005b6103b460048036038101906103af91906113a6565b610c90565b005b3480156103c257600080fd5b506103cb610d1a565b6040516103d8919061164a565b60405180910390f35b3480156103ed57600080fd5b506103f6610d20565b604051610403919061164a565b60405180910390f35b34801561041857600080fd5b50610433600480360381019061042e91906113a6565b610d26565b604051610440919061188b565b60405180910390f35b34801561045557600080fd5b5061045e610d53565b60405161046b9190611344565b60405180910390f35b34801561048057600080fd5b5061049b600480360381019061049691906113a6565b610d58565b6040516104af9897969594939291906118eb565b60405180910390f35b3480156104c457600080fd5b506104df60048036038101906104da91906113a6565b610d6f565b6040516104ec919061164a565b60405180910390f35b606090565b600660008281526020019081526020016000206040518060e00160405290816000820160009054906101000a900473ffffffffffffffffffffffffffffffffffffffff1673ffffffffffffffffffffffffffffffffffffffff1673ffffffffffffffffffffffffffffffffffffffff16815260200160018201548152602001600282015481526020016003820160009054906101000a900460ff1660018111156105a7576105a66116d2565b5b60018111156105b9576105b86116d2565b5b81526020016004820154815260200160058201548152602001600682015481525050600060018111156105ef576105ee6116d2565b5b81606001516001811115610606576106056116d2565b5b14610646576040517f08c379a000000000000000000000000000000000000000000000000000000000815260040161063d906119b5565b60405180910390fd5b600660008381526020019081526020016000206040518060e00160405290816000820160009054906101000a900473ffffffffffffffffffffffffffffffffffffffff1673ffffffffffffffffffffffffffffffffffffffff1673ffffffffffffffffffffffffffffffffffffffff16815260200160018201548152602001600282015481526020016003820160009054906101000a900460ff1660018111156106f3576106f26116d2565b5b6001811115610705576107046116d2565b5b81526020016004820154815260200160058201548152602001600682015481525050338073ffffffffffffffffffffffffffffffffffffffff16826000015173ffffffffffffffffffffffffffffffffffffffff161461079a576040517f08c379a000000000000000000000000000000000000000000000000000000000815260040161079190611a21565b60405180910390fd5b50505050565b606082826040516020016107b5929190611ac9565b604051602081830303815290604052905092915050565b600060036000838152602001908152602001600020600101549050919050565b606090565b60606000600754905060006040518060200160405280600081525090505b6000821461085557600060066000848152602001908152602001600020600501549050600061083d84610d8f565b905061084983826107a0565b9250819350505061080f565b809250505090565b60006006600083815260200190815260200160002060030160009054906101000a900460ff169050919050565b60006003600083815260200190815260200160002060000160009054906101000a900473ffffffffffffffffffffffffffffffffffffffff169050919050565b60045481565b60006006600083815260200190815260200160002060000160009054906101000a900473ffffffffffffffffffffffffffffffffffffffff169050919050565b6000811015610954576040517f08c379a000000000000000000000000000000000000000000000000000000000815260040161094b90611b44565b60405180910390fd5b80341015610997576040517f08c379a000000000000000000000000000000000000000000000000000000000815260040161098e90611bb0565b60405180910390fd5b60004290506000606460025460646109af9190611bff565b346109ba9190611c33565b6109c49190611cbc565b905060006109d3338385610eef565b90506109de8161108a565b50505050565b60075481565b600360008281526020019081526020016000206040518060e00160405290816000820160009054906101000a900473ffffffffffffffffffffffffffffffffffffffff1673ffffffffffffffffffffffffffffffffffffffff1673ffffffffffffffffffffffffffffffffffffffff16815260200160018201548152602001600282015481526020016003820160009054906101000a900460ff166001811115610a9757610a966116d2565b5b6001811115610aa957610aa86116d2565b5b8152602001600482015481526020016005820154815260200160068201548152505060006001811115610adf57610ade6116d2565b5b81606001516001811115610af657610af56116d2565b5b14610b36576040517f08c379a0000000000000000000000000000000000000000000000000000000008152600401610b2d906119b5565b60405180910390fd5b600360008381526020019081526020016000206040518060e00160405290816000820160009054906101000a900473ffffffffffffffffffffffffffffffffffffffff1673ffffffffffffffffffffffffffffffffffffffff1673ffffffffffffffffffffffffffffffffffffffff16815260200160018201548152602001600282015481526020016003820160009054906101000a900460ff166001811115610be357610be26116d2565b5b6001811115610bf557610bf46116d2565b5b81526020016004820154815260200160058201548152602001600682015481525050338073ffffffffffffffffffffffffffffffffffffffff16826000015173ffffffffffffffffffffffffffffffffffffffff1614610c8a576040517f08c379a0000000000000000000000000000000000000000000000000000000008152600401610c8190611a21565b60405180910390fd5b50505050565b6000811015610cd4576040517f08c379a0000000000000000000000000000000000000000000000000000000008152600401610ccb90611b44565b60405180910390fd5b80341015610d17576040517f08c379a0000000000000000000000000000000000000000000000000000000008152600401610d0e90611d39565b60405180910390fd5b50565b60085481565b60055481565b60006003600083815260200190815260200160002060030160009054906101000a900460ff169050919050565b606090565b600080600080600080600080919395975091939597565b600060066000838152602001908152602001600020600101549050919050565b606060008203610dd6576040518060400160405280600181526020017f30000000000000000000000000000000000000000000000000000000000000008152509050610eea565b600082905060005b60008214610e08578080610df190611d59565b915050600a82610e019190611cbc565b9150610dde565b60008167ffffffffffffffff811115610e2457610e236113ee565b5b6040519080825280601f01601f191660200182016040528015610e565781602001600182028036833780820191505090505b5090505b60008514610ee357600182610e6f9190611bff565b9150600a85610e7e9190611da1565b6030610e8a9190611dd2565b60f81b818381518110610ea057610e9f611e28565b5b60200101907effffffffffffffffffffffffffffffffffffffffffffffffffffffffffffff1916908160001a905350600a85610edc9190611cbc565b9450610e5a565b8093505050505b919050565b610ef7611217565b60086000815480929190610f0a90611d59565b919050555060006040518060e001604052808673ffffffffffffffffffffffffffffffffffffffff16815260200185815260200184815260200160006001811115610f5857610f576116d2565b5b8152602001600854815260200160008152602001600081525090508060066000600854815260200190815260200160002060008201518160000160006101000a81548173ffffffffffffffffffffffffffffffffffffffff021916908373ffffffffffffffffffffffffffffffffffffffff160217905550602082015181600101556040820151816002015560608201518160030160006101000a81548160ff0219169083600181111561100f5761100e6116d2565b5b02179055506080820151816004015560a0820151816005015560c082015181600601559050507f93caf6ba1af44020dfe6076e279533e38bd8deefe534c43aa8cc93aad2025b7d85858560006008546000806000604051611077989796959493929190611ebd565b60405180910390a1809150509392505050565b600080600754036110a5578160800151600781905550611213565b81602001516006600060075481526020019081526020016000206001015410611107576007548260a00181815250508160800151600660008460a001518152602001908152602001600020600601819055508160800151600781905550611212565b60075490505b600060066000838152602001908152602001600020600501541415801561116357508160200151600660006006600085815260200190815260200160002060050154815260200190815260200160002060010154105b15611186576006600082815260200190815260200160002060050154905061110d565b60066000828152602001908152602001600020600501548260a001818152505060006006600083815260200190815260200160002060050154146111e8578160800151600660008460a001518152602001908152602001600020600601819055505b81608001516006600083815260200190815260200160002060050181905550808260c00181815250505b5b5050565b6040518060e00160405280600073ffffffffffffffffffffffffffffffffffffffff168152602001600081526020016000815260200160006001811115611261576112606116d2565b5b81526020016000815260200160008152602001600081525090565b600081519050919050565b600082825260208201905092915050565b6000819050602082019050919050565b6000819050919050565b6112bb816112a8565b82525050565b60006112cd83836112b2565b60208301905092915050565b6000602082019050919050565b60006112f18261127c565b6112fb8185611287565b935061130683611298565b8060005b8381101561133757815161131e88826112c1565b9750611329836112d9565b92505060018101905061130a565b5085935050505092915050565b6000602082019050818103600083015261135e81846112e6565b905092915050565b6000604051905090565b600080fd5b600080fd5b611383816112a8565b811461138e57600080fd5b50565b6000813590506113a08161137a565b92915050565b6000602082840312156113bc576113bb611370565b5b60006113ca84828501611391565b91505092915050565b600080fd5b600080fd5b6000601f19601f8301169050919050565b7f4e487b7100000000000000000000000000000000000000000000000000000000600052604160045260246000fd5b611426826113dd565b810181811067ffffffffffffffff82111715611445576114446113ee565b5b80604052505050565b6000611458611366565b9050611464828261141d565b919050565b600067ffffffffffffffff821115611484576114836113ee565b5b61148d826113dd565b9050602081019050919050565b82818337600083830152505050565b60006114bc6114b784611469565b61144e565b9050828152602081018484840111156114d8576114d76113d8565b5b6114e384828561149a565b509392505050565b600082601f830112611500576114ff6113d3565b5b81356115108482602086016114a9565b91505092915050565b600080604083850312156115305761152f611370565b5b600083013567ffffffffffffffff81111561154e5761154d611375565b5b61155a858286016114eb565b925050602083013567ffffffffffffffff81111561157b5761157a611375565b5b611587858286016114eb565b9150509250929050565b600081519050919050565b600082825260208201905092915050565b60005b838110156115cb5780820151818401526020810190506115b0565b838111156115da576000848401525b50505050565b60006115eb82611591565b6115f5818561159c565b93506116058185602086016115ad565b61160e816113dd565b840191505092915050565b6000602082019050818103600083015261163381846115e0565b905092915050565b611644816112a8565b82525050565b600060208201905061165f600083018461163b565b92915050565b600081519050919050565b600082825260208201905092915050565b6000819050602082019050919050565b600073ffffffffffffffffffffffffffffffffffffffff82169050919050565b60006116bc82611691565b9050919050565b6116cc816116b1565b82525050565b7f4e487b7100000000000000000000000000000000000000000000000000000000600052602160045260246000fd5b60028110611712576117116116d2565b5b50565b600081905061172382611701565b919050565b600061173382611715565b9050919050565b61174381611728565b82525050565b60e08201600082015161175f60008501826116c3565b50602082015161177260208501826112b2565b50604082015161178560408501826112b2565b506060820151611798606085018261173a565b5060808201516117ab60808501826112b2565b5060a08201516117be60a08501826112b2565b5060c08201516117d160c08501826112b2565b50505050565b60006117e38383611749565b60e08301905092915050565b6000602082019050919050565b600061180782611665565b6118118185611670565b935061181c83611681565b8060005b8381101561184d57815161183488826117d7565b975061183f836117ef565b925050600181019050611820565b5085935050505092915050565b6000602082019050818103600083015261187481846117fc565b905092915050565b61188581611728565b82525050565b60006020820190506118a0600083018461187c565b92915050565b6118af816116b1565b82525050565b60006020820190506118ca60008301846118a6565b92915050565b60008115159050919050565b6118e5816118d0565b82525050565b600061010082019050611901600083018b6118a6565b61190e602083018a61163b565b61191b604083018961163b565b611928606083018861187c565b611935608083018761163b565b61194260a083018661163b565b61194f60c083018561163b565b61195c60e08301846118dc565b9998505050505050505050565b7f4f726465722050656e64696e6700000000000000000000000000000000000000600082015250565b600061199f600d8361159c565b91506119aa82611969565b602082019050919050565b600060208201905081810360008301526119ce81611992565b9050919050565b7f4e6f7420417574686f7269736564000000000000000000000000000000000000600082015250565b6000611a0b600e8361159c565b9150611a16826119d5565b602082019050919050565b60006020820190508181036000830152611a3a816119fe565b9050919050565b600081905092915050565b6000611a5782611591565b611a618185611a41565b9350611a718185602086016115ad565b80840191505092915050565b7f2000000000000000000000000000000000000000000000000000000000000000600082015250565b6000611ab3600183611a41565b9150611abe82611a7d565b600182019050919050565b6000611ad58285611a4c565b9150611ae082611aa6565b9150611aec8284611a4c565b91508190509392505050565b7f70726963652076616c7565206d757374206265206d6f7265207468616e203000600082015250565b6000611b2e601f8361159c565b9150611b3982611af8565b602082019050919050565b60006020820190508181036000830152611b5d81611b21565b9050919050565b7f4e6f7420656e6f75676820626c616e636520746f20706c6163652061736b0000600082015250565b6000611b9a601e8361159c565b9150611ba582611b64565b602082019050919050565b60006020820190508181036000830152611bc981611b8d565b9050919050565b7f4e487b7100000000000000000000000000000000000000000000000000000000600052601160045260246000fd5b6000611c0a826112a8565b9150611c15836112a8565b925082821015611c2857611c27611bd0565b5b828203905092915050565b6000611c3e826112a8565b9150611c49836112a8565b9250817fffffffffffffffffffffffffffffffffffffffffffffffffffffffffffffffff0483118215151615611c8257611c81611bd0565b5b828202905092915050565b7f4e487b7100000000000000000000000000000000000000000000000000000000600052601260045260246000fd5b6000611cc7826112a8565b9150611cd2836112a8565b925082611ce257611ce1611c8d565b5b828204905092915050565b7f4e6f7420656e6f75676820626c616e636520746f20706c616365206269640000600082015250565b6000611d23601e8361159c565b9150611d2e82611ced565b602082019050919050565b60006020820190508181036000830152611d5281611d16565b9050919050565b6000611d64826112a8565b91507fffffffffffffffffffffffffffffffffffffffffffffffffffffffffffffffff8203611d9657611d95611bd0565b5b600182019050919050565b6000611dac826112a8565b9150611db7836112a8565b925082611dc757611dc6611c8d565b5b828206905092915050565b6000611ddd826112a8565b9150611de8836112a8565b9250827fffffffffffffffffffffffffffffffffffffffffffffffffffffffffffffffff03821115611e1d57611e1c611bd0565b5b828201905092915050565b7f4e487b7100000000000000000000000000000000000000000000000000000000600052603260045260246000fd5b6000611e6282611691565b9050919050565b611e7281611e57565b82525050565b6000819050919050565b6000819050919050565b6000611ea7611ea2611e9d84611e78565b611e82565b6112a8565b9050919050565b611eb781611e8c565b82525050565b600061010082019050611ed3600083018b611e69565b611ee0602083018a61163b565b611eed604083018961163b565b611efa606083018861187c565b611f07608083018761163b565b611f1460a0830186611eae565b611f2160c0830185611eae565b611f2e60e08301846118dc565b999850505050505050505056fea2646970667358221220c1adc71e8c63905a5f495111fa088d41f950d762a795c314c6c2c4cb59c12c7664736f6c634300080d0033",
					"opcodes": "PUSH1 0x80 PUSH1 0x40 MSTORE CALLER PUSH1 0x1 PUSH1 0x0 PUSH2 0x100 EXP DUP2 SLOAD DUP2 PUSH20 0xFFFFFFFFFFFFFFFFFFFFFFFFFFFFFFFFFFFFFFFF MUL NOT AND SWAP1 DUP4 PUSH20 0xFFFFFFFFFFFFFFFFFFFFFFFFFFFFFFFFFFFFFFFF AND MUL OR SWAP1 SSTORE POP CALLVALUE DUP1 ISZERO PUSH3 0x52 JUMPI PUSH1 0x0 DUP1 REVERT JUMPDEST POP PUSH1 0x40 MLOAD PUSH3 0x2099 CODESIZE SUB DUP1 PUSH3 0x2099 DUP4 CODECOPY DUP2 DUP2 ADD PUSH1 0x40 MSTORE DUP2 ADD SWAP1 PUSH3 0x78 SWAP2 SWAP1 PUSH3 0xE6 JUMP JUMPDEST DUP1 PUSH1 0x2 DUP2 SWAP1 SSTORE POP PUSH1 0x0 PUSH1 0x4 DUP2 SWAP1 SSTORE POP PUSH1 0x0 PUSH1 0x5 DUP2 SWAP1 SSTORE POP PUSH1 0x0 PUSH1 0x7 DUP2 SWAP1 SSTORE POP PUSH1 0x0 PUSH1 0x8 DUP2 SWAP1 SSTORE POP POP PUSH3 0x118 JUMP JUMPDEST PUSH1 0x0 DUP1 REVERT JUMPDEST PUSH1 0x0 DUP2 SWAP1 POP SWAP2 SWAP1 POP JUMP JUMPDEST PUSH3 0xC0 DUP2 PUSH3 0xAB JUMP JUMPDEST DUP2 EQ PUSH3 0xCC JUMPI PUSH1 0x0 DUP1 REVERT JUMPDEST POP JUMP JUMPDEST PUSH1 0x0 DUP2 MLOAD SWAP1 POP PUSH3 0xE0 DUP2 PUSH3 0xB5 JUMP JUMPDEST SWAP3 SWAP2 POP POP JUMP JUMPDEST PUSH1 0x0 PUSH1 0x20 DUP3 DUP5 SUB SLT ISZERO PUSH3 0xFF JUMPI PUSH3 0xFE PUSH3 0xA6 JUMP JUMPDEST JUMPDEST PUSH1 0x0 PUSH3 0x10F DUP5 DUP3 DUP6 ADD PUSH3 0xCF JUMP JUMPDEST SWAP2 POP POP SWAP3 SWAP2 POP POP JUMP JUMPDEST PUSH2 0x1F71 DUP1 PUSH3 0x128 PUSH1 0x0 CODECOPY PUSH1 0x0 RETURN INVALID PUSH1 0x80 PUSH1 0x40 MSTORE PUSH1 0x4 CALLDATASIZE LT PUSH2 0x11F JUMPI PUSH1 0x0 CALLDATALOAD PUSH1 0xE0 SHR DUP1 PUSH4 0x78C5B268 GT PUSH2 0xA0 JUMPI DUP1 PUSH4 0xB40A5627 GT PUSH2 0x64 JUMPI DUP1 PUSH4 0xB40A5627 EQ PUSH2 0x3E1 JUMPI DUP1 PUSH4 0xBF77FFAE EQ PUSH2 0x40C JUMPI DUP1 PUSH4 0xCE0CDC87 EQ PUSH2 0x449 JUMPI DUP1 PUSH4 0xD09EF241 EQ PUSH2 0x474 JUMPI DUP1 PUSH4 0xDB3A1396 EQ PUSH2 0x4B8 JUMPI PUSH2 0x11F JUMP JUMPDEST DUP1 PUSH4 0x78C5B268 EQ PUSH2 0x32A JUMPI DUP1 PUSH4 0x801D9BBD EQ PUSH2 0x346 JUMPI DUP1 PUSH4 0x9703EF35 EQ PUSH2 0x371 JUMPI DUP1 PUSH4 0x9979EF45 EQ PUSH2 0x39A JUMPI DUP1 PUSH4 0xA394FDA7 EQ PUSH2 0x3B6 JUMPI PUSH2 0x11F JUMP JUMPDEST DUP1 PUSH4 0x44E791E0 GT PUSH2 0xE7 JUMPI DUP1 PUSH4 0x44E791E0 EQ PUSH2 0x21D JUMPI DUP1 PUSH4 0x4D46712D EQ PUSH2 0x248 JUMPI DUP1 PUSH4 0x69F632E2 EQ PUSH2 0x285 JUMPI DUP1 PUSH4 0x6E5B0F00 EQ PUSH2 0x2C2 JUMPI DUP1 PUSH4 0x734A2E78 EQ PUSH2 0x2ED JUMPI PUSH2 0x11F JUMP JUMPDEST DUP1 PUSH4 0x122DE8F2 EQ PUSH2 0x124 JUMPI DUP1 PUSH4 0x1628E0F5 EQ PUSH2 0x14F JUMPI DUP1 PUSH4 0x266001D3 EQ PUSH2 0x178 JUMPI DUP1 PUSH4 0x2DB6DFA7 EQ PUSH2 0x1B5 JUMPI DUP1 PUSH4 0x4471417F EQ PUSH2 0x1F2 JUMPI JUMPDEST PUSH1 0x0 DUP1 REVERT JUMPDEST CALLVALUE DUP1 ISZERO PUSH2 0x130 JUMPI PUSH1 0x0 DUP1 REVERT JUMPDEST POP PUSH2 0x139 PUSH2 0x4F5 JUMP JUMPDEST PUSH1 0x40 MLOAD PUSH2 0x146 SWAP2 SWAP1 PUSH2 0x1344 JUMP JUMPDEST PUSH1 0x40 MLOAD DUP1 SWAP2 SUB SWAP1 RETURN JUMPDEST CALLVALUE DUP1 ISZERO PUSH2 0x15B JUMPI PUSH1 0x0 DUP1 REVERT JUMPDEST POP PUSH2 0x176 PUSH1 0x4 DUP1 CALLDATASIZE SUB DUP2 ADD SWAP1 PUSH2 0x171 SWAP2 SWAP1 PUSH2 0x13A6 JUMP JUMPDEST PUSH2 0x4FA JUMP JUMPDEST STOP JUMPDEST CALLVALUE DUP1 ISZERO PUSH2 0x184 JUMPI PUSH1 0x0 DUP1 REVERT JUMPDEST POP PUSH2 0x19F PUSH1 0x4 DUP1 CALLDATASIZE SUB DUP2 ADD SWAP1 PUSH2 0x19A SWAP2 SWAP1 PUSH2 0x1519 JUMP JUMPDEST PUSH2 0x7A0 JUMP JUMPDEST PUSH1 0x40 MLOAD PUSH2 0x1AC SWAP2 SWAP1 PUSH2 0x1619 JUMP JUMPDEST PUSH1 0x40 MLOAD DUP1 SWAP2 SUB SWAP1 RETURN JUMPDEST CALLVALUE DUP1 ISZERO PUSH2 0x1C1 JUMPI PUSH1 0x0 DUP1 REVERT JUMPDEST POP PUSH2 0x1DC PUSH1 0x4 DUP1 CALLDATASIZE SUB DUP2 ADD SWAP1 PUSH2 0x1D7 SWAP2 SWAP1 PUSH2 0x13A6 JUMP JUMPDEST PUSH2 0x7CC JUMP JUMPDEST PUSH1 0x40 MLOAD PUSH2 0x1E9 SWAP2 SWAP1 PUSH2 0x164A JUMP JUMPDEST PUSH1 0x40 MLOAD DUP1 SWAP2 SUB SWAP1 RETURN JUMPDEST CALLVALUE DUP1 ISZERO PUSH2 0x1FE JUMPI PUSH1 0x0 DUP1 REVERT JUMPDEST POP PUSH2 0x207 PUSH2 0x7EC JUMP JUMPDEST PUSH1 0x40 MLOAD PUSH2 0x214 SWAP2 SWAP1 PUSH2 0x185A JUMP JUMPDEST PUSH1 0x40 MLOAD DUP1 SWAP2 SUB SWAP1 RETURN JUMPDEST CALLVALUE DUP1 ISZERO PUSH2 0x229 JUMPI PUSH1 0x0 DUP1 REVERT JUMPDEST POP PUSH2 0x232 PUSH2 0x7F1 JUMP JUMPDEST PUSH1 0x40 MLOAD PUSH2 0x23F SWAP2 SWAP1 PUSH2 0x1619 JUMP JUMPDEST PUSH1 0x40 MLOAD DUP1 SWAP2 SUB SWAP1 RETURN JUMPDEST CALLVALUE DUP1 ISZERO PUSH2 0x254 JUMPI PUSH1 0x0 DUP1 REVERT JUMPDEST POP PUSH2 0x26F PUSH1 0x4 DUP1 CALLDATASIZE SUB DUP2 ADD SWAP1 PUSH2 0x26A SWAP2 SWAP1 PUSH2 0x13A6 JUMP JUMPDEST PUSH2 0x85D JUMP JUMPDEST PUSH1 0x40 MLOAD PUSH2 0x27C SWAP2 SWAP1 PUSH2 0x188B JUMP JUMPDEST PUSH1 0x40 MLOAD DUP1 SWAP2 SUB SWAP1 RETURN JUMPDEST CALLVALUE DUP1 ISZERO PUSH2 0x291 JUMPI PUSH1 0x0 DUP1 REVERT JUMPDEST POP PUSH2 0x2AC PUSH1 0x4 DUP1 CALLDATASIZE SUB DUP2 ADD SWAP1 PUSH2 0x2A7 SWAP2 SWAP1 PUSH2 0x13A6 JUMP JUMPDEST PUSH2 0x88A JUMP JUMPDEST PUSH1 0x40 MLOAD PUSH2 0x2B9 SWAP2 SWAP1 PUSH2 0x18B5 JUMP JUMPDEST PUSH1 0x40 MLOAD DUP1 SWAP2 SUB SWAP1 RETURN JUMPDEST CALLVALUE DUP1 ISZERO PUSH2 0x2CE JUMPI PUSH1 0x0 DUP1 REVERT JUMPDEST POP PUSH2 0x2D7 PUSH2 0x8CA JUMP JUMPDEST PUSH1 0x40 MLOAD PUSH2 0x2E4 SWAP2 SWAP1 PUSH2 0x164A JUMP JUMPDEST PUSH1 0x40 MLOAD DUP1 SWAP2 SUB SWAP1 RETURN JUMPDEST CALLVALUE DUP1 ISZERO PUSH2 0x2F9 JUMPI PUSH1 0x0 DUP1 REVERT JUMPDEST POP PUSH2 0x314 PUSH1 0x4 DUP1 CALLDATASIZE SUB DUP2 ADD SWAP1 PUSH2 0x30F SWAP2 SWAP1 PUSH2 0x13A6 JUMP JUMPDEST PUSH2 0x8D0 JUMP JUMPDEST PUSH1 0x40 MLOAD PUSH2 0x321 SWAP2 SWAP1 PUSH2 0x18B5 JUMP JUMPDEST PUSH1 0x40 MLOAD DUP1 SWAP2 SUB SWAP1 RETURN JUMPDEST PUSH2 0x344 PUSH1 0x4 DUP1 CALLDATASIZE SUB DUP2 ADD SWAP1 PUSH2 0x33F SWAP2 SWAP1 PUSH2 0x13A6 JUMP JUMPDEST PUSH2 0x910 JUMP JUMPDEST STOP JUMPDEST CALLVALUE DUP1 ISZERO PUSH2 0x352 JUMPI PUSH1 0x0 DUP1 REVERT JUMPDEST POP PUSH2 0x35B PUSH2 0x9E4 JUMP JUMPDEST PUSH1 0x40 MLOAD PUSH2 0x368 SWAP2 SWAP1 PUSH2 0x164A JUMP JUMPDEST PUSH1 0x40 MLOAD DUP1 SWAP2 SUB SWAP1 RETURN JUMPDEST CALLVALUE DUP1 ISZERO PUSH2 0x37D JUMPI PUSH1 0x0 DUP1 REVERT JUMPDEST POP PUSH2 0x398 PUSH1 0x4 DUP1 CALLDATASIZE SUB DUP2 ADD SWAP1 PUSH2 0x393 SWAP2 SWAP1 PUSH2 0x13A6 JUMP JUMPDEST PUSH2 0x9EA JUMP JUMPDEST STOP JUMPDEST PUSH2 0x3B4 PUSH1 0x4 DUP1 CALLDATASIZE SUB DUP2 ADD SWAP1 PUSH2 0x3AF SWAP2 SWAP1 PUSH2 0x13A6 JUMP JUMPDEST PUSH2 0xC90 JUMP JUMPDEST STOP JUMPDEST CALLVALUE DUP1 ISZERO PUSH2 0x3C2 JUMPI PUSH1 0x0 DUP1 REVERT JUMPDEST POP PUSH2 0x3CB PUSH2 0xD1A JUMP JUMPDEST PUSH1 0x40 MLOAD PUSH2 0x3D8 SWAP2 SWAP1 PUSH2 0x164A JUMP JUMPDEST PUSH1 0x40 MLOAD DUP1 SWAP2 SUB SWAP1 RETURN JUMPDEST CALLVALUE DUP1 ISZERO PUSH2 0x3ED JUMPI PUSH1 0x0 DUP1 REVERT JUMPDEST POP PUSH2 0x3F6 PUSH2 0xD20 JUMP JUMPDEST PUSH1 0x40 MLOAD PUSH2 0x403 SWAP2 SWAP1 PUSH2 0x164A JUMP JUMPDEST PUSH1 0x40 MLOAD DUP1 SWAP2 SUB SWAP1 RETURN JUMPDEST CALLVALUE DUP1 ISZERO PUSH2 0x418 JUMPI PUSH1 0x0 DUP1 REVERT JUMPDEST POP PUSH2 0x433 PUSH1 0x4 DUP1 CALLDATASIZE SUB DUP2 ADD SWAP1 PUSH2 0x42E SWAP2 SWAP1 PUSH2 0x13A6 JUMP JUMPDEST PUSH2 0xD26 JUMP JUMPDEST PUSH1 0x40 MLOAD PUSH2 0x440 SWAP2 SWAP1 PUSH2 0x188B JUMP JUMPDEST PUSH1 0x40 MLOAD DUP1 SWAP2 SUB SWAP1 RETURN JUMPDEST CALLVALUE DUP1 ISZERO PUSH2 0x455 JUMPI PUSH1 0x0 DUP1 REVERT JUMPDEST POP PUSH2 0x45E PUSH2 0xD53 JUMP JUMPDEST PUSH1 0x40 MLOAD PUSH2 0x46B SWAP2 SWAP1 PUSH2 0x1344 JUMP JUMPDEST PUSH1 0x40 MLOAD DUP1 SWAP2 SUB SWAP1 RETURN JUMPDEST CALLVALUE DUP1 ISZERO PUSH2 0x480 JUMPI PUSH1 0x0 DUP1 REVERT JUMPDEST POP PUSH2 0x49B PUSH1 0x4 DUP1 CALLDATASIZE SUB DUP2 ADD SWAP1 PUSH2 0x496 SWAP2 SWAP1 PUSH2 0x13A6 JUMP JUMPDEST PUSH2 0xD58 JUMP JUMPDEST PUSH1 0x40 MLOAD PUSH2 0x4AF SWAP9 SWAP8 SWAP7 SWAP6 SWAP5 SWAP4 SWAP3 SWAP2 SWAP1 PUSH2 0x18EB JUMP JUMPDEST PUSH1 0x40 MLOAD DUP1 SWAP2 SUB SWAP1 RETURN JUMPDEST CALLVALUE DUP1 ISZERO PUSH2 0x4C4 JUMPI PUSH1 0x0 DUP1 REVERT JUMPDEST POP PUSH2 0x4DF PUSH1 0x4 DUP1 CALLDATASIZE SUB DUP2 ADD SWAP1 PUSH2 0x4DA SWAP2 SWAP1 PUSH2 0x13A6 JUMP JUMPDEST PUSH2 0xD6F JUMP JUMPDEST PUSH1 0x40 MLOAD PUSH2 0x4EC SWAP2 SWAP1 PUSH2 0x164A JUMP JUMPDEST PUSH1 0x40 MLOAD DUP1 SWAP2 SUB SWAP1 RETURN JUMPDEST PUSH1 0x60 SWAP1 JUMP JUMPDEST PUSH1 0x6 PUSH1 0x0 DUP3 DUP2 MSTORE PUSH1 0x20 ADD SWAP1 DUP2 MSTORE PUSH1 0x20 ADD PUSH1 0x0 KECCAK256 PUSH1 0x40 MLOAD DUP1 PUSH1 0xE0 ADD PUSH1 0x40 MSTORE SWAP1 DUP2 PUSH1 0x0 DUP3 ADD PUSH1 0x0 SWAP1 SLOAD SWAP1 PUSH2 0x100 EXP SWAP1 DIV PUSH20 0xFFFFFFFFFFFFFFFFFFFFFFFFFFFFFFFFFFFFFFFF AND PUSH20 0xFFFFFFFFFFFFFFFFFFFFFFFFFFFFFFFFFFFFFFFF AND PUSH20 0xFFFFFFFFFFFFFFFFFFFFFFFFFFFFFFFFFFFFFFFF AND DUP2 MSTORE PUSH1 0x20 ADD PUSH1 0x1 DUP3 ADD SLOAD DUP2 MSTORE PUSH1 0x20 ADD PUSH1 0x2 DUP3 ADD SLOAD DUP2 MSTORE PUSH1 0x20 ADD PUSH1 0x3 DUP3 ADD PUSH1 0x0 SWAP1 SLOAD SWAP1 PUSH2 0x100 EXP SWAP1 DIV PUSH1 0xFF AND PUSH1 0x1 DUP2 GT ISZERO PUSH2 0x5A7 JUMPI PUSH2 0x5A6 PUSH2 0x16D2 JUMP JUMPDEST JUMPDEST PUSH1 0x1 DUP2 GT ISZERO PUSH2 0x5B9 JUMPI PUSH2 0x5B8 PUSH2 0x16D2 JUMP JUMPDEST JUMPDEST DUP2 MSTORE PUSH1 0x20 ADD PUSH1 0x4 DUP3 ADD SLOAD DUP2 MSTORE PUSH1 0x20 ADD PUSH1 0x5 DUP3 ADD SLOAD DUP2 MSTORE PUSH1 0x20 ADD PUSH1 0x6 DUP3 ADD SLOAD DUP2 MSTORE POP POP PUSH1 0x0 PUSH1 0x1 DUP2 GT ISZERO PUSH2 0x5EF JUMPI PUSH2 0x5EE PUSH2 0x16D2 JUMP JUMPDEST JUMPDEST DUP2 PUSH1 0x60 ADD MLOAD PUSH1 0x1 DUP2 GT ISZERO PUSH2 0x606 JUMPI PUSH2 0x605 PUSH2 0x16D2 JUMP JUMPDEST JUMPDEST EQ PUSH2 0x646 JUMPI PUSH1 0x40 MLOAD PUSH32 0x8C379A000000000000000000000000000000000000000000000000000000000 DUP2 MSTORE PUSH1 0x4 ADD PUSH2 0x63D SWAP1 PUSH2 0x19B5 JUMP JUMPDEST PUSH1 0x40 MLOAD DUP1 SWAP2 SUB SWAP1 REVERT JUMPDEST PUSH1 0x6 PUSH1 0x0 DUP4 DUP2 MSTORE PUSH1 0x20 ADD SWAP1 DUP2 MSTORE PUSH1 0x20 ADD PUSH1 0x0 KECCAK256 PUSH1 0x40 MLOAD DUP1 PUSH1 0xE0 ADD PUSH1 0x40 MSTORE SWAP1 DUP2 PUSH1 0x0 DUP3 ADD PUSH1 0x0 SWAP1 SLOAD SWAP1 PUSH2 0x100 EXP SWAP1 DIV PUSH20 0xFFFFFFFFFFFFFFFFFFFFFFFFFFFFFFFFFFFFFFFF AND PUSH20 0xFFFFFFFFFFFFFFFFFFFFFFFFFFFFFFFFFFFFFFFF AND PUSH20 0xFFFFFFFFFFFFFFFFFFFFFFFFFFFFFFFFFFFFFFFF AND DUP2 MSTORE PUSH1 0x20 ADD PUSH1 0x1 DUP3 ADD SLOAD DUP2 MSTORE PUSH1 0x20 ADD PUSH1 0x2 DUP3 ADD SLOAD DUP2 MSTORE PUSH1 0x20 ADD PUSH1 0x3 DUP3 ADD PUSH1 0x0 SWAP1 SLOAD SWAP1 PUSH2 0x100 EXP SWAP1 DIV PUSH1 0xFF AND PUSH1 0x1 DUP2 GT ISZERO PUSH2 0x6F3 JUMPI PUSH2 0x6F2 PUSH2 0x16D2 JUMP JUMPDEST JUMPDEST PUSH1 0x1 DUP2 GT ISZERO PUSH2 0x705 JUMPI PUSH2 0x704 PUSH2 0x16D2 JUMP JUMPDEST JUMPDEST DUP2 MSTORE PUSH1 0x20 ADD PUSH1 0x4 DUP3 ADD SLOAD DUP2 MSTORE PUSH1 0x20 ADD PUSH1 0x5 DUP3 ADD SLOAD DUP2 MSTORE PUSH1 0x20 ADD PUSH1 0x6 DUP3 ADD SLOAD DUP2 MSTORE POP POP CALLER DUP1 PUSH20 0xFFFFFFFFFFFFFFFFFFFFFFFFFFFFFFFFFFFFFFFF AND DUP3 PUSH1 0x0 ADD MLOAD PUSH20 0xFFFFFFFFFFFFFFFFFFFFFFFFFFFFFFFFFFFFFFFF AND EQ PUSH2 0x79A JUMPI PUSH1 0x40 MLOAD PUSH32 0x8C379A000000000000000000000000000000000000000000000000000000000 DUP2 MSTORE PUSH1 0x4 ADD PUSH2 0x791 SWAP1 PUSH2 0x1A21 JUMP JUMPDEST PUSH1 0x40 MLOAD DUP1 SWAP2 SUB SWAP1 REVERT JUMPDEST POP POP POP POP JUMP JUMPDEST PUSH1 0x60 DUP3 DUP3 PUSH1 0x40 MLOAD PUSH1 0x20 ADD PUSH2 0x7B5 SWAP3 SWAP2 SWAP1 PUSH2 0x1AC9 JUMP JUMPDEST PUSH1 0x40 MLOAD PUSH1 0x20 DUP2 DUP4 SUB SUB DUP2 MSTORE SWAP1 PUSH1 0x40 MSTORE SWAP1 POP SWAP3 SWAP2 POP POP JUMP JUMPDEST PUSH1 0x0 PUSH1 0x3 PUSH1 0x0 DUP4 DUP2 MSTORE PUSH1 0x20 ADD SWAP1 DUP2 MSTORE PUSH1 0x20 ADD PUSH1 0x0 KECCAK256 PUSH1 0x1 ADD SLOAD SWAP1 POP SWAP2 SWAP1 POP JUMP JUMPDEST PUSH1 0x60 SWAP1 JUMP JUMPDEST PUSH1 0x60 PUSH1 0x0 PUSH1 0x7 SLOAD SWAP1 POP PUSH1 0x0 PUSH1 0x40 MLOAD DUP1 PUSH1 0x20 ADD PUSH1 0x40 MSTORE DUP1 PUSH1 0x0 DUP2 MSTORE POP SWAP1 POP JUMPDEST PUSH1 0x0 DUP3 EQ PUSH2 0x855 JUMPI PUSH1 0x0 PUSH1 0x6 PUSH1 0x0 DUP5 DUP2 MSTORE PUSH1 0x20 ADD SWAP1 DUP2 MSTORE PUSH1 0x20 ADD PUSH1 0x0 KECCAK256 PUSH1 0x5 ADD SLOAD SWAP1 POP PUSH1 0x0 PUSH2 0x83D DUP5 PUSH2 0xD8F JUMP JUMPDEST SWAP1 POP PUSH2 0x849 DUP4 DUP3 PUSH2 0x7A0 JUMP JUMPDEST SWAP3 POP DUP2 SWAP4 POP POP POP PUSH2 0x80F JUMP JUMPDEST DUP1 SWAP3 POP POP POP SWAP1 JUMP JUMPDEST PUSH1 0x0 PUSH1 0x6 PUSH1 0x0 DUP4 DUP2 MSTORE PUSH1 0x20 ADD SWAP1 DUP2 MSTORE PUSH1 0x20 ADD PUSH1 0x0 KECCAK256 PUSH1 0x3 ADD PUSH1 0x0 SWAP1 SLOAD SWAP1 PUSH2 0x100 EXP SWAP1 DIV PUSH1 0xFF AND SWAP1 POP SWAP2 SWAP1 POP JUMP JUMPDEST PUSH1 0x0 PUSH1 0x3 PUSH1 0x0 DUP4 DUP2 MSTORE PUSH1 0x20 ADD SWAP1 DUP2 MSTORE PUSH1 0x20 ADD PUSH1 0x0 KECCAK256 PUSH1 0x0 ADD PUSH1 0x0 SWAP1 SLOAD SWAP1 PUSH2 0x100 EXP SWAP1 DIV PUSH20 0xFFFFFFFFFFFFFFFFFFFFFFFFFFFFFFFFFFFFFFFF AND SWAP1 POP SWAP2 SWAP1 POP JUMP JUMPDEST PUSH1 0x4 SLOAD DUP2 JUMP JUMPDEST PUSH1 0x0 PUSH1 0x6 PUSH1 0x0 DUP4 DUP2 MSTORE PUSH1 0x20 ADD SWAP1 DUP2 MSTORE PUSH1 0x20 ADD PUSH1 0x0 KECCAK256 PUSH1 0x0 ADD PUSH1 0x0 SWAP1 SLOAD SWAP1 PUSH2 0x100 EXP SWAP1 DIV PUSH20 0xFFFFFFFFFFFFFFFFFFFFFFFFFFFFFFFFFFFFFFFF AND SWAP1 POP SWAP2 SWAP1 POP JUMP JUMPDEST PUSH1 0x0 DUP2 LT ISZERO PUSH2 0x954 JUMPI PUSH1 0x40 MLOAD PUSH32 0x8C379A000000000000000000000000000000000000000000000000000000000 DUP2 MSTORE PUSH1 0x4 ADD PUSH2 0x94B SWAP1 PUSH2 0x1B44 JUMP JUMPDEST PUSH1 0x40 MLOAD DUP1 SWAP2 SUB SWAP1 REVERT JUMPDEST DUP1 CALLVALUE LT ISZERO PUSH2 0x997 JUMPI PUSH1 0x40 MLOAD PUSH32 0x8C379A000000000000000000000000000000000000000000000000000000000 DUP2 MSTORE PUSH1 0x4 ADD PUSH2 0x98E SWAP1 PUSH2 0x1BB0 JUMP JUMPDEST PUSH1 0x40 MLOAD DUP1 SWAP2 SUB SWAP1 REVERT JUMPDEST PUSH1 0x0 TIMESTAMP SWAP1 POP PUSH1 0x0 PUSH1 0x64 PUSH1 0x2 SLOAD PUSH1 0x64 PUSH2 0x9AF SWAP2 SWAP1 PUSH2 0x1BFF JUMP JUMPDEST CALLVALUE PUSH2 0x9BA SWAP2 SWAP1 PUSH2 0x1C33 JUMP JUMPDEST PUSH2 0x9C4 SWAP2 SWAP1 PUSH2 0x1CBC JUMP JUMPDEST SWAP1 POP PUSH1 0x0 PUSH2 0x9D3 CALLER DUP4 DUP6 PUSH2 0xEEF JUMP JUMPDEST SWAP1 POP PUSH2 0x9DE DUP2 PUSH2 0x108A JUMP JUMPDEST POP POP POP POP JUMP JUMPDEST PUSH1 0x7 SLOAD DUP2 JUMP JUMPDEST PUSH1 0x3 PUSH1 0x0 DUP3 DUP2 MSTORE PUSH1 0x20 ADD SWAP1 DUP2 MSTORE PUSH1 0x20 ADD PUSH1 0x0 KECCAK256 PUSH1 0x40 MLOAD DUP1 PUSH1 0xE0 ADD PUSH1 0x40 MSTORE SWAP1 DUP2 PUSH1 0x0 DUP3 ADD PUSH1 0x0 SWAP1 SLOAD SWAP1 PUSH2 0x100 EXP SWAP1 DIV PUSH20 0xFFFFFFFFFFFFFFFFFFFFFFFFFFFFFFFFFFFFFFFF AND PUSH20 0xFFFFFFFFFFFFFFFFFFFFFFFFFFFFFFFFFFFFFFFF AND PUSH20 0xFFFFFFFFFFFFFFFFFFFFFFFFFFFFFFFFFFFFFFFF AND DUP2 MSTORE PUSH1 0x20 ADD PUSH1 0x1 DUP3 ADD SLOAD DUP2 MSTORE PUSH1 0x20 ADD PUSH1 0x2 DUP3 ADD SLOAD DUP2 MSTORE PUSH1 0x20 ADD PUSH1 0x3 DUP3 ADD PUSH1 0x0 SWAP1 SLOAD SWAP1 PUSH2 0x100 EXP SWAP1 DIV PUSH1 0xFF AND PUSH1 0x1 DUP2 GT ISZERO PUSH2 0xA97 JUMPI PUSH2 0xA96 PUSH2 0x16D2 JUMP JUMPDEST JUMPDEST PUSH1 0x1 DUP2 GT ISZERO PUSH2 0xAA9 JUMPI PUSH2 0xAA8 PUSH2 0x16D2 JUMP JUMPDEST JUMPDEST DUP2 MSTORE PUSH1 0x20 ADD PUSH1 0x4 DUP3 ADD SLOAD DUP2 MSTORE PUSH1 0x20 ADD PUSH1 0x5 DUP3 ADD SLOAD DUP2 MSTORE PUSH1 0x20 ADD PUSH1 0x6 DUP3 ADD SLOAD DUP2 MSTORE POP POP PUSH1 0x0 PUSH1 0x1 DUP2 GT ISZERO PUSH2 0xADF JUMPI PUSH2 0xADE PUSH2 0x16D2 JUMP JUMPDEST JUMPDEST DUP2 PUSH1 0x60 ADD MLOAD PUSH1 0x1 DUP2 GT ISZERO PUSH2 0xAF6 JUMPI PUSH2 0xAF5 PUSH2 0x16D2 JUMP JUMPDEST JUMPDEST EQ PUSH2 0xB36 JUMPI PUSH1 0x40 MLOAD PUSH32 0x8C379A000000000000000000000000000000000000000000000000000000000 DUP2 MSTORE PUSH1 0x4 ADD PUSH2 0xB2D SWAP1 PUSH2 0x19B5 JUMP JUMPDEST PUSH1 0x40 MLOAD DUP1 SWAP2 SUB SWAP1 REVERT JUMPDEST PUSH1 0x3 PUSH1 0x0 DUP4 DUP2 MSTORE PUSH1 0x20 ADD SWAP1 DUP2 MSTORE PUSH1 0x20 ADD PUSH1 0x0 KECCAK256 PUSH1 0x40 MLOAD DUP1 PUSH1 0xE0 ADD PUSH1 0x40 MSTORE SWAP1 DUP2 PUSH1 0x0 DUP3 ADD PUSH1 0x0 SWAP1 SLOAD SWAP1 PUSH2 0x100 EXP SWAP1 DIV PUSH20 0xFFFFFFFFFFFFFFFFFFFFFFFFFFFFFFFFFFFFFFFF AND PUSH20 0xFFFFFFFFFFFFFFFFFFFFFFFFFFFFFFFFFFFFFFFF AND PUSH20 0xFFFFFFFFFFFFFFFFFFFFFFFFFFFFFFFFFFFFFFFF AND DUP2 MSTORE PUSH1 0x20 ADD PUSH1 0x1 DUP3 ADD SLOAD DUP2 MSTORE PUSH1 0x20 ADD PUSH1 0x2 DUP3 ADD SLOAD DUP2 MSTORE PUSH1 0x20 ADD PUSH1 0x3 DUP3 ADD PUSH1 0x0 SWAP1 SLOAD SWAP1 PUSH2 0x100 EXP SWAP1 DIV PUSH1 0xFF AND PUSH1 0x1 DUP2 GT ISZERO PUSH2 0xBE3 JUMPI PUSH2 0xBE2 PUSH2 0x16D2 JUMP JUMPDEST JUMPDEST PUSH1 0x1 DUP2 GT ISZERO PUSH2 0xBF5 JUMPI PUSH2 0xBF4 PUSH2 0x16D2 JUMP JUMPDEST JUMPDEST DUP2 MSTORE PUSH1 0x20 ADD PUSH1 0x4 DUP3 ADD SLOAD DUP2 MSTORE PUSH1 0x20 ADD PUSH1 0x5 DUP3 ADD SLOAD DUP2 MSTORE PUSH1 0x20 ADD PUSH1 0x6 DUP3 ADD SLOAD DUP2 MSTORE POP POP CALLER DUP1 PUSH20 0xFFFFFFFFFFFFFFFFFFFFFFFFFFFFFFFFFFFFFFFF AND DUP3 PUSH1 0x0 ADD MLOAD PUSH20 0xFFFFFFFFFFFFFFFFFFFFFFFFFFFFFFFFFFFFFFFF AND EQ PUSH2 0xC8A JUMPI PUSH1 0x40 MLOAD PUSH32 0x8C379A000000000000000000000000000000000000000000000000000000000 DUP2 MSTORE PUSH1 0x4 ADD PUSH2 0xC81 SWAP1 PUSH2 0x1A21 JUMP JUMPDEST PUSH1 0x40 MLOAD DUP1 SWAP2 SUB SWAP1 REVERT JUMPDEST POP POP POP POP JUMP JUMPDEST PUSH1 0x0 DUP2 LT ISZERO PUSH2 0xCD4 JUMPI PUSH1 0x40 MLOAD PUSH32 0x8C379A000000000000000000000000000000000000000000000000000000000 DUP2 MSTORE PUSH1 0x4 ADD PUSH2 0xCCB SWAP1 PUSH2 0x1B44 JUMP JUMPDEST PUSH1 0x40 MLOAD DUP1 SWAP2 SUB SWAP1 REVERT JUMPDEST DUP1 CALLVALUE LT ISZERO PUSH2 0xD17 JUMPI PUSH1 0x40 MLOAD PUSH32 0x8C379A000000000000000000000000000000000000000000000000000000000 DUP2 MSTORE PUSH1 0x4 ADD PUSH2 0xD0E SWAP1 PUSH2 0x1D39 JUMP JUMPDEST PUSH1 0x40 MLOAD DUP1 SWAP2 SUB SWAP1 REVERT JUMPDEST POP JUMP JUMPDEST PUSH1 0x8 SLOAD DUP2 JUMP JUMPDEST PUSH1 0x5 SLOAD DUP2 JUMP JUMPDEST PUSH1 0x0 PUSH1 0x3 PUSH1 0x0 DUP4 DUP2 MSTORE PUSH1 0x20 ADD SWAP1 DUP2 MSTORE PUSH1 0x20 ADD PUSH1 0x0 KECCAK256 PUSH1 0x3 ADD PUSH1 0x0 SWAP1 SLOAD SWAP1 PUSH2 0x100 EXP SWAP1 DIV PUSH1 0xFF AND SWAP1 POP SWAP2 SWAP1 POP JUMP JUMPDEST PUSH1 0x60 SWAP1 JUMP JUMPDEST PUSH1 0x0 DUP1 PUSH1 0x0 DUP1 PUSH1 0x0 DUP1 PUSH1 0x0 DUP1 SWAP2 SWAP4 SWAP6 SWAP8 POP SWAP2 SWAP4 SWAP6 SWAP8 JUMP JUMPDEST PUSH1 0x0 PUSH1 0x6 PUSH1 0x0 DUP4 DUP2 MSTORE PUSH1 0x20 ADD SWAP1 DUP2 MSTORE PUSH1 0x20 ADD PUSH1 0x0 KECCAK256 PUSH1 0x1 ADD SLOAD SWAP1 POP SWAP2 SWAP1 POP JUMP JUMPDEST PUSH1 0x60 PUSH1 0x0 DUP3 SUB PUSH2 0xDD6 JUMPI PUSH1 0x40 MLOAD DUP1 PUSH1 0x40 ADD PUSH1 0x40 MSTORE DUP1 PUSH1 0x1 DUP2 MSTORE PUSH1 0x20 ADD PUSH32 0x3000000000000000000000000000000000000000000000000000000000000000 DUP2 MSTORE POP SWAP1 POP PUSH2 0xEEA JUMP JUMPDEST PUSH1 0x0 DUP3 SWAP1 POP PUSH1 0x0 JUMPDEST PUSH1 0x0 DUP3 EQ PUSH2 0xE08 JUMPI DUP1 DUP1 PUSH2 0xDF1 SWAP1 PUSH2 0x1D59 JUMP JUMPDEST SWAP2 POP POP PUSH1 0xA DUP3 PUSH2 0xE01 SWAP2 SWAP1 PUSH2 0x1CBC JUMP JUMPDEST SWAP2 POP PUSH2 0xDDE JUMP JUMPDEST PUSH1 0x0 DUP2 PUSH8 0xFFFFFFFFFFFFFFFF DUP2 GT ISZERO PUSH2 0xE24 JUMPI PUSH2 0xE23 PUSH2 0x13EE JUMP JUMPDEST JUMPDEST PUSH1 0x40 MLOAD SWAP1 DUP1 DUP3 MSTORE DUP1 PUSH1 0x1F ADD PUSH1 0x1F NOT AND PUSH1 0x20 ADD DUP3 ADD PUSH1 0x40 MSTORE DUP1 ISZERO PUSH2 0xE56 JUMPI DUP2 PUSH1 0x20 ADD PUSH1 0x1 DUP3 MUL DUP1 CALLDATASIZE DUP4 CALLDATACOPY DUP1 DUP3 ADD SWAP2 POP POP SWAP1 POP JUMPDEST POP SWAP1 POP JUMPDEST PUSH1 0x0 DUP6 EQ PUSH2 0xEE3 JUMPI PUSH1 0x1 DUP3 PUSH2 0xE6F SWAP2 SWAP1 PUSH2 0x1BFF JUMP JUMPDEST SWAP2 POP PUSH1 0xA DUP6 PUSH2 0xE7E SWAP2 SWAP1 PUSH2 0x1DA1 JUMP JUMPDEST PUSH1 0x30 PUSH2 0xE8A SWAP2 SWAP1 PUSH2 0x1DD2 JUMP JUMPDEST PUSH1 0xF8 SHL DUP2 DUP4 DUP2 MLOAD DUP2 LT PUSH2 0xEA0 JUMPI PUSH2 0xE9F PUSH2 0x1E28 JUMP JUMPDEST JUMPDEST PUSH1 0x20 ADD ADD SWAP1 PUSH31 0xFFFFFFFFFFFFFFFFFFFFFFFFFFFFFFFFFFFFFFFFFFFFFFFFFFFFFFFFFFFFFF NOT AND SWAP1 DUP2 PUSH1 0x0 BYTE SWAP1 MSTORE8 POP PUSH1 0xA DUP6 PUSH2 0xEDC SWAP2 SWAP1 PUSH2 0x1CBC JUMP JUMPDEST SWAP5 POP PUSH2 0xE5A JUMP JUMPDEST DUP1 SWAP4 POP POP POP POP JUMPDEST SWAP2 SWAP1 POP JUMP JUMPDEST PUSH2 0xEF7 PUSH2 0x1217 JUMP JUMPDEST PUSH1 0x8 PUSH1 0x0 DUP2 SLOAD DUP1 SWAP3 SWAP2 SWAP1 PUSH2 0xF0A SWAP1 PUSH2 0x1D59 JUMP JUMPDEST SWAP2 SWAP1 POP SSTORE POP PUSH1 0x0 PUSH1 0x40 MLOAD DUP1 PUSH1 0xE0 ADD PUSH1 0x40 MSTORE DUP1 DUP7 PUSH20 0xFFFFFFFFFFFFFFFFFFFFFFFFFFFFFFFFFFFFFFFF AND DUP2 MSTORE PUSH1 0x20 ADD DUP6 DUP2 MSTORE PUSH1 0x20 ADD DUP5 DUP2 MSTORE PUSH1 0x20 ADD PUSH1 0x0 PUSH1 0x1 DUP2 GT ISZERO PUSH2 0xF58 JUMPI PUSH2 0xF57 PUSH2 0x16D2 JUMP JUMPDEST JUMPDEST DUP2 MSTORE PUSH1 0x20 ADD PUSH1 0x8 SLOAD DUP2 MSTORE PUSH1 0x20 ADD PUSH1 0x0 DUP2 MSTORE PUSH1 0x20 ADD PUSH1 0x0 DUP2 MSTORE POP SWAP1 POP DUP1 PUSH1 0x6 PUSH1 0x0 PUSH1 0x8 SLOAD DUP2 MSTORE PUSH1 0x20 ADD SWAP1 DUP2 MSTORE PUSH1 0x20 ADD PUSH1 0x0 KECCAK256 PUSH1 0x0 DUP3 ADD MLOAD DUP2 PUSH1 0x0 ADD PUSH1 0x0 PUSH2 0x100 EXP DUP2 SLOAD DUP2 PUSH20 0xFFFFFFFFFFFFFFFFFFFFFFFFFFFFFFFFFFFFFFFF MUL NOT AND SWAP1 DUP4 PUSH20 0xFFFFFFFFFFFFFFFFFFFFFFFFFFFFFFFFFFFFFFFF AND MUL OR SWAP1 SSTORE POP PUSH1 0x20 DUP3 ADD MLOAD DUP2 PUSH1 0x1 ADD SSTORE PUSH1 0x40 DUP3 ADD MLOAD DUP2 PUSH1 0x2 ADD SSTORE PUSH1 0x60 DUP3 ADD MLOAD DUP2 PUSH1 0x3 ADD PUSH1 0x0 PUSH2 0x100 EXP DUP2 SLOAD DUP2 PUSH1 0xFF MUL NOT AND SWAP1 DUP4 PUSH1 0x1 DUP2 GT ISZERO PUSH2 0x100F JUMPI PUSH2 0x100E PUSH2 0x16D2 JUMP JUMPDEST JUMPDEST MUL OR SWAP1 SSTORE POP PUSH1 0x80 DUP3 ADD MLOAD DUP2 PUSH1 0x4 ADD SSTORE PUSH1 0xA0 DUP3 ADD MLOAD DUP2 PUSH1 0x5 ADD SSTORE PUSH1 0xC0 DUP3 ADD MLOAD DUP2 PUSH1 0x6 ADD SSTORE SWAP1 POP POP PUSH32 0x93CAF6BA1AF44020DFE6076E279533E38BD8DEEFE534C43AA8CC93AAD2025B7D DUP6 DUP6 DUP6 PUSH1 0x0 PUSH1 0x8 SLOAD PUSH1 0x0 DUP1 PUSH1 0x0 PUSH1 0x40 MLOAD PUSH2 0x1077 SWAP9 SWAP8 SWAP7 SWAP6 SWAP5 SWAP4 SWAP3 SWAP2 SWAP1 PUSH2 0x1EBD JUMP JUMPDEST PUSH1 0x40 MLOAD DUP1 SWAP2 SUB SWAP1 LOG1 DUP1 SWAP2 POP POP SWAP4 SWAP3 POP POP POP JUMP JUMPDEST PUSH1 0x0 DUP1 PUSH1 0x7 SLOAD SUB PUSH2 0x10A5 JUMPI DUP2 PUSH1 0x80 ADD MLOAD PUSH1 0x7 DUP2 SWAP1 SSTORE POP PUSH2 0x1213 JUMP JUMPDEST DUP2 PUSH1 0x20 ADD MLOAD PUSH1 0x6 PUSH1 0x0 PUSH1 0x7 SLOAD DUP2 MSTORE PUSH1 0x20 ADD SWAP1 DUP2 MSTORE PUSH1 0x20 ADD PUSH1 0x0 KECCAK256 PUSH1 0x1 ADD SLOAD LT PUSH2 0x1107 JUMPI PUSH1 0x7 SLOAD DUP3 PUSH1 0xA0 ADD DUP2 DUP2 MSTORE POP POP DUP2 PUSH1 0x80 ADD MLOAD PUSH1 0x6 PUSH1 0x0 DUP5 PUSH1 0xA0 ADD MLOAD DUP2 MSTORE PUSH1 0x20 ADD SWAP1 DUP2 MSTORE PUSH1 0x20 ADD PUSH1 0x0 KECCAK256 PUSH1 0x6 ADD DUP2 SWAP1 SSTORE POP DUP2 PUSH1 0x80 ADD MLOAD PUSH1 0x7 DUP2 SWAP1 SSTORE POP PUSH2 0x1212 JUMP JUMPDEST PUSH1 0x7 SLOAD SWAP1 POP JUMPDEST PUSH1 0x0 PUSH1 0x6 PUSH1 0x0 DUP4 DUP2 MSTORE PUSH1 0x20 ADD SWAP1 DUP2 MSTORE PUSH1 0x20 ADD PUSH1 0x0 KECCAK256 PUSH1 0x5 ADD SLOAD EQ ISZERO DUP1 ISZERO PUSH2 0x1163 JUMPI POP DUP2 PUSH1 0x20 ADD MLOAD PUSH1 0x6 PUSH1 0x0 PUSH1 0x6 PUSH1 0x0 DUP6 DUP2 MSTORE PUSH1 0x20 ADD SWAP1 DUP2 MSTORE PUSH1 0x20 ADD PUSH1 0x0 KECCAK256 PUSH1 0x5 ADD SLOAD DUP2 MSTORE PUSH1 0x20 ADD SWAP1 DUP2 MSTORE PUSH1 0x20 ADD PUSH1 0x0 KECCAK256 PUSH1 0x1 ADD SLOAD LT JUMPDEST ISZERO PUSH2 0x1186 JUMPI PUSH1 0x6 PUSH1 0x0 DUP3 DUP2 MSTORE PUSH1 0x20 ADD SWAP1 DUP2 MSTORE PUSH1 0x20 ADD PUSH1 0x0 KECCAK256 PUSH1 0x5 ADD SLOAD SWAP1 POP PUSH2 0x110D JUMP JUMPDEST PUSH1 0x6 PUSH1 0x0 DUP3 DUP2 MSTORE PUSH1 0x20 ADD SWAP1 DUP2 MSTORE PUSH1 0x20 ADD PUSH1 0x0 KECCAK256 PUSH1 0x5 ADD SLOAD DUP3 PUSH1 0xA0 ADD DUP2 DUP2 MSTORE POP POP PUSH1 0x0 PUSH1 0x6 PUSH1 0x0 DUP4 DUP2 MSTORE PUSH1 0x20 ADD SWAP1 DUP2 MSTORE PUSH1 0x20 ADD PUSH1 0x0 KECCAK256 PUSH1 0x5 ADD SLOAD EQ PUSH2 0x11E8 JUMPI DUP2 PUSH1 0x80 ADD MLOAD PUSH1 0x6 PUSH1 0x0 DUP5 PUSH1 0xA0 ADD MLOAD DUP2 MSTORE PUSH1 0x20 ADD SWAP1 DUP2 MSTORE PUSH1 0x20 ADD PUSH1 0x0 KECCAK256 PUSH1 0x6 ADD DUP2 SWAP1 SSTORE POP JUMPDEST DUP2 PUSH1 0x80 ADD MLOAD PUSH1 0x6 PUSH1 0x0 DUP4 DUP2 MSTORE PUSH1 0x20 ADD SWAP1 DUP2 MSTORE PUSH1 0x20 ADD PUSH1 0x0 KECCAK256 PUSH1 0x5 ADD DUP2 SWAP1 SSTORE POP DUP1 DUP3 PUSH1 0xC0 ADD DUP2 DUP2 MSTORE POP POP JUMPDEST JUMPDEST POP POP JUMP JUMPDEST PUSH1 0x40 MLOAD DUP1 PUSH1 0xE0 ADD PUSH1 0x40 MSTORE DUP1 PUSH1 0x0 PUSH20 0xFFFFFFFFFFFFFFFFFFFFFFFFFFFFFFFFFFFFFFFF AND DUP2 MSTORE PUSH1 0x20 ADD PUSH1 0x0 DUP2 MSTORE PUSH1 0x20 ADD PUSH1 0x0 DUP2 MSTORE PUSH1 0x20 ADD PUSH1 0x0 PUSH1 0x1 DUP2 GT ISZERO PUSH2 0x1261 JUMPI PUSH2 0x1260 PUSH2 0x16D2 JUMP JUMPDEST JUMPDEST DUP2 MSTORE PUSH1 0x20 ADD PUSH1 0x0 DUP2 MSTORE PUSH1 0x20 ADD PUSH1 0x0 DUP2 MSTORE PUSH1 0x20 ADD PUSH1 0x0 DUP2 MSTORE POP SWAP1 JUMP JUMPDEST PUSH1 0x0 DUP2 MLOAD SWAP1 POP SWAP2 SWAP1 POP JUMP JUMPDEST PUSH1 0x0 DUP3 DUP3 MSTORE PUSH1 0x20 DUP3 ADD SWAP1 POP SWAP3 SWAP2 POP POP JUMP JUMPDEST PUSH1 0x0 DUP2 SWAP1 POP PUSH1 0x20 DUP3 ADD SWAP1 POP SWAP2 SWAP1 POP JUMP JUMPDEST PUSH1 0x0 DUP2 SWAP1 POP SWAP2 SWAP1 POP JUMP JUMPDEST PUSH2 0x12BB DUP2 PUSH2 0x12A8 JUMP JUMPDEST DUP3 MSTORE POP POP JUMP JUMPDEST PUSH1 0x0 PUSH2 0x12CD DUP4 DUP4 PUSH2 0x12B2 JUMP JUMPDEST PUSH1 0x20 DUP4 ADD SWAP1 POP SWAP3 SWAP2 POP POP JUMP JUMPDEST PUSH1 0x0 PUSH1 0x20 DUP3 ADD SWAP1 POP SWAP2 SWAP1 POP JUMP JUMPDEST PUSH1 0x0 PUSH2 0x12F1 DUP3 PUSH2 0x127C JUMP JUMPDEST PUSH2 0x12FB DUP2 DUP6 PUSH2 0x1287 JUMP JUMPDEST SWAP4 POP PUSH2 0x1306 DUP4 PUSH2 0x1298 JUMP JUMPDEST DUP1 PUSH1 0x0 JUMPDEST DUP4 DUP2 LT ISZERO PUSH2 0x1337 JUMPI DUP2 MLOAD PUSH2 0x131E DUP9 DUP3 PUSH2 0x12C1 JUMP JUMPDEST SWAP8 POP PUSH2 0x1329 DUP4 PUSH2 0x12D9 JUMP JUMPDEST SWAP3 POP POP PUSH1 0x1 DUP2 ADD SWAP1 POP PUSH2 0x130A JUMP JUMPDEST POP DUP6 SWAP4 POP POP POP POP SWAP3 SWAP2 POP POP JUMP JUMPDEST PUSH1 0x0 PUSH1 0x20 DUP3 ADD SWAP1 POP DUP2 DUP2 SUB PUSH1 0x0 DUP4 ADD MSTORE PUSH2 0x135E DUP2 DUP5 PUSH2 0x12E6 JUMP JUMPDEST SWAP1 POP SWAP3 SWAP2 POP POP JUMP JUMPDEST PUSH1 0x0 PUSH1 0x40 MLOAD SWAP1 POP SWAP1 JUMP JUMPDEST PUSH1 0x0 DUP1 REVERT JUMPDEST PUSH1 0x0 DUP1 REVERT JUMPDEST PUSH2 0x1383 DUP2 PUSH2 0x12A8 JUMP JUMPDEST DUP2 EQ PUSH2 0x138E JUMPI PUSH1 0x0 DUP1 REVERT JUMPDEST POP JUMP JUMPDEST PUSH1 0x0 DUP2 CALLDATALOAD SWAP1 POP PUSH2 0x13A0 DUP2 PUSH2 0x137A JUMP JUMPDEST SWAP3 SWAP2 POP POP JUMP JUMPDEST PUSH1 0x0 PUSH1 0x20 DUP3 DUP5 SUB SLT ISZERO PUSH2 0x13BC JUMPI PUSH2 0x13BB PUSH2 0x1370 JUMP JUMPDEST JUMPDEST PUSH1 0x0 PUSH2 0x13CA DUP5 DUP3 DUP6 ADD PUSH2 0x1391 JUMP JUMPDEST SWAP2 POP POP SWAP3 SWAP2 POP POP JUMP JUMPDEST PUSH1 0x0 DUP1 REVERT JUMPDEST PUSH1 0x0 DUP1 REVERT JUMPDEST PUSH1 0x0 PUSH1 0x1F NOT PUSH1 0x1F DUP4 ADD AND SWAP1 POP SWAP2 SWAP1 POP JUMP JUMPDEST PUSH32 0x4E487B7100000000000000000000000000000000000000000000000000000000 PUSH1 0x0 MSTORE PUSH1 0x41 PUSH1 0x4 MSTORE PUSH1 0x24 PUSH1 0x0 REVERT JUMPDEST PUSH2 0x1426 DUP3 PUSH2 0x13DD JUMP JUMPDEST DUP2 ADD DUP2 DUP2 LT PUSH8 0xFFFFFFFFFFFFFFFF DUP3 GT OR ISZERO PUSH2 0x1445 JUMPI PUSH2 0x1444 PUSH2 0x13EE JUMP JUMPDEST JUMPDEST DUP1 PUSH1 0x40 MSTORE POP POP POP JUMP JUMPDEST PUSH1 0x0 PUSH2 0x1458 PUSH2 0x1366 JUMP JUMPDEST SWAP1 POP PUSH2 0x1464 DUP3 DUP3 PUSH2 0x141D JUMP JUMPDEST SWAP2 SWAP1 POP JUMP JUMPDEST PUSH1 0x0 PUSH8 0xFFFFFFFFFFFFFFFF DUP3 GT ISZERO PUSH2 0x1484 JUMPI PUSH2 0x1483 PUSH2 0x13EE JUMP JUMPDEST JUMPDEST PUSH2 0x148D DUP3 PUSH2 0x13DD JUMP JUMPDEST SWAP1 POP PUSH1 0x20 DUP2 ADD SWAP1 POP SWAP2 SWAP1 POP JUMP JUMPDEST DUP3 DUP2 DUP4 CALLDATACOPY PUSH1 0x0 DUP4 DUP4 ADD MSTORE POP POP POP JUMP JUMPDEST PUSH1 0x0 PUSH2 0x14BC PUSH2 0x14B7 DUP5 PUSH2 0x1469 JUMP JUMPDEST PUSH2 0x144E JUMP JUMPDEST SWAP1 POP DUP3 DUP2 MSTORE PUSH1 0x20 DUP2 ADD DUP5 DUP5 DUP5 ADD GT ISZERO PUSH2 0x14D8 JUMPI PUSH2 0x14D7 PUSH2 0x13D8 JUMP JUMPDEST JUMPDEST PUSH2 0x14E3 DUP5 DUP3 DUP6 PUSH2 0x149A JUMP JUMPDEST POP SWAP4 SWAP3 POP POP POP JUMP JUMPDEST PUSH1 0x0 DUP3 PUSH1 0x1F DUP4 ADD SLT PUSH2 0x1500 JUMPI PUSH2 0x14FF PUSH2 0x13D3 JUMP JUMPDEST JUMPDEST DUP2 CALLDATALOAD PUSH2 0x1510 DUP5 DUP3 PUSH1 0x20 DUP7 ADD PUSH2 0x14A9 JUMP JUMPDEST SWAP2 POP POP SWAP3 SWAP2 POP POP JUMP JUMPDEST PUSH1 0x0 DUP1 PUSH1 0x40 DUP4 DUP6 SUB SLT ISZERO PUSH2 0x1530 JUMPI PUSH2 0x152F PUSH2 0x1370 JUMP JUMPDEST JUMPDEST PUSH1 0x0 DUP4 ADD CALLDATALOAD PUSH8 0xFFFFFFFFFFFFFFFF DUP2 GT ISZERO PUSH2 0x154E JUMPI PUSH2 0x154D PUSH2 0x1375 JUMP JUMPDEST JUMPDEST PUSH2 0x155A DUP6 DUP3 DUP7 ADD PUSH2 0x14EB JUMP JUMPDEST SWAP3 POP POP PUSH1 0x20 DUP4 ADD CALLDATALOAD PUSH8 0xFFFFFFFFFFFFFFFF DUP2 GT ISZERO PUSH2 0x157B JUMPI PUSH2 0x157A PUSH2 0x1375 JUMP JUMPDEST JUMPDEST PUSH2 0x1587 DUP6 DUP3 DUP7 ADD PUSH2 0x14EB JUMP JUMPDEST SWAP2 POP POP SWAP3 POP SWAP3 SWAP1 POP JUMP JUMPDEST PUSH1 0x0 DUP2 MLOAD SWAP1 POP SWAP2 SWAP1 POP JUMP JUMPDEST PUSH1 0x0 DUP3 DUP3 MSTORE PUSH1 0x20 DUP3 ADD SWAP1 POP SWAP3 SWAP2 POP POP JUMP JUMPDEST PUSH1 0x0 JUMPDEST DUP4 DUP2 LT ISZERO PUSH2 0x15CB JUMPI DUP1 DUP3 ADD MLOAD DUP2 DUP5 ADD MSTORE PUSH1 0x20 DUP2 ADD SWAP1 POP PUSH2 0x15B0 JUMP JUMPDEST DUP4 DUP2 GT ISZERO PUSH2 0x15DA JUMPI PUSH1 0x0 DUP5 DUP5 ADD MSTORE JUMPDEST POP POP POP POP JUMP JUMPDEST PUSH1 0x0 PUSH2 0x15EB DUP3 PUSH2 0x1591 JUMP JUMPDEST PUSH2 0x15F5 DUP2 DUP6 PUSH2 0x159C JUMP JUMPDEST SWAP4 POP PUSH2 0x1605 DUP2 DUP6 PUSH1 0x20 DUP7 ADD PUSH2 0x15AD JUMP JUMPDEST PUSH2 0x160E DUP2 PUSH2 0x13DD JUMP JUMPDEST DUP5 ADD SWAP2 POP POP SWAP3 SWAP2 POP POP JUMP JUMPDEST PUSH1 0x0 PUSH1 0x20 DUP3 ADD SWAP1 POP DUP2 DUP2 SUB PUSH1 0x0 DUP4 ADD MSTORE PUSH2 0x1633 DUP2 DUP5 PUSH2 0x15E0 JUMP JUMPDEST SWAP1 POP SWAP3 SWAP2 POP POP JUMP JUMPDEST PUSH2 0x1644 DUP2 PUSH2 0x12A8 JUMP JUMPDEST DUP3 MSTORE POP POP JUMP JUMPDEST PUSH1 0x0 PUSH1 0x20 DUP3 ADD SWAP1 POP PUSH2 0x165F PUSH1 0x0 DUP4 ADD DUP5 PUSH2 0x163B JUMP JUMPDEST SWAP3 SWAP2 POP POP JUMP JUMPDEST PUSH1 0x0 DUP2 MLOAD SWAP1 POP SWAP2 SWAP1 POP JUMP JUMPDEST PUSH1 0x0 DUP3 DUP3 MSTORE PUSH1 0x20 DUP3 ADD SWAP1 POP SWAP3 SWAP2 POP POP JUMP JUMPDEST PUSH1 0x0 DUP2 SWAP1 POP PUSH1 0x20 DUP3 ADD SWAP1 POP SWAP2 SWAP1 POP JUMP JUMPDEST PUSH1 0x0 PUSH20 0xFFFFFFFFFFFFFFFFFFFFFFFFFFFFFFFFFFFFFFFF DUP3 AND SWAP1 POP SWAP2 SWAP1 POP JUMP JUMPDEST PUSH1 0x0 PUSH2 0x16BC DUP3 PUSH2 0x1691 JUMP JUMPDEST SWAP1 POP SWAP2 SWAP1 POP JUMP JUMPDEST PUSH2 0x16CC DUP2 PUSH2 0x16B1 JUMP JUMPDEST DUP3 MSTORE POP POP JUMP JUMPDEST PUSH32 0x4E487B7100000000000000000000000000000000000000000000000000000000 PUSH1 0x0 MSTORE PUSH1 0x21 PUSH1 0x4 MSTORE PUSH1 0x24 PUSH1 0x0 REVERT JUMPDEST PUSH1 0x2 DUP2 LT PUSH2 0x1712 JUMPI PUSH2 0x1711 PUSH2 0x16D2 JUMP JUMPDEST JUMPDEST POP JUMP JUMPDEST PUSH1 0x0 DUP2 SWAP1 POP PUSH2 0x1723 DUP3 PUSH2 0x1701 JUMP JUMPDEST SWAP2 SWAP1 POP JUMP JUMPDEST PUSH1 0x0 PUSH2 0x1733 DUP3 PUSH2 0x1715 JUMP JUMPDEST SWAP1 POP SWAP2 SWAP1 POP JUMP JUMPDEST PUSH2 0x1743 DUP2 PUSH2 0x1728 JUMP JUMPDEST DUP3 MSTORE POP POP JUMP JUMPDEST PUSH1 0xE0 DUP3 ADD PUSH1 0x0 DUP3 ADD MLOAD PUSH2 0x175F PUSH1 0x0 DUP6 ADD DUP3 PUSH2 0x16C3 JUMP JUMPDEST POP PUSH1 0x20 DUP3 ADD MLOAD PUSH2 0x1772 PUSH1 0x20 DUP6 ADD DUP3 PUSH2 0x12B2 JUMP JUMPDEST POP PUSH1 0x40 DUP3 ADD MLOAD PUSH2 0x1785 PUSH1 0x40 DUP6 ADD DUP3 PUSH2 0x12B2 JUMP JUMPDEST POP PUSH1 0x60 DUP3 ADD MLOAD PUSH2 0x1798 PUSH1 0x60 DUP6 ADD DUP3 PUSH2 0x173A JUMP JUMPDEST POP PUSH1 0x80 DUP3 ADD MLOAD PUSH2 0x17AB PUSH1 0x80 DUP6 ADD DUP3 PUSH2 0x12B2 JUMP JUMPDEST POP PUSH1 0xA0 DUP3 ADD MLOAD PUSH2 0x17BE PUSH1 0xA0 DUP6 ADD DUP3 PUSH2 0x12B2 JUMP JUMPDEST POP PUSH1 0xC0 DUP3 ADD MLOAD PUSH2 0x17D1 PUSH1 0xC0 DUP6 ADD DUP3 PUSH2 0x12B2 JUMP JUMPDEST POP POP POP POP JUMP JUMPDEST PUSH1 0x0 PUSH2 0x17E3 DUP4 DUP4 PUSH2 0x1749 JUMP JUMPDEST PUSH1 0xE0 DUP4 ADD SWAP1 POP SWAP3 SWAP2 POP POP JUMP JUMPDEST PUSH1 0x0 PUSH1 0x20 DUP3 ADD SWAP1 POP SWAP2 SWAP1 POP JUMP JUMPDEST PUSH1 0x0 PUSH2 0x1807 DUP3 PUSH2 0x1665 JUMP JUMPDEST PUSH2 0x1811 DUP2 DUP6 PUSH2 0x1670 JUMP JUMPDEST SWAP4 POP PUSH2 0x181C DUP4 PUSH2 0x1681 JUMP JUMPDEST DUP1 PUSH1 0x0 JUMPDEST DUP4 DUP2 LT ISZERO PUSH2 0x184D JUMPI DUP2 MLOAD PUSH2 0x1834 DUP9 DUP3 PUSH2 0x17D7 JUMP JUMPDEST SWAP8 POP PUSH2 0x183F DUP4 PUSH2 0x17EF JUMP JUMPDEST SWAP3 POP POP PUSH1 0x1 DUP2 ADD SWAP1 POP PUSH2 0x1820 JUMP JUMPDEST POP DUP6 SWAP4 POP POP POP POP SWAP3 SWAP2 POP POP JUMP JUMPDEST PUSH1 0x0 PUSH1 0x20 DUP3 ADD SWAP1 POP DUP2 DUP2 SUB PUSH1 0x0 DUP4 ADD MSTORE PUSH2 0x1874 DUP2 DUP5 PUSH2 0x17FC JUMP JUMPDEST SWAP1 POP SWAP3 SWAP2 POP POP JUMP JUMPDEST PUSH2 0x1885 DUP2 PUSH2 0x1728 JUMP JUMPDEST DUP3 MSTORE POP POP JUMP JUMPDEST PUSH1 0x0 PUSH1 0x20 DUP3 ADD SWAP1 POP PUSH2 0x18A0 PUSH1 0x0 DUP4 ADD DUP5 PUSH2 0x187C JUMP JUMPDEST SWAP3 SWAP2 POP POP JUMP JUMPDEST PUSH2 0x18AF DUP2 PUSH2 0x16B1 JUMP JUMPDEST DUP3 MSTORE POP POP JUMP JUMPDEST PUSH1 0x0 PUSH1 0x20 DUP3 ADD SWAP1 POP PUSH2 0x18CA PUSH1 0x0 DUP4 ADD DUP5 PUSH2 0x18A6 JUMP JUMPDEST SWAP3 SWAP2 POP POP JUMP JUMPDEST PUSH1 0x0 DUP2 ISZERO ISZERO SWAP1 POP SWAP2 SWAP1 POP JUMP JUMPDEST PUSH2 0x18E5 DUP2 PUSH2 0x18D0 JUMP JUMPDEST DUP3 MSTORE POP POP JUMP JUMPDEST PUSH1 0x0 PUSH2 0x100 DUP3 ADD SWAP1 POP PUSH2 0x1901 PUSH1 0x0 DUP4 ADD DUP12 PUSH2 0x18A6 JUMP JUMPDEST PUSH2 0x190E PUSH1 0x20 DUP4 ADD DUP11 PUSH2 0x163B JUMP JUMPDEST PUSH2 0x191B PUSH1 0x40 DUP4 ADD DUP10 PUSH2 0x163B JUMP JUMPDEST PUSH2 0x1928 PUSH1 0x60 DUP4 ADD DUP9 PUSH2 0x187C JUMP JUMPDEST PUSH2 0x1935 PUSH1 0x80 DUP4 ADD DUP8 PUSH2 0x163B JUMP JUMPDEST PUSH2 0x1942 PUSH1 0xA0 DUP4 ADD DUP7 PUSH2 0x163B JUMP JUMPDEST PUSH2 0x194F PUSH1 0xC0 DUP4 ADD DUP6 PUSH2 0x163B JUMP JUMPDEST PUSH2 0x195C PUSH1 0xE0 DUP4 ADD DUP5 PUSH2 0x18DC JUMP JUMPDEST SWAP10 SWAP9 POP POP POP POP POP POP POP POP POP JUMP JUMPDEST PUSH32 0x4F726465722050656E64696E6700000000000000000000000000000000000000 PUSH1 0x0 DUP3 ADD MSTORE POP JUMP JUMPDEST PUSH1 0x0 PUSH2 0x199F PUSH1 0xD DUP4 PUSH2 0x159C JUMP JUMPDEST SWAP2 POP PUSH2 0x19AA DUP3 PUSH2 0x1969 JUMP JUMPDEST PUSH1 0x20 DUP3 ADD SWAP1 POP SWAP2 SWAP1 POP JUMP JUMPDEST PUSH1 0x0 PUSH1 0x20 DUP3 ADD SWAP1 POP DUP2 DUP2 SUB PUSH1 0x0 DUP4 ADD MSTORE PUSH2 0x19CE DUP2 PUSH2 0x1992 JUMP JUMPDEST SWAP1 POP SWAP2 SWAP1 POP JUMP JUMPDEST PUSH32 0x4E6F7420417574686F7269736564000000000000000000000000000000000000 PUSH1 0x0 DUP3 ADD MSTORE POP JUMP JUMPDEST PUSH1 0x0 PUSH2 0x1A0B PUSH1 0xE DUP4 PUSH2 0x159C JUMP JUMPDEST SWAP2 POP PUSH2 0x1A16 DUP3 PUSH2 0x19D5 JUMP JUMPDEST PUSH1 0x20 DUP3 ADD SWAP1 POP SWAP2 SWAP1 POP JUMP JUMPDEST PUSH1 0x0 PUSH1 0x20 DUP3 ADD SWAP1 POP DUP2 DUP2 SUB PUSH1 0x0 DUP4 ADD MSTORE PUSH2 0x1A3A DUP2 PUSH2 0x19FE JUMP JUMPDEST SWAP1 POP SWAP2 SWAP1 POP JUMP JUMPDEST PUSH1 0x0 DUP2 SWAP1 POP SWAP3 SWAP2 POP POP JUMP JUMPDEST PUSH1 0x0 PUSH2 0x1A57 DUP3 PUSH2 0x1591 JUMP JUMPDEST PUSH2 0x1A61 DUP2 DUP6 PUSH2 0x1A41 JUMP JUMPDEST SWAP4 POP PUSH2 0x1A71 DUP2 DUP6 PUSH1 0x20 DUP7 ADD PUSH2 0x15AD JUMP JUMPDEST DUP1 DUP5 ADD SWAP2 POP POP SWAP3 SWAP2 POP POP JUMP JUMPDEST PUSH32 0x2000000000000000000000000000000000000000000000000000000000000000 PUSH1 0x0 DUP3 ADD MSTORE POP JUMP JUMPDEST PUSH1 0x0 PUSH2 0x1AB3 PUSH1 0x1 DUP4 PUSH2 0x1A41 JUMP JUMPDEST SWAP2 POP PUSH2 0x1ABE DUP3 PUSH2 0x1A7D JUMP JUMPDEST PUSH1 0x1 DUP3 ADD SWAP1 POP SWAP2 SWAP1 POP JUMP JUMPDEST PUSH1 0x0 PUSH2 0x1AD5 DUP3 DUP6 PUSH2 0x1A4C JUMP JUMPDEST SWAP2 POP PUSH2 0x1AE0 DUP3 PUSH2 0x1AA6 JUMP JUMPDEST SWAP2 POP PUSH2 0x1AEC DUP3 DUP5 PUSH2 0x1A4C JUMP JUMPDEST SWAP2 POP DUP2 SWAP1 POP SWAP4 SWAP3 POP POP POP JUMP JUMPDEST PUSH32 0x70726963652076616C7565206D757374206265206D6F7265207468616E203000 PUSH1 0x0 DUP3 ADD MSTORE POP JUMP JUMPDEST PUSH1 0x0 PUSH2 0x1B2E PUSH1 0x1F DUP4 PUSH2 0x159C JUMP JUMPDEST SWAP2 POP PUSH2 0x1B39 DUP3 PUSH2 0x1AF8 JUMP JUMPDEST PUSH1 0x20 DUP3 ADD SWAP1 POP SWAP2 SWAP1 POP JUMP JUMPDEST PUSH1 0x0 PUSH1 0x20 DUP3 ADD SWAP1 POP DUP2 DUP2 SUB PUSH1 0x0 DUP4 ADD MSTORE PUSH2 0x1B5D DUP2 PUSH2 0x1B21 JUMP JUMPDEST SWAP1 POP SWAP2 SWAP1 POP JUMP JUMPDEST PUSH32 0x4E6F7420656E6F75676820626C616E636520746F20706C6163652061736B0000 PUSH1 0x0 DUP3 ADD MSTORE POP JUMP JUMPDEST PUSH1 0x0 PUSH2 0x1B9A PUSH1 0x1E DUP4 PUSH2 0x159C JUMP JUMPDEST SWAP2 POP PUSH2 0x1BA5 DUP3 PUSH2 0x1B64 JUMP JUMPDEST PUSH1 0x20 DUP3 ADD SWAP1 POP SWAP2 SWAP1 POP JUMP JUMPDEST PUSH1 0x0 PUSH1 0x20 DUP3 ADD SWAP1 POP DUP2 DUP2 SUB PUSH1 0x0 DUP4 ADD MSTORE PUSH2 0x1BC9 DUP2 PUSH2 0x1B8D JUMP JUMPDEST SWAP1 POP SWAP2 SWAP1 POP JUMP JUMPDEST PUSH32 0x4E487B7100000000000000000000000000000000000000000000000000000000 PUSH1 0x0 MSTORE PUSH1 0x11 PUSH1 0x4 MSTORE PUSH1 0x24 PUSH1 0x0 REVERT JUMPDEST PUSH1 0x0 PUSH2 0x1C0A DUP3 PUSH2 0x12A8 JUMP JUMPDEST SWAP2 POP PUSH2 0x1C15 DUP4 PUSH2 0x12A8 JUMP JUMPDEST SWAP3 POP DUP3 DUP3 LT ISZERO PUSH2 0x1C28 JUMPI PUSH2 0x1C27 PUSH2 0x1BD0 JUMP JUMPDEST JUMPDEST DUP3 DUP3 SUB SWAP1 POP SWAP3 SWAP2 POP POP JUMP JUMPDEST PUSH1 0x0 PUSH2 0x1C3E DUP3 PUSH2 0x12A8 JUMP JUMPDEST SWAP2 POP PUSH2 0x1C49 DUP4 PUSH2 0x12A8 JUMP JUMPDEST SWAP3 POP DUP2 PUSH32 0xFFFFFFFFFFFFFFFFFFFFFFFFFFFFFFFFFFFFFFFFFFFFFFFFFFFFFFFFFFFFFFFF DIV DUP4 GT DUP3 ISZERO ISZERO AND ISZERO PUSH2 0x1C82 JUMPI PUSH2 0x1C81 PUSH2 0x1BD0 JUMP JUMPDEST JUMPDEST DUP3 DUP3 MUL SWAP1 POP SWAP3 SWAP2 POP POP JUMP JUMPDEST PUSH32 0x4E487B7100000000000000000000000000000000000000000000000000000000 PUSH1 0x0 MSTORE PUSH1 0x12 PUSH1 0x4 MSTORE PUSH1 0x24 PUSH1 0x0 REVERT JUMPDEST PUSH1 0x0 PUSH2 0x1CC7 DUP3 PUSH2 0x12A8 JUMP JUMPDEST SWAP2 POP PUSH2 0x1CD2 DUP4 PUSH2 0x12A8 JUMP JUMPDEST SWAP3 POP DUP3 PUSH2 0x1CE2 JUMPI PUSH2 0x1CE1 PUSH2 0x1C8D JUMP JUMPDEST JUMPDEST DUP3 DUP3 DIV SWAP1 POP SWAP3 SWAP2 POP POP JUMP JUMPDEST PUSH32 0x4E6F7420656E6F75676820626C616E636520746F20706C616365206269640000 PUSH1 0x0 DUP3 ADD MSTORE POP JUMP JUMPDEST PUSH1 0x0 PUSH2 0x1D23 PUSH1 0x1E DUP4 PUSH2 0x159C JUMP JUMPDEST SWAP2 POP PUSH2 0x1D2E DUP3 PUSH2 0x1CED JUMP JUMPDEST PUSH1 0x20 DUP3 ADD SWAP1 POP SWAP2 SWAP1 POP JUMP JUMPDEST PUSH1 0x0 PUSH1 0x20 DUP3 ADD SWAP1 POP DUP2 DUP2 SUB PUSH1 0x0 DUP4 ADD MSTORE PUSH2 0x1D52 DUP2 PUSH2 0x1D16 JUMP JUMPDEST SWAP1 POP SWAP2 SWAP1 POP JUMP JUMPDEST PUSH1 0x0 PUSH2 0x1D64 DUP3 PUSH2 0x12A8 JUMP JUMPDEST SWAP2 POP PUSH32 0xFFFFFFFFFFFFFFFFFFFFFFFFFFFFFFFFFFFFFFFFFFFFFFFFFFFFFFFFFFFFFFFF DUP3 SUB PUSH2 0x1D96 JUMPI PUSH2 0x1D95 PUSH2 0x1BD0 JUMP JUMPDEST JUMPDEST PUSH1 0x1 DUP3 ADD SWAP1 POP SWAP2 SWAP1 POP JUMP JUMPDEST PUSH1 0x0 PUSH2 0x1DAC DUP3 PUSH2 0x12A8 JUMP JUMPDEST SWAP2 POP PUSH2 0x1DB7 DUP4 PUSH2 0x12A8 JUMP JUMPDEST SWAP3 POP DUP3 PUSH2 0x1DC7 JUMPI PUSH2 0x1DC6 PUSH2 0x1C8D JUMP JUMPDEST JUMPDEST DUP3 DUP3 MOD SWAP1 POP SWAP3 SWAP2 POP POP JUMP JUMPDEST PUSH1 0x0 PUSH2 0x1DDD DUP3 PUSH2 0x12A8 JUMP JUMPDEST SWAP2 POP PUSH2 0x1DE8 DUP4 PUSH2 0x12A8 JUMP JUMPDEST SWAP3 POP DUP3 PUSH32 0xFFFFFFFFFFFFFFFFFFFFFFFFFFFFFFFFFFFFFFFFFFFFFFFFFFFFFFFFFFFFFFFF SUB DUP3 GT ISZERO PUSH2 0x1E1D JUMPI PUSH2 0x1E1C PUSH2 0x1BD0 JUMP JUMPDEST JUMPDEST DUP3 DUP3 ADD SWAP1 POP SWAP3 SWAP2 POP POP JUMP JUMPDEST PUSH32 0x4E487B7100000000000000000000000000000000000000000000000000000000 PUSH1 0x0 MSTORE PUSH1 0x32 PUSH1 0x4 MSTORE PUSH1 0x24 PUSH1 0x0 REVERT JUMPDEST PUSH1 0x0 PUSH2 0x1E62 DUP3 PUSH2 0x1691 JUMP JUMPDEST SWAP1 POP SWAP2 SWAP1 POP JUMP JUMPDEST PUSH2 0x1E72 DUP2 PUSH2 0x1E57 JUMP JUMPDEST DUP3 MSTORE POP POP JUMP JUMPDEST PUSH1 0x0 DUP2 SWAP1 POP SWAP2 SWAP1 POP JUMP JUMPDEST PUSH1 0x0 DUP2 SWAP1 POP SWAP2 SWAP1 POP JUMP JUMPDEST PUSH1 0x0 PUSH2 0x1EA7 PUSH2 0x1EA2 PUSH2 0x1E9D DUP5 PUSH2 0x1E78 JUMP JUMPDEST PUSH2 0x1E82 JUMP JUMPDEST PUSH2 0x12A8 JUMP JUMPDEST SWAP1 POP SWAP2 SWAP1 POP JUMP JUMPDEST PUSH2 0x1EB7 DUP2 PUSH2 0x1E8C JUMP JUMPDEST DUP3 MSTORE POP POP JUMP JUMPDEST PUSH1 0x0 PUSH2 0x100 DUP3 ADD SWAP1 POP PUSH2 0x1ED3 PUSH1 0x0 DUP4 ADD DUP12 PUSH2 0x1E69 JUMP JUMPDEST PUSH2 0x1EE0 PUSH1 0x20 DUP4 ADD DUP11 PUSH2 0x163B JUMP JUMPDEST PUSH2 0x1EED PUSH1 0x40 DUP4 ADD DUP10 PUSH2 0x163B JUMP JUMPDEST PUSH2 0x1EFA PUSH1 0x60 DUP4 ADD DUP9 PUSH2 0x187C JUMP JUMPDEST PUSH2 0x1F07 PUSH1 0x80 DUP4 ADD DUP8 PUSH2 0x163B JUMP JUMPDEST PUSH2 0x1F14 PUSH1 0xA0 DUP4 ADD DUP7 PUSH2 0x1EAE JUMP JUMPDEST PUSH2 0x1F21 PUSH1 0xC0 DUP4 ADD DUP6 PUSH2 0x1EAE JUMP JUMPDEST PUSH2 0x1F2E PUSH1 0xE0 DUP4 ADD DUP5 PUSH2 0x18DC JUMP JUMPDEST SWAP10 SWAP9 POP POP POP POP POP POP POP POP POP JUMP INVALID LOG2 PUSH5 0x6970667358 0x22 SLT KECCAK256 0xC1 0xAD 0xC7 0x1E DUP13 PUSH4 0x905A5F49 MLOAD GT STATICCALL ADDMOD DUP14 COINBASE 0xF9 POP 0xD7 PUSH3 0xA795C3 EQ 0xC6 0xC2 0xC4 0xCB MSIZE 0xC1 0x2C PUSH23 0x64736F6C634300080D0033000000000000000000000000 "
				},
				"gasEstimates": {
					"creation": {
						"codeDepositCost": "1609800",
						"executionCost": "infinite",
						"totalCost": "infinite"
					},
					"external": {
						"askCount()": "2540",
						"askHead()": "2474",
						"bidCount()": "2451",
						"bidHead()": "2518",
						"cancelAsk(uint256)": "31089",
						"cancelBid(uint256)": "31110",
						"concatenate(string,string)": "infinite",
						"fetchAllBid()": "infinite",
						"fetchAsk()": "infinite",
						"fetchYourAskIds()": "infinite",
						"fetchYourBidIds()": "infinite",
						"getAskAddress(uint256)": "2982",
						"getAskState(uint256)": "2962",
						"getAskValue(uint256)": "infinite",
						"getBidAddress(uint256)": "2938",
						"getBidState(uint256)": "2961",
						"getBidValue(uint256)": "infinite",
						"getOrder(uint256)": "infinite",
						"placeAsk(uint256)": "infinite",
						"placeBid(uint256)": "809"
					},
					"internal": {
						"askBid(uint256,uint256)": "infinite",
						"createAsk(address,uint256,uint256)": "infinite",
						"createBid(address,uint256,uint256)": "infinite",
						"insertionSortAsk()": "infinite",
						"linkBid(uint256,uint256)": "infinite",
						"setAskHead(uint256)": "infinite",
						"setBidHead(uint256)": "infinite",
						"sortAsk(struct OrderBook.order memory)": "infinite"
					}
				},
				"methodIdentifiers": {
					"askCount()": "a394fda7",
					"askHead()": "801d9bbd",
					"bidCount()": "b40a5627",
					"bidHead()": "6e5b0f00",
					"cancelAsk(uint256)": "1628e0f5",
					"cancelBid(uint256)": "9703ef35",
					"concatenate(string,string)": "266001d3",
					"fetchAllBid()": "4471417f",
					"fetchAsk()": "44e791e0",
					"fetchYourAskIds()": "122de8f2",
					"fetchYourBidIds()": "ce0cdc87",
					"getAskAddress(uint256)": "734a2e78",
					"getAskState(uint256)": "4d46712d",
					"getAskValue(uint256)": "db3a1396",
					"getBidAddress(uint256)": "69f632e2",
					"getBidState(uint256)": "bf77ffae",
					"getBidValue(uint256)": "2db6dfa7",
					"getOrder(uint256)": "d09ef241",
					"placeAsk(uint256)": "78c5b268",
					"placeBid(uint256)": "9979ef45"
				}
			},
			"storageLayout": {
				"storage": [
					{
						"astId": 9,
						"contract": "contracts/OrderBook.sol:OrderBook",
						"label": "bidValues",
						"offset": 0,
						"slot": "0",
						"type": "t_mapping(t_uint256,t_uint256)"
					},
					{
						"astId": 16,
						"contract": "contracts/OrderBook.sol:OrderBook",
						"label": "_owner",
						"offset": 0,
						"slot": "1",
						"type": "t_address_payable"
					},
					{
						"astId": 18,
						"contract": "contracts/OrderBook.sol:OrderBook",
						"label": "commission",
						"offset": 0,
						"slot": "2",
						"type": "t_uint256"
					},
					{
						"astId": 39,
						"contract": "contracts/OrderBook.sol:OrderBook",
						"label": "bidBook",
						"offset": 0,
						"slot": "3",
						"type": "t_mapping(t_uint256,t_struct(order)34_storage)"
					},
					{
						"astId": 41,
						"contract": "contracts/OrderBook.sol:OrderBook",
						"label": "bidHead",
						"offset": 0,
						"slot": "4",
						"type": "t_uint256"
					},
					{
						"astId": 43,
						"contract": "contracts/OrderBook.sol:OrderBook",
						"label": "bidCount",
						"offset": 0,
						"slot": "5",
						"type": "t_uint256"
					},
					{
						"astId": 48,
						"contract": "contracts/OrderBook.sol:OrderBook",
						"label": "askBook",
						"offset": 0,
						"slot": "6",
						"type": "t_mapping(t_uint256,t_struct(order)34_storage)"
					},
					{
						"astId": 50,
						"contract": "contracts/OrderBook.sol:OrderBook",
						"label": "askHead",
						"offset": 0,
						"slot": "7",
						"type": "t_uint256"
					},
					{
						"astId": 52,
						"contract": "contracts/OrderBook.sol:OrderBook",
						"label": "askCount",
						"offset": 0,
						"slot": "8",
						"type": "t_uint256"
					}
				],
				"types": {
					"t_address_payable": {
						"encoding": "inplace",
						"label": "address payable",
						"numberOfBytes": "20"
					},
					"t_enum(State)5": {
						"encoding": "inplace",
						"label": "enum OrderBook.State",
						"numberOfBytes": "1"
					},
					"t_mapping(t_uint256,t_struct(order)34_storage)": {
						"encoding": "mapping",
						"key": "t_uint256",
						"label": "mapping(uint256 => struct OrderBook.order)",
						"numberOfBytes": "32",
						"value": "t_struct(order)34_storage"
					},
					"t_mapping(t_uint256,t_uint256)": {
						"encoding": "mapping",
						"key": "t_uint256",
						"label": "mapping(uint256 => uint256)",
						"numberOfBytes": "32",
						"value": "t_uint256"
					},
					"t_struct(order)34_storage": {
						"encoding": "inplace",
						"label": "struct OrderBook.order",
						"members": [
							{
								"astId": 20,
								"contract": "contracts/OrderBook.sol:OrderBook",
								"label": "customer",
								"offset": 0,
								"slot": "0",
								"type": "t_address_payable"
							},
							{
								"astId": 22,
								"contract": "contracts/OrderBook.sol:OrderBook",
								"label": "value",
								"offset": 0,
								"slot": "1",
								"type": "t_uint256"
							},
							{
								"astId": 24,
								"contract": "contracts/OrderBook.sol:OrderBook",
								"label": "timestamp",
								"offset": 0,
								"slot": "2",
								"type": "t_uint256"
							},
							{
								"astId": 27,
								"contract": "contracts/OrderBook.sol:OrderBook",
								"label": "state",
								"offset": 0,
								"slot": "3",
								"type": "t_enum(State)5"
							},
							{
								"astId": 29,
								"contract": "contracts/OrderBook.sol:OrderBook",
								"label": "id",
								"offset": 0,
								"slot": "4",
								"type": "t_uint256"
							},
							{
								"astId": 31,
								"contract": "contracts/OrderBook.sol:OrderBook",
								"label": "next",
								"offset": 0,
								"slot": "5",
								"type": "t_uint256"
							},
							{
								"astId": 33,
								"contract": "contracts/OrderBook.sol:OrderBook",
								"label": "prev",
								"offset": 0,
								"slot": "6",
								"type": "t_uint256"
							}
						],
						"numberOfBytes": "224"
					},
					"t_uint256": {
						"encoding": "inplace",
						"label": "uint256",
						"numberOfBytes": "32"
					}
				}
			},
			"userdoc": {
				"kind": "user",
				"methods": {},
				"version": 1
			}
		}
	}
}