{
	"contracts/OrderBook.sol": {
		"OrderBook": {
			"abi": [
				{
					"anonymous": false,
					"inputs": [
						{
							"indexed": false,
							"internalType": "uint256",
							"name": "",
							"type": "uint256"
						}
					],
					"name": "askCancelled",
					"type": "event"
				},
				{
					"anonymous": false,
					"inputs": [
						{
							"indexed": false,
							"internalType": "address",
							"name": "",
							"type": "address"
						},
						{
							"indexed": false,
							"internalType": "uint256",
							"name": "",
							"type": "uint256"
						},
						{
							"indexed": false,
							"internalType": "uint256",
							"name": "",
							"type": "uint256"
						},
						{
							"indexed": false,
							"internalType": "enum OrderBook.State",
							"name": "",
							"type": "uint8"
						}
					],
					"name": "askPlaced",
					"type": "event"
				},
				{
					"anonymous": false,
					"inputs": [
						{
							"indexed": false,
							"internalType": "uint256",
							"name": "",
							"type": "uint256"
						}
					],
					"name": "bidCancelled",
					"type": "event"
				},
				{
					"anonymous": false,
					"inputs": [
						{
							"indexed": false,
							"internalType": "address",
							"name": "",
							"type": "address"
						},
						{
							"indexed": false,
							"internalType": "uint256",
							"name": "",
							"type": "uint256"
						},
						{
							"indexed": false,
							"internalType": "uint256",
							"name": "",
							"type": "uint256"
						},
						{
							"indexed": false,
							"internalType": "enum OrderBook.State",
							"name": "",
							"type": "uint8"
						}
					],
					"name": "bidPlaced",
					"type": "event"
				},
				{
					"inputs": [
						{
							"internalType": "uint256",
							"name": "askId",
							"type": "uint256"
						}
					],
					"name": "cancelAsk",
					"outputs": [],
					"stateMutability": "nonpayable",
					"type": "function"
				},
				{
					"inputs": [
						{
							"internalType": "uint256",
							"name": "bidId",
							"type": "uint256"
						}
					],
					"name": "cancelBid",
					"outputs": [],
					"stateMutability": "nonpayable",
					"type": "function"
				},
				{
					"inputs": [],
					"name": "fetchAllAsk",
					"outputs": [
						{
							"components": [
								{
									"internalType": "address payable",
									"name": "customer",
									"type": "address"
								},
								{
									"internalType": "uint256",
									"name": "price",
									"type": "uint256"
								},
								{
									"internalType": "uint256",
									"name": "timestamp",
									"type": "uint256"
								},
								{
									"internalType": "enum OrderBook.State",
									"name": "state",
									"type": "uint8"
								}
							],
							"internalType": "struct OrderBook.order[]",
							"name": "",
							"type": "tuple[]"
						}
					],
					"stateMutability": "view",
					"type": "function"
				},
				{
					"inputs": [],
					"name": "fetchAllBid",
					"outputs": [
						{
							"components": [
								{
									"internalType": "address payable",
									"name": "customer",
									"type": "address"
								},
								{
									"internalType": "uint256",
									"name": "price",
									"type": "uint256"
								},
								{
									"internalType": "uint256",
									"name": "timestamp",
									"type": "uint256"
								},
								{
									"internalType": "enum OrderBook.State",
									"name": "state",
									"type": "uint8"
								}
							],
							"internalType": "struct OrderBook.order[]",
							"name": "",
							"type": "tuple[]"
						}
					],
					"stateMutability": "view",
					"type": "function"
				},
				{
					"inputs": [],
					"name": "fetchYourAskIds",
					"outputs": [
						{
							"internalType": "uint256[]",
							"name": "",
							"type": "uint256[]"
						}
					],
					"stateMutability": "nonpayable",
					"type": "function"
				},
				{
					"inputs": [],
					"name": "fetchYourBidIds",
					"outputs": [
						{
							"internalType": "uint256[]",
							"name": "",
							"type": "uint256[]"
						}
					],
					"stateMutability": "nonpayable",
					"type": "function"
				},
				{
					"inputs": [
						{
							"internalType": "uint256",
							"name": "price",
							"type": "uint256"
						}
					],
					"name": "placeAsk",
					"outputs": [],
					"stateMutability": "nonpayable",
					"type": "function"
				},
				{
					"inputs": [
						{
							"internalType": "uint256",
							"name": "price",
							"type": "uint256"
						}
					],
					"name": "placeBid",
					"outputs": [],
					"stateMutability": "nonpayable",
					"type": "function"
				}
			],
			"devdoc": {
				"kind": "dev",
				"methods": {},
				"version": 1
			},
			"evm": {
				"assembly": "    /* \"contracts/OrderBook.sol\":730:4861  contract OrderBook {... */\n  mstore(0x40, 0x80)\n  callvalue\n  dup1\n  iszero\n  tag_1\n  jumpi\n  0x00\n  dup1\n  revert\ntag_1:\n  pop\n  dataSize(sub_0)\n  dup1\n  dataOffset(sub_0)\n  0x00\n  codecopy\n  0x00\n  return\nstop\n\nsub_0: assembly {\n        /* \"contracts/OrderBook.sol\":730:4861  contract OrderBook {... */\n      mstore(0x40, 0x80)\n      callvalue\n      dup1\n      iszero\n      tag_1\n      jumpi\n      0x00\n      dup1\n      revert\n    tag_1:\n      pop\n      jumpi(tag_2, lt(calldatasize, 0x04))\n      shr(0xe0, calldataload(0x00))\n      dup1\n      0x9703ef35\n      gt\n      tag_11\n      jumpi\n      dup1\n      0x9703ef35\n      eq\n      tag_7\n      jumpi\n      dup1\n      0x9979ef45\n      eq\n      tag_8\n      jumpi\n      dup1\n      0xc5374af2\n      eq\n      tag_9\n      jumpi\n      dup1\n      0xce0cdc87\n      eq\n      tag_10\n      jumpi\n      jump(tag_2)\n    tag_11:\n      dup1\n      0x122de8f2\n      eq\n      tag_3\n      jumpi\n      dup1\n      0x1628e0f5\n      eq\n      tag_4\n      jumpi\n      dup1\n      0x4471417f\n      eq\n      tag_5\n      jumpi\n      dup1\n      0x78c5b268\n      eq\n      tag_6\n      jumpi\n    tag_2:\n      0x00\n      dup1\n      revert\n        /* \"contracts/OrderBook.sol\":4575:4858  function fetchYourAskIds() public returns (uint[] memory) {... */\n    tag_3:\n      tag_12\n      tag_13\n      jump\t// in\n    tag_12:\n      mload(0x40)\n      tag_14\n      swap2\n      swap1\n      tag_15\n      jump\t// in\n    tag_14:\n      mload(0x40)\n      dup1\n      swap2\n      sub\n      swap1\n      return\n        /* \"contracts/OrderBook.sol\":3917:4086  function cancelAsk (uint askId) public isPending(askBook[askId]) isAuthorised(askBook[askId], msg.sender) {... */\n    tag_4:\n      tag_16\n      0x04\n      dup1\n      calldatasize\n      sub\n      dup2\n      add\n      swap1\n      tag_17\n      swap2\n      swap1\n      tag_18\n      jump\t// in\n    tag_17:\n      tag_19\n      jump\t// in\n    tag_16:\n      stop\n        /* \"contracts/OrderBook.sol\":4092:4183  function fetchAllBid() public view returns (order[] memory) {... */\n    tag_5:\n      tag_20\n      tag_21\n      jump\t// in\n    tag_20:\n      mload(0x40)\n      tag_22\n      swap2\n      swap1\n      tag_23\n      jump\t// in\n    tag_22:\n      mload(0x40)\n      dup1\n      swap2\n      sub\n      swap1\n      return\n        /* \"contracts/OrderBook.sol\":3739:3911  function placeAsk (uint256 price) public {... */\n    tag_6:\n      tag_24\n      0x04\n      dup1\n      calldatasize\n      sub\n      dup2\n      add\n      swap1\n      tag_25\n      swap2\n      swap1\n      tag_18\n      jump\t// in\n    tag_25:\n      tag_26\n      jump\t// in\n    tag_24:\n      stop\n        /* \"contracts/OrderBook.sol\":3536:3733  function cancelBid (uint bidId) public isPending(bidBook[bidId]) isAuthorised(bidBook[bidId], msg.sender) {... */\n    tag_7:\n      tag_27\n      0x04\n      dup1\n      calldatasize\n      sub\n      dup2\n      add\n      swap1\n      tag_28\n      swap2\n      swap1\n      tag_18\n      jump\t// in\n    tag_28:\n      tag_29\n      jump\t// in\n    tag_27:\n      stop\n        /* \"contracts/OrderBook.sol\":3335:3507  function placeBid (uint256 price) public {... */\n    tag_8:\n      tag_30\n      0x04\n      dup1\n      calldatasize\n      sub\n      dup2\n      add\n      swap1\n      tag_31\n      swap2\n      swap1\n      tag_18\n      jump\t// in\n    tag_31:\n      tag_32\n      jump\t// in\n    tag_30:\n      stop\n        /* \"contracts/OrderBook.sol\":4189:4280  function fetchAllAsk() public view returns (order[] memory) {... */\n    tag_9:\n      tag_33\n      tag_34\n      jump\t// in\n    tag_33:\n      mload(0x40)\n      tag_35\n      swap2\n      swap1\n      tag_23\n      jump\t// in\n    tag_35:\n      mload(0x40)\n      dup1\n      swap2\n      sub\n      swap1\n      return\n        /* \"contracts/OrderBook.sol\":4286:4569  function fetchYourBidIds() public returns (uint[] memory) {... */\n    tag_10:\n      tag_36\n      tag_37\n      jump\t// in\n    tag_36:\n      mload(0x40)\n      tag_38\n      swap2\n      swap1\n      tag_15\n      jump\t// in\n    tag_38:\n      mload(0x40)\n      dup1\n      swap2\n      sub\n      swap1\n      return\n        /* \"contracts/OrderBook.sol\":4575:4858  function fetchYourAskIds() public returns (uint[] memory) {... */\n    tag_13:\n        /* \"contracts/OrderBook.sol\":4618:4631  uint[] memory */\n      0x60\n        /* \"contracts/OrderBook.sol\":4643:4656  deleteArray() */\n      tag_40\n        /* \"contracts/OrderBook.sol\":4643:4654  deleteArray */\n      tag_41\n        /* \"contracts/OrderBook.sol\":4643:4656  deleteArray() */\n      jump\t// in\n    tag_40:\n        /* \"contracts/OrderBook.sol\":4671:4677  uint i */\n      0x00\n        /* \"contracts/OrderBook.sol\":4666:4828  for (uint i = 0; i < askBook.length; i++) {... */\n    tag_42:\n        /* \"contracts/OrderBook.sol\":4687:4694  askBook */\n      0x01\n        /* \"contracts/OrderBook.sol\":4687:4701  askBook.length */\n      dup1\n      sload\n      swap1\n      pop\n        /* \"contracts/OrderBook.sol\":4683:4684  i */\n      dup2\n        /* \"contracts/OrderBook.sol\":4683:4701  i < askBook.length */\n      lt\n        /* \"contracts/OrderBook.sol\":4666:4828  for (uint i = 0; i < askBook.length; i++) {... */\n      iszero\n      tag_43\n      jumpi\n        /* \"contracts/OrderBook.sol\":4757:4767  msg.sender */\n      caller\n        /* \"contracts/OrderBook.sol\":4726:4768  askBook[i].customer == payable(msg.sender) */\n      0xffffffffffffffffffffffffffffffffffffffff\n      and\n        /* \"contracts/OrderBook.sol\":4726:4733  askBook */\n      0x01\n        /* \"contracts/OrderBook.sol\":4734:4735  i */\n      dup3\n        /* \"contracts/OrderBook.sol\":4726:4736  askBook[i] */\n      dup2\n      sload\n      dup2\n      lt\n      tag_45\n      jumpi\n      tag_46\n      tag_47\n      jump\t// in\n    tag_46:\n    tag_45:\n      swap1\n      0x00\n      mstore\n      keccak256(0x00, 0x20)\n      swap1\n      0x04\n      mul\n      add\n        /* \"contracts/OrderBook.sol\":4726:4745  askBook[i].customer */\n      0x00\n      add\n      0x00\n      swap1\n      sload\n      swap1\n      0x0100\n      exp\n      swap1\n      div\n      0xffffffffffffffffffffffffffffffffffffffff\n      and\n        /* \"contracts/OrderBook.sol\":4726:4768  askBook[i].customer == payable(msg.sender) */\n      0xffffffffffffffffffffffffffffffffffffffff\n      and\n      sub\n        /* \"contracts/OrderBook.sol\":4722:4818  if (askBook[i].customer == payable(msg.sender)) {... */\n      tag_49\n      jumpi\n        /* \"contracts/OrderBook.sol\":4788:4795  request */\n      0x02\n        /* \"contracts/OrderBook.sol\":4801:4802  i */\n      dup2\n        /* \"contracts/OrderBook.sol\":4788:4803  request.push(i) */\n      swap1\n      dup1\n      0x01\n      dup2\n      sload\n      add\n      dup1\n      dup3\n      sstore\n      dup1\n      swap2\n      pop\n      pop\n      0x01\n      swap1\n      sub\n      swap1\n      0x00\n      mstore\n      keccak256(0x00, 0x20)\n      add\n      0x00\n      swap1\n      swap2\n      swap1\n      swap2\n      swap1\n      swap2\n      pop\n      sstore\n        /* \"contracts/OrderBook.sol\":4722:4818  if (askBook[i].customer == payable(msg.sender)) {... */\n    tag_49:\n        /* \"contracts/OrderBook.sol\":4703:4706  i++ */\n      dup1\n      dup1\n      tag_51\n      swap1\n      tag_52\n      jump\t// in\n    tag_51:\n      swap2\n      pop\n      pop\n        /* \"contracts/OrderBook.sol\":4666:4828  for (uint i = 0; i < askBook.length; i++) {... */\n      jump(tag_42)\n    tag_43:\n      pop\n        /* \"contracts/OrderBook.sol\":4844:4851  request */\n      0x02\n        /* \"contracts/OrderBook.sol\":4837:4851  return request */\n      dup1\n      sload\n      dup1\n      0x20\n      mul\n      0x20\n      add\n      mload(0x40)\n      swap1\n      dup2\n      add\n      0x40\n      mstore\n      dup1\n      swap3\n      swap2\n      swap1\n      dup2\n      dup2\n      mstore\n      0x20\n      add\n      dup3\n      dup1\n      sload\n      dup1\n      iszero\n      tag_53\n      jumpi\n      0x20\n      mul\n      dup3\n      add\n      swap2\n      swap1\n      0x00\n      mstore\n      keccak256(0x00, 0x20)\n      swap1\n    tag_54:\n      dup2\n      sload\n      dup2\n      mstore\n      0x20\n      add\n      swap1\n      0x01\n      add\n      swap1\n      dup1\n      dup4\n      gt\n      tag_54\n      jumpi\n    tag_53:\n      pop\n      pop\n      pop\n      pop\n      pop\n      swap1\n      pop\n        /* \"contracts/OrderBook.sol\":4575:4858  function fetchYourAskIds() public returns (uint[] memory) {... */\n      swap1\n      jump\t// out\n        /* \"contracts/OrderBook.sol\":3917:4086  function cancelAsk (uint askId) public isPending(askBook[askId]) isAuthorised(askBook[askId], msg.sender) {... */\n    tag_19:\n        /* \"contracts/OrderBook.sol\":3966:3973  askBook */\n      0x01\n        /* \"contracts/OrderBook.sol\":3974:3979  askId */\n      dup2\n        /* \"contracts/OrderBook.sol\":3966:3980  askBook[askId] */\n      dup2\n      sload\n      dup2\n      lt\n      tag_55\n      jumpi\n      tag_56\n      tag_47\n      jump\t// in\n    tag_56:\n    tag_55:\n      swap1\n      0x00\n      mstore\n      keccak256(0x00, 0x20)\n      swap1\n      0x04\n      mul\n      add\n        /* \"contracts/OrderBook.sol\":1250:1373  modifier isPending(order memory _order) {... */\n      mload(0x40)\n      dup1\n      0x80\n      add\n      0x40\n      mstore\n      swap1\n      dup2\n      0x00\n      dup3\n      add\n      0x00\n      swap1\n      sload\n      swap1\n      0x0100\n      exp\n      swap1\n      div\n      0xffffffffffffffffffffffffffffffffffffffff\n      and\n      0xffffffffffffffffffffffffffffffffffffffff\n      and\n      0xffffffffffffffffffffffffffffffffffffffff\n      and\n      dup2\n      mstore\n      0x20\n      add\n      0x01\n      dup3\n      add\n      sload\n      dup2\n      mstore\n      0x20\n      add\n      0x02\n      dup3\n      add\n      sload\n      dup2\n      mstore\n      0x20\n      add\n      0x03\n      dup3\n      add\n      0x00\n      swap1\n      sload\n      swap1\n      0x0100\n      exp\n      swap1\n      div\n      0xff\n      and\n      0x01\n      dup2\n      gt\n      iszero\n      tag_58\n      jumpi\n      tag_59\n      tag_60\n      jump\t// in\n    tag_59:\n    tag_58:\n      0x01\n      dup2\n      gt\n      iszero\n      tag_61\n      jumpi\n      tag_62\n      tag_60\n      jump\t// in\n    tag_62:\n    tag_61:\n      dup2\n      mstore\n      pop\n      pop\n        /* \"contracts/OrderBook.sol\":1324:1337  State.pending */\n      0x00\n        /* \"contracts/OrderBook.sol\":1308:1337  _order.state == State.pending */\n      0x01\n      dup2\n      gt\n      iszero\n      tag_64\n      jumpi\n      tag_65\n      tag_60\n      jump\t// in\n    tag_65:\n    tag_64:\n        /* \"contracts/OrderBook.sol\":1308:1314  _order */\n      dup2\n        /* \"contracts/OrderBook.sol\":1308:1320  _order.state */\n      0x60\n      add\n      mload\n        /* \"contracts/OrderBook.sol\":1308:1337  _order.state == State.pending */\n      0x01\n      dup2\n      gt\n      iszero\n      tag_66\n      jumpi\n      tag_67\n      tag_60\n      jump\t// in\n    tag_67:\n    tag_66:\n      eq\n        /* \"contracts/OrderBook.sol\":1300:1355  require(_order.state == State.pending, \"Order Pending\") */\n      tag_68\n      jumpi\n      mload(0x40)\n      0x08c379a000000000000000000000000000000000000000000000000000000000\n      dup2\n      mstore\n      0x04\n      add\n      tag_69\n      swap1\n      tag_70\n      jump\t// in\n    tag_69:\n      mload(0x40)\n      dup1\n      swap2\n      sub\n      swap1\n      revert\n    tag_68:\n        /* \"contracts/OrderBook.sol\":3995:4002  askBook */\n      0x01\n        /* \"contracts/OrderBook.sol\":4003:4008  askId */\n      dup3\n        /* \"contracts/OrderBook.sol\":3995:4009  askBook[askId] */\n      dup2\n      sload\n      dup2\n      lt\n      tag_71\n      jumpi\n      tag_72\n      tag_47\n      jump\t// in\n    tag_72:\n    tag_71:\n      swap1\n      0x00\n      mstore\n      keccak256(0x00, 0x20)\n      swap1\n      0x04\n      mul\n      add\n        /* \"contracts/OrderBook.sol\":1379:1526  modifier isAuthorised(order memory _order, address sender) {... */\n      mload(0x40)\n      dup1\n      0x80\n      add\n      0x40\n      mstore\n      swap1\n      dup2\n      0x00\n      dup3\n      add\n      0x00\n      swap1\n      sload\n      swap1\n      0x0100\n      exp\n      swap1\n      div\n      0xffffffffffffffffffffffffffffffffffffffff\n      and\n      0xffffffffffffffffffffffffffffffffffffffff\n      and\n      0xffffffffffffffffffffffffffffffffffffffff\n      and\n      dup2\n      mstore\n      0x20\n      add\n      0x01\n      dup3\n      add\n      sload\n      dup2\n      mstore\n      0x20\n      add\n      0x02\n      dup3\n      add\n      sload\n      dup2\n      mstore\n      0x20\n      add\n      0x03\n      dup3\n      add\n      0x00\n      swap1\n      sload\n      swap1\n      0x0100\n      exp\n      swap1\n      div\n      0xff\n      and\n      0x01\n      dup2\n      gt\n      iszero\n      tag_74\n      jumpi\n      tag_75\n      tag_60\n      jump\t// in\n    tag_75:\n    tag_74:\n      0x01\n      dup2\n      gt\n      iszero\n      tag_76\n      jumpi\n      tag_77\n      tag_60\n      jump\t// in\n    tag_77:\n    tag_76:\n      dup2\n      mstore\n      pop\n      pop\n        /* \"contracts/OrderBook.sol\":4011:4021  msg.sender */\n      caller\n        /* \"contracts/OrderBook.sol\":1483:1489  sender */\n      dup1\n        /* \"contracts/OrderBook.sol\":1456:1490  _order.customer == payable(sender) */\n      0xffffffffffffffffffffffffffffffffffffffff\n      and\n        /* \"contracts/OrderBook.sol\":1456:1462  _order */\n      dup3\n        /* \"contracts/OrderBook.sol\":1456:1471  _order.customer */\n      0x00\n      add\n      mload\n        /* \"contracts/OrderBook.sol\":1456:1490  _order.customer == payable(sender) */\n      0xffffffffffffffffffffffffffffffffffffffff\n      and\n      eq\n        /* \"contracts/OrderBook.sol\":1448:1508  require(_order.customer == payable(sender), \"Order Pending\") */\n      tag_79\n      jumpi\n      mload(0x40)\n      0x08c379a000000000000000000000000000000000000000000000000000000000\n      dup2\n      mstore\n      0x04\n      add\n      tag_80\n      swap1\n      tag_70\n      jump\t// in\n    tag_80:\n      mload(0x40)\n      dup1\n      swap2\n      sub\n      swap1\n      revert\n    tag_79:\n        /* \"contracts/OrderBook.sol\":4040:4047  askBook */\n      0x01\n        /* \"contracts/OrderBook.sol\":4048:4053  askId */\n      dup5\n        /* \"contracts/OrderBook.sol\":4040:4054  askBook[askId] */\n      dup2\n      sload\n      dup2\n      lt\n      tag_82\n      jumpi\n      tag_83\n      tag_47\n      jump\t// in\n    tag_83:\n    tag_82:\n      swap1\n      0x00\n      mstore\n      keccak256(0x00, 0x20)\n      swap1\n      0x04\n      mul\n      add\n      0x00\n        /* \"contracts/OrderBook.sol\":4033:4054  delete askBook[askId] */\n      dup1\n      dup3\n      add\n      exp(0x0100, 0x00)\n      dup2\n      sload\n      swap1\n      0xffffffffffffffffffffffffffffffffffffffff\n      mul\n      not\n      and\n      swap1\n      sstore\n      0x01\n      dup3\n      add\n      0x00\n      swap1\n      sstore\n      0x02\n      dup3\n      add\n      0x00\n      swap1\n      sstore\n      0x03\n      dup3\n      add\n      exp(0x0100, 0x00)\n      dup2\n      sload\n      swap1\n      0xff\n      mul\n      not\n      and\n      swap1\n      sstore\n      pop\n      pop\n        /* \"contracts/OrderBook.sol\":4064:4073  sortAsk() */\n      tag_85\n        /* \"contracts/OrderBook.sol\":4064:4071  sortAsk */\n      tag_86\n        /* \"contracts/OrderBook.sol\":4064:4073  sortAsk() */\n      jump\t// in\n    tag_85:\n        /* \"contracts/OrderBook.sol\":1365:1366  _ */\n      pop\n      pop\n        /* \"contracts/OrderBook.sol\":3917:4086  function cancelAsk (uint askId) public isPending(askBook[askId]) isAuthorised(askBook[askId], msg.sender) {... */\n      pop\n      pop\n      jump\t// out\n        /* \"contracts/OrderBook.sol\":4092:4183  function fetchAllBid() public view returns (order[] memory) {... */\n    tag_21:\n        /* \"contracts/OrderBook.sol\":4136:4150  order[] memory */\n      0x60\n        /* \"contracts/OrderBook.sol\":4169:4176  bidBook */\n      0x00\n        /* \"contracts/OrderBook.sol\":4162:4176  return bidBook */\n      dup1\n      sload\n      dup1\n      0x20\n      mul\n      0x20\n      add\n      mload(0x40)\n      swap1\n      dup2\n      add\n      0x40\n      mstore\n      dup1\n      swap3\n      swap2\n      swap1\n      dup2\n      dup2\n      mstore\n      0x20\n      add\n      0x00\n      swap1\n    tag_88:\n      dup3\n      dup3\n      lt\n      iszero\n      tag_89\n      jumpi\n      dup4\n      dup3\n      swap1\n      0x00\n      mstore\n      keccak256(0x00, 0x20)\n      swap1\n      0x04\n      mul\n      add\n      mload(0x40)\n      dup1\n      0x80\n      add\n      0x40\n      mstore\n      swap1\n      dup2\n      0x00\n      dup3\n      add\n      0x00\n      swap1\n      sload\n      swap1\n      0x0100\n      exp\n      swap1\n      div\n      0xffffffffffffffffffffffffffffffffffffffff\n      and\n      0xffffffffffffffffffffffffffffffffffffffff\n      and\n      0xffffffffffffffffffffffffffffffffffffffff\n      and\n      dup2\n      mstore\n      0x20\n      add\n      0x01\n      dup3\n      add\n      sload\n      dup2\n      mstore\n      0x20\n      add\n      0x02\n      dup3\n      add\n      sload\n      dup2\n      mstore\n      0x20\n      add\n      0x03\n      dup3\n      add\n      0x00\n      swap1\n      sload\n      swap1\n      0x0100\n      exp\n      swap1\n      div\n      0xff\n      and\n      0x01\n      dup2\n      gt\n      iszero\n      tag_91\n      jumpi\n      tag_92\n      tag_60\n      jump\t// in\n    tag_92:\n    tag_91:\n      0x01\n      dup2\n      gt\n      iszero\n      tag_93\n      jumpi\n      tag_94\n      tag_60\n      jump\t// in\n    tag_94:\n    tag_93:\n      dup2\n      mstore\n      pop\n      pop\n      dup2\n      mstore\n      0x20\n      add\n      swap1\n      0x01\n      add\n      swap1\n      jump(tag_88)\n    tag_89:\n      pop\n      pop\n      pop\n      pop\n      swap1\n      pop\n        /* \"contracts/OrderBook.sol\":4092:4183  function fetchAllBid() public view returns (order[] memory) {... */\n      swap1\n      jump\t// out\n        /* \"contracts/OrderBook.sol\":3739:3911  function placeAsk (uint256 price) public {... */\n    tag_26:\n        /* \"contracts/OrderBook.sol\":3790:3809  order memory newBid */\n      0x00\n        /* \"contracts/OrderBook.sol\":3812:3874  order(payable(msg.sender),price,block.timestamp,State.pending) */\n      mload(0x40)\n      dup1\n      0x80\n      add\n      0x40\n      mstore\n      dup1\n        /* \"contracts/OrderBook.sol\":3826:3836  msg.sender */\n      caller\n        /* \"contracts/OrderBook.sol\":3812:3874  order(payable(msg.sender),price,block.timestamp,State.pending) */\n      0xffffffffffffffffffffffffffffffffffffffff\n      and\n      dup2\n      mstore\n      0x20\n      add\n        /* \"contracts/OrderBook.sol\":3838:3843  price */\n      dup4\n        /* \"contracts/OrderBook.sol\":3812:3874  order(payable(msg.sender),price,block.timestamp,State.pending) */\n      dup2\n      mstore\n      0x20\n      add\n        /* \"contracts/OrderBook.sol\":3844:3859  block.timestamp */\n      timestamp\n        /* \"contracts/OrderBook.sol\":3812:3874  order(payable(msg.sender),price,block.timestamp,State.pending) */\n      dup2\n      mstore\n      0x20\n      add\n        /* \"contracts/OrderBook.sol\":3860:3873  State.pending */\n      0x00\n        /* \"contracts/OrderBook.sol\":3812:3874  order(payable(msg.sender),price,block.timestamp,State.pending) */\n      0x01\n      dup2\n      gt\n      iszero\n      tag_96\n      jumpi\n      tag_97\n      tag_60\n      jump\t// in\n    tag_97:\n    tag_96:\n      dup2\n      mstore\n      pop\n        /* \"contracts/OrderBook.sol\":3790:3874  order memory newBid = order(payable(msg.sender),price,block.timestamp,State.pending) */\n      swap1\n      pop\n        /* \"contracts/OrderBook.sol\":3884:3891  askBook */\n      0x01\n        /* \"contracts/OrderBook.sol\":3897:3903  newBid */\n      dup2\n        /* \"contracts/OrderBook.sol\":3884:3904  askBook.push(newBid) */\n      swap1\n      dup1\n      0x01\n      dup2\n      sload\n      add\n      dup1\n      dup3\n      sstore\n      dup1\n      swap2\n      pop\n      pop\n      0x01\n      swap1\n      sub\n      swap1\n      0x00\n      mstore\n      keccak256(0x00, 0x20)\n      swap1\n      0x04\n      mul\n      add\n      0x00\n      swap1\n      swap2\n      swap1\n      swap2\n      swap1\n      swap2\n      pop\n      0x00\n      dup3\n      add\n      mload\n      dup2\n      0x00\n      add\n      exp(0x0100, 0x00)\n      dup2\n      sload\n      dup2\n      0xffffffffffffffffffffffffffffffffffffffff\n      mul\n      not\n      and\n      swap1\n      dup4\n      0xffffffffffffffffffffffffffffffffffffffff\n      and\n      mul\n      or\n      swap1\n      sstore\n      pop\n      0x20\n      dup3\n      add\n      mload\n      dup2\n      0x01\n      add\n      sstore\n      0x40\n      dup3\n      add\n      mload\n      dup2\n      0x02\n      add\n      sstore\n      0x60\n      dup3\n      add\n      mload\n      dup2\n      0x03\n      add\n      exp(0x0100, 0x00)\n      dup2\n      sload\n      dup2\n      0xff\n      mul\n      not\n      and\n      swap1\n      dup4\n      0x01\n      dup2\n      gt\n      iszero\n      tag_99\n      jumpi\n      tag_100\n      tag_60\n      jump\t// in\n    tag_100:\n    tag_99:\n      mul\n      or\n      swap1\n      sstore\n      pop\n      pop\n      pop\n        /* \"contracts/OrderBook.sol\":3780:3911  {... */\n      pop\n        /* \"contracts/OrderBook.sol\":3739:3911  function placeAsk (uint256 price) public {... */\n      pop\n      jump\t// out\n        /* \"contracts/OrderBook.sol\":3536:3733  function cancelBid (uint bidId) public isPending(bidBook[bidId]) isAuthorised(bidBook[bidId], msg.sender) {... */\n    tag_29:\n        /* \"contracts/OrderBook.sol\":3585:3592  bidBook */\n      0x00\n        /* \"contracts/OrderBook.sol\":3593:3598  bidId */\n      dup2\n        /* \"contracts/OrderBook.sol\":3585:3599  bidBook[bidId] */\n      dup2\n      sload\n      dup2\n      lt\n      tag_101\n      jumpi\n      tag_102\n      tag_47\n      jump\t// in\n    tag_102:\n    tag_101:\n      swap1\n      0x00\n      mstore\n      keccak256(0x00, 0x20)\n      swap1\n      0x04\n      mul\n      add\n        /* \"contracts/OrderBook.sol\":1250:1373  modifier isPending(order memory _order) {... */\n      mload(0x40)\n      dup1\n      0x80\n      add\n      0x40\n      mstore\n      swap1\n      dup2\n      0x00\n      dup3\n      add\n      0x00\n      swap1\n      sload\n      swap1\n      0x0100\n      exp\n      swap1\n      div\n      0xffffffffffffffffffffffffffffffffffffffff\n      and\n      0xffffffffffffffffffffffffffffffffffffffff\n      and\n      0xffffffffffffffffffffffffffffffffffffffff\n      and\n      dup2\n      mstore\n      0x20\n      add\n      0x01\n      dup3\n      add\n      sload\n      dup2\n      mstore\n      0x20\n      add\n      0x02\n      dup3\n      add\n      sload\n      dup2\n      mstore\n      0x20\n      add\n      0x03\n      dup3\n      add\n      0x00\n      swap1\n      sload\n      swap1\n      0x0100\n      exp\n      swap1\n      div\n      0xff\n      and\n      0x01\n      dup2\n      gt\n      iszero\n      tag_104\n      jumpi\n      tag_105\n      tag_60\n      jump\t// in\n    tag_105:\n    tag_104:\n      0x01\n      dup2\n      gt\n      iszero\n      tag_106\n      jumpi\n      tag_107\n      tag_60\n      jump\t// in\n    tag_107:\n    tag_106:\n      dup2\n      mstore\n      pop\n      pop\n        /* \"contracts/OrderBook.sol\":1324:1337  State.pending */\n      0x00\n        /* \"contracts/OrderBook.sol\":1308:1337  _order.state == State.pending */\n      0x01\n      dup2\n      gt\n      iszero\n      tag_109\n      jumpi\n      tag_110\n      tag_60\n      jump\t// in\n    tag_110:\n    tag_109:\n        /* \"contracts/OrderBook.sol\":1308:1314  _order */\n      dup2\n        /* \"contracts/OrderBook.sol\":1308:1320  _order.state */\n      0x60\n      add\n      mload\n        /* \"contracts/OrderBook.sol\":1308:1337  _order.state == State.pending */\n      0x01\n      dup2\n      gt\n      iszero\n      tag_111\n      jumpi\n      tag_112\n      tag_60\n      jump\t// in\n    tag_112:\n    tag_111:\n      eq\n        /* \"contracts/OrderBook.sol\":1300:1355  require(_order.state == State.pending, \"Order Pending\") */\n      tag_113\n      jumpi\n      mload(0x40)\n      0x08c379a000000000000000000000000000000000000000000000000000000000\n      dup2\n      mstore\n      0x04\n      add\n      tag_114\n      swap1\n      tag_70\n      jump\t// in\n    tag_114:\n      mload(0x40)\n      dup1\n      swap2\n      sub\n      swap1\n      revert\n    tag_113:\n        /* \"contracts/OrderBook.sol\":3614:3621  bidBook */\n      0x00\n        /* \"contracts/OrderBook.sol\":3622:3627  bidId */\n      dup3\n        /* \"contracts/OrderBook.sol\":3614:3628  bidBook[bidId] */\n      dup2\n      sload\n      dup2\n      lt\n      tag_115\n      jumpi\n      tag_116\n      tag_47\n      jump\t// in\n    tag_116:\n    tag_115:\n      swap1\n      0x00\n      mstore\n      keccak256(0x00, 0x20)\n      swap1\n      0x04\n      mul\n      add\n        /* \"contracts/OrderBook.sol\":1379:1526  modifier isAuthorised(order memory _order, address sender) {... */\n      mload(0x40)\n      dup1\n      0x80\n      add\n      0x40\n      mstore\n      swap1\n      dup2\n      0x00\n      dup3\n      add\n      0x00\n      swap1\n      sload\n      swap1\n      0x0100\n      exp\n      swap1\n      div\n      0xffffffffffffffffffffffffffffffffffffffff\n      and\n      0xffffffffffffffffffffffffffffffffffffffff\n      and\n      0xffffffffffffffffffffffffffffffffffffffff\n      and\n      dup2\n      mstore\n      0x20\n      add\n      0x01\n      dup3\n      add\n      sload\n      dup2\n      mstore\n      0x20\n      add\n      0x02\n      dup3\n      add\n      sload\n      dup2\n      mstore\n      0x20\n      add\n      0x03\n      dup3\n      add\n      0x00\n      swap1\n      sload\n      swap1\n      0x0100\n      exp\n      swap1\n      div\n      0xff\n      and\n      0x01\n      dup2\n      gt\n      iszero\n      tag_118\n      jumpi\n      tag_119\n      tag_60\n      jump\t// in\n    tag_119:\n    tag_118:\n      0x01\n      dup2\n      gt\n      iszero\n      tag_120\n      jumpi\n      tag_121\n      tag_60\n      jump\t// in\n    tag_121:\n    tag_120:\n      dup2\n      mstore\n      pop\n      pop\n        /* \"contracts/OrderBook.sol\":3630:3640  msg.sender */\n      caller\n        /* \"contracts/OrderBook.sol\":1483:1489  sender */\n      dup1\n        /* \"contracts/OrderBook.sol\":1456:1490  _order.customer == payable(sender) */\n      0xffffffffffffffffffffffffffffffffffffffff\n      and\n        /* \"contracts/OrderBook.sol\":1456:1462  _order */\n      dup3\n        /* \"contracts/OrderBook.sol\":1456:1471  _order.customer */\n      0x00\n      add\n      mload\n        /* \"contracts/OrderBook.sol\":1456:1490  _order.customer == payable(sender) */\n      0xffffffffffffffffffffffffffffffffffffffff\n      and\n      eq\n        /* \"contracts/OrderBook.sol\":1448:1508  require(_order.customer == payable(sender), \"Order Pending\") */\n      tag_123\n      jumpi\n      mload(0x40)\n      0x08c379a000000000000000000000000000000000000000000000000000000000\n      dup2\n      mstore\n      0x04\n      add\n      tag_124\n      swap1\n      tag_70\n      jump\t// in\n    tag_124:\n      mload(0x40)\n      dup1\n      swap2\n      sub\n      swap1\n      revert\n    tag_123:\n        /* \"contracts/OrderBook.sol\":3659:3666  bidBook */\n      0x00\n        /* \"contracts/OrderBook.sol\":3667:3672  bidId */\n      dup5\n        /* \"contracts/OrderBook.sol\":3659:3673  bidBook[bidId] */\n      dup2\n      sload\n      dup2\n      lt\n      tag_126\n      jumpi\n      tag_127\n      tag_47\n      jump\t// in\n    tag_127:\n    tag_126:\n      swap1\n      0x00\n      mstore\n      keccak256(0x00, 0x20)\n      swap1\n      0x04\n      mul\n      add\n      0x00\n        /* \"contracts/OrderBook.sol\":3652:3673  delete bidBook[bidId] */\n      dup1\n      dup3\n      add\n      exp(0x0100, 0x00)\n      dup2\n      sload\n      swap1\n      0xffffffffffffffffffffffffffffffffffffffff\n      mul\n      not\n      and\n      swap1\n      sstore\n      0x01\n      dup3\n      add\n      0x00\n      swap1\n      sstore\n      0x02\n      dup3\n      add\n      0x00\n      swap1\n      sstore\n      0x03\n      dup3\n      add\n      exp(0x0100, 0x00)\n      dup2\n      sload\n      swap1\n      0xff\n      mul\n      not\n      and\n      swap1\n      sstore\n      pop\n      pop\n        /* \"contracts/OrderBook.sol\":3683:3692  sortBid() */\n      tag_129\n        /* \"contracts/OrderBook.sol\":3683:3690  sortBid */\n      tag_130\n        /* \"contracts/OrderBook.sol\":3683:3692  sortBid() */\n      jump\t// in\n    tag_129:\n        /* \"contracts/OrderBook.sol\":3707:3726  bidCancelled(bidId) */\n      0xc845a6832afa0a4048dd70bbba2186093508a6b63a8d5d70a508f819fef257f8\n        /* \"contracts/OrderBook.sol\":3720:3725  bidId */\n      dup5\n        /* \"contracts/OrderBook.sol\":3707:3726  bidCancelled(bidId) */\n      mload(0x40)\n      tag_131\n      swap2\n      swap1\n      tag_132\n      jump\t// in\n    tag_131:\n      mload(0x40)\n      dup1\n      swap2\n      sub\n      swap1\n      log1\n        /* \"contracts/OrderBook.sol\":1365:1366  _ */\n      pop\n      pop\n        /* \"contracts/OrderBook.sol\":3536:3733  function cancelBid (uint bidId) public isPending(bidBook[bidId]) isAuthorised(bidBook[bidId], msg.sender) {... */\n      pop\n      pop\n      jump\t// out\n        /* \"contracts/OrderBook.sol\":3335:3507  function placeBid (uint256 price) public {... */\n    tag_32:\n        /* \"contracts/OrderBook.sol\":3386:3405  order memory newBid */\n      0x00\n        /* \"contracts/OrderBook.sol\":3408:3470  order(payable(msg.sender),price,block.timestamp,State.pending) */\n      mload(0x40)\n      dup1\n      0x80\n      add\n      0x40\n      mstore\n      dup1\n        /* \"contracts/OrderBook.sol\":3422:3432  msg.sender */\n      caller\n        /* \"contracts/OrderBook.sol\":3408:3470  order(payable(msg.sender),price,block.timestamp,State.pending) */\n      0xffffffffffffffffffffffffffffffffffffffff\n      and\n      dup2\n      mstore\n      0x20\n      add\n        /* \"contracts/OrderBook.sol\":3434:3439  price */\n      dup4\n        /* \"contracts/OrderBook.sol\":3408:3470  order(payable(msg.sender),price,block.timestamp,State.pending) */\n      dup2\n      mstore\n      0x20\n      add\n        /* \"contracts/OrderBook.sol\":3440:3455  block.timestamp */\n      timestamp\n        /* \"contracts/OrderBook.sol\":3408:3470  order(payable(msg.sender),price,block.timestamp,State.pending) */\n      dup2\n      mstore\n      0x20\n      add\n        /* \"contracts/OrderBook.sol\":3456:3469  State.pending */\n      0x00\n        /* \"contracts/OrderBook.sol\":3408:3470  order(payable(msg.sender),price,block.timestamp,State.pending) */\n      0x01\n      dup2\n      gt\n      iszero\n      tag_134\n      jumpi\n      tag_135\n      tag_60\n      jump\t// in\n    tag_135:\n    tag_134:\n      dup2\n      mstore\n      pop\n        /* \"contracts/OrderBook.sol\":3386:3470  order memory newBid = order(payable(msg.sender),price,block.timestamp,State.pending) */\n      swap1\n      pop\n        /* \"contracts/OrderBook.sol\":3480:3487  bidBook */\n      0x00\n        /* \"contracts/OrderBook.sol\":3493:3499  newBid */\n      dup2\n        /* \"contracts/OrderBook.sol\":3480:3500  bidBook.push(newBid) */\n      swap1\n      dup1\n      0x01\n      dup2\n      sload\n      add\n      dup1\n      dup3\n      sstore\n      dup1\n      swap2\n      pop\n      pop\n      0x01\n      swap1\n      sub\n      swap1\n      0x00\n      mstore\n      keccak256(0x00, 0x20)\n      swap1\n      0x04\n      mul\n      add\n      0x00\n      swap1\n      swap2\n      swap1\n      swap2\n      swap1\n      swap2\n      pop\n      0x00\n      dup3\n      add\n      mload\n      dup2\n      0x00\n      add\n      exp(0x0100, 0x00)\n      dup2\n      sload\n      dup2\n      0xffffffffffffffffffffffffffffffffffffffff\n      mul\n      not\n      and\n      swap1\n      dup4\n      0xffffffffffffffffffffffffffffffffffffffff\n      and\n      mul\n      or\n      swap1\n      sstore\n      pop\n      0x20\n      dup3\n      add\n      mload\n      dup2\n      0x01\n      add\n      sstore\n      0x40\n      dup3\n      add\n      mload\n      dup2\n      0x02\n      add\n      sstore\n      0x60\n      dup3\n      add\n      mload\n      dup2\n      0x03\n      add\n      exp(0x0100, 0x00)\n      dup2\n      sload\n      dup2\n      0xff\n      mul\n      not\n      and\n      swap1\n      dup4\n      0x01\n      dup2\n      gt\n      iszero\n      tag_137\n      jumpi\n      tag_138\n      tag_60\n      jump\t// in\n    tag_138:\n    tag_137:\n      mul\n      or\n      swap1\n      sstore\n      pop\n      pop\n      pop\n        /* \"contracts/OrderBook.sol\":3376:3507  {... */\n      pop\n        /* \"contracts/OrderBook.sol\":3335:3507  function placeBid (uint256 price) public {... */\n      pop\n      jump\t// out\n        /* \"contracts/OrderBook.sol\":4189:4280  function fetchAllAsk() public view returns (order[] memory) {... */\n    tag_34:\n        /* \"contracts/OrderBook.sol\":4233:4247  order[] memory */\n      0x60\n        /* \"contracts/OrderBook.sol\":4266:4273  askBook */\n      0x01\n        /* \"contracts/OrderBook.sol\":4259:4273  return askBook */\n      dup1\n      sload\n      dup1\n      0x20\n      mul\n      0x20\n      add\n      mload(0x40)\n      swap1\n      dup2\n      add\n      0x40\n      mstore\n      dup1\n      swap3\n      swap2\n      swap1\n      dup2\n      dup2\n      mstore\n      0x20\n      add\n      0x00\n      swap1\n    tag_140:\n      dup3\n      dup3\n      lt\n      iszero\n      tag_141\n      jumpi\n      dup4\n      dup3\n      swap1\n      0x00\n      mstore\n      keccak256(0x00, 0x20)\n      swap1\n      0x04\n      mul\n      add\n      mload(0x40)\n      dup1\n      0x80\n      add\n      0x40\n      mstore\n      swap1\n      dup2\n      0x00\n      dup3\n      add\n      0x00\n      swap1\n      sload\n      swap1\n      0x0100\n      exp\n      swap1\n      div\n      0xffffffffffffffffffffffffffffffffffffffff\n      and\n      0xffffffffffffffffffffffffffffffffffffffff\n      and\n      0xffffffffffffffffffffffffffffffffffffffff\n      and\n      dup2\n      mstore\n      0x20\n      add\n      0x01\n      dup3\n      add\n      sload\n      dup2\n      mstore\n      0x20\n      add\n      0x02\n      dup3\n      add\n      sload\n      dup2\n      mstore\n      0x20\n      add\n      0x03\n      dup3\n      add\n      0x00\n      swap1\n      sload\n      swap1\n      0x0100\n      exp\n      swap1\n      div\n      0xff\n      and\n      0x01\n      dup2\n      gt\n      iszero\n      tag_143\n      jumpi\n      tag_144\n      tag_60\n      jump\t// in\n    tag_144:\n    tag_143:\n      0x01\n      dup2\n      gt\n      iszero\n      tag_145\n      jumpi\n      tag_146\n      tag_60\n      jump\t// in\n    tag_146:\n    tag_145:\n      dup2\n      mstore\n      pop\n      pop\n      dup2\n      mstore\n      0x20\n      add\n      swap1\n      0x01\n      add\n      swap1\n      jump(tag_140)\n    tag_141:\n      pop\n      pop\n      pop\n      pop\n      swap1\n      pop\n        /* \"contracts/OrderBook.sol\":4189:4280  function fetchAllAsk() public view returns (order[] memory) {... */\n      swap1\n      jump\t// out\n        /* \"contracts/OrderBook.sol\":4286:4569  function fetchYourBidIds() public returns (uint[] memory) {... */\n    tag_37:\n        /* \"contracts/OrderBook.sol\":4329:4342  uint[] memory */\n      0x60\n        /* \"contracts/OrderBook.sol\":4354:4367  deleteArray() */\n      tag_148\n        /* \"contracts/OrderBook.sol\":4354:4365  deleteArray */\n      tag_41\n        /* \"contracts/OrderBook.sol\":4354:4367  deleteArray() */\n      jump\t// in\n    tag_148:\n        /* \"contracts/OrderBook.sol\":4382:4388  uint i */\n      0x00\n        /* \"contracts/OrderBook.sol\":4377:4539  for (uint i = 0; i < bidBook.length; i++) {... */\n    tag_149:\n        /* \"contracts/OrderBook.sol\":4398:4405  bidBook */\n      0x00\n        /* \"contracts/OrderBook.sol\":4398:4412  bidBook.length */\n      dup1\n      sload\n      swap1\n      pop\n        /* \"contracts/OrderBook.sol\":4394:4395  i */\n      dup2\n        /* \"contracts/OrderBook.sol\":4394:4412  i < bidBook.length */\n      lt\n        /* \"contracts/OrderBook.sol\":4377:4539  for (uint i = 0; i < bidBook.length; i++) {... */\n      iszero\n      tag_150\n      jumpi\n        /* \"contracts/OrderBook.sol\":4468:4478  msg.sender */\n      caller\n        /* \"contracts/OrderBook.sol\":4437:4479  bidBook[i].customer == payable(msg.sender) */\n      0xffffffffffffffffffffffffffffffffffffffff\n      and\n        /* \"contracts/OrderBook.sol\":4437:4444  bidBook */\n      0x00\n        /* \"contracts/OrderBook.sol\":4445:4446  i */\n      dup3\n        /* \"contracts/OrderBook.sol\":4437:4447  bidBook[i] */\n      dup2\n      sload\n      dup2\n      lt\n      tag_152\n      jumpi\n      tag_153\n      tag_47\n      jump\t// in\n    tag_153:\n    tag_152:\n      swap1\n      0x00\n      mstore\n      keccak256(0x00, 0x20)\n      swap1\n      0x04\n      mul\n      add\n        /* \"contracts/OrderBook.sol\":4437:4456  bidBook[i].customer */\n      0x00\n      add\n      0x00\n      swap1\n      sload\n      swap1\n      0x0100\n      exp\n      swap1\n      div\n      0xffffffffffffffffffffffffffffffffffffffff\n      and\n        /* \"contracts/OrderBook.sol\":4437:4479  bidBook[i].customer == payable(msg.sender) */\n      0xffffffffffffffffffffffffffffffffffffffff\n      and\n      sub\n        /* \"contracts/OrderBook.sol\":4433:4529  if (bidBook[i].customer == payable(msg.sender)) {... */\n      tag_155\n      jumpi\n        /* \"contracts/OrderBook.sol\":4499:4506  request */\n      0x02\n        /* \"contracts/OrderBook.sol\":4512:4513  i */\n      dup2\n        /* \"contracts/OrderBook.sol\":4499:4514  request.push(i) */\n      swap1\n      dup1\n      0x01\n      dup2\n      sload\n      add\n      dup1\n      dup3\n      sstore\n      dup1\n      swap2\n      pop\n      pop\n      0x01\n      swap1\n      sub\n      swap1\n      0x00\n      mstore\n      keccak256(0x00, 0x20)\n      add\n      0x00\n      swap1\n      swap2\n      swap1\n      swap2\n      swap1\n      swap2\n      pop\n      sstore\n        /* \"contracts/OrderBook.sol\":4433:4529  if (bidBook[i].customer == payable(msg.sender)) {... */\n    tag_155:\n        /* \"contracts/OrderBook.sol\":4414:4417  i++ */\n      dup1\n      dup1\n      tag_157\n      swap1\n      tag_52\n      jump\t// in\n    tag_157:\n      swap2\n      pop\n      pop\n        /* \"contracts/OrderBook.sol\":4377:4539  for (uint i = 0; i < bidBook.length; i++) {... */\n      jump(tag_149)\n    tag_150:\n      pop\n        /* \"contracts/OrderBook.sol\":4555:4562  request */\n      0x02\n        /* \"contracts/OrderBook.sol\":4548:4562  return request */\n      dup1\n      sload\n      dup1\n      0x20\n      mul\n      0x20\n      add\n      mload(0x40)\n      swap1\n      dup2\n      add\n      0x40\n      mstore\n      dup1\n      swap3\n      swap2\n      swap1\n      dup2\n      dup2\n      mstore\n      0x20\n      add\n      dup3\n      dup1\n      sload\n      dup1\n      iszero\n      tag_158\n      jumpi\n      0x20\n      mul\n      dup3\n      add\n      swap2\n      swap1\n      0x00\n      mstore\n      keccak256(0x00, 0x20)\n      swap1\n    tag_159:\n      dup2\n      sload\n      dup2\n      mstore\n      0x20\n      add\n      swap1\n      0x01\n      add\n      swap1\n      dup1\n      dup4\n      gt\n      tag_159\n      jumpi\n    tag_158:\n      pop\n      pop\n      pop\n      pop\n      pop\n      swap1\n      pop\n        /* \"contracts/OrderBook.sol\":4286:4569  function fetchYourBidIds() public returns (uint[] memory) {... */\n      swap1\n      jump\t// out\n        /* \"contracts/OrderBook.sol\":1811:1944  function deleteArray() internal {... */\n    tag_41:\n        /* \"contracts/OrderBook.sol\":1858:1864  uint i */\n      0x00\n        /* \"contracts/OrderBook.sol\":1853:1938  for (uint i = 0; i < request.length; i ++) {... */\n    tag_161:\n        /* \"contracts/OrderBook.sol\":1874:1881  request */\n      0x02\n        /* \"contracts/OrderBook.sol\":1874:1888  request.length */\n      dup1\n      sload\n      swap1\n      pop\n        /* \"contracts/OrderBook.sol\":1870:1871  i */\n      dup2\n        /* \"contracts/OrderBook.sol\":1870:1888  i < request.length */\n      lt\n        /* \"contracts/OrderBook.sol\":1853:1938  for (uint i = 0; i < request.length; i ++) {... */\n      iszero\n      tag_162\n      jumpi\n        /* \"contracts/OrderBook.sol\":1917:1924  request */\n      0x02\n        /* \"contracts/OrderBook.sol\":1925:1926  i */\n      dup2\n        /* \"contracts/OrderBook.sol\":1917:1927  request[i] */\n      dup2\n      sload\n      dup2\n      lt\n      tag_164\n      jumpi\n      tag_165\n      tag_47\n      jump\t// in\n    tag_165:\n    tag_164:\n      swap1\n      0x00\n      mstore\n      keccak256(0x00, 0x20)\n      add\n        /* \"contracts/OrderBook.sol\":1910:1927  delete request[i] */\n      0x00\n      swap1\n      sstore\n        /* \"contracts/OrderBook.sol\":1890:1894  i ++ */\n      dup1\n      dup1\n      tag_167\n      swap1\n      tag_52\n      jump\t// in\n    tag_167:\n      swap2\n      pop\n      pop\n        /* \"contracts/OrderBook.sol\":1853:1938  for (uint i = 0; i < request.length; i ++) {... */\n      jump(tag_161)\n    tag_162:\n      pop\n        /* \"contracts/OrderBook.sol\":1811:1944  function deleteArray() internal {... */\n      jump\t// out\n        /* \"contracts/OrderBook.sol\":1686:1805  function sortAsk() internal {... */\n    tag_86:\n        /* \"contracts/OrderBook.sol\":1723:1783  ascendingQuickSort(bidBook, int(0), int(bidBook.length - 1)) */\n      tag_169\n        /* \"contracts/OrderBook.sol\":1742:1749  bidBook */\n      0x00\n        /* \"contracts/OrderBook.sol\":1723:1783  ascendingQuickSort(bidBook, int(0), int(bidBook.length - 1)) */\n      dup1\n      sload\n      dup1\n      0x20\n      mul\n      0x20\n      add\n      mload(0x40)\n      swap1\n      dup2\n      add\n      0x40\n      mstore\n      dup1\n      swap3\n      swap2\n      swap1\n      dup2\n      dup2\n      mstore\n      0x20\n      add\n      0x00\n      swap1\n    tag_170:\n      dup3\n      dup3\n      lt\n      iszero\n      tag_171\n      jumpi\n      dup4\n      dup3\n      swap1\n      0x00\n      mstore\n      keccak256(0x00, 0x20)\n      swap1\n      0x04\n      mul\n      add\n      mload(0x40)\n      dup1\n      0x80\n      add\n      0x40\n      mstore\n      swap1\n      dup2\n      0x00\n      dup3\n      add\n      0x00\n      swap1\n      sload\n      swap1\n      0x0100\n      exp\n      swap1\n      div\n      0xffffffffffffffffffffffffffffffffffffffff\n      and\n      0xffffffffffffffffffffffffffffffffffffffff\n      and\n      0xffffffffffffffffffffffffffffffffffffffff\n      and\n      dup2\n      mstore\n      0x20\n      add\n      0x01\n      dup3\n      add\n      sload\n      dup2\n      mstore\n      0x20\n      add\n      0x02\n      dup3\n      add\n      sload\n      dup2\n      mstore\n      0x20\n      add\n      0x03\n      dup3\n      add\n      0x00\n      swap1\n      sload\n      swap1\n      0x0100\n      exp\n      swap1\n      div\n      0xff\n      and\n      0x01\n      dup2\n      gt\n      iszero\n      tag_173\n      jumpi\n      tag_174\n      tag_60\n      jump\t// in\n    tag_174:\n    tag_173:\n      0x01\n      dup2\n      gt\n      iszero\n      tag_175\n      jumpi\n      tag_176\n      tag_60\n      jump\t// in\n    tag_176:\n    tag_175:\n      dup2\n      mstore\n      pop\n      pop\n      dup2\n      mstore\n      0x20\n      add\n      swap1\n      0x01\n      add\n      swap1\n      jump(tag_170)\n    tag_171:\n      pop\n      pop\n      pop\n      pop\n        /* \"contracts/OrderBook.sol\":1755:1756  0 */\n      0x00\n        /* \"contracts/OrderBook.sol\":1780:1781  1 */\n      0x01\n        /* \"contracts/OrderBook.sol\":1763:1770  bidBook */\n      0x00\n        /* \"contracts/OrderBook.sol\":1763:1777  bidBook.length */\n      dup1\n      sload\n      swap1\n      pop\n        /* \"contracts/OrderBook.sol\":1763:1781  bidBook.length - 1 */\n      tag_177\n      swap2\n      swap1\n      tag_178\n      jump\t// in\n    tag_177:\n        /* \"contracts/OrderBook.sol\":1723:1741  ascendingQuickSort */\n      tag_179\n        /* \"contracts/OrderBook.sol\":1723:1783  ascendingQuickSort(bidBook, int(0), int(bidBook.length - 1)) */\n      jump\t// in\n    tag_169:\n        /* \"contracts/OrderBook.sol\":1686:1805  function sortAsk() internal {... */\n      jump\t// out\n        /* \"contracts/OrderBook.sol\":1560:1680  function sortBid() internal {... */\n    tag_130:\n        /* \"contracts/OrderBook.sol\":1597:1658  descendingQuickSort(bidBook, int(0), int(bidBook.length - 1)) */\n      tag_181\n        /* \"contracts/OrderBook.sol\":1617:1624  bidBook */\n      0x00\n        /* \"contracts/OrderBook.sol\":1597:1658  descendingQuickSort(bidBook, int(0), int(bidBook.length - 1)) */\n      dup1\n      sload\n      dup1\n      0x20\n      mul\n      0x20\n      add\n      mload(0x40)\n      swap1\n      dup2\n      add\n      0x40\n      mstore\n      dup1\n      swap3\n      swap2\n      swap1\n      dup2\n      dup2\n      mstore\n      0x20\n      add\n      0x00\n      swap1\n    tag_182:\n      dup3\n      dup3\n      lt\n      iszero\n      tag_183\n      jumpi\n      dup4\n      dup3\n      swap1\n      0x00\n      mstore\n      keccak256(0x00, 0x20)\n      swap1\n      0x04\n      mul\n      add\n      mload(0x40)\n      dup1\n      0x80\n      add\n      0x40\n      mstore\n      swap1\n      dup2\n      0x00\n      dup3\n      add\n      0x00\n      swap1\n      sload\n      swap1\n      0x0100\n      exp\n      swap1\n      div\n      0xffffffffffffffffffffffffffffffffffffffff\n      and\n      0xffffffffffffffffffffffffffffffffffffffff\n      and\n      0xffffffffffffffffffffffffffffffffffffffff\n      and\n      dup2\n      mstore\n      0x20\n      add\n      0x01\n      dup3\n      add\n      sload\n      dup2\n      mstore\n      0x20\n      add\n      0x02\n      dup3\n      add\n      sload\n      dup2\n      mstore\n      0x20\n      add\n      0x03\n      dup3\n      add\n      0x00\n      swap1\n      sload\n      swap1\n      0x0100\n      exp\n      swap1\n      div\n      0xff\n      and\n      0x01\n      dup2\n      gt\n      iszero\n      tag_185\n      jumpi\n      tag_186\n      tag_60\n      jump\t// in\n    tag_186:\n    tag_185:\n      0x01\n      dup2\n      gt\n      iszero\n      tag_187\n      jumpi\n      tag_188\n      tag_60\n      jump\t// in\n    tag_188:\n    tag_187:\n      dup2\n      mstore\n      pop\n      pop\n      dup2\n      mstore\n      0x20\n      add\n      swap1\n      0x01\n      add\n      swap1\n      jump(tag_182)\n    tag_183:\n      pop\n      pop\n      pop\n      pop\n        /* \"contracts/OrderBook.sol\":1630:1631  0 */\n      0x00\n        /* \"contracts/OrderBook.sol\":1655:1656  1 */\n      0x01\n        /* \"contracts/OrderBook.sol\":1638:1645  bidBook */\n      0x00\n        /* \"contracts/OrderBook.sol\":1638:1652  bidBook.length */\n      dup1\n      sload\n      swap1\n      pop\n        /* \"contracts/OrderBook.sol\":1638:1656  bidBook.length - 1 */\n      tag_189\n      swap2\n      swap1\n      tag_178\n      jump\t// in\n    tag_189:\n        /* \"contracts/OrderBook.sol\":1597:1616  descendingQuickSort */\n      tag_190\n        /* \"contracts/OrderBook.sol\":1597:1658  descendingQuickSort(bidBook, int(0), int(bidBook.length - 1)) */\n      jump\t// in\n    tag_181:\n        /* \"contracts/OrderBook.sol\":1560:1680  function sortBid() internal {... */\n      jump\t// out\n        /* \"contracts/OrderBook.sol\":2629:3299  function ascendingQuickSort(order[] memory arr, int left, int right) internal{... */\n    tag_179:\n        /* \"contracts/OrderBook.sol\":2716:2721  int i */\n      0x00\n        /* \"contracts/OrderBook.sol\":2724:2728  left */\n      dup3\n        /* \"contracts/OrderBook.sol\":2716:2728  int i = left */\n      swap1\n      pop\n        /* \"contracts/OrderBook.sol\":2738:2743  int j */\n      0x00\n        /* \"contracts/OrderBook.sol\":2746:2751  right */\n      dup3\n        /* \"contracts/OrderBook.sol\":2738:2751  int j = right */\n      swap1\n      pop\n        /* \"contracts/OrderBook.sol\":2767:2768  j */\n      dup1\n        /* \"contracts/OrderBook.sol\":2764:2765  i */\n      dup3\n        /* \"contracts/OrderBook.sol\":2764:2768  i==j */\n      sub\n        /* \"contracts/OrderBook.sol\":2761:2777  if(i==j) return; */\n      tag_192\n      jumpi\n        /* \"contracts/OrderBook.sol\":2770:2777  return; */\n      pop\n      pop\n      jump(tag_191)\n        /* \"contracts/OrderBook.sol\":2761:2777  if(i==j) return; */\n    tag_192:\n        /* \"contracts/OrderBook.sol\":2786:2799  uint256 pivot */\n      0x00\n        /* \"contracts/OrderBook.sol\":2802:2805  arr */\n      dup6\n        /* \"contracts/OrderBook.sol\":2835:2836  2 */\n      0x02\n        /* \"contracts/OrderBook.sol\":2827:2831  left */\n      dup7\n        /* \"contracts/OrderBook.sol\":2819:2824  right */\n      dup7\n        /* \"contracts/OrderBook.sol\":2819:2831  right - left */\n      tag_193\n      swap2\n      swap1\n      tag_194\n      jump\t// in\n    tag_193:\n        /* \"contracts/OrderBook.sol\":2818:2836  (right - left) / 2 */\n      tag_195\n      swap2\n      swap1\n      tag_196\n      jump\t// in\n    tag_195:\n        /* \"contracts/OrderBook.sol\":2811:2815  left */\n      dup7\n        /* \"contracts/OrderBook.sol\":2811:2836  left + (right - left) / 2 */\n      tag_197\n      swap2\n      swap1\n      tag_198\n      jump\t// in\n    tag_197:\n        /* \"contracts/OrderBook.sol\":2802:2838  arr[uint(left + (right - left) / 2)] */\n      dup2\n      mload\n      dup2\n      lt\n      tag_199\n      jumpi\n      tag_200\n      tag_47\n      jump\t// in\n    tag_200:\n    tag_199:\n      0x20\n      mul\n      0x20\n      add\n      add\n      mload\n        /* \"contracts/OrderBook.sol\":2802:2848  arr[uint(left + (right - left) / 2)].timestamp */\n      0x40\n      add\n      mload\n        /* \"contracts/OrderBook.sol\":2786:2848  uint256 pivot = arr[uint(left + (right - left) / 2)].timestamp */\n      swap1\n      pop\n        /* \"contracts/OrderBook.sol\":2858:3155  while (i <= j) {... */\n    tag_201:\n        /* \"contracts/OrderBook.sol\":2870:2871  j */\n      dup2\n        /* \"contracts/OrderBook.sol\":2865:2866  i */\n      dup4\n        /* \"contracts/OrderBook.sol\":2865:2871  i <= j */\n      sgt\n        /* \"contracts/OrderBook.sol\":2858:3155  while (i <= j) {... */\n      tag_202\n      jumpi\n        /* \"contracts/OrderBook.sol\":2887:2929  while (arr[uint(i)].timestamp > pivot) i++ */\n    tag_203:\n        /* \"contracts/OrderBook.sol\":2919:2924  pivot */\n      dup1\n        /* \"contracts/OrderBook.sol\":2894:2897  arr */\n      dup7\n        /* \"contracts/OrderBook.sol\":2903:2904  i */\n      dup5\n        /* \"contracts/OrderBook.sol\":2894:2906  arr[uint(i)] */\n      dup2\n      mload\n      dup2\n      lt\n      tag_205\n      jumpi\n      tag_206\n      tag_47\n      jump\t// in\n    tag_206:\n    tag_205:\n      0x20\n      mul\n      0x20\n      add\n      add\n      mload\n        /* \"contracts/OrderBook.sol\":2894:2916  arr[uint(i)].timestamp */\n      0x40\n      add\n      mload\n        /* \"contracts/OrderBook.sol\":2894:2924  arr[uint(i)].timestamp > pivot */\n      gt\n        /* \"contracts/OrderBook.sol\":2887:2929  while (arr[uint(i)].timestamp > pivot) i++ */\n      iszero\n      tag_204\n      jumpi\n        /* \"contracts/OrderBook.sol\":2926:2929  i++ */\n      dup3\n      dup1\n      tag_207\n      swap1\n      tag_208\n      jump\t// in\n    tag_207:\n      swap4\n      pop\n      pop\n        /* \"contracts/OrderBook.sol\":2887:2929  while (arr[uint(i)].timestamp > pivot) i++ */\n      jump(tag_203)\n    tag_204:\n        /* \"contracts/OrderBook.sol\":2943:2985  while (pivot > arr[uint(j)].timestamp) j-- */\n    tag_209:\n        /* \"contracts/OrderBook.sol\":2958:2961  arr */\n      dup6\n        /* \"contracts/OrderBook.sol\":2967:2968  j */\n      dup3\n        /* \"contracts/OrderBook.sol\":2958:2970  arr[uint(j)] */\n      dup2\n      mload\n      dup2\n      lt\n      tag_211\n      jumpi\n      tag_212\n      tag_47\n      jump\t// in\n    tag_212:\n    tag_211:\n      0x20\n      mul\n      0x20\n      add\n      add\n      mload\n        /* \"contracts/OrderBook.sol\":2958:2980  arr[uint(j)].timestamp */\n      0x40\n      add\n      mload\n        /* \"contracts/OrderBook.sol\":2950:2955  pivot */\n      dup2\n        /* \"contracts/OrderBook.sol\":2950:2980  pivot > arr[uint(j)].timestamp */\n      gt\n        /* \"contracts/OrderBook.sol\":2943:2985  while (pivot > arr[uint(j)].timestamp) j-- */\n      iszero\n      tag_210\n      jumpi\n        /* \"contracts/OrderBook.sol\":2982:2985  j-- */\n      dup2\n      dup1\n      tag_213\n      swap1\n      tag_214\n      jump\t// in\n    tag_213:\n      swap3\n      pop\n      pop\n        /* \"contracts/OrderBook.sol\":2943:2985  while (pivot > arr[uint(j)].timestamp) j-- */\n      jump(tag_209)\n    tag_210:\n        /* \"contracts/OrderBook.sol\":3008:3009  j */\n      dup2\n        /* \"contracts/OrderBook.sol\":3003:3004  i */\n      dup4\n        /* \"contracts/OrderBook.sol\":3003:3009  i <= j */\n      sgt\n        /* \"contracts/OrderBook.sol\":2999:3145  if (i <= j) {... */\n      tag_215\n      jumpi\n        /* \"contracts/OrderBook.sol\":3061:3064  arr */\n      dup6\n        /* \"contracts/OrderBook.sol\":3070:3071  j */\n      dup3\n        /* \"contracts/OrderBook.sol\":3061:3073  arr[uint(j)] */\n      dup2\n      mload\n      dup2\n      lt\n      tag_216\n      jumpi\n      tag_217\n      tag_47\n      jump\t// in\n    tag_217:\n    tag_216:\n      0x20\n      mul\n      0x20\n      add\n      add\n      mload\n        /* \"contracts/OrderBook.sol\":3075:3078  arr */\n      dup7\n        /* \"contracts/OrderBook.sol\":3084:3085  i */\n      dup5\n        /* \"contracts/OrderBook.sol\":3075:3087  arr[uint(i)] */\n      dup2\n      mload\n      dup2\n      lt\n      tag_218\n      jumpi\n      tag_219\n      tag_47\n      jump\t// in\n    tag_219:\n    tag_218:\n      0x20\n      mul\n      0x20\n      add\n      add\n      mload\n        /* \"contracts/OrderBook.sol\":3030:3033  arr */\n      dup8\n        /* \"contracts/OrderBook.sol\":3039:3040  i */\n      dup6\n        /* \"contracts/OrderBook.sol\":3030:3042  arr[uint(i)] */\n      dup2\n      mload\n      dup2\n      lt\n      tag_220\n      jumpi\n      tag_221\n      tag_47\n      jump\t// in\n    tag_221:\n    tag_220:\n      0x20\n      mul\n      0x20\n      add\n      add\n        /* \"contracts/OrderBook.sol\":3044:3047  arr */\n      dup9\n        /* \"contracts/OrderBook.sol\":3053:3054  j */\n      dup6\n        /* \"contracts/OrderBook.sol\":3044:3056  arr[uint(j)] */\n      dup2\n      mload\n      dup2\n      lt\n      tag_222\n      jumpi\n      tag_223\n      tag_47\n      jump\t// in\n    tag_223:\n    tag_222:\n      0x20\n      mul\n      0x20\n      add\n      add\n        /* \"contracts/OrderBook.sol\":3029:3088  (arr[uint(i)], arr[uint(j)]) = (arr[uint(j)], arr[uint(i)]) */\n      dup3\n      swap1\n      mstore\n      dup3\n      swap1\n      mstore\n      pop\n      pop\n        /* \"contracts/OrderBook.sol\":3106:3109  i++ */\n      dup3\n      dup1\n      tag_224\n      swap1\n      tag_208\n      jump\t// in\n    tag_224:\n      swap4\n      pop\n      pop\n        /* \"contracts/OrderBook.sol\":3127:3130  j-- */\n      dup2\n      dup1\n      tag_225\n      swap1\n      tag_214\n      jump\t// in\n    tag_225:\n      swap3\n      pop\n      pop\n        /* \"contracts/OrderBook.sol\":2999:3145  if (i <= j) {... */\n    tag_215:\n        /* \"contracts/OrderBook.sol\":2858:3155  while (i <= j) {... */\n      jump(tag_201)\n    tag_202:\n        /* \"contracts/OrderBook.sol\":3175:3176  j */\n      dup2\n        /* \"contracts/OrderBook.sol\":3168:3172  left */\n      dup6\n        /* \"contracts/OrderBook.sol\":3168:3176  left < j */\n      slt\n        /* \"contracts/OrderBook.sol\":3164:3222  if (left < j)... */\n      iszero\n      tag_226\n      jumpi\n        /* \"contracts/OrderBook.sol\":3190:3222  ascendingQuickSort(arr, left, j) */\n      tag_227\n        /* \"contracts/OrderBook.sol\":3209:3212  arr */\n      dup7\n        /* \"contracts/OrderBook.sol\":3214:3218  left */\n      dup7\n        /* \"contracts/OrderBook.sol\":3220:3221  j */\n      dup5\n        /* \"contracts/OrderBook.sol\":3190:3208  ascendingQuickSort */\n      tag_179\n        /* \"contracts/OrderBook.sol\":3190:3222  ascendingQuickSort(arr, left, j) */\n      jump\t// in\n    tag_227:\n        /* \"contracts/OrderBook.sol\":3164:3222  if (left < j)... */\n    tag_226:\n        /* \"contracts/OrderBook.sol\":3240:3245  right */\n      dup4\n        /* \"contracts/OrderBook.sol\":3236:3237  i */\n      dup4\n        /* \"contracts/OrderBook.sol\":3236:3245  i < right */\n      slt\n        /* \"contracts/OrderBook.sol\":3232:3292  if (i < right)... */\n      iszero\n      tag_228\n      jumpi\n        /* \"contracts/OrderBook.sol\":3259:3292  ascendingQuickSort(arr, i, right) */\n      tag_229\n        /* \"contracts/OrderBook.sol\":3278:3281  arr */\n      dup7\n        /* \"contracts/OrderBook.sol\":3283:3284  i */\n      dup5\n        /* \"contracts/OrderBook.sol\":3286:3291  right */\n      dup7\n        /* \"contracts/OrderBook.sol\":3259:3277  ascendingQuickSort */\n      tag_179\n        /* \"contracts/OrderBook.sol\":3259:3292  ascendingQuickSort(arr, i, right) */\n      jump\t// in\n    tag_229:\n        /* \"contracts/OrderBook.sol\":3232:3292  if (i < right)... */\n    tag_228:\n        /* \"contracts/OrderBook.sol\":2706:3299  {... */\n      pop\n      pop\n      pop\n        /* \"contracts/OrderBook.sol\":2629:3299  function ascendingQuickSort(order[] memory arr, int left, int right) internal{... */\n    tag_191:\n      pop\n      pop\n      pop\n      jump\t// out\n        /* \"contracts/OrderBook.sol\":1950:2623  function descendingQuickSort(order[] memory arr, int left, int right) internal{... */\n    tag_190:\n        /* \"contracts/OrderBook.sol\":2038:2043  int i */\n      0x00\n        /* \"contracts/OrderBook.sol\":2046:2050  left */\n      dup3\n        /* \"contracts/OrderBook.sol\":2038:2050  int i = left */\n      swap1\n      pop\n        /* \"contracts/OrderBook.sol\":2060:2065  int j */\n      0x00\n        /* \"contracts/OrderBook.sol\":2068:2073  right */\n      dup3\n        /* \"contracts/OrderBook.sol\":2060:2073  int j = right */\n      swap1\n      pop\n        /* \"contracts/OrderBook.sol\":2089:2090  j */\n      dup1\n        /* \"contracts/OrderBook.sol\":2086:2087  i */\n      dup3\n        /* \"contracts/OrderBook.sol\":2086:2090  i==j */\n      sub\n        /* \"contracts/OrderBook.sol\":2083:2099  if(i==j) return; */\n      tag_231\n      jumpi\n        /* \"contracts/OrderBook.sol\":2092:2099  return; */\n      pop\n      pop\n      jump(tag_230)\n        /* \"contracts/OrderBook.sol\":2083:2099  if(i==j) return; */\n    tag_231:\n        /* \"contracts/OrderBook.sol\":2108:2121  uint256 pivot */\n      0x00\n        /* \"contracts/OrderBook.sol\":2124:2127  arr */\n      dup6\n        /* \"contracts/OrderBook.sol\":2157:2158  2 */\n      0x02\n        /* \"contracts/OrderBook.sol\":2149:2153  left */\n      dup7\n        /* \"contracts/OrderBook.sol\":2141:2146  right */\n      dup7\n        /* \"contracts/OrderBook.sol\":2141:2153  right - left */\n      tag_232\n      swap2\n      swap1\n      tag_194\n      jump\t// in\n    tag_232:\n        /* \"contracts/OrderBook.sol\":2140:2158  (right - left) / 2 */\n      tag_233\n      swap2\n      swap1\n      tag_196\n      jump\t// in\n    tag_233:\n        /* \"contracts/OrderBook.sol\":2133:2137  left */\n      dup7\n        /* \"contracts/OrderBook.sol\":2133:2158  left + (right - left) / 2 */\n      tag_234\n      swap2\n      swap1\n      tag_198\n      jump\t// in\n    tag_234:\n        /* \"contracts/OrderBook.sol\":2124:2160  arr[uint(left + (right - left) / 2)] */\n      dup2\n      mload\n      dup2\n      lt\n      tag_235\n      jumpi\n      tag_236\n      tag_47\n      jump\t// in\n    tag_236:\n    tag_235:\n      0x20\n      mul\n      0x20\n      add\n      add\n      mload\n        /* \"contracts/OrderBook.sol\":2124:2170  arr[uint(left + (right - left) / 2)].timestamp */\n      0x40\n      add\n      mload\n        /* \"contracts/OrderBook.sol\":2108:2170  uint256 pivot = arr[uint(left + (right - left) / 2)].timestamp */\n      swap1\n      pop\n        /* \"contracts/OrderBook.sol\":2180:2477  while (i <= j) {... */\n    tag_237:\n        /* \"contracts/OrderBook.sol\":2192:2193  j */\n      dup2\n        /* \"contracts/OrderBook.sol\":2187:2188  i */\n      dup4\n        /* \"contracts/OrderBook.sol\":2187:2193  i <= j */\n      sgt\n        /* \"contracts/OrderBook.sol\":2180:2477  while (i <= j) {... */\n      tag_238\n      jumpi\n        /* \"contracts/OrderBook.sol\":2209:2251  while (arr[uint(i)].timestamp < pivot) i++ */\n    tag_239:\n        /* \"contracts/OrderBook.sol\":2241:2246  pivot */\n      dup1\n        /* \"contracts/OrderBook.sol\":2216:2219  arr */\n      dup7\n        /* \"contracts/OrderBook.sol\":2225:2226  i */\n      dup5\n        /* \"contracts/OrderBook.sol\":2216:2228  arr[uint(i)] */\n      dup2\n      mload\n      dup2\n      lt\n      tag_241\n      jumpi\n      tag_242\n      tag_47\n      jump\t// in\n    tag_242:\n    tag_241:\n      0x20\n      mul\n      0x20\n      add\n      add\n      mload\n        /* \"contracts/OrderBook.sol\":2216:2238  arr[uint(i)].timestamp */\n      0x40\n      add\n      mload\n        /* \"contracts/OrderBook.sol\":2216:2246  arr[uint(i)].timestamp < pivot */\n      lt\n        /* \"contracts/OrderBook.sol\":2209:2251  while (arr[uint(i)].timestamp < pivot) i++ */\n      iszero\n      tag_240\n      jumpi\n        /* \"contracts/OrderBook.sol\":2248:2251  i++ */\n      dup3\n      dup1\n      tag_243\n      swap1\n      tag_208\n      jump\t// in\n    tag_243:\n      swap4\n      pop\n      pop\n        /* \"contracts/OrderBook.sol\":2209:2251  while (arr[uint(i)].timestamp < pivot) i++ */\n      jump(tag_239)\n    tag_240:\n        /* \"contracts/OrderBook.sol\":2265:2307  while (pivot < arr[uint(j)].timestamp) j-- */\n    tag_244:\n        /* \"contracts/OrderBook.sol\":2280:2283  arr */\n      dup6\n        /* \"contracts/OrderBook.sol\":2289:2290  j */\n      dup3\n        /* \"contracts/OrderBook.sol\":2280:2292  arr[uint(j)] */\n      dup2\n      mload\n      dup2\n      lt\n      tag_246\n      jumpi\n      tag_247\n      tag_47\n      jump\t// in\n    tag_247:\n    tag_246:\n      0x20\n      mul\n      0x20\n      add\n      add\n      mload\n        /* \"contracts/OrderBook.sol\":2280:2302  arr[uint(j)].timestamp */\n      0x40\n      add\n      mload\n        /* \"contracts/OrderBook.sol\":2272:2277  pivot */\n      dup2\n        /* \"contracts/OrderBook.sol\":2272:2302  pivot < arr[uint(j)].timestamp */\n      lt\n        /* \"contracts/OrderBook.sol\":2265:2307  while (pivot < arr[uint(j)].timestamp) j-- */\n      iszero\n      tag_245\n      jumpi\n        /* \"contracts/OrderBook.sol\":2304:2307  j-- */\n      dup2\n      dup1\n      tag_248\n      swap1\n      tag_214\n      jump\t// in\n    tag_248:\n      swap3\n      pop\n      pop\n        /* \"contracts/OrderBook.sol\":2265:2307  while (pivot < arr[uint(j)].timestamp) j-- */\n      jump(tag_244)\n    tag_245:\n        /* \"contracts/OrderBook.sol\":2330:2331  j */\n      dup2\n        /* \"contracts/OrderBook.sol\":2325:2326  i */\n      dup4\n        /* \"contracts/OrderBook.sol\":2325:2331  i <= j */\n      sgt\n        /* \"contracts/OrderBook.sol\":2321:2467  if (i <= j) {... */\n      tag_249\n      jumpi\n        /* \"contracts/OrderBook.sol\":2383:2386  arr */\n      dup6\n        /* \"contracts/OrderBook.sol\":2392:2393  j */\n      dup3\n        /* \"contracts/OrderBook.sol\":2383:2395  arr[uint(j)] */\n      dup2\n      mload\n      dup2\n      lt\n      tag_250\n      jumpi\n      tag_251\n      tag_47\n      jump\t// in\n    tag_251:\n    tag_250:\n      0x20\n      mul\n      0x20\n      add\n      add\n      mload\n        /* \"contracts/OrderBook.sol\":2397:2400  arr */\n      dup7\n        /* \"contracts/OrderBook.sol\":2406:2407  i */\n      dup5\n        /* \"contracts/OrderBook.sol\":2397:2409  arr[uint(i)] */\n      dup2\n      mload\n      dup2\n      lt\n      tag_252\n      jumpi\n      tag_253\n      tag_47\n      jump\t// in\n    tag_253:\n    tag_252:\n      0x20\n      mul\n      0x20\n      add\n      add\n      mload\n        /* \"contracts/OrderBook.sol\":2352:2355  arr */\n      dup8\n        /* \"contracts/OrderBook.sol\":2361:2362  i */\n      dup6\n        /* \"contracts/OrderBook.sol\":2352:2364  arr[uint(i)] */\n      dup2\n      mload\n      dup2\n      lt\n      tag_254\n      jumpi\n      tag_255\n      tag_47\n      jump\t// in\n    tag_255:\n    tag_254:\n      0x20\n      mul\n      0x20\n      add\n      add\n        /* \"contracts/OrderBook.sol\":2366:2369  arr */\n      dup9\n        /* \"contracts/OrderBook.sol\":2375:2376  j */\n      dup6\n        /* \"contracts/OrderBook.sol\":2366:2378  arr[uint(j)] */\n      dup2\n      mload\n      dup2\n      lt\n      tag_256\n      jumpi\n      tag_257\n      tag_47\n      jump\t// in\n    tag_257:\n    tag_256:\n      0x20\n      mul\n      0x20\n      add\n      add\n        /* \"contracts/OrderBook.sol\":2351:2410  (arr[uint(i)], arr[uint(j)]) = (arr[uint(j)], arr[uint(i)]) */\n      dup3\n      swap1\n      mstore\n      dup3\n      swap1\n      mstore\n      pop\n      pop\n        /* \"contracts/OrderBook.sol\":2428:2431  i++ */\n      dup3\n      dup1\n      tag_258\n      swap1\n      tag_208\n      jump\t// in\n    tag_258:\n      swap4\n      pop\n      pop\n        /* \"contracts/OrderBook.sol\":2449:2452  j-- */\n      dup2\n      dup1\n      tag_259\n      swap1\n      tag_214\n      jump\t// in\n    tag_259:\n      swap3\n      pop\n      pop\n        /* \"contracts/OrderBook.sol\":2321:2467  if (i <= j) {... */\n    tag_249:\n        /* \"contracts/OrderBook.sol\":2180:2477  while (i <= j) {... */\n      jump(tag_237)\n    tag_238:\n        /* \"contracts/OrderBook.sol\":2497:2498  j */\n      dup2\n        /* \"contracts/OrderBook.sol\":2490:2494  left */\n      dup6\n        /* \"contracts/OrderBook.sol\":2490:2498  left < j */\n      slt\n        /* \"contracts/OrderBook.sol\":2486:2545  if (left < j)... */\n      iszero\n      tag_260\n      jumpi\n        /* \"contracts/OrderBook.sol\":2512:2545  descendingQuickSort(arr, left, j) */\n      tag_261\n        /* \"contracts/OrderBook.sol\":2532:2535  arr */\n      dup7\n        /* \"contracts/OrderBook.sol\":2537:2541  left */\n      dup7\n        /* \"contracts/OrderBook.sol\":2543:2544  j */\n      dup5\n        /* \"contracts/OrderBook.sol\":2512:2531  descendingQuickSort */\n      tag_190\n        /* \"contracts/OrderBook.sol\":2512:2545  descendingQuickSort(arr, left, j) */\n      jump\t// in\n    tag_261:\n        /* \"contracts/OrderBook.sol\":2486:2545  if (left < j)... */\n    tag_260:\n        /* \"contracts/OrderBook.sol\":2563:2568  right */\n      dup4\n        /* \"contracts/OrderBook.sol\":2559:2560  i */\n      dup4\n        /* \"contracts/OrderBook.sol\":2559:2568  i < right */\n      slt\n        /* \"contracts/OrderBook.sol\":2555:2616  if (i < right)... */\n      iszero\n      tag_262\n      jumpi\n        /* \"contracts/OrderBook.sol\":2582:2616  descendingQuickSort(arr, i, right) */\n      tag_263\n        /* \"contracts/OrderBook.sol\":2602:2605  arr */\n      dup7\n        /* \"contracts/OrderBook.sol\":2607:2608  i */\n      dup5\n        /* \"contracts/OrderBook.sol\":2610:2615  right */\n      dup7\n        /* \"contracts/OrderBook.sol\":2582:2601  descendingQuickSort */\n      tag_190\n        /* \"contracts/OrderBook.sol\":2582:2616  descendingQuickSort(arr, i, right) */\n      jump\t// in\n    tag_263:\n        /* \"contracts/OrderBook.sol\":2555:2616  if (i < right)... */\n    tag_262:\n        /* \"contracts/OrderBook.sol\":2028:2623  {... */\n      pop\n      pop\n      pop\n        /* \"contracts/OrderBook.sol\":1950:2623  function descendingQuickSort(order[] memory arr, int left, int right) internal{... */\n    tag_230:\n      pop\n      pop\n      pop\n      jump\t// out\n        /* \"#utility.yul\":7:121   */\n    tag_264:\n        /* \"#utility.yul\":74:80   */\n      0x00\n        /* \"#utility.yul\":108:113   */\n      dup2\n        /* \"#utility.yul\":102:114   */\n      mload\n        /* \"#utility.yul\":92:114   */\n      swap1\n      pop\n        /* \"#utility.yul\":7:121   */\n      swap2\n      swap1\n      pop\n      jump\t// out\n        /* \"#utility.yul\":127:311   */\n    tag_265:\n        /* \"#utility.yul\":226:237   */\n      0x00\n        /* \"#utility.yul\":260:266   */\n      dup3\n        /* \"#utility.yul\":255:258   */\n      dup3\n        /* \"#utility.yul\":248:267   */\n      mstore\n        /* \"#utility.yul\":300:304   */\n      0x20\n        /* \"#utility.yul\":295:298   */\n      dup3\n        /* \"#utility.yul\":291:305   */\n      add\n        /* \"#utility.yul\":276:305   */\n      swap1\n      pop\n        /* \"#utility.yul\":127:311   */\n      swap3\n      swap2\n      pop\n      pop\n      jump\t// out\n        /* \"#utility.yul\":317:449   */\n    tag_266:\n        /* \"#utility.yul\":384:388   */\n      0x00\n        /* \"#utility.yul\":407:410   */\n      dup2\n        /* \"#utility.yul\":399:410   */\n      swap1\n      pop\n        /* \"#utility.yul\":437:441   */\n      0x20\n        /* \"#utility.yul\":432:435   */\n      dup3\n        /* \"#utility.yul\":428:442   */\n      add\n        /* \"#utility.yul\":420:442   */\n      swap1\n      pop\n        /* \"#utility.yul\":317:449   */\n      swap2\n      swap1\n      pop\n      jump\t// out\n        /* \"#utility.yul\":455:532   */\n    tag_267:\n        /* \"#utility.yul\":492:499   */\n      0x00\n        /* \"#utility.yul\":521:526   */\n      dup2\n        /* \"#utility.yul\":510:526   */\n      swap1\n      pop\n        /* \"#utility.yul\":455:532   */\n      swap2\n      swap1\n      pop\n      jump\t// out\n        /* \"#utility.yul\":538:646   */\n    tag_268:\n        /* \"#utility.yul\":615:639   */\n      tag_304\n        /* \"#utility.yul\":633:638   */\n      dup2\n        /* \"#utility.yul\":615:639   */\n      tag_267\n      jump\t// in\n    tag_304:\n        /* \"#utility.yul\":610:613   */\n      dup3\n        /* \"#utility.yul\":603:640   */\n      mstore\n        /* \"#utility.yul\":538:646   */\n      pop\n      pop\n      jump\t// out\n        /* \"#utility.yul\":652:831   */\n    tag_269:\n        /* \"#utility.yul\":721:731   */\n      0x00\n        /* \"#utility.yul\":742:788   */\n      tag_306\n        /* \"#utility.yul\":784:787   */\n      dup4\n        /* \"#utility.yul\":776:782   */\n      dup4\n        /* \"#utility.yul\":742:788   */\n      tag_268\n      jump\t// in\n    tag_306:\n        /* \"#utility.yul\":820:824   */\n      0x20\n        /* \"#utility.yul\":815:818   */\n      dup4\n        /* \"#utility.yul\":811:825   */\n      add\n        /* \"#utility.yul\":797:825   */\n      swap1\n      pop\n        /* \"#utility.yul\":652:831   */\n      swap3\n      swap2\n      pop\n      pop\n      jump\t// out\n        /* \"#utility.yul\":837:950   */\n    tag_270:\n        /* \"#utility.yul\":907:911   */\n      0x00\n        /* \"#utility.yul\":939:943   */\n      0x20\n        /* \"#utility.yul\":934:937   */\n      dup3\n        /* \"#utility.yul\":930:944   */\n      add\n        /* \"#utility.yul\":922:944   */\n      swap1\n      pop\n        /* \"#utility.yul\":837:950   */\n      swap2\n      swap1\n      pop\n      jump\t// out\n        /* \"#utility.yul\":986:1718   */\n    tag_271:\n        /* \"#utility.yul\":1105:1108   */\n      0x00\n        /* \"#utility.yul\":1134:1188   */\n      tag_309\n        /* \"#utility.yul\":1182:1187   */\n      dup3\n        /* \"#utility.yul\":1134:1188   */\n      tag_264\n      jump\t// in\n    tag_309:\n        /* \"#utility.yul\":1204:1290   */\n      tag_310\n        /* \"#utility.yul\":1283:1289   */\n      dup2\n        /* \"#utility.yul\":1278:1281   */\n      dup6\n        /* \"#utility.yul\":1204:1290   */\n      tag_265\n      jump\t// in\n    tag_310:\n        /* \"#utility.yul\":1197:1290   */\n      swap4\n      pop\n        /* \"#utility.yul\":1314:1370   */\n      tag_311\n        /* \"#utility.yul\":1364:1369   */\n      dup4\n        /* \"#utility.yul\":1314:1370   */\n      tag_266\n      jump\t// in\n    tag_311:\n        /* \"#utility.yul\":1393:1400   */\n      dup1\n        /* \"#utility.yul\":1424:1425   */\n      0x00\n        /* \"#utility.yul\":1409:1693   */\n    tag_312:\n        /* \"#utility.yul\":1434:1440   */\n      dup4\n        /* \"#utility.yul\":1431:1432   */\n      dup2\n        /* \"#utility.yul\":1428:1441   */\n      lt\n        /* \"#utility.yul\":1409:1693   */\n      iszero\n      tag_314\n      jumpi\n        /* \"#utility.yul\":1510:1516   */\n      dup2\n        /* \"#utility.yul\":1504:1517   */\n      mload\n        /* \"#utility.yul\":1537:1600   */\n      tag_315\n        /* \"#utility.yul\":1596:1599   */\n      dup9\n        /* \"#utility.yul\":1581:1594   */\n      dup3\n        /* \"#utility.yul\":1537:1600   */\n      tag_269\n      jump\t// in\n    tag_315:\n        /* \"#utility.yul\":1530:1600   */\n      swap8\n      pop\n        /* \"#utility.yul\":1623:1683   */\n      tag_316\n        /* \"#utility.yul\":1676:1682   */\n      dup4\n        /* \"#utility.yul\":1623:1683   */\n      tag_270\n      jump\t// in\n    tag_316:\n        /* \"#utility.yul\":1613:1683   */\n      swap3\n      pop\n        /* \"#utility.yul\":1469:1693   */\n      pop\n        /* \"#utility.yul\":1456:1457   */\n      0x01\n        /* \"#utility.yul\":1453:1454   */\n      dup2\n        /* \"#utility.yul\":1449:1458   */\n      add\n        /* \"#utility.yul\":1444:1458   */\n      swap1\n      pop\n        /* \"#utility.yul\":1409:1693   */\n      jump(tag_312)\n    tag_314:\n        /* \"#utility.yul\":1413:1427   */\n      pop\n        /* \"#utility.yul\":1709:1712   */\n      dup6\n        /* \"#utility.yul\":1702:1712   */\n      swap4\n      pop\n        /* \"#utility.yul\":1110:1718   */\n      pop\n      pop\n      pop\n        /* \"#utility.yul\":986:1718   */\n      swap3\n      swap2\n      pop\n      pop\n      jump\t// out\n        /* \"#utility.yul\":1724:2097   */\n    tag_15:\n        /* \"#utility.yul\":1867:1871   */\n      0x00\n        /* \"#utility.yul\":1905:1907   */\n      0x20\n        /* \"#utility.yul\":1894:1903   */\n      dup3\n        /* \"#utility.yul\":1890:1908   */\n      add\n        /* \"#utility.yul\":1882:1908   */\n      swap1\n      pop\n        /* \"#utility.yul\":1954:1963   */\n      dup2\n        /* \"#utility.yul\":1948:1952   */\n      dup2\n        /* \"#utility.yul\":1944:1964   */\n      sub\n        /* \"#utility.yul\":1940:1941   */\n      0x00\n        /* \"#utility.yul\":1929:1938   */\n      dup4\n        /* \"#utility.yul\":1925:1942   */\n      add\n        /* \"#utility.yul\":1918:1965   */\n      mstore\n        /* \"#utility.yul\":1982:2090   */\n      tag_318\n        /* \"#utility.yul\":2085:2089   */\n      dup2\n        /* \"#utility.yul\":2076:2082   */\n      dup5\n        /* \"#utility.yul\":1982:2090   */\n      tag_271\n      jump\t// in\n    tag_318:\n        /* \"#utility.yul\":1974:2090   */\n      swap1\n      pop\n        /* \"#utility.yul\":1724:2097   */\n      swap3\n      swap2\n      pop\n      pop\n      jump\t// out\n        /* \"#utility.yul\":2184:2301   */\n    tag_273:\n        /* \"#utility.yul\":2293:2294   */\n      0x00\n        /* \"#utility.yul\":2290:2291   */\n      dup1\n        /* \"#utility.yul\":2283:2295   */\n      revert\n        /* \"#utility.yul\":2430:2552   */\n    tag_275:\n        /* \"#utility.yul\":2503:2527   */\n      tag_323\n        /* \"#utility.yul\":2521:2526   */\n      dup2\n        /* \"#utility.yul\":2503:2527   */\n      tag_267\n      jump\t// in\n    tag_323:\n        /* \"#utility.yul\":2496:2501   */\n      dup2\n        /* \"#utility.yul\":2493:2528   */\n      eq\n        /* \"#utility.yul\":2483:2546   */\n      tag_324\n      jumpi\n        /* \"#utility.yul\":2542:2543   */\n      0x00\n        /* \"#utility.yul\":2539:2540   */\n      dup1\n        /* \"#utility.yul\":2532:2544   */\n      revert\n        /* \"#utility.yul\":2483:2546   */\n    tag_324:\n        /* \"#utility.yul\":2430:2552   */\n      pop\n      jump\t// out\n        /* \"#utility.yul\":2558:2697   */\n    tag_276:\n        /* \"#utility.yul\":2604:2609   */\n      0x00\n        /* \"#utility.yul\":2642:2648   */\n      dup2\n        /* \"#utility.yul\":2629:2649   */\n      calldataload\n        /* \"#utility.yul\":2620:2649   */\n      swap1\n      pop\n        /* \"#utility.yul\":2658:2691   */\n      tag_326\n        /* \"#utility.yul\":2685:2690   */\n      dup2\n        /* \"#utility.yul\":2658:2691   */\n      tag_275\n      jump\t// in\n    tag_326:\n        /* \"#utility.yul\":2558:2697   */\n      swap3\n      swap2\n      pop\n      pop\n      jump\t// out\n        /* \"#utility.yul\":2703:3032   */\n    tag_18:\n        /* \"#utility.yul\":2762:2768   */\n      0x00\n        /* \"#utility.yul\":2811:2813   */\n      0x20\n        /* \"#utility.yul\":2799:2808   */\n      dup3\n        /* \"#utility.yul\":2790:2797   */\n      dup5\n        /* \"#utility.yul\":2786:2809   */\n      sub\n        /* \"#utility.yul\":2782:2814   */\n      slt\n        /* \"#utility.yul\":2779:2898   */\n      iszero\n      tag_328\n      jumpi\n        /* \"#utility.yul\":2817:2896   */\n      tag_329\n      tag_273\n      jump\t// in\n    tag_329:\n        /* \"#utility.yul\":2779:2898   */\n    tag_328:\n        /* \"#utility.yul\":2937:2938   */\n      0x00\n        /* \"#utility.yul\":2962:3015   */\n      tag_330\n        /* \"#utility.yul\":3007:3014   */\n      dup5\n        /* \"#utility.yul\":2998:3004   */\n      dup3\n        /* \"#utility.yul\":2987:2996   */\n      dup6\n        /* \"#utility.yul\":2983:3005   */\n      add\n        /* \"#utility.yul\":2962:3015   */\n      tag_276\n      jump\t// in\n    tag_330:\n        /* \"#utility.yul\":2952:3015   */\n      swap2\n      pop\n        /* \"#utility.yul\":2908:3025   */\n      pop\n        /* \"#utility.yul\":2703:3032   */\n      swap3\n      swap2\n      pop\n      pop\n      jump\t// out\n        /* \"#utility.yul\":3038:3173   */\n    tag_277:\n        /* \"#utility.yul\":3126:3132   */\n      0x00\n        /* \"#utility.yul\":3160:3165   */\n      dup2\n        /* \"#utility.yul\":3154:3166   */\n      mload\n        /* \"#utility.yul\":3144:3166   */\n      swap1\n      pop\n        /* \"#utility.yul\":3038:3173   */\n      swap2\n      swap1\n      pop\n      jump\t// out\n        /* \"#utility.yul\":3179:3384   */\n    tag_278:\n        /* \"#utility.yul\":3299:3310   */\n      0x00\n        /* \"#utility.yul\":3333:3339   */\n      dup3\n        /* \"#utility.yul\":3328:3331   */\n      dup3\n        /* \"#utility.yul\":3321:3340   */\n      mstore\n        /* \"#utility.yul\":3373:3377   */\n      0x20\n        /* \"#utility.yul\":3368:3371   */\n      dup3\n        /* \"#utility.yul\":3364:3378   */\n      add\n        /* \"#utility.yul\":3349:3378   */\n      swap1\n      pop\n        /* \"#utility.yul\":3179:3384   */\n      swap3\n      swap2\n      pop\n      pop\n      jump\t// out\n        /* \"#utility.yul\":3390:3543   */\n    tag_279:\n        /* \"#utility.yul\":3478:3482   */\n      0x00\n        /* \"#utility.yul\":3501:3504   */\n      dup2\n        /* \"#utility.yul\":3493:3504   */\n      swap1\n      pop\n        /* \"#utility.yul\":3531:3535   */\n      0x20\n        /* \"#utility.yul\":3526:3529   */\n      dup3\n        /* \"#utility.yul\":3522:3536   */\n      add\n        /* \"#utility.yul\":3514:3536   */\n      swap1\n      pop\n        /* \"#utility.yul\":3390:3543   */\n      swap2\n      swap1\n      pop\n      jump\t// out\n        /* \"#utility.yul\":3549:3675   */\n    tag_280:\n        /* \"#utility.yul\":3586:3593   */\n      0x00\n        /* \"#utility.yul\":3626:3668   */\n      0xffffffffffffffffffffffffffffffffffffffff\n        /* \"#utility.yul\":3619:3624   */\n      dup3\n        /* \"#utility.yul\":3615:3669   */\n      and\n        /* \"#utility.yul\":3604:3669   */\n      swap1\n      pop\n        /* \"#utility.yul\":3549:3675   */\n      swap2\n      swap1\n      pop\n      jump\t// out\n        /* \"#utility.yul\":3681:3785   */\n    tag_281:\n        /* \"#utility.yul\":3726:3733   */\n      0x00\n        /* \"#utility.yul\":3755:3779   */\n      tag_336\n        /* \"#utility.yul\":3773:3778   */\n      dup3\n        /* \"#utility.yul\":3755:3779   */\n      tag_280\n      jump\t// in\n    tag_336:\n        /* \"#utility.yul\":3744:3779   */\n      swap1\n      pop\n        /* \"#utility.yul\":3681:3785   */\n      swap2\n      swap1\n      pop\n      jump\t// out\n        /* \"#utility.yul\":3791:3923   */\n    tag_282:\n        /* \"#utility.yul\":3884:3916   */\n      tag_338\n        /* \"#utility.yul\":3910:3915   */\n      dup2\n        /* \"#utility.yul\":3884:3916   */\n      tag_281\n      jump\t// in\n    tag_338:\n        /* \"#utility.yul\":3879:3882   */\n      dup3\n        /* \"#utility.yul\":3872:3917   */\n      mstore\n        /* \"#utility.yul\":3791:3923   */\n      pop\n      pop\n      jump\t// out\n        /* \"#utility.yul\":3929:4109   */\n    tag_60:\n        /* \"#utility.yul\":3977:4054   */\n      0x4e487b7100000000000000000000000000000000000000000000000000000000\n        /* \"#utility.yul\":3974:3975   */\n      0x00\n        /* \"#utility.yul\":3967:4055   */\n      mstore\n        /* \"#utility.yul\":4074:4078   */\n      0x21\n        /* \"#utility.yul\":4071:4072   */\n      0x04\n        /* \"#utility.yul\":4064:4079   */\n      mstore\n        /* \"#utility.yul\":4098:4102   */\n      0x24\n        /* \"#utility.yul\":4095:4096   */\n      0x00\n        /* \"#utility.yul\":4088:4103   */\n      revert\n        /* \"#utility.yul\":4115:4227   */\n    tag_283:\n        /* \"#utility.yul\":4195:4196   */\n      0x02\n        /* \"#utility.yul\":4188:4193   */\n      dup2\n        /* \"#utility.yul\":4185:4197   */\n      lt\n        /* \"#utility.yul\":4175:4221   */\n      tag_341\n      jumpi\n        /* \"#utility.yul\":4201:4219   */\n      tag_342\n      tag_60\n      jump\t// in\n    tag_342:\n        /* \"#utility.yul\":4175:4221   */\n    tag_341:\n        /* \"#utility.yul\":4115:4227   */\n      pop\n      jump\t// out\n        /* \"#utility.yul\":4233:4358   */\n    tag_284:\n        /* \"#utility.yul\":4277:4284   */\n      0x00\n        /* \"#utility.yul\":4306:4311   */\n      dup2\n        /* \"#utility.yul\":4295:4311   */\n      swap1\n      pop\n        /* \"#utility.yul\":4312:4352   */\n      tag_344\n        /* \"#utility.yul\":4346:4351   */\n      dup3\n        /* \"#utility.yul\":4312:4352   */\n      tag_283\n      jump\t// in\n    tag_344:\n        /* \"#utility.yul\":4233:4358   */\n      swap2\n      swap1\n      pop\n      jump\t// out\n        /* \"#utility.yul\":4364:4489   */\n    tag_285:\n        /* \"#utility.yul\":4419:4428   */\n      0x00\n        /* \"#utility.yul\":4452:4483   */\n      tag_346\n        /* \"#utility.yul\":4477:4482   */\n      dup3\n        /* \"#utility.yul\":4452:4483   */\n      tag_284\n      jump\t// in\n    tag_346:\n        /* \"#utility.yul\":4439:4483   */\n      swap1\n      pop\n        /* \"#utility.yul\":4364:4489   */\n      swap2\n      swap1\n      pop\n      jump\t// out\n        /* \"#utility.yul\":4495:4626   */\n    tag_286:\n        /* \"#utility.yul\":4577:4619   */\n      tag_348\n        /* \"#utility.yul\":4613:4618   */\n      dup2\n        /* \"#utility.yul\":4577:4619   */\n      tag_285\n      jump\t// in\n    tag_348:\n        /* \"#utility.yul\":4572:4575   */\n      dup3\n        /* \"#utility.yul\":4565:4620   */\n      mstore\n        /* \"#utility.yul\":4495:4626   */\n      pop\n      pop\n      jump\t// out\n        /* \"#utility.yul\":4688:5557   */\n    tag_287:\n        /* \"#utility.yul\":4817:4821   */\n      0x80\n        /* \"#utility.yul\":4812:4815   */\n      dup3\n        /* \"#utility.yul\":4808:4822   */\n      add\n        /* \"#utility.yul\":4908:4912   */\n      0x00\n        /* \"#utility.yul\":4901:4906   */\n      dup3\n        /* \"#utility.yul\":4897:4913   */\n      add\n        /* \"#utility.yul\":4891:4914   */\n      mload\n        /* \"#utility.yul\":4927:5006   */\n      tag_350\n        /* \"#utility.yul\":5000:5004   */\n      0x00\n        /* \"#utility.yul\":4995:4998   */\n      dup6\n        /* \"#utility.yul\":4991:5005   */\n      add\n        /* \"#utility.yul\":4977:4989   */\n      dup3\n        /* \"#utility.yul\":4927:5006   */\n      tag_282\n      jump\t// in\n    tag_350:\n        /* \"#utility.yul\":4832:5016   */\n      pop\n        /* \"#utility.yul\":5099:5103   */\n      0x20\n        /* \"#utility.yul\":5092:5097   */\n      dup3\n        /* \"#utility.yul\":5088:5104   */\n      add\n        /* \"#utility.yul\":5082:5105   */\n      mload\n        /* \"#utility.yul\":5118:5181   */\n      tag_351\n        /* \"#utility.yul\":5175:5179   */\n      0x20\n        /* \"#utility.yul\":5170:5173   */\n      dup6\n        /* \"#utility.yul\":5166:5180   */\n      add\n        /* \"#utility.yul\":5152:5164   */\n      dup3\n        /* \"#utility.yul\":5118:5181   */\n      tag_268\n      jump\t// in\n    tag_351:\n        /* \"#utility.yul\":5026:5191   */\n      pop\n        /* \"#utility.yul\":5278:5282   */\n      0x40\n        /* \"#utility.yul\":5271:5276   */\n      dup3\n        /* \"#utility.yul\":5267:5283   */\n      add\n        /* \"#utility.yul\":5261:5284   */\n      mload\n        /* \"#utility.yul\":5297:5360   */\n      tag_352\n        /* \"#utility.yul\":5354:5358   */\n      0x40\n        /* \"#utility.yul\":5349:5352   */\n      dup6\n        /* \"#utility.yul\":5345:5359   */\n      add\n        /* \"#utility.yul\":5331:5343   */\n      dup3\n        /* \"#utility.yul\":5297:5360   */\n      tag_268\n      jump\t// in\n    tag_352:\n        /* \"#utility.yul\":5201:5370   */\n      pop\n        /* \"#utility.yul\":5453:5457   */\n      0x60\n        /* \"#utility.yul\":5446:5451   */\n      dup3\n        /* \"#utility.yul\":5442:5458   */\n      add\n        /* \"#utility.yul\":5436:5459   */\n      mload\n        /* \"#utility.yul\":5472:5540   */\n      tag_353\n        /* \"#utility.yul\":5534:5538   */\n      0x60\n        /* \"#utility.yul\":5529:5532   */\n      dup6\n        /* \"#utility.yul\":5525:5539   */\n      add\n        /* \"#utility.yul\":5511:5523   */\n      dup3\n        /* \"#utility.yul\":5472:5540   */\n      tag_286\n      jump\t// in\n    tag_353:\n        /* \"#utility.yul\":5380:5550   */\n      pop\n        /* \"#utility.yul\":4786:5557   */\n      pop\n        /* \"#utility.yul\":4688:5557   */\n      pop\n      pop\n      jump\t// out\n        /* \"#utility.yul\":5563:5826   */\n    tag_288:\n        /* \"#utility.yul\":5674:5684   */\n      0x00\n        /* \"#utility.yul\":5695:5783   */\n      tag_355\n        /* \"#utility.yul\":5779:5782   */\n      dup4\n        /* \"#utility.yul\":5771:5777   */\n      dup4\n        /* \"#utility.yul\":5695:5783   */\n      tag_287\n      jump\t// in\n    tag_355:\n        /* \"#utility.yul\":5815:5819   */\n      0x80\n        /* \"#utility.yul\":5810:5813   */\n      dup4\n        /* \"#utility.yul\":5806:5820   */\n      add\n        /* \"#utility.yul\":5792:5820   */\n      swap1\n      pop\n        /* \"#utility.yul\":5563:5826   */\n      swap3\n      swap2\n      pop\n      pop\n      jump\t// out\n        /* \"#utility.yul\":5832:5966   */\n    tag_289:\n        /* \"#utility.yul\":5923:5927   */\n      0x00\n        /* \"#utility.yul\":5955:5959   */\n      0x20\n        /* \"#utility.yul\":5950:5953   */\n      dup3\n        /* \"#utility.yul\":5946:5960   */\n      add\n        /* \"#utility.yul\":5938:5960   */\n      swap1\n      pop\n        /* \"#utility.yul\":5832:5966   */\n      swap2\n      swap1\n      pop\n      jump\t// out\n        /* \"#utility.yul\":6032:6932   */\n    tag_290:\n        /* \"#utility.yul\":6193:6196   */\n      0x00\n        /* \"#utility.yul\":6222:6297   */\n      tag_358\n        /* \"#utility.yul\":6291:6296   */\n      dup3\n        /* \"#utility.yul\":6222:6297   */\n      tag_277\n      jump\t// in\n    tag_358:\n        /* \"#utility.yul\":6313:6420   */\n      tag_359\n        /* \"#utility.yul\":6413:6419   */\n      dup2\n        /* \"#utility.yul\":6408:6411   */\n      dup6\n        /* \"#utility.yul\":6313:6420   */\n      tag_278\n      jump\t// in\n    tag_359:\n        /* \"#utility.yul\":6306:6420   */\n      swap4\n      pop\n        /* \"#utility.yul\":6444:6521   */\n      tag_360\n        /* \"#utility.yul\":6515:6520   */\n      dup4\n        /* \"#utility.yul\":6444:6521   */\n      tag_279\n      jump\t// in\n    tag_360:\n        /* \"#utility.yul\":6544:6551   */\n      dup1\n        /* \"#utility.yul\":6575:6576   */\n      0x00\n        /* \"#utility.yul\":6560:6907   */\n    tag_361:\n        /* \"#utility.yul\":6585:6591   */\n      dup4\n        /* \"#utility.yul\":6582:6583   */\n      dup2\n        /* \"#utility.yul\":6579:6592   */\n      lt\n        /* \"#utility.yul\":6560:6907   */\n      iszero\n      tag_363\n      jumpi\n        /* \"#utility.yul\":6661:6667   */\n      dup2\n        /* \"#utility.yul\":6655:6668   */\n      mload\n        /* \"#utility.yul\":6688:6793   */\n      tag_364\n        /* \"#utility.yul\":6789:6792   */\n      dup9\n        /* \"#utility.yul\":6774:6787   */\n      dup3\n        /* \"#utility.yul\":6688:6793   */\n      tag_288\n      jump\t// in\n    tag_364:\n        /* \"#utility.yul\":6681:6793   */\n      swap8\n      pop\n        /* \"#utility.yul\":6816:6897   */\n      tag_365\n        /* \"#utility.yul\":6890:6896   */\n      dup4\n        /* \"#utility.yul\":6816:6897   */\n      tag_289\n      jump\t// in\n    tag_365:\n        /* \"#utility.yul\":6806:6897   */\n      swap3\n      pop\n        /* \"#utility.yul\":6620:6907   */\n      pop\n        /* \"#utility.yul\":6607:6608   */\n      0x01\n        /* \"#utility.yul\":6604:6605   */\n      dup2\n        /* \"#utility.yul\":6600:6609   */\n      add\n        /* \"#utility.yul\":6595:6609   */\n      swap1\n      pop\n        /* \"#utility.yul\":6560:6907   */\n      jump(tag_361)\n    tag_363:\n        /* \"#utility.yul\":6564:6578   */\n      pop\n        /* \"#utility.yul\":6923:6926   */\n      dup6\n        /* \"#utility.yul\":6916:6926   */\n      swap4\n      pop\n        /* \"#utility.yul\":6198:6932   */\n      pop\n      pop\n      pop\n        /* \"#utility.yul\":6032:6932   */\n      swap3\n      swap2\n      pop\n      pop\n      jump\t// out\n        /* \"#utility.yul\":6938:7395   */\n    tag_23:\n        /* \"#utility.yul\":7123:7127   */\n      0x00\n        /* \"#utility.yul\":7161:7163   */\n      0x20\n        /* \"#utility.yul\":7150:7159   */\n      dup3\n        /* \"#utility.yul\":7146:7164   */\n      add\n        /* \"#utility.yul\":7138:7164   */\n      swap1\n      pop\n        /* \"#utility.yul\":7210:7219   */\n      dup2\n        /* \"#utility.yul\":7204:7208   */\n      dup2\n        /* \"#utility.yul\":7200:7220   */\n      sub\n        /* \"#utility.yul\":7196:7197   */\n      0x00\n        /* \"#utility.yul\":7185:7194   */\n      dup4\n        /* \"#utility.yul\":7181:7198   */\n      add\n        /* \"#utility.yul\":7174:7221   */\n      mstore\n        /* \"#utility.yul\":7238:7388   */\n      tag_367\n        /* \"#utility.yul\":7383:7387   */\n      dup2\n        /* \"#utility.yul\":7374:7380   */\n      dup5\n        /* \"#utility.yul\":7238:7388   */\n      tag_290\n      jump\t// in\n    tag_367:\n        /* \"#utility.yul\":7230:7388   */\n      swap1\n      pop\n        /* \"#utility.yul\":6938:7395   */\n      swap3\n      swap2\n      pop\n      pop\n      jump\t// out\n        /* \"#utility.yul\":7401:7581   */\n    tag_47:\n        /* \"#utility.yul\":7449:7526   */\n      0x4e487b7100000000000000000000000000000000000000000000000000000000\n        /* \"#utility.yul\":7446:7447   */\n      0x00\n        /* \"#utility.yul\":7439:7527   */\n      mstore\n        /* \"#utility.yul\":7546:7550   */\n      0x32\n        /* \"#utility.yul\":7543:7544   */\n      0x04\n        /* \"#utility.yul\":7536:7551   */\n      mstore\n        /* \"#utility.yul\":7570:7574   */\n      0x24\n        /* \"#utility.yul\":7567:7568   */\n      0x00\n        /* \"#utility.yul\":7560:7575   */\n      revert\n        /* \"#utility.yul\":7587:7767   */\n    tag_291:\n        /* \"#utility.yul\":7635:7712   */\n      0x4e487b7100000000000000000000000000000000000000000000000000000000\n        /* \"#utility.yul\":7632:7633   */\n      0x00\n        /* \"#utility.yul\":7625:7713   */\n      mstore\n        /* \"#utility.yul\":7732:7736   */\n      0x11\n        /* \"#utility.yul\":7729:7730   */\n      0x04\n        /* \"#utility.yul\":7722:7737   */\n      mstore\n        /* \"#utility.yul\":7756:7760   */\n      0x24\n        /* \"#utility.yul\":7753:7754   */\n      0x00\n        /* \"#utility.yul\":7746:7761   */\n      revert\n        /* \"#utility.yul\":7773:8006   */\n    tag_52:\n        /* \"#utility.yul\":7812:7815   */\n      0x00\n        /* \"#utility.yul\":7835:7859   */\n      tag_371\n        /* \"#utility.yul\":7853:7858   */\n      dup3\n        /* \"#utility.yul\":7835:7859   */\n      tag_267\n      jump\t// in\n    tag_371:\n        /* \"#utility.yul\":7826:7859   */\n      swap2\n      pop\n        /* \"#utility.yul\":7881:7947   */\n      0xffffffffffffffffffffffffffffffffffffffffffffffffffffffffffffffff\n        /* \"#utility.yul\":7874:7879   */\n      dup3\n        /* \"#utility.yul\":7871:7948   */\n      sub\n        /* \"#utility.yul\":7868:7971   */\n      tag_372\n      jumpi\n        /* \"#utility.yul\":7951:7969   */\n      tag_373\n      tag_291\n      jump\t// in\n    tag_373:\n        /* \"#utility.yul\":7868:7971   */\n    tag_372:\n        /* \"#utility.yul\":7998:7999   */\n      0x01\n        /* \"#utility.yul\":7991:7996   */\n      dup3\n        /* \"#utility.yul\":7987:8000   */\n      add\n        /* \"#utility.yul\":7980:8000   */\n      swap1\n      pop\n        /* \"#utility.yul\":7773:8006   */\n      swap2\n      swap1\n      pop\n      jump\t// out\n        /* \"#utility.yul\":8012:8181   */\n    tag_292:\n        /* \"#utility.yul\":8096:8107   */\n      0x00\n        /* \"#utility.yul\":8130:8136   */\n      dup3\n        /* \"#utility.yul\":8125:8128   */\n      dup3\n        /* \"#utility.yul\":8118:8137   */\n      mstore\n        /* \"#utility.yul\":8170:8174   */\n      0x20\n        /* \"#utility.yul\":8165:8168   */\n      dup3\n        /* \"#utility.yul\":8161:8175   */\n      add\n        /* \"#utility.yul\":8146:8175   */\n      swap1\n      pop\n        /* \"#utility.yul\":8012:8181   */\n      swap3\n      swap2\n      pop\n      pop\n      jump\t// out\n        /* \"#utility.yul\":8187:8350   */\n    tag_293:\n        /* \"#utility.yul\":8327:8342   */\n      0x4f726465722050656e64696e6700000000000000000000000000000000000000\n        /* \"#utility.yul\":8323:8324   */\n      0x00\n        /* \"#utility.yul\":8315:8321   */\n      dup3\n        /* \"#utility.yul\":8311:8325   */\n      add\n        /* \"#utility.yul\":8304:8343   */\n      mstore\n        /* \"#utility.yul\":8187:8350   */\n      pop\n      jump\t// out\n        /* \"#utility.yul\":8356:8722   */\n    tag_294:\n        /* \"#utility.yul\":8498:8501   */\n      0x00\n        /* \"#utility.yul\":8519:8586   */\n      tag_377\n        /* \"#utility.yul\":8583:8585   */\n      0x0d\n        /* \"#utility.yul\":8578:8581   */\n      dup4\n        /* \"#utility.yul\":8519:8586   */\n      tag_292\n      jump\t// in\n    tag_377:\n        /* \"#utility.yul\":8512:8586   */\n      swap2\n      pop\n        /* \"#utility.yul\":8595:8688   */\n      tag_378\n        /* \"#utility.yul\":8684:8687   */\n      dup3\n        /* \"#utility.yul\":8595:8688   */\n      tag_293\n      jump\t// in\n    tag_378:\n        /* \"#utility.yul\":8713:8715   */\n      0x20\n        /* \"#utility.yul\":8708:8711   */\n      dup3\n        /* \"#utility.yul\":8704:8716   */\n      add\n        /* \"#utility.yul\":8697:8716   */\n      swap1\n      pop\n        /* \"#utility.yul\":8356:8722   */\n      swap2\n      swap1\n      pop\n      jump\t// out\n        /* \"#utility.yul\":8728:9147   */\n    tag_70:\n        /* \"#utility.yul\":8894:8898   */\n      0x00\n        /* \"#utility.yul\":8932:8934   */\n      0x20\n        /* \"#utility.yul\":8921:8930   */\n      dup3\n        /* \"#utility.yul\":8917:8935   */\n      add\n        /* \"#utility.yul\":8909:8935   */\n      swap1\n      pop\n        /* \"#utility.yul\":8981:8990   */\n      dup2\n        /* \"#utility.yul\":8975:8979   */\n      dup2\n        /* \"#utility.yul\":8971:8991   */\n      sub\n        /* \"#utility.yul\":8967:8968   */\n      0x00\n        /* \"#utility.yul\":8956:8965   */\n      dup4\n        /* \"#utility.yul\":8952:8969   */\n      add\n        /* \"#utility.yul\":8945:8992   */\n      mstore\n        /* \"#utility.yul\":9009:9140   */\n      tag_380\n        /* \"#utility.yul\":9135:9139   */\n      dup2\n        /* \"#utility.yul\":9009:9140   */\n      tag_294\n      jump\t// in\n    tag_380:\n        /* \"#utility.yul\":9001:9140   */\n      swap1\n      pop\n        /* \"#utility.yul\":8728:9147   */\n      swap2\n      swap1\n      pop\n      jump\t// out\n        /* \"#utility.yul\":9153:9271   */\n    tag_295:\n        /* \"#utility.yul\":9240:9264   */\n      tag_382\n        /* \"#utility.yul\":9258:9263   */\n      dup2\n        /* \"#utility.yul\":9240:9264   */\n      tag_267\n      jump\t// in\n    tag_382:\n        /* \"#utility.yul\":9235:9238   */\n      dup3\n        /* \"#utility.yul\":9228:9265   */\n      mstore\n        /* \"#utility.yul\":9153:9271   */\n      pop\n      pop\n      jump\t// out\n        /* \"#utility.yul\":9277:9499   */\n    tag_132:\n        /* \"#utility.yul\":9370:9374   */\n      0x00\n        /* \"#utility.yul\":9408:9410   */\n      0x20\n        /* \"#utility.yul\":9397:9406   */\n      dup3\n        /* \"#utility.yul\":9393:9411   */\n      add\n        /* \"#utility.yul\":9385:9411   */\n      swap1\n      pop\n        /* \"#utility.yul\":9421:9492   */\n      tag_384\n        /* \"#utility.yul\":9489:9490   */\n      0x00\n        /* \"#utility.yul\":9478:9487   */\n      dup4\n        /* \"#utility.yul\":9474:9491   */\n      add\n        /* \"#utility.yul\":9465:9471   */\n      dup5\n        /* \"#utility.yul\":9421:9492   */\n      tag_295\n      jump\t// in\n    tag_384:\n        /* \"#utility.yul\":9277:9499   */\n      swap3\n      swap2\n      pop\n      pop\n      jump\t// out\n        /* \"#utility.yul\":9505:9696   */\n    tag_178:\n        /* \"#utility.yul\":9545:9549   */\n      0x00\n        /* \"#utility.yul\":9565:9585   */\n      tag_386\n        /* \"#utility.yul\":9583:9584   */\n      dup3\n        /* \"#utility.yul\":9565:9585   */\n      tag_267\n      jump\t// in\n    tag_386:\n        /* \"#utility.yul\":9560:9585   */\n      swap2\n      pop\n        /* \"#utility.yul\":9599:9619   */\n      tag_387\n        /* \"#utility.yul\":9617:9618   */\n      dup4\n        /* \"#utility.yul\":9599:9619   */\n      tag_267\n      jump\t// in\n    tag_387:\n        /* \"#utility.yul\":9594:9619   */\n      swap3\n      pop\n        /* \"#utility.yul\":9638:9639   */\n      dup3\n        /* \"#utility.yul\":9635:9636   */\n      dup3\n        /* \"#utility.yul\":9632:9640   */\n      lt\n        /* \"#utility.yul\":9629:9663   */\n      iszero\n      tag_388\n      jumpi\n        /* \"#utility.yul\":9643:9661   */\n      tag_389\n      tag_291\n      jump\t// in\n    tag_389:\n        /* \"#utility.yul\":9629:9663   */\n    tag_388:\n        /* \"#utility.yul\":9688:9689   */\n      dup3\n        /* \"#utility.yul\":9685:9686   */\n      dup3\n        /* \"#utility.yul\":9681:9690   */\n      sub\n        /* \"#utility.yul\":9673:9690   */\n      swap1\n      pop\n        /* \"#utility.yul\":9505:9696   */\n      swap3\n      swap2\n      pop\n      pop\n      jump\t// out\n        /* \"#utility.yul\":9702:9778   */\n    tag_296:\n        /* \"#utility.yul\":9738:9745   */\n      0x00\n        /* \"#utility.yul\":9767:9772   */\n      dup2\n        /* \"#utility.yul\":9756:9772   */\n      swap1\n      pop\n        /* \"#utility.yul\":9702:9778   */\n      swap2\n      swap1\n      pop\n      jump\t// out\n        /* \"#utility.yul\":9784:10311   */\n    tag_194:\n        /* \"#utility.yul\":9823:9827   */\n      0x00\n        /* \"#utility.yul\":9843:9862   */\n      tag_392\n        /* \"#utility.yul\":9860:9861   */\n      dup3\n        /* \"#utility.yul\":9843:9862   */\n      tag_296\n      jump\t// in\n    tag_392:\n        /* \"#utility.yul\":9838:9862   */\n      swap2\n      pop\n        /* \"#utility.yul\":9876:9895   */\n      tag_393\n        /* \"#utility.yul\":9893:9894   */\n      dup4\n        /* \"#utility.yul\":9876:9895   */\n      tag_296\n      jump\t// in\n    tag_393:\n        /* \"#utility.yul\":9871:9895   */\n      swap3\n      pop\n        /* \"#utility.yul\":10065:10066   */\n      dup3\n        /* \"#utility.yul\":9997:10063   */\n      0x8000000000000000000000000000000000000000000000000000000000000000\n        /* \"#utility.yul\":9993:10067   */\n      add\n        /* \"#utility.yul\":9990:9991   */\n      dup3\n        /* \"#utility.yul\":9986:10068   */\n      slt\n        /* \"#utility.yul\":9981:9982   */\n      0x00\n        /* \"#utility.yul\":9978:9979   */\n      dup5\n        /* \"#utility.yul\":9974:9983   */\n      slt\n        /* \"#utility.yul\":9967:9984   */\n      iszero\n        /* \"#utility.yul\":9963:10069   */\n      and\n        /* \"#utility.yul\":9960:10092   */\n      iszero\n      tag_394\n      jumpi\n        /* \"#utility.yul\":10072:10090   */\n      tag_395\n      tag_291\n      jump\t// in\n    tag_395:\n        /* \"#utility.yul\":9960:10092   */\n    tag_394:\n        /* \"#utility.yul\":10251:10252   */\n      dup3\n        /* \"#utility.yul\":10183:10249   */\n      0x7fffffffffffffffffffffffffffffffffffffffffffffffffffffffffffffff\n        /* \"#utility.yul\":10179:10253   */\n      add\n        /* \"#utility.yul\":10176:10177   */\n      dup3\n        /* \"#utility.yul\":10172:10254   */\n      sgt\n        /* \"#utility.yul\":10168:10169   */\n      0x00\n        /* \"#utility.yul\":10165:10166   */\n      dup5\n        /* \"#utility.yul\":10161:10170   */\n      slt\n        /* \"#utility.yul\":10157:10255   */\n      and\n        /* \"#utility.yul\":10154:10278   */\n      iszero\n      tag_396\n      jumpi\n        /* \"#utility.yul\":10258:10276   */\n      tag_397\n      tag_291\n      jump\t// in\n    tag_397:\n        /* \"#utility.yul\":10154:10278   */\n    tag_396:\n        /* \"#utility.yul\":10303:10304   */\n      dup3\n        /* \"#utility.yul\":10300:10301   */\n      dup3\n        /* \"#utility.yul\":10296:10305   */\n      sub\n        /* \"#utility.yul\":10288:10305   */\n      swap1\n      pop\n        /* \"#utility.yul\":9784:10311   */\n      swap3\n      swap2\n      pop\n      pop\n      jump\t// out\n        /* \"#utility.yul\":10317:10497   */\n    tag_297:\n        /* \"#utility.yul\":10365:10442   */\n      0x4e487b7100000000000000000000000000000000000000000000000000000000\n        /* \"#utility.yul\":10362:10363   */\n      0x00\n        /* \"#utility.yul\":10355:10443   */\n      mstore\n        /* \"#utility.yul\":10462:10466   */\n      0x12\n        /* \"#utility.yul\":10459:10460   */\n      0x04\n        /* \"#utility.yul\":10452:10467   */\n      mstore\n        /* \"#utility.yul\":10486:10490   */\n      0x24\n        /* \"#utility.yul\":10483:10484   */\n      0x00\n        /* \"#utility.yul\":10476:10491   */\n      revert\n        /* \"#utility.yul\":10503:10888   */\n    tag_196:\n        /* \"#utility.yul\":10542:10543   */\n      0x00\n        /* \"#utility.yul\":10559:10578   */\n      tag_400\n        /* \"#utility.yul\":10576:10577   */\n      dup3\n        /* \"#utility.yul\":10559:10578   */\n      tag_296\n      jump\t// in\n    tag_400:\n        /* \"#utility.yul\":10554:10578   */\n      swap2\n      pop\n        /* \"#utility.yul\":10592:10611   */\n      tag_401\n        /* \"#utility.yul\":10609:10610   */\n      dup4\n        /* \"#utility.yul\":10592:10611   */\n      tag_296\n      jump\t// in\n    tag_401:\n        /* \"#utility.yul\":10587:10611   */\n      swap3\n      pop\n        /* \"#utility.yul\":10630:10631   */\n      dup3\n        /* \"#utility.yul\":10620:10655   */\n      tag_402\n      jumpi\n        /* \"#utility.yul\":10635:10653   */\n      tag_403\n      tag_297\n      jump\t// in\n    tag_403:\n        /* \"#utility.yul\":10620:10655   */\n    tag_402:\n        /* \"#utility.yul\":10821:10822   */\n      0x01\n        /* \"#utility.yul\":10818:10819   */\n      0x00\n        /* \"#utility.yul\":10814:10823   */\n      sub\n        /* \"#utility.yul\":10811:10812   */\n      dup4\n        /* \"#utility.yul\":10808:10824   */\n      eq\n        /* \"#utility.yul\":10727:10793   */\n      0x8000000000000000000000000000000000000000000000000000000000000000\n        /* \"#utility.yul\":10724:10725   */\n      dup4\n        /* \"#utility.yul\":10721:10794   */\n      eq\n        /* \"#utility.yul\":10704:10834   */\n      and\n        /* \"#utility.yul\":10701:10857   */\n      iszero\n      tag_404\n      jumpi\n        /* \"#utility.yul\":10837:10855   */\n      tag_405\n      tag_291\n      jump\t// in\n    tag_405:\n        /* \"#utility.yul\":10701:10857   */\n    tag_404:\n        /* \"#utility.yul\":10880:10881   */\n      dup3\n        /* \"#utility.yul\":10877:10878   */\n      dup3\n        /* \"#utility.yul\":10872:10882   */\n      sdiv\n        /* \"#utility.yul\":10867:10882   */\n      swap1\n      pop\n        /* \"#utility.yul\":10503:10888   */\n      swap3\n      swap2\n      pop\n      pop\n      jump\t// out\n        /* \"#utility.yul\":10894:11419   */\n    tag_198:\n        /* \"#utility.yul\":10933:10936   */\n      0x00\n        /* \"#utility.yul\":10952:10971   */\n      tag_407\n        /* \"#utility.yul\":10969:10970   */\n      dup3\n        /* \"#utility.yul\":10952:10971   */\n      tag_296\n      jump\t// in\n    tag_407:\n        /* \"#utility.yul\":10947:10971   */\n      swap2\n      pop\n        /* \"#utility.yul\":10985:11004   */\n      tag_408\n        /* \"#utility.yul\":11002:11003   */\n      dup4\n        /* \"#utility.yul\":10985:11004   */\n      tag_296\n      jump\t// in\n    tag_408:\n        /* \"#utility.yul\":10980:11004   */\n      swap3\n      pop\n        /* \"#utility.yul\":11173:11174   */\n      dup2\n        /* \"#utility.yul\":11105:11171   */\n      0x7fffffffffffffffffffffffffffffffffffffffffffffffffffffffffffffff\n        /* \"#utility.yul\":11101:11175   */\n      sub\n        /* \"#utility.yul\":11098:11099   */\n      dup4\n        /* \"#utility.yul\":11094:11176   */\n      sgt\n        /* \"#utility.yul\":11089:11090   */\n      0x00\n        /* \"#utility.yul\":11086:11087   */\n      dup4\n        /* \"#utility.yul\":11082:11091   */\n      slt\n        /* \"#utility.yul\":11075:11092   */\n      iszero\n        /* \"#utility.yul\":11071:11177   */\n      and\n        /* \"#utility.yul\":11068:11200   */\n      iszero\n      tag_409\n      jumpi\n        /* \"#utility.yul\":11180:11198   */\n      tag_410\n      tag_291\n      jump\t// in\n    tag_410:\n        /* \"#utility.yul\":11068:11200   */\n    tag_409:\n        /* \"#utility.yul\":11360:11361   */\n      dup2\n        /* \"#utility.yul\":11292:11358   */\n      0x8000000000000000000000000000000000000000000000000000000000000000\n        /* \"#utility.yul\":11288:11362   */\n      sub\n        /* \"#utility.yul\":11285:11286   */\n      dup4\n        /* \"#utility.yul\":11281:11363   */\n      slt\n        /* \"#utility.yul\":11277:11278   */\n      0x00\n        /* \"#utility.yul\":11274:11275   */\n      dup4\n        /* \"#utility.yul\":11270:11279   */\n      slt\n        /* \"#utility.yul\":11266:11364   */\n      and\n        /* \"#utility.yul\":11263:11387   */\n      iszero\n      tag_411\n      jumpi\n        /* \"#utility.yul\":11367:11385   */\n      tag_412\n      tag_291\n      jump\t// in\n    tag_412:\n        /* \"#utility.yul\":11263:11387   */\n    tag_411:\n        /* \"#utility.yul\":11411:11412   */\n      dup3\n        /* \"#utility.yul\":11408:11409   */\n      dup3\n        /* \"#utility.yul\":11404:11413   */\n      add\n        /* \"#utility.yul\":11397:11413   */\n      swap1\n      pop\n        /* \"#utility.yul\":10894:11419   */\n      swap3\n      swap2\n      pop\n      pop\n      jump\t// out\n        /* \"#utility.yul\":11425:11656   */\n    tag_208:\n        /* \"#utility.yul\":11463:11466   */\n      0x00\n        /* \"#utility.yul\":11486:11509   */\n      tag_414\n        /* \"#utility.yul\":11503:11508   */\n      dup3\n        /* \"#utility.yul\":11486:11509   */\n      tag_296\n      jump\t// in\n    tag_414:\n        /* \"#utility.yul\":11477:11509   */\n      swap2\n      pop\n        /* \"#utility.yul\":11531:11597   */\n      0x7fffffffffffffffffffffffffffffffffffffffffffffffffffffffffffffff\n        /* \"#utility.yul\":11524:11529   */\n      dup3\n        /* \"#utility.yul\":11521:11598   */\n      sub\n        /* \"#utility.yul\":11518:11621   */\n      tag_415\n      jumpi\n        /* \"#utility.yul\":11601:11619   */\n      tag_416\n      tag_291\n      jump\t// in\n    tag_416:\n        /* \"#utility.yul\":11518:11621   */\n    tag_415:\n        /* \"#utility.yul\":11648:11649   */\n      0x01\n        /* \"#utility.yul\":11641:11646   */\n      dup3\n        /* \"#utility.yul\":11637:11650   */\n      add\n        /* \"#utility.yul\":11630:11650   */\n      swap1\n      pop\n        /* \"#utility.yul\":11425:11656   */\n      swap2\n      swap1\n      pop\n      jump\t// out\n        /* \"#utility.yul\":11662:11893   */\n    tag_214:\n        /* \"#utility.yul\":11700:11703   */\n      0x00\n        /* \"#utility.yul\":11723:11746   */\n      tag_418\n        /* \"#utility.yul\":11740:11745   */\n      dup3\n        /* \"#utility.yul\":11723:11746   */\n      tag_296\n      jump\t// in\n    tag_418:\n        /* \"#utility.yul\":11714:11746   */\n      swap2\n      pop\n        /* \"#utility.yul\":11768:11834   */\n      0x8000000000000000000000000000000000000000000000000000000000000000\n        /* \"#utility.yul\":11761:11766   */\n      dup3\n        /* \"#utility.yul\":11758:11835   */\n      sub\n        /* \"#utility.yul\":11755:11858   */\n      tag_419\n      jumpi\n        /* \"#utility.yul\":11838:11856   */\n      tag_420\n      tag_291\n      jump\t// in\n    tag_420:\n        /* \"#utility.yul\":11755:11858   */\n    tag_419:\n        /* \"#utility.yul\":11885:11886   */\n      0x01\n        /* \"#utility.yul\":11878:11883   */\n      dup3\n        /* \"#utility.yul\":11874:11887   */\n      sub\n        /* \"#utility.yul\":11867:11887   */\n      swap1\n      pop\n        /* \"#utility.yul\":11662:11893   */\n      swap2\n      swap1\n      pop\n      jump\t// out\n\n    auxdata: 0xa2646970667358221220f9d8ab65e0fc3a6d0dfa7eb398085005960f6800ba296809c2c5668152d0a2a864736f6c634300080d0033\n}\n",
				"bytecode": {
					"linkReferences": {},
					"object": "608060405234801561001057600080fd5b50611b16806100206000396000f3fe608060405234801561001057600080fd5b50600436106100885760003560e01c80639703ef351161005b5780639703ef35146101015780639979ef451461011d578063c5374af214610139578063ce0cdc871461015757610088565b8063122de8f21461008d5780631628e0f5146100ab5780634471417f146100c757806378c5b268146100e5575b600080fd5b610095610175565b6040516100a291906114a6565b60405180910390f35b6100c560048036038101906100c091906114f9565b61029b565b005b6100cf61059b565b6040516100dc91906116e2565b60405180910390f35b6100ff60048036038101906100fa91906114f9565b61069f565b005b61011b600480360381019061011691906114f9565b6107aa565b005b610137600480360381019061013291906114f9565b610ae1565b005b610141610bec565b60405161014e91906116e2565b60405180910390f35b61015f610cf0565b60405161016c91906114a6565b60405180910390f35b606061017f610e16565b60005b600180549050811015610244573373ffffffffffffffffffffffffffffffffffffffff16600182815481106101ba576101b9611704565b5b906000526020600020906004020160000160009054906101000a900473ffffffffffffffffffffffffffffffffffffffff1673ffffffffffffffffffffffffffffffffffffffff16036102315760028190806001815401808255809150506001900390600052602060002001600090919091909150555b808061023c90611762565b915050610182565b50600280548060200260200160405190810160405280929190818152602001828054801561029157602002820191906000526020600020905b81548152602001906001019080831161027d575b5050505050905090565b600181815481106102af576102ae611704565b5b90600052602060002090600402016040518060800160405290816000820160009054906101000a900473ffffffffffffffffffffffffffffffffffffffff1673ffffffffffffffffffffffffffffffffffffffff1673ffffffffffffffffffffffffffffffffffffffff16815260200160018201548152602001600282015481526020016003820160009054906101000a900460ff16600181111561035757610356611593565b5b600181111561036957610368611593565b5b815250506000600181111561038157610380611593565b5b8160600151600181111561039857610397611593565b5b146103d8576040517f08c379a00000000000000000000000000000000000000000000000000000000081526004016103cf90611807565b60405180910390fd5b600182815481106103ec576103eb611704565b5b90600052602060002090600402016040518060800160405290816000820160009054906101000a900473ffffffffffffffffffffffffffffffffffffffff1673ffffffffffffffffffffffffffffffffffffffff1673ffffffffffffffffffffffffffffffffffffffff16815260200160018201548152602001600282015481526020016003820160009054906101000a900460ff16600181111561049457610493611593565b5b60018111156104a6576104a5611593565b5b81525050338073ffffffffffffffffffffffffffffffffffffffff16826000015173ffffffffffffffffffffffffffffffffffffffff161461051d576040517f08c379a000000000000000000000000000000000000000000000000000000000815260040161051490611807565b60405180910390fd5b6001848154811061053157610530611704565b5b9060005260206000209060040201600080820160006101000a81549073ffffffffffffffffffffffffffffffffffffffff0219169055600182016000905560028201600090556003820160006101000a81549060ff02191690555050610595610e5e565b50505050565b60606000805480602002602001604051908101604052809291908181526020016000905b8282101561069657838290600052602060002090600402016040518060800160405290816000820160009054906101000a900473ffffffffffffffffffffffffffffffffffffffff1673ffffffffffffffffffffffffffffffffffffffff1673ffffffffffffffffffffffffffffffffffffffff16815260200160018201548152602001600282015481526020016003820160009054906101000a900460ff16600181111561067157610670611593565b5b600181111561068357610682611593565b5b81525050815260200190600101906105bf565b50505050905090565b600060405180608001604052803373ffffffffffffffffffffffffffffffffffffffff168152602001838152602001428152602001600060018111156106e8576106e7611593565b5b8152509050600181908060018154018082558091505060019003906000526020600020906004020160009091909190915060008201518160000160006101000a81548173ffffffffffffffffffffffffffffffffffffffff021916908373ffffffffffffffffffffffffffffffffffffffff160217905550602082015181600101556040820151816002015560608201518160030160006101000a81548160ff0219169083600181111561079f5761079e611593565b5b021790555050505050565b600081815481106107be576107bd611704565b5b90600052602060002090600402016040518060800160405290816000820160009054906101000a900473ffffffffffffffffffffffffffffffffffffffff1673ffffffffffffffffffffffffffffffffffffffff1673ffffffffffffffffffffffffffffffffffffffff16815260200160018201548152602001600282015481526020016003820160009054906101000a900460ff16600181111561086657610865611593565b5b600181111561087857610877611593565b5b81525050600060018111156108905761088f611593565b5b816060015160018111156108a7576108a6611593565b5b146108e7576040517f08c379a00000000000000000000000000000000000000000000000000000000081526004016108de90611807565b60405180910390fd5b600082815481106108fb576108fa611704565b5b90600052602060002090600402016040518060800160405290816000820160009054906101000a900473ffffffffffffffffffffffffffffffffffffffff1673ffffffffffffffffffffffffffffffffffffffff1673ffffffffffffffffffffffffffffffffffffffff16815260200160018201548152602001600282015481526020016003820160009054906101000a900460ff1660018111156109a3576109a2611593565b5b60018111156109b5576109b4611593565b5b81525050338073ffffffffffffffffffffffffffffffffffffffff16826000015173ffffffffffffffffffffffffffffffffffffffff1614610a2c576040517f08c379a0000000000000000000000000000000000000000000000000000000008152600401610a2390611807565b60405180910390fd5b60008481548110610a4057610a3f611704565b5b9060005260206000209060040201600080820160006101000a81549073ffffffffffffffffffffffffffffffffffffffff0219169055600182016000905560028201600090556003820160006101000a81549060ff02191690555050610aa4610f79565b7fc845a6832afa0a4048dd70bbba2186093508a6b63a8d5d70a508f819fef257f884604051610ad39190611836565b60405180910390a150505050565b600060405180608001604052803373ffffffffffffffffffffffffffffffffffffffff16815260200183815260200142815260200160006001811115610b2a57610b29611593565b5b8152509050600081908060018154018082558091505060019003906000526020600020906004020160009091909190915060008201518160000160006101000a81548173ffffffffffffffffffffffffffffffffffffffff021916908373ffffffffffffffffffffffffffffffffffffffff160217905550602082015181600101556040820151816002015560608201518160030160006101000a81548160ff02191690836001811115610be157610be0611593565b5b021790555050505050565b60606001805480602002602001604051908101604052809291908181526020016000905b82821015610ce757838290600052602060002090600402016040518060800160405290816000820160009054906101000a900473ffffffffffffffffffffffffffffffffffffffff1673ffffffffffffffffffffffffffffffffffffffff1673ffffffffffffffffffffffffffffffffffffffff16815260200160018201548152602001600282015481526020016003820160009054906101000a900460ff166001811115610cc257610cc1611593565b5b6001811115610cd457610cd3611593565b5b8152505081526020019060010190610c10565b50505050905090565b6060610cfa610e16565b60005b600080549050811015610dbf573373ffffffffffffffffffffffffffffffffffffffff1660008281548110610d3557610d34611704565b5b906000526020600020906004020160000160009054906101000a900473ffffffffffffffffffffffffffffffffffffffff1673ffffffffffffffffffffffffffffffffffffffff1603610dac5760028190806001815401808255809150506001900390600052602060002001600090919091909150555b8080610db790611762565b915050610cfd565b506002805480602002602001604051908101604052809291908181526020018280548015610e0c57602002820191906000526020600020905b815481526020019060010190808311610df8575b5050505050905090565b60005b600280549050811015610e5b5760028181548110610e3a57610e39611704565b5b90600052602060002001600090558080610e5390611762565b915050610e19565b50565b610f776000805480602002602001604051908101604052809291908181526020016000905b82821015610f5a57838290600052602060002090600402016040518060800160405290816000820160009054906101000a900473ffffffffffffffffffffffffffffffffffffffff1673ffffffffffffffffffffffffffffffffffffffff1673ffffffffffffffffffffffffffffffffffffffff16815260200160018201548152602001600282015481526020016003820160009054906101000a900460ff166001811115610f3557610f34611593565b5b6001811115610f4757610f46611593565b5b8152505081526020019060010190610e83565b5050505060006001600080549050610f729190611851565b611094565b565b6110926000805480602002602001604051908101604052809291908181526020016000905b8282101561107557838290600052602060002090600402016040518060800160405290816000820160009054906101000a900473ffffffffffffffffffffffffffffffffffffffff1673ffffffffffffffffffffffffffffffffffffffff1673ffffffffffffffffffffffffffffffffffffffff16815260200160018201548152602001600282015481526020016003820160009054906101000a900460ff1660018111156110505761104f611593565b5b600181111561106257611061611593565b5b8152505081526020019060010190610f9e565b505050506000600160008054905061108d9190611851565b611239565b565b600082905060008290508082036110ac575050611234565b600085600286866110bd919061188f565b6110c79190611952565b866110d291906119bc565b815181106110e3576110e2611704565b5b60200260200101516040015190505b818313611208575b8086848151811061110e5761110d611704565b5b602002602001015160400151111561113357828061112b90611a50565b9350506110fa565b5b85828151811061114757611146611704565b5b60200260200101516040015181111561116d57818061116590611a98565b925050611134565b8183136112035785828151811061118757611186611704565b5b60200260200101518684815181106111a2576111a1611704565b5b60200260200101518785815181106111bd576111bc611704565b5b602002602001018885815181106111d7576111d6611704565b5b60200260200101829052829052505082806111f190611a50565b93505081806111ff90611a98565b9250505b6110f2565b8185121561121c5761121b868684611094565b5b838312156112305761122f868486611094565b5b5050505b505050565b600082905060008290508082036112515750506113d9565b60008560028686611262919061188f565b61126c9190611952565b8661127791906119bc565b8151811061128857611287611704565b5b60200260200101516040015190505b8183136113ad575b808684815181106112b3576112b2611704565b5b60200260200101516040015110156112d85782806112d090611a50565b93505061129f565b5b8582815181106112ec576112eb611704565b5b60200260200101516040015181101561131257818061130a90611a98565b9250506112d9565b8183136113a85785828151811061132c5761132b611704565b5b602002602001015186848151811061134757611346611704565b5b602002602001015187858151811061136257611361611704565b5b6020026020010188858151811061137c5761137b611704565b5b602002602001018290528290525050828061139690611a50565b93505081806113a490611a98565b9250505b611297565b818512156113c1576113c0868684611239565b5b838312156113d5576113d4868486611239565b5b5050505b505050565b600081519050919050565b600082825260208201905092915050565b6000819050602082019050919050565b6000819050919050565b61141d8161140a565b82525050565b600061142f8383611414565b60208301905092915050565b6000602082019050919050565b6000611453826113de565b61145d81856113e9565b9350611468836113fa565b8060005b838110156114995781516114808882611423565b975061148b8361143b565b92505060018101905061146c565b5085935050505092915050565b600060208201905081810360008301526114c08184611448565b905092915050565b600080fd5b6114d68161140a565b81146114e157600080fd5b50565b6000813590506114f3816114cd565b92915050565b60006020828403121561150f5761150e6114c8565b5b600061151d848285016114e4565b91505092915050565b600081519050919050565b600082825260208201905092915050565b6000819050602082019050919050565b600073ffffffffffffffffffffffffffffffffffffffff82169050919050565b600061157d82611552565b9050919050565b61158d81611572565b82525050565b7f4e487b7100000000000000000000000000000000000000000000000000000000600052602160045260246000fd5b600281106115d3576115d2611593565b5b50565b60008190506115e4826115c2565b919050565b60006115f4826115d6565b9050919050565b611604816115e9565b82525050565b6080820160008201516116206000850182611584565b5060208201516116336020850182611414565b5060408201516116466040850182611414565b50606082015161165960608501826115fb565b50505050565b600061166b838361160a565b60808301905092915050565b6000602082019050919050565b600061168f82611526565b6116998185611531565b93506116a483611542565b8060005b838110156116d55781516116bc888261165f565b97506116c783611677565b9250506001810190506116a8565b5085935050505092915050565b600060208201905081810360008301526116fc8184611684565b905092915050565b7f4e487b7100000000000000000000000000000000000000000000000000000000600052603260045260246000fd5b7f4e487b7100000000000000000000000000000000000000000000000000000000600052601160045260246000fd5b600061176d8261140a565b91507fffffffffffffffffffffffffffffffffffffffffffffffffffffffffffffffff820361179f5761179e611733565b5b600182019050919050565b600082825260208201905092915050565b7f4f726465722050656e64696e6700000000000000000000000000000000000000600082015250565b60006117f1600d836117aa565b91506117fc826117bb565b602082019050919050565b60006020820190508181036000830152611820816117e4565b9050919050565b6118308161140a565b82525050565b600060208201905061184b6000830184611827565b92915050565b600061185c8261140a565b91506118678361140a565b92508282101561187a57611879611733565b5b828203905092915050565b6000819050919050565b600061189a82611885565b91506118a583611885565b9250827f8000000000000000000000000000000000000000000000000000000000000000018212600084121516156118e0576118df611733565b5b827f7fffffffffffffffffffffffffffffffffffffffffffffffffffffffffffffff01821360008412161561191857611917611733565b5b828203905092915050565b7f4e487b7100000000000000000000000000000000000000000000000000000000600052601260045260246000fd5b600061195d82611885565b915061196883611885565b92508261197857611977611923565b5b600160000383147f8000000000000000000000000000000000000000000000000000000000000000831416156119b1576119b0611733565b5b828205905092915050565b60006119c782611885565b91506119d283611885565b9250817f7fffffffffffffffffffffffffffffffffffffffffffffffffffffffffffffff03831360008312151615611a0d57611a0c611733565b5b817f8000000000000000000000000000000000000000000000000000000000000000038312600083121615611a4557611a44611733565b5b828201905092915050565b6000611a5b82611885565b91507f7fffffffffffffffffffffffffffffffffffffffffffffffffffffffffffffff8203611a8d57611a8c611733565b5b600182019050919050565b6000611aa382611885565b91507f80000000000000000000000000000000000000000000000000000000000000008203611ad557611ad4611733565b5b60018203905091905056fea2646970667358221220f9d8ab65e0fc3a6d0dfa7eb398085005960f6800ba296809c2c5668152d0a2a864736f6c634300080d0033",
					"opcodes": "PUSH1 0x80 PUSH1 0x40 MSTORE CALLVALUE DUP1 ISZERO PUSH2 0x10 JUMPI PUSH1 0x0 DUP1 REVERT JUMPDEST POP PUSH2 0x1B16 DUP1 PUSH2 0x20 PUSH1 0x0 CODECOPY PUSH1 0x0 RETURN INVALID PUSH1 0x80 PUSH1 0x40 MSTORE CALLVALUE DUP1 ISZERO PUSH2 0x10 JUMPI PUSH1 0x0 DUP1 REVERT JUMPDEST POP PUSH1 0x4 CALLDATASIZE LT PUSH2 0x88 JUMPI PUSH1 0x0 CALLDATALOAD PUSH1 0xE0 SHR DUP1 PUSH4 0x9703EF35 GT PUSH2 0x5B JUMPI DUP1 PUSH4 0x9703EF35 EQ PUSH2 0x101 JUMPI DUP1 PUSH4 0x9979EF45 EQ PUSH2 0x11D JUMPI DUP1 PUSH4 0xC5374AF2 EQ PUSH2 0x139 JUMPI DUP1 PUSH4 0xCE0CDC87 EQ PUSH2 0x157 JUMPI PUSH2 0x88 JUMP JUMPDEST DUP1 PUSH4 0x122DE8F2 EQ PUSH2 0x8D JUMPI DUP1 PUSH4 0x1628E0F5 EQ PUSH2 0xAB JUMPI DUP1 PUSH4 0x4471417F EQ PUSH2 0xC7 JUMPI DUP1 PUSH4 0x78C5B268 EQ PUSH2 0xE5 JUMPI JUMPDEST PUSH1 0x0 DUP1 REVERT JUMPDEST PUSH2 0x95 PUSH2 0x175 JUMP JUMPDEST PUSH1 0x40 MLOAD PUSH2 0xA2 SWAP2 SWAP1 PUSH2 0x14A6 JUMP JUMPDEST PUSH1 0x40 MLOAD DUP1 SWAP2 SUB SWAP1 RETURN JUMPDEST PUSH2 0xC5 PUSH1 0x4 DUP1 CALLDATASIZE SUB DUP2 ADD SWAP1 PUSH2 0xC0 SWAP2 SWAP1 PUSH2 0x14F9 JUMP JUMPDEST PUSH2 0x29B JUMP JUMPDEST STOP JUMPDEST PUSH2 0xCF PUSH2 0x59B JUMP JUMPDEST PUSH1 0x40 MLOAD PUSH2 0xDC SWAP2 SWAP1 PUSH2 0x16E2 JUMP JUMPDEST PUSH1 0x40 MLOAD DUP1 SWAP2 SUB SWAP1 RETURN JUMPDEST PUSH2 0xFF PUSH1 0x4 DUP1 CALLDATASIZE SUB DUP2 ADD SWAP1 PUSH2 0xFA SWAP2 SWAP1 PUSH2 0x14F9 JUMP JUMPDEST PUSH2 0x69F JUMP JUMPDEST STOP JUMPDEST PUSH2 0x11B PUSH1 0x4 DUP1 CALLDATASIZE SUB DUP2 ADD SWAP1 PUSH2 0x116 SWAP2 SWAP1 PUSH2 0x14F9 JUMP JUMPDEST PUSH2 0x7AA JUMP JUMPDEST STOP JUMPDEST PUSH2 0x137 PUSH1 0x4 DUP1 CALLDATASIZE SUB DUP2 ADD SWAP1 PUSH2 0x132 SWAP2 SWAP1 PUSH2 0x14F9 JUMP JUMPDEST PUSH2 0xAE1 JUMP JUMPDEST STOP JUMPDEST PUSH2 0x141 PUSH2 0xBEC JUMP JUMPDEST PUSH1 0x40 MLOAD PUSH2 0x14E SWAP2 SWAP1 PUSH2 0x16E2 JUMP JUMPDEST PUSH1 0x40 MLOAD DUP1 SWAP2 SUB SWAP1 RETURN JUMPDEST PUSH2 0x15F PUSH2 0xCF0 JUMP JUMPDEST PUSH1 0x40 MLOAD PUSH2 0x16C SWAP2 SWAP1 PUSH2 0x14A6 JUMP JUMPDEST PUSH1 0x40 MLOAD DUP1 SWAP2 SUB SWAP1 RETURN JUMPDEST PUSH1 0x60 PUSH2 0x17F PUSH2 0xE16 JUMP JUMPDEST PUSH1 0x0 JUMPDEST PUSH1 0x1 DUP1 SLOAD SWAP1 POP DUP2 LT ISZERO PUSH2 0x244 JUMPI CALLER PUSH20 0xFFFFFFFFFFFFFFFFFFFFFFFFFFFFFFFFFFFFFFFF AND PUSH1 0x1 DUP3 DUP2 SLOAD DUP2 LT PUSH2 0x1BA JUMPI PUSH2 0x1B9 PUSH2 0x1704 JUMP JUMPDEST JUMPDEST SWAP1 PUSH1 0x0 MSTORE PUSH1 0x20 PUSH1 0x0 KECCAK256 SWAP1 PUSH1 0x4 MUL ADD PUSH1 0x0 ADD PUSH1 0x0 SWAP1 SLOAD SWAP1 PUSH2 0x100 EXP SWAP1 DIV PUSH20 0xFFFFFFFFFFFFFFFFFFFFFFFFFFFFFFFFFFFFFFFF AND PUSH20 0xFFFFFFFFFFFFFFFFFFFFFFFFFFFFFFFFFFFFFFFF AND SUB PUSH2 0x231 JUMPI PUSH1 0x2 DUP2 SWAP1 DUP1 PUSH1 0x1 DUP2 SLOAD ADD DUP1 DUP3 SSTORE DUP1 SWAP2 POP POP PUSH1 0x1 SWAP1 SUB SWAP1 PUSH1 0x0 MSTORE PUSH1 0x20 PUSH1 0x0 KECCAK256 ADD PUSH1 0x0 SWAP1 SWAP2 SWAP1 SWAP2 SWAP1 SWAP2 POP SSTORE JUMPDEST DUP1 DUP1 PUSH2 0x23C SWAP1 PUSH2 0x1762 JUMP JUMPDEST SWAP2 POP POP PUSH2 0x182 JUMP JUMPDEST POP PUSH1 0x2 DUP1 SLOAD DUP1 PUSH1 0x20 MUL PUSH1 0x20 ADD PUSH1 0x40 MLOAD SWAP1 DUP2 ADD PUSH1 0x40 MSTORE DUP1 SWAP3 SWAP2 SWAP1 DUP2 DUP2 MSTORE PUSH1 0x20 ADD DUP3 DUP1 SLOAD DUP1 ISZERO PUSH2 0x291 JUMPI PUSH1 0x20 MUL DUP3 ADD SWAP2 SWAP1 PUSH1 0x0 MSTORE PUSH1 0x20 PUSH1 0x0 KECCAK256 SWAP1 JUMPDEST DUP2 SLOAD DUP2 MSTORE PUSH1 0x20 ADD SWAP1 PUSH1 0x1 ADD SWAP1 DUP1 DUP4 GT PUSH2 0x27D JUMPI JUMPDEST POP POP POP POP POP SWAP1 POP SWAP1 JUMP JUMPDEST PUSH1 0x1 DUP2 DUP2 SLOAD DUP2 LT PUSH2 0x2AF JUMPI PUSH2 0x2AE PUSH2 0x1704 JUMP JUMPDEST JUMPDEST SWAP1 PUSH1 0x0 MSTORE PUSH1 0x20 PUSH1 0x0 KECCAK256 SWAP1 PUSH1 0x4 MUL ADD PUSH1 0x40 MLOAD DUP1 PUSH1 0x80 ADD PUSH1 0x40 MSTORE SWAP1 DUP2 PUSH1 0x0 DUP3 ADD PUSH1 0x0 SWAP1 SLOAD SWAP1 PUSH2 0x100 EXP SWAP1 DIV PUSH20 0xFFFFFFFFFFFFFFFFFFFFFFFFFFFFFFFFFFFFFFFF AND PUSH20 0xFFFFFFFFFFFFFFFFFFFFFFFFFFFFFFFFFFFFFFFF AND PUSH20 0xFFFFFFFFFFFFFFFFFFFFFFFFFFFFFFFFFFFFFFFF AND DUP2 MSTORE PUSH1 0x20 ADD PUSH1 0x1 DUP3 ADD SLOAD DUP2 MSTORE PUSH1 0x20 ADD PUSH1 0x2 DUP3 ADD SLOAD DUP2 MSTORE PUSH1 0x20 ADD PUSH1 0x3 DUP3 ADD PUSH1 0x0 SWAP1 SLOAD SWAP1 PUSH2 0x100 EXP SWAP1 DIV PUSH1 0xFF AND PUSH1 0x1 DUP2 GT ISZERO PUSH2 0x357 JUMPI PUSH2 0x356 PUSH2 0x1593 JUMP JUMPDEST JUMPDEST PUSH1 0x1 DUP2 GT ISZERO PUSH2 0x369 JUMPI PUSH2 0x368 PUSH2 0x1593 JUMP JUMPDEST JUMPDEST DUP2 MSTORE POP POP PUSH1 0x0 PUSH1 0x1 DUP2 GT ISZERO PUSH2 0x381 JUMPI PUSH2 0x380 PUSH2 0x1593 JUMP JUMPDEST JUMPDEST DUP2 PUSH1 0x60 ADD MLOAD PUSH1 0x1 DUP2 GT ISZERO PUSH2 0x398 JUMPI PUSH2 0x397 PUSH2 0x1593 JUMP JUMPDEST JUMPDEST EQ PUSH2 0x3D8 JUMPI PUSH1 0x40 MLOAD PUSH32 0x8C379A000000000000000000000000000000000000000000000000000000000 DUP2 MSTORE PUSH1 0x4 ADD PUSH2 0x3CF SWAP1 PUSH2 0x1807 JUMP JUMPDEST PUSH1 0x40 MLOAD DUP1 SWAP2 SUB SWAP1 REVERT JUMPDEST PUSH1 0x1 DUP3 DUP2 SLOAD DUP2 LT PUSH2 0x3EC JUMPI PUSH2 0x3EB PUSH2 0x1704 JUMP JUMPDEST JUMPDEST SWAP1 PUSH1 0x0 MSTORE PUSH1 0x20 PUSH1 0x0 KECCAK256 SWAP1 PUSH1 0x4 MUL ADD PUSH1 0x40 MLOAD DUP1 PUSH1 0x80 ADD PUSH1 0x40 MSTORE SWAP1 DUP2 PUSH1 0x0 DUP3 ADD PUSH1 0x0 SWAP1 SLOAD SWAP1 PUSH2 0x100 EXP SWAP1 DIV PUSH20 0xFFFFFFFFFFFFFFFFFFFFFFFFFFFFFFFFFFFFFFFF AND PUSH20 0xFFFFFFFFFFFFFFFFFFFFFFFFFFFFFFFFFFFFFFFF AND PUSH20 0xFFFFFFFFFFFFFFFFFFFFFFFFFFFFFFFFFFFFFFFF AND DUP2 MSTORE PUSH1 0x20 ADD PUSH1 0x1 DUP3 ADD SLOAD DUP2 MSTORE PUSH1 0x20 ADD PUSH1 0x2 DUP3 ADD SLOAD DUP2 MSTORE PUSH1 0x20 ADD PUSH1 0x3 DUP3 ADD PUSH1 0x0 SWAP1 SLOAD SWAP1 PUSH2 0x100 EXP SWAP1 DIV PUSH1 0xFF AND PUSH1 0x1 DUP2 GT ISZERO PUSH2 0x494 JUMPI PUSH2 0x493 PUSH2 0x1593 JUMP JUMPDEST JUMPDEST PUSH1 0x1 DUP2 GT ISZERO PUSH2 0x4A6 JUMPI PUSH2 0x4A5 PUSH2 0x1593 JUMP JUMPDEST JUMPDEST DUP2 MSTORE POP POP CALLER DUP1 PUSH20 0xFFFFFFFFFFFFFFFFFFFFFFFFFFFFFFFFFFFFFFFF AND DUP3 PUSH1 0x0 ADD MLOAD PUSH20 0xFFFFFFFFFFFFFFFFFFFFFFFFFFFFFFFFFFFFFFFF AND EQ PUSH2 0x51D JUMPI PUSH1 0x40 MLOAD PUSH32 0x8C379A000000000000000000000000000000000000000000000000000000000 DUP2 MSTORE PUSH1 0x4 ADD PUSH2 0x514 SWAP1 PUSH2 0x1807 JUMP JUMPDEST PUSH1 0x40 MLOAD DUP1 SWAP2 SUB SWAP1 REVERT JUMPDEST PUSH1 0x1 DUP5 DUP2 SLOAD DUP2 LT PUSH2 0x531 JUMPI PUSH2 0x530 PUSH2 0x1704 JUMP JUMPDEST JUMPDEST SWAP1 PUSH1 0x0 MSTORE PUSH1 0x20 PUSH1 0x0 KECCAK256 SWAP1 PUSH1 0x4 MUL ADD PUSH1 0x0 DUP1 DUP3 ADD PUSH1 0x0 PUSH2 0x100 EXP DUP2 SLOAD SWAP1 PUSH20 0xFFFFFFFFFFFFFFFFFFFFFFFFFFFFFFFFFFFFFFFF MUL NOT AND SWAP1 SSTORE PUSH1 0x1 DUP3 ADD PUSH1 0x0 SWAP1 SSTORE PUSH1 0x2 DUP3 ADD PUSH1 0x0 SWAP1 SSTORE PUSH1 0x3 DUP3 ADD PUSH1 0x0 PUSH2 0x100 EXP DUP2 SLOAD SWAP1 PUSH1 0xFF MUL NOT AND SWAP1 SSTORE POP POP PUSH2 0x595 PUSH2 0xE5E JUMP JUMPDEST POP POP POP POP JUMP JUMPDEST PUSH1 0x60 PUSH1 0x0 DUP1 SLOAD DUP1 PUSH1 0x20 MUL PUSH1 0x20 ADD PUSH1 0x40 MLOAD SWAP1 DUP2 ADD PUSH1 0x40 MSTORE DUP1 SWAP3 SWAP2 SWAP1 DUP2 DUP2 MSTORE PUSH1 0x20 ADD PUSH1 0x0 SWAP1 JUMPDEST DUP3 DUP3 LT ISZERO PUSH2 0x696 JUMPI DUP4 DUP3 SWAP1 PUSH1 0x0 MSTORE PUSH1 0x20 PUSH1 0x0 KECCAK256 SWAP1 PUSH1 0x4 MUL ADD PUSH1 0x40 MLOAD DUP1 PUSH1 0x80 ADD PUSH1 0x40 MSTORE SWAP1 DUP2 PUSH1 0x0 DUP3 ADD PUSH1 0x0 SWAP1 SLOAD SWAP1 PUSH2 0x100 EXP SWAP1 DIV PUSH20 0xFFFFFFFFFFFFFFFFFFFFFFFFFFFFFFFFFFFFFFFF AND PUSH20 0xFFFFFFFFFFFFFFFFFFFFFFFFFFFFFFFFFFFFFFFF AND PUSH20 0xFFFFFFFFFFFFFFFFFFFFFFFFFFFFFFFFFFFFFFFF AND DUP2 MSTORE PUSH1 0x20 ADD PUSH1 0x1 DUP3 ADD SLOAD DUP2 MSTORE PUSH1 0x20 ADD PUSH1 0x2 DUP3 ADD SLOAD DUP2 MSTORE PUSH1 0x20 ADD PUSH1 0x3 DUP3 ADD PUSH1 0x0 SWAP1 SLOAD SWAP1 PUSH2 0x100 EXP SWAP1 DIV PUSH1 0xFF AND PUSH1 0x1 DUP2 GT ISZERO PUSH2 0x671 JUMPI PUSH2 0x670 PUSH2 0x1593 JUMP JUMPDEST JUMPDEST PUSH1 0x1 DUP2 GT ISZERO PUSH2 0x683 JUMPI PUSH2 0x682 PUSH2 0x1593 JUMP JUMPDEST JUMPDEST DUP2 MSTORE POP POP DUP2 MSTORE PUSH1 0x20 ADD SWAP1 PUSH1 0x1 ADD SWAP1 PUSH2 0x5BF JUMP JUMPDEST POP POP POP POP SWAP1 POP SWAP1 JUMP JUMPDEST PUSH1 0x0 PUSH1 0x40 MLOAD DUP1 PUSH1 0x80 ADD PUSH1 0x40 MSTORE DUP1 CALLER PUSH20 0xFFFFFFFFFFFFFFFFFFFFFFFFFFFFFFFFFFFFFFFF AND DUP2 MSTORE PUSH1 0x20 ADD DUP4 DUP2 MSTORE PUSH1 0x20 ADD TIMESTAMP DUP2 MSTORE PUSH1 0x20 ADD PUSH1 0x0 PUSH1 0x1 DUP2 GT ISZERO PUSH2 0x6E8 JUMPI PUSH2 0x6E7 PUSH2 0x1593 JUMP JUMPDEST JUMPDEST DUP2 MSTORE POP SWAP1 POP PUSH1 0x1 DUP2 SWAP1 DUP1 PUSH1 0x1 DUP2 SLOAD ADD DUP1 DUP3 SSTORE DUP1 SWAP2 POP POP PUSH1 0x1 SWAP1 SUB SWAP1 PUSH1 0x0 MSTORE PUSH1 0x20 PUSH1 0x0 KECCAK256 SWAP1 PUSH1 0x4 MUL ADD PUSH1 0x0 SWAP1 SWAP2 SWAP1 SWAP2 SWAP1 SWAP2 POP PUSH1 0x0 DUP3 ADD MLOAD DUP2 PUSH1 0x0 ADD PUSH1 0x0 PUSH2 0x100 EXP DUP2 SLOAD DUP2 PUSH20 0xFFFFFFFFFFFFFFFFFFFFFFFFFFFFFFFFFFFFFFFF MUL NOT AND SWAP1 DUP4 PUSH20 0xFFFFFFFFFFFFFFFFFFFFFFFFFFFFFFFFFFFFFFFF AND MUL OR SWAP1 SSTORE POP PUSH1 0x20 DUP3 ADD MLOAD DUP2 PUSH1 0x1 ADD SSTORE PUSH1 0x40 DUP3 ADD MLOAD DUP2 PUSH1 0x2 ADD SSTORE PUSH1 0x60 DUP3 ADD MLOAD DUP2 PUSH1 0x3 ADD PUSH1 0x0 PUSH2 0x100 EXP DUP2 SLOAD DUP2 PUSH1 0xFF MUL NOT AND SWAP1 DUP4 PUSH1 0x1 DUP2 GT ISZERO PUSH2 0x79F JUMPI PUSH2 0x79E PUSH2 0x1593 JUMP JUMPDEST JUMPDEST MUL OR SWAP1 SSTORE POP POP POP POP POP JUMP JUMPDEST PUSH1 0x0 DUP2 DUP2 SLOAD DUP2 LT PUSH2 0x7BE JUMPI PUSH2 0x7BD PUSH2 0x1704 JUMP JUMPDEST JUMPDEST SWAP1 PUSH1 0x0 MSTORE PUSH1 0x20 PUSH1 0x0 KECCAK256 SWAP1 PUSH1 0x4 MUL ADD PUSH1 0x40 MLOAD DUP1 PUSH1 0x80 ADD PUSH1 0x40 MSTORE SWAP1 DUP2 PUSH1 0x0 DUP3 ADD PUSH1 0x0 SWAP1 SLOAD SWAP1 PUSH2 0x100 EXP SWAP1 DIV PUSH20 0xFFFFFFFFFFFFFFFFFFFFFFFFFFFFFFFFFFFFFFFF AND PUSH20 0xFFFFFFFFFFFFFFFFFFFFFFFFFFFFFFFFFFFFFFFF AND PUSH20 0xFFFFFFFFFFFFFFFFFFFFFFFFFFFFFFFFFFFFFFFF AND DUP2 MSTORE PUSH1 0x20 ADD PUSH1 0x1 DUP3 ADD SLOAD DUP2 MSTORE PUSH1 0x20 ADD PUSH1 0x2 DUP3 ADD SLOAD DUP2 MSTORE PUSH1 0x20 ADD PUSH1 0x3 DUP3 ADD PUSH1 0x0 SWAP1 SLOAD SWAP1 PUSH2 0x100 EXP SWAP1 DIV PUSH1 0xFF AND PUSH1 0x1 DUP2 GT ISZERO PUSH2 0x866 JUMPI PUSH2 0x865 PUSH2 0x1593 JUMP JUMPDEST JUMPDEST PUSH1 0x1 DUP2 GT ISZERO PUSH2 0x878 JUMPI PUSH2 0x877 PUSH2 0x1593 JUMP JUMPDEST JUMPDEST DUP2 MSTORE POP POP PUSH1 0x0 PUSH1 0x1 DUP2 GT ISZERO PUSH2 0x890 JUMPI PUSH2 0x88F PUSH2 0x1593 JUMP JUMPDEST JUMPDEST DUP2 PUSH1 0x60 ADD MLOAD PUSH1 0x1 DUP2 GT ISZERO PUSH2 0x8A7 JUMPI PUSH2 0x8A6 PUSH2 0x1593 JUMP JUMPDEST JUMPDEST EQ PUSH2 0x8E7 JUMPI PUSH1 0x40 MLOAD PUSH32 0x8C379A000000000000000000000000000000000000000000000000000000000 DUP2 MSTORE PUSH1 0x4 ADD PUSH2 0x8DE SWAP1 PUSH2 0x1807 JUMP JUMPDEST PUSH1 0x40 MLOAD DUP1 SWAP2 SUB SWAP1 REVERT JUMPDEST PUSH1 0x0 DUP3 DUP2 SLOAD DUP2 LT PUSH2 0x8FB JUMPI PUSH2 0x8FA PUSH2 0x1704 JUMP JUMPDEST JUMPDEST SWAP1 PUSH1 0x0 MSTORE PUSH1 0x20 PUSH1 0x0 KECCAK256 SWAP1 PUSH1 0x4 MUL ADD PUSH1 0x40 MLOAD DUP1 PUSH1 0x80 ADD PUSH1 0x40 MSTORE SWAP1 DUP2 PUSH1 0x0 DUP3 ADD PUSH1 0x0 SWAP1 SLOAD SWAP1 PUSH2 0x100 EXP SWAP1 DIV PUSH20 0xFFFFFFFFFFFFFFFFFFFFFFFFFFFFFFFFFFFFFFFF AND PUSH20 0xFFFFFFFFFFFFFFFFFFFFFFFFFFFFFFFFFFFFFFFF AND PUSH20 0xFFFFFFFFFFFFFFFFFFFFFFFFFFFFFFFFFFFFFFFF AND DUP2 MSTORE PUSH1 0x20 ADD PUSH1 0x1 DUP3 ADD SLOAD DUP2 MSTORE PUSH1 0x20 ADD PUSH1 0x2 DUP3 ADD SLOAD DUP2 MSTORE PUSH1 0x20 ADD PUSH1 0x3 DUP3 ADD PUSH1 0x0 SWAP1 SLOAD SWAP1 PUSH2 0x100 EXP SWAP1 DIV PUSH1 0xFF AND PUSH1 0x1 DUP2 GT ISZERO PUSH2 0x9A3 JUMPI PUSH2 0x9A2 PUSH2 0x1593 JUMP JUMPDEST JUMPDEST PUSH1 0x1 DUP2 GT ISZERO PUSH2 0x9B5 JUMPI PUSH2 0x9B4 PUSH2 0x1593 JUMP JUMPDEST JUMPDEST DUP2 MSTORE POP POP CALLER DUP1 PUSH20 0xFFFFFFFFFFFFFFFFFFFFFFFFFFFFFFFFFFFFFFFF AND DUP3 PUSH1 0x0 ADD MLOAD PUSH20 0xFFFFFFFFFFFFFFFFFFFFFFFFFFFFFFFFFFFFFFFF AND EQ PUSH2 0xA2C JUMPI PUSH1 0x40 MLOAD PUSH32 0x8C379A000000000000000000000000000000000000000000000000000000000 DUP2 MSTORE PUSH1 0x4 ADD PUSH2 0xA23 SWAP1 PUSH2 0x1807 JUMP JUMPDEST PUSH1 0x40 MLOAD DUP1 SWAP2 SUB SWAP1 REVERT JUMPDEST PUSH1 0x0 DUP5 DUP2 SLOAD DUP2 LT PUSH2 0xA40 JUMPI PUSH2 0xA3F PUSH2 0x1704 JUMP JUMPDEST JUMPDEST SWAP1 PUSH1 0x0 MSTORE PUSH1 0x20 PUSH1 0x0 KECCAK256 SWAP1 PUSH1 0x4 MUL ADD PUSH1 0x0 DUP1 DUP3 ADD PUSH1 0x0 PUSH2 0x100 EXP DUP2 SLOAD SWAP1 PUSH20 0xFFFFFFFFFFFFFFFFFFFFFFFFFFFFFFFFFFFFFFFF MUL NOT AND SWAP1 SSTORE PUSH1 0x1 DUP3 ADD PUSH1 0x0 SWAP1 SSTORE PUSH1 0x2 DUP3 ADD PUSH1 0x0 SWAP1 SSTORE PUSH1 0x3 DUP3 ADD PUSH1 0x0 PUSH2 0x100 EXP DUP2 SLOAD SWAP1 PUSH1 0xFF MUL NOT AND SWAP1 SSTORE POP POP PUSH2 0xAA4 PUSH2 0xF79 JUMP JUMPDEST PUSH32 0xC845A6832AFA0A4048DD70BBBA2186093508A6B63A8D5D70A508F819FEF257F8 DUP5 PUSH1 0x40 MLOAD PUSH2 0xAD3 SWAP2 SWAP1 PUSH2 0x1836 JUMP JUMPDEST PUSH1 0x40 MLOAD DUP1 SWAP2 SUB SWAP1 LOG1 POP POP POP POP JUMP JUMPDEST PUSH1 0x0 PUSH1 0x40 MLOAD DUP1 PUSH1 0x80 ADD PUSH1 0x40 MSTORE DUP1 CALLER PUSH20 0xFFFFFFFFFFFFFFFFFFFFFFFFFFFFFFFFFFFFFFFF AND DUP2 MSTORE PUSH1 0x20 ADD DUP4 DUP2 MSTORE PUSH1 0x20 ADD TIMESTAMP DUP2 MSTORE PUSH1 0x20 ADD PUSH1 0x0 PUSH1 0x1 DUP2 GT ISZERO PUSH2 0xB2A JUMPI PUSH2 0xB29 PUSH2 0x1593 JUMP JUMPDEST JUMPDEST DUP2 MSTORE POP SWAP1 POP PUSH1 0x0 DUP2 SWAP1 DUP1 PUSH1 0x1 DUP2 SLOAD ADD DUP1 DUP3 SSTORE DUP1 SWAP2 POP POP PUSH1 0x1 SWAP1 SUB SWAP1 PUSH1 0x0 MSTORE PUSH1 0x20 PUSH1 0x0 KECCAK256 SWAP1 PUSH1 0x4 MUL ADD PUSH1 0x0 SWAP1 SWAP2 SWAP1 SWAP2 SWAP1 SWAP2 POP PUSH1 0x0 DUP3 ADD MLOAD DUP2 PUSH1 0x0 ADD PUSH1 0x0 PUSH2 0x100 EXP DUP2 SLOAD DUP2 PUSH20 0xFFFFFFFFFFFFFFFFFFFFFFFFFFFFFFFFFFFFFFFF MUL NOT AND SWAP1 DUP4 PUSH20 0xFFFFFFFFFFFFFFFFFFFFFFFFFFFFFFFFFFFFFFFF AND MUL OR SWAP1 SSTORE POP PUSH1 0x20 DUP3 ADD MLOAD DUP2 PUSH1 0x1 ADD SSTORE PUSH1 0x40 DUP3 ADD MLOAD DUP2 PUSH1 0x2 ADD SSTORE PUSH1 0x60 DUP3 ADD MLOAD DUP2 PUSH1 0x3 ADD PUSH1 0x0 PUSH2 0x100 EXP DUP2 SLOAD DUP2 PUSH1 0xFF MUL NOT AND SWAP1 DUP4 PUSH1 0x1 DUP2 GT ISZERO PUSH2 0xBE1 JUMPI PUSH2 0xBE0 PUSH2 0x1593 JUMP JUMPDEST JUMPDEST MUL OR SWAP1 SSTORE POP POP POP POP POP JUMP JUMPDEST PUSH1 0x60 PUSH1 0x1 DUP1 SLOAD DUP1 PUSH1 0x20 MUL PUSH1 0x20 ADD PUSH1 0x40 MLOAD SWAP1 DUP2 ADD PUSH1 0x40 MSTORE DUP1 SWAP3 SWAP2 SWAP1 DUP2 DUP2 MSTORE PUSH1 0x20 ADD PUSH1 0x0 SWAP1 JUMPDEST DUP3 DUP3 LT ISZERO PUSH2 0xCE7 JUMPI DUP4 DUP3 SWAP1 PUSH1 0x0 MSTORE PUSH1 0x20 PUSH1 0x0 KECCAK256 SWAP1 PUSH1 0x4 MUL ADD PUSH1 0x40 MLOAD DUP1 PUSH1 0x80 ADD PUSH1 0x40 MSTORE SWAP1 DUP2 PUSH1 0x0 DUP3 ADD PUSH1 0x0 SWAP1 SLOAD SWAP1 PUSH2 0x100 EXP SWAP1 DIV PUSH20 0xFFFFFFFFFFFFFFFFFFFFFFFFFFFFFFFFFFFFFFFF AND PUSH20 0xFFFFFFFFFFFFFFFFFFFFFFFFFFFFFFFFFFFFFFFF AND PUSH20 0xFFFFFFFFFFFFFFFFFFFFFFFFFFFFFFFFFFFFFFFF AND DUP2 MSTORE PUSH1 0x20 ADD PUSH1 0x1 DUP3 ADD SLOAD DUP2 MSTORE PUSH1 0x20 ADD PUSH1 0x2 DUP3 ADD SLOAD DUP2 MSTORE PUSH1 0x20 ADD PUSH1 0x3 DUP3 ADD PUSH1 0x0 SWAP1 SLOAD SWAP1 PUSH2 0x100 EXP SWAP1 DIV PUSH1 0xFF AND PUSH1 0x1 DUP2 GT ISZERO PUSH2 0xCC2 JUMPI PUSH2 0xCC1 PUSH2 0x1593 JUMP JUMPDEST JUMPDEST PUSH1 0x1 DUP2 GT ISZERO PUSH2 0xCD4 JUMPI PUSH2 0xCD3 PUSH2 0x1593 JUMP JUMPDEST JUMPDEST DUP2 MSTORE POP POP DUP2 MSTORE PUSH1 0x20 ADD SWAP1 PUSH1 0x1 ADD SWAP1 PUSH2 0xC10 JUMP JUMPDEST POP POP POP POP SWAP1 POP SWAP1 JUMP JUMPDEST PUSH1 0x60 PUSH2 0xCFA PUSH2 0xE16 JUMP JUMPDEST PUSH1 0x0 JUMPDEST PUSH1 0x0 DUP1 SLOAD SWAP1 POP DUP2 LT ISZERO PUSH2 0xDBF JUMPI CALLER PUSH20 0xFFFFFFFFFFFFFFFFFFFFFFFFFFFFFFFFFFFFFFFF AND PUSH1 0x0 DUP3 DUP2 SLOAD DUP2 LT PUSH2 0xD35 JUMPI PUSH2 0xD34 PUSH2 0x1704 JUMP JUMPDEST JUMPDEST SWAP1 PUSH1 0x0 MSTORE PUSH1 0x20 PUSH1 0x0 KECCAK256 SWAP1 PUSH1 0x4 MUL ADD PUSH1 0x0 ADD PUSH1 0x0 SWAP1 SLOAD SWAP1 PUSH2 0x100 EXP SWAP1 DIV PUSH20 0xFFFFFFFFFFFFFFFFFFFFFFFFFFFFFFFFFFFFFFFF AND PUSH20 0xFFFFFFFFFFFFFFFFFFFFFFFFFFFFFFFFFFFFFFFF AND SUB PUSH2 0xDAC JUMPI PUSH1 0x2 DUP2 SWAP1 DUP1 PUSH1 0x1 DUP2 SLOAD ADD DUP1 DUP3 SSTORE DUP1 SWAP2 POP POP PUSH1 0x1 SWAP1 SUB SWAP1 PUSH1 0x0 MSTORE PUSH1 0x20 PUSH1 0x0 KECCAK256 ADD PUSH1 0x0 SWAP1 SWAP2 SWAP1 SWAP2 SWAP1 SWAP2 POP SSTORE JUMPDEST DUP1 DUP1 PUSH2 0xDB7 SWAP1 PUSH2 0x1762 JUMP JUMPDEST SWAP2 POP POP PUSH2 0xCFD JUMP JUMPDEST POP PUSH1 0x2 DUP1 SLOAD DUP1 PUSH1 0x20 MUL PUSH1 0x20 ADD PUSH1 0x40 MLOAD SWAP1 DUP2 ADD PUSH1 0x40 MSTORE DUP1 SWAP3 SWAP2 SWAP1 DUP2 DUP2 MSTORE PUSH1 0x20 ADD DUP3 DUP1 SLOAD DUP1 ISZERO PUSH2 0xE0C JUMPI PUSH1 0x20 MUL DUP3 ADD SWAP2 SWAP1 PUSH1 0x0 MSTORE PUSH1 0x20 PUSH1 0x0 KECCAK256 SWAP1 JUMPDEST DUP2 SLOAD DUP2 MSTORE PUSH1 0x20 ADD SWAP1 PUSH1 0x1 ADD SWAP1 DUP1 DUP4 GT PUSH2 0xDF8 JUMPI JUMPDEST POP POP POP POP POP SWAP1 POP SWAP1 JUMP JUMPDEST PUSH1 0x0 JUMPDEST PUSH1 0x2 DUP1 SLOAD SWAP1 POP DUP2 LT ISZERO PUSH2 0xE5B JUMPI PUSH1 0x2 DUP2 DUP2 SLOAD DUP2 LT PUSH2 0xE3A JUMPI PUSH2 0xE39 PUSH2 0x1704 JUMP JUMPDEST JUMPDEST SWAP1 PUSH1 0x0 MSTORE PUSH1 0x20 PUSH1 0x0 KECCAK256 ADD PUSH1 0x0 SWAP1 SSTORE DUP1 DUP1 PUSH2 0xE53 SWAP1 PUSH2 0x1762 JUMP JUMPDEST SWAP2 POP POP PUSH2 0xE19 JUMP JUMPDEST POP JUMP JUMPDEST PUSH2 0xF77 PUSH1 0x0 DUP1 SLOAD DUP1 PUSH1 0x20 MUL PUSH1 0x20 ADD PUSH1 0x40 MLOAD SWAP1 DUP2 ADD PUSH1 0x40 MSTORE DUP1 SWAP3 SWAP2 SWAP1 DUP2 DUP2 MSTORE PUSH1 0x20 ADD PUSH1 0x0 SWAP1 JUMPDEST DUP3 DUP3 LT ISZERO PUSH2 0xF5A JUMPI DUP4 DUP3 SWAP1 PUSH1 0x0 MSTORE PUSH1 0x20 PUSH1 0x0 KECCAK256 SWAP1 PUSH1 0x4 MUL ADD PUSH1 0x40 MLOAD DUP1 PUSH1 0x80 ADD PUSH1 0x40 MSTORE SWAP1 DUP2 PUSH1 0x0 DUP3 ADD PUSH1 0x0 SWAP1 SLOAD SWAP1 PUSH2 0x100 EXP SWAP1 DIV PUSH20 0xFFFFFFFFFFFFFFFFFFFFFFFFFFFFFFFFFFFFFFFF AND PUSH20 0xFFFFFFFFFFFFFFFFFFFFFFFFFFFFFFFFFFFFFFFF AND PUSH20 0xFFFFFFFFFFFFFFFFFFFFFFFFFFFFFFFFFFFFFFFF AND DUP2 MSTORE PUSH1 0x20 ADD PUSH1 0x1 DUP3 ADD SLOAD DUP2 MSTORE PUSH1 0x20 ADD PUSH1 0x2 DUP3 ADD SLOAD DUP2 MSTORE PUSH1 0x20 ADD PUSH1 0x3 DUP3 ADD PUSH1 0x0 SWAP1 SLOAD SWAP1 PUSH2 0x100 EXP SWAP1 DIV PUSH1 0xFF AND PUSH1 0x1 DUP2 GT ISZERO PUSH2 0xF35 JUMPI PUSH2 0xF34 PUSH2 0x1593 JUMP JUMPDEST JUMPDEST PUSH1 0x1 DUP2 GT ISZERO PUSH2 0xF47 JUMPI PUSH2 0xF46 PUSH2 0x1593 JUMP JUMPDEST JUMPDEST DUP2 MSTORE POP POP DUP2 MSTORE PUSH1 0x20 ADD SWAP1 PUSH1 0x1 ADD SWAP1 PUSH2 0xE83 JUMP JUMPDEST POP POP POP POP PUSH1 0x0 PUSH1 0x1 PUSH1 0x0 DUP1 SLOAD SWAP1 POP PUSH2 0xF72 SWAP2 SWAP1 PUSH2 0x1851 JUMP JUMPDEST PUSH2 0x1094 JUMP JUMPDEST JUMP JUMPDEST PUSH2 0x1092 PUSH1 0x0 DUP1 SLOAD DUP1 PUSH1 0x20 MUL PUSH1 0x20 ADD PUSH1 0x40 MLOAD SWAP1 DUP2 ADD PUSH1 0x40 MSTORE DUP1 SWAP3 SWAP2 SWAP1 DUP2 DUP2 MSTORE PUSH1 0x20 ADD PUSH1 0x0 SWAP1 JUMPDEST DUP3 DUP3 LT ISZERO PUSH2 0x1075 JUMPI DUP4 DUP3 SWAP1 PUSH1 0x0 MSTORE PUSH1 0x20 PUSH1 0x0 KECCAK256 SWAP1 PUSH1 0x4 MUL ADD PUSH1 0x40 MLOAD DUP1 PUSH1 0x80 ADD PUSH1 0x40 MSTORE SWAP1 DUP2 PUSH1 0x0 DUP3 ADD PUSH1 0x0 SWAP1 SLOAD SWAP1 PUSH2 0x100 EXP SWAP1 DIV PUSH20 0xFFFFFFFFFFFFFFFFFFFFFFFFFFFFFFFFFFFFFFFF AND PUSH20 0xFFFFFFFFFFFFFFFFFFFFFFFFFFFFFFFFFFFFFFFF AND PUSH20 0xFFFFFFFFFFFFFFFFFFFFFFFFFFFFFFFFFFFFFFFF AND DUP2 MSTORE PUSH1 0x20 ADD PUSH1 0x1 DUP3 ADD SLOAD DUP2 MSTORE PUSH1 0x20 ADD PUSH1 0x2 DUP3 ADD SLOAD DUP2 MSTORE PUSH1 0x20 ADD PUSH1 0x3 DUP3 ADD PUSH1 0x0 SWAP1 SLOAD SWAP1 PUSH2 0x100 EXP SWAP1 DIV PUSH1 0xFF AND PUSH1 0x1 DUP2 GT ISZERO PUSH2 0x1050 JUMPI PUSH2 0x104F PUSH2 0x1593 JUMP JUMPDEST JUMPDEST PUSH1 0x1 DUP2 GT ISZERO PUSH2 0x1062 JUMPI PUSH2 0x1061 PUSH2 0x1593 JUMP JUMPDEST JUMPDEST DUP2 MSTORE POP POP DUP2 MSTORE PUSH1 0x20 ADD SWAP1 PUSH1 0x1 ADD SWAP1 PUSH2 0xF9E JUMP JUMPDEST POP POP POP POP PUSH1 0x0 PUSH1 0x1 PUSH1 0x0 DUP1 SLOAD SWAP1 POP PUSH2 0x108D SWAP2 SWAP1 PUSH2 0x1851 JUMP JUMPDEST PUSH2 0x1239 JUMP JUMPDEST JUMP JUMPDEST PUSH1 0x0 DUP3 SWAP1 POP PUSH1 0x0 DUP3 SWAP1 POP DUP1 DUP3 SUB PUSH2 0x10AC JUMPI POP POP PUSH2 0x1234 JUMP JUMPDEST PUSH1 0x0 DUP6 PUSH1 0x2 DUP7 DUP7 PUSH2 0x10BD SWAP2 SWAP1 PUSH2 0x188F JUMP JUMPDEST PUSH2 0x10C7 SWAP2 SWAP1 PUSH2 0x1952 JUMP JUMPDEST DUP7 PUSH2 0x10D2 SWAP2 SWAP1 PUSH2 0x19BC JUMP JUMPDEST DUP2 MLOAD DUP2 LT PUSH2 0x10E3 JUMPI PUSH2 0x10E2 PUSH2 0x1704 JUMP JUMPDEST JUMPDEST PUSH1 0x20 MUL PUSH1 0x20 ADD ADD MLOAD PUSH1 0x40 ADD MLOAD SWAP1 POP JUMPDEST DUP2 DUP4 SGT PUSH2 0x1208 JUMPI JUMPDEST DUP1 DUP7 DUP5 DUP2 MLOAD DUP2 LT PUSH2 0x110E JUMPI PUSH2 0x110D PUSH2 0x1704 JUMP JUMPDEST JUMPDEST PUSH1 0x20 MUL PUSH1 0x20 ADD ADD MLOAD PUSH1 0x40 ADD MLOAD GT ISZERO PUSH2 0x1133 JUMPI DUP3 DUP1 PUSH2 0x112B SWAP1 PUSH2 0x1A50 JUMP JUMPDEST SWAP4 POP POP PUSH2 0x10FA JUMP JUMPDEST JUMPDEST DUP6 DUP3 DUP2 MLOAD DUP2 LT PUSH2 0x1147 JUMPI PUSH2 0x1146 PUSH2 0x1704 JUMP JUMPDEST JUMPDEST PUSH1 0x20 MUL PUSH1 0x20 ADD ADD MLOAD PUSH1 0x40 ADD MLOAD DUP2 GT ISZERO PUSH2 0x116D JUMPI DUP2 DUP1 PUSH2 0x1165 SWAP1 PUSH2 0x1A98 JUMP JUMPDEST SWAP3 POP POP PUSH2 0x1134 JUMP JUMPDEST DUP2 DUP4 SGT PUSH2 0x1203 JUMPI DUP6 DUP3 DUP2 MLOAD DUP2 LT PUSH2 0x1187 JUMPI PUSH2 0x1186 PUSH2 0x1704 JUMP JUMPDEST JUMPDEST PUSH1 0x20 MUL PUSH1 0x20 ADD ADD MLOAD DUP7 DUP5 DUP2 MLOAD DUP2 LT PUSH2 0x11A2 JUMPI PUSH2 0x11A1 PUSH2 0x1704 JUMP JUMPDEST JUMPDEST PUSH1 0x20 MUL PUSH1 0x20 ADD ADD MLOAD DUP8 DUP6 DUP2 MLOAD DUP2 LT PUSH2 0x11BD JUMPI PUSH2 0x11BC PUSH2 0x1704 JUMP JUMPDEST JUMPDEST PUSH1 0x20 MUL PUSH1 0x20 ADD ADD DUP9 DUP6 DUP2 MLOAD DUP2 LT PUSH2 0x11D7 JUMPI PUSH2 0x11D6 PUSH2 0x1704 JUMP JUMPDEST JUMPDEST PUSH1 0x20 MUL PUSH1 0x20 ADD ADD DUP3 SWAP1 MSTORE DUP3 SWAP1 MSTORE POP POP DUP3 DUP1 PUSH2 0x11F1 SWAP1 PUSH2 0x1A50 JUMP JUMPDEST SWAP4 POP POP DUP2 DUP1 PUSH2 0x11FF SWAP1 PUSH2 0x1A98 JUMP JUMPDEST SWAP3 POP POP JUMPDEST PUSH2 0x10F2 JUMP JUMPDEST DUP2 DUP6 SLT ISZERO PUSH2 0x121C JUMPI PUSH2 0x121B DUP7 DUP7 DUP5 PUSH2 0x1094 JUMP JUMPDEST JUMPDEST DUP4 DUP4 SLT ISZERO PUSH2 0x1230 JUMPI PUSH2 0x122F DUP7 DUP5 DUP7 PUSH2 0x1094 JUMP JUMPDEST JUMPDEST POP POP POP JUMPDEST POP POP POP JUMP JUMPDEST PUSH1 0x0 DUP3 SWAP1 POP PUSH1 0x0 DUP3 SWAP1 POP DUP1 DUP3 SUB PUSH2 0x1251 JUMPI POP POP PUSH2 0x13D9 JUMP JUMPDEST PUSH1 0x0 DUP6 PUSH1 0x2 DUP7 DUP7 PUSH2 0x1262 SWAP2 SWAP1 PUSH2 0x188F JUMP JUMPDEST PUSH2 0x126C SWAP2 SWAP1 PUSH2 0x1952 JUMP JUMPDEST DUP7 PUSH2 0x1277 SWAP2 SWAP1 PUSH2 0x19BC JUMP JUMPDEST DUP2 MLOAD DUP2 LT PUSH2 0x1288 JUMPI PUSH2 0x1287 PUSH2 0x1704 JUMP JUMPDEST JUMPDEST PUSH1 0x20 MUL PUSH1 0x20 ADD ADD MLOAD PUSH1 0x40 ADD MLOAD SWAP1 POP JUMPDEST DUP2 DUP4 SGT PUSH2 0x13AD JUMPI JUMPDEST DUP1 DUP7 DUP5 DUP2 MLOAD DUP2 LT PUSH2 0x12B3 JUMPI PUSH2 0x12B2 PUSH2 0x1704 JUMP JUMPDEST JUMPDEST PUSH1 0x20 MUL PUSH1 0x20 ADD ADD MLOAD PUSH1 0x40 ADD MLOAD LT ISZERO PUSH2 0x12D8 JUMPI DUP3 DUP1 PUSH2 0x12D0 SWAP1 PUSH2 0x1A50 JUMP JUMPDEST SWAP4 POP POP PUSH2 0x129F JUMP JUMPDEST JUMPDEST DUP6 DUP3 DUP2 MLOAD DUP2 LT PUSH2 0x12EC JUMPI PUSH2 0x12EB PUSH2 0x1704 JUMP JUMPDEST JUMPDEST PUSH1 0x20 MUL PUSH1 0x20 ADD ADD MLOAD PUSH1 0x40 ADD MLOAD DUP2 LT ISZERO PUSH2 0x1312 JUMPI DUP2 DUP1 PUSH2 0x130A SWAP1 PUSH2 0x1A98 JUMP JUMPDEST SWAP3 POP POP PUSH2 0x12D9 JUMP JUMPDEST DUP2 DUP4 SGT PUSH2 0x13A8 JUMPI DUP6 DUP3 DUP2 MLOAD DUP2 LT PUSH2 0x132C JUMPI PUSH2 0x132B PUSH2 0x1704 JUMP JUMPDEST JUMPDEST PUSH1 0x20 MUL PUSH1 0x20 ADD ADD MLOAD DUP7 DUP5 DUP2 MLOAD DUP2 LT PUSH2 0x1347 JUMPI PUSH2 0x1346 PUSH2 0x1704 JUMP JUMPDEST JUMPDEST PUSH1 0x20 MUL PUSH1 0x20 ADD ADD MLOAD DUP8 DUP6 DUP2 MLOAD DUP2 LT PUSH2 0x1362 JUMPI PUSH2 0x1361 PUSH2 0x1704 JUMP JUMPDEST JUMPDEST PUSH1 0x20 MUL PUSH1 0x20 ADD ADD DUP9 DUP6 DUP2 MLOAD DUP2 LT PUSH2 0x137C JUMPI PUSH2 0x137B PUSH2 0x1704 JUMP JUMPDEST JUMPDEST PUSH1 0x20 MUL PUSH1 0x20 ADD ADD DUP3 SWAP1 MSTORE DUP3 SWAP1 MSTORE POP POP DUP3 DUP1 PUSH2 0x1396 SWAP1 PUSH2 0x1A50 JUMP JUMPDEST SWAP4 POP POP DUP2 DUP1 PUSH2 0x13A4 SWAP1 PUSH2 0x1A98 JUMP JUMPDEST SWAP3 POP POP JUMPDEST PUSH2 0x1297 JUMP JUMPDEST DUP2 DUP6 SLT ISZERO PUSH2 0x13C1 JUMPI PUSH2 0x13C0 DUP7 DUP7 DUP5 PUSH2 0x1239 JUMP JUMPDEST JUMPDEST DUP4 DUP4 SLT ISZERO PUSH2 0x13D5 JUMPI PUSH2 0x13D4 DUP7 DUP5 DUP7 PUSH2 0x1239 JUMP JUMPDEST JUMPDEST POP POP POP JUMPDEST POP POP POP JUMP JUMPDEST PUSH1 0x0 DUP2 MLOAD SWAP1 POP SWAP2 SWAP1 POP JUMP JUMPDEST PUSH1 0x0 DUP3 DUP3 MSTORE PUSH1 0x20 DUP3 ADD SWAP1 POP SWAP3 SWAP2 POP POP JUMP JUMPDEST PUSH1 0x0 DUP2 SWAP1 POP PUSH1 0x20 DUP3 ADD SWAP1 POP SWAP2 SWAP1 POP JUMP JUMPDEST PUSH1 0x0 DUP2 SWAP1 POP SWAP2 SWAP1 POP JUMP JUMPDEST PUSH2 0x141D DUP2 PUSH2 0x140A JUMP JUMPDEST DUP3 MSTORE POP POP JUMP JUMPDEST PUSH1 0x0 PUSH2 0x142F DUP4 DUP4 PUSH2 0x1414 JUMP JUMPDEST PUSH1 0x20 DUP4 ADD SWAP1 POP SWAP3 SWAP2 POP POP JUMP JUMPDEST PUSH1 0x0 PUSH1 0x20 DUP3 ADD SWAP1 POP SWAP2 SWAP1 POP JUMP JUMPDEST PUSH1 0x0 PUSH2 0x1453 DUP3 PUSH2 0x13DE JUMP JUMPDEST PUSH2 0x145D DUP2 DUP6 PUSH2 0x13E9 JUMP JUMPDEST SWAP4 POP PUSH2 0x1468 DUP4 PUSH2 0x13FA JUMP JUMPDEST DUP1 PUSH1 0x0 JUMPDEST DUP4 DUP2 LT ISZERO PUSH2 0x1499 JUMPI DUP2 MLOAD PUSH2 0x1480 DUP9 DUP3 PUSH2 0x1423 JUMP JUMPDEST SWAP8 POP PUSH2 0x148B DUP4 PUSH2 0x143B JUMP JUMPDEST SWAP3 POP POP PUSH1 0x1 DUP2 ADD SWAP1 POP PUSH2 0x146C JUMP JUMPDEST POP DUP6 SWAP4 POP POP POP POP SWAP3 SWAP2 POP POP JUMP JUMPDEST PUSH1 0x0 PUSH1 0x20 DUP3 ADD SWAP1 POP DUP2 DUP2 SUB PUSH1 0x0 DUP4 ADD MSTORE PUSH2 0x14C0 DUP2 DUP5 PUSH2 0x1448 JUMP JUMPDEST SWAP1 POP SWAP3 SWAP2 POP POP JUMP JUMPDEST PUSH1 0x0 DUP1 REVERT JUMPDEST PUSH2 0x14D6 DUP2 PUSH2 0x140A JUMP JUMPDEST DUP2 EQ PUSH2 0x14E1 JUMPI PUSH1 0x0 DUP1 REVERT JUMPDEST POP JUMP JUMPDEST PUSH1 0x0 DUP2 CALLDATALOAD SWAP1 POP PUSH2 0x14F3 DUP2 PUSH2 0x14CD JUMP JUMPDEST SWAP3 SWAP2 POP POP JUMP JUMPDEST PUSH1 0x0 PUSH1 0x20 DUP3 DUP5 SUB SLT ISZERO PUSH2 0x150F JUMPI PUSH2 0x150E PUSH2 0x14C8 JUMP JUMPDEST JUMPDEST PUSH1 0x0 PUSH2 0x151D DUP5 DUP3 DUP6 ADD PUSH2 0x14E4 JUMP JUMPDEST SWAP2 POP POP SWAP3 SWAP2 POP POP JUMP JUMPDEST PUSH1 0x0 DUP2 MLOAD SWAP1 POP SWAP2 SWAP1 POP JUMP JUMPDEST PUSH1 0x0 DUP3 DUP3 MSTORE PUSH1 0x20 DUP3 ADD SWAP1 POP SWAP3 SWAP2 POP POP JUMP JUMPDEST PUSH1 0x0 DUP2 SWAP1 POP PUSH1 0x20 DUP3 ADD SWAP1 POP SWAP2 SWAP1 POP JUMP JUMPDEST PUSH1 0x0 PUSH20 0xFFFFFFFFFFFFFFFFFFFFFFFFFFFFFFFFFFFFFFFF DUP3 AND SWAP1 POP SWAP2 SWAP1 POP JUMP JUMPDEST PUSH1 0x0 PUSH2 0x157D DUP3 PUSH2 0x1552 JUMP JUMPDEST SWAP1 POP SWAP2 SWAP1 POP JUMP JUMPDEST PUSH2 0x158D DUP2 PUSH2 0x1572 JUMP JUMPDEST DUP3 MSTORE POP POP JUMP JUMPDEST PUSH32 0x4E487B7100000000000000000000000000000000000000000000000000000000 PUSH1 0x0 MSTORE PUSH1 0x21 PUSH1 0x4 MSTORE PUSH1 0x24 PUSH1 0x0 REVERT JUMPDEST PUSH1 0x2 DUP2 LT PUSH2 0x15D3 JUMPI PUSH2 0x15D2 PUSH2 0x1593 JUMP JUMPDEST JUMPDEST POP JUMP JUMPDEST PUSH1 0x0 DUP2 SWAP1 POP PUSH2 0x15E4 DUP3 PUSH2 0x15C2 JUMP JUMPDEST SWAP2 SWAP1 POP JUMP JUMPDEST PUSH1 0x0 PUSH2 0x15F4 DUP3 PUSH2 0x15D6 JUMP JUMPDEST SWAP1 POP SWAP2 SWAP1 POP JUMP JUMPDEST PUSH2 0x1604 DUP2 PUSH2 0x15E9 JUMP JUMPDEST DUP3 MSTORE POP POP JUMP JUMPDEST PUSH1 0x80 DUP3 ADD PUSH1 0x0 DUP3 ADD MLOAD PUSH2 0x1620 PUSH1 0x0 DUP6 ADD DUP3 PUSH2 0x1584 JUMP JUMPDEST POP PUSH1 0x20 DUP3 ADD MLOAD PUSH2 0x1633 PUSH1 0x20 DUP6 ADD DUP3 PUSH2 0x1414 JUMP JUMPDEST POP PUSH1 0x40 DUP3 ADD MLOAD PUSH2 0x1646 PUSH1 0x40 DUP6 ADD DUP3 PUSH2 0x1414 JUMP JUMPDEST POP PUSH1 0x60 DUP3 ADD MLOAD PUSH2 0x1659 PUSH1 0x60 DUP6 ADD DUP3 PUSH2 0x15FB JUMP JUMPDEST POP POP POP POP JUMP JUMPDEST PUSH1 0x0 PUSH2 0x166B DUP4 DUP4 PUSH2 0x160A JUMP JUMPDEST PUSH1 0x80 DUP4 ADD SWAP1 POP SWAP3 SWAP2 POP POP JUMP JUMPDEST PUSH1 0x0 PUSH1 0x20 DUP3 ADD SWAP1 POP SWAP2 SWAP1 POP JUMP JUMPDEST PUSH1 0x0 PUSH2 0x168F DUP3 PUSH2 0x1526 JUMP JUMPDEST PUSH2 0x1699 DUP2 DUP6 PUSH2 0x1531 JUMP JUMPDEST SWAP4 POP PUSH2 0x16A4 DUP4 PUSH2 0x1542 JUMP JUMPDEST DUP1 PUSH1 0x0 JUMPDEST DUP4 DUP2 LT ISZERO PUSH2 0x16D5 JUMPI DUP2 MLOAD PUSH2 0x16BC DUP9 DUP3 PUSH2 0x165F JUMP JUMPDEST SWAP8 POP PUSH2 0x16C7 DUP4 PUSH2 0x1677 JUMP JUMPDEST SWAP3 POP POP PUSH1 0x1 DUP2 ADD SWAP1 POP PUSH2 0x16A8 JUMP JUMPDEST POP DUP6 SWAP4 POP POP POP POP SWAP3 SWAP2 POP POP JUMP JUMPDEST PUSH1 0x0 PUSH1 0x20 DUP3 ADD SWAP1 POP DUP2 DUP2 SUB PUSH1 0x0 DUP4 ADD MSTORE PUSH2 0x16FC DUP2 DUP5 PUSH2 0x1684 JUMP JUMPDEST SWAP1 POP SWAP3 SWAP2 POP POP JUMP JUMPDEST PUSH32 0x4E487B7100000000000000000000000000000000000000000000000000000000 PUSH1 0x0 MSTORE PUSH1 0x32 PUSH1 0x4 MSTORE PUSH1 0x24 PUSH1 0x0 REVERT JUMPDEST PUSH32 0x4E487B7100000000000000000000000000000000000000000000000000000000 PUSH1 0x0 MSTORE PUSH1 0x11 PUSH1 0x4 MSTORE PUSH1 0x24 PUSH1 0x0 REVERT JUMPDEST PUSH1 0x0 PUSH2 0x176D DUP3 PUSH2 0x140A JUMP JUMPDEST SWAP2 POP PUSH32 0xFFFFFFFFFFFFFFFFFFFFFFFFFFFFFFFFFFFFFFFFFFFFFFFFFFFFFFFFFFFFFFFF DUP3 SUB PUSH2 0x179F JUMPI PUSH2 0x179E PUSH2 0x1733 JUMP JUMPDEST JUMPDEST PUSH1 0x1 DUP3 ADD SWAP1 POP SWAP2 SWAP1 POP JUMP JUMPDEST PUSH1 0x0 DUP3 DUP3 MSTORE PUSH1 0x20 DUP3 ADD SWAP1 POP SWAP3 SWAP2 POP POP JUMP JUMPDEST PUSH32 0x4F726465722050656E64696E6700000000000000000000000000000000000000 PUSH1 0x0 DUP3 ADD MSTORE POP JUMP JUMPDEST PUSH1 0x0 PUSH2 0x17F1 PUSH1 0xD DUP4 PUSH2 0x17AA JUMP JUMPDEST SWAP2 POP PUSH2 0x17FC DUP3 PUSH2 0x17BB JUMP JUMPDEST PUSH1 0x20 DUP3 ADD SWAP1 POP SWAP2 SWAP1 POP JUMP JUMPDEST PUSH1 0x0 PUSH1 0x20 DUP3 ADD SWAP1 POP DUP2 DUP2 SUB PUSH1 0x0 DUP4 ADD MSTORE PUSH2 0x1820 DUP2 PUSH2 0x17E4 JUMP JUMPDEST SWAP1 POP SWAP2 SWAP1 POP JUMP JUMPDEST PUSH2 0x1830 DUP2 PUSH2 0x140A JUMP JUMPDEST DUP3 MSTORE POP POP JUMP JUMPDEST PUSH1 0x0 PUSH1 0x20 DUP3 ADD SWAP1 POP PUSH2 0x184B PUSH1 0x0 DUP4 ADD DUP5 PUSH2 0x1827 JUMP JUMPDEST SWAP3 SWAP2 POP POP JUMP JUMPDEST PUSH1 0x0 PUSH2 0x185C DUP3 PUSH2 0x140A JUMP JUMPDEST SWAP2 POP PUSH2 0x1867 DUP4 PUSH2 0x140A JUMP JUMPDEST SWAP3 POP DUP3 DUP3 LT ISZERO PUSH2 0x187A JUMPI PUSH2 0x1879 PUSH2 0x1733 JUMP JUMPDEST JUMPDEST DUP3 DUP3 SUB SWAP1 POP SWAP3 SWAP2 POP POP JUMP JUMPDEST PUSH1 0x0 DUP2 SWAP1 POP SWAP2 SWAP1 POP JUMP JUMPDEST PUSH1 0x0 PUSH2 0x189A DUP3 PUSH2 0x1885 JUMP JUMPDEST SWAP2 POP PUSH2 0x18A5 DUP4 PUSH2 0x1885 JUMP JUMPDEST SWAP3 POP DUP3 PUSH32 0x8000000000000000000000000000000000000000000000000000000000000000 ADD DUP3 SLT PUSH1 0x0 DUP5 SLT ISZERO AND ISZERO PUSH2 0x18E0 JUMPI PUSH2 0x18DF PUSH2 0x1733 JUMP JUMPDEST JUMPDEST DUP3 PUSH32 0x7FFFFFFFFFFFFFFFFFFFFFFFFFFFFFFFFFFFFFFFFFFFFFFFFFFFFFFFFFFFFFFF ADD DUP3 SGT PUSH1 0x0 DUP5 SLT AND ISZERO PUSH2 0x1918 JUMPI PUSH2 0x1917 PUSH2 0x1733 JUMP JUMPDEST JUMPDEST DUP3 DUP3 SUB SWAP1 POP SWAP3 SWAP2 POP POP JUMP JUMPDEST PUSH32 0x4E487B7100000000000000000000000000000000000000000000000000000000 PUSH1 0x0 MSTORE PUSH1 0x12 PUSH1 0x4 MSTORE PUSH1 0x24 PUSH1 0x0 REVERT JUMPDEST PUSH1 0x0 PUSH2 0x195D DUP3 PUSH2 0x1885 JUMP JUMPDEST SWAP2 POP PUSH2 0x1968 DUP4 PUSH2 0x1885 JUMP JUMPDEST SWAP3 POP DUP3 PUSH2 0x1978 JUMPI PUSH2 0x1977 PUSH2 0x1923 JUMP JUMPDEST JUMPDEST PUSH1 0x1 PUSH1 0x0 SUB DUP4 EQ PUSH32 0x8000000000000000000000000000000000000000000000000000000000000000 DUP4 EQ AND ISZERO PUSH2 0x19B1 JUMPI PUSH2 0x19B0 PUSH2 0x1733 JUMP JUMPDEST JUMPDEST DUP3 DUP3 SDIV SWAP1 POP SWAP3 SWAP2 POP POP JUMP JUMPDEST PUSH1 0x0 PUSH2 0x19C7 DUP3 PUSH2 0x1885 JUMP JUMPDEST SWAP2 POP PUSH2 0x19D2 DUP4 PUSH2 0x1885 JUMP JUMPDEST SWAP3 POP DUP2 PUSH32 0x7FFFFFFFFFFFFFFFFFFFFFFFFFFFFFFFFFFFFFFFFFFFFFFFFFFFFFFFFFFFFFFF SUB DUP4 SGT PUSH1 0x0 DUP4 SLT ISZERO AND ISZERO PUSH2 0x1A0D JUMPI PUSH2 0x1A0C PUSH2 0x1733 JUMP JUMPDEST JUMPDEST DUP2 PUSH32 0x8000000000000000000000000000000000000000000000000000000000000000 SUB DUP4 SLT PUSH1 0x0 DUP4 SLT AND ISZERO PUSH2 0x1A45 JUMPI PUSH2 0x1A44 PUSH2 0x1733 JUMP JUMPDEST JUMPDEST DUP3 DUP3 ADD SWAP1 POP SWAP3 SWAP2 POP POP JUMP JUMPDEST PUSH1 0x0 PUSH2 0x1A5B DUP3 PUSH2 0x1885 JUMP JUMPDEST SWAP2 POP PUSH32 0x7FFFFFFFFFFFFFFFFFFFFFFFFFFFFFFFFFFFFFFFFFFFFFFFFFFFFFFFFFFFFFFF DUP3 SUB PUSH2 0x1A8D JUMPI PUSH2 0x1A8C PUSH2 0x1733 JUMP JUMPDEST JUMPDEST PUSH1 0x1 DUP3 ADD SWAP1 POP SWAP2 SWAP1 POP JUMP JUMPDEST PUSH1 0x0 PUSH2 0x1AA3 DUP3 PUSH2 0x1885 JUMP JUMPDEST SWAP2 POP PUSH32 0x8000000000000000000000000000000000000000000000000000000000000000 DUP3 SUB PUSH2 0x1AD5 JUMPI PUSH2 0x1AD4 PUSH2 0x1733 JUMP JUMPDEST JUMPDEST PUSH1 0x1 DUP3 SUB SWAP1 POP SWAP2 SWAP1 POP JUMP INVALID LOG2 PUSH5 0x6970667358 0x22 SLT KECCAK256 0xF9 0xD8 0xAB PUSH6 0xE0FC3A6D0DFA PUSH31 0xB398085005960F6800BA296809C2C5668152D0A2A864736F6C634300080D00 CALLER "
				},
				"gasEstimates": {
					"creation": {
						"codeDepositCost": "1386800",
						"executionCost": "1444",
						"totalCost": "1388244"
					},
					"external": {
						"cancelAsk(uint256)": "infinite",
						"cancelBid(uint256)": "infinite",
						"fetchAllAsk()": "infinite",
						"fetchAllBid()": "infinite",
						"fetchYourAskIds()": "infinite",
						"fetchYourBidIds()": "infinite",
						"placeAsk(uint256)": "117772",
						"placeBid(uint256)": "117727"
					},
					"internal": {
						"ascendingQuickSort(struct OrderBook.order memory[] memory,int256,int256)": "infinite",
						"deleteArray()": "infinite",
						"descendingQuickSort(struct OrderBook.order memory[] memory,int256,int256)": "infinite",
						"sortAsk()": "infinite",
						"sortBid()": "infinite"
					}
				},
				"methodIdentifiers": {
					"cancelAsk(uint256)": "1628e0f5",
					"cancelBid(uint256)": "9703ef35",
					"fetchAllAsk()": "c5374af2",
					"fetchAllBid()": "4471417f",
					"fetchYourAskIds()": "122de8f2",
					"fetchYourBidIds()": "ce0cdc87",
					"placeAsk(uint256)": "78c5b268",
					"placeBid(uint256)": "9979ef45"
				}
			},
			"storageLayout": {
				"storage": [
					{
						"astId": 18,
						"contract": "contracts/OrderBook.sol:OrderBook",
						"label": "bidBook",
						"offset": 0,
						"slot": "0",
						"type": "t_array(t_struct(order)14_storage)dyn_storage"
					},
					{
						"astId": 22,
						"contract": "contracts/OrderBook.sol:OrderBook",
						"label": "askBook",
						"offset": 0,
						"slot": "1",
						"type": "t_array(t_struct(order)14_storage)dyn_storage"
					},
					{
						"astId": 25,
						"contract": "contracts/OrderBook.sol:OrderBook",
						"label": "request",
						"offset": 0,
						"slot": "2",
						"type": "t_array(t_uint256)dyn_storage"
					}
				],
				"types": {
					"t_address_payable": {
						"encoding": "inplace",
						"label": "address payable",
						"numberOfBytes": "20"
					},
					"t_array(t_struct(order)14_storage)dyn_storage": {
						"base": "t_struct(order)14_storage",
						"encoding": "dynamic_array",
						"label": "struct OrderBook.order[]",
						"numberOfBytes": "32"
					},
					"t_array(t_uint256)dyn_storage": {
						"base": "t_uint256",
						"encoding": "dynamic_array",
						"label": "uint256[]",
						"numberOfBytes": "32"
					},
					"t_enum(State)4": {
						"encoding": "inplace",
						"label": "enum OrderBook.State",
						"numberOfBytes": "1"
					},
					"t_struct(order)14_storage": {
						"encoding": "inplace",
						"label": "struct OrderBook.order",
						"members": [
							{
								"astId": 6,
								"contract": "contracts/OrderBook.sol:OrderBook",
								"label": "customer",
								"offset": 0,
								"slot": "0",
								"type": "t_address_payable"
							},
							{
								"astId": 8,
								"contract": "contracts/OrderBook.sol:OrderBook",
								"label": "price",
								"offset": 0,
								"slot": "1",
								"type": "t_uint256"
							},
							{
								"astId": 10,
								"contract": "contracts/OrderBook.sol:OrderBook",
								"label": "timestamp",
								"offset": 0,
								"slot": "2",
								"type": "t_uint256"
							},
							{
								"astId": 13,
								"contract": "contracts/OrderBook.sol:OrderBook",
								"label": "state",
								"offset": 0,
								"slot": "3",
								"type": "t_enum(State)4"
							}
						],
						"numberOfBytes": "128"
					},
					"t_uint256": {
						"encoding": "inplace",
						"label": "uint256",
						"numberOfBytes": "32"
					}
				}
			},
			"userdoc": {
				"kind": "user",
				"methods": {},
				"version": 1
			}
		}
	}
}