{
	"contracts/OrderBook.sol": {
		"OrderBook": {
			"abi": [
				{
					"inputs": [
						{
							"internalType": "uint256",
							"name": "_commission",
							"type": "uint256"
						}
					],
					"stateMutability": "nonpayable",
					"type": "constructor"
				},
				{
					"anonymous": false,
					"inputs": [
						{
							"indexed": false,
							"internalType": "uint256",
							"name": "",
							"type": "uint256"
						}
					],
					"name": "askCancelled",
					"type": "event"
				},
				{
					"anonymous": false,
					"inputs": [
						{
							"indexed": false,
							"internalType": "address",
							"name": "",
							"type": "address"
						},
						{
							"indexed": false,
							"internalType": "uint256",
							"name": "",
							"type": "uint256"
						},
						{
							"indexed": false,
							"internalType": "uint256",
							"name": "",
							"type": "uint256"
						},
						{
							"indexed": false,
							"internalType": "enum OrderBook.State",
							"name": "",
							"type": "uint8"
						}
					],
					"name": "askPlaced",
					"type": "event"
				},
				{
					"anonymous": false,
					"inputs": [
						{
							"indexed": false,
							"internalType": "uint256",
							"name": "",
							"type": "uint256"
						}
					],
					"name": "bidCancelled",
					"type": "event"
				},
				{
					"anonymous": false,
					"inputs": [
						{
							"indexed": false,
							"internalType": "address",
							"name": "",
							"type": "address"
						},
						{
							"indexed": false,
							"internalType": "uint256",
							"name": "",
							"type": "uint256"
						},
						{
							"indexed": false,
							"internalType": "uint256",
							"name": "",
							"type": "uint256"
						},
						{
							"indexed": false,
							"internalType": "enum OrderBook.State",
							"name": "",
							"type": "uint8"
						}
					],
					"name": "bidPlaced",
					"type": "event"
				},
				{
					"inputs": [],
					"name": "askCount",
					"outputs": [
						{
							"internalType": "uint256",
							"name": "",
							"type": "uint256"
						}
					],
					"stateMutability": "view",
					"type": "function"
				},
				{
					"inputs": [],
					"name": "askHead",
					"outputs": [
						{
							"internalType": "uint256",
							"name": "",
							"type": "uint256"
						}
					],
					"stateMutability": "view",
					"type": "function"
				},
				{
					"inputs": [],
					"name": "bidCount",
					"outputs": [
						{
							"internalType": "uint256",
							"name": "",
							"type": "uint256"
						}
					],
					"stateMutability": "view",
					"type": "function"
				},
				{
					"inputs": [],
					"name": "bidHead",
					"outputs": [
						{
							"internalType": "uint256",
							"name": "",
							"type": "uint256"
						}
					],
					"stateMutability": "view",
					"type": "function"
				},
				{
					"inputs": [],
					"name": "bidTail",
					"outputs": [
						{
							"internalType": "uint256",
							"name": "",
							"type": "uint256"
						}
					],
					"stateMutability": "view",
					"type": "function"
				},
				{
					"inputs": [
						{
							"internalType": "uint256",
							"name": "askId",
							"type": "uint256"
						}
					],
					"name": "cancelAsk",
					"outputs": [],
					"stateMutability": "nonpayable",
					"type": "function"
				},
				{
					"inputs": [
						{
							"internalType": "uint256",
							"name": "bidId",
							"type": "uint256"
						}
					],
					"name": "cancelBid",
					"outputs": [],
					"stateMutability": "nonpayable",
					"type": "function"
				},
				{
					"inputs": [],
					"name": "fetchAllBid",
					"outputs": [
						{
							"components": [
								{
									"internalType": "address payable",
									"name": "customer",
									"type": "address"
								},
								{
									"internalType": "uint256",
									"name": "value",
									"type": "uint256"
								},
								{
									"internalType": "uint256",
									"name": "timestamp",
									"type": "uint256"
								},
								{
									"internalType": "enum OrderBook.State",
									"name": "state",
									"type": "uint8"
								},
								{
									"internalType": "uint256",
									"name": "id",
									"type": "uint256"
								},
								{
									"internalType": "uint256",
									"name": "next",
									"type": "uint256"
								},
								{
									"internalType": "uint256",
									"name": "prev",
									"type": "uint256"
								},
								{
									"internalType": "bool",
									"name": "delb",
									"type": "bool"
								}
							],
							"internalType": "struct OrderBook.order[]",
							"name": "",
							"type": "tuple[]"
						}
					],
					"stateMutability": "nonpayable",
					"type": "function"
				},
				{
					"inputs": [],
					"name": "fetchYourAskIds",
					"outputs": [
						{
							"internalType": "uint256[]",
							"name": "",
							"type": "uint256[]"
						}
					],
					"stateMutability": "nonpayable",
					"type": "function"
				},
				{
					"inputs": [],
					"name": "fetchYourBidIds",
					"outputs": [
						{
							"internalType": "uint256[]",
							"name": "",
							"type": "uint256[]"
						}
					],
					"stateMutability": "nonpayable",
					"type": "function"
				},
				{
					"inputs": [
						{
							"internalType": "uint256",
							"name": "id",
							"type": "uint256"
						}
					],
					"name": "getAskAddress",
					"outputs": [
						{
							"internalType": "address payable",
							"name": "",
							"type": "address"
						}
					],
					"stateMutability": "view",
					"type": "function"
				},
				{
					"inputs": [
						{
							"internalType": "uint256",
							"name": "id",
							"type": "uint256"
						}
					],
					"name": "getAskState",
					"outputs": [
						{
							"internalType": "enum OrderBook.State",
							"name": "",
							"type": "uint8"
						}
					],
					"stateMutability": "view",
					"type": "function"
				},
				{
					"inputs": [
						{
							"internalType": "uint256",
							"name": "id",
							"type": "uint256"
						}
					],
					"name": "getAskValue",
					"outputs": [
						{
							"internalType": "uint256",
							"name": "",
							"type": "uint256"
						}
					],
					"stateMutability": "view",
					"type": "function"
				},
				{
					"inputs": [
						{
							"internalType": "uint256",
							"name": "id",
							"type": "uint256"
						}
					],
					"name": "getBidAddress",
					"outputs": [
						{
							"internalType": "address payable",
							"name": "",
							"type": "address"
						}
					],
					"stateMutability": "view",
					"type": "function"
				},
				{
					"inputs": [
						{
							"internalType": "uint256",
							"name": "id",
							"type": "uint256"
						}
					],
					"name": "getBidState",
					"outputs": [
						{
							"internalType": "enum OrderBook.State",
							"name": "",
							"type": "uint8"
						}
					],
					"stateMutability": "view",
					"type": "function"
				},
				{
					"inputs": [
						{
							"internalType": "uint256",
							"name": "id",
							"type": "uint256"
						}
					],
					"name": "getBidValue",
					"outputs": [
						{
							"internalType": "uint256",
							"name": "",
							"type": "uint256"
						}
					],
					"stateMutability": "view",
					"type": "function"
				},
				{
					"inputs": [
						{
							"internalType": "uint256",
							"name": "price",
							"type": "uint256"
						}
					],
					"name": "placeAsk",
					"outputs": [],
					"stateMutability": "payable",
					"type": "function"
				},
				{
					"inputs": [
						{
							"internalType": "uint256",
							"name": "price",
							"type": "uint256"
						}
					],
					"name": "placeBid",
					"outputs": [],
					"stateMutability": "payable",
					"type": "function"
				}
			],
			"devdoc": {
				"kind": "dev",
				"methods": {},
				"version": 1
			},
			"evm": {
				"assembly": "    /* \"contracts/OrderBook.sol\":1047:5933  contract OrderBook {... */\n  mstore(0x40, 0x80)\n    /* \"contracts/OrderBook.sol\":1350:1360  msg.sender */\n  caller\n    /* \"contracts/OrderBook.sol\":1317:1361  address payable _owner = payable(msg.sender) */\n  0x03\n  exp(0x0100, 0x00)\n  dup2\n  sload\n  dup2\n  0xffffffffffffffffffffffffffffffffffffffff\n  mul\n  not\n  and\n  swap1\n  dup4\n  0xffffffffffffffffffffffffffffffffffffffff\n  and\n  mul\n  or\n  swap1\n  sstore\n  pop\n    /* \"contracts/OrderBook.sol\":1438:1513  constructor (uint256 _commission) {... */\n  callvalue\n  dup1\n  iszero\n  tag_1\n  jumpi\n  0x00\n  dup1\n  revert\ntag_1:\n  pop\n  mload(0x40)\n  sub(codesize, bytecodeSize)\n  dup1\n  bytecodeSize\n  dup4\n  codecopy\n  dup2\n  dup2\n  add\n  0x40\n  mstore\n  dup2\n  add\n  swap1\n  tag_2\n  swap2\n  swap1\n  tag_3\n  jump\t// in\ntag_2:\n    /* \"contracts/OrderBook.sol\":1495:1506  _commission */\n  dup1\n    /* \"contracts/OrderBook.sol\":1482:1492  commission */\n  0x04\n    /* \"contracts/OrderBook.sol\":1482:1506  commission = _commission */\n  dup2\n  swap1\n  sstore\n  pop\n    /* \"contracts/OrderBook.sol\":1438:1513  constructor (uint256 _commission) {... */\n  pop\n    /* \"contracts/OrderBook.sol\":1047:5933  contract OrderBook {... */\n  jump(tag_6)\n    /* \"#utility.yul\":88:205   */\ntag_8:\n    /* \"#utility.yul\":197:198   */\n  0x00\n    /* \"#utility.yul\":194:195   */\n  dup1\n    /* \"#utility.yul\":187:199   */\n  revert\n    /* \"#utility.yul\":334:411   */\ntag_10:\n    /* \"#utility.yul\":371:378   */\n  0x00\n    /* \"#utility.yul\":400:405   */\n  dup2\n    /* \"#utility.yul\":389:405   */\n  swap1\n  pop\n    /* \"#utility.yul\":334:411   */\n  swap2\n  swap1\n  pop\n  jump\t// out\n    /* \"#utility.yul\":417:539   */\ntag_11:\n    /* \"#utility.yul\":490:514   */\n  tag_19\n    /* \"#utility.yul\":508:513   */\n  dup2\n    /* \"#utility.yul\":490:514   */\n  tag_10\n  jump\t// in\ntag_19:\n    /* \"#utility.yul\":483:488   */\n  dup2\n    /* \"#utility.yul\":480:515   */\n  eq\n    /* \"#utility.yul\":470:533   */\n  tag_20\n  jumpi\n    /* \"#utility.yul\":529:530   */\n  0x00\n    /* \"#utility.yul\":526:527   */\n  dup1\n    /* \"#utility.yul\":519:531   */\n  revert\n    /* \"#utility.yul\":470:533   */\ntag_20:\n    /* \"#utility.yul\":417:539   */\n  pop\n  jump\t// out\n    /* \"#utility.yul\":545:688   */\ntag_12:\n    /* \"#utility.yul\":602:607   */\n  0x00\n    /* \"#utility.yul\":633:639   */\n  dup2\n    /* \"#utility.yul\":627:640   */\n  mload\n    /* \"#utility.yul\":618:640   */\n  swap1\n  pop\n    /* \"#utility.yul\":649:682   */\n  tag_22\n    /* \"#utility.yul\":676:681   */\n  dup2\n    /* \"#utility.yul\":649:682   */\n  tag_11\n  jump\t// in\ntag_22:\n    /* \"#utility.yul\":545:688   */\n  swap3\n  swap2\n  pop\n  pop\n  jump\t// out\n    /* \"#utility.yul\":694:1045   */\ntag_3:\n    /* \"#utility.yul\":764:770   */\n  0x00\n    /* \"#utility.yul\":813:815   */\n  0x20\n    /* \"#utility.yul\":801:810   */\n  dup3\n    /* \"#utility.yul\":792:799   */\n  dup5\n    /* \"#utility.yul\":788:811   */\n  sub\n    /* \"#utility.yul\":784:816   */\n  slt\n    /* \"#utility.yul\":781:900   */\n  iszero\n  tag_24\n  jumpi\n    /* \"#utility.yul\":819:898   */\n  tag_25\n  tag_8\n  jump\t// in\ntag_25:\n    /* \"#utility.yul\":781:900   */\ntag_24:\n    /* \"#utility.yul\":939:940   */\n  0x00\n    /* \"#utility.yul\":964:1028   */\n  tag_26\n    /* \"#utility.yul\":1020:1027   */\n  dup5\n    /* \"#utility.yul\":1011:1017   */\n  dup3\n    /* \"#utility.yul\":1000:1009   */\n  dup6\n    /* \"#utility.yul\":996:1018   */\n  add\n    /* \"#utility.yul\":964:1028   */\n  tag_12\n  jump\t// in\ntag_26:\n    /* \"#utility.yul\":954:1028   */\n  swap2\n  pop\n    /* \"#utility.yul\":910:1038   */\n  pop\n    /* \"#utility.yul\":694:1045   */\n  swap3\n  swap2\n  pop\n  pop\n  jump\t// out\n    /* \"contracts/OrderBook.sol\":1047:5933  contract OrderBook {... */\ntag_6:\n  dataSize(sub_0)\n  dup1\n  dataOffset(sub_0)\n  0x00\n  codecopy\n  0x00\n  return\nstop\n\nsub_0: assembly {\n        /* \"contracts/OrderBook.sol\":1047:5933  contract OrderBook {... */\n      mstore(0x40, 0x80)\n      jumpi(tag_1, lt(calldatasize, 0x04))\n      shr(0xe0, calldataload(0x00))\n      dup1\n      0x7bb51193\n      gt\n      tag_20\n      jumpi\n      dup1\n      0xa394fda7\n      gt\n      tag_21\n      jumpi\n      dup1\n      0xa394fda7\n      eq\n      tag_15\n      jumpi\n      dup1\n      0xb40a5627\n      eq\n      tag_16\n      jumpi\n      dup1\n      0xbf77ffae\n      eq\n      tag_17\n      jumpi\n      dup1\n      0xce0cdc87\n      eq\n      tag_18\n      jumpi\n      dup1\n      0xdb3a1396\n      eq\n      tag_19\n      jumpi\n      jump(tag_1)\n    tag_21:\n      dup1\n      0x7bb51193\n      eq\n      tag_11\n      jumpi\n      dup1\n      0x801d9bbd\n      eq\n      tag_12\n      jumpi\n      dup1\n      0x9703ef35\n      eq\n      tag_13\n      jumpi\n      dup1\n      0x9979ef45\n      eq\n      tag_14\n      jumpi\n      jump(tag_1)\n    tag_20:\n      dup1\n      0x4d46712d\n      gt\n      tag_22\n      jumpi\n      dup1\n      0x4d46712d\n      eq\n      tag_6\n      jumpi\n      dup1\n      0x69f632e2\n      eq\n      tag_7\n      jumpi\n      dup1\n      0x6e5b0f00\n      eq\n      tag_8\n      jumpi\n      dup1\n      0x734a2e78\n      eq\n      tag_9\n      jumpi\n      dup1\n      0x78c5b268\n      eq\n      tag_10\n      jumpi\n      jump(tag_1)\n    tag_22:\n      dup1\n      0x122de8f2\n      eq\n      tag_2\n      jumpi\n      dup1\n      0x1628e0f5\n      eq\n      tag_3\n      jumpi\n      dup1\n      0x2db6dfa7\n      eq\n      tag_4\n      jumpi\n      dup1\n      0x4471417f\n      eq\n      tag_5\n      jumpi\n    tag_1:\n      0x00\n      dup1\n      revert\n        /* \"contracts/OrderBook.sol\":4997:5266  function fetchYourAskIds() public returns (uint[] memory) {... */\n    tag_2:\n      callvalue\n      dup1\n      iszero\n      tag_23\n      jumpi\n      0x00\n      dup1\n      revert\n    tag_23:\n      pop\n      tag_24\n      tag_25\n      jump\t// in\n    tag_24:\n      mload(0x40)\n      tag_26\n      swap2\n      swap1\n      tag_27\n      jump\t// in\n    tag_26:\n      mload(0x40)\n      dup1\n      swap2\n      sub\n      swap1\n      return\n        /* \"contracts/OrderBook.sol\":4177:4454  function cancelAsk (uint askId) public isPending(askBook[askId]) isAuthorised(askBook[askId], msg.sender) {... */\n    tag_3:\n      callvalue\n      dup1\n      iszero\n      tag_28\n      jumpi\n      0x00\n      dup1\n      revert\n    tag_28:\n      pop\n      tag_29\n      0x04\n      dup1\n      calldatasize\n      sub\n      dup2\n      add\n      swap1\n      tag_30\n      swap2\n      swap1\n      tag_31\n      jump\t// in\n    tag_30:\n      tag_32\n      jump\t// in\n    tag_29:\n      stop\n        /* \"contracts/OrderBook.sol\":5512:5613  function getBidValue (uint id) public view returns(uint256) {... */\n    tag_4:\n      callvalue\n      dup1\n      iszero\n      tag_33\n      jumpi\n      0x00\n      dup1\n      revert\n    tag_33:\n      pop\n      tag_34\n      0x04\n      dup1\n      calldatasize\n      sub\n      dup2\n      add\n      swap1\n      tag_35\n      swap2\n      swap1\n      tag_31\n      jump\t// in\n    tag_35:\n      tag_36\n      jump\t// in\n    tag_34:\n      mload(0x40)\n      tag_37\n      swap2\n      swap1\n      tag_38\n      jump\t// in\n    tag_37:\n      mload(0x40)\n      dup1\n      swap2\n      sub\n      swap1\n      return\n        /* \"contracts/OrderBook.sol\":4488:4583  function fetchAllBid() public returns (order[] memory) {... */\n    tag_5:\n      callvalue\n      dup1\n      iszero\n      tag_39\n      jumpi\n      0x00\n      dup1\n      revert\n    tag_39:\n      pop\n      tag_40\n      tag_41\n      jump\t// in\n    tag_40:\n      mload(0x40)\n      tag_42\n      swap2\n      swap1\n      tag_43\n      jump\t// in\n    tag_42:\n      mload(0x40)\n      dup1\n      swap2\n      sub\n      swap1\n      return\n        /* \"contracts/OrderBook.sol\":5831:5930  function getAskState (uint id) public view returns(State) {... */\n    tag_6:\n      callvalue\n      dup1\n      iszero\n      tag_44\n      jumpi\n      0x00\n      dup1\n      revert\n    tag_44:\n      pop\n      tag_45\n      0x04\n      dup1\n      calldatasize\n      sub\n      dup2\n      add\n      swap1\n      tag_46\n      swap2\n      swap1\n      tag_31\n      jump\t// in\n    tag_46:\n      tag_47\n      jump\t// in\n    tag_45:\n      mload(0x40)\n      tag_48\n      swap2\n      swap1\n      tag_49\n      jump\t// in\n    tag_48:\n      mload(0x40)\n      dup1\n      swap2\n      sub\n      swap1\n      return\n        /* \"contracts/OrderBook.sol\":5272:5386  function getBidAddress (uint id) public view returns(address payable) {... */\n    tag_7:\n      callvalue\n      dup1\n      iszero\n      tag_50\n      jumpi\n      0x00\n      dup1\n      revert\n    tag_50:\n      pop\n      tag_51\n      0x04\n      dup1\n      calldatasize\n      sub\n      dup2\n      add\n      swap1\n      tag_52\n      swap2\n      swap1\n      tag_31\n      jump\t// in\n    tag_52:\n      tag_53\n      jump\t// in\n    tag_51:\n      mload(0x40)\n      tag_54\n      swap2\n      swap1\n      tag_55\n      jump\t// in\n    tag_54:\n      mload(0x40)\n      dup1\n      swap2\n      sub\n      swap1\n      return\n        /* \"contracts/OrderBook.sol\":1918:1937  uint public bidHead */\n    tag_8:\n      callvalue\n      dup1\n      iszero\n      tag_56\n      jumpi\n      0x00\n      dup1\n      revert\n    tag_56:\n      pop\n      tag_57\n      tag_58\n      jump\t// in\n    tag_57:\n      mload(0x40)\n      tag_59\n      swap2\n      swap1\n      tag_38\n      jump\t// in\n    tag_59:\n      mload(0x40)\n      dup1\n      swap2\n      sub\n      swap1\n      return\n        /* \"contracts/OrderBook.sol\":5392:5506  function getAskAddress (uint id) public view returns(address payable) {... */\n    tag_9:\n      callvalue\n      dup1\n      iszero\n      tag_60\n      jumpi\n      0x00\n      dup1\n      revert\n    tag_60:\n      pop\n      tag_61\n      0x04\n      dup1\n      calldatasize\n      sub\n      dup2\n      add\n      swap1\n      tag_62\n      swap2\n      swap1\n      tag_31\n      jump\t// in\n    tag_62:\n      tag_63\n      jump\t// in\n    tag_61:\n      mload(0x40)\n      tag_64\n      swap2\n      swap1\n      tag_55\n      jump\t// in\n    tag_64:\n      mload(0x40)\n      dup1\n      swap2\n      sub\n      swap1\n      return\n        /* \"contracts/OrderBook.sol\":3620:4171  function placeAsk (uint256 price) public payable {... */\n    tag_10:\n      tag_65\n      0x04\n      dup1\n      calldatasize\n      sub\n      dup2\n      add\n      swap1\n      tag_66\n      swap2\n      swap1\n      tag_31\n      jump\t// in\n    tag_66:\n      tag_67\n      jump\t// in\n    tag_65:\n      stop\n        /* \"contracts/OrderBook.sol\":1943:1962  uint public bidTail */\n    tag_11:\n      callvalue\n      dup1\n      iszero\n      tag_68\n      jumpi\n      0x00\n      dup1\n      revert\n    tag_68:\n      pop\n      tag_69\n      tag_70\n      jump\t// in\n    tag_69:\n      mload(0x40)\n      tag_71\n      swap2\n      swap1\n      tag_38\n      jump\t// in\n    tag_71:\n      mload(0x40)\n      dup1\n      swap2\n      sub\n      swap1\n      return\n        /* \"contracts/OrderBook.sol\":2079:2098  uint public askHead */\n    tag_12:\n      callvalue\n      dup1\n      iszero\n      tag_72\n      jumpi\n      0x00\n      dup1\n      revert\n    tag_72:\n      pop\n      tag_73\n      tag_74\n      jump\t// in\n    tag_73:\n      mload(0x40)\n      tag_75\n      swap2\n      swap1\n      tag_38\n      jump\t// in\n    tag_75:\n      mload(0x40)\n      dup1\n      swap2\n      sub\n      swap1\n      return\n        /* \"contracts/OrderBook.sol\":3372:3614  function cancelBid (uint bidId) public isPending(bidBook[bidId]) isAuthorised(bidBook[bidId], msg.sender) {... */\n    tag_13:\n      callvalue\n      dup1\n      iszero\n      tag_76\n      jumpi\n      0x00\n      dup1\n      revert\n    tag_76:\n      pop\n      tag_77\n      0x04\n      dup1\n      calldatasize\n      sub\n      dup2\n      add\n      swap1\n      tag_78\n      swap2\n      swap1\n      tag_31\n      jump\t// in\n    tag_78:\n      tag_79\n      jump\t// in\n    tag_77:\n      stop\n        /* \"contracts/OrderBook.sol\":2815:3366  function placeBid (uint256 price) public payable {... */\n    tag_14:\n      tag_80\n      0x04\n      dup1\n      calldatasize\n      sub\n      dup2\n      add\n      swap1\n      tag_81\n      swap2\n      swap1\n      tag_31\n      jump\t// in\n    tag_81:\n      tag_82\n      jump\t// in\n    tag_80:\n      stop\n        /* \"contracts/OrderBook.sol\":2104:2124  uint public askCount */\n    tag_15:\n      callvalue\n      dup1\n      iszero\n      tag_83\n      jumpi\n      0x00\n      dup1\n      revert\n    tag_83:\n      pop\n      tag_84\n      tag_85\n      jump\t// in\n    tag_84:\n      mload(0x40)\n      tag_86\n      swap2\n      swap1\n      tag_38\n      jump\t// in\n    tag_86:\n      mload(0x40)\n      dup1\n      swap2\n      sub\n      swap1\n      return\n        /* \"contracts/OrderBook.sol\":1968:1988  uint public bidCount */\n    tag_16:\n      callvalue\n      dup1\n      iszero\n      tag_87\n      jumpi\n      0x00\n      dup1\n      revert\n    tag_87:\n      pop\n      tag_88\n      tag_89\n      jump\t// in\n    tag_88:\n      mload(0x40)\n      tag_90\n      swap2\n      swap1\n      tag_38\n      jump\t// in\n    tag_90:\n      mload(0x40)\n      dup1\n      swap2\n      sub\n      swap1\n      return\n        /* \"contracts/OrderBook.sol\":5726:5825  function getBidState (uint id) public view returns(State) {... */\n    tag_17:\n      callvalue\n      dup1\n      iszero\n      tag_91\n      jumpi\n      0x00\n      dup1\n      revert\n    tag_91:\n      pop\n      tag_92\n      0x04\n      dup1\n      calldatasize\n      sub\n      dup2\n      add\n      swap1\n      tag_93\n      swap2\n      swap1\n      tag_31\n      jump\t// in\n    tag_93:\n      tag_94\n      jump\t// in\n    tag_92:\n      mload(0x40)\n      tag_95\n      swap2\n      swap1\n      tag_49\n      jump\t// in\n    tag_95:\n      mload(0x40)\n      dup1\n      swap2\n      sub\n      swap1\n      return\n        /* \"contracts/OrderBook.sol\":4722:4991  function fetchYourBidIds() public returns (uint[] memory) {... */\n    tag_18:\n      callvalue\n      dup1\n      iszero\n      tag_96\n      jumpi\n      0x00\n      dup1\n      revert\n    tag_96:\n      pop\n      tag_97\n      tag_98\n      jump\t// in\n    tag_97:\n      mload(0x40)\n      tag_99\n      swap2\n      swap1\n      tag_27\n      jump\t// in\n    tag_99:\n      mload(0x40)\n      dup1\n      swap2\n      sub\n      swap1\n      return\n        /* \"contracts/OrderBook.sol\":5619:5720  function getAskValue (uint id) public view returns(uint256) {... */\n    tag_19:\n      callvalue\n      dup1\n      iszero\n      tag_100\n      jumpi\n      0x00\n      dup1\n      revert\n    tag_100:\n      pop\n      tag_101\n      0x04\n      dup1\n      calldatasize\n      sub\n      dup2\n      add\n      swap1\n      tag_102\n      swap2\n      swap1\n      tag_31\n      jump\t// in\n    tag_102:\n      tag_103\n      jump\t// in\n    tag_101:\n      mload(0x40)\n      tag_104\n      swap2\n      swap1\n      tag_38\n      jump\t// in\n    tag_104:\n      mload(0x40)\n      dup1\n      swap2\n      sub\n      swap1\n      return\n        /* \"contracts/OrderBook.sol\":4997:5266  function fetchYourAskIds() public returns (uint[] memory) {... */\n    tag_25:\n        /* \"contracts/OrderBook.sol\":5040:5053  uint[] memory */\n      0x60\n        /* \"contracts/OrderBook.sol\":4997:5266  function fetchYourAskIds() public returns (uint[] memory) {... */\n      swap1\n      jump\t// out\n        /* \"contracts/OrderBook.sol\":4177:4454  function cancelAsk (uint askId) public isPending(askBook[askId]) isAuthorised(askBook[askId], msg.sender) {... */\n    tag_32:\n        /* \"contracts/OrderBook.sol\":4226:4233  askBook */\n      0x09\n        /* \"contracts/OrderBook.sol\":4226:4240  askBook[askId] */\n      0x00\n        /* \"contracts/OrderBook.sol\":4234:4239  askId */\n      dup3\n        /* \"contracts/OrderBook.sol\":4226:4240  askBook[askId] */\n      dup2\n      mstore\n      0x20\n      add\n      swap1\n      dup2\n      mstore\n      0x20\n      add\n      0x00\n      keccak256\n        /* \"contracts/OrderBook.sol\":2378:2501  modifier isPending(order memory _order) {... */\n      mload(0x40)\n      dup1\n      0x0100\n      add\n      0x40\n      mstore\n      swap1\n      dup2\n      0x00\n      dup3\n      add\n      0x00\n      swap1\n      sload\n      swap1\n      0x0100\n      exp\n      swap1\n      div\n      0xffffffffffffffffffffffffffffffffffffffff\n      and\n      0xffffffffffffffffffffffffffffffffffffffff\n      and\n      0xffffffffffffffffffffffffffffffffffffffff\n      and\n      dup2\n      mstore\n      0x20\n      add\n      0x01\n      dup3\n      add\n      sload\n      dup2\n      mstore\n      0x20\n      add\n      0x02\n      dup3\n      add\n      sload\n      dup2\n      mstore\n      0x20\n      add\n      0x03\n      dup3\n      add\n      0x00\n      swap1\n      sload\n      swap1\n      0x0100\n      exp\n      swap1\n      div\n      0xff\n      and\n      0x01\n      dup2\n      gt\n      iszero\n      tag_106\n      jumpi\n      tag_107\n      tag_108\n      jump\t// in\n    tag_107:\n    tag_106:\n      0x01\n      dup2\n      gt\n      iszero\n      tag_109\n      jumpi\n      tag_110\n      tag_108\n      jump\t// in\n    tag_110:\n    tag_109:\n      dup2\n      mstore\n      0x20\n      add\n      0x04\n      dup3\n      add\n      sload\n      dup2\n      mstore\n      0x20\n      add\n      0x05\n      dup3\n      add\n      sload\n      dup2\n      mstore\n      0x20\n      add\n      0x06\n      dup3\n      add\n      sload\n      dup2\n      mstore\n      0x20\n      add\n      0x07\n      dup3\n      add\n      0x00\n      swap1\n      sload\n      swap1\n      0x0100\n      exp\n      swap1\n      div\n      0xff\n      and\n      iszero\n      iszero\n      iszero\n      iszero\n      dup2\n      mstore\n      pop\n      pop\n        /* \"contracts/OrderBook.sol\":2452:2465  State.pending */\n      0x00\n        /* \"contracts/OrderBook.sol\":2436:2465  _order.state == State.pending */\n      0x01\n      dup2\n      gt\n      iszero\n      tag_112\n      jumpi\n      tag_113\n      tag_108\n      jump\t// in\n    tag_113:\n    tag_112:\n        /* \"contracts/OrderBook.sol\":2436:2442  _order */\n      dup2\n        /* \"contracts/OrderBook.sol\":2436:2448  _order.state */\n      0x60\n      add\n      mload\n        /* \"contracts/OrderBook.sol\":2436:2465  _order.state == State.pending */\n      0x01\n      dup2\n      gt\n      iszero\n      tag_114\n      jumpi\n      tag_115\n      tag_108\n      jump\t// in\n    tag_115:\n    tag_114:\n      eq\n        /* \"contracts/OrderBook.sol\":2428:2483  require(_order.state == State.pending, \"Order Pending\") */\n      tag_116\n      jumpi\n      mload(0x40)\n      0x08c379a000000000000000000000000000000000000000000000000000000000\n      dup2\n      mstore\n      0x04\n      add\n      tag_117\n      swap1\n      tag_118\n      jump\t// in\n    tag_117:\n      mload(0x40)\n      dup1\n      swap2\n      sub\n      swap1\n      revert\n    tag_116:\n        /* \"contracts/OrderBook.sol\":4255:4262  askBook */\n      0x09\n        /* \"contracts/OrderBook.sol\":4255:4269  askBook[askId] */\n      0x00\n        /* \"contracts/OrderBook.sol\":4263:4268  askId */\n      dup4\n        /* \"contracts/OrderBook.sol\":4255:4269  askBook[askId] */\n      dup2\n      mstore\n      0x20\n      add\n      swap1\n      dup2\n      mstore\n      0x20\n      add\n      0x00\n      keccak256\n        /* \"contracts/OrderBook.sol\":2507:2646  modifier isAuthorised(order memory _order, address sender) {... */\n      mload(0x40)\n      dup1\n      0x0100\n      add\n      0x40\n      mstore\n      swap1\n      dup2\n      0x00\n      dup3\n      add\n      0x00\n      swap1\n      sload\n      swap1\n      0x0100\n      exp\n      swap1\n      div\n      0xffffffffffffffffffffffffffffffffffffffff\n      and\n      0xffffffffffffffffffffffffffffffffffffffff\n      and\n      0xffffffffffffffffffffffffffffffffffffffff\n      and\n      dup2\n      mstore\n      0x20\n      add\n      0x01\n      dup3\n      add\n      sload\n      dup2\n      mstore\n      0x20\n      add\n      0x02\n      dup3\n      add\n      sload\n      dup2\n      mstore\n      0x20\n      add\n      0x03\n      dup3\n      add\n      0x00\n      swap1\n      sload\n      swap1\n      0x0100\n      exp\n      swap1\n      div\n      0xff\n      and\n      0x01\n      dup2\n      gt\n      iszero\n      tag_119\n      jumpi\n      tag_120\n      tag_108\n      jump\t// in\n    tag_120:\n    tag_119:\n      0x01\n      dup2\n      gt\n      iszero\n      tag_121\n      jumpi\n      tag_122\n      tag_108\n      jump\t// in\n    tag_122:\n    tag_121:\n      dup2\n      mstore\n      0x20\n      add\n      0x04\n      dup3\n      add\n      sload\n      dup2\n      mstore\n      0x20\n      add\n      0x05\n      dup3\n      add\n      sload\n      dup2\n      mstore\n      0x20\n      add\n      0x06\n      dup3\n      add\n      sload\n      dup2\n      mstore\n      0x20\n      add\n      0x07\n      dup3\n      add\n      0x00\n      swap1\n      sload\n      swap1\n      0x0100\n      exp\n      swap1\n      div\n      0xff\n      and\n      iszero\n      iszero\n      iszero\n      iszero\n      dup2\n      mstore\n      pop\n      pop\n        /* \"contracts/OrderBook.sol\":4271:4281  msg.sender */\n      caller\n        /* \"contracts/OrderBook.sol\":2603:2609  sender */\n      dup1\n        /* \"contracts/OrderBook.sol\":2584:2609  _order.customer == sender */\n      0xffffffffffffffffffffffffffffffffffffffff\n      and\n        /* \"contracts/OrderBook.sol\":2584:2590  _order */\n      dup3\n        /* \"contracts/OrderBook.sol\":2584:2599  _order.customer */\n      0x00\n      add\n      mload\n        /* \"contracts/OrderBook.sol\":2584:2609  _order.customer == sender */\n      0xffffffffffffffffffffffffffffffffffffffff\n      and\n      eq\n        /* \"contracts/OrderBook.sol\":2576:2628  require(_order.customer == sender, \"Not Authorised\") */\n      tag_124\n      jumpi\n      mload(0x40)\n      0x08c379a000000000000000000000000000000000000000000000000000000000\n      dup2\n      mstore\n      0x04\n      add\n      tag_125\n      swap1\n      tag_126\n      jump\t// in\n    tag_125:\n      mload(0x40)\n      dup1\n      swap2\n      sub\n      swap1\n      revert\n    tag_124:\n        /* \"contracts/OrderBook.sol\":4293:4300  askBook */\n      0x09\n        /* \"contracts/OrderBook.sol\":4293:4307  askBook[askId] */\n      0x00\n        /* \"contracts/OrderBook.sol\":4301:4306  askId */\n      dup6\n        /* \"contracts/OrderBook.sol\":4293:4307  askBook[askId] */\n      dup2\n      mstore\n      0x20\n      add\n      swap1\n      dup2\n      mstore\n      0x20\n      add\n      0x00\n      keccak256\n        /* \"contracts/OrderBook.sol\":4293:4316  askBook[askId].customer */\n      0x00\n      add\n      0x00\n      swap1\n      sload\n      swap1\n      0x0100\n      exp\n      swap1\n      div\n      0xffffffffffffffffffffffffffffffffffffffff\n      and\n        /* \"contracts/OrderBook.sol\":4293:4325  askBook[askId].customer.transfer */\n      0xffffffffffffffffffffffffffffffffffffffff\n      and\n        /* \"contracts/OrderBook.sol\":4293:4347  askBook[askId].customer.transfer(askBook[askId].value) */\n      0x08fc\n        /* \"contracts/OrderBook.sol\":4326:4333  askBook */\n      0x09\n        /* \"contracts/OrderBook.sol\":4326:4340  askBook[askId] */\n      0x00\n        /* \"contracts/OrderBook.sol\":4334:4339  askId */\n      dup8\n        /* \"contracts/OrderBook.sol\":4326:4340  askBook[askId] */\n      dup2\n      mstore\n      0x20\n      add\n      swap1\n      dup2\n      mstore\n      0x20\n      add\n      0x00\n      keccak256\n        /* \"contracts/OrderBook.sol\":4326:4346  askBook[askId].value */\n      0x01\n      add\n      sload\n        /* \"contracts/OrderBook.sol\":4293:4347  askBook[askId].customer.transfer(askBook[askId].value) */\n      swap1\n      dup2\n      iszero\n      mul\n      swap1\n      mload(0x40)\n      0x00\n      mload(0x40)\n      dup1\n      dup4\n      sub\n      dup2\n      dup6\n      dup9\n      dup9\n      call\n      swap4\n      pop\n      pop\n      pop\n      pop\n      iszero\n      dup1\n      iszero\n      tag_129\n      jumpi\n      returndatasize\n      0x00\n      dup1\n      returndatacopy\n      revert(0x00, returndatasize)\n    tag_129:\n      pop\n        /* \"contracts/OrderBook.sol\":4364:4371  askBook */\n      0x09\n        /* \"contracts/OrderBook.sol\":4364:4378  askBook[askId] */\n      0x00\n        /* \"contracts/OrderBook.sol\":4372:4377  askId */\n      dup6\n        /* \"contracts/OrderBook.sol\":4364:4378  askBook[askId] */\n      dup2\n      mstore\n      0x20\n      add\n      swap1\n      dup2\n      mstore\n      0x20\n      add\n      0x00\n      keccak256\n      0x00\n        /* \"contracts/OrderBook.sol\":4357:4378  delete askBook[askId] */\n      dup1\n      dup3\n      add\n      exp(0x0100, 0x00)\n      dup2\n      sload\n      swap1\n      0xffffffffffffffffffffffffffffffffffffffff\n      mul\n      not\n      and\n      swap1\n      sstore\n      0x01\n      dup3\n      add\n      0x00\n      swap1\n      sstore\n      0x02\n      dup3\n      add\n      0x00\n      swap1\n      sstore\n      0x03\n      dup3\n      add\n      exp(0x0100, 0x00)\n      dup2\n      sload\n      swap1\n      0xff\n      mul\n      not\n      and\n      swap1\n      sstore\n      0x04\n      dup3\n      add\n      0x00\n      swap1\n      sstore\n      0x05\n      dup3\n      add\n      0x00\n      swap1\n      sstore\n      0x06\n      dup3\n      add\n      0x00\n      swap1\n      sstore\n      0x07\n      dup3\n      add\n      exp(0x0100, 0x00)\n      dup2\n      sload\n      swap1\n      0xff\n      mul\n      not\n      and\n      swap1\n      sstore\n      pop\n      pop\n        /* \"contracts/OrderBook.sol\":4428:4447  askCancelled(askId) */\n      0x48d3043fff66c1aee14954ac5aa463b0297fb08c9b60ee00486fb3387bb58aac\n        /* \"contracts/OrderBook.sol\":4441:4446  askId */\n      dup5\n        /* \"contracts/OrderBook.sol\":4428:4447  askCancelled(askId) */\n      mload(0x40)\n      tag_130\n      swap2\n      swap1\n      tag_38\n      jump\t// in\n    tag_130:\n      mload(0x40)\n      dup1\n      swap2\n      sub\n      swap1\n      log1\n        /* \"contracts/OrderBook.sol\":2493:2494  _ */\n      pop\n      pop\n        /* \"contracts/OrderBook.sol\":4177:4454  function cancelAsk (uint askId) public isPending(askBook[askId]) isAuthorised(askBook[askId], msg.sender) {... */\n      pop\n      pop\n      jump\t// out\n        /* \"contracts/OrderBook.sol\":5512:5613  function getBidValue (uint id) public view returns(uint256) {... */\n    tag_36:\n        /* \"contracts/OrderBook.sol\":5563:5570  uint256 */\n      0x00\n        /* \"contracts/OrderBook.sol\":5589:5596  bidBook */\n      0x05\n        /* \"contracts/OrderBook.sol\":5589:5600  bidBook[id] */\n      0x00\n        /* \"contracts/OrderBook.sol\":5597:5599  id */\n      dup4\n        /* \"contracts/OrderBook.sol\":5589:5600  bidBook[id] */\n      dup2\n      mstore\n      0x20\n      add\n      swap1\n      dup2\n      mstore\n      0x20\n      add\n      0x00\n      keccak256\n        /* \"contracts/OrderBook.sol\":5589:5606  bidBook[id].value */\n      0x01\n      add\n      sload\n        /* \"contracts/OrderBook.sol\":5582:5606  return bidBook[id].value */\n      swap1\n      pop\n        /* \"contracts/OrderBook.sol\":5512:5613  function getBidValue (uint id) public view returns(uint256) {... */\n      swap2\n      swap1\n      pop\n      jump\t// out\n        /* \"contracts/OrderBook.sol\":4488:4583  function fetchAllBid() public returns (order[] memory) {... */\n    tag_41:\n        /* \"contracts/OrderBook.sol\":4527:4541  order[] memory */\n      0x60\n        /* \"contracts/OrderBook.sol\":4488:4583  function fetchAllBid() public returns (order[] memory) {... */\n      swap1\n      jump\t// out\n        /* \"contracts/OrderBook.sol\":5831:5930  function getAskState (uint id) public view returns(State) {... */\n    tag_47:\n        /* \"contracts/OrderBook.sol\":5882:5887  State */\n      0x00\n        /* \"contracts/OrderBook.sol\":5906:5913  askBook */\n      0x09\n        /* \"contracts/OrderBook.sol\":5906:5917  askBook[id] */\n      0x00\n        /* \"contracts/OrderBook.sol\":5914:5916  id */\n      dup4\n        /* \"contracts/OrderBook.sol\":5906:5917  askBook[id] */\n      dup2\n      mstore\n      0x20\n      add\n      swap1\n      dup2\n      mstore\n      0x20\n      add\n      0x00\n      keccak256\n        /* \"contracts/OrderBook.sol\":5906:5923  askBook[id].state */\n      0x03\n      add\n      0x00\n      swap1\n      sload\n      swap1\n      0x0100\n      exp\n      swap1\n      div\n      0xff\n      and\n        /* \"contracts/OrderBook.sol\":5899:5923  return askBook[id].state */\n      swap1\n      pop\n        /* \"contracts/OrderBook.sol\":5831:5930  function getAskState (uint id) public view returns(State) {... */\n      swap2\n      swap1\n      pop\n      jump\t// out\n        /* \"contracts/OrderBook.sol\":5272:5386  function getBidAddress (uint id) public view returns(address payable) {... */\n    tag_53:\n        /* \"contracts/OrderBook.sol\":5325:5340  address payable */\n      0x00\n        /* \"contracts/OrderBook.sol\":5359:5366  bidBook */\n      0x05\n        /* \"contracts/OrderBook.sol\":5359:5370  bidBook[id] */\n      0x00\n        /* \"contracts/OrderBook.sol\":5367:5369  id */\n      dup4\n        /* \"contracts/OrderBook.sol\":5359:5370  bidBook[id] */\n      dup2\n      mstore\n      0x20\n      add\n      swap1\n      dup2\n      mstore\n      0x20\n      add\n      0x00\n      keccak256\n        /* \"contracts/OrderBook.sol\":5359:5379  bidBook[id].customer */\n      0x00\n      add\n      0x00\n      swap1\n      sload\n      swap1\n      0x0100\n      exp\n      swap1\n      div\n      0xffffffffffffffffffffffffffffffffffffffff\n      and\n        /* \"contracts/OrderBook.sol\":5352:5379  return bidBook[id].customer */\n      swap1\n      pop\n        /* \"contracts/OrderBook.sol\":5272:5386  function getBidAddress (uint id) public view returns(address payable) {... */\n      swap2\n      swap1\n      pop\n      jump\t// out\n        /* \"contracts/OrderBook.sol\":1918:1937  uint public bidHead */\n    tag_58:\n      sload(0x06)\n      dup2\n      jump\t// out\n        /* \"contracts/OrderBook.sol\":5392:5506  function getAskAddress (uint id) public view returns(address payable) {... */\n    tag_63:\n        /* \"contracts/OrderBook.sol\":5445:5460  address payable */\n      0x00\n        /* \"contracts/OrderBook.sol\":5479:5486  askBook */\n      0x09\n        /* \"contracts/OrderBook.sol\":5479:5490  askBook[id] */\n      0x00\n        /* \"contracts/OrderBook.sol\":5487:5489  id */\n      dup4\n        /* \"contracts/OrderBook.sol\":5479:5490  askBook[id] */\n      dup2\n      mstore\n      0x20\n      add\n      swap1\n      dup2\n      mstore\n      0x20\n      add\n      0x00\n      keccak256\n        /* \"contracts/OrderBook.sol\":5479:5499  askBook[id].customer */\n      0x00\n      add\n      0x00\n      swap1\n      sload\n      swap1\n      0x0100\n      exp\n      swap1\n      div\n      0xffffffffffffffffffffffffffffffffffffffff\n      and\n        /* \"contracts/OrderBook.sol\":5472:5499  return askBook[id].customer */\n      swap1\n      pop\n        /* \"contracts/OrderBook.sol\":5392:5506  function getAskAddress (uint id) public view returns(address payable) {... */\n      swap2\n      swap1\n      pop\n      jump\t// out\n        /* \"contracts/OrderBook.sol\":3620:4171  function placeAsk (uint256 price) public payable {... */\n    tag_67:\n        /* \"contracts/OrderBook.sol\":3696:3697  0 */\n      0x00\n        /* \"contracts/OrderBook.sol\":3687:3692  price */\n      dup2\n        /* \"contracts/OrderBook.sol\":3687:3697  price >= 0 */\n      lt\n      iszero\n        /* \"contracts/OrderBook.sol\":3679:3733  require(price >= 0, \"price value must be more than 0\") */\n      tag_137\n      jumpi\n      mload(0x40)\n      0x08c379a000000000000000000000000000000000000000000000000000000000\n      dup2\n      mstore\n      0x04\n      add\n      tag_138\n      swap1\n      tag_139\n      jump\t// in\n    tag_138:\n      mload(0x40)\n      dup1\n      swap2\n      sub\n      swap1\n      revert\n    tag_137:\n        /* \"contracts/OrderBook.sol\":3764:3769  price */\n      dup1\n        /* \"contracts/OrderBook.sol\":3751:3760  msg.value */\n      callvalue\n        /* \"contracts/OrderBook.sol\":3751:3769  msg.value >= price */\n      lt\n      iszero\n        /* \"contracts/OrderBook.sol\":3743:3804  require(msg.value >= price, \"Not enough blance to place ask\") */\n      tag_140\n      jumpi\n      mload(0x40)\n      0x08c379a000000000000000000000000000000000000000000000000000000000\n      dup2\n      mstore\n      0x04\n      add\n      tag_141\n      swap1\n      tag_142\n      jump\t// in\n    tag_141:\n      mload(0x40)\n      dup1\n      swap2\n      sub\n      swap1\n      revert\n    tag_140:\n        /* \"contracts/OrderBook.sol\":3814:3826  uint256 time */\n      0x00\n        /* \"contracts/OrderBook.sol\":3829:3844  block.timestamp */\n      timestamp\n        /* \"contracts/OrderBook.sol\":3814:3844  uint256 time = block.timestamp */\n      swap1\n      pop\n        /* \"contracts/OrderBook.sol\":3854:3879  uint256 commissionedPrice */\n      0x00\n        /* \"contracts/OrderBook.sol\":3913:3916  100 */\n      0x64\n        /* \"contracts/OrderBook.sol\":3899:3909  commission */\n      sload(0x04)\n        /* \"contracts/OrderBook.sol\":3895:3898  100 */\n      0x64\n        /* \"contracts/OrderBook.sol\":3895:3909  100-commission */\n      tag_143\n      swap2\n      swap1\n      tag_144\n      jump\t// in\n    tag_143:\n        /* \"contracts/OrderBook.sol\":3882:3891  msg.value */\n      callvalue\n        /* \"contracts/OrderBook.sol\":3882:3910  msg.value * (100-commission) */\n      tag_145\n      swap2\n      swap1\n      tag_146\n      jump\t// in\n    tag_145:\n        /* \"contracts/OrderBook.sol\":3882:3916  msg.value * (100-commission) / 100 */\n      tag_147\n      swap2\n      swap1\n      tag_148\n      jump\t// in\n    tag_147:\n        /* \"contracts/OrderBook.sol\":3854:3916  uint256 commissionedPrice = msg.value * (100-commission) / 100 */\n      swap1\n      pop\n        /* \"contracts/OrderBook.sol\":4057:4063  _owner */\n      0x03\n      0x00\n      swap1\n      sload\n      swap1\n      0x0100\n      exp\n      swap1\n      div\n      0xffffffffffffffffffffffffffffffffffffffff\n      and\n        /* \"contracts/OrderBook.sol\":4057:4072  _owner.transfer */\n      0xffffffffffffffffffffffffffffffffffffffff\n      and\n        /* \"contracts/OrderBook.sol\":4057:4091  _owner.transfer(commissionedPrice) */\n      0x08fc\n        /* \"contracts/OrderBook.sol\":4073:4090  commissionedPrice */\n      dup3\n        /* \"contracts/OrderBook.sol\":4057:4091  _owner.transfer(commissionedPrice) */\n      swap1\n      dup2\n      iszero\n      mul\n      swap1\n      mload(0x40)\n      0x00\n      mload(0x40)\n      dup1\n      dup4\n      sub\n      dup2\n      dup6\n      dup9\n      dup9\n      call\n      swap4\n      pop\n      pop\n      pop\n      pop\n      iszero\n      dup1\n      iszero\n      tag_150\n      jumpi\n      returndatasize\n      0x00\n      dup1\n      returndatacopy\n      revert(0x00, returndatasize)\n    tag_150:\n      pop\n        /* \"contracts/OrderBook.sol\":4106:4164  askPlaced(msg.sender,commissionedPrice,time,State.pending) */\n      0xc2125a7f3edfeff7a3bbcfe393c5aa3a6589585d4a7ee70db48c34f67c8209e2\n        /* \"contracts/OrderBook.sol\":4116:4126  msg.sender */\n      caller\n        /* \"contracts/OrderBook.sol\":4127:4144  commissionedPrice */\n      dup3\n        /* \"contracts/OrderBook.sol\":4145:4149  time */\n      dup5\n        /* \"contracts/OrderBook.sol\":4150:4163  State.pending */\n      0x00\n        /* \"contracts/OrderBook.sol\":4106:4164  askPlaced(msg.sender,commissionedPrice,time,State.pending) */\n      mload(0x40)\n      tag_151\n      swap5\n      swap4\n      swap3\n      swap2\n      swap1\n      tag_152\n      jump\t// in\n    tag_151:\n      mload(0x40)\n      dup1\n      swap2\n      sub\n      swap1\n      log1\n        /* \"contracts/OrderBook.sol\":3669:4171  {... */\n      pop\n      pop\n        /* \"contracts/OrderBook.sol\":3620:4171  function placeAsk (uint256 price) public payable {... */\n      pop\n      jump\t// out\n        /* \"contracts/OrderBook.sol\":1943:1962  uint public bidTail */\n    tag_70:\n      sload(0x07)\n      dup2\n      jump\t// out\n        /* \"contracts/OrderBook.sol\":2079:2098  uint public askHead */\n    tag_74:\n      sload(0x0a)\n      dup2\n      jump\t// out\n        /* \"contracts/OrderBook.sol\":3372:3614  function cancelBid (uint bidId) public isPending(bidBook[bidId]) isAuthorised(bidBook[bidId], msg.sender) {... */\n    tag_79:\n        /* \"contracts/OrderBook.sol\":3421:3428  bidBook */\n      0x05\n        /* \"contracts/OrderBook.sol\":3421:3435  bidBook[bidId] */\n      0x00\n        /* \"contracts/OrderBook.sol\":3429:3434  bidId */\n      dup3\n        /* \"contracts/OrderBook.sol\":3421:3435  bidBook[bidId] */\n      dup2\n      mstore\n      0x20\n      add\n      swap1\n      dup2\n      mstore\n      0x20\n      add\n      0x00\n      keccak256\n        /* \"contracts/OrderBook.sol\":2378:2501  modifier isPending(order memory _order) {... */\n      mload(0x40)\n      dup1\n      0x0100\n      add\n      0x40\n      mstore\n      swap1\n      dup2\n      0x00\n      dup3\n      add\n      0x00\n      swap1\n      sload\n      swap1\n      0x0100\n      exp\n      swap1\n      div\n      0xffffffffffffffffffffffffffffffffffffffff\n      and\n      0xffffffffffffffffffffffffffffffffffffffff\n      and\n      0xffffffffffffffffffffffffffffffffffffffff\n      and\n      dup2\n      mstore\n      0x20\n      add\n      0x01\n      dup3\n      add\n      sload\n      dup2\n      mstore\n      0x20\n      add\n      0x02\n      dup3\n      add\n      sload\n      dup2\n      mstore\n      0x20\n      add\n      0x03\n      dup3\n      add\n      0x00\n      swap1\n      sload\n      swap1\n      0x0100\n      exp\n      swap1\n      div\n      0xff\n      and\n      0x01\n      dup2\n      gt\n      iszero\n      tag_153\n      jumpi\n      tag_154\n      tag_108\n      jump\t// in\n    tag_154:\n    tag_153:\n      0x01\n      dup2\n      gt\n      iszero\n      tag_155\n      jumpi\n      tag_156\n      tag_108\n      jump\t// in\n    tag_156:\n    tag_155:\n      dup2\n      mstore\n      0x20\n      add\n      0x04\n      dup3\n      add\n      sload\n      dup2\n      mstore\n      0x20\n      add\n      0x05\n      dup3\n      add\n      sload\n      dup2\n      mstore\n      0x20\n      add\n      0x06\n      dup3\n      add\n      sload\n      dup2\n      mstore\n      0x20\n      add\n      0x07\n      dup3\n      add\n      0x00\n      swap1\n      sload\n      swap1\n      0x0100\n      exp\n      swap1\n      div\n      0xff\n      and\n      iszero\n      iszero\n      iszero\n      iszero\n      dup2\n      mstore\n      pop\n      pop\n        /* \"contracts/OrderBook.sol\":2452:2465  State.pending */\n      0x00\n        /* \"contracts/OrderBook.sol\":2436:2465  _order.state == State.pending */\n      0x01\n      dup2\n      gt\n      iszero\n      tag_158\n      jumpi\n      tag_159\n      tag_108\n      jump\t// in\n    tag_159:\n    tag_158:\n        /* \"contracts/OrderBook.sol\":2436:2442  _order */\n      dup2\n        /* \"contracts/OrderBook.sol\":2436:2448  _order.state */\n      0x60\n      add\n      mload\n        /* \"contracts/OrderBook.sol\":2436:2465  _order.state == State.pending */\n      0x01\n      dup2\n      gt\n      iszero\n      tag_160\n      jumpi\n      tag_161\n      tag_108\n      jump\t// in\n    tag_161:\n    tag_160:\n      eq\n        /* \"contracts/OrderBook.sol\":2428:2483  require(_order.state == State.pending, \"Order Pending\") */\n      tag_162\n      jumpi\n      mload(0x40)\n      0x08c379a000000000000000000000000000000000000000000000000000000000\n      dup2\n      mstore\n      0x04\n      add\n      tag_163\n      swap1\n      tag_118\n      jump\t// in\n    tag_163:\n      mload(0x40)\n      dup1\n      swap2\n      sub\n      swap1\n      revert\n    tag_162:\n        /* \"contracts/OrderBook.sol\":3450:3457  bidBook */\n      0x05\n        /* \"contracts/OrderBook.sol\":3450:3464  bidBook[bidId] */\n      0x00\n        /* \"contracts/OrderBook.sol\":3458:3463  bidId */\n      dup4\n        /* \"contracts/OrderBook.sol\":3450:3464  bidBook[bidId] */\n      dup2\n      mstore\n      0x20\n      add\n      swap1\n      dup2\n      mstore\n      0x20\n      add\n      0x00\n      keccak256\n        /* \"contracts/OrderBook.sol\":2507:2646  modifier isAuthorised(order memory _order, address sender) {... */\n      mload(0x40)\n      dup1\n      0x0100\n      add\n      0x40\n      mstore\n      swap1\n      dup2\n      0x00\n      dup3\n      add\n      0x00\n      swap1\n      sload\n      swap1\n      0x0100\n      exp\n      swap1\n      div\n      0xffffffffffffffffffffffffffffffffffffffff\n      and\n      0xffffffffffffffffffffffffffffffffffffffff\n      and\n      0xffffffffffffffffffffffffffffffffffffffff\n      and\n      dup2\n      mstore\n      0x20\n      add\n      0x01\n      dup3\n      add\n      sload\n      dup2\n      mstore\n      0x20\n      add\n      0x02\n      dup3\n      add\n      sload\n      dup2\n      mstore\n      0x20\n      add\n      0x03\n      dup3\n      add\n      0x00\n      swap1\n      sload\n      swap1\n      0x0100\n      exp\n      swap1\n      div\n      0xff\n      and\n      0x01\n      dup2\n      gt\n      iszero\n      tag_164\n      jumpi\n      tag_165\n      tag_108\n      jump\t// in\n    tag_165:\n    tag_164:\n      0x01\n      dup2\n      gt\n      iszero\n      tag_166\n      jumpi\n      tag_167\n      tag_108\n      jump\t// in\n    tag_167:\n    tag_166:\n      dup2\n      mstore\n      0x20\n      add\n      0x04\n      dup3\n      add\n      sload\n      dup2\n      mstore\n      0x20\n      add\n      0x05\n      dup3\n      add\n      sload\n      dup2\n      mstore\n      0x20\n      add\n      0x06\n      dup3\n      add\n      sload\n      dup2\n      mstore\n      0x20\n      add\n      0x07\n      dup3\n      add\n      0x00\n      swap1\n      sload\n      swap1\n      0x0100\n      exp\n      swap1\n      div\n      0xff\n      and\n      iszero\n      iszero\n      iszero\n      iszero\n      dup2\n      mstore\n      pop\n      pop\n        /* \"contracts/OrderBook.sol\":3466:3476  msg.sender */\n      caller\n        /* \"contracts/OrderBook.sol\":2603:2609  sender */\n      dup1\n        /* \"contracts/OrderBook.sol\":2584:2609  _order.customer == sender */\n      0xffffffffffffffffffffffffffffffffffffffff\n      and\n        /* \"contracts/OrderBook.sol\":2584:2590  _order */\n      dup3\n        /* \"contracts/OrderBook.sol\":2584:2599  _order.customer */\n      0x00\n      add\n      mload\n        /* \"contracts/OrderBook.sol\":2584:2609  _order.customer == sender */\n      0xffffffffffffffffffffffffffffffffffffffff\n      and\n      eq\n        /* \"contracts/OrderBook.sol\":2576:2628  require(_order.customer == sender, \"Not Authorised\") */\n      tag_169\n      jumpi\n      mload(0x40)\n      0x08c379a000000000000000000000000000000000000000000000000000000000\n      dup2\n      mstore\n      0x04\n      add\n      tag_170\n      swap1\n      tag_126\n      jump\t// in\n    tag_170:\n      mload(0x40)\n      dup1\n      swap2\n      sub\n      swap1\n      revert\n    tag_169:\n        /* \"contracts/OrderBook.sol\":3488:3495  bidBook */\n      0x05\n        /* \"contracts/OrderBook.sol\":3488:3502  bidBook[bidId] */\n      0x00\n        /* \"contracts/OrderBook.sol\":3496:3501  bidId */\n      dup6\n        /* \"contracts/OrderBook.sol\":3488:3502  bidBook[bidId] */\n      dup2\n      mstore\n      0x20\n      add\n      swap1\n      dup2\n      mstore\n      0x20\n      add\n      0x00\n      keccak256\n        /* \"contracts/OrderBook.sol\":3488:3511  bidBook[bidId].customer */\n      0x00\n      add\n      0x00\n      swap1\n      sload\n      swap1\n      0x0100\n      exp\n      swap1\n      div\n      0xffffffffffffffffffffffffffffffffffffffff\n      and\n        /* \"contracts/OrderBook.sol\":3488:3520  bidBook[bidId].customer.transfer */\n      0xffffffffffffffffffffffffffffffffffffffff\n      and\n        /* \"contracts/OrderBook.sol\":3488:3542  bidBook[bidId].customer.transfer(bidBook[bidId].value) */\n      0x08fc\n        /* \"contracts/OrderBook.sol\":3521:3528  bidBook */\n      0x05\n        /* \"contracts/OrderBook.sol\":3521:3535  bidBook[bidId] */\n      0x00\n        /* \"contracts/OrderBook.sol\":3529:3534  bidId */\n      dup8\n        /* \"contracts/OrderBook.sol\":3521:3535  bidBook[bidId] */\n      dup2\n      mstore\n      0x20\n      add\n      swap1\n      dup2\n      mstore\n      0x20\n      add\n      0x00\n      keccak256\n        /* \"contracts/OrderBook.sol\":3521:3541  bidBook[bidId].value */\n      0x01\n      add\n      sload\n        /* \"contracts/OrderBook.sol\":3488:3542  bidBook[bidId].customer.transfer(bidBook[bidId].value) */\n      swap1\n      dup2\n      iszero\n      mul\n      swap1\n      mload(0x40)\n      0x00\n      mload(0x40)\n      dup1\n      dup4\n      sub\n      dup2\n      dup6\n      dup9\n      dup9\n      call\n      swap4\n      pop\n      pop\n      pop\n      pop\n      iszero\n      dup1\n      iszero\n      tag_173\n      jumpi\n      returndatasize\n      0x00\n      dup1\n      returndatacopy\n      revert(0x00, returndatasize)\n    tag_173:\n      pop\n        /* \"contracts/OrderBook.sol\":3559:3566  bidBook */\n      0x05\n        /* \"contracts/OrderBook.sol\":3559:3573  bidBook[bidId] */\n      0x00\n        /* \"contracts/OrderBook.sol\":3567:3572  bidId */\n      dup6\n        /* \"contracts/OrderBook.sol\":3559:3573  bidBook[bidId] */\n      dup2\n      mstore\n      0x20\n      add\n      swap1\n      dup2\n      mstore\n      0x20\n      add\n      0x00\n      keccak256\n      0x00\n        /* \"contracts/OrderBook.sol\":3552:3573  delete bidBook[bidId] */\n      dup1\n      dup3\n      add\n      exp(0x0100, 0x00)\n      dup2\n      sload\n      swap1\n      0xffffffffffffffffffffffffffffffffffffffff\n      mul\n      not\n      and\n      swap1\n      sstore\n      0x01\n      dup3\n      add\n      0x00\n      swap1\n      sstore\n      0x02\n      dup3\n      add\n      0x00\n      swap1\n      sstore\n      0x03\n      dup3\n      add\n      exp(0x0100, 0x00)\n      dup2\n      sload\n      swap1\n      0xff\n      mul\n      not\n      and\n      swap1\n      sstore\n      0x04\n      dup3\n      add\n      0x00\n      swap1\n      sstore\n      0x05\n      dup3\n      add\n      0x00\n      swap1\n      sstore\n      0x06\n      dup3\n      add\n      0x00\n      swap1\n      sstore\n      0x07\n      dup3\n      add\n      exp(0x0100, 0x00)\n      dup2\n      sload\n      swap1\n      0xff\n      mul\n      not\n      and\n      swap1\n      sstore\n      pop\n      pop\n        /* \"contracts/OrderBook.sol\":3588:3607  bidCancelled(bidId) */\n      0xc845a6832afa0a4048dd70bbba2186093508a6b63a8d5d70a508f819fef257f8\n        /* \"contracts/OrderBook.sol\":3601:3606  bidId */\n      dup5\n        /* \"contracts/OrderBook.sol\":3588:3607  bidCancelled(bidId) */\n      mload(0x40)\n      tag_174\n      swap2\n      swap1\n      tag_38\n      jump\t// in\n    tag_174:\n      mload(0x40)\n      dup1\n      swap2\n      sub\n      swap1\n      log1\n        /* \"contracts/OrderBook.sol\":2493:2494  _ */\n      pop\n      pop\n        /* \"contracts/OrderBook.sol\":3372:3614  function cancelBid (uint bidId) public isPending(bidBook[bidId]) isAuthorised(bidBook[bidId], msg.sender) {... */\n      pop\n      pop\n      jump\t// out\n        /* \"contracts/OrderBook.sol\":2815:3366  function placeBid (uint256 price) public payable {... */\n    tag_82:\n        /* \"contracts/OrderBook.sol\":2891:2892  0 */\n      0x00\n        /* \"contracts/OrderBook.sol\":2882:2887  price */\n      dup2\n        /* \"contracts/OrderBook.sol\":2882:2892  price >= 0 */\n      lt\n      iszero\n        /* \"contracts/OrderBook.sol\":2874:2928  require(price >= 0, \"price value must be more than 0\") */\n      tag_176\n      jumpi\n      mload(0x40)\n      0x08c379a000000000000000000000000000000000000000000000000000000000\n      dup2\n      mstore\n      0x04\n      add\n      tag_177\n      swap1\n      tag_139\n      jump\t// in\n    tag_177:\n      mload(0x40)\n      dup1\n      swap2\n      sub\n      swap1\n      revert\n    tag_176:\n        /* \"contracts/OrderBook.sol\":2959:2964  price */\n      dup1\n        /* \"contracts/OrderBook.sol\":2946:2955  msg.value */\n      callvalue\n        /* \"contracts/OrderBook.sol\":2946:2964  msg.value >= price */\n      lt\n      iszero\n        /* \"contracts/OrderBook.sol\":2938:2999  require(msg.value >= price, \"Not enough blance to place bid\") */\n      tag_178\n      jumpi\n      mload(0x40)\n      0x08c379a000000000000000000000000000000000000000000000000000000000\n      dup2\n      mstore\n      0x04\n      add\n      tag_179\n      swap1\n      tag_180\n      jump\t// in\n    tag_179:\n      mload(0x40)\n      dup1\n      swap2\n      sub\n      swap1\n      revert\n    tag_178:\n        /* \"contracts/OrderBook.sol\":3009:3021  uint256 time */\n      0x00\n        /* \"contracts/OrderBook.sol\":3024:3039  block.timestamp */\n      timestamp\n        /* \"contracts/OrderBook.sol\":3009:3039  uint256 time = block.timestamp */\n      swap1\n      pop\n        /* \"contracts/OrderBook.sol\":3049:3074  uint256 commissionedPrice */\n      0x00\n        /* \"contracts/OrderBook.sol\":3108:3111  100 */\n      0x64\n        /* \"contracts/OrderBook.sol\":3094:3104  commission */\n      sload(0x04)\n        /* \"contracts/OrderBook.sol\":3090:3093  100 */\n      0x64\n        /* \"contracts/OrderBook.sol\":3090:3104  100-commission */\n      tag_181\n      swap2\n      swap1\n      tag_144\n      jump\t// in\n    tag_181:\n        /* \"contracts/OrderBook.sol\":3077:3086  msg.value */\n      callvalue\n        /* \"contracts/OrderBook.sol\":3077:3105  msg.value * (100-commission) */\n      tag_182\n      swap2\n      swap1\n      tag_146\n      jump\t// in\n    tag_182:\n        /* \"contracts/OrderBook.sol\":3077:3111  msg.value * (100-commission) / 100 */\n      tag_183\n      swap2\n      swap1\n      tag_148\n      jump\t// in\n    tag_183:\n        /* \"contracts/OrderBook.sol\":3049:3111  uint256 commissionedPrice = msg.value * (100-commission) / 100 */\n      swap1\n      pop\n        /* \"contracts/OrderBook.sol\":3252:3258  _owner */\n      0x03\n      0x00\n      swap1\n      sload\n      swap1\n      0x0100\n      exp\n      swap1\n      div\n      0xffffffffffffffffffffffffffffffffffffffff\n      and\n        /* \"contracts/OrderBook.sol\":3252:3267  _owner.transfer */\n      0xffffffffffffffffffffffffffffffffffffffff\n      and\n        /* \"contracts/OrderBook.sol\":3252:3286  _owner.transfer(commissionedPrice) */\n      0x08fc\n        /* \"contracts/OrderBook.sol\":3268:3285  commissionedPrice */\n      dup3\n        /* \"contracts/OrderBook.sol\":3252:3286  _owner.transfer(commissionedPrice) */\n      swap1\n      dup2\n      iszero\n      mul\n      swap1\n      mload(0x40)\n      0x00\n      mload(0x40)\n      dup1\n      dup4\n      sub\n      dup2\n      dup6\n      dup9\n      dup9\n      call\n      swap4\n      pop\n      pop\n      pop\n      pop\n      iszero\n      dup1\n      iszero\n      tag_185\n      jumpi\n      returndatasize\n      0x00\n      dup1\n      returndatacopy\n      revert(0x00, returndatasize)\n    tag_185:\n      pop\n        /* \"contracts/OrderBook.sol\":3301:3359  bidPlaced(msg.sender,commissionedPrice,time,State.pending) */\n      0xa64806d6d5d480697a0b11c92b915a4ff7b93c0be28171d65d30041a0c360d04\n        /* \"contracts/OrderBook.sol\":3311:3321  msg.sender */\n      caller\n        /* \"contracts/OrderBook.sol\":3322:3339  commissionedPrice */\n      dup3\n        /* \"contracts/OrderBook.sol\":3340:3344  time */\n      dup5\n        /* \"contracts/OrderBook.sol\":3345:3358  State.pending */\n      0x00\n        /* \"contracts/OrderBook.sol\":3301:3359  bidPlaced(msg.sender,commissionedPrice,time,State.pending) */\n      mload(0x40)\n      tag_186\n      swap5\n      swap4\n      swap3\n      swap2\n      swap1\n      tag_152\n      jump\t// in\n    tag_186:\n      mload(0x40)\n      dup1\n      swap2\n      sub\n      swap1\n      log1\n        /* \"contracts/OrderBook.sol\":2864:3366  {... */\n      pop\n      pop\n        /* \"contracts/OrderBook.sol\":2815:3366  function placeBid (uint256 price) public payable {... */\n      pop\n      jump\t// out\n        /* \"contracts/OrderBook.sol\":2104:2124  uint public askCount */\n    tag_85:\n      sload(0x0b)\n      dup2\n      jump\t// out\n        /* \"contracts/OrderBook.sol\":1968:1988  uint public bidCount */\n    tag_89:\n      sload(0x08)\n      dup2\n      jump\t// out\n        /* \"contracts/OrderBook.sol\":5726:5825  function getBidState (uint id) public view returns(State) {... */\n    tag_94:\n        /* \"contracts/OrderBook.sol\":5777:5782  State */\n      0x00\n        /* \"contracts/OrderBook.sol\":5801:5808  bidBook */\n      0x05\n        /* \"contracts/OrderBook.sol\":5801:5812  bidBook[id] */\n      0x00\n        /* \"contracts/OrderBook.sol\":5809:5811  id */\n      dup4\n        /* \"contracts/OrderBook.sol\":5801:5812  bidBook[id] */\n      dup2\n      mstore\n      0x20\n      add\n      swap1\n      dup2\n      mstore\n      0x20\n      add\n      0x00\n      keccak256\n        /* \"contracts/OrderBook.sol\":5801:5818  bidBook[id].state */\n      0x03\n      add\n      0x00\n      swap1\n      sload\n      swap1\n      0x0100\n      exp\n      swap1\n      div\n      0xff\n      and\n        /* \"contracts/OrderBook.sol\":5794:5818  return bidBook[id].state */\n      swap1\n      pop\n        /* \"contracts/OrderBook.sol\":5726:5825  function getBidState (uint id) public view returns(State) {... */\n      swap2\n      swap1\n      pop\n      jump\t// out\n        /* \"contracts/OrderBook.sol\":4722:4991  function fetchYourBidIds() public returns (uint[] memory) {... */\n    tag_98:\n        /* \"contracts/OrderBook.sol\":4765:4778  uint[] memory */\n      0x60\n        /* \"contracts/OrderBook.sol\":4722:4991  function fetchYourBidIds() public returns (uint[] memory) {... */\n      swap1\n      jump\t// out\n        /* \"contracts/OrderBook.sol\":5619:5720  function getAskValue (uint id) public view returns(uint256) {... */\n    tag_103:\n        /* \"contracts/OrderBook.sol\":5670:5677  uint256 */\n      0x00\n        /* \"contracts/OrderBook.sol\":5696:5703  askBook */\n      0x09\n        /* \"contracts/OrderBook.sol\":5696:5707  askBook[id] */\n      0x00\n        /* \"contracts/OrderBook.sol\":5704:5706  id */\n      dup4\n        /* \"contracts/OrderBook.sol\":5696:5707  askBook[id] */\n      dup2\n      mstore\n      0x20\n      add\n      swap1\n      dup2\n      mstore\n      0x20\n      add\n      0x00\n      keccak256\n        /* \"contracts/OrderBook.sol\":5696:5713  askBook[id].value */\n      0x01\n      add\n      sload\n        /* \"contracts/OrderBook.sol\":5689:5713  return askBook[id].value */\n      swap1\n      pop\n        /* \"contracts/OrderBook.sol\":5619:5720  function getAskValue (uint id) public view returns(uint256) {... */\n      swap2\n      swap1\n      pop\n      jump\t// out\n        /* \"#utility.yul\":7:121   */\n    tag_190:\n        /* \"#utility.yul\":74:80   */\n      0x00\n        /* \"#utility.yul\":108:113   */\n      dup2\n        /* \"#utility.yul\":102:114   */\n      mload\n        /* \"#utility.yul\":92:114   */\n      swap1\n      pop\n        /* \"#utility.yul\":7:121   */\n      swap2\n      swap1\n      pop\n      jump\t// out\n        /* \"#utility.yul\":127:311   */\n    tag_191:\n        /* \"#utility.yul\":226:237   */\n      0x00\n        /* \"#utility.yul\":260:266   */\n      dup3\n        /* \"#utility.yul\":255:258   */\n      dup3\n        /* \"#utility.yul\":248:267   */\n      mstore\n        /* \"#utility.yul\":300:304   */\n      0x20\n        /* \"#utility.yul\":295:298   */\n      dup3\n        /* \"#utility.yul\":291:305   */\n      add\n        /* \"#utility.yul\":276:305   */\n      swap1\n      pop\n        /* \"#utility.yul\":127:311   */\n      swap3\n      swap2\n      pop\n      pop\n      jump\t// out\n        /* \"#utility.yul\":317:449   */\n    tag_192:\n        /* \"#utility.yul\":384:388   */\n      0x00\n        /* \"#utility.yul\":407:410   */\n      dup2\n        /* \"#utility.yul\":399:410   */\n      swap1\n      pop\n        /* \"#utility.yul\":437:441   */\n      0x20\n        /* \"#utility.yul\":432:435   */\n      dup3\n        /* \"#utility.yul\":428:442   */\n      add\n        /* \"#utility.yul\":420:442   */\n      swap1\n      pop\n        /* \"#utility.yul\":317:449   */\n      swap2\n      swap1\n      pop\n      jump\t// out\n        /* \"#utility.yul\":455:532   */\n    tag_193:\n        /* \"#utility.yul\":492:499   */\n      0x00\n        /* \"#utility.yul\":521:526   */\n      dup2\n        /* \"#utility.yul\":510:526   */\n      swap1\n      pop\n        /* \"#utility.yul\":455:532   */\n      swap2\n      swap1\n      pop\n      jump\t// out\n        /* \"#utility.yul\":538:646   */\n    tag_194:\n        /* \"#utility.yul\":615:639   */\n      tag_243\n        /* \"#utility.yul\":633:638   */\n      dup2\n        /* \"#utility.yul\":615:639   */\n      tag_193\n      jump\t// in\n    tag_243:\n        /* \"#utility.yul\":610:613   */\n      dup3\n        /* \"#utility.yul\":603:640   */\n      mstore\n        /* \"#utility.yul\":538:646   */\n      pop\n      pop\n      jump\t// out\n        /* \"#utility.yul\":652:831   */\n    tag_195:\n        /* \"#utility.yul\":721:731   */\n      0x00\n        /* \"#utility.yul\":742:788   */\n      tag_245\n        /* \"#utility.yul\":784:787   */\n      dup4\n        /* \"#utility.yul\":776:782   */\n      dup4\n        /* \"#utility.yul\":742:788   */\n      tag_194\n      jump\t// in\n    tag_245:\n        /* \"#utility.yul\":820:824   */\n      0x20\n        /* \"#utility.yul\":815:818   */\n      dup4\n        /* \"#utility.yul\":811:825   */\n      add\n        /* \"#utility.yul\":797:825   */\n      swap1\n      pop\n        /* \"#utility.yul\":652:831   */\n      swap3\n      swap2\n      pop\n      pop\n      jump\t// out\n        /* \"#utility.yul\":837:950   */\n    tag_196:\n        /* \"#utility.yul\":907:911   */\n      0x00\n        /* \"#utility.yul\":939:943   */\n      0x20\n        /* \"#utility.yul\":934:937   */\n      dup3\n        /* \"#utility.yul\":930:944   */\n      add\n        /* \"#utility.yul\":922:944   */\n      swap1\n      pop\n        /* \"#utility.yul\":837:950   */\n      swap2\n      swap1\n      pop\n      jump\t// out\n        /* \"#utility.yul\":986:1718   */\n    tag_197:\n        /* \"#utility.yul\":1105:1108   */\n      0x00\n        /* \"#utility.yul\":1134:1188   */\n      tag_248\n        /* \"#utility.yul\":1182:1187   */\n      dup3\n        /* \"#utility.yul\":1134:1188   */\n      tag_190\n      jump\t// in\n    tag_248:\n        /* \"#utility.yul\":1204:1290   */\n      tag_249\n        /* \"#utility.yul\":1283:1289   */\n      dup2\n        /* \"#utility.yul\":1278:1281   */\n      dup6\n        /* \"#utility.yul\":1204:1290   */\n      tag_191\n      jump\t// in\n    tag_249:\n        /* \"#utility.yul\":1197:1290   */\n      swap4\n      pop\n        /* \"#utility.yul\":1314:1370   */\n      tag_250\n        /* \"#utility.yul\":1364:1369   */\n      dup4\n        /* \"#utility.yul\":1314:1370   */\n      tag_192\n      jump\t// in\n    tag_250:\n        /* \"#utility.yul\":1393:1400   */\n      dup1\n        /* \"#utility.yul\":1424:1425   */\n      0x00\n        /* \"#utility.yul\":1409:1693   */\n    tag_251:\n        /* \"#utility.yul\":1434:1440   */\n      dup4\n        /* \"#utility.yul\":1431:1432   */\n      dup2\n        /* \"#utility.yul\":1428:1441   */\n      lt\n        /* \"#utility.yul\":1409:1693   */\n      iszero\n      tag_253\n      jumpi\n        /* \"#utility.yul\":1510:1516   */\n      dup2\n        /* \"#utility.yul\":1504:1517   */\n      mload\n        /* \"#utility.yul\":1537:1600   */\n      tag_254\n        /* \"#utility.yul\":1596:1599   */\n      dup9\n        /* \"#utility.yul\":1581:1594   */\n      dup3\n        /* \"#utility.yul\":1537:1600   */\n      tag_195\n      jump\t// in\n    tag_254:\n        /* \"#utility.yul\":1530:1600   */\n      swap8\n      pop\n        /* \"#utility.yul\":1623:1683   */\n      tag_255\n        /* \"#utility.yul\":1676:1682   */\n      dup4\n        /* \"#utility.yul\":1623:1683   */\n      tag_196\n      jump\t// in\n    tag_255:\n        /* \"#utility.yul\":1613:1683   */\n      swap3\n      pop\n        /* \"#utility.yul\":1469:1693   */\n      pop\n        /* \"#utility.yul\":1456:1457   */\n      0x01\n        /* \"#utility.yul\":1453:1454   */\n      dup2\n        /* \"#utility.yul\":1449:1458   */\n      add\n        /* \"#utility.yul\":1444:1458   */\n      swap1\n      pop\n        /* \"#utility.yul\":1409:1693   */\n      jump(tag_251)\n    tag_253:\n        /* \"#utility.yul\":1413:1427   */\n      pop\n        /* \"#utility.yul\":1709:1712   */\n      dup6\n        /* \"#utility.yul\":1702:1712   */\n      swap4\n      pop\n        /* \"#utility.yul\":1110:1718   */\n      pop\n      pop\n      pop\n        /* \"#utility.yul\":986:1718   */\n      swap3\n      swap2\n      pop\n      pop\n      jump\t// out\n        /* \"#utility.yul\":1724:2097   */\n    tag_27:\n        /* \"#utility.yul\":1867:1871   */\n      0x00\n        /* \"#utility.yul\":1905:1907   */\n      0x20\n        /* \"#utility.yul\":1894:1903   */\n      dup3\n        /* \"#utility.yul\":1890:1908   */\n      add\n        /* \"#utility.yul\":1882:1908   */\n      swap1\n      pop\n        /* \"#utility.yul\":1954:1963   */\n      dup2\n        /* \"#utility.yul\":1948:1952   */\n      dup2\n        /* \"#utility.yul\":1944:1964   */\n      sub\n        /* \"#utility.yul\":1940:1941   */\n      0x00\n        /* \"#utility.yul\":1929:1938   */\n      dup4\n        /* \"#utility.yul\":1925:1942   */\n      add\n        /* \"#utility.yul\":1918:1965   */\n      mstore\n        /* \"#utility.yul\":1982:2090   */\n      tag_257\n        /* \"#utility.yul\":2085:2089   */\n      dup2\n        /* \"#utility.yul\":2076:2082   */\n      dup5\n        /* \"#utility.yul\":1982:2090   */\n      tag_197\n      jump\t// in\n    tag_257:\n        /* \"#utility.yul\":1974:2090   */\n      swap1\n      pop\n        /* \"#utility.yul\":1724:2097   */\n      swap3\n      swap2\n      pop\n      pop\n      jump\t// out\n        /* \"#utility.yul\":2184:2301   */\n    tag_199:\n        /* \"#utility.yul\":2293:2294   */\n      0x00\n        /* \"#utility.yul\":2290:2291   */\n      dup1\n        /* \"#utility.yul\":2283:2295   */\n      revert\n        /* \"#utility.yul\":2430:2552   */\n    tag_201:\n        /* \"#utility.yul\":2503:2527   */\n      tag_262\n        /* \"#utility.yul\":2521:2526   */\n      dup2\n        /* \"#utility.yul\":2503:2527   */\n      tag_193\n      jump\t// in\n    tag_262:\n        /* \"#utility.yul\":2496:2501   */\n      dup2\n        /* \"#utility.yul\":2493:2528   */\n      eq\n        /* \"#utility.yul\":2483:2546   */\n      tag_263\n      jumpi\n        /* \"#utility.yul\":2542:2543   */\n      0x00\n        /* \"#utility.yul\":2539:2540   */\n      dup1\n        /* \"#utility.yul\":2532:2544   */\n      revert\n        /* \"#utility.yul\":2483:2546   */\n    tag_263:\n        /* \"#utility.yul\":2430:2552   */\n      pop\n      jump\t// out\n        /* \"#utility.yul\":2558:2697   */\n    tag_202:\n        /* \"#utility.yul\":2604:2609   */\n      0x00\n        /* \"#utility.yul\":2642:2648   */\n      dup2\n        /* \"#utility.yul\":2629:2649   */\n      calldataload\n        /* \"#utility.yul\":2620:2649   */\n      swap1\n      pop\n        /* \"#utility.yul\":2658:2691   */\n      tag_265\n        /* \"#utility.yul\":2685:2690   */\n      dup2\n        /* \"#utility.yul\":2658:2691   */\n      tag_201\n      jump\t// in\n    tag_265:\n        /* \"#utility.yul\":2558:2697   */\n      swap3\n      swap2\n      pop\n      pop\n      jump\t// out\n        /* \"#utility.yul\":2703:3032   */\n    tag_31:\n        /* \"#utility.yul\":2762:2768   */\n      0x00\n        /* \"#utility.yul\":2811:2813   */\n      0x20\n        /* \"#utility.yul\":2799:2808   */\n      dup3\n        /* \"#utility.yul\":2790:2797   */\n      dup5\n        /* \"#utility.yul\":2786:2809   */\n      sub\n        /* \"#utility.yul\":2782:2814   */\n      slt\n        /* \"#utility.yul\":2779:2898   */\n      iszero\n      tag_267\n      jumpi\n        /* \"#utility.yul\":2817:2896   */\n      tag_268\n      tag_199\n      jump\t// in\n    tag_268:\n        /* \"#utility.yul\":2779:2898   */\n    tag_267:\n        /* \"#utility.yul\":2937:2938   */\n      0x00\n        /* \"#utility.yul\":2962:3015   */\n      tag_269\n        /* \"#utility.yul\":3007:3014   */\n      dup5\n        /* \"#utility.yul\":2998:3004   */\n      dup3\n        /* \"#utility.yul\":2987:2996   */\n      dup6\n        /* \"#utility.yul\":2983:3005   */\n      add\n        /* \"#utility.yul\":2962:3015   */\n      tag_202\n      jump\t// in\n    tag_269:\n        /* \"#utility.yul\":2952:3015   */\n      swap2\n      pop\n        /* \"#utility.yul\":2908:3025   */\n      pop\n        /* \"#utility.yul\":2703:3032   */\n      swap3\n      swap2\n      pop\n      pop\n      jump\t// out\n        /* \"#utility.yul\":3038:3156   */\n    tag_203:\n        /* \"#utility.yul\":3125:3149   */\n      tag_271\n        /* \"#utility.yul\":3143:3148   */\n      dup2\n        /* \"#utility.yul\":3125:3149   */\n      tag_193\n      jump\t// in\n    tag_271:\n        /* \"#utility.yul\":3120:3123   */\n      dup3\n        /* \"#utility.yul\":3113:3150   */\n      mstore\n        /* \"#utility.yul\":3038:3156   */\n      pop\n      pop\n      jump\t// out\n        /* \"#utility.yul\":3162:3384   */\n    tag_38:\n        /* \"#utility.yul\":3255:3259   */\n      0x00\n        /* \"#utility.yul\":3293:3295   */\n      0x20\n        /* \"#utility.yul\":3282:3291   */\n      dup3\n        /* \"#utility.yul\":3278:3296   */\n      add\n        /* \"#utility.yul\":3270:3296   */\n      swap1\n      pop\n        /* \"#utility.yul\":3306:3377   */\n      tag_273\n        /* \"#utility.yul\":3374:3375   */\n      0x00\n        /* \"#utility.yul\":3363:3372   */\n      dup4\n        /* \"#utility.yul\":3359:3376   */\n      add\n        /* \"#utility.yul\":3350:3356   */\n      dup5\n        /* \"#utility.yul\":3306:3377   */\n      tag_203\n      jump\t// in\n    tag_273:\n        /* \"#utility.yul\":3162:3384   */\n      swap3\n      swap2\n      pop\n      pop\n      jump\t// out\n        /* \"#utility.yul\":3390:3525   */\n    tag_204:\n        /* \"#utility.yul\":3478:3484   */\n      0x00\n        /* \"#utility.yul\":3512:3517   */\n      dup2\n        /* \"#utility.yul\":3506:3518   */\n      mload\n        /* \"#utility.yul\":3496:3518   */\n      swap1\n      pop\n        /* \"#utility.yul\":3390:3525   */\n      swap2\n      swap1\n      pop\n      jump\t// out\n        /* \"#utility.yul\":3531:3736   */\n    tag_205:\n        /* \"#utility.yul\":3651:3662   */\n      0x00\n        /* \"#utility.yul\":3685:3691   */\n      dup3\n        /* \"#utility.yul\":3680:3683   */\n      dup3\n        /* \"#utility.yul\":3673:3692   */\n      mstore\n        /* \"#utility.yul\":3725:3729   */\n      0x20\n        /* \"#utility.yul\":3720:3723   */\n      dup3\n        /* \"#utility.yul\":3716:3730   */\n      add\n        /* \"#utility.yul\":3701:3730   */\n      swap1\n      pop\n        /* \"#utility.yul\":3531:3736   */\n      swap3\n      swap2\n      pop\n      pop\n      jump\t// out\n        /* \"#utility.yul\":3742:3895   */\n    tag_206:\n        /* \"#utility.yul\":3830:3834   */\n      0x00\n        /* \"#utility.yul\":3853:3856   */\n      dup2\n        /* \"#utility.yul\":3845:3856   */\n      swap1\n      pop\n        /* \"#utility.yul\":3883:3887   */\n      0x20\n        /* \"#utility.yul\":3878:3881   */\n      dup3\n        /* \"#utility.yul\":3874:3888   */\n      add\n        /* \"#utility.yul\":3866:3888   */\n      swap1\n      pop\n        /* \"#utility.yul\":3742:3895   */\n      swap2\n      swap1\n      pop\n      jump\t// out\n        /* \"#utility.yul\":3901:4027   */\n    tag_207:\n        /* \"#utility.yul\":3938:3945   */\n      0x00\n        /* \"#utility.yul\":3978:4020   */\n      0xffffffffffffffffffffffffffffffffffffffff\n        /* \"#utility.yul\":3971:3976   */\n      dup3\n        /* \"#utility.yul\":3967:4021   */\n      and\n        /* \"#utility.yul\":3956:4021   */\n      swap1\n      pop\n        /* \"#utility.yul\":3901:4027   */\n      swap2\n      swap1\n      pop\n      jump\t// out\n        /* \"#utility.yul\":4033:4137   */\n    tag_208:\n        /* \"#utility.yul\":4078:4085   */\n      0x00\n        /* \"#utility.yul\":4107:4131   */\n      tag_279\n        /* \"#utility.yul\":4125:4130   */\n      dup3\n        /* \"#utility.yul\":4107:4131   */\n      tag_207\n      jump\t// in\n    tag_279:\n        /* \"#utility.yul\":4096:4131   */\n      swap1\n      pop\n        /* \"#utility.yul\":4033:4137   */\n      swap2\n      swap1\n      pop\n      jump\t// out\n        /* \"#utility.yul\":4143:4275   */\n    tag_209:\n        /* \"#utility.yul\":4236:4268   */\n      tag_281\n        /* \"#utility.yul\":4262:4267   */\n      dup2\n        /* \"#utility.yul\":4236:4268   */\n      tag_208\n      jump\t// in\n    tag_281:\n        /* \"#utility.yul\":4231:4234   */\n      dup3\n        /* \"#utility.yul\":4224:4269   */\n      mstore\n        /* \"#utility.yul\":4143:4275   */\n      pop\n      pop\n      jump\t// out\n        /* \"#utility.yul\":4281:4461   */\n    tag_108:\n        /* \"#utility.yul\":4329:4406   */\n      0x4e487b7100000000000000000000000000000000000000000000000000000000\n        /* \"#utility.yul\":4326:4327   */\n      0x00\n        /* \"#utility.yul\":4319:4407   */\n      mstore\n        /* \"#utility.yul\":4426:4430   */\n      0x21\n        /* \"#utility.yul\":4423:4424   */\n      0x04\n        /* \"#utility.yul\":4416:4431   */\n      mstore\n        /* \"#utility.yul\":4450:4454   */\n      0x24\n        /* \"#utility.yul\":4447:4448   */\n      0x00\n        /* \"#utility.yul\":4440:4455   */\n      revert\n        /* \"#utility.yul\":4467:4580   */\n    tag_210:\n        /* \"#utility.yul\":4548:4549   */\n      0x02\n        /* \"#utility.yul\":4541:4546   */\n      dup2\n        /* \"#utility.yul\":4538:4550   */\n      lt\n        /* \"#utility.yul\":4528:4574   */\n      tag_284\n      jumpi\n        /* \"#utility.yul\":4554:4572   */\n      tag_285\n      tag_108\n      jump\t// in\n    tag_285:\n        /* \"#utility.yul\":4528:4574   */\n    tag_284:\n        /* \"#utility.yul\":4467:4580   */\n      pop\n      jump\t// out\n        /* \"#utility.yul\":4586:4713   */\n    tag_211:\n        /* \"#utility.yul\":4631:4638   */\n      0x00\n        /* \"#utility.yul\":4660:4665   */\n      dup2\n        /* \"#utility.yul\":4649:4665   */\n      swap1\n      pop\n        /* \"#utility.yul\":4666:4707   */\n      tag_287\n        /* \"#utility.yul\":4701:4706   */\n      dup3\n        /* \"#utility.yul\":4666:4707   */\n      tag_210\n      jump\t// in\n    tag_287:\n        /* \"#utility.yul\":4586:4713   */\n      swap2\n      swap1\n      pop\n      jump\t// out\n        /* \"#utility.yul\":4719:4846   */\n    tag_212:\n        /* \"#utility.yul\":4775:4784   */\n      0x00\n        /* \"#utility.yul\":4808:4840   */\n      tag_289\n        /* \"#utility.yul\":4834:4839   */\n      dup3\n        /* \"#utility.yul\":4808:4840   */\n      tag_211\n      jump\t// in\n    tag_289:\n        /* \"#utility.yul\":4795:4840   */\n      swap1\n      pop\n        /* \"#utility.yul\":4719:4846   */\n      swap2\n      swap1\n      pop\n      jump\t// out\n        /* \"#utility.yul\":4852:4985   */\n    tag_213:\n        /* \"#utility.yul\":4935:4978   */\n      tag_291\n        /* \"#utility.yul\":4972:4977   */\n      dup2\n        /* \"#utility.yul\":4935:4978   */\n      tag_212\n      jump\t// in\n    tag_291:\n        /* \"#utility.yul\":4930:4933   */\n      dup3\n        /* \"#utility.yul\":4923:4979   */\n      mstore\n        /* \"#utility.yul\":4852:4985   */\n      pop\n      pop\n      jump\t// out\n        /* \"#utility.yul\":4991:5081   */\n    tag_214:\n        /* \"#utility.yul\":5025:5032   */\n      0x00\n        /* \"#utility.yul\":5068:5073   */\n      dup2\n        /* \"#utility.yul\":5061:5074   */\n      iszero\n        /* \"#utility.yul\":5054:5075   */\n      iszero\n        /* \"#utility.yul\":5043:5075   */\n      swap1\n      pop\n        /* \"#utility.yul\":4991:5081   */\n      swap2\n      swap1\n      pop\n      jump\t// out\n        /* \"#utility.yul\":5087:5186   */\n    tag_215:\n        /* \"#utility.yul\":5158:5179   */\n      tag_294\n        /* \"#utility.yul\":5173:5178   */\n      dup2\n        /* \"#utility.yul\":5158:5179   */\n      tag_214\n      jump\t// in\n    tag_294:\n        /* \"#utility.yul\":5153:5156   */\n      dup3\n        /* \"#utility.yul\":5146:5180   */\n      mstore\n        /* \"#utility.yul\":5087:5186   */\n      pop\n      pop\n      jump\t// out\n        /* \"#utility.yul\":5248:6808   */\n    tag_216:\n        /* \"#utility.yul\":5377:5383   */\n      0x0100\n        /* \"#utility.yul\":5372:5375   */\n      dup3\n        /* \"#utility.yul\":5368:5384   */\n      add\n        /* \"#utility.yul\":5470:5474   */\n      0x00\n        /* \"#utility.yul\":5463:5468   */\n      dup3\n        /* \"#utility.yul\":5459:5475   */\n      add\n        /* \"#utility.yul\":5453:5476   */\n      mload\n        /* \"#utility.yul\":5489:5568   */\n      tag_296\n        /* \"#utility.yul\":5562:5566   */\n      0x00\n        /* \"#utility.yul\":5557:5560   */\n      dup6\n        /* \"#utility.yul\":5553:5567   */\n      add\n        /* \"#utility.yul\":5539:5551   */\n      dup3\n        /* \"#utility.yul\":5489:5568   */\n      tag_209\n      jump\t// in\n    tag_296:\n        /* \"#utility.yul\":5394:5578   */\n      pop\n        /* \"#utility.yul\":5661:5665   */\n      0x20\n        /* \"#utility.yul\":5654:5659   */\n      dup3\n        /* \"#utility.yul\":5650:5666   */\n      add\n        /* \"#utility.yul\":5644:5667   */\n      mload\n        /* \"#utility.yul\":5680:5743   */\n      tag_297\n        /* \"#utility.yul\":5737:5741   */\n      0x20\n        /* \"#utility.yul\":5732:5735   */\n      dup6\n        /* \"#utility.yul\":5728:5742   */\n      add\n        /* \"#utility.yul\":5714:5726   */\n      dup3\n        /* \"#utility.yul\":5680:5743   */\n      tag_194\n      jump\t// in\n    tag_297:\n        /* \"#utility.yul\":5588:5753   */\n      pop\n        /* \"#utility.yul\":5840:5844   */\n      0x40\n        /* \"#utility.yul\":5833:5838   */\n      dup3\n        /* \"#utility.yul\":5829:5845   */\n      add\n        /* \"#utility.yul\":5823:5846   */\n      mload\n        /* \"#utility.yul\":5859:5922   */\n      tag_298\n        /* \"#utility.yul\":5916:5920   */\n      0x40\n        /* \"#utility.yul\":5911:5914   */\n      dup6\n        /* \"#utility.yul\":5907:5921   */\n      add\n        /* \"#utility.yul\":5893:5905   */\n      dup3\n        /* \"#utility.yul\":5859:5922   */\n      tag_194\n      jump\t// in\n    tag_298:\n        /* \"#utility.yul\":5763:5932   */\n      pop\n        /* \"#utility.yul\":6015:6019   */\n      0x60\n        /* \"#utility.yul\":6008:6013   */\n      dup3\n        /* \"#utility.yul\":6004:6020   */\n      add\n        /* \"#utility.yul\":5998:6021   */\n      mload\n        /* \"#utility.yul\":6034:6103   */\n      tag_299\n        /* \"#utility.yul\":6097:6101   */\n      0x60\n        /* \"#utility.yul\":6092:6095   */\n      dup6\n        /* \"#utility.yul\":6088:6102   */\n      add\n        /* \"#utility.yul\":6074:6086   */\n      dup3\n        /* \"#utility.yul\":6034:6103   */\n      tag_213\n      jump\t// in\n    tag_299:\n        /* \"#utility.yul\":5942:6113   */\n      pop\n        /* \"#utility.yul\":6193:6197   */\n      0x80\n        /* \"#utility.yul\":6186:6191   */\n      dup3\n        /* \"#utility.yul\":6182:6198   */\n      add\n        /* \"#utility.yul\":6176:6199   */\n      mload\n        /* \"#utility.yul\":6212:6275   */\n      tag_300\n        /* \"#utility.yul\":6269:6273   */\n      0x80\n        /* \"#utility.yul\":6264:6267   */\n      dup6\n        /* \"#utility.yul\":6260:6274   */\n      add\n        /* \"#utility.yul\":6246:6258   */\n      dup3\n        /* \"#utility.yul\":6212:6275   */\n      tag_194\n      jump\t// in\n    tag_300:\n        /* \"#utility.yul\":6123:6285   */\n      pop\n        /* \"#utility.yul\":6367:6371   */\n      0xa0\n        /* \"#utility.yul\":6360:6365   */\n      dup3\n        /* \"#utility.yul\":6356:6372   */\n      add\n        /* \"#utility.yul\":6350:6373   */\n      mload\n        /* \"#utility.yul\":6386:6449   */\n      tag_301\n        /* \"#utility.yul\":6443:6447   */\n      0xa0\n        /* \"#utility.yul\":6438:6441   */\n      dup6\n        /* \"#utility.yul\":6434:6448   */\n      add\n        /* \"#utility.yul\":6420:6432   */\n      dup3\n        /* \"#utility.yul\":6386:6449   */\n      tag_194\n      jump\t// in\n    tag_301:\n        /* \"#utility.yul\":6295:6459   */\n      pop\n        /* \"#utility.yul\":6541:6545   */\n      0xc0\n        /* \"#utility.yul\":6534:6539   */\n      dup3\n        /* \"#utility.yul\":6530:6546   */\n      add\n        /* \"#utility.yul\":6524:6547   */\n      mload\n        /* \"#utility.yul\":6560:6623   */\n      tag_302\n        /* \"#utility.yul\":6617:6621   */\n      0xc0\n        /* \"#utility.yul\":6612:6615   */\n      dup6\n        /* \"#utility.yul\":6608:6622   */\n      add\n        /* \"#utility.yul\":6594:6606   */\n      dup3\n        /* \"#utility.yul\":6560:6623   */\n      tag_194\n      jump\t// in\n    tag_302:\n        /* \"#utility.yul\":6469:6633   */\n      pop\n        /* \"#utility.yul\":6715:6719   */\n      0xe0\n        /* \"#utility.yul\":6708:6713   */\n      dup3\n        /* \"#utility.yul\":6704:6720   */\n      add\n        /* \"#utility.yul\":6698:6721   */\n      mload\n        /* \"#utility.yul\":6734:6791   */\n      tag_303\n        /* \"#utility.yul\":6785:6789   */\n      0xe0\n        /* \"#utility.yul\":6780:6783   */\n      dup6\n        /* \"#utility.yul\":6776:6790   */\n      add\n        /* \"#utility.yul\":6762:6774   */\n      dup3\n        /* \"#utility.yul\":6734:6791   */\n      tag_215\n      jump\t// in\n    tag_303:\n        /* \"#utility.yul\":6643:6801   */\n      pop\n        /* \"#utility.yul\":5346:6808   */\n      pop\n        /* \"#utility.yul\":5248:6808   */\n      pop\n      pop\n      jump\t// out\n        /* \"#utility.yul\":6814:7079   */\n    tag_217:\n        /* \"#utility.yul\":6925:6935   */\n      0x00\n        /* \"#utility.yul\":6946:7034   */\n      tag_305\n        /* \"#utility.yul\":7030:7033   */\n      dup4\n        /* \"#utility.yul\":7022:7028   */\n      dup4\n        /* \"#utility.yul\":6946:7034   */\n      tag_216\n      jump\t// in\n    tag_305:\n        /* \"#utility.yul\":7066:7072   */\n      0x0100\n        /* \"#utility.yul\":7061:7064   */\n      dup4\n        /* \"#utility.yul\":7057:7073   */\n      add\n        /* \"#utility.yul\":7043:7073   */\n      swap1\n      pop\n        /* \"#utility.yul\":6814:7079   */\n      swap3\n      swap2\n      pop\n      pop\n      jump\t// out\n        /* \"#utility.yul\":7085:7219   */\n    tag_218:\n        /* \"#utility.yul\":7176:7180   */\n      0x00\n        /* \"#utility.yul\":7208:7212   */\n      0x20\n        /* \"#utility.yul\":7203:7206   */\n      dup3\n        /* \"#utility.yul\":7199:7213   */\n      add\n        /* \"#utility.yul\":7191:7213   */\n      swap1\n      pop\n        /* \"#utility.yul\":7085:7219   */\n      swap2\n      swap1\n      pop\n      jump\t// out\n        /* \"#utility.yul\":7285:8185   */\n    tag_219:\n        /* \"#utility.yul\":7446:7449   */\n      0x00\n        /* \"#utility.yul\":7475:7550   */\n      tag_308\n        /* \"#utility.yul\":7544:7549   */\n      dup3\n        /* \"#utility.yul\":7475:7550   */\n      tag_204\n      jump\t// in\n    tag_308:\n        /* \"#utility.yul\":7566:7673   */\n      tag_309\n        /* \"#utility.yul\":7666:7672   */\n      dup2\n        /* \"#utility.yul\":7661:7664   */\n      dup6\n        /* \"#utility.yul\":7566:7673   */\n      tag_205\n      jump\t// in\n    tag_309:\n        /* \"#utility.yul\":7559:7673   */\n      swap4\n      pop\n        /* \"#utility.yul\":7697:7774   */\n      tag_310\n        /* \"#utility.yul\":7768:7773   */\n      dup4\n        /* \"#utility.yul\":7697:7774   */\n      tag_206\n      jump\t// in\n    tag_310:\n        /* \"#utility.yul\":7797:7804   */\n      dup1\n        /* \"#utility.yul\":7828:7829   */\n      0x00\n        /* \"#utility.yul\":7813:8160   */\n    tag_311:\n        /* \"#utility.yul\":7838:7844   */\n      dup4\n        /* \"#utility.yul\":7835:7836   */\n      dup2\n        /* \"#utility.yul\":7832:7845   */\n      lt\n        /* \"#utility.yul\":7813:8160   */\n      iszero\n      tag_313\n      jumpi\n        /* \"#utility.yul\":7914:7920   */\n      dup2\n        /* \"#utility.yul\":7908:7921   */\n      mload\n        /* \"#utility.yul\":7941:8046   */\n      tag_314\n        /* \"#utility.yul\":8042:8045   */\n      dup9\n        /* \"#utility.yul\":8027:8040   */\n      dup3\n        /* \"#utility.yul\":7941:8046   */\n      tag_217\n      jump\t// in\n    tag_314:\n        /* \"#utility.yul\":7934:8046   */\n      swap8\n      pop\n        /* \"#utility.yul\":8069:8150   */\n      tag_315\n        /* \"#utility.yul\":8143:8149   */\n      dup4\n        /* \"#utility.yul\":8069:8150   */\n      tag_218\n      jump\t// in\n    tag_315:\n        /* \"#utility.yul\":8059:8150   */\n      swap3\n      pop\n        /* \"#utility.yul\":7873:8160   */\n      pop\n        /* \"#utility.yul\":7860:7861   */\n      0x01\n        /* \"#utility.yul\":7857:7858   */\n      dup2\n        /* \"#utility.yul\":7853:7862   */\n      add\n        /* \"#utility.yul\":7848:7862   */\n      swap1\n      pop\n        /* \"#utility.yul\":7813:8160   */\n      jump(tag_311)\n    tag_313:\n        /* \"#utility.yul\":7817:7831   */\n      pop\n        /* \"#utility.yul\":8176:8179   */\n      dup6\n        /* \"#utility.yul\":8169:8179   */\n      swap4\n      pop\n        /* \"#utility.yul\":7451:8185   */\n      pop\n      pop\n      pop\n        /* \"#utility.yul\":7285:8185   */\n      swap3\n      swap2\n      pop\n      pop\n      jump\t// out\n        /* \"#utility.yul\":8191:8648   */\n    tag_43:\n        /* \"#utility.yul\":8376:8380   */\n      0x00\n        /* \"#utility.yul\":8414:8416   */\n      0x20\n        /* \"#utility.yul\":8403:8412   */\n      dup3\n        /* \"#utility.yul\":8399:8417   */\n      add\n        /* \"#utility.yul\":8391:8417   */\n      swap1\n      pop\n        /* \"#utility.yul\":8463:8472   */\n      dup2\n        /* \"#utility.yul\":8457:8461   */\n      dup2\n        /* \"#utility.yul\":8453:8473   */\n      sub\n        /* \"#utility.yul\":8449:8450   */\n      0x00\n        /* \"#utility.yul\":8438:8447   */\n      dup4\n        /* \"#utility.yul\":8434:8451   */\n      add\n        /* \"#utility.yul\":8427:8474   */\n      mstore\n        /* \"#utility.yul\":8491:8641   */\n      tag_317\n        /* \"#utility.yul\":8636:8640   */\n      dup2\n        /* \"#utility.yul\":8627:8633   */\n      dup5\n        /* \"#utility.yul\":8491:8641   */\n      tag_219\n      jump\t// in\n    tag_317:\n        /* \"#utility.yul\":8483:8641   */\n      swap1\n      pop\n        /* \"#utility.yul\":8191:8648   */\n      swap3\n      swap2\n      pop\n      pop\n      jump\t// out\n        /* \"#utility.yul\":8654:8797   */\n    tag_220:\n        /* \"#utility.yul\":8747:8790   */\n      tag_319\n        /* \"#utility.yul\":8784:8789   */\n      dup2\n        /* \"#utility.yul\":8747:8790   */\n      tag_212\n      jump\t// in\n    tag_319:\n        /* \"#utility.yul\":8742:8745   */\n      dup3\n        /* \"#utility.yul\":8735:8791   */\n      mstore\n        /* \"#utility.yul\":8654:8797   */\n      pop\n      pop\n      jump\t// out\n        /* \"#utility.yul\":8803:9037   */\n    tag_49:\n        /* \"#utility.yul\":8902:8906   */\n      0x00\n        /* \"#utility.yul\":8940:8942   */\n      0x20\n        /* \"#utility.yul\":8929:8938   */\n      dup3\n        /* \"#utility.yul\":8925:8943   */\n      add\n        /* \"#utility.yul\":8917:8943   */\n      swap1\n      pop\n        /* \"#utility.yul\":8953:9030   */\n      tag_321\n        /* \"#utility.yul\":9027:9028   */\n      0x00\n        /* \"#utility.yul\":9016:9025   */\n      dup4\n        /* \"#utility.yul\":9012:9029   */\n      add\n        /* \"#utility.yul\":9003:9009   */\n      dup5\n        /* \"#utility.yul\":8953:9030   */\n      tag_220\n      jump\t// in\n    tag_321:\n        /* \"#utility.yul\":8803:9037   */\n      swap3\n      swap2\n      pop\n      pop\n      jump\t// out\n        /* \"#utility.yul\":9043:9185   */\n    tag_221:\n        /* \"#utility.yul\":9146:9178   */\n      tag_323\n        /* \"#utility.yul\":9172:9177   */\n      dup2\n        /* \"#utility.yul\":9146:9178   */\n      tag_208\n      jump\t// in\n    tag_323:\n        /* \"#utility.yul\":9141:9144   */\n      dup3\n        /* \"#utility.yul\":9134:9179   */\n      mstore\n        /* \"#utility.yul\":9043:9185   */\n      pop\n      pop\n      jump\t// out\n        /* \"#utility.yul\":9191:9445   */\n    tag_55:\n        /* \"#utility.yul\":9300:9304   */\n      0x00\n        /* \"#utility.yul\":9338:9340   */\n      0x20\n        /* \"#utility.yul\":9327:9336   */\n      dup3\n        /* \"#utility.yul\":9323:9341   */\n      add\n        /* \"#utility.yul\":9315:9341   */\n      swap1\n      pop\n        /* \"#utility.yul\":9351:9438   */\n      tag_325\n        /* \"#utility.yul\":9435:9436   */\n      0x00\n        /* \"#utility.yul\":9424:9433   */\n      dup4\n        /* \"#utility.yul\":9420:9437   */\n      add\n        /* \"#utility.yul\":9411:9417   */\n      dup5\n        /* \"#utility.yul\":9351:9438   */\n      tag_221\n      jump\t// in\n    tag_325:\n        /* \"#utility.yul\":9191:9445   */\n      swap3\n      swap2\n      pop\n      pop\n      jump\t// out\n        /* \"#utility.yul\":9451:9620   */\n    tag_222:\n        /* \"#utility.yul\":9535:9546   */\n      0x00\n        /* \"#utility.yul\":9569:9575   */\n      dup3\n        /* \"#utility.yul\":9564:9567   */\n      dup3\n        /* \"#utility.yul\":9557:9576   */\n      mstore\n        /* \"#utility.yul\":9609:9613   */\n      0x20\n        /* \"#utility.yul\":9604:9607   */\n      dup3\n        /* \"#utility.yul\":9600:9614   */\n      add\n        /* \"#utility.yul\":9585:9614   */\n      swap1\n      pop\n        /* \"#utility.yul\":9451:9620   */\n      swap3\n      swap2\n      pop\n      pop\n      jump\t// out\n        /* \"#utility.yul\":9626:9789   */\n    tag_223:\n        /* \"#utility.yul\":9766:9781   */\n      0x4f726465722050656e64696e6700000000000000000000000000000000000000\n        /* \"#utility.yul\":9762:9763   */\n      0x00\n        /* \"#utility.yul\":9754:9760   */\n      dup3\n        /* \"#utility.yul\":9750:9764   */\n      add\n        /* \"#utility.yul\":9743:9782   */\n      mstore\n        /* \"#utility.yul\":9626:9789   */\n      pop\n      jump\t// out\n        /* \"#utility.yul\":9795:10161   */\n    tag_224:\n        /* \"#utility.yul\":9937:9940   */\n      0x00\n        /* \"#utility.yul\":9958:10025   */\n      tag_329\n        /* \"#utility.yul\":10022:10024   */\n      0x0d\n        /* \"#utility.yul\":10017:10020   */\n      dup4\n        /* \"#utility.yul\":9958:10025   */\n      tag_222\n      jump\t// in\n    tag_329:\n        /* \"#utility.yul\":9951:10025   */\n      swap2\n      pop\n        /* \"#utility.yul\":10034:10127   */\n      tag_330\n        /* \"#utility.yul\":10123:10126   */\n      dup3\n        /* \"#utility.yul\":10034:10127   */\n      tag_223\n      jump\t// in\n    tag_330:\n        /* \"#utility.yul\":10152:10154   */\n      0x20\n        /* \"#utility.yul\":10147:10150   */\n      dup3\n        /* \"#utility.yul\":10143:10155   */\n      add\n        /* \"#utility.yul\":10136:10155   */\n      swap1\n      pop\n        /* \"#utility.yul\":9795:10161   */\n      swap2\n      swap1\n      pop\n      jump\t// out\n        /* \"#utility.yul\":10167:10586   */\n    tag_118:\n        /* \"#utility.yul\":10333:10337   */\n      0x00\n        /* \"#utility.yul\":10371:10373   */\n      0x20\n        /* \"#utility.yul\":10360:10369   */\n      dup3\n        /* \"#utility.yul\":10356:10374   */\n      add\n        /* \"#utility.yul\":10348:10374   */\n      swap1\n      pop\n        /* \"#utility.yul\":10420:10429   */\n      dup2\n        /* \"#utility.yul\":10414:10418   */\n      dup2\n        /* \"#utility.yul\":10410:10430   */\n      sub\n        /* \"#utility.yul\":10406:10407   */\n      0x00\n        /* \"#utility.yul\":10395:10404   */\n      dup4\n        /* \"#utility.yul\":10391:10408   */\n      add\n        /* \"#utility.yul\":10384:10431   */\n      mstore\n        /* \"#utility.yul\":10448:10579   */\n      tag_332\n        /* \"#utility.yul\":10574:10578   */\n      dup2\n        /* \"#utility.yul\":10448:10579   */\n      tag_224\n      jump\t// in\n    tag_332:\n        /* \"#utility.yul\":10440:10579   */\n      swap1\n      pop\n        /* \"#utility.yul\":10167:10586   */\n      swap2\n      swap1\n      pop\n      jump\t// out\n        /* \"#utility.yul\":10592:10756   */\n    tag_225:\n        /* \"#utility.yul\":10732:10748   */\n      0x4e6f7420417574686f7269736564000000000000000000000000000000000000\n        /* \"#utility.yul\":10728:10729   */\n      0x00\n        /* \"#utility.yul\":10720:10726   */\n      dup3\n        /* \"#utility.yul\":10716:10730   */\n      add\n        /* \"#utility.yul\":10709:10749   */\n      mstore\n        /* \"#utility.yul\":10592:10756   */\n      pop\n      jump\t// out\n        /* \"#utility.yul\":10762:11128   */\n    tag_226:\n        /* \"#utility.yul\":10904:10907   */\n      0x00\n        /* \"#utility.yul\":10925:10992   */\n      tag_335\n        /* \"#utility.yul\":10989:10991   */\n      0x0e\n        /* \"#utility.yul\":10984:10987   */\n      dup4\n        /* \"#utility.yul\":10925:10992   */\n      tag_222\n      jump\t// in\n    tag_335:\n        /* \"#utility.yul\":10918:10992   */\n      swap2\n      pop\n        /* \"#utility.yul\":11001:11094   */\n      tag_336\n        /* \"#utility.yul\":11090:11093   */\n      dup3\n        /* \"#utility.yul\":11001:11094   */\n      tag_225\n      jump\t// in\n    tag_336:\n        /* \"#utility.yul\":11119:11121   */\n      0x20\n        /* \"#utility.yul\":11114:11117   */\n      dup3\n        /* \"#utility.yul\":11110:11122   */\n      add\n        /* \"#utility.yul\":11103:11122   */\n      swap1\n      pop\n        /* \"#utility.yul\":10762:11128   */\n      swap2\n      swap1\n      pop\n      jump\t// out\n        /* \"#utility.yul\":11134:11553   */\n    tag_126:\n        /* \"#utility.yul\":11300:11304   */\n      0x00\n        /* \"#utility.yul\":11338:11340   */\n      0x20\n        /* \"#utility.yul\":11327:11336   */\n      dup3\n        /* \"#utility.yul\":11323:11341   */\n      add\n        /* \"#utility.yul\":11315:11341   */\n      swap1\n      pop\n        /* \"#utility.yul\":11387:11396   */\n      dup2\n        /* \"#utility.yul\":11381:11385   */\n      dup2\n        /* \"#utility.yul\":11377:11397   */\n      sub\n        /* \"#utility.yul\":11373:11374   */\n      0x00\n        /* \"#utility.yul\":11362:11371   */\n      dup4\n        /* \"#utility.yul\":11358:11375   */\n      add\n        /* \"#utility.yul\":11351:11398   */\n      mstore\n        /* \"#utility.yul\":11415:11546   */\n      tag_338\n        /* \"#utility.yul\":11541:11545   */\n      dup2\n        /* \"#utility.yul\":11415:11546   */\n      tag_226\n      jump\t// in\n    tag_338:\n        /* \"#utility.yul\":11407:11546   */\n      swap1\n      pop\n        /* \"#utility.yul\":11134:11553   */\n      swap2\n      swap1\n      pop\n      jump\t// out\n        /* \"#utility.yul\":11559:11740   */\n    tag_227:\n        /* \"#utility.yul\":11699:11732   */\n      0x70726963652076616c7565206d757374206265206d6f7265207468616e203000\n        /* \"#utility.yul\":11695:11696   */\n      0x00\n        /* \"#utility.yul\":11687:11693   */\n      dup3\n        /* \"#utility.yul\":11683:11697   */\n      add\n        /* \"#utility.yul\":11676:11733   */\n      mstore\n        /* \"#utility.yul\":11559:11740   */\n      pop\n      jump\t// out\n        /* \"#utility.yul\":11746:12112   */\n    tag_228:\n        /* \"#utility.yul\":11888:11891   */\n      0x00\n        /* \"#utility.yul\":11909:11976   */\n      tag_341\n        /* \"#utility.yul\":11973:11975   */\n      0x1f\n        /* \"#utility.yul\":11968:11971   */\n      dup4\n        /* \"#utility.yul\":11909:11976   */\n      tag_222\n      jump\t// in\n    tag_341:\n        /* \"#utility.yul\":11902:11976   */\n      swap2\n      pop\n        /* \"#utility.yul\":11985:12078   */\n      tag_342\n        /* \"#utility.yul\":12074:12077   */\n      dup3\n        /* \"#utility.yul\":11985:12078   */\n      tag_227\n      jump\t// in\n    tag_342:\n        /* \"#utility.yul\":12103:12105   */\n      0x20\n        /* \"#utility.yul\":12098:12101   */\n      dup3\n        /* \"#utility.yul\":12094:12106   */\n      add\n        /* \"#utility.yul\":12087:12106   */\n      swap1\n      pop\n        /* \"#utility.yul\":11746:12112   */\n      swap2\n      swap1\n      pop\n      jump\t// out\n        /* \"#utility.yul\":12118:12537   */\n    tag_139:\n        /* \"#utility.yul\":12284:12288   */\n      0x00\n        /* \"#utility.yul\":12322:12324   */\n      0x20\n        /* \"#utility.yul\":12311:12320   */\n      dup3\n        /* \"#utility.yul\":12307:12325   */\n      add\n        /* \"#utility.yul\":12299:12325   */\n      swap1\n      pop\n        /* \"#utility.yul\":12371:12380   */\n      dup2\n        /* \"#utility.yul\":12365:12369   */\n      dup2\n        /* \"#utility.yul\":12361:12381   */\n      sub\n        /* \"#utility.yul\":12357:12358   */\n      0x00\n        /* \"#utility.yul\":12346:12355   */\n      dup4\n        /* \"#utility.yul\":12342:12359   */\n      add\n        /* \"#utility.yul\":12335:12382   */\n      mstore\n        /* \"#utility.yul\":12399:12530   */\n      tag_344\n        /* \"#utility.yul\":12525:12529   */\n      dup2\n        /* \"#utility.yul\":12399:12530   */\n      tag_228\n      jump\t// in\n    tag_344:\n        /* \"#utility.yul\":12391:12530   */\n      swap1\n      pop\n        /* \"#utility.yul\":12118:12537   */\n      swap2\n      swap1\n      pop\n      jump\t// out\n        /* \"#utility.yul\":12543:12723   */\n    tag_229:\n        /* \"#utility.yul\":12683:12715   */\n      0x4e6f7420656e6f75676820626c616e636520746f20706c6163652061736b0000\n        /* \"#utility.yul\":12679:12680   */\n      0x00\n        /* \"#utility.yul\":12671:12677   */\n      dup3\n        /* \"#utility.yul\":12667:12681   */\n      add\n        /* \"#utility.yul\":12660:12716   */\n      mstore\n        /* \"#utility.yul\":12543:12723   */\n      pop\n      jump\t// out\n        /* \"#utility.yul\":12729:13095   */\n    tag_230:\n        /* \"#utility.yul\":12871:12874   */\n      0x00\n        /* \"#utility.yul\":12892:12959   */\n      tag_347\n        /* \"#utility.yul\":12956:12958   */\n      0x1e\n        /* \"#utility.yul\":12951:12954   */\n      dup4\n        /* \"#utility.yul\":12892:12959   */\n      tag_222\n      jump\t// in\n    tag_347:\n        /* \"#utility.yul\":12885:12959   */\n      swap2\n      pop\n        /* \"#utility.yul\":12968:13061   */\n      tag_348\n        /* \"#utility.yul\":13057:13060   */\n      dup3\n        /* \"#utility.yul\":12968:13061   */\n      tag_229\n      jump\t// in\n    tag_348:\n        /* \"#utility.yul\":13086:13088   */\n      0x20\n        /* \"#utility.yul\":13081:13084   */\n      dup3\n        /* \"#utility.yul\":13077:13089   */\n      add\n        /* \"#utility.yul\":13070:13089   */\n      swap1\n      pop\n        /* \"#utility.yul\":12729:13095   */\n      swap2\n      swap1\n      pop\n      jump\t// out\n        /* \"#utility.yul\":13101:13520   */\n    tag_142:\n        /* \"#utility.yul\":13267:13271   */\n      0x00\n        /* \"#utility.yul\":13305:13307   */\n      0x20\n        /* \"#utility.yul\":13294:13303   */\n      dup3\n        /* \"#utility.yul\":13290:13308   */\n      add\n        /* \"#utility.yul\":13282:13308   */\n      swap1\n      pop\n        /* \"#utility.yul\":13354:13363   */\n      dup2\n        /* \"#utility.yul\":13348:13352   */\n      dup2\n        /* \"#utility.yul\":13344:13364   */\n      sub\n        /* \"#utility.yul\":13340:13341   */\n      0x00\n        /* \"#utility.yul\":13329:13338   */\n      dup4\n        /* \"#utility.yul\":13325:13342   */\n      add\n        /* \"#utility.yul\":13318:13365   */\n      mstore\n        /* \"#utility.yul\":13382:13513   */\n      tag_350\n        /* \"#utility.yul\":13508:13512   */\n      dup2\n        /* \"#utility.yul\":13382:13513   */\n      tag_230\n      jump\t// in\n    tag_350:\n        /* \"#utility.yul\":13374:13513   */\n      swap1\n      pop\n        /* \"#utility.yul\":13101:13520   */\n      swap2\n      swap1\n      pop\n      jump\t// out\n        /* \"#utility.yul\":13526:13706   */\n    tag_231:\n        /* \"#utility.yul\":13574:13651   */\n      0x4e487b7100000000000000000000000000000000000000000000000000000000\n        /* \"#utility.yul\":13571:13572   */\n      0x00\n        /* \"#utility.yul\":13564:13652   */\n      mstore\n        /* \"#utility.yul\":13671:13675   */\n      0x11\n        /* \"#utility.yul\":13668:13669   */\n      0x04\n        /* \"#utility.yul\":13661:13676   */\n      mstore\n        /* \"#utility.yul\":13695:13699   */\n      0x24\n        /* \"#utility.yul\":13692:13693   */\n      0x00\n        /* \"#utility.yul\":13685:13700   */\n      revert\n        /* \"#utility.yul\":13712:13903   */\n    tag_144:\n        /* \"#utility.yul\":13752:13756   */\n      0x00\n        /* \"#utility.yul\":13772:13792   */\n      tag_353\n        /* \"#utility.yul\":13790:13791   */\n      dup3\n        /* \"#utility.yul\":13772:13792   */\n      tag_193\n      jump\t// in\n    tag_353:\n        /* \"#utility.yul\":13767:13792   */\n      swap2\n      pop\n        /* \"#utility.yul\":13806:13826   */\n      tag_354\n        /* \"#utility.yul\":13824:13825   */\n      dup4\n        /* \"#utility.yul\":13806:13826   */\n      tag_193\n      jump\t// in\n    tag_354:\n        /* \"#utility.yul\":13801:13826   */\n      swap3\n      pop\n        /* \"#utility.yul\":13845:13846   */\n      dup3\n        /* \"#utility.yul\":13842:13843   */\n      dup3\n        /* \"#utility.yul\":13839:13847   */\n      lt\n        /* \"#utility.yul\":13836:13870   */\n      iszero\n      tag_355\n      jumpi\n        /* \"#utility.yul\":13850:13868   */\n      tag_356\n      tag_231\n      jump\t// in\n    tag_356:\n        /* \"#utility.yul\":13836:13870   */\n    tag_355:\n        /* \"#utility.yul\":13895:13896   */\n      dup3\n        /* \"#utility.yul\":13892:13893   */\n      dup3\n        /* \"#utility.yul\":13888:13897   */\n      sub\n        /* \"#utility.yul\":13880:13897   */\n      swap1\n      pop\n        /* \"#utility.yul\":13712:13903   */\n      swap3\n      swap2\n      pop\n      pop\n      jump\t// out\n        /* \"#utility.yul\":13909:14257   */\n    tag_146:\n        /* \"#utility.yul\":13949:13956   */\n      0x00\n        /* \"#utility.yul\":13972:13992   */\n      tag_358\n        /* \"#utility.yul\":13990:13991   */\n      dup3\n        /* \"#utility.yul\":13972:13992   */\n      tag_193\n      jump\t// in\n    tag_358:\n        /* \"#utility.yul\":13967:13992   */\n      swap2\n      pop\n        /* \"#utility.yul\":14006:14026   */\n      tag_359\n        /* \"#utility.yul\":14024:14025   */\n      dup4\n        /* \"#utility.yul\":14006:14026   */\n      tag_193\n      jump\t// in\n    tag_359:\n        /* \"#utility.yul\":14001:14026   */\n      swap3\n      pop\n        /* \"#utility.yul\":14194:14195   */\n      dup2\n        /* \"#utility.yul\":14126:14192   */\n      0xffffffffffffffffffffffffffffffffffffffffffffffffffffffffffffffff\n        /* \"#utility.yul\":14122:14196   */\n      div\n        /* \"#utility.yul\":14119:14120   */\n      dup4\n        /* \"#utility.yul\":14116:14197   */\n      gt\n        /* \"#utility.yul\":14111:14112   */\n      dup3\n        /* \"#utility.yul\":14104:14113   */\n      iszero\n        /* \"#utility.yul\":14097:14114   */\n      iszero\n        /* \"#utility.yul\":14093:14198   */\n      and\n        /* \"#utility.yul\":14090:14221   */\n      iszero\n      tag_360\n      jumpi\n        /* \"#utility.yul\":14201:14219   */\n      tag_361\n      tag_231\n      jump\t// in\n    tag_361:\n        /* \"#utility.yul\":14090:14221   */\n    tag_360:\n        /* \"#utility.yul\":14249:14250   */\n      dup3\n        /* \"#utility.yul\":14246:14247   */\n      dup3\n        /* \"#utility.yul\":14242:14251   */\n      mul\n        /* \"#utility.yul\":14231:14251   */\n      swap1\n      pop\n        /* \"#utility.yul\":13909:14257   */\n      swap3\n      swap2\n      pop\n      pop\n      jump\t// out\n        /* \"#utility.yul\":14263:14443   */\n    tag_232:\n        /* \"#utility.yul\":14311:14388   */\n      0x4e487b7100000000000000000000000000000000000000000000000000000000\n        /* \"#utility.yul\":14308:14309   */\n      0x00\n        /* \"#utility.yul\":14301:14389   */\n      mstore\n        /* \"#utility.yul\":14408:14412   */\n      0x12\n        /* \"#utility.yul\":14405:14406   */\n      0x04\n        /* \"#utility.yul\":14398:14413   */\n      mstore\n        /* \"#utility.yul\":14432:14436   */\n      0x24\n        /* \"#utility.yul\":14429:14430   */\n      0x00\n        /* \"#utility.yul\":14422:14437   */\n      revert\n        /* \"#utility.yul\":14449:14634   */\n    tag_148:\n        /* \"#utility.yul\":14489:14490   */\n      0x00\n        /* \"#utility.yul\":14506:14526   */\n      tag_364\n        /* \"#utility.yul\":14524:14525   */\n      dup3\n        /* \"#utility.yul\":14506:14526   */\n      tag_193\n      jump\t// in\n    tag_364:\n        /* \"#utility.yul\":14501:14526   */\n      swap2\n      pop\n        /* \"#utility.yul\":14540:14560   */\n      tag_365\n        /* \"#utility.yul\":14558:14559   */\n      dup4\n        /* \"#utility.yul\":14540:14560   */\n      tag_193\n      jump\t// in\n    tag_365:\n        /* \"#utility.yul\":14535:14560   */\n      swap3\n      pop\n        /* \"#utility.yul\":14579:14580   */\n      dup3\n        /* \"#utility.yul\":14569:14604   */\n      tag_366\n      jumpi\n        /* \"#utility.yul\":14584:14602   */\n      tag_367\n      tag_232\n      jump\t// in\n    tag_367:\n        /* \"#utility.yul\":14569:14604   */\n    tag_366:\n        /* \"#utility.yul\":14626:14627   */\n      dup3\n        /* \"#utility.yul\":14623:14624   */\n      dup3\n        /* \"#utility.yul\":14619:14628   */\n      div\n        /* \"#utility.yul\":14614:14628   */\n      swap1\n      pop\n        /* \"#utility.yul\":14449:14634   */\n      swap3\n      swap2\n      pop\n      pop\n      jump\t// out\n        /* \"#utility.yul\":14640:14736   */\n    tag_233:\n        /* \"#utility.yul\":14677:14684   */\n      0x00\n        /* \"#utility.yul\":14706:14730   */\n      tag_369\n        /* \"#utility.yul\":14724:14729   */\n      dup3\n        /* \"#utility.yul\":14706:14730   */\n      tag_207\n      jump\t// in\n    tag_369:\n        /* \"#utility.yul\":14695:14730   */\n      swap1\n      pop\n        /* \"#utility.yul\":14640:14736   */\n      swap2\n      swap1\n      pop\n      jump\t// out\n        /* \"#utility.yul\":14742:14860   */\n    tag_234:\n        /* \"#utility.yul\":14829:14853   */\n      tag_371\n        /* \"#utility.yul\":14847:14852   */\n      dup2\n        /* \"#utility.yul\":14829:14853   */\n      tag_233\n      jump\t// in\n    tag_371:\n        /* \"#utility.yul\":14824:14827   */\n      dup3\n        /* \"#utility.yul\":14817:14854   */\n      mstore\n        /* \"#utility.yul\":14742:14860   */\n      pop\n      pop\n      jump\t// out\n        /* \"#utility.yul\":14866:15431   */\n    tag_152:\n        /* \"#utility.yul\":15049:15053   */\n      0x00\n        /* \"#utility.yul\":15087:15090   */\n      0x80\n        /* \"#utility.yul\":15076:15085   */\n      dup3\n        /* \"#utility.yul\":15072:15091   */\n      add\n        /* \"#utility.yul\":15064:15091   */\n      swap1\n      pop\n        /* \"#utility.yul\":15101:15172   */\n      tag_373\n        /* \"#utility.yul\":15169:15170   */\n      0x00\n        /* \"#utility.yul\":15158:15167   */\n      dup4\n        /* \"#utility.yul\":15154:15171   */\n      add\n        /* \"#utility.yul\":15145:15151   */\n      dup8\n        /* \"#utility.yul\":15101:15172   */\n      tag_234\n      jump\t// in\n    tag_373:\n        /* \"#utility.yul\":15182:15254   */\n      tag_374\n        /* \"#utility.yul\":15250:15252   */\n      0x20\n        /* \"#utility.yul\":15239:15248   */\n      dup4\n        /* \"#utility.yul\":15235:15253   */\n      add\n        /* \"#utility.yul\":15226:15232   */\n      dup7\n        /* \"#utility.yul\":15182:15254   */\n      tag_203\n      jump\t// in\n    tag_374:\n        /* \"#utility.yul\":15264:15336   */\n      tag_375\n        /* \"#utility.yul\":15332:15334   */\n      0x40\n        /* \"#utility.yul\":15321:15330   */\n      dup4\n        /* \"#utility.yul\":15317:15335   */\n      add\n        /* \"#utility.yul\":15308:15314   */\n      dup6\n        /* \"#utility.yul\":15264:15336   */\n      tag_203\n      jump\t// in\n    tag_375:\n        /* \"#utility.yul\":15346:15424   */\n      tag_376\n        /* \"#utility.yul\":15420:15422   */\n      0x60\n        /* \"#utility.yul\":15409:15418   */\n      dup4\n        /* \"#utility.yul\":15405:15423   */\n      add\n        /* \"#utility.yul\":15396:15402   */\n      dup5\n        /* \"#utility.yul\":15346:15424   */\n      tag_220\n      jump\t// in\n    tag_376:\n        /* \"#utility.yul\":14866:15431   */\n      swap6\n      swap5\n      pop\n      pop\n      pop\n      pop\n      pop\n      jump\t// out\n        /* \"#utility.yul\":15437:15617   */\n    tag_235:\n        /* \"#utility.yul\":15577:15609   */\n      0x4e6f7420656e6f75676820626c616e636520746f20706c616365206269640000\n        /* \"#utility.yul\":15573:15574   */\n      0x00\n        /* \"#utility.yul\":15565:15571   */\n      dup3\n        /* \"#utility.yul\":15561:15575   */\n      add\n        /* \"#utility.yul\":15554:15610   */\n      mstore\n        /* \"#utility.yul\":15437:15617   */\n      pop\n      jump\t// out\n        /* \"#utility.yul\":15623:15989   */\n    tag_236:\n        /* \"#utility.yul\":15765:15768   */\n      0x00\n        /* \"#utility.yul\":15786:15853   */\n      tag_379\n        /* \"#utility.yul\":15850:15852   */\n      0x1e\n        /* \"#utility.yul\":15845:15848   */\n      dup4\n        /* \"#utility.yul\":15786:15853   */\n      tag_222\n      jump\t// in\n    tag_379:\n        /* \"#utility.yul\":15779:15853   */\n      swap2\n      pop\n        /* \"#utility.yul\":15862:15955   */\n      tag_380\n        /* \"#utility.yul\":15951:15954   */\n      dup3\n        /* \"#utility.yul\":15862:15955   */\n      tag_235\n      jump\t// in\n    tag_380:\n        /* \"#utility.yul\":15980:15982   */\n      0x20\n        /* \"#utility.yul\":15975:15978   */\n      dup3\n        /* \"#utility.yul\":15971:15983   */\n      add\n        /* \"#utility.yul\":15964:15983   */\n      swap1\n      pop\n        /* \"#utility.yul\":15623:15989   */\n      swap2\n      swap1\n      pop\n      jump\t// out\n        /* \"#utility.yul\":15995:16414   */\n    tag_180:\n        /* \"#utility.yul\":16161:16165   */\n      0x00\n        /* \"#utility.yul\":16199:16201   */\n      0x20\n        /* \"#utility.yul\":16188:16197   */\n      dup3\n        /* \"#utility.yul\":16184:16202   */\n      add\n        /* \"#utility.yul\":16176:16202   */\n      swap1\n      pop\n        /* \"#utility.yul\":16248:16257   */\n      dup2\n        /* \"#utility.yul\":16242:16246   */\n      dup2\n        /* \"#utility.yul\":16238:16258   */\n      sub\n        /* \"#utility.yul\":16234:16235   */\n      0x00\n        /* \"#utility.yul\":16223:16232   */\n      dup4\n        /* \"#utility.yul\":16219:16236   */\n      add\n        /* \"#utility.yul\":16212:16259   */\n      mstore\n        /* \"#utility.yul\":16276:16407   */\n      tag_382\n        /* \"#utility.yul\":16402:16406   */\n      dup2\n        /* \"#utility.yul\":16276:16407   */\n      tag_236\n      jump\t// in\n    tag_382:\n        /* \"#utility.yul\":16268:16407   */\n      swap1\n      pop\n        /* \"#utility.yul\":15995:16414   */\n      swap2\n      swap1\n      pop\n      jump\t// out\n\n    auxdata: 0xa26469706673582212205528f7feea0512f33558afe3225f9d9dc673f552e79ca85a7dc7ea397043472f64736f6c634300080d0033\n}\n",
				"bytecode": {
					"linkReferences": {},
					"object": "608060405233600360006101000a81548173ffffffffffffffffffffffffffffffffffffffff021916908373ffffffffffffffffffffffffffffffffffffffff1602179055503480156200005257600080fd5b50604051620019ce380380620019ce8339818101604052810190620000789190620000c6565b8060048190555050620000f8565b600080fd5b6000819050919050565b620000a0816200008b565b8114620000ac57600080fd5b50565b600081519050620000c08162000095565b92915050565b600060208284031215620000df57620000de62000086565b5b6000620000ef84828501620000af565b91505092915050565b6118c680620001086000396000f3fe6080604052600436106101095760003560e01c80637bb5119311610095578063a394fda711610064578063a394fda714610363578063b40a56271461038e578063bf77ffae146103b9578063ce0cdc87146103f6578063db3a13961461042157610109565b80637bb51193146102c8578063801d9bbd146102f35780639703ef351461031e5780639979ef451461034757610109565b80634d46712d116100dc5780634d46712d146101ca57806369f632e2146102075780636e5b0f0014610244578063734a2e781461026f57806378c5b268146102ac57610109565b8063122de8f21461010e5780631628e0f5146101395780632db6dfa7146101625780634471417f1461019f575b600080fd5b34801561011a57600080fd5b5061012361045e565b604051610130919061119b565b60405180910390f35b34801561014557600080fd5b50610160600480360381019061015b91906111ee565b610463565b005b34801561016e57600080fd5b50610189600480360381019061018491906111ee565b610898565b604051610196919061122a565b60405180910390f35b3480156101ab57600080fd5b506101b46108b8565b6040516101c1919061146a565b60405180910390f35b3480156101d657600080fd5b506101f160048036038101906101ec91906111ee565b6108bd565b6040516101fe919061149b565b60405180910390f35b34801561021357600080fd5b5061022e600480360381019061022991906111ee565b6108ea565b60405161023b91906114c5565b60405180910390f35b34801561025057600080fd5b5061025961092a565b604051610266919061122a565b60405180910390f35b34801561027b57600080fd5b50610296600480360381019061029191906111ee565b610930565b6040516102a391906114c5565b60405180910390f35b6102c660048036038101906102c191906111ee565b610970565b005b3480156102d457600080fd5b506102dd610ad2565b6040516102ea919061122a565b60405180910390f35b3480156102ff57600080fd5b50610308610ad8565b604051610315919061122a565b60405180910390f35b34801561032a57600080fd5b50610345600480360381019061034091906111ee565b610ade565b005b610361600480360381019061035c91906111ee565b610f13565b005b34801561036f57600080fd5b50610378611075565b604051610385919061122a565b60405180910390f35b34801561039a57600080fd5b506103a361107b565b6040516103b0919061122a565b60405180910390f35b3480156103c557600080fd5b506103e060048036038101906103db91906111ee565b611081565b6040516103ed919061149b565b60405180910390f35b34801561040257600080fd5b5061040b6110ae565b604051610418919061119b565b60405180910390f35b34801561042d57600080fd5b50610448600480360381019061044391906111ee565b6110b3565b604051610455919061122a565b60405180910390f35b606090565b60096000828152602001908152602001600020604051806101000160405290816000820160009054906101000a900473ffffffffffffffffffffffffffffffffffffffff1673ffffffffffffffffffffffffffffffffffffffff1673ffffffffffffffffffffffffffffffffffffffff16815260200160018201548152602001600282015481526020016003820160009054906101000a900460ff166001811115610511576105106112b2565b5b6001811115610523576105226112b2565b5b81526020016004820154815260200160058201548152602001600682015481526020016007820160009054906101000a900460ff16151515158152505060006001811115610574576105736112b2565b5b8160600151600181111561058b5761058a6112b2565b5b146105cb576040517f08c379a00000000000000000000000000000000000000000000000000000000081526004016105c29061153d565b60405180910390fd5b60096000838152602001908152602001600020604051806101000160405290816000820160009054906101000a900473ffffffffffffffffffffffffffffffffffffffff1673ffffffffffffffffffffffffffffffffffffffff1673ffffffffffffffffffffffffffffffffffffffff16815260200160018201548152602001600282015481526020016003820160009054906101000a900460ff166001811115610679576106786112b2565b5b600181111561068b5761068a6112b2565b5b81526020016004820154815260200160058201548152602001600682015481526020016007820160009054906101000a900460ff161515151581525050338073ffffffffffffffffffffffffffffffffffffffff16826000015173ffffffffffffffffffffffffffffffffffffffff161461073b576040517f08c379a0000000000000000000000000000000000000000000000000000000008152600401610732906115a9565b60405180910390fd5b6009600085815260200190815260200160002060000160009054906101000a900473ffffffffffffffffffffffffffffffffffffffff1673ffffffffffffffffffffffffffffffffffffffff166108fc60096000878152602001908152602001600020600101549081150290604051600060405180830381858888f193505050501580156107cd573d6000803e3d6000fd5b5060096000858152602001908152602001600020600080820160006101000a81549073ffffffffffffffffffffffffffffffffffffffff0219169055600182016000905560028201600090556003820160006101000a81549060ff02191690556004820160009055600582016000905560068201600090556007820160006101000a81549060ff021916905550507f48d3043fff66c1aee14954ac5aa463b0297fb08c9b60ee00486fb3387bb58aac8460405161088a919061122a565b60405180910390a150505050565b600060056000838152602001908152602001600020600101549050919050565b606090565b60006009600083815260200190815260200160002060030160009054906101000a900460ff169050919050565b60006005600083815260200190815260200160002060000160009054906101000a900473ffffffffffffffffffffffffffffffffffffffff169050919050565b60065481565b60006009600083815260200190815260200160002060000160009054906101000a900473ffffffffffffffffffffffffffffffffffffffff169050919050565b60008110156109b4576040517f08c379a00000000000000000000000000000000000000000000000000000000081526004016109ab90611615565b60405180910390fd5b803410156109f7576040517f08c379a00000000000000000000000000000000000000000000000000000000081526004016109ee90611681565b60405180910390fd5b6000429050600060646004546064610a0f91906116d0565b34610a1a9190611704565b610a24919061178d565b9050600360009054906101000a900473ffffffffffffffffffffffffffffffffffffffff1673ffffffffffffffffffffffffffffffffffffffff166108fc829081150290604051600060405180830381858888f19350505050158015610a8e573d6000803e3d6000fd5b507fc2125a7f3edfeff7a3bbcfe393c5aa3a6589585d4a7ee70db48c34f67c8209e23382846000604051610ac594939291906117df565b60405180910390a1505050565b60075481565b600a5481565b60056000828152602001908152602001600020604051806101000160405290816000820160009054906101000a900473ffffffffffffffffffffffffffffffffffffffff1673ffffffffffffffffffffffffffffffffffffffff1673ffffffffffffffffffffffffffffffffffffffff16815260200160018201548152602001600282015481526020016003820160009054906101000a900460ff166001811115610b8c57610b8b6112b2565b5b6001811115610b9e57610b9d6112b2565b5b81526020016004820154815260200160058201548152602001600682015481526020016007820160009054906101000a900460ff16151515158152505060006001811115610bef57610bee6112b2565b5b81606001516001811115610c0657610c056112b2565b5b14610c46576040517f08c379a0000000000000000000000000000000000000000000000000000000008152600401610c3d9061153d565b60405180910390fd5b60056000838152602001908152602001600020604051806101000160405290816000820160009054906101000a900473ffffffffffffffffffffffffffffffffffffffff1673ffffffffffffffffffffffffffffffffffffffff1673ffffffffffffffffffffffffffffffffffffffff16815260200160018201548152602001600282015481526020016003820160009054906101000a900460ff166001811115610cf457610cf36112b2565b5b6001811115610d0657610d056112b2565b5b81526020016004820154815260200160058201548152602001600682015481526020016007820160009054906101000a900460ff161515151581525050338073ffffffffffffffffffffffffffffffffffffffff16826000015173ffffffffffffffffffffffffffffffffffffffff1614610db6576040517f08c379a0000000000000000000000000000000000000000000000000000000008152600401610dad906115a9565b60405180910390fd5b6005600085815260200190815260200160002060000160009054906101000a900473ffffffffffffffffffffffffffffffffffffffff1673ffffffffffffffffffffffffffffffffffffffff166108fc60056000878152602001908152602001600020600101549081150290604051600060405180830381858888f19350505050158015610e48573d6000803e3d6000fd5b5060056000858152602001908152602001600020600080820160006101000a81549073ffffffffffffffffffffffffffffffffffffffff0219169055600182016000905560028201600090556003820160006101000a81549060ff02191690556004820160009055600582016000905560068201600090556007820160006101000a81549060ff021916905550507fc845a6832afa0a4048dd70bbba2186093508a6b63a8d5d70a508f819fef257f884604051610f05919061122a565b60405180910390a150505050565b6000811015610f57576040517f08c379a0000000000000000000000000000000000000000000000000000000008152600401610f4e90611615565b60405180910390fd5b80341015610f9a576040517f08c379a0000000000000000000000000000000000000000000000000000000008152600401610f9190611870565b60405180910390fd5b6000429050600060646004546064610fb291906116d0565b34610fbd9190611704565b610fc7919061178d565b9050600360009054906101000a900473ffffffffffffffffffffffffffffffffffffffff1673ffffffffffffffffffffffffffffffffffffffff166108fc829081150290604051600060405180830381858888f19350505050158015611031573d6000803e3d6000fd5b507fa64806d6d5d480697a0b11c92b915a4ff7b93c0be28171d65d30041a0c360d04338284600060405161106894939291906117df565b60405180910390a1505050565b600b5481565b60085481565b60006005600083815260200190815260200160002060030160009054906101000a900460ff169050919050565b606090565b600060096000838152602001908152602001600020600101549050919050565b600081519050919050565b600082825260208201905092915050565b6000819050602082019050919050565b6000819050919050565b611112816110ff565b82525050565b60006111248383611109565b60208301905092915050565b6000602082019050919050565b6000611148826110d3565b61115281856110de565b935061115d836110ef565b8060005b8381101561118e5781516111758882611118565b975061118083611130565b925050600181019050611161565b5085935050505092915050565b600060208201905081810360008301526111b5818461113d565b905092915050565b600080fd5b6111cb816110ff565b81146111d657600080fd5b50565b6000813590506111e8816111c2565b92915050565b600060208284031215611204576112036111bd565b5b6000611212848285016111d9565b91505092915050565b611224816110ff565b82525050565b600060208201905061123f600083018461121b565b92915050565b600081519050919050565b600082825260208201905092915050565b6000819050602082019050919050565b600073ffffffffffffffffffffffffffffffffffffffff82169050919050565b600061129c82611271565b9050919050565b6112ac81611291565b82525050565b7f4e487b7100000000000000000000000000000000000000000000000000000000600052602160045260246000fd5b600281106112f2576112f16112b2565b5b50565b6000819050611303826112e1565b919050565b6000611313826112f5565b9050919050565b61132381611308565b82525050565b60008115159050919050565b61133e81611329565b82525050565b6101008201600082015161135b60008501826112a3565b50602082015161136e6020850182611109565b5060408201516113816040850182611109565b506060820151611394606085018261131a565b5060808201516113a76080850182611109565b5060a08201516113ba60a0850182611109565b5060c08201516113cd60c0850182611109565b5060e08201516113e060e0850182611335565b50505050565b60006113f28383611344565b6101008301905092915050565b6000602082019050919050565b600061141782611245565b6114218185611250565b935061142c83611261565b8060005b8381101561145d57815161144488826113e6565b975061144f836113ff565b925050600181019050611430565b5085935050505092915050565b60006020820190508181036000830152611484818461140c565b905092915050565b61149581611308565b82525050565b60006020820190506114b0600083018461148c565b92915050565b6114bf81611291565b82525050565b60006020820190506114da60008301846114b6565b92915050565b600082825260208201905092915050565b7f4f726465722050656e64696e6700000000000000000000000000000000000000600082015250565b6000611527600d836114e0565b9150611532826114f1565b602082019050919050565b600060208201905081810360008301526115568161151a565b9050919050565b7f4e6f7420417574686f7269736564000000000000000000000000000000000000600082015250565b6000611593600e836114e0565b915061159e8261155d565b602082019050919050565b600060208201905081810360008301526115c281611586565b9050919050565b7f70726963652076616c7565206d757374206265206d6f7265207468616e203000600082015250565b60006115ff601f836114e0565b915061160a826115c9565b602082019050919050565b6000602082019050818103600083015261162e816115f2565b9050919050565b7f4e6f7420656e6f75676820626c616e636520746f20706c6163652061736b0000600082015250565b600061166b601e836114e0565b915061167682611635565b602082019050919050565b6000602082019050818103600083015261169a8161165e565b9050919050565b7f4e487b7100000000000000000000000000000000000000000000000000000000600052601160045260246000fd5b60006116db826110ff565b91506116e6836110ff565b9250828210156116f9576116f86116a1565b5b828203905092915050565b600061170f826110ff565b915061171a836110ff565b9250817fffffffffffffffffffffffffffffffffffffffffffffffffffffffffffffffff0483118215151615611753576117526116a1565b5b828202905092915050565b7f4e487b7100000000000000000000000000000000000000000000000000000000600052601260045260246000fd5b6000611798826110ff565b91506117a3836110ff565b9250826117b3576117b261175e565b5b828204905092915050565b60006117c982611271565b9050919050565b6117d9816117be565b82525050565b60006080820190506117f460008301876117d0565b611801602083018661121b565b61180e604083018561121b565b61181b606083018461148c565b95945050505050565b7f4e6f7420656e6f75676820626c616e636520746f20706c616365206269640000600082015250565b600061185a601e836114e0565b915061186582611824565b602082019050919050565b600060208201905081810360008301526118898161184d565b905091905056fea26469706673582212205528f7feea0512f33558afe3225f9d9dc673f552e79ca85a7dc7ea397043472f64736f6c634300080d0033",
					"opcodes": "PUSH1 0x80 PUSH1 0x40 MSTORE CALLER PUSH1 0x3 PUSH1 0x0 PUSH2 0x100 EXP DUP2 SLOAD DUP2 PUSH20 0xFFFFFFFFFFFFFFFFFFFFFFFFFFFFFFFFFFFFFFFF MUL NOT AND SWAP1 DUP4 PUSH20 0xFFFFFFFFFFFFFFFFFFFFFFFFFFFFFFFFFFFFFFFF AND MUL OR SWAP1 SSTORE POP CALLVALUE DUP1 ISZERO PUSH3 0x52 JUMPI PUSH1 0x0 DUP1 REVERT JUMPDEST POP PUSH1 0x40 MLOAD PUSH3 0x19CE CODESIZE SUB DUP1 PUSH3 0x19CE DUP4 CODECOPY DUP2 DUP2 ADD PUSH1 0x40 MSTORE DUP2 ADD SWAP1 PUSH3 0x78 SWAP2 SWAP1 PUSH3 0xC6 JUMP JUMPDEST DUP1 PUSH1 0x4 DUP2 SWAP1 SSTORE POP POP PUSH3 0xF8 JUMP JUMPDEST PUSH1 0x0 DUP1 REVERT JUMPDEST PUSH1 0x0 DUP2 SWAP1 POP SWAP2 SWAP1 POP JUMP JUMPDEST PUSH3 0xA0 DUP2 PUSH3 0x8B JUMP JUMPDEST DUP2 EQ PUSH3 0xAC JUMPI PUSH1 0x0 DUP1 REVERT JUMPDEST POP JUMP JUMPDEST PUSH1 0x0 DUP2 MLOAD SWAP1 POP PUSH3 0xC0 DUP2 PUSH3 0x95 JUMP JUMPDEST SWAP3 SWAP2 POP POP JUMP JUMPDEST PUSH1 0x0 PUSH1 0x20 DUP3 DUP5 SUB SLT ISZERO PUSH3 0xDF JUMPI PUSH3 0xDE PUSH3 0x86 JUMP JUMPDEST JUMPDEST PUSH1 0x0 PUSH3 0xEF DUP5 DUP3 DUP6 ADD PUSH3 0xAF JUMP JUMPDEST SWAP2 POP POP SWAP3 SWAP2 POP POP JUMP JUMPDEST PUSH2 0x18C6 DUP1 PUSH3 0x108 PUSH1 0x0 CODECOPY PUSH1 0x0 RETURN INVALID PUSH1 0x80 PUSH1 0x40 MSTORE PUSH1 0x4 CALLDATASIZE LT PUSH2 0x109 JUMPI PUSH1 0x0 CALLDATALOAD PUSH1 0xE0 SHR DUP1 PUSH4 0x7BB51193 GT PUSH2 0x95 JUMPI DUP1 PUSH4 0xA394FDA7 GT PUSH2 0x64 JUMPI DUP1 PUSH4 0xA394FDA7 EQ PUSH2 0x363 JUMPI DUP1 PUSH4 0xB40A5627 EQ PUSH2 0x38E JUMPI DUP1 PUSH4 0xBF77FFAE EQ PUSH2 0x3B9 JUMPI DUP1 PUSH4 0xCE0CDC87 EQ PUSH2 0x3F6 JUMPI DUP1 PUSH4 0xDB3A1396 EQ PUSH2 0x421 JUMPI PUSH2 0x109 JUMP JUMPDEST DUP1 PUSH4 0x7BB51193 EQ PUSH2 0x2C8 JUMPI DUP1 PUSH4 0x801D9BBD EQ PUSH2 0x2F3 JUMPI DUP1 PUSH4 0x9703EF35 EQ PUSH2 0x31E JUMPI DUP1 PUSH4 0x9979EF45 EQ PUSH2 0x347 JUMPI PUSH2 0x109 JUMP JUMPDEST DUP1 PUSH4 0x4D46712D GT PUSH2 0xDC JUMPI DUP1 PUSH4 0x4D46712D EQ PUSH2 0x1CA JUMPI DUP1 PUSH4 0x69F632E2 EQ PUSH2 0x207 JUMPI DUP1 PUSH4 0x6E5B0F00 EQ PUSH2 0x244 JUMPI DUP1 PUSH4 0x734A2E78 EQ PUSH2 0x26F JUMPI DUP1 PUSH4 0x78C5B268 EQ PUSH2 0x2AC JUMPI PUSH2 0x109 JUMP JUMPDEST DUP1 PUSH4 0x122DE8F2 EQ PUSH2 0x10E JUMPI DUP1 PUSH4 0x1628E0F5 EQ PUSH2 0x139 JUMPI DUP1 PUSH4 0x2DB6DFA7 EQ PUSH2 0x162 JUMPI DUP1 PUSH4 0x4471417F EQ PUSH2 0x19F JUMPI JUMPDEST PUSH1 0x0 DUP1 REVERT JUMPDEST CALLVALUE DUP1 ISZERO PUSH2 0x11A JUMPI PUSH1 0x0 DUP1 REVERT JUMPDEST POP PUSH2 0x123 PUSH2 0x45E JUMP JUMPDEST PUSH1 0x40 MLOAD PUSH2 0x130 SWAP2 SWAP1 PUSH2 0x119B JUMP JUMPDEST PUSH1 0x40 MLOAD DUP1 SWAP2 SUB SWAP1 RETURN JUMPDEST CALLVALUE DUP1 ISZERO PUSH2 0x145 JUMPI PUSH1 0x0 DUP1 REVERT JUMPDEST POP PUSH2 0x160 PUSH1 0x4 DUP1 CALLDATASIZE SUB DUP2 ADD SWAP1 PUSH2 0x15B SWAP2 SWAP1 PUSH2 0x11EE JUMP JUMPDEST PUSH2 0x463 JUMP JUMPDEST STOP JUMPDEST CALLVALUE DUP1 ISZERO PUSH2 0x16E JUMPI PUSH1 0x0 DUP1 REVERT JUMPDEST POP PUSH2 0x189 PUSH1 0x4 DUP1 CALLDATASIZE SUB DUP2 ADD SWAP1 PUSH2 0x184 SWAP2 SWAP1 PUSH2 0x11EE JUMP JUMPDEST PUSH2 0x898 JUMP JUMPDEST PUSH1 0x40 MLOAD PUSH2 0x196 SWAP2 SWAP1 PUSH2 0x122A JUMP JUMPDEST PUSH1 0x40 MLOAD DUP1 SWAP2 SUB SWAP1 RETURN JUMPDEST CALLVALUE DUP1 ISZERO PUSH2 0x1AB JUMPI PUSH1 0x0 DUP1 REVERT JUMPDEST POP PUSH2 0x1B4 PUSH2 0x8B8 JUMP JUMPDEST PUSH1 0x40 MLOAD PUSH2 0x1C1 SWAP2 SWAP1 PUSH2 0x146A JUMP JUMPDEST PUSH1 0x40 MLOAD DUP1 SWAP2 SUB SWAP1 RETURN JUMPDEST CALLVALUE DUP1 ISZERO PUSH2 0x1D6 JUMPI PUSH1 0x0 DUP1 REVERT JUMPDEST POP PUSH2 0x1F1 PUSH1 0x4 DUP1 CALLDATASIZE SUB DUP2 ADD SWAP1 PUSH2 0x1EC SWAP2 SWAP1 PUSH2 0x11EE JUMP JUMPDEST PUSH2 0x8BD JUMP JUMPDEST PUSH1 0x40 MLOAD PUSH2 0x1FE SWAP2 SWAP1 PUSH2 0x149B JUMP JUMPDEST PUSH1 0x40 MLOAD DUP1 SWAP2 SUB SWAP1 RETURN JUMPDEST CALLVALUE DUP1 ISZERO PUSH2 0x213 JUMPI PUSH1 0x0 DUP1 REVERT JUMPDEST POP PUSH2 0x22E PUSH1 0x4 DUP1 CALLDATASIZE SUB DUP2 ADD SWAP1 PUSH2 0x229 SWAP2 SWAP1 PUSH2 0x11EE JUMP JUMPDEST PUSH2 0x8EA JUMP JUMPDEST PUSH1 0x40 MLOAD PUSH2 0x23B SWAP2 SWAP1 PUSH2 0x14C5 JUMP JUMPDEST PUSH1 0x40 MLOAD DUP1 SWAP2 SUB SWAP1 RETURN JUMPDEST CALLVALUE DUP1 ISZERO PUSH2 0x250 JUMPI PUSH1 0x0 DUP1 REVERT JUMPDEST POP PUSH2 0x259 PUSH2 0x92A JUMP JUMPDEST PUSH1 0x40 MLOAD PUSH2 0x266 SWAP2 SWAP1 PUSH2 0x122A JUMP JUMPDEST PUSH1 0x40 MLOAD DUP1 SWAP2 SUB SWAP1 RETURN JUMPDEST CALLVALUE DUP1 ISZERO PUSH2 0x27B JUMPI PUSH1 0x0 DUP1 REVERT JUMPDEST POP PUSH2 0x296 PUSH1 0x4 DUP1 CALLDATASIZE SUB DUP2 ADD SWAP1 PUSH2 0x291 SWAP2 SWAP1 PUSH2 0x11EE JUMP JUMPDEST PUSH2 0x930 JUMP JUMPDEST PUSH1 0x40 MLOAD PUSH2 0x2A3 SWAP2 SWAP1 PUSH2 0x14C5 JUMP JUMPDEST PUSH1 0x40 MLOAD DUP1 SWAP2 SUB SWAP1 RETURN JUMPDEST PUSH2 0x2C6 PUSH1 0x4 DUP1 CALLDATASIZE SUB DUP2 ADD SWAP1 PUSH2 0x2C1 SWAP2 SWAP1 PUSH2 0x11EE JUMP JUMPDEST PUSH2 0x970 JUMP JUMPDEST STOP JUMPDEST CALLVALUE DUP1 ISZERO PUSH2 0x2D4 JUMPI PUSH1 0x0 DUP1 REVERT JUMPDEST POP PUSH2 0x2DD PUSH2 0xAD2 JUMP JUMPDEST PUSH1 0x40 MLOAD PUSH2 0x2EA SWAP2 SWAP1 PUSH2 0x122A JUMP JUMPDEST PUSH1 0x40 MLOAD DUP1 SWAP2 SUB SWAP1 RETURN JUMPDEST CALLVALUE DUP1 ISZERO PUSH2 0x2FF JUMPI PUSH1 0x0 DUP1 REVERT JUMPDEST POP PUSH2 0x308 PUSH2 0xAD8 JUMP JUMPDEST PUSH1 0x40 MLOAD PUSH2 0x315 SWAP2 SWAP1 PUSH2 0x122A JUMP JUMPDEST PUSH1 0x40 MLOAD DUP1 SWAP2 SUB SWAP1 RETURN JUMPDEST CALLVALUE DUP1 ISZERO PUSH2 0x32A JUMPI PUSH1 0x0 DUP1 REVERT JUMPDEST POP PUSH2 0x345 PUSH1 0x4 DUP1 CALLDATASIZE SUB DUP2 ADD SWAP1 PUSH2 0x340 SWAP2 SWAP1 PUSH2 0x11EE JUMP JUMPDEST PUSH2 0xADE JUMP JUMPDEST STOP JUMPDEST PUSH2 0x361 PUSH1 0x4 DUP1 CALLDATASIZE SUB DUP2 ADD SWAP1 PUSH2 0x35C SWAP2 SWAP1 PUSH2 0x11EE JUMP JUMPDEST PUSH2 0xF13 JUMP JUMPDEST STOP JUMPDEST CALLVALUE DUP1 ISZERO PUSH2 0x36F JUMPI PUSH1 0x0 DUP1 REVERT JUMPDEST POP PUSH2 0x378 PUSH2 0x1075 JUMP JUMPDEST PUSH1 0x40 MLOAD PUSH2 0x385 SWAP2 SWAP1 PUSH2 0x122A JUMP JUMPDEST PUSH1 0x40 MLOAD DUP1 SWAP2 SUB SWAP1 RETURN JUMPDEST CALLVALUE DUP1 ISZERO PUSH2 0x39A JUMPI PUSH1 0x0 DUP1 REVERT JUMPDEST POP PUSH2 0x3A3 PUSH2 0x107B JUMP JUMPDEST PUSH1 0x40 MLOAD PUSH2 0x3B0 SWAP2 SWAP1 PUSH2 0x122A JUMP JUMPDEST PUSH1 0x40 MLOAD DUP1 SWAP2 SUB SWAP1 RETURN JUMPDEST CALLVALUE DUP1 ISZERO PUSH2 0x3C5 JUMPI PUSH1 0x0 DUP1 REVERT JUMPDEST POP PUSH2 0x3E0 PUSH1 0x4 DUP1 CALLDATASIZE SUB DUP2 ADD SWAP1 PUSH2 0x3DB SWAP2 SWAP1 PUSH2 0x11EE JUMP JUMPDEST PUSH2 0x1081 JUMP JUMPDEST PUSH1 0x40 MLOAD PUSH2 0x3ED SWAP2 SWAP1 PUSH2 0x149B JUMP JUMPDEST PUSH1 0x40 MLOAD DUP1 SWAP2 SUB SWAP1 RETURN JUMPDEST CALLVALUE DUP1 ISZERO PUSH2 0x402 JUMPI PUSH1 0x0 DUP1 REVERT JUMPDEST POP PUSH2 0x40B PUSH2 0x10AE JUMP JUMPDEST PUSH1 0x40 MLOAD PUSH2 0x418 SWAP2 SWAP1 PUSH2 0x119B JUMP JUMPDEST PUSH1 0x40 MLOAD DUP1 SWAP2 SUB SWAP1 RETURN JUMPDEST CALLVALUE DUP1 ISZERO PUSH2 0x42D JUMPI PUSH1 0x0 DUP1 REVERT JUMPDEST POP PUSH2 0x448 PUSH1 0x4 DUP1 CALLDATASIZE SUB DUP2 ADD SWAP1 PUSH2 0x443 SWAP2 SWAP1 PUSH2 0x11EE JUMP JUMPDEST PUSH2 0x10B3 JUMP JUMPDEST PUSH1 0x40 MLOAD PUSH2 0x455 SWAP2 SWAP1 PUSH2 0x122A JUMP JUMPDEST PUSH1 0x40 MLOAD DUP1 SWAP2 SUB SWAP1 RETURN JUMPDEST PUSH1 0x60 SWAP1 JUMP JUMPDEST PUSH1 0x9 PUSH1 0x0 DUP3 DUP2 MSTORE PUSH1 0x20 ADD SWAP1 DUP2 MSTORE PUSH1 0x20 ADD PUSH1 0x0 KECCAK256 PUSH1 0x40 MLOAD DUP1 PUSH2 0x100 ADD PUSH1 0x40 MSTORE SWAP1 DUP2 PUSH1 0x0 DUP3 ADD PUSH1 0x0 SWAP1 SLOAD SWAP1 PUSH2 0x100 EXP SWAP1 DIV PUSH20 0xFFFFFFFFFFFFFFFFFFFFFFFFFFFFFFFFFFFFFFFF AND PUSH20 0xFFFFFFFFFFFFFFFFFFFFFFFFFFFFFFFFFFFFFFFF AND PUSH20 0xFFFFFFFFFFFFFFFFFFFFFFFFFFFFFFFFFFFFFFFF AND DUP2 MSTORE PUSH1 0x20 ADD PUSH1 0x1 DUP3 ADD SLOAD DUP2 MSTORE PUSH1 0x20 ADD PUSH1 0x2 DUP3 ADD SLOAD DUP2 MSTORE PUSH1 0x20 ADD PUSH1 0x3 DUP3 ADD PUSH1 0x0 SWAP1 SLOAD SWAP1 PUSH2 0x100 EXP SWAP1 DIV PUSH1 0xFF AND PUSH1 0x1 DUP2 GT ISZERO PUSH2 0x511 JUMPI PUSH2 0x510 PUSH2 0x12B2 JUMP JUMPDEST JUMPDEST PUSH1 0x1 DUP2 GT ISZERO PUSH2 0x523 JUMPI PUSH2 0x522 PUSH2 0x12B2 JUMP JUMPDEST JUMPDEST DUP2 MSTORE PUSH1 0x20 ADD PUSH1 0x4 DUP3 ADD SLOAD DUP2 MSTORE PUSH1 0x20 ADD PUSH1 0x5 DUP3 ADD SLOAD DUP2 MSTORE PUSH1 0x20 ADD PUSH1 0x6 DUP3 ADD SLOAD DUP2 MSTORE PUSH1 0x20 ADD PUSH1 0x7 DUP3 ADD PUSH1 0x0 SWAP1 SLOAD SWAP1 PUSH2 0x100 EXP SWAP1 DIV PUSH1 0xFF AND ISZERO ISZERO ISZERO ISZERO DUP2 MSTORE POP POP PUSH1 0x0 PUSH1 0x1 DUP2 GT ISZERO PUSH2 0x574 JUMPI PUSH2 0x573 PUSH2 0x12B2 JUMP JUMPDEST JUMPDEST DUP2 PUSH1 0x60 ADD MLOAD PUSH1 0x1 DUP2 GT ISZERO PUSH2 0x58B JUMPI PUSH2 0x58A PUSH2 0x12B2 JUMP JUMPDEST JUMPDEST EQ PUSH2 0x5CB JUMPI PUSH1 0x40 MLOAD PUSH32 0x8C379A000000000000000000000000000000000000000000000000000000000 DUP2 MSTORE PUSH1 0x4 ADD PUSH2 0x5C2 SWAP1 PUSH2 0x153D JUMP JUMPDEST PUSH1 0x40 MLOAD DUP1 SWAP2 SUB SWAP1 REVERT JUMPDEST PUSH1 0x9 PUSH1 0x0 DUP4 DUP2 MSTORE PUSH1 0x20 ADD SWAP1 DUP2 MSTORE PUSH1 0x20 ADD PUSH1 0x0 KECCAK256 PUSH1 0x40 MLOAD DUP1 PUSH2 0x100 ADD PUSH1 0x40 MSTORE SWAP1 DUP2 PUSH1 0x0 DUP3 ADD PUSH1 0x0 SWAP1 SLOAD SWAP1 PUSH2 0x100 EXP SWAP1 DIV PUSH20 0xFFFFFFFFFFFFFFFFFFFFFFFFFFFFFFFFFFFFFFFF AND PUSH20 0xFFFFFFFFFFFFFFFFFFFFFFFFFFFFFFFFFFFFFFFF AND PUSH20 0xFFFFFFFFFFFFFFFFFFFFFFFFFFFFFFFFFFFFFFFF AND DUP2 MSTORE PUSH1 0x20 ADD PUSH1 0x1 DUP3 ADD SLOAD DUP2 MSTORE PUSH1 0x20 ADD PUSH1 0x2 DUP3 ADD SLOAD DUP2 MSTORE PUSH1 0x20 ADD PUSH1 0x3 DUP3 ADD PUSH1 0x0 SWAP1 SLOAD SWAP1 PUSH2 0x100 EXP SWAP1 DIV PUSH1 0xFF AND PUSH1 0x1 DUP2 GT ISZERO PUSH2 0x679 JUMPI PUSH2 0x678 PUSH2 0x12B2 JUMP JUMPDEST JUMPDEST PUSH1 0x1 DUP2 GT ISZERO PUSH2 0x68B JUMPI PUSH2 0x68A PUSH2 0x12B2 JUMP JUMPDEST JUMPDEST DUP2 MSTORE PUSH1 0x20 ADD PUSH1 0x4 DUP3 ADD SLOAD DUP2 MSTORE PUSH1 0x20 ADD PUSH1 0x5 DUP3 ADD SLOAD DUP2 MSTORE PUSH1 0x20 ADD PUSH1 0x6 DUP3 ADD SLOAD DUP2 MSTORE PUSH1 0x20 ADD PUSH1 0x7 DUP3 ADD PUSH1 0x0 SWAP1 SLOAD SWAP1 PUSH2 0x100 EXP SWAP1 DIV PUSH1 0xFF AND ISZERO ISZERO ISZERO ISZERO DUP2 MSTORE POP POP CALLER DUP1 PUSH20 0xFFFFFFFFFFFFFFFFFFFFFFFFFFFFFFFFFFFFFFFF AND DUP3 PUSH1 0x0 ADD MLOAD PUSH20 0xFFFFFFFFFFFFFFFFFFFFFFFFFFFFFFFFFFFFFFFF AND EQ PUSH2 0x73B JUMPI PUSH1 0x40 MLOAD PUSH32 0x8C379A000000000000000000000000000000000000000000000000000000000 DUP2 MSTORE PUSH1 0x4 ADD PUSH2 0x732 SWAP1 PUSH2 0x15A9 JUMP JUMPDEST PUSH1 0x40 MLOAD DUP1 SWAP2 SUB SWAP1 REVERT JUMPDEST PUSH1 0x9 PUSH1 0x0 DUP6 DUP2 MSTORE PUSH1 0x20 ADD SWAP1 DUP2 MSTORE PUSH1 0x20 ADD PUSH1 0x0 KECCAK256 PUSH1 0x0 ADD PUSH1 0x0 SWAP1 SLOAD SWAP1 PUSH2 0x100 EXP SWAP1 DIV PUSH20 0xFFFFFFFFFFFFFFFFFFFFFFFFFFFFFFFFFFFFFFFF AND PUSH20 0xFFFFFFFFFFFFFFFFFFFFFFFFFFFFFFFFFFFFFFFF AND PUSH2 0x8FC PUSH1 0x9 PUSH1 0x0 DUP8 DUP2 MSTORE PUSH1 0x20 ADD SWAP1 DUP2 MSTORE PUSH1 0x20 ADD PUSH1 0x0 KECCAK256 PUSH1 0x1 ADD SLOAD SWAP1 DUP2 ISZERO MUL SWAP1 PUSH1 0x40 MLOAD PUSH1 0x0 PUSH1 0x40 MLOAD DUP1 DUP4 SUB DUP2 DUP6 DUP9 DUP9 CALL SWAP4 POP POP POP POP ISZERO DUP1 ISZERO PUSH2 0x7CD JUMPI RETURNDATASIZE PUSH1 0x0 DUP1 RETURNDATACOPY RETURNDATASIZE PUSH1 0x0 REVERT JUMPDEST POP PUSH1 0x9 PUSH1 0x0 DUP6 DUP2 MSTORE PUSH1 0x20 ADD SWAP1 DUP2 MSTORE PUSH1 0x20 ADD PUSH1 0x0 KECCAK256 PUSH1 0x0 DUP1 DUP3 ADD PUSH1 0x0 PUSH2 0x100 EXP DUP2 SLOAD SWAP1 PUSH20 0xFFFFFFFFFFFFFFFFFFFFFFFFFFFFFFFFFFFFFFFF MUL NOT AND SWAP1 SSTORE PUSH1 0x1 DUP3 ADD PUSH1 0x0 SWAP1 SSTORE PUSH1 0x2 DUP3 ADD PUSH1 0x0 SWAP1 SSTORE PUSH1 0x3 DUP3 ADD PUSH1 0x0 PUSH2 0x100 EXP DUP2 SLOAD SWAP1 PUSH1 0xFF MUL NOT AND SWAP1 SSTORE PUSH1 0x4 DUP3 ADD PUSH1 0x0 SWAP1 SSTORE PUSH1 0x5 DUP3 ADD PUSH1 0x0 SWAP1 SSTORE PUSH1 0x6 DUP3 ADD PUSH1 0x0 SWAP1 SSTORE PUSH1 0x7 DUP3 ADD PUSH1 0x0 PUSH2 0x100 EXP DUP2 SLOAD SWAP1 PUSH1 0xFF MUL NOT AND SWAP1 SSTORE POP POP PUSH32 0x48D3043FFF66C1AEE14954AC5AA463B0297FB08C9B60EE00486FB3387BB58AAC DUP5 PUSH1 0x40 MLOAD PUSH2 0x88A SWAP2 SWAP1 PUSH2 0x122A JUMP JUMPDEST PUSH1 0x40 MLOAD DUP1 SWAP2 SUB SWAP1 LOG1 POP POP POP POP JUMP JUMPDEST PUSH1 0x0 PUSH1 0x5 PUSH1 0x0 DUP4 DUP2 MSTORE PUSH1 0x20 ADD SWAP1 DUP2 MSTORE PUSH1 0x20 ADD PUSH1 0x0 KECCAK256 PUSH1 0x1 ADD SLOAD SWAP1 POP SWAP2 SWAP1 POP JUMP JUMPDEST PUSH1 0x60 SWAP1 JUMP JUMPDEST PUSH1 0x0 PUSH1 0x9 PUSH1 0x0 DUP4 DUP2 MSTORE PUSH1 0x20 ADD SWAP1 DUP2 MSTORE PUSH1 0x20 ADD PUSH1 0x0 KECCAK256 PUSH1 0x3 ADD PUSH1 0x0 SWAP1 SLOAD SWAP1 PUSH2 0x100 EXP SWAP1 DIV PUSH1 0xFF AND SWAP1 POP SWAP2 SWAP1 POP JUMP JUMPDEST PUSH1 0x0 PUSH1 0x5 PUSH1 0x0 DUP4 DUP2 MSTORE PUSH1 0x20 ADD SWAP1 DUP2 MSTORE PUSH1 0x20 ADD PUSH1 0x0 KECCAK256 PUSH1 0x0 ADD PUSH1 0x0 SWAP1 SLOAD SWAP1 PUSH2 0x100 EXP SWAP1 DIV PUSH20 0xFFFFFFFFFFFFFFFFFFFFFFFFFFFFFFFFFFFFFFFF AND SWAP1 POP SWAP2 SWAP1 POP JUMP JUMPDEST PUSH1 0x6 SLOAD DUP2 JUMP JUMPDEST PUSH1 0x0 PUSH1 0x9 PUSH1 0x0 DUP4 DUP2 MSTORE PUSH1 0x20 ADD SWAP1 DUP2 MSTORE PUSH1 0x20 ADD PUSH1 0x0 KECCAK256 PUSH1 0x0 ADD PUSH1 0x0 SWAP1 SLOAD SWAP1 PUSH2 0x100 EXP SWAP1 DIV PUSH20 0xFFFFFFFFFFFFFFFFFFFFFFFFFFFFFFFFFFFFFFFF AND SWAP1 POP SWAP2 SWAP1 POP JUMP JUMPDEST PUSH1 0x0 DUP2 LT ISZERO PUSH2 0x9B4 JUMPI PUSH1 0x40 MLOAD PUSH32 0x8C379A000000000000000000000000000000000000000000000000000000000 DUP2 MSTORE PUSH1 0x4 ADD PUSH2 0x9AB SWAP1 PUSH2 0x1615 JUMP JUMPDEST PUSH1 0x40 MLOAD DUP1 SWAP2 SUB SWAP1 REVERT JUMPDEST DUP1 CALLVALUE LT ISZERO PUSH2 0x9F7 JUMPI PUSH1 0x40 MLOAD PUSH32 0x8C379A000000000000000000000000000000000000000000000000000000000 DUP2 MSTORE PUSH1 0x4 ADD PUSH2 0x9EE SWAP1 PUSH2 0x1681 JUMP JUMPDEST PUSH1 0x40 MLOAD DUP1 SWAP2 SUB SWAP1 REVERT JUMPDEST PUSH1 0x0 TIMESTAMP SWAP1 POP PUSH1 0x0 PUSH1 0x64 PUSH1 0x4 SLOAD PUSH1 0x64 PUSH2 0xA0F SWAP2 SWAP1 PUSH2 0x16D0 JUMP JUMPDEST CALLVALUE PUSH2 0xA1A SWAP2 SWAP1 PUSH2 0x1704 JUMP JUMPDEST PUSH2 0xA24 SWAP2 SWAP1 PUSH2 0x178D JUMP JUMPDEST SWAP1 POP PUSH1 0x3 PUSH1 0x0 SWAP1 SLOAD SWAP1 PUSH2 0x100 EXP SWAP1 DIV PUSH20 0xFFFFFFFFFFFFFFFFFFFFFFFFFFFFFFFFFFFFFFFF AND PUSH20 0xFFFFFFFFFFFFFFFFFFFFFFFFFFFFFFFFFFFFFFFF AND PUSH2 0x8FC DUP3 SWAP1 DUP2 ISZERO MUL SWAP1 PUSH1 0x40 MLOAD PUSH1 0x0 PUSH1 0x40 MLOAD DUP1 DUP4 SUB DUP2 DUP6 DUP9 DUP9 CALL SWAP4 POP POP POP POP ISZERO DUP1 ISZERO PUSH2 0xA8E JUMPI RETURNDATASIZE PUSH1 0x0 DUP1 RETURNDATACOPY RETURNDATASIZE PUSH1 0x0 REVERT JUMPDEST POP PUSH32 0xC2125A7F3EDFEFF7A3BBCFE393C5AA3A6589585D4A7EE70DB48C34F67C8209E2 CALLER DUP3 DUP5 PUSH1 0x0 PUSH1 0x40 MLOAD PUSH2 0xAC5 SWAP5 SWAP4 SWAP3 SWAP2 SWAP1 PUSH2 0x17DF JUMP JUMPDEST PUSH1 0x40 MLOAD DUP1 SWAP2 SUB SWAP1 LOG1 POP POP POP JUMP JUMPDEST PUSH1 0x7 SLOAD DUP2 JUMP JUMPDEST PUSH1 0xA SLOAD DUP2 JUMP JUMPDEST PUSH1 0x5 PUSH1 0x0 DUP3 DUP2 MSTORE PUSH1 0x20 ADD SWAP1 DUP2 MSTORE PUSH1 0x20 ADD PUSH1 0x0 KECCAK256 PUSH1 0x40 MLOAD DUP1 PUSH2 0x100 ADD PUSH1 0x40 MSTORE SWAP1 DUP2 PUSH1 0x0 DUP3 ADD PUSH1 0x0 SWAP1 SLOAD SWAP1 PUSH2 0x100 EXP SWAP1 DIV PUSH20 0xFFFFFFFFFFFFFFFFFFFFFFFFFFFFFFFFFFFFFFFF AND PUSH20 0xFFFFFFFFFFFFFFFFFFFFFFFFFFFFFFFFFFFFFFFF AND PUSH20 0xFFFFFFFFFFFFFFFFFFFFFFFFFFFFFFFFFFFFFFFF AND DUP2 MSTORE PUSH1 0x20 ADD PUSH1 0x1 DUP3 ADD SLOAD DUP2 MSTORE PUSH1 0x20 ADD PUSH1 0x2 DUP3 ADD SLOAD DUP2 MSTORE PUSH1 0x20 ADD PUSH1 0x3 DUP3 ADD PUSH1 0x0 SWAP1 SLOAD SWAP1 PUSH2 0x100 EXP SWAP1 DIV PUSH1 0xFF AND PUSH1 0x1 DUP2 GT ISZERO PUSH2 0xB8C JUMPI PUSH2 0xB8B PUSH2 0x12B2 JUMP JUMPDEST JUMPDEST PUSH1 0x1 DUP2 GT ISZERO PUSH2 0xB9E JUMPI PUSH2 0xB9D PUSH2 0x12B2 JUMP JUMPDEST JUMPDEST DUP2 MSTORE PUSH1 0x20 ADD PUSH1 0x4 DUP3 ADD SLOAD DUP2 MSTORE PUSH1 0x20 ADD PUSH1 0x5 DUP3 ADD SLOAD DUP2 MSTORE PUSH1 0x20 ADD PUSH1 0x6 DUP3 ADD SLOAD DUP2 MSTORE PUSH1 0x20 ADD PUSH1 0x7 DUP3 ADD PUSH1 0x0 SWAP1 SLOAD SWAP1 PUSH2 0x100 EXP SWAP1 DIV PUSH1 0xFF AND ISZERO ISZERO ISZERO ISZERO DUP2 MSTORE POP POP PUSH1 0x0 PUSH1 0x1 DUP2 GT ISZERO PUSH2 0xBEF JUMPI PUSH2 0xBEE PUSH2 0x12B2 JUMP JUMPDEST JUMPDEST DUP2 PUSH1 0x60 ADD MLOAD PUSH1 0x1 DUP2 GT ISZERO PUSH2 0xC06 JUMPI PUSH2 0xC05 PUSH2 0x12B2 JUMP JUMPDEST JUMPDEST EQ PUSH2 0xC46 JUMPI PUSH1 0x40 MLOAD PUSH32 0x8C379A000000000000000000000000000000000000000000000000000000000 DUP2 MSTORE PUSH1 0x4 ADD PUSH2 0xC3D SWAP1 PUSH2 0x153D JUMP JUMPDEST PUSH1 0x40 MLOAD DUP1 SWAP2 SUB SWAP1 REVERT JUMPDEST PUSH1 0x5 PUSH1 0x0 DUP4 DUP2 MSTORE PUSH1 0x20 ADD SWAP1 DUP2 MSTORE PUSH1 0x20 ADD PUSH1 0x0 KECCAK256 PUSH1 0x40 MLOAD DUP1 PUSH2 0x100 ADD PUSH1 0x40 MSTORE SWAP1 DUP2 PUSH1 0x0 DUP3 ADD PUSH1 0x0 SWAP1 SLOAD SWAP1 PUSH2 0x100 EXP SWAP1 DIV PUSH20 0xFFFFFFFFFFFFFFFFFFFFFFFFFFFFFFFFFFFFFFFF AND PUSH20 0xFFFFFFFFFFFFFFFFFFFFFFFFFFFFFFFFFFFFFFFF AND PUSH20 0xFFFFFFFFFFFFFFFFFFFFFFFFFFFFFFFFFFFFFFFF AND DUP2 MSTORE PUSH1 0x20 ADD PUSH1 0x1 DUP3 ADD SLOAD DUP2 MSTORE PUSH1 0x20 ADD PUSH1 0x2 DUP3 ADD SLOAD DUP2 MSTORE PUSH1 0x20 ADD PUSH1 0x3 DUP3 ADD PUSH1 0x0 SWAP1 SLOAD SWAP1 PUSH2 0x100 EXP SWAP1 DIV PUSH1 0xFF AND PUSH1 0x1 DUP2 GT ISZERO PUSH2 0xCF4 JUMPI PUSH2 0xCF3 PUSH2 0x12B2 JUMP JUMPDEST JUMPDEST PUSH1 0x1 DUP2 GT ISZERO PUSH2 0xD06 JUMPI PUSH2 0xD05 PUSH2 0x12B2 JUMP JUMPDEST JUMPDEST DUP2 MSTORE PUSH1 0x20 ADD PUSH1 0x4 DUP3 ADD SLOAD DUP2 MSTORE PUSH1 0x20 ADD PUSH1 0x5 DUP3 ADD SLOAD DUP2 MSTORE PUSH1 0x20 ADD PUSH1 0x6 DUP3 ADD SLOAD DUP2 MSTORE PUSH1 0x20 ADD PUSH1 0x7 DUP3 ADD PUSH1 0x0 SWAP1 SLOAD SWAP1 PUSH2 0x100 EXP SWAP1 DIV PUSH1 0xFF AND ISZERO ISZERO ISZERO ISZERO DUP2 MSTORE POP POP CALLER DUP1 PUSH20 0xFFFFFFFFFFFFFFFFFFFFFFFFFFFFFFFFFFFFFFFF AND DUP3 PUSH1 0x0 ADD MLOAD PUSH20 0xFFFFFFFFFFFFFFFFFFFFFFFFFFFFFFFFFFFFFFFF AND EQ PUSH2 0xDB6 JUMPI PUSH1 0x40 MLOAD PUSH32 0x8C379A000000000000000000000000000000000000000000000000000000000 DUP2 MSTORE PUSH1 0x4 ADD PUSH2 0xDAD SWAP1 PUSH2 0x15A9 JUMP JUMPDEST PUSH1 0x40 MLOAD DUP1 SWAP2 SUB SWAP1 REVERT JUMPDEST PUSH1 0x5 PUSH1 0x0 DUP6 DUP2 MSTORE PUSH1 0x20 ADD SWAP1 DUP2 MSTORE PUSH1 0x20 ADD PUSH1 0x0 KECCAK256 PUSH1 0x0 ADD PUSH1 0x0 SWAP1 SLOAD SWAP1 PUSH2 0x100 EXP SWAP1 DIV PUSH20 0xFFFFFFFFFFFFFFFFFFFFFFFFFFFFFFFFFFFFFFFF AND PUSH20 0xFFFFFFFFFFFFFFFFFFFFFFFFFFFFFFFFFFFFFFFF AND PUSH2 0x8FC PUSH1 0x5 PUSH1 0x0 DUP8 DUP2 MSTORE PUSH1 0x20 ADD SWAP1 DUP2 MSTORE PUSH1 0x20 ADD PUSH1 0x0 KECCAK256 PUSH1 0x1 ADD SLOAD SWAP1 DUP2 ISZERO MUL SWAP1 PUSH1 0x40 MLOAD PUSH1 0x0 PUSH1 0x40 MLOAD DUP1 DUP4 SUB DUP2 DUP6 DUP9 DUP9 CALL SWAP4 POP POP POP POP ISZERO DUP1 ISZERO PUSH2 0xE48 JUMPI RETURNDATASIZE PUSH1 0x0 DUP1 RETURNDATACOPY RETURNDATASIZE PUSH1 0x0 REVERT JUMPDEST POP PUSH1 0x5 PUSH1 0x0 DUP6 DUP2 MSTORE PUSH1 0x20 ADD SWAP1 DUP2 MSTORE PUSH1 0x20 ADD PUSH1 0x0 KECCAK256 PUSH1 0x0 DUP1 DUP3 ADD PUSH1 0x0 PUSH2 0x100 EXP DUP2 SLOAD SWAP1 PUSH20 0xFFFFFFFFFFFFFFFFFFFFFFFFFFFFFFFFFFFFFFFF MUL NOT AND SWAP1 SSTORE PUSH1 0x1 DUP3 ADD PUSH1 0x0 SWAP1 SSTORE PUSH1 0x2 DUP3 ADD PUSH1 0x0 SWAP1 SSTORE PUSH1 0x3 DUP3 ADD PUSH1 0x0 PUSH2 0x100 EXP DUP2 SLOAD SWAP1 PUSH1 0xFF MUL NOT AND SWAP1 SSTORE PUSH1 0x4 DUP3 ADD PUSH1 0x0 SWAP1 SSTORE PUSH1 0x5 DUP3 ADD PUSH1 0x0 SWAP1 SSTORE PUSH1 0x6 DUP3 ADD PUSH1 0x0 SWAP1 SSTORE PUSH1 0x7 DUP3 ADD PUSH1 0x0 PUSH2 0x100 EXP DUP2 SLOAD SWAP1 PUSH1 0xFF MUL NOT AND SWAP1 SSTORE POP POP PUSH32 0xC845A6832AFA0A4048DD70BBBA2186093508A6B63A8D5D70A508F819FEF257F8 DUP5 PUSH1 0x40 MLOAD PUSH2 0xF05 SWAP2 SWAP1 PUSH2 0x122A JUMP JUMPDEST PUSH1 0x40 MLOAD DUP1 SWAP2 SUB SWAP1 LOG1 POP POP POP POP JUMP JUMPDEST PUSH1 0x0 DUP2 LT ISZERO PUSH2 0xF57 JUMPI PUSH1 0x40 MLOAD PUSH32 0x8C379A000000000000000000000000000000000000000000000000000000000 DUP2 MSTORE PUSH1 0x4 ADD PUSH2 0xF4E SWAP1 PUSH2 0x1615 JUMP JUMPDEST PUSH1 0x40 MLOAD DUP1 SWAP2 SUB SWAP1 REVERT JUMPDEST DUP1 CALLVALUE LT ISZERO PUSH2 0xF9A JUMPI PUSH1 0x40 MLOAD PUSH32 0x8C379A000000000000000000000000000000000000000000000000000000000 DUP2 MSTORE PUSH1 0x4 ADD PUSH2 0xF91 SWAP1 PUSH2 0x1870 JUMP JUMPDEST PUSH1 0x40 MLOAD DUP1 SWAP2 SUB SWAP1 REVERT JUMPDEST PUSH1 0x0 TIMESTAMP SWAP1 POP PUSH1 0x0 PUSH1 0x64 PUSH1 0x4 SLOAD PUSH1 0x64 PUSH2 0xFB2 SWAP2 SWAP1 PUSH2 0x16D0 JUMP JUMPDEST CALLVALUE PUSH2 0xFBD SWAP2 SWAP1 PUSH2 0x1704 JUMP JUMPDEST PUSH2 0xFC7 SWAP2 SWAP1 PUSH2 0x178D JUMP JUMPDEST SWAP1 POP PUSH1 0x3 PUSH1 0x0 SWAP1 SLOAD SWAP1 PUSH2 0x100 EXP SWAP1 DIV PUSH20 0xFFFFFFFFFFFFFFFFFFFFFFFFFFFFFFFFFFFFFFFF AND PUSH20 0xFFFFFFFFFFFFFFFFFFFFFFFFFFFFFFFFFFFFFFFF AND PUSH2 0x8FC DUP3 SWAP1 DUP2 ISZERO MUL SWAP1 PUSH1 0x40 MLOAD PUSH1 0x0 PUSH1 0x40 MLOAD DUP1 DUP4 SUB DUP2 DUP6 DUP9 DUP9 CALL SWAP4 POP POP POP POP ISZERO DUP1 ISZERO PUSH2 0x1031 JUMPI RETURNDATASIZE PUSH1 0x0 DUP1 RETURNDATACOPY RETURNDATASIZE PUSH1 0x0 REVERT JUMPDEST POP PUSH32 0xA64806D6D5D480697A0B11C92B915A4FF7B93C0BE28171D65D30041A0C360D04 CALLER DUP3 DUP5 PUSH1 0x0 PUSH1 0x40 MLOAD PUSH2 0x1068 SWAP5 SWAP4 SWAP3 SWAP2 SWAP1 PUSH2 0x17DF JUMP JUMPDEST PUSH1 0x40 MLOAD DUP1 SWAP2 SUB SWAP1 LOG1 POP POP POP JUMP JUMPDEST PUSH1 0xB SLOAD DUP2 JUMP JUMPDEST PUSH1 0x8 SLOAD DUP2 JUMP JUMPDEST PUSH1 0x0 PUSH1 0x5 PUSH1 0x0 DUP4 DUP2 MSTORE PUSH1 0x20 ADD SWAP1 DUP2 MSTORE PUSH1 0x20 ADD PUSH1 0x0 KECCAK256 PUSH1 0x3 ADD PUSH1 0x0 SWAP1 SLOAD SWAP1 PUSH2 0x100 EXP SWAP1 DIV PUSH1 0xFF AND SWAP1 POP SWAP2 SWAP1 POP JUMP JUMPDEST PUSH1 0x60 SWAP1 JUMP JUMPDEST PUSH1 0x0 PUSH1 0x9 PUSH1 0x0 DUP4 DUP2 MSTORE PUSH1 0x20 ADD SWAP1 DUP2 MSTORE PUSH1 0x20 ADD PUSH1 0x0 KECCAK256 PUSH1 0x1 ADD SLOAD SWAP1 POP SWAP2 SWAP1 POP JUMP JUMPDEST PUSH1 0x0 DUP2 MLOAD SWAP1 POP SWAP2 SWAP1 POP JUMP JUMPDEST PUSH1 0x0 DUP3 DUP3 MSTORE PUSH1 0x20 DUP3 ADD SWAP1 POP SWAP3 SWAP2 POP POP JUMP JUMPDEST PUSH1 0x0 DUP2 SWAP1 POP PUSH1 0x20 DUP3 ADD SWAP1 POP SWAP2 SWAP1 POP JUMP JUMPDEST PUSH1 0x0 DUP2 SWAP1 POP SWAP2 SWAP1 POP JUMP JUMPDEST PUSH2 0x1112 DUP2 PUSH2 0x10FF JUMP JUMPDEST DUP3 MSTORE POP POP JUMP JUMPDEST PUSH1 0x0 PUSH2 0x1124 DUP4 DUP4 PUSH2 0x1109 JUMP JUMPDEST PUSH1 0x20 DUP4 ADD SWAP1 POP SWAP3 SWAP2 POP POP JUMP JUMPDEST PUSH1 0x0 PUSH1 0x20 DUP3 ADD SWAP1 POP SWAP2 SWAP1 POP JUMP JUMPDEST PUSH1 0x0 PUSH2 0x1148 DUP3 PUSH2 0x10D3 JUMP JUMPDEST PUSH2 0x1152 DUP2 DUP6 PUSH2 0x10DE JUMP JUMPDEST SWAP4 POP PUSH2 0x115D DUP4 PUSH2 0x10EF JUMP JUMPDEST DUP1 PUSH1 0x0 JUMPDEST DUP4 DUP2 LT ISZERO PUSH2 0x118E JUMPI DUP2 MLOAD PUSH2 0x1175 DUP9 DUP3 PUSH2 0x1118 JUMP JUMPDEST SWAP8 POP PUSH2 0x1180 DUP4 PUSH2 0x1130 JUMP JUMPDEST SWAP3 POP POP PUSH1 0x1 DUP2 ADD SWAP1 POP PUSH2 0x1161 JUMP JUMPDEST POP DUP6 SWAP4 POP POP POP POP SWAP3 SWAP2 POP POP JUMP JUMPDEST PUSH1 0x0 PUSH1 0x20 DUP3 ADD SWAP1 POP DUP2 DUP2 SUB PUSH1 0x0 DUP4 ADD MSTORE PUSH2 0x11B5 DUP2 DUP5 PUSH2 0x113D JUMP JUMPDEST SWAP1 POP SWAP3 SWAP2 POP POP JUMP JUMPDEST PUSH1 0x0 DUP1 REVERT JUMPDEST PUSH2 0x11CB DUP2 PUSH2 0x10FF JUMP JUMPDEST DUP2 EQ PUSH2 0x11D6 JUMPI PUSH1 0x0 DUP1 REVERT JUMPDEST POP JUMP JUMPDEST PUSH1 0x0 DUP2 CALLDATALOAD SWAP1 POP PUSH2 0x11E8 DUP2 PUSH2 0x11C2 JUMP JUMPDEST SWAP3 SWAP2 POP POP JUMP JUMPDEST PUSH1 0x0 PUSH1 0x20 DUP3 DUP5 SUB SLT ISZERO PUSH2 0x1204 JUMPI PUSH2 0x1203 PUSH2 0x11BD JUMP JUMPDEST JUMPDEST PUSH1 0x0 PUSH2 0x1212 DUP5 DUP3 DUP6 ADD PUSH2 0x11D9 JUMP JUMPDEST SWAP2 POP POP SWAP3 SWAP2 POP POP JUMP JUMPDEST PUSH2 0x1224 DUP2 PUSH2 0x10FF JUMP JUMPDEST DUP3 MSTORE POP POP JUMP JUMPDEST PUSH1 0x0 PUSH1 0x20 DUP3 ADD SWAP1 POP PUSH2 0x123F PUSH1 0x0 DUP4 ADD DUP5 PUSH2 0x121B JUMP JUMPDEST SWAP3 SWAP2 POP POP JUMP JUMPDEST PUSH1 0x0 DUP2 MLOAD SWAP1 POP SWAP2 SWAP1 POP JUMP JUMPDEST PUSH1 0x0 DUP3 DUP3 MSTORE PUSH1 0x20 DUP3 ADD SWAP1 POP SWAP3 SWAP2 POP POP JUMP JUMPDEST PUSH1 0x0 DUP2 SWAP1 POP PUSH1 0x20 DUP3 ADD SWAP1 POP SWAP2 SWAP1 POP JUMP JUMPDEST PUSH1 0x0 PUSH20 0xFFFFFFFFFFFFFFFFFFFFFFFFFFFFFFFFFFFFFFFF DUP3 AND SWAP1 POP SWAP2 SWAP1 POP JUMP JUMPDEST PUSH1 0x0 PUSH2 0x129C DUP3 PUSH2 0x1271 JUMP JUMPDEST SWAP1 POP SWAP2 SWAP1 POP JUMP JUMPDEST PUSH2 0x12AC DUP2 PUSH2 0x1291 JUMP JUMPDEST DUP3 MSTORE POP POP JUMP JUMPDEST PUSH32 0x4E487B7100000000000000000000000000000000000000000000000000000000 PUSH1 0x0 MSTORE PUSH1 0x21 PUSH1 0x4 MSTORE PUSH1 0x24 PUSH1 0x0 REVERT JUMPDEST PUSH1 0x2 DUP2 LT PUSH2 0x12F2 JUMPI PUSH2 0x12F1 PUSH2 0x12B2 JUMP JUMPDEST JUMPDEST POP JUMP JUMPDEST PUSH1 0x0 DUP2 SWAP1 POP PUSH2 0x1303 DUP3 PUSH2 0x12E1 JUMP JUMPDEST SWAP2 SWAP1 POP JUMP JUMPDEST PUSH1 0x0 PUSH2 0x1313 DUP3 PUSH2 0x12F5 JUMP JUMPDEST SWAP1 POP SWAP2 SWAP1 POP JUMP JUMPDEST PUSH2 0x1323 DUP2 PUSH2 0x1308 JUMP JUMPDEST DUP3 MSTORE POP POP JUMP JUMPDEST PUSH1 0x0 DUP2 ISZERO ISZERO SWAP1 POP SWAP2 SWAP1 POP JUMP JUMPDEST PUSH2 0x133E DUP2 PUSH2 0x1329 JUMP JUMPDEST DUP3 MSTORE POP POP JUMP JUMPDEST PUSH2 0x100 DUP3 ADD PUSH1 0x0 DUP3 ADD MLOAD PUSH2 0x135B PUSH1 0x0 DUP6 ADD DUP3 PUSH2 0x12A3 JUMP JUMPDEST POP PUSH1 0x20 DUP3 ADD MLOAD PUSH2 0x136E PUSH1 0x20 DUP6 ADD DUP3 PUSH2 0x1109 JUMP JUMPDEST POP PUSH1 0x40 DUP3 ADD MLOAD PUSH2 0x1381 PUSH1 0x40 DUP6 ADD DUP3 PUSH2 0x1109 JUMP JUMPDEST POP PUSH1 0x60 DUP3 ADD MLOAD PUSH2 0x1394 PUSH1 0x60 DUP6 ADD DUP3 PUSH2 0x131A JUMP JUMPDEST POP PUSH1 0x80 DUP3 ADD MLOAD PUSH2 0x13A7 PUSH1 0x80 DUP6 ADD DUP3 PUSH2 0x1109 JUMP JUMPDEST POP PUSH1 0xA0 DUP3 ADD MLOAD PUSH2 0x13BA PUSH1 0xA0 DUP6 ADD DUP3 PUSH2 0x1109 JUMP JUMPDEST POP PUSH1 0xC0 DUP3 ADD MLOAD PUSH2 0x13CD PUSH1 0xC0 DUP6 ADD DUP3 PUSH2 0x1109 JUMP JUMPDEST POP PUSH1 0xE0 DUP3 ADD MLOAD PUSH2 0x13E0 PUSH1 0xE0 DUP6 ADD DUP3 PUSH2 0x1335 JUMP JUMPDEST POP POP POP POP JUMP JUMPDEST PUSH1 0x0 PUSH2 0x13F2 DUP4 DUP4 PUSH2 0x1344 JUMP JUMPDEST PUSH2 0x100 DUP4 ADD SWAP1 POP SWAP3 SWAP2 POP POP JUMP JUMPDEST PUSH1 0x0 PUSH1 0x20 DUP3 ADD SWAP1 POP SWAP2 SWAP1 POP JUMP JUMPDEST PUSH1 0x0 PUSH2 0x1417 DUP3 PUSH2 0x1245 JUMP JUMPDEST PUSH2 0x1421 DUP2 DUP6 PUSH2 0x1250 JUMP JUMPDEST SWAP4 POP PUSH2 0x142C DUP4 PUSH2 0x1261 JUMP JUMPDEST DUP1 PUSH1 0x0 JUMPDEST DUP4 DUP2 LT ISZERO PUSH2 0x145D JUMPI DUP2 MLOAD PUSH2 0x1444 DUP9 DUP3 PUSH2 0x13E6 JUMP JUMPDEST SWAP8 POP PUSH2 0x144F DUP4 PUSH2 0x13FF JUMP JUMPDEST SWAP3 POP POP PUSH1 0x1 DUP2 ADD SWAP1 POP PUSH2 0x1430 JUMP JUMPDEST POP DUP6 SWAP4 POP POP POP POP SWAP3 SWAP2 POP POP JUMP JUMPDEST PUSH1 0x0 PUSH1 0x20 DUP3 ADD SWAP1 POP DUP2 DUP2 SUB PUSH1 0x0 DUP4 ADD MSTORE PUSH2 0x1484 DUP2 DUP5 PUSH2 0x140C JUMP JUMPDEST SWAP1 POP SWAP3 SWAP2 POP POP JUMP JUMPDEST PUSH2 0x1495 DUP2 PUSH2 0x1308 JUMP JUMPDEST DUP3 MSTORE POP POP JUMP JUMPDEST PUSH1 0x0 PUSH1 0x20 DUP3 ADD SWAP1 POP PUSH2 0x14B0 PUSH1 0x0 DUP4 ADD DUP5 PUSH2 0x148C JUMP JUMPDEST SWAP3 SWAP2 POP POP JUMP JUMPDEST PUSH2 0x14BF DUP2 PUSH2 0x1291 JUMP JUMPDEST DUP3 MSTORE POP POP JUMP JUMPDEST PUSH1 0x0 PUSH1 0x20 DUP3 ADD SWAP1 POP PUSH2 0x14DA PUSH1 0x0 DUP4 ADD DUP5 PUSH2 0x14B6 JUMP JUMPDEST SWAP3 SWAP2 POP POP JUMP JUMPDEST PUSH1 0x0 DUP3 DUP3 MSTORE PUSH1 0x20 DUP3 ADD SWAP1 POP SWAP3 SWAP2 POP POP JUMP JUMPDEST PUSH32 0x4F726465722050656E64696E6700000000000000000000000000000000000000 PUSH1 0x0 DUP3 ADD MSTORE POP JUMP JUMPDEST PUSH1 0x0 PUSH2 0x1527 PUSH1 0xD DUP4 PUSH2 0x14E0 JUMP JUMPDEST SWAP2 POP PUSH2 0x1532 DUP3 PUSH2 0x14F1 JUMP JUMPDEST PUSH1 0x20 DUP3 ADD SWAP1 POP SWAP2 SWAP1 POP JUMP JUMPDEST PUSH1 0x0 PUSH1 0x20 DUP3 ADD SWAP1 POP DUP2 DUP2 SUB PUSH1 0x0 DUP4 ADD MSTORE PUSH2 0x1556 DUP2 PUSH2 0x151A JUMP JUMPDEST SWAP1 POP SWAP2 SWAP1 POP JUMP JUMPDEST PUSH32 0x4E6F7420417574686F7269736564000000000000000000000000000000000000 PUSH1 0x0 DUP3 ADD MSTORE POP JUMP JUMPDEST PUSH1 0x0 PUSH2 0x1593 PUSH1 0xE DUP4 PUSH2 0x14E0 JUMP JUMPDEST SWAP2 POP PUSH2 0x159E DUP3 PUSH2 0x155D JUMP JUMPDEST PUSH1 0x20 DUP3 ADD SWAP1 POP SWAP2 SWAP1 POP JUMP JUMPDEST PUSH1 0x0 PUSH1 0x20 DUP3 ADD SWAP1 POP DUP2 DUP2 SUB PUSH1 0x0 DUP4 ADD MSTORE PUSH2 0x15C2 DUP2 PUSH2 0x1586 JUMP JUMPDEST SWAP1 POP SWAP2 SWAP1 POP JUMP JUMPDEST PUSH32 0x70726963652076616C7565206D757374206265206D6F7265207468616E203000 PUSH1 0x0 DUP3 ADD MSTORE POP JUMP JUMPDEST PUSH1 0x0 PUSH2 0x15FF PUSH1 0x1F DUP4 PUSH2 0x14E0 JUMP JUMPDEST SWAP2 POP PUSH2 0x160A DUP3 PUSH2 0x15C9 JUMP JUMPDEST PUSH1 0x20 DUP3 ADD SWAP1 POP SWAP2 SWAP1 POP JUMP JUMPDEST PUSH1 0x0 PUSH1 0x20 DUP3 ADD SWAP1 POP DUP2 DUP2 SUB PUSH1 0x0 DUP4 ADD MSTORE PUSH2 0x162E DUP2 PUSH2 0x15F2 JUMP JUMPDEST SWAP1 POP SWAP2 SWAP1 POP JUMP JUMPDEST PUSH32 0x4E6F7420656E6F75676820626C616E636520746F20706C6163652061736B0000 PUSH1 0x0 DUP3 ADD MSTORE POP JUMP JUMPDEST PUSH1 0x0 PUSH2 0x166B PUSH1 0x1E DUP4 PUSH2 0x14E0 JUMP JUMPDEST SWAP2 POP PUSH2 0x1676 DUP3 PUSH2 0x1635 JUMP JUMPDEST PUSH1 0x20 DUP3 ADD SWAP1 POP SWAP2 SWAP1 POP JUMP JUMPDEST PUSH1 0x0 PUSH1 0x20 DUP3 ADD SWAP1 POP DUP2 DUP2 SUB PUSH1 0x0 DUP4 ADD MSTORE PUSH2 0x169A DUP2 PUSH2 0x165E JUMP JUMPDEST SWAP1 POP SWAP2 SWAP1 POP JUMP JUMPDEST PUSH32 0x4E487B7100000000000000000000000000000000000000000000000000000000 PUSH1 0x0 MSTORE PUSH1 0x11 PUSH1 0x4 MSTORE PUSH1 0x24 PUSH1 0x0 REVERT JUMPDEST PUSH1 0x0 PUSH2 0x16DB DUP3 PUSH2 0x10FF JUMP JUMPDEST SWAP2 POP PUSH2 0x16E6 DUP4 PUSH2 0x10FF JUMP JUMPDEST SWAP3 POP DUP3 DUP3 LT ISZERO PUSH2 0x16F9 JUMPI PUSH2 0x16F8 PUSH2 0x16A1 JUMP JUMPDEST JUMPDEST DUP3 DUP3 SUB SWAP1 POP SWAP3 SWAP2 POP POP JUMP JUMPDEST PUSH1 0x0 PUSH2 0x170F DUP3 PUSH2 0x10FF JUMP JUMPDEST SWAP2 POP PUSH2 0x171A DUP4 PUSH2 0x10FF JUMP JUMPDEST SWAP3 POP DUP2 PUSH32 0xFFFFFFFFFFFFFFFFFFFFFFFFFFFFFFFFFFFFFFFFFFFFFFFFFFFFFFFFFFFFFFFF DIV DUP4 GT DUP3 ISZERO ISZERO AND ISZERO PUSH2 0x1753 JUMPI PUSH2 0x1752 PUSH2 0x16A1 JUMP JUMPDEST JUMPDEST DUP3 DUP3 MUL SWAP1 POP SWAP3 SWAP2 POP POP JUMP JUMPDEST PUSH32 0x4E487B7100000000000000000000000000000000000000000000000000000000 PUSH1 0x0 MSTORE PUSH1 0x12 PUSH1 0x4 MSTORE PUSH1 0x24 PUSH1 0x0 REVERT JUMPDEST PUSH1 0x0 PUSH2 0x1798 DUP3 PUSH2 0x10FF JUMP JUMPDEST SWAP2 POP PUSH2 0x17A3 DUP4 PUSH2 0x10FF JUMP JUMPDEST SWAP3 POP DUP3 PUSH2 0x17B3 JUMPI PUSH2 0x17B2 PUSH2 0x175E JUMP JUMPDEST JUMPDEST DUP3 DUP3 DIV SWAP1 POP SWAP3 SWAP2 POP POP JUMP JUMPDEST PUSH1 0x0 PUSH2 0x17C9 DUP3 PUSH2 0x1271 JUMP JUMPDEST SWAP1 POP SWAP2 SWAP1 POP JUMP JUMPDEST PUSH2 0x17D9 DUP2 PUSH2 0x17BE JUMP JUMPDEST DUP3 MSTORE POP POP JUMP JUMPDEST PUSH1 0x0 PUSH1 0x80 DUP3 ADD SWAP1 POP PUSH2 0x17F4 PUSH1 0x0 DUP4 ADD DUP8 PUSH2 0x17D0 JUMP JUMPDEST PUSH2 0x1801 PUSH1 0x20 DUP4 ADD DUP7 PUSH2 0x121B JUMP JUMPDEST PUSH2 0x180E PUSH1 0x40 DUP4 ADD DUP6 PUSH2 0x121B JUMP JUMPDEST PUSH2 0x181B PUSH1 0x60 DUP4 ADD DUP5 PUSH2 0x148C JUMP JUMPDEST SWAP6 SWAP5 POP POP POP POP POP JUMP JUMPDEST PUSH32 0x4E6F7420656E6F75676820626C616E636520746F20706C616365206269640000 PUSH1 0x0 DUP3 ADD MSTORE POP JUMP JUMPDEST PUSH1 0x0 PUSH2 0x185A PUSH1 0x1E DUP4 PUSH2 0x14E0 JUMP JUMPDEST SWAP2 POP PUSH2 0x1865 DUP3 PUSH2 0x1824 JUMP JUMPDEST PUSH1 0x20 DUP3 ADD SWAP1 POP SWAP2 SWAP1 POP JUMP JUMPDEST PUSH1 0x0 PUSH1 0x20 DUP3 ADD SWAP1 POP DUP2 DUP2 SUB PUSH1 0x0 DUP4 ADD MSTORE PUSH2 0x1889 DUP2 PUSH2 0x184D JUMP JUMPDEST SWAP1 POP SWAP2 SWAP1 POP JUMP INVALID LOG2 PUSH5 0x6970667358 0x22 SLT KECCAK256 SSTORE 0x28 0xF7 INVALID 0xEA SDIV SLT RETURN CALLDATALOAD PC 0xAF 0xE3 0x22 0x5F SWAP14 SWAP14 0xC6 PUSH20 0xF552E79CA85A7DC7EA397043472F64736F6C6343 STOP ADDMOD 0xD STOP CALLER "
				},
				"gasEstimates": {
					"creation": {
						"codeDepositCost": "1268400",
						"executionCost": "infinite",
						"totalCost": "infinite"
					},
					"external": {
						"askCount()": "2451",
						"askHead()": "2474",
						"bidCount()": "2473",
						"bidHead()": "2496",
						"bidTail()": "2452",
						"cancelAsk(uint256)": "infinite",
						"cancelBid(uint256)": "infinite",
						"fetchAllBid()": "infinite",
						"fetchYourAskIds()": "infinite",
						"fetchYourBidIds()": "infinite",
						"getAskAddress(uint256)": "2960",
						"getAskState(uint256)": "2940",
						"getAskValue(uint256)": "infinite",
						"getBidAddress(uint256)": "2916",
						"getBidState(uint256)": "2983",
						"getBidValue(uint256)": "infinite",
						"placeAsk(uint256)": "infinite",
						"placeBid(uint256)": "infinite"
					}
				},
				"methodIdentifiers": {
					"askCount()": "a394fda7",
					"askHead()": "801d9bbd",
					"bidCount()": "b40a5627",
					"bidHead()": "6e5b0f00",
					"bidTail()": "7bb51193",
					"cancelAsk(uint256)": "1628e0f5",
					"cancelBid(uint256)": "9703ef35",
					"fetchAllBid()": "4471417f",
					"fetchYourAskIds()": "122de8f2",
					"fetchYourBidIds()": "ce0cdc87",
					"getAskAddress(uint256)": "734a2e78",
					"getAskState(uint256)": "4d46712d",
					"getAskValue(uint256)": "db3a1396",
					"getBidAddress(uint256)": "69f632e2",
					"getBidState(uint256)": "bf77ffae",
					"getBidValue(uint256)": "2db6dfa7",
					"placeAsk(uint256)": "78c5b268",
					"placeBid(uint256)": "9979ef45"
				}
			},
			"storageLayout": {
				"storage": [
					{
						"astId": 9,
						"contract": "contracts/OrderBook.sol:OrderBook",
						"label": "list",
						"offset": 0,
						"slot": "0",
						"type": "t_struct(List)453_storage"
					},
					{
						"astId": 16,
						"contract": "contracts/OrderBook.sol:OrderBook",
						"label": "bidValues",
						"offset": 0,
						"slot": "2",
						"type": "t_mapping(t_uint256,t_uint256)"
					},
					{
						"astId": 23,
						"contract": "contracts/OrderBook.sol:OrderBook",
						"label": "_owner",
						"offset": 0,
						"slot": "3",
						"type": "t_address_payable"
					},
					{
						"astId": 25,
						"contract": "contracts/OrderBook.sol:OrderBook",
						"label": "commission",
						"offset": 0,
						"slot": "4",
						"type": "t_uint256"
					},
					{
						"astId": 58,
						"contract": "contracts/OrderBook.sol:OrderBook",
						"label": "bidBook",
						"offset": 0,
						"slot": "5",
						"type": "t_mapping(t_uint256,t_struct(order)53_storage)"
					},
					{
						"astId": 60,
						"contract": "contracts/OrderBook.sol:OrderBook",
						"label": "bidHead",
						"offset": 0,
						"slot": "6",
						"type": "t_uint256"
					},
					{
						"astId": 62,
						"contract": "contracts/OrderBook.sol:OrderBook",
						"label": "bidTail",
						"offset": 0,
						"slot": "7",
						"type": "t_uint256"
					},
					{
						"astId": 64,
						"contract": "contracts/OrderBook.sol:OrderBook",
						"label": "bidCount",
						"offset": 0,
						"slot": "8",
						"type": "t_uint256"
					},
					{
						"astId": 69,
						"contract": "contracts/OrderBook.sol:OrderBook",
						"label": "askBook",
						"offset": 0,
						"slot": "9",
						"type": "t_mapping(t_uint256,t_struct(order)53_storage)"
					},
					{
						"astId": 71,
						"contract": "contracts/OrderBook.sol:OrderBook",
						"label": "askHead",
						"offset": 0,
						"slot": "10",
						"type": "t_uint256"
					},
					{
						"astId": 73,
						"contract": "contracts/OrderBook.sol:OrderBook",
						"label": "askCount",
						"offset": 0,
						"slot": "11",
						"type": "t_uint256"
					}
				],
				"types": {
					"t_address_payable": {
						"encoding": "inplace",
						"label": "address payable",
						"numberOfBytes": "20"
					},
					"t_bool": {
						"encoding": "inplace",
						"label": "bool",
						"numberOfBytes": "1"
					},
					"t_enum(State)12": {
						"encoding": "inplace",
						"label": "enum OrderBook.State",
						"numberOfBytes": "1"
					},
					"t_mapping(t_bool,t_uint256)": {
						"encoding": "mapping",
						"key": "t_bool",
						"label": "mapping(bool => uint256)",
						"numberOfBytes": "32",
						"value": "t_uint256"
					},
					"t_mapping(t_uint256,t_mapping(t_bool,t_uint256))": {
						"encoding": "mapping",
						"key": "t_uint256",
						"label": "mapping(uint256 => mapping(bool => uint256))",
						"numberOfBytes": "32",
						"value": "t_mapping(t_bool,t_uint256)"
					},
					"t_mapping(t_uint256,t_struct(order)53_storage)": {
						"encoding": "mapping",
						"key": "t_uint256",
						"label": "mapping(uint256 => struct OrderBook.order)",
						"numberOfBytes": "32",
						"value": "t_struct(order)53_storage"
					},
					"t_mapping(t_uint256,t_uint256)": {
						"encoding": "mapping",
						"key": "t_uint256",
						"label": "mapping(uint256 => uint256)",
						"numberOfBytes": "32",
						"value": "t_uint256"
					},
					"t_struct(List)453_storage": {
						"encoding": "inplace",
						"label": "struct StructuredLinkedList.List",
						"members": [
							{
								"astId": 446,
								"contract": "contracts/OrderBook.sol:OrderBook",
								"label": "size",
								"offset": 0,
								"slot": "0",
								"type": "t_uint256"
							},
							{
								"astId": 452,
								"contract": "contracts/OrderBook.sol:OrderBook",
								"label": "list",
								"offset": 0,
								"slot": "1",
								"type": "t_mapping(t_uint256,t_mapping(t_bool,t_uint256))"
							}
						],
						"numberOfBytes": "64"
					},
					"t_struct(order)53_storage": {
						"encoding": "inplace",
						"label": "struct OrderBook.order",
						"members": [
							{
								"astId": 37,
								"contract": "contracts/OrderBook.sol:OrderBook",
								"label": "customer",
								"offset": 0,
								"slot": "0",
								"type": "t_address_payable"
							},
							{
								"astId": 39,
								"contract": "contracts/OrderBook.sol:OrderBook",
								"label": "value",
								"offset": 0,
								"slot": "1",
								"type": "t_uint256"
							},
							{
								"astId": 41,
								"contract": "contracts/OrderBook.sol:OrderBook",
								"label": "timestamp",
								"offset": 0,
								"slot": "2",
								"type": "t_uint256"
							},
							{
								"astId": 44,
								"contract": "contracts/OrderBook.sol:OrderBook",
								"label": "state",
								"offset": 0,
								"slot": "3",
								"type": "t_enum(State)12"
							},
							{
								"astId": 46,
								"contract": "contracts/OrderBook.sol:OrderBook",
								"label": "id",
								"offset": 0,
								"slot": "4",
								"type": "t_uint256"
							},
							{
								"astId": 48,
								"contract": "contracts/OrderBook.sol:OrderBook",
								"label": "next",
								"offset": 0,
								"slot": "5",
								"type": "t_uint256"
							},
							{
								"astId": 50,
								"contract": "contracts/OrderBook.sol:OrderBook",
								"label": "prev",
								"offset": 0,
								"slot": "6",
								"type": "t_uint256"
							},
							{
								"astId": 52,
								"contract": "contracts/OrderBook.sol:OrderBook",
								"label": "delb",
								"offset": 0,
								"slot": "7",
								"type": "t_bool"
							}
						],
						"numberOfBytes": "256"
					},
					"t_uint256": {
						"encoding": "inplace",
						"label": "uint256",
						"numberOfBytes": "32"
					}
				}
			},
			"userdoc": {
				"kind": "user",
				"methods": {},
				"version": 1
			}
		}
	}
}