{
	"contracts/OrderBook.sol": {
		"OrderBook": {
			"abi": [
				{
					"inputs": [
						{
							"internalType": "uint256",
							"name": "_commission",
							"type": "uint256"
						}
					],
					"stateMutability": "nonpayable",
					"type": "constructor"
				},
				{
					"anonymous": false,
					"inputs": [
						{
							"indexed": false,
							"internalType": "uint256",
							"name": "",
							"type": "uint256"
						},
						{
							"indexed": false,
							"internalType": "uint256",
							"name": "",
							"type": "uint256"
						}
					],
					"name": "askLink",
					"type": "event"
				},
				{
					"anonymous": false,
					"inputs": [
						{
							"indexed": false,
							"internalType": "uint256",
							"name": "",
							"type": "uint256"
						},
						{
							"indexed": false,
							"internalType": "uint256",
							"name": "",
							"type": "uint256"
						}
					],
					"name": "bidLink",
					"type": "event"
				},
				{
					"anonymous": false,
					"inputs": [
						{
							"indexed": false,
							"internalType": "uint256",
							"name": "",
							"type": "uint256"
						}
					],
					"name": "newHead",
					"type": "event"
				},
				{
					"anonymous": false,
					"inputs": [
						{
							"indexed": false,
							"internalType": "uint256",
							"name": "",
							"type": "uint256"
						}
					],
					"name": "newTail",
					"type": "event"
				},
				{
					"anonymous": false,
					"inputs": [
						{
							"indexed": false,
							"internalType": "address",
							"name": "",
							"type": "address"
						},
						{
							"indexed": false,
							"internalType": "uint256",
							"name": "",
							"type": "uint256"
						},
						{
							"indexed": false,
							"internalType": "uint256",
							"name": "",
							"type": "uint256"
						},
						{
							"indexed": false,
							"internalType": "enum OrderBook.State",
							"name": "",
							"type": "uint8"
						},
						{
							"indexed": false,
							"internalType": "uint256",
							"name": "",
							"type": "uint256"
						},
						{
							"indexed": false,
							"internalType": "uint256",
							"name": "",
							"type": "uint256"
						},
						{
							"indexed": false,
							"internalType": "uint256",
							"name": "",
							"type": "uint256"
						},
						{
							"indexed": false,
							"internalType": "bool",
							"name": "",
							"type": "bool"
						}
					],
					"name": "orderCreated",
					"type": "event"
				},
				{
					"inputs": [
						{
							"internalType": "uint256",
							"name": "a",
							"type": "uint256"
						},
						{
							"internalType": "uint256",
							"name": "b",
							"type": "uint256"
						}
					],
					"name": "appendString",
					"outputs": [
						{
							"internalType": "string",
							"name": "",
							"type": "string"
						}
					],
					"stateMutability": "pure",
					"type": "function"
				},
				{
					"inputs": [],
					"name": "askCount",
					"outputs": [
						{
							"internalType": "uint256",
							"name": "",
							"type": "uint256"
						}
					],
					"stateMutability": "view",
					"type": "function"
				},
				{
					"inputs": [],
					"name": "askHead",
					"outputs": [
						{
							"internalType": "uint256",
							"name": "",
							"type": "uint256"
						}
					],
					"stateMutability": "view",
					"type": "function"
				},
				{
					"inputs": [],
					"name": "askTail",
					"outputs": [
						{
							"internalType": "uint256",
							"name": "",
							"type": "uint256"
						}
					],
					"stateMutability": "view",
					"type": "function"
				},
				{
					"inputs": [],
					"name": "bidCount",
					"outputs": [
						{
							"internalType": "uint256",
							"name": "",
							"type": "uint256"
						}
					],
					"stateMutability": "view",
					"type": "function"
				},
				{
					"inputs": [],
					"name": "bidHead",
					"outputs": [
						{
							"internalType": "uint256",
							"name": "",
							"type": "uint256"
						}
					],
					"stateMutability": "view",
					"type": "function"
				},
				{
					"inputs": [],
					"name": "bidTail",
					"outputs": [
						{
							"internalType": "uint256",
							"name": "",
							"type": "uint256"
						}
					],
					"stateMutability": "view",
					"type": "function"
				},
				{
					"inputs": [
						{
							"internalType": "uint256",
							"name": "askId",
							"type": "uint256"
						}
					],
					"name": "cancelAsk",
					"outputs": [],
					"stateMutability": "nonpayable",
					"type": "function"
				},
				{
					"inputs": [
						{
							"internalType": "uint256",
							"name": "bidId",
							"type": "uint256"
						}
					],
					"name": "cancelBid",
					"outputs": [],
					"stateMutability": "nonpayable",
					"type": "function"
				},
				{
					"inputs": [
						{
							"internalType": "string",
							"name": "a",
							"type": "string"
						},
						{
							"internalType": "bytes32",
							"name": "b",
							"type": "bytes32"
						}
					],
					"name": "concatenate",
					"outputs": [
						{
							"internalType": "string",
							"name": "",
							"type": "string"
						}
					],
					"stateMutability": "pure",
					"type": "function"
				},
				{
					"inputs": [],
					"name": "fetchAllBid",
					"outputs": [
						{
							"components": [
								{
									"internalType": "address payable",
									"name": "customer",
									"type": "address"
								},
								{
									"internalType": "uint256",
									"name": "value",
									"type": "uint256"
								},
								{
									"internalType": "uint256",
									"name": "timestamp",
									"type": "uint256"
								},
								{
									"internalType": "enum OrderBook.State",
									"name": "state",
									"type": "uint8"
								},
								{
									"internalType": "uint256",
									"name": "id",
									"type": "uint256"
								},
								{
									"internalType": "uint256",
									"name": "next",
									"type": "uint256"
								},
								{
									"internalType": "uint256",
									"name": "prev",
									"type": "uint256"
								}
							],
							"internalType": "struct OrderBook.order[]",
							"name": "",
							"type": "tuple[]"
						}
					],
					"stateMutability": "nonpayable",
					"type": "function"
				},
				{
					"inputs": [],
					"name": "fetchAsk",
					"outputs": [
						{
							"internalType": "string",
							"name": "",
							"type": "string"
						}
					],
					"stateMutability": "view",
					"type": "function"
				},
				{
					"inputs": [],
					"name": "fetchYourAskIds",
					"outputs": [
						{
							"internalType": "uint256[]",
							"name": "",
							"type": "uint256[]"
						}
					],
					"stateMutability": "nonpayable",
					"type": "function"
				},
				{
					"inputs": [],
					"name": "fetchYourBidIds",
					"outputs": [
						{
							"internalType": "uint256[]",
							"name": "",
							"type": "uint256[]"
						}
					],
					"stateMutability": "nonpayable",
					"type": "function"
				},
				{
					"inputs": [
						{
							"internalType": "uint256",
							"name": "id",
							"type": "uint256"
						}
					],
					"name": "getAskAddress",
					"outputs": [
						{
							"internalType": "address payable",
							"name": "",
							"type": "address"
						}
					],
					"stateMutability": "view",
					"type": "function"
				},
				{
					"inputs": [
						{
							"internalType": "uint256",
							"name": "id",
							"type": "uint256"
						}
					],
					"name": "getAskState",
					"outputs": [
						{
							"internalType": "enum OrderBook.State",
							"name": "",
							"type": "uint8"
						}
					],
					"stateMutability": "view",
					"type": "function"
				},
				{
					"inputs": [
						{
							"internalType": "uint256",
							"name": "id",
							"type": "uint256"
						}
					],
					"name": "getAskValue",
					"outputs": [
						{
							"internalType": "uint256",
							"name": "",
							"type": "uint256"
						}
					],
					"stateMutability": "view",
					"type": "function"
				},
				{
					"inputs": [
						{
							"internalType": "uint256",
							"name": "id",
							"type": "uint256"
						}
					],
					"name": "getBidAddress",
					"outputs": [
						{
							"internalType": "address payable",
							"name": "",
							"type": "address"
						}
					],
					"stateMutability": "view",
					"type": "function"
				},
				{
					"inputs": [
						{
							"internalType": "uint256",
							"name": "id",
							"type": "uint256"
						}
					],
					"name": "getBidState",
					"outputs": [
						{
							"internalType": "enum OrderBook.State",
							"name": "",
							"type": "uint8"
						}
					],
					"stateMutability": "view",
					"type": "function"
				},
				{
					"inputs": [
						{
							"internalType": "uint256",
							"name": "id",
							"type": "uint256"
						}
					],
					"name": "getBidValue",
					"outputs": [
						{
							"internalType": "uint256",
							"name": "",
							"type": "uint256"
						}
					],
					"stateMutability": "view",
					"type": "function"
				},
				{
					"inputs": [
						{
							"internalType": "uint256",
							"name": "id",
							"type": "uint256"
						}
					],
					"name": "getOrder",
					"outputs": [
						{
							"internalType": "address payable",
							"name": "",
							"type": "address"
						},
						{
							"internalType": "uint256",
							"name": "",
							"type": "uint256"
						},
						{
							"internalType": "uint256",
							"name": "",
							"type": "uint256"
						},
						{
							"internalType": "enum OrderBook.State",
							"name": "",
							"type": "uint8"
						},
						{
							"internalType": "uint256",
							"name": "",
							"type": "uint256"
						},
						{
							"internalType": "uint256",
							"name": "",
							"type": "uint256"
						},
						{
							"internalType": "uint256",
							"name": "",
							"type": "uint256"
						},
						{
							"internalType": "bool",
							"name": "",
							"type": "bool"
						}
					],
					"stateMutability": "view",
					"type": "function"
				},
				{
					"inputs": [
						{
							"internalType": "uint256",
							"name": "price",
							"type": "uint256"
						}
					],
					"name": "placeAsk",
					"outputs": [],
					"stateMutability": "payable",
					"type": "function"
				},
				{
					"inputs": [
						{
							"internalType": "uint256",
							"name": "price",
							"type": "uint256"
						}
					],
					"name": "placeBid",
					"outputs": [],
					"stateMutability": "payable",
					"type": "function"
				}
			],
			"devdoc": {
				"kind": "dev",
				"methods": {},
				"version": 1
			},
			"evm": {
				"assembly": "    /* \"contracts/OrderBook.sol\":1130:9218  contract OrderBook {... */\n  mstore(0x40, 0x80)\n    /* \"contracts/OrderBook.sol\":1333:1343  msg.sender */\n  caller\n    /* \"contracts/OrderBook.sol\":1300:1344  address payable _owner = payable(msg.sender) */\n  0x01\n  exp(0x0100, 0x00)\n  dup2\n  sload\n  dup2\n  0xffffffffffffffffffffffffffffffffffffffff\n  mul\n  not\n  and\n  swap1\n  dup4\n  0xffffffffffffffffffffffffffffffffffffffff\n  and\n  mul\n  or\n  swap1\n  sstore\n  pop\n    /* \"contracts/OrderBook.sol\":2323:2526  constructor (uint256 _commission) {... */\n  callvalue\n  dup1\n  iszero\n  tag_1\n  jumpi\n  0x00\n  dup1\n  revert\ntag_1:\n  pop\n  mload(0x40)\n  sub(codesize, bytecodeSize)\n  dup1\n  bytecodeSize\n  dup4\n  codecopy\n  dup2\n  dup2\n  add\n  0x40\n  mstore\n  dup2\n  add\n  swap1\n  tag_2\n  swap2\n  swap1\n  tag_3\n  jump\t// in\ntag_2:\n    /* \"contracts/OrderBook.sol\":2380:2391  _commission */\n  dup1\n    /* \"contracts/OrderBook.sol\":2367:2377  commission */\n  0x02\n    /* \"contracts/OrderBook.sol\":2367:2391  commission = _commission */\n  dup2\n  swap1\n  sstore\n  pop\n    /* \"contracts/OrderBook.sol\":2411:2412  0 */\n  0x00\n    /* \"contracts/OrderBook.sol\":2401:2408  bidHead */\n  0x04\n    /* \"contracts/OrderBook.sol\":2401:2412  bidHead = 0 */\n  dup2\n  swap1\n  sstore\n  pop\n    /* \"contracts/OrderBook.sol\":2432:2433  0 */\n  0x00\n    /* \"contracts/OrderBook.sol\":2422:2429  bidTail */\n  0x05\n    /* \"contracts/OrderBook.sol\":2422:2433  bidTail = 0 */\n  dup2\n  swap1\n  sstore\n  pop\n    /* \"contracts/OrderBook.sol\":2454:2455  0 */\n  0x00\n    /* \"contracts/OrderBook.sol\":2443:2451  bidCount */\n  0x06\n    /* \"contracts/OrderBook.sol\":2443:2455  bidCount = 0 */\n  dup2\n  swap1\n  sstore\n  pop\n    /* \"contracts/OrderBook.sol\":2475:2476  0 */\n  0x00\n    /* \"contracts/OrderBook.sol\":2465:2472  askHead */\n  0x08\n    /* \"contracts/OrderBook.sol\":2465:2476  askHead = 0 */\n  dup2\n  swap1\n  sstore\n  pop\n    /* \"contracts/OrderBook.sol\":2496:2497  0 */\n  0x00\n    /* \"contracts/OrderBook.sol\":2486:2493  askTail */\n  0x09\n    /* \"contracts/OrderBook.sol\":2486:2497  askTail = 0 */\n  dup2\n  swap1\n  sstore\n  pop\n    /* \"contracts/OrderBook.sol\":2518:2519  0 */\n  0x00\n    /* \"contracts/OrderBook.sol\":2507:2515  askCount */\n  0x0a\n    /* \"contracts/OrderBook.sol\":2507:2519  askCount = 0 */\n  dup2\n  swap1\n  sstore\n  pop\n    /* \"contracts/OrderBook.sol\":2323:2526  constructor (uint256 _commission) {... */\n  pop\n    /* \"contracts/OrderBook.sol\":1130:9218  contract OrderBook {... */\n  jump(tag_6)\n    /* \"#utility.yul\":88:205   */\ntag_8:\n    /* \"#utility.yul\":197:198   */\n  0x00\n    /* \"#utility.yul\":194:195   */\n  dup1\n    /* \"#utility.yul\":187:199   */\n  revert\n    /* \"#utility.yul\":334:411   */\ntag_10:\n    /* \"#utility.yul\":371:378   */\n  0x00\n    /* \"#utility.yul\":400:405   */\n  dup2\n    /* \"#utility.yul\":389:405   */\n  swap1\n  pop\n    /* \"#utility.yul\":334:411   */\n  swap2\n  swap1\n  pop\n  jump\t// out\n    /* \"#utility.yul\":417:539   */\ntag_11:\n    /* \"#utility.yul\":490:514   */\n  tag_19\n    /* \"#utility.yul\":508:513   */\n  dup2\n    /* \"#utility.yul\":490:514   */\n  tag_10\n  jump\t// in\ntag_19:\n    /* \"#utility.yul\":483:488   */\n  dup2\n    /* \"#utility.yul\":480:515   */\n  eq\n    /* \"#utility.yul\":470:533   */\n  tag_20\n  jumpi\n    /* \"#utility.yul\":529:530   */\n  0x00\n    /* \"#utility.yul\":526:527   */\n  dup1\n    /* \"#utility.yul\":519:531   */\n  revert\n    /* \"#utility.yul\":470:533   */\ntag_20:\n    /* \"#utility.yul\":417:539   */\n  pop\n  jump\t// out\n    /* \"#utility.yul\":545:688   */\ntag_12:\n    /* \"#utility.yul\":602:607   */\n  0x00\n    /* \"#utility.yul\":633:639   */\n  dup2\n    /* \"#utility.yul\":627:640   */\n  mload\n    /* \"#utility.yul\":618:640   */\n  swap1\n  pop\n    /* \"#utility.yul\":649:682   */\n  tag_22\n    /* \"#utility.yul\":676:681   */\n  dup2\n    /* \"#utility.yul\":649:682   */\n  tag_11\n  jump\t// in\ntag_22:\n    /* \"#utility.yul\":545:688   */\n  swap3\n  swap2\n  pop\n  pop\n  jump\t// out\n    /* \"#utility.yul\":694:1045   */\ntag_3:\n    /* \"#utility.yul\":764:770   */\n  0x00\n    /* \"#utility.yul\":813:815   */\n  0x20\n    /* \"#utility.yul\":801:810   */\n  dup3\n    /* \"#utility.yul\":792:799   */\n  dup5\n    /* \"#utility.yul\":788:811   */\n  sub\n    /* \"#utility.yul\":784:816   */\n  slt\n    /* \"#utility.yul\":781:900   */\n  iszero\n  tag_24\n  jumpi\n    /* \"#utility.yul\":819:898   */\n  tag_25\n  tag_8\n  jump\t// in\ntag_25:\n    /* \"#utility.yul\":781:900   */\ntag_24:\n    /* \"#utility.yul\":939:940   */\n  0x00\n    /* \"#utility.yul\":964:1028   */\n  tag_26\n    /* \"#utility.yul\":1020:1027   */\n  dup5\n    /* \"#utility.yul\":1011:1017   */\n  dup3\n    /* \"#utility.yul\":1000:1009   */\n  dup6\n    /* \"#utility.yul\":996:1018   */\n  add\n    /* \"#utility.yul\":964:1028   */\n  tag_12\n  jump\t// in\ntag_26:\n    /* \"#utility.yul\":954:1028   */\n  swap2\n  pop\n    /* \"#utility.yul\":910:1038   */\n  pop\n    /* \"#utility.yul\":694:1045   */\n  swap3\n  swap2\n  pop\n  pop\n  jump\t// out\n    /* \"contracts/OrderBook.sol\":1130:9218  contract OrderBook {... */\ntag_6:\n  dataSize(sub_0)\n  dup1\n  dataOffset(sub_0)\n  0x00\n  codecopy\n  0x00\n  return\nstop\n\nsub_0: assembly {\n        /* \"contracts/OrderBook.sol\":1130:9218  contract OrderBook {... */\n      mstore(0x40, 0x80)\n      jumpi(tag_1, lt(calldatasize, 0x04))\n      shr(0xe0, calldataload(0x00))\n      dup1\n      0x7bb51193\n      gt\n      tag_25\n      jumpi\n      dup1\n      0xbf77ffae\n      gt\n      tag_26\n      jumpi\n      dup1\n      0xbf77ffae\n      eq\n      tag_19\n      jumpi\n      dup1\n      0xc12bcf49\n      eq\n      tag_20\n      jumpi\n      dup1\n      0xce0cdc87\n      eq\n      tag_21\n      jumpi\n      dup1\n      0xd09ef241\n      eq\n      tag_22\n      jumpi\n      dup1\n      0xdb3a1396\n      eq\n      tag_23\n      jumpi\n      dup1\n      0xecdfb860\n      eq\n      tag_24\n      jumpi\n      jump(tag_1)\n    tag_26:\n      dup1\n      0x7bb51193\n      eq\n      tag_13\n      jumpi\n      dup1\n      0x801d9bbd\n      eq\n      tag_14\n      jumpi\n      dup1\n      0x9703ef35\n      eq\n      tag_15\n      jumpi\n      dup1\n      0x9979ef45\n      eq\n      tag_16\n      jumpi\n      dup1\n      0xa394fda7\n      eq\n      tag_17\n      jumpi\n      dup1\n      0xb40a5627\n      eq\n      tag_18\n      jumpi\n      jump(tag_1)\n    tag_25:\n      dup1\n      0x44e791e0\n      gt\n      tag_27\n      jumpi\n      dup1\n      0x44e791e0\n      eq\n      tag_7\n      jumpi\n      dup1\n      0x4d46712d\n      eq\n      tag_8\n      jumpi\n      dup1\n      0x69f632e2\n      eq\n      tag_9\n      jumpi\n      dup1\n      0x6e5b0f00\n      eq\n      tag_10\n      jumpi\n      dup1\n      0x734a2e78\n      eq\n      tag_11\n      jumpi\n      dup1\n      0x78c5b268\n      eq\n      tag_12\n      jumpi\n      jump(tag_1)\n    tag_27:\n      dup1\n      0x0a7e4904\n      eq\n      tag_2\n      jumpi\n      dup1\n      0x122de8f2\n      eq\n      tag_3\n      jumpi\n      dup1\n      0x1628e0f5\n      eq\n      tag_4\n      jumpi\n      dup1\n      0x2db6dfa7\n      eq\n      tag_5\n      jumpi\n      dup1\n      0x4471417f\n      eq\n      tag_6\n      jumpi\n    tag_1:\n      0x00\n      dup1\n      revert\n        /* \"contracts/OrderBook.sol\":5759:5899  function concatenate(string memory a,bytes32 b) public pure returns (string memory){... */\n    tag_2:\n      callvalue\n      dup1\n      iszero\n      tag_28\n      jumpi\n      0x00\n      dup1\n      revert\n    tag_28:\n      pop\n      tag_29\n      0x04\n      dup1\n      calldatasize\n      sub\n      dup2\n      add\n      swap1\n      tag_30\n      swap2\n      swap1\n      tag_31\n      jump\t// in\n    tag_30:\n      tag_32\n      jump\t// in\n    tag_29:\n      mload(0x40)\n      tag_33\n      swap2\n      swap1\n      tag_34\n      jump\t// in\n    tag_33:\n      mload(0x40)\n      dup1\n      swap2\n      sub\n      swap1\n      return\n        /* \"contracts/OrderBook.sol\":8135:8203  function fetchYourAskIds() public returns (uint256[] memory) {... */\n    tag_3:\n      callvalue\n      dup1\n      iszero\n      tag_35\n      jumpi\n      0x00\n      dup1\n      revert\n    tag_35:\n      pop\n      tag_36\n      tag_37\n      jump\t// in\n    tag_36:\n      mload(0x40)\n      tag_38\n      swap2\n      swap1\n      tag_39\n      jump\t// in\n    tag_38:\n      mload(0x40)\n      dup1\n      swap2\n      sub\n      swap1\n      return\n        /* \"contracts/OrderBook.sol\":7186:7478  function cancelAsk (uint256 askId) public isPending(askBook[askId]) isAuthorised(askBook[askId], msg.sender) {... */\n    tag_4:\n      callvalue\n      dup1\n      iszero\n      tag_40\n      jumpi\n      0x00\n      dup1\n      revert\n    tag_40:\n      pop\n      tag_41\n      0x04\n      dup1\n      calldatasize\n      sub\n      dup2\n      add\n      swap1\n      tag_42\n      swap2\n      swap1\n      tag_43\n      jump\t// in\n    tag_42:\n      tag_44\n      jump\t// in\n    tag_41:\n      stop\n        /* \"contracts/OrderBook.sol\":8785:8889  function getBidValue (uint256 id) public view returns(uint256) {... */\n    tag_5:\n      callvalue\n      dup1\n      iszero\n      tag_45\n      jumpi\n      0x00\n      dup1\n      revert\n    tag_45:\n      pop\n      tag_46\n      0x04\n      dup1\n      calldatasize\n      sub\n      dup2\n      add\n      swap1\n      tag_47\n      swap2\n      swap1\n      tag_43\n      jump\t// in\n    tag_47:\n      tag_48\n      jump\t// in\n    tag_46:\n      mload(0x40)\n      tag_49\n      swap2\n      swap1\n      tag_50\n      jump\t// in\n    tag_49:\n      mload(0x40)\n      dup1\n      swap2\n      sub\n      swap1\n      return\n        /* \"contracts/OrderBook.sol\":7992:8054  function fetchAllBid() public returns (order[] memory) {... */\n    tag_6:\n      callvalue\n      dup1\n      iszero\n      tag_51\n      jumpi\n      0x00\n      dup1\n      revert\n    tag_51:\n      pop\n      tag_52\n      tag_53\n      jump\t// in\n    tag_52:\n      mload(0x40)\n      tag_54\n      swap2\n      swap1\n      tag_55\n      jump\t// in\n    tag_54:\n      mload(0x40)\n      dup1\n      swap2\n      sub\n      swap1\n      return\n        /* \"contracts/OrderBook.sol\":7512:7823  function fetchAsk() public view returns (string memory) {... */\n    tag_7:\n      callvalue\n      dup1\n      iszero\n      tag_56\n      jumpi\n      0x00\n      dup1\n      revert\n    tag_56:\n      pop\n      tag_57\n      tag_58\n      jump\t// in\n    tag_57:\n      mload(0x40)\n      tag_59\n      swap2\n      swap1\n      tag_34\n      jump\t// in\n    tag_59:\n      mload(0x40)\n      dup1\n      swap2\n      sub\n      swap1\n      return\n        /* \"contracts/OrderBook.sol\":9113:9215  function getAskState (uint256 id) public view returns(State) {... */\n    tag_8:\n      callvalue\n      dup1\n      iszero\n      tag_60\n      jumpi\n      0x00\n      dup1\n      revert\n    tag_60:\n      pop\n      tag_61\n      0x04\n      dup1\n      calldatasize\n      sub\n      dup2\n      add\n      swap1\n      tag_62\n      swap2\n      swap1\n      tag_43\n      jump\t// in\n    tag_62:\n      tag_63\n      jump\t// in\n    tag_61:\n      mload(0x40)\n      tag_64\n      swap2\n      swap1\n      tag_65\n      jump\t// in\n    tag_64:\n      mload(0x40)\n      dup1\n      swap2\n      sub\n      swap1\n      return\n        /* \"contracts/OrderBook.sol\":8539:8656  function getBidAddress (uint256 id) public view returns(address payable) {... */\n    tag_9:\n      callvalue\n      dup1\n      iszero\n      tag_66\n      jumpi\n      0x00\n      dup1\n      revert\n    tag_66:\n      pop\n      tag_67\n      0x04\n      dup1\n      calldatasize\n      sub\n      dup2\n      add\n      swap1\n      tag_68\n      swap2\n      swap1\n      tag_43\n      jump\t// in\n    tag_68:\n      tag_69\n      jump\t// in\n    tag_67:\n      mload(0x40)\n      tag_70\n      swap2\n      swap1\n      tag_71\n      jump\t// in\n    tag_70:\n      mload(0x40)\n      dup1\n      swap2\n      sub\n      swap1\n      return\n        /* \"contracts/OrderBook.sol\":1797:1819  uint256 public bidHead */\n    tag_10:\n      callvalue\n      dup1\n      iszero\n      tag_72\n      jumpi\n      0x00\n      dup1\n      revert\n    tag_72:\n      pop\n      tag_73\n      tag_74\n      jump\t// in\n    tag_73:\n      mload(0x40)\n      tag_75\n      swap2\n      swap1\n      tag_50\n      jump\t// in\n    tag_75:\n      mload(0x40)\n      dup1\n      swap2\n      sub\n      swap1\n      return\n        /* \"contracts/OrderBook.sol\":8662:8779  function getAskAddress (uint256 id) public view returns(address payable) {... */\n    tag_11:\n      callvalue\n      dup1\n      iszero\n      tag_76\n      jumpi\n      0x00\n      dup1\n      revert\n    tag_76:\n      pop\n      tag_77\n      0x04\n      dup1\n      calldatasize\n      sub\n      dup2\n      add\n      swap1\n      tag_78\n      swap2\n      swap1\n      tag_43\n      jump\t// in\n    tag_78:\n      tag_79\n      jump\t// in\n    tag_77:\n      mload(0x40)\n      tag_80\n      swap2\n      swap1\n      tag_71\n      jump\t// in\n    tag_80:\n      mload(0x40)\n      dup1\n      swap2\n      sub\n      swap1\n      return\n        /* \"contracts/OrderBook.sol\":6776:7180  function placeAsk (uint256 price) public payable {... */\n    tag_12:\n      tag_81\n      0x04\n      dup1\n      calldatasize\n      sub\n      dup2\n      add\n      swap1\n      tag_82\n      swap2\n      swap1\n      tag_43\n      jump\t// in\n    tag_82:\n      tag_83\n      jump\t// in\n    tag_81:\n      stop\n        /* \"contracts/OrderBook.sol\":1825:1847  uint256 public bidTail */\n    tag_13:\n      callvalue\n      dup1\n      iszero\n      tag_84\n      jumpi\n      0x00\n      dup1\n      revert\n    tag_84:\n      pop\n      tag_85\n      tag_86\n      jump\t// in\n    tag_85:\n      mload(0x40)\n      tag_87\n      swap2\n      swap1\n      tag_50\n      jump\t// in\n    tag_87:\n      mload(0x40)\n      dup1\n      swap2\n      sub\n      swap1\n      return\n        /* \"contracts/OrderBook.sol\":1970:1992  uint256 public askHead */\n    tag_14:\n      callvalue\n      dup1\n      iszero\n      tag_88\n      jumpi\n      0x00\n      dup1\n      revert\n    tag_88:\n      pop\n      tag_89\n      tag_90\n      jump\t// in\n    tag_89:\n      mload(0x40)\n      tag_91\n      swap2\n      swap1\n      tag_50\n      jump\t// in\n    tag_91:\n      mload(0x40)\n      dup1\n      swap2\n      sub\n      swap1\n      return\n        /* \"contracts/OrderBook.sol\":6513:6770  function cancelBid (uint256 bidId) public isPending(bidBook[bidId]) isAuthorised(bidBook[bidId], msg.sender) {... */\n    tag_15:\n      callvalue\n      dup1\n      iszero\n      tag_92\n      jumpi\n      0x00\n      dup1\n      revert\n    tag_92:\n      pop\n      tag_93\n      0x04\n      dup1\n      calldatasize\n      sub\n      dup2\n      add\n      swap1\n      tag_94\n      swap2\n      swap1\n      tag_43\n      jump\t// in\n    tag_94:\n      tag_95\n      jump\t// in\n    tag_93:\n      stop\n        /* \"contracts/OrderBook.sol\":5938:6507  function placeBid (uint256 price) public payable {... */\n    tag_16:\n      tag_96\n      0x04\n      dup1\n      calldatasize\n      sub\n      dup2\n      add\n      swap1\n      tag_97\n      swap2\n      swap1\n      tag_43\n      jump\t// in\n    tag_97:\n      tag_98\n      jump\t// in\n    tag_96:\n      stop\n        /* \"contracts/OrderBook.sol\":2026:2049  uint256 public askCount */\n    tag_17:\n      callvalue\n      dup1\n      iszero\n      tag_99\n      jumpi\n      0x00\n      dup1\n      revert\n    tag_99:\n      pop\n      tag_100\n      tag_101\n      jump\t// in\n    tag_100:\n      mload(0x40)\n      tag_102\n      swap2\n      swap1\n      tag_50\n      jump\t// in\n    tag_102:\n      mload(0x40)\n      dup1\n      swap2\n      sub\n      swap1\n      return\n        /* \"contracts/OrderBook.sol\":1853:1876  uint256 public bidCount */\n    tag_18:\n      callvalue\n      dup1\n      iszero\n      tag_103\n      jumpi\n      0x00\n      dup1\n      revert\n    tag_103:\n      pop\n      tag_104\n      tag_105\n      jump\t// in\n    tag_104:\n      mload(0x40)\n      tag_106\n      swap2\n      swap1\n      tag_50\n      jump\t// in\n    tag_106:\n      mload(0x40)\n      dup1\n      swap2\n      sub\n      swap1\n      return\n        /* \"contracts/OrderBook.sol\":9005:9107  function getBidState (uint256 id) public view returns(State) {... */\n    tag_19:\n      callvalue\n      dup1\n      iszero\n      tag_107\n      jumpi\n      0x00\n      dup1\n      revert\n    tag_107:\n      pop\n      tag_108\n      0x04\n      dup1\n      calldatasize\n      sub\n      dup2\n      add\n      swap1\n      tag_109\n      swap2\n      swap1\n      tag_43\n      jump\t// in\n    tag_109:\n      tag_110\n      jump\t// in\n    tag_108:\n      mload(0x40)\n      tag_111\n      swap2\n      swap1\n      tag_65\n      jump\t// in\n    tag_111:\n      mload(0x40)\n      dup1\n      swap2\n      sub\n      swap1\n      return\n        /* \"contracts/OrderBook.sol\":7830:7986  function appendString(uint256 a, uint256 b) public pure returns (string memory) {... */\n    tag_20:\n      callvalue\n      dup1\n      iszero\n      tag_112\n      jumpi\n      0x00\n      dup1\n      revert\n    tag_112:\n      pop\n      tag_113\n      0x04\n      dup1\n      calldatasize\n      sub\n      dup2\n      add\n      swap1\n      tag_114\n      swap2\n      swap1\n      tag_115\n      jump\t// in\n    tag_114:\n      tag_116\n      jump\t// in\n    tag_113:\n      mload(0x40)\n      tag_117\n      swap2\n      swap1\n      tag_34\n      jump\t// in\n    tag_117:\n      mload(0x40)\n      dup1\n      swap2\n      sub\n      swap1\n      return\n        /* \"contracts/OrderBook.sol\":8061:8129  function fetchYourBidIds() public returns (uint256[] memory) {... */\n    tag_21:\n      callvalue\n      dup1\n      iszero\n      tag_118\n      jumpi\n      0x00\n      dup1\n      revert\n    tag_118:\n      pop\n      tag_119\n      tag_120\n      jump\t// in\n    tag_119:\n      mload(0x40)\n      tag_121\n      swap2\n      swap1\n      tag_39\n      jump\t// in\n    tag_121:\n      mload(0x40)\n      dup1\n      swap2\n      sub\n      swap1\n      return\n        /* \"contracts/OrderBook.sol\":8209:8533  function getOrder(uint256 id) public view returns(address payable,uint256,uint256,State,uint256,uint256,uint256,bool) {... */\n    tag_22:\n      callvalue\n      dup1\n      iszero\n      tag_122\n      jumpi\n      0x00\n      dup1\n      revert\n    tag_122:\n      pop\n      tag_123\n      0x04\n      dup1\n      calldatasize\n      sub\n      dup2\n      add\n      swap1\n      tag_124\n      swap2\n      swap1\n      tag_43\n      jump\t// in\n    tag_124:\n      tag_125\n      jump\t// in\n    tag_123:\n      mload(0x40)\n      tag_126\n      swap9\n      swap8\n      swap7\n      swap6\n      swap5\n      swap4\n      swap3\n      swap2\n      swap1\n      tag_127\n      jump\t// in\n    tag_126:\n      mload(0x40)\n      dup1\n      swap2\n      sub\n      swap1\n      return\n        /* \"contracts/OrderBook.sol\":8895:8999  function getAskValue (uint256 id) public view returns(uint256) {... */\n    tag_23:\n      callvalue\n      dup1\n      iszero\n      tag_128\n      jumpi\n      0x00\n      dup1\n      revert\n    tag_128:\n      pop\n      tag_129\n      0x04\n      dup1\n      calldatasize\n      sub\n      dup2\n      add\n      swap1\n      tag_130\n      swap2\n      swap1\n      tag_43\n      jump\t// in\n    tag_130:\n      tag_131\n      jump\t// in\n    tag_129:\n      mload(0x40)\n      tag_132\n      swap2\n      swap1\n      tag_50\n      jump\t// in\n    tag_132:\n      mload(0x40)\n      dup1\n      swap2\n      sub\n      swap1\n      return\n        /* \"contracts/OrderBook.sol\":1998:2020  uint256 public askTail */\n    tag_24:\n      callvalue\n      dup1\n      iszero\n      tag_133\n      jumpi\n      0x00\n      dup1\n      revert\n    tag_133:\n      pop\n      tag_134\n      tag_135\n      jump\t// in\n    tag_134:\n      mload(0x40)\n      tag_136\n      swap2\n      swap1\n      tag_50\n      jump\t// in\n    tag_136:\n      mload(0x40)\n      dup1\n      swap2\n      sub\n      swap1\n      return\n        /* \"contracts/OrderBook.sol\":5759:5899  function concatenate(string memory a,bytes32 b) public pure returns (string memory){... */\n    tag_32:\n        /* \"contracts/OrderBook.sol\":5828:5841  string memory */\n      0x60\n        /* \"contracts/OrderBook.sol\":5883:5884  a */\n      dup3\n        /* \"contracts/OrderBook.sol\":5889:5890  b */\n      dup3\n        /* \"contracts/OrderBook.sol\":5866:5891  abi.encodePacked(a,' ',b) */\n      add(0x20, mload(0x40))\n      tag_138\n      swap3\n      swap2\n      swap1\n      tag_139\n      jump\t// in\n    tag_138:\n      mload(0x40)\n      0x20\n      dup2\n      dup4\n      sub\n      sub\n      dup2\n      mstore\n      swap1\n      0x40\n      mstore\n        /* \"contracts/OrderBook.sol\":5852:5892  return string(abi.encodePacked(a,' ',b)) */\n      swap1\n      pop\n        /* \"contracts/OrderBook.sol\":5759:5899  function concatenate(string memory a,bytes32 b) public pure returns (string memory){... */\n      swap3\n      swap2\n      pop\n      pop\n      jump\t// out\n        /* \"contracts/OrderBook.sol\":8135:8203  function fetchYourAskIds() public returns (uint256[] memory) {... */\n    tag_37:\n        /* \"contracts/OrderBook.sol\":8178:8194  uint256[] memory */\n      0x60\n        /* \"contracts/OrderBook.sol\":8135:8203  function fetchYourAskIds() public returns (uint256[] memory) {... */\n      swap1\n      jump\t// out\n        /* \"contracts/OrderBook.sol\":7186:7478  function cancelAsk (uint256 askId) public isPending(askBook[askId]) isAuthorised(askBook[askId], msg.sender) {... */\n    tag_44:\n        /* \"contracts/OrderBook.sol\":7238:7245  askBook */\n      0x07\n        /* \"contracts/OrderBook.sol\":7238:7252  askBook[askId] */\n      0x00\n        /* \"contracts/OrderBook.sol\":7246:7251  askId */\n      dup3\n        /* \"contracts/OrderBook.sol\":7238:7252  askBook[askId] */\n      dup2\n      mstore\n      0x20\n      add\n      swap1\n      dup2\n      mstore\n      0x20\n      add\n      0x00\n      keccak256\n        /* \"contracts/OrderBook.sol\":2565:2688  modifier isPending(order memory _order) {... */\n      mload(0x40)\n      dup1\n      0xe0\n      add\n      0x40\n      mstore\n      swap1\n      dup2\n      0x00\n      dup3\n      add\n      0x00\n      swap1\n      sload\n      swap1\n      0x0100\n      exp\n      swap1\n      div\n      0xffffffffffffffffffffffffffffffffffffffff\n      and\n      0xffffffffffffffffffffffffffffffffffffffff\n      and\n      0xffffffffffffffffffffffffffffffffffffffff\n      and\n      dup2\n      mstore\n      0x20\n      add\n      0x01\n      dup3\n      add\n      sload\n      dup2\n      mstore\n      0x20\n      add\n      0x02\n      dup3\n      add\n      sload\n      dup2\n      mstore\n      0x20\n      add\n      0x03\n      dup3\n      add\n      0x00\n      swap1\n      sload\n      swap1\n      0x0100\n      exp\n      swap1\n      div\n      0xff\n      and\n      0x01\n      dup2\n      gt\n      iszero\n      tag_141\n      jumpi\n      tag_142\n      tag_143\n      jump\t// in\n    tag_142:\n    tag_141:\n      0x01\n      dup2\n      gt\n      iszero\n      tag_144\n      jumpi\n      tag_145\n      tag_143\n      jump\t// in\n    tag_145:\n    tag_144:\n      dup2\n      mstore\n      0x20\n      add\n      0x04\n      dup3\n      add\n      sload\n      dup2\n      mstore\n      0x20\n      add\n      0x05\n      dup3\n      add\n      sload\n      dup2\n      mstore\n      0x20\n      add\n      0x06\n      dup3\n      add\n      sload\n      dup2\n      mstore\n      pop\n      pop\n        /* \"contracts/OrderBook.sol\":2639:2652  State.pending */\n      0x00\n        /* \"contracts/OrderBook.sol\":2623:2652  _order.state == State.pending */\n      0x01\n      dup2\n      gt\n      iszero\n      tag_147\n      jumpi\n      tag_148\n      tag_143\n      jump\t// in\n    tag_148:\n    tag_147:\n        /* \"contracts/OrderBook.sol\":2623:2629  _order */\n      dup2\n        /* \"contracts/OrderBook.sol\":2623:2635  _order.state */\n      0x60\n      add\n      mload\n        /* \"contracts/OrderBook.sol\":2623:2652  _order.state == State.pending */\n      0x01\n      dup2\n      gt\n      iszero\n      tag_149\n      jumpi\n      tag_150\n      tag_143\n      jump\t// in\n    tag_150:\n    tag_149:\n      eq\n        /* \"contracts/OrderBook.sol\":2615:2670  require(_order.state == State.pending, \"Order Pending\") */\n      tag_151\n      jumpi\n      mload(0x40)\n      0x08c379a000000000000000000000000000000000000000000000000000000000\n      dup2\n      mstore\n      0x04\n      add\n      tag_152\n      swap1\n      tag_153\n      jump\t// in\n    tag_152:\n      mload(0x40)\n      dup1\n      swap2\n      sub\n      swap1\n      revert\n    tag_151:\n        /* \"contracts/OrderBook.sol\":7267:7274  askBook */\n      0x07\n        /* \"contracts/OrderBook.sol\":7267:7281  askBook[askId] */\n      0x00\n        /* \"contracts/OrderBook.sol\":7275:7280  askId */\n      dup4\n        /* \"contracts/OrderBook.sol\":7267:7281  askBook[askId] */\n      dup2\n      mstore\n      0x20\n      add\n      swap1\n      dup2\n      mstore\n      0x20\n      add\n      0x00\n      keccak256\n        /* \"contracts/OrderBook.sol\":2694:2833  modifier isAuthorised(order memory _order, address sender) {... */\n      mload(0x40)\n      dup1\n      0xe0\n      add\n      0x40\n      mstore\n      swap1\n      dup2\n      0x00\n      dup3\n      add\n      0x00\n      swap1\n      sload\n      swap1\n      0x0100\n      exp\n      swap1\n      div\n      0xffffffffffffffffffffffffffffffffffffffff\n      and\n      0xffffffffffffffffffffffffffffffffffffffff\n      and\n      0xffffffffffffffffffffffffffffffffffffffff\n      and\n      dup2\n      mstore\n      0x20\n      add\n      0x01\n      dup3\n      add\n      sload\n      dup2\n      mstore\n      0x20\n      add\n      0x02\n      dup3\n      add\n      sload\n      dup2\n      mstore\n      0x20\n      add\n      0x03\n      dup3\n      add\n      0x00\n      swap1\n      sload\n      swap1\n      0x0100\n      exp\n      swap1\n      div\n      0xff\n      and\n      0x01\n      dup2\n      gt\n      iszero\n      tag_154\n      jumpi\n      tag_155\n      tag_143\n      jump\t// in\n    tag_155:\n    tag_154:\n      0x01\n      dup2\n      gt\n      iszero\n      tag_156\n      jumpi\n      tag_157\n      tag_143\n      jump\t// in\n    tag_157:\n    tag_156:\n      dup2\n      mstore\n      0x20\n      add\n      0x04\n      dup3\n      add\n      sload\n      dup2\n      mstore\n      0x20\n      add\n      0x05\n      dup3\n      add\n      sload\n      dup2\n      mstore\n      0x20\n      add\n      0x06\n      dup3\n      add\n      sload\n      dup2\n      mstore\n      pop\n      pop\n        /* \"contracts/OrderBook.sol\":7283:7293  msg.sender */\n      caller\n        /* \"contracts/OrderBook.sol\":2790:2796  sender */\n      dup1\n        /* \"contracts/OrderBook.sol\":2771:2796  _order.customer == sender */\n      0xffffffffffffffffffffffffffffffffffffffff\n      and\n        /* \"contracts/OrderBook.sol\":2771:2777  _order */\n      dup3\n        /* \"contracts/OrderBook.sol\":2771:2786  _order.customer */\n      0x00\n      add\n      mload\n        /* \"contracts/OrderBook.sol\":2771:2796  _order.customer == sender */\n      0xffffffffffffffffffffffffffffffffffffffff\n      and\n      eq\n        /* \"contracts/OrderBook.sol\":2763:2815  require(_order.customer == sender, \"Not Authorised\") */\n      tag_159\n      jumpi\n      mload(0x40)\n      0x08c379a000000000000000000000000000000000000000000000000000000000\n      dup2\n      mstore\n      0x04\n      add\n      tag_160\n      swap1\n      tag_161\n      jump\t// in\n    tag_160:\n      mload(0x40)\n      dup1\n      swap2\n      sub\n      swap1\n      revert\n    tag_159:\n        /* \"contracts/OrderBook.sol\":2680:2681  _ */\n      pop\n      pop\n        /* \"contracts/OrderBook.sol\":7186:7478  function cancelAsk (uint256 askId) public isPending(askBook[askId]) isAuthorised(askBook[askId], msg.sender) {... */\n      pop\n      pop\n      jump\t// out\n        /* \"contracts/OrderBook.sol\":8785:8889  function getBidValue (uint256 id) public view returns(uint256) {... */\n    tag_48:\n        /* \"contracts/OrderBook.sol\":8839:8846  uint256 */\n      0x00\n        /* \"contracts/OrderBook.sol\":8865:8872  bidBook */\n      0x03\n        /* \"contracts/OrderBook.sol\":8865:8876  bidBook[id] */\n      0x00\n        /* \"contracts/OrderBook.sol\":8873:8875  id */\n      dup4\n        /* \"contracts/OrderBook.sol\":8865:8876  bidBook[id] */\n      dup2\n      mstore\n      0x20\n      add\n      swap1\n      dup2\n      mstore\n      0x20\n      add\n      0x00\n      keccak256\n        /* \"contracts/OrderBook.sol\":8865:8882  bidBook[id].value */\n      0x01\n      add\n      sload\n        /* \"contracts/OrderBook.sol\":8858:8882  return bidBook[id].value */\n      swap1\n      pop\n        /* \"contracts/OrderBook.sol\":8785:8889  function getBidValue (uint256 id) public view returns(uint256) {... */\n      swap2\n      swap1\n      pop\n      jump\t// out\n        /* \"contracts/OrderBook.sol\":7992:8054  function fetchAllBid() public returns (order[] memory) {... */\n    tag_53:\n        /* \"contracts/OrderBook.sol\":8031:8045  order[] memory */\n      0x60\n        /* \"contracts/OrderBook.sol\":7992:8054  function fetchAllBid() public returns (order[] memory) {... */\n      swap1\n      jump\t// out\n        /* \"contracts/OrderBook.sol\":7512:7823  function fetchAsk() public view returns (string memory) {... */\n    tag_58:\n        /* \"contracts/OrderBook.sol\":7553:7566  string memory */\n      0x60\n        /* \"contracts/OrderBook.sol\":7578:7593  uint256 current */\n      0x00\n        /* \"contracts/OrderBook.sol\":7596:7603  askHead */\n      sload(0x08)\n        /* \"contracts/OrderBook.sol\":7578:7603  uint256 current = askHead */\n      swap1\n      pop\n        /* \"contracts/OrderBook.sol\":7613:7633  string memory output */\n      0x00\n        /* \"contracts/OrderBook.sol\":7613:7638  string memory output = \"\" */\n      mload(0x40)\n      dup1\n      0x20\n      add\n      0x40\n      mstore\n      dup1\n      0x00\n      dup2\n      mstore\n      pop\n      swap1\n      pop\n        /* \"contracts/OrderBook.sol\":7648:7817  while (current != 0) {... */\n    tag_166:\n        /* \"contracts/OrderBook.sol\":7666:7667  0 */\n      0x00\n        /* \"contracts/OrderBook.sol\":7655:7662  current */\n      dup3\n        /* \"contracts/OrderBook.sol\":7655:7667  current != 0 */\n      eq\n        /* \"contracts/OrderBook.sol\":7648:7817  while (current != 0) {... */\n      tag_167\n      jumpi\n        /* \"contracts/OrderBook.sol\":7683:7695  uint256 next */\n      0x00\n        /* \"contracts/OrderBook.sol\":7698:7705  askBook */\n      0x07\n        /* \"contracts/OrderBook.sol\":7698:7714  askBook[current] */\n      0x00\n        /* \"contracts/OrderBook.sol\":7706:7713  current */\n      dup5\n        /* \"contracts/OrderBook.sol\":7698:7714  askBook[current] */\n      dup2\n      mstore\n      0x20\n      add\n      swap1\n      dup2\n      mstore\n      0x20\n      add\n      0x00\n      keccak256\n        /* \"contracts/OrderBook.sol\":7698:7719  askBook[current].next */\n      0x05\n      add\n      sload\n        /* \"contracts/OrderBook.sol\":7683:7719  uint256 next = askBook[current].next */\n      swap1\n      pop\n        /* \"contracts/OrderBook.sol\":7742:7778  concatenate(output,bytes32(current)) */\n      tag_168\n        /* \"contracts/OrderBook.sol\":7754:7760  output */\n      dup3\n        /* \"contracts/OrderBook.sol\":7769:7776  current */\n      dup5\n        /* \"contracts/OrderBook.sol\":7761:7777  bytes32(current) */\n      0x00\n      shl\n        /* \"contracts/OrderBook.sol\":7742:7753  concatenate */\n      tag_32\n        /* \"contracts/OrderBook.sol\":7742:7778  concatenate(output,bytes32(current)) */\n      jump\t// in\n    tag_168:\n        /* \"contracts/OrderBook.sol\":7733:7778  output = concatenate(output,bytes32(current)) */\n      swap2\n      pop\n        /* \"contracts/OrderBook.sol\":7802:7806  next */\n      dup1\n        /* \"contracts/OrderBook.sol\":7792:7806  current = next */\n      swap3\n      pop\n        /* \"contracts/OrderBook.sol\":7669:7817  {... */\n      pop\n        /* \"contracts/OrderBook.sol\":7648:7817  while (current != 0) {... */\n      jump(tag_166)\n    tag_167:\n        /* \"contracts/OrderBook.sol\":7568:7823  {... */\n      pop\n      pop\n        /* \"contracts/OrderBook.sol\":7512:7823  function fetchAsk() public view returns (string memory) {... */\n      swap1\n      jump\t// out\n        /* \"contracts/OrderBook.sol\":9113:9215  function getAskState (uint256 id) public view returns(State) {... */\n    tag_63:\n        /* \"contracts/OrderBook.sol\":9167:9172  State */\n      0x00\n        /* \"contracts/OrderBook.sol\":9191:9198  askBook */\n      0x07\n        /* \"contracts/OrderBook.sol\":9191:9202  askBook[id] */\n      0x00\n        /* \"contracts/OrderBook.sol\":9199:9201  id */\n      dup4\n        /* \"contracts/OrderBook.sol\":9191:9202  askBook[id] */\n      dup2\n      mstore\n      0x20\n      add\n      swap1\n      dup2\n      mstore\n      0x20\n      add\n      0x00\n      keccak256\n        /* \"contracts/OrderBook.sol\":9191:9208  askBook[id].state */\n      0x03\n      add\n      0x00\n      swap1\n      sload\n      swap1\n      0x0100\n      exp\n      swap1\n      div\n      0xff\n      and\n        /* \"contracts/OrderBook.sol\":9184:9208  return askBook[id].state */\n      swap1\n      pop\n        /* \"contracts/OrderBook.sol\":9113:9215  function getAskState (uint256 id) public view returns(State) {... */\n      swap2\n      swap1\n      pop\n      jump\t// out\n        /* \"contracts/OrderBook.sol\":8539:8656  function getBidAddress (uint256 id) public view returns(address payable) {... */\n    tag_69:\n        /* \"contracts/OrderBook.sol\":8595:8610  address payable */\n      0x00\n        /* \"contracts/OrderBook.sol\":8629:8636  bidBook */\n      0x03\n        /* \"contracts/OrderBook.sol\":8629:8640  bidBook[id] */\n      0x00\n        /* \"contracts/OrderBook.sol\":8637:8639  id */\n      dup4\n        /* \"contracts/OrderBook.sol\":8629:8640  bidBook[id] */\n      dup2\n      mstore\n      0x20\n      add\n      swap1\n      dup2\n      mstore\n      0x20\n      add\n      0x00\n      keccak256\n        /* \"contracts/OrderBook.sol\":8629:8649  bidBook[id].customer */\n      0x00\n      add\n      0x00\n      swap1\n      sload\n      swap1\n      0x0100\n      exp\n      swap1\n      div\n      0xffffffffffffffffffffffffffffffffffffffff\n      and\n        /* \"contracts/OrderBook.sol\":8622:8649  return bidBook[id].customer */\n      swap1\n      pop\n        /* \"contracts/OrderBook.sol\":8539:8656  function getBidAddress (uint256 id) public view returns(address payable) {... */\n      swap2\n      swap1\n      pop\n      jump\t// out\n        /* \"contracts/OrderBook.sol\":1797:1819  uint256 public bidHead */\n    tag_74:\n      sload(0x04)\n      dup2\n      jump\t// out\n        /* \"contracts/OrderBook.sol\":8662:8779  function getAskAddress (uint256 id) public view returns(address payable) {... */\n    tag_79:\n        /* \"contracts/OrderBook.sol\":8718:8733  address payable */\n      0x00\n        /* \"contracts/OrderBook.sol\":8752:8759  askBook */\n      0x07\n        /* \"contracts/OrderBook.sol\":8752:8763  askBook[id] */\n      0x00\n        /* \"contracts/OrderBook.sol\":8760:8762  id */\n      dup4\n        /* \"contracts/OrderBook.sol\":8752:8763  askBook[id] */\n      dup2\n      mstore\n      0x20\n      add\n      swap1\n      dup2\n      mstore\n      0x20\n      add\n      0x00\n      keccak256\n        /* \"contracts/OrderBook.sol\":8752:8772  askBook[id].customer */\n      0x00\n      add\n      0x00\n      swap1\n      sload\n      swap1\n      0x0100\n      exp\n      swap1\n      div\n      0xffffffffffffffffffffffffffffffffffffffff\n      and\n        /* \"contracts/OrderBook.sol\":8745:8772  return askBook[id].customer */\n      swap1\n      pop\n        /* \"contracts/OrderBook.sol\":8662:8779  function getAskAddress (uint256 id) public view returns(address payable) {... */\n      swap2\n      swap1\n      pop\n      jump\t// out\n        /* \"contracts/OrderBook.sol\":6776:7180  function placeAsk (uint256 price) public payable {... */\n    tag_83:\n        /* \"contracts/OrderBook.sol\":6852:6853  0 */\n      0x00\n        /* \"contracts/OrderBook.sol\":6843:6848  price */\n      dup2\n        /* \"contracts/OrderBook.sol\":6843:6853  price >= 0 */\n      lt\n      iszero\n        /* \"contracts/OrderBook.sol\":6835:6889  require(price >= 0, \"price value must be more than 0\") */\n      tag_173\n      jumpi\n      mload(0x40)\n      0x08c379a000000000000000000000000000000000000000000000000000000000\n      dup2\n      mstore\n      0x04\n      add\n      tag_174\n      swap1\n      tag_175\n      jump\t// in\n    tag_174:\n      mload(0x40)\n      dup1\n      swap2\n      sub\n      swap1\n      revert\n    tag_173:\n        /* \"contracts/OrderBook.sol\":6920:6925  price */\n      dup1\n        /* \"contracts/OrderBook.sol\":6907:6916  msg.value */\n      callvalue\n        /* \"contracts/OrderBook.sol\":6907:6925  msg.value >= price */\n      lt\n      iszero\n        /* \"contracts/OrderBook.sol\":6899:6960  require(msg.value >= price, \"Not enough blance to place ask\") */\n      tag_176\n      jumpi\n      mload(0x40)\n      0x08c379a000000000000000000000000000000000000000000000000000000000\n      dup2\n      mstore\n      0x04\n      add\n      tag_177\n      swap1\n      tag_178\n      jump\t// in\n    tag_177:\n      mload(0x40)\n      dup1\n      swap2\n      sub\n      swap1\n      revert\n    tag_176:\n        /* \"contracts/OrderBook.sol\":6970:6982  uint256 time */\n      0x00\n        /* \"contracts/OrderBook.sol\":6985:7000  block.timestamp */\n      timestamp\n        /* \"contracts/OrderBook.sol\":6970:7000  uint256 time = block.timestamp */\n      swap1\n      pop\n        /* \"contracts/OrderBook.sol\":7010:7035  uint256 commissionedPrice */\n      0x00\n        /* \"contracts/OrderBook.sol\":7069:7072  100 */\n      0x64\n        /* \"contracts/OrderBook.sol\":7055:7065  commission */\n      sload(0x02)\n        /* \"contracts/OrderBook.sol\":7051:7054  100 */\n      0x64\n        /* \"contracts/OrderBook.sol\":7051:7065  100-commission */\n      tag_179\n      swap2\n      swap1\n      tag_180\n      jump\t// in\n    tag_179:\n        /* \"contracts/OrderBook.sol\":7038:7047  msg.value */\n      callvalue\n        /* \"contracts/OrderBook.sol\":7038:7066  msg.value * (100-commission) */\n      tag_181\n      swap2\n      swap1\n      tag_182\n      jump\t// in\n    tag_181:\n        /* \"contracts/OrderBook.sol\":7038:7072  msg.value * (100-commission) / 100 */\n      tag_183\n      swap2\n      swap1\n      tag_184\n      jump\t// in\n    tag_183:\n        /* \"contracts/OrderBook.sol\":7010:7072  uint256 commissionedPrice = msg.value * (100-commission) / 100 */\n      swap1\n      pop\n        /* \"contracts/OrderBook.sol\":7082:7101  order memory newAsk */\n      0x00\n        /* \"contracts/OrderBook.sol\":7104:7148  createAsk(msg.sender,time,commissionedPrice) */\n      tag_185\n        /* \"contracts/OrderBook.sol\":7114:7124  msg.sender */\n      caller\n        /* \"contracts/OrderBook.sol\":7125:7129  time */\n      dup5\n        /* \"contracts/OrderBook.sol\":7130:7147  commissionedPrice */\n      dup5\n        /* \"contracts/OrderBook.sol\":7104:7113  createAsk */\n      tag_186\n        /* \"contracts/OrderBook.sol\":7104:7148  createAsk(msg.sender,time,commissionedPrice) */\n      jump\t// in\n    tag_185:\n        /* \"contracts/OrderBook.sol\":7082:7148  order memory newAsk = createAsk(msg.sender,time,commissionedPrice) */\n      swap1\n      pop\n        /* \"contracts/OrderBook.sol\":7158:7173  sortAsk(newAsk) */\n      tag_187\n        /* \"contracts/OrderBook.sol\":7166:7172  newAsk */\n      dup2\n        /* \"contracts/OrderBook.sol\":7158:7165  sortAsk */\n      tag_188\n        /* \"contracts/OrderBook.sol\":7158:7173  sortAsk(newAsk) */\n      jump\t// in\n    tag_187:\n        /* \"contracts/OrderBook.sol\":6825:7180  {... */\n      pop\n      pop\n      pop\n        /* \"contracts/OrderBook.sol\":6776:7180  function placeAsk (uint256 price) public payable {... */\n      pop\n      jump\t// out\n        /* \"contracts/OrderBook.sol\":1825:1847  uint256 public bidTail */\n    tag_86:\n      sload(0x05)\n      dup2\n      jump\t// out\n        /* \"contracts/OrderBook.sol\":1970:1992  uint256 public askHead */\n    tag_90:\n      sload(0x08)\n      dup2\n      jump\t// out\n        /* \"contracts/OrderBook.sol\":6513:6770  function cancelBid (uint256 bidId) public isPending(bidBook[bidId]) isAuthorised(bidBook[bidId], msg.sender) {... */\n    tag_95:\n        /* \"contracts/OrderBook.sol\":6565:6572  bidBook */\n      0x03\n        /* \"contracts/OrderBook.sol\":6565:6579  bidBook[bidId] */\n      0x00\n        /* \"contracts/OrderBook.sol\":6573:6578  bidId */\n      dup3\n        /* \"contracts/OrderBook.sol\":6565:6579  bidBook[bidId] */\n      dup2\n      mstore\n      0x20\n      add\n      swap1\n      dup2\n      mstore\n      0x20\n      add\n      0x00\n      keccak256\n        /* \"contracts/OrderBook.sol\":2565:2688  modifier isPending(order memory _order) {... */\n      mload(0x40)\n      dup1\n      0xe0\n      add\n      0x40\n      mstore\n      swap1\n      dup2\n      0x00\n      dup3\n      add\n      0x00\n      swap1\n      sload\n      swap1\n      0x0100\n      exp\n      swap1\n      div\n      0xffffffffffffffffffffffffffffffffffffffff\n      and\n      0xffffffffffffffffffffffffffffffffffffffff\n      and\n      0xffffffffffffffffffffffffffffffffffffffff\n      and\n      dup2\n      mstore\n      0x20\n      add\n      0x01\n      dup3\n      add\n      sload\n      dup2\n      mstore\n      0x20\n      add\n      0x02\n      dup3\n      add\n      sload\n      dup2\n      mstore\n      0x20\n      add\n      0x03\n      dup3\n      add\n      0x00\n      swap1\n      sload\n      swap1\n      0x0100\n      exp\n      swap1\n      div\n      0xff\n      and\n      0x01\n      dup2\n      gt\n      iszero\n      tag_189\n      jumpi\n      tag_190\n      tag_143\n      jump\t// in\n    tag_190:\n    tag_189:\n      0x01\n      dup2\n      gt\n      iszero\n      tag_191\n      jumpi\n      tag_192\n      tag_143\n      jump\t// in\n    tag_192:\n    tag_191:\n      dup2\n      mstore\n      0x20\n      add\n      0x04\n      dup3\n      add\n      sload\n      dup2\n      mstore\n      0x20\n      add\n      0x05\n      dup3\n      add\n      sload\n      dup2\n      mstore\n      0x20\n      add\n      0x06\n      dup3\n      add\n      sload\n      dup2\n      mstore\n      pop\n      pop\n        /* \"contracts/OrderBook.sol\":2639:2652  State.pending */\n      0x00\n        /* \"contracts/OrderBook.sol\":2623:2652  _order.state == State.pending */\n      0x01\n      dup2\n      gt\n      iszero\n      tag_194\n      jumpi\n      tag_195\n      tag_143\n      jump\t// in\n    tag_195:\n    tag_194:\n        /* \"contracts/OrderBook.sol\":2623:2629  _order */\n      dup2\n        /* \"contracts/OrderBook.sol\":2623:2635  _order.state */\n      0x60\n      add\n      mload\n        /* \"contracts/OrderBook.sol\":2623:2652  _order.state == State.pending */\n      0x01\n      dup2\n      gt\n      iszero\n      tag_196\n      jumpi\n      tag_197\n      tag_143\n      jump\t// in\n    tag_197:\n    tag_196:\n      eq\n        /* \"contracts/OrderBook.sol\":2615:2670  require(_order.state == State.pending, \"Order Pending\") */\n      tag_198\n      jumpi\n      mload(0x40)\n      0x08c379a000000000000000000000000000000000000000000000000000000000\n      dup2\n      mstore\n      0x04\n      add\n      tag_199\n      swap1\n      tag_153\n      jump\t// in\n    tag_199:\n      mload(0x40)\n      dup1\n      swap2\n      sub\n      swap1\n      revert\n    tag_198:\n        /* \"contracts/OrderBook.sol\":6594:6601  bidBook */\n      0x03\n        /* \"contracts/OrderBook.sol\":6594:6608  bidBook[bidId] */\n      0x00\n        /* \"contracts/OrderBook.sol\":6602:6607  bidId */\n      dup4\n        /* \"contracts/OrderBook.sol\":6594:6608  bidBook[bidId] */\n      dup2\n      mstore\n      0x20\n      add\n      swap1\n      dup2\n      mstore\n      0x20\n      add\n      0x00\n      keccak256\n        /* \"contracts/OrderBook.sol\":2694:2833  modifier isAuthorised(order memory _order, address sender) {... */\n      mload(0x40)\n      dup1\n      0xe0\n      add\n      0x40\n      mstore\n      swap1\n      dup2\n      0x00\n      dup3\n      add\n      0x00\n      swap1\n      sload\n      swap1\n      0x0100\n      exp\n      swap1\n      div\n      0xffffffffffffffffffffffffffffffffffffffff\n      and\n      0xffffffffffffffffffffffffffffffffffffffff\n      and\n      0xffffffffffffffffffffffffffffffffffffffff\n      and\n      dup2\n      mstore\n      0x20\n      add\n      0x01\n      dup3\n      add\n      sload\n      dup2\n      mstore\n      0x20\n      add\n      0x02\n      dup3\n      add\n      sload\n      dup2\n      mstore\n      0x20\n      add\n      0x03\n      dup3\n      add\n      0x00\n      swap1\n      sload\n      swap1\n      0x0100\n      exp\n      swap1\n      div\n      0xff\n      and\n      0x01\n      dup2\n      gt\n      iszero\n      tag_200\n      jumpi\n      tag_201\n      tag_143\n      jump\t// in\n    tag_201:\n    tag_200:\n      0x01\n      dup2\n      gt\n      iszero\n      tag_202\n      jumpi\n      tag_203\n      tag_143\n      jump\t// in\n    tag_203:\n    tag_202:\n      dup2\n      mstore\n      0x20\n      add\n      0x04\n      dup3\n      add\n      sload\n      dup2\n      mstore\n      0x20\n      add\n      0x05\n      dup3\n      add\n      sload\n      dup2\n      mstore\n      0x20\n      add\n      0x06\n      dup3\n      add\n      sload\n      dup2\n      mstore\n      pop\n      pop\n        /* \"contracts/OrderBook.sol\":6610:6620  msg.sender */\n      caller\n        /* \"contracts/OrderBook.sol\":2790:2796  sender */\n      dup1\n        /* \"contracts/OrderBook.sol\":2771:2796  _order.customer == sender */\n      0xffffffffffffffffffffffffffffffffffffffff\n      and\n        /* \"contracts/OrderBook.sol\":2771:2777  _order */\n      dup3\n        /* \"contracts/OrderBook.sol\":2771:2786  _order.customer */\n      0x00\n      add\n      mload\n        /* \"contracts/OrderBook.sol\":2771:2796  _order.customer == sender */\n      0xffffffffffffffffffffffffffffffffffffffff\n      and\n      eq\n        /* \"contracts/OrderBook.sol\":2763:2815  require(_order.customer == sender, \"Not Authorised\") */\n      tag_205\n      jumpi\n      mload(0x40)\n      0x08c379a000000000000000000000000000000000000000000000000000000000\n      dup2\n      mstore\n      0x04\n      add\n      tag_206\n      swap1\n      tag_161\n      jump\t// in\n    tag_206:\n      mload(0x40)\n      dup1\n      swap2\n      sub\n      swap1\n      revert\n    tag_205:\n        /* \"contracts/OrderBook.sol\":2680:2681  _ */\n      pop\n      pop\n        /* \"contracts/OrderBook.sol\":6513:6770  function cancelBid (uint256 bidId) public isPending(bidBook[bidId]) isAuthorised(bidBook[bidId], msg.sender) {... */\n      pop\n      pop\n      jump\t// out\n        /* \"contracts/OrderBook.sol\":5938:6507  function placeBid (uint256 price) public payable {... */\n    tag_98:\n        /* \"contracts/OrderBook.sol\":6014:6015  0 */\n      0x00\n        /* \"contracts/OrderBook.sol\":6005:6010  price */\n      dup2\n        /* \"contracts/OrderBook.sol\":6005:6015  price >= 0 */\n      lt\n      iszero\n        /* \"contracts/OrderBook.sol\":5997:6051  require(price >= 0, \"price value must be more than 0\") */\n      tag_209\n      jumpi\n      mload(0x40)\n      0x08c379a000000000000000000000000000000000000000000000000000000000\n      dup2\n      mstore\n      0x04\n      add\n      tag_210\n      swap1\n      tag_175\n      jump\t// in\n    tag_210:\n      mload(0x40)\n      dup1\n      swap2\n      sub\n      swap1\n      revert\n    tag_209:\n        /* \"contracts/OrderBook.sol\":6082:6087  price */\n      dup1\n        /* \"contracts/OrderBook.sol\":6069:6078  msg.value */\n      callvalue\n        /* \"contracts/OrderBook.sol\":6069:6087  msg.value >= price */\n      lt\n      iszero\n        /* \"contracts/OrderBook.sol\":6061:6122  require(msg.value >= price, \"Not enough blance to place bid\") */\n      tag_211\n      jumpi\n      mload(0x40)\n      0x08c379a000000000000000000000000000000000000000000000000000000000\n      dup2\n      mstore\n      0x04\n      add\n      tag_212\n      swap1\n      tag_213\n      jump\t// in\n    tag_212:\n      mload(0x40)\n      dup1\n      swap2\n      sub\n      swap1\n      revert\n    tag_211:\n        /* \"contracts/OrderBook.sol\":5938:6507  function placeBid (uint256 price) public payable {... */\n      pop\n      jump\t// out\n        /* \"contracts/OrderBook.sol\":2026:2049  uint256 public askCount */\n    tag_101:\n      sload(0x0a)\n      dup2\n      jump\t// out\n        /* \"contracts/OrderBook.sol\":1853:1876  uint256 public bidCount */\n    tag_105:\n      sload(0x06)\n      dup2\n      jump\t// out\n        /* \"contracts/OrderBook.sol\":9005:9107  function getBidState (uint256 id) public view returns(State) {... */\n    tag_110:\n        /* \"contracts/OrderBook.sol\":9059:9064  State */\n      0x00\n        /* \"contracts/OrderBook.sol\":9083:9090  bidBook */\n      0x03\n        /* \"contracts/OrderBook.sol\":9083:9094  bidBook[id] */\n      0x00\n        /* \"contracts/OrderBook.sol\":9091:9093  id */\n      dup4\n        /* \"contracts/OrderBook.sol\":9083:9094  bidBook[id] */\n      dup2\n      mstore\n      0x20\n      add\n      swap1\n      dup2\n      mstore\n      0x20\n      add\n      0x00\n      keccak256\n        /* \"contracts/OrderBook.sol\":9083:9100  bidBook[id].state */\n      0x03\n      add\n      0x00\n      swap1\n      sload\n      swap1\n      0x0100\n      exp\n      swap1\n      div\n      0xff\n      and\n        /* \"contracts/OrderBook.sol\":9076:9100  return bidBook[id].state */\n      swap1\n      pop\n        /* \"contracts/OrderBook.sol\":9005:9107  function getBidState (uint256 id) public view returns(State) {... */\n      swap2\n      swap1\n      pop\n      jump\t// out\n        /* \"contracts/OrderBook.sol\":7830:7986  function appendString(uint256 a, uint256 b) public pure returns (string memory) {... */\n    tag_116:\n        /* \"contracts/OrderBook.sol\":7895:7908  string memory */\n      0x60\n        /* \"contracts/OrderBook.sol\":7955:7956  a */\n      dup3\n        /* \"contracts/OrderBook.sol\":7947:7957  bytes32(a) */\n      0x00\n      shl\n        /* \"contracts/OrderBook.sol\":7975:7976  b */\n      dup3\n        /* \"contracts/OrderBook.sol\":7967:7977  bytes32(b) */\n      0x00\n      shl\n        /* \"contracts/OrderBook.sol\":7934:7978  bytes.concat(bytes32(a), \" , \" , bytes32(b)) */\n      add(0x20, mload(0x40))\n      tag_216\n      swap3\n      swap2\n      swap1\n      tag_217\n      jump\t// in\n    tag_216:\n      mload(0x40)\n      0x20\n      dup2\n      dup4\n      sub\n      sub\n      dup2\n      mstore\n      swap1\n      0x40\n      mstore\n        /* \"contracts/OrderBook.sol\":7920:7979  return string(bytes.concat(bytes32(a), \" , \" , bytes32(b))) */\n      swap1\n      pop\n        /* \"contracts/OrderBook.sol\":7830:7986  function appendString(uint256 a, uint256 b) public pure returns (string memory) {... */\n      swap3\n      swap2\n      pop\n      pop\n      jump\t// out\n        /* \"contracts/OrderBook.sol\":8061:8129  function fetchYourBidIds() public returns (uint256[] memory) {... */\n    tag_120:\n        /* \"contracts/OrderBook.sol\":8104:8120  uint256[] memory */\n      0x60\n        /* \"contracts/OrderBook.sol\":8061:8129  function fetchYourBidIds() public returns (uint256[] memory) {... */\n      swap1\n      jump\t// out\n        /* \"contracts/OrderBook.sol\":8209:8533  function getOrder(uint256 id) public view returns(address payable,uint256,uint256,State,uint256,uint256,uint256,bool) {... */\n    tag_125:\n        /* \"contracts/OrderBook.sol\":8259:8274  address payable */\n      0x00\n        /* \"contracts/OrderBook.sol\":8275:8282  uint256 */\n      dup1\n        /* \"contracts/OrderBook.sol\":8283:8290  uint256 */\n      0x00\n        /* \"contracts/OrderBook.sol\":8291:8296  State */\n      dup1\n        /* \"contracts/OrderBook.sol\":8297:8304  uint256 */\n      0x00\n        /* \"contracts/OrderBook.sol\":8305:8312  uint256 */\n      dup1\n        /* \"contracts/OrderBook.sol\":8313:8320  uint256 */\n      0x00\n        /* \"contracts/OrderBook.sol\":8321:8325  bool */\n      dup1\n        /* \"contracts/OrderBook.sol\":8209:8533  function getOrder(uint256 id) public view returns(address payable,uint256,uint256,State,uint256,uint256,uint256,bool) {... */\n      swap2\n      swap4\n      swap6\n      swap8\n      pop\n      swap2\n      swap4\n      swap6\n      swap8\n      jump\t// out\n        /* \"contracts/OrderBook.sol\":8895:8999  function getAskValue (uint256 id) public view returns(uint256) {... */\n    tag_131:\n        /* \"contracts/OrderBook.sol\":8949:8956  uint256 */\n      0x00\n        /* \"contracts/OrderBook.sol\":8975:8982  askBook */\n      0x07\n        /* \"contracts/OrderBook.sol\":8975:8986  askBook[id] */\n      0x00\n        /* \"contracts/OrderBook.sol\":8983:8985  id */\n      dup4\n        /* \"contracts/OrderBook.sol\":8975:8986  askBook[id] */\n      dup2\n      mstore\n      0x20\n      add\n      swap1\n      dup2\n      mstore\n      0x20\n      add\n      0x00\n      keccak256\n        /* \"contracts/OrderBook.sol\":8975:8992  askBook[id].value */\n      0x01\n      add\n      sload\n        /* \"contracts/OrderBook.sol\":8968:8992  return askBook[id].value */\n      swap1\n      pop\n        /* \"contracts/OrderBook.sol\":8895:8999  function getAskValue (uint256 id) public view returns(uint256) {... */\n      swap2\n      swap1\n      pop\n      jump\t// out\n        /* \"contracts/OrderBook.sol\":1998:2020  uint256 public askTail */\n    tag_135:\n      sload(0x09)\n      dup2\n      jump\t// out\n        /* \"contracts/OrderBook.sol\":3350:3828  function createAsk(address customer, uint256 value, uint256 timestamp) internal returns (order memory) {... */\n    tag_186:\n        /* \"contracts/OrderBook.sol\":3439:3451  order memory */\n      tag_221\n      tag_222\n      jump\t// in\n    tag_221:\n        /* \"contracts/OrderBook.sol\":3463:3471  askCount */\n      0x0a\n      0x00\n        /* \"contracts/OrderBook.sol\":3463:3474  askCount ++ */\n      dup2\n      sload\n      dup1\n      swap3\n      swap2\n      swap1\n      tag_224\n      swap1\n      tag_225\n      jump\t// in\n    tag_224:\n      swap2\n      swap1\n      pop\n      sstore\n      pop\n        /* \"contracts/OrderBook.sol\":3484:3503  order memory newAsk */\n      0x00\n        /* \"contracts/OrderBook.sol\":3506:3673  order(... */\n      mload(0x40)\n      dup1\n      0xe0\n      add\n      0x40\n      mstore\n      dup1\n        /* \"contracts/OrderBook.sol\":3533:3541  customer */\n      dup7\n        /* \"contracts/OrderBook.sol\":3506:3673  order(... */\n      0xffffffffffffffffffffffffffffffffffffffff\n      and\n      dup2\n      mstore\n      0x20\n      add\n        /* \"contracts/OrderBook.sol\":3556:3561  value */\n      dup6\n        /* \"contracts/OrderBook.sol\":3506:3673  order(... */\n      dup2\n      mstore\n      0x20\n      add\n        /* \"contracts/OrderBook.sol\":3575:3584  timestamp */\n      dup5\n        /* \"contracts/OrderBook.sol\":3506:3673  order(... */\n      dup2\n      mstore\n      0x20\n      add\n        /* \"contracts/OrderBook.sol\":3598:3611  State.pending */\n      0x00\n        /* \"contracts/OrderBook.sol\":3506:3673  order(... */\n      0x01\n      dup2\n      gt\n      iszero\n      tag_226\n      jumpi\n      tag_227\n      tag_143\n      jump\t// in\n    tag_227:\n    tag_226:\n      dup2\n      mstore\n      0x20\n      add\n        /* \"contracts/OrderBook.sol\":3625:3633  askCount */\n      sload(0x0a)\n        /* \"contracts/OrderBook.sol\":3506:3673  order(... */\n      dup2\n      mstore\n      0x20\n      add\n        /* \"contracts/OrderBook.sol\":3647:3648  0 */\n      0x00\n        /* \"contracts/OrderBook.sol\":3506:3673  order(... */\n      dup2\n      mstore\n      0x20\n      add\n        /* \"contracts/OrderBook.sol\":3662:3663  0 */\n      0x00\n        /* \"contracts/OrderBook.sol\":3506:3673  order(... */\n      dup2\n      mstore\n      pop\n        /* \"contracts/OrderBook.sol\":3484:3673  order memory newAsk = order(... */\n      swap1\n      pop\n        /* \"contracts/OrderBook.sol\":3703:3709  newAsk */\n      dup1\n        /* \"contracts/OrderBook.sol\":3683:3690  askBook */\n      0x07\n        /* \"contracts/OrderBook.sol\":3683:3700  askBook[askCount] */\n      0x00\n        /* \"contracts/OrderBook.sol\":3691:3699  askCount */\n      sload(0x0a)\n        /* \"contracts/OrderBook.sol\":3683:3700  askBook[askCount] */\n      dup2\n      mstore\n      0x20\n      add\n      swap1\n      dup2\n      mstore\n      0x20\n      add\n      0x00\n      keccak256\n        /* \"contracts/OrderBook.sol\":3683:3709  askBook[askCount] = newAsk */\n      0x00\n      dup3\n      add\n      mload\n      dup2\n      0x00\n      add\n      exp(0x0100, 0x00)\n      dup2\n      sload\n      dup2\n      0xffffffffffffffffffffffffffffffffffffffff\n      mul\n      not\n      and\n      swap1\n      dup4\n      0xffffffffffffffffffffffffffffffffffffffff\n      and\n      mul\n      or\n      swap1\n      sstore\n      pop\n      0x20\n      dup3\n      add\n      mload\n      dup2\n      0x01\n      add\n      sstore\n      0x40\n      dup3\n      add\n      mload\n      dup2\n      0x02\n      add\n      sstore\n      0x60\n      dup3\n      add\n      mload\n      dup2\n      0x03\n      add\n      exp(0x0100, 0x00)\n      dup2\n      sload\n      dup2\n      0xff\n      mul\n      not\n      and\n      swap1\n      dup4\n      0x01\n      dup2\n      gt\n      iszero\n      tag_228\n      jumpi\n      tag_229\n      tag_143\n      jump\t// in\n    tag_229:\n    tag_228:\n      mul\n      or\n      swap1\n      sstore\n      pop\n      0x80\n      dup3\n      add\n      mload\n      dup2\n      0x04\n      add\n      sstore\n      0xa0\n      dup3\n      add\n      mload\n      dup2\n      0x05\n      add\n      sstore\n      0xc0\n      dup3\n      add\n      mload\n      dup2\n      0x06\n      add\n      sstore\n      swap1\n      pop\n      pop\n        /* \"contracts/OrderBook.sol\":3724:3795  orderCreated(customer,value,timestamp,State.pending,askCount,0,0,false) */\n      0x93caf6ba1af44020dfe6076e279533e38bd8deefe534c43aa8cc93aad2025b7d\n        /* \"contracts/OrderBook.sol\":3737:3745  customer */\n      dup6\n        /* \"contracts/OrderBook.sol\":3746:3751  value */\n      dup6\n        /* \"contracts/OrderBook.sol\":3752:3761  timestamp */\n      dup6\n        /* \"contracts/OrderBook.sol\":3762:3775  State.pending */\n      0x00\n        /* \"contracts/OrderBook.sol\":3776:3784  askCount */\n      sload(0x0a)\n        /* \"contracts/OrderBook.sol\":3785:3786  0 */\n      0x00\n        /* \"contracts/OrderBook.sol\":3787:3788  0 */\n      dup1\n        /* \"contracts/OrderBook.sol\":3789:3794  false */\n      0x00\n        /* \"contracts/OrderBook.sol\":3724:3795  orderCreated(customer,value,timestamp,State.pending,askCount,0,0,false) */\n      mload(0x40)\n      tag_230\n      swap9\n      swap8\n      swap7\n      swap6\n      swap5\n      swap4\n      swap3\n      swap2\n      swap1\n      tag_231\n      jump\t// in\n    tag_230:\n      mload(0x40)\n      dup1\n      swap2\n      sub\n      swap1\n      log1\n        /* \"contracts/OrderBook.sol\":3815:3821  newAsk */\n      dup1\n        /* \"contracts/OrderBook.sol\":3808:3821  return newAsk */\n      swap2\n      pop\n      pop\n        /* \"contracts/OrderBook.sol\":3350:3828  function createAsk(address customer, uint256 value, uint256 timestamp) internal returns (order memory) {... */\n      swap4\n      swap3\n      pop\n      pop\n      pop\n      jump\t// out\n        /* \"contracts/OrderBook.sol\":4613:5446  function sortAsk(order memory newOrder) internal {... */\n    tag_188:\n        /* \"contracts/OrderBook.sol\":4672:4687  uint256 current */\n      0x00\n        /* \"contracts/OrderBook.sol\":4712:4713  0 */\n      dup1\n        /* \"contracts/OrderBook.sol\":4701:4708  askHead */\n      sload(0x08)\n        /* \"contracts/OrderBook.sol\":4701:4713  askHead == 0 */\n      sub\n        /* \"contracts/OrderBook.sol\":4697:5440  if (askHead == 0) {... */\n      tag_233\n      jumpi\n        /* \"contracts/OrderBook.sol\":4739:4747  newOrder */\n      dup2\n        /* \"contracts/OrderBook.sol\":4739:4750  newOrder.id */\n      0x80\n      add\n      mload\n        /* \"contracts/OrderBook.sol\":4729:4736  askHead */\n      0x08\n        /* \"contracts/OrderBook.sol\":4729:4750  askHead = newOrder.id */\n      dup2\n      swap1\n      sstore\n      pop\n        /* \"contracts/OrderBook.sol\":4697:5440  if (askHead == 0) {... */\n      jump(tag_234)\n    tag_233:\n        /* \"contracts/OrderBook.sol\":4805:4813  newOrder */\n      dup2\n        /* \"contracts/OrderBook.sol\":4805:4819  newOrder.value */\n      0x20\n      add\n      mload\n        /* \"contracts/OrderBook.sol\":4779:4786  askBook */\n      0x07\n        /* \"contracts/OrderBook.sol\":4779:4795  askBook[askHead] */\n      0x00\n        /* \"contracts/OrderBook.sol\":4787:4794  askHead */\n      sload(0x08)\n        /* \"contracts/OrderBook.sol\":4779:4795  askBook[askHead] */\n      dup2\n      mstore\n      0x20\n      add\n      swap1\n      dup2\n      mstore\n      0x20\n      add\n      0x00\n      keccak256\n        /* \"contracts/OrderBook.sol\":4779:4801  askBook[askHead].value */\n      0x01\n      add\n      sload\n        /* \"contracts/OrderBook.sol\":4779:4819  askBook[askHead].value >= newOrder.value */\n      lt\n        /* \"contracts/OrderBook.sol\":4775:5440  if (askBook[askHead].value >= newOrder.value) {... */\n      tag_235\n      jumpi\n        /* \"contracts/OrderBook.sol\":4851:4858  askHead */\n      sload(0x08)\n        /* \"contracts/OrderBook.sol\":4835:4843  newOrder */\n      dup3\n        /* \"contracts/OrderBook.sol\":4835:4848  newOrder.next */\n      0xa0\n      add\n        /* \"contracts/OrderBook.sol\":4835:4858  newOrder.next = askHead */\n      dup2\n      dup2\n      mstore\n      pop\n      pop\n        /* \"contracts/OrderBook.sol\":4902:4910  newOrder */\n      dup2\n        /* \"contracts/OrderBook.sol\":4902:4913  newOrder.id */\n      0x80\n      add\n      mload\n        /* \"contracts/OrderBook.sol\":4872:4879  askBook */\n      0x07\n        /* \"contracts/OrderBook.sol\":4872:4894  askBook[newOrder.next] */\n      0x00\n        /* \"contracts/OrderBook.sol\":4880:4888  newOrder */\n      dup5\n        /* \"contracts/OrderBook.sol\":4880:4893  newOrder.next */\n      0xa0\n      add\n      mload\n        /* \"contracts/OrderBook.sol\":4872:4894  askBook[newOrder.next] */\n      dup2\n      mstore\n      0x20\n      add\n      swap1\n      dup2\n      mstore\n      0x20\n      add\n      0x00\n      keccak256\n        /* \"contracts/OrderBook.sol\":4872:4899  askBook[newOrder.next].prev */\n      0x06\n      add\n        /* \"contracts/OrderBook.sol\":4872:4913  askBook[newOrder.next].prev = newOrder.id */\n      dup2\n      swap1\n      sstore\n      pop\n        /* \"contracts/OrderBook.sol\":4937:4945  newOrder */\n      dup2\n        /* \"contracts/OrderBook.sol\":4937:4948  newOrder.id */\n      0x80\n      add\n      mload\n        /* \"contracts/OrderBook.sol\":4927:4934  askHead */\n      0x08\n        /* \"contracts/OrderBook.sol\":4927:4948  askHead = newOrder.id */\n      dup2\n      swap1\n      sstore\n      pop\n        /* \"contracts/OrderBook.sol\":4775:5440  if (askBook[askHead].value >= newOrder.value) {... */\n      jump(tag_236)\n    tag_235:\n        /* \"contracts/OrderBook.sol\":4997:5004  askHead */\n      sload(0x08)\n        /* \"contracts/OrderBook.sol\":4987:5004  current = askHead */\n      swap1\n      pop\n        /* \"contracts/OrderBook.sol\":5018:5174  while (askBook[current].next != 0 && askBook[askBook[current].next].value < newOrder.value) {... */\n    tag_237:\n        /* \"contracts/OrderBook.sol\":5050:5051  0 */\n      0x00\n        /* \"contracts/OrderBook.sol\":5025:5032  askBook */\n      0x07\n        /* \"contracts/OrderBook.sol\":5025:5041  askBook[current] */\n      0x00\n        /* \"contracts/OrderBook.sol\":5033:5040  current */\n      dup4\n        /* \"contracts/OrderBook.sol\":5025:5041  askBook[current] */\n      dup2\n      mstore\n      0x20\n      add\n      swap1\n      dup2\n      mstore\n      0x20\n      add\n      0x00\n      keccak256\n        /* \"contracts/OrderBook.sol\":5025:5046  askBook[current].next */\n      0x05\n      add\n      sload\n        /* \"contracts/OrderBook.sol\":5025:5051  askBook[current].next != 0 */\n      eq\n      iszero\n        /* \"contracts/OrderBook.sol\":5025:5108  askBook[current].next != 0 && askBook[askBook[current].next].value < newOrder.value */\n      dup1\n      iszero\n      tag_239\n      jumpi\n      pop\n        /* \"contracts/OrderBook.sol\":5094:5102  newOrder */\n      dup2\n        /* \"contracts/OrderBook.sol\":5094:5108  newOrder.value */\n      0x20\n      add\n      mload\n        /* \"contracts/OrderBook.sol\":5055:5062  askBook */\n      0x07\n        /* \"contracts/OrderBook.sol\":5055:5085  askBook[askBook[current].next] */\n      0x00\n        /* \"contracts/OrderBook.sol\":5063:5070  askBook */\n      0x07\n        /* \"contracts/OrderBook.sol\":5063:5079  askBook[current] */\n      0x00\n        /* \"contracts/OrderBook.sol\":5071:5078  current */\n      dup6\n        /* \"contracts/OrderBook.sol\":5063:5079  askBook[current] */\n      dup2\n      mstore\n      0x20\n      add\n      swap1\n      dup2\n      mstore\n      0x20\n      add\n      0x00\n      keccak256\n        /* \"contracts/OrderBook.sol\":5063:5084  askBook[current].next */\n      0x05\n      add\n      sload\n        /* \"contracts/OrderBook.sol\":5055:5085  askBook[askBook[current].next] */\n      dup2\n      mstore\n      0x20\n      add\n      swap1\n      dup2\n      mstore\n      0x20\n      add\n      0x00\n      keccak256\n        /* \"contracts/OrderBook.sol\":5055:5091  askBook[askBook[current].next].value */\n      0x01\n      add\n      sload\n        /* \"contracts/OrderBook.sol\":5055:5108  askBook[askBook[current].next].value < newOrder.value */\n      lt\n        /* \"contracts/OrderBook.sol\":5025:5108  askBook[current].next != 0 && askBook[askBook[current].next].value < newOrder.value */\n    tag_239:\n        /* \"contracts/OrderBook.sol\":5018:5174  while (askBook[current].next != 0 && askBook[askBook[current].next].value < newOrder.value) {... */\n      iszero\n      tag_238\n      jumpi\n        /* \"contracts/OrderBook.sol\":5138:5145  askBook */\n      0x07\n        /* \"contracts/OrderBook.sol\":5138:5154  askBook[current] */\n      0x00\n        /* \"contracts/OrderBook.sol\":5146:5153  current */\n      dup3\n        /* \"contracts/OrderBook.sol\":5138:5154  askBook[current] */\n      dup2\n      mstore\n      0x20\n      add\n      swap1\n      dup2\n      mstore\n      0x20\n      add\n      0x00\n      keccak256\n        /* \"contracts/OrderBook.sol\":5138:5159  askBook[current].next */\n      0x05\n      add\n      sload\n        /* \"contracts/OrderBook.sol\":5128:5159  current = askBook[current].next */\n      swap1\n      pop\n        /* \"contracts/OrderBook.sol\":5018:5174  while (askBook[current].next != 0 && askBook[askBook[current].next].value < newOrder.value) {... */\n      jump(tag_237)\n    tag_238:\n        /* \"contracts/OrderBook.sol\":5203:5210  askBook */\n      0x07\n        /* \"contracts/OrderBook.sol\":5203:5219  askBook[current] */\n      0x00\n        /* \"contracts/OrderBook.sol\":5211:5218  current */\n      dup3\n        /* \"contracts/OrderBook.sol\":5203:5219  askBook[current] */\n      dup2\n      mstore\n      0x20\n      add\n      swap1\n      dup2\n      mstore\n      0x20\n      add\n      0x00\n      keccak256\n        /* \"contracts/OrderBook.sol\":5203:5224  askBook[current].next */\n      0x05\n      add\n      sload\n        /* \"contracts/OrderBook.sol\":5187:5195  newOrder */\n      dup3\n        /* \"contracts/OrderBook.sol\":5187:5200  newOrder.next */\n      0xa0\n      add\n        /* \"contracts/OrderBook.sol\":5187:5224  newOrder.next = askBook[current].next */\n      dup2\n      dup2\n      mstore\n      pop\n      pop\n        /* \"contracts/OrderBook.sol\":5267:5268  0 */\n      0x00\n        /* \"contracts/OrderBook.sol\":5242:5249  askBook */\n      0x07\n        /* \"contracts/OrderBook.sol\":5242:5258  askBook[current] */\n      0x00\n        /* \"contracts/OrderBook.sol\":5250:5257  current */\n      dup4\n        /* \"contracts/OrderBook.sol\":5242:5258  askBook[current] */\n      dup2\n      mstore\n      0x20\n      add\n      swap1\n      dup2\n      mstore\n      0x20\n      add\n      0x00\n      keccak256\n        /* \"contracts/OrderBook.sol\":5242:5263  askBook[current].next */\n      0x05\n      add\n      sload\n        /* \"contracts/OrderBook.sol\":5242:5268  askBook[current].next != 0 */\n      eq\n        /* \"contracts/OrderBook.sol\":5238:5344  if (askBook[current].next != 0) {... */\n      tag_240\n      jumpi\n        /* \"contracts/OrderBook.sol\":5318:5326  newOrder */\n      dup2\n        /* \"contracts/OrderBook.sol\":5318:5329  newOrder.id */\n      0x80\n      add\n      mload\n        /* \"contracts/OrderBook.sol\":5288:5295  askBook */\n      0x07\n        /* \"contracts/OrderBook.sol\":5288:5310  askBook[newOrder.next] */\n      0x00\n        /* \"contracts/OrderBook.sol\":5296:5304  newOrder */\n      dup5\n        /* \"contracts/OrderBook.sol\":5296:5309  newOrder.next */\n      0xa0\n      add\n      mload\n        /* \"contracts/OrderBook.sol\":5288:5310  askBook[newOrder.next] */\n      dup2\n      mstore\n      0x20\n      add\n      swap1\n      dup2\n      mstore\n      0x20\n      add\n      0x00\n      keccak256\n        /* \"contracts/OrderBook.sol\":5288:5315  askBook[newOrder.next].prev */\n      0x06\n      add\n        /* \"contracts/OrderBook.sol\":5288:5329  askBook[newOrder.next].prev = newOrder.id */\n      dup2\n      swap1\n      sstore\n      pop\n        /* \"contracts/OrderBook.sol\":5238:5344  if (askBook[current].next != 0) {... */\n    tag_240:\n        /* \"contracts/OrderBook.sol\":5381:5389  newOrder */\n      dup2\n        /* \"contracts/OrderBook.sol\":5381:5392  newOrder.id */\n      0x80\n      add\n      mload\n        /* \"contracts/OrderBook.sol\":5357:5364  askBook */\n      0x07\n        /* \"contracts/OrderBook.sol\":5357:5373  askBook[current] */\n      0x00\n        /* \"contracts/OrderBook.sol\":5365:5372  current */\n      dup4\n        /* \"contracts/OrderBook.sol\":5357:5373  askBook[current] */\n      dup2\n      mstore\n      0x20\n      add\n      swap1\n      dup2\n      mstore\n      0x20\n      add\n      0x00\n      keccak256\n        /* \"contracts/OrderBook.sol\":5357:5378  askBook[current].next */\n      0x05\n      add\n        /* \"contracts/OrderBook.sol\":5357:5392  askBook[current].next = newOrder.id */\n      dup2\n      swap1\n      sstore\n      pop\n        /* \"contracts/OrderBook.sol\":5422:5429  current */\n      dup1\n        /* \"contracts/OrderBook.sol\":5406:5414  newOrder */\n      dup3\n        /* \"contracts/OrderBook.sol\":5406:5419  newOrder.prev */\n      0xc0\n      add\n        /* \"contracts/OrderBook.sol\":5406:5429  newOrder.prev = current */\n      dup2\n      dup2\n      mstore\n      pop\n      pop\n        /* \"contracts/OrderBook.sol\":4775:5440  if (askBook[askHead].value >= newOrder.value) {... */\n    tag_236:\n        /* \"contracts/OrderBook.sol\":4697:5440  if (askHead == 0) {... */\n    tag_234:\n        /* \"contracts/OrderBook.sol\":4662:5446  {... */\n      pop\n        /* \"contracts/OrderBook.sol\":4613:5446  function sortAsk(order memory newOrder) internal {... */\n      pop\n      jump\t// out\n    tag_222:\n      mload(0x40)\n      dup1\n      0xe0\n      add\n      0x40\n      mstore\n      dup1\n      and(0xffffffffffffffffffffffffffffffffffffffff, 0x00)\n      dup2\n      mstore\n      0x20\n      add\n      0x00\n      dup2\n      mstore\n      0x20\n      add\n      0x00\n      dup2\n      mstore\n      0x20\n      add\n      0x00\n      0x01\n      dup2\n      gt\n      iszero\n      tag_241\n      jumpi\n      tag_242\n      tag_143\n      jump\t// in\n    tag_242:\n    tag_241:\n      dup2\n      mstore\n      0x20\n      add\n      0x00\n      dup2\n      mstore\n      0x20\n      add\n      0x00\n      dup2\n      mstore\n      0x20\n      add\n      0x00\n      dup2\n      mstore\n      pop\n      swap1\n      jump\t// out\n        /* \"#utility.yul\":7:82   */\n    tag_243:\n        /* \"#utility.yul\":40:46   */\n      0x00\n        /* \"#utility.yul\":73:75   */\n      0x40\n        /* \"#utility.yul\":67:76   */\n      mload\n        /* \"#utility.yul\":57:76   */\n      swap1\n      pop\n        /* \"#utility.yul\":7:82   */\n      swap1\n      jump\t// out\n        /* \"#utility.yul\":88:205   */\n    tag_244:\n        /* \"#utility.yul\":197:198   */\n      0x00\n        /* \"#utility.yul\":194:195   */\n      dup1\n        /* \"#utility.yul\":187:199   */\n      revert\n        /* \"#utility.yul\":211:328   */\n    tag_245:\n        /* \"#utility.yul\":320:321   */\n      0x00\n        /* \"#utility.yul\":317:318   */\n      dup1\n        /* \"#utility.yul\":310:322   */\n      revert\n        /* \"#utility.yul\":334:451   */\n    tag_246:\n        /* \"#utility.yul\":443:444   */\n      0x00\n        /* \"#utility.yul\":440:441   */\n      dup1\n        /* \"#utility.yul\":433:445   */\n      revert\n        /* \"#utility.yul\":457:574   */\n    tag_247:\n        /* \"#utility.yul\":566:567   */\n      0x00\n        /* \"#utility.yul\":563:564   */\n      dup1\n        /* \"#utility.yul\":556:568   */\n      revert\n        /* \"#utility.yul\":580:682   */\n    tag_248:\n        /* \"#utility.yul\":621:627   */\n      0x00\n        /* \"#utility.yul\":672:674   */\n      0x1f\n        /* \"#utility.yul\":668:675   */\n      not\n        /* \"#utility.yul\":663:665   */\n      0x1f\n        /* \"#utility.yul\":656:661   */\n      dup4\n        /* \"#utility.yul\":652:666   */\n      add\n        /* \"#utility.yul\":648:676   */\n      and\n        /* \"#utility.yul\":638:676   */\n      swap1\n      pop\n        /* \"#utility.yul\":580:682   */\n      swap2\n      swap1\n      pop\n      jump\t// out\n        /* \"#utility.yul\":688:868   */\n    tag_249:\n        /* \"#utility.yul\":736:813   */\n      0x4e487b7100000000000000000000000000000000000000000000000000000000\n        /* \"#utility.yul\":733:734   */\n      0x00\n        /* \"#utility.yul\":726:814   */\n      mstore\n        /* \"#utility.yul\":833:837   */\n      0x41\n        /* \"#utility.yul\":830:831   */\n      0x04\n        /* \"#utility.yul\":823:838   */\n      mstore\n        /* \"#utility.yul\":857:861   */\n      0x24\n        /* \"#utility.yul\":854:855   */\n      0x00\n        /* \"#utility.yul\":847:862   */\n      revert\n        /* \"#utility.yul\":874:1155   */\n    tag_250:\n        /* \"#utility.yul\":957:984   */\n      tag_326\n        /* \"#utility.yul\":979:983   */\n      dup3\n        /* \"#utility.yul\":957:984   */\n      tag_248\n      jump\t// in\n    tag_326:\n        /* \"#utility.yul\":949:955   */\n      dup2\n        /* \"#utility.yul\":945:985   */\n      add\n        /* \"#utility.yul\":1087:1093   */\n      dup2\n        /* \"#utility.yul\":1075:1085   */\n      dup2\n        /* \"#utility.yul\":1072:1094   */\n      lt\n        /* \"#utility.yul\":1051:1069   */\n      0xffffffffffffffff\n        /* \"#utility.yul\":1039:1049   */\n      dup3\n        /* \"#utility.yul\":1036:1070   */\n      gt\n        /* \"#utility.yul\":1033:1095   */\n      or\n        /* \"#utility.yul\":1030:1118   */\n      iszero\n      tag_327\n      jumpi\n        /* \"#utility.yul\":1098:1116   */\n      tag_328\n      tag_249\n      jump\t// in\n    tag_328:\n        /* \"#utility.yul\":1030:1118   */\n    tag_327:\n        /* \"#utility.yul\":1138:1148   */\n      dup1\n        /* \"#utility.yul\":1134:1136   */\n      0x40\n        /* \"#utility.yul\":1127:1149   */\n      mstore\n        /* \"#utility.yul\":917:1155   */\n      pop\n        /* \"#utility.yul\":874:1155   */\n      pop\n      pop\n      jump\t// out\n        /* \"#utility.yul\":1161:1290   */\n    tag_251:\n        /* \"#utility.yul\":1195:1201   */\n      0x00\n        /* \"#utility.yul\":1222:1242   */\n      tag_330\n      tag_243\n      jump\t// in\n    tag_330:\n        /* \"#utility.yul\":1212:1242   */\n      swap1\n      pop\n        /* \"#utility.yul\":1251:1284   */\n      tag_331\n        /* \"#utility.yul\":1279:1283   */\n      dup3\n        /* \"#utility.yul\":1271:1277   */\n      dup3\n        /* \"#utility.yul\":1251:1284   */\n      tag_250\n      jump\t// in\n    tag_331:\n        /* \"#utility.yul\":1161:1290   */\n      swap2\n      swap1\n      pop\n      jump\t// out\n        /* \"#utility.yul\":1296:1604   */\n    tag_252:\n        /* \"#utility.yul\":1358:1362   */\n      0x00\n        /* \"#utility.yul\":1448:1466   */\n      0xffffffffffffffff\n        /* \"#utility.yul\":1440:1446   */\n      dup3\n        /* \"#utility.yul\":1437:1467   */\n      gt\n        /* \"#utility.yul\":1434:1490   */\n      iszero\n      tag_333\n      jumpi\n        /* \"#utility.yul\":1470:1488   */\n      tag_334\n      tag_249\n      jump\t// in\n    tag_334:\n        /* \"#utility.yul\":1434:1490   */\n    tag_333:\n        /* \"#utility.yul\":1508:1537   */\n      tag_335\n        /* \"#utility.yul\":1530:1536   */\n      dup3\n        /* \"#utility.yul\":1508:1537   */\n      tag_248\n      jump\t// in\n    tag_335:\n        /* \"#utility.yul\":1500:1537   */\n      swap1\n      pop\n        /* \"#utility.yul\":1592:1596   */\n      0x20\n        /* \"#utility.yul\":1586:1590   */\n      dup2\n        /* \"#utility.yul\":1582:1597   */\n      add\n        /* \"#utility.yul\":1574:1597   */\n      swap1\n      pop\n        /* \"#utility.yul\":1296:1604   */\n      swap2\n      swap1\n      pop\n      jump\t// out\n        /* \"#utility.yul\":1610:1764   */\n    tag_253:\n        /* \"#utility.yul\":1694:1700   */\n      dup3\n        /* \"#utility.yul\":1689:1692   */\n      dup2\n        /* \"#utility.yul\":1684:1687   */\n      dup4\n        /* \"#utility.yul\":1671:1701   */\n      calldatacopy\n        /* \"#utility.yul\":1756:1757   */\n      0x00\n        /* \"#utility.yul\":1747:1753   */\n      dup4\n        /* \"#utility.yul\":1742:1745   */\n      dup4\n        /* \"#utility.yul\":1738:1754   */\n      add\n        /* \"#utility.yul\":1731:1758   */\n      mstore\n        /* \"#utility.yul\":1610:1764   */\n      pop\n      pop\n      pop\n      jump\t// out\n        /* \"#utility.yul\":1770:2182   */\n    tag_254:\n        /* \"#utility.yul\":1848:1853   */\n      0x00\n        /* \"#utility.yul\":1873:1939   */\n      tag_338\n        /* \"#utility.yul\":1889:1938   */\n      tag_339\n        /* \"#utility.yul\":1931:1937   */\n      dup5\n        /* \"#utility.yul\":1889:1938   */\n      tag_252\n      jump\t// in\n    tag_339:\n        /* \"#utility.yul\":1873:1939   */\n      tag_251\n      jump\t// in\n    tag_338:\n        /* \"#utility.yul\":1864:1939   */\n      swap1\n      pop\n        /* \"#utility.yul\":1962:1968   */\n      dup3\n        /* \"#utility.yul\":1955:1960   */\n      dup2\n        /* \"#utility.yul\":1948:1969   */\n      mstore\n        /* \"#utility.yul\":2000:2004   */\n      0x20\n        /* \"#utility.yul\":1993:1998   */\n      dup2\n        /* \"#utility.yul\":1989:2005   */\n      add\n        /* \"#utility.yul\":2038:2041   */\n      dup5\n        /* \"#utility.yul\":2029:2035   */\n      dup5\n        /* \"#utility.yul\":2024:2027   */\n      dup5\n        /* \"#utility.yul\":2020:2036   */\n      add\n        /* \"#utility.yul\":2017:2042   */\n      gt\n        /* \"#utility.yul\":2014:2126   */\n      iszero\n      tag_340\n      jumpi\n        /* \"#utility.yul\":2045:2124   */\n      tag_341\n      tag_247\n      jump\t// in\n    tag_341:\n        /* \"#utility.yul\":2014:2126   */\n    tag_340:\n        /* \"#utility.yul\":2135:2176   */\n      tag_342\n        /* \"#utility.yul\":2169:2175   */\n      dup5\n        /* \"#utility.yul\":2164:2167   */\n      dup3\n        /* \"#utility.yul\":2159:2162   */\n      dup6\n        /* \"#utility.yul\":2135:2176   */\n      tag_253\n      jump\t// in\n    tag_342:\n        /* \"#utility.yul\":1854:2182   */\n      pop\n        /* \"#utility.yul\":1770:2182   */\n      swap4\n      swap3\n      pop\n      pop\n      pop\n      jump\t// out\n        /* \"#utility.yul\":2202:2542   */\n    tag_255:\n        /* \"#utility.yul\":2258:2263   */\n      0x00\n        /* \"#utility.yul\":2307:2310   */\n      dup3\n        /* \"#utility.yul\":2300:2304   */\n      0x1f\n        /* \"#utility.yul\":2292:2298   */\n      dup4\n        /* \"#utility.yul\":2288:2305   */\n      add\n        /* \"#utility.yul\":2284:2311   */\n      slt\n        /* \"#utility.yul\":2274:2396   */\n      tag_344\n      jumpi\n        /* \"#utility.yul\":2315:2394   */\n      tag_345\n      tag_246\n      jump\t// in\n    tag_345:\n        /* \"#utility.yul\":2274:2396   */\n    tag_344:\n        /* \"#utility.yul\":2432:2438   */\n      dup2\n        /* \"#utility.yul\":2419:2439   */\n      calldataload\n        /* \"#utility.yul\":2457:2536   */\n      tag_346\n        /* \"#utility.yul\":2532:2535   */\n      dup5\n        /* \"#utility.yul\":2524:2530   */\n      dup3\n        /* \"#utility.yul\":2517:2521   */\n      0x20\n        /* \"#utility.yul\":2509:2515   */\n      dup7\n        /* \"#utility.yul\":2505:2522   */\n      add\n        /* \"#utility.yul\":2457:2536   */\n      tag_254\n      jump\t// in\n    tag_346:\n        /* \"#utility.yul\":2448:2536   */\n      swap2\n      pop\n        /* \"#utility.yul\":2264:2542   */\n      pop\n        /* \"#utility.yul\":2202:2542   */\n      swap3\n      swap2\n      pop\n      pop\n      jump\t// out\n        /* \"#utility.yul\":2548:2625   */\n    tag_256:\n        /* \"#utility.yul\":2585:2592   */\n      0x00\n        /* \"#utility.yul\":2614:2619   */\n      dup2\n        /* \"#utility.yul\":2603:2619   */\n      swap1\n      pop\n        /* \"#utility.yul\":2548:2625   */\n      swap2\n      swap1\n      pop\n      jump\t// out\n        /* \"#utility.yul\":2631:2753   */\n    tag_257:\n        /* \"#utility.yul\":2704:2728   */\n      tag_349\n        /* \"#utility.yul\":2722:2727   */\n      dup2\n        /* \"#utility.yul\":2704:2728   */\n      tag_256\n      jump\t// in\n    tag_349:\n        /* \"#utility.yul\":2697:2702   */\n      dup2\n        /* \"#utility.yul\":2694:2729   */\n      eq\n        /* \"#utility.yul\":2684:2747   */\n      tag_350\n      jumpi\n        /* \"#utility.yul\":2743:2744   */\n      0x00\n        /* \"#utility.yul\":2740:2741   */\n      dup1\n        /* \"#utility.yul\":2733:2745   */\n      revert\n        /* \"#utility.yul\":2684:2747   */\n    tag_350:\n        /* \"#utility.yul\":2631:2753   */\n      pop\n      jump\t// out\n        /* \"#utility.yul\":2759:2898   */\n    tag_258:\n        /* \"#utility.yul\":2805:2810   */\n      0x00\n        /* \"#utility.yul\":2843:2849   */\n      dup2\n        /* \"#utility.yul\":2830:2850   */\n      calldataload\n        /* \"#utility.yul\":2821:2850   */\n      swap1\n      pop\n        /* \"#utility.yul\":2859:2892   */\n      tag_352\n        /* \"#utility.yul\":2886:2891   */\n      dup2\n        /* \"#utility.yul\":2859:2892   */\n      tag_257\n      jump\t// in\n    tag_352:\n        /* \"#utility.yul\":2759:2898   */\n      swap3\n      swap2\n      pop\n      pop\n      jump\t// out\n        /* \"#utility.yul\":2904:3558   */\n    tag_31:\n        /* \"#utility.yul\":2982:2988   */\n      0x00\n        /* \"#utility.yul\":2990:2996   */\n      dup1\n        /* \"#utility.yul\":3039:3041   */\n      0x40\n        /* \"#utility.yul\":3027:3036   */\n      dup4\n        /* \"#utility.yul\":3018:3025   */\n      dup6\n        /* \"#utility.yul\":3014:3037   */\n      sub\n        /* \"#utility.yul\":3010:3042   */\n      slt\n        /* \"#utility.yul\":3007:3126   */\n      iszero\n      tag_354\n      jumpi\n        /* \"#utility.yul\":3045:3124   */\n      tag_355\n      tag_244\n      jump\t// in\n    tag_355:\n        /* \"#utility.yul\":3007:3126   */\n    tag_354:\n        /* \"#utility.yul\":3193:3194   */\n      0x00\n        /* \"#utility.yul\":3182:3191   */\n      dup4\n        /* \"#utility.yul\":3178:3195   */\n      add\n        /* \"#utility.yul\":3165:3196   */\n      calldataload\n        /* \"#utility.yul\":3223:3241   */\n      0xffffffffffffffff\n        /* \"#utility.yul\":3215:3221   */\n      dup2\n        /* \"#utility.yul\":3212:3242   */\n      gt\n        /* \"#utility.yul\":3209:3326   */\n      iszero\n      tag_356\n      jumpi\n        /* \"#utility.yul\":3245:3324   */\n      tag_357\n      tag_245\n      jump\t// in\n    tag_357:\n        /* \"#utility.yul\":3209:3326   */\n    tag_356:\n        /* \"#utility.yul\":3350:3413   */\n      tag_358\n        /* \"#utility.yul\":3405:3412   */\n      dup6\n        /* \"#utility.yul\":3396:3402   */\n      dup3\n        /* \"#utility.yul\":3385:3394   */\n      dup7\n        /* \"#utility.yul\":3381:3403   */\n      add\n        /* \"#utility.yul\":3350:3413   */\n      tag_255\n      jump\t// in\n    tag_358:\n        /* \"#utility.yul\":3340:3413   */\n      swap3\n      pop\n        /* \"#utility.yul\":3136:3423   */\n      pop\n        /* \"#utility.yul\":3462:3464   */\n      0x20\n        /* \"#utility.yul\":3488:3541   */\n      tag_359\n        /* \"#utility.yul\":3533:3540   */\n      dup6\n        /* \"#utility.yul\":3524:3530   */\n      dup3\n        /* \"#utility.yul\":3513:3522   */\n      dup7\n        /* \"#utility.yul\":3509:3531   */\n      add\n        /* \"#utility.yul\":3488:3541   */\n      tag_258\n      jump\t// in\n    tag_359:\n        /* \"#utility.yul\":3478:3541   */\n      swap2\n      pop\n        /* \"#utility.yul\":3433:3551   */\n      pop\n        /* \"#utility.yul\":2904:3558   */\n      swap3\n      pop\n      swap3\n      swap1\n      pop\n      jump\t// out\n        /* \"#utility.yul\":3564:3663   */\n    tag_259:\n        /* \"#utility.yul\":3616:3622   */\n      0x00\n        /* \"#utility.yul\":3650:3655   */\n      dup2\n        /* \"#utility.yul\":3644:3656   */\n      mload\n        /* \"#utility.yul\":3634:3656   */\n      swap1\n      pop\n        /* \"#utility.yul\":3564:3663   */\n      swap2\n      swap1\n      pop\n      jump\t// out\n        /* \"#utility.yul\":3669:3838   */\n    tag_260:\n        /* \"#utility.yul\":3753:3764   */\n      0x00\n        /* \"#utility.yul\":3787:3793   */\n      dup3\n        /* \"#utility.yul\":3782:3785   */\n      dup3\n        /* \"#utility.yul\":3775:3794   */\n      mstore\n        /* \"#utility.yul\":3827:3831   */\n      0x20\n        /* \"#utility.yul\":3822:3825   */\n      dup3\n        /* \"#utility.yul\":3818:3832   */\n      add\n        /* \"#utility.yul\":3803:3832   */\n      swap1\n      pop\n        /* \"#utility.yul\":3669:3838   */\n      swap3\n      swap2\n      pop\n      pop\n      jump\t// out\n        /* \"#utility.yul\":3844:4151   */\n    tag_261:\n        /* \"#utility.yul\":3912:3913   */\n      0x00\n        /* \"#utility.yul\":3922:4035   */\n    tag_363:\n        /* \"#utility.yul\":3936:3942   */\n      dup4\n        /* \"#utility.yul\":3933:3934   */\n      dup2\n        /* \"#utility.yul\":3930:3943   */\n      lt\n        /* \"#utility.yul\":3922:4035   */\n      iszero\n      tag_365\n      jumpi\n        /* \"#utility.yul\":4021:4022   */\n      dup1\n        /* \"#utility.yul\":4016:4019   */\n      dup3\n        /* \"#utility.yul\":4012:4023   */\n      add\n        /* \"#utility.yul\":4006:4024   */\n      mload\n        /* \"#utility.yul\":4002:4003   */\n      dup2\n        /* \"#utility.yul\":3997:4000   */\n      dup5\n        /* \"#utility.yul\":3993:4004   */\n      add\n        /* \"#utility.yul\":3986:4025   */\n      mstore\n        /* \"#utility.yul\":3958:3960   */\n      0x20\n        /* \"#utility.yul\":3955:3956   */\n      dup2\n        /* \"#utility.yul\":3951:3961   */\n      add\n        /* \"#utility.yul\":3946:3961   */\n      swap1\n      pop\n        /* \"#utility.yul\":3922:4035   */\n      jump(tag_363)\n    tag_365:\n        /* \"#utility.yul\":4053:4059   */\n      dup4\n        /* \"#utility.yul\":4050:4051   */\n      dup2\n        /* \"#utility.yul\":4047:4060   */\n      gt\n        /* \"#utility.yul\":4044:4145   */\n      iszero\n      tag_366\n      jumpi\n        /* \"#utility.yul\":4133:4134   */\n      0x00\n        /* \"#utility.yul\":4124:4130   */\n      dup5\n        /* \"#utility.yul\":4119:4122   */\n      dup5\n        /* \"#utility.yul\":4115:4131   */\n      add\n        /* \"#utility.yul\":4108:4135   */\n      mstore\n        /* \"#utility.yul\":4044:4145   */\n    tag_366:\n        /* \"#utility.yul\":3893:4151   */\n      pop\n        /* \"#utility.yul\":3844:4151   */\n      pop\n      pop\n      pop\n      jump\t// out\n        /* \"#utility.yul\":4157:4521   */\n    tag_262:\n        /* \"#utility.yul\":4245:4248   */\n      0x00\n        /* \"#utility.yul\":4273:4312   */\n      tag_368\n        /* \"#utility.yul\":4306:4311   */\n      dup3\n        /* \"#utility.yul\":4273:4312   */\n      tag_259\n      jump\t// in\n    tag_368:\n        /* \"#utility.yul\":4328:4399   */\n      tag_369\n        /* \"#utility.yul\":4392:4398   */\n      dup2\n        /* \"#utility.yul\":4387:4390   */\n      dup6\n        /* \"#utility.yul\":4328:4399   */\n      tag_260\n      jump\t// in\n    tag_369:\n        /* \"#utility.yul\":4321:4399   */\n      swap4\n      pop\n        /* \"#utility.yul\":4408:4460   */\n      tag_370\n        /* \"#utility.yul\":4453:4459   */\n      dup2\n        /* \"#utility.yul\":4448:4451   */\n      dup6\n        /* \"#utility.yul\":4441:4445   */\n      0x20\n        /* \"#utility.yul\":4434:4439   */\n      dup7\n        /* \"#utility.yul\":4430:4446   */\n      add\n        /* \"#utility.yul\":4408:4460   */\n      tag_261\n      jump\t// in\n    tag_370:\n        /* \"#utility.yul\":4485:4514   */\n      tag_371\n        /* \"#utility.yul\":4507:4513   */\n      dup2\n        /* \"#utility.yul\":4485:4514   */\n      tag_248\n      jump\t// in\n    tag_371:\n        /* \"#utility.yul\":4480:4483   */\n      dup5\n        /* \"#utility.yul\":4476:4515   */\n      add\n        /* \"#utility.yul\":4469:4515   */\n      swap2\n      pop\n        /* \"#utility.yul\":4249:4521   */\n      pop\n        /* \"#utility.yul\":4157:4521   */\n      swap3\n      swap2\n      pop\n      pop\n      jump\t// out\n        /* \"#utility.yul\":4527:4840   */\n    tag_34:\n        /* \"#utility.yul\":4640:4644   */\n      0x00\n        /* \"#utility.yul\":4678:4680   */\n      0x20\n        /* \"#utility.yul\":4667:4676   */\n      dup3\n        /* \"#utility.yul\":4663:4681   */\n      add\n        /* \"#utility.yul\":4655:4681   */\n      swap1\n      pop\n        /* \"#utility.yul\":4727:4736   */\n      dup2\n        /* \"#utility.yul\":4721:4725   */\n      dup2\n        /* \"#utility.yul\":4717:4737   */\n      sub\n        /* \"#utility.yul\":4713:4714   */\n      0x00\n        /* \"#utility.yul\":4702:4711   */\n      dup4\n        /* \"#utility.yul\":4698:4715   */\n      add\n        /* \"#utility.yul\":4691:4738   */\n      mstore\n        /* \"#utility.yul\":4755:4833   */\n      tag_373\n        /* \"#utility.yul\":4828:4832   */\n      dup2\n        /* \"#utility.yul\":4819:4825   */\n      dup5\n        /* \"#utility.yul\":4755:4833   */\n      tag_262\n      jump\t// in\n    tag_373:\n        /* \"#utility.yul\":4747:4833   */\n      swap1\n      pop\n        /* \"#utility.yul\":4527:4840   */\n      swap3\n      swap2\n      pop\n      pop\n      jump\t// out\n        /* \"#utility.yul\":4846:4960   */\n    tag_263:\n        /* \"#utility.yul\":4913:4919   */\n      0x00\n        /* \"#utility.yul\":4947:4952   */\n      dup2\n        /* \"#utility.yul\":4941:4953   */\n      mload\n        /* \"#utility.yul\":4931:4953   */\n      swap1\n      pop\n        /* \"#utility.yul\":4846:4960   */\n      swap2\n      swap1\n      pop\n      jump\t// out\n        /* \"#utility.yul\":4966:5150   */\n    tag_264:\n        /* \"#utility.yul\":5065:5076   */\n      0x00\n        /* \"#utility.yul\":5099:5105   */\n      dup3\n        /* \"#utility.yul\":5094:5097   */\n      dup3\n        /* \"#utility.yul\":5087:5106   */\n      mstore\n        /* \"#utility.yul\":5139:5143   */\n      0x20\n        /* \"#utility.yul\":5134:5137   */\n      dup3\n        /* \"#utility.yul\":5130:5144   */\n      add\n        /* \"#utility.yul\":5115:5144   */\n      swap1\n      pop\n        /* \"#utility.yul\":4966:5150   */\n      swap3\n      swap2\n      pop\n      pop\n      jump\t// out\n        /* \"#utility.yul\":5156:5288   */\n    tag_265:\n        /* \"#utility.yul\":5223:5227   */\n      0x00\n        /* \"#utility.yul\":5246:5249   */\n      dup2\n        /* \"#utility.yul\":5238:5249   */\n      swap1\n      pop\n        /* \"#utility.yul\":5276:5280   */\n      0x20\n        /* \"#utility.yul\":5271:5274   */\n      dup3\n        /* \"#utility.yul\":5267:5281   */\n      add\n        /* \"#utility.yul\":5259:5281   */\n      swap1\n      pop\n        /* \"#utility.yul\":5156:5288   */\n      swap2\n      swap1\n      pop\n      jump\t// out\n        /* \"#utility.yul\":5294:5371   */\n    tag_266:\n        /* \"#utility.yul\":5331:5338   */\n      0x00\n        /* \"#utility.yul\":5360:5365   */\n      dup2\n        /* \"#utility.yul\":5349:5365   */\n      swap1\n      pop\n        /* \"#utility.yul\":5294:5371   */\n      swap2\n      swap1\n      pop\n      jump\t// out\n        /* \"#utility.yul\":5377:5485   */\n    tag_267:\n        /* \"#utility.yul\":5454:5478   */\n      tag_379\n        /* \"#utility.yul\":5472:5477   */\n      dup2\n        /* \"#utility.yul\":5454:5478   */\n      tag_266\n      jump\t// in\n    tag_379:\n        /* \"#utility.yul\":5449:5452   */\n      dup3\n        /* \"#utility.yul\":5442:5479   */\n      mstore\n        /* \"#utility.yul\":5377:5485   */\n      pop\n      pop\n      jump\t// out\n        /* \"#utility.yul\":5491:5670   */\n    tag_268:\n        /* \"#utility.yul\":5560:5570   */\n      0x00\n        /* \"#utility.yul\":5581:5627   */\n      tag_381\n        /* \"#utility.yul\":5623:5626   */\n      dup4\n        /* \"#utility.yul\":5615:5621   */\n      dup4\n        /* \"#utility.yul\":5581:5627   */\n      tag_267\n      jump\t// in\n    tag_381:\n        /* \"#utility.yul\":5659:5663   */\n      0x20\n        /* \"#utility.yul\":5654:5657   */\n      dup4\n        /* \"#utility.yul\":5650:5664   */\n      add\n        /* \"#utility.yul\":5636:5664   */\n      swap1\n      pop\n        /* \"#utility.yul\":5491:5670   */\n      swap3\n      swap2\n      pop\n      pop\n      jump\t// out\n        /* \"#utility.yul\":5676:5789   */\n    tag_269:\n        /* \"#utility.yul\":5746:5750   */\n      0x00\n        /* \"#utility.yul\":5778:5782   */\n      0x20\n        /* \"#utility.yul\":5773:5776   */\n      dup3\n        /* \"#utility.yul\":5769:5783   */\n      add\n        /* \"#utility.yul\":5761:5783   */\n      swap1\n      pop\n        /* \"#utility.yul\":5676:5789   */\n      swap2\n      swap1\n      pop\n      jump\t// out\n        /* \"#utility.yul\":5825:6557   */\n    tag_270:\n        /* \"#utility.yul\":5944:5947   */\n      0x00\n        /* \"#utility.yul\":5973:6027   */\n      tag_384\n        /* \"#utility.yul\":6021:6026   */\n      dup3\n        /* \"#utility.yul\":5973:6027   */\n      tag_263\n      jump\t// in\n    tag_384:\n        /* \"#utility.yul\":6043:6129   */\n      tag_385\n        /* \"#utility.yul\":6122:6128   */\n      dup2\n        /* \"#utility.yul\":6117:6120   */\n      dup6\n        /* \"#utility.yul\":6043:6129   */\n      tag_264\n      jump\t// in\n    tag_385:\n        /* \"#utility.yul\":6036:6129   */\n      swap4\n      pop\n        /* \"#utility.yul\":6153:6209   */\n      tag_386\n        /* \"#utility.yul\":6203:6208   */\n      dup4\n        /* \"#utility.yul\":6153:6209   */\n      tag_265\n      jump\t// in\n    tag_386:\n        /* \"#utility.yul\":6232:6239   */\n      dup1\n        /* \"#utility.yul\":6263:6264   */\n      0x00\n        /* \"#utility.yul\":6248:6532   */\n    tag_387:\n        /* \"#utility.yul\":6273:6279   */\n      dup4\n        /* \"#utility.yul\":6270:6271   */\n      dup2\n        /* \"#utility.yul\":6267:6280   */\n      lt\n        /* \"#utility.yul\":6248:6532   */\n      iszero\n      tag_389\n      jumpi\n        /* \"#utility.yul\":6349:6355   */\n      dup2\n        /* \"#utility.yul\":6343:6356   */\n      mload\n        /* \"#utility.yul\":6376:6439   */\n      tag_390\n        /* \"#utility.yul\":6435:6438   */\n      dup9\n        /* \"#utility.yul\":6420:6433   */\n      dup3\n        /* \"#utility.yul\":6376:6439   */\n      tag_268\n      jump\t// in\n    tag_390:\n        /* \"#utility.yul\":6369:6439   */\n      swap8\n      pop\n        /* \"#utility.yul\":6462:6522   */\n      tag_391\n        /* \"#utility.yul\":6515:6521   */\n      dup4\n        /* \"#utility.yul\":6462:6522   */\n      tag_269\n      jump\t// in\n    tag_391:\n        /* \"#utility.yul\":6452:6522   */\n      swap3\n      pop\n        /* \"#utility.yul\":6308:6532   */\n      pop\n        /* \"#utility.yul\":6295:6296   */\n      0x01\n        /* \"#utility.yul\":6292:6293   */\n      dup2\n        /* \"#utility.yul\":6288:6297   */\n      add\n        /* \"#utility.yul\":6283:6297   */\n      swap1\n      pop\n        /* \"#utility.yul\":6248:6532   */\n      jump(tag_387)\n    tag_389:\n        /* \"#utility.yul\":6252:6266   */\n      pop\n        /* \"#utility.yul\":6548:6551   */\n      dup6\n        /* \"#utility.yul\":6541:6551   */\n      swap4\n      pop\n        /* \"#utility.yul\":5949:6557   */\n      pop\n      pop\n      pop\n        /* \"#utility.yul\":5825:6557   */\n      swap3\n      swap2\n      pop\n      pop\n      jump\t// out\n        /* \"#utility.yul\":6563:6936   */\n    tag_39:\n        /* \"#utility.yul\":6706:6710   */\n      0x00\n        /* \"#utility.yul\":6744:6746   */\n      0x20\n        /* \"#utility.yul\":6733:6742   */\n      dup3\n        /* \"#utility.yul\":6729:6747   */\n      add\n        /* \"#utility.yul\":6721:6747   */\n      swap1\n      pop\n        /* \"#utility.yul\":6793:6802   */\n      dup2\n        /* \"#utility.yul\":6787:6791   */\n      dup2\n        /* \"#utility.yul\":6783:6803   */\n      sub\n        /* \"#utility.yul\":6779:6780   */\n      0x00\n        /* \"#utility.yul\":6768:6777   */\n      dup4\n        /* \"#utility.yul\":6764:6781   */\n      add\n        /* \"#utility.yul\":6757:6804   */\n      mstore\n        /* \"#utility.yul\":6821:6929   */\n      tag_393\n        /* \"#utility.yul\":6924:6928   */\n      dup2\n        /* \"#utility.yul\":6915:6921   */\n      dup5\n        /* \"#utility.yul\":6821:6929   */\n      tag_270\n      jump\t// in\n    tag_393:\n        /* \"#utility.yul\":6813:6929   */\n      swap1\n      pop\n        /* \"#utility.yul\":6563:6936   */\n      swap3\n      swap2\n      pop\n      pop\n      jump\t// out\n        /* \"#utility.yul\":6942:7064   */\n    tag_271:\n        /* \"#utility.yul\":7015:7039   */\n      tag_395\n        /* \"#utility.yul\":7033:7038   */\n      dup2\n        /* \"#utility.yul\":7015:7039   */\n      tag_266\n      jump\t// in\n    tag_395:\n        /* \"#utility.yul\":7008:7013   */\n      dup2\n        /* \"#utility.yul\":7005:7040   */\n      eq\n        /* \"#utility.yul\":6995:7058   */\n      tag_396\n      jumpi\n        /* \"#utility.yul\":7054:7055   */\n      0x00\n        /* \"#utility.yul\":7051:7052   */\n      dup1\n        /* \"#utility.yul\":7044:7056   */\n      revert\n        /* \"#utility.yul\":6995:7058   */\n    tag_396:\n        /* \"#utility.yul\":6942:7064   */\n      pop\n      jump\t// out\n        /* \"#utility.yul\":7070:7209   */\n    tag_272:\n        /* \"#utility.yul\":7116:7121   */\n      0x00\n        /* \"#utility.yul\":7154:7160   */\n      dup2\n        /* \"#utility.yul\":7141:7161   */\n      calldataload\n        /* \"#utility.yul\":7132:7161   */\n      swap1\n      pop\n        /* \"#utility.yul\":7170:7203   */\n      tag_398\n        /* \"#utility.yul\":7197:7202   */\n      dup2\n        /* \"#utility.yul\":7170:7203   */\n      tag_271\n      jump\t// in\n    tag_398:\n        /* \"#utility.yul\":7070:7209   */\n      swap3\n      swap2\n      pop\n      pop\n      jump\t// out\n        /* \"#utility.yul\":7215:7544   */\n    tag_43:\n        /* \"#utility.yul\":7274:7280   */\n      0x00\n        /* \"#utility.yul\":7323:7325   */\n      0x20\n        /* \"#utility.yul\":7311:7320   */\n      dup3\n        /* \"#utility.yul\":7302:7309   */\n      dup5\n        /* \"#utility.yul\":7298:7321   */\n      sub\n        /* \"#utility.yul\":7294:7326   */\n      slt\n        /* \"#utility.yul\":7291:7410   */\n      iszero\n      tag_400\n      jumpi\n        /* \"#utility.yul\":7329:7408   */\n      tag_401\n      tag_244\n      jump\t// in\n    tag_401:\n        /* \"#utility.yul\":7291:7410   */\n    tag_400:\n        /* \"#utility.yul\":7449:7450   */\n      0x00\n        /* \"#utility.yul\":7474:7527   */\n      tag_402\n        /* \"#utility.yul\":7519:7526   */\n      dup5\n        /* \"#utility.yul\":7510:7516   */\n      dup3\n        /* \"#utility.yul\":7499:7508   */\n      dup6\n        /* \"#utility.yul\":7495:7517   */\n      add\n        /* \"#utility.yul\":7474:7527   */\n      tag_272\n      jump\t// in\n    tag_402:\n        /* \"#utility.yul\":7464:7527   */\n      swap2\n      pop\n        /* \"#utility.yul\":7420:7537   */\n      pop\n        /* \"#utility.yul\":7215:7544   */\n      swap3\n      swap2\n      pop\n      pop\n      jump\t// out\n        /* \"#utility.yul\":7550:7668   */\n    tag_273:\n        /* \"#utility.yul\":7637:7661   */\n      tag_404\n        /* \"#utility.yul\":7655:7660   */\n      dup2\n        /* \"#utility.yul\":7637:7661   */\n      tag_266\n      jump\t// in\n    tag_404:\n        /* \"#utility.yul\":7632:7635   */\n      dup3\n        /* \"#utility.yul\":7625:7662   */\n      mstore\n        /* \"#utility.yul\":7550:7668   */\n      pop\n      pop\n      jump\t// out\n        /* \"#utility.yul\":7674:7896   */\n    tag_50:\n        /* \"#utility.yul\":7767:7771   */\n      0x00\n        /* \"#utility.yul\":7805:7807   */\n      0x20\n        /* \"#utility.yul\":7794:7803   */\n      dup3\n        /* \"#utility.yul\":7790:7808   */\n      add\n        /* \"#utility.yul\":7782:7808   */\n      swap1\n      pop\n        /* \"#utility.yul\":7818:7889   */\n      tag_406\n        /* \"#utility.yul\":7886:7887   */\n      0x00\n        /* \"#utility.yul\":7875:7884   */\n      dup4\n        /* \"#utility.yul\":7871:7888   */\n      add\n        /* \"#utility.yul\":7862:7868   */\n      dup5\n        /* \"#utility.yul\":7818:7889   */\n      tag_273\n      jump\t// in\n    tag_406:\n        /* \"#utility.yul\":7674:7896   */\n      swap3\n      swap2\n      pop\n      pop\n      jump\t// out\n        /* \"#utility.yul\":7902:8037   */\n    tag_274:\n        /* \"#utility.yul\":7990:7996   */\n      0x00\n        /* \"#utility.yul\":8024:8029   */\n      dup2\n        /* \"#utility.yul\":8018:8030   */\n      mload\n        /* \"#utility.yul\":8008:8030   */\n      swap1\n      pop\n        /* \"#utility.yul\":7902:8037   */\n      swap2\n      swap1\n      pop\n      jump\t// out\n        /* \"#utility.yul\":8043:8248   */\n    tag_275:\n        /* \"#utility.yul\":8163:8174   */\n      0x00\n        /* \"#utility.yul\":8197:8203   */\n      dup3\n        /* \"#utility.yul\":8192:8195   */\n      dup3\n        /* \"#utility.yul\":8185:8204   */\n      mstore\n        /* \"#utility.yul\":8237:8241   */\n      0x20\n        /* \"#utility.yul\":8232:8235   */\n      dup3\n        /* \"#utility.yul\":8228:8242   */\n      add\n        /* \"#utility.yul\":8213:8242   */\n      swap1\n      pop\n        /* \"#utility.yul\":8043:8248   */\n      swap3\n      swap2\n      pop\n      pop\n      jump\t// out\n        /* \"#utility.yul\":8254:8407   */\n    tag_276:\n        /* \"#utility.yul\":8342:8346   */\n      0x00\n        /* \"#utility.yul\":8365:8368   */\n      dup2\n        /* \"#utility.yul\":8357:8368   */\n      swap1\n      pop\n        /* \"#utility.yul\":8395:8399   */\n      0x20\n        /* \"#utility.yul\":8390:8393   */\n      dup3\n        /* \"#utility.yul\":8386:8400   */\n      add\n        /* \"#utility.yul\":8378:8400   */\n      swap1\n      pop\n        /* \"#utility.yul\":8254:8407   */\n      swap2\n      swap1\n      pop\n      jump\t// out\n        /* \"#utility.yul\":8413:8539   */\n    tag_277:\n        /* \"#utility.yul\":8450:8457   */\n      0x00\n        /* \"#utility.yul\":8490:8532   */\n      0xffffffffffffffffffffffffffffffffffffffff\n        /* \"#utility.yul\":8483:8488   */\n      dup3\n        /* \"#utility.yul\":8479:8533   */\n      and\n        /* \"#utility.yul\":8468:8533   */\n      swap1\n      pop\n        /* \"#utility.yul\":8413:8539   */\n      swap2\n      swap1\n      pop\n      jump\t// out\n        /* \"#utility.yul\":8545:8649   */\n    tag_278:\n        /* \"#utility.yul\":8590:8597   */\n      0x00\n        /* \"#utility.yul\":8619:8643   */\n      tag_412\n        /* \"#utility.yul\":8637:8642   */\n      dup3\n        /* \"#utility.yul\":8619:8643   */\n      tag_277\n      jump\t// in\n    tag_412:\n        /* \"#utility.yul\":8608:8643   */\n      swap1\n      pop\n        /* \"#utility.yul\":8545:8649   */\n      swap2\n      swap1\n      pop\n      jump\t// out\n        /* \"#utility.yul\":8655:8787   */\n    tag_279:\n        /* \"#utility.yul\":8748:8780   */\n      tag_414\n        /* \"#utility.yul\":8774:8779   */\n      dup2\n        /* \"#utility.yul\":8748:8780   */\n      tag_278\n      jump\t// in\n    tag_414:\n        /* \"#utility.yul\":8743:8746   */\n      dup3\n        /* \"#utility.yul\":8736:8781   */\n      mstore\n        /* \"#utility.yul\":8655:8787   */\n      pop\n      pop\n      jump\t// out\n        /* \"#utility.yul\":8793:8973   */\n    tag_143:\n        /* \"#utility.yul\":8841:8918   */\n      0x4e487b7100000000000000000000000000000000000000000000000000000000\n        /* \"#utility.yul\":8838:8839   */\n      0x00\n        /* \"#utility.yul\":8831:8919   */\n      mstore\n        /* \"#utility.yul\":8938:8942   */\n      0x21\n        /* \"#utility.yul\":8935:8936   */\n      0x04\n        /* \"#utility.yul\":8928:8943   */\n      mstore\n        /* \"#utility.yul\":8962:8966   */\n      0x24\n        /* \"#utility.yul\":8959:8960   */\n      0x00\n        /* \"#utility.yul\":8952:8967   */\n      revert\n        /* \"#utility.yul\":8979:9091   */\n    tag_280:\n        /* \"#utility.yul\":9059:9060   */\n      0x02\n        /* \"#utility.yul\":9052:9057   */\n      dup2\n        /* \"#utility.yul\":9049:9061   */\n      lt\n        /* \"#utility.yul\":9039:9085   */\n      tag_417\n      jumpi\n        /* \"#utility.yul\":9065:9083   */\n      tag_418\n      tag_143\n      jump\t// in\n    tag_418:\n        /* \"#utility.yul\":9039:9085   */\n    tag_417:\n        /* \"#utility.yul\":8979:9091   */\n      pop\n      jump\t// out\n        /* \"#utility.yul\":9097:9222   */\n    tag_281:\n        /* \"#utility.yul\":9141:9148   */\n      0x00\n        /* \"#utility.yul\":9170:9175   */\n      dup2\n        /* \"#utility.yul\":9159:9175   */\n      swap1\n      pop\n        /* \"#utility.yul\":9176:9216   */\n      tag_420\n        /* \"#utility.yul\":9210:9215   */\n      dup3\n        /* \"#utility.yul\":9176:9216   */\n      tag_280\n      jump\t// in\n    tag_420:\n        /* \"#utility.yul\":9097:9222   */\n      swap2\n      swap1\n      pop\n      jump\t// out\n        /* \"#utility.yul\":9228:9353   */\n    tag_282:\n        /* \"#utility.yul\":9283:9292   */\n      0x00\n        /* \"#utility.yul\":9316:9347   */\n      tag_422\n        /* \"#utility.yul\":9341:9346   */\n      dup3\n        /* \"#utility.yul\":9316:9347   */\n      tag_281\n      jump\t// in\n    tag_422:\n        /* \"#utility.yul\":9303:9347   */\n      swap1\n      pop\n        /* \"#utility.yul\":9228:9353   */\n      swap2\n      swap1\n      pop\n      jump\t// out\n        /* \"#utility.yul\":9359:9490   */\n    tag_283:\n        /* \"#utility.yul\":9441:9483   */\n      tag_424\n        /* \"#utility.yul\":9477:9482   */\n      dup2\n        /* \"#utility.yul\":9441:9483   */\n      tag_282\n      jump\t// in\n    tag_424:\n        /* \"#utility.yul\":9436:9439   */\n      dup3\n        /* \"#utility.yul\":9429:9484   */\n      mstore\n        /* \"#utility.yul\":9359:9490   */\n      pop\n      pop\n      jump\t// out\n        /* \"#utility.yul\":9552:10941   */\n    tag_284:\n        /* \"#utility.yul\":9681:9685   */\n      0xe0\n        /* \"#utility.yul\":9676:9679   */\n      dup3\n        /* \"#utility.yul\":9672:9686   */\n      add\n        /* \"#utility.yul\":9772:9776   */\n      0x00\n        /* \"#utility.yul\":9765:9770   */\n      dup3\n        /* \"#utility.yul\":9761:9777   */\n      add\n        /* \"#utility.yul\":9755:9778   */\n      mload\n        /* \"#utility.yul\":9791:9870   */\n      tag_426\n        /* \"#utility.yul\":9864:9868   */\n      0x00\n        /* \"#utility.yul\":9859:9862   */\n      dup6\n        /* \"#utility.yul\":9855:9869   */\n      add\n        /* \"#utility.yul\":9841:9853   */\n      dup3\n        /* \"#utility.yul\":9791:9870   */\n      tag_279\n      jump\t// in\n    tag_426:\n        /* \"#utility.yul\":9696:9880   */\n      pop\n        /* \"#utility.yul\":9963:9967   */\n      0x20\n        /* \"#utility.yul\":9956:9961   */\n      dup3\n        /* \"#utility.yul\":9952:9968   */\n      add\n        /* \"#utility.yul\":9946:9969   */\n      mload\n        /* \"#utility.yul\":9982:10045   */\n      tag_427\n        /* \"#utility.yul\":10039:10043   */\n      0x20\n        /* \"#utility.yul\":10034:10037   */\n      dup6\n        /* \"#utility.yul\":10030:10044   */\n      add\n        /* \"#utility.yul\":10016:10028   */\n      dup3\n        /* \"#utility.yul\":9982:10045   */\n      tag_267\n      jump\t// in\n    tag_427:\n        /* \"#utility.yul\":9890:10055   */\n      pop\n        /* \"#utility.yul\":10142:10146   */\n      0x40\n        /* \"#utility.yul\":10135:10140   */\n      dup3\n        /* \"#utility.yul\":10131:10147   */\n      add\n        /* \"#utility.yul\":10125:10148   */\n      mload\n        /* \"#utility.yul\":10161:10224   */\n      tag_428\n        /* \"#utility.yul\":10218:10222   */\n      0x40\n        /* \"#utility.yul\":10213:10216   */\n      dup6\n        /* \"#utility.yul\":10209:10223   */\n      add\n        /* \"#utility.yul\":10195:10207   */\n      dup3\n        /* \"#utility.yul\":10161:10224   */\n      tag_267\n      jump\t// in\n    tag_428:\n        /* \"#utility.yul\":10065:10234   */\n      pop\n        /* \"#utility.yul\":10317:10321   */\n      0x60\n        /* \"#utility.yul\":10310:10315   */\n      dup3\n        /* \"#utility.yul\":10306:10322   */\n      add\n        /* \"#utility.yul\":10300:10323   */\n      mload\n        /* \"#utility.yul\":10336:10404   */\n      tag_429\n        /* \"#utility.yul\":10398:10402   */\n      0x60\n        /* \"#utility.yul\":10393:10396   */\n      dup6\n        /* \"#utility.yul\":10389:10403   */\n      add\n        /* \"#utility.yul\":10375:10387   */\n      dup3\n        /* \"#utility.yul\":10336:10404   */\n      tag_283\n      jump\t// in\n    tag_429:\n        /* \"#utility.yul\":10244:10414   */\n      pop\n        /* \"#utility.yul\":10494:10498   */\n      0x80\n        /* \"#utility.yul\":10487:10492   */\n      dup3\n        /* \"#utility.yul\":10483:10499   */\n      add\n        /* \"#utility.yul\":10477:10500   */\n      mload\n        /* \"#utility.yul\":10513:10576   */\n      tag_430\n        /* \"#utility.yul\":10570:10574   */\n      0x80\n        /* \"#utility.yul\":10565:10568   */\n      dup6\n        /* \"#utility.yul\":10561:10575   */\n      add\n        /* \"#utility.yul\":10547:10559   */\n      dup3\n        /* \"#utility.yul\":10513:10576   */\n      tag_267\n      jump\t// in\n    tag_430:\n        /* \"#utility.yul\":10424:10586   */\n      pop\n        /* \"#utility.yul\":10668:10672   */\n      0xa0\n        /* \"#utility.yul\":10661:10666   */\n      dup3\n        /* \"#utility.yul\":10657:10673   */\n      add\n        /* \"#utility.yul\":10651:10674   */\n      mload\n        /* \"#utility.yul\":10687:10750   */\n      tag_431\n        /* \"#utility.yul\":10744:10748   */\n      0xa0\n        /* \"#utility.yul\":10739:10742   */\n      dup6\n        /* \"#utility.yul\":10735:10749   */\n      add\n        /* \"#utility.yul\":10721:10733   */\n      dup3\n        /* \"#utility.yul\":10687:10750   */\n      tag_267\n      jump\t// in\n    tag_431:\n        /* \"#utility.yul\":10596:10760   */\n      pop\n        /* \"#utility.yul\":10842:10846   */\n      0xc0\n        /* \"#utility.yul\":10835:10840   */\n      dup3\n        /* \"#utility.yul\":10831:10847   */\n      add\n        /* \"#utility.yul\":10825:10848   */\n      mload\n        /* \"#utility.yul\":10861:10924   */\n      tag_432\n        /* \"#utility.yul\":10918:10922   */\n      0xc0\n        /* \"#utility.yul\":10913:10916   */\n      dup6\n        /* \"#utility.yul\":10909:10923   */\n      add\n        /* \"#utility.yul\":10895:10907   */\n      dup3\n        /* \"#utility.yul\":10861:10924   */\n      tag_267\n      jump\t// in\n    tag_432:\n        /* \"#utility.yul\":10770:10934   */\n      pop\n        /* \"#utility.yul\":9650:10941   */\n      pop\n        /* \"#utility.yul\":9552:10941   */\n      pop\n      pop\n      jump\t// out\n        /* \"#utility.yul\":10947:11210   */\n    tag_285:\n        /* \"#utility.yul\":11058:11068   */\n      0x00\n        /* \"#utility.yul\":11079:11167   */\n      tag_434\n        /* \"#utility.yul\":11163:11166   */\n      dup4\n        /* \"#utility.yul\":11155:11161   */\n      dup4\n        /* \"#utility.yul\":11079:11167   */\n      tag_284\n      jump\t// in\n    tag_434:\n        /* \"#utility.yul\":11199:11203   */\n      0xe0\n        /* \"#utility.yul\":11194:11197   */\n      dup4\n        /* \"#utility.yul\":11190:11204   */\n      add\n        /* \"#utility.yul\":11176:11204   */\n      swap1\n      pop\n        /* \"#utility.yul\":10947:11210   */\n      swap3\n      swap2\n      pop\n      pop\n      jump\t// out\n        /* \"#utility.yul\":11216:11350   */\n    tag_286:\n        /* \"#utility.yul\":11307:11311   */\n      0x00\n        /* \"#utility.yul\":11339:11343   */\n      0x20\n        /* \"#utility.yul\":11334:11337   */\n      dup3\n        /* \"#utility.yul\":11330:11344   */\n      add\n        /* \"#utility.yul\":11322:11344   */\n      swap1\n      pop\n        /* \"#utility.yul\":11216:11350   */\n      swap2\n      swap1\n      pop\n      jump\t// out\n        /* \"#utility.yul\":11416:12316   */\n    tag_287:\n        /* \"#utility.yul\":11577:11580   */\n      0x00\n        /* \"#utility.yul\":11606:11681   */\n      tag_437\n        /* \"#utility.yul\":11675:11680   */\n      dup3\n        /* \"#utility.yul\":11606:11681   */\n      tag_274\n      jump\t// in\n    tag_437:\n        /* \"#utility.yul\":11697:11804   */\n      tag_438\n        /* \"#utility.yul\":11797:11803   */\n      dup2\n        /* \"#utility.yul\":11792:11795   */\n      dup6\n        /* \"#utility.yul\":11697:11804   */\n      tag_275\n      jump\t// in\n    tag_438:\n        /* \"#utility.yul\":11690:11804   */\n      swap4\n      pop\n        /* \"#utility.yul\":11828:11905   */\n      tag_439\n        /* \"#utility.yul\":11899:11904   */\n      dup4\n        /* \"#utility.yul\":11828:11905   */\n      tag_276\n      jump\t// in\n    tag_439:\n        /* \"#utility.yul\":11928:11935   */\n      dup1\n        /* \"#utility.yul\":11959:11960   */\n      0x00\n        /* \"#utility.yul\":11944:12291   */\n    tag_440:\n        /* \"#utility.yul\":11969:11975   */\n      dup4\n        /* \"#utility.yul\":11966:11967   */\n      dup2\n        /* \"#utility.yul\":11963:11976   */\n      lt\n        /* \"#utility.yul\":11944:12291   */\n      iszero\n      tag_442\n      jumpi\n        /* \"#utility.yul\":12045:12051   */\n      dup2\n        /* \"#utility.yul\":12039:12052   */\n      mload\n        /* \"#utility.yul\":12072:12177   */\n      tag_443\n        /* \"#utility.yul\":12173:12176   */\n      dup9\n        /* \"#utility.yul\":12158:12171   */\n      dup3\n        /* \"#utility.yul\":12072:12177   */\n      tag_285\n      jump\t// in\n    tag_443:\n        /* \"#utility.yul\":12065:12177   */\n      swap8\n      pop\n        /* \"#utility.yul\":12200:12281   */\n      tag_444\n        /* \"#utility.yul\":12274:12280   */\n      dup4\n        /* \"#utility.yul\":12200:12281   */\n      tag_286\n      jump\t// in\n    tag_444:\n        /* \"#utility.yul\":12190:12281   */\n      swap3\n      pop\n        /* \"#utility.yul\":12004:12291   */\n      pop\n        /* \"#utility.yul\":11991:11992   */\n      0x01\n        /* \"#utility.yul\":11988:11989   */\n      dup2\n        /* \"#utility.yul\":11984:11993   */\n      add\n        /* \"#utility.yul\":11979:11993   */\n      swap1\n      pop\n        /* \"#utility.yul\":11944:12291   */\n      jump(tag_440)\n    tag_442:\n        /* \"#utility.yul\":11948:11962   */\n      pop\n        /* \"#utility.yul\":12307:12310   */\n      dup6\n        /* \"#utility.yul\":12300:12310   */\n      swap4\n      pop\n        /* \"#utility.yul\":11582:12316   */\n      pop\n      pop\n      pop\n        /* \"#utility.yul\":11416:12316   */\n      swap3\n      swap2\n      pop\n      pop\n      jump\t// out\n        /* \"#utility.yul\":12322:12779   */\n    tag_55:\n        /* \"#utility.yul\":12507:12511   */\n      0x00\n        /* \"#utility.yul\":12545:12547   */\n      0x20\n        /* \"#utility.yul\":12534:12543   */\n      dup3\n        /* \"#utility.yul\":12530:12548   */\n      add\n        /* \"#utility.yul\":12522:12548   */\n      swap1\n      pop\n        /* \"#utility.yul\":12594:12603   */\n      dup2\n        /* \"#utility.yul\":12588:12592   */\n      dup2\n        /* \"#utility.yul\":12584:12604   */\n      sub\n        /* \"#utility.yul\":12580:12581   */\n      0x00\n        /* \"#utility.yul\":12569:12578   */\n      dup4\n        /* \"#utility.yul\":12565:12582   */\n      add\n        /* \"#utility.yul\":12558:12605   */\n      mstore\n        /* \"#utility.yul\":12622:12772   */\n      tag_446\n        /* \"#utility.yul\":12767:12771   */\n      dup2\n        /* \"#utility.yul\":12758:12764   */\n      dup5\n        /* \"#utility.yul\":12622:12772   */\n      tag_287\n      jump\t// in\n    tag_446:\n        /* \"#utility.yul\":12614:12772   */\n      swap1\n      pop\n        /* \"#utility.yul\":12322:12779   */\n      swap3\n      swap2\n      pop\n      pop\n      jump\t// out\n        /* \"#utility.yul\":12785:12926   */\n    tag_288:\n        /* \"#utility.yul\":12877:12919   */\n      tag_448\n        /* \"#utility.yul\":12913:12918   */\n      dup2\n        /* \"#utility.yul\":12877:12919   */\n      tag_282\n      jump\t// in\n    tag_448:\n        /* \"#utility.yul\":12872:12875   */\n      dup3\n        /* \"#utility.yul\":12865:12920   */\n      mstore\n        /* \"#utility.yul\":12785:12926   */\n      pop\n      pop\n      jump\t// out\n        /* \"#utility.yul\":12932:13164   */\n    tag_65:\n        /* \"#utility.yul\":13030:13034   */\n      0x00\n        /* \"#utility.yul\":13068:13070   */\n      0x20\n        /* \"#utility.yul\":13057:13066   */\n      dup3\n        /* \"#utility.yul\":13053:13071   */\n      add\n        /* \"#utility.yul\":13045:13071   */\n      swap1\n      pop\n        /* \"#utility.yul\":13081:13157   */\n      tag_450\n        /* \"#utility.yul\":13154:13155   */\n      0x00\n        /* \"#utility.yul\":13143:13152   */\n      dup4\n        /* \"#utility.yul\":13139:13156   */\n      add\n        /* \"#utility.yul\":13130:13136   */\n      dup5\n        /* \"#utility.yul\":13081:13157   */\n      tag_288\n      jump\t// in\n    tag_450:\n        /* \"#utility.yul\":12932:13164   */\n      swap3\n      swap2\n      pop\n      pop\n      jump\t// out\n        /* \"#utility.yul\":13170:13312   */\n    tag_289:\n        /* \"#utility.yul\":13273:13305   */\n      tag_452\n        /* \"#utility.yul\":13299:13304   */\n      dup2\n        /* \"#utility.yul\":13273:13305   */\n      tag_278\n      jump\t// in\n    tag_452:\n        /* \"#utility.yul\":13268:13271   */\n      dup3\n        /* \"#utility.yul\":13261:13306   */\n      mstore\n        /* \"#utility.yul\":13170:13312   */\n      pop\n      pop\n      jump\t// out\n        /* \"#utility.yul\":13318:13572   */\n    tag_71:\n        /* \"#utility.yul\":13427:13431   */\n      0x00\n        /* \"#utility.yul\":13465:13467   */\n      0x20\n        /* \"#utility.yul\":13454:13463   */\n      dup3\n        /* \"#utility.yul\":13450:13468   */\n      add\n        /* \"#utility.yul\":13442:13468   */\n      swap1\n      pop\n        /* \"#utility.yul\":13478:13565   */\n      tag_454\n        /* \"#utility.yul\":13562:13563   */\n      0x00\n        /* \"#utility.yul\":13551:13560   */\n      dup4\n        /* \"#utility.yul\":13547:13564   */\n      add\n        /* \"#utility.yul\":13538:13544   */\n      dup5\n        /* \"#utility.yul\":13478:13565   */\n      tag_289\n      jump\t// in\n    tag_454:\n        /* \"#utility.yul\":13318:13572   */\n      swap3\n      swap2\n      pop\n      pop\n      jump\t// out\n        /* \"#utility.yul\":13578:14052   */\n    tag_115:\n        /* \"#utility.yul\":13646:13652   */\n      0x00\n        /* \"#utility.yul\":13654:13660   */\n      dup1\n        /* \"#utility.yul\":13703:13705   */\n      0x40\n        /* \"#utility.yul\":13691:13700   */\n      dup4\n        /* \"#utility.yul\":13682:13689   */\n      dup6\n        /* \"#utility.yul\":13678:13701   */\n      sub\n        /* \"#utility.yul\":13674:13706   */\n      slt\n        /* \"#utility.yul\":13671:13790   */\n      iszero\n      tag_456\n      jumpi\n        /* \"#utility.yul\":13709:13788   */\n      tag_457\n      tag_244\n      jump\t// in\n    tag_457:\n        /* \"#utility.yul\":13671:13790   */\n    tag_456:\n        /* \"#utility.yul\":13829:13830   */\n      0x00\n        /* \"#utility.yul\":13854:13907   */\n      tag_458\n        /* \"#utility.yul\":13899:13906   */\n      dup6\n        /* \"#utility.yul\":13890:13896   */\n      dup3\n        /* \"#utility.yul\":13879:13888   */\n      dup7\n        /* \"#utility.yul\":13875:13897   */\n      add\n        /* \"#utility.yul\":13854:13907   */\n      tag_272\n      jump\t// in\n    tag_458:\n        /* \"#utility.yul\":13844:13907   */\n      swap3\n      pop\n        /* \"#utility.yul\":13800:13917   */\n      pop\n        /* \"#utility.yul\":13956:13958   */\n      0x20\n        /* \"#utility.yul\":13982:14035   */\n      tag_459\n        /* \"#utility.yul\":14027:14034   */\n      dup6\n        /* \"#utility.yul\":14018:14024   */\n      dup3\n        /* \"#utility.yul\":14007:14016   */\n      dup7\n        /* \"#utility.yul\":14003:14025   */\n      add\n        /* \"#utility.yul\":13982:14035   */\n      tag_272\n      jump\t// in\n    tag_459:\n        /* \"#utility.yul\":13972:14035   */\n      swap2\n      pop\n        /* \"#utility.yul\":13927:14045   */\n      pop\n        /* \"#utility.yul\":13578:14052   */\n      swap3\n      pop\n      swap3\n      swap1\n      pop\n      jump\t// out\n        /* \"#utility.yul\":14058:14148   */\n    tag_290:\n        /* \"#utility.yul\":14092:14099   */\n      0x00\n        /* \"#utility.yul\":14135:14140   */\n      dup2\n        /* \"#utility.yul\":14128:14141   */\n      iszero\n        /* \"#utility.yul\":14121:14142   */\n      iszero\n        /* \"#utility.yul\":14110:14142   */\n      swap1\n      pop\n        /* \"#utility.yul\":14058:14148   */\n      swap2\n      swap1\n      pop\n      jump\t// out\n        /* \"#utility.yul\":14154:14263   */\n    tag_291:\n        /* \"#utility.yul\":14235:14256   */\n      tag_462\n        /* \"#utility.yul\":14250:14255   */\n      dup2\n        /* \"#utility.yul\":14235:14256   */\n      tag_290\n      jump\t// in\n    tag_462:\n        /* \"#utility.yul\":14230:14233   */\n      dup3\n        /* \"#utility.yul\":14223:14257   */\n      mstore\n        /* \"#utility.yul\":14154:14263   */\n      pop\n      pop\n      jump\t// out\n        /* \"#utility.yul\":14269:15296   */\n    tag_127:\n        /* \"#utility.yul\":14573:14577   */\n      0x00\n        /* \"#utility.yul\":14611:14614   */\n      0x0100\n        /* \"#utility.yul\":14600:14609   */\n      dup3\n        /* \"#utility.yul\":14596:14615   */\n      add\n        /* \"#utility.yul\":14588:14615   */\n      swap1\n      pop\n        /* \"#utility.yul\":14625:14712   */\n      tag_464\n        /* \"#utility.yul\":14709:14710   */\n      0x00\n        /* \"#utility.yul\":14698:14707   */\n      dup4\n        /* \"#utility.yul\":14694:14711   */\n      add\n        /* \"#utility.yul\":14685:14691   */\n      dup12\n        /* \"#utility.yul\":14625:14712   */\n      tag_289\n      jump\t// in\n    tag_464:\n        /* \"#utility.yul\":14722:14794   */\n      tag_465\n        /* \"#utility.yul\":14790:14792   */\n      0x20\n        /* \"#utility.yul\":14779:14788   */\n      dup4\n        /* \"#utility.yul\":14775:14793   */\n      add\n        /* \"#utility.yul\":14766:14772   */\n      dup11\n        /* \"#utility.yul\":14722:14794   */\n      tag_273\n      jump\t// in\n    tag_465:\n        /* \"#utility.yul\":14804:14876   */\n      tag_466\n        /* \"#utility.yul\":14872:14874   */\n      0x40\n        /* \"#utility.yul\":14861:14870   */\n      dup4\n        /* \"#utility.yul\":14857:14875   */\n      add\n        /* \"#utility.yul\":14848:14854   */\n      dup10\n        /* \"#utility.yul\":14804:14876   */\n      tag_273\n      jump\t// in\n    tag_466:\n        /* \"#utility.yul\":14886:14963   */\n      tag_467\n        /* \"#utility.yul\":14959:14961   */\n      0x60\n        /* \"#utility.yul\":14948:14957   */\n      dup4\n        /* \"#utility.yul\":14944:14962   */\n      add\n        /* \"#utility.yul\":14935:14941   */\n      dup9\n        /* \"#utility.yul\":14886:14963   */\n      tag_288\n      jump\t// in\n    tag_467:\n        /* \"#utility.yul\":14973:15046   */\n      tag_468\n        /* \"#utility.yul\":15041:15044   */\n      0x80\n        /* \"#utility.yul\":15030:15039   */\n      dup4\n        /* \"#utility.yul\":15026:15045   */\n      add\n        /* \"#utility.yul\":15017:15023   */\n      dup8\n        /* \"#utility.yul\":14973:15046   */\n      tag_273\n      jump\t// in\n    tag_468:\n        /* \"#utility.yul\":15056:15129   */\n      tag_469\n        /* \"#utility.yul\":15124:15127   */\n      0xa0\n        /* \"#utility.yul\":15113:15122   */\n      dup4\n        /* \"#utility.yul\":15109:15128   */\n      add\n        /* \"#utility.yul\":15100:15106   */\n      dup7\n        /* \"#utility.yul\":15056:15129   */\n      tag_273\n      jump\t// in\n    tag_469:\n        /* \"#utility.yul\":15139:15212   */\n      tag_470\n        /* \"#utility.yul\":15207:15210   */\n      0xc0\n        /* \"#utility.yul\":15196:15205   */\n      dup4\n        /* \"#utility.yul\":15192:15211   */\n      add\n        /* \"#utility.yul\":15183:15189   */\n      dup6\n        /* \"#utility.yul\":15139:15212   */\n      tag_273\n      jump\t// in\n    tag_470:\n        /* \"#utility.yul\":15222:15289   */\n      tag_471\n        /* \"#utility.yul\":15284:15287   */\n      0xe0\n        /* \"#utility.yul\":15273:15282   */\n      dup4\n        /* \"#utility.yul\":15269:15288   */\n      add\n        /* \"#utility.yul\":15260:15266   */\n      dup5\n        /* \"#utility.yul\":15222:15289   */\n      tag_291\n      jump\t// in\n    tag_471:\n        /* \"#utility.yul\":14269:15296   */\n      swap10\n      swap9\n      pop\n      pop\n      pop\n      pop\n      pop\n      pop\n      pop\n      pop\n      pop\n      jump\t// out\n        /* \"#utility.yul\":15302:15450   */\n    tag_292:\n        /* \"#utility.yul\":15404:15415   */\n      0x00\n        /* \"#utility.yul\":15441:15444   */\n      dup2\n        /* \"#utility.yul\":15426:15444   */\n      swap1\n      pop\n        /* \"#utility.yul\":15302:15450   */\n      swap3\n      swap2\n      pop\n      pop\n      jump\t// out\n        /* \"#utility.yul\":15456:15833   */\n    tag_293:\n        /* \"#utility.yul\":15562:15565   */\n      0x00\n        /* \"#utility.yul\":15590:15629   */\n      tag_474\n        /* \"#utility.yul\":15623:15628   */\n      dup3\n        /* \"#utility.yul\":15590:15629   */\n      tag_259\n      jump\t// in\n    tag_474:\n        /* \"#utility.yul\":15645:15734   */\n      tag_475\n        /* \"#utility.yul\":15727:15733   */\n      dup2\n        /* \"#utility.yul\":15722:15725   */\n      dup6\n        /* \"#utility.yul\":15645:15734   */\n      tag_292\n      jump\t// in\n    tag_475:\n        /* \"#utility.yul\":15638:15734   */\n      swap4\n      pop\n        /* \"#utility.yul\":15743:15795   */\n      tag_476\n        /* \"#utility.yul\":15788:15794   */\n      dup2\n        /* \"#utility.yul\":15783:15786   */\n      dup6\n        /* \"#utility.yul\":15776:15780   */\n      0x20\n        /* \"#utility.yul\":15769:15774   */\n      dup7\n        /* \"#utility.yul\":15765:15781   */\n      add\n        /* \"#utility.yul\":15743:15795   */\n      tag_261\n      jump\t// in\n    tag_476:\n        /* \"#utility.yul\":15820:15826   */\n      dup1\n        /* \"#utility.yul\":15815:15818   */\n      dup5\n        /* \"#utility.yul\":15811:15827   */\n      add\n        /* \"#utility.yul\":15804:15827   */\n      swap2\n      pop\n        /* \"#utility.yul\":15566:15833   */\n      pop\n        /* \"#utility.yul\":15456:15833   */\n      swap3\n      swap2\n      pop\n      pop\n      jump\t// out\n        /* \"#utility.yul\":15839:15990   */\n    tag_294:\n        /* \"#utility.yul\":15979:15982   */\n      0x2000000000000000000000000000000000000000000000000000000000000000\n        /* \"#utility.yul\":15975:15976   */\n      0x00\n        /* \"#utility.yul\":15967:15973   */\n      dup3\n        /* \"#utility.yul\":15963:15977   */\n      add\n        /* \"#utility.yul\":15956:15983   */\n      mstore\n        /* \"#utility.yul\":15839:15990   */\n      pop\n      jump\t// out\n        /* \"#utility.yul\":15996:16396   */\n    tag_295:\n        /* \"#utility.yul\":16156:16159   */\n      0x00\n        /* \"#utility.yul\":16177:16261   */\n      tag_479\n        /* \"#utility.yul\":16259:16260   */\n      0x01\n        /* \"#utility.yul\":16254:16257   */\n      dup4\n        /* \"#utility.yul\":16177:16261   */\n      tag_292\n      jump\t// in\n    tag_479:\n        /* \"#utility.yul\":16170:16261   */\n      swap2\n      pop\n        /* \"#utility.yul\":16270:16363   */\n      tag_480\n        /* \"#utility.yul\":16359:16362   */\n      dup3\n        /* \"#utility.yul\":16270:16363   */\n      tag_294\n      jump\t// in\n    tag_480:\n        /* \"#utility.yul\":16388:16389   */\n      0x01\n        /* \"#utility.yul\":16383:16386   */\n      dup3\n        /* \"#utility.yul\":16379:16390   */\n      add\n        /* \"#utility.yul\":16372:16390   */\n      swap1\n      pop\n        /* \"#utility.yul\":15996:16396   */\n      swap2\n      swap1\n      pop\n      jump\t// out\n        /* \"#utility.yul\":16402:16481   */\n    tag_296:\n        /* \"#utility.yul\":16441:16448   */\n      0x00\n        /* \"#utility.yul\":16470:16475   */\n      dup2\n        /* \"#utility.yul\":16459:16475   */\n      swap1\n      pop\n        /* \"#utility.yul\":16402:16481   */\n      swap2\n      swap1\n      pop\n      jump\t// out\n        /* \"#utility.yul\":16487:16644   */\n    tag_297:\n        /* \"#utility.yul\":16592:16637   */\n      tag_483\n        /* \"#utility.yul\":16612:16636   */\n      tag_484\n        /* \"#utility.yul\":16630:16635   */\n      dup3\n        /* \"#utility.yul\":16612:16636   */\n      tag_256\n      jump\t// in\n    tag_484:\n        /* \"#utility.yul\":16592:16637   */\n      tag_296\n      jump\t// in\n    tag_483:\n        /* \"#utility.yul\":16587:16590   */\n      dup3\n        /* \"#utility.yul\":16580:16638   */\n      mstore\n        /* \"#utility.yul\":16487:16644   */\n      pop\n      pop\n      jump\t// out\n        /* \"#utility.yul\":16650:17332   */\n    tag_139:\n        /* \"#utility.yul\":16911:16914   */\n      0x00\n        /* \"#utility.yul\":16933:17028   */\n      tag_486\n        /* \"#utility.yul\":17024:17027   */\n      dup3\n        /* \"#utility.yul\":17015:17021   */\n      dup6\n        /* \"#utility.yul\":16933:17028   */\n      tag_293\n      jump\t// in\n    tag_486:\n        /* \"#utility.yul\":16926:17028   */\n      swap2\n      pop\n        /* \"#utility.yul\":17045:17193   */\n      tag_487\n        /* \"#utility.yul\":17189:17192   */\n      dup3\n        /* \"#utility.yul\":17045:17193   */\n      tag_295\n      jump\t// in\n    tag_487:\n        /* \"#utility.yul\":17038:17193   */\n      swap2\n      pop\n        /* \"#utility.yul\":17203:17278   */\n      tag_488\n        /* \"#utility.yul\":17274:17277   */\n      dup3\n        /* \"#utility.yul\":17265:17271   */\n      dup5\n        /* \"#utility.yul\":17203:17278   */\n      tag_297\n      jump\t// in\n    tag_488:\n        /* \"#utility.yul\":17303:17305   */\n      0x20\n        /* \"#utility.yul\":17298:17301   */\n      dup3\n        /* \"#utility.yul\":17294:17306   */\n      add\n        /* \"#utility.yul\":17287:17306   */\n      swap2\n      pop\n        /* \"#utility.yul\":17323:17326   */\n      dup2\n        /* \"#utility.yul\":17316:17326   */\n      swap1\n      pop\n        /* \"#utility.yul\":16650:17332   */\n      swap4\n      swap3\n      pop\n      pop\n      pop\n      jump\t// out\n        /* \"#utility.yul\":17338:17501   */\n    tag_298:\n        /* \"#utility.yul\":17478:17493   */\n      0x4f726465722050656e64696e6700000000000000000000000000000000000000\n        /* \"#utility.yul\":17474:17475   */\n      0x00\n        /* \"#utility.yul\":17466:17472   */\n      dup3\n        /* \"#utility.yul\":17462:17476   */\n      add\n        /* \"#utility.yul\":17455:17494   */\n      mstore\n        /* \"#utility.yul\":17338:17501   */\n      pop\n      jump\t// out\n        /* \"#utility.yul\":17507:17873   */\n    tag_299:\n        /* \"#utility.yul\":17649:17652   */\n      0x00\n        /* \"#utility.yul\":17670:17737   */\n      tag_491\n        /* \"#utility.yul\":17734:17736   */\n      0x0d\n        /* \"#utility.yul\":17729:17732   */\n      dup4\n        /* \"#utility.yul\":17670:17737   */\n      tag_260\n      jump\t// in\n    tag_491:\n        /* \"#utility.yul\":17663:17737   */\n      swap2\n      pop\n        /* \"#utility.yul\":17746:17839   */\n      tag_492\n        /* \"#utility.yul\":17835:17838   */\n      dup3\n        /* \"#utility.yul\":17746:17839   */\n      tag_298\n      jump\t// in\n    tag_492:\n        /* \"#utility.yul\":17864:17866   */\n      0x20\n        /* \"#utility.yul\":17859:17862   */\n      dup3\n        /* \"#utility.yul\":17855:17867   */\n      add\n        /* \"#utility.yul\":17848:17867   */\n      swap1\n      pop\n        /* \"#utility.yul\":17507:17873   */\n      swap2\n      swap1\n      pop\n      jump\t// out\n        /* \"#utility.yul\":17879:18298   */\n    tag_153:\n        /* \"#utility.yul\":18045:18049   */\n      0x00\n        /* \"#utility.yul\":18083:18085   */\n      0x20\n        /* \"#utility.yul\":18072:18081   */\n      dup3\n        /* \"#utility.yul\":18068:18086   */\n      add\n        /* \"#utility.yul\":18060:18086   */\n      swap1\n      pop\n        /* \"#utility.yul\":18132:18141   */\n      dup2\n        /* \"#utility.yul\":18126:18130   */\n      dup2\n        /* \"#utility.yul\":18122:18142   */\n      sub\n        /* \"#utility.yul\":18118:18119   */\n      0x00\n        /* \"#utility.yul\":18107:18116   */\n      dup4\n        /* \"#utility.yul\":18103:18120   */\n      add\n        /* \"#utility.yul\":18096:18143   */\n      mstore\n        /* \"#utility.yul\":18160:18291   */\n      tag_494\n        /* \"#utility.yul\":18286:18290   */\n      dup2\n        /* \"#utility.yul\":18160:18291   */\n      tag_299\n      jump\t// in\n    tag_494:\n        /* \"#utility.yul\":18152:18291   */\n      swap1\n      pop\n        /* \"#utility.yul\":17879:18298   */\n      swap2\n      swap1\n      pop\n      jump\t// out\n        /* \"#utility.yul\":18304:18468   */\n    tag_300:\n        /* \"#utility.yul\":18444:18460   */\n      0x4e6f7420417574686f7269736564000000000000000000000000000000000000\n        /* \"#utility.yul\":18440:18441   */\n      0x00\n        /* \"#utility.yul\":18432:18438   */\n      dup3\n        /* \"#utility.yul\":18428:18442   */\n      add\n        /* \"#utility.yul\":18421:18461   */\n      mstore\n        /* \"#utility.yul\":18304:18468   */\n      pop\n      jump\t// out\n        /* \"#utility.yul\":18474:18840   */\n    tag_301:\n        /* \"#utility.yul\":18616:18619   */\n      0x00\n        /* \"#utility.yul\":18637:18704   */\n      tag_497\n        /* \"#utility.yul\":18701:18703   */\n      0x0e\n        /* \"#utility.yul\":18696:18699   */\n      dup4\n        /* \"#utility.yul\":18637:18704   */\n      tag_260\n      jump\t// in\n    tag_497:\n        /* \"#utility.yul\":18630:18704   */\n      swap2\n      pop\n        /* \"#utility.yul\":18713:18806   */\n      tag_498\n        /* \"#utility.yul\":18802:18805   */\n      dup3\n        /* \"#utility.yul\":18713:18806   */\n      tag_300\n      jump\t// in\n    tag_498:\n        /* \"#utility.yul\":18831:18833   */\n      0x20\n        /* \"#utility.yul\":18826:18829   */\n      dup3\n        /* \"#utility.yul\":18822:18834   */\n      add\n        /* \"#utility.yul\":18815:18834   */\n      swap1\n      pop\n        /* \"#utility.yul\":18474:18840   */\n      swap2\n      swap1\n      pop\n      jump\t// out\n        /* \"#utility.yul\":18846:19265   */\n    tag_161:\n        /* \"#utility.yul\":19012:19016   */\n      0x00\n        /* \"#utility.yul\":19050:19052   */\n      0x20\n        /* \"#utility.yul\":19039:19048   */\n      dup3\n        /* \"#utility.yul\":19035:19053   */\n      add\n        /* \"#utility.yul\":19027:19053   */\n      swap1\n      pop\n        /* \"#utility.yul\":19099:19108   */\n      dup2\n        /* \"#utility.yul\":19093:19097   */\n      dup2\n        /* \"#utility.yul\":19089:19109   */\n      sub\n        /* \"#utility.yul\":19085:19086   */\n      0x00\n        /* \"#utility.yul\":19074:19083   */\n      dup4\n        /* \"#utility.yul\":19070:19087   */\n      add\n        /* \"#utility.yul\":19063:19110   */\n      mstore\n        /* \"#utility.yul\":19127:19258   */\n      tag_500\n        /* \"#utility.yul\":19253:19257   */\n      dup2\n        /* \"#utility.yul\":19127:19258   */\n      tag_301\n      jump\t// in\n    tag_500:\n        /* \"#utility.yul\":19119:19258   */\n      swap1\n      pop\n        /* \"#utility.yul\":18846:19265   */\n      swap2\n      swap1\n      pop\n      jump\t// out\n        /* \"#utility.yul\":19271:19452   */\n    tag_302:\n        /* \"#utility.yul\":19411:19444   */\n      0x70726963652076616c7565206d757374206265206d6f7265207468616e203000\n        /* \"#utility.yul\":19407:19408   */\n      0x00\n        /* \"#utility.yul\":19399:19405   */\n      dup3\n        /* \"#utility.yul\":19395:19409   */\n      add\n        /* \"#utility.yul\":19388:19445   */\n      mstore\n        /* \"#utility.yul\":19271:19452   */\n      pop\n      jump\t// out\n        /* \"#utility.yul\":19458:19824   */\n    tag_303:\n        /* \"#utility.yul\":19600:19603   */\n      0x00\n        /* \"#utility.yul\":19621:19688   */\n      tag_503\n        /* \"#utility.yul\":19685:19687   */\n      0x1f\n        /* \"#utility.yul\":19680:19683   */\n      dup4\n        /* \"#utility.yul\":19621:19688   */\n      tag_260\n      jump\t// in\n    tag_503:\n        /* \"#utility.yul\":19614:19688   */\n      swap2\n      pop\n        /* \"#utility.yul\":19697:19790   */\n      tag_504\n        /* \"#utility.yul\":19786:19789   */\n      dup3\n        /* \"#utility.yul\":19697:19790   */\n      tag_302\n      jump\t// in\n    tag_504:\n        /* \"#utility.yul\":19815:19817   */\n      0x20\n        /* \"#utility.yul\":19810:19813   */\n      dup3\n        /* \"#utility.yul\":19806:19818   */\n      add\n        /* \"#utility.yul\":19799:19818   */\n      swap1\n      pop\n        /* \"#utility.yul\":19458:19824   */\n      swap2\n      swap1\n      pop\n      jump\t// out\n        /* \"#utility.yul\":19830:20249   */\n    tag_175:\n        /* \"#utility.yul\":19996:20000   */\n      0x00\n        /* \"#utility.yul\":20034:20036   */\n      0x20\n        /* \"#utility.yul\":20023:20032   */\n      dup3\n        /* \"#utility.yul\":20019:20037   */\n      add\n        /* \"#utility.yul\":20011:20037   */\n      swap1\n      pop\n        /* \"#utility.yul\":20083:20092   */\n      dup2\n        /* \"#utility.yul\":20077:20081   */\n      dup2\n        /* \"#utility.yul\":20073:20093   */\n      sub\n        /* \"#utility.yul\":20069:20070   */\n      0x00\n        /* \"#utility.yul\":20058:20067   */\n      dup4\n        /* \"#utility.yul\":20054:20071   */\n      add\n        /* \"#utility.yul\":20047:20094   */\n      mstore\n        /* \"#utility.yul\":20111:20242   */\n      tag_506\n        /* \"#utility.yul\":20237:20241   */\n      dup2\n        /* \"#utility.yul\":20111:20242   */\n      tag_303\n      jump\t// in\n    tag_506:\n        /* \"#utility.yul\":20103:20242   */\n      swap1\n      pop\n        /* \"#utility.yul\":19830:20249   */\n      swap2\n      swap1\n      pop\n      jump\t// out\n        /* \"#utility.yul\":20255:20435   */\n    tag_304:\n        /* \"#utility.yul\":20395:20427   */\n      0x4e6f7420656e6f75676820626c616e636520746f20706c6163652061736b0000\n        /* \"#utility.yul\":20391:20392   */\n      0x00\n        /* \"#utility.yul\":20383:20389   */\n      dup3\n        /* \"#utility.yul\":20379:20393   */\n      add\n        /* \"#utility.yul\":20372:20428   */\n      mstore\n        /* \"#utility.yul\":20255:20435   */\n      pop\n      jump\t// out\n        /* \"#utility.yul\":20441:20807   */\n    tag_305:\n        /* \"#utility.yul\":20583:20586   */\n      0x00\n        /* \"#utility.yul\":20604:20671   */\n      tag_509\n        /* \"#utility.yul\":20668:20670   */\n      0x1e\n        /* \"#utility.yul\":20663:20666   */\n      dup4\n        /* \"#utility.yul\":20604:20671   */\n      tag_260\n      jump\t// in\n    tag_509:\n        /* \"#utility.yul\":20597:20671   */\n      swap2\n      pop\n        /* \"#utility.yul\":20680:20773   */\n      tag_510\n        /* \"#utility.yul\":20769:20772   */\n      dup3\n        /* \"#utility.yul\":20680:20773   */\n      tag_304\n      jump\t// in\n    tag_510:\n        /* \"#utility.yul\":20798:20800   */\n      0x20\n        /* \"#utility.yul\":20793:20796   */\n      dup3\n        /* \"#utility.yul\":20789:20801   */\n      add\n        /* \"#utility.yul\":20782:20801   */\n      swap1\n      pop\n        /* \"#utility.yul\":20441:20807   */\n      swap2\n      swap1\n      pop\n      jump\t// out\n        /* \"#utility.yul\":20813:21232   */\n    tag_178:\n        /* \"#utility.yul\":20979:20983   */\n      0x00\n        /* \"#utility.yul\":21017:21019   */\n      0x20\n        /* \"#utility.yul\":21006:21015   */\n      dup3\n        /* \"#utility.yul\":21002:21020   */\n      add\n        /* \"#utility.yul\":20994:21020   */\n      swap1\n      pop\n        /* \"#utility.yul\":21066:21075   */\n      dup2\n        /* \"#utility.yul\":21060:21064   */\n      dup2\n        /* \"#utility.yul\":21056:21076   */\n      sub\n        /* \"#utility.yul\":21052:21053   */\n      0x00\n        /* \"#utility.yul\":21041:21050   */\n      dup4\n        /* \"#utility.yul\":21037:21054   */\n      add\n        /* \"#utility.yul\":21030:21077   */\n      mstore\n        /* \"#utility.yul\":21094:21225   */\n      tag_512\n        /* \"#utility.yul\":21220:21224   */\n      dup2\n        /* \"#utility.yul\":21094:21225   */\n      tag_305\n      jump\t// in\n    tag_512:\n        /* \"#utility.yul\":21086:21225   */\n      swap1\n      pop\n        /* \"#utility.yul\":20813:21232   */\n      swap2\n      swap1\n      pop\n      jump\t// out\n        /* \"#utility.yul\":21238:21418   */\n    tag_306:\n        /* \"#utility.yul\":21286:21363   */\n      0x4e487b7100000000000000000000000000000000000000000000000000000000\n        /* \"#utility.yul\":21283:21284   */\n      0x00\n        /* \"#utility.yul\":21276:21364   */\n      mstore\n        /* \"#utility.yul\":21383:21387   */\n      0x11\n        /* \"#utility.yul\":21380:21381   */\n      0x04\n        /* \"#utility.yul\":21373:21388   */\n      mstore\n        /* \"#utility.yul\":21407:21411   */\n      0x24\n        /* \"#utility.yul\":21404:21405   */\n      0x00\n        /* \"#utility.yul\":21397:21412   */\n      revert\n        /* \"#utility.yul\":21424:21615   */\n    tag_180:\n        /* \"#utility.yul\":21464:21468   */\n      0x00\n        /* \"#utility.yul\":21484:21504   */\n      tag_515\n        /* \"#utility.yul\":21502:21503   */\n      dup3\n        /* \"#utility.yul\":21484:21504   */\n      tag_266\n      jump\t// in\n    tag_515:\n        /* \"#utility.yul\":21479:21504   */\n      swap2\n      pop\n        /* \"#utility.yul\":21518:21538   */\n      tag_516\n        /* \"#utility.yul\":21536:21537   */\n      dup4\n        /* \"#utility.yul\":21518:21538   */\n      tag_266\n      jump\t// in\n    tag_516:\n        /* \"#utility.yul\":21513:21538   */\n      swap3\n      pop\n        /* \"#utility.yul\":21557:21558   */\n      dup3\n        /* \"#utility.yul\":21554:21555   */\n      dup3\n        /* \"#utility.yul\":21551:21559   */\n      lt\n        /* \"#utility.yul\":21548:21582   */\n      iszero\n      tag_517\n      jumpi\n        /* \"#utility.yul\":21562:21580   */\n      tag_518\n      tag_306\n      jump\t// in\n    tag_518:\n        /* \"#utility.yul\":21548:21582   */\n    tag_517:\n        /* \"#utility.yul\":21607:21608   */\n      dup3\n        /* \"#utility.yul\":21604:21605   */\n      dup3\n        /* \"#utility.yul\":21600:21609   */\n      sub\n        /* \"#utility.yul\":21592:21609   */\n      swap1\n      pop\n        /* \"#utility.yul\":21424:21615   */\n      swap3\n      swap2\n      pop\n      pop\n      jump\t// out\n        /* \"#utility.yul\":21621:21969   */\n    tag_182:\n        /* \"#utility.yul\":21661:21668   */\n      0x00\n        /* \"#utility.yul\":21684:21704   */\n      tag_520\n        /* \"#utility.yul\":21702:21703   */\n      dup3\n        /* \"#utility.yul\":21684:21704   */\n      tag_266\n      jump\t// in\n    tag_520:\n        /* \"#utility.yul\":21679:21704   */\n      swap2\n      pop\n        /* \"#utility.yul\":21718:21738   */\n      tag_521\n        /* \"#utility.yul\":21736:21737   */\n      dup4\n        /* \"#utility.yul\":21718:21738   */\n      tag_266\n      jump\t// in\n    tag_521:\n        /* \"#utility.yul\":21713:21738   */\n      swap3\n      pop\n        /* \"#utility.yul\":21906:21907   */\n      dup2\n        /* \"#utility.yul\":21838:21904   */\n      0xffffffffffffffffffffffffffffffffffffffffffffffffffffffffffffffff\n        /* \"#utility.yul\":21834:21908   */\n      div\n        /* \"#utility.yul\":21831:21832   */\n      dup4\n        /* \"#utility.yul\":21828:21909   */\n      gt\n        /* \"#utility.yul\":21823:21824   */\n      dup3\n        /* \"#utility.yul\":21816:21825   */\n      iszero\n        /* \"#utility.yul\":21809:21826   */\n      iszero\n        /* \"#utility.yul\":21805:21910   */\n      and\n        /* \"#utility.yul\":21802:21933   */\n      iszero\n      tag_522\n      jumpi\n        /* \"#utility.yul\":21913:21931   */\n      tag_523\n      tag_306\n      jump\t// in\n    tag_523:\n        /* \"#utility.yul\":21802:21933   */\n    tag_522:\n        /* \"#utility.yul\":21961:21962   */\n      dup3\n        /* \"#utility.yul\":21958:21959   */\n      dup3\n        /* \"#utility.yul\":21954:21963   */\n      mul\n        /* \"#utility.yul\":21943:21963   */\n      swap1\n      pop\n        /* \"#utility.yul\":21621:21969   */\n      swap3\n      swap2\n      pop\n      pop\n      jump\t// out\n        /* \"#utility.yul\":21975:22155   */\n    tag_307:\n        /* \"#utility.yul\":22023:22100   */\n      0x4e487b7100000000000000000000000000000000000000000000000000000000\n        /* \"#utility.yul\":22020:22021   */\n      0x00\n        /* \"#utility.yul\":22013:22101   */\n      mstore\n        /* \"#utility.yul\":22120:22124   */\n      0x12\n        /* \"#utility.yul\":22117:22118   */\n      0x04\n        /* \"#utility.yul\":22110:22125   */\n      mstore\n        /* \"#utility.yul\":22144:22148   */\n      0x24\n        /* \"#utility.yul\":22141:22142   */\n      0x00\n        /* \"#utility.yul\":22134:22149   */\n      revert\n        /* \"#utility.yul\":22161:22346   */\n    tag_184:\n        /* \"#utility.yul\":22201:22202   */\n      0x00\n        /* \"#utility.yul\":22218:22238   */\n      tag_526\n        /* \"#utility.yul\":22236:22237   */\n      dup3\n        /* \"#utility.yul\":22218:22238   */\n      tag_266\n      jump\t// in\n    tag_526:\n        /* \"#utility.yul\":22213:22238   */\n      swap2\n      pop\n        /* \"#utility.yul\":22252:22272   */\n      tag_527\n        /* \"#utility.yul\":22270:22271   */\n      dup4\n        /* \"#utility.yul\":22252:22272   */\n      tag_266\n      jump\t// in\n    tag_527:\n        /* \"#utility.yul\":22247:22272   */\n      swap3\n      pop\n        /* \"#utility.yul\":22291:22292   */\n      dup3\n        /* \"#utility.yul\":22281:22316   */\n      tag_528\n      jumpi\n        /* \"#utility.yul\":22296:22314   */\n      tag_529\n      tag_307\n      jump\t// in\n    tag_529:\n        /* \"#utility.yul\":22281:22316   */\n    tag_528:\n        /* \"#utility.yul\":22338:22339   */\n      dup3\n        /* \"#utility.yul\":22335:22336   */\n      dup3\n        /* \"#utility.yul\":22331:22340   */\n      div\n        /* \"#utility.yul\":22326:22340   */\n      swap1\n      pop\n        /* \"#utility.yul\":22161:22346   */\n      swap3\n      swap2\n      pop\n      pop\n      jump\t// out\n        /* \"#utility.yul\":22352:22532   */\n    tag_308:\n        /* \"#utility.yul\":22492:22524   */\n      0x4e6f7420656e6f75676820626c616e636520746f20706c616365206269640000\n        /* \"#utility.yul\":22488:22489   */\n      0x00\n        /* \"#utility.yul\":22480:22486   */\n      dup3\n        /* \"#utility.yul\":22476:22490   */\n      add\n        /* \"#utility.yul\":22469:22525   */\n      mstore\n        /* \"#utility.yul\":22352:22532   */\n      pop\n      jump\t// out\n        /* \"#utility.yul\":22538:22904   */\n    tag_309:\n        /* \"#utility.yul\":22680:22683   */\n      0x00\n        /* \"#utility.yul\":22701:22768   */\n      tag_532\n        /* \"#utility.yul\":22765:22767   */\n      0x1e\n        /* \"#utility.yul\":22760:22763   */\n      dup4\n        /* \"#utility.yul\":22701:22768   */\n      tag_260\n      jump\t// in\n    tag_532:\n        /* \"#utility.yul\":22694:22768   */\n      swap2\n      pop\n        /* \"#utility.yul\":22777:22870   */\n      tag_533\n        /* \"#utility.yul\":22866:22869   */\n      dup3\n        /* \"#utility.yul\":22777:22870   */\n      tag_308\n      jump\t// in\n    tag_533:\n        /* \"#utility.yul\":22895:22897   */\n      0x20\n        /* \"#utility.yul\":22890:22893   */\n      dup3\n        /* \"#utility.yul\":22886:22898   */\n      add\n        /* \"#utility.yul\":22879:22898   */\n      swap1\n      pop\n        /* \"#utility.yul\":22538:22904   */\n      swap2\n      swap1\n      pop\n      jump\t// out\n        /* \"#utility.yul\":22910:23329   */\n    tag_213:\n        /* \"#utility.yul\":23076:23080   */\n      0x00\n        /* \"#utility.yul\":23114:23116   */\n      0x20\n        /* \"#utility.yul\":23103:23112   */\n      dup3\n        /* \"#utility.yul\":23099:23117   */\n      add\n        /* \"#utility.yul\":23091:23117   */\n      swap1\n      pop\n        /* \"#utility.yul\":23163:23172   */\n      dup2\n        /* \"#utility.yul\":23157:23161   */\n      dup2\n        /* \"#utility.yul\":23153:23173   */\n      sub\n        /* \"#utility.yul\":23149:23150   */\n      0x00\n        /* \"#utility.yul\":23138:23147   */\n      dup4\n        /* \"#utility.yul\":23134:23151   */\n      add\n        /* \"#utility.yul\":23127:23174   */\n      mstore\n        /* \"#utility.yul\":23191:23322   */\n      tag_535\n        /* \"#utility.yul\":23317:23321   */\n      dup2\n        /* \"#utility.yul\":23191:23322   */\n      tag_309\n      jump\t// in\n    tag_535:\n        /* \"#utility.yul\":23183:23322   */\n      swap1\n      pop\n        /* \"#utility.yul\":22910:23329   */\n      swap2\n      swap1\n      pop\n      jump\t// out\n        /* \"#utility.yul\":23335:23515   */\n    tag_310:\n        /* \"#utility.yul\":23503:23508   */\n      0x202c200000000000000000000000000000000000000000000000000000000000\n        /* \"#utility.yul\":23498:23501   */\n      dup2\n        /* \"#utility.yul\":23491:23509   */\n      mstore\n        /* \"#utility.yul\":23335:23515   */\n      pop\n      jump\t// out\n        /* \"#utility.yul\":23521:24182   */\n    tag_217:\n        /* \"#utility.yul\":23751:23754   */\n      0x00\n        /* \"#utility.yul\":23766:23841   */\n      tag_538\n        /* \"#utility.yul\":23837:23840   */\n      dup3\n        /* \"#utility.yul\":23828:23834   */\n      dup6\n        /* \"#utility.yul\":23766:23841   */\n      tag_297\n      jump\t// in\n    tag_538:\n        /* \"#utility.yul\":23866:23868   */\n      0x20\n        /* \"#utility.yul\":23861:23864   */\n      dup3\n        /* \"#utility.yul\":23857:23869   */\n      add\n        /* \"#utility.yul\":23850:23869   */\n      swap2\n      pop\n        /* \"#utility.yul\":23879:24016   */\n      tag_539\n        /* \"#utility.yul\":24012:24015   */\n      dup3\n        /* \"#utility.yul\":23879:24016   */\n      tag_310\n      jump\t// in\n    tag_539:\n        /* \"#utility.yul\":24041:24042   */\n      0x03\n        /* \"#utility.yul\":24036:24039   */\n      dup3\n        /* \"#utility.yul\":24032:24043   */\n      add\n        /* \"#utility.yul\":24025:24043   */\n      swap2\n      pop\n        /* \"#utility.yul\":24053:24128   */\n      tag_540\n        /* \"#utility.yul\":24124:24127   */\n      dup3\n        /* \"#utility.yul\":24115:24121   */\n      dup5\n        /* \"#utility.yul\":24053:24128   */\n      tag_297\n      jump\t// in\n    tag_540:\n        /* \"#utility.yul\":24153:24155   */\n      0x20\n        /* \"#utility.yul\":24148:24151   */\n      dup3\n        /* \"#utility.yul\":24144:24156   */\n      add\n        /* \"#utility.yul\":24137:24156   */\n      swap2\n      pop\n        /* \"#utility.yul\":24173:24176   */\n      dup2\n        /* \"#utility.yul\":24166:24176   */\n      swap1\n      pop\n        /* \"#utility.yul\":23521:24182   */\n      swap4\n      swap3\n      pop\n      pop\n      pop\n      jump\t// out\n        /* \"#utility.yul\":24188:24421   */\n    tag_225:\n        /* \"#utility.yul\":24227:24230   */\n      0x00\n        /* \"#utility.yul\":24250:24274   */\n      tag_542\n        /* \"#utility.yul\":24268:24273   */\n      dup3\n        /* \"#utility.yul\":24250:24274   */\n      tag_266\n      jump\t// in\n    tag_542:\n        /* \"#utility.yul\":24241:24274   */\n      swap2\n      pop\n        /* \"#utility.yul\":24296:24362   */\n      0xffffffffffffffffffffffffffffffffffffffffffffffffffffffffffffffff\n        /* \"#utility.yul\":24289:24294   */\n      dup3\n        /* \"#utility.yul\":24286:24363   */\n      sub\n        /* \"#utility.yul\":24283:24386   */\n      tag_543\n      jumpi\n        /* \"#utility.yul\":24366:24384   */\n      tag_544\n      tag_306\n      jump\t// in\n    tag_544:\n        /* \"#utility.yul\":24283:24386   */\n    tag_543:\n        /* \"#utility.yul\":24413:24414   */\n      0x01\n        /* \"#utility.yul\":24406:24411   */\n      dup3\n        /* \"#utility.yul\":24402:24415   */\n      add\n        /* \"#utility.yul\":24395:24415   */\n      swap1\n      pop\n        /* \"#utility.yul\":24188:24421   */\n      swap2\n      swap1\n      pop\n      jump\t// out\n        /* \"#utility.yul\":24427:24523   */\n    tag_311:\n        /* \"#utility.yul\":24464:24471   */\n      0x00\n        /* \"#utility.yul\":24493:24517   */\n      tag_546\n        /* \"#utility.yul\":24511:24516   */\n      dup3\n        /* \"#utility.yul\":24493:24517   */\n      tag_277\n      jump\t// in\n    tag_546:\n        /* \"#utility.yul\":24482:24517   */\n      swap1\n      pop\n        /* \"#utility.yul\":24427:24523   */\n      swap2\n      swap1\n      pop\n      jump\t// out\n        /* \"#utility.yul\":24529:24647   */\n    tag_312:\n        /* \"#utility.yul\":24616:24640   */\n      tag_548\n        /* \"#utility.yul\":24634:24639   */\n      dup2\n        /* \"#utility.yul\":24616:24640   */\n      tag_311\n      jump\t// in\n    tag_548:\n        /* \"#utility.yul\":24611:24614   */\n      dup3\n        /* \"#utility.yul\":24604:24641   */\n      mstore\n        /* \"#utility.yul\":24529:24647   */\n      pop\n      pop\n      jump\t// out\n        /* \"#utility.yul\":24653:24738   */\n    tag_313:\n        /* \"#utility.yul\":24698:24705   */\n      0x00\n        /* \"#utility.yul\":24727:24732   */\n      dup2\n        /* \"#utility.yul\":24716:24732   */\n      swap1\n      pop\n        /* \"#utility.yul\":24653:24738   */\n      swap2\n      swap1\n      pop\n      jump\t// out\n        /* \"#utility.yul\":24744:24804   */\n    tag_314:\n        /* \"#utility.yul\":24772:24775   */\n      0x00\n        /* \"#utility.yul\":24793:24798   */\n      dup2\n        /* \"#utility.yul\":24786:24798   */\n      swap1\n      pop\n        /* \"#utility.yul\":24744:24804   */\n      swap2\n      swap1\n      pop\n      jump\t// out\n        /* \"#utility.yul\":24810:24968   */\n    tag_315:\n        /* \"#utility.yul\":24868:24877   */\n      0x00\n        /* \"#utility.yul\":24901:24962   */\n      tag_552\n        /* \"#utility.yul\":24919:24961   */\n      tag_553\n        /* \"#utility.yul\":24928:24960   */\n      tag_554\n        /* \"#utility.yul\":24954:24959   */\n      dup5\n        /* \"#utility.yul\":24928:24960   */\n      tag_313\n      jump\t// in\n    tag_554:\n        /* \"#utility.yul\":24919:24961   */\n      tag_314\n      jump\t// in\n    tag_553:\n        /* \"#utility.yul\":24901:24962   */\n      tag_266\n      jump\t// in\n    tag_552:\n        /* \"#utility.yul\":24888:24962   */\n      swap1\n      pop\n        /* \"#utility.yul\":24810:24968   */\n      swap2\n      swap1\n      pop\n      jump\t// out\n        /* \"#utility.yul\":24974:25121   */\n    tag_316:\n        /* \"#utility.yul\":25069:25114   */\n      tag_556\n        /* \"#utility.yul\":25108:25113   */\n      dup2\n        /* \"#utility.yul\":25069:25114   */\n      tag_315\n      jump\t// in\n    tag_556:\n        /* \"#utility.yul\":25064:25067   */\n      dup3\n        /* \"#utility.yul\":25057:25115   */\n      mstore\n        /* \"#utility.yul\":24974:25121   */\n      pop\n      pop\n      jump\t// out\n        /* \"#utility.yul\":25127:26154   */\n    tag_231:\n        /* \"#utility.yul\":25431:25435   */\n      0x00\n        /* \"#utility.yul\":25469:25472   */\n      0x0100\n        /* \"#utility.yul\":25458:25467   */\n      dup3\n        /* \"#utility.yul\":25454:25473   */\n      add\n        /* \"#utility.yul\":25446:25473   */\n      swap1\n      pop\n        /* \"#utility.yul\":25483:25554   */\n      tag_558\n        /* \"#utility.yul\":25551:25552   */\n      0x00\n        /* \"#utility.yul\":25540:25549   */\n      dup4\n        /* \"#utility.yul\":25536:25553   */\n      add\n        /* \"#utility.yul\":25527:25533   */\n      dup12\n        /* \"#utility.yul\":25483:25554   */\n      tag_312\n      jump\t// in\n    tag_558:\n        /* \"#utility.yul\":25564:25636   */\n      tag_559\n        /* \"#utility.yul\":25632:25634   */\n      0x20\n        /* \"#utility.yul\":25621:25630   */\n      dup4\n        /* \"#utility.yul\":25617:25635   */\n      add\n        /* \"#utility.yul\":25608:25614   */\n      dup11\n        /* \"#utility.yul\":25564:25636   */\n      tag_273\n      jump\t// in\n    tag_559:\n        /* \"#utility.yul\":25646:25718   */\n      tag_560\n        /* \"#utility.yul\":25714:25716   */\n      0x40\n        /* \"#utility.yul\":25703:25712   */\n      dup4\n        /* \"#utility.yul\":25699:25717   */\n      add\n        /* \"#utility.yul\":25690:25696   */\n      dup10\n        /* \"#utility.yul\":25646:25718   */\n      tag_273\n      jump\t// in\n    tag_560:\n        /* \"#utility.yul\":25728:25805   */\n      tag_561\n        /* \"#utility.yul\":25801:25803   */\n      0x60\n        /* \"#utility.yul\":25790:25799   */\n      dup4\n        /* \"#utility.yul\":25786:25804   */\n      add\n        /* \"#utility.yul\":25777:25783   */\n      dup9\n        /* \"#utility.yul\":25728:25805   */\n      tag_288\n      jump\t// in\n    tag_561:\n        /* \"#utility.yul\":25815:25888   */\n      tag_562\n        /* \"#utility.yul\":25883:25886   */\n      0x80\n        /* \"#utility.yul\":25872:25881   */\n      dup4\n        /* \"#utility.yul\":25868:25887   */\n      add\n        /* \"#utility.yul\":25859:25865   */\n      dup8\n        /* \"#utility.yul\":25815:25888   */\n      tag_273\n      jump\t// in\n    tag_562:\n        /* \"#utility.yul\":25898:25979   */\n      tag_563\n        /* \"#utility.yul\":25974:25977   */\n      0xa0\n        /* \"#utility.yul\":25963:25972   */\n      dup4\n        /* \"#utility.yul\":25959:25978   */\n      add\n        /* \"#utility.yul\":25950:25956   */\n      dup7\n        /* \"#utility.yul\":25898:25979   */\n      tag_316\n      jump\t// in\n    tag_563:\n        /* \"#utility.yul\":25989:26070   */\n      tag_564\n        /* \"#utility.yul\":26065:26068   */\n      0xc0\n        /* \"#utility.yul\":26054:26063   */\n      dup4\n        /* \"#utility.yul\":26050:26069   */\n      add\n        /* \"#utility.yul\":26041:26047   */\n      dup6\n        /* \"#utility.yul\":25989:26070   */\n      tag_316\n      jump\t// in\n    tag_564:\n        /* \"#utility.yul\":26080:26147   */\n      tag_565\n        /* \"#utility.yul\":26142:26145   */\n      0xe0\n        /* \"#utility.yul\":26131:26140   */\n      dup4\n        /* \"#utility.yul\":26127:26146   */\n      add\n        /* \"#utility.yul\":26118:26124   */\n      dup5\n        /* \"#utility.yul\":26080:26147   */\n      tag_291\n      jump\t// in\n    tag_565:\n        /* \"#utility.yul\":25127:26154   */\n      swap10\n      swap9\n      pop\n      pop\n      pop\n      pop\n      pop\n      pop\n      pop\n      pop\n      pop\n      jump\t// out\n\n    auxdata: 0xa26469706673582212200565323d9d4c69c9e181d4ef6061ddfd7f257323545b020c3c6c71762af707cc64736f6c634300080d0033\n}\n",
				"bytecode": {
					"linkReferences": {},
					"object": "608060405233600160006101000a81548173ffffffffffffffffffffffffffffffffffffffff021916908373ffffffffffffffffffffffffffffffffffffffff1602179055503480156200005257600080fd5b5060405162002057380380620020578339818101604052810190620000789190620000f6565b80600281905550600060048190555060006005819055506000600681905550600060088190555060006009819055506000600a819055505062000128565b600080fd5b6000819050919050565b620000d081620000bb565b8114620000dc57600080fd5b50565b600081519050620000f081620000c5565b92915050565b6000602082840312156200010f576200010e620000b6565b5b60006200011f84828501620000df565b91505092915050565b611f1f80620001386000396000f3fe6080604052600436106101405760003560e01c80637bb51193116100b6578063bf77ffae1161006f578063bf77ffae14610458578063c12bcf4914610495578063ce0cdc87146104d2578063d09ef241146104fd578063db3a139614610541578063ecdfb8601461057e57610140565b80637bb5119314610367578063801d9bbd146103925780639703ef35146103bd5780639979ef45146103e6578063a394fda714610402578063b40a56271461042d57610140565b806344e791e01161010857806344e791e01461023e5780634d46712d1461026957806369f632e2146102a65780636e5b0f00146102e3578063734a2e781461030e57806378c5b2681461034b57610140565b80630a7e490414610145578063122de8f2146101825780631628e0f5146101ad5780632db6dfa7146101d65780634471417f14610213575b600080fd5b34801561015157600080fd5b5061016c60048036038101906101679190611390565b6105a9565b6040516101799190611474565b60405180910390f35b34801561018e57600080fd5b506101976105d5565b6040516101a4919061155e565b60405180910390f35b3480156101b957600080fd5b506101d460048036038101906101cf91906115ac565b6105da565b005b3480156101e257600080fd5b506101fd60048036038101906101f891906115ac565b610880565b60405161020a91906115e8565b60405180910390f35b34801561021f57600080fd5b506102286108a0565b60405161023591906117f8565b60405180910390f35b34801561024a57600080fd5b506102536108a5565b6040516102609190611474565b60405180910390f35b34801561027557600080fd5b50610290600480360381019061028b91906115ac565b610903565b60405161029d9190611829565b60405180910390f35b3480156102b257600080fd5b506102cd60048036038101906102c891906115ac565b610930565b6040516102da9190611853565b60405180910390f35b3480156102ef57600080fd5b506102f8610970565b60405161030591906115e8565b60405180910390f35b34801561031a57600080fd5b50610335600480360381019061033091906115ac565b610976565b6040516103429190611853565b60405180910390f35b610365600480360381019061036091906115ac565b6109b6565b005b34801561037357600080fd5b5061037c610a8a565b60405161038991906115e8565b60405180910390f35b34801561039e57600080fd5b506103a7610a90565b6040516103b491906115e8565b60405180910390f35b3480156103c957600080fd5b506103e460048036038101906103df91906115ac565b610a96565b005b61040060048036038101906103fb91906115ac565b610d3c565b005b34801561040e57600080fd5b50610417610dc6565b60405161042491906115e8565b60405180910390f35b34801561043957600080fd5b50610442610dcc565b60405161044f91906115e8565b60405180910390f35b34801561046457600080fd5b5061047f600480360381019061047a91906115ac565b610dd2565b60405161048c9190611829565b60405180910390f35b3480156104a157600080fd5b506104bc60048036038101906104b7919061186e565b610dff565b6040516104c99190611474565b60405180910390f35b3480156104de57600080fd5b506104e7610e31565b6040516104f4919061155e565b60405180910390f35b34801561050957600080fd5b50610524600480360381019061051f91906115ac565b610e36565b6040516105389897969594939291906118c9565b60405180910390f35b34801561054d57600080fd5b50610568600480360381019061056391906115ac565b610e4d565b60405161057591906115e8565b60405180910390f35b34801561058a57600080fd5b50610593610e6d565b6040516105a091906115e8565b60405180910390f35b606082826040516020016105be9291906119f0565b604051602081830303815290604052905092915050565b606090565b600760008281526020019081526020016000206040518060e00160405290816000820160009054906101000a900473ffffffffffffffffffffffffffffffffffffffff1673ffffffffffffffffffffffffffffffffffffffff1673ffffffffffffffffffffffffffffffffffffffff16815260200160018201548152602001600282015481526020016003820160009054906101000a900460ff16600181111561068757610686611670565b5b600181111561069957610698611670565b5b81526020016004820154815260200160058201548152602001600682015481525050600060018111156106cf576106ce611670565b5b816060015160018111156106e6576106e5611670565b5b14610726576040517f08c379a000000000000000000000000000000000000000000000000000000000815260040161071d90611a6f565b60405180910390fd5b600760008381526020019081526020016000206040518060e00160405290816000820160009054906101000a900473ffffffffffffffffffffffffffffffffffffffff1673ffffffffffffffffffffffffffffffffffffffff1673ffffffffffffffffffffffffffffffffffffffff16815260200160018201548152602001600282015481526020016003820160009054906101000a900460ff1660018111156107d3576107d2611670565b5b60018111156107e5576107e4611670565b5b81526020016004820154815260200160058201548152602001600682015481525050338073ffffffffffffffffffffffffffffffffffffffff16826000015173ffffffffffffffffffffffffffffffffffffffff161461087a576040517f08c379a000000000000000000000000000000000000000000000000000000000815260040161087190611adb565b60405180910390fd5b50505050565b600060036000838152602001908152602001600020600101549050919050565b606090565b60606000600854905060006040518060200160405280600081525090505b600082146108fe576000600760008481526020019081526020016000206005015490506108f3828460001b6105a9565b9150809250506108c3565b505090565b60006007600083815260200190815260200160002060030160009054906101000a900460ff169050919050565b60006003600083815260200190815260200160002060000160009054906101000a900473ffffffffffffffffffffffffffffffffffffffff169050919050565b60045481565b60006007600083815260200190815260200160002060000160009054906101000a900473ffffffffffffffffffffffffffffffffffffffff169050919050565b60008110156109fa576040517f08c379a00000000000000000000000000000000000000000000000000000000081526004016109f190611b47565b60405180910390fd5b80341015610a3d576040517f08c379a0000000000000000000000000000000000000000000000000000000008152600401610a3490611bb3565b60405180910390fd5b6000429050600060646002546064610a559190611c02565b34610a609190611c36565b610a6a9190611cbf565b90506000610a79338484610e73565b9050610a848161100e565b50505050565b60055481565b60085481565b600360008281526020019081526020016000206040518060e00160405290816000820160009054906101000a900473ffffffffffffffffffffffffffffffffffffffff1673ffffffffffffffffffffffffffffffffffffffff1673ffffffffffffffffffffffffffffffffffffffff16815260200160018201548152602001600282015481526020016003820160009054906101000a900460ff166001811115610b4357610b42611670565b5b6001811115610b5557610b54611670565b5b8152602001600482015481526020016005820154815260200160068201548152505060006001811115610b8b57610b8a611670565b5b81606001516001811115610ba257610ba1611670565b5b14610be2576040517f08c379a0000000000000000000000000000000000000000000000000000000008152600401610bd990611a6f565b60405180910390fd5b600360008381526020019081526020016000206040518060e00160405290816000820160009054906101000a900473ffffffffffffffffffffffffffffffffffffffff1673ffffffffffffffffffffffffffffffffffffffff1673ffffffffffffffffffffffffffffffffffffffff16815260200160018201548152602001600282015481526020016003820160009054906101000a900460ff166001811115610c8f57610c8e611670565b5b6001811115610ca157610ca0611670565b5b81526020016004820154815260200160058201548152602001600682015481525050338073ffffffffffffffffffffffffffffffffffffffff16826000015173ffffffffffffffffffffffffffffffffffffffff1614610d36576040517f08c379a0000000000000000000000000000000000000000000000000000000008152600401610d2d90611adb565b60405180910390fd5b50505050565b6000811015610d80576040517f08c379a0000000000000000000000000000000000000000000000000000000008152600401610d7790611b47565b60405180910390fd5b80341015610dc3576040517f08c379a0000000000000000000000000000000000000000000000000000000008152600401610dba90611d3c565b60405180910390fd5b50565b600a5481565b60065481565b60006003600083815260200190815260200160002060030160009054906101000a900460ff169050919050565b60608260001b8260001b604051602001610e1a929190611d82565b604051602081830303815290604052905092915050565b606090565b600080600080600080600080919395975091939597565b600060076000838152602001908152602001600020600101549050919050565b60095481565b610e7b61119b565b600a6000815480929190610e8e90611dbd565b919050555060006040518060e001604052808673ffffffffffffffffffffffffffffffffffffffff16815260200185815260200184815260200160006001811115610edc57610edb611670565b5b8152602001600a54815260200160008152602001600081525090508060076000600a54815260200190815260200160002060008201518160000160006101000a81548173ffffffffffffffffffffffffffffffffffffffff021916908373ffffffffffffffffffffffffffffffffffffffff160217905550602082015181600101556040820151816002015560608201518160030160006101000a81548160ff02191690836001811115610f9357610f92611670565b5b02179055506080820151816004015560a0820151816005015560c082015181600601559050507f93caf6ba1af44020dfe6076e279533e38bd8deefe534c43aa8cc93aad2025b7d8585856000600a546000806000604051610ffb989796959493929190611e6b565b60405180910390a1809150509392505050565b60008060085403611029578160800151600881905550611197565b8160200151600760006008548152602001908152602001600020600101541061108b576008548260a00181815250508160800151600760008460a001518152602001908152602001600020600601819055508160800151600881905550611196565b60085490505b60006007600083815260200190815260200160002060050154141580156110e757508160200151600760006007600085815260200190815260200160002060050154815260200190815260200160002060010154105b1561110a5760076000828152602001908152602001600020600501549050611091565b60076000828152602001908152602001600020600501548260a0018181525050600060076000838152602001908152602001600020600501541461116c578160800151600760008460a001518152602001908152602001600020600601819055505b81608001516007600083815260200190815260200160002060050181905550808260c00181815250505b5b5050565b6040518060e00160405280600073ffffffffffffffffffffffffffffffffffffffff1681526020016000815260200160008152602001600060018111156111e5576111e4611670565b5b81526020016000815260200160008152602001600081525090565b6000604051905090565b600080fd5b600080fd5b600080fd5b600080fd5b6000601f19601f8301169050919050565b7f4e487b7100000000000000000000000000000000000000000000000000000000600052604160045260246000fd5b6112678261121e565b810181811067ffffffffffffffff821117156112865761128561122f565b5b80604052505050565b6000611299611200565b90506112a5828261125e565b919050565b600067ffffffffffffffff8211156112c5576112c461122f565b5b6112ce8261121e565b9050602081019050919050565b82818337600083830152505050565b60006112fd6112f8846112aa565b61128f565b90508281526020810184848401111561131957611318611219565b5b6113248482856112db565b509392505050565b600082601f83011261134157611340611214565b5b81356113518482602086016112ea565b91505092915050565b6000819050919050565b61136d8161135a565b811461137857600080fd5b50565b60008135905061138a81611364565b92915050565b600080604083850312156113a7576113a661120a565b5b600083013567ffffffffffffffff8111156113c5576113c461120f565b5b6113d18582860161132c565b92505060206113e28582860161137b565b9150509250929050565b600081519050919050565b600082825260208201905092915050565b60005b8381101561142657808201518184015260208101905061140b565b83811115611435576000848401525b50505050565b6000611446826113ec565b61145081856113f7565b9350611460818560208601611408565b6114698161121e565b840191505092915050565b6000602082019050818103600083015261148e818461143b565b905092915050565b600081519050919050565b600082825260208201905092915050565b6000819050602082019050919050565b6000819050919050565b6114d5816114c2565b82525050565b60006114e783836114cc565b60208301905092915050565b6000602082019050919050565b600061150b82611496565b61151581856114a1565b9350611520836114b2565b8060005b8381101561155157815161153888826114db565b9750611543836114f3565b925050600181019050611524565b5085935050505092915050565b600060208201905081810360008301526115788184611500565b905092915050565b611589816114c2565b811461159457600080fd5b50565b6000813590506115a681611580565b92915050565b6000602082840312156115c2576115c161120a565b5b60006115d084828501611597565b91505092915050565b6115e2816114c2565b82525050565b60006020820190506115fd60008301846115d9565b92915050565b600081519050919050565b600082825260208201905092915050565b6000819050602082019050919050565b600073ffffffffffffffffffffffffffffffffffffffff82169050919050565b600061165a8261162f565b9050919050565b61166a8161164f565b82525050565b7f4e487b7100000000000000000000000000000000000000000000000000000000600052602160045260246000fd5b600281106116b0576116af611670565b5b50565b60008190506116c18261169f565b919050565b60006116d1826116b3565b9050919050565b6116e1816116c6565b82525050565b60e0820160008201516116fd6000850182611661565b50602082015161171060208501826114cc565b50604082015161172360408501826114cc565b50606082015161173660608501826116d8565b50608082015161174960808501826114cc565b5060a082015161175c60a08501826114cc565b5060c082015161176f60c08501826114cc565b50505050565b600061178183836116e7565b60e08301905092915050565b6000602082019050919050565b60006117a582611603565b6117af818561160e565b93506117ba8361161f565b8060005b838110156117eb5781516117d28882611775565b97506117dd8361178d565b9250506001810190506117be565b5085935050505092915050565b60006020820190508181036000830152611812818461179a565b905092915050565b611823816116c6565b82525050565b600060208201905061183e600083018461181a565b92915050565b61184d8161164f565b82525050565b60006020820190506118686000830184611844565b92915050565b600080604083850312156118855761188461120a565b5b600061189385828601611597565b92505060206118a485828601611597565b9150509250929050565b60008115159050919050565b6118c3816118ae565b82525050565b6000610100820190506118df600083018b611844565b6118ec602083018a6115d9565b6118f960408301896115d9565b611906606083018861181a565b61191360808301876115d9565b61192060a08301866115d9565b61192d60c08301856115d9565b61193a60e08301846118ba565b9998505050505050505050565b600081905092915050565b600061195d826113ec565b6119678185611947565b9350611977818560208601611408565b80840191505092915050565b7f2000000000000000000000000000000000000000000000000000000000000000600082015250565b60006119b9600183611947565b91506119c482611983565b600182019050919050565b6000819050919050565b6119ea6119e58261135a565b6119cf565b82525050565b60006119fc8285611952565b9150611a07826119ac565b9150611a1382846119d9565b6020820191508190509392505050565b7f4f726465722050656e64696e6700000000000000000000000000000000000000600082015250565b6000611a59600d836113f7565b9150611a6482611a23565b602082019050919050565b60006020820190508181036000830152611a8881611a4c565b9050919050565b7f4e6f7420417574686f7269736564000000000000000000000000000000000000600082015250565b6000611ac5600e836113f7565b9150611ad082611a8f565b602082019050919050565b60006020820190508181036000830152611af481611ab8565b9050919050565b7f70726963652076616c7565206d757374206265206d6f7265207468616e203000600082015250565b6000611b31601f836113f7565b9150611b3c82611afb565b602082019050919050565b60006020820190508181036000830152611b6081611b24565b9050919050565b7f4e6f7420656e6f75676820626c616e636520746f20706c6163652061736b0000600082015250565b6000611b9d601e836113f7565b9150611ba882611b67565b602082019050919050565b60006020820190508181036000830152611bcc81611b90565b9050919050565b7f4e487b7100000000000000000000000000000000000000000000000000000000600052601160045260246000fd5b6000611c0d826114c2565b9150611c18836114c2565b925082821015611c2b57611c2a611bd3565b5b828203905092915050565b6000611c41826114c2565b9150611c4c836114c2565b9250817fffffffffffffffffffffffffffffffffffffffffffffffffffffffffffffffff0483118215151615611c8557611c84611bd3565b5b828202905092915050565b7f4e487b7100000000000000000000000000000000000000000000000000000000600052601260045260246000fd5b6000611cca826114c2565b9150611cd5836114c2565b925082611ce557611ce4611c90565b5b828204905092915050565b7f4e6f7420656e6f75676820626c616e636520746f20706c616365206269640000600082015250565b6000611d26601e836113f7565b9150611d3182611cf0565b602082019050919050565b60006020820190508181036000830152611d5581611d19565b9050919050565b7f202c200000000000000000000000000000000000000000000000000000000000815250565b6000611d8e82856119d9565b602082019150611d9d82611d5c565b600382019150611dad82846119d9565b6020820191508190509392505050565b6000611dc8826114c2565b91507fffffffffffffffffffffffffffffffffffffffffffffffffffffffffffffffff8203611dfa57611df9611bd3565b5b600182019050919050565b6000611e108261162f565b9050919050565b611e2081611e05565b82525050565b6000819050919050565b6000819050919050565b6000611e55611e50611e4b84611e26565b611e30565b6114c2565b9050919050565b611e6581611e3a565b82525050565b600061010082019050611e81600083018b611e17565b611e8e602083018a6115d9565b611e9b60408301896115d9565b611ea8606083018861181a565b611eb560808301876115d9565b611ec260a0830186611e5c565b611ecf60c0830185611e5c565b611edc60e08301846118ba565b999850505050505050505056fea26469706673582212200565323d9d4c69c9e181d4ef6061ddfd7f257323545b020c3c6c71762af707cc64736f6c634300080d0033",
					"opcodes": "PUSH1 0x80 PUSH1 0x40 MSTORE CALLER PUSH1 0x1 PUSH1 0x0 PUSH2 0x100 EXP DUP2 SLOAD DUP2 PUSH20 0xFFFFFFFFFFFFFFFFFFFFFFFFFFFFFFFFFFFFFFFF MUL NOT AND SWAP1 DUP4 PUSH20 0xFFFFFFFFFFFFFFFFFFFFFFFFFFFFFFFFFFFFFFFF AND MUL OR SWAP1 SSTORE POP CALLVALUE DUP1 ISZERO PUSH3 0x52 JUMPI PUSH1 0x0 DUP1 REVERT JUMPDEST POP PUSH1 0x40 MLOAD PUSH3 0x2057 CODESIZE SUB DUP1 PUSH3 0x2057 DUP4 CODECOPY DUP2 DUP2 ADD PUSH1 0x40 MSTORE DUP2 ADD SWAP1 PUSH3 0x78 SWAP2 SWAP1 PUSH3 0xF6 JUMP JUMPDEST DUP1 PUSH1 0x2 DUP2 SWAP1 SSTORE POP PUSH1 0x0 PUSH1 0x4 DUP2 SWAP1 SSTORE POP PUSH1 0x0 PUSH1 0x5 DUP2 SWAP1 SSTORE POP PUSH1 0x0 PUSH1 0x6 DUP2 SWAP1 SSTORE POP PUSH1 0x0 PUSH1 0x8 DUP2 SWAP1 SSTORE POP PUSH1 0x0 PUSH1 0x9 DUP2 SWAP1 SSTORE POP PUSH1 0x0 PUSH1 0xA DUP2 SWAP1 SSTORE POP POP PUSH3 0x128 JUMP JUMPDEST PUSH1 0x0 DUP1 REVERT JUMPDEST PUSH1 0x0 DUP2 SWAP1 POP SWAP2 SWAP1 POP JUMP JUMPDEST PUSH3 0xD0 DUP2 PUSH3 0xBB JUMP JUMPDEST DUP2 EQ PUSH3 0xDC JUMPI PUSH1 0x0 DUP1 REVERT JUMPDEST POP JUMP JUMPDEST PUSH1 0x0 DUP2 MLOAD SWAP1 POP PUSH3 0xF0 DUP2 PUSH3 0xC5 JUMP JUMPDEST SWAP3 SWAP2 POP POP JUMP JUMPDEST PUSH1 0x0 PUSH1 0x20 DUP3 DUP5 SUB SLT ISZERO PUSH3 0x10F JUMPI PUSH3 0x10E PUSH3 0xB6 JUMP JUMPDEST JUMPDEST PUSH1 0x0 PUSH3 0x11F DUP5 DUP3 DUP6 ADD PUSH3 0xDF JUMP JUMPDEST SWAP2 POP POP SWAP3 SWAP2 POP POP JUMP JUMPDEST PUSH2 0x1F1F DUP1 PUSH3 0x138 PUSH1 0x0 CODECOPY PUSH1 0x0 RETURN INVALID PUSH1 0x80 PUSH1 0x40 MSTORE PUSH1 0x4 CALLDATASIZE LT PUSH2 0x140 JUMPI PUSH1 0x0 CALLDATALOAD PUSH1 0xE0 SHR DUP1 PUSH4 0x7BB51193 GT PUSH2 0xB6 JUMPI DUP1 PUSH4 0xBF77FFAE GT PUSH2 0x6F JUMPI DUP1 PUSH4 0xBF77FFAE EQ PUSH2 0x458 JUMPI DUP1 PUSH4 0xC12BCF49 EQ PUSH2 0x495 JUMPI DUP1 PUSH4 0xCE0CDC87 EQ PUSH2 0x4D2 JUMPI DUP1 PUSH4 0xD09EF241 EQ PUSH2 0x4FD JUMPI DUP1 PUSH4 0xDB3A1396 EQ PUSH2 0x541 JUMPI DUP1 PUSH4 0xECDFB860 EQ PUSH2 0x57E JUMPI PUSH2 0x140 JUMP JUMPDEST DUP1 PUSH4 0x7BB51193 EQ PUSH2 0x367 JUMPI DUP1 PUSH4 0x801D9BBD EQ PUSH2 0x392 JUMPI DUP1 PUSH4 0x9703EF35 EQ PUSH2 0x3BD JUMPI DUP1 PUSH4 0x9979EF45 EQ PUSH2 0x3E6 JUMPI DUP1 PUSH4 0xA394FDA7 EQ PUSH2 0x402 JUMPI DUP1 PUSH4 0xB40A5627 EQ PUSH2 0x42D JUMPI PUSH2 0x140 JUMP JUMPDEST DUP1 PUSH4 0x44E791E0 GT PUSH2 0x108 JUMPI DUP1 PUSH4 0x44E791E0 EQ PUSH2 0x23E JUMPI DUP1 PUSH4 0x4D46712D EQ PUSH2 0x269 JUMPI DUP1 PUSH4 0x69F632E2 EQ PUSH2 0x2A6 JUMPI DUP1 PUSH4 0x6E5B0F00 EQ PUSH2 0x2E3 JUMPI DUP1 PUSH4 0x734A2E78 EQ PUSH2 0x30E JUMPI DUP1 PUSH4 0x78C5B268 EQ PUSH2 0x34B JUMPI PUSH2 0x140 JUMP JUMPDEST DUP1 PUSH4 0xA7E4904 EQ PUSH2 0x145 JUMPI DUP1 PUSH4 0x122DE8F2 EQ PUSH2 0x182 JUMPI DUP1 PUSH4 0x1628E0F5 EQ PUSH2 0x1AD JUMPI DUP1 PUSH4 0x2DB6DFA7 EQ PUSH2 0x1D6 JUMPI DUP1 PUSH4 0x4471417F EQ PUSH2 0x213 JUMPI JUMPDEST PUSH1 0x0 DUP1 REVERT JUMPDEST CALLVALUE DUP1 ISZERO PUSH2 0x151 JUMPI PUSH1 0x0 DUP1 REVERT JUMPDEST POP PUSH2 0x16C PUSH1 0x4 DUP1 CALLDATASIZE SUB DUP2 ADD SWAP1 PUSH2 0x167 SWAP2 SWAP1 PUSH2 0x1390 JUMP JUMPDEST PUSH2 0x5A9 JUMP JUMPDEST PUSH1 0x40 MLOAD PUSH2 0x179 SWAP2 SWAP1 PUSH2 0x1474 JUMP JUMPDEST PUSH1 0x40 MLOAD DUP1 SWAP2 SUB SWAP1 RETURN JUMPDEST CALLVALUE DUP1 ISZERO PUSH2 0x18E JUMPI PUSH1 0x0 DUP1 REVERT JUMPDEST POP PUSH2 0x197 PUSH2 0x5D5 JUMP JUMPDEST PUSH1 0x40 MLOAD PUSH2 0x1A4 SWAP2 SWAP1 PUSH2 0x155E JUMP JUMPDEST PUSH1 0x40 MLOAD DUP1 SWAP2 SUB SWAP1 RETURN JUMPDEST CALLVALUE DUP1 ISZERO PUSH2 0x1B9 JUMPI PUSH1 0x0 DUP1 REVERT JUMPDEST POP PUSH2 0x1D4 PUSH1 0x4 DUP1 CALLDATASIZE SUB DUP2 ADD SWAP1 PUSH2 0x1CF SWAP2 SWAP1 PUSH2 0x15AC JUMP JUMPDEST PUSH2 0x5DA JUMP JUMPDEST STOP JUMPDEST CALLVALUE DUP1 ISZERO PUSH2 0x1E2 JUMPI PUSH1 0x0 DUP1 REVERT JUMPDEST POP PUSH2 0x1FD PUSH1 0x4 DUP1 CALLDATASIZE SUB DUP2 ADD SWAP1 PUSH2 0x1F8 SWAP2 SWAP1 PUSH2 0x15AC JUMP JUMPDEST PUSH2 0x880 JUMP JUMPDEST PUSH1 0x40 MLOAD PUSH2 0x20A SWAP2 SWAP1 PUSH2 0x15E8 JUMP JUMPDEST PUSH1 0x40 MLOAD DUP1 SWAP2 SUB SWAP1 RETURN JUMPDEST CALLVALUE DUP1 ISZERO PUSH2 0x21F JUMPI PUSH1 0x0 DUP1 REVERT JUMPDEST POP PUSH2 0x228 PUSH2 0x8A0 JUMP JUMPDEST PUSH1 0x40 MLOAD PUSH2 0x235 SWAP2 SWAP1 PUSH2 0x17F8 JUMP JUMPDEST PUSH1 0x40 MLOAD DUP1 SWAP2 SUB SWAP1 RETURN JUMPDEST CALLVALUE DUP1 ISZERO PUSH2 0x24A JUMPI PUSH1 0x0 DUP1 REVERT JUMPDEST POP PUSH2 0x253 PUSH2 0x8A5 JUMP JUMPDEST PUSH1 0x40 MLOAD PUSH2 0x260 SWAP2 SWAP1 PUSH2 0x1474 JUMP JUMPDEST PUSH1 0x40 MLOAD DUP1 SWAP2 SUB SWAP1 RETURN JUMPDEST CALLVALUE DUP1 ISZERO PUSH2 0x275 JUMPI PUSH1 0x0 DUP1 REVERT JUMPDEST POP PUSH2 0x290 PUSH1 0x4 DUP1 CALLDATASIZE SUB DUP2 ADD SWAP1 PUSH2 0x28B SWAP2 SWAP1 PUSH2 0x15AC JUMP JUMPDEST PUSH2 0x903 JUMP JUMPDEST PUSH1 0x40 MLOAD PUSH2 0x29D SWAP2 SWAP1 PUSH2 0x1829 JUMP JUMPDEST PUSH1 0x40 MLOAD DUP1 SWAP2 SUB SWAP1 RETURN JUMPDEST CALLVALUE DUP1 ISZERO PUSH2 0x2B2 JUMPI PUSH1 0x0 DUP1 REVERT JUMPDEST POP PUSH2 0x2CD PUSH1 0x4 DUP1 CALLDATASIZE SUB DUP2 ADD SWAP1 PUSH2 0x2C8 SWAP2 SWAP1 PUSH2 0x15AC JUMP JUMPDEST PUSH2 0x930 JUMP JUMPDEST PUSH1 0x40 MLOAD PUSH2 0x2DA SWAP2 SWAP1 PUSH2 0x1853 JUMP JUMPDEST PUSH1 0x40 MLOAD DUP1 SWAP2 SUB SWAP1 RETURN JUMPDEST CALLVALUE DUP1 ISZERO PUSH2 0x2EF JUMPI PUSH1 0x0 DUP1 REVERT JUMPDEST POP PUSH2 0x2F8 PUSH2 0x970 JUMP JUMPDEST PUSH1 0x40 MLOAD PUSH2 0x305 SWAP2 SWAP1 PUSH2 0x15E8 JUMP JUMPDEST PUSH1 0x40 MLOAD DUP1 SWAP2 SUB SWAP1 RETURN JUMPDEST CALLVALUE DUP1 ISZERO PUSH2 0x31A JUMPI PUSH1 0x0 DUP1 REVERT JUMPDEST POP PUSH2 0x335 PUSH1 0x4 DUP1 CALLDATASIZE SUB DUP2 ADD SWAP1 PUSH2 0x330 SWAP2 SWAP1 PUSH2 0x15AC JUMP JUMPDEST PUSH2 0x976 JUMP JUMPDEST PUSH1 0x40 MLOAD PUSH2 0x342 SWAP2 SWAP1 PUSH2 0x1853 JUMP JUMPDEST PUSH1 0x40 MLOAD DUP1 SWAP2 SUB SWAP1 RETURN JUMPDEST PUSH2 0x365 PUSH1 0x4 DUP1 CALLDATASIZE SUB DUP2 ADD SWAP1 PUSH2 0x360 SWAP2 SWAP1 PUSH2 0x15AC JUMP JUMPDEST PUSH2 0x9B6 JUMP JUMPDEST STOP JUMPDEST CALLVALUE DUP1 ISZERO PUSH2 0x373 JUMPI PUSH1 0x0 DUP1 REVERT JUMPDEST POP PUSH2 0x37C PUSH2 0xA8A JUMP JUMPDEST PUSH1 0x40 MLOAD PUSH2 0x389 SWAP2 SWAP1 PUSH2 0x15E8 JUMP JUMPDEST PUSH1 0x40 MLOAD DUP1 SWAP2 SUB SWAP1 RETURN JUMPDEST CALLVALUE DUP1 ISZERO PUSH2 0x39E JUMPI PUSH1 0x0 DUP1 REVERT JUMPDEST POP PUSH2 0x3A7 PUSH2 0xA90 JUMP JUMPDEST PUSH1 0x40 MLOAD PUSH2 0x3B4 SWAP2 SWAP1 PUSH2 0x15E8 JUMP JUMPDEST PUSH1 0x40 MLOAD DUP1 SWAP2 SUB SWAP1 RETURN JUMPDEST CALLVALUE DUP1 ISZERO PUSH2 0x3C9 JUMPI PUSH1 0x0 DUP1 REVERT JUMPDEST POP PUSH2 0x3E4 PUSH1 0x4 DUP1 CALLDATASIZE SUB DUP2 ADD SWAP1 PUSH2 0x3DF SWAP2 SWAP1 PUSH2 0x15AC JUMP JUMPDEST PUSH2 0xA96 JUMP JUMPDEST STOP JUMPDEST PUSH2 0x400 PUSH1 0x4 DUP1 CALLDATASIZE SUB DUP2 ADD SWAP1 PUSH2 0x3FB SWAP2 SWAP1 PUSH2 0x15AC JUMP JUMPDEST PUSH2 0xD3C JUMP JUMPDEST STOP JUMPDEST CALLVALUE DUP1 ISZERO PUSH2 0x40E JUMPI PUSH1 0x0 DUP1 REVERT JUMPDEST POP PUSH2 0x417 PUSH2 0xDC6 JUMP JUMPDEST PUSH1 0x40 MLOAD PUSH2 0x424 SWAP2 SWAP1 PUSH2 0x15E8 JUMP JUMPDEST PUSH1 0x40 MLOAD DUP1 SWAP2 SUB SWAP1 RETURN JUMPDEST CALLVALUE DUP1 ISZERO PUSH2 0x439 JUMPI PUSH1 0x0 DUP1 REVERT JUMPDEST POP PUSH2 0x442 PUSH2 0xDCC JUMP JUMPDEST PUSH1 0x40 MLOAD PUSH2 0x44F SWAP2 SWAP1 PUSH2 0x15E8 JUMP JUMPDEST PUSH1 0x40 MLOAD DUP1 SWAP2 SUB SWAP1 RETURN JUMPDEST CALLVALUE DUP1 ISZERO PUSH2 0x464 JUMPI PUSH1 0x0 DUP1 REVERT JUMPDEST POP PUSH2 0x47F PUSH1 0x4 DUP1 CALLDATASIZE SUB DUP2 ADD SWAP1 PUSH2 0x47A SWAP2 SWAP1 PUSH2 0x15AC JUMP JUMPDEST PUSH2 0xDD2 JUMP JUMPDEST PUSH1 0x40 MLOAD PUSH2 0x48C SWAP2 SWAP1 PUSH2 0x1829 JUMP JUMPDEST PUSH1 0x40 MLOAD DUP1 SWAP2 SUB SWAP1 RETURN JUMPDEST CALLVALUE DUP1 ISZERO PUSH2 0x4A1 JUMPI PUSH1 0x0 DUP1 REVERT JUMPDEST POP PUSH2 0x4BC PUSH1 0x4 DUP1 CALLDATASIZE SUB DUP2 ADD SWAP1 PUSH2 0x4B7 SWAP2 SWAP1 PUSH2 0x186E JUMP JUMPDEST PUSH2 0xDFF JUMP JUMPDEST PUSH1 0x40 MLOAD PUSH2 0x4C9 SWAP2 SWAP1 PUSH2 0x1474 JUMP JUMPDEST PUSH1 0x40 MLOAD DUP1 SWAP2 SUB SWAP1 RETURN JUMPDEST CALLVALUE DUP1 ISZERO PUSH2 0x4DE JUMPI PUSH1 0x0 DUP1 REVERT JUMPDEST POP PUSH2 0x4E7 PUSH2 0xE31 JUMP JUMPDEST PUSH1 0x40 MLOAD PUSH2 0x4F4 SWAP2 SWAP1 PUSH2 0x155E JUMP JUMPDEST PUSH1 0x40 MLOAD DUP1 SWAP2 SUB SWAP1 RETURN JUMPDEST CALLVALUE DUP1 ISZERO PUSH2 0x509 JUMPI PUSH1 0x0 DUP1 REVERT JUMPDEST POP PUSH2 0x524 PUSH1 0x4 DUP1 CALLDATASIZE SUB DUP2 ADD SWAP1 PUSH2 0x51F SWAP2 SWAP1 PUSH2 0x15AC JUMP JUMPDEST PUSH2 0xE36 JUMP JUMPDEST PUSH1 0x40 MLOAD PUSH2 0x538 SWAP9 SWAP8 SWAP7 SWAP6 SWAP5 SWAP4 SWAP3 SWAP2 SWAP1 PUSH2 0x18C9 JUMP JUMPDEST PUSH1 0x40 MLOAD DUP1 SWAP2 SUB SWAP1 RETURN JUMPDEST CALLVALUE DUP1 ISZERO PUSH2 0x54D JUMPI PUSH1 0x0 DUP1 REVERT JUMPDEST POP PUSH2 0x568 PUSH1 0x4 DUP1 CALLDATASIZE SUB DUP2 ADD SWAP1 PUSH2 0x563 SWAP2 SWAP1 PUSH2 0x15AC JUMP JUMPDEST PUSH2 0xE4D JUMP JUMPDEST PUSH1 0x40 MLOAD PUSH2 0x575 SWAP2 SWAP1 PUSH2 0x15E8 JUMP JUMPDEST PUSH1 0x40 MLOAD DUP1 SWAP2 SUB SWAP1 RETURN JUMPDEST CALLVALUE DUP1 ISZERO PUSH2 0x58A JUMPI PUSH1 0x0 DUP1 REVERT JUMPDEST POP PUSH2 0x593 PUSH2 0xE6D JUMP JUMPDEST PUSH1 0x40 MLOAD PUSH2 0x5A0 SWAP2 SWAP1 PUSH2 0x15E8 JUMP JUMPDEST PUSH1 0x40 MLOAD DUP1 SWAP2 SUB SWAP1 RETURN JUMPDEST PUSH1 0x60 DUP3 DUP3 PUSH1 0x40 MLOAD PUSH1 0x20 ADD PUSH2 0x5BE SWAP3 SWAP2 SWAP1 PUSH2 0x19F0 JUMP JUMPDEST PUSH1 0x40 MLOAD PUSH1 0x20 DUP2 DUP4 SUB SUB DUP2 MSTORE SWAP1 PUSH1 0x40 MSTORE SWAP1 POP SWAP3 SWAP2 POP POP JUMP JUMPDEST PUSH1 0x60 SWAP1 JUMP JUMPDEST PUSH1 0x7 PUSH1 0x0 DUP3 DUP2 MSTORE PUSH1 0x20 ADD SWAP1 DUP2 MSTORE PUSH1 0x20 ADD PUSH1 0x0 KECCAK256 PUSH1 0x40 MLOAD DUP1 PUSH1 0xE0 ADD PUSH1 0x40 MSTORE SWAP1 DUP2 PUSH1 0x0 DUP3 ADD PUSH1 0x0 SWAP1 SLOAD SWAP1 PUSH2 0x100 EXP SWAP1 DIV PUSH20 0xFFFFFFFFFFFFFFFFFFFFFFFFFFFFFFFFFFFFFFFF AND PUSH20 0xFFFFFFFFFFFFFFFFFFFFFFFFFFFFFFFFFFFFFFFF AND PUSH20 0xFFFFFFFFFFFFFFFFFFFFFFFFFFFFFFFFFFFFFFFF AND DUP2 MSTORE PUSH1 0x20 ADD PUSH1 0x1 DUP3 ADD SLOAD DUP2 MSTORE PUSH1 0x20 ADD PUSH1 0x2 DUP3 ADD SLOAD DUP2 MSTORE PUSH1 0x20 ADD PUSH1 0x3 DUP3 ADD PUSH1 0x0 SWAP1 SLOAD SWAP1 PUSH2 0x100 EXP SWAP1 DIV PUSH1 0xFF AND PUSH1 0x1 DUP2 GT ISZERO PUSH2 0x687 JUMPI PUSH2 0x686 PUSH2 0x1670 JUMP JUMPDEST JUMPDEST PUSH1 0x1 DUP2 GT ISZERO PUSH2 0x699 JUMPI PUSH2 0x698 PUSH2 0x1670 JUMP JUMPDEST JUMPDEST DUP2 MSTORE PUSH1 0x20 ADD PUSH1 0x4 DUP3 ADD SLOAD DUP2 MSTORE PUSH1 0x20 ADD PUSH1 0x5 DUP3 ADD SLOAD DUP2 MSTORE PUSH1 0x20 ADD PUSH1 0x6 DUP3 ADD SLOAD DUP2 MSTORE POP POP PUSH1 0x0 PUSH1 0x1 DUP2 GT ISZERO PUSH2 0x6CF JUMPI PUSH2 0x6CE PUSH2 0x1670 JUMP JUMPDEST JUMPDEST DUP2 PUSH1 0x60 ADD MLOAD PUSH1 0x1 DUP2 GT ISZERO PUSH2 0x6E6 JUMPI PUSH2 0x6E5 PUSH2 0x1670 JUMP JUMPDEST JUMPDEST EQ PUSH2 0x726 JUMPI PUSH1 0x40 MLOAD PUSH32 0x8C379A000000000000000000000000000000000000000000000000000000000 DUP2 MSTORE PUSH1 0x4 ADD PUSH2 0x71D SWAP1 PUSH2 0x1A6F JUMP JUMPDEST PUSH1 0x40 MLOAD DUP1 SWAP2 SUB SWAP1 REVERT JUMPDEST PUSH1 0x7 PUSH1 0x0 DUP4 DUP2 MSTORE PUSH1 0x20 ADD SWAP1 DUP2 MSTORE PUSH1 0x20 ADD PUSH1 0x0 KECCAK256 PUSH1 0x40 MLOAD DUP1 PUSH1 0xE0 ADD PUSH1 0x40 MSTORE SWAP1 DUP2 PUSH1 0x0 DUP3 ADD PUSH1 0x0 SWAP1 SLOAD SWAP1 PUSH2 0x100 EXP SWAP1 DIV PUSH20 0xFFFFFFFFFFFFFFFFFFFFFFFFFFFFFFFFFFFFFFFF AND PUSH20 0xFFFFFFFFFFFFFFFFFFFFFFFFFFFFFFFFFFFFFFFF AND PUSH20 0xFFFFFFFFFFFFFFFFFFFFFFFFFFFFFFFFFFFFFFFF AND DUP2 MSTORE PUSH1 0x20 ADD PUSH1 0x1 DUP3 ADD SLOAD DUP2 MSTORE PUSH1 0x20 ADD PUSH1 0x2 DUP3 ADD SLOAD DUP2 MSTORE PUSH1 0x20 ADD PUSH1 0x3 DUP3 ADD PUSH1 0x0 SWAP1 SLOAD SWAP1 PUSH2 0x100 EXP SWAP1 DIV PUSH1 0xFF AND PUSH1 0x1 DUP2 GT ISZERO PUSH2 0x7D3 JUMPI PUSH2 0x7D2 PUSH2 0x1670 JUMP JUMPDEST JUMPDEST PUSH1 0x1 DUP2 GT ISZERO PUSH2 0x7E5 JUMPI PUSH2 0x7E4 PUSH2 0x1670 JUMP JUMPDEST JUMPDEST DUP2 MSTORE PUSH1 0x20 ADD PUSH1 0x4 DUP3 ADD SLOAD DUP2 MSTORE PUSH1 0x20 ADD PUSH1 0x5 DUP3 ADD SLOAD DUP2 MSTORE PUSH1 0x20 ADD PUSH1 0x6 DUP3 ADD SLOAD DUP2 MSTORE POP POP CALLER DUP1 PUSH20 0xFFFFFFFFFFFFFFFFFFFFFFFFFFFFFFFFFFFFFFFF AND DUP3 PUSH1 0x0 ADD MLOAD PUSH20 0xFFFFFFFFFFFFFFFFFFFFFFFFFFFFFFFFFFFFFFFF AND EQ PUSH2 0x87A JUMPI PUSH1 0x40 MLOAD PUSH32 0x8C379A000000000000000000000000000000000000000000000000000000000 DUP2 MSTORE PUSH1 0x4 ADD PUSH2 0x871 SWAP1 PUSH2 0x1ADB JUMP JUMPDEST PUSH1 0x40 MLOAD DUP1 SWAP2 SUB SWAP1 REVERT JUMPDEST POP POP POP POP JUMP JUMPDEST PUSH1 0x0 PUSH1 0x3 PUSH1 0x0 DUP4 DUP2 MSTORE PUSH1 0x20 ADD SWAP1 DUP2 MSTORE PUSH1 0x20 ADD PUSH1 0x0 KECCAK256 PUSH1 0x1 ADD SLOAD SWAP1 POP SWAP2 SWAP1 POP JUMP JUMPDEST PUSH1 0x60 SWAP1 JUMP JUMPDEST PUSH1 0x60 PUSH1 0x0 PUSH1 0x8 SLOAD SWAP1 POP PUSH1 0x0 PUSH1 0x40 MLOAD DUP1 PUSH1 0x20 ADD PUSH1 0x40 MSTORE DUP1 PUSH1 0x0 DUP2 MSTORE POP SWAP1 POP JUMPDEST PUSH1 0x0 DUP3 EQ PUSH2 0x8FE JUMPI PUSH1 0x0 PUSH1 0x7 PUSH1 0x0 DUP5 DUP2 MSTORE PUSH1 0x20 ADD SWAP1 DUP2 MSTORE PUSH1 0x20 ADD PUSH1 0x0 KECCAK256 PUSH1 0x5 ADD SLOAD SWAP1 POP PUSH2 0x8F3 DUP3 DUP5 PUSH1 0x0 SHL PUSH2 0x5A9 JUMP JUMPDEST SWAP2 POP DUP1 SWAP3 POP POP PUSH2 0x8C3 JUMP JUMPDEST POP POP SWAP1 JUMP JUMPDEST PUSH1 0x0 PUSH1 0x7 PUSH1 0x0 DUP4 DUP2 MSTORE PUSH1 0x20 ADD SWAP1 DUP2 MSTORE PUSH1 0x20 ADD PUSH1 0x0 KECCAK256 PUSH1 0x3 ADD PUSH1 0x0 SWAP1 SLOAD SWAP1 PUSH2 0x100 EXP SWAP1 DIV PUSH1 0xFF AND SWAP1 POP SWAP2 SWAP1 POP JUMP JUMPDEST PUSH1 0x0 PUSH1 0x3 PUSH1 0x0 DUP4 DUP2 MSTORE PUSH1 0x20 ADD SWAP1 DUP2 MSTORE PUSH1 0x20 ADD PUSH1 0x0 KECCAK256 PUSH1 0x0 ADD PUSH1 0x0 SWAP1 SLOAD SWAP1 PUSH2 0x100 EXP SWAP1 DIV PUSH20 0xFFFFFFFFFFFFFFFFFFFFFFFFFFFFFFFFFFFFFFFF AND SWAP1 POP SWAP2 SWAP1 POP JUMP JUMPDEST PUSH1 0x4 SLOAD DUP2 JUMP JUMPDEST PUSH1 0x0 PUSH1 0x7 PUSH1 0x0 DUP4 DUP2 MSTORE PUSH1 0x20 ADD SWAP1 DUP2 MSTORE PUSH1 0x20 ADD PUSH1 0x0 KECCAK256 PUSH1 0x0 ADD PUSH1 0x0 SWAP1 SLOAD SWAP1 PUSH2 0x100 EXP SWAP1 DIV PUSH20 0xFFFFFFFFFFFFFFFFFFFFFFFFFFFFFFFFFFFFFFFF AND SWAP1 POP SWAP2 SWAP1 POP JUMP JUMPDEST PUSH1 0x0 DUP2 LT ISZERO PUSH2 0x9FA JUMPI PUSH1 0x40 MLOAD PUSH32 0x8C379A000000000000000000000000000000000000000000000000000000000 DUP2 MSTORE PUSH1 0x4 ADD PUSH2 0x9F1 SWAP1 PUSH2 0x1B47 JUMP JUMPDEST PUSH1 0x40 MLOAD DUP1 SWAP2 SUB SWAP1 REVERT JUMPDEST DUP1 CALLVALUE LT ISZERO PUSH2 0xA3D JUMPI PUSH1 0x40 MLOAD PUSH32 0x8C379A000000000000000000000000000000000000000000000000000000000 DUP2 MSTORE PUSH1 0x4 ADD PUSH2 0xA34 SWAP1 PUSH2 0x1BB3 JUMP JUMPDEST PUSH1 0x40 MLOAD DUP1 SWAP2 SUB SWAP1 REVERT JUMPDEST PUSH1 0x0 TIMESTAMP SWAP1 POP PUSH1 0x0 PUSH1 0x64 PUSH1 0x2 SLOAD PUSH1 0x64 PUSH2 0xA55 SWAP2 SWAP1 PUSH2 0x1C02 JUMP JUMPDEST CALLVALUE PUSH2 0xA60 SWAP2 SWAP1 PUSH2 0x1C36 JUMP JUMPDEST PUSH2 0xA6A SWAP2 SWAP1 PUSH2 0x1CBF JUMP JUMPDEST SWAP1 POP PUSH1 0x0 PUSH2 0xA79 CALLER DUP5 DUP5 PUSH2 0xE73 JUMP JUMPDEST SWAP1 POP PUSH2 0xA84 DUP2 PUSH2 0x100E JUMP JUMPDEST POP POP POP POP JUMP JUMPDEST PUSH1 0x5 SLOAD DUP2 JUMP JUMPDEST PUSH1 0x8 SLOAD DUP2 JUMP JUMPDEST PUSH1 0x3 PUSH1 0x0 DUP3 DUP2 MSTORE PUSH1 0x20 ADD SWAP1 DUP2 MSTORE PUSH1 0x20 ADD PUSH1 0x0 KECCAK256 PUSH1 0x40 MLOAD DUP1 PUSH1 0xE0 ADD PUSH1 0x40 MSTORE SWAP1 DUP2 PUSH1 0x0 DUP3 ADD PUSH1 0x0 SWAP1 SLOAD SWAP1 PUSH2 0x100 EXP SWAP1 DIV PUSH20 0xFFFFFFFFFFFFFFFFFFFFFFFFFFFFFFFFFFFFFFFF AND PUSH20 0xFFFFFFFFFFFFFFFFFFFFFFFFFFFFFFFFFFFFFFFF AND PUSH20 0xFFFFFFFFFFFFFFFFFFFFFFFFFFFFFFFFFFFFFFFF AND DUP2 MSTORE PUSH1 0x20 ADD PUSH1 0x1 DUP3 ADD SLOAD DUP2 MSTORE PUSH1 0x20 ADD PUSH1 0x2 DUP3 ADD SLOAD DUP2 MSTORE PUSH1 0x20 ADD PUSH1 0x3 DUP3 ADD PUSH1 0x0 SWAP1 SLOAD SWAP1 PUSH2 0x100 EXP SWAP1 DIV PUSH1 0xFF AND PUSH1 0x1 DUP2 GT ISZERO PUSH2 0xB43 JUMPI PUSH2 0xB42 PUSH2 0x1670 JUMP JUMPDEST JUMPDEST PUSH1 0x1 DUP2 GT ISZERO PUSH2 0xB55 JUMPI PUSH2 0xB54 PUSH2 0x1670 JUMP JUMPDEST JUMPDEST DUP2 MSTORE PUSH1 0x20 ADD PUSH1 0x4 DUP3 ADD SLOAD DUP2 MSTORE PUSH1 0x20 ADD PUSH1 0x5 DUP3 ADD SLOAD DUP2 MSTORE PUSH1 0x20 ADD PUSH1 0x6 DUP3 ADD SLOAD DUP2 MSTORE POP POP PUSH1 0x0 PUSH1 0x1 DUP2 GT ISZERO PUSH2 0xB8B JUMPI PUSH2 0xB8A PUSH2 0x1670 JUMP JUMPDEST JUMPDEST DUP2 PUSH1 0x60 ADD MLOAD PUSH1 0x1 DUP2 GT ISZERO PUSH2 0xBA2 JUMPI PUSH2 0xBA1 PUSH2 0x1670 JUMP JUMPDEST JUMPDEST EQ PUSH2 0xBE2 JUMPI PUSH1 0x40 MLOAD PUSH32 0x8C379A000000000000000000000000000000000000000000000000000000000 DUP2 MSTORE PUSH1 0x4 ADD PUSH2 0xBD9 SWAP1 PUSH2 0x1A6F JUMP JUMPDEST PUSH1 0x40 MLOAD DUP1 SWAP2 SUB SWAP1 REVERT JUMPDEST PUSH1 0x3 PUSH1 0x0 DUP4 DUP2 MSTORE PUSH1 0x20 ADD SWAP1 DUP2 MSTORE PUSH1 0x20 ADD PUSH1 0x0 KECCAK256 PUSH1 0x40 MLOAD DUP1 PUSH1 0xE0 ADD PUSH1 0x40 MSTORE SWAP1 DUP2 PUSH1 0x0 DUP3 ADD PUSH1 0x0 SWAP1 SLOAD SWAP1 PUSH2 0x100 EXP SWAP1 DIV PUSH20 0xFFFFFFFFFFFFFFFFFFFFFFFFFFFFFFFFFFFFFFFF AND PUSH20 0xFFFFFFFFFFFFFFFFFFFFFFFFFFFFFFFFFFFFFFFF AND PUSH20 0xFFFFFFFFFFFFFFFFFFFFFFFFFFFFFFFFFFFFFFFF AND DUP2 MSTORE PUSH1 0x20 ADD PUSH1 0x1 DUP3 ADD SLOAD DUP2 MSTORE PUSH1 0x20 ADD PUSH1 0x2 DUP3 ADD SLOAD DUP2 MSTORE PUSH1 0x20 ADD PUSH1 0x3 DUP3 ADD PUSH1 0x0 SWAP1 SLOAD SWAP1 PUSH2 0x100 EXP SWAP1 DIV PUSH1 0xFF AND PUSH1 0x1 DUP2 GT ISZERO PUSH2 0xC8F JUMPI PUSH2 0xC8E PUSH2 0x1670 JUMP JUMPDEST JUMPDEST PUSH1 0x1 DUP2 GT ISZERO PUSH2 0xCA1 JUMPI PUSH2 0xCA0 PUSH2 0x1670 JUMP JUMPDEST JUMPDEST DUP2 MSTORE PUSH1 0x20 ADD PUSH1 0x4 DUP3 ADD SLOAD DUP2 MSTORE PUSH1 0x20 ADD PUSH1 0x5 DUP3 ADD SLOAD DUP2 MSTORE PUSH1 0x20 ADD PUSH1 0x6 DUP3 ADD SLOAD DUP2 MSTORE POP POP CALLER DUP1 PUSH20 0xFFFFFFFFFFFFFFFFFFFFFFFFFFFFFFFFFFFFFFFF AND DUP3 PUSH1 0x0 ADD MLOAD PUSH20 0xFFFFFFFFFFFFFFFFFFFFFFFFFFFFFFFFFFFFFFFF AND EQ PUSH2 0xD36 JUMPI PUSH1 0x40 MLOAD PUSH32 0x8C379A000000000000000000000000000000000000000000000000000000000 DUP2 MSTORE PUSH1 0x4 ADD PUSH2 0xD2D SWAP1 PUSH2 0x1ADB JUMP JUMPDEST PUSH1 0x40 MLOAD DUP1 SWAP2 SUB SWAP1 REVERT JUMPDEST POP POP POP POP JUMP JUMPDEST PUSH1 0x0 DUP2 LT ISZERO PUSH2 0xD80 JUMPI PUSH1 0x40 MLOAD PUSH32 0x8C379A000000000000000000000000000000000000000000000000000000000 DUP2 MSTORE PUSH1 0x4 ADD PUSH2 0xD77 SWAP1 PUSH2 0x1B47 JUMP JUMPDEST PUSH1 0x40 MLOAD DUP1 SWAP2 SUB SWAP1 REVERT JUMPDEST DUP1 CALLVALUE LT ISZERO PUSH2 0xDC3 JUMPI PUSH1 0x40 MLOAD PUSH32 0x8C379A000000000000000000000000000000000000000000000000000000000 DUP2 MSTORE PUSH1 0x4 ADD PUSH2 0xDBA SWAP1 PUSH2 0x1D3C JUMP JUMPDEST PUSH1 0x40 MLOAD DUP1 SWAP2 SUB SWAP1 REVERT JUMPDEST POP JUMP JUMPDEST PUSH1 0xA SLOAD DUP2 JUMP JUMPDEST PUSH1 0x6 SLOAD DUP2 JUMP JUMPDEST PUSH1 0x0 PUSH1 0x3 PUSH1 0x0 DUP4 DUP2 MSTORE PUSH1 0x20 ADD SWAP1 DUP2 MSTORE PUSH1 0x20 ADD PUSH1 0x0 KECCAK256 PUSH1 0x3 ADD PUSH1 0x0 SWAP1 SLOAD SWAP1 PUSH2 0x100 EXP SWAP1 DIV PUSH1 0xFF AND SWAP1 POP SWAP2 SWAP1 POP JUMP JUMPDEST PUSH1 0x60 DUP3 PUSH1 0x0 SHL DUP3 PUSH1 0x0 SHL PUSH1 0x40 MLOAD PUSH1 0x20 ADD PUSH2 0xE1A SWAP3 SWAP2 SWAP1 PUSH2 0x1D82 JUMP JUMPDEST PUSH1 0x40 MLOAD PUSH1 0x20 DUP2 DUP4 SUB SUB DUP2 MSTORE SWAP1 PUSH1 0x40 MSTORE SWAP1 POP SWAP3 SWAP2 POP POP JUMP JUMPDEST PUSH1 0x60 SWAP1 JUMP JUMPDEST PUSH1 0x0 DUP1 PUSH1 0x0 DUP1 PUSH1 0x0 DUP1 PUSH1 0x0 DUP1 SWAP2 SWAP4 SWAP6 SWAP8 POP SWAP2 SWAP4 SWAP6 SWAP8 JUMP JUMPDEST PUSH1 0x0 PUSH1 0x7 PUSH1 0x0 DUP4 DUP2 MSTORE PUSH1 0x20 ADD SWAP1 DUP2 MSTORE PUSH1 0x20 ADD PUSH1 0x0 KECCAK256 PUSH1 0x1 ADD SLOAD SWAP1 POP SWAP2 SWAP1 POP JUMP JUMPDEST PUSH1 0x9 SLOAD DUP2 JUMP JUMPDEST PUSH2 0xE7B PUSH2 0x119B JUMP JUMPDEST PUSH1 0xA PUSH1 0x0 DUP2 SLOAD DUP1 SWAP3 SWAP2 SWAP1 PUSH2 0xE8E SWAP1 PUSH2 0x1DBD JUMP JUMPDEST SWAP2 SWAP1 POP SSTORE POP PUSH1 0x0 PUSH1 0x40 MLOAD DUP1 PUSH1 0xE0 ADD PUSH1 0x40 MSTORE DUP1 DUP7 PUSH20 0xFFFFFFFFFFFFFFFFFFFFFFFFFFFFFFFFFFFFFFFF AND DUP2 MSTORE PUSH1 0x20 ADD DUP6 DUP2 MSTORE PUSH1 0x20 ADD DUP5 DUP2 MSTORE PUSH1 0x20 ADD PUSH1 0x0 PUSH1 0x1 DUP2 GT ISZERO PUSH2 0xEDC JUMPI PUSH2 0xEDB PUSH2 0x1670 JUMP JUMPDEST JUMPDEST DUP2 MSTORE PUSH1 0x20 ADD PUSH1 0xA SLOAD DUP2 MSTORE PUSH1 0x20 ADD PUSH1 0x0 DUP2 MSTORE PUSH1 0x20 ADD PUSH1 0x0 DUP2 MSTORE POP SWAP1 POP DUP1 PUSH1 0x7 PUSH1 0x0 PUSH1 0xA SLOAD DUP2 MSTORE PUSH1 0x20 ADD SWAP1 DUP2 MSTORE PUSH1 0x20 ADD PUSH1 0x0 KECCAK256 PUSH1 0x0 DUP3 ADD MLOAD DUP2 PUSH1 0x0 ADD PUSH1 0x0 PUSH2 0x100 EXP DUP2 SLOAD DUP2 PUSH20 0xFFFFFFFFFFFFFFFFFFFFFFFFFFFFFFFFFFFFFFFF MUL NOT AND SWAP1 DUP4 PUSH20 0xFFFFFFFFFFFFFFFFFFFFFFFFFFFFFFFFFFFFFFFF AND MUL OR SWAP1 SSTORE POP PUSH1 0x20 DUP3 ADD MLOAD DUP2 PUSH1 0x1 ADD SSTORE PUSH1 0x40 DUP3 ADD MLOAD DUP2 PUSH1 0x2 ADD SSTORE PUSH1 0x60 DUP3 ADD MLOAD DUP2 PUSH1 0x3 ADD PUSH1 0x0 PUSH2 0x100 EXP DUP2 SLOAD DUP2 PUSH1 0xFF MUL NOT AND SWAP1 DUP4 PUSH1 0x1 DUP2 GT ISZERO PUSH2 0xF93 JUMPI PUSH2 0xF92 PUSH2 0x1670 JUMP JUMPDEST JUMPDEST MUL OR SWAP1 SSTORE POP PUSH1 0x80 DUP3 ADD MLOAD DUP2 PUSH1 0x4 ADD SSTORE PUSH1 0xA0 DUP3 ADD MLOAD DUP2 PUSH1 0x5 ADD SSTORE PUSH1 0xC0 DUP3 ADD MLOAD DUP2 PUSH1 0x6 ADD SSTORE SWAP1 POP POP PUSH32 0x93CAF6BA1AF44020DFE6076E279533E38BD8DEEFE534C43AA8CC93AAD2025B7D DUP6 DUP6 DUP6 PUSH1 0x0 PUSH1 0xA SLOAD PUSH1 0x0 DUP1 PUSH1 0x0 PUSH1 0x40 MLOAD PUSH2 0xFFB SWAP9 SWAP8 SWAP7 SWAP6 SWAP5 SWAP4 SWAP3 SWAP2 SWAP1 PUSH2 0x1E6B JUMP JUMPDEST PUSH1 0x40 MLOAD DUP1 SWAP2 SUB SWAP1 LOG1 DUP1 SWAP2 POP POP SWAP4 SWAP3 POP POP POP JUMP JUMPDEST PUSH1 0x0 DUP1 PUSH1 0x8 SLOAD SUB PUSH2 0x1029 JUMPI DUP2 PUSH1 0x80 ADD MLOAD PUSH1 0x8 DUP2 SWAP1 SSTORE POP PUSH2 0x1197 JUMP JUMPDEST DUP2 PUSH1 0x20 ADD MLOAD PUSH1 0x7 PUSH1 0x0 PUSH1 0x8 SLOAD DUP2 MSTORE PUSH1 0x20 ADD SWAP1 DUP2 MSTORE PUSH1 0x20 ADD PUSH1 0x0 KECCAK256 PUSH1 0x1 ADD SLOAD LT PUSH2 0x108B JUMPI PUSH1 0x8 SLOAD DUP3 PUSH1 0xA0 ADD DUP2 DUP2 MSTORE POP POP DUP2 PUSH1 0x80 ADD MLOAD PUSH1 0x7 PUSH1 0x0 DUP5 PUSH1 0xA0 ADD MLOAD DUP2 MSTORE PUSH1 0x20 ADD SWAP1 DUP2 MSTORE PUSH1 0x20 ADD PUSH1 0x0 KECCAK256 PUSH1 0x6 ADD DUP2 SWAP1 SSTORE POP DUP2 PUSH1 0x80 ADD MLOAD PUSH1 0x8 DUP2 SWAP1 SSTORE POP PUSH2 0x1196 JUMP JUMPDEST PUSH1 0x8 SLOAD SWAP1 POP JUMPDEST PUSH1 0x0 PUSH1 0x7 PUSH1 0x0 DUP4 DUP2 MSTORE PUSH1 0x20 ADD SWAP1 DUP2 MSTORE PUSH1 0x20 ADD PUSH1 0x0 KECCAK256 PUSH1 0x5 ADD SLOAD EQ ISZERO DUP1 ISZERO PUSH2 0x10E7 JUMPI POP DUP2 PUSH1 0x20 ADD MLOAD PUSH1 0x7 PUSH1 0x0 PUSH1 0x7 PUSH1 0x0 DUP6 DUP2 MSTORE PUSH1 0x20 ADD SWAP1 DUP2 MSTORE PUSH1 0x20 ADD PUSH1 0x0 KECCAK256 PUSH1 0x5 ADD SLOAD DUP2 MSTORE PUSH1 0x20 ADD SWAP1 DUP2 MSTORE PUSH1 0x20 ADD PUSH1 0x0 KECCAK256 PUSH1 0x1 ADD SLOAD LT JUMPDEST ISZERO PUSH2 0x110A JUMPI PUSH1 0x7 PUSH1 0x0 DUP3 DUP2 MSTORE PUSH1 0x20 ADD SWAP1 DUP2 MSTORE PUSH1 0x20 ADD PUSH1 0x0 KECCAK256 PUSH1 0x5 ADD SLOAD SWAP1 POP PUSH2 0x1091 JUMP JUMPDEST PUSH1 0x7 PUSH1 0x0 DUP3 DUP2 MSTORE PUSH1 0x20 ADD SWAP1 DUP2 MSTORE PUSH1 0x20 ADD PUSH1 0x0 KECCAK256 PUSH1 0x5 ADD SLOAD DUP3 PUSH1 0xA0 ADD DUP2 DUP2 MSTORE POP POP PUSH1 0x0 PUSH1 0x7 PUSH1 0x0 DUP4 DUP2 MSTORE PUSH1 0x20 ADD SWAP1 DUP2 MSTORE PUSH1 0x20 ADD PUSH1 0x0 KECCAK256 PUSH1 0x5 ADD SLOAD EQ PUSH2 0x116C JUMPI DUP2 PUSH1 0x80 ADD MLOAD PUSH1 0x7 PUSH1 0x0 DUP5 PUSH1 0xA0 ADD MLOAD DUP2 MSTORE PUSH1 0x20 ADD SWAP1 DUP2 MSTORE PUSH1 0x20 ADD PUSH1 0x0 KECCAK256 PUSH1 0x6 ADD DUP2 SWAP1 SSTORE POP JUMPDEST DUP2 PUSH1 0x80 ADD MLOAD PUSH1 0x7 PUSH1 0x0 DUP4 DUP2 MSTORE PUSH1 0x20 ADD SWAP1 DUP2 MSTORE PUSH1 0x20 ADD PUSH1 0x0 KECCAK256 PUSH1 0x5 ADD DUP2 SWAP1 SSTORE POP DUP1 DUP3 PUSH1 0xC0 ADD DUP2 DUP2 MSTORE POP POP JUMPDEST JUMPDEST POP POP JUMP JUMPDEST PUSH1 0x40 MLOAD DUP1 PUSH1 0xE0 ADD PUSH1 0x40 MSTORE DUP1 PUSH1 0x0 PUSH20 0xFFFFFFFFFFFFFFFFFFFFFFFFFFFFFFFFFFFFFFFF AND DUP2 MSTORE PUSH1 0x20 ADD PUSH1 0x0 DUP2 MSTORE PUSH1 0x20 ADD PUSH1 0x0 DUP2 MSTORE PUSH1 0x20 ADD PUSH1 0x0 PUSH1 0x1 DUP2 GT ISZERO PUSH2 0x11E5 JUMPI PUSH2 0x11E4 PUSH2 0x1670 JUMP JUMPDEST JUMPDEST DUP2 MSTORE PUSH1 0x20 ADD PUSH1 0x0 DUP2 MSTORE PUSH1 0x20 ADD PUSH1 0x0 DUP2 MSTORE PUSH1 0x20 ADD PUSH1 0x0 DUP2 MSTORE POP SWAP1 JUMP JUMPDEST PUSH1 0x0 PUSH1 0x40 MLOAD SWAP1 POP SWAP1 JUMP JUMPDEST PUSH1 0x0 DUP1 REVERT JUMPDEST PUSH1 0x0 DUP1 REVERT JUMPDEST PUSH1 0x0 DUP1 REVERT JUMPDEST PUSH1 0x0 DUP1 REVERT JUMPDEST PUSH1 0x0 PUSH1 0x1F NOT PUSH1 0x1F DUP4 ADD AND SWAP1 POP SWAP2 SWAP1 POP JUMP JUMPDEST PUSH32 0x4E487B7100000000000000000000000000000000000000000000000000000000 PUSH1 0x0 MSTORE PUSH1 0x41 PUSH1 0x4 MSTORE PUSH1 0x24 PUSH1 0x0 REVERT JUMPDEST PUSH2 0x1267 DUP3 PUSH2 0x121E JUMP JUMPDEST DUP2 ADD DUP2 DUP2 LT PUSH8 0xFFFFFFFFFFFFFFFF DUP3 GT OR ISZERO PUSH2 0x1286 JUMPI PUSH2 0x1285 PUSH2 0x122F JUMP JUMPDEST JUMPDEST DUP1 PUSH1 0x40 MSTORE POP POP POP JUMP JUMPDEST PUSH1 0x0 PUSH2 0x1299 PUSH2 0x1200 JUMP JUMPDEST SWAP1 POP PUSH2 0x12A5 DUP3 DUP3 PUSH2 0x125E JUMP JUMPDEST SWAP2 SWAP1 POP JUMP JUMPDEST PUSH1 0x0 PUSH8 0xFFFFFFFFFFFFFFFF DUP3 GT ISZERO PUSH2 0x12C5 JUMPI PUSH2 0x12C4 PUSH2 0x122F JUMP JUMPDEST JUMPDEST PUSH2 0x12CE DUP3 PUSH2 0x121E JUMP JUMPDEST SWAP1 POP PUSH1 0x20 DUP2 ADD SWAP1 POP SWAP2 SWAP1 POP JUMP JUMPDEST DUP3 DUP2 DUP4 CALLDATACOPY PUSH1 0x0 DUP4 DUP4 ADD MSTORE POP POP POP JUMP JUMPDEST PUSH1 0x0 PUSH2 0x12FD PUSH2 0x12F8 DUP5 PUSH2 0x12AA JUMP JUMPDEST PUSH2 0x128F JUMP JUMPDEST SWAP1 POP DUP3 DUP2 MSTORE PUSH1 0x20 DUP2 ADD DUP5 DUP5 DUP5 ADD GT ISZERO PUSH2 0x1319 JUMPI PUSH2 0x1318 PUSH2 0x1219 JUMP JUMPDEST JUMPDEST PUSH2 0x1324 DUP5 DUP3 DUP6 PUSH2 0x12DB JUMP JUMPDEST POP SWAP4 SWAP3 POP POP POP JUMP JUMPDEST PUSH1 0x0 DUP3 PUSH1 0x1F DUP4 ADD SLT PUSH2 0x1341 JUMPI PUSH2 0x1340 PUSH2 0x1214 JUMP JUMPDEST JUMPDEST DUP2 CALLDATALOAD PUSH2 0x1351 DUP5 DUP3 PUSH1 0x20 DUP7 ADD PUSH2 0x12EA JUMP JUMPDEST SWAP2 POP POP SWAP3 SWAP2 POP POP JUMP JUMPDEST PUSH1 0x0 DUP2 SWAP1 POP SWAP2 SWAP1 POP JUMP JUMPDEST PUSH2 0x136D DUP2 PUSH2 0x135A JUMP JUMPDEST DUP2 EQ PUSH2 0x1378 JUMPI PUSH1 0x0 DUP1 REVERT JUMPDEST POP JUMP JUMPDEST PUSH1 0x0 DUP2 CALLDATALOAD SWAP1 POP PUSH2 0x138A DUP2 PUSH2 0x1364 JUMP JUMPDEST SWAP3 SWAP2 POP POP JUMP JUMPDEST PUSH1 0x0 DUP1 PUSH1 0x40 DUP4 DUP6 SUB SLT ISZERO PUSH2 0x13A7 JUMPI PUSH2 0x13A6 PUSH2 0x120A JUMP JUMPDEST JUMPDEST PUSH1 0x0 DUP4 ADD CALLDATALOAD PUSH8 0xFFFFFFFFFFFFFFFF DUP2 GT ISZERO PUSH2 0x13C5 JUMPI PUSH2 0x13C4 PUSH2 0x120F JUMP JUMPDEST JUMPDEST PUSH2 0x13D1 DUP6 DUP3 DUP7 ADD PUSH2 0x132C JUMP JUMPDEST SWAP3 POP POP PUSH1 0x20 PUSH2 0x13E2 DUP6 DUP3 DUP7 ADD PUSH2 0x137B JUMP JUMPDEST SWAP2 POP POP SWAP3 POP SWAP3 SWAP1 POP JUMP JUMPDEST PUSH1 0x0 DUP2 MLOAD SWAP1 POP SWAP2 SWAP1 POP JUMP JUMPDEST PUSH1 0x0 DUP3 DUP3 MSTORE PUSH1 0x20 DUP3 ADD SWAP1 POP SWAP3 SWAP2 POP POP JUMP JUMPDEST PUSH1 0x0 JUMPDEST DUP4 DUP2 LT ISZERO PUSH2 0x1426 JUMPI DUP1 DUP3 ADD MLOAD DUP2 DUP5 ADD MSTORE PUSH1 0x20 DUP2 ADD SWAP1 POP PUSH2 0x140B JUMP JUMPDEST DUP4 DUP2 GT ISZERO PUSH2 0x1435 JUMPI PUSH1 0x0 DUP5 DUP5 ADD MSTORE JUMPDEST POP POP POP POP JUMP JUMPDEST PUSH1 0x0 PUSH2 0x1446 DUP3 PUSH2 0x13EC JUMP JUMPDEST PUSH2 0x1450 DUP2 DUP6 PUSH2 0x13F7 JUMP JUMPDEST SWAP4 POP PUSH2 0x1460 DUP2 DUP6 PUSH1 0x20 DUP7 ADD PUSH2 0x1408 JUMP JUMPDEST PUSH2 0x1469 DUP2 PUSH2 0x121E JUMP JUMPDEST DUP5 ADD SWAP2 POP POP SWAP3 SWAP2 POP POP JUMP JUMPDEST PUSH1 0x0 PUSH1 0x20 DUP3 ADD SWAP1 POP DUP2 DUP2 SUB PUSH1 0x0 DUP4 ADD MSTORE PUSH2 0x148E DUP2 DUP5 PUSH2 0x143B JUMP JUMPDEST SWAP1 POP SWAP3 SWAP2 POP POP JUMP JUMPDEST PUSH1 0x0 DUP2 MLOAD SWAP1 POP SWAP2 SWAP1 POP JUMP JUMPDEST PUSH1 0x0 DUP3 DUP3 MSTORE PUSH1 0x20 DUP3 ADD SWAP1 POP SWAP3 SWAP2 POP POP JUMP JUMPDEST PUSH1 0x0 DUP2 SWAP1 POP PUSH1 0x20 DUP3 ADD SWAP1 POP SWAP2 SWAP1 POP JUMP JUMPDEST PUSH1 0x0 DUP2 SWAP1 POP SWAP2 SWAP1 POP JUMP JUMPDEST PUSH2 0x14D5 DUP2 PUSH2 0x14C2 JUMP JUMPDEST DUP3 MSTORE POP POP JUMP JUMPDEST PUSH1 0x0 PUSH2 0x14E7 DUP4 DUP4 PUSH2 0x14CC JUMP JUMPDEST PUSH1 0x20 DUP4 ADD SWAP1 POP SWAP3 SWAP2 POP POP JUMP JUMPDEST PUSH1 0x0 PUSH1 0x20 DUP3 ADD SWAP1 POP SWAP2 SWAP1 POP JUMP JUMPDEST PUSH1 0x0 PUSH2 0x150B DUP3 PUSH2 0x1496 JUMP JUMPDEST PUSH2 0x1515 DUP2 DUP6 PUSH2 0x14A1 JUMP JUMPDEST SWAP4 POP PUSH2 0x1520 DUP4 PUSH2 0x14B2 JUMP JUMPDEST DUP1 PUSH1 0x0 JUMPDEST DUP4 DUP2 LT ISZERO PUSH2 0x1551 JUMPI DUP2 MLOAD PUSH2 0x1538 DUP9 DUP3 PUSH2 0x14DB JUMP JUMPDEST SWAP8 POP PUSH2 0x1543 DUP4 PUSH2 0x14F3 JUMP JUMPDEST SWAP3 POP POP PUSH1 0x1 DUP2 ADD SWAP1 POP PUSH2 0x1524 JUMP JUMPDEST POP DUP6 SWAP4 POP POP POP POP SWAP3 SWAP2 POP POP JUMP JUMPDEST PUSH1 0x0 PUSH1 0x20 DUP3 ADD SWAP1 POP DUP2 DUP2 SUB PUSH1 0x0 DUP4 ADD MSTORE PUSH2 0x1578 DUP2 DUP5 PUSH2 0x1500 JUMP JUMPDEST SWAP1 POP SWAP3 SWAP2 POP POP JUMP JUMPDEST PUSH2 0x1589 DUP2 PUSH2 0x14C2 JUMP JUMPDEST DUP2 EQ PUSH2 0x1594 JUMPI PUSH1 0x0 DUP1 REVERT JUMPDEST POP JUMP JUMPDEST PUSH1 0x0 DUP2 CALLDATALOAD SWAP1 POP PUSH2 0x15A6 DUP2 PUSH2 0x1580 JUMP JUMPDEST SWAP3 SWAP2 POP POP JUMP JUMPDEST PUSH1 0x0 PUSH1 0x20 DUP3 DUP5 SUB SLT ISZERO PUSH2 0x15C2 JUMPI PUSH2 0x15C1 PUSH2 0x120A JUMP JUMPDEST JUMPDEST PUSH1 0x0 PUSH2 0x15D0 DUP5 DUP3 DUP6 ADD PUSH2 0x1597 JUMP JUMPDEST SWAP2 POP POP SWAP3 SWAP2 POP POP JUMP JUMPDEST PUSH2 0x15E2 DUP2 PUSH2 0x14C2 JUMP JUMPDEST DUP3 MSTORE POP POP JUMP JUMPDEST PUSH1 0x0 PUSH1 0x20 DUP3 ADD SWAP1 POP PUSH2 0x15FD PUSH1 0x0 DUP4 ADD DUP5 PUSH2 0x15D9 JUMP JUMPDEST SWAP3 SWAP2 POP POP JUMP JUMPDEST PUSH1 0x0 DUP2 MLOAD SWAP1 POP SWAP2 SWAP1 POP JUMP JUMPDEST PUSH1 0x0 DUP3 DUP3 MSTORE PUSH1 0x20 DUP3 ADD SWAP1 POP SWAP3 SWAP2 POP POP JUMP JUMPDEST PUSH1 0x0 DUP2 SWAP1 POP PUSH1 0x20 DUP3 ADD SWAP1 POP SWAP2 SWAP1 POP JUMP JUMPDEST PUSH1 0x0 PUSH20 0xFFFFFFFFFFFFFFFFFFFFFFFFFFFFFFFFFFFFFFFF DUP3 AND SWAP1 POP SWAP2 SWAP1 POP JUMP JUMPDEST PUSH1 0x0 PUSH2 0x165A DUP3 PUSH2 0x162F JUMP JUMPDEST SWAP1 POP SWAP2 SWAP1 POP JUMP JUMPDEST PUSH2 0x166A DUP2 PUSH2 0x164F JUMP JUMPDEST DUP3 MSTORE POP POP JUMP JUMPDEST PUSH32 0x4E487B7100000000000000000000000000000000000000000000000000000000 PUSH1 0x0 MSTORE PUSH1 0x21 PUSH1 0x4 MSTORE PUSH1 0x24 PUSH1 0x0 REVERT JUMPDEST PUSH1 0x2 DUP2 LT PUSH2 0x16B0 JUMPI PUSH2 0x16AF PUSH2 0x1670 JUMP JUMPDEST JUMPDEST POP JUMP JUMPDEST PUSH1 0x0 DUP2 SWAP1 POP PUSH2 0x16C1 DUP3 PUSH2 0x169F JUMP JUMPDEST SWAP2 SWAP1 POP JUMP JUMPDEST PUSH1 0x0 PUSH2 0x16D1 DUP3 PUSH2 0x16B3 JUMP JUMPDEST SWAP1 POP SWAP2 SWAP1 POP JUMP JUMPDEST PUSH2 0x16E1 DUP2 PUSH2 0x16C6 JUMP JUMPDEST DUP3 MSTORE POP POP JUMP JUMPDEST PUSH1 0xE0 DUP3 ADD PUSH1 0x0 DUP3 ADD MLOAD PUSH2 0x16FD PUSH1 0x0 DUP6 ADD DUP3 PUSH2 0x1661 JUMP JUMPDEST POP PUSH1 0x20 DUP3 ADD MLOAD PUSH2 0x1710 PUSH1 0x20 DUP6 ADD DUP3 PUSH2 0x14CC JUMP JUMPDEST POP PUSH1 0x40 DUP3 ADD MLOAD PUSH2 0x1723 PUSH1 0x40 DUP6 ADD DUP3 PUSH2 0x14CC JUMP JUMPDEST POP PUSH1 0x60 DUP3 ADD MLOAD PUSH2 0x1736 PUSH1 0x60 DUP6 ADD DUP3 PUSH2 0x16D8 JUMP JUMPDEST POP PUSH1 0x80 DUP3 ADD MLOAD PUSH2 0x1749 PUSH1 0x80 DUP6 ADD DUP3 PUSH2 0x14CC JUMP JUMPDEST POP PUSH1 0xA0 DUP3 ADD MLOAD PUSH2 0x175C PUSH1 0xA0 DUP6 ADD DUP3 PUSH2 0x14CC JUMP JUMPDEST POP PUSH1 0xC0 DUP3 ADD MLOAD PUSH2 0x176F PUSH1 0xC0 DUP6 ADD DUP3 PUSH2 0x14CC JUMP JUMPDEST POP POP POP POP JUMP JUMPDEST PUSH1 0x0 PUSH2 0x1781 DUP4 DUP4 PUSH2 0x16E7 JUMP JUMPDEST PUSH1 0xE0 DUP4 ADD SWAP1 POP SWAP3 SWAP2 POP POP JUMP JUMPDEST PUSH1 0x0 PUSH1 0x20 DUP3 ADD SWAP1 POP SWAP2 SWAP1 POP JUMP JUMPDEST PUSH1 0x0 PUSH2 0x17A5 DUP3 PUSH2 0x1603 JUMP JUMPDEST PUSH2 0x17AF DUP2 DUP6 PUSH2 0x160E JUMP JUMPDEST SWAP4 POP PUSH2 0x17BA DUP4 PUSH2 0x161F JUMP JUMPDEST DUP1 PUSH1 0x0 JUMPDEST DUP4 DUP2 LT ISZERO PUSH2 0x17EB JUMPI DUP2 MLOAD PUSH2 0x17D2 DUP9 DUP3 PUSH2 0x1775 JUMP JUMPDEST SWAP8 POP PUSH2 0x17DD DUP4 PUSH2 0x178D JUMP JUMPDEST SWAP3 POP POP PUSH1 0x1 DUP2 ADD SWAP1 POP PUSH2 0x17BE JUMP JUMPDEST POP DUP6 SWAP4 POP POP POP POP SWAP3 SWAP2 POP POP JUMP JUMPDEST PUSH1 0x0 PUSH1 0x20 DUP3 ADD SWAP1 POP DUP2 DUP2 SUB PUSH1 0x0 DUP4 ADD MSTORE PUSH2 0x1812 DUP2 DUP5 PUSH2 0x179A JUMP JUMPDEST SWAP1 POP SWAP3 SWAP2 POP POP JUMP JUMPDEST PUSH2 0x1823 DUP2 PUSH2 0x16C6 JUMP JUMPDEST DUP3 MSTORE POP POP JUMP JUMPDEST PUSH1 0x0 PUSH1 0x20 DUP3 ADD SWAP1 POP PUSH2 0x183E PUSH1 0x0 DUP4 ADD DUP5 PUSH2 0x181A JUMP JUMPDEST SWAP3 SWAP2 POP POP JUMP JUMPDEST PUSH2 0x184D DUP2 PUSH2 0x164F JUMP JUMPDEST DUP3 MSTORE POP POP JUMP JUMPDEST PUSH1 0x0 PUSH1 0x20 DUP3 ADD SWAP1 POP PUSH2 0x1868 PUSH1 0x0 DUP4 ADD DUP5 PUSH2 0x1844 JUMP JUMPDEST SWAP3 SWAP2 POP POP JUMP JUMPDEST PUSH1 0x0 DUP1 PUSH1 0x40 DUP4 DUP6 SUB SLT ISZERO PUSH2 0x1885 JUMPI PUSH2 0x1884 PUSH2 0x120A JUMP JUMPDEST JUMPDEST PUSH1 0x0 PUSH2 0x1893 DUP6 DUP3 DUP7 ADD PUSH2 0x1597 JUMP JUMPDEST SWAP3 POP POP PUSH1 0x20 PUSH2 0x18A4 DUP6 DUP3 DUP7 ADD PUSH2 0x1597 JUMP JUMPDEST SWAP2 POP POP SWAP3 POP SWAP3 SWAP1 POP JUMP JUMPDEST PUSH1 0x0 DUP2 ISZERO ISZERO SWAP1 POP SWAP2 SWAP1 POP JUMP JUMPDEST PUSH2 0x18C3 DUP2 PUSH2 0x18AE JUMP JUMPDEST DUP3 MSTORE POP POP JUMP JUMPDEST PUSH1 0x0 PUSH2 0x100 DUP3 ADD SWAP1 POP PUSH2 0x18DF PUSH1 0x0 DUP4 ADD DUP12 PUSH2 0x1844 JUMP JUMPDEST PUSH2 0x18EC PUSH1 0x20 DUP4 ADD DUP11 PUSH2 0x15D9 JUMP JUMPDEST PUSH2 0x18F9 PUSH1 0x40 DUP4 ADD DUP10 PUSH2 0x15D9 JUMP JUMPDEST PUSH2 0x1906 PUSH1 0x60 DUP4 ADD DUP9 PUSH2 0x181A JUMP JUMPDEST PUSH2 0x1913 PUSH1 0x80 DUP4 ADD DUP8 PUSH2 0x15D9 JUMP JUMPDEST PUSH2 0x1920 PUSH1 0xA0 DUP4 ADD DUP7 PUSH2 0x15D9 JUMP JUMPDEST PUSH2 0x192D PUSH1 0xC0 DUP4 ADD DUP6 PUSH2 0x15D9 JUMP JUMPDEST PUSH2 0x193A PUSH1 0xE0 DUP4 ADD DUP5 PUSH2 0x18BA JUMP JUMPDEST SWAP10 SWAP9 POP POP POP POP POP POP POP POP POP JUMP JUMPDEST PUSH1 0x0 DUP2 SWAP1 POP SWAP3 SWAP2 POP POP JUMP JUMPDEST PUSH1 0x0 PUSH2 0x195D DUP3 PUSH2 0x13EC JUMP JUMPDEST PUSH2 0x1967 DUP2 DUP6 PUSH2 0x1947 JUMP JUMPDEST SWAP4 POP PUSH2 0x1977 DUP2 DUP6 PUSH1 0x20 DUP7 ADD PUSH2 0x1408 JUMP JUMPDEST DUP1 DUP5 ADD SWAP2 POP POP SWAP3 SWAP2 POP POP JUMP JUMPDEST PUSH32 0x2000000000000000000000000000000000000000000000000000000000000000 PUSH1 0x0 DUP3 ADD MSTORE POP JUMP JUMPDEST PUSH1 0x0 PUSH2 0x19B9 PUSH1 0x1 DUP4 PUSH2 0x1947 JUMP JUMPDEST SWAP2 POP PUSH2 0x19C4 DUP3 PUSH2 0x1983 JUMP JUMPDEST PUSH1 0x1 DUP3 ADD SWAP1 POP SWAP2 SWAP1 POP JUMP JUMPDEST PUSH1 0x0 DUP2 SWAP1 POP SWAP2 SWAP1 POP JUMP JUMPDEST PUSH2 0x19EA PUSH2 0x19E5 DUP3 PUSH2 0x135A JUMP JUMPDEST PUSH2 0x19CF JUMP JUMPDEST DUP3 MSTORE POP POP JUMP JUMPDEST PUSH1 0x0 PUSH2 0x19FC DUP3 DUP6 PUSH2 0x1952 JUMP JUMPDEST SWAP2 POP PUSH2 0x1A07 DUP3 PUSH2 0x19AC JUMP JUMPDEST SWAP2 POP PUSH2 0x1A13 DUP3 DUP5 PUSH2 0x19D9 JUMP JUMPDEST PUSH1 0x20 DUP3 ADD SWAP2 POP DUP2 SWAP1 POP SWAP4 SWAP3 POP POP POP JUMP JUMPDEST PUSH32 0x4F726465722050656E64696E6700000000000000000000000000000000000000 PUSH1 0x0 DUP3 ADD MSTORE POP JUMP JUMPDEST PUSH1 0x0 PUSH2 0x1A59 PUSH1 0xD DUP4 PUSH2 0x13F7 JUMP JUMPDEST SWAP2 POP PUSH2 0x1A64 DUP3 PUSH2 0x1A23 JUMP JUMPDEST PUSH1 0x20 DUP3 ADD SWAP1 POP SWAP2 SWAP1 POP JUMP JUMPDEST PUSH1 0x0 PUSH1 0x20 DUP3 ADD SWAP1 POP DUP2 DUP2 SUB PUSH1 0x0 DUP4 ADD MSTORE PUSH2 0x1A88 DUP2 PUSH2 0x1A4C JUMP JUMPDEST SWAP1 POP SWAP2 SWAP1 POP JUMP JUMPDEST PUSH32 0x4E6F7420417574686F7269736564000000000000000000000000000000000000 PUSH1 0x0 DUP3 ADD MSTORE POP JUMP JUMPDEST PUSH1 0x0 PUSH2 0x1AC5 PUSH1 0xE DUP4 PUSH2 0x13F7 JUMP JUMPDEST SWAP2 POP PUSH2 0x1AD0 DUP3 PUSH2 0x1A8F JUMP JUMPDEST PUSH1 0x20 DUP3 ADD SWAP1 POP SWAP2 SWAP1 POP JUMP JUMPDEST PUSH1 0x0 PUSH1 0x20 DUP3 ADD SWAP1 POP DUP2 DUP2 SUB PUSH1 0x0 DUP4 ADD MSTORE PUSH2 0x1AF4 DUP2 PUSH2 0x1AB8 JUMP JUMPDEST SWAP1 POP SWAP2 SWAP1 POP JUMP JUMPDEST PUSH32 0x70726963652076616C7565206D757374206265206D6F7265207468616E203000 PUSH1 0x0 DUP3 ADD MSTORE POP JUMP JUMPDEST PUSH1 0x0 PUSH2 0x1B31 PUSH1 0x1F DUP4 PUSH2 0x13F7 JUMP JUMPDEST SWAP2 POP PUSH2 0x1B3C DUP3 PUSH2 0x1AFB JUMP JUMPDEST PUSH1 0x20 DUP3 ADD SWAP1 POP SWAP2 SWAP1 POP JUMP JUMPDEST PUSH1 0x0 PUSH1 0x20 DUP3 ADD SWAP1 POP DUP2 DUP2 SUB PUSH1 0x0 DUP4 ADD MSTORE PUSH2 0x1B60 DUP2 PUSH2 0x1B24 JUMP JUMPDEST SWAP1 POP SWAP2 SWAP1 POP JUMP JUMPDEST PUSH32 0x4E6F7420656E6F75676820626C616E636520746F20706C6163652061736B0000 PUSH1 0x0 DUP3 ADD MSTORE POP JUMP JUMPDEST PUSH1 0x0 PUSH2 0x1B9D PUSH1 0x1E DUP4 PUSH2 0x13F7 JUMP JUMPDEST SWAP2 POP PUSH2 0x1BA8 DUP3 PUSH2 0x1B67 JUMP JUMPDEST PUSH1 0x20 DUP3 ADD SWAP1 POP SWAP2 SWAP1 POP JUMP JUMPDEST PUSH1 0x0 PUSH1 0x20 DUP3 ADD SWAP1 POP DUP2 DUP2 SUB PUSH1 0x0 DUP4 ADD MSTORE PUSH2 0x1BCC DUP2 PUSH2 0x1B90 JUMP JUMPDEST SWAP1 POP SWAP2 SWAP1 POP JUMP JUMPDEST PUSH32 0x4E487B7100000000000000000000000000000000000000000000000000000000 PUSH1 0x0 MSTORE PUSH1 0x11 PUSH1 0x4 MSTORE PUSH1 0x24 PUSH1 0x0 REVERT JUMPDEST PUSH1 0x0 PUSH2 0x1C0D DUP3 PUSH2 0x14C2 JUMP JUMPDEST SWAP2 POP PUSH2 0x1C18 DUP4 PUSH2 0x14C2 JUMP JUMPDEST SWAP3 POP DUP3 DUP3 LT ISZERO PUSH2 0x1C2B JUMPI PUSH2 0x1C2A PUSH2 0x1BD3 JUMP JUMPDEST JUMPDEST DUP3 DUP3 SUB SWAP1 POP SWAP3 SWAP2 POP POP JUMP JUMPDEST PUSH1 0x0 PUSH2 0x1C41 DUP3 PUSH2 0x14C2 JUMP JUMPDEST SWAP2 POP PUSH2 0x1C4C DUP4 PUSH2 0x14C2 JUMP JUMPDEST SWAP3 POP DUP2 PUSH32 0xFFFFFFFFFFFFFFFFFFFFFFFFFFFFFFFFFFFFFFFFFFFFFFFFFFFFFFFFFFFFFFFF DIV DUP4 GT DUP3 ISZERO ISZERO AND ISZERO PUSH2 0x1C85 JUMPI PUSH2 0x1C84 PUSH2 0x1BD3 JUMP JUMPDEST JUMPDEST DUP3 DUP3 MUL SWAP1 POP SWAP3 SWAP2 POP POP JUMP JUMPDEST PUSH32 0x4E487B7100000000000000000000000000000000000000000000000000000000 PUSH1 0x0 MSTORE PUSH1 0x12 PUSH1 0x4 MSTORE PUSH1 0x24 PUSH1 0x0 REVERT JUMPDEST PUSH1 0x0 PUSH2 0x1CCA DUP3 PUSH2 0x14C2 JUMP JUMPDEST SWAP2 POP PUSH2 0x1CD5 DUP4 PUSH2 0x14C2 JUMP JUMPDEST SWAP3 POP DUP3 PUSH2 0x1CE5 JUMPI PUSH2 0x1CE4 PUSH2 0x1C90 JUMP JUMPDEST JUMPDEST DUP3 DUP3 DIV SWAP1 POP SWAP3 SWAP2 POP POP JUMP JUMPDEST PUSH32 0x4E6F7420656E6F75676820626C616E636520746F20706C616365206269640000 PUSH1 0x0 DUP3 ADD MSTORE POP JUMP JUMPDEST PUSH1 0x0 PUSH2 0x1D26 PUSH1 0x1E DUP4 PUSH2 0x13F7 JUMP JUMPDEST SWAP2 POP PUSH2 0x1D31 DUP3 PUSH2 0x1CF0 JUMP JUMPDEST PUSH1 0x20 DUP3 ADD SWAP1 POP SWAP2 SWAP1 POP JUMP JUMPDEST PUSH1 0x0 PUSH1 0x20 DUP3 ADD SWAP1 POP DUP2 DUP2 SUB PUSH1 0x0 DUP4 ADD MSTORE PUSH2 0x1D55 DUP2 PUSH2 0x1D19 JUMP JUMPDEST SWAP1 POP SWAP2 SWAP1 POP JUMP JUMPDEST PUSH32 0x202C200000000000000000000000000000000000000000000000000000000000 DUP2 MSTORE POP JUMP JUMPDEST PUSH1 0x0 PUSH2 0x1D8E DUP3 DUP6 PUSH2 0x19D9 JUMP JUMPDEST PUSH1 0x20 DUP3 ADD SWAP2 POP PUSH2 0x1D9D DUP3 PUSH2 0x1D5C JUMP JUMPDEST PUSH1 0x3 DUP3 ADD SWAP2 POP PUSH2 0x1DAD DUP3 DUP5 PUSH2 0x19D9 JUMP JUMPDEST PUSH1 0x20 DUP3 ADD SWAP2 POP DUP2 SWAP1 POP SWAP4 SWAP3 POP POP POP JUMP JUMPDEST PUSH1 0x0 PUSH2 0x1DC8 DUP3 PUSH2 0x14C2 JUMP JUMPDEST SWAP2 POP PUSH32 0xFFFFFFFFFFFFFFFFFFFFFFFFFFFFFFFFFFFFFFFFFFFFFFFFFFFFFFFFFFFFFFFF DUP3 SUB PUSH2 0x1DFA JUMPI PUSH2 0x1DF9 PUSH2 0x1BD3 JUMP JUMPDEST JUMPDEST PUSH1 0x1 DUP3 ADD SWAP1 POP SWAP2 SWAP1 POP JUMP JUMPDEST PUSH1 0x0 PUSH2 0x1E10 DUP3 PUSH2 0x162F JUMP JUMPDEST SWAP1 POP SWAP2 SWAP1 POP JUMP JUMPDEST PUSH2 0x1E20 DUP2 PUSH2 0x1E05 JUMP JUMPDEST DUP3 MSTORE POP POP JUMP JUMPDEST PUSH1 0x0 DUP2 SWAP1 POP SWAP2 SWAP1 POP JUMP JUMPDEST PUSH1 0x0 DUP2 SWAP1 POP SWAP2 SWAP1 POP JUMP JUMPDEST PUSH1 0x0 PUSH2 0x1E55 PUSH2 0x1E50 PUSH2 0x1E4B DUP5 PUSH2 0x1E26 JUMP JUMPDEST PUSH2 0x1E30 JUMP JUMPDEST PUSH2 0x14C2 JUMP JUMPDEST SWAP1 POP SWAP2 SWAP1 POP JUMP JUMPDEST PUSH2 0x1E65 DUP2 PUSH2 0x1E3A JUMP JUMPDEST DUP3 MSTORE POP POP JUMP JUMPDEST PUSH1 0x0 PUSH2 0x100 DUP3 ADD SWAP1 POP PUSH2 0x1E81 PUSH1 0x0 DUP4 ADD DUP12 PUSH2 0x1E17 JUMP JUMPDEST PUSH2 0x1E8E PUSH1 0x20 DUP4 ADD DUP11 PUSH2 0x15D9 JUMP JUMPDEST PUSH2 0x1E9B PUSH1 0x40 DUP4 ADD DUP10 PUSH2 0x15D9 JUMP JUMPDEST PUSH2 0x1EA8 PUSH1 0x60 DUP4 ADD DUP9 PUSH2 0x181A JUMP JUMPDEST PUSH2 0x1EB5 PUSH1 0x80 DUP4 ADD DUP8 PUSH2 0x15D9 JUMP JUMPDEST PUSH2 0x1EC2 PUSH1 0xA0 DUP4 ADD DUP7 PUSH2 0x1E5C JUMP JUMPDEST PUSH2 0x1ECF PUSH1 0xC0 DUP4 ADD DUP6 PUSH2 0x1E5C JUMP JUMPDEST PUSH2 0x1EDC PUSH1 0xE0 DUP4 ADD DUP5 PUSH2 0x18BA JUMP JUMPDEST SWAP10 SWAP9 POP POP POP POP POP POP POP POP POP JUMP INVALID LOG2 PUSH5 0x6970667358 0x22 SLT KECCAK256 SDIV PUSH6 0x323D9D4C69C9 0xE1 DUP2 0xD4 0xEF PUSH1 0x61 0xDD REVERT PUSH32 0x257323545B020C3C6C71762AF707CC64736F6C634300080D0033000000000000 "
				},
				"gasEstimates": {
					"creation": {
						"codeDepositCost": "1593400",
						"executionCost": "infinite",
						"totalCost": "infinite"
					},
					"external": {
						"appendString(uint256,uint256)": "infinite",
						"askCount()": "2540",
						"askHead()": "2474",
						"askTail()": "2561",
						"bidCount()": "2562",
						"bidHead()": "2518",
						"bidTail()": "2452",
						"cancelAsk(uint256)": "31111",
						"cancelBid(uint256)": "31110",
						"concatenate(string,bytes32)": "infinite",
						"fetchAllBid()": "infinite",
						"fetchAsk()": "infinite",
						"fetchYourAskIds()": "infinite",
						"fetchYourBidIds()": "infinite",
						"getAskAddress(uint256)": "2982",
						"getAskState(uint256)": "2962",
						"getAskValue(uint256)": "infinite",
						"getBidAddress(uint256)": "2938",
						"getBidState(uint256)": "2939",
						"getBidValue(uint256)": "infinite",
						"getOrder(uint256)": "infinite",
						"placeAsk(uint256)": "infinite",
						"placeBid(uint256)": "809"
					},
					"internal": {
						"askBid(uint256,uint256)": "infinite",
						"createAsk(address,uint256,uint256)": "infinite",
						"createBid(address,uint256,uint256)": "infinite",
						"insertionSortAsk()": "infinite",
						"linkBid(uint256,uint256)": "infinite",
						"setAskHead(uint256)": "infinite",
						"setAskTail(uint256)": "infinite",
						"setBidHead(uint256)": "infinite",
						"setBidTail(uint256)": "infinite",
						"sortAsk(struct OrderBook.order memory)": "infinite"
					}
				},
				"methodIdentifiers": {
					"appendString(uint256,uint256)": "c12bcf49",
					"askCount()": "a394fda7",
					"askHead()": "801d9bbd",
					"askTail()": "ecdfb860",
					"bidCount()": "b40a5627",
					"bidHead()": "6e5b0f00",
					"bidTail()": "7bb51193",
					"cancelAsk(uint256)": "1628e0f5",
					"cancelBid(uint256)": "9703ef35",
					"concatenate(string,bytes32)": "0a7e4904",
					"fetchAllBid()": "4471417f",
					"fetchAsk()": "44e791e0",
					"fetchYourAskIds()": "122de8f2",
					"fetchYourBidIds()": "ce0cdc87",
					"getAskAddress(uint256)": "734a2e78",
					"getAskState(uint256)": "4d46712d",
					"getAskValue(uint256)": "db3a1396",
					"getBidAddress(uint256)": "69f632e2",
					"getBidState(uint256)": "bf77ffae",
					"getBidValue(uint256)": "2db6dfa7",
					"getOrder(uint256)": "d09ef241",
					"placeAsk(uint256)": "78c5b268",
					"placeBid(uint256)": "9979ef45"
				}
			},
			"storageLayout": {
				"storage": [
					{
						"astId": 8,
						"contract": "contracts/OrderBook.sol:OrderBook",
						"label": "bidValues",
						"offset": 0,
						"slot": "0",
						"type": "t_mapping(t_uint256,t_uint256)"
					},
					{
						"astId": 15,
						"contract": "contracts/OrderBook.sol:OrderBook",
						"label": "_owner",
						"offset": 0,
						"slot": "1",
						"type": "t_address_payable"
					},
					{
						"astId": 17,
						"contract": "contracts/OrderBook.sol:OrderBook",
						"label": "commission",
						"offset": 0,
						"slot": "2",
						"type": "t_uint256"
					},
					{
						"astId": 38,
						"contract": "contracts/OrderBook.sol:OrderBook",
						"label": "bidBook",
						"offset": 0,
						"slot": "3",
						"type": "t_mapping(t_uint256,t_struct(order)33_storage)"
					},
					{
						"astId": 40,
						"contract": "contracts/OrderBook.sol:OrderBook",
						"label": "bidHead",
						"offset": 0,
						"slot": "4",
						"type": "t_uint256"
					},
					{
						"astId": 42,
						"contract": "contracts/OrderBook.sol:OrderBook",
						"label": "bidTail",
						"offset": 0,
						"slot": "5",
						"type": "t_uint256"
					},
					{
						"astId": 44,
						"contract": "contracts/OrderBook.sol:OrderBook",
						"label": "bidCount",
						"offset": 0,
						"slot": "6",
						"type": "t_uint256"
					},
					{
						"astId": 49,
						"contract": "contracts/OrderBook.sol:OrderBook",
						"label": "askBook",
						"offset": 0,
						"slot": "7",
						"type": "t_mapping(t_uint256,t_struct(order)33_storage)"
					},
					{
						"astId": 51,
						"contract": "contracts/OrderBook.sol:OrderBook",
						"label": "askHead",
						"offset": 0,
						"slot": "8",
						"type": "t_uint256"
					},
					{
						"astId": 53,
						"contract": "contracts/OrderBook.sol:OrderBook",
						"label": "askTail",
						"offset": 0,
						"slot": "9",
						"type": "t_uint256"
					},
					{
						"astId": 55,
						"contract": "contracts/OrderBook.sol:OrderBook",
						"label": "askCount",
						"offset": 0,
						"slot": "10",
						"type": "t_uint256"
					}
				],
				"types": {
					"t_address_payable": {
						"encoding": "inplace",
						"label": "address payable",
						"numberOfBytes": "20"
					},
					"t_enum(State)4": {
						"encoding": "inplace",
						"label": "enum OrderBook.State",
						"numberOfBytes": "1"
					},
					"t_mapping(t_uint256,t_struct(order)33_storage)": {
						"encoding": "mapping",
						"key": "t_uint256",
						"label": "mapping(uint256 => struct OrderBook.order)",
						"numberOfBytes": "32",
						"value": "t_struct(order)33_storage"
					},
					"t_mapping(t_uint256,t_uint256)": {
						"encoding": "mapping",
						"key": "t_uint256",
						"label": "mapping(uint256 => uint256)",
						"numberOfBytes": "32",
						"value": "t_uint256"
					},
					"t_struct(order)33_storage": {
						"encoding": "inplace",
						"label": "struct OrderBook.order",
						"members": [
							{
								"astId": 19,
								"contract": "contracts/OrderBook.sol:OrderBook",
								"label": "customer",
								"offset": 0,
								"slot": "0",
								"type": "t_address_payable"
							},
							{
								"astId": 21,
								"contract": "contracts/OrderBook.sol:OrderBook",
								"label": "value",
								"offset": 0,
								"slot": "1",
								"type": "t_uint256"
							},
							{
								"astId": 23,
								"contract": "contracts/OrderBook.sol:OrderBook",
								"label": "timestamp",
								"offset": 0,
								"slot": "2",
								"type": "t_uint256"
							},
							{
								"astId": 26,
								"contract": "contracts/OrderBook.sol:OrderBook",
								"label": "state",
								"offset": 0,
								"slot": "3",
								"type": "t_enum(State)4"
							},
							{
								"astId": 28,
								"contract": "contracts/OrderBook.sol:OrderBook",
								"label": "id",
								"offset": 0,
								"slot": "4",
								"type": "t_uint256"
							},
							{
								"astId": 30,
								"contract": "contracts/OrderBook.sol:OrderBook",
								"label": "next",
								"offset": 0,
								"slot": "5",
								"type": "t_uint256"
							},
							{
								"astId": 32,
								"contract": "contracts/OrderBook.sol:OrderBook",
								"label": "prev",
								"offset": 0,
								"slot": "6",
								"type": "t_uint256"
							}
						],
						"numberOfBytes": "224"
					},
					"t_uint256": {
						"encoding": "inplace",
						"label": "uint256",
						"numberOfBytes": "32"
					}
				}
			},
			"userdoc": {
				"kind": "user",
				"methods": {},
				"version": 1
			}
		}
	}
}