{
	"contracts/OrderBook.sol": {
		"OrderBook": {
			"abi": [
				{
					"inputs": [
						{
							"internalType": "uint256",
							"name": "_commission",
							"type": "uint256"
						}
					],
					"stateMutability": "nonpayable",
					"type": "constructor"
				},
				{
					"anonymous": false,
					"inputs": [
						{
							"indexed": false,
							"internalType": "uint256",
							"name": "",
							"type": "uint256"
						},
						{
							"indexed": false,
							"internalType": "uint256",
							"name": "",
							"type": "uint256"
						}
					],
					"name": "askLink",
					"type": "event"
				},
				{
					"anonymous": false,
					"inputs": [
						{
							"indexed": false,
							"internalType": "uint256",
							"name": "",
							"type": "uint256"
						},
						{
							"indexed": false,
							"internalType": "uint256",
							"name": "",
							"type": "uint256"
						}
					],
					"name": "bidLink",
					"type": "event"
				},
				{
					"anonymous": false,
					"inputs": [
						{
							"indexed": false,
							"internalType": "uint256",
							"name": "",
							"type": "uint256"
						}
					],
					"name": "newHead",
					"type": "event"
				},
				{
					"anonymous": false,
					"inputs": [
						{
							"indexed": false,
							"internalType": "uint256",
							"name": "",
							"type": "uint256"
						}
					],
					"name": "newTail",
					"type": "event"
				},
				{
					"anonymous": false,
					"inputs": [
						{
							"indexed": false,
							"internalType": "address",
							"name": "",
							"type": "address"
						},
						{
							"indexed": false,
							"internalType": "uint256",
							"name": "",
							"type": "uint256"
						},
						{
							"indexed": false,
							"internalType": "uint256",
							"name": "",
							"type": "uint256"
						},
						{
							"indexed": false,
							"internalType": "enum OrderBook.State",
							"name": "",
							"type": "uint8"
						},
						{
							"indexed": false,
							"internalType": "uint256",
							"name": "",
							"type": "uint256"
						},
						{
							"indexed": false,
							"internalType": "uint256",
							"name": "",
							"type": "uint256"
						},
						{
							"indexed": false,
							"internalType": "uint256",
							"name": "",
							"type": "uint256"
						},
						{
							"indexed": false,
							"internalType": "bool",
							"name": "",
							"type": "bool"
						}
					],
					"name": "orderCreated",
					"type": "event"
				},
				{
					"inputs": [
						{
							"internalType": "bytes32",
							"name": "a",
							"type": "bytes32"
						},
						{
							"internalType": "bytes32",
							"name": "b",
							"type": "bytes32"
						}
					],
					"name": "AppendString",
					"outputs": [
						{
							"internalType": "string",
							"name": "",
							"type": "string"
						}
					],
					"stateMutability": "pure",
					"type": "function"
				},
				{
					"inputs": [],
					"name": "askCount",
					"outputs": [
						{
							"internalType": "uint256",
							"name": "",
							"type": "uint256"
						}
					],
					"stateMutability": "view",
					"type": "function"
				},
				{
					"inputs": [],
					"name": "askHead",
					"outputs": [
						{
							"internalType": "uint256",
							"name": "",
							"type": "uint256"
						}
					],
					"stateMutability": "view",
					"type": "function"
				},
				{
					"inputs": [],
					"name": "askTail",
					"outputs": [
						{
							"internalType": "uint256",
							"name": "",
							"type": "uint256"
						}
					],
					"stateMutability": "view",
					"type": "function"
				},
				{
					"inputs": [],
					"name": "bidCount",
					"outputs": [
						{
							"internalType": "uint256",
							"name": "",
							"type": "uint256"
						}
					],
					"stateMutability": "view",
					"type": "function"
				},
				{
					"inputs": [],
					"name": "bidHead",
					"outputs": [
						{
							"internalType": "uint256",
							"name": "",
							"type": "uint256"
						}
					],
					"stateMutability": "view",
					"type": "function"
				},
				{
					"inputs": [],
					"name": "bidTail",
					"outputs": [
						{
							"internalType": "uint256",
							"name": "",
							"type": "uint256"
						}
					],
					"stateMutability": "view",
					"type": "function"
				},
				{
					"inputs": [
						{
							"internalType": "uint256",
							"name": "askId",
							"type": "uint256"
						}
					],
					"name": "cancelAsk",
					"outputs": [],
					"stateMutability": "nonpayable",
					"type": "function"
				},
				{
					"inputs": [
						{
							"internalType": "uint256",
							"name": "bidId",
							"type": "uint256"
						}
					],
					"name": "cancelBid",
					"outputs": [],
					"stateMutability": "nonpayable",
					"type": "function"
				},
				{
					"inputs": [
						{
							"internalType": "uint256",
							"name": "n",
							"type": "uint256"
						}
					],
					"name": "convert",
					"outputs": [
						{
							"internalType": "bytes32",
							"name": "",
							"type": "bytes32"
						}
					],
					"stateMutability": "pure",
					"type": "function"
				},
				{
					"inputs": [],
					"name": "fetchAllBid",
					"outputs": [
						{
							"components": [
								{
									"internalType": "address payable",
									"name": "customer",
									"type": "address"
								},
								{
									"internalType": "uint256",
									"name": "value",
									"type": "uint256"
								},
								{
									"internalType": "uint256",
									"name": "timestamp",
									"type": "uint256"
								},
								{
									"internalType": "enum OrderBook.State",
									"name": "state",
									"type": "uint8"
								},
								{
									"internalType": "uint256",
									"name": "id",
									"type": "uint256"
								},
								{
									"internalType": "uint256",
									"name": "next",
									"type": "uint256"
								},
								{
									"internalType": "uint256",
									"name": "prev",
									"type": "uint256"
								}
							],
							"internalType": "struct OrderBook.order[]",
							"name": "",
							"type": "tuple[]"
						}
					],
					"stateMutability": "nonpayable",
					"type": "function"
				},
				{
					"inputs": [],
					"name": "fetchAsk",
					"outputs": [
						{
							"internalType": "string",
							"name": "",
							"type": "string"
						}
					],
					"stateMutability": "view",
					"type": "function"
				},
				{
					"inputs": [],
					"name": "fetchYourAskIds",
					"outputs": [
						{
							"internalType": "uint256[]",
							"name": "",
							"type": "uint256[]"
						}
					],
					"stateMutability": "nonpayable",
					"type": "function"
				},
				{
					"inputs": [],
					"name": "fetchYourBidIds",
					"outputs": [
						{
							"internalType": "uint256[]",
							"name": "",
							"type": "uint256[]"
						}
					],
					"stateMutability": "nonpayable",
					"type": "function"
				},
				{
					"inputs": [
						{
							"internalType": "uint256",
							"name": "id",
							"type": "uint256"
						}
					],
					"name": "getAskAddress",
					"outputs": [
						{
							"internalType": "address payable",
							"name": "",
							"type": "address"
						}
					],
					"stateMutability": "view",
					"type": "function"
				},
				{
					"inputs": [
						{
							"internalType": "uint256",
							"name": "id",
							"type": "uint256"
						}
					],
					"name": "getAskState",
					"outputs": [
						{
							"internalType": "enum OrderBook.State",
							"name": "",
							"type": "uint8"
						}
					],
					"stateMutability": "view",
					"type": "function"
				},
				{
					"inputs": [
						{
							"internalType": "uint256",
							"name": "id",
							"type": "uint256"
						}
					],
					"name": "getAskValue",
					"outputs": [
						{
							"internalType": "uint256",
							"name": "",
							"type": "uint256"
						}
					],
					"stateMutability": "view",
					"type": "function"
				},
				{
					"inputs": [
						{
							"internalType": "uint256",
							"name": "id",
							"type": "uint256"
						}
					],
					"name": "getBidAddress",
					"outputs": [
						{
							"internalType": "address payable",
							"name": "",
							"type": "address"
						}
					],
					"stateMutability": "view",
					"type": "function"
				},
				{
					"inputs": [
						{
							"internalType": "uint256",
							"name": "id",
							"type": "uint256"
						}
					],
					"name": "getBidState",
					"outputs": [
						{
							"internalType": "enum OrderBook.State",
							"name": "",
							"type": "uint8"
						}
					],
					"stateMutability": "view",
					"type": "function"
				},
				{
					"inputs": [
						{
							"internalType": "uint256",
							"name": "id",
							"type": "uint256"
						}
					],
					"name": "getBidValue",
					"outputs": [
						{
							"internalType": "uint256",
							"name": "",
							"type": "uint256"
						}
					],
					"stateMutability": "view",
					"type": "function"
				},
				{
					"inputs": [
						{
							"internalType": "uint256",
							"name": "id",
							"type": "uint256"
						}
					],
					"name": "getOrder",
					"outputs": [
						{
							"internalType": "address payable",
							"name": "",
							"type": "address"
						},
						{
							"internalType": "uint256",
							"name": "",
							"type": "uint256"
						},
						{
							"internalType": "uint256",
							"name": "",
							"type": "uint256"
						},
						{
							"internalType": "enum OrderBook.State",
							"name": "",
							"type": "uint8"
						},
						{
							"internalType": "uint256",
							"name": "",
							"type": "uint256"
						},
						{
							"internalType": "uint256",
							"name": "",
							"type": "uint256"
						},
						{
							"internalType": "uint256",
							"name": "",
							"type": "uint256"
						},
						{
							"internalType": "bool",
							"name": "",
							"type": "bool"
						}
					],
					"stateMutability": "view",
					"type": "function"
				},
				{
					"inputs": [
						{
							"internalType": "uint256",
							"name": "price",
							"type": "uint256"
						}
					],
					"name": "placeAsk",
					"outputs": [],
					"stateMutability": "payable",
					"type": "function"
				},
				{
					"inputs": [
						{
							"internalType": "uint256",
							"name": "price",
							"type": "uint256"
						}
					],
					"name": "placeBid",
					"outputs": [],
					"stateMutability": "payable",
					"type": "function"
				}
			],
			"devdoc": {
				"kind": "dev",
				"methods": {},
				"version": 1
			},
			"evm": {
				"assembly": "    /* \"contracts/OrderBook.sol\":1130:9017  contract OrderBook {... */\n  mstore(0x40, 0x80)\n    /* \"contracts/OrderBook.sol\":1333:1343  msg.sender */\n  caller\n    /* \"contracts/OrderBook.sol\":1300:1344  address payable _owner = payable(msg.sender) */\n  0x01\n  exp(0x0100, 0x00)\n  dup2\n  sload\n  dup2\n  0xffffffffffffffffffffffffffffffffffffffff\n  mul\n  not\n  and\n  swap1\n  dup4\n  0xffffffffffffffffffffffffffffffffffffffff\n  and\n  mul\n  or\n  swap1\n  sstore\n  pop\n    /* \"contracts/OrderBook.sol\":2323:2526  constructor (uint256 _commission) {... */\n  callvalue\n  dup1\n  iszero\n  tag_1\n  jumpi\n  0x00\n  dup1\n  revert\ntag_1:\n  pop\n  mload(0x40)\n  sub(codesize, bytecodeSize)\n  dup1\n  bytecodeSize\n  dup4\n  codecopy\n  dup2\n  dup2\n  add\n  0x40\n  mstore\n  dup2\n  add\n  swap1\n  tag_2\n  swap2\n  swap1\n  tag_3\n  jump\t// in\ntag_2:\n    /* \"contracts/OrderBook.sol\":2380:2391  _commission */\n  dup1\n    /* \"contracts/OrderBook.sol\":2367:2377  commission */\n  0x02\n    /* \"contracts/OrderBook.sol\":2367:2391  commission = _commission */\n  dup2\n  swap1\n  sstore\n  pop\n    /* \"contracts/OrderBook.sol\":2411:2412  0 */\n  0x00\n    /* \"contracts/OrderBook.sol\":2401:2408  bidHead */\n  0x04\n    /* \"contracts/OrderBook.sol\":2401:2412  bidHead = 0 */\n  dup2\n  swap1\n  sstore\n  pop\n    /* \"contracts/OrderBook.sol\":2432:2433  0 */\n  0x00\n    /* \"contracts/OrderBook.sol\":2422:2429  bidTail */\n  0x05\n    /* \"contracts/OrderBook.sol\":2422:2433  bidTail = 0 */\n  dup2\n  swap1\n  sstore\n  pop\n    /* \"contracts/OrderBook.sol\":2454:2455  0 */\n  0x00\n    /* \"contracts/OrderBook.sol\":2443:2451  bidCount */\n  0x06\n    /* \"contracts/OrderBook.sol\":2443:2455  bidCount = 0 */\n  dup2\n  swap1\n  sstore\n  pop\n    /* \"contracts/OrderBook.sol\":2475:2476  0 */\n  0x00\n    /* \"contracts/OrderBook.sol\":2465:2472  askHead */\n  0x08\n    /* \"contracts/OrderBook.sol\":2465:2476  askHead = 0 */\n  dup2\n  swap1\n  sstore\n  pop\n    /* \"contracts/OrderBook.sol\":2496:2497  0 */\n  0x00\n    /* \"contracts/OrderBook.sol\":2486:2493  askTail */\n  0x09\n    /* \"contracts/OrderBook.sol\":2486:2497  askTail = 0 */\n  dup2\n  swap1\n  sstore\n  pop\n    /* \"contracts/OrderBook.sol\":2518:2519  0 */\n  0x00\n    /* \"contracts/OrderBook.sol\":2507:2515  askCount */\n  0x0a\n    /* \"contracts/OrderBook.sol\":2507:2519  askCount = 0 */\n  dup2\n  swap1\n  sstore\n  pop\n    /* \"contracts/OrderBook.sol\":2323:2526  constructor (uint256 _commission) {... */\n  pop\n    /* \"contracts/OrderBook.sol\":1130:9017  contract OrderBook {... */\n  jump(tag_6)\n    /* \"#utility.yul\":88:205   */\ntag_8:\n    /* \"#utility.yul\":197:198   */\n  0x00\n    /* \"#utility.yul\":194:195   */\n  dup1\n    /* \"#utility.yul\":187:199   */\n  revert\n    /* \"#utility.yul\":334:411   */\ntag_10:\n    /* \"#utility.yul\":371:378   */\n  0x00\n    /* \"#utility.yul\":400:405   */\n  dup2\n    /* \"#utility.yul\":389:405   */\n  swap1\n  pop\n    /* \"#utility.yul\":334:411   */\n  swap2\n  swap1\n  pop\n  jump\t// out\n    /* \"#utility.yul\":417:539   */\ntag_11:\n    /* \"#utility.yul\":490:514   */\n  tag_19\n    /* \"#utility.yul\":508:513   */\n  dup2\n    /* \"#utility.yul\":490:514   */\n  tag_10\n  jump\t// in\ntag_19:\n    /* \"#utility.yul\":483:488   */\n  dup2\n    /* \"#utility.yul\":480:515   */\n  eq\n    /* \"#utility.yul\":470:533   */\n  tag_20\n  jumpi\n    /* \"#utility.yul\":529:530   */\n  0x00\n    /* \"#utility.yul\":526:527   */\n  dup1\n    /* \"#utility.yul\":519:531   */\n  revert\n    /* \"#utility.yul\":470:533   */\ntag_20:\n    /* \"#utility.yul\":417:539   */\n  pop\n  jump\t// out\n    /* \"#utility.yul\":545:688   */\ntag_12:\n    /* \"#utility.yul\":602:607   */\n  0x00\n    /* \"#utility.yul\":633:639   */\n  dup2\n    /* \"#utility.yul\":627:640   */\n  mload\n    /* \"#utility.yul\":618:640   */\n  swap1\n  pop\n    /* \"#utility.yul\":649:682   */\n  tag_22\n    /* \"#utility.yul\":676:681   */\n  dup2\n    /* \"#utility.yul\":649:682   */\n  tag_11\n  jump\t// in\ntag_22:\n    /* \"#utility.yul\":545:688   */\n  swap3\n  swap2\n  pop\n  pop\n  jump\t// out\n    /* \"#utility.yul\":694:1045   */\ntag_3:\n    /* \"#utility.yul\":764:770   */\n  0x00\n    /* \"#utility.yul\":813:815   */\n  0x20\n    /* \"#utility.yul\":801:810   */\n  dup3\n    /* \"#utility.yul\":792:799   */\n  dup5\n    /* \"#utility.yul\":788:811   */\n  sub\n    /* \"#utility.yul\":784:816   */\n  slt\n    /* \"#utility.yul\":781:900   */\n  iszero\n  tag_24\n  jumpi\n    /* \"#utility.yul\":819:898   */\n  tag_25\n  tag_8\n  jump\t// in\ntag_25:\n    /* \"#utility.yul\":781:900   */\ntag_24:\n    /* \"#utility.yul\":939:940   */\n  0x00\n    /* \"#utility.yul\":964:1028   */\n  tag_26\n    /* \"#utility.yul\":1020:1027   */\n  dup5\n    /* \"#utility.yul\":1011:1017   */\n  dup3\n    /* \"#utility.yul\":1000:1009   */\n  dup6\n    /* \"#utility.yul\":996:1018   */\n  add\n    /* \"#utility.yul\":964:1028   */\n  tag_12\n  jump\t// in\ntag_26:\n    /* \"#utility.yul\":954:1028   */\n  swap2\n  pop\n    /* \"#utility.yul\":910:1038   */\n  pop\n    /* \"#utility.yul\":694:1045   */\n  swap3\n  swap2\n  pop\n  pop\n  jump\t// out\n    /* \"contracts/OrderBook.sol\":1130:9017  contract OrderBook {... */\ntag_6:\n  dataSize(sub_0)\n  dup1\n  dataOffset(sub_0)\n  0x00\n  codecopy\n  0x00\n  return\nstop\n\nsub_0: assembly {\n        /* \"contracts/OrderBook.sol\":1130:9017  contract OrderBook {... */\n      mstore(0x40, 0x80)\n      jumpi(tag_1, lt(calldatasize, 0x04))\n      shr(0xe0, calldataload(0x00))\n      dup1\n      0x7bb51193\n      gt\n      tag_25\n      jumpi\n      dup1\n      0xb40a5627\n      gt\n      tag_26\n      jumpi\n      dup1\n      0xb40a5627\n      eq\n      tag_19\n      jumpi\n      dup1\n      0xbf77ffae\n      eq\n      tag_20\n      jumpi\n      dup1\n      0xce0cdc87\n      eq\n      tag_21\n      jumpi\n      dup1\n      0xd09ef241\n      eq\n      tag_22\n      jumpi\n      dup1\n      0xdb3a1396\n      eq\n      tag_23\n      jumpi\n      dup1\n      0xecdfb860\n      eq\n      tag_24\n      jumpi\n      jump(tag_1)\n    tag_26:\n      dup1\n      0x7bb51193\n      eq\n      tag_13\n      jumpi\n      dup1\n      0x801d9bbd\n      eq\n      tag_14\n      jumpi\n      dup1\n      0x9703ef35\n      eq\n      tag_15\n      jumpi\n      dup1\n      0x9979ef45\n      eq\n      tag_16\n      jumpi\n      dup1\n      0xa3908e1b\n      eq\n      tag_17\n      jumpi\n      dup1\n      0xa394fda7\n      eq\n      tag_18\n      jumpi\n      jump(tag_1)\n    tag_25:\n      dup1\n      0x44e791e0\n      gt\n      tag_27\n      jumpi\n      dup1\n      0x44e791e0\n      eq\n      tag_7\n      jumpi\n      dup1\n      0x4d46712d\n      eq\n      tag_8\n      jumpi\n      dup1\n      0x69f632e2\n      eq\n      tag_9\n      jumpi\n      dup1\n      0x6e5b0f00\n      eq\n      tag_10\n      jumpi\n      dup1\n      0x734a2e78\n      eq\n      tag_11\n      jumpi\n      dup1\n      0x78c5b268\n      eq\n      tag_12\n      jumpi\n      jump(tag_1)\n    tag_27:\n      dup1\n      0x122de8f2\n      eq\n      tag_2\n      jumpi\n      dup1\n      0x1628e0f5\n      eq\n      tag_3\n      jumpi\n      dup1\n      0x299e6283\n      eq\n      tag_4\n      jumpi\n      dup1\n      0x2db6dfa7\n      eq\n      tag_5\n      jumpi\n      dup1\n      0x4471417f\n      eq\n      tag_6\n      jumpi\n    tag_1:\n      0x00\n      dup1\n      revert\n        /* \"contracts/OrderBook.sol\":7934:8002  function fetchYourAskIds() public returns (uint256[] memory) {... */\n    tag_2:\n      callvalue\n      dup1\n      iszero\n      tag_28\n      jumpi\n      0x00\n      dup1\n      revert\n    tag_28:\n      pop\n      tag_29\n      tag_30\n      jump\t// in\n    tag_29:\n      mload(0x40)\n      tag_31\n      swap2\n      swap1\n      tag_32\n      jump\t// in\n    tag_31:\n      mload(0x40)\n      dup1\n      swap2\n      sub\n      swap1\n      return\n        /* \"contracts/OrderBook.sol\":7284:7576  function cancelAsk (uint256 askId) public isPending(askBook[askId]) isAuthorised(askBook[askId], msg.sender) {... */\n    tag_3:\n      callvalue\n      dup1\n      iszero\n      tag_33\n      jumpi\n      0x00\n      dup1\n      revert\n    tag_33:\n      pop\n      tag_34\n      0x04\n      dup1\n      calldatasize\n      sub\n      dup2\n      add\n      swap1\n      tag_35\n      swap2\n      swap1\n      tag_36\n      jump\t// in\n    tag_35:\n      tag_37\n      jump\t// in\n    tag_34:\n      stop\n        /* \"contracts/OrderBook.sol\":5860:5998  function AppendString(bytes32 a, bytes32 b) public pure returns (string memory) {... */\n    tag_4:\n      callvalue\n      dup1\n      iszero\n      tag_38\n      jumpi\n      0x00\n      dup1\n      revert\n    tag_38:\n      pop\n      tag_39\n      0x04\n      dup1\n      calldatasize\n      sub\n      dup2\n      add\n      swap1\n      tag_40\n      swap2\n      swap1\n      tag_41\n      jump\t// in\n    tag_40:\n      tag_42\n      jump\t// in\n    tag_39:\n      mload(0x40)\n      tag_43\n      swap2\n      swap1\n      tag_44\n      jump\t// in\n    tag_43:\n      mload(0x40)\n      dup1\n      swap2\n      sub\n      swap1\n      return\n        /* \"contracts/OrderBook.sol\":8584:8688  function getBidValue (uint256 id) public view returns(uint256) {... */\n    tag_5:\n      callvalue\n      dup1\n      iszero\n      tag_45\n      jumpi\n      0x00\n      dup1\n      revert\n    tag_45:\n      pop\n      tag_46\n      0x04\n      dup1\n      calldatasize\n      sub\n      dup2\n      add\n      swap1\n      tag_47\n      swap2\n      swap1\n      tag_36\n      jump\t// in\n    tag_47:\n      tag_48\n      jump\t// in\n    tag_46:\n      mload(0x40)\n      tag_49\n      swap2\n      swap1\n      tag_50\n      jump\t// in\n    tag_49:\n      mload(0x40)\n      dup1\n      swap2\n      sub\n      swap1\n      return\n        /* \"contracts/OrderBook.sol\":7791:7853  function fetchAllBid() public returns (order[] memory) {... */\n    tag_6:\n      callvalue\n      dup1\n      iszero\n      tag_51\n      jumpi\n      0x00\n      dup1\n      revert\n    tag_51:\n      pop\n      tag_52\n      tag_53\n      jump\t// in\n    tag_52:\n      mload(0x40)\n      tag_54\n      swap2\n      swap1\n      tag_55\n      jump\t// in\n    tag_54:\n      mload(0x40)\n      dup1\n      swap2\n      sub\n      swap1\n      return\n        /* \"contracts/OrderBook.sol\":7610:7785  function fetchAsk() public view returns (string memory) {... */\n    tag_7:\n      callvalue\n      dup1\n      iszero\n      tag_56\n      jumpi\n      0x00\n      dup1\n      revert\n    tag_56:\n      pop\n      tag_57\n      tag_58\n      jump\t// in\n    tag_57:\n      mload(0x40)\n      tag_59\n      swap2\n      swap1\n      tag_44\n      jump\t// in\n    tag_59:\n      mload(0x40)\n      dup1\n      swap2\n      sub\n      swap1\n      return\n        /* \"contracts/OrderBook.sol\":8912:9014  function getAskState (uint256 id) public view returns(State) {... */\n    tag_8:\n      callvalue\n      dup1\n      iszero\n      tag_60\n      jumpi\n      0x00\n      dup1\n      revert\n    tag_60:\n      pop\n      tag_61\n      0x04\n      dup1\n      calldatasize\n      sub\n      dup2\n      add\n      swap1\n      tag_62\n      swap2\n      swap1\n      tag_36\n      jump\t// in\n    tag_62:\n      tag_63\n      jump\t// in\n    tag_61:\n      mload(0x40)\n      tag_64\n      swap2\n      swap1\n      tag_65\n      jump\t// in\n    tag_64:\n      mload(0x40)\n      dup1\n      swap2\n      sub\n      swap1\n      return\n        /* \"contracts/OrderBook.sol\":8338:8455  function getBidAddress (uint256 id) public view returns(address payable) {... */\n    tag_9:\n      callvalue\n      dup1\n      iszero\n      tag_66\n      jumpi\n      0x00\n      dup1\n      revert\n    tag_66:\n      pop\n      tag_67\n      0x04\n      dup1\n      calldatasize\n      sub\n      dup2\n      add\n      swap1\n      tag_68\n      swap2\n      swap1\n      tag_36\n      jump\t// in\n    tag_68:\n      tag_69\n      jump\t// in\n    tag_67:\n      mload(0x40)\n      tag_70\n      swap2\n      swap1\n      tag_71\n      jump\t// in\n    tag_70:\n      mload(0x40)\n      dup1\n      swap2\n      sub\n      swap1\n      return\n        /* \"contracts/OrderBook.sol\":1797:1819  uint256 public bidHead */\n    tag_10:\n      callvalue\n      dup1\n      iszero\n      tag_72\n      jumpi\n      0x00\n      dup1\n      revert\n    tag_72:\n      pop\n      tag_73\n      tag_74\n      jump\t// in\n    tag_73:\n      mload(0x40)\n      tag_75\n      swap2\n      swap1\n      tag_50\n      jump\t// in\n    tag_75:\n      mload(0x40)\n      dup1\n      swap2\n      sub\n      swap1\n      return\n        /* \"contracts/OrderBook.sol\":8461:8578  function getAskAddress (uint256 id) public view returns(address payable) {... */\n    tag_11:\n      callvalue\n      dup1\n      iszero\n      tag_76\n      jumpi\n      0x00\n      dup1\n      revert\n    tag_76:\n      pop\n      tag_77\n      0x04\n      dup1\n      calldatasize\n      sub\n      dup2\n      add\n      swap1\n      tag_78\n      swap2\n      swap1\n      tag_36\n      jump\t// in\n    tag_78:\n      tag_79\n      jump\t// in\n    tag_77:\n      mload(0x40)\n      tag_80\n      swap2\n      swap1\n      tag_71\n      jump\t// in\n    tag_80:\n      mload(0x40)\n      dup1\n      swap2\n      sub\n      swap1\n      return\n        /* \"contracts/OrderBook.sol\":6874:7278  function placeAsk (uint256 price) public payable {... */\n    tag_12:\n      tag_81\n      0x04\n      dup1\n      calldatasize\n      sub\n      dup2\n      add\n      swap1\n      tag_82\n      swap2\n      swap1\n      tag_36\n      jump\t// in\n    tag_82:\n      tag_83\n      jump\t// in\n    tag_81:\n      stop\n        /* \"contracts/OrderBook.sol\":1825:1847  uint256 public bidTail */\n    tag_13:\n      callvalue\n      dup1\n      iszero\n      tag_84\n      jumpi\n      0x00\n      dup1\n      revert\n    tag_84:\n      pop\n      tag_85\n      tag_86\n      jump\t// in\n    tag_85:\n      mload(0x40)\n      tag_87\n      swap2\n      swap1\n      tag_50\n      jump\t// in\n    tag_87:\n      mload(0x40)\n      dup1\n      swap2\n      sub\n      swap1\n      return\n        /* \"contracts/OrderBook.sol\":1970:1992  uint256 public askHead */\n    tag_14:\n      callvalue\n      dup1\n      iszero\n      tag_88\n      jumpi\n      0x00\n      dup1\n      revert\n    tag_88:\n      pop\n      tag_89\n      tag_90\n      jump\t// in\n    tag_89:\n      mload(0x40)\n      tag_91\n      swap2\n      swap1\n      tag_50\n      jump\t// in\n    tag_91:\n      mload(0x40)\n      dup1\n      swap2\n      sub\n      swap1\n      return\n        /* \"contracts/OrderBook.sol\":6611:6868  function cancelBid (uint256 bidId) public isPending(bidBook[bidId]) isAuthorised(bidBook[bidId], msg.sender) {... */\n    tag_15:\n      callvalue\n      dup1\n      iszero\n      tag_92\n      jumpi\n      0x00\n      dup1\n      revert\n    tag_92:\n      pop\n      tag_93\n      0x04\n      dup1\n      calldatasize\n      sub\n      dup2\n      add\n      swap1\n      tag_94\n      swap2\n      swap1\n      tag_36\n      jump\t// in\n    tag_94:\n      tag_95\n      jump\t// in\n    tag_93:\n      stop\n        /* \"contracts/OrderBook.sol\":6036:6605  function placeBid (uint256 price) public payable {... */\n    tag_16:\n      tag_96\n      0x04\n      dup1\n      calldatasize\n      sub\n      dup2\n      add\n      swap1\n      tag_97\n      swap2\n      swap1\n      tag_36\n      jump\t// in\n    tag_97:\n      tag_98\n      jump\t// in\n    tag_96:\n      stop\n        /* \"contracts/OrderBook.sol\":5762:5854  function convert(uint256 n) public pure returns (bytes32) {... */\n    tag_17:\n      callvalue\n      dup1\n      iszero\n      tag_99\n      jumpi\n      0x00\n      dup1\n      revert\n    tag_99:\n      pop\n      tag_100\n      0x04\n      dup1\n      calldatasize\n      sub\n      dup2\n      add\n      swap1\n      tag_101\n      swap2\n      swap1\n      tag_36\n      jump\t// in\n    tag_101:\n      tag_102\n      jump\t// in\n    tag_100:\n      mload(0x40)\n      tag_103\n      swap2\n      swap1\n      tag_104\n      jump\t// in\n    tag_103:\n      mload(0x40)\n      dup1\n      swap2\n      sub\n      swap1\n      return\n        /* \"contracts/OrderBook.sol\":2026:2049  uint256 public askCount */\n    tag_18:\n      callvalue\n      dup1\n      iszero\n      tag_105\n      jumpi\n      0x00\n      dup1\n      revert\n    tag_105:\n      pop\n      tag_106\n      tag_107\n      jump\t// in\n    tag_106:\n      mload(0x40)\n      tag_108\n      swap2\n      swap1\n      tag_50\n      jump\t// in\n    tag_108:\n      mload(0x40)\n      dup1\n      swap2\n      sub\n      swap1\n      return\n        /* \"contracts/OrderBook.sol\":1853:1876  uint256 public bidCount */\n    tag_19:\n      callvalue\n      dup1\n      iszero\n      tag_109\n      jumpi\n      0x00\n      dup1\n      revert\n    tag_109:\n      pop\n      tag_110\n      tag_111\n      jump\t// in\n    tag_110:\n      mload(0x40)\n      tag_112\n      swap2\n      swap1\n      tag_50\n      jump\t// in\n    tag_112:\n      mload(0x40)\n      dup1\n      swap2\n      sub\n      swap1\n      return\n        /* \"contracts/OrderBook.sol\":8804:8906  function getBidState (uint256 id) public view returns(State) {... */\n    tag_20:\n      callvalue\n      dup1\n      iszero\n      tag_113\n      jumpi\n      0x00\n      dup1\n      revert\n    tag_113:\n      pop\n      tag_114\n      0x04\n      dup1\n      calldatasize\n      sub\n      dup2\n      add\n      swap1\n      tag_115\n      swap2\n      swap1\n      tag_36\n      jump\t// in\n    tag_115:\n      tag_116\n      jump\t// in\n    tag_114:\n      mload(0x40)\n      tag_117\n      swap2\n      swap1\n      tag_65\n      jump\t// in\n    tag_117:\n      mload(0x40)\n      dup1\n      swap2\n      sub\n      swap1\n      return\n        /* \"contracts/OrderBook.sol\":7860:7928  function fetchYourBidIds() public returns (uint256[] memory) {... */\n    tag_21:\n      callvalue\n      dup1\n      iszero\n      tag_118\n      jumpi\n      0x00\n      dup1\n      revert\n    tag_118:\n      pop\n      tag_119\n      tag_120\n      jump\t// in\n    tag_119:\n      mload(0x40)\n      tag_121\n      swap2\n      swap1\n      tag_32\n      jump\t// in\n    tag_121:\n      mload(0x40)\n      dup1\n      swap2\n      sub\n      swap1\n      return\n        /* \"contracts/OrderBook.sol\":8008:8332  function getOrder(uint256 id) public view returns(address payable,uint256,uint256,State,uint256,uint256,uint256,bool) {... */\n    tag_22:\n      callvalue\n      dup1\n      iszero\n      tag_122\n      jumpi\n      0x00\n      dup1\n      revert\n    tag_122:\n      pop\n      tag_123\n      0x04\n      dup1\n      calldatasize\n      sub\n      dup2\n      add\n      swap1\n      tag_124\n      swap2\n      swap1\n      tag_36\n      jump\t// in\n    tag_124:\n      tag_125\n      jump\t// in\n    tag_123:\n      mload(0x40)\n      tag_126\n      swap9\n      swap8\n      swap7\n      swap6\n      swap5\n      swap4\n      swap3\n      swap2\n      swap1\n      tag_127\n      jump\t// in\n    tag_126:\n      mload(0x40)\n      dup1\n      swap2\n      sub\n      swap1\n      return\n        /* \"contracts/OrderBook.sol\":8694:8798  function getAskValue (uint256 id) public view returns(uint256) {... */\n    tag_23:\n      callvalue\n      dup1\n      iszero\n      tag_128\n      jumpi\n      0x00\n      dup1\n      revert\n    tag_128:\n      pop\n      tag_129\n      0x04\n      dup1\n      calldatasize\n      sub\n      dup2\n      add\n      swap1\n      tag_130\n      swap2\n      swap1\n      tag_36\n      jump\t// in\n    tag_130:\n      tag_131\n      jump\t// in\n    tag_129:\n      mload(0x40)\n      tag_132\n      swap2\n      swap1\n      tag_50\n      jump\t// in\n    tag_132:\n      mload(0x40)\n      dup1\n      swap2\n      sub\n      swap1\n      return\n        /* \"contracts/OrderBook.sol\":1998:2020  uint256 public askTail */\n    tag_24:\n      callvalue\n      dup1\n      iszero\n      tag_133\n      jumpi\n      0x00\n      dup1\n      revert\n    tag_133:\n      pop\n      tag_134\n      tag_135\n      jump\t// in\n    tag_134:\n      mload(0x40)\n      tag_136\n      swap2\n      swap1\n      tag_50\n      jump\t// in\n    tag_136:\n      mload(0x40)\n      dup1\n      swap2\n      sub\n      swap1\n      return\n        /* \"contracts/OrderBook.sol\":7934:8002  function fetchYourAskIds() public returns (uint256[] memory) {... */\n    tag_30:\n        /* \"contracts/OrderBook.sol\":7977:7993  uint256[] memory */\n      0x60\n        /* \"contracts/OrderBook.sol\":7934:8002  function fetchYourAskIds() public returns (uint256[] memory) {... */\n      swap1\n      jump\t// out\n        /* \"contracts/OrderBook.sol\":7284:7576  function cancelAsk (uint256 askId) public isPending(askBook[askId]) isAuthorised(askBook[askId], msg.sender) {... */\n    tag_37:\n        /* \"contracts/OrderBook.sol\":7336:7343  askBook */\n      0x07\n        /* \"contracts/OrderBook.sol\":7336:7350  askBook[askId] */\n      0x00\n        /* \"contracts/OrderBook.sol\":7344:7349  askId */\n      dup3\n        /* \"contracts/OrderBook.sol\":7336:7350  askBook[askId] */\n      dup2\n      mstore\n      0x20\n      add\n      swap1\n      dup2\n      mstore\n      0x20\n      add\n      0x00\n      keccak256\n        /* \"contracts/OrderBook.sol\":2565:2688  modifier isPending(order memory _order) {... */\n      mload(0x40)\n      dup1\n      0xe0\n      add\n      0x40\n      mstore\n      swap1\n      dup2\n      0x00\n      dup3\n      add\n      0x00\n      swap1\n      sload\n      swap1\n      0x0100\n      exp\n      swap1\n      div\n      0xffffffffffffffffffffffffffffffffffffffff\n      and\n      0xffffffffffffffffffffffffffffffffffffffff\n      and\n      0xffffffffffffffffffffffffffffffffffffffff\n      and\n      dup2\n      mstore\n      0x20\n      add\n      0x01\n      dup3\n      add\n      sload\n      dup2\n      mstore\n      0x20\n      add\n      0x02\n      dup3\n      add\n      sload\n      dup2\n      mstore\n      0x20\n      add\n      0x03\n      dup3\n      add\n      0x00\n      swap1\n      sload\n      swap1\n      0x0100\n      exp\n      swap1\n      div\n      0xff\n      and\n      0x01\n      dup2\n      gt\n      iszero\n      tag_138\n      jumpi\n      tag_139\n      tag_140\n      jump\t// in\n    tag_139:\n    tag_138:\n      0x01\n      dup2\n      gt\n      iszero\n      tag_141\n      jumpi\n      tag_142\n      tag_140\n      jump\t// in\n    tag_142:\n    tag_141:\n      dup2\n      mstore\n      0x20\n      add\n      0x04\n      dup3\n      add\n      sload\n      dup2\n      mstore\n      0x20\n      add\n      0x05\n      dup3\n      add\n      sload\n      dup2\n      mstore\n      0x20\n      add\n      0x06\n      dup3\n      add\n      sload\n      dup2\n      mstore\n      pop\n      pop\n        /* \"contracts/OrderBook.sol\":2639:2652  State.pending */\n      0x00\n        /* \"contracts/OrderBook.sol\":2623:2652  _order.state == State.pending */\n      0x01\n      dup2\n      gt\n      iszero\n      tag_144\n      jumpi\n      tag_145\n      tag_140\n      jump\t// in\n    tag_145:\n    tag_144:\n        /* \"contracts/OrderBook.sol\":2623:2629  _order */\n      dup2\n        /* \"contracts/OrderBook.sol\":2623:2635  _order.state */\n      0x60\n      add\n      mload\n        /* \"contracts/OrderBook.sol\":2623:2652  _order.state == State.pending */\n      0x01\n      dup2\n      gt\n      iszero\n      tag_146\n      jumpi\n      tag_147\n      tag_140\n      jump\t// in\n    tag_147:\n    tag_146:\n      eq\n        /* \"contracts/OrderBook.sol\":2615:2670  require(_order.state == State.pending, \"Order Pending\") */\n      tag_148\n      jumpi\n      mload(0x40)\n      0x08c379a000000000000000000000000000000000000000000000000000000000\n      dup2\n      mstore\n      0x04\n      add\n      tag_149\n      swap1\n      tag_150\n      jump\t// in\n    tag_149:\n      mload(0x40)\n      dup1\n      swap2\n      sub\n      swap1\n      revert\n    tag_148:\n        /* \"contracts/OrderBook.sol\":7365:7372  askBook */\n      0x07\n        /* \"contracts/OrderBook.sol\":7365:7379  askBook[askId] */\n      0x00\n        /* \"contracts/OrderBook.sol\":7373:7378  askId */\n      dup4\n        /* \"contracts/OrderBook.sol\":7365:7379  askBook[askId] */\n      dup2\n      mstore\n      0x20\n      add\n      swap1\n      dup2\n      mstore\n      0x20\n      add\n      0x00\n      keccak256\n        /* \"contracts/OrderBook.sol\":2694:2833  modifier isAuthorised(order memory _order, address sender) {... */\n      mload(0x40)\n      dup1\n      0xe0\n      add\n      0x40\n      mstore\n      swap1\n      dup2\n      0x00\n      dup3\n      add\n      0x00\n      swap1\n      sload\n      swap1\n      0x0100\n      exp\n      swap1\n      div\n      0xffffffffffffffffffffffffffffffffffffffff\n      and\n      0xffffffffffffffffffffffffffffffffffffffff\n      and\n      0xffffffffffffffffffffffffffffffffffffffff\n      and\n      dup2\n      mstore\n      0x20\n      add\n      0x01\n      dup3\n      add\n      sload\n      dup2\n      mstore\n      0x20\n      add\n      0x02\n      dup3\n      add\n      sload\n      dup2\n      mstore\n      0x20\n      add\n      0x03\n      dup3\n      add\n      0x00\n      swap1\n      sload\n      swap1\n      0x0100\n      exp\n      swap1\n      div\n      0xff\n      and\n      0x01\n      dup2\n      gt\n      iszero\n      tag_151\n      jumpi\n      tag_152\n      tag_140\n      jump\t// in\n    tag_152:\n    tag_151:\n      0x01\n      dup2\n      gt\n      iszero\n      tag_153\n      jumpi\n      tag_154\n      tag_140\n      jump\t// in\n    tag_154:\n    tag_153:\n      dup2\n      mstore\n      0x20\n      add\n      0x04\n      dup3\n      add\n      sload\n      dup2\n      mstore\n      0x20\n      add\n      0x05\n      dup3\n      add\n      sload\n      dup2\n      mstore\n      0x20\n      add\n      0x06\n      dup3\n      add\n      sload\n      dup2\n      mstore\n      pop\n      pop\n        /* \"contracts/OrderBook.sol\":7381:7391  msg.sender */\n      caller\n        /* \"contracts/OrderBook.sol\":2790:2796  sender */\n      dup1\n        /* \"contracts/OrderBook.sol\":2771:2796  _order.customer == sender */\n      0xffffffffffffffffffffffffffffffffffffffff\n      and\n        /* \"contracts/OrderBook.sol\":2771:2777  _order */\n      dup3\n        /* \"contracts/OrderBook.sol\":2771:2786  _order.customer */\n      0x00\n      add\n      mload\n        /* \"contracts/OrderBook.sol\":2771:2796  _order.customer == sender */\n      0xffffffffffffffffffffffffffffffffffffffff\n      and\n      eq\n        /* \"contracts/OrderBook.sol\":2763:2815  require(_order.customer == sender, \"Not Authorised\") */\n      tag_156\n      jumpi\n      mload(0x40)\n      0x08c379a000000000000000000000000000000000000000000000000000000000\n      dup2\n      mstore\n      0x04\n      add\n      tag_157\n      swap1\n      tag_158\n      jump\t// in\n    tag_157:\n      mload(0x40)\n      dup1\n      swap2\n      sub\n      swap1\n      revert\n    tag_156:\n        /* \"contracts/OrderBook.sol\":2680:2681  _ */\n      pop\n      pop\n        /* \"contracts/OrderBook.sol\":7284:7576  function cancelAsk (uint256 askId) public isPending(askBook[askId]) isAuthorised(askBook[askId], msg.sender) {... */\n      pop\n      pop\n      jump\t// out\n        /* \"contracts/OrderBook.sol\":5860:5998  function AppendString(bytes32 a, bytes32 b) public pure returns (string memory) {... */\n    tag_42:\n        /* \"contracts/OrderBook.sol\":5925:5938  string memory */\n      0x60\n        /* \"contracts/OrderBook.sol\":5977:5978  a */\n      dup3\n        /* \"contracts/OrderBook.sol\":5988:5989  b */\n      dup3\n        /* \"contracts/OrderBook.sol\":5964:5990  bytes.concat(a, \" , \" , b) */\n      add(0x20, mload(0x40))\n      tag_161\n      swap3\n      swap2\n      swap1\n      tag_162\n      jump\t// in\n    tag_161:\n      mload(0x40)\n      0x20\n      dup2\n      dup4\n      sub\n      sub\n      dup2\n      mstore\n      swap1\n      0x40\n      mstore\n        /* \"contracts/OrderBook.sol\":5950:5991  return string(bytes.concat(a, \" , \" , b)) */\n      swap1\n      pop\n        /* \"contracts/OrderBook.sol\":5860:5998  function AppendString(bytes32 a, bytes32 b) public pure returns (string memory) {... */\n      swap3\n      swap2\n      pop\n      pop\n      jump\t// out\n        /* \"contracts/OrderBook.sol\":8584:8688  function getBidValue (uint256 id) public view returns(uint256) {... */\n    tag_48:\n        /* \"contracts/OrderBook.sol\":8638:8645  uint256 */\n      0x00\n        /* \"contracts/OrderBook.sol\":8664:8671  bidBook */\n      0x03\n        /* \"contracts/OrderBook.sol\":8664:8675  bidBook[id] */\n      0x00\n        /* \"contracts/OrderBook.sol\":8672:8674  id */\n      dup4\n        /* \"contracts/OrderBook.sol\":8664:8675  bidBook[id] */\n      dup2\n      mstore\n      0x20\n      add\n      swap1\n      dup2\n      mstore\n      0x20\n      add\n      0x00\n      keccak256\n        /* \"contracts/OrderBook.sol\":8664:8681  bidBook[id].value */\n      0x01\n      add\n      sload\n        /* \"contracts/OrderBook.sol\":8657:8681  return bidBook[id].value */\n      swap1\n      pop\n        /* \"contracts/OrderBook.sol\":8584:8688  function getBidValue (uint256 id) public view returns(uint256) {... */\n      swap2\n      swap1\n      pop\n      jump\t// out\n        /* \"contracts/OrderBook.sol\":7791:7853  function fetchAllBid() public returns (order[] memory) {... */\n    tag_53:\n        /* \"contracts/OrderBook.sol\":7830:7844  order[] memory */\n      0x60\n        /* \"contracts/OrderBook.sol\":7791:7853  function fetchAllBid() public returns (order[] memory) {... */\n      swap1\n      jump\t// out\n        /* \"contracts/OrderBook.sol\":7610:7785  function fetchAsk() public view returns (string memory) {... */\n    tag_58:\n        /* \"contracts/OrderBook.sol\":7651:7664  string memory */\n      0x60\n        /* \"contracts/OrderBook.sol\":7676:7691  uint256 current */\n      0x00\n        /* \"contracts/OrderBook.sol\":7694:7701  askHead */\n      sload(0x08)\n        /* \"contracts/OrderBook.sol\":7676:7701  uint256 current = askHead */\n      swap1\n      pop\n        /* \"contracts/OrderBook.sol\":7711:7731  string memory output */\n      0x00\n        /* \"contracts/OrderBook.sol\":7711:7736  string memory output = \"\" */\n      mload(0x40)\n      dup1\n      0x20\n      add\n      0x40\n      mstore\n      dup1\n      0x00\n      dup2\n      mstore\n      pop\n      swap1\n      pop\n        /* \"contracts/OrderBook.sol\":7746:7779  while (askHead != 0) {... */\n    tag_166:\n        /* \"contracts/OrderBook.sol\":7764:7765  0 */\n      0x00\n        /* \"contracts/OrderBook.sol\":7753:7760  askHead */\n      sload(0x08)\n        /* \"contracts/OrderBook.sol\":7753:7765  askHead != 0 */\n      sub\n        /* \"contracts/OrderBook.sol\":7746:7779  while (askHead != 0) {... */\n      tag_166\n      jumpi\n        /* \"contracts/OrderBook.sol\":7666:7785  {... */\n      pop\n      pop\n        /* \"contracts/OrderBook.sol\":7610:7785  function fetchAsk() public view returns (string memory) {... */\n      swap1\n      jump\t// out\n        /* \"contracts/OrderBook.sol\":8912:9014  function getAskState (uint256 id) public view returns(State) {... */\n    tag_63:\n        /* \"contracts/OrderBook.sol\":8966:8971  State */\n      0x00\n        /* \"contracts/OrderBook.sol\":8990:8997  askBook */\n      0x07\n        /* \"contracts/OrderBook.sol\":8990:9001  askBook[id] */\n      0x00\n        /* \"contracts/OrderBook.sol\":8998:9000  id */\n      dup4\n        /* \"contracts/OrderBook.sol\":8990:9001  askBook[id] */\n      dup2\n      mstore\n      0x20\n      add\n      swap1\n      dup2\n      mstore\n      0x20\n      add\n      0x00\n      keccak256\n        /* \"contracts/OrderBook.sol\":8990:9007  askBook[id].state */\n      0x03\n      add\n      0x00\n      swap1\n      sload\n      swap1\n      0x0100\n      exp\n      swap1\n      div\n      0xff\n      and\n        /* \"contracts/OrderBook.sol\":8983:9007  return askBook[id].state */\n      swap1\n      pop\n        /* \"contracts/OrderBook.sol\":8912:9014  function getAskState (uint256 id) public view returns(State) {... */\n      swap2\n      swap1\n      pop\n      jump\t// out\n        /* \"contracts/OrderBook.sol\":8338:8455  function getBidAddress (uint256 id) public view returns(address payable) {... */\n    tag_69:\n        /* \"contracts/OrderBook.sol\":8394:8409  address payable */\n      0x00\n        /* \"contracts/OrderBook.sol\":8428:8435  bidBook */\n      0x03\n        /* \"contracts/OrderBook.sol\":8428:8439  bidBook[id] */\n      0x00\n        /* \"contracts/OrderBook.sol\":8436:8438  id */\n      dup4\n        /* \"contracts/OrderBook.sol\":8428:8439  bidBook[id] */\n      dup2\n      mstore\n      0x20\n      add\n      swap1\n      dup2\n      mstore\n      0x20\n      add\n      0x00\n      keccak256\n        /* \"contracts/OrderBook.sol\":8428:8448  bidBook[id].customer */\n      0x00\n      add\n      0x00\n      swap1\n      sload\n      swap1\n      0x0100\n      exp\n      swap1\n      div\n      0xffffffffffffffffffffffffffffffffffffffff\n      and\n        /* \"contracts/OrderBook.sol\":8421:8448  return bidBook[id].customer */\n      swap1\n      pop\n        /* \"contracts/OrderBook.sol\":8338:8455  function getBidAddress (uint256 id) public view returns(address payable) {... */\n      swap2\n      swap1\n      pop\n      jump\t// out\n        /* \"contracts/OrderBook.sol\":1797:1819  uint256 public bidHead */\n    tag_74:\n      sload(0x04)\n      dup2\n      jump\t// out\n        /* \"contracts/OrderBook.sol\":8461:8578  function getAskAddress (uint256 id) public view returns(address payable) {... */\n    tag_79:\n        /* \"contracts/OrderBook.sol\":8517:8532  address payable */\n      0x00\n        /* \"contracts/OrderBook.sol\":8551:8558  askBook */\n      0x07\n        /* \"contracts/OrderBook.sol\":8551:8562  askBook[id] */\n      0x00\n        /* \"contracts/OrderBook.sol\":8559:8561  id */\n      dup4\n        /* \"contracts/OrderBook.sol\":8551:8562  askBook[id] */\n      dup2\n      mstore\n      0x20\n      add\n      swap1\n      dup2\n      mstore\n      0x20\n      add\n      0x00\n      keccak256\n        /* \"contracts/OrderBook.sol\":8551:8571  askBook[id].customer */\n      0x00\n      add\n      0x00\n      swap1\n      sload\n      swap1\n      0x0100\n      exp\n      swap1\n      div\n      0xffffffffffffffffffffffffffffffffffffffff\n      and\n        /* \"contracts/OrderBook.sol\":8544:8571  return askBook[id].customer */\n      swap1\n      pop\n        /* \"contracts/OrderBook.sol\":8461:8578  function getAskAddress (uint256 id) public view returns(address payable) {... */\n      swap2\n      swap1\n      pop\n      jump\t// out\n        /* \"contracts/OrderBook.sol\":6874:7278  function placeAsk (uint256 price) public payable {... */\n    tag_83:\n        /* \"contracts/OrderBook.sol\":6950:6951  0 */\n      0x00\n        /* \"contracts/OrderBook.sol\":6941:6946  price */\n      dup2\n        /* \"contracts/OrderBook.sol\":6941:6951  price >= 0 */\n      lt\n      iszero\n        /* \"contracts/OrderBook.sol\":6933:6987  require(price >= 0, \"price value must be more than 0\") */\n      tag_172\n      jumpi\n      mload(0x40)\n      0x08c379a000000000000000000000000000000000000000000000000000000000\n      dup2\n      mstore\n      0x04\n      add\n      tag_173\n      swap1\n      tag_174\n      jump\t// in\n    tag_173:\n      mload(0x40)\n      dup1\n      swap2\n      sub\n      swap1\n      revert\n    tag_172:\n        /* \"contracts/OrderBook.sol\":7018:7023  price */\n      dup1\n        /* \"contracts/OrderBook.sol\":7005:7014  msg.value */\n      callvalue\n        /* \"contracts/OrderBook.sol\":7005:7023  msg.value >= price */\n      lt\n      iszero\n        /* \"contracts/OrderBook.sol\":6997:7058  require(msg.value >= price, \"Not enough blance to place ask\") */\n      tag_175\n      jumpi\n      mload(0x40)\n      0x08c379a000000000000000000000000000000000000000000000000000000000\n      dup2\n      mstore\n      0x04\n      add\n      tag_176\n      swap1\n      tag_177\n      jump\t// in\n    tag_176:\n      mload(0x40)\n      dup1\n      swap2\n      sub\n      swap1\n      revert\n    tag_175:\n        /* \"contracts/OrderBook.sol\":7068:7080  uint256 time */\n      0x00\n        /* \"contracts/OrderBook.sol\":7083:7098  block.timestamp */\n      timestamp\n        /* \"contracts/OrderBook.sol\":7068:7098  uint256 time = block.timestamp */\n      swap1\n      pop\n        /* \"contracts/OrderBook.sol\":7108:7133  uint256 commissionedPrice */\n      0x00\n        /* \"contracts/OrderBook.sol\":7167:7170  100 */\n      0x64\n        /* \"contracts/OrderBook.sol\":7153:7163  commission */\n      sload(0x02)\n        /* \"contracts/OrderBook.sol\":7149:7152  100 */\n      0x64\n        /* \"contracts/OrderBook.sol\":7149:7163  100-commission */\n      tag_178\n      swap2\n      swap1\n      tag_179\n      jump\t// in\n    tag_178:\n        /* \"contracts/OrderBook.sol\":7136:7145  msg.value */\n      callvalue\n        /* \"contracts/OrderBook.sol\":7136:7164  msg.value * (100-commission) */\n      tag_180\n      swap2\n      swap1\n      tag_181\n      jump\t// in\n    tag_180:\n        /* \"contracts/OrderBook.sol\":7136:7170  msg.value * (100-commission) / 100 */\n      tag_182\n      swap2\n      swap1\n      tag_183\n      jump\t// in\n    tag_182:\n        /* \"contracts/OrderBook.sol\":7108:7170  uint256 commissionedPrice = msg.value * (100-commission) / 100 */\n      swap1\n      pop\n        /* \"contracts/OrderBook.sol\":7180:7199  order memory newAsk */\n      0x00\n        /* \"contracts/OrderBook.sol\":7202:7246  createAsk(msg.sender,time,commissionedPrice) */\n      tag_184\n        /* \"contracts/OrderBook.sol\":7212:7222  msg.sender */\n      caller\n        /* \"contracts/OrderBook.sol\":7223:7227  time */\n      dup5\n        /* \"contracts/OrderBook.sol\":7228:7245  commissionedPrice */\n      dup5\n        /* \"contracts/OrderBook.sol\":7202:7211  createAsk */\n      tag_185\n        /* \"contracts/OrderBook.sol\":7202:7246  createAsk(msg.sender,time,commissionedPrice) */\n      jump\t// in\n    tag_184:\n        /* \"contracts/OrderBook.sol\":7180:7246  order memory newAsk = createAsk(msg.sender,time,commissionedPrice) */\n      swap1\n      pop\n        /* \"contracts/OrderBook.sol\":7256:7271  sortAsk(newAsk) */\n      tag_186\n        /* \"contracts/OrderBook.sol\":7264:7270  newAsk */\n      dup2\n        /* \"contracts/OrderBook.sol\":7256:7263  sortAsk */\n      tag_187\n        /* \"contracts/OrderBook.sol\":7256:7271  sortAsk(newAsk) */\n      jump\t// in\n    tag_186:\n        /* \"contracts/OrderBook.sol\":6923:7278  {... */\n      pop\n      pop\n      pop\n        /* \"contracts/OrderBook.sol\":6874:7278  function placeAsk (uint256 price) public payable {... */\n      pop\n      jump\t// out\n        /* \"contracts/OrderBook.sol\":1825:1847  uint256 public bidTail */\n    tag_86:\n      sload(0x05)\n      dup2\n      jump\t// out\n        /* \"contracts/OrderBook.sol\":1970:1992  uint256 public askHead */\n    tag_90:\n      sload(0x08)\n      dup2\n      jump\t// out\n        /* \"contracts/OrderBook.sol\":6611:6868  function cancelBid (uint256 bidId) public isPending(bidBook[bidId]) isAuthorised(bidBook[bidId], msg.sender) {... */\n    tag_95:\n        /* \"contracts/OrderBook.sol\":6663:6670  bidBook */\n      0x03\n        /* \"contracts/OrderBook.sol\":6663:6677  bidBook[bidId] */\n      0x00\n        /* \"contracts/OrderBook.sol\":6671:6676  bidId */\n      dup3\n        /* \"contracts/OrderBook.sol\":6663:6677  bidBook[bidId] */\n      dup2\n      mstore\n      0x20\n      add\n      swap1\n      dup2\n      mstore\n      0x20\n      add\n      0x00\n      keccak256\n        /* \"contracts/OrderBook.sol\":2565:2688  modifier isPending(order memory _order) {... */\n      mload(0x40)\n      dup1\n      0xe0\n      add\n      0x40\n      mstore\n      swap1\n      dup2\n      0x00\n      dup3\n      add\n      0x00\n      swap1\n      sload\n      swap1\n      0x0100\n      exp\n      swap1\n      div\n      0xffffffffffffffffffffffffffffffffffffffff\n      and\n      0xffffffffffffffffffffffffffffffffffffffff\n      and\n      0xffffffffffffffffffffffffffffffffffffffff\n      and\n      dup2\n      mstore\n      0x20\n      add\n      0x01\n      dup3\n      add\n      sload\n      dup2\n      mstore\n      0x20\n      add\n      0x02\n      dup3\n      add\n      sload\n      dup2\n      mstore\n      0x20\n      add\n      0x03\n      dup3\n      add\n      0x00\n      swap1\n      sload\n      swap1\n      0x0100\n      exp\n      swap1\n      div\n      0xff\n      and\n      0x01\n      dup2\n      gt\n      iszero\n      tag_188\n      jumpi\n      tag_189\n      tag_140\n      jump\t// in\n    tag_189:\n    tag_188:\n      0x01\n      dup2\n      gt\n      iszero\n      tag_190\n      jumpi\n      tag_191\n      tag_140\n      jump\t// in\n    tag_191:\n    tag_190:\n      dup2\n      mstore\n      0x20\n      add\n      0x04\n      dup3\n      add\n      sload\n      dup2\n      mstore\n      0x20\n      add\n      0x05\n      dup3\n      add\n      sload\n      dup2\n      mstore\n      0x20\n      add\n      0x06\n      dup3\n      add\n      sload\n      dup2\n      mstore\n      pop\n      pop\n        /* \"contracts/OrderBook.sol\":2639:2652  State.pending */\n      0x00\n        /* \"contracts/OrderBook.sol\":2623:2652  _order.state == State.pending */\n      0x01\n      dup2\n      gt\n      iszero\n      tag_193\n      jumpi\n      tag_194\n      tag_140\n      jump\t// in\n    tag_194:\n    tag_193:\n        /* \"contracts/OrderBook.sol\":2623:2629  _order */\n      dup2\n        /* \"contracts/OrderBook.sol\":2623:2635  _order.state */\n      0x60\n      add\n      mload\n        /* \"contracts/OrderBook.sol\":2623:2652  _order.state == State.pending */\n      0x01\n      dup2\n      gt\n      iszero\n      tag_195\n      jumpi\n      tag_196\n      tag_140\n      jump\t// in\n    tag_196:\n    tag_195:\n      eq\n        /* \"contracts/OrderBook.sol\":2615:2670  require(_order.state == State.pending, \"Order Pending\") */\n      tag_197\n      jumpi\n      mload(0x40)\n      0x08c379a000000000000000000000000000000000000000000000000000000000\n      dup2\n      mstore\n      0x04\n      add\n      tag_198\n      swap1\n      tag_150\n      jump\t// in\n    tag_198:\n      mload(0x40)\n      dup1\n      swap2\n      sub\n      swap1\n      revert\n    tag_197:\n        /* \"contracts/OrderBook.sol\":6692:6699  bidBook */\n      0x03\n        /* \"contracts/OrderBook.sol\":6692:6706  bidBook[bidId] */\n      0x00\n        /* \"contracts/OrderBook.sol\":6700:6705  bidId */\n      dup4\n        /* \"contracts/OrderBook.sol\":6692:6706  bidBook[bidId] */\n      dup2\n      mstore\n      0x20\n      add\n      swap1\n      dup2\n      mstore\n      0x20\n      add\n      0x00\n      keccak256\n        /* \"contracts/OrderBook.sol\":2694:2833  modifier isAuthorised(order memory _order, address sender) {... */\n      mload(0x40)\n      dup1\n      0xe0\n      add\n      0x40\n      mstore\n      swap1\n      dup2\n      0x00\n      dup3\n      add\n      0x00\n      swap1\n      sload\n      swap1\n      0x0100\n      exp\n      swap1\n      div\n      0xffffffffffffffffffffffffffffffffffffffff\n      and\n      0xffffffffffffffffffffffffffffffffffffffff\n      and\n      0xffffffffffffffffffffffffffffffffffffffff\n      and\n      dup2\n      mstore\n      0x20\n      add\n      0x01\n      dup3\n      add\n      sload\n      dup2\n      mstore\n      0x20\n      add\n      0x02\n      dup3\n      add\n      sload\n      dup2\n      mstore\n      0x20\n      add\n      0x03\n      dup3\n      add\n      0x00\n      swap1\n      sload\n      swap1\n      0x0100\n      exp\n      swap1\n      div\n      0xff\n      and\n      0x01\n      dup2\n      gt\n      iszero\n      tag_199\n      jumpi\n      tag_200\n      tag_140\n      jump\t// in\n    tag_200:\n    tag_199:\n      0x01\n      dup2\n      gt\n      iszero\n      tag_201\n      jumpi\n      tag_202\n      tag_140\n      jump\t// in\n    tag_202:\n    tag_201:\n      dup2\n      mstore\n      0x20\n      add\n      0x04\n      dup3\n      add\n      sload\n      dup2\n      mstore\n      0x20\n      add\n      0x05\n      dup3\n      add\n      sload\n      dup2\n      mstore\n      0x20\n      add\n      0x06\n      dup3\n      add\n      sload\n      dup2\n      mstore\n      pop\n      pop\n        /* \"contracts/OrderBook.sol\":6708:6718  msg.sender */\n      caller\n        /* \"contracts/OrderBook.sol\":2790:2796  sender */\n      dup1\n        /* \"contracts/OrderBook.sol\":2771:2796  _order.customer == sender */\n      0xffffffffffffffffffffffffffffffffffffffff\n      and\n        /* \"contracts/OrderBook.sol\":2771:2777  _order */\n      dup3\n        /* \"contracts/OrderBook.sol\":2771:2786  _order.customer */\n      0x00\n      add\n      mload\n        /* \"contracts/OrderBook.sol\":2771:2796  _order.customer == sender */\n      0xffffffffffffffffffffffffffffffffffffffff\n      and\n      eq\n        /* \"contracts/OrderBook.sol\":2763:2815  require(_order.customer == sender, \"Not Authorised\") */\n      tag_204\n      jumpi\n      mload(0x40)\n      0x08c379a000000000000000000000000000000000000000000000000000000000\n      dup2\n      mstore\n      0x04\n      add\n      tag_205\n      swap1\n      tag_158\n      jump\t// in\n    tag_205:\n      mload(0x40)\n      dup1\n      swap2\n      sub\n      swap1\n      revert\n    tag_204:\n        /* \"contracts/OrderBook.sol\":2680:2681  _ */\n      pop\n      pop\n        /* \"contracts/OrderBook.sol\":6611:6868  function cancelBid (uint256 bidId) public isPending(bidBook[bidId]) isAuthorised(bidBook[bidId], msg.sender) {... */\n      pop\n      pop\n      jump\t// out\n        /* \"contracts/OrderBook.sol\":6036:6605  function placeBid (uint256 price) public payable {... */\n    tag_98:\n        /* \"contracts/OrderBook.sol\":6112:6113  0 */\n      0x00\n        /* \"contracts/OrderBook.sol\":6103:6108  price */\n      dup2\n        /* \"contracts/OrderBook.sol\":6103:6113  price >= 0 */\n      lt\n      iszero\n        /* \"contracts/OrderBook.sol\":6095:6149  require(price >= 0, \"price value must be more than 0\") */\n      tag_208\n      jumpi\n      mload(0x40)\n      0x08c379a000000000000000000000000000000000000000000000000000000000\n      dup2\n      mstore\n      0x04\n      add\n      tag_209\n      swap1\n      tag_174\n      jump\t// in\n    tag_209:\n      mload(0x40)\n      dup1\n      swap2\n      sub\n      swap1\n      revert\n    tag_208:\n        /* \"contracts/OrderBook.sol\":6180:6185  price */\n      dup1\n        /* \"contracts/OrderBook.sol\":6167:6176  msg.value */\n      callvalue\n        /* \"contracts/OrderBook.sol\":6167:6185  msg.value >= price */\n      lt\n      iszero\n        /* \"contracts/OrderBook.sol\":6159:6220  require(msg.value >= price, \"Not enough blance to place bid\") */\n      tag_210\n      jumpi\n      mload(0x40)\n      0x08c379a000000000000000000000000000000000000000000000000000000000\n      dup2\n      mstore\n      0x04\n      add\n      tag_211\n      swap1\n      tag_212\n      jump\t// in\n    tag_211:\n      mload(0x40)\n      dup1\n      swap2\n      sub\n      swap1\n      revert\n    tag_210:\n        /* \"contracts/OrderBook.sol\":6036:6605  function placeBid (uint256 price) public payable {... */\n      pop\n      jump\t// out\n        /* \"contracts/OrderBook.sol\":5762:5854  function convert(uint256 n) public pure returns (bytes32) {... */\n    tag_102:\n        /* \"contracts/OrderBook.sol\":5811:5818  bytes32 */\n      0x00\n        /* \"contracts/OrderBook.sol\":5845:5846  n */\n      dup2\n        /* \"contracts/OrderBook.sol\":5837:5847  bytes32(n) */\n      0x00\n      shl\n        /* \"contracts/OrderBook.sol\":5830:5847  return bytes32(n) */\n      swap1\n      pop\n        /* \"contracts/OrderBook.sol\":5762:5854  function convert(uint256 n) public pure returns (bytes32) {... */\n      swap2\n      swap1\n      pop\n      jump\t// out\n        /* \"contracts/OrderBook.sol\":2026:2049  uint256 public askCount */\n    tag_107:\n      sload(0x0a)\n      dup2\n      jump\t// out\n        /* \"contracts/OrderBook.sol\":1853:1876  uint256 public bidCount */\n    tag_111:\n      sload(0x06)\n      dup2\n      jump\t// out\n        /* \"contracts/OrderBook.sol\":8804:8906  function getBidState (uint256 id) public view returns(State) {... */\n    tag_116:\n        /* \"contracts/OrderBook.sol\":8858:8863  State */\n      0x00\n        /* \"contracts/OrderBook.sol\":8882:8889  bidBook */\n      0x03\n        /* \"contracts/OrderBook.sol\":8882:8893  bidBook[id] */\n      0x00\n        /* \"contracts/OrderBook.sol\":8890:8892  id */\n      dup4\n        /* \"contracts/OrderBook.sol\":8882:8893  bidBook[id] */\n      dup2\n      mstore\n      0x20\n      add\n      swap1\n      dup2\n      mstore\n      0x20\n      add\n      0x00\n      keccak256\n        /* \"contracts/OrderBook.sol\":8882:8899  bidBook[id].state */\n      0x03\n      add\n      0x00\n      swap1\n      sload\n      swap1\n      0x0100\n      exp\n      swap1\n      div\n      0xff\n      and\n        /* \"contracts/OrderBook.sol\":8875:8899  return bidBook[id].state */\n      swap1\n      pop\n        /* \"contracts/OrderBook.sol\":8804:8906  function getBidState (uint256 id) public view returns(State) {... */\n      swap2\n      swap1\n      pop\n      jump\t// out\n        /* \"contracts/OrderBook.sol\":7860:7928  function fetchYourBidIds() public returns (uint256[] memory) {... */\n    tag_120:\n        /* \"contracts/OrderBook.sol\":7903:7919  uint256[] memory */\n      0x60\n        /* \"contracts/OrderBook.sol\":7860:7928  function fetchYourBidIds() public returns (uint256[] memory) {... */\n      swap1\n      jump\t// out\n        /* \"contracts/OrderBook.sol\":8008:8332  function getOrder(uint256 id) public view returns(address payable,uint256,uint256,State,uint256,uint256,uint256,bool) {... */\n    tag_125:\n        /* \"contracts/OrderBook.sol\":8058:8073  address payable */\n      0x00\n        /* \"contracts/OrderBook.sol\":8074:8081  uint256 */\n      dup1\n        /* \"contracts/OrderBook.sol\":8082:8089  uint256 */\n      0x00\n        /* \"contracts/OrderBook.sol\":8090:8095  State */\n      dup1\n        /* \"contracts/OrderBook.sol\":8096:8103  uint256 */\n      0x00\n        /* \"contracts/OrderBook.sol\":8104:8111  uint256 */\n      dup1\n        /* \"contracts/OrderBook.sol\":8112:8119  uint256 */\n      0x00\n        /* \"contracts/OrderBook.sol\":8120:8124  bool */\n      dup1\n        /* \"contracts/OrderBook.sol\":8008:8332  function getOrder(uint256 id) public view returns(address payable,uint256,uint256,State,uint256,uint256,uint256,bool) {... */\n      swap2\n      swap4\n      swap6\n      swap8\n      pop\n      swap2\n      swap4\n      swap6\n      swap8\n      jump\t// out\n        /* \"contracts/OrderBook.sol\":8694:8798  function getAskValue (uint256 id) public view returns(uint256) {... */\n    tag_131:\n        /* \"contracts/OrderBook.sol\":8748:8755  uint256 */\n      0x00\n        /* \"contracts/OrderBook.sol\":8774:8781  askBook */\n      0x07\n        /* \"contracts/OrderBook.sol\":8774:8785  askBook[id] */\n      0x00\n        /* \"contracts/OrderBook.sol\":8782:8784  id */\n      dup4\n        /* \"contracts/OrderBook.sol\":8774:8785  askBook[id] */\n      dup2\n      mstore\n      0x20\n      add\n      swap1\n      dup2\n      mstore\n      0x20\n      add\n      0x00\n      keccak256\n        /* \"contracts/OrderBook.sol\":8774:8791  askBook[id].value */\n      0x01\n      add\n      sload\n        /* \"contracts/OrderBook.sol\":8767:8791  return askBook[id].value */\n      swap1\n      pop\n        /* \"contracts/OrderBook.sol\":8694:8798  function getAskValue (uint256 id) public view returns(uint256) {... */\n      swap2\n      swap1\n      pop\n      jump\t// out\n        /* \"contracts/OrderBook.sol\":1998:2020  uint256 public askTail */\n    tag_135:\n      sload(0x09)\n      dup2\n      jump\t// out\n        /* \"contracts/OrderBook.sol\":3350:3828  function createAsk(address customer, uint256 value, uint256 timestamp) internal returns (order memory) {... */\n    tag_185:\n        /* \"contracts/OrderBook.sol\":3439:3451  order memory */\n      tag_218\n      tag_219\n      jump\t// in\n    tag_218:\n        /* \"contracts/OrderBook.sol\":3463:3471  askCount */\n      0x0a\n      0x00\n        /* \"contracts/OrderBook.sol\":3463:3474  askCount ++ */\n      dup2\n      sload\n      dup1\n      swap3\n      swap2\n      swap1\n      tag_221\n      swap1\n      tag_222\n      jump\t// in\n    tag_221:\n      swap2\n      swap1\n      pop\n      sstore\n      pop\n        /* \"contracts/OrderBook.sol\":3484:3503  order memory newAsk */\n      0x00\n        /* \"contracts/OrderBook.sol\":3506:3673  order(... */\n      mload(0x40)\n      dup1\n      0xe0\n      add\n      0x40\n      mstore\n      dup1\n        /* \"contracts/OrderBook.sol\":3533:3541  customer */\n      dup7\n        /* \"contracts/OrderBook.sol\":3506:3673  order(... */\n      0xffffffffffffffffffffffffffffffffffffffff\n      and\n      dup2\n      mstore\n      0x20\n      add\n        /* \"contracts/OrderBook.sol\":3556:3561  value */\n      dup6\n        /* \"contracts/OrderBook.sol\":3506:3673  order(... */\n      dup2\n      mstore\n      0x20\n      add\n        /* \"contracts/OrderBook.sol\":3575:3584  timestamp */\n      dup5\n        /* \"contracts/OrderBook.sol\":3506:3673  order(... */\n      dup2\n      mstore\n      0x20\n      add\n        /* \"contracts/OrderBook.sol\":3598:3611  State.pending */\n      0x00\n        /* \"contracts/OrderBook.sol\":3506:3673  order(... */\n      0x01\n      dup2\n      gt\n      iszero\n      tag_223\n      jumpi\n      tag_224\n      tag_140\n      jump\t// in\n    tag_224:\n    tag_223:\n      dup2\n      mstore\n      0x20\n      add\n        /* \"contracts/OrderBook.sol\":3625:3633  askCount */\n      sload(0x0a)\n        /* \"contracts/OrderBook.sol\":3506:3673  order(... */\n      dup2\n      mstore\n      0x20\n      add\n        /* \"contracts/OrderBook.sol\":3647:3648  0 */\n      0x00\n        /* \"contracts/OrderBook.sol\":3506:3673  order(... */\n      dup2\n      mstore\n      0x20\n      add\n        /* \"contracts/OrderBook.sol\":3662:3663  0 */\n      0x00\n        /* \"contracts/OrderBook.sol\":3506:3673  order(... */\n      dup2\n      mstore\n      pop\n        /* \"contracts/OrderBook.sol\":3484:3673  order memory newAsk = order(... */\n      swap1\n      pop\n        /* \"contracts/OrderBook.sol\":3703:3709  newAsk */\n      dup1\n        /* \"contracts/OrderBook.sol\":3683:3690  askBook */\n      0x07\n        /* \"contracts/OrderBook.sol\":3683:3700  askBook[askCount] */\n      0x00\n        /* \"contracts/OrderBook.sol\":3691:3699  askCount */\n      sload(0x0a)\n        /* \"contracts/OrderBook.sol\":3683:3700  askBook[askCount] */\n      dup2\n      mstore\n      0x20\n      add\n      swap1\n      dup2\n      mstore\n      0x20\n      add\n      0x00\n      keccak256\n        /* \"contracts/OrderBook.sol\":3683:3709  askBook[askCount] = newAsk */\n      0x00\n      dup3\n      add\n      mload\n      dup2\n      0x00\n      add\n      exp(0x0100, 0x00)\n      dup2\n      sload\n      dup2\n      0xffffffffffffffffffffffffffffffffffffffff\n      mul\n      not\n      and\n      swap1\n      dup4\n      0xffffffffffffffffffffffffffffffffffffffff\n      and\n      mul\n      or\n      swap1\n      sstore\n      pop\n      0x20\n      dup3\n      add\n      mload\n      dup2\n      0x01\n      add\n      sstore\n      0x40\n      dup3\n      add\n      mload\n      dup2\n      0x02\n      add\n      sstore\n      0x60\n      dup3\n      add\n      mload\n      dup2\n      0x03\n      add\n      exp(0x0100, 0x00)\n      dup2\n      sload\n      dup2\n      0xff\n      mul\n      not\n      and\n      swap1\n      dup4\n      0x01\n      dup2\n      gt\n      iszero\n      tag_225\n      jumpi\n      tag_226\n      tag_140\n      jump\t// in\n    tag_226:\n    tag_225:\n      mul\n      or\n      swap1\n      sstore\n      pop\n      0x80\n      dup3\n      add\n      mload\n      dup2\n      0x04\n      add\n      sstore\n      0xa0\n      dup3\n      add\n      mload\n      dup2\n      0x05\n      add\n      sstore\n      0xc0\n      dup3\n      add\n      mload\n      dup2\n      0x06\n      add\n      sstore\n      swap1\n      pop\n      pop\n        /* \"contracts/OrderBook.sol\":3724:3795  orderCreated(customer,value,timestamp,State.pending,askCount,0,0,false) */\n      0x93caf6ba1af44020dfe6076e279533e38bd8deefe534c43aa8cc93aad2025b7d\n        /* \"contracts/OrderBook.sol\":3737:3745  customer */\n      dup6\n        /* \"contracts/OrderBook.sol\":3746:3751  value */\n      dup6\n        /* \"contracts/OrderBook.sol\":3752:3761  timestamp */\n      dup6\n        /* \"contracts/OrderBook.sol\":3762:3775  State.pending */\n      0x00\n        /* \"contracts/OrderBook.sol\":3776:3784  askCount */\n      sload(0x0a)\n        /* \"contracts/OrderBook.sol\":3785:3786  0 */\n      0x00\n        /* \"contracts/OrderBook.sol\":3787:3788  0 */\n      dup1\n        /* \"contracts/OrderBook.sol\":3789:3794  false */\n      0x00\n        /* \"contracts/OrderBook.sol\":3724:3795  orderCreated(customer,value,timestamp,State.pending,askCount,0,0,false) */\n      mload(0x40)\n      tag_227\n      swap9\n      swap8\n      swap7\n      swap6\n      swap5\n      swap4\n      swap3\n      swap2\n      swap1\n      tag_228\n      jump\t// in\n    tag_227:\n      mload(0x40)\n      dup1\n      swap2\n      sub\n      swap1\n      log1\n        /* \"contracts/OrderBook.sol\":3815:3821  newAsk */\n      dup1\n        /* \"contracts/OrderBook.sol\":3808:3821  return newAsk */\n      swap2\n      pop\n      pop\n        /* \"contracts/OrderBook.sol\":3350:3828  function createAsk(address customer, uint256 value, uint256 timestamp) internal returns (order memory) {... */\n      swap4\n      swap3\n      pop\n      pop\n      pop\n      jump\t// out\n        /* \"contracts/OrderBook.sol\":4613:5446  function sortAsk(order memory newOrder) internal {... */\n    tag_187:\n        /* \"contracts/OrderBook.sol\":4672:4687  uint256 current */\n      0x00\n        /* \"contracts/OrderBook.sol\":4712:4713  0 */\n      dup1\n        /* \"contracts/OrderBook.sol\":4701:4708  askHead */\n      sload(0x08)\n        /* \"contracts/OrderBook.sol\":4701:4713  askHead == 0 */\n      sub\n        /* \"contracts/OrderBook.sol\":4697:5440  if (askHead == 0) {... */\n      tag_230\n      jumpi\n        /* \"contracts/OrderBook.sol\":4739:4747  newOrder */\n      dup2\n        /* \"contracts/OrderBook.sol\":4739:4750  newOrder.id */\n      0x80\n      add\n      mload\n        /* \"contracts/OrderBook.sol\":4729:4736  askHead */\n      0x08\n        /* \"contracts/OrderBook.sol\":4729:4750  askHead = newOrder.id */\n      dup2\n      swap1\n      sstore\n      pop\n        /* \"contracts/OrderBook.sol\":4697:5440  if (askHead == 0) {... */\n      jump(tag_231)\n    tag_230:\n        /* \"contracts/OrderBook.sol\":4805:4813  newOrder */\n      dup2\n        /* \"contracts/OrderBook.sol\":4805:4819  newOrder.value */\n      0x20\n      add\n      mload\n        /* \"contracts/OrderBook.sol\":4779:4786  askBook */\n      0x07\n        /* \"contracts/OrderBook.sol\":4779:4795  askBook[askHead] */\n      0x00\n        /* \"contracts/OrderBook.sol\":4787:4794  askHead */\n      sload(0x08)\n        /* \"contracts/OrderBook.sol\":4779:4795  askBook[askHead] */\n      dup2\n      mstore\n      0x20\n      add\n      swap1\n      dup2\n      mstore\n      0x20\n      add\n      0x00\n      keccak256\n        /* \"contracts/OrderBook.sol\":4779:4801  askBook[askHead].value */\n      0x01\n      add\n      sload\n        /* \"contracts/OrderBook.sol\":4779:4819  askBook[askHead].value >= newOrder.value */\n      lt\n        /* \"contracts/OrderBook.sol\":4775:5440  if (askBook[askHead].value >= newOrder.value) {... */\n      tag_232\n      jumpi\n        /* \"contracts/OrderBook.sol\":4851:4858  askHead */\n      sload(0x08)\n        /* \"contracts/OrderBook.sol\":4835:4843  newOrder */\n      dup3\n        /* \"contracts/OrderBook.sol\":4835:4848  newOrder.next */\n      0xa0\n      add\n        /* \"contracts/OrderBook.sol\":4835:4858  newOrder.next = askHead */\n      dup2\n      dup2\n      mstore\n      pop\n      pop\n        /* \"contracts/OrderBook.sol\":4902:4910  newOrder */\n      dup2\n        /* \"contracts/OrderBook.sol\":4902:4913  newOrder.id */\n      0x80\n      add\n      mload\n        /* \"contracts/OrderBook.sol\":4872:4879  askBook */\n      0x07\n        /* \"contracts/OrderBook.sol\":4872:4894  askBook[newOrder.next] */\n      0x00\n        /* \"contracts/OrderBook.sol\":4880:4888  newOrder */\n      dup5\n        /* \"contracts/OrderBook.sol\":4880:4893  newOrder.next */\n      0xa0\n      add\n      mload\n        /* \"contracts/OrderBook.sol\":4872:4894  askBook[newOrder.next] */\n      dup2\n      mstore\n      0x20\n      add\n      swap1\n      dup2\n      mstore\n      0x20\n      add\n      0x00\n      keccak256\n        /* \"contracts/OrderBook.sol\":4872:4899  askBook[newOrder.next].prev */\n      0x06\n      add\n        /* \"contracts/OrderBook.sol\":4872:4913  askBook[newOrder.next].prev = newOrder.id */\n      dup2\n      swap1\n      sstore\n      pop\n        /* \"contracts/OrderBook.sol\":4937:4945  newOrder */\n      dup2\n        /* \"contracts/OrderBook.sol\":4937:4948  newOrder.id */\n      0x80\n      add\n      mload\n        /* \"contracts/OrderBook.sol\":4927:4934  askHead */\n      0x08\n        /* \"contracts/OrderBook.sol\":4927:4948  askHead = newOrder.id */\n      dup2\n      swap1\n      sstore\n      pop\n        /* \"contracts/OrderBook.sol\":4775:5440  if (askBook[askHead].value >= newOrder.value) {... */\n      jump(tag_233)\n    tag_232:\n        /* \"contracts/OrderBook.sol\":4997:5004  askHead */\n      sload(0x08)\n        /* \"contracts/OrderBook.sol\":4987:5004  current = askHead */\n      swap1\n      pop\n        /* \"contracts/OrderBook.sol\":5018:5174  while (askBook[current].next != 0 && askBook[askBook[current].next].value < newOrder.value) {... */\n    tag_234:\n        /* \"contracts/OrderBook.sol\":5050:5051  0 */\n      0x00\n        /* \"contracts/OrderBook.sol\":5025:5032  askBook */\n      0x07\n        /* \"contracts/OrderBook.sol\":5025:5041  askBook[current] */\n      0x00\n        /* \"contracts/OrderBook.sol\":5033:5040  current */\n      dup4\n        /* \"contracts/OrderBook.sol\":5025:5041  askBook[current] */\n      dup2\n      mstore\n      0x20\n      add\n      swap1\n      dup2\n      mstore\n      0x20\n      add\n      0x00\n      keccak256\n        /* \"contracts/OrderBook.sol\":5025:5046  askBook[current].next */\n      0x05\n      add\n      sload\n        /* \"contracts/OrderBook.sol\":5025:5051  askBook[current].next != 0 */\n      eq\n      iszero\n        /* \"contracts/OrderBook.sol\":5025:5108  askBook[current].next != 0 && askBook[askBook[current].next].value < newOrder.value */\n      dup1\n      iszero\n      tag_236\n      jumpi\n      pop\n        /* \"contracts/OrderBook.sol\":5094:5102  newOrder */\n      dup2\n        /* \"contracts/OrderBook.sol\":5094:5108  newOrder.value */\n      0x20\n      add\n      mload\n        /* \"contracts/OrderBook.sol\":5055:5062  askBook */\n      0x07\n        /* \"contracts/OrderBook.sol\":5055:5085  askBook[askBook[current].next] */\n      0x00\n        /* \"contracts/OrderBook.sol\":5063:5070  askBook */\n      0x07\n        /* \"contracts/OrderBook.sol\":5063:5079  askBook[current] */\n      0x00\n        /* \"contracts/OrderBook.sol\":5071:5078  current */\n      dup6\n        /* \"contracts/OrderBook.sol\":5063:5079  askBook[current] */\n      dup2\n      mstore\n      0x20\n      add\n      swap1\n      dup2\n      mstore\n      0x20\n      add\n      0x00\n      keccak256\n        /* \"contracts/OrderBook.sol\":5063:5084  askBook[current].next */\n      0x05\n      add\n      sload\n        /* \"contracts/OrderBook.sol\":5055:5085  askBook[askBook[current].next] */\n      dup2\n      mstore\n      0x20\n      add\n      swap1\n      dup2\n      mstore\n      0x20\n      add\n      0x00\n      keccak256\n        /* \"contracts/OrderBook.sol\":5055:5091  askBook[askBook[current].next].value */\n      0x01\n      add\n      sload\n        /* \"contracts/OrderBook.sol\":5055:5108  askBook[askBook[current].next].value < newOrder.value */\n      lt\n        /* \"contracts/OrderBook.sol\":5025:5108  askBook[current].next != 0 && askBook[askBook[current].next].value < newOrder.value */\n    tag_236:\n        /* \"contracts/OrderBook.sol\":5018:5174  while (askBook[current].next != 0 && askBook[askBook[current].next].value < newOrder.value) {... */\n      iszero\n      tag_235\n      jumpi\n        /* \"contracts/OrderBook.sol\":5138:5145  askBook */\n      0x07\n        /* \"contracts/OrderBook.sol\":5138:5154  askBook[current] */\n      0x00\n        /* \"contracts/OrderBook.sol\":5146:5153  current */\n      dup3\n        /* \"contracts/OrderBook.sol\":5138:5154  askBook[current] */\n      dup2\n      mstore\n      0x20\n      add\n      swap1\n      dup2\n      mstore\n      0x20\n      add\n      0x00\n      keccak256\n        /* \"contracts/OrderBook.sol\":5138:5159  askBook[current].next */\n      0x05\n      add\n      sload\n        /* \"contracts/OrderBook.sol\":5128:5159  current = askBook[current].next */\n      swap1\n      pop\n        /* \"contracts/OrderBook.sol\":5018:5174  while (askBook[current].next != 0 && askBook[askBook[current].next].value < newOrder.value) {... */\n      jump(tag_234)\n    tag_235:\n        /* \"contracts/OrderBook.sol\":5203:5210  askBook */\n      0x07\n        /* \"contracts/OrderBook.sol\":5203:5219  askBook[current] */\n      0x00\n        /* \"contracts/OrderBook.sol\":5211:5218  current */\n      dup3\n        /* \"contracts/OrderBook.sol\":5203:5219  askBook[current] */\n      dup2\n      mstore\n      0x20\n      add\n      swap1\n      dup2\n      mstore\n      0x20\n      add\n      0x00\n      keccak256\n        /* \"contracts/OrderBook.sol\":5203:5224  askBook[current].next */\n      0x05\n      add\n      sload\n        /* \"contracts/OrderBook.sol\":5187:5195  newOrder */\n      dup3\n        /* \"contracts/OrderBook.sol\":5187:5200  newOrder.next */\n      0xa0\n      add\n        /* \"contracts/OrderBook.sol\":5187:5224  newOrder.next = askBook[current].next */\n      dup2\n      dup2\n      mstore\n      pop\n      pop\n        /* \"contracts/OrderBook.sol\":5267:5268  0 */\n      0x00\n        /* \"contracts/OrderBook.sol\":5242:5249  askBook */\n      0x07\n        /* \"contracts/OrderBook.sol\":5242:5258  askBook[current] */\n      0x00\n        /* \"contracts/OrderBook.sol\":5250:5257  current */\n      dup4\n        /* \"contracts/OrderBook.sol\":5242:5258  askBook[current] */\n      dup2\n      mstore\n      0x20\n      add\n      swap1\n      dup2\n      mstore\n      0x20\n      add\n      0x00\n      keccak256\n        /* \"contracts/OrderBook.sol\":5242:5263  askBook[current].next */\n      0x05\n      add\n      sload\n        /* \"contracts/OrderBook.sol\":5242:5268  askBook[current].next != 0 */\n      eq\n        /* \"contracts/OrderBook.sol\":5238:5344  if (askBook[current].next != 0) {... */\n      tag_237\n      jumpi\n        /* \"contracts/OrderBook.sol\":5318:5326  newOrder */\n      dup2\n        /* \"contracts/OrderBook.sol\":5318:5329  newOrder.id */\n      0x80\n      add\n      mload\n        /* \"contracts/OrderBook.sol\":5288:5295  askBook */\n      0x07\n        /* \"contracts/OrderBook.sol\":5288:5310  askBook[newOrder.next] */\n      0x00\n        /* \"contracts/OrderBook.sol\":5296:5304  newOrder */\n      dup5\n        /* \"contracts/OrderBook.sol\":5296:5309  newOrder.next */\n      0xa0\n      add\n      mload\n        /* \"contracts/OrderBook.sol\":5288:5310  askBook[newOrder.next] */\n      dup2\n      mstore\n      0x20\n      add\n      swap1\n      dup2\n      mstore\n      0x20\n      add\n      0x00\n      keccak256\n        /* \"contracts/OrderBook.sol\":5288:5315  askBook[newOrder.next].prev */\n      0x06\n      add\n        /* \"contracts/OrderBook.sol\":5288:5329  askBook[newOrder.next].prev = newOrder.id */\n      dup2\n      swap1\n      sstore\n      pop\n        /* \"contracts/OrderBook.sol\":5238:5344  if (askBook[current].next != 0) {... */\n    tag_237:\n        /* \"contracts/OrderBook.sol\":5381:5389  newOrder */\n      dup2\n        /* \"contracts/OrderBook.sol\":5381:5392  newOrder.id */\n      0x80\n      add\n      mload\n        /* \"contracts/OrderBook.sol\":5357:5364  askBook */\n      0x07\n        /* \"contracts/OrderBook.sol\":5357:5373  askBook[current] */\n      0x00\n        /* \"contracts/OrderBook.sol\":5365:5372  current */\n      dup4\n        /* \"contracts/OrderBook.sol\":5357:5373  askBook[current] */\n      dup2\n      mstore\n      0x20\n      add\n      swap1\n      dup2\n      mstore\n      0x20\n      add\n      0x00\n      keccak256\n        /* \"contracts/OrderBook.sol\":5357:5378  askBook[current].next */\n      0x05\n      add\n        /* \"contracts/OrderBook.sol\":5357:5392  askBook[current].next = newOrder.id */\n      dup2\n      swap1\n      sstore\n      pop\n        /* \"contracts/OrderBook.sol\":5422:5429  current */\n      dup1\n        /* \"contracts/OrderBook.sol\":5406:5414  newOrder */\n      dup3\n        /* \"contracts/OrderBook.sol\":5406:5419  newOrder.prev */\n      0xc0\n      add\n        /* \"contracts/OrderBook.sol\":5406:5429  newOrder.prev = current */\n      dup2\n      dup2\n      mstore\n      pop\n      pop\n        /* \"contracts/OrderBook.sol\":4775:5440  if (askBook[askHead].value >= newOrder.value) {... */\n    tag_233:\n        /* \"contracts/OrderBook.sol\":4697:5440  if (askHead == 0) {... */\n    tag_231:\n        /* \"contracts/OrderBook.sol\":4662:5446  {... */\n      pop\n        /* \"contracts/OrderBook.sol\":4613:5446  function sortAsk(order memory newOrder) internal {... */\n      pop\n      jump\t// out\n    tag_219:\n      mload(0x40)\n      dup1\n      0xe0\n      add\n      0x40\n      mstore\n      dup1\n      and(0xffffffffffffffffffffffffffffffffffffffff, 0x00)\n      dup2\n      mstore\n      0x20\n      add\n      0x00\n      dup2\n      mstore\n      0x20\n      add\n      0x00\n      dup2\n      mstore\n      0x20\n      add\n      0x00\n      0x01\n      dup2\n      gt\n      iszero\n      tag_238\n      jumpi\n      tag_239\n      tag_140\n      jump\t// in\n    tag_239:\n    tag_238:\n      dup2\n      mstore\n      0x20\n      add\n      0x00\n      dup2\n      mstore\n      0x20\n      add\n      0x00\n      dup2\n      mstore\n      0x20\n      add\n      0x00\n      dup2\n      mstore\n      pop\n      swap1\n      jump\t// out\n        /* \"#utility.yul\":7:121   */\n    tag_240:\n        /* \"#utility.yul\":74:80   */\n      0x00\n        /* \"#utility.yul\":108:113   */\n      dup2\n        /* \"#utility.yul\":102:114   */\n      mload\n        /* \"#utility.yul\":92:114   */\n      swap1\n      pop\n        /* \"#utility.yul\":7:121   */\n      swap2\n      swap1\n      pop\n      jump\t// out\n        /* \"#utility.yul\":127:311   */\n    tag_241:\n        /* \"#utility.yul\":226:237   */\n      0x00\n        /* \"#utility.yul\":260:266   */\n      dup3\n        /* \"#utility.yul\":255:258   */\n      dup3\n        /* \"#utility.yul\":248:267   */\n      mstore\n        /* \"#utility.yul\":300:304   */\n      0x20\n        /* \"#utility.yul\":295:298   */\n      dup3\n        /* \"#utility.yul\":291:305   */\n      add\n        /* \"#utility.yul\":276:305   */\n      swap1\n      pop\n        /* \"#utility.yul\":127:311   */\n      swap3\n      swap2\n      pop\n      pop\n      jump\t// out\n        /* \"#utility.yul\":317:449   */\n    tag_242:\n        /* \"#utility.yul\":384:388   */\n      0x00\n        /* \"#utility.yul\":407:410   */\n      dup2\n        /* \"#utility.yul\":399:410   */\n      swap1\n      pop\n        /* \"#utility.yul\":437:441   */\n      0x20\n        /* \"#utility.yul\":432:435   */\n      dup3\n        /* \"#utility.yul\":428:442   */\n      add\n        /* \"#utility.yul\":420:442   */\n      swap1\n      pop\n        /* \"#utility.yul\":317:449   */\n      swap2\n      swap1\n      pop\n      jump\t// out\n        /* \"#utility.yul\":455:532   */\n    tag_243:\n        /* \"#utility.yul\":492:499   */\n      0x00\n        /* \"#utility.yul\":521:526   */\n      dup2\n        /* \"#utility.yul\":510:526   */\n      swap1\n      pop\n        /* \"#utility.yul\":455:532   */\n      swap2\n      swap1\n      pop\n      jump\t// out\n        /* \"#utility.yul\":538:646   */\n    tag_244:\n        /* \"#utility.yul\":615:639   */\n      tag_308\n        /* \"#utility.yul\":633:638   */\n      dup2\n        /* \"#utility.yul\":615:639   */\n      tag_243\n      jump\t// in\n    tag_308:\n        /* \"#utility.yul\":610:613   */\n      dup3\n        /* \"#utility.yul\":603:640   */\n      mstore\n        /* \"#utility.yul\":538:646   */\n      pop\n      pop\n      jump\t// out\n        /* \"#utility.yul\":652:831   */\n    tag_245:\n        /* \"#utility.yul\":721:731   */\n      0x00\n        /* \"#utility.yul\":742:788   */\n      tag_310\n        /* \"#utility.yul\":784:787   */\n      dup4\n        /* \"#utility.yul\":776:782   */\n      dup4\n        /* \"#utility.yul\":742:788   */\n      tag_244\n      jump\t// in\n    tag_310:\n        /* \"#utility.yul\":820:824   */\n      0x20\n        /* \"#utility.yul\":815:818   */\n      dup4\n        /* \"#utility.yul\":811:825   */\n      add\n        /* \"#utility.yul\":797:825   */\n      swap1\n      pop\n        /* \"#utility.yul\":652:831   */\n      swap3\n      swap2\n      pop\n      pop\n      jump\t// out\n        /* \"#utility.yul\":837:950   */\n    tag_246:\n        /* \"#utility.yul\":907:911   */\n      0x00\n        /* \"#utility.yul\":939:943   */\n      0x20\n        /* \"#utility.yul\":934:937   */\n      dup3\n        /* \"#utility.yul\":930:944   */\n      add\n        /* \"#utility.yul\":922:944   */\n      swap1\n      pop\n        /* \"#utility.yul\":837:950   */\n      swap2\n      swap1\n      pop\n      jump\t// out\n        /* \"#utility.yul\":986:1718   */\n    tag_247:\n        /* \"#utility.yul\":1105:1108   */\n      0x00\n        /* \"#utility.yul\":1134:1188   */\n      tag_313\n        /* \"#utility.yul\":1182:1187   */\n      dup3\n        /* \"#utility.yul\":1134:1188   */\n      tag_240\n      jump\t// in\n    tag_313:\n        /* \"#utility.yul\":1204:1290   */\n      tag_314\n        /* \"#utility.yul\":1283:1289   */\n      dup2\n        /* \"#utility.yul\":1278:1281   */\n      dup6\n        /* \"#utility.yul\":1204:1290   */\n      tag_241\n      jump\t// in\n    tag_314:\n        /* \"#utility.yul\":1197:1290   */\n      swap4\n      pop\n        /* \"#utility.yul\":1314:1370   */\n      tag_315\n        /* \"#utility.yul\":1364:1369   */\n      dup4\n        /* \"#utility.yul\":1314:1370   */\n      tag_242\n      jump\t// in\n    tag_315:\n        /* \"#utility.yul\":1393:1400   */\n      dup1\n        /* \"#utility.yul\":1424:1425   */\n      0x00\n        /* \"#utility.yul\":1409:1693   */\n    tag_316:\n        /* \"#utility.yul\":1434:1440   */\n      dup4\n        /* \"#utility.yul\":1431:1432   */\n      dup2\n        /* \"#utility.yul\":1428:1441   */\n      lt\n        /* \"#utility.yul\":1409:1693   */\n      iszero\n      tag_318\n      jumpi\n        /* \"#utility.yul\":1510:1516   */\n      dup2\n        /* \"#utility.yul\":1504:1517   */\n      mload\n        /* \"#utility.yul\":1537:1600   */\n      tag_319\n        /* \"#utility.yul\":1596:1599   */\n      dup9\n        /* \"#utility.yul\":1581:1594   */\n      dup3\n        /* \"#utility.yul\":1537:1600   */\n      tag_245\n      jump\t// in\n    tag_319:\n        /* \"#utility.yul\":1530:1600   */\n      swap8\n      pop\n        /* \"#utility.yul\":1623:1683   */\n      tag_320\n        /* \"#utility.yul\":1676:1682   */\n      dup4\n        /* \"#utility.yul\":1623:1683   */\n      tag_246\n      jump\t// in\n    tag_320:\n        /* \"#utility.yul\":1613:1683   */\n      swap3\n      pop\n        /* \"#utility.yul\":1469:1693   */\n      pop\n        /* \"#utility.yul\":1456:1457   */\n      0x01\n        /* \"#utility.yul\":1453:1454   */\n      dup2\n        /* \"#utility.yul\":1449:1458   */\n      add\n        /* \"#utility.yul\":1444:1458   */\n      swap1\n      pop\n        /* \"#utility.yul\":1409:1693   */\n      jump(tag_316)\n    tag_318:\n        /* \"#utility.yul\":1413:1427   */\n      pop\n        /* \"#utility.yul\":1709:1712   */\n      dup6\n        /* \"#utility.yul\":1702:1712   */\n      swap4\n      pop\n        /* \"#utility.yul\":1110:1718   */\n      pop\n      pop\n      pop\n        /* \"#utility.yul\":986:1718   */\n      swap3\n      swap2\n      pop\n      pop\n      jump\t// out\n        /* \"#utility.yul\":1724:2097   */\n    tag_32:\n        /* \"#utility.yul\":1867:1871   */\n      0x00\n        /* \"#utility.yul\":1905:1907   */\n      0x20\n        /* \"#utility.yul\":1894:1903   */\n      dup3\n        /* \"#utility.yul\":1890:1908   */\n      add\n        /* \"#utility.yul\":1882:1908   */\n      swap1\n      pop\n        /* \"#utility.yul\":1954:1963   */\n      dup2\n        /* \"#utility.yul\":1948:1952   */\n      dup2\n        /* \"#utility.yul\":1944:1964   */\n      sub\n        /* \"#utility.yul\":1940:1941   */\n      0x00\n        /* \"#utility.yul\":1929:1938   */\n      dup4\n        /* \"#utility.yul\":1925:1942   */\n      add\n        /* \"#utility.yul\":1918:1965   */\n      mstore\n        /* \"#utility.yul\":1982:2090   */\n      tag_322\n        /* \"#utility.yul\":2085:2089   */\n      dup2\n        /* \"#utility.yul\":2076:2082   */\n      dup5\n        /* \"#utility.yul\":1982:2090   */\n      tag_247\n      jump\t// in\n    tag_322:\n        /* \"#utility.yul\":1974:2090   */\n      swap1\n      pop\n        /* \"#utility.yul\":1724:2097   */\n      swap3\n      swap2\n      pop\n      pop\n      jump\t// out\n        /* \"#utility.yul\":2184:2301   */\n    tag_249:\n        /* \"#utility.yul\":2293:2294   */\n      0x00\n        /* \"#utility.yul\":2290:2291   */\n      dup1\n        /* \"#utility.yul\":2283:2295   */\n      revert\n        /* \"#utility.yul\":2430:2552   */\n    tag_251:\n        /* \"#utility.yul\":2503:2527   */\n      tag_327\n        /* \"#utility.yul\":2521:2526   */\n      dup2\n        /* \"#utility.yul\":2503:2527   */\n      tag_243\n      jump\t// in\n    tag_327:\n        /* \"#utility.yul\":2496:2501   */\n      dup2\n        /* \"#utility.yul\":2493:2528   */\n      eq\n        /* \"#utility.yul\":2483:2546   */\n      tag_328\n      jumpi\n        /* \"#utility.yul\":2542:2543   */\n      0x00\n        /* \"#utility.yul\":2539:2540   */\n      dup1\n        /* \"#utility.yul\":2532:2544   */\n      revert\n        /* \"#utility.yul\":2483:2546   */\n    tag_328:\n        /* \"#utility.yul\":2430:2552   */\n      pop\n      jump\t// out\n        /* \"#utility.yul\":2558:2697   */\n    tag_252:\n        /* \"#utility.yul\":2604:2609   */\n      0x00\n        /* \"#utility.yul\":2642:2648   */\n      dup2\n        /* \"#utility.yul\":2629:2649   */\n      calldataload\n        /* \"#utility.yul\":2620:2649   */\n      swap1\n      pop\n        /* \"#utility.yul\":2658:2691   */\n      tag_330\n        /* \"#utility.yul\":2685:2690   */\n      dup2\n        /* \"#utility.yul\":2658:2691   */\n      tag_251\n      jump\t// in\n    tag_330:\n        /* \"#utility.yul\":2558:2697   */\n      swap3\n      swap2\n      pop\n      pop\n      jump\t// out\n        /* \"#utility.yul\":2703:3032   */\n    tag_36:\n        /* \"#utility.yul\":2762:2768   */\n      0x00\n        /* \"#utility.yul\":2811:2813   */\n      0x20\n        /* \"#utility.yul\":2799:2808   */\n      dup3\n        /* \"#utility.yul\":2790:2797   */\n      dup5\n        /* \"#utility.yul\":2786:2809   */\n      sub\n        /* \"#utility.yul\":2782:2814   */\n      slt\n        /* \"#utility.yul\":2779:2898   */\n      iszero\n      tag_332\n      jumpi\n        /* \"#utility.yul\":2817:2896   */\n      tag_333\n      tag_249\n      jump\t// in\n    tag_333:\n        /* \"#utility.yul\":2779:2898   */\n    tag_332:\n        /* \"#utility.yul\":2937:2938   */\n      0x00\n        /* \"#utility.yul\":2962:3015   */\n      tag_334\n        /* \"#utility.yul\":3007:3014   */\n      dup5\n        /* \"#utility.yul\":2998:3004   */\n      dup3\n        /* \"#utility.yul\":2987:2996   */\n      dup6\n        /* \"#utility.yul\":2983:3005   */\n      add\n        /* \"#utility.yul\":2962:3015   */\n      tag_252\n      jump\t// in\n    tag_334:\n        /* \"#utility.yul\":2952:3015   */\n      swap2\n      pop\n        /* \"#utility.yul\":2908:3025   */\n      pop\n        /* \"#utility.yul\":2703:3032   */\n      swap3\n      swap2\n      pop\n      pop\n      jump\t// out\n        /* \"#utility.yul\":3038:3115   */\n    tag_253:\n        /* \"#utility.yul\":3075:3082   */\n      0x00\n        /* \"#utility.yul\":3104:3109   */\n      dup2\n        /* \"#utility.yul\":3093:3109   */\n      swap1\n      pop\n        /* \"#utility.yul\":3038:3115   */\n      swap2\n      swap1\n      pop\n      jump\t// out\n        /* \"#utility.yul\":3121:3243   */\n    tag_254:\n        /* \"#utility.yul\":3194:3218   */\n      tag_337\n        /* \"#utility.yul\":3212:3217   */\n      dup2\n        /* \"#utility.yul\":3194:3218   */\n      tag_253\n      jump\t// in\n    tag_337:\n        /* \"#utility.yul\":3187:3192   */\n      dup2\n        /* \"#utility.yul\":3184:3219   */\n      eq\n        /* \"#utility.yul\":3174:3237   */\n      tag_338\n      jumpi\n        /* \"#utility.yul\":3233:3234   */\n      0x00\n        /* \"#utility.yul\":3230:3231   */\n      dup1\n        /* \"#utility.yul\":3223:3235   */\n      revert\n        /* \"#utility.yul\":3174:3237   */\n    tag_338:\n        /* \"#utility.yul\":3121:3243   */\n      pop\n      jump\t// out\n        /* \"#utility.yul\":3249:3388   */\n    tag_255:\n        /* \"#utility.yul\":3295:3300   */\n      0x00\n        /* \"#utility.yul\":3333:3339   */\n      dup2\n        /* \"#utility.yul\":3320:3340   */\n      calldataload\n        /* \"#utility.yul\":3311:3340   */\n      swap1\n      pop\n        /* \"#utility.yul\":3349:3382   */\n      tag_340\n        /* \"#utility.yul\":3376:3381   */\n      dup2\n        /* \"#utility.yul\":3349:3382   */\n      tag_254\n      jump\t// in\n    tag_340:\n        /* \"#utility.yul\":3249:3388   */\n      swap3\n      swap2\n      pop\n      pop\n      jump\t// out\n        /* \"#utility.yul\":3394:3868   */\n    tag_41:\n        /* \"#utility.yul\":3462:3468   */\n      0x00\n        /* \"#utility.yul\":3470:3476   */\n      dup1\n        /* \"#utility.yul\":3519:3521   */\n      0x40\n        /* \"#utility.yul\":3507:3516   */\n      dup4\n        /* \"#utility.yul\":3498:3505   */\n      dup6\n        /* \"#utility.yul\":3494:3517   */\n      sub\n        /* \"#utility.yul\":3490:3522   */\n      slt\n        /* \"#utility.yul\":3487:3606   */\n      iszero\n      tag_342\n      jumpi\n        /* \"#utility.yul\":3525:3604   */\n      tag_343\n      tag_249\n      jump\t// in\n    tag_343:\n        /* \"#utility.yul\":3487:3606   */\n    tag_342:\n        /* \"#utility.yul\":3645:3646   */\n      0x00\n        /* \"#utility.yul\":3670:3723   */\n      tag_344\n        /* \"#utility.yul\":3715:3722   */\n      dup6\n        /* \"#utility.yul\":3706:3712   */\n      dup3\n        /* \"#utility.yul\":3695:3704   */\n      dup7\n        /* \"#utility.yul\":3691:3713   */\n      add\n        /* \"#utility.yul\":3670:3723   */\n      tag_255\n      jump\t// in\n    tag_344:\n        /* \"#utility.yul\":3660:3723   */\n      swap3\n      pop\n        /* \"#utility.yul\":3616:3733   */\n      pop\n        /* \"#utility.yul\":3772:3774   */\n      0x20\n        /* \"#utility.yul\":3798:3851   */\n      tag_345\n        /* \"#utility.yul\":3843:3850   */\n      dup6\n        /* \"#utility.yul\":3834:3840   */\n      dup3\n        /* \"#utility.yul\":3823:3832   */\n      dup7\n        /* \"#utility.yul\":3819:3841   */\n      add\n        /* \"#utility.yul\":3798:3851   */\n      tag_255\n      jump\t// in\n    tag_345:\n        /* \"#utility.yul\":3788:3851   */\n      swap2\n      pop\n        /* \"#utility.yul\":3743:3861   */\n      pop\n        /* \"#utility.yul\":3394:3868   */\n      swap3\n      pop\n      swap3\n      swap1\n      pop\n      jump\t// out\n        /* \"#utility.yul\":3874:3973   */\n    tag_256:\n        /* \"#utility.yul\":3926:3932   */\n      0x00\n        /* \"#utility.yul\":3960:3965   */\n      dup2\n        /* \"#utility.yul\":3954:3966   */\n      mload\n        /* \"#utility.yul\":3944:3966   */\n      swap1\n      pop\n        /* \"#utility.yul\":3874:3973   */\n      swap2\n      swap1\n      pop\n      jump\t// out\n        /* \"#utility.yul\":3979:4148   */\n    tag_257:\n        /* \"#utility.yul\":4063:4074   */\n      0x00\n        /* \"#utility.yul\":4097:4103   */\n      dup3\n        /* \"#utility.yul\":4092:4095   */\n      dup3\n        /* \"#utility.yul\":4085:4104   */\n      mstore\n        /* \"#utility.yul\":4137:4141   */\n      0x20\n        /* \"#utility.yul\":4132:4135   */\n      dup3\n        /* \"#utility.yul\":4128:4142   */\n      add\n        /* \"#utility.yul\":4113:4142   */\n      swap1\n      pop\n        /* \"#utility.yul\":3979:4148   */\n      swap3\n      swap2\n      pop\n      pop\n      jump\t// out\n        /* \"#utility.yul\":4154:4461   */\n    tag_258:\n        /* \"#utility.yul\":4222:4223   */\n      0x00\n        /* \"#utility.yul\":4232:4345   */\n    tag_349:\n        /* \"#utility.yul\":4246:4252   */\n      dup4\n        /* \"#utility.yul\":4243:4244   */\n      dup2\n        /* \"#utility.yul\":4240:4253   */\n      lt\n        /* \"#utility.yul\":4232:4345   */\n      iszero\n      tag_351\n      jumpi\n        /* \"#utility.yul\":4331:4332   */\n      dup1\n        /* \"#utility.yul\":4326:4329   */\n      dup3\n        /* \"#utility.yul\":4322:4333   */\n      add\n        /* \"#utility.yul\":4316:4334   */\n      mload\n        /* \"#utility.yul\":4312:4313   */\n      dup2\n        /* \"#utility.yul\":4307:4310   */\n      dup5\n        /* \"#utility.yul\":4303:4314   */\n      add\n        /* \"#utility.yul\":4296:4335   */\n      mstore\n        /* \"#utility.yul\":4268:4270   */\n      0x20\n        /* \"#utility.yul\":4265:4266   */\n      dup2\n        /* \"#utility.yul\":4261:4271   */\n      add\n        /* \"#utility.yul\":4256:4271   */\n      swap1\n      pop\n        /* \"#utility.yul\":4232:4345   */\n      jump(tag_349)\n    tag_351:\n        /* \"#utility.yul\":4363:4369   */\n      dup4\n        /* \"#utility.yul\":4360:4361   */\n      dup2\n        /* \"#utility.yul\":4357:4370   */\n      gt\n        /* \"#utility.yul\":4354:4455   */\n      iszero\n      tag_352\n      jumpi\n        /* \"#utility.yul\":4443:4444   */\n      0x00\n        /* \"#utility.yul\":4434:4440   */\n      dup5\n        /* \"#utility.yul\":4429:4432   */\n      dup5\n        /* \"#utility.yul\":4425:4441   */\n      add\n        /* \"#utility.yul\":4418:4445   */\n      mstore\n        /* \"#utility.yul\":4354:4455   */\n    tag_352:\n        /* \"#utility.yul\":4203:4461   */\n      pop\n        /* \"#utility.yul\":4154:4461   */\n      pop\n      pop\n      pop\n      jump\t// out\n        /* \"#utility.yul\":4467:4569   */\n    tag_259:\n        /* \"#utility.yul\":4508:4514   */\n      0x00\n        /* \"#utility.yul\":4559:4561   */\n      0x1f\n        /* \"#utility.yul\":4555:4562   */\n      not\n        /* \"#utility.yul\":4550:4552   */\n      0x1f\n        /* \"#utility.yul\":4543:4548   */\n      dup4\n        /* \"#utility.yul\":4539:4553   */\n      add\n        /* \"#utility.yul\":4535:4563   */\n      and\n        /* \"#utility.yul\":4525:4563   */\n      swap1\n      pop\n        /* \"#utility.yul\":4467:4569   */\n      swap2\n      swap1\n      pop\n      jump\t// out\n        /* \"#utility.yul\":4575:4939   */\n    tag_260:\n        /* \"#utility.yul\":4663:4666   */\n      0x00\n        /* \"#utility.yul\":4691:4730   */\n      tag_355\n        /* \"#utility.yul\":4724:4729   */\n      dup3\n        /* \"#utility.yul\":4691:4730   */\n      tag_256\n      jump\t// in\n    tag_355:\n        /* \"#utility.yul\":4746:4817   */\n      tag_356\n        /* \"#utility.yul\":4810:4816   */\n      dup2\n        /* \"#utility.yul\":4805:4808   */\n      dup6\n        /* \"#utility.yul\":4746:4817   */\n      tag_257\n      jump\t// in\n    tag_356:\n        /* \"#utility.yul\":4739:4817   */\n      swap4\n      pop\n        /* \"#utility.yul\":4826:4878   */\n      tag_357\n        /* \"#utility.yul\":4871:4877   */\n      dup2\n        /* \"#utility.yul\":4866:4869   */\n      dup6\n        /* \"#utility.yul\":4859:4863   */\n      0x20\n        /* \"#utility.yul\":4852:4857   */\n      dup7\n        /* \"#utility.yul\":4848:4864   */\n      add\n        /* \"#utility.yul\":4826:4878   */\n      tag_258\n      jump\t// in\n    tag_357:\n        /* \"#utility.yul\":4903:4932   */\n      tag_358\n        /* \"#utility.yul\":4925:4931   */\n      dup2\n        /* \"#utility.yul\":4903:4932   */\n      tag_259\n      jump\t// in\n    tag_358:\n        /* \"#utility.yul\":4898:4901   */\n      dup5\n        /* \"#utility.yul\":4894:4933   */\n      add\n        /* \"#utility.yul\":4887:4933   */\n      swap2\n      pop\n        /* \"#utility.yul\":4667:4939   */\n      pop\n        /* \"#utility.yul\":4575:4939   */\n      swap3\n      swap2\n      pop\n      pop\n      jump\t// out\n        /* \"#utility.yul\":4945:5258   */\n    tag_44:\n        /* \"#utility.yul\":5058:5062   */\n      0x00\n        /* \"#utility.yul\":5096:5098   */\n      0x20\n        /* \"#utility.yul\":5085:5094   */\n      dup3\n        /* \"#utility.yul\":5081:5099   */\n      add\n        /* \"#utility.yul\":5073:5099   */\n      swap1\n      pop\n        /* \"#utility.yul\":5145:5154   */\n      dup2\n        /* \"#utility.yul\":5139:5143   */\n      dup2\n        /* \"#utility.yul\":5135:5155   */\n      sub\n        /* \"#utility.yul\":5131:5132   */\n      0x00\n        /* \"#utility.yul\":5120:5129   */\n      dup4\n        /* \"#utility.yul\":5116:5133   */\n      add\n        /* \"#utility.yul\":5109:5156   */\n      mstore\n        /* \"#utility.yul\":5173:5251   */\n      tag_360\n        /* \"#utility.yul\":5246:5250   */\n      dup2\n        /* \"#utility.yul\":5237:5243   */\n      dup5\n        /* \"#utility.yul\":5173:5251   */\n      tag_260\n      jump\t// in\n    tag_360:\n        /* \"#utility.yul\":5165:5251   */\n      swap1\n      pop\n        /* \"#utility.yul\":4945:5258   */\n      swap3\n      swap2\n      pop\n      pop\n      jump\t// out\n        /* \"#utility.yul\":5264:5382   */\n    tag_261:\n        /* \"#utility.yul\":5351:5375   */\n      tag_362\n        /* \"#utility.yul\":5369:5374   */\n      dup2\n        /* \"#utility.yul\":5351:5375   */\n      tag_243\n      jump\t// in\n    tag_362:\n        /* \"#utility.yul\":5346:5349   */\n      dup3\n        /* \"#utility.yul\":5339:5376   */\n      mstore\n        /* \"#utility.yul\":5264:5382   */\n      pop\n      pop\n      jump\t// out\n        /* \"#utility.yul\":5388:5610   */\n    tag_50:\n        /* \"#utility.yul\":5481:5485   */\n      0x00\n        /* \"#utility.yul\":5519:5521   */\n      0x20\n        /* \"#utility.yul\":5508:5517   */\n      dup3\n        /* \"#utility.yul\":5504:5522   */\n      add\n        /* \"#utility.yul\":5496:5522   */\n      swap1\n      pop\n        /* \"#utility.yul\":5532:5603   */\n      tag_364\n        /* \"#utility.yul\":5600:5601   */\n      0x00\n        /* \"#utility.yul\":5589:5598   */\n      dup4\n        /* \"#utility.yul\":5585:5602   */\n      add\n        /* \"#utility.yul\":5576:5582   */\n      dup5\n        /* \"#utility.yul\":5532:5603   */\n      tag_261\n      jump\t// in\n    tag_364:\n        /* \"#utility.yul\":5388:5610   */\n      swap3\n      swap2\n      pop\n      pop\n      jump\t// out\n        /* \"#utility.yul\":5616:5751   */\n    tag_262:\n        /* \"#utility.yul\":5704:5710   */\n      0x00\n        /* \"#utility.yul\":5738:5743   */\n      dup2\n        /* \"#utility.yul\":5732:5744   */\n      mload\n        /* \"#utility.yul\":5722:5744   */\n      swap1\n      pop\n        /* \"#utility.yul\":5616:5751   */\n      swap2\n      swap1\n      pop\n      jump\t// out\n        /* \"#utility.yul\":5757:5962   */\n    tag_263:\n        /* \"#utility.yul\":5877:5888   */\n      0x00\n        /* \"#utility.yul\":5911:5917   */\n      dup3\n        /* \"#utility.yul\":5906:5909   */\n      dup3\n        /* \"#utility.yul\":5899:5918   */\n      mstore\n        /* \"#utility.yul\":5951:5955   */\n      0x20\n        /* \"#utility.yul\":5946:5949   */\n      dup3\n        /* \"#utility.yul\":5942:5956   */\n      add\n        /* \"#utility.yul\":5927:5956   */\n      swap1\n      pop\n        /* \"#utility.yul\":5757:5962   */\n      swap3\n      swap2\n      pop\n      pop\n      jump\t// out\n        /* \"#utility.yul\":5968:6121   */\n    tag_264:\n        /* \"#utility.yul\":6056:6060   */\n      0x00\n        /* \"#utility.yul\":6079:6082   */\n      dup2\n        /* \"#utility.yul\":6071:6082   */\n      swap1\n      pop\n        /* \"#utility.yul\":6109:6113   */\n      0x20\n        /* \"#utility.yul\":6104:6107   */\n      dup3\n        /* \"#utility.yul\":6100:6114   */\n      add\n        /* \"#utility.yul\":6092:6114   */\n      swap1\n      pop\n        /* \"#utility.yul\":5968:6121   */\n      swap2\n      swap1\n      pop\n      jump\t// out\n        /* \"#utility.yul\":6127:6253   */\n    tag_265:\n        /* \"#utility.yul\":6164:6171   */\n      0x00\n        /* \"#utility.yul\":6204:6246   */\n      0xffffffffffffffffffffffffffffffffffffffff\n        /* \"#utility.yul\":6197:6202   */\n      dup3\n        /* \"#utility.yul\":6193:6247   */\n      and\n        /* \"#utility.yul\":6182:6247   */\n      swap1\n      pop\n        /* \"#utility.yul\":6127:6253   */\n      swap2\n      swap1\n      pop\n      jump\t// out\n        /* \"#utility.yul\":6259:6363   */\n    tag_266:\n        /* \"#utility.yul\":6304:6311   */\n      0x00\n        /* \"#utility.yul\":6333:6357   */\n      tag_370\n        /* \"#utility.yul\":6351:6356   */\n      dup3\n        /* \"#utility.yul\":6333:6357   */\n      tag_265\n      jump\t// in\n    tag_370:\n        /* \"#utility.yul\":6322:6357   */\n      swap1\n      pop\n        /* \"#utility.yul\":6259:6363   */\n      swap2\n      swap1\n      pop\n      jump\t// out\n        /* \"#utility.yul\":6369:6501   */\n    tag_267:\n        /* \"#utility.yul\":6462:6494   */\n      tag_372\n        /* \"#utility.yul\":6488:6493   */\n      dup2\n        /* \"#utility.yul\":6462:6494   */\n      tag_266\n      jump\t// in\n    tag_372:\n        /* \"#utility.yul\":6457:6460   */\n      dup3\n        /* \"#utility.yul\":6450:6495   */\n      mstore\n        /* \"#utility.yul\":6369:6501   */\n      pop\n      pop\n      jump\t// out\n        /* \"#utility.yul\":6507:6687   */\n    tag_140:\n        /* \"#utility.yul\":6555:6632   */\n      0x4e487b7100000000000000000000000000000000000000000000000000000000\n        /* \"#utility.yul\":6552:6553   */\n      0x00\n        /* \"#utility.yul\":6545:6633   */\n      mstore\n        /* \"#utility.yul\":6652:6656   */\n      0x21\n        /* \"#utility.yul\":6649:6650   */\n      0x04\n        /* \"#utility.yul\":6642:6657   */\n      mstore\n        /* \"#utility.yul\":6676:6680   */\n      0x24\n        /* \"#utility.yul\":6673:6674   */\n      0x00\n        /* \"#utility.yul\":6666:6681   */\n      revert\n        /* \"#utility.yul\":6693:6805   */\n    tag_268:\n        /* \"#utility.yul\":6773:6774   */\n      0x02\n        /* \"#utility.yul\":6766:6771   */\n      dup2\n        /* \"#utility.yul\":6763:6775   */\n      lt\n        /* \"#utility.yul\":6753:6799   */\n      tag_375\n      jumpi\n        /* \"#utility.yul\":6779:6797   */\n      tag_376\n      tag_140\n      jump\t// in\n    tag_376:\n        /* \"#utility.yul\":6753:6799   */\n    tag_375:\n        /* \"#utility.yul\":6693:6805   */\n      pop\n      jump\t// out\n        /* \"#utility.yul\":6811:6936   */\n    tag_269:\n        /* \"#utility.yul\":6855:6862   */\n      0x00\n        /* \"#utility.yul\":6884:6889   */\n      dup2\n        /* \"#utility.yul\":6873:6889   */\n      swap1\n      pop\n        /* \"#utility.yul\":6890:6930   */\n      tag_378\n        /* \"#utility.yul\":6924:6929   */\n      dup3\n        /* \"#utility.yul\":6890:6930   */\n      tag_268\n      jump\t// in\n    tag_378:\n        /* \"#utility.yul\":6811:6936   */\n      swap2\n      swap1\n      pop\n      jump\t// out\n        /* \"#utility.yul\":6942:7067   */\n    tag_270:\n        /* \"#utility.yul\":6997:7006   */\n      0x00\n        /* \"#utility.yul\":7030:7061   */\n      tag_380\n        /* \"#utility.yul\":7055:7060   */\n      dup3\n        /* \"#utility.yul\":7030:7061   */\n      tag_269\n      jump\t// in\n    tag_380:\n        /* \"#utility.yul\":7017:7061   */\n      swap1\n      pop\n        /* \"#utility.yul\":6942:7067   */\n      swap2\n      swap1\n      pop\n      jump\t// out\n        /* \"#utility.yul\":7073:7204   */\n    tag_271:\n        /* \"#utility.yul\":7155:7197   */\n      tag_382\n        /* \"#utility.yul\":7191:7196   */\n      dup2\n        /* \"#utility.yul\":7155:7197   */\n      tag_270\n      jump\t// in\n    tag_382:\n        /* \"#utility.yul\":7150:7153   */\n      dup3\n        /* \"#utility.yul\":7143:7198   */\n      mstore\n        /* \"#utility.yul\":7073:7204   */\n      pop\n      pop\n      jump\t// out\n        /* \"#utility.yul\":7266:8655   */\n    tag_272:\n        /* \"#utility.yul\":7395:7399   */\n      0xe0\n        /* \"#utility.yul\":7390:7393   */\n      dup3\n        /* \"#utility.yul\":7386:7400   */\n      add\n        /* \"#utility.yul\":7486:7490   */\n      0x00\n        /* \"#utility.yul\":7479:7484   */\n      dup3\n        /* \"#utility.yul\":7475:7491   */\n      add\n        /* \"#utility.yul\":7469:7492   */\n      mload\n        /* \"#utility.yul\":7505:7584   */\n      tag_384\n        /* \"#utility.yul\":7578:7582   */\n      0x00\n        /* \"#utility.yul\":7573:7576   */\n      dup6\n        /* \"#utility.yul\":7569:7583   */\n      add\n        /* \"#utility.yul\":7555:7567   */\n      dup3\n        /* \"#utility.yul\":7505:7584   */\n      tag_267\n      jump\t// in\n    tag_384:\n        /* \"#utility.yul\":7410:7594   */\n      pop\n        /* \"#utility.yul\":7677:7681   */\n      0x20\n        /* \"#utility.yul\":7670:7675   */\n      dup3\n        /* \"#utility.yul\":7666:7682   */\n      add\n        /* \"#utility.yul\":7660:7683   */\n      mload\n        /* \"#utility.yul\":7696:7759   */\n      tag_385\n        /* \"#utility.yul\":7753:7757   */\n      0x20\n        /* \"#utility.yul\":7748:7751   */\n      dup6\n        /* \"#utility.yul\":7744:7758   */\n      add\n        /* \"#utility.yul\":7730:7742   */\n      dup3\n        /* \"#utility.yul\":7696:7759   */\n      tag_244\n      jump\t// in\n    tag_385:\n        /* \"#utility.yul\":7604:7769   */\n      pop\n        /* \"#utility.yul\":7856:7860   */\n      0x40\n        /* \"#utility.yul\":7849:7854   */\n      dup3\n        /* \"#utility.yul\":7845:7861   */\n      add\n        /* \"#utility.yul\":7839:7862   */\n      mload\n        /* \"#utility.yul\":7875:7938   */\n      tag_386\n        /* \"#utility.yul\":7932:7936   */\n      0x40\n        /* \"#utility.yul\":7927:7930   */\n      dup6\n        /* \"#utility.yul\":7923:7937   */\n      add\n        /* \"#utility.yul\":7909:7921   */\n      dup3\n        /* \"#utility.yul\":7875:7938   */\n      tag_244\n      jump\t// in\n    tag_386:\n        /* \"#utility.yul\":7779:7948   */\n      pop\n        /* \"#utility.yul\":8031:8035   */\n      0x60\n        /* \"#utility.yul\":8024:8029   */\n      dup3\n        /* \"#utility.yul\":8020:8036   */\n      add\n        /* \"#utility.yul\":8014:8037   */\n      mload\n        /* \"#utility.yul\":8050:8118   */\n      tag_387\n        /* \"#utility.yul\":8112:8116   */\n      0x60\n        /* \"#utility.yul\":8107:8110   */\n      dup6\n        /* \"#utility.yul\":8103:8117   */\n      add\n        /* \"#utility.yul\":8089:8101   */\n      dup3\n        /* \"#utility.yul\":8050:8118   */\n      tag_271\n      jump\t// in\n    tag_387:\n        /* \"#utility.yul\":7958:8128   */\n      pop\n        /* \"#utility.yul\":8208:8212   */\n      0x80\n        /* \"#utility.yul\":8201:8206   */\n      dup3\n        /* \"#utility.yul\":8197:8213   */\n      add\n        /* \"#utility.yul\":8191:8214   */\n      mload\n        /* \"#utility.yul\":8227:8290   */\n      tag_388\n        /* \"#utility.yul\":8284:8288   */\n      0x80\n        /* \"#utility.yul\":8279:8282   */\n      dup6\n        /* \"#utility.yul\":8275:8289   */\n      add\n        /* \"#utility.yul\":8261:8273   */\n      dup3\n        /* \"#utility.yul\":8227:8290   */\n      tag_244\n      jump\t// in\n    tag_388:\n        /* \"#utility.yul\":8138:8300   */\n      pop\n        /* \"#utility.yul\":8382:8386   */\n      0xa0\n        /* \"#utility.yul\":8375:8380   */\n      dup3\n        /* \"#utility.yul\":8371:8387   */\n      add\n        /* \"#utility.yul\":8365:8388   */\n      mload\n        /* \"#utility.yul\":8401:8464   */\n      tag_389\n        /* \"#utility.yul\":8458:8462   */\n      0xa0\n        /* \"#utility.yul\":8453:8456   */\n      dup6\n        /* \"#utility.yul\":8449:8463   */\n      add\n        /* \"#utility.yul\":8435:8447   */\n      dup3\n        /* \"#utility.yul\":8401:8464   */\n      tag_244\n      jump\t// in\n    tag_389:\n        /* \"#utility.yul\":8310:8474   */\n      pop\n        /* \"#utility.yul\":8556:8560   */\n      0xc0\n        /* \"#utility.yul\":8549:8554   */\n      dup3\n        /* \"#utility.yul\":8545:8561   */\n      add\n        /* \"#utility.yul\":8539:8562   */\n      mload\n        /* \"#utility.yul\":8575:8638   */\n      tag_390\n        /* \"#utility.yul\":8632:8636   */\n      0xc0\n        /* \"#utility.yul\":8627:8630   */\n      dup6\n        /* \"#utility.yul\":8623:8637   */\n      add\n        /* \"#utility.yul\":8609:8621   */\n      dup3\n        /* \"#utility.yul\":8575:8638   */\n      tag_244\n      jump\t// in\n    tag_390:\n        /* \"#utility.yul\":8484:8648   */\n      pop\n        /* \"#utility.yul\":7364:8655   */\n      pop\n        /* \"#utility.yul\":7266:8655   */\n      pop\n      pop\n      jump\t// out\n        /* \"#utility.yul\":8661:8924   */\n    tag_273:\n        /* \"#utility.yul\":8772:8782   */\n      0x00\n        /* \"#utility.yul\":8793:8881   */\n      tag_392\n        /* \"#utility.yul\":8877:8880   */\n      dup4\n        /* \"#utility.yul\":8869:8875   */\n      dup4\n        /* \"#utility.yul\":8793:8881   */\n      tag_272\n      jump\t// in\n    tag_392:\n        /* \"#utility.yul\":8913:8917   */\n      0xe0\n        /* \"#utility.yul\":8908:8911   */\n      dup4\n        /* \"#utility.yul\":8904:8918   */\n      add\n        /* \"#utility.yul\":8890:8918   */\n      swap1\n      pop\n        /* \"#utility.yul\":8661:8924   */\n      swap3\n      swap2\n      pop\n      pop\n      jump\t// out\n        /* \"#utility.yul\":8930:9064   */\n    tag_274:\n        /* \"#utility.yul\":9021:9025   */\n      0x00\n        /* \"#utility.yul\":9053:9057   */\n      0x20\n        /* \"#utility.yul\":9048:9051   */\n      dup3\n        /* \"#utility.yul\":9044:9058   */\n      add\n        /* \"#utility.yul\":9036:9058   */\n      swap1\n      pop\n        /* \"#utility.yul\":8930:9064   */\n      swap2\n      swap1\n      pop\n      jump\t// out\n        /* \"#utility.yul\":9130:10030   */\n    tag_275:\n        /* \"#utility.yul\":9291:9294   */\n      0x00\n        /* \"#utility.yul\":9320:9395   */\n      tag_395\n        /* \"#utility.yul\":9389:9394   */\n      dup3\n        /* \"#utility.yul\":9320:9395   */\n      tag_262\n      jump\t// in\n    tag_395:\n        /* \"#utility.yul\":9411:9518   */\n      tag_396\n        /* \"#utility.yul\":9511:9517   */\n      dup2\n        /* \"#utility.yul\":9506:9509   */\n      dup6\n        /* \"#utility.yul\":9411:9518   */\n      tag_263\n      jump\t// in\n    tag_396:\n        /* \"#utility.yul\":9404:9518   */\n      swap4\n      pop\n        /* \"#utility.yul\":9542:9619   */\n      tag_397\n        /* \"#utility.yul\":9613:9618   */\n      dup4\n        /* \"#utility.yul\":9542:9619   */\n      tag_264\n      jump\t// in\n    tag_397:\n        /* \"#utility.yul\":9642:9649   */\n      dup1\n        /* \"#utility.yul\":9673:9674   */\n      0x00\n        /* \"#utility.yul\":9658:10005   */\n    tag_398:\n        /* \"#utility.yul\":9683:9689   */\n      dup4\n        /* \"#utility.yul\":9680:9681   */\n      dup2\n        /* \"#utility.yul\":9677:9690   */\n      lt\n        /* \"#utility.yul\":9658:10005   */\n      iszero\n      tag_400\n      jumpi\n        /* \"#utility.yul\":9759:9765   */\n      dup2\n        /* \"#utility.yul\":9753:9766   */\n      mload\n        /* \"#utility.yul\":9786:9891   */\n      tag_401\n        /* \"#utility.yul\":9887:9890   */\n      dup9\n        /* \"#utility.yul\":9872:9885   */\n      dup3\n        /* \"#utility.yul\":9786:9891   */\n      tag_273\n      jump\t// in\n    tag_401:\n        /* \"#utility.yul\":9779:9891   */\n      swap8\n      pop\n        /* \"#utility.yul\":9914:9995   */\n      tag_402\n        /* \"#utility.yul\":9988:9994   */\n      dup4\n        /* \"#utility.yul\":9914:9995   */\n      tag_274\n      jump\t// in\n    tag_402:\n        /* \"#utility.yul\":9904:9995   */\n      swap3\n      pop\n        /* \"#utility.yul\":9718:10005   */\n      pop\n        /* \"#utility.yul\":9705:9706   */\n      0x01\n        /* \"#utility.yul\":9702:9703   */\n      dup2\n        /* \"#utility.yul\":9698:9707   */\n      add\n        /* \"#utility.yul\":9693:9707   */\n      swap1\n      pop\n        /* \"#utility.yul\":9658:10005   */\n      jump(tag_398)\n    tag_400:\n        /* \"#utility.yul\":9662:9676   */\n      pop\n        /* \"#utility.yul\":10021:10024   */\n      dup6\n        /* \"#utility.yul\":10014:10024   */\n      swap4\n      pop\n        /* \"#utility.yul\":9296:10030   */\n      pop\n      pop\n      pop\n        /* \"#utility.yul\":9130:10030   */\n      swap3\n      swap2\n      pop\n      pop\n      jump\t// out\n        /* \"#utility.yul\":10036:10493   */\n    tag_55:\n        /* \"#utility.yul\":10221:10225   */\n      0x00\n        /* \"#utility.yul\":10259:10261   */\n      0x20\n        /* \"#utility.yul\":10248:10257   */\n      dup3\n        /* \"#utility.yul\":10244:10262   */\n      add\n        /* \"#utility.yul\":10236:10262   */\n      swap1\n      pop\n        /* \"#utility.yul\":10308:10317   */\n      dup2\n        /* \"#utility.yul\":10302:10306   */\n      dup2\n        /* \"#utility.yul\":10298:10318   */\n      sub\n        /* \"#utility.yul\":10294:10295   */\n      0x00\n        /* \"#utility.yul\":10283:10292   */\n      dup4\n        /* \"#utility.yul\":10279:10296   */\n      add\n        /* \"#utility.yul\":10272:10319   */\n      mstore\n        /* \"#utility.yul\":10336:10486   */\n      tag_404\n        /* \"#utility.yul\":10481:10485   */\n      dup2\n        /* \"#utility.yul\":10472:10478   */\n      dup5\n        /* \"#utility.yul\":10336:10486   */\n      tag_275\n      jump\t// in\n    tag_404:\n        /* \"#utility.yul\":10328:10486   */\n      swap1\n      pop\n        /* \"#utility.yul\":10036:10493   */\n      swap3\n      swap2\n      pop\n      pop\n      jump\t// out\n        /* \"#utility.yul\":10499:10640   */\n    tag_276:\n        /* \"#utility.yul\":10591:10633   */\n      tag_406\n        /* \"#utility.yul\":10627:10632   */\n      dup2\n        /* \"#utility.yul\":10591:10633   */\n      tag_270\n      jump\t// in\n    tag_406:\n        /* \"#utility.yul\":10586:10589   */\n      dup3\n        /* \"#utility.yul\":10579:10634   */\n      mstore\n        /* \"#utility.yul\":10499:10640   */\n      pop\n      pop\n      jump\t// out\n        /* \"#utility.yul\":10646:10878   */\n    tag_65:\n        /* \"#utility.yul\":10744:10748   */\n      0x00\n        /* \"#utility.yul\":10782:10784   */\n      0x20\n        /* \"#utility.yul\":10771:10780   */\n      dup3\n        /* \"#utility.yul\":10767:10785   */\n      add\n        /* \"#utility.yul\":10759:10785   */\n      swap1\n      pop\n        /* \"#utility.yul\":10795:10871   */\n      tag_408\n        /* \"#utility.yul\":10868:10869   */\n      0x00\n        /* \"#utility.yul\":10857:10866   */\n      dup4\n        /* \"#utility.yul\":10853:10870   */\n      add\n        /* \"#utility.yul\":10844:10850   */\n      dup5\n        /* \"#utility.yul\":10795:10871   */\n      tag_276\n      jump\t// in\n    tag_408:\n        /* \"#utility.yul\":10646:10878   */\n      swap3\n      swap2\n      pop\n      pop\n      jump\t// out\n        /* \"#utility.yul\":10884:11026   */\n    tag_277:\n        /* \"#utility.yul\":10987:11019   */\n      tag_410\n        /* \"#utility.yul\":11013:11018   */\n      dup2\n        /* \"#utility.yul\":10987:11019   */\n      tag_266\n      jump\t// in\n    tag_410:\n        /* \"#utility.yul\":10982:10985   */\n      dup3\n        /* \"#utility.yul\":10975:11020   */\n      mstore\n        /* \"#utility.yul\":10884:11026   */\n      pop\n      pop\n      jump\t// out\n        /* \"#utility.yul\":11032:11286   */\n    tag_71:\n        /* \"#utility.yul\":11141:11145   */\n      0x00\n        /* \"#utility.yul\":11179:11181   */\n      0x20\n        /* \"#utility.yul\":11168:11177   */\n      dup3\n        /* \"#utility.yul\":11164:11182   */\n      add\n        /* \"#utility.yul\":11156:11182   */\n      swap1\n      pop\n        /* \"#utility.yul\":11192:11279   */\n      tag_412\n        /* \"#utility.yul\":11276:11277   */\n      0x00\n        /* \"#utility.yul\":11265:11274   */\n      dup4\n        /* \"#utility.yul\":11261:11278   */\n      add\n        /* \"#utility.yul\":11252:11258   */\n      dup5\n        /* \"#utility.yul\":11192:11279   */\n      tag_277\n      jump\t// in\n    tag_412:\n        /* \"#utility.yul\":11032:11286   */\n      swap3\n      swap2\n      pop\n      pop\n      jump\t// out\n        /* \"#utility.yul\":11292:11410   */\n    tag_278:\n        /* \"#utility.yul\":11379:11403   */\n      tag_414\n        /* \"#utility.yul\":11397:11402   */\n      dup2\n        /* \"#utility.yul\":11379:11403   */\n      tag_253\n      jump\t// in\n    tag_414:\n        /* \"#utility.yul\":11374:11377   */\n      dup3\n        /* \"#utility.yul\":11367:11404   */\n      mstore\n        /* \"#utility.yul\":11292:11410   */\n      pop\n      pop\n      jump\t// out\n        /* \"#utility.yul\":11416:11638   */\n    tag_104:\n        /* \"#utility.yul\":11509:11513   */\n      0x00\n        /* \"#utility.yul\":11547:11549   */\n      0x20\n        /* \"#utility.yul\":11536:11545   */\n      dup3\n        /* \"#utility.yul\":11532:11550   */\n      add\n        /* \"#utility.yul\":11524:11550   */\n      swap1\n      pop\n        /* \"#utility.yul\":11560:11631   */\n      tag_416\n        /* \"#utility.yul\":11628:11629   */\n      0x00\n        /* \"#utility.yul\":11617:11626   */\n      dup4\n        /* \"#utility.yul\":11613:11630   */\n      add\n        /* \"#utility.yul\":11604:11610   */\n      dup5\n        /* \"#utility.yul\":11560:11631   */\n      tag_278\n      jump\t// in\n    tag_416:\n        /* \"#utility.yul\":11416:11638   */\n      swap3\n      swap2\n      pop\n      pop\n      jump\t// out\n        /* \"#utility.yul\":11644:11734   */\n    tag_279:\n        /* \"#utility.yul\":11678:11685   */\n      0x00\n        /* \"#utility.yul\":11721:11726   */\n      dup2\n        /* \"#utility.yul\":11714:11727   */\n      iszero\n        /* \"#utility.yul\":11707:11728   */\n      iszero\n        /* \"#utility.yul\":11696:11728   */\n      swap1\n      pop\n        /* \"#utility.yul\":11644:11734   */\n      swap2\n      swap1\n      pop\n      jump\t// out\n        /* \"#utility.yul\":11740:11849   */\n    tag_280:\n        /* \"#utility.yul\":11821:11842   */\n      tag_419\n        /* \"#utility.yul\":11836:11841   */\n      dup2\n        /* \"#utility.yul\":11821:11842   */\n      tag_279\n      jump\t// in\n    tag_419:\n        /* \"#utility.yul\":11816:11819   */\n      dup3\n        /* \"#utility.yul\":11809:11843   */\n      mstore\n        /* \"#utility.yul\":11740:11849   */\n      pop\n      pop\n      jump\t// out\n        /* \"#utility.yul\":11855:12882   */\n    tag_127:\n        /* \"#utility.yul\":12159:12163   */\n      0x00\n        /* \"#utility.yul\":12197:12200   */\n      0x0100\n        /* \"#utility.yul\":12186:12195   */\n      dup3\n        /* \"#utility.yul\":12182:12201   */\n      add\n        /* \"#utility.yul\":12174:12201   */\n      swap1\n      pop\n        /* \"#utility.yul\":12211:12298   */\n      tag_421\n        /* \"#utility.yul\":12295:12296   */\n      0x00\n        /* \"#utility.yul\":12284:12293   */\n      dup4\n        /* \"#utility.yul\":12280:12297   */\n      add\n        /* \"#utility.yul\":12271:12277   */\n      dup12\n        /* \"#utility.yul\":12211:12298   */\n      tag_277\n      jump\t// in\n    tag_421:\n        /* \"#utility.yul\":12308:12380   */\n      tag_422\n        /* \"#utility.yul\":12376:12378   */\n      0x20\n        /* \"#utility.yul\":12365:12374   */\n      dup4\n        /* \"#utility.yul\":12361:12379   */\n      add\n        /* \"#utility.yul\":12352:12358   */\n      dup11\n        /* \"#utility.yul\":12308:12380   */\n      tag_261\n      jump\t// in\n    tag_422:\n        /* \"#utility.yul\":12390:12462   */\n      tag_423\n        /* \"#utility.yul\":12458:12460   */\n      0x40\n        /* \"#utility.yul\":12447:12456   */\n      dup4\n        /* \"#utility.yul\":12443:12461   */\n      add\n        /* \"#utility.yul\":12434:12440   */\n      dup10\n        /* \"#utility.yul\":12390:12462   */\n      tag_261\n      jump\t// in\n    tag_423:\n        /* \"#utility.yul\":12472:12549   */\n      tag_424\n        /* \"#utility.yul\":12545:12547   */\n      0x60\n        /* \"#utility.yul\":12534:12543   */\n      dup4\n        /* \"#utility.yul\":12530:12548   */\n      add\n        /* \"#utility.yul\":12521:12527   */\n      dup9\n        /* \"#utility.yul\":12472:12549   */\n      tag_276\n      jump\t// in\n    tag_424:\n        /* \"#utility.yul\":12559:12632   */\n      tag_425\n        /* \"#utility.yul\":12627:12630   */\n      0x80\n        /* \"#utility.yul\":12616:12625   */\n      dup4\n        /* \"#utility.yul\":12612:12631   */\n      add\n        /* \"#utility.yul\":12603:12609   */\n      dup8\n        /* \"#utility.yul\":12559:12632   */\n      tag_261\n      jump\t// in\n    tag_425:\n        /* \"#utility.yul\":12642:12715   */\n      tag_426\n        /* \"#utility.yul\":12710:12713   */\n      0xa0\n        /* \"#utility.yul\":12699:12708   */\n      dup4\n        /* \"#utility.yul\":12695:12714   */\n      add\n        /* \"#utility.yul\":12686:12692   */\n      dup7\n        /* \"#utility.yul\":12642:12715   */\n      tag_261\n      jump\t// in\n    tag_426:\n        /* \"#utility.yul\":12725:12798   */\n      tag_427\n        /* \"#utility.yul\":12793:12796   */\n      0xc0\n        /* \"#utility.yul\":12782:12791   */\n      dup4\n        /* \"#utility.yul\":12778:12797   */\n      add\n        /* \"#utility.yul\":12769:12775   */\n      dup6\n        /* \"#utility.yul\":12725:12798   */\n      tag_261\n      jump\t// in\n    tag_427:\n        /* \"#utility.yul\":12808:12875   */\n      tag_428\n        /* \"#utility.yul\":12870:12873   */\n      0xe0\n        /* \"#utility.yul\":12859:12868   */\n      dup4\n        /* \"#utility.yul\":12855:12874   */\n      add\n        /* \"#utility.yul\":12846:12852   */\n      dup5\n        /* \"#utility.yul\":12808:12875   */\n      tag_280\n      jump\t// in\n    tag_428:\n        /* \"#utility.yul\":11855:12882   */\n      swap10\n      swap9\n      pop\n      pop\n      pop\n      pop\n      pop\n      pop\n      pop\n      pop\n      pop\n      jump\t// out\n        /* \"#utility.yul\":12888:13051   */\n    tag_281:\n        /* \"#utility.yul\":13028:13043   */\n      0x4f726465722050656e64696e6700000000000000000000000000000000000000\n        /* \"#utility.yul\":13024:13025   */\n      0x00\n        /* \"#utility.yul\":13016:13022   */\n      dup3\n        /* \"#utility.yul\":13012:13026   */\n      add\n        /* \"#utility.yul\":13005:13044   */\n      mstore\n        /* \"#utility.yul\":12888:13051   */\n      pop\n      jump\t// out\n        /* \"#utility.yul\":13057:13423   */\n    tag_282:\n        /* \"#utility.yul\":13199:13202   */\n      0x00\n        /* \"#utility.yul\":13220:13287   */\n      tag_431\n        /* \"#utility.yul\":13284:13286   */\n      0x0d\n        /* \"#utility.yul\":13279:13282   */\n      dup4\n        /* \"#utility.yul\":13220:13287   */\n      tag_257\n      jump\t// in\n    tag_431:\n        /* \"#utility.yul\":13213:13287   */\n      swap2\n      pop\n        /* \"#utility.yul\":13296:13389   */\n      tag_432\n        /* \"#utility.yul\":13385:13388   */\n      dup3\n        /* \"#utility.yul\":13296:13389   */\n      tag_281\n      jump\t// in\n    tag_432:\n        /* \"#utility.yul\":13414:13416   */\n      0x20\n        /* \"#utility.yul\":13409:13412   */\n      dup3\n        /* \"#utility.yul\":13405:13417   */\n      add\n        /* \"#utility.yul\":13398:13417   */\n      swap1\n      pop\n        /* \"#utility.yul\":13057:13423   */\n      swap2\n      swap1\n      pop\n      jump\t// out\n        /* \"#utility.yul\":13429:13848   */\n    tag_150:\n        /* \"#utility.yul\":13595:13599   */\n      0x00\n        /* \"#utility.yul\":13633:13635   */\n      0x20\n        /* \"#utility.yul\":13622:13631   */\n      dup3\n        /* \"#utility.yul\":13618:13636   */\n      add\n        /* \"#utility.yul\":13610:13636   */\n      swap1\n      pop\n        /* \"#utility.yul\":13682:13691   */\n      dup2\n        /* \"#utility.yul\":13676:13680   */\n      dup2\n        /* \"#utility.yul\":13672:13692   */\n      sub\n        /* \"#utility.yul\":13668:13669   */\n      0x00\n        /* \"#utility.yul\":13657:13666   */\n      dup4\n        /* \"#utility.yul\":13653:13670   */\n      add\n        /* \"#utility.yul\":13646:13693   */\n      mstore\n        /* \"#utility.yul\":13710:13841   */\n      tag_434\n        /* \"#utility.yul\":13836:13840   */\n      dup2\n        /* \"#utility.yul\":13710:13841   */\n      tag_282\n      jump\t// in\n    tag_434:\n        /* \"#utility.yul\":13702:13841   */\n      swap1\n      pop\n        /* \"#utility.yul\":13429:13848   */\n      swap2\n      swap1\n      pop\n      jump\t// out\n        /* \"#utility.yul\":13854:14018   */\n    tag_283:\n        /* \"#utility.yul\":13994:14010   */\n      0x4e6f7420417574686f7269736564000000000000000000000000000000000000\n        /* \"#utility.yul\":13990:13991   */\n      0x00\n        /* \"#utility.yul\":13982:13988   */\n      dup3\n        /* \"#utility.yul\":13978:13992   */\n      add\n        /* \"#utility.yul\":13971:14011   */\n      mstore\n        /* \"#utility.yul\":13854:14018   */\n      pop\n      jump\t// out\n        /* \"#utility.yul\":14024:14390   */\n    tag_284:\n        /* \"#utility.yul\":14166:14169   */\n      0x00\n        /* \"#utility.yul\":14187:14254   */\n      tag_437\n        /* \"#utility.yul\":14251:14253   */\n      0x0e\n        /* \"#utility.yul\":14246:14249   */\n      dup4\n        /* \"#utility.yul\":14187:14254   */\n      tag_257\n      jump\t// in\n    tag_437:\n        /* \"#utility.yul\":14180:14254   */\n      swap2\n      pop\n        /* \"#utility.yul\":14263:14356   */\n      tag_438\n        /* \"#utility.yul\":14352:14355   */\n      dup3\n        /* \"#utility.yul\":14263:14356   */\n      tag_283\n      jump\t// in\n    tag_438:\n        /* \"#utility.yul\":14381:14383   */\n      0x20\n        /* \"#utility.yul\":14376:14379   */\n      dup3\n        /* \"#utility.yul\":14372:14384   */\n      add\n        /* \"#utility.yul\":14365:14384   */\n      swap1\n      pop\n        /* \"#utility.yul\":14024:14390   */\n      swap2\n      swap1\n      pop\n      jump\t// out\n        /* \"#utility.yul\":14396:14815   */\n    tag_158:\n        /* \"#utility.yul\":14562:14566   */\n      0x00\n        /* \"#utility.yul\":14600:14602   */\n      0x20\n        /* \"#utility.yul\":14589:14598   */\n      dup3\n        /* \"#utility.yul\":14585:14603   */\n      add\n        /* \"#utility.yul\":14577:14603   */\n      swap1\n      pop\n        /* \"#utility.yul\":14649:14658   */\n      dup2\n        /* \"#utility.yul\":14643:14647   */\n      dup2\n        /* \"#utility.yul\":14639:14659   */\n      sub\n        /* \"#utility.yul\":14635:14636   */\n      0x00\n        /* \"#utility.yul\":14624:14633   */\n      dup4\n        /* \"#utility.yul\":14620:14637   */\n      add\n        /* \"#utility.yul\":14613:14660   */\n      mstore\n        /* \"#utility.yul\":14677:14808   */\n      tag_440\n        /* \"#utility.yul\":14803:14807   */\n      dup2\n        /* \"#utility.yul\":14677:14808   */\n      tag_284\n      jump\t// in\n    tag_440:\n        /* \"#utility.yul\":14669:14808   */\n      swap1\n      pop\n        /* \"#utility.yul\":14396:14815   */\n      swap2\n      swap1\n      pop\n      jump\t// out\n        /* \"#utility.yul\":14821:14900   */\n    tag_285:\n        /* \"#utility.yul\":14860:14867   */\n      0x00\n        /* \"#utility.yul\":14889:14894   */\n      dup2\n        /* \"#utility.yul\":14878:14894   */\n      swap1\n      pop\n        /* \"#utility.yul\":14821:14900   */\n      swap2\n      swap1\n      pop\n      jump\t// out\n        /* \"#utility.yul\":14906:15063   */\n    tag_286:\n        /* \"#utility.yul\":15011:15056   */\n      tag_443\n        /* \"#utility.yul\":15031:15055   */\n      tag_444\n        /* \"#utility.yul\":15049:15054   */\n      dup3\n        /* \"#utility.yul\":15031:15055   */\n      tag_253\n      jump\t// in\n    tag_444:\n        /* \"#utility.yul\":15011:15056   */\n      tag_285\n      jump\t// in\n    tag_443:\n        /* \"#utility.yul\":15006:15009   */\n      dup3\n        /* \"#utility.yul\":14999:15057   */\n      mstore\n        /* \"#utility.yul\":14906:15063   */\n      pop\n      pop\n      jump\t// out\n        /* \"#utility.yul\":15069:15249   */\n    tag_287:\n        /* \"#utility.yul\":15237:15242   */\n      0x202c200000000000000000000000000000000000000000000000000000000000\n        /* \"#utility.yul\":15232:15235   */\n      dup2\n        /* \"#utility.yul\":15225:15243   */\n      mstore\n        /* \"#utility.yul\":15069:15249   */\n      pop\n      jump\t// out\n        /* \"#utility.yul\":15255:15916   */\n    tag_162:\n        /* \"#utility.yul\":15485:15488   */\n      0x00\n        /* \"#utility.yul\":15500:15575   */\n      tag_447\n        /* \"#utility.yul\":15571:15574   */\n      dup3\n        /* \"#utility.yul\":15562:15568   */\n      dup6\n        /* \"#utility.yul\":15500:15575   */\n      tag_286\n      jump\t// in\n    tag_447:\n        /* \"#utility.yul\":15600:15602   */\n      0x20\n        /* \"#utility.yul\":15595:15598   */\n      dup3\n        /* \"#utility.yul\":15591:15603   */\n      add\n        /* \"#utility.yul\":15584:15603   */\n      swap2\n      pop\n        /* \"#utility.yul\":15613:15750   */\n      tag_448\n        /* \"#utility.yul\":15746:15749   */\n      dup3\n        /* \"#utility.yul\":15613:15750   */\n      tag_287\n      jump\t// in\n    tag_448:\n        /* \"#utility.yul\":15775:15776   */\n      0x03\n        /* \"#utility.yul\":15770:15773   */\n      dup3\n        /* \"#utility.yul\":15766:15777   */\n      add\n        /* \"#utility.yul\":15759:15777   */\n      swap2\n      pop\n        /* \"#utility.yul\":15787:15862   */\n      tag_449\n        /* \"#utility.yul\":15858:15861   */\n      dup3\n        /* \"#utility.yul\":15849:15855   */\n      dup5\n        /* \"#utility.yul\":15787:15862   */\n      tag_286\n      jump\t// in\n    tag_449:\n        /* \"#utility.yul\":15887:15889   */\n      0x20\n        /* \"#utility.yul\":15882:15885   */\n      dup3\n        /* \"#utility.yul\":15878:15890   */\n      add\n        /* \"#utility.yul\":15871:15890   */\n      swap2\n      pop\n        /* \"#utility.yul\":15907:15910   */\n      dup2\n        /* \"#utility.yul\":15900:15910   */\n      swap1\n      pop\n        /* \"#utility.yul\":15255:15916   */\n      swap4\n      swap3\n      pop\n      pop\n      pop\n      jump\t// out\n        /* \"#utility.yul\":15922:16103   */\n    tag_288:\n        /* \"#utility.yul\":16062:16095   */\n      0x70726963652076616c7565206d757374206265206d6f7265207468616e203000\n        /* \"#utility.yul\":16058:16059   */\n      0x00\n        /* \"#utility.yul\":16050:16056   */\n      dup3\n        /* \"#utility.yul\":16046:16060   */\n      add\n        /* \"#utility.yul\":16039:16096   */\n      mstore\n        /* \"#utility.yul\":15922:16103   */\n      pop\n      jump\t// out\n        /* \"#utility.yul\":16109:16475   */\n    tag_289:\n        /* \"#utility.yul\":16251:16254   */\n      0x00\n        /* \"#utility.yul\":16272:16339   */\n      tag_452\n        /* \"#utility.yul\":16336:16338   */\n      0x1f\n        /* \"#utility.yul\":16331:16334   */\n      dup4\n        /* \"#utility.yul\":16272:16339   */\n      tag_257\n      jump\t// in\n    tag_452:\n        /* \"#utility.yul\":16265:16339   */\n      swap2\n      pop\n        /* \"#utility.yul\":16348:16441   */\n      tag_453\n        /* \"#utility.yul\":16437:16440   */\n      dup3\n        /* \"#utility.yul\":16348:16441   */\n      tag_288\n      jump\t// in\n    tag_453:\n        /* \"#utility.yul\":16466:16468   */\n      0x20\n        /* \"#utility.yul\":16461:16464   */\n      dup3\n        /* \"#utility.yul\":16457:16469   */\n      add\n        /* \"#utility.yul\":16450:16469   */\n      swap1\n      pop\n        /* \"#utility.yul\":16109:16475   */\n      swap2\n      swap1\n      pop\n      jump\t// out\n        /* \"#utility.yul\":16481:16900   */\n    tag_174:\n        /* \"#utility.yul\":16647:16651   */\n      0x00\n        /* \"#utility.yul\":16685:16687   */\n      0x20\n        /* \"#utility.yul\":16674:16683   */\n      dup3\n        /* \"#utility.yul\":16670:16688   */\n      add\n        /* \"#utility.yul\":16662:16688   */\n      swap1\n      pop\n        /* \"#utility.yul\":16734:16743   */\n      dup2\n        /* \"#utility.yul\":16728:16732   */\n      dup2\n        /* \"#utility.yul\":16724:16744   */\n      sub\n        /* \"#utility.yul\":16720:16721   */\n      0x00\n        /* \"#utility.yul\":16709:16718   */\n      dup4\n        /* \"#utility.yul\":16705:16722   */\n      add\n        /* \"#utility.yul\":16698:16745   */\n      mstore\n        /* \"#utility.yul\":16762:16893   */\n      tag_455\n        /* \"#utility.yul\":16888:16892   */\n      dup2\n        /* \"#utility.yul\":16762:16893   */\n      tag_289\n      jump\t// in\n    tag_455:\n        /* \"#utility.yul\":16754:16893   */\n      swap1\n      pop\n        /* \"#utility.yul\":16481:16900   */\n      swap2\n      swap1\n      pop\n      jump\t// out\n        /* \"#utility.yul\":16906:17086   */\n    tag_290:\n        /* \"#utility.yul\":17046:17078   */\n      0x4e6f7420656e6f75676820626c616e636520746f20706c6163652061736b0000\n        /* \"#utility.yul\":17042:17043   */\n      0x00\n        /* \"#utility.yul\":17034:17040   */\n      dup3\n        /* \"#utility.yul\":17030:17044   */\n      add\n        /* \"#utility.yul\":17023:17079   */\n      mstore\n        /* \"#utility.yul\":16906:17086   */\n      pop\n      jump\t// out\n        /* \"#utility.yul\":17092:17458   */\n    tag_291:\n        /* \"#utility.yul\":17234:17237   */\n      0x00\n        /* \"#utility.yul\":17255:17322   */\n      tag_458\n        /* \"#utility.yul\":17319:17321   */\n      0x1e\n        /* \"#utility.yul\":17314:17317   */\n      dup4\n        /* \"#utility.yul\":17255:17322   */\n      tag_257\n      jump\t// in\n    tag_458:\n        /* \"#utility.yul\":17248:17322   */\n      swap2\n      pop\n        /* \"#utility.yul\":17331:17424   */\n      tag_459\n        /* \"#utility.yul\":17420:17423   */\n      dup3\n        /* \"#utility.yul\":17331:17424   */\n      tag_290\n      jump\t// in\n    tag_459:\n        /* \"#utility.yul\":17449:17451   */\n      0x20\n        /* \"#utility.yul\":17444:17447   */\n      dup3\n        /* \"#utility.yul\":17440:17452   */\n      add\n        /* \"#utility.yul\":17433:17452   */\n      swap1\n      pop\n        /* \"#utility.yul\":17092:17458   */\n      swap2\n      swap1\n      pop\n      jump\t// out\n        /* \"#utility.yul\":17464:17883   */\n    tag_177:\n        /* \"#utility.yul\":17630:17634   */\n      0x00\n        /* \"#utility.yul\":17668:17670   */\n      0x20\n        /* \"#utility.yul\":17657:17666   */\n      dup3\n        /* \"#utility.yul\":17653:17671   */\n      add\n        /* \"#utility.yul\":17645:17671   */\n      swap1\n      pop\n        /* \"#utility.yul\":17717:17726   */\n      dup2\n        /* \"#utility.yul\":17711:17715   */\n      dup2\n        /* \"#utility.yul\":17707:17727   */\n      sub\n        /* \"#utility.yul\":17703:17704   */\n      0x00\n        /* \"#utility.yul\":17692:17701   */\n      dup4\n        /* \"#utility.yul\":17688:17705   */\n      add\n        /* \"#utility.yul\":17681:17728   */\n      mstore\n        /* \"#utility.yul\":17745:17876   */\n      tag_461\n        /* \"#utility.yul\":17871:17875   */\n      dup2\n        /* \"#utility.yul\":17745:17876   */\n      tag_291\n      jump\t// in\n    tag_461:\n        /* \"#utility.yul\":17737:17876   */\n      swap1\n      pop\n        /* \"#utility.yul\":17464:17883   */\n      swap2\n      swap1\n      pop\n      jump\t// out\n        /* \"#utility.yul\":17889:18069   */\n    tag_292:\n        /* \"#utility.yul\":17937:18014   */\n      0x4e487b7100000000000000000000000000000000000000000000000000000000\n        /* \"#utility.yul\":17934:17935   */\n      0x00\n        /* \"#utility.yul\":17927:18015   */\n      mstore\n        /* \"#utility.yul\":18034:18038   */\n      0x11\n        /* \"#utility.yul\":18031:18032   */\n      0x04\n        /* \"#utility.yul\":18024:18039   */\n      mstore\n        /* \"#utility.yul\":18058:18062   */\n      0x24\n        /* \"#utility.yul\":18055:18056   */\n      0x00\n        /* \"#utility.yul\":18048:18063   */\n      revert\n        /* \"#utility.yul\":18075:18266   */\n    tag_179:\n        /* \"#utility.yul\":18115:18119   */\n      0x00\n        /* \"#utility.yul\":18135:18155   */\n      tag_464\n        /* \"#utility.yul\":18153:18154   */\n      dup3\n        /* \"#utility.yul\":18135:18155   */\n      tag_243\n      jump\t// in\n    tag_464:\n        /* \"#utility.yul\":18130:18155   */\n      swap2\n      pop\n        /* \"#utility.yul\":18169:18189   */\n      tag_465\n        /* \"#utility.yul\":18187:18188   */\n      dup4\n        /* \"#utility.yul\":18169:18189   */\n      tag_243\n      jump\t// in\n    tag_465:\n        /* \"#utility.yul\":18164:18189   */\n      swap3\n      pop\n        /* \"#utility.yul\":18208:18209   */\n      dup3\n        /* \"#utility.yul\":18205:18206   */\n      dup3\n        /* \"#utility.yul\":18202:18210   */\n      lt\n        /* \"#utility.yul\":18199:18233   */\n      iszero\n      tag_466\n      jumpi\n        /* \"#utility.yul\":18213:18231   */\n      tag_467\n      tag_292\n      jump\t// in\n    tag_467:\n        /* \"#utility.yul\":18199:18233   */\n    tag_466:\n        /* \"#utility.yul\":18258:18259   */\n      dup3\n        /* \"#utility.yul\":18255:18256   */\n      dup3\n        /* \"#utility.yul\":18251:18260   */\n      sub\n        /* \"#utility.yul\":18243:18260   */\n      swap1\n      pop\n        /* \"#utility.yul\":18075:18266   */\n      swap3\n      swap2\n      pop\n      pop\n      jump\t// out\n        /* \"#utility.yul\":18272:18620   */\n    tag_181:\n        /* \"#utility.yul\":18312:18319   */\n      0x00\n        /* \"#utility.yul\":18335:18355   */\n      tag_469\n        /* \"#utility.yul\":18353:18354   */\n      dup3\n        /* \"#utility.yul\":18335:18355   */\n      tag_243\n      jump\t// in\n    tag_469:\n        /* \"#utility.yul\":18330:18355   */\n      swap2\n      pop\n        /* \"#utility.yul\":18369:18389   */\n      tag_470\n        /* \"#utility.yul\":18387:18388   */\n      dup4\n        /* \"#utility.yul\":18369:18389   */\n      tag_243\n      jump\t// in\n    tag_470:\n        /* \"#utility.yul\":18364:18389   */\n      swap3\n      pop\n        /* \"#utility.yul\":18557:18558   */\n      dup2\n        /* \"#utility.yul\":18489:18555   */\n      0xffffffffffffffffffffffffffffffffffffffffffffffffffffffffffffffff\n        /* \"#utility.yul\":18485:18559   */\n      div\n        /* \"#utility.yul\":18482:18483   */\n      dup4\n        /* \"#utility.yul\":18479:18560   */\n      gt\n        /* \"#utility.yul\":18474:18475   */\n      dup3\n        /* \"#utility.yul\":18467:18476   */\n      iszero\n        /* \"#utility.yul\":18460:18477   */\n      iszero\n        /* \"#utility.yul\":18456:18561   */\n      and\n        /* \"#utility.yul\":18453:18584   */\n      iszero\n      tag_471\n      jumpi\n        /* \"#utility.yul\":18564:18582   */\n      tag_472\n      tag_292\n      jump\t// in\n    tag_472:\n        /* \"#utility.yul\":18453:18584   */\n    tag_471:\n        /* \"#utility.yul\":18612:18613   */\n      dup3\n        /* \"#utility.yul\":18609:18610   */\n      dup3\n        /* \"#utility.yul\":18605:18614   */\n      mul\n        /* \"#utility.yul\":18594:18614   */\n      swap1\n      pop\n        /* \"#utility.yul\":18272:18620   */\n      swap3\n      swap2\n      pop\n      pop\n      jump\t// out\n        /* \"#utility.yul\":18626:18806   */\n    tag_293:\n        /* \"#utility.yul\":18674:18751   */\n      0x4e487b7100000000000000000000000000000000000000000000000000000000\n        /* \"#utility.yul\":18671:18672   */\n      0x00\n        /* \"#utility.yul\":18664:18752   */\n      mstore\n        /* \"#utility.yul\":18771:18775   */\n      0x12\n        /* \"#utility.yul\":18768:18769   */\n      0x04\n        /* \"#utility.yul\":18761:18776   */\n      mstore\n        /* \"#utility.yul\":18795:18799   */\n      0x24\n        /* \"#utility.yul\":18792:18793   */\n      0x00\n        /* \"#utility.yul\":18785:18800   */\n      revert\n        /* \"#utility.yul\":18812:18997   */\n    tag_183:\n        /* \"#utility.yul\":18852:18853   */\n      0x00\n        /* \"#utility.yul\":18869:18889   */\n      tag_475\n        /* \"#utility.yul\":18887:18888   */\n      dup3\n        /* \"#utility.yul\":18869:18889   */\n      tag_243\n      jump\t// in\n    tag_475:\n        /* \"#utility.yul\":18864:18889   */\n      swap2\n      pop\n        /* \"#utility.yul\":18903:18923   */\n      tag_476\n        /* \"#utility.yul\":18921:18922   */\n      dup4\n        /* \"#utility.yul\":18903:18923   */\n      tag_243\n      jump\t// in\n    tag_476:\n        /* \"#utility.yul\":18898:18923   */\n      swap3\n      pop\n        /* \"#utility.yul\":18942:18943   */\n      dup3\n        /* \"#utility.yul\":18932:18967   */\n      tag_477\n      jumpi\n        /* \"#utility.yul\":18947:18965   */\n      tag_478\n      tag_293\n      jump\t// in\n    tag_478:\n        /* \"#utility.yul\":18932:18967   */\n    tag_477:\n        /* \"#utility.yul\":18989:18990   */\n      dup3\n        /* \"#utility.yul\":18986:18987   */\n      dup3\n        /* \"#utility.yul\":18982:18991   */\n      div\n        /* \"#utility.yul\":18977:18991   */\n      swap1\n      pop\n        /* \"#utility.yul\":18812:18997   */\n      swap3\n      swap2\n      pop\n      pop\n      jump\t// out\n        /* \"#utility.yul\":19003:19183   */\n    tag_294:\n        /* \"#utility.yul\":19143:19175   */\n      0x4e6f7420656e6f75676820626c616e636520746f20706c616365206269640000\n        /* \"#utility.yul\":19139:19140   */\n      0x00\n        /* \"#utility.yul\":19131:19137   */\n      dup3\n        /* \"#utility.yul\":19127:19141   */\n      add\n        /* \"#utility.yul\":19120:19176   */\n      mstore\n        /* \"#utility.yul\":19003:19183   */\n      pop\n      jump\t// out\n        /* \"#utility.yul\":19189:19555   */\n    tag_295:\n        /* \"#utility.yul\":19331:19334   */\n      0x00\n        /* \"#utility.yul\":19352:19419   */\n      tag_481\n        /* \"#utility.yul\":19416:19418   */\n      0x1e\n        /* \"#utility.yul\":19411:19414   */\n      dup4\n        /* \"#utility.yul\":19352:19419   */\n      tag_257\n      jump\t// in\n    tag_481:\n        /* \"#utility.yul\":19345:19419   */\n      swap2\n      pop\n        /* \"#utility.yul\":19428:19521   */\n      tag_482\n        /* \"#utility.yul\":19517:19520   */\n      dup3\n        /* \"#utility.yul\":19428:19521   */\n      tag_294\n      jump\t// in\n    tag_482:\n        /* \"#utility.yul\":19546:19548   */\n      0x20\n        /* \"#utility.yul\":19541:19544   */\n      dup3\n        /* \"#utility.yul\":19537:19549   */\n      add\n        /* \"#utility.yul\":19530:19549   */\n      swap1\n      pop\n        /* \"#utility.yul\":19189:19555   */\n      swap2\n      swap1\n      pop\n      jump\t// out\n        /* \"#utility.yul\":19561:19980   */\n    tag_212:\n        /* \"#utility.yul\":19727:19731   */\n      0x00\n        /* \"#utility.yul\":19765:19767   */\n      0x20\n        /* \"#utility.yul\":19754:19763   */\n      dup3\n        /* \"#utility.yul\":19750:19768   */\n      add\n        /* \"#utility.yul\":19742:19768   */\n      swap1\n      pop\n        /* \"#utility.yul\":19814:19823   */\n      dup2\n        /* \"#utility.yul\":19808:19812   */\n      dup2\n        /* \"#utility.yul\":19804:19824   */\n      sub\n        /* \"#utility.yul\":19800:19801   */\n      0x00\n        /* \"#utility.yul\":19789:19798   */\n      dup4\n        /* \"#utility.yul\":19785:19802   */\n      add\n        /* \"#utility.yul\":19778:19825   */\n      mstore\n        /* \"#utility.yul\":19842:19973   */\n      tag_484\n        /* \"#utility.yul\":19968:19972   */\n      dup2\n        /* \"#utility.yul\":19842:19973   */\n      tag_295\n      jump\t// in\n    tag_484:\n        /* \"#utility.yul\":19834:19973   */\n      swap1\n      pop\n        /* \"#utility.yul\":19561:19980   */\n      swap2\n      swap1\n      pop\n      jump\t// out\n        /* \"#utility.yul\":19986:20219   */\n    tag_222:\n        /* \"#utility.yul\":20025:20028   */\n      0x00\n        /* \"#utility.yul\":20048:20072   */\n      tag_486\n        /* \"#utility.yul\":20066:20071   */\n      dup3\n        /* \"#utility.yul\":20048:20072   */\n      tag_243\n      jump\t// in\n    tag_486:\n        /* \"#utility.yul\":20039:20072   */\n      swap2\n      pop\n        /* \"#utility.yul\":20094:20160   */\n      0xffffffffffffffffffffffffffffffffffffffffffffffffffffffffffffffff\n        /* \"#utility.yul\":20087:20092   */\n      dup3\n        /* \"#utility.yul\":20084:20161   */\n      sub\n        /* \"#utility.yul\":20081:20184   */\n      tag_487\n      jumpi\n        /* \"#utility.yul\":20164:20182   */\n      tag_488\n      tag_292\n      jump\t// in\n    tag_488:\n        /* \"#utility.yul\":20081:20184   */\n    tag_487:\n        /* \"#utility.yul\":20211:20212   */\n      0x01\n        /* \"#utility.yul\":20204:20209   */\n      dup3\n        /* \"#utility.yul\":20200:20213   */\n      add\n        /* \"#utility.yul\":20193:20213   */\n      swap1\n      pop\n        /* \"#utility.yul\":19986:20219   */\n      swap2\n      swap1\n      pop\n      jump\t// out\n        /* \"#utility.yul\":20225:20321   */\n    tag_296:\n        /* \"#utility.yul\":20262:20269   */\n      0x00\n        /* \"#utility.yul\":20291:20315   */\n      tag_490\n        /* \"#utility.yul\":20309:20314   */\n      dup3\n        /* \"#utility.yul\":20291:20315   */\n      tag_265\n      jump\t// in\n    tag_490:\n        /* \"#utility.yul\":20280:20315   */\n      swap1\n      pop\n        /* \"#utility.yul\":20225:20321   */\n      swap2\n      swap1\n      pop\n      jump\t// out\n        /* \"#utility.yul\":20327:20445   */\n    tag_297:\n        /* \"#utility.yul\":20414:20438   */\n      tag_492\n        /* \"#utility.yul\":20432:20437   */\n      dup2\n        /* \"#utility.yul\":20414:20438   */\n      tag_296\n      jump\t// in\n    tag_492:\n        /* \"#utility.yul\":20409:20412   */\n      dup3\n        /* \"#utility.yul\":20402:20439   */\n      mstore\n        /* \"#utility.yul\":20327:20445   */\n      pop\n      pop\n      jump\t// out\n        /* \"#utility.yul\":20451:20536   */\n    tag_298:\n        /* \"#utility.yul\":20496:20503   */\n      0x00\n        /* \"#utility.yul\":20525:20530   */\n      dup2\n        /* \"#utility.yul\":20514:20530   */\n      swap1\n      pop\n        /* \"#utility.yul\":20451:20536   */\n      swap2\n      swap1\n      pop\n      jump\t// out\n        /* \"#utility.yul\":20542:20602   */\n    tag_299:\n        /* \"#utility.yul\":20570:20573   */\n      0x00\n        /* \"#utility.yul\":20591:20596   */\n      dup2\n        /* \"#utility.yul\":20584:20596   */\n      swap1\n      pop\n        /* \"#utility.yul\":20542:20602   */\n      swap2\n      swap1\n      pop\n      jump\t// out\n        /* \"#utility.yul\":20608:20766   */\n    tag_300:\n        /* \"#utility.yul\":20666:20675   */\n      0x00\n        /* \"#utility.yul\":20699:20760   */\n      tag_496\n        /* \"#utility.yul\":20717:20759   */\n      tag_497\n        /* \"#utility.yul\":20726:20758   */\n      tag_498\n        /* \"#utility.yul\":20752:20757   */\n      dup5\n        /* \"#utility.yul\":20726:20758   */\n      tag_298\n      jump\t// in\n    tag_498:\n        /* \"#utility.yul\":20717:20759   */\n      tag_299\n      jump\t// in\n    tag_497:\n        /* \"#utility.yul\":20699:20760   */\n      tag_243\n      jump\t// in\n    tag_496:\n        /* \"#utility.yul\":20686:20760   */\n      swap1\n      pop\n        /* \"#utility.yul\":20608:20766   */\n      swap2\n      swap1\n      pop\n      jump\t// out\n        /* \"#utility.yul\":20772:20919   */\n    tag_301:\n        /* \"#utility.yul\":20867:20912   */\n      tag_500\n        /* \"#utility.yul\":20906:20911   */\n      dup2\n        /* \"#utility.yul\":20867:20912   */\n      tag_300\n      jump\t// in\n    tag_500:\n        /* \"#utility.yul\":20862:20865   */\n      dup3\n        /* \"#utility.yul\":20855:20913   */\n      mstore\n        /* \"#utility.yul\":20772:20919   */\n      pop\n      pop\n      jump\t// out\n        /* \"#utility.yul\":20925:21952   */\n    tag_228:\n        /* \"#utility.yul\":21229:21233   */\n      0x00\n        /* \"#utility.yul\":21267:21270   */\n      0x0100\n        /* \"#utility.yul\":21256:21265   */\n      dup3\n        /* \"#utility.yul\":21252:21271   */\n      add\n        /* \"#utility.yul\":21244:21271   */\n      swap1\n      pop\n        /* \"#utility.yul\":21281:21352   */\n      tag_502\n        /* \"#utility.yul\":21349:21350   */\n      0x00\n        /* \"#utility.yul\":21338:21347   */\n      dup4\n        /* \"#utility.yul\":21334:21351   */\n      add\n        /* \"#utility.yul\":21325:21331   */\n      dup12\n        /* \"#utility.yul\":21281:21352   */\n      tag_297\n      jump\t// in\n    tag_502:\n        /* \"#utility.yul\":21362:21434   */\n      tag_503\n        /* \"#utility.yul\":21430:21432   */\n      0x20\n        /* \"#utility.yul\":21419:21428   */\n      dup4\n        /* \"#utility.yul\":21415:21433   */\n      add\n        /* \"#utility.yul\":21406:21412   */\n      dup11\n        /* \"#utility.yul\":21362:21434   */\n      tag_261\n      jump\t// in\n    tag_503:\n        /* \"#utility.yul\":21444:21516   */\n      tag_504\n        /* \"#utility.yul\":21512:21514   */\n      0x40\n        /* \"#utility.yul\":21501:21510   */\n      dup4\n        /* \"#utility.yul\":21497:21515   */\n      add\n        /* \"#utility.yul\":21488:21494   */\n      dup10\n        /* \"#utility.yul\":21444:21516   */\n      tag_261\n      jump\t// in\n    tag_504:\n        /* \"#utility.yul\":21526:21603   */\n      tag_505\n        /* \"#utility.yul\":21599:21601   */\n      0x60\n        /* \"#utility.yul\":21588:21597   */\n      dup4\n        /* \"#utility.yul\":21584:21602   */\n      add\n        /* \"#utility.yul\":21575:21581   */\n      dup9\n        /* \"#utility.yul\":21526:21603   */\n      tag_276\n      jump\t// in\n    tag_505:\n        /* \"#utility.yul\":21613:21686   */\n      tag_506\n        /* \"#utility.yul\":21681:21684   */\n      0x80\n        /* \"#utility.yul\":21670:21679   */\n      dup4\n        /* \"#utility.yul\":21666:21685   */\n      add\n        /* \"#utility.yul\":21657:21663   */\n      dup8\n        /* \"#utility.yul\":21613:21686   */\n      tag_261\n      jump\t// in\n    tag_506:\n        /* \"#utility.yul\":21696:21777   */\n      tag_507\n        /* \"#utility.yul\":21772:21775   */\n      0xa0\n        /* \"#utility.yul\":21761:21770   */\n      dup4\n        /* \"#utility.yul\":21757:21776   */\n      add\n        /* \"#utility.yul\":21748:21754   */\n      dup7\n        /* \"#utility.yul\":21696:21777   */\n      tag_301\n      jump\t// in\n    tag_507:\n        /* \"#utility.yul\":21787:21868   */\n      tag_508\n        /* \"#utility.yul\":21863:21866   */\n      0xc0\n        /* \"#utility.yul\":21852:21861   */\n      dup4\n        /* \"#utility.yul\":21848:21867   */\n      add\n        /* \"#utility.yul\":21839:21845   */\n      dup6\n        /* \"#utility.yul\":21787:21868   */\n      tag_301\n      jump\t// in\n    tag_508:\n        /* \"#utility.yul\":21878:21945   */\n      tag_509\n        /* \"#utility.yul\":21940:21943   */\n      0xe0\n        /* \"#utility.yul\":21929:21938   */\n      dup4\n        /* \"#utility.yul\":21925:21944   */\n      add\n        /* \"#utility.yul\":21916:21922   */\n      dup5\n        /* \"#utility.yul\":21878:21945   */\n      tag_280\n      jump\t// in\n    tag_509:\n        /* \"#utility.yul\":20925:21952   */\n      swap10\n      swap9\n      pop\n      pop\n      pop\n      pop\n      pop\n      pop\n      pop\n      pop\n      pop\n      jump\t// out\n\n    auxdata: 0xa26469706673582212204569a4e042c7ef5f161729c0fc9c460df90c80eb740bb613ae9fd5a8020c6ad464736f6c634300080d0033\n}\n",
				"bytecode": {
					"linkReferences": {},
					"object": "608060405233600160006101000a81548173ffffffffffffffffffffffffffffffffffffffff021916908373ffffffffffffffffffffffffffffffffffffffff1602179055503480156200005257600080fd5b5060405162001dd038038062001dd08339818101604052810190620000789190620000f6565b80600281905550600060048190555060006005819055506000600681905550600060088190555060006009819055506000600a819055505062000128565b600080fd5b6000819050919050565b620000d081620000bb565b8114620000dc57600080fd5b50565b600081519050620000f081620000c5565b92915050565b6000602082840312156200010f576200010e620000b6565b5b60006200011f84828501620000df565b91505092915050565b611c9880620001386000396000f3fe6080604052600436106101405760003560e01c80637bb51193116100b6578063b40a56271161006f578063b40a56271461046a578063bf77ffae14610495578063ce0cdc87146104d2578063d09ef241146104fd578063db3a139614610541578063ecdfb8601461057e57610140565b80637bb5119314610367578063801d9bbd146103925780639703ef35146103bd5780639979ef45146103e6578063a3908e1b14610402578063a394fda71461043f57610140565b806344e791e01161010857806344e791e01461023e5780634d46712d1461026957806369f632e2146102a65780636e5b0f00146102e3578063734a2e781461030e57806378c5b2681461034b57610140565b8063122de8f2146101455780631628e0f514610170578063299e6283146101995780632db6dfa7146101d65780634471417f14610213575b600080fd5b34801561015157600080fd5b5061015a6105a9565b6040516101679190611272565b60405180910390f35b34801561017c57600080fd5b50610197600480360381019061019291906112c5565b6105ae565b005b3480156101a557600080fd5b506101c060048036038101906101bb9190611328565b610854565b6040516101cd9190611401565b60405180910390f35b3480156101e257600080fd5b506101fd60048036038101906101f891906112c5565b610880565b60405161020a9190611432565b60405180910390f35b34801561021f57600080fd5b506102286108a0565b6040516102359190611642565b60405180910390f35b34801561024a57600080fd5b506102536108a5565b6040516102609190611401565b60405180910390f35b34801561027557600080fd5b50610290600480360381019061028b91906112c5565b6108d2565b60405161029d9190611673565b60405180910390f35b3480156102b257600080fd5b506102cd60048036038101906102c891906112c5565b6108ff565b6040516102da919061169d565b60405180910390f35b3480156102ef57600080fd5b506102f861093f565b6040516103059190611432565b60405180910390f35b34801561031a57600080fd5b50610335600480360381019061033091906112c5565b610945565b604051610342919061169d565b60405180910390f35b610365600480360381019061036091906112c5565b610985565b005b34801561037357600080fd5b5061037c610a59565b6040516103899190611432565b60405180910390f35b34801561039e57600080fd5b506103a7610a5f565b6040516103b49190611432565b60405180910390f35b3480156103c957600080fd5b506103e460048036038101906103df91906112c5565b610a65565b005b61040060048036038101906103fb91906112c5565b610d0b565b005b34801561040e57600080fd5b50610429600480360381019061042491906112c5565b610d95565b60405161043691906116c7565b60405180910390f35b34801561044b57600080fd5b50610454610da2565b6040516104619190611432565b60405180910390f35b34801561047657600080fd5b5061047f610da8565b60405161048c9190611432565b60405180910390f35b3480156104a157600080fd5b506104bc60048036038101906104b791906112c5565b610dae565b6040516104c99190611673565b60405180910390f35b3480156104de57600080fd5b506104e7610ddb565b6040516104f49190611272565b60405180910390f35b34801561050957600080fd5b50610524600480360381019061051f91906112c5565b610de0565b6040516105389897969594939291906116fd565b60405180910390f35b34801561054d57600080fd5b50610568600480360381019061056391906112c5565b610df7565b6040516105759190611432565b60405180910390f35b34801561058a57600080fd5b50610593610e17565b6040516105a09190611432565b60405180910390f35b606090565b600760008281526020019081526020016000206040518060e00160405290816000820160009054906101000a900473ffffffffffffffffffffffffffffffffffffffff1673ffffffffffffffffffffffffffffffffffffffff1673ffffffffffffffffffffffffffffffffffffffff16815260200160018201548152602001600282015481526020016003820160009054906101000a900460ff16600181111561065b5761065a6114ba565b5b600181111561066d5761066c6114ba565b5b81526020016004820154815260200160058201548152602001600682015481525050600060018111156106a3576106a26114ba565b5b816060015160018111156106ba576106b96114ba565b5b146106fa576040517f08c379a00000000000000000000000000000000000000000000000000000000081526004016106f1906117c7565b60405180910390fd5b600760008381526020019081526020016000206040518060e00160405290816000820160009054906101000a900473ffffffffffffffffffffffffffffffffffffffff1673ffffffffffffffffffffffffffffffffffffffff1673ffffffffffffffffffffffffffffffffffffffff16815260200160018201548152602001600282015481526020016003820160009054906101000a900460ff1660018111156107a7576107a66114ba565b5b60018111156107b9576107b86114ba565b5b81526020016004820154815260200160058201548152602001600682015481525050338073ffffffffffffffffffffffffffffffffffffffff16826000015173ffffffffffffffffffffffffffffffffffffffff161461084e576040517f08c379a000000000000000000000000000000000000000000000000000000000815260040161084590611833565b60405180910390fd5b50505050565b6060828260405160200161086992919061189a565b604051602081830303815290604052905092915050565b600060036000838152602001908152602001600020600101549050919050565b606090565b60606000600854905060006040518060200160405280600081525090505b6000600854036108c357505090565b60006007600083815260200190815260200160002060030160009054906101000a900460ff169050919050565b60006003600083815260200190815260200160002060000160009054906101000a900473ffffffffffffffffffffffffffffffffffffffff169050919050565b60045481565b60006007600083815260200190815260200160002060000160009054906101000a900473ffffffffffffffffffffffffffffffffffffffff169050919050565b60008110156109c9576040517f08c379a00000000000000000000000000000000000000000000000000000000081526004016109c090611921565b60405180910390fd5b80341015610a0c576040517f08c379a0000000000000000000000000000000000000000000000000000000008152600401610a039061198d565b60405180910390fd5b6000429050600060646002546064610a2491906119dc565b34610a2f9190611a10565b610a399190611a99565b90506000610a48338484610e1d565b9050610a5381610fb8565b50505050565b60055481565b60085481565b600360008281526020019081526020016000206040518060e00160405290816000820160009054906101000a900473ffffffffffffffffffffffffffffffffffffffff1673ffffffffffffffffffffffffffffffffffffffff1673ffffffffffffffffffffffffffffffffffffffff16815260200160018201548152602001600282015481526020016003820160009054906101000a900460ff166001811115610b1257610b116114ba565b5b6001811115610b2457610b236114ba565b5b8152602001600482015481526020016005820154815260200160068201548152505060006001811115610b5a57610b596114ba565b5b81606001516001811115610b7157610b706114ba565b5b14610bb1576040517f08c379a0000000000000000000000000000000000000000000000000000000008152600401610ba8906117c7565b60405180910390fd5b600360008381526020019081526020016000206040518060e00160405290816000820160009054906101000a900473ffffffffffffffffffffffffffffffffffffffff1673ffffffffffffffffffffffffffffffffffffffff1673ffffffffffffffffffffffffffffffffffffffff16815260200160018201548152602001600282015481526020016003820160009054906101000a900460ff166001811115610c5e57610c5d6114ba565b5b6001811115610c7057610c6f6114ba565b5b81526020016004820154815260200160058201548152602001600682015481525050338073ffffffffffffffffffffffffffffffffffffffff16826000015173ffffffffffffffffffffffffffffffffffffffff1614610d05576040517f08c379a0000000000000000000000000000000000000000000000000000000008152600401610cfc90611833565b60405180910390fd5b50505050565b6000811015610d4f576040517f08c379a0000000000000000000000000000000000000000000000000000000008152600401610d4690611921565b60405180910390fd5b80341015610d92576040517f08c379a0000000000000000000000000000000000000000000000000000000008152600401610d8990611b16565b60405180910390fd5b50565b60008160001b9050919050565b600a5481565b60065481565b60006003600083815260200190815260200160002060030160009054906101000a900460ff169050919050565b606090565b600080600080600080600080919395975091939597565b600060076000838152602001908152602001600020600101549050919050565b60095481565b610e25611145565b600a6000815480929190610e3890611b36565b919050555060006040518060e001604052808673ffffffffffffffffffffffffffffffffffffffff16815260200185815260200184815260200160006001811115610e8657610e856114ba565b5b8152602001600a54815260200160008152602001600081525090508060076000600a54815260200190815260200160002060008201518160000160006101000a81548173ffffffffffffffffffffffffffffffffffffffff021916908373ffffffffffffffffffffffffffffffffffffffff160217905550602082015181600101556040820151816002015560608201518160030160006101000a81548160ff02191690836001811115610f3d57610f3c6114ba565b5b02179055506080820151816004015560a0820151816005015560c082015181600601559050507f93caf6ba1af44020dfe6076e279533e38bd8deefe534c43aa8cc93aad2025b7d8585856000600a546000806000604051610fa5989796959493929190611be4565b60405180910390a1809150509392505050565b60008060085403610fd3578160800151600881905550611141565b81602001516007600060085481526020019081526020016000206001015410611035576008548260a00181815250508160800151600760008460a001518152602001908152602001600020600601819055508160800151600881905550611140565b60085490505b600060076000838152602001908152602001600020600501541415801561109157508160200151600760006007600085815260200190815260200160002060050154815260200190815260200160002060010154105b156110b4576007600082815260200190815260200160002060050154905061103b565b60076000828152602001908152602001600020600501548260a00181815250506000600760008381526020019081526020016000206005015414611116578160800151600760008460a001518152602001908152602001600020600601819055505b81608001516007600083815260200190815260200160002060050181905550808260c00181815250505b5b5050565b6040518060e00160405280600073ffffffffffffffffffffffffffffffffffffffff16815260200160008152602001600081526020016000600181111561118f5761118e6114ba565b5b81526020016000815260200160008152602001600081525090565b600081519050919050565b600082825260208201905092915050565b6000819050602082019050919050565b6000819050919050565b6111e9816111d6565b82525050565b60006111fb83836111e0565b60208301905092915050565b6000602082019050919050565b600061121f826111aa565b61122981856111b5565b9350611234836111c6565b8060005b8381101561126557815161124c88826111ef565b975061125783611207565b925050600181019050611238565b5085935050505092915050565b6000602082019050818103600083015261128c8184611214565b905092915050565b600080fd5b6112a2816111d6565b81146112ad57600080fd5b50565b6000813590506112bf81611299565b92915050565b6000602082840312156112db576112da611294565b5b60006112e9848285016112b0565b91505092915050565b6000819050919050565b611305816112f2565b811461131057600080fd5b50565b600081359050611322816112fc565b92915050565b6000806040838503121561133f5761133e611294565b5b600061134d85828601611313565b925050602061135e85828601611313565b9150509250929050565b600081519050919050565b600082825260208201905092915050565b60005b838110156113a2578082015181840152602081019050611387565b838111156113b1576000848401525b50505050565b6000601f19601f8301169050919050565b60006113d382611368565b6113dd8185611373565b93506113ed818560208601611384565b6113f6816113b7565b840191505092915050565b6000602082019050818103600083015261141b81846113c8565b905092915050565b61142c816111d6565b82525050565b60006020820190506114476000830184611423565b92915050565b600081519050919050565b600082825260208201905092915050565b6000819050602082019050919050565b600073ffffffffffffffffffffffffffffffffffffffff82169050919050565b60006114a482611479565b9050919050565b6114b481611499565b82525050565b7f4e487b7100000000000000000000000000000000000000000000000000000000600052602160045260246000fd5b600281106114fa576114f96114ba565b5b50565b600081905061150b826114e9565b919050565b600061151b826114fd565b9050919050565b61152b81611510565b82525050565b60e08201600082015161154760008501826114ab565b50602082015161155a60208501826111e0565b50604082015161156d60408501826111e0565b5060608201516115806060850182611522565b50608082015161159360808501826111e0565b5060a08201516115a660a08501826111e0565b5060c08201516115b960c08501826111e0565b50505050565b60006115cb8383611531565b60e08301905092915050565b6000602082019050919050565b60006115ef8261144d565b6115f98185611458565b935061160483611469565b8060005b8381101561163557815161161c88826115bf565b9750611627836115d7565b925050600181019050611608565b5085935050505092915050565b6000602082019050818103600083015261165c81846115e4565b905092915050565b61166d81611510565b82525050565b60006020820190506116886000830184611664565b92915050565b61169781611499565b82525050565b60006020820190506116b2600083018461168e565b92915050565b6116c1816112f2565b82525050565b60006020820190506116dc60008301846116b8565b92915050565b60008115159050919050565b6116f7816116e2565b82525050565b600061010082019050611713600083018b61168e565b611720602083018a611423565b61172d6040830189611423565b61173a6060830188611664565b6117476080830187611423565b61175460a0830186611423565b61176160c0830185611423565b61176e60e08301846116ee565b9998505050505050505050565b7f4f726465722050656e64696e6700000000000000000000000000000000000000600082015250565b60006117b1600d83611373565b91506117bc8261177b565b602082019050919050565b600060208201905081810360008301526117e0816117a4565b9050919050565b7f4e6f7420417574686f7269736564000000000000000000000000000000000000600082015250565b600061181d600e83611373565b9150611828826117e7565b602082019050919050565b6000602082019050818103600083015261184c81611810565b9050919050565b6000819050919050565b61186e611869826112f2565b611853565b82525050565b7f202c200000000000000000000000000000000000000000000000000000000000815250565b60006118a6828561185d565b6020820191506118b582611874565b6003820191506118c5828461185d565b6020820191508190509392505050565b7f70726963652076616c7565206d757374206265206d6f7265207468616e203000600082015250565b600061190b601f83611373565b9150611916826118d5565b602082019050919050565b6000602082019050818103600083015261193a816118fe565b9050919050565b7f4e6f7420656e6f75676820626c616e636520746f20706c6163652061736b0000600082015250565b6000611977601e83611373565b915061198282611941565b602082019050919050565b600060208201905081810360008301526119a68161196a565b9050919050565b7f4e487b7100000000000000000000000000000000000000000000000000000000600052601160045260246000fd5b60006119e7826111d6565b91506119f2836111d6565b925082821015611a0557611a046119ad565b5b828203905092915050565b6000611a1b826111d6565b9150611a26836111d6565b9250817fffffffffffffffffffffffffffffffffffffffffffffffffffffffffffffffff0483118215151615611a5f57611a5e6119ad565b5b828202905092915050565b7f4e487b7100000000000000000000000000000000000000000000000000000000600052601260045260246000fd5b6000611aa4826111d6565b9150611aaf836111d6565b925082611abf57611abe611a6a565b5b828204905092915050565b7f4e6f7420656e6f75676820626c616e636520746f20706c616365206269640000600082015250565b6000611b00601e83611373565b9150611b0b82611aca565b602082019050919050565b60006020820190508181036000830152611b2f81611af3565b9050919050565b6000611b41826111d6565b91507fffffffffffffffffffffffffffffffffffffffffffffffffffffffffffffffff8203611b7357611b726119ad565b5b600182019050919050565b6000611b8982611479565b9050919050565b611b9981611b7e565b82525050565b6000819050919050565b6000819050919050565b6000611bce611bc9611bc484611b9f565b611ba9565b6111d6565b9050919050565b611bde81611bb3565b82525050565b600061010082019050611bfa600083018b611b90565b611c07602083018a611423565b611c146040830189611423565b611c216060830188611664565b611c2e6080830187611423565b611c3b60a0830186611bd5565b611c4860c0830185611bd5565b611c5560e08301846116ee565b999850505050505050505056fea26469706673582212204569a4e042c7ef5f161729c0fc9c460df90c80eb740bb613ae9fd5a8020c6ad464736f6c634300080d0033",
					"opcodes": "PUSH1 0x80 PUSH1 0x40 MSTORE CALLER PUSH1 0x1 PUSH1 0x0 PUSH2 0x100 EXP DUP2 SLOAD DUP2 PUSH20 0xFFFFFFFFFFFFFFFFFFFFFFFFFFFFFFFFFFFFFFFF MUL NOT AND SWAP1 DUP4 PUSH20 0xFFFFFFFFFFFFFFFFFFFFFFFFFFFFFFFFFFFFFFFF AND MUL OR SWAP1 SSTORE POP CALLVALUE DUP1 ISZERO PUSH3 0x52 JUMPI PUSH1 0x0 DUP1 REVERT JUMPDEST POP PUSH1 0x40 MLOAD PUSH3 0x1DD0 CODESIZE SUB DUP1 PUSH3 0x1DD0 DUP4 CODECOPY DUP2 DUP2 ADD PUSH1 0x40 MSTORE DUP2 ADD SWAP1 PUSH3 0x78 SWAP2 SWAP1 PUSH3 0xF6 JUMP JUMPDEST DUP1 PUSH1 0x2 DUP2 SWAP1 SSTORE POP PUSH1 0x0 PUSH1 0x4 DUP2 SWAP1 SSTORE POP PUSH1 0x0 PUSH1 0x5 DUP2 SWAP1 SSTORE POP PUSH1 0x0 PUSH1 0x6 DUP2 SWAP1 SSTORE POP PUSH1 0x0 PUSH1 0x8 DUP2 SWAP1 SSTORE POP PUSH1 0x0 PUSH1 0x9 DUP2 SWAP1 SSTORE POP PUSH1 0x0 PUSH1 0xA DUP2 SWAP1 SSTORE POP POP PUSH3 0x128 JUMP JUMPDEST PUSH1 0x0 DUP1 REVERT JUMPDEST PUSH1 0x0 DUP2 SWAP1 POP SWAP2 SWAP1 POP JUMP JUMPDEST PUSH3 0xD0 DUP2 PUSH3 0xBB JUMP JUMPDEST DUP2 EQ PUSH3 0xDC JUMPI PUSH1 0x0 DUP1 REVERT JUMPDEST POP JUMP JUMPDEST PUSH1 0x0 DUP2 MLOAD SWAP1 POP PUSH3 0xF0 DUP2 PUSH3 0xC5 JUMP JUMPDEST SWAP3 SWAP2 POP POP JUMP JUMPDEST PUSH1 0x0 PUSH1 0x20 DUP3 DUP5 SUB SLT ISZERO PUSH3 0x10F JUMPI PUSH3 0x10E PUSH3 0xB6 JUMP JUMPDEST JUMPDEST PUSH1 0x0 PUSH3 0x11F DUP5 DUP3 DUP6 ADD PUSH3 0xDF JUMP JUMPDEST SWAP2 POP POP SWAP3 SWAP2 POP POP JUMP JUMPDEST PUSH2 0x1C98 DUP1 PUSH3 0x138 PUSH1 0x0 CODECOPY PUSH1 0x0 RETURN INVALID PUSH1 0x80 PUSH1 0x40 MSTORE PUSH1 0x4 CALLDATASIZE LT PUSH2 0x140 JUMPI PUSH1 0x0 CALLDATALOAD PUSH1 0xE0 SHR DUP1 PUSH4 0x7BB51193 GT PUSH2 0xB6 JUMPI DUP1 PUSH4 0xB40A5627 GT PUSH2 0x6F JUMPI DUP1 PUSH4 0xB40A5627 EQ PUSH2 0x46A JUMPI DUP1 PUSH4 0xBF77FFAE EQ PUSH2 0x495 JUMPI DUP1 PUSH4 0xCE0CDC87 EQ PUSH2 0x4D2 JUMPI DUP1 PUSH4 0xD09EF241 EQ PUSH2 0x4FD JUMPI DUP1 PUSH4 0xDB3A1396 EQ PUSH2 0x541 JUMPI DUP1 PUSH4 0xECDFB860 EQ PUSH2 0x57E JUMPI PUSH2 0x140 JUMP JUMPDEST DUP1 PUSH4 0x7BB51193 EQ PUSH2 0x367 JUMPI DUP1 PUSH4 0x801D9BBD EQ PUSH2 0x392 JUMPI DUP1 PUSH4 0x9703EF35 EQ PUSH2 0x3BD JUMPI DUP1 PUSH4 0x9979EF45 EQ PUSH2 0x3E6 JUMPI DUP1 PUSH4 0xA3908E1B EQ PUSH2 0x402 JUMPI DUP1 PUSH4 0xA394FDA7 EQ PUSH2 0x43F JUMPI PUSH2 0x140 JUMP JUMPDEST DUP1 PUSH4 0x44E791E0 GT PUSH2 0x108 JUMPI DUP1 PUSH4 0x44E791E0 EQ PUSH2 0x23E JUMPI DUP1 PUSH4 0x4D46712D EQ PUSH2 0x269 JUMPI DUP1 PUSH4 0x69F632E2 EQ PUSH2 0x2A6 JUMPI DUP1 PUSH4 0x6E5B0F00 EQ PUSH2 0x2E3 JUMPI DUP1 PUSH4 0x734A2E78 EQ PUSH2 0x30E JUMPI DUP1 PUSH4 0x78C5B268 EQ PUSH2 0x34B JUMPI PUSH2 0x140 JUMP JUMPDEST DUP1 PUSH4 0x122DE8F2 EQ PUSH2 0x145 JUMPI DUP1 PUSH4 0x1628E0F5 EQ PUSH2 0x170 JUMPI DUP1 PUSH4 0x299E6283 EQ PUSH2 0x199 JUMPI DUP1 PUSH4 0x2DB6DFA7 EQ PUSH2 0x1D6 JUMPI DUP1 PUSH4 0x4471417F EQ PUSH2 0x213 JUMPI JUMPDEST PUSH1 0x0 DUP1 REVERT JUMPDEST CALLVALUE DUP1 ISZERO PUSH2 0x151 JUMPI PUSH1 0x0 DUP1 REVERT JUMPDEST POP PUSH2 0x15A PUSH2 0x5A9 JUMP JUMPDEST PUSH1 0x40 MLOAD PUSH2 0x167 SWAP2 SWAP1 PUSH2 0x1272 JUMP JUMPDEST PUSH1 0x40 MLOAD DUP1 SWAP2 SUB SWAP1 RETURN JUMPDEST CALLVALUE DUP1 ISZERO PUSH2 0x17C JUMPI PUSH1 0x0 DUP1 REVERT JUMPDEST POP PUSH2 0x197 PUSH1 0x4 DUP1 CALLDATASIZE SUB DUP2 ADD SWAP1 PUSH2 0x192 SWAP2 SWAP1 PUSH2 0x12C5 JUMP JUMPDEST PUSH2 0x5AE JUMP JUMPDEST STOP JUMPDEST CALLVALUE DUP1 ISZERO PUSH2 0x1A5 JUMPI PUSH1 0x0 DUP1 REVERT JUMPDEST POP PUSH2 0x1C0 PUSH1 0x4 DUP1 CALLDATASIZE SUB DUP2 ADD SWAP1 PUSH2 0x1BB SWAP2 SWAP1 PUSH2 0x1328 JUMP JUMPDEST PUSH2 0x854 JUMP JUMPDEST PUSH1 0x40 MLOAD PUSH2 0x1CD SWAP2 SWAP1 PUSH2 0x1401 JUMP JUMPDEST PUSH1 0x40 MLOAD DUP1 SWAP2 SUB SWAP1 RETURN JUMPDEST CALLVALUE DUP1 ISZERO PUSH2 0x1E2 JUMPI PUSH1 0x0 DUP1 REVERT JUMPDEST POP PUSH2 0x1FD PUSH1 0x4 DUP1 CALLDATASIZE SUB DUP2 ADD SWAP1 PUSH2 0x1F8 SWAP2 SWAP1 PUSH2 0x12C5 JUMP JUMPDEST PUSH2 0x880 JUMP JUMPDEST PUSH1 0x40 MLOAD PUSH2 0x20A SWAP2 SWAP1 PUSH2 0x1432 JUMP JUMPDEST PUSH1 0x40 MLOAD DUP1 SWAP2 SUB SWAP1 RETURN JUMPDEST CALLVALUE DUP1 ISZERO PUSH2 0x21F JUMPI PUSH1 0x0 DUP1 REVERT JUMPDEST POP PUSH2 0x228 PUSH2 0x8A0 JUMP JUMPDEST PUSH1 0x40 MLOAD PUSH2 0x235 SWAP2 SWAP1 PUSH2 0x1642 JUMP JUMPDEST PUSH1 0x40 MLOAD DUP1 SWAP2 SUB SWAP1 RETURN JUMPDEST CALLVALUE DUP1 ISZERO PUSH2 0x24A JUMPI PUSH1 0x0 DUP1 REVERT JUMPDEST POP PUSH2 0x253 PUSH2 0x8A5 JUMP JUMPDEST PUSH1 0x40 MLOAD PUSH2 0x260 SWAP2 SWAP1 PUSH2 0x1401 JUMP JUMPDEST PUSH1 0x40 MLOAD DUP1 SWAP2 SUB SWAP1 RETURN JUMPDEST CALLVALUE DUP1 ISZERO PUSH2 0x275 JUMPI PUSH1 0x0 DUP1 REVERT JUMPDEST POP PUSH2 0x290 PUSH1 0x4 DUP1 CALLDATASIZE SUB DUP2 ADD SWAP1 PUSH2 0x28B SWAP2 SWAP1 PUSH2 0x12C5 JUMP JUMPDEST PUSH2 0x8D2 JUMP JUMPDEST PUSH1 0x40 MLOAD PUSH2 0x29D SWAP2 SWAP1 PUSH2 0x1673 JUMP JUMPDEST PUSH1 0x40 MLOAD DUP1 SWAP2 SUB SWAP1 RETURN JUMPDEST CALLVALUE DUP1 ISZERO PUSH2 0x2B2 JUMPI PUSH1 0x0 DUP1 REVERT JUMPDEST POP PUSH2 0x2CD PUSH1 0x4 DUP1 CALLDATASIZE SUB DUP2 ADD SWAP1 PUSH2 0x2C8 SWAP2 SWAP1 PUSH2 0x12C5 JUMP JUMPDEST PUSH2 0x8FF JUMP JUMPDEST PUSH1 0x40 MLOAD PUSH2 0x2DA SWAP2 SWAP1 PUSH2 0x169D JUMP JUMPDEST PUSH1 0x40 MLOAD DUP1 SWAP2 SUB SWAP1 RETURN JUMPDEST CALLVALUE DUP1 ISZERO PUSH2 0x2EF JUMPI PUSH1 0x0 DUP1 REVERT JUMPDEST POP PUSH2 0x2F8 PUSH2 0x93F JUMP JUMPDEST PUSH1 0x40 MLOAD PUSH2 0x305 SWAP2 SWAP1 PUSH2 0x1432 JUMP JUMPDEST PUSH1 0x40 MLOAD DUP1 SWAP2 SUB SWAP1 RETURN JUMPDEST CALLVALUE DUP1 ISZERO PUSH2 0x31A JUMPI PUSH1 0x0 DUP1 REVERT JUMPDEST POP PUSH2 0x335 PUSH1 0x4 DUP1 CALLDATASIZE SUB DUP2 ADD SWAP1 PUSH2 0x330 SWAP2 SWAP1 PUSH2 0x12C5 JUMP JUMPDEST PUSH2 0x945 JUMP JUMPDEST PUSH1 0x40 MLOAD PUSH2 0x342 SWAP2 SWAP1 PUSH2 0x169D JUMP JUMPDEST PUSH1 0x40 MLOAD DUP1 SWAP2 SUB SWAP1 RETURN JUMPDEST PUSH2 0x365 PUSH1 0x4 DUP1 CALLDATASIZE SUB DUP2 ADD SWAP1 PUSH2 0x360 SWAP2 SWAP1 PUSH2 0x12C5 JUMP JUMPDEST PUSH2 0x985 JUMP JUMPDEST STOP JUMPDEST CALLVALUE DUP1 ISZERO PUSH2 0x373 JUMPI PUSH1 0x0 DUP1 REVERT JUMPDEST POP PUSH2 0x37C PUSH2 0xA59 JUMP JUMPDEST PUSH1 0x40 MLOAD PUSH2 0x389 SWAP2 SWAP1 PUSH2 0x1432 JUMP JUMPDEST PUSH1 0x40 MLOAD DUP1 SWAP2 SUB SWAP1 RETURN JUMPDEST CALLVALUE DUP1 ISZERO PUSH2 0x39E JUMPI PUSH1 0x0 DUP1 REVERT JUMPDEST POP PUSH2 0x3A7 PUSH2 0xA5F JUMP JUMPDEST PUSH1 0x40 MLOAD PUSH2 0x3B4 SWAP2 SWAP1 PUSH2 0x1432 JUMP JUMPDEST PUSH1 0x40 MLOAD DUP1 SWAP2 SUB SWAP1 RETURN JUMPDEST CALLVALUE DUP1 ISZERO PUSH2 0x3C9 JUMPI PUSH1 0x0 DUP1 REVERT JUMPDEST POP PUSH2 0x3E4 PUSH1 0x4 DUP1 CALLDATASIZE SUB DUP2 ADD SWAP1 PUSH2 0x3DF SWAP2 SWAP1 PUSH2 0x12C5 JUMP JUMPDEST PUSH2 0xA65 JUMP JUMPDEST STOP JUMPDEST PUSH2 0x400 PUSH1 0x4 DUP1 CALLDATASIZE SUB DUP2 ADD SWAP1 PUSH2 0x3FB SWAP2 SWAP1 PUSH2 0x12C5 JUMP JUMPDEST PUSH2 0xD0B JUMP JUMPDEST STOP JUMPDEST CALLVALUE DUP1 ISZERO PUSH2 0x40E JUMPI PUSH1 0x0 DUP1 REVERT JUMPDEST POP PUSH2 0x429 PUSH1 0x4 DUP1 CALLDATASIZE SUB DUP2 ADD SWAP1 PUSH2 0x424 SWAP2 SWAP1 PUSH2 0x12C5 JUMP JUMPDEST PUSH2 0xD95 JUMP JUMPDEST PUSH1 0x40 MLOAD PUSH2 0x436 SWAP2 SWAP1 PUSH2 0x16C7 JUMP JUMPDEST PUSH1 0x40 MLOAD DUP1 SWAP2 SUB SWAP1 RETURN JUMPDEST CALLVALUE DUP1 ISZERO PUSH2 0x44B JUMPI PUSH1 0x0 DUP1 REVERT JUMPDEST POP PUSH2 0x454 PUSH2 0xDA2 JUMP JUMPDEST PUSH1 0x40 MLOAD PUSH2 0x461 SWAP2 SWAP1 PUSH2 0x1432 JUMP JUMPDEST PUSH1 0x40 MLOAD DUP1 SWAP2 SUB SWAP1 RETURN JUMPDEST CALLVALUE DUP1 ISZERO PUSH2 0x476 JUMPI PUSH1 0x0 DUP1 REVERT JUMPDEST POP PUSH2 0x47F PUSH2 0xDA8 JUMP JUMPDEST PUSH1 0x40 MLOAD PUSH2 0x48C SWAP2 SWAP1 PUSH2 0x1432 JUMP JUMPDEST PUSH1 0x40 MLOAD DUP1 SWAP2 SUB SWAP1 RETURN JUMPDEST CALLVALUE DUP1 ISZERO PUSH2 0x4A1 JUMPI PUSH1 0x0 DUP1 REVERT JUMPDEST POP PUSH2 0x4BC PUSH1 0x4 DUP1 CALLDATASIZE SUB DUP2 ADD SWAP1 PUSH2 0x4B7 SWAP2 SWAP1 PUSH2 0x12C5 JUMP JUMPDEST PUSH2 0xDAE JUMP JUMPDEST PUSH1 0x40 MLOAD PUSH2 0x4C9 SWAP2 SWAP1 PUSH2 0x1673 JUMP JUMPDEST PUSH1 0x40 MLOAD DUP1 SWAP2 SUB SWAP1 RETURN JUMPDEST CALLVALUE DUP1 ISZERO PUSH2 0x4DE JUMPI PUSH1 0x0 DUP1 REVERT JUMPDEST POP PUSH2 0x4E7 PUSH2 0xDDB JUMP JUMPDEST PUSH1 0x40 MLOAD PUSH2 0x4F4 SWAP2 SWAP1 PUSH2 0x1272 JUMP JUMPDEST PUSH1 0x40 MLOAD DUP1 SWAP2 SUB SWAP1 RETURN JUMPDEST CALLVALUE DUP1 ISZERO PUSH2 0x509 JUMPI PUSH1 0x0 DUP1 REVERT JUMPDEST POP PUSH2 0x524 PUSH1 0x4 DUP1 CALLDATASIZE SUB DUP2 ADD SWAP1 PUSH2 0x51F SWAP2 SWAP1 PUSH2 0x12C5 JUMP JUMPDEST PUSH2 0xDE0 JUMP JUMPDEST PUSH1 0x40 MLOAD PUSH2 0x538 SWAP9 SWAP8 SWAP7 SWAP6 SWAP5 SWAP4 SWAP3 SWAP2 SWAP1 PUSH2 0x16FD JUMP JUMPDEST PUSH1 0x40 MLOAD DUP1 SWAP2 SUB SWAP1 RETURN JUMPDEST CALLVALUE DUP1 ISZERO PUSH2 0x54D JUMPI PUSH1 0x0 DUP1 REVERT JUMPDEST POP PUSH2 0x568 PUSH1 0x4 DUP1 CALLDATASIZE SUB DUP2 ADD SWAP1 PUSH2 0x563 SWAP2 SWAP1 PUSH2 0x12C5 JUMP JUMPDEST PUSH2 0xDF7 JUMP JUMPDEST PUSH1 0x40 MLOAD PUSH2 0x575 SWAP2 SWAP1 PUSH2 0x1432 JUMP JUMPDEST PUSH1 0x40 MLOAD DUP1 SWAP2 SUB SWAP1 RETURN JUMPDEST CALLVALUE DUP1 ISZERO PUSH2 0x58A JUMPI PUSH1 0x0 DUP1 REVERT JUMPDEST POP PUSH2 0x593 PUSH2 0xE17 JUMP JUMPDEST PUSH1 0x40 MLOAD PUSH2 0x5A0 SWAP2 SWAP1 PUSH2 0x1432 JUMP JUMPDEST PUSH1 0x40 MLOAD DUP1 SWAP2 SUB SWAP1 RETURN JUMPDEST PUSH1 0x60 SWAP1 JUMP JUMPDEST PUSH1 0x7 PUSH1 0x0 DUP3 DUP2 MSTORE PUSH1 0x20 ADD SWAP1 DUP2 MSTORE PUSH1 0x20 ADD PUSH1 0x0 KECCAK256 PUSH1 0x40 MLOAD DUP1 PUSH1 0xE0 ADD PUSH1 0x40 MSTORE SWAP1 DUP2 PUSH1 0x0 DUP3 ADD PUSH1 0x0 SWAP1 SLOAD SWAP1 PUSH2 0x100 EXP SWAP1 DIV PUSH20 0xFFFFFFFFFFFFFFFFFFFFFFFFFFFFFFFFFFFFFFFF AND PUSH20 0xFFFFFFFFFFFFFFFFFFFFFFFFFFFFFFFFFFFFFFFF AND PUSH20 0xFFFFFFFFFFFFFFFFFFFFFFFFFFFFFFFFFFFFFFFF AND DUP2 MSTORE PUSH1 0x20 ADD PUSH1 0x1 DUP3 ADD SLOAD DUP2 MSTORE PUSH1 0x20 ADD PUSH1 0x2 DUP3 ADD SLOAD DUP2 MSTORE PUSH1 0x20 ADD PUSH1 0x3 DUP3 ADD PUSH1 0x0 SWAP1 SLOAD SWAP1 PUSH2 0x100 EXP SWAP1 DIV PUSH1 0xFF AND PUSH1 0x1 DUP2 GT ISZERO PUSH2 0x65B JUMPI PUSH2 0x65A PUSH2 0x14BA JUMP JUMPDEST JUMPDEST PUSH1 0x1 DUP2 GT ISZERO PUSH2 0x66D JUMPI PUSH2 0x66C PUSH2 0x14BA JUMP JUMPDEST JUMPDEST DUP2 MSTORE PUSH1 0x20 ADD PUSH1 0x4 DUP3 ADD SLOAD DUP2 MSTORE PUSH1 0x20 ADD PUSH1 0x5 DUP3 ADD SLOAD DUP2 MSTORE PUSH1 0x20 ADD PUSH1 0x6 DUP3 ADD SLOAD DUP2 MSTORE POP POP PUSH1 0x0 PUSH1 0x1 DUP2 GT ISZERO PUSH2 0x6A3 JUMPI PUSH2 0x6A2 PUSH2 0x14BA JUMP JUMPDEST JUMPDEST DUP2 PUSH1 0x60 ADD MLOAD PUSH1 0x1 DUP2 GT ISZERO PUSH2 0x6BA JUMPI PUSH2 0x6B9 PUSH2 0x14BA JUMP JUMPDEST JUMPDEST EQ PUSH2 0x6FA JUMPI PUSH1 0x40 MLOAD PUSH32 0x8C379A000000000000000000000000000000000000000000000000000000000 DUP2 MSTORE PUSH1 0x4 ADD PUSH2 0x6F1 SWAP1 PUSH2 0x17C7 JUMP JUMPDEST PUSH1 0x40 MLOAD DUP1 SWAP2 SUB SWAP1 REVERT JUMPDEST PUSH1 0x7 PUSH1 0x0 DUP4 DUP2 MSTORE PUSH1 0x20 ADD SWAP1 DUP2 MSTORE PUSH1 0x20 ADD PUSH1 0x0 KECCAK256 PUSH1 0x40 MLOAD DUP1 PUSH1 0xE0 ADD PUSH1 0x40 MSTORE SWAP1 DUP2 PUSH1 0x0 DUP3 ADD PUSH1 0x0 SWAP1 SLOAD SWAP1 PUSH2 0x100 EXP SWAP1 DIV PUSH20 0xFFFFFFFFFFFFFFFFFFFFFFFFFFFFFFFFFFFFFFFF AND PUSH20 0xFFFFFFFFFFFFFFFFFFFFFFFFFFFFFFFFFFFFFFFF AND PUSH20 0xFFFFFFFFFFFFFFFFFFFFFFFFFFFFFFFFFFFFFFFF AND DUP2 MSTORE PUSH1 0x20 ADD PUSH1 0x1 DUP3 ADD SLOAD DUP2 MSTORE PUSH1 0x20 ADD PUSH1 0x2 DUP3 ADD SLOAD DUP2 MSTORE PUSH1 0x20 ADD PUSH1 0x3 DUP3 ADD PUSH1 0x0 SWAP1 SLOAD SWAP1 PUSH2 0x100 EXP SWAP1 DIV PUSH1 0xFF AND PUSH1 0x1 DUP2 GT ISZERO PUSH2 0x7A7 JUMPI PUSH2 0x7A6 PUSH2 0x14BA JUMP JUMPDEST JUMPDEST PUSH1 0x1 DUP2 GT ISZERO PUSH2 0x7B9 JUMPI PUSH2 0x7B8 PUSH2 0x14BA JUMP JUMPDEST JUMPDEST DUP2 MSTORE PUSH1 0x20 ADD PUSH1 0x4 DUP3 ADD SLOAD DUP2 MSTORE PUSH1 0x20 ADD PUSH1 0x5 DUP3 ADD SLOAD DUP2 MSTORE PUSH1 0x20 ADD PUSH1 0x6 DUP3 ADD SLOAD DUP2 MSTORE POP POP CALLER DUP1 PUSH20 0xFFFFFFFFFFFFFFFFFFFFFFFFFFFFFFFFFFFFFFFF AND DUP3 PUSH1 0x0 ADD MLOAD PUSH20 0xFFFFFFFFFFFFFFFFFFFFFFFFFFFFFFFFFFFFFFFF AND EQ PUSH2 0x84E JUMPI PUSH1 0x40 MLOAD PUSH32 0x8C379A000000000000000000000000000000000000000000000000000000000 DUP2 MSTORE PUSH1 0x4 ADD PUSH2 0x845 SWAP1 PUSH2 0x1833 JUMP JUMPDEST PUSH1 0x40 MLOAD DUP1 SWAP2 SUB SWAP1 REVERT JUMPDEST POP POP POP POP JUMP JUMPDEST PUSH1 0x60 DUP3 DUP3 PUSH1 0x40 MLOAD PUSH1 0x20 ADD PUSH2 0x869 SWAP3 SWAP2 SWAP1 PUSH2 0x189A JUMP JUMPDEST PUSH1 0x40 MLOAD PUSH1 0x20 DUP2 DUP4 SUB SUB DUP2 MSTORE SWAP1 PUSH1 0x40 MSTORE SWAP1 POP SWAP3 SWAP2 POP POP JUMP JUMPDEST PUSH1 0x0 PUSH1 0x3 PUSH1 0x0 DUP4 DUP2 MSTORE PUSH1 0x20 ADD SWAP1 DUP2 MSTORE PUSH1 0x20 ADD PUSH1 0x0 KECCAK256 PUSH1 0x1 ADD SLOAD SWAP1 POP SWAP2 SWAP1 POP JUMP JUMPDEST PUSH1 0x60 SWAP1 JUMP JUMPDEST PUSH1 0x60 PUSH1 0x0 PUSH1 0x8 SLOAD SWAP1 POP PUSH1 0x0 PUSH1 0x40 MLOAD DUP1 PUSH1 0x20 ADD PUSH1 0x40 MSTORE DUP1 PUSH1 0x0 DUP2 MSTORE POP SWAP1 POP JUMPDEST PUSH1 0x0 PUSH1 0x8 SLOAD SUB PUSH2 0x8C3 JUMPI POP POP SWAP1 JUMP JUMPDEST PUSH1 0x0 PUSH1 0x7 PUSH1 0x0 DUP4 DUP2 MSTORE PUSH1 0x20 ADD SWAP1 DUP2 MSTORE PUSH1 0x20 ADD PUSH1 0x0 KECCAK256 PUSH1 0x3 ADD PUSH1 0x0 SWAP1 SLOAD SWAP1 PUSH2 0x100 EXP SWAP1 DIV PUSH1 0xFF AND SWAP1 POP SWAP2 SWAP1 POP JUMP JUMPDEST PUSH1 0x0 PUSH1 0x3 PUSH1 0x0 DUP4 DUP2 MSTORE PUSH1 0x20 ADD SWAP1 DUP2 MSTORE PUSH1 0x20 ADD PUSH1 0x0 KECCAK256 PUSH1 0x0 ADD PUSH1 0x0 SWAP1 SLOAD SWAP1 PUSH2 0x100 EXP SWAP1 DIV PUSH20 0xFFFFFFFFFFFFFFFFFFFFFFFFFFFFFFFFFFFFFFFF AND SWAP1 POP SWAP2 SWAP1 POP JUMP JUMPDEST PUSH1 0x4 SLOAD DUP2 JUMP JUMPDEST PUSH1 0x0 PUSH1 0x7 PUSH1 0x0 DUP4 DUP2 MSTORE PUSH1 0x20 ADD SWAP1 DUP2 MSTORE PUSH1 0x20 ADD PUSH1 0x0 KECCAK256 PUSH1 0x0 ADD PUSH1 0x0 SWAP1 SLOAD SWAP1 PUSH2 0x100 EXP SWAP1 DIV PUSH20 0xFFFFFFFFFFFFFFFFFFFFFFFFFFFFFFFFFFFFFFFF AND SWAP1 POP SWAP2 SWAP1 POP JUMP JUMPDEST PUSH1 0x0 DUP2 LT ISZERO PUSH2 0x9C9 JUMPI PUSH1 0x40 MLOAD PUSH32 0x8C379A000000000000000000000000000000000000000000000000000000000 DUP2 MSTORE PUSH1 0x4 ADD PUSH2 0x9C0 SWAP1 PUSH2 0x1921 JUMP JUMPDEST PUSH1 0x40 MLOAD DUP1 SWAP2 SUB SWAP1 REVERT JUMPDEST DUP1 CALLVALUE LT ISZERO PUSH2 0xA0C JUMPI PUSH1 0x40 MLOAD PUSH32 0x8C379A000000000000000000000000000000000000000000000000000000000 DUP2 MSTORE PUSH1 0x4 ADD PUSH2 0xA03 SWAP1 PUSH2 0x198D JUMP JUMPDEST PUSH1 0x40 MLOAD DUP1 SWAP2 SUB SWAP1 REVERT JUMPDEST PUSH1 0x0 TIMESTAMP SWAP1 POP PUSH1 0x0 PUSH1 0x64 PUSH1 0x2 SLOAD PUSH1 0x64 PUSH2 0xA24 SWAP2 SWAP1 PUSH2 0x19DC JUMP JUMPDEST CALLVALUE PUSH2 0xA2F SWAP2 SWAP1 PUSH2 0x1A10 JUMP JUMPDEST PUSH2 0xA39 SWAP2 SWAP1 PUSH2 0x1A99 JUMP JUMPDEST SWAP1 POP PUSH1 0x0 PUSH2 0xA48 CALLER DUP5 DUP5 PUSH2 0xE1D JUMP JUMPDEST SWAP1 POP PUSH2 0xA53 DUP2 PUSH2 0xFB8 JUMP JUMPDEST POP POP POP POP JUMP JUMPDEST PUSH1 0x5 SLOAD DUP2 JUMP JUMPDEST PUSH1 0x8 SLOAD DUP2 JUMP JUMPDEST PUSH1 0x3 PUSH1 0x0 DUP3 DUP2 MSTORE PUSH1 0x20 ADD SWAP1 DUP2 MSTORE PUSH1 0x20 ADD PUSH1 0x0 KECCAK256 PUSH1 0x40 MLOAD DUP1 PUSH1 0xE0 ADD PUSH1 0x40 MSTORE SWAP1 DUP2 PUSH1 0x0 DUP3 ADD PUSH1 0x0 SWAP1 SLOAD SWAP1 PUSH2 0x100 EXP SWAP1 DIV PUSH20 0xFFFFFFFFFFFFFFFFFFFFFFFFFFFFFFFFFFFFFFFF AND PUSH20 0xFFFFFFFFFFFFFFFFFFFFFFFFFFFFFFFFFFFFFFFF AND PUSH20 0xFFFFFFFFFFFFFFFFFFFFFFFFFFFFFFFFFFFFFFFF AND DUP2 MSTORE PUSH1 0x20 ADD PUSH1 0x1 DUP3 ADD SLOAD DUP2 MSTORE PUSH1 0x20 ADD PUSH1 0x2 DUP3 ADD SLOAD DUP2 MSTORE PUSH1 0x20 ADD PUSH1 0x3 DUP3 ADD PUSH1 0x0 SWAP1 SLOAD SWAP1 PUSH2 0x100 EXP SWAP1 DIV PUSH1 0xFF AND PUSH1 0x1 DUP2 GT ISZERO PUSH2 0xB12 JUMPI PUSH2 0xB11 PUSH2 0x14BA JUMP JUMPDEST JUMPDEST PUSH1 0x1 DUP2 GT ISZERO PUSH2 0xB24 JUMPI PUSH2 0xB23 PUSH2 0x14BA JUMP JUMPDEST JUMPDEST DUP2 MSTORE PUSH1 0x20 ADD PUSH1 0x4 DUP3 ADD SLOAD DUP2 MSTORE PUSH1 0x20 ADD PUSH1 0x5 DUP3 ADD SLOAD DUP2 MSTORE PUSH1 0x20 ADD PUSH1 0x6 DUP3 ADD SLOAD DUP2 MSTORE POP POP PUSH1 0x0 PUSH1 0x1 DUP2 GT ISZERO PUSH2 0xB5A JUMPI PUSH2 0xB59 PUSH2 0x14BA JUMP JUMPDEST JUMPDEST DUP2 PUSH1 0x60 ADD MLOAD PUSH1 0x1 DUP2 GT ISZERO PUSH2 0xB71 JUMPI PUSH2 0xB70 PUSH2 0x14BA JUMP JUMPDEST JUMPDEST EQ PUSH2 0xBB1 JUMPI PUSH1 0x40 MLOAD PUSH32 0x8C379A000000000000000000000000000000000000000000000000000000000 DUP2 MSTORE PUSH1 0x4 ADD PUSH2 0xBA8 SWAP1 PUSH2 0x17C7 JUMP JUMPDEST PUSH1 0x40 MLOAD DUP1 SWAP2 SUB SWAP1 REVERT JUMPDEST PUSH1 0x3 PUSH1 0x0 DUP4 DUP2 MSTORE PUSH1 0x20 ADD SWAP1 DUP2 MSTORE PUSH1 0x20 ADD PUSH1 0x0 KECCAK256 PUSH1 0x40 MLOAD DUP1 PUSH1 0xE0 ADD PUSH1 0x40 MSTORE SWAP1 DUP2 PUSH1 0x0 DUP3 ADD PUSH1 0x0 SWAP1 SLOAD SWAP1 PUSH2 0x100 EXP SWAP1 DIV PUSH20 0xFFFFFFFFFFFFFFFFFFFFFFFFFFFFFFFFFFFFFFFF AND PUSH20 0xFFFFFFFFFFFFFFFFFFFFFFFFFFFFFFFFFFFFFFFF AND PUSH20 0xFFFFFFFFFFFFFFFFFFFFFFFFFFFFFFFFFFFFFFFF AND DUP2 MSTORE PUSH1 0x20 ADD PUSH1 0x1 DUP3 ADD SLOAD DUP2 MSTORE PUSH1 0x20 ADD PUSH1 0x2 DUP3 ADD SLOAD DUP2 MSTORE PUSH1 0x20 ADD PUSH1 0x3 DUP3 ADD PUSH1 0x0 SWAP1 SLOAD SWAP1 PUSH2 0x100 EXP SWAP1 DIV PUSH1 0xFF AND PUSH1 0x1 DUP2 GT ISZERO PUSH2 0xC5E JUMPI PUSH2 0xC5D PUSH2 0x14BA JUMP JUMPDEST JUMPDEST PUSH1 0x1 DUP2 GT ISZERO PUSH2 0xC70 JUMPI PUSH2 0xC6F PUSH2 0x14BA JUMP JUMPDEST JUMPDEST DUP2 MSTORE PUSH1 0x20 ADD PUSH1 0x4 DUP3 ADD SLOAD DUP2 MSTORE PUSH1 0x20 ADD PUSH1 0x5 DUP3 ADD SLOAD DUP2 MSTORE PUSH1 0x20 ADD PUSH1 0x6 DUP3 ADD SLOAD DUP2 MSTORE POP POP CALLER DUP1 PUSH20 0xFFFFFFFFFFFFFFFFFFFFFFFFFFFFFFFFFFFFFFFF AND DUP3 PUSH1 0x0 ADD MLOAD PUSH20 0xFFFFFFFFFFFFFFFFFFFFFFFFFFFFFFFFFFFFFFFF AND EQ PUSH2 0xD05 JUMPI PUSH1 0x40 MLOAD PUSH32 0x8C379A000000000000000000000000000000000000000000000000000000000 DUP2 MSTORE PUSH1 0x4 ADD PUSH2 0xCFC SWAP1 PUSH2 0x1833 JUMP JUMPDEST PUSH1 0x40 MLOAD DUP1 SWAP2 SUB SWAP1 REVERT JUMPDEST POP POP POP POP JUMP JUMPDEST PUSH1 0x0 DUP2 LT ISZERO PUSH2 0xD4F JUMPI PUSH1 0x40 MLOAD PUSH32 0x8C379A000000000000000000000000000000000000000000000000000000000 DUP2 MSTORE PUSH1 0x4 ADD PUSH2 0xD46 SWAP1 PUSH2 0x1921 JUMP JUMPDEST PUSH1 0x40 MLOAD DUP1 SWAP2 SUB SWAP1 REVERT JUMPDEST DUP1 CALLVALUE LT ISZERO PUSH2 0xD92 JUMPI PUSH1 0x40 MLOAD PUSH32 0x8C379A000000000000000000000000000000000000000000000000000000000 DUP2 MSTORE PUSH1 0x4 ADD PUSH2 0xD89 SWAP1 PUSH2 0x1B16 JUMP JUMPDEST PUSH1 0x40 MLOAD DUP1 SWAP2 SUB SWAP1 REVERT JUMPDEST POP JUMP JUMPDEST PUSH1 0x0 DUP2 PUSH1 0x0 SHL SWAP1 POP SWAP2 SWAP1 POP JUMP JUMPDEST PUSH1 0xA SLOAD DUP2 JUMP JUMPDEST PUSH1 0x6 SLOAD DUP2 JUMP JUMPDEST PUSH1 0x0 PUSH1 0x3 PUSH1 0x0 DUP4 DUP2 MSTORE PUSH1 0x20 ADD SWAP1 DUP2 MSTORE PUSH1 0x20 ADD PUSH1 0x0 KECCAK256 PUSH1 0x3 ADD PUSH1 0x0 SWAP1 SLOAD SWAP1 PUSH2 0x100 EXP SWAP1 DIV PUSH1 0xFF AND SWAP1 POP SWAP2 SWAP1 POP JUMP JUMPDEST PUSH1 0x60 SWAP1 JUMP JUMPDEST PUSH1 0x0 DUP1 PUSH1 0x0 DUP1 PUSH1 0x0 DUP1 PUSH1 0x0 DUP1 SWAP2 SWAP4 SWAP6 SWAP8 POP SWAP2 SWAP4 SWAP6 SWAP8 JUMP JUMPDEST PUSH1 0x0 PUSH1 0x7 PUSH1 0x0 DUP4 DUP2 MSTORE PUSH1 0x20 ADD SWAP1 DUP2 MSTORE PUSH1 0x20 ADD PUSH1 0x0 KECCAK256 PUSH1 0x1 ADD SLOAD SWAP1 POP SWAP2 SWAP1 POP JUMP JUMPDEST PUSH1 0x9 SLOAD DUP2 JUMP JUMPDEST PUSH2 0xE25 PUSH2 0x1145 JUMP JUMPDEST PUSH1 0xA PUSH1 0x0 DUP2 SLOAD DUP1 SWAP3 SWAP2 SWAP1 PUSH2 0xE38 SWAP1 PUSH2 0x1B36 JUMP JUMPDEST SWAP2 SWAP1 POP SSTORE POP PUSH1 0x0 PUSH1 0x40 MLOAD DUP1 PUSH1 0xE0 ADD PUSH1 0x40 MSTORE DUP1 DUP7 PUSH20 0xFFFFFFFFFFFFFFFFFFFFFFFFFFFFFFFFFFFFFFFF AND DUP2 MSTORE PUSH1 0x20 ADD DUP6 DUP2 MSTORE PUSH1 0x20 ADD DUP5 DUP2 MSTORE PUSH1 0x20 ADD PUSH1 0x0 PUSH1 0x1 DUP2 GT ISZERO PUSH2 0xE86 JUMPI PUSH2 0xE85 PUSH2 0x14BA JUMP JUMPDEST JUMPDEST DUP2 MSTORE PUSH1 0x20 ADD PUSH1 0xA SLOAD DUP2 MSTORE PUSH1 0x20 ADD PUSH1 0x0 DUP2 MSTORE PUSH1 0x20 ADD PUSH1 0x0 DUP2 MSTORE POP SWAP1 POP DUP1 PUSH1 0x7 PUSH1 0x0 PUSH1 0xA SLOAD DUP2 MSTORE PUSH1 0x20 ADD SWAP1 DUP2 MSTORE PUSH1 0x20 ADD PUSH1 0x0 KECCAK256 PUSH1 0x0 DUP3 ADD MLOAD DUP2 PUSH1 0x0 ADD PUSH1 0x0 PUSH2 0x100 EXP DUP2 SLOAD DUP2 PUSH20 0xFFFFFFFFFFFFFFFFFFFFFFFFFFFFFFFFFFFFFFFF MUL NOT AND SWAP1 DUP4 PUSH20 0xFFFFFFFFFFFFFFFFFFFFFFFFFFFFFFFFFFFFFFFF AND MUL OR SWAP1 SSTORE POP PUSH1 0x20 DUP3 ADD MLOAD DUP2 PUSH1 0x1 ADD SSTORE PUSH1 0x40 DUP3 ADD MLOAD DUP2 PUSH1 0x2 ADD SSTORE PUSH1 0x60 DUP3 ADD MLOAD DUP2 PUSH1 0x3 ADD PUSH1 0x0 PUSH2 0x100 EXP DUP2 SLOAD DUP2 PUSH1 0xFF MUL NOT AND SWAP1 DUP4 PUSH1 0x1 DUP2 GT ISZERO PUSH2 0xF3D JUMPI PUSH2 0xF3C PUSH2 0x14BA JUMP JUMPDEST JUMPDEST MUL OR SWAP1 SSTORE POP PUSH1 0x80 DUP3 ADD MLOAD DUP2 PUSH1 0x4 ADD SSTORE PUSH1 0xA0 DUP3 ADD MLOAD DUP2 PUSH1 0x5 ADD SSTORE PUSH1 0xC0 DUP3 ADD MLOAD DUP2 PUSH1 0x6 ADD SSTORE SWAP1 POP POP PUSH32 0x93CAF6BA1AF44020DFE6076E279533E38BD8DEEFE534C43AA8CC93AAD2025B7D DUP6 DUP6 DUP6 PUSH1 0x0 PUSH1 0xA SLOAD PUSH1 0x0 DUP1 PUSH1 0x0 PUSH1 0x40 MLOAD PUSH2 0xFA5 SWAP9 SWAP8 SWAP7 SWAP6 SWAP5 SWAP4 SWAP3 SWAP2 SWAP1 PUSH2 0x1BE4 JUMP JUMPDEST PUSH1 0x40 MLOAD DUP1 SWAP2 SUB SWAP1 LOG1 DUP1 SWAP2 POP POP SWAP4 SWAP3 POP POP POP JUMP JUMPDEST PUSH1 0x0 DUP1 PUSH1 0x8 SLOAD SUB PUSH2 0xFD3 JUMPI DUP2 PUSH1 0x80 ADD MLOAD PUSH1 0x8 DUP2 SWAP1 SSTORE POP PUSH2 0x1141 JUMP JUMPDEST DUP2 PUSH1 0x20 ADD MLOAD PUSH1 0x7 PUSH1 0x0 PUSH1 0x8 SLOAD DUP2 MSTORE PUSH1 0x20 ADD SWAP1 DUP2 MSTORE PUSH1 0x20 ADD PUSH1 0x0 KECCAK256 PUSH1 0x1 ADD SLOAD LT PUSH2 0x1035 JUMPI PUSH1 0x8 SLOAD DUP3 PUSH1 0xA0 ADD DUP2 DUP2 MSTORE POP POP DUP2 PUSH1 0x80 ADD MLOAD PUSH1 0x7 PUSH1 0x0 DUP5 PUSH1 0xA0 ADD MLOAD DUP2 MSTORE PUSH1 0x20 ADD SWAP1 DUP2 MSTORE PUSH1 0x20 ADD PUSH1 0x0 KECCAK256 PUSH1 0x6 ADD DUP2 SWAP1 SSTORE POP DUP2 PUSH1 0x80 ADD MLOAD PUSH1 0x8 DUP2 SWAP1 SSTORE POP PUSH2 0x1140 JUMP JUMPDEST PUSH1 0x8 SLOAD SWAP1 POP JUMPDEST PUSH1 0x0 PUSH1 0x7 PUSH1 0x0 DUP4 DUP2 MSTORE PUSH1 0x20 ADD SWAP1 DUP2 MSTORE PUSH1 0x20 ADD PUSH1 0x0 KECCAK256 PUSH1 0x5 ADD SLOAD EQ ISZERO DUP1 ISZERO PUSH2 0x1091 JUMPI POP DUP2 PUSH1 0x20 ADD MLOAD PUSH1 0x7 PUSH1 0x0 PUSH1 0x7 PUSH1 0x0 DUP6 DUP2 MSTORE PUSH1 0x20 ADD SWAP1 DUP2 MSTORE PUSH1 0x20 ADD PUSH1 0x0 KECCAK256 PUSH1 0x5 ADD SLOAD DUP2 MSTORE PUSH1 0x20 ADD SWAP1 DUP2 MSTORE PUSH1 0x20 ADD PUSH1 0x0 KECCAK256 PUSH1 0x1 ADD SLOAD LT JUMPDEST ISZERO PUSH2 0x10B4 JUMPI PUSH1 0x7 PUSH1 0x0 DUP3 DUP2 MSTORE PUSH1 0x20 ADD SWAP1 DUP2 MSTORE PUSH1 0x20 ADD PUSH1 0x0 KECCAK256 PUSH1 0x5 ADD SLOAD SWAP1 POP PUSH2 0x103B JUMP JUMPDEST PUSH1 0x7 PUSH1 0x0 DUP3 DUP2 MSTORE PUSH1 0x20 ADD SWAP1 DUP2 MSTORE PUSH1 0x20 ADD PUSH1 0x0 KECCAK256 PUSH1 0x5 ADD SLOAD DUP3 PUSH1 0xA0 ADD DUP2 DUP2 MSTORE POP POP PUSH1 0x0 PUSH1 0x7 PUSH1 0x0 DUP4 DUP2 MSTORE PUSH1 0x20 ADD SWAP1 DUP2 MSTORE PUSH1 0x20 ADD PUSH1 0x0 KECCAK256 PUSH1 0x5 ADD SLOAD EQ PUSH2 0x1116 JUMPI DUP2 PUSH1 0x80 ADD MLOAD PUSH1 0x7 PUSH1 0x0 DUP5 PUSH1 0xA0 ADD MLOAD DUP2 MSTORE PUSH1 0x20 ADD SWAP1 DUP2 MSTORE PUSH1 0x20 ADD PUSH1 0x0 KECCAK256 PUSH1 0x6 ADD DUP2 SWAP1 SSTORE POP JUMPDEST DUP2 PUSH1 0x80 ADD MLOAD PUSH1 0x7 PUSH1 0x0 DUP4 DUP2 MSTORE PUSH1 0x20 ADD SWAP1 DUP2 MSTORE PUSH1 0x20 ADD PUSH1 0x0 KECCAK256 PUSH1 0x5 ADD DUP2 SWAP1 SSTORE POP DUP1 DUP3 PUSH1 0xC0 ADD DUP2 DUP2 MSTORE POP POP JUMPDEST JUMPDEST POP POP JUMP JUMPDEST PUSH1 0x40 MLOAD DUP1 PUSH1 0xE0 ADD PUSH1 0x40 MSTORE DUP1 PUSH1 0x0 PUSH20 0xFFFFFFFFFFFFFFFFFFFFFFFFFFFFFFFFFFFFFFFF AND DUP2 MSTORE PUSH1 0x20 ADD PUSH1 0x0 DUP2 MSTORE PUSH1 0x20 ADD PUSH1 0x0 DUP2 MSTORE PUSH1 0x20 ADD PUSH1 0x0 PUSH1 0x1 DUP2 GT ISZERO PUSH2 0x118F JUMPI PUSH2 0x118E PUSH2 0x14BA JUMP JUMPDEST JUMPDEST DUP2 MSTORE PUSH1 0x20 ADD PUSH1 0x0 DUP2 MSTORE PUSH1 0x20 ADD PUSH1 0x0 DUP2 MSTORE PUSH1 0x20 ADD PUSH1 0x0 DUP2 MSTORE POP SWAP1 JUMP JUMPDEST PUSH1 0x0 DUP2 MLOAD SWAP1 POP SWAP2 SWAP1 POP JUMP JUMPDEST PUSH1 0x0 DUP3 DUP3 MSTORE PUSH1 0x20 DUP3 ADD SWAP1 POP SWAP3 SWAP2 POP POP JUMP JUMPDEST PUSH1 0x0 DUP2 SWAP1 POP PUSH1 0x20 DUP3 ADD SWAP1 POP SWAP2 SWAP1 POP JUMP JUMPDEST PUSH1 0x0 DUP2 SWAP1 POP SWAP2 SWAP1 POP JUMP JUMPDEST PUSH2 0x11E9 DUP2 PUSH2 0x11D6 JUMP JUMPDEST DUP3 MSTORE POP POP JUMP JUMPDEST PUSH1 0x0 PUSH2 0x11FB DUP4 DUP4 PUSH2 0x11E0 JUMP JUMPDEST PUSH1 0x20 DUP4 ADD SWAP1 POP SWAP3 SWAP2 POP POP JUMP JUMPDEST PUSH1 0x0 PUSH1 0x20 DUP3 ADD SWAP1 POP SWAP2 SWAP1 POP JUMP JUMPDEST PUSH1 0x0 PUSH2 0x121F DUP3 PUSH2 0x11AA JUMP JUMPDEST PUSH2 0x1229 DUP2 DUP6 PUSH2 0x11B5 JUMP JUMPDEST SWAP4 POP PUSH2 0x1234 DUP4 PUSH2 0x11C6 JUMP JUMPDEST DUP1 PUSH1 0x0 JUMPDEST DUP4 DUP2 LT ISZERO PUSH2 0x1265 JUMPI DUP2 MLOAD PUSH2 0x124C DUP9 DUP3 PUSH2 0x11EF JUMP JUMPDEST SWAP8 POP PUSH2 0x1257 DUP4 PUSH2 0x1207 JUMP JUMPDEST SWAP3 POP POP PUSH1 0x1 DUP2 ADD SWAP1 POP PUSH2 0x1238 JUMP JUMPDEST POP DUP6 SWAP4 POP POP POP POP SWAP3 SWAP2 POP POP JUMP JUMPDEST PUSH1 0x0 PUSH1 0x20 DUP3 ADD SWAP1 POP DUP2 DUP2 SUB PUSH1 0x0 DUP4 ADD MSTORE PUSH2 0x128C DUP2 DUP5 PUSH2 0x1214 JUMP JUMPDEST SWAP1 POP SWAP3 SWAP2 POP POP JUMP JUMPDEST PUSH1 0x0 DUP1 REVERT JUMPDEST PUSH2 0x12A2 DUP2 PUSH2 0x11D6 JUMP JUMPDEST DUP2 EQ PUSH2 0x12AD JUMPI PUSH1 0x0 DUP1 REVERT JUMPDEST POP JUMP JUMPDEST PUSH1 0x0 DUP2 CALLDATALOAD SWAP1 POP PUSH2 0x12BF DUP2 PUSH2 0x1299 JUMP JUMPDEST SWAP3 SWAP2 POP POP JUMP JUMPDEST PUSH1 0x0 PUSH1 0x20 DUP3 DUP5 SUB SLT ISZERO PUSH2 0x12DB JUMPI PUSH2 0x12DA PUSH2 0x1294 JUMP JUMPDEST JUMPDEST PUSH1 0x0 PUSH2 0x12E9 DUP5 DUP3 DUP6 ADD PUSH2 0x12B0 JUMP JUMPDEST SWAP2 POP POP SWAP3 SWAP2 POP POP JUMP JUMPDEST PUSH1 0x0 DUP2 SWAP1 POP SWAP2 SWAP1 POP JUMP JUMPDEST PUSH2 0x1305 DUP2 PUSH2 0x12F2 JUMP JUMPDEST DUP2 EQ PUSH2 0x1310 JUMPI PUSH1 0x0 DUP1 REVERT JUMPDEST POP JUMP JUMPDEST PUSH1 0x0 DUP2 CALLDATALOAD SWAP1 POP PUSH2 0x1322 DUP2 PUSH2 0x12FC JUMP JUMPDEST SWAP3 SWAP2 POP POP JUMP JUMPDEST PUSH1 0x0 DUP1 PUSH1 0x40 DUP4 DUP6 SUB SLT ISZERO PUSH2 0x133F JUMPI PUSH2 0x133E PUSH2 0x1294 JUMP JUMPDEST JUMPDEST PUSH1 0x0 PUSH2 0x134D DUP6 DUP3 DUP7 ADD PUSH2 0x1313 JUMP JUMPDEST SWAP3 POP POP PUSH1 0x20 PUSH2 0x135E DUP6 DUP3 DUP7 ADD PUSH2 0x1313 JUMP JUMPDEST SWAP2 POP POP SWAP3 POP SWAP3 SWAP1 POP JUMP JUMPDEST PUSH1 0x0 DUP2 MLOAD SWAP1 POP SWAP2 SWAP1 POP JUMP JUMPDEST PUSH1 0x0 DUP3 DUP3 MSTORE PUSH1 0x20 DUP3 ADD SWAP1 POP SWAP3 SWAP2 POP POP JUMP JUMPDEST PUSH1 0x0 JUMPDEST DUP4 DUP2 LT ISZERO PUSH2 0x13A2 JUMPI DUP1 DUP3 ADD MLOAD DUP2 DUP5 ADD MSTORE PUSH1 0x20 DUP2 ADD SWAP1 POP PUSH2 0x1387 JUMP JUMPDEST DUP4 DUP2 GT ISZERO PUSH2 0x13B1 JUMPI PUSH1 0x0 DUP5 DUP5 ADD MSTORE JUMPDEST POP POP POP POP JUMP JUMPDEST PUSH1 0x0 PUSH1 0x1F NOT PUSH1 0x1F DUP4 ADD AND SWAP1 POP SWAP2 SWAP1 POP JUMP JUMPDEST PUSH1 0x0 PUSH2 0x13D3 DUP3 PUSH2 0x1368 JUMP JUMPDEST PUSH2 0x13DD DUP2 DUP6 PUSH2 0x1373 JUMP JUMPDEST SWAP4 POP PUSH2 0x13ED DUP2 DUP6 PUSH1 0x20 DUP7 ADD PUSH2 0x1384 JUMP JUMPDEST PUSH2 0x13F6 DUP2 PUSH2 0x13B7 JUMP JUMPDEST DUP5 ADD SWAP2 POP POP SWAP3 SWAP2 POP POP JUMP JUMPDEST PUSH1 0x0 PUSH1 0x20 DUP3 ADD SWAP1 POP DUP2 DUP2 SUB PUSH1 0x0 DUP4 ADD MSTORE PUSH2 0x141B DUP2 DUP5 PUSH2 0x13C8 JUMP JUMPDEST SWAP1 POP SWAP3 SWAP2 POP POP JUMP JUMPDEST PUSH2 0x142C DUP2 PUSH2 0x11D6 JUMP JUMPDEST DUP3 MSTORE POP POP JUMP JUMPDEST PUSH1 0x0 PUSH1 0x20 DUP3 ADD SWAP1 POP PUSH2 0x1447 PUSH1 0x0 DUP4 ADD DUP5 PUSH2 0x1423 JUMP JUMPDEST SWAP3 SWAP2 POP POP JUMP JUMPDEST PUSH1 0x0 DUP2 MLOAD SWAP1 POP SWAP2 SWAP1 POP JUMP JUMPDEST PUSH1 0x0 DUP3 DUP3 MSTORE PUSH1 0x20 DUP3 ADD SWAP1 POP SWAP3 SWAP2 POP POP JUMP JUMPDEST PUSH1 0x0 DUP2 SWAP1 POP PUSH1 0x20 DUP3 ADD SWAP1 POP SWAP2 SWAP1 POP JUMP JUMPDEST PUSH1 0x0 PUSH20 0xFFFFFFFFFFFFFFFFFFFFFFFFFFFFFFFFFFFFFFFF DUP3 AND SWAP1 POP SWAP2 SWAP1 POP JUMP JUMPDEST PUSH1 0x0 PUSH2 0x14A4 DUP3 PUSH2 0x1479 JUMP JUMPDEST SWAP1 POP SWAP2 SWAP1 POP JUMP JUMPDEST PUSH2 0x14B4 DUP2 PUSH2 0x1499 JUMP JUMPDEST DUP3 MSTORE POP POP JUMP JUMPDEST PUSH32 0x4E487B7100000000000000000000000000000000000000000000000000000000 PUSH1 0x0 MSTORE PUSH1 0x21 PUSH1 0x4 MSTORE PUSH1 0x24 PUSH1 0x0 REVERT JUMPDEST PUSH1 0x2 DUP2 LT PUSH2 0x14FA JUMPI PUSH2 0x14F9 PUSH2 0x14BA JUMP JUMPDEST JUMPDEST POP JUMP JUMPDEST PUSH1 0x0 DUP2 SWAP1 POP PUSH2 0x150B DUP3 PUSH2 0x14E9 JUMP JUMPDEST SWAP2 SWAP1 POP JUMP JUMPDEST PUSH1 0x0 PUSH2 0x151B DUP3 PUSH2 0x14FD JUMP JUMPDEST SWAP1 POP SWAP2 SWAP1 POP JUMP JUMPDEST PUSH2 0x152B DUP2 PUSH2 0x1510 JUMP JUMPDEST DUP3 MSTORE POP POP JUMP JUMPDEST PUSH1 0xE0 DUP3 ADD PUSH1 0x0 DUP3 ADD MLOAD PUSH2 0x1547 PUSH1 0x0 DUP6 ADD DUP3 PUSH2 0x14AB JUMP JUMPDEST POP PUSH1 0x20 DUP3 ADD MLOAD PUSH2 0x155A PUSH1 0x20 DUP6 ADD DUP3 PUSH2 0x11E0 JUMP JUMPDEST POP PUSH1 0x40 DUP3 ADD MLOAD PUSH2 0x156D PUSH1 0x40 DUP6 ADD DUP3 PUSH2 0x11E0 JUMP JUMPDEST POP PUSH1 0x60 DUP3 ADD MLOAD PUSH2 0x1580 PUSH1 0x60 DUP6 ADD DUP3 PUSH2 0x1522 JUMP JUMPDEST POP PUSH1 0x80 DUP3 ADD MLOAD PUSH2 0x1593 PUSH1 0x80 DUP6 ADD DUP3 PUSH2 0x11E0 JUMP JUMPDEST POP PUSH1 0xA0 DUP3 ADD MLOAD PUSH2 0x15A6 PUSH1 0xA0 DUP6 ADD DUP3 PUSH2 0x11E0 JUMP JUMPDEST POP PUSH1 0xC0 DUP3 ADD MLOAD PUSH2 0x15B9 PUSH1 0xC0 DUP6 ADD DUP3 PUSH2 0x11E0 JUMP JUMPDEST POP POP POP POP JUMP JUMPDEST PUSH1 0x0 PUSH2 0x15CB DUP4 DUP4 PUSH2 0x1531 JUMP JUMPDEST PUSH1 0xE0 DUP4 ADD SWAP1 POP SWAP3 SWAP2 POP POP JUMP JUMPDEST PUSH1 0x0 PUSH1 0x20 DUP3 ADD SWAP1 POP SWAP2 SWAP1 POP JUMP JUMPDEST PUSH1 0x0 PUSH2 0x15EF DUP3 PUSH2 0x144D JUMP JUMPDEST PUSH2 0x15F9 DUP2 DUP6 PUSH2 0x1458 JUMP JUMPDEST SWAP4 POP PUSH2 0x1604 DUP4 PUSH2 0x1469 JUMP JUMPDEST DUP1 PUSH1 0x0 JUMPDEST DUP4 DUP2 LT ISZERO PUSH2 0x1635 JUMPI DUP2 MLOAD PUSH2 0x161C DUP9 DUP3 PUSH2 0x15BF JUMP JUMPDEST SWAP8 POP PUSH2 0x1627 DUP4 PUSH2 0x15D7 JUMP JUMPDEST SWAP3 POP POP PUSH1 0x1 DUP2 ADD SWAP1 POP PUSH2 0x1608 JUMP JUMPDEST POP DUP6 SWAP4 POP POP POP POP SWAP3 SWAP2 POP POP JUMP JUMPDEST PUSH1 0x0 PUSH1 0x20 DUP3 ADD SWAP1 POP DUP2 DUP2 SUB PUSH1 0x0 DUP4 ADD MSTORE PUSH2 0x165C DUP2 DUP5 PUSH2 0x15E4 JUMP JUMPDEST SWAP1 POP SWAP3 SWAP2 POP POP JUMP JUMPDEST PUSH2 0x166D DUP2 PUSH2 0x1510 JUMP JUMPDEST DUP3 MSTORE POP POP JUMP JUMPDEST PUSH1 0x0 PUSH1 0x20 DUP3 ADD SWAP1 POP PUSH2 0x1688 PUSH1 0x0 DUP4 ADD DUP5 PUSH2 0x1664 JUMP JUMPDEST SWAP3 SWAP2 POP POP JUMP JUMPDEST PUSH2 0x1697 DUP2 PUSH2 0x1499 JUMP JUMPDEST DUP3 MSTORE POP POP JUMP JUMPDEST PUSH1 0x0 PUSH1 0x20 DUP3 ADD SWAP1 POP PUSH2 0x16B2 PUSH1 0x0 DUP4 ADD DUP5 PUSH2 0x168E JUMP JUMPDEST SWAP3 SWAP2 POP POP JUMP JUMPDEST PUSH2 0x16C1 DUP2 PUSH2 0x12F2 JUMP JUMPDEST DUP3 MSTORE POP POP JUMP JUMPDEST PUSH1 0x0 PUSH1 0x20 DUP3 ADD SWAP1 POP PUSH2 0x16DC PUSH1 0x0 DUP4 ADD DUP5 PUSH2 0x16B8 JUMP JUMPDEST SWAP3 SWAP2 POP POP JUMP JUMPDEST PUSH1 0x0 DUP2 ISZERO ISZERO SWAP1 POP SWAP2 SWAP1 POP JUMP JUMPDEST PUSH2 0x16F7 DUP2 PUSH2 0x16E2 JUMP JUMPDEST DUP3 MSTORE POP POP JUMP JUMPDEST PUSH1 0x0 PUSH2 0x100 DUP3 ADD SWAP1 POP PUSH2 0x1713 PUSH1 0x0 DUP4 ADD DUP12 PUSH2 0x168E JUMP JUMPDEST PUSH2 0x1720 PUSH1 0x20 DUP4 ADD DUP11 PUSH2 0x1423 JUMP JUMPDEST PUSH2 0x172D PUSH1 0x40 DUP4 ADD DUP10 PUSH2 0x1423 JUMP JUMPDEST PUSH2 0x173A PUSH1 0x60 DUP4 ADD DUP9 PUSH2 0x1664 JUMP JUMPDEST PUSH2 0x1747 PUSH1 0x80 DUP4 ADD DUP8 PUSH2 0x1423 JUMP JUMPDEST PUSH2 0x1754 PUSH1 0xA0 DUP4 ADD DUP7 PUSH2 0x1423 JUMP JUMPDEST PUSH2 0x1761 PUSH1 0xC0 DUP4 ADD DUP6 PUSH2 0x1423 JUMP JUMPDEST PUSH2 0x176E PUSH1 0xE0 DUP4 ADD DUP5 PUSH2 0x16EE JUMP JUMPDEST SWAP10 SWAP9 POP POP POP POP POP POP POP POP POP JUMP JUMPDEST PUSH32 0x4F726465722050656E64696E6700000000000000000000000000000000000000 PUSH1 0x0 DUP3 ADD MSTORE POP JUMP JUMPDEST PUSH1 0x0 PUSH2 0x17B1 PUSH1 0xD DUP4 PUSH2 0x1373 JUMP JUMPDEST SWAP2 POP PUSH2 0x17BC DUP3 PUSH2 0x177B JUMP JUMPDEST PUSH1 0x20 DUP3 ADD SWAP1 POP SWAP2 SWAP1 POP JUMP JUMPDEST PUSH1 0x0 PUSH1 0x20 DUP3 ADD SWAP1 POP DUP2 DUP2 SUB PUSH1 0x0 DUP4 ADD MSTORE PUSH2 0x17E0 DUP2 PUSH2 0x17A4 JUMP JUMPDEST SWAP1 POP SWAP2 SWAP1 POP JUMP JUMPDEST PUSH32 0x4E6F7420417574686F7269736564000000000000000000000000000000000000 PUSH1 0x0 DUP3 ADD MSTORE POP JUMP JUMPDEST PUSH1 0x0 PUSH2 0x181D PUSH1 0xE DUP4 PUSH2 0x1373 JUMP JUMPDEST SWAP2 POP PUSH2 0x1828 DUP3 PUSH2 0x17E7 JUMP JUMPDEST PUSH1 0x20 DUP3 ADD SWAP1 POP SWAP2 SWAP1 POP JUMP JUMPDEST PUSH1 0x0 PUSH1 0x20 DUP3 ADD SWAP1 POP DUP2 DUP2 SUB PUSH1 0x0 DUP4 ADD MSTORE PUSH2 0x184C DUP2 PUSH2 0x1810 JUMP JUMPDEST SWAP1 POP SWAP2 SWAP1 POP JUMP JUMPDEST PUSH1 0x0 DUP2 SWAP1 POP SWAP2 SWAP1 POP JUMP JUMPDEST PUSH2 0x186E PUSH2 0x1869 DUP3 PUSH2 0x12F2 JUMP JUMPDEST PUSH2 0x1853 JUMP JUMPDEST DUP3 MSTORE POP POP JUMP JUMPDEST PUSH32 0x202C200000000000000000000000000000000000000000000000000000000000 DUP2 MSTORE POP JUMP JUMPDEST PUSH1 0x0 PUSH2 0x18A6 DUP3 DUP6 PUSH2 0x185D JUMP JUMPDEST PUSH1 0x20 DUP3 ADD SWAP2 POP PUSH2 0x18B5 DUP3 PUSH2 0x1874 JUMP JUMPDEST PUSH1 0x3 DUP3 ADD SWAP2 POP PUSH2 0x18C5 DUP3 DUP5 PUSH2 0x185D JUMP JUMPDEST PUSH1 0x20 DUP3 ADD SWAP2 POP DUP2 SWAP1 POP SWAP4 SWAP3 POP POP POP JUMP JUMPDEST PUSH32 0x70726963652076616C7565206D757374206265206D6F7265207468616E203000 PUSH1 0x0 DUP3 ADD MSTORE POP JUMP JUMPDEST PUSH1 0x0 PUSH2 0x190B PUSH1 0x1F DUP4 PUSH2 0x1373 JUMP JUMPDEST SWAP2 POP PUSH2 0x1916 DUP3 PUSH2 0x18D5 JUMP JUMPDEST PUSH1 0x20 DUP3 ADD SWAP1 POP SWAP2 SWAP1 POP JUMP JUMPDEST PUSH1 0x0 PUSH1 0x20 DUP3 ADD SWAP1 POP DUP2 DUP2 SUB PUSH1 0x0 DUP4 ADD MSTORE PUSH2 0x193A DUP2 PUSH2 0x18FE JUMP JUMPDEST SWAP1 POP SWAP2 SWAP1 POP JUMP JUMPDEST PUSH32 0x4E6F7420656E6F75676820626C616E636520746F20706C6163652061736B0000 PUSH1 0x0 DUP3 ADD MSTORE POP JUMP JUMPDEST PUSH1 0x0 PUSH2 0x1977 PUSH1 0x1E DUP4 PUSH2 0x1373 JUMP JUMPDEST SWAP2 POP PUSH2 0x1982 DUP3 PUSH2 0x1941 JUMP JUMPDEST PUSH1 0x20 DUP3 ADD SWAP1 POP SWAP2 SWAP1 POP JUMP JUMPDEST PUSH1 0x0 PUSH1 0x20 DUP3 ADD SWAP1 POP DUP2 DUP2 SUB PUSH1 0x0 DUP4 ADD MSTORE PUSH2 0x19A6 DUP2 PUSH2 0x196A JUMP JUMPDEST SWAP1 POP SWAP2 SWAP1 POP JUMP JUMPDEST PUSH32 0x4E487B7100000000000000000000000000000000000000000000000000000000 PUSH1 0x0 MSTORE PUSH1 0x11 PUSH1 0x4 MSTORE PUSH1 0x24 PUSH1 0x0 REVERT JUMPDEST PUSH1 0x0 PUSH2 0x19E7 DUP3 PUSH2 0x11D6 JUMP JUMPDEST SWAP2 POP PUSH2 0x19F2 DUP4 PUSH2 0x11D6 JUMP JUMPDEST SWAP3 POP DUP3 DUP3 LT ISZERO PUSH2 0x1A05 JUMPI PUSH2 0x1A04 PUSH2 0x19AD JUMP JUMPDEST JUMPDEST DUP3 DUP3 SUB SWAP1 POP SWAP3 SWAP2 POP POP JUMP JUMPDEST PUSH1 0x0 PUSH2 0x1A1B DUP3 PUSH2 0x11D6 JUMP JUMPDEST SWAP2 POP PUSH2 0x1A26 DUP4 PUSH2 0x11D6 JUMP JUMPDEST SWAP3 POP DUP2 PUSH32 0xFFFFFFFFFFFFFFFFFFFFFFFFFFFFFFFFFFFFFFFFFFFFFFFFFFFFFFFFFFFFFFFF DIV DUP4 GT DUP3 ISZERO ISZERO AND ISZERO PUSH2 0x1A5F JUMPI PUSH2 0x1A5E PUSH2 0x19AD JUMP JUMPDEST JUMPDEST DUP3 DUP3 MUL SWAP1 POP SWAP3 SWAP2 POP POP JUMP JUMPDEST PUSH32 0x4E487B7100000000000000000000000000000000000000000000000000000000 PUSH1 0x0 MSTORE PUSH1 0x12 PUSH1 0x4 MSTORE PUSH1 0x24 PUSH1 0x0 REVERT JUMPDEST PUSH1 0x0 PUSH2 0x1AA4 DUP3 PUSH2 0x11D6 JUMP JUMPDEST SWAP2 POP PUSH2 0x1AAF DUP4 PUSH2 0x11D6 JUMP JUMPDEST SWAP3 POP DUP3 PUSH2 0x1ABF JUMPI PUSH2 0x1ABE PUSH2 0x1A6A JUMP JUMPDEST JUMPDEST DUP3 DUP3 DIV SWAP1 POP SWAP3 SWAP2 POP POP JUMP JUMPDEST PUSH32 0x4E6F7420656E6F75676820626C616E636520746F20706C616365206269640000 PUSH1 0x0 DUP3 ADD MSTORE POP JUMP JUMPDEST PUSH1 0x0 PUSH2 0x1B00 PUSH1 0x1E DUP4 PUSH2 0x1373 JUMP JUMPDEST SWAP2 POP PUSH2 0x1B0B DUP3 PUSH2 0x1ACA JUMP JUMPDEST PUSH1 0x20 DUP3 ADD SWAP1 POP SWAP2 SWAP1 POP JUMP JUMPDEST PUSH1 0x0 PUSH1 0x20 DUP3 ADD SWAP1 POP DUP2 DUP2 SUB PUSH1 0x0 DUP4 ADD MSTORE PUSH2 0x1B2F DUP2 PUSH2 0x1AF3 JUMP JUMPDEST SWAP1 POP SWAP2 SWAP1 POP JUMP JUMPDEST PUSH1 0x0 PUSH2 0x1B41 DUP3 PUSH2 0x11D6 JUMP JUMPDEST SWAP2 POP PUSH32 0xFFFFFFFFFFFFFFFFFFFFFFFFFFFFFFFFFFFFFFFFFFFFFFFFFFFFFFFFFFFFFFFF DUP3 SUB PUSH2 0x1B73 JUMPI PUSH2 0x1B72 PUSH2 0x19AD JUMP JUMPDEST JUMPDEST PUSH1 0x1 DUP3 ADD SWAP1 POP SWAP2 SWAP1 POP JUMP JUMPDEST PUSH1 0x0 PUSH2 0x1B89 DUP3 PUSH2 0x1479 JUMP JUMPDEST SWAP1 POP SWAP2 SWAP1 POP JUMP JUMPDEST PUSH2 0x1B99 DUP2 PUSH2 0x1B7E JUMP JUMPDEST DUP3 MSTORE POP POP JUMP JUMPDEST PUSH1 0x0 DUP2 SWAP1 POP SWAP2 SWAP1 POP JUMP JUMPDEST PUSH1 0x0 DUP2 SWAP1 POP SWAP2 SWAP1 POP JUMP JUMPDEST PUSH1 0x0 PUSH2 0x1BCE PUSH2 0x1BC9 PUSH2 0x1BC4 DUP5 PUSH2 0x1B9F JUMP JUMPDEST PUSH2 0x1BA9 JUMP JUMPDEST PUSH2 0x11D6 JUMP JUMPDEST SWAP1 POP SWAP2 SWAP1 POP JUMP JUMPDEST PUSH2 0x1BDE DUP2 PUSH2 0x1BB3 JUMP JUMPDEST DUP3 MSTORE POP POP JUMP JUMPDEST PUSH1 0x0 PUSH2 0x100 DUP3 ADD SWAP1 POP PUSH2 0x1BFA PUSH1 0x0 DUP4 ADD DUP12 PUSH2 0x1B90 JUMP JUMPDEST PUSH2 0x1C07 PUSH1 0x20 DUP4 ADD DUP11 PUSH2 0x1423 JUMP JUMPDEST PUSH2 0x1C14 PUSH1 0x40 DUP4 ADD DUP10 PUSH2 0x1423 JUMP JUMPDEST PUSH2 0x1C21 PUSH1 0x60 DUP4 ADD DUP9 PUSH2 0x1664 JUMP JUMPDEST PUSH2 0x1C2E PUSH1 0x80 DUP4 ADD DUP8 PUSH2 0x1423 JUMP JUMPDEST PUSH2 0x1C3B PUSH1 0xA0 DUP4 ADD DUP7 PUSH2 0x1BD5 JUMP JUMPDEST PUSH2 0x1C48 PUSH1 0xC0 DUP4 ADD DUP6 PUSH2 0x1BD5 JUMP JUMPDEST PUSH2 0x1C55 PUSH1 0xE0 DUP4 ADD DUP5 PUSH2 0x16EE JUMP JUMPDEST SWAP10 SWAP9 POP POP POP POP POP POP POP POP POP JUMP INVALID LOG2 PUSH5 0x6970667358 0x22 SLT KECCAK256 GASLIMIT PUSH10 0xA4E042C7EF5F161729C0 0xFC SWAP13 CHAINID 0xD 0xF9 0xC DUP1 0xEB PUSH21 0xBB613AE9FD5A8020C6AD464736F6C634300080D00 CALLER "
				},
				"gasEstimates": {
					"creation": {
						"codeDepositCost": "1464000",
						"executionCost": "infinite",
						"totalCost": "infinite"
					},
					"external": {
						"AppendString(bytes32,bytes32)": "infinite",
						"askCount()": "2562",
						"askHead()": "2474",
						"askTail()": "2561",
						"bidCount()": "2451",
						"bidHead()": "2518",
						"bidTail()": "2452",
						"cancelAsk(uint256)": "31089",
						"cancelBid(uint256)": "31110",
						"convert(uint256)": "719",
						"fetchAllBid()": "infinite",
						"fetchAsk()": "infinite",
						"fetchYourAskIds()": "infinite",
						"fetchYourBidIds()": "infinite",
						"getAskAddress(uint256)": "2982",
						"getAskState(uint256)": "2962",
						"getAskValue(uint256)": "infinite",
						"getBidAddress(uint256)": "2938",
						"getBidState(uint256)": "2961",
						"getBidValue(uint256)": "infinite",
						"getOrder(uint256)": "infinite",
						"placeAsk(uint256)": "infinite",
						"placeBid(uint256)": "809"
					},
					"internal": {
						"askBid(uint256,uint256)": "infinite",
						"createAsk(address,uint256,uint256)": "infinite",
						"createBid(address,uint256,uint256)": "infinite",
						"insertionSortAsk()": "infinite",
						"linkBid(uint256,uint256)": "infinite",
						"setAskHead(uint256)": "infinite",
						"setAskTail(uint256)": "infinite",
						"setBidHead(uint256)": "infinite",
						"setBidTail(uint256)": "infinite",
						"sortAsk(struct OrderBook.order memory)": "infinite"
					}
				},
				"methodIdentifiers": {
					"AppendString(bytes32,bytes32)": "299e6283",
					"askCount()": "a394fda7",
					"askHead()": "801d9bbd",
					"askTail()": "ecdfb860",
					"bidCount()": "b40a5627",
					"bidHead()": "6e5b0f00",
					"bidTail()": "7bb51193",
					"cancelAsk(uint256)": "1628e0f5",
					"cancelBid(uint256)": "9703ef35",
					"convert(uint256)": "a3908e1b",
					"fetchAllBid()": "4471417f",
					"fetchAsk()": "44e791e0",
					"fetchYourAskIds()": "122de8f2",
					"fetchYourBidIds()": "ce0cdc87",
					"getAskAddress(uint256)": "734a2e78",
					"getAskState(uint256)": "4d46712d",
					"getAskValue(uint256)": "db3a1396",
					"getBidAddress(uint256)": "69f632e2",
					"getBidState(uint256)": "bf77ffae",
					"getBidValue(uint256)": "2db6dfa7",
					"getOrder(uint256)": "d09ef241",
					"placeAsk(uint256)": "78c5b268",
					"placeBid(uint256)": "9979ef45"
				}
			},
			"storageLayout": {
				"storage": [
					{
						"astId": 8,
						"contract": "contracts/OrderBook.sol:OrderBook",
						"label": "bidValues",
						"offset": 0,
						"slot": "0",
						"type": "t_mapping(t_uint256,t_uint256)"
					},
					{
						"astId": 15,
						"contract": "contracts/OrderBook.sol:OrderBook",
						"label": "_owner",
						"offset": 0,
						"slot": "1",
						"type": "t_address_payable"
					},
					{
						"astId": 17,
						"contract": "contracts/OrderBook.sol:OrderBook",
						"label": "commission",
						"offset": 0,
						"slot": "2",
						"type": "t_uint256"
					},
					{
						"astId": 38,
						"contract": "contracts/OrderBook.sol:OrderBook",
						"label": "bidBook",
						"offset": 0,
						"slot": "3",
						"type": "t_mapping(t_uint256,t_struct(order)33_storage)"
					},
					{
						"astId": 40,
						"contract": "contracts/OrderBook.sol:OrderBook",
						"label": "bidHead",
						"offset": 0,
						"slot": "4",
						"type": "t_uint256"
					},
					{
						"astId": 42,
						"contract": "contracts/OrderBook.sol:OrderBook",
						"label": "bidTail",
						"offset": 0,
						"slot": "5",
						"type": "t_uint256"
					},
					{
						"astId": 44,
						"contract": "contracts/OrderBook.sol:OrderBook",
						"label": "bidCount",
						"offset": 0,
						"slot": "6",
						"type": "t_uint256"
					},
					{
						"astId": 49,
						"contract": "contracts/OrderBook.sol:OrderBook",
						"label": "askBook",
						"offset": 0,
						"slot": "7",
						"type": "t_mapping(t_uint256,t_struct(order)33_storage)"
					},
					{
						"astId": 51,
						"contract": "contracts/OrderBook.sol:OrderBook",
						"label": "askHead",
						"offset": 0,
						"slot": "8",
						"type": "t_uint256"
					},
					{
						"astId": 53,
						"contract": "contracts/OrderBook.sol:OrderBook",
						"label": "askTail",
						"offset": 0,
						"slot": "9",
						"type": "t_uint256"
					},
					{
						"astId": 55,
						"contract": "contracts/OrderBook.sol:OrderBook",
						"label": "askCount",
						"offset": 0,
						"slot": "10",
						"type": "t_uint256"
					}
				],
				"types": {
					"t_address_payable": {
						"encoding": "inplace",
						"label": "address payable",
						"numberOfBytes": "20"
					},
					"t_enum(State)4": {
						"encoding": "inplace",
						"label": "enum OrderBook.State",
						"numberOfBytes": "1"
					},
					"t_mapping(t_uint256,t_struct(order)33_storage)": {
						"encoding": "mapping",
						"key": "t_uint256",
						"label": "mapping(uint256 => struct OrderBook.order)",
						"numberOfBytes": "32",
						"value": "t_struct(order)33_storage"
					},
					"t_mapping(t_uint256,t_uint256)": {
						"encoding": "mapping",
						"key": "t_uint256",
						"label": "mapping(uint256 => uint256)",
						"numberOfBytes": "32",
						"value": "t_uint256"
					},
					"t_struct(order)33_storage": {
						"encoding": "inplace",
						"label": "struct OrderBook.order",
						"members": [
							{
								"astId": 19,
								"contract": "contracts/OrderBook.sol:OrderBook",
								"label": "customer",
								"offset": 0,
								"slot": "0",
								"type": "t_address_payable"
							},
							{
								"astId": 21,
								"contract": "contracts/OrderBook.sol:OrderBook",
								"label": "value",
								"offset": 0,
								"slot": "1",
								"type": "t_uint256"
							},
							{
								"astId": 23,
								"contract": "contracts/OrderBook.sol:OrderBook",
								"label": "timestamp",
								"offset": 0,
								"slot": "2",
								"type": "t_uint256"
							},
							{
								"astId": 26,
								"contract": "contracts/OrderBook.sol:OrderBook",
								"label": "state",
								"offset": 0,
								"slot": "3",
								"type": "t_enum(State)4"
							},
							{
								"astId": 28,
								"contract": "contracts/OrderBook.sol:OrderBook",
								"label": "id",
								"offset": 0,
								"slot": "4",
								"type": "t_uint256"
							},
							{
								"astId": 30,
								"contract": "contracts/OrderBook.sol:OrderBook",
								"label": "next",
								"offset": 0,
								"slot": "5",
								"type": "t_uint256"
							},
							{
								"astId": 32,
								"contract": "contracts/OrderBook.sol:OrderBook",
								"label": "prev",
								"offset": 0,
								"slot": "6",
								"type": "t_uint256"
							}
						],
						"numberOfBytes": "224"
					},
					"t_uint256": {
						"encoding": "inplace",
						"label": "uint256",
						"numberOfBytes": "32"
					}
				}
			},
			"userdoc": {
				"kind": "user",
				"methods": {},
				"version": 1
			}
		}
	}
}