{
	"contracts/OrderBook.sol": {
		"OrderBook": {
			"abi": [
				{
					"inputs": [
						{
							"internalType": "uint256",
							"name": "_commission",
							"type": "uint256"
						}
					],
					"stateMutability": "nonpayable",
					"type": "constructor"
				},
				{
					"anonymous": false,
					"inputs": [
						{
							"indexed": false,
							"internalType": "uint256",
							"name": "",
							"type": "uint256"
						},
						{
							"indexed": false,
							"internalType": "uint256",
							"name": "",
							"type": "uint256"
						}
					],
					"name": "askLink",
					"type": "event"
				},
				{
					"anonymous": false,
					"inputs": [
						{
							"indexed": false,
							"internalType": "uint256",
							"name": "",
							"type": "uint256"
						},
						{
							"indexed": false,
							"internalType": "uint256",
							"name": "",
							"type": "uint256"
						}
					],
					"name": "bidLink",
					"type": "event"
				},
				{
					"anonymous": false,
					"inputs": [
						{
							"indexed": false,
							"internalType": "uint256",
							"name": "",
							"type": "uint256"
						}
					],
					"name": "newHead",
					"type": "event"
				},
				{
					"anonymous": false,
					"inputs": [
						{
							"indexed": false,
							"internalType": "uint256",
							"name": "",
							"type": "uint256"
						}
					],
					"name": "newTail",
					"type": "event"
				},
				{
					"anonymous": false,
					"inputs": [
						{
							"indexed": false,
							"internalType": "address",
							"name": "",
							"type": "address"
						},
						{
							"indexed": false,
							"internalType": "uint256",
							"name": "",
							"type": "uint256"
						},
						{
							"indexed": false,
							"internalType": "uint256",
							"name": "",
							"type": "uint256"
						},
						{
							"indexed": false,
							"internalType": "enum OrderBook.State",
							"name": "",
							"type": "uint8"
						},
						{
							"indexed": false,
							"internalType": "uint256",
							"name": "",
							"type": "uint256"
						},
						{
							"indexed": false,
							"internalType": "uint256",
							"name": "",
							"type": "uint256"
						},
						{
							"indexed": false,
							"internalType": "uint256",
							"name": "",
							"type": "uint256"
						},
						{
							"indexed": false,
							"internalType": "bool",
							"name": "",
							"type": "bool"
						}
					],
					"name": "orderCreated",
					"type": "event"
				},
				{
					"inputs": [],
					"name": "askCount",
					"outputs": [
						{
							"internalType": "uint256",
							"name": "",
							"type": "uint256"
						}
					],
					"stateMutability": "view",
					"type": "function"
				},
				{
					"inputs": [],
					"name": "askHead",
					"outputs": [
						{
							"internalType": "uint256",
							"name": "",
							"type": "uint256"
						}
					],
					"stateMutability": "view",
					"type": "function"
				},
				{
					"inputs": [],
					"name": "bidCount",
					"outputs": [
						{
							"internalType": "uint256",
							"name": "",
							"type": "uint256"
						}
					],
					"stateMutability": "view",
					"type": "function"
				},
				{
					"inputs": [],
					"name": "bidHead",
					"outputs": [
						{
							"internalType": "uint256",
							"name": "",
							"type": "uint256"
						}
					],
					"stateMutability": "view",
					"type": "function"
				},
				{
					"inputs": [
						{
							"internalType": "uint256",
							"name": "askId",
							"type": "uint256"
						}
					],
					"name": "cancelAsk",
					"outputs": [],
					"stateMutability": "nonpayable",
					"type": "function"
				},
				{
					"inputs": [
						{
							"internalType": "uint256",
							"name": "bidId",
							"type": "uint256"
						}
					],
					"name": "cancelBid",
					"outputs": [],
					"stateMutability": "nonpayable",
					"type": "function"
				},
				{
					"inputs": [],
					"name": "fetchAllBid",
					"outputs": [
						{
							"components": [
								{
									"internalType": "address payable",
									"name": "customer",
									"type": "address"
								},
								{
									"internalType": "uint256",
									"name": "value",
									"type": "uint256"
								},
								{
									"internalType": "uint256",
									"name": "timestamp",
									"type": "uint256"
								},
								{
									"internalType": "enum OrderBook.State",
									"name": "state",
									"type": "uint8"
								},
								{
									"internalType": "uint256",
									"name": "id",
									"type": "uint256"
								},
								{
									"internalType": "uint256",
									"name": "next",
									"type": "uint256"
								},
								{
									"internalType": "uint256",
									"name": "prev",
									"type": "uint256"
								}
							],
							"internalType": "struct OrderBook.order[]",
							"name": "",
							"type": "tuple[]"
						}
					],
					"stateMutability": "nonpayable",
					"type": "function"
				},
				{
					"inputs": [],
					"name": "fetchAsk",
					"outputs": [
						{
							"internalType": "string",
							"name": "",
							"type": "string"
						}
					],
					"stateMutability": "view",
					"type": "function"
				},
				{
					"inputs": [],
					"name": "fetchYourAskIds",
					"outputs": [
						{
							"internalType": "uint256[]",
							"name": "",
							"type": "uint256[]"
						}
					],
					"stateMutability": "nonpayable",
					"type": "function"
				},
				{
					"inputs": [],
					"name": "fetchYourBidIds",
					"outputs": [
						{
							"internalType": "uint256[]",
							"name": "",
							"type": "uint256[]"
						}
					],
					"stateMutability": "nonpayable",
					"type": "function"
				},
				{
					"inputs": [
						{
							"internalType": "uint256",
							"name": "id",
							"type": "uint256"
						}
					],
					"name": "getAskAddress",
					"outputs": [
						{
							"internalType": "address payable",
							"name": "",
							"type": "address"
						}
					],
					"stateMutability": "view",
					"type": "function"
				},
				{
					"inputs": [
						{
							"internalType": "uint256",
							"name": "id",
							"type": "uint256"
						}
					],
					"name": "getAskState",
					"outputs": [
						{
							"internalType": "enum OrderBook.State",
							"name": "",
							"type": "uint8"
						}
					],
					"stateMutability": "view",
					"type": "function"
				},
				{
					"inputs": [
						{
							"internalType": "uint256",
							"name": "id",
							"type": "uint256"
						}
					],
					"name": "getAskValue",
					"outputs": [
						{
							"internalType": "uint256",
							"name": "",
							"type": "uint256"
						}
					],
					"stateMutability": "view",
					"type": "function"
				},
				{
					"inputs": [
						{
							"internalType": "uint256",
							"name": "id",
							"type": "uint256"
						}
					],
					"name": "getBidAddress",
					"outputs": [
						{
							"internalType": "address payable",
							"name": "",
							"type": "address"
						}
					],
					"stateMutability": "view",
					"type": "function"
				},
				{
					"inputs": [
						{
							"internalType": "uint256",
							"name": "id",
							"type": "uint256"
						}
					],
					"name": "getBidState",
					"outputs": [
						{
							"internalType": "enum OrderBook.State",
							"name": "",
							"type": "uint8"
						}
					],
					"stateMutability": "view",
					"type": "function"
				},
				{
					"inputs": [
						{
							"internalType": "uint256",
							"name": "id",
							"type": "uint256"
						}
					],
					"name": "getBidValue",
					"outputs": [
						{
							"internalType": "uint256",
							"name": "",
							"type": "uint256"
						}
					],
					"stateMutability": "view",
					"type": "function"
				},
				{
					"inputs": [
						{
							"internalType": "uint256",
							"name": "id",
							"type": "uint256"
						}
					],
					"name": "getOrder",
					"outputs": [
						{
							"internalType": "address payable",
							"name": "",
							"type": "address"
						},
						{
							"internalType": "uint256",
							"name": "",
							"type": "uint256"
						},
						{
							"internalType": "uint256",
							"name": "",
							"type": "uint256"
						},
						{
							"internalType": "enum OrderBook.State",
							"name": "",
							"type": "uint8"
						},
						{
							"internalType": "uint256",
							"name": "",
							"type": "uint256"
						},
						{
							"internalType": "uint256",
							"name": "",
							"type": "uint256"
						},
						{
							"internalType": "uint256",
							"name": "",
							"type": "uint256"
						},
						{
							"internalType": "bool",
							"name": "",
							"type": "bool"
						}
					],
					"stateMutability": "view",
					"type": "function"
				},
				{
					"inputs": [
						{
							"internalType": "uint256",
							"name": "price",
							"type": "uint256"
						}
					],
					"name": "placeAsk",
					"outputs": [],
					"stateMutability": "payable",
					"type": "function"
				},
				{
					"inputs": [
						{
							"internalType": "uint256",
							"name": "price",
							"type": "uint256"
						}
					],
					"name": "placeBid",
					"outputs": [],
					"stateMutability": "payable",
					"type": "function"
				}
			],
			"devdoc": {
				"kind": "dev",
				"methods": {},
				"version": 1
			},
			"evm": {
				"assembly": "    /* \"contracts/OrderBook.sol\":1183:8649  contract OrderBook {... */\n  mstore(0x40, 0x80)\n    /* \"contracts/OrderBook.sol\":1386:1396  msg.sender */\n  caller\n    /* \"contracts/OrderBook.sol\":1353:1397  address payable _owner = payable(msg.sender) */\n  0x01\n  exp(0x0100, 0x00)\n  dup2\n  sload\n  dup2\n  0xffffffffffffffffffffffffffffffffffffffff\n  mul\n  not\n  and\n  swap1\n  dup4\n  0xffffffffffffffffffffffffffffffffffffffff\n  and\n  mul\n  or\n  swap1\n  sstore\n  pop\n    /* \"contracts/OrderBook.sol\":2320:2481  constructor (uint256 _commission) {... */\n  callvalue\n  dup1\n  iszero\n  tag_1\n  jumpi\n  0x00\n  dup1\n  revert\ntag_1:\n  pop\n  mload(0x40)\n  sub(codesize, bytecodeSize)\n  dup1\n  bytecodeSize\n  dup4\n  codecopy\n  dup2\n  dup2\n  add\n  0x40\n  mstore\n  dup2\n  add\n  swap1\n  tag_2\n  swap2\n  swap1\n  tag_3\n  jump\t// in\ntag_2:\n    /* \"contracts/OrderBook.sol\":2377:2388  _commission */\n  dup1\n    /* \"contracts/OrderBook.sol\":2364:2374  commission */\n  0x02\n    /* \"contracts/OrderBook.sol\":2364:2388  commission = _commission */\n  dup2\n  swap1\n  sstore\n  pop\n    /* \"contracts/OrderBook.sol\":2408:2409  0 */\n  0x00\n    /* \"contracts/OrderBook.sol\":2398:2405  bidHead */\n  0x04\n    /* \"contracts/OrderBook.sol\":2398:2409  bidHead = 0 */\n  dup2\n  swap1\n  sstore\n  pop\n    /* \"contracts/OrderBook.sol\":2430:2431  0 */\n  0x00\n    /* \"contracts/OrderBook.sol\":2419:2427  bidCount */\n  0x05\n    /* \"contracts/OrderBook.sol\":2419:2431  bidCount = 0 */\n  dup2\n  swap1\n  sstore\n  pop\n    /* \"contracts/OrderBook.sol\":2451:2452  0 */\n  0x00\n    /* \"contracts/OrderBook.sol\":2441:2448  askHead */\n  0x07\n    /* \"contracts/OrderBook.sol\":2441:2452  askHead = 0 */\n  dup2\n  swap1\n  sstore\n  pop\n    /* \"contracts/OrderBook.sol\":2473:2474  0 */\n  0x00\n    /* \"contracts/OrderBook.sol\":2462:2470  askCount */\n  0x08\n    /* \"contracts/OrderBook.sol\":2462:2474  askCount = 0 */\n  dup2\n  swap1\n  sstore\n  pop\n    /* \"contracts/OrderBook.sol\":2320:2481  constructor (uint256 _commission) {... */\n  pop\n    /* \"contracts/OrderBook.sol\":1183:8649  contract OrderBook {... */\n  jump(tag_6)\n    /* \"#utility.yul\":88:205   */\ntag_8:\n    /* \"#utility.yul\":197:198   */\n  0x00\n    /* \"#utility.yul\":194:195   */\n  dup1\n    /* \"#utility.yul\":187:199   */\n  revert\n    /* \"#utility.yul\":334:411   */\ntag_10:\n    /* \"#utility.yul\":371:378   */\n  0x00\n    /* \"#utility.yul\":400:405   */\n  dup2\n    /* \"#utility.yul\":389:405   */\n  swap1\n  pop\n    /* \"#utility.yul\":334:411   */\n  swap2\n  swap1\n  pop\n  jump\t// out\n    /* \"#utility.yul\":417:539   */\ntag_11:\n    /* \"#utility.yul\":490:514   */\n  tag_19\n    /* \"#utility.yul\":508:513   */\n  dup2\n    /* \"#utility.yul\":490:514   */\n  tag_10\n  jump\t// in\ntag_19:\n    /* \"#utility.yul\":483:488   */\n  dup2\n    /* \"#utility.yul\":480:515   */\n  eq\n    /* \"#utility.yul\":470:533   */\n  tag_20\n  jumpi\n    /* \"#utility.yul\":529:530   */\n  0x00\n    /* \"#utility.yul\":526:527   */\n  dup1\n    /* \"#utility.yul\":519:531   */\n  revert\n    /* \"#utility.yul\":470:533   */\ntag_20:\n    /* \"#utility.yul\":417:539   */\n  pop\n  jump\t// out\n    /* \"#utility.yul\":545:688   */\ntag_12:\n    /* \"#utility.yul\":602:607   */\n  0x00\n    /* \"#utility.yul\":633:639   */\n  dup2\n    /* \"#utility.yul\":627:640   */\n  mload\n    /* \"#utility.yul\":618:640   */\n  swap1\n  pop\n    /* \"#utility.yul\":649:682   */\n  tag_22\n    /* \"#utility.yul\":676:681   */\n  dup2\n    /* \"#utility.yul\":649:682   */\n  tag_11\n  jump\t// in\ntag_22:\n    /* \"#utility.yul\":545:688   */\n  swap3\n  swap2\n  pop\n  pop\n  jump\t// out\n    /* \"#utility.yul\":694:1045   */\ntag_3:\n    /* \"#utility.yul\":764:770   */\n  0x00\n    /* \"#utility.yul\":813:815   */\n  0x20\n    /* \"#utility.yul\":801:810   */\n  dup3\n    /* \"#utility.yul\":792:799   */\n  dup5\n    /* \"#utility.yul\":788:811   */\n  sub\n    /* \"#utility.yul\":784:816   */\n  slt\n    /* \"#utility.yul\":781:900   */\n  iszero\n  tag_24\n  jumpi\n    /* \"#utility.yul\":819:898   */\n  tag_25\n  tag_8\n  jump\t// in\ntag_25:\n    /* \"#utility.yul\":781:900   */\ntag_24:\n    /* \"#utility.yul\":939:940   */\n  0x00\n    /* \"#utility.yul\":964:1028   */\n  tag_26\n    /* \"#utility.yul\":1020:1027   */\n  dup5\n    /* \"#utility.yul\":1011:1017   */\n  dup3\n    /* \"#utility.yul\":1000:1009   */\n  dup6\n    /* \"#utility.yul\":996:1018   */\n  add\n    /* \"#utility.yul\":964:1028   */\n  tag_12\n  jump\t// in\ntag_26:\n    /* \"#utility.yul\":954:1028   */\n  swap2\n  pop\n    /* \"#utility.yul\":910:1038   */\n  pop\n    /* \"#utility.yul\":694:1045   */\n  swap3\n  swap2\n  pop\n  pop\n  jump\t// out\n    /* \"contracts/OrderBook.sol\":1183:8649  contract OrderBook {... */\ntag_6:\n  dataSize(sub_0)\n  dup1\n  dataOffset(sub_0)\n  0x00\n  codecopy\n  0x00\n  return\nstop\n\nsub_0: assembly {\n        /* \"contracts/OrderBook.sol\":1183:8649  contract OrderBook {... */\n      mstore(0x40, 0x80)\n      jumpi(tag_1, lt(calldatasize, 0x04))\n      shr(0xe0, calldataload(0x00))\n      dup1\n      0x78c5b268\n      gt\n      tag_21\n      jumpi\n      dup1\n      0xb40a5627\n      gt\n      tag_22\n      jumpi\n      dup1\n      0xb40a5627\n      eq\n      tag_16\n      jumpi\n      dup1\n      0xbf77ffae\n      eq\n      tag_17\n      jumpi\n      dup1\n      0xce0cdc87\n      eq\n      tag_18\n      jumpi\n      dup1\n      0xd09ef241\n      eq\n      tag_19\n      jumpi\n      dup1\n      0xdb3a1396\n      eq\n      tag_20\n      jumpi\n      jump(tag_1)\n    tag_22:\n      dup1\n      0x78c5b268\n      eq\n      tag_11\n      jumpi\n      dup1\n      0x801d9bbd\n      eq\n      tag_12\n      jumpi\n      dup1\n      0x9703ef35\n      eq\n      tag_13\n      jumpi\n      dup1\n      0x9979ef45\n      eq\n      tag_14\n      jumpi\n      dup1\n      0xa394fda7\n      eq\n      tag_15\n      jumpi\n      jump(tag_1)\n    tag_21:\n      dup1\n      0x44e791e0\n      gt\n      tag_23\n      jumpi\n      dup1\n      0x44e791e0\n      eq\n      tag_6\n      jumpi\n      dup1\n      0x4d46712d\n      eq\n      tag_7\n      jumpi\n      dup1\n      0x69f632e2\n      eq\n      tag_8\n      jumpi\n      dup1\n      0x6e5b0f00\n      eq\n      tag_9\n      jumpi\n      dup1\n      0x734a2e78\n      eq\n      tag_10\n      jumpi\n      jump(tag_1)\n    tag_23:\n      dup1\n      0x122de8f2\n      eq\n      tag_2\n      jumpi\n      dup1\n      0x1628e0f5\n      eq\n      tag_3\n      jumpi\n      dup1\n      0x2db6dfa7\n      eq\n      tag_4\n      jumpi\n      dup1\n      0x4471417f\n      eq\n      tag_5\n      jumpi\n    tag_1:\n      0x00\n      dup1\n      revert\n        /* \"contracts/OrderBook.sol\":7566:7634  function fetchYourAskIds() public returns (uint256[] memory) {... */\n    tag_2:\n      callvalue\n      dup1\n      iszero\n      tag_24\n      jumpi\n      0x00\n      dup1\n      revert\n    tag_24:\n      pop\n      tag_25\n      tag_26\n      jump\t// in\n    tag_25:\n      mload(0x40)\n      tag_27\n      swap2\n      swap1\n      tag_28\n      jump\t// in\n    tag_27:\n      mload(0x40)\n      dup1\n      swap2\n      sub\n      swap1\n      return\n        /* \"contracts/OrderBook.sol\":6811:7103  function cancelAsk (uint256 askId) public isPending(askBook[askId]) isAuthorised(askBook[askId], msg.sender) {... */\n    tag_3:\n      callvalue\n      dup1\n      iszero\n      tag_29\n      jumpi\n      0x00\n      dup1\n      revert\n    tag_29:\n      pop\n      tag_30\n      0x04\n      dup1\n      calldatasize\n      sub\n      dup2\n      add\n      swap1\n      tag_31\n      swap2\n      swap1\n      tag_32\n      jump\t// in\n    tag_31:\n      tag_33\n      jump\t// in\n    tag_30:\n      stop\n        /* \"contracts/OrderBook.sol\":8216:8320  function getBidValue (uint256 id) public view returns(uint256) {... */\n    tag_4:\n      callvalue\n      dup1\n      iszero\n      tag_34\n      jumpi\n      0x00\n      dup1\n      revert\n    tag_34:\n      pop\n      tag_35\n      0x04\n      dup1\n      calldatasize\n      sub\n      dup2\n      add\n      swap1\n      tag_36\n      swap2\n      swap1\n      tag_32\n      jump\t// in\n    tag_36:\n      tag_37\n      jump\t// in\n    tag_35:\n      mload(0x40)\n      tag_38\n      swap2\n      swap1\n      tag_39\n      jump\t// in\n    tag_38:\n      mload(0x40)\n      dup1\n      swap2\n      sub\n      swap1\n      return\n        /* \"contracts/OrderBook.sol\":7423:7485  function fetchAllBid() public returns (order[] memory) {... */\n    tag_5:\n      callvalue\n      dup1\n      iszero\n      tag_40\n      jumpi\n      0x00\n      dup1\n      revert\n    tag_40:\n      pop\n      tag_41\n      tag_42\n      jump\t// in\n    tag_41:\n      mload(0x40)\n      tag_43\n      swap2\n      swap1\n      tag_44\n      jump\t// in\n    tag_43:\n      mload(0x40)\n      dup1\n      swap2\n      sub\n      swap1\n      return\n        /* \"contracts/OrderBook.sol\":7137:7417  function fetchAsk() public view returns (string memory) {... */\n    tag_6:\n      callvalue\n      dup1\n      iszero\n      tag_45\n      jumpi\n      0x00\n      dup1\n      revert\n    tag_45:\n      pop\n      tag_46\n      tag_47\n      jump\t// in\n    tag_46:\n      mload(0x40)\n      tag_48\n      swap2\n      swap1\n      tag_49\n      jump\t// in\n    tag_48:\n      mload(0x40)\n      dup1\n      swap2\n      sub\n      swap1\n      return\n        /* \"contracts/OrderBook.sol\":8544:8646  function getAskState (uint256 id) public view returns(State) {... */\n    tag_7:\n      callvalue\n      dup1\n      iszero\n      tag_50\n      jumpi\n      0x00\n      dup1\n      revert\n    tag_50:\n      pop\n      tag_51\n      0x04\n      dup1\n      calldatasize\n      sub\n      dup2\n      add\n      swap1\n      tag_52\n      swap2\n      swap1\n      tag_32\n      jump\t// in\n    tag_52:\n      tag_53\n      jump\t// in\n    tag_51:\n      mload(0x40)\n      tag_54\n      swap2\n      swap1\n      tag_55\n      jump\t// in\n    tag_54:\n      mload(0x40)\n      dup1\n      swap2\n      sub\n      swap1\n      return\n        /* \"contracts/OrderBook.sol\":7970:8087  function getBidAddress (uint256 id) public view returns(address payable) {... */\n    tag_8:\n      callvalue\n      dup1\n      iszero\n      tag_56\n      jumpi\n      0x00\n      dup1\n      revert\n    tag_56:\n      pop\n      tag_57\n      0x04\n      dup1\n      calldatasize\n      sub\n      dup2\n      add\n      swap1\n      tag_58\n      swap2\n      swap1\n      tag_32\n      jump\t// in\n    tag_58:\n      tag_59\n      jump\t// in\n    tag_57:\n      mload(0x40)\n      tag_60\n      swap2\n      swap1\n      tag_61\n      jump\t// in\n    tag_60:\n      mload(0x40)\n      dup1\n      swap2\n      sub\n      swap1\n      return\n        /* \"contracts/OrderBook.sol\":1850:1872  uint256 public bidHead */\n    tag_9:\n      callvalue\n      dup1\n      iszero\n      tag_62\n      jumpi\n      0x00\n      dup1\n      revert\n    tag_62:\n      pop\n      tag_63\n      tag_64\n      jump\t// in\n    tag_63:\n      mload(0x40)\n      tag_65\n      swap2\n      swap1\n      tag_39\n      jump\t// in\n    tag_65:\n      mload(0x40)\n      dup1\n      swap2\n      sub\n      swap1\n      return\n        /* \"contracts/OrderBook.sol\":8093:8210  function getAskAddress (uint256 id) public view returns(address payable) {... */\n    tag_10:\n      callvalue\n      dup1\n      iszero\n      tag_66\n      jumpi\n      0x00\n      dup1\n      revert\n    tag_66:\n      pop\n      tag_67\n      0x04\n      dup1\n      calldatasize\n      sub\n      dup2\n      add\n      swap1\n      tag_68\n      swap2\n      swap1\n      tag_32\n      jump\t// in\n    tag_68:\n      tag_69\n      jump\t// in\n    tag_67:\n      mload(0x40)\n      tag_70\n      swap2\n      swap1\n      tag_61\n      jump\t// in\n    tag_70:\n      mload(0x40)\n      dup1\n      swap2\n      sub\n      swap1\n      return\n        /* \"contracts/OrderBook.sol\":6401:6805  function placeAsk (uint256 price) public payable {... */\n    tag_11:\n      tag_71\n      0x04\n      dup1\n      calldatasize\n      sub\n      dup2\n      add\n      swap1\n      tag_72\n      swap2\n      swap1\n      tag_32\n      jump\t// in\n    tag_72:\n      tag_73\n      jump\t// in\n    tag_71:\n      stop\n        /* \"contracts/OrderBook.sol\":1995:2017  uint256 public askHead */\n    tag_12:\n      callvalue\n      dup1\n      iszero\n      tag_74\n      jumpi\n      0x00\n      dup1\n      revert\n    tag_74:\n      pop\n      tag_75\n      tag_76\n      jump\t// in\n    tag_75:\n      mload(0x40)\n      tag_77\n      swap2\n      swap1\n      tag_39\n      jump\t// in\n    tag_77:\n      mload(0x40)\n      dup1\n      swap2\n      sub\n      swap1\n      return\n        /* \"contracts/OrderBook.sol\":6138:6395  function cancelBid (uint256 bidId) public isPending(bidBook[bidId]) isAuthorised(bidBook[bidId], msg.sender) {... */\n    tag_13:\n      callvalue\n      dup1\n      iszero\n      tag_78\n      jumpi\n      0x00\n      dup1\n      revert\n    tag_78:\n      pop\n      tag_79\n      0x04\n      dup1\n      calldatasize\n      sub\n      dup2\n      add\n      swap1\n      tag_80\n      swap2\n      swap1\n      tag_32\n      jump\t// in\n    tag_80:\n      tag_81\n      jump\t// in\n    tag_79:\n      stop\n        /* \"contracts/OrderBook.sol\":5563:6132  function placeBid (uint256 price) public payable {... */\n    tag_14:\n      tag_82\n      0x04\n      dup1\n      calldatasize\n      sub\n      dup2\n      add\n      swap1\n      tag_83\n      swap2\n      swap1\n      tag_32\n      jump\t// in\n    tag_83:\n      tag_84\n      jump\t// in\n    tag_82:\n      stop\n        /* \"contracts/OrderBook.sol\":2023:2046  uint256 public askCount */\n    tag_15:\n      callvalue\n      dup1\n      iszero\n      tag_85\n      jumpi\n      0x00\n      dup1\n      revert\n    tag_85:\n      pop\n      tag_86\n      tag_87\n      jump\t// in\n    tag_86:\n      mload(0x40)\n      tag_88\n      swap2\n      swap1\n      tag_39\n      jump\t// in\n    tag_88:\n      mload(0x40)\n      dup1\n      swap2\n      sub\n      swap1\n      return\n        /* \"contracts/OrderBook.sol\":1878:1901  uint256 public bidCount */\n    tag_16:\n      callvalue\n      dup1\n      iszero\n      tag_89\n      jumpi\n      0x00\n      dup1\n      revert\n    tag_89:\n      pop\n      tag_90\n      tag_91\n      jump\t// in\n    tag_90:\n      mload(0x40)\n      tag_92\n      swap2\n      swap1\n      tag_39\n      jump\t// in\n    tag_92:\n      mload(0x40)\n      dup1\n      swap2\n      sub\n      swap1\n      return\n        /* \"contracts/OrderBook.sol\":8436:8538  function getBidState (uint256 id) public view returns(State) {... */\n    tag_17:\n      callvalue\n      dup1\n      iszero\n      tag_93\n      jumpi\n      0x00\n      dup1\n      revert\n    tag_93:\n      pop\n      tag_94\n      0x04\n      dup1\n      calldatasize\n      sub\n      dup2\n      add\n      swap1\n      tag_95\n      swap2\n      swap1\n      tag_32\n      jump\t// in\n    tag_95:\n      tag_96\n      jump\t// in\n    tag_94:\n      mload(0x40)\n      tag_97\n      swap2\n      swap1\n      tag_55\n      jump\t// in\n    tag_97:\n      mload(0x40)\n      dup1\n      swap2\n      sub\n      swap1\n      return\n        /* \"contracts/OrderBook.sol\":7492:7560  function fetchYourBidIds() public returns (uint256[] memory) {... */\n    tag_18:\n      callvalue\n      dup1\n      iszero\n      tag_98\n      jumpi\n      0x00\n      dup1\n      revert\n    tag_98:\n      pop\n      tag_99\n      tag_100\n      jump\t// in\n    tag_99:\n      mload(0x40)\n      tag_101\n      swap2\n      swap1\n      tag_28\n      jump\t// in\n    tag_101:\n      mload(0x40)\n      dup1\n      swap2\n      sub\n      swap1\n      return\n        /* \"contracts/OrderBook.sol\":7640:7964  function getOrder(uint256 id) public view returns(address payable,uint256,uint256,State,uint256,uint256,uint256,bool) {... */\n    tag_19:\n      callvalue\n      dup1\n      iszero\n      tag_102\n      jumpi\n      0x00\n      dup1\n      revert\n    tag_102:\n      pop\n      tag_103\n      0x04\n      dup1\n      calldatasize\n      sub\n      dup2\n      add\n      swap1\n      tag_104\n      swap2\n      swap1\n      tag_32\n      jump\t// in\n    tag_104:\n      tag_105\n      jump\t// in\n    tag_103:\n      mload(0x40)\n      tag_106\n      swap9\n      swap8\n      swap7\n      swap6\n      swap5\n      swap4\n      swap3\n      swap2\n      swap1\n      tag_107\n      jump\t// in\n    tag_106:\n      mload(0x40)\n      dup1\n      swap2\n      sub\n      swap1\n      return\n        /* \"contracts/OrderBook.sol\":8326:8430  function getAskValue (uint256 id) public view returns(uint256) {... */\n    tag_20:\n      callvalue\n      dup1\n      iszero\n      tag_108\n      jumpi\n      0x00\n      dup1\n      revert\n    tag_108:\n      pop\n      tag_109\n      0x04\n      dup1\n      calldatasize\n      sub\n      dup2\n      add\n      swap1\n      tag_110\n      swap2\n      swap1\n      tag_32\n      jump\t// in\n    tag_110:\n      tag_111\n      jump\t// in\n    tag_109:\n      mload(0x40)\n      tag_112\n      swap2\n      swap1\n      tag_39\n      jump\t// in\n    tag_112:\n      mload(0x40)\n      dup1\n      swap2\n      sub\n      swap1\n      return\n        /* \"contracts/OrderBook.sol\":7566:7634  function fetchYourAskIds() public returns (uint256[] memory) {... */\n    tag_26:\n        /* \"contracts/OrderBook.sol\":7609:7625  uint256[] memory */\n      0x60\n        /* \"contracts/OrderBook.sol\":7566:7634  function fetchYourAskIds() public returns (uint256[] memory) {... */\n      swap1\n      jump\t// out\n        /* \"contracts/OrderBook.sol\":6811:7103  function cancelAsk (uint256 askId) public isPending(askBook[askId]) isAuthorised(askBook[askId], msg.sender) {... */\n    tag_33:\n        /* \"contracts/OrderBook.sol\":6863:6870  askBook */\n      0x06\n        /* \"contracts/OrderBook.sol\":6863:6877  askBook[askId] */\n      0x00\n        /* \"contracts/OrderBook.sol\":6871:6876  askId */\n      dup3\n        /* \"contracts/OrderBook.sol\":6863:6877  askBook[askId] */\n      dup2\n      mstore\n      0x20\n      add\n      swap1\n      dup2\n      mstore\n      0x20\n      add\n      0x00\n      keccak256\n        /* \"contracts/OrderBook.sol\":2520:2643  modifier isPending(order memory _order) {... */\n      mload(0x40)\n      dup1\n      0xe0\n      add\n      0x40\n      mstore\n      swap1\n      dup2\n      0x00\n      dup3\n      add\n      0x00\n      swap1\n      sload\n      swap1\n      0x0100\n      exp\n      swap1\n      div\n      0xffffffffffffffffffffffffffffffffffffffff\n      and\n      0xffffffffffffffffffffffffffffffffffffffff\n      and\n      0xffffffffffffffffffffffffffffffffffffffff\n      and\n      dup2\n      mstore\n      0x20\n      add\n      0x01\n      dup3\n      add\n      sload\n      dup2\n      mstore\n      0x20\n      add\n      0x02\n      dup3\n      add\n      sload\n      dup2\n      mstore\n      0x20\n      add\n      0x03\n      dup3\n      add\n      0x00\n      swap1\n      sload\n      swap1\n      0x0100\n      exp\n      swap1\n      div\n      0xff\n      and\n      0x01\n      dup2\n      gt\n      iszero\n      tag_114\n      jumpi\n      tag_115\n      tag_116\n      jump\t// in\n    tag_115:\n    tag_114:\n      0x01\n      dup2\n      gt\n      iszero\n      tag_117\n      jumpi\n      tag_118\n      tag_116\n      jump\t// in\n    tag_118:\n    tag_117:\n      dup2\n      mstore\n      0x20\n      add\n      0x04\n      dup3\n      add\n      sload\n      dup2\n      mstore\n      0x20\n      add\n      0x05\n      dup3\n      add\n      sload\n      dup2\n      mstore\n      0x20\n      add\n      0x06\n      dup3\n      add\n      sload\n      dup2\n      mstore\n      pop\n      pop\n        /* \"contracts/OrderBook.sol\":2594:2607  State.pending */\n      0x00\n        /* \"contracts/OrderBook.sol\":2578:2607  _order.state == State.pending */\n      0x01\n      dup2\n      gt\n      iszero\n      tag_120\n      jumpi\n      tag_121\n      tag_116\n      jump\t// in\n    tag_121:\n    tag_120:\n        /* \"contracts/OrderBook.sol\":2578:2584  _order */\n      dup2\n        /* \"contracts/OrderBook.sol\":2578:2590  _order.state */\n      0x60\n      add\n      mload\n        /* \"contracts/OrderBook.sol\":2578:2607  _order.state == State.pending */\n      0x01\n      dup2\n      gt\n      iszero\n      tag_122\n      jumpi\n      tag_123\n      tag_116\n      jump\t// in\n    tag_123:\n    tag_122:\n      eq\n        /* \"contracts/OrderBook.sol\":2570:2625  require(_order.state == State.pending, \"Order Pending\") */\n      tag_124\n      jumpi\n      mload(0x40)\n      0x08c379a000000000000000000000000000000000000000000000000000000000\n      dup2\n      mstore\n      0x04\n      add\n      tag_125\n      swap1\n      tag_126\n      jump\t// in\n    tag_125:\n      mload(0x40)\n      dup1\n      swap2\n      sub\n      swap1\n      revert\n    tag_124:\n        /* \"contracts/OrderBook.sol\":6892:6899  askBook */\n      0x06\n        /* \"contracts/OrderBook.sol\":6892:6906  askBook[askId] */\n      0x00\n        /* \"contracts/OrderBook.sol\":6900:6905  askId */\n      dup4\n        /* \"contracts/OrderBook.sol\":6892:6906  askBook[askId] */\n      dup2\n      mstore\n      0x20\n      add\n      swap1\n      dup2\n      mstore\n      0x20\n      add\n      0x00\n      keccak256\n        /* \"contracts/OrderBook.sol\":2649:2788  modifier isAuthorised(order memory _order, address sender) {... */\n      mload(0x40)\n      dup1\n      0xe0\n      add\n      0x40\n      mstore\n      swap1\n      dup2\n      0x00\n      dup3\n      add\n      0x00\n      swap1\n      sload\n      swap1\n      0x0100\n      exp\n      swap1\n      div\n      0xffffffffffffffffffffffffffffffffffffffff\n      and\n      0xffffffffffffffffffffffffffffffffffffffff\n      and\n      0xffffffffffffffffffffffffffffffffffffffff\n      and\n      dup2\n      mstore\n      0x20\n      add\n      0x01\n      dup3\n      add\n      sload\n      dup2\n      mstore\n      0x20\n      add\n      0x02\n      dup3\n      add\n      sload\n      dup2\n      mstore\n      0x20\n      add\n      0x03\n      dup3\n      add\n      0x00\n      swap1\n      sload\n      swap1\n      0x0100\n      exp\n      swap1\n      div\n      0xff\n      and\n      0x01\n      dup2\n      gt\n      iszero\n      tag_127\n      jumpi\n      tag_128\n      tag_116\n      jump\t// in\n    tag_128:\n    tag_127:\n      0x01\n      dup2\n      gt\n      iszero\n      tag_129\n      jumpi\n      tag_130\n      tag_116\n      jump\t// in\n    tag_130:\n    tag_129:\n      dup2\n      mstore\n      0x20\n      add\n      0x04\n      dup3\n      add\n      sload\n      dup2\n      mstore\n      0x20\n      add\n      0x05\n      dup3\n      add\n      sload\n      dup2\n      mstore\n      0x20\n      add\n      0x06\n      dup3\n      add\n      sload\n      dup2\n      mstore\n      pop\n      pop\n        /* \"contracts/OrderBook.sol\":6908:6918  msg.sender */\n      caller\n        /* \"contracts/OrderBook.sol\":2745:2751  sender */\n      dup1\n        /* \"contracts/OrderBook.sol\":2726:2751  _order.customer == sender */\n      0xffffffffffffffffffffffffffffffffffffffff\n      and\n        /* \"contracts/OrderBook.sol\":2726:2732  _order */\n      dup3\n        /* \"contracts/OrderBook.sol\":2726:2741  _order.customer */\n      0x00\n      add\n      mload\n        /* \"contracts/OrderBook.sol\":2726:2751  _order.customer == sender */\n      0xffffffffffffffffffffffffffffffffffffffff\n      and\n      eq\n        /* \"contracts/OrderBook.sol\":2718:2770  require(_order.customer == sender, \"Not Authorised\") */\n      tag_132\n      jumpi\n      mload(0x40)\n      0x08c379a000000000000000000000000000000000000000000000000000000000\n      dup2\n      mstore\n      0x04\n      add\n      tag_133\n      swap1\n      tag_134\n      jump\t// in\n    tag_133:\n      mload(0x40)\n      dup1\n      swap2\n      sub\n      swap1\n      revert\n    tag_132:\n        /* \"contracts/OrderBook.sol\":2635:2636  _ */\n      pop\n      pop\n        /* \"contracts/OrderBook.sol\":6811:7103  function cancelAsk (uint256 askId) public isPending(askBook[askId]) isAuthorised(askBook[askId], msg.sender) {... */\n      pop\n      pop\n      jump\t// out\n        /* \"contracts/OrderBook.sol\":8216:8320  function getBidValue (uint256 id) public view returns(uint256) {... */\n    tag_37:\n        /* \"contracts/OrderBook.sol\":8270:8277  uint256 */\n      0x00\n        /* \"contracts/OrderBook.sol\":8296:8303  bidBook */\n      0x03\n        /* \"contracts/OrderBook.sol\":8296:8307  bidBook[id] */\n      0x00\n        /* \"contracts/OrderBook.sol\":8304:8306  id */\n      dup4\n        /* \"contracts/OrderBook.sol\":8296:8307  bidBook[id] */\n      dup2\n      mstore\n      0x20\n      add\n      swap1\n      dup2\n      mstore\n      0x20\n      add\n      0x00\n      keccak256\n        /* \"contracts/OrderBook.sol\":8296:8313  bidBook[id].value */\n      0x01\n      add\n      sload\n        /* \"contracts/OrderBook.sol\":8289:8313  return bidBook[id].value */\n      swap1\n      pop\n        /* \"contracts/OrderBook.sol\":8216:8320  function getBidValue (uint256 id) public view returns(uint256) {... */\n      swap2\n      swap1\n      pop\n      jump\t// out\n        /* \"contracts/OrderBook.sol\":7423:7485  function fetchAllBid() public returns (order[] memory) {... */\n    tag_42:\n        /* \"contracts/OrderBook.sol\":7462:7476  order[] memory */\n      0x60\n        /* \"contracts/OrderBook.sol\":7423:7485  function fetchAllBid() public returns (order[] memory) {... */\n      swap1\n      jump\t// out\n        /* \"contracts/OrderBook.sol\":7137:7417  function fetchAsk() public view returns (string memory) {... */\n    tag_47:\n        /* \"contracts/OrderBook.sol\":7178:7191  string memory */\n      0x60\n        /* \"contracts/OrderBook.sol\":7203:7218  uint256 current */\n      0x00\n        /* \"contracts/OrderBook.sol\":7221:7228  askHead */\n      sload(0x07)\n        /* \"contracts/OrderBook.sol\":7203:7228  uint256 current = askHead */\n      swap1\n      pop\n        /* \"contracts/OrderBook.sol\":7238:7258  string memory output */\n      0x00\n        /* \"contracts/OrderBook.sol\":7238:7263  string memory output = \"\" */\n      mload(0x40)\n      dup1\n      0x20\n      add\n      0x40\n      mstore\n      dup1\n      0x00\n      dup2\n      mstore\n      pop\n      swap1\n      pop\n        /* \"contracts/OrderBook.sol\":7273:7388  while (current != 0) {... */\n    tag_139:\n        /* \"contracts/OrderBook.sol\":7291:7292  0 */\n      0x00\n        /* \"contracts/OrderBook.sol\":7280:7287  current */\n      dup3\n        /* \"contracts/OrderBook.sol\":7280:7292  current != 0 */\n      eq\n        /* \"contracts/OrderBook.sol\":7273:7388  while (current != 0) {... */\n      tag_140\n      jumpi\n        /* \"contracts/OrderBook.sol\":7308:7320  uint256 next */\n      0x00\n        /* \"contracts/OrderBook.sol\":7323:7330  askBook */\n      0x06\n        /* \"contracts/OrderBook.sol\":7323:7339  askBook[current] */\n      0x00\n        /* \"contracts/OrderBook.sol\":7331:7338  current */\n      dup5\n        /* \"contracts/OrderBook.sol\":7323:7339  askBook[current] */\n      dup2\n      mstore\n      0x20\n      add\n      swap1\n      dup2\n      mstore\n      0x20\n      add\n      0x00\n      keccak256\n        /* \"contracts/OrderBook.sol\":7323:7344  askBook[current].next */\n      0x05\n      add\n      sload\n        /* \"contracts/OrderBook.sol\":7308:7344  uint256 next = askBook[current].next */\n      swap1\n      pop\n        /* \"contracts/OrderBook.sol\":7373:7377  next */\n      dup1\n        /* \"contracts/OrderBook.sol\":7363:7377  current = next */\n      swap3\n      pop\n        /* \"contracts/OrderBook.sol\":7294:7388  {... */\n      pop\n        /* \"contracts/OrderBook.sol\":7273:7388  while (current != 0) {... */\n      jump(tag_139)\n    tag_140:\n        /* \"contracts/OrderBook.sol\":7404:7410  output */\n      dup1\n        /* \"contracts/OrderBook.sol\":7397:7410  return output */\n      swap3\n      pop\n      pop\n      pop\n        /* \"contracts/OrderBook.sol\":7137:7417  function fetchAsk() public view returns (string memory) {... */\n      swap1\n      jump\t// out\n        /* \"contracts/OrderBook.sol\":8544:8646  function getAskState (uint256 id) public view returns(State) {... */\n    tag_53:\n        /* \"contracts/OrderBook.sol\":8598:8603  State */\n      0x00\n        /* \"contracts/OrderBook.sol\":8622:8629  askBook */\n      0x06\n        /* \"contracts/OrderBook.sol\":8622:8633  askBook[id] */\n      0x00\n        /* \"contracts/OrderBook.sol\":8630:8632  id */\n      dup4\n        /* \"contracts/OrderBook.sol\":8622:8633  askBook[id] */\n      dup2\n      mstore\n      0x20\n      add\n      swap1\n      dup2\n      mstore\n      0x20\n      add\n      0x00\n      keccak256\n        /* \"contracts/OrderBook.sol\":8622:8639  askBook[id].state */\n      0x03\n      add\n      0x00\n      swap1\n      sload\n      swap1\n      0x0100\n      exp\n      swap1\n      div\n      0xff\n      and\n        /* \"contracts/OrderBook.sol\":8615:8639  return askBook[id].state */\n      swap1\n      pop\n        /* \"contracts/OrderBook.sol\":8544:8646  function getAskState (uint256 id) public view returns(State) {... */\n      swap2\n      swap1\n      pop\n      jump\t// out\n        /* \"contracts/OrderBook.sol\":7970:8087  function getBidAddress (uint256 id) public view returns(address payable) {... */\n    tag_59:\n        /* \"contracts/OrderBook.sol\":8026:8041  address payable */\n      0x00\n        /* \"contracts/OrderBook.sol\":8060:8067  bidBook */\n      0x03\n        /* \"contracts/OrderBook.sol\":8060:8071  bidBook[id] */\n      0x00\n        /* \"contracts/OrderBook.sol\":8068:8070  id */\n      dup4\n        /* \"contracts/OrderBook.sol\":8060:8071  bidBook[id] */\n      dup2\n      mstore\n      0x20\n      add\n      swap1\n      dup2\n      mstore\n      0x20\n      add\n      0x00\n      keccak256\n        /* \"contracts/OrderBook.sol\":8060:8080  bidBook[id].customer */\n      0x00\n      add\n      0x00\n      swap1\n      sload\n      swap1\n      0x0100\n      exp\n      swap1\n      div\n      0xffffffffffffffffffffffffffffffffffffffff\n      and\n        /* \"contracts/OrderBook.sol\":8053:8080  return bidBook[id].customer */\n      swap1\n      pop\n        /* \"contracts/OrderBook.sol\":7970:8087  function getBidAddress (uint256 id) public view returns(address payable) {... */\n      swap2\n      swap1\n      pop\n      jump\t// out\n        /* \"contracts/OrderBook.sol\":1850:1872  uint256 public bidHead */\n    tag_64:\n      sload(0x04)\n      dup2\n      jump\t// out\n        /* \"contracts/OrderBook.sol\":8093:8210  function getAskAddress (uint256 id) public view returns(address payable) {... */\n    tag_69:\n        /* \"contracts/OrderBook.sol\":8149:8164  address payable */\n      0x00\n        /* \"contracts/OrderBook.sol\":8183:8190  askBook */\n      0x06\n        /* \"contracts/OrderBook.sol\":8183:8194  askBook[id] */\n      0x00\n        /* \"contracts/OrderBook.sol\":8191:8193  id */\n      dup4\n        /* \"contracts/OrderBook.sol\":8183:8194  askBook[id] */\n      dup2\n      mstore\n      0x20\n      add\n      swap1\n      dup2\n      mstore\n      0x20\n      add\n      0x00\n      keccak256\n        /* \"contracts/OrderBook.sol\":8183:8203  askBook[id].customer */\n      0x00\n      add\n      0x00\n      swap1\n      sload\n      swap1\n      0x0100\n      exp\n      swap1\n      div\n      0xffffffffffffffffffffffffffffffffffffffff\n      and\n        /* \"contracts/OrderBook.sol\":8176:8203  return askBook[id].customer */\n      swap1\n      pop\n        /* \"contracts/OrderBook.sol\":8093:8210  function getAskAddress (uint256 id) public view returns(address payable) {... */\n      swap2\n      swap1\n      pop\n      jump\t// out\n        /* \"contracts/OrderBook.sol\":6401:6805  function placeAsk (uint256 price) public payable {... */\n    tag_73:\n        /* \"contracts/OrderBook.sol\":6477:6478  0 */\n      0x00\n        /* \"contracts/OrderBook.sol\":6468:6473  price */\n      dup2\n        /* \"contracts/OrderBook.sol\":6468:6478  price >= 0 */\n      lt\n      iszero\n        /* \"contracts/OrderBook.sol\":6460:6514  require(price >= 0, \"price value must be more than 0\") */\n      tag_145\n      jumpi\n      mload(0x40)\n      0x08c379a000000000000000000000000000000000000000000000000000000000\n      dup2\n      mstore\n      0x04\n      add\n      tag_146\n      swap1\n      tag_147\n      jump\t// in\n    tag_146:\n      mload(0x40)\n      dup1\n      swap2\n      sub\n      swap1\n      revert\n    tag_145:\n        /* \"contracts/OrderBook.sol\":6545:6550  price */\n      dup1\n        /* \"contracts/OrderBook.sol\":6532:6541  msg.value */\n      callvalue\n        /* \"contracts/OrderBook.sol\":6532:6550  msg.value >= price */\n      lt\n      iszero\n        /* \"contracts/OrderBook.sol\":6524:6585  require(msg.value >= price, \"Not enough blance to place ask\") */\n      tag_148\n      jumpi\n      mload(0x40)\n      0x08c379a000000000000000000000000000000000000000000000000000000000\n      dup2\n      mstore\n      0x04\n      add\n      tag_149\n      swap1\n      tag_150\n      jump\t// in\n    tag_149:\n      mload(0x40)\n      dup1\n      swap2\n      sub\n      swap1\n      revert\n    tag_148:\n        /* \"contracts/OrderBook.sol\":6595:6607  uint256 time */\n      0x00\n        /* \"contracts/OrderBook.sol\":6610:6625  block.timestamp */\n      timestamp\n        /* \"contracts/OrderBook.sol\":6595:6625  uint256 time = block.timestamp */\n      swap1\n      pop\n        /* \"contracts/OrderBook.sol\":6635:6660  uint256 commissionedPrice */\n      0x00\n        /* \"contracts/OrderBook.sol\":6694:6697  100 */\n      0x64\n        /* \"contracts/OrderBook.sol\":6680:6690  commission */\n      sload(0x02)\n        /* \"contracts/OrderBook.sol\":6676:6679  100 */\n      0x64\n        /* \"contracts/OrderBook.sol\":6676:6690  100-commission */\n      tag_151\n      swap2\n      swap1\n      tag_152\n      jump\t// in\n    tag_151:\n        /* \"contracts/OrderBook.sol\":6663:6672  msg.value */\n      callvalue\n        /* \"contracts/OrderBook.sol\":6663:6691  msg.value * (100-commission) */\n      tag_153\n      swap2\n      swap1\n      tag_154\n      jump\t// in\n    tag_153:\n        /* \"contracts/OrderBook.sol\":6663:6697  msg.value * (100-commission) / 100 */\n      tag_155\n      swap2\n      swap1\n      tag_156\n      jump\t// in\n    tag_155:\n        /* \"contracts/OrderBook.sol\":6635:6697  uint256 commissionedPrice = msg.value * (100-commission) / 100 */\n      swap1\n      pop\n        /* \"contracts/OrderBook.sol\":6707:6726  order memory newAsk */\n      0x00\n        /* \"contracts/OrderBook.sol\":6729:6773  createAsk(msg.sender,time,commissionedPrice) */\n      tag_157\n        /* \"contracts/OrderBook.sol\":6739:6749  msg.sender */\n      caller\n        /* \"contracts/OrderBook.sol\":6750:6754  time */\n      dup5\n        /* \"contracts/OrderBook.sol\":6755:6772  commissionedPrice */\n      dup5\n        /* \"contracts/OrderBook.sol\":6729:6738  createAsk */\n      tag_158\n        /* \"contracts/OrderBook.sol\":6729:6773  createAsk(msg.sender,time,commissionedPrice) */\n      jump\t// in\n    tag_157:\n        /* \"contracts/OrderBook.sol\":6707:6773  order memory newAsk = createAsk(msg.sender,time,commissionedPrice) */\n      swap1\n      pop\n        /* \"contracts/OrderBook.sol\":6783:6798  sortAsk(newAsk) */\n      tag_159\n        /* \"contracts/OrderBook.sol\":6791:6797  newAsk */\n      dup2\n        /* \"contracts/OrderBook.sol\":6783:6790  sortAsk */\n      tag_160\n        /* \"contracts/OrderBook.sol\":6783:6798  sortAsk(newAsk) */\n      jump\t// in\n    tag_159:\n        /* \"contracts/OrderBook.sol\":6450:6805  {... */\n      pop\n      pop\n      pop\n        /* \"contracts/OrderBook.sol\":6401:6805  function placeAsk (uint256 price) public payable {... */\n      pop\n      jump\t// out\n        /* \"contracts/OrderBook.sol\":1995:2017  uint256 public askHead */\n    tag_76:\n      sload(0x07)\n      dup2\n      jump\t// out\n        /* \"contracts/OrderBook.sol\":6138:6395  function cancelBid (uint256 bidId) public isPending(bidBook[bidId]) isAuthorised(bidBook[bidId], msg.sender) {... */\n    tag_81:\n        /* \"contracts/OrderBook.sol\":6190:6197  bidBook */\n      0x03\n        /* \"contracts/OrderBook.sol\":6190:6204  bidBook[bidId] */\n      0x00\n        /* \"contracts/OrderBook.sol\":6198:6203  bidId */\n      dup3\n        /* \"contracts/OrderBook.sol\":6190:6204  bidBook[bidId] */\n      dup2\n      mstore\n      0x20\n      add\n      swap1\n      dup2\n      mstore\n      0x20\n      add\n      0x00\n      keccak256\n        /* \"contracts/OrderBook.sol\":2520:2643  modifier isPending(order memory _order) {... */\n      mload(0x40)\n      dup1\n      0xe0\n      add\n      0x40\n      mstore\n      swap1\n      dup2\n      0x00\n      dup3\n      add\n      0x00\n      swap1\n      sload\n      swap1\n      0x0100\n      exp\n      swap1\n      div\n      0xffffffffffffffffffffffffffffffffffffffff\n      and\n      0xffffffffffffffffffffffffffffffffffffffff\n      and\n      0xffffffffffffffffffffffffffffffffffffffff\n      and\n      dup2\n      mstore\n      0x20\n      add\n      0x01\n      dup3\n      add\n      sload\n      dup2\n      mstore\n      0x20\n      add\n      0x02\n      dup3\n      add\n      sload\n      dup2\n      mstore\n      0x20\n      add\n      0x03\n      dup3\n      add\n      0x00\n      swap1\n      sload\n      swap1\n      0x0100\n      exp\n      swap1\n      div\n      0xff\n      and\n      0x01\n      dup2\n      gt\n      iszero\n      tag_161\n      jumpi\n      tag_162\n      tag_116\n      jump\t// in\n    tag_162:\n    tag_161:\n      0x01\n      dup2\n      gt\n      iszero\n      tag_163\n      jumpi\n      tag_164\n      tag_116\n      jump\t// in\n    tag_164:\n    tag_163:\n      dup2\n      mstore\n      0x20\n      add\n      0x04\n      dup3\n      add\n      sload\n      dup2\n      mstore\n      0x20\n      add\n      0x05\n      dup3\n      add\n      sload\n      dup2\n      mstore\n      0x20\n      add\n      0x06\n      dup3\n      add\n      sload\n      dup2\n      mstore\n      pop\n      pop\n        /* \"contracts/OrderBook.sol\":2594:2607  State.pending */\n      0x00\n        /* \"contracts/OrderBook.sol\":2578:2607  _order.state == State.pending */\n      0x01\n      dup2\n      gt\n      iszero\n      tag_166\n      jumpi\n      tag_167\n      tag_116\n      jump\t// in\n    tag_167:\n    tag_166:\n        /* \"contracts/OrderBook.sol\":2578:2584  _order */\n      dup2\n        /* \"contracts/OrderBook.sol\":2578:2590  _order.state */\n      0x60\n      add\n      mload\n        /* \"contracts/OrderBook.sol\":2578:2607  _order.state == State.pending */\n      0x01\n      dup2\n      gt\n      iszero\n      tag_168\n      jumpi\n      tag_169\n      tag_116\n      jump\t// in\n    tag_169:\n    tag_168:\n      eq\n        /* \"contracts/OrderBook.sol\":2570:2625  require(_order.state == State.pending, \"Order Pending\") */\n      tag_170\n      jumpi\n      mload(0x40)\n      0x08c379a000000000000000000000000000000000000000000000000000000000\n      dup2\n      mstore\n      0x04\n      add\n      tag_171\n      swap1\n      tag_126\n      jump\t// in\n    tag_171:\n      mload(0x40)\n      dup1\n      swap2\n      sub\n      swap1\n      revert\n    tag_170:\n        /* \"contracts/OrderBook.sol\":6219:6226  bidBook */\n      0x03\n        /* \"contracts/OrderBook.sol\":6219:6233  bidBook[bidId] */\n      0x00\n        /* \"contracts/OrderBook.sol\":6227:6232  bidId */\n      dup4\n        /* \"contracts/OrderBook.sol\":6219:6233  bidBook[bidId] */\n      dup2\n      mstore\n      0x20\n      add\n      swap1\n      dup2\n      mstore\n      0x20\n      add\n      0x00\n      keccak256\n        /* \"contracts/OrderBook.sol\":2649:2788  modifier isAuthorised(order memory _order, address sender) {... */\n      mload(0x40)\n      dup1\n      0xe0\n      add\n      0x40\n      mstore\n      swap1\n      dup2\n      0x00\n      dup3\n      add\n      0x00\n      swap1\n      sload\n      swap1\n      0x0100\n      exp\n      swap1\n      div\n      0xffffffffffffffffffffffffffffffffffffffff\n      and\n      0xffffffffffffffffffffffffffffffffffffffff\n      and\n      0xffffffffffffffffffffffffffffffffffffffff\n      and\n      dup2\n      mstore\n      0x20\n      add\n      0x01\n      dup3\n      add\n      sload\n      dup2\n      mstore\n      0x20\n      add\n      0x02\n      dup3\n      add\n      sload\n      dup2\n      mstore\n      0x20\n      add\n      0x03\n      dup3\n      add\n      0x00\n      swap1\n      sload\n      swap1\n      0x0100\n      exp\n      swap1\n      div\n      0xff\n      and\n      0x01\n      dup2\n      gt\n      iszero\n      tag_172\n      jumpi\n      tag_173\n      tag_116\n      jump\t// in\n    tag_173:\n    tag_172:\n      0x01\n      dup2\n      gt\n      iszero\n      tag_174\n      jumpi\n      tag_175\n      tag_116\n      jump\t// in\n    tag_175:\n    tag_174:\n      dup2\n      mstore\n      0x20\n      add\n      0x04\n      dup3\n      add\n      sload\n      dup2\n      mstore\n      0x20\n      add\n      0x05\n      dup3\n      add\n      sload\n      dup2\n      mstore\n      0x20\n      add\n      0x06\n      dup3\n      add\n      sload\n      dup2\n      mstore\n      pop\n      pop\n        /* \"contracts/OrderBook.sol\":6235:6245  msg.sender */\n      caller\n        /* \"contracts/OrderBook.sol\":2745:2751  sender */\n      dup1\n        /* \"contracts/OrderBook.sol\":2726:2751  _order.customer == sender */\n      0xffffffffffffffffffffffffffffffffffffffff\n      and\n        /* \"contracts/OrderBook.sol\":2726:2732  _order */\n      dup3\n        /* \"contracts/OrderBook.sol\":2726:2741  _order.customer */\n      0x00\n      add\n      mload\n        /* \"contracts/OrderBook.sol\":2726:2751  _order.customer == sender */\n      0xffffffffffffffffffffffffffffffffffffffff\n      and\n      eq\n        /* \"contracts/OrderBook.sol\":2718:2770  require(_order.customer == sender, \"Not Authorised\") */\n      tag_177\n      jumpi\n      mload(0x40)\n      0x08c379a000000000000000000000000000000000000000000000000000000000\n      dup2\n      mstore\n      0x04\n      add\n      tag_178\n      swap1\n      tag_134\n      jump\t// in\n    tag_178:\n      mload(0x40)\n      dup1\n      swap2\n      sub\n      swap1\n      revert\n    tag_177:\n        /* \"contracts/OrderBook.sol\":2635:2636  _ */\n      pop\n      pop\n        /* \"contracts/OrderBook.sol\":6138:6395  function cancelBid (uint256 bidId) public isPending(bidBook[bidId]) isAuthorised(bidBook[bidId], msg.sender) {... */\n      pop\n      pop\n      jump\t// out\n        /* \"contracts/OrderBook.sol\":5563:6132  function placeBid (uint256 price) public payable {... */\n    tag_84:\n        /* \"contracts/OrderBook.sol\":5639:5640  0 */\n      0x00\n        /* \"contracts/OrderBook.sol\":5630:5635  price */\n      dup2\n        /* \"contracts/OrderBook.sol\":5630:5640  price >= 0 */\n      lt\n      iszero\n        /* \"contracts/OrderBook.sol\":5622:5676  require(price >= 0, \"price value must be more than 0\") */\n      tag_181\n      jumpi\n      mload(0x40)\n      0x08c379a000000000000000000000000000000000000000000000000000000000\n      dup2\n      mstore\n      0x04\n      add\n      tag_182\n      swap1\n      tag_147\n      jump\t// in\n    tag_182:\n      mload(0x40)\n      dup1\n      swap2\n      sub\n      swap1\n      revert\n    tag_181:\n        /* \"contracts/OrderBook.sol\":5707:5712  price */\n      dup1\n        /* \"contracts/OrderBook.sol\":5694:5703  msg.value */\n      callvalue\n        /* \"contracts/OrderBook.sol\":5694:5712  msg.value >= price */\n      lt\n      iszero\n        /* \"contracts/OrderBook.sol\":5686:5747  require(msg.value >= price, \"Not enough blance to place bid\") */\n      tag_183\n      jumpi\n      mload(0x40)\n      0x08c379a000000000000000000000000000000000000000000000000000000000\n      dup2\n      mstore\n      0x04\n      add\n      tag_184\n      swap1\n      tag_185\n      jump\t// in\n    tag_184:\n      mload(0x40)\n      dup1\n      swap2\n      sub\n      swap1\n      revert\n    tag_183:\n        /* \"contracts/OrderBook.sol\":5563:6132  function placeBid (uint256 price) public payable {... */\n      pop\n      jump\t// out\n        /* \"contracts/OrderBook.sol\":2023:2046  uint256 public askCount */\n    tag_87:\n      sload(0x08)\n      dup2\n      jump\t// out\n        /* \"contracts/OrderBook.sol\":1878:1901  uint256 public bidCount */\n    tag_91:\n      sload(0x05)\n      dup2\n      jump\t// out\n        /* \"contracts/OrderBook.sol\":8436:8538  function getBidState (uint256 id) public view returns(State) {... */\n    tag_96:\n        /* \"contracts/OrderBook.sol\":8490:8495  State */\n      0x00\n        /* \"contracts/OrderBook.sol\":8514:8521  bidBook */\n      0x03\n        /* \"contracts/OrderBook.sol\":8514:8525  bidBook[id] */\n      0x00\n        /* \"contracts/OrderBook.sol\":8522:8524  id */\n      dup4\n        /* \"contracts/OrderBook.sol\":8514:8525  bidBook[id] */\n      dup2\n      mstore\n      0x20\n      add\n      swap1\n      dup2\n      mstore\n      0x20\n      add\n      0x00\n      keccak256\n        /* \"contracts/OrderBook.sol\":8514:8531  bidBook[id].state */\n      0x03\n      add\n      0x00\n      swap1\n      sload\n      swap1\n      0x0100\n      exp\n      swap1\n      div\n      0xff\n      and\n        /* \"contracts/OrderBook.sol\":8507:8531  return bidBook[id].state */\n      swap1\n      pop\n        /* \"contracts/OrderBook.sol\":8436:8538  function getBidState (uint256 id) public view returns(State) {... */\n      swap2\n      swap1\n      pop\n      jump\t// out\n        /* \"contracts/OrderBook.sol\":7492:7560  function fetchYourBidIds() public returns (uint256[] memory) {... */\n    tag_100:\n        /* \"contracts/OrderBook.sol\":7535:7551  uint256[] memory */\n      0x60\n        /* \"contracts/OrderBook.sol\":7492:7560  function fetchYourBidIds() public returns (uint256[] memory) {... */\n      swap1\n      jump\t// out\n        /* \"contracts/OrderBook.sol\":7640:7964  function getOrder(uint256 id) public view returns(address payable,uint256,uint256,State,uint256,uint256,uint256,bool) {... */\n    tag_105:\n        /* \"contracts/OrderBook.sol\":7690:7705  address payable */\n      0x00\n        /* \"contracts/OrderBook.sol\":7706:7713  uint256 */\n      dup1\n        /* \"contracts/OrderBook.sol\":7714:7721  uint256 */\n      0x00\n        /* \"contracts/OrderBook.sol\":7722:7727  State */\n      dup1\n        /* \"contracts/OrderBook.sol\":7728:7735  uint256 */\n      0x00\n        /* \"contracts/OrderBook.sol\":7736:7743  uint256 */\n      dup1\n        /* \"contracts/OrderBook.sol\":7744:7751  uint256 */\n      0x00\n        /* \"contracts/OrderBook.sol\":7752:7756  bool */\n      dup1\n        /* \"contracts/OrderBook.sol\":7640:7964  function getOrder(uint256 id) public view returns(address payable,uint256,uint256,State,uint256,uint256,uint256,bool) {... */\n      swap2\n      swap4\n      swap6\n      swap8\n      pop\n      swap2\n      swap4\n      swap6\n      swap8\n      jump\t// out\n        /* \"contracts/OrderBook.sol\":8326:8430  function getAskValue (uint256 id) public view returns(uint256) {... */\n    tag_111:\n        /* \"contracts/OrderBook.sol\":8380:8387  uint256 */\n      0x00\n        /* \"contracts/OrderBook.sol\":8406:8413  askBook */\n      0x06\n        /* \"contracts/OrderBook.sol\":8406:8417  askBook[id] */\n      0x00\n        /* \"contracts/OrderBook.sol\":8414:8416  id */\n      dup4\n        /* \"contracts/OrderBook.sol\":8406:8417  askBook[id] */\n      dup2\n      mstore\n      0x20\n      add\n      swap1\n      dup2\n      mstore\n      0x20\n      add\n      0x00\n      keccak256\n        /* \"contracts/OrderBook.sol\":8406:8423  askBook[id].value */\n      0x01\n      add\n      sload\n        /* \"contracts/OrderBook.sol\":8399:8423  return askBook[id].value */\n      swap1\n      pop\n        /* \"contracts/OrderBook.sol\":8326:8430  function getAskValue (uint256 id) public view returns(uint256) {... */\n      swap2\n      swap1\n      pop\n      jump\t// out\n        /* \"contracts/OrderBook.sol\":3305:3783  function createAsk(address customer, uint256 value, uint256 timestamp) internal returns (order memory) {... */\n    tag_158:\n        /* \"contracts/OrderBook.sol\":3394:3406  order memory */\n      tag_190\n      tag_191\n      jump\t// in\n    tag_190:\n        /* \"contracts/OrderBook.sol\":3418:3426  askCount */\n      0x08\n      0x00\n        /* \"contracts/OrderBook.sol\":3418:3429  askCount ++ */\n      dup2\n      sload\n      dup1\n      swap3\n      swap2\n      swap1\n      tag_193\n      swap1\n      tag_194\n      jump\t// in\n    tag_193:\n      swap2\n      swap1\n      pop\n      sstore\n      pop\n        /* \"contracts/OrderBook.sol\":3439:3458  order memory newAsk */\n      0x00\n        /* \"contracts/OrderBook.sol\":3461:3628  order(... */\n      mload(0x40)\n      dup1\n      0xe0\n      add\n      0x40\n      mstore\n      dup1\n        /* \"contracts/OrderBook.sol\":3488:3496  customer */\n      dup7\n        /* \"contracts/OrderBook.sol\":3461:3628  order(... */\n      0xffffffffffffffffffffffffffffffffffffffff\n      and\n      dup2\n      mstore\n      0x20\n      add\n        /* \"contracts/OrderBook.sol\":3511:3516  value */\n      dup6\n        /* \"contracts/OrderBook.sol\":3461:3628  order(... */\n      dup2\n      mstore\n      0x20\n      add\n        /* \"contracts/OrderBook.sol\":3530:3539  timestamp */\n      dup5\n        /* \"contracts/OrderBook.sol\":3461:3628  order(... */\n      dup2\n      mstore\n      0x20\n      add\n        /* \"contracts/OrderBook.sol\":3553:3566  State.pending */\n      0x00\n        /* \"contracts/OrderBook.sol\":3461:3628  order(... */\n      0x01\n      dup2\n      gt\n      iszero\n      tag_195\n      jumpi\n      tag_196\n      tag_116\n      jump\t// in\n    tag_196:\n    tag_195:\n      dup2\n      mstore\n      0x20\n      add\n        /* \"contracts/OrderBook.sol\":3580:3588  askCount */\n      sload(0x08)\n        /* \"contracts/OrderBook.sol\":3461:3628  order(... */\n      dup2\n      mstore\n      0x20\n      add\n        /* \"contracts/OrderBook.sol\":3602:3603  0 */\n      0x00\n        /* \"contracts/OrderBook.sol\":3461:3628  order(... */\n      dup2\n      mstore\n      0x20\n      add\n        /* \"contracts/OrderBook.sol\":3617:3618  0 */\n      0x00\n        /* \"contracts/OrderBook.sol\":3461:3628  order(... */\n      dup2\n      mstore\n      pop\n        /* \"contracts/OrderBook.sol\":3439:3628  order memory newAsk = order(... */\n      swap1\n      pop\n        /* \"contracts/OrderBook.sol\":3658:3664  newAsk */\n      dup1\n        /* \"contracts/OrderBook.sol\":3638:3645  askBook */\n      0x06\n        /* \"contracts/OrderBook.sol\":3638:3655  askBook[askCount] */\n      0x00\n        /* \"contracts/OrderBook.sol\":3646:3654  askCount */\n      sload(0x08)\n        /* \"contracts/OrderBook.sol\":3638:3655  askBook[askCount] */\n      dup2\n      mstore\n      0x20\n      add\n      swap1\n      dup2\n      mstore\n      0x20\n      add\n      0x00\n      keccak256\n        /* \"contracts/OrderBook.sol\":3638:3664  askBook[askCount] = newAsk */\n      0x00\n      dup3\n      add\n      mload\n      dup2\n      0x00\n      add\n      exp(0x0100, 0x00)\n      dup2\n      sload\n      dup2\n      0xffffffffffffffffffffffffffffffffffffffff\n      mul\n      not\n      and\n      swap1\n      dup4\n      0xffffffffffffffffffffffffffffffffffffffff\n      and\n      mul\n      or\n      swap1\n      sstore\n      pop\n      0x20\n      dup3\n      add\n      mload\n      dup2\n      0x01\n      add\n      sstore\n      0x40\n      dup3\n      add\n      mload\n      dup2\n      0x02\n      add\n      sstore\n      0x60\n      dup3\n      add\n      mload\n      dup2\n      0x03\n      add\n      exp(0x0100, 0x00)\n      dup2\n      sload\n      dup2\n      0xff\n      mul\n      not\n      and\n      swap1\n      dup4\n      0x01\n      dup2\n      gt\n      iszero\n      tag_197\n      jumpi\n      tag_198\n      tag_116\n      jump\t// in\n    tag_198:\n    tag_197:\n      mul\n      or\n      swap1\n      sstore\n      pop\n      0x80\n      dup3\n      add\n      mload\n      dup2\n      0x04\n      add\n      sstore\n      0xa0\n      dup3\n      add\n      mload\n      dup2\n      0x05\n      add\n      sstore\n      0xc0\n      dup3\n      add\n      mload\n      dup2\n      0x06\n      add\n      sstore\n      swap1\n      pop\n      pop\n        /* \"contracts/OrderBook.sol\":3679:3750  orderCreated(customer,value,timestamp,State.pending,askCount,0,0,false) */\n      0x93caf6ba1af44020dfe6076e279533e38bd8deefe534c43aa8cc93aad2025b7d\n        /* \"contracts/OrderBook.sol\":3692:3700  customer */\n      dup6\n        /* \"contracts/OrderBook.sol\":3701:3706  value */\n      dup6\n        /* \"contracts/OrderBook.sol\":3707:3716  timestamp */\n      dup6\n        /* \"contracts/OrderBook.sol\":3717:3730  State.pending */\n      0x00\n        /* \"contracts/OrderBook.sol\":3731:3739  askCount */\n      sload(0x08)\n        /* \"contracts/OrderBook.sol\":3740:3741  0 */\n      0x00\n        /* \"contracts/OrderBook.sol\":3742:3743  0 */\n      dup1\n        /* \"contracts/OrderBook.sol\":3744:3749  false */\n      0x00\n        /* \"contracts/OrderBook.sol\":3679:3750  orderCreated(customer,value,timestamp,State.pending,askCount,0,0,false) */\n      mload(0x40)\n      tag_199\n      swap9\n      swap8\n      swap7\n      swap6\n      swap5\n      swap4\n      swap3\n      swap2\n      swap1\n      tag_200\n      jump\t// in\n    tag_199:\n      mload(0x40)\n      dup1\n      swap2\n      sub\n      swap1\n      log1\n        /* \"contracts/OrderBook.sol\":3770:3776  newAsk */\n      dup1\n        /* \"contracts/OrderBook.sol\":3763:3776  return newAsk */\n      swap2\n      pop\n      pop\n        /* \"contracts/OrderBook.sol\":3305:3783  function createAsk(address customer, uint256 value, uint256 timestamp) internal returns (order memory) {... */\n      swap4\n      swap3\n      pop\n      pop\n      pop\n      jump\t// out\n        /* \"contracts/OrderBook.sol\":4386:5219  function sortAsk(order memory newOrder) internal {... */\n    tag_160:\n        /* \"contracts/OrderBook.sol\":4445:4460  uint256 current */\n      0x00\n        /* \"contracts/OrderBook.sol\":4485:4486  0 */\n      dup1\n        /* \"contracts/OrderBook.sol\":4474:4481  askHead */\n      sload(0x07)\n        /* \"contracts/OrderBook.sol\":4474:4486  askHead == 0 */\n      sub\n        /* \"contracts/OrderBook.sol\":4470:5213  if (askHead == 0) {... */\n      tag_202\n      jumpi\n        /* \"contracts/OrderBook.sol\":4512:4520  newOrder */\n      dup2\n        /* \"contracts/OrderBook.sol\":4512:4523  newOrder.id */\n      0x80\n      add\n      mload\n        /* \"contracts/OrderBook.sol\":4502:4509  askHead */\n      0x07\n        /* \"contracts/OrderBook.sol\":4502:4523  askHead = newOrder.id */\n      dup2\n      swap1\n      sstore\n      pop\n        /* \"contracts/OrderBook.sol\":4470:5213  if (askHead == 0) {... */\n      jump(tag_203)\n    tag_202:\n        /* \"contracts/OrderBook.sol\":4578:4586  newOrder */\n      dup2\n        /* \"contracts/OrderBook.sol\":4578:4592  newOrder.value */\n      0x20\n      add\n      mload\n        /* \"contracts/OrderBook.sol\":4552:4559  askBook */\n      0x06\n        /* \"contracts/OrderBook.sol\":4552:4568  askBook[askHead] */\n      0x00\n        /* \"contracts/OrderBook.sol\":4560:4567  askHead */\n      sload(0x07)\n        /* \"contracts/OrderBook.sol\":4552:4568  askBook[askHead] */\n      dup2\n      mstore\n      0x20\n      add\n      swap1\n      dup2\n      mstore\n      0x20\n      add\n      0x00\n      keccak256\n        /* \"contracts/OrderBook.sol\":4552:4574  askBook[askHead].value */\n      0x01\n      add\n      sload\n        /* \"contracts/OrderBook.sol\":4552:4592  askBook[askHead].value >= newOrder.value */\n      lt\n        /* \"contracts/OrderBook.sol\":4548:5213  if (askBook[askHead].value >= newOrder.value) {... */\n      tag_204\n      jumpi\n        /* \"contracts/OrderBook.sol\":4624:4631  askHead */\n      sload(0x07)\n        /* \"contracts/OrderBook.sol\":4608:4616  newOrder */\n      dup3\n        /* \"contracts/OrderBook.sol\":4608:4621  newOrder.next */\n      0xa0\n      add\n        /* \"contracts/OrderBook.sol\":4608:4631  newOrder.next = askHead */\n      dup2\n      dup2\n      mstore\n      pop\n      pop\n        /* \"contracts/OrderBook.sol\":4675:4683  newOrder */\n      dup2\n        /* \"contracts/OrderBook.sol\":4675:4686  newOrder.id */\n      0x80\n      add\n      mload\n        /* \"contracts/OrderBook.sol\":4645:4652  askBook */\n      0x06\n        /* \"contracts/OrderBook.sol\":4645:4667  askBook[newOrder.next] */\n      0x00\n        /* \"contracts/OrderBook.sol\":4653:4661  newOrder */\n      dup5\n        /* \"contracts/OrderBook.sol\":4653:4666  newOrder.next */\n      0xa0\n      add\n      mload\n        /* \"contracts/OrderBook.sol\":4645:4667  askBook[newOrder.next] */\n      dup2\n      mstore\n      0x20\n      add\n      swap1\n      dup2\n      mstore\n      0x20\n      add\n      0x00\n      keccak256\n        /* \"contracts/OrderBook.sol\":4645:4672  askBook[newOrder.next].prev */\n      0x06\n      add\n        /* \"contracts/OrderBook.sol\":4645:4686  askBook[newOrder.next].prev = newOrder.id */\n      dup2\n      swap1\n      sstore\n      pop\n        /* \"contracts/OrderBook.sol\":4710:4718  newOrder */\n      dup2\n        /* \"contracts/OrderBook.sol\":4710:4721  newOrder.id */\n      0x80\n      add\n      mload\n        /* \"contracts/OrderBook.sol\":4700:4707  askHead */\n      0x07\n        /* \"contracts/OrderBook.sol\":4700:4721  askHead = newOrder.id */\n      dup2\n      swap1\n      sstore\n      pop\n        /* \"contracts/OrderBook.sol\":4548:5213  if (askBook[askHead].value >= newOrder.value) {... */\n      jump(tag_205)\n    tag_204:\n        /* \"contracts/OrderBook.sol\":4770:4777  askHead */\n      sload(0x07)\n        /* \"contracts/OrderBook.sol\":4760:4777  current = askHead */\n      swap1\n      pop\n        /* \"contracts/OrderBook.sol\":4791:4947  while (askBook[current].next != 0 && askBook[askBook[current].next].value < newOrder.value) {... */\n    tag_206:\n        /* \"contracts/OrderBook.sol\":4823:4824  0 */\n      0x00\n        /* \"contracts/OrderBook.sol\":4798:4805  askBook */\n      0x06\n        /* \"contracts/OrderBook.sol\":4798:4814  askBook[current] */\n      0x00\n        /* \"contracts/OrderBook.sol\":4806:4813  current */\n      dup4\n        /* \"contracts/OrderBook.sol\":4798:4814  askBook[current] */\n      dup2\n      mstore\n      0x20\n      add\n      swap1\n      dup2\n      mstore\n      0x20\n      add\n      0x00\n      keccak256\n        /* \"contracts/OrderBook.sol\":4798:4819  askBook[current].next */\n      0x05\n      add\n      sload\n        /* \"contracts/OrderBook.sol\":4798:4824  askBook[current].next != 0 */\n      eq\n      iszero\n        /* \"contracts/OrderBook.sol\":4798:4881  askBook[current].next != 0 && askBook[askBook[current].next].value < newOrder.value */\n      dup1\n      iszero\n      tag_208\n      jumpi\n      pop\n        /* \"contracts/OrderBook.sol\":4867:4875  newOrder */\n      dup2\n        /* \"contracts/OrderBook.sol\":4867:4881  newOrder.value */\n      0x20\n      add\n      mload\n        /* \"contracts/OrderBook.sol\":4828:4835  askBook */\n      0x06\n        /* \"contracts/OrderBook.sol\":4828:4858  askBook[askBook[current].next] */\n      0x00\n        /* \"contracts/OrderBook.sol\":4836:4843  askBook */\n      0x06\n        /* \"contracts/OrderBook.sol\":4836:4852  askBook[current] */\n      0x00\n        /* \"contracts/OrderBook.sol\":4844:4851  current */\n      dup6\n        /* \"contracts/OrderBook.sol\":4836:4852  askBook[current] */\n      dup2\n      mstore\n      0x20\n      add\n      swap1\n      dup2\n      mstore\n      0x20\n      add\n      0x00\n      keccak256\n        /* \"contracts/OrderBook.sol\":4836:4857  askBook[current].next */\n      0x05\n      add\n      sload\n        /* \"contracts/OrderBook.sol\":4828:4858  askBook[askBook[current].next] */\n      dup2\n      mstore\n      0x20\n      add\n      swap1\n      dup2\n      mstore\n      0x20\n      add\n      0x00\n      keccak256\n        /* \"contracts/OrderBook.sol\":4828:4864  askBook[askBook[current].next].value */\n      0x01\n      add\n      sload\n        /* \"contracts/OrderBook.sol\":4828:4881  askBook[askBook[current].next].value < newOrder.value */\n      lt\n        /* \"contracts/OrderBook.sol\":4798:4881  askBook[current].next != 0 && askBook[askBook[current].next].value < newOrder.value */\n    tag_208:\n        /* \"contracts/OrderBook.sol\":4791:4947  while (askBook[current].next != 0 && askBook[askBook[current].next].value < newOrder.value) {... */\n      iszero\n      tag_207\n      jumpi\n        /* \"contracts/OrderBook.sol\":4911:4918  askBook */\n      0x06\n        /* \"contracts/OrderBook.sol\":4911:4927  askBook[current] */\n      0x00\n        /* \"contracts/OrderBook.sol\":4919:4926  current */\n      dup3\n        /* \"contracts/OrderBook.sol\":4911:4927  askBook[current] */\n      dup2\n      mstore\n      0x20\n      add\n      swap1\n      dup2\n      mstore\n      0x20\n      add\n      0x00\n      keccak256\n        /* \"contracts/OrderBook.sol\":4911:4932  askBook[current].next */\n      0x05\n      add\n      sload\n        /* \"contracts/OrderBook.sol\":4901:4932  current = askBook[current].next */\n      swap1\n      pop\n        /* \"contracts/OrderBook.sol\":4791:4947  while (askBook[current].next != 0 && askBook[askBook[current].next].value < newOrder.value) {... */\n      jump(tag_206)\n    tag_207:\n        /* \"contracts/OrderBook.sol\":4976:4983  askBook */\n      0x06\n        /* \"contracts/OrderBook.sol\":4976:4992  askBook[current] */\n      0x00\n        /* \"contracts/OrderBook.sol\":4984:4991  current */\n      dup3\n        /* \"contracts/OrderBook.sol\":4976:4992  askBook[current] */\n      dup2\n      mstore\n      0x20\n      add\n      swap1\n      dup2\n      mstore\n      0x20\n      add\n      0x00\n      keccak256\n        /* \"contracts/OrderBook.sol\":4976:4997  askBook[current].next */\n      0x05\n      add\n      sload\n        /* \"contracts/OrderBook.sol\":4960:4968  newOrder */\n      dup3\n        /* \"contracts/OrderBook.sol\":4960:4973  newOrder.next */\n      0xa0\n      add\n        /* \"contracts/OrderBook.sol\":4960:4997  newOrder.next = askBook[current].next */\n      dup2\n      dup2\n      mstore\n      pop\n      pop\n        /* \"contracts/OrderBook.sol\":5040:5041  0 */\n      0x00\n        /* \"contracts/OrderBook.sol\":5015:5022  askBook */\n      0x06\n        /* \"contracts/OrderBook.sol\":5015:5031  askBook[current] */\n      0x00\n        /* \"contracts/OrderBook.sol\":5023:5030  current */\n      dup4\n        /* \"contracts/OrderBook.sol\":5015:5031  askBook[current] */\n      dup2\n      mstore\n      0x20\n      add\n      swap1\n      dup2\n      mstore\n      0x20\n      add\n      0x00\n      keccak256\n        /* \"contracts/OrderBook.sol\":5015:5036  askBook[current].next */\n      0x05\n      add\n      sload\n        /* \"contracts/OrderBook.sol\":5015:5041  askBook[current].next != 0 */\n      eq\n        /* \"contracts/OrderBook.sol\":5011:5117  if (askBook[current].next != 0) {... */\n      tag_209\n      jumpi\n        /* \"contracts/OrderBook.sol\":5091:5099  newOrder */\n      dup2\n        /* \"contracts/OrderBook.sol\":5091:5102  newOrder.id */\n      0x80\n      add\n      mload\n        /* \"contracts/OrderBook.sol\":5061:5068  askBook */\n      0x06\n        /* \"contracts/OrderBook.sol\":5061:5083  askBook[newOrder.next] */\n      0x00\n        /* \"contracts/OrderBook.sol\":5069:5077  newOrder */\n      dup5\n        /* \"contracts/OrderBook.sol\":5069:5082  newOrder.next */\n      0xa0\n      add\n      mload\n        /* \"contracts/OrderBook.sol\":5061:5083  askBook[newOrder.next] */\n      dup2\n      mstore\n      0x20\n      add\n      swap1\n      dup2\n      mstore\n      0x20\n      add\n      0x00\n      keccak256\n        /* \"contracts/OrderBook.sol\":5061:5088  askBook[newOrder.next].prev */\n      0x06\n      add\n        /* \"contracts/OrderBook.sol\":5061:5102  askBook[newOrder.next].prev = newOrder.id */\n      dup2\n      swap1\n      sstore\n      pop\n        /* \"contracts/OrderBook.sol\":5011:5117  if (askBook[current].next != 0) {... */\n    tag_209:\n        /* \"contracts/OrderBook.sol\":5154:5162  newOrder */\n      dup2\n        /* \"contracts/OrderBook.sol\":5154:5165  newOrder.id */\n      0x80\n      add\n      mload\n        /* \"contracts/OrderBook.sol\":5130:5137  askBook */\n      0x06\n        /* \"contracts/OrderBook.sol\":5130:5146  askBook[current] */\n      0x00\n        /* \"contracts/OrderBook.sol\":5138:5145  current */\n      dup4\n        /* \"contracts/OrderBook.sol\":5130:5146  askBook[current] */\n      dup2\n      mstore\n      0x20\n      add\n      swap1\n      dup2\n      mstore\n      0x20\n      add\n      0x00\n      keccak256\n        /* \"contracts/OrderBook.sol\":5130:5151  askBook[current].next */\n      0x05\n      add\n        /* \"contracts/OrderBook.sol\":5130:5165  askBook[current].next = newOrder.id */\n      dup2\n      swap1\n      sstore\n      pop\n        /* \"contracts/OrderBook.sol\":5195:5202  current */\n      dup1\n        /* \"contracts/OrderBook.sol\":5179:5187  newOrder */\n      dup3\n        /* \"contracts/OrderBook.sol\":5179:5192  newOrder.prev */\n      0xc0\n      add\n        /* \"contracts/OrderBook.sol\":5179:5202  newOrder.prev = current */\n      dup2\n      dup2\n      mstore\n      pop\n      pop\n        /* \"contracts/OrderBook.sol\":4548:5213  if (askBook[askHead].value >= newOrder.value) {... */\n    tag_205:\n        /* \"contracts/OrderBook.sol\":4470:5213  if (askHead == 0) {... */\n    tag_203:\n        /* \"contracts/OrderBook.sol\":4435:5219  {... */\n      pop\n        /* \"contracts/OrderBook.sol\":4386:5219  function sortAsk(order memory newOrder) internal {... */\n      pop\n      jump\t// out\n    tag_191:\n      mload(0x40)\n      dup1\n      0xe0\n      add\n      0x40\n      mstore\n      dup1\n      and(0xffffffffffffffffffffffffffffffffffffffff, 0x00)\n      dup2\n      mstore\n      0x20\n      add\n      0x00\n      dup2\n      mstore\n      0x20\n      add\n      0x00\n      dup2\n      mstore\n      0x20\n      add\n      0x00\n      0x01\n      dup2\n      gt\n      iszero\n      tag_210\n      jumpi\n      tag_211\n      tag_116\n      jump\t// in\n    tag_211:\n    tag_210:\n      dup2\n      mstore\n      0x20\n      add\n      0x00\n      dup2\n      mstore\n      0x20\n      add\n      0x00\n      dup2\n      mstore\n      0x20\n      add\n      0x00\n      dup2\n      mstore\n      pop\n      swap1\n      jump\t// out\n        /* \"#utility.yul\":7:121   */\n    tag_212:\n        /* \"#utility.yul\":74:80   */\n      0x00\n        /* \"#utility.yul\":108:113   */\n      dup2\n        /* \"#utility.yul\":102:114   */\n      mload\n        /* \"#utility.yul\":92:114   */\n      swap1\n      pop\n        /* \"#utility.yul\":7:121   */\n      swap2\n      swap1\n      pop\n      jump\t// out\n        /* \"#utility.yul\":127:311   */\n    tag_213:\n        /* \"#utility.yul\":226:237   */\n      0x00\n        /* \"#utility.yul\":260:266   */\n      dup3\n        /* \"#utility.yul\":255:258   */\n      dup3\n        /* \"#utility.yul\":248:267   */\n      mstore\n        /* \"#utility.yul\":300:304   */\n      0x20\n        /* \"#utility.yul\":295:298   */\n      dup3\n        /* \"#utility.yul\":291:305   */\n      add\n        /* \"#utility.yul\":276:305   */\n      swap1\n      pop\n        /* \"#utility.yul\":127:311   */\n      swap3\n      swap2\n      pop\n      pop\n      jump\t// out\n        /* \"#utility.yul\":317:449   */\n    tag_214:\n        /* \"#utility.yul\":384:388   */\n      0x00\n        /* \"#utility.yul\":407:410   */\n      dup2\n        /* \"#utility.yul\":399:410   */\n      swap1\n      pop\n        /* \"#utility.yul\":437:441   */\n      0x20\n        /* \"#utility.yul\":432:435   */\n      dup3\n        /* \"#utility.yul\":428:442   */\n      add\n        /* \"#utility.yul\":420:442   */\n      swap1\n      pop\n        /* \"#utility.yul\":317:449   */\n      swap2\n      swap1\n      pop\n      jump\t// out\n        /* \"#utility.yul\":455:532   */\n    tag_215:\n        /* \"#utility.yul\":492:499   */\n      0x00\n        /* \"#utility.yul\":521:526   */\n      dup2\n        /* \"#utility.yul\":510:526   */\n      swap1\n      pop\n        /* \"#utility.yul\":455:532   */\n      swap2\n      swap1\n      pop\n      jump\t// out\n        /* \"#utility.yul\":538:646   */\n    tag_216:\n        /* \"#utility.yul\":615:639   */\n      tag_273\n        /* \"#utility.yul\":633:638   */\n      dup2\n        /* \"#utility.yul\":615:639   */\n      tag_215\n      jump\t// in\n    tag_273:\n        /* \"#utility.yul\":610:613   */\n      dup3\n        /* \"#utility.yul\":603:640   */\n      mstore\n        /* \"#utility.yul\":538:646   */\n      pop\n      pop\n      jump\t// out\n        /* \"#utility.yul\":652:831   */\n    tag_217:\n        /* \"#utility.yul\":721:731   */\n      0x00\n        /* \"#utility.yul\":742:788   */\n      tag_275\n        /* \"#utility.yul\":784:787   */\n      dup4\n        /* \"#utility.yul\":776:782   */\n      dup4\n        /* \"#utility.yul\":742:788   */\n      tag_216\n      jump\t// in\n    tag_275:\n        /* \"#utility.yul\":820:824   */\n      0x20\n        /* \"#utility.yul\":815:818   */\n      dup4\n        /* \"#utility.yul\":811:825   */\n      add\n        /* \"#utility.yul\":797:825   */\n      swap1\n      pop\n        /* \"#utility.yul\":652:831   */\n      swap3\n      swap2\n      pop\n      pop\n      jump\t// out\n        /* \"#utility.yul\":837:950   */\n    tag_218:\n        /* \"#utility.yul\":907:911   */\n      0x00\n        /* \"#utility.yul\":939:943   */\n      0x20\n        /* \"#utility.yul\":934:937   */\n      dup3\n        /* \"#utility.yul\":930:944   */\n      add\n        /* \"#utility.yul\":922:944   */\n      swap1\n      pop\n        /* \"#utility.yul\":837:950   */\n      swap2\n      swap1\n      pop\n      jump\t// out\n        /* \"#utility.yul\":986:1718   */\n    tag_219:\n        /* \"#utility.yul\":1105:1108   */\n      0x00\n        /* \"#utility.yul\":1134:1188   */\n      tag_278\n        /* \"#utility.yul\":1182:1187   */\n      dup3\n        /* \"#utility.yul\":1134:1188   */\n      tag_212\n      jump\t// in\n    tag_278:\n        /* \"#utility.yul\":1204:1290   */\n      tag_279\n        /* \"#utility.yul\":1283:1289   */\n      dup2\n        /* \"#utility.yul\":1278:1281   */\n      dup6\n        /* \"#utility.yul\":1204:1290   */\n      tag_213\n      jump\t// in\n    tag_279:\n        /* \"#utility.yul\":1197:1290   */\n      swap4\n      pop\n        /* \"#utility.yul\":1314:1370   */\n      tag_280\n        /* \"#utility.yul\":1364:1369   */\n      dup4\n        /* \"#utility.yul\":1314:1370   */\n      tag_214\n      jump\t// in\n    tag_280:\n        /* \"#utility.yul\":1393:1400   */\n      dup1\n        /* \"#utility.yul\":1424:1425   */\n      0x00\n        /* \"#utility.yul\":1409:1693   */\n    tag_281:\n        /* \"#utility.yul\":1434:1440   */\n      dup4\n        /* \"#utility.yul\":1431:1432   */\n      dup2\n        /* \"#utility.yul\":1428:1441   */\n      lt\n        /* \"#utility.yul\":1409:1693   */\n      iszero\n      tag_283\n      jumpi\n        /* \"#utility.yul\":1510:1516   */\n      dup2\n        /* \"#utility.yul\":1504:1517   */\n      mload\n        /* \"#utility.yul\":1537:1600   */\n      tag_284\n        /* \"#utility.yul\":1596:1599   */\n      dup9\n        /* \"#utility.yul\":1581:1594   */\n      dup3\n        /* \"#utility.yul\":1537:1600   */\n      tag_217\n      jump\t// in\n    tag_284:\n        /* \"#utility.yul\":1530:1600   */\n      swap8\n      pop\n        /* \"#utility.yul\":1623:1683   */\n      tag_285\n        /* \"#utility.yul\":1676:1682   */\n      dup4\n        /* \"#utility.yul\":1623:1683   */\n      tag_218\n      jump\t// in\n    tag_285:\n        /* \"#utility.yul\":1613:1683   */\n      swap3\n      pop\n        /* \"#utility.yul\":1469:1693   */\n      pop\n        /* \"#utility.yul\":1456:1457   */\n      0x01\n        /* \"#utility.yul\":1453:1454   */\n      dup2\n        /* \"#utility.yul\":1449:1458   */\n      add\n        /* \"#utility.yul\":1444:1458   */\n      swap1\n      pop\n        /* \"#utility.yul\":1409:1693   */\n      jump(tag_281)\n    tag_283:\n        /* \"#utility.yul\":1413:1427   */\n      pop\n        /* \"#utility.yul\":1709:1712   */\n      dup6\n        /* \"#utility.yul\":1702:1712   */\n      swap4\n      pop\n        /* \"#utility.yul\":1110:1718   */\n      pop\n      pop\n      pop\n        /* \"#utility.yul\":986:1718   */\n      swap3\n      swap2\n      pop\n      pop\n      jump\t// out\n        /* \"#utility.yul\":1724:2097   */\n    tag_28:\n        /* \"#utility.yul\":1867:1871   */\n      0x00\n        /* \"#utility.yul\":1905:1907   */\n      0x20\n        /* \"#utility.yul\":1894:1903   */\n      dup3\n        /* \"#utility.yul\":1890:1908   */\n      add\n        /* \"#utility.yul\":1882:1908   */\n      swap1\n      pop\n        /* \"#utility.yul\":1954:1963   */\n      dup2\n        /* \"#utility.yul\":1948:1952   */\n      dup2\n        /* \"#utility.yul\":1944:1964   */\n      sub\n        /* \"#utility.yul\":1940:1941   */\n      0x00\n        /* \"#utility.yul\":1929:1938   */\n      dup4\n        /* \"#utility.yul\":1925:1942   */\n      add\n        /* \"#utility.yul\":1918:1965   */\n      mstore\n        /* \"#utility.yul\":1982:2090   */\n      tag_287\n        /* \"#utility.yul\":2085:2089   */\n      dup2\n        /* \"#utility.yul\":2076:2082   */\n      dup5\n        /* \"#utility.yul\":1982:2090   */\n      tag_219\n      jump\t// in\n    tag_287:\n        /* \"#utility.yul\":1974:2090   */\n      swap1\n      pop\n        /* \"#utility.yul\":1724:2097   */\n      swap3\n      swap2\n      pop\n      pop\n      jump\t// out\n        /* \"#utility.yul\":2184:2301   */\n    tag_221:\n        /* \"#utility.yul\":2293:2294   */\n      0x00\n        /* \"#utility.yul\":2290:2291   */\n      dup1\n        /* \"#utility.yul\":2283:2295   */\n      revert\n        /* \"#utility.yul\":2430:2552   */\n    tag_223:\n        /* \"#utility.yul\":2503:2527   */\n      tag_292\n        /* \"#utility.yul\":2521:2526   */\n      dup2\n        /* \"#utility.yul\":2503:2527   */\n      tag_215\n      jump\t// in\n    tag_292:\n        /* \"#utility.yul\":2496:2501   */\n      dup2\n        /* \"#utility.yul\":2493:2528   */\n      eq\n        /* \"#utility.yul\":2483:2546   */\n      tag_293\n      jumpi\n        /* \"#utility.yul\":2542:2543   */\n      0x00\n        /* \"#utility.yul\":2539:2540   */\n      dup1\n        /* \"#utility.yul\":2532:2544   */\n      revert\n        /* \"#utility.yul\":2483:2546   */\n    tag_293:\n        /* \"#utility.yul\":2430:2552   */\n      pop\n      jump\t// out\n        /* \"#utility.yul\":2558:2697   */\n    tag_224:\n        /* \"#utility.yul\":2604:2609   */\n      0x00\n        /* \"#utility.yul\":2642:2648   */\n      dup2\n        /* \"#utility.yul\":2629:2649   */\n      calldataload\n        /* \"#utility.yul\":2620:2649   */\n      swap1\n      pop\n        /* \"#utility.yul\":2658:2691   */\n      tag_295\n        /* \"#utility.yul\":2685:2690   */\n      dup2\n        /* \"#utility.yul\":2658:2691   */\n      tag_223\n      jump\t// in\n    tag_295:\n        /* \"#utility.yul\":2558:2697   */\n      swap3\n      swap2\n      pop\n      pop\n      jump\t// out\n        /* \"#utility.yul\":2703:3032   */\n    tag_32:\n        /* \"#utility.yul\":2762:2768   */\n      0x00\n        /* \"#utility.yul\":2811:2813   */\n      0x20\n        /* \"#utility.yul\":2799:2808   */\n      dup3\n        /* \"#utility.yul\":2790:2797   */\n      dup5\n        /* \"#utility.yul\":2786:2809   */\n      sub\n        /* \"#utility.yul\":2782:2814   */\n      slt\n        /* \"#utility.yul\":2779:2898   */\n      iszero\n      tag_297\n      jumpi\n        /* \"#utility.yul\":2817:2896   */\n      tag_298\n      tag_221\n      jump\t// in\n    tag_298:\n        /* \"#utility.yul\":2779:2898   */\n    tag_297:\n        /* \"#utility.yul\":2937:2938   */\n      0x00\n        /* \"#utility.yul\":2962:3015   */\n      tag_299\n        /* \"#utility.yul\":3007:3014   */\n      dup5\n        /* \"#utility.yul\":2998:3004   */\n      dup3\n        /* \"#utility.yul\":2987:2996   */\n      dup6\n        /* \"#utility.yul\":2983:3005   */\n      add\n        /* \"#utility.yul\":2962:3015   */\n      tag_224\n      jump\t// in\n    tag_299:\n        /* \"#utility.yul\":2952:3015   */\n      swap2\n      pop\n        /* \"#utility.yul\":2908:3025   */\n      pop\n        /* \"#utility.yul\":2703:3032   */\n      swap3\n      swap2\n      pop\n      pop\n      jump\t// out\n        /* \"#utility.yul\":3038:3156   */\n    tag_225:\n        /* \"#utility.yul\":3125:3149   */\n      tag_301\n        /* \"#utility.yul\":3143:3148   */\n      dup2\n        /* \"#utility.yul\":3125:3149   */\n      tag_215\n      jump\t// in\n    tag_301:\n        /* \"#utility.yul\":3120:3123   */\n      dup3\n        /* \"#utility.yul\":3113:3150   */\n      mstore\n        /* \"#utility.yul\":3038:3156   */\n      pop\n      pop\n      jump\t// out\n        /* \"#utility.yul\":3162:3384   */\n    tag_39:\n        /* \"#utility.yul\":3255:3259   */\n      0x00\n        /* \"#utility.yul\":3293:3295   */\n      0x20\n        /* \"#utility.yul\":3282:3291   */\n      dup3\n        /* \"#utility.yul\":3278:3296   */\n      add\n        /* \"#utility.yul\":3270:3296   */\n      swap1\n      pop\n        /* \"#utility.yul\":3306:3377   */\n      tag_303\n        /* \"#utility.yul\":3374:3375   */\n      0x00\n        /* \"#utility.yul\":3363:3372   */\n      dup4\n        /* \"#utility.yul\":3359:3376   */\n      add\n        /* \"#utility.yul\":3350:3356   */\n      dup5\n        /* \"#utility.yul\":3306:3377   */\n      tag_225\n      jump\t// in\n    tag_303:\n        /* \"#utility.yul\":3162:3384   */\n      swap3\n      swap2\n      pop\n      pop\n      jump\t// out\n        /* \"#utility.yul\":3390:3526   */\n    tag_226:\n        /* \"#utility.yul\":3479:3485   */\n      0x00\n        /* \"#utility.yul\":3513:3518   */\n      dup2\n        /* \"#utility.yul\":3507:3519   */\n      mload\n        /* \"#utility.yul\":3497:3519   */\n      swap1\n      pop\n        /* \"#utility.yul\":3390:3526   */\n      swap2\n      swap1\n      pop\n      jump\t// out\n        /* \"#utility.yul\":3532:3738   */\n    tag_227:\n        /* \"#utility.yul\":3653:3664   */\n      0x00\n        /* \"#utility.yul\":3687:3693   */\n      dup3\n        /* \"#utility.yul\":3682:3685   */\n      dup3\n        /* \"#utility.yul\":3675:3694   */\n      mstore\n        /* \"#utility.yul\":3727:3731   */\n      0x20\n        /* \"#utility.yul\":3722:3725   */\n      dup3\n        /* \"#utility.yul\":3718:3732   */\n      add\n        /* \"#utility.yul\":3703:3732   */\n      swap1\n      pop\n        /* \"#utility.yul\":3532:3738   */\n      swap3\n      swap2\n      pop\n      pop\n      jump\t// out\n        /* \"#utility.yul\":3744:3898   */\n    tag_228:\n        /* \"#utility.yul\":3833:3837   */\n      0x00\n        /* \"#utility.yul\":3856:3859   */\n      dup2\n        /* \"#utility.yul\":3848:3859   */\n      swap1\n      pop\n        /* \"#utility.yul\":3886:3890   */\n      0x20\n        /* \"#utility.yul\":3881:3884   */\n      dup3\n        /* \"#utility.yul\":3877:3891   */\n      add\n        /* \"#utility.yul\":3869:3891   */\n      swap1\n      pop\n        /* \"#utility.yul\":3744:3898   */\n      swap2\n      swap1\n      pop\n      jump\t// out\n        /* \"#utility.yul\":3904:4030   */\n    tag_229:\n        /* \"#utility.yul\":3941:3948   */\n      0x00\n        /* \"#utility.yul\":3981:4023   */\n      0xffffffffffffffffffffffffffffffffffffffff\n        /* \"#utility.yul\":3974:3979   */\n      dup3\n        /* \"#utility.yul\":3970:4024   */\n      and\n        /* \"#utility.yul\":3959:4024   */\n      swap1\n      pop\n        /* \"#utility.yul\":3904:4030   */\n      swap2\n      swap1\n      pop\n      jump\t// out\n        /* \"#utility.yul\":4036:4140   */\n    tag_230:\n        /* \"#utility.yul\":4081:4088   */\n      0x00\n        /* \"#utility.yul\":4110:4134   */\n      tag_309\n        /* \"#utility.yul\":4128:4133   */\n      dup3\n        /* \"#utility.yul\":4110:4134   */\n      tag_229\n      jump\t// in\n    tag_309:\n        /* \"#utility.yul\":4099:4134   */\n      swap1\n      pop\n        /* \"#utility.yul\":4036:4140   */\n      swap2\n      swap1\n      pop\n      jump\t// out\n        /* \"#utility.yul\":4146:4278   */\n    tag_231:\n        /* \"#utility.yul\":4239:4271   */\n      tag_311\n        /* \"#utility.yul\":4265:4270   */\n      dup2\n        /* \"#utility.yul\":4239:4271   */\n      tag_230\n      jump\t// in\n    tag_311:\n        /* \"#utility.yul\":4234:4237   */\n      dup3\n        /* \"#utility.yul\":4227:4272   */\n      mstore\n        /* \"#utility.yul\":4146:4278   */\n      pop\n      pop\n      jump\t// out\n        /* \"#utility.yul\":4284:4464   */\n    tag_116:\n        /* \"#utility.yul\":4332:4409   */\n      0x4e487b7100000000000000000000000000000000000000000000000000000000\n        /* \"#utility.yul\":4329:4330   */\n      0x00\n        /* \"#utility.yul\":4322:4410   */\n      mstore\n        /* \"#utility.yul\":4429:4433   */\n      0x21\n        /* \"#utility.yul\":4426:4427   */\n      0x04\n        /* \"#utility.yul\":4419:4434   */\n      mstore\n        /* \"#utility.yul\":4453:4457   */\n      0x24\n        /* \"#utility.yul\":4450:4451   */\n      0x00\n        /* \"#utility.yul\":4443:4458   */\n      revert\n        /* \"#utility.yul\":4470:4584   */\n    tag_232:\n        /* \"#utility.yul\":4552:4553   */\n      0x02\n        /* \"#utility.yul\":4545:4550   */\n      dup2\n        /* \"#utility.yul\":4542:4554   */\n      lt\n        /* \"#utility.yul\":4532:4578   */\n      tag_314\n      jumpi\n        /* \"#utility.yul\":4558:4576   */\n      tag_315\n      tag_116\n      jump\t// in\n    tag_315:\n        /* \"#utility.yul\":4532:4578   */\n    tag_314:\n        /* \"#utility.yul\":4470:4584   */\n      pop\n      jump\t// out\n        /* \"#utility.yul\":4590:4719   */\n    tag_233:\n        /* \"#utility.yul\":4636:4643   */\n      0x00\n        /* \"#utility.yul\":4665:4670   */\n      dup2\n        /* \"#utility.yul\":4654:4670   */\n      swap1\n      pop\n        /* \"#utility.yul\":4671:4713   */\n      tag_317\n        /* \"#utility.yul\":4707:4712   */\n      dup3\n        /* \"#utility.yul\":4671:4713   */\n      tag_232\n      jump\t// in\n    tag_317:\n        /* \"#utility.yul\":4590:4719   */\n      swap2\n      swap1\n      pop\n      jump\t// out\n        /* \"#utility.yul\":4725:4854   */\n    tag_234:\n        /* \"#utility.yul\":4782:4791   */\n      0x00\n        /* \"#utility.yul\":4815:4848   */\n      tag_319\n        /* \"#utility.yul\":4842:4847   */\n      dup3\n        /* \"#utility.yul\":4815:4848   */\n      tag_233\n      jump\t// in\n    tag_319:\n        /* \"#utility.yul\":4802:4848   */\n      swap1\n      pop\n        /* \"#utility.yul\":4725:4854   */\n      swap2\n      swap1\n      pop\n      jump\t// out\n        /* \"#utility.yul\":4860:4995   */\n    tag_235:\n        /* \"#utility.yul\":4944:4988   */\n      tag_321\n        /* \"#utility.yul\":4982:4987   */\n      dup2\n        /* \"#utility.yul\":4944:4988   */\n      tag_234\n      jump\t// in\n    tag_321:\n        /* \"#utility.yul\":4939:4942   */\n      dup3\n        /* \"#utility.yul\":4932:4989   */\n      mstore\n        /* \"#utility.yul\":4860:4995   */\n      pop\n      pop\n      jump\t// out\n        /* \"#utility.yul\":5057:6450   */\n    tag_236:\n        /* \"#utility.yul\":5188:5192   */\n      0xe0\n        /* \"#utility.yul\":5183:5186   */\n      dup3\n        /* \"#utility.yul\":5179:5193   */\n      add\n        /* \"#utility.yul\":5279:5283   */\n      0x00\n        /* \"#utility.yul\":5272:5277   */\n      dup3\n        /* \"#utility.yul\":5268:5284   */\n      add\n        /* \"#utility.yul\":5262:5285   */\n      mload\n        /* \"#utility.yul\":5298:5377   */\n      tag_323\n        /* \"#utility.yul\":5371:5375   */\n      0x00\n        /* \"#utility.yul\":5366:5369   */\n      dup6\n        /* \"#utility.yul\":5362:5376   */\n      add\n        /* \"#utility.yul\":5348:5360   */\n      dup3\n        /* \"#utility.yul\":5298:5377   */\n      tag_231\n      jump\t// in\n    tag_323:\n        /* \"#utility.yul\":5203:5387   */\n      pop\n        /* \"#utility.yul\":5470:5474   */\n      0x20\n        /* \"#utility.yul\":5463:5468   */\n      dup3\n        /* \"#utility.yul\":5459:5475   */\n      add\n        /* \"#utility.yul\":5453:5476   */\n      mload\n        /* \"#utility.yul\":5489:5552   */\n      tag_324\n        /* \"#utility.yul\":5546:5550   */\n      0x20\n        /* \"#utility.yul\":5541:5544   */\n      dup6\n        /* \"#utility.yul\":5537:5551   */\n      add\n        /* \"#utility.yul\":5523:5535   */\n      dup3\n        /* \"#utility.yul\":5489:5552   */\n      tag_216\n      jump\t// in\n    tag_324:\n        /* \"#utility.yul\":5397:5562   */\n      pop\n        /* \"#utility.yul\":5649:5653   */\n      0x40\n        /* \"#utility.yul\":5642:5647   */\n      dup3\n        /* \"#utility.yul\":5638:5654   */\n      add\n        /* \"#utility.yul\":5632:5655   */\n      mload\n        /* \"#utility.yul\":5668:5731   */\n      tag_325\n        /* \"#utility.yul\":5725:5729   */\n      0x40\n        /* \"#utility.yul\":5720:5723   */\n      dup6\n        /* \"#utility.yul\":5716:5730   */\n      add\n        /* \"#utility.yul\":5702:5714   */\n      dup3\n        /* \"#utility.yul\":5668:5731   */\n      tag_216\n      jump\t// in\n    tag_325:\n        /* \"#utility.yul\":5572:5741   */\n      pop\n        /* \"#utility.yul\":5824:5828   */\n      0x60\n        /* \"#utility.yul\":5817:5822   */\n      dup3\n        /* \"#utility.yul\":5813:5829   */\n      add\n        /* \"#utility.yul\":5807:5830   */\n      mload\n        /* \"#utility.yul\":5843:5913   */\n      tag_326\n        /* \"#utility.yul\":5907:5911   */\n      0x60\n        /* \"#utility.yul\":5902:5905   */\n      dup6\n        /* \"#utility.yul\":5898:5912   */\n      add\n        /* \"#utility.yul\":5884:5896   */\n      dup3\n        /* \"#utility.yul\":5843:5913   */\n      tag_235\n      jump\t// in\n    tag_326:\n        /* \"#utility.yul\":5751:5923   */\n      pop\n        /* \"#utility.yul\":6003:6007   */\n      0x80\n        /* \"#utility.yul\":5996:6001   */\n      dup3\n        /* \"#utility.yul\":5992:6008   */\n      add\n        /* \"#utility.yul\":5986:6009   */\n      mload\n        /* \"#utility.yul\":6022:6085   */\n      tag_327\n        /* \"#utility.yul\":6079:6083   */\n      0x80\n        /* \"#utility.yul\":6074:6077   */\n      dup6\n        /* \"#utility.yul\":6070:6084   */\n      add\n        /* \"#utility.yul\":6056:6068   */\n      dup3\n        /* \"#utility.yul\":6022:6085   */\n      tag_216\n      jump\t// in\n    tag_327:\n        /* \"#utility.yul\":5933:6095   */\n      pop\n        /* \"#utility.yul\":6177:6181   */\n      0xa0\n        /* \"#utility.yul\":6170:6175   */\n      dup3\n        /* \"#utility.yul\":6166:6182   */\n      add\n        /* \"#utility.yul\":6160:6183   */\n      mload\n        /* \"#utility.yul\":6196:6259   */\n      tag_328\n        /* \"#utility.yul\":6253:6257   */\n      0xa0\n        /* \"#utility.yul\":6248:6251   */\n      dup6\n        /* \"#utility.yul\":6244:6258   */\n      add\n        /* \"#utility.yul\":6230:6242   */\n      dup3\n        /* \"#utility.yul\":6196:6259   */\n      tag_216\n      jump\t// in\n    tag_328:\n        /* \"#utility.yul\":6105:6269   */\n      pop\n        /* \"#utility.yul\":6351:6355   */\n      0xc0\n        /* \"#utility.yul\":6344:6349   */\n      dup3\n        /* \"#utility.yul\":6340:6356   */\n      add\n        /* \"#utility.yul\":6334:6357   */\n      mload\n        /* \"#utility.yul\":6370:6433   */\n      tag_329\n        /* \"#utility.yul\":6427:6431   */\n      0xc0\n        /* \"#utility.yul\":6422:6425   */\n      dup6\n        /* \"#utility.yul\":6418:6432   */\n      add\n        /* \"#utility.yul\":6404:6416   */\n      dup3\n        /* \"#utility.yul\":6370:6433   */\n      tag_216\n      jump\t// in\n    tag_329:\n        /* \"#utility.yul\":6279:6443   */\n      pop\n        /* \"#utility.yul\":5157:6450   */\n      pop\n        /* \"#utility.yul\":5057:6450   */\n      pop\n      pop\n      jump\t// out\n        /* \"#utility.yul\":6456:6723   */\n    tag_237:\n        /* \"#utility.yul\":6569:6579   */\n      0x00\n        /* \"#utility.yul\":6590:6680   */\n      tag_331\n        /* \"#utility.yul\":6676:6679   */\n      dup4\n        /* \"#utility.yul\":6668:6674   */\n      dup4\n        /* \"#utility.yul\":6590:6680   */\n      tag_236\n      jump\t// in\n    tag_331:\n        /* \"#utility.yul\":6712:6716   */\n      0xe0\n        /* \"#utility.yul\":6707:6710   */\n      dup4\n        /* \"#utility.yul\":6703:6717   */\n      add\n        /* \"#utility.yul\":6689:6717   */\n      swap1\n      pop\n        /* \"#utility.yul\":6456:6723   */\n      swap3\n      swap2\n      pop\n      pop\n      jump\t// out\n        /* \"#utility.yul\":6729:6864   */\n    tag_238:\n        /* \"#utility.yul\":6821:6825   */\n      0x00\n        /* \"#utility.yul\":6853:6857   */\n      0x20\n        /* \"#utility.yul\":6848:6851   */\n      dup3\n        /* \"#utility.yul\":6844:6858   */\n      add\n        /* \"#utility.yul\":6836:6858   */\n      swap1\n      pop\n        /* \"#utility.yul\":6729:6864   */\n      swap2\n      swap1\n      pop\n      jump\t// out\n        /* \"#utility.yul\":6930:7838   */\n    tag_239:\n        /* \"#utility.yul\":7093:7096   */\n      0x00\n        /* \"#utility.yul\":7122:7198   */\n      tag_334\n        /* \"#utility.yul\":7192:7197   */\n      dup3\n        /* \"#utility.yul\":7122:7198   */\n      tag_226\n      jump\t// in\n    tag_334:\n        /* \"#utility.yul\":7214:7322   */\n      tag_335\n        /* \"#utility.yul\":7315:7321   */\n      dup2\n        /* \"#utility.yul\":7310:7313   */\n      dup6\n        /* \"#utility.yul\":7214:7322   */\n      tag_227\n      jump\t// in\n    tag_335:\n        /* \"#utility.yul\":7207:7322   */\n      swap4\n      pop\n        /* \"#utility.yul\":7346:7424   */\n      tag_336\n        /* \"#utility.yul\":7418:7423   */\n      dup4\n        /* \"#utility.yul\":7346:7424   */\n      tag_228\n      jump\t// in\n    tag_336:\n        /* \"#utility.yul\":7447:7454   */\n      dup1\n        /* \"#utility.yul\":7478:7479   */\n      0x00\n        /* \"#utility.yul\":7463:7813   */\n    tag_337:\n        /* \"#utility.yul\":7488:7494   */\n      dup4\n        /* \"#utility.yul\":7485:7486   */\n      dup2\n        /* \"#utility.yul\":7482:7495   */\n      lt\n        /* \"#utility.yul\":7463:7813   */\n      iszero\n      tag_339\n      jumpi\n        /* \"#utility.yul\":7564:7570   */\n      dup2\n        /* \"#utility.yul\":7558:7571   */\n      mload\n        /* \"#utility.yul\":7591:7698   */\n      tag_340\n        /* \"#utility.yul\":7694:7697   */\n      dup9\n        /* \"#utility.yul\":7679:7692   */\n      dup3\n        /* \"#utility.yul\":7591:7698   */\n      tag_237\n      jump\t// in\n    tag_340:\n        /* \"#utility.yul\":7584:7698   */\n      swap8\n      pop\n        /* \"#utility.yul\":7721:7803   */\n      tag_341\n        /* \"#utility.yul\":7796:7802   */\n      dup4\n        /* \"#utility.yul\":7721:7803   */\n      tag_238\n      jump\t// in\n    tag_341:\n        /* \"#utility.yul\":7711:7803   */\n      swap3\n      pop\n        /* \"#utility.yul\":7523:7813   */\n      pop\n        /* \"#utility.yul\":7510:7511   */\n      0x01\n        /* \"#utility.yul\":7507:7508   */\n      dup2\n        /* \"#utility.yul\":7503:7512   */\n      add\n        /* \"#utility.yul\":7498:7512   */\n      swap1\n      pop\n        /* \"#utility.yul\":7463:7813   */\n      jump(tag_337)\n    tag_339:\n        /* \"#utility.yul\":7467:7481   */\n      pop\n        /* \"#utility.yul\":7829:7832   */\n      dup6\n        /* \"#utility.yul\":7822:7832   */\n      swap4\n      pop\n        /* \"#utility.yul\":7098:7838   */\n      pop\n      pop\n      pop\n        /* \"#utility.yul\":6930:7838   */\n      swap3\n      swap2\n      pop\n      pop\n      jump\t// out\n        /* \"#utility.yul\":7844:8305   */\n    tag_44:\n        /* \"#utility.yul\":8031:8035   */\n      0x00\n        /* \"#utility.yul\":8069:8071   */\n      0x20\n        /* \"#utility.yul\":8058:8067   */\n      dup3\n        /* \"#utility.yul\":8054:8072   */\n      add\n        /* \"#utility.yul\":8046:8072   */\n      swap1\n      pop\n        /* \"#utility.yul\":8118:8127   */\n      dup2\n        /* \"#utility.yul\":8112:8116   */\n      dup2\n        /* \"#utility.yul\":8108:8128   */\n      sub\n        /* \"#utility.yul\":8104:8105   */\n      0x00\n        /* \"#utility.yul\":8093:8102   */\n      dup4\n        /* \"#utility.yul\":8089:8106   */\n      add\n        /* \"#utility.yul\":8082:8129   */\n      mstore\n        /* \"#utility.yul\":8146:8298   */\n      tag_343\n        /* \"#utility.yul\":8293:8297   */\n      dup2\n        /* \"#utility.yul\":8284:8290   */\n      dup5\n        /* \"#utility.yul\":8146:8298   */\n      tag_239\n      jump\t// in\n    tag_343:\n        /* \"#utility.yul\":8138:8298   */\n      swap1\n      pop\n        /* \"#utility.yul\":7844:8305   */\n      swap3\n      swap2\n      pop\n      pop\n      jump\t// out\n        /* \"#utility.yul\":8311:8410   */\n    tag_240:\n        /* \"#utility.yul\":8363:8369   */\n      0x00\n        /* \"#utility.yul\":8397:8402   */\n      dup2\n        /* \"#utility.yul\":8391:8403   */\n      mload\n        /* \"#utility.yul\":8381:8403   */\n      swap1\n      pop\n        /* \"#utility.yul\":8311:8410   */\n      swap2\n      swap1\n      pop\n      jump\t// out\n        /* \"#utility.yul\":8416:8585   */\n    tag_241:\n        /* \"#utility.yul\":8500:8511   */\n      0x00\n        /* \"#utility.yul\":8534:8540   */\n      dup3\n        /* \"#utility.yul\":8529:8532   */\n      dup3\n        /* \"#utility.yul\":8522:8541   */\n      mstore\n        /* \"#utility.yul\":8574:8578   */\n      0x20\n        /* \"#utility.yul\":8569:8572   */\n      dup3\n        /* \"#utility.yul\":8565:8579   */\n      add\n        /* \"#utility.yul\":8550:8579   */\n      swap1\n      pop\n        /* \"#utility.yul\":8416:8585   */\n      swap3\n      swap2\n      pop\n      pop\n      jump\t// out\n        /* \"#utility.yul\":8591:8898   */\n    tag_242:\n        /* \"#utility.yul\":8659:8660   */\n      0x00\n        /* \"#utility.yul\":8669:8782   */\n    tag_347:\n        /* \"#utility.yul\":8683:8689   */\n      dup4\n        /* \"#utility.yul\":8680:8681   */\n      dup2\n        /* \"#utility.yul\":8677:8690   */\n      lt\n        /* \"#utility.yul\":8669:8782   */\n      iszero\n      tag_349\n      jumpi\n        /* \"#utility.yul\":8768:8769   */\n      dup1\n        /* \"#utility.yul\":8763:8766   */\n      dup3\n        /* \"#utility.yul\":8759:8770   */\n      add\n        /* \"#utility.yul\":8753:8771   */\n      mload\n        /* \"#utility.yul\":8749:8750   */\n      dup2\n        /* \"#utility.yul\":8744:8747   */\n      dup5\n        /* \"#utility.yul\":8740:8751   */\n      add\n        /* \"#utility.yul\":8733:8772   */\n      mstore\n        /* \"#utility.yul\":8705:8707   */\n      0x20\n        /* \"#utility.yul\":8702:8703   */\n      dup2\n        /* \"#utility.yul\":8698:8708   */\n      add\n        /* \"#utility.yul\":8693:8708   */\n      swap1\n      pop\n        /* \"#utility.yul\":8669:8782   */\n      jump(tag_347)\n    tag_349:\n        /* \"#utility.yul\":8800:8806   */\n      dup4\n        /* \"#utility.yul\":8797:8798   */\n      dup2\n        /* \"#utility.yul\":8794:8807   */\n      gt\n        /* \"#utility.yul\":8791:8892   */\n      iszero\n      tag_350\n      jumpi\n        /* \"#utility.yul\":8880:8881   */\n      0x00\n        /* \"#utility.yul\":8871:8877   */\n      dup5\n        /* \"#utility.yul\":8866:8869   */\n      dup5\n        /* \"#utility.yul\":8862:8878   */\n      add\n        /* \"#utility.yul\":8855:8882   */\n      mstore\n        /* \"#utility.yul\":8791:8892   */\n    tag_350:\n        /* \"#utility.yul\":8640:8898   */\n      pop\n        /* \"#utility.yul\":8591:8898   */\n      pop\n      pop\n      pop\n      jump\t// out\n        /* \"#utility.yul\":8904:9006   */\n    tag_243:\n        /* \"#utility.yul\":8945:8951   */\n      0x00\n        /* \"#utility.yul\":8996:8998   */\n      0x1f\n        /* \"#utility.yul\":8992:8999   */\n      not\n        /* \"#utility.yul\":8987:8989   */\n      0x1f\n        /* \"#utility.yul\":8980:8985   */\n      dup4\n        /* \"#utility.yul\":8976:8990   */\n      add\n        /* \"#utility.yul\":8972:9000   */\n      and\n        /* \"#utility.yul\":8962:9000   */\n      swap1\n      pop\n        /* \"#utility.yul\":8904:9006   */\n      swap2\n      swap1\n      pop\n      jump\t// out\n        /* \"#utility.yul\":9012:9376   */\n    tag_244:\n        /* \"#utility.yul\":9100:9103   */\n      0x00\n        /* \"#utility.yul\":9128:9167   */\n      tag_353\n        /* \"#utility.yul\":9161:9166   */\n      dup3\n        /* \"#utility.yul\":9128:9167   */\n      tag_240\n      jump\t// in\n    tag_353:\n        /* \"#utility.yul\":9183:9254   */\n      tag_354\n        /* \"#utility.yul\":9247:9253   */\n      dup2\n        /* \"#utility.yul\":9242:9245   */\n      dup6\n        /* \"#utility.yul\":9183:9254   */\n      tag_241\n      jump\t// in\n    tag_354:\n        /* \"#utility.yul\":9176:9254   */\n      swap4\n      pop\n        /* \"#utility.yul\":9263:9315   */\n      tag_355\n        /* \"#utility.yul\":9308:9314   */\n      dup2\n        /* \"#utility.yul\":9303:9306   */\n      dup6\n        /* \"#utility.yul\":9296:9300   */\n      0x20\n        /* \"#utility.yul\":9289:9294   */\n      dup7\n        /* \"#utility.yul\":9285:9301   */\n      add\n        /* \"#utility.yul\":9263:9315   */\n      tag_242\n      jump\t// in\n    tag_355:\n        /* \"#utility.yul\":9340:9369   */\n      tag_356\n        /* \"#utility.yul\":9362:9368   */\n      dup2\n        /* \"#utility.yul\":9340:9369   */\n      tag_243\n      jump\t// in\n    tag_356:\n        /* \"#utility.yul\":9335:9338   */\n      dup5\n        /* \"#utility.yul\":9331:9370   */\n      add\n        /* \"#utility.yul\":9324:9370   */\n      swap2\n      pop\n        /* \"#utility.yul\":9104:9376   */\n      pop\n        /* \"#utility.yul\":9012:9376   */\n      swap3\n      swap2\n      pop\n      pop\n      jump\t// out\n        /* \"#utility.yul\":9382:9695   */\n    tag_49:\n        /* \"#utility.yul\":9495:9499   */\n      0x00\n        /* \"#utility.yul\":9533:9535   */\n      0x20\n        /* \"#utility.yul\":9522:9531   */\n      dup3\n        /* \"#utility.yul\":9518:9536   */\n      add\n        /* \"#utility.yul\":9510:9536   */\n      swap1\n      pop\n        /* \"#utility.yul\":9582:9591   */\n      dup2\n        /* \"#utility.yul\":9576:9580   */\n      dup2\n        /* \"#utility.yul\":9572:9592   */\n      sub\n        /* \"#utility.yul\":9568:9569   */\n      0x00\n        /* \"#utility.yul\":9557:9566   */\n      dup4\n        /* \"#utility.yul\":9553:9570   */\n      add\n        /* \"#utility.yul\":9546:9593   */\n      mstore\n        /* \"#utility.yul\":9610:9688   */\n      tag_358\n        /* \"#utility.yul\":9683:9687   */\n      dup2\n        /* \"#utility.yul\":9674:9680   */\n      dup5\n        /* \"#utility.yul\":9610:9688   */\n      tag_244\n      jump\t// in\n    tag_358:\n        /* \"#utility.yul\":9602:9688   */\n      swap1\n      pop\n        /* \"#utility.yul\":9382:9695   */\n      swap3\n      swap2\n      pop\n      pop\n      jump\t// out\n        /* \"#utility.yul\":9701:9846   */\n    tag_245:\n        /* \"#utility.yul\":9795:9839   */\n      tag_360\n        /* \"#utility.yul\":9833:9838   */\n      dup2\n        /* \"#utility.yul\":9795:9839   */\n      tag_234\n      jump\t// in\n    tag_360:\n        /* \"#utility.yul\":9790:9793   */\n      dup3\n        /* \"#utility.yul\":9783:9840   */\n      mstore\n        /* \"#utility.yul\":9701:9846   */\n      pop\n      pop\n      jump\t// out\n        /* \"#utility.yul\":9852:10088   */\n    tag_55:\n        /* \"#utility.yul\":9952:9956   */\n      0x00\n        /* \"#utility.yul\":9990:9992   */\n      0x20\n        /* \"#utility.yul\":9979:9988   */\n      dup3\n        /* \"#utility.yul\":9975:9993   */\n      add\n        /* \"#utility.yul\":9967:9993   */\n      swap1\n      pop\n        /* \"#utility.yul\":10003:10081   */\n      tag_362\n        /* \"#utility.yul\":10078:10079   */\n      0x00\n        /* \"#utility.yul\":10067:10076   */\n      dup4\n        /* \"#utility.yul\":10063:10080   */\n      add\n        /* \"#utility.yul\":10054:10060   */\n      dup5\n        /* \"#utility.yul\":10003:10081   */\n      tag_245\n      jump\t// in\n    tag_362:\n        /* \"#utility.yul\":9852:10088   */\n      swap3\n      swap2\n      pop\n      pop\n      jump\t// out\n        /* \"#utility.yul\":10094:10236   */\n    tag_246:\n        /* \"#utility.yul\":10197:10229   */\n      tag_364\n        /* \"#utility.yul\":10223:10228   */\n      dup2\n        /* \"#utility.yul\":10197:10229   */\n      tag_230\n      jump\t// in\n    tag_364:\n        /* \"#utility.yul\":10192:10195   */\n      dup3\n        /* \"#utility.yul\":10185:10230   */\n      mstore\n        /* \"#utility.yul\":10094:10236   */\n      pop\n      pop\n      jump\t// out\n        /* \"#utility.yul\":10242:10496   */\n    tag_61:\n        /* \"#utility.yul\":10351:10355   */\n      0x00\n        /* \"#utility.yul\":10389:10391   */\n      0x20\n        /* \"#utility.yul\":10378:10387   */\n      dup3\n        /* \"#utility.yul\":10374:10392   */\n      add\n        /* \"#utility.yul\":10366:10392   */\n      swap1\n      pop\n        /* \"#utility.yul\":10402:10489   */\n      tag_366\n        /* \"#utility.yul\":10486:10487   */\n      0x00\n        /* \"#utility.yul\":10475:10484   */\n      dup4\n        /* \"#utility.yul\":10471:10488   */\n      add\n        /* \"#utility.yul\":10462:10468   */\n      dup5\n        /* \"#utility.yul\":10402:10489   */\n      tag_246\n      jump\t// in\n    tag_366:\n        /* \"#utility.yul\":10242:10496   */\n      swap3\n      swap2\n      pop\n      pop\n      jump\t// out\n        /* \"#utility.yul\":10502:10592   */\n    tag_247:\n        /* \"#utility.yul\":10536:10543   */\n      0x00\n        /* \"#utility.yul\":10579:10584   */\n      dup2\n        /* \"#utility.yul\":10572:10585   */\n      iszero\n        /* \"#utility.yul\":10565:10586   */\n      iszero\n        /* \"#utility.yul\":10554:10586   */\n      swap1\n      pop\n        /* \"#utility.yul\":10502:10592   */\n      swap2\n      swap1\n      pop\n      jump\t// out\n        /* \"#utility.yul\":10598:10707   */\n    tag_248:\n        /* \"#utility.yul\":10679:10700   */\n      tag_369\n        /* \"#utility.yul\":10694:10699   */\n      dup2\n        /* \"#utility.yul\":10679:10700   */\n      tag_247\n      jump\t// in\n    tag_369:\n        /* \"#utility.yul\":10674:10677   */\n      dup3\n        /* \"#utility.yul\":10667:10701   */\n      mstore\n        /* \"#utility.yul\":10598:10707   */\n      pop\n      pop\n      jump\t// out\n        /* \"#utility.yul\":10713:11744   */\n    tag_107:\n        /* \"#utility.yul\":11019:11023   */\n      0x00\n        /* \"#utility.yul\":11057:11060   */\n      0x0100\n        /* \"#utility.yul\":11046:11055   */\n      dup3\n        /* \"#utility.yul\":11042:11061   */\n      add\n        /* \"#utility.yul\":11034:11061   */\n      swap1\n      pop\n        /* \"#utility.yul\":11071:11158   */\n      tag_371\n        /* \"#utility.yul\":11155:11156   */\n      0x00\n        /* \"#utility.yul\":11144:11153   */\n      dup4\n        /* \"#utility.yul\":11140:11157   */\n      add\n        /* \"#utility.yul\":11131:11137   */\n      dup12\n        /* \"#utility.yul\":11071:11158   */\n      tag_246\n      jump\t// in\n    tag_371:\n        /* \"#utility.yul\":11168:11240   */\n      tag_372\n        /* \"#utility.yul\":11236:11238   */\n      0x20\n        /* \"#utility.yul\":11225:11234   */\n      dup4\n        /* \"#utility.yul\":11221:11239   */\n      add\n        /* \"#utility.yul\":11212:11218   */\n      dup11\n        /* \"#utility.yul\":11168:11240   */\n      tag_225\n      jump\t// in\n    tag_372:\n        /* \"#utility.yul\":11250:11322   */\n      tag_373\n        /* \"#utility.yul\":11318:11320   */\n      0x40\n        /* \"#utility.yul\":11307:11316   */\n      dup4\n        /* \"#utility.yul\":11303:11321   */\n      add\n        /* \"#utility.yul\":11294:11300   */\n      dup10\n        /* \"#utility.yul\":11250:11322   */\n      tag_225\n      jump\t// in\n    tag_373:\n        /* \"#utility.yul\":11332:11411   */\n      tag_374\n        /* \"#utility.yul\":11407:11409   */\n      0x60\n        /* \"#utility.yul\":11396:11405   */\n      dup4\n        /* \"#utility.yul\":11392:11410   */\n      add\n        /* \"#utility.yul\":11383:11389   */\n      dup9\n        /* \"#utility.yul\":11332:11411   */\n      tag_245\n      jump\t// in\n    tag_374:\n        /* \"#utility.yul\":11421:11494   */\n      tag_375\n        /* \"#utility.yul\":11489:11492   */\n      0x80\n        /* \"#utility.yul\":11478:11487   */\n      dup4\n        /* \"#utility.yul\":11474:11493   */\n      add\n        /* \"#utility.yul\":11465:11471   */\n      dup8\n        /* \"#utility.yul\":11421:11494   */\n      tag_225\n      jump\t// in\n    tag_375:\n        /* \"#utility.yul\":11504:11577   */\n      tag_376\n        /* \"#utility.yul\":11572:11575   */\n      0xa0\n        /* \"#utility.yul\":11561:11570   */\n      dup4\n        /* \"#utility.yul\":11557:11576   */\n      add\n        /* \"#utility.yul\":11548:11554   */\n      dup7\n        /* \"#utility.yul\":11504:11577   */\n      tag_225\n      jump\t// in\n    tag_376:\n        /* \"#utility.yul\":11587:11660   */\n      tag_377\n        /* \"#utility.yul\":11655:11658   */\n      0xc0\n        /* \"#utility.yul\":11644:11653   */\n      dup4\n        /* \"#utility.yul\":11640:11659   */\n      add\n        /* \"#utility.yul\":11631:11637   */\n      dup6\n        /* \"#utility.yul\":11587:11660   */\n      tag_225\n      jump\t// in\n    tag_377:\n        /* \"#utility.yul\":11670:11737   */\n      tag_378\n        /* \"#utility.yul\":11732:11735   */\n      0xe0\n        /* \"#utility.yul\":11721:11730   */\n      dup4\n        /* \"#utility.yul\":11717:11736   */\n      add\n        /* \"#utility.yul\":11708:11714   */\n      dup5\n        /* \"#utility.yul\":11670:11737   */\n      tag_248\n      jump\t// in\n    tag_378:\n        /* \"#utility.yul\":10713:11744   */\n      swap10\n      swap9\n      pop\n      pop\n      pop\n      pop\n      pop\n      pop\n      pop\n      pop\n      pop\n      jump\t// out\n        /* \"#utility.yul\":11750:11913   */\n    tag_249:\n        /* \"#utility.yul\":11890:11905   */\n      0x4f726465722050656e64696e6700000000000000000000000000000000000000\n        /* \"#utility.yul\":11886:11887   */\n      0x00\n        /* \"#utility.yul\":11878:11884   */\n      dup3\n        /* \"#utility.yul\":11874:11888   */\n      add\n        /* \"#utility.yul\":11867:11906   */\n      mstore\n        /* \"#utility.yul\":11750:11913   */\n      pop\n      jump\t// out\n        /* \"#utility.yul\":11919:12285   */\n    tag_250:\n        /* \"#utility.yul\":12061:12064   */\n      0x00\n        /* \"#utility.yul\":12082:12149   */\n      tag_381\n        /* \"#utility.yul\":12146:12148   */\n      0x0d\n        /* \"#utility.yul\":12141:12144   */\n      dup4\n        /* \"#utility.yul\":12082:12149   */\n      tag_241\n      jump\t// in\n    tag_381:\n        /* \"#utility.yul\":12075:12149   */\n      swap2\n      pop\n        /* \"#utility.yul\":12158:12251   */\n      tag_382\n        /* \"#utility.yul\":12247:12250   */\n      dup3\n        /* \"#utility.yul\":12158:12251   */\n      tag_249\n      jump\t// in\n    tag_382:\n        /* \"#utility.yul\":12276:12278   */\n      0x20\n        /* \"#utility.yul\":12271:12274   */\n      dup3\n        /* \"#utility.yul\":12267:12279   */\n      add\n        /* \"#utility.yul\":12260:12279   */\n      swap1\n      pop\n        /* \"#utility.yul\":11919:12285   */\n      swap2\n      swap1\n      pop\n      jump\t// out\n        /* \"#utility.yul\":12291:12710   */\n    tag_126:\n        /* \"#utility.yul\":12457:12461   */\n      0x00\n        /* \"#utility.yul\":12495:12497   */\n      0x20\n        /* \"#utility.yul\":12484:12493   */\n      dup3\n        /* \"#utility.yul\":12480:12498   */\n      add\n        /* \"#utility.yul\":12472:12498   */\n      swap1\n      pop\n        /* \"#utility.yul\":12544:12553   */\n      dup2\n        /* \"#utility.yul\":12538:12542   */\n      dup2\n        /* \"#utility.yul\":12534:12554   */\n      sub\n        /* \"#utility.yul\":12530:12531   */\n      0x00\n        /* \"#utility.yul\":12519:12528   */\n      dup4\n        /* \"#utility.yul\":12515:12532   */\n      add\n        /* \"#utility.yul\":12508:12555   */\n      mstore\n        /* \"#utility.yul\":12572:12703   */\n      tag_384\n        /* \"#utility.yul\":12698:12702   */\n      dup2\n        /* \"#utility.yul\":12572:12703   */\n      tag_250\n      jump\t// in\n    tag_384:\n        /* \"#utility.yul\":12564:12703   */\n      swap1\n      pop\n        /* \"#utility.yul\":12291:12710   */\n      swap2\n      swap1\n      pop\n      jump\t// out\n        /* \"#utility.yul\":12716:12880   */\n    tag_251:\n        /* \"#utility.yul\":12856:12872   */\n      0x4e6f7420417574686f7269736564000000000000000000000000000000000000\n        /* \"#utility.yul\":12852:12853   */\n      0x00\n        /* \"#utility.yul\":12844:12850   */\n      dup3\n        /* \"#utility.yul\":12840:12854   */\n      add\n        /* \"#utility.yul\":12833:12873   */\n      mstore\n        /* \"#utility.yul\":12716:12880   */\n      pop\n      jump\t// out\n        /* \"#utility.yul\":12886:13252   */\n    tag_252:\n        /* \"#utility.yul\":13028:13031   */\n      0x00\n        /* \"#utility.yul\":13049:13116   */\n      tag_387\n        /* \"#utility.yul\":13113:13115   */\n      0x0e\n        /* \"#utility.yul\":13108:13111   */\n      dup4\n        /* \"#utility.yul\":13049:13116   */\n      tag_241\n      jump\t// in\n    tag_387:\n        /* \"#utility.yul\":13042:13116   */\n      swap2\n      pop\n        /* \"#utility.yul\":13125:13218   */\n      tag_388\n        /* \"#utility.yul\":13214:13217   */\n      dup3\n        /* \"#utility.yul\":13125:13218   */\n      tag_251\n      jump\t// in\n    tag_388:\n        /* \"#utility.yul\":13243:13245   */\n      0x20\n        /* \"#utility.yul\":13238:13241   */\n      dup3\n        /* \"#utility.yul\":13234:13246   */\n      add\n        /* \"#utility.yul\":13227:13246   */\n      swap1\n      pop\n        /* \"#utility.yul\":12886:13252   */\n      swap2\n      swap1\n      pop\n      jump\t// out\n        /* \"#utility.yul\":13258:13677   */\n    tag_134:\n        /* \"#utility.yul\":13424:13428   */\n      0x00\n        /* \"#utility.yul\":13462:13464   */\n      0x20\n        /* \"#utility.yul\":13451:13460   */\n      dup3\n        /* \"#utility.yul\":13447:13465   */\n      add\n        /* \"#utility.yul\":13439:13465   */\n      swap1\n      pop\n        /* \"#utility.yul\":13511:13520   */\n      dup2\n        /* \"#utility.yul\":13505:13509   */\n      dup2\n        /* \"#utility.yul\":13501:13521   */\n      sub\n        /* \"#utility.yul\":13497:13498   */\n      0x00\n        /* \"#utility.yul\":13486:13495   */\n      dup4\n        /* \"#utility.yul\":13482:13499   */\n      add\n        /* \"#utility.yul\":13475:13522   */\n      mstore\n        /* \"#utility.yul\":13539:13670   */\n      tag_390\n        /* \"#utility.yul\":13665:13669   */\n      dup2\n        /* \"#utility.yul\":13539:13670   */\n      tag_252\n      jump\t// in\n    tag_390:\n        /* \"#utility.yul\":13531:13670   */\n      swap1\n      pop\n        /* \"#utility.yul\":13258:13677   */\n      swap2\n      swap1\n      pop\n      jump\t// out\n        /* \"#utility.yul\":13683:13864   */\n    tag_253:\n        /* \"#utility.yul\":13823:13856   */\n      0x70726963652076616c7565206d757374206265206d6f7265207468616e203000\n        /* \"#utility.yul\":13819:13820   */\n      0x00\n        /* \"#utility.yul\":13811:13817   */\n      dup3\n        /* \"#utility.yul\":13807:13821   */\n      add\n        /* \"#utility.yul\":13800:13857   */\n      mstore\n        /* \"#utility.yul\":13683:13864   */\n      pop\n      jump\t// out\n        /* \"#utility.yul\":13870:14236   */\n    tag_254:\n        /* \"#utility.yul\":14012:14015   */\n      0x00\n        /* \"#utility.yul\":14033:14100   */\n      tag_393\n        /* \"#utility.yul\":14097:14099   */\n      0x1f\n        /* \"#utility.yul\":14092:14095   */\n      dup4\n        /* \"#utility.yul\":14033:14100   */\n      tag_241\n      jump\t// in\n    tag_393:\n        /* \"#utility.yul\":14026:14100   */\n      swap2\n      pop\n        /* \"#utility.yul\":14109:14202   */\n      tag_394\n        /* \"#utility.yul\":14198:14201   */\n      dup3\n        /* \"#utility.yul\":14109:14202   */\n      tag_253\n      jump\t// in\n    tag_394:\n        /* \"#utility.yul\":14227:14229   */\n      0x20\n        /* \"#utility.yul\":14222:14225   */\n      dup3\n        /* \"#utility.yul\":14218:14230   */\n      add\n        /* \"#utility.yul\":14211:14230   */\n      swap1\n      pop\n        /* \"#utility.yul\":13870:14236   */\n      swap2\n      swap1\n      pop\n      jump\t// out\n        /* \"#utility.yul\":14242:14661   */\n    tag_147:\n        /* \"#utility.yul\":14408:14412   */\n      0x00\n        /* \"#utility.yul\":14446:14448   */\n      0x20\n        /* \"#utility.yul\":14435:14444   */\n      dup3\n        /* \"#utility.yul\":14431:14449   */\n      add\n        /* \"#utility.yul\":14423:14449   */\n      swap1\n      pop\n        /* \"#utility.yul\":14495:14504   */\n      dup2\n        /* \"#utility.yul\":14489:14493   */\n      dup2\n        /* \"#utility.yul\":14485:14505   */\n      sub\n        /* \"#utility.yul\":14481:14482   */\n      0x00\n        /* \"#utility.yul\":14470:14479   */\n      dup4\n        /* \"#utility.yul\":14466:14483   */\n      add\n        /* \"#utility.yul\":14459:14506   */\n      mstore\n        /* \"#utility.yul\":14523:14654   */\n      tag_396\n        /* \"#utility.yul\":14649:14653   */\n      dup2\n        /* \"#utility.yul\":14523:14654   */\n      tag_254\n      jump\t// in\n    tag_396:\n        /* \"#utility.yul\":14515:14654   */\n      swap1\n      pop\n        /* \"#utility.yul\":14242:14661   */\n      swap2\n      swap1\n      pop\n      jump\t// out\n        /* \"#utility.yul\":14667:14847   */\n    tag_255:\n        /* \"#utility.yul\":14807:14839   */\n      0x4e6f7420656e6f75676820626c616e636520746f20706c6163652061736b0000\n        /* \"#utility.yul\":14803:14804   */\n      0x00\n        /* \"#utility.yul\":14795:14801   */\n      dup3\n        /* \"#utility.yul\":14791:14805   */\n      add\n        /* \"#utility.yul\":14784:14840   */\n      mstore\n        /* \"#utility.yul\":14667:14847   */\n      pop\n      jump\t// out\n        /* \"#utility.yul\":14853:15219   */\n    tag_256:\n        /* \"#utility.yul\":14995:14998   */\n      0x00\n        /* \"#utility.yul\":15016:15083   */\n      tag_399\n        /* \"#utility.yul\":15080:15082   */\n      0x1e\n        /* \"#utility.yul\":15075:15078   */\n      dup4\n        /* \"#utility.yul\":15016:15083   */\n      tag_241\n      jump\t// in\n    tag_399:\n        /* \"#utility.yul\":15009:15083   */\n      swap2\n      pop\n        /* \"#utility.yul\":15092:15185   */\n      tag_400\n        /* \"#utility.yul\":15181:15184   */\n      dup3\n        /* \"#utility.yul\":15092:15185   */\n      tag_255\n      jump\t// in\n    tag_400:\n        /* \"#utility.yul\":15210:15212   */\n      0x20\n        /* \"#utility.yul\":15205:15208   */\n      dup3\n        /* \"#utility.yul\":15201:15213   */\n      add\n        /* \"#utility.yul\":15194:15213   */\n      swap1\n      pop\n        /* \"#utility.yul\":14853:15219   */\n      swap2\n      swap1\n      pop\n      jump\t// out\n        /* \"#utility.yul\":15225:15644   */\n    tag_150:\n        /* \"#utility.yul\":15391:15395   */\n      0x00\n        /* \"#utility.yul\":15429:15431   */\n      0x20\n        /* \"#utility.yul\":15418:15427   */\n      dup3\n        /* \"#utility.yul\":15414:15432   */\n      add\n        /* \"#utility.yul\":15406:15432   */\n      swap1\n      pop\n        /* \"#utility.yul\":15478:15487   */\n      dup2\n        /* \"#utility.yul\":15472:15476   */\n      dup2\n        /* \"#utility.yul\":15468:15488   */\n      sub\n        /* \"#utility.yul\":15464:15465   */\n      0x00\n        /* \"#utility.yul\":15453:15462   */\n      dup4\n        /* \"#utility.yul\":15449:15466   */\n      add\n        /* \"#utility.yul\":15442:15489   */\n      mstore\n        /* \"#utility.yul\":15506:15637   */\n      tag_402\n        /* \"#utility.yul\":15632:15636   */\n      dup2\n        /* \"#utility.yul\":15506:15637   */\n      tag_256\n      jump\t// in\n    tag_402:\n        /* \"#utility.yul\":15498:15637   */\n      swap1\n      pop\n        /* \"#utility.yul\":15225:15644   */\n      swap2\n      swap1\n      pop\n      jump\t// out\n        /* \"#utility.yul\":15650:15830   */\n    tag_257:\n        /* \"#utility.yul\":15698:15775   */\n      0x4e487b7100000000000000000000000000000000000000000000000000000000\n        /* \"#utility.yul\":15695:15696   */\n      0x00\n        /* \"#utility.yul\":15688:15776   */\n      mstore\n        /* \"#utility.yul\":15795:15799   */\n      0x11\n        /* \"#utility.yul\":15792:15793   */\n      0x04\n        /* \"#utility.yul\":15785:15800   */\n      mstore\n        /* \"#utility.yul\":15819:15823   */\n      0x24\n        /* \"#utility.yul\":15816:15817   */\n      0x00\n        /* \"#utility.yul\":15809:15824   */\n      revert\n        /* \"#utility.yul\":15836:16027   */\n    tag_152:\n        /* \"#utility.yul\":15876:15880   */\n      0x00\n        /* \"#utility.yul\":15896:15916   */\n      tag_405\n        /* \"#utility.yul\":15914:15915   */\n      dup3\n        /* \"#utility.yul\":15896:15916   */\n      tag_215\n      jump\t// in\n    tag_405:\n        /* \"#utility.yul\":15891:15916   */\n      swap2\n      pop\n        /* \"#utility.yul\":15930:15950   */\n      tag_406\n        /* \"#utility.yul\":15948:15949   */\n      dup4\n        /* \"#utility.yul\":15930:15950   */\n      tag_215\n      jump\t// in\n    tag_406:\n        /* \"#utility.yul\":15925:15950   */\n      swap3\n      pop\n        /* \"#utility.yul\":15969:15970   */\n      dup3\n        /* \"#utility.yul\":15966:15967   */\n      dup3\n        /* \"#utility.yul\":15963:15971   */\n      lt\n        /* \"#utility.yul\":15960:15994   */\n      iszero\n      tag_407\n      jumpi\n        /* \"#utility.yul\":15974:15992   */\n      tag_408\n      tag_257\n      jump\t// in\n    tag_408:\n        /* \"#utility.yul\":15960:15994   */\n    tag_407:\n        /* \"#utility.yul\":16019:16020   */\n      dup3\n        /* \"#utility.yul\":16016:16017   */\n      dup3\n        /* \"#utility.yul\":16012:16021   */\n      sub\n        /* \"#utility.yul\":16004:16021   */\n      swap1\n      pop\n        /* \"#utility.yul\":15836:16027   */\n      swap3\n      swap2\n      pop\n      pop\n      jump\t// out\n        /* \"#utility.yul\":16033:16381   */\n    tag_154:\n        /* \"#utility.yul\":16073:16080   */\n      0x00\n        /* \"#utility.yul\":16096:16116   */\n      tag_410\n        /* \"#utility.yul\":16114:16115   */\n      dup3\n        /* \"#utility.yul\":16096:16116   */\n      tag_215\n      jump\t// in\n    tag_410:\n        /* \"#utility.yul\":16091:16116   */\n      swap2\n      pop\n        /* \"#utility.yul\":16130:16150   */\n      tag_411\n        /* \"#utility.yul\":16148:16149   */\n      dup4\n        /* \"#utility.yul\":16130:16150   */\n      tag_215\n      jump\t// in\n    tag_411:\n        /* \"#utility.yul\":16125:16150   */\n      swap3\n      pop\n        /* \"#utility.yul\":16318:16319   */\n      dup2\n        /* \"#utility.yul\":16250:16316   */\n      0xffffffffffffffffffffffffffffffffffffffffffffffffffffffffffffffff\n        /* \"#utility.yul\":16246:16320   */\n      div\n        /* \"#utility.yul\":16243:16244   */\n      dup4\n        /* \"#utility.yul\":16240:16321   */\n      gt\n        /* \"#utility.yul\":16235:16236   */\n      dup3\n        /* \"#utility.yul\":16228:16237   */\n      iszero\n        /* \"#utility.yul\":16221:16238   */\n      iszero\n        /* \"#utility.yul\":16217:16322   */\n      and\n        /* \"#utility.yul\":16214:16345   */\n      iszero\n      tag_412\n      jumpi\n        /* \"#utility.yul\":16325:16343   */\n      tag_413\n      tag_257\n      jump\t// in\n    tag_413:\n        /* \"#utility.yul\":16214:16345   */\n    tag_412:\n        /* \"#utility.yul\":16373:16374   */\n      dup3\n        /* \"#utility.yul\":16370:16371   */\n      dup3\n        /* \"#utility.yul\":16366:16375   */\n      mul\n        /* \"#utility.yul\":16355:16375   */\n      swap1\n      pop\n        /* \"#utility.yul\":16033:16381   */\n      swap3\n      swap2\n      pop\n      pop\n      jump\t// out\n        /* \"#utility.yul\":16387:16567   */\n    tag_258:\n        /* \"#utility.yul\":16435:16512   */\n      0x4e487b7100000000000000000000000000000000000000000000000000000000\n        /* \"#utility.yul\":16432:16433   */\n      0x00\n        /* \"#utility.yul\":16425:16513   */\n      mstore\n        /* \"#utility.yul\":16532:16536   */\n      0x12\n        /* \"#utility.yul\":16529:16530   */\n      0x04\n        /* \"#utility.yul\":16522:16537   */\n      mstore\n        /* \"#utility.yul\":16556:16560   */\n      0x24\n        /* \"#utility.yul\":16553:16554   */\n      0x00\n        /* \"#utility.yul\":16546:16561   */\n      revert\n        /* \"#utility.yul\":16573:16758   */\n    tag_156:\n        /* \"#utility.yul\":16613:16614   */\n      0x00\n        /* \"#utility.yul\":16630:16650   */\n      tag_416\n        /* \"#utility.yul\":16648:16649   */\n      dup3\n        /* \"#utility.yul\":16630:16650   */\n      tag_215\n      jump\t// in\n    tag_416:\n        /* \"#utility.yul\":16625:16650   */\n      swap2\n      pop\n        /* \"#utility.yul\":16664:16684   */\n      tag_417\n        /* \"#utility.yul\":16682:16683   */\n      dup4\n        /* \"#utility.yul\":16664:16684   */\n      tag_215\n      jump\t// in\n    tag_417:\n        /* \"#utility.yul\":16659:16684   */\n      swap3\n      pop\n        /* \"#utility.yul\":16703:16704   */\n      dup3\n        /* \"#utility.yul\":16693:16728   */\n      tag_418\n      jumpi\n        /* \"#utility.yul\":16708:16726   */\n      tag_419\n      tag_258\n      jump\t// in\n    tag_419:\n        /* \"#utility.yul\":16693:16728   */\n    tag_418:\n        /* \"#utility.yul\":16750:16751   */\n      dup3\n        /* \"#utility.yul\":16747:16748   */\n      dup3\n        /* \"#utility.yul\":16743:16752   */\n      div\n        /* \"#utility.yul\":16738:16752   */\n      swap1\n      pop\n        /* \"#utility.yul\":16573:16758   */\n      swap3\n      swap2\n      pop\n      pop\n      jump\t// out\n        /* \"#utility.yul\":16764:16944   */\n    tag_259:\n        /* \"#utility.yul\":16904:16936   */\n      0x4e6f7420656e6f75676820626c616e636520746f20706c616365206269640000\n        /* \"#utility.yul\":16900:16901   */\n      0x00\n        /* \"#utility.yul\":16892:16898   */\n      dup3\n        /* \"#utility.yul\":16888:16902   */\n      add\n        /* \"#utility.yul\":16881:16937   */\n      mstore\n        /* \"#utility.yul\":16764:16944   */\n      pop\n      jump\t// out\n        /* \"#utility.yul\":16950:17316   */\n    tag_260:\n        /* \"#utility.yul\":17092:17095   */\n      0x00\n        /* \"#utility.yul\":17113:17180   */\n      tag_422\n        /* \"#utility.yul\":17177:17179   */\n      0x1e\n        /* \"#utility.yul\":17172:17175   */\n      dup4\n        /* \"#utility.yul\":17113:17180   */\n      tag_241\n      jump\t// in\n    tag_422:\n        /* \"#utility.yul\":17106:17180   */\n      swap2\n      pop\n        /* \"#utility.yul\":17189:17282   */\n      tag_423\n        /* \"#utility.yul\":17278:17281   */\n      dup3\n        /* \"#utility.yul\":17189:17282   */\n      tag_259\n      jump\t// in\n    tag_423:\n        /* \"#utility.yul\":17307:17309   */\n      0x20\n        /* \"#utility.yul\":17302:17305   */\n      dup3\n        /* \"#utility.yul\":17298:17310   */\n      add\n        /* \"#utility.yul\":17291:17310   */\n      swap1\n      pop\n        /* \"#utility.yul\":16950:17316   */\n      swap2\n      swap1\n      pop\n      jump\t// out\n        /* \"#utility.yul\":17322:17741   */\n    tag_185:\n        /* \"#utility.yul\":17488:17492   */\n      0x00\n        /* \"#utility.yul\":17526:17528   */\n      0x20\n        /* \"#utility.yul\":17515:17524   */\n      dup3\n        /* \"#utility.yul\":17511:17529   */\n      add\n        /* \"#utility.yul\":17503:17529   */\n      swap1\n      pop\n        /* \"#utility.yul\":17575:17584   */\n      dup2\n        /* \"#utility.yul\":17569:17573   */\n      dup2\n        /* \"#utility.yul\":17565:17585   */\n      sub\n        /* \"#utility.yul\":17561:17562   */\n      0x00\n        /* \"#utility.yul\":17550:17559   */\n      dup4\n        /* \"#utility.yul\":17546:17563   */\n      add\n        /* \"#utility.yul\":17539:17586   */\n      mstore\n        /* \"#utility.yul\":17603:17734   */\n      tag_425\n        /* \"#utility.yul\":17729:17733   */\n      dup2\n        /* \"#utility.yul\":17603:17734   */\n      tag_260\n      jump\t// in\n    tag_425:\n        /* \"#utility.yul\":17595:17734   */\n      swap1\n      pop\n        /* \"#utility.yul\":17322:17741   */\n      swap2\n      swap1\n      pop\n      jump\t// out\n        /* \"#utility.yul\":17747:17980   */\n    tag_194:\n        /* \"#utility.yul\":17786:17789   */\n      0x00\n        /* \"#utility.yul\":17809:17833   */\n      tag_427\n        /* \"#utility.yul\":17827:17832   */\n      dup3\n        /* \"#utility.yul\":17809:17833   */\n      tag_215\n      jump\t// in\n    tag_427:\n        /* \"#utility.yul\":17800:17833   */\n      swap2\n      pop\n        /* \"#utility.yul\":17855:17921   */\n      0xffffffffffffffffffffffffffffffffffffffffffffffffffffffffffffffff\n        /* \"#utility.yul\":17848:17853   */\n      dup3\n        /* \"#utility.yul\":17845:17922   */\n      sub\n        /* \"#utility.yul\":17842:17945   */\n      tag_428\n      jumpi\n        /* \"#utility.yul\":17925:17943   */\n      tag_429\n      tag_257\n      jump\t// in\n    tag_429:\n        /* \"#utility.yul\":17842:17945   */\n    tag_428:\n        /* \"#utility.yul\":17972:17973   */\n      0x01\n        /* \"#utility.yul\":17965:17970   */\n      dup3\n        /* \"#utility.yul\":17961:17974   */\n      add\n        /* \"#utility.yul\":17954:17974   */\n      swap1\n      pop\n        /* \"#utility.yul\":17747:17980   */\n      swap2\n      swap1\n      pop\n      jump\t// out\n        /* \"#utility.yul\":17986:18082   */\n    tag_261:\n        /* \"#utility.yul\":18023:18030   */\n      0x00\n        /* \"#utility.yul\":18052:18076   */\n      tag_431\n        /* \"#utility.yul\":18070:18075   */\n      dup3\n        /* \"#utility.yul\":18052:18076   */\n      tag_229\n      jump\t// in\n    tag_431:\n        /* \"#utility.yul\":18041:18076   */\n      swap1\n      pop\n        /* \"#utility.yul\":17986:18082   */\n      swap2\n      swap1\n      pop\n      jump\t// out\n        /* \"#utility.yul\":18088:18206   */\n    tag_262:\n        /* \"#utility.yul\":18175:18199   */\n      tag_433\n        /* \"#utility.yul\":18193:18198   */\n      dup2\n        /* \"#utility.yul\":18175:18199   */\n      tag_261\n      jump\t// in\n    tag_433:\n        /* \"#utility.yul\":18170:18173   */\n      dup3\n        /* \"#utility.yul\":18163:18200   */\n      mstore\n        /* \"#utility.yul\":18088:18206   */\n      pop\n      pop\n      jump\t// out\n        /* \"#utility.yul\":18212:18297   */\n    tag_263:\n        /* \"#utility.yul\":18257:18264   */\n      0x00\n        /* \"#utility.yul\":18286:18291   */\n      dup2\n        /* \"#utility.yul\":18275:18291   */\n      swap1\n      pop\n        /* \"#utility.yul\":18212:18297   */\n      swap2\n      swap1\n      pop\n      jump\t// out\n        /* \"#utility.yul\":18303:18363   */\n    tag_264:\n        /* \"#utility.yul\":18331:18334   */\n      0x00\n        /* \"#utility.yul\":18352:18357   */\n      dup2\n        /* \"#utility.yul\":18345:18357   */\n      swap1\n      pop\n        /* \"#utility.yul\":18303:18363   */\n      swap2\n      swap1\n      pop\n      jump\t// out\n        /* \"#utility.yul\":18369:18527   */\n    tag_265:\n        /* \"#utility.yul\":18427:18436   */\n      0x00\n        /* \"#utility.yul\":18460:18521   */\n      tag_437\n        /* \"#utility.yul\":18478:18520   */\n      tag_438\n        /* \"#utility.yul\":18487:18519   */\n      tag_439\n        /* \"#utility.yul\":18513:18518   */\n      dup5\n        /* \"#utility.yul\":18487:18519   */\n      tag_263\n      jump\t// in\n    tag_439:\n        /* \"#utility.yul\":18478:18520   */\n      tag_264\n      jump\t// in\n    tag_438:\n        /* \"#utility.yul\":18460:18521   */\n      tag_215\n      jump\t// in\n    tag_437:\n        /* \"#utility.yul\":18447:18521   */\n      swap1\n      pop\n        /* \"#utility.yul\":18369:18527   */\n      swap2\n      swap1\n      pop\n      jump\t// out\n        /* \"#utility.yul\":18533:18680   */\n    tag_266:\n        /* \"#utility.yul\":18628:18673   */\n      tag_441\n        /* \"#utility.yul\":18667:18672   */\n      dup2\n        /* \"#utility.yul\":18628:18673   */\n      tag_265\n      jump\t// in\n    tag_441:\n        /* \"#utility.yul\":18623:18626   */\n      dup3\n        /* \"#utility.yul\":18616:18674   */\n      mstore\n        /* \"#utility.yul\":18533:18680   */\n      pop\n      pop\n      jump\t// out\n        /* \"#utility.yul\":18686:19717   */\n    tag_200:\n        /* \"#utility.yul\":18992:18996   */\n      0x00\n        /* \"#utility.yul\":19030:19033   */\n      0x0100\n        /* \"#utility.yul\":19019:19028   */\n      dup3\n        /* \"#utility.yul\":19015:19034   */\n      add\n        /* \"#utility.yul\":19007:19034   */\n      swap1\n      pop\n        /* \"#utility.yul\":19044:19115   */\n      tag_443\n        /* \"#utility.yul\":19112:19113   */\n      0x00\n        /* \"#utility.yul\":19101:19110   */\n      dup4\n        /* \"#utility.yul\":19097:19114   */\n      add\n        /* \"#utility.yul\":19088:19094   */\n      dup12\n        /* \"#utility.yul\":19044:19115   */\n      tag_262\n      jump\t// in\n    tag_443:\n        /* \"#utility.yul\":19125:19197   */\n      tag_444\n        /* \"#utility.yul\":19193:19195   */\n      0x20\n        /* \"#utility.yul\":19182:19191   */\n      dup4\n        /* \"#utility.yul\":19178:19196   */\n      add\n        /* \"#utility.yul\":19169:19175   */\n      dup11\n        /* \"#utility.yul\":19125:19197   */\n      tag_225\n      jump\t// in\n    tag_444:\n        /* \"#utility.yul\":19207:19279   */\n      tag_445\n        /* \"#utility.yul\":19275:19277   */\n      0x40\n        /* \"#utility.yul\":19264:19273   */\n      dup4\n        /* \"#utility.yul\":19260:19278   */\n      add\n        /* \"#utility.yul\":19251:19257   */\n      dup10\n        /* \"#utility.yul\":19207:19279   */\n      tag_225\n      jump\t// in\n    tag_445:\n        /* \"#utility.yul\":19289:19368   */\n      tag_446\n        /* \"#utility.yul\":19364:19366   */\n      0x60\n        /* \"#utility.yul\":19353:19362   */\n      dup4\n        /* \"#utility.yul\":19349:19367   */\n      add\n        /* \"#utility.yul\":19340:19346   */\n      dup9\n        /* \"#utility.yul\":19289:19368   */\n      tag_245\n      jump\t// in\n    tag_446:\n        /* \"#utility.yul\":19378:19451   */\n      tag_447\n        /* \"#utility.yul\":19446:19449   */\n      0x80\n        /* \"#utility.yul\":19435:19444   */\n      dup4\n        /* \"#utility.yul\":19431:19450   */\n      add\n        /* \"#utility.yul\":19422:19428   */\n      dup8\n        /* \"#utility.yul\":19378:19451   */\n      tag_225\n      jump\t// in\n    tag_447:\n        /* \"#utility.yul\":19461:19542   */\n      tag_448\n        /* \"#utility.yul\":19537:19540   */\n      0xa0\n        /* \"#utility.yul\":19526:19535   */\n      dup4\n        /* \"#utility.yul\":19522:19541   */\n      add\n        /* \"#utility.yul\":19513:19519   */\n      dup7\n        /* \"#utility.yul\":19461:19542   */\n      tag_266\n      jump\t// in\n    tag_448:\n        /* \"#utility.yul\":19552:19633   */\n      tag_449\n        /* \"#utility.yul\":19628:19631   */\n      0xc0\n        /* \"#utility.yul\":19617:19626   */\n      dup4\n        /* \"#utility.yul\":19613:19632   */\n      add\n        /* \"#utility.yul\":19604:19610   */\n      dup6\n        /* \"#utility.yul\":19552:19633   */\n      tag_266\n      jump\t// in\n    tag_449:\n        /* \"#utility.yul\":19643:19710   */\n      tag_450\n        /* \"#utility.yul\":19705:19708   */\n      0xe0\n        /* \"#utility.yul\":19694:19703   */\n      dup4\n        /* \"#utility.yul\":19690:19709   */\n      add\n        /* \"#utility.yul\":19681:19687   */\n      dup5\n        /* \"#utility.yul\":19643:19710   */\n      tag_248\n      jump\t// in\n    tag_450:\n        /* \"#utility.yul\":18686:19717   */\n      swap10\n      swap9\n      pop\n      pop\n      pop\n      pop\n      pop\n      pop\n      pop\n      pop\n      pop\n      jump\t// out\n\n    auxdata: 0xa2646970667358221220982c48e7ebfb48a7dee11e2c2cdd58c226bdd556e4e8d6dcbe5578e902f47c9f64736f6c634300080d0033\n}\n",
				"bytecode": {
					"linkReferences": {},
					"object": "608060405233600160006101000a81548173ffffffffffffffffffffffffffffffffffffffff021916908373ffffffffffffffffffffffffffffffffffffffff1602179055503480156200005257600080fd5b5060405162001b8238038062001b828339818101604052810190620000789190620000e6565b8060028190555060006004819055506000600581905550600060078190555060006008819055505062000118565b600080fd5b6000819050919050565b620000c081620000ab565b8114620000cc57600080fd5b50565b600081519050620000e081620000b5565b92915050565b600060208284031215620000ff57620000fe620000a6565b5b60006200010f84828501620000cf565b91505092915050565b611a5a80620001286000396000f3fe6080604052600436106101145760003560e01c806378c5b268116100a0578063b40a562711610064578063b40a562714610399578063bf77ffae146103c4578063ce0cdc8714610401578063d09ef2411461042c578063db3a13961461047057610114565b806378c5b268146102e2578063801d9bbd146102fe5780639703ef35146103295780639979ef4514610352578063a394fda71461036e57610114565b806344e791e0116100e757806344e791e0146101d55780634d46712d1461020057806369f632e21461023d5780636e5b0f001461027a578063734a2e78146102a557610114565b8063122de8f2146101195780631628e0f5146101445780632db6dfa71461016d5780634471417f146101aa575b600080fd5b34801561012557600080fd5b5061012e6104ad565b60405161013b9190611156565b60405180910390f35b34801561015057600080fd5b5061016b600480360381019061016691906111a9565b6104b2565b005b34801561017957600080fd5b50610194600480360381019061018f91906111a9565b610758565b6040516101a191906111e5565b60405180910390f35b3480156101b657600080fd5b506101bf610778565b6040516101cc91906113f5565b60405180910390f35b3480156101e157600080fd5b506101ea61077d565b6040516101f791906114b0565b60405180910390f35b34801561020c57600080fd5b50610227600480360381019061022291906111a9565b6107cf565b60405161023491906114e1565b60405180910390f35b34801561024957600080fd5b50610264600480360381019061025f91906111a9565b6107fc565b604051610271919061150b565b60405180910390f35b34801561028657600080fd5b5061028f61083c565b60405161029c91906111e5565b60405180910390f35b3480156102b157600080fd5b506102cc60048036038101906102c791906111a9565b610842565b6040516102d9919061150b565b60405180910390f35b6102fc60048036038101906102f791906111a9565b610882565b005b34801561030a57600080fd5b50610313610956565b60405161032091906111e5565b60405180910390f35b34801561033557600080fd5b50610350600480360381019061034b91906111a9565b61095c565b005b61036c600480360381019061036791906111a9565b610c02565b005b34801561037a57600080fd5b50610383610c8c565b60405161039091906111e5565b60405180910390f35b3480156103a557600080fd5b506103ae610c92565b6040516103bb91906111e5565b60405180910390f35b3480156103d057600080fd5b506103eb60048036038101906103e691906111a9565b610c98565b6040516103f891906114e1565b60405180910390f35b34801561040d57600080fd5b50610416610cc5565b6040516104239190611156565b60405180910390f35b34801561043857600080fd5b50610453600480360381019061044e91906111a9565b610cca565b604051610467989796959493929190611541565b60405180910390f35b34801561047c57600080fd5b50610497600480360381019061049291906111a9565b610ce1565b6040516104a491906111e5565b60405180910390f35b606090565b600660008281526020019081526020016000206040518060e00160405290816000820160009054906101000a900473ffffffffffffffffffffffffffffffffffffffff1673ffffffffffffffffffffffffffffffffffffffff1673ffffffffffffffffffffffffffffffffffffffff16815260200160018201548152602001600282015481526020016003820160009054906101000a900460ff16600181111561055f5761055e61126d565b5b60018111156105715761057061126d565b5b81526020016004820154815260200160058201548152602001600682015481525050600060018111156105a7576105a661126d565b5b816060015160018111156105be576105bd61126d565b5b146105fe576040517f08c379a00000000000000000000000000000000000000000000000000000000081526004016105f59061160b565b60405180910390fd5b600660008381526020019081526020016000206040518060e00160405290816000820160009054906101000a900473ffffffffffffffffffffffffffffffffffffffff1673ffffffffffffffffffffffffffffffffffffffff1673ffffffffffffffffffffffffffffffffffffffff16815260200160018201548152602001600282015481526020016003820160009054906101000a900460ff1660018111156106ab576106aa61126d565b5b60018111156106bd576106bc61126d565b5b81526020016004820154815260200160058201548152602001600682015481525050338073ffffffffffffffffffffffffffffffffffffffff16826000015173ffffffffffffffffffffffffffffffffffffffff1614610752576040517f08c379a000000000000000000000000000000000000000000000000000000000815260040161074990611677565b60405180910390fd5b50505050565b600060036000838152602001908152602001600020600101549050919050565b606090565b60606000600754905060006040518060200160405280600081525090505b600082146107c7576000600660008481526020019081526020016000206005015490508092505061079b565b809250505090565b60006006600083815260200190815260200160002060030160009054906101000a900460ff169050919050565b60006003600083815260200190815260200160002060000160009054906101000a900473ffffffffffffffffffffffffffffffffffffffff169050919050565b60045481565b60006006600083815260200190815260200160002060000160009054906101000a900473ffffffffffffffffffffffffffffffffffffffff169050919050565b60008110156108c6576040517f08c379a00000000000000000000000000000000000000000000000000000000081526004016108bd906116e3565b60405180910390fd5b80341015610909576040517f08c379a00000000000000000000000000000000000000000000000000000000081526004016109009061174f565b60405180910390fd5b6000429050600060646002546064610921919061179e565b3461092c91906117d2565b610936919061185b565b90506000610945338484610d01565b905061095081610e9c565b50505050565b60075481565b600360008281526020019081526020016000206040518060e00160405290816000820160009054906101000a900473ffffffffffffffffffffffffffffffffffffffff1673ffffffffffffffffffffffffffffffffffffffff1673ffffffffffffffffffffffffffffffffffffffff16815260200160018201548152602001600282015481526020016003820160009054906101000a900460ff166001811115610a0957610a0861126d565b5b6001811115610a1b57610a1a61126d565b5b8152602001600482015481526020016005820154815260200160068201548152505060006001811115610a5157610a5061126d565b5b81606001516001811115610a6857610a6761126d565b5b14610aa8576040517f08c379a0000000000000000000000000000000000000000000000000000000008152600401610a9f9061160b565b60405180910390fd5b600360008381526020019081526020016000206040518060e00160405290816000820160009054906101000a900473ffffffffffffffffffffffffffffffffffffffff1673ffffffffffffffffffffffffffffffffffffffff1673ffffffffffffffffffffffffffffffffffffffff16815260200160018201548152602001600282015481526020016003820160009054906101000a900460ff166001811115610b5557610b5461126d565b5b6001811115610b6757610b6661126d565b5b81526020016004820154815260200160058201548152602001600682015481525050338073ffffffffffffffffffffffffffffffffffffffff16826000015173ffffffffffffffffffffffffffffffffffffffff1614610bfc576040517f08c379a0000000000000000000000000000000000000000000000000000000008152600401610bf390611677565b60405180910390fd5b50505050565b6000811015610c46576040517f08c379a0000000000000000000000000000000000000000000000000000000008152600401610c3d906116e3565b60405180910390fd5b80341015610c89576040517f08c379a0000000000000000000000000000000000000000000000000000000008152600401610c80906118d8565b60405180910390fd5b50565b60085481565b60055481565b60006003600083815260200190815260200160002060030160009054906101000a900460ff169050919050565b606090565b600080600080600080600080919395975091939597565b600060066000838152602001908152602001600020600101549050919050565b610d09611029565b60086000815480929190610d1c906118f8565b919050555060006040518060e001604052808673ffffffffffffffffffffffffffffffffffffffff16815260200185815260200184815260200160006001811115610d6a57610d6961126d565b5b8152602001600854815260200160008152602001600081525090508060066000600854815260200190815260200160002060008201518160000160006101000a81548173ffffffffffffffffffffffffffffffffffffffff021916908373ffffffffffffffffffffffffffffffffffffffff160217905550602082015181600101556040820151816002015560608201518160030160006101000a81548160ff02191690836001811115610e2157610e2061126d565b5b02179055506080820151816004015560a0820151816005015560c082015181600601559050507f93caf6ba1af44020dfe6076e279533e38bd8deefe534c43aa8cc93aad2025b7d85858560006008546000806000604051610e899897969594939291906119a6565b60405180910390a1809150509392505050565b60008060075403610eb7578160800151600781905550611025565b81602001516006600060075481526020019081526020016000206001015410610f19576007548260a00181815250508160800151600660008460a001518152602001908152602001600020600601819055508160800151600781905550611024565b60075490505b6000600660008381526020019081526020016000206005015414158015610f7557508160200151600660006006600085815260200190815260200160002060050154815260200190815260200160002060010154105b15610f985760066000828152602001908152602001600020600501549050610f1f565b60066000828152602001908152602001600020600501548260a00181815250506000600660008381526020019081526020016000206005015414610ffa578160800151600660008460a001518152602001908152602001600020600601819055505b81608001516006600083815260200190815260200160002060050181905550808260c00181815250505b5b5050565b6040518060e00160405280600073ffffffffffffffffffffffffffffffffffffffff1681526020016000815260200160008152602001600060018111156110735761107261126d565b5b81526020016000815260200160008152602001600081525090565b600081519050919050565b600082825260208201905092915050565b6000819050602082019050919050565b6000819050919050565b6110cd816110ba565b82525050565b60006110df83836110c4565b60208301905092915050565b6000602082019050919050565b60006111038261108e565b61110d8185611099565b9350611118836110aa565b8060005b8381101561114957815161113088826110d3565b975061113b836110eb565b92505060018101905061111c565b5085935050505092915050565b6000602082019050818103600083015261117081846110f8565b905092915050565b600080fd5b611186816110ba565b811461119157600080fd5b50565b6000813590506111a38161117d565b92915050565b6000602082840312156111bf576111be611178565b5b60006111cd84828501611194565b91505092915050565b6111df816110ba565b82525050565b60006020820190506111fa60008301846111d6565b92915050565b600081519050919050565b600082825260208201905092915050565b6000819050602082019050919050565b600073ffffffffffffffffffffffffffffffffffffffff82169050919050565b60006112578261122c565b9050919050565b6112678161124c565b82525050565b7f4e487b7100000000000000000000000000000000000000000000000000000000600052602160045260246000fd5b600281106112ad576112ac61126d565b5b50565b60008190506112be8261129c565b919050565b60006112ce826112b0565b9050919050565b6112de816112c3565b82525050565b60e0820160008201516112fa600085018261125e565b50602082015161130d60208501826110c4565b50604082015161132060408501826110c4565b50606082015161133360608501826112d5565b50608082015161134660808501826110c4565b5060a082015161135960a08501826110c4565b5060c082015161136c60c08501826110c4565b50505050565b600061137e83836112e4565b60e08301905092915050565b6000602082019050919050565b60006113a282611200565b6113ac818561120b565b93506113b78361121c565b8060005b838110156113e85781516113cf8882611372565b97506113da8361138a565b9250506001810190506113bb565b5085935050505092915050565b6000602082019050818103600083015261140f8184611397565b905092915050565b600081519050919050565b600082825260208201905092915050565b60005b83811015611451578082015181840152602081019050611436565b83811115611460576000848401525b50505050565b6000601f19601f8301169050919050565b600061148282611417565b61148c8185611422565b935061149c818560208601611433565b6114a581611466565b840191505092915050565b600060208201905081810360008301526114ca8184611477565b905092915050565b6114db816112c3565b82525050565b60006020820190506114f660008301846114d2565b92915050565b6115058161124c565b82525050565b600060208201905061152060008301846114fc565b92915050565b60008115159050919050565b61153b81611526565b82525050565b600061010082019050611557600083018b6114fc565b611564602083018a6111d6565b61157160408301896111d6565b61157e60608301886114d2565b61158b60808301876111d6565b61159860a08301866111d6565b6115a560c08301856111d6565b6115b260e0830184611532565b9998505050505050505050565b7f4f726465722050656e64696e6700000000000000000000000000000000000000600082015250565b60006115f5600d83611422565b9150611600826115bf565b602082019050919050565b60006020820190508181036000830152611624816115e8565b9050919050565b7f4e6f7420417574686f7269736564000000000000000000000000000000000000600082015250565b6000611661600e83611422565b915061166c8261162b565b602082019050919050565b6000602082019050818103600083015261169081611654565b9050919050565b7f70726963652076616c7565206d757374206265206d6f7265207468616e203000600082015250565b60006116cd601f83611422565b91506116d882611697565b602082019050919050565b600060208201905081810360008301526116fc816116c0565b9050919050565b7f4e6f7420656e6f75676820626c616e636520746f20706c6163652061736b0000600082015250565b6000611739601e83611422565b915061174482611703565b602082019050919050565b600060208201905081810360008301526117688161172c565b9050919050565b7f4e487b7100000000000000000000000000000000000000000000000000000000600052601160045260246000fd5b60006117a9826110ba565b91506117b4836110ba565b9250828210156117c7576117c661176f565b5b828203905092915050565b60006117dd826110ba565b91506117e8836110ba565b9250817fffffffffffffffffffffffffffffffffffffffffffffffffffffffffffffffff04831182151516156118215761182061176f565b5b828202905092915050565b7f4e487b7100000000000000000000000000000000000000000000000000000000600052601260045260246000fd5b6000611866826110ba565b9150611871836110ba565b9250826118815761188061182c565b5b828204905092915050565b7f4e6f7420656e6f75676820626c616e636520746f20706c616365206269640000600082015250565b60006118c2601e83611422565b91506118cd8261188c565b602082019050919050565b600060208201905081810360008301526118f1816118b5565b9050919050565b6000611903826110ba565b91507fffffffffffffffffffffffffffffffffffffffffffffffffffffffffffffffff82036119355761193461176f565b5b600182019050919050565b600061194b8261122c565b9050919050565b61195b81611940565b82525050565b6000819050919050565b6000819050919050565b600061199061198b61198684611961565b61196b565b6110ba565b9050919050565b6119a081611975565b82525050565b6000610100820190506119bc600083018b611952565b6119c9602083018a6111d6565b6119d660408301896111d6565b6119e360608301886114d2565b6119f060808301876111d6565b6119fd60a0830186611997565b611a0a60c0830185611997565b611a1760e0830184611532565b999850505050505050505056fea2646970667358221220982c48e7ebfb48a7dee11e2c2cdd58c226bdd556e4e8d6dcbe5578e902f47c9f64736f6c634300080d0033",
					"opcodes": "PUSH1 0x80 PUSH1 0x40 MSTORE CALLER PUSH1 0x1 PUSH1 0x0 PUSH2 0x100 EXP DUP2 SLOAD DUP2 PUSH20 0xFFFFFFFFFFFFFFFFFFFFFFFFFFFFFFFFFFFFFFFF MUL NOT AND SWAP1 DUP4 PUSH20 0xFFFFFFFFFFFFFFFFFFFFFFFFFFFFFFFFFFFFFFFF AND MUL OR SWAP1 SSTORE POP CALLVALUE DUP1 ISZERO PUSH3 0x52 JUMPI PUSH1 0x0 DUP1 REVERT JUMPDEST POP PUSH1 0x40 MLOAD PUSH3 0x1B82 CODESIZE SUB DUP1 PUSH3 0x1B82 DUP4 CODECOPY DUP2 DUP2 ADD PUSH1 0x40 MSTORE DUP2 ADD SWAP1 PUSH3 0x78 SWAP2 SWAP1 PUSH3 0xE6 JUMP JUMPDEST DUP1 PUSH1 0x2 DUP2 SWAP1 SSTORE POP PUSH1 0x0 PUSH1 0x4 DUP2 SWAP1 SSTORE POP PUSH1 0x0 PUSH1 0x5 DUP2 SWAP1 SSTORE POP PUSH1 0x0 PUSH1 0x7 DUP2 SWAP1 SSTORE POP PUSH1 0x0 PUSH1 0x8 DUP2 SWAP1 SSTORE POP POP PUSH3 0x118 JUMP JUMPDEST PUSH1 0x0 DUP1 REVERT JUMPDEST PUSH1 0x0 DUP2 SWAP1 POP SWAP2 SWAP1 POP JUMP JUMPDEST PUSH3 0xC0 DUP2 PUSH3 0xAB JUMP JUMPDEST DUP2 EQ PUSH3 0xCC JUMPI PUSH1 0x0 DUP1 REVERT JUMPDEST POP JUMP JUMPDEST PUSH1 0x0 DUP2 MLOAD SWAP1 POP PUSH3 0xE0 DUP2 PUSH3 0xB5 JUMP JUMPDEST SWAP3 SWAP2 POP POP JUMP JUMPDEST PUSH1 0x0 PUSH1 0x20 DUP3 DUP5 SUB SLT ISZERO PUSH3 0xFF JUMPI PUSH3 0xFE PUSH3 0xA6 JUMP JUMPDEST JUMPDEST PUSH1 0x0 PUSH3 0x10F DUP5 DUP3 DUP6 ADD PUSH3 0xCF JUMP JUMPDEST SWAP2 POP POP SWAP3 SWAP2 POP POP JUMP JUMPDEST PUSH2 0x1A5A DUP1 PUSH3 0x128 PUSH1 0x0 CODECOPY PUSH1 0x0 RETURN INVALID PUSH1 0x80 PUSH1 0x40 MSTORE PUSH1 0x4 CALLDATASIZE LT PUSH2 0x114 JUMPI PUSH1 0x0 CALLDATALOAD PUSH1 0xE0 SHR DUP1 PUSH4 0x78C5B268 GT PUSH2 0xA0 JUMPI DUP1 PUSH4 0xB40A5627 GT PUSH2 0x64 JUMPI DUP1 PUSH4 0xB40A5627 EQ PUSH2 0x399 JUMPI DUP1 PUSH4 0xBF77FFAE EQ PUSH2 0x3C4 JUMPI DUP1 PUSH4 0xCE0CDC87 EQ PUSH2 0x401 JUMPI DUP1 PUSH4 0xD09EF241 EQ PUSH2 0x42C JUMPI DUP1 PUSH4 0xDB3A1396 EQ PUSH2 0x470 JUMPI PUSH2 0x114 JUMP JUMPDEST DUP1 PUSH4 0x78C5B268 EQ PUSH2 0x2E2 JUMPI DUP1 PUSH4 0x801D9BBD EQ PUSH2 0x2FE JUMPI DUP1 PUSH4 0x9703EF35 EQ PUSH2 0x329 JUMPI DUP1 PUSH4 0x9979EF45 EQ PUSH2 0x352 JUMPI DUP1 PUSH4 0xA394FDA7 EQ PUSH2 0x36E JUMPI PUSH2 0x114 JUMP JUMPDEST DUP1 PUSH4 0x44E791E0 GT PUSH2 0xE7 JUMPI DUP1 PUSH4 0x44E791E0 EQ PUSH2 0x1D5 JUMPI DUP1 PUSH4 0x4D46712D EQ PUSH2 0x200 JUMPI DUP1 PUSH4 0x69F632E2 EQ PUSH2 0x23D JUMPI DUP1 PUSH4 0x6E5B0F00 EQ PUSH2 0x27A JUMPI DUP1 PUSH4 0x734A2E78 EQ PUSH2 0x2A5 JUMPI PUSH2 0x114 JUMP JUMPDEST DUP1 PUSH4 0x122DE8F2 EQ PUSH2 0x119 JUMPI DUP1 PUSH4 0x1628E0F5 EQ PUSH2 0x144 JUMPI DUP1 PUSH4 0x2DB6DFA7 EQ PUSH2 0x16D JUMPI DUP1 PUSH4 0x4471417F EQ PUSH2 0x1AA JUMPI JUMPDEST PUSH1 0x0 DUP1 REVERT JUMPDEST CALLVALUE DUP1 ISZERO PUSH2 0x125 JUMPI PUSH1 0x0 DUP1 REVERT JUMPDEST POP PUSH2 0x12E PUSH2 0x4AD JUMP JUMPDEST PUSH1 0x40 MLOAD PUSH2 0x13B SWAP2 SWAP1 PUSH2 0x1156 JUMP JUMPDEST PUSH1 0x40 MLOAD DUP1 SWAP2 SUB SWAP1 RETURN JUMPDEST CALLVALUE DUP1 ISZERO PUSH2 0x150 JUMPI PUSH1 0x0 DUP1 REVERT JUMPDEST POP PUSH2 0x16B PUSH1 0x4 DUP1 CALLDATASIZE SUB DUP2 ADD SWAP1 PUSH2 0x166 SWAP2 SWAP1 PUSH2 0x11A9 JUMP JUMPDEST PUSH2 0x4B2 JUMP JUMPDEST STOP JUMPDEST CALLVALUE DUP1 ISZERO PUSH2 0x179 JUMPI PUSH1 0x0 DUP1 REVERT JUMPDEST POP PUSH2 0x194 PUSH1 0x4 DUP1 CALLDATASIZE SUB DUP2 ADD SWAP1 PUSH2 0x18F SWAP2 SWAP1 PUSH2 0x11A9 JUMP JUMPDEST PUSH2 0x758 JUMP JUMPDEST PUSH1 0x40 MLOAD PUSH2 0x1A1 SWAP2 SWAP1 PUSH2 0x11E5 JUMP JUMPDEST PUSH1 0x40 MLOAD DUP1 SWAP2 SUB SWAP1 RETURN JUMPDEST CALLVALUE DUP1 ISZERO PUSH2 0x1B6 JUMPI PUSH1 0x0 DUP1 REVERT JUMPDEST POP PUSH2 0x1BF PUSH2 0x778 JUMP JUMPDEST PUSH1 0x40 MLOAD PUSH2 0x1CC SWAP2 SWAP1 PUSH2 0x13F5 JUMP JUMPDEST PUSH1 0x40 MLOAD DUP1 SWAP2 SUB SWAP1 RETURN JUMPDEST CALLVALUE DUP1 ISZERO PUSH2 0x1E1 JUMPI PUSH1 0x0 DUP1 REVERT JUMPDEST POP PUSH2 0x1EA PUSH2 0x77D JUMP JUMPDEST PUSH1 0x40 MLOAD PUSH2 0x1F7 SWAP2 SWAP1 PUSH2 0x14B0 JUMP JUMPDEST PUSH1 0x40 MLOAD DUP1 SWAP2 SUB SWAP1 RETURN JUMPDEST CALLVALUE DUP1 ISZERO PUSH2 0x20C JUMPI PUSH1 0x0 DUP1 REVERT JUMPDEST POP PUSH2 0x227 PUSH1 0x4 DUP1 CALLDATASIZE SUB DUP2 ADD SWAP1 PUSH2 0x222 SWAP2 SWAP1 PUSH2 0x11A9 JUMP JUMPDEST PUSH2 0x7CF JUMP JUMPDEST PUSH1 0x40 MLOAD PUSH2 0x234 SWAP2 SWAP1 PUSH2 0x14E1 JUMP JUMPDEST PUSH1 0x40 MLOAD DUP1 SWAP2 SUB SWAP1 RETURN JUMPDEST CALLVALUE DUP1 ISZERO PUSH2 0x249 JUMPI PUSH1 0x0 DUP1 REVERT JUMPDEST POP PUSH2 0x264 PUSH1 0x4 DUP1 CALLDATASIZE SUB DUP2 ADD SWAP1 PUSH2 0x25F SWAP2 SWAP1 PUSH2 0x11A9 JUMP JUMPDEST PUSH2 0x7FC JUMP JUMPDEST PUSH1 0x40 MLOAD PUSH2 0x271 SWAP2 SWAP1 PUSH2 0x150B JUMP JUMPDEST PUSH1 0x40 MLOAD DUP1 SWAP2 SUB SWAP1 RETURN JUMPDEST CALLVALUE DUP1 ISZERO PUSH2 0x286 JUMPI PUSH1 0x0 DUP1 REVERT JUMPDEST POP PUSH2 0x28F PUSH2 0x83C JUMP JUMPDEST PUSH1 0x40 MLOAD PUSH2 0x29C SWAP2 SWAP1 PUSH2 0x11E5 JUMP JUMPDEST PUSH1 0x40 MLOAD DUP1 SWAP2 SUB SWAP1 RETURN JUMPDEST CALLVALUE DUP1 ISZERO PUSH2 0x2B1 JUMPI PUSH1 0x0 DUP1 REVERT JUMPDEST POP PUSH2 0x2CC PUSH1 0x4 DUP1 CALLDATASIZE SUB DUP2 ADD SWAP1 PUSH2 0x2C7 SWAP2 SWAP1 PUSH2 0x11A9 JUMP JUMPDEST PUSH2 0x842 JUMP JUMPDEST PUSH1 0x40 MLOAD PUSH2 0x2D9 SWAP2 SWAP1 PUSH2 0x150B JUMP JUMPDEST PUSH1 0x40 MLOAD DUP1 SWAP2 SUB SWAP1 RETURN JUMPDEST PUSH2 0x2FC PUSH1 0x4 DUP1 CALLDATASIZE SUB DUP2 ADD SWAP1 PUSH2 0x2F7 SWAP2 SWAP1 PUSH2 0x11A9 JUMP JUMPDEST PUSH2 0x882 JUMP JUMPDEST STOP JUMPDEST CALLVALUE DUP1 ISZERO PUSH2 0x30A JUMPI PUSH1 0x0 DUP1 REVERT JUMPDEST POP PUSH2 0x313 PUSH2 0x956 JUMP JUMPDEST PUSH1 0x40 MLOAD PUSH2 0x320 SWAP2 SWAP1 PUSH2 0x11E5 JUMP JUMPDEST PUSH1 0x40 MLOAD DUP1 SWAP2 SUB SWAP1 RETURN JUMPDEST CALLVALUE DUP1 ISZERO PUSH2 0x335 JUMPI PUSH1 0x0 DUP1 REVERT JUMPDEST POP PUSH2 0x350 PUSH1 0x4 DUP1 CALLDATASIZE SUB DUP2 ADD SWAP1 PUSH2 0x34B SWAP2 SWAP1 PUSH2 0x11A9 JUMP JUMPDEST PUSH2 0x95C JUMP JUMPDEST STOP JUMPDEST PUSH2 0x36C PUSH1 0x4 DUP1 CALLDATASIZE SUB DUP2 ADD SWAP1 PUSH2 0x367 SWAP2 SWAP1 PUSH2 0x11A9 JUMP JUMPDEST PUSH2 0xC02 JUMP JUMPDEST STOP JUMPDEST CALLVALUE DUP1 ISZERO PUSH2 0x37A JUMPI PUSH1 0x0 DUP1 REVERT JUMPDEST POP PUSH2 0x383 PUSH2 0xC8C JUMP JUMPDEST PUSH1 0x40 MLOAD PUSH2 0x390 SWAP2 SWAP1 PUSH2 0x11E5 JUMP JUMPDEST PUSH1 0x40 MLOAD DUP1 SWAP2 SUB SWAP1 RETURN JUMPDEST CALLVALUE DUP1 ISZERO PUSH2 0x3A5 JUMPI PUSH1 0x0 DUP1 REVERT JUMPDEST POP PUSH2 0x3AE PUSH2 0xC92 JUMP JUMPDEST PUSH1 0x40 MLOAD PUSH2 0x3BB SWAP2 SWAP1 PUSH2 0x11E5 JUMP JUMPDEST PUSH1 0x40 MLOAD DUP1 SWAP2 SUB SWAP1 RETURN JUMPDEST CALLVALUE DUP1 ISZERO PUSH2 0x3D0 JUMPI PUSH1 0x0 DUP1 REVERT JUMPDEST POP PUSH2 0x3EB PUSH1 0x4 DUP1 CALLDATASIZE SUB DUP2 ADD SWAP1 PUSH2 0x3E6 SWAP2 SWAP1 PUSH2 0x11A9 JUMP JUMPDEST PUSH2 0xC98 JUMP JUMPDEST PUSH1 0x40 MLOAD PUSH2 0x3F8 SWAP2 SWAP1 PUSH2 0x14E1 JUMP JUMPDEST PUSH1 0x40 MLOAD DUP1 SWAP2 SUB SWAP1 RETURN JUMPDEST CALLVALUE DUP1 ISZERO PUSH2 0x40D JUMPI PUSH1 0x0 DUP1 REVERT JUMPDEST POP PUSH2 0x416 PUSH2 0xCC5 JUMP JUMPDEST PUSH1 0x40 MLOAD PUSH2 0x423 SWAP2 SWAP1 PUSH2 0x1156 JUMP JUMPDEST PUSH1 0x40 MLOAD DUP1 SWAP2 SUB SWAP1 RETURN JUMPDEST CALLVALUE DUP1 ISZERO PUSH2 0x438 JUMPI PUSH1 0x0 DUP1 REVERT JUMPDEST POP PUSH2 0x453 PUSH1 0x4 DUP1 CALLDATASIZE SUB DUP2 ADD SWAP1 PUSH2 0x44E SWAP2 SWAP1 PUSH2 0x11A9 JUMP JUMPDEST PUSH2 0xCCA JUMP JUMPDEST PUSH1 0x40 MLOAD PUSH2 0x467 SWAP9 SWAP8 SWAP7 SWAP6 SWAP5 SWAP4 SWAP3 SWAP2 SWAP1 PUSH2 0x1541 JUMP JUMPDEST PUSH1 0x40 MLOAD DUP1 SWAP2 SUB SWAP1 RETURN JUMPDEST CALLVALUE DUP1 ISZERO PUSH2 0x47C JUMPI PUSH1 0x0 DUP1 REVERT JUMPDEST POP PUSH2 0x497 PUSH1 0x4 DUP1 CALLDATASIZE SUB DUP2 ADD SWAP1 PUSH2 0x492 SWAP2 SWAP1 PUSH2 0x11A9 JUMP JUMPDEST PUSH2 0xCE1 JUMP JUMPDEST PUSH1 0x40 MLOAD PUSH2 0x4A4 SWAP2 SWAP1 PUSH2 0x11E5 JUMP JUMPDEST PUSH1 0x40 MLOAD DUP1 SWAP2 SUB SWAP1 RETURN JUMPDEST PUSH1 0x60 SWAP1 JUMP JUMPDEST PUSH1 0x6 PUSH1 0x0 DUP3 DUP2 MSTORE PUSH1 0x20 ADD SWAP1 DUP2 MSTORE PUSH1 0x20 ADD PUSH1 0x0 KECCAK256 PUSH1 0x40 MLOAD DUP1 PUSH1 0xE0 ADD PUSH1 0x40 MSTORE SWAP1 DUP2 PUSH1 0x0 DUP3 ADD PUSH1 0x0 SWAP1 SLOAD SWAP1 PUSH2 0x100 EXP SWAP1 DIV PUSH20 0xFFFFFFFFFFFFFFFFFFFFFFFFFFFFFFFFFFFFFFFF AND PUSH20 0xFFFFFFFFFFFFFFFFFFFFFFFFFFFFFFFFFFFFFFFF AND PUSH20 0xFFFFFFFFFFFFFFFFFFFFFFFFFFFFFFFFFFFFFFFF AND DUP2 MSTORE PUSH1 0x20 ADD PUSH1 0x1 DUP3 ADD SLOAD DUP2 MSTORE PUSH1 0x20 ADD PUSH1 0x2 DUP3 ADD SLOAD DUP2 MSTORE PUSH1 0x20 ADD PUSH1 0x3 DUP3 ADD PUSH1 0x0 SWAP1 SLOAD SWAP1 PUSH2 0x100 EXP SWAP1 DIV PUSH1 0xFF AND PUSH1 0x1 DUP2 GT ISZERO PUSH2 0x55F JUMPI PUSH2 0x55E PUSH2 0x126D JUMP JUMPDEST JUMPDEST PUSH1 0x1 DUP2 GT ISZERO PUSH2 0x571 JUMPI PUSH2 0x570 PUSH2 0x126D JUMP JUMPDEST JUMPDEST DUP2 MSTORE PUSH1 0x20 ADD PUSH1 0x4 DUP3 ADD SLOAD DUP2 MSTORE PUSH1 0x20 ADD PUSH1 0x5 DUP3 ADD SLOAD DUP2 MSTORE PUSH1 0x20 ADD PUSH1 0x6 DUP3 ADD SLOAD DUP2 MSTORE POP POP PUSH1 0x0 PUSH1 0x1 DUP2 GT ISZERO PUSH2 0x5A7 JUMPI PUSH2 0x5A6 PUSH2 0x126D JUMP JUMPDEST JUMPDEST DUP2 PUSH1 0x60 ADD MLOAD PUSH1 0x1 DUP2 GT ISZERO PUSH2 0x5BE JUMPI PUSH2 0x5BD PUSH2 0x126D JUMP JUMPDEST JUMPDEST EQ PUSH2 0x5FE JUMPI PUSH1 0x40 MLOAD PUSH32 0x8C379A000000000000000000000000000000000000000000000000000000000 DUP2 MSTORE PUSH1 0x4 ADD PUSH2 0x5F5 SWAP1 PUSH2 0x160B JUMP JUMPDEST PUSH1 0x40 MLOAD DUP1 SWAP2 SUB SWAP1 REVERT JUMPDEST PUSH1 0x6 PUSH1 0x0 DUP4 DUP2 MSTORE PUSH1 0x20 ADD SWAP1 DUP2 MSTORE PUSH1 0x20 ADD PUSH1 0x0 KECCAK256 PUSH1 0x40 MLOAD DUP1 PUSH1 0xE0 ADD PUSH1 0x40 MSTORE SWAP1 DUP2 PUSH1 0x0 DUP3 ADD PUSH1 0x0 SWAP1 SLOAD SWAP1 PUSH2 0x100 EXP SWAP1 DIV PUSH20 0xFFFFFFFFFFFFFFFFFFFFFFFFFFFFFFFFFFFFFFFF AND PUSH20 0xFFFFFFFFFFFFFFFFFFFFFFFFFFFFFFFFFFFFFFFF AND PUSH20 0xFFFFFFFFFFFFFFFFFFFFFFFFFFFFFFFFFFFFFFFF AND DUP2 MSTORE PUSH1 0x20 ADD PUSH1 0x1 DUP3 ADD SLOAD DUP2 MSTORE PUSH1 0x20 ADD PUSH1 0x2 DUP3 ADD SLOAD DUP2 MSTORE PUSH1 0x20 ADD PUSH1 0x3 DUP3 ADD PUSH1 0x0 SWAP1 SLOAD SWAP1 PUSH2 0x100 EXP SWAP1 DIV PUSH1 0xFF AND PUSH1 0x1 DUP2 GT ISZERO PUSH2 0x6AB JUMPI PUSH2 0x6AA PUSH2 0x126D JUMP JUMPDEST JUMPDEST PUSH1 0x1 DUP2 GT ISZERO PUSH2 0x6BD JUMPI PUSH2 0x6BC PUSH2 0x126D JUMP JUMPDEST JUMPDEST DUP2 MSTORE PUSH1 0x20 ADD PUSH1 0x4 DUP3 ADD SLOAD DUP2 MSTORE PUSH1 0x20 ADD PUSH1 0x5 DUP3 ADD SLOAD DUP2 MSTORE PUSH1 0x20 ADD PUSH1 0x6 DUP3 ADD SLOAD DUP2 MSTORE POP POP CALLER DUP1 PUSH20 0xFFFFFFFFFFFFFFFFFFFFFFFFFFFFFFFFFFFFFFFF AND DUP3 PUSH1 0x0 ADD MLOAD PUSH20 0xFFFFFFFFFFFFFFFFFFFFFFFFFFFFFFFFFFFFFFFF AND EQ PUSH2 0x752 JUMPI PUSH1 0x40 MLOAD PUSH32 0x8C379A000000000000000000000000000000000000000000000000000000000 DUP2 MSTORE PUSH1 0x4 ADD PUSH2 0x749 SWAP1 PUSH2 0x1677 JUMP JUMPDEST PUSH1 0x40 MLOAD DUP1 SWAP2 SUB SWAP1 REVERT JUMPDEST POP POP POP POP JUMP JUMPDEST PUSH1 0x0 PUSH1 0x3 PUSH1 0x0 DUP4 DUP2 MSTORE PUSH1 0x20 ADD SWAP1 DUP2 MSTORE PUSH1 0x20 ADD PUSH1 0x0 KECCAK256 PUSH1 0x1 ADD SLOAD SWAP1 POP SWAP2 SWAP1 POP JUMP JUMPDEST PUSH1 0x60 SWAP1 JUMP JUMPDEST PUSH1 0x60 PUSH1 0x0 PUSH1 0x7 SLOAD SWAP1 POP PUSH1 0x0 PUSH1 0x40 MLOAD DUP1 PUSH1 0x20 ADD PUSH1 0x40 MSTORE DUP1 PUSH1 0x0 DUP2 MSTORE POP SWAP1 POP JUMPDEST PUSH1 0x0 DUP3 EQ PUSH2 0x7C7 JUMPI PUSH1 0x0 PUSH1 0x6 PUSH1 0x0 DUP5 DUP2 MSTORE PUSH1 0x20 ADD SWAP1 DUP2 MSTORE PUSH1 0x20 ADD PUSH1 0x0 KECCAK256 PUSH1 0x5 ADD SLOAD SWAP1 POP DUP1 SWAP3 POP POP PUSH2 0x79B JUMP JUMPDEST DUP1 SWAP3 POP POP POP SWAP1 JUMP JUMPDEST PUSH1 0x0 PUSH1 0x6 PUSH1 0x0 DUP4 DUP2 MSTORE PUSH1 0x20 ADD SWAP1 DUP2 MSTORE PUSH1 0x20 ADD PUSH1 0x0 KECCAK256 PUSH1 0x3 ADD PUSH1 0x0 SWAP1 SLOAD SWAP1 PUSH2 0x100 EXP SWAP1 DIV PUSH1 0xFF AND SWAP1 POP SWAP2 SWAP1 POP JUMP JUMPDEST PUSH1 0x0 PUSH1 0x3 PUSH1 0x0 DUP4 DUP2 MSTORE PUSH1 0x20 ADD SWAP1 DUP2 MSTORE PUSH1 0x20 ADD PUSH1 0x0 KECCAK256 PUSH1 0x0 ADD PUSH1 0x0 SWAP1 SLOAD SWAP1 PUSH2 0x100 EXP SWAP1 DIV PUSH20 0xFFFFFFFFFFFFFFFFFFFFFFFFFFFFFFFFFFFFFFFF AND SWAP1 POP SWAP2 SWAP1 POP JUMP JUMPDEST PUSH1 0x4 SLOAD DUP2 JUMP JUMPDEST PUSH1 0x0 PUSH1 0x6 PUSH1 0x0 DUP4 DUP2 MSTORE PUSH1 0x20 ADD SWAP1 DUP2 MSTORE PUSH1 0x20 ADD PUSH1 0x0 KECCAK256 PUSH1 0x0 ADD PUSH1 0x0 SWAP1 SLOAD SWAP1 PUSH2 0x100 EXP SWAP1 DIV PUSH20 0xFFFFFFFFFFFFFFFFFFFFFFFFFFFFFFFFFFFFFFFF AND SWAP1 POP SWAP2 SWAP1 POP JUMP JUMPDEST PUSH1 0x0 DUP2 LT ISZERO PUSH2 0x8C6 JUMPI PUSH1 0x40 MLOAD PUSH32 0x8C379A000000000000000000000000000000000000000000000000000000000 DUP2 MSTORE PUSH1 0x4 ADD PUSH2 0x8BD SWAP1 PUSH2 0x16E3 JUMP JUMPDEST PUSH1 0x40 MLOAD DUP1 SWAP2 SUB SWAP1 REVERT JUMPDEST DUP1 CALLVALUE LT ISZERO PUSH2 0x909 JUMPI PUSH1 0x40 MLOAD PUSH32 0x8C379A000000000000000000000000000000000000000000000000000000000 DUP2 MSTORE PUSH1 0x4 ADD PUSH2 0x900 SWAP1 PUSH2 0x174F JUMP JUMPDEST PUSH1 0x40 MLOAD DUP1 SWAP2 SUB SWAP1 REVERT JUMPDEST PUSH1 0x0 TIMESTAMP SWAP1 POP PUSH1 0x0 PUSH1 0x64 PUSH1 0x2 SLOAD PUSH1 0x64 PUSH2 0x921 SWAP2 SWAP1 PUSH2 0x179E JUMP JUMPDEST CALLVALUE PUSH2 0x92C SWAP2 SWAP1 PUSH2 0x17D2 JUMP JUMPDEST PUSH2 0x936 SWAP2 SWAP1 PUSH2 0x185B JUMP JUMPDEST SWAP1 POP PUSH1 0x0 PUSH2 0x945 CALLER DUP5 DUP5 PUSH2 0xD01 JUMP JUMPDEST SWAP1 POP PUSH2 0x950 DUP2 PUSH2 0xE9C JUMP JUMPDEST POP POP POP POP JUMP JUMPDEST PUSH1 0x7 SLOAD DUP2 JUMP JUMPDEST PUSH1 0x3 PUSH1 0x0 DUP3 DUP2 MSTORE PUSH1 0x20 ADD SWAP1 DUP2 MSTORE PUSH1 0x20 ADD PUSH1 0x0 KECCAK256 PUSH1 0x40 MLOAD DUP1 PUSH1 0xE0 ADD PUSH1 0x40 MSTORE SWAP1 DUP2 PUSH1 0x0 DUP3 ADD PUSH1 0x0 SWAP1 SLOAD SWAP1 PUSH2 0x100 EXP SWAP1 DIV PUSH20 0xFFFFFFFFFFFFFFFFFFFFFFFFFFFFFFFFFFFFFFFF AND PUSH20 0xFFFFFFFFFFFFFFFFFFFFFFFFFFFFFFFFFFFFFFFF AND PUSH20 0xFFFFFFFFFFFFFFFFFFFFFFFFFFFFFFFFFFFFFFFF AND DUP2 MSTORE PUSH1 0x20 ADD PUSH1 0x1 DUP3 ADD SLOAD DUP2 MSTORE PUSH1 0x20 ADD PUSH1 0x2 DUP3 ADD SLOAD DUP2 MSTORE PUSH1 0x20 ADD PUSH1 0x3 DUP3 ADD PUSH1 0x0 SWAP1 SLOAD SWAP1 PUSH2 0x100 EXP SWAP1 DIV PUSH1 0xFF AND PUSH1 0x1 DUP2 GT ISZERO PUSH2 0xA09 JUMPI PUSH2 0xA08 PUSH2 0x126D JUMP JUMPDEST JUMPDEST PUSH1 0x1 DUP2 GT ISZERO PUSH2 0xA1B JUMPI PUSH2 0xA1A PUSH2 0x126D JUMP JUMPDEST JUMPDEST DUP2 MSTORE PUSH1 0x20 ADD PUSH1 0x4 DUP3 ADD SLOAD DUP2 MSTORE PUSH1 0x20 ADD PUSH1 0x5 DUP3 ADD SLOAD DUP2 MSTORE PUSH1 0x20 ADD PUSH1 0x6 DUP3 ADD SLOAD DUP2 MSTORE POP POP PUSH1 0x0 PUSH1 0x1 DUP2 GT ISZERO PUSH2 0xA51 JUMPI PUSH2 0xA50 PUSH2 0x126D JUMP JUMPDEST JUMPDEST DUP2 PUSH1 0x60 ADD MLOAD PUSH1 0x1 DUP2 GT ISZERO PUSH2 0xA68 JUMPI PUSH2 0xA67 PUSH2 0x126D JUMP JUMPDEST JUMPDEST EQ PUSH2 0xAA8 JUMPI PUSH1 0x40 MLOAD PUSH32 0x8C379A000000000000000000000000000000000000000000000000000000000 DUP2 MSTORE PUSH1 0x4 ADD PUSH2 0xA9F SWAP1 PUSH2 0x160B JUMP JUMPDEST PUSH1 0x40 MLOAD DUP1 SWAP2 SUB SWAP1 REVERT JUMPDEST PUSH1 0x3 PUSH1 0x0 DUP4 DUP2 MSTORE PUSH1 0x20 ADD SWAP1 DUP2 MSTORE PUSH1 0x20 ADD PUSH1 0x0 KECCAK256 PUSH1 0x40 MLOAD DUP1 PUSH1 0xE0 ADD PUSH1 0x40 MSTORE SWAP1 DUP2 PUSH1 0x0 DUP3 ADD PUSH1 0x0 SWAP1 SLOAD SWAP1 PUSH2 0x100 EXP SWAP1 DIV PUSH20 0xFFFFFFFFFFFFFFFFFFFFFFFFFFFFFFFFFFFFFFFF AND PUSH20 0xFFFFFFFFFFFFFFFFFFFFFFFFFFFFFFFFFFFFFFFF AND PUSH20 0xFFFFFFFFFFFFFFFFFFFFFFFFFFFFFFFFFFFFFFFF AND DUP2 MSTORE PUSH1 0x20 ADD PUSH1 0x1 DUP3 ADD SLOAD DUP2 MSTORE PUSH1 0x20 ADD PUSH1 0x2 DUP3 ADD SLOAD DUP2 MSTORE PUSH1 0x20 ADD PUSH1 0x3 DUP3 ADD PUSH1 0x0 SWAP1 SLOAD SWAP1 PUSH2 0x100 EXP SWAP1 DIV PUSH1 0xFF AND PUSH1 0x1 DUP2 GT ISZERO PUSH2 0xB55 JUMPI PUSH2 0xB54 PUSH2 0x126D JUMP JUMPDEST JUMPDEST PUSH1 0x1 DUP2 GT ISZERO PUSH2 0xB67 JUMPI PUSH2 0xB66 PUSH2 0x126D JUMP JUMPDEST JUMPDEST DUP2 MSTORE PUSH1 0x20 ADD PUSH1 0x4 DUP3 ADD SLOAD DUP2 MSTORE PUSH1 0x20 ADD PUSH1 0x5 DUP3 ADD SLOAD DUP2 MSTORE PUSH1 0x20 ADD PUSH1 0x6 DUP3 ADD SLOAD DUP2 MSTORE POP POP CALLER DUP1 PUSH20 0xFFFFFFFFFFFFFFFFFFFFFFFFFFFFFFFFFFFFFFFF AND DUP3 PUSH1 0x0 ADD MLOAD PUSH20 0xFFFFFFFFFFFFFFFFFFFFFFFFFFFFFFFFFFFFFFFF AND EQ PUSH2 0xBFC JUMPI PUSH1 0x40 MLOAD PUSH32 0x8C379A000000000000000000000000000000000000000000000000000000000 DUP2 MSTORE PUSH1 0x4 ADD PUSH2 0xBF3 SWAP1 PUSH2 0x1677 JUMP JUMPDEST PUSH1 0x40 MLOAD DUP1 SWAP2 SUB SWAP1 REVERT JUMPDEST POP POP POP POP JUMP JUMPDEST PUSH1 0x0 DUP2 LT ISZERO PUSH2 0xC46 JUMPI PUSH1 0x40 MLOAD PUSH32 0x8C379A000000000000000000000000000000000000000000000000000000000 DUP2 MSTORE PUSH1 0x4 ADD PUSH2 0xC3D SWAP1 PUSH2 0x16E3 JUMP JUMPDEST PUSH1 0x40 MLOAD DUP1 SWAP2 SUB SWAP1 REVERT JUMPDEST DUP1 CALLVALUE LT ISZERO PUSH2 0xC89 JUMPI PUSH1 0x40 MLOAD PUSH32 0x8C379A000000000000000000000000000000000000000000000000000000000 DUP2 MSTORE PUSH1 0x4 ADD PUSH2 0xC80 SWAP1 PUSH2 0x18D8 JUMP JUMPDEST PUSH1 0x40 MLOAD DUP1 SWAP2 SUB SWAP1 REVERT JUMPDEST POP JUMP JUMPDEST PUSH1 0x8 SLOAD DUP2 JUMP JUMPDEST PUSH1 0x5 SLOAD DUP2 JUMP JUMPDEST PUSH1 0x0 PUSH1 0x3 PUSH1 0x0 DUP4 DUP2 MSTORE PUSH1 0x20 ADD SWAP1 DUP2 MSTORE PUSH1 0x20 ADD PUSH1 0x0 KECCAK256 PUSH1 0x3 ADD PUSH1 0x0 SWAP1 SLOAD SWAP1 PUSH2 0x100 EXP SWAP1 DIV PUSH1 0xFF AND SWAP1 POP SWAP2 SWAP1 POP JUMP JUMPDEST PUSH1 0x60 SWAP1 JUMP JUMPDEST PUSH1 0x0 DUP1 PUSH1 0x0 DUP1 PUSH1 0x0 DUP1 PUSH1 0x0 DUP1 SWAP2 SWAP4 SWAP6 SWAP8 POP SWAP2 SWAP4 SWAP6 SWAP8 JUMP JUMPDEST PUSH1 0x0 PUSH1 0x6 PUSH1 0x0 DUP4 DUP2 MSTORE PUSH1 0x20 ADD SWAP1 DUP2 MSTORE PUSH1 0x20 ADD PUSH1 0x0 KECCAK256 PUSH1 0x1 ADD SLOAD SWAP1 POP SWAP2 SWAP1 POP JUMP JUMPDEST PUSH2 0xD09 PUSH2 0x1029 JUMP JUMPDEST PUSH1 0x8 PUSH1 0x0 DUP2 SLOAD DUP1 SWAP3 SWAP2 SWAP1 PUSH2 0xD1C SWAP1 PUSH2 0x18F8 JUMP JUMPDEST SWAP2 SWAP1 POP SSTORE POP PUSH1 0x0 PUSH1 0x40 MLOAD DUP1 PUSH1 0xE0 ADD PUSH1 0x40 MSTORE DUP1 DUP7 PUSH20 0xFFFFFFFFFFFFFFFFFFFFFFFFFFFFFFFFFFFFFFFF AND DUP2 MSTORE PUSH1 0x20 ADD DUP6 DUP2 MSTORE PUSH1 0x20 ADD DUP5 DUP2 MSTORE PUSH1 0x20 ADD PUSH1 0x0 PUSH1 0x1 DUP2 GT ISZERO PUSH2 0xD6A JUMPI PUSH2 0xD69 PUSH2 0x126D JUMP JUMPDEST JUMPDEST DUP2 MSTORE PUSH1 0x20 ADD PUSH1 0x8 SLOAD DUP2 MSTORE PUSH1 0x20 ADD PUSH1 0x0 DUP2 MSTORE PUSH1 0x20 ADD PUSH1 0x0 DUP2 MSTORE POP SWAP1 POP DUP1 PUSH1 0x6 PUSH1 0x0 PUSH1 0x8 SLOAD DUP2 MSTORE PUSH1 0x20 ADD SWAP1 DUP2 MSTORE PUSH1 0x20 ADD PUSH1 0x0 KECCAK256 PUSH1 0x0 DUP3 ADD MLOAD DUP2 PUSH1 0x0 ADD PUSH1 0x0 PUSH2 0x100 EXP DUP2 SLOAD DUP2 PUSH20 0xFFFFFFFFFFFFFFFFFFFFFFFFFFFFFFFFFFFFFFFF MUL NOT AND SWAP1 DUP4 PUSH20 0xFFFFFFFFFFFFFFFFFFFFFFFFFFFFFFFFFFFFFFFF AND MUL OR SWAP1 SSTORE POP PUSH1 0x20 DUP3 ADD MLOAD DUP2 PUSH1 0x1 ADD SSTORE PUSH1 0x40 DUP3 ADD MLOAD DUP2 PUSH1 0x2 ADD SSTORE PUSH1 0x60 DUP3 ADD MLOAD DUP2 PUSH1 0x3 ADD PUSH1 0x0 PUSH2 0x100 EXP DUP2 SLOAD DUP2 PUSH1 0xFF MUL NOT AND SWAP1 DUP4 PUSH1 0x1 DUP2 GT ISZERO PUSH2 0xE21 JUMPI PUSH2 0xE20 PUSH2 0x126D JUMP JUMPDEST JUMPDEST MUL OR SWAP1 SSTORE POP PUSH1 0x80 DUP3 ADD MLOAD DUP2 PUSH1 0x4 ADD SSTORE PUSH1 0xA0 DUP3 ADD MLOAD DUP2 PUSH1 0x5 ADD SSTORE PUSH1 0xC0 DUP3 ADD MLOAD DUP2 PUSH1 0x6 ADD SSTORE SWAP1 POP POP PUSH32 0x93CAF6BA1AF44020DFE6076E279533E38BD8DEEFE534C43AA8CC93AAD2025B7D DUP6 DUP6 DUP6 PUSH1 0x0 PUSH1 0x8 SLOAD PUSH1 0x0 DUP1 PUSH1 0x0 PUSH1 0x40 MLOAD PUSH2 0xE89 SWAP9 SWAP8 SWAP7 SWAP6 SWAP5 SWAP4 SWAP3 SWAP2 SWAP1 PUSH2 0x19A6 JUMP JUMPDEST PUSH1 0x40 MLOAD DUP1 SWAP2 SUB SWAP1 LOG1 DUP1 SWAP2 POP POP SWAP4 SWAP3 POP POP POP JUMP JUMPDEST PUSH1 0x0 DUP1 PUSH1 0x7 SLOAD SUB PUSH2 0xEB7 JUMPI DUP2 PUSH1 0x80 ADD MLOAD PUSH1 0x7 DUP2 SWAP1 SSTORE POP PUSH2 0x1025 JUMP JUMPDEST DUP2 PUSH1 0x20 ADD MLOAD PUSH1 0x6 PUSH1 0x0 PUSH1 0x7 SLOAD DUP2 MSTORE PUSH1 0x20 ADD SWAP1 DUP2 MSTORE PUSH1 0x20 ADD PUSH1 0x0 KECCAK256 PUSH1 0x1 ADD SLOAD LT PUSH2 0xF19 JUMPI PUSH1 0x7 SLOAD DUP3 PUSH1 0xA0 ADD DUP2 DUP2 MSTORE POP POP DUP2 PUSH1 0x80 ADD MLOAD PUSH1 0x6 PUSH1 0x0 DUP5 PUSH1 0xA0 ADD MLOAD DUP2 MSTORE PUSH1 0x20 ADD SWAP1 DUP2 MSTORE PUSH1 0x20 ADD PUSH1 0x0 KECCAK256 PUSH1 0x6 ADD DUP2 SWAP1 SSTORE POP DUP2 PUSH1 0x80 ADD MLOAD PUSH1 0x7 DUP2 SWAP1 SSTORE POP PUSH2 0x1024 JUMP JUMPDEST PUSH1 0x7 SLOAD SWAP1 POP JUMPDEST PUSH1 0x0 PUSH1 0x6 PUSH1 0x0 DUP4 DUP2 MSTORE PUSH1 0x20 ADD SWAP1 DUP2 MSTORE PUSH1 0x20 ADD PUSH1 0x0 KECCAK256 PUSH1 0x5 ADD SLOAD EQ ISZERO DUP1 ISZERO PUSH2 0xF75 JUMPI POP DUP2 PUSH1 0x20 ADD MLOAD PUSH1 0x6 PUSH1 0x0 PUSH1 0x6 PUSH1 0x0 DUP6 DUP2 MSTORE PUSH1 0x20 ADD SWAP1 DUP2 MSTORE PUSH1 0x20 ADD PUSH1 0x0 KECCAK256 PUSH1 0x5 ADD SLOAD DUP2 MSTORE PUSH1 0x20 ADD SWAP1 DUP2 MSTORE PUSH1 0x20 ADD PUSH1 0x0 KECCAK256 PUSH1 0x1 ADD SLOAD LT JUMPDEST ISZERO PUSH2 0xF98 JUMPI PUSH1 0x6 PUSH1 0x0 DUP3 DUP2 MSTORE PUSH1 0x20 ADD SWAP1 DUP2 MSTORE PUSH1 0x20 ADD PUSH1 0x0 KECCAK256 PUSH1 0x5 ADD SLOAD SWAP1 POP PUSH2 0xF1F JUMP JUMPDEST PUSH1 0x6 PUSH1 0x0 DUP3 DUP2 MSTORE PUSH1 0x20 ADD SWAP1 DUP2 MSTORE PUSH1 0x20 ADD PUSH1 0x0 KECCAK256 PUSH1 0x5 ADD SLOAD DUP3 PUSH1 0xA0 ADD DUP2 DUP2 MSTORE POP POP PUSH1 0x0 PUSH1 0x6 PUSH1 0x0 DUP4 DUP2 MSTORE PUSH1 0x20 ADD SWAP1 DUP2 MSTORE PUSH1 0x20 ADD PUSH1 0x0 KECCAK256 PUSH1 0x5 ADD SLOAD EQ PUSH2 0xFFA JUMPI DUP2 PUSH1 0x80 ADD MLOAD PUSH1 0x6 PUSH1 0x0 DUP5 PUSH1 0xA0 ADD MLOAD DUP2 MSTORE PUSH1 0x20 ADD SWAP1 DUP2 MSTORE PUSH1 0x20 ADD PUSH1 0x0 KECCAK256 PUSH1 0x6 ADD DUP2 SWAP1 SSTORE POP JUMPDEST DUP2 PUSH1 0x80 ADD MLOAD PUSH1 0x6 PUSH1 0x0 DUP4 DUP2 MSTORE PUSH1 0x20 ADD SWAP1 DUP2 MSTORE PUSH1 0x20 ADD PUSH1 0x0 KECCAK256 PUSH1 0x5 ADD DUP2 SWAP1 SSTORE POP DUP1 DUP3 PUSH1 0xC0 ADD DUP2 DUP2 MSTORE POP POP JUMPDEST JUMPDEST POP POP JUMP JUMPDEST PUSH1 0x40 MLOAD DUP1 PUSH1 0xE0 ADD PUSH1 0x40 MSTORE DUP1 PUSH1 0x0 PUSH20 0xFFFFFFFFFFFFFFFFFFFFFFFFFFFFFFFFFFFFFFFF AND DUP2 MSTORE PUSH1 0x20 ADD PUSH1 0x0 DUP2 MSTORE PUSH1 0x20 ADD PUSH1 0x0 DUP2 MSTORE PUSH1 0x20 ADD PUSH1 0x0 PUSH1 0x1 DUP2 GT ISZERO PUSH2 0x1073 JUMPI PUSH2 0x1072 PUSH2 0x126D JUMP JUMPDEST JUMPDEST DUP2 MSTORE PUSH1 0x20 ADD PUSH1 0x0 DUP2 MSTORE PUSH1 0x20 ADD PUSH1 0x0 DUP2 MSTORE PUSH1 0x20 ADD PUSH1 0x0 DUP2 MSTORE POP SWAP1 JUMP JUMPDEST PUSH1 0x0 DUP2 MLOAD SWAP1 POP SWAP2 SWAP1 POP JUMP JUMPDEST PUSH1 0x0 DUP3 DUP3 MSTORE PUSH1 0x20 DUP3 ADD SWAP1 POP SWAP3 SWAP2 POP POP JUMP JUMPDEST PUSH1 0x0 DUP2 SWAP1 POP PUSH1 0x20 DUP3 ADD SWAP1 POP SWAP2 SWAP1 POP JUMP JUMPDEST PUSH1 0x0 DUP2 SWAP1 POP SWAP2 SWAP1 POP JUMP JUMPDEST PUSH2 0x10CD DUP2 PUSH2 0x10BA JUMP JUMPDEST DUP3 MSTORE POP POP JUMP JUMPDEST PUSH1 0x0 PUSH2 0x10DF DUP4 DUP4 PUSH2 0x10C4 JUMP JUMPDEST PUSH1 0x20 DUP4 ADD SWAP1 POP SWAP3 SWAP2 POP POP JUMP JUMPDEST PUSH1 0x0 PUSH1 0x20 DUP3 ADD SWAP1 POP SWAP2 SWAP1 POP JUMP JUMPDEST PUSH1 0x0 PUSH2 0x1103 DUP3 PUSH2 0x108E JUMP JUMPDEST PUSH2 0x110D DUP2 DUP6 PUSH2 0x1099 JUMP JUMPDEST SWAP4 POP PUSH2 0x1118 DUP4 PUSH2 0x10AA JUMP JUMPDEST DUP1 PUSH1 0x0 JUMPDEST DUP4 DUP2 LT ISZERO PUSH2 0x1149 JUMPI DUP2 MLOAD PUSH2 0x1130 DUP9 DUP3 PUSH2 0x10D3 JUMP JUMPDEST SWAP8 POP PUSH2 0x113B DUP4 PUSH2 0x10EB JUMP JUMPDEST SWAP3 POP POP PUSH1 0x1 DUP2 ADD SWAP1 POP PUSH2 0x111C JUMP JUMPDEST POP DUP6 SWAP4 POP POP POP POP SWAP3 SWAP2 POP POP JUMP JUMPDEST PUSH1 0x0 PUSH1 0x20 DUP3 ADD SWAP1 POP DUP2 DUP2 SUB PUSH1 0x0 DUP4 ADD MSTORE PUSH2 0x1170 DUP2 DUP5 PUSH2 0x10F8 JUMP JUMPDEST SWAP1 POP SWAP3 SWAP2 POP POP JUMP JUMPDEST PUSH1 0x0 DUP1 REVERT JUMPDEST PUSH2 0x1186 DUP2 PUSH2 0x10BA JUMP JUMPDEST DUP2 EQ PUSH2 0x1191 JUMPI PUSH1 0x0 DUP1 REVERT JUMPDEST POP JUMP JUMPDEST PUSH1 0x0 DUP2 CALLDATALOAD SWAP1 POP PUSH2 0x11A3 DUP2 PUSH2 0x117D JUMP JUMPDEST SWAP3 SWAP2 POP POP JUMP JUMPDEST PUSH1 0x0 PUSH1 0x20 DUP3 DUP5 SUB SLT ISZERO PUSH2 0x11BF JUMPI PUSH2 0x11BE PUSH2 0x1178 JUMP JUMPDEST JUMPDEST PUSH1 0x0 PUSH2 0x11CD DUP5 DUP3 DUP6 ADD PUSH2 0x1194 JUMP JUMPDEST SWAP2 POP POP SWAP3 SWAP2 POP POP JUMP JUMPDEST PUSH2 0x11DF DUP2 PUSH2 0x10BA JUMP JUMPDEST DUP3 MSTORE POP POP JUMP JUMPDEST PUSH1 0x0 PUSH1 0x20 DUP3 ADD SWAP1 POP PUSH2 0x11FA PUSH1 0x0 DUP4 ADD DUP5 PUSH2 0x11D6 JUMP JUMPDEST SWAP3 SWAP2 POP POP JUMP JUMPDEST PUSH1 0x0 DUP2 MLOAD SWAP1 POP SWAP2 SWAP1 POP JUMP JUMPDEST PUSH1 0x0 DUP3 DUP3 MSTORE PUSH1 0x20 DUP3 ADD SWAP1 POP SWAP3 SWAP2 POP POP JUMP JUMPDEST PUSH1 0x0 DUP2 SWAP1 POP PUSH1 0x20 DUP3 ADD SWAP1 POP SWAP2 SWAP1 POP JUMP JUMPDEST PUSH1 0x0 PUSH20 0xFFFFFFFFFFFFFFFFFFFFFFFFFFFFFFFFFFFFFFFF DUP3 AND SWAP1 POP SWAP2 SWAP1 POP JUMP JUMPDEST PUSH1 0x0 PUSH2 0x1257 DUP3 PUSH2 0x122C JUMP JUMPDEST SWAP1 POP SWAP2 SWAP1 POP JUMP JUMPDEST PUSH2 0x1267 DUP2 PUSH2 0x124C JUMP JUMPDEST DUP3 MSTORE POP POP JUMP JUMPDEST PUSH32 0x4E487B7100000000000000000000000000000000000000000000000000000000 PUSH1 0x0 MSTORE PUSH1 0x21 PUSH1 0x4 MSTORE PUSH1 0x24 PUSH1 0x0 REVERT JUMPDEST PUSH1 0x2 DUP2 LT PUSH2 0x12AD JUMPI PUSH2 0x12AC PUSH2 0x126D JUMP JUMPDEST JUMPDEST POP JUMP JUMPDEST PUSH1 0x0 DUP2 SWAP1 POP PUSH2 0x12BE DUP3 PUSH2 0x129C JUMP JUMPDEST SWAP2 SWAP1 POP JUMP JUMPDEST PUSH1 0x0 PUSH2 0x12CE DUP3 PUSH2 0x12B0 JUMP JUMPDEST SWAP1 POP SWAP2 SWAP1 POP JUMP JUMPDEST PUSH2 0x12DE DUP2 PUSH2 0x12C3 JUMP JUMPDEST DUP3 MSTORE POP POP JUMP JUMPDEST PUSH1 0xE0 DUP3 ADD PUSH1 0x0 DUP3 ADD MLOAD PUSH2 0x12FA PUSH1 0x0 DUP6 ADD DUP3 PUSH2 0x125E JUMP JUMPDEST POP PUSH1 0x20 DUP3 ADD MLOAD PUSH2 0x130D PUSH1 0x20 DUP6 ADD DUP3 PUSH2 0x10C4 JUMP JUMPDEST POP PUSH1 0x40 DUP3 ADD MLOAD PUSH2 0x1320 PUSH1 0x40 DUP6 ADD DUP3 PUSH2 0x10C4 JUMP JUMPDEST POP PUSH1 0x60 DUP3 ADD MLOAD PUSH2 0x1333 PUSH1 0x60 DUP6 ADD DUP3 PUSH2 0x12D5 JUMP JUMPDEST POP PUSH1 0x80 DUP3 ADD MLOAD PUSH2 0x1346 PUSH1 0x80 DUP6 ADD DUP3 PUSH2 0x10C4 JUMP JUMPDEST POP PUSH1 0xA0 DUP3 ADD MLOAD PUSH2 0x1359 PUSH1 0xA0 DUP6 ADD DUP3 PUSH2 0x10C4 JUMP JUMPDEST POP PUSH1 0xC0 DUP3 ADD MLOAD PUSH2 0x136C PUSH1 0xC0 DUP6 ADD DUP3 PUSH2 0x10C4 JUMP JUMPDEST POP POP POP POP JUMP JUMPDEST PUSH1 0x0 PUSH2 0x137E DUP4 DUP4 PUSH2 0x12E4 JUMP JUMPDEST PUSH1 0xE0 DUP4 ADD SWAP1 POP SWAP3 SWAP2 POP POP JUMP JUMPDEST PUSH1 0x0 PUSH1 0x20 DUP3 ADD SWAP1 POP SWAP2 SWAP1 POP JUMP JUMPDEST PUSH1 0x0 PUSH2 0x13A2 DUP3 PUSH2 0x1200 JUMP JUMPDEST PUSH2 0x13AC DUP2 DUP6 PUSH2 0x120B JUMP JUMPDEST SWAP4 POP PUSH2 0x13B7 DUP4 PUSH2 0x121C JUMP JUMPDEST DUP1 PUSH1 0x0 JUMPDEST DUP4 DUP2 LT ISZERO PUSH2 0x13E8 JUMPI DUP2 MLOAD PUSH2 0x13CF DUP9 DUP3 PUSH2 0x1372 JUMP JUMPDEST SWAP8 POP PUSH2 0x13DA DUP4 PUSH2 0x138A JUMP JUMPDEST SWAP3 POP POP PUSH1 0x1 DUP2 ADD SWAP1 POP PUSH2 0x13BB JUMP JUMPDEST POP DUP6 SWAP4 POP POP POP POP SWAP3 SWAP2 POP POP JUMP JUMPDEST PUSH1 0x0 PUSH1 0x20 DUP3 ADD SWAP1 POP DUP2 DUP2 SUB PUSH1 0x0 DUP4 ADD MSTORE PUSH2 0x140F DUP2 DUP5 PUSH2 0x1397 JUMP JUMPDEST SWAP1 POP SWAP3 SWAP2 POP POP JUMP JUMPDEST PUSH1 0x0 DUP2 MLOAD SWAP1 POP SWAP2 SWAP1 POP JUMP JUMPDEST PUSH1 0x0 DUP3 DUP3 MSTORE PUSH1 0x20 DUP3 ADD SWAP1 POP SWAP3 SWAP2 POP POP JUMP JUMPDEST PUSH1 0x0 JUMPDEST DUP4 DUP2 LT ISZERO PUSH2 0x1451 JUMPI DUP1 DUP3 ADD MLOAD DUP2 DUP5 ADD MSTORE PUSH1 0x20 DUP2 ADD SWAP1 POP PUSH2 0x1436 JUMP JUMPDEST DUP4 DUP2 GT ISZERO PUSH2 0x1460 JUMPI PUSH1 0x0 DUP5 DUP5 ADD MSTORE JUMPDEST POP POP POP POP JUMP JUMPDEST PUSH1 0x0 PUSH1 0x1F NOT PUSH1 0x1F DUP4 ADD AND SWAP1 POP SWAP2 SWAP1 POP JUMP JUMPDEST PUSH1 0x0 PUSH2 0x1482 DUP3 PUSH2 0x1417 JUMP JUMPDEST PUSH2 0x148C DUP2 DUP6 PUSH2 0x1422 JUMP JUMPDEST SWAP4 POP PUSH2 0x149C DUP2 DUP6 PUSH1 0x20 DUP7 ADD PUSH2 0x1433 JUMP JUMPDEST PUSH2 0x14A5 DUP2 PUSH2 0x1466 JUMP JUMPDEST DUP5 ADD SWAP2 POP POP SWAP3 SWAP2 POP POP JUMP JUMPDEST PUSH1 0x0 PUSH1 0x20 DUP3 ADD SWAP1 POP DUP2 DUP2 SUB PUSH1 0x0 DUP4 ADD MSTORE PUSH2 0x14CA DUP2 DUP5 PUSH2 0x1477 JUMP JUMPDEST SWAP1 POP SWAP3 SWAP2 POP POP JUMP JUMPDEST PUSH2 0x14DB DUP2 PUSH2 0x12C3 JUMP JUMPDEST DUP3 MSTORE POP POP JUMP JUMPDEST PUSH1 0x0 PUSH1 0x20 DUP3 ADD SWAP1 POP PUSH2 0x14F6 PUSH1 0x0 DUP4 ADD DUP5 PUSH2 0x14D2 JUMP JUMPDEST SWAP3 SWAP2 POP POP JUMP JUMPDEST PUSH2 0x1505 DUP2 PUSH2 0x124C JUMP JUMPDEST DUP3 MSTORE POP POP JUMP JUMPDEST PUSH1 0x0 PUSH1 0x20 DUP3 ADD SWAP1 POP PUSH2 0x1520 PUSH1 0x0 DUP4 ADD DUP5 PUSH2 0x14FC JUMP JUMPDEST SWAP3 SWAP2 POP POP JUMP JUMPDEST PUSH1 0x0 DUP2 ISZERO ISZERO SWAP1 POP SWAP2 SWAP1 POP JUMP JUMPDEST PUSH2 0x153B DUP2 PUSH2 0x1526 JUMP JUMPDEST DUP3 MSTORE POP POP JUMP JUMPDEST PUSH1 0x0 PUSH2 0x100 DUP3 ADD SWAP1 POP PUSH2 0x1557 PUSH1 0x0 DUP4 ADD DUP12 PUSH2 0x14FC JUMP JUMPDEST PUSH2 0x1564 PUSH1 0x20 DUP4 ADD DUP11 PUSH2 0x11D6 JUMP JUMPDEST PUSH2 0x1571 PUSH1 0x40 DUP4 ADD DUP10 PUSH2 0x11D6 JUMP JUMPDEST PUSH2 0x157E PUSH1 0x60 DUP4 ADD DUP9 PUSH2 0x14D2 JUMP JUMPDEST PUSH2 0x158B PUSH1 0x80 DUP4 ADD DUP8 PUSH2 0x11D6 JUMP JUMPDEST PUSH2 0x1598 PUSH1 0xA0 DUP4 ADD DUP7 PUSH2 0x11D6 JUMP JUMPDEST PUSH2 0x15A5 PUSH1 0xC0 DUP4 ADD DUP6 PUSH2 0x11D6 JUMP JUMPDEST PUSH2 0x15B2 PUSH1 0xE0 DUP4 ADD DUP5 PUSH2 0x1532 JUMP JUMPDEST SWAP10 SWAP9 POP POP POP POP POP POP POP POP POP JUMP JUMPDEST PUSH32 0x4F726465722050656E64696E6700000000000000000000000000000000000000 PUSH1 0x0 DUP3 ADD MSTORE POP JUMP JUMPDEST PUSH1 0x0 PUSH2 0x15F5 PUSH1 0xD DUP4 PUSH2 0x1422 JUMP JUMPDEST SWAP2 POP PUSH2 0x1600 DUP3 PUSH2 0x15BF JUMP JUMPDEST PUSH1 0x20 DUP3 ADD SWAP1 POP SWAP2 SWAP1 POP JUMP JUMPDEST PUSH1 0x0 PUSH1 0x20 DUP3 ADD SWAP1 POP DUP2 DUP2 SUB PUSH1 0x0 DUP4 ADD MSTORE PUSH2 0x1624 DUP2 PUSH2 0x15E8 JUMP JUMPDEST SWAP1 POP SWAP2 SWAP1 POP JUMP JUMPDEST PUSH32 0x4E6F7420417574686F7269736564000000000000000000000000000000000000 PUSH1 0x0 DUP3 ADD MSTORE POP JUMP JUMPDEST PUSH1 0x0 PUSH2 0x1661 PUSH1 0xE DUP4 PUSH2 0x1422 JUMP JUMPDEST SWAP2 POP PUSH2 0x166C DUP3 PUSH2 0x162B JUMP JUMPDEST PUSH1 0x20 DUP3 ADD SWAP1 POP SWAP2 SWAP1 POP JUMP JUMPDEST PUSH1 0x0 PUSH1 0x20 DUP3 ADD SWAP1 POP DUP2 DUP2 SUB PUSH1 0x0 DUP4 ADD MSTORE PUSH2 0x1690 DUP2 PUSH2 0x1654 JUMP JUMPDEST SWAP1 POP SWAP2 SWAP1 POP JUMP JUMPDEST PUSH32 0x70726963652076616C7565206D757374206265206D6F7265207468616E203000 PUSH1 0x0 DUP3 ADD MSTORE POP JUMP JUMPDEST PUSH1 0x0 PUSH2 0x16CD PUSH1 0x1F DUP4 PUSH2 0x1422 JUMP JUMPDEST SWAP2 POP PUSH2 0x16D8 DUP3 PUSH2 0x1697 JUMP JUMPDEST PUSH1 0x20 DUP3 ADD SWAP1 POP SWAP2 SWAP1 POP JUMP JUMPDEST PUSH1 0x0 PUSH1 0x20 DUP3 ADD SWAP1 POP DUP2 DUP2 SUB PUSH1 0x0 DUP4 ADD MSTORE PUSH2 0x16FC DUP2 PUSH2 0x16C0 JUMP JUMPDEST SWAP1 POP SWAP2 SWAP1 POP JUMP JUMPDEST PUSH32 0x4E6F7420656E6F75676820626C616E636520746F20706C6163652061736B0000 PUSH1 0x0 DUP3 ADD MSTORE POP JUMP JUMPDEST PUSH1 0x0 PUSH2 0x1739 PUSH1 0x1E DUP4 PUSH2 0x1422 JUMP JUMPDEST SWAP2 POP PUSH2 0x1744 DUP3 PUSH2 0x1703 JUMP JUMPDEST PUSH1 0x20 DUP3 ADD SWAP1 POP SWAP2 SWAP1 POP JUMP JUMPDEST PUSH1 0x0 PUSH1 0x20 DUP3 ADD SWAP1 POP DUP2 DUP2 SUB PUSH1 0x0 DUP4 ADD MSTORE PUSH2 0x1768 DUP2 PUSH2 0x172C JUMP JUMPDEST SWAP1 POP SWAP2 SWAP1 POP JUMP JUMPDEST PUSH32 0x4E487B7100000000000000000000000000000000000000000000000000000000 PUSH1 0x0 MSTORE PUSH1 0x11 PUSH1 0x4 MSTORE PUSH1 0x24 PUSH1 0x0 REVERT JUMPDEST PUSH1 0x0 PUSH2 0x17A9 DUP3 PUSH2 0x10BA JUMP JUMPDEST SWAP2 POP PUSH2 0x17B4 DUP4 PUSH2 0x10BA JUMP JUMPDEST SWAP3 POP DUP3 DUP3 LT ISZERO PUSH2 0x17C7 JUMPI PUSH2 0x17C6 PUSH2 0x176F JUMP JUMPDEST JUMPDEST DUP3 DUP3 SUB SWAP1 POP SWAP3 SWAP2 POP POP JUMP JUMPDEST PUSH1 0x0 PUSH2 0x17DD DUP3 PUSH2 0x10BA JUMP JUMPDEST SWAP2 POP PUSH2 0x17E8 DUP4 PUSH2 0x10BA JUMP JUMPDEST SWAP3 POP DUP2 PUSH32 0xFFFFFFFFFFFFFFFFFFFFFFFFFFFFFFFFFFFFFFFFFFFFFFFFFFFFFFFFFFFFFFFF DIV DUP4 GT DUP3 ISZERO ISZERO AND ISZERO PUSH2 0x1821 JUMPI PUSH2 0x1820 PUSH2 0x176F JUMP JUMPDEST JUMPDEST DUP3 DUP3 MUL SWAP1 POP SWAP3 SWAP2 POP POP JUMP JUMPDEST PUSH32 0x4E487B7100000000000000000000000000000000000000000000000000000000 PUSH1 0x0 MSTORE PUSH1 0x12 PUSH1 0x4 MSTORE PUSH1 0x24 PUSH1 0x0 REVERT JUMPDEST PUSH1 0x0 PUSH2 0x1866 DUP3 PUSH2 0x10BA JUMP JUMPDEST SWAP2 POP PUSH2 0x1871 DUP4 PUSH2 0x10BA JUMP JUMPDEST SWAP3 POP DUP3 PUSH2 0x1881 JUMPI PUSH2 0x1880 PUSH2 0x182C JUMP JUMPDEST JUMPDEST DUP3 DUP3 DIV SWAP1 POP SWAP3 SWAP2 POP POP JUMP JUMPDEST PUSH32 0x4E6F7420656E6F75676820626C616E636520746F20706C616365206269640000 PUSH1 0x0 DUP3 ADD MSTORE POP JUMP JUMPDEST PUSH1 0x0 PUSH2 0x18C2 PUSH1 0x1E DUP4 PUSH2 0x1422 JUMP JUMPDEST SWAP2 POP PUSH2 0x18CD DUP3 PUSH2 0x188C JUMP JUMPDEST PUSH1 0x20 DUP3 ADD SWAP1 POP SWAP2 SWAP1 POP JUMP JUMPDEST PUSH1 0x0 PUSH1 0x20 DUP3 ADD SWAP1 POP DUP2 DUP2 SUB PUSH1 0x0 DUP4 ADD MSTORE PUSH2 0x18F1 DUP2 PUSH2 0x18B5 JUMP JUMPDEST SWAP1 POP SWAP2 SWAP1 POP JUMP JUMPDEST PUSH1 0x0 PUSH2 0x1903 DUP3 PUSH2 0x10BA JUMP JUMPDEST SWAP2 POP PUSH32 0xFFFFFFFFFFFFFFFFFFFFFFFFFFFFFFFFFFFFFFFFFFFFFFFFFFFFFFFFFFFFFFFF DUP3 SUB PUSH2 0x1935 JUMPI PUSH2 0x1934 PUSH2 0x176F JUMP JUMPDEST JUMPDEST PUSH1 0x1 DUP3 ADD SWAP1 POP SWAP2 SWAP1 POP JUMP JUMPDEST PUSH1 0x0 PUSH2 0x194B DUP3 PUSH2 0x122C JUMP JUMPDEST SWAP1 POP SWAP2 SWAP1 POP JUMP JUMPDEST PUSH2 0x195B DUP2 PUSH2 0x1940 JUMP JUMPDEST DUP3 MSTORE POP POP JUMP JUMPDEST PUSH1 0x0 DUP2 SWAP1 POP SWAP2 SWAP1 POP JUMP JUMPDEST PUSH1 0x0 DUP2 SWAP1 POP SWAP2 SWAP1 POP JUMP JUMPDEST PUSH1 0x0 PUSH2 0x1990 PUSH2 0x198B PUSH2 0x1986 DUP5 PUSH2 0x1961 JUMP JUMPDEST PUSH2 0x196B JUMP JUMPDEST PUSH2 0x10BA JUMP JUMPDEST SWAP1 POP SWAP2 SWAP1 POP JUMP JUMPDEST PUSH2 0x19A0 DUP2 PUSH2 0x1975 JUMP JUMPDEST DUP3 MSTORE POP POP JUMP JUMPDEST PUSH1 0x0 PUSH2 0x100 DUP3 ADD SWAP1 POP PUSH2 0x19BC PUSH1 0x0 DUP4 ADD DUP12 PUSH2 0x1952 JUMP JUMPDEST PUSH2 0x19C9 PUSH1 0x20 DUP4 ADD DUP11 PUSH2 0x11D6 JUMP JUMPDEST PUSH2 0x19D6 PUSH1 0x40 DUP4 ADD DUP10 PUSH2 0x11D6 JUMP JUMPDEST PUSH2 0x19E3 PUSH1 0x60 DUP4 ADD DUP9 PUSH2 0x14D2 JUMP JUMPDEST PUSH2 0x19F0 PUSH1 0x80 DUP4 ADD DUP8 PUSH2 0x11D6 JUMP JUMPDEST PUSH2 0x19FD PUSH1 0xA0 DUP4 ADD DUP7 PUSH2 0x1997 JUMP JUMPDEST PUSH2 0x1A0A PUSH1 0xC0 DUP4 ADD DUP6 PUSH2 0x1997 JUMP JUMPDEST PUSH2 0x1A17 PUSH1 0xE0 DUP4 ADD DUP5 PUSH2 0x1532 JUMP JUMPDEST SWAP10 SWAP9 POP POP POP POP POP POP POP POP POP JUMP INVALID LOG2 PUSH5 0x6970667358 0x22 SLT KECCAK256 SWAP9 0x2C BASEFEE 0xE7 0xEB 0xFB BASEFEE 0xA7 0xDE 0xE1 0x1E 0x2C 0x2C 0xDD PC 0xC2 0x26 0xBD 0xD5 JUMP 0xE4 0xE8 0xD6 0xDC 0xBE SSTORE PUSH25 0xE902F47C9F64736F6C634300080D0033000000000000000000 "
				},
				"gasEstimates": {
					"creation": {
						"codeDepositCost": "1349200",
						"executionCost": "infinite",
						"totalCost": "infinite"
					},
					"external": {
						"askCount()": "2540",
						"askHead()": "2474",
						"bidCount()": "2451",
						"bidHead()": "2518",
						"cancelAsk(uint256)": "31089",
						"cancelBid(uint256)": "31110",
						"fetchAllBid()": "infinite",
						"fetchAsk()": "infinite",
						"fetchYourAskIds()": "infinite",
						"fetchYourBidIds()": "infinite",
						"getAskAddress(uint256)": "2982",
						"getAskState(uint256)": "2962",
						"getAskValue(uint256)": "infinite",
						"getBidAddress(uint256)": "2938",
						"getBidState(uint256)": "2961",
						"getBidValue(uint256)": "infinite",
						"getOrder(uint256)": "infinite",
						"placeAsk(uint256)": "infinite",
						"placeBid(uint256)": "809"
					},
					"internal": {
						"askBid(uint256,uint256)": "infinite",
						"createAsk(address,uint256,uint256)": "infinite",
						"createBid(address,uint256,uint256)": "infinite",
						"insertionSortAsk()": "infinite",
						"linkBid(uint256,uint256)": "infinite",
						"setAskHead(uint256)": "infinite",
						"setBidHead(uint256)": "infinite",
						"sortAsk(struct OrderBook.order memory)": "infinite"
					}
				},
				"methodIdentifiers": {
					"askCount()": "a394fda7",
					"askHead()": "801d9bbd",
					"bidCount()": "b40a5627",
					"bidHead()": "6e5b0f00",
					"cancelAsk(uint256)": "1628e0f5",
					"cancelBid(uint256)": "9703ef35",
					"fetchAllBid()": "4471417f",
					"fetchAsk()": "44e791e0",
					"fetchYourAskIds()": "122de8f2",
					"fetchYourBidIds()": "ce0cdc87",
					"getAskAddress(uint256)": "734a2e78",
					"getAskState(uint256)": "4d46712d",
					"getAskValue(uint256)": "db3a1396",
					"getBidAddress(uint256)": "69f632e2",
					"getBidState(uint256)": "bf77ffae",
					"getBidValue(uint256)": "2db6dfa7",
					"getOrder(uint256)": "d09ef241",
					"placeAsk(uint256)": "78c5b268",
					"placeBid(uint256)": "9979ef45"
				}
			},
			"storageLayout": {
				"storage": [
					{
						"astId": 212,
						"contract": "contracts/OrderBook.sol:OrderBook",
						"label": "bidValues",
						"offset": 0,
						"slot": "0",
						"type": "t_mapping(t_uint256,t_uint256)"
					},
					{
						"astId": 219,
						"contract": "contracts/OrderBook.sol:OrderBook",
						"label": "_owner",
						"offset": 0,
						"slot": "1",
						"type": "t_address_payable"
					},
					{
						"astId": 221,
						"contract": "contracts/OrderBook.sol:OrderBook",
						"label": "commission",
						"offset": 0,
						"slot": "2",
						"type": "t_uint256"
					},
					{
						"astId": 242,
						"contract": "contracts/OrderBook.sol:OrderBook",
						"label": "bidBook",
						"offset": 0,
						"slot": "3",
						"type": "t_mapping(t_uint256,t_struct(order)237_storage)"
					},
					{
						"astId": 244,
						"contract": "contracts/OrderBook.sol:OrderBook",
						"label": "bidHead",
						"offset": 0,
						"slot": "4",
						"type": "t_uint256"
					},
					{
						"astId": 246,
						"contract": "contracts/OrderBook.sol:OrderBook",
						"label": "bidCount",
						"offset": 0,
						"slot": "5",
						"type": "t_uint256"
					},
					{
						"astId": 251,
						"contract": "contracts/OrderBook.sol:OrderBook",
						"label": "askBook",
						"offset": 0,
						"slot": "6",
						"type": "t_mapping(t_uint256,t_struct(order)237_storage)"
					},
					{
						"astId": 253,
						"contract": "contracts/OrderBook.sol:OrderBook",
						"label": "askHead",
						"offset": 0,
						"slot": "7",
						"type": "t_uint256"
					},
					{
						"astId": 255,
						"contract": "contracts/OrderBook.sol:OrderBook",
						"label": "askCount",
						"offset": 0,
						"slot": "8",
						"type": "t_uint256"
					}
				],
				"types": {
					"t_address_payable": {
						"encoding": "inplace",
						"label": "address payable",
						"numberOfBytes": "20"
					},
					"t_enum(State)208": {
						"encoding": "inplace",
						"label": "enum OrderBook.State",
						"numberOfBytes": "1"
					},
					"t_mapping(t_uint256,t_struct(order)237_storage)": {
						"encoding": "mapping",
						"key": "t_uint256",
						"label": "mapping(uint256 => struct OrderBook.order)",
						"numberOfBytes": "32",
						"value": "t_struct(order)237_storage"
					},
					"t_mapping(t_uint256,t_uint256)": {
						"encoding": "mapping",
						"key": "t_uint256",
						"label": "mapping(uint256 => uint256)",
						"numberOfBytes": "32",
						"value": "t_uint256"
					},
					"t_struct(order)237_storage": {
						"encoding": "inplace",
						"label": "struct OrderBook.order",
						"members": [
							{
								"astId": 223,
								"contract": "contracts/OrderBook.sol:OrderBook",
								"label": "customer",
								"offset": 0,
								"slot": "0",
								"type": "t_address_payable"
							},
							{
								"astId": 225,
								"contract": "contracts/OrderBook.sol:OrderBook",
								"label": "value",
								"offset": 0,
								"slot": "1",
								"type": "t_uint256"
							},
							{
								"astId": 227,
								"contract": "contracts/OrderBook.sol:OrderBook",
								"label": "timestamp",
								"offset": 0,
								"slot": "2",
								"type": "t_uint256"
							},
							{
								"astId": 230,
								"contract": "contracts/OrderBook.sol:OrderBook",
								"label": "state",
								"offset": 0,
								"slot": "3",
								"type": "t_enum(State)208"
							},
							{
								"astId": 232,
								"contract": "contracts/OrderBook.sol:OrderBook",
								"label": "id",
								"offset": 0,
								"slot": "4",
								"type": "t_uint256"
							},
							{
								"astId": 234,
								"contract": "contracts/OrderBook.sol:OrderBook",
								"label": "next",
								"offset": 0,
								"slot": "5",
								"type": "t_uint256"
							},
							{
								"astId": 236,
								"contract": "contracts/OrderBook.sol:OrderBook",
								"label": "prev",
								"offset": 0,
								"slot": "6",
								"type": "t_uint256"
							}
						],
						"numberOfBytes": "224"
					},
					"t_uint256": {
						"encoding": "inplace",
						"label": "uint256",
						"numberOfBytes": "32"
					}
				}
			},
			"userdoc": {
				"kind": "user",
				"methods": {},
				"version": 1
			}
		}
	}
}