{
	"contracts/OrderBook.sol": {
		"OrderBook": {
			"abi": [
				{
					"inputs": [
						{
							"internalType": "uint256",
							"name": "_commission",
							"type": "uint256"
						}
					],
					"stateMutability": "nonpayable",
					"type": "constructor"
				},
				{
					"anonymous": false,
					"inputs": [
						{
							"indexed": false,
							"internalType": "uint256",
							"name": "",
							"type": "uint256"
						}
					],
					"name": "askCancelled",
					"type": "event"
				},
				{
					"anonymous": false,
					"inputs": [
						{
							"indexed": false,
							"internalType": "address",
							"name": "",
							"type": "address"
						},
						{
							"indexed": false,
							"internalType": "uint256",
							"name": "",
							"type": "uint256"
						},
						{
							"indexed": false,
							"internalType": "uint256",
							"name": "",
							"type": "uint256"
						},
						{
							"indexed": false,
							"internalType": "enum OrderBook.State",
							"name": "",
							"type": "uint8"
						}
					],
					"name": "askPlaced",
					"type": "event"
				},
				{
					"anonymous": false,
					"inputs": [
						{
							"indexed": false,
							"internalType": "uint256",
							"name": "",
							"type": "uint256"
						}
					],
					"name": "bidCancelled",
					"type": "event"
				},
				{
					"anonymous": false,
					"inputs": [
						{
							"indexed": false,
							"internalType": "address",
							"name": "",
							"type": "address"
						},
						{
							"indexed": false,
							"internalType": "uint256",
							"name": "",
							"type": "uint256"
						},
						{
							"indexed": false,
							"internalType": "uint256",
							"name": "",
							"type": "uint256"
						},
						{
							"indexed": false,
							"internalType": "enum OrderBook.State",
							"name": "",
							"type": "uint8"
						}
					],
					"name": "bidPlaced",
					"type": "event"
				},
				{
					"inputs": [
						{
							"internalType": "uint256",
							"name": "askId",
							"type": "uint256"
						}
					],
					"name": "cancelAsk",
					"outputs": [],
					"stateMutability": "nonpayable",
					"type": "function"
				},
				{
					"inputs": [
						{
							"internalType": "uint256",
							"name": "bidId",
							"type": "uint256"
						}
					],
					"name": "cancelBid",
					"outputs": [],
					"stateMutability": "nonpayable",
					"type": "function"
				},
				{
					"inputs": [],
					"name": "fetchAllAsk",
					"outputs": [
						{
							"components": [
								{
									"internalType": "address payable",
									"name": "customer",
									"type": "address"
								},
								{
									"internalType": "uint256",
									"name": "value",
									"type": "uint256"
								},
								{
									"internalType": "uint256",
									"name": "timestamp",
									"type": "uint256"
								},
								{
									"internalType": "enum OrderBook.State",
									"name": "state",
									"type": "uint8"
								}
							],
							"internalType": "struct OrderBook.order[]",
							"name": "",
							"type": "tuple[]"
						}
					],
					"stateMutability": "nonpayable",
					"type": "function"
				},
				{
					"inputs": [],
					"name": "fetchAllBid",
					"outputs": [
						{
							"components": [
								{
									"internalType": "address payable",
									"name": "customer",
									"type": "address"
								},
								{
									"internalType": "uint256",
									"name": "value",
									"type": "uint256"
								},
								{
									"internalType": "uint256",
									"name": "timestamp",
									"type": "uint256"
								},
								{
									"internalType": "enum OrderBook.State",
									"name": "state",
									"type": "uint8"
								}
							],
							"internalType": "struct OrderBook.order[]",
							"name": "",
							"type": "tuple[]"
						}
					],
					"stateMutability": "nonpayable",
					"type": "function"
				},
				{
					"inputs": [],
					"name": "fetchYourAskIds",
					"outputs": [
						{
							"internalType": "uint256[]",
							"name": "",
							"type": "uint256[]"
						}
					],
					"stateMutability": "nonpayable",
					"type": "function"
				},
				{
					"inputs": [],
					"name": "fetchYourBidIds",
					"outputs": [
						{
							"internalType": "uint256[]",
							"name": "",
							"type": "uint256[]"
						}
					],
					"stateMutability": "nonpayable",
					"type": "function"
				},
				{
					"inputs": [
						{
							"internalType": "uint256",
							"name": "id",
							"type": "uint256"
						}
					],
					"name": "getAskAddress",
					"outputs": [
						{
							"internalType": "address payable",
							"name": "",
							"type": "address"
						}
					],
					"stateMutability": "view",
					"type": "function"
				},
				{
					"inputs": [
						{
							"internalType": "uint256",
							"name": "id",
							"type": "uint256"
						}
					],
					"name": "getAskState",
					"outputs": [
						{
							"internalType": "enum OrderBook.State",
							"name": "",
							"type": "uint8"
						}
					],
					"stateMutability": "view",
					"type": "function"
				},
				{
					"inputs": [
						{
							"internalType": "uint256",
							"name": "id",
							"type": "uint256"
						}
					],
					"name": "getAskValue",
					"outputs": [
						{
							"internalType": "uint256",
							"name": "",
							"type": "uint256"
						}
					],
					"stateMutability": "view",
					"type": "function"
				},
				{
					"inputs": [
						{
							"internalType": "uint256",
							"name": "id",
							"type": "uint256"
						}
					],
					"name": "getBidAddress",
					"outputs": [
						{
							"internalType": "address payable",
							"name": "",
							"type": "address"
						}
					],
					"stateMutability": "view",
					"type": "function"
				},
				{
					"inputs": [
						{
							"internalType": "uint256",
							"name": "id",
							"type": "uint256"
						}
					],
					"name": "getBidState",
					"outputs": [
						{
							"internalType": "enum OrderBook.State",
							"name": "",
							"type": "uint8"
						}
					],
					"stateMutability": "view",
					"type": "function"
				},
				{
					"inputs": [
						{
							"internalType": "uint256",
							"name": "id",
							"type": "uint256"
						}
					],
					"name": "getBidValue",
					"outputs": [
						{
							"internalType": "uint256",
							"name": "",
							"type": "uint256"
						}
					],
					"stateMutability": "view",
					"type": "function"
				},
				{
					"inputs": [
						{
							"internalType": "uint256",
							"name": "price",
							"type": "uint256"
						}
					],
					"name": "placeAsk",
					"outputs": [],
					"stateMutability": "payable",
					"type": "function"
				},
				{
					"inputs": [
						{
							"internalType": "uint256",
							"name": "price",
							"type": "uint256"
						}
					],
					"name": "placeBid",
					"outputs": [],
					"stateMutability": "payable",
					"type": "function"
				},
				{
					"inputs": [
						{
							"components": [
								{
									"internalType": "address payable",
									"name": "customer",
									"type": "address"
								},
								{
									"internalType": "uint256",
									"name": "value",
									"type": "uint256"
								},
								{
									"internalType": "uint256",
									"name": "timestamp",
									"type": "uint256"
								},
								{
									"internalType": "enum OrderBook.State",
									"name": "state",
									"type": "uint8"
								}
							],
							"internalType": "struct OrderBook.order[]",
							"name": "data",
							"type": "tuple[]"
						}
					],
					"name": "sortAsk",
					"outputs": [
						{
							"components": [
								{
									"internalType": "address payable",
									"name": "customer",
									"type": "address"
								},
								{
									"internalType": "uint256",
									"name": "value",
									"type": "uint256"
								},
								{
									"internalType": "uint256",
									"name": "timestamp",
									"type": "uint256"
								},
								{
									"internalType": "enum OrderBook.State",
									"name": "state",
									"type": "uint8"
								}
							],
							"internalType": "struct OrderBook.order[]",
							"name": "",
							"type": "tuple[]"
						}
					],
					"stateMutability": "nonpayable",
					"type": "function"
				},
				{
					"inputs": [
						{
							"components": [
								{
									"internalType": "address payable",
									"name": "customer",
									"type": "address"
								},
								{
									"internalType": "uint256",
									"name": "value",
									"type": "uint256"
								},
								{
									"internalType": "uint256",
									"name": "timestamp",
									"type": "uint256"
								},
								{
									"internalType": "enum OrderBook.State",
									"name": "state",
									"type": "uint8"
								}
							],
							"internalType": "struct OrderBook.order[]",
							"name": "data",
							"type": "tuple[]"
						}
					],
					"name": "sortBid",
					"outputs": [
						{
							"components": [
								{
									"internalType": "address payable",
									"name": "customer",
									"type": "address"
								},
								{
									"internalType": "uint256",
									"name": "value",
									"type": "uint256"
								},
								{
									"internalType": "uint256",
									"name": "timestamp",
									"type": "uint256"
								},
								{
									"internalType": "enum OrderBook.State",
									"name": "state",
									"type": "uint8"
								}
							],
							"internalType": "struct OrderBook.order[]",
							"name": "",
							"type": "tuple[]"
						}
					],
					"stateMutability": "nonpayable",
					"type": "function"
				}
			],
			"devdoc": {
				"kind": "dev",
				"methods": {},
				"version": 1
			},
			"evm": {
				"assembly": "    /* \"contracts/OrderBook.sol\":1057:7110  contract OrderBook {... */\n  mstore(0x40, 0x80)\n    /* \"contracts/OrderBook.sol\":1211:1221  msg.sender */\n  caller\n    /* \"contracts/OrderBook.sol\":1178:1222  address payable _owner = payable(msg.sender) */\n  0x00\n  dup1\n  0x0100\n  exp\n  dup2\n  sload\n  dup2\n  0xffffffffffffffffffffffffffffffffffffffff\n  mul\n  not\n  and\n  swap1\n  dup4\n  0xffffffffffffffffffffffffffffffffffffffff\n  and\n  mul\n  or\n  swap1\n  sstore\n  pop\n    /* \"contracts/OrderBook.sol\":1299:1374  constructor (uint256 _commission) {... */\n  callvalue\n  dup1\n  iszero\n  tag_1\n  jumpi\n  0x00\n  dup1\n  revert\ntag_1:\n  pop\n  mload(0x40)\n  sub(codesize, bytecodeSize)\n  dup1\n  bytecodeSize\n  dup4\n  codecopy\n  dup2\n  dup2\n  add\n  0x40\n  mstore\n  dup2\n  add\n  swap1\n  tag_2\n  swap2\n  swap1\n  tag_3\n  jump\t// in\ntag_2:\n    /* \"contracts/OrderBook.sol\":1356:1367  _commission */\n  dup1\n    /* \"contracts/OrderBook.sol\":1343:1353  commission */\n  0x01\n    /* \"contracts/OrderBook.sol\":1343:1367  commission = _commission */\n  dup2\n  swap1\n  sstore\n  pop\n    /* \"contracts/OrderBook.sol\":1299:1374  constructor (uint256 _commission) {... */\n  pop\n    /* \"contracts/OrderBook.sol\":1057:7110  contract OrderBook {... */\n  jump(tag_6)\n    /* \"#utility.yul\":88:205   */\ntag_8:\n    /* \"#utility.yul\":197:198   */\n  0x00\n    /* \"#utility.yul\":194:195   */\n  dup1\n    /* \"#utility.yul\":187:199   */\n  revert\n    /* \"#utility.yul\":334:411   */\ntag_10:\n    /* \"#utility.yul\":371:378   */\n  0x00\n    /* \"#utility.yul\":400:405   */\n  dup2\n    /* \"#utility.yul\":389:405   */\n  swap1\n  pop\n    /* \"#utility.yul\":334:411   */\n  swap2\n  swap1\n  pop\n  jump\t// out\n    /* \"#utility.yul\":417:539   */\ntag_11:\n    /* \"#utility.yul\":490:514   */\n  tag_19\n    /* \"#utility.yul\":508:513   */\n  dup2\n    /* \"#utility.yul\":490:514   */\n  tag_10\n  jump\t// in\ntag_19:\n    /* \"#utility.yul\":483:488   */\n  dup2\n    /* \"#utility.yul\":480:515   */\n  eq\n    /* \"#utility.yul\":470:533   */\n  tag_20\n  jumpi\n    /* \"#utility.yul\":529:530   */\n  0x00\n    /* \"#utility.yul\":526:527   */\n  dup1\n    /* \"#utility.yul\":519:531   */\n  revert\n    /* \"#utility.yul\":470:533   */\ntag_20:\n    /* \"#utility.yul\":417:539   */\n  pop\n  jump\t// out\n    /* \"#utility.yul\":545:688   */\ntag_12:\n    /* \"#utility.yul\":602:607   */\n  0x00\n    /* \"#utility.yul\":633:639   */\n  dup2\n    /* \"#utility.yul\":627:640   */\n  mload\n    /* \"#utility.yul\":618:640   */\n  swap1\n  pop\n    /* \"#utility.yul\":649:682   */\n  tag_22\n    /* \"#utility.yul\":676:681   */\n  dup2\n    /* \"#utility.yul\":649:682   */\n  tag_11\n  jump\t// in\ntag_22:\n    /* \"#utility.yul\":545:688   */\n  swap3\n  swap2\n  pop\n  pop\n  jump\t// out\n    /* \"#utility.yul\":694:1045   */\ntag_3:\n    /* \"#utility.yul\":764:770   */\n  0x00\n    /* \"#utility.yul\":813:815   */\n  0x20\n    /* \"#utility.yul\":801:810   */\n  dup3\n    /* \"#utility.yul\":792:799   */\n  dup5\n    /* \"#utility.yul\":788:811   */\n  sub\n    /* \"#utility.yul\":784:816   */\n  slt\n    /* \"#utility.yul\":781:900   */\n  iszero\n  tag_24\n  jumpi\n    /* \"#utility.yul\":819:898   */\n  tag_25\n  tag_8\n  jump\t// in\ntag_25:\n    /* \"#utility.yul\":781:900   */\ntag_24:\n    /* \"#utility.yul\":939:940   */\n  0x00\n    /* \"#utility.yul\":964:1028   */\n  tag_26\n    /* \"#utility.yul\":1020:1027   */\n  dup5\n    /* \"#utility.yul\":1011:1017   */\n  dup3\n    /* \"#utility.yul\":1000:1009   */\n  dup6\n    /* \"#utility.yul\":996:1018   */\n  add\n    /* \"#utility.yul\":964:1028   */\n  tag_12\n  jump\t// in\ntag_26:\n    /* \"#utility.yul\":954:1028   */\n  swap2\n  pop\n    /* \"#utility.yul\":910:1038   */\n  pop\n    /* \"#utility.yul\":694:1045   */\n  swap3\n  swap2\n  pop\n  pop\n  jump\t// out\n    /* \"contracts/OrderBook.sol\":1057:7110  contract OrderBook {... */\ntag_6:\n  dataSize(sub_0)\n  dup1\n  dataOffset(sub_0)\n  0x00\n  codecopy\n  0x00\n  return\nstop\n\nsub_0: assembly {\n        /* \"contracts/OrderBook.sol\":1057:7110  contract OrderBook {... */\n      mstore(0x40, 0x80)\n      jumpi(tag_1, lt(calldatasize, 0x04))\n      shr(0xe0, calldataload(0x00))\n      dup1\n      0x734a2e78\n      gt\n      tag_18\n      jumpi\n      dup1\n      0xbf77ffae\n      gt\n      tag_19\n      jumpi\n      dup1\n      0xbf77ffae\n      eq\n      tag_14\n      jumpi\n      dup1\n      0xc5374af2\n      eq\n      tag_15\n      jumpi\n      dup1\n      0xce0cdc87\n      eq\n      tag_16\n      jumpi\n      dup1\n      0xdb3a1396\n      eq\n      tag_17\n      jumpi\n      jump(tag_1)\n    tag_19:\n      dup1\n      0x734a2e78\n      eq\n      tag_10\n      jumpi\n      dup1\n      0x78c5b268\n      eq\n      tag_11\n      jumpi\n      dup1\n      0x9703ef35\n      eq\n      tag_12\n      jumpi\n      dup1\n      0x9979ef45\n      eq\n      tag_13\n      jumpi\n      jump(tag_1)\n    tag_18:\n      dup1\n      0x4471417f\n      gt\n      tag_20\n      jumpi\n      dup1\n      0x4471417f\n      eq\n      tag_6\n      jumpi\n      dup1\n      0x4d46712d\n      eq\n      tag_7\n      jumpi\n      dup1\n      0x69f632e2\n      eq\n      tag_8\n      jumpi\n      dup1\n      0x6ec48ce0\n      eq\n      tag_9\n      jumpi\n      jump(tag_1)\n    tag_20:\n      dup1\n      0x122de8f2\n      eq\n      tag_2\n      jumpi\n      dup1\n      0x1628e0f5\n      eq\n      tag_3\n      jumpi\n      dup1\n      0x2aaee28e\n      eq\n      tag_4\n      jumpi\n      dup1\n      0x2db6dfa7\n      eq\n      tag_5\n      jumpi\n    tag_1:\n      0x00\n      dup1\n      revert\n        /* \"contracts/OrderBook.sol\":6169:6443  function fetchYourAskIds() public returns (uint[] memory) {... */\n    tag_2:\n      callvalue\n      dup1\n      iszero\n      tag_21\n      jumpi\n      0x00\n      dup1\n      revert\n    tag_21:\n      pop\n      tag_22\n      tag_23\n      jump\t// in\n    tag_22:\n      mload(0x40)\n      tag_24\n      swap2\n      swap1\n      tag_25\n      jump\t// in\n    tag_24:\n      mload(0x40)\n      dup1\n      swap2\n      sub\n      swap1\n      return\n        /* \"contracts/OrderBook.sol\":5345:5619  function cancelAsk (uint askId) public isPending(askBook[askId]) isAuthorised(askBook[askId], msg.sender) {... */\n    tag_3:\n      callvalue\n      dup1\n      iszero\n      tag_26\n      jumpi\n      0x00\n      dup1\n      revert\n    tag_26:\n      pop\n      tag_27\n      0x04\n      dup1\n      calldatasize\n      sub\n      dup2\n      add\n      swap1\n      tag_28\n      swap2\n      swap1\n      tag_29\n      jump\t// in\n    tag_28:\n      tag_30\n      jump\t// in\n    tag_27:\n      stop\n        /* \"contracts/OrderBook.sol\":2120:2281  function sortBid(order[] memory data) public returns (order[] memory) {... */\n    tag_4:\n      callvalue\n      dup1\n      iszero\n      tag_31\n      jumpi\n      0x00\n      dup1\n      revert\n    tag_31:\n      pop\n      tag_32\n      0x04\n      dup1\n      calldatasize\n      sub\n      dup2\n      add\n      swap1\n      tag_33\n      swap2\n      swap1\n      tag_34\n      jump\t// in\n    tag_33:\n      tag_35\n      jump\t// in\n    tag_32:\n      mload(0x40)\n      tag_36\n      swap2\n      swap1\n      tag_37\n      jump\t// in\n    tag_36:\n      mload(0x40)\n      dup1\n      swap2\n      sub\n      swap1\n      return\n        /* \"contracts/OrderBook.sol\":6689:6790  function getBidValue (uint id) public view returns(uint256) {... */\n    tag_5:\n      callvalue\n      dup1\n      iszero\n      tag_38\n      jumpi\n      0x00\n      dup1\n      revert\n    tag_38:\n      pop\n      tag_39\n      0x04\n      dup1\n      calldatasize\n      sub\n      dup2\n      add\n      swap1\n      tag_40\n      swap2\n      swap1\n      tag_29\n      jump\t// in\n    tag_40:\n      tag_41\n      jump\t// in\n    tag_39:\n      mload(0x40)\n      tag_42\n      swap2\n      swap1\n      tag_43\n      jump\t// in\n    tag_42:\n      mload(0x40)\n      dup1\n      swap2\n      sub\n      swap1\n      return\n        /* \"contracts/OrderBook.sol\":5653:5765  function fetchAllBid() public returns (order[] memory) {... */\n    tag_6:\n      callvalue\n      dup1\n      iszero\n      tag_44\n      jumpi\n      0x00\n      dup1\n      revert\n    tag_44:\n      pop\n      tag_45\n      tag_46\n      jump\t// in\n    tag_45:\n      mload(0x40)\n      tag_47\n      swap2\n      swap1\n      tag_37\n      jump\t// in\n    tag_47:\n      mload(0x40)\n      dup1\n      swap2\n      sub\n      swap1\n      return\n        /* \"contracts/OrderBook.sol\":7008:7107  function getAskState (uint id) public view returns(State) {... */\n    tag_7:\n      callvalue\n      dup1\n      iszero\n      tag_48\n      jumpi\n      0x00\n      dup1\n      revert\n    tag_48:\n      pop\n      tag_49\n      0x04\n      dup1\n      calldatasize\n      sub\n      dup2\n      add\n      swap1\n      tag_50\n      swap2\n      swap1\n      tag_29\n      jump\t// in\n    tag_50:\n      tag_51\n      jump\t// in\n    tag_49:\n      mload(0x40)\n      tag_52\n      swap2\n      swap1\n      tag_53\n      jump\t// in\n    tag_52:\n      mload(0x40)\n      dup1\n      swap2\n      sub\n      swap1\n      return\n        /* \"contracts/OrderBook.sol\":6449:6563  function getBidAddress (uint id) public view returns(address payable) {... */\n    tag_8:\n      callvalue\n      dup1\n      iszero\n      tag_54\n      jumpi\n      0x00\n      dup1\n      revert\n    tag_54:\n      pop\n      tag_55\n      0x04\n      dup1\n      calldatasize\n      sub\n      dup2\n      add\n      swap1\n      tag_56\n      swap2\n      swap1\n      tag_29\n      jump\t// in\n    tag_56:\n      tag_57\n      jump\t// in\n    tag_55:\n      mload(0x40)\n      tag_58\n      swap2\n      swap1\n      tag_59\n      jump\t// in\n    tag_58:\n      mload(0x40)\n      dup1\n      swap2\n      sub\n      swap1\n      return\n        /* \"contracts/OrderBook.sol\":2287:2447  function sortAsk(order[] memory data) public returns (order[] memory) {... */\n    tag_9:\n      callvalue\n      dup1\n      iszero\n      tag_60\n      jumpi\n      0x00\n      dup1\n      revert\n    tag_60:\n      pop\n      tag_61\n      0x04\n      dup1\n      calldatasize\n      sub\n      dup2\n      add\n      swap1\n      tag_62\n      swap2\n      swap1\n      tag_34\n      jump\t// in\n    tag_62:\n      tag_63\n      jump\t// in\n    tag_61:\n      mload(0x40)\n      tag_64\n      swap2\n      swap1\n      tag_37\n      jump\t// in\n    tag_64:\n      mload(0x40)\n      dup1\n      swap2\n      sub\n      swap1\n      return\n        /* \"contracts/OrderBook.sol\":6569:6683  function getAskAddress (uint id) public view returns(address payable) {... */\n    tag_10:\n      callvalue\n      dup1\n      iszero\n      tag_65\n      jumpi\n      0x00\n      dup1\n      revert\n    tag_65:\n      pop\n      tag_66\n      0x04\n      dup1\n      calldatasize\n      sub\n      dup2\n      add\n      swap1\n      tag_67\n      swap2\n      swap1\n      tag_29\n      jump\t// in\n    tag_67:\n      tag_68\n      jump\t// in\n    tag_66:\n      mload(0x40)\n      tag_69\n      swap2\n      swap1\n      tag_59\n      jump\t// in\n    tag_69:\n      mload(0x40)\n      dup1\n      swap2\n      sub\n      swap1\n      return\n        /* \"contracts/OrderBook.sol\":4794:5339  function placeAsk (uint256 price) public payable {... */\n    tag_11:\n      tag_70\n      0x04\n      dup1\n      calldatasize\n      sub\n      dup2\n      add\n      swap1\n      tag_71\n      swap2\n      swap1\n      tag_29\n      jump\t// in\n    tag_71:\n      tag_72\n      jump\t// in\n    tag_70:\n      stop\n        /* \"contracts/OrderBook.sol\":4520:4788  function cancelBid (uint bidId) public isPending(bidBook[bidId]) isAuthorised(bidBook[bidId], msg.sender) {... */\n    tag_12:\n      callvalue\n      dup1\n      iszero\n      tag_73\n      jumpi\n      0x00\n      dup1\n      revert\n    tag_73:\n      pop\n      tag_74\n      0x04\n      dup1\n      calldatasize\n      sub\n      dup2\n      add\n      swap1\n      tag_75\n      swap2\n      swap1\n      tag_29\n      jump\t// in\n    tag_75:\n      tag_76\n      jump\t// in\n    tag_74:\n      stop\n        /* \"contracts/OrderBook.sol\":3969:4514  function placeBid (uint256 price) public payable {... */\n    tag_13:\n      tag_77\n      0x04\n      dup1\n      calldatasize\n      sub\n      dup2\n      add\n      swap1\n      tag_78\n      swap2\n      swap1\n      tag_29\n      jump\t// in\n    tag_78:\n      tag_79\n      jump\t// in\n    tag_77:\n      stop\n        /* \"contracts/OrderBook.sol\":6903:7002  function getBidState (uint id) public view returns(State) {... */\n    tag_14:\n      callvalue\n      dup1\n      iszero\n      tag_80\n      jumpi\n      0x00\n      dup1\n      revert\n    tag_80:\n      pop\n      tag_81\n      0x04\n      dup1\n      calldatasize\n      sub\n      dup2\n      add\n      swap1\n      tag_82\n      swap2\n      swap1\n      tag_29\n      jump\t// in\n    tag_82:\n      tag_83\n      jump\t// in\n    tag_81:\n      mload(0x40)\n      tag_84\n      swap2\n      swap1\n      tag_53\n      jump\t// in\n    tag_84:\n      mload(0x40)\n      dup1\n      swap2\n      sub\n      swap1\n      return\n        /* \"contracts/OrderBook.sol\":5771:5883  function fetchAllAsk() public returns (order[] memory) {... */\n    tag_15:\n      callvalue\n      dup1\n      iszero\n      tag_85\n      jumpi\n      0x00\n      dup1\n      revert\n    tag_85:\n      pop\n      tag_86\n      tag_87\n      jump\t// in\n    tag_86:\n      mload(0x40)\n      tag_88\n      swap2\n      swap1\n      tag_37\n      jump\t// in\n    tag_88:\n      mload(0x40)\n      dup1\n      swap2\n      sub\n      swap1\n      return\n        /* \"contracts/OrderBook.sol\":5889:6163  function fetchYourBidIds() public returns (uint[] memory) {... */\n    tag_16:\n      callvalue\n      dup1\n      iszero\n      tag_89\n      jumpi\n      0x00\n      dup1\n      revert\n    tag_89:\n      pop\n      tag_90\n      tag_91\n      jump\t// in\n    tag_90:\n      mload(0x40)\n      tag_92\n      swap2\n      swap1\n      tag_25\n      jump\t// in\n    tag_92:\n      mload(0x40)\n      dup1\n      swap2\n      sub\n      swap1\n      return\n        /* \"contracts/OrderBook.sol\":6796:6897  function getAskValue (uint id) public view returns(uint256) {... */\n    tag_17:\n      callvalue\n      dup1\n      iszero\n      tag_93\n      jumpi\n      0x00\n      dup1\n      revert\n    tag_93:\n      pop\n      tag_94\n      0x04\n      dup1\n      calldatasize\n      sub\n      dup2\n      add\n      swap1\n      tag_95\n      swap2\n      swap1\n      tag_29\n      jump\t// in\n    tag_95:\n      tag_96\n      jump\t// in\n    tag_94:\n      mload(0x40)\n      tag_97\n      swap2\n      swap1\n      tag_43\n      jump\t// in\n    tag_97:\n      mload(0x40)\n      dup1\n      swap2\n      sub\n      swap1\n      return\n        /* \"contracts/OrderBook.sol\":6169:6443  function fetchYourAskIds() public returns (uint[] memory) {... */\n    tag_23:\n        /* \"contracts/OrderBook.sol\":6212:6225  uint[] memory */\n      0x60\n        /* \"contracts/OrderBook.sol\":6237:6250  deleteArray() */\n      tag_99\n        /* \"contracts/OrderBook.sol\":6237:6248  deleteArray */\n      tag_100\n        /* \"contracts/OrderBook.sol\":6237:6250  deleteArray() */\n      jump\t// in\n    tag_99:\n        /* \"contracts/OrderBook.sol\":6265:6271  uint i */\n      0x00\n        /* \"contracts/OrderBook.sol\":6260:6413  for (uint i = 0; i < askBook.length; i++) {... */\n    tag_101:\n        /* \"contracts/OrderBook.sol\":6281:6288  askBook */\n      0x03\n        /* \"contracts/OrderBook.sol\":6281:6295  askBook.length */\n      dup1\n      sload\n      swap1\n      pop\n        /* \"contracts/OrderBook.sol\":6277:6278  i */\n      dup2\n        /* \"contracts/OrderBook.sol\":6277:6295  i < askBook.length */\n      lt\n        /* \"contracts/OrderBook.sol\":6260:6413  for (uint i = 0; i < askBook.length; i++) {... */\n      iszero\n      tag_102\n      jumpi\n        /* \"contracts/OrderBook.sol\":6343:6353  msg.sender */\n      caller\n        /* \"contracts/OrderBook.sol\":6320:6353  askBook[i].customer == msg.sender */\n      0xffffffffffffffffffffffffffffffffffffffff\n      and\n        /* \"contracts/OrderBook.sol\":6320:6327  askBook */\n      0x03\n        /* \"contracts/OrderBook.sol\":6328:6329  i */\n      dup3\n        /* \"contracts/OrderBook.sol\":6320:6330  askBook[i] */\n      dup2\n      sload\n      dup2\n      lt\n      tag_104\n      jumpi\n      tag_105\n      tag_106\n      jump\t// in\n    tag_105:\n    tag_104:\n      swap1\n      0x00\n      mstore\n      keccak256(0x00, 0x20)\n      swap1\n      0x04\n      mul\n      add\n        /* \"contracts/OrderBook.sol\":6320:6339  askBook[i].customer */\n      0x00\n      add\n      0x00\n      swap1\n      sload\n      swap1\n      0x0100\n      exp\n      swap1\n      div\n      0xffffffffffffffffffffffffffffffffffffffff\n      and\n        /* \"contracts/OrderBook.sol\":6320:6353  askBook[i].customer == msg.sender */\n      0xffffffffffffffffffffffffffffffffffffffff\n      and\n      sub\n        /* \"contracts/OrderBook.sol\":6316:6403  if (askBook[i].customer == msg.sender) {... */\n      tag_108\n      jumpi\n        /* \"contracts/OrderBook.sol\":6373:6380  request */\n      0x04\n        /* \"contracts/OrderBook.sol\":6386:6387  i */\n      dup2\n        /* \"contracts/OrderBook.sol\":6373:6388  request.push(i) */\n      swap1\n      dup1\n      0x01\n      dup2\n      sload\n      add\n      dup1\n      dup3\n      sstore\n      dup1\n      swap2\n      pop\n      pop\n      0x01\n      swap1\n      sub\n      swap1\n      0x00\n      mstore\n      keccak256(0x00, 0x20)\n      add\n      0x00\n      swap1\n      swap2\n      swap1\n      swap2\n      swap1\n      swap2\n      pop\n      sstore\n        /* \"contracts/OrderBook.sol\":6316:6403  if (askBook[i].customer == msg.sender) {... */\n    tag_108:\n        /* \"contracts/OrderBook.sol\":6297:6300  i++ */\n      dup1\n      dup1\n      tag_110\n      swap1\n      tag_111\n      jump\t// in\n    tag_110:\n      swap2\n      pop\n      pop\n        /* \"contracts/OrderBook.sol\":6260:6413  for (uint i = 0; i < askBook.length; i++) {... */\n      jump(tag_101)\n    tag_102:\n      pop\n        /* \"contracts/OrderBook.sol\":6429:6436  request */\n      0x04\n        /* \"contracts/OrderBook.sol\":6422:6436  return request */\n      dup1\n      sload\n      dup1\n      0x20\n      mul\n      0x20\n      add\n      mload(0x40)\n      swap1\n      dup2\n      add\n      0x40\n      mstore\n      dup1\n      swap3\n      swap2\n      swap1\n      dup2\n      dup2\n      mstore\n      0x20\n      add\n      dup3\n      dup1\n      sload\n      dup1\n      iszero\n      tag_112\n      jumpi\n      0x20\n      mul\n      dup3\n      add\n      swap2\n      swap1\n      0x00\n      mstore\n      keccak256(0x00, 0x20)\n      swap1\n    tag_113:\n      dup2\n      sload\n      dup2\n      mstore\n      0x20\n      add\n      swap1\n      0x01\n      add\n      swap1\n      dup1\n      dup4\n      gt\n      tag_113\n      jumpi\n    tag_112:\n      pop\n      pop\n      pop\n      pop\n      pop\n      swap1\n      pop\n        /* \"contracts/OrderBook.sol\":6169:6443  function fetchYourAskIds() public returns (uint[] memory) {... */\n      swap1\n      jump\t// out\n        /* \"contracts/OrderBook.sol\":5345:5619  function cancelAsk (uint askId) public isPending(askBook[askId]) isAuthorised(askBook[askId], msg.sender) {... */\n    tag_30:\n        /* \"contracts/OrderBook.sol\":5394:5401  askBook */\n      0x03\n        /* \"contracts/OrderBook.sol\":5402:5407  askId */\n      dup2\n        /* \"contracts/OrderBook.sol\":5394:5408  askBook[askId] */\n      dup2\n      sload\n      dup2\n      lt\n      tag_114\n      jumpi\n      tag_115\n      tag_106\n      jump\t// in\n    tag_115:\n    tag_114:\n      swap1\n      0x00\n      mstore\n      keccak256(0x00, 0x20)\n      swap1\n      0x04\n      mul\n      add\n        /* \"contracts/OrderBook.sol\":1818:1941  modifier isPending(order memory _order) {... */\n      mload(0x40)\n      dup1\n      0x80\n      add\n      0x40\n      mstore\n      swap1\n      dup2\n      0x00\n      dup3\n      add\n      0x00\n      swap1\n      sload\n      swap1\n      0x0100\n      exp\n      swap1\n      div\n      0xffffffffffffffffffffffffffffffffffffffff\n      and\n      0xffffffffffffffffffffffffffffffffffffffff\n      and\n      0xffffffffffffffffffffffffffffffffffffffff\n      and\n      dup2\n      mstore\n      0x20\n      add\n      0x01\n      dup3\n      add\n      sload\n      dup2\n      mstore\n      0x20\n      add\n      0x02\n      dup3\n      add\n      sload\n      dup2\n      mstore\n      0x20\n      add\n      0x03\n      dup3\n      add\n      0x00\n      swap1\n      sload\n      swap1\n      0x0100\n      exp\n      swap1\n      div\n      0xff\n      and\n      0x01\n      dup2\n      gt\n      iszero\n      tag_117\n      jumpi\n      tag_118\n      tag_119\n      jump\t// in\n    tag_118:\n    tag_117:\n      0x01\n      dup2\n      gt\n      iszero\n      tag_120\n      jumpi\n      tag_121\n      tag_119\n      jump\t// in\n    tag_121:\n    tag_120:\n      dup2\n      mstore\n      pop\n      pop\n        /* \"contracts/OrderBook.sol\":1892:1905  State.pending */\n      0x00\n        /* \"contracts/OrderBook.sol\":1876:1905  _order.state == State.pending */\n      0x01\n      dup2\n      gt\n      iszero\n      tag_123\n      jumpi\n      tag_124\n      tag_119\n      jump\t// in\n    tag_124:\n    tag_123:\n        /* \"contracts/OrderBook.sol\":1876:1882  _order */\n      dup2\n        /* \"contracts/OrderBook.sol\":1876:1888  _order.state */\n      0x60\n      add\n      mload\n        /* \"contracts/OrderBook.sol\":1876:1905  _order.state == State.pending */\n      0x01\n      dup2\n      gt\n      iszero\n      tag_125\n      jumpi\n      tag_126\n      tag_119\n      jump\t// in\n    tag_126:\n    tag_125:\n      eq\n        /* \"contracts/OrderBook.sol\":1868:1923  require(_order.state == State.pending, \"Order Pending\") */\n      tag_127\n      jumpi\n      mload(0x40)\n      0x08c379a000000000000000000000000000000000000000000000000000000000\n      dup2\n      mstore\n      0x04\n      add\n      tag_128\n      swap1\n      tag_129\n      jump\t// in\n    tag_128:\n      mload(0x40)\n      dup1\n      swap2\n      sub\n      swap1\n      revert\n    tag_127:\n        /* \"contracts/OrderBook.sol\":5423:5430  askBook */\n      0x03\n        /* \"contracts/OrderBook.sol\":5431:5436  askId */\n      dup3\n        /* \"contracts/OrderBook.sol\":5423:5437  askBook[askId] */\n      dup2\n      sload\n      dup2\n      lt\n      tag_130\n      jumpi\n      tag_131\n      tag_106\n      jump\t// in\n    tag_131:\n    tag_130:\n      swap1\n      0x00\n      mstore\n      keccak256(0x00, 0x20)\n      swap1\n      0x04\n      mul\n      add\n        /* \"contracts/OrderBook.sol\":1947:2086  modifier isAuthorised(order memory _order, address sender) {... */\n      mload(0x40)\n      dup1\n      0x80\n      add\n      0x40\n      mstore\n      swap1\n      dup2\n      0x00\n      dup3\n      add\n      0x00\n      swap1\n      sload\n      swap1\n      0x0100\n      exp\n      swap1\n      div\n      0xffffffffffffffffffffffffffffffffffffffff\n      and\n      0xffffffffffffffffffffffffffffffffffffffff\n      and\n      0xffffffffffffffffffffffffffffffffffffffff\n      and\n      dup2\n      mstore\n      0x20\n      add\n      0x01\n      dup3\n      add\n      sload\n      dup2\n      mstore\n      0x20\n      add\n      0x02\n      dup3\n      add\n      sload\n      dup2\n      mstore\n      0x20\n      add\n      0x03\n      dup3\n      add\n      0x00\n      swap1\n      sload\n      swap1\n      0x0100\n      exp\n      swap1\n      div\n      0xff\n      and\n      0x01\n      dup2\n      gt\n      iszero\n      tag_133\n      jumpi\n      tag_134\n      tag_119\n      jump\t// in\n    tag_134:\n    tag_133:\n      0x01\n      dup2\n      gt\n      iszero\n      tag_135\n      jumpi\n      tag_136\n      tag_119\n      jump\t// in\n    tag_136:\n    tag_135:\n      dup2\n      mstore\n      pop\n      pop\n        /* \"contracts/OrderBook.sol\":5439:5449  msg.sender */\n      caller\n        /* \"contracts/OrderBook.sol\":2043:2049  sender */\n      dup1\n        /* \"contracts/OrderBook.sol\":2024:2049  _order.customer == sender */\n      0xffffffffffffffffffffffffffffffffffffffff\n      and\n        /* \"contracts/OrderBook.sol\":2024:2030  _order */\n      dup3\n        /* \"contracts/OrderBook.sol\":2024:2039  _order.customer */\n      0x00\n      add\n      mload\n        /* \"contracts/OrderBook.sol\":2024:2049  _order.customer == sender */\n      0xffffffffffffffffffffffffffffffffffffffff\n      and\n      eq\n        /* \"contracts/OrderBook.sol\":2016:2068  require(_order.customer == sender, \"Not Authorised\") */\n      tag_138\n      jumpi\n      mload(0x40)\n      0x08c379a000000000000000000000000000000000000000000000000000000000\n      dup2\n      mstore\n      0x04\n      add\n      tag_139\n      swap1\n      tag_140\n      jump\t// in\n    tag_139:\n      mload(0x40)\n      dup1\n      swap2\n      sub\n      swap1\n      revert\n    tag_138:\n        /* \"contracts/OrderBook.sol\":5461:5468  askBook */\n      0x03\n        /* \"contracts/OrderBook.sol\":5469:5474  askId */\n      dup5\n        /* \"contracts/OrderBook.sol\":5461:5475  askBook[askId] */\n      dup2\n      sload\n      dup2\n      lt\n      tag_142\n      jumpi\n      tag_143\n      tag_106\n      jump\t// in\n    tag_143:\n    tag_142:\n      swap1\n      0x00\n      mstore\n      keccak256(0x00, 0x20)\n      swap1\n      0x04\n      mul\n      add\n        /* \"contracts/OrderBook.sol\":5461:5484  askBook[askId].customer */\n      0x00\n      add\n      0x00\n      swap1\n      sload\n      swap1\n      0x0100\n      exp\n      swap1\n      div\n      0xffffffffffffffffffffffffffffffffffffffff\n      and\n        /* \"contracts/OrderBook.sol\":5461:5493  askBook[askId].customer.transfer */\n      0xffffffffffffffffffffffffffffffffffffffff\n      and\n        /* \"contracts/OrderBook.sol\":5461:5515  askBook[askId].customer.transfer(askBook[askId].value) */\n      0x08fc\n        /* \"contracts/OrderBook.sol\":5494:5501  askBook */\n      0x03\n        /* \"contracts/OrderBook.sol\":5502:5507  askId */\n      dup7\n        /* \"contracts/OrderBook.sol\":5494:5508  askBook[askId] */\n      dup2\n      sload\n      dup2\n      lt\n      tag_145\n      jumpi\n      tag_146\n      tag_106\n      jump\t// in\n    tag_146:\n    tag_145:\n      swap1\n      0x00\n      mstore\n      keccak256(0x00, 0x20)\n      swap1\n      0x04\n      mul\n      add\n        /* \"contracts/OrderBook.sol\":5494:5514  askBook[askId].value */\n      0x01\n      add\n      sload\n        /* \"contracts/OrderBook.sol\":5461:5515  askBook[askId].customer.transfer(askBook[askId].value) */\n      swap1\n      dup2\n      iszero\n      mul\n      swap1\n      mload(0x40)\n      0x00\n      mload(0x40)\n      dup1\n      dup4\n      sub\n      dup2\n      dup6\n      dup9\n      dup9\n      call\n      swap4\n      pop\n      pop\n      pop\n      pop\n      iszero\n      dup1\n      iszero\n      tag_149\n      jumpi\n      returndatasize\n      0x00\n      dup1\n      returndatacopy\n      revert(0x00, returndatasize)\n    tag_149:\n      pop\n        /* \"contracts/OrderBook.sol\":5532:5539  askBook */\n      0x03\n        /* \"contracts/OrderBook.sol\":5540:5545  askId */\n      dup5\n        /* \"contracts/OrderBook.sol\":5532:5546  askBook[askId] */\n      dup2\n      sload\n      dup2\n      lt\n      tag_150\n      jumpi\n      tag_151\n      tag_106\n      jump\t// in\n    tag_151:\n    tag_150:\n      swap1\n      0x00\n      mstore\n      keccak256(0x00, 0x20)\n      swap1\n      0x04\n      mul\n      add\n      0x00\n        /* \"contracts/OrderBook.sol\":5525:5546  delete askBook[askId] */\n      dup1\n      dup3\n      add\n      exp(0x0100, 0x00)\n      dup2\n      sload\n      swap1\n      0xffffffffffffffffffffffffffffffffffffffff\n      mul\n      not\n      and\n      swap1\n      sstore\n      0x01\n      dup3\n      add\n      0x00\n      swap1\n      sstore\n      0x02\n      dup3\n      add\n      0x00\n      swap1\n      sstore\n      0x03\n      dup3\n      add\n      exp(0x0100, 0x00)\n      dup2\n      sload\n      swap1\n      0xff\n      mul\n      not\n      and\n      swap1\n      sstore\n      pop\n      pop\n        /* \"contracts/OrderBook.sol\":5556:5572  sortAsk(askBook) */\n      tag_153\n        /* \"contracts/OrderBook.sol\":5564:5571  askBook */\n      0x03\n        /* \"contracts/OrderBook.sol\":5556:5572  sortAsk(askBook) */\n      dup1\n      sload\n      dup1\n      0x20\n      mul\n      0x20\n      add\n      mload(0x40)\n      swap1\n      dup2\n      add\n      0x40\n      mstore\n      dup1\n      swap3\n      swap2\n      swap1\n      dup2\n      dup2\n      mstore\n      0x20\n      add\n      0x00\n      swap1\n    tag_154:\n      dup3\n      dup3\n      lt\n      iszero\n      tag_155\n      jumpi\n      dup4\n      dup3\n      swap1\n      0x00\n      mstore\n      keccak256(0x00, 0x20)\n      swap1\n      0x04\n      mul\n      add\n      mload(0x40)\n      dup1\n      0x80\n      add\n      0x40\n      mstore\n      swap1\n      dup2\n      0x00\n      dup3\n      add\n      0x00\n      swap1\n      sload\n      swap1\n      0x0100\n      exp\n      swap1\n      div\n      0xffffffffffffffffffffffffffffffffffffffff\n      and\n      0xffffffffffffffffffffffffffffffffffffffff\n      and\n      0xffffffffffffffffffffffffffffffffffffffff\n      and\n      dup2\n      mstore\n      0x20\n      add\n      0x01\n      dup3\n      add\n      sload\n      dup2\n      mstore\n      0x20\n      add\n      0x02\n      dup3\n      add\n      sload\n      dup2\n      mstore\n      0x20\n      add\n      0x03\n      dup3\n      add\n      0x00\n      swap1\n      sload\n      swap1\n      0x0100\n      exp\n      swap1\n      div\n      0xff\n      and\n      0x01\n      dup2\n      gt\n      iszero\n      tag_157\n      jumpi\n      tag_158\n      tag_119\n      jump\t// in\n    tag_158:\n    tag_157:\n      0x01\n      dup2\n      gt\n      iszero\n      tag_159\n      jumpi\n      tag_160\n      tag_119\n      jump\t// in\n    tag_160:\n    tag_159:\n      dup2\n      mstore\n      pop\n      pop\n      dup2\n      mstore\n      0x20\n      add\n      swap1\n      0x01\n      add\n      swap1\n      jump(tag_154)\n    tag_155:\n      pop\n      pop\n      pop\n      pop\n        /* \"contracts/OrderBook.sol\":5556:5563  sortAsk */\n      tag_63\n        /* \"contracts/OrderBook.sol\":5556:5572  sortAsk(askBook) */\n      jump\t// in\n    tag_153:\n      pop\n        /* \"contracts/OrderBook.sol\":5593:5612  askCancelled(askId) */\n      0x48d3043fff66c1aee14954ac5aa463b0297fb08c9b60ee00486fb3387bb58aac\n        /* \"contracts/OrderBook.sol\":5606:5611  askId */\n      dup5\n        /* \"contracts/OrderBook.sol\":5593:5612  askCancelled(askId) */\n      mload(0x40)\n      tag_161\n      swap2\n      swap1\n      tag_43\n      jump\t// in\n    tag_161:\n      mload(0x40)\n      dup1\n      swap2\n      sub\n      swap1\n      log1\n        /* \"contracts/OrderBook.sol\":1933:1934  _ */\n      pop\n      pop\n        /* \"contracts/OrderBook.sol\":5345:5619  function cancelAsk (uint askId) public isPending(askBook[askId]) isAuthorised(askBook[askId], msg.sender) {... */\n      pop\n      pop\n      jump\t// out\n        /* \"contracts/OrderBook.sol\":2120:2281  function sortBid(order[] memory data) public returns (order[] memory) {... */\n    tag_35:\n        /* \"contracts/OrderBook.sol\":2174:2188  order[] memory */\n      0x60\n        /* \"contracts/OrderBook.sol\":2199:2254  descendingQuickSort(data, int(0), int(data.length - 1)) */\n      tag_163\n        /* \"contracts/OrderBook.sol\":2219:2223  data */\n      dup3\n        /* \"contracts/OrderBook.sol\":2229:2230  0 */\n      0x00\n        /* \"contracts/OrderBook.sol\":2251:2252  1 */\n      0x01\n        /* \"contracts/OrderBook.sol\":2237:2241  data */\n      dup6\n        /* \"contracts/OrderBook.sol\":2237:2248  data.length */\n      mload\n        /* \"contracts/OrderBook.sol\":2237:2252  data.length - 1 */\n      tag_164\n      swap2\n      swap1\n      tag_165\n      jump\t// in\n    tag_164:\n        /* \"contracts/OrderBook.sol\":2199:2218  descendingQuickSort */\n      tag_166\n        /* \"contracts/OrderBook.sol\":2199:2254  descendingQuickSort(data, int(0), int(data.length - 1)) */\n      jump\t// in\n    tag_163:\n        /* \"contracts/OrderBook.sol\":2270:2274  data */\n      dup2\n        /* \"contracts/OrderBook.sol\":2263:2274  return data */\n      swap1\n      pop\n        /* \"contracts/OrderBook.sol\":2120:2281  function sortBid(order[] memory data) public returns (order[] memory) {... */\n      swap2\n      swap1\n      pop\n      jump\t// out\n        /* \"contracts/OrderBook.sol\":6689:6790  function getBidValue (uint id) public view returns(uint256) {... */\n    tag_41:\n        /* \"contracts/OrderBook.sol\":6740:6747  uint256 */\n      0x00\n        /* \"contracts/OrderBook.sol\":6766:6773  bidBook */\n      0x02\n        /* \"contracts/OrderBook.sol\":6774:6776  id */\n      dup3\n        /* \"contracts/OrderBook.sol\":6766:6777  bidBook[id] */\n      dup2\n      sload\n      dup2\n      lt\n      tag_168\n      jumpi\n      tag_169\n      tag_106\n      jump\t// in\n    tag_169:\n    tag_168:\n      swap1\n      0x00\n      mstore\n      keccak256(0x00, 0x20)\n      swap1\n      0x04\n      mul\n      add\n        /* \"contracts/OrderBook.sol\":6766:6783  bidBook[id].value */\n      0x01\n      add\n      sload\n        /* \"contracts/OrderBook.sol\":6759:6783  return bidBook[id].value */\n      swap1\n      pop\n        /* \"contracts/OrderBook.sol\":6689:6790  function getBidValue (uint id) public view returns(uint256) {... */\n      swap2\n      swap1\n      pop\n      jump\t// out\n        /* \"contracts/OrderBook.sol\":5653:5765  function fetchAllBid() public returns (order[] memory) {... */\n    tag_46:\n        /* \"contracts/OrderBook.sol\":5692:5706  order[] memory */\n      0x60\n        /* \"contracts/OrderBook.sol\":5718:5734  sortBid(bidBook) */\n      tag_172\n        /* \"contracts/OrderBook.sol\":5726:5733  bidBook */\n      0x02\n        /* \"contracts/OrderBook.sol\":5718:5734  sortBid(bidBook) */\n      dup1\n      sload\n      dup1\n      0x20\n      mul\n      0x20\n      add\n      mload(0x40)\n      swap1\n      dup2\n      add\n      0x40\n      mstore\n      dup1\n      swap3\n      swap2\n      swap1\n      dup2\n      dup2\n      mstore\n      0x20\n      add\n      0x00\n      swap1\n    tag_173:\n      dup3\n      dup3\n      lt\n      iszero\n      tag_174\n      jumpi\n      dup4\n      dup3\n      swap1\n      0x00\n      mstore\n      keccak256(0x00, 0x20)\n      swap1\n      0x04\n      mul\n      add\n      mload(0x40)\n      dup1\n      0x80\n      add\n      0x40\n      mstore\n      swap1\n      dup2\n      0x00\n      dup3\n      add\n      0x00\n      swap1\n      sload\n      swap1\n      0x0100\n      exp\n      swap1\n      div\n      0xffffffffffffffffffffffffffffffffffffffff\n      and\n      0xffffffffffffffffffffffffffffffffffffffff\n      and\n      0xffffffffffffffffffffffffffffffffffffffff\n      and\n      dup2\n      mstore\n      0x20\n      add\n      0x01\n      dup3\n      add\n      sload\n      dup2\n      mstore\n      0x20\n      add\n      0x02\n      dup3\n      add\n      sload\n      dup2\n      mstore\n      0x20\n      add\n      0x03\n      dup3\n      add\n      0x00\n      swap1\n      sload\n      swap1\n      0x0100\n      exp\n      swap1\n      div\n      0xff\n      and\n      0x01\n      dup2\n      gt\n      iszero\n      tag_176\n      jumpi\n      tag_177\n      tag_119\n      jump\t// in\n    tag_177:\n    tag_176:\n      0x01\n      dup2\n      gt\n      iszero\n      tag_178\n      jumpi\n      tag_179\n      tag_119\n      jump\t// in\n    tag_179:\n    tag_178:\n      dup2\n      mstore\n      pop\n      pop\n      dup2\n      mstore\n      0x20\n      add\n      swap1\n      0x01\n      add\n      swap1\n      jump(tag_173)\n    tag_174:\n      pop\n      pop\n      pop\n      pop\n        /* \"contracts/OrderBook.sol\":5718:5725  sortBid */\n      tag_35\n        /* \"contracts/OrderBook.sol\":5718:5734  sortBid(bidBook) */\n      jump\t// in\n    tag_172:\n      pop\n        /* \"contracts/OrderBook.sol\":5751:5758  bidBook */\n      0x02\n        /* \"contracts/OrderBook.sol\":5744:5758  return bidBook */\n      dup1\n      sload\n      dup1\n      0x20\n      mul\n      0x20\n      add\n      mload(0x40)\n      swap1\n      dup2\n      add\n      0x40\n      mstore\n      dup1\n      swap3\n      swap2\n      swap1\n      dup2\n      dup2\n      mstore\n      0x20\n      add\n      0x00\n      swap1\n    tag_180:\n      dup3\n      dup3\n      lt\n      iszero\n      tag_181\n      jumpi\n      dup4\n      dup3\n      swap1\n      0x00\n      mstore\n      keccak256(0x00, 0x20)\n      swap1\n      0x04\n      mul\n      add\n      mload(0x40)\n      dup1\n      0x80\n      add\n      0x40\n      mstore\n      swap1\n      dup2\n      0x00\n      dup3\n      add\n      0x00\n      swap1\n      sload\n      swap1\n      0x0100\n      exp\n      swap1\n      div\n      0xffffffffffffffffffffffffffffffffffffffff\n      and\n      0xffffffffffffffffffffffffffffffffffffffff\n      and\n      0xffffffffffffffffffffffffffffffffffffffff\n      and\n      dup2\n      mstore\n      0x20\n      add\n      0x01\n      dup3\n      add\n      sload\n      dup2\n      mstore\n      0x20\n      add\n      0x02\n      dup3\n      add\n      sload\n      dup2\n      mstore\n      0x20\n      add\n      0x03\n      dup3\n      add\n      0x00\n      swap1\n      sload\n      swap1\n      0x0100\n      exp\n      swap1\n      div\n      0xff\n      and\n      0x01\n      dup2\n      gt\n      iszero\n      tag_183\n      jumpi\n      tag_184\n      tag_119\n      jump\t// in\n    tag_184:\n    tag_183:\n      0x01\n      dup2\n      gt\n      iszero\n      tag_185\n      jumpi\n      tag_186\n      tag_119\n      jump\t// in\n    tag_186:\n    tag_185:\n      dup2\n      mstore\n      pop\n      pop\n      dup2\n      mstore\n      0x20\n      add\n      swap1\n      0x01\n      add\n      swap1\n      jump(tag_180)\n    tag_181:\n      pop\n      pop\n      pop\n      pop\n      swap1\n      pop\n        /* \"contracts/OrderBook.sol\":5653:5765  function fetchAllBid() public returns (order[] memory) {... */\n      swap1\n      jump\t// out\n        /* \"contracts/OrderBook.sol\":7008:7107  function getAskState (uint id) public view returns(State) {... */\n    tag_51:\n        /* \"contracts/OrderBook.sol\":7059:7064  State */\n      0x00\n        /* \"contracts/OrderBook.sol\":7083:7090  askBook */\n      0x03\n        /* \"contracts/OrderBook.sol\":7091:7093  id */\n      dup3\n        /* \"contracts/OrderBook.sol\":7083:7094  askBook[id] */\n      dup2\n      sload\n      dup2\n      lt\n      tag_188\n      jumpi\n      tag_189\n      tag_106\n      jump\t// in\n    tag_189:\n    tag_188:\n      swap1\n      0x00\n      mstore\n      keccak256(0x00, 0x20)\n      swap1\n      0x04\n      mul\n      add\n        /* \"contracts/OrderBook.sol\":7083:7100  askBook[id].state */\n      0x03\n      add\n      0x00\n      swap1\n      sload\n      swap1\n      0x0100\n      exp\n      swap1\n      div\n      0xff\n      and\n        /* \"contracts/OrderBook.sol\":7076:7100  return askBook[id].state */\n      swap1\n      pop\n        /* \"contracts/OrderBook.sol\":7008:7107  function getAskState (uint id) public view returns(State) {... */\n      swap2\n      swap1\n      pop\n      jump\t// out\n        /* \"contracts/OrderBook.sol\":6449:6563  function getBidAddress (uint id) public view returns(address payable) {... */\n    tag_57:\n        /* \"contracts/OrderBook.sol\":6502:6517  address payable */\n      0x00\n        /* \"contracts/OrderBook.sol\":6536:6543  bidBook */\n      0x02\n        /* \"contracts/OrderBook.sol\":6544:6546  id */\n      dup3\n        /* \"contracts/OrderBook.sol\":6536:6547  bidBook[id] */\n      dup2\n      sload\n      dup2\n      lt\n      tag_192\n      jumpi\n      tag_193\n      tag_106\n      jump\t// in\n    tag_193:\n    tag_192:\n      swap1\n      0x00\n      mstore\n      keccak256(0x00, 0x20)\n      swap1\n      0x04\n      mul\n      add\n        /* \"contracts/OrderBook.sol\":6536:6556  bidBook[id].customer */\n      0x00\n      add\n      0x00\n      swap1\n      sload\n      swap1\n      0x0100\n      exp\n      swap1\n      div\n      0xffffffffffffffffffffffffffffffffffffffff\n      and\n        /* \"contracts/OrderBook.sol\":6529:6556  return bidBook[id].customer */\n      swap1\n      pop\n        /* \"contracts/OrderBook.sol\":6449:6563  function getBidAddress (uint id) public view returns(address payable) {... */\n      swap2\n      swap1\n      pop\n      jump\t// out\n        /* \"contracts/OrderBook.sol\":2287:2447  function sortAsk(order[] memory data) public returns (order[] memory) {... */\n    tag_63:\n        /* \"contracts/OrderBook.sol\":2341:2355  order[] memory */\n      0x60\n        /* \"contracts/OrderBook.sol\":2366:2420  ascendingQuickSort(data, int(0), int(data.length - 1)) */\n      tag_196\n        /* \"contracts/OrderBook.sol\":2385:2389  data */\n      dup3\n        /* \"contracts/OrderBook.sol\":2395:2396  0 */\n      0x00\n        /* \"contracts/OrderBook.sol\":2417:2418  1 */\n      0x01\n        /* \"contracts/OrderBook.sol\":2403:2407  data */\n      dup6\n        /* \"contracts/OrderBook.sol\":2403:2414  data.length */\n      mload\n        /* \"contracts/OrderBook.sol\":2403:2418  data.length - 1 */\n      tag_197\n      swap2\n      swap1\n      tag_165\n      jump\t// in\n    tag_197:\n        /* \"contracts/OrderBook.sol\":2366:2384  ascendingQuickSort */\n      tag_198\n        /* \"contracts/OrderBook.sol\":2366:2420  ascendingQuickSort(data, int(0), int(data.length - 1)) */\n      jump\t// in\n    tag_196:\n        /* \"contracts/OrderBook.sol\":2436:2440  data */\n      dup2\n        /* \"contracts/OrderBook.sol\":2429:2440  return data */\n      swap1\n      pop\n        /* \"contracts/OrderBook.sol\":2287:2447  function sortAsk(order[] memory data) public returns (order[] memory) {... */\n      swap2\n      swap1\n      pop\n      jump\t// out\n        /* \"contracts/OrderBook.sol\":6569:6683  function getAskAddress (uint id) public view returns(address payable) {... */\n    tag_68:\n        /* \"contracts/OrderBook.sol\":6622:6637  address payable */\n      0x00\n        /* \"contracts/OrderBook.sol\":6656:6663  askBook */\n      0x03\n        /* \"contracts/OrderBook.sol\":6664:6666  id */\n      dup3\n        /* \"contracts/OrderBook.sol\":6656:6667  askBook[id] */\n      dup2\n      sload\n      dup2\n      lt\n      tag_200\n      jumpi\n      tag_201\n      tag_106\n      jump\t// in\n    tag_201:\n    tag_200:\n      swap1\n      0x00\n      mstore\n      keccak256(0x00, 0x20)\n      swap1\n      0x04\n      mul\n      add\n        /* \"contracts/OrderBook.sol\":6656:6676  askBook[id].customer */\n      0x00\n      add\n      0x00\n      swap1\n      sload\n      swap1\n      0x0100\n      exp\n      swap1\n      div\n      0xffffffffffffffffffffffffffffffffffffffff\n      and\n        /* \"contracts/OrderBook.sol\":6649:6676  return askBook[id].customer */\n      swap1\n      pop\n        /* \"contracts/OrderBook.sol\":6569:6683  function getAskAddress (uint id) public view returns(address payable) {... */\n      swap2\n      swap1\n      pop\n      jump\t// out\n        /* \"contracts/OrderBook.sol\":4794:5339  function placeAsk (uint256 price) public payable {... */\n    tag_72:\n        /* \"contracts/OrderBook.sol\":4870:4871  0 */\n      0x00\n        /* \"contracts/OrderBook.sol\":4861:4866  price */\n      dup2\n        /* \"contracts/OrderBook.sol\":4861:4871  price >= 0 */\n      lt\n      iszero\n        /* \"contracts/OrderBook.sol\":4853:4907  require(price >= 0, \"price value must be more than 0\") */\n      tag_204\n      jumpi\n      mload(0x40)\n      0x08c379a000000000000000000000000000000000000000000000000000000000\n      dup2\n      mstore\n      0x04\n      add\n      tag_205\n      swap1\n      tag_206\n      jump\t// in\n    tag_205:\n      mload(0x40)\n      dup1\n      swap2\n      sub\n      swap1\n      revert\n    tag_204:\n        /* \"contracts/OrderBook.sol\":4938:4943  price */\n      dup1\n        /* \"contracts/OrderBook.sol\":4925:4934  msg.value */\n      callvalue\n        /* \"contracts/OrderBook.sol\":4925:4943  msg.value >= price */\n      lt\n      iszero\n        /* \"contracts/OrderBook.sol\":4917:4978  require(msg.value >= price, \"Not enough blance to place ask\") */\n      tag_207\n      jumpi\n      mload(0x40)\n      0x08c379a000000000000000000000000000000000000000000000000000000000\n      dup2\n      mstore\n      0x04\n      add\n      tag_208\n      swap1\n      tag_209\n      jump\t// in\n    tag_208:\n      mload(0x40)\n      dup1\n      swap2\n      sub\n      swap1\n      revert\n    tag_207:\n        /* \"contracts/OrderBook.sol\":4988:5000  uint256 time */\n      0x00\n        /* \"contracts/OrderBook.sol\":5003:5018  block.timestamp */\n      timestamp\n        /* \"contracts/OrderBook.sol\":4988:5018  uint256 time = block.timestamp */\n      swap1\n      pop\n        /* \"contracts/OrderBook.sol\":5028:5053  uint256 commissionedPrice */\n      0x00\n        /* \"contracts/OrderBook.sol\":5087:5090  100 */\n      0x64\n        /* \"contracts/OrderBook.sol\":5073:5083  commission */\n      sload(0x01)\n        /* \"contracts/OrderBook.sol\":5069:5072  100 */\n      0x64\n        /* \"contracts/OrderBook.sol\":5069:5083  100-commission */\n      tag_210\n      swap2\n      swap1\n      tag_165\n      jump\t// in\n    tag_210:\n        /* \"contracts/OrderBook.sol\":5056:5065  msg.value */\n      callvalue\n        /* \"contracts/OrderBook.sol\":5056:5084  msg.value * (100-commission) */\n      tag_211\n      swap2\n      swap1\n      tag_212\n      jump\t// in\n    tag_211:\n        /* \"contracts/OrderBook.sol\":5056:5090  msg.value * (100-commission) / 100 */\n      tag_213\n      swap2\n      swap1\n      tag_214\n      jump\t// in\n    tag_213:\n        /* \"contracts/OrderBook.sol\":5028:5090  uint256 commissionedPrice = msg.value * (100-commission) / 100 */\n      swap1\n      pop\n        /* \"contracts/OrderBook.sol\":5100:5119  order memory newBid */\n      0x00\n        /* \"contracts/OrderBook.sol\":5122:5185  order(payable(msg.sender),commissionedPrice,time,State.pending) */\n      mload(0x40)\n      dup1\n      0x80\n      add\n      0x40\n      mstore\n      dup1\n        /* \"contracts/OrderBook.sol\":5136:5146  msg.sender */\n      caller\n        /* \"contracts/OrderBook.sol\":5122:5185  order(payable(msg.sender),commissionedPrice,time,State.pending) */\n      0xffffffffffffffffffffffffffffffffffffffff\n      and\n      dup2\n      mstore\n      0x20\n      add\n        /* \"contracts/OrderBook.sol\":5148:5165  commissionedPrice */\n      dup4\n        /* \"contracts/OrderBook.sol\":5122:5185  order(payable(msg.sender),commissionedPrice,time,State.pending) */\n      dup2\n      mstore\n      0x20\n      add\n        /* \"contracts/OrderBook.sol\":5166:5170  time */\n      dup5\n        /* \"contracts/OrderBook.sol\":5122:5185  order(payable(msg.sender),commissionedPrice,time,State.pending) */\n      dup2\n      mstore\n      0x20\n      add\n        /* \"contracts/OrderBook.sol\":5171:5184  State.pending */\n      0x00\n        /* \"contracts/OrderBook.sol\":5122:5185  order(payable(msg.sender),commissionedPrice,time,State.pending) */\n      0x01\n      dup2\n      gt\n      iszero\n      tag_215\n      jumpi\n      tag_216\n      tag_119\n      jump\t// in\n    tag_216:\n    tag_215:\n      dup2\n      mstore\n      pop\n        /* \"contracts/OrderBook.sol\":5100:5185  order memory newBid = order(payable(msg.sender),commissionedPrice,time,State.pending) */\n      swap1\n      pop\n        /* \"contracts/OrderBook.sol\":5195:5202  askBook */\n      0x03\n        /* \"contracts/OrderBook.sol\":5208:5214  newBid */\n      dup2\n        /* \"contracts/OrderBook.sol\":5195:5215  askBook.push(newBid) */\n      swap1\n      dup1\n      0x01\n      dup2\n      sload\n      add\n      dup1\n      dup3\n      sstore\n      dup1\n      swap2\n      pop\n      pop\n      0x01\n      swap1\n      sub\n      swap1\n      0x00\n      mstore\n      keccak256(0x00, 0x20)\n      swap1\n      0x04\n      mul\n      add\n      0x00\n      swap1\n      swap2\n      swap1\n      swap2\n      swap1\n      swap2\n      pop\n      0x00\n      dup3\n      add\n      mload\n      dup2\n      0x00\n      add\n      exp(0x0100, 0x00)\n      dup2\n      sload\n      dup2\n      0xffffffffffffffffffffffffffffffffffffffff\n      mul\n      not\n      and\n      swap1\n      dup4\n      0xffffffffffffffffffffffffffffffffffffffff\n      and\n      mul\n      or\n      swap1\n      sstore\n      pop\n      0x20\n      dup3\n      add\n      mload\n      dup2\n      0x01\n      add\n      sstore\n      0x40\n      dup3\n      add\n      mload\n      dup2\n      0x02\n      add\n      sstore\n      0x60\n      dup3\n      add\n      mload\n      dup2\n      0x03\n      add\n      exp(0x0100, 0x00)\n      dup2\n      sload\n      dup2\n      0xff\n      mul\n      not\n      and\n      swap1\n      dup4\n      0x01\n      dup2\n      gt\n      iszero\n      tag_218\n      jumpi\n      tag_219\n      tag_119\n      jump\t// in\n    tag_219:\n    tag_218:\n      mul\n      or\n      swap1\n      sstore\n      pop\n      pop\n      pop\n        /* \"contracts/OrderBook.sol\":5225:5231  _owner */\n      0x00\n      dup1\n      sload\n      swap1\n      0x0100\n      exp\n      swap1\n      div\n      0xffffffffffffffffffffffffffffffffffffffff\n      and\n        /* \"contracts/OrderBook.sol\":5225:5240  _owner.transfer */\n      0xffffffffffffffffffffffffffffffffffffffff\n      and\n        /* \"contracts/OrderBook.sol\":5225:5259  _owner.transfer(commissionedPrice) */\n      0x08fc\n        /* \"contracts/OrderBook.sol\":5241:5258  commissionedPrice */\n      dup4\n        /* \"contracts/OrderBook.sol\":5225:5259  _owner.transfer(commissionedPrice) */\n      swap1\n      dup2\n      iszero\n      mul\n      swap1\n      mload(0x40)\n      0x00\n      mload(0x40)\n      dup1\n      dup4\n      sub\n      dup2\n      dup6\n      dup9\n      dup9\n      call\n      swap4\n      pop\n      pop\n      pop\n      pop\n      iszero\n      dup1\n      iszero\n      tag_221\n      jumpi\n      returndatasize\n      0x00\n      dup1\n      returndatacopy\n      revert(0x00, returndatasize)\n    tag_221:\n      pop\n        /* \"contracts/OrderBook.sol\":5274:5332  askPlaced(msg.sender,commissionedPrice,time,State.pending) */\n      0xc2125a7f3edfeff7a3bbcfe393c5aa3a6589585d4a7ee70db48c34f67c8209e2\n        /* \"contracts/OrderBook.sol\":5284:5294  msg.sender */\n      caller\n        /* \"contracts/OrderBook.sol\":5295:5312  commissionedPrice */\n      dup4\n        /* \"contracts/OrderBook.sol\":5313:5317  time */\n      dup6\n        /* \"contracts/OrderBook.sol\":5318:5331  State.pending */\n      0x00\n        /* \"contracts/OrderBook.sol\":5274:5332  askPlaced(msg.sender,commissionedPrice,time,State.pending) */\n      mload(0x40)\n      tag_222\n      swap5\n      swap4\n      swap3\n      swap2\n      swap1\n      tag_223\n      jump\t// in\n    tag_222:\n      mload(0x40)\n      dup1\n      swap2\n      sub\n      swap1\n      log1\n        /* \"contracts/OrderBook.sol\":4843:5339  {... */\n      pop\n      pop\n      pop\n        /* \"contracts/OrderBook.sol\":4794:5339  function placeAsk (uint256 price) public payable {... */\n      pop\n      jump\t// out\n        /* \"contracts/OrderBook.sol\":4520:4788  function cancelBid (uint bidId) public isPending(bidBook[bidId]) isAuthorised(bidBook[bidId], msg.sender) {... */\n    tag_76:\n        /* \"contracts/OrderBook.sol\":4569:4576  bidBook */\n      0x02\n        /* \"contracts/OrderBook.sol\":4577:4582  bidId */\n      dup2\n        /* \"contracts/OrderBook.sol\":4569:4583  bidBook[bidId] */\n      dup2\n      sload\n      dup2\n      lt\n      tag_224\n      jumpi\n      tag_225\n      tag_106\n      jump\t// in\n    tag_225:\n    tag_224:\n      swap1\n      0x00\n      mstore\n      keccak256(0x00, 0x20)\n      swap1\n      0x04\n      mul\n      add\n        /* \"contracts/OrderBook.sol\":1818:1941  modifier isPending(order memory _order) {... */\n      mload(0x40)\n      dup1\n      0x80\n      add\n      0x40\n      mstore\n      swap1\n      dup2\n      0x00\n      dup3\n      add\n      0x00\n      swap1\n      sload\n      swap1\n      0x0100\n      exp\n      swap1\n      div\n      0xffffffffffffffffffffffffffffffffffffffff\n      and\n      0xffffffffffffffffffffffffffffffffffffffff\n      and\n      0xffffffffffffffffffffffffffffffffffffffff\n      and\n      dup2\n      mstore\n      0x20\n      add\n      0x01\n      dup3\n      add\n      sload\n      dup2\n      mstore\n      0x20\n      add\n      0x02\n      dup3\n      add\n      sload\n      dup2\n      mstore\n      0x20\n      add\n      0x03\n      dup3\n      add\n      0x00\n      swap1\n      sload\n      swap1\n      0x0100\n      exp\n      swap1\n      div\n      0xff\n      and\n      0x01\n      dup2\n      gt\n      iszero\n      tag_227\n      jumpi\n      tag_228\n      tag_119\n      jump\t// in\n    tag_228:\n    tag_227:\n      0x01\n      dup2\n      gt\n      iszero\n      tag_229\n      jumpi\n      tag_230\n      tag_119\n      jump\t// in\n    tag_230:\n    tag_229:\n      dup2\n      mstore\n      pop\n      pop\n        /* \"contracts/OrderBook.sol\":1892:1905  State.pending */\n      0x00\n        /* \"contracts/OrderBook.sol\":1876:1905  _order.state == State.pending */\n      0x01\n      dup2\n      gt\n      iszero\n      tag_232\n      jumpi\n      tag_233\n      tag_119\n      jump\t// in\n    tag_233:\n    tag_232:\n        /* \"contracts/OrderBook.sol\":1876:1882  _order */\n      dup2\n        /* \"contracts/OrderBook.sol\":1876:1888  _order.state */\n      0x60\n      add\n      mload\n        /* \"contracts/OrderBook.sol\":1876:1905  _order.state == State.pending */\n      0x01\n      dup2\n      gt\n      iszero\n      tag_234\n      jumpi\n      tag_235\n      tag_119\n      jump\t// in\n    tag_235:\n    tag_234:\n      eq\n        /* \"contracts/OrderBook.sol\":1868:1923  require(_order.state == State.pending, \"Order Pending\") */\n      tag_236\n      jumpi\n      mload(0x40)\n      0x08c379a000000000000000000000000000000000000000000000000000000000\n      dup2\n      mstore\n      0x04\n      add\n      tag_237\n      swap1\n      tag_129\n      jump\t// in\n    tag_237:\n      mload(0x40)\n      dup1\n      swap2\n      sub\n      swap1\n      revert\n    tag_236:\n        /* \"contracts/OrderBook.sol\":4598:4605  bidBook */\n      0x02\n        /* \"contracts/OrderBook.sol\":4606:4611  bidId */\n      dup3\n        /* \"contracts/OrderBook.sol\":4598:4612  bidBook[bidId] */\n      dup2\n      sload\n      dup2\n      lt\n      tag_238\n      jumpi\n      tag_239\n      tag_106\n      jump\t// in\n    tag_239:\n    tag_238:\n      swap1\n      0x00\n      mstore\n      keccak256(0x00, 0x20)\n      swap1\n      0x04\n      mul\n      add\n        /* \"contracts/OrderBook.sol\":1947:2086  modifier isAuthorised(order memory _order, address sender) {... */\n      mload(0x40)\n      dup1\n      0x80\n      add\n      0x40\n      mstore\n      swap1\n      dup2\n      0x00\n      dup3\n      add\n      0x00\n      swap1\n      sload\n      swap1\n      0x0100\n      exp\n      swap1\n      div\n      0xffffffffffffffffffffffffffffffffffffffff\n      and\n      0xffffffffffffffffffffffffffffffffffffffff\n      and\n      0xffffffffffffffffffffffffffffffffffffffff\n      and\n      dup2\n      mstore\n      0x20\n      add\n      0x01\n      dup3\n      add\n      sload\n      dup2\n      mstore\n      0x20\n      add\n      0x02\n      dup3\n      add\n      sload\n      dup2\n      mstore\n      0x20\n      add\n      0x03\n      dup3\n      add\n      0x00\n      swap1\n      sload\n      swap1\n      0x0100\n      exp\n      swap1\n      div\n      0xff\n      and\n      0x01\n      dup2\n      gt\n      iszero\n      tag_241\n      jumpi\n      tag_242\n      tag_119\n      jump\t// in\n    tag_242:\n    tag_241:\n      0x01\n      dup2\n      gt\n      iszero\n      tag_243\n      jumpi\n      tag_244\n      tag_119\n      jump\t// in\n    tag_244:\n    tag_243:\n      dup2\n      mstore\n      pop\n      pop\n        /* \"contracts/OrderBook.sol\":4614:4624  msg.sender */\n      caller\n        /* \"contracts/OrderBook.sol\":2043:2049  sender */\n      dup1\n        /* \"contracts/OrderBook.sol\":2024:2049  _order.customer == sender */\n      0xffffffffffffffffffffffffffffffffffffffff\n      and\n        /* \"contracts/OrderBook.sol\":2024:2030  _order */\n      dup3\n        /* \"contracts/OrderBook.sol\":2024:2039  _order.customer */\n      0x00\n      add\n      mload\n        /* \"contracts/OrderBook.sol\":2024:2049  _order.customer == sender */\n      0xffffffffffffffffffffffffffffffffffffffff\n      and\n      eq\n        /* \"contracts/OrderBook.sol\":2016:2068  require(_order.customer == sender, \"Not Authorised\") */\n      tag_246\n      jumpi\n      mload(0x40)\n      0x08c379a000000000000000000000000000000000000000000000000000000000\n      dup2\n      mstore\n      0x04\n      add\n      tag_247\n      swap1\n      tag_140\n      jump\t// in\n    tag_247:\n      mload(0x40)\n      dup1\n      swap2\n      sub\n      swap1\n      revert\n    tag_246:\n        /* \"contracts/OrderBook.sol\":4636:4643  bidBook */\n      0x02\n        /* \"contracts/OrderBook.sol\":4644:4649  bidId */\n      dup5\n        /* \"contracts/OrderBook.sol\":4636:4650  bidBook[bidId] */\n      dup2\n      sload\n      dup2\n      lt\n      tag_249\n      jumpi\n      tag_250\n      tag_106\n      jump\t// in\n    tag_250:\n    tag_249:\n      swap1\n      0x00\n      mstore\n      keccak256(0x00, 0x20)\n      swap1\n      0x04\n      mul\n      add\n        /* \"contracts/OrderBook.sol\":4636:4659  bidBook[bidId].customer */\n      0x00\n      add\n      0x00\n      swap1\n      sload\n      swap1\n      0x0100\n      exp\n      swap1\n      div\n      0xffffffffffffffffffffffffffffffffffffffff\n      and\n        /* \"contracts/OrderBook.sol\":4636:4668  bidBook[bidId].customer.transfer */\n      0xffffffffffffffffffffffffffffffffffffffff\n      and\n        /* \"contracts/OrderBook.sol\":4636:4690  bidBook[bidId].customer.transfer(bidBook[bidId].value) */\n      0x08fc\n        /* \"contracts/OrderBook.sol\":4669:4676  bidBook */\n      0x02\n        /* \"contracts/OrderBook.sol\":4677:4682  bidId */\n      dup7\n        /* \"contracts/OrderBook.sol\":4669:4683  bidBook[bidId] */\n      dup2\n      sload\n      dup2\n      lt\n      tag_252\n      jumpi\n      tag_253\n      tag_106\n      jump\t// in\n    tag_253:\n    tag_252:\n      swap1\n      0x00\n      mstore\n      keccak256(0x00, 0x20)\n      swap1\n      0x04\n      mul\n      add\n        /* \"contracts/OrderBook.sol\":4669:4689  bidBook[bidId].value */\n      0x01\n      add\n      sload\n        /* \"contracts/OrderBook.sol\":4636:4690  bidBook[bidId].customer.transfer(bidBook[bidId].value) */\n      swap1\n      dup2\n      iszero\n      mul\n      swap1\n      mload(0x40)\n      0x00\n      mload(0x40)\n      dup1\n      dup4\n      sub\n      dup2\n      dup6\n      dup9\n      dup9\n      call\n      swap4\n      pop\n      pop\n      pop\n      pop\n      iszero\n      dup1\n      iszero\n      tag_256\n      jumpi\n      returndatasize\n      0x00\n      dup1\n      returndatacopy\n      revert(0x00, returndatasize)\n    tag_256:\n      pop\n        /* \"contracts/OrderBook.sol\":4707:4714  bidBook */\n      0x02\n        /* \"contracts/OrderBook.sol\":4715:4720  bidId */\n      dup5\n        /* \"contracts/OrderBook.sol\":4707:4721  bidBook[bidId] */\n      dup2\n      sload\n      dup2\n      lt\n      tag_257\n      jumpi\n      tag_258\n      tag_106\n      jump\t// in\n    tag_258:\n    tag_257:\n      swap1\n      0x00\n      mstore\n      keccak256(0x00, 0x20)\n      swap1\n      0x04\n      mul\n      add\n      0x00\n        /* \"contracts/OrderBook.sol\":4700:4721  delete bidBook[bidId] */\n      dup1\n      dup3\n      add\n      exp(0x0100, 0x00)\n      dup2\n      sload\n      swap1\n      0xffffffffffffffffffffffffffffffffffffffff\n      mul\n      not\n      and\n      swap1\n      sstore\n      0x01\n      dup3\n      add\n      0x00\n      swap1\n      sstore\n      0x02\n      dup3\n      add\n      0x00\n      swap1\n      sstore\n      0x03\n      dup3\n      add\n      exp(0x0100, 0x00)\n      dup2\n      sload\n      swap1\n      0xff\n      mul\n      not\n      and\n      swap1\n      sstore\n      pop\n      pop\n        /* \"contracts/OrderBook.sol\":4731:4747  sortBid(bidBook) */\n      tag_260\n        /* \"contracts/OrderBook.sol\":4739:4746  bidBook */\n      0x02\n        /* \"contracts/OrderBook.sol\":4731:4747  sortBid(bidBook) */\n      dup1\n      sload\n      dup1\n      0x20\n      mul\n      0x20\n      add\n      mload(0x40)\n      swap1\n      dup2\n      add\n      0x40\n      mstore\n      dup1\n      swap3\n      swap2\n      swap1\n      dup2\n      dup2\n      mstore\n      0x20\n      add\n      0x00\n      swap1\n    tag_261:\n      dup3\n      dup3\n      lt\n      iszero\n      tag_262\n      jumpi\n      dup4\n      dup3\n      swap1\n      0x00\n      mstore\n      keccak256(0x00, 0x20)\n      swap1\n      0x04\n      mul\n      add\n      mload(0x40)\n      dup1\n      0x80\n      add\n      0x40\n      mstore\n      swap1\n      dup2\n      0x00\n      dup3\n      add\n      0x00\n      swap1\n      sload\n      swap1\n      0x0100\n      exp\n      swap1\n      div\n      0xffffffffffffffffffffffffffffffffffffffff\n      and\n      0xffffffffffffffffffffffffffffffffffffffff\n      and\n      0xffffffffffffffffffffffffffffffffffffffff\n      and\n      dup2\n      mstore\n      0x20\n      add\n      0x01\n      dup3\n      add\n      sload\n      dup2\n      mstore\n      0x20\n      add\n      0x02\n      dup3\n      add\n      sload\n      dup2\n      mstore\n      0x20\n      add\n      0x03\n      dup3\n      add\n      0x00\n      swap1\n      sload\n      swap1\n      0x0100\n      exp\n      swap1\n      div\n      0xff\n      and\n      0x01\n      dup2\n      gt\n      iszero\n      tag_264\n      jumpi\n      tag_265\n      tag_119\n      jump\t// in\n    tag_265:\n    tag_264:\n      0x01\n      dup2\n      gt\n      iszero\n      tag_266\n      jumpi\n      tag_267\n      tag_119\n      jump\t// in\n    tag_267:\n    tag_266:\n      dup2\n      mstore\n      pop\n      pop\n      dup2\n      mstore\n      0x20\n      add\n      swap1\n      0x01\n      add\n      swap1\n      jump(tag_261)\n    tag_262:\n      pop\n      pop\n      pop\n      pop\n        /* \"contracts/OrderBook.sol\":4731:4738  sortBid */\n      tag_35\n        /* \"contracts/OrderBook.sol\":4731:4747  sortBid(bidBook) */\n      jump\t// in\n    tag_260:\n      pop\n        /* \"contracts/OrderBook.sol\":4762:4781  bidCancelled(bidId) */\n      0xc845a6832afa0a4048dd70bbba2186093508a6b63a8d5d70a508f819fef257f8\n        /* \"contracts/OrderBook.sol\":4775:4780  bidId */\n      dup5\n        /* \"contracts/OrderBook.sol\":4762:4781  bidCancelled(bidId) */\n      mload(0x40)\n      tag_268\n      swap2\n      swap1\n      tag_43\n      jump\t// in\n    tag_268:\n      mload(0x40)\n      dup1\n      swap2\n      sub\n      swap1\n      log1\n        /* \"contracts/OrderBook.sol\":1933:1934  _ */\n      pop\n      pop\n        /* \"contracts/OrderBook.sol\":4520:4788  function cancelBid (uint bidId) public isPending(bidBook[bidId]) isAuthorised(bidBook[bidId], msg.sender) {... */\n      pop\n      pop\n      jump\t// out\n        /* \"contracts/OrderBook.sol\":3969:4514  function placeBid (uint256 price) public payable {... */\n    tag_79:\n        /* \"contracts/OrderBook.sol\":4045:4046  0 */\n      0x00\n        /* \"contracts/OrderBook.sol\":4036:4041  price */\n      dup2\n        /* \"contracts/OrderBook.sol\":4036:4046  price >= 0 */\n      lt\n      iszero\n        /* \"contracts/OrderBook.sol\":4028:4082  require(price >= 0, \"price value must be more than 0\") */\n      tag_270\n      jumpi\n      mload(0x40)\n      0x08c379a000000000000000000000000000000000000000000000000000000000\n      dup2\n      mstore\n      0x04\n      add\n      tag_271\n      swap1\n      tag_206\n      jump\t// in\n    tag_271:\n      mload(0x40)\n      dup1\n      swap2\n      sub\n      swap1\n      revert\n    tag_270:\n        /* \"contracts/OrderBook.sol\":4113:4118  price */\n      dup1\n        /* \"contracts/OrderBook.sol\":4100:4109  msg.value */\n      callvalue\n        /* \"contracts/OrderBook.sol\":4100:4118  msg.value >= price */\n      lt\n      iszero\n        /* \"contracts/OrderBook.sol\":4092:4153  require(msg.value >= price, \"Not enough blance to place bid\") */\n      tag_272\n      jumpi\n      mload(0x40)\n      0x08c379a000000000000000000000000000000000000000000000000000000000\n      dup2\n      mstore\n      0x04\n      add\n      tag_273\n      swap1\n      tag_274\n      jump\t// in\n    tag_273:\n      mload(0x40)\n      dup1\n      swap2\n      sub\n      swap1\n      revert\n    tag_272:\n        /* \"contracts/OrderBook.sol\":4163:4175  uint256 time */\n      0x00\n        /* \"contracts/OrderBook.sol\":4178:4193  block.timestamp */\n      timestamp\n        /* \"contracts/OrderBook.sol\":4163:4193  uint256 time = block.timestamp */\n      swap1\n      pop\n        /* \"contracts/OrderBook.sol\":4203:4228  uint256 commissionedPrice */\n      0x00\n        /* \"contracts/OrderBook.sol\":4262:4265  100 */\n      0x64\n        /* \"contracts/OrderBook.sol\":4248:4258  commission */\n      sload(0x01)\n        /* \"contracts/OrderBook.sol\":4244:4247  100 */\n      0x64\n        /* \"contracts/OrderBook.sol\":4244:4258  100-commission */\n      tag_275\n      swap2\n      swap1\n      tag_165\n      jump\t// in\n    tag_275:\n        /* \"contracts/OrderBook.sol\":4231:4240  msg.value */\n      callvalue\n        /* \"contracts/OrderBook.sol\":4231:4259  msg.value * (100-commission) */\n      tag_276\n      swap2\n      swap1\n      tag_212\n      jump\t// in\n    tag_276:\n        /* \"contracts/OrderBook.sol\":4231:4265  msg.value * (100-commission) / 100 */\n      tag_277\n      swap2\n      swap1\n      tag_214\n      jump\t// in\n    tag_277:\n        /* \"contracts/OrderBook.sol\":4203:4265  uint256 commissionedPrice = msg.value * (100-commission) / 100 */\n      swap1\n      pop\n        /* \"contracts/OrderBook.sol\":4275:4294  order memory newBid */\n      0x00\n        /* \"contracts/OrderBook.sol\":4297:4360  order(payable(msg.sender),commissionedPrice,time,State.pending) */\n      mload(0x40)\n      dup1\n      0x80\n      add\n      0x40\n      mstore\n      dup1\n        /* \"contracts/OrderBook.sol\":4311:4321  msg.sender */\n      caller\n        /* \"contracts/OrderBook.sol\":4297:4360  order(payable(msg.sender),commissionedPrice,time,State.pending) */\n      0xffffffffffffffffffffffffffffffffffffffff\n      and\n      dup2\n      mstore\n      0x20\n      add\n        /* \"contracts/OrderBook.sol\":4323:4340  commissionedPrice */\n      dup4\n        /* \"contracts/OrderBook.sol\":4297:4360  order(payable(msg.sender),commissionedPrice,time,State.pending) */\n      dup2\n      mstore\n      0x20\n      add\n        /* \"contracts/OrderBook.sol\":4341:4345  time */\n      dup5\n        /* \"contracts/OrderBook.sol\":4297:4360  order(payable(msg.sender),commissionedPrice,time,State.pending) */\n      dup2\n      mstore\n      0x20\n      add\n        /* \"contracts/OrderBook.sol\":4346:4359  State.pending */\n      0x00\n        /* \"contracts/OrderBook.sol\":4297:4360  order(payable(msg.sender),commissionedPrice,time,State.pending) */\n      0x01\n      dup2\n      gt\n      iszero\n      tag_278\n      jumpi\n      tag_279\n      tag_119\n      jump\t// in\n    tag_279:\n    tag_278:\n      dup2\n      mstore\n      pop\n        /* \"contracts/OrderBook.sol\":4275:4360  order memory newBid = order(payable(msg.sender),commissionedPrice,time,State.pending) */\n      swap1\n      pop\n        /* \"contracts/OrderBook.sol\":4370:4377  bidBook */\n      0x02\n        /* \"contracts/OrderBook.sol\":4383:4389  newBid */\n      dup2\n        /* \"contracts/OrderBook.sol\":4370:4390  bidBook.push(newBid) */\n      swap1\n      dup1\n      0x01\n      dup2\n      sload\n      add\n      dup1\n      dup3\n      sstore\n      dup1\n      swap2\n      pop\n      pop\n      0x01\n      swap1\n      sub\n      swap1\n      0x00\n      mstore\n      keccak256(0x00, 0x20)\n      swap1\n      0x04\n      mul\n      add\n      0x00\n      swap1\n      swap2\n      swap1\n      swap2\n      swap1\n      swap2\n      pop\n      0x00\n      dup3\n      add\n      mload\n      dup2\n      0x00\n      add\n      exp(0x0100, 0x00)\n      dup2\n      sload\n      dup2\n      0xffffffffffffffffffffffffffffffffffffffff\n      mul\n      not\n      and\n      swap1\n      dup4\n      0xffffffffffffffffffffffffffffffffffffffff\n      and\n      mul\n      or\n      swap1\n      sstore\n      pop\n      0x20\n      dup3\n      add\n      mload\n      dup2\n      0x01\n      add\n      sstore\n      0x40\n      dup3\n      add\n      mload\n      dup2\n      0x02\n      add\n      sstore\n      0x60\n      dup3\n      add\n      mload\n      dup2\n      0x03\n      add\n      exp(0x0100, 0x00)\n      dup2\n      sload\n      dup2\n      0xff\n      mul\n      not\n      and\n      swap1\n      dup4\n      0x01\n      dup2\n      gt\n      iszero\n      tag_281\n      jumpi\n      tag_282\n      tag_119\n      jump\t// in\n    tag_282:\n    tag_281:\n      mul\n      or\n      swap1\n      sstore\n      pop\n      pop\n      pop\n        /* \"contracts/OrderBook.sol\":4400:4406  _owner */\n      0x00\n      dup1\n      sload\n      swap1\n      0x0100\n      exp\n      swap1\n      div\n      0xffffffffffffffffffffffffffffffffffffffff\n      and\n        /* \"contracts/OrderBook.sol\":4400:4415  _owner.transfer */\n      0xffffffffffffffffffffffffffffffffffffffff\n      and\n        /* \"contracts/OrderBook.sol\":4400:4434  _owner.transfer(commissionedPrice) */\n      0x08fc\n        /* \"contracts/OrderBook.sol\":4416:4433  commissionedPrice */\n      dup4\n        /* \"contracts/OrderBook.sol\":4400:4434  _owner.transfer(commissionedPrice) */\n      swap1\n      dup2\n      iszero\n      mul\n      swap1\n      mload(0x40)\n      0x00\n      mload(0x40)\n      dup1\n      dup4\n      sub\n      dup2\n      dup6\n      dup9\n      dup9\n      call\n      swap4\n      pop\n      pop\n      pop\n      pop\n      iszero\n      dup1\n      iszero\n      tag_284\n      jumpi\n      returndatasize\n      0x00\n      dup1\n      returndatacopy\n      revert(0x00, returndatasize)\n    tag_284:\n      pop\n        /* \"contracts/OrderBook.sol\":4449:4507  bidPlaced(msg.sender,commissionedPrice,time,State.pending) */\n      0xa64806d6d5d480697a0b11c92b915a4ff7b93c0be28171d65d30041a0c360d04\n        /* \"contracts/OrderBook.sol\":4459:4469  msg.sender */\n      caller\n        /* \"contracts/OrderBook.sol\":4470:4487  commissionedPrice */\n      dup4\n        /* \"contracts/OrderBook.sol\":4488:4492  time */\n      dup6\n        /* \"contracts/OrderBook.sol\":4493:4506  State.pending */\n      0x00\n        /* \"contracts/OrderBook.sol\":4449:4507  bidPlaced(msg.sender,commissionedPrice,time,State.pending) */\n      mload(0x40)\n      tag_285\n      swap5\n      swap4\n      swap3\n      swap2\n      swap1\n      tag_223\n      jump\t// in\n    tag_285:\n      mload(0x40)\n      dup1\n      swap2\n      sub\n      swap1\n      log1\n        /* \"contracts/OrderBook.sol\":4018:4514  {... */\n      pop\n      pop\n      pop\n        /* \"contracts/OrderBook.sol\":3969:4514  function placeBid (uint256 price) public payable {... */\n      pop\n      jump\t// out\n        /* \"contracts/OrderBook.sol\":6903:7002  function getBidState (uint id) public view returns(State) {... */\n    tag_83:\n        /* \"contracts/OrderBook.sol\":6954:6959  State */\n      0x00\n        /* \"contracts/OrderBook.sol\":6978:6985  bidBook */\n      0x02\n        /* \"contracts/OrderBook.sol\":6986:6988  id */\n      dup3\n        /* \"contracts/OrderBook.sol\":6978:6989  bidBook[id] */\n      dup2\n      sload\n      dup2\n      lt\n      tag_287\n      jumpi\n      tag_288\n      tag_106\n      jump\t// in\n    tag_288:\n    tag_287:\n      swap1\n      0x00\n      mstore\n      keccak256(0x00, 0x20)\n      swap1\n      0x04\n      mul\n      add\n        /* \"contracts/OrderBook.sol\":6978:6995  bidBook[id].state */\n      0x03\n      add\n      0x00\n      swap1\n      sload\n      swap1\n      0x0100\n      exp\n      swap1\n      div\n      0xff\n      and\n        /* \"contracts/OrderBook.sol\":6971:6995  return bidBook[id].state */\n      swap1\n      pop\n        /* \"contracts/OrderBook.sol\":6903:7002  function getBidState (uint id) public view returns(State) {... */\n      swap2\n      swap1\n      pop\n      jump\t// out\n        /* \"contracts/OrderBook.sol\":5771:5883  function fetchAllAsk() public returns (order[] memory) {... */\n    tag_87:\n        /* \"contracts/OrderBook.sol\":5810:5824  order[] memory */\n      0x60\n        /* \"contracts/OrderBook.sol\":5836:5852  sortAsk(askBook) */\n      tag_291\n        /* \"contracts/OrderBook.sol\":5844:5851  askBook */\n      0x03\n        /* \"contracts/OrderBook.sol\":5836:5852  sortAsk(askBook) */\n      dup1\n      sload\n      dup1\n      0x20\n      mul\n      0x20\n      add\n      mload(0x40)\n      swap1\n      dup2\n      add\n      0x40\n      mstore\n      dup1\n      swap3\n      swap2\n      swap1\n      dup2\n      dup2\n      mstore\n      0x20\n      add\n      0x00\n      swap1\n    tag_292:\n      dup3\n      dup3\n      lt\n      iszero\n      tag_293\n      jumpi\n      dup4\n      dup3\n      swap1\n      0x00\n      mstore\n      keccak256(0x00, 0x20)\n      swap1\n      0x04\n      mul\n      add\n      mload(0x40)\n      dup1\n      0x80\n      add\n      0x40\n      mstore\n      swap1\n      dup2\n      0x00\n      dup3\n      add\n      0x00\n      swap1\n      sload\n      swap1\n      0x0100\n      exp\n      swap1\n      div\n      0xffffffffffffffffffffffffffffffffffffffff\n      and\n      0xffffffffffffffffffffffffffffffffffffffff\n      and\n      0xffffffffffffffffffffffffffffffffffffffff\n      and\n      dup2\n      mstore\n      0x20\n      add\n      0x01\n      dup3\n      add\n      sload\n      dup2\n      mstore\n      0x20\n      add\n      0x02\n      dup3\n      add\n      sload\n      dup2\n      mstore\n      0x20\n      add\n      0x03\n      dup3\n      add\n      0x00\n      swap1\n      sload\n      swap1\n      0x0100\n      exp\n      swap1\n      div\n      0xff\n      and\n      0x01\n      dup2\n      gt\n      iszero\n      tag_295\n      jumpi\n      tag_296\n      tag_119\n      jump\t// in\n    tag_296:\n    tag_295:\n      0x01\n      dup2\n      gt\n      iszero\n      tag_297\n      jumpi\n      tag_298\n      tag_119\n      jump\t// in\n    tag_298:\n    tag_297:\n      dup2\n      mstore\n      pop\n      pop\n      dup2\n      mstore\n      0x20\n      add\n      swap1\n      0x01\n      add\n      swap1\n      jump(tag_292)\n    tag_293:\n      pop\n      pop\n      pop\n      pop\n        /* \"contracts/OrderBook.sol\":5836:5843  sortAsk */\n      tag_63\n        /* \"contracts/OrderBook.sol\":5836:5852  sortAsk(askBook) */\n      jump\t// in\n    tag_291:\n      pop\n        /* \"contracts/OrderBook.sol\":5869:5876  askBook */\n      0x03\n        /* \"contracts/OrderBook.sol\":5862:5876  return askBook */\n      dup1\n      sload\n      dup1\n      0x20\n      mul\n      0x20\n      add\n      mload(0x40)\n      swap1\n      dup2\n      add\n      0x40\n      mstore\n      dup1\n      swap3\n      swap2\n      swap1\n      dup2\n      dup2\n      mstore\n      0x20\n      add\n      0x00\n      swap1\n    tag_299:\n      dup3\n      dup3\n      lt\n      iszero\n      tag_300\n      jumpi\n      dup4\n      dup3\n      swap1\n      0x00\n      mstore\n      keccak256(0x00, 0x20)\n      swap1\n      0x04\n      mul\n      add\n      mload(0x40)\n      dup1\n      0x80\n      add\n      0x40\n      mstore\n      swap1\n      dup2\n      0x00\n      dup3\n      add\n      0x00\n      swap1\n      sload\n      swap1\n      0x0100\n      exp\n      swap1\n      div\n      0xffffffffffffffffffffffffffffffffffffffff\n      and\n      0xffffffffffffffffffffffffffffffffffffffff\n      and\n      0xffffffffffffffffffffffffffffffffffffffff\n      and\n      dup2\n      mstore\n      0x20\n      add\n      0x01\n      dup3\n      add\n      sload\n      dup2\n      mstore\n      0x20\n      add\n      0x02\n      dup3\n      add\n      sload\n      dup2\n      mstore\n      0x20\n      add\n      0x03\n      dup3\n      add\n      0x00\n      swap1\n      sload\n      swap1\n      0x0100\n      exp\n      swap1\n      div\n      0xff\n      and\n      0x01\n      dup2\n      gt\n      iszero\n      tag_302\n      jumpi\n      tag_303\n      tag_119\n      jump\t// in\n    tag_303:\n    tag_302:\n      0x01\n      dup2\n      gt\n      iszero\n      tag_304\n      jumpi\n      tag_305\n      tag_119\n      jump\t// in\n    tag_305:\n    tag_304:\n      dup2\n      mstore\n      pop\n      pop\n      dup2\n      mstore\n      0x20\n      add\n      swap1\n      0x01\n      add\n      swap1\n      jump(tag_299)\n    tag_300:\n      pop\n      pop\n      pop\n      pop\n      swap1\n      pop\n        /* \"contracts/OrderBook.sol\":5771:5883  function fetchAllAsk() public returns (order[] memory) {... */\n      swap1\n      jump\t// out\n        /* \"contracts/OrderBook.sol\":5889:6163  function fetchYourBidIds() public returns (uint[] memory) {... */\n    tag_91:\n        /* \"contracts/OrderBook.sol\":5932:5945  uint[] memory */\n      0x60\n        /* \"contracts/OrderBook.sol\":5957:5970  deleteArray() */\n      tag_307\n        /* \"contracts/OrderBook.sol\":5957:5968  deleteArray */\n      tag_100\n        /* \"contracts/OrderBook.sol\":5957:5970  deleteArray() */\n      jump\t// in\n    tag_307:\n        /* \"contracts/OrderBook.sol\":5985:5991  uint i */\n      0x00\n        /* \"contracts/OrderBook.sol\":5980:6133  for (uint i = 0; i < bidBook.length; i++) {... */\n    tag_308:\n        /* \"contracts/OrderBook.sol\":6001:6008  bidBook */\n      0x02\n        /* \"contracts/OrderBook.sol\":6001:6015  bidBook.length */\n      dup1\n      sload\n      swap1\n      pop\n        /* \"contracts/OrderBook.sol\":5997:5998  i */\n      dup2\n        /* \"contracts/OrderBook.sol\":5997:6015  i < bidBook.length */\n      lt\n        /* \"contracts/OrderBook.sol\":5980:6133  for (uint i = 0; i < bidBook.length; i++) {... */\n      iszero\n      tag_309\n      jumpi\n        /* \"contracts/OrderBook.sol\":6063:6073  msg.sender */\n      caller\n        /* \"contracts/OrderBook.sol\":6040:6073  bidBook[i].customer == msg.sender */\n      0xffffffffffffffffffffffffffffffffffffffff\n      and\n        /* \"contracts/OrderBook.sol\":6040:6047  bidBook */\n      0x02\n        /* \"contracts/OrderBook.sol\":6048:6049  i */\n      dup3\n        /* \"contracts/OrderBook.sol\":6040:6050  bidBook[i] */\n      dup2\n      sload\n      dup2\n      lt\n      tag_311\n      jumpi\n      tag_312\n      tag_106\n      jump\t// in\n    tag_312:\n    tag_311:\n      swap1\n      0x00\n      mstore\n      keccak256(0x00, 0x20)\n      swap1\n      0x04\n      mul\n      add\n        /* \"contracts/OrderBook.sol\":6040:6059  bidBook[i].customer */\n      0x00\n      add\n      0x00\n      swap1\n      sload\n      swap1\n      0x0100\n      exp\n      swap1\n      div\n      0xffffffffffffffffffffffffffffffffffffffff\n      and\n        /* \"contracts/OrderBook.sol\":6040:6073  bidBook[i].customer == msg.sender */\n      0xffffffffffffffffffffffffffffffffffffffff\n      and\n      sub\n        /* \"contracts/OrderBook.sol\":6036:6123  if (bidBook[i].customer == msg.sender) {... */\n      tag_314\n      jumpi\n        /* \"contracts/OrderBook.sol\":6093:6100  request */\n      0x04\n        /* \"contracts/OrderBook.sol\":6106:6107  i */\n      dup2\n        /* \"contracts/OrderBook.sol\":6093:6108  request.push(i) */\n      swap1\n      dup1\n      0x01\n      dup2\n      sload\n      add\n      dup1\n      dup3\n      sstore\n      dup1\n      swap2\n      pop\n      pop\n      0x01\n      swap1\n      sub\n      swap1\n      0x00\n      mstore\n      keccak256(0x00, 0x20)\n      add\n      0x00\n      swap1\n      swap2\n      swap1\n      swap2\n      swap1\n      swap2\n      pop\n      sstore\n        /* \"contracts/OrderBook.sol\":6036:6123  if (bidBook[i].customer == msg.sender) {... */\n    tag_314:\n        /* \"contracts/OrderBook.sol\":6017:6020  i++ */\n      dup1\n      dup1\n      tag_316\n      swap1\n      tag_111\n      jump\t// in\n    tag_316:\n      swap2\n      pop\n      pop\n        /* \"contracts/OrderBook.sol\":5980:6133  for (uint i = 0; i < bidBook.length; i++) {... */\n      jump(tag_308)\n    tag_309:\n      pop\n        /* \"contracts/OrderBook.sol\":6149:6156  request */\n      0x04\n        /* \"contracts/OrderBook.sol\":6142:6156  return request */\n      dup1\n      sload\n      dup1\n      0x20\n      mul\n      0x20\n      add\n      mload(0x40)\n      swap1\n      dup2\n      add\n      0x40\n      mstore\n      dup1\n      swap3\n      swap2\n      swap1\n      dup2\n      dup2\n      mstore\n      0x20\n      add\n      dup3\n      dup1\n      sload\n      dup1\n      iszero\n      tag_317\n      jumpi\n      0x20\n      mul\n      dup3\n      add\n      swap2\n      swap1\n      0x00\n      mstore\n      keccak256(0x00, 0x20)\n      swap1\n    tag_318:\n      dup2\n      sload\n      dup2\n      mstore\n      0x20\n      add\n      swap1\n      0x01\n      add\n      swap1\n      dup1\n      dup4\n      gt\n      tag_318\n      jumpi\n    tag_317:\n      pop\n      pop\n      pop\n      pop\n      pop\n      swap1\n      pop\n        /* \"contracts/OrderBook.sol\":5889:6163  function fetchYourBidIds() public returns (uint[] memory) {... */\n      swap1\n      jump\t// out\n        /* \"contracts/OrderBook.sol\":6796:6897  function getAskValue (uint id) public view returns(uint256) {... */\n    tag_96:\n        /* \"contracts/OrderBook.sol\":6847:6854  uint256 */\n      0x00\n        /* \"contracts/OrderBook.sol\":6873:6880  askBook */\n      0x03\n        /* \"contracts/OrderBook.sol\":6881:6883  id */\n      dup3\n        /* \"contracts/OrderBook.sol\":6873:6884  askBook[id] */\n      dup2\n      sload\n      dup2\n      lt\n      tag_320\n      jumpi\n      tag_321\n      tag_106\n      jump\t// in\n    tag_321:\n    tag_320:\n      swap1\n      0x00\n      mstore\n      keccak256(0x00, 0x20)\n      swap1\n      0x04\n      mul\n      add\n        /* \"contracts/OrderBook.sol\":6873:6890  askBook[id].value */\n      0x01\n      add\n      sload\n        /* \"contracts/OrderBook.sol\":6866:6890  return askBook[id].value */\n      swap1\n      pop\n        /* \"contracts/OrderBook.sol\":6796:6897  function getAskValue (uint id) public view returns(uint256) {... */\n      swap2\n      swap1\n      pop\n      jump\t// out\n        /* \"contracts/OrderBook.sol\":2453:2586  function deleteArray() internal {... */\n    tag_100:\n        /* \"contracts/OrderBook.sol\":2500:2506  uint i */\n      0x00\n        /* \"contracts/OrderBook.sol\":2495:2580  for (uint i = 0; i < request.length; i ++) {... */\n    tag_324:\n        /* \"contracts/OrderBook.sol\":2516:2523  request */\n      0x04\n        /* \"contracts/OrderBook.sol\":2516:2530  request.length */\n      dup1\n      sload\n      swap1\n      pop\n        /* \"contracts/OrderBook.sol\":2512:2513  i */\n      dup2\n        /* \"contracts/OrderBook.sol\":2512:2530  i < request.length */\n      lt\n        /* \"contracts/OrderBook.sol\":2495:2580  for (uint i = 0; i < request.length; i ++) {... */\n      iszero\n      tag_325\n      jumpi\n        /* \"contracts/OrderBook.sol\":2559:2566  request */\n      0x04\n        /* \"contracts/OrderBook.sol\":2567:2568  i */\n      dup2\n        /* \"contracts/OrderBook.sol\":2559:2569  request[i] */\n      dup2\n      sload\n      dup2\n      lt\n      tag_327\n      jumpi\n      tag_328\n      tag_106\n      jump\t// in\n    tag_328:\n    tag_327:\n      swap1\n      0x00\n      mstore\n      keccak256(0x00, 0x20)\n      add\n        /* \"contracts/OrderBook.sol\":2552:2569  delete request[i] */\n      0x00\n      swap1\n      sstore\n        /* \"contracts/OrderBook.sol\":2532:2536  i ++ */\n      dup1\n      dup1\n      tag_330\n      swap1\n      tag_111\n      jump\t// in\n    tag_330:\n      swap2\n      pop\n      pop\n        /* \"contracts/OrderBook.sol\":2495:2580  for (uint i = 0; i < request.length; i ++) {... */\n      jump(tag_324)\n    tag_325:\n      pop\n        /* \"contracts/OrderBook.sol\":2453:2586  function deleteArray() internal {... */\n      jump\t// out\n        /* \"contracts/OrderBook.sol\":2592:3261  function descendingQuickSort(order[] memory data, int left, int right) internal{... */\n    tag_166:\n        /* \"contracts/OrderBook.sol\":2681:2686  int i */\n      0x00\n        /* \"contracts/OrderBook.sol\":2689:2693  left */\n      dup3\n        /* \"contracts/OrderBook.sol\":2681:2693  int i = left */\n      swap1\n      pop\n        /* \"contracts/OrderBook.sol\":2703:2708  int j */\n      0x00\n        /* \"contracts/OrderBook.sol\":2711:2716  right */\n      dup3\n        /* \"contracts/OrderBook.sol\":2703:2716  int j = right */\n      swap1\n      pop\n        /* \"contracts/OrderBook.sol\":2732:2733  j */\n      dup1\n        /* \"contracts/OrderBook.sol\":2729:2730  i */\n      dup3\n        /* \"contracts/OrderBook.sol\":2729:2733  i==j */\n      sub\n        /* \"contracts/OrderBook.sol\":2726:2742  if(i==j) return; */\n      tag_332\n      jumpi\n        /* \"contracts/OrderBook.sol\":2735:2742  return; */\n      pop\n      pop\n      jump(tag_331)\n        /* \"contracts/OrderBook.sol\":2726:2742  if(i==j) return; */\n    tag_332:\n        /* \"contracts/OrderBook.sol\":2751:2764  uint256 pivot */\n      0x00\n        /* \"contracts/OrderBook.sol\":2767:2771  data */\n      dup6\n        /* \"contracts/OrderBook.sol\":2801:2802  2 */\n      0x02\n        /* \"contracts/OrderBook.sol\":2793:2797  left */\n      dup7\n        /* \"contracts/OrderBook.sol\":2785:2790  right */\n      dup7\n        /* \"contracts/OrderBook.sol\":2785:2797  right - left */\n      tag_333\n      swap2\n      swap1\n      tag_334\n      jump\t// in\n    tag_333:\n        /* \"contracts/OrderBook.sol\":2784:2802  (right - left) / 2 */\n      tag_335\n      swap2\n      swap1\n      tag_336\n      jump\t// in\n    tag_335:\n        /* \"contracts/OrderBook.sol\":2777:2781  left */\n      dup7\n        /* \"contracts/OrderBook.sol\":2777:2802  left + (right - left) / 2 */\n      tag_337\n      swap2\n      swap1\n      tag_338\n      jump\t// in\n    tag_337:\n        /* \"contracts/OrderBook.sol\":2767:2804  data[uint(left + (right - left) / 2)] */\n      dup2\n      mload\n      dup2\n      lt\n      tag_339\n      jumpi\n      tag_340\n      tag_106\n      jump\t// in\n    tag_340:\n    tag_339:\n      0x20\n      mul\n      0x20\n      add\n      add\n      mload\n        /* \"contracts/OrderBook.sol\":2767:2810  data[uint(left + (right - left) / 2)].value */\n      0x20\n      add\n      mload\n        /* \"contracts/OrderBook.sol\":2751:2810  uint256 pivot = data[uint(left + (right - left) / 2)].value */\n      swap1\n      pop\n        /* \"contracts/OrderBook.sol\":2820:3115  while (i <= j) {... */\n    tag_341:\n        /* \"contracts/OrderBook.sol\":2832:2833  j */\n      dup2\n        /* \"contracts/OrderBook.sol\":2827:2828  i */\n      dup4\n        /* \"contracts/OrderBook.sol\":2827:2833  i <= j */\n      sgt\n        /* \"contracts/OrderBook.sol\":2820:3115  while (i <= j) {... */\n      tag_342\n      jumpi\n        /* \"contracts/OrderBook.sol\":2849:2888  while (data[uint(i)].value < pivot) i++ */\n    tag_343:\n        /* \"contracts/OrderBook.sol\":2878:2883  pivot */\n      dup1\n        /* \"contracts/OrderBook.sol\":2856:2860  data */\n      dup7\n        /* \"contracts/OrderBook.sol\":2866:2867  i */\n      dup5\n        /* \"contracts/OrderBook.sol\":2856:2869  data[uint(i)] */\n      dup2\n      mload\n      dup2\n      lt\n      tag_345\n      jumpi\n      tag_346\n      tag_106\n      jump\t// in\n    tag_346:\n    tag_345:\n      0x20\n      mul\n      0x20\n      add\n      add\n      mload\n        /* \"contracts/OrderBook.sol\":2856:2875  data[uint(i)].value */\n      0x20\n      add\n      mload\n        /* \"contracts/OrderBook.sol\":2856:2883  data[uint(i)].value < pivot */\n      lt\n        /* \"contracts/OrderBook.sol\":2849:2888  while (data[uint(i)].value < pivot) i++ */\n      iszero\n      tag_344\n      jumpi\n        /* \"contracts/OrderBook.sol\":2885:2888  i++ */\n      dup3\n      dup1\n      tag_347\n      swap1\n      tag_348\n      jump\t// in\n    tag_347:\n      swap4\n      pop\n      pop\n        /* \"contracts/OrderBook.sol\":2849:2888  while (data[uint(i)].value < pivot) i++ */\n      jump(tag_343)\n    tag_344:\n        /* \"contracts/OrderBook.sol\":2902:2941  while (pivot < data[uint(j)].value) j-- */\n    tag_349:\n        /* \"contracts/OrderBook.sol\":2917:2921  data */\n      dup6\n        /* \"contracts/OrderBook.sol\":2927:2928  j */\n      dup3\n        /* \"contracts/OrderBook.sol\":2917:2930  data[uint(j)] */\n      dup2\n      mload\n      dup2\n      lt\n      tag_351\n      jumpi\n      tag_352\n      tag_106\n      jump\t// in\n    tag_352:\n    tag_351:\n      0x20\n      mul\n      0x20\n      add\n      add\n      mload\n        /* \"contracts/OrderBook.sol\":2917:2936  data[uint(j)].value */\n      0x20\n      add\n      mload\n        /* \"contracts/OrderBook.sol\":2909:2914  pivot */\n      dup2\n        /* \"contracts/OrderBook.sol\":2909:2936  pivot < data[uint(j)].value */\n      lt\n        /* \"contracts/OrderBook.sol\":2902:2941  while (pivot < data[uint(j)].value) j-- */\n      iszero\n      tag_350\n      jumpi\n        /* \"contracts/OrderBook.sol\":2938:2941  j-- */\n      dup2\n      dup1\n      tag_353\n      swap1\n      tag_354\n      jump\t// in\n    tag_353:\n      swap3\n      pop\n      pop\n        /* \"contracts/OrderBook.sol\":2902:2941  while (pivot < data[uint(j)].value) j-- */\n      jump(tag_349)\n    tag_350:\n        /* \"contracts/OrderBook.sol\":2964:2965  j */\n      dup2\n        /* \"contracts/OrderBook.sol\":2959:2960  i */\n      dup4\n        /* \"contracts/OrderBook.sol\":2959:2965  i <= j */\n      sgt\n        /* \"contracts/OrderBook.sol\":2955:3105  if (i <= j) {... */\n      tag_355\n      jumpi\n        /* \"contracts/OrderBook.sol\":3019:3023  data */\n      dup6\n        /* \"contracts/OrderBook.sol\":3029:3030  j */\n      dup3\n        /* \"contracts/OrderBook.sol\":3019:3032  data[uint(j)] */\n      dup2\n      mload\n      dup2\n      lt\n      tag_356\n      jumpi\n      tag_357\n      tag_106\n      jump\t// in\n    tag_357:\n    tag_356:\n      0x20\n      mul\n      0x20\n      add\n      add\n      mload\n        /* \"contracts/OrderBook.sol\":3034:3038  data */\n      dup7\n        /* \"contracts/OrderBook.sol\":3044:3045  i */\n      dup5\n        /* \"contracts/OrderBook.sol\":3034:3047  data[uint(i)] */\n      dup2\n      mload\n      dup2\n      lt\n      tag_358\n      jumpi\n      tag_359\n      tag_106\n      jump\t// in\n    tag_359:\n    tag_358:\n      0x20\n      mul\n      0x20\n      add\n      add\n      mload\n        /* \"contracts/OrderBook.sol\":2986:2990  data */\n      dup8\n        /* \"contracts/OrderBook.sol\":2996:2997  i */\n      dup6\n        /* \"contracts/OrderBook.sol\":2986:2999  data[uint(i)] */\n      dup2\n      mload\n      dup2\n      lt\n      tag_360\n      jumpi\n      tag_361\n      tag_106\n      jump\t// in\n    tag_361:\n    tag_360:\n      0x20\n      mul\n      0x20\n      add\n      add\n        /* \"contracts/OrderBook.sol\":3001:3005  data */\n      dup9\n        /* \"contracts/OrderBook.sol\":3011:3012  j */\n      dup6\n        /* \"contracts/OrderBook.sol\":3001:3014  data[uint(j)] */\n      dup2\n      mload\n      dup2\n      lt\n      tag_362\n      jumpi\n      tag_363\n      tag_106\n      jump\t// in\n    tag_363:\n    tag_362:\n      0x20\n      mul\n      0x20\n      add\n      add\n        /* \"contracts/OrderBook.sol\":2985:3048  (data[uint(i)], data[uint(j)]) = (data[uint(j)], data[uint(i)]) */\n      dup3\n      swap1\n      mstore\n      dup3\n      swap1\n      mstore\n      pop\n      pop\n        /* \"contracts/OrderBook.sol\":3066:3069  i++ */\n      dup3\n      dup1\n      tag_364\n      swap1\n      tag_348\n      jump\t// in\n    tag_364:\n      swap4\n      pop\n      pop\n        /* \"contracts/OrderBook.sol\":3087:3090  j-- */\n      dup2\n      dup1\n      tag_365\n      swap1\n      tag_354\n      jump\t// in\n    tag_365:\n      swap3\n      pop\n      pop\n        /* \"contracts/OrderBook.sol\":2955:3105  if (i <= j) {... */\n    tag_355:\n        /* \"contracts/OrderBook.sol\":2820:3115  while (i <= j) {... */\n      jump(tag_341)\n    tag_342:\n        /* \"contracts/OrderBook.sol\":3135:3136  j */\n      dup2\n        /* \"contracts/OrderBook.sol\":3128:3132  left */\n      dup6\n        /* \"contracts/OrderBook.sol\":3128:3136  left < j */\n      slt\n        /* \"contracts/OrderBook.sol\":3124:3183  if (left < j)... */\n      iszero\n      tag_366\n      jumpi\n        /* \"contracts/OrderBook.sol\":3150:3183  descendingQuickSort(data,left, j) */\n      tag_367\n        /* \"contracts/OrderBook.sol\":3170:3174  data */\n      dup7\n        /* \"contracts/OrderBook.sol\":3175:3179  left */\n      dup7\n        /* \"contracts/OrderBook.sol\":3181:3182  j */\n      dup5\n        /* \"contracts/OrderBook.sol\":3150:3169  descendingQuickSort */\n      tag_166\n        /* \"contracts/OrderBook.sol\":3150:3183  descendingQuickSort(data,left, j) */\n      jump\t// in\n    tag_367:\n        /* \"contracts/OrderBook.sol\":3124:3183  if (left < j)... */\n    tag_366:\n        /* \"contracts/OrderBook.sol\":3201:3206  right */\n      dup4\n        /* \"contracts/OrderBook.sol\":3197:3198  i */\n      dup4\n        /* \"contracts/OrderBook.sol\":3197:3206  i < right */\n      slt\n        /* \"contracts/OrderBook.sol\":3193:3254  if (i < right)... */\n      iszero\n      tag_368\n      jumpi\n        /* \"contracts/OrderBook.sol\":3220:3254  descendingQuickSort(data,i, right) */\n      tag_369\n        /* \"contracts/OrderBook.sol\":3240:3244  data */\n      dup7\n        /* \"contracts/OrderBook.sol\":3245:3246  i */\n      dup5\n        /* \"contracts/OrderBook.sol\":3248:3253  right */\n      dup7\n        /* \"contracts/OrderBook.sol\":3220:3239  descendingQuickSort */\n      tag_166\n        /* \"contracts/OrderBook.sol\":3220:3254  descendingQuickSort(data,i, right) */\n      jump\t// in\n    tag_369:\n        /* \"contracts/OrderBook.sol\":3193:3254  if (i < right)... */\n    tag_368:\n        /* \"contracts/OrderBook.sol\":2671:3261  {... */\n      pop\n      pop\n      pop\n        /* \"contracts/OrderBook.sol\":2592:3261  function descendingQuickSort(order[] memory data, int left, int right) internal{... */\n    tag_331:\n      pop\n      pop\n      pop\n      jump\t// out\n        /* \"contracts/OrderBook.sol\":3267:3933  function ascendingQuickSort(order[] memory data, int left, int right) internal{... */\n    tag_198:\n        /* \"contracts/OrderBook.sol\":3355:3360  int i */\n      0x00\n        /* \"contracts/OrderBook.sol\":3363:3367  left */\n      dup3\n        /* \"contracts/OrderBook.sol\":3355:3367  int i = left */\n      swap1\n      pop\n        /* \"contracts/OrderBook.sol\":3377:3382  int j */\n      0x00\n        /* \"contracts/OrderBook.sol\":3385:3390  right */\n      dup3\n        /* \"contracts/OrderBook.sol\":3377:3390  int j = right */\n      swap1\n      pop\n        /* \"contracts/OrderBook.sol\":3406:3407  j */\n      dup1\n        /* \"contracts/OrderBook.sol\":3403:3404  i */\n      dup3\n        /* \"contracts/OrderBook.sol\":3403:3407  i==j */\n      sub\n        /* \"contracts/OrderBook.sol\":3400:3416  if(i==j) return; */\n      tag_371\n      jumpi\n        /* \"contracts/OrderBook.sol\":3409:3416  return; */\n      pop\n      pop\n      jump(tag_370)\n        /* \"contracts/OrderBook.sol\":3400:3416  if(i==j) return; */\n    tag_371:\n        /* \"contracts/OrderBook.sol\":3425:3438  uint256 pivot */\n      0x00\n        /* \"contracts/OrderBook.sol\":3441:3445  data */\n      dup6\n        /* \"contracts/OrderBook.sol\":3475:3476  2 */\n      0x02\n        /* \"contracts/OrderBook.sol\":3467:3471  left */\n      dup7\n        /* \"contracts/OrderBook.sol\":3459:3464  right */\n      dup7\n        /* \"contracts/OrderBook.sol\":3459:3471  right - left */\n      tag_372\n      swap2\n      swap1\n      tag_334\n      jump\t// in\n    tag_372:\n        /* \"contracts/OrderBook.sol\":3458:3476  (right - left) / 2 */\n      tag_373\n      swap2\n      swap1\n      tag_336\n      jump\t// in\n    tag_373:\n        /* \"contracts/OrderBook.sol\":3451:3455  left */\n      dup7\n        /* \"contracts/OrderBook.sol\":3451:3476  left + (right - left) / 2 */\n      tag_374\n      swap2\n      swap1\n      tag_338\n      jump\t// in\n    tag_374:\n        /* \"contracts/OrderBook.sol\":3441:3478  data[uint(left + (right - left) / 2)] */\n      dup2\n      mload\n      dup2\n      lt\n      tag_375\n      jumpi\n      tag_376\n      tag_106\n      jump\t// in\n    tag_376:\n    tag_375:\n      0x20\n      mul\n      0x20\n      add\n      add\n      mload\n        /* \"contracts/OrderBook.sol\":3441:3484  data[uint(left + (right - left) / 2)].value */\n      0x20\n      add\n      mload\n        /* \"contracts/OrderBook.sol\":3425:3484  uint256 pivot = data[uint(left + (right - left) / 2)].value */\n      swap1\n      pop\n        /* \"contracts/OrderBook.sol\":3494:3789  while (i <= j) {... */\n    tag_377:\n        /* \"contracts/OrderBook.sol\":3506:3507  j */\n      dup2\n        /* \"contracts/OrderBook.sol\":3501:3502  i */\n      dup4\n        /* \"contracts/OrderBook.sol\":3501:3507  i <= j */\n      sgt\n        /* \"contracts/OrderBook.sol\":3494:3789  while (i <= j) {... */\n      tag_378\n      jumpi\n        /* \"contracts/OrderBook.sol\":3523:3562  while (data[uint(i)].value > pivot) i++ */\n    tag_379:\n        /* \"contracts/OrderBook.sol\":3552:3557  pivot */\n      dup1\n        /* \"contracts/OrderBook.sol\":3530:3534  data */\n      dup7\n        /* \"contracts/OrderBook.sol\":3540:3541  i */\n      dup5\n        /* \"contracts/OrderBook.sol\":3530:3543  data[uint(i)] */\n      dup2\n      mload\n      dup2\n      lt\n      tag_381\n      jumpi\n      tag_382\n      tag_106\n      jump\t// in\n    tag_382:\n    tag_381:\n      0x20\n      mul\n      0x20\n      add\n      add\n      mload\n        /* \"contracts/OrderBook.sol\":3530:3549  data[uint(i)].value */\n      0x20\n      add\n      mload\n        /* \"contracts/OrderBook.sol\":3530:3557  data[uint(i)].value > pivot */\n      gt\n        /* \"contracts/OrderBook.sol\":3523:3562  while (data[uint(i)].value > pivot) i++ */\n      iszero\n      tag_380\n      jumpi\n        /* \"contracts/OrderBook.sol\":3559:3562  i++ */\n      dup3\n      dup1\n      tag_383\n      swap1\n      tag_348\n      jump\t// in\n    tag_383:\n      swap4\n      pop\n      pop\n        /* \"contracts/OrderBook.sol\":3523:3562  while (data[uint(i)].value > pivot) i++ */\n      jump(tag_379)\n    tag_380:\n        /* \"contracts/OrderBook.sol\":3576:3615  while (pivot > data[uint(j)].value) j-- */\n    tag_384:\n        /* \"contracts/OrderBook.sol\":3591:3595  data */\n      dup6\n        /* \"contracts/OrderBook.sol\":3601:3602  j */\n      dup3\n        /* \"contracts/OrderBook.sol\":3591:3604  data[uint(j)] */\n      dup2\n      mload\n      dup2\n      lt\n      tag_386\n      jumpi\n      tag_387\n      tag_106\n      jump\t// in\n    tag_387:\n    tag_386:\n      0x20\n      mul\n      0x20\n      add\n      add\n      mload\n        /* \"contracts/OrderBook.sol\":3591:3610  data[uint(j)].value */\n      0x20\n      add\n      mload\n        /* \"contracts/OrderBook.sol\":3583:3588  pivot */\n      dup2\n        /* \"contracts/OrderBook.sol\":3583:3610  pivot > data[uint(j)].value */\n      gt\n        /* \"contracts/OrderBook.sol\":3576:3615  while (pivot > data[uint(j)].value) j-- */\n      iszero\n      tag_385\n      jumpi\n        /* \"contracts/OrderBook.sol\":3612:3615  j-- */\n      dup2\n      dup1\n      tag_388\n      swap1\n      tag_354\n      jump\t// in\n    tag_388:\n      swap3\n      pop\n      pop\n        /* \"contracts/OrderBook.sol\":3576:3615  while (pivot > data[uint(j)].value) j-- */\n      jump(tag_384)\n    tag_385:\n        /* \"contracts/OrderBook.sol\":3638:3639  j */\n      dup2\n        /* \"contracts/OrderBook.sol\":3633:3634  i */\n      dup4\n        /* \"contracts/OrderBook.sol\":3633:3639  i <= j */\n      sgt\n        /* \"contracts/OrderBook.sol\":3629:3779  if (i <= j) {... */\n      tag_389\n      jumpi\n        /* \"contracts/OrderBook.sol\":3693:3697  data */\n      dup6\n        /* \"contracts/OrderBook.sol\":3703:3704  j */\n      dup3\n        /* \"contracts/OrderBook.sol\":3693:3706  data[uint(j)] */\n      dup2\n      mload\n      dup2\n      lt\n      tag_390\n      jumpi\n      tag_391\n      tag_106\n      jump\t// in\n    tag_391:\n    tag_390:\n      0x20\n      mul\n      0x20\n      add\n      add\n      mload\n        /* \"contracts/OrderBook.sol\":3708:3712  data */\n      dup7\n        /* \"contracts/OrderBook.sol\":3718:3719  i */\n      dup5\n        /* \"contracts/OrderBook.sol\":3708:3721  data[uint(i)] */\n      dup2\n      mload\n      dup2\n      lt\n      tag_392\n      jumpi\n      tag_393\n      tag_106\n      jump\t// in\n    tag_393:\n    tag_392:\n      0x20\n      mul\n      0x20\n      add\n      add\n      mload\n        /* \"contracts/OrderBook.sol\":3660:3664  data */\n      dup8\n        /* \"contracts/OrderBook.sol\":3670:3671  i */\n      dup6\n        /* \"contracts/OrderBook.sol\":3660:3673  data[uint(i)] */\n      dup2\n      mload\n      dup2\n      lt\n      tag_394\n      jumpi\n      tag_395\n      tag_106\n      jump\t// in\n    tag_395:\n    tag_394:\n      0x20\n      mul\n      0x20\n      add\n      add\n        /* \"contracts/OrderBook.sol\":3675:3679  data */\n      dup9\n        /* \"contracts/OrderBook.sol\":3685:3686  j */\n      dup6\n        /* \"contracts/OrderBook.sol\":3675:3688  data[uint(j)] */\n      dup2\n      mload\n      dup2\n      lt\n      tag_396\n      jumpi\n      tag_397\n      tag_106\n      jump\t// in\n    tag_397:\n    tag_396:\n      0x20\n      mul\n      0x20\n      add\n      add\n        /* \"contracts/OrderBook.sol\":3659:3722  (data[uint(i)], data[uint(j)]) = (data[uint(j)], data[uint(i)]) */\n      dup3\n      swap1\n      mstore\n      dup3\n      swap1\n      mstore\n      pop\n      pop\n        /* \"contracts/OrderBook.sol\":3740:3743  i++ */\n      dup3\n      dup1\n      tag_398\n      swap1\n      tag_348\n      jump\t// in\n    tag_398:\n      swap4\n      pop\n      pop\n        /* \"contracts/OrderBook.sol\":3761:3764  j-- */\n      dup2\n      dup1\n      tag_399\n      swap1\n      tag_354\n      jump\t// in\n    tag_399:\n      swap3\n      pop\n      pop\n        /* \"contracts/OrderBook.sol\":3629:3779  if (i <= j) {... */\n    tag_389:\n        /* \"contracts/OrderBook.sol\":3494:3789  while (i <= j) {... */\n      jump(tag_377)\n    tag_378:\n        /* \"contracts/OrderBook.sol\":3809:3810  j */\n      dup2\n        /* \"contracts/OrderBook.sol\":3802:3806  left */\n      dup6\n        /* \"contracts/OrderBook.sol\":3802:3810  left < j */\n      slt\n        /* \"contracts/OrderBook.sol\":3798:3856  if (left < j)... */\n      iszero\n      tag_400\n      jumpi\n        /* \"contracts/OrderBook.sol\":3824:3856  ascendingQuickSort(data,left, j) */\n      tag_401\n        /* \"contracts/OrderBook.sol\":3843:3847  data */\n      dup7\n        /* \"contracts/OrderBook.sol\":3848:3852  left */\n      dup7\n        /* \"contracts/OrderBook.sol\":3854:3855  j */\n      dup5\n        /* \"contracts/OrderBook.sol\":3824:3842  ascendingQuickSort */\n      tag_198\n        /* \"contracts/OrderBook.sol\":3824:3856  ascendingQuickSort(data,left, j) */\n      jump\t// in\n    tag_401:\n        /* \"contracts/OrderBook.sol\":3798:3856  if (left < j)... */\n    tag_400:\n        /* \"contracts/OrderBook.sol\":3874:3879  right */\n      dup4\n        /* \"contracts/OrderBook.sol\":3870:3871  i */\n      dup4\n        /* \"contracts/OrderBook.sol\":3870:3879  i < right */\n      slt\n        /* \"contracts/OrderBook.sol\":3866:3926  if (i < right)... */\n      iszero\n      tag_402\n      jumpi\n        /* \"contracts/OrderBook.sol\":3893:3926  ascendingQuickSort(data,i, right) */\n      tag_403\n        /* \"contracts/OrderBook.sol\":3912:3916  data */\n      dup7\n        /* \"contracts/OrderBook.sol\":3917:3918  i */\n      dup5\n        /* \"contracts/OrderBook.sol\":3920:3925  right */\n      dup7\n        /* \"contracts/OrderBook.sol\":3893:3911  ascendingQuickSort */\n      tag_198\n        /* \"contracts/OrderBook.sol\":3893:3926  ascendingQuickSort(data,i, right) */\n      jump\t// in\n    tag_403:\n        /* \"contracts/OrderBook.sol\":3866:3926  if (i < right)... */\n    tag_402:\n        /* \"contracts/OrderBook.sol\":3345:3933  {... */\n      pop\n      pop\n      pop\n        /* \"contracts/OrderBook.sol\":3267:3933  function ascendingQuickSort(order[] memory data, int left, int right) internal{... */\n    tag_370:\n      pop\n      pop\n      pop\n      jump\t// out\n        /* \"#utility.yul\":7:121   */\n    tag_404:\n        /* \"#utility.yul\":74:80   */\n      0x00\n        /* \"#utility.yul\":108:113   */\n      dup2\n        /* \"#utility.yul\":102:114   */\n      mload\n        /* \"#utility.yul\":92:114   */\n      swap1\n      pop\n        /* \"#utility.yul\":7:121   */\n      swap2\n      swap1\n      pop\n      jump\t// out\n        /* \"#utility.yul\":127:311   */\n    tag_405:\n        /* \"#utility.yul\":226:237   */\n      0x00\n        /* \"#utility.yul\":260:266   */\n      dup3\n        /* \"#utility.yul\":255:258   */\n      dup3\n        /* \"#utility.yul\":248:267   */\n      mstore\n        /* \"#utility.yul\":300:304   */\n      0x20\n        /* \"#utility.yul\":295:298   */\n      dup3\n        /* \"#utility.yul\":291:305   */\n      add\n        /* \"#utility.yul\":276:305   */\n      swap1\n      pop\n        /* \"#utility.yul\":127:311   */\n      swap3\n      swap2\n      pop\n      pop\n      jump\t// out\n        /* \"#utility.yul\":317:449   */\n    tag_406:\n        /* \"#utility.yul\":384:388   */\n      0x00\n        /* \"#utility.yul\":407:410   */\n      dup2\n        /* \"#utility.yul\":399:410   */\n      swap1\n      pop\n        /* \"#utility.yul\":437:441   */\n      0x20\n        /* \"#utility.yul\":432:435   */\n      dup3\n        /* \"#utility.yul\":428:442   */\n      add\n        /* \"#utility.yul\":420:442   */\n      swap1\n      pop\n        /* \"#utility.yul\":317:449   */\n      swap2\n      swap1\n      pop\n      jump\t// out\n        /* \"#utility.yul\":455:532   */\n    tag_407:\n        /* \"#utility.yul\":492:499   */\n      0x00\n        /* \"#utility.yul\":521:526   */\n      dup2\n        /* \"#utility.yul\":510:526   */\n      swap1\n      pop\n        /* \"#utility.yul\":455:532   */\n      swap2\n      swap1\n      pop\n      jump\t// out\n        /* \"#utility.yul\":538:646   */\n    tag_408:\n        /* \"#utility.yul\":615:639   */\n      tag_472\n        /* \"#utility.yul\":633:638   */\n      dup2\n        /* \"#utility.yul\":615:639   */\n      tag_407\n      jump\t// in\n    tag_472:\n        /* \"#utility.yul\":610:613   */\n      dup3\n        /* \"#utility.yul\":603:640   */\n      mstore\n        /* \"#utility.yul\":538:646   */\n      pop\n      pop\n      jump\t// out\n        /* \"#utility.yul\":652:831   */\n    tag_409:\n        /* \"#utility.yul\":721:731   */\n      0x00\n        /* \"#utility.yul\":742:788   */\n      tag_474\n        /* \"#utility.yul\":784:787   */\n      dup4\n        /* \"#utility.yul\":776:782   */\n      dup4\n        /* \"#utility.yul\":742:788   */\n      tag_408\n      jump\t// in\n    tag_474:\n        /* \"#utility.yul\":820:824   */\n      0x20\n        /* \"#utility.yul\":815:818   */\n      dup4\n        /* \"#utility.yul\":811:825   */\n      add\n        /* \"#utility.yul\":797:825   */\n      swap1\n      pop\n        /* \"#utility.yul\":652:831   */\n      swap3\n      swap2\n      pop\n      pop\n      jump\t// out\n        /* \"#utility.yul\":837:950   */\n    tag_410:\n        /* \"#utility.yul\":907:911   */\n      0x00\n        /* \"#utility.yul\":939:943   */\n      0x20\n        /* \"#utility.yul\":934:937   */\n      dup3\n        /* \"#utility.yul\":930:944   */\n      add\n        /* \"#utility.yul\":922:944   */\n      swap1\n      pop\n        /* \"#utility.yul\":837:950   */\n      swap2\n      swap1\n      pop\n      jump\t// out\n        /* \"#utility.yul\":986:1718   */\n    tag_411:\n        /* \"#utility.yul\":1105:1108   */\n      0x00\n        /* \"#utility.yul\":1134:1188   */\n      tag_477\n        /* \"#utility.yul\":1182:1187   */\n      dup3\n        /* \"#utility.yul\":1134:1188   */\n      tag_404\n      jump\t// in\n    tag_477:\n        /* \"#utility.yul\":1204:1290   */\n      tag_478\n        /* \"#utility.yul\":1283:1289   */\n      dup2\n        /* \"#utility.yul\":1278:1281   */\n      dup6\n        /* \"#utility.yul\":1204:1290   */\n      tag_405\n      jump\t// in\n    tag_478:\n        /* \"#utility.yul\":1197:1290   */\n      swap4\n      pop\n        /* \"#utility.yul\":1314:1370   */\n      tag_479\n        /* \"#utility.yul\":1364:1369   */\n      dup4\n        /* \"#utility.yul\":1314:1370   */\n      tag_406\n      jump\t// in\n    tag_479:\n        /* \"#utility.yul\":1393:1400   */\n      dup1\n        /* \"#utility.yul\":1424:1425   */\n      0x00\n        /* \"#utility.yul\":1409:1693   */\n    tag_480:\n        /* \"#utility.yul\":1434:1440   */\n      dup4\n        /* \"#utility.yul\":1431:1432   */\n      dup2\n        /* \"#utility.yul\":1428:1441   */\n      lt\n        /* \"#utility.yul\":1409:1693   */\n      iszero\n      tag_482\n      jumpi\n        /* \"#utility.yul\":1510:1516   */\n      dup2\n        /* \"#utility.yul\":1504:1517   */\n      mload\n        /* \"#utility.yul\":1537:1600   */\n      tag_483\n        /* \"#utility.yul\":1596:1599   */\n      dup9\n        /* \"#utility.yul\":1581:1594   */\n      dup3\n        /* \"#utility.yul\":1537:1600   */\n      tag_409\n      jump\t// in\n    tag_483:\n        /* \"#utility.yul\":1530:1600   */\n      swap8\n      pop\n        /* \"#utility.yul\":1623:1683   */\n      tag_484\n        /* \"#utility.yul\":1676:1682   */\n      dup4\n        /* \"#utility.yul\":1623:1683   */\n      tag_410\n      jump\t// in\n    tag_484:\n        /* \"#utility.yul\":1613:1683   */\n      swap3\n      pop\n        /* \"#utility.yul\":1469:1693   */\n      pop\n        /* \"#utility.yul\":1456:1457   */\n      0x01\n        /* \"#utility.yul\":1453:1454   */\n      dup2\n        /* \"#utility.yul\":1449:1458   */\n      add\n        /* \"#utility.yul\":1444:1458   */\n      swap1\n      pop\n        /* \"#utility.yul\":1409:1693   */\n      jump(tag_480)\n    tag_482:\n        /* \"#utility.yul\":1413:1427   */\n      pop\n        /* \"#utility.yul\":1709:1712   */\n      dup6\n        /* \"#utility.yul\":1702:1712   */\n      swap4\n      pop\n        /* \"#utility.yul\":1110:1718   */\n      pop\n      pop\n      pop\n        /* \"#utility.yul\":986:1718   */\n      swap3\n      swap2\n      pop\n      pop\n      jump\t// out\n        /* \"#utility.yul\":1724:2097   */\n    tag_25:\n        /* \"#utility.yul\":1867:1871   */\n      0x00\n        /* \"#utility.yul\":1905:1907   */\n      0x20\n        /* \"#utility.yul\":1894:1903   */\n      dup3\n        /* \"#utility.yul\":1890:1908   */\n      add\n        /* \"#utility.yul\":1882:1908   */\n      swap1\n      pop\n        /* \"#utility.yul\":1954:1963   */\n      dup2\n        /* \"#utility.yul\":1948:1952   */\n      dup2\n        /* \"#utility.yul\":1944:1964   */\n      sub\n        /* \"#utility.yul\":1940:1941   */\n      0x00\n        /* \"#utility.yul\":1929:1938   */\n      dup4\n        /* \"#utility.yul\":1925:1942   */\n      add\n        /* \"#utility.yul\":1918:1965   */\n      mstore\n        /* \"#utility.yul\":1982:2090   */\n      tag_486\n        /* \"#utility.yul\":2085:2089   */\n      dup2\n        /* \"#utility.yul\":2076:2082   */\n      dup5\n        /* \"#utility.yul\":1982:2090   */\n      tag_411\n      jump\t// in\n    tag_486:\n        /* \"#utility.yul\":1974:2090   */\n      swap1\n      pop\n        /* \"#utility.yul\":1724:2097   */\n      swap3\n      swap2\n      pop\n      pop\n      jump\t// out\n        /* \"#utility.yul\":2103:2178   */\n    tag_412:\n        /* \"#utility.yul\":2136:2142   */\n      0x00\n        /* \"#utility.yul\":2169:2171   */\n      0x40\n        /* \"#utility.yul\":2163:2172   */\n      mload\n        /* \"#utility.yul\":2153:2172   */\n      swap1\n      pop\n        /* \"#utility.yul\":2103:2178   */\n      swap1\n      jump\t// out\n        /* \"#utility.yul\":2184:2301   */\n    tag_413:\n        /* \"#utility.yul\":2293:2294   */\n      0x00\n        /* \"#utility.yul\":2290:2291   */\n      dup1\n        /* \"#utility.yul\":2283:2295   */\n      revert\n        /* \"#utility.yul\":2307:2424   */\n    tag_414:\n        /* \"#utility.yul\":2416:2417   */\n      0x00\n        /* \"#utility.yul\":2413:2414   */\n      dup1\n        /* \"#utility.yul\":2406:2418   */\n      revert\n        /* \"#utility.yul\":2430:2552   */\n    tag_415:\n        /* \"#utility.yul\":2503:2527   */\n      tag_491\n        /* \"#utility.yul\":2521:2526   */\n      dup2\n        /* \"#utility.yul\":2503:2527   */\n      tag_407\n      jump\t// in\n    tag_491:\n        /* \"#utility.yul\":2496:2501   */\n      dup2\n        /* \"#utility.yul\":2493:2528   */\n      eq\n        /* \"#utility.yul\":2483:2546   */\n      tag_492\n      jumpi\n        /* \"#utility.yul\":2542:2543   */\n      0x00\n        /* \"#utility.yul\":2539:2540   */\n      dup1\n        /* \"#utility.yul\":2532:2544   */\n      revert\n        /* \"#utility.yul\":2483:2546   */\n    tag_492:\n        /* \"#utility.yul\":2430:2552   */\n      pop\n      jump\t// out\n        /* \"#utility.yul\":2558:2697   */\n    tag_416:\n        /* \"#utility.yul\":2604:2609   */\n      0x00\n        /* \"#utility.yul\":2642:2648   */\n      dup2\n        /* \"#utility.yul\":2629:2649   */\n      calldataload\n        /* \"#utility.yul\":2620:2649   */\n      swap1\n      pop\n        /* \"#utility.yul\":2658:2691   */\n      tag_494\n        /* \"#utility.yul\":2685:2690   */\n      dup2\n        /* \"#utility.yul\":2658:2691   */\n      tag_415\n      jump\t// in\n    tag_494:\n        /* \"#utility.yul\":2558:2697   */\n      swap3\n      swap2\n      pop\n      pop\n      jump\t// out\n        /* \"#utility.yul\":2703:3032   */\n    tag_29:\n        /* \"#utility.yul\":2762:2768   */\n      0x00\n        /* \"#utility.yul\":2811:2813   */\n      0x20\n        /* \"#utility.yul\":2799:2808   */\n      dup3\n        /* \"#utility.yul\":2790:2797   */\n      dup5\n        /* \"#utility.yul\":2786:2809   */\n      sub\n        /* \"#utility.yul\":2782:2814   */\n      slt\n        /* \"#utility.yul\":2779:2898   */\n      iszero\n      tag_496\n      jumpi\n        /* \"#utility.yul\":2817:2896   */\n      tag_497\n      tag_413\n      jump\t// in\n    tag_497:\n        /* \"#utility.yul\":2779:2898   */\n    tag_496:\n        /* \"#utility.yul\":2937:2938   */\n      0x00\n        /* \"#utility.yul\":2962:3015   */\n      tag_498\n        /* \"#utility.yul\":3007:3014   */\n      dup5\n        /* \"#utility.yul\":2998:3004   */\n      dup3\n        /* \"#utility.yul\":2987:2996   */\n      dup6\n        /* \"#utility.yul\":2983:3005   */\n      add\n        /* \"#utility.yul\":2962:3015   */\n      tag_416\n      jump\t// in\n    tag_498:\n        /* \"#utility.yul\":2952:3015   */\n      swap2\n      pop\n        /* \"#utility.yul\":2908:3025   */\n      pop\n        /* \"#utility.yul\":2703:3032   */\n      swap3\n      swap2\n      pop\n      pop\n      jump\t// out\n        /* \"#utility.yul\":3038:3155   */\n    tag_417:\n        /* \"#utility.yul\":3147:3148   */\n      0x00\n        /* \"#utility.yul\":3144:3145   */\n      dup1\n        /* \"#utility.yul\":3137:3149   */\n      revert\n        /* \"#utility.yul\":3161:3263   */\n    tag_418:\n        /* \"#utility.yul\":3202:3208   */\n      0x00\n        /* \"#utility.yul\":3253:3255   */\n      0x1f\n        /* \"#utility.yul\":3249:3256   */\n      not\n        /* \"#utility.yul\":3244:3246   */\n      0x1f\n        /* \"#utility.yul\":3237:3242   */\n      dup4\n        /* \"#utility.yul\":3233:3247   */\n      add\n        /* \"#utility.yul\":3229:3257   */\n      and\n        /* \"#utility.yul\":3219:3257   */\n      swap1\n      pop\n        /* \"#utility.yul\":3161:3263   */\n      swap2\n      swap1\n      pop\n      jump\t// out\n        /* \"#utility.yul\":3269:3449   */\n    tag_419:\n        /* \"#utility.yul\":3317:3394   */\n      0x4e487b7100000000000000000000000000000000000000000000000000000000\n        /* \"#utility.yul\":3314:3315   */\n      0x00\n        /* \"#utility.yul\":3307:3395   */\n      mstore\n        /* \"#utility.yul\":3414:3418   */\n      0x41\n        /* \"#utility.yul\":3411:3412   */\n      0x04\n        /* \"#utility.yul\":3404:3419   */\n      mstore\n        /* \"#utility.yul\":3438:3442   */\n      0x24\n        /* \"#utility.yul\":3435:3436   */\n      0x00\n        /* \"#utility.yul\":3428:3443   */\n      revert\n        /* \"#utility.yul\":3455:3736   */\n    tag_420:\n        /* \"#utility.yul\":3538:3565   */\n      tag_503\n        /* \"#utility.yul\":3560:3564   */\n      dup3\n        /* \"#utility.yul\":3538:3565   */\n      tag_418\n      jump\t// in\n    tag_503:\n        /* \"#utility.yul\":3530:3536   */\n      dup2\n        /* \"#utility.yul\":3526:3566   */\n      add\n        /* \"#utility.yul\":3668:3674   */\n      dup2\n        /* \"#utility.yul\":3656:3666   */\n      dup2\n        /* \"#utility.yul\":3653:3675   */\n      lt\n        /* \"#utility.yul\":3632:3650   */\n      0xffffffffffffffff\n        /* \"#utility.yul\":3620:3630   */\n      dup3\n        /* \"#utility.yul\":3617:3651   */\n      gt\n        /* \"#utility.yul\":3614:3676   */\n      or\n        /* \"#utility.yul\":3611:3699   */\n      iszero\n      tag_504\n      jumpi\n        /* \"#utility.yul\":3679:3697   */\n      tag_505\n      tag_419\n      jump\t// in\n    tag_505:\n        /* \"#utility.yul\":3611:3699   */\n    tag_504:\n        /* \"#utility.yul\":3719:3729   */\n      dup1\n        /* \"#utility.yul\":3715:3717   */\n      0x40\n        /* \"#utility.yul\":3708:3730   */\n      mstore\n        /* \"#utility.yul\":3498:3736   */\n      pop\n        /* \"#utility.yul\":3455:3736   */\n      pop\n      pop\n      jump\t// out\n        /* \"#utility.yul\":3742:3871   */\n    tag_421:\n        /* \"#utility.yul\":3776:3782   */\n      0x00\n        /* \"#utility.yul\":3803:3823   */\n      tag_507\n      tag_412\n      jump\t// in\n    tag_507:\n        /* \"#utility.yul\":3793:3823   */\n      swap1\n      pop\n        /* \"#utility.yul\":3832:3865   */\n      tag_508\n        /* \"#utility.yul\":3860:3864   */\n      dup3\n        /* \"#utility.yul\":3852:3858   */\n      dup3\n        /* \"#utility.yul\":3832:3865   */\n      tag_420\n      jump\t// in\n    tag_508:\n        /* \"#utility.yul\":3742:3871   */\n      swap2\n      swap1\n      pop\n      jump\t// out\n        /* \"#utility.yul\":3877:4209   */\n    tag_422:\n        /* \"#utility.yul\":3975:3979   */\n      0x00\n        /* \"#utility.yul\":4065:4083   */\n      0xffffffffffffffff\n        /* \"#utility.yul\":4057:4063   */\n      dup3\n        /* \"#utility.yul\":4054:4084   */\n      gt\n        /* \"#utility.yul\":4051:4107   */\n      iszero\n      tag_510\n      jumpi\n        /* \"#utility.yul\":4087:4105   */\n      tag_511\n      tag_419\n      jump\t// in\n    tag_511:\n        /* \"#utility.yul\":4051:4107   */\n    tag_510:\n        /* \"#utility.yul\":4137:4141   */\n      0x20\n        /* \"#utility.yul\":4129:4135   */\n      dup3\n        /* \"#utility.yul\":4125:4142   */\n      mul\n        /* \"#utility.yul\":4117:4142   */\n      swap1\n      pop\n        /* \"#utility.yul\":4197:4201   */\n      0x20\n        /* \"#utility.yul\":4191:4195   */\n      dup2\n        /* \"#utility.yul\":4187:4202   */\n      add\n        /* \"#utility.yul\":4179:4202   */\n      swap1\n      pop\n        /* \"#utility.yul\":3877:4209   */\n      swap2\n      swap1\n      pop\n      jump\t// out\n        /* \"#utility.yul\":4215:4332   */\n    tag_423:\n        /* \"#utility.yul\":4324:4325   */\n      0x00\n        /* \"#utility.yul\":4321:4322   */\n      dup1\n        /* \"#utility.yul\":4314:4326   */\n      revert\n        /* \"#utility.yul\":4338:4455   */\n    tag_424:\n        /* \"#utility.yul\":4447:4448   */\n      0x00\n        /* \"#utility.yul\":4444:4445   */\n      dup1\n        /* \"#utility.yul\":4437:4449   */\n      revert\n        /* \"#utility.yul\":4584:4710   */\n    tag_426:\n        /* \"#utility.yul\":4621:4628   */\n      0x00\n        /* \"#utility.yul\":4661:4703   */\n      0xffffffffffffffffffffffffffffffffffffffff\n        /* \"#utility.yul\":4654:4659   */\n      dup3\n        /* \"#utility.yul\":4650:4704   */\n      and\n        /* \"#utility.yul\":4639:4704   */\n      swap1\n      pop\n        /* \"#utility.yul\":4584:4710   */\n      swap2\n      swap1\n      pop\n      jump\t// out\n        /* \"#utility.yul\":4716:4820   */\n    tag_427:\n        /* \"#utility.yul\":4761:4768   */\n      0x00\n        /* \"#utility.yul\":4790:4814   */\n      tag_517\n        /* \"#utility.yul\":4808:4813   */\n      dup3\n        /* \"#utility.yul\":4790:4814   */\n      tag_426\n      jump\t// in\n    tag_517:\n        /* \"#utility.yul\":4779:4814   */\n      swap1\n      pop\n        /* \"#utility.yul\":4716:4820   */\n      swap2\n      swap1\n      pop\n      jump\t// out\n        /* \"#utility.yul\":4826:4964   */\n    tag_428:\n        /* \"#utility.yul\":4907:4939   */\n      tag_519\n        /* \"#utility.yul\":4933:4938   */\n      dup2\n        /* \"#utility.yul\":4907:4939   */\n      tag_427\n      jump\t// in\n    tag_519:\n        /* \"#utility.yul\":4900:4905   */\n      dup2\n        /* \"#utility.yul\":4897:4940   */\n      eq\n        /* \"#utility.yul\":4887:4958   */\n      tag_520\n      jumpi\n        /* \"#utility.yul\":4954:4955   */\n      0x00\n        /* \"#utility.yul\":4951:4952   */\n      dup1\n        /* \"#utility.yul\":4944:4956   */\n      revert\n        /* \"#utility.yul\":4887:4958   */\n    tag_520:\n        /* \"#utility.yul\":4826:4964   */\n      pop\n      jump\t// out\n        /* \"#utility.yul\":4970:5125   */\n    tag_429:\n        /* \"#utility.yul\":5024:5029   */\n      0x00\n        /* \"#utility.yul\":5062:5068   */\n      dup2\n        /* \"#utility.yul\":5049:5069   */\n      calldataload\n        /* \"#utility.yul\":5040:5069   */\n      swap1\n      pop\n        /* \"#utility.yul\":5078:5119   */\n      tag_522\n        /* \"#utility.yul\":5113:5118   */\n      dup2\n        /* \"#utility.yul\":5078:5119   */\n      tag_428\n      jump\t// in\n    tag_522:\n        /* \"#utility.yul\":4970:5125   */\n      swap3\n      swap2\n      pop\n      pop\n      jump\t// out\n        /* \"#utility.yul\":5131:5237   */\n    tag_430:\n        /* \"#utility.yul\":5211:5212   */\n      0x02\n        /* \"#utility.yul\":5204:5209   */\n      dup2\n        /* \"#utility.yul\":5201:5213   */\n      lt\n        /* \"#utility.yul\":5191:5231   */\n      tag_524\n      jumpi\n        /* \"#utility.yul\":5227:5228   */\n      0x00\n        /* \"#utility.yul\":5224:5225   */\n      dup1\n        /* \"#utility.yul\":5217:5229   */\n      revert\n        /* \"#utility.yul\":5191:5231   */\n    tag_524:\n        /* \"#utility.yul\":5131:5237   */\n      pop\n      jump\t// out\n        /* \"#utility.yul\":5243:5396   */\n    tag_431:\n        /* \"#utility.yul\":5296:5301   */\n      0x00\n        /* \"#utility.yul\":5334:5340   */\n      dup2\n        /* \"#utility.yul\":5321:5341   */\n      calldataload\n        /* \"#utility.yul\":5312:5341   */\n      swap1\n      pop\n        /* \"#utility.yul\":5350:5390   */\n      tag_526\n        /* \"#utility.yul\":5384:5389   */\n      dup2\n        /* \"#utility.yul\":5350:5390   */\n      tag_430\n      jump\t// in\n    tag_526:\n        /* \"#utility.yul\":5243:5396   */\n      swap3\n      swap2\n      pop\n      pop\n      jump\t// out\n        /* \"#utility.yul\":5432:6350   */\n    tag_432:\n        /* \"#utility.yul\":5502:5507   */\n      0x00\n        /* \"#utility.yul\":5546:5550   */\n      0x80\n        /* \"#utility.yul\":5534:5543   */\n      dup3\n        /* \"#utility.yul\":5529:5532   */\n      dup5\n        /* \"#utility.yul\":5525:5544   */\n      sub\n        /* \"#utility.yul\":5521:5551   */\n      slt\n        /* \"#utility.yul\":5518:5635   */\n      iszero\n      tag_528\n      jumpi\n        /* \"#utility.yul\":5554:5633   */\n      tag_529\n      tag_424\n      jump\t// in\n    tag_529:\n        /* \"#utility.yul\":5518:5635   */\n    tag_528:\n        /* \"#utility.yul\":5653:5674   */\n      tag_530\n        /* \"#utility.yul\":5669:5673   */\n      0x80\n        /* \"#utility.yul\":5653:5674   */\n      tag_421\n      jump\t// in\n    tag_530:\n        /* \"#utility.yul\":5644:5674   */\n      swap1\n      pop\n        /* \"#utility.yul\":5737:5738   */\n      0x00\n        /* \"#utility.yul\":5777:5834   */\n      tag_531\n        /* \"#utility.yul\":5830:5833   */\n      dup5\n        /* \"#utility.yul\":5821:5827   */\n      dup3\n        /* \"#utility.yul\":5810:5819   */\n      dup6\n        /* \"#utility.yul\":5806:5828   */\n      add\n        /* \"#utility.yul\":5777:5834   */\n      tag_429\n      jump\t// in\n    tag_531:\n        /* \"#utility.yul\":5770:5774   */\n      0x00\n        /* \"#utility.yul\":5763:5768   */\n      dup4\n        /* \"#utility.yul\":5759:5775   */\n      add\n        /* \"#utility.yul\":5752:5835   */\n      mstore\n        /* \"#utility.yul\":5684:5846   */\n      pop\n        /* \"#utility.yul\":5906:5908   */\n      0x20\n        /* \"#utility.yul\":5947:5996   */\n      tag_532\n        /* \"#utility.yul\":5992:5995   */\n      dup5\n        /* \"#utility.yul\":5983:5989   */\n      dup3\n        /* \"#utility.yul\":5972:5981   */\n      dup6\n        /* \"#utility.yul\":5968:5990   */\n      add\n        /* \"#utility.yul\":5947:5996   */\n      tag_416\n      jump\t// in\n    tag_532:\n        /* \"#utility.yul\":5940:5944   */\n      0x20\n        /* \"#utility.yul\":5933:5938   */\n      dup4\n        /* \"#utility.yul\":5929:5945   */\n      add\n        /* \"#utility.yul\":5922:5997   */\n      mstore\n        /* \"#utility.yul\":5856:6008   */\n      pop\n        /* \"#utility.yul\":6072:6074   */\n      0x40\n        /* \"#utility.yul\":6113:6162   */\n      tag_533\n        /* \"#utility.yul\":6158:6161   */\n      dup5\n        /* \"#utility.yul\":6149:6155   */\n      dup3\n        /* \"#utility.yul\":6138:6147   */\n      dup6\n        /* \"#utility.yul\":6134:6156   */\n      add\n        /* \"#utility.yul\":6113:6162   */\n      tag_416\n      jump\t// in\n    tag_533:\n        /* \"#utility.yul\":6106:6110   */\n      0x40\n        /* \"#utility.yul\":6099:6104   */\n      dup4\n        /* \"#utility.yul\":6095:6111   */\n      add\n        /* \"#utility.yul\":6088:6163   */\n      mstore\n        /* \"#utility.yul\":6018:6174   */\n      pop\n        /* \"#utility.yul\":6234:6236   */\n      0x60\n        /* \"#utility.yul\":6275:6331   */\n      tag_534\n        /* \"#utility.yul\":6327:6330   */\n      dup5\n        /* \"#utility.yul\":6318:6324   */\n      dup3\n        /* \"#utility.yul\":6307:6316   */\n      dup6\n        /* \"#utility.yul\":6303:6325   */\n      add\n        /* \"#utility.yul\":6275:6331   */\n      tag_431\n      jump\t// in\n    tag_534:\n        /* \"#utility.yul\":6268:6272   */\n      0x60\n        /* \"#utility.yul\":6261:6266   */\n      dup4\n        /* \"#utility.yul\":6257:6273   */\n      add\n        /* \"#utility.yul\":6250:6332   */\n      mstore\n        /* \"#utility.yul\":6184:6343   */\n      pop\n        /* \"#utility.yul\":5432:6350   */\n      swap3\n      swap2\n      pop\n      pop\n      jump\t// out\n        /* \"#utility.yul\":6388:7161   */\n    tag_433:\n        /* \"#utility.yul\":6505:6510   */\n      0x00\n        /* \"#utility.yul\":6530:6632   */\n      tag_536\n        /* \"#utility.yul\":6546:6631   */\n      tag_537\n        /* \"#utility.yul\":6624:6630   */\n      dup5\n        /* \"#utility.yul\":6546:6631   */\n      tag_422\n      jump\t// in\n    tag_537:\n        /* \"#utility.yul\":6530:6632   */\n      tag_421\n      jump\t// in\n    tag_536:\n        /* \"#utility.yul\":6521:6632   */\n      swap1\n      pop\n        /* \"#utility.yul\":6652:6657   */\n      dup1\n        /* \"#utility.yul\":6681:6687   */\n      dup4\n        /* \"#utility.yul\":6674:6679   */\n      dup3\n        /* \"#utility.yul\":6667:6688   */\n      mstore\n        /* \"#utility.yul\":6715:6719   */\n      0x20\n        /* \"#utility.yul\":6708:6713   */\n      dup3\n        /* \"#utility.yul\":6704:6720   */\n      add\n        /* \"#utility.yul\":6697:6720   */\n      swap1\n      pop\n        /* \"#utility.yul\":6768:6772   */\n      0x80\n        /* \"#utility.yul\":6760:6766   */\n      dup5\n        /* \"#utility.yul\":6756:6773   */\n      mul\n        /* \"#utility.yul\":6748:6754   */\n      dup4\n        /* \"#utility.yul\":6744:6774   */\n      add\n        /* \"#utility.yul\":6797:6800   */\n      dup6\n        /* \"#utility.yul\":6789:6795   */\n      dup2\n        /* \"#utility.yul\":6786:6801   */\n      gt\n        /* \"#utility.yul\":6783:6905   */\n      iszero\n      tag_538\n      jumpi\n        /* \"#utility.yul\":6816:6895   */\n      tag_539\n      tag_423\n      jump\t// in\n    tag_539:\n        /* \"#utility.yul\":6783:6905   */\n    tag_538:\n        /* \"#utility.yul\":6931:6937   */\n      dup4\n        /* \"#utility.yul\":6914:7155   */\n    tag_540:\n        /* \"#utility.yul\":6948:6954   */\n      dup2\n        /* \"#utility.yul\":6943:6946   */\n      dup2\n        /* \"#utility.yul\":6940:6955   */\n      lt\n        /* \"#utility.yul\":6914:7155   */\n      iszero\n      tag_542\n      jumpi\n        /* \"#utility.yul\":7023:7026   */\n      dup1\n        /* \"#utility.yul\":7052:7110   */\n      tag_543\n        /* \"#utility.yul\":7106:7109   */\n      dup9\n        /* \"#utility.yul\":7094:7104   */\n      dup3\n        /* \"#utility.yul\":7052:7110   */\n      tag_432\n      jump\t// in\n    tag_543:\n        /* \"#utility.yul\":7047:7050   */\n      dup5\n        /* \"#utility.yul\":7040:7111   */\n      mstore\n        /* \"#utility.yul\":7140:7144   */\n      0x20\n        /* \"#utility.yul\":7135:7138   */\n      dup5\n        /* \"#utility.yul\":7131:7145   */\n      add\n        /* \"#utility.yul\":7124:7145   */\n      swap4\n      pop\n        /* \"#utility.yul\":6990:7155   */\n      pop\n        /* \"#utility.yul\":6974:6978   */\n      0x80\n        /* \"#utility.yul\":6969:6972   */\n      dup2\n        /* \"#utility.yul\":6965:6979   */\n      add\n        /* \"#utility.yul\":6958:6979   */\n      swap1\n      pop\n        /* \"#utility.yul\":6914:7155   */\n      jump(tag_540)\n    tag_542:\n        /* \"#utility.yul\":6918:6939   */\n      pop\n        /* \"#utility.yul\":6511:7161   */\n      pop\n      pop\n        /* \"#utility.yul\":6388:7161   */\n      swap4\n      swap3\n      pop\n      pop\n      pop\n      jump\t// out\n        /* \"#utility.yul\":7199:7611   */\n    tag_434:\n        /* \"#utility.yul\":7291:7296   */\n      0x00\n        /* \"#utility.yul\":7340:7343   */\n      dup3\n        /* \"#utility.yul\":7333:7337   */\n      0x1f\n        /* \"#utility.yul\":7325:7331   */\n      dup4\n        /* \"#utility.yul\":7321:7338   */\n      add\n        /* \"#utility.yul\":7317:7344   */\n      slt\n        /* \"#utility.yul\":7307:7429   */\n      tag_545\n      jumpi\n        /* \"#utility.yul\":7348:7427   */\n      tag_546\n      tag_417\n      jump\t// in\n    tag_546:\n        /* \"#utility.yul\":7307:7429   */\n    tag_545:\n        /* \"#utility.yul\":7465:7471   */\n      dup2\n        /* \"#utility.yul\":7452:7472   */\n      calldataload\n        /* \"#utility.yul\":7490:7605   */\n      tag_547\n        /* \"#utility.yul\":7601:7604   */\n      dup5\n        /* \"#utility.yul\":7593:7599   */\n      dup3\n        /* \"#utility.yul\":7586:7590   */\n      0x20\n        /* \"#utility.yul\":7578:7584   */\n      dup7\n        /* \"#utility.yul\":7574:7591   */\n      add\n        /* \"#utility.yul\":7490:7605   */\n      tag_433\n      jump\t// in\n    tag_547:\n        /* \"#utility.yul\":7481:7605   */\n      swap2\n      pop\n        /* \"#utility.yul\":7297:7611   */\n      pop\n        /* \"#utility.yul\":7199:7611   */\n      swap3\n      swap2\n      pop\n      pop\n      jump\t// out\n        /* \"#utility.yul\":7617:8198   */\n    tag_34:\n        /* \"#utility.yul\":7722:7728   */\n      0x00\n        /* \"#utility.yul\":7771:7773   */\n      0x20\n        /* \"#utility.yul\":7759:7768   */\n      dup3\n        /* \"#utility.yul\":7750:7757   */\n      dup5\n        /* \"#utility.yul\":7746:7769   */\n      sub\n        /* \"#utility.yul\":7742:7774   */\n      slt\n        /* \"#utility.yul\":7739:7858   */\n      iszero\n      tag_549\n      jumpi\n        /* \"#utility.yul\":7777:7856   */\n      tag_550\n      tag_413\n      jump\t// in\n    tag_550:\n        /* \"#utility.yul\":7739:7858   */\n    tag_549:\n        /* \"#utility.yul\":7925:7926   */\n      0x00\n        /* \"#utility.yul\":7914:7923   */\n      dup3\n        /* \"#utility.yul\":7910:7927   */\n      add\n        /* \"#utility.yul\":7897:7928   */\n      calldataload\n        /* \"#utility.yul\":7955:7973   */\n      0xffffffffffffffff\n        /* \"#utility.yul\":7947:7953   */\n      dup2\n        /* \"#utility.yul\":7944:7974   */\n      gt\n        /* \"#utility.yul\":7941:8058   */\n      iszero\n      tag_551\n      jumpi\n        /* \"#utility.yul\":7977:8056   */\n      tag_552\n      tag_414\n      jump\t// in\n    tag_552:\n        /* \"#utility.yul\":7941:8058   */\n    tag_551:\n        /* \"#utility.yul\":8082:8181   */\n      tag_553\n        /* \"#utility.yul\":8173:8180   */\n      dup5\n        /* \"#utility.yul\":8164:8170   */\n      dup3\n        /* \"#utility.yul\":8153:8162   */\n      dup6\n        /* \"#utility.yul\":8149:8171   */\n      add\n        /* \"#utility.yul\":8082:8181   */\n      tag_434\n      jump\t// in\n    tag_553:\n        /* \"#utility.yul\":8072:8181   */\n      swap2\n      pop\n        /* \"#utility.yul\":7868:8191   */\n      pop\n        /* \"#utility.yul\":7617:8198   */\n      swap3\n      swap2\n      pop\n      pop\n      jump\t// out\n        /* \"#utility.yul\":8204:8339   */\n    tag_435:\n        /* \"#utility.yul\":8292:8298   */\n      0x00\n        /* \"#utility.yul\":8326:8331   */\n      dup2\n        /* \"#utility.yul\":8320:8332   */\n      mload\n        /* \"#utility.yul\":8310:8332   */\n      swap1\n      pop\n        /* \"#utility.yul\":8204:8339   */\n      swap2\n      swap1\n      pop\n      jump\t// out\n        /* \"#utility.yul\":8345:8550   */\n    tag_436:\n        /* \"#utility.yul\":8465:8476   */\n      0x00\n        /* \"#utility.yul\":8499:8505   */\n      dup3\n        /* \"#utility.yul\":8494:8497   */\n      dup3\n        /* \"#utility.yul\":8487:8506   */\n      mstore\n        /* \"#utility.yul\":8539:8543   */\n      0x20\n        /* \"#utility.yul\":8534:8537   */\n      dup3\n        /* \"#utility.yul\":8530:8544   */\n      add\n        /* \"#utility.yul\":8515:8544   */\n      swap1\n      pop\n        /* \"#utility.yul\":8345:8550   */\n      swap3\n      swap2\n      pop\n      pop\n      jump\t// out\n        /* \"#utility.yul\":8556:8709   */\n    tag_437:\n        /* \"#utility.yul\":8644:8648   */\n      0x00\n        /* \"#utility.yul\":8667:8670   */\n      dup2\n        /* \"#utility.yul\":8659:8670   */\n      swap1\n      pop\n        /* \"#utility.yul\":8697:8701   */\n      0x20\n        /* \"#utility.yul\":8692:8695   */\n      dup3\n        /* \"#utility.yul\":8688:8702   */\n      add\n        /* \"#utility.yul\":8680:8702   */\n      swap1\n      pop\n        /* \"#utility.yul\":8556:8709   */\n      swap2\n      swap1\n      pop\n      jump\t// out\n        /* \"#utility.yul\":8715:8847   */\n    tag_438:\n        /* \"#utility.yul\":8808:8840   */\n      tag_558\n        /* \"#utility.yul\":8834:8839   */\n      dup2\n        /* \"#utility.yul\":8808:8840   */\n      tag_427\n      jump\t// in\n    tag_558:\n        /* \"#utility.yul\":8803:8806   */\n      dup3\n        /* \"#utility.yul\":8796:8841   */\n      mstore\n        /* \"#utility.yul\":8715:8847   */\n      pop\n      pop\n      jump\t// out\n        /* \"#utility.yul\":8853:9033   */\n    tag_119:\n        /* \"#utility.yul\":8901:8978   */\n      0x4e487b7100000000000000000000000000000000000000000000000000000000\n        /* \"#utility.yul\":8898:8899   */\n      0x00\n        /* \"#utility.yul\":8891:8979   */\n      mstore\n        /* \"#utility.yul\":8998:9002   */\n      0x21\n        /* \"#utility.yul\":8995:8996   */\n      0x04\n        /* \"#utility.yul\":8988:9003   */\n      mstore\n        /* \"#utility.yul\":9022:9026   */\n      0x24\n        /* \"#utility.yul\":9019:9020   */\n      0x00\n        /* \"#utility.yul\":9012:9027   */\n      revert\n        /* \"#utility.yul\":9039:9151   */\n    tag_439:\n        /* \"#utility.yul\":9119:9120   */\n      0x02\n        /* \"#utility.yul\":9112:9117   */\n      dup2\n        /* \"#utility.yul\":9109:9121   */\n      lt\n        /* \"#utility.yul\":9099:9145   */\n      tag_561\n      jumpi\n        /* \"#utility.yul\":9125:9143   */\n      tag_562\n      tag_119\n      jump\t// in\n    tag_562:\n        /* \"#utility.yul\":9099:9145   */\n    tag_561:\n        /* \"#utility.yul\":9039:9151   */\n      pop\n      jump\t// out\n        /* \"#utility.yul\":9157:9282   */\n    tag_440:\n        /* \"#utility.yul\":9201:9208   */\n      0x00\n        /* \"#utility.yul\":9230:9235   */\n      dup2\n        /* \"#utility.yul\":9219:9235   */\n      swap1\n      pop\n        /* \"#utility.yul\":9236:9276   */\n      tag_564\n        /* \"#utility.yul\":9270:9275   */\n      dup3\n        /* \"#utility.yul\":9236:9276   */\n      tag_439\n      jump\t// in\n    tag_564:\n        /* \"#utility.yul\":9157:9282   */\n      swap2\n      swap1\n      pop\n      jump\t// out\n        /* \"#utility.yul\":9288:9413   */\n    tag_441:\n        /* \"#utility.yul\":9343:9352   */\n      0x00\n        /* \"#utility.yul\":9376:9407   */\n      tag_566\n        /* \"#utility.yul\":9401:9406   */\n      dup3\n        /* \"#utility.yul\":9376:9407   */\n      tag_440\n      jump\t// in\n    tag_566:\n        /* \"#utility.yul\":9363:9407   */\n      swap1\n      pop\n        /* \"#utility.yul\":9288:9413   */\n      swap2\n      swap1\n      pop\n      jump\t// out\n        /* \"#utility.yul\":9419:9550   */\n    tag_442:\n        /* \"#utility.yul\":9501:9543   */\n      tag_568\n        /* \"#utility.yul\":9537:9542   */\n      dup2\n        /* \"#utility.yul\":9501:9543   */\n      tag_441\n      jump\t// in\n    tag_568:\n        /* \"#utility.yul\":9496:9499   */\n      dup3\n        /* \"#utility.yul\":9489:9544   */\n      mstore\n        /* \"#utility.yul\":9419:9550   */\n      pop\n      pop\n      jump\t// out\n        /* \"#utility.yul\":9612:10481   */\n    tag_443:\n        /* \"#utility.yul\":9741:9745   */\n      0x80\n        /* \"#utility.yul\":9736:9739   */\n      dup3\n        /* \"#utility.yul\":9732:9746   */\n      add\n        /* \"#utility.yul\":9832:9836   */\n      0x00\n        /* \"#utility.yul\":9825:9830   */\n      dup3\n        /* \"#utility.yul\":9821:9837   */\n      add\n        /* \"#utility.yul\":9815:9838   */\n      mload\n        /* \"#utility.yul\":9851:9930   */\n      tag_570\n        /* \"#utility.yul\":9924:9928   */\n      0x00\n        /* \"#utility.yul\":9919:9922   */\n      dup6\n        /* \"#utility.yul\":9915:9929   */\n      add\n        /* \"#utility.yul\":9901:9913   */\n      dup3\n        /* \"#utility.yul\":9851:9930   */\n      tag_438\n      jump\t// in\n    tag_570:\n        /* \"#utility.yul\":9756:9940   */\n      pop\n        /* \"#utility.yul\":10023:10027   */\n      0x20\n        /* \"#utility.yul\":10016:10021   */\n      dup3\n        /* \"#utility.yul\":10012:10028   */\n      add\n        /* \"#utility.yul\":10006:10029   */\n      mload\n        /* \"#utility.yul\":10042:10105   */\n      tag_571\n        /* \"#utility.yul\":10099:10103   */\n      0x20\n        /* \"#utility.yul\":10094:10097   */\n      dup6\n        /* \"#utility.yul\":10090:10104   */\n      add\n        /* \"#utility.yul\":10076:10088   */\n      dup3\n        /* \"#utility.yul\":10042:10105   */\n      tag_408\n      jump\t// in\n    tag_571:\n        /* \"#utility.yul\":9950:10115   */\n      pop\n        /* \"#utility.yul\":10202:10206   */\n      0x40\n        /* \"#utility.yul\":10195:10200   */\n      dup3\n        /* \"#utility.yul\":10191:10207   */\n      add\n        /* \"#utility.yul\":10185:10208   */\n      mload\n        /* \"#utility.yul\":10221:10284   */\n      tag_572\n        /* \"#utility.yul\":10278:10282   */\n      0x40\n        /* \"#utility.yul\":10273:10276   */\n      dup6\n        /* \"#utility.yul\":10269:10283   */\n      add\n        /* \"#utility.yul\":10255:10267   */\n      dup3\n        /* \"#utility.yul\":10221:10284   */\n      tag_408\n      jump\t// in\n    tag_572:\n        /* \"#utility.yul\":10125:10294   */\n      pop\n        /* \"#utility.yul\":10377:10381   */\n      0x60\n        /* \"#utility.yul\":10370:10375   */\n      dup3\n        /* \"#utility.yul\":10366:10382   */\n      add\n        /* \"#utility.yul\":10360:10383   */\n      mload\n        /* \"#utility.yul\":10396:10464   */\n      tag_573\n        /* \"#utility.yul\":10458:10462   */\n      0x60\n        /* \"#utility.yul\":10453:10456   */\n      dup6\n        /* \"#utility.yul\":10449:10463   */\n      add\n        /* \"#utility.yul\":10435:10447   */\n      dup3\n        /* \"#utility.yul\":10396:10464   */\n      tag_442\n      jump\t// in\n    tag_573:\n        /* \"#utility.yul\":10304:10474   */\n      pop\n        /* \"#utility.yul\":9710:10481   */\n      pop\n        /* \"#utility.yul\":9612:10481   */\n      pop\n      pop\n      jump\t// out\n        /* \"#utility.yul\":10487:10750   */\n    tag_444:\n        /* \"#utility.yul\":10598:10608   */\n      0x00\n        /* \"#utility.yul\":10619:10707   */\n      tag_575\n        /* \"#utility.yul\":10703:10706   */\n      dup4\n        /* \"#utility.yul\":10695:10701   */\n      dup4\n        /* \"#utility.yul\":10619:10707   */\n      tag_443\n      jump\t// in\n    tag_575:\n        /* \"#utility.yul\":10739:10743   */\n      0x80\n        /* \"#utility.yul\":10734:10737   */\n      dup4\n        /* \"#utility.yul\":10730:10744   */\n      add\n        /* \"#utility.yul\":10716:10744   */\n      swap1\n      pop\n        /* \"#utility.yul\":10487:10750   */\n      swap3\n      swap2\n      pop\n      pop\n      jump\t// out\n        /* \"#utility.yul\":10756:10890   */\n    tag_445:\n        /* \"#utility.yul\":10847:10851   */\n      0x00\n        /* \"#utility.yul\":10879:10883   */\n      0x20\n        /* \"#utility.yul\":10874:10877   */\n      dup3\n        /* \"#utility.yul\":10870:10884   */\n      add\n        /* \"#utility.yul\":10862:10884   */\n      swap1\n      pop\n        /* \"#utility.yul\":10756:10890   */\n      swap2\n      swap1\n      pop\n      jump\t// out\n        /* \"#utility.yul\":10956:11856   */\n    tag_446:\n        /* \"#utility.yul\":11117:11120   */\n      0x00\n        /* \"#utility.yul\":11146:11221   */\n      tag_578\n        /* \"#utility.yul\":11215:11220   */\n      dup3\n        /* \"#utility.yul\":11146:11221   */\n      tag_435\n      jump\t// in\n    tag_578:\n        /* \"#utility.yul\":11237:11344   */\n      tag_579\n        /* \"#utility.yul\":11337:11343   */\n      dup2\n        /* \"#utility.yul\":11332:11335   */\n      dup6\n        /* \"#utility.yul\":11237:11344   */\n      tag_436\n      jump\t// in\n    tag_579:\n        /* \"#utility.yul\":11230:11344   */\n      swap4\n      pop\n        /* \"#utility.yul\":11368:11445   */\n      tag_580\n        /* \"#utility.yul\":11439:11444   */\n      dup4\n        /* \"#utility.yul\":11368:11445   */\n      tag_437\n      jump\t// in\n    tag_580:\n        /* \"#utility.yul\":11468:11475   */\n      dup1\n        /* \"#utility.yul\":11499:11500   */\n      0x00\n        /* \"#utility.yul\":11484:11831   */\n    tag_581:\n        /* \"#utility.yul\":11509:11515   */\n      dup4\n        /* \"#utility.yul\":11506:11507   */\n      dup2\n        /* \"#utility.yul\":11503:11516   */\n      lt\n        /* \"#utility.yul\":11484:11831   */\n      iszero\n      tag_583\n      jumpi\n        /* \"#utility.yul\":11585:11591   */\n      dup2\n        /* \"#utility.yul\":11579:11592   */\n      mload\n        /* \"#utility.yul\":11612:11717   */\n      tag_584\n        /* \"#utility.yul\":11713:11716   */\n      dup9\n        /* \"#utility.yul\":11698:11711   */\n      dup3\n        /* \"#utility.yul\":11612:11717   */\n      tag_444\n      jump\t// in\n    tag_584:\n        /* \"#utility.yul\":11605:11717   */\n      swap8\n      pop\n        /* \"#utility.yul\":11740:11821   */\n      tag_585\n        /* \"#utility.yul\":11814:11820   */\n      dup4\n        /* \"#utility.yul\":11740:11821   */\n      tag_445\n      jump\t// in\n    tag_585:\n        /* \"#utility.yul\":11730:11821   */\n      swap3\n      pop\n        /* \"#utility.yul\":11544:11831   */\n      pop\n        /* \"#utility.yul\":11531:11532   */\n      0x01\n        /* \"#utility.yul\":11528:11529   */\n      dup2\n        /* \"#utility.yul\":11524:11533   */\n      add\n        /* \"#utility.yul\":11519:11533   */\n      swap1\n      pop\n        /* \"#utility.yul\":11484:11831   */\n      jump(tag_581)\n    tag_583:\n        /* \"#utility.yul\":11488:11502   */\n      pop\n        /* \"#utility.yul\":11847:11850   */\n      dup6\n        /* \"#utility.yul\":11840:11850   */\n      swap4\n      pop\n        /* \"#utility.yul\":11122:11856   */\n      pop\n      pop\n      pop\n        /* \"#utility.yul\":10956:11856   */\n      swap3\n      swap2\n      pop\n      pop\n      jump\t// out\n        /* \"#utility.yul\":11862:12319   */\n    tag_37:\n        /* \"#utility.yul\":12047:12051   */\n      0x00\n        /* \"#utility.yul\":12085:12087   */\n      0x20\n        /* \"#utility.yul\":12074:12083   */\n      dup3\n        /* \"#utility.yul\":12070:12088   */\n      add\n        /* \"#utility.yul\":12062:12088   */\n      swap1\n      pop\n        /* \"#utility.yul\":12134:12143   */\n      dup2\n        /* \"#utility.yul\":12128:12132   */\n      dup2\n        /* \"#utility.yul\":12124:12144   */\n      sub\n        /* \"#utility.yul\":12120:12121   */\n      0x00\n        /* \"#utility.yul\":12109:12118   */\n      dup4\n        /* \"#utility.yul\":12105:12122   */\n      add\n        /* \"#utility.yul\":12098:12145   */\n      mstore\n        /* \"#utility.yul\":12162:12312   */\n      tag_587\n        /* \"#utility.yul\":12307:12311   */\n      dup2\n        /* \"#utility.yul\":12298:12304   */\n      dup5\n        /* \"#utility.yul\":12162:12312   */\n      tag_446\n      jump\t// in\n    tag_587:\n        /* \"#utility.yul\":12154:12312   */\n      swap1\n      pop\n        /* \"#utility.yul\":11862:12319   */\n      swap3\n      swap2\n      pop\n      pop\n      jump\t// out\n        /* \"#utility.yul\":12325:12443   */\n    tag_447:\n        /* \"#utility.yul\":12412:12436   */\n      tag_589\n        /* \"#utility.yul\":12430:12435   */\n      dup2\n        /* \"#utility.yul\":12412:12436   */\n      tag_407\n      jump\t// in\n    tag_589:\n        /* \"#utility.yul\":12407:12410   */\n      dup3\n        /* \"#utility.yul\":12400:12437   */\n      mstore\n        /* \"#utility.yul\":12325:12443   */\n      pop\n      pop\n      jump\t// out\n        /* \"#utility.yul\":12449:12671   */\n    tag_43:\n        /* \"#utility.yul\":12542:12546   */\n      0x00\n        /* \"#utility.yul\":12580:12582   */\n      0x20\n        /* \"#utility.yul\":12569:12578   */\n      dup3\n        /* \"#utility.yul\":12565:12583   */\n      add\n        /* \"#utility.yul\":12557:12583   */\n      swap1\n      pop\n        /* \"#utility.yul\":12593:12664   */\n      tag_591\n        /* \"#utility.yul\":12661:12662   */\n      0x00\n        /* \"#utility.yul\":12650:12659   */\n      dup4\n        /* \"#utility.yul\":12646:12663   */\n      add\n        /* \"#utility.yul\":12637:12643   */\n      dup5\n        /* \"#utility.yul\":12593:12664   */\n      tag_447\n      jump\t// in\n    tag_591:\n        /* \"#utility.yul\":12449:12671   */\n      swap3\n      swap2\n      pop\n      pop\n      jump\t// out\n        /* \"#utility.yul\":12677:12818   */\n    tag_448:\n        /* \"#utility.yul\":12769:12811   */\n      tag_593\n        /* \"#utility.yul\":12805:12810   */\n      dup2\n        /* \"#utility.yul\":12769:12811   */\n      tag_441\n      jump\t// in\n    tag_593:\n        /* \"#utility.yul\":12764:12767   */\n      dup3\n        /* \"#utility.yul\":12757:12812   */\n      mstore\n        /* \"#utility.yul\":12677:12818   */\n      pop\n      pop\n      jump\t// out\n        /* \"#utility.yul\":12824:13056   */\n    tag_53:\n        /* \"#utility.yul\":12922:12926   */\n      0x00\n        /* \"#utility.yul\":12960:12962   */\n      0x20\n        /* \"#utility.yul\":12949:12958   */\n      dup3\n        /* \"#utility.yul\":12945:12963   */\n      add\n        /* \"#utility.yul\":12937:12963   */\n      swap1\n      pop\n        /* \"#utility.yul\":12973:13049   */\n      tag_595\n        /* \"#utility.yul\":13046:13047   */\n      0x00\n        /* \"#utility.yul\":13035:13044   */\n      dup4\n        /* \"#utility.yul\":13031:13048   */\n      add\n        /* \"#utility.yul\":13022:13028   */\n      dup5\n        /* \"#utility.yul\":12973:13049   */\n      tag_448\n      jump\t// in\n    tag_595:\n        /* \"#utility.yul\":12824:13056   */\n      swap3\n      swap2\n      pop\n      pop\n      jump\t// out\n        /* \"#utility.yul\":13062:13204   */\n    tag_449:\n        /* \"#utility.yul\":13165:13197   */\n      tag_597\n        /* \"#utility.yul\":13191:13196   */\n      dup2\n        /* \"#utility.yul\":13165:13197   */\n      tag_427\n      jump\t// in\n    tag_597:\n        /* \"#utility.yul\":13160:13163   */\n      dup3\n        /* \"#utility.yul\":13153:13198   */\n      mstore\n        /* \"#utility.yul\":13062:13204   */\n      pop\n      pop\n      jump\t// out\n        /* \"#utility.yul\":13210:13464   */\n    tag_59:\n        /* \"#utility.yul\":13319:13323   */\n      0x00\n        /* \"#utility.yul\":13357:13359   */\n      0x20\n        /* \"#utility.yul\":13346:13355   */\n      dup3\n        /* \"#utility.yul\":13342:13360   */\n      add\n        /* \"#utility.yul\":13334:13360   */\n      swap1\n      pop\n        /* \"#utility.yul\":13370:13457   */\n      tag_599\n        /* \"#utility.yul\":13454:13455   */\n      0x00\n        /* \"#utility.yul\":13443:13452   */\n      dup4\n        /* \"#utility.yul\":13439:13456   */\n      add\n        /* \"#utility.yul\":13430:13436   */\n      dup5\n        /* \"#utility.yul\":13370:13457   */\n      tag_449\n      jump\t// in\n    tag_599:\n        /* \"#utility.yul\":13210:13464   */\n      swap3\n      swap2\n      pop\n      pop\n      jump\t// out\n        /* \"#utility.yul\":13470:13650   */\n    tag_106:\n        /* \"#utility.yul\":13518:13595   */\n      0x4e487b7100000000000000000000000000000000000000000000000000000000\n        /* \"#utility.yul\":13515:13516   */\n      0x00\n        /* \"#utility.yul\":13508:13596   */\n      mstore\n        /* \"#utility.yul\":13615:13619   */\n      0x32\n        /* \"#utility.yul\":13612:13613   */\n      0x04\n        /* \"#utility.yul\":13605:13620   */\n      mstore\n        /* \"#utility.yul\":13639:13643   */\n      0x24\n        /* \"#utility.yul\":13636:13637   */\n      0x00\n        /* \"#utility.yul\":13629:13644   */\n      revert\n        /* \"#utility.yul\":13656:13836   */\n    tag_450:\n        /* \"#utility.yul\":13704:13781   */\n      0x4e487b7100000000000000000000000000000000000000000000000000000000\n        /* \"#utility.yul\":13701:13702   */\n      0x00\n        /* \"#utility.yul\":13694:13782   */\n      mstore\n        /* \"#utility.yul\":13801:13805   */\n      0x11\n        /* \"#utility.yul\":13798:13799   */\n      0x04\n        /* \"#utility.yul\":13791:13806   */\n      mstore\n        /* \"#utility.yul\":13825:13829   */\n      0x24\n        /* \"#utility.yul\":13822:13823   */\n      0x00\n        /* \"#utility.yul\":13815:13830   */\n      revert\n        /* \"#utility.yul\":13842:14075   */\n    tag_111:\n        /* \"#utility.yul\":13881:13884   */\n      0x00\n        /* \"#utility.yul\":13904:13928   */\n      tag_603\n        /* \"#utility.yul\":13922:13927   */\n      dup3\n        /* \"#utility.yul\":13904:13928   */\n      tag_407\n      jump\t// in\n    tag_603:\n        /* \"#utility.yul\":13895:13928   */\n      swap2\n      pop\n        /* \"#utility.yul\":13950:14016   */\n      0xffffffffffffffffffffffffffffffffffffffffffffffffffffffffffffffff\n        /* \"#utility.yul\":13943:13948   */\n      dup3\n        /* \"#utility.yul\":13940:14017   */\n      sub\n        /* \"#utility.yul\":13937:14040   */\n      tag_604\n      jumpi\n        /* \"#utility.yul\":14020:14038   */\n      tag_605\n      tag_450\n      jump\t// in\n    tag_605:\n        /* \"#utility.yul\":13937:14040   */\n    tag_604:\n        /* \"#utility.yul\":14067:14068   */\n      0x01\n        /* \"#utility.yul\":14060:14065   */\n      dup3\n        /* \"#utility.yul\":14056:14069   */\n      add\n        /* \"#utility.yul\":14049:14069   */\n      swap1\n      pop\n        /* \"#utility.yul\":13842:14075   */\n      swap2\n      swap1\n      pop\n      jump\t// out\n        /* \"#utility.yul\":14081:14250   */\n    tag_451:\n        /* \"#utility.yul\":14165:14176   */\n      0x00\n        /* \"#utility.yul\":14199:14205   */\n      dup3\n        /* \"#utility.yul\":14194:14197   */\n      dup3\n        /* \"#utility.yul\":14187:14206   */\n      mstore\n        /* \"#utility.yul\":14239:14243   */\n      0x20\n        /* \"#utility.yul\":14234:14237   */\n      dup3\n        /* \"#utility.yul\":14230:14244   */\n      add\n        /* \"#utility.yul\":14215:14244   */\n      swap1\n      pop\n        /* \"#utility.yul\":14081:14250   */\n      swap3\n      swap2\n      pop\n      pop\n      jump\t// out\n        /* \"#utility.yul\":14256:14419   */\n    tag_452:\n        /* \"#utility.yul\":14396:14411   */\n      0x4f726465722050656e64696e6700000000000000000000000000000000000000\n        /* \"#utility.yul\":14392:14393   */\n      0x00\n        /* \"#utility.yul\":14384:14390   */\n      dup3\n        /* \"#utility.yul\":14380:14394   */\n      add\n        /* \"#utility.yul\":14373:14412   */\n      mstore\n        /* \"#utility.yul\":14256:14419   */\n      pop\n      jump\t// out\n        /* \"#utility.yul\":14425:14791   */\n    tag_453:\n        /* \"#utility.yul\":14567:14570   */\n      0x00\n        /* \"#utility.yul\":14588:14655   */\n      tag_609\n        /* \"#utility.yul\":14652:14654   */\n      0x0d\n        /* \"#utility.yul\":14647:14650   */\n      dup4\n        /* \"#utility.yul\":14588:14655   */\n      tag_451\n      jump\t// in\n    tag_609:\n        /* \"#utility.yul\":14581:14655   */\n      swap2\n      pop\n        /* \"#utility.yul\":14664:14757   */\n      tag_610\n        /* \"#utility.yul\":14753:14756   */\n      dup3\n        /* \"#utility.yul\":14664:14757   */\n      tag_452\n      jump\t// in\n    tag_610:\n        /* \"#utility.yul\":14782:14784   */\n      0x20\n        /* \"#utility.yul\":14777:14780   */\n      dup3\n        /* \"#utility.yul\":14773:14785   */\n      add\n        /* \"#utility.yul\":14766:14785   */\n      swap1\n      pop\n        /* \"#utility.yul\":14425:14791   */\n      swap2\n      swap1\n      pop\n      jump\t// out\n        /* \"#utility.yul\":14797:15216   */\n    tag_129:\n        /* \"#utility.yul\":14963:14967   */\n      0x00\n        /* \"#utility.yul\":15001:15003   */\n      0x20\n        /* \"#utility.yul\":14990:14999   */\n      dup3\n        /* \"#utility.yul\":14986:15004   */\n      add\n        /* \"#utility.yul\":14978:15004   */\n      swap1\n      pop\n        /* \"#utility.yul\":15050:15059   */\n      dup2\n        /* \"#utility.yul\":15044:15048   */\n      dup2\n        /* \"#utility.yul\":15040:15060   */\n      sub\n        /* \"#utility.yul\":15036:15037   */\n      0x00\n        /* \"#utility.yul\":15025:15034   */\n      dup4\n        /* \"#utility.yul\":15021:15038   */\n      add\n        /* \"#utility.yul\":15014:15061   */\n      mstore\n        /* \"#utility.yul\":15078:15209   */\n      tag_612\n        /* \"#utility.yul\":15204:15208   */\n      dup2\n        /* \"#utility.yul\":15078:15209   */\n      tag_453\n      jump\t// in\n    tag_612:\n        /* \"#utility.yul\":15070:15209   */\n      swap1\n      pop\n        /* \"#utility.yul\":14797:15216   */\n      swap2\n      swap1\n      pop\n      jump\t// out\n        /* \"#utility.yul\":15222:15386   */\n    tag_454:\n        /* \"#utility.yul\":15362:15378   */\n      0x4e6f7420417574686f7269736564000000000000000000000000000000000000\n        /* \"#utility.yul\":15358:15359   */\n      0x00\n        /* \"#utility.yul\":15350:15356   */\n      dup3\n        /* \"#utility.yul\":15346:15360   */\n      add\n        /* \"#utility.yul\":15339:15379   */\n      mstore\n        /* \"#utility.yul\":15222:15386   */\n      pop\n      jump\t// out\n        /* \"#utility.yul\":15392:15758   */\n    tag_455:\n        /* \"#utility.yul\":15534:15537   */\n      0x00\n        /* \"#utility.yul\":15555:15622   */\n      tag_615\n        /* \"#utility.yul\":15619:15621   */\n      0x0e\n        /* \"#utility.yul\":15614:15617   */\n      dup4\n        /* \"#utility.yul\":15555:15622   */\n      tag_451\n      jump\t// in\n    tag_615:\n        /* \"#utility.yul\":15548:15622   */\n      swap2\n      pop\n        /* \"#utility.yul\":15631:15724   */\n      tag_616\n        /* \"#utility.yul\":15720:15723   */\n      dup3\n        /* \"#utility.yul\":15631:15724   */\n      tag_454\n      jump\t// in\n    tag_616:\n        /* \"#utility.yul\":15749:15751   */\n      0x20\n        /* \"#utility.yul\":15744:15747   */\n      dup3\n        /* \"#utility.yul\":15740:15752   */\n      add\n        /* \"#utility.yul\":15733:15752   */\n      swap1\n      pop\n        /* \"#utility.yul\":15392:15758   */\n      swap2\n      swap1\n      pop\n      jump\t// out\n        /* \"#utility.yul\":15764:16183   */\n    tag_140:\n        /* \"#utility.yul\":15930:15934   */\n      0x00\n        /* \"#utility.yul\":15968:15970   */\n      0x20\n        /* \"#utility.yul\":15957:15966   */\n      dup3\n        /* \"#utility.yul\":15953:15971   */\n      add\n        /* \"#utility.yul\":15945:15971   */\n      swap1\n      pop\n        /* \"#utility.yul\":16017:16026   */\n      dup2\n        /* \"#utility.yul\":16011:16015   */\n      dup2\n        /* \"#utility.yul\":16007:16027   */\n      sub\n        /* \"#utility.yul\":16003:16004   */\n      0x00\n        /* \"#utility.yul\":15992:16001   */\n      dup4\n        /* \"#utility.yul\":15988:16005   */\n      add\n        /* \"#utility.yul\":15981:16028   */\n      mstore\n        /* \"#utility.yul\":16045:16176   */\n      tag_618\n        /* \"#utility.yul\":16171:16175   */\n      dup2\n        /* \"#utility.yul\":16045:16176   */\n      tag_455\n      jump\t// in\n    tag_618:\n        /* \"#utility.yul\":16037:16176   */\n      swap1\n      pop\n        /* \"#utility.yul\":15764:16183   */\n      swap2\n      swap1\n      pop\n      jump\t// out\n        /* \"#utility.yul\":16189:16380   */\n    tag_165:\n        /* \"#utility.yul\":16229:16233   */\n      0x00\n        /* \"#utility.yul\":16249:16269   */\n      tag_620\n        /* \"#utility.yul\":16267:16268   */\n      dup3\n        /* \"#utility.yul\":16249:16269   */\n      tag_407\n      jump\t// in\n    tag_620:\n        /* \"#utility.yul\":16244:16269   */\n      swap2\n      pop\n        /* \"#utility.yul\":16283:16303   */\n      tag_621\n        /* \"#utility.yul\":16301:16302   */\n      dup4\n        /* \"#utility.yul\":16283:16303   */\n      tag_407\n      jump\t// in\n    tag_621:\n        /* \"#utility.yul\":16278:16303   */\n      swap3\n      pop\n        /* \"#utility.yul\":16322:16323   */\n      dup3\n        /* \"#utility.yul\":16319:16320   */\n      dup3\n        /* \"#utility.yul\":16316:16324   */\n      lt\n        /* \"#utility.yul\":16313:16347   */\n      iszero\n      tag_622\n      jumpi\n        /* \"#utility.yul\":16327:16345   */\n      tag_623\n      tag_450\n      jump\t// in\n    tag_623:\n        /* \"#utility.yul\":16313:16347   */\n    tag_622:\n        /* \"#utility.yul\":16372:16373   */\n      dup3\n        /* \"#utility.yul\":16369:16370   */\n      dup3\n        /* \"#utility.yul\":16365:16374   */\n      sub\n        /* \"#utility.yul\":16357:16374   */\n      swap1\n      pop\n        /* \"#utility.yul\":16189:16380   */\n      swap3\n      swap2\n      pop\n      pop\n      jump\t// out\n        /* \"#utility.yul\":16386:16567   */\n    tag_456:\n        /* \"#utility.yul\":16526:16559   */\n      0x70726963652076616c7565206d757374206265206d6f7265207468616e203000\n        /* \"#utility.yul\":16522:16523   */\n      0x00\n        /* \"#utility.yul\":16514:16520   */\n      dup3\n        /* \"#utility.yul\":16510:16524   */\n      add\n        /* \"#utility.yul\":16503:16560   */\n      mstore\n        /* \"#utility.yul\":16386:16567   */\n      pop\n      jump\t// out\n        /* \"#utility.yul\":16573:16939   */\n    tag_457:\n        /* \"#utility.yul\":16715:16718   */\n      0x00\n        /* \"#utility.yul\":16736:16803   */\n      tag_626\n        /* \"#utility.yul\":16800:16802   */\n      0x1f\n        /* \"#utility.yul\":16795:16798   */\n      dup4\n        /* \"#utility.yul\":16736:16803   */\n      tag_451\n      jump\t// in\n    tag_626:\n        /* \"#utility.yul\":16729:16803   */\n      swap2\n      pop\n        /* \"#utility.yul\":16812:16905   */\n      tag_627\n        /* \"#utility.yul\":16901:16904   */\n      dup3\n        /* \"#utility.yul\":16812:16905   */\n      tag_456\n      jump\t// in\n    tag_627:\n        /* \"#utility.yul\":16930:16932   */\n      0x20\n        /* \"#utility.yul\":16925:16928   */\n      dup3\n        /* \"#utility.yul\":16921:16933   */\n      add\n        /* \"#utility.yul\":16914:16933   */\n      swap1\n      pop\n        /* \"#utility.yul\":16573:16939   */\n      swap2\n      swap1\n      pop\n      jump\t// out\n        /* \"#utility.yul\":16945:17364   */\n    tag_206:\n        /* \"#utility.yul\":17111:17115   */\n      0x00\n        /* \"#utility.yul\":17149:17151   */\n      0x20\n        /* \"#utility.yul\":17138:17147   */\n      dup3\n        /* \"#utility.yul\":17134:17152   */\n      add\n        /* \"#utility.yul\":17126:17152   */\n      swap1\n      pop\n        /* \"#utility.yul\":17198:17207   */\n      dup2\n        /* \"#utility.yul\":17192:17196   */\n      dup2\n        /* \"#utility.yul\":17188:17208   */\n      sub\n        /* \"#utility.yul\":17184:17185   */\n      0x00\n        /* \"#utility.yul\":17173:17182   */\n      dup4\n        /* \"#utility.yul\":17169:17186   */\n      add\n        /* \"#utility.yul\":17162:17209   */\n      mstore\n        /* \"#utility.yul\":17226:17357   */\n      tag_629\n        /* \"#utility.yul\":17352:17356   */\n      dup2\n        /* \"#utility.yul\":17226:17357   */\n      tag_457\n      jump\t// in\n    tag_629:\n        /* \"#utility.yul\":17218:17357   */\n      swap1\n      pop\n        /* \"#utility.yul\":16945:17364   */\n      swap2\n      swap1\n      pop\n      jump\t// out\n        /* \"#utility.yul\":17370:17550   */\n    tag_458:\n        /* \"#utility.yul\":17510:17542   */\n      0x4e6f7420656e6f75676820626c616e636520746f20706c6163652061736b0000\n        /* \"#utility.yul\":17506:17507   */\n      0x00\n        /* \"#utility.yul\":17498:17504   */\n      dup3\n        /* \"#utility.yul\":17494:17508   */\n      add\n        /* \"#utility.yul\":17487:17543   */\n      mstore\n        /* \"#utility.yul\":17370:17550   */\n      pop\n      jump\t// out\n        /* \"#utility.yul\":17556:17922   */\n    tag_459:\n        /* \"#utility.yul\":17698:17701   */\n      0x00\n        /* \"#utility.yul\":17719:17786   */\n      tag_632\n        /* \"#utility.yul\":17783:17785   */\n      0x1e\n        /* \"#utility.yul\":17778:17781   */\n      dup4\n        /* \"#utility.yul\":17719:17786   */\n      tag_451\n      jump\t// in\n    tag_632:\n        /* \"#utility.yul\":17712:17786   */\n      swap2\n      pop\n        /* \"#utility.yul\":17795:17888   */\n      tag_633\n        /* \"#utility.yul\":17884:17887   */\n      dup3\n        /* \"#utility.yul\":17795:17888   */\n      tag_458\n      jump\t// in\n    tag_633:\n        /* \"#utility.yul\":17913:17915   */\n      0x20\n        /* \"#utility.yul\":17908:17911   */\n      dup3\n        /* \"#utility.yul\":17904:17916   */\n      add\n        /* \"#utility.yul\":17897:17916   */\n      swap1\n      pop\n        /* \"#utility.yul\":17556:17922   */\n      swap2\n      swap1\n      pop\n      jump\t// out\n        /* \"#utility.yul\":17928:18347   */\n    tag_209:\n        /* \"#utility.yul\":18094:18098   */\n      0x00\n        /* \"#utility.yul\":18132:18134   */\n      0x20\n        /* \"#utility.yul\":18121:18130   */\n      dup3\n        /* \"#utility.yul\":18117:18135   */\n      add\n        /* \"#utility.yul\":18109:18135   */\n      swap1\n      pop\n        /* \"#utility.yul\":18181:18190   */\n      dup2\n        /* \"#utility.yul\":18175:18179   */\n      dup2\n        /* \"#utility.yul\":18171:18191   */\n      sub\n        /* \"#utility.yul\":18167:18168   */\n      0x00\n        /* \"#utility.yul\":18156:18165   */\n      dup4\n        /* \"#utility.yul\":18152:18169   */\n      add\n        /* \"#utility.yul\":18145:18192   */\n      mstore\n        /* \"#utility.yul\":18209:18340   */\n      tag_635\n        /* \"#utility.yul\":18335:18339   */\n      dup2\n        /* \"#utility.yul\":18209:18340   */\n      tag_459\n      jump\t// in\n    tag_635:\n        /* \"#utility.yul\":18201:18340   */\n      swap1\n      pop\n        /* \"#utility.yul\":17928:18347   */\n      swap2\n      swap1\n      pop\n      jump\t// out\n        /* \"#utility.yul\":18353:18701   */\n    tag_212:\n        /* \"#utility.yul\":18393:18400   */\n      0x00\n        /* \"#utility.yul\":18416:18436   */\n      tag_637\n        /* \"#utility.yul\":18434:18435   */\n      dup3\n        /* \"#utility.yul\":18416:18436   */\n      tag_407\n      jump\t// in\n    tag_637:\n        /* \"#utility.yul\":18411:18436   */\n      swap2\n      pop\n        /* \"#utility.yul\":18450:18470   */\n      tag_638\n        /* \"#utility.yul\":18468:18469   */\n      dup4\n        /* \"#utility.yul\":18450:18470   */\n      tag_407\n      jump\t// in\n    tag_638:\n        /* \"#utility.yul\":18445:18470   */\n      swap3\n      pop\n        /* \"#utility.yul\":18638:18639   */\n      dup2\n        /* \"#utility.yul\":18570:18636   */\n      0xffffffffffffffffffffffffffffffffffffffffffffffffffffffffffffffff\n        /* \"#utility.yul\":18566:18640   */\n      div\n        /* \"#utility.yul\":18563:18564   */\n      dup4\n        /* \"#utility.yul\":18560:18641   */\n      gt\n        /* \"#utility.yul\":18555:18556   */\n      dup3\n        /* \"#utility.yul\":18548:18557   */\n      iszero\n        /* \"#utility.yul\":18541:18558   */\n      iszero\n        /* \"#utility.yul\":18537:18642   */\n      and\n        /* \"#utility.yul\":18534:18665   */\n      iszero\n      tag_639\n      jumpi\n        /* \"#utility.yul\":18645:18663   */\n      tag_640\n      tag_450\n      jump\t// in\n    tag_640:\n        /* \"#utility.yul\":18534:18665   */\n    tag_639:\n        /* \"#utility.yul\":18693:18694   */\n      dup3\n        /* \"#utility.yul\":18690:18691   */\n      dup3\n        /* \"#utility.yul\":18686:18695   */\n      mul\n        /* \"#utility.yul\":18675:18695   */\n      swap1\n      pop\n        /* \"#utility.yul\":18353:18701   */\n      swap3\n      swap2\n      pop\n      pop\n      jump\t// out\n        /* \"#utility.yul\":18707:18887   */\n    tag_460:\n        /* \"#utility.yul\":18755:18832   */\n      0x4e487b7100000000000000000000000000000000000000000000000000000000\n        /* \"#utility.yul\":18752:18753   */\n      0x00\n        /* \"#utility.yul\":18745:18833   */\n      mstore\n        /* \"#utility.yul\":18852:18856   */\n      0x12\n        /* \"#utility.yul\":18849:18850   */\n      0x04\n        /* \"#utility.yul\":18842:18857   */\n      mstore\n        /* \"#utility.yul\":18876:18880   */\n      0x24\n        /* \"#utility.yul\":18873:18874   */\n      0x00\n        /* \"#utility.yul\":18866:18881   */\n      revert\n        /* \"#utility.yul\":18893:19078   */\n    tag_214:\n        /* \"#utility.yul\":18933:18934   */\n      0x00\n        /* \"#utility.yul\":18950:18970   */\n      tag_643\n        /* \"#utility.yul\":18968:18969   */\n      dup3\n        /* \"#utility.yul\":18950:18970   */\n      tag_407\n      jump\t// in\n    tag_643:\n        /* \"#utility.yul\":18945:18970   */\n      swap2\n      pop\n        /* \"#utility.yul\":18984:19004   */\n      tag_644\n        /* \"#utility.yul\":19002:19003   */\n      dup4\n        /* \"#utility.yul\":18984:19004   */\n      tag_407\n      jump\t// in\n    tag_644:\n        /* \"#utility.yul\":18979:19004   */\n      swap3\n      pop\n        /* \"#utility.yul\":19023:19024   */\n      dup3\n        /* \"#utility.yul\":19013:19048   */\n      tag_645\n      jumpi\n        /* \"#utility.yul\":19028:19046   */\n      tag_646\n      tag_460\n      jump\t// in\n    tag_646:\n        /* \"#utility.yul\":19013:19048   */\n    tag_645:\n        /* \"#utility.yul\":19070:19071   */\n      dup3\n        /* \"#utility.yul\":19067:19068   */\n      dup3\n        /* \"#utility.yul\":19063:19072   */\n      div\n        /* \"#utility.yul\":19058:19072   */\n      swap1\n      pop\n        /* \"#utility.yul\":18893:19078   */\n      swap3\n      swap2\n      pop\n      pop\n      jump\t// out\n        /* \"#utility.yul\":19084:19180   */\n    tag_461:\n        /* \"#utility.yul\":19121:19128   */\n      0x00\n        /* \"#utility.yul\":19150:19174   */\n      tag_648\n        /* \"#utility.yul\":19168:19173   */\n      dup3\n        /* \"#utility.yul\":19150:19174   */\n      tag_426\n      jump\t// in\n    tag_648:\n        /* \"#utility.yul\":19139:19174   */\n      swap1\n      pop\n        /* \"#utility.yul\":19084:19180   */\n      swap2\n      swap1\n      pop\n      jump\t// out\n        /* \"#utility.yul\":19186:19304   */\n    tag_462:\n        /* \"#utility.yul\":19273:19297   */\n      tag_650\n        /* \"#utility.yul\":19291:19296   */\n      dup2\n        /* \"#utility.yul\":19273:19297   */\n      tag_461\n      jump\t// in\n    tag_650:\n        /* \"#utility.yul\":19268:19271   */\n      dup3\n        /* \"#utility.yul\":19261:19298   */\n      mstore\n        /* \"#utility.yul\":19186:19304   */\n      pop\n      pop\n      jump\t// out\n        /* \"#utility.yul\":19310:19873   */\n    tag_223:\n        /* \"#utility.yul\":19492:19496   */\n      0x00\n        /* \"#utility.yul\":19530:19533   */\n      0x80\n        /* \"#utility.yul\":19519:19528   */\n      dup3\n        /* \"#utility.yul\":19515:19534   */\n      add\n        /* \"#utility.yul\":19507:19534   */\n      swap1\n      pop\n        /* \"#utility.yul\":19544:19615   */\n      tag_652\n        /* \"#utility.yul\":19612:19613   */\n      0x00\n        /* \"#utility.yul\":19601:19610   */\n      dup4\n        /* \"#utility.yul\":19597:19614   */\n      add\n        /* \"#utility.yul\":19588:19594   */\n      dup8\n        /* \"#utility.yul\":19544:19615   */\n      tag_462\n      jump\t// in\n    tag_652:\n        /* \"#utility.yul\":19625:19697   */\n      tag_653\n        /* \"#utility.yul\":19693:19695   */\n      0x20\n        /* \"#utility.yul\":19682:19691   */\n      dup4\n        /* \"#utility.yul\":19678:19696   */\n      add\n        /* \"#utility.yul\":19669:19675   */\n      dup7\n        /* \"#utility.yul\":19625:19697   */\n      tag_447\n      jump\t// in\n    tag_653:\n        /* \"#utility.yul\":19707:19779   */\n      tag_654\n        /* \"#utility.yul\":19775:19777   */\n      0x40\n        /* \"#utility.yul\":19764:19773   */\n      dup4\n        /* \"#utility.yul\":19760:19778   */\n      add\n        /* \"#utility.yul\":19751:19757   */\n      dup6\n        /* \"#utility.yul\":19707:19779   */\n      tag_447\n      jump\t// in\n    tag_654:\n        /* \"#utility.yul\":19789:19866   */\n      tag_655\n        /* \"#utility.yul\":19862:19864   */\n      0x60\n        /* \"#utility.yul\":19851:19860   */\n      dup4\n        /* \"#utility.yul\":19847:19865   */\n      add\n        /* \"#utility.yul\":19838:19844   */\n      dup5\n        /* \"#utility.yul\":19789:19866   */\n      tag_448\n      jump\t// in\n    tag_655:\n        /* \"#utility.yul\":19310:19873   */\n      swap6\n      swap5\n      pop\n      pop\n      pop\n      pop\n      pop\n      jump\t// out\n        /* \"#utility.yul\":19879:20059   */\n    tag_463:\n        /* \"#utility.yul\":20019:20051   */\n      0x4e6f7420656e6f75676820626c616e636520746f20706c616365206269640000\n        /* \"#utility.yul\":20015:20016   */\n      0x00\n        /* \"#utility.yul\":20007:20013   */\n      dup3\n        /* \"#utility.yul\":20003:20017   */\n      add\n        /* \"#utility.yul\":19996:20052   */\n      mstore\n        /* \"#utility.yul\":19879:20059   */\n      pop\n      jump\t// out\n        /* \"#utility.yul\":20065:20431   */\n    tag_464:\n        /* \"#utility.yul\":20207:20210   */\n      0x00\n        /* \"#utility.yul\":20228:20295   */\n      tag_658\n        /* \"#utility.yul\":20292:20294   */\n      0x1e\n        /* \"#utility.yul\":20287:20290   */\n      dup4\n        /* \"#utility.yul\":20228:20295   */\n      tag_451\n      jump\t// in\n    tag_658:\n        /* \"#utility.yul\":20221:20295   */\n      swap2\n      pop\n        /* \"#utility.yul\":20304:20397   */\n      tag_659\n        /* \"#utility.yul\":20393:20396   */\n      dup3\n        /* \"#utility.yul\":20304:20397   */\n      tag_463\n      jump\t// in\n    tag_659:\n        /* \"#utility.yul\":20422:20424   */\n      0x20\n        /* \"#utility.yul\":20417:20420   */\n      dup3\n        /* \"#utility.yul\":20413:20425   */\n      add\n        /* \"#utility.yul\":20406:20425   */\n      swap1\n      pop\n        /* \"#utility.yul\":20065:20431   */\n      swap2\n      swap1\n      pop\n      jump\t// out\n        /* \"#utility.yul\":20437:20856   */\n    tag_274:\n        /* \"#utility.yul\":20603:20607   */\n      0x00\n        /* \"#utility.yul\":20641:20643   */\n      0x20\n        /* \"#utility.yul\":20630:20639   */\n      dup3\n        /* \"#utility.yul\":20626:20644   */\n      add\n        /* \"#utility.yul\":20618:20644   */\n      swap1\n      pop\n        /* \"#utility.yul\":20690:20699   */\n      dup2\n        /* \"#utility.yul\":20684:20688   */\n      dup2\n        /* \"#utility.yul\":20680:20700   */\n      sub\n        /* \"#utility.yul\":20676:20677   */\n      0x00\n        /* \"#utility.yul\":20665:20674   */\n      dup4\n        /* \"#utility.yul\":20661:20678   */\n      add\n        /* \"#utility.yul\":20654:20701   */\n      mstore\n        /* \"#utility.yul\":20718:20849   */\n      tag_661\n        /* \"#utility.yul\":20844:20848   */\n      dup2\n        /* \"#utility.yul\":20718:20849   */\n      tag_464\n      jump\t// in\n    tag_661:\n        /* \"#utility.yul\":20710:20849   */\n      swap1\n      pop\n        /* \"#utility.yul\":20437:20856   */\n      swap2\n      swap1\n      pop\n      jump\t// out\n        /* \"#utility.yul\":20862:20938   */\n    tag_465:\n        /* \"#utility.yul\":20898:20905   */\n      0x00\n        /* \"#utility.yul\":20927:20932   */\n      dup2\n        /* \"#utility.yul\":20916:20932   */\n      swap1\n      pop\n        /* \"#utility.yul\":20862:20938   */\n      swap2\n      swap1\n      pop\n      jump\t// out\n        /* \"#utility.yul\":20944:21471   */\n    tag_334:\n        /* \"#utility.yul\":20983:20987   */\n      0x00\n        /* \"#utility.yul\":21003:21022   */\n      tag_664\n        /* \"#utility.yul\":21020:21021   */\n      dup3\n        /* \"#utility.yul\":21003:21022   */\n      tag_465\n      jump\t// in\n    tag_664:\n        /* \"#utility.yul\":20998:21022   */\n      swap2\n      pop\n        /* \"#utility.yul\":21036:21055   */\n      tag_665\n        /* \"#utility.yul\":21053:21054   */\n      dup4\n        /* \"#utility.yul\":21036:21055   */\n      tag_465\n      jump\t// in\n    tag_665:\n        /* \"#utility.yul\":21031:21055   */\n      swap3\n      pop\n        /* \"#utility.yul\":21225:21226   */\n      dup3\n        /* \"#utility.yul\":21157:21223   */\n      0x8000000000000000000000000000000000000000000000000000000000000000\n        /* \"#utility.yul\":21153:21227   */\n      add\n        /* \"#utility.yul\":21150:21151   */\n      dup3\n        /* \"#utility.yul\":21146:21228   */\n      slt\n        /* \"#utility.yul\":21141:21142   */\n      0x00\n        /* \"#utility.yul\":21138:21139   */\n      dup5\n        /* \"#utility.yul\":21134:21143   */\n      slt\n        /* \"#utility.yul\":21127:21144   */\n      iszero\n        /* \"#utility.yul\":21123:21229   */\n      and\n        /* \"#utility.yul\":21120:21252   */\n      iszero\n      tag_666\n      jumpi\n        /* \"#utility.yul\":21232:21250   */\n      tag_667\n      tag_450\n      jump\t// in\n    tag_667:\n        /* \"#utility.yul\":21120:21252   */\n    tag_666:\n        /* \"#utility.yul\":21411:21412   */\n      dup3\n        /* \"#utility.yul\":21343:21409   */\n      0x7fffffffffffffffffffffffffffffffffffffffffffffffffffffffffffffff\n        /* \"#utility.yul\":21339:21413   */\n      add\n        /* \"#utility.yul\":21336:21337   */\n      dup3\n        /* \"#utility.yul\":21332:21414   */\n      sgt\n        /* \"#utility.yul\":21328:21329   */\n      0x00\n        /* \"#utility.yul\":21325:21326   */\n      dup5\n        /* \"#utility.yul\":21321:21330   */\n      slt\n        /* \"#utility.yul\":21317:21415   */\n      and\n        /* \"#utility.yul\":21314:21438   */\n      iszero\n      tag_668\n      jumpi\n        /* \"#utility.yul\":21418:21436   */\n      tag_669\n      tag_450\n      jump\t// in\n    tag_669:\n        /* \"#utility.yul\":21314:21438   */\n    tag_668:\n        /* \"#utility.yul\":21463:21464   */\n      dup3\n        /* \"#utility.yul\":21460:21461   */\n      dup3\n        /* \"#utility.yul\":21456:21465   */\n      sub\n        /* \"#utility.yul\":21448:21465   */\n      swap1\n      pop\n        /* \"#utility.yul\":20944:21471   */\n      swap3\n      swap2\n      pop\n      pop\n      jump\t// out\n        /* \"#utility.yul\":21477:21862   */\n    tag_336:\n        /* \"#utility.yul\":21516:21517   */\n      0x00\n        /* \"#utility.yul\":21533:21552   */\n      tag_671\n        /* \"#utility.yul\":21550:21551   */\n      dup3\n        /* \"#utility.yul\":21533:21552   */\n      tag_465\n      jump\t// in\n    tag_671:\n        /* \"#utility.yul\":21528:21552   */\n      swap2\n      pop\n        /* \"#utility.yul\":21566:21585   */\n      tag_672\n        /* \"#utility.yul\":21583:21584   */\n      dup4\n        /* \"#utility.yul\":21566:21585   */\n      tag_465\n      jump\t// in\n    tag_672:\n        /* \"#utility.yul\":21561:21585   */\n      swap3\n      pop\n        /* \"#utility.yul\":21604:21605   */\n      dup3\n        /* \"#utility.yul\":21594:21629   */\n      tag_673\n      jumpi\n        /* \"#utility.yul\":21609:21627   */\n      tag_674\n      tag_460\n      jump\t// in\n    tag_674:\n        /* \"#utility.yul\":21594:21629   */\n    tag_673:\n        /* \"#utility.yul\":21795:21796   */\n      0x01\n        /* \"#utility.yul\":21792:21793   */\n      0x00\n        /* \"#utility.yul\":21788:21797   */\n      sub\n        /* \"#utility.yul\":21785:21786   */\n      dup4\n        /* \"#utility.yul\":21782:21798   */\n      eq\n        /* \"#utility.yul\":21701:21767   */\n      0x8000000000000000000000000000000000000000000000000000000000000000\n        /* \"#utility.yul\":21698:21699   */\n      dup4\n        /* \"#utility.yul\":21695:21768   */\n      eq\n        /* \"#utility.yul\":21678:21808   */\n      and\n        /* \"#utility.yul\":21675:21831   */\n      iszero\n      tag_675\n      jumpi\n        /* \"#utility.yul\":21811:21829   */\n      tag_676\n      tag_450\n      jump\t// in\n    tag_676:\n        /* \"#utility.yul\":21675:21831   */\n    tag_675:\n        /* \"#utility.yul\":21854:21855   */\n      dup3\n        /* \"#utility.yul\":21851:21852   */\n      dup3\n        /* \"#utility.yul\":21846:21856   */\n      sdiv\n        /* \"#utility.yul\":21841:21856   */\n      swap1\n      pop\n        /* \"#utility.yul\":21477:21862   */\n      swap3\n      swap2\n      pop\n      pop\n      jump\t// out\n        /* \"#utility.yul\":21868:22393   */\n    tag_338:\n        /* \"#utility.yul\":21907:21910   */\n      0x00\n        /* \"#utility.yul\":21926:21945   */\n      tag_678\n        /* \"#utility.yul\":21943:21944   */\n      dup3\n        /* \"#utility.yul\":21926:21945   */\n      tag_465\n      jump\t// in\n    tag_678:\n        /* \"#utility.yul\":21921:21945   */\n      swap2\n      pop\n        /* \"#utility.yul\":21959:21978   */\n      tag_679\n        /* \"#utility.yul\":21976:21977   */\n      dup4\n        /* \"#utility.yul\":21959:21978   */\n      tag_465\n      jump\t// in\n    tag_679:\n        /* \"#utility.yul\":21954:21978   */\n      swap3\n      pop\n        /* \"#utility.yul\":22147:22148   */\n      dup2\n        /* \"#utility.yul\":22079:22145   */\n      0x7fffffffffffffffffffffffffffffffffffffffffffffffffffffffffffffff\n        /* \"#utility.yul\":22075:22149   */\n      sub\n        /* \"#utility.yul\":22072:22073   */\n      dup4\n        /* \"#utility.yul\":22068:22150   */\n      sgt\n        /* \"#utility.yul\":22063:22064   */\n      0x00\n        /* \"#utility.yul\":22060:22061   */\n      dup4\n        /* \"#utility.yul\":22056:22065   */\n      slt\n        /* \"#utility.yul\":22049:22066   */\n      iszero\n        /* \"#utility.yul\":22045:22151   */\n      and\n        /* \"#utility.yul\":22042:22174   */\n      iszero\n      tag_680\n      jumpi\n        /* \"#utility.yul\":22154:22172   */\n      tag_681\n      tag_450\n      jump\t// in\n    tag_681:\n        /* \"#utility.yul\":22042:22174   */\n    tag_680:\n        /* \"#utility.yul\":22334:22335   */\n      dup2\n        /* \"#utility.yul\":22266:22332   */\n      0x8000000000000000000000000000000000000000000000000000000000000000\n        /* \"#utility.yul\":22262:22336   */\n      sub\n        /* \"#utility.yul\":22259:22260   */\n      dup4\n        /* \"#utility.yul\":22255:22337   */\n      slt\n        /* \"#utility.yul\":22251:22252   */\n      0x00\n        /* \"#utility.yul\":22248:22249   */\n      dup4\n        /* \"#utility.yul\":22244:22253   */\n      slt\n        /* \"#utility.yul\":22240:22338   */\n      and\n        /* \"#utility.yul\":22237:22361   */\n      iszero\n      tag_682\n      jumpi\n        /* \"#utility.yul\":22341:22359   */\n      tag_683\n      tag_450\n      jump\t// in\n    tag_683:\n        /* \"#utility.yul\":22237:22361   */\n    tag_682:\n        /* \"#utility.yul\":22385:22386   */\n      dup3\n        /* \"#utility.yul\":22382:22383   */\n      dup3\n        /* \"#utility.yul\":22378:22387   */\n      add\n        /* \"#utility.yul\":22371:22387   */\n      swap1\n      pop\n        /* \"#utility.yul\":21868:22393   */\n      swap3\n      swap2\n      pop\n      pop\n      jump\t// out\n        /* \"#utility.yul\":22399:22630   */\n    tag_348:\n        /* \"#utility.yul\":22437:22440   */\n      0x00\n        /* \"#utility.yul\":22460:22483   */\n      tag_685\n        /* \"#utility.yul\":22477:22482   */\n      dup3\n        /* \"#utility.yul\":22460:22483   */\n      tag_465\n      jump\t// in\n    tag_685:\n        /* \"#utility.yul\":22451:22483   */\n      swap2\n      pop\n        /* \"#utility.yul\":22505:22571   */\n      0x7fffffffffffffffffffffffffffffffffffffffffffffffffffffffffffffff\n        /* \"#utility.yul\":22498:22503   */\n      dup3\n        /* \"#utility.yul\":22495:22572   */\n      sub\n        /* \"#utility.yul\":22492:22595   */\n      tag_686\n      jumpi\n        /* \"#utility.yul\":22575:22593   */\n      tag_687\n      tag_450\n      jump\t// in\n    tag_687:\n        /* \"#utility.yul\":22492:22595   */\n    tag_686:\n        /* \"#utility.yul\":22622:22623   */\n      0x01\n        /* \"#utility.yul\":22615:22620   */\n      dup3\n        /* \"#utility.yul\":22611:22624   */\n      add\n        /* \"#utility.yul\":22604:22624   */\n      swap1\n      pop\n        /* \"#utility.yul\":22399:22630   */\n      swap2\n      swap1\n      pop\n      jump\t// out\n        /* \"#utility.yul\":22636:22867   */\n    tag_354:\n        /* \"#utility.yul\":22674:22677   */\n      0x00\n        /* \"#utility.yul\":22697:22720   */\n      tag_689\n        /* \"#utility.yul\":22714:22719   */\n      dup3\n        /* \"#utility.yul\":22697:22720   */\n      tag_465\n      jump\t// in\n    tag_689:\n        /* \"#utility.yul\":22688:22720   */\n      swap2\n      pop\n        /* \"#utility.yul\":22742:22808   */\n      0x8000000000000000000000000000000000000000000000000000000000000000\n        /* \"#utility.yul\":22735:22740   */\n      dup3\n        /* \"#utility.yul\":22732:22809   */\n      sub\n        /* \"#utility.yul\":22729:22832   */\n      tag_690\n      jumpi\n        /* \"#utility.yul\":22812:22830   */\n      tag_691\n      tag_450\n      jump\t// in\n    tag_691:\n        /* \"#utility.yul\":22729:22832   */\n    tag_690:\n        /* \"#utility.yul\":22859:22860   */\n      0x01\n        /* \"#utility.yul\":22852:22857   */\n      dup3\n        /* \"#utility.yul\":22848:22861   */\n      sub\n        /* \"#utility.yul\":22841:22861   */\n      swap1\n      pop\n        /* \"#utility.yul\":22636:22867   */\n      swap2\n      swap1\n      pop\n      jump\t// out\n\n    auxdata: 0xa26469706673582212208d1752aac8f6ce06e4d7f8385af08d6759f71cdbe0b7478181be2a20d453de0064736f6c634300080d0033\n}\n",
				"bytecode": {
					"linkReferences": {},
					"object": "6080604052336000806101000a81548173ffffffffffffffffffffffffffffffffffffffff021916908373ffffffffffffffffffffffffffffffffffffffff1602179055503480156200005157600080fd5b5060405162002c1138038062002c118339818101604052810190620000779190620000c5565b8060018190555050620000f7565b600080fd5b6000819050919050565b6200009f816200008a565b8114620000ab57600080fd5b50565b600081519050620000bf8162000094565b92915050565b600060208284031215620000de57620000dd62000085565b5b6000620000ee84828501620000ae565b91505092915050565b612b0a80620001076000396000f3fe6080604052600436106100f35760003560e01c8063734a2e781161008a578063bf77ffae11610059578063bf77ffae14610346578063c5374af214610383578063ce0cdc87146103ae578063db3a1396146103d9576100f3565b8063734a2e78146102a857806378c5b268146102e55780639703ef35146103015780639979ef451461032a576100f3565b80634471417f116100c65780634471417f146101c65780634d46712d146101f157806369f632e21461022e5780636ec48ce01461026b576100f3565b8063122de8f2146100f85780631628e0f5146101235780632aaee28e1461014c5780632db6dfa714610189575b600080fd5b34801561010457600080fd5b5061010d610416565b60405161011a9190611f26565b60405180910390f35b34801561012f57600080fd5b5061014a60048036038101906101459190611f88565b61053c565b005b34801561015857600080fd5b50610173600480360381019061016e919061220e565b610a22565b60405161018091906123e1565b60405180910390f35b34801561019557600080fd5b506101b060048036038101906101ab9190611f88565b610a45565b6040516101bd9190612412565b60405180910390f35b3480156101d257600080fd5b506101db610a74565b6040516101e891906123e1565b60405180910390f35b3480156101fd57600080fd5b5061021860048036038101906102139190611f88565b610c7e565b604051610225919061243c565b60405180910390f35b34801561023a57600080fd5b5061025560048036038101906102509190611f88565b610cba565b6040516102629190612466565b60405180910390f35b34801561027757600080fd5b50610292600480360381019061028d919061220e565b610d09565b60405161029f91906123e1565b60405180910390f35b3480156102b457600080fd5b506102cf60048036038101906102ca9190611f88565b610d2c565b6040516102dc9190612466565b60405180910390f35b6102ff60048036038101906102fa9190611f88565b610d7b565b005b34801561030d57600080fd5b5061032860048036038101906103239190611f88565b610fe3565b005b610344600480360381019061033f9190611f88565b6114c9565b005b34801561035257600080fd5b5061036d60048036038101906103689190611f88565b611731565b60405161037a919061243c565b60405180910390f35b34801561038f57600080fd5b5061039861176d565b6040516103a591906123e1565b60405180910390f35b3480156103ba57600080fd5b506103c3611977565b6040516103d09190611f26565b60405180910390f35b3480156103e557600080fd5b5061040060048036038101906103fb9190611f88565b611a9d565b60405161040d9190612412565b60405180910390f35b6060610420611acc565b60005b6003805490508110156104e5573373ffffffffffffffffffffffffffffffffffffffff166003828154811061045b5761045a612481565b5b906000526020600020906004020160000160009054906101000a900473ffffffffffffffffffffffffffffffffffffffff1673ffffffffffffffffffffffffffffffffffffffff16036104d25760048190806001815401808255809150506001900390600052602060002001600090919091909150555b80806104dd906124df565b915050610423565b50600480548060200260200160405190810160405280929190818152602001828054801561053257602002820191906000526020600020905b81548152602001906001019080831161051e575b5050505050905090565b600381815481106105505761054f612481565b5b90600052602060002090600402016040518060800160405290816000820160009054906101000a900473ffffffffffffffffffffffffffffffffffffffff1673ffffffffffffffffffffffffffffffffffffffff1673ffffffffffffffffffffffffffffffffffffffff16815260200160018201548152602001600282015481526020016003820160009054906101000a900460ff1660018111156105f8576105f7612292565b5b600181111561060a57610609612292565b5b815250506000600181111561062257610621612292565b5b8160600151600181111561063957610638612292565b5b14610679576040517f08c379a000000000000000000000000000000000000000000000000000000000815260040161067090612584565b60405180910390fd5b6003828154811061068d5761068c612481565b5b90600052602060002090600402016040518060800160405290816000820160009054906101000a900473ffffffffffffffffffffffffffffffffffffffff1673ffffffffffffffffffffffffffffffffffffffff1673ffffffffffffffffffffffffffffffffffffffff16815260200160018201548152602001600282015481526020016003820160009054906101000a900460ff16600181111561073557610734612292565b5b600181111561074757610746612292565b5b81525050338073ffffffffffffffffffffffffffffffffffffffff16826000015173ffffffffffffffffffffffffffffffffffffffff16146107be576040517f08c379a00000000000000000000000000000000000000000000000000000000081526004016107b5906125f0565b60405180910390fd5b600384815481106107d2576107d1612481565b5b906000526020600020906004020160000160009054906101000a900473ffffffffffffffffffffffffffffffffffffffff1673ffffffffffffffffffffffffffffffffffffffff166108fc6003868154811061083157610830612481565b5b9060005260206000209060040201600101549081150290604051600060405180830381858888f1935050505015801561086e573d6000803e3d6000fd5b506003848154811061088357610882612481565b5b9060005260206000209060040201600080820160006101000a81549073ffffffffffffffffffffffffffffffffffffffff0219169055600182016000905560028201600090556003820160006101000a81549060ff021916905550506109e46003805480602002602001604051908101604052809291908181526020016000905b828210156109db57838290600052602060002090600402016040518060800160405290816000820160009054906101000a900473ffffffffffffffffffffffffffffffffffffffff1673ffffffffffffffffffffffffffffffffffffffff1673ffffffffffffffffffffffffffffffffffffffff16815260200160018201548152602001600282015481526020016003820160009054906101000a900460ff1660018111156109b6576109b5612292565b5b60018111156109c8576109c7612292565b5b8152505081526020019060010190610904565b50505050610d09565b507f48d3043fff66c1aee14954ac5aa463b0297fb08c9b60ee00486fb3387bb58aac84604051610a149190612412565b60405180910390a150505050565b6060610a3d82600060018551610a389190612610565b611b14565b819050919050565b600060028281548110610a5b57610a5a612481565b5b9060005260206000209060040201600101549050919050565b6060610b7b6002805480602002602001604051908101604052809291908181526020016000905b82821015610b7257838290600052602060002090600402016040518060800160405290816000820160009054906101000a900473ffffffffffffffffffffffffffffffffffffffff1673ffffffffffffffffffffffffffffffffffffffff1673ffffffffffffffffffffffffffffffffffffffff16815260200160018201548152602001600282015481526020016003820160009054906101000a900460ff166001811115610b4d57610b4c612292565b5b6001811115610b5f57610b5e612292565b5b8152505081526020019060010190610a9b565b50505050610a22565b506002805480602002602001604051908101604052809291908181526020016000905b82821015610c7557838290600052602060002090600402016040518060800160405290816000820160009054906101000a900473ffffffffffffffffffffffffffffffffffffffff1673ffffffffffffffffffffffffffffffffffffffff1673ffffffffffffffffffffffffffffffffffffffff16815260200160018201548152602001600282015481526020016003820160009054906101000a900460ff166001811115610c5057610c4f612292565b5b6001811115610c6257610c61612292565b5b8152505081526020019060010190610b9e565b50505050905090565b600060038281548110610c9457610c93612481565b5b906000526020600020906004020160030160009054906101000a900460ff169050919050565b600060028281548110610cd057610ccf612481565b5b906000526020600020906004020160000160009054906101000a900473ffffffffffffffffffffffffffffffffffffffff169050919050565b6060610d2482600060018551610d1f9190612610565b611cb9565b819050919050565b600060038281548110610d4257610d41612481565b5b906000526020600020906004020160000160009054906101000a900473ffffffffffffffffffffffffffffffffffffffff169050919050565b6000811015610dbf576040517f08c379a0000000000000000000000000000000000000000000000000000000008152600401610db690612690565b60405180910390fd5b80341015610e02576040517f08c379a0000000000000000000000000000000000000000000000000000000008152600401610df9906126fc565b60405180910390fd5b6000429050600060646001546064610e1a9190612610565b34610e25919061271c565b610e2f91906127a5565b9050600060405180608001604052803373ffffffffffffffffffffffffffffffffffffffff16815260200183815260200184815260200160006001811115610e7a57610e79612292565b5b8152509050600381908060018154018082558091505060019003906000526020600020906004020160009091909190915060008201518160000160006101000a81548173ffffffffffffffffffffffffffffffffffffffff021916908373ffffffffffffffffffffffffffffffffffffffff160217905550602082015181600101556040820151816002015560608201518160030160006101000a81548160ff02191690836001811115610f3157610f30612292565b5b0217905550505060008054906101000a900473ffffffffffffffffffffffffffffffffffffffff1673ffffffffffffffffffffffffffffffffffffffff166108fc839081150290604051600060405180830381858888f19350505050158015610f9e573d6000803e3d6000fd5b507fc2125a7f3edfeff7a3bbcfe393c5aa3a6589585d4a7ee70db48c34f67c8209e23383856000604051610fd594939291906127f7565b60405180910390a150505050565b60028181548110610ff757610ff6612481565b5b90600052602060002090600402016040518060800160405290816000820160009054906101000a900473ffffffffffffffffffffffffffffffffffffffff1673ffffffffffffffffffffffffffffffffffffffff1673ffffffffffffffffffffffffffffffffffffffff16815260200160018201548152602001600282015481526020016003820160009054906101000a900460ff16600181111561109f5761109e612292565b5b60018111156110b1576110b0612292565b5b81525050600060018111156110c9576110c8612292565b5b816060015160018111156110e0576110df612292565b5b14611120576040517f08c379a000000000000000000000000000000000000000000000000000000000815260040161111790612584565b60405180910390fd5b6002828154811061113457611133612481565b5b90600052602060002090600402016040518060800160405290816000820160009054906101000a900473ffffffffffffffffffffffffffffffffffffffff1673ffffffffffffffffffffffffffffffffffffffff1673ffffffffffffffffffffffffffffffffffffffff16815260200160018201548152602001600282015481526020016003820160009054906101000a900460ff1660018111156111dc576111db612292565b5b60018111156111ee576111ed612292565b5b81525050338073ffffffffffffffffffffffffffffffffffffffff16826000015173ffffffffffffffffffffffffffffffffffffffff1614611265576040517f08c379a000000000000000000000000000000000000000000000000000000000815260040161125c906125f0565b60405180910390fd5b6002848154811061127957611278612481565b5b906000526020600020906004020160000160009054906101000a900473ffffffffffffffffffffffffffffffffffffffff1673ffffffffffffffffffffffffffffffffffffffff166108fc600286815481106112d8576112d7612481565b5b9060005260206000209060040201600101549081150290604051600060405180830381858888f19350505050158015611315573d6000803e3d6000fd5b506002848154811061132a57611329612481565b5b9060005260206000209060040201600080820160006101000a81549073ffffffffffffffffffffffffffffffffffffffff0219169055600182016000905560028201600090556003820160006101000a81549060ff0219169055505061148b6002805480602002602001604051908101604052809291908181526020016000905b8282101561148257838290600052602060002090600402016040518060800160405290816000820160009054906101000a900473ffffffffffffffffffffffffffffffffffffffff1673ffffffffffffffffffffffffffffffffffffffff1673ffffffffffffffffffffffffffffffffffffffff16815260200160018201548152602001600282015481526020016003820160009054906101000a900460ff16600181111561145d5761145c612292565b5b600181111561146f5761146e612292565b5b81525050815260200190600101906113ab565b50505050610a22565b507fc845a6832afa0a4048dd70bbba2186093508a6b63a8d5d70a508f819fef257f8846040516114bb9190612412565b60405180910390a150505050565b600081101561150d576040517f08c379a000000000000000000000000000000000000000000000000000000000815260040161150490612690565b60405180910390fd5b80341015611550576040517f08c379a000000000000000000000000000000000000000000000000000000000815260040161154790612888565b60405180910390fd5b60004290506000606460015460646115689190612610565b34611573919061271c565b61157d91906127a5565b9050600060405180608001604052803373ffffffffffffffffffffffffffffffffffffffff168152602001838152602001848152602001600060018111156115c8576115c7612292565b5b8152509050600281908060018154018082558091505060019003906000526020600020906004020160009091909190915060008201518160000160006101000a81548173ffffffffffffffffffffffffffffffffffffffff021916908373ffffffffffffffffffffffffffffffffffffffff160217905550602082015181600101556040820151816002015560608201518160030160006101000a81548160ff0219169083600181111561167f5761167e612292565b5b0217905550505060008054906101000a900473ffffffffffffffffffffffffffffffffffffffff1673ffffffffffffffffffffffffffffffffffffffff166108fc839081150290604051600060405180830381858888f193505050501580156116ec573d6000803e3d6000fd5b507fa64806d6d5d480697a0b11c92b915a4ff7b93c0be28171d65d30041a0c360d04338385600060405161172394939291906127f7565b60405180910390a150505050565b60006002828154811061174757611746612481565b5b906000526020600020906004020160030160009054906101000a900460ff169050919050565b60606118746003805480602002602001604051908101604052809291908181526020016000905b8282101561186b57838290600052602060002090600402016040518060800160405290816000820160009054906101000a900473ffffffffffffffffffffffffffffffffffffffff1673ffffffffffffffffffffffffffffffffffffffff1673ffffffffffffffffffffffffffffffffffffffff16815260200160018201548152602001600282015481526020016003820160009054906101000a900460ff16600181111561184657611845612292565b5b600181111561185857611857612292565b5b8152505081526020019060010190611794565b50505050610d09565b506003805480602002602001604051908101604052809291908181526020016000905b8282101561196e57838290600052602060002090600402016040518060800160405290816000820160009054906101000a900473ffffffffffffffffffffffffffffffffffffffff1673ffffffffffffffffffffffffffffffffffffffff1673ffffffffffffffffffffffffffffffffffffffff16815260200160018201548152602001600282015481526020016003820160009054906101000a900460ff16600181111561194957611948612292565b5b600181111561195b5761195a612292565b5b8152505081526020019060010190611897565b50505050905090565b6060611981611acc565b60005b600280549050811015611a46573373ffffffffffffffffffffffffffffffffffffffff16600282815481106119bc576119bb612481565b5b906000526020600020906004020160000160009054906101000a900473ffffffffffffffffffffffffffffffffffffffff1673ffffffffffffffffffffffffffffffffffffffff1603611a335760048190806001815401808255809150506001900390600052602060002001600090919091909150555b8080611a3e906124df565b915050611984565b506004805480602002602001604051908101604052809291908181526020018280548015611a9357602002820191906000526020600020905b815481526020019060010190808311611a7f575b5050505050905090565b600060038281548110611ab357611ab2612481565b5b9060005260206000209060040201600101549050919050565b60005b600480549050811015611b115760048181548110611af057611aef612481565b5b90600052602060002001600090558080611b09906124df565b915050611acf565b50565b60008290506000829050808203611b2c575050611cb4565b60008560028686611b3d91906128b2565b611b479190612946565b86611b5291906129b0565b81518110611b6357611b62612481565b5b60200260200101516020015190505b818313611c88575b80868481518110611b8e57611b8d612481565b5b6020026020010151602001511015611bb3578280611bab90612a44565b935050611b7a565b5b858281518110611bc757611bc6612481565b5b602002602001015160200151811015611bed578180611be590612a8c565b925050611bb4565b818313611c8357858281518110611c0757611c06612481565b5b6020026020010151868481518110611c2257611c21612481565b5b6020026020010151878581518110611c3d57611c3c612481565b5b60200260200101888581518110611c5757611c56612481565b5b6020026020010182905282905250508280611c7190612a44565b9350508180611c7f90612a8c565b9250505b611b72565b81851215611c9c57611c9b868684611b14565b5b83831215611cb057611caf868486611b14565b5b5050505b505050565b60008290506000829050808203611cd1575050611e59565b60008560028686611ce291906128b2565b611cec9190612946565b86611cf791906129b0565b81518110611d0857611d07612481565b5b60200260200101516020015190505b818313611e2d575b80868481518110611d3357611d32612481565b5b6020026020010151602001511115611d58578280611d5090612a44565b935050611d1f565b5b858281518110611d6c57611d6b612481565b5b602002602001015160200151811115611d92578180611d8a90612a8c565b925050611d59565b818313611e2857858281518110611dac57611dab612481565b5b6020026020010151868481518110611dc757611dc6612481565b5b6020026020010151878581518110611de257611de1612481565b5b60200260200101888581518110611dfc57611dfb612481565b5b6020026020010182905282905250508280611e1690612a44565b9350508180611e2490612a8c565b9250505b611d17565b81851215611e4157611e40868684611cb9565b5b83831215611e5557611e54868486611cb9565b5b5050505b505050565b600081519050919050565b600082825260208201905092915050565b6000819050602082019050919050565b6000819050919050565b611e9d81611e8a565b82525050565b6000611eaf8383611e94565b60208301905092915050565b6000602082019050919050565b6000611ed382611e5e565b611edd8185611e69565b9350611ee883611e7a565b8060005b83811015611f19578151611f008882611ea3565b9750611f0b83611ebb565b925050600181019050611eec565b5085935050505092915050565b60006020820190508181036000830152611f408184611ec8565b905092915050565b6000604051905090565b600080fd5b600080fd5b611f6581611e8a565b8114611f7057600080fd5b50565b600081359050611f8281611f5c565b92915050565b600060208284031215611f9e57611f9d611f52565b5b6000611fac84828501611f73565b91505092915050565b600080fd5b6000601f19601f8301169050919050565b7f4e487b7100000000000000000000000000000000000000000000000000000000600052604160045260246000fd5b61200382611fba565b810181811067ffffffffffffffff8211171561202257612021611fcb565b5b80604052505050565b6000612035611f48565b90506120418282611ffa565b919050565b600067ffffffffffffffff82111561206157612060611fcb565b5b602082029050602081019050919050565b600080fd5b600080fd5b600073ffffffffffffffffffffffffffffffffffffffff82169050919050565b60006120a78261207c565b9050919050565b6120b78161209c565b81146120c257600080fd5b50565b6000813590506120d4816120ae565b92915050565b600281106120e757600080fd5b50565b6000813590506120f9816120da565b92915050565b60006080828403121561211557612114612077565b5b61211f608061202b565b9050600061212f848285016120c5565b600083015250602061214384828501611f73565b602083015250604061215784828501611f73565b604083015250606061216b848285016120ea565b60608301525092915050565b600061218a61218584612046565b61202b565b905080838252602082019050608084028301858111156121ad576121ac612072565b5b835b818110156121d657806121c288826120ff565b8452602084019350506080810190506121af565b5050509392505050565b600082601f8301126121f5576121f4611fb5565b5b8135612205848260208601612177565b91505092915050565b60006020828403121561222457612223611f52565b5b600082013567ffffffffffffffff81111561224257612241611f57565b5b61224e848285016121e0565b91505092915050565b600081519050919050565b600082825260208201905092915050565b6000819050602082019050919050565b61228c8161209c565b82525050565b7f4e487b7100000000000000000000000000000000000000000000000000000000600052602160045260246000fd5b600281106122d2576122d1612292565b5b50565b60008190506122e3826122c1565b919050565b60006122f3826122d5565b9050919050565b612303816122e8565b82525050565b60808201600082015161231f6000850182612283565b5060208201516123326020850182611e94565b5060408201516123456040850182611e94565b50606082015161235860608501826122fa565b50505050565b600061236a8383612309565b60808301905092915050565b6000602082019050919050565b600061238e82612257565b6123988185612262565b93506123a383612273565b8060005b838110156123d45781516123bb888261235e565b97506123c683612376565b9250506001810190506123a7565b5085935050505092915050565b600060208201905081810360008301526123fb8184612383565b905092915050565b61240c81611e8a565b82525050565b60006020820190506124276000830184612403565b92915050565b612436816122e8565b82525050565b6000602082019050612451600083018461242d565b92915050565b6124608161209c565b82525050565b600060208201905061247b6000830184612457565b92915050565b7f4e487b7100000000000000000000000000000000000000000000000000000000600052603260045260246000fd5b7f4e487b7100000000000000000000000000000000000000000000000000000000600052601160045260246000fd5b60006124ea82611e8a565b91507fffffffffffffffffffffffffffffffffffffffffffffffffffffffffffffffff820361251c5761251b6124b0565b5b600182019050919050565b600082825260208201905092915050565b7f4f726465722050656e64696e6700000000000000000000000000000000000000600082015250565b600061256e600d83612527565b915061257982612538565b602082019050919050565b6000602082019050818103600083015261259d81612561565b9050919050565b7f4e6f7420417574686f7269736564000000000000000000000000000000000000600082015250565b60006125da600e83612527565b91506125e5826125a4565b602082019050919050565b60006020820190508181036000830152612609816125cd565b9050919050565b600061261b82611e8a565b915061262683611e8a565b925082821015612639576126386124b0565b5b828203905092915050565b7f70726963652076616c7565206d757374206265206d6f7265207468616e203000600082015250565b600061267a601f83612527565b915061268582612644565b602082019050919050565b600060208201905081810360008301526126a98161266d565b9050919050565b7f4e6f7420656e6f75676820626c616e636520746f20706c6163652061736b0000600082015250565b60006126e6601e83612527565b91506126f1826126b0565b602082019050919050565b60006020820190508181036000830152612715816126d9565b9050919050565b600061272782611e8a565b915061273283611e8a565b9250817fffffffffffffffffffffffffffffffffffffffffffffffffffffffffffffffff048311821515161561276b5761276a6124b0565b5b828202905092915050565b7f4e487b7100000000000000000000000000000000000000000000000000000000600052601260045260246000fd5b60006127b082611e8a565b91506127bb83611e8a565b9250826127cb576127ca612776565b5b828204905092915050565b60006127e18261207c565b9050919050565b6127f1816127d6565b82525050565b600060808201905061280c60008301876127e8565b6128196020830186612403565b6128266040830185612403565b612833606083018461242d565b95945050505050565b7f4e6f7420656e6f75676820626c616e636520746f20706c616365206269640000600082015250565b6000612872601e83612527565b915061287d8261283c565b602082019050919050565b600060208201905081810360008301526128a181612865565b9050919050565b6000819050919050565b60006128bd826128a8565b91506128c8836128a8565b9250827f800000000000000000000000000000000000000000000000000000000000000001821260008412151615612903576129026124b0565b5b827f7fffffffffffffffffffffffffffffffffffffffffffffffffffffffffffffff01821360008412161561293b5761293a6124b0565b5b828203905092915050565b6000612951826128a8565b915061295c836128a8565b92508261296c5761296b612776565b5b600160000383147f8000000000000000000000000000000000000000000000000000000000000000831416156129a5576129a46124b0565b5b828205905092915050565b60006129bb826128a8565b91506129c6836128a8565b9250817f7fffffffffffffffffffffffffffffffffffffffffffffffffffffffffffffff03831360008312151615612a0157612a006124b0565b5b817f8000000000000000000000000000000000000000000000000000000000000000038312600083121615612a3957612a386124b0565b5b828201905092915050565b6000612a4f826128a8565b91507f7fffffffffffffffffffffffffffffffffffffffffffffffffffffffffffffff8203612a8157612a806124b0565b5b600182019050919050565b6000612a97826128a8565b91507f80000000000000000000000000000000000000000000000000000000000000008203612ac957612ac86124b0565b5b60018203905091905056fea26469706673582212208d1752aac8f6ce06e4d7f8385af08d6759f71cdbe0b7478181be2a20d453de0064736f6c634300080d0033",
					"opcodes": "PUSH1 0x80 PUSH1 0x40 MSTORE CALLER PUSH1 0x0 DUP1 PUSH2 0x100 EXP DUP2 SLOAD DUP2 PUSH20 0xFFFFFFFFFFFFFFFFFFFFFFFFFFFFFFFFFFFFFFFF MUL NOT AND SWAP1 DUP4 PUSH20 0xFFFFFFFFFFFFFFFFFFFFFFFFFFFFFFFFFFFFFFFF AND MUL OR SWAP1 SSTORE POP CALLVALUE DUP1 ISZERO PUSH3 0x51 JUMPI PUSH1 0x0 DUP1 REVERT JUMPDEST POP PUSH1 0x40 MLOAD PUSH3 0x2C11 CODESIZE SUB DUP1 PUSH3 0x2C11 DUP4 CODECOPY DUP2 DUP2 ADD PUSH1 0x40 MSTORE DUP2 ADD SWAP1 PUSH3 0x77 SWAP2 SWAP1 PUSH3 0xC5 JUMP JUMPDEST DUP1 PUSH1 0x1 DUP2 SWAP1 SSTORE POP POP PUSH3 0xF7 JUMP JUMPDEST PUSH1 0x0 DUP1 REVERT JUMPDEST PUSH1 0x0 DUP2 SWAP1 POP SWAP2 SWAP1 POP JUMP JUMPDEST PUSH3 0x9F DUP2 PUSH3 0x8A JUMP JUMPDEST DUP2 EQ PUSH3 0xAB JUMPI PUSH1 0x0 DUP1 REVERT JUMPDEST POP JUMP JUMPDEST PUSH1 0x0 DUP2 MLOAD SWAP1 POP PUSH3 0xBF DUP2 PUSH3 0x94 JUMP JUMPDEST SWAP3 SWAP2 POP POP JUMP JUMPDEST PUSH1 0x0 PUSH1 0x20 DUP3 DUP5 SUB SLT ISZERO PUSH3 0xDE JUMPI PUSH3 0xDD PUSH3 0x85 JUMP JUMPDEST JUMPDEST PUSH1 0x0 PUSH3 0xEE DUP5 DUP3 DUP6 ADD PUSH3 0xAE JUMP JUMPDEST SWAP2 POP POP SWAP3 SWAP2 POP POP JUMP JUMPDEST PUSH2 0x2B0A DUP1 PUSH3 0x107 PUSH1 0x0 CODECOPY PUSH1 0x0 RETURN INVALID PUSH1 0x80 PUSH1 0x40 MSTORE PUSH1 0x4 CALLDATASIZE LT PUSH2 0xF3 JUMPI PUSH1 0x0 CALLDATALOAD PUSH1 0xE0 SHR DUP1 PUSH4 0x734A2E78 GT PUSH2 0x8A JUMPI DUP1 PUSH4 0xBF77FFAE GT PUSH2 0x59 JUMPI DUP1 PUSH4 0xBF77FFAE EQ PUSH2 0x346 JUMPI DUP1 PUSH4 0xC5374AF2 EQ PUSH2 0x383 JUMPI DUP1 PUSH4 0xCE0CDC87 EQ PUSH2 0x3AE JUMPI DUP1 PUSH4 0xDB3A1396 EQ PUSH2 0x3D9 JUMPI PUSH2 0xF3 JUMP JUMPDEST DUP1 PUSH4 0x734A2E78 EQ PUSH2 0x2A8 JUMPI DUP1 PUSH4 0x78C5B268 EQ PUSH2 0x2E5 JUMPI DUP1 PUSH4 0x9703EF35 EQ PUSH2 0x301 JUMPI DUP1 PUSH4 0x9979EF45 EQ PUSH2 0x32A JUMPI PUSH2 0xF3 JUMP JUMPDEST DUP1 PUSH4 0x4471417F GT PUSH2 0xC6 JUMPI DUP1 PUSH4 0x4471417F EQ PUSH2 0x1C6 JUMPI DUP1 PUSH4 0x4D46712D EQ PUSH2 0x1F1 JUMPI DUP1 PUSH4 0x69F632E2 EQ PUSH2 0x22E JUMPI DUP1 PUSH4 0x6EC48CE0 EQ PUSH2 0x26B JUMPI PUSH2 0xF3 JUMP JUMPDEST DUP1 PUSH4 0x122DE8F2 EQ PUSH2 0xF8 JUMPI DUP1 PUSH4 0x1628E0F5 EQ PUSH2 0x123 JUMPI DUP1 PUSH4 0x2AAEE28E EQ PUSH2 0x14C JUMPI DUP1 PUSH4 0x2DB6DFA7 EQ PUSH2 0x189 JUMPI JUMPDEST PUSH1 0x0 DUP1 REVERT JUMPDEST CALLVALUE DUP1 ISZERO PUSH2 0x104 JUMPI PUSH1 0x0 DUP1 REVERT JUMPDEST POP PUSH2 0x10D PUSH2 0x416 JUMP JUMPDEST PUSH1 0x40 MLOAD PUSH2 0x11A SWAP2 SWAP1 PUSH2 0x1F26 JUMP JUMPDEST PUSH1 0x40 MLOAD DUP1 SWAP2 SUB SWAP1 RETURN JUMPDEST CALLVALUE DUP1 ISZERO PUSH2 0x12F JUMPI PUSH1 0x0 DUP1 REVERT JUMPDEST POP PUSH2 0x14A PUSH1 0x4 DUP1 CALLDATASIZE SUB DUP2 ADD SWAP1 PUSH2 0x145 SWAP2 SWAP1 PUSH2 0x1F88 JUMP JUMPDEST PUSH2 0x53C JUMP JUMPDEST STOP JUMPDEST CALLVALUE DUP1 ISZERO PUSH2 0x158 JUMPI PUSH1 0x0 DUP1 REVERT JUMPDEST POP PUSH2 0x173 PUSH1 0x4 DUP1 CALLDATASIZE SUB DUP2 ADD SWAP1 PUSH2 0x16E SWAP2 SWAP1 PUSH2 0x220E JUMP JUMPDEST PUSH2 0xA22 JUMP JUMPDEST PUSH1 0x40 MLOAD PUSH2 0x180 SWAP2 SWAP1 PUSH2 0x23E1 JUMP JUMPDEST PUSH1 0x40 MLOAD DUP1 SWAP2 SUB SWAP1 RETURN JUMPDEST CALLVALUE DUP1 ISZERO PUSH2 0x195 JUMPI PUSH1 0x0 DUP1 REVERT JUMPDEST POP PUSH2 0x1B0 PUSH1 0x4 DUP1 CALLDATASIZE SUB DUP2 ADD SWAP1 PUSH2 0x1AB SWAP2 SWAP1 PUSH2 0x1F88 JUMP JUMPDEST PUSH2 0xA45 JUMP JUMPDEST PUSH1 0x40 MLOAD PUSH2 0x1BD SWAP2 SWAP1 PUSH2 0x2412 JUMP JUMPDEST PUSH1 0x40 MLOAD DUP1 SWAP2 SUB SWAP1 RETURN JUMPDEST CALLVALUE DUP1 ISZERO PUSH2 0x1D2 JUMPI PUSH1 0x0 DUP1 REVERT JUMPDEST POP PUSH2 0x1DB PUSH2 0xA74 JUMP JUMPDEST PUSH1 0x40 MLOAD PUSH2 0x1E8 SWAP2 SWAP1 PUSH2 0x23E1 JUMP JUMPDEST PUSH1 0x40 MLOAD DUP1 SWAP2 SUB SWAP1 RETURN JUMPDEST CALLVALUE DUP1 ISZERO PUSH2 0x1FD JUMPI PUSH1 0x0 DUP1 REVERT JUMPDEST POP PUSH2 0x218 PUSH1 0x4 DUP1 CALLDATASIZE SUB DUP2 ADD SWAP1 PUSH2 0x213 SWAP2 SWAP1 PUSH2 0x1F88 JUMP JUMPDEST PUSH2 0xC7E JUMP JUMPDEST PUSH1 0x40 MLOAD PUSH2 0x225 SWAP2 SWAP1 PUSH2 0x243C JUMP JUMPDEST PUSH1 0x40 MLOAD DUP1 SWAP2 SUB SWAP1 RETURN JUMPDEST CALLVALUE DUP1 ISZERO PUSH2 0x23A JUMPI PUSH1 0x0 DUP1 REVERT JUMPDEST POP PUSH2 0x255 PUSH1 0x4 DUP1 CALLDATASIZE SUB DUP2 ADD SWAP1 PUSH2 0x250 SWAP2 SWAP1 PUSH2 0x1F88 JUMP JUMPDEST PUSH2 0xCBA JUMP JUMPDEST PUSH1 0x40 MLOAD PUSH2 0x262 SWAP2 SWAP1 PUSH2 0x2466 JUMP JUMPDEST PUSH1 0x40 MLOAD DUP1 SWAP2 SUB SWAP1 RETURN JUMPDEST CALLVALUE DUP1 ISZERO PUSH2 0x277 JUMPI PUSH1 0x0 DUP1 REVERT JUMPDEST POP PUSH2 0x292 PUSH1 0x4 DUP1 CALLDATASIZE SUB DUP2 ADD SWAP1 PUSH2 0x28D SWAP2 SWAP1 PUSH2 0x220E JUMP JUMPDEST PUSH2 0xD09 JUMP JUMPDEST PUSH1 0x40 MLOAD PUSH2 0x29F SWAP2 SWAP1 PUSH2 0x23E1 JUMP JUMPDEST PUSH1 0x40 MLOAD DUP1 SWAP2 SUB SWAP1 RETURN JUMPDEST CALLVALUE DUP1 ISZERO PUSH2 0x2B4 JUMPI PUSH1 0x0 DUP1 REVERT JUMPDEST POP PUSH2 0x2CF PUSH1 0x4 DUP1 CALLDATASIZE SUB DUP2 ADD SWAP1 PUSH2 0x2CA SWAP2 SWAP1 PUSH2 0x1F88 JUMP JUMPDEST PUSH2 0xD2C JUMP JUMPDEST PUSH1 0x40 MLOAD PUSH2 0x2DC SWAP2 SWAP1 PUSH2 0x2466 JUMP JUMPDEST PUSH1 0x40 MLOAD DUP1 SWAP2 SUB SWAP1 RETURN JUMPDEST PUSH2 0x2FF PUSH1 0x4 DUP1 CALLDATASIZE SUB DUP2 ADD SWAP1 PUSH2 0x2FA SWAP2 SWAP1 PUSH2 0x1F88 JUMP JUMPDEST PUSH2 0xD7B JUMP JUMPDEST STOP JUMPDEST CALLVALUE DUP1 ISZERO PUSH2 0x30D JUMPI PUSH1 0x0 DUP1 REVERT JUMPDEST POP PUSH2 0x328 PUSH1 0x4 DUP1 CALLDATASIZE SUB DUP2 ADD SWAP1 PUSH2 0x323 SWAP2 SWAP1 PUSH2 0x1F88 JUMP JUMPDEST PUSH2 0xFE3 JUMP JUMPDEST STOP JUMPDEST PUSH2 0x344 PUSH1 0x4 DUP1 CALLDATASIZE SUB DUP2 ADD SWAP1 PUSH2 0x33F SWAP2 SWAP1 PUSH2 0x1F88 JUMP JUMPDEST PUSH2 0x14C9 JUMP JUMPDEST STOP JUMPDEST CALLVALUE DUP1 ISZERO PUSH2 0x352 JUMPI PUSH1 0x0 DUP1 REVERT JUMPDEST POP PUSH2 0x36D PUSH1 0x4 DUP1 CALLDATASIZE SUB DUP2 ADD SWAP1 PUSH2 0x368 SWAP2 SWAP1 PUSH2 0x1F88 JUMP JUMPDEST PUSH2 0x1731 JUMP JUMPDEST PUSH1 0x40 MLOAD PUSH2 0x37A SWAP2 SWAP1 PUSH2 0x243C JUMP JUMPDEST PUSH1 0x40 MLOAD DUP1 SWAP2 SUB SWAP1 RETURN JUMPDEST CALLVALUE DUP1 ISZERO PUSH2 0x38F JUMPI PUSH1 0x0 DUP1 REVERT JUMPDEST POP PUSH2 0x398 PUSH2 0x176D JUMP JUMPDEST PUSH1 0x40 MLOAD PUSH2 0x3A5 SWAP2 SWAP1 PUSH2 0x23E1 JUMP JUMPDEST PUSH1 0x40 MLOAD DUP1 SWAP2 SUB SWAP1 RETURN JUMPDEST CALLVALUE DUP1 ISZERO PUSH2 0x3BA JUMPI PUSH1 0x0 DUP1 REVERT JUMPDEST POP PUSH2 0x3C3 PUSH2 0x1977 JUMP JUMPDEST PUSH1 0x40 MLOAD PUSH2 0x3D0 SWAP2 SWAP1 PUSH2 0x1F26 JUMP JUMPDEST PUSH1 0x40 MLOAD DUP1 SWAP2 SUB SWAP1 RETURN JUMPDEST CALLVALUE DUP1 ISZERO PUSH2 0x3E5 JUMPI PUSH1 0x0 DUP1 REVERT JUMPDEST POP PUSH2 0x400 PUSH1 0x4 DUP1 CALLDATASIZE SUB DUP2 ADD SWAP1 PUSH2 0x3FB SWAP2 SWAP1 PUSH2 0x1F88 JUMP JUMPDEST PUSH2 0x1A9D JUMP JUMPDEST PUSH1 0x40 MLOAD PUSH2 0x40D SWAP2 SWAP1 PUSH2 0x2412 JUMP JUMPDEST PUSH1 0x40 MLOAD DUP1 SWAP2 SUB SWAP1 RETURN JUMPDEST PUSH1 0x60 PUSH2 0x420 PUSH2 0x1ACC JUMP JUMPDEST PUSH1 0x0 JUMPDEST PUSH1 0x3 DUP1 SLOAD SWAP1 POP DUP2 LT ISZERO PUSH2 0x4E5 JUMPI CALLER PUSH20 0xFFFFFFFFFFFFFFFFFFFFFFFFFFFFFFFFFFFFFFFF AND PUSH1 0x3 DUP3 DUP2 SLOAD DUP2 LT PUSH2 0x45B JUMPI PUSH2 0x45A PUSH2 0x2481 JUMP JUMPDEST JUMPDEST SWAP1 PUSH1 0x0 MSTORE PUSH1 0x20 PUSH1 0x0 KECCAK256 SWAP1 PUSH1 0x4 MUL ADD PUSH1 0x0 ADD PUSH1 0x0 SWAP1 SLOAD SWAP1 PUSH2 0x100 EXP SWAP1 DIV PUSH20 0xFFFFFFFFFFFFFFFFFFFFFFFFFFFFFFFFFFFFFFFF AND PUSH20 0xFFFFFFFFFFFFFFFFFFFFFFFFFFFFFFFFFFFFFFFF AND SUB PUSH2 0x4D2 JUMPI PUSH1 0x4 DUP2 SWAP1 DUP1 PUSH1 0x1 DUP2 SLOAD ADD DUP1 DUP3 SSTORE DUP1 SWAP2 POP POP PUSH1 0x1 SWAP1 SUB SWAP1 PUSH1 0x0 MSTORE PUSH1 0x20 PUSH1 0x0 KECCAK256 ADD PUSH1 0x0 SWAP1 SWAP2 SWAP1 SWAP2 SWAP1 SWAP2 POP SSTORE JUMPDEST DUP1 DUP1 PUSH2 0x4DD SWAP1 PUSH2 0x24DF JUMP JUMPDEST SWAP2 POP POP PUSH2 0x423 JUMP JUMPDEST POP PUSH1 0x4 DUP1 SLOAD DUP1 PUSH1 0x20 MUL PUSH1 0x20 ADD PUSH1 0x40 MLOAD SWAP1 DUP2 ADD PUSH1 0x40 MSTORE DUP1 SWAP3 SWAP2 SWAP1 DUP2 DUP2 MSTORE PUSH1 0x20 ADD DUP3 DUP1 SLOAD DUP1 ISZERO PUSH2 0x532 JUMPI PUSH1 0x20 MUL DUP3 ADD SWAP2 SWAP1 PUSH1 0x0 MSTORE PUSH1 0x20 PUSH1 0x0 KECCAK256 SWAP1 JUMPDEST DUP2 SLOAD DUP2 MSTORE PUSH1 0x20 ADD SWAP1 PUSH1 0x1 ADD SWAP1 DUP1 DUP4 GT PUSH2 0x51E JUMPI JUMPDEST POP POP POP POP POP SWAP1 POP SWAP1 JUMP JUMPDEST PUSH1 0x3 DUP2 DUP2 SLOAD DUP2 LT PUSH2 0x550 JUMPI PUSH2 0x54F PUSH2 0x2481 JUMP JUMPDEST JUMPDEST SWAP1 PUSH1 0x0 MSTORE PUSH1 0x20 PUSH1 0x0 KECCAK256 SWAP1 PUSH1 0x4 MUL ADD PUSH1 0x40 MLOAD DUP1 PUSH1 0x80 ADD PUSH1 0x40 MSTORE SWAP1 DUP2 PUSH1 0x0 DUP3 ADD PUSH1 0x0 SWAP1 SLOAD SWAP1 PUSH2 0x100 EXP SWAP1 DIV PUSH20 0xFFFFFFFFFFFFFFFFFFFFFFFFFFFFFFFFFFFFFFFF AND PUSH20 0xFFFFFFFFFFFFFFFFFFFFFFFFFFFFFFFFFFFFFFFF AND PUSH20 0xFFFFFFFFFFFFFFFFFFFFFFFFFFFFFFFFFFFFFFFF AND DUP2 MSTORE PUSH1 0x20 ADD PUSH1 0x1 DUP3 ADD SLOAD DUP2 MSTORE PUSH1 0x20 ADD PUSH1 0x2 DUP3 ADD SLOAD DUP2 MSTORE PUSH1 0x20 ADD PUSH1 0x3 DUP3 ADD PUSH1 0x0 SWAP1 SLOAD SWAP1 PUSH2 0x100 EXP SWAP1 DIV PUSH1 0xFF AND PUSH1 0x1 DUP2 GT ISZERO PUSH2 0x5F8 JUMPI PUSH2 0x5F7 PUSH2 0x2292 JUMP JUMPDEST JUMPDEST PUSH1 0x1 DUP2 GT ISZERO PUSH2 0x60A JUMPI PUSH2 0x609 PUSH2 0x2292 JUMP JUMPDEST JUMPDEST DUP2 MSTORE POP POP PUSH1 0x0 PUSH1 0x1 DUP2 GT ISZERO PUSH2 0x622 JUMPI PUSH2 0x621 PUSH2 0x2292 JUMP JUMPDEST JUMPDEST DUP2 PUSH1 0x60 ADD MLOAD PUSH1 0x1 DUP2 GT ISZERO PUSH2 0x639 JUMPI PUSH2 0x638 PUSH2 0x2292 JUMP JUMPDEST JUMPDEST EQ PUSH2 0x679 JUMPI PUSH1 0x40 MLOAD PUSH32 0x8C379A000000000000000000000000000000000000000000000000000000000 DUP2 MSTORE PUSH1 0x4 ADD PUSH2 0x670 SWAP1 PUSH2 0x2584 JUMP JUMPDEST PUSH1 0x40 MLOAD DUP1 SWAP2 SUB SWAP1 REVERT JUMPDEST PUSH1 0x3 DUP3 DUP2 SLOAD DUP2 LT PUSH2 0x68D JUMPI PUSH2 0x68C PUSH2 0x2481 JUMP JUMPDEST JUMPDEST SWAP1 PUSH1 0x0 MSTORE PUSH1 0x20 PUSH1 0x0 KECCAK256 SWAP1 PUSH1 0x4 MUL ADD PUSH1 0x40 MLOAD DUP1 PUSH1 0x80 ADD PUSH1 0x40 MSTORE SWAP1 DUP2 PUSH1 0x0 DUP3 ADD PUSH1 0x0 SWAP1 SLOAD SWAP1 PUSH2 0x100 EXP SWAP1 DIV PUSH20 0xFFFFFFFFFFFFFFFFFFFFFFFFFFFFFFFFFFFFFFFF AND PUSH20 0xFFFFFFFFFFFFFFFFFFFFFFFFFFFFFFFFFFFFFFFF AND PUSH20 0xFFFFFFFFFFFFFFFFFFFFFFFFFFFFFFFFFFFFFFFF AND DUP2 MSTORE PUSH1 0x20 ADD PUSH1 0x1 DUP3 ADD SLOAD DUP2 MSTORE PUSH1 0x20 ADD PUSH1 0x2 DUP3 ADD SLOAD DUP2 MSTORE PUSH1 0x20 ADD PUSH1 0x3 DUP3 ADD PUSH1 0x0 SWAP1 SLOAD SWAP1 PUSH2 0x100 EXP SWAP1 DIV PUSH1 0xFF AND PUSH1 0x1 DUP2 GT ISZERO PUSH2 0x735 JUMPI PUSH2 0x734 PUSH2 0x2292 JUMP JUMPDEST JUMPDEST PUSH1 0x1 DUP2 GT ISZERO PUSH2 0x747 JUMPI PUSH2 0x746 PUSH2 0x2292 JUMP JUMPDEST JUMPDEST DUP2 MSTORE POP POP CALLER DUP1 PUSH20 0xFFFFFFFFFFFFFFFFFFFFFFFFFFFFFFFFFFFFFFFF AND DUP3 PUSH1 0x0 ADD MLOAD PUSH20 0xFFFFFFFFFFFFFFFFFFFFFFFFFFFFFFFFFFFFFFFF AND EQ PUSH2 0x7BE JUMPI PUSH1 0x40 MLOAD PUSH32 0x8C379A000000000000000000000000000000000000000000000000000000000 DUP2 MSTORE PUSH1 0x4 ADD PUSH2 0x7B5 SWAP1 PUSH2 0x25F0 JUMP JUMPDEST PUSH1 0x40 MLOAD DUP1 SWAP2 SUB SWAP1 REVERT JUMPDEST PUSH1 0x3 DUP5 DUP2 SLOAD DUP2 LT PUSH2 0x7D2 JUMPI PUSH2 0x7D1 PUSH2 0x2481 JUMP JUMPDEST JUMPDEST SWAP1 PUSH1 0x0 MSTORE PUSH1 0x20 PUSH1 0x0 KECCAK256 SWAP1 PUSH1 0x4 MUL ADD PUSH1 0x0 ADD PUSH1 0x0 SWAP1 SLOAD SWAP1 PUSH2 0x100 EXP SWAP1 DIV PUSH20 0xFFFFFFFFFFFFFFFFFFFFFFFFFFFFFFFFFFFFFFFF AND PUSH20 0xFFFFFFFFFFFFFFFFFFFFFFFFFFFFFFFFFFFFFFFF AND PUSH2 0x8FC PUSH1 0x3 DUP7 DUP2 SLOAD DUP2 LT PUSH2 0x831 JUMPI PUSH2 0x830 PUSH2 0x2481 JUMP JUMPDEST JUMPDEST SWAP1 PUSH1 0x0 MSTORE PUSH1 0x20 PUSH1 0x0 KECCAK256 SWAP1 PUSH1 0x4 MUL ADD PUSH1 0x1 ADD SLOAD SWAP1 DUP2 ISZERO MUL SWAP1 PUSH1 0x40 MLOAD PUSH1 0x0 PUSH1 0x40 MLOAD DUP1 DUP4 SUB DUP2 DUP6 DUP9 DUP9 CALL SWAP4 POP POP POP POP ISZERO DUP1 ISZERO PUSH2 0x86E JUMPI RETURNDATASIZE PUSH1 0x0 DUP1 RETURNDATACOPY RETURNDATASIZE PUSH1 0x0 REVERT JUMPDEST POP PUSH1 0x3 DUP5 DUP2 SLOAD DUP2 LT PUSH2 0x883 JUMPI PUSH2 0x882 PUSH2 0x2481 JUMP JUMPDEST JUMPDEST SWAP1 PUSH1 0x0 MSTORE PUSH1 0x20 PUSH1 0x0 KECCAK256 SWAP1 PUSH1 0x4 MUL ADD PUSH1 0x0 DUP1 DUP3 ADD PUSH1 0x0 PUSH2 0x100 EXP DUP2 SLOAD SWAP1 PUSH20 0xFFFFFFFFFFFFFFFFFFFFFFFFFFFFFFFFFFFFFFFF MUL NOT AND SWAP1 SSTORE PUSH1 0x1 DUP3 ADD PUSH1 0x0 SWAP1 SSTORE PUSH1 0x2 DUP3 ADD PUSH1 0x0 SWAP1 SSTORE PUSH1 0x3 DUP3 ADD PUSH1 0x0 PUSH2 0x100 EXP DUP2 SLOAD SWAP1 PUSH1 0xFF MUL NOT AND SWAP1 SSTORE POP POP PUSH2 0x9E4 PUSH1 0x3 DUP1 SLOAD DUP1 PUSH1 0x20 MUL PUSH1 0x20 ADD PUSH1 0x40 MLOAD SWAP1 DUP2 ADD PUSH1 0x40 MSTORE DUP1 SWAP3 SWAP2 SWAP1 DUP2 DUP2 MSTORE PUSH1 0x20 ADD PUSH1 0x0 SWAP1 JUMPDEST DUP3 DUP3 LT ISZERO PUSH2 0x9DB JUMPI DUP4 DUP3 SWAP1 PUSH1 0x0 MSTORE PUSH1 0x20 PUSH1 0x0 KECCAK256 SWAP1 PUSH1 0x4 MUL ADD PUSH1 0x40 MLOAD DUP1 PUSH1 0x80 ADD PUSH1 0x40 MSTORE SWAP1 DUP2 PUSH1 0x0 DUP3 ADD PUSH1 0x0 SWAP1 SLOAD SWAP1 PUSH2 0x100 EXP SWAP1 DIV PUSH20 0xFFFFFFFFFFFFFFFFFFFFFFFFFFFFFFFFFFFFFFFF AND PUSH20 0xFFFFFFFFFFFFFFFFFFFFFFFFFFFFFFFFFFFFFFFF AND PUSH20 0xFFFFFFFFFFFFFFFFFFFFFFFFFFFFFFFFFFFFFFFF AND DUP2 MSTORE PUSH1 0x20 ADD PUSH1 0x1 DUP3 ADD SLOAD DUP2 MSTORE PUSH1 0x20 ADD PUSH1 0x2 DUP3 ADD SLOAD DUP2 MSTORE PUSH1 0x20 ADD PUSH1 0x3 DUP3 ADD PUSH1 0x0 SWAP1 SLOAD SWAP1 PUSH2 0x100 EXP SWAP1 DIV PUSH1 0xFF AND PUSH1 0x1 DUP2 GT ISZERO PUSH2 0x9B6 JUMPI PUSH2 0x9B5 PUSH2 0x2292 JUMP JUMPDEST JUMPDEST PUSH1 0x1 DUP2 GT ISZERO PUSH2 0x9C8 JUMPI PUSH2 0x9C7 PUSH2 0x2292 JUMP JUMPDEST JUMPDEST DUP2 MSTORE POP POP DUP2 MSTORE PUSH1 0x20 ADD SWAP1 PUSH1 0x1 ADD SWAP1 PUSH2 0x904 JUMP JUMPDEST POP POP POP POP PUSH2 0xD09 JUMP JUMPDEST POP PUSH32 0x48D3043FFF66C1AEE14954AC5AA463B0297FB08C9B60EE00486FB3387BB58AAC DUP5 PUSH1 0x40 MLOAD PUSH2 0xA14 SWAP2 SWAP1 PUSH2 0x2412 JUMP JUMPDEST PUSH1 0x40 MLOAD DUP1 SWAP2 SUB SWAP1 LOG1 POP POP POP POP JUMP JUMPDEST PUSH1 0x60 PUSH2 0xA3D DUP3 PUSH1 0x0 PUSH1 0x1 DUP6 MLOAD PUSH2 0xA38 SWAP2 SWAP1 PUSH2 0x2610 JUMP JUMPDEST PUSH2 0x1B14 JUMP JUMPDEST DUP2 SWAP1 POP SWAP2 SWAP1 POP JUMP JUMPDEST PUSH1 0x0 PUSH1 0x2 DUP3 DUP2 SLOAD DUP2 LT PUSH2 0xA5B JUMPI PUSH2 0xA5A PUSH2 0x2481 JUMP JUMPDEST JUMPDEST SWAP1 PUSH1 0x0 MSTORE PUSH1 0x20 PUSH1 0x0 KECCAK256 SWAP1 PUSH1 0x4 MUL ADD PUSH1 0x1 ADD SLOAD SWAP1 POP SWAP2 SWAP1 POP JUMP JUMPDEST PUSH1 0x60 PUSH2 0xB7B PUSH1 0x2 DUP1 SLOAD DUP1 PUSH1 0x20 MUL PUSH1 0x20 ADD PUSH1 0x40 MLOAD SWAP1 DUP2 ADD PUSH1 0x40 MSTORE DUP1 SWAP3 SWAP2 SWAP1 DUP2 DUP2 MSTORE PUSH1 0x20 ADD PUSH1 0x0 SWAP1 JUMPDEST DUP3 DUP3 LT ISZERO PUSH2 0xB72 JUMPI DUP4 DUP3 SWAP1 PUSH1 0x0 MSTORE PUSH1 0x20 PUSH1 0x0 KECCAK256 SWAP1 PUSH1 0x4 MUL ADD PUSH1 0x40 MLOAD DUP1 PUSH1 0x80 ADD PUSH1 0x40 MSTORE SWAP1 DUP2 PUSH1 0x0 DUP3 ADD PUSH1 0x0 SWAP1 SLOAD SWAP1 PUSH2 0x100 EXP SWAP1 DIV PUSH20 0xFFFFFFFFFFFFFFFFFFFFFFFFFFFFFFFFFFFFFFFF AND PUSH20 0xFFFFFFFFFFFFFFFFFFFFFFFFFFFFFFFFFFFFFFFF AND PUSH20 0xFFFFFFFFFFFFFFFFFFFFFFFFFFFFFFFFFFFFFFFF AND DUP2 MSTORE PUSH1 0x20 ADD PUSH1 0x1 DUP3 ADD SLOAD DUP2 MSTORE PUSH1 0x20 ADD PUSH1 0x2 DUP3 ADD SLOAD DUP2 MSTORE PUSH1 0x20 ADD PUSH1 0x3 DUP3 ADD PUSH1 0x0 SWAP1 SLOAD SWAP1 PUSH2 0x100 EXP SWAP1 DIV PUSH1 0xFF AND PUSH1 0x1 DUP2 GT ISZERO PUSH2 0xB4D JUMPI PUSH2 0xB4C PUSH2 0x2292 JUMP JUMPDEST JUMPDEST PUSH1 0x1 DUP2 GT ISZERO PUSH2 0xB5F JUMPI PUSH2 0xB5E PUSH2 0x2292 JUMP JUMPDEST JUMPDEST DUP2 MSTORE POP POP DUP2 MSTORE PUSH1 0x20 ADD SWAP1 PUSH1 0x1 ADD SWAP1 PUSH2 0xA9B JUMP JUMPDEST POP POP POP POP PUSH2 0xA22 JUMP JUMPDEST POP PUSH1 0x2 DUP1 SLOAD DUP1 PUSH1 0x20 MUL PUSH1 0x20 ADD PUSH1 0x40 MLOAD SWAP1 DUP2 ADD PUSH1 0x40 MSTORE DUP1 SWAP3 SWAP2 SWAP1 DUP2 DUP2 MSTORE PUSH1 0x20 ADD PUSH1 0x0 SWAP1 JUMPDEST DUP3 DUP3 LT ISZERO PUSH2 0xC75 JUMPI DUP4 DUP3 SWAP1 PUSH1 0x0 MSTORE PUSH1 0x20 PUSH1 0x0 KECCAK256 SWAP1 PUSH1 0x4 MUL ADD PUSH1 0x40 MLOAD DUP1 PUSH1 0x80 ADD PUSH1 0x40 MSTORE SWAP1 DUP2 PUSH1 0x0 DUP3 ADD PUSH1 0x0 SWAP1 SLOAD SWAP1 PUSH2 0x100 EXP SWAP1 DIV PUSH20 0xFFFFFFFFFFFFFFFFFFFFFFFFFFFFFFFFFFFFFFFF AND PUSH20 0xFFFFFFFFFFFFFFFFFFFFFFFFFFFFFFFFFFFFFFFF AND PUSH20 0xFFFFFFFFFFFFFFFFFFFFFFFFFFFFFFFFFFFFFFFF AND DUP2 MSTORE PUSH1 0x20 ADD PUSH1 0x1 DUP3 ADD SLOAD DUP2 MSTORE PUSH1 0x20 ADD PUSH1 0x2 DUP3 ADD SLOAD DUP2 MSTORE PUSH1 0x20 ADD PUSH1 0x3 DUP3 ADD PUSH1 0x0 SWAP1 SLOAD SWAP1 PUSH2 0x100 EXP SWAP1 DIV PUSH1 0xFF AND PUSH1 0x1 DUP2 GT ISZERO PUSH2 0xC50 JUMPI PUSH2 0xC4F PUSH2 0x2292 JUMP JUMPDEST JUMPDEST PUSH1 0x1 DUP2 GT ISZERO PUSH2 0xC62 JUMPI PUSH2 0xC61 PUSH2 0x2292 JUMP JUMPDEST JUMPDEST DUP2 MSTORE POP POP DUP2 MSTORE PUSH1 0x20 ADD SWAP1 PUSH1 0x1 ADD SWAP1 PUSH2 0xB9E JUMP JUMPDEST POP POP POP POP SWAP1 POP SWAP1 JUMP JUMPDEST PUSH1 0x0 PUSH1 0x3 DUP3 DUP2 SLOAD DUP2 LT PUSH2 0xC94 JUMPI PUSH2 0xC93 PUSH2 0x2481 JUMP JUMPDEST JUMPDEST SWAP1 PUSH1 0x0 MSTORE PUSH1 0x20 PUSH1 0x0 KECCAK256 SWAP1 PUSH1 0x4 MUL ADD PUSH1 0x3 ADD PUSH1 0x0 SWAP1 SLOAD SWAP1 PUSH2 0x100 EXP SWAP1 DIV PUSH1 0xFF AND SWAP1 POP SWAP2 SWAP1 POP JUMP JUMPDEST PUSH1 0x0 PUSH1 0x2 DUP3 DUP2 SLOAD DUP2 LT PUSH2 0xCD0 JUMPI PUSH2 0xCCF PUSH2 0x2481 JUMP JUMPDEST JUMPDEST SWAP1 PUSH1 0x0 MSTORE PUSH1 0x20 PUSH1 0x0 KECCAK256 SWAP1 PUSH1 0x4 MUL ADD PUSH1 0x0 ADD PUSH1 0x0 SWAP1 SLOAD SWAP1 PUSH2 0x100 EXP SWAP1 DIV PUSH20 0xFFFFFFFFFFFFFFFFFFFFFFFFFFFFFFFFFFFFFFFF AND SWAP1 POP SWAP2 SWAP1 POP JUMP JUMPDEST PUSH1 0x60 PUSH2 0xD24 DUP3 PUSH1 0x0 PUSH1 0x1 DUP6 MLOAD PUSH2 0xD1F SWAP2 SWAP1 PUSH2 0x2610 JUMP JUMPDEST PUSH2 0x1CB9 JUMP JUMPDEST DUP2 SWAP1 POP SWAP2 SWAP1 POP JUMP JUMPDEST PUSH1 0x0 PUSH1 0x3 DUP3 DUP2 SLOAD DUP2 LT PUSH2 0xD42 JUMPI PUSH2 0xD41 PUSH2 0x2481 JUMP JUMPDEST JUMPDEST SWAP1 PUSH1 0x0 MSTORE PUSH1 0x20 PUSH1 0x0 KECCAK256 SWAP1 PUSH1 0x4 MUL ADD PUSH1 0x0 ADD PUSH1 0x0 SWAP1 SLOAD SWAP1 PUSH2 0x100 EXP SWAP1 DIV PUSH20 0xFFFFFFFFFFFFFFFFFFFFFFFFFFFFFFFFFFFFFFFF AND SWAP1 POP SWAP2 SWAP1 POP JUMP JUMPDEST PUSH1 0x0 DUP2 LT ISZERO PUSH2 0xDBF JUMPI PUSH1 0x40 MLOAD PUSH32 0x8C379A000000000000000000000000000000000000000000000000000000000 DUP2 MSTORE PUSH1 0x4 ADD PUSH2 0xDB6 SWAP1 PUSH2 0x2690 JUMP JUMPDEST PUSH1 0x40 MLOAD DUP1 SWAP2 SUB SWAP1 REVERT JUMPDEST DUP1 CALLVALUE LT ISZERO PUSH2 0xE02 JUMPI PUSH1 0x40 MLOAD PUSH32 0x8C379A000000000000000000000000000000000000000000000000000000000 DUP2 MSTORE PUSH1 0x4 ADD PUSH2 0xDF9 SWAP1 PUSH2 0x26FC JUMP JUMPDEST PUSH1 0x40 MLOAD DUP1 SWAP2 SUB SWAP1 REVERT JUMPDEST PUSH1 0x0 TIMESTAMP SWAP1 POP PUSH1 0x0 PUSH1 0x64 PUSH1 0x1 SLOAD PUSH1 0x64 PUSH2 0xE1A SWAP2 SWAP1 PUSH2 0x2610 JUMP JUMPDEST CALLVALUE PUSH2 0xE25 SWAP2 SWAP1 PUSH2 0x271C JUMP JUMPDEST PUSH2 0xE2F SWAP2 SWAP1 PUSH2 0x27A5 JUMP JUMPDEST SWAP1 POP PUSH1 0x0 PUSH1 0x40 MLOAD DUP1 PUSH1 0x80 ADD PUSH1 0x40 MSTORE DUP1 CALLER PUSH20 0xFFFFFFFFFFFFFFFFFFFFFFFFFFFFFFFFFFFFFFFF AND DUP2 MSTORE PUSH1 0x20 ADD DUP4 DUP2 MSTORE PUSH1 0x20 ADD DUP5 DUP2 MSTORE PUSH1 0x20 ADD PUSH1 0x0 PUSH1 0x1 DUP2 GT ISZERO PUSH2 0xE7A JUMPI PUSH2 0xE79 PUSH2 0x2292 JUMP JUMPDEST JUMPDEST DUP2 MSTORE POP SWAP1 POP PUSH1 0x3 DUP2 SWAP1 DUP1 PUSH1 0x1 DUP2 SLOAD ADD DUP1 DUP3 SSTORE DUP1 SWAP2 POP POP PUSH1 0x1 SWAP1 SUB SWAP1 PUSH1 0x0 MSTORE PUSH1 0x20 PUSH1 0x0 KECCAK256 SWAP1 PUSH1 0x4 MUL ADD PUSH1 0x0 SWAP1 SWAP2 SWAP1 SWAP2 SWAP1 SWAP2 POP PUSH1 0x0 DUP3 ADD MLOAD DUP2 PUSH1 0x0 ADD PUSH1 0x0 PUSH2 0x100 EXP DUP2 SLOAD DUP2 PUSH20 0xFFFFFFFFFFFFFFFFFFFFFFFFFFFFFFFFFFFFFFFF MUL NOT AND SWAP1 DUP4 PUSH20 0xFFFFFFFFFFFFFFFFFFFFFFFFFFFFFFFFFFFFFFFF AND MUL OR SWAP1 SSTORE POP PUSH1 0x20 DUP3 ADD MLOAD DUP2 PUSH1 0x1 ADD SSTORE PUSH1 0x40 DUP3 ADD MLOAD DUP2 PUSH1 0x2 ADD SSTORE PUSH1 0x60 DUP3 ADD MLOAD DUP2 PUSH1 0x3 ADD PUSH1 0x0 PUSH2 0x100 EXP DUP2 SLOAD DUP2 PUSH1 0xFF MUL NOT AND SWAP1 DUP4 PUSH1 0x1 DUP2 GT ISZERO PUSH2 0xF31 JUMPI PUSH2 0xF30 PUSH2 0x2292 JUMP JUMPDEST JUMPDEST MUL OR SWAP1 SSTORE POP POP POP PUSH1 0x0 DUP1 SLOAD SWAP1 PUSH2 0x100 EXP SWAP1 DIV PUSH20 0xFFFFFFFFFFFFFFFFFFFFFFFFFFFFFFFFFFFFFFFF AND PUSH20 0xFFFFFFFFFFFFFFFFFFFFFFFFFFFFFFFFFFFFFFFF AND PUSH2 0x8FC DUP4 SWAP1 DUP2 ISZERO MUL SWAP1 PUSH1 0x40 MLOAD PUSH1 0x0 PUSH1 0x40 MLOAD DUP1 DUP4 SUB DUP2 DUP6 DUP9 DUP9 CALL SWAP4 POP POP POP POP ISZERO DUP1 ISZERO PUSH2 0xF9E JUMPI RETURNDATASIZE PUSH1 0x0 DUP1 RETURNDATACOPY RETURNDATASIZE PUSH1 0x0 REVERT JUMPDEST POP PUSH32 0xC2125A7F3EDFEFF7A3BBCFE393C5AA3A6589585D4A7EE70DB48C34F67C8209E2 CALLER DUP4 DUP6 PUSH1 0x0 PUSH1 0x40 MLOAD PUSH2 0xFD5 SWAP5 SWAP4 SWAP3 SWAP2 SWAP1 PUSH2 0x27F7 JUMP JUMPDEST PUSH1 0x40 MLOAD DUP1 SWAP2 SUB SWAP1 LOG1 POP POP POP POP JUMP JUMPDEST PUSH1 0x2 DUP2 DUP2 SLOAD DUP2 LT PUSH2 0xFF7 JUMPI PUSH2 0xFF6 PUSH2 0x2481 JUMP JUMPDEST JUMPDEST SWAP1 PUSH1 0x0 MSTORE PUSH1 0x20 PUSH1 0x0 KECCAK256 SWAP1 PUSH1 0x4 MUL ADD PUSH1 0x40 MLOAD DUP1 PUSH1 0x80 ADD PUSH1 0x40 MSTORE SWAP1 DUP2 PUSH1 0x0 DUP3 ADD PUSH1 0x0 SWAP1 SLOAD SWAP1 PUSH2 0x100 EXP SWAP1 DIV PUSH20 0xFFFFFFFFFFFFFFFFFFFFFFFFFFFFFFFFFFFFFFFF AND PUSH20 0xFFFFFFFFFFFFFFFFFFFFFFFFFFFFFFFFFFFFFFFF AND PUSH20 0xFFFFFFFFFFFFFFFFFFFFFFFFFFFFFFFFFFFFFFFF AND DUP2 MSTORE PUSH1 0x20 ADD PUSH1 0x1 DUP3 ADD SLOAD DUP2 MSTORE PUSH1 0x20 ADD PUSH1 0x2 DUP3 ADD SLOAD DUP2 MSTORE PUSH1 0x20 ADD PUSH1 0x3 DUP3 ADD PUSH1 0x0 SWAP1 SLOAD SWAP1 PUSH2 0x100 EXP SWAP1 DIV PUSH1 0xFF AND PUSH1 0x1 DUP2 GT ISZERO PUSH2 0x109F JUMPI PUSH2 0x109E PUSH2 0x2292 JUMP JUMPDEST JUMPDEST PUSH1 0x1 DUP2 GT ISZERO PUSH2 0x10B1 JUMPI PUSH2 0x10B0 PUSH2 0x2292 JUMP JUMPDEST JUMPDEST DUP2 MSTORE POP POP PUSH1 0x0 PUSH1 0x1 DUP2 GT ISZERO PUSH2 0x10C9 JUMPI PUSH2 0x10C8 PUSH2 0x2292 JUMP JUMPDEST JUMPDEST DUP2 PUSH1 0x60 ADD MLOAD PUSH1 0x1 DUP2 GT ISZERO PUSH2 0x10E0 JUMPI PUSH2 0x10DF PUSH2 0x2292 JUMP JUMPDEST JUMPDEST EQ PUSH2 0x1120 JUMPI PUSH1 0x40 MLOAD PUSH32 0x8C379A000000000000000000000000000000000000000000000000000000000 DUP2 MSTORE PUSH1 0x4 ADD PUSH2 0x1117 SWAP1 PUSH2 0x2584 JUMP JUMPDEST PUSH1 0x40 MLOAD DUP1 SWAP2 SUB SWAP1 REVERT JUMPDEST PUSH1 0x2 DUP3 DUP2 SLOAD DUP2 LT PUSH2 0x1134 JUMPI PUSH2 0x1133 PUSH2 0x2481 JUMP JUMPDEST JUMPDEST SWAP1 PUSH1 0x0 MSTORE PUSH1 0x20 PUSH1 0x0 KECCAK256 SWAP1 PUSH1 0x4 MUL ADD PUSH1 0x40 MLOAD DUP1 PUSH1 0x80 ADD PUSH1 0x40 MSTORE SWAP1 DUP2 PUSH1 0x0 DUP3 ADD PUSH1 0x0 SWAP1 SLOAD SWAP1 PUSH2 0x100 EXP SWAP1 DIV PUSH20 0xFFFFFFFFFFFFFFFFFFFFFFFFFFFFFFFFFFFFFFFF AND PUSH20 0xFFFFFFFFFFFFFFFFFFFFFFFFFFFFFFFFFFFFFFFF AND PUSH20 0xFFFFFFFFFFFFFFFFFFFFFFFFFFFFFFFFFFFFFFFF AND DUP2 MSTORE PUSH1 0x20 ADD PUSH1 0x1 DUP3 ADD SLOAD DUP2 MSTORE PUSH1 0x20 ADD PUSH1 0x2 DUP3 ADD SLOAD DUP2 MSTORE PUSH1 0x20 ADD PUSH1 0x3 DUP3 ADD PUSH1 0x0 SWAP1 SLOAD SWAP1 PUSH2 0x100 EXP SWAP1 DIV PUSH1 0xFF AND PUSH1 0x1 DUP2 GT ISZERO PUSH2 0x11DC JUMPI PUSH2 0x11DB PUSH2 0x2292 JUMP JUMPDEST JUMPDEST PUSH1 0x1 DUP2 GT ISZERO PUSH2 0x11EE JUMPI PUSH2 0x11ED PUSH2 0x2292 JUMP JUMPDEST JUMPDEST DUP2 MSTORE POP POP CALLER DUP1 PUSH20 0xFFFFFFFFFFFFFFFFFFFFFFFFFFFFFFFFFFFFFFFF AND DUP3 PUSH1 0x0 ADD MLOAD PUSH20 0xFFFFFFFFFFFFFFFFFFFFFFFFFFFFFFFFFFFFFFFF AND EQ PUSH2 0x1265 JUMPI PUSH1 0x40 MLOAD PUSH32 0x8C379A000000000000000000000000000000000000000000000000000000000 DUP2 MSTORE PUSH1 0x4 ADD PUSH2 0x125C SWAP1 PUSH2 0x25F0 JUMP JUMPDEST PUSH1 0x40 MLOAD DUP1 SWAP2 SUB SWAP1 REVERT JUMPDEST PUSH1 0x2 DUP5 DUP2 SLOAD DUP2 LT PUSH2 0x1279 JUMPI PUSH2 0x1278 PUSH2 0x2481 JUMP JUMPDEST JUMPDEST SWAP1 PUSH1 0x0 MSTORE PUSH1 0x20 PUSH1 0x0 KECCAK256 SWAP1 PUSH1 0x4 MUL ADD PUSH1 0x0 ADD PUSH1 0x0 SWAP1 SLOAD SWAP1 PUSH2 0x100 EXP SWAP1 DIV PUSH20 0xFFFFFFFFFFFFFFFFFFFFFFFFFFFFFFFFFFFFFFFF AND PUSH20 0xFFFFFFFFFFFFFFFFFFFFFFFFFFFFFFFFFFFFFFFF AND PUSH2 0x8FC PUSH1 0x2 DUP7 DUP2 SLOAD DUP2 LT PUSH2 0x12D8 JUMPI PUSH2 0x12D7 PUSH2 0x2481 JUMP JUMPDEST JUMPDEST SWAP1 PUSH1 0x0 MSTORE PUSH1 0x20 PUSH1 0x0 KECCAK256 SWAP1 PUSH1 0x4 MUL ADD PUSH1 0x1 ADD SLOAD SWAP1 DUP2 ISZERO MUL SWAP1 PUSH1 0x40 MLOAD PUSH1 0x0 PUSH1 0x40 MLOAD DUP1 DUP4 SUB DUP2 DUP6 DUP9 DUP9 CALL SWAP4 POP POP POP POP ISZERO DUP1 ISZERO PUSH2 0x1315 JUMPI RETURNDATASIZE PUSH1 0x0 DUP1 RETURNDATACOPY RETURNDATASIZE PUSH1 0x0 REVERT JUMPDEST POP PUSH1 0x2 DUP5 DUP2 SLOAD DUP2 LT PUSH2 0x132A JUMPI PUSH2 0x1329 PUSH2 0x2481 JUMP JUMPDEST JUMPDEST SWAP1 PUSH1 0x0 MSTORE PUSH1 0x20 PUSH1 0x0 KECCAK256 SWAP1 PUSH1 0x4 MUL ADD PUSH1 0x0 DUP1 DUP3 ADD PUSH1 0x0 PUSH2 0x100 EXP DUP2 SLOAD SWAP1 PUSH20 0xFFFFFFFFFFFFFFFFFFFFFFFFFFFFFFFFFFFFFFFF MUL NOT AND SWAP1 SSTORE PUSH1 0x1 DUP3 ADD PUSH1 0x0 SWAP1 SSTORE PUSH1 0x2 DUP3 ADD PUSH1 0x0 SWAP1 SSTORE PUSH1 0x3 DUP3 ADD PUSH1 0x0 PUSH2 0x100 EXP DUP2 SLOAD SWAP1 PUSH1 0xFF MUL NOT AND SWAP1 SSTORE POP POP PUSH2 0x148B PUSH1 0x2 DUP1 SLOAD DUP1 PUSH1 0x20 MUL PUSH1 0x20 ADD PUSH1 0x40 MLOAD SWAP1 DUP2 ADD PUSH1 0x40 MSTORE DUP1 SWAP3 SWAP2 SWAP1 DUP2 DUP2 MSTORE PUSH1 0x20 ADD PUSH1 0x0 SWAP1 JUMPDEST DUP3 DUP3 LT ISZERO PUSH2 0x1482 JUMPI DUP4 DUP3 SWAP1 PUSH1 0x0 MSTORE PUSH1 0x20 PUSH1 0x0 KECCAK256 SWAP1 PUSH1 0x4 MUL ADD PUSH1 0x40 MLOAD DUP1 PUSH1 0x80 ADD PUSH1 0x40 MSTORE SWAP1 DUP2 PUSH1 0x0 DUP3 ADD PUSH1 0x0 SWAP1 SLOAD SWAP1 PUSH2 0x100 EXP SWAP1 DIV PUSH20 0xFFFFFFFFFFFFFFFFFFFFFFFFFFFFFFFFFFFFFFFF AND PUSH20 0xFFFFFFFFFFFFFFFFFFFFFFFFFFFFFFFFFFFFFFFF AND PUSH20 0xFFFFFFFFFFFFFFFFFFFFFFFFFFFFFFFFFFFFFFFF AND DUP2 MSTORE PUSH1 0x20 ADD PUSH1 0x1 DUP3 ADD SLOAD DUP2 MSTORE PUSH1 0x20 ADD PUSH1 0x2 DUP3 ADD SLOAD DUP2 MSTORE PUSH1 0x20 ADD PUSH1 0x3 DUP3 ADD PUSH1 0x0 SWAP1 SLOAD SWAP1 PUSH2 0x100 EXP SWAP1 DIV PUSH1 0xFF AND PUSH1 0x1 DUP2 GT ISZERO PUSH2 0x145D JUMPI PUSH2 0x145C PUSH2 0x2292 JUMP JUMPDEST JUMPDEST PUSH1 0x1 DUP2 GT ISZERO PUSH2 0x146F JUMPI PUSH2 0x146E PUSH2 0x2292 JUMP JUMPDEST JUMPDEST DUP2 MSTORE POP POP DUP2 MSTORE PUSH1 0x20 ADD SWAP1 PUSH1 0x1 ADD SWAP1 PUSH2 0x13AB JUMP JUMPDEST POP POP POP POP PUSH2 0xA22 JUMP JUMPDEST POP PUSH32 0xC845A6832AFA0A4048DD70BBBA2186093508A6B63A8D5D70A508F819FEF257F8 DUP5 PUSH1 0x40 MLOAD PUSH2 0x14BB SWAP2 SWAP1 PUSH2 0x2412 JUMP JUMPDEST PUSH1 0x40 MLOAD DUP1 SWAP2 SUB SWAP1 LOG1 POP POP POP POP JUMP JUMPDEST PUSH1 0x0 DUP2 LT ISZERO PUSH2 0x150D JUMPI PUSH1 0x40 MLOAD PUSH32 0x8C379A000000000000000000000000000000000000000000000000000000000 DUP2 MSTORE PUSH1 0x4 ADD PUSH2 0x1504 SWAP1 PUSH2 0x2690 JUMP JUMPDEST PUSH1 0x40 MLOAD DUP1 SWAP2 SUB SWAP1 REVERT JUMPDEST DUP1 CALLVALUE LT ISZERO PUSH2 0x1550 JUMPI PUSH1 0x40 MLOAD PUSH32 0x8C379A000000000000000000000000000000000000000000000000000000000 DUP2 MSTORE PUSH1 0x4 ADD PUSH2 0x1547 SWAP1 PUSH2 0x2888 JUMP JUMPDEST PUSH1 0x40 MLOAD DUP1 SWAP2 SUB SWAP1 REVERT JUMPDEST PUSH1 0x0 TIMESTAMP SWAP1 POP PUSH1 0x0 PUSH1 0x64 PUSH1 0x1 SLOAD PUSH1 0x64 PUSH2 0x1568 SWAP2 SWAP1 PUSH2 0x2610 JUMP JUMPDEST CALLVALUE PUSH2 0x1573 SWAP2 SWAP1 PUSH2 0x271C JUMP JUMPDEST PUSH2 0x157D SWAP2 SWAP1 PUSH2 0x27A5 JUMP JUMPDEST SWAP1 POP PUSH1 0x0 PUSH1 0x40 MLOAD DUP1 PUSH1 0x80 ADD PUSH1 0x40 MSTORE DUP1 CALLER PUSH20 0xFFFFFFFFFFFFFFFFFFFFFFFFFFFFFFFFFFFFFFFF AND DUP2 MSTORE PUSH1 0x20 ADD DUP4 DUP2 MSTORE PUSH1 0x20 ADD DUP5 DUP2 MSTORE PUSH1 0x20 ADD PUSH1 0x0 PUSH1 0x1 DUP2 GT ISZERO PUSH2 0x15C8 JUMPI PUSH2 0x15C7 PUSH2 0x2292 JUMP JUMPDEST JUMPDEST DUP2 MSTORE POP SWAP1 POP PUSH1 0x2 DUP2 SWAP1 DUP1 PUSH1 0x1 DUP2 SLOAD ADD DUP1 DUP3 SSTORE DUP1 SWAP2 POP POP PUSH1 0x1 SWAP1 SUB SWAP1 PUSH1 0x0 MSTORE PUSH1 0x20 PUSH1 0x0 KECCAK256 SWAP1 PUSH1 0x4 MUL ADD PUSH1 0x0 SWAP1 SWAP2 SWAP1 SWAP2 SWAP1 SWAP2 POP PUSH1 0x0 DUP3 ADD MLOAD DUP2 PUSH1 0x0 ADD PUSH1 0x0 PUSH2 0x100 EXP DUP2 SLOAD DUP2 PUSH20 0xFFFFFFFFFFFFFFFFFFFFFFFFFFFFFFFFFFFFFFFF MUL NOT AND SWAP1 DUP4 PUSH20 0xFFFFFFFFFFFFFFFFFFFFFFFFFFFFFFFFFFFFFFFF AND MUL OR SWAP1 SSTORE POP PUSH1 0x20 DUP3 ADD MLOAD DUP2 PUSH1 0x1 ADD SSTORE PUSH1 0x40 DUP3 ADD MLOAD DUP2 PUSH1 0x2 ADD SSTORE PUSH1 0x60 DUP3 ADD MLOAD DUP2 PUSH1 0x3 ADD PUSH1 0x0 PUSH2 0x100 EXP DUP2 SLOAD DUP2 PUSH1 0xFF MUL NOT AND SWAP1 DUP4 PUSH1 0x1 DUP2 GT ISZERO PUSH2 0x167F JUMPI PUSH2 0x167E PUSH2 0x2292 JUMP JUMPDEST JUMPDEST MUL OR SWAP1 SSTORE POP POP POP PUSH1 0x0 DUP1 SLOAD SWAP1 PUSH2 0x100 EXP SWAP1 DIV PUSH20 0xFFFFFFFFFFFFFFFFFFFFFFFFFFFFFFFFFFFFFFFF AND PUSH20 0xFFFFFFFFFFFFFFFFFFFFFFFFFFFFFFFFFFFFFFFF AND PUSH2 0x8FC DUP4 SWAP1 DUP2 ISZERO MUL SWAP1 PUSH1 0x40 MLOAD PUSH1 0x0 PUSH1 0x40 MLOAD DUP1 DUP4 SUB DUP2 DUP6 DUP9 DUP9 CALL SWAP4 POP POP POP POP ISZERO DUP1 ISZERO PUSH2 0x16EC JUMPI RETURNDATASIZE PUSH1 0x0 DUP1 RETURNDATACOPY RETURNDATASIZE PUSH1 0x0 REVERT JUMPDEST POP PUSH32 0xA64806D6D5D480697A0B11C92B915A4FF7B93C0BE28171D65D30041A0C360D04 CALLER DUP4 DUP6 PUSH1 0x0 PUSH1 0x40 MLOAD PUSH2 0x1723 SWAP5 SWAP4 SWAP3 SWAP2 SWAP1 PUSH2 0x27F7 JUMP JUMPDEST PUSH1 0x40 MLOAD DUP1 SWAP2 SUB SWAP1 LOG1 POP POP POP POP JUMP JUMPDEST PUSH1 0x0 PUSH1 0x2 DUP3 DUP2 SLOAD DUP2 LT PUSH2 0x1747 JUMPI PUSH2 0x1746 PUSH2 0x2481 JUMP JUMPDEST JUMPDEST SWAP1 PUSH1 0x0 MSTORE PUSH1 0x20 PUSH1 0x0 KECCAK256 SWAP1 PUSH1 0x4 MUL ADD PUSH1 0x3 ADD PUSH1 0x0 SWAP1 SLOAD SWAP1 PUSH2 0x100 EXP SWAP1 DIV PUSH1 0xFF AND SWAP1 POP SWAP2 SWAP1 POP JUMP JUMPDEST PUSH1 0x60 PUSH2 0x1874 PUSH1 0x3 DUP1 SLOAD DUP1 PUSH1 0x20 MUL PUSH1 0x20 ADD PUSH1 0x40 MLOAD SWAP1 DUP2 ADD PUSH1 0x40 MSTORE DUP1 SWAP3 SWAP2 SWAP1 DUP2 DUP2 MSTORE PUSH1 0x20 ADD PUSH1 0x0 SWAP1 JUMPDEST DUP3 DUP3 LT ISZERO PUSH2 0x186B JUMPI DUP4 DUP3 SWAP1 PUSH1 0x0 MSTORE PUSH1 0x20 PUSH1 0x0 KECCAK256 SWAP1 PUSH1 0x4 MUL ADD PUSH1 0x40 MLOAD DUP1 PUSH1 0x80 ADD PUSH1 0x40 MSTORE SWAP1 DUP2 PUSH1 0x0 DUP3 ADD PUSH1 0x0 SWAP1 SLOAD SWAP1 PUSH2 0x100 EXP SWAP1 DIV PUSH20 0xFFFFFFFFFFFFFFFFFFFFFFFFFFFFFFFFFFFFFFFF AND PUSH20 0xFFFFFFFFFFFFFFFFFFFFFFFFFFFFFFFFFFFFFFFF AND PUSH20 0xFFFFFFFFFFFFFFFFFFFFFFFFFFFFFFFFFFFFFFFF AND DUP2 MSTORE PUSH1 0x20 ADD PUSH1 0x1 DUP3 ADD SLOAD DUP2 MSTORE PUSH1 0x20 ADD PUSH1 0x2 DUP3 ADD SLOAD DUP2 MSTORE PUSH1 0x20 ADD PUSH1 0x3 DUP3 ADD PUSH1 0x0 SWAP1 SLOAD SWAP1 PUSH2 0x100 EXP SWAP1 DIV PUSH1 0xFF AND PUSH1 0x1 DUP2 GT ISZERO PUSH2 0x1846 JUMPI PUSH2 0x1845 PUSH2 0x2292 JUMP JUMPDEST JUMPDEST PUSH1 0x1 DUP2 GT ISZERO PUSH2 0x1858 JUMPI PUSH2 0x1857 PUSH2 0x2292 JUMP JUMPDEST JUMPDEST DUP2 MSTORE POP POP DUP2 MSTORE PUSH1 0x20 ADD SWAP1 PUSH1 0x1 ADD SWAP1 PUSH2 0x1794 JUMP JUMPDEST POP POP POP POP PUSH2 0xD09 JUMP JUMPDEST POP PUSH1 0x3 DUP1 SLOAD DUP1 PUSH1 0x20 MUL PUSH1 0x20 ADD PUSH1 0x40 MLOAD SWAP1 DUP2 ADD PUSH1 0x40 MSTORE DUP1 SWAP3 SWAP2 SWAP1 DUP2 DUP2 MSTORE PUSH1 0x20 ADD PUSH1 0x0 SWAP1 JUMPDEST DUP3 DUP3 LT ISZERO PUSH2 0x196E JUMPI DUP4 DUP3 SWAP1 PUSH1 0x0 MSTORE PUSH1 0x20 PUSH1 0x0 KECCAK256 SWAP1 PUSH1 0x4 MUL ADD PUSH1 0x40 MLOAD DUP1 PUSH1 0x80 ADD PUSH1 0x40 MSTORE SWAP1 DUP2 PUSH1 0x0 DUP3 ADD PUSH1 0x0 SWAP1 SLOAD SWAP1 PUSH2 0x100 EXP SWAP1 DIV PUSH20 0xFFFFFFFFFFFFFFFFFFFFFFFFFFFFFFFFFFFFFFFF AND PUSH20 0xFFFFFFFFFFFFFFFFFFFFFFFFFFFFFFFFFFFFFFFF AND PUSH20 0xFFFFFFFFFFFFFFFFFFFFFFFFFFFFFFFFFFFFFFFF AND DUP2 MSTORE PUSH1 0x20 ADD PUSH1 0x1 DUP3 ADD SLOAD DUP2 MSTORE PUSH1 0x20 ADD PUSH1 0x2 DUP3 ADD SLOAD DUP2 MSTORE PUSH1 0x20 ADD PUSH1 0x3 DUP3 ADD PUSH1 0x0 SWAP1 SLOAD SWAP1 PUSH2 0x100 EXP SWAP1 DIV PUSH1 0xFF AND PUSH1 0x1 DUP2 GT ISZERO PUSH2 0x1949 JUMPI PUSH2 0x1948 PUSH2 0x2292 JUMP JUMPDEST JUMPDEST PUSH1 0x1 DUP2 GT ISZERO PUSH2 0x195B JUMPI PUSH2 0x195A PUSH2 0x2292 JUMP JUMPDEST JUMPDEST DUP2 MSTORE POP POP DUP2 MSTORE PUSH1 0x20 ADD SWAP1 PUSH1 0x1 ADD SWAP1 PUSH2 0x1897 JUMP JUMPDEST POP POP POP POP SWAP1 POP SWAP1 JUMP JUMPDEST PUSH1 0x60 PUSH2 0x1981 PUSH2 0x1ACC JUMP JUMPDEST PUSH1 0x0 JUMPDEST PUSH1 0x2 DUP1 SLOAD SWAP1 POP DUP2 LT ISZERO PUSH2 0x1A46 JUMPI CALLER PUSH20 0xFFFFFFFFFFFFFFFFFFFFFFFFFFFFFFFFFFFFFFFF AND PUSH1 0x2 DUP3 DUP2 SLOAD DUP2 LT PUSH2 0x19BC JUMPI PUSH2 0x19BB PUSH2 0x2481 JUMP JUMPDEST JUMPDEST SWAP1 PUSH1 0x0 MSTORE PUSH1 0x20 PUSH1 0x0 KECCAK256 SWAP1 PUSH1 0x4 MUL ADD PUSH1 0x0 ADD PUSH1 0x0 SWAP1 SLOAD SWAP1 PUSH2 0x100 EXP SWAP1 DIV PUSH20 0xFFFFFFFFFFFFFFFFFFFFFFFFFFFFFFFFFFFFFFFF AND PUSH20 0xFFFFFFFFFFFFFFFFFFFFFFFFFFFFFFFFFFFFFFFF AND SUB PUSH2 0x1A33 JUMPI PUSH1 0x4 DUP2 SWAP1 DUP1 PUSH1 0x1 DUP2 SLOAD ADD DUP1 DUP3 SSTORE DUP1 SWAP2 POP POP PUSH1 0x1 SWAP1 SUB SWAP1 PUSH1 0x0 MSTORE PUSH1 0x20 PUSH1 0x0 KECCAK256 ADD PUSH1 0x0 SWAP1 SWAP2 SWAP1 SWAP2 SWAP1 SWAP2 POP SSTORE JUMPDEST DUP1 DUP1 PUSH2 0x1A3E SWAP1 PUSH2 0x24DF JUMP JUMPDEST SWAP2 POP POP PUSH2 0x1984 JUMP JUMPDEST POP PUSH1 0x4 DUP1 SLOAD DUP1 PUSH1 0x20 MUL PUSH1 0x20 ADD PUSH1 0x40 MLOAD SWAP1 DUP2 ADD PUSH1 0x40 MSTORE DUP1 SWAP3 SWAP2 SWAP1 DUP2 DUP2 MSTORE PUSH1 0x20 ADD DUP3 DUP1 SLOAD DUP1 ISZERO PUSH2 0x1A93 JUMPI PUSH1 0x20 MUL DUP3 ADD SWAP2 SWAP1 PUSH1 0x0 MSTORE PUSH1 0x20 PUSH1 0x0 KECCAK256 SWAP1 JUMPDEST DUP2 SLOAD DUP2 MSTORE PUSH1 0x20 ADD SWAP1 PUSH1 0x1 ADD SWAP1 DUP1 DUP4 GT PUSH2 0x1A7F JUMPI JUMPDEST POP POP POP POP POP SWAP1 POP SWAP1 JUMP JUMPDEST PUSH1 0x0 PUSH1 0x3 DUP3 DUP2 SLOAD DUP2 LT PUSH2 0x1AB3 JUMPI PUSH2 0x1AB2 PUSH2 0x2481 JUMP JUMPDEST JUMPDEST SWAP1 PUSH1 0x0 MSTORE PUSH1 0x20 PUSH1 0x0 KECCAK256 SWAP1 PUSH1 0x4 MUL ADD PUSH1 0x1 ADD SLOAD SWAP1 POP SWAP2 SWAP1 POP JUMP JUMPDEST PUSH1 0x0 JUMPDEST PUSH1 0x4 DUP1 SLOAD SWAP1 POP DUP2 LT ISZERO PUSH2 0x1B11 JUMPI PUSH1 0x4 DUP2 DUP2 SLOAD DUP2 LT PUSH2 0x1AF0 JUMPI PUSH2 0x1AEF PUSH2 0x2481 JUMP JUMPDEST JUMPDEST SWAP1 PUSH1 0x0 MSTORE PUSH1 0x20 PUSH1 0x0 KECCAK256 ADD PUSH1 0x0 SWAP1 SSTORE DUP1 DUP1 PUSH2 0x1B09 SWAP1 PUSH2 0x24DF JUMP JUMPDEST SWAP2 POP POP PUSH2 0x1ACF JUMP JUMPDEST POP JUMP JUMPDEST PUSH1 0x0 DUP3 SWAP1 POP PUSH1 0x0 DUP3 SWAP1 POP DUP1 DUP3 SUB PUSH2 0x1B2C JUMPI POP POP PUSH2 0x1CB4 JUMP JUMPDEST PUSH1 0x0 DUP6 PUSH1 0x2 DUP7 DUP7 PUSH2 0x1B3D SWAP2 SWAP1 PUSH2 0x28B2 JUMP JUMPDEST PUSH2 0x1B47 SWAP2 SWAP1 PUSH2 0x2946 JUMP JUMPDEST DUP7 PUSH2 0x1B52 SWAP2 SWAP1 PUSH2 0x29B0 JUMP JUMPDEST DUP2 MLOAD DUP2 LT PUSH2 0x1B63 JUMPI PUSH2 0x1B62 PUSH2 0x2481 JUMP JUMPDEST JUMPDEST PUSH1 0x20 MUL PUSH1 0x20 ADD ADD MLOAD PUSH1 0x20 ADD MLOAD SWAP1 POP JUMPDEST DUP2 DUP4 SGT PUSH2 0x1C88 JUMPI JUMPDEST DUP1 DUP7 DUP5 DUP2 MLOAD DUP2 LT PUSH2 0x1B8E JUMPI PUSH2 0x1B8D PUSH2 0x2481 JUMP JUMPDEST JUMPDEST PUSH1 0x20 MUL PUSH1 0x20 ADD ADD MLOAD PUSH1 0x20 ADD MLOAD LT ISZERO PUSH2 0x1BB3 JUMPI DUP3 DUP1 PUSH2 0x1BAB SWAP1 PUSH2 0x2A44 JUMP JUMPDEST SWAP4 POP POP PUSH2 0x1B7A JUMP JUMPDEST JUMPDEST DUP6 DUP3 DUP2 MLOAD DUP2 LT PUSH2 0x1BC7 JUMPI PUSH2 0x1BC6 PUSH2 0x2481 JUMP JUMPDEST JUMPDEST PUSH1 0x20 MUL PUSH1 0x20 ADD ADD MLOAD PUSH1 0x20 ADD MLOAD DUP2 LT ISZERO PUSH2 0x1BED JUMPI DUP2 DUP1 PUSH2 0x1BE5 SWAP1 PUSH2 0x2A8C JUMP JUMPDEST SWAP3 POP POP PUSH2 0x1BB4 JUMP JUMPDEST DUP2 DUP4 SGT PUSH2 0x1C83 JUMPI DUP6 DUP3 DUP2 MLOAD DUP2 LT PUSH2 0x1C07 JUMPI PUSH2 0x1C06 PUSH2 0x2481 JUMP JUMPDEST JUMPDEST PUSH1 0x20 MUL PUSH1 0x20 ADD ADD MLOAD DUP7 DUP5 DUP2 MLOAD DUP2 LT PUSH2 0x1C22 JUMPI PUSH2 0x1C21 PUSH2 0x2481 JUMP JUMPDEST JUMPDEST PUSH1 0x20 MUL PUSH1 0x20 ADD ADD MLOAD DUP8 DUP6 DUP2 MLOAD DUP2 LT PUSH2 0x1C3D JUMPI PUSH2 0x1C3C PUSH2 0x2481 JUMP JUMPDEST JUMPDEST PUSH1 0x20 MUL PUSH1 0x20 ADD ADD DUP9 DUP6 DUP2 MLOAD DUP2 LT PUSH2 0x1C57 JUMPI PUSH2 0x1C56 PUSH2 0x2481 JUMP JUMPDEST JUMPDEST PUSH1 0x20 MUL PUSH1 0x20 ADD ADD DUP3 SWAP1 MSTORE DUP3 SWAP1 MSTORE POP POP DUP3 DUP1 PUSH2 0x1C71 SWAP1 PUSH2 0x2A44 JUMP JUMPDEST SWAP4 POP POP DUP2 DUP1 PUSH2 0x1C7F SWAP1 PUSH2 0x2A8C JUMP JUMPDEST SWAP3 POP POP JUMPDEST PUSH2 0x1B72 JUMP JUMPDEST DUP2 DUP6 SLT ISZERO PUSH2 0x1C9C JUMPI PUSH2 0x1C9B DUP7 DUP7 DUP5 PUSH2 0x1B14 JUMP JUMPDEST JUMPDEST DUP4 DUP4 SLT ISZERO PUSH2 0x1CB0 JUMPI PUSH2 0x1CAF DUP7 DUP5 DUP7 PUSH2 0x1B14 JUMP JUMPDEST JUMPDEST POP POP POP JUMPDEST POP POP POP JUMP JUMPDEST PUSH1 0x0 DUP3 SWAP1 POP PUSH1 0x0 DUP3 SWAP1 POP DUP1 DUP3 SUB PUSH2 0x1CD1 JUMPI POP POP PUSH2 0x1E59 JUMP JUMPDEST PUSH1 0x0 DUP6 PUSH1 0x2 DUP7 DUP7 PUSH2 0x1CE2 SWAP2 SWAP1 PUSH2 0x28B2 JUMP JUMPDEST PUSH2 0x1CEC SWAP2 SWAP1 PUSH2 0x2946 JUMP JUMPDEST DUP7 PUSH2 0x1CF7 SWAP2 SWAP1 PUSH2 0x29B0 JUMP JUMPDEST DUP2 MLOAD DUP2 LT PUSH2 0x1D08 JUMPI PUSH2 0x1D07 PUSH2 0x2481 JUMP JUMPDEST JUMPDEST PUSH1 0x20 MUL PUSH1 0x20 ADD ADD MLOAD PUSH1 0x20 ADD MLOAD SWAP1 POP JUMPDEST DUP2 DUP4 SGT PUSH2 0x1E2D JUMPI JUMPDEST DUP1 DUP7 DUP5 DUP2 MLOAD DUP2 LT PUSH2 0x1D33 JUMPI PUSH2 0x1D32 PUSH2 0x2481 JUMP JUMPDEST JUMPDEST PUSH1 0x20 MUL PUSH1 0x20 ADD ADD MLOAD PUSH1 0x20 ADD MLOAD GT ISZERO PUSH2 0x1D58 JUMPI DUP3 DUP1 PUSH2 0x1D50 SWAP1 PUSH2 0x2A44 JUMP JUMPDEST SWAP4 POP POP PUSH2 0x1D1F JUMP JUMPDEST JUMPDEST DUP6 DUP3 DUP2 MLOAD DUP2 LT PUSH2 0x1D6C JUMPI PUSH2 0x1D6B PUSH2 0x2481 JUMP JUMPDEST JUMPDEST PUSH1 0x20 MUL PUSH1 0x20 ADD ADD MLOAD PUSH1 0x20 ADD MLOAD DUP2 GT ISZERO PUSH2 0x1D92 JUMPI DUP2 DUP1 PUSH2 0x1D8A SWAP1 PUSH2 0x2A8C JUMP JUMPDEST SWAP3 POP POP PUSH2 0x1D59 JUMP JUMPDEST DUP2 DUP4 SGT PUSH2 0x1E28 JUMPI DUP6 DUP3 DUP2 MLOAD DUP2 LT PUSH2 0x1DAC JUMPI PUSH2 0x1DAB PUSH2 0x2481 JUMP JUMPDEST JUMPDEST PUSH1 0x20 MUL PUSH1 0x20 ADD ADD MLOAD DUP7 DUP5 DUP2 MLOAD DUP2 LT PUSH2 0x1DC7 JUMPI PUSH2 0x1DC6 PUSH2 0x2481 JUMP JUMPDEST JUMPDEST PUSH1 0x20 MUL PUSH1 0x20 ADD ADD MLOAD DUP8 DUP6 DUP2 MLOAD DUP2 LT PUSH2 0x1DE2 JUMPI PUSH2 0x1DE1 PUSH2 0x2481 JUMP JUMPDEST JUMPDEST PUSH1 0x20 MUL PUSH1 0x20 ADD ADD DUP9 DUP6 DUP2 MLOAD DUP2 LT PUSH2 0x1DFC JUMPI PUSH2 0x1DFB PUSH2 0x2481 JUMP JUMPDEST JUMPDEST PUSH1 0x20 MUL PUSH1 0x20 ADD ADD DUP3 SWAP1 MSTORE DUP3 SWAP1 MSTORE POP POP DUP3 DUP1 PUSH2 0x1E16 SWAP1 PUSH2 0x2A44 JUMP JUMPDEST SWAP4 POP POP DUP2 DUP1 PUSH2 0x1E24 SWAP1 PUSH2 0x2A8C JUMP JUMPDEST SWAP3 POP POP JUMPDEST PUSH2 0x1D17 JUMP JUMPDEST DUP2 DUP6 SLT ISZERO PUSH2 0x1E41 JUMPI PUSH2 0x1E40 DUP7 DUP7 DUP5 PUSH2 0x1CB9 JUMP JUMPDEST JUMPDEST DUP4 DUP4 SLT ISZERO PUSH2 0x1E55 JUMPI PUSH2 0x1E54 DUP7 DUP5 DUP7 PUSH2 0x1CB9 JUMP JUMPDEST JUMPDEST POP POP POP JUMPDEST POP POP POP JUMP JUMPDEST PUSH1 0x0 DUP2 MLOAD SWAP1 POP SWAP2 SWAP1 POP JUMP JUMPDEST PUSH1 0x0 DUP3 DUP3 MSTORE PUSH1 0x20 DUP3 ADD SWAP1 POP SWAP3 SWAP2 POP POP JUMP JUMPDEST PUSH1 0x0 DUP2 SWAP1 POP PUSH1 0x20 DUP3 ADD SWAP1 POP SWAP2 SWAP1 POP JUMP JUMPDEST PUSH1 0x0 DUP2 SWAP1 POP SWAP2 SWAP1 POP JUMP JUMPDEST PUSH2 0x1E9D DUP2 PUSH2 0x1E8A JUMP JUMPDEST DUP3 MSTORE POP POP JUMP JUMPDEST PUSH1 0x0 PUSH2 0x1EAF DUP4 DUP4 PUSH2 0x1E94 JUMP JUMPDEST PUSH1 0x20 DUP4 ADD SWAP1 POP SWAP3 SWAP2 POP POP JUMP JUMPDEST PUSH1 0x0 PUSH1 0x20 DUP3 ADD SWAP1 POP SWAP2 SWAP1 POP JUMP JUMPDEST PUSH1 0x0 PUSH2 0x1ED3 DUP3 PUSH2 0x1E5E JUMP JUMPDEST PUSH2 0x1EDD DUP2 DUP6 PUSH2 0x1E69 JUMP JUMPDEST SWAP4 POP PUSH2 0x1EE8 DUP4 PUSH2 0x1E7A JUMP JUMPDEST DUP1 PUSH1 0x0 JUMPDEST DUP4 DUP2 LT ISZERO PUSH2 0x1F19 JUMPI DUP2 MLOAD PUSH2 0x1F00 DUP9 DUP3 PUSH2 0x1EA3 JUMP JUMPDEST SWAP8 POP PUSH2 0x1F0B DUP4 PUSH2 0x1EBB JUMP JUMPDEST SWAP3 POP POP PUSH1 0x1 DUP2 ADD SWAP1 POP PUSH2 0x1EEC JUMP JUMPDEST POP DUP6 SWAP4 POP POP POP POP SWAP3 SWAP2 POP POP JUMP JUMPDEST PUSH1 0x0 PUSH1 0x20 DUP3 ADD SWAP1 POP DUP2 DUP2 SUB PUSH1 0x0 DUP4 ADD MSTORE PUSH2 0x1F40 DUP2 DUP5 PUSH2 0x1EC8 JUMP JUMPDEST SWAP1 POP SWAP3 SWAP2 POP POP JUMP JUMPDEST PUSH1 0x0 PUSH1 0x40 MLOAD SWAP1 POP SWAP1 JUMP JUMPDEST PUSH1 0x0 DUP1 REVERT JUMPDEST PUSH1 0x0 DUP1 REVERT JUMPDEST PUSH2 0x1F65 DUP2 PUSH2 0x1E8A JUMP JUMPDEST DUP2 EQ PUSH2 0x1F70 JUMPI PUSH1 0x0 DUP1 REVERT JUMPDEST POP JUMP JUMPDEST PUSH1 0x0 DUP2 CALLDATALOAD SWAP1 POP PUSH2 0x1F82 DUP2 PUSH2 0x1F5C JUMP JUMPDEST SWAP3 SWAP2 POP POP JUMP JUMPDEST PUSH1 0x0 PUSH1 0x20 DUP3 DUP5 SUB SLT ISZERO PUSH2 0x1F9E JUMPI PUSH2 0x1F9D PUSH2 0x1F52 JUMP JUMPDEST JUMPDEST PUSH1 0x0 PUSH2 0x1FAC DUP5 DUP3 DUP6 ADD PUSH2 0x1F73 JUMP JUMPDEST SWAP2 POP POP SWAP3 SWAP2 POP POP JUMP JUMPDEST PUSH1 0x0 DUP1 REVERT JUMPDEST PUSH1 0x0 PUSH1 0x1F NOT PUSH1 0x1F DUP4 ADD AND SWAP1 POP SWAP2 SWAP1 POP JUMP JUMPDEST PUSH32 0x4E487B7100000000000000000000000000000000000000000000000000000000 PUSH1 0x0 MSTORE PUSH1 0x41 PUSH1 0x4 MSTORE PUSH1 0x24 PUSH1 0x0 REVERT JUMPDEST PUSH2 0x2003 DUP3 PUSH2 0x1FBA JUMP JUMPDEST DUP2 ADD DUP2 DUP2 LT PUSH8 0xFFFFFFFFFFFFFFFF DUP3 GT OR ISZERO PUSH2 0x2022 JUMPI PUSH2 0x2021 PUSH2 0x1FCB JUMP JUMPDEST JUMPDEST DUP1 PUSH1 0x40 MSTORE POP POP POP JUMP JUMPDEST PUSH1 0x0 PUSH2 0x2035 PUSH2 0x1F48 JUMP JUMPDEST SWAP1 POP PUSH2 0x2041 DUP3 DUP3 PUSH2 0x1FFA JUMP JUMPDEST SWAP2 SWAP1 POP JUMP JUMPDEST PUSH1 0x0 PUSH8 0xFFFFFFFFFFFFFFFF DUP3 GT ISZERO PUSH2 0x2061 JUMPI PUSH2 0x2060 PUSH2 0x1FCB JUMP JUMPDEST JUMPDEST PUSH1 0x20 DUP3 MUL SWAP1 POP PUSH1 0x20 DUP2 ADD SWAP1 POP SWAP2 SWAP1 POP JUMP JUMPDEST PUSH1 0x0 DUP1 REVERT JUMPDEST PUSH1 0x0 DUP1 REVERT JUMPDEST PUSH1 0x0 PUSH20 0xFFFFFFFFFFFFFFFFFFFFFFFFFFFFFFFFFFFFFFFF DUP3 AND SWAP1 POP SWAP2 SWAP1 POP JUMP JUMPDEST PUSH1 0x0 PUSH2 0x20A7 DUP3 PUSH2 0x207C JUMP JUMPDEST SWAP1 POP SWAP2 SWAP1 POP JUMP JUMPDEST PUSH2 0x20B7 DUP2 PUSH2 0x209C JUMP JUMPDEST DUP2 EQ PUSH2 0x20C2 JUMPI PUSH1 0x0 DUP1 REVERT JUMPDEST POP JUMP JUMPDEST PUSH1 0x0 DUP2 CALLDATALOAD SWAP1 POP PUSH2 0x20D4 DUP2 PUSH2 0x20AE JUMP JUMPDEST SWAP3 SWAP2 POP POP JUMP JUMPDEST PUSH1 0x2 DUP2 LT PUSH2 0x20E7 JUMPI PUSH1 0x0 DUP1 REVERT JUMPDEST POP JUMP JUMPDEST PUSH1 0x0 DUP2 CALLDATALOAD SWAP1 POP PUSH2 0x20F9 DUP2 PUSH2 0x20DA JUMP JUMPDEST SWAP3 SWAP2 POP POP JUMP JUMPDEST PUSH1 0x0 PUSH1 0x80 DUP3 DUP5 SUB SLT ISZERO PUSH2 0x2115 JUMPI PUSH2 0x2114 PUSH2 0x2077 JUMP JUMPDEST JUMPDEST PUSH2 0x211F PUSH1 0x80 PUSH2 0x202B JUMP JUMPDEST SWAP1 POP PUSH1 0x0 PUSH2 0x212F DUP5 DUP3 DUP6 ADD PUSH2 0x20C5 JUMP JUMPDEST PUSH1 0x0 DUP4 ADD MSTORE POP PUSH1 0x20 PUSH2 0x2143 DUP5 DUP3 DUP6 ADD PUSH2 0x1F73 JUMP JUMPDEST PUSH1 0x20 DUP4 ADD MSTORE POP PUSH1 0x40 PUSH2 0x2157 DUP5 DUP3 DUP6 ADD PUSH2 0x1F73 JUMP JUMPDEST PUSH1 0x40 DUP4 ADD MSTORE POP PUSH1 0x60 PUSH2 0x216B DUP5 DUP3 DUP6 ADD PUSH2 0x20EA JUMP JUMPDEST PUSH1 0x60 DUP4 ADD MSTORE POP SWAP3 SWAP2 POP POP JUMP JUMPDEST PUSH1 0x0 PUSH2 0x218A PUSH2 0x2185 DUP5 PUSH2 0x2046 JUMP JUMPDEST PUSH2 0x202B JUMP JUMPDEST SWAP1 POP DUP1 DUP4 DUP3 MSTORE PUSH1 0x20 DUP3 ADD SWAP1 POP PUSH1 0x80 DUP5 MUL DUP4 ADD DUP6 DUP2 GT ISZERO PUSH2 0x21AD JUMPI PUSH2 0x21AC PUSH2 0x2072 JUMP JUMPDEST JUMPDEST DUP4 JUMPDEST DUP2 DUP2 LT ISZERO PUSH2 0x21D6 JUMPI DUP1 PUSH2 0x21C2 DUP9 DUP3 PUSH2 0x20FF JUMP JUMPDEST DUP5 MSTORE PUSH1 0x20 DUP5 ADD SWAP4 POP POP PUSH1 0x80 DUP2 ADD SWAP1 POP PUSH2 0x21AF JUMP JUMPDEST POP POP POP SWAP4 SWAP3 POP POP POP JUMP JUMPDEST PUSH1 0x0 DUP3 PUSH1 0x1F DUP4 ADD SLT PUSH2 0x21F5 JUMPI PUSH2 0x21F4 PUSH2 0x1FB5 JUMP JUMPDEST JUMPDEST DUP2 CALLDATALOAD PUSH2 0x2205 DUP5 DUP3 PUSH1 0x20 DUP7 ADD PUSH2 0x2177 JUMP JUMPDEST SWAP2 POP POP SWAP3 SWAP2 POP POP JUMP JUMPDEST PUSH1 0x0 PUSH1 0x20 DUP3 DUP5 SUB SLT ISZERO PUSH2 0x2224 JUMPI PUSH2 0x2223 PUSH2 0x1F52 JUMP JUMPDEST JUMPDEST PUSH1 0x0 DUP3 ADD CALLDATALOAD PUSH8 0xFFFFFFFFFFFFFFFF DUP2 GT ISZERO PUSH2 0x2242 JUMPI PUSH2 0x2241 PUSH2 0x1F57 JUMP JUMPDEST JUMPDEST PUSH2 0x224E DUP5 DUP3 DUP6 ADD PUSH2 0x21E0 JUMP JUMPDEST SWAP2 POP POP SWAP3 SWAP2 POP POP JUMP JUMPDEST PUSH1 0x0 DUP2 MLOAD SWAP1 POP SWAP2 SWAP1 POP JUMP JUMPDEST PUSH1 0x0 DUP3 DUP3 MSTORE PUSH1 0x20 DUP3 ADD SWAP1 POP SWAP3 SWAP2 POP POP JUMP JUMPDEST PUSH1 0x0 DUP2 SWAP1 POP PUSH1 0x20 DUP3 ADD SWAP1 POP SWAP2 SWAP1 POP JUMP JUMPDEST PUSH2 0x228C DUP2 PUSH2 0x209C JUMP JUMPDEST DUP3 MSTORE POP POP JUMP JUMPDEST PUSH32 0x4E487B7100000000000000000000000000000000000000000000000000000000 PUSH1 0x0 MSTORE PUSH1 0x21 PUSH1 0x4 MSTORE PUSH1 0x24 PUSH1 0x0 REVERT JUMPDEST PUSH1 0x2 DUP2 LT PUSH2 0x22D2 JUMPI PUSH2 0x22D1 PUSH2 0x2292 JUMP JUMPDEST JUMPDEST POP JUMP JUMPDEST PUSH1 0x0 DUP2 SWAP1 POP PUSH2 0x22E3 DUP3 PUSH2 0x22C1 JUMP JUMPDEST SWAP2 SWAP1 POP JUMP JUMPDEST PUSH1 0x0 PUSH2 0x22F3 DUP3 PUSH2 0x22D5 JUMP JUMPDEST SWAP1 POP SWAP2 SWAP1 POP JUMP JUMPDEST PUSH2 0x2303 DUP2 PUSH2 0x22E8 JUMP JUMPDEST DUP3 MSTORE POP POP JUMP JUMPDEST PUSH1 0x80 DUP3 ADD PUSH1 0x0 DUP3 ADD MLOAD PUSH2 0x231F PUSH1 0x0 DUP6 ADD DUP3 PUSH2 0x2283 JUMP JUMPDEST POP PUSH1 0x20 DUP3 ADD MLOAD PUSH2 0x2332 PUSH1 0x20 DUP6 ADD DUP3 PUSH2 0x1E94 JUMP JUMPDEST POP PUSH1 0x40 DUP3 ADD MLOAD PUSH2 0x2345 PUSH1 0x40 DUP6 ADD DUP3 PUSH2 0x1E94 JUMP JUMPDEST POP PUSH1 0x60 DUP3 ADD MLOAD PUSH2 0x2358 PUSH1 0x60 DUP6 ADD DUP3 PUSH2 0x22FA JUMP JUMPDEST POP POP POP POP JUMP JUMPDEST PUSH1 0x0 PUSH2 0x236A DUP4 DUP4 PUSH2 0x2309 JUMP JUMPDEST PUSH1 0x80 DUP4 ADD SWAP1 POP SWAP3 SWAP2 POP POP JUMP JUMPDEST PUSH1 0x0 PUSH1 0x20 DUP3 ADD SWAP1 POP SWAP2 SWAP1 POP JUMP JUMPDEST PUSH1 0x0 PUSH2 0x238E DUP3 PUSH2 0x2257 JUMP JUMPDEST PUSH2 0x2398 DUP2 DUP6 PUSH2 0x2262 JUMP JUMPDEST SWAP4 POP PUSH2 0x23A3 DUP4 PUSH2 0x2273 JUMP JUMPDEST DUP1 PUSH1 0x0 JUMPDEST DUP4 DUP2 LT ISZERO PUSH2 0x23D4 JUMPI DUP2 MLOAD PUSH2 0x23BB DUP9 DUP3 PUSH2 0x235E JUMP JUMPDEST SWAP8 POP PUSH2 0x23C6 DUP4 PUSH2 0x2376 JUMP JUMPDEST SWAP3 POP POP PUSH1 0x1 DUP2 ADD SWAP1 POP PUSH2 0x23A7 JUMP JUMPDEST POP DUP6 SWAP4 POP POP POP POP SWAP3 SWAP2 POP POP JUMP JUMPDEST PUSH1 0x0 PUSH1 0x20 DUP3 ADD SWAP1 POP DUP2 DUP2 SUB PUSH1 0x0 DUP4 ADD MSTORE PUSH2 0x23FB DUP2 DUP5 PUSH2 0x2383 JUMP JUMPDEST SWAP1 POP SWAP3 SWAP2 POP POP JUMP JUMPDEST PUSH2 0x240C DUP2 PUSH2 0x1E8A JUMP JUMPDEST DUP3 MSTORE POP POP JUMP JUMPDEST PUSH1 0x0 PUSH1 0x20 DUP3 ADD SWAP1 POP PUSH2 0x2427 PUSH1 0x0 DUP4 ADD DUP5 PUSH2 0x2403 JUMP JUMPDEST SWAP3 SWAP2 POP POP JUMP JUMPDEST PUSH2 0x2436 DUP2 PUSH2 0x22E8 JUMP JUMPDEST DUP3 MSTORE POP POP JUMP JUMPDEST PUSH1 0x0 PUSH1 0x20 DUP3 ADD SWAP1 POP PUSH2 0x2451 PUSH1 0x0 DUP4 ADD DUP5 PUSH2 0x242D JUMP JUMPDEST SWAP3 SWAP2 POP POP JUMP JUMPDEST PUSH2 0x2460 DUP2 PUSH2 0x209C JUMP JUMPDEST DUP3 MSTORE POP POP JUMP JUMPDEST PUSH1 0x0 PUSH1 0x20 DUP3 ADD SWAP1 POP PUSH2 0x247B PUSH1 0x0 DUP4 ADD DUP5 PUSH2 0x2457 JUMP JUMPDEST SWAP3 SWAP2 POP POP JUMP JUMPDEST PUSH32 0x4E487B7100000000000000000000000000000000000000000000000000000000 PUSH1 0x0 MSTORE PUSH1 0x32 PUSH1 0x4 MSTORE PUSH1 0x24 PUSH1 0x0 REVERT JUMPDEST PUSH32 0x4E487B7100000000000000000000000000000000000000000000000000000000 PUSH1 0x0 MSTORE PUSH1 0x11 PUSH1 0x4 MSTORE PUSH1 0x24 PUSH1 0x0 REVERT JUMPDEST PUSH1 0x0 PUSH2 0x24EA DUP3 PUSH2 0x1E8A JUMP JUMPDEST SWAP2 POP PUSH32 0xFFFFFFFFFFFFFFFFFFFFFFFFFFFFFFFFFFFFFFFFFFFFFFFFFFFFFFFFFFFFFFFF DUP3 SUB PUSH2 0x251C JUMPI PUSH2 0x251B PUSH2 0x24B0 JUMP JUMPDEST JUMPDEST PUSH1 0x1 DUP3 ADD SWAP1 POP SWAP2 SWAP1 POP JUMP JUMPDEST PUSH1 0x0 DUP3 DUP3 MSTORE PUSH1 0x20 DUP3 ADD SWAP1 POP SWAP3 SWAP2 POP POP JUMP JUMPDEST PUSH32 0x4F726465722050656E64696E6700000000000000000000000000000000000000 PUSH1 0x0 DUP3 ADD MSTORE POP JUMP JUMPDEST PUSH1 0x0 PUSH2 0x256E PUSH1 0xD DUP4 PUSH2 0x2527 JUMP JUMPDEST SWAP2 POP PUSH2 0x2579 DUP3 PUSH2 0x2538 JUMP JUMPDEST PUSH1 0x20 DUP3 ADD SWAP1 POP SWAP2 SWAP1 POP JUMP JUMPDEST PUSH1 0x0 PUSH1 0x20 DUP3 ADD SWAP1 POP DUP2 DUP2 SUB PUSH1 0x0 DUP4 ADD MSTORE PUSH2 0x259D DUP2 PUSH2 0x2561 JUMP JUMPDEST SWAP1 POP SWAP2 SWAP1 POP JUMP JUMPDEST PUSH32 0x4E6F7420417574686F7269736564000000000000000000000000000000000000 PUSH1 0x0 DUP3 ADD MSTORE POP JUMP JUMPDEST PUSH1 0x0 PUSH2 0x25DA PUSH1 0xE DUP4 PUSH2 0x2527 JUMP JUMPDEST SWAP2 POP PUSH2 0x25E5 DUP3 PUSH2 0x25A4 JUMP JUMPDEST PUSH1 0x20 DUP3 ADD SWAP1 POP SWAP2 SWAP1 POP JUMP JUMPDEST PUSH1 0x0 PUSH1 0x20 DUP3 ADD SWAP1 POP DUP2 DUP2 SUB PUSH1 0x0 DUP4 ADD MSTORE PUSH2 0x2609 DUP2 PUSH2 0x25CD JUMP JUMPDEST SWAP1 POP SWAP2 SWAP1 POP JUMP JUMPDEST PUSH1 0x0 PUSH2 0x261B DUP3 PUSH2 0x1E8A JUMP JUMPDEST SWAP2 POP PUSH2 0x2626 DUP4 PUSH2 0x1E8A JUMP JUMPDEST SWAP3 POP DUP3 DUP3 LT ISZERO PUSH2 0x2639 JUMPI PUSH2 0x2638 PUSH2 0x24B0 JUMP JUMPDEST JUMPDEST DUP3 DUP3 SUB SWAP1 POP SWAP3 SWAP2 POP POP JUMP JUMPDEST PUSH32 0x70726963652076616C7565206D757374206265206D6F7265207468616E203000 PUSH1 0x0 DUP3 ADD MSTORE POP JUMP JUMPDEST PUSH1 0x0 PUSH2 0x267A PUSH1 0x1F DUP4 PUSH2 0x2527 JUMP JUMPDEST SWAP2 POP PUSH2 0x2685 DUP3 PUSH2 0x2644 JUMP JUMPDEST PUSH1 0x20 DUP3 ADD SWAP1 POP SWAP2 SWAP1 POP JUMP JUMPDEST PUSH1 0x0 PUSH1 0x20 DUP3 ADD SWAP1 POP DUP2 DUP2 SUB PUSH1 0x0 DUP4 ADD MSTORE PUSH2 0x26A9 DUP2 PUSH2 0x266D JUMP JUMPDEST SWAP1 POP SWAP2 SWAP1 POP JUMP JUMPDEST PUSH32 0x4E6F7420656E6F75676820626C616E636520746F20706C6163652061736B0000 PUSH1 0x0 DUP3 ADD MSTORE POP JUMP JUMPDEST PUSH1 0x0 PUSH2 0x26E6 PUSH1 0x1E DUP4 PUSH2 0x2527 JUMP JUMPDEST SWAP2 POP PUSH2 0x26F1 DUP3 PUSH2 0x26B0 JUMP JUMPDEST PUSH1 0x20 DUP3 ADD SWAP1 POP SWAP2 SWAP1 POP JUMP JUMPDEST PUSH1 0x0 PUSH1 0x20 DUP3 ADD SWAP1 POP DUP2 DUP2 SUB PUSH1 0x0 DUP4 ADD MSTORE PUSH2 0x2715 DUP2 PUSH2 0x26D9 JUMP JUMPDEST SWAP1 POP SWAP2 SWAP1 POP JUMP JUMPDEST PUSH1 0x0 PUSH2 0x2727 DUP3 PUSH2 0x1E8A JUMP JUMPDEST SWAP2 POP PUSH2 0x2732 DUP4 PUSH2 0x1E8A JUMP JUMPDEST SWAP3 POP DUP2 PUSH32 0xFFFFFFFFFFFFFFFFFFFFFFFFFFFFFFFFFFFFFFFFFFFFFFFFFFFFFFFFFFFFFFFF DIV DUP4 GT DUP3 ISZERO ISZERO AND ISZERO PUSH2 0x276B JUMPI PUSH2 0x276A PUSH2 0x24B0 JUMP JUMPDEST JUMPDEST DUP3 DUP3 MUL SWAP1 POP SWAP3 SWAP2 POP POP JUMP JUMPDEST PUSH32 0x4E487B7100000000000000000000000000000000000000000000000000000000 PUSH1 0x0 MSTORE PUSH1 0x12 PUSH1 0x4 MSTORE PUSH1 0x24 PUSH1 0x0 REVERT JUMPDEST PUSH1 0x0 PUSH2 0x27B0 DUP3 PUSH2 0x1E8A JUMP JUMPDEST SWAP2 POP PUSH2 0x27BB DUP4 PUSH2 0x1E8A JUMP JUMPDEST SWAP3 POP DUP3 PUSH2 0x27CB JUMPI PUSH2 0x27CA PUSH2 0x2776 JUMP JUMPDEST JUMPDEST DUP3 DUP3 DIV SWAP1 POP SWAP3 SWAP2 POP POP JUMP JUMPDEST PUSH1 0x0 PUSH2 0x27E1 DUP3 PUSH2 0x207C JUMP JUMPDEST SWAP1 POP SWAP2 SWAP1 POP JUMP JUMPDEST PUSH2 0x27F1 DUP2 PUSH2 0x27D6 JUMP JUMPDEST DUP3 MSTORE POP POP JUMP JUMPDEST PUSH1 0x0 PUSH1 0x80 DUP3 ADD SWAP1 POP PUSH2 0x280C PUSH1 0x0 DUP4 ADD DUP8 PUSH2 0x27E8 JUMP JUMPDEST PUSH2 0x2819 PUSH1 0x20 DUP4 ADD DUP7 PUSH2 0x2403 JUMP JUMPDEST PUSH2 0x2826 PUSH1 0x40 DUP4 ADD DUP6 PUSH2 0x2403 JUMP JUMPDEST PUSH2 0x2833 PUSH1 0x60 DUP4 ADD DUP5 PUSH2 0x242D JUMP JUMPDEST SWAP6 SWAP5 POP POP POP POP POP JUMP JUMPDEST PUSH32 0x4E6F7420656E6F75676820626C616E636520746F20706C616365206269640000 PUSH1 0x0 DUP3 ADD MSTORE POP JUMP JUMPDEST PUSH1 0x0 PUSH2 0x2872 PUSH1 0x1E DUP4 PUSH2 0x2527 JUMP JUMPDEST SWAP2 POP PUSH2 0x287D DUP3 PUSH2 0x283C JUMP JUMPDEST PUSH1 0x20 DUP3 ADD SWAP1 POP SWAP2 SWAP1 POP JUMP JUMPDEST PUSH1 0x0 PUSH1 0x20 DUP3 ADD SWAP1 POP DUP2 DUP2 SUB PUSH1 0x0 DUP4 ADD MSTORE PUSH2 0x28A1 DUP2 PUSH2 0x2865 JUMP JUMPDEST SWAP1 POP SWAP2 SWAP1 POP JUMP JUMPDEST PUSH1 0x0 DUP2 SWAP1 POP SWAP2 SWAP1 POP JUMP JUMPDEST PUSH1 0x0 PUSH2 0x28BD DUP3 PUSH2 0x28A8 JUMP JUMPDEST SWAP2 POP PUSH2 0x28C8 DUP4 PUSH2 0x28A8 JUMP JUMPDEST SWAP3 POP DUP3 PUSH32 0x8000000000000000000000000000000000000000000000000000000000000000 ADD DUP3 SLT PUSH1 0x0 DUP5 SLT ISZERO AND ISZERO PUSH2 0x2903 JUMPI PUSH2 0x2902 PUSH2 0x24B0 JUMP JUMPDEST JUMPDEST DUP3 PUSH32 0x7FFFFFFFFFFFFFFFFFFFFFFFFFFFFFFFFFFFFFFFFFFFFFFFFFFFFFFFFFFFFFFF ADD DUP3 SGT PUSH1 0x0 DUP5 SLT AND ISZERO PUSH2 0x293B JUMPI PUSH2 0x293A PUSH2 0x24B0 JUMP JUMPDEST JUMPDEST DUP3 DUP3 SUB SWAP1 POP SWAP3 SWAP2 POP POP JUMP JUMPDEST PUSH1 0x0 PUSH2 0x2951 DUP3 PUSH2 0x28A8 JUMP JUMPDEST SWAP2 POP PUSH2 0x295C DUP4 PUSH2 0x28A8 JUMP JUMPDEST SWAP3 POP DUP3 PUSH2 0x296C JUMPI PUSH2 0x296B PUSH2 0x2776 JUMP JUMPDEST JUMPDEST PUSH1 0x1 PUSH1 0x0 SUB DUP4 EQ PUSH32 0x8000000000000000000000000000000000000000000000000000000000000000 DUP4 EQ AND ISZERO PUSH2 0x29A5 JUMPI PUSH2 0x29A4 PUSH2 0x24B0 JUMP JUMPDEST JUMPDEST DUP3 DUP3 SDIV SWAP1 POP SWAP3 SWAP2 POP POP JUMP JUMPDEST PUSH1 0x0 PUSH2 0x29BB DUP3 PUSH2 0x28A8 JUMP JUMPDEST SWAP2 POP PUSH2 0x29C6 DUP4 PUSH2 0x28A8 JUMP JUMPDEST SWAP3 POP DUP2 PUSH32 0x7FFFFFFFFFFFFFFFFFFFFFFFFFFFFFFFFFFFFFFFFFFFFFFFFFFFFFFFFFFFFFFF SUB DUP4 SGT PUSH1 0x0 DUP4 SLT ISZERO AND ISZERO PUSH2 0x2A01 JUMPI PUSH2 0x2A00 PUSH2 0x24B0 JUMP JUMPDEST JUMPDEST DUP2 PUSH32 0x8000000000000000000000000000000000000000000000000000000000000000 SUB DUP4 SLT PUSH1 0x0 DUP4 SLT AND ISZERO PUSH2 0x2A39 JUMPI PUSH2 0x2A38 PUSH2 0x24B0 JUMP JUMPDEST JUMPDEST DUP3 DUP3 ADD SWAP1 POP SWAP3 SWAP2 POP POP JUMP JUMPDEST PUSH1 0x0 PUSH2 0x2A4F DUP3 PUSH2 0x28A8 JUMP JUMPDEST SWAP2 POP PUSH32 0x7FFFFFFFFFFFFFFFFFFFFFFFFFFFFFFFFFFFFFFFFFFFFFFFFFFFFFFFFFFFFFFF DUP3 SUB PUSH2 0x2A81 JUMPI PUSH2 0x2A80 PUSH2 0x24B0 JUMP JUMPDEST JUMPDEST PUSH1 0x1 DUP3 ADD SWAP1 POP SWAP2 SWAP1 POP JUMP JUMPDEST PUSH1 0x0 PUSH2 0x2A97 DUP3 PUSH2 0x28A8 JUMP JUMPDEST SWAP2 POP PUSH32 0x8000000000000000000000000000000000000000000000000000000000000000 DUP3 SUB PUSH2 0x2AC9 JUMPI PUSH2 0x2AC8 PUSH2 0x24B0 JUMP JUMPDEST JUMPDEST PUSH1 0x1 DUP3 SUB SWAP1 POP SWAP2 SWAP1 POP JUMP INVALID LOG2 PUSH5 0x6970667358 0x22 SLT KECCAK256 DUP14 OR MSTORE 0xAA 0xC8 0xF6 0xCE MOD 0xE4 0xD7 0xF8 CODESIZE GAS CREATE DUP14 PUSH8 0x59F71CDBE0B74781 DUP2 0xBE 0x2A KECCAK256 0xD4 MSTORE8 0xDE STOP PUSH5 0x736F6C6343 STOP ADDMOD 0xD STOP CALLER "
				},
				"gasEstimates": {
					"creation": {
						"codeDepositCost": "2203600",
						"executionCost": "infinite",
						"totalCost": "infinite"
					},
					"external": {
						"cancelAsk(uint256)": "infinite",
						"cancelBid(uint256)": "infinite",
						"fetchAllAsk()": "infinite",
						"fetchAllBid()": "infinite",
						"fetchYourAskIds()": "infinite",
						"fetchYourBidIds()": "infinite",
						"getAskAddress(uint256)": "5007",
						"getAskState(uint256)": "5075",
						"getAskValue(uint256)": "infinite",
						"getBidAddress(uint256)": "5051",
						"getBidState(uint256)": "5052",
						"getBidValue(uint256)": "infinite",
						"placeAsk(uint256)": "infinite",
						"placeBid(uint256)": "infinite",
						"sortAsk((address,uint256,uint256,uint8)[])": "infinite",
						"sortBid((address,uint256,uint256,uint8)[])": "infinite"
					},
					"internal": {
						"ascendingQuickSort(struct OrderBook.order memory[] memory,int256,int256)": "infinite",
						"deleteArray()": "infinite",
						"descendingQuickSort(struct OrderBook.order memory[] memory,int256,int256)": "infinite"
					}
				},
				"methodIdentifiers": {
					"cancelAsk(uint256)": "1628e0f5",
					"cancelBid(uint256)": "9703ef35",
					"fetchAllAsk()": "c5374af2",
					"fetchAllBid()": "4471417f",
					"fetchYourAskIds()": "122de8f2",
					"fetchYourBidIds()": "ce0cdc87",
					"getAskAddress(uint256)": "734a2e78",
					"getAskState(uint256)": "4d46712d",
					"getAskValue(uint256)": "db3a1396",
					"getBidAddress(uint256)": "69f632e2",
					"getBidState(uint256)": "bf77ffae",
					"getBidValue(uint256)": "2db6dfa7",
					"placeAsk(uint256)": "78c5b268",
					"placeBid(uint256)": "9979ef45",
					"sortAsk((address,uint256,uint256,uint8)[])": "6ec48ce0",
					"sortBid((address,uint256,uint256,uint8)[])": "2aaee28e"
				}
			},
			"storageLayout": {
				"storage": [
					{
						"astId": 11,
						"contract": "contracts/OrderBook.sol:OrderBook",
						"label": "_owner",
						"offset": 0,
						"slot": "0",
						"type": "t_address_payable"
					},
					{
						"astId": 13,
						"contract": "contracts/OrderBook.sol:OrderBook",
						"label": "commission",
						"offset": 0,
						"slot": "1",
						"type": "t_uint256"
					},
					{
						"astId": 37,
						"contract": "contracts/OrderBook.sol:OrderBook",
						"label": "bidBook",
						"offset": 0,
						"slot": "2",
						"type": "t_array(t_struct(order)33_storage)dyn_storage"
					},
					{
						"astId": 41,
						"contract": "contracts/OrderBook.sol:OrderBook",
						"label": "askBook",
						"offset": 0,
						"slot": "3",
						"type": "t_array(t_struct(order)33_storage)dyn_storage"
					},
					{
						"astId": 44,
						"contract": "contracts/OrderBook.sol:OrderBook",
						"label": "request",
						"offset": 0,
						"slot": "4",
						"type": "t_array(t_uint256)dyn_storage"
					}
				],
				"types": {
					"t_address_payable": {
						"encoding": "inplace",
						"label": "address payable",
						"numberOfBytes": "20"
					},
					"t_array(t_struct(order)33_storage)dyn_storage": {
						"base": "t_struct(order)33_storage",
						"encoding": "dynamic_array",
						"label": "struct OrderBook.order[]",
						"numberOfBytes": "32"
					},
					"t_array(t_uint256)dyn_storage": {
						"base": "t_uint256",
						"encoding": "dynamic_array",
						"label": "uint256[]",
						"numberOfBytes": "32"
					},
					"t_enum(State)4": {
						"encoding": "inplace",
						"label": "enum OrderBook.State",
						"numberOfBytes": "1"
					},
					"t_struct(order)33_storage": {
						"encoding": "inplace",
						"label": "struct OrderBook.order",
						"members": [
							{
								"astId": 25,
								"contract": "contracts/OrderBook.sol:OrderBook",
								"label": "customer",
								"offset": 0,
								"slot": "0",
								"type": "t_address_payable"
							},
							{
								"astId": 27,
								"contract": "contracts/OrderBook.sol:OrderBook",
								"label": "value",
								"offset": 0,
								"slot": "1",
								"type": "t_uint256"
							},
							{
								"astId": 29,
								"contract": "contracts/OrderBook.sol:OrderBook",
								"label": "timestamp",
								"offset": 0,
								"slot": "2",
								"type": "t_uint256"
							},
							{
								"astId": 32,
								"contract": "contracts/OrderBook.sol:OrderBook",
								"label": "state",
								"offset": 0,
								"slot": "3",
								"type": "t_enum(State)4"
							}
						],
						"numberOfBytes": "128"
					},
					"t_uint256": {
						"encoding": "inplace",
						"label": "uint256",
						"numberOfBytes": "32"
					}
				}
			},
			"userdoc": {
				"kind": "user",
				"methods": {},
				"version": 1
			}
		}
	}
}