{
	"contracts/OrderBook.sol": {
		"OrderBook": {
			"abi": [
				{
					"inputs": [
						{
							"internalType": "uint256",
							"name": "_commission",
							"type": "uint256"
						}
					],
					"stateMutability": "nonpayable",
					"type": "constructor"
				},
				{
					"anonymous": false,
					"inputs": [
						{
							"indexed": false,
							"internalType": "uint256",
							"name": "",
							"type": "uint256"
						},
						{
							"indexed": false,
							"internalType": "uint256",
							"name": "",
							"type": "uint256"
						}
					],
					"name": "askLink",
					"type": "event"
				},
				{
					"anonymous": false,
					"inputs": [
						{
							"indexed": false,
							"internalType": "uint256",
							"name": "",
							"type": "uint256"
						},
						{
							"indexed": false,
							"internalType": "uint256",
							"name": "",
							"type": "uint256"
						}
					],
					"name": "bidLink",
					"type": "event"
				},
				{
					"anonymous": false,
					"inputs": [
						{
							"indexed": false,
							"internalType": "uint256",
							"name": "",
							"type": "uint256"
						}
					],
					"name": "newHead",
					"type": "event"
				},
				{
					"anonymous": false,
					"inputs": [
						{
							"indexed": false,
							"internalType": "uint256",
							"name": "",
							"type": "uint256"
						}
					],
					"name": "newTail",
					"type": "event"
				},
				{
					"anonymous": false,
					"inputs": [
						{
							"indexed": false,
							"internalType": "address",
							"name": "",
							"type": "address"
						},
						{
							"indexed": false,
							"internalType": "uint256",
							"name": "",
							"type": "uint256"
						},
						{
							"indexed": false,
							"internalType": "uint256",
							"name": "",
							"type": "uint256"
						},
						{
							"indexed": false,
							"internalType": "enum OrderBook.State",
							"name": "",
							"type": "uint8"
						},
						{
							"indexed": false,
							"internalType": "uint256",
							"name": "",
							"type": "uint256"
						},
						{
							"indexed": false,
							"internalType": "uint256",
							"name": "",
							"type": "uint256"
						},
						{
							"indexed": false,
							"internalType": "uint256",
							"name": "",
							"type": "uint256"
						},
						{
							"indexed": false,
							"internalType": "bool",
							"name": "",
							"type": "bool"
						}
					],
					"name": "orderCreated",
					"type": "event"
				},
				{
					"inputs": [
						{
							"internalType": "uint256",
							"name": "a",
							"type": "uint256"
						},
						{
							"internalType": "bytes32",
							"name": "b",
							"type": "bytes32"
						}
					],
					"name": "AppendString",
					"outputs": [
						{
							"internalType": "string",
							"name": "",
							"type": "string"
						}
					],
					"stateMutability": "pure",
					"type": "function"
				},
				{
					"inputs": [],
					"name": "askCount",
					"outputs": [
						{
							"internalType": "uint256",
							"name": "",
							"type": "uint256"
						}
					],
					"stateMutability": "view",
					"type": "function"
				},
				{
					"inputs": [],
					"name": "askHead",
					"outputs": [
						{
							"internalType": "uint256",
							"name": "",
							"type": "uint256"
						}
					],
					"stateMutability": "view",
					"type": "function"
				},
				{
					"inputs": [],
					"name": "askTail",
					"outputs": [
						{
							"internalType": "uint256",
							"name": "",
							"type": "uint256"
						}
					],
					"stateMutability": "view",
					"type": "function"
				},
				{
					"inputs": [],
					"name": "bidCount",
					"outputs": [
						{
							"internalType": "uint256",
							"name": "",
							"type": "uint256"
						}
					],
					"stateMutability": "view",
					"type": "function"
				},
				{
					"inputs": [],
					"name": "bidHead",
					"outputs": [
						{
							"internalType": "uint256",
							"name": "",
							"type": "uint256"
						}
					],
					"stateMutability": "view",
					"type": "function"
				},
				{
					"inputs": [],
					"name": "bidTail",
					"outputs": [
						{
							"internalType": "uint256",
							"name": "",
							"type": "uint256"
						}
					],
					"stateMutability": "view",
					"type": "function"
				},
				{
					"inputs": [
						{
							"internalType": "uint256",
							"name": "askId",
							"type": "uint256"
						}
					],
					"name": "cancelAsk",
					"outputs": [],
					"stateMutability": "nonpayable",
					"type": "function"
				},
				{
					"inputs": [
						{
							"internalType": "uint256",
							"name": "bidId",
							"type": "uint256"
						}
					],
					"name": "cancelBid",
					"outputs": [],
					"stateMutability": "nonpayable",
					"type": "function"
				},
				{
					"inputs": [],
					"name": "fetchAllBid",
					"outputs": [
						{
							"components": [
								{
									"internalType": "address payable",
									"name": "customer",
									"type": "address"
								},
								{
									"internalType": "uint256",
									"name": "value",
									"type": "uint256"
								},
								{
									"internalType": "uint256",
									"name": "timestamp",
									"type": "uint256"
								},
								{
									"internalType": "enum OrderBook.State",
									"name": "state",
									"type": "uint8"
								},
								{
									"internalType": "uint256",
									"name": "id",
									"type": "uint256"
								},
								{
									"internalType": "uint256",
									"name": "next",
									"type": "uint256"
								},
								{
									"internalType": "uint256",
									"name": "prev",
									"type": "uint256"
								}
							],
							"internalType": "struct OrderBook.order[]",
							"name": "",
							"type": "tuple[]"
						}
					],
					"stateMutability": "nonpayable",
					"type": "function"
				},
				{
					"inputs": [],
					"name": "fetchAsk",
					"outputs": [
						{
							"internalType": "string",
							"name": "",
							"type": "string"
						}
					],
					"stateMutability": "view",
					"type": "function"
				},
				{
					"inputs": [],
					"name": "fetchYourAskIds",
					"outputs": [
						{
							"internalType": "uint256[]",
							"name": "",
							"type": "uint256[]"
						}
					],
					"stateMutability": "nonpayable",
					"type": "function"
				},
				{
					"inputs": [],
					"name": "fetchYourBidIds",
					"outputs": [
						{
							"internalType": "uint256[]",
							"name": "",
							"type": "uint256[]"
						}
					],
					"stateMutability": "nonpayable",
					"type": "function"
				},
				{
					"inputs": [
						{
							"internalType": "uint256",
							"name": "id",
							"type": "uint256"
						}
					],
					"name": "getAskAddress",
					"outputs": [
						{
							"internalType": "address payable",
							"name": "",
							"type": "address"
						}
					],
					"stateMutability": "view",
					"type": "function"
				},
				{
					"inputs": [
						{
							"internalType": "uint256",
							"name": "id",
							"type": "uint256"
						}
					],
					"name": "getAskState",
					"outputs": [
						{
							"internalType": "enum OrderBook.State",
							"name": "",
							"type": "uint8"
						}
					],
					"stateMutability": "view",
					"type": "function"
				},
				{
					"inputs": [
						{
							"internalType": "uint256",
							"name": "id",
							"type": "uint256"
						}
					],
					"name": "getAskValue",
					"outputs": [
						{
							"internalType": "uint256",
							"name": "",
							"type": "uint256"
						}
					],
					"stateMutability": "view",
					"type": "function"
				},
				{
					"inputs": [
						{
							"internalType": "uint256",
							"name": "id",
							"type": "uint256"
						}
					],
					"name": "getBidAddress",
					"outputs": [
						{
							"internalType": "address payable",
							"name": "",
							"type": "address"
						}
					],
					"stateMutability": "view",
					"type": "function"
				},
				{
					"inputs": [
						{
							"internalType": "uint256",
							"name": "id",
							"type": "uint256"
						}
					],
					"name": "getBidState",
					"outputs": [
						{
							"internalType": "enum OrderBook.State",
							"name": "",
							"type": "uint8"
						}
					],
					"stateMutability": "view",
					"type": "function"
				},
				{
					"inputs": [
						{
							"internalType": "uint256",
							"name": "id",
							"type": "uint256"
						}
					],
					"name": "getBidValue",
					"outputs": [
						{
							"internalType": "uint256",
							"name": "",
							"type": "uint256"
						}
					],
					"stateMutability": "view",
					"type": "function"
				},
				{
					"inputs": [
						{
							"internalType": "uint256",
							"name": "id",
							"type": "uint256"
						}
					],
					"name": "getOrder",
					"outputs": [
						{
							"internalType": "address payable",
							"name": "",
							"type": "address"
						},
						{
							"internalType": "uint256",
							"name": "",
							"type": "uint256"
						},
						{
							"internalType": "uint256",
							"name": "",
							"type": "uint256"
						},
						{
							"internalType": "enum OrderBook.State",
							"name": "",
							"type": "uint8"
						},
						{
							"internalType": "uint256",
							"name": "",
							"type": "uint256"
						},
						{
							"internalType": "uint256",
							"name": "",
							"type": "uint256"
						},
						{
							"internalType": "uint256",
							"name": "",
							"type": "uint256"
						},
						{
							"internalType": "bool",
							"name": "",
							"type": "bool"
						}
					],
					"stateMutability": "view",
					"type": "function"
				},
				{
					"inputs": [
						{
							"internalType": "uint256",
							"name": "price",
							"type": "uint256"
						}
					],
					"name": "placeAsk",
					"outputs": [],
					"stateMutability": "payable",
					"type": "function"
				},
				{
					"inputs": [
						{
							"internalType": "uint256",
							"name": "price",
							"type": "uint256"
						}
					],
					"name": "placeBid",
					"outputs": [],
					"stateMutability": "payable",
					"type": "function"
				}
			],
			"devdoc": {
				"kind": "dev",
				"methods": {},
				"version": 1
			},
			"evm": {
				"assembly": "    /* \"contracts/OrderBook.sol\":1130:8933  contract OrderBook {... */\n  mstore(0x40, 0x80)\n    /* \"contracts/OrderBook.sol\":1333:1343  msg.sender */\n  caller\n    /* \"contracts/OrderBook.sol\":1300:1344  address payable _owner = payable(msg.sender) */\n  0x01\n  exp(0x0100, 0x00)\n  dup2\n  sload\n  dup2\n  0xffffffffffffffffffffffffffffffffffffffff\n  mul\n  not\n  and\n  swap1\n  dup4\n  0xffffffffffffffffffffffffffffffffffffffff\n  and\n  mul\n  or\n  swap1\n  sstore\n  pop\n    /* \"contracts/OrderBook.sol\":2323:2526  constructor (uint256 _commission) {... */\n  callvalue\n  dup1\n  iszero\n  tag_1\n  jumpi\n  0x00\n  dup1\n  revert\ntag_1:\n  pop\n  mload(0x40)\n  sub(codesize, bytecodeSize)\n  dup1\n  bytecodeSize\n  dup4\n  codecopy\n  dup2\n  dup2\n  add\n  0x40\n  mstore\n  dup2\n  add\n  swap1\n  tag_2\n  swap2\n  swap1\n  tag_3\n  jump\t// in\ntag_2:\n    /* \"contracts/OrderBook.sol\":2380:2391  _commission */\n  dup1\n    /* \"contracts/OrderBook.sol\":2367:2377  commission */\n  0x02\n    /* \"contracts/OrderBook.sol\":2367:2391  commission = _commission */\n  dup2\n  swap1\n  sstore\n  pop\n    /* \"contracts/OrderBook.sol\":2411:2412  0 */\n  0x00\n    /* \"contracts/OrderBook.sol\":2401:2408  bidHead */\n  0x04\n    /* \"contracts/OrderBook.sol\":2401:2412  bidHead = 0 */\n  dup2\n  swap1\n  sstore\n  pop\n    /* \"contracts/OrderBook.sol\":2432:2433  0 */\n  0x00\n    /* \"contracts/OrderBook.sol\":2422:2429  bidTail */\n  0x05\n    /* \"contracts/OrderBook.sol\":2422:2433  bidTail = 0 */\n  dup2\n  swap1\n  sstore\n  pop\n    /* \"contracts/OrderBook.sol\":2454:2455  0 */\n  0x00\n    /* \"contracts/OrderBook.sol\":2443:2451  bidCount */\n  0x06\n    /* \"contracts/OrderBook.sol\":2443:2455  bidCount = 0 */\n  dup2\n  swap1\n  sstore\n  pop\n    /* \"contracts/OrderBook.sol\":2475:2476  0 */\n  0x00\n    /* \"contracts/OrderBook.sol\":2465:2472  askHead */\n  0x08\n    /* \"contracts/OrderBook.sol\":2465:2476  askHead = 0 */\n  dup2\n  swap1\n  sstore\n  pop\n    /* \"contracts/OrderBook.sol\":2496:2497  0 */\n  0x00\n    /* \"contracts/OrderBook.sol\":2486:2493  askTail */\n  0x09\n    /* \"contracts/OrderBook.sol\":2486:2497  askTail = 0 */\n  dup2\n  swap1\n  sstore\n  pop\n    /* \"contracts/OrderBook.sol\":2518:2519  0 */\n  0x00\n    /* \"contracts/OrderBook.sol\":2507:2515  askCount */\n  0x0a\n    /* \"contracts/OrderBook.sol\":2507:2519  askCount = 0 */\n  dup2\n  swap1\n  sstore\n  pop\n    /* \"contracts/OrderBook.sol\":2323:2526  constructor (uint256 _commission) {... */\n  pop\n    /* \"contracts/OrderBook.sol\":1130:8933  contract OrderBook {... */\n  jump(tag_6)\n    /* \"#utility.yul\":88:205   */\ntag_8:\n    /* \"#utility.yul\":197:198   */\n  0x00\n    /* \"#utility.yul\":194:195   */\n  dup1\n    /* \"#utility.yul\":187:199   */\n  revert\n    /* \"#utility.yul\":334:411   */\ntag_10:\n    /* \"#utility.yul\":371:378   */\n  0x00\n    /* \"#utility.yul\":400:405   */\n  dup2\n    /* \"#utility.yul\":389:405   */\n  swap1\n  pop\n    /* \"#utility.yul\":334:411   */\n  swap2\n  swap1\n  pop\n  jump\t// out\n    /* \"#utility.yul\":417:539   */\ntag_11:\n    /* \"#utility.yul\":490:514   */\n  tag_19\n    /* \"#utility.yul\":508:513   */\n  dup2\n    /* \"#utility.yul\":490:514   */\n  tag_10\n  jump\t// in\ntag_19:\n    /* \"#utility.yul\":483:488   */\n  dup2\n    /* \"#utility.yul\":480:515   */\n  eq\n    /* \"#utility.yul\":470:533   */\n  tag_20\n  jumpi\n    /* \"#utility.yul\":529:530   */\n  0x00\n    /* \"#utility.yul\":526:527   */\n  dup1\n    /* \"#utility.yul\":519:531   */\n  revert\n    /* \"#utility.yul\":470:533   */\ntag_20:\n    /* \"#utility.yul\":417:539   */\n  pop\n  jump\t// out\n    /* \"#utility.yul\":545:688   */\ntag_12:\n    /* \"#utility.yul\":602:607   */\n  0x00\n    /* \"#utility.yul\":633:639   */\n  dup2\n    /* \"#utility.yul\":627:640   */\n  mload\n    /* \"#utility.yul\":618:640   */\n  swap1\n  pop\n    /* \"#utility.yul\":649:682   */\n  tag_22\n    /* \"#utility.yul\":676:681   */\n  dup2\n    /* \"#utility.yul\":649:682   */\n  tag_11\n  jump\t// in\ntag_22:\n    /* \"#utility.yul\":545:688   */\n  swap3\n  swap2\n  pop\n  pop\n  jump\t// out\n    /* \"#utility.yul\":694:1045   */\ntag_3:\n    /* \"#utility.yul\":764:770   */\n  0x00\n    /* \"#utility.yul\":813:815   */\n  0x20\n    /* \"#utility.yul\":801:810   */\n  dup3\n    /* \"#utility.yul\":792:799   */\n  dup5\n    /* \"#utility.yul\":788:811   */\n  sub\n    /* \"#utility.yul\":784:816   */\n  slt\n    /* \"#utility.yul\":781:900   */\n  iszero\n  tag_24\n  jumpi\n    /* \"#utility.yul\":819:898   */\n  tag_25\n  tag_8\n  jump\t// in\ntag_25:\n    /* \"#utility.yul\":781:900   */\ntag_24:\n    /* \"#utility.yul\":939:940   */\n  0x00\n    /* \"#utility.yul\":964:1028   */\n  tag_26\n    /* \"#utility.yul\":1020:1027   */\n  dup5\n    /* \"#utility.yul\":1011:1017   */\n  dup3\n    /* \"#utility.yul\":1000:1009   */\n  dup6\n    /* \"#utility.yul\":996:1018   */\n  add\n    /* \"#utility.yul\":964:1028   */\n  tag_12\n  jump\t// in\ntag_26:\n    /* \"#utility.yul\":954:1028   */\n  swap2\n  pop\n    /* \"#utility.yul\":910:1038   */\n  pop\n    /* \"#utility.yul\":694:1045   */\n  swap3\n  swap2\n  pop\n  pop\n  jump\t// out\n    /* \"contracts/OrderBook.sol\":1130:8933  contract OrderBook {... */\ntag_6:\n  dataSize(sub_0)\n  dup1\n  dataOffset(sub_0)\n  0x00\n  codecopy\n  0x00\n  return\nstop\n\nsub_0: assembly {\n        /* \"contracts/OrderBook.sol\":1130:8933  contract OrderBook {... */\n      mstore(0x40, 0x80)\n      jumpi(tag_1, lt(calldatasize, 0x04))\n      shr(0xe0, calldataload(0x00))\n      dup1\n      0x7bb51193\n      gt\n      tag_24\n      jumpi\n      dup1\n      0xb40a5627\n      gt\n      tag_25\n      jumpi\n      dup1\n      0xb40a5627\n      eq\n      tag_18\n      jumpi\n      dup1\n      0xbf77ffae\n      eq\n      tag_19\n      jumpi\n      dup1\n      0xce0cdc87\n      eq\n      tag_20\n      jumpi\n      dup1\n      0xd09ef241\n      eq\n      tag_21\n      jumpi\n      dup1\n      0xdb3a1396\n      eq\n      tag_22\n      jumpi\n      dup1\n      0xecdfb860\n      eq\n      tag_23\n      jumpi\n      jump(tag_1)\n    tag_25:\n      dup1\n      0x7bb51193\n      eq\n      tag_13\n      jumpi\n      dup1\n      0x801d9bbd\n      eq\n      tag_14\n      jumpi\n      dup1\n      0x9703ef35\n      eq\n      tag_15\n      jumpi\n      dup1\n      0x9979ef45\n      eq\n      tag_16\n      jumpi\n      dup1\n      0xa394fda7\n      eq\n      tag_17\n      jumpi\n      jump(tag_1)\n    tag_24:\n      dup1\n      0x4d46712d\n      gt\n      tag_26\n      jumpi\n      dup1\n      0x4d46712d\n      eq\n      tag_7\n      jumpi\n      dup1\n      0x69f632e2\n      eq\n      tag_8\n      jumpi\n      dup1\n      0x6e5b0f00\n      eq\n      tag_9\n      jumpi\n      dup1\n      0x734a2e78\n      eq\n      tag_10\n      jumpi\n      dup1\n      0x78c5b268\n      eq\n      tag_11\n      jumpi\n      dup1\n      0x79b2f70d\n      eq\n      tag_12\n      jumpi\n      jump(tag_1)\n    tag_26:\n      dup1\n      0x122de8f2\n      eq\n      tag_2\n      jumpi\n      dup1\n      0x1628e0f5\n      eq\n      tag_3\n      jumpi\n      dup1\n      0x2db6dfa7\n      eq\n      tag_4\n      jumpi\n      dup1\n      0x4471417f\n      eq\n      tag_5\n      jumpi\n      dup1\n      0x44e791e0\n      eq\n      tag_6\n      jumpi\n    tag_1:\n      0x00\n      dup1\n      revert\n        /* \"contracts/OrderBook.sol\":7850:7918  function fetchYourAskIds() public returns (uint256[] memory) {... */\n    tag_2:\n      callvalue\n      dup1\n      iszero\n      tag_27\n      jumpi\n      0x00\n      dup1\n      revert\n    tag_27:\n      pop\n      tag_28\n      tag_29\n      jump\t// in\n    tag_28:\n      mload(0x40)\n      tag_30\n      swap2\n      swap1\n      tag_31\n      jump\t// in\n    tag_30:\n      mload(0x40)\n      dup1\n      swap2\n      sub\n      swap1\n      return\n        /* \"contracts/OrderBook.sol\":7200:7492  function cancelAsk (uint256 askId) public isPending(askBook[askId]) isAuthorised(askBook[askId], msg.sender) {... */\n    tag_3:\n      callvalue\n      dup1\n      iszero\n      tag_32\n      jumpi\n      0x00\n      dup1\n      revert\n    tag_32:\n      pop\n      tag_33\n      0x04\n      dup1\n      calldatasize\n      sub\n      dup2\n      add\n      swap1\n      tag_34\n      swap2\n      swap1\n      tag_35\n      jump\t// in\n    tag_34:\n      tag_36\n      jump\t// in\n    tag_33:\n      stop\n        /* \"contracts/OrderBook.sol\":8500:8604  function getBidValue (uint256 id) public view returns(uint256) {... */\n    tag_4:\n      callvalue\n      dup1\n      iszero\n      tag_37\n      jumpi\n      0x00\n      dup1\n      revert\n    tag_37:\n      pop\n      tag_38\n      0x04\n      dup1\n      calldatasize\n      sub\n      dup2\n      add\n      swap1\n      tag_39\n      swap2\n      swap1\n      tag_35\n      jump\t// in\n    tag_39:\n      tag_40\n      jump\t// in\n    tag_38:\n      mload(0x40)\n      tag_41\n      swap2\n      swap1\n      tag_42\n      jump\t// in\n    tag_41:\n      mload(0x40)\n      dup1\n      swap2\n      sub\n      swap1\n      return\n        /* \"contracts/OrderBook.sol\":7707:7769  function fetchAllBid() public returns (order[] memory) {... */\n    tag_5:\n      callvalue\n      dup1\n      iszero\n      tag_43\n      jumpi\n      0x00\n      dup1\n      revert\n    tag_43:\n      pop\n      tag_44\n      tag_45\n      jump\t// in\n    tag_44:\n      mload(0x40)\n      tag_46\n      swap2\n      swap1\n      tag_47\n      jump\t// in\n    tag_46:\n      mload(0x40)\n      dup1\n      swap2\n      sub\n      swap1\n      return\n        /* \"contracts/OrderBook.sol\":7526:7701  function fetchAsk() public view returns (string memory) {... */\n    tag_6:\n      callvalue\n      dup1\n      iszero\n      tag_48\n      jumpi\n      0x00\n      dup1\n      revert\n    tag_48:\n      pop\n      tag_49\n      tag_50\n      jump\t// in\n    tag_49:\n      mload(0x40)\n      tag_51\n      swap2\n      swap1\n      tag_52\n      jump\t// in\n    tag_51:\n      mload(0x40)\n      dup1\n      swap2\n      sub\n      swap1\n      return\n        /* \"contracts/OrderBook.sol\":8828:8930  function getAskState (uint256 id) public view returns(State) {... */\n    tag_7:\n      callvalue\n      dup1\n      iszero\n      tag_53\n      jumpi\n      0x00\n      dup1\n      revert\n    tag_53:\n      pop\n      tag_54\n      0x04\n      dup1\n      calldatasize\n      sub\n      dup2\n      add\n      swap1\n      tag_55\n      swap2\n      swap1\n      tag_35\n      jump\t// in\n    tag_55:\n      tag_56\n      jump\t// in\n    tag_54:\n      mload(0x40)\n      tag_57\n      swap2\n      swap1\n      tag_58\n      jump\t// in\n    tag_57:\n      mload(0x40)\n      dup1\n      swap2\n      sub\n      swap1\n      return\n        /* \"contracts/OrderBook.sol\":8254:8371  function getBidAddress (uint256 id) public view returns(address payable) {... */\n    tag_8:\n      callvalue\n      dup1\n      iszero\n      tag_59\n      jumpi\n      0x00\n      dup1\n      revert\n    tag_59:\n      pop\n      tag_60\n      0x04\n      dup1\n      calldatasize\n      sub\n      dup2\n      add\n      swap1\n      tag_61\n      swap2\n      swap1\n      tag_35\n      jump\t// in\n    tag_61:\n      tag_62\n      jump\t// in\n    tag_60:\n      mload(0x40)\n      tag_63\n      swap2\n      swap1\n      tag_64\n      jump\t// in\n    tag_63:\n      mload(0x40)\n      dup1\n      swap2\n      sub\n      swap1\n      return\n        /* \"contracts/OrderBook.sol\":1797:1819  uint256 public bidHead */\n    tag_9:\n      callvalue\n      dup1\n      iszero\n      tag_65\n      jumpi\n      0x00\n      dup1\n      revert\n    tag_65:\n      pop\n      tag_66\n      tag_67\n      jump\t// in\n    tag_66:\n      mload(0x40)\n      tag_68\n      swap2\n      swap1\n      tag_42\n      jump\t// in\n    tag_68:\n      mload(0x40)\n      dup1\n      swap2\n      sub\n      swap1\n      return\n        /* \"contracts/OrderBook.sol\":8377:8494  function getAskAddress (uint256 id) public view returns(address payable) {... */\n    tag_10:\n      callvalue\n      dup1\n      iszero\n      tag_69\n      jumpi\n      0x00\n      dup1\n      revert\n    tag_69:\n      pop\n      tag_70\n      0x04\n      dup1\n      calldatasize\n      sub\n      dup2\n      add\n      swap1\n      tag_71\n      swap2\n      swap1\n      tag_35\n      jump\t// in\n    tag_71:\n      tag_72\n      jump\t// in\n    tag_70:\n      mload(0x40)\n      tag_73\n      swap2\n      swap1\n      tag_64\n      jump\t// in\n    tag_73:\n      mload(0x40)\n      dup1\n      swap2\n      sub\n      swap1\n      return\n        /* \"contracts/OrderBook.sol\":6790:7194  function placeAsk (uint256 price) public payable {... */\n    tag_11:\n      tag_74\n      0x04\n      dup1\n      calldatasize\n      sub\n      dup2\n      add\n      swap1\n      tag_75\n      swap2\n      swap1\n      tag_35\n      jump\t// in\n    tag_75:\n      tag_76\n      jump\t// in\n    tag_74:\n      stop\n        /* \"contracts/OrderBook.sol\":5758:5914  function AppendString(uint256 a, bytes32 b) public pure returns (string memory) {... */\n    tag_12:\n      callvalue\n      dup1\n      iszero\n      tag_77\n      jumpi\n      0x00\n      dup1\n      revert\n    tag_77:\n      pop\n      tag_78\n      0x04\n      dup1\n      calldatasize\n      sub\n      dup2\n      add\n      swap1\n      tag_79\n      swap2\n      swap1\n      tag_80\n      jump\t// in\n    tag_79:\n      tag_81\n      jump\t// in\n    tag_78:\n      mload(0x40)\n      tag_82\n      swap2\n      swap1\n      tag_52\n      jump\t// in\n    tag_82:\n      mload(0x40)\n      dup1\n      swap2\n      sub\n      swap1\n      return\n        /* \"contracts/OrderBook.sol\":1825:1847  uint256 public bidTail */\n    tag_13:\n      callvalue\n      dup1\n      iszero\n      tag_83\n      jumpi\n      0x00\n      dup1\n      revert\n    tag_83:\n      pop\n      tag_84\n      tag_85\n      jump\t// in\n    tag_84:\n      mload(0x40)\n      tag_86\n      swap2\n      swap1\n      tag_42\n      jump\t// in\n    tag_86:\n      mload(0x40)\n      dup1\n      swap2\n      sub\n      swap1\n      return\n        /* \"contracts/OrderBook.sol\":1970:1992  uint256 public askHead */\n    tag_14:\n      callvalue\n      dup1\n      iszero\n      tag_87\n      jumpi\n      0x00\n      dup1\n      revert\n    tag_87:\n      pop\n      tag_88\n      tag_89\n      jump\t// in\n    tag_88:\n      mload(0x40)\n      tag_90\n      swap2\n      swap1\n      tag_42\n      jump\t// in\n    tag_90:\n      mload(0x40)\n      dup1\n      swap2\n      sub\n      swap1\n      return\n        /* \"contracts/OrderBook.sol\":6527:6784  function cancelBid (uint256 bidId) public isPending(bidBook[bidId]) isAuthorised(bidBook[bidId], msg.sender) {... */\n    tag_15:\n      callvalue\n      dup1\n      iszero\n      tag_91\n      jumpi\n      0x00\n      dup1\n      revert\n    tag_91:\n      pop\n      tag_92\n      0x04\n      dup1\n      calldatasize\n      sub\n      dup2\n      add\n      swap1\n      tag_93\n      swap2\n      swap1\n      tag_35\n      jump\t// in\n    tag_93:\n      tag_94\n      jump\t// in\n    tag_92:\n      stop\n        /* \"contracts/OrderBook.sol\":5952:6521  function placeBid (uint256 price) public payable {... */\n    tag_16:\n      tag_95\n      0x04\n      dup1\n      calldatasize\n      sub\n      dup2\n      add\n      swap1\n      tag_96\n      swap2\n      swap1\n      tag_35\n      jump\t// in\n    tag_96:\n      tag_97\n      jump\t// in\n    tag_95:\n      stop\n        /* \"contracts/OrderBook.sol\":2026:2049  uint256 public askCount */\n    tag_17:\n      callvalue\n      dup1\n      iszero\n      tag_98\n      jumpi\n      0x00\n      dup1\n      revert\n    tag_98:\n      pop\n      tag_99\n      tag_100\n      jump\t// in\n    tag_99:\n      mload(0x40)\n      tag_101\n      swap2\n      swap1\n      tag_42\n      jump\t// in\n    tag_101:\n      mload(0x40)\n      dup1\n      swap2\n      sub\n      swap1\n      return\n        /* \"contracts/OrderBook.sol\":1853:1876  uint256 public bidCount */\n    tag_18:\n      callvalue\n      dup1\n      iszero\n      tag_102\n      jumpi\n      0x00\n      dup1\n      revert\n    tag_102:\n      pop\n      tag_103\n      tag_104\n      jump\t// in\n    tag_103:\n      mload(0x40)\n      tag_105\n      swap2\n      swap1\n      tag_42\n      jump\t// in\n    tag_105:\n      mload(0x40)\n      dup1\n      swap2\n      sub\n      swap1\n      return\n        /* \"contracts/OrderBook.sol\":8720:8822  function getBidState (uint256 id) public view returns(State) {... */\n    tag_19:\n      callvalue\n      dup1\n      iszero\n      tag_106\n      jumpi\n      0x00\n      dup1\n      revert\n    tag_106:\n      pop\n      tag_107\n      0x04\n      dup1\n      calldatasize\n      sub\n      dup2\n      add\n      swap1\n      tag_108\n      swap2\n      swap1\n      tag_35\n      jump\t// in\n    tag_108:\n      tag_109\n      jump\t// in\n    tag_107:\n      mload(0x40)\n      tag_110\n      swap2\n      swap1\n      tag_58\n      jump\t// in\n    tag_110:\n      mload(0x40)\n      dup1\n      swap2\n      sub\n      swap1\n      return\n        /* \"contracts/OrderBook.sol\":7776:7844  function fetchYourBidIds() public returns (uint256[] memory) {... */\n    tag_20:\n      callvalue\n      dup1\n      iszero\n      tag_111\n      jumpi\n      0x00\n      dup1\n      revert\n    tag_111:\n      pop\n      tag_112\n      tag_113\n      jump\t// in\n    tag_112:\n      mload(0x40)\n      tag_114\n      swap2\n      swap1\n      tag_31\n      jump\t// in\n    tag_114:\n      mload(0x40)\n      dup1\n      swap2\n      sub\n      swap1\n      return\n        /* \"contracts/OrderBook.sol\":7924:8248  function getOrder(uint256 id) public view returns(address payable,uint256,uint256,State,uint256,uint256,uint256,bool) {... */\n    tag_21:\n      callvalue\n      dup1\n      iszero\n      tag_115\n      jumpi\n      0x00\n      dup1\n      revert\n    tag_115:\n      pop\n      tag_116\n      0x04\n      dup1\n      calldatasize\n      sub\n      dup2\n      add\n      swap1\n      tag_117\n      swap2\n      swap1\n      tag_35\n      jump\t// in\n    tag_117:\n      tag_118\n      jump\t// in\n    tag_116:\n      mload(0x40)\n      tag_119\n      swap9\n      swap8\n      swap7\n      swap6\n      swap5\n      swap4\n      swap3\n      swap2\n      swap1\n      tag_120\n      jump\t// in\n    tag_119:\n      mload(0x40)\n      dup1\n      swap2\n      sub\n      swap1\n      return\n        /* \"contracts/OrderBook.sol\":8610:8714  function getAskValue (uint256 id) public view returns(uint256) {... */\n    tag_22:\n      callvalue\n      dup1\n      iszero\n      tag_121\n      jumpi\n      0x00\n      dup1\n      revert\n    tag_121:\n      pop\n      tag_122\n      0x04\n      dup1\n      calldatasize\n      sub\n      dup2\n      add\n      swap1\n      tag_123\n      swap2\n      swap1\n      tag_35\n      jump\t// in\n    tag_123:\n      tag_124\n      jump\t// in\n    tag_122:\n      mload(0x40)\n      tag_125\n      swap2\n      swap1\n      tag_42\n      jump\t// in\n    tag_125:\n      mload(0x40)\n      dup1\n      swap2\n      sub\n      swap1\n      return\n        /* \"contracts/OrderBook.sol\":1998:2020  uint256 public askTail */\n    tag_23:\n      callvalue\n      dup1\n      iszero\n      tag_126\n      jumpi\n      0x00\n      dup1\n      revert\n    tag_126:\n      pop\n      tag_127\n      tag_128\n      jump\t// in\n    tag_127:\n      mload(0x40)\n      tag_129\n      swap2\n      swap1\n      tag_42\n      jump\t// in\n    tag_129:\n      mload(0x40)\n      dup1\n      swap2\n      sub\n      swap1\n      return\n        /* \"contracts/OrderBook.sol\":7850:7918  function fetchYourAskIds() public returns (uint256[] memory) {... */\n    tag_29:\n        /* \"contracts/OrderBook.sol\":7893:7909  uint256[] memory */\n      0x60\n        /* \"contracts/OrderBook.sol\":7850:7918  function fetchYourAskIds() public returns (uint256[] memory) {... */\n      swap1\n      jump\t// out\n        /* \"contracts/OrderBook.sol\":7200:7492  function cancelAsk (uint256 askId) public isPending(askBook[askId]) isAuthorised(askBook[askId], msg.sender) {... */\n    tag_36:\n        /* \"contracts/OrderBook.sol\":7252:7259  askBook */\n      0x07\n        /* \"contracts/OrderBook.sol\":7252:7266  askBook[askId] */\n      0x00\n        /* \"contracts/OrderBook.sol\":7260:7265  askId */\n      dup3\n        /* \"contracts/OrderBook.sol\":7252:7266  askBook[askId] */\n      dup2\n      mstore\n      0x20\n      add\n      swap1\n      dup2\n      mstore\n      0x20\n      add\n      0x00\n      keccak256\n        /* \"contracts/OrderBook.sol\":2565:2688  modifier isPending(order memory _order) {... */\n      mload(0x40)\n      dup1\n      0xe0\n      add\n      0x40\n      mstore\n      swap1\n      dup2\n      0x00\n      dup3\n      add\n      0x00\n      swap1\n      sload\n      swap1\n      0x0100\n      exp\n      swap1\n      div\n      0xffffffffffffffffffffffffffffffffffffffff\n      and\n      0xffffffffffffffffffffffffffffffffffffffff\n      and\n      0xffffffffffffffffffffffffffffffffffffffff\n      and\n      dup2\n      mstore\n      0x20\n      add\n      0x01\n      dup3\n      add\n      sload\n      dup2\n      mstore\n      0x20\n      add\n      0x02\n      dup3\n      add\n      sload\n      dup2\n      mstore\n      0x20\n      add\n      0x03\n      dup3\n      add\n      0x00\n      swap1\n      sload\n      swap1\n      0x0100\n      exp\n      swap1\n      div\n      0xff\n      and\n      0x01\n      dup2\n      gt\n      iszero\n      tag_131\n      jumpi\n      tag_132\n      tag_133\n      jump\t// in\n    tag_132:\n    tag_131:\n      0x01\n      dup2\n      gt\n      iszero\n      tag_134\n      jumpi\n      tag_135\n      tag_133\n      jump\t// in\n    tag_135:\n    tag_134:\n      dup2\n      mstore\n      0x20\n      add\n      0x04\n      dup3\n      add\n      sload\n      dup2\n      mstore\n      0x20\n      add\n      0x05\n      dup3\n      add\n      sload\n      dup2\n      mstore\n      0x20\n      add\n      0x06\n      dup3\n      add\n      sload\n      dup2\n      mstore\n      pop\n      pop\n        /* \"contracts/OrderBook.sol\":2639:2652  State.pending */\n      0x00\n        /* \"contracts/OrderBook.sol\":2623:2652  _order.state == State.pending */\n      0x01\n      dup2\n      gt\n      iszero\n      tag_137\n      jumpi\n      tag_138\n      tag_133\n      jump\t// in\n    tag_138:\n    tag_137:\n        /* \"contracts/OrderBook.sol\":2623:2629  _order */\n      dup2\n        /* \"contracts/OrderBook.sol\":2623:2635  _order.state */\n      0x60\n      add\n      mload\n        /* \"contracts/OrderBook.sol\":2623:2652  _order.state == State.pending */\n      0x01\n      dup2\n      gt\n      iszero\n      tag_139\n      jumpi\n      tag_140\n      tag_133\n      jump\t// in\n    tag_140:\n    tag_139:\n      eq\n        /* \"contracts/OrderBook.sol\":2615:2670  require(_order.state == State.pending, \"Order Pending\") */\n      tag_141\n      jumpi\n      mload(0x40)\n      0x08c379a000000000000000000000000000000000000000000000000000000000\n      dup2\n      mstore\n      0x04\n      add\n      tag_142\n      swap1\n      tag_143\n      jump\t// in\n    tag_142:\n      mload(0x40)\n      dup1\n      swap2\n      sub\n      swap1\n      revert\n    tag_141:\n        /* \"contracts/OrderBook.sol\":7281:7288  askBook */\n      0x07\n        /* \"contracts/OrderBook.sol\":7281:7295  askBook[askId] */\n      0x00\n        /* \"contracts/OrderBook.sol\":7289:7294  askId */\n      dup4\n        /* \"contracts/OrderBook.sol\":7281:7295  askBook[askId] */\n      dup2\n      mstore\n      0x20\n      add\n      swap1\n      dup2\n      mstore\n      0x20\n      add\n      0x00\n      keccak256\n        /* \"contracts/OrderBook.sol\":2694:2833  modifier isAuthorised(order memory _order, address sender) {... */\n      mload(0x40)\n      dup1\n      0xe0\n      add\n      0x40\n      mstore\n      swap1\n      dup2\n      0x00\n      dup3\n      add\n      0x00\n      swap1\n      sload\n      swap1\n      0x0100\n      exp\n      swap1\n      div\n      0xffffffffffffffffffffffffffffffffffffffff\n      and\n      0xffffffffffffffffffffffffffffffffffffffff\n      and\n      0xffffffffffffffffffffffffffffffffffffffff\n      and\n      dup2\n      mstore\n      0x20\n      add\n      0x01\n      dup3\n      add\n      sload\n      dup2\n      mstore\n      0x20\n      add\n      0x02\n      dup3\n      add\n      sload\n      dup2\n      mstore\n      0x20\n      add\n      0x03\n      dup3\n      add\n      0x00\n      swap1\n      sload\n      swap1\n      0x0100\n      exp\n      swap1\n      div\n      0xff\n      and\n      0x01\n      dup2\n      gt\n      iszero\n      tag_144\n      jumpi\n      tag_145\n      tag_133\n      jump\t// in\n    tag_145:\n    tag_144:\n      0x01\n      dup2\n      gt\n      iszero\n      tag_146\n      jumpi\n      tag_147\n      tag_133\n      jump\t// in\n    tag_147:\n    tag_146:\n      dup2\n      mstore\n      0x20\n      add\n      0x04\n      dup3\n      add\n      sload\n      dup2\n      mstore\n      0x20\n      add\n      0x05\n      dup3\n      add\n      sload\n      dup2\n      mstore\n      0x20\n      add\n      0x06\n      dup3\n      add\n      sload\n      dup2\n      mstore\n      pop\n      pop\n        /* \"contracts/OrderBook.sol\":7297:7307  msg.sender */\n      caller\n        /* \"contracts/OrderBook.sol\":2790:2796  sender */\n      dup1\n        /* \"contracts/OrderBook.sol\":2771:2796  _order.customer == sender */\n      0xffffffffffffffffffffffffffffffffffffffff\n      and\n        /* \"contracts/OrderBook.sol\":2771:2777  _order */\n      dup3\n        /* \"contracts/OrderBook.sol\":2771:2786  _order.customer */\n      0x00\n      add\n      mload\n        /* \"contracts/OrderBook.sol\":2771:2796  _order.customer == sender */\n      0xffffffffffffffffffffffffffffffffffffffff\n      and\n      eq\n        /* \"contracts/OrderBook.sol\":2763:2815  require(_order.customer == sender, \"Not Authorised\") */\n      tag_149\n      jumpi\n      mload(0x40)\n      0x08c379a000000000000000000000000000000000000000000000000000000000\n      dup2\n      mstore\n      0x04\n      add\n      tag_150\n      swap1\n      tag_151\n      jump\t// in\n    tag_150:\n      mload(0x40)\n      dup1\n      swap2\n      sub\n      swap1\n      revert\n    tag_149:\n        /* \"contracts/OrderBook.sol\":2680:2681  _ */\n      pop\n      pop\n        /* \"contracts/OrderBook.sol\":7200:7492  function cancelAsk (uint256 askId) public isPending(askBook[askId]) isAuthorised(askBook[askId], msg.sender) {... */\n      pop\n      pop\n      jump\t// out\n        /* \"contracts/OrderBook.sol\":8500:8604  function getBidValue (uint256 id) public view returns(uint256) {... */\n    tag_40:\n        /* \"contracts/OrderBook.sol\":8554:8561  uint256 */\n      0x00\n        /* \"contracts/OrderBook.sol\":8580:8587  bidBook */\n      0x03\n        /* \"contracts/OrderBook.sol\":8580:8591  bidBook[id] */\n      0x00\n        /* \"contracts/OrderBook.sol\":8588:8590  id */\n      dup4\n        /* \"contracts/OrderBook.sol\":8580:8591  bidBook[id] */\n      dup2\n      mstore\n      0x20\n      add\n      swap1\n      dup2\n      mstore\n      0x20\n      add\n      0x00\n      keccak256\n        /* \"contracts/OrderBook.sol\":8580:8597  bidBook[id].value */\n      0x01\n      add\n      sload\n        /* \"contracts/OrderBook.sol\":8573:8597  return bidBook[id].value */\n      swap1\n      pop\n        /* \"contracts/OrderBook.sol\":8500:8604  function getBidValue (uint256 id) public view returns(uint256) {... */\n      swap2\n      swap1\n      pop\n      jump\t// out\n        /* \"contracts/OrderBook.sol\":7707:7769  function fetchAllBid() public returns (order[] memory) {... */\n    tag_45:\n        /* \"contracts/OrderBook.sol\":7746:7760  order[] memory */\n      0x60\n        /* \"contracts/OrderBook.sol\":7707:7769  function fetchAllBid() public returns (order[] memory) {... */\n      swap1\n      jump\t// out\n        /* \"contracts/OrderBook.sol\":7526:7701  function fetchAsk() public view returns (string memory) {... */\n    tag_50:\n        /* \"contracts/OrderBook.sol\":7567:7580  string memory */\n      0x60\n        /* \"contracts/OrderBook.sol\":7592:7607  uint256 current */\n      0x00\n        /* \"contracts/OrderBook.sol\":7610:7617  askHead */\n      sload(0x08)\n        /* \"contracts/OrderBook.sol\":7592:7617  uint256 current = askHead */\n      swap1\n      pop\n        /* \"contracts/OrderBook.sol\":7627:7647  string memory output */\n      0x00\n        /* \"contracts/OrderBook.sol\":7627:7652  string memory output = \"\" */\n      mload(0x40)\n      dup1\n      0x20\n      add\n      0x40\n      mstore\n      dup1\n      0x00\n      dup2\n      mstore\n      pop\n      swap1\n      pop\n        /* \"contracts/OrderBook.sol\":7662:7695  while (askHead != 0) {... */\n    tag_156:\n        /* \"contracts/OrderBook.sol\":7680:7681  0 */\n      0x00\n        /* \"contracts/OrderBook.sol\":7669:7676  askHead */\n      sload(0x08)\n        /* \"contracts/OrderBook.sol\":7669:7681  askHead != 0 */\n      sub\n        /* \"contracts/OrderBook.sol\":7662:7695  while (askHead != 0) {... */\n      tag_156\n      jumpi\n        /* \"contracts/OrderBook.sol\":7582:7701  {... */\n      pop\n      pop\n        /* \"contracts/OrderBook.sol\":7526:7701  function fetchAsk() public view returns (string memory) {... */\n      swap1\n      jump\t// out\n        /* \"contracts/OrderBook.sol\":8828:8930  function getAskState (uint256 id) public view returns(State) {... */\n    tag_56:\n        /* \"contracts/OrderBook.sol\":8882:8887  State */\n      0x00\n        /* \"contracts/OrderBook.sol\":8906:8913  askBook */\n      0x07\n        /* \"contracts/OrderBook.sol\":8906:8917  askBook[id] */\n      0x00\n        /* \"contracts/OrderBook.sol\":8914:8916  id */\n      dup4\n        /* \"contracts/OrderBook.sol\":8906:8917  askBook[id] */\n      dup2\n      mstore\n      0x20\n      add\n      swap1\n      dup2\n      mstore\n      0x20\n      add\n      0x00\n      keccak256\n        /* \"contracts/OrderBook.sol\":8906:8923  askBook[id].state */\n      0x03\n      add\n      0x00\n      swap1\n      sload\n      swap1\n      0x0100\n      exp\n      swap1\n      div\n      0xff\n      and\n        /* \"contracts/OrderBook.sol\":8899:8923  return askBook[id].state */\n      swap1\n      pop\n        /* \"contracts/OrderBook.sol\":8828:8930  function getAskState (uint256 id) public view returns(State) {... */\n      swap2\n      swap1\n      pop\n      jump\t// out\n        /* \"contracts/OrderBook.sol\":8254:8371  function getBidAddress (uint256 id) public view returns(address payable) {... */\n    tag_62:\n        /* \"contracts/OrderBook.sol\":8310:8325  address payable */\n      0x00\n        /* \"contracts/OrderBook.sol\":8344:8351  bidBook */\n      0x03\n        /* \"contracts/OrderBook.sol\":8344:8355  bidBook[id] */\n      0x00\n        /* \"contracts/OrderBook.sol\":8352:8354  id */\n      dup4\n        /* \"contracts/OrderBook.sol\":8344:8355  bidBook[id] */\n      dup2\n      mstore\n      0x20\n      add\n      swap1\n      dup2\n      mstore\n      0x20\n      add\n      0x00\n      keccak256\n        /* \"contracts/OrderBook.sol\":8344:8364  bidBook[id].customer */\n      0x00\n      add\n      0x00\n      swap1\n      sload\n      swap1\n      0x0100\n      exp\n      swap1\n      div\n      0xffffffffffffffffffffffffffffffffffffffff\n      and\n        /* \"contracts/OrderBook.sol\":8337:8364  return bidBook[id].customer */\n      swap1\n      pop\n        /* \"contracts/OrderBook.sol\":8254:8371  function getBidAddress (uint256 id) public view returns(address payable) {... */\n      swap2\n      swap1\n      pop\n      jump\t// out\n        /* \"contracts/OrderBook.sol\":1797:1819  uint256 public bidHead */\n    tag_67:\n      sload(0x04)\n      dup2\n      jump\t// out\n        /* \"contracts/OrderBook.sol\":8377:8494  function getAskAddress (uint256 id) public view returns(address payable) {... */\n    tag_72:\n        /* \"contracts/OrderBook.sol\":8433:8448  address payable */\n      0x00\n        /* \"contracts/OrderBook.sol\":8467:8474  askBook */\n      0x07\n        /* \"contracts/OrderBook.sol\":8467:8478  askBook[id] */\n      0x00\n        /* \"contracts/OrderBook.sol\":8475:8477  id */\n      dup4\n        /* \"contracts/OrderBook.sol\":8467:8478  askBook[id] */\n      dup2\n      mstore\n      0x20\n      add\n      swap1\n      dup2\n      mstore\n      0x20\n      add\n      0x00\n      keccak256\n        /* \"contracts/OrderBook.sol\":8467:8487  askBook[id].customer */\n      0x00\n      add\n      0x00\n      swap1\n      sload\n      swap1\n      0x0100\n      exp\n      swap1\n      div\n      0xffffffffffffffffffffffffffffffffffffffff\n      and\n        /* \"contracts/OrderBook.sol\":8460:8487  return askBook[id].customer */\n      swap1\n      pop\n        /* \"contracts/OrderBook.sol\":8377:8494  function getAskAddress (uint256 id) public view returns(address payable) {... */\n      swap2\n      swap1\n      pop\n      jump\t// out\n        /* \"contracts/OrderBook.sol\":6790:7194  function placeAsk (uint256 price) public payable {... */\n    tag_76:\n        /* \"contracts/OrderBook.sol\":6866:6867  0 */\n      0x00\n        /* \"contracts/OrderBook.sol\":6857:6862  price */\n      dup2\n        /* \"contracts/OrderBook.sol\":6857:6867  price >= 0 */\n      lt\n      iszero\n        /* \"contracts/OrderBook.sol\":6849:6903  require(price >= 0, \"price value must be more than 0\") */\n      tag_162\n      jumpi\n      mload(0x40)\n      0x08c379a000000000000000000000000000000000000000000000000000000000\n      dup2\n      mstore\n      0x04\n      add\n      tag_163\n      swap1\n      tag_164\n      jump\t// in\n    tag_163:\n      mload(0x40)\n      dup1\n      swap2\n      sub\n      swap1\n      revert\n    tag_162:\n        /* \"contracts/OrderBook.sol\":6934:6939  price */\n      dup1\n        /* \"contracts/OrderBook.sol\":6921:6930  msg.value */\n      callvalue\n        /* \"contracts/OrderBook.sol\":6921:6939  msg.value >= price */\n      lt\n      iszero\n        /* \"contracts/OrderBook.sol\":6913:6974  require(msg.value >= price, \"Not enough blance to place ask\") */\n      tag_165\n      jumpi\n      mload(0x40)\n      0x08c379a000000000000000000000000000000000000000000000000000000000\n      dup2\n      mstore\n      0x04\n      add\n      tag_166\n      swap1\n      tag_167\n      jump\t// in\n    tag_166:\n      mload(0x40)\n      dup1\n      swap2\n      sub\n      swap1\n      revert\n    tag_165:\n        /* \"contracts/OrderBook.sol\":6984:6996  uint256 time */\n      0x00\n        /* \"contracts/OrderBook.sol\":6999:7014  block.timestamp */\n      timestamp\n        /* \"contracts/OrderBook.sol\":6984:7014  uint256 time = block.timestamp */\n      swap1\n      pop\n        /* \"contracts/OrderBook.sol\":7024:7049  uint256 commissionedPrice */\n      0x00\n        /* \"contracts/OrderBook.sol\":7083:7086  100 */\n      0x64\n        /* \"contracts/OrderBook.sol\":7069:7079  commission */\n      sload(0x02)\n        /* \"contracts/OrderBook.sol\":7065:7068  100 */\n      0x64\n        /* \"contracts/OrderBook.sol\":7065:7079  100-commission */\n      tag_168\n      swap2\n      swap1\n      tag_169\n      jump\t// in\n    tag_168:\n        /* \"contracts/OrderBook.sol\":7052:7061  msg.value */\n      callvalue\n        /* \"contracts/OrderBook.sol\":7052:7080  msg.value * (100-commission) */\n      tag_170\n      swap2\n      swap1\n      tag_171\n      jump\t// in\n    tag_170:\n        /* \"contracts/OrderBook.sol\":7052:7086  msg.value * (100-commission) / 100 */\n      tag_172\n      swap2\n      swap1\n      tag_173\n      jump\t// in\n    tag_172:\n        /* \"contracts/OrderBook.sol\":7024:7086  uint256 commissionedPrice = msg.value * (100-commission) / 100 */\n      swap1\n      pop\n        /* \"contracts/OrderBook.sol\":7096:7115  order memory newAsk */\n      0x00\n        /* \"contracts/OrderBook.sol\":7118:7162  createAsk(msg.sender,time,commissionedPrice) */\n      tag_174\n        /* \"contracts/OrderBook.sol\":7128:7138  msg.sender */\n      caller\n        /* \"contracts/OrderBook.sol\":7139:7143  time */\n      dup5\n        /* \"contracts/OrderBook.sol\":7144:7161  commissionedPrice */\n      dup5\n        /* \"contracts/OrderBook.sol\":7118:7127  createAsk */\n      tag_175\n        /* \"contracts/OrderBook.sol\":7118:7162  createAsk(msg.sender,time,commissionedPrice) */\n      jump\t// in\n    tag_174:\n        /* \"contracts/OrderBook.sol\":7096:7162  order memory newAsk = createAsk(msg.sender,time,commissionedPrice) */\n      swap1\n      pop\n        /* \"contracts/OrderBook.sol\":7172:7187  sortAsk(newAsk) */\n      tag_176\n        /* \"contracts/OrderBook.sol\":7180:7186  newAsk */\n      dup2\n        /* \"contracts/OrderBook.sol\":7172:7179  sortAsk */\n      tag_177\n        /* \"contracts/OrderBook.sol\":7172:7187  sortAsk(newAsk) */\n      jump\t// in\n    tag_176:\n        /* \"contracts/OrderBook.sol\":6839:7194  {... */\n      pop\n      pop\n      pop\n        /* \"contracts/OrderBook.sol\":6790:7194  function placeAsk (uint256 price) public payable {... */\n      pop\n      jump\t// out\n        /* \"contracts/OrderBook.sol\":5758:5914  function AppendString(uint256 a, bytes32 b) public pure returns (string memory) {... */\n    tag_81:\n        /* \"contracts/OrderBook.sol\":5823:5836  string memory */\n      0x60\n        /* \"contracts/OrderBook.sol\":5883:5884  a */\n      dup3\n        /* \"contracts/OrderBook.sol\":5875:5885  bytes32(a) */\n      0x00\n      shl\n        /* \"contracts/OrderBook.sol\":5903:5904  b */\n      dup3\n        /* \"contracts/OrderBook.sol\":5862:5906  bytes.concat(bytes32(a), \" , \" , bytes32(b)) */\n      add(0x20, mload(0x40))\n      tag_179\n      swap3\n      swap2\n      swap1\n      tag_180\n      jump\t// in\n    tag_179:\n      mload(0x40)\n      0x20\n      dup2\n      dup4\n      sub\n      sub\n      dup2\n      mstore\n      swap1\n      0x40\n      mstore\n        /* \"contracts/OrderBook.sol\":5848:5907  return string(bytes.concat(bytes32(a), \" , \" , bytes32(b))) */\n      swap1\n      pop\n        /* \"contracts/OrderBook.sol\":5758:5914  function AppendString(uint256 a, bytes32 b) public pure returns (string memory) {... */\n      swap3\n      swap2\n      pop\n      pop\n      jump\t// out\n        /* \"contracts/OrderBook.sol\":1825:1847  uint256 public bidTail */\n    tag_85:\n      sload(0x05)\n      dup2\n      jump\t// out\n        /* \"contracts/OrderBook.sol\":1970:1992  uint256 public askHead */\n    tag_89:\n      sload(0x08)\n      dup2\n      jump\t// out\n        /* \"contracts/OrderBook.sol\":6527:6784  function cancelBid (uint256 bidId) public isPending(bidBook[bidId]) isAuthorised(bidBook[bidId], msg.sender) {... */\n    tag_94:\n        /* \"contracts/OrderBook.sol\":6579:6586  bidBook */\n      0x03\n        /* \"contracts/OrderBook.sol\":6579:6593  bidBook[bidId] */\n      0x00\n        /* \"contracts/OrderBook.sol\":6587:6592  bidId */\n      dup3\n        /* \"contracts/OrderBook.sol\":6579:6593  bidBook[bidId] */\n      dup2\n      mstore\n      0x20\n      add\n      swap1\n      dup2\n      mstore\n      0x20\n      add\n      0x00\n      keccak256\n        /* \"contracts/OrderBook.sol\":2565:2688  modifier isPending(order memory _order) {... */\n      mload(0x40)\n      dup1\n      0xe0\n      add\n      0x40\n      mstore\n      swap1\n      dup2\n      0x00\n      dup3\n      add\n      0x00\n      swap1\n      sload\n      swap1\n      0x0100\n      exp\n      swap1\n      div\n      0xffffffffffffffffffffffffffffffffffffffff\n      and\n      0xffffffffffffffffffffffffffffffffffffffff\n      and\n      0xffffffffffffffffffffffffffffffffffffffff\n      and\n      dup2\n      mstore\n      0x20\n      add\n      0x01\n      dup3\n      add\n      sload\n      dup2\n      mstore\n      0x20\n      add\n      0x02\n      dup3\n      add\n      sload\n      dup2\n      mstore\n      0x20\n      add\n      0x03\n      dup3\n      add\n      0x00\n      swap1\n      sload\n      swap1\n      0x0100\n      exp\n      swap1\n      div\n      0xff\n      and\n      0x01\n      dup2\n      gt\n      iszero\n      tag_181\n      jumpi\n      tag_182\n      tag_133\n      jump\t// in\n    tag_182:\n    tag_181:\n      0x01\n      dup2\n      gt\n      iszero\n      tag_183\n      jumpi\n      tag_184\n      tag_133\n      jump\t// in\n    tag_184:\n    tag_183:\n      dup2\n      mstore\n      0x20\n      add\n      0x04\n      dup3\n      add\n      sload\n      dup2\n      mstore\n      0x20\n      add\n      0x05\n      dup3\n      add\n      sload\n      dup2\n      mstore\n      0x20\n      add\n      0x06\n      dup3\n      add\n      sload\n      dup2\n      mstore\n      pop\n      pop\n        /* \"contracts/OrderBook.sol\":2639:2652  State.pending */\n      0x00\n        /* \"contracts/OrderBook.sol\":2623:2652  _order.state == State.pending */\n      0x01\n      dup2\n      gt\n      iszero\n      tag_186\n      jumpi\n      tag_187\n      tag_133\n      jump\t// in\n    tag_187:\n    tag_186:\n        /* \"contracts/OrderBook.sol\":2623:2629  _order */\n      dup2\n        /* \"contracts/OrderBook.sol\":2623:2635  _order.state */\n      0x60\n      add\n      mload\n        /* \"contracts/OrderBook.sol\":2623:2652  _order.state == State.pending */\n      0x01\n      dup2\n      gt\n      iszero\n      tag_188\n      jumpi\n      tag_189\n      tag_133\n      jump\t// in\n    tag_189:\n    tag_188:\n      eq\n        /* \"contracts/OrderBook.sol\":2615:2670  require(_order.state == State.pending, \"Order Pending\") */\n      tag_190\n      jumpi\n      mload(0x40)\n      0x08c379a000000000000000000000000000000000000000000000000000000000\n      dup2\n      mstore\n      0x04\n      add\n      tag_191\n      swap1\n      tag_143\n      jump\t// in\n    tag_191:\n      mload(0x40)\n      dup1\n      swap2\n      sub\n      swap1\n      revert\n    tag_190:\n        /* \"contracts/OrderBook.sol\":6608:6615  bidBook */\n      0x03\n        /* \"contracts/OrderBook.sol\":6608:6622  bidBook[bidId] */\n      0x00\n        /* \"contracts/OrderBook.sol\":6616:6621  bidId */\n      dup4\n        /* \"contracts/OrderBook.sol\":6608:6622  bidBook[bidId] */\n      dup2\n      mstore\n      0x20\n      add\n      swap1\n      dup2\n      mstore\n      0x20\n      add\n      0x00\n      keccak256\n        /* \"contracts/OrderBook.sol\":2694:2833  modifier isAuthorised(order memory _order, address sender) {... */\n      mload(0x40)\n      dup1\n      0xe0\n      add\n      0x40\n      mstore\n      swap1\n      dup2\n      0x00\n      dup3\n      add\n      0x00\n      swap1\n      sload\n      swap1\n      0x0100\n      exp\n      swap1\n      div\n      0xffffffffffffffffffffffffffffffffffffffff\n      and\n      0xffffffffffffffffffffffffffffffffffffffff\n      and\n      0xffffffffffffffffffffffffffffffffffffffff\n      and\n      dup2\n      mstore\n      0x20\n      add\n      0x01\n      dup3\n      add\n      sload\n      dup2\n      mstore\n      0x20\n      add\n      0x02\n      dup3\n      add\n      sload\n      dup2\n      mstore\n      0x20\n      add\n      0x03\n      dup3\n      add\n      0x00\n      swap1\n      sload\n      swap1\n      0x0100\n      exp\n      swap1\n      div\n      0xff\n      and\n      0x01\n      dup2\n      gt\n      iszero\n      tag_192\n      jumpi\n      tag_193\n      tag_133\n      jump\t// in\n    tag_193:\n    tag_192:\n      0x01\n      dup2\n      gt\n      iszero\n      tag_194\n      jumpi\n      tag_195\n      tag_133\n      jump\t// in\n    tag_195:\n    tag_194:\n      dup2\n      mstore\n      0x20\n      add\n      0x04\n      dup3\n      add\n      sload\n      dup2\n      mstore\n      0x20\n      add\n      0x05\n      dup3\n      add\n      sload\n      dup2\n      mstore\n      0x20\n      add\n      0x06\n      dup3\n      add\n      sload\n      dup2\n      mstore\n      pop\n      pop\n        /* \"contracts/OrderBook.sol\":6624:6634  msg.sender */\n      caller\n        /* \"contracts/OrderBook.sol\":2790:2796  sender */\n      dup1\n        /* \"contracts/OrderBook.sol\":2771:2796  _order.customer == sender */\n      0xffffffffffffffffffffffffffffffffffffffff\n      and\n        /* \"contracts/OrderBook.sol\":2771:2777  _order */\n      dup3\n        /* \"contracts/OrderBook.sol\":2771:2786  _order.customer */\n      0x00\n      add\n      mload\n        /* \"contracts/OrderBook.sol\":2771:2796  _order.customer == sender */\n      0xffffffffffffffffffffffffffffffffffffffff\n      and\n      eq\n        /* \"contracts/OrderBook.sol\":2763:2815  require(_order.customer == sender, \"Not Authorised\") */\n      tag_197\n      jumpi\n      mload(0x40)\n      0x08c379a000000000000000000000000000000000000000000000000000000000\n      dup2\n      mstore\n      0x04\n      add\n      tag_198\n      swap1\n      tag_151\n      jump\t// in\n    tag_198:\n      mload(0x40)\n      dup1\n      swap2\n      sub\n      swap1\n      revert\n    tag_197:\n        /* \"contracts/OrderBook.sol\":2680:2681  _ */\n      pop\n      pop\n        /* \"contracts/OrderBook.sol\":6527:6784  function cancelBid (uint256 bidId) public isPending(bidBook[bidId]) isAuthorised(bidBook[bidId], msg.sender) {... */\n      pop\n      pop\n      jump\t// out\n        /* \"contracts/OrderBook.sol\":5952:6521  function placeBid (uint256 price) public payable {... */\n    tag_97:\n        /* \"contracts/OrderBook.sol\":6028:6029  0 */\n      0x00\n        /* \"contracts/OrderBook.sol\":6019:6024  price */\n      dup2\n        /* \"contracts/OrderBook.sol\":6019:6029  price >= 0 */\n      lt\n      iszero\n        /* \"contracts/OrderBook.sol\":6011:6065  require(price >= 0, \"price value must be more than 0\") */\n      tag_201\n      jumpi\n      mload(0x40)\n      0x08c379a000000000000000000000000000000000000000000000000000000000\n      dup2\n      mstore\n      0x04\n      add\n      tag_202\n      swap1\n      tag_164\n      jump\t// in\n    tag_202:\n      mload(0x40)\n      dup1\n      swap2\n      sub\n      swap1\n      revert\n    tag_201:\n        /* \"contracts/OrderBook.sol\":6096:6101  price */\n      dup1\n        /* \"contracts/OrderBook.sol\":6083:6092  msg.value */\n      callvalue\n        /* \"contracts/OrderBook.sol\":6083:6101  msg.value >= price */\n      lt\n      iszero\n        /* \"contracts/OrderBook.sol\":6075:6136  require(msg.value >= price, \"Not enough blance to place bid\") */\n      tag_203\n      jumpi\n      mload(0x40)\n      0x08c379a000000000000000000000000000000000000000000000000000000000\n      dup2\n      mstore\n      0x04\n      add\n      tag_204\n      swap1\n      tag_205\n      jump\t// in\n    tag_204:\n      mload(0x40)\n      dup1\n      swap2\n      sub\n      swap1\n      revert\n    tag_203:\n        /* \"contracts/OrderBook.sol\":5952:6521  function placeBid (uint256 price) public payable {... */\n      pop\n      jump\t// out\n        /* \"contracts/OrderBook.sol\":2026:2049  uint256 public askCount */\n    tag_100:\n      sload(0x0a)\n      dup2\n      jump\t// out\n        /* \"contracts/OrderBook.sol\":1853:1876  uint256 public bidCount */\n    tag_104:\n      sload(0x06)\n      dup2\n      jump\t// out\n        /* \"contracts/OrderBook.sol\":8720:8822  function getBidState (uint256 id) public view returns(State) {... */\n    tag_109:\n        /* \"contracts/OrderBook.sol\":8774:8779  State */\n      0x00\n        /* \"contracts/OrderBook.sol\":8798:8805  bidBook */\n      0x03\n        /* \"contracts/OrderBook.sol\":8798:8809  bidBook[id] */\n      0x00\n        /* \"contracts/OrderBook.sol\":8806:8808  id */\n      dup4\n        /* \"contracts/OrderBook.sol\":8798:8809  bidBook[id] */\n      dup2\n      mstore\n      0x20\n      add\n      swap1\n      dup2\n      mstore\n      0x20\n      add\n      0x00\n      keccak256\n        /* \"contracts/OrderBook.sol\":8798:8815  bidBook[id].state */\n      0x03\n      add\n      0x00\n      swap1\n      sload\n      swap1\n      0x0100\n      exp\n      swap1\n      div\n      0xff\n      and\n        /* \"contracts/OrderBook.sol\":8791:8815  return bidBook[id].state */\n      swap1\n      pop\n        /* \"contracts/OrderBook.sol\":8720:8822  function getBidState (uint256 id) public view returns(State) {... */\n      swap2\n      swap1\n      pop\n      jump\t// out\n        /* \"contracts/OrderBook.sol\":7776:7844  function fetchYourBidIds() public returns (uint256[] memory) {... */\n    tag_113:\n        /* \"contracts/OrderBook.sol\":7819:7835  uint256[] memory */\n      0x60\n        /* \"contracts/OrderBook.sol\":7776:7844  function fetchYourBidIds() public returns (uint256[] memory) {... */\n      swap1\n      jump\t// out\n        /* \"contracts/OrderBook.sol\":7924:8248  function getOrder(uint256 id) public view returns(address payable,uint256,uint256,State,uint256,uint256,uint256,bool) {... */\n    tag_118:\n        /* \"contracts/OrderBook.sol\":7974:7989  address payable */\n      0x00\n        /* \"contracts/OrderBook.sol\":7990:7997  uint256 */\n      dup1\n        /* \"contracts/OrderBook.sol\":7998:8005  uint256 */\n      0x00\n        /* \"contracts/OrderBook.sol\":8006:8011  State */\n      dup1\n        /* \"contracts/OrderBook.sol\":8012:8019  uint256 */\n      0x00\n        /* \"contracts/OrderBook.sol\":8020:8027  uint256 */\n      dup1\n        /* \"contracts/OrderBook.sol\":8028:8035  uint256 */\n      0x00\n        /* \"contracts/OrderBook.sol\":8036:8040  bool */\n      dup1\n        /* \"contracts/OrderBook.sol\":7924:8248  function getOrder(uint256 id) public view returns(address payable,uint256,uint256,State,uint256,uint256,uint256,bool) {... */\n      swap2\n      swap4\n      swap6\n      swap8\n      pop\n      swap2\n      swap4\n      swap6\n      swap8\n      jump\t// out\n        /* \"contracts/OrderBook.sol\":8610:8714  function getAskValue (uint256 id) public view returns(uint256) {... */\n    tag_124:\n        /* \"contracts/OrderBook.sol\":8664:8671  uint256 */\n      0x00\n        /* \"contracts/OrderBook.sol\":8690:8697  askBook */\n      0x07\n        /* \"contracts/OrderBook.sol\":8690:8701  askBook[id] */\n      0x00\n        /* \"contracts/OrderBook.sol\":8698:8700  id */\n      dup4\n        /* \"contracts/OrderBook.sol\":8690:8701  askBook[id] */\n      dup2\n      mstore\n      0x20\n      add\n      swap1\n      dup2\n      mstore\n      0x20\n      add\n      0x00\n      keccak256\n        /* \"contracts/OrderBook.sol\":8690:8707  askBook[id].value */\n      0x01\n      add\n      sload\n        /* \"contracts/OrderBook.sol\":8683:8707  return askBook[id].value */\n      swap1\n      pop\n        /* \"contracts/OrderBook.sol\":8610:8714  function getAskValue (uint256 id) public view returns(uint256) {... */\n      swap2\n      swap1\n      pop\n      jump\t// out\n        /* \"contracts/OrderBook.sol\":1998:2020  uint256 public askTail */\n    tag_128:\n      sload(0x09)\n      dup2\n      jump\t// out\n        /* \"contracts/OrderBook.sol\":3350:3828  function createAsk(address customer, uint256 value, uint256 timestamp) internal returns (order memory) {... */\n    tag_175:\n        /* \"contracts/OrderBook.sol\":3439:3451  order memory */\n      tag_210\n      tag_211\n      jump\t// in\n    tag_210:\n        /* \"contracts/OrderBook.sol\":3463:3471  askCount */\n      0x0a\n      0x00\n        /* \"contracts/OrderBook.sol\":3463:3474  askCount ++ */\n      dup2\n      sload\n      dup1\n      swap3\n      swap2\n      swap1\n      tag_213\n      swap1\n      tag_214\n      jump\t// in\n    tag_213:\n      swap2\n      swap1\n      pop\n      sstore\n      pop\n        /* \"contracts/OrderBook.sol\":3484:3503  order memory newAsk */\n      0x00\n        /* \"contracts/OrderBook.sol\":3506:3673  order(... */\n      mload(0x40)\n      dup1\n      0xe0\n      add\n      0x40\n      mstore\n      dup1\n        /* \"contracts/OrderBook.sol\":3533:3541  customer */\n      dup7\n        /* \"contracts/OrderBook.sol\":3506:3673  order(... */\n      0xffffffffffffffffffffffffffffffffffffffff\n      and\n      dup2\n      mstore\n      0x20\n      add\n        /* \"contracts/OrderBook.sol\":3556:3561  value */\n      dup6\n        /* \"contracts/OrderBook.sol\":3506:3673  order(... */\n      dup2\n      mstore\n      0x20\n      add\n        /* \"contracts/OrderBook.sol\":3575:3584  timestamp */\n      dup5\n        /* \"contracts/OrderBook.sol\":3506:3673  order(... */\n      dup2\n      mstore\n      0x20\n      add\n        /* \"contracts/OrderBook.sol\":3598:3611  State.pending */\n      0x00\n        /* \"contracts/OrderBook.sol\":3506:3673  order(... */\n      0x01\n      dup2\n      gt\n      iszero\n      tag_215\n      jumpi\n      tag_216\n      tag_133\n      jump\t// in\n    tag_216:\n    tag_215:\n      dup2\n      mstore\n      0x20\n      add\n        /* \"contracts/OrderBook.sol\":3625:3633  askCount */\n      sload(0x0a)\n        /* \"contracts/OrderBook.sol\":3506:3673  order(... */\n      dup2\n      mstore\n      0x20\n      add\n        /* \"contracts/OrderBook.sol\":3647:3648  0 */\n      0x00\n        /* \"contracts/OrderBook.sol\":3506:3673  order(... */\n      dup2\n      mstore\n      0x20\n      add\n        /* \"contracts/OrderBook.sol\":3662:3663  0 */\n      0x00\n        /* \"contracts/OrderBook.sol\":3506:3673  order(... */\n      dup2\n      mstore\n      pop\n        /* \"contracts/OrderBook.sol\":3484:3673  order memory newAsk = order(... */\n      swap1\n      pop\n        /* \"contracts/OrderBook.sol\":3703:3709  newAsk */\n      dup1\n        /* \"contracts/OrderBook.sol\":3683:3690  askBook */\n      0x07\n        /* \"contracts/OrderBook.sol\":3683:3700  askBook[askCount] */\n      0x00\n        /* \"contracts/OrderBook.sol\":3691:3699  askCount */\n      sload(0x0a)\n        /* \"contracts/OrderBook.sol\":3683:3700  askBook[askCount] */\n      dup2\n      mstore\n      0x20\n      add\n      swap1\n      dup2\n      mstore\n      0x20\n      add\n      0x00\n      keccak256\n        /* \"contracts/OrderBook.sol\":3683:3709  askBook[askCount] = newAsk */\n      0x00\n      dup3\n      add\n      mload\n      dup2\n      0x00\n      add\n      exp(0x0100, 0x00)\n      dup2\n      sload\n      dup2\n      0xffffffffffffffffffffffffffffffffffffffff\n      mul\n      not\n      and\n      swap1\n      dup4\n      0xffffffffffffffffffffffffffffffffffffffff\n      and\n      mul\n      or\n      swap1\n      sstore\n      pop\n      0x20\n      dup3\n      add\n      mload\n      dup2\n      0x01\n      add\n      sstore\n      0x40\n      dup3\n      add\n      mload\n      dup2\n      0x02\n      add\n      sstore\n      0x60\n      dup3\n      add\n      mload\n      dup2\n      0x03\n      add\n      exp(0x0100, 0x00)\n      dup2\n      sload\n      dup2\n      0xff\n      mul\n      not\n      and\n      swap1\n      dup4\n      0x01\n      dup2\n      gt\n      iszero\n      tag_217\n      jumpi\n      tag_218\n      tag_133\n      jump\t// in\n    tag_218:\n    tag_217:\n      mul\n      or\n      swap1\n      sstore\n      pop\n      0x80\n      dup3\n      add\n      mload\n      dup2\n      0x04\n      add\n      sstore\n      0xa0\n      dup3\n      add\n      mload\n      dup2\n      0x05\n      add\n      sstore\n      0xc0\n      dup3\n      add\n      mload\n      dup2\n      0x06\n      add\n      sstore\n      swap1\n      pop\n      pop\n        /* \"contracts/OrderBook.sol\":3724:3795  orderCreated(customer,value,timestamp,State.pending,askCount,0,0,false) */\n      0x93caf6ba1af44020dfe6076e279533e38bd8deefe534c43aa8cc93aad2025b7d\n        /* \"contracts/OrderBook.sol\":3737:3745  customer */\n      dup6\n        /* \"contracts/OrderBook.sol\":3746:3751  value */\n      dup6\n        /* \"contracts/OrderBook.sol\":3752:3761  timestamp */\n      dup6\n        /* \"contracts/OrderBook.sol\":3762:3775  State.pending */\n      0x00\n        /* \"contracts/OrderBook.sol\":3776:3784  askCount */\n      sload(0x0a)\n        /* \"contracts/OrderBook.sol\":3785:3786  0 */\n      0x00\n        /* \"contracts/OrderBook.sol\":3787:3788  0 */\n      dup1\n        /* \"contracts/OrderBook.sol\":3789:3794  false */\n      0x00\n        /* \"contracts/OrderBook.sol\":3724:3795  orderCreated(customer,value,timestamp,State.pending,askCount,0,0,false) */\n      mload(0x40)\n      tag_219\n      swap9\n      swap8\n      swap7\n      swap6\n      swap5\n      swap4\n      swap3\n      swap2\n      swap1\n      tag_220\n      jump\t// in\n    tag_219:\n      mload(0x40)\n      dup1\n      swap2\n      sub\n      swap1\n      log1\n        /* \"contracts/OrderBook.sol\":3815:3821  newAsk */\n      dup1\n        /* \"contracts/OrderBook.sol\":3808:3821  return newAsk */\n      swap2\n      pop\n      pop\n        /* \"contracts/OrderBook.sol\":3350:3828  function createAsk(address customer, uint256 value, uint256 timestamp) internal returns (order memory) {... */\n      swap4\n      swap3\n      pop\n      pop\n      pop\n      jump\t// out\n        /* \"contracts/OrderBook.sol\":4613:5446  function sortAsk(order memory newOrder) internal {... */\n    tag_177:\n        /* \"contracts/OrderBook.sol\":4672:4687  uint256 current */\n      0x00\n        /* \"contracts/OrderBook.sol\":4712:4713  0 */\n      dup1\n        /* \"contracts/OrderBook.sol\":4701:4708  askHead */\n      sload(0x08)\n        /* \"contracts/OrderBook.sol\":4701:4713  askHead == 0 */\n      sub\n        /* \"contracts/OrderBook.sol\":4697:5440  if (askHead == 0) {... */\n      tag_222\n      jumpi\n        /* \"contracts/OrderBook.sol\":4739:4747  newOrder */\n      dup2\n        /* \"contracts/OrderBook.sol\":4739:4750  newOrder.id */\n      0x80\n      add\n      mload\n        /* \"contracts/OrderBook.sol\":4729:4736  askHead */\n      0x08\n        /* \"contracts/OrderBook.sol\":4729:4750  askHead = newOrder.id */\n      dup2\n      swap1\n      sstore\n      pop\n        /* \"contracts/OrderBook.sol\":4697:5440  if (askHead == 0) {... */\n      jump(tag_223)\n    tag_222:\n        /* \"contracts/OrderBook.sol\":4805:4813  newOrder */\n      dup2\n        /* \"contracts/OrderBook.sol\":4805:4819  newOrder.value */\n      0x20\n      add\n      mload\n        /* \"contracts/OrderBook.sol\":4779:4786  askBook */\n      0x07\n        /* \"contracts/OrderBook.sol\":4779:4795  askBook[askHead] */\n      0x00\n        /* \"contracts/OrderBook.sol\":4787:4794  askHead */\n      sload(0x08)\n        /* \"contracts/OrderBook.sol\":4779:4795  askBook[askHead] */\n      dup2\n      mstore\n      0x20\n      add\n      swap1\n      dup2\n      mstore\n      0x20\n      add\n      0x00\n      keccak256\n        /* \"contracts/OrderBook.sol\":4779:4801  askBook[askHead].value */\n      0x01\n      add\n      sload\n        /* \"contracts/OrderBook.sol\":4779:4819  askBook[askHead].value >= newOrder.value */\n      lt\n        /* \"contracts/OrderBook.sol\":4775:5440  if (askBook[askHead].value >= newOrder.value) {... */\n      tag_224\n      jumpi\n        /* \"contracts/OrderBook.sol\":4851:4858  askHead */\n      sload(0x08)\n        /* \"contracts/OrderBook.sol\":4835:4843  newOrder */\n      dup3\n        /* \"contracts/OrderBook.sol\":4835:4848  newOrder.next */\n      0xa0\n      add\n        /* \"contracts/OrderBook.sol\":4835:4858  newOrder.next = askHead */\n      dup2\n      dup2\n      mstore\n      pop\n      pop\n        /* \"contracts/OrderBook.sol\":4902:4910  newOrder */\n      dup2\n        /* \"contracts/OrderBook.sol\":4902:4913  newOrder.id */\n      0x80\n      add\n      mload\n        /* \"contracts/OrderBook.sol\":4872:4879  askBook */\n      0x07\n        /* \"contracts/OrderBook.sol\":4872:4894  askBook[newOrder.next] */\n      0x00\n        /* \"contracts/OrderBook.sol\":4880:4888  newOrder */\n      dup5\n        /* \"contracts/OrderBook.sol\":4880:4893  newOrder.next */\n      0xa0\n      add\n      mload\n        /* \"contracts/OrderBook.sol\":4872:4894  askBook[newOrder.next] */\n      dup2\n      mstore\n      0x20\n      add\n      swap1\n      dup2\n      mstore\n      0x20\n      add\n      0x00\n      keccak256\n        /* \"contracts/OrderBook.sol\":4872:4899  askBook[newOrder.next].prev */\n      0x06\n      add\n        /* \"contracts/OrderBook.sol\":4872:4913  askBook[newOrder.next].prev = newOrder.id */\n      dup2\n      swap1\n      sstore\n      pop\n        /* \"contracts/OrderBook.sol\":4937:4945  newOrder */\n      dup2\n        /* \"contracts/OrderBook.sol\":4937:4948  newOrder.id */\n      0x80\n      add\n      mload\n        /* \"contracts/OrderBook.sol\":4927:4934  askHead */\n      0x08\n        /* \"contracts/OrderBook.sol\":4927:4948  askHead = newOrder.id */\n      dup2\n      swap1\n      sstore\n      pop\n        /* \"contracts/OrderBook.sol\":4775:5440  if (askBook[askHead].value >= newOrder.value) {... */\n      jump(tag_225)\n    tag_224:\n        /* \"contracts/OrderBook.sol\":4997:5004  askHead */\n      sload(0x08)\n        /* \"contracts/OrderBook.sol\":4987:5004  current = askHead */\n      swap1\n      pop\n        /* \"contracts/OrderBook.sol\":5018:5174  while (askBook[current].next != 0 && askBook[askBook[current].next].value < newOrder.value) {... */\n    tag_226:\n        /* \"contracts/OrderBook.sol\":5050:5051  0 */\n      0x00\n        /* \"contracts/OrderBook.sol\":5025:5032  askBook */\n      0x07\n        /* \"contracts/OrderBook.sol\":5025:5041  askBook[current] */\n      0x00\n        /* \"contracts/OrderBook.sol\":5033:5040  current */\n      dup4\n        /* \"contracts/OrderBook.sol\":5025:5041  askBook[current] */\n      dup2\n      mstore\n      0x20\n      add\n      swap1\n      dup2\n      mstore\n      0x20\n      add\n      0x00\n      keccak256\n        /* \"contracts/OrderBook.sol\":5025:5046  askBook[current].next */\n      0x05\n      add\n      sload\n        /* \"contracts/OrderBook.sol\":5025:5051  askBook[current].next != 0 */\n      eq\n      iszero\n        /* \"contracts/OrderBook.sol\":5025:5108  askBook[current].next != 0 && askBook[askBook[current].next].value < newOrder.value */\n      dup1\n      iszero\n      tag_228\n      jumpi\n      pop\n        /* \"contracts/OrderBook.sol\":5094:5102  newOrder */\n      dup2\n        /* \"contracts/OrderBook.sol\":5094:5108  newOrder.value */\n      0x20\n      add\n      mload\n        /* \"contracts/OrderBook.sol\":5055:5062  askBook */\n      0x07\n        /* \"contracts/OrderBook.sol\":5055:5085  askBook[askBook[current].next] */\n      0x00\n        /* \"contracts/OrderBook.sol\":5063:5070  askBook */\n      0x07\n        /* \"contracts/OrderBook.sol\":5063:5079  askBook[current] */\n      0x00\n        /* \"contracts/OrderBook.sol\":5071:5078  current */\n      dup6\n        /* \"contracts/OrderBook.sol\":5063:5079  askBook[current] */\n      dup2\n      mstore\n      0x20\n      add\n      swap1\n      dup2\n      mstore\n      0x20\n      add\n      0x00\n      keccak256\n        /* \"contracts/OrderBook.sol\":5063:5084  askBook[current].next */\n      0x05\n      add\n      sload\n        /* \"contracts/OrderBook.sol\":5055:5085  askBook[askBook[current].next] */\n      dup2\n      mstore\n      0x20\n      add\n      swap1\n      dup2\n      mstore\n      0x20\n      add\n      0x00\n      keccak256\n        /* \"contracts/OrderBook.sol\":5055:5091  askBook[askBook[current].next].value */\n      0x01\n      add\n      sload\n        /* \"contracts/OrderBook.sol\":5055:5108  askBook[askBook[current].next].value < newOrder.value */\n      lt\n        /* \"contracts/OrderBook.sol\":5025:5108  askBook[current].next != 0 && askBook[askBook[current].next].value < newOrder.value */\n    tag_228:\n        /* \"contracts/OrderBook.sol\":5018:5174  while (askBook[current].next != 0 && askBook[askBook[current].next].value < newOrder.value) {... */\n      iszero\n      tag_227\n      jumpi\n        /* \"contracts/OrderBook.sol\":5138:5145  askBook */\n      0x07\n        /* \"contracts/OrderBook.sol\":5138:5154  askBook[current] */\n      0x00\n        /* \"contracts/OrderBook.sol\":5146:5153  current */\n      dup3\n        /* \"contracts/OrderBook.sol\":5138:5154  askBook[current] */\n      dup2\n      mstore\n      0x20\n      add\n      swap1\n      dup2\n      mstore\n      0x20\n      add\n      0x00\n      keccak256\n        /* \"contracts/OrderBook.sol\":5138:5159  askBook[current].next */\n      0x05\n      add\n      sload\n        /* \"contracts/OrderBook.sol\":5128:5159  current = askBook[current].next */\n      swap1\n      pop\n        /* \"contracts/OrderBook.sol\":5018:5174  while (askBook[current].next != 0 && askBook[askBook[current].next].value < newOrder.value) {... */\n      jump(tag_226)\n    tag_227:\n        /* \"contracts/OrderBook.sol\":5203:5210  askBook */\n      0x07\n        /* \"contracts/OrderBook.sol\":5203:5219  askBook[current] */\n      0x00\n        /* \"contracts/OrderBook.sol\":5211:5218  current */\n      dup3\n        /* \"contracts/OrderBook.sol\":5203:5219  askBook[current] */\n      dup2\n      mstore\n      0x20\n      add\n      swap1\n      dup2\n      mstore\n      0x20\n      add\n      0x00\n      keccak256\n        /* \"contracts/OrderBook.sol\":5203:5224  askBook[current].next */\n      0x05\n      add\n      sload\n        /* \"contracts/OrderBook.sol\":5187:5195  newOrder */\n      dup3\n        /* \"contracts/OrderBook.sol\":5187:5200  newOrder.next */\n      0xa0\n      add\n        /* \"contracts/OrderBook.sol\":5187:5224  newOrder.next = askBook[current].next */\n      dup2\n      dup2\n      mstore\n      pop\n      pop\n        /* \"contracts/OrderBook.sol\":5267:5268  0 */\n      0x00\n        /* \"contracts/OrderBook.sol\":5242:5249  askBook */\n      0x07\n        /* \"contracts/OrderBook.sol\":5242:5258  askBook[current] */\n      0x00\n        /* \"contracts/OrderBook.sol\":5250:5257  current */\n      dup4\n        /* \"contracts/OrderBook.sol\":5242:5258  askBook[current] */\n      dup2\n      mstore\n      0x20\n      add\n      swap1\n      dup2\n      mstore\n      0x20\n      add\n      0x00\n      keccak256\n        /* \"contracts/OrderBook.sol\":5242:5263  askBook[current].next */\n      0x05\n      add\n      sload\n        /* \"contracts/OrderBook.sol\":5242:5268  askBook[current].next != 0 */\n      eq\n        /* \"contracts/OrderBook.sol\":5238:5344  if (askBook[current].next != 0) {... */\n      tag_229\n      jumpi\n        /* \"contracts/OrderBook.sol\":5318:5326  newOrder */\n      dup2\n        /* \"contracts/OrderBook.sol\":5318:5329  newOrder.id */\n      0x80\n      add\n      mload\n        /* \"contracts/OrderBook.sol\":5288:5295  askBook */\n      0x07\n        /* \"contracts/OrderBook.sol\":5288:5310  askBook[newOrder.next] */\n      0x00\n        /* \"contracts/OrderBook.sol\":5296:5304  newOrder */\n      dup5\n        /* \"contracts/OrderBook.sol\":5296:5309  newOrder.next */\n      0xa0\n      add\n      mload\n        /* \"contracts/OrderBook.sol\":5288:5310  askBook[newOrder.next] */\n      dup2\n      mstore\n      0x20\n      add\n      swap1\n      dup2\n      mstore\n      0x20\n      add\n      0x00\n      keccak256\n        /* \"contracts/OrderBook.sol\":5288:5315  askBook[newOrder.next].prev */\n      0x06\n      add\n        /* \"contracts/OrderBook.sol\":5288:5329  askBook[newOrder.next].prev = newOrder.id */\n      dup2\n      swap1\n      sstore\n      pop\n        /* \"contracts/OrderBook.sol\":5238:5344  if (askBook[current].next != 0) {... */\n    tag_229:\n        /* \"contracts/OrderBook.sol\":5381:5389  newOrder */\n      dup2\n        /* \"contracts/OrderBook.sol\":5381:5392  newOrder.id */\n      0x80\n      add\n      mload\n        /* \"contracts/OrderBook.sol\":5357:5364  askBook */\n      0x07\n        /* \"contracts/OrderBook.sol\":5357:5373  askBook[current] */\n      0x00\n        /* \"contracts/OrderBook.sol\":5365:5372  current */\n      dup4\n        /* \"contracts/OrderBook.sol\":5357:5373  askBook[current] */\n      dup2\n      mstore\n      0x20\n      add\n      swap1\n      dup2\n      mstore\n      0x20\n      add\n      0x00\n      keccak256\n        /* \"contracts/OrderBook.sol\":5357:5378  askBook[current].next */\n      0x05\n      add\n        /* \"contracts/OrderBook.sol\":5357:5392  askBook[current].next = newOrder.id */\n      dup2\n      swap1\n      sstore\n      pop\n        /* \"contracts/OrderBook.sol\":5422:5429  current */\n      dup1\n        /* \"contracts/OrderBook.sol\":5406:5414  newOrder */\n      dup3\n        /* \"contracts/OrderBook.sol\":5406:5419  newOrder.prev */\n      0xc0\n      add\n        /* \"contracts/OrderBook.sol\":5406:5429  newOrder.prev = current */\n      dup2\n      dup2\n      mstore\n      pop\n      pop\n        /* \"contracts/OrderBook.sol\":4775:5440  if (askBook[askHead].value >= newOrder.value) {... */\n    tag_225:\n        /* \"contracts/OrderBook.sol\":4697:5440  if (askHead == 0) {... */\n    tag_223:\n        /* \"contracts/OrderBook.sol\":4662:5446  {... */\n      pop\n        /* \"contracts/OrderBook.sol\":4613:5446  function sortAsk(order memory newOrder) internal {... */\n      pop\n      jump\t// out\n    tag_211:\n      mload(0x40)\n      dup1\n      0xe0\n      add\n      0x40\n      mstore\n      dup1\n      and(0xffffffffffffffffffffffffffffffffffffffff, 0x00)\n      dup2\n      mstore\n      0x20\n      add\n      0x00\n      dup2\n      mstore\n      0x20\n      add\n      0x00\n      dup2\n      mstore\n      0x20\n      add\n      0x00\n      0x01\n      dup2\n      gt\n      iszero\n      tag_230\n      jumpi\n      tag_231\n      tag_133\n      jump\t// in\n    tag_231:\n    tag_230:\n      dup2\n      mstore\n      0x20\n      add\n      0x00\n      dup2\n      mstore\n      0x20\n      add\n      0x00\n      dup2\n      mstore\n      0x20\n      add\n      0x00\n      dup2\n      mstore\n      pop\n      swap1\n      jump\t// out\n        /* \"#utility.yul\":7:121   */\n    tag_232:\n        /* \"#utility.yul\":74:80   */\n      0x00\n        /* \"#utility.yul\":108:113   */\n      dup2\n        /* \"#utility.yul\":102:114   */\n      mload\n        /* \"#utility.yul\":92:114   */\n      swap1\n      pop\n        /* \"#utility.yul\":7:121   */\n      swap2\n      swap1\n      pop\n      jump\t// out\n        /* \"#utility.yul\":127:311   */\n    tag_233:\n        /* \"#utility.yul\":226:237   */\n      0x00\n        /* \"#utility.yul\":260:266   */\n      dup3\n        /* \"#utility.yul\":255:258   */\n      dup3\n        /* \"#utility.yul\":248:267   */\n      mstore\n        /* \"#utility.yul\":300:304   */\n      0x20\n        /* \"#utility.yul\":295:298   */\n      dup3\n        /* \"#utility.yul\":291:305   */\n      add\n        /* \"#utility.yul\":276:305   */\n      swap1\n      pop\n        /* \"#utility.yul\":127:311   */\n      swap3\n      swap2\n      pop\n      pop\n      jump\t// out\n        /* \"#utility.yul\":317:449   */\n    tag_234:\n        /* \"#utility.yul\":384:388   */\n      0x00\n        /* \"#utility.yul\":407:410   */\n      dup2\n        /* \"#utility.yul\":399:410   */\n      swap1\n      pop\n        /* \"#utility.yul\":437:441   */\n      0x20\n        /* \"#utility.yul\":432:435   */\n      dup3\n        /* \"#utility.yul\":428:442   */\n      add\n        /* \"#utility.yul\":420:442   */\n      swap1\n      pop\n        /* \"#utility.yul\":317:449   */\n      swap2\n      swap1\n      pop\n      jump\t// out\n        /* \"#utility.yul\":455:532   */\n    tag_235:\n        /* \"#utility.yul\":492:499   */\n      0x00\n        /* \"#utility.yul\":521:526   */\n      dup2\n        /* \"#utility.yul\":510:526   */\n      swap1\n      pop\n        /* \"#utility.yul\":455:532   */\n      swap2\n      swap1\n      pop\n      jump\t// out\n        /* \"#utility.yul\":538:646   */\n    tag_236:\n        /* \"#utility.yul\":615:639   */\n      tag_299\n        /* \"#utility.yul\":633:638   */\n      dup2\n        /* \"#utility.yul\":615:639   */\n      tag_235\n      jump\t// in\n    tag_299:\n        /* \"#utility.yul\":610:613   */\n      dup3\n        /* \"#utility.yul\":603:640   */\n      mstore\n        /* \"#utility.yul\":538:646   */\n      pop\n      pop\n      jump\t// out\n        /* \"#utility.yul\":652:831   */\n    tag_237:\n        /* \"#utility.yul\":721:731   */\n      0x00\n        /* \"#utility.yul\":742:788   */\n      tag_301\n        /* \"#utility.yul\":784:787   */\n      dup4\n        /* \"#utility.yul\":776:782   */\n      dup4\n        /* \"#utility.yul\":742:788   */\n      tag_236\n      jump\t// in\n    tag_301:\n        /* \"#utility.yul\":820:824   */\n      0x20\n        /* \"#utility.yul\":815:818   */\n      dup4\n        /* \"#utility.yul\":811:825   */\n      add\n        /* \"#utility.yul\":797:825   */\n      swap1\n      pop\n        /* \"#utility.yul\":652:831   */\n      swap3\n      swap2\n      pop\n      pop\n      jump\t// out\n        /* \"#utility.yul\":837:950   */\n    tag_238:\n        /* \"#utility.yul\":907:911   */\n      0x00\n        /* \"#utility.yul\":939:943   */\n      0x20\n        /* \"#utility.yul\":934:937   */\n      dup3\n        /* \"#utility.yul\":930:944   */\n      add\n        /* \"#utility.yul\":922:944   */\n      swap1\n      pop\n        /* \"#utility.yul\":837:950   */\n      swap2\n      swap1\n      pop\n      jump\t// out\n        /* \"#utility.yul\":986:1718   */\n    tag_239:\n        /* \"#utility.yul\":1105:1108   */\n      0x00\n        /* \"#utility.yul\":1134:1188   */\n      tag_304\n        /* \"#utility.yul\":1182:1187   */\n      dup3\n        /* \"#utility.yul\":1134:1188   */\n      tag_232\n      jump\t// in\n    tag_304:\n        /* \"#utility.yul\":1204:1290   */\n      tag_305\n        /* \"#utility.yul\":1283:1289   */\n      dup2\n        /* \"#utility.yul\":1278:1281   */\n      dup6\n        /* \"#utility.yul\":1204:1290   */\n      tag_233\n      jump\t// in\n    tag_305:\n        /* \"#utility.yul\":1197:1290   */\n      swap4\n      pop\n        /* \"#utility.yul\":1314:1370   */\n      tag_306\n        /* \"#utility.yul\":1364:1369   */\n      dup4\n        /* \"#utility.yul\":1314:1370   */\n      tag_234\n      jump\t// in\n    tag_306:\n        /* \"#utility.yul\":1393:1400   */\n      dup1\n        /* \"#utility.yul\":1424:1425   */\n      0x00\n        /* \"#utility.yul\":1409:1693   */\n    tag_307:\n        /* \"#utility.yul\":1434:1440   */\n      dup4\n        /* \"#utility.yul\":1431:1432   */\n      dup2\n        /* \"#utility.yul\":1428:1441   */\n      lt\n        /* \"#utility.yul\":1409:1693   */\n      iszero\n      tag_309\n      jumpi\n        /* \"#utility.yul\":1510:1516   */\n      dup2\n        /* \"#utility.yul\":1504:1517   */\n      mload\n        /* \"#utility.yul\":1537:1600   */\n      tag_310\n        /* \"#utility.yul\":1596:1599   */\n      dup9\n        /* \"#utility.yul\":1581:1594   */\n      dup3\n        /* \"#utility.yul\":1537:1600   */\n      tag_237\n      jump\t// in\n    tag_310:\n        /* \"#utility.yul\":1530:1600   */\n      swap8\n      pop\n        /* \"#utility.yul\":1623:1683   */\n      tag_311\n        /* \"#utility.yul\":1676:1682   */\n      dup4\n        /* \"#utility.yul\":1623:1683   */\n      tag_238\n      jump\t// in\n    tag_311:\n        /* \"#utility.yul\":1613:1683   */\n      swap3\n      pop\n        /* \"#utility.yul\":1469:1693   */\n      pop\n        /* \"#utility.yul\":1456:1457   */\n      0x01\n        /* \"#utility.yul\":1453:1454   */\n      dup2\n        /* \"#utility.yul\":1449:1458   */\n      add\n        /* \"#utility.yul\":1444:1458   */\n      swap1\n      pop\n        /* \"#utility.yul\":1409:1693   */\n      jump(tag_307)\n    tag_309:\n        /* \"#utility.yul\":1413:1427   */\n      pop\n        /* \"#utility.yul\":1709:1712   */\n      dup6\n        /* \"#utility.yul\":1702:1712   */\n      swap4\n      pop\n        /* \"#utility.yul\":1110:1718   */\n      pop\n      pop\n      pop\n        /* \"#utility.yul\":986:1718   */\n      swap3\n      swap2\n      pop\n      pop\n      jump\t// out\n        /* \"#utility.yul\":1724:2097   */\n    tag_31:\n        /* \"#utility.yul\":1867:1871   */\n      0x00\n        /* \"#utility.yul\":1905:1907   */\n      0x20\n        /* \"#utility.yul\":1894:1903   */\n      dup3\n        /* \"#utility.yul\":1890:1908   */\n      add\n        /* \"#utility.yul\":1882:1908   */\n      swap1\n      pop\n        /* \"#utility.yul\":1954:1963   */\n      dup2\n        /* \"#utility.yul\":1948:1952   */\n      dup2\n        /* \"#utility.yul\":1944:1964   */\n      sub\n        /* \"#utility.yul\":1940:1941   */\n      0x00\n        /* \"#utility.yul\":1929:1938   */\n      dup4\n        /* \"#utility.yul\":1925:1942   */\n      add\n        /* \"#utility.yul\":1918:1965   */\n      mstore\n        /* \"#utility.yul\":1982:2090   */\n      tag_313\n        /* \"#utility.yul\":2085:2089   */\n      dup2\n        /* \"#utility.yul\":2076:2082   */\n      dup5\n        /* \"#utility.yul\":1982:2090   */\n      tag_239\n      jump\t// in\n    tag_313:\n        /* \"#utility.yul\":1974:2090   */\n      swap1\n      pop\n        /* \"#utility.yul\":1724:2097   */\n      swap3\n      swap2\n      pop\n      pop\n      jump\t// out\n        /* \"#utility.yul\":2184:2301   */\n    tag_241:\n        /* \"#utility.yul\":2293:2294   */\n      0x00\n        /* \"#utility.yul\":2290:2291   */\n      dup1\n        /* \"#utility.yul\":2283:2295   */\n      revert\n        /* \"#utility.yul\":2430:2552   */\n    tag_243:\n        /* \"#utility.yul\":2503:2527   */\n      tag_318\n        /* \"#utility.yul\":2521:2526   */\n      dup2\n        /* \"#utility.yul\":2503:2527   */\n      tag_235\n      jump\t// in\n    tag_318:\n        /* \"#utility.yul\":2496:2501   */\n      dup2\n        /* \"#utility.yul\":2493:2528   */\n      eq\n        /* \"#utility.yul\":2483:2546   */\n      tag_319\n      jumpi\n        /* \"#utility.yul\":2542:2543   */\n      0x00\n        /* \"#utility.yul\":2539:2540   */\n      dup1\n        /* \"#utility.yul\":2532:2544   */\n      revert\n        /* \"#utility.yul\":2483:2546   */\n    tag_319:\n        /* \"#utility.yul\":2430:2552   */\n      pop\n      jump\t// out\n        /* \"#utility.yul\":2558:2697   */\n    tag_244:\n        /* \"#utility.yul\":2604:2609   */\n      0x00\n        /* \"#utility.yul\":2642:2648   */\n      dup2\n        /* \"#utility.yul\":2629:2649   */\n      calldataload\n        /* \"#utility.yul\":2620:2649   */\n      swap1\n      pop\n        /* \"#utility.yul\":2658:2691   */\n      tag_321\n        /* \"#utility.yul\":2685:2690   */\n      dup2\n        /* \"#utility.yul\":2658:2691   */\n      tag_243\n      jump\t// in\n    tag_321:\n        /* \"#utility.yul\":2558:2697   */\n      swap3\n      swap2\n      pop\n      pop\n      jump\t// out\n        /* \"#utility.yul\":2703:3032   */\n    tag_35:\n        /* \"#utility.yul\":2762:2768   */\n      0x00\n        /* \"#utility.yul\":2811:2813   */\n      0x20\n        /* \"#utility.yul\":2799:2808   */\n      dup3\n        /* \"#utility.yul\":2790:2797   */\n      dup5\n        /* \"#utility.yul\":2786:2809   */\n      sub\n        /* \"#utility.yul\":2782:2814   */\n      slt\n        /* \"#utility.yul\":2779:2898   */\n      iszero\n      tag_323\n      jumpi\n        /* \"#utility.yul\":2817:2896   */\n      tag_324\n      tag_241\n      jump\t// in\n    tag_324:\n        /* \"#utility.yul\":2779:2898   */\n    tag_323:\n        /* \"#utility.yul\":2937:2938   */\n      0x00\n        /* \"#utility.yul\":2962:3015   */\n      tag_325\n        /* \"#utility.yul\":3007:3014   */\n      dup5\n        /* \"#utility.yul\":2998:3004   */\n      dup3\n        /* \"#utility.yul\":2987:2996   */\n      dup6\n        /* \"#utility.yul\":2983:3005   */\n      add\n        /* \"#utility.yul\":2962:3015   */\n      tag_244\n      jump\t// in\n    tag_325:\n        /* \"#utility.yul\":2952:3015   */\n      swap2\n      pop\n        /* \"#utility.yul\":2908:3025   */\n      pop\n        /* \"#utility.yul\":2703:3032   */\n      swap3\n      swap2\n      pop\n      pop\n      jump\t// out\n        /* \"#utility.yul\":3038:3156   */\n    tag_245:\n        /* \"#utility.yul\":3125:3149   */\n      tag_327\n        /* \"#utility.yul\":3143:3148   */\n      dup2\n        /* \"#utility.yul\":3125:3149   */\n      tag_235\n      jump\t// in\n    tag_327:\n        /* \"#utility.yul\":3120:3123   */\n      dup3\n        /* \"#utility.yul\":3113:3150   */\n      mstore\n        /* \"#utility.yul\":3038:3156   */\n      pop\n      pop\n      jump\t// out\n        /* \"#utility.yul\":3162:3384   */\n    tag_42:\n        /* \"#utility.yul\":3255:3259   */\n      0x00\n        /* \"#utility.yul\":3293:3295   */\n      0x20\n        /* \"#utility.yul\":3282:3291   */\n      dup3\n        /* \"#utility.yul\":3278:3296   */\n      add\n        /* \"#utility.yul\":3270:3296   */\n      swap1\n      pop\n        /* \"#utility.yul\":3306:3377   */\n      tag_329\n        /* \"#utility.yul\":3374:3375   */\n      0x00\n        /* \"#utility.yul\":3363:3372   */\n      dup4\n        /* \"#utility.yul\":3359:3376   */\n      add\n        /* \"#utility.yul\":3350:3356   */\n      dup5\n        /* \"#utility.yul\":3306:3377   */\n      tag_245\n      jump\t// in\n    tag_329:\n        /* \"#utility.yul\":3162:3384   */\n      swap3\n      swap2\n      pop\n      pop\n      jump\t// out\n        /* \"#utility.yul\":3390:3525   */\n    tag_246:\n        /* \"#utility.yul\":3478:3484   */\n      0x00\n        /* \"#utility.yul\":3512:3517   */\n      dup2\n        /* \"#utility.yul\":3506:3518   */\n      mload\n        /* \"#utility.yul\":3496:3518   */\n      swap1\n      pop\n        /* \"#utility.yul\":3390:3525   */\n      swap2\n      swap1\n      pop\n      jump\t// out\n        /* \"#utility.yul\":3531:3736   */\n    tag_247:\n        /* \"#utility.yul\":3651:3662   */\n      0x00\n        /* \"#utility.yul\":3685:3691   */\n      dup3\n        /* \"#utility.yul\":3680:3683   */\n      dup3\n        /* \"#utility.yul\":3673:3692   */\n      mstore\n        /* \"#utility.yul\":3725:3729   */\n      0x20\n        /* \"#utility.yul\":3720:3723   */\n      dup3\n        /* \"#utility.yul\":3716:3730   */\n      add\n        /* \"#utility.yul\":3701:3730   */\n      swap1\n      pop\n        /* \"#utility.yul\":3531:3736   */\n      swap3\n      swap2\n      pop\n      pop\n      jump\t// out\n        /* \"#utility.yul\":3742:3895   */\n    tag_248:\n        /* \"#utility.yul\":3830:3834   */\n      0x00\n        /* \"#utility.yul\":3853:3856   */\n      dup2\n        /* \"#utility.yul\":3845:3856   */\n      swap1\n      pop\n        /* \"#utility.yul\":3883:3887   */\n      0x20\n        /* \"#utility.yul\":3878:3881   */\n      dup3\n        /* \"#utility.yul\":3874:3888   */\n      add\n        /* \"#utility.yul\":3866:3888   */\n      swap1\n      pop\n        /* \"#utility.yul\":3742:3895   */\n      swap2\n      swap1\n      pop\n      jump\t// out\n        /* \"#utility.yul\":3901:4027   */\n    tag_249:\n        /* \"#utility.yul\":3938:3945   */\n      0x00\n        /* \"#utility.yul\":3978:4020   */\n      0xffffffffffffffffffffffffffffffffffffffff\n        /* \"#utility.yul\":3971:3976   */\n      dup3\n        /* \"#utility.yul\":3967:4021   */\n      and\n        /* \"#utility.yul\":3956:4021   */\n      swap1\n      pop\n        /* \"#utility.yul\":3901:4027   */\n      swap2\n      swap1\n      pop\n      jump\t// out\n        /* \"#utility.yul\":4033:4137   */\n    tag_250:\n        /* \"#utility.yul\":4078:4085   */\n      0x00\n        /* \"#utility.yul\":4107:4131   */\n      tag_335\n        /* \"#utility.yul\":4125:4130   */\n      dup3\n        /* \"#utility.yul\":4107:4131   */\n      tag_249\n      jump\t// in\n    tag_335:\n        /* \"#utility.yul\":4096:4131   */\n      swap1\n      pop\n        /* \"#utility.yul\":4033:4137   */\n      swap2\n      swap1\n      pop\n      jump\t// out\n        /* \"#utility.yul\":4143:4275   */\n    tag_251:\n        /* \"#utility.yul\":4236:4268   */\n      tag_337\n        /* \"#utility.yul\":4262:4267   */\n      dup2\n        /* \"#utility.yul\":4236:4268   */\n      tag_250\n      jump\t// in\n    tag_337:\n        /* \"#utility.yul\":4231:4234   */\n      dup3\n        /* \"#utility.yul\":4224:4269   */\n      mstore\n        /* \"#utility.yul\":4143:4275   */\n      pop\n      pop\n      jump\t// out\n        /* \"#utility.yul\":4281:4461   */\n    tag_133:\n        /* \"#utility.yul\":4329:4406   */\n      0x4e487b7100000000000000000000000000000000000000000000000000000000\n        /* \"#utility.yul\":4326:4327   */\n      0x00\n        /* \"#utility.yul\":4319:4407   */\n      mstore\n        /* \"#utility.yul\":4426:4430   */\n      0x21\n        /* \"#utility.yul\":4423:4424   */\n      0x04\n        /* \"#utility.yul\":4416:4431   */\n      mstore\n        /* \"#utility.yul\":4450:4454   */\n      0x24\n        /* \"#utility.yul\":4447:4448   */\n      0x00\n        /* \"#utility.yul\":4440:4455   */\n      revert\n        /* \"#utility.yul\":4467:4579   */\n    tag_252:\n        /* \"#utility.yul\":4547:4548   */\n      0x02\n        /* \"#utility.yul\":4540:4545   */\n      dup2\n        /* \"#utility.yul\":4537:4549   */\n      lt\n        /* \"#utility.yul\":4527:4573   */\n      tag_340\n      jumpi\n        /* \"#utility.yul\":4553:4571   */\n      tag_341\n      tag_133\n      jump\t// in\n    tag_341:\n        /* \"#utility.yul\":4527:4573   */\n    tag_340:\n        /* \"#utility.yul\":4467:4579   */\n      pop\n      jump\t// out\n        /* \"#utility.yul\":4585:4710   */\n    tag_253:\n        /* \"#utility.yul\":4629:4636   */\n      0x00\n        /* \"#utility.yul\":4658:4663   */\n      dup2\n        /* \"#utility.yul\":4647:4663   */\n      swap1\n      pop\n        /* \"#utility.yul\":4664:4704   */\n      tag_343\n        /* \"#utility.yul\":4698:4703   */\n      dup3\n        /* \"#utility.yul\":4664:4704   */\n      tag_252\n      jump\t// in\n    tag_343:\n        /* \"#utility.yul\":4585:4710   */\n      swap2\n      swap1\n      pop\n      jump\t// out\n        /* \"#utility.yul\":4716:4841   */\n    tag_254:\n        /* \"#utility.yul\":4771:4780   */\n      0x00\n        /* \"#utility.yul\":4804:4835   */\n      tag_345\n        /* \"#utility.yul\":4829:4834   */\n      dup3\n        /* \"#utility.yul\":4804:4835   */\n      tag_253\n      jump\t// in\n    tag_345:\n        /* \"#utility.yul\":4791:4835   */\n      swap1\n      pop\n        /* \"#utility.yul\":4716:4841   */\n      swap2\n      swap1\n      pop\n      jump\t// out\n        /* \"#utility.yul\":4847:4978   */\n    tag_255:\n        /* \"#utility.yul\":4929:4971   */\n      tag_347\n        /* \"#utility.yul\":4965:4970   */\n      dup2\n        /* \"#utility.yul\":4929:4971   */\n      tag_254\n      jump\t// in\n    tag_347:\n        /* \"#utility.yul\":4924:4927   */\n      dup3\n        /* \"#utility.yul\":4917:4972   */\n      mstore\n        /* \"#utility.yul\":4847:4978   */\n      pop\n      pop\n      jump\t// out\n        /* \"#utility.yul\":5040:6429   */\n    tag_256:\n        /* \"#utility.yul\":5169:5173   */\n      0xe0\n        /* \"#utility.yul\":5164:5167   */\n      dup3\n        /* \"#utility.yul\":5160:5174   */\n      add\n        /* \"#utility.yul\":5260:5264   */\n      0x00\n        /* \"#utility.yul\":5253:5258   */\n      dup3\n        /* \"#utility.yul\":5249:5265   */\n      add\n        /* \"#utility.yul\":5243:5266   */\n      mload\n        /* \"#utility.yul\":5279:5358   */\n      tag_349\n        /* \"#utility.yul\":5352:5356   */\n      0x00\n        /* \"#utility.yul\":5347:5350   */\n      dup6\n        /* \"#utility.yul\":5343:5357   */\n      add\n        /* \"#utility.yul\":5329:5341   */\n      dup3\n        /* \"#utility.yul\":5279:5358   */\n      tag_251\n      jump\t// in\n    tag_349:\n        /* \"#utility.yul\":5184:5368   */\n      pop\n        /* \"#utility.yul\":5451:5455   */\n      0x20\n        /* \"#utility.yul\":5444:5449   */\n      dup3\n        /* \"#utility.yul\":5440:5456   */\n      add\n        /* \"#utility.yul\":5434:5457   */\n      mload\n        /* \"#utility.yul\":5470:5533   */\n      tag_350\n        /* \"#utility.yul\":5527:5531   */\n      0x20\n        /* \"#utility.yul\":5522:5525   */\n      dup6\n        /* \"#utility.yul\":5518:5532   */\n      add\n        /* \"#utility.yul\":5504:5516   */\n      dup3\n        /* \"#utility.yul\":5470:5533   */\n      tag_236\n      jump\t// in\n    tag_350:\n        /* \"#utility.yul\":5378:5543   */\n      pop\n        /* \"#utility.yul\":5630:5634   */\n      0x40\n        /* \"#utility.yul\":5623:5628   */\n      dup3\n        /* \"#utility.yul\":5619:5635   */\n      add\n        /* \"#utility.yul\":5613:5636   */\n      mload\n        /* \"#utility.yul\":5649:5712   */\n      tag_351\n        /* \"#utility.yul\":5706:5710   */\n      0x40\n        /* \"#utility.yul\":5701:5704   */\n      dup6\n        /* \"#utility.yul\":5697:5711   */\n      add\n        /* \"#utility.yul\":5683:5695   */\n      dup3\n        /* \"#utility.yul\":5649:5712   */\n      tag_236\n      jump\t// in\n    tag_351:\n        /* \"#utility.yul\":5553:5722   */\n      pop\n        /* \"#utility.yul\":5805:5809   */\n      0x60\n        /* \"#utility.yul\":5798:5803   */\n      dup3\n        /* \"#utility.yul\":5794:5810   */\n      add\n        /* \"#utility.yul\":5788:5811   */\n      mload\n        /* \"#utility.yul\":5824:5892   */\n      tag_352\n        /* \"#utility.yul\":5886:5890   */\n      0x60\n        /* \"#utility.yul\":5881:5884   */\n      dup6\n        /* \"#utility.yul\":5877:5891   */\n      add\n        /* \"#utility.yul\":5863:5875   */\n      dup3\n        /* \"#utility.yul\":5824:5892   */\n      tag_255\n      jump\t// in\n    tag_352:\n        /* \"#utility.yul\":5732:5902   */\n      pop\n        /* \"#utility.yul\":5982:5986   */\n      0x80\n        /* \"#utility.yul\":5975:5980   */\n      dup3\n        /* \"#utility.yul\":5971:5987   */\n      add\n        /* \"#utility.yul\":5965:5988   */\n      mload\n        /* \"#utility.yul\":6001:6064   */\n      tag_353\n        /* \"#utility.yul\":6058:6062   */\n      0x80\n        /* \"#utility.yul\":6053:6056   */\n      dup6\n        /* \"#utility.yul\":6049:6063   */\n      add\n        /* \"#utility.yul\":6035:6047   */\n      dup3\n        /* \"#utility.yul\":6001:6064   */\n      tag_236\n      jump\t// in\n    tag_353:\n        /* \"#utility.yul\":5912:6074   */\n      pop\n        /* \"#utility.yul\":6156:6160   */\n      0xa0\n        /* \"#utility.yul\":6149:6154   */\n      dup3\n        /* \"#utility.yul\":6145:6161   */\n      add\n        /* \"#utility.yul\":6139:6162   */\n      mload\n        /* \"#utility.yul\":6175:6238   */\n      tag_354\n        /* \"#utility.yul\":6232:6236   */\n      0xa0\n        /* \"#utility.yul\":6227:6230   */\n      dup6\n        /* \"#utility.yul\":6223:6237   */\n      add\n        /* \"#utility.yul\":6209:6221   */\n      dup3\n        /* \"#utility.yul\":6175:6238   */\n      tag_236\n      jump\t// in\n    tag_354:\n        /* \"#utility.yul\":6084:6248   */\n      pop\n        /* \"#utility.yul\":6330:6334   */\n      0xc0\n        /* \"#utility.yul\":6323:6328   */\n      dup3\n        /* \"#utility.yul\":6319:6335   */\n      add\n        /* \"#utility.yul\":6313:6336   */\n      mload\n        /* \"#utility.yul\":6349:6412   */\n      tag_355\n        /* \"#utility.yul\":6406:6410   */\n      0xc0\n        /* \"#utility.yul\":6401:6404   */\n      dup6\n        /* \"#utility.yul\":6397:6411   */\n      add\n        /* \"#utility.yul\":6383:6395   */\n      dup3\n        /* \"#utility.yul\":6349:6412   */\n      tag_236\n      jump\t// in\n    tag_355:\n        /* \"#utility.yul\":6258:6422   */\n      pop\n        /* \"#utility.yul\":5138:6429   */\n      pop\n        /* \"#utility.yul\":5040:6429   */\n      pop\n      pop\n      jump\t// out\n        /* \"#utility.yul\":6435:6698   */\n    tag_257:\n        /* \"#utility.yul\":6546:6556   */\n      0x00\n        /* \"#utility.yul\":6567:6655   */\n      tag_357\n        /* \"#utility.yul\":6651:6654   */\n      dup4\n        /* \"#utility.yul\":6643:6649   */\n      dup4\n        /* \"#utility.yul\":6567:6655   */\n      tag_256\n      jump\t// in\n    tag_357:\n        /* \"#utility.yul\":6687:6691   */\n      0xe0\n        /* \"#utility.yul\":6682:6685   */\n      dup4\n        /* \"#utility.yul\":6678:6692   */\n      add\n        /* \"#utility.yul\":6664:6692   */\n      swap1\n      pop\n        /* \"#utility.yul\":6435:6698   */\n      swap3\n      swap2\n      pop\n      pop\n      jump\t// out\n        /* \"#utility.yul\":6704:6838   */\n    tag_258:\n        /* \"#utility.yul\":6795:6799   */\n      0x00\n        /* \"#utility.yul\":6827:6831   */\n      0x20\n        /* \"#utility.yul\":6822:6825   */\n      dup3\n        /* \"#utility.yul\":6818:6832   */\n      add\n        /* \"#utility.yul\":6810:6832   */\n      swap1\n      pop\n        /* \"#utility.yul\":6704:6838   */\n      swap2\n      swap1\n      pop\n      jump\t// out\n        /* \"#utility.yul\":6904:7804   */\n    tag_259:\n        /* \"#utility.yul\":7065:7068   */\n      0x00\n        /* \"#utility.yul\":7094:7169   */\n      tag_360\n        /* \"#utility.yul\":7163:7168   */\n      dup3\n        /* \"#utility.yul\":7094:7169   */\n      tag_246\n      jump\t// in\n    tag_360:\n        /* \"#utility.yul\":7185:7292   */\n      tag_361\n        /* \"#utility.yul\":7285:7291   */\n      dup2\n        /* \"#utility.yul\":7280:7283   */\n      dup6\n        /* \"#utility.yul\":7185:7292   */\n      tag_247\n      jump\t// in\n    tag_361:\n        /* \"#utility.yul\":7178:7292   */\n      swap4\n      pop\n        /* \"#utility.yul\":7316:7393   */\n      tag_362\n        /* \"#utility.yul\":7387:7392   */\n      dup4\n        /* \"#utility.yul\":7316:7393   */\n      tag_248\n      jump\t// in\n    tag_362:\n        /* \"#utility.yul\":7416:7423   */\n      dup1\n        /* \"#utility.yul\":7447:7448   */\n      0x00\n        /* \"#utility.yul\":7432:7779   */\n    tag_363:\n        /* \"#utility.yul\":7457:7463   */\n      dup4\n        /* \"#utility.yul\":7454:7455   */\n      dup2\n        /* \"#utility.yul\":7451:7464   */\n      lt\n        /* \"#utility.yul\":7432:7779   */\n      iszero\n      tag_365\n      jumpi\n        /* \"#utility.yul\":7533:7539   */\n      dup2\n        /* \"#utility.yul\":7527:7540   */\n      mload\n        /* \"#utility.yul\":7560:7665   */\n      tag_366\n        /* \"#utility.yul\":7661:7664   */\n      dup9\n        /* \"#utility.yul\":7646:7659   */\n      dup3\n        /* \"#utility.yul\":7560:7665   */\n      tag_257\n      jump\t// in\n    tag_366:\n        /* \"#utility.yul\":7553:7665   */\n      swap8\n      pop\n        /* \"#utility.yul\":7688:7769   */\n      tag_367\n        /* \"#utility.yul\":7762:7768   */\n      dup4\n        /* \"#utility.yul\":7688:7769   */\n      tag_258\n      jump\t// in\n    tag_367:\n        /* \"#utility.yul\":7678:7769   */\n      swap3\n      pop\n        /* \"#utility.yul\":7492:7779   */\n      pop\n        /* \"#utility.yul\":7479:7480   */\n      0x01\n        /* \"#utility.yul\":7476:7477   */\n      dup2\n        /* \"#utility.yul\":7472:7481   */\n      add\n        /* \"#utility.yul\":7467:7481   */\n      swap1\n      pop\n        /* \"#utility.yul\":7432:7779   */\n      jump(tag_363)\n    tag_365:\n        /* \"#utility.yul\":7436:7450   */\n      pop\n        /* \"#utility.yul\":7795:7798   */\n      dup6\n        /* \"#utility.yul\":7788:7798   */\n      swap4\n      pop\n        /* \"#utility.yul\":7070:7804   */\n      pop\n      pop\n      pop\n        /* \"#utility.yul\":6904:7804   */\n      swap3\n      swap2\n      pop\n      pop\n      jump\t// out\n        /* \"#utility.yul\":7810:8267   */\n    tag_47:\n        /* \"#utility.yul\":7995:7999   */\n      0x00\n        /* \"#utility.yul\":8033:8035   */\n      0x20\n        /* \"#utility.yul\":8022:8031   */\n      dup3\n        /* \"#utility.yul\":8018:8036   */\n      add\n        /* \"#utility.yul\":8010:8036   */\n      swap1\n      pop\n        /* \"#utility.yul\":8082:8091   */\n      dup2\n        /* \"#utility.yul\":8076:8080   */\n      dup2\n        /* \"#utility.yul\":8072:8092   */\n      sub\n        /* \"#utility.yul\":8068:8069   */\n      0x00\n        /* \"#utility.yul\":8057:8066   */\n      dup4\n        /* \"#utility.yul\":8053:8070   */\n      add\n        /* \"#utility.yul\":8046:8093   */\n      mstore\n        /* \"#utility.yul\":8110:8260   */\n      tag_369\n        /* \"#utility.yul\":8255:8259   */\n      dup2\n        /* \"#utility.yul\":8246:8252   */\n      dup5\n        /* \"#utility.yul\":8110:8260   */\n      tag_259\n      jump\t// in\n    tag_369:\n        /* \"#utility.yul\":8102:8260   */\n      swap1\n      pop\n        /* \"#utility.yul\":7810:8267   */\n      swap3\n      swap2\n      pop\n      pop\n      jump\t// out\n        /* \"#utility.yul\":8273:8372   */\n    tag_260:\n        /* \"#utility.yul\":8325:8331   */\n      0x00\n        /* \"#utility.yul\":8359:8364   */\n      dup2\n        /* \"#utility.yul\":8353:8365   */\n      mload\n        /* \"#utility.yul\":8343:8365   */\n      swap1\n      pop\n        /* \"#utility.yul\":8273:8372   */\n      swap2\n      swap1\n      pop\n      jump\t// out\n        /* \"#utility.yul\":8378:8547   */\n    tag_261:\n        /* \"#utility.yul\":8462:8473   */\n      0x00\n        /* \"#utility.yul\":8496:8502   */\n      dup3\n        /* \"#utility.yul\":8491:8494   */\n      dup3\n        /* \"#utility.yul\":8484:8503   */\n      mstore\n        /* \"#utility.yul\":8536:8540   */\n      0x20\n        /* \"#utility.yul\":8531:8534   */\n      dup3\n        /* \"#utility.yul\":8527:8541   */\n      add\n        /* \"#utility.yul\":8512:8541   */\n      swap1\n      pop\n        /* \"#utility.yul\":8378:8547   */\n      swap3\n      swap2\n      pop\n      pop\n      jump\t// out\n        /* \"#utility.yul\":8553:8860   */\n    tag_262:\n        /* \"#utility.yul\":8621:8622   */\n      0x00\n        /* \"#utility.yul\":8631:8744   */\n    tag_373:\n        /* \"#utility.yul\":8645:8651   */\n      dup4\n        /* \"#utility.yul\":8642:8643   */\n      dup2\n        /* \"#utility.yul\":8639:8652   */\n      lt\n        /* \"#utility.yul\":8631:8744   */\n      iszero\n      tag_375\n      jumpi\n        /* \"#utility.yul\":8730:8731   */\n      dup1\n        /* \"#utility.yul\":8725:8728   */\n      dup3\n        /* \"#utility.yul\":8721:8732   */\n      add\n        /* \"#utility.yul\":8715:8733   */\n      mload\n        /* \"#utility.yul\":8711:8712   */\n      dup2\n        /* \"#utility.yul\":8706:8709   */\n      dup5\n        /* \"#utility.yul\":8702:8713   */\n      add\n        /* \"#utility.yul\":8695:8734   */\n      mstore\n        /* \"#utility.yul\":8667:8669   */\n      0x20\n        /* \"#utility.yul\":8664:8665   */\n      dup2\n        /* \"#utility.yul\":8660:8670   */\n      add\n        /* \"#utility.yul\":8655:8670   */\n      swap1\n      pop\n        /* \"#utility.yul\":8631:8744   */\n      jump(tag_373)\n    tag_375:\n        /* \"#utility.yul\":8762:8768   */\n      dup4\n        /* \"#utility.yul\":8759:8760   */\n      dup2\n        /* \"#utility.yul\":8756:8769   */\n      gt\n        /* \"#utility.yul\":8753:8854   */\n      iszero\n      tag_376\n      jumpi\n        /* \"#utility.yul\":8842:8843   */\n      0x00\n        /* \"#utility.yul\":8833:8839   */\n      dup5\n        /* \"#utility.yul\":8828:8831   */\n      dup5\n        /* \"#utility.yul\":8824:8840   */\n      add\n        /* \"#utility.yul\":8817:8844   */\n      mstore\n        /* \"#utility.yul\":8753:8854   */\n    tag_376:\n        /* \"#utility.yul\":8602:8860   */\n      pop\n        /* \"#utility.yul\":8553:8860   */\n      pop\n      pop\n      pop\n      jump\t// out\n        /* \"#utility.yul\":8866:8968   */\n    tag_263:\n        /* \"#utility.yul\":8907:8913   */\n      0x00\n        /* \"#utility.yul\":8958:8960   */\n      0x1f\n        /* \"#utility.yul\":8954:8961   */\n      not\n        /* \"#utility.yul\":8949:8951   */\n      0x1f\n        /* \"#utility.yul\":8942:8947   */\n      dup4\n        /* \"#utility.yul\":8938:8952   */\n      add\n        /* \"#utility.yul\":8934:8962   */\n      and\n        /* \"#utility.yul\":8924:8962   */\n      swap1\n      pop\n        /* \"#utility.yul\":8866:8968   */\n      swap2\n      swap1\n      pop\n      jump\t// out\n        /* \"#utility.yul\":8974:9338   */\n    tag_264:\n        /* \"#utility.yul\":9062:9065   */\n      0x00\n        /* \"#utility.yul\":9090:9129   */\n      tag_379\n        /* \"#utility.yul\":9123:9128   */\n      dup3\n        /* \"#utility.yul\":9090:9129   */\n      tag_260\n      jump\t// in\n    tag_379:\n        /* \"#utility.yul\":9145:9216   */\n      tag_380\n        /* \"#utility.yul\":9209:9215   */\n      dup2\n        /* \"#utility.yul\":9204:9207   */\n      dup6\n        /* \"#utility.yul\":9145:9216   */\n      tag_261\n      jump\t// in\n    tag_380:\n        /* \"#utility.yul\":9138:9216   */\n      swap4\n      pop\n        /* \"#utility.yul\":9225:9277   */\n      tag_381\n        /* \"#utility.yul\":9270:9276   */\n      dup2\n        /* \"#utility.yul\":9265:9268   */\n      dup6\n        /* \"#utility.yul\":9258:9262   */\n      0x20\n        /* \"#utility.yul\":9251:9256   */\n      dup7\n        /* \"#utility.yul\":9247:9263   */\n      add\n        /* \"#utility.yul\":9225:9277   */\n      tag_262\n      jump\t// in\n    tag_381:\n        /* \"#utility.yul\":9302:9331   */\n      tag_382\n        /* \"#utility.yul\":9324:9330   */\n      dup2\n        /* \"#utility.yul\":9302:9331   */\n      tag_263\n      jump\t// in\n    tag_382:\n        /* \"#utility.yul\":9297:9300   */\n      dup5\n        /* \"#utility.yul\":9293:9332   */\n      add\n        /* \"#utility.yul\":9286:9332   */\n      swap2\n      pop\n        /* \"#utility.yul\":9066:9338   */\n      pop\n        /* \"#utility.yul\":8974:9338   */\n      swap3\n      swap2\n      pop\n      pop\n      jump\t// out\n        /* \"#utility.yul\":9344:9657   */\n    tag_52:\n        /* \"#utility.yul\":9457:9461   */\n      0x00\n        /* \"#utility.yul\":9495:9497   */\n      0x20\n        /* \"#utility.yul\":9484:9493   */\n      dup3\n        /* \"#utility.yul\":9480:9498   */\n      add\n        /* \"#utility.yul\":9472:9498   */\n      swap1\n      pop\n        /* \"#utility.yul\":9544:9553   */\n      dup2\n        /* \"#utility.yul\":9538:9542   */\n      dup2\n        /* \"#utility.yul\":9534:9554   */\n      sub\n        /* \"#utility.yul\":9530:9531   */\n      0x00\n        /* \"#utility.yul\":9519:9528   */\n      dup4\n        /* \"#utility.yul\":9515:9532   */\n      add\n        /* \"#utility.yul\":9508:9555   */\n      mstore\n        /* \"#utility.yul\":9572:9650   */\n      tag_384\n        /* \"#utility.yul\":9645:9649   */\n      dup2\n        /* \"#utility.yul\":9636:9642   */\n      dup5\n        /* \"#utility.yul\":9572:9650   */\n      tag_264\n      jump\t// in\n    tag_384:\n        /* \"#utility.yul\":9564:9650   */\n      swap1\n      pop\n        /* \"#utility.yul\":9344:9657   */\n      swap3\n      swap2\n      pop\n      pop\n      jump\t// out\n        /* \"#utility.yul\":9663:9804   */\n    tag_265:\n        /* \"#utility.yul\":9755:9797   */\n      tag_386\n        /* \"#utility.yul\":9791:9796   */\n      dup2\n        /* \"#utility.yul\":9755:9797   */\n      tag_254\n      jump\t// in\n    tag_386:\n        /* \"#utility.yul\":9750:9753   */\n      dup3\n        /* \"#utility.yul\":9743:9798   */\n      mstore\n        /* \"#utility.yul\":9663:9804   */\n      pop\n      pop\n      jump\t// out\n        /* \"#utility.yul\":9810:10042   */\n    tag_58:\n        /* \"#utility.yul\":9908:9912   */\n      0x00\n        /* \"#utility.yul\":9946:9948   */\n      0x20\n        /* \"#utility.yul\":9935:9944   */\n      dup3\n        /* \"#utility.yul\":9931:9949   */\n      add\n        /* \"#utility.yul\":9923:9949   */\n      swap1\n      pop\n        /* \"#utility.yul\":9959:10035   */\n      tag_388\n        /* \"#utility.yul\":10032:10033   */\n      0x00\n        /* \"#utility.yul\":10021:10030   */\n      dup4\n        /* \"#utility.yul\":10017:10034   */\n      add\n        /* \"#utility.yul\":10008:10014   */\n      dup5\n        /* \"#utility.yul\":9959:10035   */\n      tag_265\n      jump\t// in\n    tag_388:\n        /* \"#utility.yul\":9810:10042   */\n      swap3\n      swap2\n      pop\n      pop\n      jump\t// out\n        /* \"#utility.yul\":10048:10190   */\n    tag_266:\n        /* \"#utility.yul\":10151:10183   */\n      tag_390\n        /* \"#utility.yul\":10177:10182   */\n      dup2\n        /* \"#utility.yul\":10151:10183   */\n      tag_250\n      jump\t// in\n    tag_390:\n        /* \"#utility.yul\":10146:10149   */\n      dup3\n        /* \"#utility.yul\":10139:10184   */\n      mstore\n        /* \"#utility.yul\":10048:10190   */\n      pop\n      pop\n      jump\t// out\n        /* \"#utility.yul\":10196:10450   */\n    tag_64:\n        /* \"#utility.yul\":10305:10309   */\n      0x00\n        /* \"#utility.yul\":10343:10345   */\n      0x20\n        /* \"#utility.yul\":10332:10341   */\n      dup3\n        /* \"#utility.yul\":10328:10346   */\n      add\n        /* \"#utility.yul\":10320:10346   */\n      swap1\n      pop\n        /* \"#utility.yul\":10356:10443   */\n      tag_392\n        /* \"#utility.yul\":10440:10441   */\n      0x00\n        /* \"#utility.yul\":10429:10438   */\n      dup4\n        /* \"#utility.yul\":10425:10442   */\n      add\n        /* \"#utility.yul\":10416:10422   */\n      dup5\n        /* \"#utility.yul\":10356:10443   */\n      tag_266\n      jump\t// in\n    tag_392:\n        /* \"#utility.yul\":10196:10450   */\n      swap3\n      swap2\n      pop\n      pop\n      jump\t// out\n        /* \"#utility.yul\":10456:10533   */\n    tag_267:\n        /* \"#utility.yul\":10493:10500   */\n      0x00\n        /* \"#utility.yul\":10522:10527   */\n      dup2\n        /* \"#utility.yul\":10511:10527   */\n      swap1\n      pop\n        /* \"#utility.yul\":10456:10533   */\n      swap2\n      swap1\n      pop\n      jump\t// out\n        /* \"#utility.yul\":10539:10661   */\n    tag_268:\n        /* \"#utility.yul\":10612:10636   */\n      tag_395\n        /* \"#utility.yul\":10630:10635   */\n      dup2\n        /* \"#utility.yul\":10612:10636   */\n      tag_267\n      jump\t// in\n    tag_395:\n        /* \"#utility.yul\":10605:10610   */\n      dup2\n        /* \"#utility.yul\":10602:10637   */\n      eq\n        /* \"#utility.yul\":10592:10655   */\n      tag_396\n      jumpi\n        /* \"#utility.yul\":10651:10652   */\n      0x00\n        /* \"#utility.yul\":10648:10649   */\n      dup1\n        /* \"#utility.yul\":10641:10653   */\n      revert\n        /* \"#utility.yul\":10592:10655   */\n    tag_396:\n        /* \"#utility.yul\":10539:10661   */\n      pop\n      jump\t// out\n        /* \"#utility.yul\":10667:10806   */\n    tag_269:\n        /* \"#utility.yul\":10713:10718   */\n      0x00\n        /* \"#utility.yul\":10751:10757   */\n      dup2\n        /* \"#utility.yul\":10738:10758   */\n      calldataload\n        /* \"#utility.yul\":10729:10758   */\n      swap1\n      pop\n        /* \"#utility.yul\":10767:10800   */\n      tag_398\n        /* \"#utility.yul\":10794:10799   */\n      dup2\n        /* \"#utility.yul\":10767:10800   */\n      tag_268\n      jump\t// in\n    tag_398:\n        /* \"#utility.yul\":10667:10806   */\n      swap3\n      swap2\n      pop\n      pop\n      jump\t// out\n        /* \"#utility.yul\":10812:11286   */\n    tag_80:\n        /* \"#utility.yul\":10880:10886   */\n      0x00\n        /* \"#utility.yul\":10888:10894   */\n      dup1\n        /* \"#utility.yul\":10937:10939   */\n      0x40\n        /* \"#utility.yul\":10925:10934   */\n      dup4\n        /* \"#utility.yul\":10916:10923   */\n      dup6\n        /* \"#utility.yul\":10912:10935   */\n      sub\n        /* \"#utility.yul\":10908:10940   */\n      slt\n        /* \"#utility.yul\":10905:11024   */\n      iszero\n      tag_400\n      jumpi\n        /* \"#utility.yul\":10943:11022   */\n      tag_401\n      tag_241\n      jump\t// in\n    tag_401:\n        /* \"#utility.yul\":10905:11024   */\n    tag_400:\n        /* \"#utility.yul\":11063:11064   */\n      0x00\n        /* \"#utility.yul\":11088:11141   */\n      tag_402\n        /* \"#utility.yul\":11133:11140   */\n      dup6\n        /* \"#utility.yul\":11124:11130   */\n      dup3\n        /* \"#utility.yul\":11113:11122   */\n      dup7\n        /* \"#utility.yul\":11109:11131   */\n      add\n        /* \"#utility.yul\":11088:11141   */\n      tag_244\n      jump\t// in\n    tag_402:\n        /* \"#utility.yul\":11078:11141   */\n      swap3\n      pop\n        /* \"#utility.yul\":11034:11151   */\n      pop\n        /* \"#utility.yul\":11190:11192   */\n      0x20\n        /* \"#utility.yul\":11216:11269   */\n      tag_403\n        /* \"#utility.yul\":11261:11268   */\n      dup6\n        /* \"#utility.yul\":11252:11258   */\n      dup3\n        /* \"#utility.yul\":11241:11250   */\n      dup7\n        /* \"#utility.yul\":11237:11259   */\n      add\n        /* \"#utility.yul\":11216:11269   */\n      tag_269\n      jump\t// in\n    tag_403:\n        /* \"#utility.yul\":11206:11269   */\n      swap2\n      pop\n        /* \"#utility.yul\":11161:11279   */\n      pop\n        /* \"#utility.yul\":10812:11286   */\n      swap3\n      pop\n      swap3\n      swap1\n      pop\n      jump\t// out\n        /* \"#utility.yul\":11292:11382   */\n    tag_270:\n        /* \"#utility.yul\":11326:11333   */\n      0x00\n        /* \"#utility.yul\":11369:11374   */\n      dup2\n        /* \"#utility.yul\":11362:11375   */\n      iszero\n        /* \"#utility.yul\":11355:11376   */\n      iszero\n        /* \"#utility.yul\":11344:11376   */\n      swap1\n      pop\n        /* \"#utility.yul\":11292:11382   */\n      swap2\n      swap1\n      pop\n      jump\t// out\n        /* \"#utility.yul\":11388:11497   */\n    tag_271:\n        /* \"#utility.yul\":11469:11490   */\n      tag_406\n        /* \"#utility.yul\":11484:11489   */\n      dup2\n        /* \"#utility.yul\":11469:11490   */\n      tag_270\n      jump\t// in\n    tag_406:\n        /* \"#utility.yul\":11464:11467   */\n      dup3\n        /* \"#utility.yul\":11457:11491   */\n      mstore\n        /* \"#utility.yul\":11388:11497   */\n      pop\n      pop\n      jump\t// out\n        /* \"#utility.yul\":11503:12530   */\n    tag_120:\n        /* \"#utility.yul\":11807:11811   */\n      0x00\n        /* \"#utility.yul\":11845:11848   */\n      0x0100\n        /* \"#utility.yul\":11834:11843   */\n      dup3\n        /* \"#utility.yul\":11830:11849   */\n      add\n        /* \"#utility.yul\":11822:11849   */\n      swap1\n      pop\n        /* \"#utility.yul\":11859:11946   */\n      tag_408\n        /* \"#utility.yul\":11943:11944   */\n      0x00\n        /* \"#utility.yul\":11932:11941   */\n      dup4\n        /* \"#utility.yul\":11928:11945   */\n      add\n        /* \"#utility.yul\":11919:11925   */\n      dup12\n        /* \"#utility.yul\":11859:11946   */\n      tag_266\n      jump\t// in\n    tag_408:\n        /* \"#utility.yul\":11956:12028   */\n      tag_409\n        /* \"#utility.yul\":12024:12026   */\n      0x20\n        /* \"#utility.yul\":12013:12022   */\n      dup4\n        /* \"#utility.yul\":12009:12027   */\n      add\n        /* \"#utility.yul\":12000:12006   */\n      dup11\n        /* \"#utility.yul\":11956:12028   */\n      tag_245\n      jump\t// in\n    tag_409:\n        /* \"#utility.yul\":12038:12110   */\n      tag_410\n        /* \"#utility.yul\":12106:12108   */\n      0x40\n        /* \"#utility.yul\":12095:12104   */\n      dup4\n        /* \"#utility.yul\":12091:12109   */\n      add\n        /* \"#utility.yul\":12082:12088   */\n      dup10\n        /* \"#utility.yul\":12038:12110   */\n      tag_245\n      jump\t// in\n    tag_410:\n        /* \"#utility.yul\":12120:12197   */\n      tag_411\n        /* \"#utility.yul\":12193:12195   */\n      0x60\n        /* \"#utility.yul\":12182:12191   */\n      dup4\n        /* \"#utility.yul\":12178:12196   */\n      add\n        /* \"#utility.yul\":12169:12175   */\n      dup9\n        /* \"#utility.yul\":12120:12197   */\n      tag_265\n      jump\t// in\n    tag_411:\n        /* \"#utility.yul\":12207:12280   */\n      tag_412\n        /* \"#utility.yul\":12275:12278   */\n      0x80\n        /* \"#utility.yul\":12264:12273   */\n      dup4\n        /* \"#utility.yul\":12260:12279   */\n      add\n        /* \"#utility.yul\":12251:12257   */\n      dup8\n        /* \"#utility.yul\":12207:12280   */\n      tag_245\n      jump\t// in\n    tag_412:\n        /* \"#utility.yul\":12290:12363   */\n      tag_413\n        /* \"#utility.yul\":12358:12361   */\n      0xa0\n        /* \"#utility.yul\":12347:12356   */\n      dup4\n        /* \"#utility.yul\":12343:12362   */\n      add\n        /* \"#utility.yul\":12334:12340   */\n      dup7\n        /* \"#utility.yul\":12290:12363   */\n      tag_245\n      jump\t// in\n    tag_413:\n        /* \"#utility.yul\":12373:12446   */\n      tag_414\n        /* \"#utility.yul\":12441:12444   */\n      0xc0\n        /* \"#utility.yul\":12430:12439   */\n      dup4\n        /* \"#utility.yul\":12426:12445   */\n      add\n        /* \"#utility.yul\":12417:12423   */\n      dup6\n        /* \"#utility.yul\":12373:12446   */\n      tag_245\n      jump\t// in\n    tag_414:\n        /* \"#utility.yul\":12456:12523   */\n      tag_415\n        /* \"#utility.yul\":12518:12521   */\n      0xe0\n        /* \"#utility.yul\":12507:12516   */\n      dup4\n        /* \"#utility.yul\":12503:12522   */\n      add\n        /* \"#utility.yul\":12494:12500   */\n      dup5\n        /* \"#utility.yul\":12456:12523   */\n      tag_271\n      jump\t// in\n    tag_415:\n        /* \"#utility.yul\":11503:12530   */\n      swap10\n      swap9\n      pop\n      pop\n      pop\n      pop\n      pop\n      pop\n      pop\n      pop\n      pop\n      jump\t// out\n        /* \"#utility.yul\":12536:12699   */\n    tag_272:\n        /* \"#utility.yul\":12676:12691   */\n      0x4f726465722050656e64696e6700000000000000000000000000000000000000\n        /* \"#utility.yul\":12672:12673   */\n      0x00\n        /* \"#utility.yul\":12664:12670   */\n      dup3\n        /* \"#utility.yul\":12660:12674   */\n      add\n        /* \"#utility.yul\":12653:12692   */\n      mstore\n        /* \"#utility.yul\":12536:12699   */\n      pop\n      jump\t// out\n        /* \"#utility.yul\":12705:13071   */\n    tag_273:\n        /* \"#utility.yul\":12847:12850   */\n      0x00\n        /* \"#utility.yul\":12868:12935   */\n      tag_418\n        /* \"#utility.yul\":12932:12934   */\n      0x0d\n        /* \"#utility.yul\":12927:12930   */\n      dup4\n        /* \"#utility.yul\":12868:12935   */\n      tag_261\n      jump\t// in\n    tag_418:\n        /* \"#utility.yul\":12861:12935   */\n      swap2\n      pop\n        /* \"#utility.yul\":12944:13037   */\n      tag_419\n        /* \"#utility.yul\":13033:13036   */\n      dup3\n        /* \"#utility.yul\":12944:13037   */\n      tag_272\n      jump\t// in\n    tag_419:\n        /* \"#utility.yul\":13062:13064   */\n      0x20\n        /* \"#utility.yul\":13057:13060   */\n      dup3\n        /* \"#utility.yul\":13053:13065   */\n      add\n        /* \"#utility.yul\":13046:13065   */\n      swap1\n      pop\n        /* \"#utility.yul\":12705:13071   */\n      swap2\n      swap1\n      pop\n      jump\t// out\n        /* \"#utility.yul\":13077:13496   */\n    tag_143:\n        /* \"#utility.yul\":13243:13247   */\n      0x00\n        /* \"#utility.yul\":13281:13283   */\n      0x20\n        /* \"#utility.yul\":13270:13279   */\n      dup3\n        /* \"#utility.yul\":13266:13284   */\n      add\n        /* \"#utility.yul\":13258:13284   */\n      swap1\n      pop\n        /* \"#utility.yul\":13330:13339   */\n      dup2\n        /* \"#utility.yul\":13324:13328   */\n      dup2\n        /* \"#utility.yul\":13320:13340   */\n      sub\n        /* \"#utility.yul\":13316:13317   */\n      0x00\n        /* \"#utility.yul\":13305:13314   */\n      dup4\n        /* \"#utility.yul\":13301:13318   */\n      add\n        /* \"#utility.yul\":13294:13341   */\n      mstore\n        /* \"#utility.yul\":13358:13489   */\n      tag_421\n        /* \"#utility.yul\":13484:13488   */\n      dup2\n        /* \"#utility.yul\":13358:13489   */\n      tag_273\n      jump\t// in\n    tag_421:\n        /* \"#utility.yul\":13350:13489   */\n      swap1\n      pop\n        /* \"#utility.yul\":13077:13496   */\n      swap2\n      swap1\n      pop\n      jump\t// out\n        /* \"#utility.yul\":13502:13666   */\n    tag_274:\n        /* \"#utility.yul\":13642:13658   */\n      0x4e6f7420417574686f7269736564000000000000000000000000000000000000\n        /* \"#utility.yul\":13638:13639   */\n      0x00\n        /* \"#utility.yul\":13630:13636   */\n      dup3\n        /* \"#utility.yul\":13626:13640   */\n      add\n        /* \"#utility.yul\":13619:13659   */\n      mstore\n        /* \"#utility.yul\":13502:13666   */\n      pop\n      jump\t// out\n        /* \"#utility.yul\":13672:14038   */\n    tag_275:\n        /* \"#utility.yul\":13814:13817   */\n      0x00\n        /* \"#utility.yul\":13835:13902   */\n      tag_424\n        /* \"#utility.yul\":13899:13901   */\n      0x0e\n        /* \"#utility.yul\":13894:13897   */\n      dup4\n        /* \"#utility.yul\":13835:13902   */\n      tag_261\n      jump\t// in\n    tag_424:\n        /* \"#utility.yul\":13828:13902   */\n      swap2\n      pop\n        /* \"#utility.yul\":13911:14004   */\n      tag_425\n        /* \"#utility.yul\":14000:14003   */\n      dup3\n        /* \"#utility.yul\":13911:14004   */\n      tag_274\n      jump\t// in\n    tag_425:\n        /* \"#utility.yul\":14029:14031   */\n      0x20\n        /* \"#utility.yul\":14024:14027   */\n      dup3\n        /* \"#utility.yul\":14020:14032   */\n      add\n        /* \"#utility.yul\":14013:14032   */\n      swap1\n      pop\n        /* \"#utility.yul\":13672:14038   */\n      swap2\n      swap1\n      pop\n      jump\t// out\n        /* \"#utility.yul\":14044:14463   */\n    tag_151:\n        /* \"#utility.yul\":14210:14214   */\n      0x00\n        /* \"#utility.yul\":14248:14250   */\n      0x20\n        /* \"#utility.yul\":14237:14246   */\n      dup3\n        /* \"#utility.yul\":14233:14251   */\n      add\n        /* \"#utility.yul\":14225:14251   */\n      swap1\n      pop\n        /* \"#utility.yul\":14297:14306   */\n      dup2\n        /* \"#utility.yul\":14291:14295   */\n      dup2\n        /* \"#utility.yul\":14287:14307   */\n      sub\n        /* \"#utility.yul\":14283:14284   */\n      0x00\n        /* \"#utility.yul\":14272:14281   */\n      dup4\n        /* \"#utility.yul\":14268:14285   */\n      add\n        /* \"#utility.yul\":14261:14308   */\n      mstore\n        /* \"#utility.yul\":14325:14456   */\n      tag_427\n        /* \"#utility.yul\":14451:14455   */\n      dup2\n        /* \"#utility.yul\":14325:14456   */\n      tag_275\n      jump\t// in\n    tag_427:\n        /* \"#utility.yul\":14317:14456   */\n      swap1\n      pop\n        /* \"#utility.yul\":14044:14463   */\n      swap2\n      swap1\n      pop\n      jump\t// out\n        /* \"#utility.yul\":14469:14650   */\n    tag_276:\n        /* \"#utility.yul\":14609:14642   */\n      0x70726963652076616c7565206d757374206265206d6f7265207468616e203000\n        /* \"#utility.yul\":14605:14606   */\n      0x00\n        /* \"#utility.yul\":14597:14603   */\n      dup3\n        /* \"#utility.yul\":14593:14607   */\n      add\n        /* \"#utility.yul\":14586:14643   */\n      mstore\n        /* \"#utility.yul\":14469:14650   */\n      pop\n      jump\t// out\n        /* \"#utility.yul\":14656:15022   */\n    tag_277:\n        /* \"#utility.yul\":14798:14801   */\n      0x00\n        /* \"#utility.yul\":14819:14886   */\n      tag_430\n        /* \"#utility.yul\":14883:14885   */\n      0x1f\n        /* \"#utility.yul\":14878:14881   */\n      dup4\n        /* \"#utility.yul\":14819:14886   */\n      tag_261\n      jump\t// in\n    tag_430:\n        /* \"#utility.yul\":14812:14886   */\n      swap2\n      pop\n        /* \"#utility.yul\":14895:14988   */\n      tag_431\n        /* \"#utility.yul\":14984:14987   */\n      dup3\n        /* \"#utility.yul\":14895:14988   */\n      tag_276\n      jump\t// in\n    tag_431:\n        /* \"#utility.yul\":15013:15015   */\n      0x20\n        /* \"#utility.yul\":15008:15011   */\n      dup3\n        /* \"#utility.yul\":15004:15016   */\n      add\n        /* \"#utility.yul\":14997:15016   */\n      swap1\n      pop\n        /* \"#utility.yul\":14656:15022   */\n      swap2\n      swap1\n      pop\n      jump\t// out\n        /* \"#utility.yul\":15028:15447   */\n    tag_164:\n        /* \"#utility.yul\":15194:15198   */\n      0x00\n        /* \"#utility.yul\":15232:15234   */\n      0x20\n        /* \"#utility.yul\":15221:15230   */\n      dup3\n        /* \"#utility.yul\":15217:15235   */\n      add\n        /* \"#utility.yul\":15209:15235   */\n      swap1\n      pop\n        /* \"#utility.yul\":15281:15290   */\n      dup2\n        /* \"#utility.yul\":15275:15279   */\n      dup2\n        /* \"#utility.yul\":15271:15291   */\n      sub\n        /* \"#utility.yul\":15267:15268   */\n      0x00\n        /* \"#utility.yul\":15256:15265   */\n      dup4\n        /* \"#utility.yul\":15252:15269   */\n      add\n        /* \"#utility.yul\":15245:15292   */\n      mstore\n        /* \"#utility.yul\":15309:15440   */\n      tag_433\n        /* \"#utility.yul\":15435:15439   */\n      dup2\n        /* \"#utility.yul\":15309:15440   */\n      tag_277\n      jump\t// in\n    tag_433:\n        /* \"#utility.yul\":15301:15440   */\n      swap1\n      pop\n        /* \"#utility.yul\":15028:15447   */\n      swap2\n      swap1\n      pop\n      jump\t// out\n        /* \"#utility.yul\":15453:15633   */\n    tag_278:\n        /* \"#utility.yul\":15593:15625   */\n      0x4e6f7420656e6f75676820626c616e636520746f20706c6163652061736b0000\n        /* \"#utility.yul\":15589:15590   */\n      0x00\n        /* \"#utility.yul\":15581:15587   */\n      dup3\n        /* \"#utility.yul\":15577:15591   */\n      add\n        /* \"#utility.yul\":15570:15626   */\n      mstore\n        /* \"#utility.yul\":15453:15633   */\n      pop\n      jump\t// out\n        /* \"#utility.yul\":15639:16005   */\n    tag_279:\n        /* \"#utility.yul\":15781:15784   */\n      0x00\n        /* \"#utility.yul\":15802:15869   */\n      tag_436\n        /* \"#utility.yul\":15866:15868   */\n      0x1e\n        /* \"#utility.yul\":15861:15864   */\n      dup4\n        /* \"#utility.yul\":15802:15869   */\n      tag_261\n      jump\t// in\n    tag_436:\n        /* \"#utility.yul\":15795:15869   */\n      swap2\n      pop\n        /* \"#utility.yul\":15878:15971   */\n      tag_437\n        /* \"#utility.yul\":15967:15970   */\n      dup3\n        /* \"#utility.yul\":15878:15971   */\n      tag_278\n      jump\t// in\n    tag_437:\n        /* \"#utility.yul\":15996:15998   */\n      0x20\n        /* \"#utility.yul\":15991:15994   */\n      dup3\n        /* \"#utility.yul\":15987:15999   */\n      add\n        /* \"#utility.yul\":15980:15999   */\n      swap1\n      pop\n        /* \"#utility.yul\":15639:16005   */\n      swap2\n      swap1\n      pop\n      jump\t// out\n        /* \"#utility.yul\":16011:16430   */\n    tag_167:\n        /* \"#utility.yul\":16177:16181   */\n      0x00\n        /* \"#utility.yul\":16215:16217   */\n      0x20\n        /* \"#utility.yul\":16204:16213   */\n      dup3\n        /* \"#utility.yul\":16200:16218   */\n      add\n        /* \"#utility.yul\":16192:16218   */\n      swap1\n      pop\n        /* \"#utility.yul\":16264:16273   */\n      dup2\n        /* \"#utility.yul\":16258:16262   */\n      dup2\n        /* \"#utility.yul\":16254:16274   */\n      sub\n        /* \"#utility.yul\":16250:16251   */\n      0x00\n        /* \"#utility.yul\":16239:16248   */\n      dup4\n        /* \"#utility.yul\":16235:16252   */\n      add\n        /* \"#utility.yul\":16228:16275   */\n      mstore\n        /* \"#utility.yul\":16292:16423   */\n      tag_439\n        /* \"#utility.yul\":16418:16422   */\n      dup2\n        /* \"#utility.yul\":16292:16423   */\n      tag_279\n      jump\t// in\n    tag_439:\n        /* \"#utility.yul\":16284:16423   */\n      swap1\n      pop\n        /* \"#utility.yul\":16011:16430   */\n      swap2\n      swap1\n      pop\n      jump\t// out\n        /* \"#utility.yul\":16436:16616   */\n    tag_280:\n        /* \"#utility.yul\":16484:16561   */\n      0x4e487b7100000000000000000000000000000000000000000000000000000000\n        /* \"#utility.yul\":16481:16482   */\n      0x00\n        /* \"#utility.yul\":16474:16562   */\n      mstore\n        /* \"#utility.yul\":16581:16585   */\n      0x11\n        /* \"#utility.yul\":16578:16579   */\n      0x04\n        /* \"#utility.yul\":16571:16586   */\n      mstore\n        /* \"#utility.yul\":16605:16609   */\n      0x24\n        /* \"#utility.yul\":16602:16603   */\n      0x00\n        /* \"#utility.yul\":16595:16610   */\n      revert\n        /* \"#utility.yul\":16622:16813   */\n    tag_169:\n        /* \"#utility.yul\":16662:16666   */\n      0x00\n        /* \"#utility.yul\":16682:16702   */\n      tag_442\n        /* \"#utility.yul\":16700:16701   */\n      dup3\n        /* \"#utility.yul\":16682:16702   */\n      tag_235\n      jump\t// in\n    tag_442:\n        /* \"#utility.yul\":16677:16702   */\n      swap2\n      pop\n        /* \"#utility.yul\":16716:16736   */\n      tag_443\n        /* \"#utility.yul\":16734:16735   */\n      dup4\n        /* \"#utility.yul\":16716:16736   */\n      tag_235\n      jump\t// in\n    tag_443:\n        /* \"#utility.yul\":16711:16736   */\n      swap3\n      pop\n        /* \"#utility.yul\":16755:16756   */\n      dup3\n        /* \"#utility.yul\":16752:16753   */\n      dup3\n        /* \"#utility.yul\":16749:16757   */\n      lt\n        /* \"#utility.yul\":16746:16780   */\n      iszero\n      tag_444\n      jumpi\n        /* \"#utility.yul\":16760:16778   */\n      tag_445\n      tag_280\n      jump\t// in\n    tag_445:\n        /* \"#utility.yul\":16746:16780   */\n    tag_444:\n        /* \"#utility.yul\":16805:16806   */\n      dup3\n        /* \"#utility.yul\":16802:16803   */\n      dup3\n        /* \"#utility.yul\":16798:16807   */\n      sub\n        /* \"#utility.yul\":16790:16807   */\n      swap1\n      pop\n        /* \"#utility.yul\":16622:16813   */\n      swap3\n      swap2\n      pop\n      pop\n      jump\t// out\n        /* \"#utility.yul\":16819:17167   */\n    tag_171:\n        /* \"#utility.yul\":16859:16866   */\n      0x00\n        /* \"#utility.yul\":16882:16902   */\n      tag_447\n        /* \"#utility.yul\":16900:16901   */\n      dup3\n        /* \"#utility.yul\":16882:16902   */\n      tag_235\n      jump\t// in\n    tag_447:\n        /* \"#utility.yul\":16877:16902   */\n      swap2\n      pop\n        /* \"#utility.yul\":16916:16936   */\n      tag_448\n        /* \"#utility.yul\":16934:16935   */\n      dup4\n        /* \"#utility.yul\":16916:16936   */\n      tag_235\n      jump\t// in\n    tag_448:\n        /* \"#utility.yul\":16911:16936   */\n      swap3\n      pop\n        /* \"#utility.yul\":17104:17105   */\n      dup2\n        /* \"#utility.yul\":17036:17102   */\n      0xffffffffffffffffffffffffffffffffffffffffffffffffffffffffffffffff\n        /* \"#utility.yul\":17032:17106   */\n      div\n        /* \"#utility.yul\":17029:17030   */\n      dup4\n        /* \"#utility.yul\":17026:17107   */\n      gt\n        /* \"#utility.yul\":17021:17022   */\n      dup3\n        /* \"#utility.yul\":17014:17023   */\n      iszero\n        /* \"#utility.yul\":17007:17024   */\n      iszero\n        /* \"#utility.yul\":17003:17108   */\n      and\n        /* \"#utility.yul\":17000:17131   */\n      iszero\n      tag_449\n      jumpi\n        /* \"#utility.yul\":17111:17129   */\n      tag_450\n      tag_280\n      jump\t// in\n    tag_450:\n        /* \"#utility.yul\":17000:17131   */\n    tag_449:\n        /* \"#utility.yul\":17159:17160   */\n      dup3\n        /* \"#utility.yul\":17156:17157   */\n      dup3\n        /* \"#utility.yul\":17152:17161   */\n      mul\n        /* \"#utility.yul\":17141:17161   */\n      swap1\n      pop\n        /* \"#utility.yul\":16819:17167   */\n      swap3\n      swap2\n      pop\n      pop\n      jump\t// out\n        /* \"#utility.yul\":17173:17353   */\n    tag_281:\n        /* \"#utility.yul\":17221:17298   */\n      0x4e487b7100000000000000000000000000000000000000000000000000000000\n        /* \"#utility.yul\":17218:17219   */\n      0x00\n        /* \"#utility.yul\":17211:17299   */\n      mstore\n        /* \"#utility.yul\":17318:17322   */\n      0x12\n        /* \"#utility.yul\":17315:17316   */\n      0x04\n        /* \"#utility.yul\":17308:17323   */\n      mstore\n        /* \"#utility.yul\":17342:17346   */\n      0x24\n        /* \"#utility.yul\":17339:17340   */\n      0x00\n        /* \"#utility.yul\":17332:17347   */\n      revert\n        /* \"#utility.yul\":17359:17544   */\n    tag_173:\n        /* \"#utility.yul\":17399:17400   */\n      0x00\n        /* \"#utility.yul\":17416:17436   */\n      tag_453\n        /* \"#utility.yul\":17434:17435   */\n      dup3\n        /* \"#utility.yul\":17416:17436   */\n      tag_235\n      jump\t// in\n    tag_453:\n        /* \"#utility.yul\":17411:17436   */\n      swap2\n      pop\n        /* \"#utility.yul\":17450:17470   */\n      tag_454\n        /* \"#utility.yul\":17468:17469   */\n      dup4\n        /* \"#utility.yul\":17450:17470   */\n      tag_235\n      jump\t// in\n    tag_454:\n        /* \"#utility.yul\":17445:17470   */\n      swap3\n      pop\n        /* \"#utility.yul\":17489:17490   */\n      dup3\n        /* \"#utility.yul\":17479:17514   */\n      tag_455\n      jumpi\n        /* \"#utility.yul\":17494:17512   */\n      tag_456\n      tag_281\n      jump\t// in\n    tag_456:\n        /* \"#utility.yul\":17479:17514   */\n    tag_455:\n        /* \"#utility.yul\":17536:17537   */\n      dup3\n        /* \"#utility.yul\":17533:17534   */\n      dup3\n        /* \"#utility.yul\":17529:17538   */\n      div\n        /* \"#utility.yul\":17524:17538   */\n      swap1\n      pop\n        /* \"#utility.yul\":17359:17544   */\n      swap3\n      swap2\n      pop\n      pop\n      jump\t// out\n        /* \"#utility.yul\":17550:17629   */\n    tag_282:\n        /* \"#utility.yul\":17589:17596   */\n      0x00\n        /* \"#utility.yul\":17618:17623   */\n      dup2\n        /* \"#utility.yul\":17607:17623   */\n      swap1\n      pop\n        /* \"#utility.yul\":17550:17629   */\n      swap2\n      swap1\n      pop\n      jump\t// out\n        /* \"#utility.yul\":17635:17792   */\n    tag_283:\n        /* \"#utility.yul\":17740:17785   */\n      tag_459\n        /* \"#utility.yul\":17760:17784   */\n      tag_460\n        /* \"#utility.yul\":17778:17783   */\n      dup3\n        /* \"#utility.yul\":17760:17784   */\n      tag_267\n      jump\t// in\n    tag_460:\n        /* \"#utility.yul\":17740:17785   */\n      tag_282\n      jump\t// in\n    tag_459:\n        /* \"#utility.yul\":17735:17738   */\n      dup3\n        /* \"#utility.yul\":17728:17786   */\n      mstore\n        /* \"#utility.yul\":17635:17792   */\n      pop\n      pop\n      jump\t// out\n        /* \"#utility.yul\":17798:17978   */\n    tag_284:\n        /* \"#utility.yul\":17966:17971   */\n      0x202c200000000000000000000000000000000000000000000000000000000000\n        /* \"#utility.yul\":17961:17964   */\n      dup2\n        /* \"#utility.yul\":17954:17972   */\n      mstore\n        /* \"#utility.yul\":17798:17978   */\n      pop\n      jump\t// out\n        /* \"#utility.yul\":17984:18645   */\n    tag_180:\n        /* \"#utility.yul\":18214:18217   */\n      0x00\n        /* \"#utility.yul\":18229:18304   */\n      tag_463\n        /* \"#utility.yul\":18300:18303   */\n      dup3\n        /* \"#utility.yul\":18291:18297   */\n      dup6\n        /* \"#utility.yul\":18229:18304   */\n      tag_283\n      jump\t// in\n    tag_463:\n        /* \"#utility.yul\":18329:18331   */\n      0x20\n        /* \"#utility.yul\":18324:18327   */\n      dup3\n        /* \"#utility.yul\":18320:18332   */\n      add\n        /* \"#utility.yul\":18313:18332   */\n      swap2\n      pop\n        /* \"#utility.yul\":18342:18479   */\n      tag_464\n        /* \"#utility.yul\":18475:18478   */\n      dup3\n        /* \"#utility.yul\":18342:18479   */\n      tag_284\n      jump\t// in\n    tag_464:\n        /* \"#utility.yul\":18504:18505   */\n      0x03\n        /* \"#utility.yul\":18499:18502   */\n      dup3\n        /* \"#utility.yul\":18495:18506   */\n      add\n        /* \"#utility.yul\":18488:18506   */\n      swap2\n      pop\n        /* \"#utility.yul\":18516:18591   */\n      tag_465\n        /* \"#utility.yul\":18587:18590   */\n      dup3\n        /* \"#utility.yul\":18578:18584   */\n      dup5\n        /* \"#utility.yul\":18516:18591   */\n      tag_283\n      jump\t// in\n    tag_465:\n        /* \"#utility.yul\":18616:18618   */\n      0x20\n        /* \"#utility.yul\":18611:18614   */\n      dup3\n        /* \"#utility.yul\":18607:18619   */\n      add\n        /* \"#utility.yul\":18600:18619   */\n      swap2\n      pop\n        /* \"#utility.yul\":18636:18639   */\n      dup2\n        /* \"#utility.yul\":18629:18639   */\n      swap1\n      pop\n        /* \"#utility.yul\":17984:18645   */\n      swap4\n      swap3\n      pop\n      pop\n      pop\n      jump\t// out\n        /* \"#utility.yul\":18651:18831   */\n    tag_285:\n        /* \"#utility.yul\":18791:18823   */\n      0x4e6f7420656e6f75676820626c616e636520746f20706c616365206269640000\n        /* \"#utility.yul\":18787:18788   */\n      0x00\n        /* \"#utility.yul\":18779:18785   */\n      dup3\n        /* \"#utility.yul\":18775:18789   */\n      add\n        /* \"#utility.yul\":18768:18824   */\n      mstore\n        /* \"#utility.yul\":18651:18831   */\n      pop\n      jump\t// out\n        /* \"#utility.yul\":18837:19203   */\n    tag_286:\n        /* \"#utility.yul\":18979:18982   */\n      0x00\n        /* \"#utility.yul\":19000:19067   */\n      tag_468\n        /* \"#utility.yul\":19064:19066   */\n      0x1e\n        /* \"#utility.yul\":19059:19062   */\n      dup4\n        /* \"#utility.yul\":19000:19067   */\n      tag_261\n      jump\t// in\n    tag_468:\n        /* \"#utility.yul\":18993:19067   */\n      swap2\n      pop\n        /* \"#utility.yul\":19076:19169   */\n      tag_469\n        /* \"#utility.yul\":19165:19168   */\n      dup3\n        /* \"#utility.yul\":19076:19169   */\n      tag_285\n      jump\t// in\n    tag_469:\n        /* \"#utility.yul\":19194:19196   */\n      0x20\n        /* \"#utility.yul\":19189:19192   */\n      dup3\n        /* \"#utility.yul\":19185:19197   */\n      add\n        /* \"#utility.yul\":19178:19197   */\n      swap1\n      pop\n        /* \"#utility.yul\":18837:19203   */\n      swap2\n      swap1\n      pop\n      jump\t// out\n        /* \"#utility.yul\":19209:19628   */\n    tag_205:\n        /* \"#utility.yul\":19375:19379   */\n      0x00\n        /* \"#utility.yul\":19413:19415   */\n      0x20\n        /* \"#utility.yul\":19402:19411   */\n      dup3\n        /* \"#utility.yul\":19398:19416   */\n      add\n        /* \"#utility.yul\":19390:19416   */\n      swap1\n      pop\n        /* \"#utility.yul\":19462:19471   */\n      dup2\n        /* \"#utility.yul\":19456:19460   */\n      dup2\n        /* \"#utility.yul\":19452:19472   */\n      sub\n        /* \"#utility.yul\":19448:19449   */\n      0x00\n        /* \"#utility.yul\":19437:19446   */\n      dup4\n        /* \"#utility.yul\":19433:19450   */\n      add\n        /* \"#utility.yul\":19426:19473   */\n      mstore\n        /* \"#utility.yul\":19490:19621   */\n      tag_471\n        /* \"#utility.yul\":19616:19620   */\n      dup2\n        /* \"#utility.yul\":19490:19621   */\n      tag_286\n      jump\t// in\n    tag_471:\n        /* \"#utility.yul\":19482:19621   */\n      swap1\n      pop\n        /* \"#utility.yul\":19209:19628   */\n      swap2\n      swap1\n      pop\n      jump\t// out\n        /* \"#utility.yul\":19634:19867   */\n    tag_214:\n        /* \"#utility.yul\":19673:19676   */\n      0x00\n        /* \"#utility.yul\":19696:19720   */\n      tag_473\n        /* \"#utility.yul\":19714:19719   */\n      dup3\n        /* \"#utility.yul\":19696:19720   */\n      tag_235\n      jump\t// in\n    tag_473:\n        /* \"#utility.yul\":19687:19720   */\n      swap2\n      pop\n        /* \"#utility.yul\":19742:19808   */\n      0xffffffffffffffffffffffffffffffffffffffffffffffffffffffffffffffff\n        /* \"#utility.yul\":19735:19740   */\n      dup3\n        /* \"#utility.yul\":19732:19809   */\n      sub\n        /* \"#utility.yul\":19729:19832   */\n      tag_474\n      jumpi\n        /* \"#utility.yul\":19812:19830   */\n      tag_475\n      tag_280\n      jump\t// in\n    tag_475:\n        /* \"#utility.yul\":19729:19832   */\n    tag_474:\n        /* \"#utility.yul\":19859:19860   */\n      0x01\n        /* \"#utility.yul\":19852:19857   */\n      dup3\n        /* \"#utility.yul\":19848:19861   */\n      add\n        /* \"#utility.yul\":19841:19861   */\n      swap1\n      pop\n        /* \"#utility.yul\":19634:19867   */\n      swap2\n      swap1\n      pop\n      jump\t// out\n        /* \"#utility.yul\":19873:19969   */\n    tag_287:\n        /* \"#utility.yul\":19910:19917   */\n      0x00\n        /* \"#utility.yul\":19939:19963   */\n      tag_477\n        /* \"#utility.yul\":19957:19962   */\n      dup3\n        /* \"#utility.yul\":19939:19963   */\n      tag_249\n      jump\t// in\n    tag_477:\n        /* \"#utility.yul\":19928:19963   */\n      swap1\n      pop\n        /* \"#utility.yul\":19873:19969   */\n      swap2\n      swap1\n      pop\n      jump\t// out\n        /* \"#utility.yul\":19975:20093   */\n    tag_288:\n        /* \"#utility.yul\":20062:20086   */\n      tag_479\n        /* \"#utility.yul\":20080:20085   */\n      dup2\n        /* \"#utility.yul\":20062:20086   */\n      tag_287\n      jump\t// in\n    tag_479:\n        /* \"#utility.yul\":20057:20060   */\n      dup3\n        /* \"#utility.yul\":20050:20087   */\n      mstore\n        /* \"#utility.yul\":19975:20093   */\n      pop\n      pop\n      jump\t// out\n        /* \"#utility.yul\":20099:20184   */\n    tag_289:\n        /* \"#utility.yul\":20144:20151   */\n      0x00\n        /* \"#utility.yul\":20173:20178   */\n      dup2\n        /* \"#utility.yul\":20162:20178   */\n      swap1\n      pop\n        /* \"#utility.yul\":20099:20184   */\n      swap2\n      swap1\n      pop\n      jump\t// out\n        /* \"#utility.yul\":20190:20250   */\n    tag_290:\n        /* \"#utility.yul\":20218:20221   */\n      0x00\n        /* \"#utility.yul\":20239:20244   */\n      dup2\n        /* \"#utility.yul\":20232:20244   */\n      swap1\n      pop\n        /* \"#utility.yul\":20190:20250   */\n      swap2\n      swap1\n      pop\n      jump\t// out\n        /* \"#utility.yul\":20256:20414   */\n    tag_291:\n        /* \"#utility.yul\":20314:20323   */\n      0x00\n        /* \"#utility.yul\":20347:20408   */\n      tag_483\n        /* \"#utility.yul\":20365:20407   */\n      tag_484\n        /* \"#utility.yul\":20374:20406   */\n      tag_485\n        /* \"#utility.yul\":20400:20405   */\n      dup5\n        /* \"#utility.yul\":20374:20406   */\n      tag_289\n      jump\t// in\n    tag_485:\n        /* \"#utility.yul\":20365:20407   */\n      tag_290\n      jump\t// in\n    tag_484:\n        /* \"#utility.yul\":20347:20408   */\n      tag_235\n      jump\t// in\n    tag_483:\n        /* \"#utility.yul\":20334:20408   */\n      swap1\n      pop\n        /* \"#utility.yul\":20256:20414   */\n      swap2\n      swap1\n      pop\n      jump\t// out\n        /* \"#utility.yul\":20420:20567   */\n    tag_292:\n        /* \"#utility.yul\":20515:20560   */\n      tag_487\n        /* \"#utility.yul\":20554:20559   */\n      dup2\n        /* \"#utility.yul\":20515:20560   */\n      tag_291\n      jump\t// in\n    tag_487:\n        /* \"#utility.yul\":20510:20513   */\n      dup3\n        /* \"#utility.yul\":20503:20561   */\n      mstore\n        /* \"#utility.yul\":20420:20567   */\n      pop\n      pop\n      jump\t// out\n        /* \"#utility.yul\":20573:21600   */\n    tag_220:\n        /* \"#utility.yul\":20877:20881   */\n      0x00\n        /* \"#utility.yul\":20915:20918   */\n      0x0100\n        /* \"#utility.yul\":20904:20913   */\n      dup3\n        /* \"#utility.yul\":20900:20919   */\n      add\n        /* \"#utility.yul\":20892:20919   */\n      swap1\n      pop\n        /* \"#utility.yul\":20929:21000   */\n      tag_489\n        /* \"#utility.yul\":20997:20998   */\n      0x00\n        /* \"#utility.yul\":20986:20995   */\n      dup4\n        /* \"#utility.yul\":20982:20999   */\n      add\n        /* \"#utility.yul\":20973:20979   */\n      dup12\n        /* \"#utility.yul\":20929:21000   */\n      tag_288\n      jump\t// in\n    tag_489:\n        /* \"#utility.yul\":21010:21082   */\n      tag_490\n        /* \"#utility.yul\":21078:21080   */\n      0x20\n        /* \"#utility.yul\":21067:21076   */\n      dup4\n        /* \"#utility.yul\":21063:21081   */\n      add\n        /* \"#utility.yul\":21054:21060   */\n      dup11\n        /* \"#utility.yul\":21010:21082   */\n      tag_245\n      jump\t// in\n    tag_490:\n        /* \"#utility.yul\":21092:21164   */\n      tag_491\n        /* \"#utility.yul\":21160:21162   */\n      0x40\n        /* \"#utility.yul\":21149:21158   */\n      dup4\n        /* \"#utility.yul\":21145:21163   */\n      add\n        /* \"#utility.yul\":21136:21142   */\n      dup10\n        /* \"#utility.yul\":21092:21164   */\n      tag_245\n      jump\t// in\n    tag_491:\n        /* \"#utility.yul\":21174:21251   */\n      tag_492\n        /* \"#utility.yul\":21247:21249   */\n      0x60\n        /* \"#utility.yul\":21236:21245   */\n      dup4\n        /* \"#utility.yul\":21232:21250   */\n      add\n        /* \"#utility.yul\":21223:21229   */\n      dup9\n        /* \"#utility.yul\":21174:21251   */\n      tag_265\n      jump\t// in\n    tag_492:\n        /* \"#utility.yul\":21261:21334   */\n      tag_493\n        /* \"#utility.yul\":21329:21332   */\n      0x80\n        /* \"#utility.yul\":21318:21327   */\n      dup4\n        /* \"#utility.yul\":21314:21333   */\n      add\n        /* \"#utility.yul\":21305:21311   */\n      dup8\n        /* \"#utility.yul\":21261:21334   */\n      tag_245\n      jump\t// in\n    tag_493:\n        /* \"#utility.yul\":21344:21425   */\n      tag_494\n        /* \"#utility.yul\":21420:21423   */\n      0xa0\n        /* \"#utility.yul\":21409:21418   */\n      dup4\n        /* \"#utility.yul\":21405:21424   */\n      add\n        /* \"#utility.yul\":21396:21402   */\n      dup7\n        /* \"#utility.yul\":21344:21425   */\n      tag_292\n      jump\t// in\n    tag_494:\n        /* \"#utility.yul\":21435:21516   */\n      tag_495\n        /* \"#utility.yul\":21511:21514   */\n      0xc0\n        /* \"#utility.yul\":21500:21509   */\n      dup4\n        /* \"#utility.yul\":21496:21515   */\n      add\n        /* \"#utility.yul\":21487:21493   */\n      dup6\n        /* \"#utility.yul\":21435:21516   */\n      tag_292\n      jump\t// in\n    tag_495:\n        /* \"#utility.yul\":21526:21593   */\n      tag_496\n        /* \"#utility.yul\":21588:21591   */\n      0xe0\n        /* \"#utility.yul\":21577:21586   */\n      dup4\n        /* \"#utility.yul\":21573:21592   */\n      add\n        /* \"#utility.yul\":21564:21570   */\n      dup5\n        /* \"#utility.yul\":21526:21593   */\n      tag_271\n      jump\t// in\n    tag_496:\n        /* \"#utility.yul\":20573:21600   */\n      swap10\n      swap9\n      pop\n      pop\n      pop\n      pop\n      pop\n      pop\n      pop\n      pop\n      pop\n      jump\t// out\n\n    auxdata: 0xa2646970667358221220adfad68a8f15a1b2b3f9dd9259316834c7e04277c59f42df6ef152181883956f64736f6c634300080d0033\n}\n",
				"bytecode": {
					"linkReferences": {},
					"object": "608060405233600160006101000a81548173ffffffffffffffffffffffffffffffffffffffff021916908373ffffffffffffffffffffffffffffffffffffffff1602179055503480156200005257600080fd5b5060405162001d5438038062001d548339818101604052810190620000789190620000f6565b80600281905550600060048190555060006005819055506000600681905550600060088190555060006009819055506000600a819055505062000128565b600080fd5b6000819050919050565b620000d081620000bb565b8114620000dc57600080fd5b50565b600081519050620000f081620000c5565b92915050565b6000602082840312156200010f576200010e620000b6565b5b60006200011f84828501620000df565b91505092915050565b611c1c80620001386000396000f3fe6080604052600436106101355760003560e01c80637bb51193116100ab578063b40a56271161006f578063b40a562714610422578063bf77ffae1461044d578063ce0cdc871461048a578063d09ef241146104b5578063db3a1396146104f9578063ecdfb8601461053657610135565b80637bb511931461035c578063801d9bbd146103875780639703ef35146103b25780639979ef45146103db578063a394fda7146103f757610135565b80634d46712d116100fd5780634d46712d1461022157806369f632e21461025e5780636e5b0f001461029b578063734a2e78146102c657806378c5b2681461030357806379b2f70d1461031f57610135565b8063122de8f21461013a5780631628e0f5146101655780632db6dfa71461018e5780634471417f146101cb57806344e791e0146101f6575b600080fd5b34801561014657600080fd5b5061014f610561565b60405161015c9190611220565b60405180910390f35b34801561017157600080fd5b5061018c60048036038101906101879190611273565b610566565b005b34801561019a57600080fd5b506101b560048036038101906101b09190611273565b61080c565b6040516101c291906112af565b60405180910390f35b3480156101d757600080fd5b506101e061082c565b6040516101ed91906114bf565b60405180910390f35b34801561020257600080fd5b5061020b610831565b604051610218919061157a565b60405180910390f35b34801561022d57600080fd5b5061024860048036038101906102439190611273565b61085e565b60405161025591906115ab565b60405180910390f35b34801561026a57600080fd5b5061028560048036038101906102809190611273565b61088b565b60405161029291906115d5565b60405180910390f35b3480156102a757600080fd5b506102b06108cb565b6040516102bd91906112af565b60405180910390f35b3480156102d257600080fd5b506102ed60048036038101906102e89190611273565b6108d1565b6040516102fa91906115d5565b60405180910390f35b61031d60048036038101906103189190611273565b610911565b005b34801561032b57600080fd5b5061034660048036038101906103419190611626565b6109e5565b604051610353919061157a565b60405180910390f35b34801561036857600080fd5b50610371610a14565b60405161037e91906112af565b60405180910390f35b34801561039357600080fd5b5061039c610a1a565b6040516103a991906112af565b60405180910390f35b3480156103be57600080fd5b506103d960048036038101906103d49190611273565b610a20565b005b6103f560048036038101906103f09190611273565b610cc6565b005b34801561040357600080fd5b5061040c610d50565b60405161041991906112af565b60405180910390f35b34801561042e57600080fd5b50610437610d56565b60405161044491906112af565b60405180910390f35b34801561045957600080fd5b50610474600480360381019061046f9190611273565b610d5c565b60405161048191906115ab565b60405180910390f35b34801561049657600080fd5b5061049f610d89565b6040516104ac9190611220565b60405180910390f35b3480156104c157600080fd5b506104dc60048036038101906104d79190611273565b610d8e565b6040516104f0989796959493929190611681565b60405180910390f35b34801561050557600080fd5b50610520600480360381019061051b9190611273565b610da5565b60405161052d91906112af565b60405180910390f35b34801561054257600080fd5b5061054b610dc5565b60405161055891906112af565b60405180910390f35b606090565b600760008281526020019081526020016000206040518060e00160405290816000820160009054906101000a900473ffffffffffffffffffffffffffffffffffffffff1673ffffffffffffffffffffffffffffffffffffffff1673ffffffffffffffffffffffffffffffffffffffff16815260200160018201548152602001600282015481526020016003820160009054906101000a900460ff16600181111561061357610612611337565b5b600181111561062557610624611337565b5b815260200160048201548152602001600582015481526020016006820154815250506000600181111561065b5761065a611337565b5b8160600151600181111561067257610671611337565b5b146106b2576040517f08c379a00000000000000000000000000000000000000000000000000000000081526004016106a99061174b565b60405180910390fd5b600760008381526020019081526020016000206040518060e00160405290816000820160009054906101000a900473ffffffffffffffffffffffffffffffffffffffff1673ffffffffffffffffffffffffffffffffffffffff1673ffffffffffffffffffffffffffffffffffffffff16815260200160018201548152602001600282015481526020016003820160009054906101000a900460ff16600181111561075f5761075e611337565b5b600181111561077157610770611337565b5b81526020016004820154815260200160058201548152602001600682015481525050338073ffffffffffffffffffffffffffffffffffffffff16826000015173ffffffffffffffffffffffffffffffffffffffff1614610806576040517f08c379a00000000000000000000000000000000000000000000000000000000081526004016107fd906117b7565b60405180910390fd5b50505050565b600060036000838152602001908152602001600020600101549050919050565b606090565b60606000600854905060006040518060200160405280600081525090505b60006008540361084f57505090565b60006007600083815260200190815260200160002060030160009054906101000a900460ff169050919050565b60006003600083815260200190815260200160002060000160009054906101000a900473ffffffffffffffffffffffffffffffffffffffff169050919050565b60045481565b60006007600083815260200190815260200160002060000160009054906101000a900473ffffffffffffffffffffffffffffffffffffffff169050919050565b6000811015610955576040517f08c379a000000000000000000000000000000000000000000000000000000000815260040161094c90611823565b60405180910390fd5b80341015610998576040517f08c379a000000000000000000000000000000000000000000000000000000000815260040161098f9061188f565b60405180910390fd5b60004290506000606460025460646109b091906118de565b346109bb9190611912565b6109c5919061199b565b905060006109d4338484610dcb565b90506109df81610f66565b50505050565b60608260001b826040516020016109fd929190611a13565b604051602081830303815290604052905092915050565b60055481565b60085481565b600360008281526020019081526020016000206040518060e00160405290816000820160009054906101000a900473ffffffffffffffffffffffffffffffffffffffff1673ffffffffffffffffffffffffffffffffffffffff1673ffffffffffffffffffffffffffffffffffffffff16815260200160018201548152602001600282015481526020016003820160009054906101000a900460ff166001811115610acd57610acc611337565b5b6001811115610adf57610ade611337565b5b8152602001600482015481526020016005820154815260200160068201548152505060006001811115610b1557610b14611337565b5b81606001516001811115610b2c57610b2b611337565b5b14610b6c576040517f08c379a0000000000000000000000000000000000000000000000000000000008152600401610b639061174b565b60405180910390fd5b600360008381526020019081526020016000206040518060e00160405290816000820160009054906101000a900473ffffffffffffffffffffffffffffffffffffffff1673ffffffffffffffffffffffffffffffffffffffff1673ffffffffffffffffffffffffffffffffffffffff16815260200160018201548152602001600282015481526020016003820160009054906101000a900460ff166001811115610c1957610c18611337565b5b6001811115610c2b57610c2a611337565b5b81526020016004820154815260200160058201548152602001600682015481525050338073ffffffffffffffffffffffffffffffffffffffff16826000015173ffffffffffffffffffffffffffffffffffffffff1614610cc0576040517f08c379a0000000000000000000000000000000000000000000000000000000008152600401610cb7906117b7565b60405180910390fd5b50505050565b6000811015610d0a576040517f08c379a0000000000000000000000000000000000000000000000000000000008152600401610d0190611823565b60405180910390fd5b80341015610d4d576040517f08c379a0000000000000000000000000000000000000000000000000000000008152600401610d4490611a9a565b60405180910390fd5b50565b600a5481565b60065481565b60006003600083815260200190815260200160002060030160009054906101000a900460ff169050919050565b606090565b600080600080600080600080919395975091939597565b600060076000838152602001908152602001600020600101549050919050565b60095481565b610dd36110f3565b600a6000815480929190610de690611aba565b919050555060006040518060e001604052808673ffffffffffffffffffffffffffffffffffffffff16815260200185815260200184815260200160006001811115610e3457610e33611337565b5b8152602001600a54815260200160008152602001600081525090508060076000600a54815260200190815260200160002060008201518160000160006101000a81548173ffffffffffffffffffffffffffffffffffffffff021916908373ffffffffffffffffffffffffffffffffffffffff160217905550602082015181600101556040820151816002015560608201518160030160006101000a81548160ff02191690836001811115610eeb57610eea611337565b5b02179055506080820151816004015560a0820151816005015560c082015181600601559050507f93caf6ba1af44020dfe6076e279533e38bd8deefe534c43aa8cc93aad2025b7d8585856000600a546000806000604051610f53989796959493929190611b68565b60405180910390a1809150509392505050565b60008060085403610f815781608001516008819055506110ef565b81602001516007600060085481526020019081526020016000206001015410610fe3576008548260a00181815250508160800151600760008460a0015181526020019081526020016000206006018190555081608001516008819055506110ee565b60085490505b600060076000838152602001908152602001600020600501541415801561103f57508160200151600760006007600085815260200190815260200160002060050154815260200190815260200160002060010154105b156110625760076000828152602001908152602001600020600501549050610fe9565b60076000828152602001908152602001600020600501548260a001818152505060006007600083815260200190815260200160002060050154146110c4578160800151600760008460a001518152602001908152602001600020600601819055505b81608001516007600083815260200190815260200160002060050181905550808260c00181815250505b5b5050565b6040518060e00160405280600073ffffffffffffffffffffffffffffffffffffffff16815260200160008152602001600081526020016000600181111561113d5761113c611337565b5b81526020016000815260200160008152602001600081525090565b600081519050919050565b600082825260208201905092915050565b6000819050602082019050919050565b6000819050919050565b61119781611184565b82525050565b60006111a9838361118e565b60208301905092915050565b6000602082019050919050565b60006111cd82611158565b6111d78185611163565b93506111e283611174565b8060005b838110156112135781516111fa888261119d565b9750611205836111b5565b9250506001810190506111e6565b5085935050505092915050565b6000602082019050818103600083015261123a81846111c2565b905092915050565b600080fd5b61125081611184565b811461125b57600080fd5b50565b60008135905061126d81611247565b92915050565b60006020828403121561128957611288611242565b5b60006112978482850161125e565b91505092915050565b6112a981611184565b82525050565b60006020820190506112c460008301846112a0565b92915050565b600081519050919050565b600082825260208201905092915050565b6000819050602082019050919050565b600073ffffffffffffffffffffffffffffffffffffffff82169050919050565b6000611321826112f6565b9050919050565b61133181611316565b82525050565b7f4e487b7100000000000000000000000000000000000000000000000000000000600052602160045260246000fd5b6002811061137757611376611337565b5b50565b600081905061138882611366565b919050565b60006113988261137a565b9050919050565b6113a88161138d565b82525050565b60e0820160008201516113c46000850182611328565b5060208201516113d7602085018261118e565b5060408201516113ea604085018261118e565b5060608201516113fd606085018261139f565b506080820151611410608085018261118e565b5060a082015161142360a085018261118e565b5060c082015161143660c085018261118e565b50505050565b600061144883836113ae565b60e08301905092915050565b6000602082019050919050565b600061146c826112ca565b61147681856112d5565b9350611481836112e6565b8060005b838110156114b2578151611499888261143c565b97506114a483611454565b925050600181019050611485565b5085935050505092915050565b600060208201905081810360008301526114d98184611461565b905092915050565b600081519050919050565b600082825260208201905092915050565b60005b8381101561151b578082015181840152602081019050611500565b8381111561152a576000848401525b50505050565b6000601f19601f8301169050919050565b600061154c826114e1565b61155681856114ec565b93506115668185602086016114fd565b61156f81611530565b840191505092915050565b600060208201905081810360008301526115948184611541565b905092915050565b6115a58161138d565b82525050565b60006020820190506115c0600083018461159c565b92915050565b6115cf81611316565b82525050565b60006020820190506115ea60008301846115c6565b92915050565b6000819050919050565b611603816115f0565b811461160e57600080fd5b50565b600081359050611620816115fa565b92915050565b6000806040838503121561163d5761163c611242565b5b600061164b8582860161125e565b925050602061165c85828601611611565b9150509250929050565b60008115159050919050565b61167b81611666565b82525050565b600061010082019050611697600083018b6115c6565b6116a4602083018a6112a0565b6116b160408301896112a0565b6116be606083018861159c565b6116cb60808301876112a0565b6116d860a08301866112a0565b6116e560c08301856112a0565b6116f260e0830184611672565b9998505050505050505050565b7f4f726465722050656e64696e6700000000000000000000000000000000000000600082015250565b6000611735600d836114ec565b9150611740826116ff565b602082019050919050565b6000602082019050818103600083015261176481611728565b9050919050565b7f4e6f7420417574686f7269736564000000000000000000000000000000000000600082015250565b60006117a1600e836114ec565b91506117ac8261176b565b602082019050919050565b600060208201905081810360008301526117d081611794565b9050919050565b7f70726963652076616c7565206d757374206265206d6f7265207468616e203000600082015250565b600061180d601f836114ec565b9150611818826117d7565b602082019050919050565b6000602082019050818103600083015261183c81611800565b9050919050565b7f4e6f7420656e6f75676820626c616e636520746f20706c6163652061736b0000600082015250565b6000611879601e836114ec565b915061188482611843565b602082019050919050565b600060208201905081810360008301526118a88161186c565b9050919050565b7f4e487b7100000000000000000000000000000000000000000000000000000000600052601160045260246000fd5b60006118e982611184565b91506118f483611184565b925082821015611907576119066118af565b5b828203905092915050565b600061191d82611184565b915061192883611184565b9250817fffffffffffffffffffffffffffffffffffffffffffffffffffffffffffffffff0483118215151615611961576119606118af565b5b828202905092915050565b7f4e487b7100000000000000000000000000000000000000000000000000000000600052601260045260246000fd5b60006119a682611184565b91506119b183611184565b9250826119c1576119c061196c565b5b828204905092915050565b6000819050919050565b6119e76119e2826115f0565b6119cc565b82525050565b7f202c200000000000000000000000000000000000000000000000000000000000815250565b6000611a1f82856119d6565b602082019150611a2e826119ed565b600382019150611a3e82846119d6565b6020820191508190509392505050565b7f4e6f7420656e6f75676820626c616e636520746f20706c616365206269640000600082015250565b6000611a84601e836114ec565b9150611a8f82611a4e565b602082019050919050565b60006020820190508181036000830152611ab381611a77565b9050919050565b6000611ac582611184565b91507fffffffffffffffffffffffffffffffffffffffffffffffffffffffffffffffff8203611af757611af66118af565b5b600182019050919050565b6000611b0d826112f6565b9050919050565b611b1d81611b02565b82525050565b6000819050919050565b6000819050919050565b6000611b52611b4d611b4884611b23565b611b2d565b611184565b9050919050565b611b6281611b37565b82525050565b600061010082019050611b7e600083018b611b14565b611b8b602083018a6112a0565b611b9860408301896112a0565b611ba5606083018861159c565b611bb260808301876112a0565b611bbf60a0830186611b59565b611bcc60c0830185611b59565b611bd960e0830184611672565b999850505050505050505056fea2646970667358221220adfad68a8f15a1b2b3f9dd9259316834c7e04277c59f42df6ef152181883956f64736f6c634300080d0033",
					"opcodes": "PUSH1 0x80 PUSH1 0x40 MSTORE CALLER PUSH1 0x1 PUSH1 0x0 PUSH2 0x100 EXP DUP2 SLOAD DUP2 PUSH20 0xFFFFFFFFFFFFFFFFFFFFFFFFFFFFFFFFFFFFFFFF MUL NOT AND SWAP1 DUP4 PUSH20 0xFFFFFFFFFFFFFFFFFFFFFFFFFFFFFFFFFFFFFFFF AND MUL OR SWAP1 SSTORE POP CALLVALUE DUP1 ISZERO PUSH3 0x52 JUMPI PUSH1 0x0 DUP1 REVERT JUMPDEST POP PUSH1 0x40 MLOAD PUSH3 0x1D54 CODESIZE SUB DUP1 PUSH3 0x1D54 DUP4 CODECOPY DUP2 DUP2 ADD PUSH1 0x40 MSTORE DUP2 ADD SWAP1 PUSH3 0x78 SWAP2 SWAP1 PUSH3 0xF6 JUMP JUMPDEST DUP1 PUSH1 0x2 DUP2 SWAP1 SSTORE POP PUSH1 0x0 PUSH1 0x4 DUP2 SWAP1 SSTORE POP PUSH1 0x0 PUSH1 0x5 DUP2 SWAP1 SSTORE POP PUSH1 0x0 PUSH1 0x6 DUP2 SWAP1 SSTORE POP PUSH1 0x0 PUSH1 0x8 DUP2 SWAP1 SSTORE POP PUSH1 0x0 PUSH1 0x9 DUP2 SWAP1 SSTORE POP PUSH1 0x0 PUSH1 0xA DUP2 SWAP1 SSTORE POP POP PUSH3 0x128 JUMP JUMPDEST PUSH1 0x0 DUP1 REVERT JUMPDEST PUSH1 0x0 DUP2 SWAP1 POP SWAP2 SWAP1 POP JUMP JUMPDEST PUSH3 0xD0 DUP2 PUSH3 0xBB JUMP JUMPDEST DUP2 EQ PUSH3 0xDC JUMPI PUSH1 0x0 DUP1 REVERT JUMPDEST POP JUMP JUMPDEST PUSH1 0x0 DUP2 MLOAD SWAP1 POP PUSH3 0xF0 DUP2 PUSH3 0xC5 JUMP JUMPDEST SWAP3 SWAP2 POP POP JUMP JUMPDEST PUSH1 0x0 PUSH1 0x20 DUP3 DUP5 SUB SLT ISZERO PUSH3 0x10F JUMPI PUSH3 0x10E PUSH3 0xB6 JUMP JUMPDEST JUMPDEST PUSH1 0x0 PUSH3 0x11F DUP5 DUP3 DUP6 ADD PUSH3 0xDF JUMP JUMPDEST SWAP2 POP POP SWAP3 SWAP2 POP POP JUMP JUMPDEST PUSH2 0x1C1C DUP1 PUSH3 0x138 PUSH1 0x0 CODECOPY PUSH1 0x0 RETURN INVALID PUSH1 0x80 PUSH1 0x40 MSTORE PUSH1 0x4 CALLDATASIZE LT PUSH2 0x135 JUMPI PUSH1 0x0 CALLDATALOAD PUSH1 0xE0 SHR DUP1 PUSH4 0x7BB51193 GT PUSH2 0xAB JUMPI DUP1 PUSH4 0xB40A5627 GT PUSH2 0x6F JUMPI DUP1 PUSH4 0xB40A5627 EQ PUSH2 0x422 JUMPI DUP1 PUSH4 0xBF77FFAE EQ PUSH2 0x44D JUMPI DUP1 PUSH4 0xCE0CDC87 EQ PUSH2 0x48A JUMPI DUP1 PUSH4 0xD09EF241 EQ PUSH2 0x4B5 JUMPI DUP1 PUSH4 0xDB3A1396 EQ PUSH2 0x4F9 JUMPI DUP1 PUSH4 0xECDFB860 EQ PUSH2 0x536 JUMPI PUSH2 0x135 JUMP JUMPDEST DUP1 PUSH4 0x7BB51193 EQ PUSH2 0x35C JUMPI DUP1 PUSH4 0x801D9BBD EQ PUSH2 0x387 JUMPI DUP1 PUSH4 0x9703EF35 EQ PUSH2 0x3B2 JUMPI DUP1 PUSH4 0x9979EF45 EQ PUSH2 0x3DB JUMPI DUP1 PUSH4 0xA394FDA7 EQ PUSH2 0x3F7 JUMPI PUSH2 0x135 JUMP JUMPDEST DUP1 PUSH4 0x4D46712D GT PUSH2 0xFD JUMPI DUP1 PUSH4 0x4D46712D EQ PUSH2 0x221 JUMPI DUP1 PUSH4 0x69F632E2 EQ PUSH2 0x25E JUMPI DUP1 PUSH4 0x6E5B0F00 EQ PUSH2 0x29B JUMPI DUP1 PUSH4 0x734A2E78 EQ PUSH2 0x2C6 JUMPI DUP1 PUSH4 0x78C5B268 EQ PUSH2 0x303 JUMPI DUP1 PUSH4 0x79B2F70D EQ PUSH2 0x31F JUMPI PUSH2 0x135 JUMP JUMPDEST DUP1 PUSH4 0x122DE8F2 EQ PUSH2 0x13A JUMPI DUP1 PUSH4 0x1628E0F5 EQ PUSH2 0x165 JUMPI DUP1 PUSH4 0x2DB6DFA7 EQ PUSH2 0x18E JUMPI DUP1 PUSH4 0x4471417F EQ PUSH2 0x1CB JUMPI DUP1 PUSH4 0x44E791E0 EQ PUSH2 0x1F6 JUMPI JUMPDEST PUSH1 0x0 DUP1 REVERT JUMPDEST CALLVALUE DUP1 ISZERO PUSH2 0x146 JUMPI PUSH1 0x0 DUP1 REVERT JUMPDEST POP PUSH2 0x14F PUSH2 0x561 JUMP JUMPDEST PUSH1 0x40 MLOAD PUSH2 0x15C SWAP2 SWAP1 PUSH2 0x1220 JUMP JUMPDEST PUSH1 0x40 MLOAD DUP1 SWAP2 SUB SWAP1 RETURN JUMPDEST CALLVALUE DUP1 ISZERO PUSH2 0x171 JUMPI PUSH1 0x0 DUP1 REVERT JUMPDEST POP PUSH2 0x18C PUSH1 0x4 DUP1 CALLDATASIZE SUB DUP2 ADD SWAP1 PUSH2 0x187 SWAP2 SWAP1 PUSH2 0x1273 JUMP JUMPDEST PUSH2 0x566 JUMP JUMPDEST STOP JUMPDEST CALLVALUE DUP1 ISZERO PUSH2 0x19A JUMPI PUSH1 0x0 DUP1 REVERT JUMPDEST POP PUSH2 0x1B5 PUSH1 0x4 DUP1 CALLDATASIZE SUB DUP2 ADD SWAP1 PUSH2 0x1B0 SWAP2 SWAP1 PUSH2 0x1273 JUMP JUMPDEST PUSH2 0x80C JUMP JUMPDEST PUSH1 0x40 MLOAD PUSH2 0x1C2 SWAP2 SWAP1 PUSH2 0x12AF JUMP JUMPDEST PUSH1 0x40 MLOAD DUP1 SWAP2 SUB SWAP1 RETURN JUMPDEST CALLVALUE DUP1 ISZERO PUSH2 0x1D7 JUMPI PUSH1 0x0 DUP1 REVERT JUMPDEST POP PUSH2 0x1E0 PUSH2 0x82C JUMP JUMPDEST PUSH1 0x40 MLOAD PUSH2 0x1ED SWAP2 SWAP1 PUSH2 0x14BF JUMP JUMPDEST PUSH1 0x40 MLOAD DUP1 SWAP2 SUB SWAP1 RETURN JUMPDEST CALLVALUE DUP1 ISZERO PUSH2 0x202 JUMPI PUSH1 0x0 DUP1 REVERT JUMPDEST POP PUSH2 0x20B PUSH2 0x831 JUMP JUMPDEST PUSH1 0x40 MLOAD PUSH2 0x218 SWAP2 SWAP1 PUSH2 0x157A JUMP JUMPDEST PUSH1 0x40 MLOAD DUP1 SWAP2 SUB SWAP1 RETURN JUMPDEST CALLVALUE DUP1 ISZERO PUSH2 0x22D JUMPI PUSH1 0x0 DUP1 REVERT JUMPDEST POP PUSH2 0x248 PUSH1 0x4 DUP1 CALLDATASIZE SUB DUP2 ADD SWAP1 PUSH2 0x243 SWAP2 SWAP1 PUSH2 0x1273 JUMP JUMPDEST PUSH2 0x85E JUMP JUMPDEST PUSH1 0x40 MLOAD PUSH2 0x255 SWAP2 SWAP1 PUSH2 0x15AB JUMP JUMPDEST PUSH1 0x40 MLOAD DUP1 SWAP2 SUB SWAP1 RETURN JUMPDEST CALLVALUE DUP1 ISZERO PUSH2 0x26A JUMPI PUSH1 0x0 DUP1 REVERT JUMPDEST POP PUSH2 0x285 PUSH1 0x4 DUP1 CALLDATASIZE SUB DUP2 ADD SWAP1 PUSH2 0x280 SWAP2 SWAP1 PUSH2 0x1273 JUMP JUMPDEST PUSH2 0x88B JUMP JUMPDEST PUSH1 0x40 MLOAD PUSH2 0x292 SWAP2 SWAP1 PUSH2 0x15D5 JUMP JUMPDEST PUSH1 0x40 MLOAD DUP1 SWAP2 SUB SWAP1 RETURN JUMPDEST CALLVALUE DUP1 ISZERO PUSH2 0x2A7 JUMPI PUSH1 0x0 DUP1 REVERT JUMPDEST POP PUSH2 0x2B0 PUSH2 0x8CB JUMP JUMPDEST PUSH1 0x40 MLOAD PUSH2 0x2BD SWAP2 SWAP1 PUSH2 0x12AF JUMP JUMPDEST PUSH1 0x40 MLOAD DUP1 SWAP2 SUB SWAP1 RETURN JUMPDEST CALLVALUE DUP1 ISZERO PUSH2 0x2D2 JUMPI PUSH1 0x0 DUP1 REVERT JUMPDEST POP PUSH2 0x2ED PUSH1 0x4 DUP1 CALLDATASIZE SUB DUP2 ADD SWAP1 PUSH2 0x2E8 SWAP2 SWAP1 PUSH2 0x1273 JUMP JUMPDEST PUSH2 0x8D1 JUMP JUMPDEST PUSH1 0x40 MLOAD PUSH2 0x2FA SWAP2 SWAP1 PUSH2 0x15D5 JUMP JUMPDEST PUSH1 0x40 MLOAD DUP1 SWAP2 SUB SWAP1 RETURN JUMPDEST PUSH2 0x31D PUSH1 0x4 DUP1 CALLDATASIZE SUB DUP2 ADD SWAP1 PUSH2 0x318 SWAP2 SWAP1 PUSH2 0x1273 JUMP JUMPDEST PUSH2 0x911 JUMP JUMPDEST STOP JUMPDEST CALLVALUE DUP1 ISZERO PUSH2 0x32B JUMPI PUSH1 0x0 DUP1 REVERT JUMPDEST POP PUSH2 0x346 PUSH1 0x4 DUP1 CALLDATASIZE SUB DUP2 ADD SWAP1 PUSH2 0x341 SWAP2 SWAP1 PUSH2 0x1626 JUMP JUMPDEST PUSH2 0x9E5 JUMP JUMPDEST PUSH1 0x40 MLOAD PUSH2 0x353 SWAP2 SWAP1 PUSH2 0x157A JUMP JUMPDEST PUSH1 0x40 MLOAD DUP1 SWAP2 SUB SWAP1 RETURN JUMPDEST CALLVALUE DUP1 ISZERO PUSH2 0x368 JUMPI PUSH1 0x0 DUP1 REVERT JUMPDEST POP PUSH2 0x371 PUSH2 0xA14 JUMP JUMPDEST PUSH1 0x40 MLOAD PUSH2 0x37E SWAP2 SWAP1 PUSH2 0x12AF JUMP JUMPDEST PUSH1 0x40 MLOAD DUP1 SWAP2 SUB SWAP1 RETURN JUMPDEST CALLVALUE DUP1 ISZERO PUSH2 0x393 JUMPI PUSH1 0x0 DUP1 REVERT JUMPDEST POP PUSH2 0x39C PUSH2 0xA1A JUMP JUMPDEST PUSH1 0x40 MLOAD PUSH2 0x3A9 SWAP2 SWAP1 PUSH2 0x12AF JUMP JUMPDEST PUSH1 0x40 MLOAD DUP1 SWAP2 SUB SWAP1 RETURN JUMPDEST CALLVALUE DUP1 ISZERO PUSH2 0x3BE JUMPI PUSH1 0x0 DUP1 REVERT JUMPDEST POP PUSH2 0x3D9 PUSH1 0x4 DUP1 CALLDATASIZE SUB DUP2 ADD SWAP1 PUSH2 0x3D4 SWAP2 SWAP1 PUSH2 0x1273 JUMP JUMPDEST PUSH2 0xA20 JUMP JUMPDEST STOP JUMPDEST PUSH2 0x3F5 PUSH1 0x4 DUP1 CALLDATASIZE SUB DUP2 ADD SWAP1 PUSH2 0x3F0 SWAP2 SWAP1 PUSH2 0x1273 JUMP JUMPDEST PUSH2 0xCC6 JUMP JUMPDEST STOP JUMPDEST CALLVALUE DUP1 ISZERO PUSH2 0x403 JUMPI PUSH1 0x0 DUP1 REVERT JUMPDEST POP PUSH2 0x40C PUSH2 0xD50 JUMP JUMPDEST PUSH1 0x40 MLOAD PUSH2 0x419 SWAP2 SWAP1 PUSH2 0x12AF JUMP JUMPDEST PUSH1 0x40 MLOAD DUP1 SWAP2 SUB SWAP1 RETURN JUMPDEST CALLVALUE DUP1 ISZERO PUSH2 0x42E JUMPI PUSH1 0x0 DUP1 REVERT JUMPDEST POP PUSH2 0x437 PUSH2 0xD56 JUMP JUMPDEST PUSH1 0x40 MLOAD PUSH2 0x444 SWAP2 SWAP1 PUSH2 0x12AF JUMP JUMPDEST PUSH1 0x40 MLOAD DUP1 SWAP2 SUB SWAP1 RETURN JUMPDEST CALLVALUE DUP1 ISZERO PUSH2 0x459 JUMPI PUSH1 0x0 DUP1 REVERT JUMPDEST POP PUSH2 0x474 PUSH1 0x4 DUP1 CALLDATASIZE SUB DUP2 ADD SWAP1 PUSH2 0x46F SWAP2 SWAP1 PUSH2 0x1273 JUMP JUMPDEST PUSH2 0xD5C JUMP JUMPDEST PUSH1 0x40 MLOAD PUSH2 0x481 SWAP2 SWAP1 PUSH2 0x15AB JUMP JUMPDEST PUSH1 0x40 MLOAD DUP1 SWAP2 SUB SWAP1 RETURN JUMPDEST CALLVALUE DUP1 ISZERO PUSH2 0x496 JUMPI PUSH1 0x0 DUP1 REVERT JUMPDEST POP PUSH2 0x49F PUSH2 0xD89 JUMP JUMPDEST PUSH1 0x40 MLOAD PUSH2 0x4AC SWAP2 SWAP1 PUSH2 0x1220 JUMP JUMPDEST PUSH1 0x40 MLOAD DUP1 SWAP2 SUB SWAP1 RETURN JUMPDEST CALLVALUE DUP1 ISZERO PUSH2 0x4C1 JUMPI PUSH1 0x0 DUP1 REVERT JUMPDEST POP PUSH2 0x4DC PUSH1 0x4 DUP1 CALLDATASIZE SUB DUP2 ADD SWAP1 PUSH2 0x4D7 SWAP2 SWAP1 PUSH2 0x1273 JUMP JUMPDEST PUSH2 0xD8E JUMP JUMPDEST PUSH1 0x40 MLOAD PUSH2 0x4F0 SWAP9 SWAP8 SWAP7 SWAP6 SWAP5 SWAP4 SWAP3 SWAP2 SWAP1 PUSH2 0x1681 JUMP JUMPDEST PUSH1 0x40 MLOAD DUP1 SWAP2 SUB SWAP1 RETURN JUMPDEST CALLVALUE DUP1 ISZERO PUSH2 0x505 JUMPI PUSH1 0x0 DUP1 REVERT JUMPDEST POP PUSH2 0x520 PUSH1 0x4 DUP1 CALLDATASIZE SUB DUP2 ADD SWAP1 PUSH2 0x51B SWAP2 SWAP1 PUSH2 0x1273 JUMP JUMPDEST PUSH2 0xDA5 JUMP JUMPDEST PUSH1 0x40 MLOAD PUSH2 0x52D SWAP2 SWAP1 PUSH2 0x12AF JUMP JUMPDEST PUSH1 0x40 MLOAD DUP1 SWAP2 SUB SWAP1 RETURN JUMPDEST CALLVALUE DUP1 ISZERO PUSH2 0x542 JUMPI PUSH1 0x0 DUP1 REVERT JUMPDEST POP PUSH2 0x54B PUSH2 0xDC5 JUMP JUMPDEST PUSH1 0x40 MLOAD PUSH2 0x558 SWAP2 SWAP1 PUSH2 0x12AF JUMP JUMPDEST PUSH1 0x40 MLOAD DUP1 SWAP2 SUB SWAP1 RETURN JUMPDEST PUSH1 0x60 SWAP1 JUMP JUMPDEST PUSH1 0x7 PUSH1 0x0 DUP3 DUP2 MSTORE PUSH1 0x20 ADD SWAP1 DUP2 MSTORE PUSH1 0x20 ADD PUSH1 0x0 KECCAK256 PUSH1 0x40 MLOAD DUP1 PUSH1 0xE0 ADD PUSH1 0x40 MSTORE SWAP1 DUP2 PUSH1 0x0 DUP3 ADD PUSH1 0x0 SWAP1 SLOAD SWAP1 PUSH2 0x100 EXP SWAP1 DIV PUSH20 0xFFFFFFFFFFFFFFFFFFFFFFFFFFFFFFFFFFFFFFFF AND PUSH20 0xFFFFFFFFFFFFFFFFFFFFFFFFFFFFFFFFFFFFFFFF AND PUSH20 0xFFFFFFFFFFFFFFFFFFFFFFFFFFFFFFFFFFFFFFFF AND DUP2 MSTORE PUSH1 0x20 ADD PUSH1 0x1 DUP3 ADD SLOAD DUP2 MSTORE PUSH1 0x20 ADD PUSH1 0x2 DUP3 ADD SLOAD DUP2 MSTORE PUSH1 0x20 ADD PUSH1 0x3 DUP3 ADD PUSH1 0x0 SWAP1 SLOAD SWAP1 PUSH2 0x100 EXP SWAP1 DIV PUSH1 0xFF AND PUSH1 0x1 DUP2 GT ISZERO PUSH2 0x613 JUMPI PUSH2 0x612 PUSH2 0x1337 JUMP JUMPDEST JUMPDEST PUSH1 0x1 DUP2 GT ISZERO PUSH2 0x625 JUMPI PUSH2 0x624 PUSH2 0x1337 JUMP JUMPDEST JUMPDEST DUP2 MSTORE PUSH1 0x20 ADD PUSH1 0x4 DUP3 ADD SLOAD DUP2 MSTORE PUSH1 0x20 ADD PUSH1 0x5 DUP3 ADD SLOAD DUP2 MSTORE PUSH1 0x20 ADD PUSH1 0x6 DUP3 ADD SLOAD DUP2 MSTORE POP POP PUSH1 0x0 PUSH1 0x1 DUP2 GT ISZERO PUSH2 0x65B JUMPI PUSH2 0x65A PUSH2 0x1337 JUMP JUMPDEST JUMPDEST DUP2 PUSH1 0x60 ADD MLOAD PUSH1 0x1 DUP2 GT ISZERO PUSH2 0x672 JUMPI PUSH2 0x671 PUSH2 0x1337 JUMP JUMPDEST JUMPDEST EQ PUSH2 0x6B2 JUMPI PUSH1 0x40 MLOAD PUSH32 0x8C379A000000000000000000000000000000000000000000000000000000000 DUP2 MSTORE PUSH1 0x4 ADD PUSH2 0x6A9 SWAP1 PUSH2 0x174B JUMP JUMPDEST PUSH1 0x40 MLOAD DUP1 SWAP2 SUB SWAP1 REVERT JUMPDEST PUSH1 0x7 PUSH1 0x0 DUP4 DUP2 MSTORE PUSH1 0x20 ADD SWAP1 DUP2 MSTORE PUSH1 0x20 ADD PUSH1 0x0 KECCAK256 PUSH1 0x40 MLOAD DUP1 PUSH1 0xE0 ADD PUSH1 0x40 MSTORE SWAP1 DUP2 PUSH1 0x0 DUP3 ADD PUSH1 0x0 SWAP1 SLOAD SWAP1 PUSH2 0x100 EXP SWAP1 DIV PUSH20 0xFFFFFFFFFFFFFFFFFFFFFFFFFFFFFFFFFFFFFFFF AND PUSH20 0xFFFFFFFFFFFFFFFFFFFFFFFFFFFFFFFFFFFFFFFF AND PUSH20 0xFFFFFFFFFFFFFFFFFFFFFFFFFFFFFFFFFFFFFFFF AND DUP2 MSTORE PUSH1 0x20 ADD PUSH1 0x1 DUP3 ADD SLOAD DUP2 MSTORE PUSH1 0x20 ADD PUSH1 0x2 DUP3 ADD SLOAD DUP2 MSTORE PUSH1 0x20 ADD PUSH1 0x3 DUP3 ADD PUSH1 0x0 SWAP1 SLOAD SWAP1 PUSH2 0x100 EXP SWAP1 DIV PUSH1 0xFF AND PUSH1 0x1 DUP2 GT ISZERO PUSH2 0x75F JUMPI PUSH2 0x75E PUSH2 0x1337 JUMP JUMPDEST JUMPDEST PUSH1 0x1 DUP2 GT ISZERO PUSH2 0x771 JUMPI PUSH2 0x770 PUSH2 0x1337 JUMP JUMPDEST JUMPDEST DUP2 MSTORE PUSH1 0x20 ADD PUSH1 0x4 DUP3 ADD SLOAD DUP2 MSTORE PUSH1 0x20 ADD PUSH1 0x5 DUP3 ADD SLOAD DUP2 MSTORE PUSH1 0x20 ADD PUSH1 0x6 DUP3 ADD SLOAD DUP2 MSTORE POP POP CALLER DUP1 PUSH20 0xFFFFFFFFFFFFFFFFFFFFFFFFFFFFFFFFFFFFFFFF AND DUP3 PUSH1 0x0 ADD MLOAD PUSH20 0xFFFFFFFFFFFFFFFFFFFFFFFFFFFFFFFFFFFFFFFF AND EQ PUSH2 0x806 JUMPI PUSH1 0x40 MLOAD PUSH32 0x8C379A000000000000000000000000000000000000000000000000000000000 DUP2 MSTORE PUSH1 0x4 ADD PUSH2 0x7FD SWAP1 PUSH2 0x17B7 JUMP JUMPDEST PUSH1 0x40 MLOAD DUP1 SWAP2 SUB SWAP1 REVERT JUMPDEST POP POP POP POP JUMP JUMPDEST PUSH1 0x0 PUSH1 0x3 PUSH1 0x0 DUP4 DUP2 MSTORE PUSH1 0x20 ADD SWAP1 DUP2 MSTORE PUSH1 0x20 ADD PUSH1 0x0 KECCAK256 PUSH1 0x1 ADD SLOAD SWAP1 POP SWAP2 SWAP1 POP JUMP JUMPDEST PUSH1 0x60 SWAP1 JUMP JUMPDEST PUSH1 0x60 PUSH1 0x0 PUSH1 0x8 SLOAD SWAP1 POP PUSH1 0x0 PUSH1 0x40 MLOAD DUP1 PUSH1 0x20 ADD PUSH1 0x40 MSTORE DUP1 PUSH1 0x0 DUP2 MSTORE POP SWAP1 POP JUMPDEST PUSH1 0x0 PUSH1 0x8 SLOAD SUB PUSH2 0x84F JUMPI POP POP SWAP1 JUMP JUMPDEST PUSH1 0x0 PUSH1 0x7 PUSH1 0x0 DUP4 DUP2 MSTORE PUSH1 0x20 ADD SWAP1 DUP2 MSTORE PUSH1 0x20 ADD PUSH1 0x0 KECCAK256 PUSH1 0x3 ADD PUSH1 0x0 SWAP1 SLOAD SWAP1 PUSH2 0x100 EXP SWAP1 DIV PUSH1 0xFF AND SWAP1 POP SWAP2 SWAP1 POP JUMP JUMPDEST PUSH1 0x0 PUSH1 0x3 PUSH1 0x0 DUP4 DUP2 MSTORE PUSH1 0x20 ADD SWAP1 DUP2 MSTORE PUSH1 0x20 ADD PUSH1 0x0 KECCAK256 PUSH1 0x0 ADD PUSH1 0x0 SWAP1 SLOAD SWAP1 PUSH2 0x100 EXP SWAP1 DIV PUSH20 0xFFFFFFFFFFFFFFFFFFFFFFFFFFFFFFFFFFFFFFFF AND SWAP1 POP SWAP2 SWAP1 POP JUMP JUMPDEST PUSH1 0x4 SLOAD DUP2 JUMP JUMPDEST PUSH1 0x0 PUSH1 0x7 PUSH1 0x0 DUP4 DUP2 MSTORE PUSH1 0x20 ADD SWAP1 DUP2 MSTORE PUSH1 0x20 ADD PUSH1 0x0 KECCAK256 PUSH1 0x0 ADD PUSH1 0x0 SWAP1 SLOAD SWAP1 PUSH2 0x100 EXP SWAP1 DIV PUSH20 0xFFFFFFFFFFFFFFFFFFFFFFFFFFFFFFFFFFFFFFFF AND SWAP1 POP SWAP2 SWAP1 POP JUMP JUMPDEST PUSH1 0x0 DUP2 LT ISZERO PUSH2 0x955 JUMPI PUSH1 0x40 MLOAD PUSH32 0x8C379A000000000000000000000000000000000000000000000000000000000 DUP2 MSTORE PUSH1 0x4 ADD PUSH2 0x94C SWAP1 PUSH2 0x1823 JUMP JUMPDEST PUSH1 0x40 MLOAD DUP1 SWAP2 SUB SWAP1 REVERT JUMPDEST DUP1 CALLVALUE LT ISZERO PUSH2 0x998 JUMPI PUSH1 0x40 MLOAD PUSH32 0x8C379A000000000000000000000000000000000000000000000000000000000 DUP2 MSTORE PUSH1 0x4 ADD PUSH2 0x98F SWAP1 PUSH2 0x188F JUMP JUMPDEST PUSH1 0x40 MLOAD DUP1 SWAP2 SUB SWAP1 REVERT JUMPDEST PUSH1 0x0 TIMESTAMP SWAP1 POP PUSH1 0x0 PUSH1 0x64 PUSH1 0x2 SLOAD PUSH1 0x64 PUSH2 0x9B0 SWAP2 SWAP1 PUSH2 0x18DE JUMP JUMPDEST CALLVALUE PUSH2 0x9BB SWAP2 SWAP1 PUSH2 0x1912 JUMP JUMPDEST PUSH2 0x9C5 SWAP2 SWAP1 PUSH2 0x199B JUMP JUMPDEST SWAP1 POP PUSH1 0x0 PUSH2 0x9D4 CALLER DUP5 DUP5 PUSH2 0xDCB JUMP JUMPDEST SWAP1 POP PUSH2 0x9DF DUP2 PUSH2 0xF66 JUMP JUMPDEST POP POP POP POP JUMP JUMPDEST PUSH1 0x60 DUP3 PUSH1 0x0 SHL DUP3 PUSH1 0x40 MLOAD PUSH1 0x20 ADD PUSH2 0x9FD SWAP3 SWAP2 SWAP1 PUSH2 0x1A13 JUMP JUMPDEST PUSH1 0x40 MLOAD PUSH1 0x20 DUP2 DUP4 SUB SUB DUP2 MSTORE SWAP1 PUSH1 0x40 MSTORE SWAP1 POP SWAP3 SWAP2 POP POP JUMP JUMPDEST PUSH1 0x5 SLOAD DUP2 JUMP JUMPDEST PUSH1 0x8 SLOAD DUP2 JUMP JUMPDEST PUSH1 0x3 PUSH1 0x0 DUP3 DUP2 MSTORE PUSH1 0x20 ADD SWAP1 DUP2 MSTORE PUSH1 0x20 ADD PUSH1 0x0 KECCAK256 PUSH1 0x40 MLOAD DUP1 PUSH1 0xE0 ADD PUSH1 0x40 MSTORE SWAP1 DUP2 PUSH1 0x0 DUP3 ADD PUSH1 0x0 SWAP1 SLOAD SWAP1 PUSH2 0x100 EXP SWAP1 DIV PUSH20 0xFFFFFFFFFFFFFFFFFFFFFFFFFFFFFFFFFFFFFFFF AND PUSH20 0xFFFFFFFFFFFFFFFFFFFFFFFFFFFFFFFFFFFFFFFF AND PUSH20 0xFFFFFFFFFFFFFFFFFFFFFFFFFFFFFFFFFFFFFFFF AND DUP2 MSTORE PUSH1 0x20 ADD PUSH1 0x1 DUP3 ADD SLOAD DUP2 MSTORE PUSH1 0x20 ADD PUSH1 0x2 DUP3 ADD SLOAD DUP2 MSTORE PUSH1 0x20 ADD PUSH1 0x3 DUP3 ADD PUSH1 0x0 SWAP1 SLOAD SWAP1 PUSH2 0x100 EXP SWAP1 DIV PUSH1 0xFF AND PUSH1 0x1 DUP2 GT ISZERO PUSH2 0xACD JUMPI PUSH2 0xACC PUSH2 0x1337 JUMP JUMPDEST JUMPDEST PUSH1 0x1 DUP2 GT ISZERO PUSH2 0xADF JUMPI PUSH2 0xADE PUSH2 0x1337 JUMP JUMPDEST JUMPDEST DUP2 MSTORE PUSH1 0x20 ADD PUSH1 0x4 DUP3 ADD SLOAD DUP2 MSTORE PUSH1 0x20 ADD PUSH1 0x5 DUP3 ADD SLOAD DUP2 MSTORE PUSH1 0x20 ADD PUSH1 0x6 DUP3 ADD SLOAD DUP2 MSTORE POP POP PUSH1 0x0 PUSH1 0x1 DUP2 GT ISZERO PUSH2 0xB15 JUMPI PUSH2 0xB14 PUSH2 0x1337 JUMP JUMPDEST JUMPDEST DUP2 PUSH1 0x60 ADD MLOAD PUSH1 0x1 DUP2 GT ISZERO PUSH2 0xB2C JUMPI PUSH2 0xB2B PUSH2 0x1337 JUMP JUMPDEST JUMPDEST EQ PUSH2 0xB6C JUMPI PUSH1 0x40 MLOAD PUSH32 0x8C379A000000000000000000000000000000000000000000000000000000000 DUP2 MSTORE PUSH1 0x4 ADD PUSH2 0xB63 SWAP1 PUSH2 0x174B JUMP JUMPDEST PUSH1 0x40 MLOAD DUP1 SWAP2 SUB SWAP1 REVERT JUMPDEST PUSH1 0x3 PUSH1 0x0 DUP4 DUP2 MSTORE PUSH1 0x20 ADD SWAP1 DUP2 MSTORE PUSH1 0x20 ADD PUSH1 0x0 KECCAK256 PUSH1 0x40 MLOAD DUP1 PUSH1 0xE0 ADD PUSH1 0x40 MSTORE SWAP1 DUP2 PUSH1 0x0 DUP3 ADD PUSH1 0x0 SWAP1 SLOAD SWAP1 PUSH2 0x100 EXP SWAP1 DIV PUSH20 0xFFFFFFFFFFFFFFFFFFFFFFFFFFFFFFFFFFFFFFFF AND PUSH20 0xFFFFFFFFFFFFFFFFFFFFFFFFFFFFFFFFFFFFFFFF AND PUSH20 0xFFFFFFFFFFFFFFFFFFFFFFFFFFFFFFFFFFFFFFFF AND DUP2 MSTORE PUSH1 0x20 ADD PUSH1 0x1 DUP3 ADD SLOAD DUP2 MSTORE PUSH1 0x20 ADD PUSH1 0x2 DUP3 ADD SLOAD DUP2 MSTORE PUSH1 0x20 ADD PUSH1 0x3 DUP3 ADD PUSH1 0x0 SWAP1 SLOAD SWAP1 PUSH2 0x100 EXP SWAP1 DIV PUSH1 0xFF AND PUSH1 0x1 DUP2 GT ISZERO PUSH2 0xC19 JUMPI PUSH2 0xC18 PUSH2 0x1337 JUMP JUMPDEST JUMPDEST PUSH1 0x1 DUP2 GT ISZERO PUSH2 0xC2B JUMPI PUSH2 0xC2A PUSH2 0x1337 JUMP JUMPDEST JUMPDEST DUP2 MSTORE PUSH1 0x20 ADD PUSH1 0x4 DUP3 ADD SLOAD DUP2 MSTORE PUSH1 0x20 ADD PUSH1 0x5 DUP3 ADD SLOAD DUP2 MSTORE PUSH1 0x20 ADD PUSH1 0x6 DUP3 ADD SLOAD DUP2 MSTORE POP POP CALLER DUP1 PUSH20 0xFFFFFFFFFFFFFFFFFFFFFFFFFFFFFFFFFFFFFFFF AND DUP3 PUSH1 0x0 ADD MLOAD PUSH20 0xFFFFFFFFFFFFFFFFFFFFFFFFFFFFFFFFFFFFFFFF AND EQ PUSH2 0xCC0 JUMPI PUSH1 0x40 MLOAD PUSH32 0x8C379A000000000000000000000000000000000000000000000000000000000 DUP2 MSTORE PUSH1 0x4 ADD PUSH2 0xCB7 SWAP1 PUSH2 0x17B7 JUMP JUMPDEST PUSH1 0x40 MLOAD DUP1 SWAP2 SUB SWAP1 REVERT JUMPDEST POP POP POP POP JUMP JUMPDEST PUSH1 0x0 DUP2 LT ISZERO PUSH2 0xD0A JUMPI PUSH1 0x40 MLOAD PUSH32 0x8C379A000000000000000000000000000000000000000000000000000000000 DUP2 MSTORE PUSH1 0x4 ADD PUSH2 0xD01 SWAP1 PUSH2 0x1823 JUMP JUMPDEST PUSH1 0x40 MLOAD DUP1 SWAP2 SUB SWAP1 REVERT JUMPDEST DUP1 CALLVALUE LT ISZERO PUSH2 0xD4D JUMPI PUSH1 0x40 MLOAD PUSH32 0x8C379A000000000000000000000000000000000000000000000000000000000 DUP2 MSTORE PUSH1 0x4 ADD PUSH2 0xD44 SWAP1 PUSH2 0x1A9A JUMP JUMPDEST PUSH1 0x40 MLOAD DUP1 SWAP2 SUB SWAP1 REVERT JUMPDEST POP JUMP JUMPDEST PUSH1 0xA SLOAD DUP2 JUMP JUMPDEST PUSH1 0x6 SLOAD DUP2 JUMP JUMPDEST PUSH1 0x0 PUSH1 0x3 PUSH1 0x0 DUP4 DUP2 MSTORE PUSH1 0x20 ADD SWAP1 DUP2 MSTORE PUSH1 0x20 ADD PUSH1 0x0 KECCAK256 PUSH1 0x3 ADD PUSH1 0x0 SWAP1 SLOAD SWAP1 PUSH2 0x100 EXP SWAP1 DIV PUSH1 0xFF AND SWAP1 POP SWAP2 SWAP1 POP JUMP JUMPDEST PUSH1 0x60 SWAP1 JUMP JUMPDEST PUSH1 0x0 DUP1 PUSH1 0x0 DUP1 PUSH1 0x0 DUP1 PUSH1 0x0 DUP1 SWAP2 SWAP4 SWAP6 SWAP8 POP SWAP2 SWAP4 SWAP6 SWAP8 JUMP JUMPDEST PUSH1 0x0 PUSH1 0x7 PUSH1 0x0 DUP4 DUP2 MSTORE PUSH1 0x20 ADD SWAP1 DUP2 MSTORE PUSH1 0x20 ADD PUSH1 0x0 KECCAK256 PUSH1 0x1 ADD SLOAD SWAP1 POP SWAP2 SWAP1 POP JUMP JUMPDEST PUSH1 0x9 SLOAD DUP2 JUMP JUMPDEST PUSH2 0xDD3 PUSH2 0x10F3 JUMP JUMPDEST PUSH1 0xA PUSH1 0x0 DUP2 SLOAD DUP1 SWAP3 SWAP2 SWAP1 PUSH2 0xDE6 SWAP1 PUSH2 0x1ABA JUMP JUMPDEST SWAP2 SWAP1 POP SSTORE POP PUSH1 0x0 PUSH1 0x40 MLOAD DUP1 PUSH1 0xE0 ADD PUSH1 0x40 MSTORE DUP1 DUP7 PUSH20 0xFFFFFFFFFFFFFFFFFFFFFFFFFFFFFFFFFFFFFFFF AND DUP2 MSTORE PUSH1 0x20 ADD DUP6 DUP2 MSTORE PUSH1 0x20 ADD DUP5 DUP2 MSTORE PUSH1 0x20 ADD PUSH1 0x0 PUSH1 0x1 DUP2 GT ISZERO PUSH2 0xE34 JUMPI PUSH2 0xE33 PUSH2 0x1337 JUMP JUMPDEST JUMPDEST DUP2 MSTORE PUSH1 0x20 ADD PUSH1 0xA SLOAD DUP2 MSTORE PUSH1 0x20 ADD PUSH1 0x0 DUP2 MSTORE PUSH1 0x20 ADD PUSH1 0x0 DUP2 MSTORE POP SWAP1 POP DUP1 PUSH1 0x7 PUSH1 0x0 PUSH1 0xA SLOAD DUP2 MSTORE PUSH1 0x20 ADD SWAP1 DUP2 MSTORE PUSH1 0x20 ADD PUSH1 0x0 KECCAK256 PUSH1 0x0 DUP3 ADD MLOAD DUP2 PUSH1 0x0 ADD PUSH1 0x0 PUSH2 0x100 EXP DUP2 SLOAD DUP2 PUSH20 0xFFFFFFFFFFFFFFFFFFFFFFFFFFFFFFFFFFFFFFFF MUL NOT AND SWAP1 DUP4 PUSH20 0xFFFFFFFFFFFFFFFFFFFFFFFFFFFFFFFFFFFFFFFF AND MUL OR SWAP1 SSTORE POP PUSH1 0x20 DUP3 ADD MLOAD DUP2 PUSH1 0x1 ADD SSTORE PUSH1 0x40 DUP3 ADD MLOAD DUP2 PUSH1 0x2 ADD SSTORE PUSH1 0x60 DUP3 ADD MLOAD DUP2 PUSH1 0x3 ADD PUSH1 0x0 PUSH2 0x100 EXP DUP2 SLOAD DUP2 PUSH1 0xFF MUL NOT AND SWAP1 DUP4 PUSH1 0x1 DUP2 GT ISZERO PUSH2 0xEEB JUMPI PUSH2 0xEEA PUSH2 0x1337 JUMP JUMPDEST JUMPDEST MUL OR SWAP1 SSTORE POP PUSH1 0x80 DUP3 ADD MLOAD DUP2 PUSH1 0x4 ADD SSTORE PUSH1 0xA0 DUP3 ADD MLOAD DUP2 PUSH1 0x5 ADD SSTORE PUSH1 0xC0 DUP3 ADD MLOAD DUP2 PUSH1 0x6 ADD SSTORE SWAP1 POP POP PUSH32 0x93CAF6BA1AF44020DFE6076E279533E38BD8DEEFE534C43AA8CC93AAD2025B7D DUP6 DUP6 DUP6 PUSH1 0x0 PUSH1 0xA SLOAD PUSH1 0x0 DUP1 PUSH1 0x0 PUSH1 0x40 MLOAD PUSH2 0xF53 SWAP9 SWAP8 SWAP7 SWAP6 SWAP5 SWAP4 SWAP3 SWAP2 SWAP1 PUSH2 0x1B68 JUMP JUMPDEST PUSH1 0x40 MLOAD DUP1 SWAP2 SUB SWAP1 LOG1 DUP1 SWAP2 POP POP SWAP4 SWAP3 POP POP POP JUMP JUMPDEST PUSH1 0x0 DUP1 PUSH1 0x8 SLOAD SUB PUSH2 0xF81 JUMPI DUP2 PUSH1 0x80 ADD MLOAD PUSH1 0x8 DUP2 SWAP1 SSTORE POP PUSH2 0x10EF JUMP JUMPDEST DUP2 PUSH1 0x20 ADD MLOAD PUSH1 0x7 PUSH1 0x0 PUSH1 0x8 SLOAD DUP2 MSTORE PUSH1 0x20 ADD SWAP1 DUP2 MSTORE PUSH1 0x20 ADD PUSH1 0x0 KECCAK256 PUSH1 0x1 ADD SLOAD LT PUSH2 0xFE3 JUMPI PUSH1 0x8 SLOAD DUP3 PUSH1 0xA0 ADD DUP2 DUP2 MSTORE POP POP DUP2 PUSH1 0x80 ADD MLOAD PUSH1 0x7 PUSH1 0x0 DUP5 PUSH1 0xA0 ADD MLOAD DUP2 MSTORE PUSH1 0x20 ADD SWAP1 DUP2 MSTORE PUSH1 0x20 ADD PUSH1 0x0 KECCAK256 PUSH1 0x6 ADD DUP2 SWAP1 SSTORE POP DUP2 PUSH1 0x80 ADD MLOAD PUSH1 0x8 DUP2 SWAP1 SSTORE POP PUSH2 0x10EE JUMP JUMPDEST PUSH1 0x8 SLOAD SWAP1 POP JUMPDEST PUSH1 0x0 PUSH1 0x7 PUSH1 0x0 DUP4 DUP2 MSTORE PUSH1 0x20 ADD SWAP1 DUP2 MSTORE PUSH1 0x20 ADD PUSH1 0x0 KECCAK256 PUSH1 0x5 ADD SLOAD EQ ISZERO DUP1 ISZERO PUSH2 0x103F JUMPI POP DUP2 PUSH1 0x20 ADD MLOAD PUSH1 0x7 PUSH1 0x0 PUSH1 0x7 PUSH1 0x0 DUP6 DUP2 MSTORE PUSH1 0x20 ADD SWAP1 DUP2 MSTORE PUSH1 0x20 ADD PUSH1 0x0 KECCAK256 PUSH1 0x5 ADD SLOAD DUP2 MSTORE PUSH1 0x20 ADD SWAP1 DUP2 MSTORE PUSH1 0x20 ADD PUSH1 0x0 KECCAK256 PUSH1 0x1 ADD SLOAD LT JUMPDEST ISZERO PUSH2 0x1062 JUMPI PUSH1 0x7 PUSH1 0x0 DUP3 DUP2 MSTORE PUSH1 0x20 ADD SWAP1 DUP2 MSTORE PUSH1 0x20 ADD PUSH1 0x0 KECCAK256 PUSH1 0x5 ADD SLOAD SWAP1 POP PUSH2 0xFE9 JUMP JUMPDEST PUSH1 0x7 PUSH1 0x0 DUP3 DUP2 MSTORE PUSH1 0x20 ADD SWAP1 DUP2 MSTORE PUSH1 0x20 ADD PUSH1 0x0 KECCAK256 PUSH1 0x5 ADD SLOAD DUP3 PUSH1 0xA0 ADD DUP2 DUP2 MSTORE POP POP PUSH1 0x0 PUSH1 0x7 PUSH1 0x0 DUP4 DUP2 MSTORE PUSH1 0x20 ADD SWAP1 DUP2 MSTORE PUSH1 0x20 ADD PUSH1 0x0 KECCAK256 PUSH1 0x5 ADD SLOAD EQ PUSH2 0x10C4 JUMPI DUP2 PUSH1 0x80 ADD MLOAD PUSH1 0x7 PUSH1 0x0 DUP5 PUSH1 0xA0 ADD MLOAD DUP2 MSTORE PUSH1 0x20 ADD SWAP1 DUP2 MSTORE PUSH1 0x20 ADD PUSH1 0x0 KECCAK256 PUSH1 0x6 ADD DUP2 SWAP1 SSTORE POP JUMPDEST DUP2 PUSH1 0x80 ADD MLOAD PUSH1 0x7 PUSH1 0x0 DUP4 DUP2 MSTORE PUSH1 0x20 ADD SWAP1 DUP2 MSTORE PUSH1 0x20 ADD PUSH1 0x0 KECCAK256 PUSH1 0x5 ADD DUP2 SWAP1 SSTORE POP DUP1 DUP3 PUSH1 0xC0 ADD DUP2 DUP2 MSTORE POP POP JUMPDEST JUMPDEST POP POP JUMP JUMPDEST PUSH1 0x40 MLOAD DUP1 PUSH1 0xE0 ADD PUSH1 0x40 MSTORE DUP1 PUSH1 0x0 PUSH20 0xFFFFFFFFFFFFFFFFFFFFFFFFFFFFFFFFFFFFFFFF AND DUP2 MSTORE PUSH1 0x20 ADD PUSH1 0x0 DUP2 MSTORE PUSH1 0x20 ADD PUSH1 0x0 DUP2 MSTORE PUSH1 0x20 ADD PUSH1 0x0 PUSH1 0x1 DUP2 GT ISZERO PUSH2 0x113D JUMPI PUSH2 0x113C PUSH2 0x1337 JUMP JUMPDEST JUMPDEST DUP2 MSTORE PUSH1 0x20 ADD PUSH1 0x0 DUP2 MSTORE PUSH1 0x20 ADD PUSH1 0x0 DUP2 MSTORE PUSH1 0x20 ADD PUSH1 0x0 DUP2 MSTORE POP SWAP1 JUMP JUMPDEST PUSH1 0x0 DUP2 MLOAD SWAP1 POP SWAP2 SWAP1 POP JUMP JUMPDEST PUSH1 0x0 DUP3 DUP3 MSTORE PUSH1 0x20 DUP3 ADD SWAP1 POP SWAP3 SWAP2 POP POP JUMP JUMPDEST PUSH1 0x0 DUP2 SWAP1 POP PUSH1 0x20 DUP3 ADD SWAP1 POP SWAP2 SWAP1 POP JUMP JUMPDEST PUSH1 0x0 DUP2 SWAP1 POP SWAP2 SWAP1 POP JUMP JUMPDEST PUSH2 0x1197 DUP2 PUSH2 0x1184 JUMP JUMPDEST DUP3 MSTORE POP POP JUMP JUMPDEST PUSH1 0x0 PUSH2 0x11A9 DUP4 DUP4 PUSH2 0x118E JUMP JUMPDEST PUSH1 0x20 DUP4 ADD SWAP1 POP SWAP3 SWAP2 POP POP JUMP JUMPDEST PUSH1 0x0 PUSH1 0x20 DUP3 ADD SWAP1 POP SWAP2 SWAP1 POP JUMP JUMPDEST PUSH1 0x0 PUSH2 0x11CD DUP3 PUSH2 0x1158 JUMP JUMPDEST PUSH2 0x11D7 DUP2 DUP6 PUSH2 0x1163 JUMP JUMPDEST SWAP4 POP PUSH2 0x11E2 DUP4 PUSH2 0x1174 JUMP JUMPDEST DUP1 PUSH1 0x0 JUMPDEST DUP4 DUP2 LT ISZERO PUSH2 0x1213 JUMPI DUP2 MLOAD PUSH2 0x11FA DUP9 DUP3 PUSH2 0x119D JUMP JUMPDEST SWAP8 POP PUSH2 0x1205 DUP4 PUSH2 0x11B5 JUMP JUMPDEST SWAP3 POP POP PUSH1 0x1 DUP2 ADD SWAP1 POP PUSH2 0x11E6 JUMP JUMPDEST POP DUP6 SWAP4 POP POP POP POP SWAP3 SWAP2 POP POP JUMP JUMPDEST PUSH1 0x0 PUSH1 0x20 DUP3 ADD SWAP1 POP DUP2 DUP2 SUB PUSH1 0x0 DUP4 ADD MSTORE PUSH2 0x123A DUP2 DUP5 PUSH2 0x11C2 JUMP JUMPDEST SWAP1 POP SWAP3 SWAP2 POP POP JUMP JUMPDEST PUSH1 0x0 DUP1 REVERT JUMPDEST PUSH2 0x1250 DUP2 PUSH2 0x1184 JUMP JUMPDEST DUP2 EQ PUSH2 0x125B JUMPI PUSH1 0x0 DUP1 REVERT JUMPDEST POP JUMP JUMPDEST PUSH1 0x0 DUP2 CALLDATALOAD SWAP1 POP PUSH2 0x126D DUP2 PUSH2 0x1247 JUMP JUMPDEST SWAP3 SWAP2 POP POP JUMP JUMPDEST PUSH1 0x0 PUSH1 0x20 DUP3 DUP5 SUB SLT ISZERO PUSH2 0x1289 JUMPI PUSH2 0x1288 PUSH2 0x1242 JUMP JUMPDEST JUMPDEST PUSH1 0x0 PUSH2 0x1297 DUP5 DUP3 DUP6 ADD PUSH2 0x125E JUMP JUMPDEST SWAP2 POP POP SWAP3 SWAP2 POP POP JUMP JUMPDEST PUSH2 0x12A9 DUP2 PUSH2 0x1184 JUMP JUMPDEST DUP3 MSTORE POP POP JUMP JUMPDEST PUSH1 0x0 PUSH1 0x20 DUP3 ADD SWAP1 POP PUSH2 0x12C4 PUSH1 0x0 DUP4 ADD DUP5 PUSH2 0x12A0 JUMP JUMPDEST SWAP3 SWAP2 POP POP JUMP JUMPDEST PUSH1 0x0 DUP2 MLOAD SWAP1 POP SWAP2 SWAP1 POP JUMP JUMPDEST PUSH1 0x0 DUP3 DUP3 MSTORE PUSH1 0x20 DUP3 ADD SWAP1 POP SWAP3 SWAP2 POP POP JUMP JUMPDEST PUSH1 0x0 DUP2 SWAP1 POP PUSH1 0x20 DUP3 ADD SWAP1 POP SWAP2 SWAP1 POP JUMP JUMPDEST PUSH1 0x0 PUSH20 0xFFFFFFFFFFFFFFFFFFFFFFFFFFFFFFFFFFFFFFFF DUP3 AND SWAP1 POP SWAP2 SWAP1 POP JUMP JUMPDEST PUSH1 0x0 PUSH2 0x1321 DUP3 PUSH2 0x12F6 JUMP JUMPDEST SWAP1 POP SWAP2 SWAP1 POP JUMP JUMPDEST PUSH2 0x1331 DUP2 PUSH2 0x1316 JUMP JUMPDEST DUP3 MSTORE POP POP JUMP JUMPDEST PUSH32 0x4E487B7100000000000000000000000000000000000000000000000000000000 PUSH1 0x0 MSTORE PUSH1 0x21 PUSH1 0x4 MSTORE PUSH1 0x24 PUSH1 0x0 REVERT JUMPDEST PUSH1 0x2 DUP2 LT PUSH2 0x1377 JUMPI PUSH2 0x1376 PUSH2 0x1337 JUMP JUMPDEST JUMPDEST POP JUMP JUMPDEST PUSH1 0x0 DUP2 SWAP1 POP PUSH2 0x1388 DUP3 PUSH2 0x1366 JUMP JUMPDEST SWAP2 SWAP1 POP JUMP JUMPDEST PUSH1 0x0 PUSH2 0x1398 DUP3 PUSH2 0x137A JUMP JUMPDEST SWAP1 POP SWAP2 SWAP1 POP JUMP JUMPDEST PUSH2 0x13A8 DUP2 PUSH2 0x138D JUMP JUMPDEST DUP3 MSTORE POP POP JUMP JUMPDEST PUSH1 0xE0 DUP3 ADD PUSH1 0x0 DUP3 ADD MLOAD PUSH2 0x13C4 PUSH1 0x0 DUP6 ADD DUP3 PUSH2 0x1328 JUMP JUMPDEST POP PUSH1 0x20 DUP3 ADD MLOAD PUSH2 0x13D7 PUSH1 0x20 DUP6 ADD DUP3 PUSH2 0x118E JUMP JUMPDEST POP PUSH1 0x40 DUP3 ADD MLOAD PUSH2 0x13EA PUSH1 0x40 DUP6 ADD DUP3 PUSH2 0x118E JUMP JUMPDEST POP PUSH1 0x60 DUP3 ADD MLOAD PUSH2 0x13FD PUSH1 0x60 DUP6 ADD DUP3 PUSH2 0x139F JUMP JUMPDEST POP PUSH1 0x80 DUP3 ADD MLOAD PUSH2 0x1410 PUSH1 0x80 DUP6 ADD DUP3 PUSH2 0x118E JUMP JUMPDEST POP PUSH1 0xA0 DUP3 ADD MLOAD PUSH2 0x1423 PUSH1 0xA0 DUP6 ADD DUP3 PUSH2 0x118E JUMP JUMPDEST POP PUSH1 0xC0 DUP3 ADD MLOAD PUSH2 0x1436 PUSH1 0xC0 DUP6 ADD DUP3 PUSH2 0x118E JUMP JUMPDEST POP POP POP POP JUMP JUMPDEST PUSH1 0x0 PUSH2 0x1448 DUP4 DUP4 PUSH2 0x13AE JUMP JUMPDEST PUSH1 0xE0 DUP4 ADD SWAP1 POP SWAP3 SWAP2 POP POP JUMP JUMPDEST PUSH1 0x0 PUSH1 0x20 DUP3 ADD SWAP1 POP SWAP2 SWAP1 POP JUMP JUMPDEST PUSH1 0x0 PUSH2 0x146C DUP3 PUSH2 0x12CA JUMP JUMPDEST PUSH2 0x1476 DUP2 DUP6 PUSH2 0x12D5 JUMP JUMPDEST SWAP4 POP PUSH2 0x1481 DUP4 PUSH2 0x12E6 JUMP JUMPDEST DUP1 PUSH1 0x0 JUMPDEST DUP4 DUP2 LT ISZERO PUSH2 0x14B2 JUMPI DUP2 MLOAD PUSH2 0x1499 DUP9 DUP3 PUSH2 0x143C JUMP JUMPDEST SWAP8 POP PUSH2 0x14A4 DUP4 PUSH2 0x1454 JUMP JUMPDEST SWAP3 POP POP PUSH1 0x1 DUP2 ADD SWAP1 POP PUSH2 0x1485 JUMP JUMPDEST POP DUP6 SWAP4 POP POP POP POP SWAP3 SWAP2 POP POP JUMP JUMPDEST PUSH1 0x0 PUSH1 0x20 DUP3 ADD SWAP1 POP DUP2 DUP2 SUB PUSH1 0x0 DUP4 ADD MSTORE PUSH2 0x14D9 DUP2 DUP5 PUSH2 0x1461 JUMP JUMPDEST SWAP1 POP SWAP3 SWAP2 POP POP JUMP JUMPDEST PUSH1 0x0 DUP2 MLOAD SWAP1 POP SWAP2 SWAP1 POP JUMP JUMPDEST PUSH1 0x0 DUP3 DUP3 MSTORE PUSH1 0x20 DUP3 ADD SWAP1 POP SWAP3 SWAP2 POP POP JUMP JUMPDEST PUSH1 0x0 JUMPDEST DUP4 DUP2 LT ISZERO PUSH2 0x151B JUMPI DUP1 DUP3 ADD MLOAD DUP2 DUP5 ADD MSTORE PUSH1 0x20 DUP2 ADD SWAP1 POP PUSH2 0x1500 JUMP JUMPDEST DUP4 DUP2 GT ISZERO PUSH2 0x152A JUMPI PUSH1 0x0 DUP5 DUP5 ADD MSTORE JUMPDEST POP POP POP POP JUMP JUMPDEST PUSH1 0x0 PUSH1 0x1F NOT PUSH1 0x1F DUP4 ADD AND SWAP1 POP SWAP2 SWAP1 POP JUMP JUMPDEST PUSH1 0x0 PUSH2 0x154C DUP3 PUSH2 0x14E1 JUMP JUMPDEST PUSH2 0x1556 DUP2 DUP6 PUSH2 0x14EC JUMP JUMPDEST SWAP4 POP PUSH2 0x1566 DUP2 DUP6 PUSH1 0x20 DUP7 ADD PUSH2 0x14FD JUMP JUMPDEST PUSH2 0x156F DUP2 PUSH2 0x1530 JUMP JUMPDEST DUP5 ADD SWAP2 POP POP SWAP3 SWAP2 POP POP JUMP JUMPDEST PUSH1 0x0 PUSH1 0x20 DUP3 ADD SWAP1 POP DUP2 DUP2 SUB PUSH1 0x0 DUP4 ADD MSTORE PUSH2 0x1594 DUP2 DUP5 PUSH2 0x1541 JUMP JUMPDEST SWAP1 POP SWAP3 SWAP2 POP POP JUMP JUMPDEST PUSH2 0x15A5 DUP2 PUSH2 0x138D JUMP JUMPDEST DUP3 MSTORE POP POP JUMP JUMPDEST PUSH1 0x0 PUSH1 0x20 DUP3 ADD SWAP1 POP PUSH2 0x15C0 PUSH1 0x0 DUP4 ADD DUP5 PUSH2 0x159C JUMP JUMPDEST SWAP3 SWAP2 POP POP JUMP JUMPDEST PUSH2 0x15CF DUP2 PUSH2 0x1316 JUMP JUMPDEST DUP3 MSTORE POP POP JUMP JUMPDEST PUSH1 0x0 PUSH1 0x20 DUP3 ADD SWAP1 POP PUSH2 0x15EA PUSH1 0x0 DUP4 ADD DUP5 PUSH2 0x15C6 JUMP JUMPDEST SWAP3 SWAP2 POP POP JUMP JUMPDEST PUSH1 0x0 DUP2 SWAP1 POP SWAP2 SWAP1 POP JUMP JUMPDEST PUSH2 0x1603 DUP2 PUSH2 0x15F0 JUMP JUMPDEST DUP2 EQ PUSH2 0x160E JUMPI PUSH1 0x0 DUP1 REVERT JUMPDEST POP JUMP JUMPDEST PUSH1 0x0 DUP2 CALLDATALOAD SWAP1 POP PUSH2 0x1620 DUP2 PUSH2 0x15FA JUMP JUMPDEST SWAP3 SWAP2 POP POP JUMP JUMPDEST PUSH1 0x0 DUP1 PUSH1 0x40 DUP4 DUP6 SUB SLT ISZERO PUSH2 0x163D JUMPI PUSH2 0x163C PUSH2 0x1242 JUMP JUMPDEST JUMPDEST PUSH1 0x0 PUSH2 0x164B DUP6 DUP3 DUP7 ADD PUSH2 0x125E JUMP JUMPDEST SWAP3 POP POP PUSH1 0x20 PUSH2 0x165C DUP6 DUP3 DUP7 ADD PUSH2 0x1611 JUMP JUMPDEST SWAP2 POP POP SWAP3 POP SWAP3 SWAP1 POP JUMP JUMPDEST PUSH1 0x0 DUP2 ISZERO ISZERO SWAP1 POP SWAP2 SWAP1 POP JUMP JUMPDEST PUSH2 0x167B DUP2 PUSH2 0x1666 JUMP JUMPDEST DUP3 MSTORE POP POP JUMP JUMPDEST PUSH1 0x0 PUSH2 0x100 DUP3 ADD SWAP1 POP PUSH2 0x1697 PUSH1 0x0 DUP4 ADD DUP12 PUSH2 0x15C6 JUMP JUMPDEST PUSH2 0x16A4 PUSH1 0x20 DUP4 ADD DUP11 PUSH2 0x12A0 JUMP JUMPDEST PUSH2 0x16B1 PUSH1 0x40 DUP4 ADD DUP10 PUSH2 0x12A0 JUMP JUMPDEST PUSH2 0x16BE PUSH1 0x60 DUP4 ADD DUP9 PUSH2 0x159C JUMP JUMPDEST PUSH2 0x16CB PUSH1 0x80 DUP4 ADD DUP8 PUSH2 0x12A0 JUMP JUMPDEST PUSH2 0x16D8 PUSH1 0xA0 DUP4 ADD DUP7 PUSH2 0x12A0 JUMP JUMPDEST PUSH2 0x16E5 PUSH1 0xC0 DUP4 ADD DUP6 PUSH2 0x12A0 JUMP JUMPDEST PUSH2 0x16F2 PUSH1 0xE0 DUP4 ADD DUP5 PUSH2 0x1672 JUMP JUMPDEST SWAP10 SWAP9 POP POP POP POP POP POP POP POP POP JUMP JUMPDEST PUSH32 0x4F726465722050656E64696E6700000000000000000000000000000000000000 PUSH1 0x0 DUP3 ADD MSTORE POP JUMP JUMPDEST PUSH1 0x0 PUSH2 0x1735 PUSH1 0xD DUP4 PUSH2 0x14EC JUMP JUMPDEST SWAP2 POP PUSH2 0x1740 DUP3 PUSH2 0x16FF JUMP JUMPDEST PUSH1 0x20 DUP3 ADD SWAP1 POP SWAP2 SWAP1 POP JUMP JUMPDEST PUSH1 0x0 PUSH1 0x20 DUP3 ADD SWAP1 POP DUP2 DUP2 SUB PUSH1 0x0 DUP4 ADD MSTORE PUSH2 0x1764 DUP2 PUSH2 0x1728 JUMP JUMPDEST SWAP1 POP SWAP2 SWAP1 POP JUMP JUMPDEST PUSH32 0x4E6F7420417574686F7269736564000000000000000000000000000000000000 PUSH1 0x0 DUP3 ADD MSTORE POP JUMP JUMPDEST PUSH1 0x0 PUSH2 0x17A1 PUSH1 0xE DUP4 PUSH2 0x14EC JUMP JUMPDEST SWAP2 POP PUSH2 0x17AC DUP3 PUSH2 0x176B JUMP JUMPDEST PUSH1 0x20 DUP3 ADD SWAP1 POP SWAP2 SWAP1 POP JUMP JUMPDEST PUSH1 0x0 PUSH1 0x20 DUP3 ADD SWAP1 POP DUP2 DUP2 SUB PUSH1 0x0 DUP4 ADD MSTORE PUSH2 0x17D0 DUP2 PUSH2 0x1794 JUMP JUMPDEST SWAP1 POP SWAP2 SWAP1 POP JUMP JUMPDEST PUSH32 0x70726963652076616C7565206D757374206265206D6F7265207468616E203000 PUSH1 0x0 DUP3 ADD MSTORE POP JUMP JUMPDEST PUSH1 0x0 PUSH2 0x180D PUSH1 0x1F DUP4 PUSH2 0x14EC JUMP JUMPDEST SWAP2 POP PUSH2 0x1818 DUP3 PUSH2 0x17D7 JUMP JUMPDEST PUSH1 0x20 DUP3 ADD SWAP1 POP SWAP2 SWAP1 POP JUMP JUMPDEST PUSH1 0x0 PUSH1 0x20 DUP3 ADD SWAP1 POP DUP2 DUP2 SUB PUSH1 0x0 DUP4 ADD MSTORE PUSH2 0x183C DUP2 PUSH2 0x1800 JUMP JUMPDEST SWAP1 POP SWAP2 SWAP1 POP JUMP JUMPDEST PUSH32 0x4E6F7420656E6F75676820626C616E636520746F20706C6163652061736B0000 PUSH1 0x0 DUP3 ADD MSTORE POP JUMP JUMPDEST PUSH1 0x0 PUSH2 0x1879 PUSH1 0x1E DUP4 PUSH2 0x14EC JUMP JUMPDEST SWAP2 POP PUSH2 0x1884 DUP3 PUSH2 0x1843 JUMP JUMPDEST PUSH1 0x20 DUP3 ADD SWAP1 POP SWAP2 SWAP1 POP JUMP JUMPDEST PUSH1 0x0 PUSH1 0x20 DUP3 ADD SWAP1 POP DUP2 DUP2 SUB PUSH1 0x0 DUP4 ADD MSTORE PUSH2 0x18A8 DUP2 PUSH2 0x186C JUMP JUMPDEST SWAP1 POP SWAP2 SWAP1 POP JUMP JUMPDEST PUSH32 0x4E487B7100000000000000000000000000000000000000000000000000000000 PUSH1 0x0 MSTORE PUSH1 0x11 PUSH1 0x4 MSTORE PUSH1 0x24 PUSH1 0x0 REVERT JUMPDEST PUSH1 0x0 PUSH2 0x18E9 DUP3 PUSH2 0x1184 JUMP JUMPDEST SWAP2 POP PUSH2 0x18F4 DUP4 PUSH2 0x1184 JUMP JUMPDEST SWAP3 POP DUP3 DUP3 LT ISZERO PUSH2 0x1907 JUMPI PUSH2 0x1906 PUSH2 0x18AF JUMP JUMPDEST JUMPDEST DUP3 DUP3 SUB SWAP1 POP SWAP3 SWAP2 POP POP JUMP JUMPDEST PUSH1 0x0 PUSH2 0x191D DUP3 PUSH2 0x1184 JUMP JUMPDEST SWAP2 POP PUSH2 0x1928 DUP4 PUSH2 0x1184 JUMP JUMPDEST SWAP3 POP DUP2 PUSH32 0xFFFFFFFFFFFFFFFFFFFFFFFFFFFFFFFFFFFFFFFFFFFFFFFFFFFFFFFFFFFFFFFF DIV DUP4 GT DUP3 ISZERO ISZERO AND ISZERO PUSH2 0x1961 JUMPI PUSH2 0x1960 PUSH2 0x18AF JUMP JUMPDEST JUMPDEST DUP3 DUP3 MUL SWAP1 POP SWAP3 SWAP2 POP POP JUMP JUMPDEST PUSH32 0x4E487B7100000000000000000000000000000000000000000000000000000000 PUSH1 0x0 MSTORE PUSH1 0x12 PUSH1 0x4 MSTORE PUSH1 0x24 PUSH1 0x0 REVERT JUMPDEST PUSH1 0x0 PUSH2 0x19A6 DUP3 PUSH2 0x1184 JUMP JUMPDEST SWAP2 POP PUSH2 0x19B1 DUP4 PUSH2 0x1184 JUMP JUMPDEST SWAP3 POP DUP3 PUSH2 0x19C1 JUMPI PUSH2 0x19C0 PUSH2 0x196C JUMP JUMPDEST JUMPDEST DUP3 DUP3 DIV SWAP1 POP SWAP3 SWAP2 POP POP JUMP JUMPDEST PUSH1 0x0 DUP2 SWAP1 POP SWAP2 SWAP1 POP JUMP JUMPDEST PUSH2 0x19E7 PUSH2 0x19E2 DUP3 PUSH2 0x15F0 JUMP JUMPDEST PUSH2 0x19CC JUMP JUMPDEST DUP3 MSTORE POP POP JUMP JUMPDEST PUSH32 0x202C200000000000000000000000000000000000000000000000000000000000 DUP2 MSTORE POP JUMP JUMPDEST PUSH1 0x0 PUSH2 0x1A1F DUP3 DUP6 PUSH2 0x19D6 JUMP JUMPDEST PUSH1 0x20 DUP3 ADD SWAP2 POP PUSH2 0x1A2E DUP3 PUSH2 0x19ED JUMP JUMPDEST PUSH1 0x3 DUP3 ADD SWAP2 POP PUSH2 0x1A3E DUP3 DUP5 PUSH2 0x19D6 JUMP JUMPDEST PUSH1 0x20 DUP3 ADD SWAP2 POP DUP2 SWAP1 POP SWAP4 SWAP3 POP POP POP JUMP JUMPDEST PUSH32 0x4E6F7420656E6F75676820626C616E636520746F20706C616365206269640000 PUSH1 0x0 DUP3 ADD MSTORE POP JUMP JUMPDEST PUSH1 0x0 PUSH2 0x1A84 PUSH1 0x1E DUP4 PUSH2 0x14EC JUMP JUMPDEST SWAP2 POP PUSH2 0x1A8F DUP3 PUSH2 0x1A4E JUMP JUMPDEST PUSH1 0x20 DUP3 ADD SWAP1 POP SWAP2 SWAP1 POP JUMP JUMPDEST PUSH1 0x0 PUSH1 0x20 DUP3 ADD SWAP1 POP DUP2 DUP2 SUB PUSH1 0x0 DUP4 ADD MSTORE PUSH2 0x1AB3 DUP2 PUSH2 0x1A77 JUMP JUMPDEST SWAP1 POP SWAP2 SWAP1 POP JUMP JUMPDEST PUSH1 0x0 PUSH2 0x1AC5 DUP3 PUSH2 0x1184 JUMP JUMPDEST SWAP2 POP PUSH32 0xFFFFFFFFFFFFFFFFFFFFFFFFFFFFFFFFFFFFFFFFFFFFFFFFFFFFFFFFFFFFFFFF DUP3 SUB PUSH2 0x1AF7 JUMPI PUSH2 0x1AF6 PUSH2 0x18AF JUMP JUMPDEST JUMPDEST PUSH1 0x1 DUP3 ADD SWAP1 POP SWAP2 SWAP1 POP JUMP JUMPDEST PUSH1 0x0 PUSH2 0x1B0D DUP3 PUSH2 0x12F6 JUMP JUMPDEST SWAP1 POP SWAP2 SWAP1 POP JUMP JUMPDEST PUSH2 0x1B1D DUP2 PUSH2 0x1B02 JUMP JUMPDEST DUP3 MSTORE POP POP JUMP JUMPDEST PUSH1 0x0 DUP2 SWAP1 POP SWAP2 SWAP1 POP JUMP JUMPDEST PUSH1 0x0 DUP2 SWAP1 POP SWAP2 SWAP1 POP JUMP JUMPDEST PUSH1 0x0 PUSH2 0x1B52 PUSH2 0x1B4D PUSH2 0x1B48 DUP5 PUSH2 0x1B23 JUMP JUMPDEST PUSH2 0x1B2D JUMP JUMPDEST PUSH2 0x1184 JUMP JUMPDEST SWAP1 POP SWAP2 SWAP1 POP JUMP JUMPDEST PUSH2 0x1B62 DUP2 PUSH2 0x1B37 JUMP JUMPDEST DUP3 MSTORE POP POP JUMP JUMPDEST PUSH1 0x0 PUSH2 0x100 DUP3 ADD SWAP1 POP PUSH2 0x1B7E PUSH1 0x0 DUP4 ADD DUP12 PUSH2 0x1B14 JUMP JUMPDEST PUSH2 0x1B8B PUSH1 0x20 DUP4 ADD DUP11 PUSH2 0x12A0 JUMP JUMPDEST PUSH2 0x1B98 PUSH1 0x40 DUP4 ADD DUP10 PUSH2 0x12A0 JUMP JUMPDEST PUSH2 0x1BA5 PUSH1 0x60 DUP4 ADD DUP9 PUSH2 0x159C JUMP JUMPDEST PUSH2 0x1BB2 PUSH1 0x80 DUP4 ADD DUP8 PUSH2 0x12A0 JUMP JUMPDEST PUSH2 0x1BBF PUSH1 0xA0 DUP4 ADD DUP7 PUSH2 0x1B59 JUMP JUMPDEST PUSH2 0x1BCC PUSH1 0xC0 DUP4 ADD DUP6 PUSH2 0x1B59 JUMP JUMPDEST PUSH2 0x1BD9 PUSH1 0xE0 DUP4 ADD DUP5 PUSH2 0x1672 JUMP JUMPDEST SWAP10 SWAP9 POP POP POP POP POP POP POP POP POP JUMP INVALID LOG2 PUSH5 0x6970667358 0x22 SLT KECCAK256 0xAD STATICCALL 0xD6 DUP11 DUP16 ISZERO LOG1 0xB2 0xB3 0xF9 0xDD SWAP3 MSIZE BALANCE PUSH9 0x34C7E04277C59F42DF PUSH15 0xF152181883956F64736F6C63430008 0xD STOP CALLER "
				},
				"gasEstimates": {
					"creation": {
						"codeDepositCost": "1439200",
						"executionCost": "infinite",
						"totalCost": "infinite"
					},
					"external": {
						"AppendString(uint256,bytes32)": "infinite",
						"askCount()": "2540",
						"askHead()": "2474",
						"askTail()": "2561",
						"bidCount()": "2451",
						"bidHead()": "2496",
						"bidTail()": "2452",
						"cancelAsk(uint256)": "31089",
						"cancelBid(uint256)": "31110",
						"fetchAllBid()": "infinite",
						"fetchAsk()": "infinite",
						"fetchYourAskIds()": "infinite",
						"fetchYourBidIds()": "infinite",
						"getAskAddress(uint256)": "2960",
						"getAskState(uint256)": "2940",
						"getAskValue(uint256)": "infinite",
						"getBidAddress(uint256)": "2916",
						"getBidState(uint256)": "2961",
						"getBidValue(uint256)": "infinite",
						"getOrder(uint256)": "infinite",
						"placeAsk(uint256)": "infinite",
						"placeBid(uint256)": "809"
					},
					"internal": {
						"askBid(uint256,uint256)": "infinite",
						"createAsk(address,uint256,uint256)": "infinite",
						"createBid(address,uint256,uint256)": "infinite",
						"insertionSortAsk()": "infinite",
						"linkBid(uint256,uint256)": "infinite",
						"setAskHead(uint256)": "infinite",
						"setAskTail(uint256)": "infinite",
						"setBidHead(uint256)": "infinite",
						"setBidTail(uint256)": "infinite",
						"sortAsk(struct OrderBook.order memory)": "infinite"
					}
				},
				"methodIdentifiers": {
					"AppendString(uint256,bytes32)": "79b2f70d",
					"askCount()": "a394fda7",
					"askHead()": "801d9bbd",
					"askTail()": "ecdfb860",
					"bidCount()": "b40a5627",
					"bidHead()": "6e5b0f00",
					"bidTail()": "7bb51193",
					"cancelAsk(uint256)": "1628e0f5",
					"cancelBid(uint256)": "9703ef35",
					"fetchAllBid()": "4471417f",
					"fetchAsk()": "44e791e0",
					"fetchYourAskIds()": "122de8f2",
					"fetchYourBidIds()": "ce0cdc87",
					"getAskAddress(uint256)": "734a2e78",
					"getAskState(uint256)": "4d46712d",
					"getAskValue(uint256)": "db3a1396",
					"getBidAddress(uint256)": "69f632e2",
					"getBidState(uint256)": "bf77ffae",
					"getBidValue(uint256)": "2db6dfa7",
					"getOrder(uint256)": "d09ef241",
					"placeAsk(uint256)": "78c5b268",
					"placeBid(uint256)": "9979ef45"
				}
			},
			"storageLayout": {
				"storage": [
					{
						"astId": 8,
						"contract": "contracts/OrderBook.sol:OrderBook",
						"label": "bidValues",
						"offset": 0,
						"slot": "0",
						"type": "t_mapping(t_uint256,t_uint256)"
					},
					{
						"astId": 15,
						"contract": "contracts/OrderBook.sol:OrderBook",
						"label": "_owner",
						"offset": 0,
						"slot": "1",
						"type": "t_address_payable"
					},
					{
						"astId": 17,
						"contract": "contracts/OrderBook.sol:OrderBook",
						"label": "commission",
						"offset": 0,
						"slot": "2",
						"type": "t_uint256"
					},
					{
						"astId": 38,
						"contract": "contracts/OrderBook.sol:OrderBook",
						"label": "bidBook",
						"offset": 0,
						"slot": "3",
						"type": "t_mapping(t_uint256,t_struct(order)33_storage)"
					},
					{
						"astId": 40,
						"contract": "contracts/OrderBook.sol:OrderBook",
						"label": "bidHead",
						"offset": 0,
						"slot": "4",
						"type": "t_uint256"
					},
					{
						"astId": 42,
						"contract": "contracts/OrderBook.sol:OrderBook",
						"label": "bidTail",
						"offset": 0,
						"slot": "5",
						"type": "t_uint256"
					},
					{
						"astId": 44,
						"contract": "contracts/OrderBook.sol:OrderBook",
						"label": "bidCount",
						"offset": 0,
						"slot": "6",
						"type": "t_uint256"
					},
					{
						"astId": 49,
						"contract": "contracts/OrderBook.sol:OrderBook",
						"label": "askBook",
						"offset": 0,
						"slot": "7",
						"type": "t_mapping(t_uint256,t_struct(order)33_storage)"
					},
					{
						"astId": 51,
						"contract": "contracts/OrderBook.sol:OrderBook",
						"label": "askHead",
						"offset": 0,
						"slot": "8",
						"type": "t_uint256"
					},
					{
						"astId": 53,
						"contract": "contracts/OrderBook.sol:OrderBook",
						"label": "askTail",
						"offset": 0,
						"slot": "9",
						"type": "t_uint256"
					},
					{
						"astId": 55,
						"contract": "contracts/OrderBook.sol:OrderBook",
						"label": "askCount",
						"offset": 0,
						"slot": "10",
						"type": "t_uint256"
					}
				],
				"types": {
					"t_address_payable": {
						"encoding": "inplace",
						"label": "address payable",
						"numberOfBytes": "20"
					},
					"t_enum(State)4": {
						"encoding": "inplace",
						"label": "enum OrderBook.State",
						"numberOfBytes": "1"
					},
					"t_mapping(t_uint256,t_struct(order)33_storage)": {
						"encoding": "mapping",
						"key": "t_uint256",
						"label": "mapping(uint256 => struct OrderBook.order)",
						"numberOfBytes": "32",
						"value": "t_struct(order)33_storage"
					},
					"t_mapping(t_uint256,t_uint256)": {
						"encoding": "mapping",
						"key": "t_uint256",
						"label": "mapping(uint256 => uint256)",
						"numberOfBytes": "32",
						"value": "t_uint256"
					},
					"t_struct(order)33_storage": {
						"encoding": "inplace",
						"label": "struct OrderBook.order",
						"members": [
							{
								"astId": 19,
								"contract": "contracts/OrderBook.sol:OrderBook",
								"label": "customer",
								"offset": 0,
								"slot": "0",
								"type": "t_address_payable"
							},
							{
								"astId": 21,
								"contract": "contracts/OrderBook.sol:OrderBook",
								"label": "value",
								"offset": 0,
								"slot": "1",
								"type": "t_uint256"
							},
							{
								"astId": 23,
								"contract": "contracts/OrderBook.sol:OrderBook",
								"label": "timestamp",
								"offset": 0,
								"slot": "2",
								"type": "t_uint256"
							},
							{
								"astId": 26,
								"contract": "contracts/OrderBook.sol:OrderBook",
								"label": "state",
								"offset": 0,
								"slot": "3",
								"type": "t_enum(State)4"
							},
							{
								"astId": 28,
								"contract": "contracts/OrderBook.sol:OrderBook",
								"label": "id",
								"offset": 0,
								"slot": "4",
								"type": "t_uint256"
							},
							{
								"astId": 30,
								"contract": "contracts/OrderBook.sol:OrderBook",
								"label": "next",
								"offset": 0,
								"slot": "5",
								"type": "t_uint256"
							},
							{
								"astId": 32,
								"contract": "contracts/OrderBook.sol:OrderBook",
								"label": "prev",
								"offset": 0,
								"slot": "6",
								"type": "t_uint256"
							}
						],
						"numberOfBytes": "224"
					},
					"t_uint256": {
						"encoding": "inplace",
						"label": "uint256",
						"numberOfBytes": "32"
					}
				}
			},
			"userdoc": {
				"kind": "user",
				"methods": {},
				"version": 1
			}
		}
	}
}