{
	"contracts/OrderBook.sol": {
		"OrderBook": {
			"abi": [
				{
					"inputs": [
						{
							"internalType": "uint256",
							"name": "price",
							"type": "uint256"
						}
					],
					"name": "cancelAsk",
					"outputs": [],
					"stateMutability": "nonpayable",
					"type": "function"
				},
				{
					"inputs": [
						{
							"internalType": "uint256",
							"name": "bidId",
							"type": "uint256"
						}
					],
					"name": "cancelBid",
					"outputs": [],
					"stateMutability": "nonpayable",
					"type": "function"
				},
				{
					"inputs": [
						{
							"internalType": "uint256",
							"name": "price",
							"type": "uint256"
						}
					],
					"name": "placeAsk",
					"outputs": [],
					"stateMutability": "nonpayable",
					"type": "function"
				},
				{
					"inputs": [
						{
							"internalType": "uint256",
							"name": "price",
							"type": "uint256"
						}
					],
					"name": "placeBid",
					"outputs": [],
					"stateMutability": "nonpayable",
					"type": "function"
				},
				{
					"inputs": [
						{
							"components": [
								{
									"internalType": "address payable",
									"name": "customer",
									"type": "address"
								},
								{
									"internalType": "uint256",
									"name": "price",
									"type": "uint256"
								},
								{
									"internalType": "uint256",
									"name": "timestamp",
									"type": "uint256"
								}
							],
							"internalType": "struct OrderBook.order[]",
							"name": "data",
							"type": "tuple[]"
						}
					],
					"name": "sort",
					"outputs": [
						{
							"components": [
								{
									"internalType": "address payable",
									"name": "customer",
									"type": "address"
								},
								{
									"internalType": "uint256",
									"name": "price",
									"type": "uint256"
								},
								{
									"internalType": "uint256",
									"name": "timestamp",
									"type": "uint256"
								}
							],
							"internalType": "struct OrderBook.order[]",
							"name": "",
							"type": "tuple[]"
						}
					],
					"stateMutability": "nonpayable",
					"type": "function"
				}
			],
			"devdoc": {
				"kind": "dev",
				"methods": {},
				"version": 1
			},
			"evm": {
				"assembly": "    /* \"contracts/OrderBook.sol\":528:2857  contract OrderBook {... */\n  mstore(0x40, 0x80)\n  callvalue\n  dup1\n  iszero\n  tag_1\n  jumpi\n  0x00\n  dup1\n  revert\ntag_1:\n  pop\n  dataSize(sub_0)\n  dup1\n  dataOffset(sub_0)\n  0x00\n  codecopy\n  0x00\n  return\nstop\n\nsub_0: assembly {\n        /* \"contracts/OrderBook.sol\":528:2857  contract OrderBook {... */\n      mstore(0x40, 0x80)\n      callvalue\n      dup1\n      iszero\n      tag_1\n      jumpi\n      0x00\n      dup1\n      revert\n    tag_1:\n      pop\n      jumpi(tag_2, lt(calldatasize, 0x04))\n      shr(0xe0, calldataload(0x00))\n      dup1\n      0x1628e0f5\n      eq\n      tag_3\n      jumpi\n      dup1\n      0x1d9cc86f\n      eq\n      tag_4\n      jumpi\n      dup1\n      0x78c5b268\n      eq\n      tag_5\n      jumpi\n      dup1\n      0x9703ef35\n      eq\n      tag_6\n      jumpi\n      dup1\n      0x9979ef45\n      eq\n      tag_7\n      jumpi\n    tag_2:\n      0x00\n      dup1\n      revert\n        /* \"contracts/OrderBook.sol\":2486:2536  function cancelAsk (uint256 price) public {... */\n    tag_3:\n      tag_8\n      0x04\n      dup1\n      calldatasize\n      sub\n      dup2\n      add\n      swap1\n      tag_9\n      swap2\n      swap1\n      tag_10\n      jump\t// in\n    tag_9:\n      tag_11\n      jump\t// in\n    tag_8:\n      stop\n        /* \"contracts/OrderBook.sol\":665:821  function sort(order[] memory data) public returns(order[] memory) {... */\n    tag_4:\n      tag_12\n      0x04\n      dup1\n      calldatasize\n      sub\n      dup2\n      add\n      swap1\n      tag_13\n      swap2\n      swap1\n      tag_14\n      jump\t// in\n    tag_13:\n      tag_15\n      jump\t// in\n    tag_12:\n      mload(0x40)\n      tag_16\n      swap2\n      swap1\n      tag_17\n      jump\t// in\n    tag_16:\n      mload(0x40)\n      dup1\n      swap2\n      sub\n      swap1\n      return\n        /* \"contracts/OrderBook.sol\":2431:2480  function placeAsk (uint256 price) public {... */\n    tag_5:\n      tag_18\n      0x04\n      dup1\n      calldatasize\n      sub\n      dup2\n      add\n      swap1\n      tag_19\n      swap2\n      swap1\n      tag_10\n      jump\t// in\n    tag_19:\n      tag_20\n      jump\t// in\n    tag_18:\n      stop\n        /* \"contracts/OrderBook.sol\":2375:2425  function cancelBid (uint256 bidId) public {... */\n    tag_6:\n      tag_21\n      0x04\n      dup1\n      calldatasize\n      sub\n      dup2\n      add\n      swap1\n      tag_22\n      swap2\n      swap1\n      tag_10\n      jump\t// in\n    tag_22:\n      tag_23\n      jump\t// in\n    tag_21:\n      stop\n        /* \"contracts/OrderBook.sol\":2320:2369  function placeBid (uint256 price) public {... */\n    tag_7:\n      tag_24\n      0x04\n      dup1\n      calldatasize\n      sub\n      dup2\n      add\n      swap1\n      tag_25\n      swap2\n      swap1\n      tag_10\n      jump\t// in\n    tag_25:\n      tag_26\n      jump\t// in\n    tag_24:\n      stop\n        /* \"contracts/OrderBook.sol\":2486:2536  function cancelAsk (uint256 price) public {... */\n    tag_11:\n      pop\n      jump\t// out\n        /* \"contracts/OrderBook.sol\":665:821  function sort(order[] memory data) public returns(order[] memory) {... */\n    tag_15:\n        /* \"contracts/OrderBook.sol\":715:729  order[] memory */\n      0x60\n        /* \"contracts/OrderBook.sol\":740:794  ascendingQuickSort(data, int(0), int(data.length - 1)) */\n      tag_29\n        /* \"contracts/OrderBook.sol\":759:763  data */\n      dup3\n        /* \"contracts/OrderBook.sol\":769:770  0 */\n      0x00\n        /* \"contracts/OrderBook.sol\":791:792  1 */\n      0x01\n        /* \"contracts/OrderBook.sol\":777:781  data */\n      dup6\n        /* \"contracts/OrderBook.sol\":777:788  data.length */\n      mload\n        /* \"contracts/OrderBook.sol\":777:792  data.length - 1 */\n      tag_30\n      swap2\n      swap1\n      tag_31\n      jump\t// in\n    tag_30:\n        /* \"contracts/OrderBook.sol\":740:758  ascendingQuickSort */\n      tag_32\n        /* \"contracts/OrderBook.sol\":740:794  ascendingQuickSort(data, int(0), int(data.length - 1)) */\n      jump\t// in\n    tag_29:\n        /* \"contracts/OrderBook.sol\":810:814  data */\n      dup2\n        /* \"contracts/OrderBook.sol\":803:814  return data */\n      swap1\n      pop\n        /* \"contracts/OrderBook.sol\":665:821  function sort(order[] memory data) public returns(order[] memory) {... */\n      swap2\n      swap1\n      pop\n      jump\t// out\n        /* \"contracts/OrderBook.sol\":2431:2480  function placeAsk (uint256 price) public {... */\n    tag_20:\n      pop\n      jump\t// out\n        /* \"contracts/OrderBook.sol\":2375:2425  function cancelBid (uint256 bidId) public {... */\n    tag_23:\n      pop\n      jump\t// out\n        /* \"contracts/OrderBook.sol\":2320:2369  function placeBid (uint256 price) public {... */\n    tag_26:\n      pop\n      jump\t// out\n        /* \"contracts/OrderBook.sol\":1643:2313  function ascendingQuickSort(order[] memory arr, int left, int right) internal{... */\n    tag_32:\n        /* \"contracts/OrderBook.sol\":1730:1735  int i */\n      0x00\n        /* \"contracts/OrderBook.sol\":1738:1742  left */\n      dup3\n        /* \"contracts/OrderBook.sol\":1730:1742  int i = left */\n      swap1\n      pop\n        /* \"contracts/OrderBook.sol\":1752:1757  int j */\n      0x00\n        /* \"contracts/OrderBook.sol\":1760:1765  right */\n      dup3\n        /* \"contracts/OrderBook.sol\":1752:1765  int j = right */\n      swap1\n      pop\n        /* \"contracts/OrderBook.sol\":1781:1782  j */\n      dup1\n        /* \"contracts/OrderBook.sol\":1778:1779  i */\n      dup3\n        /* \"contracts/OrderBook.sol\":1778:1782  i==j */\n      sub\n        /* \"contracts/OrderBook.sol\":1775:1791  if(i==j) return; */\n      tag_37\n      jumpi\n        /* \"contracts/OrderBook.sol\":1784:1791  return; */\n      pop\n      pop\n      jump(tag_36)\n        /* \"contracts/OrderBook.sol\":1775:1791  if(i==j) return; */\n    tag_37:\n        /* \"contracts/OrderBook.sol\":1800:1813  uint256 pivot */\n      0x00\n        /* \"contracts/OrderBook.sol\":1816:1819  arr */\n      dup6\n        /* \"contracts/OrderBook.sol\":1849:1850  2 */\n      0x02\n        /* \"contracts/OrderBook.sol\":1841:1845  left */\n      dup7\n        /* \"contracts/OrderBook.sol\":1833:1838  right */\n      dup7\n        /* \"contracts/OrderBook.sol\":1833:1845  right - left */\n      tag_38\n      swap2\n      swap1\n      tag_39\n      jump\t// in\n    tag_38:\n        /* \"contracts/OrderBook.sol\":1832:1850  (right - left) / 2 */\n      tag_40\n      swap2\n      swap1\n      tag_41\n      jump\t// in\n    tag_40:\n        /* \"contracts/OrderBook.sol\":1825:1829  left */\n      dup7\n        /* \"contracts/OrderBook.sol\":1825:1850  left + (right - left) / 2 */\n      tag_42\n      swap2\n      swap1\n      tag_43\n      jump\t// in\n    tag_42:\n        /* \"contracts/OrderBook.sol\":1816:1852  arr[uint(left + (right - left) / 2)] */\n      dup2\n      mload\n      dup2\n      lt\n      tag_44\n      jumpi\n      tag_45\n      tag_46\n      jump\t// in\n    tag_45:\n    tag_44:\n      0x20\n      mul\n      0x20\n      add\n      add\n      mload\n        /* \"contracts/OrderBook.sol\":1816:1862  arr[uint(left + (right - left) / 2)].timestamp */\n      0x40\n      add\n      mload\n        /* \"contracts/OrderBook.sol\":1800:1862  uint256 pivot = arr[uint(left + (right - left) / 2)].timestamp */\n      swap1\n      pop\n        /* \"contracts/OrderBook.sol\":1872:2169  while (i <= j) {... */\n    tag_47:\n        /* \"contracts/OrderBook.sol\":1884:1885  j */\n      dup2\n        /* \"contracts/OrderBook.sol\":1879:1880  i */\n      dup4\n        /* \"contracts/OrderBook.sol\":1879:1885  i <= j */\n      sgt\n        /* \"contracts/OrderBook.sol\":1872:2169  while (i <= j) {... */\n      tag_48\n      jumpi\n        /* \"contracts/OrderBook.sol\":1901:1943  while (arr[uint(i)].timestamp > pivot) i++ */\n    tag_49:\n        /* \"contracts/OrderBook.sol\":1933:1938  pivot */\n      dup1\n        /* \"contracts/OrderBook.sol\":1908:1911  arr */\n      dup7\n        /* \"contracts/OrderBook.sol\":1917:1918  i */\n      dup5\n        /* \"contracts/OrderBook.sol\":1908:1920  arr[uint(i)] */\n      dup2\n      mload\n      dup2\n      lt\n      tag_51\n      jumpi\n      tag_52\n      tag_46\n      jump\t// in\n    tag_52:\n    tag_51:\n      0x20\n      mul\n      0x20\n      add\n      add\n      mload\n        /* \"contracts/OrderBook.sol\":1908:1930  arr[uint(i)].timestamp */\n      0x40\n      add\n      mload\n        /* \"contracts/OrderBook.sol\":1908:1938  arr[uint(i)].timestamp > pivot */\n      gt\n        /* \"contracts/OrderBook.sol\":1901:1943  while (arr[uint(i)].timestamp > pivot) i++ */\n      iszero\n      tag_50\n      jumpi\n        /* \"contracts/OrderBook.sol\":1940:1943  i++ */\n      dup3\n      dup1\n      tag_53\n      swap1\n      tag_54\n      jump\t// in\n    tag_53:\n      swap4\n      pop\n      pop\n        /* \"contracts/OrderBook.sol\":1901:1943  while (arr[uint(i)].timestamp > pivot) i++ */\n      jump(tag_49)\n    tag_50:\n        /* \"contracts/OrderBook.sol\":1957:1999  while (pivot > arr[uint(j)].timestamp) j-- */\n    tag_55:\n        /* \"contracts/OrderBook.sol\":1972:1975  arr */\n      dup6\n        /* \"contracts/OrderBook.sol\":1981:1982  j */\n      dup3\n        /* \"contracts/OrderBook.sol\":1972:1984  arr[uint(j)] */\n      dup2\n      mload\n      dup2\n      lt\n      tag_57\n      jumpi\n      tag_58\n      tag_46\n      jump\t// in\n    tag_58:\n    tag_57:\n      0x20\n      mul\n      0x20\n      add\n      add\n      mload\n        /* \"contracts/OrderBook.sol\":1972:1994  arr[uint(j)].timestamp */\n      0x40\n      add\n      mload\n        /* \"contracts/OrderBook.sol\":1964:1969  pivot */\n      dup2\n        /* \"contracts/OrderBook.sol\":1964:1994  pivot > arr[uint(j)].timestamp */\n      gt\n        /* \"contracts/OrderBook.sol\":1957:1999  while (pivot > arr[uint(j)].timestamp) j-- */\n      iszero\n      tag_56\n      jumpi\n        /* \"contracts/OrderBook.sol\":1996:1999  j-- */\n      dup2\n      dup1\n      tag_59\n      swap1\n      tag_60\n      jump\t// in\n    tag_59:\n      swap3\n      pop\n      pop\n        /* \"contracts/OrderBook.sol\":1957:1999  while (pivot > arr[uint(j)].timestamp) j-- */\n      jump(tag_55)\n    tag_56:\n        /* \"contracts/OrderBook.sol\":2022:2023  j */\n      dup2\n        /* \"contracts/OrderBook.sol\":2017:2018  i */\n      dup4\n        /* \"contracts/OrderBook.sol\":2017:2023  i <= j */\n      sgt\n        /* \"contracts/OrderBook.sol\":2013:2159  if (i <= j) {... */\n      tag_61\n      jumpi\n        /* \"contracts/OrderBook.sol\":2075:2078  arr */\n      dup6\n        /* \"contracts/OrderBook.sol\":2084:2085  j */\n      dup3\n        /* \"contracts/OrderBook.sol\":2075:2087  arr[uint(j)] */\n      dup2\n      mload\n      dup2\n      lt\n      tag_62\n      jumpi\n      tag_63\n      tag_46\n      jump\t// in\n    tag_63:\n    tag_62:\n      0x20\n      mul\n      0x20\n      add\n      add\n      mload\n        /* \"contracts/OrderBook.sol\":2089:2092  arr */\n      dup7\n        /* \"contracts/OrderBook.sol\":2098:2099  i */\n      dup5\n        /* \"contracts/OrderBook.sol\":2089:2101  arr[uint(i)] */\n      dup2\n      mload\n      dup2\n      lt\n      tag_64\n      jumpi\n      tag_65\n      tag_46\n      jump\t// in\n    tag_65:\n    tag_64:\n      0x20\n      mul\n      0x20\n      add\n      add\n      mload\n        /* \"contracts/OrderBook.sol\":2044:2047  arr */\n      dup8\n        /* \"contracts/OrderBook.sol\":2053:2054  i */\n      dup6\n        /* \"contracts/OrderBook.sol\":2044:2056  arr[uint(i)] */\n      dup2\n      mload\n      dup2\n      lt\n      tag_66\n      jumpi\n      tag_67\n      tag_46\n      jump\t// in\n    tag_67:\n    tag_66:\n      0x20\n      mul\n      0x20\n      add\n      add\n        /* \"contracts/OrderBook.sol\":2058:2061  arr */\n      dup9\n        /* \"contracts/OrderBook.sol\":2067:2068  j */\n      dup6\n        /* \"contracts/OrderBook.sol\":2058:2070  arr[uint(j)] */\n      dup2\n      mload\n      dup2\n      lt\n      tag_68\n      jumpi\n      tag_69\n      tag_46\n      jump\t// in\n    tag_69:\n    tag_68:\n      0x20\n      mul\n      0x20\n      add\n      add\n        /* \"contracts/OrderBook.sol\":2043:2102  (arr[uint(i)], arr[uint(j)]) = (arr[uint(j)], arr[uint(i)]) */\n      dup3\n      swap1\n      mstore\n      dup3\n      swap1\n      mstore\n      pop\n      pop\n        /* \"contracts/OrderBook.sol\":2120:2123  i++ */\n      dup3\n      dup1\n      tag_70\n      swap1\n      tag_54\n      jump\t// in\n    tag_70:\n      swap4\n      pop\n      pop\n        /* \"contracts/OrderBook.sol\":2141:2144  j-- */\n      dup2\n      dup1\n      tag_71\n      swap1\n      tag_60\n      jump\t// in\n    tag_71:\n      swap3\n      pop\n      pop\n        /* \"contracts/OrderBook.sol\":2013:2159  if (i <= j) {... */\n    tag_61:\n        /* \"contracts/OrderBook.sol\":1872:2169  while (i <= j) {... */\n      jump(tag_47)\n    tag_48:\n        /* \"contracts/OrderBook.sol\":2189:2190  j */\n      dup2\n        /* \"contracts/OrderBook.sol\":2182:2186  left */\n      dup6\n        /* \"contracts/OrderBook.sol\":2182:2190  left < j */\n      slt\n        /* \"contracts/OrderBook.sol\":2178:2236  if (left < j)... */\n      iszero\n      tag_72\n      jumpi\n        /* \"contracts/OrderBook.sol\":2204:2236  ascendingQuickSort(arr, left, j) */\n      tag_73\n        /* \"contracts/OrderBook.sol\":2223:2226  arr */\n      dup7\n        /* \"contracts/OrderBook.sol\":2228:2232  left */\n      dup7\n        /* \"contracts/OrderBook.sol\":2234:2235  j */\n      dup5\n        /* \"contracts/OrderBook.sol\":2204:2222  ascendingQuickSort */\n      tag_32\n        /* \"contracts/OrderBook.sol\":2204:2236  ascendingQuickSort(arr, left, j) */\n      jump\t// in\n    tag_73:\n        /* \"contracts/OrderBook.sol\":2178:2236  if (left < j)... */\n    tag_72:\n        /* \"contracts/OrderBook.sol\":2254:2259  right */\n      dup4\n        /* \"contracts/OrderBook.sol\":2250:2251  i */\n      dup4\n        /* \"contracts/OrderBook.sol\":2250:2259  i < right */\n      slt\n        /* \"contracts/OrderBook.sol\":2246:2306  if (i < right)... */\n      iszero\n      tag_74\n      jumpi\n        /* \"contracts/OrderBook.sol\":2273:2306  ascendingQuickSort(arr, i, right) */\n      tag_75\n        /* \"contracts/OrderBook.sol\":2292:2295  arr */\n      dup7\n        /* \"contracts/OrderBook.sol\":2297:2298  i */\n      dup5\n        /* \"contracts/OrderBook.sol\":2300:2305  right */\n      dup7\n        /* \"contracts/OrderBook.sol\":2273:2291  ascendingQuickSort */\n      tag_32\n        /* \"contracts/OrderBook.sol\":2273:2306  ascendingQuickSort(arr, i, right) */\n      jump\t// in\n    tag_75:\n        /* \"contracts/OrderBook.sol\":2246:2306  if (i < right)... */\n    tag_74:\n        /* \"contracts/OrderBook.sol\":1720:2313  {... */\n      pop\n      pop\n      pop\n        /* \"contracts/OrderBook.sol\":1643:2313  function ascendingQuickSort(order[] memory arr, int left, int right) internal{... */\n    tag_36:\n      pop\n      pop\n      pop\n      jump\t// out\n        /* \"#utility.yul\":7:82   */\n    tag_76:\n        /* \"#utility.yul\":40:46   */\n      0x00\n        /* \"#utility.yul\":73:75   */\n      0x40\n        /* \"#utility.yul\":67:76   */\n      mload\n        /* \"#utility.yul\":57:76   */\n      swap1\n      pop\n        /* \"#utility.yul\":7:82   */\n      swap1\n      jump\t// out\n        /* \"#utility.yul\":88:205   */\n    tag_77:\n        /* \"#utility.yul\":197:198   */\n      0x00\n        /* \"#utility.yul\":194:195   */\n      dup1\n        /* \"#utility.yul\":187:199   */\n      revert\n        /* \"#utility.yul\":211:328   */\n    tag_78:\n        /* \"#utility.yul\":320:321   */\n      0x00\n        /* \"#utility.yul\":317:318   */\n      dup1\n        /* \"#utility.yul\":310:322   */\n      revert\n        /* \"#utility.yul\":334:411   */\n    tag_79:\n        /* \"#utility.yul\":371:378   */\n      0x00\n        /* \"#utility.yul\":400:405   */\n      dup2\n        /* \"#utility.yul\":389:405   */\n      swap1\n      pop\n        /* \"#utility.yul\":334:411   */\n      swap2\n      swap1\n      pop\n      jump\t// out\n        /* \"#utility.yul\":417:539   */\n    tag_80:\n        /* \"#utility.yul\":490:514   */\n      tag_116\n        /* \"#utility.yul\":508:513   */\n      dup2\n        /* \"#utility.yul\":490:514   */\n      tag_79\n      jump\t// in\n    tag_116:\n        /* \"#utility.yul\":483:488   */\n      dup2\n        /* \"#utility.yul\":480:515   */\n      eq\n        /* \"#utility.yul\":470:533   */\n      tag_117\n      jumpi\n        /* \"#utility.yul\":529:530   */\n      0x00\n        /* \"#utility.yul\":526:527   */\n      dup1\n        /* \"#utility.yul\":519:531   */\n      revert\n        /* \"#utility.yul\":470:533   */\n    tag_117:\n        /* \"#utility.yul\":417:539   */\n      pop\n      jump\t// out\n        /* \"#utility.yul\":545:684   */\n    tag_81:\n        /* \"#utility.yul\":591:596   */\n      0x00\n        /* \"#utility.yul\":629:635   */\n      dup2\n        /* \"#utility.yul\":616:636   */\n      calldataload\n        /* \"#utility.yul\":607:636   */\n      swap1\n      pop\n        /* \"#utility.yul\":645:678   */\n      tag_119\n        /* \"#utility.yul\":672:677   */\n      dup2\n        /* \"#utility.yul\":645:678   */\n      tag_80\n      jump\t// in\n    tag_119:\n        /* \"#utility.yul\":545:684   */\n      swap3\n      swap2\n      pop\n      pop\n      jump\t// out\n        /* \"#utility.yul\":690:1019   */\n    tag_10:\n        /* \"#utility.yul\":749:755   */\n      0x00\n        /* \"#utility.yul\":798:800   */\n      0x20\n        /* \"#utility.yul\":786:795   */\n      dup3\n        /* \"#utility.yul\":777:784   */\n      dup5\n        /* \"#utility.yul\":773:796   */\n      sub\n        /* \"#utility.yul\":769:801   */\n      slt\n        /* \"#utility.yul\":766:885   */\n      iszero\n      tag_121\n      jumpi\n        /* \"#utility.yul\":804:883   */\n      tag_122\n      tag_77\n      jump\t// in\n    tag_122:\n        /* \"#utility.yul\":766:885   */\n    tag_121:\n        /* \"#utility.yul\":924:925   */\n      0x00\n        /* \"#utility.yul\":949:1002   */\n      tag_123\n        /* \"#utility.yul\":994:1001   */\n      dup5\n        /* \"#utility.yul\":985:991   */\n      dup3\n        /* \"#utility.yul\":974:983   */\n      dup6\n        /* \"#utility.yul\":970:992   */\n      add\n        /* \"#utility.yul\":949:1002   */\n      tag_81\n      jump\t// in\n    tag_123:\n        /* \"#utility.yul\":939:1002   */\n      swap2\n      pop\n        /* \"#utility.yul\":895:1012   */\n      pop\n        /* \"#utility.yul\":690:1019   */\n      swap3\n      swap2\n      pop\n      pop\n      jump\t// out\n        /* \"#utility.yul\":1025:1142   */\n    tag_82:\n        /* \"#utility.yul\":1134:1135   */\n      0x00\n        /* \"#utility.yul\":1131:1132   */\n      dup1\n        /* \"#utility.yul\":1124:1136   */\n      revert\n        /* \"#utility.yul\":1148:1250   */\n    tag_83:\n        /* \"#utility.yul\":1189:1195   */\n      0x00\n        /* \"#utility.yul\":1240:1242   */\n      0x1f\n        /* \"#utility.yul\":1236:1243   */\n      not\n        /* \"#utility.yul\":1231:1233   */\n      0x1f\n        /* \"#utility.yul\":1224:1229   */\n      dup4\n        /* \"#utility.yul\":1220:1234   */\n      add\n        /* \"#utility.yul\":1216:1244   */\n      and\n        /* \"#utility.yul\":1206:1244   */\n      swap1\n      pop\n        /* \"#utility.yul\":1148:1250   */\n      swap2\n      swap1\n      pop\n      jump\t// out\n        /* \"#utility.yul\":1256:1436   */\n    tag_84:\n        /* \"#utility.yul\":1304:1381   */\n      0x4e487b7100000000000000000000000000000000000000000000000000000000\n        /* \"#utility.yul\":1301:1302   */\n      0x00\n        /* \"#utility.yul\":1294:1382   */\n      mstore\n        /* \"#utility.yul\":1401:1405   */\n      0x41\n        /* \"#utility.yul\":1398:1399   */\n      0x04\n        /* \"#utility.yul\":1391:1406   */\n      mstore\n        /* \"#utility.yul\":1425:1429   */\n      0x24\n        /* \"#utility.yul\":1422:1423   */\n      0x00\n        /* \"#utility.yul\":1415:1430   */\n      revert\n        /* \"#utility.yul\":1442:1723   */\n    tag_85:\n        /* \"#utility.yul\":1525:1552   */\n      tag_128\n        /* \"#utility.yul\":1547:1551   */\n      dup3\n        /* \"#utility.yul\":1525:1552   */\n      tag_83\n      jump\t// in\n    tag_128:\n        /* \"#utility.yul\":1517:1523   */\n      dup2\n        /* \"#utility.yul\":1513:1553   */\n      add\n        /* \"#utility.yul\":1655:1661   */\n      dup2\n        /* \"#utility.yul\":1643:1653   */\n      dup2\n        /* \"#utility.yul\":1640:1662   */\n      lt\n        /* \"#utility.yul\":1619:1637   */\n      0xffffffffffffffff\n        /* \"#utility.yul\":1607:1617   */\n      dup3\n        /* \"#utility.yul\":1604:1638   */\n      gt\n        /* \"#utility.yul\":1601:1663   */\n      or\n        /* \"#utility.yul\":1598:1686   */\n      iszero\n      tag_129\n      jumpi\n        /* \"#utility.yul\":1666:1684   */\n      tag_130\n      tag_84\n      jump\t// in\n    tag_130:\n        /* \"#utility.yul\":1598:1686   */\n    tag_129:\n        /* \"#utility.yul\":1706:1716   */\n      dup1\n        /* \"#utility.yul\":1702:1704   */\n      0x40\n        /* \"#utility.yul\":1695:1717   */\n      mstore\n        /* \"#utility.yul\":1485:1723   */\n      pop\n        /* \"#utility.yul\":1442:1723   */\n      pop\n      pop\n      jump\t// out\n        /* \"#utility.yul\":1729:1858   */\n    tag_86:\n        /* \"#utility.yul\":1763:1769   */\n      0x00\n        /* \"#utility.yul\":1790:1810   */\n      tag_132\n      tag_76\n      jump\t// in\n    tag_132:\n        /* \"#utility.yul\":1780:1810   */\n      swap1\n      pop\n        /* \"#utility.yul\":1819:1852   */\n      tag_133\n        /* \"#utility.yul\":1847:1851   */\n      dup3\n        /* \"#utility.yul\":1839:1845   */\n      dup3\n        /* \"#utility.yul\":1819:1852   */\n      tag_85\n      jump\t// in\n    tag_133:\n        /* \"#utility.yul\":1729:1858   */\n      swap2\n      swap1\n      pop\n      jump\t// out\n        /* \"#utility.yul\":1864:2195   */\n    tag_87:\n        /* \"#utility.yul\":1961:1965   */\n      0x00\n        /* \"#utility.yul\":2051:2069   */\n      0xffffffffffffffff\n        /* \"#utility.yul\":2043:2049   */\n      dup3\n        /* \"#utility.yul\":2040:2070   */\n      gt\n        /* \"#utility.yul\":2037:2093   */\n      iszero\n      tag_135\n      jumpi\n        /* \"#utility.yul\":2073:2091   */\n      tag_136\n      tag_84\n      jump\t// in\n    tag_136:\n        /* \"#utility.yul\":2037:2093   */\n    tag_135:\n        /* \"#utility.yul\":2123:2127   */\n      0x20\n        /* \"#utility.yul\":2115:2121   */\n      dup3\n        /* \"#utility.yul\":2111:2128   */\n      mul\n        /* \"#utility.yul\":2103:2128   */\n      swap1\n      pop\n        /* \"#utility.yul\":2183:2187   */\n      0x20\n        /* \"#utility.yul\":2177:2181   */\n      dup2\n        /* \"#utility.yul\":2173:2188   */\n      add\n        /* \"#utility.yul\":2165:2188   */\n      swap1\n      pop\n        /* \"#utility.yul\":1864:2195   */\n      swap2\n      swap1\n      pop\n      jump\t// out\n        /* \"#utility.yul\":2201:2318   */\n    tag_88:\n        /* \"#utility.yul\":2310:2311   */\n      0x00\n        /* \"#utility.yul\":2307:2308   */\n      dup1\n        /* \"#utility.yul\":2300:2312   */\n      revert\n        /* \"#utility.yul\":2324:2441   */\n    tag_89:\n        /* \"#utility.yul\":2433:2434   */\n      0x00\n        /* \"#utility.yul\":2430:2431   */\n      dup1\n        /* \"#utility.yul\":2423:2435   */\n      revert\n        /* \"#utility.yul\":2570:2696   */\n    tag_91:\n        /* \"#utility.yul\":2607:2614   */\n      0x00\n        /* \"#utility.yul\":2647:2689   */\n      0xffffffffffffffffffffffffffffffffffffffff\n        /* \"#utility.yul\":2640:2645   */\n      dup3\n        /* \"#utility.yul\":2636:2690   */\n      and\n        /* \"#utility.yul\":2625:2690   */\n      swap1\n      pop\n        /* \"#utility.yul\":2570:2696   */\n      swap2\n      swap1\n      pop\n      jump\t// out\n        /* \"#utility.yul\":2702:2806   */\n    tag_92:\n        /* \"#utility.yul\":2747:2754   */\n      0x00\n        /* \"#utility.yul\":2776:2800   */\n      tag_142\n        /* \"#utility.yul\":2794:2799   */\n      dup3\n        /* \"#utility.yul\":2776:2800   */\n      tag_91\n      jump\t// in\n    tag_142:\n        /* \"#utility.yul\":2765:2800   */\n      swap1\n      pop\n        /* \"#utility.yul\":2702:2806   */\n      swap2\n      swap1\n      pop\n      jump\t// out\n        /* \"#utility.yul\":2812:2950   */\n    tag_93:\n        /* \"#utility.yul\":2893:2925   */\n      tag_144\n        /* \"#utility.yul\":2919:2924   */\n      dup2\n        /* \"#utility.yul\":2893:2925   */\n      tag_92\n      jump\t// in\n    tag_144:\n        /* \"#utility.yul\":2886:2891   */\n      dup2\n        /* \"#utility.yul\":2883:2926   */\n      eq\n        /* \"#utility.yul\":2873:2944   */\n      tag_145\n      jumpi\n        /* \"#utility.yul\":2940:2941   */\n      0x00\n        /* \"#utility.yul\":2937:2938   */\n      dup1\n        /* \"#utility.yul\":2930:2942   */\n      revert\n        /* \"#utility.yul\":2873:2944   */\n    tag_145:\n        /* \"#utility.yul\":2812:2950   */\n      pop\n      jump\t// out\n        /* \"#utility.yul\":2956:3111   */\n    tag_94:\n        /* \"#utility.yul\":3010:3015   */\n      0x00\n        /* \"#utility.yul\":3048:3054   */\n      dup2\n        /* \"#utility.yul\":3035:3055   */\n      calldataload\n        /* \"#utility.yul\":3026:3055   */\n      swap1\n      pop\n        /* \"#utility.yul\":3064:3105   */\n      tag_147\n        /* \"#utility.yul\":3099:3104   */\n      dup2\n        /* \"#utility.yul\":3064:3105   */\n      tag_93\n      jump\t// in\n    tag_147:\n        /* \"#utility.yul\":2956:3111   */\n      swap3\n      swap2\n      pop\n      pop\n      jump\t// out\n        /* \"#utility.yul\":3147:3895   */\n    tag_95:\n        /* \"#utility.yul\":3216:3221   */\n      0x00\n        /* \"#utility.yul\":3260:3264   */\n      0x60\n        /* \"#utility.yul\":3248:3257   */\n      dup3\n        /* \"#utility.yul\":3243:3246   */\n      dup5\n        /* \"#utility.yul\":3239:3258   */\n      sub\n        /* \"#utility.yul\":3235:3265   */\n      slt\n        /* \"#utility.yul\":3232:3349   */\n      iszero\n      tag_149\n      jumpi\n        /* \"#utility.yul\":3268:3347   */\n      tag_150\n      tag_89\n      jump\t// in\n    tag_150:\n        /* \"#utility.yul\":3232:3349   */\n    tag_149:\n        /* \"#utility.yul\":3367:3388   */\n      tag_151\n        /* \"#utility.yul\":3383:3387   */\n      0x60\n        /* \"#utility.yul\":3367:3388   */\n      tag_86\n      jump\t// in\n    tag_151:\n        /* \"#utility.yul\":3358:3388   */\n      swap1\n      pop\n        /* \"#utility.yul\":3451:3452   */\n      0x00\n        /* \"#utility.yul\":3491:3548   */\n      tag_152\n        /* \"#utility.yul\":3544:3547   */\n      dup5\n        /* \"#utility.yul\":3535:3541   */\n      dup3\n        /* \"#utility.yul\":3524:3533   */\n      dup6\n        /* \"#utility.yul\":3520:3542   */\n      add\n        /* \"#utility.yul\":3491:3548   */\n      tag_94\n      jump\t// in\n    tag_152:\n        /* \"#utility.yul\":3484:3488   */\n      0x00\n        /* \"#utility.yul\":3477:3482   */\n      dup4\n        /* \"#utility.yul\":3473:3489   */\n      add\n        /* \"#utility.yul\":3466:3549   */\n      mstore\n        /* \"#utility.yul\":3398:3560   */\n      pop\n        /* \"#utility.yul\":3620:3622   */\n      0x20\n        /* \"#utility.yul\":3661:3710   */\n      tag_153\n        /* \"#utility.yul\":3706:3709   */\n      dup5\n        /* \"#utility.yul\":3697:3703   */\n      dup3\n        /* \"#utility.yul\":3686:3695   */\n      dup6\n        /* \"#utility.yul\":3682:3704   */\n      add\n        /* \"#utility.yul\":3661:3710   */\n      tag_81\n      jump\t// in\n    tag_153:\n        /* \"#utility.yul\":3654:3658   */\n      0x20\n        /* \"#utility.yul\":3647:3652   */\n      dup4\n        /* \"#utility.yul\":3643:3659   */\n      add\n        /* \"#utility.yul\":3636:3711   */\n      mstore\n        /* \"#utility.yul\":3570:3722   */\n      pop\n        /* \"#utility.yul\":3786:3788   */\n      0x40\n        /* \"#utility.yul\":3827:3876   */\n      tag_154\n        /* \"#utility.yul\":3872:3875   */\n      dup5\n        /* \"#utility.yul\":3863:3869   */\n      dup3\n        /* \"#utility.yul\":3852:3861   */\n      dup6\n        /* \"#utility.yul\":3848:3870   */\n      add\n        /* \"#utility.yul\":3827:3876   */\n      tag_81\n      jump\t// in\n    tag_154:\n        /* \"#utility.yul\":3820:3824   */\n      0x40\n        /* \"#utility.yul\":3813:3818   */\n      dup4\n        /* \"#utility.yul\":3809:3825   */\n      add\n        /* \"#utility.yul\":3802:3877   */\n      mstore\n        /* \"#utility.yul\":3732:3888   */\n      pop\n        /* \"#utility.yul\":3147:3895   */\n      swap3\n      swap2\n      pop\n      pop\n      jump\t// out\n        /* \"#utility.yul\":3933:4703   */\n    tag_96:\n        /* \"#utility.yul\":4049:4054   */\n      0x00\n        /* \"#utility.yul\":4074:4175   */\n      tag_156\n        /* \"#utility.yul\":4090:4174   */\n      tag_157\n        /* \"#utility.yul\":4167:4173   */\n      dup5\n        /* \"#utility.yul\":4090:4174   */\n      tag_87\n      jump\t// in\n    tag_157:\n        /* \"#utility.yul\":4074:4175   */\n      tag_86\n      jump\t// in\n    tag_156:\n        /* \"#utility.yul\":4065:4175   */\n      swap1\n      pop\n        /* \"#utility.yul\":4195:4200   */\n      dup1\n        /* \"#utility.yul\":4224:4230   */\n      dup4\n        /* \"#utility.yul\":4217:4222   */\n      dup3\n        /* \"#utility.yul\":4210:4231   */\n      mstore\n        /* \"#utility.yul\":4258:4262   */\n      0x20\n        /* \"#utility.yul\":4251:4256   */\n      dup3\n        /* \"#utility.yul\":4247:4263   */\n      add\n        /* \"#utility.yul\":4240:4263   */\n      swap1\n      pop\n        /* \"#utility.yul\":4311:4315   */\n      0x60\n        /* \"#utility.yul\":4303:4309   */\n      dup5\n        /* \"#utility.yul\":4299:4316   */\n      mul\n        /* \"#utility.yul\":4291:4297   */\n      dup4\n        /* \"#utility.yul\":4287:4317   */\n      add\n        /* \"#utility.yul\":4340:4343   */\n      dup6\n        /* \"#utility.yul\":4332:4338   */\n      dup2\n        /* \"#utility.yul\":4329:4344   */\n      gt\n        /* \"#utility.yul\":4326:4448   */\n      iszero\n      tag_158\n      jumpi\n        /* \"#utility.yul\":4359:4438   */\n      tag_159\n      tag_88\n      jump\t// in\n    tag_159:\n        /* \"#utility.yul\":4326:4448   */\n    tag_158:\n        /* \"#utility.yul\":4474:4480   */\n      dup4\n        /* \"#utility.yul\":4457:4697   */\n    tag_160:\n        /* \"#utility.yul\":4491:4497   */\n      dup2\n        /* \"#utility.yul\":4486:4489   */\n      dup2\n        /* \"#utility.yul\":4483:4498   */\n      lt\n        /* \"#utility.yul\":4457:4697   */\n      iszero\n      tag_162\n      jumpi\n        /* \"#utility.yul\":4566:4569   */\n      dup1\n        /* \"#utility.yul\":4595:4652   */\n      tag_163\n        /* \"#utility.yul\":4648:4651   */\n      dup9\n        /* \"#utility.yul\":4636:4646   */\n      dup3\n        /* \"#utility.yul\":4595:4652   */\n      tag_95\n      jump\t// in\n    tag_163:\n        /* \"#utility.yul\":4590:4593   */\n      dup5\n        /* \"#utility.yul\":4583:4653   */\n      mstore\n        /* \"#utility.yul\":4682:4686   */\n      0x20\n        /* \"#utility.yul\":4677:4680   */\n      dup5\n        /* \"#utility.yul\":4673:4687   */\n      add\n        /* \"#utility.yul\":4666:4687   */\n      swap4\n      pop\n        /* \"#utility.yul\":4533:4697   */\n      pop\n        /* \"#utility.yul\":4517:4521   */\n      0x60\n        /* \"#utility.yul\":4512:4515   */\n      dup2\n        /* \"#utility.yul\":4508:4522   */\n      add\n        /* \"#utility.yul\":4501:4522   */\n      swap1\n      pop\n        /* \"#utility.yul\":4457:4697   */\n      jump(tag_160)\n    tag_162:\n        /* \"#utility.yul\":4461:4482   */\n      pop\n        /* \"#utility.yul\":4055:4703   */\n      pop\n      pop\n        /* \"#utility.yul\":3933:4703   */\n      swap4\n      swap3\n      pop\n      pop\n      pop\n      jump\t// out\n        /* \"#utility.yul\":4741:5151   */\n    tag_97:\n        /* \"#utility.yul\":4832:4837   */\n      0x00\n        /* \"#utility.yul\":4881:4884   */\n      dup3\n        /* \"#utility.yul\":4874:4878   */\n      0x1f\n        /* \"#utility.yul\":4866:4872   */\n      dup4\n        /* \"#utility.yul\":4862:4879   */\n      add\n        /* \"#utility.yul\":4858:4885   */\n      slt\n        /* \"#utility.yul\":4848:4970   */\n      tag_165\n      jumpi\n        /* \"#utility.yul\":4889:4968   */\n      tag_166\n      tag_82\n      jump\t// in\n    tag_166:\n        /* \"#utility.yul\":4848:4970   */\n    tag_165:\n        /* \"#utility.yul\":5006:5012   */\n      dup2\n        /* \"#utility.yul\":4993:5013   */\n      calldataload\n        /* \"#utility.yul\":5031:5145   */\n      tag_167\n        /* \"#utility.yul\":5141:5144   */\n      dup5\n        /* \"#utility.yul\":5133:5139   */\n      dup3\n        /* \"#utility.yul\":5126:5130   */\n      0x20\n        /* \"#utility.yul\":5118:5124   */\n      dup7\n        /* \"#utility.yul\":5114:5131   */\n      add\n        /* \"#utility.yul\":5031:5145   */\n      tag_96\n      jump\t// in\n    tag_167:\n        /* \"#utility.yul\":5022:5145   */\n      swap2\n      pop\n        /* \"#utility.yul\":4838:5151   */\n      pop\n        /* \"#utility.yul\":4741:5151   */\n      swap3\n      swap2\n      pop\n      pop\n      jump\t// out\n        /* \"#utility.yul\":5157:5736   */\n    tag_14:\n        /* \"#utility.yul\":5261:5267   */\n      0x00\n        /* \"#utility.yul\":5310:5312   */\n      0x20\n        /* \"#utility.yul\":5298:5307   */\n      dup3\n        /* \"#utility.yul\":5289:5296   */\n      dup5\n        /* \"#utility.yul\":5285:5308   */\n      sub\n        /* \"#utility.yul\":5281:5313   */\n      slt\n        /* \"#utility.yul\":5278:5397   */\n      iszero\n      tag_169\n      jumpi\n        /* \"#utility.yul\":5316:5395   */\n      tag_170\n      tag_77\n      jump\t// in\n    tag_170:\n        /* \"#utility.yul\":5278:5397   */\n    tag_169:\n        /* \"#utility.yul\":5464:5465   */\n      0x00\n        /* \"#utility.yul\":5453:5462   */\n      dup3\n        /* \"#utility.yul\":5449:5466   */\n      add\n        /* \"#utility.yul\":5436:5467   */\n      calldataload\n        /* \"#utility.yul\":5494:5512   */\n      0xffffffffffffffff\n        /* \"#utility.yul\":5486:5492   */\n      dup2\n        /* \"#utility.yul\":5483:5513   */\n      gt\n        /* \"#utility.yul\":5480:5597   */\n      iszero\n      tag_171\n      jumpi\n        /* \"#utility.yul\":5516:5595   */\n      tag_172\n      tag_78\n      jump\t// in\n    tag_172:\n        /* \"#utility.yul\":5480:5597   */\n    tag_171:\n        /* \"#utility.yul\":5621:5719   */\n      tag_173\n        /* \"#utility.yul\":5711:5718   */\n      dup5\n        /* \"#utility.yul\":5702:5708   */\n      dup3\n        /* \"#utility.yul\":5691:5700   */\n      dup6\n        /* \"#utility.yul\":5687:5709   */\n      add\n        /* \"#utility.yul\":5621:5719   */\n      tag_97\n      jump\t// in\n    tag_173:\n        /* \"#utility.yul\":5611:5719   */\n      swap2\n      pop\n        /* \"#utility.yul\":5407:5729   */\n      pop\n        /* \"#utility.yul\":5157:5736   */\n      swap3\n      swap2\n      pop\n      pop\n      jump\t// out\n        /* \"#utility.yul\":5742:5876   */\n    tag_98:\n        /* \"#utility.yul\":5829:5835   */\n      0x00\n        /* \"#utility.yul\":5863:5868   */\n      dup2\n        /* \"#utility.yul\":5857:5869   */\n      mload\n        /* \"#utility.yul\":5847:5869   */\n      swap1\n      pop\n        /* \"#utility.yul\":5742:5876   */\n      swap2\n      swap1\n      pop\n      jump\t// out\n        /* \"#utility.yul\":5882:6086   */\n    tag_99:\n        /* \"#utility.yul\":6001:6012   */\n      0x00\n        /* \"#utility.yul\":6035:6041   */\n      dup3\n        /* \"#utility.yul\":6030:6033   */\n      dup3\n        /* \"#utility.yul\":6023:6042   */\n      mstore\n        /* \"#utility.yul\":6075:6079   */\n      0x20\n        /* \"#utility.yul\":6070:6073   */\n      dup3\n        /* \"#utility.yul\":6066:6080   */\n      add\n        /* \"#utility.yul\":6051:6080   */\n      swap1\n      pop\n        /* \"#utility.yul\":5882:6086   */\n      swap3\n      swap2\n      pop\n      pop\n      jump\t// out\n        /* \"#utility.yul\":6092:6244   */\n    tag_100:\n        /* \"#utility.yul\":6179:6183   */\n      0x00\n        /* \"#utility.yul\":6202:6205   */\n      dup2\n        /* \"#utility.yul\":6194:6205   */\n      swap1\n      pop\n        /* \"#utility.yul\":6232:6236   */\n      0x20\n        /* \"#utility.yul\":6227:6230   */\n      dup3\n        /* \"#utility.yul\":6223:6237   */\n      add\n        /* \"#utility.yul\":6215:6237   */\n      swap1\n      pop\n        /* \"#utility.yul\":6092:6244   */\n      swap2\n      swap1\n      pop\n      jump\t// out\n        /* \"#utility.yul\":6250:6382   */\n    tag_101:\n        /* \"#utility.yul\":6343:6375   */\n      tag_178\n        /* \"#utility.yul\":6369:6374   */\n      dup2\n        /* \"#utility.yul\":6343:6375   */\n      tag_92\n      jump\t// in\n    tag_178:\n        /* \"#utility.yul\":6338:6341   */\n      dup3\n        /* \"#utility.yul\":6331:6376   */\n      mstore\n        /* \"#utility.yul\":6250:6382   */\n      pop\n      pop\n      jump\t// out\n        /* \"#utility.yul\":6388:6496   */\n    tag_102:\n        /* \"#utility.yul\":6465:6489   */\n      tag_180\n        /* \"#utility.yul\":6483:6488   */\n      dup2\n        /* \"#utility.yul\":6465:6489   */\n      tag_79\n      jump\t// in\n    tag_180:\n        /* \"#utility.yul\":6460:6463   */\n      dup3\n        /* \"#utility.yul\":6453:6490   */\n      mstore\n        /* \"#utility.yul\":6388:6496   */\n      pop\n      pop\n      jump\t// out\n        /* \"#utility.yul\":6558:7245   */\n    tag_103:\n        /* \"#utility.yul\":6685:6689   */\n      0x60\n        /* \"#utility.yul\":6680:6683   */\n      dup3\n        /* \"#utility.yul\":6676:6690   */\n      add\n        /* \"#utility.yul\":6776:6780   */\n      0x00\n        /* \"#utility.yul\":6769:6774   */\n      dup3\n        /* \"#utility.yul\":6765:6781   */\n      add\n        /* \"#utility.yul\":6759:6782   */\n      mload\n        /* \"#utility.yul\":6795:6874   */\n      tag_182\n        /* \"#utility.yul\":6868:6872   */\n      0x00\n        /* \"#utility.yul\":6863:6866   */\n      dup6\n        /* \"#utility.yul\":6859:6873   */\n      add\n        /* \"#utility.yul\":6845:6857   */\n      dup3\n        /* \"#utility.yul\":6795:6874   */\n      tag_101\n      jump\t// in\n    tag_182:\n        /* \"#utility.yul\":6700:6884   */\n      pop\n        /* \"#utility.yul\":6967:6971   */\n      0x20\n        /* \"#utility.yul\":6960:6965   */\n      dup3\n        /* \"#utility.yul\":6956:6972   */\n      add\n        /* \"#utility.yul\":6950:6973   */\n      mload\n        /* \"#utility.yul\":6986:7049   */\n      tag_183\n        /* \"#utility.yul\":7043:7047   */\n      0x20\n        /* \"#utility.yul\":7038:7041   */\n      dup6\n        /* \"#utility.yul\":7034:7048   */\n      add\n        /* \"#utility.yul\":7020:7032   */\n      dup3\n        /* \"#utility.yul\":6986:7049   */\n      tag_102\n      jump\t// in\n    tag_183:\n        /* \"#utility.yul\":6894:7059   */\n      pop\n        /* \"#utility.yul\":7146:7150   */\n      0x40\n        /* \"#utility.yul\":7139:7144   */\n      dup3\n        /* \"#utility.yul\":7135:7151   */\n      add\n        /* \"#utility.yul\":7129:7152   */\n      mload\n        /* \"#utility.yul\":7165:7228   */\n      tag_184\n        /* \"#utility.yul\":7222:7226   */\n      0x40\n        /* \"#utility.yul\":7217:7220   */\n      dup6\n        /* \"#utility.yul\":7213:7227   */\n      add\n        /* \"#utility.yul\":7199:7211   */\n      dup3\n        /* \"#utility.yul\":7165:7228   */\n      tag_102\n      jump\t// in\n    tag_184:\n        /* \"#utility.yul\":7069:7238   */\n      pop\n        /* \"#utility.yul\":6654:7245   */\n      pop\n        /* \"#utility.yul\":6558:7245   */\n      pop\n      pop\n      jump\t// out\n        /* \"#utility.yul\":7251:7510   */\n    tag_104:\n        /* \"#utility.yul\":7360:7370   */\n      0x00\n        /* \"#utility.yul\":7381:7467   */\n      tag_186\n        /* \"#utility.yul\":7463:7466   */\n      dup4\n        /* \"#utility.yul\":7455:7461   */\n      dup4\n        /* \"#utility.yul\":7381:7467   */\n      tag_103\n      jump\t// in\n    tag_186:\n        /* \"#utility.yul\":7499:7503   */\n      0x60\n        /* \"#utility.yul\":7494:7497   */\n      dup4\n        /* \"#utility.yul\":7490:7504   */\n      add\n        /* \"#utility.yul\":7476:7504   */\n      swap1\n      pop\n        /* \"#utility.yul\":7251:7510   */\n      swap3\n      swap2\n      pop\n      pop\n      jump\t// out\n        /* \"#utility.yul\":7516:7649   */\n    tag_105:\n        /* \"#utility.yul\":7606:7610   */\n      0x00\n        /* \"#utility.yul\":7638:7642   */\n      0x20\n        /* \"#utility.yul\":7633:7636   */\n      dup3\n        /* \"#utility.yul\":7629:7643   */\n      add\n        /* \"#utility.yul\":7621:7643   */\n      swap1\n      pop\n        /* \"#utility.yul\":7516:7649   */\n      swap2\n      swap1\n      pop\n      jump\t// out\n        /* \"#utility.yul\":7715:8607   */\n    tag_106:\n        /* \"#utility.yul\":7874:7877   */\n      0x00\n        /* \"#utility.yul\":7903:7977   */\n      tag_189\n        /* \"#utility.yul\":7971:7976   */\n      dup3\n        /* \"#utility.yul\":7903:7977   */\n      tag_98\n      jump\t// in\n    tag_189:\n        /* \"#utility.yul\":7993:8099   */\n      tag_190\n        /* \"#utility.yul\":8092:8098   */\n      dup2\n        /* \"#utility.yul\":8087:8090   */\n      dup6\n        /* \"#utility.yul\":7993:8099   */\n      tag_99\n      jump\t// in\n    tag_190:\n        /* \"#utility.yul\":7986:8099   */\n      swap4\n      pop\n        /* \"#utility.yul\":8123:8199   */\n      tag_191\n        /* \"#utility.yul\":8193:8198   */\n      dup4\n        /* \"#utility.yul\":8123:8199   */\n      tag_100\n      jump\t// in\n    tag_191:\n        /* \"#utility.yul\":8222:8229   */\n      dup1\n        /* \"#utility.yul\":8253:8254   */\n      0x00\n        /* \"#utility.yul\":8238:8582   */\n    tag_192:\n        /* \"#utility.yul\":8263:8269   */\n      dup4\n        /* \"#utility.yul\":8260:8261   */\n      dup2\n        /* \"#utility.yul\":8257:8270   */\n      lt\n        /* \"#utility.yul\":8238:8582   */\n      iszero\n      tag_194\n      jumpi\n        /* \"#utility.yul\":8339:8345   */\n      dup2\n        /* \"#utility.yul\":8333:8346   */\n      mload\n        /* \"#utility.yul\":8366:8469   */\n      tag_195\n        /* \"#utility.yul\":8465:8468   */\n      dup9\n        /* \"#utility.yul\":8450:8463   */\n      dup3\n        /* \"#utility.yul\":8366:8469   */\n      tag_104\n      jump\t// in\n    tag_195:\n        /* \"#utility.yul\":8359:8469   */\n      swap8\n      pop\n        /* \"#utility.yul\":8492:8572   */\n      tag_196\n        /* \"#utility.yul\":8565:8571   */\n      dup4\n        /* \"#utility.yul\":8492:8572   */\n      tag_105\n      jump\t// in\n    tag_196:\n        /* \"#utility.yul\":8482:8572   */\n      swap3\n      pop\n        /* \"#utility.yul\":8298:8582   */\n      pop\n        /* \"#utility.yul\":8285:8286   */\n      0x01\n        /* \"#utility.yul\":8282:8283   */\n      dup2\n        /* \"#utility.yul\":8278:8287   */\n      add\n        /* \"#utility.yul\":8273:8287   */\n      swap1\n      pop\n        /* \"#utility.yul\":8238:8582   */\n      jump(tag_192)\n    tag_194:\n        /* \"#utility.yul\":8242:8256   */\n      pop\n        /* \"#utility.yul\":8598:8601   */\n      dup6\n        /* \"#utility.yul\":8591:8601   */\n      swap4\n      pop\n        /* \"#utility.yul\":7879:8607   */\n      pop\n      pop\n      pop\n        /* \"#utility.yul\":7715:8607   */\n      swap3\n      swap2\n      pop\n      pop\n      jump\t// out\n        /* \"#utility.yul\":8613:9066   */\n    tag_17:\n        /* \"#utility.yul\":8796:8800   */\n      0x00\n        /* \"#utility.yul\":8834:8836   */\n      0x20\n        /* \"#utility.yul\":8823:8832   */\n      dup3\n        /* \"#utility.yul\":8819:8837   */\n      add\n        /* \"#utility.yul\":8811:8837   */\n      swap1\n      pop\n        /* \"#utility.yul\":8883:8892   */\n      dup2\n        /* \"#utility.yul\":8877:8881   */\n      dup2\n        /* \"#utility.yul\":8873:8893   */\n      sub\n        /* \"#utility.yul\":8869:8870   */\n      0x00\n        /* \"#utility.yul\":8858:8867   */\n      dup4\n        /* \"#utility.yul\":8854:8871   */\n      add\n        /* \"#utility.yul\":8847:8894   */\n      mstore\n        /* \"#utility.yul\":8911:9059   */\n      tag_198\n        /* \"#utility.yul\":9054:9058   */\n      dup2\n        /* \"#utility.yul\":9045:9051   */\n      dup5\n        /* \"#utility.yul\":8911:9059   */\n      tag_106\n      jump\t// in\n    tag_198:\n        /* \"#utility.yul\":8903:9059   */\n      swap1\n      pop\n        /* \"#utility.yul\":8613:9066   */\n      swap3\n      swap2\n      pop\n      pop\n      jump\t// out\n        /* \"#utility.yul\":9072:9252   */\n    tag_107:\n        /* \"#utility.yul\":9120:9197   */\n      0x4e487b7100000000000000000000000000000000000000000000000000000000\n        /* \"#utility.yul\":9117:9118   */\n      0x00\n        /* \"#utility.yul\":9110:9198   */\n      mstore\n        /* \"#utility.yul\":9217:9221   */\n      0x11\n        /* \"#utility.yul\":9214:9215   */\n      0x04\n        /* \"#utility.yul\":9207:9222   */\n      mstore\n        /* \"#utility.yul\":9241:9245   */\n      0x24\n        /* \"#utility.yul\":9238:9239   */\n      0x00\n        /* \"#utility.yul\":9231:9246   */\n      revert\n        /* \"#utility.yul\":9258:9449   */\n    tag_31:\n        /* \"#utility.yul\":9298:9302   */\n      0x00\n        /* \"#utility.yul\":9318:9338   */\n      tag_201\n        /* \"#utility.yul\":9336:9337   */\n      dup3\n        /* \"#utility.yul\":9318:9338   */\n      tag_79\n      jump\t// in\n    tag_201:\n        /* \"#utility.yul\":9313:9338   */\n      swap2\n      pop\n        /* \"#utility.yul\":9352:9372   */\n      tag_202\n        /* \"#utility.yul\":9370:9371   */\n      dup4\n        /* \"#utility.yul\":9352:9372   */\n      tag_79\n      jump\t// in\n    tag_202:\n        /* \"#utility.yul\":9347:9372   */\n      swap3\n      pop\n        /* \"#utility.yul\":9391:9392   */\n      dup3\n        /* \"#utility.yul\":9388:9389   */\n      dup3\n        /* \"#utility.yul\":9385:9393   */\n      lt\n        /* \"#utility.yul\":9382:9416   */\n      iszero\n      tag_203\n      jumpi\n        /* \"#utility.yul\":9396:9414   */\n      tag_204\n      tag_107\n      jump\t// in\n    tag_204:\n        /* \"#utility.yul\":9382:9416   */\n    tag_203:\n        /* \"#utility.yul\":9441:9442   */\n      dup3\n        /* \"#utility.yul\":9438:9439   */\n      dup3\n        /* \"#utility.yul\":9434:9443   */\n      sub\n        /* \"#utility.yul\":9426:9443   */\n      swap1\n      pop\n        /* \"#utility.yul\":9258:9449   */\n      swap3\n      swap2\n      pop\n      pop\n      jump\t// out\n        /* \"#utility.yul\":9455:9531   */\n    tag_108:\n        /* \"#utility.yul\":9491:9498   */\n      0x00\n        /* \"#utility.yul\":9520:9525   */\n      dup2\n        /* \"#utility.yul\":9509:9525   */\n      swap1\n      pop\n        /* \"#utility.yul\":9455:9531   */\n      swap2\n      swap1\n      pop\n      jump\t// out\n        /* \"#utility.yul\":9537:10064   */\n    tag_39:\n        /* \"#utility.yul\":9576:9580   */\n      0x00\n        /* \"#utility.yul\":9596:9615   */\n      tag_207\n        /* \"#utility.yul\":9613:9614   */\n      dup3\n        /* \"#utility.yul\":9596:9615   */\n      tag_108\n      jump\t// in\n    tag_207:\n        /* \"#utility.yul\":9591:9615   */\n      swap2\n      pop\n        /* \"#utility.yul\":9629:9648   */\n      tag_208\n        /* \"#utility.yul\":9646:9647   */\n      dup4\n        /* \"#utility.yul\":9629:9648   */\n      tag_108\n      jump\t// in\n    tag_208:\n        /* \"#utility.yul\":9624:9648   */\n      swap3\n      pop\n        /* \"#utility.yul\":9818:9819   */\n      dup3\n        /* \"#utility.yul\":9750:9816   */\n      0x8000000000000000000000000000000000000000000000000000000000000000\n        /* \"#utility.yul\":9746:9820   */\n      add\n        /* \"#utility.yul\":9743:9744   */\n      dup3\n        /* \"#utility.yul\":9739:9821   */\n      slt\n        /* \"#utility.yul\":9734:9735   */\n      0x00\n        /* \"#utility.yul\":9731:9732   */\n      dup5\n        /* \"#utility.yul\":9727:9736   */\n      slt\n        /* \"#utility.yul\":9720:9737   */\n      iszero\n        /* \"#utility.yul\":9716:9822   */\n      and\n        /* \"#utility.yul\":9713:9845   */\n      iszero\n      tag_209\n      jumpi\n        /* \"#utility.yul\":9825:9843   */\n      tag_210\n      tag_107\n      jump\t// in\n    tag_210:\n        /* \"#utility.yul\":9713:9845   */\n    tag_209:\n        /* \"#utility.yul\":10004:10005   */\n      dup3\n        /* \"#utility.yul\":9936:10002   */\n      0x7fffffffffffffffffffffffffffffffffffffffffffffffffffffffffffffff\n        /* \"#utility.yul\":9932:10006   */\n      add\n        /* \"#utility.yul\":9929:9930   */\n      dup3\n        /* \"#utility.yul\":9925:10007   */\n      sgt\n        /* \"#utility.yul\":9921:9922   */\n      0x00\n        /* \"#utility.yul\":9918:9919   */\n      dup5\n        /* \"#utility.yul\":9914:9923   */\n      slt\n        /* \"#utility.yul\":9910:10008   */\n      and\n        /* \"#utility.yul\":9907:10031   */\n      iszero\n      tag_211\n      jumpi\n        /* \"#utility.yul\":10011:10029   */\n      tag_212\n      tag_107\n      jump\t// in\n    tag_212:\n        /* \"#utility.yul\":9907:10031   */\n    tag_211:\n        /* \"#utility.yul\":10056:10057   */\n      dup3\n        /* \"#utility.yul\":10053:10054   */\n      dup3\n        /* \"#utility.yul\":10049:10058   */\n      sub\n        /* \"#utility.yul\":10041:10058   */\n      swap1\n      pop\n        /* \"#utility.yul\":9537:10064   */\n      swap3\n      swap2\n      pop\n      pop\n      jump\t// out\n        /* \"#utility.yul\":10070:10250   */\n    tag_109:\n        /* \"#utility.yul\":10118:10195   */\n      0x4e487b7100000000000000000000000000000000000000000000000000000000\n        /* \"#utility.yul\":10115:10116   */\n      0x00\n        /* \"#utility.yul\":10108:10196   */\n      mstore\n        /* \"#utility.yul\":10215:10219   */\n      0x12\n        /* \"#utility.yul\":10212:10213   */\n      0x04\n        /* \"#utility.yul\":10205:10220   */\n      mstore\n        /* \"#utility.yul\":10239:10243   */\n      0x24\n        /* \"#utility.yul\":10236:10237   */\n      0x00\n        /* \"#utility.yul\":10229:10244   */\n      revert\n        /* \"#utility.yul\":10256:10641   */\n    tag_41:\n        /* \"#utility.yul\":10295:10296   */\n      0x00\n        /* \"#utility.yul\":10312:10331   */\n      tag_215\n        /* \"#utility.yul\":10329:10330   */\n      dup3\n        /* \"#utility.yul\":10312:10331   */\n      tag_108\n      jump\t// in\n    tag_215:\n        /* \"#utility.yul\":10307:10331   */\n      swap2\n      pop\n        /* \"#utility.yul\":10345:10364   */\n      tag_216\n        /* \"#utility.yul\":10362:10363   */\n      dup4\n        /* \"#utility.yul\":10345:10364   */\n      tag_108\n      jump\t// in\n    tag_216:\n        /* \"#utility.yul\":10340:10364   */\n      swap3\n      pop\n        /* \"#utility.yul\":10383:10384   */\n      dup3\n        /* \"#utility.yul\":10373:10408   */\n      tag_217\n      jumpi\n        /* \"#utility.yul\":10388:10406   */\n      tag_218\n      tag_109\n      jump\t// in\n    tag_218:\n        /* \"#utility.yul\":10373:10408   */\n    tag_217:\n        /* \"#utility.yul\":10574:10575   */\n      0x01\n        /* \"#utility.yul\":10571:10572   */\n      0x00\n        /* \"#utility.yul\":10567:10576   */\n      sub\n        /* \"#utility.yul\":10564:10565   */\n      dup4\n        /* \"#utility.yul\":10561:10577   */\n      eq\n        /* \"#utility.yul\":10480:10546   */\n      0x8000000000000000000000000000000000000000000000000000000000000000\n        /* \"#utility.yul\":10477:10478   */\n      dup4\n        /* \"#utility.yul\":10474:10547   */\n      eq\n        /* \"#utility.yul\":10457:10587   */\n      and\n        /* \"#utility.yul\":10454:10610   */\n      iszero\n      tag_219\n      jumpi\n        /* \"#utility.yul\":10590:10608   */\n      tag_220\n      tag_107\n      jump\t// in\n    tag_220:\n        /* \"#utility.yul\":10454:10610   */\n    tag_219:\n        /* \"#utility.yul\":10633:10634   */\n      dup3\n        /* \"#utility.yul\":10630:10631   */\n      dup3\n        /* \"#utility.yul\":10625:10635   */\n      sdiv\n        /* \"#utility.yul\":10620:10635   */\n      swap1\n      pop\n        /* \"#utility.yul\":10256:10641   */\n      swap3\n      swap2\n      pop\n      pop\n      jump\t// out\n        /* \"#utility.yul\":10647:11172   */\n    tag_43:\n        /* \"#utility.yul\":10686:10689   */\n      0x00\n        /* \"#utility.yul\":10705:10724   */\n      tag_222\n        /* \"#utility.yul\":10722:10723   */\n      dup3\n        /* \"#utility.yul\":10705:10724   */\n      tag_108\n      jump\t// in\n    tag_222:\n        /* \"#utility.yul\":10700:10724   */\n      swap2\n      pop\n        /* \"#utility.yul\":10738:10757   */\n      tag_223\n        /* \"#utility.yul\":10755:10756   */\n      dup4\n        /* \"#utility.yul\":10738:10757   */\n      tag_108\n      jump\t// in\n    tag_223:\n        /* \"#utility.yul\":10733:10757   */\n      swap3\n      pop\n        /* \"#utility.yul\":10926:10927   */\n      dup2\n        /* \"#utility.yul\":10858:10924   */\n      0x7fffffffffffffffffffffffffffffffffffffffffffffffffffffffffffffff\n        /* \"#utility.yul\":10854:10928   */\n      sub\n        /* \"#utility.yul\":10851:10852   */\n      dup4\n        /* \"#utility.yul\":10847:10929   */\n      sgt\n        /* \"#utility.yul\":10842:10843   */\n      0x00\n        /* \"#utility.yul\":10839:10840   */\n      dup4\n        /* \"#utility.yul\":10835:10844   */\n      slt\n        /* \"#utility.yul\":10828:10845   */\n      iszero\n        /* \"#utility.yul\":10824:10930   */\n      and\n        /* \"#utility.yul\":10821:10953   */\n      iszero\n      tag_224\n      jumpi\n        /* \"#utility.yul\":10933:10951   */\n      tag_225\n      tag_107\n      jump\t// in\n    tag_225:\n        /* \"#utility.yul\":10821:10953   */\n    tag_224:\n        /* \"#utility.yul\":11113:11114   */\n      dup2\n        /* \"#utility.yul\":11045:11111   */\n      0x8000000000000000000000000000000000000000000000000000000000000000\n        /* \"#utility.yul\":11041:11115   */\n      sub\n        /* \"#utility.yul\":11038:11039   */\n      dup4\n        /* \"#utility.yul\":11034:11116   */\n      slt\n        /* \"#utility.yul\":11030:11031   */\n      0x00\n        /* \"#utility.yul\":11027:11028   */\n      dup4\n        /* \"#utility.yul\":11023:11032   */\n      slt\n        /* \"#utility.yul\":11019:11117   */\n      and\n        /* \"#utility.yul\":11016:11140   */\n      iszero\n      tag_226\n      jumpi\n        /* \"#utility.yul\":11120:11138   */\n      tag_227\n      tag_107\n      jump\t// in\n    tag_227:\n        /* \"#utility.yul\":11016:11140   */\n    tag_226:\n        /* \"#utility.yul\":11164:11165   */\n      dup3\n        /* \"#utility.yul\":11161:11162   */\n      dup3\n        /* \"#utility.yul\":11157:11166   */\n      add\n        /* \"#utility.yul\":11150:11166   */\n      swap1\n      pop\n        /* \"#utility.yul\":10647:11172   */\n      swap3\n      swap2\n      pop\n      pop\n      jump\t// out\n        /* \"#utility.yul\":11178:11358   */\n    tag_46:\n        /* \"#utility.yul\":11226:11303   */\n      0x4e487b7100000000000000000000000000000000000000000000000000000000\n        /* \"#utility.yul\":11223:11224   */\n      0x00\n        /* \"#utility.yul\":11216:11304   */\n      mstore\n        /* \"#utility.yul\":11323:11327   */\n      0x32\n        /* \"#utility.yul\":11320:11321   */\n      0x04\n        /* \"#utility.yul\":11313:11328   */\n      mstore\n        /* \"#utility.yul\":11347:11351   */\n      0x24\n        /* \"#utility.yul\":11344:11345   */\n      0x00\n        /* \"#utility.yul\":11337:11352   */\n      revert\n        /* \"#utility.yul\":11364:11595   */\n    tag_54:\n        /* \"#utility.yul\":11402:11405   */\n      0x00\n        /* \"#utility.yul\":11425:11448   */\n      tag_230\n        /* \"#utility.yul\":11442:11447   */\n      dup3\n        /* \"#utility.yul\":11425:11448   */\n      tag_108\n      jump\t// in\n    tag_230:\n        /* \"#utility.yul\":11416:11448   */\n      swap2\n      pop\n        /* \"#utility.yul\":11470:11536   */\n      0x7fffffffffffffffffffffffffffffffffffffffffffffffffffffffffffffff\n        /* \"#utility.yul\":11463:11468   */\n      dup3\n        /* \"#utility.yul\":11460:11537   */\n      sub\n        /* \"#utility.yul\":11457:11560   */\n      tag_231\n      jumpi\n        /* \"#utility.yul\":11540:11558   */\n      tag_232\n      tag_107\n      jump\t// in\n    tag_232:\n        /* \"#utility.yul\":11457:11560   */\n    tag_231:\n        /* \"#utility.yul\":11587:11588   */\n      0x01\n        /* \"#utility.yul\":11580:11585   */\n      dup3\n        /* \"#utility.yul\":11576:11589   */\n      add\n        /* \"#utility.yul\":11569:11589   */\n      swap1\n      pop\n        /* \"#utility.yul\":11364:11595   */\n      swap2\n      swap1\n      pop\n      jump\t// out\n        /* \"#utility.yul\":11601:11832   */\n    tag_60:\n        /* \"#utility.yul\":11639:11642   */\n      0x00\n        /* \"#utility.yul\":11662:11685   */\n      tag_234\n        /* \"#utility.yul\":11679:11684   */\n      dup3\n        /* \"#utility.yul\":11662:11685   */\n      tag_108\n      jump\t// in\n    tag_234:\n        /* \"#utility.yul\":11653:11685   */\n      swap2\n      pop\n        /* \"#utility.yul\":11707:11773   */\n      0x8000000000000000000000000000000000000000000000000000000000000000\n        /* \"#utility.yul\":11700:11705   */\n      dup3\n        /* \"#utility.yul\":11697:11774   */\n      sub\n        /* \"#utility.yul\":11694:11797   */\n      tag_235\n      jumpi\n        /* \"#utility.yul\":11777:11795   */\n      tag_236\n      tag_107\n      jump\t// in\n    tag_236:\n        /* \"#utility.yul\":11694:11797   */\n    tag_235:\n        /* \"#utility.yul\":11824:11825   */\n      0x01\n        /* \"#utility.yul\":11817:11822   */\n      dup3\n        /* \"#utility.yul\":11813:11826   */\n      sub\n        /* \"#utility.yul\":11806:11826   */\n      swap1\n      pop\n        /* \"#utility.yul\":11601:11832   */\n      swap2\n      swap1\n      pop\n      jump\t// out\n\n    auxdata: 0xa26469706673582212203f299660c50deea5e2bf6d2fdcec8c26370c95632a053fd9b9442d7de8f3529264736f6c634300080d0033\n}\n",
				"bytecode": {
					"linkReferences": {},
					"object": "608060405234801561001057600080fd5b50610a04806100206000396000f3fe608060405234801561001057600080fd5b50600436106100575760003560e01c80631628e0f51461005c5780631d9cc86f1461007857806378c5b268146100a85780639703ef35146100c45780639979ef45146100e0575b600080fd5b6100766004803603810190610071919061031a565b6100fc565b005b610092600480360381019061008d9190610567565b6100ff565b60405161009f91906106bf565b60405180910390f35b6100c260048036038101906100bd919061031a565b610122565b005b6100de60048036038101906100d9919061031a565b610125565b005b6100fa60048036038101906100f5919061031a565b610128565b005b50565b606061011a826000600185516101159190610710565b61012b565b819050919050565b50565b50565b50565b600082905060008290508082036101435750506102cb565b60008560028686610154919061074e565b61015e9190610811565b86610169919061087b565b8151811061017a5761017961090f565b5b60200260200101516040015190505b81831361029f575b808684815181106101a5576101a461090f565b5b60200260200101516040015111156101ca5782806101c29061093e565b935050610191565b5b8582815181106101de576101dd61090f565b5b6020026020010151604001518111156102045781806101fc90610986565b9250506101cb565b81831361029a5785828151811061021e5761021d61090f565b5b60200260200101518684815181106102395761023861090f565b5b60200260200101518785815181106102545761025361090f565b5b6020026020010188858151811061026e5761026d61090f565b5b60200260200101829052829052505082806102889061093e565b935050818061029690610986565b9250505b610189565b818512156102b3576102b286868461012b565b5b838312156102c7576102c686848661012b565b5b5050505b505050565b6000604051905090565b600080fd5b600080fd5b6000819050919050565b6102f7816102e4565b811461030257600080fd5b50565b600081359050610314816102ee565b92915050565b6000602082840312156103305761032f6102da565b5b600061033e84828501610305565b91505092915050565b600080fd5b6000601f19601f8301169050919050565b7f4e487b7100000000000000000000000000000000000000000000000000000000600052604160045260246000fd5b6103958261034c565b810181811067ffffffffffffffff821117156103b4576103b361035d565b5b80604052505050565b60006103c76102d0565b90506103d3828261038c565b919050565b600067ffffffffffffffff8211156103f3576103f261035d565b5b602082029050602081019050919050565b600080fd5b600080fd5b600073ffffffffffffffffffffffffffffffffffffffff82169050919050565b60006104398261040e565b9050919050565b6104498161042e565b811461045457600080fd5b50565b60008135905061046681610440565b92915050565b60006060828403121561048257610481610409565b5b61048c60606103bd565b9050600061049c84828501610457565b60008301525060206104b084828501610305565b60208301525060406104c484828501610305565b60408301525092915050565b60006104e36104de846103d8565b6103bd565b9050808382526020820190506060840283018581111561050657610505610404565b5b835b8181101561052f578061051b888261046c565b845260208401935050606081019050610508565b5050509392505050565b600082601f83011261054e5761054d610347565b5b813561055e8482602086016104d0565b91505092915050565b60006020828403121561057d5761057c6102da565b5b600082013567ffffffffffffffff81111561059b5761059a6102df565b5b6105a784828501610539565b91505092915050565b600081519050919050565b600082825260208201905092915050565b6000819050602082019050919050565b6105e58161042e565b82525050565b6105f4816102e4565b82525050565b60608201600082015161061060008501826105dc565b50602082015161062360208501826105eb565b50604082015161063660408501826105eb565b50505050565b600061064883836105fa565b60608301905092915050565b6000602082019050919050565b600061066c826105b0565b61067681856105bb565b9350610681836105cc565b8060005b838110156106b2578151610699888261063c565b97506106a483610654565b925050600181019050610685565b5085935050505092915050565b600060208201905081810360008301526106d98184610661565b905092915050565b7f4e487b7100000000000000000000000000000000000000000000000000000000600052601160045260246000fd5b600061071b826102e4565b9150610726836102e4565b925082821015610739576107386106e1565b5b828203905092915050565b6000819050919050565b600061075982610744565b915061076483610744565b9250827f80000000000000000000000000000000000000000000000000000000000000000182126000841215161561079f5761079e6106e1565b5b827f7fffffffffffffffffffffffffffffffffffffffffffffffffffffffffffffff0182136000841216156107d7576107d66106e1565b5b828203905092915050565b7f4e487b7100000000000000000000000000000000000000000000000000000000600052601260045260246000fd5b600061081c82610744565b915061082783610744565b925082610837576108366107e2565b5b600160000383147f8000000000000000000000000000000000000000000000000000000000000000831416156108705761086f6106e1565b5b828205905092915050565b600061088682610744565b915061089183610744565b9250817f7fffffffffffffffffffffffffffffffffffffffffffffffffffffffffffffff038313600083121516156108cc576108cb6106e1565b5b817f8000000000000000000000000000000000000000000000000000000000000000038312600083121615610904576109036106e1565b5b828201905092915050565b7f4e487b7100000000000000000000000000000000000000000000000000000000600052603260045260246000fd5b600061094982610744565b91507f7fffffffffffffffffffffffffffffffffffffffffffffffffffffffffffffff820361097b5761097a6106e1565b5b600182019050919050565b600061099182610744565b91507f800000000000000000000000000000000000000000000000000000000000000082036109c3576109c26106e1565b5b60018203905091905056fea26469706673582212203f299660c50deea5e2bf6d2fdcec8c26370c95632a053fd9b9442d7de8f3529264736f6c634300080d0033",
					"opcodes": "PUSH1 0x80 PUSH1 0x40 MSTORE CALLVALUE DUP1 ISZERO PUSH2 0x10 JUMPI PUSH1 0x0 DUP1 REVERT JUMPDEST POP PUSH2 0xA04 DUP1 PUSH2 0x20 PUSH1 0x0 CODECOPY PUSH1 0x0 RETURN INVALID PUSH1 0x80 PUSH1 0x40 MSTORE CALLVALUE DUP1 ISZERO PUSH2 0x10 JUMPI PUSH1 0x0 DUP1 REVERT JUMPDEST POP PUSH1 0x4 CALLDATASIZE LT PUSH2 0x57 JUMPI PUSH1 0x0 CALLDATALOAD PUSH1 0xE0 SHR DUP1 PUSH4 0x1628E0F5 EQ PUSH2 0x5C JUMPI DUP1 PUSH4 0x1D9CC86F EQ PUSH2 0x78 JUMPI DUP1 PUSH4 0x78C5B268 EQ PUSH2 0xA8 JUMPI DUP1 PUSH4 0x9703EF35 EQ PUSH2 0xC4 JUMPI DUP1 PUSH4 0x9979EF45 EQ PUSH2 0xE0 JUMPI JUMPDEST PUSH1 0x0 DUP1 REVERT JUMPDEST PUSH2 0x76 PUSH1 0x4 DUP1 CALLDATASIZE SUB DUP2 ADD SWAP1 PUSH2 0x71 SWAP2 SWAP1 PUSH2 0x31A JUMP JUMPDEST PUSH2 0xFC JUMP JUMPDEST STOP JUMPDEST PUSH2 0x92 PUSH1 0x4 DUP1 CALLDATASIZE SUB DUP2 ADD SWAP1 PUSH2 0x8D SWAP2 SWAP1 PUSH2 0x567 JUMP JUMPDEST PUSH2 0xFF JUMP JUMPDEST PUSH1 0x40 MLOAD PUSH2 0x9F SWAP2 SWAP1 PUSH2 0x6BF JUMP JUMPDEST PUSH1 0x40 MLOAD DUP1 SWAP2 SUB SWAP1 RETURN JUMPDEST PUSH2 0xC2 PUSH1 0x4 DUP1 CALLDATASIZE SUB DUP2 ADD SWAP1 PUSH2 0xBD SWAP2 SWAP1 PUSH2 0x31A JUMP JUMPDEST PUSH2 0x122 JUMP JUMPDEST STOP JUMPDEST PUSH2 0xDE PUSH1 0x4 DUP1 CALLDATASIZE SUB DUP2 ADD SWAP1 PUSH2 0xD9 SWAP2 SWAP1 PUSH2 0x31A JUMP JUMPDEST PUSH2 0x125 JUMP JUMPDEST STOP JUMPDEST PUSH2 0xFA PUSH1 0x4 DUP1 CALLDATASIZE SUB DUP2 ADD SWAP1 PUSH2 0xF5 SWAP2 SWAP1 PUSH2 0x31A JUMP JUMPDEST PUSH2 0x128 JUMP JUMPDEST STOP JUMPDEST POP JUMP JUMPDEST PUSH1 0x60 PUSH2 0x11A DUP3 PUSH1 0x0 PUSH1 0x1 DUP6 MLOAD PUSH2 0x115 SWAP2 SWAP1 PUSH2 0x710 JUMP JUMPDEST PUSH2 0x12B JUMP JUMPDEST DUP2 SWAP1 POP SWAP2 SWAP1 POP JUMP JUMPDEST POP JUMP JUMPDEST POP JUMP JUMPDEST POP JUMP JUMPDEST PUSH1 0x0 DUP3 SWAP1 POP PUSH1 0x0 DUP3 SWAP1 POP DUP1 DUP3 SUB PUSH2 0x143 JUMPI POP POP PUSH2 0x2CB JUMP JUMPDEST PUSH1 0x0 DUP6 PUSH1 0x2 DUP7 DUP7 PUSH2 0x154 SWAP2 SWAP1 PUSH2 0x74E JUMP JUMPDEST PUSH2 0x15E SWAP2 SWAP1 PUSH2 0x811 JUMP JUMPDEST DUP7 PUSH2 0x169 SWAP2 SWAP1 PUSH2 0x87B JUMP JUMPDEST DUP2 MLOAD DUP2 LT PUSH2 0x17A JUMPI PUSH2 0x179 PUSH2 0x90F JUMP JUMPDEST JUMPDEST PUSH1 0x20 MUL PUSH1 0x20 ADD ADD MLOAD PUSH1 0x40 ADD MLOAD SWAP1 POP JUMPDEST DUP2 DUP4 SGT PUSH2 0x29F JUMPI JUMPDEST DUP1 DUP7 DUP5 DUP2 MLOAD DUP2 LT PUSH2 0x1A5 JUMPI PUSH2 0x1A4 PUSH2 0x90F JUMP JUMPDEST JUMPDEST PUSH1 0x20 MUL PUSH1 0x20 ADD ADD MLOAD PUSH1 0x40 ADD MLOAD GT ISZERO PUSH2 0x1CA JUMPI DUP3 DUP1 PUSH2 0x1C2 SWAP1 PUSH2 0x93E JUMP JUMPDEST SWAP4 POP POP PUSH2 0x191 JUMP JUMPDEST JUMPDEST DUP6 DUP3 DUP2 MLOAD DUP2 LT PUSH2 0x1DE JUMPI PUSH2 0x1DD PUSH2 0x90F JUMP JUMPDEST JUMPDEST PUSH1 0x20 MUL PUSH1 0x20 ADD ADD MLOAD PUSH1 0x40 ADD MLOAD DUP2 GT ISZERO PUSH2 0x204 JUMPI DUP2 DUP1 PUSH2 0x1FC SWAP1 PUSH2 0x986 JUMP JUMPDEST SWAP3 POP POP PUSH2 0x1CB JUMP JUMPDEST DUP2 DUP4 SGT PUSH2 0x29A JUMPI DUP6 DUP3 DUP2 MLOAD DUP2 LT PUSH2 0x21E JUMPI PUSH2 0x21D PUSH2 0x90F JUMP JUMPDEST JUMPDEST PUSH1 0x20 MUL PUSH1 0x20 ADD ADD MLOAD DUP7 DUP5 DUP2 MLOAD DUP2 LT PUSH2 0x239 JUMPI PUSH2 0x238 PUSH2 0x90F JUMP JUMPDEST JUMPDEST PUSH1 0x20 MUL PUSH1 0x20 ADD ADD MLOAD DUP8 DUP6 DUP2 MLOAD DUP2 LT PUSH2 0x254 JUMPI PUSH2 0x253 PUSH2 0x90F JUMP JUMPDEST JUMPDEST PUSH1 0x20 MUL PUSH1 0x20 ADD ADD DUP9 DUP6 DUP2 MLOAD DUP2 LT PUSH2 0x26E JUMPI PUSH2 0x26D PUSH2 0x90F JUMP JUMPDEST JUMPDEST PUSH1 0x20 MUL PUSH1 0x20 ADD ADD DUP3 SWAP1 MSTORE DUP3 SWAP1 MSTORE POP POP DUP3 DUP1 PUSH2 0x288 SWAP1 PUSH2 0x93E JUMP JUMPDEST SWAP4 POP POP DUP2 DUP1 PUSH2 0x296 SWAP1 PUSH2 0x986 JUMP JUMPDEST SWAP3 POP POP JUMPDEST PUSH2 0x189 JUMP JUMPDEST DUP2 DUP6 SLT ISZERO PUSH2 0x2B3 JUMPI PUSH2 0x2B2 DUP7 DUP7 DUP5 PUSH2 0x12B JUMP JUMPDEST JUMPDEST DUP4 DUP4 SLT ISZERO PUSH2 0x2C7 JUMPI PUSH2 0x2C6 DUP7 DUP5 DUP7 PUSH2 0x12B JUMP JUMPDEST JUMPDEST POP POP POP JUMPDEST POP POP POP JUMP JUMPDEST PUSH1 0x0 PUSH1 0x40 MLOAD SWAP1 POP SWAP1 JUMP JUMPDEST PUSH1 0x0 DUP1 REVERT JUMPDEST PUSH1 0x0 DUP1 REVERT JUMPDEST PUSH1 0x0 DUP2 SWAP1 POP SWAP2 SWAP1 POP JUMP JUMPDEST PUSH2 0x2F7 DUP2 PUSH2 0x2E4 JUMP JUMPDEST DUP2 EQ PUSH2 0x302 JUMPI PUSH1 0x0 DUP1 REVERT JUMPDEST POP JUMP JUMPDEST PUSH1 0x0 DUP2 CALLDATALOAD SWAP1 POP PUSH2 0x314 DUP2 PUSH2 0x2EE JUMP JUMPDEST SWAP3 SWAP2 POP POP JUMP JUMPDEST PUSH1 0x0 PUSH1 0x20 DUP3 DUP5 SUB SLT ISZERO PUSH2 0x330 JUMPI PUSH2 0x32F PUSH2 0x2DA JUMP JUMPDEST JUMPDEST PUSH1 0x0 PUSH2 0x33E DUP5 DUP3 DUP6 ADD PUSH2 0x305 JUMP JUMPDEST SWAP2 POP POP SWAP3 SWAP2 POP POP JUMP JUMPDEST PUSH1 0x0 DUP1 REVERT JUMPDEST PUSH1 0x0 PUSH1 0x1F NOT PUSH1 0x1F DUP4 ADD AND SWAP1 POP SWAP2 SWAP1 POP JUMP JUMPDEST PUSH32 0x4E487B7100000000000000000000000000000000000000000000000000000000 PUSH1 0x0 MSTORE PUSH1 0x41 PUSH1 0x4 MSTORE PUSH1 0x24 PUSH1 0x0 REVERT JUMPDEST PUSH2 0x395 DUP3 PUSH2 0x34C JUMP JUMPDEST DUP2 ADD DUP2 DUP2 LT PUSH8 0xFFFFFFFFFFFFFFFF DUP3 GT OR ISZERO PUSH2 0x3B4 JUMPI PUSH2 0x3B3 PUSH2 0x35D JUMP JUMPDEST JUMPDEST DUP1 PUSH1 0x40 MSTORE POP POP POP JUMP JUMPDEST PUSH1 0x0 PUSH2 0x3C7 PUSH2 0x2D0 JUMP JUMPDEST SWAP1 POP PUSH2 0x3D3 DUP3 DUP3 PUSH2 0x38C JUMP JUMPDEST SWAP2 SWAP1 POP JUMP JUMPDEST PUSH1 0x0 PUSH8 0xFFFFFFFFFFFFFFFF DUP3 GT ISZERO PUSH2 0x3F3 JUMPI PUSH2 0x3F2 PUSH2 0x35D JUMP JUMPDEST JUMPDEST PUSH1 0x20 DUP3 MUL SWAP1 POP PUSH1 0x20 DUP2 ADD SWAP1 POP SWAP2 SWAP1 POP JUMP JUMPDEST PUSH1 0x0 DUP1 REVERT JUMPDEST PUSH1 0x0 DUP1 REVERT JUMPDEST PUSH1 0x0 PUSH20 0xFFFFFFFFFFFFFFFFFFFFFFFFFFFFFFFFFFFFFFFF DUP3 AND SWAP1 POP SWAP2 SWAP1 POP JUMP JUMPDEST PUSH1 0x0 PUSH2 0x439 DUP3 PUSH2 0x40E JUMP JUMPDEST SWAP1 POP SWAP2 SWAP1 POP JUMP JUMPDEST PUSH2 0x449 DUP2 PUSH2 0x42E JUMP JUMPDEST DUP2 EQ PUSH2 0x454 JUMPI PUSH1 0x0 DUP1 REVERT JUMPDEST POP JUMP JUMPDEST PUSH1 0x0 DUP2 CALLDATALOAD SWAP1 POP PUSH2 0x466 DUP2 PUSH2 0x440 JUMP JUMPDEST SWAP3 SWAP2 POP POP JUMP JUMPDEST PUSH1 0x0 PUSH1 0x60 DUP3 DUP5 SUB SLT ISZERO PUSH2 0x482 JUMPI PUSH2 0x481 PUSH2 0x409 JUMP JUMPDEST JUMPDEST PUSH2 0x48C PUSH1 0x60 PUSH2 0x3BD JUMP JUMPDEST SWAP1 POP PUSH1 0x0 PUSH2 0x49C DUP5 DUP3 DUP6 ADD PUSH2 0x457 JUMP JUMPDEST PUSH1 0x0 DUP4 ADD MSTORE POP PUSH1 0x20 PUSH2 0x4B0 DUP5 DUP3 DUP6 ADD PUSH2 0x305 JUMP JUMPDEST PUSH1 0x20 DUP4 ADD MSTORE POP PUSH1 0x40 PUSH2 0x4C4 DUP5 DUP3 DUP6 ADD PUSH2 0x305 JUMP JUMPDEST PUSH1 0x40 DUP4 ADD MSTORE POP SWAP3 SWAP2 POP POP JUMP JUMPDEST PUSH1 0x0 PUSH2 0x4E3 PUSH2 0x4DE DUP5 PUSH2 0x3D8 JUMP JUMPDEST PUSH2 0x3BD JUMP JUMPDEST SWAP1 POP DUP1 DUP4 DUP3 MSTORE PUSH1 0x20 DUP3 ADD SWAP1 POP PUSH1 0x60 DUP5 MUL DUP4 ADD DUP6 DUP2 GT ISZERO PUSH2 0x506 JUMPI PUSH2 0x505 PUSH2 0x404 JUMP JUMPDEST JUMPDEST DUP4 JUMPDEST DUP2 DUP2 LT ISZERO PUSH2 0x52F JUMPI DUP1 PUSH2 0x51B DUP9 DUP3 PUSH2 0x46C JUMP JUMPDEST DUP5 MSTORE PUSH1 0x20 DUP5 ADD SWAP4 POP POP PUSH1 0x60 DUP2 ADD SWAP1 POP PUSH2 0x508 JUMP JUMPDEST POP POP POP SWAP4 SWAP3 POP POP POP JUMP JUMPDEST PUSH1 0x0 DUP3 PUSH1 0x1F DUP4 ADD SLT PUSH2 0x54E JUMPI PUSH2 0x54D PUSH2 0x347 JUMP JUMPDEST JUMPDEST DUP2 CALLDATALOAD PUSH2 0x55E DUP5 DUP3 PUSH1 0x20 DUP7 ADD PUSH2 0x4D0 JUMP JUMPDEST SWAP2 POP POP SWAP3 SWAP2 POP POP JUMP JUMPDEST PUSH1 0x0 PUSH1 0x20 DUP3 DUP5 SUB SLT ISZERO PUSH2 0x57D JUMPI PUSH2 0x57C PUSH2 0x2DA JUMP JUMPDEST JUMPDEST PUSH1 0x0 DUP3 ADD CALLDATALOAD PUSH8 0xFFFFFFFFFFFFFFFF DUP2 GT ISZERO PUSH2 0x59B JUMPI PUSH2 0x59A PUSH2 0x2DF JUMP JUMPDEST JUMPDEST PUSH2 0x5A7 DUP5 DUP3 DUP6 ADD PUSH2 0x539 JUMP JUMPDEST SWAP2 POP POP SWAP3 SWAP2 POP POP JUMP JUMPDEST PUSH1 0x0 DUP2 MLOAD SWAP1 POP SWAP2 SWAP1 POP JUMP JUMPDEST PUSH1 0x0 DUP3 DUP3 MSTORE PUSH1 0x20 DUP3 ADD SWAP1 POP SWAP3 SWAP2 POP POP JUMP JUMPDEST PUSH1 0x0 DUP2 SWAP1 POP PUSH1 0x20 DUP3 ADD SWAP1 POP SWAP2 SWAP1 POP JUMP JUMPDEST PUSH2 0x5E5 DUP2 PUSH2 0x42E JUMP JUMPDEST DUP3 MSTORE POP POP JUMP JUMPDEST PUSH2 0x5F4 DUP2 PUSH2 0x2E4 JUMP JUMPDEST DUP3 MSTORE POP POP JUMP JUMPDEST PUSH1 0x60 DUP3 ADD PUSH1 0x0 DUP3 ADD MLOAD PUSH2 0x610 PUSH1 0x0 DUP6 ADD DUP3 PUSH2 0x5DC JUMP JUMPDEST POP PUSH1 0x20 DUP3 ADD MLOAD PUSH2 0x623 PUSH1 0x20 DUP6 ADD DUP3 PUSH2 0x5EB JUMP JUMPDEST POP PUSH1 0x40 DUP3 ADD MLOAD PUSH2 0x636 PUSH1 0x40 DUP6 ADD DUP3 PUSH2 0x5EB JUMP JUMPDEST POP POP POP POP JUMP JUMPDEST PUSH1 0x0 PUSH2 0x648 DUP4 DUP4 PUSH2 0x5FA JUMP JUMPDEST PUSH1 0x60 DUP4 ADD SWAP1 POP SWAP3 SWAP2 POP POP JUMP JUMPDEST PUSH1 0x0 PUSH1 0x20 DUP3 ADD SWAP1 POP SWAP2 SWAP1 POP JUMP JUMPDEST PUSH1 0x0 PUSH2 0x66C DUP3 PUSH2 0x5B0 JUMP JUMPDEST PUSH2 0x676 DUP2 DUP6 PUSH2 0x5BB JUMP JUMPDEST SWAP4 POP PUSH2 0x681 DUP4 PUSH2 0x5CC JUMP JUMPDEST DUP1 PUSH1 0x0 JUMPDEST DUP4 DUP2 LT ISZERO PUSH2 0x6B2 JUMPI DUP2 MLOAD PUSH2 0x699 DUP9 DUP3 PUSH2 0x63C JUMP JUMPDEST SWAP8 POP PUSH2 0x6A4 DUP4 PUSH2 0x654 JUMP JUMPDEST SWAP3 POP POP PUSH1 0x1 DUP2 ADD SWAP1 POP PUSH2 0x685 JUMP JUMPDEST POP DUP6 SWAP4 POP POP POP POP SWAP3 SWAP2 POP POP JUMP JUMPDEST PUSH1 0x0 PUSH1 0x20 DUP3 ADD SWAP1 POP DUP2 DUP2 SUB PUSH1 0x0 DUP4 ADD MSTORE PUSH2 0x6D9 DUP2 DUP5 PUSH2 0x661 JUMP JUMPDEST SWAP1 POP SWAP3 SWAP2 POP POP JUMP JUMPDEST PUSH32 0x4E487B7100000000000000000000000000000000000000000000000000000000 PUSH1 0x0 MSTORE PUSH1 0x11 PUSH1 0x4 MSTORE PUSH1 0x24 PUSH1 0x0 REVERT JUMPDEST PUSH1 0x0 PUSH2 0x71B DUP3 PUSH2 0x2E4 JUMP JUMPDEST SWAP2 POP PUSH2 0x726 DUP4 PUSH2 0x2E4 JUMP JUMPDEST SWAP3 POP DUP3 DUP3 LT ISZERO PUSH2 0x739 JUMPI PUSH2 0x738 PUSH2 0x6E1 JUMP JUMPDEST JUMPDEST DUP3 DUP3 SUB SWAP1 POP SWAP3 SWAP2 POP POP JUMP JUMPDEST PUSH1 0x0 DUP2 SWAP1 POP SWAP2 SWAP1 POP JUMP JUMPDEST PUSH1 0x0 PUSH2 0x759 DUP3 PUSH2 0x744 JUMP JUMPDEST SWAP2 POP PUSH2 0x764 DUP4 PUSH2 0x744 JUMP JUMPDEST SWAP3 POP DUP3 PUSH32 0x8000000000000000000000000000000000000000000000000000000000000000 ADD DUP3 SLT PUSH1 0x0 DUP5 SLT ISZERO AND ISZERO PUSH2 0x79F JUMPI PUSH2 0x79E PUSH2 0x6E1 JUMP JUMPDEST JUMPDEST DUP3 PUSH32 0x7FFFFFFFFFFFFFFFFFFFFFFFFFFFFFFFFFFFFFFFFFFFFFFFFFFFFFFFFFFFFFFF ADD DUP3 SGT PUSH1 0x0 DUP5 SLT AND ISZERO PUSH2 0x7D7 JUMPI PUSH2 0x7D6 PUSH2 0x6E1 JUMP JUMPDEST JUMPDEST DUP3 DUP3 SUB SWAP1 POP SWAP3 SWAP2 POP POP JUMP JUMPDEST PUSH32 0x4E487B7100000000000000000000000000000000000000000000000000000000 PUSH1 0x0 MSTORE PUSH1 0x12 PUSH1 0x4 MSTORE PUSH1 0x24 PUSH1 0x0 REVERT JUMPDEST PUSH1 0x0 PUSH2 0x81C DUP3 PUSH2 0x744 JUMP JUMPDEST SWAP2 POP PUSH2 0x827 DUP4 PUSH2 0x744 JUMP JUMPDEST SWAP3 POP DUP3 PUSH2 0x837 JUMPI PUSH2 0x836 PUSH2 0x7E2 JUMP JUMPDEST JUMPDEST PUSH1 0x1 PUSH1 0x0 SUB DUP4 EQ PUSH32 0x8000000000000000000000000000000000000000000000000000000000000000 DUP4 EQ AND ISZERO PUSH2 0x870 JUMPI PUSH2 0x86F PUSH2 0x6E1 JUMP JUMPDEST JUMPDEST DUP3 DUP3 SDIV SWAP1 POP SWAP3 SWAP2 POP POP JUMP JUMPDEST PUSH1 0x0 PUSH2 0x886 DUP3 PUSH2 0x744 JUMP JUMPDEST SWAP2 POP PUSH2 0x891 DUP4 PUSH2 0x744 JUMP JUMPDEST SWAP3 POP DUP2 PUSH32 0x7FFFFFFFFFFFFFFFFFFFFFFFFFFFFFFFFFFFFFFFFFFFFFFFFFFFFFFFFFFFFFFF SUB DUP4 SGT PUSH1 0x0 DUP4 SLT ISZERO AND ISZERO PUSH2 0x8CC JUMPI PUSH2 0x8CB PUSH2 0x6E1 JUMP JUMPDEST JUMPDEST DUP2 PUSH32 0x8000000000000000000000000000000000000000000000000000000000000000 SUB DUP4 SLT PUSH1 0x0 DUP4 SLT AND ISZERO PUSH2 0x904 JUMPI PUSH2 0x903 PUSH2 0x6E1 JUMP JUMPDEST JUMPDEST DUP3 DUP3 ADD SWAP1 POP SWAP3 SWAP2 POP POP JUMP JUMPDEST PUSH32 0x4E487B7100000000000000000000000000000000000000000000000000000000 PUSH1 0x0 MSTORE PUSH1 0x32 PUSH1 0x4 MSTORE PUSH1 0x24 PUSH1 0x0 REVERT JUMPDEST PUSH1 0x0 PUSH2 0x949 DUP3 PUSH2 0x744 JUMP JUMPDEST SWAP2 POP PUSH32 0x7FFFFFFFFFFFFFFFFFFFFFFFFFFFFFFFFFFFFFFFFFFFFFFFFFFFFFFFFFFFFFFF DUP3 SUB PUSH2 0x97B JUMPI PUSH2 0x97A PUSH2 0x6E1 JUMP JUMPDEST JUMPDEST PUSH1 0x1 DUP3 ADD SWAP1 POP SWAP2 SWAP1 POP JUMP JUMPDEST PUSH1 0x0 PUSH2 0x991 DUP3 PUSH2 0x744 JUMP JUMPDEST SWAP2 POP PUSH32 0x8000000000000000000000000000000000000000000000000000000000000000 DUP3 SUB PUSH2 0x9C3 JUMPI PUSH2 0x9C2 PUSH2 0x6E1 JUMP JUMPDEST JUMPDEST PUSH1 0x1 DUP3 SUB SWAP1 POP SWAP2 SWAP1 POP JUMP INVALID LOG2 PUSH5 0x6970667358 0x22 SLT KECCAK256 EXTCODEHASH 0x29 SWAP7 PUSH1 0xC5 0xD 0xEE 0xA5 0xE2 0xBF PUSH14 0x2FDCEC8C26370C95632A053FD9B9 DIFFICULTY 0x2D PUSH30 0xE8F3529264736F6C634300080D0033000000000000000000000000000000 "
				},
				"gasEstimates": {
					"creation": {
						"codeDepositCost": "512800",
						"executionCost": "549",
						"totalCost": "513349"
					},
					"external": {
						"cancelAsk(uint256)": "384",
						"cancelBid(uint256)": "450",
						"placeAsk(uint256)": "428",
						"placeBid(uint256)": "472",
						"sort((address,uint256,uint256)[])": "infinite"
					},
					"internal": {
						"ascendingQuickSort(struct OrderBook.order memory[] memory,int256,int256)": "infinite",
						"descendingQuickSort(struct OrderBook.order memory[] memory,int256,int256)": "infinite"
					}
				},
				"methodIdentifiers": {
					"cancelAsk(uint256)": "1628e0f5",
					"cancelBid(uint256)": "9703ef35",
					"placeAsk(uint256)": "78c5b268",
					"placeBid(uint256)": "9979ef45",
					"sort((address,uint256,uint256)[])": "1d9cc86f"
				}
			},
			"storageLayout": {
				"storage": [],
				"types": null
			},
			"userdoc": {
				"kind": "user",
				"methods": {},
				"version": 1
			}
		}
	}
}