{
	"contracts/OrderBook.sol": {
		"OrderBook": {
			"abi": [
				{
					"inputs": [
						{
							"internalType": "uint256",
							"name": "_commission",
							"type": "uint256"
						}
					],
					"stateMutability": "nonpayable",
					"type": "constructor"
				},
				{
					"anonymous": false,
					"inputs": [
						{
							"indexed": false,
							"internalType": "uint256",
							"name": "",
							"type": "uint256"
						}
					],
					"name": "askCancelled",
					"type": "event"
				},
				{
					"anonymous": false,
					"inputs": [
						{
							"indexed": false,
							"internalType": "address",
							"name": "",
							"type": "address"
						},
						{
							"indexed": false,
							"internalType": "uint256",
							"name": "",
							"type": "uint256"
						},
						{
							"indexed": false,
							"internalType": "uint256",
							"name": "",
							"type": "uint256"
						},
						{
							"indexed": false,
							"internalType": "enum OrderBook.State",
							"name": "",
							"type": "uint8"
						}
					],
					"name": "askPlaced",
					"type": "event"
				},
				{
					"anonymous": false,
					"inputs": [
						{
							"indexed": false,
							"internalType": "uint256",
							"name": "",
							"type": "uint256"
						}
					],
					"name": "bidCancelled",
					"type": "event"
				},
				{
					"anonymous": false,
					"inputs": [
						{
							"indexed": false,
							"internalType": "address",
							"name": "",
							"type": "address"
						},
						{
							"indexed": false,
							"internalType": "uint256",
							"name": "",
							"type": "uint256"
						},
						{
							"indexed": false,
							"internalType": "uint256",
							"name": "",
							"type": "uint256"
						},
						{
							"indexed": false,
							"internalType": "enum OrderBook.State",
							"name": "",
							"type": "uint8"
						}
					],
					"name": "bidPlaced",
					"type": "event"
				},
				{
					"inputs": [
						{
							"internalType": "uint256",
							"name": "askId",
							"type": "uint256"
						}
					],
					"name": "cancelAsk",
					"outputs": [],
					"stateMutability": "nonpayable",
					"type": "function"
				},
				{
					"inputs": [
						{
							"internalType": "uint256",
							"name": "bidId",
							"type": "uint256"
						}
					],
					"name": "cancelBid",
					"outputs": [],
					"stateMutability": "nonpayable",
					"type": "function"
				},
				{
					"inputs": [],
					"name": "fetchAllAsk",
					"outputs": [
						{
							"components": [
								{
									"internalType": "address payable",
									"name": "customer",
									"type": "address"
								},
								{
									"internalType": "uint256",
									"name": "value",
									"type": "uint256"
								},
								{
									"internalType": "uint256",
									"name": "timestamp",
									"type": "uint256"
								},
								{
									"internalType": "enum OrderBook.State",
									"name": "state",
									"type": "uint8"
								}
							],
							"internalType": "struct OrderBook.order[]",
							"name": "",
							"type": "tuple[]"
						}
					],
					"stateMutability": "view",
					"type": "function"
				},
				{
					"inputs": [],
					"name": "fetchAllBid",
					"outputs": [
						{
							"components": [
								{
									"internalType": "address payable",
									"name": "customer",
									"type": "address"
								},
								{
									"internalType": "uint256",
									"name": "value",
									"type": "uint256"
								},
								{
									"internalType": "uint256",
									"name": "timestamp",
									"type": "uint256"
								},
								{
									"internalType": "enum OrderBook.State",
									"name": "state",
									"type": "uint8"
								}
							],
							"internalType": "struct OrderBook.order[]",
							"name": "",
							"type": "tuple[]"
						}
					],
					"stateMutability": "view",
					"type": "function"
				},
				{
					"inputs": [],
					"name": "fetchYourAskIds",
					"outputs": [
						{
							"internalType": "uint256[]",
							"name": "",
							"type": "uint256[]"
						}
					],
					"stateMutability": "nonpayable",
					"type": "function"
				},
				{
					"inputs": [],
					"name": "fetchYourBidIds",
					"outputs": [
						{
							"internalType": "uint256[]",
							"name": "",
							"type": "uint256[]"
						}
					],
					"stateMutability": "nonpayable",
					"type": "function"
				},
				{
					"inputs": [
						{
							"internalType": "uint256",
							"name": "id",
							"type": "uint256"
						}
					],
					"name": "getAskAddress",
					"outputs": [
						{
							"internalType": "address payable",
							"name": "",
							"type": "address"
						}
					],
					"stateMutability": "view",
					"type": "function"
				},
				{
					"inputs": [
						{
							"internalType": "uint256",
							"name": "id",
							"type": "uint256"
						}
					],
					"name": "getAskValue",
					"outputs": [
						{
							"internalType": "uint256",
							"name": "",
							"type": "uint256"
						}
					],
					"stateMutability": "view",
					"type": "function"
				},
				{
					"inputs": [
						{
							"internalType": "uint256",
							"name": "id",
							"type": "uint256"
						}
					],
					"name": "getBidAddress",
					"outputs": [
						{
							"internalType": "address payable",
							"name": "",
							"type": "address"
						}
					],
					"stateMutability": "view",
					"type": "function"
				},
				{
					"inputs": [
						{
							"internalType": "uint256",
							"name": "id",
							"type": "uint256"
						}
					],
					"name": "getBidValue",
					"outputs": [
						{
							"internalType": "uint256",
							"name": "",
							"type": "uint256"
						}
					],
					"stateMutability": "view",
					"type": "function"
				},
				{
					"inputs": [
						{
							"internalType": "uint256",
							"name": "price",
							"type": "uint256"
						}
					],
					"name": "placeAsk",
					"outputs": [],
					"stateMutability": "payable",
					"type": "function"
				},
				{
					"inputs": [
						{
							"internalType": "uint256",
							"name": "price",
							"type": "uint256"
						}
					],
					"name": "placeBid",
					"outputs": [],
					"stateMutability": "payable",
					"type": "function"
				}
			],
			"devdoc": {
				"kind": "dev",
				"methods": {},
				"version": 1
			},
			"evm": {
				"assembly": "    /* \"contracts/OrderBook.sol\":730:6173  contract OrderBook {... */\n  mstore(0x40, 0x80)\n    /* \"contracts/OrderBook.sol\":950:1063  constructor (uint256 _commission) {... */\n  callvalue\n  dup1\n  iszero\n  tag_1\n  jumpi\n  0x00\n  dup1\n  revert\ntag_1:\n  pop\n  mload(0x40)\n  sub(codesize, bytecodeSize)\n  dup1\n  bytecodeSize\n  dup4\n  codecopy\n  dup2\n  dup2\n  add\n  0x40\n  mstore\n  dup2\n  add\n  swap1\n  tag_2\n  swap2\n  swap1\n  tag_3\n  jump\t// in\ntag_2:\n    /* \"contracts/OrderBook.sol\":1011:1021  msg.sender */\n  caller\n    /* \"contracts/OrderBook.sol\":994:1000  _owner */\n  0x00\n  dup1\n    /* \"contracts/OrderBook.sol\":994:1022  _owner = payable(msg.sender) */\n  0x0100\n  exp\n  dup2\n  sload\n  dup2\n  0xffffffffffffffffffffffffffffffffffffffff\n  mul\n  not\n  and\n  swap1\n  dup4\n  0xffffffffffffffffffffffffffffffffffffffff\n  and\n  mul\n  or\n  swap1\n  sstore\n  pop\n    /* \"contracts/OrderBook.sol\":1045:1056  _commission */\n  dup1\n    /* \"contracts/OrderBook.sol\":1032:1042  commission */\n  0x01\n    /* \"contracts/OrderBook.sol\":1032:1056  commission = _commission */\n  dup2\n  swap1\n  sstore\n  pop\n    /* \"contracts/OrderBook.sol\":950:1063  constructor (uint256 _commission) {... */\n  pop\n    /* \"contracts/OrderBook.sol\":730:6173  contract OrderBook {... */\n  jump(tag_6)\n    /* \"#utility.yul\":88:205   */\ntag_8:\n    /* \"#utility.yul\":197:198   */\n  0x00\n    /* \"#utility.yul\":194:195   */\n  dup1\n    /* \"#utility.yul\":187:199   */\n  revert\n    /* \"#utility.yul\":334:411   */\ntag_10:\n    /* \"#utility.yul\":371:378   */\n  0x00\n    /* \"#utility.yul\":400:405   */\n  dup2\n    /* \"#utility.yul\":389:405   */\n  swap1\n  pop\n    /* \"#utility.yul\":334:411   */\n  swap2\n  swap1\n  pop\n  jump\t// out\n    /* \"#utility.yul\":417:539   */\ntag_11:\n    /* \"#utility.yul\":490:514   */\n  tag_19\n    /* \"#utility.yul\":508:513   */\n  dup2\n    /* \"#utility.yul\":490:514   */\n  tag_10\n  jump\t// in\ntag_19:\n    /* \"#utility.yul\":483:488   */\n  dup2\n    /* \"#utility.yul\":480:515   */\n  eq\n    /* \"#utility.yul\":470:533   */\n  tag_20\n  jumpi\n    /* \"#utility.yul\":529:530   */\n  0x00\n    /* \"#utility.yul\":526:527   */\n  dup1\n    /* \"#utility.yul\":519:531   */\n  revert\n    /* \"#utility.yul\":470:533   */\ntag_20:\n    /* \"#utility.yul\":417:539   */\n  pop\n  jump\t// out\n    /* \"#utility.yul\":545:688   */\ntag_12:\n    /* \"#utility.yul\":602:607   */\n  0x00\n    /* \"#utility.yul\":633:639   */\n  dup2\n    /* \"#utility.yul\":627:640   */\n  mload\n    /* \"#utility.yul\":618:640   */\n  swap1\n  pop\n    /* \"#utility.yul\":649:682   */\n  tag_22\n    /* \"#utility.yul\":676:681   */\n  dup2\n    /* \"#utility.yul\":649:682   */\n  tag_11\n  jump\t// in\ntag_22:\n    /* \"#utility.yul\":545:688   */\n  swap3\n  swap2\n  pop\n  pop\n  jump\t// out\n    /* \"#utility.yul\":694:1045   */\ntag_3:\n    /* \"#utility.yul\":764:770   */\n  0x00\n    /* \"#utility.yul\":813:815   */\n  0x20\n    /* \"#utility.yul\":801:810   */\n  dup3\n    /* \"#utility.yul\":792:799   */\n  dup5\n    /* \"#utility.yul\":788:811   */\n  sub\n    /* \"#utility.yul\":784:816   */\n  slt\n    /* \"#utility.yul\":781:900   */\n  iszero\n  tag_24\n  jumpi\n    /* \"#utility.yul\":819:898   */\n  tag_25\n  tag_8\n  jump\t// in\ntag_25:\n    /* \"#utility.yul\":781:900   */\ntag_24:\n    /* \"#utility.yul\":939:940   */\n  0x00\n    /* \"#utility.yul\":964:1028   */\n  tag_26\n    /* \"#utility.yul\":1020:1027   */\n  dup5\n    /* \"#utility.yul\":1011:1017   */\n  dup3\n    /* \"#utility.yul\":1000:1009   */\n  dup6\n    /* \"#utility.yul\":996:1018   */\n  add\n    /* \"#utility.yul\":964:1028   */\n  tag_12\n  jump\t// in\ntag_26:\n    /* \"#utility.yul\":954:1028   */\n  swap2\n  pop\n    /* \"#utility.yul\":910:1038   */\n  pop\n    /* \"#utility.yul\":694:1045   */\n  swap3\n  swap2\n  pop\n  pop\n  jump\t// out\n    /* \"contracts/OrderBook.sol\":730:6173  contract OrderBook {... */\ntag_6:\n  dataSize(sub_0)\n  dup1\n  dataOffset(sub_0)\n  0x00\n  codecopy\n  0x00\n  return\nstop\n\nsub_0: assembly {\n        /* \"contracts/OrderBook.sol\":730:6173  contract OrderBook {... */\n      mstore(0x40, 0x80)\n      jumpi(tag_1, lt(calldatasize, 0x04))\n      shr(0xe0, calldataload(0x00))\n      dup1\n      0x78c5b268\n      gt\n      tag_14\n      jumpi\n      dup1\n      0x78c5b268\n      eq\n      tag_8\n      jumpi\n      dup1\n      0x9703ef35\n      eq\n      tag_9\n      jumpi\n      dup1\n      0x9979ef45\n      eq\n      tag_10\n      jumpi\n      dup1\n      0xc5374af2\n      eq\n      tag_11\n      jumpi\n      dup1\n      0xce0cdc87\n      eq\n      tag_12\n      jumpi\n      dup1\n      0xdb3a1396\n      eq\n      tag_13\n      jumpi\n      jump(tag_1)\n    tag_14:\n      dup1\n      0x122de8f2\n      eq\n      tag_2\n      jumpi\n      dup1\n      0x1628e0f5\n      eq\n      tag_3\n      jumpi\n      dup1\n      0x2db6dfa7\n      eq\n      tag_4\n      jumpi\n      dup1\n      0x4471417f\n      eq\n      tag_5\n      jumpi\n      dup1\n      0x69f632e2\n      eq\n      tag_6\n      jumpi\n      dup1\n      0x734a2e78\n      eq\n      tag_7\n      jumpi\n    tag_1:\n      0x00\n      dup1\n      revert\n        /* \"contracts/OrderBook.sol\":5433:5716  function fetchYourAskIds() public returns (uint[] memory) {... */\n    tag_2:\n      callvalue\n      dup1\n      iszero\n      tag_15\n      jumpi\n      0x00\n      dup1\n      revert\n    tag_15:\n      pop\n      tag_16\n      tag_17\n      jump\t// in\n    tag_16:\n      mload(0x40)\n      tag_18\n      swap2\n      swap1\n      tag_19\n      jump\t// in\n    tag_18:\n      mload(0x40)\n      dup1\n      swap2\n      sub\n      swap1\n      return\n        /* \"contracts/OrderBook.sol\":4741:4944  function cancelAsk (uint askId) public isPending(askBook[askId]) isAuthorised(askBook[askId], msg.sender) {... */\n    tag_3:\n      callvalue\n      dup1\n      iszero\n      tag_20\n      jumpi\n      0x00\n      dup1\n      revert\n    tag_20:\n      pop\n      tag_21\n      0x04\n      dup1\n      calldatasize\n      sub\n      dup2\n      add\n      swap1\n      tag_22\n      swap2\n      swap1\n      tag_23\n      jump\t// in\n    tag_22:\n      tag_24\n      jump\t// in\n    tag_21:\n      stop\n        /* \"contracts/OrderBook.sol\":5962:6063  function getBidValue (uint id) public view returns(uint256) {... */\n    tag_4:\n      callvalue\n      dup1\n      iszero\n      tag_25\n      jumpi\n      0x00\n      dup1\n      revert\n    tag_25:\n      pop\n      tag_26\n      0x04\n      dup1\n      calldatasize\n      sub\n      dup2\n      add\n      swap1\n      tag_27\n      swap2\n      swap1\n      tag_23\n      jump\t// in\n    tag_27:\n      tag_28\n      jump\t// in\n    tag_26:\n      mload(0x40)\n      tag_29\n      swap2\n      swap1\n      tag_30\n      jump\t// in\n    tag_29:\n      mload(0x40)\n      dup1\n      swap2\n      sub\n      swap1\n      return\n        /* \"contracts/OrderBook.sol\":4950:5041  function fetchAllBid() public view returns (order[] memory) {... */\n    tag_5:\n      callvalue\n      dup1\n      iszero\n      tag_31\n      jumpi\n      0x00\n      dup1\n      revert\n    tag_31:\n      pop\n      tag_32\n      tag_33\n      jump\t// in\n    tag_32:\n      mload(0x40)\n      tag_34\n      swap2\n      swap1\n      tag_35\n      jump\t// in\n    tag_34:\n      mload(0x40)\n      dup1\n      swap2\n      sub\n      swap1\n      return\n        /* \"contracts/OrderBook.sol\":5722:5836  function getBidAddress (uint id) public view returns(address payable) {... */\n    tag_6:\n      callvalue\n      dup1\n      iszero\n      tag_36\n      jumpi\n      0x00\n      dup1\n      revert\n    tag_36:\n      pop\n      tag_37\n      0x04\n      dup1\n      calldatasize\n      sub\n      dup2\n      add\n      swap1\n      tag_38\n      swap2\n      swap1\n      tag_23\n      jump\t// in\n    tag_38:\n      tag_39\n      jump\t// in\n    tag_37:\n      mload(0x40)\n      tag_40\n      swap2\n      swap1\n      tag_41\n      jump\t// in\n    tag_40:\n      mload(0x40)\n      dup1\n      swap2\n      sub\n      swap1\n      return\n        /* \"contracts/OrderBook.sol\":5842:5956  function getAskAddress (uint id) public view returns(address payable) {... */\n    tag_7:\n      callvalue\n      dup1\n      iszero\n      tag_42\n      jumpi\n      0x00\n      dup1\n      revert\n    tag_42:\n      pop\n      tag_43\n      0x04\n      dup1\n      calldatasize\n      sub\n      dup2\n      add\n      swap1\n      tag_44\n      swap2\n      swap1\n      tag_23\n      jump\t// in\n    tag_44:\n      tag_45\n      jump\t// in\n    tag_43:\n      mload(0x40)\n      tag_46\n      swap2\n      swap1\n      tag_41\n      jump\t// in\n    tag_46:\n      mload(0x40)\n      dup1\n      swap2\n      sub\n      swap1\n      return\n        /* \"contracts/OrderBook.sol\":4268:4735  function placeAsk (uint256 price) public payable {... */\n    tag_8:\n      tag_47\n      0x04\n      dup1\n      calldatasize\n      sub\n      dup2\n      add\n      swap1\n      tag_48\n      swap2\n      swap1\n      tag_23\n      jump\t// in\n    tag_48:\n      tag_49\n      jump\t// in\n    tag_47:\n      stop\n        /* \"contracts/OrderBook.sol\":4065:4262  function cancelBid (uint bidId) public isPending(bidBook[bidId]) isAuthorised(bidBook[bidId], msg.sender) {... */\n    tag_9:\n      callvalue\n      dup1\n      iszero\n      tag_50\n      jumpi\n      0x00\n      dup1\n      revert\n    tag_50:\n      pop\n      tag_51\n      0x04\n      dup1\n      calldatasize\n      sub\n      dup2\n      add\n      swap1\n      tag_52\n      swap2\n      swap1\n      tag_23\n      jump\t// in\n    tag_52:\n      tag_53\n      jump\t// in\n    tag_51:\n      stop\n        /* \"contracts/OrderBook.sol\":3593:4059  function placeBid (uint256 price) public payable {... */\n    tag_10:\n      tag_54\n      0x04\n      dup1\n      calldatasize\n      sub\n      dup2\n      add\n      swap1\n      tag_55\n      swap2\n      swap1\n      tag_23\n      jump\t// in\n    tag_55:\n      tag_56\n      jump\t// in\n    tag_54:\n      stop\n        /* \"contracts/OrderBook.sol\":5047:5138  function fetchAllAsk() public view returns (order[] memory) {... */\n    tag_11:\n      callvalue\n      dup1\n      iszero\n      tag_57\n      jumpi\n      0x00\n      dup1\n      revert\n    tag_57:\n      pop\n      tag_58\n      tag_59\n      jump\t// in\n    tag_58:\n      mload(0x40)\n      tag_60\n      swap2\n      swap1\n      tag_35\n      jump\t// in\n    tag_60:\n      mload(0x40)\n      dup1\n      swap2\n      sub\n      swap1\n      return\n        /* \"contracts/OrderBook.sol\":5144:5427  function fetchYourBidIds() public returns (uint[] memory) {... */\n    tag_12:\n      callvalue\n      dup1\n      iszero\n      tag_61\n      jumpi\n      0x00\n      dup1\n      revert\n    tag_61:\n      pop\n      tag_62\n      tag_63\n      jump\t// in\n    tag_62:\n      mload(0x40)\n      tag_64\n      swap2\n      swap1\n      tag_19\n      jump\t// in\n    tag_64:\n      mload(0x40)\n      dup1\n      swap2\n      sub\n      swap1\n      return\n        /* \"contracts/OrderBook.sol\":6069:6170  function getAskValue (uint id) public view returns(uint256) {... */\n    tag_13:\n      callvalue\n      dup1\n      iszero\n      tag_65\n      jumpi\n      0x00\n      dup1\n      revert\n    tag_65:\n      pop\n      tag_66\n      0x04\n      dup1\n      calldatasize\n      sub\n      dup2\n      add\n      swap1\n      tag_67\n      swap2\n      swap1\n      tag_23\n      jump\t// in\n    tag_67:\n      tag_68\n      jump\t// in\n    tag_66:\n      mload(0x40)\n      tag_69\n      swap2\n      swap1\n      tag_30\n      jump\t// in\n    tag_69:\n      mload(0x40)\n      dup1\n      swap2\n      sub\n      swap1\n      return\n        /* \"contracts/OrderBook.sol\":5433:5716  function fetchYourAskIds() public returns (uint[] memory) {... */\n    tag_17:\n        /* \"contracts/OrderBook.sol\":5476:5489  uint[] memory */\n      0x60\n        /* \"contracts/OrderBook.sol\":5501:5514  deleteArray() */\n      tag_71\n        /* \"contracts/OrderBook.sol\":5501:5512  deleteArray */\n      tag_72\n        /* \"contracts/OrderBook.sol\":5501:5514  deleteArray() */\n      jump\t// in\n    tag_71:\n        /* \"contracts/OrderBook.sol\":5529:5535  uint i */\n      0x00\n        /* \"contracts/OrderBook.sol\":5524:5686  for (uint i = 0; i < askBook.length; i++) {... */\n    tag_73:\n        /* \"contracts/OrderBook.sol\":5545:5552  askBook */\n      0x03\n        /* \"contracts/OrderBook.sol\":5545:5559  askBook.length */\n      dup1\n      sload\n      swap1\n      pop\n        /* \"contracts/OrderBook.sol\":5541:5542  i */\n      dup2\n        /* \"contracts/OrderBook.sol\":5541:5559  i < askBook.length */\n      lt\n        /* \"contracts/OrderBook.sol\":5524:5686  for (uint i = 0; i < askBook.length; i++) {... */\n      iszero\n      tag_74\n      jumpi\n        /* \"contracts/OrderBook.sol\":5615:5625  msg.sender */\n      caller\n        /* \"contracts/OrderBook.sol\":5584:5626  askBook[i].customer == payable(msg.sender) */\n      0xffffffffffffffffffffffffffffffffffffffff\n      and\n        /* \"contracts/OrderBook.sol\":5584:5591  askBook */\n      0x03\n        /* \"contracts/OrderBook.sol\":5592:5593  i */\n      dup3\n        /* \"contracts/OrderBook.sol\":5584:5594  askBook[i] */\n      dup2\n      sload\n      dup2\n      lt\n      tag_76\n      jumpi\n      tag_77\n      tag_78\n      jump\t// in\n    tag_77:\n    tag_76:\n      swap1\n      0x00\n      mstore\n      keccak256(0x00, 0x20)\n      swap1\n      0x04\n      mul\n      add\n        /* \"contracts/OrderBook.sol\":5584:5603  askBook[i].customer */\n      0x00\n      add\n      0x00\n      swap1\n      sload\n      swap1\n      0x0100\n      exp\n      swap1\n      div\n      0xffffffffffffffffffffffffffffffffffffffff\n      and\n        /* \"contracts/OrderBook.sol\":5584:5626  askBook[i].customer == payable(msg.sender) */\n      0xffffffffffffffffffffffffffffffffffffffff\n      and\n      sub\n        /* \"contracts/OrderBook.sol\":5580:5676  if (askBook[i].customer == payable(msg.sender)) {... */\n      tag_80\n      jumpi\n        /* \"contracts/OrderBook.sol\":5646:5653  request */\n      0x04\n        /* \"contracts/OrderBook.sol\":5659:5660  i */\n      dup2\n        /* \"contracts/OrderBook.sol\":5646:5661  request.push(i) */\n      swap1\n      dup1\n      0x01\n      dup2\n      sload\n      add\n      dup1\n      dup3\n      sstore\n      dup1\n      swap2\n      pop\n      pop\n      0x01\n      swap1\n      sub\n      swap1\n      0x00\n      mstore\n      keccak256(0x00, 0x20)\n      add\n      0x00\n      swap1\n      swap2\n      swap1\n      swap2\n      swap1\n      swap2\n      pop\n      sstore\n        /* \"contracts/OrderBook.sol\":5580:5676  if (askBook[i].customer == payable(msg.sender)) {... */\n    tag_80:\n        /* \"contracts/OrderBook.sol\":5561:5564  i++ */\n      dup1\n      dup1\n      tag_82\n      swap1\n      tag_83\n      jump\t// in\n    tag_82:\n      swap2\n      pop\n      pop\n        /* \"contracts/OrderBook.sol\":5524:5686  for (uint i = 0; i < askBook.length; i++) {... */\n      jump(tag_73)\n    tag_74:\n      pop\n        /* \"contracts/OrderBook.sol\":5702:5709  request */\n      0x04\n        /* \"contracts/OrderBook.sol\":5695:5709  return request */\n      dup1\n      sload\n      dup1\n      0x20\n      mul\n      0x20\n      add\n      mload(0x40)\n      swap1\n      dup2\n      add\n      0x40\n      mstore\n      dup1\n      swap3\n      swap2\n      swap1\n      dup2\n      dup2\n      mstore\n      0x20\n      add\n      dup3\n      dup1\n      sload\n      dup1\n      iszero\n      tag_84\n      jumpi\n      0x20\n      mul\n      dup3\n      add\n      swap2\n      swap1\n      0x00\n      mstore\n      keccak256(0x00, 0x20)\n      swap1\n    tag_85:\n      dup2\n      sload\n      dup2\n      mstore\n      0x20\n      add\n      swap1\n      0x01\n      add\n      swap1\n      dup1\n      dup4\n      gt\n      tag_85\n      jumpi\n    tag_84:\n      pop\n      pop\n      pop\n      pop\n      pop\n      swap1\n      pop\n        /* \"contracts/OrderBook.sol\":5433:5716  function fetchYourAskIds() public returns (uint[] memory) {... */\n      swap1\n      jump\t// out\n        /* \"contracts/OrderBook.sol\":4741:4944  function cancelAsk (uint askId) public isPending(askBook[askId]) isAuthorised(askBook[askId], msg.sender) {... */\n    tag_24:\n        /* \"contracts/OrderBook.sol\":4790:4797  askBook */\n      0x03\n        /* \"contracts/OrderBook.sol\":4798:4803  askId */\n      dup2\n        /* \"contracts/OrderBook.sol\":4790:4804  askBook[askId] */\n      dup2\n      sload\n      dup2\n      lt\n      tag_86\n      jumpi\n      tag_87\n      tag_78\n      jump\t// in\n    tag_87:\n    tag_86:\n      swap1\n      0x00\n      mstore\n      keccak256(0x00, 0x20)\n      swap1\n      0x04\n      mul\n      add\n        /* \"contracts/OrderBook.sol\":1507:1630  modifier isPending(order memory _order) {... */\n      mload(0x40)\n      dup1\n      0x80\n      add\n      0x40\n      mstore\n      swap1\n      dup2\n      0x00\n      dup3\n      add\n      0x00\n      swap1\n      sload\n      swap1\n      0x0100\n      exp\n      swap1\n      div\n      0xffffffffffffffffffffffffffffffffffffffff\n      and\n      0xffffffffffffffffffffffffffffffffffffffff\n      and\n      0xffffffffffffffffffffffffffffffffffffffff\n      and\n      dup2\n      mstore\n      0x20\n      add\n      0x01\n      dup3\n      add\n      sload\n      dup2\n      mstore\n      0x20\n      add\n      0x02\n      dup3\n      add\n      sload\n      dup2\n      mstore\n      0x20\n      add\n      0x03\n      dup3\n      add\n      0x00\n      swap1\n      sload\n      swap1\n      0x0100\n      exp\n      swap1\n      div\n      0xff\n      and\n      0x01\n      dup2\n      gt\n      iszero\n      tag_89\n      jumpi\n      tag_90\n      tag_91\n      jump\t// in\n    tag_90:\n    tag_89:\n      0x01\n      dup2\n      gt\n      iszero\n      tag_92\n      jumpi\n      tag_93\n      tag_91\n      jump\t// in\n    tag_93:\n    tag_92:\n      dup2\n      mstore\n      pop\n      pop\n        /* \"contracts/OrderBook.sol\":1581:1594  State.pending */\n      0x00\n        /* \"contracts/OrderBook.sol\":1565:1594  _order.state == State.pending */\n      0x01\n      dup2\n      gt\n      iszero\n      tag_95\n      jumpi\n      tag_96\n      tag_91\n      jump\t// in\n    tag_96:\n    tag_95:\n        /* \"contracts/OrderBook.sol\":1565:1571  _order */\n      dup2\n        /* \"contracts/OrderBook.sol\":1565:1577  _order.state */\n      0x60\n      add\n      mload\n        /* \"contracts/OrderBook.sol\":1565:1594  _order.state == State.pending */\n      0x01\n      dup2\n      gt\n      iszero\n      tag_97\n      jumpi\n      tag_98\n      tag_91\n      jump\t// in\n    tag_98:\n    tag_97:\n      eq\n        /* \"contracts/OrderBook.sol\":1557:1612  require(_order.state == State.pending, \"Order Pending\") */\n      tag_99\n      jumpi\n      mload(0x40)\n      0x08c379a000000000000000000000000000000000000000000000000000000000\n      dup2\n      mstore\n      0x04\n      add\n      tag_100\n      swap1\n      tag_101\n      jump\t// in\n    tag_100:\n      mload(0x40)\n      dup1\n      swap2\n      sub\n      swap1\n      revert\n    tag_99:\n        /* \"contracts/OrderBook.sol\":4819:4826  askBook */\n      0x03\n        /* \"contracts/OrderBook.sol\":4827:4832  askId */\n      dup3\n        /* \"contracts/OrderBook.sol\":4819:4833  askBook[askId] */\n      dup2\n      sload\n      dup2\n      lt\n      tag_102\n      jumpi\n      tag_103\n      tag_78\n      jump\t// in\n    tag_103:\n    tag_102:\n      swap1\n      0x00\n      mstore\n      keccak256(0x00, 0x20)\n      swap1\n      0x04\n      mul\n      add\n        /* \"contracts/OrderBook.sol\":1636:1784  modifier isAuthorised(order memory _order, address sender) {... */\n      mload(0x40)\n      dup1\n      0x80\n      add\n      0x40\n      mstore\n      swap1\n      dup2\n      0x00\n      dup3\n      add\n      0x00\n      swap1\n      sload\n      swap1\n      0x0100\n      exp\n      swap1\n      div\n      0xffffffffffffffffffffffffffffffffffffffff\n      and\n      0xffffffffffffffffffffffffffffffffffffffff\n      and\n      0xffffffffffffffffffffffffffffffffffffffff\n      and\n      dup2\n      mstore\n      0x20\n      add\n      0x01\n      dup3\n      add\n      sload\n      dup2\n      mstore\n      0x20\n      add\n      0x02\n      dup3\n      add\n      sload\n      dup2\n      mstore\n      0x20\n      add\n      0x03\n      dup3\n      add\n      0x00\n      swap1\n      sload\n      swap1\n      0x0100\n      exp\n      swap1\n      div\n      0xff\n      and\n      0x01\n      dup2\n      gt\n      iszero\n      tag_105\n      jumpi\n      tag_106\n      tag_91\n      jump\t// in\n    tag_106:\n    tag_105:\n      0x01\n      dup2\n      gt\n      iszero\n      tag_107\n      jumpi\n      tag_108\n      tag_91\n      jump\t// in\n    tag_108:\n    tag_107:\n      dup2\n      mstore\n      pop\n      pop\n        /* \"contracts/OrderBook.sol\":4835:4845  msg.sender */\n      caller\n        /* \"contracts/OrderBook.sol\":1740:1746  sender */\n      dup1\n        /* \"contracts/OrderBook.sol\":1713:1747  _order.customer == payable(sender) */\n      0xffffffffffffffffffffffffffffffffffffffff\n      and\n        /* \"contracts/OrderBook.sol\":1713:1719  _order */\n      dup3\n        /* \"contracts/OrderBook.sol\":1713:1728  _order.customer */\n      0x00\n      add\n      mload\n        /* \"contracts/OrderBook.sol\":1713:1747  _order.customer == payable(sender) */\n      0xffffffffffffffffffffffffffffffffffffffff\n      and\n      eq\n        /* \"contracts/OrderBook.sol\":1705:1766  require(_order.customer == payable(sender), \"Not Authorised\") */\n      tag_110\n      jumpi\n      mload(0x40)\n      0x08c379a000000000000000000000000000000000000000000000000000000000\n      dup2\n      mstore\n      0x04\n      add\n      tag_111\n      swap1\n      tag_112\n      jump\t// in\n    tag_111:\n      mload(0x40)\n      dup1\n      swap2\n      sub\n      swap1\n      revert\n    tag_110:\n        /* \"contracts/OrderBook.sol\":4864:4871  askBook */\n      0x03\n        /* \"contracts/OrderBook.sol\":4872:4877  askId */\n      dup5\n        /* \"contracts/OrderBook.sol\":4864:4878  askBook[askId] */\n      dup2\n      sload\n      dup2\n      lt\n      tag_114\n      jumpi\n      tag_115\n      tag_78\n      jump\t// in\n    tag_115:\n    tag_114:\n      swap1\n      0x00\n      mstore\n      keccak256(0x00, 0x20)\n      swap1\n      0x04\n      mul\n      add\n      0x00\n        /* \"contracts/OrderBook.sol\":4857:4878  delete askBook[askId] */\n      dup1\n      dup3\n      add\n      exp(0x0100, 0x00)\n      dup2\n      sload\n      swap1\n      0xffffffffffffffffffffffffffffffffffffffff\n      mul\n      not\n      and\n      swap1\n      sstore\n      0x01\n      dup3\n      add\n      0x00\n      swap1\n      sstore\n      0x02\n      dup3\n      add\n      0x00\n      swap1\n      sstore\n      0x03\n      dup3\n      add\n      exp(0x0100, 0x00)\n      dup2\n      sload\n      swap1\n      0xff\n      mul\n      not\n      and\n      swap1\n      sstore\n      pop\n      pop\n        /* \"contracts/OrderBook.sol\":4888:4897  sortAsk() */\n      tag_117\n        /* \"contracts/OrderBook.sol\":4888:4895  sortAsk */\n      tag_118\n        /* \"contracts/OrderBook.sol\":4888:4897  sortAsk() */\n      jump\t// in\n    tag_117:\n        /* \"contracts/OrderBook.sol\":4918:4937  askCancelled(askId) */\n      0x48d3043fff66c1aee14954ac5aa463b0297fb08c9b60ee00486fb3387bb58aac\n        /* \"contracts/OrderBook.sol\":4931:4936  askId */\n      dup5\n        /* \"contracts/OrderBook.sol\":4918:4937  askCancelled(askId) */\n      mload(0x40)\n      tag_119\n      swap2\n      swap1\n      tag_30\n      jump\t// in\n    tag_119:\n      mload(0x40)\n      dup1\n      swap2\n      sub\n      swap1\n      log1\n        /* \"contracts/OrderBook.sol\":1622:1623  _ */\n      pop\n      pop\n        /* \"contracts/OrderBook.sol\":4741:4944  function cancelAsk (uint askId) public isPending(askBook[askId]) isAuthorised(askBook[askId], msg.sender) {... */\n      pop\n      pop\n      jump\t// out\n        /* \"contracts/OrderBook.sol\":5962:6063  function getBidValue (uint id) public view returns(uint256) {... */\n    tag_28:\n        /* \"contracts/OrderBook.sol\":6013:6020  uint256 */\n      0x00\n        /* \"contracts/OrderBook.sol\":6039:6046  bidBook */\n      0x02\n        /* \"contracts/OrderBook.sol\":6047:6049  id */\n      dup3\n        /* \"contracts/OrderBook.sol\":6039:6050  bidBook[id] */\n      dup2\n      sload\n      dup2\n      lt\n      tag_121\n      jumpi\n      tag_122\n      tag_78\n      jump\t// in\n    tag_122:\n    tag_121:\n      swap1\n      0x00\n      mstore\n      keccak256(0x00, 0x20)\n      swap1\n      0x04\n      mul\n      add\n        /* \"contracts/OrderBook.sol\":6039:6056  bidBook[id].value */\n      0x01\n      add\n      sload\n        /* \"contracts/OrderBook.sol\":6032:6056  return bidBook[id].value */\n      swap1\n      pop\n        /* \"contracts/OrderBook.sol\":5962:6063  function getBidValue (uint id) public view returns(uint256) {... */\n      swap2\n      swap1\n      pop\n      jump\t// out\n        /* \"contracts/OrderBook.sol\":4950:5041  function fetchAllBid() public view returns (order[] memory) {... */\n    tag_33:\n        /* \"contracts/OrderBook.sol\":4994:5008  order[] memory */\n      0x60\n        /* \"contracts/OrderBook.sol\":5027:5034  bidBook */\n      0x02\n        /* \"contracts/OrderBook.sol\":5020:5034  return bidBook */\n      dup1\n      sload\n      dup1\n      0x20\n      mul\n      0x20\n      add\n      mload(0x40)\n      swap1\n      dup2\n      add\n      0x40\n      mstore\n      dup1\n      swap3\n      swap2\n      swap1\n      dup2\n      dup2\n      mstore\n      0x20\n      add\n      0x00\n      swap1\n    tag_125:\n      dup3\n      dup3\n      lt\n      iszero\n      tag_126\n      jumpi\n      dup4\n      dup3\n      swap1\n      0x00\n      mstore\n      keccak256(0x00, 0x20)\n      swap1\n      0x04\n      mul\n      add\n      mload(0x40)\n      dup1\n      0x80\n      add\n      0x40\n      mstore\n      swap1\n      dup2\n      0x00\n      dup3\n      add\n      0x00\n      swap1\n      sload\n      swap1\n      0x0100\n      exp\n      swap1\n      div\n      0xffffffffffffffffffffffffffffffffffffffff\n      and\n      0xffffffffffffffffffffffffffffffffffffffff\n      and\n      0xffffffffffffffffffffffffffffffffffffffff\n      and\n      dup2\n      mstore\n      0x20\n      add\n      0x01\n      dup3\n      add\n      sload\n      dup2\n      mstore\n      0x20\n      add\n      0x02\n      dup3\n      add\n      sload\n      dup2\n      mstore\n      0x20\n      add\n      0x03\n      dup3\n      add\n      0x00\n      swap1\n      sload\n      swap1\n      0x0100\n      exp\n      swap1\n      div\n      0xff\n      and\n      0x01\n      dup2\n      gt\n      iszero\n      tag_128\n      jumpi\n      tag_129\n      tag_91\n      jump\t// in\n    tag_129:\n    tag_128:\n      0x01\n      dup2\n      gt\n      iszero\n      tag_130\n      jumpi\n      tag_131\n      tag_91\n      jump\t// in\n    tag_131:\n    tag_130:\n      dup2\n      mstore\n      pop\n      pop\n      dup2\n      mstore\n      0x20\n      add\n      swap1\n      0x01\n      add\n      swap1\n      jump(tag_125)\n    tag_126:\n      pop\n      pop\n      pop\n      pop\n      swap1\n      pop\n        /* \"contracts/OrderBook.sol\":4950:5041  function fetchAllBid() public view returns (order[] memory) {... */\n      swap1\n      jump\t// out\n        /* \"contracts/OrderBook.sol\":5722:5836  function getBidAddress (uint id) public view returns(address payable) {... */\n    tag_39:\n        /* \"contracts/OrderBook.sol\":5775:5790  address payable */\n      0x00\n        /* \"contracts/OrderBook.sol\":5809:5816  bidBook */\n      0x02\n        /* \"contracts/OrderBook.sol\":5817:5819  id */\n      dup3\n        /* \"contracts/OrderBook.sol\":5809:5820  bidBook[id] */\n      dup2\n      sload\n      dup2\n      lt\n      tag_133\n      jumpi\n      tag_134\n      tag_78\n      jump\t// in\n    tag_134:\n    tag_133:\n      swap1\n      0x00\n      mstore\n      keccak256(0x00, 0x20)\n      swap1\n      0x04\n      mul\n      add\n        /* \"contracts/OrderBook.sol\":5809:5829  bidBook[id].customer */\n      0x00\n      add\n      0x00\n      swap1\n      sload\n      swap1\n      0x0100\n      exp\n      swap1\n      div\n      0xffffffffffffffffffffffffffffffffffffffff\n      and\n        /* \"contracts/OrderBook.sol\":5802:5829  return bidBook[id].customer */\n      swap1\n      pop\n        /* \"contracts/OrderBook.sol\":5722:5836  function getBidAddress (uint id) public view returns(address payable) {... */\n      swap2\n      swap1\n      pop\n      jump\t// out\n        /* \"contracts/OrderBook.sol\":5842:5956  function getAskAddress (uint id) public view returns(address payable) {... */\n    tag_45:\n        /* \"contracts/OrderBook.sol\":5895:5910  address payable */\n      0x00\n        /* \"contracts/OrderBook.sol\":5929:5936  askBook */\n      0x03\n        /* \"contracts/OrderBook.sol\":5937:5939  id */\n      dup3\n        /* \"contracts/OrderBook.sol\":5929:5940  askBook[id] */\n      dup2\n      sload\n      dup2\n      lt\n      tag_137\n      jumpi\n      tag_138\n      tag_78\n      jump\t// in\n    tag_138:\n    tag_137:\n      swap1\n      0x00\n      mstore\n      keccak256(0x00, 0x20)\n      swap1\n      0x04\n      mul\n      add\n        /* \"contracts/OrderBook.sol\":5929:5949  askBook[id].customer */\n      0x00\n      add\n      0x00\n      swap1\n      sload\n      swap1\n      0x0100\n      exp\n      swap1\n      div\n      0xffffffffffffffffffffffffffffffffffffffff\n      and\n        /* \"contracts/OrderBook.sol\":5922:5949  return askBook[id].customer */\n      swap1\n      pop\n        /* \"contracts/OrderBook.sol\":5842:5956  function getAskAddress (uint id) public view returns(address payable) {... */\n      swap2\n      swap1\n      pop\n      jump\t// out\n        /* \"contracts/OrderBook.sol\":4268:4735  function placeAsk (uint256 price) public payable {... */\n    tag_49:\n        /* \"contracts/OrderBook.sol\":4344:4345  0 */\n      0x00\n        /* \"contracts/OrderBook.sol\":4335:4340  price */\n      dup2\n        /* \"contracts/OrderBook.sol\":4335:4345  price >= 0 */\n      lt\n      iszero\n        /* \"contracts/OrderBook.sol\":4327:4381  require(price >= 0, \"price value must be more than 0\") */\n      tag_141\n      jumpi\n      mload(0x40)\n      0x08c379a000000000000000000000000000000000000000000000000000000000\n      dup2\n      mstore\n      0x04\n      add\n      tag_142\n      swap1\n      tag_143\n      jump\t// in\n    tag_142:\n      mload(0x40)\n      dup1\n      swap2\n      sub\n      swap1\n      revert\n    tag_141:\n        /* \"contracts/OrderBook.sol\":4412:4417  price */\n      dup1\n        /* \"contracts/OrderBook.sol\":4399:4408  msg.value */\n      callvalue\n        /* \"contracts/OrderBook.sol\":4399:4417  msg.value >= price */\n      lt\n      iszero\n        /* \"contracts/OrderBook.sol\":4391:4452  require(msg.value >= price, \"Not enough blance to place ask\") */\n      tag_144\n      jumpi\n      mload(0x40)\n      0x08c379a000000000000000000000000000000000000000000000000000000000\n      dup2\n      mstore\n      0x04\n      add\n      tag_145\n      swap1\n      tag_146\n      jump\t// in\n    tag_145:\n      mload(0x40)\n      dup1\n      swap2\n      sub\n      swap1\n      revert\n    tag_144:\n        /* \"contracts/OrderBook.sol\":4462:4474  uint256 time */\n      0x00\n        /* \"contracts/OrderBook.sol\":4477:4492  block.timestamp */\n      timestamp\n        /* \"contracts/OrderBook.sol\":4462:4492  uint256 time = block.timestamp */\n      swap1\n      pop\n        /* \"contracts/OrderBook.sol\":4502:4521  order memory newBid */\n      0x00\n        /* \"contracts/OrderBook.sol\":4524:4575  order(payable(msg.sender),price,time,State.pending) */\n      mload(0x40)\n      dup1\n      0x80\n      add\n      0x40\n      mstore\n      dup1\n        /* \"contracts/OrderBook.sol\":4538:4548  msg.sender */\n      caller\n        /* \"contracts/OrderBook.sol\":4524:4575  order(payable(msg.sender),price,time,State.pending) */\n      0xffffffffffffffffffffffffffffffffffffffff\n      and\n      dup2\n      mstore\n      0x20\n      add\n        /* \"contracts/OrderBook.sol\":4550:4555  price */\n      dup5\n        /* \"contracts/OrderBook.sol\":4524:4575  order(payable(msg.sender),price,time,State.pending) */\n      dup2\n      mstore\n      0x20\n      add\n        /* \"contracts/OrderBook.sol\":4556:4560  time */\n      dup4\n        /* \"contracts/OrderBook.sol\":4524:4575  order(payable(msg.sender),price,time,State.pending) */\n      dup2\n      mstore\n      0x20\n      add\n        /* \"contracts/OrderBook.sol\":4561:4574  State.pending */\n      0x00\n        /* \"contracts/OrderBook.sol\":4524:4575  order(payable(msg.sender),price,time,State.pending) */\n      0x01\n      dup2\n      gt\n      iszero\n      tag_147\n      jumpi\n      tag_148\n      tag_91\n      jump\t// in\n    tag_148:\n    tag_147:\n      dup2\n      mstore\n      pop\n        /* \"contracts/OrderBook.sol\":4502:4575  order memory newBid = order(payable(msg.sender),price,time,State.pending) */\n      swap1\n      pop\n        /* \"contracts/OrderBook.sol\":4585:4592  askBook */\n      0x03\n        /* \"contracts/OrderBook.sol\":4598:4604  newBid */\n      dup2\n        /* \"contracts/OrderBook.sol\":4585:4605  askBook.push(newBid) */\n      swap1\n      dup1\n      0x01\n      dup2\n      sload\n      add\n      dup1\n      dup3\n      sstore\n      dup1\n      swap2\n      pop\n      pop\n      0x01\n      swap1\n      sub\n      swap1\n      0x00\n      mstore\n      keccak256(0x00, 0x20)\n      swap1\n      0x04\n      mul\n      add\n      0x00\n      swap1\n      swap2\n      swap1\n      swap2\n      swap1\n      swap2\n      pop\n      0x00\n      dup3\n      add\n      mload\n      dup2\n      0x00\n      add\n      exp(0x0100, 0x00)\n      dup2\n      sload\n      dup2\n      0xffffffffffffffffffffffffffffffffffffffff\n      mul\n      not\n      and\n      swap1\n      dup4\n      0xffffffffffffffffffffffffffffffffffffffff\n      and\n      mul\n      or\n      swap1\n      sstore\n      pop\n      0x20\n      dup3\n      add\n      mload\n      dup2\n      0x01\n      add\n      sstore\n      0x40\n      dup3\n      add\n      mload\n      dup2\n      0x02\n      add\n      sstore\n      0x60\n      dup3\n      add\n      mload\n      dup2\n      0x03\n      add\n      exp(0x0100, 0x00)\n      dup2\n      sload\n      dup2\n      0xff\n      mul\n      not\n      and\n      swap1\n      dup4\n      0x01\n      dup2\n      gt\n      iszero\n      tag_150\n      jumpi\n      tag_151\n      tag_91\n      jump\t// in\n    tag_151:\n    tag_150:\n      mul\n      or\n      swap1\n      sstore\n      pop\n      pop\n      pop\n        /* \"contracts/OrderBook.sol\":4615:4621  _owner */\n      0x00\n      dup1\n      sload\n      swap1\n      0x0100\n      exp\n      swap1\n      div\n      0xffffffffffffffffffffffffffffffffffffffff\n      and\n        /* \"contracts/OrderBook.sol\":4615:4630  _owner.transfer */\n      0xffffffffffffffffffffffffffffffffffffffff\n      and\n        /* \"contracts/OrderBook.sol\":4615:4667  _owner.transfer(msg.value  * (100-commission) / 100) */\n      0x08fc\n        /* \"contracts/OrderBook.sol\":4663:4666  100 */\n      0x64\n        /* \"contracts/OrderBook.sol\":4649:4659  commission */\n      sload(0x01)\n        /* \"contracts/OrderBook.sol\":4645:4648  100 */\n      0x64\n        /* \"contracts/OrderBook.sol\":4645:4659  100-commission */\n      tag_152\n      swap2\n      swap1\n      tag_153\n      jump\t// in\n    tag_152:\n        /* \"contracts/OrderBook.sol\":4631:4640  msg.value */\n      callvalue\n        /* \"contracts/OrderBook.sol\":4631:4660  msg.value  * (100-commission) */\n      tag_154\n      swap2\n      swap1\n      tag_155\n      jump\t// in\n    tag_154:\n        /* \"contracts/OrderBook.sol\":4631:4666  msg.value  * (100-commission) / 100 */\n      tag_156\n      swap2\n      swap1\n      tag_157\n      jump\t// in\n    tag_156:\n        /* \"contracts/OrderBook.sol\":4615:4667  _owner.transfer(msg.value  * (100-commission) / 100) */\n      swap1\n      dup2\n      iszero\n      mul\n      swap1\n      mload(0x40)\n      0x00\n      mload(0x40)\n      dup1\n      dup4\n      sub\n      dup2\n      dup6\n      dup9\n      dup9\n      call\n      swap4\n      pop\n      pop\n      pop\n      pop\n      iszero\n      dup1\n      iszero\n      tag_159\n      jumpi\n      returndatasize\n      0x00\n      dup1\n      returndatacopy\n      revert(0x00, returndatasize)\n    tag_159:\n      pop\n        /* \"contracts/OrderBook.sol\":4682:4728  askPlaced(msg.sender,price,time,State.pending) */\n      0xc2125a7f3edfeff7a3bbcfe393c5aa3a6589585d4a7ee70db48c34f67c8209e2\n        /* \"contracts/OrderBook.sol\":4692:4702  msg.sender */\n      caller\n        /* \"contracts/OrderBook.sol\":4703:4708  price */\n      dup5\n        /* \"contracts/OrderBook.sol\":4709:4713  time */\n      dup5\n        /* \"contracts/OrderBook.sol\":4714:4727  State.pending */\n      0x00\n        /* \"contracts/OrderBook.sol\":4682:4728  askPlaced(msg.sender,price,time,State.pending) */\n      mload(0x40)\n      tag_160\n      swap5\n      swap4\n      swap3\n      swap2\n      swap1\n      tag_161\n      jump\t// in\n    tag_160:\n      mload(0x40)\n      dup1\n      swap2\n      sub\n      swap1\n      log1\n        /* \"contracts/OrderBook.sol\":4317:4735  {... */\n      pop\n      pop\n        /* \"contracts/OrderBook.sol\":4268:4735  function placeAsk (uint256 price) public payable {... */\n      pop\n      jump\t// out\n        /* \"contracts/OrderBook.sol\":4065:4262  function cancelBid (uint bidId) public isPending(bidBook[bidId]) isAuthorised(bidBook[bidId], msg.sender) {... */\n    tag_53:\n        /* \"contracts/OrderBook.sol\":4114:4121  bidBook */\n      0x02\n        /* \"contracts/OrderBook.sol\":4122:4127  bidId */\n      dup2\n        /* \"contracts/OrderBook.sol\":4114:4128  bidBook[bidId] */\n      dup2\n      sload\n      dup2\n      lt\n      tag_162\n      jumpi\n      tag_163\n      tag_78\n      jump\t// in\n    tag_163:\n    tag_162:\n      swap1\n      0x00\n      mstore\n      keccak256(0x00, 0x20)\n      swap1\n      0x04\n      mul\n      add\n        /* \"contracts/OrderBook.sol\":1507:1630  modifier isPending(order memory _order) {... */\n      mload(0x40)\n      dup1\n      0x80\n      add\n      0x40\n      mstore\n      swap1\n      dup2\n      0x00\n      dup3\n      add\n      0x00\n      swap1\n      sload\n      swap1\n      0x0100\n      exp\n      swap1\n      div\n      0xffffffffffffffffffffffffffffffffffffffff\n      and\n      0xffffffffffffffffffffffffffffffffffffffff\n      and\n      0xffffffffffffffffffffffffffffffffffffffff\n      and\n      dup2\n      mstore\n      0x20\n      add\n      0x01\n      dup3\n      add\n      sload\n      dup2\n      mstore\n      0x20\n      add\n      0x02\n      dup3\n      add\n      sload\n      dup2\n      mstore\n      0x20\n      add\n      0x03\n      dup3\n      add\n      0x00\n      swap1\n      sload\n      swap1\n      0x0100\n      exp\n      swap1\n      div\n      0xff\n      and\n      0x01\n      dup2\n      gt\n      iszero\n      tag_165\n      jumpi\n      tag_166\n      tag_91\n      jump\t// in\n    tag_166:\n    tag_165:\n      0x01\n      dup2\n      gt\n      iszero\n      tag_167\n      jumpi\n      tag_168\n      tag_91\n      jump\t// in\n    tag_168:\n    tag_167:\n      dup2\n      mstore\n      pop\n      pop\n        /* \"contracts/OrderBook.sol\":1581:1594  State.pending */\n      0x00\n        /* \"contracts/OrderBook.sol\":1565:1594  _order.state == State.pending */\n      0x01\n      dup2\n      gt\n      iszero\n      tag_170\n      jumpi\n      tag_171\n      tag_91\n      jump\t// in\n    tag_171:\n    tag_170:\n        /* \"contracts/OrderBook.sol\":1565:1571  _order */\n      dup2\n        /* \"contracts/OrderBook.sol\":1565:1577  _order.state */\n      0x60\n      add\n      mload\n        /* \"contracts/OrderBook.sol\":1565:1594  _order.state == State.pending */\n      0x01\n      dup2\n      gt\n      iszero\n      tag_172\n      jumpi\n      tag_173\n      tag_91\n      jump\t// in\n    tag_173:\n    tag_172:\n      eq\n        /* \"contracts/OrderBook.sol\":1557:1612  require(_order.state == State.pending, \"Order Pending\") */\n      tag_174\n      jumpi\n      mload(0x40)\n      0x08c379a000000000000000000000000000000000000000000000000000000000\n      dup2\n      mstore\n      0x04\n      add\n      tag_175\n      swap1\n      tag_101\n      jump\t// in\n    tag_175:\n      mload(0x40)\n      dup1\n      swap2\n      sub\n      swap1\n      revert\n    tag_174:\n        /* \"contracts/OrderBook.sol\":4143:4150  bidBook */\n      0x02\n        /* \"contracts/OrderBook.sol\":4151:4156  bidId */\n      dup3\n        /* \"contracts/OrderBook.sol\":4143:4157  bidBook[bidId] */\n      dup2\n      sload\n      dup2\n      lt\n      tag_176\n      jumpi\n      tag_177\n      tag_78\n      jump\t// in\n    tag_177:\n    tag_176:\n      swap1\n      0x00\n      mstore\n      keccak256(0x00, 0x20)\n      swap1\n      0x04\n      mul\n      add\n        /* \"contracts/OrderBook.sol\":1636:1784  modifier isAuthorised(order memory _order, address sender) {... */\n      mload(0x40)\n      dup1\n      0x80\n      add\n      0x40\n      mstore\n      swap1\n      dup2\n      0x00\n      dup3\n      add\n      0x00\n      swap1\n      sload\n      swap1\n      0x0100\n      exp\n      swap1\n      div\n      0xffffffffffffffffffffffffffffffffffffffff\n      and\n      0xffffffffffffffffffffffffffffffffffffffff\n      and\n      0xffffffffffffffffffffffffffffffffffffffff\n      and\n      dup2\n      mstore\n      0x20\n      add\n      0x01\n      dup3\n      add\n      sload\n      dup2\n      mstore\n      0x20\n      add\n      0x02\n      dup3\n      add\n      sload\n      dup2\n      mstore\n      0x20\n      add\n      0x03\n      dup3\n      add\n      0x00\n      swap1\n      sload\n      swap1\n      0x0100\n      exp\n      swap1\n      div\n      0xff\n      and\n      0x01\n      dup2\n      gt\n      iszero\n      tag_179\n      jumpi\n      tag_180\n      tag_91\n      jump\t// in\n    tag_180:\n    tag_179:\n      0x01\n      dup2\n      gt\n      iszero\n      tag_181\n      jumpi\n      tag_182\n      tag_91\n      jump\t// in\n    tag_182:\n    tag_181:\n      dup2\n      mstore\n      pop\n      pop\n        /* \"contracts/OrderBook.sol\":4159:4169  msg.sender */\n      caller\n        /* \"contracts/OrderBook.sol\":1740:1746  sender */\n      dup1\n        /* \"contracts/OrderBook.sol\":1713:1747  _order.customer == payable(sender) */\n      0xffffffffffffffffffffffffffffffffffffffff\n      and\n        /* \"contracts/OrderBook.sol\":1713:1719  _order */\n      dup3\n        /* \"contracts/OrderBook.sol\":1713:1728  _order.customer */\n      0x00\n      add\n      mload\n        /* \"contracts/OrderBook.sol\":1713:1747  _order.customer == payable(sender) */\n      0xffffffffffffffffffffffffffffffffffffffff\n      and\n      eq\n        /* \"contracts/OrderBook.sol\":1705:1766  require(_order.customer == payable(sender), \"Not Authorised\") */\n      tag_184\n      jumpi\n      mload(0x40)\n      0x08c379a000000000000000000000000000000000000000000000000000000000\n      dup2\n      mstore\n      0x04\n      add\n      tag_185\n      swap1\n      tag_112\n      jump\t// in\n    tag_185:\n      mload(0x40)\n      dup1\n      swap2\n      sub\n      swap1\n      revert\n    tag_184:\n        /* \"contracts/OrderBook.sol\":4188:4195  bidBook */\n      0x02\n        /* \"contracts/OrderBook.sol\":4196:4201  bidId */\n      dup5\n        /* \"contracts/OrderBook.sol\":4188:4202  bidBook[bidId] */\n      dup2\n      sload\n      dup2\n      lt\n      tag_187\n      jumpi\n      tag_188\n      tag_78\n      jump\t// in\n    tag_188:\n    tag_187:\n      swap1\n      0x00\n      mstore\n      keccak256(0x00, 0x20)\n      swap1\n      0x04\n      mul\n      add\n      0x00\n        /* \"contracts/OrderBook.sol\":4181:4202  delete bidBook[bidId] */\n      dup1\n      dup3\n      add\n      exp(0x0100, 0x00)\n      dup2\n      sload\n      swap1\n      0xffffffffffffffffffffffffffffffffffffffff\n      mul\n      not\n      and\n      swap1\n      sstore\n      0x01\n      dup3\n      add\n      0x00\n      swap1\n      sstore\n      0x02\n      dup3\n      add\n      0x00\n      swap1\n      sstore\n      0x03\n      dup3\n      add\n      exp(0x0100, 0x00)\n      dup2\n      sload\n      swap1\n      0xff\n      mul\n      not\n      and\n      swap1\n      sstore\n      pop\n      pop\n        /* \"contracts/OrderBook.sol\":4212:4221  sortBid() */\n      tag_190\n        /* \"contracts/OrderBook.sol\":4212:4219  sortBid */\n      tag_191\n        /* \"contracts/OrderBook.sol\":4212:4221  sortBid() */\n      jump\t// in\n    tag_190:\n        /* \"contracts/OrderBook.sol\":4236:4255  bidCancelled(bidId) */\n      0xc845a6832afa0a4048dd70bbba2186093508a6b63a8d5d70a508f819fef257f8\n        /* \"contracts/OrderBook.sol\":4249:4254  bidId */\n      dup5\n        /* \"contracts/OrderBook.sol\":4236:4255  bidCancelled(bidId) */\n      mload(0x40)\n      tag_192\n      swap2\n      swap1\n      tag_30\n      jump\t// in\n    tag_192:\n      mload(0x40)\n      dup1\n      swap2\n      sub\n      swap1\n      log1\n        /* \"contracts/OrderBook.sol\":1622:1623  _ */\n      pop\n      pop\n        /* \"contracts/OrderBook.sol\":4065:4262  function cancelBid (uint bidId) public isPending(bidBook[bidId]) isAuthorised(bidBook[bidId], msg.sender) {... */\n      pop\n      pop\n      jump\t// out\n        /* \"contracts/OrderBook.sol\":3593:4059  function placeBid (uint256 price) public payable {... */\n    tag_56:\n        /* \"contracts/OrderBook.sol\":3669:3670  0 */\n      0x00\n        /* \"contracts/OrderBook.sol\":3660:3665  price */\n      dup2\n        /* \"contracts/OrderBook.sol\":3660:3670  price >= 0 */\n      lt\n      iszero\n        /* \"contracts/OrderBook.sol\":3652:3706  require(price >= 0, \"price value must be more than 0\") */\n      tag_194\n      jumpi\n      mload(0x40)\n      0x08c379a000000000000000000000000000000000000000000000000000000000\n      dup2\n      mstore\n      0x04\n      add\n      tag_195\n      swap1\n      tag_143\n      jump\t// in\n    tag_195:\n      mload(0x40)\n      dup1\n      swap2\n      sub\n      swap1\n      revert\n    tag_194:\n        /* \"contracts/OrderBook.sol\":3737:3742  price */\n      dup1\n        /* \"contracts/OrderBook.sol\":3724:3733  msg.value */\n      callvalue\n        /* \"contracts/OrderBook.sol\":3724:3742  msg.value >= price */\n      lt\n      iszero\n        /* \"contracts/OrderBook.sol\":3716:3777  require(msg.value >= price, \"Not enough blance to place bid\") */\n      tag_196\n      jumpi\n      mload(0x40)\n      0x08c379a000000000000000000000000000000000000000000000000000000000\n      dup2\n      mstore\n      0x04\n      add\n      tag_197\n      swap1\n      tag_198\n      jump\t// in\n    tag_197:\n      mload(0x40)\n      dup1\n      swap2\n      sub\n      swap1\n      revert\n    tag_196:\n        /* \"contracts/OrderBook.sol\":3787:3799  uint256 time */\n      0x00\n        /* \"contracts/OrderBook.sol\":3802:3817  block.timestamp */\n      timestamp\n        /* \"contracts/OrderBook.sol\":3787:3817  uint256 time = block.timestamp */\n      swap1\n      pop\n        /* \"contracts/OrderBook.sol\":3827:3846  order memory newBid */\n      0x00\n        /* \"contracts/OrderBook.sol\":3849:3900  order(payable(msg.sender),price,time,State.pending) */\n      mload(0x40)\n      dup1\n      0x80\n      add\n      0x40\n      mstore\n      dup1\n        /* \"contracts/OrderBook.sol\":3863:3873  msg.sender */\n      caller\n        /* \"contracts/OrderBook.sol\":3849:3900  order(payable(msg.sender),price,time,State.pending) */\n      0xffffffffffffffffffffffffffffffffffffffff\n      and\n      dup2\n      mstore\n      0x20\n      add\n        /* \"contracts/OrderBook.sol\":3875:3880  price */\n      dup5\n        /* \"contracts/OrderBook.sol\":3849:3900  order(payable(msg.sender),price,time,State.pending) */\n      dup2\n      mstore\n      0x20\n      add\n        /* \"contracts/OrderBook.sol\":3881:3885  time */\n      dup4\n        /* \"contracts/OrderBook.sol\":3849:3900  order(payable(msg.sender),price,time,State.pending) */\n      dup2\n      mstore\n      0x20\n      add\n        /* \"contracts/OrderBook.sol\":3886:3899  State.pending */\n      0x00\n        /* \"contracts/OrderBook.sol\":3849:3900  order(payable(msg.sender),price,time,State.pending) */\n      0x01\n      dup2\n      gt\n      iszero\n      tag_199\n      jumpi\n      tag_200\n      tag_91\n      jump\t// in\n    tag_200:\n    tag_199:\n      dup2\n      mstore\n      pop\n        /* \"contracts/OrderBook.sol\":3827:3900  order memory newBid = order(payable(msg.sender),price,time,State.pending) */\n      swap1\n      pop\n        /* \"contracts/OrderBook.sol\":3910:3917  bidBook */\n      0x02\n        /* \"contracts/OrderBook.sol\":3923:3929  newBid */\n      dup2\n        /* \"contracts/OrderBook.sol\":3910:3930  bidBook.push(newBid) */\n      swap1\n      dup1\n      0x01\n      dup2\n      sload\n      add\n      dup1\n      dup3\n      sstore\n      dup1\n      swap2\n      pop\n      pop\n      0x01\n      swap1\n      sub\n      swap1\n      0x00\n      mstore\n      keccak256(0x00, 0x20)\n      swap1\n      0x04\n      mul\n      add\n      0x00\n      swap1\n      swap2\n      swap1\n      swap2\n      swap1\n      swap2\n      pop\n      0x00\n      dup3\n      add\n      mload\n      dup2\n      0x00\n      add\n      exp(0x0100, 0x00)\n      dup2\n      sload\n      dup2\n      0xffffffffffffffffffffffffffffffffffffffff\n      mul\n      not\n      and\n      swap1\n      dup4\n      0xffffffffffffffffffffffffffffffffffffffff\n      and\n      mul\n      or\n      swap1\n      sstore\n      pop\n      0x20\n      dup3\n      add\n      mload\n      dup2\n      0x01\n      add\n      sstore\n      0x40\n      dup3\n      add\n      mload\n      dup2\n      0x02\n      add\n      sstore\n      0x60\n      dup3\n      add\n      mload\n      dup2\n      0x03\n      add\n      exp(0x0100, 0x00)\n      dup2\n      sload\n      dup2\n      0xff\n      mul\n      not\n      and\n      swap1\n      dup4\n      0x01\n      dup2\n      gt\n      iszero\n      tag_202\n      jumpi\n      tag_203\n      tag_91\n      jump\t// in\n    tag_203:\n    tag_202:\n      mul\n      or\n      swap1\n      sstore\n      pop\n      pop\n      pop\n        /* \"contracts/OrderBook.sol\":3940:3946  _owner */\n      0x00\n      dup1\n      sload\n      swap1\n      0x0100\n      exp\n      swap1\n      div\n      0xffffffffffffffffffffffffffffffffffffffff\n      and\n        /* \"contracts/OrderBook.sol\":3940:3955  _owner.transfer */\n      0xffffffffffffffffffffffffffffffffffffffff\n      and\n        /* \"contracts/OrderBook.sol\":3940:3991  _owner.transfer(msg.value * (100-commission) / 100) */\n      0x08fc\n        /* \"contracts/OrderBook.sol\":3987:3990  100 */\n      0x64\n        /* \"contracts/OrderBook.sol\":3973:3983  commission */\n      sload(0x01)\n        /* \"contracts/OrderBook.sol\":3969:3972  100 */\n      0x64\n        /* \"contracts/OrderBook.sol\":3969:3983  100-commission */\n      tag_204\n      swap2\n      swap1\n      tag_153\n      jump\t// in\n    tag_204:\n        /* \"contracts/OrderBook.sol\":3956:3965  msg.value */\n      callvalue\n        /* \"contracts/OrderBook.sol\":3956:3984  msg.value * (100-commission) */\n      tag_205\n      swap2\n      swap1\n      tag_155\n      jump\t// in\n    tag_205:\n        /* \"contracts/OrderBook.sol\":3956:3990  msg.value * (100-commission) / 100 */\n      tag_206\n      swap2\n      swap1\n      tag_157\n      jump\t// in\n    tag_206:\n        /* \"contracts/OrderBook.sol\":3940:3991  _owner.transfer(msg.value * (100-commission) / 100) */\n      swap1\n      dup2\n      iszero\n      mul\n      swap1\n      mload(0x40)\n      0x00\n      mload(0x40)\n      dup1\n      dup4\n      sub\n      dup2\n      dup6\n      dup9\n      dup9\n      call\n      swap4\n      pop\n      pop\n      pop\n      pop\n      iszero\n      dup1\n      iszero\n      tag_208\n      jumpi\n      returndatasize\n      0x00\n      dup1\n      returndatacopy\n      revert(0x00, returndatasize)\n    tag_208:\n      pop\n        /* \"contracts/OrderBook.sol\":4006:4052  bidPlaced(msg.sender,price,time,State.pending) */\n      0xa64806d6d5d480697a0b11c92b915a4ff7b93c0be28171d65d30041a0c360d04\n        /* \"contracts/OrderBook.sol\":4016:4026  msg.sender */\n      caller\n        /* \"contracts/OrderBook.sol\":4027:4032  price */\n      dup5\n        /* \"contracts/OrderBook.sol\":4033:4037  time */\n      dup5\n        /* \"contracts/OrderBook.sol\":4038:4051  State.pending */\n      0x00\n        /* \"contracts/OrderBook.sol\":4006:4052  bidPlaced(msg.sender,price,time,State.pending) */\n      mload(0x40)\n      tag_209\n      swap5\n      swap4\n      swap3\n      swap2\n      swap1\n      tag_161\n      jump\t// in\n    tag_209:\n      mload(0x40)\n      dup1\n      swap2\n      sub\n      swap1\n      log1\n        /* \"contracts/OrderBook.sol\":3642:4059  {... */\n      pop\n      pop\n        /* \"contracts/OrderBook.sol\":3593:4059  function placeBid (uint256 price) public payable {... */\n      pop\n      jump\t// out\n        /* \"contracts/OrderBook.sol\":5047:5138  function fetchAllAsk() public view returns (order[] memory) {... */\n    tag_59:\n        /* \"contracts/OrderBook.sol\":5091:5105  order[] memory */\n      0x60\n        /* \"contracts/OrderBook.sol\":5124:5131  askBook */\n      0x03\n        /* \"contracts/OrderBook.sol\":5117:5131  return askBook */\n      dup1\n      sload\n      dup1\n      0x20\n      mul\n      0x20\n      add\n      mload(0x40)\n      swap1\n      dup2\n      add\n      0x40\n      mstore\n      dup1\n      swap3\n      swap2\n      swap1\n      dup2\n      dup2\n      mstore\n      0x20\n      add\n      0x00\n      swap1\n    tag_211:\n      dup3\n      dup3\n      lt\n      iszero\n      tag_212\n      jumpi\n      dup4\n      dup3\n      swap1\n      0x00\n      mstore\n      keccak256(0x00, 0x20)\n      swap1\n      0x04\n      mul\n      add\n      mload(0x40)\n      dup1\n      0x80\n      add\n      0x40\n      mstore\n      swap1\n      dup2\n      0x00\n      dup3\n      add\n      0x00\n      swap1\n      sload\n      swap1\n      0x0100\n      exp\n      swap1\n      div\n      0xffffffffffffffffffffffffffffffffffffffff\n      and\n      0xffffffffffffffffffffffffffffffffffffffff\n      and\n      0xffffffffffffffffffffffffffffffffffffffff\n      and\n      dup2\n      mstore\n      0x20\n      add\n      0x01\n      dup3\n      add\n      sload\n      dup2\n      mstore\n      0x20\n      add\n      0x02\n      dup3\n      add\n      sload\n      dup2\n      mstore\n      0x20\n      add\n      0x03\n      dup3\n      add\n      0x00\n      swap1\n      sload\n      swap1\n      0x0100\n      exp\n      swap1\n      div\n      0xff\n      and\n      0x01\n      dup2\n      gt\n      iszero\n      tag_214\n      jumpi\n      tag_215\n      tag_91\n      jump\t// in\n    tag_215:\n    tag_214:\n      0x01\n      dup2\n      gt\n      iszero\n      tag_216\n      jumpi\n      tag_217\n      tag_91\n      jump\t// in\n    tag_217:\n    tag_216:\n      dup2\n      mstore\n      pop\n      pop\n      dup2\n      mstore\n      0x20\n      add\n      swap1\n      0x01\n      add\n      swap1\n      jump(tag_211)\n    tag_212:\n      pop\n      pop\n      pop\n      pop\n      swap1\n      pop\n        /* \"contracts/OrderBook.sol\":5047:5138  function fetchAllAsk() public view returns (order[] memory) {... */\n      swap1\n      jump\t// out\n        /* \"contracts/OrderBook.sol\":5144:5427  function fetchYourBidIds() public returns (uint[] memory) {... */\n    tag_63:\n        /* \"contracts/OrderBook.sol\":5187:5200  uint[] memory */\n      0x60\n        /* \"contracts/OrderBook.sol\":5212:5225  deleteArray() */\n      tag_219\n        /* \"contracts/OrderBook.sol\":5212:5223  deleteArray */\n      tag_72\n        /* \"contracts/OrderBook.sol\":5212:5225  deleteArray() */\n      jump\t// in\n    tag_219:\n        /* \"contracts/OrderBook.sol\":5240:5246  uint i */\n      0x00\n        /* \"contracts/OrderBook.sol\":5235:5397  for (uint i = 0; i < bidBook.length; i++) {... */\n    tag_220:\n        /* \"contracts/OrderBook.sol\":5256:5263  bidBook */\n      0x02\n        /* \"contracts/OrderBook.sol\":5256:5270  bidBook.length */\n      dup1\n      sload\n      swap1\n      pop\n        /* \"contracts/OrderBook.sol\":5252:5253  i */\n      dup2\n        /* \"contracts/OrderBook.sol\":5252:5270  i < bidBook.length */\n      lt\n        /* \"contracts/OrderBook.sol\":5235:5397  for (uint i = 0; i < bidBook.length; i++) {... */\n      iszero\n      tag_221\n      jumpi\n        /* \"contracts/OrderBook.sol\":5326:5336  msg.sender */\n      caller\n        /* \"contracts/OrderBook.sol\":5295:5337  bidBook[i].customer == payable(msg.sender) */\n      0xffffffffffffffffffffffffffffffffffffffff\n      and\n        /* \"contracts/OrderBook.sol\":5295:5302  bidBook */\n      0x02\n        /* \"contracts/OrderBook.sol\":5303:5304  i */\n      dup3\n        /* \"contracts/OrderBook.sol\":5295:5305  bidBook[i] */\n      dup2\n      sload\n      dup2\n      lt\n      tag_223\n      jumpi\n      tag_224\n      tag_78\n      jump\t// in\n    tag_224:\n    tag_223:\n      swap1\n      0x00\n      mstore\n      keccak256(0x00, 0x20)\n      swap1\n      0x04\n      mul\n      add\n        /* \"contracts/OrderBook.sol\":5295:5314  bidBook[i].customer */\n      0x00\n      add\n      0x00\n      swap1\n      sload\n      swap1\n      0x0100\n      exp\n      swap1\n      div\n      0xffffffffffffffffffffffffffffffffffffffff\n      and\n        /* \"contracts/OrderBook.sol\":5295:5337  bidBook[i].customer == payable(msg.sender) */\n      0xffffffffffffffffffffffffffffffffffffffff\n      and\n      sub\n        /* \"contracts/OrderBook.sol\":5291:5387  if (bidBook[i].customer == payable(msg.sender)) {... */\n      tag_226\n      jumpi\n        /* \"contracts/OrderBook.sol\":5357:5364  request */\n      0x04\n        /* \"contracts/OrderBook.sol\":5370:5371  i */\n      dup2\n        /* \"contracts/OrderBook.sol\":5357:5372  request.push(i) */\n      swap1\n      dup1\n      0x01\n      dup2\n      sload\n      add\n      dup1\n      dup3\n      sstore\n      dup1\n      swap2\n      pop\n      pop\n      0x01\n      swap1\n      sub\n      swap1\n      0x00\n      mstore\n      keccak256(0x00, 0x20)\n      add\n      0x00\n      swap1\n      swap2\n      swap1\n      swap2\n      swap1\n      swap2\n      pop\n      sstore\n        /* \"contracts/OrderBook.sol\":5291:5387  if (bidBook[i].customer == payable(msg.sender)) {... */\n    tag_226:\n        /* \"contracts/OrderBook.sol\":5272:5275  i++ */\n      dup1\n      dup1\n      tag_228\n      swap1\n      tag_83\n      jump\t// in\n    tag_228:\n      swap2\n      pop\n      pop\n        /* \"contracts/OrderBook.sol\":5235:5397  for (uint i = 0; i < bidBook.length; i++) {... */\n      jump(tag_220)\n    tag_221:\n      pop\n        /* \"contracts/OrderBook.sol\":5413:5420  request */\n      0x04\n        /* \"contracts/OrderBook.sol\":5406:5420  return request */\n      dup1\n      sload\n      dup1\n      0x20\n      mul\n      0x20\n      add\n      mload(0x40)\n      swap1\n      dup2\n      add\n      0x40\n      mstore\n      dup1\n      swap3\n      swap2\n      swap1\n      dup2\n      dup2\n      mstore\n      0x20\n      add\n      dup3\n      dup1\n      sload\n      dup1\n      iszero\n      tag_229\n      jumpi\n      0x20\n      mul\n      dup3\n      add\n      swap2\n      swap1\n      0x00\n      mstore\n      keccak256(0x00, 0x20)\n      swap1\n    tag_230:\n      dup2\n      sload\n      dup2\n      mstore\n      0x20\n      add\n      swap1\n      0x01\n      add\n      swap1\n      dup1\n      dup4\n      gt\n      tag_230\n      jumpi\n    tag_229:\n      pop\n      pop\n      pop\n      pop\n      pop\n      swap1\n      pop\n        /* \"contracts/OrderBook.sol\":5144:5427  function fetchYourBidIds() public returns (uint[] memory) {... */\n      swap1\n      jump\t// out\n        /* \"contracts/OrderBook.sol\":6069:6170  function getAskValue (uint id) public view returns(uint256) {... */\n    tag_68:\n        /* \"contracts/OrderBook.sol\":6120:6127  uint256 */\n      0x00\n        /* \"contracts/OrderBook.sol\":6146:6153  bidBook */\n      0x02\n        /* \"contracts/OrderBook.sol\":6154:6156  id */\n      dup3\n        /* \"contracts/OrderBook.sol\":6146:6157  bidBook[id] */\n      dup2\n      sload\n      dup2\n      lt\n      tag_232\n      jumpi\n      tag_233\n      tag_78\n      jump\t// in\n    tag_233:\n    tag_232:\n      swap1\n      0x00\n      mstore\n      keccak256(0x00, 0x20)\n      swap1\n      0x04\n      mul\n      add\n        /* \"contracts/OrderBook.sol\":6146:6163  bidBook[id].value */\n      0x01\n      add\n      sload\n        /* \"contracts/OrderBook.sol\":6139:6163  return bidBook[id].value */\n      swap1\n      pop\n        /* \"contracts/OrderBook.sol\":6069:6170  function getAskValue (uint id) public view returns(uint256) {... */\n      swap2\n      swap1\n      pop\n      jump\t// out\n        /* \"contracts/OrderBook.sol\":2069:2202  function deleteArray() internal {... */\n    tag_72:\n        /* \"contracts/OrderBook.sol\":2116:2122  uint i */\n      0x00\n        /* \"contracts/OrderBook.sol\":2111:2196  for (uint i = 0; i < request.length; i ++) {... */\n    tag_236:\n        /* \"contracts/OrderBook.sol\":2132:2139  request */\n      0x04\n        /* \"contracts/OrderBook.sol\":2132:2146  request.length */\n      dup1\n      sload\n      swap1\n      pop\n        /* \"contracts/OrderBook.sol\":2128:2129  i */\n      dup2\n        /* \"contracts/OrderBook.sol\":2128:2146  i < request.length */\n      lt\n        /* \"contracts/OrderBook.sol\":2111:2196  for (uint i = 0; i < request.length; i ++) {... */\n      iszero\n      tag_237\n      jumpi\n        /* \"contracts/OrderBook.sol\":2175:2182  request */\n      0x04\n        /* \"contracts/OrderBook.sol\":2183:2184  i */\n      dup2\n        /* \"contracts/OrderBook.sol\":2175:2185  request[i] */\n      dup2\n      sload\n      dup2\n      lt\n      tag_239\n      jumpi\n      tag_240\n      tag_78\n      jump\t// in\n    tag_240:\n    tag_239:\n      swap1\n      0x00\n      mstore\n      keccak256(0x00, 0x20)\n      add\n        /* \"contracts/OrderBook.sol\":2168:2185  delete request[i] */\n      0x00\n      swap1\n      sstore\n        /* \"contracts/OrderBook.sol\":2148:2152  i ++ */\n      dup1\n      dup1\n      tag_242\n      swap1\n      tag_83\n      jump\t// in\n    tag_242:\n      swap2\n      pop\n      pop\n        /* \"contracts/OrderBook.sol\":2111:2196  for (uint i = 0; i < request.length; i ++) {... */\n      jump(tag_236)\n    tag_237:\n      pop\n        /* \"contracts/OrderBook.sol\":2069:2202  function deleteArray() internal {... */\n      jump\t// out\n        /* \"contracts/OrderBook.sol\":1944:2063  function sortAsk() internal {... */\n    tag_118:\n        /* \"contracts/OrderBook.sol\":1981:2041  ascendingQuickSort(bidBook, int(0), int(bidBook.length - 1)) */\n      tag_244\n        /* \"contracts/OrderBook.sol\":2000:2007  bidBook */\n      0x02\n        /* \"contracts/OrderBook.sol\":1981:2041  ascendingQuickSort(bidBook, int(0), int(bidBook.length - 1)) */\n      dup1\n      sload\n      dup1\n      0x20\n      mul\n      0x20\n      add\n      mload(0x40)\n      swap1\n      dup2\n      add\n      0x40\n      mstore\n      dup1\n      swap3\n      swap2\n      swap1\n      dup2\n      dup2\n      mstore\n      0x20\n      add\n      0x00\n      swap1\n    tag_245:\n      dup3\n      dup3\n      lt\n      iszero\n      tag_246\n      jumpi\n      dup4\n      dup3\n      swap1\n      0x00\n      mstore\n      keccak256(0x00, 0x20)\n      swap1\n      0x04\n      mul\n      add\n      mload(0x40)\n      dup1\n      0x80\n      add\n      0x40\n      mstore\n      swap1\n      dup2\n      0x00\n      dup3\n      add\n      0x00\n      swap1\n      sload\n      swap1\n      0x0100\n      exp\n      swap1\n      div\n      0xffffffffffffffffffffffffffffffffffffffff\n      and\n      0xffffffffffffffffffffffffffffffffffffffff\n      and\n      0xffffffffffffffffffffffffffffffffffffffff\n      and\n      dup2\n      mstore\n      0x20\n      add\n      0x01\n      dup3\n      add\n      sload\n      dup2\n      mstore\n      0x20\n      add\n      0x02\n      dup3\n      add\n      sload\n      dup2\n      mstore\n      0x20\n      add\n      0x03\n      dup3\n      add\n      0x00\n      swap1\n      sload\n      swap1\n      0x0100\n      exp\n      swap1\n      div\n      0xff\n      and\n      0x01\n      dup2\n      gt\n      iszero\n      tag_248\n      jumpi\n      tag_249\n      tag_91\n      jump\t// in\n    tag_249:\n    tag_248:\n      0x01\n      dup2\n      gt\n      iszero\n      tag_250\n      jumpi\n      tag_251\n      tag_91\n      jump\t// in\n    tag_251:\n    tag_250:\n      dup2\n      mstore\n      pop\n      pop\n      dup2\n      mstore\n      0x20\n      add\n      swap1\n      0x01\n      add\n      swap1\n      jump(tag_245)\n    tag_246:\n      pop\n      pop\n      pop\n      pop\n        /* \"contracts/OrderBook.sol\":2013:2014  0 */\n      0x00\n        /* \"contracts/OrderBook.sol\":2038:2039  1 */\n      0x01\n        /* \"contracts/OrderBook.sol\":2021:2028  bidBook */\n      0x02\n        /* \"contracts/OrderBook.sol\":2021:2035  bidBook.length */\n      dup1\n      sload\n      swap1\n      pop\n        /* \"contracts/OrderBook.sol\":2021:2039  bidBook.length - 1 */\n      tag_252\n      swap2\n      swap1\n      tag_153\n      jump\t// in\n    tag_252:\n        /* \"contracts/OrderBook.sol\":1981:1999  ascendingQuickSort */\n      tag_253\n        /* \"contracts/OrderBook.sol\":1981:2041  ascendingQuickSort(bidBook, int(0), int(bidBook.length - 1)) */\n      jump\t// in\n    tag_244:\n        /* \"contracts/OrderBook.sol\":1944:2063  function sortAsk() internal {... */\n      jump\t// out\n        /* \"contracts/OrderBook.sol\":1818:1938  function sortBid() internal {... */\n    tag_191:\n        /* \"contracts/OrderBook.sol\":1855:1916  descendingQuickSort(bidBook, int(0), int(bidBook.length - 1)) */\n      tag_255\n        /* \"contracts/OrderBook.sol\":1875:1882  bidBook */\n      0x02\n        /* \"contracts/OrderBook.sol\":1855:1916  descendingQuickSort(bidBook, int(0), int(bidBook.length - 1)) */\n      dup1\n      sload\n      dup1\n      0x20\n      mul\n      0x20\n      add\n      mload(0x40)\n      swap1\n      dup2\n      add\n      0x40\n      mstore\n      dup1\n      swap3\n      swap2\n      swap1\n      dup2\n      dup2\n      mstore\n      0x20\n      add\n      0x00\n      swap1\n    tag_256:\n      dup3\n      dup3\n      lt\n      iszero\n      tag_257\n      jumpi\n      dup4\n      dup3\n      swap1\n      0x00\n      mstore\n      keccak256(0x00, 0x20)\n      swap1\n      0x04\n      mul\n      add\n      mload(0x40)\n      dup1\n      0x80\n      add\n      0x40\n      mstore\n      swap1\n      dup2\n      0x00\n      dup3\n      add\n      0x00\n      swap1\n      sload\n      swap1\n      0x0100\n      exp\n      swap1\n      div\n      0xffffffffffffffffffffffffffffffffffffffff\n      and\n      0xffffffffffffffffffffffffffffffffffffffff\n      and\n      0xffffffffffffffffffffffffffffffffffffffff\n      and\n      dup2\n      mstore\n      0x20\n      add\n      0x01\n      dup3\n      add\n      sload\n      dup2\n      mstore\n      0x20\n      add\n      0x02\n      dup3\n      add\n      sload\n      dup2\n      mstore\n      0x20\n      add\n      0x03\n      dup3\n      add\n      0x00\n      swap1\n      sload\n      swap1\n      0x0100\n      exp\n      swap1\n      div\n      0xff\n      and\n      0x01\n      dup2\n      gt\n      iszero\n      tag_259\n      jumpi\n      tag_260\n      tag_91\n      jump\t// in\n    tag_260:\n    tag_259:\n      0x01\n      dup2\n      gt\n      iszero\n      tag_261\n      jumpi\n      tag_262\n      tag_91\n      jump\t// in\n    tag_262:\n    tag_261:\n      dup2\n      mstore\n      pop\n      pop\n      dup2\n      mstore\n      0x20\n      add\n      swap1\n      0x01\n      add\n      swap1\n      jump(tag_256)\n    tag_257:\n      pop\n      pop\n      pop\n      pop\n        /* \"contracts/OrderBook.sol\":1888:1889  0 */\n      0x00\n        /* \"contracts/OrderBook.sol\":1913:1914  1 */\n      0x01\n        /* \"contracts/OrderBook.sol\":1896:1903  bidBook */\n      0x02\n        /* \"contracts/OrderBook.sol\":1896:1910  bidBook.length */\n      dup1\n      sload\n      swap1\n      pop\n        /* \"contracts/OrderBook.sol\":1896:1914  bidBook.length - 1 */\n      tag_263\n      swap2\n      swap1\n      tag_153\n      jump\t// in\n    tag_263:\n        /* \"contracts/OrderBook.sol\":1855:1874  descendingQuickSort */\n      tag_264\n        /* \"contracts/OrderBook.sol\":1855:1916  descendingQuickSort(bidBook, int(0), int(bidBook.length - 1)) */\n      jump\t// in\n    tag_255:\n        /* \"contracts/OrderBook.sol\":1818:1938  function sortBid() internal {... */\n      jump\t// out\n        /* \"contracts/OrderBook.sol\":2887:3557  function ascendingQuickSort(order[] memory arr, int left, int right) internal{... */\n    tag_253:\n        /* \"contracts/OrderBook.sol\":2974:2979  int i */\n      0x00\n        /* \"contracts/OrderBook.sol\":2982:2986  left */\n      dup3\n        /* \"contracts/OrderBook.sol\":2974:2986  int i = left */\n      swap1\n      pop\n        /* \"contracts/OrderBook.sol\":2996:3001  int j */\n      0x00\n        /* \"contracts/OrderBook.sol\":3004:3009  right */\n      dup3\n        /* \"contracts/OrderBook.sol\":2996:3009  int j = right */\n      swap1\n      pop\n        /* \"contracts/OrderBook.sol\":3025:3026  j */\n      dup1\n        /* \"contracts/OrderBook.sol\":3022:3023  i */\n      dup3\n        /* \"contracts/OrderBook.sol\":3022:3026  i==j */\n      sub\n        /* \"contracts/OrderBook.sol\":3019:3035  if(i==j) return; */\n      tag_266\n      jumpi\n        /* \"contracts/OrderBook.sol\":3028:3035  return; */\n      pop\n      pop\n      jump(tag_265)\n        /* \"contracts/OrderBook.sol\":3019:3035  if(i==j) return; */\n    tag_266:\n        /* \"contracts/OrderBook.sol\":3044:3057  uint256 pivot */\n      0x00\n        /* \"contracts/OrderBook.sol\":3060:3063  arr */\n      dup6\n        /* \"contracts/OrderBook.sol\":3093:3094  2 */\n      0x02\n        /* \"contracts/OrderBook.sol\":3085:3089  left */\n      dup7\n        /* \"contracts/OrderBook.sol\":3077:3082  right */\n      dup7\n        /* \"contracts/OrderBook.sol\":3077:3089  right - left */\n      tag_267\n      swap2\n      swap1\n      tag_268\n      jump\t// in\n    tag_267:\n        /* \"contracts/OrderBook.sol\":3076:3094  (right - left) / 2 */\n      tag_269\n      swap2\n      swap1\n      tag_270\n      jump\t// in\n    tag_269:\n        /* \"contracts/OrderBook.sol\":3069:3073  left */\n      dup7\n        /* \"contracts/OrderBook.sol\":3069:3094  left + (right - left) / 2 */\n      tag_271\n      swap2\n      swap1\n      tag_272\n      jump\t// in\n    tag_271:\n        /* \"contracts/OrderBook.sol\":3060:3096  arr[uint(left + (right - left) / 2)] */\n      dup2\n      mload\n      dup2\n      lt\n      tag_273\n      jumpi\n      tag_274\n      tag_78\n      jump\t// in\n    tag_274:\n    tag_273:\n      0x20\n      mul\n      0x20\n      add\n      add\n      mload\n        /* \"contracts/OrderBook.sol\":3060:3106  arr[uint(left + (right - left) / 2)].timestamp */\n      0x40\n      add\n      mload\n        /* \"contracts/OrderBook.sol\":3044:3106  uint256 pivot = arr[uint(left + (right - left) / 2)].timestamp */\n      swap1\n      pop\n        /* \"contracts/OrderBook.sol\":3116:3413  while (i <= j) {... */\n    tag_275:\n        /* \"contracts/OrderBook.sol\":3128:3129  j */\n      dup2\n        /* \"contracts/OrderBook.sol\":3123:3124  i */\n      dup4\n        /* \"contracts/OrderBook.sol\":3123:3129  i <= j */\n      sgt\n        /* \"contracts/OrderBook.sol\":3116:3413  while (i <= j) {... */\n      tag_276\n      jumpi\n        /* \"contracts/OrderBook.sol\":3145:3187  while (arr[uint(i)].timestamp > pivot) i++ */\n    tag_277:\n        /* \"contracts/OrderBook.sol\":3177:3182  pivot */\n      dup1\n        /* \"contracts/OrderBook.sol\":3152:3155  arr */\n      dup7\n        /* \"contracts/OrderBook.sol\":3161:3162  i */\n      dup5\n        /* \"contracts/OrderBook.sol\":3152:3164  arr[uint(i)] */\n      dup2\n      mload\n      dup2\n      lt\n      tag_279\n      jumpi\n      tag_280\n      tag_78\n      jump\t// in\n    tag_280:\n    tag_279:\n      0x20\n      mul\n      0x20\n      add\n      add\n      mload\n        /* \"contracts/OrderBook.sol\":3152:3174  arr[uint(i)].timestamp */\n      0x40\n      add\n      mload\n        /* \"contracts/OrderBook.sol\":3152:3182  arr[uint(i)].timestamp > pivot */\n      gt\n        /* \"contracts/OrderBook.sol\":3145:3187  while (arr[uint(i)].timestamp > pivot) i++ */\n      iszero\n      tag_278\n      jumpi\n        /* \"contracts/OrderBook.sol\":3184:3187  i++ */\n      dup3\n      dup1\n      tag_281\n      swap1\n      tag_282\n      jump\t// in\n    tag_281:\n      swap4\n      pop\n      pop\n        /* \"contracts/OrderBook.sol\":3145:3187  while (arr[uint(i)].timestamp > pivot) i++ */\n      jump(tag_277)\n    tag_278:\n        /* \"contracts/OrderBook.sol\":3201:3243  while (pivot > arr[uint(j)].timestamp) j-- */\n    tag_283:\n        /* \"contracts/OrderBook.sol\":3216:3219  arr */\n      dup6\n        /* \"contracts/OrderBook.sol\":3225:3226  j */\n      dup3\n        /* \"contracts/OrderBook.sol\":3216:3228  arr[uint(j)] */\n      dup2\n      mload\n      dup2\n      lt\n      tag_285\n      jumpi\n      tag_286\n      tag_78\n      jump\t// in\n    tag_286:\n    tag_285:\n      0x20\n      mul\n      0x20\n      add\n      add\n      mload\n        /* \"contracts/OrderBook.sol\":3216:3238  arr[uint(j)].timestamp */\n      0x40\n      add\n      mload\n        /* \"contracts/OrderBook.sol\":3208:3213  pivot */\n      dup2\n        /* \"contracts/OrderBook.sol\":3208:3238  pivot > arr[uint(j)].timestamp */\n      gt\n        /* \"contracts/OrderBook.sol\":3201:3243  while (pivot > arr[uint(j)].timestamp) j-- */\n      iszero\n      tag_284\n      jumpi\n        /* \"contracts/OrderBook.sol\":3240:3243  j-- */\n      dup2\n      dup1\n      tag_287\n      swap1\n      tag_288\n      jump\t// in\n    tag_287:\n      swap3\n      pop\n      pop\n        /* \"contracts/OrderBook.sol\":3201:3243  while (pivot > arr[uint(j)].timestamp) j-- */\n      jump(tag_283)\n    tag_284:\n        /* \"contracts/OrderBook.sol\":3266:3267  j */\n      dup2\n        /* \"contracts/OrderBook.sol\":3261:3262  i */\n      dup4\n        /* \"contracts/OrderBook.sol\":3261:3267  i <= j */\n      sgt\n        /* \"contracts/OrderBook.sol\":3257:3403  if (i <= j) {... */\n      tag_289\n      jumpi\n        /* \"contracts/OrderBook.sol\":3319:3322  arr */\n      dup6\n        /* \"contracts/OrderBook.sol\":3328:3329  j */\n      dup3\n        /* \"contracts/OrderBook.sol\":3319:3331  arr[uint(j)] */\n      dup2\n      mload\n      dup2\n      lt\n      tag_290\n      jumpi\n      tag_291\n      tag_78\n      jump\t// in\n    tag_291:\n    tag_290:\n      0x20\n      mul\n      0x20\n      add\n      add\n      mload\n        /* \"contracts/OrderBook.sol\":3333:3336  arr */\n      dup7\n        /* \"contracts/OrderBook.sol\":3342:3343  i */\n      dup5\n        /* \"contracts/OrderBook.sol\":3333:3345  arr[uint(i)] */\n      dup2\n      mload\n      dup2\n      lt\n      tag_292\n      jumpi\n      tag_293\n      tag_78\n      jump\t// in\n    tag_293:\n    tag_292:\n      0x20\n      mul\n      0x20\n      add\n      add\n      mload\n        /* \"contracts/OrderBook.sol\":3288:3291  arr */\n      dup8\n        /* \"contracts/OrderBook.sol\":3297:3298  i */\n      dup6\n        /* \"contracts/OrderBook.sol\":3288:3300  arr[uint(i)] */\n      dup2\n      mload\n      dup2\n      lt\n      tag_294\n      jumpi\n      tag_295\n      tag_78\n      jump\t// in\n    tag_295:\n    tag_294:\n      0x20\n      mul\n      0x20\n      add\n      add\n        /* \"contracts/OrderBook.sol\":3302:3305  arr */\n      dup9\n        /* \"contracts/OrderBook.sol\":3311:3312  j */\n      dup6\n        /* \"contracts/OrderBook.sol\":3302:3314  arr[uint(j)] */\n      dup2\n      mload\n      dup2\n      lt\n      tag_296\n      jumpi\n      tag_297\n      tag_78\n      jump\t// in\n    tag_297:\n    tag_296:\n      0x20\n      mul\n      0x20\n      add\n      add\n        /* \"contracts/OrderBook.sol\":3287:3346  (arr[uint(i)], arr[uint(j)]) = (arr[uint(j)], arr[uint(i)]) */\n      dup3\n      swap1\n      mstore\n      dup3\n      swap1\n      mstore\n      pop\n      pop\n        /* \"contracts/OrderBook.sol\":3364:3367  i++ */\n      dup3\n      dup1\n      tag_298\n      swap1\n      tag_282\n      jump\t// in\n    tag_298:\n      swap4\n      pop\n      pop\n        /* \"contracts/OrderBook.sol\":3385:3388  j-- */\n      dup2\n      dup1\n      tag_299\n      swap1\n      tag_288\n      jump\t// in\n    tag_299:\n      swap3\n      pop\n      pop\n        /* \"contracts/OrderBook.sol\":3257:3403  if (i <= j) {... */\n    tag_289:\n        /* \"contracts/OrderBook.sol\":3116:3413  while (i <= j) {... */\n      jump(tag_275)\n    tag_276:\n        /* \"contracts/OrderBook.sol\":3433:3434  j */\n      dup2\n        /* \"contracts/OrderBook.sol\":3426:3430  left */\n      dup6\n        /* \"contracts/OrderBook.sol\":3426:3434  left < j */\n      slt\n        /* \"contracts/OrderBook.sol\":3422:3480  if (left < j)... */\n      iszero\n      tag_300\n      jumpi\n        /* \"contracts/OrderBook.sol\":3448:3480  ascendingQuickSort(arr, left, j) */\n      tag_301\n        /* \"contracts/OrderBook.sol\":3467:3470  arr */\n      dup7\n        /* \"contracts/OrderBook.sol\":3472:3476  left */\n      dup7\n        /* \"contracts/OrderBook.sol\":3478:3479  j */\n      dup5\n        /* \"contracts/OrderBook.sol\":3448:3466  ascendingQuickSort */\n      tag_253\n        /* \"contracts/OrderBook.sol\":3448:3480  ascendingQuickSort(arr, left, j) */\n      jump\t// in\n    tag_301:\n        /* \"contracts/OrderBook.sol\":3422:3480  if (left < j)... */\n    tag_300:\n        /* \"contracts/OrderBook.sol\":3498:3503  right */\n      dup4\n        /* \"contracts/OrderBook.sol\":3494:3495  i */\n      dup4\n        /* \"contracts/OrderBook.sol\":3494:3503  i < right */\n      slt\n        /* \"contracts/OrderBook.sol\":3490:3550  if (i < right)... */\n      iszero\n      tag_302\n      jumpi\n        /* \"contracts/OrderBook.sol\":3517:3550  ascendingQuickSort(arr, i, right) */\n      tag_303\n        /* \"contracts/OrderBook.sol\":3536:3539  arr */\n      dup7\n        /* \"contracts/OrderBook.sol\":3541:3542  i */\n      dup5\n        /* \"contracts/OrderBook.sol\":3544:3549  right */\n      dup7\n        /* \"contracts/OrderBook.sol\":3517:3535  ascendingQuickSort */\n      tag_253\n        /* \"contracts/OrderBook.sol\":3517:3550  ascendingQuickSort(arr, i, right) */\n      jump\t// in\n    tag_303:\n        /* \"contracts/OrderBook.sol\":3490:3550  if (i < right)... */\n    tag_302:\n        /* \"contracts/OrderBook.sol\":2964:3557  {... */\n      pop\n      pop\n      pop\n        /* \"contracts/OrderBook.sol\":2887:3557  function ascendingQuickSort(order[] memory arr, int left, int right) internal{... */\n    tag_265:\n      pop\n      pop\n      pop\n      jump\t// out\n        /* \"contracts/OrderBook.sol\":2208:2881  function descendingQuickSort(order[] memory arr, int left, int right) internal{... */\n    tag_264:\n        /* \"contracts/OrderBook.sol\":2296:2301  int i */\n      0x00\n        /* \"contracts/OrderBook.sol\":2304:2308  left */\n      dup3\n        /* \"contracts/OrderBook.sol\":2296:2308  int i = left */\n      swap1\n      pop\n        /* \"contracts/OrderBook.sol\":2318:2323  int j */\n      0x00\n        /* \"contracts/OrderBook.sol\":2326:2331  right */\n      dup3\n        /* \"contracts/OrderBook.sol\":2318:2331  int j = right */\n      swap1\n      pop\n        /* \"contracts/OrderBook.sol\":2347:2348  j */\n      dup1\n        /* \"contracts/OrderBook.sol\":2344:2345  i */\n      dup3\n        /* \"contracts/OrderBook.sol\":2344:2348  i==j */\n      sub\n        /* \"contracts/OrderBook.sol\":2341:2357  if(i==j) return; */\n      tag_305\n      jumpi\n        /* \"contracts/OrderBook.sol\":2350:2357  return; */\n      pop\n      pop\n      jump(tag_304)\n        /* \"contracts/OrderBook.sol\":2341:2357  if(i==j) return; */\n    tag_305:\n        /* \"contracts/OrderBook.sol\":2366:2379  uint256 pivot */\n      0x00\n        /* \"contracts/OrderBook.sol\":2382:2385  arr */\n      dup6\n        /* \"contracts/OrderBook.sol\":2415:2416  2 */\n      0x02\n        /* \"contracts/OrderBook.sol\":2407:2411  left */\n      dup7\n        /* \"contracts/OrderBook.sol\":2399:2404  right */\n      dup7\n        /* \"contracts/OrderBook.sol\":2399:2411  right - left */\n      tag_306\n      swap2\n      swap1\n      tag_268\n      jump\t// in\n    tag_306:\n        /* \"contracts/OrderBook.sol\":2398:2416  (right - left) / 2 */\n      tag_307\n      swap2\n      swap1\n      tag_270\n      jump\t// in\n    tag_307:\n        /* \"contracts/OrderBook.sol\":2391:2395  left */\n      dup7\n        /* \"contracts/OrderBook.sol\":2391:2416  left + (right - left) / 2 */\n      tag_308\n      swap2\n      swap1\n      tag_272\n      jump\t// in\n    tag_308:\n        /* \"contracts/OrderBook.sol\":2382:2418  arr[uint(left + (right - left) / 2)] */\n      dup2\n      mload\n      dup2\n      lt\n      tag_309\n      jumpi\n      tag_310\n      tag_78\n      jump\t// in\n    tag_310:\n    tag_309:\n      0x20\n      mul\n      0x20\n      add\n      add\n      mload\n        /* \"contracts/OrderBook.sol\":2382:2428  arr[uint(left + (right - left) / 2)].timestamp */\n      0x40\n      add\n      mload\n        /* \"contracts/OrderBook.sol\":2366:2428  uint256 pivot = arr[uint(left + (right - left) / 2)].timestamp */\n      swap1\n      pop\n        /* \"contracts/OrderBook.sol\":2438:2735  while (i <= j) {... */\n    tag_311:\n        /* \"contracts/OrderBook.sol\":2450:2451  j */\n      dup2\n        /* \"contracts/OrderBook.sol\":2445:2446  i */\n      dup4\n        /* \"contracts/OrderBook.sol\":2445:2451  i <= j */\n      sgt\n        /* \"contracts/OrderBook.sol\":2438:2735  while (i <= j) {... */\n      tag_312\n      jumpi\n        /* \"contracts/OrderBook.sol\":2467:2509  while (arr[uint(i)].timestamp < pivot) i++ */\n    tag_313:\n        /* \"contracts/OrderBook.sol\":2499:2504  pivot */\n      dup1\n        /* \"contracts/OrderBook.sol\":2474:2477  arr */\n      dup7\n        /* \"contracts/OrderBook.sol\":2483:2484  i */\n      dup5\n        /* \"contracts/OrderBook.sol\":2474:2486  arr[uint(i)] */\n      dup2\n      mload\n      dup2\n      lt\n      tag_315\n      jumpi\n      tag_316\n      tag_78\n      jump\t// in\n    tag_316:\n    tag_315:\n      0x20\n      mul\n      0x20\n      add\n      add\n      mload\n        /* \"contracts/OrderBook.sol\":2474:2496  arr[uint(i)].timestamp */\n      0x40\n      add\n      mload\n        /* \"contracts/OrderBook.sol\":2474:2504  arr[uint(i)].timestamp < pivot */\n      lt\n        /* \"contracts/OrderBook.sol\":2467:2509  while (arr[uint(i)].timestamp < pivot) i++ */\n      iszero\n      tag_314\n      jumpi\n        /* \"contracts/OrderBook.sol\":2506:2509  i++ */\n      dup3\n      dup1\n      tag_317\n      swap1\n      tag_282\n      jump\t// in\n    tag_317:\n      swap4\n      pop\n      pop\n        /* \"contracts/OrderBook.sol\":2467:2509  while (arr[uint(i)].timestamp < pivot) i++ */\n      jump(tag_313)\n    tag_314:\n        /* \"contracts/OrderBook.sol\":2523:2565  while (pivot < arr[uint(j)].timestamp) j-- */\n    tag_318:\n        /* \"contracts/OrderBook.sol\":2538:2541  arr */\n      dup6\n        /* \"contracts/OrderBook.sol\":2547:2548  j */\n      dup3\n        /* \"contracts/OrderBook.sol\":2538:2550  arr[uint(j)] */\n      dup2\n      mload\n      dup2\n      lt\n      tag_320\n      jumpi\n      tag_321\n      tag_78\n      jump\t// in\n    tag_321:\n    tag_320:\n      0x20\n      mul\n      0x20\n      add\n      add\n      mload\n        /* \"contracts/OrderBook.sol\":2538:2560  arr[uint(j)].timestamp */\n      0x40\n      add\n      mload\n        /* \"contracts/OrderBook.sol\":2530:2535  pivot */\n      dup2\n        /* \"contracts/OrderBook.sol\":2530:2560  pivot < arr[uint(j)].timestamp */\n      lt\n        /* \"contracts/OrderBook.sol\":2523:2565  while (pivot < arr[uint(j)].timestamp) j-- */\n      iszero\n      tag_319\n      jumpi\n        /* \"contracts/OrderBook.sol\":2562:2565  j-- */\n      dup2\n      dup1\n      tag_322\n      swap1\n      tag_288\n      jump\t// in\n    tag_322:\n      swap3\n      pop\n      pop\n        /* \"contracts/OrderBook.sol\":2523:2565  while (pivot < arr[uint(j)].timestamp) j-- */\n      jump(tag_318)\n    tag_319:\n        /* \"contracts/OrderBook.sol\":2588:2589  j */\n      dup2\n        /* \"contracts/OrderBook.sol\":2583:2584  i */\n      dup4\n        /* \"contracts/OrderBook.sol\":2583:2589  i <= j */\n      sgt\n        /* \"contracts/OrderBook.sol\":2579:2725  if (i <= j) {... */\n      tag_323\n      jumpi\n        /* \"contracts/OrderBook.sol\":2641:2644  arr */\n      dup6\n        /* \"contracts/OrderBook.sol\":2650:2651  j */\n      dup3\n        /* \"contracts/OrderBook.sol\":2641:2653  arr[uint(j)] */\n      dup2\n      mload\n      dup2\n      lt\n      tag_324\n      jumpi\n      tag_325\n      tag_78\n      jump\t// in\n    tag_325:\n    tag_324:\n      0x20\n      mul\n      0x20\n      add\n      add\n      mload\n        /* \"contracts/OrderBook.sol\":2655:2658  arr */\n      dup7\n        /* \"contracts/OrderBook.sol\":2664:2665  i */\n      dup5\n        /* \"contracts/OrderBook.sol\":2655:2667  arr[uint(i)] */\n      dup2\n      mload\n      dup2\n      lt\n      tag_326\n      jumpi\n      tag_327\n      tag_78\n      jump\t// in\n    tag_327:\n    tag_326:\n      0x20\n      mul\n      0x20\n      add\n      add\n      mload\n        /* \"contracts/OrderBook.sol\":2610:2613  arr */\n      dup8\n        /* \"contracts/OrderBook.sol\":2619:2620  i */\n      dup6\n        /* \"contracts/OrderBook.sol\":2610:2622  arr[uint(i)] */\n      dup2\n      mload\n      dup2\n      lt\n      tag_328\n      jumpi\n      tag_329\n      tag_78\n      jump\t// in\n    tag_329:\n    tag_328:\n      0x20\n      mul\n      0x20\n      add\n      add\n        /* \"contracts/OrderBook.sol\":2624:2627  arr */\n      dup9\n        /* \"contracts/OrderBook.sol\":2633:2634  j */\n      dup6\n        /* \"contracts/OrderBook.sol\":2624:2636  arr[uint(j)] */\n      dup2\n      mload\n      dup2\n      lt\n      tag_330\n      jumpi\n      tag_331\n      tag_78\n      jump\t// in\n    tag_331:\n    tag_330:\n      0x20\n      mul\n      0x20\n      add\n      add\n        /* \"contracts/OrderBook.sol\":2609:2668  (arr[uint(i)], arr[uint(j)]) = (arr[uint(j)], arr[uint(i)]) */\n      dup3\n      swap1\n      mstore\n      dup3\n      swap1\n      mstore\n      pop\n      pop\n        /* \"contracts/OrderBook.sol\":2686:2689  i++ */\n      dup3\n      dup1\n      tag_332\n      swap1\n      tag_282\n      jump\t// in\n    tag_332:\n      swap4\n      pop\n      pop\n        /* \"contracts/OrderBook.sol\":2707:2710  j-- */\n      dup2\n      dup1\n      tag_333\n      swap1\n      tag_288\n      jump\t// in\n    tag_333:\n      swap3\n      pop\n      pop\n        /* \"contracts/OrderBook.sol\":2579:2725  if (i <= j) {... */\n    tag_323:\n        /* \"contracts/OrderBook.sol\":2438:2735  while (i <= j) {... */\n      jump(tag_311)\n    tag_312:\n        /* \"contracts/OrderBook.sol\":2755:2756  j */\n      dup2\n        /* \"contracts/OrderBook.sol\":2748:2752  left */\n      dup6\n        /* \"contracts/OrderBook.sol\":2748:2756  left < j */\n      slt\n        /* \"contracts/OrderBook.sol\":2744:2803  if (left < j)... */\n      iszero\n      tag_334\n      jumpi\n        /* \"contracts/OrderBook.sol\":2770:2803  descendingQuickSort(arr, left, j) */\n      tag_335\n        /* \"contracts/OrderBook.sol\":2790:2793  arr */\n      dup7\n        /* \"contracts/OrderBook.sol\":2795:2799  left */\n      dup7\n        /* \"contracts/OrderBook.sol\":2801:2802  j */\n      dup5\n        /* \"contracts/OrderBook.sol\":2770:2789  descendingQuickSort */\n      tag_264\n        /* \"contracts/OrderBook.sol\":2770:2803  descendingQuickSort(arr, left, j) */\n      jump\t// in\n    tag_335:\n        /* \"contracts/OrderBook.sol\":2744:2803  if (left < j)... */\n    tag_334:\n        /* \"contracts/OrderBook.sol\":2821:2826  right */\n      dup4\n        /* \"contracts/OrderBook.sol\":2817:2818  i */\n      dup4\n        /* \"contracts/OrderBook.sol\":2817:2826  i < right */\n      slt\n        /* \"contracts/OrderBook.sol\":2813:2874  if (i < right)... */\n      iszero\n      tag_336\n      jumpi\n        /* \"contracts/OrderBook.sol\":2840:2874  descendingQuickSort(arr, i, right) */\n      tag_337\n        /* \"contracts/OrderBook.sol\":2860:2863  arr */\n      dup7\n        /* \"contracts/OrderBook.sol\":2865:2866  i */\n      dup5\n        /* \"contracts/OrderBook.sol\":2868:2873  right */\n      dup7\n        /* \"contracts/OrderBook.sol\":2840:2859  descendingQuickSort */\n      tag_264\n        /* \"contracts/OrderBook.sol\":2840:2874  descendingQuickSort(arr, i, right) */\n      jump\t// in\n    tag_337:\n        /* \"contracts/OrderBook.sol\":2813:2874  if (i < right)... */\n    tag_336:\n        /* \"contracts/OrderBook.sol\":2286:2881  {... */\n      pop\n      pop\n      pop\n        /* \"contracts/OrderBook.sol\":2208:2881  function descendingQuickSort(order[] memory arr, int left, int right) internal{... */\n    tag_304:\n      pop\n      pop\n      pop\n      jump\t// out\n        /* \"#utility.yul\":7:121   */\n    tag_338:\n        /* \"#utility.yul\":74:80   */\n      0x00\n        /* \"#utility.yul\":108:113   */\n      dup2\n        /* \"#utility.yul\":102:114   */\n      mload\n        /* \"#utility.yul\":92:114   */\n      swap1\n      pop\n        /* \"#utility.yul\":7:121   */\n      swap2\n      swap1\n      pop\n      jump\t// out\n        /* \"#utility.yul\":127:311   */\n    tag_339:\n        /* \"#utility.yul\":226:237   */\n      0x00\n        /* \"#utility.yul\":260:266   */\n      dup3\n        /* \"#utility.yul\":255:258   */\n      dup3\n        /* \"#utility.yul\":248:267   */\n      mstore\n        /* \"#utility.yul\":300:304   */\n      0x20\n        /* \"#utility.yul\":295:298   */\n      dup3\n        /* \"#utility.yul\":291:305   */\n      add\n        /* \"#utility.yul\":276:305   */\n      swap1\n      pop\n        /* \"#utility.yul\":127:311   */\n      swap3\n      swap2\n      pop\n      pop\n      jump\t// out\n        /* \"#utility.yul\":317:449   */\n    tag_340:\n        /* \"#utility.yul\":384:388   */\n      0x00\n        /* \"#utility.yul\":407:410   */\n      dup2\n        /* \"#utility.yul\":399:410   */\n      swap1\n      pop\n        /* \"#utility.yul\":437:441   */\n      0x20\n        /* \"#utility.yul\":432:435   */\n      dup3\n        /* \"#utility.yul\":428:442   */\n      add\n        /* \"#utility.yul\":420:442   */\n      swap1\n      pop\n        /* \"#utility.yul\":317:449   */\n      swap2\n      swap1\n      pop\n      jump\t// out\n        /* \"#utility.yul\":455:532   */\n    tag_341:\n        /* \"#utility.yul\":492:499   */\n      0x00\n        /* \"#utility.yul\":521:526   */\n      dup2\n        /* \"#utility.yul\":510:526   */\n      swap1\n      pop\n        /* \"#utility.yul\":455:532   */\n      swap2\n      swap1\n      pop\n      jump\t// out\n        /* \"#utility.yul\":538:646   */\n    tag_342:\n        /* \"#utility.yul\":615:639   */\n      tag_390\n        /* \"#utility.yul\":633:638   */\n      dup2\n        /* \"#utility.yul\":615:639   */\n      tag_341\n      jump\t// in\n    tag_390:\n        /* \"#utility.yul\":610:613   */\n      dup3\n        /* \"#utility.yul\":603:640   */\n      mstore\n        /* \"#utility.yul\":538:646   */\n      pop\n      pop\n      jump\t// out\n        /* \"#utility.yul\":652:831   */\n    tag_343:\n        /* \"#utility.yul\":721:731   */\n      0x00\n        /* \"#utility.yul\":742:788   */\n      tag_392\n        /* \"#utility.yul\":784:787   */\n      dup4\n        /* \"#utility.yul\":776:782   */\n      dup4\n        /* \"#utility.yul\":742:788   */\n      tag_342\n      jump\t// in\n    tag_392:\n        /* \"#utility.yul\":820:824   */\n      0x20\n        /* \"#utility.yul\":815:818   */\n      dup4\n        /* \"#utility.yul\":811:825   */\n      add\n        /* \"#utility.yul\":797:825   */\n      swap1\n      pop\n        /* \"#utility.yul\":652:831   */\n      swap3\n      swap2\n      pop\n      pop\n      jump\t// out\n        /* \"#utility.yul\":837:950   */\n    tag_344:\n        /* \"#utility.yul\":907:911   */\n      0x00\n        /* \"#utility.yul\":939:943   */\n      0x20\n        /* \"#utility.yul\":934:937   */\n      dup3\n        /* \"#utility.yul\":930:944   */\n      add\n        /* \"#utility.yul\":922:944   */\n      swap1\n      pop\n        /* \"#utility.yul\":837:950   */\n      swap2\n      swap1\n      pop\n      jump\t// out\n        /* \"#utility.yul\":986:1718   */\n    tag_345:\n        /* \"#utility.yul\":1105:1108   */\n      0x00\n        /* \"#utility.yul\":1134:1188   */\n      tag_395\n        /* \"#utility.yul\":1182:1187   */\n      dup3\n        /* \"#utility.yul\":1134:1188   */\n      tag_338\n      jump\t// in\n    tag_395:\n        /* \"#utility.yul\":1204:1290   */\n      tag_396\n        /* \"#utility.yul\":1283:1289   */\n      dup2\n        /* \"#utility.yul\":1278:1281   */\n      dup6\n        /* \"#utility.yul\":1204:1290   */\n      tag_339\n      jump\t// in\n    tag_396:\n        /* \"#utility.yul\":1197:1290   */\n      swap4\n      pop\n        /* \"#utility.yul\":1314:1370   */\n      tag_397\n        /* \"#utility.yul\":1364:1369   */\n      dup4\n        /* \"#utility.yul\":1314:1370   */\n      tag_340\n      jump\t// in\n    tag_397:\n        /* \"#utility.yul\":1393:1400   */\n      dup1\n        /* \"#utility.yul\":1424:1425   */\n      0x00\n        /* \"#utility.yul\":1409:1693   */\n    tag_398:\n        /* \"#utility.yul\":1434:1440   */\n      dup4\n        /* \"#utility.yul\":1431:1432   */\n      dup2\n        /* \"#utility.yul\":1428:1441   */\n      lt\n        /* \"#utility.yul\":1409:1693   */\n      iszero\n      tag_400\n      jumpi\n        /* \"#utility.yul\":1510:1516   */\n      dup2\n        /* \"#utility.yul\":1504:1517   */\n      mload\n        /* \"#utility.yul\":1537:1600   */\n      tag_401\n        /* \"#utility.yul\":1596:1599   */\n      dup9\n        /* \"#utility.yul\":1581:1594   */\n      dup3\n        /* \"#utility.yul\":1537:1600   */\n      tag_343\n      jump\t// in\n    tag_401:\n        /* \"#utility.yul\":1530:1600   */\n      swap8\n      pop\n        /* \"#utility.yul\":1623:1683   */\n      tag_402\n        /* \"#utility.yul\":1676:1682   */\n      dup4\n        /* \"#utility.yul\":1623:1683   */\n      tag_344\n      jump\t// in\n    tag_402:\n        /* \"#utility.yul\":1613:1683   */\n      swap3\n      pop\n        /* \"#utility.yul\":1469:1693   */\n      pop\n        /* \"#utility.yul\":1456:1457   */\n      0x01\n        /* \"#utility.yul\":1453:1454   */\n      dup2\n        /* \"#utility.yul\":1449:1458   */\n      add\n        /* \"#utility.yul\":1444:1458   */\n      swap1\n      pop\n        /* \"#utility.yul\":1409:1693   */\n      jump(tag_398)\n    tag_400:\n        /* \"#utility.yul\":1413:1427   */\n      pop\n        /* \"#utility.yul\":1709:1712   */\n      dup6\n        /* \"#utility.yul\":1702:1712   */\n      swap4\n      pop\n        /* \"#utility.yul\":1110:1718   */\n      pop\n      pop\n      pop\n        /* \"#utility.yul\":986:1718   */\n      swap3\n      swap2\n      pop\n      pop\n      jump\t// out\n        /* \"#utility.yul\":1724:2097   */\n    tag_19:\n        /* \"#utility.yul\":1867:1871   */\n      0x00\n        /* \"#utility.yul\":1905:1907   */\n      0x20\n        /* \"#utility.yul\":1894:1903   */\n      dup3\n        /* \"#utility.yul\":1890:1908   */\n      add\n        /* \"#utility.yul\":1882:1908   */\n      swap1\n      pop\n        /* \"#utility.yul\":1954:1963   */\n      dup2\n        /* \"#utility.yul\":1948:1952   */\n      dup2\n        /* \"#utility.yul\":1944:1964   */\n      sub\n        /* \"#utility.yul\":1940:1941   */\n      0x00\n        /* \"#utility.yul\":1929:1938   */\n      dup4\n        /* \"#utility.yul\":1925:1942   */\n      add\n        /* \"#utility.yul\":1918:1965   */\n      mstore\n        /* \"#utility.yul\":1982:2090   */\n      tag_404\n        /* \"#utility.yul\":2085:2089   */\n      dup2\n        /* \"#utility.yul\":2076:2082   */\n      dup5\n        /* \"#utility.yul\":1982:2090   */\n      tag_345\n      jump\t// in\n    tag_404:\n        /* \"#utility.yul\":1974:2090   */\n      swap1\n      pop\n        /* \"#utility.yul\":1724:2097   */\n      swap3\n      swap2\n      pop\n      pop\n      jump\t// out\n        /* \"#utility.yul\":2184:2301   */\n    tag_347:\n        /* \"#utility.yul\":2293:2294   */\n      0x00\n        /* \"#utility.yul\":2290:2291   */\n      dup1\n        /* \"#utility.yul\":2283:2295   */\n      revert\n        /* \"#utility.yul\":2430:2552   */\n    tag_349:\n        /* \"#utility.yul\":2503:2527   */\n      tag_409\n        /* \"#utility.yul\":2521:2526   */\n      dup2\n        /* \"#utility.yul\":2503:2527   */\n      tag_341\n      jump\t// in\n    tag_409:\n        /* \"#utility.yul\":2496:2501   */\n      dup2\n        /* \"#utility.yul\":2493:2528   */\n      eq\n        /* \"#utility.yul\":2483:2546   */\n      tag_410\n      jumpi\n        /* \"#utility.yul\":2542:2543   */\n      0x00\n        /* \"#utility.yul\":2539:2540   */\n      dup1\n        /* \"#utility.yul\":2532:2544   */\n      revert\n        /* \"#utility.yul\":2483:2546   */\n    tag_410:\n        /* \"#utility.yul\":2430:2552   */\n      pop\n      jump\t// out\n        /* \"#utility.yul\":2558:2697   */\n    tag_350:\n        /* \"#utility.yul\":2604:2609   */\n      0x00\n        /* \"#utility.yul\":2642:2648   */\n      dup2\n        /* \"#utility.yul\":2629:2649   */\n      calldataload\n        /* \"#utility.yul\":2620:2649   */\n      swap1\n      pop\n        /* \"#utility.yul\":2658:2691   */\n      tag_412\n        /* \"#utility.yul\":2685:2690   */\n      dup2\n        /* \"#utility.yul\":2658:2691   */\n      tag_349\n      jump\t// in\n    tag_412:\n        /* \"#utility.yul\":2558:2697   */\n      swap3\n      swap2\n      pop\n      pop\n      jump\t// out\n        /* \"#utility.yul\":2703:3032   */\n    tag_23:\n        /* \"#utility.yul\":2762:2768   */\n      0x00\n        /* \"#utility.yul\":2811:2813   */\n      0x20\n        /* \"#utility.yul\":2799:2808   */\n      dup3\n        /* \"#utility.yul\":2790:2797   */\n      dup5\n        /* \"#utility.yul\":2786:2809   */\n      sub\n        /* \"#utility.yul\":2782:2814   */\n      slt\n        /* \"#utility.yul\":2779:2898   */\n      iszero\n      tag_414\n      jumpi\n        /* \"#utility.yul\":2817:2896   */\n      tag_415\n      tag_347\n      jump\t// in\n    tag_415:\n        /* \"#utility.yul\":2779:2898   */\n    tag_414:\n        /* \"#utility.yul\":2937:2938   */\n      0x00\n        /* \"#utility.yul\":2962:3015   */\n      tag_416\n        /* \"#utility.yul\":3007:3014   */\n      dup5\n        /* \"#utility.yul\":2998:3004   */\n      dup3\n        /* \"#utility.yul\":2987:2996   */\n      dup6\n        /* \"#utility.yul\":2983:3005   */\n      add\n        /* \"#utility.yul\":2962:3015   */\n      tag_350\n      jump\t// in\n    tag_416:\n        /* \"#utility.yul\":2952:3015   */\n      swap2\n      pop\n        /* \"#utility.yul\":2908:3025   */\n      pop\n        /* \"#utility.yul\":2703:3032   */\n      swap3\n      swap2\n      pop\n      pop\n      jump\t// out\n        /* \"#utility.yul\":3038:3156   */\n    tag_351:\n        /* \"#utility.yul\":3125:3149   */\n      tag_418\n        /* \"#utility.yul\":3143:3148   */\n      dup2\n        /* \"#utility.yul\":3125:3149   */\n      tag_341\n      jump\t// in\n    tag_418:\n        /* \"#utility.yul\":3120:3123   */\n      dup3\n        /* \"#utility.yul\":3113:3150   */\n      mstore\n        /* \"#utility.yul\":3038:3156   */\n      pop\n      pop\n      jump\t// out\n        /* \"#utility.yul\":3162:3384   */\n    tag_30:\n        /* \"#utility.yul\":3255:3259   */\n      0x00\n        /* \"#utility.yul\":3293:3295   */\n      0x20\n        /* \"#utility.yul\":3282:3291   */\n      dup3\n        /* \"#utility.yul\":3278:3296   */\n      add\n        /* \"#utility.yul\":3270:3296   */\n      swap1\n      pop\n        /* \"#utility.yul\":3306:3377   */\n      tag_420\n        /* \"#utility.yul\":3374:3375   */\n      0x00\n        /* \"#utility.yul\":3363:3372   */\n      dup4\n        /* \"#utility.yul\":3359:3376   */\n      add\n        /* \"#utility.yul\":3350:3356   */\n      dup5\n        /* \"#utility.yul\":3306:3377   */\n      tag_351\n      jump\t// in\n    tag_420:\n        /* \"#utility.yul\":3162:3384   */\n      swap3\n      swap2\n      pop\n      pop\n      jump\t// out\n        /* \"#utility.yul\":3390:3525   */\n    tag_352:\n        /* \"#utility.yul\":3478:3484   */\n      0x00\n        /* \"#utility.yul\":3512:3517   */\n      dup2\n        /* \"#utility.yul\":3506:3518   */\n      mload\n        /* \"#utility.yul\":3496:3518   */\n      swap1\n      pop\n        /* \"#utility.yul\":3390:3525   */\n      swap2\n      swap1\n      pop\n      jump\t// out\n        /* \"#utility.yul\":3531:3736   */\n    tag_353:\n        /* \"#utility.yul\":3651:3662   */\n      0x00\n        /* \"#utility.yul\":3685:3691   */\n      dup3\n        /* \"#utility.yul\":3680:3683   */\n      dup3\n        /* \"#utility.yul\":3673:3692   */\n      mstore\n        /* \"#utility.yul\":3725:3729   */\n      0x20\n        /* \"#utility.yul\":3720:3723   */\n      dup3\n        /* \"#utility.yul\":3716:3730   */\n      add\n        /* \"#utility.yul\":3701:3730   */\n      swap1\n      pop\n        /* \"#utility.yul\":3531:3736   */\n      swap3\n      swap2\n      pop\n      pop\n      jump\t// out\n        /* \"#utility.yul\":3742:3895   */\n    tag_354:\n        /* \"#utility.yul\":3830:3834   */\n      0x00\n        /* \"#utility.yul\":3853:3856   */\n      dup2\n        /* \"#utility.yul\":3845:3856   */\n      swap1\n      pop\n        /* \"#utility.yul\":3883:3887   */\n      0x20\n        /* \"#utility.yul\":3878:3881   */\n      dup3\n        /* \"#utility.yul\":3874:3888   */\n      add\n        /* \"#utility.yul\":3866:3888   */\n      swap1\n      pop\n        /* \"#utility.yul\":3742:3895   */\n      swap2\n      swap1\n      pop\n      jump\t// out\n        /* \"#utility.yul\":3901:4027   */\n    tag_355:\n        /* \"#utility.yul\":3938:3945   */\n      0x00\n        /* \"#utility.yul\":3978:4020   */\n      0xffffffffffffffffffffffffffffffffffffffff\n        /* \"#utility.yul\":3971:3976   */\n      dup3\n        /* \"#utility.yul\":3967:4021   */\n      and\n        /* \"#utility.yul\":3956:4021   */\n      swap1\n      pop\n        /* \"#utility.yul\":3901:4027   */\n      swap2\n      swap1\n      pop\n      jump\t// out\n        /* \"#utility.yul\":4033:4137   */\n    tag_356:\n        /* \"#utility.yul\":4078:4085   */\n      0x00\n        /* \"#utility.yul\":4107:4131   */\n      tag_426\n        /* \"#utility.yul\":4125:4130   */\n      dup3\n        /* \"#utility.yul\":4107:4131   */\n      tag_355\n      jump\t// in\n    tag_426:\n        /* \"#utility.yul\":4096:4131   */\n      swap1\n      pop\n        /* \"#utility.yul\":4033:4137   */\n      swap2\n      swap1\n      pop\n      jump\t// out\n        /* \"#utility.yul\":4143:4275   */\n    tag_357:\n        /* \"#utility.yul\":4236:4268   */\n      tag_428\n        /* \"#utility.yul\":4262:4267   */\n      dup2\n        /* \"#utility.yul\":4236:4268   */\n      tag_356\n      jump\t// in\n    tag_428:\n        /* \"#utility.yul\":4231:4234   */\n      dup3\n        /* \"#utility.yul\":4224:4269   */\n      mstore\n        /* \"#utility.yul\":4143:4275   */\n      pop\n      pop\n      jump\t// out\n        /* \"#utility.yul\":4281:4461   */\n    tag_91:\n        /* \"#utility.yul\":4329:4406   */\n      0x4e487b7100000000000000000000000000000000000000000000000000000000\n        /* \"#utility.yul\":4326:4327   */\n      0x00\n        /* \"#utility.yul\":4319:4407   */\n      mstore\n        /* \"#utility.yul\":4426:4430   */\n      0x21\n        /* \"#utility.yul\":4423:4424   */\n      0x04\n        /* \"#utility.yul\":4416:4431   */\n      mstore\n        /* \"#utility.yul\":4450:4454   */\n      0x24\n        /* \"#utility.yul\":4447:4448   */\n      0x00\n        /* \"#utility.yul\":4440:4455   */\n      revert\n        /* \"#utility.yul\":4467:4579   */\n    tag_358:\n        /* \"#utility.yul\":4547:4548   */\n      0x02\n        /* \"#utility.yul\":4540:4545   */\n      dup2\n        /* \"#utility.yul\":4537:4549   */\n      lt\n        /* \"#utility.yul\":4527:4573   */\n      tag_431\n      jumpi\n        /* \"#utility.yul\":4553:4571   */\n      tag_432\n      tag_91\n      jump\t// in\n    tag_432:\n        /* \"#utility.yul\":4527:4573   */\n    tag_431:\n        /* \"#utility.yul\":4467:4579   */\n      pop\n      jump\t// out\n        /* \"#utility.yul\":4585:4710   */\n    tag_359:\n        /* \"#utility.yul\":4629:4636   */\n      0x00\n        /* \"#utility.yul\":4658:4663   */\n      dup2\n        /* \"#utility.yul\":4647:4663   */\n      swap1\n      pop\n        /* \"#utility.yul\":4664:4704   */\n      tag_434\n        /* \"#utility.yul\":4698:4703   */\n      dup3\n        /* \"#utility.yul\":4664:4704   */\n      tag_358\n      jump\t// in\n    tag_434:\n        /* \"#utility.yul\":4585:4710   */\n      swap2\n      swap1\n      pop\n      jump\t// out\n        /* \"#utility.yul\":4716:4841   */\n    tag_360:\n        /* \"#utility.yul\":4771:4780   */\n      0x00\n        /* \"#utility.yul\":4804:4835   */\n      tag_436\n        /* \"#utility.yul\":4829:4834   */\n      dup3\n        /* \"#utility.yul\":4804:4835   */\n      tag_359\n      jump\t// in\n    tag_436:\n        /* \"#utility.yul\":4791:4835   */\n      swap1\n      pop\n        /* \"#utility.yul\":4716:4841   */\n      swap2\n      swap1\n      pop\n      jump\t// out\n        /* \"#utility.yul\":4847:4978   */\n    tag_361:\n        /* \"#utility.yul\":4929:4971   */\n      tag_438\n        /* \"#utility.yul\":4965:4970   */\n      dup2\n        /* \"#utility.yul\":4929:4971   */\n      tag_360\n      jump\t// in\n    tag_438:\n        /* \"#utility.yul\":4924:4927   */\n      dup3\n        /* \"#utility.yul\":4917:4972   */\n      mstore\n        /* \"#utility.yul\":4847:4978   */\n      pop\n      pop\n      jump\t// out\n        /* \"#utility.yul\":5040:5909   */\n    tag_362:\n        /* \"#utility.yul\":5169:5173   */\n      0x80\n        /* \"#utility.yul\":5164:5167   */\n      dup3\n        /* \"#utility.yul\":5160:5174   */\n      add\n        /* \"#utility.yul\":5260:5264   */\n      0x00\n        /* \"#utility.yul\":5253:5258   */\n      dup3\n        /* \"#utility.yul\":5249:5265   */\n      add\n        /* \"#utility.yul\":5243:5266   */\n      mload\n        /* \"#utility.yul\":5279:5358   */\n      tag_440\n        /* \"#utility.yul\":5352:5356   */\n      0x00\n        /* \"#utility.yul\":5347:5350   */\n      dup6\n        /* \"#utility.yul\":5343:5357   */\n      add\n        /* \"#utility.yul\":5329:5341   */\n      dup3\n        /* \"#utility.yul\":5279:5358   */\n      tag_357\n      jump\t// in\n    tag_440:\n        /* \"#utility.yul\":5184:5368   */\n      pop\n        /* \"#utility.yul\":5451:5455   */\n      0x20\n        /* \"#utility.yul\":5444:5449   */\n      dup3\n        /* \"#utility.yul\":5440:5456   */\n      add\n        /* \"#utility.yul\":5434:5457   */\n      mload\n        /* \"#utility.yul\":5470:5533   */\n      tag_441\n        /* \"#utility.yul\":5527:5531   */\n      0x20\n        /* \"#utility.yul\":5522:5525   */\n      dup6\n        /* \"#utility.yul\":5518:5532   */\n      add\n        /* \"#utility.yul\":5504:5516   */\n      dup3\n        /* \"#utility.yul\":5470:5533   */\n      tag_342\n      jump\t// in\n    tag_441:\n        /* \"#utility.yul\":5378:5543   */\n      pop\n        /* \"#utility.yul\":5630:5634   */\n      0x40\n        /* \"#utility.yul\":5623:5628   */\n      dup3\n        /* \"#utility.yul\":5619:5635   */\n      add\n        /* \"#utility.yul\":5613:5636   */\n      mload\n        /* \"#utility.yul\":5649:5712   */\n      tag_442\n        /* \"#utility.yul\":5706:5710   */\n      0x40\n        /* \"#utility.yul\":5701:5704   */\n      dup6\n        /* \"#utility.yul\":5697:5711   */\n      add\n        /* \"#utility.yul\":5683:5695   */\n      dup3\n        /* \"#utility.yul\":5649:5712   */\n      tag_342\n      jump\t// in\n    tag_442:\n        /* \"#utility.yul\":5553:5722   */\n      pop\n        /* \"#utility.yul\":5805:5809   */\n      0x60\n        /* \"#utility.yul\":5798:5803   */\n      dup3\n        /* \"#utility.yul\":5794:5810   */\n      add\n        /* \"#utility.yul\":5788:5811   */\n      mload\n        /* \"#utility.yul\":5824:5892   */\n      tag_443\n        /* \"#utility.yul\":5886:5890   */\n      0x60\n        /* \"#utility.yul\":5881:5884   */\n      dup6\n        /* \"#utility.yul\":5877:5891   */\n      add\n        /* \"#utility.yul\":5863:5875   */\n      dup3\n        /* \"#utility.yul\":5824:5892   */\n      tag_361\n      jump\t// in\n    tag_443:\n        /* \"#utility.yul\":5732:5902   */\n      pop\n        /* \"#utility.yul\":5138:5909   */\n      pop\n        /* \"#utility.yul\":5040:5909   */\n      pop\n      pop\n      jump\t// out\n        /* \"#utility.yul\":5915:6178   */\n    tag_363:\n        /* \"#utility.yul\":6026:6036   */\n      0x00\n        /* \"#utility.yul\":6047:6135   */\n      tag_445\n        /* \"#utility.yul\":6131:6134   */\n      dup4\n        /* \"#utility.yul\":6123:6129   */\n      dup4\n        /* \"#utility.yul\":6047:6135   */\n      tag_362\n      jump\t// in\n    tag_445:\n        /* \"#utility.yul\":6167:6171   */\n      0x80\n        /* \"#utility.yul\":6162:6165   */\n      dup4\n        /* \"#utility.yul\":6158:6172   */\n      add\n        /* \"#utility.yul\":6144:6172   */\n      swap1\n      pop\n        /* \"#utility.yul\":5915:6178   */\n      swap3\n      swap2\n      pop\n      pop\n      jump\t// out\n        /* \"#utility.yul\":6184:6318   */\n    tag_364:\n        /* \"#utility.yul\":6275:6279   */\n      0x00\n        /* \"#utility.yul\":6307:6311   */\n      0x20\n        /* \"#utility.yul\":6302:6305   */\n      dup3\n        /* \"#utility.yul\":6298:6312   */\n      add\n        /* \"#utility.yul\":6290:6312   */\n      swap1\n      pop\n        /* \"#utility.yul\":6184:6318   */\n      swap2\n      swap1\n      pop\n      jump\t// out\n        /* \"#utility.yul\":6384:7284   */\n    tag_365:\n        /* \"#utility.yul\":6545:6548   */\n      0x00\n        /* \"#utility.yul\":6574:6649   */\n      tag_448\n        /* \"#utility.yul\":6643:6648   */\n      dup3\n        /* \"#utility.yul\":6574:6649   */\n      tag_352\n      jump\t// in\n    tag_448:\n        /* \"#utility.yul\":6665:6772   */\n      tag_449\n        /* \"#utility.yul\":6765:6771   */\n      dup2\n        /* \"#utility.yul\":6760:6763   */\n      dup6\n        /* \"#utility.yul\":6665:6772   */\n      tag_353\n      jump\t// in\n    tag_449:\n        /* \"#utility.yul\":6658:6772   */\n      swap4\n      pop\n        /* \"#utility.yul\":6796:6873   */\n      tag_450\n        /* \"#utility.yul\":6867:6872   */\n      dup4\n        /* \"#utility.yul\":6796:6873   */\n      tag_354\n      jump\t// in\n    tag_450:\n        /* \"#utility.yul\":6896:6903   */\n      dup1\n        /* \"#utility.yul\":6927:6928   */\n      0x00\n        /* \"#utility.yul\":6912:7259   */\n    tag_451:\n        /* \"#utility.yul\":6937:6943   */\n      dup4\n        /* \"#utility.yul\":6934:6935   */\n      dup2\n        /* \"#utility.yul\":6931:6944   */\n      lt\n        /* \"#utility.yul\":6912:7259   */\n      iszero\n      tag_453\n      jumpi\n        /* \"#utility.yul\":7013:7019   */\n      dup2\n        /* \"#utility.yul\":7007:7020   */\n      mload\n        /* \"#utility.yul\":7040:7145   */\n      tag_454\n        /* \"#utility.yul\":7141:7144   */\n      dup9\n        /* \"#utility.yul\":7126:7139   */\n      dup3\n        /* \"#utility.yul\":7040:7145   */\n      tag_363\n      jump\t// in\n    tag_454:\n        /* \"#utility.yul\":7033:7145   */\n      swap8\n      pop\n        /* \"#utility.yul\":7168:7249   */\n      tag_455\n        /* \"#utility.yul\":7242:7248   */\n      dup4\n        /* \"#utility.yul\":7168:7249   */\n      tag_364\n      jump\t// in\n    tag_455:\n        /* \"#utility.yul\":7158:7249   */\n      swap3\n      pop\n        /* \"#utility.yul\":6972:7259   */\n      pop\n        /* \"#utility.yul\":6959:6960   */\n      0x01\n        /* \"#utility.yul\":6956:6957   */\n      dup2\n        /* \"#utility.yul\":6952:6961   */\n      add\n        /* \"#utility.yul\":6947:6961   */\n      swap1\n      pop\n        /* \"#utility.yul\":6912:7259   */\n      jump(tag_451)\n    tag_453:\n        /* \"#utility.yul\":6916:6930   */\n      pop\n        /* \"#utility.yul\":7275:7278   */\n      dup6\n        /* \"#utility.yul\":7268:7278   */\n      swap4\n      pop\n        /* \"#utility.yul\":6550:7284   */\n      pop\n      pop\n      pop\n        /* \"#utility.yul\":6384:7284   */\n      swap3\n      swap2\n      pop\n      pop\n      jump\t// out\n        /* \"#utility.yul\":7290:7747   */\n    tag_35:\n        /* \"#utility.yul\":7475:7479   */\n      0x00\n        /* \"#utility.yul\":7513:7515   */\n      0x20\n        /* \"#utility.yul\":7502:7511   */\n      dup3\n        /* \"#utility.yul\":7498:7516   */\n      add\n        /* \"#utility.yul\":7490:7516   */\n      swap1\n      pop\n        /* \"#utility.yul\":7562:7571   */\n      dup2\n        /* \"#utility.yul\":7556:7560   */\n      dup2\n        /* \"#utility.yul\":7552:7572   */\n      sub\n        /* \"#utility.yul\":7548:7549   */\n      0x00\n        /* \"#utility.yul\":7537:7546   */\n      dup4\n        /* \"#utility.yul\":7533:7550   */\n      add\n        /* \"#utility.yul\":7526:7573   */\n      mstore\n        /* \"#utility.yul\":7590:7740   */\n      tag_457\n        /* \"#utility.yul\":7735:7739   */\n      dup2\n        /* \"#utility.yul\":7726:7732   */\n      dup5\n        /* \"#utility.yul\":7590:7740   */\n      tag_365\n      jump\t// in\n    tag_457:\n        /* \"#utility.yul\":7582:7740   */\n      swap1\n      pop\n        /* \"#utility.yul\":7290:7747   */\n      swap3\n      swap2\n      pop\n      pop\n      jump\t// out\n        /* \"#utility.yul\":7753:7895   */\n    tag_366:\n        /* \"#utility.yul\":7856:7888   */\n      tag_459\n        /* \"#utility.yul\":7882:7887   */\n      dup2\n        /* \"#utility.yul\":7856:7888   */\n      tag_356\n      jump\t// in\n    tag_459:\n        /* \"#utility.yul\":7851:7854   */\n      dup3\n        /* \"#utility.yul\":7844:7889   */\n      mstore\n        /* \"#utility.yul\":7753:7895   */\n      pop\n      pop\n      jump\t// out\n        /* \"#utility.yul\":7901:8155   */\n    tag_41:\n        /* \"#utility.yul\":8010:8014   */\n      0x00\n        /* \"#utility.yul\":8048:8050   */\n      0x20\n        /* \"#utility.yul\":8037:8046   */\n      dup3\n        /* \"#utility.yul\":8033:8051   */\n      add\n        /* \"#utility.yul\":8025:8051   */\n      swap1\n      pop\n        /* \"#utility.yul\":8061:8148   */\n      tag_461\n        /* \"#utility.yul\":8145:8146   */\n      0x00\n        /* \"#utility.yul\":8134:8143   */\n      dup4\n        /* \"#utility.yul\":8130:8147   */\n      add\n        /* \"#utility.yul\":8121:8127   */\n      dup5\n        /* \"#utility.yul\":8061:8148   */\n      tag_366\n      jump\t// in\n    tag_461:\n        /* \"#utility.yul\":7901:8155   */\n      swap3\n      swap2\n      pop\n      pop\n      jump\t// out\n        /* \"#utility.yul\":8161:8341   */\n    tag_78:\n        /* \"#utility.yul\":8209:8286   */\n      0x4e487b7100000000000000000000000000000000000000000000000000000000\n        /* \"#utility.yul\":8206:8207   */\n      0x00\n        /* \"#utility.yul\":8199:8287   */\n      mstore\n        /* \"#utility.yul\":8306:8310   */\n      0x32\n        /* \"#utility.yul\":8303:8304   */\n      0x04\n        /* \"#utility.yul\":8296:8311   */\n      mstore\n        /* \"#utility.yul\":8330:8334   */\n      0x24\n        /* \"#utility.yul\":8327:8328   */\n      0x00\n        /* \"#utility.yul\":8320:8335   */\n      revert\n        /* \"#utility.yul\":8347:8527   */\n    tag_367:\n        /* \"#utility.yul\":8395:8472   */\n      0x4e487b7100000000000000000000000000000000000000000000000000000000\n        /* \"#utility.yul\":8392:8393   */\n      0x00\n        /* \"#utility.yul\":8385:8473   */\n      mstore\n        /* \"#utility.yul\":8492:8496   */\n      0x11\n        /* \"#utility.yul\":8489:8490   */\n      0x04\n        /* \"#utility.yul\":8482:8497   */\n      mstore\n        /* \"#utility.yul\":8516:8520   */\n      0x24\n        /* \"#utility.yul\":8513:8514   */\n      0x00\n        /* \"#utility.yul\":8506:8521   */\n      revert\n        /* \"#utility.yul\":8533:8766   */\n    tag_83:\n        /* \"#utility.yul\":8572:8575   */\n      0x00\n        /* \"#utility.yul\":8595:8619   */\n      tag_465\n        /* \"#utility.yul\":8613:8618   */\n      dup3\n        /* \"#utility.yul\":8595:8619   */\n      tag_341\n      jump\t// in\n    tag_465:\n        /* \"#utility.yul\":8586:8619   */\n      swap2\n      pop\n        /* \"#utility.yul\":8641:8707   */\n      0xffffffffffffffffffffffffffffffffffffffffffffffffffffffffffffffff\n        /* \"#utility.yul\":8634:8639   */\n      dup3\n        /* \"#utility.yul\":8631:8708   */\n      sub\n        /* \"#utility.yul\":8628:8731   */\n      tag_466\n      jumpi\n        /* \"#utility.yul\":8711:8729   */\n      tag_467\n      tag_367\n      jump\t// in\n    tag_467:\n        /* \"#utility.yul\":8628:8731   */\n    tag_466:\n        /* \"#utility.yul\":8758:8759   */\n      0x01\n        /* \"#utility.yul\":8751:8756   */\n      dup3\n        /* \"#utility.yul\":8747:8760   */\n      add\n        /* \"#utility.yul\":8740:8760   */\n      swap1\n      pop\n        /* \"#utility.yul\":8533:8766   */\n      swap2\n      swap1\n      pop\n      jump\t// out\n        /* \"#utility.yul\":8772:8941   */\n    tag_368:\n        /* \"#utility.yul\":8856:8867   */\n      0x00\n        /* \"#utility.yul\":8890:8896   */\n      dup3\n        /* \"#utility.yul\":8885:8888   */\n      dup3\n        /* \"#utility.yul\":8878:8897   */\n      mstore\n        /* \"#utility.yul\":8930:8934   */\n      0x20\n        /* \"#utility.yul\":8925:8928   */\n      dup3\n        /* \"#utility.yul\":8921:8935   */\n      add\n        /* \"#utility.yul\":8906:8935   */\n      swap1\n      pop\n        /* \"#utility.yul\":8772:8941   */\n      swap3\n      swap2\n      pop\n      pop\n      jump\t// out\n        /* \"#utility.yul\":8947:9110   */\n    tag_369:\n        /* \"#utility.yul\":9087:9102   */\n      0x4f726465722050656e64696e6700000000000000000000000000000000000000\n        /* \"#utility.yul\":9083:9084   */\n      0x00\n        /* \"#utility.yul\":9075:9081   */\n      dup3\n        /* \"#utility.yul\":9071:9085   */\n      add\n        /* \"#utility.yul\":9064:9103   */\n      mstore\n        /* \"#utility.yul\":8947:9110   */\n      pop\n      jump\t// out\n        /* \"#utility.yul\":9116:9482   */\n    tag_370:\n        /* \"#utility.yul\":9258:9261   */\n      0x00\n        /* \"#utility.yul\":9279:9346   */\n      tag_471\n        /* \"#utility.yul\":9343:9345   */\n      0x0d\n        /* \"#utility.yul\":9338:9341   */\n      dup4\n        /* \"#utility.yul\":9279:9346   */\n      tag_368\n      jump\t// in\n    tag_471:\n        /* \"#utility.yul\":9272:9346   */\n      swap2\n      pop\n        /* \"#utility.yul\":9355:9448   */\n      tag_472\n        /* \"#utility.yul\":9444:9447   */\n      dup3\n        /* \"#utility.yul\":9355:9448   */\n      tag_369\n      jump\t// in\n    tag_472:\n        /* \"#utility.yul\":9473:9475   */\n      0x20\n        /* \"#utility.yul\":9468:9471   */\n      dup3\n        /* \"#utility.yul\":9464:9476   */\n      add\n        /* \"#utility.yul\":9457:9476   */\n      swap1\n      pop\n        /* \"#utility.yul\":9116:9482   */\n      swap2\n      swap1\n      pop\n      jump\t// out\n        /* \"#utility.yul\":9488:9907   */\n    tag_101:\n        /* \"#utility.yul\":9654:9658   */\n      0x00\n        /* \"#utility.yul\":9692:9694   */\n      0x20\n        /* \"#utility.yul\":9681:9690   */\n      dup3\n        /* \"#utility.yul\":9677:9695   */\n      add\n        /* \"#utility.yul\":9669:9695   */\n      swap1\n      pop\n        /* \"#utility.yul\":9741:9750   */\n      dup2\n        /* \"#utility.yul\":9735:9739   */\n      dup2\n        /* \"#utility.yul\":9731:9751   */\n      sub\n        /* \"#utility.yul\":9727:9728   */\n      0x00\n        /* \"#utility.yul\":9716:9725   */\n      dup4\n        /* \"#utility.yul\":9712:9729   */\n      add\n        /* \"#utility.yul\":9705:9752   */\n      mstore\n        /* \"#utility.yul\":9769:9900   */\n      tag_474\n        /* \"#utility.yul\":9895:9899   */\n      dup2\n        /* \"#utility.yul\":9769:9900   */\n      tag_370\n      jump\t// in\n    tag_474:\n        /* \"#utility.yul\":9761:9900   */\n      swap1\n      pop\n        /* \"#utility.yul\":9488:9907   */\n      swap2\n      swap1\n      pop\n      jump\t// out\n        /* \"#utility.yul\":9913:10077   */\n    tag_371:\n        /* \"#utility.yul\":10053:10069   */\n      0x4e6f7420417574686f7269736564000000000000000000000000000000000000\n        /* \"#utility.yul\":10049:10050   */\n      0x00\n        /* \"#utility.yul\":10041:10047   */\n      dup3\n        /* \"#utility.yul\":10037:10051   */\n      add\n        /* \"#utility.yul\":10030:10070   */\n      mstore\n        /* \"#utility.yul\":9913:10077   */\n      pop\n      jump\t// out\n        /* \"#utility.yul\":10083:10449   */\n    tag_372:\n        /* \"#utility.yul\":10225:10228   */\n      0x00\n        /* \"#utility.yul\":10246:10313   */\n      tag_477\n        /* \"#utility.yul\":10310:10312   */\n      0x0e\n        /* \"#utility.yul\":10305:10308   */\n      dup4\n        /* \"#utility.yul\":10246:10313   */\n      tag_368\n      jump\t// in\n    tag_477:\n        /* \"#utility.yul\":10239:10313   */\n      swap2\n      pop\n        /* \"#utility.yul\":10322:10415   */\n      tag_478\n        /* \"#utility.yul\":10411:10414   */\n      dup3\n        /* \"#utility.yul\":10322:10415   */\n      tag_371\n      jump\t// in\n    tag_478:\n        /* \"#utility.yul\":10440:10442   */\n      0x20\n        /* \"#utility.yul\":10435:10438   */\n      dup3\n        /* \"#utility.yul\":10431:10443   */\n      add\n        /* \"#utility.yul\":10424:10443   */\n      swap1\n      pop\n        /* \"#utility.yul\":10083:10449   */\n      swap2\n      swap1\n      pop\n      jump\t// out\n        /* \"#utility.yul\":10455:10874   */\n    tag_112:\n        /* \"#utility.yul\":10621:10625   */\n      0x00\n        /* \"#utility.yul\":10659:10661   */\n      0x20\n        /* \"#utility.yul\":10648:10657   */\n      dup3\n        /* \"#utility.yul\":10644:10662   */\n      add\n        /* \"#utility.yul\":10636:10662   */\n      swap1\n      pop\n        /* \"#utility.yul\":10708:10717   */\n      dup2\n        /* \"#utility.yul\":10702:10706   */\n      dup2\n        /* \"#utility.yul\":10698:10718   */\n      sub\n        /* \"#utility.yul\":10694:10695   */\n      0x00\n        /* \"#utility.yul\":10683:10692   */\n      dup4\n        /* \"#utility.yul\":10679:10696   */\n      add\n        /* \"#utility.yul\":10672:10719   */\n      mstore\n        /* \"#utility.yul\":10736:10867   */\n      tag_480\n        /* \"#utility.yul\":10862:10866   */\n      dup2\n        /* \"#utility.yul\":10736:10867   */\n      tag_372\n      jump\t// in\n    tag_480:\n        /* \"#utility.yul\":10728:10867   */\n      swap1\n      pop\n        /* \"#utility.yul\":10455:10874   */\n      swap2\n      swap1\n      pop\n      jump\t// out\n        /* \"#utility.yul\":10880:11061   */\n    tag_373:\n        /* \"#utility.yul\":11020:11053   */\n      0x70726963652076616c7565206d757374206265206d6f7265207468616e203000\n        /* \"#utility.yul\":11016:11017   */\n      0x00\n        /* \"#utility.yul\":11008:11014   */\n      dup3\n        /* \"#utility.yul\":11004:11018   */\n      add\n        /* \"#utility.yul\":10997:11054   */\n      mstore\n        /* \"#utility.yul\":10880:11061   */\n      pop\n      jump\t// out\n        /* \"#utility.yul\":11067:11433   */\n    tag_374:\n        /* \"#utility.yul\":11209:11212   */\n      0x00\n        /* \"#utility.yul\":11230:11297   */\n      tag_483\n        /* \"#utility.yul\":11294:11296   */\n      0x1f\n        /* \"#utility.yul\":11289:11292   */\n      dup4\n        /* \"#utility.yul\":11230:11297   */\n      tag_368\n      jump\t// in\n    tag_483:\n        /* \"#utility.yul\":11223:11297   */\n      swap2\n      pop\n        /* \"#utility.yul\":11306:11399   */\n      tag_484\n        /* \"#utility.yul\":11395:11398   */\n      dup3\n        /* \"#utility.yul\":11306:11399   */\n      tag_373\n      jump\t// in\n    tag_484:\n        /* \"#utility.yul\":11424:11426   */\n      0x20\n        /* \"#utility.yul\":11419:11422   */\n      dup3\n        /* \"#utility.yul\":11415:11427   */\n      add\n        /* \"#utility.yul\":11408:11427   */\n      swap1\n      pop\n        /* \"#utility.yul\":11067:11433   */\n      swap2\n      swap1\n      pop\n      jump\t// out\n        /* \"#utility.yul\":11439:11858   */\n    tag_143:\n        /* \"#utility.yul\":11605:11609   */\n      0x00\n        /* \"#utility.yul\":11643:11645   */\n      0x20\n        /* \"#utility.yul\":11632:11641   */\n      dup3\n        /* \"#utility.yul\":11628:11646   */\n      add\n        /* \"#utility.yul\":11620:11646   */\n      swap1\n      pop\n        /* \"#utility.yul\":11692:11701   */\n      dup2\n        /* \"#utility.yul\":11686:11690   */\n      dup2\n        /* \"#utility.yul\":11682:11702   */\n      sub\n        /* \"#utility.yul\":11678:11679   */\n      0x00\n        /* \"#utility.yul\":11667:11676   */\n      dup4\n        /* \"#utility.yul\":11663:11680   */\n      add\n        /* \"#utility.yul\":11656:11703   */\n      mstore\n        /* \"#utility.yul\":11720:11851   */\n      tag_486\n        /* \"#utility.yul\":11846:11850   */\n      dup2\n        /* \"#utility.yul\":11720:11851   */\n      tag_374\n      jump\t// in\n    tag_486:\n        /* \"#utility.yul\":11712:11851   */\n      swap1\n      pop\n        /* \"#utility.yul\":11439:11858   */\n      swap2\n      swap1\n      pop\n      jump\t// out\n        /* \"#utility.yul\":11864:12044   */\n    tag_375:\n        /* \"#utility.yul\":12004:12036   */\n      0x4e6f7420656e6f75676820626c616e636520746f20706c6163652061736b0000\n        /* \"#utility.yul\":12000:12001   */\n      0x00\n        /* \"#utility.yul\":11992:11998   */\n      dup3\n        /* \"#utility.yul\":11988:12002   */\n      add\n        /* \"#utility.yul\":11981:12037   */\n      mstore\n        /* \"#utility.yul\":11864:12044   */\n      pop\n      jump\t// out\n        /* \"#utility.yul\":12050:12416   */\n    tag_376:\n        /* \"#utility.yul\":12192:12195   */\n      0x00\n        /* \"#utility.yul\":12213:12280   */\n      tag_489\n        /* \"#utility.yul\":12277:12279   */\n      0x1e\n        /* \"#utility.yul\":12272:12275   */\n      dup4\n        /* \"#utility.yul\":12213:12280   */\n      tag_368\n      jump\t// in\n    tag_489:\n        /* \"#utility.yul\":12206:12280   */\n      swap2\n      pop\n        /* \"#utility.yul\":12289:12382   */\n      tag_490\n        /* \"#utility.yul\":12378:12381   */\n      dup3\n        /* \"#utility.yul\":12289:12382   */\n      tag_375\n      jump\t// in\n    tag_490:\n        /* \"#utility.yul\":12407:12409   */\n      0x20\n        /* \"#utility.yul\":12402:12405   */\n      dup3\n        /* \"#utility.yul\":12398:12410   */\n      add\n        /* \"#utility.yul\":12391:12410   */\n      swap1\n      pop\n        /* \"#utility.yul\":12050:12416   */\n      swap2\n      swap1\n      pop\n      jump\t// out\n        /* \"#utility.yul\":12422:12841   */\n    tag_146:\n        /* \"#utility.yul\":12588:12592   */\n      0x00\n        /* \"#utility.yul\":12626:12628   */\n      0x20\n        /* \"#utility.yul\":12615:12624   */\n      dup3\n        /* \"#utility.yul\":12611:12629   */\n      add\n        /* \"#utility.yul\":12603:12629   */\n      swap1\n      pop\n        /* \"#utility.yul\":12675:12684   */\n      dup2\n        /* \"#utility.yul\":12669:12673   */\n      dup2\n        /* \"#utility.yul\":12665:12685   */\n      sub\n        /* \"#utility.yul\":12661:12662   */\n      0x00\n        /* \"#utility.yul\":12650:12659   */\n      dup4\n        /* \"#utility.yul\":12646:12663   */\n      add\n        /* \"#utility.yul\":12639:12686   */\n      mstore\n        /* \"#utility.yul\":12703:12834   */\n      tag_492\n        /* \"#utility.yul\":12829:12833   */\n      dup2\n        /* \"#utility.yul\":12703:12834   */\n      tag_376\n      jump\t// in\n    tag_492:\n        /* \"#utility.yul\":12695:12834   */\n      swap1\n      pop\n        /* \"#utility.yul\":12422:12841   */\n      swap2\n      swap1\n      pop\n      jump\t// out\n        /* \"#utility.yul\":12847:13038   */\n    tag_153:\n        /* \"#utility.yul\":12887:12891   */\n      0x00\n        /* \"#utility.yul\":12907:12927   */\n      tag_494\n        /* \"#utility.yul\":12925:12926   */\n      dup3\n        /* \"#utility.yul\":12907:12927   */\n      tag_341\n      jump\t// in\n    tag_494:\n        /* \"#utility.yul\":12902:12927   */\n      swap2\n      pop\n        /* \"#utility.yul\":12941:12961   */\n      tag_495\n        /* \"#utility.yul\":12959:12960   */\n      dup4\n        /* \"#utility.yul\":12941:12961   */\n      tag_341\n      jump\t// in\n    tag_495:\n        /* \"#utility.yul\":12936:12961   */\n      swap3\n      pop\n        /* \"#utility.yul\":12980:12981   */\n      dup3\n        /* \"#utility.yul\":12977:12978   */\n      dup3\n        /* \"#utility.yul\":12974:12982   */\n      lt\n        /* \"#utility.yul\":12971:13005   */\n      iszero\n      tag_496\n      jumpi\n        /* \"#utility.yul\":12985:13003   */\n      tag_497\n      tag_367\n      jump\t// in\n    tag_497:\n        /* \"#utility.yul\":12971:13005   */\n    tag_496:\n        /* \"#utility.yul\":13030:13031   */\n      dup3\n        /* \"#utility.yul\":13027:13028   */\n      dup3\n        /* \"#utility.yul\":13023:13032   */\n      sub\n        /* \"#utility.yul\":13015:13032   */\n      swap1\n      pop\n        /* \"#utility.yul\":12847:13038   */\n      swap3\n      swap2\n      pop\n      pop\n      jump\t// out\n        /* \"#utility.yul\":13044:13392   */\n    tag_155:\n        /* \"#utility.yul\":13084:13091   */\n      0x00\n        /* \"#utility.yul\":13107:13127   */\n      tag_499\n        /* \"#utility.yul\":13125:13126   */\n      dup3\n        /* \"#utility.yul\":13107:13127   */\n      tag_341\n      jump\t// in\n    tag_499:\n        /* \"#utility.yul\":13102:13127   */\n      swap2\n      pop\n        /* \"#utility.yul\":13141:13161   */\n      tag_500\n        /* \"#utility.yul\":13159:13160   */\n      dup4\n        /* \"#utility.yul\":13141:13161   */\n      tag_341\n      jump\t// in\n    tag_500:\n        /* \"#utility.yul\":13136:13161   */\n      swap3\n      pop\n        /* \"#utility.yul\":13329:13330   */\n      dup2\n        /* \"#utility.yul\":13261:13327   */\n      0xffffffffffffffffffffffffffffffffffffffffffffffffffffffffffffffff\n        /* \"#utility.yul\":13257:13331   */\n      div\n        /* \"#utility.yul\":13254:13255   */\n      dup4\n        /* \"#utility.yul\":13251:13332   */\n      gt\n        /* \"#utility.yul\":13246:13247   */\n      dup3\n        /* \"#utility.yul\":13239:13248   */\n      iszero\n        /* \"#utility.yul\":13232:13249   */\n      iszero\n        /* \"#utility.yul\":13228:13333   */\n      and\n        /* \"#utility.yul\":13225:13356   */\n      iszero\n      tag_501\n      jumpi\n        /* \"#utility.yul\":13336:13354   */\n      tag_502\n      tag_367\n      jump\t// in\n    tag_502:\n        /* \"#utility.yul\":13225:13356   */\n    tag_501:\n        /* \"#utility.yul\":13384:13385   */\n      dup3\n        /* \"#utility.yul\":13381:13382   */\n      dup3\n        /* \"#utility.yul\":13377:13386   */\n      mul\n        /* \"#utility.yul\":13366:13386   */\n      swap1\n      pop\n        /* \"#utility.yul\":13044:13392   */\n      swap3\n      swap2\n      pop\n      pop\n      jump\t// out\n        /* \"#utility.yul\":13398:13578   */\n    tag_377:\n        /* \"#utility.yul\":13446:13523   */\n      0x4e487b7100000000000000000000000000000000000000000000000000000000\n        /* \"#utility.yul\":13443:13444   */\n      0x00\n        /* \"#utility.yul\":13436:13524   */\n      mstore\n        /* \"#utility.yul\":13543:13547   */\n      0x12\n        /* \"#utility.yul\":13540:13541   */\n      0x04\n        /* \"#utility.yul\":13533:13548   */\n      mstore\n        /* \"#utility.yul\":13567:13571   */\n      0x24\n        /* \"#utility.yul\":13564:13565   */\n      0x00\n        /* \"#utility.yul\":13557:13572   */\n      revert\n        /* \"#utility.yul\":13584:13769   */\n    tag_157:\n        /* \"#utility.yul\":13624:13625   */\n      0x00\n        /* \"#utility.yul\":13641:13661   */\n      tag_505\n        /* \"#utility.yul\":13659:13660   */\n      dup3\n        /* \"#utility.yul\":13641:13661   */\n      tag_341\n      jump\t// in\n    tag_505:\n        /* \"#utility.yul\":13636:13661   */\n      swap2\n      pop\n        /* \"#utility.yul\":13675:13695   */\n      tag_506\n        /* \"#utility.yul\":13693:13694   */\n      dup4\n        /* \"#utility.yul\":13675:13695   */\n      tag_341\n      jump\t// in\n    tag_506:\n        /* \"#utility.yul\":13670:13695   */\n      swap3\n      pop\n        /* \"#utility.yul\":13714:13715   */\n      dup3\n        /* \"#utility.yul\":13704:13739   */\n      tag_507\n      jumpi\n        /* \"#utility.yul\":13719:13737   */\n      tag_508\n      tag_377\n      jump\t// in\n    tag_508:\n        /* \"#utility.yul\":13704:13739   */\n    tag_507:\n        /* \"#utility.yul\":13761:13762   */\n      dup3\n        /* \"#utility.yul\":13758:13759   */\n      dup3\n        /* \"#utility.yul\":13754:13763   */\n      div\n        /* \"#utility.yul\":13749:13763   */\n      swap1\n      pop\n        /* \"#utility.yul\":13584:13769   */\n      swap3\n      swap2\n      pop\n      pop\n      jump\t// out\n        /* \"#utility.yul\":13775:13871   */\n    tag_378:\n        /* \"#utility.yul\":13812:13819   */\n      0x00\n        /* \"#utility.yul\":13841:13865   */\n      tag_510\n        /* \"#utility.yul\":13859:13864   */\n      dup3\n        /* \"#utility.yul\":13841:13865   */\n      tag_355\n      jump\t// in\n    tag_510:\n        /* \"#utility.yul\":13830:13865   */\n      swap1\n      pop\n        /* \"#utility.yul\":13775:13871   */\n      swap2\n      swap1\n      pop\n      jump\t// out\n        /* \"#utility.yul\":13877:13995   */\n    tag_379:\n        /* \"#utility.yul\":13964:13988   */\n      tag_512\n        /* \"#utility.yul\":13982:13987   */\n      dup2\n        /* \"#utility.yul\":13964:13988   */\n      tag_378\n      jump\t// in\n    tag_512:\n        /* \"#utility.yul\":13959:13962   */\n      dup3\n        /* \"#utility.yul\":13952:13989   */\n      mstore\n        /* \"#utility.yul\":13877:13995   */\n      pop\n      pop\n      jump\t// out\n        /* \"#utility.yul\":14001:14142   */\n    tag_380:\n        /* \"#utility.yul\":14093:14135   */\n      tag_514\n        /* \"#utility.yul\":14129:14134   */\n      dup2\n        /* \"#utility.yul\":14093:14135   */\n      tag_360\n      jump\t// in\n    tag_514:\n        /* \"#utility.yul\":14088:14091   */\n      dup3\n        /* \"#utility.yul\":14081:14136   */\n      mstore\n        /* \"#utility.yul\":14001:14142   */\n      pop\n      pop\n      jump\t// out\n        /* \"#utility.yul\":14148:14711   */\n    tag_161:\n        /* \"#utility.yul\":14330:14334   */\n      0x00\n        /* \"#utility.yul\":14368:14371   */\n      0x80\n        /* \"#utility.yul\":14357:14366   */\n      dup3\n        /* \"#utility.yul\":14353:14372   */\n      add\n        /* \"#utility.yul\":14345:14372   */\n      swap1\n      pop\n        /* \"#utility.yul\":14382:14453   */\n      tag_516\n        /* \"#utility.yul\":14450:14451   */\n      0x00\n        /* \"#utility.yul\":14439:14448   */\n      dup4\n        /* \"#utility.yul\":14435:14452   */\n      add\n        /* \"#utility.yul\":14426:14432   */\n      dup8\n        /* \"#utility.yul\":14382:14453   */\n      tag_379\n      jump\t// in\n    tag_516:\n        /* \"#utility.yul\":14463:14535   */\n      tag_517\n        /* \"#utility.yul\":14531:14533   */\n      0x20\n        /* \"#utility.yul\":14520:14529   */\n      dup4\n        /* \"#utility.yul\":14516:14534   */\n      add\n        /* \"#utility.yul\":14507:14513   */\n      dup7\n        /* \"#utility.yul\":14463:14535   */\n      tag_351\n      jump\t// in\n    tag_517:\n        /* \"#utility.yul\":14545:14617   */\n      tag_518\n        /* \"#utility.yul\":14613:14615   */\n      0x40\n        /* \"#utility.yul\":14602:14611   */\n      dup4\n        /* \"#utility.yul\":14598:14616   */\n      add\n        /* \"#utility.yul\":14589:14595   */\n      dup6\n        /* \"#utility.yul\":14545:14617   */\n      tag_351\n      jump\t// in\n    tag_518:\n        /* \"#utility.yul\":14627:14704   */\n      tag_519\n        /* \"#utility.yul\":14700:14702   */\n      0x60\n        /* \"#utility.yul\":14689:14698   */\n      dup4\n        /* \"#utility.yul\":14685:14703   */\n      add\n        /* \"#utility.yul\":14676:14682   */\n      dup5\n        /* \"#utility.yul\":14627:14704   */\n      tag_380\n      jump\t// in\n    tag_519:\n        /* \"#utility.yul\":14148:14711   */\n      swap6\n      swap5\n      pop\n      pop\n      pop\n      pop\n      pop\n      jump\t// out\n        /* \"#utility.yul\":14717:14897   */\n    tag_381:\n        /* \"#utility.yul\":14857:14889   */\n      0x4e6f7420656e6f75676820626c616e636520746f20706c616365206269640000\n        /* \"#utility.yul\":14853:14854   */\n      0x00\n        /* \"#utility.yul\":14845:14851   */\n      dup3\n        /* \"#utility.yul\":14841:14855   */\n      add\n        /* \"#utility.yul\":14834:14890   */\n      mstore\n        /* \"#utility.yul\":14717:14897   */\n      pop\n      jump\t// out\n        /* \"#utility.yul\":14903:15269   */\n    tag_382:\n        /* \"#utility.yul\":15045:15048   */\n      0x00\n        /* \"#utility.yul\":15066:15133   */\n      tag_522\n        /* \"#utility.yul\":15130:15132   */\n      0x1e\n        /* \"#utility.yul\":15125:15128   */\n      dup4\n        /* \"#utility.yul\":15066:15133   */\n      tag_368\n      jump\t// in\n    tag_522:\n        /* \"#utility.yul\":15059:15133   */\n      swap2\n      pop\n        /* \"#utility.yul\":15142:15235   */\n      tag_523\n        /* \"#utility.yul\":15231:15234   */\n      dup3\n        /* \"#utility.yul\":15142:15235   */\n      tag_381\n      jump\t// in\n    tag_523:\n        /* \"#utility.yul\":15260:15262   */\n      0x20\n        /* \"#utility.yul\":15255:15258   */\n      dup3\n        /* \"#utility.yul\":15251:15263   */\n      add\n        /* \"#utility.yul\":15244:15263   */\n      swap1\n      pop\n        /* \"#utility.yul\":14903:15269   */\n      swap2\n      swap1\n      pop\n      jump\t// out\n        /* \"#utility.yul\":15275:15694   */\n    tag_198:\n        /* \"#utility.yul\":15441:15445   */\n      0x00\n        /* \"#utility.yul\":15479:15481   */\n      0x20\n        /* \"#utility.yul\":15468:15477   */\n      dup3\n        /* \"#utility.yul\":15464:15482   */\n      add\n        /* \"#utility.yul\":15456:15482   */\n      swap1\n      pop\n        /* \"#utility.yul\":15528:15537   */\n      dup2\n        /* \"#utility.yul\":15522:15526   */\n      dup2\n        /* \"#utility.yul\":15518:15538   */\n      sub\n        /* \"#utility.yul\":15514:15515   */\n      0x00\n        /* \"#utility.yul\":15503:15512   */\n      dup4\n        /* \"#utility.yul\":15499:15516   */\n      add\n        /* \"#utility.yul\":15492:15539   */\n      mstore\n        /* \"#utility.yul\":15556:15687   */\n      tag_525\n        /* \"#utility.yul\":15682:15686   */\n      dup2\n        /* \"#utility.yul\":15556:15687   */\n      tag_382\n      jump\t// in\n    tag_525:\n        /* \"#utility.yul\":15548:15687   */\n      swap1\n      pop\n        /* \"#utility.yul\":15275:15694   */\n      swap2\n      swap1\n      pop\n      jump\t// out\n        /* \"#utility.yul\":15700:15776   */\n    tag_383:\n        /* \"#utility.yul\":15736:15743   */\n      0x00\n        /* \"#utility.yul\":15765:15770   */\n      dup2\n        /* \"#utility.yul\":15754:15770   */\n      swap1\n      pop\n        /* \"#utility.yul\":15700:15776   */\n      swap2\n      swap1\n      pop\n      jump\t// out\n        /* \"#utility.yul\":15782:16309   */\n    tag_268:\n        /* \"#utility.yul\":15821:15825   */\n      0x00\n        /* \"#utility.yul\":15841:15860   */\n      tag_528\n        /* \"#utility.yul\":15858:15859   */\n      dup3\n        /* \"#utility.yul\":15841:15860   */\n      tag_383\n      jump\t// in\n    tag_528:\n        /* \"#utility.yul\":15836:15860   */\n      swap2\n      pop\n        /* \"#utility.yul\":15874:15893   */\n      tag_529\n        /* \"#utility.yul\":15891:15892   */\n      dup4\n        /* \"#utility.yul\":15874:15893   */\n      tag_383\n      jump\t// in\n    tag_529:\n        /* \"#utility.yul\":15869:15893   */\n      swap3\n      pop\n        /* \"#utility.yul\":16063:16064   */\n      dup3\n        /* \"#utility.yul\":15995:16061   */\n      0x8000000000000000000000000000000000000000000000000000000000000000\n        /* \"#utility.yul\":15991:16065   */\n      add\n        /* \"#utility.yul\":15988:15989   */\n      dup3\n        /* \"#utility.yul\":15984:16066   */\n      slt\n        /* \"#utility.yul\":15979:15980   */\n      0x00\n        /* \"#utility.yul\":15976:15977   */\n      dup5\n        /* \"#utility.yul\":15972:15981   */\n      slt\n        /* \"#utility.yul\":15965:15982   */\n      iszero\n        /* \"#utility.yul\":15961:16067   */\n      and\n        /* \"#utility.yul\":15958:16090   */\n      iszero\n      tag_530\n      jumpi\n        /* \"#utility.yul\":16070:16088   */\n      tag_531\n      tag_367\n      jump\t// in\n    tag_531:\n        /* \"#utility.yul\":15958:16090   */\n    tag_530:\n        /* \"#utility.yul\":16249:16250   */\n      dup3\n        /* \"#utility.yul\":16181:16247   */\n      0x7fffffffffffffffffffffffffffffffffffffffffffffffffffffffffffffff\n        /* \"#utility.yul\":16177:16251   */\n      add\n        /* \"#utility.yul\":16174:16175   */\n      dup3\n        /* \"#utility.yul\":16170:16252   */\n      sgt\n        /* \"#utility.yul\":16166:16167   */\n      0x00\n        /* \"#utility.yul\":16163:16164   */\n      dup5\n        /* \"#utility.yul\":16159:16168   */\n      slt\n        /* \"#utility.yul\":16155:16253   */\n      and\n        /* \"#utility.yul\":16152:16276   */\n      iszero\n      tag_532\n      jumpi\n        /* \"#utility.yul\":16256:16274   */\n      tag_533\n      tag_367\n      jump\t// in\n    tag_533:\n        /* \"#utility.yul\":16152:16276   */\n    tag_532:\n        /* \"#utility.yul\":16301:16302   */\n      dup3\n        /* \"#utility.yul\":16298:16299   */\n      dup3\n        /* \"#utility.yul\":16294:16303   */\n      sub\n        /* \"#utility.yul\":16286:16303   */\n      swap1\n      pop\n        /* \"#utility.yul\":15782:16309   */\n      swap3\n      swap2\n      pop\n      pop\n      jump\t// out\n        /* \"#utility.yul\":16315:16700   */\n    tag_270:\n        /* \"#utility.yul\":16354:16355   */\n      0x00\n        /* \"#utility.yul\":16371:16390   */\n      tag_535\n        /* \"#utility.yul\":16388:16389   */\n      dup3\n        /* \"#utility.yul\":16371:16390   */\n      tag_383\n      jump\t// in\n    tag_535:\n        /* \"#utility.yul\":16366:16390   */\n      swap2\n      pop\n        /* \"#utility.yul\":16404:16423   */\n      tag_536\n        /* \"#utility.yul\":16421:16422   */\n      dup4\n        /* \"#utility.yul\":16404:16423   */\n      tag_383\n      jump\t// in\n    tag_536:\n        /* \"#utility.yul\":16399:16423   */\n      swap3\n      pop\n        /* \"#utility.yul\":16442:16443   */\n      dup3\n        /* \"#utility.yul\":16432:16467   */\n      tag_537\n      jumpi\n        /* \"#utility.yul\":16447:16465   */\n      tag_538\n      tag_377\n      jump\t// in\n    tag_538:\n        /* \"#utility.yul\":16432:16467   */\n    tag_537:\n        /* \"#utility.yul\":16633:16634   */\n      0x01\n        /* \"#utility.yul\":16630:16631   */\n      0x00\n        /* \"#utility.yul\":16626:16635   */\n      sub\n        /* \"#utility.yul\":16623:16624   */\n      dup4\n        /* \"#utility.yul\":16620:16636   */\n      eq\n        /* \"#utility.yul\":16539:16605   */\n      0x8000000000000000000000000000000000000000000000000000000000000000\n        /* \"#utility.yul\":16536:16537   */\n      dup4\n        /* \"#utility.yul\":16533:16606   */\n      eq\n        /* \"#utility.yul\":16516:16646   */\n      and\n        /* \"#utility.yul\":16513:16669   */\n      iszero\n      tag_539\n      jumpi\n        /* \"#utility.yul\":16649:16667   */\n      tag_540\n      tag_367\n      jump\t// in\n    tag_540:\n        /* \"#utility.yul\":16513:16669   */\n    tag_539:\n        /* \"#utility.yul\":16692:16693   */\n      dup3\n        /* \"#utility.yul\":16689:16690   */\n      dup3\n        /* \"#utility.yul\":16684:16694   */\n      sdiv\n        /* \"#utility.yul\":16679:16694   */\n      swap1\n      pop\n        /* \"#utility.yul\":16315:16700   */\n      swap3\n      swap2\n      pop\n      pop\n      jump\t// out\n        /* \"#utility.yul\":16706:17231   */\n    tag_272:\n        /* \"#utility.yul\":16745:16748   */\n      0x00\n        /* \"#utility.yul\":16764:16783   */\n      tag_542\n        /* \"#utility.yul\":16781:16782   */\n      dup3\n        /* \"#utility.yul\":16764:16783   */\n      tag_383\n      jump\t// in\n    tag_542:\n        /* \"#utility.yul\":16759:16783   */\n      swap2\n      pop\n        /* \"#utility.yul\":16797:16816   */\n      tag_543\n        /* \"#utility.yul\":16814:16815   */\n      dup4\n        /* \"#utility.yul\":16797:16816   */\n      tag_383\n      jump\t// in\n    tag_543:\n        /* \"#utility.yul\":16792:16816   */\n      swap3\n      pop\n        /* \"#utility.yul\":16985:16986   */\n      dup2\n        /* \"#utility.yul\":16917:16983   */\n      0x7fffffffffffffffffffffffffffffffffffffffffffffffffffffffffffffff\n        /* \"#utility.yul\":16913:16987   */\n      sub\n        /* \"#utility.yul\":16910:16911   */\n      dup4\n        /* \"#utility.yul\":16906:16988   */\n      sgt\n        /* \"#utility.yul\":16901:16902   */\n      0x00\n        /* \"#utility.yul\":16898:16899   */\n      dup4\n        /* \"#utility.yul\":16894:16903   */\n      slt\n        /* \"#utility.yul\":16887:16904   */\n      iszero\n        /* \"#utility.yul\":16883:16989   */\n      and\n        /* \"#utility.yul\":16880:17012   */\n      iszero\n      tag_544\n      jumpi\n        /* \"#utility.yul\":16992:17010   */\n      tag_545\n      tag_367\n      jump\t// in\n    tag_545:\n        /* \"#utility.yul\":16880:17012   */\n    tag_544:\n        /* \"#utility.yul\":17172:17173   */\n      dup2\n        /* \"#utility.yul\":17104:17170   */\n      0x8000000000000000000000000000000000000000000000000000000000000000\n        /* \"#utility.yul\":17100:17174   */\n      sub\n        /* \"#utility.yul\":17097:17098   */\n      dup4\n        /* \"#utility.yul\":17093:17175   */\n      slt\n        /* \"#utility.yul\":17089:17090   */\n      0x00\n        /* \"#utility.yul\":17086:17087   */\n      dup4\n        /* \"#utility.yul\":17082:17091   */\n      slt\n        /* \"#utility.yul\":17078:17176   */\n      and\n        /* \"#utility.yul\":17075:17199   */\n      iszero\n      tag_546\n      jumpi\n        /* \"#utility.yul\":17179:17197   */\n      tag_547\n      tag_367\n      jump\t// in\n    tag_547:\n        /* \"#utility.yul\":17075:17199   */\n    tag_546:\n        /* \"#utility.yul\":17223:17224   */\n      dup3\n        /* \"#utility.yul\":17220:17221   */\n      dup3\n        /* \"#utility.yul\":17216:17225   */\n      add\n        /* \"#utility.yul\":17209:17225   */\n      swap1\n      pop\n        /* \"#utility.yul\":16706:17231   */\n      swap3\n      swap2\n      pop\n      pop\n      jump\t// out\n        /* \"#utility.yul\":17237:17468   */\n    tag_282:\n        /* \"#utility.yul\":17275:17278   */\n      0x00\n        /* \"#utility.yul\":17298:17321   */\n      tag_549\n        /* \"#utility.yul\":17315:17320   */\n      dup3\n        /* \"#utility.yul\":17298:17321   */\n      tag_383\n      jump\t// in\n    tag_549:\n        /* \"#utility.yul\":17289:17321   */\n      swap2\n      pop\n        /* \"#utility.yul\":17343:17409   */\n      0x7fffffffffffffffffffffffffffffffffffffffffffffffffffffffffffffff\n        /* \"#utility.yul\":17336:17341   */\n      dup3\n        /* \"#utility.yul\":17333:17410   */\n      sub\n        /* \"#utility.yul\":17330:17433   */\n      tag_550\n      jumpi\n        /* \"#utility.yul\":17413:17431   */\n      tag_551\n      tag_367\n      jump\t// in\n    tag_551:\n        /* \"#utility.yul\":17330:17433   */\n    tag_550:\n        /* \"#utility.yul\":17460:17461   */\n      0x01\n        /* \"#utility.yul\":17453:17458   */\n      dup3\n        /* \"#utility.yul\":17449:17462   */\n      add\n        /* \"#utility.yul\":17442:17462   */\n      swap1\n      pop\n        /* \"#utility.yul\":17237:17468   */\n      swap2\n      swap1\n      pop\n      jump\t// out\n        /* \"#utility.yul\":17474:17705   */\n    tag_288:\n        /* \"#utility.yul\":17512:17515   */\n      0x00\n        /* \"#utility.yul\":17535:17558   */\n      tag_553\n        /* \"#utility.yul\":17552:17557   */\n      dup3\n        /* \"#utility.yul\":17535:17558   */\n      tag_383\n      jump\t// in\n    tag_553:\n        /* \"#utility.yul\":17526:17558   */\n      swap2\n      pop\n        /* \"#utility.yul\":17580:17646   */\n      0x8000000000000000000000000000000000000000000000000000000000000000\n        /* \"#utility.yul\":17573:17578   */\n      dup3\n        /* \"#utility.yul\":17570:17647   */\n      sub\n        /* \"#utility.yul\":17567:17670   */\n      tag_554\n      jumpi\n        /* \"#utility.yul\":17650:17668   */\n      tag_555\n      tag_367\n      jump\t// in\n    tag_555:\n        /* \"#utility.yul\":17567:17670   */\n    tag_554:\n        /* \"#utility.yul\":17697:17698   */\n      0x01\n        /* \"#utility.yul\":17690:17695   */\n      dup3\n        /* \"#utility.yul\":17686:17699   */\n      sub\n        /* \"#utility.yul\":17679:17699   */\n      swap1\n      pop\n        /* \"#utility.yul\":17474:17705   */\n      swap2\n      swap1\n      pop\n      jump\t// out\n\n    auxdata: 0xa2646970667358221220f9d2ba062ee24c58a2e6d7076c7db08f525935bf446ba2446a93609127cd3acb64736f6c634300080d0033\n}\n",
				"bytecode": {
					"linkReferences": {},
					"object": "60806040523480156200001157600080fd5b5060405162002439380380620024398339818101604052810190620000379190620000c5565b336000806101000a81548173ffffffffffffffffffffffffffffffffffffffff021916908373ffffffffffffffffffffffffffffffffffffffff1602179055508060018190555050620000f7565b600080fd5b6000819050919050565b6200009f816200008a565b8114620000ab57600080fd5b50565b600081519050620000bf8162000094565b92915050565b600060208284031215620000de57620000dd62000085565b5b6000620000ee84828501620000ae565b91505092915050565b61233280620001076000396000f3fe6080604052600436106100a75760003560e01c806378c5b2681161006457806378c5b268146101e25780639703ef35146101fe5780639979ef4514610227578063c5374af214610243578063ce0cdc871461026e578063db3a139614610299576100a7565b8063122de8f2146100ac5780631628e0f5146100d75780632db6dfa7146101005780634471417f1461013d57806369f632e214610168578063734a2e78146101a5575b600080fd5b3480156100b857600080fd5b506100c16102d6565b6040516100ce91906119e8565b60405180910390f35b3480156100e357600080fd5b506100fe60048036038101906100f99190611a3b565b6103fc565b005b34801561010c57600080fd5b5061012760048036038101906101229190611a3b565b610733565b6040516101349190611a77565b60405180910390f35b34801561014957600080fd5b50610152610762565b60405161015f9190611c4e565b60405180910390f35b34801561017457600080fd5b5061018f600480360381019061018a9190611a3b565b610866565b60405161019c9190611c7f565b60405180910390f35b3480156101b157600080fd5b506101cc60048036038101906101c79190611a3b565b6108b5565b6040516101d99190611c7f565b60405180910390f35b6101fc60048036038101906101f79190611a3b565b610904565b005b34801561020a57600080fd5b5061022560048036038101906102209190611a3b565b610b66565b005b610241600480360381019061023c9190611a3b565b610e9d565b005b34801561024f57600080fd5b506102586110ff565b6040516102659190611c4e565b60405180910390f35b34801561027a57600080fd5b50610283611203565b60405161029091906119e8565b60405180910390f35b3480156102a557600080fd5b506102c060048036038101906102bb9190611a3b565b611329565b6040516102cd9190611a77565b60405180910390f35b60606102e0611358565b60005b6003805490508110156103a5573373ffffffffffffffffffffffffffffffffffffffff166003828154811061031b5761031a611c9a565b5b906000526020600020906004020160000160009054906101000a900473ffffffffffffffffffffffffffffffffffffffff1673ffffffffffffffffffffffffffffffffffffffff16036103925760048190806001815401808255809150506001900390600052602060002001600090919091909150555b808061039d90611cf8565b9150506102e3565b5060048054806020026020016040519081016040528092919081815260200182805480156103f257602002820191906000526020600020905b8154815260200190600101908083116103de575b5050505050905090565b600381815481106104105761040f611c9a565b5b90600052602060002090600402016040518060800160405290816000820160009054906101000a900473ffffffffffffffffffffffffffffffffffffffff1673ffffffffffffffffffffffffffffffffffffffff1673ffffffffffffffffffffffffffffffffffffffff16815260200160018201548152602001600282015481526020016003820160009054906101000a900460ff1660018111156104b8576104b7611aff565b5b60018111156104ca576104c9611aff565b5b81525050600060018111156104e2576104e1611aff565b5b816060015160018111156104f9576104f8611aff565b5b14610539576040517f08c379a000000000000000000000000000000000000000000000000000000000815260040161053090611d9d565b60405180910390fd5b6003828154811061054d5761054c611c9a565b5b90600052602060002090600402016040518060800160405290816000820160009054906101000a900473ffffffffffffffffffffffffffffffffffffffff1673ffffffffffffffffffffffffffffffffffffffff1673ffffffffffffffffffffffffffffffffffffffff16815260200160018201548152602001600282015481526020016003820160009054906101000a900460ff1660018111156105f5576105f4611aff565b5b600181111561060757610606611aff565b5b81525050338073ffffffffffffffffffffffffffffffffffffffff16826000015173ffffffffffffffffffffffffffffffffffffffff161461067e576040517f08c379a000000000000000000000000000000000000000000000000000000000815260040161067590611e09565b60405180910390fd5b6003848154811061069257610691611c9a565b5b9060005260206000209060040201600080820160006101000a81549073ffffffffffffffffffffffffffffffffffffffff0219169055600182016000905560028201600090556003820160006101000a81549060ff021916905550506106f66113a0565b7f48d3043fff66c1aee14954ac5aa463b0297fb08c9b60ee00486fb3387bb58aac846040516107259190611a77565b60405180910390a150505050565b60006002828154811061074957610748611c9a565b5b9060005260206000209060040201600101549050919050565b60606002805480602002602001604051908101604052809291908181526020016000905b8282101561085d57838290600052602060002090600402016040518060800160405290816000820160009054906101000a900473ffffffffffffffffffffffffffffffffffffffff1673ffffffffffffffffffffffffffffffffffffffff1673ffffffffffffffffffffffffffffffffffffffff16815260200160018201548152602001600282015481526020016003820160009054906101000a900460ff16600181111561083857610837611aff565b5b600181111561084a57610849611aff565b5b8152505081526020019060010190610786565b50505050905090565b60006002828154811061087c5761087b611c9a565b5b906000526020600020906004020160000160009054906101000a900473ffffffffffffffffffffffffffffffffffffffff169050919050565b6000600382815481106108cb576108ca611c9a565b5b906000526020600020906004020160000160009054906101000a900473ffffffffffffffffffffffffffffffffffffffff169050919050565b6000811015610948576040517f08c379a000000000000000000000000000000000000000000000000000000000815260040161093f90611e75565b60405180910390fd5b8034101561098b576040517f08c379a000000000000000000000000000000000000000000000000000000000815260040161098290611ee1565b60405180910390fd5b6000429050600060405180608001604052803373ffffffffffffffffffffffffffffffffffffffff168152602001848152602001838152602001600060018111156109d9576109d8611aff565b5b8152509050600381908060018154018082558091505060019003906000526020600020906004020160009091909190915060008201518160000160006101000a81548173ffffffffffffffffffffffffffffffffffffffff021916908373ffffffffffffffffffffffffffffffffffffffff160217905550602082015181600101556040820151816002015560608201518160030160006101000a81548160ff02191690836001811115610a9057610a8f611aff565b5b0217905550505060008054906101000a900473ffffffffffffffffffffffffffffffffffffffff1673ffffffffffffffffffffffffffffffffffffffff166108fc60646001546064610ae29190611f01565b34610aed9190611f35565b610af79190611fbe565b9081150290604051600060405180830381858888f19350505050158015610b22573d6000803e3d6000fd5b507fc2125a7f3edfeff7a3bbcfe393c5aa3a6589585d4a7ee70db48c34f67c8209e23384846000604051610b59949392919061201f565b60405180910390a1505050565b60028181548110610b7a57610b79611c9a565b5b90600052602060002090600402016040518060800160405290816000820160009054906101000a900473ffffffffffffffffffffffffffffffffffffffff1673ffffffffffffffffffffffffffffffffffffffff1673ffffffffffffffffffffffffffffffffffffffff16815260200160018201548152602001600282015481526020016003820160009054906101000a900460ff166001811115610c2257610c21611aff565b5b6001811115610c3457610c33611aff565b5b8152505060006001811115610c4c57610c4b611aff565b5b81606001516001811115610c6357610c62611aff565b5b14610ca3576040517f08c379a0000000000000000000000000000000000000000000000000000000008152600401610c9a90611d9d565b60405180910390fd5b60028281548110610cb757610cb6611c9a565b5b90600052602060002090600402016040518060800160405290816000820160009054906101000a900473ffffffffffffffffffffffffffffffffffffffff1673ffffffffffffffffffffffffffffffffffffffff1673ffffffffffffffffffffffffffffffffffffffff16815260200160018201548152602001600282015481526020016003820160009054906101000a900460ff166001811115610d5f57610d5e611aff565b5b6001811115610d7157610d70611aff565b5b81525050338073ffffffffffffffffffffffffffffffffffffffff16826000015173ffffffffffffffffffffffffffffffffffffffff1614610de8576040517f08c379a0000000000000000000000000000000000000000000000000000000008152600401610ddf90611e09565b60405180910390fd5b60028481548110610dfc57610dfb611c9a565b5b9060005260206000209060040201600080820160006101000a81549073ffffffffffffffffffffffffffffffffffffffff0219169055600182016000905560028201600090556003820160006101000a81549060ff02191690555050610e606114bb565b7fc845a6832afa0a4048dd70bbba2186093508a6b63a8d5d70a508f819fef257f884604051610e8f9190611a77565b60405180910390a150505050565b6000811015610ee1576040517f08c379a0000000000000000000000000000000000000000000000000000000008152600401610ed890611e75565b60405180910390fd5b80341015610f24576040517f08c379a0000000000000000000000000000000000000000000000000000000008152600401610f1b906120b0565b60405180910390fd5b6000429050600060405180608001604052803373ffffffffffffffffffffffffffffffffffffffff16815260200184815260200183815260200160006001811115610f7257610f71611aff565b5b8152509050600281908060018154018082558091505060019003906000526020600020906004020160009091909190915060008201518160000160006101000a81548173ffffffffffffffffffffffffffffffffffffffff021916908373ffffffffffffffffffffffffffffffffffffffff160217905550602082015181600101556040820151816002015560608201518160030160006101000a81548160ff0219169083600181111561102957611028611aff565b5b0217905550505060008054906101000a900473ffffffffffffffffffffffffffffffffffffffff1673ffffffffffffffffffffffffffffffffffffffff166108fc6064600154606461107b9190611f01565b346110869190611f35565b6110909190611fbe565b9081150290604051600060405180830381858888f193505050501580156110bb573d6000803e3d6000fd5b507fa64806d6d5d480697a0b11c92b915a4ff7b93c0be28171d65d30041a0c360d0433848460006040516110f2949392919061201f565b60405180910390a1505050565b60606003805480602002602001604051908101604052809291908181526020016000905b828210156111fa57838290600052602060002090600402016040518060800160405290816000820160009054906101000a900473ffffffffffffffffffffffffffffffffffffffff1673ffffffffffffffffffffffffffffffffffffffff1673ffffffffffffffffffffffffffffffffffffffff16815260200160018201548152602001600282015481526020016003820160009054906101000a900460ff1660018111156111d5576111d4611aff565b5b60018111156111e7576111e6611aff565b5b8152505081526020019060010190611123565b50505050905090565b606061120d611358565b60005b6002805490508110156112d2573373ffffffffffffffffffffffffffffffffffffffff166002828154811061124857611247611c9a565b5b906000526020600020906004020160000160009054906101000a900473ffffffffffffffffffffffffffffffffffffffff1673ffffffffffffffffffffffffffffffffffffffff16036112bf5760048190806001815401808255809150506001900390600052602060002001600090919091909150555b80806112ca90611cf8565b915050611210565b50600480548060200260200160405190810160405280929190818152602001828054801561131f57602002820191906000526020600020905b81548152602001906001019080831161130b575b5050505050905090565b60006002828154811061133f5761133e611c9a565b5b9060005260206000209060040201600101549050919050565b60005b60048054905081101561139d576004818154811061137c5761137b611c9a565b5b9060005260206000200160009055808061139590611cf8565b91505061135b565b50565b6114b96002805480602002602001604051908101604052809291908181526020016000905b8282101561149c57838290600052602060002090600402016040518060800160405290816000820160009054906101000a900473ffffffffffffffffffffffffffffffffffffffff1673ffffffffffffffffffffffffffffffffffffffff1673ffffffffffffffffffffffffffffffffffffffff16815260200160018201548152602001600282015481526020016003820160009054906101000a900460ff16600181111561147757611476611aff565b5b600181111561148957611488611aff565b5b81525050815260200190600101906113c5565b50505050600060016002805490506114b49190611f01565b6115d6565b565b6115d46002805480602002602001604051908101604052809291908181526020016000905b828210156115b757838290600052602060002090600402016040518060800160405290816000820160009054906101000a900473ffffffffffffffffffffffffffffffffffffffff1673ffffffffffffffffffffffffffffffffffffffff1673ffffffffffffffffffffffffffffffffffffffff16815260200160018201548152602001600282015481526020016003820160009054906101000a900460ff16600181111561159257611591611aff565b5b60018111156115a4576115a3611aff565b5b81525050815260200190600101906114e0565b50505050600060016002805490506115cf9190611f01565b61177b565b565b600082905060008290508082036115ee575050611776565b600085600286866115ff91906120da565b611609919061216e565b8661161491906121d8565b8151811061162557611624611c9a565b5b60200260200101516040015190505b81831361174a575b808684815181106116505761164f611c9a565b5b602002602001015160400151111561167557828061166d9061226c565b93505061163c565b5b85828151811061168957611688611c9a565b5b6020026020010151604001518111156116af5781806116a7906122b4565b925050611676565b818313611745578582815181106116c9576116c8611c9a565b5b60200260200101518684815181106116e4576116e3611c9a565b5b60200260200101518785815181106116ff576116fe611c9a565b5b6020026020010188858151811061171957611718611c9a565b5b60200260200101829052829052505082806117339061226c565b9350508180611741906122b4565b9250505b611634565b8185121561175e5761175d8686846115d6565b5b83831215611772576117718684866115d6565b5b5050505b505050565b6000829050600082905080820361179357505061191b565b600085600286866117a491906120da565b6117ae919061216e565b866117b991906121d8565b815181106117ca576117c9611c9a565b5b60200260200101516040015190505b8183136118ef575b808684815181106117f5576117f4611c9a565b5b602002602001015160400151101561181a5782806118129061226c565b9350506117e1565b5b85828151811061182e5761182d611c9a565b5b60200260200101516040015181101561185457818061184c906122b4565b92505061181b565b8183136118ea5785828151811061186e5761186d611c9a565b5b602002602001015186848151811061188957611888611c9a565b5b60200260200101518785815181106118a4576118a3611c9a565b5b602002602001018885815181106118be576118bd611c9a565b5b60200260200101829052829052505082806118d89061226c565b93505081806118e6906122b4565b9250505b6117d9565b818512156119035761190286868461177b565b5b838312156119175761191686848661177b565b5b5050505b505050565b600081519050919050565b600082825260208201905092915050565b6000819050602082019050919050565b6000819050919050565b61195f8161194c565b82525050565b60006119718383611956565b60208301905092915050565b6000602082019050919050565b600061199582611920565b61199f818561192b565b93506119aa8361193c565b8060005b838110156119db5781516119c28882611965565b97506119cd8361197d565b9250506001810190506119ae565b5085935050505092915050565b60006020820190508181036000830152611a02818461198a565b905092915050565b600080fd5b611a188161194c565b8114611a2357600080fd5b50565b600081359050611a3581611a0f565b92915050565b600060208284031215611a5157611a50611a0a565b5b6000611a5f84828501611a26565b91505092915050565b611a718161194c565b82525050565b6000602082019050611a8c6000830184611a68565b92915050565b600081519050919050565b600082825260208201905092915050565b6000819050602082019050919050565b600073ffffffffffffffffffffffffffffffffffffffff82169050919050565b6000611ae982611abe565b9050919050565b611af981611ade565b82525050565b7f4e487b7100000000000000000000000000000000000000000000000000000000600052602160045260246000fd5b60028110611b3f57611b3e611aff565b5b50565b6000819050611b5082611b2e565b919050565b6000611b6082611b42565b9050919050565b611b7081611b55565b82525050565b608082016000820151611b8c6000850182611af0565b506020820151611b9f6020850182611956565b506040820151611bb26040850182611956565b506060820151611bc56060850182611b67565b50505050565b6000611bd78383611b76565b60808301905092915050565b6000602082019050919050565b6000611bfb82611a92565b611c058185611a9d565b9350611c1083611aae565b8060005b83811015611c41578151611c288882611bcb565b9750611c3383611be3565b925050600181019050611c14565b5085935050505092915050565b60006020820190508181036000830152611c688184611bf0565b905092915050565b611c7981611ade565b82525050565b6000602082019050611c946000830184611c70565b92915050565b7f4e487b7100000000000000000000000000000000000000000000000000000000600052603260045260246000fd5b7f4e487b7100000000000000000000000000000000000000000000000000000000600052601160045260246000fd5b6000611d038261194c565b91507fffffffffffffffffffffffffffffffffffffffffffffffffffffffffffffffff8203611d3557611d34611cc9565b5b600182019050919050565b600082825260208201905092915050565b7f4f726465722050656e64696e6700000000000000000000000000000000000000600082015250565b6000611d87600d83611d40565b9150611d9282611d51565b602082019050919050565b60006020820190508181036000830152611db681611d7a565b9050919050565b7f4e6f7420417574686f7269736564000000000000000000000000000000000000600082015250565b6000611df3600e83611d40565b9150611dfe82611dbd565b602082019050919050565b60006020820190508181036000830152611e2281611de6565b9050919050565b7f70726963652076616c7565206d757374206265206d6f7265207468616e203000600082015250565b6000611e5f601f83611d40565b9150611e6a82611e29565b602082019050919050565b60006020820190508181036000830152611e8e81611e52565b9050919050565b7f4e6f7420656e6f75676820626c616e636520746f20706c6163652061736b0000600082015250565b6000611ecb601e83611d40565b9150611ed682611e95565b602082019050919050565b60006020820190508181036000830152611efa81611ebe565b9050919050565b6000611f0c8261194c565b9150611f178361194c565b925082821015611f2a57611f29611cc9565b5b828203905092915050565b6000611f408261194c565b9150611f4b8361194c565b9250817fffffffffffffffffffffffffffffffffffffffffffffffffffffffffffffffff0483118215151615611f8457611f83611cc9565b5b828202905092915050565b7f4e487b7100000000000000000000000000000000000000000000000000000000600052601260045260246000fd5b6000611fc98261194c565b9150611fd48361194c565b925082611fe457611fe3611f8f565b5b828204905092915050565b6000611ffa82611abe565b9050919050565b61200a81611fef565b82525050565b61201981611b55565b82525050565b60006080820190506120346000830187612001565b6120416020830186611a68565b61204e6040830185611a68565b61205b6060830184612010565b95945050505050565b7f4e6f7420656e6f75676820626c616e636520746f20706c616365206269640000600082015250565b600061209a601e83611d40565b91506120a582612064565b602082019050919050565b600060208201905081810360008301526120c98161208d565b9050919050565b6000819050919050565b60006120e5826120d0565b91506120f0836120d0565b9250827f80000000000000000000000000000000000000000000000000000000000000000182126000841215161561212b5761212a611cc9565b5b827f7fffffffffffffffffffffffffffffffffffffffffffffffffffffffffffffff01821360008412161561216357612162611cc9565b5b828203905092915050565b6000612179826120d0565b9150612184836120d0565b92508261219457612193611f8f565b5b600160000383147f8000000000000000000000000000000000000000000000000000000000000000831416156121cd576121cc611cc9565b5b828205905092915050565b60006121e3826120d0565b91506121ee836120d0565b9250817f7fffffffffffffffffffffffffffffffffffffffffffffffffffffffffffffff0383136000831215161561222957612228611cc9565b5b817f800000000000000000000000000000000000000000000000000000000000000003831260008312161561226157612260611cc9565b5b828201905092915050565b6000612277826120d0565b91507f7fffffffffffffffffffffffffffffffffffffffffffffffffffffffffffffff82036122a9576122a8611cc9565b5b600182019050919050565b60006122bf826120d0565b91507f800000000000000000000000000000000000000000000000000000000000000082036122f1576122f0611cc9565b5b60018203905091905056fea2646970667358221220f9d2ba062ee24c58a2e6d7076c7db08f525935bf446ba2446a93609127cd3acb64736f6c634300080d0033",
					"opcodes": "PUSH1 0x80 PUSH1 0x40 MSTORE CALLVALUE DUP1 ISZERO PUSH3 0x11 JUMPI PUSH1 0x0 DUP1 REVERT JUMPDEST POP PUSH1 0x40 MLOAD PUSH3 0x2439 CODESIZE SUB DUP1 PUSH3 0x2439 DUP4 CODECOPY DUP2 DUP2 ADD PUSH1 0x40 MSTORE DUP2 ADD SWAP1 PUSH3 0x37 SWAP2 SWAP1 PUSH3 0xC5 JUMP JUMPDEST CALLER PUSH1 0x0 DUP1 PUSH2 0x100 EXP DUP2 SLOAD DUP2 PUSH20 0xFFFFFFFFFFFFFFFFFFFFFFFFFFFFFFFFFFFFFFFF MUL NOT AND SWAP1 DUP4 PUSH20 0xFFFFFFFFFFFFFFFFFFFFFFFFFFFFFFFFFFFFFFFF AND MUL OR SWAP1 SSTORE POP DUP1 PUSH1 0x1 DUP2 SWAP1 SSTORE POP POP PUSH3 0xF7 JUMP JUMPDEST PUSH1 0x0 DUP1 REVERT JUMPDEST PUSH1 0x0 DUP2 SWAP1 POP SWAP2 SWAP1 POP JUMP JUMPDEST PUSH3 0x9F DUP2 PUSH3 0x8A JUMP JUMPDEST DUP2 EQ PUSH3 0xAB JUMPI PUSH1 0x0 DUP1 REVERT JUMPDEST POP JUMP JUMPDEST PUSH1 0x0 DUP2 MLOAD SWAP1 POP PUSH3 0xBF DUP2 PUSH3 0x94 JUMP JUMPDEST SWAP3 SWAP2 POP POP JUMP JUMPDEST PUSH1 0x0 PUSH1 0x20 DUP3 DUP5 SUB SLT ISZERO PUSH3 0xDE JUMPI PUSH3 0xDD PUSH3 0x85 JUMP JUMPDEST JUMPDEST PUSH1 0x0 PUSH3 0xEE DUP5 DUP3 DUP6 ADD PUSH3 0xAE JUMP JUMPDEST SWAP2 POP POP SWAP3 SWAP2 POP POP JUMP JUMPDEST PUSH2 0x2332 DUP1 PUSH3 0x107 PUSH1 0x0 CODECOPY PUSH1 0x0 RETURN INVALID PUSH1 0x80 PUSH1 0x40 MSTORE PUSH1 0x4 CALLDATASIZE LT PUSH2 0xA7 JUMPI PUSH1 0x0 CALLDATALOAD PUSH1 0xE0 SHR DUP1 PUSH4 0x78C5B268 GT PUSH2 0x64 JUMPI DUP1 PUSH4 0x78C5B268 EQ PUSH2 0x1E2 JUMPI DUP1 PUSH4 0x9703EF35 EQ PUSH2 0x1FE JUMPI DUP1 PUSH4 0x9979EF45 EQ PUSH2 0x227 JUMPI DUP1 PUSH4 0xC5374AF2 EQ PUSH2 0x243 JUMPI DUP1 PUSH4 0xCE0CDC87 EQ PUSH2 0x26E JUMPI DUP1 PUSH4 0xDB3A1396 EQ PUSH2 0x299 JUMPI PUSH2 0xA7 JUMP JUMPDEST DUP1 PUSH4 0x122DE8F2 EQ PUSH2 0xAC JUMPI DUP1 PUSH4 0x1628E0F5 EQ PUSH2 0xD7 JUMPI DUP1 PUSH4 0x2DB6DFA7 EQ PUSH2 0x100 JUMPI DUP1 PUSH4 0x4471417F EQ PUSH2 0x13D JUMPI DUP1 PUSH4 0x69F632E2 EQ PUSH2 0x168 JUMPI DUP1 PUSH4 0x734A2E78 EQ PUSH2 0x1A5 JUMPI JUMPDEST PUSH1 0x0 DUP1 REVERT JUMPDEST CALLVALUE DUP1 ISZERO PUSH2 0xB8 JUMPI PUSH1 0x0 DUP1 REVERT JUMPDEST POP PUSH2 0xC1 PUSH2 0x2D6 JUMP JUMPDEST PUSH1 0x40 MLOAD PUSH2 0xCE SWAP2 SWAP1 PUSH2 0x19E8 JUMP JUMPDEST PUSH1 0x40 MLOAD DUP1 SWAP2 SUB SWAP1 RETURN JUMPDEST CALLVALUE DUP1 ISZERO PUSH2 0xE3 JUMPI PUSH1 0x0 DUP1 REVERT JUMPDEST POP PUSH2 0xFE PUSH1 0x4 DUP1 CALLDATASIZE SUB DUP2 ADD SWAP1 PUSH2 0xF9 SWAP2 SWAP1 PUSH2 0x1A3B JUMP JUMPDEST PUSH2 0x3FC JUMP JUMPDEST STOP JUMPDEST CALLVALUE DUP1 ISZERO PUSH2 0x10C JUMPI PUSH1 0x0 DUP1 REVERT JUMPDEST POP PUSH2 0x127 PUSH1 0x4 DUP1 CALLDATASIZE SUB DUP2 ADD SWAP1 PUSH2 0x122 SWAP2 SWAP1 PUSH2 0x1A3B JUMP JUMPDEST PUSH2 0x733 JUMP JUMPDEST PUSH1 0x40 MLOAD PUSH2 0x134 SWAP2 SWAP1 PUSH2 0x1A77 JUMP JUMPDEST PUSH1 0x40 MLOAD DUP1 SWAP2 SUB SWAP1 RETURN JUMPDEST CALLVALUE DUP1 ISZERO PUSH2 0x149 JUMPI PUSH1 0x0 DUP1 REVERT JUMPDEST POP PUSH2 0x152 PUSH2 0x762 JUMP JUMPDEST PUSH1 0x40 MLOAD PUSH2 0x15F SWAP2 SWAP1 PUSH2 0x1C4E JUMP JUMPDEST PUSH1 0x40 MLOAD DUP1 SWAP2 SUB SWAP1 RETURN JUMPDEST CALLVALUE DUP1 ISZERO PUSH2 0x174 JUMPI PUSH1 0x0 DUP1 REVERT JUMPDEST POP PUSH2 0x18F PUSH1 0x4 DUP1 CALLDATASIZE SUB DUP2 ADD SWAP1 PUSH2 0x18A SWAP2 SWAP1 PUSH2 0x1A3B JUMP JUMPDEST PUSH2 0x866 JUMP JUMPDEST PUSH1 0x40 MLOAD PUSH2 0x19C SWAP2 SWAP1 PUSH2 0x1C7F JUMP JUMPDEST PUSH1 0x40 MLOAD DUP1 SWAP2 SUB SWAP1 RETURN JUMPDEST CALLVALUE DUP1 ISZERO PUSH2 0x1B1 JUMPI PUSH1 0x0 DUP1 REVERT JUMPDEST POP PUSH2 0x1CC PUSH1 0x4 DUP1 CALLDATASIZE SUB DUP2 ADD SWAP1 PUSH2 0x1C7 SWAP2 SWAP1 PUSH2 0x1A3B JUMP JUMPDEST PUSH2 0x8B5 JUMP JUMPDEST PUSH1 0x40 MLOAD PUSH2 0x1D9 SWAP2 SWAP1 PUSH2 0x1C7F JUMP JUMPDEST PUSH1 0x40 MLOAD DUP1 SWAP2 SUB SWAP1 RETURN JUMPDEST PUSH2 0x1FC PUSH1 0x4 DUP1 CALLDATASIZE SUB DUP2 ADD SWAP1 PUSH2 0x1F7 SWAP2 SWAP1 PUSH2 0x1A3B JUMP JUMPDEST PUSH2 0x904 JUMP JUMPDEST STOP JUMPDEST CALLVALUE DUP1 ISZERO PUSH2 0x20A JUMPI PUSH1 0x0 DUP1 REVERT JUMPDEST POP PUSH2 0x225 PUSH1 0x4 DUP1 CALLDATASIZE SUB DUP2 ADD SWAP1 PUSH2 0x220 SWAP2 SWAP1 PUSH2 0x1A3B JUMP JUMPDEST PUSH2 0xB66 JUMP JUMPDEST STOP JUMPDEST PUSH2 0x241 PUSH1 0x4 DUP1 CALLDATASIZE SUB DUP2 ADD SWAP1 PUSH2 0x23C SWAP2 SWAP1 PUSH2 0x1A3B JUMP JUMPDEST PUSH2 0xE9D JUMP JUMPDEST STOP JUMPDEST CALLVALUE DUP1 ISZERO PUSH2 0x24F JUMPI PUSH1 0x0 DUP1 REVERT JUMPDEST POP PUSH2 0x258 PUSH2 0x10FF JUMP JUMPDEST PUSH1 0x40 MLOAD PUSH2 0x265 SWAP2 SWAP1 PUSH2 0x1C4E JUMP JUMPDEST PUSH1 0x40 MLOAD DUP1 SWAP2 SUB SWAP1 RETURN JUMPDEST CALLVALUE DUP1 ISZERO PUSH2 0x27A JUMPI PUSH1 0x0 DUP1 REVERT JUMPDEST POP PUSH2 0x283 PUSH2 0x1203 JUMP JUMPDEST PUSH1 0x40 MLOAD PUSH2 0x290 SWAP2 SWAP1 PUSH2 0x19E8 JUMP JUMPDEST PUSH1 0x40 MLOAD DUP1 SWAP2 SUB SWAP1 RETURN JUMPDEST CALLVALUE DUP1 ISZERO PUSH2 0x2A5 JUMPI PUSH1 0x0 DUP1 REVERT JUMPDEST POP PUSH2 0x2C0 PUSH1 0x4 DUP1 CALLDATASIZE SUB DUP2 ADD SWAP1 PUSH2 0x2BB SWAP2 SWAP1 PUSH2 0x1A3B JUMP JUMPDEST PUSH2 0x1329 JUMP JUMPDEST PUSH1 0x40 MLOAD PUSH2 0x2CD SWAP2 SWAP1 PUSH2 0x1A77 JUMP JUMPDEST PUSH1 0x40 MLOAD DUP1 SWAP2 SUB SWAP1 RETURN JUMPDEST PUSH1 0x60 PUSH2 0x2E0 PUSH2 0x1358 JUMP JUMPDEST PUSH1 0x0 JUMPDEST PUSH1 0x3 DUP1 SLOAD SWAP1 POP DUP2 LT ISZERO PUSH2 0x3A5 JUMPI CALLER PUSH20 0xFFFFFFFFFFFFFFFFFFFFFFFFFFFFFFFFFFFFFFFF AND PUSH1 0x3 DUP3 DUP2 SLOAD DUP2 LT PUSH2 0x31B JUMPI PUSH2 0x31A PUSH2 0x1C9A JUMP JUMPDEST JUMPDEST SWAP1 PUSH1 0x0 MSTORE PUSH1 0x20 PUSH1 0x0 KECCAK256 SWAP1 PUSH1 0x4 MUL ADD PUSH1 0x0 ADD PUSH1 0x0 SWAP1 SLOAD SWAP1 PUSH2 0x100 EXP SWAP1 DIV PUSH20 0xFFFFFFFFFFFFFFFFFFFFFFFFFFFFFFFFFFFFFFFF AND PUSH20 0xFFFFFFFFFFFFFFFFFFFFFFFFFFFFFFFFFFFFFFFF AND SUB PUSH2 0x392 JUMPI PUSH1 0x4 DUP2 SWAP1 DUP1 PUSH1 0x1 DUP2 SLOAD ADD DUP1 DUP3 SSTORE DUP1 SWAP2 POP POP PUSH1 0x1 SWAP1 SUB SWAP1 PUSH1 0x0 MSTORE PUSH1 0x20 PUSH1 0x0 KECCAK256 ADD PUSH1 0x0 SWAP1 SWAP2 SWAP1 SWAP2 SWAP1 SWAP2 POP SSTORE JUMPDEST DUP1 DUP1 PUSH2 0x39D SWAP1 PUSH2 0x1CF8 JUMP JUMPDEST SWAP2 POP POP PUSH2 0x2E3 JUMP JUMPDEST POP PUSH1 0x4 DUP1 SLOAD DUP1 PUSH1 0x20 MUL PUSH1 0x20 ADD PUSH1 0x40 MLOAD SWAP1 DUP2 ADD PUSH1 0x40 MSTORE DUP1 SWAP3 SWAP2 SWAP1 DUP2 DUP2 MSTORE PUSH1 0x20 ADD DUP3 DUP1 SLOAD DUP1 ISZERO PUSH2 0x3F2 JUMPI PUSH1 0x20 MUL DUP3 ADD SWAP2 SWAP1 PUSH1 0x0 MSTORE PUSH1 0x20 PUSH1 0x0 KECCAK256 SWAP1 JUMPDEST DUP2 SLOAD DUP2 MSTORE PUSH1 0x20 ADD SWAP1 PUSH1 0x1 ADD SWAP1 DUP1 DUP4 GT PUSH2 0x3DE JUMPI JUMPDEST POP POP POP POP POP SWAP1 POP SWAP1 JUMP JUMPDEST PUSH1 0x3 DUP2 DUP2 SLOAD DUP2 LT PUSH2 0x410 JUMPI PUSH2 0x40F PUSH2 0x1C9A JUMP JUMPDEST JUMPDEST SWAP1 PUSH1 0x0 MSTORE PUSH1 0x20 PUSH1 0x0 KECCAK256 SWAP1 PUSH1 0x4 MUL ADD PUSH1 0x40 MLOAD DUP1 PUSH1 0x80 ADD PUSH1 0x40 MSTORE SWAP1 DUP2 PUSH1 0x0 DUP3 ADD PUSH1 0x0 SWAP1 SLOAD SWAP1 PUSH2 0x100 EXP SWAP1 DIV PUSH20 0xFFFFFFFFFFFFFFFFFFFFFFFFFFFFFFFFFFFFFFFF AND PUSH20 0xFFFFFFFFFFFFFFFFFFFFFFFFFFFFFFFFFFFFFFFF AND PUSH20 0xFFFFFFFFFFFFFFFFFFFFFFFFFFFFFFFFFFFFFFFF AND DUP2 MSTORE PUSH1 0x20 ADD PUSH1 0x1 DUP3 ADD SLOAD DUP2 MSTORE PUSH1 0x20 ADD PUSH1 0x2 DUP3 ADD SLOAD DUP2 MSTORE PUSH1 0x20 ADD PUSH1 0x3 DUP3 ADD PUSH1 0x0 SWAP1 SLOAD SWAP1 PUSH2 0x100 EXP SWAP1 DIV PUSH1 0xFF AND PUSH1 0x1 DUP2 GT ISZERO PUSH2 0x4B8 JUMPI PUSH2 0x4B7 PUSH2 0x1AFF JUMP JUMPDEST JUMPDEST PUSH1 0x1 DUP2 GT ISZERO PUSH2 0x4CA JUMPI PUSH2 0x4C9 PUSH2 0x1AFF JUMP JUMPDEST JUMPDEST DUP2 MSTORE POP POP PUSH1 0x0 PUSH1 0x1 DUP2 GT ISZERO PUSH2 0x4E2 JUMPI PUSH2 0x4E1 PUSH2 0x1AFF JUMP JUMPDEST JUMPDEST DUP2 PUSH1 0x60 ADD MLOAD PUSH1 0x1 DUP2 GT ISZERO PUSH2 0x4F9 JUMPI PUSH2 0x4F8 PUSH2 0x1AFF JUMP JUMPDEST JUMPDEST EQ PUSH2 0x539 JUMPI PUSH1 0x40 MLOAD PUSH32 0x8C379A000000000000000000000000000000000000000000000000000000000 DUP2 MSTORE PUSH1 0x4 ADD PUSH2 0x530 SWAP1 PUSH2 0x1D9D JUMP JUMPDEST PUSH1 0x40 MLOAD DUP1 SWAP2 SUB SWAP1 REVERT JUMPDEST PUSH1 0x3 DUP3 DUP2 SLOAD DUP2 LT PUSH2 0x54D JUMPI PUSH2 0x54C PUSH2 0x1C9A JUMP JUMPDEST JUMPDEST SWAP1 PUSH1 0x0 MSTORE PUSH1 0x20 PUSH1 0x0 KECCAK256 SWAP1 PUSH1 0x4 MUL ADD PUSH1 0x40 MLOAD DUP1 PUSH1 0x80 ADD PUSH1 0x40 MSTORE SWAP1 DUP2 PUSH1 0x0 DUP3 ADD PUSH1 0x0 SWAP1 SLOAD SWAP1 PUSH2 0x100 EXP SWAP1 DIV PUSH20 0xFFFFFFFFFFFFFFFFFFFFFFFFFFFFFFFFFFFFFFFF AND PUSH20 0xFFFFFFFFFFFFFFFFFFFFFFFFFFFFFFFFFFFFFFFF AND PUSH20 0xFFFFFFFFFFFFFFFFFFFFFFFFFFFFFFFFFFFFFFFF AND DUP2 MSTORE PUSH1 0x20 ADD PUSH1 0x1 DUP3 ADD SLOAD DUP2 MSTORE PUSH1 0x20 ADD PUSH1 0x2 DUP3 ADD SLOAD DUP2 MSTORE PUSH1 0x20 ADD PUSH1 0x3 DUP3 ADD PUSH1 0x0 SWAP1 SLOAD SWAP1 PUSH2 0x100 EXP SWAP1 DIV PUSH1 0xFF AND PUSH1 0x1 DUP2 GT ISZERO PUSH2 0x5F5 JUMPI PUSH2 0x5F4 PUSH2 0x1AFF JUMP JUMPDEST JUMPDEST PUSH1 0x1 DUP2 GT ISZERO PUSH2 0x607 JUMPI PUSH2 0x606 PUSH2 0x1AFF JUMP JUMPDEST JUMPDEST DUP2 MSTORE POP POP CALLER DUP1 PUSH20 0xFFFFFFFFFFFFFFFFFFFFFFFFFFFFFFFFFFFFFFFF AND DUP3 PUSH1 0x0 ADD MLOAD PUSH20 0xFFFFFFFFFFFFFFFFFFFFFFFFFFFFFFFFFFFFFFFF AND EQ PUSH2 0x67E JUMPI PUSH1 0x40 MLOAD PUSH32 0x8C379A000000000000000000000000000000000000000000000000000000000 DUP2 MSTORE PUSH1 0x4 ADD PUSH2 0x675 SWAP1 PUSH2 0x1E09 JUMP JUMPDEST PUSH1 0x40 MLOAD DUP1 SWAP2 SUB SWAP1 REVERT JUMPDEST PUSH1 0x3 DUP5 DUP2 SLOAD DUP2 LT PUSH2 0x692 JUMPI PUSH2 0x691 PUSH2 0x1C9A JUMP JUMPDEST JUMPDEST SWAP1 PUSH1 0x0 MSTORE PUSH1 0x20 PUSH1 0x0 KECCAK256 SWAP1 PUSH1 0x4 MUL ADD PUSH1 0x0 DUP1 DUP3 ADD PUSH1 0x0 PUSH2 0x100 EXP DUP2 SLOAD SWAP1 PUSH20 0xFFFFFFFFFFFFFFFFFFFFFFFFFFFFFFFFFFFFFFFF MUL NOT AND SWAP1 SSTORE PUSH1 0x1 DUP3 ADD PUSH1 0x0 SWAP1 SSTORE PUSH1 0x2 DUP3 ADD PUSH1 0x0 SWAP1 SSTORE PUSH1 0x3 DUP3 ADD PUSH1 0x0 PUSH2 0x100 EXP DUP2 SLOAD SWAP1 PUSH1 0xFF MUL NOT AND SWAP1 SSTORE POP POP PUSH2 0x6F6 PUSH2 0x13A0 JUMP JUMPDEST PUSH32 0x48D3043FFF66C1AEE14954AC5AA463B0297FB08C9B60EE00486FB3387BB58AAC DUP5 PUSH1 0x40 MLOAD PUSH2 0x725 SWAP2 SWAP1 PUSH2 0x1A77 JUMP JUMPDEST PUSH1 0x40 MLOAD DUP1 SWAP2 SUB SWAP1 LOG1 POP POP POP POP JUMP JUMPDEST PUSH1 0x0 PUSH1 0x2 DUP3 DUP2 SLOAD DUP2 LT PUSH2 0x749 JUMPI PUSH2 0x748 PUSH2 0x1C9A JUMP JUMPDEST JUMPDEST SWAP1 PUSH1 0x0 MSTORE PUSH1 0x20 PUSH1 0x0 KECCAK256 SWAP1 PUSH1 0x4 MUL ADD PUSH1 0x1 ADD SLOAD SWAP1 POP SWAP2 SWAP1 POP JUMP JUMPDEST PUSH1 0x60 PUSH1 0x2 DUP1 SLOAD DUP1 PUSH1 0x20 MUL PUSH1 0x20 ADD PUSH1 0x40 MLOAD SWAP1 DUP2 ADD PUSH1 0x40 MSTORE DUP1 SWAP3 SWAP2 SWAP1 DUP2 DUP2 MSTORE PUSH1 0x20 ADD PUSH1 0x0 SWAP1 JUMPDEST DUP3 DUP3 LT ISZERO PUSH2 0x85D JUMPI DUP4 DUP3 SWAP1 PUSH1 0x0 MSTORE PUSH1 0x20 PUSH1 0x0 KECCAK256 SWAP1 PUSH1 0x4 MUL ADD PUSH1 0x40 MLOAD DUP1 PUSH1 0x80 ADD PUSH1 0x40 MSTORE SWAP1 DUP2 PUSH1 0x0 DUP3 ADD PUSH1 0x0 SWAP1 SLOAD SWAP1 PUSH2 0x100 EXP SWAP1 DIV PUSH20 0xFFFFFFFFFFFFFFFFFFFFFFFFFFFFFFFFFFFFFFFF AND PUSH20 0xFFFFFFFFFFFFFFFFFFFFFFFFFFFFFFFFFFFFFFFF AND PUSH20 0xFFFFFFFFFFFFFFFFFFFFFFFFFFFFFFFFFFFFFFFF AND DUP2 MSTORE PUSH1 0x20 ADD PUSH1 0x1 DUP3 ADD SLOAD DUP2 MSTORE PUSH1 0x20 ADD PUSH1 0x2 DUP3 ADD SLOAD DUP2 MSTORE PUSH1 0x20 ADD PUSH1 0x3 DUP3 ADD PUSH1 0x0 SWAP1 SLOAD SWAP1 PUSH2 0x100 EXP SWAP1 DIV PUSH1 0xFF AND PUSH1 0x1 DUP2 GT ISZERO PUSH2 0x838 JUMPI PUSH2 0x837 PUSH2 0x1AFF JUMP JUMPDEST JUMPDEST PUSH1 0x1 DUP2 GT ISZERO PUSH2 0x84A JUMPI PUSH2 0x849 PUSH2 0x1AFF JUMP JUMPDEST JUMPDEST DUP2 MSTORE POP POP DUP2 MSTORE PUSH1 0x20 ADD SWAP1 PUSH1 0x1 ADD SWAP1 PUSH2 0x786 JUMP JUMPDEST POP POP POP POP SWAP1 POP SWAP1 JUMP JUMPDEST PUSH1 0x0 PUSH1 0x2 DUP3 DUP2 SLOAD DUP2 LT PUSH2 0x87C JUMPI PUSH2 0x87B PUSH2 0x1C9A JUMP JUMPDEST JUMPDEST SWAP1 PUSH1 0x0 MSTORE PUSH1 0x20 PUSH1 0x0 KECCAK256 SWAP1 PUSH1 0x4 MUL ADD PUSH1 0x0 ADD PUSH1 0x0 SWAP1 SLOAD SWAP1 PUSH2 0x100 EXP SWAP1 DIV PUSH20 0xFFFFFFFFFFFFFFFFFFFFFFFFFFFFFFFFFFFFFFFF AND SWAP1 POP SWAP2 SWAP1 POP JUMP JUMPDEST PUSH1 0x0 PUSH1 0x3 DUP3 DUP2 SLOAD DUP2 LT PUSH2 0x8CB JUMPI PUSH2 0x8CA PUSH2 0x1C9A JUMP JUMPDEST JUMPDEST SWAP1 PUSH1 0x0 MSTORE PUSH1 0x20 PUSH1 0x0 KECCAK256 SWAP1 PUSH1 0x4 MUL ADD PUSH1 0x0 ADD PUSH1 0x0 SWAP1 SLOAD SWAP1 PUSH2 0x100 EXP SWAP1 DIV PUSH20 0xFFFFFFFFFFFFFFFFFFFFFFFFFFFFFFFFFFFFFFFF AND SWAP1 POP SWAP2 SWAP1 POP JUMP JUMPDEST PUSH1 0x0 DUP2 LT ISZERO PUSH2 0x948 JUMPI PUSH1 0x40 MLOAD PUSH32 0x8C379A000000000000000000000000000000000000000000000000000000000 DUP2 MSTORE PUSH1 0x4 ADD PUSH2 0x93F SWAP1 PUSH2 0x1E75 JUMP JUMPDEST PUSH1 0x40 MLOAD DUP1 SWAP2 SUB SWAP1 REVERT JUMPDEST DUP1 CALLVALUE LT ISZERO PUSH2 0x98B JUMPI PUSH1 0x40 MLOAD PUSH32 0x8C379A000000000000000000000000000000000000000000000000000000000 DUP2 MSTORE PUSH1 0x4 ADD PUSH2 0x982 SWAP1 PUSH2 0x1EE1 JUMP JUMPDEST PUSH1 0x40 MLOAD DUP1 SWAP2 SUB SWAP1 REVERT JUMPDEST PUSH1 0x0 TIMESTAMP SWAP1 POP PUSH1 0x0 PUSH1 0x40 MLOAD DUP1 PUSH1 0x80 ADD PUSH1 0x40 MSTORE DUP1 CALLER PUSH20 0xFFFFFFFFFFFFFFFFFFFFFFFFFFFFFFFFFFFFFFFF AND DUP2 MSTORE PUSH1 0x20 ADD DUP5 DUP2 MSTORE PUSH1 0x20 ADD DUP4 DUP2 MSTORE PUSH1 0x20 ADD PUSH1 0x0 PUSH1 0x1 DUP2 GT ISZERO PUSH2 0x9D9 JUMPI PUSH2 0x9D8 PUSH2 0x1AFF JUMP JUMPDEST JUMPDEST DUP2 MSTORE POP SWAP1 POP PUSH1 0x3 DUP2 SWAP1 DUP1 PUSH1 0x1 DUP2 SLOAD ADD DUP1 DUP3 SSTORE DUP1 SWAP2 POP POP PUSH1 0x1 SWAP1 SUB SWAP1 PUSH1 0x0 MSTORE PUSH1 0x20 PUSH1 0x0 KECCAK256 SWAP1 PUSH1 0x4 MUL ADD PUSH1 0x0 SWAP1 SWAP2 SWAP1 SWAP2 SWAP1 SWAP2 POP PUSH1 0x0 DUP3 ADD MLOAD DUP2 PUSH1 0x0 ADD PUSH1 0x0 PUSH2 0x100 EXP DUP2 SLOAD DUP2 PUSH20 0xFFFFFFFFFFFFFFFFFFFFFFFFFFFFFFFFFFFFFFFF MUL NOT AND SWAP1 DUP4 PUSH20 0xFFFFFFFFFFFFFFFFFFFFFFFFFFFFFFFFFFFFFFFF AND MUL OR SWAP1 SSTORE POP PUSH1 0x20 DUP3 ADD MLOAD DUP2 PUSH1 0x1 ADD SSTORE PUSH1 0x40 DUP3 ADD MLOAD DUP2 PUSH1 0x2 ADD SSTORE PUSH1 0x60 DUP3 ADD MLOAD DUP2 PUSH1 0x3 ADD PUSH1 0x0 PUSH2 0x100 EXP DUP2 SLOAD DUP2 PUSH1 0xFF MUL NOT AND SWAP1 DUP4 PUSH1 0x1 DUP2 GT ISZERO PUSH2 0xA90 JUMPI PUSH2 0xA8F PUSH2 0x1AFF JUMP JUMPDEST JUMPDEST MUL OR SWAP1 SSTORE POP POP POP PUSH1 0x0 DUP1 SLOAD SWAP1 PUSH2 0x100 EXP SWAP1 DIV PUSH20 0xFFFFFFFFFFFFFFFFFFFFFFFFFFFFFFFFFFFFFFFF AND PUSH20 0xFFFFFFFFFFFFFFFFFFFFFFFFFFFFFFFFFFFFFFFF AND PUSH2 0x8FC PUSH1 0x64 PUSH1 0x1 SLOAD PUSH1 0x64 PUSH2 0xAE2 SWAP2 SWAP1 PUSH2 0x1F01 JUMP JUMPDEST CALLVALUE PUSH2 0xAED SWAP2 SWAP1 PUSH2 0x1F35 JUMP JUMPDEST PUSH2 0xAF7 SWAP2 SWAP1 PUSH2 0x1FBE JUMP JUMPDEST SWAP1 DUP2 ISZERO MUL SWAP1 PUSH1 0x40 MLOAD PUSH1 0x0 PUSH1 0x40 MLOAD DUP1 DUP4 SUB DUP2 DUP6 DUP9 DUP9 CALL SWAP4 POP POP POP POP ISZERO DUP1 ISZERO PUSH2 0xB22 JUMPI RETURNDATASIZE PUSH1 0x0 DUP1 RETURNDATACOPY RETURNDATASIZE PUSH1 0x0 REVERT JUMPDEST POP PUSH32 0xC2125A7F3EDFEFF7A3BBCFE393C5AA3A6589585D4A7EE70DB48C34F67C8209E2 CALLER DUP5 DUP5 PUSH1 0x0 PUSH1 0x40 MLOAD PUSH2 0xB59 SWAP5 SWAP4 SWAP3 SWAP2 SWAP1 PUSH2 0x201F JUMP JUMPDEST PUSH1 0x40 MLOAD DUP1 SWAP2 SUB SWAP1 LOG1 POP POP POP JUMP JUMPDEST PUSH1 0x2 DUP2 DUP2 SLOAD DUP2 LT PUSH2 0xB7A JUMPI PUSH2 0xB79 PUSH2 0x1C9A JUMP JUMPDEST JUMPDEST SWAP1 PUSH1 0x0 MSTORE PUSH1 0x20 PUSH1 0x0 KECCAK256 SWAP1 PUSH1 0x4 MUL ADD PUSH1 0x40 MLOAD DUP1 PUSH1 0x80 ADD PUSH1 0x40 MSTORE SWAP1 DUP2 PUSH1 0x0 DUP3 ADD PUSH1 0x0 SWAP1 SLOAD SWAP1 PUSH2 0x100 EXP SWAP1 DIV PUSH20 0xFFFFFFFFFFFFFFFFFFFFFFFFFFFFFFFFFFFFFFFF AND PUSH20 0xFFFFFFFFFFFFFFFFFFFFFFFFFFFFFFFFFFFFFFFF AND PUSH20 0xFFFFFFFFFFFFFFFFFFFFFFFFFFFFFFFFFFFFFFFF AND DUP2 MSTORE PUSH1 0x20 ADD PUSH1 0x1 DUP3 ADD SLOAD DUP2 MSTORE PUSH1 0x20 ADD PUSH1 0x2 DUP3 ADD SLOAD DUP2 MSTORE PUSH1 0x20 ADD PUSH1 0x3 DUP3 ADD PUSH1 0x0 SWAP1 SLOAD SWAP1 PUSH2 0x100 EXP SWAP1 DIV PUSH1 0xFF AND PUSH1 0x1 DUP2 GT ISZERO PUSH2 0xC22 JUMPI PUSH2 0xC21 PUSH2 0x1AFF JUMP JUMPDEST JUMPDEST PUSH1 0x1 DUP2 GT ISZERO PUSH2 0xC34 JUMPI PUSH2 0xC33 PUSH2 0x1AFF JUMP JUMPDEST JUMPDEST DUP2 MSTORE POP POP PUSH1 0x0 PUSH1 0x1 DUP2 GT ISZERO PUSH2 0xC4C JUMPI PUSH2 0xC4B PUSH2 0x1AFF JUMP JUMPDEST JUMPDEST DUP2 PUSH1 0x60 ADD MLOAD PUSH1 0x1 DUP2 GT ISZERO PUSH2 0xC63 JUMPI PUSH2 0xC62 PUSH2 0x1AFF JUMP JUMPDEST JUMPDEST EQ PUSH2 0xCA3 JUMPI PUSH1 0x40 MLOAD PUSH32 0x8C379A000000000000000000000000000000000000000000000000000000000 DUP2 MSTORE PUSH1 0x4 ADD PUSH2 0xC9A SWAP1 PUSH2 0x1D9D JUMP JUMPDEST PUSH1 0x40 MLOAD DUP1 SWAP2 SUB SWAP1 REVERT JUMPDEST PUSH1 0x2 DUP3 DUP2 SLOAD DUP2 LT PUSH2 0xCB7 JUMPI PUSH2 0xCB6 PUSH2 0x1C9A JUMP JUMPDEST JUMPDEST SWAP1 PUSH1 0x0 MSTORE PUSH1 0x20 PUSH1 0x0 KECCAK256 SWAP1 PUSH1 0x4 MUL ADD PUSH1 0x40 MLOAD DUP1 PUSH1 0x80 ADD PUSH1 0x40 MSTORE SWAP1 DUP2 PUSH1 0x0 DUP3 ADD PUSH1 0x0 SWAP1 SLOAD SWAP1 PUSH2 0x100 EXP SWAP1 DIV PUSH20 0xFFFFFFFFFFFFFFFFFFFFFFFFFFFFFFFFFFFFFFFF AND PUSH20 0xFFFFFFFFFFFFFFFFFFFFFFFFFFFFFFFFFFFFFFFF AND PUSH20 0xFFFFFFFFFFFFFFFFFFFFFFFFFFFFFFFFFFFFFFFF AND DUP2 MSTORE PUSH1 0x20 ADD PUSH1 0x1 DUP3 ADD SLOAD DUP2 MSTORE PUSH1 0x20 ADD PUSH1 0x2 DUP3 ADD SLOAD DUP2 MSTORE PUSH1 0x20 ADD PUSH1 0x3 DUP3 ADD PUSH1 0x0 SWAP1 SLOAD SWAP1 PUSH2 0x100 EXP SWAP1 DIV PUSH1 0xFF AND PUSH1 0x1 DUP2 GT ISZERO PUSH2 0xD5F JUMPI PUSH2 0xD5E PUSH2 0x1AFF JUMP JUMPDEST JUMPDEST PUSH1 0x1 DUP2 GT ISZERO PUSH2 0xD71 JUMPI PUSH2 0xD70 PUSH2 0x1AFF JUMP JUMPDEST JUMPDEST DUP2 MSTORE POP POP CALLER DUP1 PUSH20 0xFFFFFFFFFFFFFFFFFFFFFFFFFFFFFFFFFFFFFFFF AND DUP3 PUSH1 0x0 ADD MLOAD PUSH20 0xFFFFFFFFFFFFFFFFFFFFFFFFFFFFFFFFFFFFFFFF AND EQ PUSH2 0xDE8 JUMPI PUSH1 0x40 MLOAD PUSH32 0x8C379A000000000000000000000000000000000000000000000000000000000 DUP2 MSTORE PUSH1 0x4 ADD PUSH2 0xDDF SWAP1 PUSH2 0x1E09 JUMP JUMPDEST PUSH1 0x40 MLOAD DUP1 SWAP2 SUB SWAP1 REVERT JUMPDEST PUSH1 0x2 DUP5 DUP2 SLOAD DUP2 LT PUSH2 0xDFC JUMPI PUSH2 0xDFB PUSH2 0x1C9A JUMP JUMPDEST JUMPDEST SWAP1 PUSH1 0x0 MSTORE PUSH1 0x20 PUSH1 0x0 KECCAK256 SWAP1 PUSH1 0x4 MUL ADD PUSH1 0x0 DUP1 DUP3 ADD PUSH1 0x0 PUSH2 0x100 EXP DUP2 SLOAD SWAP1 PUSH20 0xFFFFFFFFFFFFFFFFFFFFFFFFFFFFFFFFFFFFFFFF MUL NOT AND SWAP1 SSTORE PUSH1 0x1 DUP3 ADD PUSH1 0x0 SWAP1 SSTORE PUSH1 0x2 DUP3 ADD PUSH1 0x0 SWAP1 SSTORE PUSH1 0x3 DUP3 ADD PUSH1 0x0 PUSH2 0x100 EXP DUP2 SLOAD SWAP1 PUSH1 0xFF MUL NOT AND SWAP1 SSTORE POP POP PUSH2 0xE60 PUSH2 0x14BB JUMP JUMPDEST PUSH32 0xC845A6832AFA0A4048DD70BBBA2186093508A6B63A8D5D70A508F819FEF257F8 DUP5 PUSH1 0x40 MLOAD PUSH2 0xE8F SWAP2 SWAP1 PUSH2 0x1A77 JUMP JUMPDEST PUSH1 0x40 MLOAD DUP1 SWAP2 SUB SWAP1 LOG1 POP POP POP POP JUMP JUMPDEST PUSH1 0x0 DUP2 LT ISZERO PUSH2 0xEE1 JUMPI PUSH1 0x40 MLOAD PUSH32 0x8C379A000000000000000000000000000000000000000000000000000000000 DUP2 MSTORE PUSH1 0x4 ADD PUSH2 0xED8 SWAP1 PUSH2 0x1E75 JUMP JUMPDEST PUSH1 0x40 MLOAD DUP1 SWAP2 SUB SWAP1 REVERT JUMPDEST DUP1 CALLVALUE LT ISZERO PUSH2 0xF24 JUMPI PUSH1 0x40 MLOAD PUSH32 0x8C379A000000000000000000000000000000000000000000000000000000000 DUP2 MSTORE PUSH1 0x4 ADD PUSH2 0xF1B SWAP1 PUSH2 0x20B0 JUMP JUMPDEST PUSH1 0x40 MLOAD DUP1 SWAP2 SUB SWAP1 REVERT JUMPDEST PUSH1 0x0 TIMESTAMP SWAP1 POP PUSH1 0x0 PUSH1 0x40 MLOAD DUP1 PUSH1 0x80 ADD PUSH1 0x40 MSTORE DUP1 CALLER PUSH20 0xFFFFFFFFFFFFFFFFFFFFFFFFFFFFFFFFFFFFFFFF AND DUP2 MSTORE PUSH1 0x20 ADD DUP5 DUP2 MSTORE PUSH1 0x20 ADD DUP4 DUP2 MSTORE PUSH1 0x20 ADD PUSH1 0x0 PUSH1 0x1 DUP2 GT ISZERO PUSH2 0xF72 JUMPI PUSH2 0xF71 PUSH2 0x1AFF JUMP JUMPDEST JUMPDEST DUP2 MSTORE POP SWAP1 POP PUSH1 0x2 DUP2 SWAP1 DUP1 PUSH1 0x1 DUP2 SLOAD ADD DUP1 DUP3 SSTORE DUP1 SWAP2 POP POP PUSH1 0x1 SWAP1 SUB SWAP1 PUSH1 0x0 MSTORE PUSH1 0x20 PUSH1 0x0 KECCAK256 SWAP1 PUSH1 0x4 MUL ADD PUSH1 0x0 SWAP1 SWAP2 SWAP1 SWAP2 SWAP1 SWAP2 POP PUSH1 0x0 DUP3 ADD MLOAD DUP2 PUSH1 0x0 ADD PUSH1 0x0 PUSH2 0x100 EXP DUP2 SLOAD DUP2 PUSH20 0xFFFFFFFFFFFFFFFFFFFFFFFFFFFFFFFFFFFFFFFF MUL NOT AND SWAP1 DUP4 PUSH20 0xFFFFFFFFFFFFFFFFFFFFFFFFFFFFFFFFFFFFFFFF AND MUL OR SWAP1 SSTORE POP PUSH1 0x20 DUP3 ADD MLOAD DUP2 PUSH1 0x1 ADD SSTORE PUSH1 0x40 DUP3 ADD MLOAD DUP2 PUSH1 0x2 ADD SSTORE PUSH1 0x60 DUP3 ADD MLOAD DUP2 PUSH1 0x3 ADD PUSH1 0x0 PUSH2 0x100 EXP DUP2 SLOAD DUP2 PUSH1 0xFF MUL NOT AND SWAP1 DUP4 PUSH1 0x1 DUP2 GT ISZERO PUSH2 0x1029 JUMPI PUSH2 0x1028 PUSH2 0x1AFF JUMP JUMPDEST JUMPDEST MUL OR SWAP1 SSTORE POP POP POP PUSH1 0x0 DUP1 SLOAD SWAP1 PUSH2 0x100 EXP SWAP1 DIV PUSH20 0xFFFFFFFFFFFFFFFFFFFFFFFFFFFFFFFFFFFFFFFF AND PUSH20 0xFFFFFFFFFFFFFFFFFFFFFFFFFFFFFFFFFFFFFFFF AND PUSH2 0x8FC PUSH1 0x64 PUSH1 0x1 SLOAD PUSH1 0x64 PUSH2 0x107B SWAP2 SWAP1 PUSH2 0x1F01 JUMP JUMPDEST CALLVALUE PUSH2 0x1086 SWAP2 SWAP1 PUSH2 0x1F35 JUMP JUMPDEST PUSH2 0x1090 SWAP2 SWAP1 PUSH2 0x1FBE JUMP JUMPDEST SWAP1 DUP2 ISZERO MUL SWAP1 PUSH1 0x40 MLOAD PUSH1 0x0 PUSH1 0x40 MLOAD DUP1 DUP4 SUB DUP2 DUP6 DUP9 DUP9 CALL SWAP4 POP POP POP POP ISZERO DUP1 ISZERO PUSH2 0x10BB JUMPI RETURNDATASIZE PUSH1 0x0 DUP1 RETURNDATACOPY RETURNDATASIZE PUSH1 0x0 REVERT JUMPDEST POP PUSH32 0xA64806D6D5D480697A0B11C92B915A4FF7B93C0BE28171D65D30041A0C360D04 CALLER DUP5 DUP5 PUSH1 0x0 PUSH1 0x40 MLOAD PUSH2 0x10F2 SWAP5 SWAP4 SWAP3 SWAP2 SWAP1 PUSH2 0x201F JUMP JUMPDEST PUSH1 0x40 MLOAD DUP1 SWAP2 SUB SWAP1 LOG1 POP POP POP JUMP JUMPDEST PUSH1 0x60 PUSH1 0x3 DUP1 SLOAD DUP1 PUSH1 0x20 MUL PUSH1 0x20 ADD PUSH1 0x40 MLOAD SWAP1 DUP2 ADD PUSH1 0x40 MSTORE DUP1 SWAP3 SWAP2 SWAP1 DUP2 DUP2 MSTORE PUSH1 0x20 ADD PUSH1 0x0 SWAP1 JUMPDEST DUP3 DUP3 LT ISZERO PUSH2 0x11FA JUMPI DUP4 DUP3 SWAP1 PUSH1 0x0 MSTORE PUSH1 0x20 PUSH1 0x0 KECCAK256 SWAP1 PUSH1 0x4 MUL ADD PUSH1 0x40 MLOAD DUP1 PUSH1 0x80 ADD PUSH1 0x40 MSTORE SWAP1 DUP2 PUSH1 0x0 DUP3 ADD PUSH1 0x0 SWAP1 SLOAD SWAP1 PUSH2 0x100 EXP SWAP1 DIV PUSH20 0xFFFFFFFFFFFFFFFFFFFFFFFFFFFFFFFFFFFFFFFF AND PUSH20 0xFFFFFFFFFFFFFFFFFFFFFFFFFFFFFFFFFFFFFFFF AND PUSH20 0xFFFFFFFFFFFFFFFFFFFFFFFFFFFFFFFFFFFFFFFF AND DUP2 MSTORE PUSH1 0x20 ADD PUSH1 0x1 DUP3 ADD SLOAD DUP2 MSTORE PUSH1 0x20 ADD PUSH1 0x2 DUP3 ADD SLOAD DUP2 MSTORE PUSH1 0x20 ADD PUSH1 0x3 DUP3 ADD PUSH1 0x0 SWAP1 SLOAD SWAP1 PUSH2 0x100 EXP SWAP1 DIV PUSH1 0xFF AND PUSH1 0x1 DUP2 GT ISZERO PUSH2 0x11D5 JUMPI PUSH2 0x11D4 PUSH2 0x1AFF JUMP JUMPDEST JUMPDEST PUSH1 0x1 DUP2 GT ISZERO PUSH2 0x11E7 JUMPI PUSH2 0x11E6 PUSH2 0x1AFF JUMP JUMPDEST JUMPDEST DUP2 MSTORE POP POP DUP2 MSTORE PUSH1 0x20 ADD SWAP1 PUSH1 0x1 ADD SWAP1 PUSH2 0x1123 JUMP JUMPDEST POP POP POP POP SWAP1 POP SWAP1 JUMP JUMPDEST PUSH1 0x60 PUSH2 0x120D PUSH2 0x1358 JUMP JUMPDEST PUSH1 0x0 JUMPDEST PUSH1 0x2 DUP1 SLOAD SWAP1 POP DUP2 LT ISZERO PUSH2 0x12D2 JUMPI CALLER PUSH20 0xFFFFFFFFFFFFFFFFFFFFFFFFFFFFFFFFFFFFFFFF AND PUSH1 0x2 DUP3 DUP2 SLOAD DUP2 LT PUSH2 0x1248 JUMPI PUSH2 0x1247 PUSH2 0x1C9A JUMP JUMPDEST JUMPDEST SWAP1 PUSH1 0x0 MSTORE PUSH1 0x20 PUSH1 0x0 KECCAK256 SWAP1 PUSH1 0x4 MUL ADD PUSH1 0x0 ADD PUSH1 0x0 SWAP1 SLOAD SWAP1 PUSH2 0x100 EXP SWAP1 DIV PUSH20 0xFFFFFFFFFFFFFFFFFFFFFFFFFFFFFFFFFFFFFFFF AND PUSH20 0xFFFFFFFFFFFFFFFFFFFFFFFFFFFFFFFFFFFFFFFF AND SUB PUSH2 0x12BF JUMPI PUSH1 0x4 DUP2 SWAP1 DUP1 PUSH1 0x1 DUP2 SLOAD ADD DUP1 DUP3 SSTORE DUP1 SWAP2 POP POP PUSH1 0x1 SWAP1 SUB SWAP1 PUSH1 0x0 MSTORE PUSH1 0x20 PUSH1 0x0 KECCAK256 ADD PUSH1 0x0 SWAP1 SWAP2 SWAP1 SWAP2 SWAP1 SWAP2 POP SSTORE JUMPDEST DUP1 DUP1 PUSH2 0x12CA SWAP1 PUSH2 0x1CF8 JUMP JUMPDEST SWAP2 POP POP PUSH2 0x1210 JUMP JUMPDEST POP PUSH1 0x4 DUP1 SLOAD DUP1 PUSH1 0x20 MUL PUSH1 0x20 ADD PUSH1 0x40 MLOAD SWAP1 DUP2 ADD PUSH1 0x40 MSTORE DUP1 SWAP3 SWAP2 SWAP1 DUP2 DUP2 MSTORE PUSH1 0x20 ADD DUP3 DUP1 SLOAD DUP1 ISZERO PUSH2 0x131F JUMPI PUSH1 0x20 MUL DUP3 ADD SWAP2 SWAP1 PUSH1 0x0 MSTORE PUSH1 0x20 PUSH1 0x0 KECCAK256 SWAP1 JUMPDEST DUP2 SLOAD DUP2 MSTORE PUSH1 0x20 ADD SWAP1 PUSH1 0x1 ADD SWAP1 DUP1 DUP4 GT PUSH2 0x130B JUMPI JUMPDEST POP POP POP POP POP SWAP1 POP SWAP1 JUMP JUMPDEST PUSH1 0x0 PUSH1 0x2 DUP3 DUP2 SLOAD DUP2 LT PUSH2 0x133F JUMPI PUSH2 0x133E PUSH2 0x1C9A JUMP JUMPDEST JUMPDEST SWAP1 PUSH1 0x0 MSTORE PUSH1 0x20 PUSH1 0x0 KECCAK256 SWAP1 PUSH1 0x4 MUL ADD PUSH1 0x1 ADD SLOAD SWAP1 POP SWAP2 SWAP1 POP JUMP JUMPDEST PUSH1 0x0 JUMPDEST PUSH1 0x4 DUP1 SLOAD SWAP1 POP DUP2 LT ISZERO PUSH2 0x139D JUMPI PUSH1 0x4 DUP2 DUP2 SLOAD DUP2 LT PUSH2 0x137C JUMPI PUSH2 0x137B PUSH2 0x1C9A JUMP JUMPDEST JUMPDEST SWAP1 PUSH1 0x0 MSTORE PUSH1 0x20 PUSH1 0x0 KECCAK256 ADD PUSH1 0x0 SWAP1 SSTORE DUP1 DUP1 PUSH2 0x1395 SWAP1 PUSH2 0x1CF8 JUMP JUMPDEST SWAP2 POP POP PUSH2 0x135B JUMP JUMPDEST POP JUMP JUMPDEST PUSH2 0x14B9 PUSH1 0x2 DUP1 SLOAD DUP1 PUSH1 0x20 MUL PUSH1 0x20 ADD PUSH1 0x40 MLOAD SWAP1 DUP2 ADD PUSH1 0x40 MSTORE DUP1 SWAP3 SWAP2 SWAP1 DUP2 DUP2 MSTORE PUSH1 0x20 ADD PUSH1 0x0 SWAP1 JUMPDEST DUP3 DUP3 LT ISZERO PUSH2 0x149C JUMPI DUP4 DUP3 SWAP1 PUSH1 0x0 MSTORE PUSH1 0x20 PUSH1 0x0 KECCAK256 SWAP1 PUSH1 0x4 MUL ADD PUSH1 0x40 MLOAD DUP1 PUSH1 0x80 ADD PUSH1 0x40 MSTORE SWAP1 DUP2 PUSH1 0x0 DUP3 ADD PUSH1 0x0 SWAP1 SLOAD SWAP1 PUSH2 0x100 EXP SWAP1 DIV PUSH20 0xFFFFFFFFFFFFFFFFFFFFFFFFFFFFFFFFFFFFFFFF AND PUSH20 0xFFFFFFFFFFFFFFFFFFFFFFFFFFFFFFFFFFFFFFFF AND PUSH20 0xFFFFFFFFFFFFFFFFFFFFFFFFFFFFFFFFFFFFFFFF AND DUP2 MSTORE PUSH1 0x20 ADD PUSH1 0x1 DUP3 ADD SLOAD DUP2 MSTORE PUSH1 0x20 ADD PUSH1 0x2 DUP3 ADD SLOAD DUP2 MSTORE PUSH1 0x20 ADD PUSH1 0x3 DUP3 ADD PUSH1 0x0 SWAP1 SLOAD SWAP1 PUSH2 0x100 EXP SWAP1 DIV PUSH1 0xFF AND PUSH1 0x1 DUP2 GT ISZERO PUSH2 0x1477 JUMPI PUSH2 0x1476 PUSH2 0x1AFF JUMP JUMPDEST JUMPDEST PUSH1 0x1 DUP2 GT ISZERO PUSH2 0x1489 JUMPI PUSH2 0x1488 PUSH2 0x1AFF JUMP JUMPDEST JUMPDEST DUP2 MSTORE POP POP DUP2 MSTORE PUSH1 0x20 ADD SWAP1 PUSH1 0x1 ADD SWAP1 PUSH2 0x13C5 JUMP JUMPDEST POP POP POP POP PUSH1 0x0 PUSH1 0x1 PUSH1 0x2 DUP1 SLOAD SWAP1 POP PUSH2 0x14B4 SWAP2 SWAP1 PUSH2 0x1F01 JUMP JUMPDEST PUSH2 0x15D6 JUMP JUMPDEST JUMP JUMPDEST PUSH2 0x15D4 PUSH1 0x2 DUP1 SLOAD DUP1 PUSH1 0x20 MUL PUSH1 0x20 ADD PUSH1 0x40 MLOAD SWAP1 DUP2 ADD PUSH1 0x40 MSTORE DUP1 SWAP3 SWAP2 SWAP1 DUP2 DUP2 MSTORE PUSH1 0x20 ADD PUSH1 0x0 SWAP1 JUMPDEST DUP3 DUP3 LT ISZERO PUSH2 0x15B7 JUMPI DUP4 DUP3 SWAP1 PUSH1 0x0 MSTORE PUSH1 0x20 PUSH1 0x0 KECCAK256 SWAP1 PUSH1 0x4 MUL ADD PUSH1 0x40 MLOAD DUP1 PUSH1 0x80 ADD PUSH1 0x40 MSTORE SWAP1 DUP2 PUSH1 0x0 DUP3 ADD PUSH1 0x0 SWAP1 SLOAD SWAP1 PUSH2 0x100 EXP SWAP1 DIV PUSH20 0xFFFFFFFFFFFFFFFFFFFFFFFFFFFFFFFFFFFFFFFF AND PUSH20 0xFFFFFFFFFFFFFFFFFFFFFFFFFFFFFFFFFFFFFFFF AND PUSH20 0xFFFFFFFFFFFFFFFFFFFFFFFFFFFFFFFFFFFFFFFF AND DUP2 MSTORE PUSH1 0x20 ADD PUSH1 0x1 DUP3 ADD SLOAD DUP2 MSTORE PUSH1 0x20 ADD PUSH1 0x2 DUP3 ADD SLOAD DUP2 MSTORE PUSH1 0x20 ADD PUSH1 0x3 DUP3 ADD PUSH1 0x0 SWAP1 SLOAD SWAP1 PUSH2 0x100 EXP SWAP1 DIV PUSH1 0xFF AND PUSH1 0x1 DUP2 GT ISZERO PUSH2 0x1592 JUMPI PUSH2 0x1591 PUSH2 0x1AFF JUMP JUMPDEST JUMPDEST PUSH1 0x1 DUP2 GT ISZERO PUSH2 0x15A4 JUMPI PUSH2 0x15A3 PUSH2 0x1AFF JUMP JUMPDEST JUMPDEST DUP2 MSTORE POP POP DUP2 MSTORE PUSH1 0x20 ADD SWAP1 PUSH1 0x1 ADD SWAP1 PUSH2 0x14E0 JUMP JUMPDEST POP POP POP POP PUSH1 0x0 PUSH1 0x1 PUSH1 0x2 DUP1 SLOAD SWAP1 POP PUSH2 0x15CF SWAP2 SWAP1 PUSH2 0x1F01 JUMP JUMPDEST PUSH2 0x177B JUMP JUMPDEST JUMP JUMPDEST PUSH1 0x0 DUP3 SWAP1 POP PUSH1 0x0 DUP3 SWAP1 POP DUP1 DUP3 SUB PUSH2 0x15EE JUMPI POP POP PUSH2 0x1776 JUMP JUMPDEST PUSH1 0x0 DUP6 PUSH1 0x2 DUP7 DUP7 PUSH2 0x15FF SWAP2 SWAP1 PUSH2 0x20DA JUMP JUMPDEST PUSH2 0x1609 SWAP2 SWAP1 PUSH2 0x216E JUMP JUMPDEST DUP7 PUSH2 0x1614 SWAP2 SWAP1 PUSH2 0x21D8 JUMP JUMPDEST DUP2 MLOAD DUP2 LT PUSH2 0x1625 JUMPI PUSH2 0x1624 PUSH2 0x1C9A JUMP JUMPDEST JUMPDEST PUSH1 0x20 MUL PUSH1 0x20 ADD ADD MLOAD PUSH1 0x40 ADD MLOAD SWAP1 POP JUMPDEST DUP2 DUP4 SGT PUSH2 0x174A JUMPI JUMPDEST DUP1 DUP7 DUP5 DUP2 MLOAD DUP2 LT PUSH2 0x1650 JUMPI PUSH2 0x164F PUSH2 0x1C9A JUMP JUMPDEST JUMPDEST PUSH1 0x20 MUL PUSH1 0x20 ADD ADD MLOAD PUSH1 0x40 ADD MLOAD GT ISZERO PUSH2 0x1675 JUMPI DUP3 DUP1 PUSH2 0x166D SWAP1 PUSH2 0x226C JUMP JUMPDEST SWAP4 POP POP PUSH2 0x163C JUMP JUMPDEST JUMPDEST DUP6 DUP3 DUP2 MLOAD DUP2 LT PUSH2 0x1689 JUMPI PUSH2 0x1688 PUSH2 0x1C9A JUMP JUMPDEST JUMPDEST PUSH1 0x20 MUL PUSH1 0x20 ADD ADD MLOAD PUSH1 0x40 ADD MLOAD DUP2 GT ISZERO PUSH2 0x16AF JUMPI DUP2 DUP1 PUSH2 0x16A7 SWAP1 PUSH2 0x22B4 JUMP JUMPDEST SWAP3 POP POP PUSH2 0x1676 JUMP JUMPDEST DUP2 DUP4 SGT PUSH2 0x1745 JUMPI DUP6 DUP3 DUP2 MLOAD DUP2 LT PUSH2 0x16C9 JUMPI PUSH2 0x16C8 PUSH2 0x1C9A JUMP JUMPDEST JUMPDEST PUSH1 0x20 MUL PUSH1 0x20 ADD ADD MLOAD DUP7 DUP5 DUP2 MLOAD DUP2 LT PUSH2 0x16E4 JUMPI PUSH2 0x16E3 PUSH2 0x1C9A JUMP JUMPDEST JUMPDEST PUSH1 0x20 MUL PUSH1 0x20 ADD ADD MLOAD DUP8 DUP6 DUP2 MLOAD DUP2 LT PUSH2 0x16FF JUMPI PUSH2 0x16FE PUSH2 0x1C9A JUMP JUMPDEST JUMPDEST PUSH1 0x20 MUL PUSH1 0x20 ADD ADD DUP9 DUP6 DUP2 MLOAD DUP2 LT PUSH2 0x1719 JUMPI PUSH2 0x1718 PUSH2 0x1C9A JUMP JUMPDEST JUMPDEST PUSH1 0x20 MUL PUSH1 0x20 ADD ADD DUP3 SWAP1 MSTORE DUP3 SWAP1 MSTORE POP POP DUP3 DUP1 PUSH2 0x1733 SWAP1 PUSH2 0x226C JUMP JUMPDEST SWAP4 POP POP DUP2 DUP1 PUSH2 0x1741 SWAP1 PUSH2 0x22B4 JUMP JUMPDEST SWAP3 POP POP JUMPDEST PUSH2 0x1634 JUMP JUMPDEST DUP2 DUP6 SLT ISZERO PUSH2 0x175E JUMPI PUSH2 0x175D DUP7 DUP7 DUP5 PUSH2 0x15D6 JUMP JUMPDEST JUMPDEST DUP4 DUP4 SLT ISZERO PUSH2 0x1772 JUMPI PUSH2 0x1771 DUP7 DUP5 DUP7 PUSH2 0x15D6 JUMP JUMPDEST JUMPDEST POP POP POP JUMPDEST POP POP POP JUMP JUMPDEST PUSH1 0x0 DUP3 SWAP1 POP PUSH1 0x0 DUP3 SWAP1 POP DUP1 DUP3 SUB PUSH2 0x1793 JUMPI POP POP PUSH2 0x191B JUMP JUMPDEST PUSH1 0x0 DUP6 PUSH1 0x2 DUP7 DUP7 PUSH2 0x17A4 SWAP2 SWAP1 PUSH2 0x20DA JUMP JUMPDEST PUSH2 0x17AE SWAP2 SWAP1 PUSH2 0x216E JUMP JUMPDEST DUP7 PUSH2 0x17B9 SWAP2 SWAP1 PUSH2 0x21D8 JUMP JUMPDEST DUP2 MLOAD DUP2 LT PUSH2 0x17CA JUMPI PUSH2 0x17C9 PUSH2 0x1C9A JUMP JUMPDEST JUMPDEST PUSH1 0x20 MUL PUSH1 0x20 ADD ADD MLOAD PUSH1 0x40 ADD MLOAD SWAP1 POP JUMPDEST DUP2 DUP4 SGT PUSH2 0x18EF JUMPI JUMPDEST DUP1 DUP7 DUP5 DUP2 MLOAD DUP2 LT PUSH2 0x17F5 JUMPI PUSH2 0x17F4 PUSH2 0x1C9A JUMP JUMPDEST JUMPDEST PUSH1 0x20 MUL PUSH1 0x20 ADD ADD MLOAD PUSH1 0x40 ADD MLOAD LT ISZERO PUSH2 0x181A JUMPI DUP3 DUP1 PUSH2 0x1812 SWAP1 PUSH2 0x226C JUMP JUMPDEST SWAP4 POP POP PUSH2 0x17E1 JUMP JUMPDEST JUMPDEST DUP6 DUP3 DUP2 MLOAD DUP2 LT PUSH2 0x182E JUMPI PUSH2 0x182D PUSH2 0x1C9A JUMP JUMPDEST JUMPDEST PUSH1 0x20 MUL PUSH1 0x20 ADD ADD MLOAD PUSH1 0x40 ADD MLOAD DUP2 LT ISZERO PUSH2 0x1854 JUMPI DUP2 DUP1 PUSH2 0x184C SWAP1 PUSH2 0x22B4 JUMP JUMPDEST SWAP3 POP POP PUSH2 0x181B JUMP JUMPDEST DUP2 DUP4 SGT PUSH2 0x18EA JUMPI DUP6 DUP3 DUP2 MLOAD DUP2 LT PUSH2 0x186E JUMPI PUSH2 0x186D PUSH2 0x1C9A JUMP JUMPDEST JUMPDEST PUSH1 0x20 MUL PUSH1 0x20 ADD ADD MLOAD DUP7 DUP5 DUP2 MLOAD DUP2 LT PUSH2 0x1889 JUMPI PUSH2 0x1888 PUSH2 0x1C9A JUMP JUMPDEST JUMPDEST PUSH1 0x20 MUL PUSH1 0x20 ADD ADD MLOAD DUP8 DUP6 DUP2 MLOAD DUP2 LT PUSH2 0x18A4 JUMPI PUSH2 0x18A3 PUSH2 0x1C9A JUMP JUMPDEST JUMPDEST PUSH1 0x20 MUL PUSH1 0x20 ADD ADD DUP9 DUP6 DUP2 MLOAD DUP2 LT PUSH2 0x18BE JUMPI PUSH2 0x18BD PUSH2 0x1C9A JUMP JUMPDEST JUMPDEST PUSH1 0x20 MUL PUSH1 0x20 ADD ADD DUP3 SWAP1 MSTORE DUP3 SWAP1 MSTORE POP POP DUP3 DUP1 PUSH2 0x18D8 SWAP1 PUSH2 0x226C JUMP JUMPDEST SWAP4 POP POP DUP2 DUP1 PUSH2 0x18E6 SWAP1 PUSH2 0x22B4 JUMP JUMPDEST SWAP3 POP POP JUMPDEST PUSH2 0x17D9 JUMP JUMPDEST DUP2 DUP6 SLT ISZERO PUSH2 0x1903 JUMPI PUSH2 0x1902 DUP7 DUP7 DUP5 PUSH2 0x177B JUMP JUMPDEST JUMPDEST DUP4 DUP4 SLT ISZERO PUSH2 0x1917 JUMPI PUSH2 0x1916 DUP7 DUP5 DUP7 PUSH2 0x177B JUMP JUMPDEST JUMPDEST POP POP POP JUMPDEST POP POP POP JUMP JUMPDEST PUSH1 0x0 DUP2 MLOAD SWAP1 POP SWAP2 SWAP1 POP JUMP JUMPDEST PUSH1 0x0 DUP3 DUP3 MSTORE PUSH1 0x20 DUP3 ADD SWAP1 POP SWAP3 SWAP2 POP POP JUMP JUMPDEST PUSH1 0x0 DUP2 SWAP1 POP PUSH1 0x20 DUP3 ADD SWAP1 POP SWAP2 SWAP1 POP JUMP JUMPDEST PUSH1 0x0 DUP2 SWAP1 POP SWAP2 SWAP1 POP JUMP JUMPDEST PUSH2 0x195F DUP2 PUSH2 0x194C JUMP JUMPDEST DUP3 MSTORE POP POP JUMP JUMPDEST PUSH1 0x0 PUSH2 0x1971 DUP4 DUP4 PUSH2 0x1956 JUMP JUMPDEST PUSH1 0x20 DUP4 ADD SWAP1 POP SWAP3 SWAP2 POP POP JUMP JUMPDEST PUSH1 0x0 PUSH1 0x20 DUP3 ADD SWAP1 POP SWAP2 SWAP1 POP JUMP JUMPDEST PUSH1 0x0 PUSH2 0x1995 DUP3 PUSH2 0x1920 JUMP JUMPDEST PUSH2 0x199F DUP2 DUP6 PUSH2 0x192B JUMP JUMPDEST SWAP4 POP PUSH2 0x19AA DUP4 PUSH2 0x193C JUMP JUMPDEST DUP1 PUSH1 0x0 JUMPDEST DUP4 DUP2 LT ISZERO PUSH2 0x19DB JUMPI DUP2 MLOAD PUSH2 0x19C2 DUP9 DUP3 PUSH2 0x1965 JUMP JUMPDEST SWAP8 POP PUSH2 0x19CD DUP4 PUSH2 0x197D JUMP JUMPDEST SWAP3 POP POP PUSH1 0x1 DUP2 ADD SWAP1 POP PUSH2 0x19AE JUMP JUMPDEST POP DUP6 SWAP4 POP POP POP POP SWAP3 SWAP2 POP POP JUMP JUMPDEST PUSH1 0x0 PUSH1 0x20 DUP3 ADD SWAP1 POP DUP2 DUP2 SUB PUSH1 0x0 DUP4 ADD MSTORE PUSH2 0x1A02 DUP2 DUP5 PUSH2 0x198A JUMP JUMPDEST SWAP1 POP SWAP3 SWAP2 POP POP JUMP JUMPDEST PUSH1 0x0 DUP1 REVERT JUMPDEST PUSH2 0x1A18 DUP2 PUSH2 0x194C JUMP JUMPDEST DUP2 EQ PUSH2 0x1A23 JUMPI PUSH1 0x0 DUP1 REVERT JUMPDEST POP JUMP JUMPDEST PUSH1 0x0 DUP2 CALLDATALOAD SWAP1 POP PUSH2 0x1A35 DUP2 PUSH2 0x1A0F JUMP JUMPDEST SWAP3 SWAP2 POP POP JUMP JUMPDEST PUSH1 0x0 PUSH1 0x20 DUP3 DUP5 SUB SLT ISZERO PUSH2 0x1A51 JUMPI PUSH2 0x1A50 PUSH2 0x1A0A JUMP JUMPDEST JUMPDEST PUSH1 0x0 PUSH2 0x1A5F DUP5 DUP3 DUP6 ADD PUSH2 0x1A26 JUMP JUMPDEST SWAP2 POP POP SWAP3 SWAP2 POP POP JUMP JUMPDEST PUSH2 0x1A71 DUP2 PUSH2 0x194C JUMP JUMPDEST DUP3 MSTORE POP POP JUMP JUMPDEST PUSH1 0x0 PUSH1 0x20 DUP3 ADD SWAP1 POP PUSH2 0x1A8C PUSH1 0x0 DUP4 ADD DUP5 PUSH2 0x1A68 JUMP JUMPDEST SWAP3 SWAP2 POP POP JUMP JUMPDEST PUSH1 0x0 DUP2 MLOAD SWAP1 POP SWAP2 SWAP1 POP JUMP JUMPDEST PUSH1 0x0 DUP3 DUP3 MSTORE PUSH1 0x20 DUP3 ADD SWAP1 POP SWAP3 SWAP2 POP POP JUMP JUMPDEST PUSH1 0x0 DUP2 SWAP1 POP PUSH1 0x20 DUP3 ADD SWAP1 POP SWAP2 SWAP1 POP JUMP JUMPDEST PUSH1 0x0 PUSH20 0xFFFFFFFFFFFFFFFFFFFFFFFFFFFFFFFFFFFFFFFF DUP3 AND SWAP1 POP SWAP2 SWAP1 POP JUMP JUMPDEST PUSH1 0x0 PUSH2 0x1AE9 DUP3 PUSH2 0x1ABE JUMP JUMPDEST SWAP1 POP SWAP2 SWAP1 POP JUMP JUMPDEST PUSH2 0x1AF9 DUP2 PUSH2 0x1ADE JUMP JUMPDEST DUP3 MSTORE POP POP JUMP JUMPDEST PUSH32 0x4E487B7100000000000000000000000000000000000000000000000000000000 PUSH1 0x0 MSTORE PUSH1 0x21 PUSH1 0x4 MSTORE PUSH1 0x24 PUSH1 0x0 REVERT JUMPDEST PUSH1 0x2 DUP2 LT PUSH2 0x1B3F JUMPI PUSH2 0x1B3E PUSH2 0x1AFF JUMP JUMPDEST JUMPDEST POP JUMP JUMPDEST PUSH1 0x0 DUP2 SWAP1 POP PUSH2 0x1B50 DUP3 PUSH2 0x1B2E JUMP JUMPDEST SWAP2 SWAP1 POP JUMP JUMPDEST PUSH1 0x0 PUSH2 0x1B60 DUP3 PUSH2 0x1B42 JUMP JUMPDEST SWAP1 POP SWAP2 SWAP1 POP JUMP JUMPDEST PUSH2 0x1B70 DUP2 PUSH2 0x1B55 JUMP JUMPDEST DUP3 MSTORE POP POP JUMP JUMPDEST PUSH1 0x80 DUP3 ADD PUSH1 0x0 DUP3 ADD MLOAD PUSH2 0x1B8C PUSH1 0x0 DUP6 ADD DUP3 PUSH2 0x1AF0 JUMP JUMPDEST POP PUSH1 0x20 DUP3 ADD MLOAD PUSH2 0x1B9F PUSH1 0x20 DUP6 ADD DUP3 PUSH2 0x1956 JUMP JUMPDEST POP PUSH1 0x40 DUP3 ADD MLOAD PUSH2 0x1BB2 PUSH1 0x40 DUP6 ADD DUP3 PUSH2 0x1956 JUMP JUMPDEST POP PUSH1 0x60 DUP3 ADD MLOAD PUSH2 0x1BC5 PUSH1 0x60 DUP6 ADD DUP3 PUSH2 0x1B67 JUMP JUMPDEST POP POP POP POP JUMP JUMPDEST PUSH1 0x0 PUSH2 0x1BD7 DUP4 DUP4 PUSH2 0x1B76 JUMP JUMPDEST PUSH1 0x80 DUP4 ADD SWAP1 POP SWAP3 SWAP2 POP POP JUMP JUMPDEST PUSH1 0x0 PUSH1 0x20 DUP3 ADD SWAP1 POP SWAP2 SWAP1 POP JUMP JUMPDEST PUSH1 0x0 PUSH2 0x1BFB DUP3 PUSH2 0x1A92 JUMP JUMPDEST PUSH2 0x1C05 DUP2 DUP6 PUSH2 0x1A9D JUMP JUMPDEST SWAP4 POP PUSH2 0x1C10 DUP4 PUSH2 0x1AAE JUMP JUMPDEST DUP1 PUSH1 0x0 JUMPDEST DUP4 DUP2 LT ISZERO PUSH2 0x1C41 JUMPI DUP2 MLOAD PUSH2 0x1C28 DUP9 DUP3 PUSH2 0x1BCB JUMP JUMPDEST SWAP8 POP PUSH2 0x1C33 DUP4 PUSH2 0x1BE3 JUMP JUMPDEST SWAP3 POP POP PUSH1 0x1 DUP2 ADD SWAP1 POP PUSH2 0x1C14 JUMP JUMPDEST POP DUP6 SWAP4 POP POP POP POP SWAP3 SWAP2 POP POP JUMP JUMPDEST PUSH1 0x0 PUSH1 0x20 DUP3 ADD SWAP1 POP DUP2 DUP2 SUB PUSH1 0x0 DUP4 ADD MSTORE PUSH2 0x1C68 DUP2 DUP5 PUSH2 0x1BF0 JUMP JUMPDEST SWAP1 POP SWAP3 SWAP2 POP POP JUMP JUMPDEST PUSH2 0x1C79 DUP2 PUSH2 0x1ADE JUMP JUMPDEST DUP3 MSTORE POP POP JUMP JUMPDEST PUSH1 0x0 PUSH1 0x20 DUP3 ADD SWAP1 POP PUSH2 0x1C94 PUSH1 0x0 DUP4 ADD DUP5 PUSH2 0x1C70 JUMP JUMPDEST SWAP3 SWAP2 POP POP JUMP JUMPDEST PUSH32 0x4E487B7100000000000000000000000000000000000000000000000000000000 PUSH1 0x0 MSTORE PUSH1 0x32 PUSH1 0x4 MSTORE PUSH1 0x24 PUSH1 0x0 REVERT JUMPDEST PUSH32 0x4E487B7100000000000000000000000000000000000000000000000000000000 PUSH1 0x0 MSTORE PUSH1 0x11 PUSH1 0x4 MSTORE PUSH1 0x24 PUSH1 0x0 REVERT JUMPDEST PUSH1 0x0 PUSH2 0x1D03 DUP3 PUSH2 0x194C JUMP JUMPDEST SWAP2 POP PUSH32 0xFFFFFFFFFFFFFFFFFFFFFFFFFFFFFFFFFFFFFFFFFFFFFFFFFFFFFFFFFFFFFFFF DUP3 SUB PUSH2 0x1D35 JUMPI PUSH2 0x1D34 PUSH2 0x1CC9 JUMP JUMPDEST JUMPDEST PUSH1 0x1 DUP3 ADD SWAP1 POP SWAP2 SWAP1 POP JUMP JUMPDEST PUSH1 0x0 DUP3 DUP3 MSTORE PUSH1 0x20 DUP3 ADD SWAP1 POP SWAP3 SWAP2 POP POP JUMP JUMPDEST PUSH32 0x4F726465722050656E64696E6700000000000000000000000000000000000000 PUSH1 0x0 DUP3 ADD MSTORE POP JUMP JUMPDEST PUSH1 0x0 PUSH2 0x1D87 PUSH1 0xD DUP4 PUSH2 0x1D40 JUMP JUMPDEST SWAP2 POP PUSH2 0x1D92 DUP3 PUSH2 0x1D51 JUMP JUMPDEST PUSH1 0x20 DUP3 ADD SWAP1 POP SWAP2 SWAP1 POP JUMP JUMPDEST PUSH1 0x0 PUSH1 0x20 DUP3 ADD SWAP1 POP DUP2 DUP2 SUB PUSH1 0x0 DUP4 ADD MSTORE PUSH2 0x1DB6 DUP2 PUSH2 0x1D7A JUMP JUMPDEST SWAP1 POP SWAP2 SWAP1 POP JUMP JUMPDEST PUSH32 0x4E6F7420417574686F7269736564000000000000000000000000000000000000 PUSH1 0x0 DUP3 ADD MSTORE POP JUMP JUMPDEST PUSH1 0x0 PUSH2 0x1DF3 PUSH1 0xE DUP4 PUSH2 0x1D40 JUMP JUMPDEST SWAP2 POP PUSH2 0x1DFE DUP3 PUSH2 0x1DBD JUMP JUMPDEST PUSH1 0x20 DUP3 ADD SWAP1 POP SWAP2 SWAP1 POP JUMP JUMPDEST PUSH1 0x0 PUSH1 0x20 DUP3 ADD SWAP1 POP DUP2 DUP2 SUB PUSH1 0x0 DUP4 ADD MSTORE PUSH2 0x1E22 DUP2 PUSH2 0x1DE6 JUMP JUMPDEST SWAP1 POP SWAP2 SWAP1 POP JUMP JUMPDEST PUSH32 0x70726963652076616C7565206D757374206265206D6F7265207468616E203000 PUSH1 0x0 DUP3 ADD MSTORE POP JUMP JUMPDEST PUSH1 0x0 PUSH2 0x1E5F PUSH1 0x1F DUP4 PUSH2 0x1D40 JUMP JUMPDEST SWAP2 POP PUSH2 0x1E6A DUP3 PUSH2 0x1E29 JUMP JUMPDEST PUSH1 0x20 DUP3 ADD SWAP1 POP SWAP2 SWAP1 POP JUMP JUMPDEST PUSH1 0x0 PUSH1 0x20 DUP3 ADD SWAP1 POP DUP2 DUP2 SUB PUSH1 0x0 DUP4 ADD MSTORE PUSH2 0x1E8E DUP2 PUSH2 0x1E52 JUMP JUMPDEST SWAP1 POP SWAP2 SWAP1 POP JUMP JUMPDEST PUSH32 0x4E6F7420656E6F75676820626C616E636520746F20706C6163652061736B0000 PUSH1 0x0 DUP3 ADD MSTORE POP JUMP JUMPDEST PUSH1 0x0 PUSH2 0x1ECB PUSH1 0x1E DUP4 PUSH2 0x1D40 JUMP JUMPDEST SWAP2 POP PUSH2 0x1ED6 DUP3 PUSH2 0x1E95 JUMP JUMPDEST PUSH1 0x20 DUP3 ADD SWAP1 POP SWAP2 SWAP1 POP JUMP JUMPDEST PUSH1 0x0 PUSH1 0x20 DUP3 ADD SWAP1 POP DUP2 DUP2 SUB PUSH1 0x0 DUP4 ADD MSTORE PUSH2 0x1EFA DUP2 PUSH2 0x1EBE JUMP JUMPDEST SWAP1 POP SWAP2 SWAP1 POP JUMP JUMPDEST PUSH1 0x0 PUSH2 0x1F0C DUP3 PUSH2 0x194C JUMP JUMPDEST SWAP2 POP PUSH2 0x1F17 DUP4 PUSH2 0x194C JUMP JUMPDEST SWAP3 POP DUP3 DUP3 LT ISZERO PUSH2 0x1F2A JUMPI PUSH2 0x1F29 PUSH2 0x1CC9 JUMP JUMPDEST JUMPDEST DUP3 DUP3 SUB SWAP1 POP SWAP3 SWAP2 POP POP JUMP JUMPDEST PUSH1 0x0 PUSH2 0x1F40 DUP3 PUSH2 0x194C JUMP JUMPDEST SWAP2 POP PUSH2 0x1F4B DUP4 PUSH2 0x194C JUMP JUMPDEST SWAP3 POP DUP2 PUSH32 0xFFFFFFFFFFFFFFFFFFFFFFFFFFFFFFFFFFFFFFFFFFFFFFFFFFFFFFFFFFFFFFFF DIV DUP4 GT DUP3 ISZERO ISZERO AND ISZERO PUSH2 0x1F84 JUMPI PUSH2 0x1F83 PUSH2 0x1CC9 JUMP JUMPDEST JUMPDEST DUP3 DUP3 MUL SWAP1 POP SWAP3 SWAP2 POP POP JUMP JUMPDEST PUSH32 0x4E487B7100000000000000000000000000000000000000000000000000000000 PUSH1 0x0 MSTORE PUSH1 0x12 PUSH1 0x4 MSTORE PUSH1 0x24 PUSH1 0x0 REVERT JUMPDEST PUSH1 0x0 PUSH2 0x1FC9 DUP3 PUSH2 0x194C JUMP JUMPDEST SWAP2 POP PUSH2 0x1FD4 DUP4 PUSH2 0x194C JUMP JUMPDEST SWAP3 POP DUP3 PUSH2 0x1FE4 JUMPI PUSH2 0x1FE3 PUSH2 0x1F8F JUMP JUMPDEST JUMPDEST DUP3 DUP3 DIV SWAP1 POP SWAP3 SWAP2 POP POP JUMP JUMPDEST PUSH1 0x0 PUSH2 0x1FFA DUP3 PUSH2 0x1ABE JUMP JUMPDEST SWAP1 POP SWAP2 SWAP1 POP JUMP JUMPDEST PUSH2 0x200A DUP2 PUSH2 0x1FEF JUMP JUMPDEST DUP3 MSTORE POP POP JUMP JUMPDEST PUSH2 0x2019 DUP2 PUSH2 0x1B55 JUMP JUMPDEST DUP3 MSTORE POP POP JUMP JUMPDEST PUSH1 0x0 PUSH1 0x80 DUP3 ADD SWAP1 POP PUSH2 0x2034 PUSH1 0x0 DUP4 ADD DUP8 PUSH2 0x2001 JUMP JUMPDEST PUSH2 0x2041 PUSH1 0x20 DUP4 ADD DUP7 PUSH2 0x1A68 JUMP JUMPDEST PUSH2 0x204E PUSH1 0x40 DUP4 ADD DUP6 PUSH2 0x1A68 JUMP JUMPDEST PUSH2 0x205B PUSH1 0x60 DUP4 ADD DUP5 PUSH2 0x2010 JUMP JUMPDEST SWAP6 SWAP5 POP POP POP POP POP JUMP JUMPDEST PUSH32 0x4E6F7420656E6F75676820626C616E636520746F20706C616365206269640000 PUSH1 0x0 DUP3 ADD MSTORE POP JUMP JUMPDEST PUSH1 0x0 PUSH2 0x209A PUSH1 0x1E DUP4 PUSH2 0x1D40 JUMP JUMPDEST SWAP2 POP PUSH2 0x20A5 DUP3 PUSH2 0x2064 JUMP JUMPDEST PUSH1 0x20 DUP3 ADD SWAP1 POP SWAP2 SWAP1 POP JUMP JUMPDEST PUSH1 0x0 PUSH1 0x20 DUP3 ADD SWAP1 POP DUP2 DUP2 SUB PUSH1 0x0 DUP4 ADD MSTORE PUSH2 0x20C9 DUP2 PUSH2 0x208D JUMP JUMPDEST SWAP1 POP SWAP2 SWAP1 POP JUMP JUMPDEST PUSH1 0x0 DUP2 SWAP1 POP SWAP2 SWAP1 POP JUMP JUMPDEST PUSH1 0x0 PUSH2 0x20E5 DUP3 PUSH2 0x20D0 JUMP JUMPDEST SWAP2 POP PUSH2 0x20F0 DUP4 PUSH2 0x20D0 JUMP JUMPDEST SWAP3 POP DUP3 PUSH32 0x8000000000000000000000000000000000000000000000000000000000000000 ADD DUP3 SLT PUSH1 0x0 DUP5 SLT ISZERO AND ISZERO PUSH2 0x212B JUMPI PUSH2 0x212A PUSH2 0x1CC9 JUMP JUMPDEST JUMPDEST DUP3 PUSH32 0x7FFFFFFFFFFFFFFFFFFFFFFFFFFFFFFFFFFFFFFFFFFFFFFFFFFFFFFFFFFFFFFF ADD DUP3 SGT PUSH1 0x0 DUP5 SLT AND ISZERO PUSH2 0x2163 JUMPI PUSH2 0x2162 PUSH2 0x1CC9 JUMP JUMPDEST JUMPDEST DUP3 DUP3 SUB SWAP1 POP SWAP3 SWAP2 POP POP JUMP JUMPDEST PUSH1 0x0 PUSH2 0x2179 DUP3 PUSH2 0x20D0 JUMP JUMPDEST SWAP2 POP PUSH2 0x2184 DUP4 PUSH2 0x20D0 JUMP JUMPDEST SWAP3 POP DUP3 PUSH2 0x2194 JUMPI PUSH2 0x2193 PUSH2 0x1F8F JUMP JUMPDEST JUMPDEST PUSH1 0x1 PUSH1 0x0 SUB DUP4 EQ PUSH32 0x8000000000000000000000000000000000000000000000000000000000000000 DUP4 EQ AND ISZERO PUSH2 0x21CD JUMPI PUSH2 0x21CC PUSH2 0x1CC9 JUMP JUMPDEST JUMPDEST DUP3 DUP3 SDIV SWAP1 POP SWAP3 SWAP2 POP POP JUMP JUMPDEST PUSH1 0x0 PUSH2 0x21E3 DUP3 PUSH2 0x20D0 JUMP JUMPDEST SWAP2 POP PUSH2 0x21EE DUP4 PUSH2 0x20D0 JUMP JUMPDEST SWAP3 POP DUP2 PUSH32 0x7FFFFFFFFFFFFFFFFFFFFFFFFFFFFFFFFFFFFFFFFFFFFFFFFFFFFFFFFFFFFFFF SUB DUP4 SGT PUSH1 0x0 DUP4 SLT ISZERO AND ISZERO PUSH2 0x2229 JUMPI PUSH2 0x2228 PUSH2 0x1CC9 JUMP JUMPDEST JUMPDEST DUP2 PUSH32 0x8000000000000000000000000000000000000000000000000000000000000000 SUB DUP4 SLT PUSH1 0x0 DUP4 SLT AND ISZERO PUSH2 0x2261 JUMPI PUSH2 0x2260 PUSH2 0x1CC9 JUMP JUMPDEST JUMPDEST DUP3 DUP3 ADD SWAP1 POP SWAP3 SWAP2 POP POP JUMP JUMPDEST PUSH1 0x0 PUSH2 0x2277 DUP3 PUSH2 0x20D0 JUMP JUMPDEST SWAP2 POP PUSH32 0x7FFFFFFFFFFFFFFFFFFFFFFFFFFFFFFFFFFFFFFFFFFFFFFFFFFFFFFFFFFFFFFF DUP3 SUB PUSH2 0x22A9 JUMPI PUSH2 0x22A8 PUSH2 0x1CC9 JUMP JUMPDEST JUMPDEST PUSH1 0x1 DUP3 ADD SWAP1 POP SWAP2 SWAP1 POP JUMP JUMPDEST PUSH1 0x0 PUSH2 0x22BF DUP3 PUSH2 0x20D0 JUMP JUMPDEST SWAP2 POP PUSH32 0x8000000000000000000000000000000000000000000000000000000000000000 DUP3 SUB PUSH2 0x22F1 JUMPI PUSH2 0x22F0 PUSH2 0x1CC9 JUMP JUMPDEST JUMPDEST PUSH1 0x1 DUP3 SUB SWAP1 POP SWAP2 SWAP1 POP JUMP INVALID LOG2 PUSH5 0x6970667358 0x22 SLT KECCAK256 0xF9 0xD2 0xBA MOD 0x2E 0xE2 0x4C PC LOG2 0xE6 0xD7 SMOD PUSH13 0x7DB08F525935BF446BA2446A93 PUSH1 0x91 0x27 0xCD GASPRICE 0xCB PUSH5 0x736F6C6343 STOP ADDMOD 0xD STOP CALLER "
				},
				"gasEstimates": {
					"creation": {
						"codeDepositCost": "1802000",
						"executionCost": "infinite",
						"totalCost": "infinite"
					},
					"external": {
						"cancelAsk(uint256)": "infinite",
						"cancelBid(uint256)": "infinite",
						"fetchAllAsk()": "infinite",
						"fetchAllBid()": "infinite",
						"fetchYourAskIds()": "infinite",
						"fetchYourBidIds()": "infinite",
						"getAskAddress(uint256)": "5095",
						"getAskValue(uint256)": "infinite",
						"getBidAddress(uint256)": "5073",
						"getBidValue(uint256)": "infinite",
						"placeAsk(uint256)": "infinite",
						"placeBid(uint256)": "infinite"
					},
					"internal": {
						"ascendingQuickSort(struct OrderBook.order memory[] memory,int256,int256)": "infinite",
						"deleteArray()": "infinite",
						"descendingQuickSort(struct OrderBook.order memory[] memory,int256,int256)": "infinite",
						"sortAsk()": "infinite",
						"sortBid()": "infinite"
					}
				},
				"methodIdentifiers": {
					"cancelAsk(uint256)": "1628e0f5",
					"cancelBid(uint256)": "9703ef35",
					"fetchAllAsk()": "c5374af2",
					"fetchAllBid()": "4471417f",
					"fetchYourAskIds()": "122de8f2",
					"fetchYourBidIds()": "ce0cdc87",
					"getAskAddress(uint256)": "734a2e78",
					"getAskValue(uint256)": "db3a1396",
					"getBidAddress(uint256)": "69f632e2",
					"getBidValue(uint256)": "2db6dfa7",
					"placeAsk(uint256)": "78c5b268",
					"placeBid(uint256)": "9979ef45"
				}
			},
			"storageLayout": {
				"storage": [
					{
						"astId": 6,
						"contract": "contracts/OrderBook.sol:OrderBook",
						"label": "_owner",
						"offset": 0,
						"slot": "0",
						"type": "t_address_payable"
					},
					{
						"astId": 8,
						"contract": "contracts/OrderBook.sol:OrderBook",
						"label": "commission",
						"offset": 0,
						"slot": "1",
						"type": "t_uint256"
					},
					{
						"astId": 40,
						"contract": "contracts/OrderBook.sol:OrderBook",
						"label": "bidBook",
						"offset": 0,
						"slot": "2",
						"type": "t_array(t_struct(order)36_storage)dyn_storage"
					},
					{
						"astId": 44,
						"contract": "contracts/OrderBook.sol:OrderBook",
						"label": "askBook",
						"offset": 0,
						"slot": "3",
						"type": "t_array(t_struct(order)36_storage)dyn_storage"
					},
					{
						"astId": 47,
						"contract": "contracts/OrderBook.sol:OrderBook",
						"label": "request",
						"offset": 0,
						"slot": "4",
						"type": "t_array(t_uint256)dyn_storage"
					}
				],
				"types": {
					"t_address_payable": {
						"encoding": "inplace",
						"label": "address payable",
						"numberOfBytes": "20"
					},
					"t_array(t_struct(order)36_storage)dyn_storage": {
						"base": "t_struct(order)36_storage",
						"encoding": "dynamic_array",
						"label": "struct OrderBook.order[]",
						"numberOfBytes": "32"
					},
					"t_array(t_uint256)dyn_storage": {
						"base": "t_uint256",
						"encoding": "dynamic_array",
						"label": "uint256[]",
						"numberOfBytes": "32"
					},
					"t_enum(State)4": {
						"encoding": "inplace",
						"label": "enum OrderBook.State",
						"numberOfBytes": "1"
					},
					"t_struct(order)36_storage": {
						"encoding": "inplace",
						"label": "struct OrderBook.order",
						"members": [
							{
								"astId": 28,
								"contract": "contracts/OrderBook.sol:OrderBook",
								"label": "customer",
								"offset": 0,
								"slot": "0",
								"type": "t_address_payable"
							},
							{
								"astId": 30,
								"contract": "contracts/OrderBook.sol:OrderBook",
								"label": "value",
								"offset": 0,
								"slot": "1",
								"type": "t_uint256"
							},
							{
								"astId": 32,
								"contract": "contracts/OrderBook.sol:OrderBook",
								"label": "timestamp",
								"offset": 0,
								"slot": "2",
								"type": "t_uint256"
							},
							{
								"astId": 35,
								"contract": "contracts/OrderBook.sol:OrderBook",
								"label": "state",
								"offset": 0,
								"slot": "3",
								"type": "t_enum(State)4"
							}
						],
						"numberOfBytes": "128"
					},
					"t_uint256": {
						"encoding": "inplace",
						"label": "uint256",
						"numberOfBytes": "32"
					}
				}
			},
			"userdoc": {
				"kind": "user",
				"methods": {},
				"version": 1
			}
		}
	}
}