{
	"contracts/OrderBook.sol": {
		"OrderBook": {
			"abi": [
				{
					"inputs": [
						{
							"internalType": "uint256",
							"name": "_commission",
							"type": "uint256"
						}
					],
					"stateMutability": "nonpayable",
					"type": "constructor"
				},
				{
					"anonymous": false,
					"inputs": [
						{
							"indexed": false,
							"internalType": "uint256",
							"name": "",
							"type": "uint256"
						},
						{
							"indexed": false,
							"internalType": "uint256",
							"name": "",
							"type": "uint256"
						}
					],
					"name": "askLink",
					"type": "event"
				},
				{
					"anonymous": false,
					"inputs": [
						{
							"indexed": false,
							"internalType": "uint256",
							"name": "",
							"type": "uint256"
						},
						{
							"indexed": false,
							"internalType": "uint256",
							"name": "",
							"type": "uint256"
						}
					],
					"name": "bidLink",
					"type": "event"
				},
				{
					"anonymous": false,
					"inputs": [
						{
							"indexed": false,
							"internalType": "uint256",
							"name": "",
							"type": "uint256"
						}
					],
					"name": "newHead",
					"type": "event"
				},
				{
					"anonymous": false,
					"inputs": [
						{
							"indexed": false,
							"internalType": "uint256",
							"name": "",
							"type": "uint256"
						}
					],
					"name": "newTail",
					"type": "event"
				},
				{
					"anonymous": false,
					"inputs": [
						{
							"indexed": false,
							"internalType": "address",
							"name": "",
							"type": "address"
						},
						{
							"indexed": false,
							"internalType": "uint256",
							"name": "",
							"type": "uint256"
						},
						{
							"indexed": false,
							"internalType": "uint256",
							"name": "",
							"type": "uint256"
						},
						{
							"indexed": false,
							"internalType": "enum OrderBook.State",
							"name": "",
							"type": "uint8"
						},
						{
							"indexed": false,
							"internalType": "uint256",
							"name": "",
							"type": "uint256"
						},
						{
							"indexed": false,
							"internalType": "uint256",
							"name": "",
							"type": "uint256"
						},
						{
							"indexed": false,
							"internalType": "uint256",
							"name": "",
							"type": "uint256"
						}
					],
					"name": "orderCreated",
					"type": "event"
				},
				{
					"inputs": [],
					"name": "askCount",
					"outputs": [
						{
							"internalType": "uint256",
							"name": "",
							"type": "uint256"
						}
					],
					"stateMutability": "view",
					"type": "function"
				},
				{
					"inputs": [],
					"name": "askHead",
					"outputs": [
						{
							"internalType": "uint256",
							"name": "",
							"type": "uint256"
						}
					],
					"stateMutability": "view",
					"type": "function"
				},
				{
					"inputs": [],
					"name": "bidCount",
					"outputs": [
						{
							"internalType": "uint256",
							"name": "",
							"type": "uint256"
						}
					],
					"stateMutability": "view",
					"type": "function"
				},
				{
					"inputs": [],
					"name": "bidHead",
					"outputs": [
						{
							"internalType": "uint256",
							"name": "",
							"type": "uint256"
						}
					],
					"stateMutability": "view",
					"type": "function"
				},
				{
					"inputs": [
						{
							"internalType": "uint256",
							"name": "askId",
							"type": "uint256"
						}
					],
					"name": "cancelAsk",
					"outputs": [],
					"stateMutability": "payable",
					"type": "function"
				},
				{
					"inputs": [
						{
							"internalType": "uint256",
							"name": "bidId",
							"type": "uint256"
						}
					],
					"name": "cancelBid",
					"outputs": [],
					"stateMutability": "payable",
					"type": "function"
				},
				{
					"inputs": [
						{
							"internalType": "string",
							"name": "a",
							"type": "string"
						},
						{
							"internalType": "string",
							"name": "b",
							"type": "string"
						}
					],
					"name": "concatenate",
					"outputs": [
						{
							"internalType": "string",
							"name": "",
							"type": "string"
						}
					],
					"stateMutability": "pure",
					"type": "function"
				},
				{
					"inputs": [],
					"name": "fetchAsk",
					"outputs": [
						{
							"internalType": "string",
							"name": "",
							"type": "string"
						}
					],
					"stateMutability": "view",
					"type": "function"
				},
				{
					"inputs": [],
					"name": "fetchBid",
					"outputs": [
						{
							"internalType": "string",
							"name": "",
							"type": "string"
						}
					],
					"stateMutability": "view",
					"type": "function"
				},
				{
					"inputs": [
						{
							"internalType": "uint256",
							"name": "id",
							"type": "uint256"
						}
					],
					"name": "getAskNext",
					"outputs": [
						{
							"internalType": "uint256",
							"name": "",
							"type": "uint256"
						}
					],
					"stateMutability": "view",
					"type": "function"
				},
				{
					"inputs": [
						{
							"internalType": "uint256",
							"name": "id",
							"type": "uint256"
						}
					],
					"name": "getAskPrev",
					"outputs": [
						{
							"internalType": "uint256",
							"name": "",
							"type": "uint256"
						}
					],
					"stateMutability": "view",
					"type": "function"
				},
				{
					"inputs": [
						{
							"internalType": "uint256",
							"name": "id",
							"type": "uint256"
						}
					],
					"name": "getAskState",
					"outputs": [
						{
							"internalType": "enum OrderBook.State",
							"name": "",
							"type": "uint8"
						}
					],
					"stateMutability": "view",
					"type": "function"
				},
				{
					"inputs": [
						{
							"internalType": "uint256",
							"name": "id",
							"type": "uint256"
						}
					],
					"name": "getAskValue",
					"outputs": [
						{
							"internalType": "uint256",
							"name": "",
							"type": "uint256"
						}
					],
					"stateMutability": "view",
					"type": "function"
				},
				{
					"inputs": [
						{
							"internalType": "uint256",
							"name": "id",
							"type": "uint256"
						}
					],
					"name": "getBidNext",
					"outputs": [
						{
							"internalType": "uint256",
							"name": "",
							"type": "uint256"
						}
					],
					"stateMutability": "view",
					"type": "function"
				},
				{
					"inputs": [
						{
							"internalType": "uint256",
							"name": "id",
							"type": "uint256"
						}
					],
					"name": "getBidPrev",
					"outputs": [
						{
							"internalType": "uint256",
							"name": "",
							"type": "uint256"
						}
					],
					"stateMutability": "view",
					"type": "function"
				},
				{
					"inputs": [
						{
							"internalType": "uint256",
							"name": "id",
							"type": "uint256"
						}
					],
					"name": "getBidState",
					"outputs": [
						{
							"internalType": "enum OrderBook.State",
							"name": "",
							"type": "uint8"
						}
					],
					"stateMutability": "view",
					"type": "function"
				},
				{
					"inputs": [
						{
							"internalType": "uint256",
							"name": "id",
							"type": "uint256"
						}
					],
					"name": "getBidValue",
					"outputs": [
						{
							"internalType": "uint256",
							"name": "",
							"type": "uint256"
						}
					],
					"stateMutability": "view",
					"type": "function"
				},
				{
					"inputs": [
						{
							"internalType": "uint256",
							"name": "price",
							"type": "uint256"
						}
					],
					"name": "placeAsk",
					"outputs": [],
					"stateMutability": "payable",
					"type": "function"
				},
				{
					"inputs": [
						{
							"internalType": "uint256",
							"name": "price",
							"type": "uint256"
						}
					],
					"name": "placeBid",
					"outputs": [],
					"stateMutability": "payable",
					"type": "function"
				}
			],
			"devdoc": {
				"kind": "dev",
				"methods": {},
				"version": 1
			},
			"evm": {
				"assembly": "    /* \"contracts/OrderBook.sol\":995:10152  contract OrderBook {... */\n  mstore(0x40, 0x80)\n    /* \"contracts/OrderBook.sol\":1198:1208  msg.sender */\n  caller\n    /* \"contracts/OrderBook.sol\":1165:1209  address payable _owner = payable(msg.sender) */\n  0x01\n  exp(0x0100, 0x00)\n  dup2\n  sload\n  dup2\n  0xffffffffffffffffffffffffffffffffffffffff\n  mul\n  not\n  and\n  swap1\n  dup4\n  0xffffffffffffffffffffffffffffffffffffffff\n  and\n  mul\n  or\n  swap1\n  sstore\n  pop\n    /* \"contracts/OrderBook.sol\":2127:2288  constructor (uint256 _commission) {... */\n  callvalue\n  dup1\n  iszero\n  tag_1\n  jumpi\n  0x00\n  dup1\n  revert\ntag_1:\n  pop\n  mload(0x40)\n  sub(codesize, bytecodeSize)\n  dup1\n  bytecodeSize\n  dup4\n  codecopy\n  dup2\n  dup2\n  add\n  0x40\n  mstore\n  dup2\n  add\n  swap1\n  tag_2\n  swap2\n  swap1\n  tag_3\n  jump\t// in\ntag_2:\n    /* \"contracts/OrderBook.sol\":2184:2195  _commission */\n  dup1\n    /* \"contracts/OrderBook.sol\":2171:2181  commission */\n  0x02\n    /* \"contracts/OrderBook.sol\":2171:2195  commission = _commission */\n  dup2\n  swap1\n  sstore\n  pop\n    /* \"contracts/OrderBook.sol\":2215:2216  0 */\n  0x00\n    /* \"contracts/OrderBook.sol\":2205:2212  bidHead */\n  0x04\n    /* \"contracts/OrderBook.sol\":2205:2216  bidHead = 0 */\n  dup2\n  swap1\n  sstore\n  pop\n    /* \"contracts/OrderBook.sol\":2237:2238  0 */\n  0x00\n    /* \"contracts/OrderBook.sol\":2226:2234  bidCount */\n  0x05\n    /* \"contracts/OrderBook.sol\":2226:2238  bidCount = 0 */\n  dup2\n  swap1\n  sstore\n  pop\n    /* \"contracts/OrderBook.sol\":2258:2259  0 */\n  0x00\n    /* \"contracts/OrderBook.sol\":2248:2255  askHead */\n  0x07\n    /* \"contracts/OrderBook.sol\":2248:2259  askHead = 0 */\n  dup2\n  swap1\n  sstore\n  pop\n    /* \"contracts/OrderBook.sol\":2280:2281  0 */\n  0x00\n    /* \"contracts/OrderBook.sol\":2269:2277  askCount */\n  0x08\n    /* \"contracts/OrderBook.sol\":2269:2281  askCount = 0 */\n  dup2\n  swap1\n  sstore\n  pop\n    /* \"contracts/OrderBook.sol\":2127:2288  constructor (uint256 _commission) {... */\n  pop\n    /* \"contracts/OrderBook.sol\":995:10152  contract OrderBook {... */\n  jump(tag_6)\n    /* \"#utility.yul\":7:150   */\ntag_8:\n    /* \"#utility.yul\":64:69   */\n  0x00\n    /* \"#utility.yul\":95:101   */\n  dup2\n    /* \"#utility.yul\":89:102   */\n  mload\n    /* \"#utility.yul\":80:102   */\n  swap1\n  pop\n    /* \"#utility.yul\":111:144   */\n  tag_10\n    /* \"#utility.yul\":138:143   */\n  dup2\n    /* \"#utility.yul\":111:144   */\n  tag_11\n  jump\t// in\ntag_10:\n    /* \"#utility.yul\":7:150   */\n  swap3\n  swap2\n  pop\n  pop\n  jump\t// out\n    /* \"#utility.yul\":156:507   */\ntag_3:\n    /* \"#utility.yul\":226:232   */\n  0x00\n    /* \"#utility.yul\":275:277   */\n  0x20\n    /* \"#utility.yul\":263:272   */\n  dup3\n    /* \"#utility.yul\":254:261   */\n  dup5\n    /* \"#utility.yul\":250:273   */\n  sub\n    /* \"#utility.yul\":246:278   */\n  slt\n    /* \"#utility.yul\":243:362   */\n  iszero\n  tag_13\n  jumpi\n    /* \"#utility.yul\":281:360   */\n  tag_14\n  tag_15\n  jump\t// in\ntag_14:\n    /* \"#utility.yul\":243:362   */\ntag_13:\n    /* \"#utility.yul\":401:402   */\n  0x00\n    /* \"#utility.yul\":426:490   */\n  tag_16\n    /* \"#utility.yul\":482:489   */\n  dup5\n    /* \"#utility.yul\":473:479   */\n  dup3\n    /* \"#utility.yul\":462:471   */\n  dup6\n    /* \"#utility.yul\":458:480   */\n  add\n    /* \"#utility.yul\":426:490   */\n  tag_8\n  jump\t// in\ntag_16:\n    /* \"#utility.yul\":416:490   */\n  swap2\n  pop\n    /* \"#utility.yul\":372:500   */\n  pop\n    /* \"#utility.yul\":156:507   */\n  swap3\n  swap2\n  pop\n  pop\n  jump\t// out\n    /* \"#utility.yul\":594:671   */\ntag_19:\n    /* \"#utility.yul\":631:638   */\n  0x00\n    /* \"#utility.yul\":660:665   */\n  dup2\n    /* \"#utility.yul\":649:665   */\n  swap1\n  pop\n    /* \"#utility.yul\":594:671   */\n  swap2\n  swap1\n  pop\n  jump\t// out\n    /* \"#utility.yul\":800:917   */\ntag_15:\n    /* \"#utility.yul\":909:910   */\n  0x00\n    /* \"#utility.yul\":906:907   */\n  dup1\n    /* \"#utility.yul\":899:911   */\n  revert\n    /* \"#utility.yul\":923:1045   */\ntag_11:\n    /* \"#utility.yul\":996:1020   */\n  tag_25\n    /* \"#utility.yul\":1014:1019   */\n  dup2\n    /* \"#utility.yul\":996:1020   */\n  tag_19\n  jump\t// in\ntag_25:\n    /* \"#utility.yul\":989:994   */\n  dup2\n    /* \"#utility.yul\":986:1021   */\n  eq\n    /* \"#utility.yul\":976:1039   */\n  tag_26\n  jumpi\n    /* \"#utility.yul\":1035:1036   */\n  0x00\n    /* \"#utility.yul\":1032:1033   */\n  dup1\n    /* \"#utility.yul\":1025:1037   */\n  revert\n    /* \"#utility.yul\":976:1039   */\ntag_26:\n    /* \"#utility.yul\":923:1045   */\n  pop\n  jump\t// out\n    /* \"contracts/OrderBook.sol\":995:10152  contract OrderBook {... */\ntag_6:\n  dataSize(sub_0)\n  dup1\n  dataOffset(sub_0)\n  0x00\n  codecopy\n  0x00\n  return\nstop\n\nsub_0: assembly {\n        /* \"contracts/OrderBook.sol\":995:10152  contract OrderBook {... */\n      mstore(0x40, 0x80)\n      jumpi(tag_1, lt(calldatasize, 0x04))\n      shr(0xe0, calldataload(0x00))\n      dup1\n      0x78c5b268\n      gt\n      tag_21\n      jumpi\n      dup1\n      0xa394fda7\n      gt\n      tag_22\n      jumpi\n      dup1\n      0xa394fda7\n      eq\n      tag_16\n      jumpi\n      dup1\n      0xb40a5627\n      eq\n      tag_17\n      jumpi\n      dup1\n      0xbf77ffae\n      eq\n      tag_18\n      jumpi\n      dup1\n      0xd05c28cb\n      eq\n      tag_19\n      jumpi\n      dup1\n      0xdb3a1396\n      eq\n      tag_20\n      jumpi\n      jump(tag_1)\n    tag_22:\n      dup1\n      0x78c5b268\n      eq\n      tag_11\n      jumpi\n      dup1\n      0x801d9bbd\n      eq\n      tag_12\n      jumpi\n      dup1\n      0x9703ef35\n      eq\n      tag_13\n      jumpi\n      dup1\n      0x9979ef45\n      eq\n      tag_14\n      jumpi\n      dup1\n      0x9db70fad\n      eq\n      tag_15\n      jumpi\n      jump(tag_1)\n    tag_21:\n      dup1\n      0x356e6206\n      gt\n      tag_23\n      jumpi\n      dup1\n      0x356e6206\n      eq\n      tag_6\n      jumpi\n      dup1\n      0x44e791e0\n      eq\n      tag_7\n      jumpi\n      dup1\n      0x4d46712d\n      eq\n      tag_8\n      jumpi\n      dup1\n      0x6e5b0f00\n      eq\n      tag_9\n      jumpi\n      dup1\n      0x733672f4\n      eq\n      tag_10\n      jumpi\n      jump(tag_1)\n    tag_23:\n      dup1\n      0x0f38f2b1\n      eq\n      tag_2\n      jumpi\n      dup1\n      0x1628e0f5\n      eq\n      tag_3\n      jumpi\n      dup1\n      0x266001d3\n      eq\n      tag_4\n      jumpi\n      dup1\n      0x2db6dfa7\n      eq\n      tag_5\n      jumpi\n    tag_1:\n      0x00\n      dup1\n      revert\n        /* \"contracts/OrderBook.sol\":8887:9281  function fetchBid() public view returns (string memory) {... */\n    tag_2:\n      callvalue\n      dup1\n      iszero\n      tag_24\n      jumpi\n      0x00\n      dup1\n      revert\n    tag_24:\n      pop\n      tag_25\n      tag_26\n      jump\t// in\n    tag_25:\n      mload(0x40)\n      tag_27\n      swap2\n      swap1\n      tag_28\n      jump\t// in\n    tag_27:\n      mload(0x40)\n      dup1\n      swap2\n      sub\n      swap1\n      return\n        /* \"contracts/OrderBook.sol\":8153:8453  function cancelAsk (uint256 askId) public payable isPending(askBook[askId]) isAuthorised(askBook[askId], msg.sender) {... */\n    tag_3:\n      tag_29\n      0x04\n      dup1\n      calldatasize\n      sub\n      dup2\n      add\n      swap1\n      tag_30\n      swap2\n      swap1\n      tag_31\n      jump\t// in\n    tag_30:\n      tag_32\n      jump\t// in\n    tag_29:\n      stop\n        /* \"contracts/OrderBook.sol\":6754:6900  function concatenate(string memory a,string memory b) public pure returns (string memory){... */\n    tag_4:\n      callvalue\n      dup1\n      iszero\n      tag_33\n      jumpi\n      0x00\n      dup1\n      revert\n    tag_33:\n      pop\n      tag_34\n      0x04\n      dup1\n      calldatasize\n      sub\n      dup2\n      add\n      swap1\n      tag_35\n      swap2\n      swap1\n      tag_36\n      jump\t// in\n    tag_35:\n      tag_37\n      jump\t// in\n    tag_34:\n      mload(0x40)\n      tag_38\n      swap2\n      swap1\n      tag_28\n      jump\t// in\n    tag_38:\n      mload(0x40)\n      dup1\n      swap2\n      sub\n      swap1\n      return\n        /* \"contracts/OrderBook.sol\":9287:9391  function getBidValue (uint256 id) public view returns(uint256) {... */\n    tag_5:\n      callvalue\n      dup1\n      iszero\n      tag_39\n      jumpi\n      0x00\n      dup1\n      revert\n    tag_39:\n      pop\n      tag_40\n      0x04\n      dup1\n      calldatasize\n      sub\n      dup2\n      add\n      swap1\n      tag_41\n      swap2\n      swap1\n      tag_31\n      jump\t// in\n    tag_41:\n      tag_42\n      jump\t// in\n    tag_40:\n      mload(0x40)\n      tag_43\n      swap2\n      swap1\n      tag_44\n      jump\t// in\n    tag_43:\n      mload(0x40)\n      dup1\n      swap2\n      sub\n      swap1\n      return\n        /* \"contracts/OrderBook.sol\":9939:10041  function getBidPrev (uint256 id) public view returns(uint256) {... */\n    tag_6:\n      callvalue\n      dup1\n      iszero\n      tag_45\n      jumpi\n      0x00\n      dup1\n      revert\n    tag_45:\n      pop\n      tag_46\n      0x04\n      dup1\n      calldatasize\n      sub\n      dup2\n      add\n      swap1\n      tag_47\n      swap2\n      swap1\n      tag_31\n      jump\t// in\n    tag_47:\n      tag_48\n      jump\t// in\n    tag_46:\n      mload(0x40)\n      tag_49\n      swap2\n      swap1\n      tag_44\n      jump\t// in\n    tag_49:\n      mload(0x40)\n      dup1\n      swap2\n      sub\n      swap1\n      return\n        /* \"contracts/OrderBook.sol\":8487:8881  function fetchAsk() public view returns (string memory) {... */\n    tag_7:\n      callvalue\n      dup1\n      iszero\n      tag_50\n      jumpi\n      0x00\n      dup1\n      revert\n    tag_50:\n      pop\n      tag_51\n      tag_52\n      jump\t// in\n    tag_51:\n      mload(0x40)\n      tag_53\n      swap2\n      swap1\n      tag_28\n      jump\t// in\n    tag_53:\n      mload(0x40)\n      dup1\n      swap2\n      sub\n      swap1\n      return\n        /* \"contracts/OrderBook.sol\":9615:9717  function getAskState (uint256 id) public view returns(State) {... */\n    tag_8:\n      callvalue\n      dup1\n      iszero\n      tag_54\n      jumpi\n      0x00\n      dup1\n      revert\n    tag_54:\n      pop\n      tag_55\n      0x04\n      dup1\n      calldatasize\n      sub\n      dup2\n      add\n      swap1\n      tag_56\n      swap2\n      swap1\n      tag_31\n      jump\t// in\n    tag_56:\n      tag_57\n      jump\t// in\n    tag_55:\n      mload(0x40)\n      tag_58\n      swap2\n      swap1\n      tag_59\n      jump\t// in\n    tag_58:\n      mload(0x40)\n      dup1\n      swap2\n      sub\n      swap1\n      return\n        /* \"contracts/OrderBook.sol\":1662:1684  uint256 public bidHead */\n    tag_9:\n      callvalue\n      dup1\n      iszero\n      tag_60\n      jumpi\n      0x00\n      dup1\n      revert\n    tag_60:\n      pop\n      tag_61\n      tag_62\n      jump\t// in\n    tag_61:\n      mload(0x40)\n      tag_63\n      swap2\n      swap1\n      tag_44\n      jump\t// in\n    tag_63:\n      mload(0x40)\n      dup1\n      swap2\n      sub\n      swap1\n      return\n        /* \"contracts/OrderBook.sol\":9831:9933  function getAskNext (uint256 id) public view returns(uint256) {... */\n    tag_10:\n      callvalue\n      dup1\n      iszero\n      tag_64\n      jumpi\n      0x00\n      dup1\n      revert\n    tag_64:\n      pop\n      tag_65\n      0x04\n      dup1\n      calldatasize\n      sub\n      dup2\n      add\n      swap1\n      tag_66\n      swap2\n      swap1\n      tag_31\n      jump\t// in\n    tag_66:\n      tag_67\n      jump\t// in\n    tag_65:\n      mload(0x40)\n      tag_68\n      swap2\n      swap1\n      tag_44\n      jump\t// in\n    tag_68:\n      mload(0x40)\n      dup1\n      swap2\n      sub\n      swap1\n      return\n        /* \"contracts/OrderBook.sol\":7699:8147  function placeAsk (uint256 price) public payable {... */\n    tag_11:\n      tag_69\n      0x04\n      dup1\n      calldatasize\n      sub\n      dup2\n      add\n      swap1\n      tag_70\n      swap2\n      swap1\n      tag_31\n      jump\t// in\n    tag_70:\n      tag_71\n      jump\t// in\n    tag_69:\n      stop\n        /* \"contracts/OrderBook.sol\":1807:1829  uint256 public askHead */\n    tag_12:\n      callvalue\n      dup1\n      iszero\n      tag_72\n      jumpi\n      0x00\n      dup1\n      revert\n    tag_72:\n      pop\n      tag_73\n      tag_74\n      jump\t// in\n    tag_73:\n      mload(0x40)\n      tag_75\n      swap2\n      swap1\n      tag_44\n      jump\t// in\n    tag_75:\n      mload(0x40)\n      dup1\n      swap2\n      sub\n      swap1\n      return\n        /* \"contracts/OrderBook.sol\":7391:7693  function cancelBid (uint256 bidId) public payable isPending(bidBook[bidId]) isAuthorised(bidBook[bidId], msg.sender) {... */\n    tag_13:\n      tag_76\n      0x04\n      dup1\n      calldatasize\n      sub\n      dup2\n      add\n      swap1\n      tag_77\n      swap2\n      swap1\n      tag_31\n      jump\t// in\n    tag_77:\n      tag_78\n      jump\t// in\n    tag_76:\n      stop\n        /* \"contracts/OrderBook.sol\":6937:7385  function placeBid (uint256 price) public payable {... */\n    tag_14:\n      tag_79\n      0x04\n      dup1\n      calldatasize\n      sub\n      dup2\n      add\n      swap1\n      tag_80\n      swap2\n      swap1\n      tag_31\n      jump\t// in\n    tag_80:\n      tag_81\n      jump\t// in\n    tag_79:\n      stop\n        /* \"contracts/OrderBook.sol\":9723:9825  function getBidNext (uint256 id) public view returns(uint256) {... */\n    tag_15:\n      callvalue\n      dup1\n      iszero\n      tag_82\n      jumpi\n      0x00\n      dup1\n      revert\n    tag_82:\n      pop\n      tag_83\n      0x04\n      dup1\n      calldatasize\n      sub\n      dup2\n      add\n      swap1\n      tag_84\n      swap2\n      swap1\n      tag_31\n      jump\t// in\n    tag_84:\n      tag_85\n      jump\t// in\n    tag_83:\n      mload(0x40)\n      tag_86\n      swap2\n      swap1\n      tag_44\n      jump\t// in\n    tag_86:\n      mload(0x40)\n      dup1\n      swap2\n      sub\n      swap1\n      return\n        /* \"contracts/OrderBook.sol\":1835:1858  uint256 public askCount */\n    tag_16:\n      callvalue\n      dup1\n      iszero\n      tag_87\n      jumpi\n      0x00\n      dup1\n      revert\n    tag_87:\n      pop\n      tag_88\n      tag_89\n      jump\t// in\n    tag_88:\n      mload(0x40)\n      tag_90\n      swap2\n      swap1\n      tag_44\n      jump\t// in\n    tag_90:\n      mload(0x40)\n      dup1\n      swap2\n      sub\n      swap1\n      return\n        /* \"contracts/OrderBook.sol\":1690:1713  uint256 public bidCount */\n    tag_17:\n      callvalue\n      dup1\n      iszero\n      tag_91\n      jumpi\n      0x00\n      dup1\n      revert\n    tag_91:\n      pop\n      tag_92\n      tag_93\n      jump\t// in\n    tag_92:\n      mload(0x40)\n      tag_94\n      swap2\n      swap1\n      tag_44\n      jump\t// in\n    tag_94:\n      mload(0x40)\n      dup1\n      swap2\n      sub\n      swap1\n      return\n        /* \"contracts/OrderBook.sol\":9507:9609  function getBidState (uint256 id) public view returns(State) {... */\n    tag_18:\n      callvalue\n      dup1\n      iszero\n      tag_95\n      jumpi\n      0x00\n      dup1\n      revert\n    tag_95:\n      pop\n      tag_96\n      0x04\n      dup1\n      calldatasize\n      sub\n      dup2\n      add\n      swap1\n      tag_97\n      swap2\n      swap1\n      tag_31\n      jump\t// in\n    tag_97:\n      tag_98\n      jump\t// in\n    tag_96:\n      mload(0x40)\n      tag_99\n      swap2\n      swap1\n      tag_59\n      jump\t// in\n    tag_99:\n      mload(0x40)\n      dup1\n      swap2\n      sub\n      swap1\n      return\n        /* \"contracts/OrderBook.sol\":10047:10149  function getAskPrev (uint256 id) public view returns(uint256) {... */\n    tag_19:\n      callvalue\n      dup1\n      iszero\n      tag_100\n      jumpi\n      0x00\n      dup1\n      revert\n    tag_100:\n      pop\n      tag_101\n      0x04\n      dup1\n      calldatasize\n      sub\n      dup2\n      add\n      swap1\n      tag_102\n      swap2\n      swap1\n      tag_31\n      jump\t// in\n    tag_102:\n      tag_103\n      jump\t// in\n    tag_101:\n      mload(0x40)\n      tag_104\n      swap2\n      swap1\n      tag_44\n      jump\t// in\n    tag_104:\n      mload(0x40)\n      dup1\n      swap2\n      sub\n      swap1\n      return\n        /* \"contracts/OrderBook.sol\":9397:9501  function getAskValue (uint256 id) public view returns(uint256) {... */\n    tag_20:\n      callvalue\n      dup1\n      iszero\n      tag_105\n      jumpi\n      0x00\n      dup1\n      revert\n    tag_105:\n      pop\n      tag_106\n      0x04\n      dup1\n      calldatasize\n      sub\n      dup2\n      add\n      swap1\n      tag_107\n      swap2\n      swap1\n      tag_31\n      jump\t// in\n    tag_107:\n      tag_108\n      jump\t// in\n    tag_106:\n      mload(0x40)\n      tag_109\n      swap2\n      swap1\n      tag_44\n      jump\t// in\n    tag_109:\n      mload(0x40)\n      dup1\n      swap2\n      sub\n      swap1\n      return\n        /* \"contracts/OrderBook.sol\":8887:9281  function fetchBid() public view returns (string memory) {... */\n    tag_26:\n        /* \"contracts/OrderBook.sol\":8928:8941  string memory */\n      0x60\n        /* \"contracts/OrderBook.sol\":8953:8968  uint256 current */\n      0x00\n        /* \"contracts/OrderBook.sol\":8971:8978  bidHead */\n      sload(0x04)\n        /* \"contracts/OrderBook.sol\":8953:8978  uint256 current = bidHead */\n      swap1\n      pop\n        /* \"contracts/OrderBook.sol\":8988:9008  string memory output */\n      0x00\n        /* \"contracts/OrderBook.sol\":8988:9013  string memory output = \"\" */\n      mload(0x40)\n      dup1\n      0x20\n      add\n      0x40\n      mstore\n      dup1\n      0x00\n      dup2\n      mstore\n      pop\n      swap1\n      pop\n        /* \"contracts/OrderBook.sol\":9023:9252  while (current != 0) {... */\n    tag_111:\n        /* \"contracts/OrderBook.sol\":9041:9042  0 */\n      0x00\n        /* \"contracts/OrderBook.sol\":9030:9037  current */\n      dup3\n        /* \"contracts/OrderBook.sol\":9030:9042  current != 0 */\n      eq\n        /* \"contracts/OrderBook.sol\":9023:9252  while (current != 0) {... */\n      tag_112\n      jumpi\n        /* \"contracts/OrderBook.sol\":9058:9070  uint256 next */\n      0x00\n        /* \"contracts/OrderBook.sol\":9073:9080  bidBook */\n      0x03\n        /* \"contracts/OrderBook.sol\":9073:9089  bidBook[current] */\n      0x00\n        /* \"contracts/OrderBook.sol\":9081:9088  current */\n      dup5\n        /* \"contracts/OrderBook.sol\":9073:9089  bidBook[current] */\n      dup2\n      mstore\n      0x20\n      add\n      swap1\n      dup2\n      mstore\n      0x20\n      add\n      0x00\n      keccak256\n        /* \"contracts/OrderBook.sol\":9073:9094  bidBook[current].next */\n      0x05\n      add\n      sload\n        /* \"contracts/OrderBook.sol\":9058:9094  uint256 next = bidBook[current].next */\n      swap1\n      pop\n        /* \"contracts/OrderBook.sol\":9108:9132  string memory currString */\n      0x00\n        /* \"contracts/OrderBook.sol\":9135:9160  Strings.toString(current) */\n      tag_113\n        /* \"contracts/OrderBook.sol\":9152:9159  current */\n      dup5\n        /* \"contracts/OrderBook.sol\":9135:9151  Strings.toString */\n      tag_114\n        /* \"contracts/OrderBook.sol\":9135:9160  Strings.toString(current) */\n      jump\t// in\n    tag_113:\n        /* \"contracts/OrderBook.sol\":9108:9160  string memory currString = Strings.toString(current) */\n      swap1\n      pop\n        /* \"contracts/OrderBook.sol\":9183:9213  concatenate(output,currString) */\n      tag_115\n        /* \"contracts/OrderBook.sol\":9195:9201  output */\n      dup4\n        /* \"contracts/OrderBook.sol\":9202:9212  currString */\n      dup3\n        /* \"contracts/OrderBook.sol\":9183:9194  concatenate */\n      tag_37\n        /* \"contracts/OrderBook.sol\":9183:9213  concatenate(output,currString) */\n      jump\t// in\n    tag_115:\n        /* \"contracts/OrderBook.sol\":9174:9213  output = concatenate(output,currString) */\n      swap3\n      pop\n        /* \"contracts/OrderBook.sol\":9237:9241  next */\n      dup2\n        /* \"contracts/OrderBook.sol\":9227:9241  current = next */\n      swap4\n      pop\n        /* \"contracts/OrderBook.sol\":9044:9252  {... */\n      pop\n      pop\n        /* \"contracts/OrderBook.sol\":9023:9252  while (current != 0) {... */\n      jump(tag_111)\n    tag_112:\n        /* \"contracts/OrderBook.sol\":9268:9274  output */\n      dup1\n        /* \"contracts/OrderBook.sol\":9261:9274  return output */\n      swap3\n      pop\n      pop\n      pop\n        /* \"contracts/OrderBook.sol\":8887:9281  function fetchBid() public view returns (string memory) {... */\n      swap1\n      jump\t// out\n        /* \"contracts/OrderBook.sol\":8153:8453  function cancelAsk (uint256 askId) public payable isPending(askBook[askId]) isAuthorised(askBook[askId], msg.sender) {... */\n    tag_32:\n        /* \"contracts/OrderBook.sol\":8213:8220  askBook */\n      0x06\n        /* \"contracts/OrderBook.sol\":8213:8227  askBook[askId] */\n      0x00\n        /* \"contracts/OrderBook.sol\":8221:8226  askId */\n      dup3\n        /* \"contracts/OrderBook.sol\":8213:8227  askBook[askId] */\n      dup2\n      mstore\n      0x20\n      add\n      swap1\n      dup2\n      mstore\n      0x20\n      add\n      0x00\n      keccak256\n        /* \"contracts/OrderBook.sol\":2327:2450  modifier isPending(order memory _order) {... */\n      mload(0x40)\n      dup1\n      0xe0\n      add\n      0x40\n      mstore\n      swap1\n      dup2\n      0x00\n      dup3\n      add\n      0x00\n      swap1\n      sload\n      swap1\n      0x0100\n      exp\n      swap1\n      div\n      0xffffffffffffffffffffffffffffffffffffffff\n      and\n      0xffffffffffffffffffffffffffffffffffffffff\n      and\n      0xffffffffffffffffffffffffffffffffffffffff\n      and\n      dup2\n      mstore\n      0x20\n      add\n      0x01\n      dup3\n      add\n      sload\n      dup2\n      mstore\n      0x20\n      add\n      0x02\n      dup3\n      add\n      sload\n      dup2\n      mstore\n      0x20\n      add\n      0x03\n      dup3\n      add\n      0x00\n      swap1\n      sload\n      swap1\n      0x0100\n      exp\n      swap1\n      div\n      0xff\n      and\n      0x01\n      dup2\n      gt\n      iszero\n      tag_116\n      jumpi\n      tag_117\n      tag_118\n      jump\t// in\n    tag_117:\n    tag_116:\n      0x01\n      dup2\n      gt\n      iszero\n      tag_119\n      jumpi\n      tag_120\n      tag_118\n      jump\t// in\n    tag_120:\n    tag_119:\n      dup2\n      mstore\n      0x20\n      add\n      0x04\n      dup3\n      add\n      sload\n      dup2\n      mstore\n      0x20\n      add\n      0x05\n      dup3\n      add\n      sload\n      dup2\n      mstore\n      0x20\n      add\n      0x06\n      dup3\n      add\n      sload\n      dup2\n      mstore\n      pop\n      pop\n        /* \"contracts/OrderBook.sol\":2401:2414  State.pending */\n      0x00\n        /* \"contracts/OrderBook.sol\":2385:2414  _order.state == State.pending */\n      0x01\n      dup2\n      gt\n      iszero\n      tag_122\n      jumpi\n      tag_123\n      tag_118\n      jump\t// in\n    tag_123:\n    tag_122:\n        /* \"contracts/OrderBook.sol\":2385:2391  _order */\n      dup2\n        /* \"contracts/OrderBook.sol\":2385:2397  _order.state */\n      0x60\n      add\n      mload\n        /* \"contracts/OrderBook.sol\":2385:2414  _order.state == State.pending */\n      0x01\n      dup2\n      gt\n      iszero\n      tag_124\n      jumpi\n      tag_125\n      tag_118\n      jump\t// in\n    tag_125:\n    tag_124:\n      eq\n        /* \"contracts/OrderBook.sol\":2377:2432  require(_order.state == State.pending, \"Order Pending\") */\n      tag_126\n      jumpi\n      mload(0x40)\n      0x08c379a000000000000000000000000000000000000000000000000000000000\n      dup2\n      mstore\n      0x04\n      add\n      tag_127\n      swap1\n      tag_128\n      jump\t// in\n    tag_127:\n      mload(0x40)\n      dup1\n      swap2\n      sub\n      swap1\n      revert\n    tag_126:\n        /* \"contracts/OrderBook.sol\":8242:8249  askBook */\n      0x06\n        /* \"contracts/OrderBook.sol\":8242:8256  askBook[askId] */\n      0x00\n        /* \"contracts/OrderBook.sol\":8250:8255  askId */\n      dup4\n        /* \"contracts/OrderBook.sol\":8242:8256  askBook[askId] */\n      dup2\n      mstore\n      0x20\n      add\n      swap1\n      dup2\n      mstore\n      0x20\n      add\n      0x00\n      keccak256\n        /* \"contracts/OrderBook.sol\":2456:2595  modifier isAuthorised(order memory _order, address sender) {... */\n      mload(0x40)\n      dup1\n      0xe0\n      add\n      0x40\n      mstore\n      swap1\n      dup2\n      0x00\n      dup3\n      add\n      0x00\n      swap1\n      sload\n      swap1\n      0x0100\n      exp\n      swap1\n      div\n      0xffffffffffffffffffffffffffffffffffffffff\n      and\n      0xffffffffffffffffffffffffffffffffffffffff\n      and\n      0xffffffffffffffffffffffffffffffffffffffff\n      and\n      dup2\n      mstore\n      0x20\n      add\n      0x01\n      dup3\n      add\n      sload\n      dup2\n      mstore\n      0x20\n      add\n      0x02\n      dup3\n      add\n      sload\n      dup2\n      mstore\n      0x20\n      add\n      0x03\n      dup3\n      add\n      0x00\n      swap1\n      sload\n      swap1\n      0x0100\n      exp\n      swap1\n      div\n      0xff\n      and\n      0x01\n      dup2\n      gt\n      iszero\n      tag_129\n      jumpi\n      tag_130\n      tag_118\n      jump\t// in\n    tag_130:\n    tag_129:\n      0x01\n      dup2\n      gt\n      iszero\n      tag_131\n      jumpi\n      tag_132\n      tag_118\n      jump\t// in\n    tag_132:\n    tag_131:\n      dup2\n      mstore\n      0x20\n      add\n      0x04\n      dup3\n      add\n      sload\n      dup2\n      mstore\n      0x20\n      add\n      0x05\n      dup3\n      add\n      sload\n      dup2\n      mstore\n      0x20\n      add\n      0x06\n      dup3\n      add\n      sload\n      dup2\n      mstore\n      pop\n      pop\n        /* \"contracts/OrderBook.sol\":8258:8268  msg.sender */\n      caller\n        /* \"contracts/OrderBook.sol\":2552:2558  sender */\n      dup1\n        /* \"contracts/OrderBook.sol\":2533:2558  _order.customer == sender */\n      0xffffffffffffffffffffffffffffffffffffffff\n      and\n        /* \"contracts/OrderBook.sol\":2533:2539  _order */\n      dup3\n        /* \"contracts/OrderBook.sol\":2533:2548  _order.customer */\n      0x00\n      add\n      mload\n        /* \"contracts/OrderBook.sol\":2533:2558  _order.customer == sender */\n      0xffffffffffffffffffffffffffffffffffffffff\n      and\n      eq\n        /* \"contracts/OrderBook.sol\":2525:2577  require(_order.customer == sender, \"Not Authorised\") */\n      tag_134\n      jumpi\n      mload(0x40)\n      0x08c379a000000000000000000000000000000000000000000000000000000000\n      dup2\n      mstore\n      0x04\n      add\n      tag_135\n      swap1\n      tag_136\n      jump\t// in\n    tag_135:\n      mload(0x40)\n      dup1\n      swap2\n      sub\n      swap1\n      revert\n    tag_134:\n        /* \"contracts/OrderBook.sol\":8280:8293  uint256 value */\n      0x00\n        /* \"contracts/OrderBook.sol\":8319:8328  msg.value */\n      callvalue\n        /* \"contracts/OrderBook.sol\":8296:8303  askBook */\n      0x06\n        /* \"contracts/OrderBook.sol\":8296:8310  askBook[askId] */\n      0x00\n        /* \"contracts/OrderBook.sol\":8304:8309  askId */\n      dup8\n        /* \"contracts/OrderBook.sol\":8296:8310  askBook[askId] */\n      dup2\n      mstore\n      0x20\n      add\n      swap1\n      dup2\n      mstore\n      0x20\n      add\n      0x00\n      keccak256\n        /* \"contracts/OrderBook.sol\":8296:8316  askBook[askId].value */\n      0x01\n      add\n      sload\n        /* \"contracts/OrderBook.sol\":8296:8328  askBook[askId].value - msg.value */\n      tag_138\n      swap2\n      swap1\n      tag_139\n      jump\t// in\n    tag_138:\n        /* \"contracts/OrderBook.sol\":8280:8328  uint256 value = askBook[askId].value - msg.value */\n      swap1\n      pop\n        /* \"contracts/OrderBook.sol\":8338:8354  deleteAsk(askId) */\n      tag_140\n        /* \"contracts/OrderBook.sol\":8348:8353  askId */\n      dup6\n        /* \"contracts/OrderBook.sol\":8338:8347  deleteAsk */\n      tag_141\n        /* \"contracts/OrderBook.sol\":8338:8354  deleteAsk(askId) */\n      jump\t// in\n    tag_140:\n        /* \"contracts/OrderBook.sol\":8364:8388  address payable receiver */\n      0x00\n        /* \"contracts/OrderBook.sol\":8399:8409  msg.sender */\n      caller\n        /* \"contracts/OrderBook.sol\":8364:8410  address payable receiver = payable(msg.sender) */\n      swap1\n      pop\n        /* \"contracts/OrderBook.sol\":8270:8453  {... */\n      pop\n      pop\n        /* \"contracts/OrderBook.sol\":2442:2443  _ */\n      pop\n      pop\n        /* \"contracts/OrderBook.sol\":8153:8453  function cancelAsk (uint256 askId) public payable isPending(askBook[askId]) isAuthorised(askBook[askId], msg.sender) {... */\n      pop\n      pop\n      jump\t// out\n        /* \"contracts/OrderBook.sol\":6754:6900  function concatenate(string memory a,string memory b) public pure returns (string memory){... */\n    tag_37:\n        /* \"contracts/OrderBook.sol\":6829:6842  string memory */\n      0x60\n        /* \"contracts/OrderBook.sol\":6884:6885  a */\n      dup3\n        /* \"contracts/OrderBook.sol\":6890:6891  b */\n      dup3\n        /* \"contracts/OrderBook.sol\":6867:6892  abi.encodePacked(a,' ',b) */\n      add(0x20, mload(0x40))\n      tag_143\n      swap3\n      swap2\n      swap1\n      tag_144\n      jump\t// in\n    tag_143:\n      mload(0x40)\n      0x20\n      dup2\n      dup4\n      sub\n      sub\n      dup2\n      mstore\n      swap1\n      0x40\n      mstore\n        /* \"contracts/OrderBook.sol\":6853:6893  return string(abi.encodePacked(a,' ',b)) */\n      swap1\n      pop\n        /* \"contracts/OrderBook.sol\":6754:6900  function concatenate(string memory a,string memory b) public pure returns (string memory){... */\n      swap3\n      swap2\n      pop\n      pop\n      jump\t// out\n        /* \"contracts/OrderBook.sol\":9287:9391  function getBidValue (uint256 id) public view returns(uint256) {... */\n    tag_42:\n        /* \"contracts/OrderBook.sol\":9341:9348  uint256 */\n      0x00\n        /* \"contracts/OrderBook.sol\":9367:9374  bidBook */\n      0x03\n        /* \"contracts/OrderBook.sol\":9367:9378  bidBook[id] */\n      0x00\n        /* \"contracts/OrderBook.sol\":9375:9377  id */\n      dup4\n        /* \"contracts/OrderBook.sol\":9367:9378  bidBook[id] */\n      dup2\n      mstore\n      0x20\n      add\n      swap1\n      dup2\n      mstore\n      0x20\n      add\n      0x00\n      keccak256\n        /* \"contracts/OrderBook.sol\":9367:9384  bidBook[id].value */\n      0x01\n      add\n      sload\n        /* \"contracts/OrderBook.sol\":9360:9384  return bidBook[id].value */\n      swap1\n      pop\n        /* \"contracts/OrderBook.sol\":9287:9391  function getBidValue (uint256 id) public view returns(uint256) {... */\n      swap2\n      swap1\n      pop\n      jump\t// out\n        /* \"contracts/OrderBook.sol\":9939:10041  function getBidPrev (uint256 id) public view returns(uint256) {... */\n    tag_48:\n        /* \"contracts/OrderBook.sol\":9992:9999  uint256 */\n      0x00\n        /* \"contracts/OrderBook.sol\":10018:10025  bidBook */\n      0x03\n        /* \"contracts/OrderBook.sol\":10018:10029  bidBook[id] */\n      0x00\n        /* \"contracts/OrderBook.sol\":10026:10028  id */\n      dup4\n        /* \"contracts/OrderBook.sol\":10018:10029  bidBook[id] */\n      dup2\n      mstore\n      0x20\n      add\n      swap1\n      dup2\n      mstore\n      0x20\n      add\n      0x00\n      keccak256\n        /* \"contracts/OrderBook.sol\":10018:10034  bidBook[id].prev */\n      0x06\n      add\n      sload\n        /* \"contracts/OrderBook.sol\":10011:10034  return bidBook[id].prev */\n      swap1\n      pop\n        /* \"contracts/OrderBook.sol\":9939:10041  function getBidPrev (uint256 id) public view returns(uint256) {... */\n      swap2\n      swap1\n      pop\n      jump\t// out\n        /* \"contracts/OrderBook.sol\":8487:8881  function fetchAsk() public view returns (string memory) {... */\n    tag_52:\n        /* \"contracts/OrderBook.sol\":8528:8541  string memory */\n      0x60\n        /* \"contracts/OrderBook.sol\":8553:8568  uint256 current */\n      0x00\n        /* \"contracts/OrderBook.sol\":8571:8578  askHead */\n      sload(0x07)\n        /* \"contracts/OrderBook.sol\":8553:8578  uint256 current = askHead */\n      swap1\n      pop\n        /* \"contracts/OrderBook.sol\":8588:8608  string memory output */\n      0x00\n        /* \"contracts/OrderBook.sol\":8588:8613  string memory output = \"\" */\n      mload(0x40)\n      dup1\n      0x20\n      add\n      0x40\n      mstore\n      dup1\n      0x00\n      dup2\n      mstore\n      pop\n      swap1\n      pop\n        /* \"contracts/OrderBook.sol\":8623:8852  while (current != 0) {... */\n    tag_148:\n        /* \"contracts/OrderBook.sol\":8641:8642  0 */\n      0x00\n        /* \"contracts/OrderBook.sol\":8630:8637  current */\n      dup3\n        /* \"contracts/OrderBook.sol\":8630:8642  current != 0 */\n      eq\n        /* \"contracts/OrderBook.sol\":8623:8852  while (current != 0) {... */\n      tag_149\n      jumpi\n        /* \"contracts/OrderBook.sol\":8658:8670  uint256 next */\n      0x00\n        /* \"contracts/OrderBook.sol\":8673:8680  askBook */\n      0x06\n        /* \"contracts/OrderBook.sol\":8673:8689  askBook[current] */\n      0x00\n        /* \"contracts/OrderBook.sol\":8681:8688  current */\n      dup5\n        /* \"contracts/OrderBook.sol\":8673:8689  askBook[current] */\n      dup2\n      mstore\n      0x20\n      add\n      swap1\n      dup2\n      mstore\n      0x20\n      add\n      0x00\n      keccak256\n        /* \"contracts/OrderBook.sol\":8673:8694  askBook[current].next */\n      0x05\n      add\n      sload\n        /* \"contracts/OrderBook.sol\":8658:8694  uint256 next = askBook[current].next */\n      swap1\n      pop\n        /* \"contracts/OrderBook.sol\":8708:8732  string memory currString */\n      0x00\n        /* \"contracts/OrderBook.sol\":8735:8760  Strings.toString(current) */\n      tag_150\n        /* \"contracts/OrderBook.sol\":8752:8759  current */\n      dup5\n        /* \"contracts/OrderBook.sol\":8735:8751  Strings.toString */\n      tag_114\n        /* \"contracts/OrderBook.sol\":8735:8760  Strings.toString(current) */\n      jump\t// in\n    tag_150:\n        /* \"contracts/OrderBook.sol\":8708:8760  string memory currString = Strings.toString(current) */\n      swap1\n      pop\n        /* \"contracts/OrderBook.sol\":8783:8813  concatenate(output,currString) */\n      tag_151\n        /* \"contracts/OrderBook.sol\":8795:8801  output */\n      dup4\n        /* \"contracts/OrderBook.sol\":8802:8812  currString */\n      dup3\n        /* \"contracts/OrderBook.sol\":8783:8794  concatenate */\n      tag_37\n        /* \"contracts/OrderBook.sol\":8783:8813  concatenate(output,currString) */\n      jump\t// in\n    tag_151:\n        /* \"contracts/OrderBook.sol\":8774:8813  output = concatenate(output,currString) */\n      swap3\n      pop\n        /* \"contracts/OrderBook.sol\":8837:8841  next */\n      dup2\n        /* \"contracts/OrderBook.sol\":8827:8841  current = next */\n      swap4\n      pop\n        /* \"contracts/OrderBook.sol\":8644:8852  {... */\n      pop\n      pop\n        /* \"contracts/OrderBook.sol\":8623:8852  while (current != 0) {... */\n      jump(tag_148)\n    tag_149:\n        /* \"contracts/OrderBook.sol\":8868:8874  output */\n      dup1\n        /* \"contracts/OrderBook.sol\":8861:8874  return output */\n      swap3\n      pop\n      pop\n      pop\n        /* \"contracts/OrderBook.sol\":8487:8881  function fetchAsk() public view returns (string memory) {... */\n      swap1\n      jump\t// out\n        /* \"contracts/OrderBook.sol\":9615:9717  function getAskState (uint256 id) public view returns(State) {... */\n    tag_57:\n        /* \"contracts/OrderBook.sol\":9669:9674  State */\n      0x00\n        /* \"contracts/OrderBook.sol\":9693:9700  askBook */\n      0x06\n        /* \"contracts/OrderBook.sol\":9693:9704  askBook[id] */\n      0x00\n        /* \"contracts/OrderBook.sol\":9701:9703  id */\n      dup4\n        /* \"contracts/OrderBook.sol\":9693:9704  askBook[id] */\n      dup2\n      mstore\n      0x20\n      add\n      swap1\n      dup2\n      mstore\n      0x20\n      add\n      0x00\n      keccak256\n        /* \"contracts/OrderBook.sol\":9693:9710  askBook[id].state */\n      0x03\n      add\n      0x00\n      swap1\n      sload\n      swap1\n      0x0100\n      exp\n      swap1\n      div\n      0xff\n      and\n        /* \"contracts/OrderBook.sol\":9686:9710  return askBook[id].state */\n      swap1\n      pop\n        /* \"contracts/OrderBook.sol\":9615:9717  function getAskState (uint256 id) public view returns(State) {... */\n      swap2\n      swap1\n      pop\n      jump\t// out\n        /* \"contracts/OrderBook.sol\":1662:1684  uint256 public bidHead */\n    tag_62:\n      sload(0x04)\n      dup2\n      jump\t// out\n        /* \"contracts/OrderBook.sol\":9831:9933  function getAskNext (uint256 id) public view returns(uint256) {... */\n    tag_67:\n        /* \"contracts/OrderBook.sol\":9884:9891  uint256 */\n      0x00\n        /* \"contracts/OrderBook.sol\":9910:9917  askBook */\n      0x06\n        /* \"contracts/OrderBook.sol\":9910:9921  askBook[id] */\n      0x00\n        /* \"contracts/OrderBook.sol\":9918:9920  id */\n      dup4\n        /* \"contracts/OrderBook.sol\":9910:9921  askBook[id] */\n      dup2\n      mstore\n      0x20\n      add\n      swap1\n      dup2\n      mstore\n      0x20\n      add\n      0x00\n      keccak256\n        /* \"contracts/OrderBook.sol\":9910:9926  askBook[id].next */\n      0x05\n      add\n      sload\n        /* \"contracts/OrderBook.sol\":9903:9926  return askBook[id].next */\n      swap1\n      pop\n        /* \"contracts/OrderBook.sol\":9831:9933  function getAskNext (uint256 id) public view returns(uint256) {... */\n      swap2\n      swap1\n      pop\n      jump\t// out\n        /* \"contracts/OrderBook.sol\":7699:8147  function placeAsk (uint256 price) public payable {... */\n    tag_71:\n        /* \"contracts/OrderBook.sol\":7775:7776  0 */\n      0x00\n        /* \"contracts/OrderBook.sol\":7766:7771  price */\n      dup2\n        /* \"contracts/OrderBook.sol\":7766:7776  price >= 0 */\n      lt\n      iszero\n        /* \"contracts/OrderBook.sol\":7758:7812  require(price >= 0, \"price value must be more than 0\") */\n      tag_155\n      jumpi\n      mload(0x40)\n      0x08c379a000000000000000000000000000000000000000000000000000000000\n      dup2\n      mstore\n      0x04\n      add\n      tag_156\n      swap1\n      tag_157\n      jump\t// in\n    tag_156:\n      mload(0x40)\n      dup1\n      swap2\n      sub\n      swap1\n      revert\n    tag_155:\n        /* \"contracts/OrderBook.sol\":7843:7848  price */\n      dup1\n        /* \"contracts/OrderBook.sol\":7830:7839  msg.value */\n      callvalue\n        /* \"contracts/OrderBook.sol\":7830:7848  msg.value >= price */\n      lt\n      iszero\n        /* \"contracts/OrderBook.sol\":7822:7883  require(msg.value >= price, \"Not enough blance to place ask\") */\n      tag_158\n      jumpi\n      mload(0x40)\n      0x08c379a000000000000000000000000000000000000000000000000000000000\n      dup2\n      mstore\n      0x04\n      add\n      tag_159\n      swap1\n      tag_160\n      jump\t// in\n    tag_159:\n      mload(0x40)\n      dup1\n      swap2\n      sub\n      swap1\n      revert\n    tag_158:\n        /* \"contracts/OrderBook.sol\":7893:7905  uint256 time */\n      0x00\n        /* \"contracts/OrderBook.sol\":7908:7923  block.timestamp */\n      timestamp\n        /* \"contracts/OrderBook.sol\":7893:7923  uint256 time = block.timestamp */\n      swap1\n      pop\n        /* \"contracts/OrderBook.sol\":7933:7958  uint256 commissionedPrice */\n      0x00\n        /* \"contracts/OrderBook.sol\":7992:7995  100 */\n      0x64\n        /* \"contracts/OrderBook.sol\":7978:7988  commission */\n      sload(0x02)\n        /* \"contracts/OrderBook.sol\":7974:7977  100 */\n      0x64\n        /* \"contracts/OrderBook.sol\":7974:7988  100-commission */\n      tag_161\n      swap2\n      swap1\n      tag_139\n      jump\t// in\n    tag_161:\n        /* \"contracts/OrderBook.sol\":7961:7970  msg.value */\n      callvalue\n        /* \"contracts/OrderBook.sol\":7961:7989  msg.value * (100-commission) */\n      tag_162\n      swap2\n      swap1\n      tag_163\n      jump\t// in\n    tag_162:\n        /* \"contracts/OrderBook.sol\":7961:7995  msg.value * (100-commission) / 100 */\n      tag_164\n      swap2\n      swap1\n      tag_165\n      jump\t// in\n    tag_164:\n        /* \"contracts/OrderBook.sol\":7933:7995  uint256 commissionedPrice = msg.value * (100-commission) / 100 */\n      swap1\n      pop\n        /* \"contracts/OrderBook.sol\":8005:8024  order memory newAsk */\n      0x00\n        /* \"contracts/OrderBook.sol\":8027:8071  createAsk(msg.sender,commissionedPrice,time) */\n      tag_166\n        /* \"contracts/OrderBook.sol\":8037:8047  msg.sender */\n      caller\n        /* \"contracts/OrderBook.sol\":8048:8065  commissionedPrice */\n      dup4\n        /* \"contracts/OrderBook.sol\":8066:8070  time */\n      dup6\n        /* \"contracts/OrderBook.sol\":8027:8036  createAsk */\n      tag_167\n        /* \"contracts/OrderBook.sol\":8027:8071  createAsk(msg.sender,commissionedPrice,time) */\n      jump\t// in\n    tag_166:\n        /* \"contracts/OrderBook.sol\":8005:8071  order memory newAsk = createAsk(msg.sender,commissionedPrice,time) */\n      swap1\n      pop\n        /* \"contracts/OrderBook.sol\":8081:8096  sortAsk(newAsk) */\n      tag_168\n        /* \"contracts/OrderBook.sol\":8089:8095  newAsk */\n      dup2\n        /* \"contracts/OrderBook.sol\":8081:8088  sortAsk */\n      tag_169\n        /* \"contracts/OrderBook.sol\":8081:8096  sortAsk(newAsk) */\n      jump\t// in\n    tag_168:\n        /* \"contracts/OrderBook.sol\":8106:8112  _owner */\n      0x01\n      0x00\n      swap1\n      sload\n      swap1\n      0x0100\n      exp\n      swap1\n      div\n      0xffffffffffffffffffffffffffffffffffffffff\n      and\n        /* \"contracts/OrderBook.sol\":8106:8121  _owner.transfer */\n      0xffffffffffffffffffffffffffffffffffffffff\n      and\n        /* \"contracts/OrderBook.sol\":8106:8140  _owner.transfer(commissionedPrice) */\n      0x08fc\n        /* \"contracts/OrderBook.sol\":8122:8139  commissionedPrice */\n      dup4\n        /* \"contracts/OrderBook.sol\":8106:8140  _owner.transfer(commissionedPrice) */\n      swap1\n      dup2\n      iszero\n      mul\n      swap1\n      mload(0x40)\n      0x00\n      mload(0x40)\n      dup1\n      dup4\n      sub\n      dup2\n      dup6\n      dup9\n      dup9\n      call\n      swap4\n      pop\n      pop\n      pop\n      pop\n      iszero\n      dup1\n      iszero\n      tag_171\n      jumpi\n      returndatasize\n      0x00\n      dup1\n      returndatacopy\n      revert(0x00, returndatasize)\n    tag_171:\n      pop\n        /* \"contracts/OrderBook.sol\":7748:8147  {... */\n      pop\n      pop\n      pop\n        /* \"contracts/OrderBook.sol\":7699:8147  function placeAsk (uint256 price) public payable {... */\n      pop\n      jump\t// out\n        /* \"contracts/OrderBook.sol\":1807:1829  uint256 public askHead */\n    tag_74:\n      sload(0x07)\n      dup2\n      jump\t// out\n        /* \"contracts/OrderBook.sol\":7391:7693  function cancelBid (uint256 bidId) public payable isPending(bidBook[bidId]) isAuthorised(bidBook[bidId], msg.sender) {... */\n    tag_78:\n        /* \"contracts/OrderBook.sol\":7451:7458  bidBook */\n      0x03\n        /* \"contracts/OrderBook.sol\":7451:7465  bidBook[bidId] */\n      0x00\n        /* \"contracts/OrderBook.sol\":7459:7464  bidId */\n      dup3\n        /* \"contracts/OrderBook.sol\":7451:7465  bidBook[bidId] */\n      dup2\n      mstore\n      0x20\n      add\n      swap1\n      dup2\n      mstore\n      0x20\n      add\n      0x00\n      keccak256\n        /* \"contracts/OrderBook.sol\":2327:2450  modifier isPending(order memory _order) {... */\n      mload(0x40)\n      dup1\n      0xe0\n      add\n      0x40\n      mstore\n      swap1\n      dup2\n      0x00\n      dup3\n      add\n      0x00\n      swap1\n      sload\n      swap1\n      0x0100\n      exp\n      swap1\n      div\n      0xffffffffffffffffffffffffffffffffffffffff\n      and\n      0xffffffffffffffffffffffffffffffffffffffff\n      and\n      0xffffffffffffffffffffffffffffffffffffffff\n      and\n      dup2\n      mstore\n      0x20\n      add\n      0x01\n      dup3\n      add\n      sload\n      dup2\n      mstore\n      0x20\n      add\n      0x02\n      dup3\n      add\n      sload\n      dup2\n      mstore\n      0x20\n      add\n      0x03\n      dup3\n      add\n      0x00\n      swap1\n      sload\n      swap1\n      0x0100\n      exp\n      swap1\n      div\n      0xff\n      and\n      0x01\n      dup2\n      gt\n      iszero\n      tag_172\n      jumpi\n      tag_173\n      tag_118\n      jump\t// in\n    tag_173:\n    tag_172:\n      0x01\n      dup2\n      gt\n      iszero\n      tag_174\n      jumpi\n      tag_175\n      tag_118\n      jump\t// in\n    tag_175:\n    tag_174:\n      dup2\n      mstore\n      0x20\n      add\n      0x04\n      dup3\n      add\n      sload\n      dup2\n      mstore\n      0x20\n      add\n      0x05\n      dup3\n      add\n      sload\n      dup2\n      mstore\n      0x20\n      add\n      0x06\n      dup3\n      add\n      sload\n      dup2\n      mstore\n      pop\n      pop\n        /* \"contracts/OrderBook.sol\":2401:2414  State.pending */\n      0x00\n        /* \"contracts/OrderBook.sol\":2385:2414  _order.state == State.pending */\n      0x01\n      dup2\n      gt\n      iszero\n      tag_177\n      jumpi\n      tag_178\n      tag_118\n      jump\t// in\n    tag_178:\n    tag_177:\n        /* \"contracts/OrderBook.sol\":2385:2391  _order */\n      dup2\n        /* \"contracts/OrderBook.sol\":2385:2397  _order.state */\n      0x60\n      add\n      mload\n        /* \"contracts/OrderBook.sol\":2385:2414  _order.state == State.pending */\n      0x01\n      dup2\n      gt\n      iszero\n      tag_179\n      jumpi\n      tag_180\n      tag_118\n      jump\t// in\n    tag_180:\n    tag_179:\n      eq\n        /* \"contracts/OrderBook.sol\":2377:2432  require(_order.state == State.pending, \"Order Pending\") */\n      tag_181\n      jumpi\n      mload(0x40)\n      0x08c379a000000000000000000000000000000000000000000000000000000000\n      dup2\n      mstore\n      0x04\n      add\n      tag_182\n      swap1\n      tag_128\n      jump\t// in\n    tag_182:\n      mload(0x40)\n      dup1\n      swap2\n      sub\n      swap1\n      revert\n    tag_181:\n        /* \"contracts/OrderBook.sol\":7480:7487  bidBook */\n      0x03\n        /* \"contracts/OrderBook.sol\":7480:7494  bidBook[bidId] */\n      0x00\n        /* \"contracts/OrderBook.sol\":7488:7493  bidId */\n      dup4\n        /* \"contracts/OrderBook.sol\":7480:7494  bidBook[bidId] */\n      dup2\n      mstore\n      0x20\n      add\n      swap1\n      dup2\n      mstore\n      0x20\n      add\n      0x00\n      keccak256\n        /* \"contracts/OrderBook.sol\":2456:2595  modifier isAuthorised(order memory _order, address sender) {... */\n      mload(0x40)\n      dup1\n      0xe0\n      add\n      0x40\n      mstore\n      swap1\n      dup2\n      0x00\n      dup3\n      add\n      0x00\n      swap1\n      sload\n      swap1\n      0x0100\n      exp\n      swap1\n      div\n      0xffffffffffffffffffffffffffffffffffffffff\n      and\n      0xffffffffffffffffffffffffffffffffffffffff\n      and\n      0xffffffffffffffffffffffffffffffffffffffff\n      and\n      dup2\n      mstore\n      0x20\n      add\n      0x01\n      dup3\n      add\n      sload\n      dup2\n      mstore\n      0x20\n      add\n      0x02\n      dup3\n      add\n      sload\n      dup2\n      mstore\n      0x20\n      add\n      0x03\n      dup3\n      add\n      0x00\n      swap1\n      sload\n      swap1\n      0x0100\n      exp\n      swap1\n      div\n      0xff\n      and\n      0x01\n      dup2\n      gt\n      iszero\n      tag_183\n      jumpi\n      tag_184\n      tag_118\n      jump\t// in\n    tag_184:\n    tag_183:\n      0x01\n      dup2\n      gt\n      iszero\n      tag_185\n      jumpi\n      tag_186\n      tag_118\n      jump\t// in\n    tag_186:\n    tag_185:\n      dup2\n      mstore\n      0x20\n      add\n      0x04\n      dup3\n      add\n      sload\n      dup2\n      mstore\n      0x20\n      add\n      0x05\n      dup3\n      add\n      sload\n      dup2\n      mstore\n      0x20\n      add\n      0x06\n      dup3\n      add\n      sload\n      dup2\n      mstore\n      pop\n      pop\n        /* \"contracts/OrderBook.sol\":7496:7506  msg.sender */\n      caller\n        /* \"contracts/OrderBook.sol\":2552:2558  sender */\n      dup1\n        /* \"contracts/OrderBook.sol\":2533:2558  _order.customer == sender */\n      0xffffffffffffffffffffffffffffffffffffffff\n      and\n        /* \"contracts/OrderBook.sol\":2533:2539  _order */\n      dup3\n        /* \"contracts/OrderBook.sol\":2533:2548  _order.customer */\n      0x00\n      add\n      mload\n        /* \"contracts/OrderBook.sol\":2533:2558  _order.customer == sender */\n      0xffffffffffffffffffffffffffffffffffffffff\n      and\n      eq\n        /* \"contracts/OrderBook.sol\":2525:2577  require(_order.customer == sender, \"Not Authorised\") */\n      tag_188\n      jumpi\n      mload(0x40)\n      0x08c379a000000000000000000000000000000000000000000000000000000000\n      dup2\n      mstore\n      0x04\n      add\n      tag_189\n      swap1\n      tag_136\n      jump\t// in\n    tag_189:\n      mload(0x40)\n      dup1\n      swap2\n      sub\n      swap1\n      revert\n    tag_188:\n        /* \"contracts/OrderBook.sol\":7518:7531  uint256 value */\n      0x00\n        /* \"contracts/OrderBook.sol\":7557:7566  msg.value */\n      callvalue\n        /* \"contracts/OrderBook.sol\":7534:7541  bidBook */\n      0x03\n        /* \"contracts/OrderBook.sol\":7534:7548  bidBook[bidId] */\n      0x00\n        /* \"contracts/OrderBook.sol\":7542:7547  bidId */\n      dup8\n        /* \"contracts/OrderBook.sol\":7534:7548  bidBook[bidId] */\n      dup2\n      mstore\n      0x20\n      add\n      swap1\n      dup2\n      mstore\n      0x20\n      add\n      0x00\n      keccak256\n        /* \"contracts/OrderBook.sol\":7534:7554  bidBook[bidId].value */\n      0x01\n      add\n      sload\n        /* \"contracts/OrderBook.sol\":7534:7566  bidBook[bidId].value - msg.value */\n      tag_191\n      swap2\n      swap1\n      tag_139\n      jump\t// in\n    tag_191:\n        /* \"contracts/OrderBook.sol\":7518:7566  uint256 value = bidBook[bidId].value - msg.value */\n      swap1\n      pop\n        /* \"contracts/OrderBook.sol\":7576:7592  deleteAsk(bidId) */\n      tag_192\n        /* \"contracts/OrderBook.sol\":7586:7591  bidId */\n      dup6\n        /* \"contracts/OrderBook.sol\":7576:7585  deleteAsk */\n      tag_141\n        /* \"contracts/OrderBook.sol\":7576:7592  deleteAsk(bidId) */\n      jump\t// in\n    tag_192:\n        /* \"contracts/OrderBook.sol\":7602:7626  address payable receiver */\n      0x00\n        /* \"contracts/OrderBook.sol\":7637:7647  msg.sender */\n      caller\n        /* \"contracts/OrderBook.sol\":7602:7648  address payable receiver = payable(msg.sender) */\n      swap1\n      pop\n        /* \"contracts/OrderBook.sol\":7508:7693  {... */\n      pop\n      pop\n        /* \"contracts/OrderBook.sol\":2442:2443  _ */\n      pop\n      pop\n        /* \"contracts/OrderBook.sol\":7391:7693  function cancelBid (uint256 bidId) public payable isPending(bidBook[bidId]) isAuthorised(bidBook[bidId], msg.sender) {... */\n      pop\n      pop\n      jump\t// out\n        /* \"contracts/OrderBook.sol\":6937:7385  function placeBid (uint256 price) public payable {... */\n    tag_81:\n        /* \"contracts/OrderBook.sol\":7013:7014  0 */\n      0x00\n        /* \"contracts/OrderBook.sol\":7004:7009  price */\n      dup2\n        /* \"contracts/OrderBook.sol\":7004:7014  price >= 0 */\n      lt\n      iszero\n        /* \"contracts/OrderBook.sol\":6996:7050  require(price >= 0, \"price value must be more than 0\") */\n      tag_194\n      jumpi\n      mload(0x40)\n      0x08c379a000000000000000000000000000000000000000000000000000000000\n      dup2\n      mstore\n      0x04\n      add\n      tag_195\n      swap1\n      tag_157\n      jump\t// in\n    tag_195:\n      mload(0x40)\n      dup1\n      swap2\n      sub\n      swap1\n      revert\n    tag_194:\n        /* \"contracts/OrderBook.sol\":7081:7086  price */\n      dup1\n        /* \"contracts/OrderBook.sol\":7068:7077  msg.value */\n      callvalue\n        /* \"contracts/OrderBook.sol\":7068:7086  msg.value >= price */\n      lt\n      iszero\n        /* \"contracts/OrderBook.sol\":7060:7121  require(msg.value >= price, \"Not enough blance to place bid\") */\n      tag_196\n      jumpi\n      mload(0x40)\n      0x08c379a000000000000000000000000000000000000000000000000000000000\n      dup2\n      mstore\n      0x04\n      add\n      tag_197\n      swap1\n      tag_198\n      jump\t// in\n    tag_197:\n      mload(0x40)\n      dup1\n      swap2\n      sub\n      swap1\n      revert\n    tag_196:\n        /* \"contracts/OrderBook.sol\":7131:7143  uint256 time */\n      0x00\n        /* \"contracts/OrderBook.sol\":7146:7161  block.timestamp */\n      timestamp\n        /* \"contracts/OrderBook.sol\":7131:7161  uint256 time = block.timestamp */\n      swap1\n      pop\n        /* \"contracts/OrderBook.sol\":7171:7196  uint256 commissionedPrice */\n      0x00\n        /* \"contracts/OrderBook.sol\":7230:7233  100 */\n      0x64\n        /* \"contracts/OrderBook.sol\":7216:7226  commission */\n      sload(0x02)\n        /* \"contracts/OrderBook.sol\":7212:7215  100 */\n      0x64\n        /* \"contracts/OrderBook.sol\":7212:7226  100-commission */\n      tag_199\n      swap2\n      swap1\n      tag_139\n      jump\t// in\n    tag_199:\n        /* \"contracts/OrderBook.sol\":7199:7208  msg.value */\n      callvalue\n        /* \"contracts/OrderBook.sol\":7199:7227  msg.value * (100-commission) */\n      tag_200\n      swap2\n      swap1\n      tag_163\n      jump\t// in\n    tag_200:\n        /* \"contracts/OrderBook.sol\":7199:7233  msg.value * (100-commission) / 100 */\n      tag_201\n      swap2\n      swap1\n      tag_165\n      jump\t// in\n    tag_201:\n        /* \"contracts/OrderBook.sol\":7171:7233  uint256 commissionedPrice = msg.value * (100-commission) / 100 */\n      swap1\n      pop\n        /* \"contracts/OrderBook.sol\":7243:7262  order memory newBid */\n      0x00\n        /* \"contracts/OrderBook.sol\":7265:7309  createBid(msg.sender,commissionedPrice,time) */\n      tag_202\n        /* \"contracts/OrderBook.sol\":7275:7285  msg.sender */\n      caller\n        /* \"contracts/OrderBook.sol\":7286:7303  commissionedPrice */\n      dup4\n        /* \"contracts/OrderBook.sol\":7304:7308  time */\n      dup6\n        /* \"contracts/OrderBook.sol\":7265:7274  createBid */\n      tag_203\n        /* \"contracts/OrderBook.sol\":7265:7309  createBid(msg.sender,commissionedPrice,time) */\n      jump\t// in\n    tag_202:\n        /* \"contracts/OrderBook.sol\":7243:7309  order memory newBid = createBid(msg.sender,commissionedPrice,time) */\n      swap1\n      pop\n        /* \"contracts/OrderBook.sol\":7319:7334  sortBid(newBid) */\n      tag_204\n        /* \"contracts/OrderBook.sol\":7327:7333  newBid */\n      dup2\n        /* \"contracts/OrderBook.sol\":7319:7326  sortBid */\n      tag_205\n        /* \"contracts/OrderBook.sol\":7319:7334  sortBid(newBid) */\n      jump\t// in\n    tag_204:\n        /* \"contracts/OrderBook.sol\":7344:7350  _owner */\n      0x01\n      0x00\n      swap1\n      sload\n      swap1\n      0x0100\n      exp\n      swap1\n      div\n      0xffffffffffffffffffffffffffffffffffffffff\n      and\n        /* \"contracts/OrderBook.sol\":7344:7359  _owner.transfer */\n      0xffffffffffffffffffffffffffffffffffffffff\n      and\n        /* \"contracts/OrderBook.sol\":7344:7378  _owner.transfer(commissionedPrice) */\n      0x08fc\n        /* \"contracts/OrderBook.sol\":7360:7377  commissionedPrice */\n      dup4\n        /* \"contracts/OrderBook.sol\":7344:7378  _owner.transfer(commissionedPrice) */\n      swap1\n      dup2\n      iszero\n      mul\n      swap1\n      mload(0x40)\n      0x00\n      mload(0x40)\n      dup1\n      dup4\n      sub\n      dup2\n      dup6\n      dup9\n      dup9\n      call\n      swap4\n      pop\n      pop\n      pop\n      pop\n      iszero\n      dup1\n      iszero\n      tag_207\n      jumpi\n      returndatasize\n      0x00\n      dup1\n      returndatacopy\n      revert(0x00, returndatasize)\n    tag_207:\n      pop\n        /* \"contracts/OrderBook.sol\":6986:7385  {... */\n      pop\n      pop\n      pop\n        /* \"contracts/OrderBook.sol\":6937:7385  function placeBid (uint256 price) public payable {... */\n      pop\n      jump\t// out\n        /* \"contracts/OrderBook.sol\":9723:9825  function getBidNext (uint256 id) public view returns(uint256) {... */\n    tag_85:\n        /* \"contracts/OrderBook.sol\":9776:9783  uint256 */\n      0x00\n        /* \"contracts/OrderBook.sol\":9802:9809  bidBook */\n      0x03\n        /* \"contracts/OrderBook.sol\":9802:9813  bidBook[id] */\n      0x00\n        /* \"contracts/OrderBook.sol\":9810:9812  id */\n      dup4\n        /* \"contracts/OrderBook.sol\":9802:9813  bidBook[id] */\n      dup2\n      mstore\n      0x20\n      add\n      swap1\n      dup2\n      mstore\n      0x20\n      add\n      0x00\n      keccak256\n        /* \"contracts/OrderBook.sol\":9802:9818  bidBook[id].next */\n      0x05\n      add\n      sload\n        /* \"contracts/OrderBook.sol\":9795:9818  return bidBook[id].next */\n      swap1\n      pop\n        /* \"contracts/OrderBook.sol\":9723:9825  function getBidNext (uint256 id) public view returns(uint256) {... */\n      swap2\n      swap1\n      pop\n      jump\t// out\n        /* \"contracts/OrderBook.sol\":1835:1858  uint256 public askCount */\n    tag_89:\n      sload(0x08)\n      dup2\n      jump\t// out\n        /* \"contracts/OrderBook.sol\":1690:1713  uint256 public bidCount */\n    tag_93:\n      sload(0x05)\n      dup2\n      jump\t// out\n        /* \"contracts/OrderBook.sol\":9507:9609  function getBidState (uint256 id) public view returns(State) {... */\n    tag_98:\n        /* \"contracts/OrderBook.sol\":9561:9566  State */\n      0x00\n        /* \"contracts/OrderBook.sol\":9585:9592  bidBook */\n      0x03\n        /* \"contracts/OrderBook.sol\":9585:9596  bidBook[id] */\n      0x00\n        /* \"contracts/OrderBook.sol\":9593:9595  id */\n      dup4\n        /* \"contracts/OrderBook.sol\":9585:9596  bidBook[id] */\n      dup2\n      mstore\n      0x20\n      add\n      swap1\n      dup2\n      mstore\n      0x20\n      add\n      0x00\n      keccak256\n        /* \"contracts/OrderBook.sol\":9585:9602  bidBook[id].state */\n      0x03\n      add\n      0x00\n      swap1\n      sload\n      swap1\n      0x0100\n      exp\n      swap1\n      div\n      0xff\n      and\n        /* \"contracts/OrderBook.sol\":9578:9602  return bidBook[id].state */\n      swap1\n      pop\n        /* \"contracts/OrderBook.sol\":9507:9609  function getBidState (uint256 id) public view returns(State) {... */\n      swap2\n      swap1\n      pop\n      jump\t// out\n        /* \"contracts/OrderBook.sol\":10047:10149  function getAskPrev (uint256 id) public view returns(uint256) {... */\n    tag_103:\n        /* \"contracts/OrderBook.sol\":10100:10107  uint256 */\n      0x00\n        /* \"contracts/OrderBook.sol\":10126:10133  askBook */\n      0x06\n        /* \"contracts/OrderBook.sol\":10126:10137  askBook[id] */\n      0x00\n        /* \"contracts/OrderBook.sol\":10134:10136  id */\n      dup4\n        /* \"contracts/OrderBook.sol\":10126:10137  askBook[id] */\n      dup2\n      mstore\n      0x20\n      add\n      swap1\n      dup2\n      mstore\n      0x20\n      add\n      0x00\n      keccak256\n        /* \"contracts/OrderBook.sol\":10126:10142  askBook[id].prev */\n      0x06\n      add\n      sload\n        /* \"contracts/OrderBook.sol\":10119:10142  return askBook[id].prev */\n      swap1\n      pop\n        /* \"contracts/OrderBook.sol\":10047:10149  function getAskPrev (uint256 id) public view returns(uint256) {... */\n      swap2\n      swap1\n      pop\n      jump\t// out\n        /* \"contracts/OrderBook.sol\":9397:9501  function getAskValue (uint256 id) public view returns(uint256) {... */\n    tag_108:\n        /* \"contracts/OrderBook.sol\":9451:9458  uint256 */\n      0x00\n        /* \"contracts/OrderBook.sol\":9477:9484  askBook */\n      0x06\n        /* \"contracts/OrderBook.sol\":9477:9488  askBook[id] */\n      0x00\n        /* \"contracts/OrderBook.sol\":9485:9487  id */\n      dup4\n        /* \"contracts/OrderBook.sol\":9477:9488  askBook[id] */\n      dup2\n      mstore\n      0x20\n      add\n      swap1\n      dup2\n      mstore\n      0x20\n      add\n      0x00\n      keccak256\n        /* \"contracts/OrderBook.sol\":9477:9494  askBook[id].value */\n      0x01\n      add\n      sload\n        /* \"contracts/OrderBook.sol\":9470:9494  return askBook[id].value */\n      swap1\n      pop\n        /* \"contracts/OrderBook.sol\":9397:9501  function getAskValue (uint256 id) public view returns(uint256) {... */\n      swap2\n      swap1\n      pop\n      jump\t// out\n        /* \"contracts/Strings.sol\":328:1031  function toString(uint256 value) internal pure returns (string memory) {... */\n    tag_114:\n        /* \"contracts/Strings.sol\":384:397  string memory */\n      0x60\n        /* \"contracts/Strings.sol\":610:611  0 */\n      0x00\n        /* \"contracts/Strings.sol\":601:606  value */\n      dup3\n        /* \"contracts/Strings.sol\":601:611  value == 0 */\n      eq\n        /* \"contracts/Strings.sol\":597:648  if (value == 0) {... */\n      iszero\n      tag_213\n      jumpi\n        /* \"contracts/Strings.sol\":627:637  return \"0\" */\n      mload(0x40)\n      dup1\n      0x40\n      add\n      0x40\n      mstore\n      dup1\n      0x01\n      dup2\n      mstore\n      0x20\n      add\n      0x3000000000000000000000000000000000000000000000000000000000000000\n      dup2\n      mstore\n      pop\n      swap1\n      pop\n      jump(tag_212)\n        /* \"contracts/Strings.sol\":597:648  if (value == 0) {... */\n    tag_213:\n        /* \"contracts/Strings.sol\":657:669  uint256 temp */\n      0x00\n        /* \"contracts/Strings.sol\":672:677  value */\n      dup3\n        /* \"contracts/Strings.sol\":657:677  uint256 temp = value */\n      swap1\n      pop\n        /* \"contracts/Strings.sol\":687:701  uint256 digits */\n      0x00\n        /* \"contracts/Strings.sol\":711:786  while (temp != 0) {... */\n    tag_214:\n        /* \"contracts/Strings.sol\":726:727  0 */\n      0x00\n        /* \"contracts/Strings.sol\":718:722  temp */\n      dup3\n        /* \"contracts/Strings.sol\":718:727  temp != 0 */\n      eq\n        /* \"contracts/Strings.sol\":711:786  while (temp != 0) {... */\n      tag_215\n      jumpi\n        /* \"contracts/Strings.sol\":743:751  digits++ */\n      dup1\n      dup1\n      tag_216\n      swap1\n      tag_217\n      jump\t// in\n    tag_216:\n      swap2\n      pop\n      pop\n        /* \"contracts/Strings.sol\":773:775  10 */\n      0x0a\n        /* \"contracts/Strings.sol\":765:775  temp /= 10 */\n      dup3\n      tag_218\n      swap2\n      swap1\n      tag_165\n      jump\t// in\n    tag_218:\n      swap2\n      pop\n        /* \"contracts/Strings.sol\":711:786  while (temp != 0) {... */\n      jump(tag_214)\n    tag_215:\n        /* \"contracts/Strings.sol\":795:814  bytes memory buffer */\n      0x00\n        /* \"contracts/Strings.sol\":827:833  digits */\n      dup2\n        /* \"contracts/Strings.sol\":817:834  new bytes(digits) */\n      0xffffffffffffffff\n      dup2\n      gt\n      iszero\n      tag_219\n      jumpi\n      tag_220\n      tag_221\n      jump\t// in\n    tag_220:\n    tag_219:\n      mload(0x40)\n      swap1\n      dup1\n      dup3\n      mstore\n      dup1\n      0x1f\n      add\n      not(0x1f)\n      and\n      0x20\n      add\n      dup3\n      add\n      0x40\n      mstore\n      dup1\n      iszero\n      tag_222\n      jumpi\n      dup2\n      0x20\n      add\n      0x01\n      dup3\n      mul\n      dup1\n      calldatasize\n      dup4\n      calldatacopy\n      dup1\n      dup3\n      add\n      swap2\n      pop\n      pop\n      swap1\n      pop\n    tag_222:\n      pop\n        /* \"contracts/Strings.sol\":795:834  bytes memory buffer = new bytes(digits) */\n      swap1\n      pop\n        /* \"contracts/Strings.sol\":844:994  while (value != 0) {... */\n    tag_223:\n        /* \"contracts/Strings.sol\":860:861  0 */\n      0x00\n        /* \"contracts/Strings.sol\":851:856  value */\n      dup6\n        /* \"contracts/Strings.sol\":851:861  value != 0 */\n      eq\n        /* \"contracts/Strings.sol\":844:994  while (value != 0) {... */\n      tag_224\n      jumpi\n        /* \"contracts/Strings.sol\":887:888  1 */\n      0x01\n        /* \"contracts/Strings.sol\":877:888  digits -= 1 */\n      dup3\n      tag_225\n      swap2\n      swap1\n      tag_139\n      jump\t// in\n    tag_225:\n      swap2\n      pop\n        /* \"contracts/Strings.sol\":953:955  10 */\n      0x0a\n        /* \"contracts/Strings.sol\":945:950  value */\n      dup6\n        /* \"contracts/Strings.sol\":945:955  value % 10 */\n      tag_226\n      swap2\n      swap1\n      tag_227\n      jump\t// in\n    tag_226:\n        /* \"contracts/Strings.sol\":932:934  48 */\n      0x30\n        /* \"contracts/Strings.sol\":932:956  48 + uint256(value % 10) */\n      tag_228\n      swap2\n      swap1\n      tag_229\n      jump\t// in\n    tag_228:\n        /* \"contracts/Strings.sol\":919:958  bytes1(uint8(48 + uint256(value % 10))) */\n      0xf8\n      shl\n        /* \"contracts/Strings.sol\":902:908  buffer */\n      dup2\n        /* \"contracts/Strings.sol\":909:915  digits */\n      dup4\n        /* \"contracts/Strings.sol\":902:916  buffer[digits] */\n      dup2\n      mload\n      dup2\n      lt\n      tag_230\n      jumpi\n      tag_231\n      tag_232\n      jump\t// in\n    tag_231:\n    tag_230:\n      0x20\n      add\n      add\n        /* \"contracts/Strings.sol\":902:958  buffer[digits] = bytes1(uint8(48 + uint256(value % 10))) */\n      swap1\n      not(0xffffffffffffffffffffffffffffffffffffffffffffffffffffffffffffff)\n      and\n      swap1\n      dup2\n      0x00\n      byte\n      swap1\n      mstore8\n      pop\n        /* \"contracts/Strings.sol\":981:983  10 */\n      0x0a\n        /* \"contracts/Strings.sol\":972:983  value /= 10 */\n      dup6\n      tag_233\n      swap2\n      swap1\n      tag_165\n      jump\t// in\n    tag_233:\n      swap5\n      pop\n        /* \"contracts/Strings.sol\":844:994  while (value != 0) {... */\n      jump(tag_223)\n    tag_224:\n        /* \"contracts/Strings.sol\":1017:1023  buffer */\n      dup1\n        /* \"contracts/Strings.sol\":1003:1024  return string(buffer) */\n      swap4\n      pop\n      pop\n      pop\n      pop\n        /* \"contracts/Strings.sol\":328:1031  function toString(uint256 value) internal pure returns (string memory) {... */\n    tag_212:\n      swap2\n      swap1\n      pop\n      jump\t// out\n        /* \"contracts/OrderBook.sol\":3584:4015  function deleteAsk(uint256 id) internal {... */\n    tag_141:\n        /* \"contracts/OrderBook.sol\":3649:3650  0 */\n      0x00\n        /* \"contracts/OrderBook.sol\":3638:3645  askHead */\n      sload(0x07)\n        /* \"contracts/OrderBook.sol\":3638:3650  askHead == 0 */\n      eq\n        /* \"contracts/OrderBook.sol\":3638:3661  askHead == 0 || id == 0 */\n      dup1\n      tag_235\n      jumpi\n      pop\n        /* \"contracts/OrderBook.sol\":3660:3661  0 */\n      0x00\n        /* \"contracts/OrderBook.sol\":3654:3656  id */\n      dup2\n        /* \"contracts/OrderBook.sol\":3654:3661  id == 0 */\n      eq\n        /* \"contracts/OrderBook.sol\":3638:3661  askHead == 0 || id == 0 */\n    tag_235:\n        /* \"contracts/OrderBook.sol\":3634:3694  if (askHead == 0 || id == 0) {... */\n      iszero\n      tag_236\n      jumpi\n        /* \"contracts/OrderBook.sol\":3677:3684  return; */\n      jump(tag_234)\n        /* \"contracts/OrderBook.sol\":3634:3694  if (askHead == 0 || id == 0) {... */\n    tag_236:\n        /* \"contracts/OrderBook.sol\":3718:3720  id */\n      dup1\n        /* \"contracts/OrderBook.sol\":3707:3714  askHead */\n      sload(0x07)\n        /* \"contracts/OrderBook.sol\":3707:3720  askHead == id */\n      eq\n        /* \"contracts/OrderBook.sol\":3703:3773  if (askHead == id) {... */\n      iszero\n      tag_237\n      jumpi\n        /* \"contracts/OrderBook.sol\":3746:3753  askBook */\n      0x06\n        /* \"contracts/OrderBook.sol\":3746:3757  askBook[id] */\n      0x00\n        /* \"contracts/OrderBook.sol\":3754:3756  id */\n      dup3\n        /* \"contracts/OrderBook.sol\":3746:3757  askBook[id] */\n      dup2\n      mstore\n      0x20\n      add\n      swap1\n      dup2\n      mstore\n      0x20\n      add\n      0x00\n      keccak256\n        /* \"contracts/OrderBook.sol\":3746:3762  askBook[id].next */\n      0x05\n      add\n      sload\n        /* \"contracts/OrderBook.sol\":3736:3743  askHead */\n      0x07\n        /* \"contracts/OrderBook.sol\":3736:3762  askHead = askBook[id].next */\n      dup2\n      swap1\n      sstore\n      pop\n        /* \"contracts/OrderBook.sol\":3703:3773  if (askHead == id) {... */\n    tag_237:\n        /* \"contracts/OrderBook.sol\":3806:3807  0 */\n      0x00\n        /* \"contracts/OrderBook.sol\":3786:3793  askBook */\n      0x06\n        /* \"contracts/OrderBook.sol\":3786:3797  askBook[id] */\n      0x00\n        /* \"contracts/OrderBook.sol\":3794:3796  id */\n      dup4\n        /* \"contracts/OrderBook.sol\":3786:3797  askBook[id] */\n      dup2\n      mstore\n      0x20\n      add\n      swap1\n      dup2\n      mstore\n      0x20\n      add\n      0x00\n      keccak256\n        /* \"contracts/OrderBook.sol\":3786:3802  askBook[id].next */\n      0x05\n      add\n      sload\n        /* \"contracts/OrderBook.sol\":3786:3807  askBook[id].next != 0 */\n      eq\n        /* \"contracts/OrderBook.sol\":3782:3883  if (askBook[id].next != 0) {... */\n      tag_238\n      jumpi\n        /* \"contracts/OrderBook.sol\":3856:3863  askBook */\n      0x06\n        /* \"contracts/OrderBook.sol\":3856:3867  askBook[id] */\n      0x00\n        /* \"contracts/OrderBook.sol\":3864:3866  id */\n      dup3\n        /* \"contracts/OrderBook.sol\":3856:3867  askBook[id] */\n      dup2\n      mstore\n      0x20\n      add\n      swap1\n      dup2\n      mstore\n      0x20\n      add\n      0x00\n      keccak256\n        /* \"contracts/OrderBook.sol\":3856:3872  askBook[id].prev */\n      0x06\n      add\n      sload\n        /* \"contracts/OrderBook.sol\":3823:3830  askBook */\n      0x06\n        /* \"contracts/OrderBook.sol\":3823:3848  askBook[askBook[id].next] */\n      0x00\n        /* \"contracts/OrderBook.sol\":3831:3838  askBook */\n      0x06\n        /* \"contracts/OrderBook.sol\":3831:3842  askBook[id] */\n      0x00\n        /* \"contracts/OrderBook.sol\":3839:3841  id */\n      dup6\n        /* \"contracts/OrderBook.sol\":3831:3842  askBook[id] */\n      dup2\n      mstore\n      0x20\n      add\n      swap1\n      dup2\n      mstore\n      0x20\n      add\n      0x00\n      keccak256\n        /* \"contracts/OrderBook.sol\":3831:3847  askBook[id].next */\n      0x05\n      add\n      sload\n        /* \"contracts/OrderBook.sol\":3823:3848  askBook[askBook[id].next] */\n      dup2\n      mstore\n      0x20\n      add\n      swap1\n      dup2\n      mstore\n      0x20\n      add\n      0x00\n      keccak256\n        /* \"contracts/OrderBook.sol\":3823:3853  askBook[askBook[id].next].prev */\n      0x06\n      add\n        /* \"contracts/OrderBook.sol\":3823:3872  askBook[askBook[id].next].prev = askBook[id].prev */\n      dup2\n      swap1\n      sstore\n      pop\n        /* \"contracts/OrderBook.sol\":3782:3883  if (askBook[id].next != 0) {... */\n    tag_238:\n        /* \"contracts/OrderBook.sol\":3916:3917  0 */\n      0x00\n        /* \"contracts/OrderBook.sol\":3896:3903  askBook */\n      0x06\n        /* \"contracts/OrderBook.sol\":3896:3907  askBook[id] */\n      0x00\n        /* \"contracts/OrderBook.sol\":3904:3906  id */\n      dup4\n        /* \"contracts/OrderBook.sol\":3896:3907  askBook[id] */\n      dup2\n      mstore\n      0x20\n      add\n      swap1\n      dup2\n      mstore\n      0x20\n      add\n      0x00\n      keccak256\n        /* \"contracts/OrderBook.sol\":3896:3912  askBook[id].prev */\n      0x06\n      add\n      sload\n        /* \"contracts/OrderBook.sol\":3896:3917  askBook[id].prev != 0 */\n      eq\n        /* \"contracts/OrderBook.sol\":3892:3993  if (askBook[id].prev != 0) {... */\n      tag_239\n      jumpi\n        /* \"contracts/OrderBook.sol\":3966:3973  askBook */\n      0x06\n        /* \"contracts/OrderBook.sol\":3966:3977  askBook[id] */\n      0x00\n        /* \"contracts/OrderBook.sol\":3974:3976  id */\n      dup3\n        /* \"contracts/OrderBook.sol\":3966:3977  askBook[id] */\n      dup2\n      mstore\n      0x20\n      add\n      swap1\n      dup2\n      mstore\n      0x20\n      add\n      0x00\n      keccak256\n        /* \"contracts/OrderBook.sol\":3966:3982  askBook[id].next */\n      0x05\n      add\n      sload\n        /* \"contracts/OrderBook.sol\":3933:3940  askBook */\n      0x06\n        /* \"contracts/OrderBook.sol\":3933:3958  askBook[askBook[id].prev] */\n      0x00\n        /* \"contracts/OrderBook.sol\":3941:3948  askBook */\n      0x06\n        /* \"contracts/OrderBook.sol\":3941:3952  askBook[id] */\n      0x00\n        /* \"contracts/OrderBook.sol\":3949:3951  id */\n      dup6\n        /* \"contracts/OrderBook.sol\":3941:3952  askBook[id] */\n      dup2\n      mstore\n      0x20\n      add\n      swap1\n      dup2\n      mstore\n      0x20\n      add\n      0x00\n      keccak256\n        /* \"contracts/OrderBook.sol\":3941:3957  askBook[id].prev */\n      0x06\n      add\n      sload\n        /* \"contracts/OrderBook.sol\":3933:3958  askBook[askBook[id].prev] */\n      dup2\n      mstore\n      0x20\n      add\n      swap1\n      dup2\n      mstore\n      0x20\n      add\n      0x00\n      keccak256\n        /* \"contracts/OrderBook.sol\":3933:3963  askBook[askBook[id].prev].next */\n      0x05\n      add\n        /* \"contracts/OrderBook.sol\":3933:3982  askBook[askBook[id].prev].next = askBook[id].next */\n      dup2\n      swap1\n      sstore\n      pop\n        /* \"contracts/OrderBook.sol\":3892:3993  if (askBook[id].prev != 0) {... */\n    tag_239:\n        /* \"contracts/OrderBook.sol\":3584:4015  function deleteAsk(uint256 id) internal {... */\n    tag_234:\n      pop\n      jump\t// out\n        /* \"contracts/OrderBook.sol\":3106:3578  function createAsk(address customer, uint256 value, uint256 timestamp) internal returns (order memory) {... */\n    tag_167:\n        /* \"contracts/OrderBook.sol\":3195:3207  order memory */\n      tag_240\n      tag_241\n      jump\t// in\n    tag_240:\n        /* \"contracts/OrderBook.sol\":3219:3227  askCount */\n      0x08\n      0x00\n        /* \"contracts/OrderBook.sol\":3219:3230  askCount ++ */\n      dup2\n      sload\n      dup1\n      swap3\n      swap2\n      swap1\n      tag_243\n      swap1\n      tag_217\n      jump\t// in\n    tag_243:\n      swap2\n      swap1\n      pop\n      sstore\n      pop\n        /* \"contracts/OrderBook.sol\":3240:3259  order memory newAsk */\n      0x00\n        /* \"contracts/OrderBook.sol\":3262:3429  order(... */\n      mload(0x40)\n      dup1\n      0xe0\n      add\n      0x40\n      mstore\n      dup1\n        /* \"contracts/OrderBook.sol\":3289:3297  customer */\n      dup7\n        /* \"contracts/OrderBook.sol\":3262:3429  order(... */\n      0xffffffffffffffffffffffffffffffffffffffff\n      and\n      dup2\n      mstore\n      0x20\n      add\n        /* \"contracts/OrderBook.sol\":3312:3317  value */\n      dup6\n        /* \"contracts/OrderBook.sol\":3262:3429  order(... */\n      dup2\n      mstore\n      0x20\n      add\n        /* \"contracts/OrderBook.sol\":3331:3340  timestamp */\n      dup5\n        /* \"contracts/OrderBook.sol\":3262:3429  order(... */\n      dup2\n      mstore\n      0x20\n      add\n        /* \"contracts/OrderBook.sol\":3354:3367  State.pending */\n      0x00\n        /* \"contracts/OrderBook.sol\":3262:3429  order(... */\n      0x01\n      dup2\n      gt\n      iszero\n      tag_244\n      jumpi\n      tag_245\n      tag_118\n      jump\t// in\n    tag_245:\n    tag_244:\n      dup2\n      mstore\n      0x20\n      add\n        /* \"contracts/OrderBook.sol\":3381:3389  askCount */\n      sload(0x08)\n        /* \"contracts/OrderBook.sol\":3262:3429  order(... */\n      dup2\n      mstore\n      0x20\n      add\n        /* \"contracts/OrderBook.sol\":3403:3404  0 */\n      0x00\n        /* \"contracts/OrderBook.sol\":3262:3429  order(... */\n      dup2\n      mstore\n      0x20\n      add\n        /* \"contracts/OrderBook.sol\":3418:3419  0 */\n      0x00\n        /* \"contracts/OrderBook.sol\":3262:3429  order(... */\n      dup2\n      mstore\n      pop\n        /* \"contracts/OrderBook.sol\":3240:3429  order memory newAsk = order(... */\n      swap1\n      pop\n        /* \"contracts/OrderBook.sol\":3459:3465  newAsk */\n      dup1\n        /* \"contracts/OrderBook.sol\":3439:3446  askBook */\n      0x06\n        /* \"contracts/OrderBook.sol\":3439:3456  askBook[askCount] */\n      0x00\n        /* \"contracts/OrderBook.sol\":3447:3455  askCount */\n      sload(0x08)\n        /* \"contracts/OrderBook.sol\":3439:3456  askBook[askCount] */\n      dup2\n      mstore\n      0x20\n      add\n      swap1\n      dup2\n      mstore\n      0x20\n      add\n      0x00\n      keccak256\n        /* \"contracts/OrderBook.sol\":3439:3465  askBook[askCount] = newAsk */\n      0x00\n      dup3\n      add\n      mload\n      dup2\n      0x00\n      add\n      exp(0x0100, 0x00)\n      dup2\n      sload\n      dup2\n      0xffffffffffffffffffffffffffffffffffffffff\n      mul\n      not\n      and\n      swap1\n      dup4\n      0xffffffffffffffffffffffffffffffffffffffff\n      and\n      mul\n      or\n      swap1\n      sstore\n      pop\n      0x20\n      dup3\n      add\n      mload\n      dup2\n      0x01\n      add\n      sstore\n      0x40\n      dup3\n      add\n      mload\n      dup2\n      0x02\n      add\n      sstore\n      0x60\n      dup3\n      add\n      mload\n      dup2\n      0x03\n      add\n      exp(0x0100, 0x00)\n      dup2\n      sload\n      dup2\n      0xff\n      mul\n      not\n      and\n      swap1\n      dup4\n      0x01\n      dup2\n      gt\n      iszero\n      tag_246\n      jumpi\n      tag_247\n      tag_118\n      jump\t// in\n    tag_247:\n    tag_246:\n      mul\n      or\n      swap1\n      sstore\n      pop\n      0x80\n      dup3\n      add\n      mload\n      dup2\n      0x04\n      add\n      sstore\n      0xa0\n      dup3\n      add\n      mload\n      dup2\n      0x05\n      add\n      sstore\n      0xc0\n      dup3\n      add\n      mload\n      dup2\n      0x06\n      add\n      sstore\n      swap1\n      pop\n      pop\n        /* \"contracts/OrderBook.sol\":3480:3545  orderCreated(customer,value,timestamp,State.pending,askCount,0,0) */\n      0xb363d8961e2dcc4e4f9cafac06e22ffe5a3ee9b47f614e483f989b932167e865\n        /* \"contracts/OrderBook.sol\":3493:3501  customer */\n      dup6\n        /* \"contracts/OrderBook.sol\":3502:3507  value */\n      dup6\n        /* \"contracts/OrderBook.sol\":3508:3517  timestamp */\n      dup6\n        /* \"contracts/OrderBook.sol\":3518:3531  State.pending */\n      0x00\n        /* \"contracts/OrderBook.sol\":3532:3540  askCount */\n      sload(0x08)\n        /* \"contracts/OrderBook.sol\":3541:3542  0 */\n      0x00\n        /* \"contracts/OrderBook.sol\":3543:3544  0 */\n      dup1\n        /* \"contracts/OrderBook.sol\":3480:3545  orderCreated(customer,value,timestamp,State.pending,askCount,0,0) */\n      mload(0x40)\n      tag_248\n      swap8\n      swap7\n      swap6\n      swap5\n      swap4\n      swap3\n      swap2\n      swap1\n      tag_249\n      jump\t// in\n    tag_248:\n      mload(0x40)\n      dup1\n      swap2\n      sub\n      swap1\n      log1\n        /* \"contracts/OrderBook.sol\":3565:3571  newAsk */\n      dup1\n        /* \"contracts/OrderBook.sol\":3558:3571  return newAsk */\n      swap2\n      pop\n      pop\n        /* \"contracts/OrderBook.sol\":3106:3578  function createAsk(address customer, uint256 value, uint256 timestamp) internal returns (order memory) {... */\n      swap4\n      swap3\n      pop\n      pop\n      pop\n      jump\t// out\n        /* \"contracts/OrderBook.sol\":4480:5357  function sortAsk(order memory newOrder) internal {... */\n    tag_169:\n        /* \"contracts/OrderBook.sol\":4539:4554  uint256 current */\n      0x00\n        /* \"contracts/OrderBook.sol\":4579:4580  0 */\n      dup1\n        /* \"contracts/OrderBook.sol\":4568:4575  askHead */\n      sload(0x07)\n        /* \"contracts/OrderBook.sol\":4568:4580  askHead == 0 */\n      eq\n        /* \"contracts/OrderBook.sol\":4564:5351  if (askHead == 0) {... */\n      iszero\n      tag_251\n      jumpi\n        /* \"contracts/OrderBook.sol\":4606:4614  newOrder */\n      dup2\n        /* \"contracts/OrderBook.sol\":4606:4617  newOrder.id */\n      0x80\n      add\n      mload\n        /* \"contracts/OrderBook.sol\":4596:4603  askHead */\n      0x07\n        /* \"contracts/OrderBook.sol\":4596:4617  askHead = newOrder.id */\n      dup2\n      swap1\n      sstore\n      pop\n        /* \"contracts/OrderBook.sol\":4564:5351  if (askHead == 0) {... */\n      jump(tag_252)\n    tag_251:\n        /* \"contracts/OrderBook.sol\":4664:4672  newOrder */\n      dup2\n        /* \"contracts/OrderBook.sol\":4664:4678  newOrder.value */\n      0x20\n      add\n      mload\n        /* \"contracts/OrderBook.sol\":4638:4645  askBook */\n      0x06\n        /* \"contracts/OrderBook.sol\":4638:4654  askBook[askHead] */\n      0x00\n        /* \"contracts/OrderBook.sol\":4646:4653  askHead */\n      sload(0x07)\n        /* \"contracts/OrderBook.sol\":4638:4654  askBook[askHead] */\n      dup2\n      mstore\n      0x20\n      add\n      swap1\n      dup2\n      mstore\n      0x20\n      add\n      0x00\n      keccak256\n        /* \"contracts/OrderBook.sol\":4638:4660  askBook[askHead].value */\n      0x01\n      add\n      sload\n        /* \"contracts/OrderBook.sol\":4638:4678  askBook[askHead].value >= newOrder.value */\n      lt\n        /* \"contracts/OrderBook.sol\":4634:5351  if (askBook[askHead].value >= newOrder.value) {... */\n      tag_253\n      jumpi\n        /* \"contracts/OrderBook.sol\":4722:4729  askHead */\n      sload(0x07)\n        /* \"contracts/OrderBook.sol\":4694:4701  askBook */\n      0x06\n        /* \"contracts/OrderBook.sol\":4694:4714  askBook[newOrder.id] */\n      0x00\n        /* \"contracts/OrderBook.sol\":4702:4710  newOrder */\n      dup5\n        /* \"contracts/OrderBook.sol\":4702:4713  newOrder.id */\n      0x80\n      add\n      mload\n        /* \"contracts/OrderBook.sol\":4694:4714  askBook[newOrder.id] */\n      dup2\n      mstore\n      0x20\n      add\n      swap1\n      dup2\n      mstore\n      0x20\n      add\n      0x00\n      keccak256\n        /* \"contracts/OrderBook.sol\":4694:4719  askBook[newOrder.id].next */\n      0x05\n      add\n        /* \"contracts/OrderBook.sol\":4694:4729  askBook[newOrder.id].next = askHead */\n      dup2\n      swap1\n      sstore\n      pop\n        /* \"contracts/OrderBook.sol\":4785:4793  newOrder */\n      dup2\n        /* \"contracts/OrderBook.sol\":4785:4796  newOrder.id */\n      0x80\n      add\n      mload\n        /* \"contracts/OrderBook.sol\":4743:4750  askBook */\n      0x06\n        /* \"contracts/OrderBook.sol\":4743:4777  askBook[askBook[newOrder.id].next] */\n      0x00\n        /* \"contracts/OrderBook.sol\":4751:4758  askBook */\n      0x06\n        /* \"contracts/OrderBook.sol\":4751:4771  askBook[newOrder.id] */\n      0x00\n        /* \"contracts/OrderBook.sol\":4759:4767  newOrder */\n      dup7\n        /* \"contracts/OrderBook.sol\":4759:4770  newOrder.id */\n      0x80\n      add\n      mload\n        /* \"contracts/OrderBook.sol\":4751:4771  askBook[newOrder.id] */\n      dup2\n      mstore\n      0x20\n      add\n      swap1\n      dup2\n      mstore\n      0x20\n      add\n      0x00\n      keccak256\n        /* \"contracts/OrderBook.sol\":4751:4776  askBook[newOrder.id].next */\n      0x05\n      add\n      sload\n        /* \"contracts/OrderBook.sol\":4743:4777  askBook[askBook[newOrder.id].next] */\n      dup2\n      mstore\n      0x20\n      add\n      swap1\n      dup2\n      mstore\n      0x20\n      add\n      0x00\n      keccak256\n        /* \"contracts/OrderBook.sol\":4743:4782  askBook[askBook[newOrder.id].next].prev */\n      0x06\n      add\n        /* \"contracts/OrderBook.sol\":4743:4796  askBook[askBook[newOrder.id].next].prev = newOrder.id */\n      dup2\n      swap1\n      sstore\n      pop\n        /* \"contracts/OrderBook.sol\":4820:4828  newOrder */\n      dup2\n        /* \"contracts/OrderBook.sol\":4820:4831  newOrder.id */\n      0x80\n      add\n      mload\n        /* \"contracts/OrderBook.sol\":4810:4817  askHead */\n      0x07\n        /* \"contracts/OrderBook.sol\":4810:4831  askHead = newOrder.id */\n      dup2\n      swap1\n      sstore\n      pop\n        /* \"contracts/OrderBook.sol\":4634:5351  if (askBook[askHead].value >= newOrder.value) {... */\n      jump(tag_254)\n    tag_253:\n        /* \"contracts/OrderBook.sol\":4872:4879  askHead */\n      sload(0x07)\n        /* \"contracts/OrderBook.sol\":4862:4879  current = askHead */\n      swap1\n      pop\n        /* \"contracts/OrderBook.sol\":4893:5049  while (askBook[current].next != 0 && askBook[askBook[current].next].value < newOrder.value) {... */\n    tag_255:\n        /* \"contracts/OrderBook.sol\":4925:4926  0 */\n      0x00\n        /* \"contracts/OrderBook.sol\":4900:4907  askBook */\n      0x06\n        /* \"contracts/OrderBook.sol\":4900:4916  askBook[current] */\n      0x00\n        /* \"contracts/OrderBook.sol\":4908:4915  current */\n      dup4\n        /* \"contracts/OrderBook.sol\":4900:4916  askBook[current] */\n      dup2\n      mstore\n      0x20\n      add\n      swap1\n      dup2\n      mstore\n      0x20\n      add\n      0x00\n      keccak256\n        /* \"contracts/OrderBook.sol\":4900:4921  askBook[current].next */\n      0x05\n      add\n      sload\n        /* \"contracts/OrderBook.sol\":4900:4926  askBook[current].next != 0 */\n      eq\n      iszero\n        /* \"contracts/OrderBook.sol\":4900:4983  askBook[current].next != 0 && askBook[askBook[current].next].value < newOrder.value */\n      dup1\n      iszero\n      tag_257\n      jumpi\n      pop\n        /* \"contracts/OrderBook.sol\":4969:4977  newOrder */\n      dup2\n        /* \"contracts/OrderBook.sol\":4969:4983  newOrder.value */\n      0x20\n      add\n      mload\n        /* \"contracts/OrderBook.sol\":4930:4937  askBook */\n      0x06\n        /* \"contracts/OrderBook.sol\":4930:4960  askBook[askBook[current].next] */\n      0x00\n        /* \"contracts/OrderBook.sol\":4938:4945  askBook */\n      0x06\n        /* \"contracts/OrderBook.sol\":4938:4954  askBook[current] */\n      0x00\n        /* \"contracts/OrderBook.sol\":4946:4953  current */\n      dup6\n        /* \"contracts/OrderBook.sol\":4938:4954  askBook[current] */\n      dup2\n      mstore\n      0x20\n      add\n      swap1\n      dup2\n      mstore\n      0x20\n      add\n      0x00\n      keccak256\n        /* \"contracts/OrderBook.sol\":4938:4959  askBook[current].next */\n      0x05\n      add\n      sload\n        /* \"contracts/OrderBook.sol\":4930:4960  askBook[askBook[current].next] */\n      dup2\n      mstore\n      0x20\n      add\n      swap1\n      dup2\n      mstore\n      0x20\n      add\n      0x00\n      keccak256\n        /* \"contracts/OrderBook.sol\":4930:4966  askBook[askBook[current].next].value */\n      0x01\n      add\n      sload\n        /* \"contracts/OrderBook.sol\":4930:4983  askBook[askBook[current].next].value < newOrder.value */\n      lt\n        /* \"contracts/OrderBook.sol\":4900:4983  askBook[current].next != 0 && askBook[askBook[current].next].value < newOrder.value */\n    tag_257:\n        /* \"contracts/OrderBook.sol\":4893:5049  while (askBook[current].next != 0 && askBook[askBook[current].next].value < newOrder.value) {... */\n      iszero\n      tag_256\n      jumpi\n        /* \"contracts/OrderBook.sol\":5013:5020  askBook */\n      0x06\n        /* \"contracts/OrderBook.sol\":5013:5029  askBook[current] */\n      0x00\n        /* \"contracts/OrderBook.sol\":5021:5028  current */\n      dup3\n        /* \"contracts/OrderBook.sol\":5013:5029  askBook[current] */\n      dup2\n      mstore\n      0x20\n      add\n      swap1\n      dup2\n      mstore\n      0x20\n      add\n      0x00\n      keccak256\n        /* \"contracts/OrderBook.sol\":5013:5034  askBook[current].next */\n      0x05\n      add\n      sload\n        /* \"contracts/OrderBook.sol\":5003:5034  current = askBook[current].next */\n      swap1\n      pop\n        /* \"contracts/OrderBook.sol\":4893:5049  while (askBook[current].next != 0 && askBook[askBook[current].next].value < newOrder.value) {... */\n      jump(tag_255)\n    tag_256:\n        /* \"contracts/OrderBook.sol\":5090:5097  askBook */\n      0x06\n        /* \"contracts/OrderBook.sol\":5090:5106  askBook[current] */\n      0x00\n        /* \"contracts/OrderBook.sol\":5098:5105  current */\n      dup3\n        /* \"contracts/OrderBook.sol\":5090:5106  askBook[current] */\n      dup2\n      mstore\n      0x20\n      add\n      swap1\n      dup2\n      mstore\n      0x20\n      add\n      0x00\n      keccak256\n        /* \"contracts/OrderBook.sol\":5090:5111  askBook[current].next */\n      0x05\n      add\n      sload\n        /* \"contracts/OrderBook.sol\":5062:5069  askBook */\n      0x06\n        /* \"contracts/OrderBook.sol\":5062:5082  askBook[newOrder.id] */\n      0x00\n        /* \"contracts/OrderBook.sol\":5070:5078  newOrder */\n      dup5\n        /* \"contracts/OrderBook.sol\":5070:5081  newOrder.id */\n      0x80\n      add\n      mload\n        /* \"contracts/OrderBook.sol\":5062:5082  askBook[newOrder.id] */\n      dup2\n      mstore\n      0x20\n      add\n      swap1\n      dup2\n      mstore\n      0x20\n      add\n      0x00\n      keccak256\n        /* \"contracts/OrderBook.sol\":5062:5087  askBook[newOrder.id].next */\n      0x05\n      add\n        /* \"contracts/OrderBook.sol\":5062:5111  askBook[newOrder.id].next = askBook[current].next */\n      dup2\n      swap1\n      sstore\n      pop\n        /* \"contracts/OrderBook.sol\":5154:5155  0 */\n      0x00\n        /* \"contracts/OrderBook.sol\":5129:5136  askBook */\n      0x06\n        /* \"contracts/OrderBook.sol\":5129:5145  askBook[current] */\n      0x00\n        /* \"contracts/OrderBook.sol\":5137:5144  current */\n      dup4\n        /* \"contracts/OrderBook.sol\":5129:5145  askBook[current] */\n      dup2\n      mstore\n      0x20\n      add\n      swap1\n      dup2\n      mstore\n      0x20\n      add\n      0x00\n      keccak256\n        /* \"contracts/OrderBook.sol\":5129:5150  askBook[current].next */\n      0x05\n      add\n      sload\n        /* \"contracts/OrderBook.sol\":5129:5155  askBook[current].next != 0 */\n      eq\n        /* \"contracts/OrderBook.sol\":5125:5243  if (askBook[current].next != 0) {... */\n      tag_258\n      jumpi\n        /* \"contracts/OrderBook.sol\":5217:5225  newOrder */\n      dup2\n        /* \"contracts/OrderBook.sol\":5217:5228  newOrder.id */\n      0x80\n      add\n      mload\n        /* \"contracts/OrderBook.sol\":5175:5182  askBook */\n      0x06\n        /* \"contracts/OrderBook.sol\":5175:5209  askBook[askBook[newOrder.id].next] */\n      0x00\n        /* \"contracts/OrderBook.sol\":5183:5190  askBook */\n      0x06\n        /* \"contracts/OrderBook.sol\":5183:5203  askBook[newOrder.id] */\n      0x00\n        /* \"contracts/OrderBook.sol\":5191:5199  newOrder */\n      dup7\n        /* \"contracts/OrderBook.sol\":5191:5202  newOrder.id */\n      0x80\n      add\n      mload\n        /* \"contracts/OrderBook.sol\":5183:5203  askBook[newOrder.id] */\n      dup2\n      mstore\n      0x20\n      add\n      swap1\n      dup2\n      mstore\n      0x20\n      add\n      0x00\n      keccak256\n        /* \"contracts/OrderBook.sol\":5183:5208  askBook[newOrder.id].next */\n      0x05\n      add\n      sload\n        /* \"contracts/OrderBook.sol\":5175:5209  askBook[askBook[newOrder.id].next] */\n      dup2\n      mstore\n      0x20\n      add\n      swap1\n      dup2\n      mstore\n      0x20\n      add\n      0x00\n      keccak256\n        /* \"contracts/OrderBook.sol\":5175:5214  askBook[askBook[newOrder.id].next].prev */\n      0x06\n      add\n        /* \"contracts/OrderBook.sol\":5175:5228  askBook[askBook[newOrder.id].next].prev = newOrder.id */\n      dup2\n      swap1\n      sstore\n      pop\n        /* \"contracts/OrderBook.sol\":5125:5243  if (askBook[current].next != 0) {... */\n    tag_258:\n        /* \"contracts/OrderBook.sol\":5280:5288  newOrder */\n      dup2\n        /* \"contracts/OrderBook.sol\":5280:5291  newOrder.id */\n      0x80\n      add\n      mload\n        /* \"contracts/OrderBook.sol\":5256:5263  askBook */\n      0x06\n        /* \"contracts/OrderBook.sol\":5256:5272  askBook[current] */\n      0x00\n        /* \"contracts/OrderBook.sol\":5264:5271  current */\n      dup4\n        /* \"contracts/OrderBook.sol\":5256:5272  askBook[current] */\n      dup2\n      mstore\n      0x20\n      add\n      swap1\n      dup2\n      mstore\n      0x20\n      add\n      0x00\n      keccak256\n        /* \"contracts/OrderBook.sol\":5256:5277  askBook[current].next */\n      0x05\n      add\n        /* \"contracts/OrderBook.sol\":5256:5291  askBook[current].next = newOrder.id */\n      dup2\n      swap1\n      sstore\n      pop\n        /* \"contracts/OrderBook.sol\":5333:5340  current */\n      dup1\n        /* \"contracts/OrderBook.sol\":5305:5312  askBook */\n      0x06\n        /* \"contracts/OrderBook.sol\":5305:5325  askBook[newOrder.id] */\n      0x00\n        /* \"contracts/OrderBook.sol\":5313:5321  newOrder */\n      dup5\n        /* \"contracts/OrderBook.sol\":5313:5324  newOrder.id */\n      0x80\n      add\n      mload\n        /* \"contracts/OrderBook.sol\":5305:5325  askBook[newOrder.id] */\n      dup2\n      mstore\n      0x20\n      add\n      swap1\n      dup2\n      mstore\n      0x20\n      add\n      0x00\n      keccak256\n        /* \"contracts/OrderBook.sol\":5305:5330  askBook[newOrder.id].prev */\n      0x06\n      add\n        /* \"contracts/OrderBook.sol\":5305:5340  askBook[newOrder.id].prev = current */\n      dup2\n      swap1\n      sstore\n      pop\n        /* \"contracts/OrderBook.sol\":4634:5351  if (askBook[askHead].value >= newOrder.value) {... */\n    tag_254:\n        /* \"contracts/OrderBook.sol\":4564:5351  if (askHead == 0) {... */\n    tag_252:\n        /* \"contracts/OrderBook.sol\":4529:5357  {... */\n      pop\n        /* \"contracts/OrderBook.sol\":4480:5357  function sortAsk(order memory newOrder) internal {... */\n      pop\n      jump\t// out\n        /* \"contracts/OrderBook.sol\":2628:3100  function createBid(address customer, uint256 value, uint256 timestamp) internal returns (order memory) {... */\n    tag_203:\n        /* \"contracts/OrderBook.sol\":2717:2729  order memory */\n      tag_259\n      tag_241\n      jump\t// in\n    tag_259:\n        /* \"contracts/OrderBook.sol\":2741:2749  bidCount */\n      0x05\n      0x00\n        /* \"contracts/OrderBook.sol\":2741:2752  bidCount ++ */\n      dup2\n      sload\n      dup1\n      swap3\n      swap2\n      swap1\n      tag_261\n      swap1\n      tag_217\n      jump\t// in\n    tag_261:\n      swap2\n      swap1\n      pop\n      sstore\n      pop\n        /* \"contracts/OrderBook.sol\":2762:2781  order memory newBid */\n      0x00\n        /* \"contracts/OrderBook.sol\":2784:2951  order(... */\n      mload(0x40)\n      dup1\n      0xe0\n      add\n      0x40\n      mstore\n      dup1\n        /* \"contracts/OrderBook.sol\":2811:2819  customer */\n      dup7\n        /* \"contracts/OrderBook.sol\":2784:2951  order(... */\n      0xffffffffffffffffffffffffffffffffffffffff\n      and\n      dup2\n      mstore\n      0x20\n      add\n        /* \"contracts/OrderBook.sol\":2834:2839  value */\n      dup6\n        /* \"contracts/OrderBook.sol\":2784:2951  order(... */\n      dup2\n      mstore\n      0x20\n      add\n        /* \"contracts/OrderBook.sol\":2853:2862  timestamp */\n      dup5\n        /* \"contracts/OrderBook.sol\":2784:2951  order(... */\n      dup2\n      mstore\n      0x20\n      add\n        /* \"contracts/OrderBook.sol\":2876:2889  State.pending */\n      0x00\n        /* \"contracts/OrderBook.sol\":2784:2951  order(... */\n      0x01\n      dup2\n      gt\n      iszero\n      tag_262\n      jumpi\n      tag_263\n      tag_118\n      jump\t// in\n    tag_263:\n    tag_262:\n      dup2\n      mstore\n      0x20\n      add\n        /* \"contracts/OrderBook.sol\":2903:2911  bidCount */\n      sload(0x05)\n        /* \"contracts/OrderBook.sol\":2784:2951  order(... */\n      dup2\n      mstore\n      0x20\n      add\n        /* \"contracts/OrderBook.sol\":2925:2926  0 */\n      0x00\n        /* \"contracts/OrderBook.sol\":2784:2951  order(... */\n      dup2\n      mstore\n      0x20\n      add\n        /* \"contracts/OrderBook.sol\":2940:2941  0 */\n      0x00\n        /* \"contracts/OrderBook.sol\":2784:2951  order(... */\n      dup2\n      mstore\n      pop\n        /* \"contracts/OrderBook.sol\":2762:2951  order memory newBid = order(... */\n      swap1\n      pop\n        /* \"contracts/OrderBook.sol\":2981:2987  newBid */\n      dup1\n        /* \"contracts/OrderBook.sol\":2961:2968  bidBook */\n      0x03\n        /* \"contracts/OrderBook.sol\":2961:2978  bidBook[bidCount] */\n      0x00\n        /* \"contracts/OrderBook.sol\":2969:2977  bidCount */\n      sload(0x05)\n        /* \"contracts/OrderBook.sol\":2961:2978  bidBook[bidCount] */\n      dup2\n      mstore\n      0x20\n      add\n      swap1\n      dup2\n      mstore\n      0x20\n      add\n      0x00\n      keccak256\n        /* \"contracts/OrderBook.sol\":2961:2987  bidBook[bidCount] = newBid */\n      0x00\n      dup3\n      add\n      mload\n      dup2\n      0x00\n      add\n      exp(0x0100, 0x00)\n      dup2\n      sload\n      dup2\n      0xffffffffffffffffffffffffffffffffffffffff\n      mul\n      not\n      and\n      swap1\n      dup4\n      0xffffffffffffffffffffffffffffffffffffffff\n      and\n      mul\n      or\n      swap1\n      sstore\n      pop\n      0x20\n      dup3\n      add\n      mload\n      dup2\n      0x01\n      add\n      sstore\n      0x40\n      dup3\n      add\n      mload\n      dup2\n      0x02\n      add\n      sstore\n      0x60\n      dup3\n      add\n      mload\n      dup2\n      0x03\n      add\n      exp(0x0100, 0x00)\n      dup2\n      sload\n      dup2\n      0xff\n      mul\n      not\n      and\n      swap1\n      dup4\n      0x01\n      dup2\n      gt\n      iszero\n      tag_264\n      jumpi\n      tag_265\n      tag_118\n      jump\t// in\n    tag_265:\n    tag_264:\n      mul\n      or\n      swap1\n      sstore\n      pop\n      0x80\n      dup3\n      add\n      mload\n      dup2\n      0x04\n      add\n      sstore\n      0xa0\n      dup3\n      add\n      mload\n      dup2\n      0x05\n      add\n      sstore\n      0xc0\n      dup3\n      add\n      mload\n      dup2\n      0x06\n      add\n      sstore\n      swap1\n      pop\n      pop\n        /* \"contracts/OrderBook.sol\":3002:3067  orderCreated(customer,value,timestamp,State.pending,bidCount,0,0) */\n      0xb363d8961e2dcc4e4f9cafac06e22ffe5a3ee9b47f614e483f989b932167e865\n        /* \"contracts/OrderBook.sol\":3015:3023  customer */\n      dup6\n        /* \"contracts/OrderBook.sol\":3024:3029  value */\n      dup6\n        /* \"contracts/OrderBook.sol\":3030:3039  timestamp */\n      dup6\n        /* \"contracts/OrderBook.sol\":3040:3053  State.pending */\n      0x00\n        /* \"contracts/OrderBook.sol\":3054:3062  bidCount */\n      sload(0x05)\n        /* \"contracts/OrderBook.sol\":3063:3064  0 */\n      0x00\n        /* \"contracts/OrderBook.sol\":3065:3066  0 */\n      dup1\n        /* \"contracts/OrderBook.sol\":3002:3067  orderCreated(customer,value,timestamp,State.pending,bidCount,0,0) */\n      mload(0x40)\n      tag_266\n      swap8\n      swap7\n      swap6\n      swap5\n      swap4\n      swap3\n      swap2\n      swap1\n      tag_249\n      jump\t// in\n    tag_266:\n      mload(0x40)\n      dup1\n      swap2\n      sub\n      swap1\n      log1\n        /* \"contracts/OrderBook.sol\":3087:3093  newBid */\n      dup1\n        /* \"contracts/OrderBook.sol\":3080:3093  return newBid */\n      swap2\n      pop\n      pop\n        /* \"contracts/OrderBook.sol\":2628:3100  function createBid(address customer, uint256 value, uint256 timestamp) internal returns (order memory) {... */\n      swap4\n      swap3\n      pop\n      pop\n      pop\n      jump\t// out\n        /* \"contracts/OrderBook.sol\":5385:6262  function sortBid(order memory newOrder) internal {... */\n    tag_205:\n        /* \"contracts/OrderBook.sol\":5444:5459  uint256 current */\n      0x00\n        /* \"contracts/OrderBook.sol\":5484:5485  0 */\n      dup1\n        /* \"contracts/OrderBook.sol\":5473:5480  bidHead */\n      sload(0x04)\n        /* \"contracts/OrderBook.sol\":5473:5485  bidHead == 0 */\n      eq\n        /* \"contracts/OrderBook.sol\":5469:6256  if (bidHead == 0) {... */\n      iszero\n      tag_268\n      jumpi\n        /* \"contracts/OrderBook.sol\":5511:5519  newOrder */\n      dup2\n        /* \"contracts/OrderBook.sol\":5511:5522  newOrder.id */\n      0x80\n      add\n      mload\n        /* \"contracts/OrderBook.sol\":5501:5508  bidHead */\n      0x04\n        /* \"contracts/OrderBook.sol\":5501:5522  bidHead = newOrder.id */\n      dup2\n      swap1\n      sstore\n      pop\n        /* \"contracts/OrderBook.sol\":5469:6256  if (bidHead == 0) {... */\n      jump(tag_269)\n    tag_268:\n        /* \"contracts/OrderBook.sol\":5569:5577  newOrder */\n      dup2\n        /* \"contracts/OrderBook.sol\":5569:5583  newOrder.value */\n      0x20\n      add\n      mload\n        /* \"contracts/OrderBook.sol\":5543:5550  bidBook */\n      0x03\n        /* \"contracts/OrderBook.sol\":5543:5559  bidBook[bidHead] */\n      0x00\n        /* \"contracts/OrderBook.sol\":5551:5558  bidHead */\n      sload(0x04)\n        /* \"contracts/OrderBook.sol\":5543:5559  bidBook[bidHead] */\n      dup2\n      mstore\n      0x20\n      add\n      swap1\n      dup2\n      mstore\n      0x20\n      add\n      0x00\n      keccak256\n        /* \"contracts/OrderBook.sol\":5543:5565  bidBook[bidHead].value */\n      0x01\n      add\n      sload\n        /* \"contracts/OrderBook.sol\":5543:5583  bidBook[bidHead].value <= newOrder.value */\n      gt\n        /* \"contracts/OrderBook.sol\":5539:6256  if (bidBook[bidHead].value <= newOrder.value) {... */\n      tag_270\n      jumpi\n        /* \"contracts/OrderBook.sol\":5627:5634  bidHead */\n      sload(0x04)\n        /* \"contracts/OrderBook.sol\":5599:5606  bidBook */\n      0x03\n        /* \"contracts/OrderBook.sol\":5599:5619  bidBook[newOrder.id] */\n      0x00\n        /* \"contracts/OrderBook.sol\":5607:5615  newOrder */\n      dup5\n        /* \"contracts/OrderBook.sol\":5607:5618  newOrder.id */\n      0x80\n      add\n      mload\n        /* \"contracts/OrderBook.sol\":5599:5619  bidBook[newOrder.id] */\n      dup2\n      mstore\n      0x20\n      add\n      swap1\n      dup2\n      mstore\n      0x20\n      add\n      0x00\n      keccak256\n        /* \"contracts/OrderBook.sol\":5599:5624  bidBook[newOrder.id].next */\n      0x05\n      add\n        /* \"contracts/OrderBook.sol\":5599:5634  bidBook[newOrder.id].next = bidHead */\n      dup2\n      swap1\n      sstore\n      pop\n        /* \"contracts/OrderBook.sol\":5690:5698  newOrder */\n      dup2\n        /* \"contracts/OrderBook.sol\":5690:5701  newOrder.id */\n      0x80\n      add\n      mload\n        /* \"contracts/OrderBook.sol\":5648:5655  bidBook */\n      0x03\n        /* \"contracts/OrderBook.sol\":5648:5682  bidBook[bidBook[newOrder.id].next] */\n      0x00\n        /* \"contracts/OrderBook.sol\":5656:5663  bidBook */\n      0x03\n        /* \"contracts/OrderBook.sol\":5656:5676  bidBook[newOrder.id] */\n      0x00\n        /* \"contracts/OrderBook.sol\":5664:5672  newOrder */\n      dup7\n        /* \"contracts/OrderBook.sol\":5664:5675  newOrder.id */\n      0x80\n      add\n      mload\n        /* \"contracts/OrderBook.sol\":5656:5676  bidBook[newOrder.id] */\n      dup2\n      mstore\n      0x20\n      add\n      swap1\n      dup2\n      mstore\n      0x20\n      add\n      0x00\n      keccak256\n        /* \"contracts/OrderBook.sol\":5656:5681  bidBook[newOrder.id].next */\n      0x05\n      add\n      sload\n        /* \"contracts/OrderBook.sol\":5648:5682  bidBook[bidBook[newOrder.id].next] */\n      dup2\n      mstore\n      0x20\n      add\n      swap1\n      dup2\n      mstore\n      0x20\n      add\n      0x00\n      keccak256\n        /* \"contracts/OrderBook.sol\":5648:5687  bidBook[bidBook[newOrder.id].next].prev */\n      0x06\n      add\n        /* \"contracts/OrderBook.sol\":5648:5701  bidBook[bidBook[newOrder.id].next].prev = newOrder.id */\n      dup2\n      swap1\n      sstore\n      pop\n        /* \"contracts/OrderBook.sol\":5725:5733  newOrder */\n      dup2\n        /* \"contracts/OrderBook.sol\":5725:5736  newOrder.id */\n      0x80\n      add\n      mload\n        /* \"contracts/OrderBook.sol\":5715:5722  bidHead */\n      0x04\n        /* \"contracts/OrderBook.sol\":5715:5736  bidHead = newOrder.id */\n      dup2\n      swap1\n      sstore\n      pop\n        /* \"contracts/OrderBook.sol\":5539:6256  if (bidBook[bidHead].value <= newOrder.value) {... */\n      jump(tag_271)\n    tag_270:\n        /* \"contracts/OrderBook.sol\":5777:5784  bidHead */\n      sload(0x04)\n        /* \"contracts/OrderBook.sol\":5767:5784  current = bidHead */\n      swap1\n      pop\n        /* \"contracts/OrderBook.sol\":5798:5954  while (bidBook[current].next != 0 && bidBook[bidBook[current].next].value > newOrder.value) {... */\n    tag_272:\n        /* \"contracts/OrderBook.sol\":5830:5831  0 */\n      0x00\n        /* \"contracts/OrderBook.sol\":5805:5812  bidBook */\n      0x03\n        /* \"contracts/OrderBook.sol\":5805:5821  bidBook[current] */\n      0x00\n        /* \"contracts/OrderBook.sol\":5813:5820  current */\n      dup4\n        /* \"contracts/OrderBook.sol\":5805:5821  bidBook[current] */\n      dup2\n      mstore\n      0x20\n      add\n      swap1\n      dup2\n      mstore\n      0x20\n      add\n      0x00\n      keccak256\n        /* \"contracts/OrderBook.sol\":5805:5826  bidBook[current].next */\n      0x05\n      add\n      sload\n        /* \"contracts/OrderBook.sol\":5805:5831  bidBook[current].next != 0 */\n      eq\n      iszero\n        /* \"contracts/OrderBook.sol\":5805:5888  bidBook[current].next != 0 && bidBook[bidBook[current].next].value > newOrder.value */\n      dup1\n      iszero\n      tag_274\n      jumpi\n      pop\n        /* \"contracts/OrderBook.sol\":5874:5882  newOrder */\n      dup2\n        /* \"contracts/OrderBook.sol\":5874:5888  newOrder.value */\n      0x20\n      add\n      mload\n        /* \"contracts/OrderBook.sol\":5835:5842  bidBook */\n      0x03\n        /* \"contracts/OrderBook.sol\":5835:5865  bidBook[bidBook[current].next] */\n      0x00\n        /* \"contracts/OrderBook.sol\":5843:5850  bidBook */\n      0x03\n        /* \"contracts/OrderBook.sol\":5843:5859  bidBook[current] */\n      0x00\n        /* \"contracts/OrderBook.sol\":5851:5858  current */\n      dup6\n        /* \"contracts/OrderBook.sol\":5843:5859  bidBook[current] */\n      dup2\n      mstore\n      0x20\n      add\n      swap1\n      dup2\n      mstore\n      0x20\n      add\n      0x00\n      keccak256\n        /* \"contracts/OrderBook.sol\":5843:5864  bidBook[current].next */\n      0x05\n      add\n      sload\n        /* \"contracts/OrderBook.sol\":5835:5865  bidBook[bidBook[current].next] */\n      dup2\n      mstore\n      0x20\n      add\n      swap1\n      dup2\n      mstore\n      0x20\n      add\n      0x00\n      keccak256\n        /* \"contracts/OrderBook.sol\":5835:5871  bidBook[bidBook[current].next].value */\n      0x01\n      add\n      sload\n        /* \"contracts/OrderBook.sol\":5835:5888  bidBook[bidBook[current].next].value > newOrder.value */\n      gt\n        /* \"contracts/OrderBook.sol\":5805:5888  bidBook[current].next != 0 && bidBook[bidBook[current].next].value > newOrder.value */\n    tag_274:\n        /* \"contracts/OrderBook.sol\":5798:5954  while (bidBook[current].next != 0 && bidBook[bidBook[current].next].value > newOrder.value) {... */\n      iszero\n      tag_273\n      jumpi\n        /* \"contracts/OrderBook.sol\":5918:5925  bidBook */\n      0x03\n        /* \"contracts/OrderBook.sol\":5918:5934  bidBook[current] */\n      0x00\n        /* \"contracts/OrderBook.sol\":5926:5933  current */\n      dup3\n        /* \"contracts/OrderBook.sol\":5918:5934  bidBook[current] */\n      dup2\n      mstore\n      0x20\n      add\n      swap1\n      dup2\n      mstore\n      0x20\n      add\n      0x00\n      keccak256\n        /* \"contracts/OrderBook.sol\":5918:5939  bidBook[current].next */\n      0x05\n      add\n      sload\n        /* \"contracts/OrderBook.sol\":5908:5939  current = bidBook[current].next */\n      swap1\n      pop\n        /* \"contracts/OrderBook.sol\":5798:5954  while (bidBook[current].next != 0 && bidBook[bidBook[current].next].value > newOrder.value) {... */\n      jump(tag_272)\n    tag_273:\n        /* \"contracts/OrderBook.sol\":5995:6002  bidBook */\n      0x03\n        /* \"contracts/OrderBook.sol\":5995:6011  bidBook[current] */\n      0x00\n        /* \"contracts/OrderBook.sol\":6003:6010  current */\n      dup3\n        /* \"contracts/OrderBook.sol\":5995:6011  bidBook[current] */\n      dup2\n      mstore\n      0x20\n      add\n      swap1\n      dup2\n      mstore\n      0x20\n      add\n      0x00\n      keccak256\n        /* \"contracts/OrderBook.sol\":5995:6016  bidBook[current].next */\n      0x05\n      add\n      sload\n        /* \"contracts/OrderBook.sol\":5967:5974  bidBook */\n      0x03\n        /* \"contracts/OrderBook.sol\":5967:5987  bidBook[newOrder.id] */\n      0x00\n        /* \"contracts/OrderBook.sol\":5975:5983  newOrder */\n      dup5\n        /* \"contracts/OrderBook.sol\":5975:5986  newOrder.id */\n      0x80\n      add\n      mload\n        /* \"contracts/OrderBook.sol\":5967:5987  bidBook[newOrder.id] */\n      dup2\n      mstore\n      0x20\n      add\n      swap1\n      dup2\n      mstore\n      0x20\n      add\n      0x00\n      keccak256\n        /* \"contracts/OrderBook.sol\":5967:5992  bidBook[newOrder.id].next */\n      0x05\n      add\n        /* \"contracts/OrderBook.sol\":5967:6016  bidBook[newOrder.id].next = bidBook[current].next */\n      dup2\n      swap1\n      sstore\n      pop\n        /* \"contracts/OrderBook.sol\":6059:6060  0 */\n      0x00\n        /* \"contracts/OrderBook.sol\":6034:6041  bidBook */\n      0x03\n        /* \"contracts/OrderBook.sol\":6034:6050  bidBook[current] */\n      0x00\n        /* \"contracts/OrderBook.sol\":6042:6049  current */\n      dup4\n        /* \"contracts/OrderBook.sol\":6034:6050  bidBook[current] */\n      dup2\n      mstore\n      0x20\n      add\n      swap1\n      dup2\n      mstore\n      0x20\n      add\n      0x00\n      keccak256\n        /* \"contracts/OrderBook.sol\":6034:6055  bidBook[current].next */\n      0x05\n      add\n      sload\n        /* \"contracts/OrderBook.sol\":6034:6060  bidBook[current].next != 0 */\n      eq\n        /* \"contracts/OrderBook.sol\":6030:6148  if (bidBook[current].next != 0) {... */\n      tag_275\n      jumpi\n        /* \"contracts/OrderBook.sol\":6122:6130  newOrder */\n      dup2\n        /* \"contracts/OrderBook.sol\":6122:6133  newOrder.id */\n      0x80\n      add\n      mload\n        /* \"contracts/OrderBook.sol\":6080:6087  bidBook */\n      0x03\n        /* \"contracts/OrderBook.sol\":6080:6114  bidBook[bidBook[newOrder.id].next] */\n      0x00\n        /* \"contracts/OrderBook.sol\":6088:6095  bidBook */\n      0x03\n        /* \"contracts/OrderBook.sol\":6088:6108  bidBook[newOrder.id] */\n      0x00\n        /* \"contracts/OrderBook.sol\":6096:6104  newOrder */\n      dup7\n        /* \"contracts/OrderBook.sol\":6096:6107  newOrder.id */\n      0x80\n      add\n      mload\n        /* \"contracts/OrderBook.sol\":6088:6108  bidBook[newOrder.id] */\n      dup2\n      mstore\n      0x20\n      add\n      swap1\n      dup2\n      mstore\n      0x20\n      add\n      0x00\n      keccak256\n        /* \"contracts/OrderBook.sol\":6088:6113  bidBook[newOrder.id].next */\n      0x05\n      add\n      sload\n        /* \"contracts/OrderBook.sol\":6080:6114  bidBook[bidBook[newOrder.id].next] */\n      dup2\n      mstore\n      0x20\n      add\n      swap1\n      dup2\n      mstore\n      0x20\n      add\n      0x00\n      keccak256\n        /* \"contracts/OrderBook.sol\":6080:6119  bidBook[bidBook[newOrder.id].next].prev */\n      0x06\n      add\n        /* \"contracts/OrderBook.sol\":6080:6133  bidBook[bidBook[newOrder.id].next].prev = newOrder.id */\n      dup2\n      swap1\n      sstore\n      pop\n        /* \"contracts/OrderBook.sol\":6030:6148  if (bidBook[current].next != 0) {... */\n    tag_275:\n        /* \"contracts/OrderBook.sol\":6185:6193  newOrder */\n      dup2\n        /* \"contracts/OrderBook.sol\":6185:6196  newOrder.id */\n      0x80\n      add\n      mload\n        /* \"contracts/OrderBook.sol\":6161:6168  bidBook */\n      0x03\n        /* \"contracts/OrderBook.sol\":6161:6177  bidBook[current] */\n      0x00\n        /* \"contracts/OrderBook.sol\":6169:6176  current */\n      dup4\n        /* \"contracts/OrderBook.sol\":6161:6177  bidBook[current] */\n      dup2\n      mstore\n      0x20\n      add\n      swap1\n      dup2\n      mstore\n      0x20\n      add\n      0x00\n      keccak256\n        /* \"contracts/OrderBook.sol\":6161:6182  bidBook[current].next */\n      0x05\n      add\n        /* \"contracts/OrderBook.sol\":6161:6196  bidBook[current].next = newOrder.id */\n      dup2\n      swap1\n      sstore\n      pop\n        /* \"contracts/OrderBook.sol\":6238:6245  current */\n      dup1\n        /* \"contracts/OrderBook.sol\":6210:6217  bidBook */\n      0x03\n        /* \"contracts/OrderBook.sol\":6210:6230  bidBook[newOrder.id] */\n      0x00\n        /* \"contracts/OrderBook.sol\":6218:6226  newOrder */\n      dup5\n        /* \"contracts/OrderBook.sol\":6218:6229  newOrder.id */\n      0x80\n      add\n      mload\n        /* \"contracts/OrderBook.sol\":6210:6230  bidBook[newOrder.id] */\n      dup2\n      mstore\n      0x20\n      add\n      swap1\n      dup2\n      mstore\n      0x20\n      add\n      0x00\n      keccak256\n        /* \"contracts/OrderBook.sol\":6210:6235  bidBook[newOrder.id].prev */\n      0x06\n      add\n        /* \"contracts/OrderBook.sol\":6210:6245  bidBook[newOrder.id].prev = current */\n      dup2\n      swap1\n      sstore\n      pop\n        /* \"contracts/OrderBook.sol\":5539:6256  if (bidBook[bidHead].value <= newOrder.value) {... */\n    tag_271:\n        /* \"contracts/OrderBook.sol\":5469:6256  if (bidHead == 0) {... */\n    tag_269:\n        /* \"contracts/OrderBook.sol\":5434:6262  {... */\n      pop\n        /* \"contracts/OrderBook.sol\":5385:6262  function sortBid(order memory newOrder) internal {... */\n      pop\n      jump\t// out\n    tag_241:\n      mload(0x40)\n      dup1\n      0xe0\n      add\n      0x40\n      mstore\n      dup1\n      and(0xffffffffffffffffffffffffffffffffffffffff, 0x00)\n      dup2\n      mstore\n      0x20\n      add\n      0x00\n      dup2\n      mstore\n      0x20\n      add\n      0x00\n      dup2\n      mstore\n      0x20\n      add\n      0x00\n      0x01\n      dup2\n      gt\n      iszero\n      tag_276\n      jumpi\n      tag_277\n      tag_118\n      jump\t// in\n    tag_277:\n    tag_276:\n      dup2\n      mstore\n      0x20\n      add\n      0x00\n      dup2\n      mstore\n      0x20\n      add\n      0x00\n      dup2\n      mstore\n      0x20\n      add\n      0x00\n      dup2\n      mstore\n      pop\n      swap1\n      jump\t// out\n        /* \"#utility.yul\":7:419   */\n    tag_279:\n        /* \"#utility.yul\":85:90   */\n      0x00\n        /* \"#utility.yul\":110:176   */\n      tag_281\n        /* \"#utility.yul\":126:175   */\n      tag_282\n        /* \"#utility.yul\":168:174   */\n      dup5\n        /* \"#utility.yul\":126:175   */\n      tag_283\n      jump\t// in\n    tag_282:\n        /* \"#utility.yul\":110:176   */\n      tag_284\n      jump\t// in\n    tag_281:\n        /* \"#utility.yul\":101:176   */\n      swap1\n      pop\n        /* \"#utility.yul\":199:205   */\n      dup3\n        /* \"#utility.yul\":192:197   */\n      dup2\n        /* \"#utility.yul\":185:206   */\n      mstore\n        /* \"#utility.yul\":237:241   */\n      0x20\n        /* \"#utility.yul\":230:235   */\n      dup2\n        /* \"#utility.yul\":226:242   */\n      add\n        /* \"#utility.yul\":275:278   */\n      dup5\n        /* \"#utility.yul\":266:272   */\n      dup5\n        /* \"#utility.yul\":261:264   */\n      dup5\n        /* \"#utility.yul\":257:273   */\n      add\n        /* \"#utility.yul\":254:279   */\n      gt\n        /* \"#utility.yul\":251:363   */\n      iszero\n      tag_285\n      jumpi\n        /* \"#utility.yul\":282:361   */\n      tag_286\n      tag_287\n      jump\t// in\n    tag_286:\n        /* \"#utility.yul\":251:363   */\n    tag_285:\n        /* \"#utility.yul\":372:413   */\n      tag_288\n        /* \"#utility.yul\":406:412   */\n      dup5\n        /* \"#utility.yul\":401:404   */\n      dup3\n        /* \"#utility.yul\":396:399   */\n      dup6\n        /* \"#utility.yul\":372:413   */\n      tag_289\n      jump\t// in\n    tag_288:\n        /* \"#utility.yul\":91:419   */\n      pop\n        /* \"#utility.yul\":7:419   */\n      swap4\n      swap3\n      pop\n      pop\n      pop\n      jump\t// out\n        /* \"#utility.yul\":439:779   */\n    tag_290:\n        /* \"#utility.yul\":495:500   */\n      0x00\n        /* \"#utility.yul\":544:547   */\n      dup3\n        /* \"#utility.yul\":537:541   */\n      0x1f\n        /* \"#utility.yul\":529:535   */\n      dup4\n        /* \"#utility.yul\":525:542   */\n      add\n        /* \"#utility.yul\":521:548   */\n      slt\n        /* \"#utility.yul\":511:633   */\n      tag_292\n      jumpi\n        /* \"#utility.yul\":552:631   */\n      tag_293\n      tag_294\n      jump\t// in\n    tag_293:\n        /* \"#utility.yul\":511:633   */\n    tag_292:\n        /* \"#utility.yul\":669:675   */\n      dup2\n        /* \"#utility.yul\":656:676   */\n      calldataload\n        /* \"#utility.yul\":694:773   */\n      tag_295\n        /* \"#utility.yul\":769:772   */\n      dup5\n        /* \"#utility.yul\":761:767   */\n      dup3\n        /* \"#utility.yul\":754:758   */\n      0x20\n        /* \"#utility.yul\":746:752   */\n      dup7\n        /* \"#utility.yul\":742:759   */\n      add\n        /* \"#utility.yul\":694:773   */\n      tag_279\n      jump\t// in\n    tag_295:\n        /* \"#utility.yul\":685:773   */\n      swap2\n      pop\n        /* \"#utility.yul\":501:779   */\n      pop\n        /* \"#utility.yul\":439:779   */\n      swap3\n      swap2\n      pop\n      pop\n      jump\t// out\n        /* \"#utility.yul\":785:924   */\n    tag_296:\n        /* \"#utility.yul\":831:836   */\n      0x00\n        /* \"#utility.yul\":869:875   */\n      dup2\n        /* \"#utility.yul\":856:876   */\n      calldataload\n        /* \"#utility.yul\":847:876   */\n      swap1\n      pop\n        /* \"#utility.yul\":885:918   */\n      tag_298\n        /* \"#utility.yul\":912:917   */\n      dup2\n        /* \"#utility.yul\":885:918   */\n      tag_299\n      jump\t// in\n    tag_298:\n        /* \"#utility.yul\":785:924   */\n      swap3\n      swap2\n      pop\n      pop\n      jump\t// out\n        /* \"#utility.yul\":930:1764   */\n    tag_36:\n        /* \"#utility.yul\":1018:1024   */\n      0x00\n        /* \"#utility.yul\":1026:1032   */\n      dup1\n        /* \"#utility.yul\":1075:1077   */\n      0x40\n        /* \"#utility.yul\":1063:1072   */\n      dup4\n        /* \"#utility.yul\":1054:1061   */\n      dup6\n        /* \"#utility.yul\":1050:1073   */\n      sub\n        /* \"#utility.yul\":1046:1078   */\n      slt\n        /* \"#utility.yul\":1043:1162   */\n      iszero\n      tag_301\n      jumpi\n        /* \"#utility.yul\":1081:1160   */\n      tag_302\n      tag_303\n      jump\t// in\n    tag_302:\n        /* \"#utility.yul\":1043:1162   */\n    tag_301:\n        /* \"#utility.yul\":1229:1230   */\n      0x00\n        /* \"#utility.yul\":1218:1227   */\n      dup4\n        /* \"#utility.yul\":1214:1231   */\n      add\n        /* \"#utility.yul\":1201:1232   */\n      calldataload\n        /* \"#utility.yul\":1259:1277   */\n      0xffffffffffffffff\n        /* \"#utility.yul\":1251:1257   */\n      dup2\n        /* \"#utility.yul\":1248:1278   */\n      gt\n        /* \"#utility.yul\":1245:1362   */\n      iszero\n      tag_304\n      jumpi\n        /* \"#utility.yul\":1281:1360   */\n      tag_305\n      tag_306\n      jump\t// in\n    tag_305:\n        /* \"#utility.yul\":1245:1362   */\n    tag_304:\n        /* \"#utility.yul\":1386:1449   */\n      tag_307\n        /* \"#utility.yul\":1441:1448   */\n      dup6\n        /* \"#utility.yul\":1432:1438   */\n      dup3\n        /* \"#utility.yul\":1421:1430   */\n      dup7\n        /* \"#utility.yul\":1417:1439   */\n      add\n        /* \"#utility.yul\":1386:1449   */\n      tag_290\n      jump\t// in\n    tag_307:\n        /* \"#utility.yul\":1376:1449   */\n      swap3\n      pop\n        /* \"#utility.yul\":1172:1459   */\n      pop\n        /* \"#utility.yul\":1526:1528   */\n      0x20\n        /* \"#utility.yul\":1515:1524   */\n      dup4\n        /* \"#utility.yul\":1511:1529   */\n      add\n        /* \"#utility.yul\":1498:1530   */\n      calldataload\n        /* \"#utility.yul\":1557:1575   */\n      0xffffffffffffffff\n        /* \"#utility.yul\":1549:1555   */\n      dup2\n        /* \"#utility.yul\":1546:1576   */\n      gt\n        /* \"#utility.yul\":1543:1660   */\n      iszero\n      tag_308\n      jumpi\n        /* \"#utility.yul\":1579:1658   */\n      tag_309\n      tag_306\n      jump\t// in\n    tag_309:\n        /* \"#utility.yul\":1543:1660   */\n    tag_308:\n        /* \"#utility.yul\":1684:1747   */\n      tag_310\n        /* \"#utility.yul\":1739:1746   */\n      dup6\n        /* \"#utility.yul\":1730:1736   */\n      dup3\n        /* \"#utility.yul\":1719:1728   */\n      dup7\n        /* \"#utility.yul\":1715:1737   */\n      add\n        /* \"#utility.yul\":1684:1747   */\n      tag_290\n      jump\t// in\n    tag_310:\n        /* \"#utility.yul\":1674:1747   */\n      swap2\n      pop\n        /* \"#utility.yul\":1469:1757   */\n      pop\n        /* \"#utility.yul\":930:1764   */\n      swap3\n      pop\n      swap3\n      swap1\n      pop\n      jump\t// out\n        /* \"#utility.yul\":1770:2099   */\n    tag_31:\n        /* \"#utility.yul\":1829:1835   */\n      0x00\n        /* \"#utility.yul\":1878:1880   */\n      0x20\n        /* \"#utility.yul\":1866:1875   */\n      dup3\n        /* \"#utility.yul\":1857:1864   */\n      dup5\n        /* \"#utility.yul\":1853:1876   */\n      sub\n        /* \"#utility.yul\":1849:1881   */\n      slt\n        /* \"#utility.yul\":1846:1965   */\n      iszero\n      tag_312\n      jumpi\n        /* \"#utility.yul\":1884:1963   */\n      tag_313\n      tag_303\n      jump\t// in\n    tag_313:\n        /* \"#utility.yul\":1846:1965   */\n    tag_312:\n        /* \"#utility.yul\":2004:2005   */\n      0x00\n        /* \"#utility.yul\":2029:2082   */\n      tag_314\n        /* \"#utility.yul\":2074:2081   */\n      dup5\n        /* \"#utility.yul\":2065:2071   */\n      dup3\n        /* \"#utility.yul\":2054:2063   */\n      dup6\n        /* \"#utility.yul\":2050:2072   */\n      add\n        /* \"#utility.yul\":2029:2082   */\n      tag_296\n      jump\t// in\n    tag_314:\n        /* \"#utility.yul\":2019:2082   */\n      swap2\n      pop\n        /* \"#utility.yul\":1975:2092   */\n      pop\n        /* \"#utility.yul\":1770:2099   */\n      swap3\n      swap2\n      pop\n      pop\n      jump\t// out\n        /* \"#utility.yul\":2105:2223   */\n    tag_315:\n        /* \"#utility.yul\":2192:2216   */\n      tag_317\n        /* \"#utility.yul\":2210:2215   */\n      dup2\n        /* \"#utility.yul\":2192:2216   */\n      tag_318\n      jump\t// in\n    tag_317:\n        /* \"#utility.yul\":2187:2190   */\n      dup3\n        /* \"#utility.yul\":2180:2217   */\n      mstore\n        /* \"#utility.yul\":2105:2223   */\n      pop\n      pop\n      jump\t// out\n        /* \"#utility.yul\":2229:2370   */\n    tag_319:\n        /* \"#utility.yul\":2321:2363   */\n      tag_321\n        /* \"#utility.yul\":2357:2362   */\n      dup2\n        /* \"#utility.yul\":2321:2363   */\n      tag_322\n      jump\t// in\n    tag_321:\n        /* \"#utility.yul\":2316:2319   */\n      dup3\n        /* \"#utility.yul\":2309:2364   */\n      mstore\n        /* \"#utility.yul\":2229:2370   */\n      pop\n      pop\n      jump\t// out\n        /* \"#utility.yul\":2376:2523   */\n    tag_323:\n        /* \"#utility.yul\":2471:2516   */\n      tag_325\n        /* \"#utility.yul\":2510:2515   */\n      dup2\n        /* \"#utility.yul\":2471:2516   */\n      tag_326\n      jump\t// in\n    tag_325:\n        /* \"#utility.yul\":2466:2469   */\n      dup3\n        /* \"#utility.yul\":2459:2517   */\n      mstore\n        /* \"#utility.yul\":2376:2523   */\n      pop\n      pop\n      jump\t// out\n        /* \"#utility.yul\":2529:2893   */\n    tag_327:\n        /* \"#utility.yul\":2617:2620   */\n      0x00\n        /* \"#utility.yul\":2645:2684   */\n      tag_329\n        /* \"#utility.yul\":2678:2683   */\n      dup3\n        /* \"#utility.yul\":2645:2684   */\n      tag_330\n      jump\t// in\n    tag_329:\n        /* \"#utility.yul\":2700:2771   */\n      tag_331\n        /* \"#utility.yul\":2764:2770   */\n      dup2\n        /* \"#utility.yul\":2759:2762   */\n      dup6\n        /* \"#utility.yul\":2700:2771   */\n      tag_332\n      jump\t// in\n    tag_331:\n        /* \"#utility.yul\":2693:2771   */\n      swap4\n      pop\n        /* \"#utility.yul\":2780:2832   */\n      tag_333\n        /* \"#utility.yul\":2825:2831   */\n      dup2\n        /* \"#utility.yul\":2820:2823   */\n      dup6\n        /* \"#utility.yul\":2813:2817   */\n      0x20\n        /* \"#utility.yul\":2806:2811   */\n      dup7\n        /* \"#utility.yul\":2802:2818   */\n      add\n        /* \"#utility.yul\":2780:2832   */\n      tag_334\n      jump\t// in\n    tag_333:\n        /* \"#utility.yul\":2857:2886   */\n      tag_335\n        /* \"#utility.yul\":2879:2885   */\n      dup2\n        /* \"#utility.yul\":2857:2886   */\n      tag_336\n      jump\t// in\n    tag_335:\n        /* \"#utility.yul\":2852:2855   */\n      dup5\n        /* \"#utility.yul\":2848:2887   */\n      add\n        /* \"#utility.yul\":2841:2887   */\n      swap2\n      pop\n        /* \"#utility.yul\":2621:2893   */\n      pop\n        /* \"#utility.yul\":2529:2893   */\n      swap3\n      swap2\n      pop\n      pop\n      jump\t// out\n        /* \"#utility.yul\":2899:3276   */\n    tag_337:\n        /* \"#utility.yul\":3005:3008   */\n      0x00\n        /* \"#utility.yul\":3033:3072   */\n      tag_339\n        /* \"#utility.yul\":3066:3071   */\n      dup3\n        /* \"#utility.yul\":3033:3072   */\n      tag_330\n      jump\t// in\n    tag_339:\n        /* \"#utility.yul\":3088:3177   */\n      tag_340\n        /* \"#utility.yul\":3170:3176   */\n      dup2\n        /* \"#utility.yul\":3165:3168   */\n      dup6\n        /* \"#utility.yul\":3088:3177   */\n      tag_341\n      jump\t// in\n    tag_340:\n        /* \"#utility.yul\":3081:3177   */\n      swap4\n      pop\n        /* \"#utility.yul\":3186:3238   */\n      tag_342\n        /* \"#utility.yul\":3231:3237   */\n      dup2\n        /* \"#utility.yul\":3226:3229   */\n      dup6\n        /* \"#utility.yul\":3219:3223   */\n      0x20\n        /* \"#utility.yul\":3212:3217   */\n      dup7\n        /* \"#utility.yul\":3208:3224   */\n      add\n        /* \"#utility.yul\":3186:3238   */\n      tag_334\n      jump\t// in\n    tag_342:\n        /* \"#utility.yul\":3263:3269   */\n      dup1\n        /* \"#utility.yul\":3258:3261   */\n      dup5\n        /* \"#utility.yul\":3254:3270   */\n      add\n        /* \"#utility.yul\":3247:3270   */\n      swap2\n      pop\n        /* \"#utility.yul\":3009:3276   */\n      pop\n        /* \"#utility.yul\":2899:3276   */\n      swap3\n      swap2\n      pop\n      pop\n      jump\t// out\n        /* \"#utility.yul\":3282:3648   */\n    tag_343:\n        /* \"#utility.yul\":3424:3427   */\n      0x00\n        /* \"#utility.yul\":3445:3512   */\n      tag_345\n        /* \"#utility.yul\":3509:3511   */\n      0x0e\n        /* \"#utility.yul\":3504:3507   */\n      dup4\n        /* \"#utility.yul\":3445:3512   */\n      tag_332\n      jump\t// in\n    tag_345:\n        /* \"#utility.yul\":3438:3512   */\n      swap2\n      pop\n        /* \"#utility.yul\":3521:3614   */\n      tag_346\n        /* \"#utility.yul\":3610:3613   */\n      dup3\n        /* \"#utility.yul\":3521:3614   */\n      tag_347\n      jump\t// in\n    tag_346:\n        /* \"#utility.yul\":3639:3641   */\n      0x20\n        /* \"#utility.yul\":3634:3637   */\n      dup3\n        /* \"#utility.yul\":3630:3642   */\n      add\n        /* \"#utility.yul\":3623:3642   */\n      swap1\n      pop\n        /* \"#utility.yul\":3282:3648   */\n      swap2\n      swap1\n      pop\n      jump\t// out\n        /* \"#utility.yul\":3654:4020   */\n    tag_348:\n        /* \"#utility.yul\":3796:3799   */\n      0x00\n        /* \"#utility.yul\":3817:3884   */\n      tag_350\n        /* \"#utility.yul\":3881:3883   */\n      0x0d\n        /* \"#utility.yul\":3876:3879   */\n      dup4\n        /* \"#utility.yul\":3817:3884   */\n      tag_332\n      jump\t// in\n    tag_350:\n        /* \"#utility.yul\":3810:3884   */\n      swap2\n      pop\n        /* \"#utility.yul\":3893:3986   */\n      tag_351\n        /* \"#utility.yul\":3982:3985   */\n      dup3\n        /* \"#utility.yul\":3893:3986   */\n      tag_352\n      jump\t// in\n    tag_351:\n        /* \"#utility.yul\":4011:4013   */\n      0x20\n        /* \"#utility.yul\":4006:4009   */\n      dup3\n        /* \"#utility.yul\":4002:4014   */\n      add\n        /* \"#utility.yul\":3995:4014   */\n      swap1\n      pop\n        /* \"#utility.yul\":3654:4020   */\n      swap2\n      swap1\n      pop\n      jump\t// out\n        /* \"#utility.yul\":4026:4426   */\n    tag_353:\n        /* \"#utility.yul\":4186:4189   */\n      0x00\n        /* \"#utility.yul\":4207:4291   */\n      tag_355\n        /* \"#utility.yul\":4289:4290   */\n      0x01\n        /* \"#utility.yul\":4284:4287   */\n      dup4\n        /* \"#utility.yul\":4207:4291   */\n      tag_341\n      jump\t// in\n    tag_355:\n        /* \"#utility.yul\":4200:4291   */\n      swap2\n      pop\n        /* \"#utility.yul\":4300:4393   */\n      tag_356\n        /* \"#utility.yul\":4389:4392   */\n      dup3\n        /* \"#utility.yul\":4300:4393   */\n      tag_357\n      jump\t// in\n    tag_356:\n        /* \"#utility.yul\":4418:4419   */\n      0x01\n        /* \"#utility.yul\":4413:4416   */\n      dup3\n        /* \"#utility.yul\":4409:4420   */\n      add\n        /* \"#utility.yul\":4402:4420   */\n      swap1\n      pop\n        /* \"#utility.yul\":4026:4426   */\n      swap2\n      swap1\n      pop\n      jump\t// out\n        /* \"#utility.yul\":4432:4798   */\n    tag_358:\n        /* \"#utility.yul\":4574:4577   */\n      0x00\n        /* \"#utility.yul\":4595:4662   */\n      tag_360\n        /* \"#utility.yul\":4659:4661   */\n      0x1e\n        /* \"#utility.yul\":4654:4657   */\n      dup4\n        /* \"#utility.yul\":4595:4662   */\n      tag_332\n      jump\t// in\n    tag_360:\n        /* \"#utility.yul\":4588:4662   */\n      swap2\n      pop\n        /* \"#utility.yul\":4671:4764   */\n      tag_361\n        /* \"#utility.yul\":4760:4763   */\n      dup3\n        /* \"#utility.yul\":4671:4764   */\n      tag_362\n      jump\t// in\n    tag_361:\n        /* \"#utility.yul\":4789:4791   */\n      0x20\n        /* \"#utility.yul\":4784:4787   */\n      dup3\n        /* \"#utility.yul\":4780:4792   */\n      add\n        /* \"#utility.yul\":4773:4792   */\n      swap1\n      pop\n        /* \"#utility.yul\":4432:4798   */\n      swap2\n      swap1\n      pop\n      jump\t// out\n        /* \"#utility.yul\":4804:5170   */\n    tag_363:\n        /* \"#utility.yul\":4946:4949   */\n      0x00\n        /* \"#utility.yul\":4967:5034   */\n      tag_365\n        /* \"#utility.yul\":5031:5033   */\n      0x1f\n        /* \"#utility.yul\":5026:5029   */\n      dup4\n        /* \"#utility.yul\":4967:5034   */\n      tag_332\n      jump\t// in\n    tag_365:\n        /* \"#utility.yul\":4960:5034   */\n      swap2\n      pop\n        /* \"#utility.yul\":5043:5136   */\n      tag_366\n        /* \"#utility.yul\":5132:5135   */\n      dup3\n        /* \"#utility.yul\":5043:5136   */\n      tag_367\n      jump\t// in\n    tag_366:\n        /* \"#utility.yul\":5161:5163   */\n      0x20\n        /* \"#utility.yul\":5156:5159   */\n      dup3\n        /* \"#utility.yul\":5152:5164   */\n      add\n        /* \"#utility.yul\":5145:5164   */\n      swap1\n      pop\n        /* \"#utility.yul\":4804:5170   */\n      swap2\n      swap1\n      pop\n      jump\t// out\n        /* \"#utility.yul\":5176:5542   */\n    tag_368:\n        /* \"#utility.yul\":5318:5321   */\n      0x00\n        /* \"#utility.yul\":5339:5406   */\n      tag_370\n        /* \"#utility.yul\":5403:5405   */\n      0x1e\n        /* \"#utility.yul\":5398:5401   */\n      dup4\n        /* \"#utility.yul\":5339:5406   */\n      tag_332\n      jump\t// in\n    tag_370:\n        /* \"#utility.yul\":5332:5406   */\n      swap2\n      pop\n        /* \"#utility.yul\":5415:5508   */\n      tag_371\n        /* \"#utility.yul\":5504:5507   */\n      dup3\n        /* \"#utility.yul\":5415:5508   */\n      tag_372\n      jump\t// in\n    tag_371:\n        /* \"#utility.yul\":5533:5535   */\n      0x20\n        /* \"#utility.yul\":5528:5531   */\n      dup3\n        /* \"#utility.yul\":5524:5536   */\n      add\n        /* \"#utility.yul\":5517:5536   */\n      swap1\n      pop\n        /* \"#utility.yul\":5176:5542   */\n      swap2\n      swap1\n      pop\n      jump\t// out\n        /* \"#utility.yul\":5548:5666   */\n    tag_373:\n        /* \"#utility.yul\":5635:5659   */\n      tag_375\n        /* \"#utility.yul\":5653:5658   */\n      dup2\n        /* \"#utility.yul\":5635:5659   */\n      tag_376\n      jump\t// in\n    tag_375:\n        /* \"#utility.yul\":5630:5633   */\n      dup3\n        /* \"#utility.yul\":5623:5660   */\n      mstore\n        /* \"#utility.yul\":5548:5666   */\n      pop\n      pop\n      jump\t// out\n        /* \"#utility.yul\":5672:6373   */\n    tag_144:\n        /* \"#utility.yul\":5953:5956   */\n      0x00\n        /* \"#utility.yul\":5975:6070   */\n      tag_378\n        /* \"#utility.yul\":6066:6069   */\n      dup3\n        /* \"#utility.yul\":6057:6063   */\n      dup6\n        /* \"#utility.yul\":5975:6070   */\n      tag_337\n      jump\t// in\n    tag_378:\n        /* \"#utility.yul\":5968:6070   */\n      swap2\n      pop\n        /* \"#utility.yul\":6087:6235   */\n      tag_379\n        /* \"#utility.yul\":6231:6234   */\n      dup3\n        /* \"#utility.yul\":6087:6235   */\n      tag_353\n      jump\t// in\n    tag_379:\n        /* \"#utility.yul\":6080:6235   */\n      swap2\n      pop\n        /* \"#utility.yul\":6252:6347   */\n      tag_380\n        /* \"#utility.yul\":6343:6346   */\n      dup3\n        /* \"#utility.yul\":6334:6340   */\n      dup5\n        /* \"#utility.yul\":6252:6347   */\n      tag_337\n      jump\t// in\n    tag_380:\n        /* \"#utility.yul\":6245:6347   */\n      swap2\n      pop\n        /* \"#utility.yul\":6364:6367   */\n      dup2\n        /* \"#utility.yul\":6357:6367   */\n      swap1\n      pop\n        /* \"#utility.yul\":5672:6373   */\n      swap4\n      swap3\n      pop\n      pop\n      pop\n      jump\t// out\n        /* \"#utility.yul\":6379:7307   */\n    tag_249:\n        /* \"#utility.yul\":6661:6665   */\n      0x00\n        /* \"#utility.yul\":6699:6702   */\n      0xe0\n        /* \"#utility.yul\":6688:6697   */\n      dup3\n        /* \"#utility.yul\":6684:6703   */\n      add\n        /* \"#utility.yul\":6676:6703   */\n      swap1\n      pop\n        /* \"#utility.yul\":6713:6784   */\n      tag_382\n        /* \"#utility.yul\":6781:6782   */\n      0x00\n        /* \"#utility.yul\":6770:6779   */\n      dup4\n        /* \"#utility.yul\":6766:6783   */\n      add\n        /* \"#utility.yul\":6757:6763   */\n      dup11\n        /* \"#utility.yul\":6713:6784   */\n      tag_315\n      jump\t// in\n    tag_382:\n        /* \"#utility.yul\":6794:6866   */\n      tag_383\n        /* \"#utility.yul\":6862:6864   */\n      0x20\n        /* \"#utility.yul\":6851:6860   */\n      dup4\n        /* \"#utility.yul\":6847:6865   */\n      add\n        /* \"#utility.yul\":6838:6844   */\n      dup10\n        /* \"#utility.yul\":6794:6866   */\n      tag_373\n      jump\t// in\n    tag_383:\n        /* \"#utility.yul\":6876:6948   */\n      tag_384\n        /* \"#utility.yul\":6944:6946   */\n      0x40\n        /* \"#utility.yul\":6933:6942   */\n      dup4\n        /* \"#utility.yul\":6929:6947   */\n      add\n        /* \"#utility.yul\":6920:6926   */\n      dup9\n        /* \"#utility.yul\":6876:6948   */\n      tag_373\n      jump\t// in\n    tag_384:\n        /* \"#utility.yul\":6958:7035   */\n      tag_385\n        /* \"#utility.yul\":7031:7033   */\n      0x60\n        /* \"#utility.yul\":7020:7029   */\n      dup4\n        /* \"#utility.yul\":7016:7034   */\n      add\n        /* \"#utility.yul\":7007:7013   */\n      dup8\n        /* \"#utility.yul\":6958:7035   */\n      tag_319\n      jump\t// in\n    tag_385:\n        /* \"#utility.yul\":7045:7118   */\n      tag_386\n        /* \"#utility.yul\":7113:7116   */\n      0x80\n        /* \"#utility.yul\":7102:7111   */\n      dup4\n        /* \"#utility.yul\":7098:7117   */\n      add\n        /* \"#utility.yul\":7089:7095   */\n      dup7\n        /* \"#utility.yul\":7045:7118   */\n      tag_373\n      jump\t// in\n    tag_386:\n        /* \"#utility.yul\":7128:7209   */\n      tag_387\n        /* \"#utility.yul\":7204:7207   */\n      0xa0\n        /* \"#utility.yul\":7193:7202   */\n      dup4\n        /* \"#utility.yul\":7189:7208   */\n      add\n        /* \"#utility.yul\":7180:7186   */\n      dup6\n        /* \"#utility.yul\":7128:7209   */\n      tag_323\n      jump\t// in\n    tag_387:\n        /* \"#utility.yul\":7219:7300   */\n      tag_388\n        /* \"#utility.yul\":7295:7298   */\n      0xc0\n        /* \"#utility.yul\":7284:7293   */\n      dup4\n        /* \"#utility.yul\":7280:7299   */\n      add\n        /* \"#utility.yul\":7271:7277   */\n      dup5\n        /* \"#utility.yul\":7219:7300   */\n      tag_323\n      jump\t// in\n    tag_388:\n        /* \"#utility.yul\":6379:7307   */\n      swap9\n      swap8\n      pop\n      pop\n      pop\n      pop\n      pop\n      pop\n      pop\n      pop\n      jump\t// out\n        /* \"#utility.yul\":7313:7545   */\n    tag_59:\n        /* \"#utility.yul\":7411:7415   */\n      0x00\n        /* \"#utility.yul\":7449:7451   */\n      0x20\n        /* \"#utility.yul\":7438:7447   */\n      dup3\n        /* \"#utility.yul\":7434:7452   */\n      add\n        /* \"#utility.yul\":7426:7452   */\n      swap1\n      pop\n        /* \"#utility.yul\":7462:7538   */\n      tag_390\n        /* \"#utility.yul\":7535:7536   */\n      0x00\n        /* \"#utility.yul\":7524:7533   */\n      dup4\n        /* \"#utility.yul\":7520:7537   */\n      add\n        /* \"#utility.yul\":7511:7517   */\n      dup5\n        /* \"#utility.yul\":7462:7538   */\n      tag_319\n      jump\t// in\n    tag_390:\n        /* \"#utility.yul\":7313:7545   */\n      swap3\n      swap2\n      pop\n      pop\n      jump\t// out\n        /* \"#utility.yul\":7551:7864   */\n    tag_28:\n        /* \"#utility.yul\":7664:7668   */\n      0x00\n        /* \"#utility.yul\":7702:7704   */\n      0x20\n        /* \"#utility.yul\":7691:7700   */\n      dup3\n        /* \"#utility.yul\":7687:7705   */\n      add\n        /* \"#utility.yul\":7679:7705   */\n      swap1\n      pop\n        /* \"#utility.yul\":7751:7760   */\n      dup2\n        /* \"#utility.yul\":7745:7749   */\n      dup2\n        /* \"#utility.yul\":7741:7761   */\n      sub\n        /* \"#utility.yul\":7737:7738   */\n      0x00\n        /* \"#utility.yul\":7726:7735   */\n      dup4\n        /* \"#utility.yul\":7722:7739   */\n      add\n        /* \"#utility.yul\":7715:7762   */\n      mstore\n        /* \"#utility.yul\":7779:7857   */\n      tag_392\n        /* \"#utility.yul\":7852:7856   */\n      dup2\n        /* \"#utility.yul\":7843:7849   */\n      dup5\n        /* \"#utility.yul\":7779:7857   */\n      tag_327\n      jump\t// in\n    tag_392:\n        /* \"#utility.yul\":7771:7857   */\n      swap1\n      pop\n        /* \"#utility.yul\":7551:7864   */\n      swap3\n      swap2\n      pop\n      pop\n      jump\t// out\n        /* \"#utility.yul\":7870:8289   */\n    tag_136:\n        /* \"#utility.yul\":8036:8040   */\n      0x00\n        /* \"#utility.yul\":8074:8076   */\n      0x20\n        /* \"#utility.yul\":8063:8072   */\n      dup3\n        /* \"#utility.yul\":8059:8077   */\n      add\n        /* \"#utility.yul\":8051:8077   */\n      swap1\n      pop\n        /* \"#utility.yul\":8123:8132   */\n      dup2\n        /* \"#utility.yul\":8117:8121   */\n      dup2\n        /* \"#utility.yul\":8113:8133   */\n      sub\n        /* \"#utility.yul\":8109:8110   */\n      0x00\n        /* \"#utility.yul\":8098:8107   */\n      dup4\n        /* \"#utility.yul\":8094:8111   */\n      add\n        /* \"#utility.yul\":8087:8134   */\n      mstore\n        /* \"#utility.yul\":8151:8282   */\n      tag_394\n        /* \"#utility.yul\":8277:8281   */\n      dup2\n        /* \"#utility.yul\":8151:8282   */\n      tag_343\n      jump\t// in\n    tag_394:\n        /* \"#utility.yul\":8143:8282   */\n      swap1\n      pop\n        /* \"#utility.yul\":7870:8289   */\n      swap2\n      swap1\n      pop\n      jump\t// out\n        /* \"#utility.yul\":8295:8714   */\n    tag_128:\n        /* \"#utility.yul\":8461:8465   */\n      0x00\n        /* \"#utility.yul\":8499:8501   */\n      0x20\n        /* \"#utility.yul\":8488:8497   */\n      dup3\n        /* \"#utility.yul\":8484:8502   */\n      add\n        /* \"#utility.yul\":8476:8502   */\n      swap1\n      pop\n        /* \"#utility.yul\":8548:8557   */\n      dup2\n        /* \"#utility.yul\":8542:8546   */\n      dup2\n        /* \"#utility.yul\":8538:8558   */\n      sub\n        /* \"#utility.yul\":8534:8535   */\n      0x00\n        /* \"#utility.yul\":8523:8532   */\n      dup4\n        /* \"#utility.yul\":8519:8536   */\n      add\n        /* \"#utility.yul\":8512:8559   */\n      mstore\n        /* \"#utility.yul\":8576:8707   */\n      tag_396\n        /* \"#utility.yul\":8702:8706   */\n      dup2\n        /* \"#utility.yul\":8576:8707   */\n      tag_348\n      jump\t// in\n    tag_396:\n        /* \"#utility.yul\":8568:8707   */\n      swap1\n      pop\n        /* \"#utility.yul\":8295:8714   */\n      swap2\n      swap1\n      pop\n      jump\t// out\n        /* \"#utility.yul\":8720:9139   */\n    tag_198:\n        /* \"#utility.yul\":8886:8890   */\n      0x00\n        /* \"#utility.yul\":8924:8926   */\n      0x20\n        /* \"#utility.yul\":8913:8922   */\n      dup3\n        /* \"#utility.yul\":8909:8927   */\n      add\n        /* \"#utility.yul\":8901:8927   */\n      swap1\n      pop\n        /* \"#utility.yul\":8973:8982   */\n      dup2\n        /* \"#utility.yul\":8967:8971   */\n      dup2\n        /* \"#utility.yul\":8963:8983   */\n      sub\n        /* \"#utility.yul\":8959:8960   */\n      0x00\n        /* \"#utility.yul\":8948:8957   */\n      dup4\n        /* \"#utility.yul\":8944:8961   */\n      add\n        /* \"#utility.yul\":8937:8984   */\n      mstore\n        /* \"#utility.yul\":9001:9132   */\n      tag_398\n        /* \"#utility.yul\":9127:9131   */\n      dup2\n        /* \"#utility.yul\":9001:9132   */\n      tag_358\n      jump\t// in\n    tag_398:\n        /* \"#utility.yul\":8993:9132   */\n      swap1\n      pop\n        /* \"#utility.yul\":8720:9139   */\n      swap2\n      swap1\n      pop\n      jump\t// out\n        /* \"#utility.yul\":9145:9564   */\n    tag_157:\n        /* \"#utility.yul\":9311:9315   */\n      0x00\n        /* \"#utility.yul\":9349:9351   */\n      0x20\n        /* \"#utility.yul\":9338:9347   */\n      dup3\n        /* \"#utility.yul\":9334:9352   */\n      add\n        /* \"#utility.yul\":9326:9352   */\n      swap1\n      pop\n        /* \"#utility.yul\":9398:9407   */\n      dup2\n        /* \"#utility.yul\":9392:9396   */\n      dup2\n        /* \"#utility.yul\":9388:9408   */\n      sub\n        /* \"#utility.yul\":9384:9385   */\n      0x00\n        /* \"#utility.yul\":9373:9382   */\n      dup4\n        /* \"#utility.yul\":9369:9386   */\n      add\n        /* \"#utility.yul\":9362:9409   */\n      mstore\n        /* \"#utility.yul\":9426:9557   */\n      tag_400\n        /* \"#utility.yul\":9552:9556   */\n      dup2\n        /* \"#utility.yul\":9426:9557   */\n      tag_363\n      jump\t// in\n    tag_400:\n        /* \"#utility.yul\":9418:9557   */\n      swap1\n      pop\n        /* \"#utility.yul\":9145:9564   */\n      swap2\n      swap1\n      pop\n      jump\t// out\n        /* \"#utility.yul\":9570:9989   */\n    tag_160:\n        /* \"#utility.yul\":9736:9740   */\n      0x00\n        /* \"#utility.yul\":9774:9776   */\n      0x20\n        /* \"#utility.yul\":9763:9772   */\n      dup3\n        /* \"#utility.yul\":9759:9777   */\n      add\n        /* \"#utility.yul\":9751:9777   */\n      swap1\n      pop\n        /* \"#utility.yul\":9823:9832   */\n      dup2\n        /* \"#utility.yul\":9817:9821   */\n      dup2\n        /* \"#utility.yul\":9813:9833   */\n      sub\n        /* \"#utility.yul\":9809:9810   */\n      0x00\n        /* \"#utility.yul\":9798:9807   */\n      dup4\n        /* \"#utility.yul\":9794:9811   */\n      add\n        /* \"#utility.yul\":9787:9834   */\n      mstore\n        /* \"#utility.yul\":9851:9982   */\n      tag_402\n        /* \"#utility.yul\":9977:9981   */\n      dup2\n        /* \"#utility.yul\":9851:9982   */\n      tag_368\n      jump\t// in\n    tag_402:\n        /* \"#utility.yul\":9843:9982   */\n      swap1\n      pop\n        /* \"#utility.yul\":9570:9989   */\n      swap2\n      swap1\n      pop\n      jump\t// out\n        /* \"#utility.yul\":9995:10217   */\n    tag_44:\n        /* \"#utility.yul\":10088:10092   */\n      0x00\n        /* \"#utility.yul\":10126:10128   */\n      0x20\n        /* \"#utility.yul\":10115:10124   */\n      dup3\n        /* \"#utility.yul\":10111:10129   */\n      add\n        /* \"#utility.yul\":10103:10129   */\n      swap1\n      pop\n        /* \"#utility.yul\":10139:10210   */\n      tag_404\n        /* \"#utility.yul\":10207:10208   */\n      0x00\n        /* \"#utility.yul\":10196:10205   */\n      dup4\n        /* \"#utility.yul\":10192:10209   */\n      add\n        /* \"#utility.yul\":10183:10189   */\n      dup5\n        /* \"#utility.yul\":10139:10210   */\n      tag_373\n      jump\t// in\n    tag_404:\n        /* \"#utility.yul\":9995:10217   */\n      swap3\n      swap2\n      pop\n      pop\n      jump\t// out\n        /* \"#utility.yul\":10223:10352   */\n    tag_284:\n        /* \"#utility.yul\":10257:10263   */\n      0x00\n        /* \"#utility.yul\":10284:10304   */\n      tag_406\n      tag_407\n      jump\t// in\n    tag_406:\n        /* \"#utility.yul\":10274:10304   */\n      swap1\n      pop\n        /* \"#utility.yul\":10313:10346   */\n      tag_408\n        /* \"#utility.yul\":10341:10345   */\n      dup3\n        /* \"#utility.yul\":10333:10339   */\n      dup3\n        /* \"#utility.yul\":10313:10346   */\n      tag_409\n      jump\t// in\n    tag_408:\n        /* \"#utility.yul\":10223:10352   */\n      swap2\n      swap1\n      pop\n      jump\t// out\n        /* \"#utility.yul\":10358:10433   */\n    tag_407:\n        /* \"#utility.yul\":10391:10397   */\n      0x00\n        /* \"#utility.yul\":10424:10426   */\n      0x40\n        /* \"#utility.yul\":10418:10427   */\n      mload\n        /* \"#utility.yul\":10408:10427   */\n      swap1\n      pop\n        /* \"#utility.yul\":10358:10433   */\n      swap1\n      jump\t// out\n        /* \"#utility.yul\":10439:10747   */\n    tag_283:\n        /* \"#utility.yul\":10501:10505   */\n      0x00\n        /* \"#utility.yul\":10591:10609   */\n      0xffffffffffffffff\n        /* \"#utility.yul\":10583:10589   */\n      dup3\n        /* \"#utility.yul\":10580:10610   */\n      gt\n        /* \"#utility.yul\":10577:10633   */\n      iszero\n      tag_412\n      jumpi\n        /* \"#utility.yul\":10613:10631   */\n      tag_413\n      tag_221\n      jump\t// in\n    tag_413:\n        /* \"#utility.yul\":10577:10633   */\n    tag_412:\n        /* \"#utility.yul\":10651:10680   */\n      tag_414\n        /* \"#utility.yul\":10673:10679   */\n      dup3\n        /* \"#utility.yul\":10651:10680   */\n      tag_336\n      jump\t// in\n    tag_414:\n        /* \"#utility.yul\":10643:10680   */\n      swap1\n      pop\n        /* \"#utility.yul\":10735:10739   */\n      0x20\n        /* \"#utility.yul\":10729:10733   */\n      dup2\n        /* \"#utility.yul\":10725:10740   */\n      add\n        /* \"#utility.yul\":10717:10740   */\n      swap1\n      pop\n        /* \"#utility.yul\":10439:10747   */\n      swap2\n      swap1\n      pop\n      jump\t// out\n        /* \"#utility.yul\":10753:10852   */\n    tag_330:\n        /* \"#utility.yul\":10805:10811   */\n      0x00\n        /* \"#utility.yul\":10839:10844   */\n      dup2\n        /* \"#utility.yul\":10833:10845   */\n      mload\n        /* \"#utility.yul\":10823:10845   */\n      swap1\n      pop\n        /* \"#utility.yul\":10753:10852   */\n      swap2\n      swap1\n      pop\n      jump\t// out\n        /* \"#utility.yul\":10858:11027   */\n    tag_332:\n        /* \"#utility.yul\":10942:10953   */\n      0x00\n        /* \"#utility.yul\":10976:10982   */\n      dup3\n        /* \"#utility.yul\":10971:10974   */\n      dup3\n        /* \"#utility.yul\":10964:10983   */\n      mstore\n        /* \"#utility.yul\":11016:11020   */\n      0x20\n        /* \"#utility.yul\":11011:11014   */\n      dup3\n        /* \"#utility.yul\":11007:11021   */\n      add\n        /* \"#utility.yul\":10992:11021   */\n      swap1\n      pop\n        /* \"#utility.yul\":10858:11027   */\n      swap3\n      swap2\n      pop\n      pop\n      jump\t// out\n        /* \"#utility.yul\":11033:11181   */\n    tag_341:\n        /* \"#utility.yul\":11135:11146   */\n      0x00\n        /* \"#utility.yul\":11172:11175   */\n      dup2\n        /* \"#utility.yul\":11157:11175   */\n      swap1\n      pop\n        /* \"#utility.yul\":11033:11181   */\n      swap3\n      swap2\n      pop\n      pop\n      jump\t// out\n        /* \"#utility.yul\":11187:11492   */\n    tag_229:\n        /* \"#utility.yul\":11227:11230   */\n      0x00\n        /* \"#utility.yul\":11246:11266   */\n      tag_419\n        /* \"#utility.yul\":11264:11265   */\n      dup3\n        /* \"#utility.yul\":11246:11266   */\n      tag_376\n      jump\t// in\n    tag_419:\n        /* \"#utility.yul\":11241:11266   */\n      swap2\n      pop\n        /* \"#utility.yul\":11280:11300   */\n      tag_420\n        /* \"#utility.yul\":11298:11299   */\n      dup4\n        /* \"#utility.yul\":11280:11300   */\n      tag_376\n      jump\t// in\n    tag_420:\n        /* \"#utility.yul\":11275:11300   */\n      swap3\n      pop\n        /* \"#utility.yul\":11434:11435   */\n      dup3\n        /* \"#utility.yul\":11366:11432   */\n      0xffffffffffffffffffffffffffffffffffffffffffffffffffffffffffffffff\n        /* \"#utility.yul\":11362:11436   */\n      sub\n        /* \"#utility.yul\":11359:11360   */\n      dup3\n        /* \"#utility.yul\":11356:11437   */\n      gt\n        /* \"#utility.yul\":11353:11460   */\n      iszero\n      tag_421\n      jumpi\n        /* \"#utility.yul\":11440:11458   */\n      tag_422\n      tag_423\n      jump\t// in\n    tag_422:\n        /* \"#utility.yul\":11353:11460   */\n    tag_421:\n        /* \"#utility.yul\":11484:11485   */\n      dup3\n        /* \"#utility.yul\":11481:11482   */\n      dup3\n        /* \"#utility.yul\":11477:11486   */\n      add\n        /* \"#utility.yul\":11470:11486   */\n      swap1\n      pop\n        /* \"#utility.yul\":11187:11492   */\n      swap3\n      swap2\n      pop\n      pop\n      jump\t// out\n        /* \"#utility.yul\":11498:11683   */\n    tag_165:\n        /* \"#utility.yul\":11538:11539   */\n      0x00\n        /* \"#utility.yul\":11555:11575   */\n      tag_425\n        /* \"#utility.yul\":11573:11574   */\n      dup3\n        /* \"#utility.yul\":11555:11575   */\n      tag_376\n      jump\t// in\n    tag_425:\n        /* \"#utility.yul\":11550:11575   */\n      swap2\n      pop\n        /* \"#utility.yul\":11589:11609   */\n      tag_426\n        /* \"#utility.yul\":11607:11608   */\n      dup4\n        /* \"#utility.yul\":11589:11609   */\n      tag_376\n      jump\t// in\n    tag_426:\n        /* \"#utility.yul\":11584:11609   */\n      swap3\n      pop\n        /* \"#utility.yul\":11628:11629   */\n      dup3\n        /* \"#utility.yul\":11618:11653   */\n      tag_427\n      jumpi\n        /* \"#utility.yul\":11633:11651   */\n      tag_428\n      tag_429\n      jump\t// in\n    tag_428:\n        /* \"#utility.yul\":11618:11653   */\n    tag_427:\n        /* \"#utility.yul\":11675:11676   */\n      dup3\n        /* \"#utility.yul\":11672:11673   */\n      dup3\n        /* \"#utility.yul\":11668:11677   */\n      div\n        /* \"#utility.yul\":11663:11677   */\n      swap1\n      pop\n        /* \"#utility.yul\":11498:11683   */\n      swap3\n      swap2\n      pop\n      pop\n      jump\t// out\n        /* \"#utility.yul\":11689:12037   */\n    tag_163:\n        /* \"#utility.yul\":11729:11736   */\n      0x00\n        /* \"#utility.yul\":11752:11772   */\n      tag_431\n        /* \"#utility.yul\":11770:11771   */\n      dup3\n        /* \"#utility.yul\":11752:11772   */\n      tag_376\n      jump\t// in\n    tag_431:\n        /* \"#utility.yul\":11747:11772   */\n      swap2\n      pop\n        /* \"#utility.yul\":11786:11806   */\n      tag_432\n        /* \"#utility.yul\":11804:11805   */\n      dup4\n        /* \"#utility.yul\":11786:11806   */\n      tag_376\n      jump\t// in\n    tag_432:\n        /* \"#utility.yul\":11781:11806   */\n      swap3\n      pop\n        /* \"#utility.yul\":11974:11975   */\n      dup2\n        /* \"#utility.yul\":11906:11972   */\n      0xffffffffffffffffffffffffffffffffffffffffffffffffffffffffffffffff\n        /* \"#utility.yul\":11902:11976   */\n      div\n        /* \"#utility.yul\":11899:11900   */\n      dup4\n        /* \"#utility.yul\":11896:11977   */\n      gt\n        /* \"#utility.yul\":11891:11892   */\n      dup3\n        /* \"#utility.yul\":11884:11893   */\n      iszero\n        /* \"#utility.yul\":11877:11894   */\n      iszero\n        /* \"#utility.yul\":11873:11978   */\n      and\n        /* \"#utility.yul\":11870:12001   */\n      iszero\n      tag_433\n      jumpi\n        /* \"#utility.yul\":11981:11999   */\n      tag_434\n      tag_423\n      jump\t// in\n    tag_434:\n        /* \"#utility.yul\":11870:12001   */\n    tag_433:\n        /* \"#utility.yul\":12029:12030   */\n      dup3\n        /* \"#utility.yul\":12026:12027   */\n      dup3\n        /* \"#utility.yul\":12022:12031   */\n      mul\n        /* \"#utility.yul\":12011:12031   */\n      swap1\n      pop\n        /* \"#utility.yul\":11689:12037   */\n      swap3\n      swap2\n      pop\n      pop\n      jump\t// out\n        /* \"#utility.yul\":12043:12234   */\n    tag_139:\n        /* \"#utility.yul\":12083:12087   */\n      0x00\n        /* \"#utility.yul\":12103:12123   */\n      tag_436\n        /* \"#utility.yul\":12121:12122   */\n      dup3\n        /* \"#utility.yul\":12103:12123   */\n      tag_376\n      jump\t// in\n    tag_436:\n        /* \"#utility.yul\":12098:12123   */\n      swap2\n      pop\n        /* \"#utility.yul\":12137:12157   */\n      tag_437\n        /* \"#utility.yul\":12155:12156   */\n      dup4\n        /* \"#utility.yul\":12137:12157   */\n      tag_376\n      jump\t// in\n    tag_437:\n        /* \"#utility.yul\":12132:12157   */\n      swap3\n      pop\n        /* \"#utility.yul\":12176:12177   */\n      dup3\n        /* \"#utility.yul\":12173:12174   */\n      dup3\n        /* \"#utility.yul\":12170:12178   */\n      lt\n        /* \"#utility.yul\":12167:12201   */\n      iszero\n      tag_438\n      jumpi\n        /* \"#utility.yul\":12181:12199   */\n      tag_439\n      tag_423\n      jump\t// in\n    tag_439:\n        /* \"#utility.yul\":12167:12201   */\n    tag_438:\n        /* \"#utility.yul\":12226:12227   */\n      dup3\n        /* \"#utility.yul\":12223:12224   */\n      dup3\n        /* \"#utility.yul\":12219:12228   */\n      sub\n        /* \"#utility.yul\":12211:12228   */\n      swap1\n      pop\n        /* \"#utility.yul\":12043:12234   */\n      swap3\n      swap2\n      pop\n      pop\n      jump\t// out\n        /* \"#utility.yul\":12240:12336   */\n    tag_318:\n        /* \"#utility.yul\":12277:12284   */\n      0x00\n        /* \"#utility.yul\":12306:12330   */\n      tag_441\n        /* \"#utility.yul\":12324:12329   */\n      dup3\n        /* \"#utility.yul\":12306:12330   */\n      tag_442\n      jump\t// in\n    tag_441:\n        /* \"#utility.yul\":12295:12330   */\n      swap1\n      pop\n        /* \"#utility.yul\":12240:12336   */\n      swap2\n      swap1\n      pop\n      jump\t// out\n        /* \"#utility.yul\":12342:12467   */\n    tag_443:\n        /* \"#utility.yul\":12386:12393   */\n      0x00\n        /* \"#utility.yul\":12415:12420   */\n      dup2\n        /* \"#utility.yul\":12404:12420   */\n      swap1\n      pop\n        /* \"#utility.yul\":12421:12461   */\n      tag_445\n        /* \"#utility.yul\":12455:12460   */\n      dup3\n        /* \"#utility.yul\":12421:12461   */\n      tag_446\n      jump\t// in\n    tag_445:\n        /* \"#utility.yul\":12342:12467   */\n      swap2\n      swap1\n      pop\n      jump\t// out\n        /* \"#utility.yul\":12473:12599   */\n    tag_442:\n        /* \"#utility.yul\":12510:12517   */\n      0x00\n        /* \"#utility.yul\":12550:12592   */\n      0xffffffffffffffffffffffffffffffffffffffff\n        /* \"#utility.yul\":12543:12548   */\n      dup3\n        /* \"#utility.yul\":12539:12593   */\n      and\n        /* \"#utility.yul\":12528:12593   */\n      swap1\n      pop\n        /* \"#utility.yul\":12473:12599   */\n      swap2\n      swap1\n      pop\n      jump\t// out\n        /* \"#utility.yul\":12605:12682   */\n    tag_376:\n        /* \"#utility.yul\":12642:12649   */\n      0x00\n        /* \"#utility.yul\":12671:12676   */\n      dup2\n        /* \"#utility.yul\":12660:12676   */\n      swap1\n      pop\n        /* \"#utility.yul\":12605:12682   */\n      swap2\n      swap1\n      pop\n      jump\t// out\n        /* \"#utility.yul\":12688:12813   */\n    tag_322:\n        /* \"#utility.yul\":12743:12752   */\n      0x00\n        /* \"#utility.yul\":12776:12807   */\n      tag_450\n        /* \"#utility.yul\":12801:12806   */\n      dup3\n        /* \"#utility.yul\":12776:12807   */\n      tag_443\n      jump\t// in\n    tag_450:\n        /* \"#utility.yul\":12763:12807   */\n      swap1\n      pop\n        /* \"#utility.yul\":12688:12813   */\n      swap2\n      swap1\n      pop\n      jump\t// out\n        /* \"#utility.yul\":12819:12940   */\n    tag_326:\n        /* \"#utility.yul\":12877:12886   */\n      0x00\n        /* \"#utility.yul\":12910:12934   */\n      tag_452\n        /* \"#utility.yul\":12928:12933   */\n      dup3\n        /* \"#utility.yul\":12910:12934   */\n      tag_376\n      jump\t// in\n    tag_452:\n        /* \"#utility.yul\":12897:12934   */\n      swap1\n      pop\n        /* \"#utility.yul\":12819:12940   */\n      swap2\n      swap1\n      pop\n      jump\t// out\n        /* \"#utility.yul\":12946:13100   */\n    tag_289:\n        /* \"#utility.yul\":13030:13036   */\n      dup3\n        /* \"#utility.yul\":13025:13028   */\n      dup2\n        /* \"#utility.yul\":13020:13023   */\n      dup4\n        /* \"#utility.yul\":13007:13037   */\n      calldatacopy\n        /* \"#utility.yul\":13092:13093   */\n      0x00\n        /* \"#utility.yul\":13083:13089   */\n      dup4\n        /* \"#utility.yul\":13078:13081   */\n      dup4\n        /* \"#utility.yul\":13074:13090   */\n      add\n        /* \"#utility.yul\":13067:13094   */\n      mstore\n        /* \"#utility.yul\":12946:13100   */\n      pop\n      pop\n      pop\n      jump\t// out\n        /* \"#utility.yul\":13106:13413   */\n    tag_334:\n        /* \"#utility.yul\":13174:13175   */\n      0x00\n        /* \"#utility.yul\":13184:13297   */\n    tag_455:\n        /* \"#utility.yul\":13198:13204   */\n      dup4\n        /* \"#utility.yul\":13195:13196   */\n      dup2\n        /* \"#utility.yul\":13192:13205   */\n      lt\n        /* \"#utility.yul\":13184:13297   */\n      iszero\n      tag_457\n      jumpi\n        /* \"#utility.yul\":13283:13284   */\n      dup1\n        /* \"#utility.yul\":13278:13281   */\n      dup3\n        /* \"#utility.yul\":13274:13285   */\n      add\n        /* \"#utility.yul\":13268:13286   */\n      mload\n        /* \"#utility.yul\":13264:13265   */\n      dup2\n        /* \"#utility.yul\":13259:13262   */\n      dup5\n        /* \"#utility.yul\":13255:13266   */\n      add\n        /* \"#utility.yul\":13248:13287   */\n      mstore\n        /* \"#utility.yul\":13220:13222   */\n      0x20\n        /* \"#utility.yul\":13217:13218   */\n      dup2\n        /* \"#utility.yul\":13213:13223   */\n      add\n        /* \"#utility.yul\":13208:13223   */\n      swap1\n      pop\n        /* \"#utility.yul\":13184:13297   */\n      jump(tag_455)\n    tag_457:\n        /* \"#utility.yul\":13315:13321   */\n      dup4\n        /* \"#utility.yul\":13312:13313   */\n      dup2\n        /* \"#utility.yul\":13309:13322   */\n      gt\n        /* \"#utility.yul\":13306:13407   */\n      iszero\n      tag_458\n      jumpi\n        /* \"#utility.yul\":13395:13396   */\n      0x00\n        /* \"#utility.yul\":13386:13392   */\n      dup5\n        /* \"#utility.yul\":13381:13384   */\n      dup5\n        /* \"#utility.yul\":13377:13393   */\n      add\n        /* \"#utility.yul\":13370:13397   */\n      mstore\n        /* \"#utility.yul\":13306:13407   */\n    tag_458:\n        /* \"#utility.yul\":13155:13413   */\n      pop\n        /* \"#utility.yul\":13106:13413   */\n      pop\n      pop\n      pop\n      jump\t// out\n        /* \"#utility.yul\":13419:13700   */\n    tag_409:\n        /* \"#utility.yul\":13502:13529   */\n      tag_460\n        /* \"#utility.yul\":13524:13528   */\n      dup3\n        /* \"#utility.yul\":13502:13529   */\n      tag_336\n      jump\t// in\n    tag_460:\n        /* \"#utility.yul\":13494:13500   */\n      dup2\n        /* \"#utility.yul\":13490:13530   */\n      add\n        /* \"#utility.yul\":13632:13638   */\n      dup2\n        /* \"#utility.yul\":13620:13630   */\n      dup2\n        /* \"#utility.yul\":13617:13639   */\n      lt\n        /* \"#utility.yul\":13596:13614   */\n      0xffffffffffffffff\n        /* \"#utility.yul\":13584:13594   */\n      dup3\n        /* \"#utility.yul\":13581:13615   */\n      gt\n        /* \"#utility.yul\":13578:13640   */\n      or\n        /* \"#utility.yul\":13575:13663   */\n      iszero\n      tag_461\n      jumpi\n        /* \"#utility.yul\":13643:13661   */\n      tag_462\n      tag_221\n      jump\t// in\n    tag_462:\n        /* \"#utility.yul\":13575:13663   */\n    tag_461:\n        /* \"#utility.yul\":13683:13693   */\n      dup1\n        /* \"#utility.yul\":13679:13681   */\n      0x40\n        /* \"#utility.yul\":13672:13694   */\n      mstore\n        /* \"#utility.yul\":13462:13700   */\n      pop\n        /* \"#utility.yul\":13419:13700   */\n      pop\n      pop\n      jump\t// out\n        /* \"#utility.yul\":13706:13939   */\n    tag_217:\n        /* \"#utility.yul\":13745:13748   */\n      0x00\n        /* \"#utility.yul\":13768:13792   */\n      tag_464\n        /* \"#utility.yul\":13786:13791   */\n      dup3\n        /* \"#utility.yul\":13768:13792   */\n      tag_376\n      jump\t// in\n    tag_464:\n        /* \"#utility.yul\":13759:13792   */\n      swap2\n      pop\n        /* \"#utility.yul\":13814:13880   */\n      0xffffffffffffffffffffffffffffffffffffffffffffffffffffffffffffffff\n        /* \"#utility.yul\":13807:13812   */\n      dup3\n        /* \"#utility.yul\":13804:13881   */\n      eq\n        /* \"#utility.yul\":13801:13904   */\n      iszero\n      tag_465\n      jumpi\n        /* \"#utility.yul\":13884:13902   */\n      tag_466\n      tag_423\n      jump\t// in\n    tag_466:\n        /* \"#utility.yul\":13801:13904   */\n    tag_465:\n        /* \"#utility.yul\":13931:13932   */\n      0x01\n        /* \"#utility.yul\":13924:13929   */\n      dup3\n        /* \"#utility.yul\":13920:13933   */\n      add\n        /* \"#utility.yul\":13913:13933   */\n      swap1\n      pop\n        /* \"#utility.yul\":13706:13939   */\n      swap2\n      swap1\n      pop\n      jump\t// out\n        /* \"#utility.yul\":13945:14121   */\n    tag_227:\n        /* \"#utility.yul\":13977:13978   */\n      0x00\n        /* \"#utility.yul\":13994:14014   */\n      tag_468\n        /* \"#utility.yul\":14012:14013   */\n      dup3\n        /* \"#utility.yul\":13994:14014   */\n      tag_376\n      jump\t// in\n    tag_468:\n        /* \"#utility.yul\":13989:14014   */\n      swap2\n      pop\n        /* \"#utility.yul\":14028:14048   */\n      tag_469\n        /* \"#utility.yul\":14046:14047   */\n      dup4\n        /* \"#utility.yul\":14028:14048   */\n      tag_376\n      jump\t// in\n    tag_469:\n        /* \"#utility.yul\":14023:14048   */\n      swap3\n      pop\n        /* \"#utility.yul\":14067:14068   */\n      dup3\n        /* \"#utility.yul\":14057:14092   */\n      tag_470\n      jumpi\n        /* \"#utility.yul\":14072:14090   */\n      tag_471\n      tag_429\n      jump\t// in\n    tag_471:\n        /* \"#utility.yul\":14057:14092   */\n    tag_470:\n        /* \"#utility.yul\":14113:14114   */\n      dup3\n        /* \"#utility.yul\":14110:14111   */\n      dup3\n        /* \"#utility.yul\":14106:14115   */\n      mod\n        /* \"#utility.yul\":14101:14115   */\n      swap1\n      pop\n        /* \"#utility.yul\":13945:14121   */\n      swap3\n      swap2\n      pop\n      pop\n      jump\t// out\n        /* \"#utility.yul\":14127:14307   */\n    tag_423:\n        /* \"#utility.yul\":14175:14252   */\n      0x4e487b7100000000000000000000000000000000000000000000000000000000\n        /* \"#utility.yul\":14172:14173   */\n      0x00\n        /* \"#utility.yul\":14165:14253   */\n      mstore\n        /* \"#utility.yul\":14272:14276   */\n      0x11\n        /* \"#utility.yul\":14269:14270   */\n      0x04\n        /* \"#utility.yul\":14262:14277   */\n      mstore\n        /* \"#utility.yul\":14296:14300   */\n      0x24\n        /* \"#utility.yul\":14293:14294   */\n      0x00\n        /* \"#utility.yul\":14286:14301   */\n      revert\n        /* \"#utility.yul\":14313:14493   */\n    tag_429:\n        /* \"#utility.yul\":14361:14438   */\n      0x4e487b7100000000000000000000000000000000000000000000000000000000\n        /* \"#utility.yul\":14358:14359   */\n      0x00\n        /* \"#utility.yul\":14351:14439   */\n      mstore\n        /* \"#utility.yul\":14458:14462   */\n      0x12\n        /* \"#utility.yul\":14455:14456   */\n      0x04\n        /* \"#utility.yul\":14448:14463   */\n      mstore\n        /* \"#utility.yul\":14482:14486   */\n      0x24\n        /* \"#utility.yul\":14479:14480   */\n      0x00\n        /* \"#utility.yul\":14472:14487   */\n      revert\n        /* \"#utility.yul\":14499:14679   */\n    tag_118:\n        /* \"#utility.yul\":14547:14624   */\n      0x4e487b7100000000000000000000000000000000000000000000000000000000\n        /* \"#utility.yul\":14544:14545   */\n      0x00\n        /* \"#utility.yul\":14537:14625   */\n      mstore\n        /* \"#utility.yul\":14644:14648   */\n      0x21\n        /* \"#utility.yul\":14641:14642   */\n      0x04\n        /* \"#utility.yul\":14634:14649   */\n      mstore\n        /* \"#utility.yul\":14668:14672   */\n      0x24\n        /* \"#utility.yul\":14665:14666   */\n      0x00\n        /* \"#utility.yul\":14658:14673   */\n      revert\n        /* \"#utility.yul\":14685:14865   */\n    tag_232:\n        /* \"#utility.yul\":14733:14810   */\n      0x4e487b7100000000000000000000000000000000000000000000000000000000\n        /* \"#utility.yul\":14730:14731   */\n      0x00\n        /* \"#utility.yul\":14723:14811   */\n      mstore\n        /* \"#utility.yul\":14830:14834   */\n      0x32\n        /* \"#utility.yul\":14827:14828   */\n      0x04\n        /* \"#utility.yul\":14820:14835   */\n      mstore\n        /* \"#utility.yul\":14854:14858   */\n      0x24\n        /* \"#utility.yul\":14851:14852   */\n      0x00\n        /* \"#utility.yul\":14844:14859   */\n      revert\n        /* \"#utility.yul\":14871:15051   */\n    tag_221:\n        /* \"#utility.yul\":14919:14996   */\n      0x4e487b7100000000000000000000000000000000000000000000000000000000\n        /* \"#utility.yul\":14916:14917   */\n      0x00\n        /* \"#utility.yul\":14909:14997   */\n      mstore\n        /* \"#utility.yul\":15016:15020   */\n      0x41\n        /* \"#utility.yul\":15013:15014   */\n      0x04\n        /* \"#utility.yul\":15006:15021   */\n      mstore\n        /* \"#utility.yul\":15040:15044   */\n      0x24\n        /* \"#utility.yul\":15037:15038   */\n      0x00\n        /* \"#utility.yul\":15030:15045   */\n      revert\n        /* \"#utility.yul\":15057:15174   */\n    tag_294:\n        /* \"#utility.yul\":15166:15167   */\n      0x00\n        /* \"#utility.yul\":15163:15164   */\n      dup1\n        /* \"#utility.yul\":15156:15168   */\n      revert\n        /* \"#utility.yul\":15180:15297   */\n    tag_287:\n        /* \"#utility.yul\":15289:15290   */\n      0x00\n        /* \"#utility.yul\":15286:15287   */\n      dup1\n        /* \"#utility.yul\":15279:15291   */\n      revert\n        /* \"#utility.yul\":15303:15420   */\n    tag_306:\n        /* \"#utility.yul\":15412:15413   */\n      0x00\n        /* \"#utility.yul\":15409:15410   */\n      dup1\n        /* \"#utility.yul\":15402:15414   */\n      revert\n        /* \"#utility.yul\":15426:15543   */\n    tag_303:\n        /* \"#utility.yul\":15535:15536   */\n      0x00\n        /* \"#utility.yul\":15532:15533   */\n      dup1\n        /* \"#utility.yul\":15525:15537   */\n      revert\n        /* \"#utility.yul\":15549:15651   */\n    tag_336:\n        /* \"#utility.yul\":15590:15596   */\n      0x00\n        /* \"#utility.yul\":15641:15643   */\n      0x1f\n        /* \"#utility.yul\":15637:15644   */\n      not\n        /* \"#utility.yul\":15632:15634   */\n      0x1f\n        /* \"#utility.yul\":15625:15630   */\n      dup4\n        /* \"#utility.yul\":15621:15635   */\n      add\n        /* \"#utility.yul\":15617:15645   */\n      and\n        /* \"#utility.yul\":15607:15645   */\n      swap1\n      pop\n        /* \"#utility.yul\":15549:15651   */\n      swap2\n      swap1\n      pop\n      jump\t// out\n        /* \"#utility.yul\":15657:15821   */\n    tag_347:\n        /* \"#utility.yul\":15797:15813   */\n      0x4e6f7420417574686f7269736564000000000000000000000000000000000000\n        /* \"#utility.yul\":15793:15794   */\n      0x00\n        /* \"#utility.yul\":15785:15791   */\n      dup3\n        /* \"#utility.yul\":15781:15795   */\n      add\n        /* \"#utility.yul\":15774:15814   */\n      mstore\n        /* \"#utility.yul\":15657:15821   */\n      pop\n      jump\t// out\n        /* \"#utility.yul\":15827:15990   */\n    tag_352:\n        /* \"#utility.yul\":15967:15982   */\n      0x4f726465722050656e64696e6700000000000000000000000000000000000000\n        /* \"#utility.yul\":15963:15964   */\n      0x00\n        /* \"#utility.yul\":15955:15961   */\n      dup3\n        /* \"#utility.yul\":15951:15965   */\n      add\n        /* \"#utility.yul\":15944:15983   */\n      mstore\n        /* \"#utility.yul\":15827:15990   */\n      pop\n      jump\t// out\n        /* \"#utility.yul\":15996:16147   */\n    tag_357:\n        /* \"#utility.yul\":16136:16139   */\n      0x2000000000000000000000000000000000000000000000000000000000000000\n        /* \"#utility.yul\":16132:16133   */\n      0x00\n        /* \"#utility.yul\":16124:16130   */\n      dup3\n        /* \"#utility.yul\":16120:16134   */\n      add\n        /* \"#utility.yul\":16113:16140   */\n      mstore\n        /* \"#utility.yul\":15996:16147   */\n      pop\n      jump\t// out\n        /* \"#utility.yul\":16153:16333   */\n    tag_362:\n        /* \"#utility.yul\":16293:16325   */\n      0x4e6f7420656e6f75676820626c616e636520746f20706c616365206269640000\n        /* \"#utility.yul\":16289:16290   */\n      0x00\n        /* \"#utility.yul\":16281:16287   */\n      dup3\n        /* \"#utility.yul\":16277:16291   */\n      add\n        /* \"#utility.yul\":16270:16326   */\n      mstore\n        /* \"#utility.yul\":16153:16333   */\n      pop\n      jump\t// out\n        /* \"#utility.yul\":16339:16520   */\n    tag_367:\n        /* \"#utility.yul\":16479:16512   */\n      0x70726963652076616c7565206d757374206265206d6f7265207468616e203000\n        /* \"#utility.yul\":16475:16476   */\n      0x00\n        /* \"#utility.yul\":16467:16473   */\n      dup3\n        /* \"#utility.yul\":16463:16477   */\n      add\n        /* \"#utility.yul\":16456:16513   */\n      mstore\n        /* \"#utility.yul\":16339:16520   */\n      pop\n      jump\t// out\n        /* \"#utility.yul\":16526:16706   */\n    tag_372:\n        /* \"#utility.yul\":16666:16698   */\n      0x4e6f7420656e6f75676820626c616e636520746f20706c6163652061736b0000\n        /* \"#utility.yul\":16662:16663   */\n      0x00\n        /* \"#utility.yul\":16654:16660   */\n      dup3\n        /* \"#utility.yul\":16650:16664   */\n      add\n        /* \"#utility.yul\":16643:16699   */\n      mstore\n        /* \"#utility.yul\":16526:16706   */\n      pop\n      jump\t// out\n        /* \"#utility.yul\":16712:16824   */\n    tag_446:\n        /* \"#utility.yul\":16792:16793   */\n      0x02\n        /* \"#utility.yul\":16785:16790   */\n      dup2\n        /* \"#utility.yul\":16782:16794   */\n      lt\n        /* \"#utility.yul\":16772:16818   */\n      tag_489\n      jumpi\n        /* \"#utility.yul\":16798:16816   */\n      tag_490\n      tag_118\n      jump\t// in\n    tag_490:\n        /* \"#utility.yul\":16772:16818   */\n    tag_489:\n        /* \"#utility.yul\":16712:16824   */\n      pop\n      jump\t// out\n        /* \"#utility.yul\":16830:16952   */\n    tag_299:\n        /* \"#utility.yul\":16903:16927   */\n      tag_492\n        /* \"#utility.yul\":16921:16926   */\n      dup2\n        /* \"#utility.yul\":16903:16927   */\n      tag_376\n      jump\t// in\n    tag_492:\n        /* \"#utility.yul\":16896:16901   */\n      dup2\n        /* \"#utility.yul\":16893:16928   */\n      eq\n        /* \"#utility.yul\":16883:16946   */\n      tag_493\n      jumpi\n        /* \"#utility.yul\":16942:16943   */\n      0x00\n        /* \"#utility.yul\":16939:16940   */\n      dup1\n        /* \"#utility.yul\":16932:16944   */\n      revert\n        /* \"#utility.yul\":16883:16946   */\n    tag_493:\n        /* \"#utility.yul\":16830:16952   */\n      pop\n      jump\t// out\n\n    auxdata: 0xa2646970667358221220c47ac18b00ce66db6a1358acc1accc01fc12e1580743555e3966acaf8d52592564736f6c63430008070033\n}\n",
				"bytecode": {
					"linkReferences": {},
					"object": "608060405233600160006101000a81548173ffffffffffffffffffffffffffffffffffffffff021916908373ffffffffffffffffffffffffffffffffffffffff1602179055503480156200005257600080fd5b50604051620023cc380380620023cc8339818101604052810190620000789190620000bd565b8060028190555060006004819055506000600581905550600060078190555060006008819055505062000118565b600081519050620000b781620000fe565b92915050565b600060208284031215620000d657620000d5620000f9565b5b6000620000e684828501620000a6565b91505092915050565b6000819050919050565b600080fd5b6200010981620000ef565b81146200011557600080fd5b50565b6122a480620001286000396000f3fe6080604052600436106101145760003560e01c806378c5b268116100a0578063a394fda711610064578063a394fda7146103a3578063b40a5627146103ce578063bf77ffae146103f9578063d05c28cb14610436578063db3a13961461047357610114565b806378c5b268146102e7578063801d9bbd146103035780639703ef351461032e5780639979ef451461034a5780639db70fad1461036657610114565b8063356e6206116100e7578063356e6206146101da57806344e791e0146102175780634d46712d146102425780636e5b0f001461027f578063733672f4146102aa57610114565b80630f38f2b1146101195780631628e0f514610144578063266001d3146101605780632db6dfa71461019d575b600080fd5b34801561012557600080fd5b5061012e6104b0565b60405161013b9190611c6e565b60405180910390f35b61015e60048036038101906101599190611a10565b61051c565b005b34801561016c57600080fd5b5061018760048036038101906101829190611998565b6107f8565b6040516101949190611c6e565b60405180910390f35b3480156101a957600080fd5b506101c460048036038101906101bf9190611a10565b610824565b6040516101d19190611d30565b60405180910390f35b3480156101e657600080fd5b5061020160048036038101906101fc9190611a10565b610844565b60405161020e9190611d30565b60405180910390f35b34801561022357600080fd5b5061022c610864565b6040516102399190611c6e565b60405180910390f35b34801561024e57600080fd5b5061026960048036038101906102649190611a10565b6108d0565b6040516102769190611c53565b60405180910390f35b34801561028b57600080fd5b506102946108fd565b6040516102a19190611d30565b60405180910390f35b3480156102b657600080fd5b506102d160048036038101906102cc9190611a10565b610903565b6040516102de9190611d30565b60405180910390f35b61030160048036038101906102fc9190611a10565b610923565b005b34801561030f57600080fd5b50610318610a60565b6040516103259190611d30565b60405180910390f35b61034860048036038101906103439190611a10565b610a66565b005b610364600480360381019061035f9190611a10565b610d42565b005b34801561037257600080fd5b5061038d60048036038101906103889190611a10565b610e7f565b60405161039a9190611d30565b60405180910390f35b3480156103af57600080fd5b506103b8610e9f565b6040516103c59190611d30565b60405180910390f35b3480156103da57600080fd5b506103e3610ea5565b6040516103f09190611d30565b60405180910390f35b34801561040557600080fd5b50610420600480360381019061041b9190611a10565b610eab565b60405161042d9190611c53565b60405180910390f35b34801561044257600080fd5b5061045d60048036038101906104589190611a10565b610ed8565b60405161046a9190611d30565b60405180910390f35b34801561047f57600080fd5b5061049a60048036038101906104959190611a10565b610ef8565b6040516104a79190611d30565b60405180910390f35b60606000600454905060006040518060200160405280600081525090505b600082146105145760006003600084815260200190815260200160002060050154905060006104fc84610f18565b905061050883826107f8565b925081935050506104ce565b809250505090565b600660008281526020019081526020016000206040518060e00160405290816000820160009054906101000a900473ffffffffffffffffffffffffffffffffffffffff1673ffffffffffffffffffffffffffffffffffffffff1673ffffffffffffffffffffffffffffffffffffffff16815260200160018201548152602001600282015481526020016003820160009054906101000a900460ff1660018111156105c9576105c861209b565b5b60018111156105db576105da61209b565b5b81526020016004820154815260200160058201548152602001600682015481525050600060018111156106115761061061209b565b5b816060015160018111156106285761062761209b565b5b14610668576040517f08c379a000000000000000000000000000000000000000000000000000000000815260040161065f90611cb0565b60405180910390fd5b600660008381526020019081526020016000206040518060e00160405290816000820160009054906101000a900473ffffffffffffffffffffffffffffffffffffffff1673ffffffffffffffffffffffffffffffffffffffff1673ffffffffffffffffffffffffffffffffffffffff16815260200160018201548152602001600282015481526020016003820160009054906101000a900460ff1660018111156107155761071461209b565b5b60018111156107275761072661209b565b5b81526020016004820154815260200160058201548152602001600682015481525050338073ffffffffffffffffffffffffffffffffffffffff16826000015173ffffffffffffffffffffffffffffffffffffffff16146107bc576040517f08c379a00000000000000000000000000000000000000000000000000000000081526004016107b390611c90565b60405180910390fd5b60003460066000878152602001908152602001600020600101546107e09190611ea9565b90506107eb85611079565b6000339050505050505050565b6060828260405160200161080d929190611bb5565b604051602081830303815290604052905092915050565b600060036000838152602001908152602001600020600101549050919050565b600060036000838152602001908152602001600020600601549050919050565b60606000600754905060006040518060200160405280600081525090505b600082146108c85760006006600084815260200190815260200160002060050154905060006108b084610f18565b90506108bc83826107f8565b92508193505050610882565b809250505090565b60006006600083815260200190815260200160002060030160009054906101000a900460ff169050919050565b60045481565b600060066000838152602001908152602001600020600501549050919050565b6000811015610967576040517f08c379a000000000000000000000000000000000000000000000000000000000815260040161095e90611cf0565b60405180910390fd5b803410156109aa576040517f08c379a00000000000000000000000000000000000000000000000000000000081526004016109a190611d10565b60405180910390fd5b60004290506000606460025460646109c29190611ea9565b346109cd9190611e4f565b6109d79190611e1e565b905060006109e633838561118c565b90506109f181611324565b600160009054906101000a900473ffffffffffffffffffffffffffffffffffffffff1673ffffffffffffffffffffffffffffffffffffffff166108fc839081150290604051600060405180830381858888f19350505050158015610a59573d6000803e3d6000fd5b5050505050565b60075481565b600360008281526020019081526020016000206040518060e00160405290816000820160009054906101000a900473ffffffffffffffffffffffffffffffffffffffff1673ffffffffffffffffffffffffffffffffffffffff1673ffffffffffffffffffffffffffffffffffffffff16815260200160018201548152602001600282015481526020016003820160009054906101000a900460ff166001811115610b1357610b1261209b565b5b6001811115610b2557610b2461209b565b5b8152602001600482015481526020016005820154815260200160068201548152505060006001811115610b5b57610b5a61209b565b5b81606001516001811115610b7257610b7161209b565b5b14610bb2576040517f08c379a0000000000000000000000000000000000000000000000000000000008152600401610ba990611cb0565b60405180910390fd5b600360008381526020019081526020016000206040518060e00160405290816000820160009054906101000a900473ffffffffffffffffffffffffffffffffffffffff1673ffffffffffffffffffffffffffffffffffffffff1673ffffffffffffffffffffffffffffffffffffffff16815260200160018201548152602001600282015481526020016003820160009054906101000a900460ff166001811115610c5f57610c5e61209b565b5b6001811115610c7157610c7061209b565b5b81526020016004820154815260200160058201548152602001600682015481525050338073ffffffffffffffffffffffffffffffffffffffff16826000015173ffffffffffffffffffffffffffffffffffffffff1614610d06576040517f08c379a0000000000000000000000000000000000000000000000000000000008152600401610cfd90611c90565b60405180910390fd5b6000346003600087815260200190815260200160002060010154610d2a9190611ea9565b9050610d3585611079565b6000339050505050505050565b6000811015610d86576040517f08c379a0000000000000000000000000000000000000000000000000000000008152600401610d7d90611cf0565b60405180910390fd5b80341015610dc9576040517f08c379a0000000000000000000000000000000000000000000000000000000008152600401610dc090611cd0565b60405180910390fd5b6000429050600060646002546064610de19190611ea9565b34610dec9190611e4f565b610df69190611e1e565b90506000610e0533838561151d565b9050610e10816116b5565b600160009054906101000a900473ffffffffffffffffffffffffffffffffffffffff1673ffffffffffffffffffffffffffffffffffffffff166108fc839081150290604051600060405180830381858888f19350505050158015610e78573d6000803e3d6000fd5b5050505050565b600060036000838152602001908152602001600020600501549050919050565b60085481565b60055481565b60006003600083815260200190815260200160002060030160009054906101000a900460ff169050919050565b600060066000838152602001908152602001600020600601549050919050565b600060066000838152602001908152602001600020600101549050919050565b60606000821415610f60576040518060400160405280600181526020017f30000000000000000000000000000000000000000000000000000000000000008152509050611074565b600082905060005b60008214610f92578080610f7b90611fc3565b915050600a82610f8b9190611e1e565b9150610f68565b60008167ffffffffffffffff811115610fae57610fad6120f9565b5b6040519080825280601f01601f191660200182016040528015610fe05781602001600182028036833780820191505090505b5090505b6000851461106d57600182610ff99190611ea9565b9150600a85611008919061200c565b60306110149190611dc8565b60f81b81838151811061102a576110296120ca565b5b60200101907effffffffffffffffffffffffffffffffffffffffffffffffffffffffffffff1916908160001a905350600a856110669190611e1e565b9450610fe4565b8093505050505b919050565b6000600754148061108a5750600081145b1561109457611189565b8060075414156110bc5760066000828152602001908152602001600020600501546007819055505b60006006600083815260200190815260200160002060050154146111225760066000828152602001908152602001600020600601546006600060066000858152602001908152602001600020600501548152602001908152602001600020600601819055505b60006006600083815260200190815260200160002060060154146111885760066000828152602001908152602001600020600501546006600060066000858152602001908152602001600020600601548152602001908152602001600020600501819055505b5b50565b6111946118ae565b600860008154809291906111a790611fc3565b919050555060006040518060e001604052808673ffffffffffffffffffffffffffffffffffffffff168152602001858152602001848152602001600060018111156111f5576111f461209b565b5b8152602001600854815260200160008152602001600081525090508060066000600854815260200190815260200160002060008201518160000160006101000a81548173ffffffffffffffffffffffffffffffffffffffff021916908373ffffffffffffffffffffffffffffffffffffffff160217905550602082015181600101556040820151816002015560608201518160030160006101000a81548160ff021916908360018111156112ac576112ab61209b565b5b02179055506080820151816004015560a0820151816005015560c082015181600601559050507fb363d8961e2dcc4e4f9cafac06e22ffe5a3ee9b47f614e483f989b932167e86585858560006008546000806040516113119796959493929190611be4565b60405180910390a1809150509392505050565b6000806007541415611340578160800151600781905550611519565b816020015160066000600754815260200190815260200160002060010154106113cd576007546006600084608001518152602001908152602001600020600501819055508160800151600660006006600086608001518152602001908152602001600020600501548152602001908152602001600020600601819055508160800151600781905550611518565b60075490505b600060066000838152602001908152602001600020600501541415801561142957508160200151600660006006600085815260200190815260200160002060050154815260200190815260200160002060010154105b1561144c57600660008281526020019081526020016000206005015490506113d3565b600660008281526020019081526020016000206005015460066000846080015181526020019081526020016000206005018190555060006006600083815260200190815260200160002060050154146114d9578160800151600660006006600086608001518152602001908152602001600020600501548152602001908152602001600020600601819055505b81608001516006600083815260200190815260200160002060050181905550806006600084608001518152602001908152602001600020600601819055505b5b5050565b6115256118ae565b6005600081548092919061153890611fc3565b919050555060006040518060e001604052808673ffffffffffffffffffffffffffffffffffffffff168152602001858152602001848152602001600060018111156115865761158561209b565b5b8152602001600554815260200160008152602001600081525090508060036000600554815260200190815260200160002060008201518160000160006101000a81548173ffffffffffffffffffffffffffffffffffffffff021916908373ffffffffffffffffffffffffffffffffffffffff160217905550602082015181600101556040820151816002015560608201518160030160006101000a81548160ff0219169083600181111561163d5761163c61209b565b5b02179055506080820151816004015560a0820151816005015560c082015181600601559050507fb363d8961e2dcc4e4f9cafac06e22ffe5a3ee9b47f614e483f989b932167e86585858560006005546000806040516116a29796959493929190611be4565b60405180910390a1809150509392505050565b60008060045414156116d15781608001516004819055506118aa565b8160200151600360006004548152602001908152602001600020600101541161175e5760045460036000846080015181526020019081526020016000206005018190555081608001516003600060036000866080015181526020019081526020016000206005015481526020019081526020016000206006018190555081608001516004819055506118a9565b60045490505b60006003600083815260200190815260200160002060050154141580156117ba57508160200151600360006003600085815260200190815260200160002060050154815260200190815260200160002060010154115b156117dd5760036000828152602001908152602001600020600501549050611764565b6003600082815260200190815260200160002060050154600360008460800151815260200190815260200160002060050181905550600060036000838152602001908152602001600020600501541461186a578160800151600360006003600086608001518152602001908152602001600020600501548152602001908152602001600020600601819055505b81608001516003600083815260200190815260200160002060050181905550806003600084608001518152602001908152602001600020600601819055505b5b5050565b6040518060e00160405280600073ffffffffffffffffffffffffffffffffffffffff1681526020016000815260200160008152602001600060018111156118f8576118f761209b565b5b81526020016000815260200160008152602001600081525090565b600061192661192184611d70565b611d4b565b9050828152602081018484840111156119425761194161212d565b5b61194d848285611f50565b509392505050565b600082601f83011261196a57611969612128565b5b813561197a848260208601611913565b91505092915050565b60008135905061199281612257565b92915050565b600080604083850312156119af576119ae612137565b5b600083013567ffffffffffffffff8111156119cd576119cc612132565b5b6119d985828601611955565b925050602083013567ffffffffffffffff8111156119fa576119f9612132565b5b611a0685828601611955565b9150509250929050565b600060208284031215611a2657611a25612137565b5b6000611a3484828501611983565b91505092915050565b611a4681611edd565b82525050565b611a5581611f2c565b82525050565b611a6481611f3e565b82525050565b6000611a7582611da1565b611a7f8185611dac565b9350611a8f818560208601611f5f565b611a988161213c565b840191505092915050565b6000611aae82611da1565b611ab88185611dbd565b9350611ac8818560208601611f5f565b80840191505092915050565b6000611ae1600e83611dac565b9150611aec8261214d565b602082019050919050565b6000611b04600d83611dac565b9150611b0f82612176565b602082019050919050565b6000611b27600183611dbd565b9150611b328261219f565b600182019050919050565b6000611b4a601e83611dac565b9150611b55826121c8565b602082019050919050565b6000611b6d601f83611dac565b9150611b78826121f1565b602082019050919050565b6000611b90601e83611dac565b9150611b9b8261221a565b602082019050919050565b611baf81611f22565b82525050565b6000611bc18285611aa3565b9150611bcc82611b1a565b9150611bd88284611aa3565b91508190509392505050565b600060e082019050611bf9600083018a611a3d565b611c066020830189611ba6565b611c136040830188611ba6565b611c206060830187611a4c565b611c2d6080830186611ba6565b611c3a60a0830185611a5b565b611c4760c0830184611a5b565b98975050505050505050565b6000602082019050611c686000830184611a4c565b92915050565b60006020820190508181036000830152611c888184611a6a565b905092915050565b60006020820190508181036000830152611ca981611ad4565b9050919050565b60006020820190508181036000830152611cc981611af7565b9050919050565b60006020820190508181036000830152611ce981611b3d565b9050919050565b60006020820190508181036000830152611d0981611b60565b9050919050565b60006020820190508181036000830152611d2981611b83565b9050919050565b6000602082019050611d456000830184611ba6565b92915050565b6000611d55611d66565b9050611d618282611f92565b919050565b6000604051905090565b600067ffffffffffffffff821115611d8b57611d8a6120f9565b5b611d948261213c565b9050602081019050919050565b600081519050919050565b600082825260208201905092915050565b600081905092915050565b6000611dd382611f22565b9150611dde83611f22565b9250827fffffffffffffffffffffffffffffffffffffffffffffffffffffffffffffffff03821115611e1357611e1261203d565b5b828201905092915050565b6000611e2982611f22565b9150611e3483611f22565b925082611e4457611e4361206c565b5b828204905092915050565b6000611e5a82611f22565b9150611e6583611f22565b9250817fffffffffffffffffffffffffffffffffffffffffffffffffffffffffffffffff0483118215151615611e9e57611e9d61203d565b5b828202905092915050565b6000611eb482611f22565b9150611ebf83611f22565b925082821015611ed257611ed161203d565b5b828203905092915050565b6000611ee882611f02565b9050919050565b6000819050611efd82612243565b919050565b600073ffffffffffffffffffffffffffffffffffffffff82169050919050565b6000819050919050565b6000611f3782611eef565b9050919050565b6000611f4982611f22565b9050919050565b82818337600083830152505050565b60005b83811015611f7d578082015181840152602081019050611f62565b83811115611f8c576000848401525b50505050565b611f9b8261213c565b810181811067ffffffffffffffff82111715611fba57611fb96120f9565b5b80604052505050565b6000611fce82611f22565b91507fffffffffffffffffffffffffffffffffffffffffffffffffffffffffffffffff8214156120015761200061203d565b5b600182019050919050565b600061201782611f22565b915061202283611f22565b9250826120325761203161206c565b5b828206905092915050565b7f4e487b7100000000000000000000000000000000000000000000000000000000600052601160045260246000fd5b7f4e487b7100000000000000000000000000000000000000000000000000000000600052601260045260246000fd5b7f4e487b7100000000000000000000000000000000000000000000000000000000600052602160045260246000fd5b7f4e487b7100000000000000000000000000000000000000000000000000000000600052603260045260246000fd5b7f4e487b7100000000000000000000000000000000000000000000000000000000600052604160045260246000fd5b600080fd5b600080fd5b600080fd5b600080fd5b6000601f19601f8301169050919050565b7f4e6f7420417574686f7269736564000000000000000000000000000000000000600082015250565b7f4f726465722050656e64696e6700000000000000000000000000000000000000600082015250565b7f2000000000000000000000000000000000000000000000000000000000000000600082015250565b7f4e6f7420656e6f75676820626c616e636520746f20706c616365206269640000600082015250565b7f70726963652076616c7565206d757374206265206d6f7265207468616e203000600082015250565b7f4e6f7420656e6f75676820626c616e636520746f20706c6163652061736b0000600082015250565b600281106122545761225361209b565b5b50565b61226081611f22565b811461226b57600080fd5b5056fea2646970667358221220c47ac18b00ce66db6a1358acc1accc01fc12e1580743555e3966acaf8d52592564736f6c63430008070033",
					"opcodes": "PUSH1 0x80 PUSH1 0x40 MSTORE CALLER PUSH1 0x1 PUSH1 0x0 PUSH2 0x100 EXP DUP2 SLOAD DUP2 PUSH20 0xFFFFFFFFFFFFFFFFFFFFFFFFFFFFFFFFFFFFFFFF MUL NOT AND SWAP1 DUP4 PUSH20 0xFFFFFFFFFFFFFFFFFFFFFFFFFFFFFFFFFFFFFFFF AND MUL OR SWAP1 SSTORE POP CALLVALUE DUP1 ISZERO PUSH3 0x52 JUMPI PUSH1 0x0 DUP1 REVERT JUMPDEST POP PUSH1 0x40 MLOAD PUSH3 0x23CC CODESIZE SUB DUP1 PUSH3 0x23CC DUP4 CODECOPY DUP2 DUP2 ADD PUSH1 0x40 MSTORE DUP2 ADD SWAP1 PUSH3 0x78 SWAP2 SWAP1 PUSH3 0xBD JUMP JUMPDEST DUP1 PUSH1 0x2 DUP2 SWAP1 SSTORE POP PUSH1 0x0 PUSH1 0x4 DUP2 SWAP1 SSTORE POP PUSH1 0x0 PUSH1 0x5 DUP2 SWAP1 SSTORE POP PUSH1 0x0 PUSH1 0x7 DUP2 SWAP1 SSTORE POP PUSH1 0x0 PUSH1 0x8 DUP2 SWAP1 SSTORE POP POP PUSH3 0x118 JUMP JUMPDEST PUSH1 0x0 DUP2 MLOAD SWAP1 POP PUSH3 0xB7 DUP2 PUSH3 0xFE JUMP JUMPDEST SWAP3 SWAP2 POP POP JUMP JUMPDEST PUSH1 0x0 PUSH1 0x20 DUP3 DUP5 SUB SLT ISZERO PUSH3 0xD6 JUMPI PUSH3 0xD5 PUSH3 0xF9 JUMP JUMPDEST JUMPDEST PUSH1 0x0 PUSH3 0xE6 DUP5 DUP3 DUP6 ADD PUSH3 0xA6 JUMP JUMPDEST SWAP2 POP POP SWAP3 SWAP2 POP POP JUMP JUMPDEST PUSH1 0x0 DUP2 SWAP1 POP SWAP2 SWAP1 POP JUMP JUMPDEST PUSH1 0x0 DUP1 REVERT JUMPDEST PUSH3 0x109 DUP2 PUSH3 0xEF JUMP JUMPDEST DUP2 EQ PUSH3 0x115 JUMPI PUSH1 0x0 DUP1 REVERT JUMPDEST POP JUMP JUMPDEST PUSH2 0x22A4 DUP1 PUSH3 0x128 PUSH1 0x0 CODECOPY PUSH1 0x0 RETURN INVALID PUSH1 0x80 PUSH1 0x40 MSTORE PUSH1 0x4 CALLDATASIZE LT PUSH2 0x114 JUMPI PUSH1 0x0 CALLDATALOAD PUSH1 0xE0 SHR DUP1 PUSH4 0x78C5B268 GT PUSH2 0xA0 JUMPI DUP1 PUSH4 0xA394FDA7 GT PUSH2 0x64 JUMPI DUP1 PUSH4 0xA394FDA7 EQ PUSH2 0x3A3 JUMPI DUP1 PUSH4 0xB40A5627 EQ PUSH2 0x3CE JUMPI DUP1 PUSH4 0xBF77FFAE EQ PUSH2 0x3F9 JUMPI DUP1 PUSH4 0xD05C28CB EQ PUSH2 0x436 JUMPI DUP1 PUSH4 0xDB3A1396 EQ PUSH2 0x473 JUMPI PUSH2 0x114 JUMP JUMPDEST DUP1 PUSH4 0x78C5B268 EQ PUSH2 0x2E7 JUMPI DUP1 PUSH4 0x801D9BBD EQ PUSH2 0x303 JUMPI DUP1 PUSH4 0x9703EF35 EQ PUSH2 0x32E JUMPI DUP1 PUSH4 0x9979EF45 EQ PUSH2 0x34A JUMPI DUP1 PUSH4 0x9DB70FAD EQ PUSH2 0x366 JUMPI PUSH2 0x114 JUMP JUMPDEST DUP1 PUSH4 0x356E6206 GT PUSH2 0xE7 JUMPI DUP1 PUSH4 0x356E6206 EQ PUSH2 0x1DA JUMPI DUP1 PUSH4 0x44E791E0 EQ PUSH2 0x217 JUMPI DUP1 PUSH4 0x4D46712D EQ PUSH2 0x242 JUMPI DUP1 PUSH4 0x6E5B0F00 EQ PUSH2 0x27F JUMPI DUP1 PUSH4 0x733672F4 EQ PUSH2 0x2AA JUMPI PUSH2 0x114 JUMP JUMPDEST DUP1 PUSH4 0xF38F2B1 EQ PUSH2 0x119 JUMPI DUP1 PUSH4 0x1628E0F5 EQ PUSH2 0x144 JUMPI DUP1 PUSH4 0x266001D3 EQ PUSH2 0x160 JUMPI DUP1 PUSH4 0x2DB6DFA7 EQ PUSH2 0x19D JUMPI JUMPDEST PUSH1 0x0 DUP1 REVERT JUMPDEST CALLVALUE DUP1 ISZERO PUSH2 0x125 JUMPI PUSH1 0x0 DUP1 REVERT JUMPDEST POP PUSH2 0x12E PUSH2 0x4B0 JUMP JUMPDEST PUSH1 0x40 MLOAD PUSH2 0x13B SWAP2 SWAP1 PUSH2 0x1C6E JUMP JUMPDEST PUSH1 0x40 MLOAD DUP1 SWAP2 SUB SWAP1 RETURN JUMPDEST PUSH2 0x15E PUSH1 0x4 DUP1 CALLDATASIZE SUB DUP2 ADD SWAP1 PUSH2 0x159 SWAP2 SWAP1 PUSH2 0x1A10 JUMP JUMPDEST PUSH2 0x51C JUMP JUMPDEST STOP JUMPDEST CALLVALUE DUP1 ISZERO PUSH2 0x16C JUMPI PUSH1 0x0 DUP1 REVERT JUMPDEST POP PUSH2 0x187 PUSH1 0x4 DUP1 CALLDATASIZE SUB DUP2 ADD SWAP1 PUSH2 0x182 SWAP2 SWAP1 PUSH2 0x1998 JUMP JUMPDEST PUSH2 0x7F8 JUMP JUMPDEST PUSH1 0x40 MLOAD PUSH2 0x194 SWAP2 SWAP1 PUSH2 0x1C6E JUMP JUMPDEST PUSH1 0x40 MLOAD DUP1 SWAP2 SUB SWAP1 RETURN JUMPDEST CALLVALUE DUP1 ISZERO PUSH2 0x1A9 JUMPI PUSH1 0x0 DUP1 REVERT JUMPDEST POP PUSH2 0x1C4 PUSH1 0x4 DUP1 CALLDATASIZE SUB DUP2 ADD SWAP1 PUSH2 0x1BF SWAP2 SWAP1 PUSH2 0x1A10 JUMP JUMPDEST PUSH2 0x824 JUMP JUMPDEST PUSH1 0x40 MLOAD PUSH2 0x1D1 SWAP2 SWAP1 PUSH2 0x1D30 JUMP JUMPDEST PUSH1 0x40 MLOAD DUP1 SWAP2 SUB SWAP1 RETURN JUMPDEST CALLVALUE DUP1 ISZERO PUSH2 0x1E6 JUMPI PUSH1 0x0 DUP1 REVERT JUMPDEST POP PUSH2 0x201 PUSH1 0x4 DUP1 CALLDATASIZE SUB DUP2 ADD SWAP1 PUSH2 0x1FC SWAP2 SWAP1 PUSH2 0x1A10 JUMP JUMPDEST PUSH2 0x844 JUMP JUMPDEST PUSH1 0x40 MLOAD PUSH2 0x20E SWAP2 SWAP1 PUSH2 0x1D30 JUMP JUMPDEST PUSH1 0x40 MLOAD DUP1 SWAP2 SUB SWAP1 RETURN JUMPDEST CALLVALUE DUP1 ISZERO PUSH2 0x223 JUMPI PUSH1 0x0 DUP1 REVERT JUMPDEST POP PUSH2 0x22C PUSH2 0x864 JUMP JUMPDEST PUSH1 0x40 MLOAD PUSH2 0x239 SWAP2 SWAP1 PUSH2 0x1C6E JUMP JUMPDEST PUSH1 0x40 MLOAD DUP1 SWAP2 SUB SWAP1 RETURN JUMPDEST CALLVALUE DUP1 ISZERO PUSH2 0x24E JUMPI PUSH1 0x0 DUP1 REVERT JUMPDEST POP PUSH2 0x269 PUSH1 0x4 DUP1 CALLDATASIZE SUB DUP2 ADD SWAP1 PUSH2 0x264 SWAP2 SWAP1 PUSH2 0x1A10 JUMP JUMPDEST PUSH2 0x8D0 JUMP JUMPDEST PUSH1 0x40 MLOAD PUSH2 0x276 SWAP2 SWAP1 PUSH2 0x1C53 JUMP JUMPDEST PUSH1 0x40 MLOAD DUP1 SWAP2 SUB SWAP1 RETURN JUMPDEST CALLVALUE DUP1 ISZERO PUSH2 0x28B JUMPI PUSH1 0x0 DUP1 REVERT JUMPDEST POP PUSH2 0x294 PUSH2 0x8FD JUMP JUMPDEST PUSH1 0x40 MLOAD PUSH2 0x2A1 SWAP2 SWAP1 PUSH2 0x1D30 JUMP JUMPDEST PUSH1 0x40 MLOAD DUP1 SWAP2 SUB SWAP1 RETURN JUMPDEST CALLVALUE DUP1 ISZERO PUSH2 0x2B6 JUMPI PUSH1 0x0 DUP1 REVERT JUMPDEST POP PUSH2 0x2D1 PUSH1 0x4 DUP1 CALLDATASIZE SUB DUP2 ADD SWAP1 PUSH2 0x2CC SWAP2 SWAP1 PUSH2 0x1A10 JUMP JUMPDEST PUSH2 0x903 JUMP JUMPDEST PUSH1 0x40 MLOAD PUSH2 0x2DE SWAP2 SWAP1 PUSH2 0x1D30 JUMP JUMPDEST PUSH1 0x40 MLOAD DUP1 SWAP2 SUB SWAP1 RETURN JUMPDEST PUSH2 0x301 PUSH1 0x4 DUP1 CALLDATASIZE SUB DUP2 ADD SWAP1 PUSH2 0x2FC SWAP2 SWAP1 PUSH2 0x1A10 JUMP JUMPDEST PUSH2 0x923 JUMP JUMPDEST STOP JUMPDEST CALLVALUE DUP1 ISZERO PUSH2 0x30F JUMPI PUSH1 0x0 DUP1 REVERT JUMPDEST POP PUSH2 0x318 PUSH2 0xA60 JUMP JUMPDEST PUSH1 0x40 MLOAD PUSH2 0x325 SWAP2 SWAP1 PUSH2 0x1D30 JUMP JUMPDEST PUSH1 0x40 MLOAD DUP1 SWAP2 SUB SWAP1 RETURN JUMPDEST PUSH2 0x348 PUSH1 0x4 DUP1 CALLDATASIZE SUB DUP2 ADD SWAP1 PUSH2 0x343 SWAP2 SWAP1 PUSH2 0x1A10 JUMP JUMPDEST PUSH2 0xA66 JUMP JUMPDEST STOP JUMPDEST PUSH2 0x364 PUSH1 0x4 DUP1 CALLDATASIZE SUB DUP2 ADD SWAP1 PUSH2 0x35F SWAP2 SWAP1 PUSH2 0x1A10 JUMP JUMPDEST PUSH2 0xD42 JUMP JUMPDEST STOP JUMPDEST CALLVALUE DUP1 ISZERO PUSH2 0x372 JUMPI PUSH1 0x0 DUP1 REVERT JUMPDEST POP PUSH2 0x38D PUSH1 0x4 DUP1 CALLDATASIZE SUB DUP2 ADD SWAP1 PUSH2 0x388 SWAP2 SWAP1 PUSH2 0x1A10 JUMP JUMPDEST PUSH2 0xE7F JUMP JUMPDEST PUSH1 0x40 MLOAD PUSH2 0x39A SWAP2 SWAP1 PUSH2 0x1D30 JUMP JUMPDEST PUSH1 0x40 MLOAD DUP1 SWAP2 SUB SWAP1 RETURN JUMPDEST CALLVALUE DUP1 ISZERO PUSH2 0x3AF JUMPI PUSH1 0x0 DUP1 REVERT JUMPDEST POP PUSH2 0x3B8 PUSH2 0xE9F JUMP JUMPDEST PUSH1 0x40 MLOAD PUSH2 0x3C5 SWAP2 SWAP1 PUSH2 0x1D30 JUMP JUMPDEST PUSH1 0x40 MLOAD DUP1 SWAP2 SUB SWAP1 RETURN JUMPDEST CALLVALUE DUP1 ISZERO PUSH2 0x3DA JUMPI PUSH1 0x0 DUP1 REVERT JUMPDEST POP PUSH2 0x3E3 PUSH2 0xEA5 JUMP JUMPDEST PUSH1 0x40 MLOAD PUSH2 0x3F0 SWAP2 SWAP1 PUSH2 0x1D30 JUMP JUMPDEST PUSH1 0x40 MLOAD DUP1 SWAP2 SUB SWAP1 RETURN JUMPDEST CALLVALUE DUP1 ISZERO PUSH2 0x405 JUMPI PUSH1 0x0 DUP1 REVERT JUMPDEST POP PUSH2 0x420 PUSH1 0x4 DUP1 CALLDATASIZE SUB DUP2 ADD SWAP1 PUSH2 0x41B SWAP2 SWAP1 PUSH2 0x1A10 JUMP JUMPDEST PUSH2 0xEAB JUMP JUMPDEST PUSH1 0x40 MLOAD PUSH2 0x42D SWAP2 SWAP1 PUSH2 0x1C53 JUMP JUMPDEST PUSH1 0x40 MLOAD DUP1 SWAP2 SUB SWAP1 RETURN JUMPDEST CALLVALUE DUP1 ISZERO PUSH2 0x442 JUMPI PUSH1 0x0 DUP1 REVERT JUMPDEST POP PUSH2 0x45D PUSH1 0x4 DUP1 CALLDATASIZE SUB DUP2 ADD SWAP1 PUSH2 0x458 SWAP2 SWAP1 PUSH2 0x1A10 JUMP JUMPDEST PUSH2 0xED8 JUMP JUMPDEST PUSH1 0x40 MLOAD PUSH2 0x46A SWAP2 SWAP1 PUSH2 0x1D30 JUMP JUMPDEST PUSH1 0x40 MLOAD DUP1 SWAP2 SUB SWAP1 RETURN JUMPDEST CALLVALUE DUP1 ISZERO PUSH2 0x47F JUMPI PUSH1 0x0 DUP1 REVERT JUMPDEST POP PUSH2 0x49A PUSH1 0x4 DUP1 CALLDATASIZE SUB DUP2 ADD SWAP1 PUSH2 0x495 SWAP2 SWAP1 PUSH2 0x1A10 JUMP JUMPDEST PUSH2 0xEF8 JUMP JUMPDEST PUSH1 0x40 MLOAD PUSH2 0x4A7 SWAP2 SWAP1 PUSH2 0x1D30 JUMP JUMPDEST PUSH1 0x40 MLOAD DUP1 SWAP2 SUB SWAP1 RETURN JUMPDEST PUSH1 0x60 PUSH1 0x0 PUSH1 0x4 SLOAD SWAP1 POP PUSH1 0x0 PUSH1 0x40 MLOAD DUP1 PUSH1 0x20 ADD PUSH1 0x40 MSTORE DUP1 PUSH1 0x0 DUP2 MSTORE POP SWAP1 POP JUMPDEST PUSH1 0x0 DUP3 EQ PUSH2 0x514 JUMPI PUSH1 0x0 PUSH1 0x3 PUSH1 0x0 DUP5 DUP2 MSTORE PUSH1 0x20 ADD SWAP1 DUP2 MSTORE PUSH1 0x20 ADD PUSH1 0x0 KECCAK256 PUSH1 0x5 ADD SLOAD SWAP1 POP PUSH1 0x0 PUSH2 0x4FC DUP5 PUSH2 0xF18 JUMP JUMPDEST SWAP1 POP PUSH2 0x508 DUP4 DUP3 PUSH2 0x7F8 JUMP JUMPDEST SWAP3 POP DUP2 SWAP4 POP POP POP PUSH2 0x4CE JUMP JUMPDEST DUP1 SWAP3 POP POP POP SWAP1 JUMP JUMPDEST PUSH1 0x6 PUSH1 0x0 DUP3 DUP2 MSTORE PUSH1 0x20 ADD SWAP1 DUP2 MSTORE PUSH1 0x20 ADD PUSH1 0x0 KECCAK256 PUSH1 0x40 MLOAD DUP1 PUSH1 0xE0 ADD PUSH1 0x40 MSTORE SWAP1 DUP2 PUSH1 0x0 DUP3 ADD PUSH1 0x0 SWAP1 SLOAD SWAP1 PUSH2 0x100 EXP SWAP1 DIV PUSH20 0xFFFFFFFFFFFFFFFFFFFFFFFFFFFFFFFFFFFFFFFF AND PUSH20 0xFFFFFFFFFFFFFFFFFFFFFFFFFFFFFFFFFFFFFFFF AND PUSH20 0xFFFFFFFFFFFFFFFFFFFFFFFFFFFFFFFFFFFFFFFF AND DUP2 MSTORE PUSH1 0x20 ADD PUSH1 0x1 DUP3 ADD SLOAD DUP2 MSTORE PUSH1 0x20 ADD PUSH1 0x2 DUP3 ADD SLOAD DUP2 MSTORE PUSH1 0x20 ADD PUSH1 0x3 DUP3 ADD PUSH1 0x0 SWAP1 SLOAD SWAP1 PUSH2 0x100 EXP SWAP1 DIV PUSH1 0xFF AND PUSH1 0x1 DUP2 GT ISZERO PUSH2 0x5C9 JUMPI PUSH2 0x5C8 PUSH2 0x209B JUMP JUMPDEST JUMPDEST PUSH1 0x1 DUP2 GT ISZERO PUSH2 0x5DB JUMPI PUSH2 0x5DA PUSH2 0x209B JUMP JUMPDEST JUMPDEST DUP2 MSTORE PUSH1 0x20 ADD PUSH1 0x4 DUP3 ADD SLOAD DUP2 MSTORE PUSH1 0x20 ADD PUSH1 0x5 DUP3 ADD SLOAD DUP2 MSTORE PUSH1 0x20 ADD PUSH1 0x6 DUP3 ADD SLOAD DUP2 MSTORE POP POP PUSH1 0x0 PUSH1 0x1 DUP2 GT ISZERO PUSH2 0x611 JUMPI PUSH2 0x610 PUSH2 0x209B JUMP JUMPDEST JUMPDEST DUP2 PUSH1 0x60 ADD MLOAD PUSH1 0x1 DUP2 GT ISZERO PUSH2 0x628 JUMPI PUSH2 0x627 PUSH2 0x209B JUMP JUMPDEST JUMPDEST EQ PUSH2 0x668 JUMPI PUSH1 0x40 MLOAD PUSH32 0x8C379A000000000000000000000000000000000000000000000000000000000 DUP2 MSTORE PUSH1 0x4 ADD PUSH2 0x65F SWAP1 PUSH2 0x1CB0 JUMP JUMPDEST PUSH1 0x40 MLOAD DUP1 SWAP2 SUB SWAP1 REVERT JUMPDEST PUSH1 0x6 PUSH1 0x0 DUP4 DUP2 MSTORE PUSH1 0x20 ADD SWAP1 DUP2 MSTORE PUSH1 0x20 ADD PUSH1 0x0 KECCAK256 PUSH1 0x40 MLOAD DUP1 PUSH1 0xE0 ADD PUSH1 0x40 MSTORE SWAP1 DUP2 PUSH1 0x0 DUP3 ADD PUSH1 0x0 SWAP1 SLOAD SWAP1 PUSH2 0x100 EXP SWAP1 DIV PUSH20 0xFFFFFFFFFFFFFFFFFFFFFFFFFFFFFFFFFFFFFFFF AND PUSH20 0xFFFFFFFFFFFFFFFFFFFFFFFFFFFFFFFFFFFFFFFF AND PUSH20 0xFFFFFFFFFFFFFFFFFFFFFFFFFFFFFFFFFFFFFFFF AND DUP2 MSTORE PUSH1 0x20 ADD PUSH1 0x1 DUP3 ADD SLOAD DUP2 MSTORE PUSH1 0x20 ADD PUSH1 0x2 DUP3 ADD SLOAD DUP2 MSTORE PUSH1 0x20 ADD PUSH1 0x3 DUP3 ADD PUSH1 0x0 SWAP1 SLOAD SWAP1 PUSH2 0x100 EXP SWAP1 DIV PUSH1 0xFF AND PUSH1 0x1 DUP2 GT ISZERO PUSH2 0x715 JUMPI PUSH2 0x714 PUSH2 0x209B JUMP JUMPDEST JUMPDEST PUSH1 0x1 DUP2 GT ISZERO PUSH2 0x727 JUMPI PUSH2 0x726 PUSH2 0x209B JUMP JUMPDEST JUMPDEST DUP2 MSTORE PUSH1 0x20 ADD PUSH1 0x4 DUP3 ADD SLOAD DUP2 MSTORE PUSH1 0x20 ADD PUSH1 0x5 DUP3 ADD SLOAD DUP2 MSTORE PUSH1 0x20 ADD PUSH1 0x6 DUP3 ADD SLOAD DUP2 MSTORE POP POP CALLER DUP1 PUSH20 0xFFFFFFFFFFFFFFFFFFFFFFFFFFFFFFFFFFFFFFFF AND DUP3 PUSH1 0x0 ADD MLOAD PUSH20 0xFFFFFFFFFFFFFFFFFFFFFFFFFFFFFFFFFFFFFFFF AND EQ PUSH2 0x7BC JUMPI PUSH1 0x40 MLOAD PUSH32 0x8C379A000000000000000000000000000000000000000000000000000000000 DUP2 MSTORE PUSH1 0x4 ADD PUSH2 0x7B3 SWAP1 PUSH2 0x1C90 JUMP JUMPDEST PUSH1 0x40 MLOAD DUP1 SWAP2 SUB SWAP1 REVERT JUMPDEST PUSH1 0x0 CALLVALUE PUSH1 0x6 PUSH1 0x0 DUP8 DUP2 MSTORE PUSH1 0x20 ADD SWAP1 DUP2 MSTORE PUSH1 0x20 ADD PUSH1 0x0 KECCAK256 PUSH1 0x1 ADD SLOAD PUSH2 0x7E0 SWAP2 SWAP1 PUSH2 0x1EA9 JUMP JUMPDEST SWAP1 POP PUSH2 0x7EB DUP6 PUSH2 0x1079 JUMP JUMPDEST PUSH1 0x0 CALLER SWAP1 POP POP POP POP POP POP POP JUMP JUMPDEST PUSH1 0x60 DUP3 DUP3 PUSH1 0x40 MLOAD PUSH1 0x20 ADD PUSH2 0x80D SWAP3 SWAP2 SWAP1 PUSH2 0x1BB5 JUMP JUMPDEST PUSH1 0x40 MLOAD PUSH1 0x20 DUP2 DUP4 SUB SUB DUP2 MSTORE SWAP1 PUSH1 0x40 MSTORE SWAP1 POP SWAP3 SWAP2 POP POP JUMP JUMPDEST PUSH1 0x0 PUSH1 0x3 PUSH1 0x0 DUP4 DUP2 MSTORE PUSH1 0x20 ADD SWAP1 DUP2 MSTORE PUSH1 0x20 ADD PUSH1 0x0 KECCAK256 PUSH1 0x1 ADD SLOAD SWAP1 POP SWAP2 SWAP1 POP JUMP JUMPDEST PUSH1 0x0 PUSH1 0x3 PUSH1 0x0 DUP4 DUP2 MSTORE PUSH1 0x20 ADD SWAP1 DUP2 MSTORE PUSH1 0x20 ADD PUSH1 0x0 KECCAK256 PUSH1 0x6 ADD SLOAD SWAP1 POP SWAP2 SWAP1 POP JUMP JUMPDEST PUSH1 0x60 PUSH1 0x0 PUSH1 0x7 SLOAD SWAP1 POP PUSH1 0x0 PUSH1 0x40 MLOAD DUP1 PUSH1 0x20 ADD PUSH1 0x40 MSTORE DUP1 PUSH1 0x0 DUP2 MSTORE POP SWAP1 POP JUMPDEST PUSH1 0x0 DUP3 EQ PUSH2 0x8C8 JUMPI PUSH1 0x0 PUSH1 0x6 PUSH1 0x0 DUP5 DUP2 MSTORE PUSH1 0x20 ADD SWAP1 DUP2 MSTORE PUSH1 0x20 ADD PUSH1 0x0 KECCAK256 PUSH1 0x5 ADD SLOAD SWAP1 POP PUSH1 0x0 PUSH2 0x8B0 DUP5 PUSH2 0xF18 JUMP JUMPDEST SWAP1 POP PUSH2 0x8BC DUP4 DUP3 PUSH2 0x7F8 JUMP JUMPDEST SWAP3 POP DUP2 SWAP4 POP POP POP PUSH2 0x882 JUMP JUMPDEST DUP1 SWAP3 POP POP POP SWAP1 JUMP JUMPDEST PUSH1 0x0 PUSH1 0x6 PUSH1 0x0 DUP4 DUP2 MSTORE PUSH1 0x20 ADD SWAP1 DUP2 MSTORE PUSH1 0x20 ADD PUSH1 0x0 KECCAK256 PUSH1 0x3 ADD PUSH1 0x0 SWAP1 SLOAD SWAP1 PUSH2 0x100 EXP SWAP1 DIV PUSH1 0xFF AND SWAP1 POP SWAP2 SWAP1 POP JUMP JUMPDEST PUSH1 0x4 SLOAD DUP2 JUMP JUMPDEST PUSH1 0x0 PUSH1 0x6 PUSH1 0x0 DUP4 DUP2 MSTORE PUSH1 0x20 ADD SWAP1 DUP2 MSTORE PUSH1 0x20 ADD PUSH1 0x0 KECCAK256 PUSH1 0x5 ADD SLOAD SWAP1 POP SWAP2 SWAP1 POP JUMP JUMPDEST PUSH1 0x0 DUP2 LT ISZERO PUSH2 0x967 JUMPI PUSH1 0x40 MLOAD PUSH32 0x8C379A000000000000000000000000000000000000000000000000000000000 DUP2 MSTORE PUSH1 0x4 ADD PUSH2 0x95E SWAP1 PUSH2 0x1CF0 JUMP JUMPDEST PUSH1 0x40 MLOAD DUP1 SWAP2 SUB SWAP1 REVERT JUMPDEST DUP1 CALLVALUE LT ISZERO PUSH2 0x9AA JUMPI PUSH1 0x40 MLOAD PUSH32 0x8C379A000000000000000000000000000000000000000000000000000000000 DUP2 MSTORE PUSH1 0x4 ADD PUSH2 0x9A1 SWAP1 PUSH2 0x1D10 JUMP JUMPDEST PUSH1 0x40 MLOAD DUP1 SWAP2 SUB SWAP1 REVERT JUMPDEST PUSH1 0x0 TIMESTAMP SWAP1 POP PUSH1 0x0 PUSH1 0x64 PUSH1 0x2 SLOAD PUSH1 0x64 PUSH2 0x9C2 SWAP2 SWAP1 PUSH2 0x1EA9 JUMP JUMPDEST CALLVALUE PUSH2 0x9CD SWAP2 SWAP1 PUSH2 0x1E4F JUMP JUMPDEST PUSH2 0x9D7 SWAP2 SWAP1 PUSH2 0x1E1E JUMP JUMPDEST SWAP1 POP PUSH1 0x0 PUSH2 0x9E6 CALLER DUP4 DUP6 PUSH2 0x118C JUMP JUMPDEST SWAP1 POP PUSH2 0x9F1 DUP2 PUSH2 0x1324 JUMP JUMPDEST PUSH1 0x1 PUSH1 0x0 SWAP1 SLOAD SWAP1 PUSH2 0x100 EXP SWAP1 DIV PUSH20 0xFFFFFFFFFFFFFFFFFFFFFFFFFFFFFFFFFFFFFFFF AND PUSH20 0xFFFFFFFFFFFFFFFFFFFFFFFFFFFFFFFFFFFFFFFF AND PUSH2 0x8FC DUP4 SWAP1 DUP2 ISZERO MUL SWAP1 PUSH1 0x40 MLOAD PUSH1 0x0 PUSH1 0x40 MLOAD DUP1 DUP4 SUB DUP2 DUP6 DUP9 DUP9 CALL SWAP4 POP POP POP POP ISZERO DUP1 ISZERO PUSH2 0xA59 JUMPI RETURNDATASIZE PUSH1 0x0 DUP1 RETURNDATACOPY RETURNDATASIZE PUSH1 0x0 REVERT JUMPDEST POP POP POP POP POP JUMP JUMPDEST PUSH1 0x7 SLOAD DUP2 JUMP JUMPDEST PUSH1 0x3 PUSH1 0x0 DUP3 DUP2 MSTORE PUSH1 0x20 ADD SWAP1 DUP2 MSTORE PUSH1 0x20 ADD PUSH1 0x0 KECCAK256 PUSH1 0x40 MLOAD DUP1 PUSH1 0xE0 ADD PUSH1 0x40 MSTORE SWAP1 DUP2 PUSH1 0x0 DUP3 ADD PUSH1 0x0 SWAP1 SLOAD SWAP1 PUSH2 0x100 EXP SWAP1 DIV PUSH20 0xFFFFFFFFFFFFFFFFFFFFFFFFFFFFFFFFFFFFFFFF AND PUSH20 0xFFFFFFFFFFFFFFFFFFFFFFFFFFFFFFFFFFFFFFFF AND PUSH20 0xFFFFFFFFFFFFFFFFFFFFFFFFFFFFFFFFFFFFFFFF AND DUP2 MSTORE PUSH1 0x20 ADD PUSH1 0x1 DUP3 ADD SLOAD DUP2 MSTORE PUSH1 0x20 ADD PUSH1 0x2 DUP3 ADD SLOAD DUP2 MSTORE PUSH1 0x20 ADD PUSH1 0x3 DUP3 ADD PUSH1 0x0 SWAP1 SLOAD SWAP1 PUSH2 0x100 EXP SWAP1 DIV PUSH1 0xFF AND PUSH1 0x1 DUP2 GT ISZERO PUSH2 0xB13 JUMPI PUSH2 0xB12 PUSH2 0x209B JUMP JUMPDEST JUMPDEST PUSH1 0x1 DUP2 GT ISZERO PUSH2 0xB25 JUMPI PUSH2 0xB24 PUSH2 0x209B JUMP JUMPDEST JUMPDEST DUP2 MSTORE PUSH1 0x20 ADD PUSH1 0x4 DUP3 ADD SLOAD DUP2 MSTORE PUSH1 0x20 ADD PUSH1 0x5 DUP3 ADD SLOAD DUP2 MSTORE PUSH1 0x20 ADD PUSH1 0x6 DUP3 ADD SLOAD DUP2 MSTORE POP POP PUSH1 0x0 PUSH1 0x1 DUP2 GT ISZERO PUSH2 0xB5B JUMPI PUSH2 0xB5A PUSH2 0x209B JUMP JUMPDEST JUMPDEST DUP2 PUSH1 0x60 ADD MLOAD PUSH1 0x1 DUP2 GT ISZERO PUSH2 0xB72 JUMPI PUSH2 0xB71 PUSH2 0x209B JUMP JUMPDEST JUMPDEST EQ PUSH2 0xBB2 JUMPI PUSH1 0x40 MLOAD PUSH32 0x8C379A000000000000000000000000000000000000000000000000000000000 DUP2 MSTORE PUSH1 0x4 ADD PUSH2 0xBA9 SWAP1 PUSH2 0x1CB0 JUMP JUMPDEST PUSH1 0x40 MLOAD DUP1 SWAP2 SUB SWAP1 REVERT JUMPDEST PUSH1 0x3 PUSH1 0x0 DUP4 DUP2 MSTORE PUSH1 0x20 ADD SWAP1 DUP2 MSTORE PUSH1 0x20 ADD PUSH1 0x0 KECCAK256 PUSH1 0x40 MLOAD DUP1 PUSH1 0xE0 ADD PUSH1 0x40 MSTORE SWAP1 DUP2 PUSH1 0x0 DUP3 ADD PUSH1 0x0 SWAP1 SLOAD SWAP1 PUSH2 0x100 EXP SWAP1 DIV PUSH20 0xFFFFFFFFFFFFFFFFFFFFFFFFFFFFFFFFFFFFFFFF AND PUSH20 0xFFFFFFFFFFFFFFFFFFFFFFFFFFFFFFFFFFFFFFFF AND PUSH20 0xFFFFFFFFFFFFFFFFFFFFFFFFFFFFFFFFFFFFFFFF AND DUP2 MSTORE PUSH1 0x20 ADD PUSH1 0x1 DUP3 ADD SLOAD DUP2 MSTORE PUSH1 0x20 ADD PUSH1 0x2 DUP3 ADD SLOAD DUP2 MSTORE PUSH1 0x20 ADD PUSH1 0x3 DUP3 ADD PUSH1 0x0 SWAP1 SLOAD SWAP1 PUSH2 0x100 EXP SWAP1 DIV PUSH1 0xFF AND PUSH1 0x1 DUP2 GT ISZERO PUSH2 0xC5F JUMPI PUSH2 0xC5E PUSH2 0x209B JUMP JUMPDEST JUMPDEST PUSH1 0x1 DUP2 GT ISZERO PUSH2 0xC71 JUMPI PUSH2 0xC70 PUSH2 0x209B JUMP JUMPDEST JUMPDEST DUP2 MSTORE PUSH1 0x20 ADD PUSH1 0x4 DUP3 ADD SLOAD DUP2 MSTORE PUSH1 0x20 ADD PUSH1 0x5 DUP3 ADD SLOAD DUP2 MSTORE PUSH1 0x20 ADD PUSH1 0x6 DUP3 ADD SLOAD DUP2 MSTORE POP POP CALLER DUP1 PUSH20 0xFFFFFFFFFFFFFFFFFFFFFFFFFFFFFFFFFFFFFFFF AND DUP3 PUSH1 0x0 ADD MLOAD PUSH20 0xFFFFFFFFFFFFFFFFFFFFFFFFFFFFFFFFFFFFFFFF AND EQ PUSH2 0xD06 JUMPI PUSH1 0x40 MLOAD PUSH32 0x8C379A000000000000000000000000000000000000000000000000000000000 DUP2 MSTORE PUSH1 0x4 ADD PUSH2 0xCFD SWAP1 PUSH2 0x1C90 JUMP JUMPDEST PUSH1 0x40 MLOAD DUP1 SWAP2 SUB SWAP1 REVERT JUMPDEST PUSH1 0x0 CALLVALUE PUSH1 0x3 PUSH1 0x0 DUP8 DUP2 MSTORE PUSH1 0x20 ADD SWAP1 DUP2 MSTORE PUSH1 0x20 ADD PUSH1 0x0 KECCAK256 PUSH1 0x1 ADD SLOAD PUSH2 0xD2A SWAP2 SWAP1 PUSH2 0x1EA9 JUMP JUMPDEST SWAP1 POP PUSH2 0xD35 DUP6 PUSH2 0x1079 JUMP JUMPDEST PUSH1 0x0 CALLER SWAP1 POP POP POP POP POP POP POP JUMP JUMPDEST PUSH1 0x0 DUP2 LT ISZERO PUSH2 0xD86 JUMPI PUSH1 0x40 MLOAD PUSH32 0x8C379A000000000000000000000000000000000000000000000000000000000 DUP2 MSTORE PUSH1 0x4 ADD PUSH2 0xD7D SWAP1 PUSH2 0x1CF0 JUMP JUMPDEST PUSH1 0x40 MLOAD DUP1 SWAP2 SUB SWAP1 REVERT JUMPDEST DUP1 CALLVALUE LT ISZERO PUSH2 0xDC9 JUMPI PUSH1 0x40 MLOAD PUSH32 0x8C379A000000000000000000000000000000000000000000000000000000000 DUP2 MSTORE PUSH1 0x4 ADD PUSH2 0xDC0 SWAP1 PUSH2 0x1CD0 JUMP JUMPDEST PUSH1 0x40 MLOAD DUP1 SWAP2 SUB SWAP1 REVERT JUMPDEST PUSH1 0x0 TIMESTAMP SWAP1 POP PUSH1 0x0 PUSH1 0x64 PUSH1 0x2 SLOAD PUSH1 0x64 PUSH2 0xDE1 SWAP2 SWAP1 PUSH2 0x1EA9 JUMP JUMPDEST CALLVALUE PUSH2 0xDEC SWAP2 SWAP1 PUSH2 0x1E4F JUMP JUMPDEST PUSH2 0xDF6 SWAP2 SWAP1 PUSH2 0x1E1E JUMP JUMPDEST SWAP1 POP PUSH1 0x0 PUSH2 0xE05 CALLER DUP4 DUP6 PUSH2 0x151D JUMP JUMPDEST SWAP1 POP PUSH2 0xE10 DUP2 PUSH2 0x16B5 JUMP JUMPDEST PUSH1 0x1 PUSH1 0x0 SWAP1 SLOAD SWAP1 PUSH2 0x100 EXP SWAP1 DIV PUSH20 0xFFFFFFFFFFFFFFFFFFFFFFFFFFFFFFFFFFFFFFFF AND PUSH20 0xFFFFFFFFFFFFFFFFFFFFFFFFFFFFFFFFFFFFFFFF AND PUSH2 0x8FC DUP4 SWAP1 DUP2 ISZERO MUL SWAP1 PUSH1 0x40 MLOAD PUSH1 0x0 PUSH1 0x40 MLOAD DUP1 DUP4 SUB DUP2 DUP6 DUP9 DUP9 CALL SWAP4 POP POP POP POP ISZERO DUP1 ISZERO PUSH2 0xE78 JUMPI RETURNDATASIZE PUSH1 0x0 DUP1 RETURNDATACOPY RETURNDATASIZE PUSH1 0x0 REVERT JUMPDEST POP POP POP POP POP JUMP JUMPDEST PUSH1 0x0 PUSH1 0x3 PUSH1 0x0 DUP4 DUP2 MSTORE PUSH1 0x20 ADD SWAP1 DUP2 MSTORE PUSH1 0x20 ADD PUSH1 0x0 KECCAK256 PUSH1 0x5 ADD SLOAD SWAP1 POP SWAP2 SWAP1 POP JUMP JUMPDEST PUSH1 0x8 SLOAD DUP2 JUMP JUMPDEST PUSH1 0x5 SLOAD DUP2 JUMP JUMPDEST PUSH1 0x0 PUSH1 0x3 PUSH1 0x0 DUP4 DUP2 MSTORE PUSH1 0x20 ADD SWAP1 DUP2 MSTORE PUSH1 0x20 ADD PUSH1 0x0 KECCAK256 PUSH1 0x3 ADD PUSH1 0x0 SWAP1 SLOAD SWAP1 PUSH2 0x100 EXP SWAP1 DIV PUSH1 0xFF AND SWAP1 POP SWAP2 SWAP1 POP JUMP JUMPDEST PUSH1 0x0 PUSH1 0x6 PUSH1 0x0 DUP4 DUP2 MSTORE PUSH1 0x20 ADD SWAP1 DUP2 MSTORE PUSH1 0x20 ADD PUSH1 0x0 KECCAK256 PUSH1 0x6 ADD SLOAD SWAP1 POP SWAP2 SWAP1 POP JUMP JUMPDEST PUSH1 0x0 PUSH1 0x6 PUSH1 0x0 DUP4 DUP2 MSTORE PUSH1 0x20 ADD SWAP1 DUP2 MSTORE PUSH1 0x20 ADD PUSH1 0x0 KECCAK256 PUSH1 0x1 ADD SLOAD SWAP1 POP SWAP2 SWAP1 POP JUMP JUMPDEST PUSH1 0x60 PUSH1 0x0 DUP3 EQ ISZERO PUSH2 0xF60 JUMPI PUSH1 0x40 MLOAD DUP1 PUSH1 0x40 ADD PUSH1 0x40 MSTORE DUP1 PUSH1 0x1 DUP2 MSTORE PUSH1 0x20 ADD PUSH32 0x3000000000000000000000000000000000000000000000000000000000000000 DUP2 MSTORE POP SWAP1 POP PUSH2 0x1074 JUMP JUMPDEST PUSH1 0x0 DUP3 SWAP1 POP PUSH1 0x0 JUMPDEST PUSH1 0x0 DUP3 EQ PUSH2 0xF92 JUMPI DUP1 DUP1 PUSH2 0xF7B SWAP1 PUSH2 0x1FC3 JUMP JUMPDEST SWAP2 POP POP PUSH1 0xA DUP3 PUSH2 0xF8B SWAP2 SWAP1 PUSH2 0x1E1E JUMP JUMPDEST SWAP2 POP PUSH2 0xF68 JUMP JUMPDEST PUSH1 0x0 DUP2 PUSH8 0xFFFFFFFFFFFFFFFF DUP2 GT ISZERO PUSH2 0xFAE JUMPI PUSH2 0xFAD PUSH2 0x20F9 JUMP JUMPDEST JUMPDEST PUSH1 0x40 MLOAD SWAP1 DUP1 DUP3 MSTORE DUP1 PUSH1 0x1F ADD PUSH1 0x1F NOT AND PUSH1 0x20 ADD DUP3 ADD PUSH1 0x40 MSTORE DUP1 ISZERO PUSH2 0xFE0 JUMPI DUP2 PUSH1 0x20 ADD PUSH1 0x1 DUP3 MUL DUP1 CALLDATASIZE DUP4 CALLDATACOPY DUP1 DUP3 ADD SWAP2 POP POP SWAP1 POP JUMPDEST POP SWAP1 POP JUMPDEST PUSH1 0x0 DUP6 EQ PUSH2 0x106D JUMPI PUSH1 0x1 DUP3 PUSH2 0xFF9 SWAP2 SWAP1 PUSH2 0x1EA9 JUMP JUMPDEST SWAP2 POP PUSH1 0xA DUP6 PUSH2 0x1008 SWAP2 SWAP1 PUSH2 0x200C JUMP JUMPDEST PUSH1 0x30 PUSH2 0x1014 SWAP2 SWAP1 PUSH2 0x1DC8 JUMP JUMPDEST PUSH1 0xF8 SHL DUP2 DUP4 DUP2 MLOAD DUP2 LT PUSH2 0x102A JUMPI PUSH2 0x1029 PUSH2 0x20CA JUMP JUMPDEST JUMPDEST PUSH1 0x20 ADD ADD SWAP1 PUSH31 0xFFFFFFFFFFFFFFFFFFFFFFFFFFFFFFFFFFFFFFFFFFFFFFFFFFFFFFFFFFFFFF NOT AND SWAP1 DUP2 PUSH1 0x0 BYTE SWAP1 MSTORE8 POP PUSH1 0xA DUP6 PUSH2 0x1066 SWAP2 SWAP1 PUSH2 0x1E1E JUMP JUMPDEST SWAP5 POP PUSH2 0xFE4 JUMP JUMPDEST DUP1 SWAP4 POP POP POP POP JUMPDEST SWAP2 SWAP1 POP JUMP JUMPDEST PUSH1 0x0 PUSH1 0x7 SLOAD EQ DUP1 PUSH2 0x108A JUMPI POP PUSH1 0x0 DUP2 EQ JUMPDEST ISZERO PUSH2 0x1094 JUMPI PUSH2 0x1189 JUMP JUMPDEST DUP1 PUSH1 0x7 SLOAD EQ ISZERO PUSH2 0x10BC JUMPI PUSH1 0x6 PUSH1 0x0 DUP3 DUP2 MSTORE PUSH1 0x20 ADD SWAP1 DUP2 MSTORE PUSH1 0x20 ADD PUSH1 0x0 KECCAK256 PUSH1 0x5 ADD SLOAD PUSH1 0x7 DUP2 SWAP1 SSTORE POP JUMPDEST PUSH1 0x0 PUSH1 0x6 PUSH1 0x0 DUP4 DUP2 MSTORE PUSH1 0x20 ADD SWAP1 DUP2 MSTORE PUSH1 0x20 ADD PUSH1 0x0 KECCAK256 PUSH1 0x5 ADD SLOAD EQ PUSH2 0x1122 JUMPI PUSH1 0x6 PUSH1 0x0 DUP3 DUP2 MSTORE PUSH1 0x20 ADD SWAP1 DUP2 MSTORE PUSH1 0x20 ADD PUSH1 0x0 KECCAK256 PUSH1 0x6 ADD SLOAD PUSH1 0x6 PUSH1 0x0 PUSH1 0x6 PUSH1 0x0 DUP6 DUP2 MSTORE PUSH1 0x20 ADD SWAP1 DUP2 MSTORE PUSH1 0x20 ADD PUSH1 0x0 KECCAK256 PUSH1 0x5 ADD SLOAD DUP2 MSTORE PUSH1 0x20 ADD SWAP1 DUP2 MSTORE PUSH1 0x20 ADD PUSH1 0x0 KECCAK256 PUSH1 0x6 ADD DUP2 SWAP1 SSTORE POP JUMPDEST PUSH1 0x0 PUSH1 0x6 PUSH1 0x0 DUP4 DUP2 MSTORE PUSH1 0x20 ADD SWAP1 DUP2 MSTORE PUSH1 0x20 ADD PUSH1 0x0 KECCAK256 PUSH1 0x6 ADD SLOAD EQ PUSH2 0x1188 JUMPI PUSH1 0x6 PUSH1 0x0 DUP3 DUP2 MSTORE PUSH1 0x20 ADD SWAP1 DUP2 MSTORE PUSH1 0x20 ADD PUSH1 0x0 KECCAK256 PUSH1 0x5 ADD SLOAD PUSH1 0x6 PUSH1 0x0 PUSH1 0x6 PUSH1 0x0 DUP6 DUP2 MSTORE PUSH1 0x20 ADD SWAP1 DUP2 MSTORE PUSH1 0x20 ADD PUSH1 0x0 KECCAK256 PUSH1 0x6 ADD SLOAD DUP2 MSTORE PUSH1 0x20 ADD SWAP1 DUP2 MSTORE PUSH1 0x20 ADD PUSH1 0x0 KECCAK256 PUSH1 0x5 ADD DUP2 SWAP1 SSTORE POP JUMPDEST JUMPDEST POP JUMP JUMPDEST PUSH2 0x1194 PUSH2 0x18AE JUMP JUMPDEST PUSH1 0x8 PUSH1 0x0 DUP2 SLOAD DUP1 SWAP3 SWAP2 SWAP1 PUSH2 0x11A7 SWAP1 PUSH2 0x1FC3 JUMP JUMPDEST SWAP2 SWAP1 POP SSTORE POP PUSH1 0x0 PUSH1 0x40 MLOAD DUP1 PUSH1 0xE0 ADD PUSH1 0x40 MSTORE DUP1 DUP7 PUSH20 0xFFFFFFFFFFFFFFFFFFFFFFFFFFFFFFFFFFFFFFFF AND DUP2 MSTORE PUSH1 0x20 ADD DUP6 DUP2 MSTORE PUSH1 0x20 ADD DUP5 DUP2 MSTORE PUSH1 0x20 ADD PUSH1 0x0 PUSH1 0x1 DUP2 GT ISZERO PUSH2 0x11F5 JUMPI PUSH2 0x11F4 PUSH2 0x209B JUMP JUMPDEST JUMPDEST DUP2 MSTORE PUSH1 0x20 ADD PUSH1 0x8 SLOAD DUP2 MSTORE PUSH1 0x20 ADD PUSH1 0x0 DUP2 MSTORE PUSH1 0x20 ADD PUSH1 0x0 DUP2 MSTORE POP SWAP1 POP DUP1 PUSH1 0x6 PUSH1 0x0 PUSH1 0x8 SLOAD DUP2 MSTORE PUSH1 0x20 ADD SWAP1 DUP2 MSTORE PUSH1 0x20 ADD PUSH1 0x0 KECCAK256 PUSH1 0x0 DUP3 ADD MLOAD DUP2 PUSH1 0x0 ADD PUSH1 0x0 PUSH2 0x100 EXP DUP2 SLOAD DUP2 PUSH20 0xFFFFFFFFFFFFFFFFFFFFFFFFFFFFFFFFFFFFFFFF MUL NOT AND SWAP1 DUP4 PUSH20 0xFFFFFFFFFFFFFFFFFFFFFFFFFFFFFFFFFFFFFFFF AND MUL OR SWAP1 SSTORE POP PUSH1 0x20 DUP3 ADD MLOAD DUP2 PUSH1 0x1 ADD SSTORE PUSH1 0x40 DUP3 ADD MLOAD DUP2 PUSH1 0x2 ADD SSTORE PUSH1 0x60 DUP3 ADD MLOAD DUP2 PUSH1 0x3 ADD PUSH1 0x0 PUSH2 0x100 EXP DUP2 SLOAD DUP2 PUSH1 0xFF MUL NOT AND SWAP1 DUP4 PUSH1 0x1 DUP2 GT ISZERO PUSH2 0x12AC JUMPI PUSH2 0x12AB PUSH2 0x209B JUMP JUMPDEST JUMPDEST MUL OR SWAP1 SSTORE POP PUSH1 0x80 DUP3 ADD MLOAD DUP2 PUSH1 0x4 ADD SSTORE PUSH1 0xA0 DUP3 ADD MLOAD DUP2 PUSH1 0x5 ADD SSTORE PUSH1 0xC0 DUP3 ADD MLOAD DUP2 PUSH1 0x6 ADD SSTORE SWAP1 POP POP PUSH32 0xB363D8961E2DCC4E4F9CAFAC06E22FFE5A3EE9B47F614E483F989B932167E865 DUP6 DUP6 DUP6 PUSH1 0x0 PUSH1 0x8 SLOAD PUSH1 0x0 DUP1 PUSH1 0x40 MLOAD PUSH2 0x1311 SWAP8 SWAP7 SWAP6 SWAP5 SWAP4 SWAP3 SWAP2 SWAP1 PUSH2 0x1BE4 JUMP JUMPDEST PUSH1 0x40 MLOAD DUP1 SWAP2 SUB SWAP1 LOG1 DUP1 SWAP2 POP POP SWAP4 SWAP3 POP POP POP JUMP JUMPDEST PUSH1 0x0 DUP1 PUSH1 0x7 SLOAD EQ ISZERO PUSH2 0x1340 JUMPI DUP2 PUSH1 0x80 ADD MLOAD PUSH1 0x7 DUP2 SWAP1 SSTORE POP PUSH2 0x1519 JUMP JUMPDEST DUP2 PUSH1 0x20 ADD MLOAD PUSH1 0x6 PUSH1 0x0 PUSH1 0x7 SLOAD DUP2 MSTORE PUSH1 0x20 ADD SWAP1 DUP2 MSTORE PUSH1 0x20 ADD PUSH1 0x0 KECCAK256 PUSH1 0x1 ADD SLOAD LT PUSH2 0x13CD JUMPI PUSH1 0x7 SLOAD PUSH1 0x6 PUSH1 0x0 DUP5 PUSH1 0x80 ADD MLOAD DUP2 MSTORE PUSH1 0x20 ADD SWAP1 DUP2 MSTORE PUSH1 0x20 ADD PUSH1 0x0 KECCAK256 PUSH1 0x5 ADD DUP2 SWAP1 SSTORE POP DUP2 PUSH1 0x80 ADD MLOAD PUSH1 0x6 PUSH1 0x0 PUSH1 0x6 PUSH1 0x0 DUP7 PUSH1 0x80 ADD MLOAD DUP2 MSTORE PUSH1 0x20 ADD SWAP1 DUP2 MSTORE PUSH1 0x20 ADD PUSH1 0x0 KECCAK256 PUSH1 0x5 ADD SLOAD DUP2 MSTORE PUSH1 0x20 ADD SWAP1 DUP2 MSTORE PUSH1 0x20 ADD PUSH1 0x0 KECCAK256 PUSH1 0x6 ADD DUP2 SWAP1 SSTORE POP DUP2 PUSH1 0x80 ADD MLOAD PUSH1 0x7 DUP2 SWAP1 SSTORE POP PUSH2 0x1518 JUMP JUMPDEST PUSH1 0x7 SLOAD SWAP1 POP JUMPDEST PUSH1 0x0 PUSH1 0x6 PUSH1 0x0 DUP4 DUP2 MSTORE PUSH1 0x20 ADD SWAP1 DUP2 MSTORE PUSH1 0x20 ADD PUSH1 0x0 KECCAK256 PUSH1 0x5 ADD SLOAD EQ ISZERO DUP1 ISZERO PUSH2 0x1429 JUMPI POP DUP2 PUSH1 0x20 ADD MLOAD PUSH1 0x6 PUSH1 0x0 PUSH1 0x6 PUSH1 0x0 DUP6 DUP2 MSTORE PUSH1 0x20 ADD SWAP1 DUP2 MSTORE PUSH1 0x20 ADD PUSH1 0x0 KECCAK256 PUSH1 0x5 ADD SLOAD DUP2 MSTORE PUSH1 0x20 ADD SWAP1 DUP2 MSTORE PUSH1 0x20 ADD PUSH1 0x0 KECCAK256 PUSH1 0x1 ADD SLOAD LT JUMPDEST ISZERO PUSH2 0x144C JUMPI PUSH1 0x6 PUSH1 0x0 DUP3 DUP2 MSTORE PUSH1 0x20 ADD SWAP1 DUP2 MSTORE PUSH1 0x20 ADD PUSH1 0x0 KECCAK256 PUSH1 0x5 ADD SLOAD SWAP1 POP PUSH2 0x13D3 JUMP JUMPDEST PUSH1 0x6 PUSH1 0x0 DUP3 DUP2 MSTORE PUSH1 0x20 ADD SWAP1 DUP2 MSTORE PUSH1 0x20 ADD PUSH1 0x0 KECCAK256 PUSH1 0x5 ADD SLOAD PUSH1 0x6 PUSH1 0x0 DUP5 PUSH1 0x80 ADD MLOAD DUP2 MSTORE PUSH1 0x20 ADD SWAP1 DUP2 MSTORE PUSH1 0x20 ADD PUSH1 0x0 KECCAK256 PUSH1 0x5 ADD DUP2 SWAP1 SSTORE POP PUSH1 0x0 PUSH1 0x6 PUSH1 0x0 DUP4 DUP2 MSTORE PUSH1 0x20 ADD SWAP1 DUP2 MSTORE PUSH1 0x20 ADD PUSH1 0x0 KECCAK256 PUSH1 0x5 ADD SLOAD EQ PUSH2 0x14D9 JUMPI DUP2 PUSH1 0x80 ADD MLOAD PUSH1 0x6 PUSH1 0x0 PUSH1 0x6 PUSH1 0x0 DUP7 PUSH1 0x80 ADD MLOAD DUP2 MSTORE PUSH1 0x20 ADD SWAP1 DUP2 MSTORE PUSH1 0x20 ADD PUSH1 0x0 KECCAK256 PUSH1 0x5 ADD SLOAD DUP2 MSTORE PUSH1 0x20 ADD SWAP1 DUP2 MSTORE PUSH1 0x20 ADD PUSH1 0x0 KECCAK256 PUSH1 0x6 ADD DUP2 SWAP1 SSTORE POP JUMPDEST DUP2 PUSH1 0x80 ADD MLOAD PUSH1 0x6 PUSH1 0x0 DUP4 DUP2 MSTORE PUSH1 0x20 ADD SWAP1 DUP2 MSTORE PUSH1 0x20 ADD PUSH1 0x0 KECCAK256 PUSH1 0x5 ADD DUP2 SWAP1 SSTORE POP DUP1 PUSH1 0x6 PUSH1 0x0 DUP5 PUSH1 0x80 ADD MLOAD DUP2 MSTORE PUSH1 0x20 ADD SWAP1 DUP2 MSTORE PUSH1 0x20 ADD PUSH1 0x0 KECCAK256 PUSH1 0x6 ADD DUP2 SWAP1 SSTORE POP JUMPDEST JUMPDEST POP POP JUMP JUMPDEST PUSH2 0x1525 PUSH2 0x18AE JUMP JUMPDEST PUSH1 0x5 PUSH1 0x0 DUP2 SLOAD DUP1 SWAP3 SWAP2 SWAP1 PUSH2 0x1538 SWAP1 PUSH2 0x1FC3 JUMP JUMPDEST SWAP2 SWAP1 POP SSTORE POP PUSH1 0x0 PUSH1 0x40 MLOAD DUP1 PUSH1 0xE0 ADD PUSH1 0x40 MSTORE DUP1 DUP7 PUSH20 0xFFFFFFFFFFFFFFFFFFFFFFFFFFFFFFFFFFFFFFFF AND DUP2 MSTORE PUSH1 0x20 ADD DUP6 DUP2 MSTORE PUSH1 0x20 ADD DUP5 DUP2 MSTORE PUSH1 0x20 ADD PUSH1 0x0 PUSH1 0x1 DUP2 GT ISZERO PUSH2 0x1586 JUMPI PUSH2 0x1585 PUSH2 0x209B JUMP JUMPDEST JUMPDEST DUP2 MSTORE PUSH1 0x20 ADD PUSH1 0x5 SLOAD DUP2 MSTORE PUSH1 0x20 ADD PUSH1 0x0 DUP2 MSTORE PUSH1 0x20 ADD PUSH1 0x0 DUP2 MSTORE POP SWAP1 POP DUP1 PUSH1 0x3 PUSH1 0x0 PUSH1 0x5 SLOAD DUP2 MSTORE PUSH1 0x20 ADD SWAP1 DUP2 MSTORE PUSH1 0x20 ADD PUSH1 0x0 KECCAK256 PUSH1 0x0 DUP3 ADD MLOAD DUP2 PUSH1 0x0 ADD PUSH1 0x0 PUSH2 0x100 EXP DUP2 SLOAD DUP2 PUSH20 0xFFFFFFFFFFFFFFFFFFFFFFFFFFFFFFFFFFFFFFFF MUL NOT AND SWAP1 DUP4 PUSH20 0xFFFFFFFFFFFFFFFFFFFFFFFFFFFFFFFFFFFFFFFF AND MUL OR SWAP1 SSTORE POP PUSH1 0x20 DUP3 ADD MLOAD DUP2 PUSH1 0x1 ADD SSTORE PUSH1 0x40 DUP3 ADD MLOAD DUP2 PUSH1 0x2 ADD SSTORE PUSH1 0x60 DUP3 ADD MLOAD DUP2 PUSH1 0x3 ADD PUSH1 0x0 PUSH2 0x100 EXP DUP2 SLOAD DUP2 PUSH1 0xFF MUL NOT AND SWAP1 DUP4 PUSH1 0x1 DUP2 GT ISZERO PUSH2 0x163D JUMPI PUSH2 0x163C PUSH2 0x209B JUMP JUMPDEST JUMPDEST MUL OR SWAP1 SSTORE POP PUSH1 0x80 DUP3 ADD MLOAD DUP2 PUSH1 0x4 ADD SSTORE PUSH1 0xA0 DUP3 ADD MLOAD DUP2 PUSH1 0x5 ADD SSTORE PUSH1 0xC0 DUP3 ADD MLOAD DUP2 PUSH1 0x6 ADD SSTORE SWAP1 POP POP PUSH32 0xB363D8961E2DCC4E4F9CAFAC06E22FFE5A3EE9B47F614E483F989B932167E865 DUP6 DUP6 DUP6 PUSH1 0x0 PUSH1 0x5 SLOAD PUSH1 0x0 DUP1 PUSH1 0x40 MLOAD PUSH2 0x16A2 SWAP8 SWAP7 SWAP6 SWAP5 SWAP4 SWAP3 SWAP2 SWAP1 PUSH2 0x1BE4 JUMP JUMPDEST PUSH1 0x40 MLOAD DUP1 SWAP2 SUB SWAP1 LOG1 DUP1 SWAP2 POP POP SWAP4 SWAP3 POP POP POP JUMP JUMPDEST PUSH1 0x0 DUP1 PUSH1 0x4 SLOAD EQ ISZERO PUSH2 0x16D1 JUMPI DUP2 PUSH1 0x80 ADD MLOAD PUSH1 0x4 DUP2 SWAP1 SSTORE POP PUSH2 0x18AA JUMP JUMPDEST DUP2 PUSH1 0x20 ADD MLOAD PUSH1 0x3 PUSH1 0x0 PUSH1 0x4 SLOAD DUP2 MSTORE PUSH1 0x20 ADD SWAP1 DUP2 MSTORE PUSH1 0x20 ADD PUSH1 0x0 KECCAK256 PUSH1 0x1 ADD SLOAD GT PUSH2 0x175E JUMPI PUSH1 0x4 SLOAD PUSH1 0x3 PUSH1 0x0 DUP5 PUSH1 0x80 ADD MLOAD DUP2 MSTORE PUSH1 0x20 ADD SWAP1 DUP2 MSTORE PUSH1 0x20 ADD PUSH1 0x0 KECCAK256 PUSH1 0x5 ADD DUP2 SWAP1 SSTORE POP DUP2 PUSH1 0x80 ADD MLOAD PUSH1 0x3 PUSH1 0x0 PUSH1 0x3 PUSH1 0x0 DUP7 PUSH1 0x80 ADD MLOAD DUP2 MSTORE PUSH1 0x20 ADD SWAP1 DUP2 MSTORE PUSH1 0x20 ADD PUSH1 0x0 KECCAK256 PUSH1 0x5 ADD SLOAD DUP2 MSTORE PUSH1 0x20 ADD SWAP1 DUP2 MSTORE PUSH1 0x20 ADD PUSH1 0x0 KECCAK256 PUSH1 0x6 ADD DUP2 SWAP1 SSTORE POP DUP2 PUSH1 0x80 ADD MLOAD PUSH1 0x4 DUP2 SWAP1 SSTORE POP PUSH2 0x18A9 JUMP JUMPDEST PUSH1 0x4 SLOAD SWAP1 POP JUMPDEST PUSH1 0x0 PUSH1 0x3 PUSH1 0x0 DUP4 DUP2 MSTORE PUSH1 0x20 ADD SWAP1 DUP2 MSTORE PUSH1 0x20 ADD PUSH1 0x0 KECCAK256 PUSH1 0x5 ADD SLOAD EQ ISZERO DUP1 ISZERO PUSH2 0x17BA JUMPI POP DUP2 PUSH1 0x20 ADD MLOAD PUSH1 0x3 PUSH1 0x0 PUSH1 0x3 PUSH1 0x0 DUP6 DUP2 MSTORE PUSH1 0x20 ADD SWAP1 DUP2 MSTORE PUSH1 0x20 ADD PUSH1 0x0 KECCAK256 PUSH1 0x5 ADD SLOAD DUP2 MSTORE PUSH1 0x20 ADD SWAP1 DUP2 MSTORE PUSH1 0x20 ADD PUSH1 0x0 KECCAK256 PUSH1 0x1 ADD SLOAD GT JUMPDEST ISZERO PUSH2 0x17DD JUMPI PUSH1 0x3 PUSH1 0x0 DUP3 DUP2 MSTORE PUSH1 0x20 ADD SWAP1 DUP2 MSTORE PUSH1 0x20 ADD PUSH1 0x0 KECCAK256 PUSH1 0x5 ADD SLOAD SWAP1 POP PUSH2 0x1764 JUMP JUMPDEST PUSH1 0x3 PUSH1 0x0 DUP3 DUP2 MSTORE PUSH1 0x20 ADD SWAP1 DUP2 MSTORE PUSH1 0x20 ADD PUSH1 0x0 KECCAK256 PUSH1 0x5 ADD SLOAD PUSH1 0x3 PUSH1 0x0 DUP5 PUSH1 0x80 ADD MLOAD DUP2 MSTORE PUSH1 0x20 ADD SWAP1 DUP2 MSTORE PUSH1 0x20 ADD PUSH1 0x0 KECCAK256 PUSH1 0x5 ADD DUP2 SWAP1 SSTORE POP PUSH1 0x0 PUSH1 0x3 PUSH1 0x0 DUP4 DUP2 MSTORE PUSH1 0x20 ADD SWAP1 DUP2 MSTORE PUSH1 0x20 ADD PUSH1 0x0 KECCAK256 PUSH1 0x5 ADD SLOAD EQ PUSH2 0x186A JUMPI DUP2 PUSH1 0x80 ADD MLOAD PUSH1 0x3 PUSH1 0x0 PUSH1 0x3 PUSH1 0x0 DUP7 PUSH1 0x80 ADD MLOAD DUP2 MSTORE PUSH1 0x20 ADD SWAP1 DUP2 MSTORE PUSH1 0x20 ADD PUSH1 0x0 KECCAK256 PUSH1 0x5 ADD SLOAD DUP2 MSTORE PUSH1 0x20 ADD SWAP1 DUP2 MSTORE PUSH1 0x20 ADD PUSH1 0x0 KECCAK256 PUSH1 0x6 ADD DUP2 SWAP1 SSTORE POP JUMPDEST DUP2 PUSH1 0x80 ADD MLOAD PUSH1 0x3 PUSH1 0x0 DUP4 DUP2 MSTORE PUSH1 0x20 ADD SWAP1 DUP2 MSTORE PUSH1 0x20 ADD PUSH1 0x0 KECCAK256 PUSH1 0x5 ADD DUP2 SWAP1 SSTORE POP DUP1 PUSH1 0x3 PUSH1 0x0 DUP5 PUSH1 0x80 ADD MLOAD DUP2 MSTORE PUSH1 0x20 ADD SWAP1 DUP2 MSTORE PUSH1 0x20 ADD PUSH1 0x0 KECCAK256 PUSH1 0x6 ADD DUP2 SWAP1 SSTORE POP JUMPDEST JUMPDEST POP POP JUMP JUMPDEST PUSH1 0x40 MLOAD DUP1 PUSH1 0xE0 ADD PUSH1 0x40 MSTORE DUP1 PUSH1 0x0 PUSH20 0xFFFFFFFFFFFFFFFFFFFFFFFFFFFFFFFFFFFFFFFF AND DUP2 MSTORE PUSH1 0x20 ADD PUSH1 0x0 DUP2 MSTORE PUSH1 0x20 ADD PUSH1 0x0 DUP2 MSTORE PUSH1 0x20 ADD PUSH1 0x0 PUSH1 0x1 DUP2 GT ISZERO PUSH2 0x18F8 JUMPI PUSH2 0x18F7 PUSH2 0x209B JUMP JUMPDEST JUMPDEST DUP2 MSTORE PUSH1 0x20 ADD PUSH1 0x0 DUP2 MSTORE PUSH1 0x20 ADD PUSH1 0x0 DUP2 MSTORE PUSH1 0x20 ADD PUSH1 0x0 DUP2 MSTORE POP SWAP1 JUMP JUMPDEST PUSH1 0x0 PUSH2 0x1926 PUSH2 0x1921 DUP5 PUSH2 0x1D70 JUMP JUMPDEST PUSH2 0x1D4B JUMP JUMPDEST SWAP1 POP DUP3 DUP2 MSTORE PUSH1 0x20 DUP2 ADD DUP5 DUP5 DUP5 ADD GT ISZERO PUSH2 0x1942 JUMPI PUSH2 0x1941 PUSH2 0x212D JUMP JUMPDEST JUMPDEST PUSH2 0x194D DUP5 DUP3 DUP6 PUSH2 0x1F50 JUMP JUMPDEST POP SWAP4 SWAP3 POP POP POP JUMP JUMPDEST PUSH1 0x0 DUP3 PUSH1 0x1F DUP4 ADD SLT PUSH2 0x196A JUMPI PUSH2 0x1969 PUSH2 0x2128 JUMP JUMPDEST JUMPDEST DUP2 CALLDATALOAD PUSH2 0x197A DUP5 DUP3 PUSH1 0x20 DUP7 ADD PUSH2 0x1913 JUMP JUMPDEST SWAP2 POP POP SWAP3 SWAP2 POP POP JUMP JUMPDEST PUSH1 0x0 DUP2 CALLDATALOAD SWAP1 POP PUSH2 0x1992 DUP2 PUSH2 0x2257 JUMP JUMPDEST SWAP3 SWAP2 POP POP JUMP JUMPDEST PUSH1 0x0 DUP1 PUSH1 0x40 DUP4 DUP6 SUB SLT ISZERO PUSH2 0x19AF JUMPI PUSH2 0x19AE PUSH2 0x2137 JUMP JUMPDEST JUMPDEST PUSH1 0x0 DUP4 ADD CALLDATALOAD PUSH8 0xFFFFFFFFFFFFFFFF DUP2 GT ISZERO PUSH2 0x19CD JUMPI PUSH2 0x19CC PUSH2 0x2132 JUMP JUMPDEST JUMPDEST PUSH2 0x19D9 DUP6 DUP3 DUP7 ADD PUSH2 0x1955 JUMP JUMPDEST SWAP3 POP POP PUSH1 0x20 DUP4 ADD CALLDATALOAD PUSH8 0xFFFFFFFFFFFFFFFF DUP2 GT ISZERO PUSH2 0x19FA JUMPI PUSH2 0x19F9 PUSH2 0x2132 JUMP JUMPDEST JUMPDEST PUSH2 0x1A06 DUP6 DUP3 DUP7 ADD PUSH2 0x1955 JUMP JUMPDEST SWAP2 POP POP SWAP3 POP SWAP3 SWAP1 POP JUMP JUMPDEST PUSH1 0x0 PUSH1 0x20 DUP3 DUP5 SUB SLT ISZERO PUSH2 0x1A26 JUMPI PUSH2 0x1A25 PUSH2 0x2137 JUMP JUMPDEST JUMPDEST PUSH1 0x0 PUSH2 0x1A34 DUP5 DUP3 DUP6 ADD PUSH2 0x1983 JUMP JUMPDEST SWAP2 POP POP SWAP3 SWAP2 POP POP JUMP JUMPDEST PUSH2 0x1A46 DUP2 PUSH2 0x1EDD JUMP JUMPDEST DUP3 MSTORE POP POP JUMP JUMPDEST PUSH2 0x1A55 DUP2 PUSH2 0x1F2C JUMP JUMPDEST DUP3 MSTORE POP POP JUMP JUMPDEST PUSH2 0x1A64 DUP2 PUSH2 0x1F3E JUMP JUMPDEST DUP3 MSTORE POP POP JUMP JUMPDEST PUSH1 0x0 PUSH2 0x1A75 DUP3 PUSH2 0x1DA1 JUMP JUMPDEST PUSH2 0x1A7F DUP2 DUP6 PUSH2 0x1DAC JUMP JUMPDEST SWAP4 POP PUSH2 0x1A8F DUP2 DUP6 PUSH1 0x20 DUP7 ADD PUSH2 0x1F5F JUMP JUMPDEST PUSH2 0x1A98 DUP2 PUSH2 0x213C JUMP JUMPDEST DUP5 ADD SWAP2 POP POP SWAP3 SWAP2 POP POP JUMP JUMPDEST PUSH1 0x0 PUSH2 0x1AAE DUP3 PUSH2 0x1DA1 JUMP JUMPDEST PUSH2 0x1AB8 DUP2 DUP6 PUSH2 0x1DBD JUMP JUMPDEST SWAP4 POP PUSH2 0x1AC8 DUP2 DUP6 PUSH1 0x20 DUP7 ADD PUSH2 0x1F5F JUMP JUMPDEST DUP1 DUP5 ADD SWAP2 POP POP SWAP3 SWAP2 POP POP JUMP JUMPDEST PUSH1 0x0 PUSH2 0x1AE1 PUSH1 0xE DUP4 PUSH2 0x1DAC JUMP JUMPDEST SWAP2 POP PUSH2 0x1AEC DUP3 PUSH2 0x214D JUMP JUMPDEST PUSH1 0x20 DUP3 ADD SWAP1 POP SWAP2 SWAP1 POP JUMP JUMPDEST PUSH1 0x0 PUSH2 0x1B04 PUSH1 0xD DUP4 PUSH2 0x1DAC JUMP JUMPDEST SWAP2 POP PUSH2 0x1B0F DUP3 PUSH2 0x2176 JUMP JUMPDEST PUSH1 0x20 DUP3 ADD SWAP1 POP SWAP2 SWAP1 POP JUMP JUMPDEST PUSH1 0x0 PUSH2 0x1B27 PUSH1 0x1 DUP4 PUSH2 0x1DBD JUMP JUMPDEST SWAP2 POP PUSH2 0x1B32 DUP3 PUSH2 0x219F JUMP JUMPDEST PUSH1 0x1 DUP3 ADD SWAP1 POP SWAP2 SWAP1 POP JUMP JUMPDEST PUSH1 0x0 PUSH2 0x1B4A PUSH1 0x1E DUP4 PUSH2 0x1DAC JUMP JUMPDEST SWAP2 POP PUSH2 0x1B55 DUP3 PUSH2 0x21C8 JUMP JUMPDEST PUSH1 0x20 DUP3 ADD SWAP1 POP SWAP2 SWAP1 POP JUMP JUMPDEST PUSH1 0x0 PUSH2 0x1B6D PUSH1 0x1F DUP4 PUSH2 0x1DAC JUMP JUMPDEST SWAP2 POP PUSH2 0x1B78 DUP3 PUSH2 0x21F1 JUMP JUMPDEST PUSH1 0x20 DUP3 ADD SWAP1 POP SWAP2 SWAP1 POP JUMP JUMPDEST PUSH1 0x0 PUSH2 0x1B90 PUSH1 0x1E DUP4 PUSH2 0x1DAC JUMP JUMPDEST SWAP2 POP PUSH2 0x1B9B DUP3 PUSH2 0x221A JUMP JUMPDEST PUSH1 0x20 DUP3 ADD SWAP1 POP SWAP2 SWAP1 POP JUMP JUMPDEST PUSH2 0x1BAF DUP2 PUSH2 0x1F22 JUMP JUMPDEST DUP3 MSTORE POP POP JUMP JUMPDEST PUSH1 0x0 PUSH2 0x1BC1 DUP3 DUP6 PUSH2 0x1AA3 JUMP JUMPDEST SWAP2 POP PUSH2 0x1BCC DUP3 PUSH2 0x1B1A JUMP JUMPDEST SWAP2 POP PUSH2 0x1BD8 DUP3 DUP5 PUSH2 0x1AA3 JUMP JUMPDEST SWAP2 POP DUP2 SWAP1 POP SWAP4 SWAP3 POP POP POP JUMP JUMPDEST PUSH1 0x0 PUSH1 0xE0 DUP3 ADD SWAP1 POP PUSH2 0x1BF9 PUSH1 0x0 DUP4 ADD DUP11 PUSH2 0x1A3D JUMP JUMPDEST PUSH2 0x1C06 PUSH1 0x20 DUP4 ADD DUP10 PUSH2 0x1BA6 JUMP JUMPDEST PUSH2 0x1C13 PUSH1 0x40 DUP4 ADD DUP9 PUSH2 0x1BA6 JUMP JUMPDEST PUSH2 0x1C20 PUSH1 0x60 DUP4 ADD DUP8 PUSH2 0x1A4C JUMP JUMPDEST PUSH2 0x1C2D PUSH1 0x80 DUP4 ADD DUP7 PUSH2 0x1BA6 JUMP JUMPDEST PUSH2 0x1C3A PUSH1 0xA0 DUP4 ADD DUP6 PUSH2 0x1A5B JUMP JUMPDEST PUSH2 0x1C47 PUSH1 0xC0 DUP4 ADD DUP5 PUSH2 0x1A5B JUMP JUMPDEST SWAP9 SWAP8 POP POP POP POP POP POP POP POP JUMP JUMPDEST PUSH1 0x0 PUSH1 0x20 DUP3 ADD SWAP1 POP PUSH2 0x1C68 PUSH1 0x0 DUP4 ADD DUP5 PUSH2 0x1A4C JUMP JUMPDEST SWAP3 SWAP2 POP POP JUMP JUMPDEST PUSH1 0x0 PUSH1 0x20 DUP3 ADD SWAP1 POP DUP2 DUP2 SUB PUSH1 0x0 DUP4 ADD MSTORE PUSH2 0x1C88 DUP2 DUP5 PUSH2 0x1A6A JUMP JUMPDEST SWAP1 POP SWAP3 SWAP2 POP POP JUMP JUMPDEST PUSH1 0x0 PUSH1 0x20 DUP3 ADD SWAP1 POP DUP2 DUP2 SUB PUSH1 0x0 DUP4 ADD MSTORE PUSH2 0x1CA9 DUP2 PUSH2 0x1AD4 JUMP JUMPDEST SWAP1 POP SWAP2 SWAP1 POP JUMP JUMPDEST PUSH1 0x0 PUSH1 0x20 DUP3 ADD SWAP1 POP DUP2 DUP2 SUB PUSH1 0x0 DUP4 ADD MSTORE PUSH2 0x1CC9 DUP2 PUSH2 0x1AF7 JUMP JUMPDEST SWAP1 POP SWAP2 SWAP1 POP JUMP JUMPDEST PUSH1 0x0 PUSH1 0x20 DUP3 ADD SWAP1 POP DUP2 DUP2 SUB PUSH1 0x0 DUP4 ADD MSTORE PUSH2 0x1CE9 DUP2 PUSH2 0x1B3D JUMP JUMPDEST SWAP1 POP SWAP2 SWAP1 POP JUMP JUMPDEST PUSH1 0x0 PUSH1 0x20 DUP3 ADD SWAP1 POP DUP2 DUP2 SUB PUSH1 0x0 DUP4 ADD MSTORE PUSH2 0x1D09 DUP2 PUSH2 0x1B60 JUMP JUMPDEST SWAP1 POP SWAP2 SWAP1 POP JUMP JUMPDEST PUSH1 0x0 PUSH1 0x20 DUP3 ADD SWAP1 POP DUP2 DUP2 SUB PUSH1 0x0 DUP4 ADD MSTORE PUSH2 0x1D29 DUP2 PUSH2 0x1B83 JUMP JUMPDEST SWAP1 POP SWAP2 SWAP1 POP JUMP JUMPDEST PUSH1 0x0 PUSH1 0x20 DUP3 ADD SWAP1 POP PUSH2 0x1D45 PUSH1 0x0 DUP4 ADD DUP5 PUSH2 0x1BA6 JUMP JUMPDEST SWAP3 SWAP2 POP POP JUMP JUMPDEST PUSH1 0x0 PUSH2 0x1D55 PUSH2 0x1D66 JUMP JUMPDEST SWAP1 POP PUSH2 0x1D61 DUP3 DUP3 PUSH2 0x1F92 JUMP JUMPDEST SWAP2 SWAP1 POP JUMP JUMPDEST PUSH1 0x0 PUSH1 0x40 MLOAD SWAP1 POP SWAP1 JUMP JUMPDEST PUSH1 0x0 PUSH8 0xFFFFFFFFFFFFFFFF DUP3 GT ISZERO PUSH2 0x1D8B JUMPI PUSH2 0x1D8A PUSH2 0x20F9 JUMP JUMPDEST JUMPDEST PUSH2 0x1D94 DUP3 PUSH2 0x213C JUMP JUMPDEST SWAP1 POP PUSH1 0x20 DUP2 ADD SWAP1 POP SWAP2 SWAP1 POP JUMP JUMPDEST PUSH1 0x0 DUP2 MLOAD SWAP1 POP SWAP2 SWAP1 POP JUMP JUMPDEST PUSH1 0x0 DUP3 DUP3 MSTORE PUSH1 0x20 DUP3 ADD SWAP1 POP SWAP3 SWAP2 POP POP JUMP JUMPDEST PUSH1 0x0 DUP2 SWAP1 POP SWAP3 SWAP2 POP POP JUMP JUMPDEST PUSH1 0x0 PUSH2 0x1DD3 DUP3 PUSH2 0x1F22 JUMP JUMPDEST SWAP2 POP PUSH2 0x1DDE DUP4 PUSH2 0x1F22 JUMP JUMPDEST SWAP3 POP DUP3 PUSH32 0xFFFFFFFFFFFFFFFFFFFFFFFFFFFFFFFFFFFFFFFFFFFFFFFFFFFFFFFFFFFFFFFF SUB DUP3 GT ISZERO PUSH2 0x1E13 JUMPI PUSH2 0x1E12 PUSH2 0x203D JUMP JUMPDEST JUMPDEST DUP3 DUP3 ADD SWAP1 POP SWAP3 SWAP2 POP POP JUMP JUMPDEST PUSH1 0x0 PUSH2 0x1E29 DUP3 PUSH2 0x1F22 JUMP JUMPDEST SWAP2 POP PUSH2 0x1E34 DUP4 PUSH2 0x1F22 JUMP JUMPDEST SWAP3 POP DUP3 PUSH2 0x1E44 JUMPI PUSH2 0x1E43 PUSH2 0x206C JUMP JUMPDEST JUMPDEST DUP3 DUP3 DIV SWAP1 POP SWAP3 SWAP2 POP POP JUMP JUMPDEST PUSH1 0x0 PUSH2 0x1E5A DUP3 PUSH2 0x1F22 JUMP JUMPDEST SWAP2 POP PUSH2 0x1E65 DUP4 PUSH2 0x1F22 JUMP JUMPDEST SWAP3 POP DUP2 PUSH32 0xFFFFFFFFFFFFFFFFFFFFFFFFFFFFFFFFFFFFFFFFFFFFFFFFFFFFFFFFFFFFFFFF DIV DUP4 GT DUP3 ISZERO ISZERO AND ISZERO PUSH2 0x1E9E JUMPI PUSH2 0x1E9D PUSH2 0x203D JUMP JUMPDEST JUMPDEST DUP3 DUP3 MUL SWAP1 POP SWAP3 SWAP2 POP POP JUMP JUMPDEST PUSH1 0x0 PUSH2 0x1EB4 DUP3 PUSH2 0x1F22 JUMP JUMPDEST SWAP2 POP PUSH2 0x1EBF DUP4 PUSH2 0x1F22 JUMP JUMPDEST SWAP3 POP DUP3 DUP3 LT ISZERO PUSH2 0x1ED2 JUMPI PUSH2 0x1ED1 PUSH2 0x203D JUMP JUMPDEST JUMPDEST DUP3 DUP3 SUB SWAP1 POP SWAP3 SWAP2 POP POP JUMP JUMPDEST PUSH1 0x0 PUSH2 0x1EE8 DUP3 PUSH2 0x1F02 JUMP JUMPDEST SWAP1 POP SWAP2 SWAP1 POP JUMP JUMPDEST PUSH1 0x0 DUP2 SWAP1 POP PUSH2 0x1EFD DUP3 PUSH2 0x2243 JUMP JUMPDEST SWAP2 SWAP1 POP JUMP JUMPDEST PUSH1 0x0 PUSH20 0xFFFFFFFFFFFFFFFFFFFFFFFFFFFFFFFFFFFFFFFF DUP3 AND SWAP1 POP SWAP2 SWAP1 POP JUMP JUMPDEST PUSH1 0x0 DUP2 SWAP1 POP SWAP2 SWAP1 POP JUMP JUMPDEST PUSH1 0x0 PUSH2 0x1F37 DUP3 PUSH2 0x1EEF JUMP JUMPDEST SWAP1 POP SWAP2 SWAP1 POP JUMP JUMPDEST PUSH1 0x0 PUSH2 0x1F49 DUP3 PUSH2 0x1F22 JUMP JUMPDEST SWAP1 POP SWAP2 SWAP1 POP JUMP JUMPDEST DUP3 DUP2 DUP4 CALLDATACOPY PUSH1 0x0 DUP4 DUP4 ADD MSTORE POP POP POP JUMP JUMPDEST PUSH1 0x0 JUMPDEST DUP4 DUP2 LT ISZERO PUSH2 0x1F7D JUMPI DUP1 DUP3 ADD MLOAD DUP2 DUP5 ADD MSTORE PUSH1 0x20 DUP2 ADD SWAP1 POP PUSH2 0x1F62 JUMP JUMPDEST DUP4 DUP2 GT ISZERO PUSH2 0x1F8C JUMPI PUSH1 0x0 DUP5 DUP5 ADD MSTORE JUMPDEST POP POP POP POP JUMP JUMPDEST PUSH2 0x1F9B DUP3 PUSH2 0x213C JUMP JUMPDEST DUP2 ADD DUP2 DUP2 LT PUSH8 0xFFFFFFFFFFFFFFFF DUP3 GT OR ISZERO PUSH2 0x1FBA JUMPI PUSH2 0x1FB9 PUSH2 0x20F9 JUMP JUMPDEST JUMPDEST DUP1 PUSH1 0x40 MSTORE POP POP POP JUMP JUMPDEST PUSH1 0x0 PUSH2 0x1FCE DUP3 PUSH2 0x1F22 JUMP JUMPDEST SWAP2 POP PUSH32 0xFFFFFFFFFFFFFFFFFFFFFFFFFFFFFFFFFFFFFFFFFFFFFFFFFFFFFFFFFFFFFFFF DUP3 EQ ISZERO PUSH2 0x2001 JUMPI PUSH2 0x2000 PUSH2 0x203D JUMP JUMPDEST JUMPDEST PUSH1 0x1 DUP3 ADD SWAP1 POP SWAP2 SWAP1 POP JUMP JUMPDEST PUSH1 0x0 PUSH2 0x2017 DUP3 PUSH2 0x1F22 JUMP JUMPDEST SWAP2 POP PUSH2 0x2022 DUP4 PUSH2 0x1F22 JUMP JUMPDEST SWAP3 POP DUP3 PUSH2 0x2032 JUMPI PUSH2 0x2031 PUSH2 0x206C JUMP JUMPDEST JUMPDEST DUP3 DUP3 MOD SWAP1 POP SWAP3 SWAP2 POP POP JUMP JUMPDEST PUSH32 0x4E487B7100000000000000000000000000000000000000000000000000000000 PUSH1 0x0 MSTORE PUSH1 0x11 PUSH1 0x4 MSTORE PUSH1 0x24 PUSH1 0x0 REVERT JUMPDEST PUSH32 0x4E487B7100000000000000000000000000000000000000000000000000000000 PUSH1 0x0 MSTORE PUSH1 0x12 PUSH1 0x4 MSTORE PUSH1 0x24 PUSH1 0x0 REVERT JUMPDEST PUSH32 0x4E487B7100000000000000000000000000000000000000000000000000000000 PUSH1 0x0 MSTORE PUSH1 0x21 PUSH1 0x4 MSTORE PUSH1 0x24 PUSH1 0x0 REVERT JUMPDEST PUSH32 0x4E487B7100000000000000000000000000000000000000000000000000000000 PUSH1 0x0 MSTORE PUSH1 0x32 PUSH1 0x4 MSTORE PUSH1 0x24 PUSH1 0x0 REVERT JUMPDEST PUSH32 0x4E487B7100000000000000000000000000000000000000000000000000000000 PUSH1 0x0 MSTORE PUSH1 0x41 PUSH1 0x4 MSTORE PUSH1 0x24 PUSH1 0x0 REVERT JUMPDEST PUSH1 0x0 DUP1 REVERT JUMPDEST PUSH1 0x0 DUP1 REVERT JUMPDEST PUSH1 0x0 DUP1 REVERT JUMPDEST PUSH1 0x0 DUP1 REVERT JUMPDEST PUSH1 0x0 PUSH1 0x1F NOT PUSH1 0x1F DUP4 ADD AND SWAP1 POP SWAP2 SWAP1 POP JUMP JUMPDEST PUSH32 0x4E6F7420417574686F7269736564000000000000000000000000000000000000 PUSH1 0x0 DUP3 ADD MSTORE POP JUMP JUMPDEST PUSH32 0x4F726465722050656E64696E6700000000000000000000000000000000000000 PUSH1 0x0 DUP3 ADD MSTORE POP JUMP JUMPDEST PUSH32 0x2000000000000000000000000000000000000000000000000000000000000000 PUSH1 0x0 DUP3 ADD MSTORE POP JUMP JUMPDEST PUSH32 0x4E6F7420656E6F75676820626C616E636520746F20706C616365206269640000 PUSH1 0x0 DUP3 ADD MSTORE POP JUMP JUMPDEST PUSH32 0x70726963652076616C7565206D757374206265206D6F7265207468616E203000 PUSH1 0x0 DUP3 ADD MSTORE POP JUMP JUMPDEST PUSH32 0x4E6F7420656E6F75676820626C616E636520746F20706C6163652061736B0000 PUSH1 0x0 DUP3 ADD MSTORE POP JUMP JUMPDEST PUSH1 0x2 DUP2 LT PUSH2 0x2254 JUMPI PUSH2 0x2253 PUSH2 0x209B JUMP JUMPDEST JUMPDEST POP JUMP JUMPDEST PUSH2 0x2260 DUP2 PUSH2 0x1F22 JUMP JUMPDEST DUP2 EQ PUSH2 0x226B JUMPI PUSH1 0x0 DUP1 REVERT JUMPDEST POP JUMP INVALID LOG2 PUSH5 0x6970667358 0x22 SLT KECCAK256 0xC4 PUSH27 0xC18B00CE66DB6A1358ACC1ACCC01FC12E1580743555E3966ACAF8D MSTORE MSIZE 0x25 PUSH5 0x736F6C6343 STOP ADDMOD SMOD STOP CALLER "
				},
				"gasEstimates": {
					"creation": {
						"codeDepositCost": "1773600",
						"executionCost": "infinite",
						"totalCost": "infinite"
					},
					"external": {
						"askCount()": "2451",
						"askHead()": "2474",
						"bidCount()": "2473",
						"bidHead()": "2518",
						"cancelAsk(uint256)": "infinite",
						"cancelBid(uint256)": "infinite",
						"concatenate(string,string)": "infinite",
						"fetchAsk()": "infinite",
						"fetchBid()": "infinite",
						"getAskNext(uint256)": "infinite",
						"getAskPrev(uint256)": "infinite",
						"getAskState(uint256)": "2984",
						"getAskValue(uint256)": "infinite",
						"getBidNext(uint256)": "infinite",
						"getBidPrev(uint256)": "infinite",
						"getBidState(uint256)": "2983",
						"getBidValue(uint256)": "infinite",
						"placeAsk(uint256)": "infinite",
						"placeBid(uint256)": "infinite"
					},
					"internal": {
						"createAsk(address,uint256,uint256)": "infinite",
						"createBid(address,uint256,uint256)": "infinite",
						"deleteAsk(uint256)": "86142",
						"deleteBid(uint256)": "infinite",
						"insertionSortAsk()": "infinite",
						"insertionSortBid()": "infinite",
						"sortAsk(struct OrderBook.order memory)": "infinite",
						"sortBid(struct OrderBook.order memory)": "infinite"
					}
				},
				"methodIdentifiers": {
					"askCount()": "a394fda7",
					"askHead()": "801d9bbd",
					"bidCount()": "b40a5627",
					"bidHead()": "6e5b0f00",
					"cancelAsk(uint256)": "1628e0f5",
					"cancelBid(uint256)": "9703ef35",
					"concatenate(string,string)": "266001d3",
					"fetchAsk()": "44e791e0",
					"fetchBid()": "0f38f2b1",
					"getAskNext(uint256)": "733672f4",
					"getAskPrev(uint256)": "d05c28cb",
					"getAskState(uint256)": "4d46712d",
					"getAskValue(uint256)": "db3a1396",
					"getBidNext(uint256)": "9db70fad",
					"getBidPrev(uint256)": "356e6206",
					"getBidState(uint256)": "bf77ffae",
					"getBidValue(uint256)": "2db6dfa7",
					"placeAsk(uint256)": "78c5b268",
					"placeBid(uint256)": "9979ef45"
				}
			},
			"storageLayout": {
				"storage": [
					{
						"astId": 9,
						"contract": "contracts/OrderBook.sol:OrderBook",
						"label": "bidValues",
						"offset": 0,
						"slot": "0",
						"type": "t_mapping(t_uint256,t_uint256)"
					},
					{
						"astId": 16,
						"contract": "contracts/OrderBook.sol:OrderBook",
						"label": "_owner",
						"offset": 0,
						"slot": "1",
						"type": "t_address_payable"
					},
					{
						"astId": 18,
						"contract": "contracts/OrderBook.sol:OrderBook",
						"label": "commission",
						"offset": 0,
						"slot": "2",
						"type": "t_uint256"
					},
					{
						"astId": 39,
						"contract": "contracts/OrderBook.sol:OrderBook",
						"label": "bidBook",
						"offset": 0,
						"slot": "3",
						"type": "t_mapping(t_uint256,t_struct(order)34_storage)"
					},
					{
						"astId": 41,
						"contract": "contracts/OrderBook.sol:OrderBook",
						"label": "bidHead",
						"offset": 0,
						"slot": "4",
						"type": "t_uint256"
					},
					{
						"astId": 43,
						"contract": "contracts/OrderBook.sol:OrderBook",
						"label": "bidCount",
						"offset": 0,
						"slot": "5",
						"type": "t_uint256"
					},
					{
						"astId": 48,
						"contract": "contracts/OrderBook.sol:OrderBook",
						"label": "askBook",
						"offset": 0,
						"slot": "6",
						"type": "t_mapping(t_uint256,t_struct(order)34_storage)"
					},
					{
						"astId": 50,
						"contract": "contracts/OrderBook.sol:OrderBook",
						"label": "askHead",
						"offset": 0,
						"slot": "7",
						"type": "t_uint256"
					},
					{
						"astId": 52,
						"contract": "contracts/OrderBook.sol:OrderBook",
						"label": "askCount",
						"offset": 0,
						"slot": "8",
						"type": "t_uint256"
					}
				],
				"types": {
					"t_address_payable": {
						"encoding": "inplace",
						"label": "address payable",
						"numberOfBytes": "20"
					},
					"t_enum(State)5": {
						"encoding": "inplace",
						"label": "enum OrderBook.State",
						"numberOfBytes": "1"
					},
					"t_mapping(t_uint256,t_struct(order)34_storage)": {
						"encoding": "mapping",
						"key": "t_uint256",
						"label": "mapping(uint256 => struct OrderBook.order)",
						"numberOfBytes": "32",
						"value": "t_struct(order)34_storage"
					},
					"t_mapping(t_uint256,t_uint256)": {
						"encoding": "mapping",
						"key": "t_uint256",
						"label": "mapping(uint256 => uint256)",
						"numberOfBytes": "32",
						"value": "t_uint256"
					},
					"t_struct(order)34_storage": {
						"encoding": "inplace",
						"label": "struct OrderBook.order",
						"members": [
							{
								"astId": 20,
								"contract": "contracts/OrderBook.sol:OrderBook",
								"label": "customer",
								"offset": 0,
								"slot": "0",
								"type": "t_address_payable"
							},
							{
								"astId": 22,
								"contract": "contracts/OrderBook.sol:OrderBook",
								"label": "value",
								"offset": 0,
								"slot": "1",
								"type": "t_uint256"
							},
							{
								"astId": 24,
								"contract": "contracts/OrderBook.sol:OrderBook",
								"label": "timestamp",
								"offset": 0,
								"slot": "2",
								"type": "t_uint256"
							},
							{
								"astId": 27,
								"contract": "contracts/OrderBook.sol:OrderBook",
								"label": "state",
								"offset": 0,
								"slot": "3",
								"type": "t_enum(State)5"
							},
							{
								"astId": 29,
								"contract": "contracts/OrderBook.sol:OrderBook",
								"label": "id",
								"offset": 0,
								"slot": "4",
								"type": "t_uint256"
							},
							{
								"astId": 31,
								"contract": "contracts/OrderBook.sol:OrderBook",
								"label": "next",
								"offset": 0,
								"slot": "5",
								"type": "t_uint256"
							},
							{
								"astId": 33,
								"contract": "contracts/OrderBook.sol:OrderBook",
								"label": "prev",
								"offset": 0,
								"slot": "6",
								"type": "t_uint256"
							}
						],
						"numberOfBytes": "224"
					},
					"t_uint256": {
						"encoding": "inplace",
						"label": "uint256",
						"numberOfBytes": "32"
					}
				}
			},
			"userdoc": {
				"kind": "user",
				"methods": {},
				"version": 1
			}
		}
	}
}