{
	"contracts/OrderBook.sol": {
		"OrderBook": {
			"abi": [
				{
					"inputs": [
						{
							"internalType": "uint256",
							"name": "price",
							"type": "uint256"
						}
					],
					"name": "cancelAsk",
					"outputs": [],
					"stateMutability": "nonpayable",
					"type": "function"
				},
				{
					"inputs": [
						{
							"internalType": "uint256",
							"name": "bidId",
							"type": "uint256"
						}
					],
					"name": "cancelBid",
					"outputs": [],
					"stateMutability": "nonpayable",
					"type": "function"
				},
				{
					"inputs": [
						{
							"internalType": "uint256",
							"name": "price",
							"type": "uint256"
						}
					],
					"name": "placeAsk",
					"outputs": [],
					"stateMutability": "nonpayable",
					"type": "function"
				},
				{
					"inputs": [
						{
							"internalType": "uint256",
							"name": "price",
							"type": "uint256"
						}
					],
					"name": "placeBid",
					"outputs": [],
					"stateMutability": "nonpayable",
					"type": "function"
				},
				{
					"inputs": [
						{
							"components": [
								{
									"internalType": "address payable",
									"name": "customer",
									"type": "address"
								},
								{
									"internalType": "uint256",
									"name": "price",
									"type": "uint256"
								},
								{
									"internalType": "uint256",
									"name": "timestamp",
									"type": "uint256"
								},
								{
									"internalType": "uint256",
									"name": "orderType",
									"type": "uint256"
								}
							],
							"internalType": "struct OrderBook.order[]",
							"name": "data",
							"type": "tuple[]"
						}
					],
					"name": "sort",
					"outputs": [
						{
							"components": [
								{
									"internalType": "address payable",
									"name": "customer",
									"type": "address"
								},
								{
									"internalType": "uint256",
									"name": "price",
									"type": "uint256"
								},
								{
									"internalType": "uint256",
									"name": "timestamp",
									"type": "uint256"
								},
								{
									"internalType": "uint256",
									"name": "orderType",
									"type": "uint256"
								}
							],
							"internalType": "struct OrderBook.order[]",
							"name": "",
							"type": "tuple[]"
						}
					],
					"stateMutability": "nonpayable",
					"type": "function"
				}
			],
			"devdoc": {
				"kind": "dev",
				"methods": {},
				"version": 1
			},
			"evm": {
				"assembly": "    /* \"contracts/OrderBook.sol\":528:2895  contract OrderBook {... */\n  mstore(0x40, 0x80)\n  callvalue\n  dup1\n  iszero\n  tag_1\n  jumpi\n  0x00\n  dup1\n  revert\ntag_1:\n  pop\n  dataSize(sub_0)\n  dup1\n  dataOffset(sub_0)\n  0x00\n  codecopy\n  0x00\n  return\nstop\n\nsub_0: assembly {\n        /* \"contracts/OrderBook.sol\":528:2895  contract OrderBook {... */\n      mstore(0x40, 0x80)\n      callvalue\n      dup1\n      iszero\n      tag_1\n      jumpi\n      0x00\n      dup1\n      revert\n    tag_1:\n      pop\n      jumpi(tag_2, lt(calldatasize, 0x04))\n      shr(0xe0, calldataload(0x00))\n      dup1\n      0x1628e0f5\n      eq\n      tag_3\n      jumpi\n      dup1\n      0x70ca0f1d\n      eq\n      tag_4\n      jumpi\n      dup1\n      0x78c5b268\n      eq\n      tag_5\n      jumpi\n      dup1\n      0x9703ef35\n      eq\n      tag_6\n      jumpi\n      dup1\n      0x9979ef45\n      eq\n      tag_7\n      jumpi\n    tag_2:\n      0x00\n      dup1\n      revert\n        /* \"contracts/OrderBook.sol\":2524:2574  function cancelAsk (uint256 price) public {... */\n    tag_3:\n      tag_8\n      0x04\n      dup1\n      calldatasize\n      sub\n      dup2\n      add\n      swap1\n      tag_9\n      swap2\n      swap1\n      tag_10\n      jump\t// in\n    tag_9:\n      tag_11\n      jump\t// in\n    tag_8:\n      stop\n        /* \"contracts/OrderBook.sol\":703:859  function sort(order[] memory data) public returns(order[] memory) {... */\n    tag_4:\n      tag_12\n      0x04\n      dup1\n      calldatasize\n      sub\n      dup2\n      add\n      swap1\n      tag_13\n      swap2\n      swap1\n      tag_14\n      jump\t// in\n    tag_13:\n      tag_15\n      jump\t// in\n    tag_12:\n      mload(0x40)\n      tag_16\n      swap2\n      swap1\n      tag_17\n      jump\t// in\n    tag_16:\n      mload(0x40)\n      dup1\n      swap2\n      sub\n      swap1\n      return\n        /* \"contracts/OrderBook.sol\":2469:2518  function placeAsk (uint256 price) public {... */\n    tag_5:\n      tag_18\n      0x04\n      dup1\n      calldatasize\n      sub\n      dup2\n      add\n      swap1\n      tag_19\n      swap2\n      swap1\n      tag_10\n      jump\t// in\n    tag_19:\n      tag_20\n      jump\t// in\n    tag_18:\n      stop\n        /* \"contracts/OrderBook.sol\":2413:2463  function cancelBid (uint256 bidId) public {... */\n    tag_6:\n      tag_21\n      0x04\n      dup1\n      calldatasize\n      sub\n      dup2\n      add\n      swap1\n      tag_22\n      swap2\n      swap1\n      tag_10\n      jump\t// in\n    tag_22:\n      tag_23\n      jump\t// in\n    tag_21:\n      stop\n        /* \"contracts/OrderBook.sol\":2358:2407  function placeBid (uint256 price) public {... */\n    tag_7:\n      tag_24\n      0x04\n      dup1\n      calldatasize\n      sub\n      dup2\n      add\n      swap1\n      tag_25\n      swap2\n      swap1\n      tag_10\n      jump\t// in\n    tag_25:\n      tag_26\n      jump\t// in\n    tag_24:\n      stop\n        /* \"contracts/OrderBook.sol\":2524:2574  function cancelAsk (uint256 price) public {... */\n    tag_11:\n      pop\n      jump\t// out\n        /* \"contracts/OrderBook.sol\":703:859  function sort(order[] memory data) public returns(order[] memory) {... */\n    tag_15:\n        /* \"contracts/OrderBook.sol\":753:767  order[] memory */\n      0x60\n        /* \"contracts/OrderBook.sol\":778:832  ascendingQuickSort(data, int(0), int(data.length - 1)) */\n      tag_29\n        /* \"contracts/OrderBook.sol\":797:801  data */\n      dup3\n        /* \"contracts/OrderBook.sol\":807:808  0 */\n      0x00\n        /* \"contracts/OrderBook.sol\":829:830  1 */\n      0x01\n        /* \"contracts/OrderBook.sol\":815:819  data */\n      dup6\n        /* \"contracts/OrderBook.sol\":815:826  data.length */\n      mload\n        /* \"contracts/OrderBook.sol\":815:830  data.length - 1 */\n      tag_30\n      swap2\n      swap1\n      tag_31\n      jump\t// in\n    tag_30:\n        /* \"contracts/OrderBook.sol\":778:796  ascendingQuickSort */\n      tag_32\n        /* \"contracts/OrderBook.sol\":778:832  ascendingQuickSort(data, int(0), int(data.length - 1)) */\n      jump\t// in\n    tag_29:\n        /* \"contracts/OrderBook.sol\":848:852  data */\n      dup2\n        /* \"contracts/OrderBook.sol\":841:852  return data */\n      swap1\n      pop\n        /* \"contracts/OrderBook.sol\":703:859  function sort(order[] memory data) public returns(order[] memory) {... */\n      swap2\n      swap1\n      pop\n      jump\t// out\n        /* \"contracts/OrderBook.sol\":2469:2518  function placeAsk (uint256 price) public {... */\n    tag_20:\n      pop\n      jump\t// out\n        /* \"contracts/OrderBook.sol\":2413:2463  function cancelBid (uint256 bidId) public {... */\n    tag_23:\n      pop\n      jump\t// out\n        /* \"contracts/OrderBook.sol\":2358:2407  function placeBid (uint256 price) public {... */\n    tag_26:\n      pop\n      jump\t// out\n        /* \"contracts/OrderBook.sol\":1681:2351  function ascendingQuickSort(order[] memory arr, int left, int right) internal{... */\n    tag_32:\n        /* \"contracts/OrderBook.sol\":1768:1773  int i */\n      0x00\n        /* \"contracts/OrderBook.sol\":1776:1780  left */\n      dup3\n        /* \"contracts/OrderBook.sol\":1768:1780  int i = left */\n      swap1\n      pop\n        /* \"contracts/OrderBook.sol\":1790:1795  int j */\n      0x00\n        /* \"contracts/OrderBook.sol\":1798:1803  right */\n      dup3\n        /* \"contracts/OrderBook.sol\":1790:1803  int j = right */\n      swap1\n      pop\n        /* \"contracts/OrderBook.sol\":1819:1820  j */\n      dup1\n        /* \"contracts/OrderBook.sol\":1816:1817  i */\n      dup3\n        /* \"contracts/OrderBook.sol\":1816:1820  i==j */\n      sub\n        /* \"contracts/OrderBook.sol\":1813:1829  if(i==j) return; */\n      tag_37\n      jumpi\n        /* \"contracts/OrderBook.sol\":1822:1829  return; */\n      pop\n      pop\n      jump(tag_36)\n        /* \"contracts/OrderBook.sol\":1813:1829  if(i==j) return; */\n    tag_37:\n        /* \"contracts/OrderBook.sol\":1838:1851  uint256 pivot */\n      0x00\n        /* \"contracts/OrderBook.sol\":1854:1857  arr */\n      dup6\n        /* \"contracts/OrderBook.sol\":1887:1888  2 */\n      0x02\n        /* \"contracts/OrderBook.sol\":1879:1883  left */\n      dup7\n        /* \"contracts/OrderBook.sol\":1871:1876  right */\n      dup7\n        /* \"contracts/OrderBook.sol\":1871:1883  right - left */\n      tag_38\n      swap2\n      swap1\n      tag_39\n      jump\t// in\n    tag_38:\n        /* \"contracts/OrderBook.sol\":1870:1888  (right - left) / 2 */\n      tag_40\n      swap2\n      swap1\n      tag_41\n      jump\t// in\n    tag_40:\n        /* \"contracts/OrderBook.sol\":1863:1867  left */\n      dup7\n        /* \"contracts/OrderBook.sol\":1863:1888  left + (right - left) / 2 */\n      tag_42\n      swap2\n      swap1\n      tag_43\n      jump\t// in\n    tag_42:\n        /* \"contracts/OrderBook.sol\":1854:1890  arr[uint(left + (right - left) / 2)] */\n      dup2\n      mload\n      dup2\n      lt\n      tag_44\n      jumpi\n      tag_45\n      tag_46\n      jump\t// in\n    tag_45:\n    tag_44:\n      0x20\n      mul\n      0x20\n      add\n      add\n      mload\n        /* \"contracts/OrderBook.sol\":1854:1900  arr[uint(left + (right - left) / 2)].timestamp */\n      0x40\n      add\n      mload\n        /* \"contracts/OrderBook.sol\":1838:1900  uint256 pivot = arr[uint(left + (right - left) / 2)].timestamp */\n      swap1\n      pop\n        /* \"contracts/OrderBook.sol\":1910:2207  while (i <= j) {... */\n    tag_47:\n        /* \"contracts/OrderBook.sol\":1922:1923  j */\n      dup2\n        /* \"contracts/OrderBook.sol\":1917:1918  i */\n      dup4\n        /* \"contracts/OrderBook.sol\":1917:1923  i <= j */\n      sgt\n        /* \"contracts/OrderBook.sol\":1910:2207  while (i <= j) {... */\n      tag_48\n      jumpi\n        /* \"contracts/OrderBook.sol\":1939:1981  while (arr[uint(i)].timestamp > pivot) i++ */\n    tag_49:\n        /* \"contracts/OrderBook.sol\":1971:1976  pivot */\n      dup1\n        /* \"contracts/OrderBook.sol\":1946:1949  arr */\n      dup7\n        /* \"contracts/OrderBook.sol\":1955:1956  i */\n      dup5\n        /* \"contracts/OrderBook.sol\":1946:1958  arr[uint(i)] */\n      dup2\n      mload\n      dup2\n      lt\n      tag_51\n      jumpi\n      tag_52\n      tag_46\n      jump\t// in\n    tag_52:\n    tag_51:\n      0x20\n      mul\n      0x20\n      add\n      add\n      mload\n        /* \"contracts/OrderBook.sol\":1946:1968  arr[uint(i)].timestamp */\n      0x40\n      add\n      mload\n        /* \"contracts/OrderBook.sol\":1946:1976  arr[uint(i)].timestamp > pivot */\n      gt\n        /* \"contracts/OrderBook.sol\":1939:1981  while (arr[uint(i)].timestamp > pivot) i++ */\n      iszero\n      tag_50\n      jumpi\n        /* \"contracts/OrderBook.sol\":1978:1981  i++ */\n      dup3\n      dup1\n      tag_53\n      swap1\n      tag_54\n      jump\t// in\n    tag_53:\n      swap4\n      pop\n      pop\n        /* \"contracts/OrderBook.sol\":1939:1981  while (arr[uint(i)].timestamp > pivot) i++ */\n      jump(tag_49)\n    tag_50:\n        /* \"contracts/OrderBook.sol\":1995:2037  while (pivot > arr[uint(j)].timestamp) j-- */\n    tag_55:\n        /* \"contracts/OrderBook.sol\":2010:2013  arr */\n      dup6\n        /* \"contracts/OrderBook.sol\":2019:2020  j */\n      dup3\n        /* \"contracts/OrderBook.sol\":2010:2022  arr[uint(j)] */\n      dup2\n      mload\n      dup2\n      lt\n      tag_57\n      jumpi\n      tag_58\n      tag_46\n      jump\t// in\n    tag_58:\n    tag_57:\n      0x20\n      mul\n      0x20\n      add\n      add\n      mload\n        /* \"contracts/OrderBook.sol\":2010:2032  arr[uint(j)].timestamp */\n      0x40\n      add\n      mload\n        /* \"contracts/OrderBook.sol\":2002:2007  pivot */\n      dup2\n        /* \"contracts/OrderBook.sol\":2002:2032  pivot > arr[uint(j)].timestamp */\n      gt\n        /* \"contracts/OrderBook.sol\":1995:2037  while (pivot > arr[uint(j)].timestamp) j-- */\n      iszero\n      tag_56\n      jumpi\n        /* \"contracts/OrderBook.sol\":2034:2037  j-- */\n      dup2\n      dup1\n      tag_59\n      swap1\n      tag_60\n      jump\t// in\n    tag_59:\n      swap3\n      pop\n      pop\n        /* \"contracts/OrderBook.sol\":1995:2037  while (pivot > arr[uint(j)].timestamp) j-- */\n      jump(tag_55)\n    tag_56:\n        /* \"contracts/OrderBook.sol\":2060:2061  j */\n      dup2\n        /* \"contracts/OrderBook.sol\":2055:2056  i */\n      dup4\n        /* \"contracts/OrderBook.sol\":2055:2061  i <= j */\n      sgt\n        /* \"contracts/OrderBook.sol\":2051:2197  if (i <= j) {... */\n      tag_61\n      jumpi\n        /* \"contracts/OrderBook.sol\":2113:2116  arr */\n      dup6\n        /* \"contracts/OrderBook.sol\":2122:2123  j */\n      dup3\n        /* \"contracts/OrderBook.sol\":2113:2125  arr[uint(j)] */\n      dup2\n      mload\n      dup2\n      lt\n      tag_62\n      jumpi\n      tag_63\n      tag_46\n      jump\t// in\n    tag_63:\n    tag_62:\n      0x20\n      mul\n      0x20\n      add\n      add\n      mload\n        /* \"contracts/OrderBook.sol\":2127:2130  arr */\n      dup7\n        /* \"contracts/OrderBook.sol\":2136:2137  i */\n      dup5\n        /* \"contracts/OrderBook.sol\":2127:2139  arr[uint(i)] */\n      dup2\n      mload\n      dup2\n      lt\n      tag_64\n      jumpi\n      tag_65\n      tag_46\n      jump\t// in\n    tag_65:\n    tag_64:\n      0x20\n      mul\n      0x20\n      add\n      add\n      mload\n        /* \"contracts/OrderBook.sol\":2082:2085  arr */\n      dup8\n        /* \"contracts/OrderBook.sol\":2091:2092  i */\n      dup6\n        /* \"contracts/OrderBook.sol\":2082:2094  arr[uint(i)] */\n      dup2\n      mload\n      dup2\n      lt\n      tag_66\n      jumpi\n      tag_67\n      tag_46\n      jump\t// in\n    tag_67:\n    tag_66:\n      0x20\n      mul\n      0x20\n      add\n      add\n        /* \"contracts/OrderBook.sol\":2096:2099  arr */\n      dup9\n        /* \"contracts/OrderBook.sol\":2105:2106  j */\n      dup6\n        /* \"contracts/OrderBook.sol\":2096:2108  arr[uint(j)] */\n      dup2\n      mload\n      dup2\n      lt\n      tag_68\n      jumpi\n      tag_69\n      tag_46\n      jump\t// in\n    tag_69:\n    tag_68:\n      0x20\n      mul\n      0x20\n      add\n      add\n        /* \"contracts/OrderBook.sol\":2081:2140  (arr[uint(i)], arr[uint(j)]) = (arr[uint(j)], arr[uint(i)]) */\n      dup3\n      swap1\n      mstore\n      dup3\n      swap1\n      mstore\n      pop\n      pop\n        /* \"contracts/OrderBook.sol\":2158:2161  i++ */\n      dup3\n      dup1\n      tag_70\n      swap1\n      tag_54\n      jump\t// in\n    tag_70:\n      swap4\n      pop\n      pop\n        /* \"contracts/OrderBook.sol\":2179:2182  j-- */\n      dup2\n      dup1\n      tag_71\n      swap1\n      tag_60\n      jump\t// in\n    tag_71:\n      swap3\n      pop\n      pop\n        /* \"contracts/OrderBook.sol\":2051:2197  if (i <= j) {... */\n    tag_61:\n        /* \"contracts/OrderBook.sol\":1910:2207  while (i <= j) {... */\n      jump(tag_47)\n    tag_48:\n        /* \"contracts/OrderBook.sol\":2227:2228  j */\n      dup2\n        /* \"contracts/OrderBook.sol\":2220:2224  left */\n      dup6\n        /* \"contracts/OrderBook.sol\":2220:2228  left < j */\n      slt\n        /* \"contracts/OrderBook.sol\":2216:2274  if (left < j)... */\n      iszero\n      tag_72\n      jumpi\n        /* \"contracts/OrderBook.sol\":2242:2274  ascendingQuickSort(arr, left, j) */\n      tag_73\n        /* \"contracts/OrderBook.sol\":2261:2264  arr */\n      dup7\n        /* \"contracts/OrderBook.sol\":2266:2270  left */\n      dup7\n        /* \"contracts/OrderBook.sol\":2272:2273  j */\n      dup5\n        /* \"contracts/OrderBook.sol\":2242:2260  ascendingQuickSort */\n      tag_32\n        /* \"contracts/OrderBook.sol\":2242:2274  ascendingQuickSort(arr, left, j) */\n      jump\t// in\n    tag_73:\n        /* \"contracts/OrderBook.sol\":2216:2274  if (left < j)... */\n    tag_72:\n        /* \"contracts/OrderBook.sol\":2292:2297  right */\n      dup4\n        /* \"contracts/OrderBook.sol\":2288:2289  i */\n      dup4\n        /* \"contracts/OrderBook.sol\":2288:2297  i < right */\n      slt\n        /* \"contracts/OrderBook.sol\":2284:2344  if (i < right)... */\n      iszero\n      tag_74\n      jumpi\n        /* \"contracts/OrderBook.sol\":2311:2344  ascendingQuickSort(arr, i, right) */\n      tag_75\n        /* \"contracts/OrderBook.sol\":2330:2333  arr */\n      dup7\n        /* \"contracts/OrderBook.sol\":2335:2336  i */\n      dup5\n        /* \"contracts/OrderBook.sol\":2338:2343  right */\n      dup7\n        /* \"contracts/OrderBook.sol\":2311:2329  ascendingQuickSort */\n      tag_32\n        /* \"contracts/OrderBook.sol\":2311:2344  ascendingQuickSort(arr, i, right) */\n      jump\t// in\n    tag_75:\n        /* \"contracts/OrderBook.sol\":2284:2344  if (i < right)... */\n    tag_74:\n        /* \"contracts/OrderBook.sol\":1758:2351  {... */\n      pop\n      pop\n      pop\n        /* \"contracts/OrderBook.sol\":1681:2351  function ascendingQuickSort(order[] memory arr, int left, int right) internal{... */\n    tag_36:\n      pop\n      pop\n      pop\n      jump\t// out\n        /* \"#utility.yul\":7:82   */\n    tag_76:\n        /* \"#utility.yul\":40:46   */\n      0x00\n        /* \"#utility.yul\":73:75   */\n      0x40\n        /* \"#utility.yul\":67:76   */\n      mload\n        /* \"#utility.yul\":57:76   */\n      swap1\n      pop\n        /* \"#utility.yul\":7:82   */\n      swap1\n      jump\t// out\n        /* \"#utility.yul\":88:205   */\n    tag_77:\n        /* \"#utility.yul\":197:198   */\n      0x00\n        /* \"#utility.yul\":194:195   */\n      dup1\n        /* \"#utility.yul\":187:199   */\n      revert\n        /* \"#utility.yul\":211:328   */\n    tag_78:\n        /* \"#utility.yul\":320:321   */\n      0x00\n        /* \"#utility.yul\":317:318   */\n      dup1\n        /* \"#utility.yul\":310:322   */\n      revert\n        /* \"#utility.yul\":334:411   */\n    tag_79:\n        /* \"#utility.yul\":371:378   */\n      0x00\n        /* \"#utility.yul\":400:405   */\n      dup2\n        /* \"#utility.yul\":389:405   */\n      swap1\n      pop\n        /* \"#utility.yul\":334:411   */\n      swap2\n      swap1\n      pop\n      jump\t// out\n        /* \"#utility.yul\":417:539   */\n    tag_80:\n        /* \"#utility.yul\":490:514   */\n      tag_116\n        /* \"#utility.yul\":508:513   */\n      dup2\n        /* \"#utility.yul\":490:514   */\n      tag_79\n      jump\t// in\n    tag_116:\n        /* \"#utility.yul\":483:488   */\n      dup2\n        /* \"#utility.yul\":480:515   */\n      eq\n        /* \"#utility.yul\":470:533   */\n      tag_117\n      jumpi\n        /* \"#utility.yul\":529:530   */\n      0x00\n        /* \"#utility.yul\":526:527   */\n      dup1\n        /* \"#utility.yul\":519:531   */\n      revert\n        /* \"#utility.yul\":470:533   */\n    tag_117:\n        /* \"#utility.yul\":417:539   */\n      pop\n      jump\t// out\n        /* \"#utility.yul\":545:684   */\n    tag_81:\n        /* \"#utility.yul\":591:596   */\n      0x00\n        /* \"#utility.yul\":629:635   */\n      dup2\n        /* \"#utility.yul\":616:636   */\n      calldataload\n        /* \"#utility.yul\":607:636   */\n      swap1\n      pop\n        /* \"#utility.yul\":645:678   */\n      tag_119\n        /* \"#utility.yul\":672:677   */\n      dup2\n        /* \"#utility.yul\":645:678   */\n      tag_80\n      jump\t// in\n    tag_119:\n        /* \"#utility.yul\":545:684   */\n      swap3\n      swap2\n      pop\n      pop\n      jump\t// out\n        /* \"#utility.yul\":690:1019   */\n    tag_10:\n        /* \"#utility.yul\":749:755   */\n      0x00\n        /* \"#utility.yul\":798:800   */\n      0x20\n        /* \"#utility.yul\":786:795   */\n      dup3\n        /* \"#utility.yul\":777:784   */\n      dup5\n        /* \"#utility.yul\":773:796   */\n      sub\n        /* \"#utility.yul\":769:801   */\n      slt\n        /* \"#utility.yul\":766:885   */\n      iszero\n      tag_121\n      jumpi\n        /* \"#utility.yul\":804:883   */\n      tag_122\n      tag_77\n      jump\t// in\n    tag_122:\n        /* \"#utility.yul\":766:885   */\n    tag_121:\n        /* \"#utility.yul\":924:925   */\n      0x00\n        /* \"#utility.yul\":949:1002   */\n      tag_123\n        /* \"#utility.yul\":994:1001   */\n      dup5\n        /* \"#utility.yul\":985:991   */\n      dup3\n        /* \"#utility.yul\":974:983   */\n      dup6\n        /* \"#utility.yul\":970:992   */\n      add\n        /* \"#utility.yul\":949:1002   */\n      tag_81\n      jump\t// in\n    tag_123:\n        /* \"#utility.yul\":939:1002   */\n      swap2\n      pop\n        /* \"#utility.yul\":895:1012   */\n      pop\n        /* \"#utility.yul\":690:1019   */\n      swap3\n      swap2\n      pop\n      pop\n      jump\t// out\n        /* \"#utility.yul\":1025:1142   */\n    tag_82:\n        /* \"#utility.yul\":1134:1135   */\n      0x00\n        /* \"#utility.yul\":1131:1132   */\n      dup1\n        /* \"#utility.yul\":1124:1136   */\n      revert\n        /* \"#utility.yul\":1148:1250   */\n    tag_83:\n        /* \"#utility.yul\":1189:1195   */\n      0x00\n        /* \"#utility.yul\":1240:1242   */\n      0x1f\n        /* \"#utility.yul\":1236:1243   */\n      not\n        /* \"#utility.yul\":1231:1233   */\n      0x1f\n        /* \"#utility.yul\":1224:1229   */\n      dup4\n        /* \"#utility.yul\":1220:1234   */\n      add\n        /* \"#utility.yul\":1216:1244   */\n      and\n        /* \"#utility.yul\":1206:1244   */\n      swap1\n      pop\n        /* \"#utility.yul\":1148:1250   */\n      swap2\n      swap1\n      pop\n      jump\t// out\n        /* \"#utility.yul\":1256:1436   */\n    tag_84:\n        /* \"#utility.yul\":1304:1381   */\n      0x4e487b7100000000000000000000000000000000000000000000000000000000\n        /* \"#utility.yul\":1301:1302   */\n      0x00\n        /* \"#utility.yul\":1294:1382   */\n      mstore\n        /* \"#utility.yul\":1401:1405   */\n      0x41\n        /* \"#utility.yul\":1398:1399   */\n      0x04\n        /* \"#utility.yul\":1391:1406   */\n      mstore\n        /* \"#utility.yul\":1425:1429   */\n      0x24\n        /* \"#utility.yul\":1422:1423   */\n      0x00\n        /* \"#utility.yul\":1415:1430   */\n      revert\n        /* \"#utility.yul\":1442:1723   */\n    tag_85:\n        /* \"#utility.yul\":1525:1552   */\n      tag_128\n        /* \"#utility.yul\":1547:1551   */\n      dup3\n        /* \"#utility.yul\":1525:1552   */\n      tag_83\n      jump\t// in\n    tag_128:\n        /* \"#utility.yul\":1517:1523   */\n      dup2\n        /* \"#utility.yul\":1513:1553   */\n      add\n        /* \"#utility.yul\":1655:1661   */\n      dup2\n        /* \"#utility.yul\":1643:1653   */\n      dup2\n        /* \"#utility.yul\":1640:1662   */\n      lt\n        /* \"#utility.yul\":1619:1637   */\n      0xffffffffffffffff\n        /* \"#utility.yul\":1607:1617   */\n      dup3\n        /* \"#utility.yul\":1604:1638   */\n      gt\n        /* \"#utility.yul\":1601:1663   */\n      or\n        /* \"#utility.yul\":1598:1686   */\n      iszero\n      tag_129\n      jumpi\n        /* \"#utility.yul\":1666:1684   */\n      tag_130\n      tag_84\n      jump\t// in\n    tag_130:\n        /* \"#utility.yul\":1598:1686   */\n    tag_129:\n        /* \"#utility.yul\":1706:1716   */\n      dup1\n        /* \"#utility.yul\":1702:1704   */\n      0x40\n        /* \"#utility.yul\":1695:1717   */\n      mstore\n        /* \"#utility.yul\":1485:1723   */\n      pop\n        /* \"#utility.yul\":1442:1723   */\n      pop\n      pop\n      jump\t// out\n        /* \"#utility.yul\":1729:1858   */\n    tag_86:\n        /* \"#utility.yul\":1763:1769   */\n      0x00\n        /* \"#utility.yul\":1790:1810   */\n      tag_132\n      tag_76\n      jump\t// in\n    tag_132:\n        /* \"#utility.yul\":1780:1810   */\n      swap1\n      pop\n        /* \"#utility.yul\":1819:1852   */\n      tag_133\n        /* \"#utility.yul\":1847:1851   */\n      dup3\n        /* \"#utility.yul\":1839:1845   */\n      dup3\n        /* \"#utility.yul\":1819:1852   */\n      tag_85\n      jump\t// in\n    tag_133:\n        /* \"#utility.yul\":1729:1858   */\n      swap2\n      swap1\n      pop\n      jump\t// out\n        /* \"#utility.yul\":1864:2196   */\n    tag_87:\n        /* \"#utility.yul\":1962:1966   */\n      0x00\n        /* \"#utility.yul\":2052:2070   */\n      0xffffffffffffffff\n        /* \"#utility.yul\":2044:2050   */\n      dup3\n        /* \"#utility.yul\":2041:2071   */\n      gt\n        /* \"#utility.yul\":2038:2094   */\n      iszero\n      tag_135\n      jumpi\n        /* \"#utility.yul\":2074:2092   */\n      tag_136\n      tag_84\n      jump\t// in\n    tag_136:\n        /* \"#utility.yul\":2038:2094   */\n    tag_135:\n        /* \"#utility.yul\":2124:2128   */\n      0x20\n        /* \"#utility.yul\":2116:2122   */\n      dup3\n        /* \"#utility.yul\":2112:2129   */\n      mul\n        /* \"#utility.yul\":2104:2129   */\n      swap1\n      pop\n        /* \"#utility.yul\":2184:2188   */\n      0x20\n        /* \"#utility.yul\":2178:2182   */\n      dup2\n        /* \"#utility.yul\":2174:2189   */\n      add\n        /* \"#utility.yul\":2166:2189   */\n      swap1\n      pop\n        /* \"#utility.yul\":1864:2196   */\n      swap2\n      swap1\n      pop\n      jump\t// out\n        /* \"#utility.yul\":2202:2319   */\n    tag_88:\n        /* \"#utility.yul\":2311:2312   */\n      0x00\n        /* \"#utility.yul\":2308:2309   */\n      dup1\n        /* \"#utility.yul\":2301:2313   */\n      revert\n        /* \"#utility.yul\":2325:2442   */\n    tag_89:\n        /* \"#utility.yul\":2434:2435   */\n      0x00\n        /* \"#utility.yul\":2431:2432   */\n      dup1\n        /* \"#utility.yul\":2424:2436   */\n      revert\n        /* \"#utility.yul\":2571:2697   */\n    tag_91:\n        /* \"#utility.yul\":2608:2615   */\n      0x00\n        /* \"#utility.yul\":2648:2690   */\n      0xffffffffffffffffffffffffffffffffffffffff\n        /* \"#utility.yul\":2641:2646   */\n      dup3\n        /* \"#utility.yul\":2637:2691   */\n      and\n        /* \"#utility.yul\":2626:2691   */\n      swap1\n      pop\n        /* \"#utility.yul\":2571:2697   */\n      swap2\n      swap1\n      pop\n      jump\t// out\n        /* \"#utility.yul\":2703:2807   */\n    tag_92:\n        /* \"#utility.yul\":2748:2755   */\n      0x00\n        /* \"#utility.yul\":2777:2801   */\n      tag_142\n        /* \"#utility.yul\":2795:2800   */\n      dup3\n        /* \"#utility.yul\":2777:2801   */\n      tag_91\n      jump\t// in\n    tag_142:\n        /* \"#utility.yul\":2766:2801   */\n      swap1\n      pop\n        /* \"#utility.yul\":2703:2807   */\n      swap2\n      swap1\n      pop\n      jump\t// out\n        /* \"#utility.yul\":2813:2951   */\n    tag_93:\n        /* \"#utility.yul\":2894:2926   */\n      tag_144\n        /* \"#utility.yul\":2920:2925   */\n      dup2\n        /* \"#utility.yul\":2894:2926   */\n      tag_92\n      jump\t// in\n    tag_144:\n        /* \"#utility.yul\":2887:2892   */\n      dup2\n        /* \"#utility.yul\":2884:2927   */\n      eq\n        /* \"#utility.yul\":2874:2945   */\n      tag_145\n      jumpi\n        /* \"#utility.yul\":2941:2942   */\n      0x00\n        /* \"#utility.yul\":2938:2939   */\n      dup1\n        /* \"#utility.yul\":2931:2943   */\n      revert\n        /* \"#utility.yul\":2874:2945   */\n    tag_145:\n        /* \"#utility.yul\":2813:2951   */\n      pop\n      jump\t// out\n        /* \"#utility.yul\":2957:3112   */\n    tag_94:\n        /* \"#utility.yul\":3011:3016   */\n      0x00\n        /* \"#utility.yul\":3049:3055   */\n      dup2\n        /* \"#utility.yul\":3036:3056   */\n      calldataload\n        /* \"#utility.yul\":3027:3056   */\n      swap1\n      pop\n        /* \"#utility.yul\":3065:3106   */\n      tag_147\n        /* \"#utility.yul\":3100:3105   */\n      dup2\n        /* \"#utility.yul\":3065:3106   */\n      tag_93\n      jump\t// in\n    tag_147:\n        /* \"#utility.yul\":2957:3112   */\n      swap3\n      swap2\n      pop\n      pop\n      jump\t// out\n        /* \"#utility.yul\":3148:4063   */\n    tag_95:\n        /* \"#utility.yul\":3218:3223   */\n      0x00\n        /* \"#utility.yul\":3262:3266   */\n      0x80\n        /* \"#utility.yul\":3250:3259   */\n      dup3\n        /* \"#utility.yul\":3245:3248   */\n      dup5\n        /* \"#utility.yul\":3241:3260   */\n      sub\n        /* \"#utility.yul\":3237:3267   */\n      slt\n        /* \"#utility.yul\":3234:3351   */\n      iszero\n      tag_149\n      jumpi\n        /* \"#utility.yul\":3270:3349   */\n      tag_150\n      tag_89\n      jump\t// in\n    tag_150:\n        /* \"#utility.yul\":3234:3351   */\n    tag_149:\n        /* \"#utility.yul\":3369:3390   */\n      tag_151\n        /* \"#utility.yul\":3385:3389   */\n      0x80\n        /* \"#utility.yul\":3369:3390   */\n      tag_86\n      jump\t// in\n    tag_151:\n        /* \"#utility.yul\":3360:3390   */\n      swap1\n      pop\n        /* \"#utility.yul\":3453:3454   */\n      0x00\n        /* \"#utility.yul\":3493:3550   */\n      tag_152\n        /* \"#utility.yul\":3546:3549   */\n      dup5\n        /* \"#utility.yul\":3537:3543   */\n      dup3\n        /* \"#utility.yul\":3526:3535   */\n      dup6\n        /* \"#utility.yul\":3522:3544   */\n      add\n        /* \"#utility.yul\":3493:3550   */\n      tag_94\n      jump\t// in\n    tag_152:\n        /* \"#utility.yul\":3486:3490   */\n      0x00\n        /* \"#utility.yul\":3479:3484   */\n      dup4\n        /* \"#utility.yul\":3475:3491   */\n      add\n        /* \"#utility.yul\":3468:3551   */\n      mstore\n        /* \"#utility.yul\":3400:3562   */\n      pop\n        /* \"#utility.yul\":3622:3624   */\n      0x20\n        /* \"#utility.yul\":3663:3712   */\n      tag_153\n        /* \"#utility.yul\":3708:3711   */\n      dup5\n        /* \"#utility.yul\":3699:3705   */\n      dup3\n        /* \"#utility.yul\":3688:3697   */\n      dup6\n        /* \"#utility.yul\":3684:3706   */\n      add\n        /* \"#utility.yul\":3663:3712   */\n      tag_81\n      jump\t// in\n    tag_153:\n        /* \"#utility.yul\":3656:3660   */\n      0x20\n        /* \"#utility.yul\":3649:3654   */\n      dup4\n        /* \"#utility.yul\":3645:3661   */\n      add\n        /* \"#utility.yul\":3638:3713   */\n      mstore\n        /* \"#utility.yul\":3572:3724   */\n      pop\n        /* \"#utility.yul\":3788:3790   */\n      0x40\n        /* \"#utility.yul\":3829:3878   */\n      tag_154\n        /* \"#utility.yul\":3874:3877   */\n      dup5\n        /* \"#utility.yul\":3865:3871   */\n      dup3\n        /* \"#utility.yul\":3854:3863   */\n      dup6\n        /* \"#utility.yul\":3850:3872   */\n      add\n        /* \"#utility.yul\":3829:3878   */\n      tag_81\n      jump\t// in\n    tag_154:\n        /* \"#utility.yul\":3822:3826   */\n      0x40\n        /* \"#utility.yul\":3815:3820   */\n      dup4\n        /* \"#utility.yul\":3811:3827   */\n      add\n        /* \"#utility.yul\":3804:3879   */\n      mstore\n        /* \"#utility.yul\":3734:3890   */\n      pop\n        /* \"#utility.yul\":3954:3956   */\n      0x60\n        /* \"#utility.yul\":3995:4044   */\n      tag_155\n        /* \"#utility.yul\":4040:4043   */\n      dup5\n        /* \"#utility.yul\":4031:4037   */\n      dup3\n        /* \"#utility.yul\":4020:4029   */\n      dup6\n        /* \"#utility.yul\":4016:4038   */\n      add\n        /* \"#utility.yul\":3995:4044   */\n      tag_81\n      jump\t// in\n    tag_155:\n        /* \"#utility.yul\":3988:3992   */\n      0x60\n        /* \"#utility.yul\":3981:3986   */\n      dup4\n        /* \"#utility.yul\":3977:3993   */\n      add\n        /* \"#utility.yul\":3970:4045   */\n      mstore\n        /* \"#utility.yul\":3900:4056   */\n      pop\n        /* \"#utility.yul\":3148:4063   */\n      swap3\n      swap2\n      pop\n      pop\n      jump\t// out\n        /* \"#utility.yul\":4101:4874   */\n    tag_96:\n        /* \"#utility.yul\":4218:4223   */\n      0x00\n        /* \"#utility.yul\":4243:4345   */\n      tag_157\n        /* \"#utility.yul\":4259:4344   */\n      tag_158\n        /* \"#utility.yul\":4337:4343   */\n      dup5\n        /* \"#utility.yul\":4259:4344   */\n      tag_87\n      jump\t// in\n    tag_158:\n        /* \"#utility.yul\":4243:4345   */\n      tag_86\n      jump\t// in\n    tag_157:\n        /* \"#utility.yul\":4234:4345   */\n      swap1\n      pop\n        /* \"#utility.yul\":4365:4370   */\n      dup1\n        /* \"#utility.yul\":4394:4400   */\n      dup4\n        /* \"#utility.yul\":4387:4392   */\n      dup3\n        /* \"#utility.yul\":4380:4401   */\n      mstore\n        /* \"#utility.yul\":4428:4432   */\n      0x20\n        /* \"#utility.yul\":4421:4426   */\n      dup3\n        /* \"#utility.yul\":4417:4433   */\n      add\n        /* \"#utility.yul\":4410:4433   */\n      swap1\n      pop\n        /* \"#utility.yul\":4481:4485   */\n      0x80\n        /* \"#utility.yul\":4473:4479   */\n      dup5\n        /* \"#utility.yul\":4469:4486   */\n      mul\n        /* \"#utility.yul\":4461:4467   */\n      dup4\n        /* \"#utility.yul\":4457:4487   */\n      add\n        /* \"#utility.yul\":4510:4513   */\n      dup6\n        /* \"#utility.yul\":4502:4508   */\n      dup2\n        /* \"#utility.yul\":4499:4514   */\n      gt\n        /* \"#utility.yul\":4496:4618   */\n      iszero\n      tag_159\n      jumpi\n        /* \"#utility.yul\":4529:4608   */\n      tag_160\n      tag_88\n      jump\t// in\n    tag_160:\n        /* \"#utility.yul\":4496:4618   */\n    tag_159:\n        /* \"#utility.yul\":4644:4650   */\n      dup4\n        /* \"#utility.yul\":4627:4868   */\n    tag_161:\n        /* \"#utility.yul\":4661:4667   */\n      dup2\n        /* \"#utility.yul\":4656:4659   */\n      dup2\n        /* \"#utility.yul\":4653:4668   */\n      lt\n        /* \"#utility.yul\":4627:4868   */\n      iszero\n      tag_163\n      jumpi\n        /* \"#utility.yul\":4736:4739   */\n      dup1\n        /* \"#utility.yul\":4765:4823   */\n      tag_164\n        /* \"#utility.yul\":4819:4822   */\n      dup9\n        /* \"#utility.yul\":4807:4817   */\n      dup3\n        /* \"#utility.yul\":4765:4823   */\n      tag_95\n      jump\t// in\n    tag_164:\n        /* \"#utility.yul\":4760:4763   */\n      dup5\n        /* \"#utility.yul\":4753:4824   */\n      mstore\n        /* \"#utility.yul\":4853:4857   */\n      0x20\n        /* \"#utility.yul\":4848:4851   */\n      dup5\n        /* \"#utility.yul\":4844:4858   */\n      add\n        /* \"#utility.yul\":4837:4858   */\n      swap4\n      pop\n        /* \"#utility.yul\":4703:4868   */\n      pop\n        /* \"#utility.yul\":4687:4691   */\n      0x80\n        /* \"#utility.yul\":4682:4685   */\n      dup2\n        /* \"#utility.yul\":4678:4692   */\n      add\n        /* \"#utility.yul\":4671:4692   */\n      swap1\n      pop\n        /* \"#utility.yul\":4627:4868   */\n      jump(tag_161)\n    tag_163:\n        /* \"#utility.yul\":4631:4652   */\n      pop\n        /* \"#utility.yul\":4224:4874   */\n      pop\n      pop\n        /* \"#utility.yul\":4101:4874   */\n      swap4\n      swap3\n      pop\n      pop\n      pop\n      jump\t// out\n        /* \"#utility.yul\":4912:5324   */\n    tag_97:\n        /* \"#utility.yul\":5004:5009   */\n      0x00\n        /* \"#utility.yul\":5053:5056   */\n      dup3\n        /* \"#utility.yul\":5046:5050   */\n      0x1f\n        /* \"#utility.yul\":5038:5044   */\n      dup4\n        /* \"#utility.yul\":5034:5051   */\n      add\n        /* \"#utility.yul\":5030:5057   */\n      slt\n        /* \"#utility.yul\":5020:5142   */\n      tag_166\n      jumpi\n        /* \"#utility.yul\":5061:5140   */\n      tag_167\n      tag_82\n      jump\t// in\n    tag_167:\n        /* \"#utility.yul\":5020:5142   */\n    tag_166:\n        /* \"#utility.yul\":5178:5184   */\n      dup2\n        /* \"#utility.yul\":5165:5185   */\n      calldataload\n        /* \"#utility.yul\":5203:5318   */\n      tag_168\n        /* \"#utility.yul\":5314:5317   */\n      dup5\n        /* \"#utility.yul\":5306:5312   */\n      dup3\n        /* \"#utility.yul\":5299:5303   */\n      0x20\n        /* \"#utility.yul\":5291:5297   */\n      dup7\n        /* \"#utility.yul\":5287:5304   */\n      add\n        /* \"#utility.yul\":5203:5318   */\n      tag_96\n      jump\t// in\n    tag_168:\n        /* \"#utility.yul\":5194:5318   */\n      swap2\n      pop\n        /* \"#utility.yul\":5010:5324   */\n      pop\n        /* \"#utility.yul\":4912:5324   */\n      swap3\n      swap2\n      pop\n      pop\n      jump\t// out\n        /* \"#utility.yul\":5330:5911   */\n    tag_14:\n        /* \"#utility.yul\":5435:5441   */\n      0x00\n        /* \"#utility.yul\":5484:5486   */\n      0x20\n        /* \"#utility.yul\":5472:5481   */\n      dup3\n        /* \"#utility.yul\":5463:5470   */\n      dup5\n        /* \"#utility.yul\":5459:5482   */\n      sub\n        /* \"#utility.yul\":5455:5487   */\n      slt\n        /* \"#utility.yul\":5452:5571   */\n      iszero\n      tag_170\n      jumpi\n        /* \"#utility.yul\":5490:5569   */\n      tag_171\n      tag_77\n      jump\t// in\n    tag_171:\n        /* \"#utility.yul\":5452:5571   */\n    tag_170:\n        /* \"#utility.yul\":5638:5639   */\n      0x00\n        /* \"#utility.yul\":5627:5636   */\n      dup3\n        /* \"#utility.yul\":5623:5640   */\n      add\n        /* \"#utility.yul\":5610:5641   */\n      calldataload\n        /* \"#utility.yul\":5668:5686   */\n      0xffffffffffffffff\n        /* \"#utility.yul\":5660:5666   */\n      dup2\n        /* \"#utility.yul\":5657:5687   */\n      gt\n        /* \"#utility.yul\":5654:5771   */\n      iszero\n      tag_172\n      jumpi\n        /* \"#utility.yul\":5690:5769   */\n      tag_173\n      tag_78\n      jump\t// in\n    tag_173:\n        /* \"#utility.yul\":5654:5771   */\n    tag_172:\n        /* \"#utility.yul\":5795:5894   */\n      tag_174\n        /* \"#utility.yul\":5886:5893   */\n      dup5\n        /* \"#utility.yul\":5877:5883   */\n      dup3\n        /* \"#utility.yul\":5866:5875   */\n      dup6\n        /* \"#utility.yul\":5862:5884   */\n      add\n        /* \"#utility.yul\":5795:5894   */\n      tag_97\n      jump\t// in\n    tag_174:\n        /* \"#utility.yul\":5785:5894   */\n      swap2\n      pop\n        /* \"#utility.yul\":5581:5904   */\n      pop\n        /* \"#utility.yul\":5330:5911   */\n      swap3\n      swap2\n      pop\n      pop\n      jump\t// out\n        /* \"#utility.yul\":5917:6052   */\n    tag_98:\n        /* \"#utility.yul\":6005:6011   */\n      0x00\n        /* \"#utility.yul\":6039:6044   */\n      dup2\n        /* \"#utility.yul\":6033:6045   */\n      mload\n        /* \"#utility.yul\":6023:6045   */\n      swap1\n      pop\n        /* \"#utility.yul\":5917:6052   */\n      swap2\n      swap1\n      pop\n      jump\t// out\n        /* \"#utility.yul\":6058:6263   */\n    tag_99:\n        /* \"#utility.yul\":6178:6189   */\n      0x00\n        /* \"#utility.yul\":6212:6218   */\n      dup3\n        /* \"#utility.yul\":6207:6210   */\n      dup3\n        /* \"#utility.yul\":6200:6219   */\n      mstore\n        /* \"#utility.yul\":6252:6256   */\n      0x20\n        /* \"#utility.yul\":6247:6250   */\n      dup3\n        /* \"#utility.yul\":6243:6257   */\n      add\n        /* \"#utility.yul\":6228:6257   */\n      swap1\n      pop\n        /* \"#utility.yul\":6058:6263   */\n      swap3\n      swap2\n      pop\n      pop\n      jump\t// out\n        /* \"#utility.yul\":6269:6422   */\n    tag_100:\n        /* \"#utility.yul\":6357:6361   */\n      0x00\n        /* \"#utility.yul\":6380:6383   */\n      dup2\n        /* \"#utility.yul\":6372:6383   */\n      swap1\n      pop\n        /* \"#utility.yul\":6410:6414   */\n      0x20\n        /* \"#utility.yul\":6405:6408   */\n      dup3\n        /* \"#utility.yul\":6401:6415   */\n      add\n        /* \"#utility.yul\":6393:6415   */\n      swap1\n      pop\n        /* \"#utility.yul\":6269:6422   */\n      swap2\n      swap1\n      pop\n      jump\t// out\n        /* \"#utility.yul\":6428:6560   */\n    tag_101:\n        /* \"#utility.yul\":6521:6553   */\n      tag_179\n        /* \"#utility.yul\":6547:6552   */\n      dup2\n        /* \"#utility.yul\":6521:6553   */\n      tag_92\n      jump\t// in\n    tag_179:\n        /* \"#utility.yul\":6516:6519   */\n      dup3\n        /* \"#utility.yul\":6509:6554   */\n      mstore\n        /* \"#utility.yul\":6428:6560   */\n      pop\n      pop\n      jump\t// out\n        /* \"#utility.yul\":6566:6674   */\n    tag_102:\n        /* \"#utility.yul\":6643:6667   */\n      tag_181\n        /* \"#utility.yul\":6661:6666   */\n      dup2\n        /* \"#utility.yul\":6643:6667   */\n      tag_79\n      jump\t// in\n    tag_181:\n        /* \"#utility.yul\":6638:6641   */\n      dup3\n        /* \"#utility.yul\":6631:6668   */\n      mstore\n        /* \"#utility.yul\":6566:6674   */\n      pop\n      pop\n      jump\t// out\n        /* \"#utility.yul\":6736:7604   */\n    tag_103:\n        /* \"#utility.yul\":6865:6869   */\n      0x80\n        /* \"#utility.yul\":6860:6863   */\n      dup3\n        /* \"#utility.yul\":6856:6870   */\n      add\n        /* \"#utility.yul\":6956:6960   */\n      0x00\n        /* \"#utility.yul\":6949:6954   */\n      dup3\n        /* \"#utility.yul\":6945:6961   */\n      add\n        /* \"#utility.yul\":6939:6962   */\n      mload\n        /* \"#utility.yul\":6975:7054   */\n      tag_183\n        /* \"#utility.yul\":7048:7052   */\n      0x00\n        /* \"#utility.yul\":7043:7046   */\n      dup6\n        /* \"#utility.yul\":7039:7053   */\n      add\n        /* \"#utility.yul\":7025:7037   */\n      dup3\n        /* \"#utility.yul\":6975:7054   */\n      tag_101\n      jump\t// in\n    tag_183:\n        /* \"#utility.yul\":6880:7064   */\n      pop\n        /* \"#utility.yul\":7147:7151   */\n      0x20\n        /* \"#utility.yul\":7140:7145   */\n      dup3\n        /* \"#utility.yul\":7136:7152   */\n      add\n        /* \"#utility.yul\":7130:7153   */\n      mload\n        /* \"#utility.yul\":7166:7229   */\n      tag_184\n        /* \"#utility.yul\":7223:7227   */\n      0x20\n        /* \"#utility.yul\":7218:7221   */\n      dup6\n        /* \"#utility.yul\":7214:7228   */\n      add\n        /* \"#utility.yul\":7200:7212   */\n      dup3\n        /* \"#utility.yul\":7166:7229   */\n      tag_102\n      jump\t// in\n    tag_184:\n        /* \"#utility.yul\":7074:7239   */\n      pop\n        /* \"#utility.yul\":7326:7330   */\n      0x40\n        /* \"#utility.yul\":7319:7324   */\n      dup3\n        /* \"#utility.yul\":7315:7331   */\n      add\n        /* \"#utility.yul\":7309:7332   */\n      mload\n        /* \"#utility.yul\":7345:7408   */\n      tag_185\n        /* \"#utility.yul\":7402:7406   */\n      0x40\n        /* \"#utility.yul\":7397:7400   */\n      dup6\n        /* \"#utility.yul\":7393:7407   */\n      add\n        /* \"#utility.yul\":7379:7391   */\n      dup3\n        /* \"#utility.yul\":7345:7408   */\n      tag_102\n      jump\t// in\n    tag_185:\n        /* \"#utility.yul\":7249:7418   */\n      pop\n        /* \"#utility.yul\":7505:7509   */\n      0x60\n        /* \"#utility.yul\":7498:7503   */\n      dup3\n        /* \"#utility.yul\":7494:7510   */\n      add\n        /* \"#utility.yul\":7488:7511   */\n      mload\n        /* \"#utility.yul\":7524:7587   */\n      tag_186\n        /* \"#utility.yul\":7581:7585   */\n      0x60\n        /* \"#utility.yul\":7576:7579   */\n      dup6\n        /* \"#utility.yul\":7572:7586   */\n      add\n        /* \"#utility.yul\":7558:7570   */\n      dup3\n        /* \"#utility.yul\":7524:7587   */\n      tag_102\n      jump\t// in\n    tag_186:\n        /* \"#utility.yul\":7428:7597   */\n      pop\n        /* \"#utility.yul\":6834:7604   */\n      pop\n        /* \"#utility.yul\":6736:7604   */\n      pop\n      pop\n      jump\t// out\n        /* \"#utility.yul\":7610:7873   */\n    tag_104:\n        /* \"#utility.yul\":7721:7731   */\n      0x00\n        /* \"#utility.yul\":7742:7830   */\n      tag_188\n        /* \"#utility.yul\":7826:7829   */\n      dup4\n        /* \"#utility.yul\":7818:7824   */\n      dup4\n        /* \"#utility.yul\":7742:7830   */\n      tag_103\n      jump\t// in\n    tag_188:\n        /* \"#utility.yul\":7862:7866   */\n      0x80\n        /* \"#utility.yul\":7857:7860   */\n      dup4\n        /* \"#utility.yul\":7853:7867   */\n      add\n        /* \"#utility.yul\":7839:7867   */\n      swap1\n      pop\n        /* \"#utility.yul\":7610:7873   */\n      swap3\n      swap2\n      pop\n      pop\n      jump\t// out\n        /* \"#utility.yul\":7879:8013   */\n    tag_105:\n        /* \"#utility.yul\":7970:7974   */\n      0x00\n        /* \"#utility.yul\":8002:8006   */\n      0x20\n        /* \"#utility.yul\":7997:8000   */\n      dup3\n        /* \"#utility.yul\":7993:8007   */\n      add\n        /* \"#utility.yul\":7985:8007   */\n      swap1\n      pop\n        /* \"#utility.yul\":7879:8013   */\n      swap2\n      swap1\n      pop\n      jump\t// out\n        /* \"#utility.yul\":8079:8979   */\n    tag_106:\n        /* \"#utility.yul\":8240:8243   */\n      0x00\n        /* \"#utility.yul\":8269:8344   */\n      tag_191\n        /* \"#utility.yul\":8338:8343   */\n      dup3\n        /* \"#utility.yul\":8269:8344   */\n      tag_98\n      jump\t// in\n    tag_191:\n        /* \"#utility.yul\":8360:8467   */\n      tag_192\n        /* \"#utility.yul\":8460:8466   */\n      dup2\n        /* \"#utility.yul\":8455:8458   */\n      dup6\n        /* \"#utility.yul\":8360:8467   */\n      tag_99\n      jump\t// in\n    tag_192:\n        /* \"#utility.yul\":8353:8467   */\n      swap4\n      pop\n        /* \"#utility.yul\":8491:8568   */\n      tag_193\n        /* \"#utility.yul\":8562:8567   */\n      dup4\n        /* \"#utility.yul\":8491:8568   */\n      tag_100\n      jump\t// in\n    tag_193:\n        /* \"#utility.yul\":8591:8598   */\n      dup1\n        /* \"#utility.yul\":8622:8623   */\n      0x00\n        /* \"#utility.yul\":8607:8954   */\n    tag_194:\n        /* \"#utility.yul\":8632:8638   */\n      dup4\n        /* \"#utility.yul\":8629:8630   */\n      dup2\n        /* \"#utility.yul\":8626:8639   */\n      lt\n        /* \"#utility.yul\":8607:8954   */\n      iszero\n      tag_196\n      jumpi\n        /* \"#utility.yul\":8708:8714   */\n      dup2\n        /* \"#utility.yul\":8702:8715   */\n      mload\n        /* \"#utility.yul\":8735:8840   */\n      tag_197\n        /* \"#utility.yul\":8836:8839   */\n      dup9\n        /* \"#utility.yul\":8821:8834   */\n      dup3\n        /* \"#utility.yul\":8735:8840   */\n      tag_104\n      jump\t// in\n    tag_197:\n        /* \"#utility.yul\":8728:8840   */\n      swap8\n      pop\n        /* \"#utility.yul\":8863:8944   */\n      tag_198\n        /* \"#utility.yul\":8937:8943   */\n      dup4\n        /* \"#utility.yul\":8863:8944   */\n      tag_105\n      jump\t// in\n    tag_198:\n        /* \"#utility.yul\":8853:8944   */\n      swap3\n      pop\n        /* \"#utility.yul\":8667:8954   */\n      pop\n        /* \"#utility.yul\":8654:8655   */\n      0x01\n        /* \"#utility.yul\":8651:8652   */\n      dup2\n        /* \"#utility.yul\":8647:8656   */\n      add\n        /* \"#utility.yul\":8642:8656   */\n      swap1\n      pop\n        /* \"#utility.yul\":8607:8954   */\n      jump(tag_194)\n    tag_196:\n        /* \"#utility.yul\":8611:8625   */\n      pop\n        /* \"#utility.yul\":8970:8973   */\n      dup6\n        /* \"#utility.yul\":8963:8973   */\n      swap4\n      pop\n        /* \"#utility.yul\":8245:8979   */\n      pop\n      pop\n      pop\n        /* \"#utility.yul\":8079:8979   */\n      swap3\n      swap2\n      pop\n      pop\n      jump\t// out\n        /* \"#utility.yul\":8985:9442   */\n    tag_17:\n        /* \"#utility.yul\":9170:9174   */\n      0x00\n        /* \"#utility.yul\":9208:9210   */\n      0x20\n        /* \"#utility.yul\":9197:9206   */\n      dup3\n        /* \"#utility.yul\":9193:9211   */\n      add\n        /* \"#utility.yul\":9185:9211   */\n      swap1\n      pop\n        /* \"#utility.yul\":9257:9266   */\n      dup2\n        /* \"#utility.yul\":9251:9255   */\n      dup2\n        /* \"#utility.yul\":9247:9267   */\n      sub\n        /* \"#utility.yul\":9243:9244   */\n      0x00\n        /* \"#utility.yul\":9232:9241   */\n      dup4\n        /* \"#utility.yul\":9228:9245   */\n      add\n        /* \"#utility.yul\":9221:9268   */\n      mstore\n        /* \"#utility.yul\":9285:9435   */\n      tag_200\n        /* \"#utility.yul\":9430:9434   */\n      dup2\n        /* \"#utility.yul\":9421:9427   */\n      dup5\n        /* \"#utility.yul\":9285:9435   */\n      tag_106\n      jump\t// in\n    tag_200:\n        /* \"#utility.yul\":9277:9435   */\n      swap1\n      pop\n        /* \"#utility.yul\":8985:9442   */\n      swap3\n      swap2\n      pop\n      pop\n      jump\t// out\n        /* \"#utility.yul\":9448:9628   */\n    tag_107:\n        /* \"#utility.yul\":9496:9573   */\n      0x4e487b7100000000000000000000000000000000000000000000000000000000\n        /* \"#utility.yul\":9493:9494   */\n      0x00\n        /* \"#utility.yul\":9486:9574   */\n      mstore\n        /* \"#utility.yul\":9593:9597   */\n      0x11\n        /* \"#utility.yul\":9590:9591   */\n      0x04\n        /* \"#utility.yul\":9583:9598   */\n      mstore\n        /* \"#utility.yul\":9617:9621   */\n      0x24\n        /* \"#utility.yul\":9614:9615   */\n      0x00\n        /* \"#utility.yul\":9607:9622   */\n      revert\n        /* \"#utility.yul\":9634:9825   */\n    tag_31:\n        /* \"#utility.yul\":9674:9678   */\n      0x00\n        /* \"#utility.yul\":9694:9714   */\n      tag_203\n        /* \"#utility.yul\":9712:9713   */\n      dup3\n        /* \"#utility.yul\":9694:9714   */\n      tag_79\n      jump\t// in\n    tag_203:\n        /* \"#utility.yul\":9689:9714   */\n      swap2\n      pop\n        /* \"#utility.yul\":9728:9748   */\n      tag_204\n        /* \"#utility.yul\":9746:9747   */\n      dup4\n        /* \"#utility.yul\":9728:9748   */\n      tag_79\n      jump\t// in\n    tag_204:\n        /* \"#utility.yul\":9723:9748   */\n      swap3\n      pop\n        /* \"#utility.yul\":9767:9768   */\n      dup3\n        /* \"#utility.yul\":9764:9765   */\n      dup3\n        /* \"#utility.yul\":9761:9769   */\n      lt\n        /* \"#utility.yul\":9758:9792   */\n      iszero\n      tag_205\n      jumpi\n        /* \"#utility.yul\":9772:9790   */\n      tag_206\n      tag_107\n      jump\t// in\n    tag_206:\n        /* \"#utility.yul\":9758:9792   */\n    tag_205:\n        /* \"#utility.yul\":9817:9818   */\n      dup3\n        /* \"#utility.yul\":9814:9815   */\n      dup3\n        /* \"#utility.yul\":9810:9819   */\n      sub\n        /* \"#utility.yul\":9802:9819   */\n      swap1\n      pop\n        /* \"#utility.yul\":9634:9825   */\n      swap3\n      swap2\n      pop\n      pop\n      jump\t// out\n        /* \"#utility.yul\":9831:9907   */\n    tag_108:\n        /* \"#utility.yul\":9867:9874   */\n      0x00\n        /* \"#utility.yul\":9896:9901   */\n      dup2\n        /* \"#utility.yul\":9885:9901   */\n      swap1\n      pop\n        /* \"#utility.yul\":9831:9907   */\n      swap2\n      swap1\n      pop\n      jump\t// out\n        /* \"#utility.yul\":9913:10440   */\n    tag_39:\n        /* \"#utility.yul\":9952:9956   */\n      0x00\n        /* \"#utility.yul\":9972:9991   */\n      tag_209\n        /* \"#utility.yul\":9989:9990   */\n      dup3\n        /* \"#utility.yul\":9972:9991   */\n      tag_108\n      jump\t// in\n    tag_209:\n        /* \"#utility.yul\":9967:9991   */\n      swap2\n      pop\n        /* \"#utility.yul\":10005:10024   */\n      tag_210\n        /* \"#utility.yul\":10022:10023   */\n      dup4\n        /* \"#utility.yul\":10005:10024   */\n      tag_108\n      jump\t// in\n    tag_210:\n        /* \"#utility.yul\":10000:10024   */\n      swap3\n      pop\n        /* \"#utility.yul\":10194:10195   */\n      dup3\n        /* \"#utility.yul\":10126:10192   */\n      0x8000000000000000000000000000000000000000000000000000000000000000\n        /* \"#utility.yul\":10122:10196   */\n      add\n        /* \"#utility.yul\":10119:10120   */\n      dup3\n        /* \"#utility.yul\":10115:10197   */\n      slt\n        /* \"#utility.yul\":10110:10111   */\n      0x00\n        /* \"#utility.yul\":10107:10108   */\n      dup5\n        /* \"#utility.yul\":10103:10112   */\n      slt\n        /* \"#utility.yul\":10096:10113   */\n      iszero\n        /* \"#utility.yul\":10092:10198   */\n      and\n        /* \"#utility.yul\":10089:10221   */\n      iszero\n      tag_211\n      jumpi\n        /* \"#utility.yul\":10201:10219   */\n      tag_212\n      tag_107\n      jump\t// in\n    tag_212:\n        /* \"#utility.yul\":10089:10221   */\n    tag_211:\n        /* \"#utility.yul\":10380:10381   */\n      dup3\n        /* \"#utility.yul\":10312:10378   */\n      0x7fffffffffffffffffffffffffffffffffffffffffffffffffffffffffffffff\n        /* \"#utility.yul\":10308:10382   */\n      add\n        /* \"#utility.yul\":10305:10306   */\n      dup3\n        /* \"#utility.yul\":10301:10383   */\n      sgt\n        /* \"#utility.yul\":10297:10298   */\n      0x00\n        /* \"#utility.yul\":10294:10295   */\n      dup5\n        /* \"#utility.yul\":10290:10299   */\n      slt\n        /* \"#utility.yul\":10286:10384   */\n      and\n        /* \"#utility.yul\":10283:10407   */\n      iszero\n      tag_213\n      jumpi\n        /* \"#utility.yul\":10387:10405   */\n      tag_214\n      tag_107\n      jump\t// in\n    tag_214:\n        /* \"#utility.yul\":10283:10407   */\n    tag_213:\n        /* \"#utility.yul\":10432:10433   */\n      dup3\n        /* \"#utility.yul\":10429:10430   */\n      dup3\n        /* \"#utility.yul\":10425:10434   */\n      sub\n        /* \"#utility.yul\":10417:10434   */\n      swap1\n      pop\n        /* \"#utility.yul\":9913:10440   */\n      swap3\n      swap2\n      pop\n      pop\n      jump\t// out\n        /* \"#utility.yul\":10446:10626   */\n    tag_109:\n        /* \"#utility.yul\":10494:10571   */\n      0x4e487b7100000000000000000000000000000000000000000000000000000000\n        /* \"#utility.yul\":10491:10492   */\n      0x00\n        /* \"#utility.yul\":10484:10572   */\n      mstore\n        /* \"#utility.yul\":10591:10595   */\n      0x12\n        /* \"#utility.yul\":10588:10589   */\n      0x04\n        /* \"#utility.yul\":10581:10596   */\n      mstore\n        /* \"#utility.yul\":10615:10619   */\n      0x24\n        /* \"#utility.yul\":10612:10613   */\n      0x00\n        /* \"#utility.yul\":10605:10620   */\n      revert\n        /* \"#utility.yul\":10632:11017   */\n    tag_41:\n        /* \"#utility.yul\":10671:10672   */\n      0x00\n        /* \"#utility.yul\":10688:10707   */\n      tag_217\n        /* \"#utility.yul\":10705:10706   */\n      dup3\n        /* \"#utility.yul\":10688:10707   */\n      tag_108\n      jump\t// in\n    tag_217:\n        /* \"#utility.yul\":10683:10707   */\n      swap2\n      pop\n        /* \"#utility.yul\":10721:10740   */\n      tag_218\n        /* \"#utility.yul\":10738:10739   */\n      dup4\n        /* \"#utility.yul\":10721:10740   */\n      tag_108\n      jump\t// in\n    tag_218:\n        /* \"#utility.yul\":10716:10740   */\n      swap3\n      pop\n        /* \"#utility.yul\":10759:10760   */\n      dup3\n        /* \"#utility.yul\":10749:10784   */\n      tag_219\n      jumpi\n        /* \"#utility.yul\":10764:10782   */\n      tag_220\n      tag_109\n      jump\t// in\n    tag_220:\n        /* \"#utility.yul\":10749:10784   */\n    tag_219:\n        /* \"#utility.yul\":10950:10951   */\n      0x01\n        /* \"#utility.yul\":10947:10948   */\n      0x00\n        /* \"#utility.yul\":10943:10952   */\n      sub\n        /* \"#utility.yul\":10940:10941   */\n      dup4\n        /* \"#utility.yul\":10937:10953   */\n      eq\n        /* \"#utility.yul\":10856:10922   */\n      0x8000000000000000000000000000000000000000000000000000000000000000\n        /* \"#utility.yul\":10853:10854   */\n      dup4\n        /* \"#utility.yul\":10850:10923   */\n      eq\n        /* \"#utility.yul\":10833:10963   */\n      and\n        /* \"#utility.yul\":10830:10986   */\n      iszero\n      tag_221\n      jumpi\n        /* \"#utility.yul\":10966:10984   */\n      tag_222\n      tag_107\n      jump\t// in\n    tag_222:\n        /* \"#utility.yul\":10830:10986   */\n    tag_221:\n        /* \"#utility.yul\":11009:11010   */\n      dup3\n        /* \"#utility.yul\":11006:11007   */\n      dup3\n        /* \"#utility.yul\":11001:11011   */\n      sdiv\n        /* \"#utility.yul\":10996:11011   */\n      swap1\n      pop\n        /* \"#utility.yul\":10632:11017   */\n      swap3\n      swap2\n      pop\n      pop\n      jump\t// out\n        /* \"#utility.yul\":11023:11548   */\n    tag_43:\n        /* \"#utility.yul\":11062:11065   */\n      0x00\n        /* \"#utility.yul\":11081:11100   */\n      tag_224\n        /* \"#utility.yul\":11098:11099   */\n      dup3\n        /* \"#utility.yul\":11081:11100   */\n      tag_108\n      jump\t// in\n    tag_224:\n        /* \"#utility.yul\":11076:11100   */\n      swap2\n      pop\n        /* \"#utility.yul\":11114:11133   */\n      tag_225\n        /* \"#utility.yul\":11131:11132   */\n      dup4\n        /* \"#utility.yul\":11114:11133   */\n      tag_108\n      jump\t// in\n    tag_225:\n        /* \"#utility.yul\":11109:11133   */\n      swap3\n      pop\n        /* \"#utility.yul\":11302:11303   */\n      dup2\n        /* \"#utility.yul\":11234:11300   */\n      0x7fffffffffffffffffffffffffffffffffffffffffffffffffffffffffffffff\n        /* \"#utility.yul\":11230:11304   */\n      sub\n        /* \"#utility.yul\":11227:11228   */\n      dup4\n        /* \"#utility.yul\":11223:11305   */\n      sgt\n        /* \"#utility.yul\":11218:11219   */\n      0x00\n        /* \"#utility.yul\":11215:11216   */\n      dup4\n        /* \"#utility.yul\":11211:11220   */\n      slt\n        /* \"#utility.yul\":11204:11221   */\n      iszero\n        /* \"#utility.yul\":11200:11306   */\n      and\n        /* \"#utility.yul\":11197:11329   */\n      iszero\n      tag_226\n      jumpi\n        /* \"#utility.yul\":11309:11327   */\n      tag_227\n      tag_107\n      jump\t// in\n    tag_227:\n        /* \"#utility.yul\":11197:11329   */\n    tag_226:\n        /* \"#utility.yul\":11489:11490   */\n      dup2\n        /* \"#utility.yul\":11421:11487   */\n      0x8000000000000000000000000000000000000000000000000000000000000000\n        /* \"#utility.yul\":11417:11491   */\n      sub\n        /* \"#utility.yul\":11414:11415   */\n      dup4\n        /* \"#utility.yul\":11410:11492   */\n      slt\n        /* \"#utility.yul\":11406:11407   */\n      0x00\n        /* \"#utility.yul\":11403:11404   */\n      dup4\n        /* \"#utility.yul\":11399:11408   */\n      slt\n        /* \"#utility.yul\":11395:11493   */\n      and\n        /* \"#utility.yul\":11392:11516   */\n      iszero\n      tag_228\n      jumpi\n        /* \"#utility.yul\":11496:11514   */\n      tag_229\n      tag_107\n      jump\t// in\n    tag_229:\n        /* \"#utility.yul\":11392:11516   */\n    tag_228:\n        /* \"#utility.yul\":11540:11541   */\n      dup3\n        /* \"#utility.yul\":11537:11538   */\n      dup3\n        /* \"#utility.yul\":11533:11542   */\n      add\n        /* \"#utility.yul\":11526:11542   */\n      swap1\n      pop\n        /* \"#utility.yul\":11023:11548   */\n      swap3\n      swap2\n      pop\n      pop\n      jump\t// out\n        /* \"#utility.yul\":11554:11734   */\n    tag_46:\n        /* \"#utility.yul\":11602:11679   */\n      0x4e487b7100000000000000000000000000000000000000000000000000000000\n        /* \"#utility.yul\":11599:11600   */\n      0x00\n        /* \"#utility.yul\":11592:11680   */\n      mstore\n        /* \"#utility.yul\":11699:11703   */\n      0x32\n        /* \"#utility.yul\":11696:11697   */\n      0x04\n        /* \"#utility.yul\":11689:11704   */\n      mstore\n        /* \"#utility.yul\":11723:11727   */\n      0x24\n        /* \"#utility.yul\":11720:11721   */\n      0x00\n        /* \"#utility.yul\":11713:11728   */\n      revert\n        /* \"#utility.yul\":11740:11971   */\n    tag_54:\n        /* \"#utility.yul\":11778:11781   */\n      0x00\n        /* \"#utility.yul\":11801:11824   */\n      tag_232\n        /* \"#utility.yul\":11818:11823   */\n      dup3\n        /* \"#utility.yul\":11801:11824   */\n      tag_108\n      jump\t// in\n    tag_232:\n        /* \"#utility.yul\":11792:11824   */\n      swap2\n      pop\n        /* \"#utility.yul\":11846:11912   */\n      0x7fffffffffffffffffffffffffffffffffffffffffffffffffffffffffffffff\n        /* \"#utility.yul\":11839:11844   */\n      dup3\n        /* \"#utility.yul\":11836:11913   */\n      sub\n        /* \"#utility.yul\":11833:11936   */\n      tag_233\n      jumpi\n        /* \"#utility.yul\":11916:11934   */\n      tag_234\n      tag_107\n      jump\t// in\n    tag_234:\n        /* \"#utility.yul\":11833:11936   */\n    tag_233:\n        /* \"#utility.yul\":11963:11964   */\n      0x01\n        /* \"#utility.yul\":11956:11961   */\n      dup3\n        /* \"#utility.yul\":11952:11965   */\n      add\n        /* \"#utility.yul\":11945:11965   */\n      swap1\n      pop\n        /* \"#utility.yul\":11740:11971   */\n      swap2\n      swap1\n      pop\n      jump\t// out\n        /* \"#utility.yul\":11977:12208   */\n    tag_60:\n        /* \"#utility.yul\":12015:12018   */\n      0x00\n        /* \"#utility.yul\":12038:12061   */\n      tag_236\n        /* \"#utility.yul\":12055:12060   */\n      dup3\n        /* \"#utility.yul\":12038:12061   */\n      tag_108\n      jump\t// in\n    tag_236:\n        /* \"#utility.yul\":12029:12061   */\n      swap2\n      pop\n        /* \"#utility.yul\":12083:12149   */\n      0x8000000000000000000000000000000000000000000000000000000000000000\n        /* \"#utility.yul\":12076:12081   */\n      dup3\n        /* \"#utility.yul\":12073:12150   */\n      sub\n        /* \"#utility.yul\":12070:12173   */\n      tag_237\n      jumpi\n        /* \"#utility.yul\":12153:12171   */\n      tag_238\n      tag_107\n      jump\t// in\n    tag_238:\n        /* \"#utility.yul\":12070:12173   */\n    tag_237:\n        /* \"#utility.yul\":12200:12201   */\n      0x01\n        /* \"#utility.yul\":12193:12198   */\n      dup3\n        /* \"#utility.yul\":12189:12202   */\n      sub\n        /* \"#utility.yul\":12182:12202   */\n      swap1\n      pop\n        /* \"#utility.yul\":11977:12208   */\n      swap2\n      swap1\n      pop\n      jump\t// out\n\n    auxdata: 0xa26469706673582212207cae7b02b2e827e5eebec7ee4d1c1166fa6e6d12ec6fabb4e1e5172de8bd841a64736f6c634300080d0033\n}\n",
				"bytecode": {
					"linkReferences": {},
					"object": "608060405234801561001057600080fd5b50610a2b806100206000396000f3fe608060405234801561001057600080fd5b50600436106100575760003560e01c80631628e0f51461005c57806370ca0f1d1461007857806378c5b268146100a85780639703ef35146100c45780639979ef45146100e0575b600080fd5b6100766004803603810190610071919061031a565b6100fc565b005b610092600480360381019061008d919061057b565b6100ff565b60405161009f91906106e6565b60405180910390f35b6100c260048036038101906100bd919061031a565b610122565b005b6100de60048036038101906100d9919061031a565b610125565b005b6100fa60048036038101906100f5919061031a565b610128565b005b50565b606061011a826000600185516101159190610737565b61012b565b819050919050565b50565b50565b50565b600082905060008290508082036101435750506102cb565b600085600286866101549190610775565b61015e9190610838565b8661016991906108a2565b8151811061017a57610179610936565b5b60200260200101516040015190505b81831361029f575b808684815181106101a5576101a4610936565b5b60200260200101516040015111156101ca5782806101c290610965565b935050610191565b5b8582815181106101de576101dd610936565b5b6020026020010151604001518111156102045781806101fc906109ad565b9250506101cb565b81831361029a5785828151811061021e5761021d610936565b5b602002602001015186848151811061023957610238610936565b5b602002602001015187858151811061025457610253610936565b5b6020026020010188858151811061026e5761026d610936565b5b602002602001018290528290525050828061028890610965565b9350508180610296906109ad565b9250505b610189565b818512156102b3576102b286868461012b565b5b838312156102c7576102c686848661012b565b5b5050505b505050565b6000604051905090565b600080fd5b600080fd5b6000819050919050565b6102f7816102e4565b811461030257600080fd5b50565b600081359050610314816102ee565b92915050565b6000602082840312156103305761032f6102da565b5b600061033e84828501610305565b91505092915050565b600080fd5b6000601f19601f8301169050919050565b7f4e487b7100000000000000000000000000000000000000000000000000000000600052604160045260246000fd5b6103958261034c565b810181811067ffffffffffffffff821117156103b4576103b361035d565b5b80604052505050565b60006103c76102d0565b90506103d3828261038c565b919050565b600067ffffffffffffffff8211156103f3576103f261035d565b5b602082029050602081019050919050565b600080fd5b600080fd5b600073ffffffffffffffffffffffffffffffffffffffff82169050919050565b60006104398261040e565b9050919050565b6104498161042e565b811461045457600080fd5b50565b60008135905061046681610440565b92915050565b60006080828403121561048257610481610409565b5b61048c60806103bd565b9050600061049c84828501610457565b60008301525060206104b084828501610305565b60208301525060406104c484828501610305565b60408301525060606104d884828501610305565b60608301525092915050565b60006104f76104f2846103d8565b6103bd565b9050808382526020820190506080840283018581111561051a57610519610404565b5b835b81811015610543578061052f888261046c565b84526020840193505060808101905061051c565b5050509392505050565b600082601f83011261056257610561610347565b5b81356105728482602086016104e4565b91505092915050565b600060208284031215610591576105906102da565b5b600082013567ffffffffffffffff8111156105af576105ae6102df565b5b6105bb8482850161054d565b91505092915050565b600081519050919050565b600082825260208201905092915050565b6000819050602082019050919050565b6105f98161042e565b82525050565b610608816102e4565b82525050565b60808201600082015161062460008501826105f0565b50602082015161063760208501826105ff565b50604082015161064a60408501826105ff565b50606082015161065d60608501826105ff565b50505050565b600061066f838361060e565b60808301905092915050565b6000602082019050919050565b6000610693826105c4565b61069d81856105cf565b93506106a8836105e0565b8060005b838110156106d95781516106c08882610663565b97506106cb8361067b565b9250506001810190506106ac565b5085935050505092915050565b600060208201905081810360008301526107008184610688565b905092915050565b7f4e487b7100000000000000000000000000000000000000000000000000000000600052601160045260246000fd5b6000610742826102e4565b915061074d836102e4565b9250828210156107605761075f610708565b5b828203905092915050565b6000819050919050565b60006107808261076b565b915061078b8361076b565b9250827f8000000000000000000000000000000000000000000000000000000000000000018212600084121516156107c6576107c5610708565b5b827f7fffffffffffffffffffffffffffffffffffffffffffffffffffffffffffffff0182136000841216156107fe576107fd610708565b5b828203905092915050565b7f4e487b7100000000000000000000000000000000000000000000000000000000600052601260045260246000fd5b60006108438261076b565b915061084e8361076b565b92508261085e5761085d610809565b5b600160000383147f80000000000000000000000000000000000000000000000000000000000000008314161561089757610896610708565b5b828205905092915050565b60006108ad8261076b565b91506108b88361076b565b9250817f7fffffffffffffffffffffffffffffffffffffffffffffffffffffffffffffff038313600083121516156108f3576108f2610708565b5b817f800000000000000000000000000000000000000000000000000000000000000003831260008312161561092b5761092a610708565b5b828201905092915050565b7f4e487b7100000000000000000000000000000000000000000000000000000000600052603260045260246000fd5b60006109708261076b565b91507f7fffffffffffffffffffffffffffffffffffffffffffffffffffffffffffffff82036109a2576109a1610708565b5b600182019050919050565b60006109b88261076b565b91507f800000000000000000000000000000000000000000000000000000000000000082036109ea576109e9610708565b5b60018203905091905056fea26469706673582212207cae7b02b2e827e5eebec7ee4d1c1166fa6e6d12ec6fabb4e1e5172de8bd841a64736f6c634300080d0033",
					"opcodes": "PUSH1 0x80 PUSH1 0x40 MSTORE CALLVALUE DUP1 ISZERO PUSH2 0x10 JUMPI PUSH1 0x0 DUP1 REVERT JUMPDEST POP PUSH2 0xA2B DUP1 PUSH2 0x20 PUSH1 0x0 CODECOPY PUSH1 0x0 RETURN INVALID PUSH1 0x80 PUSH1 0x40 MSTORE CALLVALUE DUP1 ISZERO PUSH2 0x10 JUMPI PUSH1 0x0 DUP1 REVERT JUMPDEST POP PUSH1 0x4 CALLDATASIZE LT PUSH2 0x57 JUMPI PUSH1 0x0 CALLDATALOAD PUSH1 0xE0 SHR DUP1 PUSH4 0x1628E0F5 EQ PUSH2 0x5C JUMPI DUP1 PUSH4 0x70CA0F1D EQ PUSH2 0x78 JUMPI DUP1 PUSH4 0x78C5B268 EQ PUSH2 0xA8 JUMPI DUP1 PUSH4 0x9703EF35 EQ PUSH2 0xC4 JUMPI DUP1 PUSH4 0x9979EF45 EQ PUSH2 0xE0 JUMPI JUMPDEST PUSH1 0x0 DUP1 REVERT JUMPDEST PUSH2 0x76 PUSH1 0x4 DUP1 CALLDATASIZE SUB DUP2 ADD SWAP1 PUSH2 0x71 SWAP2 SWAP1 PUSH2 0x31A JUMP JUMPDEST PUSH2 0xFC JUMP JUMPDEST STOP JUMPDEST PUSH2 0x92 PUSH1 0x4 DUP1 CALLDATASIZE SUB DUP2 ADD SWAP1 PUSH2 0x8D SWAP2 SWAP1 PUSH2 0x57B JUMP JUMPDEST PUSH2 0xFF JUMP JUMPDEST PUSH1 0x40 MLOAD PUSH2 0x9F SWAP2 SWAP1 PUSH2 0x6E6 JUMP JUMPDEST PUSH1 0x40 MLOAD DUP1 SWAP2 SUB SWAP1 RETURN JUMPDEST PUSH2 0xC2 PUSH1 0x4 DUP1 CALLDATASIZE SUB DUP2 ADD SWAP1 PUSH2 0xBD SWAP2 SWAP1 PUSH2 0x31A JUMP JUMPDEST PUSH2 0x122 JUMP JUMPDEST STOP JUMPDEST PUSH2 0xDE PUSH1 0x4 DUP1 CALLDATASIZE SUB DUP2 ADD SWAP1 PUSH2 0xD9 SWAP2 SWAP1 PUSH2 0x31A JUMP JUMPDEST PUSH2 0x125 JUMP JUMPDEST STOP JUMPDEST PUSH2 0xFA PUSH1 0x4 DUP1 CALLDATASIZE SUB DUP2 ADD SWAP1 PUSH2 0xF5 SWAP2 SWAP1 PUSH2 0x31A JUMP JUMPDEST PUSH2 0x128 JUMP JUMPDEST STOP JUMPDEST POP JUMP JUMPDEST PUSH1 0x60 PUSH2 0x11A DUP3 PUSH1 0x0 PUSH1 0x1 DUP6 MLOAD PUSH2 0x115 SWAP2 SWAP1 PUSH2 0x737 JUMP JUMPDEST PUSH2 0x12B JUMP JUMPDEST DUP2 SWAP1 POP SWAP2 SWAP1 POP JUMP JUMPDEST POP JUMP JUMPDEST POP JUMP JUMPDEST POP JUMP JUMPDEST PUSH1 0x0 DUP3 SWAP1 POP PUSH1 0x0 DUP3 SWAP1 POP DUP1 DUP3 SUB PUSH2 0x143 JUMPI POP POP PUSH2 0x2CB JUMP JUMPDEST PUSH1 0x0 DUP6 PUSH1 0x2 DUP7 DUP7 PUSH2 0x154 SWAP2 SWAP1 PUSH2 0x775 JUMP JUMPDEST PUSH2 0x15E SWAP2 SWAP1 PUSH2 0x838 JUMP JUMPDEST DUP7 PUSH2 0x169 SWAP2 SWAP1 PUSH2 0x8A2 JUMP JUMPDEST DUP2 MLOAD DUP2 LT PUSH2 0x17A JUMPI PUSH2 0x179 PUSH2 0x936 JUMP JUMPDEST JUMPDEST PUSH1 0x20 MUL PUSH1 0x20 ADD ADD MLOAD PUSH1 0x40 ADD MLOAD SWAP1 POP JUMPDEST DUP2 DUP4 SGT PUSH2 0x29F JUMPI JUMPDEST DUP1 DUP7 DUP5 DUP2 MLOAD DUP2 LT PUSH2 0x1A5 JUMPI PUSH2 0x1A4 PUSH2 0x936 JUMP JUMPDEST JUMPDEST PUSH1 0x20 MUL PUSH1 0x20 ADD ADD MLOAD PUSH1 0x40 ADD MLOAD GT ISZERO PUSH2 0x1CA JUMPI DUP3 DUP1 PUSH2 0x1C2 SWAP1 PUSH2 0x965 JUMP JUMPDEST SWAP4 POP POP PUSH2 0x191 JUMP JUMPDEST JUMPDEST DUP6 DUP3 DUP2 MLOAD DUP2 LT PUSH2 0x1DE JUMPI PUSH2 0x1DD PUSH2 0x936 JUMP JUMPDEST JUMPDEST PUSH1 0x20 MUL PUSH1 0x20 ADD ADD MLOAD PUSH1 0x40 ADD MLOAD DUP2 GT ISZERO PUSH2 0x204 JUMPI DUP2 DUP1 PUSH2 0x1FC SWAP1 PUSH2 0x9AD JUMP JUMPDEST SWAP3 POP POP PUSH2 0x1CB JUMP JUMPDEST DUP2 DUP4 SGT PUSH2 0x29A JUMPI DUP6 DUP3 DUP2 MLOAD DUP2 LT PUSH2 0x21E JUMPI PUSH2 0x21D PUSH2 0x936 JUMP JUMPDEST JUMPDEST PUSH1 0x20 MUL PUSH1 0x20 ADD ADD MLOAD DUP7 DUP5 DUP2 MLOAD DUP2 LT PUSH2 0x239 JUMPI PUSH2 0x238 PUSH2 0x936 JUMP JUMPDEST JUMPDEST PUSH1 0x20 MUL PUSH1 0x20 ADD ADD MLOAD DUP8 DUP6 DUP2 MLOAD DUP2 LT PUSH2 0x254 JUMPI PUSH2 0x253 PUSH2 0x936 JUMP JUMPDEST JUMPDEST PUSH1 0x20 MUL PUSH1 0x20 ADD ADD DUP9 DUP6 DUP2 MLOAD DUP2 LT PUSH2 0x26E JUMPI PUSH2 0x26D PUSH2 0x936 JUMP JUMPDEST JUMPDEST PUSH1 0x20 MUL PUSH1 0x20 ADD ADD DUP3 SWAP1 MSTORE DUP3 SWAP1 MSTORE POP POP DUP3 DUP1 PUSH2 0x288 SWAP1 PUSH2 0x965 JUMP JUMPDEST SWAP4 POP POP DUP2 DUP1 PUSH2 0x296 SWAP1 PUSH2 0x9AD JUMP JUMPDEST SWAP3 POP POP JUMPDEST PUSH2 0x189 JUMP JUMPDEST DUP2 DUP6 SLT ISZERO PUSH2 0x2B3 JUMPI PUSH2 0x2B2 DUP7 DUP7 DUP5 PUSH2 0x12B JUMP JUMPDEST JUMPDEST DUP4 DUP4 SLT ISZERO PUSH2 0x2C7 JUMPI PUSH2 0x2C6 DUP7 DUP5 DUP7 PUSH2 0x12B JUMP JUMPDEST JUMPDEST POP POP POP JUMPDEST POP POP POP JUMP JUMPDEST PUSH1 0x0 PUSH1 0x40 MLOAD SWAP1 POP SWAP1 JUMP JUMPDEST PUSH1 0x0 DUP1 REVERT JUMPDEST PUSH1 0x0 DUP1 REVERT JUMPDEST PUSH1 0x0 DUP2 SWAP1 POP SWAP2 SWAP1 POP JUMP JUMPDEST PUSH2 0x2F7 DUP2 PUSH2 0x2E4 JUMP JUMPDEST DUP2 EQ PUSH2 0x302 JUMPI PUSH1 0x0 DUP1 REVERT JUMPDEST POP JUMP JUMPDEST PUSH1 0x0 DUP2 CALLDATALOAD SWAP1 POP PUSH2 0x314 DUP2 PUSH2 0x2EE JUMP JUMPDEST SWAP3 SWAP2 POP POP JUMP JUMPDEST PUSH1 0x0 PUSH1 0x20 DUP3 DUP5 SUB SLT ISZERO PUSH2 0x330 JUMPI PUSH2 0x32F PUSH2 0x2DA JUMP JUMPDEST JUMPDEST PUSH1 0x0 PUSH2 0x33E DUP5 DUP3 DUP6 ADD PUSH2 0x305 JUMP JUMPDEST SWAP2 POP POP SWAP3 SWAP2 POP POP JUMP JUMPDEST PUSH1 0x0 DUP1 REVERT JUMPDEST PUSH1 0x0 PUSH1 0x1F NOT PUSH1 0x1F DUP4 ADD AND SWAP1 POP SWAP2 SWAP1 POP JUMP JUMPDEST PUSH32 0x4E487B7100000000000000000000000000000000000000000000000000000000 PUSH1 0x0 MSTORE PUSH1 0x41 PUSH1 0x4 MSTORE PUSH1 0x24 PUSH1 0x0 REVERT JUMPDEST PUSH2 0x395 DUP3 PUSH2 0x34C JUMP JUMPDEST DUP2 ADD DUP2 DUP2 LT PUSH8 0xFFFFFFFFFFFFFFFF DUP3 GT OR ISZERO PUSH2 0x3B4 JUMPI PUSH2 0x3B3 PUSH2 0x35D JUMP JUMPDEST JUMPDEST DUP1 PUSH1 0x40 MSTORE POP POP POP JUMP JUMPDEST PUSH1 0x0 PUSH2 0x3C7 PUSH2 0x2D0 JUMP JUMPDEST SWAP1 POP PUSH2 0x3D3 DUP3 DUP3 PUSH2 0x38C JUMP JUMPDEST SWAP2 SWAP1 POP JUMP JUMPDEST PUSH1 0x0 PUSH8 0xFFFFFFFFFFFFFFFF DUP3 GT ISZERO PUSH2 0x3F3 JUMPI PUSH2 0x3F2 PUSH2 0x35D JUMP JUMPDEST JUMPDEST PUSH1 0x20 DUP3 MUL SWAP1 POP PUSH1 0x20 DUP2 ADD SWAP1 POP SWAP2 SWAP1 POP JUMP JUMPDEST PUSH1 0x0 DUP1 REVERT JUMPDEST PUSH1 0x0 DUP1 REVERT JUMPDEST PUSH1 0x0 PUSH20 0xFFFFFFFFFFFFFFFFFFFFFFFFFFFFFFFFFFFFFFFF DUP3 AND SWAP1 POP SWAP2 SWAP1 POP JUMP JUMPDEST PUSH1 0x0 PUSH2 0x439 DUP3 PUSH2 0x40E JUMP JUMPDEST SWAP1 POP SWAP2 SWAP1 POP JUMP JUMPDEST PUSH2 0x449 DUP2 PUSH2 0x42E JUMP JUMPDEST DUP2 EQ PUSH2 0x454 JUMPI PUSH1 0x0 DUP1 REVERT JUMPDEST POP JUMP JUMPDEST PUSH1 0x0 DUP2 CALLDATALOAD SWAP1 POP PUSH2 0x466 DUP2 PUSH2 0x440 JUMP JUMPDEST SWAP3 SWAP2 POP POP JUMP JUMPDEST PUSH1 0x0 PUSH1 0x80 DUP3 DUP5 SUB SLT ISZERO PUSH2 0x482 JUMPI PUSH2 0x481 PUSH2 0x409 JUMP JUMPDEST JUMPDEST PUSH2 0x48C PUSH1 0x80 PUSH2 0x3BD JUMP JUMPDEST SWAP1 POP PUSH1 0x0 PUSH2 0x49C DUP5 DUP3 DUP6 ADD PUSH2 0x457 JUMP JUMPDEST PUSH1 0x0 DUP4 ADD MSTORE POP PUSH1 0x20 PUSH2 0x4B0 DUP5 DUP3 DUP6 ADD PUSH2 0x305 JUMP JUMPDEST PUSH1 0x20 DUP4 ADD MSTORE POP PUSH1 0x40 PUSH2 0x4C4 DUP5 DUP3 DUP6 ADD PUSH2 0x305 JUMP JUMPDEST PUSH1 0x40 DUP4 ADD MSTORE POP PUSH1 0x60 PUSH2 0x4D8 DUP5 DUP3 DUP6 ADD PUSH2 0x305 JUMP JUMPDEST PUSH1 0x60 DUP4 ADD MSTORE POP SWAP3 SWAP2 POP POP JUMP JUMPDEST PUSH1 0x0 PUSH2 0x4F7 PUSH2 0x4F2 DUP5 PUSH2 0x3D8 JUMP JUMPDEST PUSH2 0x3BD JUMP JUMPDEST SWAP1 POP DUP1 DUP4 DUP3 MSTORE PUSH1 0x20 DUP3 ADD SWAP1 POP PUSH1 0x80 DUP5 MUL DUP4 ADD DUP6 DUP2 GT ISZERO PUSH2 0x51A JUMPI PUSH2 0x519 PUSH2 0x404 JUMP JUMPDEST JUMPDEST DUP4 JUMPDEST DUP2 DUP2 LT ISZERO PUSH2 0x543 JUMPI DUP1 PUSH2 0x52F DUP9 DUP3 PUSH2 0x46C JUMP JUMPDEST DUP5 MSTORE PUSH1 0x20 DUP5 ADD SWAP4 POP POP PUSH1 0x80 DUP2 ADD SWAP1 POP PUSH2 0x51C JUMP JUMPDEST POP POP POP SWAP4 SWAP3 POP POP POP JUMP JUMPDEST PUSH1 0x0 DUP3 PUSH1 0x1F DUP4 ADD SLT PUSH2 0x562 JUMPI PUSH2 0x561 PUSH2 0x347 JUMP JUMPDEST JUMPDEST DUP2 CALLDATALOAD PUSH2 0x572 DUP5 DUP3 PUSH1 0x20 DUP7 ADD PUSH2 0x4E4 JUMP JUMPDEST SWAP2 POP POP SWAP3 SWAP2 POP POP JUMP JUMPDEST PUSH1 0x0 PUSH1 0x20 DUP3 DUP5 SUB SLT ISZERO PUSH2 0x591 JUMPI PUSH2 0x590 PUSH2 0x2DA JUMP JUMPDEST JUMPDEST PUSH1 0x0 DUP3 ADD CALLDATALOAD PUSH8 0xFFFFFFFFFFFFFFFF DUP2 GT ISZERO PUSH2 0x5AF JUMPI PUSH2 0x5AE PUSH2 0x2DF JUMP JUMPDEST JUMPDEST PUSH2 0x5BB DUP5 DUP3 DUP6 ADD PUSH2 0x54D JUMP JUMPDEST SWAP2 POP POP SWAP3 SWAP2 POP POP JUMP JUMPDEST PUSH1 0x0 DUP2 MLOAD SWAP1 POP SWAP2 SWAP1 POP JUMP JUMPDEST PUSH1 0x0 DUP3 DUP3 MSTORE PUSH1 0x20 DUP3 ADD SWAP1 POP SWAP3 SWAP2 POP POP JUMP JUMPDEST PUSH1 0x0 DUP2 SWAP1 POP PUSH1 0x20 DUP3 ADD SWAP1 POP SWAP2 SWAP1 POP JUMP JUMPDEST PUSH2 0x5F9 DUP2 PUSH2 0x42E JUMP JUMPDEST DUP3 MSTORE POP POP JUMP JUMPDEST PUSH2 0x608 DUP2 PUSH2 0x2E4 JUMP JUMPDEST DUP3 MSTORE POP POP JUMP JUMPDEST PUSH1 0x80 DUP3 ADD PUSH1 0x0 DUP3 ADD MLOAD PUSH2 0x624 PUSH1 0x0 DUP6 ADD DUP3 PUSH2 0x5F0 JUMP JUMPDEST POP PUSH1 0x20 DUP3 ADD MLOAD PUSH2 0x637 PUSH1 0x20 DUP6 ADD DUP3 PUSH2 0x5FF JUMP JUMPDEST POP PUSH1 0x40 DUP3 ADD MLOAD PUSH2 0x64A PUSH1 0x40 DUP6 ADD DUP3 PUSH2 0x5FF JUMP JUMPDEST POP PUSH1 0x60 DUP3 ADD MLOAD PUSH2 0x65D PUSH1 0x60 DUP6 ADD DUP3 PUSH2 0x5FF JUMP JUMPDEST POP POP POP POP JUMP JUMPDEST PUSH1 0x0 PUSH2 0x66F DUP4 DUP4 PUSH2 0x60E JUMP JUMPDEST PUSH1 0x80 DUP4 ADD SWAP1 POP SWAP3 SWAP2 POP POP JUMP JUMPDEST PUSH1 0x0 PUSH1 0x20 DUP3 ADD SWAP1 POP SWAP2 SWAP1 POP JUMP JUMPDEST PUSH1 0x0 PUSH2 0x693 DUP3 PUSH2 0x5C4 JUMP JUMPDEST PUSH2 0x69D DUP2 DUP6 PUSH2 0x5CF JUMP JUMPDEST SWAP4 POP PUSH2 0x6A8 DUP4 PUSH2 0x5E0 JUMP JUMPDEST DUP1 PUSH1 0x0 JUMPDEST DUP4 DUP2 LT ISZERO PUSH2 0x6D9 JUMPI DUP2 MLOAD PUSH2 0x6C0 DUP9 DUP3 PUSH2 0x663 JUMP JUMPDEST SWAP8 POP PUSH2 0x6CB DUP4 PUSH2 0x67B JUMP JUMPDEST SWAP3 POP POP PUSH1 0x1 DUP2 ADD SWAP1 POP PUSH2 0x6AC JUMP JUMPDEST POP DUP6 SWAP4 POP POP POP POP SWAP3 SWAP2 POP POP JUMP JUMPDEST PUSH1 0x0 PUSH1 0x20 DUP3 ADD SWAP1 POP DUP2 DUP2 SUB PUSH1 0x0 DUP4 ADD MSTORE PUSH2 0x700 DUP2 DUP5 PUSH2 0x688 JUMP JUMPDEST SWAP1 POP SWAP3 SWAP2 POP POP JUMP JUMPDEST PUSH32 0x4E487B7100000000000000000000000000000000000000000000000000000000 PUSH1 0x0 MSTORE PUSH1 0x11 PUSH1 0x4 MSTORE PUSH1 0x24 PUSH1 0x0 REVERT JUMPDEST PUSH1 0x0 PUSH2 0x742 DUP3 PUSH2 0x2E4 JUMP JUMPDEST SWAP2 POP PUSH2 0x74D DUP4 PUSH2 0x2E4 JUMP JUMPDEST SWAP3 POP DUP3 DUP3 LT ISZERO PUSH2 0x760 JUMPI PUSH2 0x75F PUSH2 0x708 JUMP JUMPDEST JUMPDEST DUP3 DUP3 SUB SWAP1 POP SWAP3 SWAP2 POP POP JUMP JUMPDEST PUSH1 0x0 DUP2 SWAP1 POP SWAP2 SWAP1 POP JUMP JUMPDEST PUSH1 0x0 PUSH2 0x780 DUP3 PUSH2 0x76B JUMP JUMPDEST SWAP2 POP PUSH2 0x78B DUP4 PUSH2 0x76B JUMP JUMPDEST SWAP3 POP DUP3 PUSH32 0x8000000000000000000000000000000000000000000000000000000000000000 ADD DUP3 SLT PUSH1 0x0 DUP5 SLT ISZERO AND ISZERO PUSH2 0x7C6 JUMPI PUSH2 0x7C5 PUSH2 0x708 JUMP JUMPDEST JUMPDEST DUP3 PUSH32 0x7FFFFFFFFFFFFFFFFFFFFFFFFFFFFFFFFFFFFFFFFFFFFFFFFFFFFFFFFFFFFFFF ADD DUP3 SGT PUSH1 0x0 DUP5 SLT AND ISZERO PUSH2 0x7FE JUMPI PUSH2 0x7FD PUSH2 0x708 JUMP JUMPDEST JUMPDEST DUP3 DUP3 SUB SWAP1 POP SWAP3 SWAP2 POP POP JUMP JUMPDEST PUSH32 0x4E487B7100000000000000000000000000000000000000000000000000000000 PUSH1 0x0 MSTORE PUSH1 0x12 PUSH1 0x4 MSTORE PUSH1 0x24 PUSH1 0x0 REVERT JUMPDEST PUSH1 0x0 PUSH2 0x843 DUP3 PUSH2 0x76B JUMP JUMPDEST SWAP2 POP PUSH2 0x84E DUP4 PUSH2 0x76B JUMP JUMPDEST SWAP3 POP DUP3 PUSH2 0x85E JUMPI PUSH2 0x85D PUSH2 0x809 JUMP JUMPDEST JUMPDEST PUSH1 0x1 PUSH1 0x0 SUB DUP4 EQ PUSH32 0x8000000000000000000000000000000000000000000000000000000000000000 DUP4 EQ AND ISZERO PUSH2 0x897 JUMPI PUSH2 0x896 PUSH2 0x708 JUMP JUMPDEST JUMPDEST DUP3 DUP3 SDIV SWAP1 POP SWAP3 SWAP2 POP POP JUMP JUMPDEST PUSH1 0x0 PUSH2 0x8AD DUP3 PUSH2 0x76B JUMP JUMPDEST SWAP2 POP PUSH2 0x8B8 DUP4 PUSH2 0x76B JUMP JUMPDEST SWAP3 POP DUP2 PUSH32 0x7FFFFFFFFFFFFFFFFFFFFFFFFFFFFFFFFFFFFFFFFFFFFFFFFFFFFFFFFFFFFFFF SUB DUP4 SGT PUSH1 0x0 DUP4 SLT ISZERO AND ISZERO PUSH2 0x8F3 JUMPI PUSH2 0x8F2 PUSH2 0x708 JUMP JUMPDEST JUMPDEST DUP2 PUSH32 0x8000000000000000000000000000000000000000000000000000000000000000 SUB DUP4 SLT PUSH1 0x0 DUP4 SLT AND ISZERO PUSH2 0x92B JUMPI PUSH2 0x92A PUSH2 0x708 JUMP JUMPDEST JUMPDEST DUP3 DUP3 ADD SWAP1 POP SWAP3 SWAP2 POP POP JUMP JUMPDEST PUSH32 0x4E487B7100000000000000000000000000000000000000000000000000000000 PUSH1 0x0 MSTORE PUSH1 0x32 PUSH1 0x4 MSTORE PUSH1 0x24 PUSH1 0x0 REVERT JUMPDEST PUSH1 0x0 PUSH2 0x970 DUP3 PUSH2 0x76B JUMP JUMPDEST SWAP2 POP PUSH32 0x7FFFFFFFFFFFFFFFFFFFFFFFFFFFFFFFFFFFFFFFFFFFFFFFFFFFFFFFFFFFFFFF DUP3 SUB PUSH2 0x9A2 JUMPI PUSH2 0x9A1 PUSH2 0x708 JUMP JUMPDEST JUMPDEST PUSH1 0x1 DUP3 ADD SWAP1 POP SWAP2 SWAP1 POP JUMP JUMPDEST PUSH1 0x0 PUSH2 0x9B8 DUP3 PUSH2 0x76B JUMP JUMPDEST SWAP2 POP PUSH32 0x8000000000000000000000000000000000000000000000000000000000000000 DUP3 SUB PUSH2 0x9EA JUMPI PUSH2 0x9E9 PUSH2 0x708 JUMP JUMPDEST JUMPDEST PUSH1 0x1 DUP3 SUB SWAP1 POP SWAP2 SWAP1 POP JUMP INVALID LOG2 PUSH5 0x6970667358 0x22 SLT KECCAK256 PUSH29 0xAE7B02B2E827E5EEBEC7EE4D1C1166FA6E6D12EC6FABB4E1E5172DE8BD DUP5 BYTE PUSH5 0x736F6C6343 STOP ADDMOD 0xD STOP CALLER "
				},
				"gasEstimates": {
					"creation": {
						"codeDepositCost": "520600",
						"executionCost": "556",
						"totalCost": "521156"
					},
					"external": {
						"cancelAsk(uint256)": "384",
						"cancelBid(uint256)": "450",
						"placeAsk(uint256)": "428",
						"placeBid(uint256)": "472",
						"sort((address,uint256,uint256,uint256)[])": "infinite"
					},
					"internal": {
						"ascendingQuickSort(struct OrderBook.order memory[] memory,int256,int256)": "infinite",
						"descendingQuickSort(struct OrderBook.order memory[] memory,int256,int256)": "infinite"
					}
				},
				"methodIdentifiers": {
					"cancelAsk(uint256)": "1628e0f5",
					"cancelBid(uint256)": "9703ef35",
					"placeAsk(uint256)": "78c5b268",
					"placeBid(uint256)": "9979ef45",
					"sort((address,uint256,uint256,uint256)[])": "70ca0f1d"
				}
			},
			"storageLayout": {
				"storage": [],
				"types": null
			},
			"userdoc": {
				"kind": "user",
				"methods": {},
				"version": 1
			}
		}
	}
}