{
	"contracts/OrderBook.sol": {
		"OrderBook": {
			"abi": [
				{
					"inputs": [
						{
							"internalType": "uint256",
							"name": "_commission",
							"type": "uint256"
						}
					],
					"stateMutability": "nonpayable",
					"type": "constructor"
				},
				{
					"anonymous": false,
					"inputs": [
						{
							"indexed": false,
							"internalType": "uint256",
							"name": "",
							"type": "uint256"
						},
						{
							"indexed": false,
							"internalType": "uint256",
							"name": "",
							"type": "uint256"
						}
					],
					"name": "askLink",
					"type": "event"
				},
				{
					"anonymous": false,
					"inputs": [
						{
							"indexed": false,
							"internalType": "uint256",
							"name": "",
							"type": "uint256"
						},
						{
							"indexed": false,
							"internalType": "uint256",
							"name": "",
							"type": "uint256"
						}
					],
					"name": "bidLink",
					"type": "event"
				},
				{
					"anonymous": false,
					"inputs": [
						{
							"indexed": false,
							"internalType": "uint256",
							"name": "",
							"type": "uint256"
						}
					],
					"name": "newHead",
					"type": "event"
				},
				{
					"anonymous": false,
					"inputs": [
						{
							"indexed": false,
							"internalType": "uint256",
							"name": "",
							"type": "uint256"
						}
					],
					"name": "newTail",
					"type": "event"
				},
				{
					"anonymous": false,
					"inputs": [
						{
							"indexed": false,
							"internalType": "address",
							"name": "",
							"type": "address"
						},
						{
							"indexed": false,
							"internalType": "uint256",
							"name": "",
							"type": "uint256"
						},
						{
							"indexed": false,
							"internalType": "uint256",
							"name": "",
							"type": "uint256"
						},
						{
							"indexed": false,
							"internalType": "enum OrderBook.State",
							"name": "",
							"type": "uint8"
						},
						{
							"indexed": false,
							"internalType": "uint256",
							"name": "",
							"type": "uint256"
						},
						{
							"indexed": false,
							"internalType": "uint256",
							"name": "",
							"type": "uint256"
						},
						{
							"indexed": false,
							"internalType": "uint256",
							"name": "",
							"type": "uint256"
						},
						{
							"indexed": false,
							"internalType": "bool",
							"name": "",
							"type": "bool"
						}
					],
					"name": "orderCreated",
					"type": "event"
				},
				{
					"inputs": [],
					"name": "askCount",
					"outputs": [
						{
							"internalType": "uint256",
							"name": "",
							"type": "uint256"
						}
					],
					"stateMutability": "view",
					"type": "function"
				},
				{
					"inputs": [],
					"name": "askHead",
					"outputs": [
						{
							"internalType": "uint256",
							"name": "",
							"type": "uint256"
						}
					],
					"stateMutability": "view",
					"type": "function"
				},
				{
					"inputs": [],
					"name": "bidCount",
					"outputs": [
						{
							"internalType": "uint256",
							"name": "",
							"type": "uint256"
						}
					],
					"stateMutability": "view",
					"type": "function"
				},
				{
					"inputs": [],
					"name": "bidHead",
					"outputs": [
						{
							"internalType": "uint256",
							"name": "",
							"type": "uint256"
						}
					],
					"stateMutability": "view",
					"type": "function"
				},
				{
					"inputs": [
						{
							"internalType": "uint256",
							"name": "askId",
							"type": "uint256"
						}
					],
					"name": "cancelAsk",
					"outputs": [],
					"stateMutability": "nonpayable",
					"type": "function"
				},
				{
					"inputs": [
						{
							"internalType": "uint256",
							"name": "bidId",
							"type": "uint256"
						}
					],
					"name": "cancelBid",
					"outputs": [],
					"stateMutability": "nonpayable",
					"type": "function"
				},
				{
					"inputs": [
						{
							"internalType": "string",
							"name": "a",
							"type": "string"
						},
						{
							"internalType": "bytes32",
							"name": "b",
							"type": "bytes32"
						}
					],
					"name": "concatenate",
					"outputs": [
						{
							"internalType": "string",
							"name": "",
							"type": "string"
						}
					],
					"stateMutability": "pure",
					"type": "function"
				},
				{
					"inputs": [],
					"name": "fetchAllBid",
					"outputs": [
						{
							"components": [
								{
									"internalType": "address payable",
									"name": "customer",
									"type": "address"
								},
								{
									"internalType": "uint256",
									"name": "value",
									"type": "uint256"
								},
								{
									"internalType": "uint256",
									"name": "timestamp",
									"type": "uint256"
								},
								{
									"internalType": "enum OrderBook.State",
									"name": "state",
									"type": "uint8"
								},
								{
									"internalType": "uint256",
									"name": "id",
									"type": "uint256"
								},
								{
									"internalType": "uint256",
									"name": "next",
									"type": "uint256"
								},
								{
									"internalType": "uint256",
									"name": "prev",
									"type": "uint256"
								}
							],
							"internalType": "struct OrderBook.order[]",
							"name": "",
							"type": "tuple[]"
						}
					],
					"stateMutability": "nonpayable",
					"type": "function"
				},
				{
					"inputs": [],
					"name": "fetchAsk",
					"outputs": [
						{
							"internalType": "string",
							"name": "",
							"type": "string"
						}
					],
					"stateMutability": "view",
					"type": "function"
				},
				{
					"inputs": [],
					"name": "fetchYourAskIds",
					"outputs": [
						{
							"internalType": "uint256[]",
							"name": "",
							"type": "uint256[]"
						}
					],
					"stateMutability": "nonpayable",
					"type": "function"
				},
				{
					"inputs": [],
					"name": "fetchYourBidIds",
					"outputs": [
						{
							"internalType": "uint256[]",
							"name": "",
							"type": "uint256[]"
						}
					],
					"stateMutability": "nonpayable",
					"type": "function"
				},
				{
					"inputs": [
						{
							"internalType": "uint256",
							"name": "id",
							"type": "uint256"
						}
					],
					"name": "getAskAddress",
					"outputs": [
						{
							"internalType": "address payable",
							"name": "",
							"type": "address"
						}
					],
					"stateMutability": "view",
					"type": "function"
				},
				{
					"inputs": [
						{
							"internalType": "uint256",
							"name": "id",
							"type": "uint256"
						}
					],
					"name": "getAskState",
					"outputs": [
						{
							"internalType": "enum OrderBook.State",
							"name": "",
							"type": "uint8"
						}
					],
					"stateMutability": "view",
					"type": "function"
				},
				{
					"inputs": [
						{
							"internalType": "uint256",
							"name": "id",
							"type": "uint256"
						}
					],
					"name": "getAskValue",
					"outputs": [
						{
							"internalType": "uint256",
							"name": "",
							"type": "uint256"
						}
					],
					"stateMutability": "view",
					"type": "function"
				},
				{
					"inputs": [
						{
							"internalType": "uint256",
							"name": "id",
							"type": "uint256"
						}
					],
					"name": "getBidAddress",
					"outputs": [
						{
							"internalType": "address payable",
							"name": "",
							"type": "address"
						}
					],
					"stateMutability": "view",
					"type": "function"
				},
				{
					"inputs": [
						{
							"internalType": "uint256",
							"name": "id",
							"type": "uint256"
						}
					],
					"name": "getBidState",
					"outputs": [
						{
							"internalType": "enum OrderBook.State",
							"name": "",
							"type": "uint8"
						}
					],
					"stateMutability": "view",
					"type": "function"
				},
				{
					"inputs": [
						{
							"internalType": "uint256",
							"name": "id",
							"type": "uint256"
						}
					],
					"name": "getBidValue",
					"outputs": [
						{
							"internalType": "uint256",
							"name": "",
							"type": "uint256"
						}
					],
					"stateMutability": "view",
					"type": "function"
				},
				{
					"inputs": [
						{
							"internalType": "uint256",
							"name": "id",
							"type": "uint256"
						}
					],
					"name": "getOrder",
					"outputs": [
						{
							"internalType": "address payable",
							"name": "",
							"type": "address"
						},
						{
							"internalType": "uint256",
							"name": "",
							"type": "uint256"
						},
						{
							"internalType": "uint256",
							"name": "",
							"type": "uint256"
						},
						{
							"internalType": "enum OrderBook.State",
							"name": "",
							"type": "uint8"
						},
						{
							"internalType": "uint256",
							"name": "",
							"type": "uint256"
						},
						{
							"internalType": "uint256",
							"name": "",
							"type": "uint256"
						},
						{
							"internalType": "uint256",
							"name": "",
							"type": "uint256"
						},
						{
							"internalType": "bool",
							"name": "",
							"type": "bool"
						}
					],
					"stateMutability": "view",
					"type": "function"
				},
				{
					"inputs": [
						{
							"internalType": "uint256",
							"name": "price",
							"type": "uint256"
						}
					],
					"name": "placeAsk",
					"outputs": [],
					"stateMutability": "payable",
					"type": "function"
				},
				{
					"inputs": [
						{
							"internalType": "uint256",
							"name": "price",
							"type": "uint256"
						}
					],
					"name": "placeBid",
					"outputs": [],
					"stateMutability": "payable",
					"type": "function"
				},
				{
					"inputs": [],
					"name": "testString",
					"outputs": [
						{
							"internalType": "string",
							"name": "",
							"type": "string"
						}
					],
					"stateMutability": "pure",
					"type": "function"
				}
			],
			"devdoc": {
				"kind": "dev",
				"methods": {},
				"version": 1
			},
			"evm": {
				"assembly": "    /* \"contracts/OrderBook.sol\":1130:8941  contract OrderBook {... */\n  mstore(0x40, 0x80)\n    /* \"contracts/OrderBook.sol\":1333:1343  msg.sender */\n  caller\n    /* \"contracts/OrderBook.sol\":1300:1344  address payable _owner = payable(msg.sender) */\n  0x01\n  exp(0x0100, 0x00)\n  dup2\n  sload\n  dup2\n  0xffffffffffffffffffffffffffffffffffffffff\n  mul\n  not\n  and\n  swap1\n  dup4\n  0xffffffffffffffffffffffffffffffffffffffff\n  and\n  mul\n  or\n  swap1\n  sstore\n  pop\n    /* \"contracts/OrderBook.sol\":2267:2428  constructor (uint256 _commission) {... */\n  callvalue\n  dup1\n  iszero\n  tag_1\n  jumpi\n  0x00\n  dup1\n  revert\ntag_1:\n  pop\n  mload(0x40)\n  sub(codesize, bytecodeSize)\n  dup1\n  bytecodeSize\n  dup4\n  codecopy\n  dup2\n  dup2\n  add\n  0x40\n  mstore\n  dup2\n  add\n  swap1\n  tag_2\n  swap2\n  swap1\n  tag_3\n  jump\t// in\ntag_2:\n    /* \"contracts/OrderBook.sol\":2324:2335  _commission */\n  dup1\n    /* \"contracts/OrderBook.sol\":2311:2321  commission */\n  0x02\n    /* \"contracts/OrderBook.sol\":2311:2335  commission = _commission */\n  dup2\n  swap1\n  sstore\n  pop\n    /* \"contracts/OrderBook.sol\":2355:2356  0 */\n  0x00\n    /* \"contracts/OrderBook.sol\":2345:2352  bidHead */\n  0x04\n    /* \"contracts/OrderBook.sol\":2345:2356  bidHead = 0 */\n  dup2\n  swap1\n  sstore\n  pop\n    /* \"contracts/OrderBook.sol\":2377:2378  0 */\n  0x00\n    /* \"contracts/OrderBook.sol\":2366:2374  bidCount */\n  0x05\n    /* \"contracts/OrderBook.sol\":2366:2378  bidCount = 0 */\n  dup2\n  swap1\n  sstore\n  pop\n    /* \"contracts/OrderBook.sol\":2398:2399  0 */\n  0x00\n    /* \"contracts/OrderBook.sol\":2388:2395  askHead */\n  0x07\n    /* \"contracts/OrderBook.sol\":2388:2399  askHead = 0 */\n  dup2\n  swap1\n  sstore\n  pop\n    /* \"contracts/OrderBook.sol\":2420:2421  0 */\n  0x00\n    /* \"contracts/OrderBook.sol\":2409:2417  askCount */\n  0x08\n    /* \"contracts/OrderBook.sol\":2409:2421  askCount = 0 */\n  dup2\n  swap1\n  sstore\n  pop\n    /* \"contracts/OrderBook.sol\":2267:2428  constructor (uint256 _commission) {... */\n  pop\n    /* \"contracts/OrderBook.sol\":1130:8941  contract OrderBook {... */\n  jump(tag_6)\n    /* \"#utility.yul\":88:205   */\ntag_8:\n    /* \"#utility.yul\":197:198   */\n  0x00\n    /* \"#utility.yul\":194:195   */\n  dup1\n    /* \"#utility.yul\":187:199   */\n  revert\n    /* \"#utility.yul\":334:411   */\ntag_10:\n    /* \"#utility.yul\":371:378   */\n  0x00\n    /* \"#utility.yul\":400:405   */\n  dup2\n    /* \"#utility.yul\":389:405   */\n  swap1\n  pop\n    /* \"#utility.yul\":334:411   */\n  swap2\n  swap1\n  pop\n  jump\t// out\n    /* \"#utility.yul\":417:539   */\ntag_11:\n    /* \"#utility.yul\":490:514   */\n  tag_19\n    /* \"#utility.yul\":508:513   */\n  dup2\n    /* \"#utility.yul\":490:514   */\n  tag_10\n  jump\t// in\ntag_19:\n    /* \"#utility.yul\":483:488   */\n  dup2\n    /* \"#utility.yul\":480:515   */\n  eq\n    /* \"#utility.yul\":470:533   */\n  tag_20\n  jumpi\n    /* \"#utility.yul\":529:530   */\n  0x00\n    /* \"#utility.yul\":526:527   */\n  dup1\n    /* \"#utility.yul\":519:531   */\n  revert\n    /* \"#utility.yul\":470:533   */\ntag_20:\n    /* \"#utility.yul\":417:539   */\n  pop\n  jump\t// out\n    /* \"#utility.yul\":545:688   */\ntag_12:\n    /* \"#utility.yul\":602:607   */\n  0x00\n    /* \"#utility.yul\":633:639   */\n  dup2\n    /* \"#utility.yul\":627:640   */\n  mload\n    /* \"#utility.yul\":618:640   */\n  swap1\n  pop\n    /* \"#utility.yul\":649:682   */\n  tag_22\n    /* \"#utility.yul\":676:681   */\n  dup2\n    /* \"#utility.yul\":649:682   */\n  tag_11\n  jump\t// in\ntag_22:\n    /* \"#utility.yul\":545:688   */\n  swap3\n  swap2\n  pop\n  pop\n  jump\t// out\n    /* \"#utility.yul\":694:1045   */\ntag_3:\n    /* \"#utility.yul\":764:770   */\n  0x00\n    /* \"#utility.yul\":813:815   */\n  0x20\n    /* \"#utility.yul\":801:810   */\n  dup3\n    /* \"#utility.yul\":792:799   */\n  dup5\n    /* \"#utility.yul\":788:811   */\n  sub\n    /* \"#utility.yul\":784:816   */\n  slt\n    /* \"#utility.yul\":781:900   */\n  iszero\n  tag_24\n  jumpi\n    /* \"#utility.yul\":819:898   */\n  tag_25\n  tag_8\n  jump\t// in\ntag_25:\n    /* \"#utility.yul\":781:900   */\ntag_24:\n    /* \"#utility.yul\":939:940   */\n  0x00\n    /* \"#utility.yul\":964:1028   */\n  tag_26\n    /* \"#utility.yul\":1020:1027   */\n  dup5\n    /* \"#utility.yul\":1011:1017   */\n  dup3\n    /* \"#utility.yul\":1000:1009   */\n  dup6\n    /* \"#utility.yul\":996:1018   */\n  add\n    /* \"#utility.yul\":964:1028   */\n  tag_12\n  jump\t// in\ntag_26:\n    /* \"#utility.yul\":954:1028   */\n  swap2\n  pop\n    /* \"#utility.yul\":910:1038   */\n  pop\n    /* \"#utility.yul\":694:1045   */\n  swap3\n  swap2\n  pop\n  pop\n  jump\t// out\n    /* \"contracts/OrderBook.sol\":1130:8941  contract OrderBook {... */\ntag_6:\n  dataSize(sub_0)\n  dup1\n  dataOffset(sub_0)\n  0x00\n  codecopy\n  0x00\n  return\nstop\n\nsub_0: assembly {\n        /* \"contracts/OrderBook.sol\":1130:8941  contract OrderBook {... */\n      mstore(0x40, 0x80)\n      jumpi(tag_1, lt(calldatasize, 0x04))\n      shr(0xe0, calldataload(0x00))\n      dup1\n      0x78c5b268\n      gt\n      tag_23\n      jumpi\n      dup1\n      0xb40a5627\n      gt\n      tag_24\n      jumpi\n      dup1\n      0xb40a5627\n      eq\n      tag_17\n      jumpi\n      dup1\n      0xbf77ffae\n      eq\n      tag_18\n      jumpi\n      dup1\n      0xce0cdc87\n      eq\n      tag_19\n      jumpi\n      dup1\n      0xd09ef241\n      eq\n      tag_20\n      jumpi\n      dup1\n      0xdb3a1396\n      eq\n      tag_21\n      jumpi\n      dup1\n      0xfb8f0f59\n      eq\n      tag_22\n      jumpi\n      jump(tag_1)\n    tag_24:\n      dup1\n      0x78c5b268\n      eq\n      tag_12\n      jumpi\n      dup1\n      0x801d9bbd\n      eq\n      tag_13\n      jumpi\n      dup1\n      0x9703ef35\n      eq\n      tag_14\n      jumpi\n      dup1\n      0x9979ef45\n      eq\n      tag_15\n      jumpi\n      dup1\n      0xa394fda7\n      eq\n      tag_16\n      jumpi\n      jump(tag_1)\n    tag_23:\n      dup1\n      0x44e791e0\n      gt\n      tag_25\n      jumpi\n      dup1\n      0x44e791e0\n      eq\n      tag_7\n      jumpi\n      dup1\n      0x4d46712d\n      eq\n      tag_8\n      jumpi\n      dup1\n      0x69f632e2\n      eq\n      tag_9\n      jumpi\n      dup1\n      0x6e5b0f00\n      eq\n      tag_10\n      jumpi\n      dup1\n      0x734a2e78\n      eq\n      tag_11\n      jumpi\n      jump(tag_1)\n    tag_25:\n      dup1\n      0x0a7e4904\n      eq\n      tag_2\n      jumpi\n      dup1\n      0x122de8f2\n      eq\n      tag_3\n      jumpi\n      dup1\n      0x1628e0f5\n      eq\n      tag_4\n      jumpi\n      dup1\n      0x2db6dfa7\n      eq\n      tag_5\n      jumpi\n      dup1\n      0x4471417f\n      eq\n      tag_6\n      jumpi\n    tag_1:\n      0x00\n      dup1\n      revert\n        /* \"contracts/OrderBook.sol\":5479:5623  function concatenate(string memory a, bytes32 b) public pure returns (string memory){... */\n    tag_2:\n      callvalue\n      dup1\n      iszero\n      tag_26\n      jumpi\n      0x00\n      dup1\n      revert\n    tag_26:\n      pop\n      tag_27\n      0x04\n      dup1\n      calldatasize\n      sub\n      dup2\n      add\n      swap1\n      tag_28\n      swap2\n      swap1\n      tag_29\n      jump\t// in\n    tag_28:\n      tag_30\n      jump\t// in\n    tag_27:\n      mload(0x40)\n      tag_31\n      swap2\n      swap1\n      tag_32\n      jump\t// in\n    tag_31:\n      mload(0x40)\n      dup1\n      swap2\n      sub\n      swap1\n      return\n        /* \"contracts/OrderBook.sol\":7858:7926  function fetchYourAskIds() public returns (uint256[] memory) {... */\n    tag_3:\n      callvalue\n      dup1\n      iszero\n      tag_33\n      jumpi\n      0x00\n      dup1\n      revert\n    tag_33:\n      pop\n      tag_34\n      tag_35\n      jump\t// in\n    tag_34:\n      mload(0x40)\n      tag_36\n      swap2\n      swap1\n      tag_37\n      jump\t// in\n    tag_36:\n      mload(0x40)\n      dup1\n      swap2\n      sub\n      swap1\n      return\n        /* \"contracts/OrderBook.sol\":6910:7202  function cancelAsk (uint256 askId) public isPending(askBook[askId]) isAuthorised(askBook[askId], msg.sender) {... */\n    tag_4:\n      callvalue\n      dup1\n      iszero\n      tag_38\n      jumpi\n      0x00\n      dup1\n      revert\n    tag_38:\n      pop\n      tag_39\n      0x04\n      dup1\n      calldatasize\n      sub\n      dup2\n      add\n      swap1\n      tag_40\n      swap2\n      swap1\n      tag_41\n      jump\t// in\n    tag_40:\n      tag_42\n      jump\t// in\n    tag_39:\n      stop\n        /* \"contracts/OrderBook.sol\":8508:8612  function getBidValue (uint256 id) public view returns(uint256) {... */\n    tag_5:\n      callvalue\n      dup1\n      iszero\n      tag_43\n      jumpi\n      0x00\n      dup1\n      revert\n    tag_43:\n      pop\n      tag_44\n      0x04\n      dup1\n      calldatasize\n      sub\n      dup2\n      add\n      swap1\n      tag_45\n      swap2\n      swap1\n      tag_41\n      jump\t// in\n    tag_45:\n      tag_46\n      jump\t// in\n    tag_44:\n      mload(0x40)\n      tag_47\n      swap2\n      swap1\n      tag_48\n      jump\t// in\n    tag_47:\n      mload(0x40)\n      dup1\n      swap2\n      sub\n      swap1\n      return\n        /* \"contracts/OrderBook.sol\":7715:7777  function fetchAllBid() public returns (order[] memory) {... */\n    tag_6:\n      callvalue\n      dup1\n      iszero\n      tag_49\n      jumpi\n      0x00\n      dup1\n      revert\n    tag_49:\n      pop\n      tag_50\n      tag_51\n      jump\t// in\n    tag_50:\n      mload(0x40)\n      tag_52\n      swap2\n      swap1\n      tag_53\n      jump\t// in\n    tag_52:\n      mload(0x40)\n      dup1\n      swap2\n      sub\n      swap1\n      return\n        /* \"contracts/OrderBook.sol\":7236:7570  function fetchAsk() public view returns (string memory) {... */\n    tag_7:\n      callvalue\n      dup1\n      iszero\n      tag_54\n      jumpi\n      0x00\n      dup1\n      revert\n    tag_54:\n      pop\n      tag_55\n      tag_56\n      jump\t// in\n    tag_55:\n      mload(0x40)\n      tag_57\n      swap2\n      swap1\n      tag_32\n      jump\t// in\n    tag_57:\n      mload(0x40)\n      dup1\n      swap2\n      sub\n      swap1\n      return\n        /* \"contracts/OrderBook.sol\":8836:8938  function getAskState (uint256 id) public view returns(State) {... */\n    tag_8:\n      callvalue\n      dup1\n      iszero\n      tag_58\n      jumpi\n      0x00\n      dup1\n      revert\n    tag_58:\n      pop\n      tag_59\n      0x04\n      dup1\n      calldatasize\n      sub\n      dup2\n      add\n      swap1\n      tag_60\n      swap2\n      swap1\n      tag_41\n      jump\t// in\n    tag_60:\n      tag_61\n      jump\t// in\n    tag_59:\n      mload(0x40)\n      tag_62\n      swap2\n      swap1\n      tag_63\n      jump\t// in\n    tag_62:\n      mload(0x40)\n      dup1\n      swap2\n      sub\n      swap1\n      return\n        /* \"contracts/OrderBook.sol\":8262:8379  function getBidAddress (uint256 id) public view returns(address payable) {... */\n    tag_9:\n      callvalue\n      dup1\n      iszero\n      tag_64\n      jumpi\n      0x00\n      dup1\n      revert\n    tag_64:\n      pop\n      tag_65\n      0x04\n      dup1\n      calldatasize\n      sub\n      dup2\n      add\n      swap1\n      tag_66\n      swap2\n      swap1\n      tag_41\n      jump\t// in\n    tag_66:\n      tag_67\n      jump\t// in\n    tag_65:\n      mload(0x40)\n      tag_68\n      swap2\n      swap1\n      tag_69\n      jump\t// in\n    tag_68:\n      mload(0x40)\n      dup1\n      swap2\n      sub\n      swap1\n      return\n        /* \"contracts/OrderBook.sol\":1797:1819  uint256 public bidHead */\n    tag_10:\n      callvalue\n      dup1\n      iszero\n      tag_70\n      jumpi\n      0x00\n      dup1\n      revert\n    tag_70:\n      pop\n      tag_71\n      tag_72\n      jump\t// in\n    tag_71:\n      mload(0x40)\n      tag_73\n      swap2\n      swap1\n      tag_48\n      jump\t// in\n    tag_73:\n      mload(0x40)\n      dup1\n      swap2\n      sub\n      swap1\n      return\n        /* \"contracts/OrderBook.sol\":8385:8502  function getAskAddress (uint256 id) public view returns(address payable) {... */\n    tag_11:\n      callvalue\n      dup1\n      iszero\n      tag_74\n      jumpi\n      0x00\n      dup1\n      revert\n    tag_74:\n      pop\n      tag_75\n      0x04\n      dup1\n      calldatasize\n      sub\n      dup2\n      add\n      swap1\n      tag_76\n      swap2\n      swap1\n      tag_41\n      jump\t// in\n    tag_76:\n      tag_77\n      jump\t// in\n    tag_75:\n      mload(0x40)\n      tag_78\n      swap2\n      swap1\n      tag_69\n      jump\t// in\n    tag_78:\n      mload(0x40)\n      dup1\n      swap2\n      sub\n      swap1\n      return\n        /* \"contracts/OrderBook.sol\":6500:6904  function placeAsk (uint256 price) public payable {... */\n    tag_12:\n      tag_79\n      0x04\n      dup1\n      calldatasize\n      sub\n      dup2\n      add\n      swap1\n      tag_80\n      swap2\n      swap1\n      tag_41\n      jump\t// in\n    tag_80:\n      tag_81\n      jump\t// in\n    tag_79:\n      stop\n        /* \"contracts/OrderBook.sol\":1942:1964  uint256 public askHead */\n    tag_13:\n      callvalue\n      dup1\n      iszero\n      tag_82\n      jumpi\n      0x00\n      dup1\n      revert\n    tag_82:\n      pop\n      tag_83\n      tag_84\n      jump\t// in\n    tag_83:\n      mload(0x40)\n      tag_85\n      swap2\n      swap1\n      tag_48\n      jump\t// in\n    tag_85:\n      mload(0x40)\n      dup1\n      swap2\n      sub\n      swap1\n      return\n        /* \"contracts/OrderBook.sol\":6237:6494  function cancelBid (uint256 bidId) public isPending(bidBook[bidId]) isAuthorised(bidBook[bidId], msg.sender) {... */\n    tag_14:\n      callvalue\n      dup1\n      iszero\n      tag_86\n      jumpi\n      0x00\n      dup1\n      revert\n    tag_86:\n      pop\n      tag_87\n      0x04\n      dup1\n      calldatasize\n      sub\n      dup2\n      add\n      swap1\n      tag_88\n      swap2\n      swap1\n      tag_41\n      jump\t// in\n    tag_88:\n      tag_89\n      jump\t// in\n    tag_87:\n      stop\n        /* \"contracts/OrderBook.sol\":5662:6231  function placeBid (uint256 price) public payable {... */\n    tag_15:\n      tag_90\n      0x04\n      dup1\n      calldatasize\n      sub\n      dup2\n      add\n      swap1\n      tag_91\n      swap2\n      swap1\n      tag_41\n      jump\t// in\n    tag_91:\n      tag_92\n      jump\t// in\n    tag_90:\n      stop\n        /* \"contracts/OrderBook.sol\":1970:1993  uint256 public askCount */\n    tag_16:\n      callvalue\n      dup1\n      iszero\n      tag_93\n      jumpi\n      0x00\n      dup1\n      revert\n    tag_93:\n      pop\n      tag_94\n      tag_95\n      jump\t// in\n    tag_94:\n      mload(0x40)\n      tag_96\n      swap2\n      swap1\n      tag_48\n      jump\t// in\n    tag_96:\n      mload(0x40)\n      dup1\n      swap2\n      sub\n      swap1\n      return\n        /* \"contracts/OrderBook.sol\":1825:1848  uint256 public bidCount */\n    tag_17:\n      callvalue\n      dup1\n      iszero\n      tag_97\n      jumpi\n      0x00\n      dup1\n      revert\n    tag_97:\n      pop\n      tag_98\n      tag_99\n      jump\t// in\n    tag_98:\n      mload(0x40)\n      tag_100\n      swap2\n      swap1\n      tag_48\n      jump\t// in\n    tag_100:\n      mload(0x40)\n      dup1\n      swap2\n      sub\n      swap1\n      return\n        /* \"contracts/OrderBook.sol\":8728:8830  function getBidState (uint256 id) public view returns(State) {... */\n    tag_18:\n      callvalue\n      dup1\n      iszero\n      tag_101\n      jumpi\n      0x00\n      dup1\n      revert\n    tag_101:\n      pop\n      tag_102\n      0x04\n      dup1\n      calldatasize\n      sub\n      dup2\n      add\n      swap1\n      tag_103\n      swap2\n      swap1\n      tag_41\n      jump\t// in\n    tag_103:\n      tag_104\n      jump\t// in\n    tag_102:\n      mload(0x40)\n      tag_105\n      swap2\n      swap1\n      tag_63\n      jump\t// in\n    tag_105:\n      mload(0x40)\n      dup1\n      swap2\n      sub\n      swap1\n      return\n        /* \"contracts/OrderBook.sol\":7784:7852  function fetchYourBidIds() public returns (uint256[] memory) {... */\n    tag_19:\n      callvalue\n      dup1\n      iszero\n      tag_106\n      jumpi\n      0x00\n      dup1\n      revert\n    tag_106:\n      pop\n      tag_107\n      tag_108\n      jump\t// in\n    tag_107:\n      mload(0x40)\n      tag_109\n      swap2\n      swap1\n      tag_37\n      jump\t// in\n    tag_109:\n      mload(0x40)\n      dup1\n      swap2\n      sub\n      swap1\n      return\n        /* \"contracts/OrderBook.sol\":7932:8256  function getOrder(uint256 id) public view returns(address payable,uint256,uint256,State,uint256,uint256,uint256,bool) {... */\n    tag_20:\n      callvalue\n      dup1\n      iszero\n      tag_110\n      jumpi\n      0x00\n      dup1\n      revert\n    tag_110:\n      pop\n      tag_111\n      0x04\n      dup1\n      calldatasize\n      sub\n      dup2\n      add\n      swap1\n      tag_112\n      swap2\n      swap1\n      tag_41\n      jump\t// in\n    tag_112:\n      tag_113\n      jump\t// in\n    tag_111:\n      mload(0x40)\n      tag_114\n      swap9\n      swap8\n      swap7\n      swap6\n      swap5\n      swap4\n      swap3\n      swap2\n      swap1\n      tag_115\n      jump\t// in\n    tag_114:\n      mload(0x40)\n      dup1\n      swap2\n      sub\n      swap1\n      return\n        /* \"contracts/OrderBook.sol\":8618:8722  function getAskValue (uint256 id) public view returns(uint256) {... */\n    tag_21:\n      callvalue\n      dup1\n      iszero\n      tag_116\n      jumpi\n      0x00\n      dup1\n      revert\n    tag_116:\n      pop\n      tag_117\n      0x04\n      dup1\n      calldatasize\n      sub\n      dup2\n      add\n      swap1\n      tag_118\n      swap2\n      swap1\n      tag_41\n      jump\t// in\n    tag_118:\n      tag_119\n      jump\t// in\n    tag_117:\n      mload(0x40)\n      tag_120\n      swap2\n      swap1\n      tag_48\n      jump\t// in\n    tag_120:\n      mload(0x40)\n      dup1\n      swap2\n      sub\n      swap1\n      return\n        /* \"contracts/OrderBook.sol\":7576:7709  function testString() public  pure returns (string memory) {... */\n    tag_22:\n      callvalue\n      dup1\n      iszero\n      tag_121\n      jumpi\n      0x00\n      dup1\n      revert\n    tag_121:\n      pop\n      tag_122\n      tag_123\n      jump\t// in\n    tag_122:\n      mload(0x40)\n      tag_124\n      swap2\n      swap1\n      tag_32\n      jump\t// in\n    tag_124:\n      mload(0x40)\n      dup1\n      swap2\n      sub\n      swap1\n      return\n        /* \"contracts/OrderBook.sol\":5479:5623  function concatenate(string memory a, bytes32 b) public pure returns (string memory){... */\n    tag_30:\n        /* \"contracts/OrderBook.sol\":5549:5562  string memory */\n      0x60\n        /* \"contracts/OrderBook.sol\":5606:5607  a */\n      dup3\n        /* \"contracts/OrderBook.sol\":5613:5614  b */\n      dup3\n        /* \"contracts/OrderBook.sol\":5587:5615  bytes.concat(bytes(a),' ',b) */\n      add(0x20, mload(0x40))\n      tag_126\n      swap3\n      swap2\n      swap1\n      tag_127\n      jump\t// in\n    tag_126:\n      mload(0x40)\n      0x20\n      dup2\n      dup4\n      sub\n      sub\n      dup2\n      mstore\n      swap1\n      0x40\n      mstore\n        /* \"contracts/OrderBook.sol\":5573:5616  return string(bytes.concat(bytes(a),' ',b)) */\n      swap1\n      pop\n        /* \"contracts/OrderBook.sol\":5479:5623  function concatenate(string memory a, bytes32 b) public pure returns (string memory){... */\n      swap3\n      swap2\n      pop\n      pop\n      jump\t// out\n        /* \"contracts/OrderBook.sol\":7858:7926  function fetchYourAskIds() public returns (uint256[] memory) {... */\n    tag_35:\n        /* \"contracts/OrderBook.sol\":7901:7917  uint256[] memory */\n      0x60\n        /* \"contracts/OrderBook.sol\":7858:7926  function fetchYourAskIds() public returns (uint256[] memory) {... */\n      swap1\n      jump\t// out\n        /* \"contracts/OrderBook.sol\":6910:7202  function cancelAsk (uint256 askId) public isPending(askBook[askId]) isAuthorised(askBook[askId], msg.sender) {... */\n    tag_42:\n        /* \"contracts/OrderBook.sol\":6962:6969  askBook */\n      0x06\n        /* \"contracts/OrderBook.sol\":6962:6976  askBook[askId] */\n      0x00\n        /* \"contracts/OrderBook.sol\":6970:6975  askId */\n      dup3\n        /* \"contracts/OrderBook.sol\":6962:6976  askBook[askId] */\n      dup2\n      mstore\n      0x20\n      add\n      swap1\n      dup2\n      mstore\n      0x20\n      add\n      0x00\n      keccak256\n        /* \"contracts/OrderBook.sol\":2467:2590  modifier isPending(order memory _order) {... */\n      mload(0x40)\n      dup1\n      0xe0\n      add\n      0x40\n      mstore\n      swap1\n      dup2\n      0x00\n      dup3\n      add\n      0x00\n      swap1\n      sload\n      swap1\n      0x0100\n      exp\n      swap1\n      div\n      0xffffffffffffffffffffffffffffffffffffffff\n      and\n      0xffffffffffffffffffffffffffffffffffffffff\n      and\n      0xffffffffffffffffffffffffffffffffffffffff\n      and\n      dup2\n      mstore\n      0x20\n      add\n      0x01\n      dup3\n      add\n      sload\n      dup2\n      mstore\n      0x20\n      add\n      0x02\n      dup3\n      add\n      sload\n      dup2\n      mstore\n      0x20\n      add\n      0x03\n      dup3\n      add\n      0x00\n      swap1\n      sload\n      swap1\n      0x0100\n      exp\n      swap1\n      div\n      0xff\n      and\n      0x01\n      dup2\n      gt\n      iszero\n      tag_129\n      jumpi\n      tag_130\n      tag_131\n      jump\t// in\n    tag_130:\n    tag_129:\n      0x01\n      dup2\n      gt\n      iszero\n      tag_132\n      jumpi\n      tag_133\n      tag_131\n      jump\t// in\n    tag_133:\n    tag_132:\n      dup2\n      mstore\n      0x20\n      add\n      0x04\n      dup3\n      add\n      sload\n      dup2\n      mstore\n      0x20\n      add\n      0x05\n      dup3\n      add\n      sload\n      dup2\n      mstore\n      0x20\n      add\n      0x06\n      dup3\n      add\n      sload\n      dup2\n      mstore\n      pop\n      pop\n        /* \"contracts/OrderBook.sol\":2541:2554  State.pending */\n      0x00\n        /* \"contracts/OrderBook.sol\":2525:2554  _order.state == State.pending */\n      0x01\n      dup2\n      gt\n      iszero\n      tag_135\n      jumpi\n      tag_136\n      tag_131\n      jump\t// in\n    tag_136:\n    tag_135:\n        /* \"contracts/OrderBook.sol\":2525:2531  _order */\n      dup2\n        /* \"contracts/OrderBook.sol\":2525:2537  _order.state */\n      0x60\n      add\n      mload\n        /* \"contracts/OrderBook.sol\":2525:2554  _order.state == State.pending */\n      0x01\n      dup2\n      gt\n      iszero\n      tag_137\n      jumpi\n      tag_138\n      tag_131\n      jump\t// in\n    tag_138:\n    tag_137:\n      eq\n        /* \"contracts/OrderBook.sol\":2517:2572  require(_order.state == State.pending, \"Order Pending\") */\n      tag_139\n      jumpi\n      mload(0x40)\n      0x08c379a000000000000000000000000000000000000000000000000000000000\n      dup2\n      mstore\n      0x04\n      add\n      tag_140\n      swap1\n      tag_141\n      jump\t// in\n    tag_140:\n      mload(0x40)\n      dup1\n      swap2\n      sub\n      swap1\n      revert\n    tag_139:\n        /* \"contracts/OrderBook.sol\":6991:6998  askBook */\n      0x06\n        /* \"contracts/OrderBook.sol\":6991:7005  askBook[askId] */\n      0x00\n        /* \"contracts/OrderBook.sol\":6999:7004  askId */\n      dup4\n        /* \"contracts/OrderBook.sol\":6991:7005  askBook[askId] */\n      dup2\n      mstore\n      0x20\n      add\n      swap1\n      dup2\n      mstore\n      0x20\n      add\n      0x00\n      keccak256\n        /* \"contracts/OrderBook.sol\":2596:2735  modifier isAuthorised(order memory _order, address sender) {... */\n      mload(0x40)\n      dup1\n      0xe0\n      add\n      0x40\n      mstore\n      swap1\n      dup2\n      0x00\n      dup3\n      add\n      0x00\n      swap1\n      sload\n      swap1\n      0x0100\n      exp\n      swap1\n      div\n      0xffffffffffffffffffffffffffffffffffffffff\n      and\n      0xffffffffffffffffffffffffffffffffffffffff\n      and\n      0xffffffffffffffffffffffffffffffffffffffff\n      and\n      dup2\n      mstore\n      0x20\n      add\n      0x01\n      dup3\n      add\n      sload\n      dup2\n      mstore\n      0x20\n      add\n      0x02\n      dup3\n      add\n      sload\n      dup2\n      mstore\n      0x20\n      add\n      0x03\n      dup3\n      add\n      0x00\n      swap1\n      sload\n      swap1\n      0x0100\n      exp\n      swap1\n      div\n      0xff\n      and\n      0x01\n      dup2\n      gt\n      iszero\n      tag_142\n      jumpi\n      tag_143\n      tag_131\n      jump\t// in\n    tag_143:\n    tag_142:\n      0x01\n      dup2\n      gt\n      iszero\n      tag_144\n      jumpi\n      tag_145\n      tag_131\n      jump\t// in\n    tag_145:\n    tag_144:\n      dup2\n      mstore\n      0x20\n      add\n      0x04\n      dup3\n      add\n      sload\n      dup2\n      mstore\n      0x20\n      add\n      0x05\n      dup3\n      add\n      sload\n      dup2\n      mstore\n      0x20\n      add\n      0x06\n      dup3\n      add\n      sload\n      dup2\n      mstore\n      pop\n      pop\n        /* \"contracts/OrderBook.sol\":7007:7017  msg.sender */\n      caller\n        /* \"contracts/OrderBook.sol\":2692:2698  sender */\n      dup1\n        /* \"contracts/OrderBook.sol\":2673:2698  _order.customer == sender */\n      0xffffffffffffffffffffffffffffffffffffffff\n      and\n        /* \"contracts/OrderBook.sol\":2673:2679  _order */\n      dup3\n        /* \"contracts/OrderBook.sol\":2673:2688  _order.customer */\n      0x00\n      add\n      mload\n        /* \"contracts/OrderBook.sol\":2673:2698  _order.customer == sender */\n      0xffffffffffffffffffffffffffffffffffffffff\n      and\n      eq\n        /* \"contracts/OrderBook.sol\":2665:2717  require(_order.customer == sender, \"Not Authorised\") */\n      tag_147\n      jumpi\n      mload(0x40)\n      0x08c379a000000000000000000000000000000000000000000000000000000000\n      dup2\n      mstore\n      0x04\n      add\n      tag_148\n      swap1\n      tag_149\n      jump\t// in\n    tag_148:\n      mload(0x40)\n      dup1\n      swap2\n      sub\n      swap1\n      revert\n    tag_147:\n        /* \"contracts/OrderBook.sol\":2582:2583  _ */\n      pop\n      pop\n        /* \"contracts/OrderBook.sol\":6910:7202  function cancelAsk (uint256 askId) public isPending(askBook[askId]) isAuthorised(askBook[askId], msg.sender) {... */\n      pop\n      pop\n      jump\t// out\n        /* \"contracts/OrderBook.sol\":8508:8612  function getBidValue (uint256 id) public view returns(uint256) {... */\n    tag_46:\n        /* \"contracts/OrderBook.sol\":8562:8569  uint256 */\n      0x00\n        /* \"contracts/OrderBook.sol\":8588:8595  bidBook */\n      0x03\n        /* \"contracts/OrderBook.sol\":8588:8599  bidBook[id] */\n      0x00\n        /* \"contracts/OrderBook.sol\":8596:8598  id */\n      dup4\n        /* \"contracts/OrderBook.sol\":8588:8599  bidBook[id] */\n      dup2\n      mstore\n      0x20\n      add\n      swap1\n      dup2\n      mstore\n      0x20\n      add\n      0x00\n      keccak256\n        /* \"contracts/OrderBook.sol\":8588:8605  bidBook[id].value */\n      0x01\n      add\n      sload\n        /* \"contracts/OrderBook.sol\":8581:8605  return bidBook[id].value */\n      swap1\n      pop\n        /* \"contracts/OrderBook.sol\":8508:8612  function getBidValue (uint256 id) public view returns(uint256) {... */\n      swap2\n      swap1\n      pop\n      jump\t// out\n        /* \"contracts/OrderBook.sol\":7715:7777  function fetchAllBid() public returns (order[] memory) {... */\n    tag_51:\n        /* \"contracts/OrderBook.sol\":7754:7768  order[] memory */\n      0x60\n        /* \"contracts/OrderBook.sol\":7715:7777  function fetchAllBid() public returns (order[] memory) {... */\n      swap1\n      jump\t// out\n        /* \"contracts/OrderBook.sol\":7236:7570  function fetchAsk() public view returns (string memory) {... */\n    tag_56:\n        /* \"contracts/OrderBook.sol\":7277:7290  string memory */\n      0x60\n        /* \"contracts/OrderBook.sol\":7302:7317  uint256 current */\n      0x00\n        /* \"contracts/OrderBook.sol\":7320:7327  askHead */\n      sload(0x07)\n        /* \"contracts/OrderBook.sol\":7302:7327  uint256 current = askHead */\n      swap1\n      pop\n        /* \"contracts/OrderBook.sol\":7337:7357  string memory output */\n      0x00\n        /* \"contracts/OrderBook.sol\":7337:7362  string memory output = \"\" */\n      mload(0x40)\n      dup1\n      0x20\n      add\n      0x40\n      mstore\n      dup1\n      0x00\n      dup2\n      mstore\n      pop\n      swap1\n      pop\n        /* \"contracts/OrderBook.sol\":7372:7541  while (current != 0) {... */\n    tag_154:\n        /* \"contracts/OrderBook.sol\":7390:7391  0 */\n      0x00\n        /* \"contracts/OrderBook.sol\":7379:7386  current */\n      dup3\n        /* \"contracts/OrderBook.sol\":7379:7391  current != 0 */\n      eq\n        /* \"contracts/OrderBook.sol\":7372:7541  while (current != 0) {... */\n      tag_155\n      jumpi\n        /* \"contracts/OrderBook.sol\":7407:7419  uint256 next */\n      0x00\n        /* \"contracts/OrderBook.sol\":7422:7429  askBook */\n      0x06\n        /* \"contracts/OrderBook.sol\":7422:7438  askBook[current] */\n      0x00\n        /* \"contracts/OrderBook.sol\":7430:7437  current */\n      dup5\n        /* \"contracts/OrderBook.sol\":7422:7438  askBook[current] */\n      dup2\n      mstore\n      0x20\n      add\n      swap1\n      dup2\n      mstore\n      0x20\n      add\n      0x00\n      keccak256\n        /* \"contracts/OrderBook.sol\":7422:7443  askBook[current].next */\n      0x05\n      add\n      sload\n        /* \"contracts/OrderBook.sol\":7407:7443  uint256 next = askBook[current].next */\n      swap1\n      pop\n        /* \"contracts/OrderBook.sol\":7466:7502  concatenate(output,bytes32(current)) */\n      tag_156\n        /* \"contracts/OrderBook.sol\":7478:7484  output */\n      dup3\n        /* \"contracts/OrderBook.sol\":7493:7500  current */\n      dup5\n        /* \"contracts/OrderBook.sol\":7485:7501  bytes32(current) */\n      0x00\n      shl\n        /* \"contracts/OrderBook.sol\":7466:7477  concatenate */\n      tag_30\n        /* \"contracts/OrderBook.sol\":7466:7502  concatenate(output,bytes32(current)) */\n      jump\t// in\n    tag_156:\n        /* \"contracts/OrderBook.sol\":7457:7502  output = concatenate(output,bytes32(current)) */\n      swap2\n      pop\n        /* \"contracts/OrderBook.sol\":7526:7530  next */\n      dup1\n        /* \"contracts/OrderBook.sol\":7516:7530  current = next */\n      swap3\n      pop\n        /* \"contracts/OrderBook.sol\":7393:7541  {... */\n      pop\n        /* \"contracts/OrderBook.sol\":7372:7541  while (current != 0) {... */\n      jump(tag_154)\n    tag_155:\n        /* \"contracts/OrderBook.sol\":7557:7563  output */\n      dup1\n        /* \"contracts/OrderBook.sol\":7550:7563  return output */\n      swap3\n      pop\n      pop\n      pop\n        /* \"contracts/OrderBook.sol\":7236:7570  function fetchAsk() public view returns (string memory) {... */\n      swap1\n      jump\t// out\n        /* \"contracts/OrderBook.sol\":8836:8938  function getAskState (uint256 id) public view returns(State) {... */\n    tag_61:\n        /* \"contracts/OrderBook.sol\":8890:8895  State */\n      0x00\n        /* \"contracts/OrderBook.sol\":8914:8921  askBook */\n      0x06\n        /* \"contracts/OrderBook.sol\":8914:8925  askBook[id] */\n      0x00\n        /* \"contracts/OrderBook.sol\":8922:8924  id */\n      dup4\n        /* \"contracts/OrderBook.sol\":8914:8925  askBook[id] */\n      dup2\n      mstore\n      0x20\n      add\n      swap1\n      dup2\n      mstore\n      0x20\n      add\n      0x00\n      keccak256\n        /* \"contracts/OrderBook.sol\":8914:8931  askBook[id].state */\n      0x03\n      add\n      0x00\n      swap1\n      sload\n      swap1\n      0x0100\n      exp\n      swap1\n      div\n      0xff\n      and\n        /* \"contracts/OrderBook.sol\":8907:8931  return askBook[id].state */\n      swap1\n      pop\n        /* \"contracts/OrderBook.sol\":8836:8938  function getAskState (uint256 id) public view returns(State) {... */\n      swap2\n      swap1\n      pop\n      jump\t// out\n        /* \"contracts/OrderBook.sol\":8262:8379  function getBidAddress (uint256 id) public view returns(address payable) {... */\n    tag_67:\n        /* \"contracts/OrderBook.sol\":8318:8333  address payable */\n      0x00\n        /* \"contracts/OrderBook.sol\":8352:8359  bidBook */\n      0x03\n        /* \"contracts/OrderBook.sol\":8352:8363  bidBook[id] */\n      0x00\n        /* \"contracts/OrderBook.sol\":8360:8362  id */\n      dup4\n        /* \"contracts/OrderBook.sol\":8352:8363  bidBook[id] */\n      dup2\n      mstore\n      0x20\n      add\n      swap1\n      dup2\n      mstore\n      0x20\n      add\n      0x00\n      keccak256\n        /* \"contracts/OrderBook.sol\":8352:8372  bidBook[id].customer */\n      0x00\n      add\n      0x00\n      swap1\n      sload\n      swap1\n      0x0100\n      exp\n      swap1\n      div\n      0xffffffffffffffffffffffffffffffffffffffff\n      and\n        /* \"contracts/OrderBook.sol\":8345:8372  return bidBook[id].customer */\n      swap1\n      pop\n        /* \"contracts/OrderBook.sol\":8262:8379  function getBidAddress (uint256 id) public view returns(address payable) {... */\n      swap2\n      swap1\n      pop\n      jump\t// out\n        /* \"contracts/OrderBook.sol\":1797:1819  uint256 public bidHead */\n    tag_72:\n      sload(0x04)\n      dup2\n      jump\t// out\n        /* \"contracts/OrderBook.sol\":8385:8502  function getAskAddress (uint256 id) public view returns(address payable) {... */\n    tag_77:\n        /* \"contracts/OrderBook.sol\":8441:8456  address payable */\n      0x00\n        /* \"contracts/OrderBook.sol\":8475:8482  askBook */\n      0x06\n        /* \"contracts/OrderBook.sol\":8475:8486  askBook[id] */\n      0x00\n        /* \"contracts/OrderBook.sol\":8483:8485  id */\n      dup4\n        /* \"contracts/OrderBook.sol\":8475:8486  askBook[id] */\n      dup2\n      mstore\n      0x20\n      add\n      swap1\n      dup2\n      mstore\n      0x20\n      add\n      0x00\n      keccak256\n        /* \"contracts/OrderBook.sol\":8475:8495  askBook[id].customer */\n      0x00\n      add\n      0x00\n      swap1\n      sload\n      swap1\n      0x0100\n      exp\n      swap1\n      div\n      0xffffffffffffffffffffffffffffffffffffffff\n      and\n        /* \"contracts/OrderBook.sol\":8468:8495  return askBook[id].customer */\n      swap1\n      pop\n        /* \"contracts/OrderBook.sol\":8385:8502  function getAskAddress (uint256 id) public view returns(address payable) {... */\n      swap2\n      swap1\n      pop\n      jump\t// out\n        /* \"contracts/OrderBook.sol\":6500:6904  function placeAsk (uint256 price) public payable {... */\n    tag_81:\n        /* \"contracts/OrderBook.sol\":6576:6577  0 */\n      0x00\n        /* \"contracts/OrderBook.sol\":6567:6572  price */\n      dup2\n        /* \"contracts/OrderBook.sol\":6567:6577  price >= 0 */\n      lt\n      iszero\n        /* \"contracts/OrderBook.sol\":6559:6613  require(price >= 0, \"price value must be more than 0\") */\n      tag_161\n      jumpi\n      mload(0x40)\n      0x08c379a000000000000000000000000000000000000000000000000000000000\n      dup2\n      mstore\n      0x04\n      add\n      tag_162\n      swap1\n      tag_163\n      jump\t// in\n    tag_162:\n      mload(0x40)\n      dup1\n      swap2\n      sub\n      swap1\n      revert\n    tag_161:\n        /* \"contracts/OrderBook.sol\":6644:6649  price */\n      dup1\n        /* \"contracts/OrderBook.sol\":6631:6640  msg.value */\n      callvalue\n        /* \"contracts/OrderBook.sol\":6631:6649  msg.value >= price */\n      lt\n      iszero\n        /* \"contracts/OrderBook.sol\":6623:6684  require(msg.value >= price, \"Not enough blance to place ask\") */\n      tag_164\n      jumpi\n      mload(0x40)\n      0x08c379a000000000000000000000000000000000000000000000000000000000\n      dup2\n      mstore\n      0x04\n      add\n      tag_165\n      swap1\n      tag_166\n      jump\t// in\n    tag_165:\n      mload(0x40)\n      dup1\n      swap2\n      sub\n      swap1\n      revert\n    tag_164:\n        /* \"contracts/OrderBook.sol\":6694:6706  uint256 time */\n      0x00\n        /* \"contracts/OrderBook.sol\":6709:6724  block.timestamp */\n      timestamp\n        /* \"contracts/OrderBook.sol\":6694:6724  uint256 time = block.timestamp */\n      swap1\n      pop\n        /* \"contracts/OrderBook.sol\":6734:6759  uint256 commissionedPrice */\n      0x00\n        /* \"contracts/OrderBook.sol\":6793:6796  100 */\n      0x64\n        /* \"contracts/OrderBook.sol\":6779:6789  commission */\n      sload(0x02)\n        /* \"contracts/OrderBook.sol\":6775:6778  100 */\n      0x64\n        /* \"contracts/OrderBook.sol\":6775:6789  100-commission */\n      tag_167\n      swap2\n      swap1\n      tag_168\n      jump\t// in\n    tag_167:\n        /* \"contracts/OrderBook.sol\":6762:6771  msg.value */\n      callvalue\n        /* \"contracts/OrderBook.sol\":6762:6790  msg.value * (100-commission) */\n      tag_169\n      swap2\n      swap1\n      tag_170\n      jump\t// in\n    tag_169:\n        /* \"contracts/OrderBook.sol\":6762:6796  msg.value * (100-commission) / 100 */\n      tag_171\n      swap2\n      swap1\n      tag_172\n      jump\t// in\n    tag_171:\n        /* \"contracts/OrderBook.sol\":6734:6796  uint256 commissionedPrice = msg.value * (100-commission) / 100 */\n      swap1\n      pop\n        /* \"contracts/OrderBook.sol\":6806:6825  order memory newAsk */\n      0x00\n        /* \"contracts/OrderBook.sol\":6828:6872  createAsk(msg.sender,time,commissionedPrice) */\n      tag_173\n        /* \"contracts/OrderBook.sol\":6838:6848  msg.sender */\n      caller\n        /* \"contracts/OrderBook.sol\":6849:6853  time */\n      dup5\n        /* \"contracts/OrderBook.sol\":6854:6871  commissionedPrice */\n      dup5\n        /* \"contracts/OrderBook.sol\":6828:6837  createAsk */\n      tag_174\n        /* \"contracts/OrderBook.sol\":6828:6872  createAsk(msg.sender,time,commissionedPrice) */\n      jump\t// in\n    tag_173:\n        /* \"contracts/OrderBook.sol\":6806:6872  order memory newAsk = createAsk(msg.sender,time,commissionedPrice) */\n      swap1\n      pop\n        /* \"contracts/OrderBook.sol\":6882:6897  sortAsk(newAsk) */\n      tag_175\n        /* \"contracts/OrderBook.sol\":6890:6896  newAsk */\n      dup2\n        /* \"contracts/OrderBook.sol\":6882:6889  sortAsk */\n      tag_176\n        /* \"contracts/OrderBook.sol\":6882:6897  sortAsk(newAsk) */\n      jump\t// in\n    tag_175:\n        /* \"contracts/OrderBook.sol\":6549:6904  {... */\n      pop\n      pop\n      pop\n        /* \"contracts/OrderBook.sol\":6500:6904  function placeAsk (uint256 price) public payable {... */\n      pop\n      jump\t// out\n        /* \"contracts/OrderBook.sol\":1942:1964  uint256 public askHead */\n    tag_84:\n      sload(0x07)\n      dup2\n      jump\t// out\n        /* \"contracts/OrderBook.sol\":6237:6494  function cancelBid (uint256 bidId) public isPending(bidBook[bidId]) isAuthorised(bidBook[bidId], msg.sender) {... */\n    tag_89:\n        /* \"contracts/OrderBook.sol\":6289:6296  bidBook */\n      0x03\n        /* \"contracts/OrderBook.sol\":6289:6303  bidBook[bidId] */\n      0x00\n        /* \"contracts/OrderBook.sol\":6297:6302  bidId */\n      dup3\n        /* \"contracts/OrderBook.sol\":6289:6303  bidBook[bidId] */\n      dup2\n      mstore\n      0x20\n      add\n      swap1\n      dup2\n      mstore\n      0x20\n      add\n      0x00\n      keccak256\n        /* \"contracts/OrderBook.sol\":2467:2590  modifier isPending(order memory _order) {... */\n      mload(0x40)\n      dup1\n      0xe0\n      add\n      0x40\n      mstore\n      swap1\n      dup2\n      0x00\n      dup3\n      add\n      0x00\n      swap1\n      sload\n      swap1\n      0x0100\n      exp\n      swap1\n      div\n      0xffffffffffffffffffffffffffffffffffffffff\n      and\n      0xffffffffffffffffffffffffffffffffffffffff\n      and\n      0xffffffffffffffffffffffffffffffffffffffff\n      and\n      dup2\n      mstore\n      0x20\n      add\n      0x01\n      dup3\n      add\n      sload\n      dup2\n      mstore\n      0x20\n      add\n      0x02\n      dup3\n      add\n      sload\n      dup2\n      mstore\n      0x20\n      add\n      0x03\n      dup3\n      add\n      0x00\n      swap1\n      sload\n      swap1\n      0x0100\n      exp\n      swap1\n      div\n      0xff\n      and\n      0x01\n      dup2\n      gt\n      iszero\n      tag_177\n      jumpi\n      tag_178\n      tag_131\n      jump\t// in\n    tag_178:\n    tag_177:\n      0x01\n      dup2\n      gt\n      iszero\n      tag_179\n      jumpi\n      tag_180\n      tag_131\n      jump\t// in\n    tag_180:\n    tag_179:\n      dup2\n      mstore\n      0x20\n      add\n      0x04\n      dup3\n      add\n      sload\n      dup2\n      mstore\n      0x20\n      add\n      0x05\n      dup3\n      add\n      sload\n      dup2\n      mstore\n      0x20\n      add\n      0x06\n      dup3\n      add\n      sload\n      dup2\n      mstore\n      pop\n      pop\n        /* \"contracts/OrderBook.sol\":2541:2554  State.pending */\n      0x00\n        /* \"contracts/OrderBook.sol\":2525:2554  _order.state == State.pending */\n      0x01\n      dup2\n      gt\n      iszero\n      tag_182\n      jumpi\n      tag_183\n      tag_131\n      jump\t// in\n    tag_183:\n    tag_182:\n        /* \"contracts/OrderBook.sol\":2525:2531  _order */\n      dup2\n        /* \"contracts/OrderBook.sol\":2525:2537  _order.state */\n      0x60\n      add\n      mload\n        /* \"contracts/OrderBook.sol\":2525:2554  _order.state == State.pending */\n      0x01\n      dup2\n      gt\n      iszero\n      tag_184\n      jumpi\n      tag_185\n      tag_131\n      jump\t// in\n    tag_185:\n    tag_184:\n      eq\n        /* \"contracts/OrderBook.sol\":2517:2572  require(_order.state == State.pending, \"Order Pending\") */\n      tag_186\n      jumpi\n      mload(0x40)\n      0x08c379a000000000000000000000000000000000000000000000000000000000\n      dup2\n      mstore\n      0x04\n      add\n      tag_187\n      swap1\n      tag_141\n      jump\t// in\n    tag_187:\n      mload(0x40)\n      dup1\n      swap2\n      sub\n      swap1\n      revert\n    tag_186:\n        /* \"contracts/OrderBook.sol\":6318:6325  bidBook */\n      0x03\n        /* \"contracts/OrderBook.sol\":6318:6332  bidBook[bidId] */\n      0x00\n        /* \"contracts/OrderBook.sol\":6326:6331  bidId */\n      dup4\n        /* \"contracts/OrderBook.sol\":6318:6332  bidBook[bidId] */\n      dup2\n      mstore\n      0x20\n      add\n      swap1\n      dup2\n      mstore\n      0x20\n      add\n      0x00\n      keccak256\n        /* \"contracts/OrderBook.sol\":2596:2735  modifier isAuthorised(order memory _order, address sender) {... */\n      mload(0x40)\n      dup1\n      0xe0\n      add\n      0x40\n      mstore\n      swap1\n      dup2\n      0x00\n      dup3\n      add\n      0x00\n      swap1\n      sload\n      swap1\n      0x0100\n      exp\n      swap1\n      div\n      0xffffffffffffffffffffffffffffffffffffffff\n      and\n      0xffffffffffffffffffffffffffffffffffffffff\n      and\n      0xffffffffffffffffffffffffffffffffffffffff\n      and\n      dup2\n      mstore\n      0x20\n      add\n      0x01\n      dup3\n      add\n      sload\n      dup2\n      mstore\n      0x20\n      add\n      0x02\n      dup3\n      add\n      sload\n      dup2\n      mstore\n      0x20\n      add\n      0x03\n      dup3\n      add\n      0x00\n      swap1\n      sload\n      swap1\n      0x0100\n      exp\n      swap1\n      div\n      0xff\n      and\n      0x01\n      dup2\n      gt\n      iszero\n      tag_188\n      jumpi\n      tag_189\n      tag_131\n      jump\t// in\n    tag_189:\n    tag_188:\n      0x01\n      dup2\n      gt\n      iszero\n      tag_190\n      jumpi\n      tag_191\n      tag_131\n      jump\t// in\n    tag_191:\n    tag_190:\n      dup2\n      mstore\n      0x20\n      add\n      0x04\n      dup3\n      add\n      sload\n      dup2\n      mstore\n      0x20\n      add\n      0x05\n      dup3\n      add\n      sload\n      dup2\n      mstore\n      0x20\n      add\n      0x06\n      dup3\n      add\n      sload\n      dup2\n      mstore\n      pop\n      pop\n        /* \"contracts/OrderBook.sol\":6334:6344  msg.sender */\n      caller\n        /* \"contracts/OrderBook.sol\":2692:2698  sender */\n      dup1\n        /* \"contracts/OrderBook.sol\":2673:2698  _order.customer == sender */\n      0xffffffffffffffffffffffffffffffffffffffff\n      and\n        /* \"contracts/OrderBook.sol\":2673:2679  _order */\n      dup3\n        /* \"contracts/OrderBook.sol\":2673:2688  _order.customer */\n      0x00\n      add\n      mload\n        /* \"contracts/OrderBook.sol\":2673:2698  _order.customer == sender */\n      0xffffffffffffffffffffffffffffffffffffffff\n      and\n      eq\n        /* \"contracts/OrderBook.sol\":2665:2717  require(_order.customer == sender, \"Not Authorised\") */\n      tag_193\n      jumpi\n      mload(0x40)\n      0x08c379a000000000000000000000000000000000000000000000000000000000\n      dup2\n      mstore\n      0x04\n      add\n      tag_194\n      swap1\n      tag_149\n      jump\t// in\n    tag_194:\n      mload(0x40)\n      dup1\n      swap2\n      sub\n      swap1\n      revert\n    tag_193:\n        /* \"contracts/OrderBook.sol\":2582:2583  _ */\n      pop\n      pop\n        /* \"contracts/OrderBook.sol\":6237:6494  function cancelBid (uint256 bidId) public isPending(bidBook[bidId]) isAuthorised(bidBook[bidId], msg.sender) {... */\n      pop\n      pop\n      jump\t// out\n        /* \"contracts/OrderBook.sol\":5662:6231  function placeBid (uint256 price) public payable {... */\n    tag_92:\n        /* \"contracts/OrderBook.sol\":5738:5739  0 */\n      0x00\n        /* \"contracts/OrderBook.sol\":5729:5734  price */\n      dup2\n        /* \"contracts/OrderBook.sol\":5729:5739  price >= 0 */\n      lt\n      iszero\n        /* \"contracts/OrderBook.sol\":5721:5775  require(price >= 0, \"price value must be more than 0\") */\n      tag_197\n      jumpi\n      mload(0x40)\n      0x08c379a000000000000000000000000000000000000000000000000000000000\n      dup2\n      mstore\n      0x04\n      add\n      tag_198\n      swap1\n      tag_163\n      jump\t// in\n    tag_198:\n      mload(0x40)\n      dup1\n      swap2\n      sub\n      swap1\n      revert\n    tag_197:\n        /* \"contracts/OrderBook.sol\":5806:5811  price */\n      dup1\n        /* \"contracts/OrderBook.sol\":5793:5802  msg.value */\n      callvalue\n        /* \"contracts/OrderBook.sol\":5793:5811  msg.value >= price */\n      lt\n      iszero\n        /* \"contracts/OrderBook.sol\":5785:5846  require(msg.value >= price, \"Not enough blance to place bid\") */\n      tag_199\n      jumpi\n      mload(0x40)\n      0x08c379a000000000000000000000000000000000000000000000000000000000\n      dup2\n      mstore\n      0x04\n      add\n      tag_200\n      swap1\n      tag_201\n      jump\t// in\n    tag_200:\n      mload(0x40)\n      dup1\n      swap2\n      sub\n      swap1\n      revert\n    tag_199:\n        /* \"contracts/OrderBook.sol\":5662:6231  function placeBid (uint256 price) public payable {... */\n      pop\n      jump\t// out\n        /* \"contracts/OrderBook.sol\":1970:1993  uint256 public askCount */\n    tag_95:\n      sload(0x08)\n      dup2\n      jump\t// out\n        /* \"contracts/OrderBook.sol\":1825:1848  uint256 public bidCount */\n    tag_99:\n      sload(0x05)\n      dup2\n      jump\t// out\n        /* \"contracts/OrderBook.sol\":8728:8830  function getBidState (uint256 id) public view returns(State) {... */\n    tag_104:\n        /* \"contracts/OrderBook.sol\":8782:8787  State */\n      0x00\n        /* \"contracts/OrderBook.sol\":8806:8813  bidBook */\n      0x03\n        /* \"contracts/OrderBook.sol\":8806:8817  bidBook[id] */\n      0x00\n        /* \"contracts/OrderBook.sol\":8814:8816  id */\n      dup4\n        /* \"contracts/OrderBook.sol\":8806:8817  bidBook[id] */\n      dup2\n      mstore\n      0x20\n      add\n      swap1\n      dup2\n      mstore\n      0x20\n      add\n      0x00\n      keccak256\n        /* \"contracts/OrderBook.sol\":8806:8823  bidBook[id].state */\n      0x03\n      add\n      0x00\n      swap1\n      sload\n      swap1\n      0x0100\n      exp\n      swap1\n      div\n      0xff\n      and\n        /* \"contracts/OrderBook.sol\":8799:8823  return bidBook[id].state */\n      swap1\n      pop\n        /* \"contracts/OrderBook.sol\":8728:8830  function getBidState (uint256 id) public view returns(State) {... */\n      swap2\n      swap1\n      pop\n      jump\t// out\n        /* \"contracts/OrderBook.sol\":7784:7852  function fetchYourBidIds() public returns (uint256[] memory) {... */\n    tag_108:\n        /* \"contracts/OrderBook.sol\":7827:7843  uint256[] memory */\n      0x60\n        /* \"contracts/OrderBook.sol\":7784:7852  function fetchYourBidIds() public returns (uint256[] memory) {... */\n      swap1\n      jump\t// out\n        /* \"contracts/OrderBook.sol\":7932:8256  function getOrder(uint256 id) public view returns(address payable,uint256,uint256,State,uint256,uint256,uint256,bool) {... */\n    tag_113:\n        /* \"contracts/OrderBook.sol\":7982:7997  address payable */\n      0x00\n        /* \"contracts/OrderBook.sol\":7998:8005  uint256 */\n      dup1\n        /* \"contracts/OrderBook.sol\":8006:8013  uint256 */\n      0x00\n        /* \"contracts/OrderBook.sol\":8014:8019  State */\n      dup1\n        /* \"contracts/OrderBook.sol\":8020:8027  uint256 */\n      0x00\n        /* \"contracts/OrderBook.sol\":8028:8035  uint256 */\n      dup1\n        /* \"contracts/OrderBook.sol\":8036:8043  uint256 */\n      0x00\n        /* \"contracts/OrderBook.sol\":8044:8048  bool */\n      dup1\n        /* \"contracts/OrderBook.sol\":7932:8256  function getOrder(uint256 id) public view returns(address payable,uint256,uint256,State,uint256,uint256,uint256,bool) {... */\n      swap2\n      swap4\n      swap6\n      swap8\n      pop\n      swap2\n      swap4\n      swap6\n      swap8\n      jump\t// out\n        /* \"contracts/OrderBook.sol\":8618:8722  function getAskValue (uint256 id) public view returns(uint256) {... */\n    tag_119:\n        /* \"contracts/OrderBook.sol\":8672:8679  uint256 */\n      0x00\n        /* \"contracts/OrderBook.sol\":8698:8705  askBook */\n      0x06\n        /* \"contracts/OrderBook.sol\":8698:8709  askBook[id] */\n      0x00\n        /* \"contracts/OrderBook.sol\":8706:8708  id */\n      dup4\n        /* \"contracts/OrderBook.sol\":8698:8709  askBook[id] */\n      dup2\n      mstore\n      0x20\n      add\n      swap1\n      dup2\n      mstore\n      0x20\n      add\n      0x00\n      keccak256\n        /* \"contracts/OrderBook.sol\":8698:8715  askBook[id].value */\n      0x01\n      add\n      sload\n        /* \"contracts/OrderBook.sol\":8691:8715  return askBook[id].value */\n      swap1\n      pop\n        /* \"contracts/OrderBook.sol\":8618:8722  function getAskValue (uint256 id) public view returns(uint256) {... */\n      swap2\n      swap1\n      pop\n      jump\t// out\n        /* \"contracts/OrderBook.sol\":7576:7709  function testString() public  pure returns (string memory) {... */\n    tag_123:\n        /* \"contracts/OrderBook.sol\":7620:7633  string memory */\n      0x60\n        /* \"contracts/OrderBook.sol\":7645:7666  string memory testing */\n      0x00\n        /* \"contracts/OrderBook.sol\":7645:7678  string memory testing = \"testing\" */\n      mload(0x40)\n      dup1\n      0x40\n      add\n      0x40\n      mstore\n      dup1\n      0x07\n      dup2\n      mstore\n      0x20\n      add\n      0x74657374696e6700000000000000000000000000000000000000000000000000\n      dup2\n      mstore\n      pop\n      swap1\n      pop\n        /* \"contracts/OrderBook.sol\":7695:7702  testing */\n      dup1\n        /* \"contracts/OrderBook.sol\":7688:7702  return testing */\n      swap2\n      pop\n      pop\n        /* \"contracts/OrderBook.sol\":7576:7709  function testString() public  pure returns (string memory) {... */\n      swap1\n      jump\t// out\n        /* \"contracts/OrderBook.sol\":3252:3730  function createAsk(address customer, uint256 value, uint256 timestamp) internal returns (order memory) {... */\n    tag_174:\n        /* \"contracts/OrderBook.sol\":3341:3353  order memory */\n      tag_207\n      tag_208\n      jump\t// in\n    tag_207:\n        /* \"contracts/OrderBook.sol\":3365:3373  askCount */\n      0x08\n      0x00\n        /* \"contracts/OrderBook.sol\":3365:3376  askCount ++ */\n      dup2\n      sload\n      dup1\n      swap3\n      swap2\n      swap1\n      tag_210\n      swap1\n      tag_211\n      jump\t// in\n    tag_210:\n      swap2\n      swap1\n      pop\n      sstore\n      pop\n        /* \"contracts/OrderBook.sol\":3386:3405  order memory newAsk */\n      0x00\n        /* \"contracts/OrderBook.sol\":3408:3575  order(... */\n      mload(0x40)\n      dup1\n      0xe0\n      add\n      0x40\n      mstore\n      dup1\n        /* \"contracts/OrderBook.sol\":3435:3443  customer */\n      dup7\n        /* \"contracts/OrderBook.sol\":3408:3575  order(... */\n      0xffffffffffffffffffffffffffffffffffffffff\n      and\n      dup2\n      mstore\n      0x20\n      add\n        /* \"contracts/OrderBook.sol\":3458:3463  value */\n      dup6\n        /* \"contracts/OrderBook.sol\":3408:3575  order(... */\n      dup2\n      mstore\n      0x20\n      add\n        /* \"contracts/OrderBook.sol\":3477:3486  timestamp */\n      dup5\n        /* \"contracts/OrderBook.sol\":3408:3575  order(... */\n      dup2\n      mstore\n      0x20\n      add\n        /* \"contracts/OrderBook.sol\":3500:3513  State.pending */\n      0x00\n        /* \"contracts/OrderBook.sol\":3408:3575  order(... */\n      0x01\n      dup2\n      gt\n      iszero\n      tag_212\n      jumpi\n      tag_213\n      tag_131\n      jump\t// in\n    tag_213:\n    tag_212:\n      dup2\n      mstore\n      0x20\n      add\n        /* \"contracts/OrderBook.sol\":3527:3535  askCount */\n      sload(0x08)\n        /* \"contracts/OrderBook.sol\":3408:3575  order(... */\n      dup2\n      mstore\n      0x20\n      add\n        /* \"contracts/OrderBook.sol\":3549:3550  0 */\n      0x00\n        /* \"contracts/OrderBook.sol\":3408:3575  order(... */\n      dup2\n      mstore\n      0x20\n      add\n        /* \"contracts/OrderBook.sol\":3564:3565  0 */\n      0x00\n        /* \"contracts/OrderBook.sol\":3408:3575  order(... */\n      dup2\n      mstore\n      pop\n        /* \"contracts/OrderBook.sol\":3386:3575  order memory newAsk = order(... */\n      swap1\n      pop\n        /* \"contracts/OrderBook.sol\":3605:3611  newAsk */\n      dup1\n        /* \"contracts/OrderBook.sol\":3585:3592  askBook */\n      0x06\n        /* \"contracts/OrderBook.sol\":3585:3602  askBook[askCount] */\n      0x00\n        /* \"contracts/OrderBook.sol\":3593:3601  askCount */\n      sload(0x08)\n        /* \"contracts/OrderBook.sol\":3585:3602  askBook[askCount] */\n      dup2\n      mstore\n      0x20\n      add\n      swap1\n      dup2\n      mstore\n      0x20\n      add\n      0x00\n      keccak256\n        /* \"contracts/OrderBook.sol\":3585:3611  askBook[askCount] = newAsk */\n      0x00\n      dup3\n      add\n      mload\n      dup2\n      0x00\n      add\n      exp(0x0100, 0x00)\n      dup2\n      sload\n      dup2\n      0xffffffffffffffffffffffffffffffffffffffff\n      mul\n      not\n      and\n      swap1\n      dup4\n      0xffffffffffffffffffffffffffffffffffffffff\n      and\n      mul\n      or\n      swap1\n      sstore\n      pop\n      0x20\n      dup3\n      add\n      mload\n      dup2\n      0x01\n      add\n      sstore\n      0x40\n      dup3\n      add\n      mload\n      dup2\n      0x02\n      add\n      sstore\n      0x60\n      dup3\n      add\n      mload\n      dup2\n      0x03\n      add\n      exp(0x0100, 0x00)\n      dup2\n      sload\n      dup2\n      0xff\n      mul\n      not\n      and\n      swap1\n      dup4\n      0x01\n      dup2\n      gt\n      iszero\n      tag_214\n      jumpi\n      tag_215\n      tag_131\n      jump\t// in\n    tag_215:\n    tag_214:\n      mul\n      or\n      swap1\n      sstore\n      pop\n      0x80\n      dup3\n      add\n      mload\n      dup2\n      0x04\n      add\n      sstore\n      0xa0\n      dup3\n      add\n      mload\n      dup2\n      0x05\n      add\n      sstore\n      0xc0\n      dup3\n      add\n      mload\n      dup2\n      0x06\n      add\n      sstore\n      swap1\n      pop\n      pop\n        /* \"contracts/OrderBook.sol\":3626:3697  orderCreated(customer,value,timestamp,State.pending,askCount,0,0,false) */\n      0x93caf6ba1af44020dfe6076e279533e38bd8deefe534c43aa8cc93aad2025b7d\n        /* \"contracts/OrderBook.sol\":3639:3647  customer */\n      dup6\n        /* \"contracts/OrderBook.sol\":3648:3653  value */\n      dup6\n        /* \"contracts/OrderBook.sol\":3654:3663  timestamp */\n      dup6\n        /* \"contracts/OrderBook.sol\":3664:3677  State.pending */\n      0x00\n        /* \"contracts/OrderBook.sol\":3678:3686  askCount */\n      sload(0x08)\n        /* \"contracts/OrderBook.sol\":3687:3688  0 */\n      0x00\n        /* \"contracts/OrderBook.sol\":3689:3690  0 */\n      dup1\n        /* \"contracts/OrderBook.sol\":3691:3696  false */\n      0x00\n        /* \"contracts/OrderBook.sol\":3626:3697  orderCreated(customer,value,timestamp,State.pending,askCount,0,0,false) */\n      mload(0x40)\n      tag_216\n      swap9\n      swap8\n      swap7\n      swap6\n      swap5\n      swap4\n      swap3\n      swap2\n      swap1\n      tag_217\n      jump\t// in\n    tag_216:\n      mload(0x40)\n      dup1\n      swap2\n      sub\n      swap1\n      log1\n        /* \"contracts/OrderBook.sol\":3717:3723  newAsk */\n      dup1\n        /* \"contracts/OrderBook.sol\":3710:3723  return newAsk */\n      swap2\n      pop\n      pop\n        /* \"contracts/OrderBook.sol\":3252:3730  function createAsk(address customer, uint256 value, uint256 timestamp) internal returns (order memory) {... */\n      swap4\n      swap3\n      pop\n      pop\n      pop\n      jump\t// out\n        /* \"contracts/OrderBook.sol\":4333:5166  function sortAsk(order memory newOrder) internal {... */\n    tag_176:\n        /* \"contracts/OrderBook.sol\":4392:4407  uint256 current */\n      0x00\n        /* \"contracts/OrderBook.sol\":4432:4433  0 */\n      dup1\n        /* \"contracts/OrderBook.sol\":4421:4428  askHead */\n      sload(0x07)\n        /* \"contracts/OrderBook.sol\":4421:4433  askHead == 0 */\n      sub\n        /* \"contracts/OrderBook.sol\":4417:5160  if (askHead == 0) {... */\n      tag_219\n      jumpi\n        /* \"contracts/OrderBook.sol\":4459:4467  newOrder */\n      dup2\n        /* \"contracts/OrderBook.sol\":4459:4470  newOrder.id */\n      0x80\n      add\n      mload\n        /* \"contracts/OrderBook.sol\":4449:4456  askHead */\n      0x07\n        /* \"contracts/OrderBook.sol\":4449:4470  askHead = newOrder.id */\n      dup2\n      swap1\n      sstore\n      pop\n        /* \"contracts/OrderBook.sol\":4417:5160  if (askHead == 0) {... */\n      jump(tag_220)\n    tag_219:\n        /* \"contracts/OrderBook.sol\":4525:4533  newOrder */\n      dup2\n        /* \"contracts/OrderBook.sol\":4525:4539  newOrder.value */\n      0x20\n      add\n      mload\n        /* \"contracts/OrderBook.sol\":4499:4506  askBook */\n      0x06\n        /* \"contracts/OrderBook.sol\":4499:4515  askBook[askHead] */\n      0x00\n        /* \"contracts/OrderBook.sol\":4507:4514  askHead */\n      sload(0x07)\n        /* \"contracts/OrderBook.sol\":4499:4515  askBook[askHead] */\n      dup2\n      mstore\n      0x20\n      add\n      swap1\n      dup2\n      mstore\n      0x20\n      add\n      0x00\n      keccak256\n        /* \"contracts/OrderBook.sol\":4499:4521  askBook[askHead].value */\n      0x01\n      add\n      sload\n        /* \"contracts/OrderBook.sol\":4499:4539  askBook[askHead].value >= newOrder.value */\n      lt\n        /* \"contracts/OrderBook.sol\":4495:5160  if (askBook[askHead].value >= newOrder.value) {... */\n      tag_221\n      jumpi\n        /* \"contracts/OrderBook.sol\":4571:4578  askHead */\n      sload(0x07)\n        /* \"contracts/OrderBook.sol\":4555:4563  newOrder */\n      dup3\n        /* \"contracts/OrderBook.sol\":4555:4568  newOrder.next */\n      0xa0\n      add\n        /* \"contracts/OrderBook.sol\":4555:4578  newOrder.next = askHead */\n      dup2\n      dup2\n      mstore\n      pop\n      pop\n        /* \"contracts/OrderBook.sol\":4622:4630  newOrder */\n      dup2\n        /* \"contracts/OrderBook.sol\":4622:4633  newOrder.id */\n      0x80\n      add\n      mload\n        /* \"contracts/OrderBook.sol\":4592:4599  askBook */\n      0x06\n        /* \"contracts/OrderBook.sol\":4592:4614  askBook[newOrder.next] */\n      0x00\n        /* \"contracts/OrderBook.sol\":4600:4608  newOrder */\n      dup5\n        /* \"contracts/OrderBook.sol\":4600:4613  newOrder.next */\n      0xa0\n      add\n      mload\n        /* \"contracts/OrderBook.sol\":4592:4614  askBook[newOrder.next] */\n      dup2\n      mstore\n      0x20\n      add\n      swap1\n      dup2\n      mstore\n      0x20\n      add\n      0x00\n      keccak256\n        /* \"contracts/OrderBook.sol\":4592:4619  askBook[newOrder.next].prev */\n      0x06\n      add\n        /* \"contracts/OrderBook.sol\":4592:4633  askBook[newOrder.next].prev = newOrder.id */\n      dup2\n      swap1\n      sstore\n      pop\n        /* \"contracts/OrderBook.sol\":4657:4665  newOrder */\n      dup2\n        /* \"contracts/OrderBook.sol\":4657:4668  newOrder.id */\n      0x80\n      add\n      mload\n        /* \"contracts/OrderBook.sol\":4647:4654  askHead */\n      0x07\n        /* \"contracts/OrderBook.sol\":4647:4668  askHead = newOrder.id */\n      dup2\n      swap1\n      sstore\n      pop\n        /* \"contracts/OrderBook.sol\":4495:5160  if (askBook[askHead].value >= newOrder.value) {... */\n      jump(tag_222)\n    tag_221:\n        /* \"contracts/OrderBook.sol\":4717:4724  askHead */\n      sload(0x07)\n        /* \"contracts/OrderBook.sol\":4707:4724  current = askHead */\n      swap1\n      pop\n        /* \"contracts/OrderBook.sol\":4738:4894  while (askBook[current].next != 0 && askBook[askBook[current].next].value < newOrder.value) {... */\n    tag_223:\n        /* \"contracts/OrderBook.sol\":4770:4771  0 */\n      0x00\n        /* \"contracts/OrderBook.sol\":4745:4752  askBook */\n      0x06\n        /* \"contracts/OrderBook.sol\":4745:4761  askBook[current] */\n      0x00\n        /* \"contracts/OrderBook.sol\":4753:4760  current */\n      dup4\n        /* \"contracts/OrderBook.sol\":4745:4761  askBook[current] */\n      dup2\n      mstore\n      0x20\n      add\n      swap1\n      dup2\n      mstore\n      0x20\n      add\n      0x00\n      keccak256\n        /* \"contracts/OrderBook.sol\":4745:4766  askBook[current].next */\n      0x05\n      add\n      sload\n        /* \"contracts/OrderBook.sol\":4745:4771  askBook[current].next != 0 */\n      eq\n      iszero\n        /* \"contracts/OrderBook.sol\":4745:4828  askBook[current].next != 0 && askBook[askBook[current].next].value < newOrder.value */\n      dup1\n      iszero\n      tag_225\n      jumpi\n      pop\n        /* \"contracts/OrderBook.sol\":4814:4822  newOrder */\n      dup2\n        /* \"contracts/OrderBook.sol\":4814:4828  newOrder.value */\n      0x20\n      add\n      mload\n        /* \"contracts/OrderBook.sol\":4775:4782  askBook */\n      0x06\n        /* \"contracts/OrderBook.sol\":4775:4805  askBook[askBook[current].next] */\n      0x00\n        /* \"contracts/OrderBook.sol\":4783:4790  askBook */\n      0x06\n        /* \"contracts/OrderBook.sol\":4783:4799  askBook[current] */\n      0x00\n        /* \"contracts/OrderBook.sol\":4791:4798  current */\n      dup6\n        /* \"contracts/OrderBook.sol\":4783:4799  askBook[current] */\n      dup2\n      mstore\n      0x20\n      add\n      swap1\n      dup2\n      mstore\n      0x20\n      add\n      0x00\n      keccak256\n        /* \"contracts/OrderBook.sol\":4783:4804  askBook[current].next */\n      0x05\n      add\n      sload\n        /* \"contracts/OrderBook.sol\":4775:4805  askBook[askBook[current].next] */\n      dup2\n      mstore\n      0x20\n      add\n      swap1\n      dup2\n      mstore\n      0x20\n      add\n      0x00\n      keccak256\n        /* \"contracts/OrderBook.sol\":4775:4811  askBook[askBook[current].next].value */\n      0x01\n      add\n      sload\n        /* \"contracts/OrderBook.sol\":4775:4828  askBook[askBook[current].next].value < newOrder.value */\n      lt\n        /* \"contracts/OrderBook.sol\":4745:4828  askBook[current].next != 0 && askBook[askBook[current].next].value < newOrder.value */\n    tag_225:\n        /* \"contracts/OrderBook.sol\":4738:4894  while (askBook[current].next != 0 && askBook[askBook[current].next].value < newOrder.value) {... */\n      iszero\n      tag_224\n      jumpi\n        /* \"contracts/OrderBook.sol\":4858:4865  askBook */\n      0x06\n        /* \"contracts/OrderBook.sol\":4858:4874  askBook[current] */\n      0x00\n        /* \"contracts/OrderBook.sol\":4866:4873  current */\n      dup3\n        /* \"contracts/OrderBook.sol\":4858:4874  askBook[current] */\n      dup2\n      mstore\n      0x20\n      add\n      swap1\n      dup2\n      mstore\n      0x20\n      add\n      0x00\n      keccak256\n        /* \"contracts/OrderBook.sol\":4858:4879  askBook[current].next */\n      0x05\n      add\n      sload\n        /* \"contracts/OrderBook.sol\":4848:4879  current = askBook[current].next */\n      swap1\n      pop\n        /* \"contracts/OrderBook.sol\":4738:4894  while (askBook[current].next != 0 && askBook[askBook[current].next].value < newOrder.value) {... */\n      jump(tag_223)\n    tag_224:\n        /* \"contracts/OrderBook.sol\":4923:4930  askBook */\n      0x06\n        /* \"contracts/OrderBook.sol\":4923:4939  askBook[current] */\n      0x00\n        /* \"contracts/OrderBook.sol\":4931:4938  current */\n      dup3\n        /* \"contracts/OrderBook.sol\":4923:4939  askBook[current] */\n      dup2\n      mstore\n      0x20\n      add\n      swap1\n      dup2\n      mstore\n      0x20\n      add\n      0x00\n      keccak256\n        /* \"contracts/OrderBook.sol\":4923:4944  askBook[current].next */\n      0x05\n      add\n      sload\n        /* \"contracts/OrderBook.sol\":4907:4915  newOrder */\n      dup3\n        /* \"contracts/OrderBook.sol\":4907:4920  newOrder.next */\n      0xa0\n      add\n        /* \"contracts/OrderBook.sol\":4907:4944  newOrder.next = askBook[current].next */\n      dup2\n      dup2\n      mstore\n      pop\n      pop\n        /* \"contracts/OrderBook.sol\":4987:4988  0 */\n      0x00\n        /* \"contracts/OrderBook.sol\":4962:4969  askBook */\n      0x06\n        /* \"contracts/OrderBook.sol\":4962:4978  askBook[current] */\n      0x00\n        /* \"contracts/OrderBook.sol\":4970:4977  current */\n      dup4\n        /* \"contracts/OrderBook.sol\":4962:4978  askBook[current] */\n      dup2\n      mstore\n      0x20\n      add\n      swap1\n      dup2\n      mstore\n      0x20\n      add\n      0x00\n      keccak256\n        /* \"contracts/OrderBook.sol\":4962:4983  askBook[current].next */\n      0x05\n      add\n      sload\n        /* \"contracts/OrderBook.sol\":4962:4988  askBook[current].next != 0 */\n      eq\n        /* \"contracts/OrderBook.sol\":4958:5064  if (askBook[current].next != 0) {... */\n      tag_226\n      jumpi\n        /* \"contracts/OrderBook.sol\":5038:5046  newOrder */\n      dup2\n        /* \"contracts/OrderBook.sol\":5038:5049  newOrder.id */\n      0x80\n      add\n      mload\n        /* \"contracts/OrderBook.sol\":5008:5015  askBook */\n      0x06\n        /* \"contracts/OrderBook.sol\":5008:5030  askBook[newOrder.next] */\n      0x00\n        /* \"contracts/OrderBook.sol\":5016:5024  newOrder */\n      dup5\n        /* \"contracts/OrderBook.sol\":5016:5029  newOrder.next */\n      0xa0\n      add\n      mload\n        /* \"contracts/OrderBook.sol\":5008:5030  askBook[newOrder.next] */\n      dup2\n      mstore\n      0x20\n      add\n      swap1\n      dup2\n      mstore\n      0x20\n      add\n      0x00\n      keccak256\n        /* \"contracts/OrderBook.sol\":5008:5035  askBook[newOrder.next].prev */\n      0x06\n      add\n        /* \"contracts/OrderBook.sol\":5008:5049  askBook[newOrder.next].prev = newOrder.id */\n      dup2\n      swap1\n      sstore\n      pop\n        /* \"contracts/OrderBook.sol\":4958:5064  if (askBook[current].next != 0) {... */\n    tag_226:\n        /* \"contracts/OrderBook.sol\":5101:5109  newOrder */\n      dup2\n        /* \"contracts/OrderBook.sol\":5101:5112  newOrder.id */\n      0x80\n      add\n      mload\n        /* \"contracts/OrderBook.sol\":5077:5084  askBook */\n      0x06\n        /* \"contracts/OrderBook.sol\":5077:5093  askBook[current] */\n      0x00\n        /* \"contracts/OrderBook.sol\":5085:5092  current */\n      dup4\n        /* \"contracts/OrderBook.sol\":5077:5093  askBook[current] */\n      dup2\n      mstore\n      0x20\n      add\n      swap1\n      dup2\n      mstore\n      0x20\n      add\n      0x00\n      keccak256\n        /* \"contracts/OrderBook.sol\":5077:5098  askBook[current].next */\n      0x05\n      add\n        /* \"contracts/OrderBook.sol\":5077:5112  askBook[current].next = newOrder.id */\n      dup2\n      swap1\n      sstore\n      pop\n        /* \"contracts/OrderBook.sol\":5142:5149  current */\n      dup1\n        /* \"contracts/OrderBook.sol\":5126:5134  newOrder */\n      dup3\n        /* \"contracts/OrderBook.sol\":5126:5139  newOrder.prev */\n      0xc0\n      add\n        /* \"contracts/OrderBook.sol\":5126:5149  newOrder.prev = current */\n      dup2\n      dup2\n      mstore\n      pop\n      pop\n        /* \"contracts/OrderBook.sol\":4495:5160  if (askBook[askHead].value >= newOrder.value) {... */\n    tag_222:\n        /* \"contracts/OrderBook.sol\":4417:5160  if (askHead == 0) {... */\n    tag_220:\n        /* \"contracts/OrderBook.sol\":4382:5166  {... */\n      pop\n        /* \"contracts/OrderBook.sol\":4333:5166  function sortAsk(order memory newOrder) internal {... */\n      pop\n      jump\t// out\n    tag_208:\n      mload(0x40)\n      dup1\n      0xe0\n      add\n      0x40\n      mstore\n      dup1\n      and(0xffffffffffffffffffffffffffffffffffffffff, 0x00)\n      dup2\n      mstore\n      0x20\n      add\n      0x00\n      dup2\n      mstore\n      0x20\n      add\n      0x00\n      dup2\n      mstore\n      0x20\n      add\n      0x00\n      0x01\n      dup2\n      gt\n      iszero\n      tag_227\n      jumpi\n      tag_228\n      tag_131\n      jump\t// in\n    tag_228:\n    tag_227:\n      dup2\n      mstore\n      0x20\n      add\n      0x00\n      dup2\n      mstore\n      0x20\n      add\n      0x00\n      dup2\n      mstore\n      0x20\n      add\n      0x00\n      dup2\n      mstore\n      pop\n      swap1\n      jump\t// out\n        /* \"#utility.yul\":7:82   */\n    tag_229:\n        /* \"#utility.yul\":40:46   */\n      0x00\n        /* \"#utility.yul\":73:75   */\n      0x40\n        /* \"#utility.yul\":67:76   */\n      mload\n        /* \"#utility.yul\":57:76   */\n      swap1\n      pop\n        /* \"#utility.yul\":7:82   */\n      swap1\n      jump\t// out\n        /* \"#utility.yul\":88:205   */\n    tag_230:\n        /* \"#utility.yul\":197:198   */\n      0x00\n        /* \"#utility.yul\":194:195   */\n      dup1\n        /* \"#utility.yul\":187:199   */\n      revert\n        /* \"#utility.yul\":211:328   */\n    tag_231:\n        /* \"#utility.yul\":320:321   */\n      0x00\n        /* \"#utility.yul\":317:318   */\n      dup1\n        /* \"#utility.yul\":310:322   */\n      revert\n        /* \"#utility.yul\":334:451   */\n    tag_232:\n        /* \"#utility.yul\":443:444   */\n      0x00\n        /* \"#utility.yul\":440:441   */\n      dup1\n        /* \"#utility.yul\":433:445   */\n      revert\n        /* \"#utility.yul\":457:574   */\n    tag_233:\n        /* \"#utility.yul\":566:567   */\n      0x00\n        /* \"#utility.yul\":563:564   */\n      dup1\n        /* \"#utility.yul\":556:568   */\n      revert\n        /* \"#utility.yul\":580:682   */\n    tag_234:\n        /* \"#utility.yul\":621:627   */\n      0x00\n        /* \"#utility.yul\":672:674   */\n      0x1f\n        /* \"#utility.yul\":668:675   */\n      not\n        /* \"#utility.yul\":663:665   */\n      0x1f\n        /* \"#utility.yul\":656:661   */\n      dup4\n        /* \"#utility.yul\":652:666   */\n      add\n        /* \"#utility.yul\":648:676   */\n      and\n        /* \"#utility.yul\":638:676   */\n      swap1\n      pop\n        /* \"#utility.yul\":580:682   */\n      swap2\n      swap1\n      pop\n      jump\t// out\n        /* \"#utility.yul\":688:868   */\n    tag_235:\n        /* \"#utility.yul\":736:813   */\n      0x4e487b7100000000000000000000000000000000000000000000000000000000\n        /* \"#utility.yul\":733:734   */\n      0x00\n        /* \"#utility.yul\":726:814   */\n      mstore\n        /* \"#utility.yul\":833:837   */\n      0x41\n        /* \"#utility.yul\":830:831   */\n      0x04\n        /* \"#utility.yul\":823:838   */\n      mstore\n        /* \"#utility.yul\":857:861   */\n      0x24\n        /* \"#utility.yul\":854:855   */\n      0x00\n        /* \"#utility.yul\":847:862   */\n      revert\n        /* \"#utility.yul\":874:1155   */\n    tag_236:\n        /* \"#utility.yul\":957:984   */\n      tag_311\n        /* \"#utility.yul\":979:983   */\n      dup3\n        /* \"#utility.yul\":957:984   */\n      tag_234\n      jump\t// in\n    tag_311:\n        /* \"#utility.yul\":949:955   */\n      dup2\n        /* \"#utility.yul\":945:985   */\n      add\n        /* \"#utility.yul\":1087:1093   */\n      dup2\n        /* \"#utility.yul\":1075:1085   */\n      dup2\n        /* \"#utility.yul\":1072:1094   */\n      lt\n        /* \"#utility.yul\":1051:1069   */\n      0xffffffffffffffff\n        /* \"#utility.yul\":1039:1049   */\n      dup3\n        /* \"#utility.yul\":1036:1070   */\n      gt\n        /* \"#utility.yul\":1033:1095   */\n      or\n        /* \"#utility.yul\":1030:1118   */\n      iszero\n      tag_312\n      jumpi\n        /* \"#utility.yul\":1098:1116   */\n      tag_313\n      tag_235\n      jump\t// in\n    tag_313:\n        /* \"#utility.yul\":1030:1118   */\n    tag_312:\n        /* \"#utility.yul\":1138:1148   */\n      dup1\n        /* \"#utility.yul\":1134:1136   */\n      0x40\n        /* \"#utility.yul\":1127:1149   */\n      mstore\n        /* \"#utility.yul\":917:1155   */\n      pop\n        /* \"#utility.yul\":874:1155   */\n      pop\n      pop\n      jump\t// out\n        /* \"#utility.yul\":1161:1290   */\n    tag_237:\n        /* \"#utility.yul\":1195:1201   */\n      0x00\n        /* \"#utility.yul\":1222:1242   */\n      tag_315\n      tag_229\n      jump\t// in\n    tag_315:\n        /* \"#utility.yul\":1212:1242   */\n      swap1\n      pop\n        /* \"#utility.yul\":1251:1284   */\n      tag_316\n        /* \"#utility.yul\":1279:1283   */\n      dup3\n        /* \"#utility.yul\":1271:1277   */\n      dup3\n        /* \"#utility.yul\":1251:1284   */\n      tag_236\n      jump\t// in\n    tag_316:\n        /* \"#utility.yul\":1161:1290   */\n      swap2\n      swap1\n      pop\n      jump\t// out\n        /* \"#utility.yul\":1296:1604   */\n    tag_238:\n        /* \"#utility.yul\":1358:1362   */\n      0x00\n        /* \"#utility.yul\":1448:1466   */\n      0xffffffffffffffff\n        /* \"#utility.yul\":1440:1446   */\n      dup3\n        /* \"#utility.yul\":1437:1467   */\n      gt\n        /* \"#utility.yul\":1434:1490   */\n      iszero\n      tag_318\n      jumpi\n        /* \"#utility.yul\":1470:1488   */\n      tag_319\n      tag_235\n      jump\t// in\n    tag_319:\n        /* \"#utility.yul\":1434:1490   */\n    tag_318:\n        /* \"#utility.yul\":1508:1537   */\n      tag_320\n        /* \"#utility.yul\":1530:1536   */\n      dup3\n        /* \"#utility.yul\":1508:1537   */\n      tag_234\n      jump\t// in\n    tag_320:\n        /* \"#utility.yul\":1500:1537   */\n      swap1\n      pop\n        /* \"#utility.yul\":1592:1596   */\n      0x20\n        /* \"#utility.yul\":1586:1590   */\n      dup2\n        /* \"#utility.yul\":1582:1597   */\n      add\n        /* \"#utility.yul\":1574:1597   */\n      swap1\n      pop\n        /* \"#utility.yul\":1296:1604   */\n      swap2\n      swap1\n      pop\n      jump\t// out\n        /* \"#utility.yul\":1610:1764   */\n    tag_239:\n        /* \"#utility.yul\":1694:1700   */\n      dup3\n        /* \"#utility.yul\":1689:1692   */\n      dup2\n        /* \"#utility.yul\":1684:1687   */\n      dup4\n        /* \"#utility.yul\":1671:1701   */\n      calldatacopy\n        /* \"#utility.yul\":1756:1757   */\n      0x00\n        /* \"#utility.yul\":1747:1753   */\n      dup4\n        /* \"#utility.yul\":1742:1745   */\n      dup4\n        /* \"#utility.yul\":1738:1754   */\n      add\n        /* \"#utility.yul\":1731:1758   */\n      mstore\n        /* \"#utility.yul\":1610:1764   */\n      pop\n      pop\n      pop\n      jump\t// out\n        /* \"#utility.yul\":1770:2182   */\n    tag_240:\n        /* \"#utility.yul\":1848:1853   */\n      0x00\n        /* \"#utility.yul\":1873:1939   */\n      tag_323\n        /* \"#utility.yul\":1889:1938   */\n      tag_324\n        /* \"#utility.yul\":1931:1937   */\n      dup5\n        /* \"#utility.yul\":1889:1938   */\n      tag_238\n      jump\t// in\n    tag_324:\n        /* \"#utility.yul\":1873:1939   */\n      tag_237\n      jump\t// in\n    tag_323:\n        /* \"#utility.yul\":1864:1939   */\n      swap1\n      pop\n        /* \"#utility.yul\":1962:1968   */\n      dup3\n        /* \"#utility.yul\":1955:1960   */\n      dup2\n        /* \"#utility.yul\":1948:1969   */\n      mstore\n        /* \"#utility.yul\":2000:2004   */\n      0x20\n        /* \"#utility.yul\":1993:1998   */\n      dup2\n        /* \"#utility.yul\":1989:2005   */\n      add\n        /* \"#utility.yul\":2038:2041   */\n      dup5\n        /* \"#utility.yul\":2029:2035   */\n      dup5\n        /* \"#utility.yul\":2024:2027   */\n      dup5\n        /* \"#utility.yul\":2020:2036   */\n      add\n        /* \"#utility.yul\":2017:2042   */\n      gt\n        /* \"#utility.yul\":2014:2126   */\n      iszero\n      tag_325\n      jumpi\n        /* \"#utility.yul\":2045:2124   */\n      tag_326\n      tag_233\n      jump\t// in\n    tag_326:\n        /* \"#utility.yul\":2014:2126   */\n    tag_325:\n        /* \"#utility.yul\":2135:2176   */\n      tag_327\n        /* \"#utility.yul\":2169:2175   */\n      dup5\n        /* \"#utility.yul\":2164:2167   */\n      dup3\n        /* \"#utility.yul\":2159:2162   */\n      dup6\n        /* \"#utility.yul\":2135:2176   */\n      tag_239\n      jump\t// in\n    tag_327:\n        /* \"#utility.yul\":1854:2182   */\n      pop\n        /* \"#utility.yul\":1770:2182   */\n      swap4\n      swap3\n      pop\n      pop\n      pop\n      jump\t// out\n        /* \"#utility.yul\":2202:2542   */\n    tag_241:\n        /* \"#utility.yul\":2258:2263   */\n      0x00\n        /* \"#utility.yul\":2307:2310   */\n      dup3\n        /* \"#utility.yul\":2300:2304   */\n      0x1f\n        /* \"#utility.yul\":2292:2298   */\n      dup4\n        /* \"#utility.yul\":2288:2305   */\n      add\n        /* \"#utility.yul\":2284:2311   */\n      slt\n        /* \"#utility.yul\":2274:2396   */\n      tag_329\n      jumpi\n        /* \"#utility.yul\":2315:2394   */\n      tag_330\n      tag_232\n      jump\t// in\n    tag_330:\n        /* \"#utility.yul\":2274:2396   */\n    tag_329:\n        /* \"#utility.yul\":2432:2438   */\n      dup2\n        /* \"#utility.yul\":2419:2439   */\n      calldataload\n        /* \"#utility.yul\":2457:2536   */\n      tag_331\n        /* \"#utility.yul\":2532:2535   */\n      dup5\n        /* \"#utility.yul\":2524:2530   */\n      dup3\n        /* \"#utility.yul\":2517:2521   */\n      0x20\n        /* \"#utility.yul\":2509:2515   */\n      dup7\n        /* \"#utility.yul\":2505:2522   */\n      add\n        /* \"#utility.yul\":2457:2536   */\n      tag_240\n      jump\t// in\n    tag_331:\n        /* \"#utility.yul\":2448:2536   */\n      swap2\n      pop\n        /* \"#utility.yul\":2264:2542   */\n      pop\n        /* \"#utility.yul\":2202:2542   */\n      swap3\n      swap2\n      pop\n      pop\n      jump\t// out\n        /* \"#utility.yul\":2548:2625   */\n    tag_242:\n        /* \"#utility.yul\":2585:2592   */\n      0x00\n        /* \"#utility.yul\":2614:2619   */\n      dup2\n        /* \"#utility.yul\":2603:2619   */\n      swap1\n      pop\n        /* \"#utility.yul\":2548:2625   */\n      swap2\n      swap1\n      pop\n      jump\t// out\n        /* \"#utility.yul\":2631:2753   */\n    tag_243:\n        /* \"#utility.yul\":2704:2728   */\n      tag_334\n        /* \"#utility.yul\":2722:2727   */\n      dup2\n        /* \"#utility.yul\":2704:2728   */\n      tag_242\n      jump\t// in\n    tag_334:\n        /* \"#utility.yul\":2697:2702   */\n      dup2\n        /* \"#utility.yul\":2694:2729   */\n      eq\n        /* \"#utility.yul\":2684:2747   */\n      tag_335\n      jumpi\n        /* \"#utility.yul\":2743:2744   */\n      0x00\n        /* \"#utility.yul\":2740:2741   */\n      dup1\n        /* \"#utility.yul\":2733:2745   */\n      revert\n        /* \"#utility.yul\":2684:2747   */\n    tag_335:\n        /* \"#utility.yul\":2631:2753   */\n      pop\n      jump\t// out\n        /* \"#utility.yul\":2759:2898   */\n    tag_244:\n        /* \"#utility.yul\":2805:2810   */\n      0x00\n        /* \"#utility.yul\":2843:2849   */\n      dup2\n        /* \"#utility.yul\":2830:2850   */\n      calldataload\n        /* \"#utility.yul\":2821:2850   */\n      swap1\n      pop\n        /* \"#utility.yul\":2859:2892   */\n      tag_337\n        /* \"#utility.yul\":2886:2891   */\n      dup2\n        /* \"#utility.yul\":2859:2892   */\n      tag_243\n      jump\t// in\n    tag_337:\n        /* \"#utility.yul\":2759:2898   */\n      swap3\n      swap2\n      pop\n      pop\n      jump\t// out\n        /* \"#utility.yul\":2904:3558   */\n    tag_29:\n        /* \"#utility.yul\":2982:2988   */\n      0x00\n        /* \"#utility.yul\":2990:2996   */\n      dup1\n        /* \"#utility.yul\":3039:3041   */\n      0x40\n        /* \"#utility.yul\":3027:3036   */\n      dup4\n        /* \"#utility.yul\":3018:3025   */\n      dup6\n        /* \"#utility.yul\":3014:3037   */\n      sub\n        /* \"#utility.yul\":3010:3042   */\n      slt\n        /* \"#utility.yul\":3007:3126   */\n      iszero\n      tag_339\n      jumpi\n        /* \"#utility.yul\":3045:3124   */\n      tag_340\n      tag_230\n      jump\t// in\n    tag_340:\n        /* \"#utility.yul\":3007:3126   */\n    tag_339:\n        /* \"#utility.yul\":3193:3194   */\n      0x00\n        /* \"#utility.yul\":3182:3191   */\n      dup4\n        /* \"#utility.yul\":3178:3195   */\n      add\n        /* \"#utility.yul\":3165:3196   */\n      calldataload\n        /* \"#utility.yul\":3223:3241   */\n      0xffffffffffffffff\n        /* \"#utility.yul\":3215:3221   */\n      dup2\n        /* \"#utility.yul\":3212:3242   */\n      gt\n        /* \"#utility.yul\":3209:3326   */\n      iszero\n      tag_341\n      jumpi\n        /* \"#utility.yul\":3245:3324   */\n      tag_342\n      tag_231\n      jump\t// in\n    tag_342:\n        /* \"#utility.yul\":3209:3326   */\n    tag_341:\n        /* \"#utility.yul\":3350:3413   */\n      tag_343\n        /* \"#utility.yul\":3405:3412   */\n      dup6\n        /* \"#utility.yul\":3396:3402   */\n      dup3\n        /* \"#utility.yul\":3385:3394   */\n      dup7\n        /* \"#utility.yul\":3381:3403   */\n      add\n        /* \"#utility.yul\":3350:3413   */\n      tag_241\n      jump\t// in\n    tag_343:\n        /* \"#utility.yul\":3340:3413   */\n      swap3\n      pop\n        /* \"#utility.yul\":3136:3423   */\n      pop\n        /* \"#utility.yul\":3462:3464   */\n      0x20\n        /* \"#utility.yul\":3488:3541   */\n      tag_344\n        /* \"#utility.yul\":3533:3540   */\n      dup6\n        /* \"#utility.yul\":3524:3530   */\n      dup3\n        /* \"#utility.yul\":3513:3522   */\n      dup7\n        /* \"#utility.yul\":3509:3531   */\n      add\n        /* \"#utility.yul\":3488:3541   */\n      tag_244\n      jump\t// in\n    tag_344:\n        /* \"#utility.yul\":3478:3541   */\n      swap2\n      pop\n        /* \"#utility.yul\":3433:3551   */\n      pop\n        /* \"#utility.yul\":2904:3558   */\n      swap3\n      pop\n      swap3\n      swap1\n      pop\n      jump\t// out\n        /* \"#utility.yul\":3564:3663   */\n    tag_245:\n        /* \"#utility.yul\":3616:3622   */\n      0x00\n        /* \"#utility.yul\":3650:3655   */\n      dup2\n        /* \"#utility.yul\":3644:3656   */\n      mload\n        /* \"#utility.yul\":3634:3656   */\n      swap1\n      pop\n        /* \"#utility.yul\":3564:3663   */\n      swap2\n      swap1\n      pop\n      jump\t// out\n        /* \"#utility.yul\":3669:3838   */\n    tag_246:\n        /* \"#utility.yul\":3753:3764   */\n      0x00\n        /* \"#utility.yul\":3787:3793   */\n      dup3\n        /* \"#utility.yul\":3782:3785   */\n      dup3\n        /* \"#utility.yul\":3775:3794   */\n      mstore\n        /* \"#utility.yul\":3827:3831   */\n      0x20\n        /* \"#utility.yul\":3822:3825   */\n      dup3\n        /* \"#utility.yul\":3818:3832   */\n      add\n        /* \"#utility.yul\":3803:3832   */\n      swap1\n      pop\n        /* \"#utility.yul\":3669:3838   */\n      swap3\n      swap2\n      pop\n      pop\n      jump\t// out\n        /* \"#utility.yul\":3844:4151   */\n    tag_247:\n        /* \"#utility.yul\":3912:3913   */\n      0x00\n        /* \"#utility.yul\":3922:4035   */\n    tag_348:\n        /* \"#utility.yul\":3936:3942   */\n      dup4\n        /* \"#utility.yul\":3933:3934   */\n      dup2\n        /* \"#utility.yul\":3930:3943   */\n      lt\n        /* \"#utility.yul\":3922:4035   */\n      iszero\n      tag_350\n      jumpi\n        /* \"#utility.yul\":4021:4022   */\n      dup1\n        /* \"#utility.yul\":4016:4019   */\n      dup3\n        /* \"#utility.yul\":4012:4023   */\n      add\n        /* \"#utility.yul\":4006:4024   */\n      mload\n        /* \"#utility.yul\":4002:4003   */\n      dup2\n        /* \"#utility.yul\":3997:4000   */\n      dup5\n        /* \"#utility.yul\":3993:4004   */\n      add\n        /* \"#utility.yul\":3986:4025   */\n      mstore\n        /* \"#utility.yul\":3958:3960   */\n      0x20\n        /* \"#utility.yul\":3955:3956   */\n      dup2\n        /* \"#utility.yul\":3951:3961   */\n      add\n        /* \"#utility.yul\":3946:3961   */\n      swap1\n      pop\n        /* \"#utility.yul\":3922:4035   */\n      jump(tag_348)\n    tag_350:\n        /* \"#utility.yul\":4053:4059   */\n      dup4\n        /* \"#utility.yul\":4050:4051   */\n      dup2\n        /* \"#utility.yul\":4047:4060   */\n      gt\n        /* \"#utility.yul\":4044:4145   */\n      iszero\n      tag_351\n      jumpi\n        /* \"#utility.yul\":4133:4134   */\n      0x00\n        /* \"#utility.yul\":4124:4130   */\n      dup5\n        /* \"#utility.yul\":4119:4122   */\n      dup5\n        /* \"#utility.yul\":4115:4131   */\n      add\n        /* \"#utility.yul\":4108:4135   */\n      mstore\n        /* \"#utility.yul\":4044:4145   */\n    tag_351:\n        /* \"#utility.yul\":3893:4151   */\n      pop\n        /* \"#utility.yul\":3844:4151   */\n      pop\n      pop\n      pop\n      jump\t// out\n        /* \"#utility.yul\":4157:4521   */\n    tag_248:\n        /* \"#utility.yul\":4245:4248   */\n      0x00\n        /* \"#utility.yul\":4273:4312   */\n      tag_353\n        /* \"#utility.yul\":4306:4311   */\n      dup3\n        /* \"#utility.yul\":4273:4312   */\n      tag_245\n      jump\t// in\n    tag_353:\n        /* \"#utility.yul\":4328:4399   */\n      tag_354\n        /* \"#utility.yul\":4392:4398   */\n      dup2\n        /* \"#utility.yul\":4387:4390   */\n      dup6\n        /* \"#utility.yul\":4328:4399   */\n      tag_246\n      jump\t// in\n    tag_354:\n        /* \"#utility.yul\":4321:4399   */\n      swap4\n      pop\n        /* \"#utility.yul\":4408:4460   */\n      tag_355\n        /* \"#utility.yul\":4453:4459   */\n      dup2\n        /* \"#utility.yul\":4448:4451   */\n      dup6\n        /* \"#utility.yul\":4441:4445   */\n      0x20\n        /* \"#utility.yul\":4434:4439   */\n      dup7\n        /* \"#utility.yul\":4430:4446   */\n      add\n        /* \"#utility.yul\":4408:4460   */\n      tag_247\n      jump\t// in\n    tag_355:\n        /* \"#utility.yul\":4485:4514   */\n      tag_356\n        /* \"#utility.yul\":4507:4513   */\n      dup2\n        /* \"#utility.yul\":4485:4514   */\n      tag_234\n      jump\t// in\n    tag_356:\n        /* \"#utility.yul\":4480:4483   */\n      dup5\n        /* \"#utility.yul\":4476:4515   */\n      add\n        /* \"#utility.yul\":4469:4515   */\n      swap2\n      pop\n        /* \"#utility.yul\":4249:4521   */\n      pop\n        /* \"#utility.yul\":4157:4521   */\n      swap3\n      swap2\n      pop\n      pop\n      jump\t// out\n        /* \"#utility.yul\":4527:4840   */\n    tag_32:\n        /* \"#utility.yul\":4640:4644   */\n      0x00\n        /* \"#utility.yul\":4678:4680   */\n      0x20\n        /* \"#utility.yul\":4667:4676   */\n      dup3\n        /* \"#utility.yul\":4663:4681   */\n      add\n        /* \"#utility.yul\":4655:4681   */\n      swap1\n      pop\n        /* \"#utility.yul\":4727:4736   */\n      dup2\n        /* \"#utility.yul\":4721:4725   */\n      dup2\n        /* \"#utility.yul\":4717:4737   */\n      sub\n        /* \"#utility.yul\":4713:4714   */\n      0x00\n        /* \"#utility.yul\":4702:4711   */\n      dup4\n        /* \"#utility.yul\":4698:4715   */\n      add\n        /* \"#utility.yul\":4691:4738   */\n      mstore\n        /* \"#utility.yul\":4755:4833   */\n      tag_358\n        /* \"#utility.yul\":4828:4832   */\n      dup2\n        /* \"#utility.yul\":4819:4825   */\n      dup5\n        /* \"#utility.yul\":4755:4833   */\n      tag_248\n      jump\t// in\n    tag_358:\n        /* \"#utility.yul\":4747:4833   */\n      swap1\n      pop\n        /* \"#utility.yul\":4527:4840   */\n      swap3\n      swap2\n      pop\n      pop\n      jump\t// out\n        /* \"#utility.yul\":4846:4960   */\n    tag_249:\n        /* \"#utility.yul\":4913:4919   */\n      0x00\n        /* \"#utility.yul\":4947:4952   */\n      dup2\n        /* \"#utility.yul\":4941:4953   */\n      mload\n        /* \"#utility.yul\":4931:4953   */\n      swap1\n      pop\n        /* \"#utility.yul\":4846:4960   */\n      swap2\n      swap1\n      pop\n      jump\t// out\n        /* \"#utility.yul\":4966:5150   */\n    tag_250:\n        /* \"#utility.yul\":5065:5076   */\n      0x00\n        /* \"#utility.yul\":5099:5105   */\n      dup3\n        /* \"#utility.yul\":5094:5097   */\n      dup3\n        /* \"#utility.yul\":5087:5106   */\n      mstore\n        /* \"#utility.yul\":5139:5143   */\n      0x20\n        /* \"#utility.yul\":5134:5137   */\n      dup3\n        /* \"#utility.yul\":5130:5144   */\n      add\n        /* \"#utility.yul\":5115:5144   */\n      swap1\n      pop\n        /* \"#utility.yul\":4966:5150   */\n      swap3\n      swap2\n      pop\n      pop\n      jump\t// out\n        /* \"#utility.yul\":5156:5288   */\n    tag_251:\n        /* \"#utility.yul\":5223:5227   */\n      0x00\n        /* \"#utility.yul\":5246:5249   */\n      dup2\n        /* \"#utility.yul\":5238:5249   */\n      swap1\n      pop\n        /* \"#utility.yul\":5276:5280   */\n      0x20\n        /* \"#utility.yul\":5271:5274   */\n      dup3\n        /* \"#utility.yul\":5267:5281   */\n      add\n        /* \"#utility.yul\":5259:5281   */\n      swap1\n      pop\n        /* \"#utility.yul\":5156:5288   */\n      swap2\n      swap1\n      pop\n      jump\t// out\n        /* \"#utility.yul\":5294:5371   */\n    tag_252:\n        /* \"#utility.yul\":5331:5338   */\n      0x00\n        /* \"#utility.yul\":5360:5365   */\n      dup2\n        /* \"#utility.yul\":5349:5365   */\n      swap1\n      pop\n        /* \"#utility.yul\":5294:5371   */\n      swap2\n      swap1\n      pop\n      jump\t// out\n        /* \"#utility.yul\":5377:5485   */\n    tag_253:\n        /* \"#utility.yul\":5454:5478   */\n      tag_364\n        /* \"#utility.yul\":5472:5477   */\n      dup2\n        /* \"#utility.yul\":5454:5478   */\n      tag_252\n      jump\t// in\n    tag_364:\n        /* \"#utility.yul\":5449:5452   */\n      dup3\n        /* \"#utility.yul\":5442:5479   */\n      mstore\n        /* \"#utility.yul\":5377:5485   */\n      pop\n      pop\n      jump\t// out\n        /* \"#utility.yul\":5491:5670   */\n    tag_254:\n        /* \"#utility.yul\":5560:5570   */\n      0x00\n        /* \"#utility.yul\":5581:5627   */\n      tag_366\n        /* \"#utility.yul\":5623:5626   */\n      dup4\n        /* \"#utility.yul\":5615:5621   */\n      dup4\n        /* \"#utility.yul\":5581:5627   */\n      tag_253\n      jump\t// in\n    tag_366:\n        /* \"#utility.yul\":5659:5663   */\n      0x20\n        /* \"#utility.yul\":5654:5657   */\n      dup4\n        /* \"#utility.yul\":5650:5664   */\n      add\n        /* \"#utility.yul\":5636:5664   */\n      swap1\n      pop\n        /* \"#utility.yul\":5491:5670   */\n      swap3\n      swap2\n      pop\n      pop\n      jump\t// out\n        /* \"#utility.yul\":5676:5789   */\n    tag_255:\n        /* \"#utility.yul\":5746:5750   */\n      0x00\n        /* \"#utility.yul\":5778:5782   */\n      0x20\n        /* \"#utility.yul\":5773:5776   */\n      dup3\n        /* \"#utility.yul\":5769:5783   */\n      add\n        /* \"#utility.yul\":5761:5783   */\n      swap1\n      pop\n        /* \"#utility.yul\":5676:5789   */\n      swap2\n      swap1\n      pop\n      jump\t// out\n        /* \"#utility.yul\":5825:6557   */\n    tag_256:\n        /* \"#utility.yul\":5944:5947   */\n      0x00\n        /* \"#utility.yul\":5973:6027   */\n      tag_369\n        /* \"#utility.yul\":6021:6026   */\n      dup3\n        /* \"#utility.yul\":5973:6027   */\n      tag_249\n      jump\t// in\n    tag_369:\n        /* \"#utility.yul\":6043:6129   */\n      tag_370\n        /* \"#utility.yul\":6122:6128   */\n      dup2\n        /* \"#utility.yul\":6117:6120   */\n      dup6\n        /* \"#utility.yul\":6043:6129   */\n      tag_250\n      jump\t// in\n    tag_370:\n        /* \"#utility.yul\":6036:6129   */\n      swap4\n      pop\n        /* \"#utility.yul\":6153:6209   */\n      tag_371\n        /* \"#utility.yul\":6203:6208   */\n      dup4\n        /* \"#utility.yul\":6153:6209   */\n      tag_251\n      jump\t// in\n    tag_371:\n        /* \"#utility.yul\":6232:6239   */\n      dup1\n        /* \"#utility.yul\":6263:6264   */\n      0x00\n        /* \"#utility.yul\":6248:6532   */\n    tag_372:\n        /* \"#utility.yul\":6273:6279   */\n      dup4\n        /* \"#utility.yul\":6270:6271   */\n      dup2\n        /* \"#utility.yul\":6267:6280   */\n      lt\n        /* \"#utility.yul\":6248:6532   */\n      iszero\n      tag_374\n      jumpi\n        /* \"#utility.yul\":6349:6355   */\n      dup2\n        /* \"#utility.yul\":6343:6356   */\n      mload\n        /* \"#utility.yul\":6376:6439   */\n      tag_375\n        /* \"#utility.yul\":6435:6438   */\n      dup9\n        /* \"#utility.yul\":6420:6433   */\n      dup3\n        /* \"#utility.yul\":6376:6439   */\n      tag_254\n      jump\t// in\n    tag_375:\n        /* \"#utility.yul\":6369:6439   */\n      swap8\n      pop\n        /* \"#utility.yul\":6462:6522   */\n      tag_376\n        /* \"#utility.yul\":6515:6521   */\n      dup4\n        /* \"#utility.yul\":6462:6522   */\n      tag_255\n      jump\t// in\n    tag_376:\n        /* \"#utility.yul\":6452:6522   */\n      swap3\n      pop\n        /* \"#utility.yul\":6308:6532   */\n      pop\n        /* \"#utility.yul\":6295:6296   */\n      0x01\n        /* \"#utility.yul\":6292:6293   */\n      dup2\n        /* \"#utility.yul\":6288:6297   */\n      add\n        /* \"#utility.yul\":6283:6297   */\n      swap1\n      pop\n        /* \"#utility.yul\":6248:6532   */\n      jump(tag_372)\n    tag_374:\n        /* \"#utility.yul\":6252:6266   */\n      pop\n        /* \"#utility.yul\":6548:6551   */\n      dup6\n        /* \"#utility.yul\":6541:6551   */\n      swap4\n      pop\n        /* \"#utility.yul\":5949:6557   */\n      pop\n      pop\n      pop\n        /* \"#utility.yul\":5825:6557   */\n      swap3\n      swap2\n      pop\n      pop\n      jump\t// out\n        /* \"#utility.yul\":6563:6936   */\n    tag_37:\n        /* \"#utility.yul\":6706:6710   */\n      0x00\n        /* \"#utility.yul\":6744:6746   */\n      0x20\n        /* \"#utility.yul\":6733:6742   */\n      dup3\n        /* \"#utility.yul\":6729:6747   */\n      add\n        /* \"#utility.yul\":6721:6747   */\n      swap1\n      pop\n        /* \"#utility.yul\":6793:6802   */\n      dup2\n        /* \"#utility.yul\":6787:6791   */\n      dup2\n        /* \"#utility.yul\":6783:6803   */\n      sub\n        /* \"#utility.yul\":6779:6780   */\n      0x00\n        /* \"#utility.yul\":6768:6777   */\n      dup4\n        /* \"#utility.yul\":6764:6781   */\n      add\n        /* \"#utility.yul\":6757:6804   */\n      mstore\n        /* \"#utility.yul\":6821:6929   */\n      tag_378\n        /* \"#utility.yul\":6924:6928   */\n      dup2\n        /* \"#utility.yul\":6915:6921   */\n      dup5\n        /* \"#utility.yul\":6821:6929   */\n      tag_256\n      jump\t// in\n    tag_378:\n        /* \"#utility.yul\":6813:6929   */\n      swap1\n      pop\n        /* \"#utility.yul\":6563:6936   */\n      swap3\n      swap2\n      pop\n      pop\n      jump\t// out\n        /* \"#utility.yul\":6942:7064   */\n    tag_257:\n        /* \"#utility.yul\":7015:7039   */\n      tag_380\n        /* \"#utility.yul\":7033:7038   */\n      dup2\n        /* \"#utility.yul\":7015:7039   */\n      tag_252\n      jump\t// in\n    tag_380:\n        /* \"#utility.yul\":7008:7013   */\n      dup2\n        /* \"#utility.yul\":7005:7040   */\n      eq\n        /* \"#utility.yul\":6995:7058   */\n      tag_381\n      jumpi\n        /* \"#utility.yul\":7054:7055   */\n      0x00\n        /* \"#utility.yul\":7051:7052   */\n      dup1\n        /* \"#utility.yul\":7044:7056   */\n      revert\n        /* \"#utility.yul\":6995:7058   */\n    tag_381:\n        /* \"#utility.yul\":6942:7064   */\n      pop\n      jump\t// out\n        /* \"#utility.yul\":7070:7209   */\n    tag_258:\n        /* \"#utility.yul\":7116:7121   */\n      0x00\n        /* \"#utility.yul\":7154:7160   */\n      dup2\n        /* \"#utility.yul\":7141:7161   */\n      calldataload\n        /* \"#utility.yul\":7132:7161   */\n      swap1\n      pop\n        /* \"#utility.yul\":7170:7203   */\n      tag_383\n        /* \"#utility.yul\":7197:7202   */\n      dup2\n        /* \"#utility.yul\":7170:7203   */\n      tag_257\n      jump\t// in\n    tag_383:\n        /* \"#utility.yul\":7070:7209   */\n      swap3\n      swap2\n      pop\n      pop\n      jump\t// out\n        /* \"#utility.yul\":7215:7544   */\n    tag_41:\n        /* \"#utility.yul\":7274:7280   */\n      0x00\n        /* \"#utility.yul\":7323:7325   */\n      0x20\n        /* \"#utility.yul\":7311:7320   */\n      dup3\n        /* \"#utility.yul\":7302:7309   */\n      dup5\n        /* \"#utility.yul\":7298:7321   */\n      sub\n        /* \"#utility.yul\":7294:7326   */\n      slt\n        /* \"#utility.yul\":7291:7410   */\n      iszero\n      tag_385\n      jumpi\n        /* \"#utility.yul\":7329:7408   */\n      tag_386\n      tag_230\n      jump\t// in\n    tag_386:\n        /* \"#utility.yul\":7291:7410   */\n    tag_385:\n        /* \"#utility.yul\":7449:7450   */\n      0x00\n        /* \"#utility.yul\":7474:7527   */\n      tag_387\n        /* \"#utility.yul\":7519:7526   */\n      dup5\n        /* \"#utility.yul\":7510:7516   */\n      dup3\n        /* \"#utility.yul\":7499:7508   */\n      dup6\n        /* \"#utility.yul\":7495:7517   */\n      add\n        /* \"#utility.yul\":7474:7527   */\n      tag_258\n      jump\t// in\n    tag_387:\n        /* \"#utility.yul\":7464:7527   */\n      swap2\n      pop\n        /* \"#utility.yul\":7420:7537   */\n      pop\n        /* \"#utility.yul\":7215:7544   */\n      swap3\n      swap2\n      pop\n      pop\n      jump\t// out\n        /* \"#utility.yul\":7550:7668   */\n    tag_259:\n        /* \"#utility.yul\":7637:7661   */\n      tag_389\n        /* \"#utility.yul\":7655:7660   */\n      dup2\n        /* \"#utility.yul\":7637:7661   */\n      tag_252\n      jump\t// in\n    tag_389:\n        /* \"#utility.yul\":7632:7635   */\n      dup3\n        /* \"#utility.yul\":7625:7662   */\n      mstore\n        /* \"#utility.yul\":7550:7668   */\n      pop\n      pop\n      jump\t// out\n        /* \"#utility.yul\":7674:7896   */\n    tag_48:\n        /* \"#utility.yul\":7767:7771   */\n      0x00\n        /* \"#utility.yul\":7805:7807   */\n      0x20\n        /* \"#utility.yul\":7794:7803   */\n      dup3\n        /* \"#utility.yul\":7790:7808   */\n      add\n        /* \"#utility.yul\":7782:7808   */\n      swap1\n      pop\n        /* \"#utility.yul\":7818:7889   */\n      tag_391\n        /* \"#utility.yul\":7886:7887   */\n      0x00\n        /* \"#utility.yul\":7875:7884   */\n      dup4\n        /* \"#utility.yul\":7871:7888   */\n      add\n        /* \"#utility.yul\":7862:7868   */\n      dup5\n        /* \"#utility.yul\":7818:7889   */\n      tag_259\n      jump\t// in\n    tag_391:\n        /* \"#utility.yul\":7674:7896   */\n      swap3\n      swap2\n      pop\n      pop\n      jump\t// out\n        /* \"#utility.yul\":7902:8037   */\n    tag_260:\n        /* \"#utility.yul\":7990:7996   */\n      0x00\n        /* \"#utility.yul\":8024:8029   */\n      dup2\n        /* \"#utility.yul\":8018:8030   */\n      mload\n        /* \"#utility.yul\":8008:8030   */\n      swap1\n      pop\n        /* \"#utility.yul\":7902:8037   */\n      swap2\n      swap1\n      pop\n      jump\t// out\n        /* \"#utility.yul\":8043:8248   */\n    tag_261:\n        /* \"#utility.yul\":8163:8174   */\n      0x00\n        /* \"#utility.yul\":8197:8203   */\n      dup3\n        /* \"#utility.yul\":8192:8195   */\n      dup3\n        /* \"#utility.yul\":8185:8204   */\n      mstore\n        /* \"#utility.yul\":8237:8241   */\n      0x20\n        /* \"#utility.yul\":8232:8235   */\n      dup3\n        /* \"#utility.yul\":8228:8242   */\n      add\n        /* \"#utility.yul\":8213:8242   */\n      swap1\n      pop\n        /* \"#utility.yul\":8043:8248   */\n      swap3\n      swap2\n      pop\n      pop\n      jump\t// out\n        /* \"#utility.yul\":8254:8407   */\n    tag_262:\n        /* \"#utility.yul\":8342:8346   */\n      0x00\n        /* \"#utility.yul\":8365:8368   */\n      dup2\n        /* \"#utility.yul\":8357:8368   */\n      swap1\n      pop\n        /* \"#utility.yul\":8395:8399   */\n      0x20\n        /* \"#utility.yul\":8390:8393   */\n      dup3\n        /* \"#utility.yul\":8386:8400   */\n      add\n        /* \"#utility.yul\":8378:8400   */\n      swap1\n      pop\n        /* \"#utility.yul\":8254:8407   */\n      swap2\n      swap1\n      pop\n      jump\t// out\n        /* \"#utility.yul\":8413:8539   */\n    tag_263:\n        /* \"#utility.yul\":8450:8457   */\n      0x00\n        /* \"#utility.yul\":8490:8532   */\n      0xffffffffffffffffffffffffffffffffffffffff\n        /* \"#utility.yul\":8483:8488   */\n      dup3\n        /* \"#utility.yul\":8479:8533   */\n      and\n        /* \"#utility.yul\":8468:8533   */\n      swap1\n      pop\n        /* \"#utility.yul\":8413:8539   */\n      swap2\n      swap1\n      pop\n      jump\t// out\n        /* \"#utility.yul\":8545:8649   */\n    tag_264:\n        /* \"#utility.yul\":8590:8597   */\n      0x00\n        /* \"#utility.yul\":8619:8643   */\n      tag_397\n        /* \"#utility.yul\":8637:8642   */\n      dup3\n        /* \"#utility.yul\":8619:8643   */\n      tag_263\n      jump\t// in\n    tag_397:\n        /* \"#utility.yul\":8608:8643   */\n      swap1\n      pop\n        /* \"#utility.yul\":8545:8649   */\n      swap2\n      swap1\n      pop\n      jump\t// out\n        /* \"#utility.yul\":8655:8787   */\n    tag_265:\n        /* \"#utility.yul\":8748:8780   */\n      tag_399\n        /* \"#utility.yul\":8774:8779   */\n      dup2\n        /* \"#utility.yul\":8748:8780   */\n      tag_264\n      jump\t// in\n    tag_399:\n        /* \"#utility.yul\":8743:8746   */\n      dup3\n        /* \"#utility.yul\":8736:8781   */\n      mstore\n        /* \"#utility.yul\":8655:8787   */\n      pop\n      pop\n      jump\t// out\n        /* \"#utility.yul\":8793:8973   */\n    tag_131:\n        /* \"#utility.yul\":8841:8918   */\n      0x4e487b7100000000000000000000000000000000000000000000000000000000\n        /* \"#utility.yul\":8838:8839   */\n      0x00\n        /* \"#utility.yul\":8831:8919   */\n      mstore\n        /* \"#utility.yul\":8938:8942   */\n      0x21\n        /* \"#utility.yul\":8935:8936   */\n      0x04\n        /* \"#utility.yul\":8928:8943   */\n      mstore\n        /* \"#utility.yul\":8962:8966   */\n      0x24\n        /* \"#utility.yul\":8959:8960   */\n      0x00\n        /* \"#utility.yul\":8952:8967   */\n      revert\n        /* \"#utility.yul\":8979:9091   */\n    tag_266:\n        /* \"#utility.yul\":9059:9060   */\n      0x02\n        /* \"#utility.yul\":9052:9057   */\n      dup2\n        /* \"#utility.yul\":9049:9061   */\n      lt\n        /* \"#utility.yul\":9039:9085   */\n      tag_402\n      jumpi\n        /* \"#utility.yul\":9065:9083   */\n      tag_403\n      tag_131\n      jump\t// in\n    tag_403:\n        /* \"#utility.yul\":9039:9085   */\n    tag_402:\n        /* \"#utility.yul\":8979:9091   */\n      pop\n      jump\t// out\n        /* \"#utility.yul\":9097:9222   */\n    tag_267:\n        /* \"#utility.yul\":9141:9148   */\n      0x00\n        /* \"#utility.yul\":9170:9175   */\n      dup2\n        /* \"#utility.yul\":9159:9175   */\n      swap1\n      pop\n        /* \"#utility.yul\":9176:9216   */\n      tag_405\n        /* \"#utility.yul\":9210:9215   */\n      dup3\n        /* \"#utility.yul\":9176:9216   */\n      tag_266\n      jump\t// in\n    tag_405:\n        /* \"#utility.yul\":9097:9222   */\n      swap2\n      swap1\n      pop\n      jump\t// out\n        /* \"#utility.yul\":9228:9353   */\n    tag_268:\n        /* \"#utility.yul\":9283:9292   */\n      0x00\n        /* \"#utility.yul\":9316:9347   */\n      tag_407\n        /* \"#utility.yul\":9341:9346   */\n      dup3\n        /* \"#utility.yul\":9316:9347   */\n      tag_267\n      jump\t// in\n    tag_407:\n        /* \"#utility.yul\":9303:9347   */\n      swap1\n      pop\n        /* \"#utility.yul\":9228:9353   */\n      swap2\n      swap1\n      pop\n      jump\t// out\n        /* \"#utility.yul\":9359:9490   */\n    tag_269:\n        /* \"#utility.yul\":9441:9483   */\n      tag_409\n        /* \"#utility.yul\":9477:9482   */\n      dup2\n        /* \"#utility.yul\":9441:9483   */\n      tag_268\n      jump\t// in\n    tag_409:\n        /* \"#utility.yul\":9436:9439   */\n      dup3\n        /* \"#utility.yul\":9429:9484   */\n      mstore\n        /* \"#utility.yul\":9359:9490   */\n      pop\n      pop\n      jump\t// out\n        /* \"#utility.yul\":9552:10941   */\n    tag_270:\n        /* \"#utility.yul\":9681:9685   */\n      0xe0\n        /* \"#utility.yul\":9676:9679   */\n      dup3\n        /* \"#utility.yul\":9672:9686   */\n      add\n        /* \"#utility.yul\":9772:9776   */\n      0x00\n        /* \"#utility.yul\":9765:9770   */\n      dup3\n        /* \"#utility.yul\":9761:9777   */\n      add\n        /* \"#utility.yul\":9755:9778   */\n      mload\n        /* \"#utility.yul\":9791:9870   */\n      tag_411\n        /* \"#utility.yul\":9864:9868   */\n      0x00\n        /* \"#utility.yul\":9859:9862   */\n      dup6\n        /* \"#utility.yul\":9855:9869   */\n      add\n        /* \"#utility.yul\":9841:9853   */\n      dup3\n        /* \"#utility.yul\":9791:9870   */\n      tag_265\n      jump\t// in\n    tag_411:\n        /* \"#utility.yul\":9696:9880   */\n      pop\n        /* \"#utility.yul\":9963:9967   */\n      0x20\n        /* \"#utility.yul\":9956:9961   */\n      dup3\n        /* \"#utility.yul\":9952:9968   */\n      add\n        /* \"#utility.yul\":9946:9969   */\n      mload\n        /* \"#utility.yul\":9982:10045   */\n      tag_412\n        /* \"#utility.yul\":10039:10043   */\n      0x20\n        /* \"#utility.yul\":10034:10037   */\n      dup6\n        /* \"#utility.yul\":10030:10044   */\n      add\n        /* \"#utility.yul\":10016:10028   */\n      dup3\n        /* \"#utility.yul\":9982:10045   */\n      tag_253\n      jump\t// in\n    tag_412:\n        /* \"#utility.yul\":9890:10055   */\n      pop\n        /* \"#utility.yul\":10142:10146   */\n      0x40\n        /* \"#utility.yul\":10135:10140   */\n      dup3\n        /* \"#utility.yul\":10131:10147   */\n      add\n        /* \"#utility.yul\":10125:10148   */\n      mload\n        /* \"#utility.yul\":10161:10224   */\n      tag_413\n        /* \"#utility.yul\":10218:10222   */\n      0x40\n        /* \"#utility.yul\":10213:10216   */\n      dup6\n        /* \"#utility.yul\":10209:10223   */\n      add\n        /* \"#utility.yul\":10195:10207   */\n      dup3\n        /* \"#utility.yul\":10161:10224   */\n      tag_253\n      jump\t// in\n    tag_413:\n        /* \"#utility.yul\":10065:10234   */\n      pop\n        /* \"#utility.yul\":10317:10321   */\n      0x60\n        /* \"#utility.yul\":10310:10315   */\n      dup3\n        /* \"#utility.yul\":10306:10322   */\n      add\n        /* \"#utility.yul\":10300:10323   */\n      mload\n        /* \"#utility.yul\":10336:10404   */\n      tag_414\n        /* \"#utility.yul\":10398:10402   */\n      0x60\n        /* \"#utility.yul\":10393:10396   */\n      dup6\n        /* \"#utility.yul\":10389:10403   */\n      add\n        /* \"#utility.yul\":10375:10387   */\n      dup3\n        /* \"#utility.yul\":10336:10404   */\n      tag_269\n      jump\t// in\n    tag_414:\n        /* \"#utility.yul\":10244:10414   */\n      pop\n        /* \"#utility.yul\":10494:10498   */\n      0x80\n        /* \"#utility.yul\":10487:10492   */\n      dup3\n        /* \"#utility.yul\":10483:10499   */\n      add\n        /* \"#utility.yul\":10477:10500   */\n      mload\n        /* \"#utility.yul\":10513:10576   */\n      tag_415\n        /* \"#utility.yul\":10570:10574   */\n      0x80\n        /* \"#utility.yul\":10565:10568   */\n      dup6\n        /* \"#utility.yul\":10561:10575   */\n      add\n        /* \"#utility.yul\":10547:10559   */\n      dup3\n        /* \"#utility.yul\":10513:10576   */\n      tag_253\n      jump\t// in\n    tag_415:\n        /* \"#utility.yul\":10424:10586   */\n      pop\n        /* \"#utility.yul\":10668:10672   */\n      0xa0\n        /* \"#utility.yul\":10661:10666   */\n      dup3\n        /* \"#utility.yul\":10657:10673   */\n      add\n        /* \"#utility.yul\":10651:10674   */\n      mload\n        /* \"#utility.yul\":10687:10750   */\n      tag_416\n        /* \"#utility.yul\":10744:10748   */\n      0xa0\n        /* \"#utility.yul\":10739:10742   */\n      dup6\n        /* \"#utility.yul\":10735:10749   */\n      add\n        /* \"#utility.yul\":10721:10733   */\n      dup3\n        /* \"#utility.yul\":10687:10750   */\n      tag_253\n      jump\t// in\n    tag_416:\n        /* \"#utility.yul\":10596:10760   */\n      pop\n        /* \"#utility.yul\":10842:10846   */\n      0xc0\n        /* \"#utility.yul\":10835:10840   */\n      dup3\n        /* \"#utility.yul\":10831:10847   */\n      add\n        /* \"#utility.yul\":10825:10848   */\n      mload\n        /* \"#utility.yul\":10861:10924   */\n      tag_417\n        /* \"#utility.yul\":10918:10922   */\n      0xc0\n        /* \"#utility.yul\":10913:10916   */\n      dup6\n        /* \"#utility.yul\":10909:10923   */\n      add\n        /* \"#utility.yul\":10895:10907   */\n      dup3\n        /* \"#utility.yul\":10861:10924   */\n      tag_253\n      jump\t// in\n    tag_417:\n        /* \"#utility.yul\":10770:10934   */\n      pop\n        /* \"#utility.yul\":9650:10941   */\n      pop\n        /* \"#utility.yul\":9552:10941   */\n      pop\n      pop\n      jump\t// out\n        /* \"#utility.yul\":10947:11210   */\n    tag_271:\n        /* \"#utility.yul\":11058:11068   */\n      0x00\n        /* \"#utility.yul\":11079:11167   */\n      tag_419\n        /* \"#utility.yul\":11163:11166   */\n      dup4\n        /* \"#utility.yul\":11155:11161   */\n      dup4\n        /* \"#utility.yul\":11079:11167   */\n      tag_270\n      jump\t// in\n    tag_419:\n        /* \"#utility.yul\":11199:11203   */\n      0xe0\n        /* \"#utility.yul\":11194:11197   */\n      dup4\n        /* \"#utility.yul\":11190:11204   */\n      add\n        /* \"#utility.yul\":11176:11204   */\n      swap1\n      pop\n        /* \"#utility.yul\":10947:11210   */\n      swap3\n      swap2\n      pop\n      pop\n      jump\t// out\n        /* \"#utility.yul\":11216:11350   */\n    tag_272:\n        /* \"#utility.yul\":11307:11311   */\n      0x00\n        /* \"#utility.yul\":11339:11343   */\n      0x20\n        /* \"#utility.yul\":11334:11337   */\n      dup3\n        /* \"#utility.yul\":11330:11344   */\n      add\n        /* \"#utility.yul\":11322:11344   */\n      swap1\n      pop\n        /* \"#utility.yul\":11216:11350   */\n      swap2\n      swap1\n      pop\n      jump\t// out\n        /* \"#utility.yul\":11416:12316   */\n    tag_273:\n        /* \"#utility.yul\":11577:11580   */\n      0x00\n        /* \"#utility.yul\":11606:11681   */\n      tag_422\n        /* \"#utility.yul\":11675:11680   */\n      dup3\n        /* \"#utility.yul\":11606:11681   */\n      tag_260\n      jump\t// in\n    tag_422:\n        /* \"#utility.yul\":11697:11804   */\n      tag_423\n        /* \"#utility.yul\":11797:11803   */\n      dup2\n        /* \"#utility.yul\":11792:11795   */\n      dup6\n        /* \"#utility.yul\":11697:11804   */\n      tag_261\n      jump\t// in\n    tag_423:\n        /* \"#utility.yul\":11690:11804   */\n      swap4\n      pop\n        /* \"#utility.yul\":11828:11905   */\n      tag_424\n        /* \"#utility.yul\":11899:11904   */\n      dup4\n        /* \"#utility.yul\":11828:11905   */\n      tag_262\n      jump\t// in\n    tag_424:\n        /* \"#utility.yul\":11928:11935   */\n      dup1\n        /* \"#utility.yul\":11959:11960   */\n      0x00\n        /* \"#utility.yul\":11944:12291   */\n    tag_425:\n        /* \"#utility.yul\":11969:11975   */\n      dup4\n        /* \"#utility.yul\":11966:11967   */\n      dup2\n        /* \"#utility.yul\":11963:11976   */\n      lt\n        /* \"#utility.yul\":11944:12291   */\n      iszero\n      tag_427\n      jumpi\n        /* \"#utility.yul\":12045:12051   */\n      dup2\n        /* \"#utility.yul\":12039:12052   */\n      mload\n        /* \"#utility.yul\":12072:12177   */\n      tag_428\n        /* \"#utility.yul\":12173:12176   */\n      dup9\n        /* \"#utility.yul\":12158:12171   */\n      dup3\n        /* \"#utility.yul\":12072:12177   */\n      tag_271\n      jump\t// in\n    tag_428:\n        /* \"#utility.yul\":12065:12177   */\n      swap8\n      pop\n        /* \"#utility.yul\":12200:12281   */\n      tag_429\n        /* \"#utility.yul\":12274:12280   */\n      dup4\n        /* \"#utility.yul\":12200:12281   */\n      tag_272\n      jump\t// in\n    tag_429:\n        /* \"#utility.yul\":12190:12281   */\n      swap3\n      pop\n        /* \"#utility.yul\":12004:12291   */\n      pop\n        /* \"#utility.yul\":11991:11992   */\n      0x01\n        /* \"#utility.yul\":11988:11989   */\n      dup2\n        /* \"#utility.yul\":11984:11993   */\n      add\n        /* \"#utility.yul\":11979:11993   */\n      swap1\n      pop\n        /* \"#utility.yul\":11944:12291   */\n      jump(tag_425)\n    tag_427:\n        /* \"#utility.yul\":11948:11962   */\n      pop\n        /* \"#utility.yul\":12307:12310   */\n      dup6\n        /* \"#utility.yul\":12300:12310   */\n      swap4\n      pop\n        /* \"#utility.yul\":11582:12316   */\n      pop\n      pop\n      pop\n        /* \"#utility.yul\":11416:12316   */\n      swap3\n      swap2\n      pop\n      pop\n      jump\t// out\n        /* \"#utility.yul\":12322:12779   */\n    tag_53:\n        /* \"#utility.yul\":12507:12511   */\n      0x00\n        /* \"#utility.yul\":12545:12547   */\n      0x20\n        /* \"#utility.yul\":12534:12543   */\n      dup3\n        /* \"#utility.yul\":12530:12548   */\n      add\n        /* \"#utility.yul\":12522:12548   */\n      swap1\n      pop\n        /* \"#utility.yul\":12594:12603   */\n      dup2\n        /* \"#utility.yul\":12588:12592   */\n      dup2\n        /* \"#utility.yul\":12584:12604   */\n      sub\n        /* \"#utility.yul\":12580:12581   */\n      0x00\n        /* \"#utility.yul\":12569:12578   */\n      dup4\n        /* \"#utility.yul\":12565:12582   */\n      add\n        /* \"#utility.yul\":12558:12605   */\n      mstore\n        /* \"#utility.yul\":12622:12772   */\n      tag_431\n        /* \"#utility.yul\":12767:12771   */\n      dup2\n        /* \"#utility.yul\":12758:12764   */\n      dup5\n        /* \"#utility.yul\":12622:12772   */\n      tag_273\n      jump\t// in\n    tag_431:\n        /* \"#utility.yul\":12614:12772   */\n      swap1\n      pop\n        /* \"#utility.yul\":12322:12779   */\n      swap3\n      swap2\n      pop\n      pop\n      jump\t// out\n        /* \"#utility.yul\":12785:12926   */\n    tag_274:\n        /* \"#utility.yul\":12877:12919   */\n      tag_433\n        /* \"#utility.yul\":12913:12918   */\n      dup2\n        /* \"#utility.yul\":12877:12919   */\n      tag_268\n      jump\t// in\n    tag_433:\n        /* \"#utility.yul\":12872:12875   */\n      dup3\n        /* \"#utility.yul\":12865:12920   */\n      mstore\n        /* \"#utility.yul\":12785:12926   */\n      pop\n      pop\n      jump\t// out\n        /* \"#utility.yul\":12932:13164   */\n    tag_63:\n        /* \"#utility.yul\":13030:13034   */\n      0x00\n        /* \"#utility.yul\":13068:13070   */\n      0x20\n        /* \"#utility.yul\":13057:13066   */\n      dup3\n        /* \"#utility.yul\":13053:13071   */\n      add\n        /* \"#utility.yul\":13045:13071   */\n      swap1\n      pop\n        /* \"#utility.yul\":13081:13157   */\n      tag_435\n        /* \"#utility.yul\":13154:13155   */\n      0x00\n        /* \"#utility.yul\":13143:13152   */\n      dup4\n        /* \"#utility.yul\":13139:13156   */\n      add\n        /* \"#utility.yul\":13130:13136   */\n      dup5\n        /* \"#utility.yul\":13081:13157   */\n      tag_274\n      jump\t// in\n    tag_435:\n        /* \"#utility.yul\":12932:13164   */\n      swap3\n      swap2\n      pop\n      pop\n      jump\t// out\n        /* \"#utility.yul\":13170:13312   */\n    tag_275:\n        /* \"#utility.yul\":13273:13305   */\n      tag_437\n        /* \"#utility.yul\":13299:13304   */\n      dup2\n        /* \"#utility.yul\":13273:13305   */\n      tag_264\n      jump\t// in\n    tag_437:\n        /* \"#utility.yul\":13268:13271   */\n      dup3\n        /* \"#utility.yul\":13261:13306   */\n      mstore\n        /* \"#utility.yul\":13170:13312   */\n      pop\n      pop\n      jump\t// out\n        /* \"#utility.yul\":13318:13572   */\n    tag_69:\n        /* \"#utility.yul\":13427:13431   */\n      0x00\n        /* \"#utility.yul\":13465:13467   */\n      0x20\n        /* \"#utility.yul\":13454:13463   */\n      dup3\n        /* \"#utility.yul\":13450:13468   */\n      add\n        /* \"#utility.yul\":13442:13468   */\n      swap1\n      pop\n        /* \"#utility.yul\":13478:13565   */\n      tag_439\n        /* \"#utility.yul\":13562:13563   */\n      0x00\n        /* \"#utility.yul\":13551:13560   */\n      dup4\n        /* \"#utility.yul\":13547:13564   */\n      add\n        /* \"#utility.yul\":13538:13544   */\n      dup5\n        /* \"#utility.yul\":13478:13565   */\n      tag_275\n      jump\t// in\n    tag_439:\n        /* \"#utility.yul\":13318:13572   */\n      swap3\n      swap2\n      pop\n      pop\n      jump\t// out\n        /* \"#utility.yul\":13578:13668   */\n    tag_276:\n        /* \"#utility.yul\":13612:13619   */\n      0x00\n        /* \"#utility.yul\":13655:13660   */\n      dup2\n        /* \"#utility.yul\":13648:13661   */\n      iszero\n        /* \"#utility.yul\":13641:13662   */\n      iszero\n        /* \"#utility.yul\":13630:13662   */\n      swap1\n      pop\n        /* \"#utility.yul\":13578:13668   */\n      swap2\n      swap1\n      pop\n      jump\t// out\n        /* \"#utility.yul\":13674:13783   */\n    tag_277:\n        /* \"#utility.yul\":13755:13776   */\n      tag_442\n        /* \"#utility.yul\":13770:13775   */\n      dup2\n        /* \"#utility.yul\":13755:13776   */\n      tag_276\n      jump\t// in\n    tag_442:\n        /* \"#utility.yul\":13750:13753   */\n      dup3\n        /* \"#utility.yul\":13743:13777   */\n      mstore\n        /* \"#utility.yul\":13674:13783   */\n      pop\n      pop\n      jump\t// out\n        /* \"#utility.yul\":13789:14816   */\n    tag_115:\n        /* \"#utility.yul\":14093:14097   */\n      0x00\n        /* \"#utility.yul\":14131:14134   */\n      0x0100\n        /* \"#utility.yul\":14120:14129   */\n      dup3\n        /* \"#utility.yul\":14116:14135   */\n      add\n        /* \"#utility.yul\":14108:14135   */\n      swap1\n      pop\n        /* \"#utility.yul\":14145:14232   */\n      tag_444\n        /* \"#utility.yul\":14229:14230   */\n      0x00\n        /* \"#utility.yul\":14218:14227   */\n      dup4\n        /* \"#utility.yul\":14214:14231   */\n      add\n        /* \"#utility.yul\":14205:14211   */\n      dup12\n        /* \"#utility.yul\":14145:14232   */\n      tag_275\n      jump\t// in\n    tag_444:\n        /* \"#utility.yul\":14242:14314   */\n      tag_445\n        /* \"#utility.yul\":14310:14312   */\n      0x20\n        /* \"#utility.yul\":14299:14308   */\n      dup4\n        /* \"#utility.yul\":14295:14313   */\n      add\n        /* \"#utility.yul\":14286:14292   */\n      dup11\n        /* \"#utility.yul\":14242:14314   */\n      tag_259\n      jump\t// in\n    tag_445:\n        /* \"#utility.yul\":14324:14396   */\n      tag_446\n        /* \"#utility.yul\":14392:14394   */\n      0x40\n        /* \"#utility.yul\":14381:14390   */\n      dup4\n        /* \"#utility.yul\":14377:14395   */\n      add\n        /* \"#utility.yul\":14368:14374   */\n      dup10\n        /* \"#utility.yul\":14324:14396   */\n      tag_259\n      jump\t// in\n    tag_446:\n        /* \"#utility.yul\":14406:14483   */\n      tag_447\n        /* \"#utility.yul\":14479:14481   */\n      0x60\n        /* \"#utility.yul\":14468:14477   */\n      dup4\n        /* \"#utility.yul\":14464:14482   */\n      add\n        /* \"#utility.yul\":14455:14461   */\n      dup9\n        /* \"#utility.yul\":14406:14483   */\n      tag_274\n      jump\t// in\n    tag_447:\n        /* \"#utility.yul\":14493:14566   */\n      tag_448\n        /* \"#utility.yul\":14561:14564   */\n      0x80\n        /* \"#utility.yul\":14550:14559   */\n      dup4\n        /* \"#utility.yul\":14546:14565   */\n      add\n        /* \"#utility.yul\":14537:14543   */\n      dup8\n        /* \"#utility.yul\":14493:14566   */\n      tag_259\n      jump\t// in\n    tag_448:\n        /* \"#utility.yul\":14576:14649   */\n      tag_449\n        /* \"#utility.yul\":14644:14647   */\n      0xa0\n        /* \"#utility.yul\":14633:14642   */\n      dup4\n        /* \"#utility.yul\":14629:14648   */\n      add\n        /* \"#utility.yul\":14620:14626   */\n      dup7\n        /* \"#utility.yul\":14576:14649   */\n      tag_259\n      jump\t// in\n    tag_449:\n        /* \"#utility.yul\":14659:14732   */\n      tag_450\n        /* \"#utility.yul\":14727:14730   */\n      0xc0\n        /* \"#utility.yul\":14716:14725   */\n      dup4\n        /* \"#utility.yul\":14712:14731   */\n      add\n        /* \"#utility.yul\":14703:14709   */\n      dup6\n        /* \"#utility.yul\":14659:14732   */\n      tag_259\n      jump\t// in\n    tag_450:\n        /* \"#utility.yul\":14742:14809   */\n      tag_451\n        /* \"#utility.yul\":14804:14807   */\n      0xe0\n        /* \"#utility.yul\":14793:14802   */\n      dup4\n        /* \"#utility.yul\":14789:14808   */\n      add\n        /* \"#utility.yul\":14780:14786   */\n      dup5\n        /* \"#utility.yul\":14742:14809   */\n      tag_277\n      jump\t// in\n    tag_451:\n        /* \"#utility.yul\":13789:14816   */\n      swap10\n      swap9\n      pop\n      pop\n      pop\n      pop\n      pop\n      pop\n      pop\n      pop\n      pop\n      jump\t// out\n        /* \"#utility.yul\":14822:14920   */\n    tag_278:\n        /* \"#utility.yul\":14873:14879   */\n      0x00\n        /* \"#utility.yul\":14907:14912   */\n      dup2\n        /* \"#utility.yul\":14901:14913   */\n      mload\n        /* \"#utility.yul\":14891:14913   */\n      swap1\n      pop\n        /* \"#utility.yul\":14822:14920   */\n      swap2\n      swap1\n      pop\n      jump\t// out\n        /* \"#utility.yul\":14926:15073   */\n    tag_279:\n        /* \"#utility.yul\":15027:15038   */\n      0x00\n        /* \"#utility.yul\":15064:15067   */\n      dup2\n        /* \"#utility.yul\":15049:15067   */\n      swap1\n      pop\n        /* \"#utility.yul\":14926:15073   */\n      swap3\n      swap2\n      pop\n      pop\n      jump\t// out\n        /* \"#utility.yul\":15079:15452   */\n    tag_280:\n        /* \"#utility.yul\":15183:15186   */\n      0x00\n        /* \"#utility.yul\":15211:15249   */\n      tag_455\n        /* \"#utility.yul\":15243:15248   */\n      dup3\n        /* \"#utility.yul\":15211:15249   */\n      tag_278\n      jump\t// in\n    tag_455:\n        /* \"#utility.yul\":15265:15353   */\n      tag_456\n        /* \"#utility.yul\":15346:15352   */\n      dup2\n        /* \"#utility.yul\":15341:15344   */\n      dup6\n        /* \"#utility.yul\":15265:15353   */\n      tag_279\n      jump\t// in\n    tag_456:\n        /* \"#utility.yul\":15258:15353   */\n      swap4\n      pop\n        /* \"#utility.yul\":15362:15414   */\n      tag_457\n        /* \"#utility.yul\":15407:15413   */\n      dup2\n        /* \"#utility.yul\":15402:15405   */\n      dup6\n        /* \"#utility.yul\":15395:15399   */\n      0x20\n        /* \"#utility.yul\":15388:15393   */\n      dup7\n        /* \"#utility.yul\":15384:15400   */\n      add\n        /* \"#utility.yul\":15362:15414   */\n      tag_247\n      jump\t// in\n    tag_457:\n        /* \"#utility.yul\":15439:15445   */\n      dup1\n        /* \"#utility.yul\":15434:15437   */\n      dup5\n        /* \"#utility.yul\":15430:15446   */\n      add\n        /* \"#utility.yul\":15423:15446   */\n      swap2\n      pop\n        /* \"#utility.yul\":15187:15452   */\n      pop\n        /* \"#utility.yul\":15079:15452   */\n      swap3\n      swap2\n      pop\n      pop\n      jump\t// out\n        /* \"#utility.yul\":15458:15636   */\n    tag_281:\n        /* \"#utility.yul\":15626:15629   */\n      0x2000000000000000000000000000000000000000000000000000000000000000\n        /* \"#utility.yul\":15621:15624   */\n      dup2\n        /* \"#utility.yul\":15614:15630   */\n      mstore\n        /* \"#utility.yul\":15458:15636   */\n      pop\n      jump\t// out\n        /* \"#utility.yul\":15642:15721   */\n    tag_282:\n        /* \"#utility.yul\":15681:15688   */\n      0x00\n        /* \"#utility.yul\":15710:15715   */\n      dup2\n        /* \"#utility.yul\":15699:15715   */\n      swap1\n      pop\n        /* \"#utility.yul\":15642:15721   */\n      swap2\n      swap1\n      pop\n      jump\t// out\n        /* \"#utility.yul\":15727:15884   */\n    tag_283:\n        /* \"#utility.yul\":15832:15877   */\n      tag_461\n        /* \"#utility.yul\":15852:15876   */\n      tag_462\n        /* \"#utility.yul\":15870:15875   */\n      dup3\n        /* \"#utility.yul\":15852:15876   */\n      tag_242\n      jump\t// in\n    tag_462:\n        /* \"#utility.yul\":15832:15877   */\n      tag_282\n      jump\t// in\n    tag_461:\n        /* \"#utility.yul\":15827:15830   */\n      dup3\n        /* \"#utility.yul\":15820:15878   */\n      mstore\n        /* \"#utility.yul\":15727:15884   */\n      pop\n      pop\n      jump\t// out\n        /* \"#utility.yul\":15890:16566   */\n    tag_127:\n        /* \"#utility.yul\":16138:16141   */\n      0x00\n        /* \"#utility.yul\":16160:16253   */\n      tag_464\n        /* \"#utility.yul\":16249:16252   */\n      dup3\n        /* \"#utility.yul\":16240:16246   */\n      dup6\n        /* \"#utility.yul\":16160:16253   */\n      tag_280\n      jump\t// in\n    tag_464:\n        /* \"#utility.yul\":16153:16253   */\n      swap2\n      pop\n        /* \"#utility.yul\":16263:16400   */\n      tag_465\n        /* \"#utility.yul\":16396:16399   */\n      dup3\n        /* \"#utility.yul\":16263:16400   */\n      tag_281\n      jump\t// in\n    tag_465:\n        /* \"#utility.yul\":16425:16426   */\n      0x01\n        /* \"#utility.yul\":16420:16423   */\n      dup3\n        /* \"#utility.yul\":16416:16427   */\n      add\n        /* \"#utility.yul\":16409:16427   */\n      swap2\n      pop\n        /* \"#utility.yul\":16437:16512   */\n      tag_466\n        /* \"#utility.yul\":16508:16511   */\n      dup3\n        /* \"#utility.yul\":16499:16505   */\n      dup5\n        /* \"#utility.yul\":16437:16512   */\n      tag_283\n      jump\t// in\n    tag_466:\n        /* \"#utility.yul\":16537:16539   */\n      0x20\n        /* \"#utility.yul\":16532:16535   */\n      dup3\n        /* \"#utility.yul\":16528:16540   */\n      add\n        /* \"#utility.yul\":16521:16540   */\n      swap2\n      pop\n        /* \"#utility.yul\":16557:16560   */\n      dup2\n        /* \"#utility.yul\":16550:16560   */\n      swap1\n      pop\n        /* \"#utility.yul\":15890:16566   */\n      swap4\n      swap3\n      pop\n      pop\n      pop\n      jump\t// out\n        /* \"#utility.yul\":16572:16735   */\n    tag_284:\n        /* \"#utility.yul\":16712:16727   */\n      0x4f726465722050656e64696e6700000000000000000000000000000000000000\n        /* \"#utility.yul\":16708:16709   */\n      0x00\n        /* \"#utility.yul\":16700:16706   */\n      dup3\n        /* \"#utility.yul\":16696:16710   */\n      add\n        /* \"#utility.yul\":16689:16728   */\n      mstore\n        /* \"#utility.yul\":16572:16735   */\n      pop\n      jump\t// out\n        /* \"#utility.yul\":16741:17107   */\n    tag_285:\n        /* \"#utility.yul\":16883:16886   */\n      0x00\n        /* \"#utility.yul\":16904:16971   */\n      tag_469\n        /* \"#utility.yul\":16968:16970   */\n      0x0d\n        /* \"#utility.yul\":16963:16966   */\n      dup4\n        /* \"#utility.yul\":16904:16971   */\n      tag_246\n      jump\t// in\n    tag_469:\n        /* \"#utility.yul\":16897:16971   */\n      swap2\n      pop\n        /* \"#utility.yul\":16980:17073   */\n      tag_470\n        /* \"#utility.yul\":17069:17072   */\n      dup3\n        /* \"#utility.yul\":16980:17073   */\n      tag_284\n      jump\t// in\n    tag_470:\n        /* \"#utility.yul\":17098:17100   */\n      0x20\n        /* \"#utility.yul\":17093:17096   */\n      dup3\n        /* \"#utility.yul\":17089:17101   */\n      add\n        /* \"#utility.yul\":17082:17101   */\n      swap1\n      pop\n        /* \"#utility.yul\":16741:17107   */\n      swap2\n      swap1\n      pop\n      jump\t// out\n        /* \"#utility.yul\":17113:17532   */\n    tag_141:\n        /* \"#utility.yul\":17279:17283   */\n      0x00\n        /* \"#utility.yul\":17317:17319   */\n      0x20\n        /* \"#utility.yul\":17306:17315   */\n      dup3\n        /* \"#utility.yul\":17302:17320   */\n      add\n        /* \"#utility.yul\":17294:17320   */\n      swap1\n      pop\n        /* \"#utility.yul\":17366:17375   */\n      dup2\n        /* \"#utility.yul\":17360:17364   */\n      dup2\n        /* \"#utility.yul\":17356:17376   */\n      sub\n        /* \"#utility.yul\":17352:17353   */\n      0x00\n        /* \"#utility.yul\":17341:17350   */\n      dup4\n        /* \"#utility.yul\":17337:17354   */\n      add\n        /* \"#utility.yul\":17330:17377   */\n      mstore\n        /* \"#utility.yul\":17394:17525   */\n      tag_472\n        /* \"#utility.yul\":17520:17524   */\n      dup2\n        /* \"#utility.yul\":17394:17525   */\n      tag_285\n      jump\t// in\n    tag_472:\n        /* \"#utility.yul\":17386:17525   */\n      swap1\n      pop\n        /* \"#utility.yul\":17113:17532   */\n      swap2\n      swap1\n      pop\n      jump\t// out\n        /* \"#utility.yul\":17538:17702   */\n    tag_286:\n        /* \"#utility.yul\":17678:17694   */\n      0x4e6f7420417574686f7269736564000000000000000000000000000000000000\n        /* \"#utility.yul\":17674:17675   */\n      0x00\n        /* \"#utility.yul\":17666:17672   */\n      dup3\n        /* \"#utility.yul\":17662:17676   */\n      add\n        /* \"#utility.yul\":17655:17695   */\n      mstore\n        /* \"#utility.yul\":17538:17702   */\n      pop\n      jump\t// out\n        /* \"#utility.yul\":17708:18074   */\n    tag_287:\n        /* \"#utility.yul\":17850:17853   */\n      0x00\n        /* \"#utility.yul\":17871:17938   */\n      tag_475\n        /* \"#utility.yul\":17935:17937   */\n      0x0e\n        /* \"#utility.yul\":17930:17933   */\n      dup4\n        /* \"#utility.yul\":17871:17938   */\n      tag_246\n      jump\t// in\n    tag_475:\n        /* \"#utility.yul\":17864:17938   */\n      swap2\n      pop\n        /* \"#utility.yul\":17947:18040   */\n      tag_476\n        /* \"#utility.yul\":18036:18039   */\n      dup3\n        /* \"#utility.yul\":17947:18040   */\n      tag_286\n      jump\t// in\n    tag_476:\n        /* \"#utility.yul\":18065:18067   */\n      0x20\n        /* \"#utility.yul\":18060:18063   */\n      dup3\n        /* \"#utility.yul\":18056:18068   */\n      add\n        /* \"#utility.yul\":18049:18068   */\n      swap1\n      pop\n        /* \"#utility.yul\":17708:18074   */\n      swap2\n      swap1\n      pop\n      jump\t// out\n        /* \"#utility.yul\":18080:18499   */\n    tag_149:\n        /* \"#utility.yul\":18246:18250   */\n      0x00\n        /* \"#utility.yul\":18284:18286   */\n      0x20\n        /* \"#utility.yul\":18273:18282   */\n      dup3\n        /* \"#utility.yul\":18269:18287   */\n      add\n        /* \"#utility.yul\":18261:18287   */\n      swap1\n      pop\n        /* \"#utility.yul\":18333:18342   */\n      dup2\n        /* \"#utility.yul\":18327:18331   */\n      dup2\n        /* \"#utility.yul\":18323:18343   */\n      sub\n        /* \"#utility.yul\":18319:18320   */\n      0x00\n        /* \"#utility.yul\":18308:18317   */\n      dup4\n        /* \"#utility.yul\":18304:18321   */\n      add\n        /* \"#utility.yul\":18297:18344   */\n      mstore\n        /* \"#utility.yul\":18361:18492   */\n      tag_478\n        /* \"#utility.yul\":18487:18491   */\n      dup2\n        /* \"#utility.yul\":18361:18492   */\n      tag_287\n      jump\t// in\n    tag_478:\n        /* \"#utility.yul\":18353:18492   */\n      swap1\n      pop\n        /* \"#utility.yul\":18080:18499   */\n      swap2\n      swap1\n      pop\n      jump\t// out\n        /* \"#utility.yul\":18505:18686   */\n    tag_288:\n        /* \"#utility.yul\":18645:18678   */\n      0x70726963652076616c7565206d757374206265206d6f7265207468616e203000\n        /* \"#utility.yul\":18641:18642   */\n      0x00\n        /* \"#utility.yul\":18633:18639   */\n      dup3\n        /* \"#utility.yul\":18629:18643   */\n      add\n        /* \"#utility.yul\":18622:18679   */\n      mstore\n        /* \"#utility.yul\":18505:18686   */\n      pop\n      jump\t// out\n        /* \"#utility.yul\":18692:19058   */\n    tag_289:\n        /* \"#utility.yul\":18834:18837   */\n      0x00\n        /* \"#utility.yul\":18855:18922   */\n      tag_481\n        /* \"#utility.yul\":18919:18921   */\n      0x1f\n        /* \"#utility.yul\":18914:18917   */\n      dup4\n        /* \"#utility.yul\":18855:18922   */\n      tag_246\n      jump\t// in\n    tag_481:\n        /* \"#utility.yul\":18848:18922   */\n      swap2\n      pop\n        /* \"#utility.yul\":18931:19024   */\n      tag_482\n        /* \"#utility.yul\":19020:19023   */\n      dup3\n        /* \"#utility.yul\":18931:19024   */\n      tag_288\n      jump\t// in\n    tag_482:\n        /* \"#utility.yul\":19049:19051   */\n      0x20\n        /* \"#utility.yul\":19044:19047   */\n      dup3\n        /* \"#utility.yul\":19040:19052   */\n      add\n        /* \"#utility.yul\":19033:19052   */\n      swap1\n      pop\n        /* \"#utility.yul\":18692:19058   */\n      swap2\n      swap1\n      pop\n      jump\t// out\n        /* \"#utility.yul\":19064:19483   */\n    tag_163:\n        /* \"#utility.yul\":19230:19234   */\n      0x00\n        /* \"#utility.yul\":19268:19270   */\n      0x20\n        /* \"#utility.yul\":19257:19266   */\n      dup3\n        /* \"#utility.yul\":19253:19271   */\n      add\n        /* \"#utility.yul\":19245:19271   */\n      swap1\n      pop\n        /* \"#utility.yul\":19317:19326   */\n      dup2\n        /* \"#utility.yul\":19311:19315   */\n      dup2\n        /* \"#utility.yul\":19307:19327   */\n      sub\n        /* \"#utility.yul\":19303:19304   */\n      0x00\n        /* \"#utility.yul\":19292:19301   */\n      dup4\n        /* \"#utility.yul\":19288:19305   */\n      add\n        /* \"#utility.yul\":19281:19328   */\n      mstore\n        /* \"#utility.yul\":19345:19476   */\n      tag_484\n        /* \"#utility.yul\":19471:19475   */\n      dup2\n        /* \"#utility.yul\":19345:19476   */\n      tag_289\n      jump\t// in\n    tag_484:\n        /* \"#utility.yul\":19337:19476   */\n      swap1\n      pop\n        /* \"#utility.yul\":19064:19483   */\n      swap2\n      swap1\n      pop\n      jump\t// out\n        /* \"#utility.yul\":19489:19669   */\n    tag_290:\n        /* \"#utility.yul\":19629:19661   */\n      0x4e6f7420656e6f75676820626c616e636520746f20706c6163652061736b0000\n        /* \"#utility.yul\":19625:19626   */\n      0x00\n        /* \"#utility.yul\":19617:19623   */\n      dup3\n        /* \"#utility.yul\":19613:19627   */\n      add\n        /* \"#utility.yul\":19606:19662   */\n      mstore\n        /* \"#utility.yul\":19489:19669   */\n      pop\n      jump\t// out\n        /* \"#utility.yul\":19675:20041   */\n    tag_291:\n        /* \"#utility.yul\":19817:19820   */\n      0x00\n        /* \"#utility.yul\":19838:19905   */\n      tag_487\n        /* \"#utility.yul\":19902:19904   */\n      0x1e\n        /* \"#utility.yul\":19897:19900   */\n      dup4\n        /* \"#utility.yul\":19838:19905   */\n      tag_246\n      jump\t// in\n    tag_487:\n        /* \"#utility.yul\":19831:19905   */\n      swap2\n      pop\n        /* \"#utility.yul\":19914:20007   */\n      tag_488\n        /* \"#utility.yul\":20003:20006   */\n      dup3\n        /* \"#utility.yul\":19914:20007   */\n      tag_290\n      jump\t// in\n    tag_488:\n        /* \"#utility.yul\":20032:20034   */\n      0x20\n        /* \"#utility.yul\":20027:20030   */\n      dup3\n        /* \"#utility.yul\":20023:20035   */\n      add\n        /* \"#utility.yul\":20016:20035   */\n      swap1\n      pop\n        /* \"#utility.yul\":19675:20041   */\n      swap2\n      swap1\n      pop\n      jump\t// out\n        /* \"#utility.yul\":20047:20466   */\n    tag_166:\n        /* \"#utility.yul\":20213:20217   */\n      0x00\n        /* \"#utility.yul\":20251:20253   */\n      0x20\n        /* \"#utility.yul\":20240:20249   */\n      dup3\n        /* \"#utility.yul\":20236:20254   */\n      add\n        /* \"#utility.yul\":20228:20254   */\n      swap1\n      pop\n        /* \"#utility.yul\":20300:20309   */\n      dup2\n        /* \"#utility.yul\":20294:20298   */\n      dup2\n        /* \"#utility.yul\":20290:20310   */\n      sub\n        /* \"#utility.yul\":20286:20287   */\n      0x00\n        /* \"#utility.yul\":20275:20284   */\n      dup4\n        /* \"#utility.yul\":20271:20288   */\n      add\n        /* \"#utility.yul\":20264:20311   */\n      mstore\n        /* \"#utility.yul\":20328:20459   */\n      tag_490\n        /* \"#utility.yul\":20454:20458   */\n      dup2\n        /* \"#utility.yul\":20328:20459   */\n      tag_291\n      jump\t// in\n    tag_490:\n        /* \"#utility.yul\":20320:20459   */\n      swap1\n      pop\n        /* \"#utility.yul\":20047:20466   */\n      swap2\n      swap1\n      pop\n      jump\t// out\n        /* \"#utility.yul\":20472:20652   */\n    tag_292:\n        /* \"#utility.yul\":20520:20597   */\n      0x4e487b7100000000000000000000000000000000000000000000000000000000\n        /* \"#utility.yul\":20517:20518   */\n      0x00\n        /* \"#utility.yul\":20510:20598   */\n      mstore\n        /* \"#utility.yul\":20617:20621   */\n      0x11\n        /* \"#utility.yul\":20614:20615   */\n      0x04\n        /* \"#utility.yul\":20607:20622   */\n      mstore\n        /* \"#utility.yul\":20641:20645   */\n      0x24\n        /* \"#utility.yul\":20638:20639   */\n      0x00\n        /* \"#utility.yul\":20631:20646   */\n      revert\n        /* \"#utility.yul\":20658:20849   */\n    tag_168:\n        /* \"#utility.yul\":20698:20702   */\n      0x00\n        /* \"#utility.yul\":20718:20738   */\n      tag_493\n        /* \"#utility.yul\":20736:20737   */\n      dup3\n        /* \"#utility.yul\":20718:20738   */\n      tag_252\n      jump\t// in\n    tag_493:\n        /* \"#utility.yul\":20713:20738   */\n      swap2\n      pop\n        /* \"#utility.yul\":20752:20772   */\n      tag_494\n        /* \"#utility.yul\":20770:20771   */\n      dup4\n        /* \"#utility.yul\":20752:20772   */\n      tag_252\n      jump\t// in\n    tag_494:\n        /* \"#utility.yul\":20747:20772   */\n      swap3\n      pop\n        /* \"#utility.yul\":20791:20792   */\n      dup3\n        /* \"#utility.yul\":20788:20789   */\n      dup3\n        /* \"#utility.yul\":20785:20793   */\n      lt\n        /* \"#utility.yul\":20782:20816   */\n      iszero\n      tag_495\n      jumpi\n        /* \"#utility.yul\":20796:20814   */\n      tag_496\n      tag_292\n      jump\t// in\n    tag_496:\n        /* \"#utility.yul\":20782:20816   */\n    tag_495:\n        /* \"#utility.yul\":20841:20842   */\n      dup3\n        /* \"#utility.yul\":20838:20839   */\n      dup3\n        /* \"#utility.yul\":20834:20843   */\n      sub\n        /* \"#utility.yul\":20826:20843   */\n      swap1\n      pop\n        /* \"#utility.yul\":20658:20849   */\n      swap3\n      swap2\n      pop\n      pop\n      jump\t// out\n        /* \"#utility.yul\":20855:21203   */\n    tag_170:\n        /* \"#utility.yul\":20895:20902   */\n      0x00\n        /* \"#utility.yul\":20918:20938   */\n      tag_498\n        /* \"#utility.yul\":20936:20937   */\n      dup3\n        /* \"#utility.yul\":20918:20938   */\n      tag_252\n      jump\t// in\n    tag_498:\n        /* \"#utility.yul\":20913:20938   */\n      swap2\n      pop\n        /* \"#utility.yul\":20952:20972   */\n      tag_499\n        /* \"#utility.yul\":20970:20971   */\n      dup4\n        /* \"#utility.yul\":20952:20972   */\n      tag_252\n      jump\t// in\n    tag_499:\n        /* \"#utility.yul\":20947:20972   */\n      swap3\n      pop\n        /* \"#utility.yul\":21140:21141   */\n      dup2\n        /* \"#utility.yul\":21072:21138   */\n      0xffffffffffffffffffffffffffffffffffffffffffffffffffffffffffffffff\n        /* \"#utility.yul\":21068:21142   */\n      div\n        /* \"#utility.yul\":21065:21066   */\n      dup4\n        /* \"#utility.yul\":21062:21143   */\n      gt\n        /* \"#utility.yul\":21057:21058   */\n      dup3\n        /* \"#utility.yul\":21050:21059   */\n      iszero\n        /* \"#utility.yul\":21043:21060   */\n      iszero\n        /* \"#utility.yul\":21039:21144   */\n      and\n        /* \"#utility.yul\":21036:21167   */\n      iszero\n      tag_500\n      jumpi\n        /* \"#utility.yul\":21147:21165   */\n      tag_501\n      tag_292\n      jump\t// in\n    tag_501:\n        /* \"#utility.yul\":21036:21167   */\n    tag_500:\n        /* \"#utility.yul\":21195:21196   */\n      dup3\n        /* \"#utility.yul\":21192:21193   */\n      dup3\n        /* \"#utility.yul\":21188:21197   */\n      mul\n        /* \"#utility.yul\":21177:21197   */\n      swap1\n      pop\n        /* \"#utility.yul\":20855:21203   */\n      swap3\n      swap2\n      pop\n      pop\n      jump\t// out\n        /* \"#utility.yul\":21209:21389   */\n    tag_293:\n        /* \"#utility.yul\":21257:21334   */\n      0x4e487b7100000000000000000000000000000000000000000000000000000000\n        /* \"#utility.yul\":21254:21255   */\n      0x00\n        /* \"#utility.yul\":21247:21335   */\n      mstore\n        /* \"#utility.yul\":21354:21358   */\n      0x12\n        /* \"#utility.yul\":21351:21352   */\n      0x04\n        /* \"#utility.yul\":21344:21359   */\n      mstore\n        /* \"#utility.yul\":21378:21382   */\n      0x24\n        /* \"#utility.yul\":21375:21376   */\n      0x00\n        /* \"#utility.yul\":21368:21383   */\n      revert\n        /* \"#utility.yul\":21395:21580   */\n    tag_172:\n        /* \"#utility.yul\":21435:21436   */\n      0x00\n        /* \"#utility.yul\":21452:21472   */\n      tag_504\n        /* \"#utility.yul\":21470:21471   */\n      dup3\n        /* \"#utility.yul\":21452:21472   */\n      tag_252\n      jump\t// in\n    tag_504:\n        /* \"#utility.yul\":21447:21472   */\n      swap2\n      pop\n        /* \"#utility.yul\":21486:21506   */\n      tag_505\n        /* \"#utility.yul\":21504:21505   */\n      dup4\n        /* \"#utility.yul\":21486:21506   */\n      tag_252\n      jump\t// in\n    tag_505:\n        /* \"#utility.yul\":21481:21506   */\n      swap3\n      pop\n        /* \"#utility.yul\":21525:21526   */\n      dup3\n        /* \"#utility.yul\":21515:21550   */\n      tag_506\n      jumpi\n        /* \"#utility.yul\":21530:21548   */\n      tag_507\n      tag_293\n      jump\t// in\n    tag_507:\n        /* \"#utility.yul\":21515:21550   */\n    tag_506:\n        /* \"#utility.yul\":21572:21573   */\n      dup3\n        /* \"#utility.yul\":21569:21570   */\n      dup3\n        /* \"#utility.yul\":21565:21574   */\n      div\n        /* \"#utility.yul\":21560:21574   */\n      swap1\n      pop\n        /* \"#utility.yul\":21395:21580   */\n      swap3\n      swap2\n      pop\n      pop\n      jump\t// out\n        /* \"#utility.yul\":21586:21766   */\n    tag_294:\n        /* \"#utility.yul\":21726:21758   */\n      0x4e6f7420656e6f75676820626c616e636520746f20706c616365206269640000\n        /* \"#utility.yul\":21722:21723   */\n      0x00\n        /* \"#utility.yul\":21714:21720   */\n      dup3\n        /* \"#utility.yul\":21710:21724   */\n      add\n        /* \"#utility.yul\":21703:21759   */\n      mstore\n        /* \"#utility.yul\":21586:21766   */\n      pop\n      jump\t// out\n        /* \"#utility.yul\":21772:22138   */\n    tag_295:\n        /* \"#utility.yul\":21914:21917   */\n      0x00\n        /* \"#utility.yul\":21935:22002   */\n      tag_510\n        /* \"#utility.yul\":21999:22001   */\n      0x1e\n        /* \"#utility.yul\":21994:21997   */\n      dup4\n        /* \"#utility.yul\":21935:22002   */\n      tag_246\n      jump\t// in\n    tag_510:\n        /* \"#utility.yul\":21928:22002   */\n      swap2\n      pop\n        /* \"#utility.yul\":22011:22104   */\n      tag_511\n        /* \"#utility.yul\":22100:22103   */\n      dup3\n        /* \"#utility.yul\":22011:22104   */\n      tag_294\n      jump\t// in\n    tag_511:\n        /* \"#utility.yul\":22129:22131   */\n      0x20\n        /* \"#utility.yul\":22124:22127   */\n      dup3\n        /* \"#utility.yul\":22120:22132   */\n      add\n        /* \"#utility.yul\":22113:22132   */\n      swap1\n      pop\n        /* \"#utility.yul\":21772:22138   */\n      swap2\n      swap1\n      pop\n      jump\t// out\n        /* \"#utility.yul\":22144:22563   */\n    tag_201:\n        /* \"#utility.yul\":22310:22314   */\n      0x00\n        /* \"#utility.yul\":22348:22350   */\n      0x20\n        /* \"#utility.yul\":22337:22346   */\n      dup3\n        /* \"#utility.yul\":22333:22351   */\n      add\n        /* \"#utility.yul\":22325:22351   */\n      swap1\n      pop\n        /* \"#utility.yul\":22397:22406   */\n      dup2\n        /* \"#utility.yul\":22391:22395   */\n      dup2\n        /* \"#utility.yul\":22387:22407   */\n      sub\n        /* \"#utility.yul\":22383:22384   */\n      0x00\n        /* \"#utility.yul\":22372:22381   */\n      dup4\n        /* \"#utility.yul\":22368:22385   */\n      add\n        /* \"#utility.yul\":22361:22408   */\n      mstore\n        /* \"#utility.yul\":22425:22556   */\n      tag_513\n        /* \"#utility.yul\":22551:22555   */\n      dup2\n        /* \"#utility.yul\":22425:22556   */\n      tag_295\n      jump\t// in\n    tag_513:\n        /* \"#utility.yul\":22417:22556   */\n      swap1\n      pop\n        /* \"#utility.yul\":22144:22563   */\n      swap2\n      swap1\n      pop\n      jump\t// out\n        /* \"#utility.yul\":22569:22802   */\n    tag_211:\n        /* \"#utility.yul\":22608:22611   */\n      0x00\n        /* \"#utility.yul\":22631:22655   */\n      tag_515\n        /* \"#utility.yul\":22649:22654   */\n      dup3\n        /* \"#utility.yul\":22631:22655   */\n      tag_252\n      jump\t// in\n    tag_515:\n        /* \"#utility.yul\":22622:22655   */\n      swap2\n      pop\n        /* \"#utility.yul\":22677:22743   */\n      0xffffffffffffffffffffffffffffffffffffffffffffffffffffffffffffffff\n        /* \"#utility.yul\":22670:22675   */\n      dup3\n        /* \"#utility.yul\":22667:22744   */\n      sub\n        /* \"#utility.yul\":22664:22767   */\n      tag_516\n      jumpi\n        /* \"#utility.yul\":22747:22765   */\n      tag_517\n      tag_292\n      jump\t// in\n    tag_517:\n        /* \"#utility.yul\":22664:22767   */\n    tag_516:\n        /* \"#utility.yul\":22794:22795   */\n      0x01\n        /* \"#utility.yul\":22787:22792   */\n      dup3\n        /* \"#utility.yul\":22783:22796   */\n      add\n        /* \"#utility.yul\":22776:22796   */\n      swap1\n      pop\n        /* \"#utility.yul\":22569:22802   */\n      swap2\n      swap1\n      pop\n      jump\t// out\n        /* \"#utility.yul\":22808:22904   */\n    tag_296:\n        /* \"#utility.yul\":22845:22852   */\n      0x00\n        /* \"#utility.yul\":22874:22898   */\n      tag_519\n        /* \"#utility.yul\":22892:22897   */\n      dup3\n        /* \"#utility.yul\":22874:22898   */\n      tag_263\n      jump\t// in\n    tag_519:\n        /* \"#utility.yul\":22863:22898   */\n      swap1\n      pop\n        /* \"#utility.yul\":22808:22904   */\n      swap2\n      swap1\n      pop\n      jump\t// out\n        /* \"#utility.yul\":22910:23028   */\n    tag_297:\n        /* \"#utility.yul\":22997:23021   */\n      tag_521\n        /* \"#utility.yul\":23015:23020   */\n      dup2\n        /* \"#utility.yul\":22997:23021   */\n      tag_296\n      jump\t// in\n    tag_521:\n        /* \"#utility.yul\":22992:22995   */\n      dup3\n        /* \"#utility.yul\":22985:23022   */\n      mstore\n        /* \"#utility.yul\":22910:23028   */\n      pop\n      pop\n      jump\t// out\n        /* \"#utility.yul\":23034:23119   */\n    tag_298:\n        /* \"#utility.yul\":23079:23086   */\n      0x00\n        /* \"#utility.yul\":23108:23113   */\n      dup2\n        /* \"#utility.yul\":23097:23113   */\n      swap1\n      pop\n        /* \"#utility.yul\":23034:23119   */\n      swap2\n      swap1\n      pop\n      jump\t// out\n        /* \"#utility.yul\":23125:23185   */\n    tag_299:\n        /* \"#utility.yul\":23153:23156   */\n      0x00\n        /* \"#utility.yul\":23174:23179   */\n      dup2\n        /* \"#utility.yul\":23167:23179   */\n      swap1\n      pop\n        /* \"#utility.yul\":23125:23185   */\n      swap2\n      swap1\n      pop\n      jump\t// out\n        /* \"#utility.yul\":23191:23349   */\n    tag_300:\n        /* \"#utility.yul\":23249:23258   */\n      0x00\n        /* \"#utility.yul\":23282:23343   */\n      tag_525\n        /* \"#utility.yul\":23300:23342   */\n      tag_526\n        /* \"#utility.yul\":23309:23341   */\n      tag_527\n        /* \"#utility.yul\":23335:23340   */\n      dup5\n        /* \"#utility.yul\":23309:23341   */\n      tag_298\n      jump\t// in\n    tag_527:\n        /* \"#utility.yul\":23300:23342   */\n      tag_299\n      jump\t// in\n    tag_526:\n        /* \"#utility.yul\":23282:23343   */\n      tag_252\n      jump\t// in\n    tag_525:\n        /* \"#utility.yul\":23269:23343   */\n      swap1\n      pop\n        /* \"#utility.yul\":23191:23349   */\n      swap2\n      swap1\n      pop\n      jump\t// out\n        /* \"#utility.yul\":23355:23502   */\n    tag_301:\n        /* \"#utility.yul\":23450:23495   */\n      tag_529\n        /* \"#utility.yul\":23489:23494   */\n      dup2\n        /* \"#utility.yul\":23450:23495   */\n      tag_300\n      jump\t// in\n    tag_529:\n        /* \"#utility.yul\":23445:23448   */\n      dup3\n        /* \"#utility.yul\":23438:23496   */\n      mstore\n        /* \"#utility.yul\":23355:23502   */\n      pop\n      pop\n      jump\t// out\n        /* \"#utility.yul\":23508:24535   */\n    tag_217:\n        /* \"#utility.yul\":23812:23816   */\n      0x00\n        /* \"#utility.yul\":23850:23853   */\n      0x0100\n        /* \"#utility.yul\":23839:23848   */\n      dup3\n        /* \"#utility.yul\":23835:23854   */\n      add\n        /* \"#utility.yul\":23827:23854   */\n      swap1\n      pop\n        /* \"#utility.yul\":23864:23935   */\n      tag_531\n        /* \"#utility.yul\":23932:23933   */\n      0x00\n        /* \"#utility.yul\":23921:23930   */\n      dup4\n        /* \"#utility.yul\":23917:23934   */\n      add\n        /* \"#utility.yul\":23908:23914   */\n      dup12\n        /* \"#utility.yul\":23864:23935   */\n      tag_297\n      jump\t// in\n    tag_531:\n        /* \"#utility.yul\":23945:24017   */\n      tag_532\n        /* \"#utility.yul\":24013:24015   */\n      0x20\n        /* \"#utility.yul\":24002:24011   */\n      dup4\n        /* \"#utility.yul\":23998:24016   */\n      add\n        /* \"#utility.yul\":23989:23995   */\n      dup11\n        /* \"#utility.yul\":23945:24017   */\n      tag_259\n      jump\t// in\n    tag_532:\n        /* \"#utility.yul\":24027:24099   */\n      tag_533\n        /* \"#utility.yul\":24095:24097   */\n      0x40\n        /* \"#utility.yul\":24084:24093   */\n      dup4\n        /* \"#utility.yul\":24080:24098   */\n      add\n        /* \"#utility.yul\":24071:24077   */\n      dup10\n        /* \"#utility.yul\":24027:24099   */\n      tag_259\n      jump\t// in\n    tag_533:\n        /* \"#utility.yul\":24109:24186   */\n      tag_534\n        /* \"#utility.yul\":24182:24184   */\n      0x60\n        /* \"#utility.yul\":24171:24180   */\n      dup4\n        /* \"#utility.yul\":24167:24185   */\n      add\n        /* \"#utility.yul\":24158:24164   */\n      dup9\n        /* \"#utility.yul\":24109:24186   */\n      tag_274\n      jump\t// in\n    tag_534:\n        /* \"#utility.yul\":24196:24269   */\n      tag_535\n        /* \"#utility.yul\":24264:24267   */\n      0x80\n        /* \"#utility.yul\":24253:24262   */\n      dup4\n        /* \"#utility.yul\":24249:24268   */\n      add\n        /* \"#utility.yul\":24240:24246   */\n      dup8\n        /* \"#utility.yul\":24196:24269   */\n      tag_259\n      jump\t// in\n    tag_535:\n        /* \"#utility.yul\":24279:24360   */\n      tag_536\n        /* \"#utility.yul\":24355:24358   */\n      0xa0\n        /* \"#utility.yul\":24344:24353   */\n      dup4\n        /* \"#utility.yul\":24340:24359   */\n      add\n        /* \"#utility.yul\":24331:24337   */\n      dup7\n        /* \"#utility.yul\":24279:24360   */\n      tag_301\n      jump\t// in\n    tag_536:\n        /* \"#utility.yul\":24370:24451   */\n      tag_537\n        /* \"#utility.yul\":24446:24449   */\n      0xc0\n        /* \"#utility.yul\":24435:24444   */\n      dup4\n        /* \"#utility.yul\":24431:24450   */\n      add\n        /* \"#utility.yul\":24422:24428   */\n      dup6\n        /* \"#utility.yul\":24370:24451   */\n      tag_301\n      jump\t// in\n    tag_537:\n        /* \"#utility.yul\":24461:24528   */\n      tag_538\n        /* \"#utility.yul\":24523:24526   */\n      0xe0\n        /* \"#utility.yul\":24512:24521   */\n      dup4\n        /* \"#utility.yul\":24508:24527   */\n      add\n        /* \"#utility.yul\":24499:24505   */\n      dup5\n        /* \"#utility.yul\":24461:24528   */\n      tag_277\n      jump\t// in\n    tag_538:\n        /* \"#utility.yul\":23508:24535   */\n      swap10\n      swap9\n      pop\n      pop\n      pop\n      pop\n      pop\n      pop\n      pop\n      pop\n      pop\n      jump\t// out\n\n    auxdata: 0xa264697066735822122067b776ba5542197a15020e27401b74dbfa2803d3a7b482cd16e623c1e1d9292f64736f6c634300080d0033\n}\n",
				"bytecode": {
					"linkReferences": {},
					"object": "608060405233600160006101000a81548173ffffffffffffffffffffffffffffffffffffffff021916908373ffffffffffffffffffffffffffffffffffffffff1602179055503480156200005257600080fd5b5060405162001f1938038062001f198339818101604052810190620000789190620000e6565b8060028190555060006004819055506000600581905550600060078190555060006008819055505062000118565b600080fd5b6000819050919050565b620000c081620000ab565b8114620000cc57600080fd5b50565b600081519050620000e081620000b5565b92915050565b600060208284031215620000ff57620000fe620000a6565b5b60006200010f84828501620000cf565b91505092915050565b611df180620001286000396000f3fe60806040526004361061012a5760003560e01c806378c5b268116100ab578063b40a56271161006f578063b40a5627146103ec578063bf77ffae14610417578063ce0cdc8714610454578063d09ef2411461047f578063db3a1396146104c3578063fb8f0f59146105005761012a565b806378c5b26814610335578063801d9bbd146103515780639703ef351461037c5780639979ef45146103a5578063a394fda7146103c15761012a565b806344e791e0116100f257806344e791e0146102285780634d46712d1461025357806369f632e2146102905780636e5b0f00146102cd578063734a2e78146102f85761012a565b80630a7e49041461012f578063122de8f21461016c5780631628e0f5146101975780632db6dfa7146101c05780634471417f146101fd575b600080fd5b34801561013b57600080fd5b506101566004803603810190610151919061131a565b61052b565b60405161016391906113fe565b60405180910390f35b34801561017857600080fd5b50610181610557565b60405161018e91906114e8565b60405180910390f35b3480156101a357600080fd5b506101be60048036038101906101b99190611536565b61055c565b005b3480156101cc57600080fd5b506101e760048036038101906101e29190611536565b610802565b6040516101f49190611572565b60405180910390f35b34801561020957600080fd5b50610212610822565b60405161021f9190611782565b60405180910390f35b34801561023457600080fd5b5061023d610827565b60405161024a91906113fe565b60405180910390f35b34801561025f57600080fd5b5061027a60048036038101906102759190611536565b610888565b60405161028791906117b3565b60405180910390f35b34801561029c57600080fd5b506102b760048036038101906102b29190611536565b6108b5565b6040516102c491906117dd565b60405180910390f35b3480156102d957600080fd5b506102e26108f5565b6040516102ef9190611572565b60405180910390f35b34801561030457600080fd5b5061031f600480360381019061031a9190611536565b6108fb565b60405161032c91906117dd565b60405180910390f35b61034f600480360381019061034a9190611536565b61093b565b005b34801561035d57600080fd5b50610366610a0f565b6040516103739190611572565b60405180910390f35b34801561038857600080fd5b506103a3600480360381019061039e9190611536565b610a15565b005b6103bf60048036038101906103ba9190611536565b610cbb565b005b3480156103cd57600080fd5b506103d6610d45565b6040516103e39190611572565b60405180910390f35b3480156103f857600080fd5b50610401610d4b565b60405161040e9190611572565b60405180910390f35b34801561042357600080fd5b5061043e60048036038101906104399190611536565b610d51565b60405161044b91906117b3565b60405180910390f35b34801561046057600080fd5b50610469610d7e565b60405161047691906114e8565b60405180910390f35b34801561048b57600080fd5b506104a660048036038101906104a19190611536565b610d83565b6040516104ba989796959493929190611813565b60405180910390f35b3480156104cf57600080fd5b506104ea60048036038101906104e59190611536565b610d9a565b6040516104f79190611572565b60405180910390f35b34801561050c57600080fd5b50610515610dba565b60405161052291906113fe565b60405180910390f35b6060828260405160200161054092919061191f565b604051602081830303815290604052905092915050565b606090565b600660008281526020019081526020016000206040518060e00160405290816000820160009054906101000a900473ffffffffffffffffffffffffffffffffffffffff1673ffffffffffffffffffffffffffffffffffffffff1673ffffffffffffffffffffffffffffffffffffffff16815260200160018201548152602001600282015481526020016003820160009054906101000a900460ff166001811115610609576106086115fa565b5b600181111561061b5761061a6115fa565b5b8152602001600482015481526020016005820154815260200160068201548152505060006001811115610651576106506115fa565b5b81606001516001811115610668576106676115fa565b5b146106a8576040517f08c379a000000000000000000000000000000000000000000000000000000000815260040161069f906119a2565b60405180910390fd5b600660008381526020019081526020016000206040518060e00160405290816000820160009054906101000a900473ffffffffffffffffffffffffffffffffffffffff1673ffffffffffffffffffffffffffffffffffffffff1673ffffffffffffffffffffffffffffffffffffffff16815260200160018201548152602001600282015481526020016003820160009054906101000a900460ff166001811115610755576107546115fa565b5b6001811115610767576107666115fa565b5b81526020016004820154815260200160058201548152602001600682015481525050338073ffffffffffffffffffffffffffffffffffffffff16826000015173ffffffffffffffffffffffffffffffffffffffff16146107fc576040517f08c379a00000000000000000000000000000000000000000000000000000000081526004016107f390611a0e565b60405180910390fd5b50505050565b600060036000838152602001908152602001600020600101549050919050565b606090565b60606000600754905060006040518060200160405280600081525090505b6000821461088057600060066000848152602001908152602001600020600501549050610875828460001b61052b565b915080925050610845565b809250505090565b60006006600083815260200190815260200160002060030160009054906101000a900460ff169050919050565b60006003600083815260200190815260200160002060000160009054906101000a900473ffffffffffffffffffffffffffffffffffffffff169050919050565b60045481565b60006006600083815260200190815260200160002060000160009054906101000a900473ffffffffffffffffffffffffffffffffffffffff169050919050565b600081101561097f576040517f08c379a000000000000000000000000000000000000000000000000000000000815260040161097690611a7a565b60405180910390fd5b803410156109c2576040517f08c379a00000000000000000000000000000000000000000000000000000000081526004016109b990611ae6565b60405180910390fd5b60004290506000606460025460646109da9190611b35565b346109e59190611b69565b6109ef9190611bf2565b905060006109fe338484610dfd565b9050610a0981610f98565b50505050565b60075481565b600360008281526020019081526020016000206040518060e00160405290816000820160009054906101000a900473ffffffffffffffffffffffffffffffffffffffff1673ffffffffffffffffffffffffffffffffffffffff1673ffffffffffffffffffffffffffffffffffffffff16815260200160018201548152602001600282015481526020016003820160009054906101000a900460ff166001811115610ac257610ac16115fa565b5b6001811115610ad457610ad36115fa565b5b8152602001600482015481526020016005820154815260200160068201548152505060006001811115610b0a57610b096115fa565b5b81606001516001811115610b2157610b206115fa565b5b14610b61576040517f08c379a0000000000000000000000000000000000000000000000000000000008152600401610b58906119a2565b60405180910390fd5b600360008381526020019081526020016000206040518060e00160405290816000820160009054906101000a900473ffffffffffffffffffffffffffffffffffffffff1673ffffffffffffffffffffffffffffffffffffffff1673ffffffffffffffffffffffffffffffffffffffff16815260200160018201548152602001600282015481526020016003820160009054906101000a900460ff166001811115610c0e57610c0d6115fa565b5b6001811115610c2057610c1f6115fa565b5b81526020016004820154815260200160058201548152602001600682015481525050338073ffffffffffffffffffffffffffffffffffffffff16826000015173ffffffffffffffffffffffffffffffffffffffff1614610cb5576040517f08c379a0000000000000000000000000000000000000000000000000000000008152600401610cac90611a0e565b60405180910390fd5b50505050565b6000811015610cff576040517f08c379a0000000000000000000000000000000000000000000000000000000008152600401610cf690611a7a565b60405180910390fd5b80341015610d42576040517f08c379a0000000000000000000000000000000000000000000000000000000008152600401610d3990611c6f565b60405180910390fd5b50565b60085481565b60055481565b60006003600083815260200190815260200160002060030160009054906101000a900460ff169050919050565b606090565b600080600080600080600080919395975091939597565b600060066000838152602001908152602001600020600101549050919050565b606060006040518060400160405280600781526020017f74657374696e670000000000000000000000000000000000000000000000000081525090508091505090565b610e05611125565b60086000815480929190610e1890611c8f565b919050555060006040518060e001604052808673ffffffffffffffffffffffffffffffffffffffff16815260200185815260200184815260200160006001811115610e6657610e656115fa565b5b8152602001600854815260200160008152602001600081525090508060066000600854815260200190815260200160002060008201518160000160006101000a81548173ffffffffffffffffffffffffffffffffffffffff021916908373ffffffffffffffffffffffffffffffffffffffff160217905550602082015181600101556040820151816002015560608201518160030160006101000a81548160ff02191690836001811115610f1d57610f1c6115fa565b5b02179055506080820151816004015560a0820151816005015560c082015181600601559050507f93caf6ba1af44020dfe6076e279533e38bd8deefe534c43aa8cc93aad2025b7d85858560006008546000806000604051610f85989796959493929190611d3d565b60405180910390a1809150509392505050565b60008060075403610fb3578160800151600781905550611121565b81602001516006600060075481526020019081526020016000206001015410611015576007548260a00181815250508160800151600660008460a001518152602001908152602001600020600601819055508160800151600781905550611120565b60075490505b600060066000838152602001908152602001600020600501541415801561107157508160200151600660006006600085815260200190815260200160002060050154815260200190815260200160002060010154105b15611094576006600082815260200190815260200160002060050154905061101b565b60066000828152602001908152602001600020600501548260a001818152505060006006600083815260200190815260200160002060050154146110f6578160800151600660008460a001518152602001908152602001600020600601819055505b81608001516006600083815260200190815260200160002060050181905550808260c00181815250505b5b5050565b6040518060e00160405280600073ffffffffffffffffffffffffffffffffffffffff16815260200160008152602001600081526020016000600181111561116f5761116e6115fa565b5b81526020016000815260200160008152602001600081525090565b6000604051905090565b600080fd5b600080fd5b600080fd5b600080fd5b6000601f19601f8301169050919050565b7f4e487b7100000000000000000000000000000000000000000000000000000000600052604160045260246000fd5b6111f1826111a8565b810181811067ffffffffffffffff821117156112105761120f6111b9565b5b80604052505050565b600061122361118a565b905061122f82826111e8565b919050565b600067ffffffffffffffff82111561124f5761124e6111b9565b5b611258826111a8565b9050602081019050919050565b82818337600083830152505050565b600061128761128284611234565b611219565b9050828152602081018484840111156112a3576112a26111a3565b5b6112ae848285611265565b509392505050565b600082601f8301126112cb576112ca61119e565b5b81356112db848260208601611274565b91505092915050565b6000819050919050565b6112f7816112e4565b811461130257600080fd5b50565b600081359050611314816112ee565b92915050565b6000806040838503121561133157611330611194565b5b600083013567ffffffffffffffff81111561134f5761134e611199565b5b61135b858286016112b6565b925050602061136c85828601611305565b9150509250929050565b600081519050919050565b600082825260208201905092915050565b60005b838110156113b0578082015181840152602081019050611395565b838111156113bf576000848401525b50505050565b60006113d082611376565b6113da8185611381565b93506113ea818560208601611392565b6113f3816111a8565b840191505092915050565b6000602082019050818103600083015261141881846113c5565b905092915050565b600081519050919050565b600082825260208201905092915050565b6000819050602082019050919050565b6000819050919050565b61145f8161144c565b82525050565b60006114718383611456565b60208301905092915050565b6000602082019050919050565b600061149582611420565b61149f818561142b565b93506114aa8361143c565b8060005b838110156114db5781516114c28882611465565b97506114cd8361147d565b9250506001810190506114ae565b5085935050505092915050565b60006020820190508181036000830152611502818461148a565b905092915050565b6115138161144c565b811461151e57600080fd5b50565b6000813590506115308161150a565b92915050565b60006020828403121561154c5761154b611194565b5b600061155a84828501611521565b91505092915050565b61156c8161144c565b82525050565b60006020820190506115876000830184611563565b92915050565b600081519050919050565b600082825260208201905092915050565b6000819050602082019050919050565b600073ffffffffffffffffffffffffffffffffffffffff82169050919050565b60006115e4826115b9565b9050919050565b6115f4816115d9565b82525050565b7f4e487b7100000000000000000000000000000000000000000000000000000000600052602160045260246000fd5b6002811061163a576116396115fa565b5b50565b600081905061164b82611629565b919050565b600061165b8261163d565b9050919050565b61166b81611650565b82525050565b60e08201600082015161168760008501826115eb565b50602082015161169a6020850182611456565b5060408201516116ad6040850182611456565b5060608201516116c06060850182611662565b5060808201516116d36080850182611456565b5060a08201516116e660a0850182611456565b5060c08201516116f960c0850182611456565b50505050565b600061170b8383611671565b60e08301905092915050565b6000602082019050919050565b600061172f8261158d565b6117398185611598565b9350611744836115a9565b8060005b8381101561177557815161175c88826116ff565b975061176783611717565b925050600181019050611748565b5085935050505092915050565b6000602082019050818103600083015261179c8184611724565b905092915050565b6117ad81611650565b82525050565b60006020820190506117c860008301846117a4565b92915050565b6117d7816115d9565b82525050565b60006020820190506117f260008301846117ce565b92915050565b60008115159050919050565b61180d816117f8565b82525050565b600061010082019050611829600083018b6117ce565b611836602083018a611563565b6118436040830189611563565b61185060608301886117a4565b61185d6080830187611563565b61186a60a0830186611563565b61187760c0830185611563565b61188460e0830184611804565b9998505050505050505050565b600081519050919050565b600081905092915050565b60006118b282611891565b6118bc818561189c565b93506118cc818560208601611392565b80840191505092915050565b7f2000000000000000000000000000000000000000000000000000000000000000815250565b6000819050919050565b611919611914826112e4565b6118fe565b82525050565b600061192b82856118a7565b9150611936826118d8565b6001820191506119468284611908565b6020820191508190509392505050565b7f4f726465722050656e64696e6700000000000000000000000000000000000000600082015250565b600061198c600d83611381565b915061199782611956565b602082019050919050565b600060208201905081810360008301526119bb8161197f565b9050919050565b7f4e6f7420417574686f7269736564000000000000000000000000000000000000600082015250565b60006119f8600e83611381565b9150611a03826119c2565b602082019050919050565b60006020820190508181036000830152611a27816119eb565b9050919050565b7f70726963652076616c7565206d757374206265206d6f7265207468616e203000600082015250565b6000611a64601f83611381565b9150611a6f82611a2e565b602082019050919050565b60006020820190508181036000830152611a9381611a57565b9050919050565b7f4e6f7420656e6f75676820626c616e636520746f20706c6163652061736b0000600082015250565b6000611ad0601e83611381565b9150611adb82611a9a565b602082019050919050565b60006020820190508181036000830152611aff81611ac3565b9050919050565b7f4e487b7100000000000000000000000000000000000000000000000000000000600052601160045260246000fd5b6000611b408261144c565b9150611b4b8361144c565b925082821015611b5e57611b5d611b06565b5b828203905092915050565b6000611b748261144c565b9150611b7f8361144c565b9250817fffffffffffffffffffffffffffffffffffffffffffffffffffffffffffffffff0483118215151615611bb857611bb7611b06565b5b828202905092915050565b7f4e487b7100000000000000000000000000000000000000000000000000000000600052601260045260246000fd5b6000611bfd8261144c565b9150611c088361144c565b925082611c1857611c17611bc3565b5b828204905092915050565b7f4e6f7420656e6f75676820626c616e636520746f20706c616365206269640000600082015250565b6000611c59601e83611381565b9150611c6482611c23565b602082019050919050565b60006020820190508181036000830152611c8881611c4c565b9050919050565b6000611c9a8261144c565b91507fffffffffffffffffffffffffffffffffffffffffffffffffffffffffffffffff8203611ccc57611ccb611b06565b5b600182019050919050565b6000611ce2826115b9565b9050919050565b611cf281611cd7565b82525050565b6000819050919050565b6000819050919050565b6000611d27611d22611d1d84611cf8565b611d02565b61144c565b9050919050565b611d3781611d0c565b82525050565b600061010082019050611d53600083018b611ce9565b611d60602083018a611563565b611d6d6040830189611563565b611d7a60608301886117a4565b611d876080830187611563565b611d9460a0830186611d2e565b611da160c0830185611d2e565b611dae60e0830184611804565b999850505050505050505056fea264697066735822122067b776ba5542197a15020e27401b74dbfa2803d3a7b482cd16e623c1e1d9292f64736f6c634300080d0033",
					"opcodes": "PUSH1 0x80 PUSH1 0x40 MSTORE CALLER PUSH1 0x1 PUSH1 0x0 PUSH2 0x100 EXP DUP2 SLOAD DUP2 PUSH20 0xFFFFFFFFFFFFFFFFFFFFFFFFFFFFFFFFFFFFFFFF MUL NOT AND SWAP1 DUP4 PUSH20 0xFFFFFFFFFFFFFFFFFFFFFFFFFFFFFFFFFFFFFFFF AND MUL OR SWAP1 SSTORE POP CALLVALUE DUP1 ISZERO PUSH3 0x52 JUMPI PUSH1 0x0 DUP1 REVERT JUMPDEST POP PUSH1 0x40 MLOAD PUSH3 0x1F19 CODESIZE SUB DUP1 PUSH3 0x1F19 DUP4 CODECOPY DUP2 DUP2 ADD PUSH1 0x40 MSTORE DUP2 ADD SWAP1 PUSH3 0x78 SWAP2 SWAP1 PUSH3 0xE6 JUMP JUMPDEST DUP1 PUSH1 0x2 DUP2 SWAP1 SSTORE POP PUSH1 0x0 PUSH1 0x4 DUP2 SWAP1 SSTORE POP PUSH1 0x0 PUSH1 0x5 DUP2 SWAP1 SSTORE POP PUSH1 0x0 PUSH1 0x7 DUP2 SWAP1 SSTORE POP PUSH1 0x0 PUSH1 0x8 DUP2 SWAP1 SSTORE POP POP PUSH3 0x118 JUMP JUMPDEST PUSH1 0x0 DUP1 REVERT JUMPDEST PUSH1 0x0 DUP2 SWAP1 POP SWAP2 SWAP1 POP JUMP JUMPDEST PUSH3 0xC0 DUP2 PUSH3 0xAB JUMP JUMPDEST DUP2 EQ PUSH3 0xCC JUMPI PUSH1 0x0 DUP1 REVERT JUMPDEST POP JUMP JUMPDEST PUSH1 0x0 DUP2 MLOAD SWAP1 POP PUSH3 0xE0 DUP2 PUSH3 0xB5 JUMP JUMPDEST SWAP3 SWAP2 POP POP JUMP JUMPDEST PUSH1 0x0 PUSH1 0x20 DUP3 DUP5 SUB SLT ISZERO PUSH3 0xFF JUMPI PUSH3 0xFE PUSH3 0xA6 JUMP JUMPDEST JUMPDEST PUSH1 0x0 PUSH3 0x10F DUP5 DUP3 DUP6 ADD PUSH3 0xCF JUMP JUMPDEST SWAP2 POP POP SWAP3 SWAP2 POP POP JUMP JUMPDEST PUSH2 0x1DF1 DUP1 PUSH3 0x128 PUSH1 0x0 CODECOPY PUSH1 0x0 RETURN INVALID PUSH1 0x80 PUSH1 0x40 MSTORE PUSH1 0x4 CALLDATASIZE LT PUSH2 0x12A JUMPI PUSH1 0x0 CALLDATALOAD PUSH1 0xE0 SHR DUP1 PUSH4 0x78C5B268 GT PUSH2 0xAB JUMPI DUP1 PUSH4 0xB40A5627 GT PUSH2 0x6F JUMPI DUP1 PUSH4 0xB40A5627 EQ PUSH2 0x3EC JUMPI DUP1 PUSH4 0xBF77FFAE EQ PUSH2 0x417 JUMPI DUP1 PUSH4 0xCE0CDC87 EQ PUSH2 0x454 JUMPI DUP1 PUSH4 0xD09EF241 EQ PUSH2 0x47F JUMPI DUP1 PUSH4 0xDB3A1396 EQ PUSH2 0x4C3 JUMPI DUP1 PUSH4 0xFB8F0F59 EQ PUSH2 0x500 JUMPI PUSH2 0x12A JUMP JUMPDEST DUP1 PUSH4 0x78C5B268 EQ PUSH2 0x335 JUMPI DUP1 PUSH4 0x801D9BBD EQ PUSH2 0x351 JUMPI DUP1 PUSH4 0x9703EF35 EQ PUSH2 0x37C JUMPI DUP1 PUSH4 0x9979EF45 EQ PUSH2 0x3A5 JUMPI DUP1 PUSH4 0xA394FDA7 EQ PUSH2 0x3C1 JUMPI PUSH2 0x12A JUMP JUMPDEST DUP1 PUSH4 0x44E791E0 GT PUSH2 0xF2 JUMPI DUP1 PUSH4 0x44E791E0 EQ PUSH2 0x228 JUMPI DUP1 PUSH4 0x4D46712D EQ PUSH2 0x253 JUMPI DUP1 PUSH4 0x69F632E2 EQ PUSH2 0x290 JUMPI DUP1 PUSH4 0x6E5B0F00 EQ PUSH2 0x2CD JUMPI DUP1 PUSH4 0x734A2E78 EQ PUSH2 0x2F8 JUMPI PUSH2 0x12A JUMP JUMPDEST DUP1 PUSH4 0xA7E4904 EQ PUSH2 0x12F JUMPI DUP1 PUSH4 0x122DE8F2 EQ PUSH2 0x16C JUMPI DUP1 PUSH4 0x1628E0F5 EQ PUSH2 0x197 JUMPI DUP1 PUSH4 0x2DB6DFA7 EQ PUSH2 0x1C0 JUMPI DUP1 PUSH4 0x4471417F EQ PUSH2 0x1FD JUMPI JUMPDEST PUSH1 0x0 DUP1 REVERT JUMPDEST CALLVALUE DUP1 ISZERO PUSH2 0x13B JUMPI PUSH1 0x0 DUP1 REVERT JUMPDEST POP PUSH2 0x156 PUSH1 0x4 DUP1 CALLDATASIZE SUB DUP2 ADD SWAP1 PUSH2 0x151 SWAP2 SWAP1 PUSH2 0x131A JUMP JUMPDEST PUSH2 0x52B JUMP JUMPDEST PUSH1 0x40 MLOAD PUSH2 0x163 SWAP2 SWAP1 PUSH2 0x13FE JUMP JUMPDEST PUSH1 0x40 MLOAD DUP1 SWAP2 SUB SWAP1 RETURN JUMPDEST CALLVALUE DUP1 ISZERO PUSH2 0x178 JUMPI PUSH1 0x0 DUP1 REVERT JUMPDEST POP PUSH2 0x181 PUSH2 0x557 JUMP JUMPDEST PUSH1 0x40 MLOAD PUSH2 0x18E SWAP2 SWAP1 PUSH2 0x14E8 JUMP JUMPDEST PUSH1 0x40 MLOAD DUP1 SWAP2 SUB SWAP1 RETURN JUMPDEST CALLVALUE DUP1 ISZERO PUSH2 0x1A3 JUMPI PUSH1 0x0 DUP1 REVERT JUMPDEST POP PUSH2 0x1BE PUSH1 0x4 DUP1 CALLDATASIZE SUB DUP2 ADD SWAP1 PUSH2 0x1B9 SWAP2 SWAP1 PUSH2 0x1536 JUMP JUMPDEST PUSH2 0x55C JUMP JUMPDEST STOP JUMPDEST CALLVALUE DUP1 ISZERO PUSH2 0x1CC JUMPI PUSH1 0x0 DUP1 REVERT JUMPDEST POP PUSH2 0x1E7 PUSH1 0x4 DUP1 CALLDATASIZE SUB DUP2 ADD SWAP1 PUSH2 0x1E2 SWAP2 SWAP1 PUSH2 0x1536 JUMP JUMPDEST PUSH2 0x802 JUMP JUMPDEST PUSH1 0x40 MLOAD PUSH2 0x1F4 SWAP2 SWAP1 PUSH2 0x1572 JUMP JUMPDEST PUSH1 0x40 MLOAD DUP1 SWAP2 SUB SWAP1 RETURN JUMPDEST CALLVALUE DUP1 ISZERO PUSH2 0x209 JUMPI PUSH1 0x0 DUP1 REVERT JUMPDEST POP PUSH2 0x212 PUSH2 0x822 JUMP JUMPDEST PUSH1 0x40 MLOAD PUSH2 0x21F SWAP2 SWAP1 PUSH2 0x1782 JUMP JUMPDEST PUSH1 0x40 MLOAD DUP1 SWAP2 SUB SWAP1 RETURN JUMPDEST CALLVALUE DUP1 ISZERO PUSH2 0x234 JUMPI PUSH1 0x0 DUP1 REVERT JUMPDEST POP PUSH2 0x23D PUSH2 0x827 JUMP JUMPDEST PUSH1 0x40 MLOAD PUSH2 0x24A SWAP2 SWAP1 PUSH2 0x13FE JUMP JUMPDEST PUSH1 0x40 MLOAD DUP1 SWAP2 SUB SWAP1 RETURN JUMPDEST CALLVALUE DUP1 ISZERO PUSH2 0x25F JUMPI PUSH1 0x0 DUP1 REVERT JUMPDEST POP PUSH2 0x27A PUSH1 0x4 DUP1 CALLDATASIZE SUB DUP2 ADD SWAP1 PUSH2 0x275 SWAP2 SWAP1 PUSH2 0x1536 JUMP JUMPDEST PUSH2 0x888 JUMP JUMPDEST PUSH1 0x40 MLOAD PUSH2 0x287 SWAP2 SWAP1 PUSH2 0x17B3 JUMP JUMPDEST PUSH1 0x40 MLOAD DUP1 SWAP2 SUB SWAP1 RETURN JUMPDEST CALLVALUE DUP1 ISZERO PUSH2 0x29C JUMPI PUSH1 0x0 DUP1 REVERT JUMPDEST POP PUSH2 0x2B7 PUSH1 0x4 DUP1 CALLDATASIZE SUB DUP2 ADD SWAP1 PUSH2 0x2B2 SWAP2 SWAP1 PUSH2 0x1536 JUMP JUMPDEST PUSH2 0x8B5 JUMP JUMPDEST PUSH1 0x40 MLOAD PUSH2 0x2C4 SWAP2 SWAP1 PUSH2 0x17DD JUMP JUMPDEST PUSH1 0x40 MLOAD DUP1 SWAP2 SUB SWAP1 RETURN JUMPDEST CALLVALUE DUP1 ISZERO PUSH2 0x2D9 JUMPI PUSH1 0x0 DUP1 REVERT JUMPDEST POP PUSH2 0x2E2 PUSH2 0x8F5 JUMP JUMPDEST PUSH1 0x40 MLOAD PUSH2 0x2EF SWAP2 SWAP1 PUSH2 0x1572 JUMP JUMPDEST PUSH1 0x40 MLOAD DUP1 SWAP2 SUB SWAP1 RETURN JUMPDEST CALLVALUE DUP1 ISZERO PUSH2 0x304 JUMPI PUSH1 0x0 DUP1 REVERT JUMPDEST POP PUSH2 0x31F PUSH1 0x4 DUP1 CALLDATASIZE SUB DUP2 ADD SWAP1 PUSH2 0x31A SWAP2 SWAP1 PUSH2 0x1536 JUMP JUMPDEST PUSH2 0x8FB JUMP JUMPDEST PUSH1 0x40 MLOAD PUSH2 0x32C SWAP2 SWAP1 PUSH2 0x17DD JUMP JUMPDEST PUSH1 0x40 MLOAD DUP1 SWAP2 SUB SWAP1 RETURN JUMPDEST PUSH2 0x34F PUSH1 0x4 DUP1 CALLDATASIZE SUB DUP2 ADD SWAP1 PUSH2 0x34A SWAP2 SWAP1 PUSH2 0x1536 JUMP JUMPDEST PUSH2 0x93B JUMP JUMPDEST STOP JUMPDEST CALLVALUE DUP1 ISZERO PUSH2 0x35D JUMPI PUSH1 0x0 DUP1 REVERT JUMPDEST POP PUSH2 0x366 PUSH2 0xA0F JUMP JUMPDEST PUSH1 0x40 MLOAD PUSH2 0x373 SWAP2 SWAP1 PUSH2 0x1572 JUMP JUMPDEST PUSH1 0x40 MLOAD DUP1 SWAP2 SUB SWAP1 RETURN JUMPDEST CALLVALUE DUP1 ISZERO PUSH2 0x388 JUMPI PUSH1 0x0 DUP1 REVERT JUMPDEST POP PUSH2 0x3A3 PUSH1 0x4 DUP1 CALLDATASIZE SUB DUP2 ADD SWAP1 PUSH2 0x39E SWAP2 SWAP1 PUSH2 0x1536 JUMP JUMPDEST PUSH2 0xA15 JUMP JUMPDEST STOP JUMPDEST PUSH2 0x3BF PUSH1 0x4 DUP1 CALLDATASIZE SUB DUP2 ADD SWAP1 PUSH2 0x3BA SWAP2 SWAP1 PUSH2 0x1536 JUMP JUMPDEST PUSH2 0xCBB JUMP JUMPDEST STOP JUMPDEST CALLVALUE DUP1 ISZERO PUSH2 0x3CD JUMPI PUSH1 0x0 DUP1 REVERT JUMPDEST POP PUSH2 0x3D6 PUSH2 0xD45 JUMP JUMPDEST PUSH1 0x40 MLOAD PUSH2 0x3E3 SWAP2 SWAP1 PUSH2 0x1572 JUMP JUMPDEST PUSH1 0x40 MLOAD DUP1 SWAP2 SUB SWAP1 RETURN JUMPDEST CALLVALUE DUP1 ISZERO PUSH2 0x3F8 JUMPI PUSH1 0x0 DUP1 REVERT JUMPDEST POP PUSH2 0x401 PUSH2 0xD4B JUMP JUMPDEST PUSH1 0x40 MLOAD PUSH2 0x40E SWAP2 SWAP1 PUSH2 0x1572 JUMP JUMPDEST PUSH1 0x40 MLOAD DUP1 SWAP2 SUB SWAP1 RETURN JUMPDEST CALLVALUE DUP1 ISZERO PUSH2 0x423 JUMPI PUSH1 0x0 DUP1 REVERT JUMPDEST POP PUSH2 0x43E PUSH1 0x4 DUP1 CALLDATASIZE SUB DUP2 ADD SWAP1 PUSH2 0x439 SWAP2 SWAP1 PUSH2 0x1536 JUMP JUMPDEST PUSH2 0xD51 JUMP JUMPDEST PUSH1 0x40 MLOAD PUSH2 0x44B SWAP2 SWAP1 PUSH2 0x17B3 JUMP JUMPDEST PUSH1 0x40 MLOAD DUP1 SWAP2 SUB SWAP1 RETURN JUMPDEST CALLVALUE DUP1 ISZERO PUSH2 0x460 JUMPI PUSH1 0x0 DUP1 REVERT JUMPDEST POP PUSH2 0x469 PUSH2 0xD7E JUMP JUMPDEST PUSH1 0x40 MLOAD PUSH2 0x476 SWAP2 SWAP1 PUSH2 0x14E8 JUMP JUMPDEST PUSH1 0x40 MLOAD DUP1 SWAP2 SUB SWAP1 RETURN JUMPDEST CALLVALUE DUP1 ISZERO PUSH2 0x48B JUMPI PUSH1 0x0 DUP1 REVERT JUMPDEST POP PUSH2 0x4A6 PUSH1 0x4 DUP1 CALLDATASIZE SUB DUP2 ADD SWAP1 PUSH2 0x4A1 SWAP2 SWAP1 PUSH2 0x1536 JUMP JUMPDEST PUSH2 0xD83 JUMP JUMPDEST PUSH1 0x40 MLOAD PUSH2 0x4BA SWAP9 SWAP8 SWAP7 SWAP6 SWAP5 SWAP4 SWAP3 SWAP2 SWAP1 PUSH2 0x1813 JUMP JUMPDEST PUSH1 0x40 MLOAD DUP1 SWAP2 SUB SWAP1 RETURN JUMPDEST CALLVALUE DUP1 ISZERO PUSH2 0x4CF JUMPI PUSH1 0x0 DUP1 REVERT JUMPDEST POP PUSH2 0x4EA PUSH1 0x4 DUP1 CALLDATASIZE SUB DUP2 ADD SWAP1 PUSH2 0x4E5 SWAP2 SWAP1 PUSH2 0x1536 JUMP JUMPDEST PUSH2 0xD9A JUMP JUMPDEST PUSH1 0x40 MLOAD PUSH2 0x4F7 SWAP2 SWAP1 PUSH2 0x1572 JUMP JUMPDEST PUSH1 0x40 MLOAD DUP1 SWAP2 SUB SWAP1 RETURN JUMPDEST CALLVALUE DUP1 ISZERO PUSH2 0x50C JUMPI PUSH1 0x0 DUP1 REVERT JUMPDEST POP PUSH2 0x515 PUSH2 0xDBA JUMP JUMPDEST PUSH1 0x40 MLOAD PUSH2 0x522 SWAP2 SWAP1 PUSH2 0x13FE JUMP JUMPDEST PUSH1 0x40 MLOAD DUP1 SWAP2 SUB SWAP1 RETURN JUMPDEST PUSH1 0x60 DUP3 DUP3 PUSH1 0x40 MLOAD PUSH1 0x20 ADD PUSH2 0x540 SWAP3 SWAP2 SWAP1 PUSH2 0x191F JUMP JUMPDEST PUSH1 0x40 MLOAD PUSH1 0x20 DUP2 DUP4 SUB SUB DUP2 MSTORE SWAP1 PUSH1 0x40 MSTORE SWAP1 POP SWAP3 SWAP2 POP POP JUMP JUMPDEST PUSH1 0x60 SWAP1 JUMP JUMPDEST PUSH1 0x6 PUSH1 0x0 DUP3 DUP2 MSTORE PUSH1 0x20 ADD SWAP1 DUP2 MSTORE PUSH1 0x20 ADD PUSH1 0x0 KECCAK256 PUSH1 0x40 MLOAD DUP1 PUSH1 0xE0 ADD PUSH1 0x40 MSTORE SWAP1 DUP2 PUSH1 0x0 DUP3 ADD PUSH1 0x0 SWAP1 SLOAD SWAP1 PUSH2 0x100 EXP SWAP1 DIV PUSH20 0xFFFFFFFFFFFFFFFFFFFFFFFFFFFFFFFFFFFFFFFF AND PUSH20 0xFFFFFFFFFFFFFFFFFFFFFFFFFFFFFFFFFFFFFFFF AND PUSH20 0xFFFFFFFFFFFFFFFFFFFFFFFFFFFFFFFFFFFFFFFF AND DUP2 MSTORE PUSH1 0x20 ADD PUSH1 0x1 DUP3 ADD SLOAD DUP2 MSTORE PUSH1 0x20 ADD PUSH1 0x2 DUP3 ADD SLOAD DUP2 MSTORE PUSH1 0x20 ADD PUSH1 0x3 DUP3 ADD PUSH1 0x0 SWAP1 SLOAD SWAP1 PUSH2 0x100 EXP SWAP1 DIV PUSH1 0xFF AND PUSH1 0x1 DUP2 GT ISZERO PUSH2 0x609 JUMPI PUSH2 0x608 PUSH2 0x15FA JUMP JUMPDEST JUMPDEST PUSH1 0x1 DUP2 GT ISZERO PUSH2 0x61B JUMPI PUSH2 0x61A PUSH2 0x15FA JUMP JUMPDEST JUMPDEST DUP2 MSTORE PUSH1 0x20 ADD PUSH1 0x4 DUP3 ADD SLOAD DUP2 MSTORE PUSH1 0x20 ADD PUSH1 0x5 DUP3 ADD SLOAD DUP2 MSTORE PUSH1 0x20 ADD PUSH1 0x6 DUP3 ADD SLOAD DUP2 MSTORE POP POP PUSH1 0x0 PUSH1 0x1 DUP2 GT ISZERO PUSH2 0x651 JUMPI PUSH2 0x650 PUSH2 0x15FA JUMP JUMPDEST JUMPDEST DUP2 PUSH1 0x60 ADD MLOAD PUSH1 0x1 DUP2 GT ISZERO PUSH2 0x668 JUMPI PUSH2 0x667 PUSH2 0x15FA JUMP JUMPDEST JUMPDEST EQ PUSH2 0x6A8 JUMPI PUSH1 0x40 MLOAD PUSH32 0x8C379A000000000000000000000000000000000000000000000000000000000 DUP2 MSTORE PUSH1 0x4 ADD PUSH2 0x69F SWAP1 PUSH2 0x19A2 JUMP JUMPDEST PUSH1 0x40 MLOAD DUP1 SWAP2 SUB SWAP1 REVERT JUMPDEST PUSH1 0x6 PUSH1 0x0 DUP4 DUP2 MSTORE PUSH1 0x20 ADD SWAP1 DUP2 MSTORE PUSH1 0x20 ADD PUSH1 0x0 KECCAK256 PUSH1 0x40 MLOAD DUP1 PUSH1 0xE0 ADD PUSH1 0x40 MSTORE SWAP1 DUP2 PUSH1 0x0 DUP3 ADD PUSH1 0x0 SWAP1 SLOAD SWAP1 PUSH2 0x100 EXP SWAP1 DIV PUSH20 0xFFFFFFFFFFFFFFFFFFFFFFFFFFFFFFFFFFFFFFFF AND PUSH20 0xFFFFFFFFFFFFFFFFFFFFFFFFFFFFFFFFFFFFFFFF AND PUSH20 0xFFFFFFFFFFFFFFFFFFFFFFFFFFFFFFFFFFFFFFFF AND DUP2 MSTORE PUSH1 0x20 ADD PUSH1 0x1 DUP3 ADD SLOAD DUP2 MSTORE PUSH1 0x20 ADD PUSH1 0x2 DUP3 ADD SLOAD DUP2 MSTORE PUSH1 0x20 ADD PUSH1 0x3 DUP3 ADD PUSH1 0x0 SWAP1 SLOAD SWAP1 PUSH2 0x100 EXP SWAP1 DIV PUSH1 0xFF AND PUSH1 0x1 DUP2 GT ISZERO PUSH2 0x755 JUMPI PUSH2 0x754 PUSH2 0x15FA JUMP JUMPDEST JUMPDEST PUSH1 0x1 DUP2 GT ISZERO PUSH2 0x767 JUMPI PUSH2 0x766 PUSH2 0x15FA JUMP JUMPDEST JUMPDEST DUP2 MSTORE PUSH1 0x20 ADD PUSH1 0x4 DUP3 ADD SLOAD DUP2 MSTORE PUSH1 0x20 ADD PUSH1 0x5 DUP3 ADD SLOAD DUP2 MSTORE PUSH1 0x20 ADD PUSH1 0x6 DUP3 ADD SLOAD DUP2 MSTORE POP POP CALLER DUP1 PUSH20 0xFFFFFFFFFFFFFFFFFFFFFFFFFFFFFFFFFFFFFFFF AND DUP3 PUSH1 0x0 ADD MLOAD PUSH20 0xFFFFFFFFFFFFFFFFFFFFFFFFFFFFFFFFFFFFFFFF AND EQ PUSH2 0x7FC JUMPI PUSH1 0x40 MLOAD PUSH32 0x8C379A000000000000000000000000000000000000000000000000000000000 DUP2 MSTORE PUSH1 0x4 ADD PUSH2 0x7F3 SWAP1 PUSH2 0x1A0E JUMP JUMPDEST PUSH1 0x40 MLOAD DUP1 SWAP2 SUB SWAP1 REVERT JUMPDEST POP POP POP POP JUMP JUMPDEST PUSH1 0x0 PUSH1 0x3 PUSH1 0x0 DUP4 DUP2 MSTORE PUSH1 0x20 ADD SWAP1 DUP2 MSTORE PUSH1 0x20 ADD PUSH1 0x0 KECCAK256 PUSH1 0x1 ADD SLOAD SWAP1 POP SWAP2 SWAP1 POP JUMP JUMPDEST PUSH1 0x60 SWAP1 JUMP JUMPDEST PUSH1 0x60 PUSH1 0x0 PUSH1 0x7 SLOAD SWAP1 POP PUSH1 0x0 PUSH1 0x40 MLOAD DUP1 PUSH1 0x20 ADD PUSH1 0x40 MSTORE DUP1 PUSH1 0x0 DUP2 MSTORE POP SWAP1 POP JUMPDEST PUSH1 0x0 DUP3 EQ PUSH2 0x880 JUMPI PUSH1 0x0 PUSH1 0x6 PUSH1 0x0 DUP5 DUP2 MSTORE PUSH1 0x20 ADD SWAP1 DUP2 MSTORE PUSH1 0x20 ADD PUSH1 0x0 KECCAK256 PUSH1 0x5 ADD SLOAD SWAP1 POP PUSH2 0x875 DUP3 DUP5 PUSH1 0x0 SHL PUSH2 0x52B JUMP JUMPDEST SWAP2 POP DUP1 SWAP3 POP POP PUSH2 0x845 JUMP JUMPDEST DUP1 SWAP3 POP POP POP SWAP1 JUMP JUMPDEST PUSH1 0x0 PUSH1 0x6 PUSH1 0x0 DUP4 DUP2 MSTORE PUSH1 0x20 ADD SWAP1 DUP2 MSTORE PUSH1 0x20 ADD PUSH1 0x0 KECCAK256 PUSH1 0x3 ADD PUSH1 0x0 SWAP1 SLOAD SWAP1 PUSH2 0x100 EXP SWAP1 DIV PUSH1 0xFF AND SWAP1 POP SWAP2 SWAP1 POP JUMP JUMPDEST PUSH1 0x0 PUSH1 0x3 PUSH1 0x0 DUP4 DUP2 MSTORE PUSH1 0x20 ADD SWAP1 DUP2 MSTORE PUSH1 0x20 ADD PUSH1 0x0 KECCAK256 PUSH1 0x0 ADD PUSH1 0x0 SWAP1 SLOAD SWAP1 PUSH2 0x100 EXP SWAP1 DIV PUSH20 0xFFFFFFFFFFFFFFFFFFFFFFFFFFFFFFFFFFFFFFFF AND SWAP1 POP SWAP2 SWAP1 POP JUMP JUMPDEST PUSH1 0x4 SLOAD DUP2 JUMP JUMPDEST PUSH1 0x0 PUSH1 0x6 PUSH1 0x0 DUP4 DUP2 MSTORE PUSH1 0x20 ADD SWAP1 DUP2 MSTORE PUSH1 0x20 ADD PUSH1 0x0 KECCAK256 PUSH1 0x0 ADD PUSH1 0x0 SWAP1 SLOAD SWAP1 PUSH2 0x100 EXP SWAP1 DIV PUSH20 0xFFFFFFFFFFFFFFFFFFFFFFFFFFFFFFFFFFFFFFFF AND SWAP1 POP SWAP2 SWAP1 POP JUMP JUMPDEST PUSH1 0x0 DUP2 LT ISZERO PUSH2 0x97F JUMPI PUSH1 0x40 MLOAD PUSH32 0x8C379A000000000000000000000000000000000000000000000000000000000 DUP2 MSTORE PUSH1 0x4 ADD PUSH2 0x976 SWAP1 PUSH2 0x1A7A JUMP JUMPDEST PUSH1 0x40 MLOAD DUP1 SWAP2 SUB SWAP1 REVERT JUMPDEST DUP1 CALLVALUE LT ISZERO PUSH2 0x9C2 JUMPI PUSH1 0x40 MLOAD PUSH32 0x8C379A000000000000000000000000000000000000000000000000000000000 DUP2 MSTORE PUSH1 0x4 ADD PUSH2 0x9B9 SWAP1 PUSH2 0x1AE6 JUMP JUMPDEST PUSH1 0x40 MLOAD DUP1 SWAP2 SUB SWAP1 REVERT JUMPDEST PUSH1 0x0 TIMESTAMP SWAP1 POP PUSH1 0x0 PUSH1 0x64 PUSH1 0x2 SLOAD PUSH1 0x64 PUSH2 0x9DA SWAP2 SWAP1 PUSH2 0x1B35 JUMP JUMPDEST CALLVALUE PUSH2 0x9E5 SWAP2 SWAP1 PUSH2 0x1B69 JUMP JUMPDEST PUSH2 0x9EF SWAP2 SWAP1 PUSH2 0x1BF2 JUMP JUMPDEST SWAP1 POP PUSH1 0x0 PUSH2 0x9FE CALLER DUP5 DUP5 PUSH2 0xDFD JUMP JUMPDEST SWAP1 POP PUSH2 0xA09 DUP2 PUSH2 0xF98 JUMP JUMPDEST POP POP POP POP JUMP JUMPDEST PUSH1 0x7 SLOAD DUP2 JUMP JUMPDEST PUSH1 0x3 PUSH1 0x0 DUP3 DUP2 MSTORE PUSH1 0x20 ADD SWAP1 DUP2 MSTORE PUSH1 0x20 ADD PUSH1 0x0 KECCAK256 PUSH1 0x40 MLOAD DUP1 PUSH1 0xE0 ADD PUSH1 0x40 MSTORE SWAP1 DUP2 PUSH1 0x0 DUP3 ADD PUSH1 0x0 SWAP1 SLOAD SWAP1 PUSH2 0x100 EXP SWAP1 DIV PUSH20 0xFFFFFFFFFFFFFFFFFFFFFFFFFFFFFFFFFFFFFFFF AND PUSH20 0xFFFFFFFFFFFFFFFFFFFFFFFFFFFFFFFFFFFFFFFF AND PUSH20 0xFFFFFFFFFFFFFFFFFFFFFFFFFFFFFFFFFFFFFFFF AND DUP2 MSTORE PUSH1 0x20 ADD PUSH1 0x1 DUP3 ADD SLOAD DUP2 MSTORE PUSH1 0x20 ADD PUSH1 0x2 DUP3 ADD SLOAD DUP2 MSTORE PUSH1 0x20 ADD PUSH1 0x3 DUP3 ADD PUSH1 0x0 SWAP1 SLOAD SWAP1 PUSH2 0x100 EXP SWAP1 DIV PUSH1 0xFF AND PUSH1 0x1 DUP2 GT ISZERO PUSH2 0xAC2 JUMPI PUSH2 0xAC1 PUSH2 0x15FA JUMP JUMPDEST JUMPDEST PUSH1 0x1 DUP2 GT ISZERO PUSH2 0xAD4 JUMPI PUSH2 0xAD3 PUSH2 0x15FA JUMP JUMPDEST JUMPDEST DUP2 MSTORE PUSH1 0x20 ADD PUSH1 0x4 DUP3 ADD SLOAD DUP2 MSTORE PUSH1 0x20 ADD PUSH1 0x5 DUP3 ADD SLOAD DUP2 MSTORE PUSH1 0x20 ADD PUSH1 0x6 DUP3 ADD SLOAD DUP2 MSTORE POP POP PUSH1 0x0 PUSH1 0x1 DUP2 GT ISZERO PUSH2 0xB0A JUMPI PUSH2 0xB09 PUSH2 0x15FA JUMP JUMPDEST JUMPDEST DUP2 PUSH1 0x60 ADD MLOAD PUSH1 0x1 DUP2 GT ISZERO PUSH2 0xB21 JUMPI PUSH2 0xB20 PUSH2 0x15FA JUMP JUMPDEST JUMPDEST EQ PUSH2 0xB61 JUMPI PUSH1 0x40 MLOAD PUSH32 0x8C379A000000000000000000000000000000000000000000000000000000000 DUP2 MSTORE PUSH1 0x4 ADD PUSH2 0xB58 SWAP1 PUSH2 0x19A2 JUMP JUMPDEST PUSH1 0x40 MLOAD DUP1 SWAP2 SUB SWAP1 REVERT JUMPDEST PUSH1 0x3 PUSH1 0x0 DUP4 DUP2 MSTORE PUSH1 0x20 ADD SWAP1 DUP2 MSTORE PUSH1 0x20 ADD PUSH1 0x0 KECCAK256 PUSH1 0x40 MLOAD DUP1 PUSH1 0xE0 ADD PUSH1 0x40 MSTORE SWAP1 DUP2 PUSH1 0x0 DUP3 ADD PUSH1 0x0 SWAP1 SLOAD SWAP1 PUSH2 0x100 EXP SWAP1 DIV PUSH20 0xFFFFFFFFFFFFFFFFFFFFFFFFFFFFFFFFFFFFFFFF AND PUSH20 0xFFFFFFFFFFFFFFFFFFFFFFFFFFFFFFFFFFFFFFFF AND PUSH20 0xFFFFFFFFFFFFFFFFFFFFFFFFFFFFFFFFFFFFFFFF AND DUP2 MSTORE PUSH1 0x20 ADD PUSH1 0x1 DUP3 ADD SLOAD DUP2 MSTORE PUSH1 0x20 ADD PUSH1 0x2 DUP3 ADD SLOAD DUP2 MSTORE PUSH1 0x20 ADD PUSH1 0x3 DUP3 ADD PUSH1 0x0 SWAP1 SLOAD SWAP1 PUSH2 0x100 EXP SWAP1 DIV PUSH1 0xFF AND PUSH1 0x1 DUP2 GT ISZERO PUSH2 0xC0E JUMPI PUSH2 0xC0D PUSH2 0x15FA JUMP JUMPDEST JUMPDEST PUSH1 0x1 DUP2 GT ISZERO PUSH2 0xC20 JUMPI PUSH2 0xC1F PUSH2 0x15FA JUMP JUMPDEST JUMPDEST DUP2 MSTORE PUSH1 0x20 ADD PUSH1 0x4 DUP3 ADD SLOAD DUP2 MSTORE PUSH1 0x20 ADD PUSH1 0x5 DUP3 ADD SLOAD DUP2 MSTORE PUSH1 0x20 ADD PUSH1 0x6 DUP3 ADD SLOAD DUP2 MSTORE POP POP CALLER DUP1 PUSH20 0xFFFFFFFFFFFFFFFFFFFFFFFFFFFFFFFFFFFFFFFF AND DUP3 PUSH1 0x0 ADD MLOAD PUSH20 0xFFFFFFFFFFFFFFFFFFFFFFFFFFFFFFFFFFFFFFFF AND EQ PUSH2 0xCB5 JUMPI PUSH1 0x40 MLOAD PUSH32 0x8C379A000000000000000000000000000000000000000000000000000000000 DUP2 MSTORE PUSH1 0x4 ADD PUSH2 0xCAC SWAP1 PUSH2 0x1A0E JUMP JUMPDEST PUSH1 0x40 MLOAD DUP1 SWAP2 SUB SWAP1 REVERT JUMPDEST POP POP POP POP JUMP JUMPDEST PUSH1 0x0 DUP2 LT ISZERO PUSH2 0xCFF JUMPI PUSH1 0x40 MLOAD PUSH32 0x8C379A000000000000000000000000000000000000000000000000000000000 DUP2 MSTORE PUSH1 0x4 ADD PUSH2 0xCF6 SWAP1 PUSH2 0x1A7A JUMP JUMPDEST PUSH1 0x40 MLOAD DUP1 SWAP2 SUB SWAP1 REVERT JUMPDEST DUP1 CALLVALUE LT ISZERO PUSH2 0xD42 JUMPI PUSH1 0x40 MLOAD PUSH32 0x8C379A000000000000000000000000000000000000000000000000000000000 DUP2 MSTORE PUSH1 0x4 ADD PUSH2 0xD39 SWAP1 PUSH2 0x1C6F JUMP JUMPDEST PUSH1 0x40 MLOAD DUP1 SWAP2 SUB SWAP1 REVERT JUMPDEST POP JUMP JUMPDEST PUSH1 0x8 SLOAD DUP2 JUMP JUMPDEST PUSH1 0x5 SLOAD DUP2 JUMP JUMPDEST PUSH1 0x0 PUSH1 0x3 PUSH1 0x0 DUP4 DUP2 MSTORE PUSH1 0x20 ADD SWAP1 DUP2 MSTORE PUSH1 0x20 ADD PUSH1 0x0 KECCAK256 PUSH1 0x3 ADD PUSH1 0x0 SWAP1 SLOAD SWAP1 PUSH2 0x100 EXP SWAP1 DIV PUSH1 0xFF AND SWAP1 POP SWAP2 SWAP1 POP JUMP JUMPDEST PUSH1 0x60 SWAP1 JUMP JUMPDEST PUSH1 0x0 DUP1 PUSH1 0x0 DUP1 PUSH1 0x0 DUP1 PUSH1 0x0 DUP1 SWAP2 SWAP4 SWAP6 SWAP8 POP SWAP2 SWAP4 SWAP6 SWAP8 JUMP JUMPDEST PUSH1 0x0 PUSH1 0x6 PUSH1 0x0 DUP4 DUP2 MSTORE PUSH1 0x20 ADD SWAP1 DUP2 MSTORE PUSH1 0x20 ADD PUSH1 0x0 KECCAK256 PUSH1 0x1 ADD SLOAD SWAP1 POP SWAP2 SWAP1 POP JUMP JUMPDEST PUSH1 0x60 PUSH1 0x0 PUSH1 0x40 MLOAD DUP1 PUSH1 0x40 ADD PUSH1 0x40 MSTORE DUP1 PUSH1 0x7 DUP2 MSTORE PUSH1 0x20 ADD PUSH32 0x74657374696E6700000000000000000000000000000000000000000000000000 DUP2 MSTORE POP SWAP1 POP DUP1 SWAP2 POP POP SWAP1 JUMP JUMPDEST PUSH2 0xE05 PUSH2 0x1125 JUMP JUMPDEST PUSH1 0x8 PUSH1 0x0 DUP2 SLOAD DUP1 SWAP3 SWAP2 SWAP1 PUSH2 0xE18 SWAP1 PUSH2 0x1C8F JUMP JUMPDEST SWAP2 SWAP1 POP SSTORE POP PUSH1 0x0 PUSH1 0x40 MLOAD DUP1 PUSH1 0xE0 ADD PUSH1 0x40 MSTORE DUP1 DUP7 PUSH20 0xFFFFFFFFFFFFFFFFFFFFFFFFFFFFFFFFFFFFFFFF AND DUP2 MSTORE PUSH1 0x20 ADD DUP6 DUP2 MSTORE PUSH1 0x20 ADD DUP5 DUP2 MSTORE PUSH1 0x20 ADD PUSH1 0x0 PUSH1 0x1 DUP2 GT ISZERO PUSH2 0xE66 JUMPI PUSH2 0xE65 PUSH2 0x15FA JUMP JUMPDEST JUMPDEST DUP2 MSTORE PUSH1 0x20 ADD PUSH1 0x8 SLOAD DUP2 MSTORE PUSH1 0x20 ADD PUSH1 0x0 DUP2 MSTORE PUSH1 0x20 ADD PUSH1 0x0 DUP2 MSTORE POP SWAP1 POP DUP1 PUSH1 0x6 PUSH1 0x0 PUSH1 0x8 SLOAD DUP2 MSTORE PUSH1 0x20 ADD SWAP1 DUP2 MSTORE PUSH1 0x20 ADD PUSH1 0x0 KECCAK256 PUSH1 0x0 DUP3 ADD MLOAD DUP2 PUSH1 0x0 ADD PUSH1 0x0 PUSH2 0x100 EXP DUP2 SLOAD DUP2 PUSH20 0xFFFFFFFFFFFFFFFFFFFFFFFFFFFFFFFFFFFFFFFF MUL NOT AND SWAP1 DUP4 PUSH20 0xFFFFFFFFFFFFFFFFFFFFFFFFFFFFFFFFFFFFFFFF AND MUL OR SWAP1 SSTORE POP PUSH1 0x20 DUP3 ADD MLOAD DUP2 PUSH1 0x1 ADD SSTORE PUSH1 0x40 DUP3 ADD MLOAD DUP2 PUSH1 0x2 ADD SSTORE PUSH1 0x60 DUP3 ADD MLOAD DUP2 PUSH1 0x3 ADD PUSH1 0x0 PUSH2 0x100 EXP DUP2 SLOAD DUP2 PUSH1 0xFF MUL NOT AND SWAP1 DUP4 PUSH1 0x1 DUP2 GT ISZERO PUSH2 0xF1D JUMPI PUSH2 0xF1C PUSH2 0x15FA JUMP JUMPDEST JUMPDEST MUL OR SWAP1 SSTORE POP PUSH1 0x80 DUP3 ADD MLOAD DUP2 PUSH1 0x4 ADD SSTORE PUSH1 0xA0 DUP3 ADD MLOAD DUP2 PUSH1 0x5 ADD SSTORE PUSH1 0xC0 DUP3 ADD MLOAD DUP2 PUSH1 0x6 ADD SSTORE SWAP1 POP POP PUSH32 0x93CAF6BA1AF44020DFE6076E279533E38BD8DEEFE534C43AA8CC93AAD2025B7D DUP6 DUP6 DUP6 PUSH1 0x0 PUSH1 0x8 SLOAD PUSH1 0x0 DUP1 PUSH1 0x0 PUSH1 0x40 MLOAD PUSH2 0xF85 SWAP9 SWAP8 SWAP7 SWAP6 SWAP5 SWAP4 SWAP3 SWAP2 SWAP1 PUSH2 0x1D3D JUMP JUMPDEST PUSH1 0x40 MLOAD DUP1 SWAP2 SUB SWAP1 LOG1 DUP1 SWAP2 POP POP SWAP4 SWAP3 POP POP POP JUMP JUMPDEST PUSH1 0x0 DUP1 PUSH1 0x7 SLOAD SUB PUSH2 0xFB3 JUMPI DUP2 PUSH1 0x80 ADD MLOAD PUSH1 0x7 DUP2 SWAP1 SSTORE POP PUSH2 0x1121 JUMP JUMPDEST DUP2 PUSH1 0x20 ADD MLOAD PUSH1 0x6 PUSH1 0x0 PUSH1 0x7 SLOAD DUP2 MSTORE PUSH1 0x20 ADD SWAP1 DUP2 MSTORE PUSH1 0x20 ADD PUSH1 0x0 KECCAK256 PUSH1 0x1 ADD SLOAD LT PUSH2 0x1015 JUMPI PUSH1 0x7 SLOAD DUP3 PUSH1 0xA0 ADD DUP2 DUP2 MSTORE POP POP DUP2 PUSH1 0x80 ADD MLOAD PUSH1 0x6 PUSH1 0x0 DUP5 PUSH1 0xA0 ADD MLOAD DUP2 MSTORE PUSH1 0x20 ADD SWAP1 DUP2 MSTORE PUSH1 0x20 ADD PUSH1 0x0 KECCAK256 PUSH1 0x6 ADD DUP2 SWAP1 SSTORE POP DUP2 PUSH1 0x80 ADD MLOAD PUSH1 0x7 DUP2 SWAP1 SSTORE POP PUSH2 0x1120 JUMP JUMPDEST PUSH1 0x7 SLOAD SWAP1 POP JUMPDEST PUSH1 0x0 PUSH1 0x6 PUSH1 0x0 DUP4 DUP2 MSTORE PUSH1 0x20 ADD SWAP1 DUP2 MSTORE PUSH1 0x20 ADD PUSH1 0x0 KECCAK256 PUSH1 0x5 ADD SLOAD EQ ISZERO DUP1 ISZERO PUSH2 0x1071 JUMPI POP DUP2 PUSH1 0x20 ADD MLOAD PUSH1 0x6 PUSH1 0x0 PUSH1 0x6 PUSH1 0x0 DUP6 DUP2 MSTORE PUSH1 0x20 ADD SWAP1 DUP2 MSTORE PUSH1 0x20 ADD PUSH1 0x0 KECCAK256 PUSH1 0x5 ADD SLOAD DUP2 MSTORE PUSH1 0x20 ADD SWAP1 DUP2 MSTORE PUSH1 0x20 ADD PUSH1 0x0 KECCAK256 PUSH1 0x1 ADD SLOAD LT JUMPDEST ISZERO PUSH2 0x1094 JUMPI PUSH1 0x6 PUSH1 0x0 DUP3 DUP2 MSTORE PUSH1 0x20 ADD SWAP1 DUP2 MSTORE PUSH1 0x20 ADD PUSH1 0x0 KECCAK256 PUSH1 0x5 ADD SLOAD SWAP1 POP PUSH2 0x101B JUMP JUMPDEST PUSH1 0x6 PUSH1 0x0 DUP3 DUP2 MSTORE PUSH1 0x20 ADD SWAP1 DUP2 MSTORE PUSH1 0x20 ADD PUSH1 0x0 KECCAK256 PUSH1 0x5 ADD SLOAD DUP3 PUSH1 0xA0 ADD DUP2 DUP2 MSTORE POP POP PUSH1 0x0 PUSH1 0x6 PUSH1 0x0 DUP4 DUP2 MSTORE PUSH1 0x20 ADD SWAP1 DUP2 MSTORE PUSH1 0x20 ADD PUSH1 0x0 KECCAK256 PUSH1 0x5 ADD SLOAD EQ PUSH2 0x10F6 JUMPI DUP2 PUSH1 0x80 ADD MLOAD PUSH1 0x6 PUSH1 0x0 DUP5 PUSH1 0xA0 ADD MLOAD DUP2 MSTORE PUSH1 0x20 ADD SWAP1 DUP2 MSTORE PUSH1 0x20 ADD PUSH1 0x0 KECCAK256 PUSH1 0x6 ADD DUP2 SWAP1 SSTORE POP JUMPDEST DUP2 PUSH1 0x80 ADD MLOAD PUSH1 0x6 PUSH1 0x0 DUP4 DUP2 MSTORE PUSH1 0x20 ADD SWAP1 DUP2 MSTORE PUSH1 0x20 ADD PUSH1 0x0 KECCAK256 PUSH1 0x5 ADD DUP2 SWAP1 SSTORE POP DUP1 DUP3 PUSH1 0xC0 ADD DUP2 DUP2 MSTORE POP POP JUMPDEST JUMPDEST POP POP JUMP JUMPDEST PUSH1 0x40 MLOAD DUP1 PUSH1 0xE0 ADD PUSH1 0x40 MSTORE DUP1 PUSH1 0x0 PUSH20 0xFFFFFFFFFFFFFFFFFFFFFFFFFFFFFFFFFFFFFFFF AND DUP2 MSTORE PUSH1 0x20 ADD PUSH1 0x0 DUP2 MSTORE PUSH1 0x20 ADD PUSH1 0x0 DUP2 MSTORE PUSH1 0x20 ADD PUSH1 0x0 PUSH1 0x1 DUP2 GT ISZERO PUSH2 0x116F JUMPI PUSH2 0x116E PUSH2 0x15FA JUMP JUMPDEST JUMPDEST DUP2 MSTORE PUSH1 0x20 ADD PUSH1 0x0 DUP2 MSTORE PUSH1 0x20 ADD PUSH1 0x0 DUP2 MSTORE PUSH1 0x20 ADD PUSH1 0x0 DUP2 MSTORE POP SWAP1 JUMP JUMPDEST PUSH1 0x0 PUSH1 0x40 MLOAD SWAP1 POP SWAP1 JUMP JUMPDEST PUSH1 0x0 DUP1 REVERT JUMPDEST PUSH1 0x0 DUP1 REVERT JUMPDEST PUSH1 0x0 DUP1 REVERT JUMPDEST PUSH1 0x0 DUP1 REVERT JUMPDEST PUSH1 0x0 PUSH1 0x1F NOT PUSH1 0x1F DUP4 ADD AND SWAP1 POP SWAP2 SWAP1 POP JUMP JUMPDEST PUSH32 0x4E487B7100000000000000000000000000000000000000000000000000000000 PUSH1 0x0 MSTORE PUSH1 0x41 PUSH1 0x4 MSTORE PUSH1 0x24 PUSH1 0x0 REVERT JUMPDEST PUSH2 0x11F1 DUP3 PUSH2 0x11A8 JUMP JUMPDEST DUP2 ADD DUP2 DUP2 LT PUSH8 0xFFFFFFFFFFFFFFFF DUP3 GT OR ISZERO PUSH2 0x1210 JUMPI PUSH2 0x120F PUSH2 0x11B9 JUMP JUMPDEST JUMPDEST DUP1 PUSH1 0x40 MSTORE POP POP POP JUMP JUMPDEST PUSH1 0x0 PUSH2 0x1223 PUSH2 0x118A JUMP JUMPDEST SWAP1 POP PUSH2 0x122F DUP3 DUP3 PUSH2 0x11E8 JUMP JUMPDEST SWAP2 SWAP1 POP JUMP JUMPDEST PUSH1 0x0 PUSH8 0xFFFFFFFFFFFFFFFF DUP3 GT ISZERO PUSH2 0x124F JUMPI PUSH2 0x124E PUSH2 0x11B9 JUMP JUMPDEST JUMPDEST PUSH2 0x1258 DUP3 PUSH2 0x11A8 JUMP JUMPDEST SWAP1 POP PUSH1 0x20 DUP2 ADD SWAP1 POP SWAP2 SWAP1 POP JUMP JUMPDEST DUP3 DUP2 DUP4 CALLDATACOPY PUSH1 0x0 DUP4 DUP4 ADD MSTORE POP POP POP JUMP JUMPDEST PUSH1 0x0 PUSH2 0x1287 PUSH2 0x1282 DUP5 PUSH2 0x1234 JUMP JUMPDEST PUSH2 0x1219 JUMP JUMPDEST SWAP1 POP DUP3 DUP2 MSTORE PUSH1 0x20 DUP2 ADD DUP5 DUP5 DUP5 ADD GT ISZERO PUSH2 0x12A3 JUMPI PUSH2 0x12A2 PUSH2 0x11A3 JUMP JUMPDEST JUMPDEST PUSH2 0x12AE DUP5 DUP3 DUP6 PUSH2 0x1265 JUMP JUMPDEST POP SWAP4 SWAP3 POP POP POP JUMP JUMPDEST PUSH1 0x0 DUP3 PUSH1 0x1F DUP4 ADD SLT PUSH2 0x12CB JUMPI PUSH2 0x12CA PUSH2 0x119E JUMP JUMPDEST JUMPDEST DUP2 CALLDATALOAD PUSH2 0x12DB DUP5 DUP3 PUSH1 0x20 DUP7 ADD PUSH2 0x1274 JUMP JUMPDEST SWAP2 POP POP SWAP3 SWAP2 POP POP JUMP JUMPDEST PUSH1 0x0 DUP2 SWAP1 POP SWAP2 SWAP1 POP JUMP JUMPDEST PUSH2 0x12F7 DUP2 PUSH2 0x12E4 JUMP JUMPDEST DUP2 EQ PUSH2 0x1302 JUMPI PUSH1 0x0 DUP1 REVERT JUMPDEST POP JUMP JUMPDEST PUSH1 0x0 DUP2 CALLDATALOAD SWAP1 POP PUSH2 0x1314 DUP2 PUSH2 0x12EE JUMP JUMPDEST SWAP3 SWAP2 POP POP JUMP JUMPDEST PUSH1 0x0 DUP1 PUSH1 0x40 DUP4 DUP6 SUB SLT ISZERO PUSH2 0x1331 JUMPI PUSH2 0x1330 PUSH2 0x1194 JUMP JUMPDEST JUMPDEST PUSH1 0x0 DUP4 ADD CALLDATALOAD PUSH8 0xFFFFFFFFFFFFFFFF DUP2 GT ISZERO PUSH2 0x134F JUMPI PUSH2 0x134E PUSH2 0x1199 JUMP JUMPDEST JUMPDEST PUSH2 0x135B DUP6 DUP3 DUP7 ADD PUSH2 0x12B6 JUMP JUMPDEST SWAP3 POP POP PUSH1 0x20 PUSH2 0x136C DUP6 DUP3 DUP7 ADD PUSH2 0x1305 JUMP JUMPDEST SWAP2 POP POP SWAP3 POP SWAP3 SWAP1 POP JUMP JUMPDEST PUSH1 0x0 DUP2 MLOAD SWAP1 POP SWAP2 SWAP1 POP JUMP JUMPDEST PUSH1 0x0 DUP3 DUP3 MSTORE PUSH1 0x20 DUP3 ADD SWAP1 POP SWAP3 SWAP2 POP POP JUMP JUMPDEST PUSH1 0x0 JUMPDEST DUP4 DUP2 LT ISZERO PUSH2 0x13B0 JUMPI DUP1 DUP3 ADD MLOAD DUP2 DUP5 ADD MSTORE PUSH1 0x20 DUP2 ADD SWAP1 POP PUSH2 0x1395 JUMP JUMPDEST DUP4 DUP2 GT ISZERO PUSH2 0x13BF JUMPI PUSH1 0x0 DUP5 DUP5 ADD MSTORE JUMPDEST POP POP POP POP JUMP JUMPDEST PUSH1 0x0 PUSH2 0x13D0 DUP3 PUSH2 0x1376 JUMP JUMPDEST PUSH2 0x13DA DUP2 DUP6 PUSH2 0x1381 JUMP JUMPDEST SWAP4 POP PUSH2 0x13EA DUP2 DUP6 PUSH1 0x20 DUP7 ADD PUSH2 0x1392 JUMP JUMPDEST PUSH2 0x13F3 DUP2 PUSH2 0x11A8 JUMP JUMPDEST DUP5 ADD SWAP2 POP POP SWAP3 SWAP2 POP POP JUMP JUMPDEST PUSH1 0x0 PUSH1 0x20 DUP3 ADD SWAP1 POP DUP2 DUP2 SUB PUSH1 0x0 DUP4 ADD MSTORE PUSH2 0x1418 DUP2 DUP5 PUSH2 0x13C5 JUMP JUMPDEST SWAP1 POP SWAP3 SWAP2 POP POP JUMP JUMPDEST PUSH1 0x0 DUP2 MLOAD SWAP1 POP SWAP2 SWAP1 POP JUMP JUMPDEST PUSH1 0x0 DUP3 DUP3 MSTORE PUSH1 0x20 DUP3 ADD SWAP1 POP SWAP3 SWAP2 POP POP JUMP JUMPDEST PUSH1 0x0 DUP2 SWAP1 POP PUSH1 0x20 DUP3 ADD SWAP1 POP SWAP2 SWAP1 POP JUMP JUMPDEST PUSH1 0x0 DUP2 SWAP1 POP SWAP2 SWAP1 POP JUMP JUMPDEST PUSH2 0x145F DUP2 PUSH2 0x144C JUMP JUMPDEST DUP3 MSTORE POP POP JUMP JUMPDEST PUSH1 0x0 PUSH2 0x1471 DUP4 DUP4 PUSH2 0x1456 JUMP JUMPDEST PUSH1 0x20 DUP4 ADD SWAP1 POP SWAP3 SWAP2 POP POP JUMP JUMPDEST PUSH1 0x0 PUSH1 0x20 DUP3 ADD SWAP1 POP SWAP2 SWAP1 POP JUMP JUMPDEST PUSH1 0x0 PUSH2 0x1495 DUP3 PUSH2 0x1420 JUMP JUMPDEST PUSH2 0x149F DUP2 DUP6 PUSH2 0x142B JUMP JUMPDEST SWAP4 POP PUSH2 0x14AA DUP4 PUSH2 0x143C JUMP JUMPDEST DUP1 PUSH1 0x0 JUMPDEST DUP4 DUP2 LT ISZERO PUSH2 0x14DB JUMPI DUP2 MLOAD PUSH2 0x14C2 DUP9 DUP3 PUSH2 0x1465 JUMP JUMPDEST SWAP8 POP PUSH2 0x14CD DUP4 PUSH2 0x147D JUMP JUMPDEST SWAP3 POP POP PUSH1 0x1 DUP2 ADD SWAP1 POP PUSH2 0x14AE JUMP JUMPDEST POP DUP6 SWAP4 POP POP POP POP SWAP3 SWAP2 POP POP JUMP JUMPDEST PUSH1 0x0 PUSH1 0x20 DUP3 ADD SWAP1 POP DUP2 DUP2 SUB PUSH1 0x0 DUP4 ADD MSTORE PUSH2 0x1502 DUP2 DUP5 PUSH2 0x148A JUMP JUMPDEST SWAP1 POP SWAP3 SWAP2 POP POP JUMP JUMPDEST PUSH2 0x1513 DUP2 PUSH2 0x144C JUMP JUMPDEST DUP2 EQ PUSH2 0x151E JUMPI PUSH1 0x0 DUP1 REVERT JUMPDEST POP JUMP JUMPDEST PUSH1 0x0 DUP2 CALLDATALOAD SWAP1 POP PUSH2 0x1530 DUP2 PUSH2 0x150A JUMP JUMPDEST SWAP3 SWAP2 POP POP JUMP JUMPDEST PUSH1 0x0 PUSH1 0x20 DUP3 DUP5 SUB SLT ISZERO PUSH2 0x154C JUMPI PUSH2 0x154B PUSH2 0x1194 JUMP JUMPDEST JUMPDEST PUSH1 0x0 PUSH2 0x155A DUP5 DUP3 DUP6 ADD PUSH2 0x1521 JUMP JUMPDEST SWAP2 POP POP SWAP3 SWAP2 POP POP JUMP JUMPDEST PUSH2 0x156C DUP2 PUSH2 0x144C JUMP JUMPDEST DUP3 MSTORE POP POP JUMP JUMPDEST PUSH1 0x0 PUSH1 0x20 DUP3 ADD SWAP1 POP PUSH2 0x1587 PUSH1 0x0 DUP4 ADD DUP5 PUSH2 0x1563 JUMP JUMPDEST SWAP3 SWAP2 POP POP JUMP JUMPDEST PUSH1 0x0 DUP2 MLOAD SWAP1 POP SWAP2 SWAP1 POP JUMP JUMPDEST PUSH1 0x0 DUP3 DUP3 MSTORE PUSH1 0x20 DUP3 ADD SWAP1 POP SWAP3 SWAP2 POP POP JUMP JUMPDEST PUSH1 0x0 DUP2 SWAP1 POP PUSH1 0x20 DUP3 ADD SWAP1 POP SWAP2 SWAP1 POP JUMP JUMPDEST PUSH1 0x0 PUSH20 0xFFFFFFFFFFFFFFFFFFFFFFFFFFFFFFFFFFFFFFFF DUP3 AND SWAP1 POP SWAP2 SWAP1 POP JUMP JUMPDEST PUSH1 0x0 PUSH2 0x15E4 DUP3 PUSH2 0x15B9 JUMP JUMPDEST SWAP1 POP SWAP2 SWAP1 POP JUMP JUMPDEST PUSH2 0x15F4 DUP2 PUSH2 0x15D9 JUMP JUMPDEST DUP3 MSTORE POP POP JUMP JUMPDEST PUSH32 0x4E487B7100000000000000000000000000000000000000000000000000000000 PUSH1 0x0 MSTORE PUSH1 0x21 PUSH1 0x4 MSTORE PUSH1 0x24 PUSH1 0x0 REVERT JUMPDEST PUSH1 0x2 DUP2 LT PUSH2 0x163A JUMPI PUSH2 0x1639 PUSH2 0x15FA JUMP JUMPDEST JUMPDEST POP JUMP JUMPDEST PUSH1 0x0 DUP2 SWAP1 POP PUSH2 0x164B DUP3 PUSH2 0x1629 JUMP JUMPDEST SWAP2 SWAP1 POP JUMP JUMPDEST PUSH1 0x0 PUSH2 0x165B DUP3 PUSH2 0x163D JUMP JUMPDEST SWAP1 POP SWAP2 SWAP1 POP JUMP JUMPDEST PUSH2 0x166B DUP2 PUSH2 0x1650 JUMP JUMPDEST DUP3 MSTORE POP POP JUMP JUMPDEST PUSH1 0xE0 DUP3 ADD PUSH1 0x0 DUP3 ADD MLOAD PUSH2 0x1687 PUSH1 0x0 DUP6 ADD DUP3 PUSH2 0x15EB JUMP JUMPDEST POP PUSH1 0x20 DUP3 ADD MLOAD PUSH2 0x169A PUSH1 0x20 DUP6 ADD DUP3 PUSH2 0x1456 JUMP JUMPDEST POP PUSH1 0x40 DUP3 ADD MLOAD PUSH2 0x16AD PUSH1 0x40 DUP6 ADD DUP3 PUSH2 0x1456 JUMP JUMPDEST POP PUSH1 0x60 DUP3 ADD MLOAD PUSH2 0x16C0 PUSH1 0x60 DUP6 ADD DUP3 PUSH2 0x1662 JUMP JUMPDEST POP PUSH1 0x80 DUP3 ADD MLOAD PUSH2 0x16D3 PUSH1 0x80 DUP6 ADD DUP3 PUSH2 0x1456 JUMP JUMPDEST POP PUSH1 0xA0 DUP3 ADD MLOAD PUSH2 0x16E6 PUSH1 0xA0 DUP6 ADD DUP3 PUSH2 0x1456 JUMP JUMPDEST POP PUSH1 0xC0 DUP3 ADD MLOAD PUSH2 0x16F9 PUSH1 0xC0 DUP6 ADD DUP3 PUSH2 0x1456 JUMP JUMPDEST POP POP POP POP JUMP JUMPDEST PUSH1 0x0 PUSH2 0x170B DUP4 DUP4 PUSH2 0x1671 JUMP JUMPDEST PUSH1 0xE0 DUP4 ADD SWAP1 POP SWAP3 SWAP2 POP POP JUMP JUMPDEST PUSH1 0x0 PUSH1 0x20 DUP3 ADD SWAP1 POP SWAP2 SWAP1 POP JUMP JUMPDEST PUSH1 0x0 PUSH2 0x172F DUP3 PUSH2 0x158D JUMP JUMPDEST PUSH2 0x1739 DUP2 DUP6 PUSH2 0x1598 JUMP JUMPDEST SWAP4 POP PUSH2 0x1744 DUP4 PUSH2 0x15A9 JUMP JUMPDEST DUP1 PUSH1 0x0 JUMPDEST DUP4 DUP2 LT ISZERO PUSH2 0x1775 JUMPI DUP2 MLOAD PUSH2 0x175C DUP9 DUP3 PUSH2 0x16FF JUMP JUMPDEST SWAP8 POP PUSH2 0x1767 DUP4 PUSH2 0x1717 JUMP JUMPDEST SWAP3 POP POP PUSH1 0x1 DUP2 ADD SWAP1 POP PUSH2 0x1748 JUMP JUMPDEST POP DUP6 SWAP4 POP POP POP POP SWAP3 SWAP2 POP POP JUMP JUMPDEST PUSH1 0x0 PUSH1 0x20 DUP3 ADD SWAP1 POP DUP2 DUP2 SUB PUSH1 0x0 DUP4 ADD MSTORE PUSH2 0x179C DUP2 DUP5 PUSH2 0x1724 JUMP JUMPDEST SWAP1 POP SWAP3 SWAP2 POP POP JUMP JUMPDEST PUSH2 0x17AD DUP2 PUSH2 0x1650 JUMP JUMPDEST DUP3 MSTORE POP POP JUMP JUMPDEST PUSH1 0x0 PUSH1 0x20 DUP3 ADD SWAP1 POP PUSH2 0x17C8 PUSH1 0x0 DUP4 ADD DUP5 PUSH2 0x17A4 JUMP JUMPDEST SWAP3 SWAP2 POP POP JUMP JUMPDEST PUSH2 0x17D7 DUP2 PUSH2 0x15D9 JUMP JUMPDEST DUP3 MSTORE POP POP JUMP JUMPDEST PUSH1 0x0 PUSH1 0x20 DUP3 ADD SWAP1 POP PUSH2 0x17F2 PUSH1 0x0 DUP4 ADD DUP5 PUSH2 0x17CE JUMP JUMPDEST SWAP3 SWAP2 POP POP JUMP JUMPDEST PUSH1 0x0 DUP2 ISZERO ISZERO SWAP1 POP SWAP2 SWAP1 POP JUMP JUMPDEST PUSH2 0x180D DUP2 PUSH2 0x17F8 JUMP JUMPDEST DUP3 MSTORE POP POP JUMP JUMPDEST PUSH1 0x0 PUSH2 0x100 DUP3 ADD SWAP1 POP PUSH2 0x1829 PUSH1 0x0 DUP4 ADD DUP12 PUSH2 0x17CE JUMP JUMPDEST PUSH2 0x1836 PUSH1 0x20 DUP4 ADD DUP11 PUSH2 0x1563 JUMP JUMPDEST PUSH2 0x1843 PUSH1 0x40 DUP4 ADD DUP10 PUSH2 0x1563 JUMP JUMPDEST PUSH2 0x1850 PUSH1 0x60 DUP4 ADD DUP9 PUSH2 0x17A4 JUMP JUMPDEST PUSH2 0x185D PUSH1 0x80 DUP4 ADD DUP8 PUSH2 0x1563 JUMP JUMPDEST PUSH2 0x186A PUSH1 0xA0 DUP4 ADD DUP7 PUSH2 0x1563 JUMP JUMPDEST PUSH2 0x1877 PUSH1 0xC0 DUP4 ADD DUP6 PUSH2 0x1563 JUMP JUMPDEST PUSH2 0x1884 PUSH1 0xE0 DUP4 ADD DUP5 PUSH2 0x1804 JUMP JUMPDEST SWAP10 SWAP9 POP POP POP POP POP POP POP POP POP JUMP JUMPDEST PUSH1 0x0 DUP2 MLOAD SWAP1 POP SWAP2 SWAP1 POP JUMP JUMPDEST PUSH1 0x0 DUP2 SWAP1 POP SWAP3 SWAP2 POP POP JUMP JUMPDEST PUSH1 0x0 PUSH2 0x18B2 DUP3 PUSH2 0x1891 JUMP JUMPDEST PUSH2 0x18BC DUP2 DUP6 PUSH2 0x189C JUMP JUMPDEST SWAP4 POP PUSH2 0x18CC DUP2 DUP6 PUSH1 0x20 DUP7 ADD PUSH2 0x1392 JUMP JUMPDEST DUP1 DUP5 ADD SWAP2 POP POP SWAP3 SWAP2 POP POP JUMP JUMPDEST PUSH32 0x2000000000000000000000000000000000000000000000000000000000000000 DUP2 MSTORE POP JUMP JUMPDEST PUSH1 0x0 DUP2 SWAP1 POP SWAP2 SWAP1 POP JUMP JUMPDEST PUSH2 0x1919 PUSH2 0x1914 DUP3 PUSH2 0x12E4 JUMP JUMPDEST PUSH2 0x18FE JUMP JUMPDEST DUP3 MSTORE POP POP JUMP JUMPDEST PUSH1 0x0 PUSH2 0x192B DUP3 DUP6 PUSH2 0x18A7 JUMP JUMPDEST SWAP2 POP PUSH2 0x1936 DUP3 PUSH2 0x18D8 JUMP JUMPDEST PUSH1 0x1 DUP3 ADD SWAP2 POP PUSH2 0x1946 DUP3 DUP5 PUSH2 0x1908 JUMP JUMPDEST PUSH1 0x20 DUP3 ADD SWAP2 POP DUP2 SWAP1 POP SWAP4 SWAP3 POP POP POP JUMP JUMPDEST PUSH32 0x4F726465722050656E64696E6700000000000000000000000000000000000000 PUSH1 0x0 DUP3 ADD MSTORE POP JUMP JUMPDEST PUSH1 0x0 PUSH2 0x198C PUSH1 0xD DUP4 PUSH2 0x1381 JUMP JUMPDEST SWAP2 POP PUSH2 0x1997 DUP3 PUSH2 0x1956 JUMP JUMPDEST PUSH1 0x20 DUP3 ADD SWAP1 POP SWAP2 SWAP1 POP JUMP JUMPDEST PUSH1 0x0 PUSH1 0x20 DUP3 ADD SWAP1 POP DUP2 DUP2 SUB PUSH1 0x0 DUP4 ADD MSTORE PUSH2 0x19BB DUP2 PUSH2 0x197F JUMP JUMPDEST SWAP1 POP SWAP2 SWAP1 POP JUMP JUMPDEST PUSH32 0x4E6F7420417574686F7269736564000000000000000000000000000000000000 PUSH1 0x0 DUP3 ADD MSTORE POP JUMP JUMPDEST PUSH1 0x0 PUSH2 0x19F8 PUSH1 0xE DUP4 PUSH2 0x1381 JUMP JUMPDEST SWAP2 POP PUSH2 0x1A03 DUP3 PUSH2 0x19C2 JUMP JUMPDEST PUSH1 0x20 DUP3 ADD SWAP1 POP SWAP2 SWAP1 POP JUMP JUMPDEST PUSH1 0x0 PUSH1 0x20 DUP3 ADD SWAP1 POP DUP2 DUP2 SUB PUSH1 0x0 DUP4 ADD MSTORE PUSH2 0x1A27 DUP2 PUSH2 0x19EB JUMP JUMPDEST SWAP1 POP SWAP2 SWAP1 POP JUMP JUMPDEST PUSH32 0x70726963652076616C7565206D757374206265206D6F7265207468616E203000 PUSH1 0x0 DUP3 ADD MSTORE POP JUMP JUMPDEST PUSH1 0x0 PUSH2 0x1A64 PUSH1 0x1F DUP4 PUSH2 0x1381 JUMP JUMPDEST SWAP2 POP PUSH2 0x1A6F DUP3 PUSH2 0x1A2E JUMP JUMPDEST PUSH1 0x20 DUP3 ADD SWAP1 POP SWAP2 SWAP1 POP JUMP JUMPDEST PUSH1 0x0 PUSH1 0x20 DUP3 ADD SWAP1 POP DUP2 DUP2 SUB PUSH1 0x0 DUP4 ADD MSTORE PUSH2 0x1A93 DUP2 PUSH2 0x1A57 JUMP JUMPDEST SWAP1 POP SWAP2 SWAP1 POP JUMP JUMPDEST PUSH32 0x4E6F7420656E6F75676820626C616E636520746F20706C6163652061736B0000 PUSH1 0x0 DUP3 ADD MSTORE POP JUMP JUMPDEST PUSH1 0x0 PUSH2 0x1AD0 PUSH1 0x1E DUP4 PUSH2 0x1381 JUMP JUMPDEST SWAP2 POP PUSH2 0x1ADB DUP3 PUSH2 0x1A9A JUMP JUMPDEST PUSH1 0x20 DUP3 ADD SWAP1 POP SWAP2 SWAP1 POP JUMP JUMPDEST PUSH1 0x0 PUSH1 0x20 DUP3 ADD SWAP1 POP DUP2 DUP2 SUB PUSH1 0x0 DUP4 ADD MSTORE PUSH2 0x1AFF DUP2 PUSH2 0x1AC3 JUMP JUMPDEST SWAP1 POP SWAP2 SWAP1 POP JUMP JUMPDEST PUSH32 0x4E487B7100000000000000000000000000000000000000000000000000000000 PUSH1 0x0 MSTORE PUSH1 0x11 PUSH1 0x4 MSTORE PUSH1 0x24 PUSH1 0x0 REVERT JUMPDEST PUSH1 0x0 PUSH2 0x1B40 DUP3 PUSH2 0x144C JUMP JUMPDEST SWAP2 POP PUSH2 0x1B4B DUP4 PUSH2 0x144C JUMP JUMPDEST SWAP3 POP DUP3 DUP3 LT ISZERO PUSH2 0x1B5E JUMPI PUSH2 0x1B5D PUSH2 0x1B06 JUMP JUMPDEST JUMPDEST DUP3 DUP3 SUB SWAP1 POP SWAP3 SWAP2 POP POP JUMP JUMPDEST PUSH1 0x0 PUSH2 0x1B74 DUP3 PUSH2 0x144C JUMP JUMPDEST SWAP2 POP PUSH2 0x1B7F DUP4 PUSH2 0x144C JUMP JUMPDEST SWAP3 POP DUP2 PUSH32 0xFFFFFFFFFFFFFFFFFFFFFFFFFFFFFFFFFFFFFFFFFFFFFFFFFFFFFFFFFFFFFFFF DIV DUP4 GT DUP3 ISZERO ISZERO AND ISZERO PUSH2 0x1BB8 JUMPI PUSH2 0x1BB7 PUSH2 0x1B06 JUMP JUMPDEST JUMPDEST DUP3 DUP3 MUL SWAP1 POP SWAP3 SWAP2 POP POP JUMP JUMPDEST PUSH32 0x4E487B7100000000000000000000000000000000000000000000000000000000 PUSH1 0x0 MSTORE PUSH1 0x12 PUSH1 0x4 MSTORE PUSH1 0x24 PUSH1 0x0 REVERT JUMPDEST PUSH1 0x0 PUSH2 0x1BFD DUP3 PUSH2 0x144C JUMP JUMPDEST SWAP2 POP PUSH2 0x1C08 DUP4 PUSH2 0x144C JUMP JUMPDEST SWAP3 POP DUP3 PUSH2 0x1C18 JUMPI PUSH2 0x1C17 PUSH2 0x1BC3 JUMP JUMPDEST JUMPDEST DUP3 DUP3 DIV SWAP1 POP SWAP3 SWAP2 POP POP JUMP JUMPDEST PUSH32 0x4E6F7420656E6F75676820626C616E636520746F20706C616365206269640000 PUSH1 0x0 DUP3 ADD MSTORE POP JUMP JUMPDEST PUSH1 0x0 PUSH2 0x1C59 PUSH1 0x1E DUP4 PUSH2 0x1381 JUMP JUMPDEST SWAP2 POP PUSH2 0x1C64 DUP3 PUSH2 0x1C23 JUMP JUMPDEST PUSH1 0x20 DUP3 ADD SWAP1 POP SWAP2 SWAP1 POP JUMP JUMPDEST PUSH1 0x0 PUSH1 0x20 DUP3 ADD SWAP1 POP DUP2 DUP2 SUB PUSH1 0x0 DUP4 ADD MSTORE PUSH2 0x1C88 DUP2 PUSH2 0x1C4C JUMP JUMPDEST SWAP1 POP SWAP2 SWAP1 POP JUMP JUMPDEST PUSH1 0x0 PUSH2 0x1C9A DUP3 PUSH2 0x144C JUMP JUMPDEST SWAP2 POP PUSH32 0xFFFFFFFFFFFFFFFFFFFFFFFFFFFFFFFFFFFFFFFFFFFFFFFFFFFFFFFFFFFFFFFF DUP3 SUB PUSH2 0x1CCC JUMPI PUSH2 0x1CCB PUSH2 0x1B06 JUMP JUMPDEST JUMPDEST PUSH1 0x1 DUP3 ADD SWAP1 POP SWAP2 SWAP1 POP JUMP JUMPDEST PUSH1 0x0 PUSH2 0x1CE2 DUP3 PUSH2 0x15B9 JUMP JUMPDEST SWAP1 POP SWAP2 SWAP1 POP JUMP JUMPDEST PUSH2 0x1CF2 DUP2 PUSH2 0x1CD7 JUMP JUMPDEST DUP3 MSTORE POP POP JUMP JUMPDEST PUSH1 0x0 DUP2 SWAP1 POP SWAP2 SWAP1 POP JUMP JUMPDEST PUSH1 0x0 DUP2 SWAP1 POP SWAP2 SWAP1 POP JUMP JUMPDEST PUSH1 0x0 PUSH2 0x1D27 PUSH2 0x1D22 PUSH2 0x1D1D DUP5 PUSH2 0x1CF8 JUMP JUMPDEST PUSH2 0x1D02 JUMP JUMPDEST PUSH2 0x144C JUMP JUMPDEST SWAP1 POP SWAP2 SWAP1 POP JUMP JUMPDEST PUSH2 0x1D37 DUP2 PUSH2 0x1D0C JUMP JUMPDEST DUP3 MSTORE POP POP JUMP JUMPDEST PUSH1 0x0 PUSH2 0x100 DUP3 ADD SWAP1 POP PUSH2 0x1D53 PUSH1 0x0 DUP4 ADD DUP12 PUSH2 0x1CE9 JUMP JUMPDEST PUSH2 0x1D60 PUSH1 0x20 DUP4 ADD DUP11 PUSH2 0x1563 JUMP JUMPDEST PUSH2 0x1D6D PUSH1 0x40 DUP4 ADD DUP10 PUSH2 0x1563 JUMP JUMPDEST PUSH2 0x1D7A PUSH1 0x60 DUP4 ADD DUP9 PUSH2 0x17A4 JUMP JUMPDEST PUSH2 0x1D87 PUSH1 0x80 DUP4 ADD DUP8 PUSH2 0x1563 JUMP JUMPDEST PUSH2 0x1D94 PUSH1 0xA0 DUP4 ADD DUP7 PUSH2 0x1D2E JUMP JUMPDEST PUSH2 0x1DA1 PUSH1 0xC0 DUP4 ADD DUP6 PUSH2 0x1D2E JUMP JUMPDEST PUSH2 0x1DAE PUSH1 0xE0 DUP4 ADD DUP5 PUSH2 0x1804 JUMP JUMPDEST SWAP10 SWAP9 POP POP POP POP POP POP POP POP POP JUMP INVALID LOG2 PUSH5 0x6970667358 0x22 SLT KECCAK256 PUSH8 0xB776BA5542197A15 MUL 0xE 0x27 BLOCKHASH SHL PUSH21 0xDBFA2803D3A7B482CD16E623C1E1D9292F64736F6C PUSH4 0x4300080D STOP CALLER "
				},
				"gasEstimates": {
					"creation": {
						"codeDepositCost": "1533000",
						"executionCost": "infinite",
						"totalCost": "infinite"
					},
					"external": {
						"askCount()": "2540",
						"askHead()": "2474",
						"bidCount()": "2451",
						"bidHead()": "2518",
						"cancelAsk(uint256)": "31111",
						"cancelBid(uint256)": "31110",
						"concatenate(string,bytes32)": "infinite",
						"fetchAllBid()": "infinite",
						"fetchAsk()": "infinite",
						"fetchYourAskIds()": "infinite",
						"fetchYourBidIds()": "infinite",
						"getAskAddress(uint256)": "2982",
						"getAskState(uint256)": "2962",
						"getAskValue(uint256)": "infinite",
						"getBidAddress(uint256)": "2938",
						"getBidState(uint256)": "2961",
						"getBidValue(uint256)": "infinite",
						"getOrder(uint256)": "infinite",
						"placeAsk(uint256)": "infinite",
						"placeBid(uint256)": "809",
						"testString()": "infinite"
					},
					"internal": {
						"askBid(uint256,uint256)": "infinite",
						"createAsk(address,uint256,uint256)": "infinite",
						"createBid(address,uint256,uint256)": "infinite",
						"insertionSortAsk()": "infinite",
						"linkBid(uint256,uint256)": "infinite",
						"setAskHead(uint256)": "infinite",
						"setBidHead(uint256)": "infinite",
						"sortAsk(struct OrderBook.order memory)": "infinite"
					}
				},
				"methodIdentifiers": {
					"askCount()": "a394fda7",
					"askHead()": "801d9bbd",
					"bidCount()": "b40a5627",
					"bidHead()": "6e5b0f00",
					"cancelAsk(uint256)": "1628e0f5",
					"cancelBid(uint256)": "9703ef35",
					"concatenate(string,bytes32)": "0a7e4904",
					"fetchAllBid()": "4471417f",
					"fetchAsk()": "44e791e0",
					"fetchYourAskIds()": "122de8f2",
					"fetchYourBidIds()": "ce0cdc87",
					"getAskAddress(uint256)": "734a2e78",
					"getAskState(uint256)": "4d46712d",
					"getAskValue(uint256)": "db3a1396",
					"getBidAddress(uint256)": "69f632e2",
					"getBidState(uint256)": "bf77ffae",
					"getBidValue(uint256)": "2db6dfa7",
					"getOrder(uint256)": "d09ef241",
					"placeAsk(uint256)": "78c5b268",
					"placeBid(uint256)": "9979ef45",
					"testString()": "fb8f0f59"
				}
			},
			"storageLayout": {
				"storage": [
					{
						"astId": 8,
						"contract": "contracts/OrderBook.sol:OrderBook",
						"label": "bidValues",
						"offset": 0,
						"slot": "0",
						"type": "t_mapping(t_uint256,t_uint256)"
					},
					{
						"astId": 15,
						"contract": "contracts/OrderBook.sol:OrderBook",
						"label": "_owner",
						"offset": 0,
						"slot": "1",
						"type": "t_address_payable"
					},
					{
						"astId": 17,
						"contract": "contracts/OrderBook.sol:OrderBook",
						"label": "commission",
						"offset": 0,
						"slot": "2",
						"type": "t_uint256"
					},
					{
						"astId": 38,
						"contract": "contracts/OrderBook.sol:OrderBook",
						"label": "bidBook",
						"offset": 0,
						"slot": "3",
						"type": "t_mapping(t_uint256,t_struct(order)33_storage)"
					},
					{
						"astId": 40,
						"contract": "contracts/OrderBook.sol:OrderBook",
						"label": "bidHead",
						"offset": 0,
						"slot": "4",
						"type": "t_uint256"
					},
					{
						"astId": 42,
						"contract": "contracts/OrderBook.sol:OrderBook",
						"label": "bidCount",
						"offset": 0,
						"slot": "5",
						"type": "t_uint256"
					},
					{
						"astId": 47,
						"contract": "contracts/OrderBook.sol:OrderBook",
						"label": "askBook",
						"offset": 0,
						"slot": "6",
						"type": "t_mapping(t_uint256,t_struct(order)33_storage)"
					},
					{
						"astId": 49,
						"contract": "contracts/OrderBook.sol:OrderBook",
						"label": "askHead",
						"offset": 0,
						"slot": "7",
						"type": "t_uint256"
					},
					{
						"astId": 51,
						"contract": "contracts/OrderBook.sol:OrderBook",
						"label": "askCount",
						"offset": 0,
						"slot": "8",
						"type": "t_uint256"
					}
				],
				"types": {
					"t_address_payable": {
						"encoding": "inplace",
						"label": "address payable",
						"numberOfBytes": "20"
					},
					"t_enum(State)4": {
						"encoding": "inplace",
						"label": "enum OrderBook.State",
						"numberOfBytes": "1"
					},
					"t_mapping(t_uint256,t_struct(order)33_storage)": {
						"encoding": "mapping",
						"key": "t_uint256",
						"label": "mapping(uint256 => struct OrderBook.order)",
						"numberOfBytes": "32",
						"value": "t_struct(order)33_storage"
					},
					"t_mapping(t_uint256,t_uint256)": {
						"encoding": "mapping",
						"key": "t_uint256",
						"label": "mapping(uint256 => uint256)",
						"numberOfBytes": "32",
						"value": "t_uint256"
					},
					"t_struct(order)33_storage": {
						"encoding": "inplace",
						"label": "struct OrderBook.order",
						"members": [
							{
								"astId": 19,
								"contract": "contracts/OrderBook.sol:OrderBook",
								"label": "customer",
								"offset": 0,
								"slot": "0",
								"type": "t_address_payable"
							},
							{
								"astId": 21,
								"contract": "contracts/OrderBook.sol:OrderBook",
								"label": "value",
								"offset": 0,
								"slot": "1",
								"type": "t_uint256"
							},
							{
								"astId": 23,
								"contract": "contracts/OrderBook.sol:OrderBook",
								"label": "timestamp",
								"offset": 0,
								"slot": "2",
								"type": "t_uint256"
							},
							{
								"astId": 26,
								"contract": "contracts/OrderBook.sol:OrderBook",
								"label": "state",
								"offset": 0,
								"slot": "3",
								"type": "t_enum(State)4"
							},
							{
								"astId": 28,
								"contract": "contracts/OrderBook.sol:OrderBook",
								"label": "id",
								"offset": 0,
								"slot": "4",
								"type": "t_uint256"
							},
							{
								"astId": 30,
								"contract": "contracts/OrderBook.sol:OrderBook",
								"label": "next",
								"offset": 0,
								"slot": "5",
								"type": "t_uint256"
							},
							{
								"astId": 32,
								"contract": "contracts/OrderBook.sol:OrderBook",
								"label": "prev",
								"offset": 0,
								"slot": "6",
								"type": "t_uint256"
							}
						],
						"numberOfBytes": "224"
					},
					"t_uint256": {
						"encoding": "inplace",
						"label": "uint256",
						"numberOfBytes": "32"
					}
				}
			},
			"userdoc": {
				"kind": "user",
				"methods": {},
				"version": 1
			}
		}
	}
}