{
	"contracts/OrderBook.sol": {
		"OrderBook": {
			"abi": [
				{
					"inputs": [
						{
							"internalType": "uint256",
							"name": "_commission",
							"type": "uint256"
						}
					],
					"stateMutability": "nonpayable",
					"type": "constructor"
				},
				{
					"anonymous": false,
					"inputs": [
						{
							"indexed": false,
							"internalType": "uint256",
							"name": "",
							"type": "uint256"
						},
						{
							"indexed": false,
							"internalType": "uint256",
							"name": "",
							"type": "uint256"
						}
					],
					"name": "askLink",
					"type": "event"
				},
				{
					"anonymous": false,
					"inputs": [
						{
							"indexed": false,
							"internalType": "uint256",
							"name": "",
							"type": "uint256"
						},
						{
							"indexed": false,
							"internalType": "uint256",
							"name": "",
							"type": "uint256"
						}
					],
					"name": "bidLink",
					"type": "event"
				},
				{
					"anonymous": false,
					"inputs": [
						{
							"indexed": false,
							"internalType": "uint256",
							"name": "",
							"type": "uint256"
						}
					],
					"name": "newHead",
					"type": "event"
				},
				{
					"anonymous": false,
					"inputs": [
						{
							"indexed": false,
							"internalType": "uint256",
							"name": "",
							"type": "uint256"
						}
					],
					"name": "newTail",
					"type": "event"
				},
				{
					"anonymous": false,
					"inputs": [
						{
							"indexed": false,
							"internalType": "address",
							"name": "",
							"type": "address"
						},
						{
							"indexed": false,
							"internalType": "uint256",
							"name": "",
							"type": "uint256"
						},
						{
							"indexed": false,
							"internalType": "uint256",
							"name": "",
							"type": "uint256"
						},
						{
							"indexed": false,
							"internalType": "enum OrderBook.State",
							"name": "",
							"type": "uint8"
						},
						{
							"indexed": false,
							"internalType": "uint256",
							"name": "",
							"type": "uint256"
						},
						{
							"indexed": false,
							"internalType": "uint256",
							"name": "",
							"type": "uint256"
						},
						{
							"indexed": false,
							"internalType": "uint256",
							"name": "",
							"type": "uint256"
						},
						{
							"indexed": false,
							"internalType": "bool",
							"name": "",
							"type": "bool"
						}
					],
					"name": "orderCreated",
					"type": "event"
				},
				{
					"inputs": [
						{
							"internalType": "bytes32",
							"name": "a",
							"type": "bytes32"
						},
						{
							"internalType": "bytes32",
							"name": "b",
							"type": "bytes32"
						}
					],
					"name": "AppendString",
					"outputs": [
						{
							"internalType": "string",
							"name": "",
							"type": "string"
						}
					],
					"stateMutability": "pure",
					"type": "function"
				},
				{
					"inputs": [],
					"name": "askCount",
					"outputs": [
						{
							"internalType": "uint256",
							"name": "",
							"type": "uint256"
						}
					],
					"stateMutability": "view",
					"type": "function"
				},
				{
					"inputs": [],
					"name": "askHead",
					"outputs": [
						{
							"internalType": "uint256",
							"name": "",
							"type": "uint256"
						}
					],
					"stateMutability": "view",
					"type": "function"
				},
				{
					"inputs": [],
					"name": "askTail",
					"outputs": [
						{
							"internalType": "uint256",
							"name": "",
							"type": "uint256"
						}
					],
					"stateMutability": "view",
					"type": "function"
				},
				{
					"inputs": [],
					"name": "bidCount",
					"outputs": [
						{
							"internalType": "uint256",
							"name": "",
							"type": "uint256"
						}
					],
					"stateMutability": "view",
					"type": "function"
				},
				{
					"inputs": [],
					"name": "bidHead",
					"outputs": [
						{
							"internalType": "uint256",
							"name": "",
							"type": "uint256"
						}
					],
					"stateMutability": "view",
					"type": "function"
				},
				{
					"inputs": [],
					"name": "bidTail",
					"outputs": [
						{
							"internalType": "uint256",
							"name": "",
							"type": "uint256"
						}
					],
					"stateMutability": "view",
					"type": "function"
				},
				{
					"inputs": [
						{
							"internalType": "uint256",
							"name": "askId",
							"type": "uint256"
						}
					],
					"name": "cancelAsk",
					"outputs": [],
					"stateMutability": "nonpayable",
					"type": "function"
				},
				{
					"inputs": [
						{
							"internalType": "uint256",
							"name": "bidId",
							"type": "uint256"
						}
					],
					"name": "cancelBid",
					"outputs": [],
					"stateMutability": "nonpayable",
					"type": "function"
				},
				{
					"inputs": [],
					"name": "fetchAllBid",
					"outputs": [
						{
							"components": [
								{
									"internalType": "address payable",
									"name": "customer",
									"type": "address"
								},
								{
									"internalType": "uint256",
									"name": "value",
									"type": "uint256"
								},
								{
									"internalType": "uint256",
									"name": "timestamp",
									"type": "uint256"
								},
								{
									"internalType": "enum OrderBook.State",
									"name": "state",
									"type": "uint8"
								},
								{
									"internalType": "uint256",
									"name": "id",
									"type": "uint256"
								},
								{
									"internalType": "uint256",
									"name": "next",
									"type": "uint256"
								},
								{
									"internalType": "uint256",
									"name": "prev",
									"type": "uint256"
								}
							],
							"internalType": "struct OrderBook.order[]",
							"name": "",
							"type": "tuple[]"
						}
					],
					"stateMutability": "nonpayable",
					"type": "function"
				},
				{
					"inputs": [],
					"name": "fetchAsk",
					"outputs": [
						{
							"internalType": "string",
							"name": "",
							"type": "string"
						}
					],
					"stateMutability": "view",
					"type": "function"
				},
				{
					"inputs": [],
					"name": "fetchYourAskIds",
					"outputs": [
						{
							"internalType": "uint256[]",
							"name": "",
							"type": "uint256[]"
						}
					],
					"stateMutability": "nonpayable",
					"type": "function"
				},
				{
					"inputs": [],
					"name": "fetchYourBidIds",
					"outputs": [
						{
							"internalType": "uint256[]",
							"name": "",
							"type": "uint256[]"
						}
					],
					"stateMutability": "nonpayable",
					"type": "function"
				},
				{
					"inputs": [
						{
							"internalType": "uint256",
							"name": "id",
							"type": "uint256"
						}
					],
					"name": "getAskAddress",
					"outputs": [
						{
							"internalType": "address payable",
							"name": "",
							"type": "address"
						}
					],
					"stateMutability": "view",
					"type": "function"
				},
				{
					"inputs": [
						{
							"internalType": "uint256",
							"name": "id",
							"type": "uint256"
						}
					],
					"name": "getAskState",
					"outputs": [
						{
							"internalType": "enum OrderBook.State",
							"name": "",
							"type": "uint8"
						}
					],
					"stateMutability": "view",
					"type": "function"
				},
				{
					"inputs": [
						{
							"internalType": "uint256",
							"name": "id",
							"type": "uint256"
						}
					],
					"name": "getAskValue",
					"outputs": [
						{
							"internalType": "uint256",
							"name": "",
							"type": "uint256"
						}
					],
					"stateMutability": "view",
					"type": "function"
				},
				{
					"inputs": [
						{
							"internalType": "uint256",
							"name": "id",
							"type": "uint256"
						}
					],
					"name": "getBidAddress",
					"outputs": [
						{
							"internalType": "address payable",
							"name": "",
							"type": "address"
						}
					],
					"stateMutability": "view",
					"type": "function"
				},
				{
					"inputs": [
						{
							"internalType": "uint256",
							"name": "id",
							"type": "uint256"
						}
					],
					"name": "getBidState",
					"outputs": [
						{
							"internalType": "enum OrderBook.State",
							"name": "",
							"type": "uint8"
						}
					],
					"stateMutability": "view",
					"type": "function"
				},
				{
					"inputs": [
						{
							"internalType": "uint256",
							"name": "id",
							"type": "uint256"
						}
					],
					"name": "getBidValue",
					"outputs": [
						{
							"internalType": "uint256",
							"name": "",
							"type": "uint256"
						}
					],
					"stateMutability": "view",
					"type": "function"
				},
				{
					"inputs": [
						{
							"internalType": "uint256",
							"name": "id",
							"type": "uint256"
						}
					],
					"name": "getOrder",
					"outputs": [
						{
							"internalType": "address payable",
							"name": "",
							"type": "address"
						},
						{
							"internalType": "uint256",
							"name": "",
							"type": "uint256"
						},
						{
							"internalType": "uint256",
							"name": "",
							"type": "uint256"
						},
						{
							"internalType": "enum OrderBook.State",
							"name": "",
							"type": "uint8"
						},
						{
							"internalType": "uint256",
							"name": "",
							"type": "uint256"
						},
						{
							"internalType": "uint256",
							"name": "",
							"type": "uint256"
						},
						{
							"internalType": "uint256",
							"name": "",
							"type": "uint256"
						},
						{
							"internalType": "bool",
							"name": "",
							"type": "bool"
						}
					],
					"stateMutability": "view",
					"type": "function"
				},
				{
					"inputs": [
						{
							"internalType": "uint256",
							"name": "price",
							"type": "uint256"
						}
					],
					"name": "placeAsk",
					"outputs": [],
					"stateMutability": "payable",
					"type": "function"
				},
				{
					"inputs": [
						{
							"internalType": "uint256",
							"name": "price",
							"type": "uint256"
						}
					],
					"name": "placeBid",
					"outputs": [],
					"stateMutability": "payable",
					"type": "function"
				}
			],
			"devdoc": {
				"kind": "dev",
				"methods": {},
				"version": 1
			},
			"evm": {
				"assembly": "    /* \"contracts/OrderBook.sol\":1130:8933  contract OrderBook {... */\n  mstore(0x40, 0x80)\n    /* \"contracts/OrderBook.sol\":1333:1343  msg.sender */\n  caller\n    /* \"contracts/OrderBook.sol\":1300:1344  address payable _owner = payable(msg.sender) */\n  0x01\n  exp(0x0100, 0x00)\n  dup2\n  sload\n  dup2\n  0xffffffffffffffffffffffffffffffffffffffff\n  mul\n  not\n  and\n  swap1\n  dup4\n  0xffffffffffffffffffffffffffffffffffffffff\n  and\n  mul\n  or\n  swap1\n  sstore\n  pop\n    /* \"contracts/OrderBook.sol\":2323:2526  constructor (uint256 _commission) {... */\n  callvalue\n  dup1\n  iszero\n  tag_1\n  jumpi\n  0x00\n  dup1\n  revert\ntag_1:\n  pop\n  mload(0x40)\n  sub(codesize, bytecodeSize)\n  dup1\n  bytecodeSize\n  dup4\n  codecopy\n  dup2\n  dup2\n  add\n  0x40\n  mstore\n  dup2\n  add\n  swap1\n  tag_2\n  swap2\n  swap1\n  tag_3\n  jump\t// in\ntag_2:\n    /* \"contracts/OrderBook.sol\":2380:2391  _commission */\n  dup1\n    /* \"contracts/OrderBook.sol\":2367:2377  commission */\n  0x02\n    /* \"contracts/OrderBook.sol\":2367:2391  commission = _commission */\n  dup2\n  swap1\n  sstore\n  pop\n    /* \"contracts/OrderBook.sol\":2411:2412  0 */\n  0x00\n    /* \"contracts/OrderBook.sol\":2401:2408  bidHead */\n  0x04\n    /* \"contracts/OrderBook.sol\":2401:2412  bidHead = 0 */\n  dup2\n  swap1\n  sstore\n  pop\n    /* \"contracts/OrderBook.sol\":2432:2433  0 */\n  0x00\n    /* \"contracts/OrderBook.sol\":2422:2429  bidTail */\n  0x05\n    /* \"contracts/OrderBook.sol\":2422:2433  bidTail = 0 */\n  dup2\n  swap1\n  sstore\n  pop\n    /* \"contracts/OrderBook.sol\":2454:2455  0 */\n  0x00\n    /* \"contracts/OrderBook.sol\":2443:2451  bidCount */\n  0x06\n    /* \"contracts/OrderBook.sol\":2443:2455  bidCount = 0 */\n  dup2\n  swap1\n  sstore\n  pop\n    /* \"contracts/OrderBook.sol\":2475:2476  0 */\n  0x00\n    /* \"contracts/OrderBook.sol\":2465:2472  askHead */\n  0x08\n    /* \"contracts/OrderBook.sol\":2465:2476  askHead = 0 */\n  dup2\n  swap1\n  sstore\n  pop\n    /* \"contracts/OrderBook.sol\":2496:2497  0 */\n  0x00\n    /* \"contracts/OrderBook.sol\":2486:2493  askTail */\n  0x09\n    /* \"contracts/OrderBook.sol\":2486:2497  askTail = 0 */\n  dup2\n  swap1\n  sstore\n  pop\n    /* \"contracts/OrderBook.sol\":2518:2519  0 */\n  0x00\n    /* \"contracts/OrderBook.sol\":2507:2515  askCount */\n  0x0a\n    /* \"contracts/OrderBook.sol\":2507:2519  askCount = 0 */\n  dup2\n  swap1\n  sstore\n  pop\n    /* \"contracts/OrderBook.sol\":2323:2526  constructor (uint256 _commission) {... */\n  pop\n    /* \"contracts/OrderBook.sol\":1130:8933  contract OrderBook {... */\n  jump(tag_6)\n    /* \"#utility.yul\":88:205   */\ntag_8:\n    /* \"#utility.yul\":197:198   */\n  0x00\n    /* \"#utility.yul\":194:195   */\n  dup1\n    /* \"#utility.yul\":187:199   */\n  revert\n    /* \"#utility.yul\":334:411   */\ntag_10:\n    /* \"#utility.yul\":371:378   */\n  0x00\n    /* \"#utility.yul\":400:405   */\n  dup2\n    /* \"#utility.yul\":389:405   */\n  swap1\n  pop\n    /* \"#utility.yul\":334:411   */\n  swap2\n  swap1\n  pop\n  jump\t// out\n    /* \"#utility.yul\":417:539   */\ntag_11:\n    /* \"#utility.yul\":490:514   */\n  tag_19\n    /* \"#utility.yul\":508:513   */\n  dup2\n    /* \"#utility.yul\":490:514   */\n  tag_10\n  jump\t// in\ntag_19:\n    /* \"#utility.yul\":483:488   */\n  dup2\n    /* \"#utility.yul\":480:515   */\n  eq\n    /* \"#utility.yul\":470:533   */\n  tag_20\n  jumpi\n    /* \"#utility.yul\":529:530   */\n  0x00\n    /* \"#utility.yul\":526:527   */\n  dup1\n    /* \"#utility.yul\":519:531   */\n  revert\n    /* \"#utility.yul\":470:533   */\ntag_20:\n    /* \"#utility.yul\":417:539   */\n  pop\n  jump\t// out\n    /* \"#utility.yul\":545:688   */\ntag_12:\n    /* \"#utility.yul\":602:607   */\n  0x00\n    /* \"#utility.yul\":633:639   */\n  dup2\n    /* \"#utility.yul\":627:640   */\n  mload\n    /* \"#utility.yul\":618:640   */\n  swap1\n  pop\n    /* \"#utility.yul\":649:682   */\n  tag_22\n    /* \"#utility.yul\":676:681   */\n  dup2\n    /* \"#utility.yul\":649:682   */\n  tag_11\n  jump\t// in\ntag_22:\n    /* \"#utility.yul\":545:688   */\n  swap3\n  swap2\n  pop\n  pop\n  jump\t// out\n    /* \"#utility.yul\":694:1045   */\ntag_3:\n    /* \"#utility.yul\":764:770   */\n  0x00\n    /* \"#utility.yul\":813:815   */\n  0x20\n    /* \"#utility.yul\":801:810   */\n  dup3\n    /* \"#utility.yul\":792:799   */\n  dup5\n    /* \"#utility.yul\":788:811   */\n  sub\n    /* \"#utility.yul\":784:816   */\n  slt\n    /* \"#utility.yul\":781:900   */\n  iszero\n  tag_24\n  jumpi\n    /* \"#utility.yul\":819:898   */\n  tag_25\n  tag_8\n  jump\t// in\ntag_25:\n    /* \"#utility.yul\":781:900   */\ntag_24:\n    /* \"#utility.yul\":939:940   */\n  0x00\n    /* \"#utility.yul\":964:1028   */\n  tag_26\n    /* \"#utility.yul\":1020:1027   */\n  dup5\n    /* \"#utility.yul\":1011:1017   */\n  dup3\n    /* \"#utility.yul\":1000:1009   */\n  dup6\n    /* \"#utility.yul\":996:1018   */\n  add\n    /* \"#utility.yul\":964:1028   */\n  tag_12\n  jump\t// in\ntag_26:\n    /* \"#utility.yul\":954:1028   */\n  swap2\n  pop\n    /* \"#utility.yul\":910:1038   */\n  pop\n    /* \"#utility.yul\":694:1045   */\n  swap3\n  swap2\n  pop\n  pop\n  jump\t// out\n    /* \"contracts/OrderBook.sol\":1130:8933  contract OrderBook {... */\ntag_6:\n  dataSize(sub_0)\n  dup1\n  dataOffset(sub_0)\n  0x00\n  codecopy\n  0x00\n  return\nstop\n\nsub_0: assembly {\n        /* \"contracts/OrderBook.sol\":1130:8933  contract OrderBook {... */\n      mstore(0x40, 0x80)\n      jumpi(tag_1, lt(calldatasize, 0x04))\n      shr(0xe0, calldataload(0x00))\n      dup1\n      0x7bb51193\n      gt\n      tag_24\n      jumpi\n      dup1\n      0xb40a5627\n      gt\n      tag_25\n      jumpi\n      dup1\n      0xb40a5627\n      eq\n      tag_18\n      jumpi\n      dup1\n      0xbf77ffae\n      eq\n      tag_19\n      jumpi\n      dup1\n      0xce0cdc87\n      eq\n      tag_20\n      jumpi\n      dup1\n      0xd09ef241\n      eq\n      tag_21\n      jumpi\n      dup1\n      0xdb3a1396\n      eq\n      tag_22\n      jumpi\n      dup1\n      0xecdfb860\n      eq\n      tag_23\n      jumpi\n      jump(tag_1)\n    tag_25:\n      dup1\n      0x7bb51193\n      eq\n      tag_13\n      jumpi\n      dup1\n      0x801d9bbd\n      eq\n      tag_14\n      jumpi\n      dup1\n      0x9703ef35\n      eq\n      tag_15\n      jumpi\n      dup1\n      0x9979ef45\n      eq\n      tag_16\n      jumpi\n      dup1\n      0xa394fda7\n      eq\n      tag_17\n      jumpi\n      jump(tag_1)\n    tag_24:\n      dup1\n      0x44e791e0\n      gt\n      tag_26\n      jumpi\n      dup1\n      0x44e791e0\n      eq\n      tag_7\n      jumpi\n      dup1\n      0x4d46712d\n      eq\n      tag_8\n      jumpi\n      dup1\n      0x69f632e2\n      eq\n      tag_9\n      jumpi\n      dup1\n      0x6e5b0f00\n      eq\n      tag_10\n      jumpi\n      dup1\n      0x734a2e78\n      eq\n      tag_11\n      jumpi\n      dup1\n      0x78c5b268\n      eq\n      tag_12\n      jumpi\n      jump(tag_1)\n    tag_26:\n      dup1\n      0x122de8f2\n      eq\n      tag_2\n      jumpi\n      dup1\n      0x1628e0f5\n      eq\n      tag_3\n      jumpi\n      dup1\n      0x299e6283\n      eq\n      tag_4\n      jumpi\n      dup1\n      0x2db6dfa7\n      eq\n      tag_5\n      jumpi\n      dup1\n      0x4471417f\n      eq\n      tag_6\n      jumpi\n    tag_1:\n      0x00\n      dup1\n      revert\n        /* \"contracts/OrderBook.sol\":7850:7918  function fetchYourAskIds() public returns (uint256[] memory) {... */\n    tag_2:\n      callvalue\n      dup1\n      iszero\n      tag_27\n      jumpi\n      0x00\n      dup1\n      revert\n    tag_27:\n      pop\n      tag_28\n      tag_29\n      jump\t// in\n    tag_28:\n      mload(0x40)\n      tag_30\n      swap2\n      swap1\n      tag_31\n      jump\t// in\n    tag_30:\n      mload(0x40)\n      dup1\n      swap2\n      sub\n      swap1\n      return\n        /* \"contracts/OrderBook.sol\":7200:7492  function cancelAsk (uint256 askId) public isPending(askBook[askId]) isAuthorised(askBook[askId], msg.sender) {... */\n    tag_3:\n      callvalue\n      dup1\n      iszero\n      tag_32\n      jumpi\n      0x00\n      dup1\n      revert\n    tag_32:\n      pop\n      tag_33\n      0x04\n      dup1\n      calldatasize\n      sub\n      dup2\n      add\n      swap1\n      tag_34\n      swap2\n      swap1\n      tag_35\n      jump\t// in\n    tag_34:\n      tag_36\n      jump\t// in\n    tag_33:\n      stop\n        /* \"contracts/OrderBook.sol\":5758:5914  function AppendString(bytes32 a, bytes32 b) public pure returns (string memory) {... */\n    tag_4:\n      callvalue\n      dup1\n      iszero\n      tag_37\n      jumpi\n      0x00\n      dup1\n      revert\n    tag_37:\n      pop\n      tag_38\n      0x04\n      dup1\n      calldatasize\n      sub\n      dup2\n      add\n      swap1\n      tag_39\n      swap2\n      swap1\n      tag_40\n      jump\t// in\n    tag_39:\n      tag_41\n      jump\t// in\n    tag_38:\n      mload(0x40)\n      tag_42\n      swap2\n      swap1\n      tag_43\n      jump\t// in\n    tag_42:\n      mload(0x40)\n      dup1\n      swap2\n      sub\n      swap1\n      return\n        /* \"contracts/OrderBook.sol\":8500:8604  function getBidValue (uint256 id) public view returns(uint256) {... */\n    tag_5:\n      callvalue\n      dup1\n      iszero\n      tag_44\n      jumpi\n      0x00\n      dup1\n      revert\n    tag_44:\n      pop\n      tag_45\n      0x04\n      dup1\n      calldatasize\n      sub\n      dup2\n      add\n      swap1\n      tag_46\n      swap2\n      swap1\n      tag_35\n      jump\t// in\n    tag_46:\n      tag_47\n      jump\t// in\n    tag_45:\n      mload(0x40)\n      tag_48\n      swap2\n      swap1\n      tag_49\n      jump\t// in\n    tag_48:\n      mload(0x40)\n      dup1\n      swap2\n      sub\n      swap1\n      return\n        /* \"contracts/OrderBook.sol\":7707:7769  function fetchAllBid() public returns (order[] memory) {... */\n    tag_6:\n      callvalue\n      dup1\n      iszero\n      tag_50\n      jumpi\n      0x00\n      dup1\n      revert\n    tag_50:\n      pop\n      tag_51\n      tag_52\n      jump\t// in\n    tag_51:\n      mload(0x40)\n      tag_53\n      swap2\n      swap1\n      tag_54\n      jump\t// in\n    tag_53:\n      mload(0x40)\n      dup1\n      swap2\n      sub\n      swap1\n      return\n        /* \"contracts/OrderBook.sol\":7526:7701  function fetchAsk() public view returns (string memory) {... */\n    tag_7:\n      callvalue\n      dup1\n      iszero\n      tag_55\n      jumpi\n      0x00\n      dup1\n      revert\n    tag_55:\n      pop\n      tag_56\n      tag_57\n      jump\t// in\n    tag_56:\n      mload(0x40)\n      tag_58\n      swap2\n      swap1\n      tag_43\n      jump\t// in\n    tag_58:\n      mload(0x40)\n      dup1\n      swap2\n      sub\n      swap1\n      return\n        /* \"contracts/OrderBook.sol\":8828:8930  function getAskState (uint256 id) public view returns(State) {... */\n    tag_8:\n      callvalue\n      dup1\n      iszero\n      tag_59\n      jumpi\n      0x00\n      dup1\n      revert\n    tag_59:\n      pop\n      tag_60\n      0x04\n      dup1\n      calldatasize\n      sub\n      dup2\n      add\n      swap1\n      tag_61\n      swap2\n      swap1\n      tag_35\n      jump\t// in\n    tag_61:\n      tag_62\n      jump\t// in\n    tag_60:\n      mload(0x40)\n      tag_63\n      swap2\n      swap1\n      tag_64\n      jump\t// in\n    tag_63:\n      mload(0x40)\n      dup1\n      swap2\n      sub\n      swap1\n      return\n        /* \"contracts/OrderBook.sol\":8254:8371  function getBidAddress (uint256 id) public view returns(address payable) {... */\n    tag_9:\n      callvalue\n      dup1\n      iszero\n      tag_65\n      jumpi\n      0x00\n      dup1\n      revert\n    tag_65:\n      pop\n      tag_66\n      0x04\n      dup1\n      calldatasize\n      sub\n      dup2\n      add\n      swap1\n      tag_67\n      swap2\n      swap1\n      tag_35\n      jump\t// in\n    tag_67:\n      tag_68\n      jump\t// in\n    tag_66:\n      mload(0x40)\n      tag_69\n      swap2\n      swap1\n      tag_70\n      jump\t// in\n    tag_69:\n      mload(0x40)\n      dup1\n      swap2\n      sub\n      swap1\n      return\n        /* \"contracts/OrderBook.sol\":1797:1819  uint256 public bidHead */\n    tag_10:\n      callvalue\n      dup1\n      iszero\n      tag_71\n      jumpi\n      0x00\n      dup1\n      revert\n    tag_71:\n      pop\n      tag_72\n      tag_73\n      jump\t// in\n    tag_72:\n      mload(0x40)\n      tag_74\n      swap2\n      swap1\n      tag_49\n      jump\t// in\n    tag_74:\n      mload(0x40)\n      dup1\n      swap2\n      sub\n      swap1\n      return\n        /* \"contracts/OrderBook.sol\":8377:8494  function getAskAddress (uint256 id) public view returns(address payable) {... */\n    tag_11:\n      callvalue\n      dup1\n      iszero\n      tag_75\n      jumpi\n      0x00\n      dup1\n      revert\n    tag_75:\n      pop\n      tag_76\n      0x04\n      dup1\n      calldatasize\n      sub\n      dup2\n      add\n      swap1\n      tag_77\n      swap2\n      swap1\n      tag_35\n      jump\t// in\n    tag_77:\n      tag_78\n      jump\t// in\n    tag_76:\n      mload(0x40)\n      tag_79\n      swap2\n      swap1\n      tag_70\n      jump\t// in\n    tag_79:\n      mload(0x40)\n      dup1\n      swap2\n      sub\n      swap1\n      return\n        /* \"contracts/OrderBook.sol\":6790:7194  function placeAsk (uint256 price) public payable {... */\n    tag_12:\n      tag_80\n      0x04\n      dup1\n      calldatasize\n      sub\n      dup2\n      add\n      swap1\n      tag_81\n      swap2\n      swap1\n      tag_35\n      jump\t// in\n    tag_81:\n      tag_82\n      jump\t// in\n    tag_80:\n      stop\n        /* \"contracts/OrderBook.sol\":1825:1847  uint256 public bidTail */\n    tag_13:\n      callvalue\n      dup1\n      iszero\n      tag_83\n      jumpi\n      0x00\n      dup1\n      revert\n    tag_83:\n      pop\n      tag_84\n      tag_85\n      jump\t// in\n    tag_84:\n      mload(0x40)\n      tag_86\n      swap2\n      swap1\n      tag_49\n      jump\t// in\n    tag_86:\n      mload(0x40)\n      dup1\n      swap2\n      sub\n      swap1\n      return\n        /* \"contracts/OrderBook.sol\":1970:1992  uint256 public askHead */\n    tag_14:\n      callvalue\n      dup1\n      iszero\n      tag_87\n      jumpi\n      0x00\n      dup1\n      revert\n    tag_87:\n      pop\n      tag_88\n      tag_89\n      jump\t// in\n    tag_88:\n      mload(0x40)\n      tag_90\n      swap2\n      swap1\n      tag_49\n      jump\t// in\n    tag_90:\n      mload(0x40)\n      dup1\n      swap2\n      sub\n      swap1\n      return\n        /* \"contracts/OrderBook.sol\":6527:6784  function cancelBid (uint256 bidId) public isPending(bidBook[bidId]) isAuthorised(bidBook[bidId], msg.sender) {... */\n    tag_15:\n      callvalue\n      dup1\n      iszero\n      tag_91\n      jumpi\n      0x00\n      dup1\n      revert\n    tag_91:\n      pop\n      tag_92\n      0x04\n      dup1\n      calldatasize\n      sub\n      dup2\n      add\n      swap1\n      tag_93\n      swap2\n      swap1\n      tag_35\n      jump\t// in\n    tag_93:\n      tag_94\n      jump\t// in\n    tag_92:\n      stop\n        /* \"contracts/OrderBook.sol\":5952:6521  function placeBid (uint256 price) public payable {... */\n    tag_16:\n      tag_95\n      0x04\n      dup1\n      calldatasize\n      sub\n      dup2\n      add\n      swap1\n      tag_96\n      swap2\n      swap1\n      tag_35\n      jump\t// in\n    tag_96:\n      tag_97\n      jump\t// in\n    tag_95:\n      stop\n        /* \"contracts/OrderBook.sol\":2026:2049  uint256 public askCount */\n    tag_17:\n      callvalue\n      dup1\n      iszero\n      tag_98\n      jumpi\n      0x00\n      dup1\n      revert\n    tag_98:\n      pop\n      tag_99\n      tag_100\n      jump\t// in\n    tag_99:\n      mload(0x40)\n      tag_101\n      swap2\n      swap1\n      tag_49\n      jump\t// in\n    tag_101:\n      mload(0x40)\n      dup1\n      swap2\n      sub\n      swap1\n      return\n        /* \"contracts/OrderBook.sol\":1853:1876  uint256 public bidCount */\n    tag_18:\n      callvalue\n      dup1\n      iszero\n      tag_102\n      jumpi\n      0x00\n      dup1\n      revert\n    tag_102:\n      pop\n      tag_103\n      tag_104\n      jump\t// in\n    tag_103:\n      mload(0x40)\n      tag_105\n      swap2\n      swap1\n      tag_49\n      jump\t// in\n    tag_105:\n      mload(0x40)\n      dup1\n      swap2\n      sub\n      swap1\n      return\n        /* \"contracts/OrderBook.sol\":8720:8822  function getBidState (uint256 id) public view returns(State) {... */\n    tag_19:\n      callvalue\n      dup1\n      iszero\n      tag_106\n      jumpi\n      0x00\n      dup1\n      revert\n    tag_106:\n      pop\n      tag_107\n      0x04\n      dup1\n      calldatasize\n      sub\n      dup2\n      add\n      swap1\n      tag_108\n      swap2\n      swap1\n      tag_35\n      jump\t// in\n    tag_108:\n      tag_109\n      jump\t// in\n    tag_107:\n      mload(0x40)\n      tag_110\n      swap2\n      swap1\n      tag_64\n      jump\t// in\n    tag_110:\n      mload(0x40)\n      dup1\n      swap2\n      sub\n      swap1\n      return\n        /* \"contracts/OrderBook.sol\":7776:7844  function fetchYourBidIds() public returns (uint256[] memory) {... */\n    tag_20:\n      callvalue\n      dup1\n      iszero\n      tag_111\n      jumpi\n      0x00\n      dup1\n      revert\n    tag_111:\n      pop\n      tag_112\n      tag_113\n      jump\t// in\n    tag_112:\n      mload(0x40)\n      tag_114\n      swap2\n      swap1\n      tag_31\n      jump\t// in\n    tag_114:\n      mload(0x40)\n      dup1\n      swap2\n      sub\n      swap1\n      return\n        /* \"contracts/OrderBook.sol\":7924:8248  function getOrder(uint256 id) public view returns(address payable,uint256,uint256,State,uint256,uint256,uint256,bool) {... */\n    tag_21:\n      callvalue\n      dup1\n      iszero\n      tag_115\n      jumpi\n      0x00\n      dup1\n      revert\n    tag_115:\n      pop\n      tag_116\n      0x04\n      dup1\n      calldatasize\n      sub\n      dup2\n      add\n      swap1\n      tag_117\n      swap2\n      swap1\n      tag_35\n      jump\t// in\n    tag_117:\n      tag_118\n      jump\t// in\n    tag_116:\n      mload(0x40)\n      tag_119\n      swap9\n      swap8\n      swap7\n      swap6\n      swap5\n      swap4\n      swap3\n      swap2\n      swap1\n      tag_120\n      jump\t// in\n    tag_119:\n      mload(0x40)\n      dup1\n      swap2\n      sub\n      swap1\n      return\n        /* \"contracts/OrderBook.sol\":8610:8714  function getAskValue (uint256 id) public view returns(uint256) {... */\n    tag_22:\n      callvalue\n      dup1\n      iszero\n      tag_121\n      jumpi\n      0x00\n      dup1\n      revert\n    tag_121:\n      pop\n      tag_122\n      0x04\n      dup1\n      calldatasize\n      sub\n      dup2\n      add\n      swap1\n      tag_123\n      swap2\n      swap1\n      tag_35\n      jump\t// in\n    tag_123:\n      tag_124\n      jump\t// in\n    tag_122:\n      mload(0x40)\n      tag_125\n      swap2\n      swap1\n      tag_49\n      jump\t// in\n    tag_125:\n      mload(0x40)\n      dup1\n      swap2\n      sub\n      swap1\n      return\n        /* \"contracts/OrderBook.sol\":1998:2020  uint256 public askTail */\n    tag_23:\n      callvalue\n      dup1\n      iszero\n      tag_126\n      jumpi\n      0x00\n      dup1\n      revert\n    tag_126:\n      pop\n      tag_127\n      tag_128\n      jump\t// in\n    tag_127:\n      mload(0x40)\n      tag_129\n      swap2\n      swap1\n      tag_49\n      jump\t// in\n    tag_129:\n      mload(0x40)\n      dup1\n      swap2\n      sub\n      swap1\n      return\n        /* \"contracts/OrderBook.sol\":7850:7918  function fetchYourAskIds() public returns (uint256[] memory) {... */\n    tag_29:\n        /* \"contracts/OrderBook.sol\":7893:7909  uint256[] memory */\n      0x60\n        /* \"contracts/OrderBook.sol\":7850:7918  function fetchYourAskIds() public returns (uint256[] memory) {... */\n      swap1\n      jump\t// out\n        /* \"contracts/OrderBook.sol\":7200:7492  function cancelAsk (uint256 askId) public isPending(askBook[askId]) isAuthorised(askBook[askId], msg.sender) {... */\n    tag_36:\n        /* \"contracts/OrderBook.sol\":7252:7259  askBook */\n      0x07\n        /* \"contracts/OrderBook.sol\":7252:7266  askBook[askId] */\n      0x00\n        /* \"contracts/OrderBook.sol\":7260:7265  askId */\n      dup3\n        /* \"contracts/OrderBook.sol\":7252:7266  askBook[askId] */\n      dup2\n      mstore\n      0x20\n      add\n      swap1\n      dup2\n      mstore\n      0x20\n      add\n      0x00\n      keccak256\n        /* \"contracts/OrderBook.sol\":2565:2688  modifier isPending(order memory _order) {... */\n      mload(0x40)\n      dup1\n      0xe0\n      add\n      0x40\n      mstore\n      swap1\n      dup2\n      0x00\n      dup3\n      add\n      0x00\n      swap1\n      sload\n      swap1\n      0x0100\n      exp\n      swap1\n      div\n      0xffffffffffffffffffffffffffffffffffffffff\n      and\n      0xffffffffffffffffffffffffffffffffffffffff\n      and\n      0xffffffffffffffffffffffffffffffffffffffff\n      and\n      dup2\n      mstore\n      0x20\n      add\n      0x01\n      dup3\n      add\n      sload\n      dup2\n      mstore\n      0x20\n      add\n      0x02\n      dup3\n      add\n      sload\n      dup2\n      mstore\n      0x20\n      add\n      0x03\n      dup3\n      add\n      0x00\n      swap1\n      sload\n      swap1\n      0x0100\n      exp\n      swap1\n      div\n      0xff\n      and\n      0x01\n      dup2\n      gt\n      iszero\n      tag_131\n      jumpi\n      tag_132\n      tag_133\n      jump\t// in\n    tag_132:\n    tag_131:\n      0x01\n      dup2\n      gt\n      iszero\n      tag_134\n      jumpi\n      tag_135\n      tag_133\n      jump\t// in\n    tag_135:\n    tag_134:\n      dup2\n      mstore\n      0x20\n      add\n      0x04\n      dup3\n      add\n      sload\n      dup2\n      mstore\n      0x20\n      add\n      0x05\n      dup3\n      add\n      sload\n      dup2\n      mstore\n      0x20\n      add\n      0x06\n      dup3\n      add\n      sload\n      dup2\n      mstore\n      pop\n      pop\n        /* \"contracts/OrderBook.sol\":2639:2652  State.pending */\n      0x00\n        /* \"contracts/OrderBook.sol\":2623:2652  _order.state == State.pending */\n      0x01\n      dup2\n      gt\n      iszero\n      tag_137\n      jumpi\n      tag_138\n      tag_133\n      jump\t// in\n    tag_138:\n    tag_137:\n        /* \"contracts/OrderBook.sol\":2623:2629  _order */\n      dup2\n        /* \"contracts/OrderBook.sol\":2623:2635  _order.state */\n      0x60\n      add\n      mload\n        /* \"contracts/OrderBook.sol\":2623:2652  _order.state == State.pending */\n      0x01\n      dup2\n      gt\n      iszero\n      tag_139\n      jumpi\n      tag_140\n      tag_133\n      jump\t// in\n    tag_140:\n    tag_139:\n      eq\n        /* \"contracts/OrderBook.sol\":2615:2670  require(_order.state == State.pending, \"Order Pending\") */\n      tag_141\n      jumpi\n      mload(0x40)\n      0x08c379a000000000000000000000000000000000000000000000000000000000\n      dup2\n      mstore\n      0x04\n      add\n      tag_142\n      swap1\n      tag_143\n      jump\t// in\n    tag_142:\n      mload(0x40)\n      dup1\n      swap2\n      sub\n      swap1\n      revert\n    tag_141:\n        /* \"contracts/OrderBook.sol\":7281:7288  askBook */\n      0x07\n        /* \"contracts/OrderBook.sol\":7281:7295  askBook[askId] */\n      0x00\n        /* \"contracts/OrderBook.sol\":7289:7294  askId */\n      dup4\n        /* \"contracts/OrderBook.sol\":7281:7295  askBook[askId] */\n      dup2\n      mstore\n      0x20\n      add\n      swap1\n      dup2\n      mstore\n      0x20\n      add\n      0x00\n      keccak256\n        /* \"contracts/OrderBook.sol\":2694:2833  modifier isAuthorised(order memory _order, address sender) {... */\n      mload(0x40)\n      dup1\n      0xe0\n      add\n      0x40\n      mstore\n      swap1\n      dup2\n      0x00\n      dup3\n      add\n      0x00\n      swap1\n      sload\n      swap1\n      0x0100\n      exp\n      swap1\n      div\n      0xffffffffffffffffffffffffffffffffffffffff\n      and\n      0xffffffffffffffffffffffffffffffffffffffff\n      and\n      0xffffffffffffffffffffffffffffffffffffffff\n      and\n      dup2\n      mstore\n      0x20\n      add\n      0x01\n      dup3\n      add\n      sload\n      dup2\n      mstore\n      0x20\n      add\n      0x02\n      dup3\n      add\n      sload\n      dup2\n      mstore\n      0x20\n      add\n      0x03\n      dup3\n      add\n      0x00\n      swap1\n      sload\n      swap1\n      0x0100\n      exp\n      swap1\n      div\n      0xff\n      and\n      0x01\n      dup2\n      gt\n      iszero\n      tag_144\n      jumpi\n      tag_145\n      tag_133\n      jump\t// in\n    tag_145:\n    tag_144:\n      0x01\n      dup2\n      gt\n      iszero\n      tag_146\n      jumpi\n      tag_147\n      tag_133\n      jump\t// in\n    tag_147:\n    tag_146:\n      dup2\n      mstore\n      0x20\n      add\n      0x04\n      dup3\n      add\n      sload\n      dup2\n      mstore\n      0x20\n      add\n      0x05\n      dup3\n      add\n      sload\n      dup2\n      mstore\n      0x20\n      add\n      0x06\n      dup3\n      add\n      sload\n      dup2\n      mstore\n      pop\n      pop\n        /* \"contracts/OrderBook.sol\":7297:7307  msg.sender */\n      caller\n        /* \"contracts/OrderBook.sol\":2790:2796  sender */\n      dup1\n        /* \"contracts/OrderBook.sol\":2771:2796  _order.customer == sender */\n      0xffffffffffffffffffffffffffffffffffffffff\n      and\n        /* \"contracts/OrderBook.sol\":2771:2777  _order */\n      dup3\n        /* \"contracts/OrderBook.sol\":2771:2786  _order.customer */\n      0x00\n      add\n      mload\n        /* \"contracts/OrderBook.sol\":2771:2796  _order.customer == sender */\n      0xffffffffffffffffffffffffffffffffffffffff\n      and\n      eq\n        /* \"contracts/OrderBook.sol\":2763:2815  require(_order.customer == sender, \"Not Authorised\") */\n      tag_149\n      jumpi\n      mload(0x40)\n      0x08c379a000000000000000000000000000000000000000000000000000000000\n      dup2\n      mstore\n      0x04\n      add\n      tag_150\n      swap1\n      tag_151\n      jump\t// in\n    tag_150:\n      mload(0x40)\n      dup1\n      swap2\n      sub\n      swap1\n      revert\n    tag_149:\n        /* \"contracts/OrderBook.sol\":2680:2681  _ */\n      pop\n      pop\n        /* \"contracts/OrderBook.sol\":7200:7492  function cancelAsk (uint256 askId) public isPending(askBook[askId]) isAuthorised(askBook[askId], msg.sender) {... */\n      pop\n      pop\n      jump\t// out\n        /* \"contracts/OrderBook.sol\":5758:5914  function AppendString(bytes32 a, bytes32 b) public pure returns (string memory) {... */\n    tag_41:\n        /* \"contracts/OrderBook.sol\":5823:5836  string memory */\n      0x60\n        /* \"contracts/OrderBook.sol\":5883:5884  a */\n      dup3\n        /* \"contracts/OrderBook.sol\":5903:5904  b */\n      dup3\n        /* \"contracts/OrderBook.sol\":5862:5906  bytes.concat(bytes32(a), \" , \" , bytes32(b)) */\n      add(0x20, mload(0x40))\n      tag_154\n      swap3\n      swap2\n      swap1\n      tag_155\n      jump\t// in\n    tag_154:\n      mload(0x40)\n      0x20\n      dup2\n      dup4\n      sub\n      sub\n      dup2\n      mstore\n      swap1\n      0x40\n      mstore\n        /* \"contracts/OrderBook.sol\":5848:5907  return string(bytes.concat(bytes32(a), \" , \" , bytes32(b))) */\n      swap1\n      pop\n        /* \"contracts/OrderBook.sol\":5758:5914  function AppendString(bytes32 a, bytes32 b) public pure returns (string memory) {... */\n      swap3\n      swap2\n      pop\n      pop\n      jump\t// out\n        /* \"contracts/OrderBook.sol\":8500:8604  function getBidValue (uint256 id) public view returns(uint256) {... */\n    tag_47:\n        /* \"contracts/OrderBook.sol\":8554:8561  uint256 */\n      0x00\n        /* \"contracts/OrderBook.sol\":8580:8587  bidBook */\n      0x03\n        /* \"contracts/OrderBook.sol\":8580:8591  bidBook[id] */\n      0x00\n        /* \"contracts/OrderBook.sol\":8588:8590  id */\n      dup4\n        /* \"contracts/OrderBook.sol\":8580:8591  bidBook[id] */\n      dup2\n      mstore\n      0x20\n      add\n      swap1\n      dup2\n      mstore\n      0x20\n      add\n      0x00\n      keccak256\n        /* \"contracts/OrderBook.sol\":8580:8597  bidBook[id].value */\n      0x01\n      add\n      sload\n        /* \"contracts/OrderBook.sol\":8573:8597  return bidBook[id].value */\n      swap1\n      pop\n        /* \"contracts/OrderBook.sol\":8500:8604  function getBidValue (uint256 id) public view returns(uint256) {... */\n      swap2\n      swap1\n      pop\n      jump\t// out\n        /* \"contracts/OrderBook.sol\":7707:7769  function fetchAllBid() public returns (order[] memory) {... */\n    tag_52:\n        /* \"contracts/OrderBook.sol\":7746:7760  order[] memory */\n      0x60\n        /* \"contracts/OrderBook.sol\":7707:7769  function fetchAllBid() public returns (order[] memory) {... */\n      swap1\n      jump\t// out\n        /* \"contracts/OrderBook.sol\":7526:7701  function fetchAsk() public view returns (string memory) {... */\n    tag_57:\n        /* \"contracts/OrderBook.sol\":7567:7580  string memory */\n      0x60\n        /* \"contracts/OrderBook.sol\":7592:7607  uint256 current */\n      0x00\n        /* \"contracts/OrderBook.sol\":7610:7617  askHead */\n      sload(0x08)\n        /* \"contracts/OrderBook.sol\":7592:7617  uint256 current = askHead */\n      swap1\n      pop\n        /* \"contracts/OrderBook.sol\":7627:7647  string memory output */\n      0x00\n        /* \"contracts/OrderBook.sol\":7627:7652  string memory output = \"\" */\n      mload(0x40)\n      dup1\n      0x20\n      add\n      0x40\n      mstore\n      dup1\n      0x00\n      dup2\n      mstore\n      pop\n      swap1\n      pop\n        /* \"contracts/OrderBook.sol\":7662:7695  while (askHead != 0) {... */\n    tag_159:\n        /* \"contracts/OrderBook.sol\":7680:7681  0 */\n      0x00\n        /* \"contracts/OrderBook.sol\":7669:7676  askHead */\n      sload(0x08)\n        /* \"contracts/OrderBook.sol\":7669:7681  askHead != 0 */\n      sub\n        /* \"contracts/OrderBook.sol\":7662:7695  while (askHead != 0) {... */\n      tag_159\n      jumpi\n        /* \"contracts/OrderBook.sol\":7582:7701  {... */\n      pop\n      pop\n        /* \"contracts/OrderBook.sol\":7526:7701  function fetchAsk() public view returns (string memory) {... */\n      swap1\n      jump\t// out\n        /* \"contracts/OrderBook.sol\":8828:8930  function getAskState (uint256 id) public view returns(State) {... */\n    tag_62:\n        /* \"contracts/OrderBook.sol\":8882:8887  State */\n      0x00\n        /* \"contracts/OrderBook.sol\":8906:8913  askBook */\n      0x07\n        /* \"contracts/OrderBook.sol\":8906:8917  askBook[id] */\n      0x00\n        /* \"contracts/OrderBook.sol\":8914:8916  id */\n      dup4\n        /* \"contracts/OrderBook.sol\":8906:8917  askBook[id] */\n      dup2\n      mstore\n      0x20\n      add\n      swap1\n      dup2\n      mstore\n      0x20\n      add\n      0x00\n      keccak256\n        /* \"contracts/OrderBook.sol\":8906:8923  askBook[id].state */\n      0x03\n      add\n      0x00\n      swap1\n      sload\n      swap1\n      0x0100\n      exp\n      swap1\n      div\n      0xff\n      and\n        /* \"contracts/OrderBook.sol\":8899:8923  return askBook[id].state */\n      swap1\n      pop\n        /* \"contracts/OrderBook.sol\":8828:8930  function getAskState (uint256 id) public view returns(State) {... */\n      swap2\n      swap1\n      pop\n      jump\t// out\n        /* \"contracts/OrderBook.sol\":8254:8371  function getBidAddress (uint256 id) public view returns(address payable) {... */\n    tag_68:\n        /* \"contracts/OrderBook.sol\":8310:8325  address payable */\n      0x00\n        /* \"contracts/OrderBook.sol\":8344:8351  bidBook */\n      0x03\n        /* \"contracts/OrderBook.sol\":8344:8355  bidBook[id] */\n      0x00\n        /* \"contracts/OrderBook.sol\":8352:8354  id */\n      dup4\n        /* \"contracts/OrderBook.sol\":8344:8355  bidBook[id] */\n      dup2\n      mstore\n      0x20\n      add\n      swap1\n      dup2\n      mstore\n      0x20\n      add\n      0x00\n      keccak256\n        /* \"contracts/OrderBook.sol\":8344:8364  bidBook[id].customer */\n      0x00\n      add\n      0x00\n      swap1\n      sload\n      swap1\n      0x0100\n      exp\n      swap1\n      div\n      0xffffffffffffffffffffffffffffffffffffffff\n      and\n        /* \"contracts/OrderBook.sol\":8337:8364  return bidBook[id].customer */\n      swap1\n      pop\n        /* \"contracts/OrderBook.sol\":8254:8371  function getBidAddress (uint256 id) public view returns(address payable) {... */\n      swap2\n      swap1\n      pop\n      jump\t// out\n        /* \"contracts/OrderBook.sol\":1797:1819  uint256 public bidHead */\n    tag_73:\n      sload(0x04)\n      dup2\n      jump\t// out\n        /* \"contracts/OrderBook.sol\":8377:8494  function getAskAddress (uint256 id) public view returns(address payable) {... */\n    tag_78:\n        /* \"contracts/OrderBook.sol\":8433:8448  address payable */\n      0x00\n        /* \"contracts/OrderBook.sol\":8467:8474  askBook */\n      0x07\n        /* \"contracts/OrderBook.sol\":8467:8478  askBook[id] */\n      0x00\n        /* \"contracts/OrderBook.sol\":8475:8477  id */\n      dup4\n        /* \"contracts/OrderBook.sol\":8467:8478  askBook[id] */\n      dup2\n      mstore\n      0x20\n      add\n      swap1\n      dup2\n      mstore\n      0x20\n      add\n      0x00\n      keccak256\n        /* \"contracts/OrderBook.sol\":8467:8487  askBook[id].customer */\n      0x00\n      add\n      0x00\n      swap1\n      sload\n      swap1\n      0x0100\n      exp\n      swap1\n      div\n      0xffffffffffffffffffffffffffffffffffffffff\n      and\n        /* \"contracts/OrderBook.sol\":8460:8487  return askBook[id].customer */\n      swap1\n      pop\n        /* \"contracts/OrderBook.sol\":8377:8494  function getAskAddress (uint256 id) public view returns(address payable) {... */\n      swap2\n      swap1\n      pop\n      jump\t// out\n        /* \"contracts/OrderBook.sol\":6790:7194  function placeAsk (uint256 price) public payable {... */\n    tag_82:\n        /* \"contracts/OrderBook.sol\":6866:6867  0 */\n      0x00\n        /* \"contracts/OrderBook.sol\":6857:6862  price */\n      dup2\n        /* \"contracts/OrderBook.sol\":6857:6867  price >= 0 */\n      lt\n      iszero\n        /* \"contracts/OrderBook.sol\":6849:6903  require(price >= 0, \"price value must be more than 0\") */\n      tag_165\n      jumpi\n      mload(0x40)\n      0x08c379a000000000000000000000000000000000000000000000000000000000\n      dup2\n      mstore\n      0x04\n      add\n      tag_166\n      swap1\n      tag_167\n      jump\t// in\n    tag_166:\n      mload(0x40)\n      dup1\n      swap2\n      sub\n      swap1\n      revert\n    tag_165:\n        /* \"contracts/OrderBook.sol\":6934:6939  price */\n      dup1\n        /* \"contracts/OrderBook.sol\":6921:6930  msg.value */\n      callvalue\n        /* \"contracts/OrderBook.sol\":6921:6939  msg.value >= price */\n      lt\n      iszero\n        /* \"contracts/OrderBook.sol\":6913:6974  require(msg.value >= price, \"Not enough blance to place ask\") */\n      tag_168\n      jumpi\n      mload(0x40)\n      0x08c379a000000000000000000000000000000000000000000000000000000000\n      dup2\n      mstore\n      0x04\n      add\n      tag_169\n      swap1\n      tag_170\n      jump\t// in\n    tag_169:\n      mload(0x40)\n      dup1\n      swap2\n      sub\n      swap1\n      revert\n    tag_168:\n        /* \"contracts/OrderBook.sol\":6984:6996  uint256 time */\n      0x00\n        /* \"contracts/OrderBook.sol\":6999:7014  block.timestamp */\n      timestamp\n        /* \"contracts/OrderBook.sol\":6984:7014  uint256 time = block.timestamp */\n      swap1\n      pop\n        /* \"contracts/OrderBook.sol\":7024:7049  uint256 commissionedPrice */\n      0x00\n        /* \"contracts/OrderBook.sol\":7083:7086  100 */\n      0x64\n        /* \"contracts/OrderBook.sol\":7069:7079  commission */\n      sload(0x02)\n        /* \"contracts/OrderBook.sol\":7065:7068  100 */\n      0x64\n        /* \"contracts/OrderBook.sol\":7065:7079  100-commission */\n      tag_171\n      swap2\n      swap1\n      tag_172\n      jump\t// in\n    tag_171:\n        /* \"contracts/OrderBook.sol\":7052:7061  msg.value */\n      callvalue\n        /* \"contracts/OrderBook.sol\":7052:7080  msg.value * (100-commission) */\n      tag_173\n      swap2\n      swap1\n      tag_174\n      jump\t// in\n    tag_173:\n        /* \"contracts/OrderBook.sol\":7052:7086  msg.value * (100-commission) / 100 */\n      tag_175\n      swap2\n      swap1\n      tag_176\n      jump\t// in\n    tag_175:\n        /* \"contracts/OrderBook.sol\":7024:7086  uint256 commissionedPrice = msg.value * (100-commission) / 100 */\n      swap1\n      pop\n        /* \"contracts/OrderBook.sol\":7096:7115  order memory newAsk */\n      0x00\n        /* \"contracts/OrderBook.sol\":7118:7162  createAsk(msg.sender,time,commissionedPrice) */\n      tag_177\n        /* \"contracts/OrderBook.sol\":7128:7138  msg.sender */\n      caller\n        /* \"contracts/OrderBook.sol\":7139:7143  time */\n      dup5\n        /* \"contracts/OrderBook.sol\":7144:7161  commissionedPrice */\n      dup5\n        /* \"contracts/OrderBook.sol\":7118:7127  createAsk */\n      tag_178\n        /* \"contracts/OrderBook.sol\":7118:7162  createAsk(msg.sender,time,commissionedPrice) */\n      jump\t// in\n    tag_177:\n        /* \"contracts/OrderBook.sol\":7096:7162  order memory newAsk = createAsk(msg.sender,time,commissionedPrice) */\n      swap1\n      pop\n        /* \"contracts/OrderBook.sol\":7172:7187  sortAsk(newAsk) */\n      tag_179\n        /* \"contracts/OrderBook.sol\":7180:7186  newAsk */\n      dup2\n        /* \"contracts/OrderBook.sol\":7172:7179  sortAsk */\n      tag_180\n        /* \"contracts/OrderBook.sol\":7172:7187  sortAsk(newAsk) */\n      jump\t// in\n    tag_179:\n        /* \"contracts/OrderBook.sol\":6839:7194  {... */\n      pop\n      pop\n      pop\n        /* \"contracts/OrderBook.sol\":6790:7194  function placeAsk (uint256 price) public payable {... */\n      pop\n      jump\t// out\n        /* \"contracts/OrderBook.sol\":1825:1847  uint256 public bidTail */\n    tag_85:\n      sload(0x05)\n      dup2\n      jump\t// out\n        /* \"contracts/OrderBook.sol\":1970:1992  uint256 public askHead */\n    tag_89:\n      sload(0x08)\n      dup2\n      jump\t// out\n        /* \"contracts/OrderBook.sol\":6527:6784  function cancelBid (uint256 bidId) public isPending(bidBook[bidId]) isAuthorised(bidBook[bidId], msg.sender) {... */\n    tag_94:\n        /* \"contracts/OrderBook.sol\":6579:6586  bidBook */\n      0x03\n        /* \"contracts/OrderBook.sol\":6579:6593  bidBook[bidId] */\n      0x00\n        /* \"contracts/OrderBook.sol\":6587:6592  bidId */\n      dup3\n        /* \"contracts/OrderBook.sol\":6579:6593  bidBook[bidId] */\n      dup2\n      mstore\n      0x20\n      add\n      swap1\n      dup2\n      mstore\n      0x20\n      add\n      0x00\n      keccak256\n        /* \"contracts/OrderBook.sol\":2565:2688  modifier isPending(order memory _order) {... */\n      mload(0x40)\n      dup1\n      0xe0\n      add\n      0x40\n      mstore\n      swap1\n      dup2\n      0x00\n      dup3\n      add\n      0x00\n      swap1\n      sload\n      swap1\n      0x0100\n      exp\n      swap1\n      div\n      0xffffffffffffffffffffffffffffffffffffffff\n      and\n      0xffffffffffffffffffffffffffffffffffffffff\n      and\n      0xffffffffffffffffffffffffffffffffffffffff\n      and\n      dup2\n      mstore\n      0x20\n      add\n      0x01\n      dup3\n      add\n      sload\n      dup2\n      mstore\n      0x20\n      add\n      0x02\n      dup3\n      add\n      sload\n      dup2\n      mstore\n      0x20\n      add\n      0x03\n      dup3\n      add\n      0x00\n      swap1\n      sload\n      swap1\n      0x0100\n      exp\n      swap1\n      div\n      0xff\n      and\n      0x01\n      dup2\n      gt\n      iszero\n      tag_181\n      jumpi\n      tag_182\n      tag_133\n      jump\t// in\n    tag_182:\n    tag_181:\n      0x01\n      dup2\n      gt\n      iszero\n      tag_183\n      jumpi\n      tag_184\n      tag_133\n      jump\t// in\n    tag_184:\n    tag_183:\n      dup2\n      mstore\n      0x20\n      add\n      0x04\n      dup3\n      add\n      sload\n      dup2\n      mstore\n      0x20\n      add\n      0x05\n      dup3\n      add\n      sload\n      dup2\n      mstore\n      0x20\n      add\n      0x06\n      dup3\n      add\n      sload\n      dup2\n      mstore\n      pop\n      pop\n        /* \"contracts/OrderBook.sol\":2639:2652  State.pending */\n      0x00\n        /* \"contracts/OrderBook.sol\":2623:2652  _order.state == State.pending */\n      0x01\n      dup2\n      gt\n      iszero\n      tag_186\n      jumpi\n      tag_187\n      tag_133\n      jump\t// in\n    tag_187:\n    tag_186:\n        /* \"contracts/OrderBook.sol\":2623:2629  _order */\n      dup2\n        /* \"contracts/OrderBook.sol\":2623:2635  _order.state */\n      0x60\n      add\n      mload\n        /* \"contracts/OrderBook.sol\":2623:2652  _order.state == State.pending */\n      0x01\n      dup2\n      gt\n      iszero\n      tag_188\n      jumpi\n      tag_189\n      tag_133\n      jump\t// in\n    tag_189:\n    tag_188:\n      eq\n        /* \"contracts/OrderBook.sol\":2615:2670  require(_order.state == State.pending, \"Order Pending\") */\n      tag_190\n      jumpi\n      mload(0x40)\n      0x08c379a000000000000000000000000000000000000000000000000000000000\n      dup2\n      mstore\n      0x04\n      add\n      tag_191\n      swap1\n      tag_143\n      jump\t// in\n    tag_191:\n      mload(0x40)\n      dup1\n      swap2\n      sub\n      swap1\n      revert\n    tag_190:\n        /* \"contracts/OrderBook.sol\":6608:6615  bidBook */\n      0x03\n        /* \"contracts/OrderBook.sol\":6608:6622  bidBook[bidId] */\n      0x00\n        /* \"contracts/OrderBook.sol\":6616:6621  bidId */\n      dup4\n        /* \"contracts/OrderBook.sol\":6608:6622  bidBook[bidId] */\n      dup2\n      mstore\n      0x20\n      add\n      swap1\n      dup2\n      mstore\n      0x20\n      add\n      0x00\n      keccak256\n        /* \"contracts/OrderBook.sol\":2694:2833  modifier isAuthorised(order memory _order, address sender) {... */\n      mload(0x40)\n      dup1\n      0xe0\n      add\n      0x40\n      mstore\n      swap1\n      dup2\n      0x00\n      dup3\n      add\n      0x00\n      swap1\n      sload\n      swap1\n      0x0100\n      exp\n      swap1\n      div\n      0xffffffffffffffffffffffffffffffffffffffff\n      and\n      0xffffffffffffffffffffffffffffffffffffffff\n      and\n      0xffffffffffffffffffffffffffffffffffffffff\n      and\n      dup2\n      mstore\n      0x20\n      add\n      0x01\n      dup3\n      add\n      sload\n      dup2\n      mstore\n      0x20\n      add\n      0x02\n      dup3\n      add\n      sload\n      dup2\n      mstore\n      0x20\n      add\n      0x03\n      dup3\n      add\n      0x00\n      swap1\n      sload\n      swap1\n      0x0100\n      exp\n      swap1\n      div\n      0xff\n      and\n      0x01\n      dup2\n      gt\n      iszero\n      tag_192\n      jumpi\n      tag_193\n      tag_133\n      jump\t// in\n    tag_193:\n    tag_192:\n      0x01\n      dup2\n      gt\n      iszero\n      tag_194\n      jumpi\n      tag_195\n      tag_133\n      jump\t// in\n    tag_195:\n    tag_194:\n      dup2\n      mstore\n      0x20\n      add\n      0x04\n      dup3\n      add\n      sload\n      dup2\n      mstore\n      0x20\n      add\n      0x05\n      dup3\n      add\n      sload\n      dup2\n      mstore\n      0x20\n      add\n      0x06\n      dup3\n      add\n      sload\n      dup2\n      mstore\n      pop\n      pop\n        /* \"contracts/OrderBook.sol\":6624:6634  msg.sender */\n      caller\n        /* \"contracts/OrderBook.sol\":2790:2796  sender */\n      dup1\n        /* \"contracts/OrderBook.sol\":2771:2796  _order.customer == sender */\n      0xffffffffffffffffffffffffffffffffffffffff\n      and\n        /* \"contracts/OrderBook.sol\":2771:2777  _order */\n      dup3\n        /* \"contracts/OrderBook.sol\":2771:2786  _order.customer */\n      0x00\n      add\n      mload\n        /* \"contracts/OrderBook.sol\":2771:2796  _order.customer == sender */\n      0xffffffffffffffffffffffffffffffffffffffff\n      and\n      eq\n        /* \"contracts/OrderBook.sol\":2763:2815  require(_order.customer == sender, \"Not Authorised\") */\n      tag_197\n      jumpi\n      mload(0x40)\n      0x08c379a000000000000000000000000000000000000000000000000000000000\n      dup2\n      mstore\n      0x04\n      add\n      tag_198\n      swap1\n      tag_151\n      jump\t// in\n    tag_198:\n      mload(0x40)\n      dup1\n      swap2\n      sub\n      swap1\n      revert\n    tag_197:\n        /* \"contracts/OrderBook.sol\":2680:2681  _ */\n      pop\n      pop\n        /* \"contracts/OrderBook.sol\":6527:6784  function cancelBid (uint256 bidId) public isPending(bidBook[bidId]) isAuthorised(bidBook[bidId], msg.sender) {... */\n      pop\n      pop\n      jump\t// out\n        /* \"contracts/OrderBook.sol\":5952:6521  function placeBid (uint256 price) public payable {... */\n    tag_97:\n        /* \"contracts/OrderBook.sol\":6028:6029  0 */\n      0x00\n        /* \"contracts/OrderBook.sol\":6019:6024  price */\n      dup2\n        /* \"contracts/OrderBook.sol\":6019:6029  price >= 0 */\n      lt\n      iszero\n        /* \"contracts/OrderBook.sol\":6011:6065  require(price >= 0, \"price value must be more than 0\") */\n      tag_201\n      jumpi\n      mload(0x40)\n      0x08c379a000000000000000000000000000000000000000000000000000000000\n      dup2\n      mstore\n      0x04\n      add\n      tag_202\n      swap1\n      tag_167\n      jump\t// in\n    tag_202:\n      mload(0x40)\n      dup1\n      swap2\n      sub\n      swap1\n      revert\n    tag_201:\n        /* \"contracts/OrderBook.sol\":6096:6101  price */\n      dup1\n        /* \"contracts/OrderBook.sol\":6083:6092  msg.value */\n      callvalue\n        /* \"contracts/OrderBook.sol\":6083:6101  msg.value >= price */\n      lt\n      iszero\n        /* \"contracts/OrderBook.sol\":6075:6136  require(msg.value >= price, \"Not enough blance to place bid\") */\n      tag_203\n      jumpi\n      mload(0x40)\n      0x08c379a000000000000000000000000000000000000000000000000000000000\n      dup2\n      mstore\n      0x04\n      add\n      tag_204\n      swap1\n      tag_205\n      jump\t// in\n    tag_204:\n      mload(0x40)\n      dup1\n      swap2\n      sub\n      swap1\n      revert\n    tag_203:\n        /* \"contracts/OrderBook.sol\":5952:6521  function placeBid (uint256 price) public payable {... */\n      pop\n      jump\t// out\n        /* \"contracts/OrderBook.sol\":2026:2049  uint256 public askCount */\n    tag_100:\n      sload(0x0a)\n      dup2\n      jump\t// out\n        /* \"contracts/OrderBook.sol\":1853:1876  uint256 public bidCount */\n    tag_104:\n      sload(0x06)\n      dup2\n      jump\t// out\n        /* \"contracts/OrderBook.sol\":8720:8822  function getBidState (uint256 id) public view returns(State) {... */\n    tag_109:\n        /* \"contracts/OrderBook.sol\":8774:8779  State */\n      0x00\n        /* \"contracts/OrderBook.sol\":8798:8805  bidBook */\n      0x03\n        /* \"contracts/OrderBook.sol\":8798:8809  bidBook[id] */\n      0x00\n        /* \"contracts/OrderBook.sol\":8806:8808  id */\n      dup4\n        /* \"contracts/OrderBook.sol\":8798:8809  bidBook[id] */\n      dup2\n      mstore\n      0x20\n      add\n      swap1\n      dup2\n      mstore\n      0x20\n      add\n      0x00\n      keccak256\n        /* \"contracts/OrderBook.sol\":8798:8815  bidBook[id].state */\n      0x03\n      add\n      0x00\n      swap1\n      sload\n      swap1\n      0x0100\n      exp\n      swap1\n      div\n      0xff\n      and\n        /* \"contracts/OrderBook.sol\":8791:8815  return bidBook[id].state */\n      swap1\n      pop\n        /* \"contracts/OrderBook.sol\":8720:8822  function getBidState (uint256 id) public view returns(State) {... */\n      swap2\n      swap1\n      pop\n      jump\t// out\n        /* \"contracts/OrderBook.sol\":7776:7844  function fetchYourBidIds() public returns (uint256[] memory) {... */\n    tag_113:\n        /* \"contracts/OrderBook.sol\":7819:7835  uint256[] memory */\n      0x60\n        /* \"contracts/OrderBook.sol\":7776:7844  function fetchYourBidIds() public returns (uint256[] memory) {... */\n      swap1\n      jump\t// out\n        /* \"contracts/OrderBook.sol\":7924:8248  function getOrder(uint256 id) public view returns(address payable,uint256,uint256,State,uint256,uint256,uint256,bool) {... */\n    tag_118:\n        /* \"contracts/OrderBook.sol\":7974:7989  address payable */\n      0x00\n        /* \"contracts/OrderBook.sol\":7990:7997  uint256 */\n      dup1\n        /* \"contracts/OrderBook.sol\":7998:8005  uint256 */\n      0x00\n        /* \"contracts/OrderBook.sol\":8006:8011  State */\n      dup1\n        /* \"contracts/OrderBook.sol\":8012:8019  uint256 */\n      0x00\n        /* \"contracts/OrderBook.sol\":8020:8027  uint256 */\n      dup1\n        /* \"contracts/OrderBook.sol\":8028:8035  uint256 */\n      0x00\n        /* \"contracts/OrderBook.sol\":8036:8040  bool */\n      dup1\n        /* \"contracts/OrderBook.sol\":7924:8248  function getOrder(uint256 id) public view returns(address payable,uint256,uint256,State,uint256,uint256,uint256,bool) {... */\n      swap2\n      swap4\n      swap6\n      swap8\n      pop\n      swap2\n      swap4\n      swap6\n      swap8\n      jump\t// out\n        /* \"contracts/OrderBook.sol\":8610:8714  function getAskValue (uint256 id) public view returns(uint256) {... */\n    tag_124:\n        /* \"contracts/OrderBook.sol\":8664:8671  uint256 */\n      0x00\n        /* \"contracts/OrderBook.sol\":8690:8697  askBook */\n      0x07\n        /* \"contracts/OrderBook.sol\":8690:8701  askBook[id] */\n      0x00\n        /* \"contracts/OrderBook.sol\":8698:8700  id */\n      dup4\n        /* \"contracts/OrderBook.sol\":8690:8701  askBook[id] */\n      dup2\n      mstore\n      0x20\n      add\n      swap1\n      dup2\n      mstore\n      0x20\n      add\n      0x00\n      keccak256\n        /* \"contracts/OrderBook.sol\":8690:8707  askBook[id].value */\n      0x01\n      add\n      sload\n        /* \"contracts/OrderBook.sol\":8683:8707  return askBook[id].value */\n      swap1\n      pop\n        /* \"contracts/OrderBook.sol\":8610:8714  function getAskValue (uint256 id) public view returns(uint256) {... */\n      swap2\n      swap1\n      pop\n      jump\t// out\n        /* \"contracts/OrderBook.sol\":1998:2020  uint256 public askTail */\n    tag_128:\n      sload(0x09)\n      dup2\n      jump\t// out\n        /* \"contracts/OrderBook.sol\":3350:3828  function createAsk(address customer, uint256 value, uint256 timestamp) internal returns (order memory) {... */\n    tag_178:\n        /* \"contracts/OrderBook.sol\":3439:3451  order memory */\n      tag_210\n      tag_211\n      jump\t// in\n    tag_210:\n        /* \"contracts/OrderBook.sol\":3463:3471  askCount */\n      0x0a\n      0x00\n        /* \"contracts/OrderBook.sol\":3463:3474  askCount ++ */\n      dup2\n      sload\n      dup1\n      swap3\n      swap2\n      swap1\n      tag_213\n      swap1\n      tag_214\n      jump\t// in\n    tag_213:\n      swap2\n      swap1\n      pop\n      sstore\n      pop\n        /* \"contracts/OrderBook.sol\":3484:3503  order memory newAsk */\n      0x00\n        /* \"contracts/OrderBook.sol\":3506:3673  order(... */\n      mload(0x40)\n      dup1\n      0xe0\n      add\n      0x40\n      mstore\n      dup1\n        /* \"contracts/OrderBook.sol\":3533:3541  customer */\n      dup7\n        /* \"contracts/OrderBook.sol\":3506:3673  order(... */\n      0xffffffffffffffffffffffffffffffffffffffff\n      and\n      dup2\n      mstore\n      0x20\n      add\n        /* \"contracts/OrderBook.sol\":3556:3561  value */\n      dup6\n        /* \"contracts/OrderBook.sol\":3506:3673  order(... */\n      dup2\n      mstore\n      0x20\n      add\n        /* \"contracts/OrderBook.sol\":3575:3584  timestamp */\n      dup5\n        /* \"contracts/OrderBook.sol\":3506:3673  order(... */\n      dup2\n      mstore\n      0x20\n      add\n        /* \"contracts/OrderBook.sol\":3598:3611  State.pending */\n      0x00\n        /* \"contracts/OrderBook.sol\":3506:3673  order(... */\n      0x01\n      dup2\n      gt\n      iszero\n      tag_215\n      jumpi\n      tag_216\n      tag_133\n      jump\t// in\n    tag_216:\n    tag_215:\n      dup2\n      mstore\n      0x20\n      add\n        /* \"contracts/OrderBook.sol\":3625:3633  askCount */\n      sload(0x0a)\n        /* \"contracts/OrderBook.sol\":3506:3673  order(... */\n      dup2\n      mstore\n      0x20\n      add\n        /* \"contracts/OrderBook.sol\":3647:3648  0 */\n      0x00\n        /* \"contracts/OrderBook.sol\":3506:3673  order(... */\n      dup2\n      mstore\n      0x20\n      add\n        /* \"contracts/OrderBook.sol\":3662:3663  0 */\n      0x00\n        /* \"contracts/OrderBook.sol\":3506:3673  order(... */\n      dup2\n      mstore\n      pop\n        /* \"contracts/OrderBook.sol\":3484:3673  order memory newAsk = order(... */\n      swap1\n      pop\n        /* \"contracts/OrderBook.sol\":3703:3709  newAsk */\n      dup1\n        /* \"contracts/OrderBook.sol\":3683:3690  askBook */\n      0x07\n        /* \"contracts/OrderBook.sol\":3683:3700  askBook[askCount] */\n      0x00\n        /* \"contracts/OrderBook.sol\":3691:3699  askCount */\n      sload(0x0a)\n        /* \"contracts/OrderBook.sol\":3683:3700  askBook[askCount] */\n      dup2\n      mstore\n      0x20\n      add\n      swap1\n      dup2\n      mstore\n      0x20\n      add\n      0x00\n      keccak256\n        /* \"contracts/OrderBook.sol\":3683:3709  askBook[askCount] = newAsk */\n      0x00\n      dup3\n      add\n      mload\n      dup2\n      0x00\n      add\n      exp(0x0100, 0x00)\n      dup2\n      sload\n      dup2\n      0xffffffffffffffffffffffffffffffffffffffff\n      mul\n      not\n      and\n      swap1\n      dup4\n      0xffffffffffffffffffffffffffffffffffffffff\n      and\n      mul\n      or\n      swap1\n      sstore\n      pop\n      0x20\n      dup3\n      add\n      mload\n      dup2\n      0x01\n      add\n      sstore\n      0x40\n      dup3\n      add\n      mload\n      dup2\n      0x02\n      add\n      sstore\n      0x60\n      dup3\n      add\n      mload\n      dup2\n      0x03\n      add\n      exp(0x0100, 0x00)\n      dup2\n      sload\n      dup2\n      0xff\n      mul\n      not\n      and\n      swap1\n      dup4\n      0x01\n      dup2\n      gt\n      iszero\n      tag_217\n      jumpi\n      tag_218\n      tag_133\n      jump\t// in\n    tag_218:\n    tag_217:\n      mul\n      or\n      swap1\n      sstore\n      pop\n      0x80\n      dup3\n      add\n      mload\n      dup2\n      0x04\n      add\n      sstore\n      0xa0\n      dup3\n      add\n      mload\n      dup2\n      0x05\n      add\n      sstore\n      0xc0\n      dup3\n      add\n      mload\n      dup2\n      0x06\n      add\n      sstore\n      swap1\n      pop\n      pop\n        /* \"contracts/OrderBook.sol\":3724:3795  orderCreated(customer,value,timestamp,State.pending,askCount,0,0,false) */\n      0x93caf6ba1af44020dfe6076e279533e38bd8deefe534c43aa8cc93aad2025b7d\n        /* \"contracts/OrderBook.sol\":3737:3745  customer */\n      dup6\n        /* \"contracts/OrderBook.sol\":3746:3751  value */\n      dup6\n        /* \"contracts/OrderBook.sol\":3752:3761  timestamp */\n      dup6\n        /* \"contracts/OrderBook.sol\":3762:3775  State.pending */\n      0x00\n        /* \"contracts/OrderBook.sol\":3776:3784  askCount */\n      sload(0x0a)\n        /* \"contracts/OrderBook.sol\":3785:3786  0 */\n      0x00\n        /* \"contracts/OrderBook.sol\":3787:3788  0 */\n      dup1\n        /* \"contracts/OrderBook.sol\":3789:3794  false */\n      0x00\n        /* \"contracts/OrderBook.sol\":3724:3795  orderCreated(customer,value,timestamp,State.pending,askCount,0,0,false) */\n      mload(0x40)\n      tag_219\n      swap9\n      swap8\n      swap7\n      swap6\n      swap5\n      swap4\n      swap3\n      swap2\n      swap1\n      tag_220\n      jump\t// in\n    tag_219:\n      mload(0x40)\n      dup1\n      swap2\n      sub\n      swap1\n      log1\n        /* \"contracts/OrderBook.sol\":3815:3821  newAsk */\n      dup1\n        /* \"contracts/OrderBook.sol\":3808:3821  return newAsk */\n      swap2\n      pop\n      pop\n        /* \"contracts/OrderBook.sol\":3350:3828  function createAsk(address customer, uint256 value, uint256 timestamp) internal returns (order memory) {... */\n      swap4\n      swap3\n      pop\n      pop\n      pop\n      jump\t// out\n        /* \"contracts/OrderBook.sol\":4613:5446  function sortAsk(order memory newOrder) internal {... */\n    tag_180:\n        /* \"contracts/OrderBook.sol\":4672:4687  uint256 current */\n      0x00\n        /* \"contracts/OrderBook.sol\":4712:4713  0 */\n      dup1\n        /* \"contracts/OrderBook.sol\":4701:4708  askHead */\n      sload(0x08)\n        /* \"contracts/OrderBook.sol\":4701:4713  askHead == 0 */\n      sub\n        /* \"contracts/OrderBook.sol\":4697:5440  if (askHead == 0) {... */\n      tag_222\n      jumpi\n        /* \"contracts/OrderBook.sol\":4739:4747  newOrder */\n      dup2\n        /* \"contracts/OrderBook.sol\":4739:4750  newOrder.id */\n      0x80\n      add\n      mload\n        /* \"contracts/OrderBook.sol\":4729:4736  askHead */\n      0x08\n        /* \"contracts/OrderBook.sol\":4729:4750  askHead = newOrder.id */\n      dup2\n      swap1\n      sstore\n      pop\n        /* \"contracts/OrderBook.sol\":4697:5440  if (askHead == 0) {... */\n      jump(tag_223)\n    tag_222:\n        /* \"contracts/OrderBook.sol\":4805:4813  newOrder */\n      dup2\n        /* \"contracts/OrderBook.sol\":4805:4819  newOrder.value */\n      0x20\n      add\n      mload\n        /* \"contracts/OrderBook.sol\":4779:4786  askBook */\n      0x07\n        /* \"contracts/OrderBook.sol\":4779:4795  askBook[askHead] */\n      0x00\n        /* \"contracts/OrderBook.sol\":4787:4794  askHead */\n      sload(0x08)\n        /* \"contracts/OrderBook.sol\":4779:4795  askBook[askHead] */\n      dup2\n      mstore\n      0x20\n      add\n      swap1\n      dup2\n      mstore\n      0x20\n      add\n      0x00\n      keccak256\n        /* \"contracts/OrderBook.sol\":4779:4801  askBook[askHead].value */\n      0x01\n      add\n      sload\n        /* \"contracts/OrderBook.sol\":4779:4819  askBook[askHead].value >= newOrder.value */\n      lt\n        /* \"contracts/OrderBook.sol\":4775:5440  if (askBook[askHead].value >= newOrder.value) {... */\n      tag_224\n      jumpi\n        /* \"contracts/OrderBook.sol\":4851:4858  askHead */\n      sload(0x08)\n        /* \"contracts/OrderBook.sol\":4835:4843  newOrder */\n      dup3\n        /* \"contracts/OrderBook.sol\":4835:4848  newOrder.next */\n      0xa0\n      add\n        /* \"contracts/OrderBook.sol\":4835:4858  newOrder.next = askHead */\n      dup2\n      dup2\n      mstore\n      pop\n      pop\n        /* \"contracts/OrderBook.sol\":4902:4910  newOrder */\n      dup2\n        /* \"contracts/OrderBook.sol\":4902:4913  newOrder.id */\n      0x80\n      add\n      mload\n        /* \"contracts/OrderBook.sol\":4872:4879  askBook */\n      0x07\n        /* \"contracts/OrderBook.sol\":4872:4894  askBook[newOrder.next] */\n      0x00\n        /* \"contracts/OrderBook.sol\":4880:4888  newOrder */\n      dup5\n        /* \"contracts/OrderBook.sol\":4880:4893  newOrder.next */\n      0xa0\n      add\n      mload\n        /* \"contracts/OrderBook.sol\":4872:4894  askBook[newOrder.next] */\n      dup2\n      mstore\n      0x20\n      add\n      swap1\n      dup2\n      mstore\n      0x20\n      add\n      0x00\n      keccak256\n        /* \"contracts/OrderBook.sol\":4872:4899  askBook[newOrder.next].prev */\n      0x06\n      add\n        /* \"contracts/OrderBook.sol\":4872:4913  askBook[newOrder.next].prev = newOrder.id */\n      dup2\n      swap1\n      sstore\n      pop\n        /* \"contracts/OrderBook.sol\":4937:4945  newOrder */\n      dup2\n        /* \"contracts/OrderBook.sol\":4937:4948  newOrder.id */\n      0x80\n      add\n      mload\n        /* \"contracts/OrderBook.sol\":4927:4934  askHead */\n      0x08\n        /* \"contracts/OrderBook.sol\":4927:4948  askHead = newOrder.id */\n      dup2\n      swap1\n      sstore\n      pop\n        /* \"contracts/OrderBook.sol\":4775:5440  if (askBook[askHead].value >= newOrder.value) {... */\n      jump(tag_225)\n    tag_224:\n        /* \"contracts/OrderBook.sol\":4997:5004  askHead */\n      sload(0x08)\n        /* \"contracts/OrderBook.sol\":4987:5004  current = askHead */\n      swap1\n      pop\n        /* \"contracts/OrderBook.sol\":5018:5174  while (askBook[current].next != 0 && askBook[askBook[current].next].value < newOrder.value) {... */\n    tag_226:\n        /* \"contracts/OrderBook.sol\":5050:5051  0 */\n      0x00\n        /* \"contracts/OrderBook.sol\":5025:5032  askBook */\n      0x07\n        /* \"contracts/OrderBook.sol\":5025:5041  askBook[current] */\n      0x00\n        /* \"contracts/OrderBook.sol\":5033:5040  current */\n      dup4\n        /* \"contracts/OrderBook.sol\":5025:5041  askBook[current] */\n      dup2\n      mstore\n      0x20\n      add\n      swap1\n      dup2\n      mstore\n      0x20\n      add\n      0x00\n      keccak256\n        /* \"contracts/OrderBook.sol\":5025:5046  askBook[current].next */\n      0x05\n      add\n      sload\n        /* \"contracts/OrderBook.sol\":5025:5051  askBook[current].next != 0 */\n      eq\n      iszero\n        /* \"contracts/OrderBook.sol\":5025:5108  askBook[current].next != 0 && askBook[askBook[current].next].value < newOrder.value */\n      dup1\n      iszero\n      tag_228\n      jumpi\n      pop\n        /* \"contracts/OrderBook.sol\":5094:5102  newOrder */\n      dup2\n        /* \"contracts/OrderBook.sol\":5094:5108  newOrder.value */\n      0x20\n      add\n      mload\n        /* \"contracts/OrderBook.sol\":5055:5062  askBook */\n      0x07\n        /* \"contracts/OrderBook.sol\":5055:5085  askBook[askBook[current].next] */\n      0x00\n        /* \"contracts/OrderBook.sol\":5063:5070  askBook */\n      0x07\n        /* \"contracts/OrderBook.sol\":5063:5079  askBook[current] */\n      0x00\n        /* \"contracts/OrderBook.sol\":5071:5078  current */\n      dup6\n        /* \"contracts/OrderBook.sol\":5063:5079  askBook[current] */\n      dup2\n      mstore\n      0x20\n      add\n      swap1\n      dup2\n      mstore\n      0x20\n      add\n      0x00\n      keccak256\n        /* \"contracts/OrderBook.sol\":5063:5084  askBook[current].next */\n      0x05\n      add\n      sload\n        /* \"contracts/OrderBook.sol\":5055:5085  askBook[askBook[current].next] */\n      dup2\n      mstore\n      0x20\n      add\n      swap1\n      dup2\n      mstore\n      0x20\n      add\n      0x00\n      keccak256\n        /* \"contracts/OrderBook.sol\":5055:5091  askBook[askBook[current].next].value */\n      0x01\n      add\n      sload\n        /* \"contracts/OrderBook.sol\":5055:5108  askBook[askBook[current].next].value < newOrder.value */\n      lt\n        /* \"contracts/OrderBook.sol\":5025:5108  askBook[current].next != 0 && askBook[askBook[current].next].value < newOrder.value */\n    tag_228:\n        /* \"contracts/OrderBook.sol\":5018:5174  while (askBook[current].next != 0 && askBook[askBook[current].next].value < newOrder.value) {... */\n      iszero\n      tag_227\n      jumpi\n        /* \"contracts/OrderBook.sol\":5138:5145  askBook */\n      0x07\n        /* \"contracts/OrderBook.sol\":5138:5154  askBook[current] */\n      0x00\n        /* \"contracts/OrderBook.sol\":5146:5153  current */\n      dup3\n        /* \"contracts/OrderBook.sol\":5138:5154  askBook[current] */\n      dup2\n      mstore\n      0x20\n      add\n      swap1\n      dup2\n      mstore\n      0x20\n      add\n      0x00\n      keccak256\n        /* \"contracts/OrderBook.sol\":5138:5159  askBook[current].next */\n      0x05\n      add\n      sload\n        /* \"contracts/OrderBook.sol\":5128:5159  current = askBook[current].next */\n      swap1\n      pop\n        /* \"contracts/OrderBook.sol\":5018:5174  while (askBook[current].next != 0 && askBook[askBook[current].next].value < newOrder.value) {... */\n      jump(tag_226)\n    tag_227:\n        /* \"contracts/OrderBook.sol\":5203:5210  askBook */\n      0x07\n        /* \"contracts/OrderBook.sol\":5203:5219  askBook[current] */\n      0x00\n        /* \"contracts/OrderBook.sol\":5211:5218  current */\n      dup3\n        /* \"contracts/OrderBook.sol\":5203:5219  askBook[current] */\n      dup2\n      mstore\n      0x20\n      add\n      swap1\n      dup2\n      mstore\n      0x20\n      add\n      0x00\n      keccak256\n        /* \"contracts/OrderBook.sol\":5203:5224  askBook[current].next */\n      0x05\n      add\n      sload\n        /* \"contracts/OrderBook.sol\":5187:5195  newOrder */\n      dup3\n        /* \"contracts/OrderBook.sol\":5187:5200  newOrder.next */\n      0xa0\n      add\n        /* \"contracts/OrderBook.sol\":5187:5224  newOrder.next = askBook[current].next */\n      dup2\n      dup2\n      mstore\n      pop\n      pop\n        /* \"contracts/OrderBook.sol\":5267:5268  0 */\n      0x00\n        /* \"contracts/OrderBook.sol\":5242:5249  askBook */\n      0x07\n        /* \"contracts/OrderBook.sol\":5242:5258  askBook[current] */\n      0x00\n        /* \"contracts/OrderBook.sol\":5250:5257  current */\n      dup4\n        /* \"contracts/OrderBook.sol\":5242:5258  askBook[current] */\n      dup2\n      mstore\n      0x20\n      add\n      swap1\n      dup2\n      mstore\n      0x20\n      add\n      0x00\n      keccak256\n        /* \"contracts/OrderBook.sol\":5242:5263  askBook[current].next */\n      0x05\n      add\n      sload\n        /* \"contracts/OrderBook.sol\":5242:5268  askBook[current].next != 0 */\n      eq\n        /* \"contracts/OrderBook.sol\":5238:5344  if (askBook[current].next != 0) {... */\n      tag_229\n      jumpi\n        /* \"contracts/OrderBook.sol\":5318:5326  newOrder */\n      dup2\n        /* \"contracts/OrderBook.sol\":5318:5329  newOrder.id */\n      0x80\n      add\n      mload\n        /* \"contracts/OrderBook.sol\":5288:5295  askBook */\n      0x07\n        /* \"contracts/OrderBook.sol\":5288:5310  askBook[newOrder.next] */\n      0x00\n        /* \"contracts/OrderBook.sol\":5296:5304  newOrder */\n      dup5\n        /* \"contracts/OrderBook.sol\":5296:5309  newOrder.next */\n      0xa0\n      add\n      mload\n        /* \"contracts/OrderBook.sol\":5288:5310  askBook[newOrder.next] */\n      dup2\n      mstore\n      0x20\n      add\n      swap1\n      dup2\n      mstore\n      0x20\n      add\n      0x00\n      keccak256\n        /* \"contracts/OrderBook.sol\":5288:5315  askBook[newOrder.next].prev */\n      0x06\n      add\n        /* \"contracts/OrderBook.sol\":5288:5329  askBook[newOrder.next].prev = newOrder.id */\n      dup2\n      swap1\n      sstore\n      pop\n        /* \"contracts/OrderBook.sol\":5238:5344  if (askBook[current].next != 0) {... */\n    tag_229:\n        /* \"contracts/OrderBook.sol\":5381:5389  newOrder */\n      dup2\n        /* \"contracts/OrderBook.sol\":5381:5392  newOrder.id */\n      0x80\n      add\n      mload\n        /* \"contracts/OrderBook.sol\":5357:5364  askBook */\n      0x07\n        /* \"contracts/OrderBook.sol\":5357:5373  askBook[current] */\n      0x00\n        /* \"contracts/OrderBook.sol\":5365:5372  current */\n      dup4\n        /* \"contracts/OrderBook.sol\":5357:5373  askBook[current] */\n      dup2\n      mstore\n      0x20\n      add\n      swap1\n      dup2\n      mstore\n      0x20\n      add\n      0x00\n      keccak256\n        /* \"contracts/OrderBook.sol\":5357:5378  askBook[current].next */\n      0x05\n      add\n        /* \"contracts/OrderBook.sol\":5357:5392  askBook[current].next = newOrder.id */\n      dup2\n      swap1\n      sstore\n      pop\n        /* \"contracts/OrderBook.sol\":5422:5429  current */\n      dup1\n        /* \"contracts/OrderBook.sol\":5406:5414  newOrder */\n      dup3\n        /* \"contracts/OrderBook.sol\":5406:5419  newOrder.prev */\n      0xc0\n      add\n        /* \"contracts/OrderBook.sol\":5406:5429  newOrder.prev = current */\n      dup2\n      dup2\n      mstore\n      pop\n      pop\n        /* \"contracts/OrderBook.sol\":4775:5440  if (askBook[askHead].value >= newOrder.value) {... */\n    tag_225:\n        /* \"contracts/OrderBook.sol\":4697:5440  if (askHead == 0) {... */\n    tag_223:\n        /* \"contracts/OrderBook.sol\":4662:5446  {... */\n      pop\n        /* \"contracts/OrderBook.sol\":4613:5446  function sortAsk(order memory newOrder) internal {... */\n      pop\n      jump\t// out\n    tag_211:\n      mload(0x40)\n      dup1\n      0xe0\n      add\n      0x40\n      mstore\n      dup1\n      and(0xffffffffffffffffffffffffffffffffffffffff, 0x00)\n      dup2\n      mstore\n      0x20\n      add\n      0x00\n      dup2\n      mstore\n      0x20\n      add\n      0x00\n      dup2\n      mstore\n      0x20\n      add\n      0x00\n      0x01\n      dup2\n      gt\n      iszero\n      tag_230\n      jumpi\n      tag_231\n      tag_133\n      jump\t// in\n    tag_231:\n    tag_230:\n      dup2\n      mstore\n      0x20\n      add\n      0x00\n      dup2\n      mstore\n      0x20\n      add\n      0x00\n      dup2\n      mstore\n      0x20\n      add\n      0x00\n      dup2\n      mstore\n      pop\n      swap1\n      jump\t// out\n        /* \"#utility.yul\":7:121   */\n    tag_232:\n        /* \"#utility.yul\":74:80   */\n      0x00\n        /* \"#utility.yul\":108:113   */\n      dup2\n        /* \"#utility.yul\":102:114   */\n      mload\n        /* \"#utility.yul\":92:114   */\n      swap1\n      pop\n        /* \"#utility.yul\":7:121   */\n      swap2\n      swap1\n      pop\n      jump\t// out\n        /* \"#utility.yul\":127:311   */\n    tag_233:\n        /* \"#utility.yul\":226:237   */\n      0x00\n        /* \"#utility.yul\":260:266   */\n      dup3\n        /* \"#utility.yul\":255:258   */\n      dup3\n        /* \"#utility.yul\":248:267   */\n      mstore\n        /* \"#utility.yul\":300:304   */\n      0x20\n        /* \"#utility.yul\":295:298   */\n      dup3\n        /* \"#utility.yul\":291:305   */\n      add\n        /* \"#utility.yul\":276:305   */\n      swap1\n      pop\n        /* \"#utility.yul\":127:311   */\n      swap3\n      swap2\n      pop\n      pop\n      jump\t// out\n        /* \"#utility.yul\":317:449   */\n    tag_234:\n        /* \"#utility.yul\":384:388   */\n      0x00\n        /* \"#utility.yul\":407:410   */\n      dup2\n        /* \"#utility.yul\":399:410   */\n      swap1\n      pop\n        /* \"#utility.yul\":437:441   */\n      0x20\n        /* \"#utility.yul\":432:435   */\n      dup3\n        /* \"#utility.yul\":428:442   */\n      add\n        /* \"#utility.yul\":420:442   */\n      swap1\n      pop\n        /* \"#utility.yul\":317:449   */\n      swap2\n      swap1\n      pop\n      jump\t// out\n        /* \"#utility.yul\":455:532   */\n    tag_235:\n        /* \"#utility.yul\":492:499   */\n      0x00\n        /* \"#utility.yul\":521:526   */\n      dup2\n        /* \"#utility.yul\":510:526   */\n      swap1\n      pop\n        /* \"#utility.yul\":455:532   */\n      swap2\n      swap1\n      pop\n      jump\t// out\n        /* \"#utility.yul\":538:646   */\n    tag_236:\n        /* \"#utility.yul\":615:639   */\n      tag_299\n        /* \"#utility.yul\":633:638   */\n      dup2\n        /* \"#utility.yul\":615:639   */\n      tag_235\n      jump\t// in\n    tag_299:\n        /* \"#utility.yul\":610:613   */\n      dup3\n        /* \"#utility.yul\":603:640   */\n      mstore\n        /* \"#utility.yul\":538:646   */\n      pop\n      pop\n      jump\t// out\n        /* \"#utility.yul\":652:831   */\n    tag_237:\n        /* \"#utility.yul\":721:731   */\n      0x00\n        /* \"#utility.yul\":742:788   */\n      tag_301\n        /* \"#utility.yul\":784:787   */\n      dup4\n        /* \"#utility.yul\":776:782   */\n      dup4\n        /* \"#utility.yul\":742:788   */\n      tag_236\n      jump\t// in\n    tag_301:\n        /* \"#utility.yul\":820:824   */\n      0x20\n        /* \"#utility.yul\":815:818   */\n      dup4\n        /* \"#utility.yul\":811:825   */\n      add\n        /* \"#utility.yul\":797:825   */\n      swap1\n      pop\n        /* \"#utility.yul\":652:831   */\n      swap3\n      swap2\n      pop\n      pop\n      jump\t// out\n        /* \"#utility.yul\":837:950   */\n    tag_238:\n        /* \"#utility.yul\":907:911   */\n      0x00\n        /* \"#utility.yul\":939:943   */\n      0x20\n        /* \"#utility.yul\":934:937   */\n      dup3\n        /* \"#utility.yul\":930:944   */\n      add\n        /* \"#utility.yul\":922:944   */\n      swap1\n      pop\n        /* \"#utility.yul\":837:950   */\n      swap2\n      swap1\n      pop\n      jump\t// out\n        /* \"#utility.yul\":986:1718   */\n    tag_239:\n        /* \"#utility.yul\":1105:1108   */\n      0x00\n        /* \"#utility.yul\":1134:1188   */\n      tag_304\n        /* \"#utility.yul\":1182:1187   */\n      dup3\n        /* \"#utility.yul\":1134:1188   */\n      tag_232\n      jump\t// in\n    tag_304:\n        /* \"#utility.yul\":1204:1290   */\n      tag_305\n        /* \"#utility.yul\":1283:1289   */\n      dup2\n        /* \"#utility.yul\":1278:1281   */\n      dup6\n        /* \"#utility.yul\":1204:1290   */\n      tag_233\n      jump\t// in\n    tag_305:\n        /* \"#utility.yul\":1197:1290   */\n      swap4\n      pop\n        /* \"#utility.yul\":1314:1370   */\n      tag_306\n        /* \"#utility.yul\":1364:1369   */\n      dup4\n        /* \"#utility.yul\":1314:1370   */\n      tag_234\n      jump\t// in\n    tag_306:\n        /* \"#utility.yul\":1393:1400   */\n      dup1\n        /* \"#utility.yul\":1424:1425   */\n      0x00\n        /* \"#utility.yul\":1409:1693   */\n    tag_307:\n        /* \"#utility.yul\":1434:1440   */\n      dup4\n        /* \"#utility.yul\":1431:1432   */\n      dup2\n        /* \"#utility.yul\":1428:1441   */\n      lt\n        /* \"#utility.yul\":1409:1693   */\n      iszero\n      tag_309\n      jumpi\n        /* \"#utility.yul\":1510:1516   */\n      dup2\n        /* \"#utility.yul\":1504:1517   */\n      mload\n        /* \"#utility.yul\":1537:1600   */\n      tag_310\n        /* \"#utility.yul\":1596:1599   */\n      dup9\n        /* \"#utility.yul\":1581:1594   */\n      dup3\n        /* \"#utility.yul\":1537:1600   */\n      tag_237\n      jump\t// in\n    tag_310:\n        /* \"#utility.yul\":1530:1600   */\n      swap8\n      pop\n        /* \"#utility.yul\":1623:1683   */\n      tag_311\n        /* \"#utility.yul\":1676:1682   */\n      dup4\n        /* \"#utility.yul\":1623:1683   */\n      tag_238\n      jump\t// in\n    tag_311:\n        /* \"#utility.yul\":1613:1683   */\n      swap3\n      pop\n        /* \"#utility.yul\":1469:1693   */\n      pop\n        /* \"#utility.yul\":1456:1457   */\n      0x01\n        /* \"#utility.yul\":1453:1454   */\n      dup2\n        /* \"#utility.yul\":1449:1458   */\n      add\n        /* \"#utility.yul\":1444:1458   */\n      swap1\n      pop\n        /* \"#utility.yul\":1409:1693   */\n      jump(tag_307)\n    tag_309:\n        /* \"#utility.yul\":1413:1427   */\n      pop\n        /* \"#utility.yul\":1709:1712   */\n      dup6\n        /* \"#utility.yul\":1702:1712   */\n      swap4\n      pop\n        /* \"#utility.yul\":1110:1718   */\n      pop\n      pop\n      pop\n        /* \"#utility.yul\":986:1718   */\n      swap3\n      swap2\n      pop\n      pop\n      jump\t// out\n        /* \"#utility.yul\":1724:2097   */\n    tag_31:\n        /* \"#utility.yul\":1867:1871   */\n      0x00\n        /* \"#utility.yul\":1905:1907   */\n      0x20\n        /* \"#utility.yul\":1894:1903   */\n      dup3\n        /* \"#utility.yul\":1890:1908   */\n      add\n        /* \"#utility.yul\":1882:1908   */\n      swap1\n      pop\n        /* \"#utility.yul\":1954:1963   */\n      dup2\n        /* \"#utility.yul\":1948:1952   */\n      dup2\n        /* \"#utility.yul\":1944:1964   */\n      sub\n        /* \"#utility.yul\":1940:1941   */\n      0x00\n        /* \"#utility.yul\":1929:1938   */\n      dup4\n        /* \"#utility.yul\":1925:1942   */\n      add\n        /* \"#utility.yul\":1918:1965   */\n      mstore\n        /* \"#utility.yul\":1982:2090   */\n      tag_313\n        /* \"#utility.yul\":2085:2089   */\n      dup2\n        /* \"#utility.yul\":2076:2082   */\n      dup5\n        /* \"#utility.yul\":1982:2090   */\n      tag_239\n      jump\t// in\n    tag_313:\n        /* \"#utility.yul\":1974:2090   */\n      swap1\n      pop\n        /* \"#utility.yul\":1724:2097   */\n      swap3\n      swap2\n      pop\n      pop\n      jump\t// out\n        /* \"#utility.yul\":2184:2301   */\n    tag_241:\n        /* \"#utility.yul\":2293:2294   */\n      0x00\n        /* \"#utility.yul\":2290:2291   */\n      dup1\n        /* \"#utility.yul\":2283:2295   */\n      revert\n        /* \"#utility.yul\":2430:2552   */\n    tag_243:\n        /* \"#utility.yul\":2503:2527   */\n      tag_318\n        /* \"#utility.yul\":2521:2526   */\n      dup2\n        /* \"#utility.yul\":2503:2527   */\n      tag_235\n      jump\t// in\n    tag_318:\n        /* \"#utility.yul\":2496:2501   */\n      dup2\n        /* \"#utility.yul\":2493:2528   */\n      eq\n        /* \"#utility.yul\":2483:2546   */\n      tag_319\n      jumpi\n        /* \"#utility.yul\":2542:2543   */\n      0x00\n        /* \"#utility.yul\":2539:2540   */\n      dup1\n        /* \"#utility.yul\":2532:2544   */\n      revert\n        /* \"#utility.yul\":2483:2546   */\n    tag_319:\n        /* \"#utility.yul\":2430:2552   */\n      pop\n      jump\t// out\n        /* \"#utility.yul\":2558:2697   */\n    tag_244:\n        /* \"#utility.yul\":2604:2609   */\n      0x00\n        /* \"#utility.yul\":2642:2648   */\n      dup2\n        /* \"#utility.yul\":2629:2649   */\n      calldataload\n        /* \"#utility.yul\":2620:2649   */\n      swap1\n      pop\n        /* \"#utility.yul\":2658:2691   */\n      tag_321\n        /* \"#utility.yul\":2685:2690   */\n      dup2\n        /* \"#utility.yul\":2658:2691   */\n      tag_243\n      jump\t// in\n    tag_321:\n        /* \"#utility.yul\":2558:2697   */\n      swap3\n      swap2\n      pop\n      pop\n      jump\t// out\n        /* \"#utility.yul\":2703:3032   */\n    tag_35:\n        /* \"#utility.yul\":2762:2768   */\n      0x00\n        /* \"#utility.yul\":2811:2813   */\n      0x20\n        /* \"#utility.yul\":2799:2808   */\n      dup3\n        /* \"#utility.yul\":2790:2797   */\n      dup5\n        /* \"#utility.yul\":2786:2809   */\n      sub\n        /* \"#utility.yul\":2782:2814   */\n      slt\n        /* \"#utility.yul\":2779:2898   */\n      iszero\n      tag_323\n      jumpi\n        /* \"#utility.yul\":2817:2896   */\n      tag_324\n      tag_241\n      jump\t// in\n    tag_324:\n        /* \"#utility.yul\":2779:2898   */\n    tag_323:\n        /* \"#utility.yul\":2937:2938   */\n      0x00\n        /* \"#utility.yul\":2962:3015   */\n      tag_325\n        /* \"#utility.yul\":3007:3014   */\n      dup5\n        /* \"#utility.yul\":2998:3004   */\n      dup3\n        /* \"#utility.yul\":2987:2996   */\n      dup6\n        /* \"#utility.yul\":2983:3005   */\n      add\n        /* \"#utility.yul\":2962:3015   */\n      tag_244\n      jump\t// in\n    tag_325:\n        /* \"#utility.yul\":2952:3015   */\n      swap2\n      pop\n        /* \"#utility.yul\":2908:3025   */\n      pop\n        /* \"#utility.yul\":2703:3032   */\n      swap3\n      swap2\n      pop\n      pop\n      jump\t// out\n        /* \"#utility.yul\":3038:3115   */\n    tag_245:\n        /* \"#utility.yul\":3075:3082   */\n      0x00\n        /* \"#utility.yul\":3104:3109   */\n      dup2\n        /* \"#utility.yul\":3093:3109   */\n      swap1\n      pop\n        /* \"#utility.yul\":3038:3115   */\n      swap2\n      swap1\n      pop\n      jump\t// out\n        /* \"#utility.yul\":3121:3243   */\n    tag_246:\n        /* \"#utility.yul\":3194:3218   */\n      tag_328\n        /* \"#utility.yul\":3212:3217   */\n      dup2\n        /* \"#utility.yul\":3194:3218   */\n      tag_245\n      jump\t// in\n    tag_328:\n        /* \"#utility.yul\":3187:3192   */\n      dup2\n        /* \"#utility.yul\":3184:3219   */\n      eq\n        /* \"#utility.yul\":3174:3237   */\n      tag_329\n      jumpi\n        /* \"#utility.yul\":3233:3234   */\n      0x00\n        /* \"#utility.yul\":3230:3231   */\n      dup1\n        /* \"#utility.yul\":3223:3235   */\n      revert\n        /* \"#utility.yul\":3174:3237   */\n    tag_329:\n        /* \"#utility.yul\":3121:3243   */\n      pop\n      jump\t// out\n        /* \"#utility.yul\":3249:3388   */\n    tag_247:\n        /* \"#utility.yul\":3295:3300   */\n      0x00\n        /* \"#utility.yul\":3333:3339   */\n      dup2\n        /* \"#utility.yul\":3320:3340   */\n      calldataload\n        /* \"#utility.yul\":3311:3340   */\n      swap1\n      pop\n        /* \"#utility.yul\":3349:3382   */\n      tag_331\n        /* \"#utility.yul\":3376:3381   */\n      dup2\n        /* \"#utility.yul\":3349:3382   */\n      tag_246\n      jump\t// in\n    tag_331:\n        /* \"#utility.yul\":3249:3388   */\n      swap3\n      swap2\n      pop\n      pop\n      jump\t// out\n        /* \"#utility.yul\":3394:3868   */\n    tag_40:\n        /* \"#utility.yul\":3462:3468   */\n      0x00\n        /* \"#utility.yul\":3470:3476   */\n      dup1\n        /* \"#utility.yul\":3519:3521   */\n      0x40\n        /* \"#utility.yul\":3507:3516   */\n      dup4\n        /* \"#utility.yul\":3498:3505   */\n      dup6\n        /* \"#utility.yul\":3494:3517   */\n      sub\n        /* \"#utility.yul\":3490:3522   */\n      slt\n        /* \"#utility.yul\":3487:3606   */\n      iszero\n      tag_333\n      jumpi\n        /* \"#utility.yul\":3525:3604   */\n      tag_334\n      tag_241\n      jump\t// in\n    tag_334:\n        /* \"#utility.yul\":3487:3606   */\n    tag_333:\n        /* \"#utility.yul\":3645:3646   */\n      0x00\n        /* \"#utility.yul\":3670:3723   */\n      tag_335\n        /* \"#utility.yul\":3715:3722   */\n      dup6\n        /* \"#utility.yul\":3706:3712   */\n      dup3\n        /* \"#utility.yul\":3695:3704   */\n      dup7\n        /* \"#utility.yul\":3691:3713   */\n      add\n        /* \"#utility.yul\":3670:3723   */\n      tag_247\n      jump\t// in\n    tag_335:\n        /* \"#utility.yul\":3660:3723   */\n      swap3\n      pop\n        /* \"#utility.yul\":3616:3733   */\n      pop\n        /* \"#utility.yul\":3772:3774   */\n      0x20\n        /* \"#utility.yul\":3798:3851   */\n      tag_336\n        /* \"#utility.yul\":3843:3850   */\n      dup6\n        /* \"#utility.yul\":3834:3840   */\n      dup3\n        /* \"#utility.yul\":3823:3832   */\n      dup7\n        /* \"#utility.yul\":3819:3841   */\n      add\n        /* \"#utility.yul\":3798:3851   */\n      tag_247\n      jump\t// in\n    tag_336:\n        /* \"#utility.yul\":3788:3851   */\n      swap2\n      pop\n        /* \"#utility.yul\":3743:3861   */\n      pop\n        /* \"#utility.yul\":3394:3868   */\n      swap3\n      pop\n      swap3\n      swap1\n      pop\n      jump\t// out\n        /* \"#utility.yul\":3874:3973   */\n    tag_248:\n        /* \"#utility.yul\":3926:3932   */\n      0x00\n        /* \"#utility.yul\":3960:3965   */\n      dup2\n        /* \"#utility.yul\":3954:3966   */\n      mload\n        /* \"#utility.yul\":3944:3966   */\n      swap1\n      pop\n        /* \"#utility.yul\":3874:3973   */\n      swap2\n      swap1\n      pop\n      jump\t// out\n        /* \"#utility.yul\":3979:4148   */\n    tag_249:\n        /* \"#utility.yul\":4063:4074   */\n      0x00\n        /* \"#utility.yul\":4097:4103   */\n      dup3\n        /* \"#utility.yul\":4092:4095   */\n      dup3\n        /* \"#utility.yul\":4085:4104   */\n      mstore\n        /* \"#utility.yul\":4137:4141   */\n      0x20\n        /* \"#utility.yul\":4132:4135   */\n      dup3\n        /* \"#utility.yul\":4128:4142   */\n      add\n        /* \"#utility.yul\":4113:4142   */\n      swap1\n      pop\n        /* \"#utility.yul\":3979:4148   */\n      swap3\n      swap2\n      pop\n      pop\n      jump\t// out\n        /* \"#utility.yul\":4154:4461   */\n    tag_250:\n        /* \"#utility.yul\":4222:4223   */\n      0x00\n        /* \"#utility.yul\":4232:4345   */\n    tag_340:\n        /* \"#utility.yul\":4246:4252   */\n      dup4\n        /* \"#utility.yul\":4243:4244   */\n      dup2\n        /* \"#utility.yul\":4240:4253   */\n      lt\n        /* \"#utility.yul\":4232:4345   */\n      iszero\n      tag_342\n      jumpi\n        /* \"#utility.yul\":4331:4332   */\n      dup1\n        /* \"#utility.yul\":4326:4329   */\n      dup3\n        /* \"#utility.yul\":4322:4333   */\n      add\n        /* \"#utility.yul\":4316:4334   */\n      mload\n        /* \"#utility.yul\":4312:4313   */\n      dup2\n        /* \"#utility.yul\":4307:4310   */\n      dup5\n        /* \"#utility.yul\":4303:4314   */\n      add\n        /* \"#utility.yul\":4296:4335   */\n      mstore\n        /* \"#utility.yul\":4268:4270   */\n      0x20\n        /* \"#utility.yul\":4265:4266   */\n      dup2\n        /* \"#utility.yul\":4261:4271   */\n      add\n        /* \"#utility.yul\":4256:4271   */\n      swap1\n      pop\n        /* \"#utility.yul\":4232:4345   */\n      jump(tag_340)\n    tag_342:\n        /* \"#utility.yul\":4363:4369   */\n      dup4\n        /* \"#utility.yul\":4360:4361   */\n      dup2\n        /* \"#utility.yul\":4357:4370   */\n      gt\n        /* \"#utility.yul\":4354:4455   */\n      iszero\n      tag_343\n      jumpi\n        /* \"#utility.yul\":4443:4444   */\n      0x00\n        /* \"#utility.yul\":4434:4440   */\n      dup5\n        /* \"#utility.yul\":4429:4432   */\n      dup5\n        /* \"#utility.yul\":4425:4441   */\n      add\n        /* \"#utility.yul\":4418:4445   */\n      mstore\n        /* \"#utility.yul\":4354:4455   */\n    tag_343:\n        /* \"#utility.yul\":4203:4461   */\n      pop\n        /* \"#utility.yul\":4154:4461   */\n      pop\n      pop\n      pop\n      jump\t// out\n        /* \"#utility.yul\":4467:4569   */\n    tag_251:\n        /* \"#utility.yul\":4508:4514   */\n      0x00\n        /* \"#utility.yul\":4559:4561   */\n      0x1f\n        /* \"#utility.yul\":4555:4562   */\n      not\n        /* \"#utility.yul\":4550:4552   */\n      0x1f\n        /* \"#utility.yul\":4543:4548   */\n      dup4\n        /* \"#utility.yul\":4539:4553   */\n      add\n        /* \"#utility.yul\":4535:4563   */\n      and\n        /* \"#utility.yul\":4525:4563   */\n      swap1\n      pop\n        /* \"#utility.yul\":4467:4569   */\n      swap2\n      swap1\n      pop\n      jump\t// out\n        /* \"#utility.yul\":4575:4939   */\n    tag_252:\n        /* \"#utility.yul\":4663:4666   */\n      0x00\n        /* \"#utility.yul\":4691:4730   */\n      tag_346\n        /* \"#utility.yul\":4724:4729   */\n      dup3\n        /* \"#utility.yul\":4691:4730   */\n      tag_248\n      jump\t// in\n    tag_346:\n        /* \"#utility.yul\":4746:4817   */\n      tag_347\n        /* \"#utility.yul\":4810:4816   */\n      dup2\n        /* \"#utility.yul\":4805:4808   */\n      dup6\n        /* \"#utility.yul\":4746:4817   */\n      tag_249\n      jump\t// in\n    tag_347:\n        /* \"#utility.yul\":4739:4817   */\n      swap4\n      pop\n        /* \"#utility.yul\":4826:4878   */\n      tag_348\n        /* \"#utility.yul\":4871:4877   */\n      dup2\n        /* \"#utility.yul\":4866:4869   */\n      dup6\n        /* \"#utility.yul\":4859:4863   */\n      0x20\n        /* \"#utility.yul\":4852:4857   */\n      dup7\n        /* \"#utility.yul\":4848:4864   */\n      add\n        /* \"#utility.yul\":4826:4878   */\n      tag_250\n      jump\t// in\n    tag_348:\n        /* \"#utility.yul\":4903:4932   */\n      tag_349\n        /* \"#utility.yul\":4925:4931   */\n      dup2\n        /* \"#utility.yul\":4903:4932   */\n      tag_251\n      jump\t// in\n    tag_349:\n        /* \"#utility.yul\":4898:4901   */\n      dup5\n        /* \"#utility.yul\":4894:4933   */\n      add\n        /* \"#utility.yul\":4887:4933   */\n      swap2\n      pop\n        /* \"#utility.yul\":4667:4939   */\n      pop\n        /* \"#utility.yul\":4575:4939   */\n      swap3\n      swap2\n      pop\n      pop\n      jump\t// out\n        /* \"#utility.yul\":4945:5258   */\n    tag_43:\n        /* \"#utility.yul\":5058:5062   */\n      0x00\n        /* \"#utility.yul\":5096:5098   */\n      0x20\n        /* \"#utility.yul\":5085:5094   */\n      dup3\n        /* \"#utility.yul\":5081:5099   */\n      add\n        /* \"#utility.yul\":5073:5099   */\n      swap1\n      pop\n        /* \"#utility.yul\":5145:5154   */\n      dup2\n        /* \"#utility.yul\":5139:5143   */\n      dup2\n        /* \"#utility.yul\":5135:5155   */\n      sub\n        /* \"#utility.yul\":5131:5132   */\n      0x00\n        /* \"#utility.yul\":5120:5129   */\n      dup4\n        /* \"#utility.yul\":5116:5133   */\n      add\n        /* \"#utility.yul\":5109:5156   */\n      mstore\n        /* \"#utility.yul\":5173:5251   */\n      tag_351\n        /* \"#utility.yul\":5246:5250   */\n      dup2\n        /* \"#utility.yul\":5237:5243   */\n      dup5\n        /* \"#utility.yul\":5173:5251   */\n      tag_252\n      jump\t// in\n    tag_351:\n        /* \"#utility.yul\":5165:5251   */\n      swap1\n      pop\n        /* \"#utility.yul\":4945:5258   */\n      swap3\n      swap2\n      pop\n      pop\n      jump\t// out\n        /* \"#utility.yul\":5264:5382   */\n    tag_253:\n        /* \"#utility.yul\":5351:5375   */\n      tag_353\n        /* \"#utility.yul\":5369:5374   */\n      dup2\n        /* \"#utility.yul\":5351:5375   */\n      tag_235\n      jump\t// in\n    tag_353:\n        /* \"#utility.yul\":5346:5349   */\n      dup3\n        /* \"#utility.yul\":5339:5376   */\n      mstore\n        /* \"#utility.yul\":5264:5382   */\n      pop\n      pop\n      jump\t// out\n        /* \"#utility.yul\":5388:5610   */\n    tag_49:\n        /* \"#utility.yul\":5481:5485   */\n      0x00\n        /* \"#utility.yul\":5519:5521   */\n      0x20\n        /* \"#utility.yul\":5508:5517   */\n      dup3\n        /* \"#utility.yul\":5504:5522   */\n      add\n        /* \"#utility.yul\":5496:5522   */\n      swap1\n      pop\n        /* \"#utility.yul\":5532:5603   */\n      tag_355\n        /* \"#utility.yul\":5600:5601   */\n      0x00\n        /* \"#utility.yul\":5589:5598   */\n      dup4\n        /* \"#utility.yul\":5585:5602   */\n      add\n        /* \"#utility.yul\":5576:5582   */\n      dup5\n        /* \"#utility.yul\":5532:5603   */\n      tag_253\n      jump\t// in\n    tag_355:\n        /* \"#utility.yul\":5388:5610   */\n      swap3\n      swap2\n      pop\n      pop\n      jump\t// out\n        /* \"#utility.yul\":5616:5751   */\n    tag_254:\n        /* \"#utility.yul\":5704:5710   */\n      0x00\n        /* \"#utility.yul\":5738:5743   */\n      dup2\n        /* \"#utility.yul\":5732:5744   */\n      mload\n        /* \"#utility.yul\":5722:5744   */\n      swap1\n      pop\n        /* \"#utility.yul\":5616:5751   */\n      swap2\n      swap1\n      pop\n      jump\t// out\n        /* \"#utility.yul\":5757:5962   */\n    tag_255:\n        /* \"#utility.yul\":5877:5888   */\n      0x00\n        /* \"#utility.yul\":5911:5917   */\n      dup3\n        /* \"#utility.yul\":5906:5909   */\n      dup3\n        /* \"#utility.yul\":5899:5918   */\n      mstore\n        /* \"#utility.yul\":5951:5955   */\n      0x20\n        /* \"#utility.yul\":5946:5949   */\n      dup3\n        /* \"#utility.yul\":5942:5956   */\n      add\n        /* \"#utility.yul\":5927:5956   */\n      swap1\n      pop\n        /* \"#utility.yul\":5757:5962   */\n      swap3\n      swap2\n      pop\n      pop\n      jump\t// out\n        /* \"#utility.yul\":5968:6121   */\n    tag_256:\n        /* \"#utility.yul\":6056:6060   */\n      0x00\n        /* \"#utility.yul\":6079:6082   */\n      dup2\n        /* \"#utility.yul\":6071:6082   */\n      swap1\n      pop\n        /* \"#utility.yul\":6109:6113   */\n      0x20\n        /* \"#utility.yul\":6104:6107   */\n      dup3\n        /* \"#utility.yul\":6100:6114   */\n      add\n        /* \"#utility.yul\":6092:6114   */\n      swap1\n      pop\n        /* \"#utility.yul\":5968:6121   */\n      swap2\n      swap1\n      pop\n      jump\t// out\n        /* \"#utility.yul\":6127:6253   */\n    tag_257:\n        /* \"#utility.yul\":6164:6171   */\n      0x00\n        /* \"#utility.yul\":6204:6246   */\n      0xffffffffffffffffffffffffffffffffffffffff\n        /* \"#utility.yul\":6197:6202   */\n      dup3\n        /* \"#utility.yul\":6193:6247   */\n      and\n        /* \"#utility.yul\":6182:6247   */\n      swap1\n      pop\n        /* \"#utility.yul\":6127:6253   */\n      swap2\n      swap1\n      pop\n      jump\t// out\n        /* \"#utility.yul\":6259:6363   */\n    tag_258:\n        /* \"#utility.yul\":6304:6311   */\n      0x00\n        /* \"#utility.yul\":6333:6357   */\n      tag_361\n        /* \"#utility.yul\":6351:6356   */\n      dup3\n        /* \"#utility.yul\":6333:6357   */\n      tag_257\n      jump\t// in\n    tag_361:\n        /* \"#utility.yul\":6322:6357   */\n      swap1\n      pop\n        /* \"#utility.yul\":6259:6363   */\n      swap2\n      swap1\n      pop\n      jump\t// out\n        /* \"#utility.yul\":6369:6501   */\n    tag_259:\n        /* \"#utility.yul\":6462:6494   */\n      tag_363\n        /* \"#utility.yul\":6488:6493   */\n      dup2\n        /* \"#utility.yul\":6462:6494   */\n      tag_258\n      jump\t// in\n    tag_363:\n        /* \"#utility.yul\":6457:6460   */\n      dup3\n        /* \"#utility.yul\":6450:6495   */\n      mstore\n        /* \"#utility.yul\":6369:6501   */\n      pop\n      pop\n      jump\t// out\n        /* \"#utility.yul\":6507:6687   */\n    tag_133:\n        /* \"#utility.yul\":6555:6632   */\n      0x4e487b7100000000000000000000000000000000000000000000000000000000\n        /* \"#utility.yul\":6552:6553   */\n      0x00\n        /* \"#utility.yul\":6545:6633   */\n      mstore\n        /* \"#utility.yul\":6652:6656   */\n      0x21\n        /* \"#utility.yul\":6649:6650   */\n      0x04\n        /* \"#utility.yul\":6642:6657   */\n      mstore\n        /* \"#utility.yul\":6676:6680   */\n      0x24\n        /* \"#utility.yul\":6673:6674   */\n      0x00\n        /* \"#utility.yul\":6666:6681   */\n      revert\n        /* \"#utility.yul\":6693:6805   */\n    tag_260:\n        /* \"#utility.yul\":6773:6774   */\n      0x02\n        /* \"#utility.yul\":6766:6771   */\n      dup2\n        /* \"#utility.yul\":6763:6775   */\n      lt\n        /* \"#utility.yul\":6753:6799   */\n      tag_366\n      jumpi\n        /* \"#utility.yul\":6779:6797   */\n      tag_367\n      tag_133\n      jump\t// in\n    tag_367:\n        /* \"#utility.yul\":6753:6799   */\n    tag_366:\n        /* \"#utility.yul\":6693:6805   */\n      pop\n      jump\t// out\n        /* \"#utility.yul\":6811:6936   */\n    tag_261:\n        /* \"#utility.yul\":6855:6862   */\n      0x00\n        /* \"#utility.yul\":6884:6889   */\n      dup2\n        /* \"#utility.yul\":6873:6889   */\n      swap1\n      pop\n        /* \"#utility.yul\":6890:6930   */\n      tag_369\n        /* \"#utility.yul\":6924:6929   */\n      dup3\n        /* \"#utility.yul\":6890:6930   */\n      tag_260\n      jump\t// in\n    tag_369:\n        /* \"#utility.yul\":6811:6936   */\n      swap2\n      swap1\n      pop\n      jump\t// out\n        /* \"#utility.yul\":6942:7067   */\n    tag_262:\n        /* \"#utility.yul\":6997:7006   */\n      0x00\n        /* \"#utility.yul\":7030:7061   */\n      tag_371\n        /* \"#utility.yul\":7055:7060   */\n      dup3\n        /* \"#utility.yul\":7030:7061   */\n      tag_261\n      jump\t// in\n    tag_371:\n        /* \"#utility.yul\":7017:7061   */\n      swap1\n      pop\n        /* \"#utility.yul\":6942:7067   */\n      swap2\n      swap1\n      pop\n      jump\t// out\n        /* \"#utility.yul\":7073:7204   */\n    tag_263:\n        /* \"#utility.yul\":7155:7197   */\n      tag_373\n        /* \"#utility.yul\":7191:7196   */\n      dup2\n        /* \"#utility.yul\":7155:7197   */\n      tag_262\n      jump\t// in\n    tag_373:\n        /* \"#utility.yul\":7150:7153   */\n      dup3\n        /* \"#utility.yul\":7143:7198   */\n      mstore\n        /* \"#utility.yul\":7073:7204   */\n      pop\n      pop\n      jump\t// out\n        /* \"#utility.yul\":7266:8655   */\n    tag_264:\n        /* \"#utility.yul\":7395:7399   */\n      0xe0\n        /* \"#utility.yul\":7390:7393   */\n      dup3\n        /* \"#utility.yul\":7386:7400   */\n      add\n        /* \"#utility.yul\":7486:7490   */\n      0x00\n        /* \"#utility.yul\":7479:7484   */\n      dup3\n        /* \"#utility.yul\":7475:7491   */\n      add\n        /* \"#utility.yul\":7469:7492   */\n      mload\n        /* \"#utility.yul\":7505:7584   */\n      tag_375\n        /* \"#utility.yul\":7578:7582   */\n      0x00\n        /* \"#utility.yul\":7573:7576   */\n      dup6\n        /* \"#utility.yul\":7569:7583   */\n      add\n        /* \"#utility.yul\":7555:7567   */\n      dup3\n        /* \"#utility.yul\":7505:7584   */\n      tag_259\n      jump\t// in\n    tag_375:\n        /* \"#utility.yul\":7410:7594   */\n      pop\n        /* \"#utility.yul\":7677:7681   */\n      0x20\n        /* \"#utility.yul\":7670:7675   */\n      dup3\n        /* \"#utility.yul\":7666:7682   */\n      add\n        /* \"#utility.yul\":7660:7683   */\n      mload\n        /* \"#utility.yul\":7696:7759   */\n      tag_376\n        /* \"#utility.yul\":7753:7757   */\n      0x20\n        /* \"#utility.yul\":7748:7751   */\n      dup6\n        /* \"#utility.yul\":7744:7758   */\n      add\n        /* \"#utility.yul\":7730:7742   */\n      dup3\n        /* \"#utility.yul\":7696:7759   */\n      tag_236\n      jump\t// in\n    tag_376:\n        /* \"#utility.yul\":7604:7769   */\n      pop\n        /* \"#utility.yul\":7856:7860   */\n      0x40\n        /* \"#utility.yul\":7849:7854   */\n      dup3\n        /* \"#utility.yul\":7845:7861   */\n      add\n        /* \"#utility.yul\":7839:7862   */\n      mload\n        /* \"#utility.yul\":7875:7938   */\n      tag_377\n        /* \"#utility.yul\":7932:7936   */\n      0x40\n        /* \"#utility.yul\":7927:7930   */\n      dup6\n        /* \"#utility.yul\":7923:7937   */\n      add\n        /* \"#utility.yul\":7909:7921   */\n      dup3\n        /* \"#utility.yul\":7875:7938   */\n      tag_236\n      jump\t// in\n    tag_377:\n        /* \"#utility.yul\":7779:7948   */\n      pop\n        /* \"#utility.yul\":8031:8035   */\n      0x60\n        /* \"#utility.yul\":8024:8029   */\n      dup3\n        /* \"#utility.yul\":8020:8036   */\n      add\n        /* \"#utility.yul\":8014:8037   */\n      mload\n        /* \"#utility.yul\":8050:8118   */\n      tag_378\n        /* \"#utility.yul\":8112:8116   */\n      0x60\n        /* \"#utility.yul\":8107:8110   */\n      dup6\n        /* \"#utility.yul\":8103:8117   */\n      add\n        /* \"#utility.yul\":8089:8101   */\n      dup3\n        /* \"#utility.yul\":8050:8118   */\n      tag_263\n      jump\t// in\n    tag_378:\n        /* \"#utility.yul\":7958:8128   */\n      pop\n        /* \"#utility.yul\":8208:8212   */\n      0x80\n        /* \"#utility.yul\":8201:8206   */\n      dup3\n        /* \"#utility.yul\":8197:8213   */\n      add\n        /* \"#utility.yul\":8191:8214   */\n      mload\n        /* \"#utility.yul\":8227:8290   */\n      tag_379\n        /* \"#utility.yul\":8284:8288   */\n      0x80\n        /* \"#utility.yul\":8279:8282   */\n      dup6\n        /* \"#utility.yul\":8275:8289   */\n      add\n        /* \"#utility.yul\":8261:8273   */\n      dup3\n        /* \"#utility.yul\":8227:8290   */\n      tag_236\n      jump\t// in\n    tag_379:\n        /* \"#utility.yul\":8138:8300   */\n      pop\n        /* \"#utility.yul\":8382:8386   */\n      0xa0\n        /* \"#utility.yul\":8375:8380   */\n      dup3\n        /* \"#utility.yul\":8371:8387   */\n      add\n        /* \"#utility.yul\":8365:8388   */\n      mload\n        /* \"#utility.yul\":8401:8464   */\n      tag_380\n        /* \"#utility.yul\":8458:8462   */\n      0xa0\n        /* \"#utility.yul\":8453:8456   */\n      dup6\n        /* \"#utility.yul\":8449:8463   */\n      add\n        /* \"#utility.yul\":8435:8447   */\n      dup3\n        /* \"#utility.yul\":8401:8464   */\n      tag_236\n      jump\t// in\n    tag_380:\n        /* \"#utility.yul\":8310:8474   */\n      pop\n        /* \"#utility.yul\":8556:8560   */\n      0xc0\n        /* \"#utility.yul\":8549:8554   */\n      dup3\n        /* \"#utility.yul\":8545:8561   */\n      add\n        /* \"#utility.yul\":8539:8562   */\n      mload\n        /* \"#utility.yul\":8575:8638   */\n      tag_381\n        /* \"#utility.yul\":8632:8636   */\n      0xc0\n        /* \"#utility.yul\":8627:8630   */\n      dup6\n        /* \"#utility.yul\":8623:8637   */\n      add\n        /* \"#utility.yul\":8609:8621   */\n      dup3\n        /* \"#utility.yul\":8575:8638   */\n      tag_236\n      jump\t// in\n    tag_381:\n        /* \"#utility.yul\":8484:8648   */\n      pop\n        /* \"#utility.yul\":7364:8655   */\n      pop\n        /* \"#utility.yul\":7266:8655   */\n      pop\n      pop\n      jump\t// out\n        /* \"#utility.yul\":8661:8924   */\n    tag_265:\n        /* \"#utility.yul\":8772:8782   */\n      0x00\n        /* \"#utility.yul\":8793:8881   */\n      tag_383\n        /* \"#utility.yul\":8877:8880   */\n      dup4\n        /* \"#utility.yul\":8869:8875   */\n      dup4\n        /* \"#utility.yul\":8793:8881   */\n      tag_264\n      jump\t// in\n    tag_383:\n        /* \"#utility.yul\":8913:8917   */\n      0xe0\n        /* \"#utility.yul\":8908:8911   */\n      dup4\n        /* \"#utility.yul\":8904:8918   */\n      add\n        /* \"#utility.yul\":8890:8918   */\n      swap1\n      pop\n        /* \"#utility.yul\":8661:8924   */\n      swap3\n      swap2\n      pop\n      pop\n      jump\t// out\n        /* \"#utility.yul\":8930:9064   */\n    tag_266:\n        /* \"#utility.yul\":9021:9025   */\n      0x00\n        /* \"#utility.yul\":9053:9057   */\n      0x20\n        /* \"#utility.yul\":9048:9051   */\n      dup3\n        /* \"#utility.yul\":9044:9058   */\n      add\n        /* \"#utility.yul\":9036:9058   */\n      swap1\n      pop\n        /* \"#utility.yul\":8930:9064   */\n      swap2\n      swap1\n      pop\n      jump\t// out\n        /* \"#utility.yul\":9130:10030   */\n    tag_267:\n        /* \"#utility.yul\":9291:9294   */\n      0x00\n        /* \"#utility.yul\":9320:9395   */\n      tag_386\n        /* \"#utility.yul\":9389:9394   */\n      dup3\n        /* \"#utility.yul\":9320:9395   */\n      tag_254\n      jump\t// in\n    tag_386:\n        /* \"#utility.yul\":9411:9518   */\n      tag_387\n        /* \"#utility.yul\":9511:9517   */\n      dup2\n        /* \"#utility.yul\":9506:9509   */\n      dup6\n        /* \"#utility.yul\":9411:9518   */\n      tag_255\n      jump\t// in\n    tag_387:\n        /* \"#utility.yul\":9404:9518   */\n      swap4\n      pop\n        /* \"#utility.yul\":9542:9619   */\n      tag_388\n        /* \"#utility.yul\":9613:9618   */\n      dup4\n        /* \"#utility.yul\":9542:9619   */\n      tag_256\n      jump\t// in\n    tag_388:\n        /* \"#utility.yul\":9642:9649   */\n      dup1\n        /* \"#utility.yul\":9673:9674   */\n      0x00\n        /* \"#utility.yul\":9658:10005   */\n    tag_389:\n        /* \"#utility.yul\":9683:9689   */\n      dup4\n        /* \"#utility.yul\":9680:9681   */\n      dup2\n        /* \"#utility.yul\":9677:9690   */\n      lt\n        /* \"#utility.yul\":9658:10005   */\n      iszero\n      tag_391\n      jumpi\n        /* \"#utility.yul\":9759:9765   */\n      dup2\n        /* \"#utility.yul\":9753:9766   */\n      mload\n        /* \"#utility.yul\":9786:9891   */\n      tag_392\n        /* \"#utility.yul\":9887:9890   */\n      dup9\n        /* \"#utility.yul\":9872:9885   */\n      dup3\n        /* \"#utility.yul\":9786:9891   */\n      tag_265\n      jump\t// in\n    tag_392:\n        /* \"#utility.yul\":9779:9891   */\n      swap8\n      pop\n        /* \"#utility.yul\":9914:9995   */\n      tag_393\n        /* \"#utility.yul\":9988:9994   */\n      dup4\n        /* \"#utility.yul\":9914:9995   */\n      tag_266\n      jump\t// in\n    tag_393:\n        /* \"#utility.yul\":9904:9995   */\n      swap3\n      pop\n        /* \"#utility.yul\":9718:10005   */\n      pop\n        /* \"#utility.yul\":9705:9706   */\n      0x01\n        /* \"#utility.yul\":9702:9703   */\n      dup2\n        /* \"#utility.yul\":9698:9707   */\n      add\n        /* \"#utility.yul\":9693:9707   */\n      swap1\n      pop\n        /* \"#utility.yul\":9658:10005   */\n      jump(tag_389)\n    tag_391:\n        /* \"#utility.yul\":9662:9676   */\n      pop\n        /* \"#utility.yul\":10021:10024   */\n      dup6\n        /* \"#utility.yul\":10014:10024   */\n      swap4\n      pop\n        /* \"#utility.yul\":9296:10030   */\n      pop\n      pop\n      pop\n        /* \"#utility.yul\":9130:10030   */\n      swap3\n      swap2\n      pop\n      pop\n      jump\t// out\n        /* \"#utility.yul\":10036:10493   */\n    tag_54:\n        /* \"#utility.yul\":10221:10225   */\n      0x00\n        /* \"#utility.yul\":10259:10261   */\n      0x20\n        /* \"#utility.yul\":10248:10257   */\n      dup3\n        /* \"#utility.yul\":10244:10262   */\n      add\n        /* \"#utility.yul\":10236:10262   */\n      swap1\n      pop\n        /* \"#utility.yul\":10308:10317   */\n      dup2\n        /* \"#utility.yul\":10302:10306   */\n      dup2\n        /* \"#utility.yul\":10298:10318   */\n      sub\n        /* \"#utility.yul\":10294:10295   */\n      0x00\n        /* \"#utility.yul\":10283:10292   */\n      dup4\n        /* \"#utility.yul\":10279:10296   */\n      add\n        /* \"#utility.yul\":10272:10319   */\n      mstore\n        /* \"#utility.yul\":10336:10486   */\n      tag_395\n        /* \"#utility.yul\":10481:10485   */\n      dup2\n        /* \"#utility.yul\":10472:10478   */\n      dup5\n        /* \"#utility.yul\":10336:10486   */\n      tag_267\n      jump\t// in\n    tag_395:\n        /* \"#utility.yul\":10328:10486   */\n      swap1\n      pop\n        /* \"#utility.yul\":10036:10493   */\n      swap3\n      swap2\n      pop\n      pop\n      jump\t// out\n        /* \"#utility.yul\":10499:10640   */\n    tag_268:\n        /* \"#utility.yul\":10591:10633   */\n      tag_397\n        /* \"#utility.yul\":10627:10632   */\n      dup2\n        /* \"#utility.yul\":10591:10633   */\n      tag_262\n      jump\t// in\n    tag_397:\n        /* \"#utility.yul\":10586:10589   */\n      dup3\n        /* \"#utility.yul\":10579:10634   */\n      mstore\n        /* \"#utility.yul\":10499:10640   */\n      pop\n      pop\n      jump\t// out\n        /* \"#utility.yul\":10646:10878   */\n    tag_64:\n        /* \"#utility.yul\":10744:10748   */\n      0x00\n        /* \"#utility.yul\":10782:10784   */\n      0x20\n        /* \"#utility.yul\":10771:10780   */\n      dup3\n        /* \"#utility.yul\":10767:10785   */\n      add\n        /* \"#utility.yul\":10759:10785   */\n      swap1\n      pop\n        /* \"#utility.yul\":10795:10871   */\n      tag_399\n        /* \"#utility.yul\":10868:10869   */\n      0x00\n        /* \"#utility.yul\":10857:10866   */\n      dup4\n        /* \"#utility.yul\":10853:10870   */\n      add\n        /* \"#utility.yul\":10844:10850   */\n      dup5\n        /* \"#utility.yul\":10795:10871   */\n      tag_268\n      jump\t// in\n    tag_399:\n        /* \"#utility.yul\":10646:10878   */\n      swap3\n      swap2\n      pop\n      pop\n      jump\t// out\n        /* \"#utility.yul\":10884:11026   */\n    tag_269:\n        /* \"#utility.yul\":10987:11019   */\n      tag_401\n        /* \"#utility.yul\":11013:11018   */\n      dup2\n        /* \"#utility.yul\":10987:11019   */\n      tag_258\n      jump\t// in\n    tag_401:\n        /* \"#utility.yul\":10982:10985   */\n      dup3\n        /* \"#utility.yul\":10975:11020   */\n      mstore\n        /* \"#utility.yul\":10884:11026   */\n      pop\n      pop\n      jump\t// out\n        /* \"#utility.yul\":11032:11286   */\n    tag_70:\n        /* \"#utility.yul\":11141:11145   */\n      0x00\n        /* \"#utility.yul\":11179:11181   */\n      0x20\n        /* \"#utility.yul\":11168:11177   */\n      dup3\n        /* \"#utility.yul\":11164:11182   */\n      add\n        /* \"#utility.yul\":11156:11182   */\n      swap1\n      pop\n        /* \"#utility.yul\":11192:11279   */\n      tag_403\n        /* \"#utility.yul\":11276:11277   */\n      0x00\n        /* \"#utility.yul\":11265:11274   */\n      dup4\n        /* \"#utility.yul\":11261:11278   */\n      add\n        /* \"#utility.yul\":11252:11258   */\n      dup5\n        /* \"#utility.yul\":11192:11279   */\n      tag_269\n      jump\t// in\n    tag_403:\n        /* \"#utility.yul\":11032:11286   */\n      swap3\n      swap2\n      pop\n      pop\n      jump\t// out\n        /* \"#utility.yul\":11292:11382   */\n    tag_270:\n        /* \"#utility.yul\":11326:11333   */\n      0x00\n        /* \"#utility.yul\":11369:11374   */\n      dup2\n        /* \"#utility.yul\":11362:11375   */\n      iszero\n        /* \"#utility.yul\":11355:11376   */\n      iszero\n        /* \"#utility.yul\":11344:11376   */\n      swap1\n      pop\n        /* \"#utility.yul\":11292:11382   */\n      swap2\n      swap1\n      pop\n      jump\t// out\n        /* \"#utility.yul\":11388:11497   */\n    tag_271:\n        /* \"#utility.yul\":11469:11490   */\n      tag_406\n        /* \"#utility.yul\":11484:11489   */\n      dup2\n        /* \"#utility.yul\":11469:11490   */\n      tag_270\n      jump\t// in\n    tag_406:\n        /* \"#utility.yul\":11464:11467   */\n      dup3\n        /* \"#utility.yul\":11457:11491   */\n      mstore\n        /* \"#utility.yul\":11388:11497   */\n      pop\n      pop\n      jump\t// out\n        /* \"#utility.yul\":11503:12530   */\n    tag_120:\n        /* \"#utility.yul\":11807:11811   */\n      0x00\n        /* \"#utility.yul\":11845:11848   */\n      0x0100\n        /* \"#utility.yul\":11834:11843   */\n      dup3\n        /* \"#utility.yul\":11830:11849   */\n      add\n        /* \"#utility.yul\":11822:11849   */\n      swap1\n      pop\n        /* \"#utility.yul\":11859:11946   */\n      tag_408\n        /* \"#utility.yul\":11943:11944   */\n      0x00\n        /* \"#utility.yul\":11932:11941   */\n      dup4\n        /* \"#utility.yul\":11928:11945   */\n      add\n        /* \"#utility.yul\":11919:11925   */\n      dup12\n        /* \"#utility.yul\":11859:11946   */\n      tag_269\n      jump\t// in\n    tag_408:\n        /* \"#utility.yul\":11956:12028   */\n      tag_409\n        /* \"#utility.yul\":12024:12026   */\n      0x20\n        /* \"#utility.yul\":12013:12022   */\n      dup4\n        /* \"#utility.yul\":12009:12027   */\n      add\n        /* \"#utility.yul\":12000:12006   */\n      dup11\n        /* \"#utility.yul\":11956:12028   */\n      tag_253\n      jump\t// in\n    tag_409:\n        /* \"#utility.yul\":12038:12110   */\n      tag_410\n        /* \"#utility.yul\":12106:12108   */\n      0x40\n        /* \"#utility.yul\":12095:12104   */\n      dup4\n        /* \"#utility.yul\":12091:12109   */\n      add\n        /* \"#utility.yul\":12082:12088   */\n      dup10\n        /* \"#utility.yul\":12038:12110   */\n      tag_253\n      jump\t// in\n    tag_410:\n        /* \"#utility.yul\":12120:12197   */\n      tag_411\n        /* \"#utility.yul\":12193:12195   */\n      0x60\n        /* \"#utility.yul\":12182:12191   */\n      dup4\n        /* \"#utility.yul\":12178:12196   */\n      add\n        /* \"#utility.yul\":12169:12175   */\n      dup9\n        /* \"#utility.yul\":12120:12197   */\n      tag_268\n      jump\t// in\n    tag_411:\n        /* \"#utility.yul\":12207:12280   */\n      tag_412\n        /* \"#utility.yul\":12275:12278   */\n      0x80\n        /* \"#utility.yul\":12264:12273   */\n      dup4\n        /* \"#utility.yul\":12260:12279   */\n      add\n        /* \"#utility.yul\":12251:12257   */\n      dup8\n        /* \"#utility.yul\":12207:12280   */\n      tag_253\n      jump\t// in\n    tag_412:\n        /* \"#utility.yul\":12290:12363   */\n      tag_413\n        /* \"#utility.yul\":12358:12361   */\n      0xa0\n        /* \"#utility.yul\":12347:12356   */\n      dup4\n        /* \"#utility.yul\":12343:12362   */\n      add\n        /* \"#utility.yul\":12334:12340   */\n      dup7\n        /* \"#utility.yul\":12290:12363   */\n      tag_253\n      jump\t// in\n    tag_413:\n        /* \"#utility.yul\":12373:12446   */\n      tag_414\n        /* \"#utility.yul\":12441:12444   */\n      0xc0\n        /* \"#utility.yul\":12430:12439   */\n      dup4\n        /* \"#utility.yul\":12426:12445   */\n      add\n        /* \"#utility.yul\":12417:12423   */\n      dup6\n        /* \"#utility.yul\":12373:12446   */\n      tag_253\n      jump\t// in\n    tag_414:\n        /* \"#utility.yul\":12456:12523   */\n      tag_415\n        /* \"#utility.yul\":12518:12521   */\n      0xe0\n        /* \"#utility.yul\":12507:12516   */\n      dup4\n        /* \"#utility.yul\":12503:12522   */\n      add\n        /* \"#utility.yul\":12494:12500   */\n      dup5\n        /* \"#utility.yul\":12456:12523   */\n      tag_271\n      jump\t// in\n    tag_415:\n        /* \"#utility.yul\":11503:12530   */\n      swap10\n      swap9\n      pop\n      pop\n      pop\n      pop\n      pop\n      pop\n      pop\n      pop\n      pop\n      jump\t// out\n        /* \"#utility.yul\":12536:12699   */\n    tag_272:\n        /* \"#utility.yul\":12676:12691   */\n      0x4f726465722050656e64696e6700000000000000000000000000000000000000\n        /* \"#utility.yul\":12672:12673   */\n      0x00\n        /* \"#utility.yul\":12664:12670   */\n      dup3\n        /* \"#utility.yul\":12660:12674   */\n      add\n        /* \"#utility.yul\":12653:12692   */\n      mstore\n        /* \"#utility.yul\":12536:12699   */\n      pop\n      jump\t// out\n        /* \"#utility.yul\":12705:13071   */\n    tag_273:\n        /* \"#utility.yul\":12847:12850   */\n      0x00\n        /* \"#utility.yul\":12868:12935   */\n      tag_418\n        /* \"#utility.yul\":12932:12934   */\n      0x0d\n        /* \"#utility.yul\":12927:12930   */\n      dup4\n        /* \"#utility.yul\":12868:12935   */\n      tag_249\n      jump\t// in\n    tag_418:\n        /* \"#utility.yul\":12861:12935   */\n      swap2\n      pop\n        /* \"#utility.yul\":12944:13037   */\n      tag_419\n        /* \"#utility.yul\":13033:13036   */\n      dup3\n        /* \"#utility.yul\":12944:13037   */\n      tag_272\n      jump\t// in\n    tag_419:\n        /* \"#utility.yul\":13062:13064   */\n      0x20\n        /* \"#utility.yul\":13057:13060   */\n      dup3\n        /* \"#utility.yul\":13053:13065   */\n      add\n        /* \"#utility.yul\":13046:13065   */\n      swap1\n      pop\n        /* \"#utility.yul\":12705:13071   */\n      swap2\n      swap1\n      pop\n      jump\t// out\n        /* \"#utility.yul\":13077:13496   */\n    tag_143:\n        /* \"#utility.yul\":13243:13247   */\n      0x00\n        /* \"#utility.yul\":13281:13283   */\n      0x20\n        /* \"#utility.yul\":13270:13279   */\n      dup3\n        /* \"#utility.yul\":13266:13284   */\n      add\n        /* \"#utility.yul\":13258:13284   */\n      swap1\n      pop\n        /* \"#utility.yul\":13330:13339   */\n      dup2\n        /* \"#utility.yul\":13324:13328   */\n      dup2\n        /* \"#utility.yul\":13320:13340   */\n      sub\n        /* \"#utility.yul\":13316:13317   */\n      0x00\n        /* \"#utility.yul\":13305:13314   */\n      dup4\n        /* \"#utility.yul\":13301:13318   */\n      add\n        /* \"#utility.yul\":13294:13341   */\n      mstore\n        /* \"#utility.yul\":13358:13489   */\n      tag_421\n        /* \"#utility.yul\":13484:13488   */\n      dup2\n        /* \"#utility.yul\":13358:13489   */\n      tag_273\n      jump\t// in\n    tag_421:\n        /* \"#utility.yul\":13350:13489   */\n      swap1\n      pop\n        /* \"#utility.yul\":13077:13496   */\n      swap2\n      swap1\n      pop\n      jump\t// out\n        /* \"#utility.yul\":13502:13666   */\n    tag_274:\n        /* \"#utility.yul\":13642:13658   */\n      0x4e6f7420417574686f7269736564000000000000000000000000000000000000\n        /* \"#utility.yul\":13638:13639   */\n      0x00\n        /* \"#utility.yul\":13630:13636   */\n      dup3\n        /* \"#utility.yul\":13626:13640   */\n      add\n        /* \"#utility.yul\":13619:13659   */\n      mstore\n        /* \"#utility.yul\":13502:13666   */\n      pop\n      jump\t// out\n        /* \"#utility.yul\":13672:14038   */\n    tag_275:\n        /* \"#utility.yul\":13814:13817   */\n      0x00\n        /* \"#utility.yul\":13835:13902   */\n      tag_424\n        /* \"#utility.yul\":13899:13901   */\n      0x0e\n        /* \"#utility.yul\":13894:13897   */\n      dup4\n        /* \"#utility.yul\":13835:13902   */\n      tag_249\n      jump\t// in\n    tag_424:\n        /* \"#utility.yul\":13828:13902   */\n      swap2\n      pop\n        /* \"#utility.yul\":13911:14004   */\n      tag_425\n        /* \"#utility.yul\":14000:14003   */\n      dup3\n        /* \"#utility.yul\":13911:14004   */\n      tag_274\n      jump\t// in\n    tag_425:\n        /* \"#utility.yul\":14029:14031   */\n      0x20\n        /* \"#utility.yul\":14024:14027   */\n      dup3\n        /* \"#utility.yul\":14020:14032   */\n      add\n        /* \"#utility.yul\":14013:14032   */\n      swap1\n      pop\n        /* \"#utility.yul\":13672:14038   */\n      swap2\n      swap1\n      pop\n      jump\t// out\n        /* \"#utility.yul\":14044:14463   */\n    tag_151:\n        /* \"#utility.yul\":14210:14214   */\n      0x00\n        /* \"#utility.yul\":14248:14250   */\n      0x20\n        /* \"#utility.yul\":14237:14246   */\n      dup3\n        /* \"#utility.yul\":14233:14251   */\n      add\n        /* \"#utility.yul\":14225:14251   */\n      swap1\n      pop\n        /* \"#utility.yul\":14297:14306   */\n      dup2\n        /* \"#utility.yul\":14291:14295   */\n      dup2\n        /* \"#utility.yul\":14287:14307   */\n      sub\n        /* \"#utility.yul\":14283:14284   */\n      0x00\n        /* \"#utility.yul\":14272:14281   */\n      dup4\n        /* \"#utility.yul\":14268:14285   */\n      add\n        /* \"#utility.yul\":14261:14308   */\n      mstore\n        /* \"#utility.yul\":14325:14456   */\n      tag_427\n        /* \"#utility.yul\":14451:14455   */\n      dup2\n        /* \"#utility.yul\":14325:14456   */\n      tag_275\n      jump\t// in\n    tag_427:\n        /* \"#utility.yul\":14317:14456   */\n      swap1\n      pop\n        /* \"#utility.yul\":14044:14463   */\n      swap2\n      swap1\n      pop\n      jump\t// out\n        /* \"#utility.yul\":14469:14548   */\n    tag_276:\n        /* \"#utility.yul\":14508:14515   */\n      0x00\n        /* \"#utility.yul\":14537:14542   */\n      dup2\n        /* \"#utility.yul\":14526:14542   */\n      swap1\n      pop\n        /* \"#utility.yul\":14469:14548   */\n      swap2\n      swap1\n      pop\n      jump\t// out\n        /* \"#utility.yul\":14554:14711   */\n    tag_277:\n        /* \"#utility.yul\":14659:14704   */\n      tag_430\n        /* \"#utility.yul\":14679:14703   */\n      tag_431\n        /* \"#utility.yul\":14697:14702   */\n      dup3\n        /* \"#utility.yul\":14679:14703   */\n      tag_245\n      jump\t// in\n    tag_431:\n        /* \"#utility.yul\":14659:14704   */\n      tag_276\n      jump\t// in\n    tag_430:\n        /* \"#utility.yul\":14654:14657   */\n      dup3\n        /* \"#utility.yul\":14647:14705   */\n      mstore\n        /* \"#utility.yul\":14554:14711   */\n      pop\n      pop\n      jump\t// out\n        /* \"#utility.yul\":14717:14897   */\n    tag_278:\n        /* \"#utility.yul\":14885:14890   */\n      0x202c200000000000000000000000000000000000000000000000000000000000\n        /* \"#utility.yul\":14880:14883   */\n      dup2\n        /* \"#utility.yul\":14873:14891   */\n      mstore\n        /* \"#utility.yul\":14717:14897   */\n      pop\n      jump\t// out\n        /* \"#utility.yul\":14903:15564   */\n    tag_155:\n        /* \"#utility.yul\":15133:15136   */\n      0x00\n        /* \"#utility.yul\":15148:15223   */\n      tag_434\n        /* \"#utility.yul\":15219:15222   */\n      dup3\n        /* \"#utility.yul\":15210:15216   */\n      dup6\n        /* \"#utility.yul\":15148:15223   */\n      tag_277\n      jump\t// in\n    tag_434:\n        /* \"#utility.yul\":15248:15250   */\n      0x20\n        /* \"#utility.yul\":15243:15246   */\n      dup3\n        /* \"#utility.yul\":15239:15251   */\n      add\n        /* \"#utility.yul\":15232:15251   */\n      swap2\n      pop\n        /* \"#utility.yul\":15261:15398   */\n      tag_435\n        /* \"#utility.yul\":15394:15397   */\n      dup3\n        /* \"#utility.yul\":15261:15398   */\n      tag_278\n      jump\t// in\n    tag_435:\n        /* \"#utility.yul\":15423:15424   */\n      0x03\n        /* \"#utility.yul\":15418:15421   */\n      dup3\n        /* \"#utility.yul\":15414:15425   */\n      add\n        /* \"#utility.yul\":15407:15425   */\n      swap2\n      pop\n        /* \"#utility.yul\":15435:15510   */\n      tag_436\n        /* \"#utility.yul\":15506:15509   */\n      dup3\n        /* \"#utility.yul\":15497:15503   */\n      dup5\n        /* \"#utility.yul\":15435:15510   */\n      tag_277\n      jump\t// in\n    tag_436:\n        /* \"#utility.yul\":15535:15537   */\n      0x20\n        /* \"#utility.yul\":15530:15533   */\n      dup3\n        /* \"#utility.yul\":15526:15538   */\n      add\n        /* \"#utility.yul\":15519:15538   */\n      swap2\n      pop\n        /* \"#utility.yul\":15555:15558   */\n      dup2\n        /* \"#utility.yul\":15548:15558   */\n      swap1\n      pop\n        /* \"#utility.yul\":14903:15564   */\n      swap4\n      swap3\n      pop\n      pop\n      pop\n      jump\t// out\n        /* \"#utility.yul\":15570:15751   */\n    tag_279:\n        /* \"#utility.yul\":15710:15743   */\n      0x70726963652076616c7565206d757374206265206d6f7265207468616e203000\n        /* \"#utility.yul\":15706:15707   */\n      0x00\n        /* \"#utility.yul\":15698:15704   */\n      dup3\n        /* \"#utility.yul\":15694:15708   */\n      add\n        /* \"#utility.yul\":15687:15744   */\n      mstore\n        /* \"#utility.yul\":15570:15751   */\n      pop\n      jump\t// out\n        /* \"#utility.yul\":15757:16123   */\n    tag_280:\n        /* \"#utility.yul\":15899:15902   */\n      0x00\n        /* \"#utility.yul\":15920:15987   */\n      tag_439\n        /* \"#utility.yul\":15984:15986   */\n      0x1f\n        /* \"#utility.yul\":15979:15982   */\n      dup4\n        /* \"#utility.yul\":15920:15987   */\n      tag_249\n      jump\t// in\n    tag_439:\n        /* \"#utility.yul\":15913:15987   */\n      swap2\n      pop\n        /* \"#utility.yul\":15996:16089   */\n      tag_440\n        /* \"#utility.yul\":16085:16088   */\n      dup3\n        /* \"#utility.yul\":15996:16089   */\n      tag_279\n      jump\t// in\n    tag_440:\n        /* \"#utility.yul\":16114:16116   */\n      0x20\n        /* \"#utility.yul\":16109:16112   */\n      dup3\n        /* \"#utility.yul\":16105:16117   */\n      add\n        /* \"#utility.yul\":16098:16117   */\n      swap1\n      pop\n        /* \"#utility.yul\":15757:16123   */\n      swap2\n      swap1\n      pop\n      jump\t// out\n        /* \"#utility.yul\":16129:16548   */\n    tag_167:\n        /* \"#utility.yul\":16295:16299   */\n      0x00\n        /* \"#utility.yul\":16333:16335   */\n      0x20\n        /* \"#utility.yul\":16322:16331   */\n      dup3\n        /* \"#utility.yul\":16318:16336   */\n      add\n        /* \"#utility.yul\":16310:16336   */\n      swap1\n      pop\n        /* \"#utility.yul\":16382:16391   */\n      dup2\n        /* \"#utility.yul\":16376:16380   */\n      dup2\n        /* \"#utility.yul\":16372:16392   */\n      sub\n        /* \"#utility.yul\":16368:16369   */\n      0x00\n        /* \"#utility.yul\":16357:16366   */\n      dup4\n        /* \"#utility.yul\":16353:16370   */\n      add\n        /* \"#utility.yul\":16346:16393   */\n      mstore\n        /* \"#utility.yul\":16410:16541   */\n      tag_442\n        /* \"#utility.yul\":16536:16540   */\n      dup2\n        /* \"#utility.yul\":16410:16541   */\n      tag_280\n      jump\t// in\n    tag_442:\n        /* \"#utility.yul\":16402:16541   */\n      swap1\n      pop\n        /* \"#utility.yul\":16129:16548   */\n      swap2\n      swap1\n      pop\n      jump\t// out\n        /* \"#utility.yul\":16554:16734   */\n    tag_281:\n        /* \"#utility.yul\":16694:16726   */\n      0x4e6f7420656e6f75676820626c616e636520746f20706c6163652061736b0000\n        /* \"#utility.yul\":16690:16691   */\n      0x00\n        /* \"#utility.yul\":16682:16688   */\n      dup3\n        /* \"#utility.yul\":16678:16692   */\n      add\n        /* \"#utility.yul\":16671:16727   */\n      mstore\n        /* \"#utility.yul\":16554:16734   */\n      pop\n      jump\t// out\n        /* \"#utility.yul\":16740:17106   */\n    tag_282:\n        /* \"#utility.yul\":16882:16885   */\n      0x00\n        /* \"#utility.yul\":16903:16970   */\n      tag_445\n        /* \"#utility.yul\":16967:16969   */\n      0x1e\n        /* \"#utility.yul\":16962:16965   */\n      dup4\n        /* \"#utility.yul\":16903:16970   */\n      tag_249\n      jump\t// in\n    tag_445:\n        /* \"#utility.yul\":16896:16970   */\n      swap2\n      pop\n        /* \"#utility.yul\":16979:17072   */\n      tag_446\n        /* \"#utility.yul\":17068:17071   */\n      dup3\n        /* \"#utility.yul\":16979:17072   */\n      tag_281\n      jump\t// in\n    tag_446:\n        /* \"#utility.yul\":17097:17099   */\n      0x20\n        /* \"#utility.yul\":17092:17095   */\n      dup3\n        /* \"#utility.yul\":17088:17100   */\n      add\n        /* \"#utility.yul\":17081:17100   */\n      swap1\n      pop\n        /* \"#utility.yul\":16740:17106   */\n      swap2\n      swap1\n      pop\n      jump\t// out\n        /* \"#utility.yul\":17112:17531   */\n    tag_170:\n        /* \"#utility.yul\":17278:17282   */\n      0x00\n        /* \"#utility.yul\":17316:17318   */\n      0x20\n        /* \"#utility.yul\":17305:17314   */\n      dup3\n        /* \"#utility.yul\":17301:17319   */\n      add\n        /* \"#utility.yul\":17293:17319   */\n      swap1\n      pop\n        /* \"#utility.yul\":17365:17374   */\n      dup2\n        /* \"#utility.yul\":17359:17363   */\n      dup2\n        /* \"#utility.yul\":17355:17375   */\n      sub\n        /* \"#utility.yul\":17351:17352   */\n      0x00\n        /* \"#utility.yul\":17340:17349   */\n      dup4\n        /* \"#utility.yul\":17336:17353   */\n      add\n        /* \"#utility.yul\":17329:17376   */\n      mstore\n        /* \"#utility.yul\":17393:17524   */\n      tag_448\n        /* \"#utility.yul\":17519:17523   */\n      dup2\n        /* \"#utility.yul\":17393:17524   */\n      tag_282\n      jump\t// in\n    tag_448:\n        /* \"#utility.yul\":17385:17524   */\n      swap1\n      pop\n        /* \"#utility.yul\":17112:17531   */\n      swap2\n      swap1\n      pop\n      jump\t// out\n        /* \"#utility.yul\":17537:17717   */\n    tag_283:\n        /* \"#utility.yul\":17585:17662   */\n      0x4e487b7100000000000000000000000000000000000000000000000000000000\n        /* \"#utility.yul\":17582:17583   */\n      0x00\n        /* \"#utility.yul\":17575:17663   */\n      mstore\n        /* \"#utility.yul\":17682:17686   */\n      0x11\n        /* \"#utility.yul\":17679:17680   */\n      0x04\n        /* \"#utility.yul\":17672:17687   */\n      mstore\n        /* \"#utility.yul\":17706:17710   */\n      0x24\n        /* \"#utility.yul\":17703:17704   */\n      0x00\n        /* \"#utility.yul\":17696:17711   */\n      revert\n        /* \"#utility.yul\":17723:17914   */\n    tag_172:\n        /* \"#utility.yul\":17763:17767   */\n      0x00\n        /* \"#utility.yul\":17783:17803   */\n      tag_451\n        /* \"#utility.yul\":17801:17802   */\n      dup3\n        /* \"#utility.yul\":17783:17803   */\n      tag_235\n      jump\t// in\n    tag_451:\n        /* \"#utility.yul\":17778:17803   */\n      swap2\n      pop\n        /* \"#utility.yul\":17817:17837   */\n      tag_452\n        /* \"#utility.yul\":17835:17836   */\n      dup4\n        /* \"#utility.yul\":17817:17837   */\n      tag_235\n      jump\t// in\n    tag_452:\n        /* \"#utility.yul\":17812:17837   */\n      swap3\n      pop\n        /* \"#utility.yul\":17856:17857   */\n      dup3\n        /* \"#utility.yul\":17853:17854   */\n      dup3\n        /* \"#utility.yul\":17850:17858   */\n      lt\n        /* \"#utility.yul\":17847:17881   */\n      iszero\n      tag_453\n      jumpi\n        /* \"#utility.yul\":17861:17879   */\n      tag_454\n      tag_283\n      jump\t// in\n    tag_454:\n        /* \"#utility.yul\":17847:17881   */\n    tag_453:\n        /* \"#utility.yul\":17906:17907   */\n      dup3\n        /* \"#utility.yul\":17903:17904   */\n      dup3\n        /* \"#utility.yul\":17899:17908   */\n      sub\n        /* \"#utility.yul\":17891:17908   */\n      swap1\n      pop\n        /* \"#utility.yul\":17723:17914   */\n      swap3\n      swap2\n      pop\n      pop\n      jump\t// out\n        /* \"#utility.yul\":17920:18268   */\n    tag_174:\n        /* \"#utility.yul\":17960:17967   */\n      0x00\n        /* \"#utility.yul\":17983:18003   */\n      tag_456\n        /* \"#utility.yul\":18001:18002   */\n      dup3\n        /* \"#utility.yul\":17983:18003   */\n      tag_235\n      jump\t// in\n    tag_456:\n        /* \"#utility.yul\":17978:18003   */\n      swap2\n      pop\n        /* \"#utility.yul\":18017:18037   */\n      tag_457\n        /* \"#utility.yul\":18035:18036   */\n      dup4\n        /* \"#utility.yul\":18017:18037   */\n      tag_235\n      jump\t// in\n    tag_457:\n        /* \"#utility.yul\":18012:18037   */\n      swap3\n      pop\n        /* \"#utility.yul\":18205:18206   */\n      dup2\n        /* \"#utility.yul\":18137:18203   */\n      0xffffffffffffffffffffffffffffffffffffffffffffffffffffffffffffffff\n        /* \"#utility.yul\":18133:18207   */\n      div\n        /* \"#utility.yul\":18130:18131   */\n      dup4\n        /* \"#utility.yul\":18127:18208   */\n      gt\n        /* \"#utility.yul\":18122:18123   */\n      dup3\n        /* \"#utility.yul\":18115:18124   */\n      iszero\n        /* \"#utility.yul\":18108:18125   */\n      iszero\n        /* \"#utility.yul\":18104:18209   */\n      and\n        /* \"#utility.yul\":18101:18232   */\n      iszero\n      tag_458\n      jumpi\n        /* \"#utility.yul\":18212:18230   */\n      tag_459\n      tag_283\n      jump\t// in\n    tag_459:\n        /* \"#utility.yul\":18101:18232   */\n    tag_458:\n        /* \"#utility.yul\":18260:18261   */\n      dup3\n        /* \"#utility.yul\":18257:18258   */\n      dup3\n        /* \"#utility.yul\":18253:18262   */\n      mul\n        /* \"#utility.yul\":18242:18262   */\n      swap1\n      pop\n        /* \"#utility.yul\":17920:18268   */\n      swap3\n      swap2\n      pop\n      pop\n      jump\t// out\n        /* \"#utility.yul\":18274:18454   */\n    tag_284:\n        /* \"#utility.yul\":18322:18399   */\n      0x4e487b7100000000000000000000000000000000000000000000000000000000\n        /* \"#utility.yul\":18319:18320   */\n      0x00\n        /* \"#utility.yul\":18312:18400   */\n      mstore\n        /* \"#utility.yul\":18419:18423   */\n      0x12\n        /* \"#utility.yul\":18416:18417   */\n      0x04\n        /* \"#utility.yul\":18409:18424   */\n      mstore\n        /* \"#utility.yul\":18443:18447   */\n      0x24\n        /* \"#utility.yul\":18440:18441   */\n      0x00\n        /* \"#utility.yul\":18433:18448   */\n      revert\n        /* \"#utility.yul\":18460:18645   */\n    tag_176:\n        /* \"#utility.yul\":18500:18501   */\n      0x00\n        /* \"#utility.yul\":18517:18537   */\n      tag_462\n        /* \"#utility.yul\":18535:18536   */\n      dup3\n        /* \"#utility.yul\":18517:18537   */\n      tag_235\n      jump\t// in\n    tag_462:\n        /* \"#utility.yul\":18512:18537   */\n      swap2\n      pop\n        /* \"#utility.yul\":18551:18571   */\n      tag_463\n        /* \"#utility.yul\":18569:18570   */\n      dup4\n        /* \"#utility.yul\":18551:18571   */\n      tag_235\n      jump\t// in\n    tag_463:\n        /* \"#utility.yul\":18546:18571   */\n      swap3\n      pop\n        /* \"#utility.yul\":18590:18591   */\n      dup3\n        /* \"#utility.yul\":18580:18615   */\n      tag_464\n      jumpi\n        /* \"#utility.yul\":18595:18613   */\n      tag_465\n      tag_284\n      jump\t// in\n    tag_465:\n        /* \"#utility.yul\":18580:18615   */\n    tag_464:\n        /* \"#utility.yul\":18637:18638   */\n      dup3\n        /* \"#utility.yul\":18634:18635   */\n      dup3\n        /* \"#utility.yul\":18630:18639   */\n      div\n        /* \"#utility.yul\":18625:18639   */\n      swap1\n      pop\n        /* \"#utility.yul\":18460:18645   */\n      swap3\n      swap2\n      pop\n      pop\n      jump\t// out\n        /* \"#utility.yul\":18651:18831   */\n    tag_285:\n        /* \"#utility.yul\":18791:18823   */\n      0x4e6f7420656e6f75676820626c616e636520746f20706c616365206269640000\n        /* \"#utility.yul\":18787:18788   */\n      0x00\n        /* \"#utility.yul\":18779:18785   */\n      dup3\n        /* \"#utility.yul\":18775:18789   */\n      add\n        /* \"#utility.yul\":18768:18824   */\n      mstore\n        /* \"#utility.yul\":18651:18831   */\n      pop\n      jump\t// out\n        /* \"#utility.yul\":18837:19203   */\n    tag_286:\n        /* \"#utility.yul\":18979:18982   */\n      0x00\n        /* \"#utility.yul\":19000:19067   */\n      tag_468\n        /* \"#utility.yul\":19064:19066   */\n      0x1e\n        /* \"#utility.yul\":19059:19062   */\n      dup4\n        /* \"#utility.yul\":19000:19067   */\n      tag_249\n      jump\t// in\n    tag_468:\n        /* \"#utility.yul\":18993:19067   */\n      swap2\n      pop\n        /* \"#utility.yul\":19076:19169   */\n      tag_469\n        /* \"#utility.yul\":19165:19168   */\n      dup3\n        /* \"#utility.yul\":19076:19169   */\n      tag_285\n      jump\t// in\n    tag_469:\n        /* \"#utility.yul\":19194:19196   */\n      0x20\n        /* \"#utility.yul\":19189:19192   */\n      dup3\n        /* \"#utility.yul\":19185:19197   */\n      add\n        /* \"#utility.yul\":19178:19197   */\n      swap1\n      pop\n        /* \"#utility.yul\":18837:19203   */\n      swap2\n      swap1\n      pop\n      jump\t// out\n        /* \"#utility.yul\":19209:19628   */\n    tag_205:\n        /* \"#utility.yul\":19375:19379   */\n      0x00\n        /* \"#utility.yul\":19413:19415   */\n      0x20\n        /* \"#utility.yul\":19402:19411   */\n      dup3\n        /* \"#utility.yul\":19398:19416   */\n      add\n        /* \"#utility.yul\":19390:19416   */\n      swap1\n      pop\n        /* \"#utility.yul\":19462:19471   */\n      dup2\n        /* \"#utility.yul\":19456:19460   */\n      dup2\n        /* \"#utility.yul\":19452:19472   */\n      sub\n        /* \"#utility.yul\":19448:19449   */\n      0x00\n        /* \"#utility.yul\":19437:19446   */\n      dup4\n        /* \"#utility.yul\":19433:19450   */\n      add\n        /* \"#utility.yul\":19426:19473   */\n      mstore\n        /* \"#utility.yul\":19490:19621   */\n      tag_471\n        /* \"#utility.yul\":19616:19620   */\n      dup2\n        /* \"#utility.yul\":19490:19621   */\n      tag_286\n      jump\t// in\n    tag_471:\n        /* \"#utility.yul\":19482:19621   */\n      swap1\n      pop\n        /* \"#utility.yul\":19209:19628   */\n      swap2\n      swap1\n      pop\n      jump\t// out\n        /* \"#utility.yul\":19634:19867   */\n    tag_214:\n        /* \"#utility.yul\":19673:19676   */\n      0x00\n        /* \"#utility.yul\":19696:19720   */\n      tag_473\n        /* \"#utility.yul\":19714:19719   */\n      dup3\n        /* \"#utility.yul\":19696:19720   */\n      tag_235\n      jump\t// in\n    tag_473:\n        /* \"#utility.yul\":19687:19720   */\n      swap2\n      pop\n        /* \"#utility.yul\":19742:19808   */\n      0xffffffffffffffffffffffffffffffffffffffffffffffffffffffffffffffff\n        /* \"#utility.yul\":19735:19740   */\n      dup3\n        /* \"#utility.yul\":19732:19809   */\n      sub\n        /* \"#utility.yul\":19729:19832   */\n      tag_474\n      jumpi\n        /* \"#utility.yul\":19812:19830   */\n      tag_475\n      tag_283\n      jump\t// in\n    tag_475:\n        /* \"#utility.yul\":19729:19832   */\n    tag_474:\n        /* \"#utility.yul\":19859:19860   */\n      0x01\n        /* \"#utility.yul\":19852:19857   */\n      dup3\n        /* \"#utility.yul\":19848:19861   */\n      add\n        /* \"#utility.yul\":19841:19861   */\n      swap1\n      pop\n        /* \"#utility.yul\":19634:19867   */\n      swap2\n      swap1\n      pop\n      jump\t// out\n        /* \"#utility.yul\":19873:19969   */\n    tag_287:\n        /* \"#utility.yul\":19910:19917   */\n      0x00\n        /* \"#utility.yul\":19939:19963   */\n      tag_477\n        /* \"#utility.yul\":19957:19962   */\n      dup3\n        /* \"#utility.yul\":19939:19963   */\n      tag_257\n      jump\t// in\n    tag_477:\n        /* \"#utility.yul\":19928:19963   */\n      swap1\n      pop\n        /* \"#utility.yul\":19873:19969   */\n      swap2\n      swap1\n      pop\n      jump\t// out\n        /* \"#utility.yul\":19975:20093   */\n    tag_288:\n        /* \"#utility.yul\":20062:20086   */\n      tag_479\n        /* \"#utility.yul\":20080:20085   */\n      dup2\n        /* \"#utility.yul\":20062:20086   */\n      tag_287\n      jump\t// in\n    tag_479:\n        /* \"#utility.yul\":20057:20060   */\n      dup3\n        /* \"#utility.yul\":20050:20087   */\n      mstore\n        /* \"#utility.yul\":19975:20093   */\n      pop\n      pop\n      jump\t// out\n        /* \"#utility.yul\":20099:20184   */\n    tag_289:\n        /* \"#utility.yul\":20144:20151   */\n      0x00\n        /* \"#utility.yul\":20173:20178   */\n      dup2\n        /* \"#utility.yul\":20162:20178   */\n      swap1\n      pop\n        /* \"#utility.yul\":20099:20184   */\n      swap2\n      swap1\n      pop\n      jump\t// out\n        /* \"#utility.yul\":20190:20250   */\n    tag_290:\n        /* \"#utility.yul\":20218:20221   */\n      0x00\n        /* \"#utility.yul\":20239:20244   */\n      dup2\n        /* \"#utility.yul\":20232:20244   */\n      swap1\n      pop\n        /* \"#utility.yul\":20190:20250   */\n      swap2\n      swap1\n      pop\n      jump\t// out\n        /* \"#utility.yul\":20256:20414   */\n    tag_291:\n        /* \"#utility.yul\":20314:20323   */\n      0x00\n        /* \"#utility.yul\":20347:20408   */\n      tag_483\n        /* \"#utility.yul\":20365:20407   */\n      tag_484\n        /* \"#utility.yul\":20374:20406   */\n      tag_485\n        /* \"#utility.yul\":20400:20405   */\n      dup5\n        /* \"#utility.yul\":20374:20406   */\n      tag_289\n      jump\t// in\n    tag_485:\n        /* \"#utility.yul\":20365:20407   */\n      tag_290\n      jump\t// in\n    tag_484:\n        /* \"#utility.yul\":20347:20408   */\n      tag_235\n      jump\t// in\n    tag_483:\n        /* \"#utility.yul\":20334:20408   */\n      swap1\n      pop\n        /* \"#utility.yul\":20256:20414   */\n      swap2\n      swap1\n      pop\n      jump\t// out\n        /* \"#utility.yul\":20420:20567   */\n    tag_292:\n        /* \"#utility.yul\":20515:20560   */\n      tag_487\n        /* \"#utility.yul\":20554:20559   */\n      dup2\n        /* \"#utility.yul\":20515:20560   */\n      tag_291\n      jump\t// in\n    tag_487:\n        /* \"#utility.yul\":20510:20513   */\n      dup3\n        /* \"#utility.yul\":20503:20561   */\n      mstore\n        /* \"#utility.yul\":20420:20567   */\n      pop\n      pop\n      jump\t// out\n        /* \"#utility.yul\":20573:21600   */\n    tag_220:\n        /* \"#utility.yul\":20877:20881   */\n      0x00\n        /* \"#utility.yul\":20915:20918   */\n      0x0100\n        /* \"#utility.yul\":20904:20913   */\n      dup3\n        /* \"#utility.yul\":20900:20919   */\n      add\n        /* \"#utility.yul\":20892:20919   */\n      swap1\n      pop\n        /* \"#utility.yul\":20929:21000   */\n      tag_489\n        /* \"#utility.yul\":20997:20998   */\n      0x00\n        /* \"#utility.yul\":20986:20995   */\n      dup4\n        /* \"#utility.yul\":20982:20999   */\n      add\n        /* \"#utility.yul\":20973:20979   */\n      dup12\n        /* \"#utility.yul\":20929:21000   */\n      tag_288\n      jump\t// in\n    tag_489:\n        /* \"#utility.yul\":21010:21082   */\n      tag_490\n        /* \"#utility.yul\":21078:21080   */\n      0x20\n        /* \"#utility.yul\":21067:21076   */\n      dup4\n        /* \"#utility.yul\":21063:21081   */\n      add\n        /* \"#utility.yul\":21054:21060   */\n      dup11\n        /* \"#utility.yul\":21010:21082   */\n      tag_253\n      jump\t// in\n    tag_490:\n        /* \"#utility.yul\":21092:21164   */\n      tag_491\n        /* \"#utility.yul\":21160:21162   */\n      0x40\n        /* \"#utility.yul\":21149:21158   */\n      dup4\n        /* \"#utility.yul\":21145:21163   */\n      add\n        /* \"#utility.yul\":21136:21142   */\n      dup10\n        /* \"#utility.yul\":21092:21164   */\n      tag_253\n      jump\t// in\n    tag_491:\n        /* \"#utility.yul\":21174:21251   */\n      tag_492\n        /* \"#utility.yul\":21247:21249   */\n      0x60\n        /* \"#utility.yul\":21236:21245   */\n      dup4\n        /* \"#utility.yul\":21232:21250   */\n      add\n        /* \"#utility.yul\":21223:21229   */\n      dup9\n        /* \"#utility.yul\":21174:21251   */\n      tag_268\n      jump\t// in\n    tag_492:\n        /* \"#utility.yul\":21261:21334   */\n      tag_493\n        /* \"#utility.yul\":21329:21332   */\n      0x80\n        /* \"#utility.yul\":21318:21327   */\n      dup4\n        /* \"#utility.yul\":21314:21333   */\n      add\n        /* \"#utility.yul\":21305:21311   */\n      dup8\n        /* \"#utility.yul\":21261:21334   */\n      tag_253\n      jump\t// in\n    tag_493:\n        /* \"#utility.yul\":21344:21425   */\n      tag_494\n        /* \"#utility.yul\":21420:21423   */\n      0xa0\n        /* \"#utility.yul\":21409:21418   */\n      dup4\n        /* \"#utility.yul\":21405:21424   */\n      add\n        /* \"#utility.yul\":21396:21402   */\n      dup7\n        /* \"#utility.yul\":21344:21425   */\n      tag_292\n      jump\t// in\n    tag_494:\n        /* \"#utility.yul\":21435:21516   */\n      tag_495\n        /* \"#utility.yul\":21511:21514   */\n      0xc0\n        /* \"#utility.yul\":21500:21509   */\n      dup4\n        /* \"#utility.yul\":21496:21515   */\n      add\n        /* \"#utility.yul\":21487:21493   */\n      dup6\n        /* \"#utility.yul\":21435:21516   */\n      tag_292\n      jump\t// in\n    tag_495:\n        /* \"#utility.yul\":21526:21593   */\n      tag_496\n        /* \"#utility.yul\":21588:21591   */\n      0xe0\n        /* \"#utility.yul\":21577:21586   */\n      dup4\n        /* \"#utility.yul\":21573:21592   */\n      add\n        /* \"#utility.yul\":21564:21570   */\n      dup5\n        /* \"#utility.yul\":21526:21593   */\n      tag_271\n      jump\t// in\n    tag_496:\n        /* \"#utility.yul\":20573:21600   */\n      swap10\n      swap9\n      pop\n      pop\n      pop\n      pop\n      pop\n      pop\n      pop\n      pop\n      pop\n      jump\t// out\n\n    auxdata: 0xa264697066735822122046c2119bd2e65333ade59e12968aa64fede087fa356c499ca4f44091ed5880c964736f6c634300080d0033\n}\n",
				"bytecode": {
					"linkReferences": {},
					"object": "608060405233600160006101000a81548173ffffffffffffffffffffffffffffffffffffffff021916908373ffffffffffffffffffffffffffffffffffffffff1602179055503480156200005257600080fd5b5060405162001d5138038062001d518339818101604052810190620000789190620000f6565b80600281905550600060048190555060006005819055506000600681905550600060088190555060006009819055506000600a819055505062000128565b600080fd5b6000819050919050565b620000d081620000bb565b8114620000dc57600080fd5b50565b600081519050620000f081620000c5565b92915050565b6000602082840312156200010f576200010e620000b6565b5b60006200011f84828501620000df565b91505092915050565b611c1980620001386000396000f3fe6080604052600436106101355760003560e01c80637bb51193116100ab578063b40a56271161006f578063b40a562714610422578063bf77ffae1461044d578063ce0cdc871461048a578063d09ef241146104b5578063db3a1396146104f9578063ecdfb8601461053657610135565b80637bb511931461035c578063801d9bbd146103875780639703ef35146103b25780639979ef45146103db578063a394fda7146103f757610135565b806344e791e0116100fd57806344e791e0146102335780634d46712d1461025e57806369f632e21461029b5780636e5b0f00146102d8578063734a2e781461030357806378c5b2681461034057610135565b8063122de8f21461013a5780631628e0f514610165578063299e62831461018e5780632db6dfa7146101cb5780634471417f14610208575b600080fd5b34801561014657600080fd5b5061014f610561565b60405161015c919061121d565b60405180910390f35b34801561017157600080fd5b5061018c60048036038101906101879190611270565b610566565b005b34801561019a57600080fd5b506101b560048036038101906101b091906112d3565b61080c565b6040516101c291906113ac565b60405180910390f35b3480156101d757600080fd5b506101f260048036038101906101ed9190611270565b610838565b6040516101ff91906113dd565b60405180910390f35b34801561021457600080fd5b5061021d610858565b60405161022a91906115ed565b60405180910390f35b34801561023f57600080fd5b5061024861085d565b60405161025591906113ac565b60405180910390f35b34801561026a57600080fd5b5061028560048036038101906102809190611270565b61088a565b604051610292919061161e565b60405180910390f35b3480156102a757600080fd5b506102c260048036038101906102bd9190611270565b6108b7565b6040516102cf9190611648565b60405180910390f35b3480156102e457600080fd5b506102ed6108f7565b6040516102fa91906113dd565b60405180910390f35b34801561030f57600080fd5b5061032a60048036038101906103259190611270565b6108fd565b6040516103379190611648565b60405180910390f35b61035a60048036038101906103559190611270565b61093d565b005b34801561036857600080fd5b50610371610a11565b60405161037e91906113dd565b60405180910390f35b34801561039357600080fd5b5061039c610a17565b6040516103a991906113dd565b60405180910390f35b3480156103be57600080fd5b506103d960048036038101906103d49190611270565b610a1d565b005b6103f560048036038101906103f09190611270565b610cc3565b005b34801561040357600080fd5b5061040c610d4d565b60405161041991906113dd565b60405180910390f35b34801561042e57600080fd5b50610437610d53565b60405161044491906113dd565b60405180910390f35b34801561045957600080fd5b50610474600480360381019061046f9190611270565b610d59565b604051610481919061161e565b60405180910390f35b34801561049657600080fd5b5061049f610d86565b6040516104ac919061121d565b60405180910390f35b3480156104c157600080fd5b506104dc60048036038101906104d79190611270565b610d8b565b6040516104f098979695949392919061167e565b60405180910390f35b34801561050557600080fd5b50610520600480360381019061051b9190611270565b610da2565b60405161052d91906113dd565b60405180910390f35b34801561054257600080fd5b5061054b610dc2565b60405161055891906113dd565b60405180910390f35b606090565b600760008281526020019081526020016000206040518060e00160405290816000820160009054906101000a900473ffffffffffffffffffffffffffffffffffffffff1673ffffffffffffffffffffffffffffffffffffffff1673ffffffffffffffffffffffffffffffffffffffff16815260200160018201548152602001600282015481526020016003820160009054906101000a900460ff16600181111561061357610612611465565b5b600181111561062557610624611465565b5b815260200160048201548152602001600582015481526020016006820154815250506000600181111561065b5761065a611465565b5b8160600151600181111561067257610671611465565b5b146106b2576040517f08c379a00000000000000000000000000000000000000000000000000000000081526004016106a990611748565b60405180910390fd5b600760008381526020019081526020016000206040518060e00160405290816000820160009054906101000a900473ffffffffffffffffffffffffffffffffffffffff1673ffffffffffffffffffffffffffffffffffffffff1673ffffffffffffffffffffffffffffffffffffffff16815260200160018201548152602001600282015481526020016003820160009054906101000a900460ff16600181111561075f5761075e611465565b5b600181111561077157610770611465565b5b81526020016004820154815260200160058201548152602001600682015481525050338073ffffffffffffffffffffffffffffffffffffffff16826000015173ffffffffffffffffffffffffffffffffffffffff1614610806576040517f08c379a00000000000000000000000000000000000000000000000000000000081526004016107fd906117b4565b60405180910390fd5b50505050565b6060828260405160200161082192919061181b565b604051602081830303815290604052905092915050565b600060036000838152602001908152602001600020600101549050919050565b606090565b60606000600854905060006040518060200160405280600081525090505b60006008540361087b57505090565b60006007600083815260200190815260200160002060030160009054906101000a900460ff169050919050565b60006003600083815260200190815260200160002060000160009054906101000a900473ffffffffffffffffffffffffffffffffffffffff169050919050565b60045481565b60006007600083815260200190815260200160002060000160009054906101000a900473ffffffffffffffffffffffffffffffffffffffff169050919050565b6000811015610981576040517f08c379a0000000000000000000000000000000000000000000000000000000008152600401610978906118a2565b60405180910390fd5b803410156109c4576040517f08c379a00000000000000000000000000000000000000000000000000000000081526004016109bb9061190e565b60405180910390fd5b60004290506000606460025460646109dc919061195d565b346109e79190611991565b6109f19190611a1a565b90506000610a00338484610dc8565b9050610a0b81610f63565b50505050565b60055481565b60085481565b600360008281526020019081526020016000206040518060e00160405290816000820160009054906101000a900473ffffffffffffffffffffffffffffffffffffffff1673ffffffffffffffffffffffffffffffffffffffff1673ffffffffffffffffffffffffffffffffffffffff16815260200160018201548152602001600282015481526020016003820160009054906101000a900460ff166001811115610aca57610ac9611465565b5b6001811115610adc57610adb611465565b5b8152602001600482015481526020016005820154815260200160068201548152505060006001811115610b1257610b11611465565b5b81606001516001811115610b2957610b28611465565b5b14610b69576040517f08c379a0000000000000000000000000000000000000000000000000000000008152600401610b6090611748565b60405180910390fd5b600360008381526020019081526020016000206040518060e00160405290816000820160009054906101000a900473ffffffffffffffffffffffffffffffffffffffff1673ffffffffffffffffffffffffffffffffffffffff1673ffffffffffffffffffffffffffffffffffffffff16815260200160018201548152602001600282015481526020016003820160009054906101000a900460ff166001811115610c1657610c15611465565b5b6001811115610c2857610c27611465565b5b81526020016004820154815260200160058201548152602001600682015481525050338073ffffffffffffffffffffffffffffffffffffffff16826000015173ffffffffffffffffffffffffffffffffffffffff1614610cbd576040517f08c379a0000000000000000000000000000000000000000000000000000000008152600401610cb4906117b4565b60405180910390fd5b50505050565b6000811015610d07576040517f08c379a0000000000000000000000000000000000000000000000000000000008152600401610cfe906118a2565b60405180910390fd5b80341015610d4a576040517f08c379a0000000000000000000000000000000000000000000000000000000008152600401610d4190611a97565b60405180910390fd5b50565b600a5481565b60065481565b60006003600083815260200190815260200160002060030160009054906101000a900460ff169050919050565b606090565b600080600080600080600080919395975091939597565b600060076000838152602001908152602001600020600101549050919050565b60095481565b610dd06110f0565b600a6000815480929190610de390611ab7565b919050555060006040518060e001604052808673ffffffffffffffffffffffffffffffffffffffff16815260200185815260200184815260200160006001811115610e3157610e30611465565b5b8152602001600a54815260200160008152602001600081525090508060076000600a54815260200190815260200160002060008201518160000160006101000a81548173ffffffffffffffffffffffffffffffffffffffff021916908373ffffffffffffffffffffffffffffffffffffffff160217905550602082015181600101556040820151816002015560608201518160030160006101000a81548160ff02191690836001811115610ee857610ee7611465565b5b02179055506080820151816004015560a0820151816005015560c082015181600601559050507f93caf6ba1af44020dfe6076e279533e38bd8deefe534c43aa8cc93aad2025b7d8585856000600a546000806000604051610f50989796959493929190611b65565b60405180910390a1809150509392505050565b60008060085403610f7e5781608001516008819055506110ec565b81602001516007600060085481526020019081526020016000206001015410610fe0576008548260a00181815250508160800151600760008460a0015181526020019081526020016000206006018190555081608001516008819055506110eb565b60085490505b600060076000838152602001908152602001600020600501541415801561103c57508160200151600760006007600085815260200190815260200160002060050154815260200190815260200160002060010154105b1561105f5760076000828152602001908152602001600020600501549050610fe6565b60076000828152602001908152602001600020600501548260a001818152505060006007600083815260200190815260200160002060050154146110c1578160800151600760008460a001518152602001908152602001600020600601819055505b81608001516007600083815260200190815260200160002060050181905550808260c00181815250505b5b5050565b6040518060e00160405280600073ffffffffffffffffffffffffffffffffffffffff16815260200160008152602001600081526020016000600181111561113a57611139611465565b5b81526020016000815260200160008152602001600081525090565b600081519050919050565b600082825260208201905092915050565b6000819050602082019050919050565b6000819050919050565b61119481611181565b82525050565b60006111a6838361118b565b60208301905092915050565b6000602082019050919050565b60006111ca82611155565b6111d48185611160565b93506111df83611171565b8060005b838110156112105781516111f7888261119a565b9750611202836111b2565b9250506001810190506111e3565b5085935050505092915050565b6000602082019050818103600083015261123781846111bf565b905092915050565b600080fd5b61124d81611181565b811461125857600080fd5b50565b60008135905061126a81611244565b92915050565b6000602082840312156112865761128561123f565b5b60006112948482850161125b565b91505092915050565b6000819050919050565b6112b08161129d565b81146112bb57600080fd5b50565b6000813590506112cd816112a7565b92915050565b600080604083850312156112ea576112e961123f565b5b60006112f8858286016112be565b9250506020611309858286016112be565b9150509250929050565b600081519050919050565b600082825260208201905092915050565b60005b8381101561134d578082015181840152602081019050611332565b8381111561135c576000848401525b50505050565b6000601f19601f8301169050919050565b600061137e82611313565b611388818561131e565b935061139881856020860161132f565b6113a181611362565b840191505092915050565b600060208201905081810360008301526113c68184611373565b905092915050565b6113d781611181565b82525050565b60006020820190506113f260008301846113ce565b92915050565b600081519050919050565b600082825260208201905092915050565b6000819050602082019050919050565b600073ffffffffffffffffffffffffffffffffffffffff82169050919050565b600061144f82611424565b9050919050565b61145f81611444565b82525050565b7f4e487b7100000000000000000000000000000000000000000000000000000000600052602160045260246000fd5b600281106114a5576114a4611465565b5b50565b60008190506114b682611494565b919050565b60006114c6826114a8565b9050919050565b6114d6816114bb565b82525050565b60e0820160008201516114f26000850182611456565b506020820151611505602085018261118b565b506040820151611518604085018261118b565b50606082015161152b60608501826114cd565b50608082015161153e608085018261118b565b5060a082015161155160a085018261118b565b5060c082015161156460c085018261118b565b50505050565b600061157683836114dc565b60e08301905092915050565b6000602082019050919050565b600061159a826113f8565b6115a48185611403565b93506115af83611414565b8060005b838110156115e05781516115c7888261156a565b97506115d283611582565b9250506001810190506115b3565b5085935050505092915050565b60006020820190508181036000830152611607818461158f565b905092915050565b611618816114bb565b82525050565b6000602082019050611633600083018461160f565b92915050565b61164281611444565b82525050565b600060208201905061165d6000830184611639565b92915050565b60008115159050919050565b61167881611663565b82525050565b600061010082019050611694600083018b611639565b6116a1602083018a6113ce565b6116ae60408301896113ce565b6116bb606083018861160f565b6116c860808301876113ce565b6116d560a08301866113ce565b6116e260c08301856113ce565b6116ef60e083018461166f565b9998505050505050505050565b7f4f726465722050656e64696e6700000000000000000000000000000000000000600082015250565b6000611732600d8361131e565b915061173d826116fc565b602082019050919050565b6000602082019050818103600083015261176181611725565b9050919050565b7f4e6f7420417574686f7269736564000000000000000000000000000000000000600082015250565b600061179e600e8361131e565b91506117a982611768565b602082019050919050565b600060208201905081810360008301526117cd81611791565b9050919050565b6000819050919050565b6117ef6117ea8261129d565b6117d4565b82525050565b7f202c200000000000000000000000000000000000000000000000000000000000815250565b600061182782856117de565b602082019150611836826117f5565b60038201915061184682846117de565b6020820191508190509392505050565b7f70726963652076616c7565206d757374206265206d6f7265207468616e203000600082015250565b600061188c601f8361131e565b915061189782611856565b602082019050919050565b600060208201905081810360008301526118bb8161187f565b9050919050565b7f4e6f7420656e6f75676820626c616e636520746f20706c6163652061736b0000600082015250565b60006118f8601e8361131e565b9150611903826118c2565b602082019050919050565b60006020820190508181036000830152611927816118eb565b9050919050565b7f4e487b7100000000000000000000000000000000000000000000000000000000600052601160045260246000fd5b600061196882611181565b915061197383611181565b9250828210156119865761198561192e565b5b828203905092915050565b600061199c82611181565b91506119a783611181565b9250817fffffffffffffffffffffffffffffffffffffffffffffffffffffffffffffffff04831182151516156119e0576119df61192e565b5b828202905092915050565b7f4e487b7100000000000000000000000000000000000000000000000000000000600052601260045260246000fd5b6000611a2582611181565b9150611a3083611181565b925082611a4057611a3f6119eb565b5b828204905092915050565b7f4e6f7420656e6f75676820626c616e636520746f20706c616365206269640000600082015250565b6000611a81601e8361131e565b9150611a8c82611a4b565b602082019050919050565b60006020820190508181036000830152611ab081611a74565b9050919050565b6000611ac282611181565b91507fffffffffffffffffffffffffffffffffffffffffffffffffffffffffffffffff8203611af457611af361192e565b5b600182019050919050565b6000611b0a82611424565b9050919050565b611b1a81611aff565b82525050565b6000819050919050565b6000819050919050565b6000611b4f611b4a611b4584611b20565b611b2a565b611181565b9050919050565b611b5f81611b34565b82525050565b600061010082019050611b7b600083018b611b11565b611b88602083018a6113ce565b611b9560408301896113ce565b611ba2606083018861160f565b611baf60808301876113ce565b611bbc60a0830186611b56565b611bc960c0830185611b56565b611bd660e083018461166f565b999850505050505050505056fea264697066735822122046c2119bd2e65333ade59e12968aa64fede087fa356c499ca4f44091ed5880c964736f6c634300080d0033",
					"opcodes": "PUSH1 0x80 PUSH1 0x40 MSTORE CALLER PUSH1 0x1 PUSH1 0x0 PUSH2 0x100 EXP DUP2 SLOAD DUP2 PUSH20 0xFFFFFFFFFFFFFFFFFFFFFFFFFFFFFFFFFFFFFFFF MUL NOT AND SWAP1 DUP4 PUSH20 0xFFFFFFFFFFFFFFFFFFFFFFFFFFFFFFFFFFFFFFFF AND MUL OR SWAP1 SSTORE POP CALLVALUE DUP1 ISZERO PUSH3 0x52 JUMPI PUSH1 0x0 DUP1 REVERT JUMPDEST POP PUSH1 0x40 MLOAD PUSH3 0x1D51 CODESIZE SUB DUP1 PUSH3 0x1D51 DUP4 CODECOPY DUP2 DUP2 ADD PUSH1 0x40 MSTORE DUP2 ADD SWAP1 PUSH3 0x78 SWAP2 SWAP1 PUSH3 0xF6 JUMP JUMPDEST DUP1 PUSH1 0x2 DUP2 SWAP1 SSTORE POP PUSH1 0x0 PUSH1 0x4 DUP2 SWAP1 SSTORE POP PUSH1 0x0 PUSH1 0x5 DUP2 SWAP1 SSTORE POP PUSH1 0x0 PUSH1 0x6 DUP2 SWAP1 SSTORE POP PUSH1 0x0 PUSH1 0x8 DUP2 SWAP1 SSTORE POP PUSH1 0x0 PUSH1 0x9 DUP2 SWAP1 SSTORE POP PUSH1 0x0 PUSH1 0xA DUP2 SWAP1 SSTORE POP POP PUSH3 0x128 JUMP JUMPDEST PUSH1 0x0 DUP1 REVERT JUMPDEST PUSH1 0x0 DUP2 SWAP1 POP SWAP2 SWAP1 POP JUMP JUMPDEST PUSH3 0xD0 DUP2 PUSH3 0xBB JUMP JUMPDEST DUP2 EQ PUSH3 0xDC JUMPI PUSH1 0x0 DUP1 REVERT JUMPDEST POP JUMP JUMPDEST PUSH1 0x0 DUP2 MLOAD SWAP1 POP PUSH3 0xF0 DUP2 PUSH3 0xC5 JUMP JUMPDEST SWAP3 SWAP2 POP POP JUMP JUMPDEST PUSH1 0x0 PUSH1 0x20 DUP3 DUP5 SUB SLT ISZERO PUSH3 0x10F JUMPI PUSH3 0x10E PUSH3 0xB6 JUMP JUMPDEST JUMPDEST PUSH1 0x0 PUSH3 0x11F DUP5 DUP3 DUP6 ADD PUSH3 0xDF JUMP JUMPDEST SWAP2 POP POP SWAP3 SWAP2 POP POP JUMP JUMPDEST PUSH2 0x1C19 DUP1 PUSH3 0x138 PUSH1 0x0 CODECOPY PUSH1 0x0 RETURN INVALID PUSH1 0x80 PUSH1 0x40 MSTORE PUSH1 0x4 CALLDATASIZE LT PUSH2 0x135 JUMPI PUSH1 0x0 CALLDATALOAD PUSH1 0xE0 SHR DUP1 PUSH4 0x7BB51193 GT PUSH2 0xAB JUMPI DUP1 PUSH4 0xB40A5627 GT PUSH2 0x6F JUMPI DUP1 PUSH4 0xB40A5627 EQ PUSH2 0x422 JUMPI DUP1 PUSH4 0xBF77FFAE EQ PUSH2 0x44D JUMPI DUP1 PUSH4 0xCE0CDC87 EQ PUSH2 0x48A JUMPI DUP1 PUSH4 0xD09EF241 EQ PUSH2 0x4B5 JUMPI DUP1 PUSH4 0xDB3A1396 EQ PUSH2 0x4F9 JUMPI DUP1 PUSH4 0xECDFB860 EQ PUSH2 0x536 JUMPI PUSH2 0x135 JUMP JUMPDEST DUP1 PUSH4 0x7BB51193 EQ PUSH2 0x35C JUMPI DUP1 PUSH4 0x801D9BBD EQ PUSH2 0x387 JUMPI DUP1 PUSH4 0x9703EF35 EQ PUSH2 0x3B2 JUMPI DUP1 PUSH4 0x9979EF45 EQ PUSH2 0x3DB JUMPI DUP1 PUSH4 0xA394FDA7 EQ PUSH2 0x3F7 JUMPI PUSH2 0x135 JUMP JUMPDEST DUP1 PUSH4 0x44E791E0 GT PUSH2 0xFD JUMPI DUP1 PUSH4 0x44E791E0 EQ PUSH2 0x233 JUMPI DUP1 PUSH4 0x4D46712D EQ PUSH2 0x25E JUMPI DUP1 PUSH4 0x69F632E2 EQ PUSH2 0x29B JUMPI DUP1 PUSH4 0x6E5B0F00 EQ PUSH2 0x2D8 JUMPI DUP1 PUSH4 0x734A2E78 EQ PUSH2 0x303 JUMPI DUP1 PUSH4 0x78C5B268 EQ PUSH2 0x340 JUMPI PUSH2 0x135 JUMP JUMPDEST DUP1 PUSH4 0x122DE8F2 EQ PUSH2 0x13A JUMPI DUP1 PUSH4 0x1628E0F5 EQ PUSH2 0x165 JUMPI DUP1 PUSH4 0x299E6283 EQ PUSH2 0x18E JUMPI DUP1 PUSH4 0x2DB6DFA7 EQ PUSH2 0x1CB JUMPI DUP1 PUSH4 0x4471417F EQ PUSH2 0x208 JUMPI JUMPDEST PUSH1 0x0 DUP1 REVERT JUMPDEST CALLVALUE DUP1 ISZERO PUSH2 0x146 JUMPI PUSH1 0x0 DUP1 REVERT JUMPDEST POP PUSH2 0x14F PUSH2 0x561 JUMP JUMPDEST PUSH1 0x40 MLOAD PUSH2 0x15C SWAP2 SWAP1 PUSH2 0x121D JUMP JUMPDEST PUSH1 0x40 MLOAD DUP1 SWAP2 SUB SWAP1 RETURN JUMPDEST CALLVALUE DUP1 ISZERO PUSH2 0x171 JUMPI PUSH1 0x0 DUP1 REVERT JUMPDEST POP PUSH2 0x18C PUSH1 0x4 DUP1 CALLDATASIZE SUB DUP2 ADD SWAP1 PUSH2 0x187 SWAP2 SWAP1 PUSH2 0x1270 JUMP JUMPDEST PUSH2 0x566 JUMP JUMPDEST STOP JUMPDEST CALLVALUE DUP1 ISZERO PUSH2 0x19A JUMPI PUSH1 0x0 DUP1 REVERT JUMPDEST POP PUSH2 0x1B5 PUSH1 0x4 DUP1 CALLDATASIZE SUB DUP2 ADD SWAP1 PUSH2 0x1B0 SWAP2 SWAP1 PUSH2 0x12D3 JUMP JUMPDEST PUSH2 0x80C JUMP JUMPDEST PUSH1 0x40 MLOAD PUSH2 0x1C2 SWAP2 SWAP1 PUSH2 0x13AC JUMP JUMPDEST PUSH1 0x40 MLOAD DUP1 SWAP2 SUB SWAP1 RETURN JUMPDEST CALLVALUE DUP1 ISZERO PUSH2 0x1D7 JUMPI PUSH1 0x0 DUP1 REVERT JUMPDEST POP PUSH2 0x1F2 PUSH1 0x4 DUP1 CALLDATASIZE SUB DUP2 ADD SWAP1 PUSH2 0x1ED SWAP2 SWAP1 PUSH2 0x1270 JUMP JUMPDEST PUSH2 0x838 JUMP JUMPDEST PUSH1 0x40 MLOAD PUSH2 0x1FF SWAP2 SWAP1 PUSH2 0x13DD JUMP JUMPDEST PUSH1 0x40 MLOAD DUP1 SWAP2 SUB SWAP1 RETURN JUMPDEST CALLVALUE DUP1 ISZERO PUSH2 0x214 JUMPI PUSH1 0x0 DUP1 REVERT JUMPDEST POP PUSH2 0x21D PUSH2 0x858 JUMP JUMPDEST PUSH1 0x40 MLOAD PUSH2 0x22A SWAP2 SWAP1 PUSH2 0x15ED JUMP JUMPDEST PUSH1 0x40 MLOAD DUP1 SWAP2 SUB SWAP1 RETURN JUMPDEST CALLVALUE DUP1 ISZERO PUSH2 0x23F JUMPI PUSH1 0x0 DUP1 REVERT JUMPDEST POP PUSH2 0x248 PUSH2 0x85D JUMP JUMPDEST PUSH1 0x40 MLOAD PUSH2 0x255 SWAP2 SWAP1 PUSH2 0x13AC JUMP JUMPDEST PUSH1 0x40 MLOAD DUP1 SWAP2 SUB SWAP1 RETURN JUMPDEST CALLVALUE DUP1 ISZERO PUSH2 0x26A JUMPI PUSH1 0x0 DUP1 REVERT JUMPDEST POP PUSH2 0x285 PUSH1 0x4 DUP1 CALLDATASIZE SUB DUP2 ADD SWAP1 PUSH2 0x280 SWAP2 SWAP1 PUSH2 0x1270 JUMP JUMPDEST PUSH2 0x88A JUMP JUMPDEST PUSH1 0x40 MLOAD PUSH2 0x292 SWAP2 SWAP1 PUSH2 0x161E JUMP JUMPDEST PUSH1 0x40 MLOAD DUP1 SWAP2 SUB SWAP1 RETURN JUMPDEST CALLVALUE DUP1 ISZERO PUSH2 0x2A7 JUMPI PUSH1 0x0 DUP1 REVERT JUMPDEST POP PUSH2 0x2C2 PUSH1 0x4 DUP1 CALLDATASIZE SUB DUP2 ADD SWAP1 PUSH2 0x2BD SWAP2 SWAP1 PUSH2 0x1270 JUMP JUMPDEST PUSH2 0x8B7 JUMP JUMPDEST PUSH1 0x40 MLOAD PUSH2 0x2CF SWAP2 SWAP1 PUSH2 0x1648 JUMP JUMPDEST PUSH1 0x40 MLOAD DUP1 SWAP2 SUB SWAP1 RETURN JUMPDEST CALLVALUE DUP1 ISZERO PUSH2 0x2E4 JUMPI PUSH1 0x0 DUP1 REVERT JUMPDEST POP PUSH2 0x2ED PUSH2 0x8F7 JUMP JUMPDEST PUSH1 0x40 MLOAD PUSH2 0x2FA SWAP2 SWAP1 PUSH2 0x13DD JUMP JUMPDEST PUSH1 0x40 MLOAD DUP1 SWAP2 SUB SWAP1 RETURN JUMPDEST CALLVALUE DUP1 ISZERO PUSH2 0x30F JUMPI PUSH1 0x0 DUP1 REVERT JUMPDEST POP PUSH2 0x32A PUSH1 0x4 DUP1 CALLDATASIZE SUB DUP2 ADD SWAP1 PUSH2 0x325 SWAP2 SWAP1 PUSH2 0x1270 JUMP JUMPDEST PUSH2 0x8FD JUMP JUMPDEST PUSH1 0x40 MLOAD PUSH2 0x337 SWAP2 SWAP1 PUSH2 0x1648 JUMP JUMPDEST PUSH1 0x40 MLOAD DUP1 SWAP2 SUB SWAP1 RETURN JUMPDEST PUSH2 0x35A PUSH1 0x4 DUP1 CALLDATASIZE SUB DUP2 ADD SWAP1 PUSH2 0x355 SWAP2 SWAP1 PUSH2 0x1270 JUMP JUMPDEST PUSH2 0x93D JUMP JUMPDEST STOP JUMPDEST CALLVALUE DUP1 ISZERO PUSH2 0x368 JUMPI PUSH1 0x0 DUP1 REVERT JUMPDEST POP PUSH2 0x371 PUSH2 0xA11 JUMP JUMPDEST PUSH1 0x40 MLOAD PUSH2 0x37E SWAP2 SWAP1 PUSH2 0x13DD JUMP JUMPDEST PUSH1 0x40 MLOAD DUP1 SWAP2 SUB SWAP1 RETURN JUMPDEST CALLVALUE DUP1 ISZERO PUSH2 0x393 JUMPI PUSH1 0x0 DUP1 REVERT JUMPDEST POP PUSH2 0x39C PUSH2 0xA17 JUMP JUMPDEST PUSH1 0x40 MLOAD PUSH2 0x3A9 SWAP2 SWAP1 PUSH2 0x13DD JUMP JUMPDEST PUSH1 0x40 MLOAD DUP1 SWAP2 SUB SWAP1 RETURN JUMPDEST CALLVALUE DUP1 ISZERO PUSH2 0x3BE JUMPI PUSH1 0x0 DUP1 REVERT JUMPDEST POP PUSH2 0x3D9 PUSH1 0x4 DUP1 CALLDATASIZE SUB DUP2 ADD SWAP1 PUSH2 0x3D4 SWAP2 SWAP1 PUSH2 0x1270 JUMP JUMPDEST PUSH2 0xA1D JUMP JUMPDEST STOP JUMPDEST PUSH2 0x3F5 PUSH1 0x4 DUP1 CALLDATASIZE SUB DUP2 ADD SWAP1 PUSH2 0x3F0 SWAP2 SWAP1 PUSH2 0x1270 JUMP JUMPDEST PUSH2 0xCC3 JUMP JUMPDEST STOP JUMPDEST CALLVALUE DUP1 ISZERO PUSH2 0x403 JUMPI PUSH1 0x0 DUP1 REVERT JUMPDEST POP PUSH2 0x40C PUSH2 0xD4D JUMP JUMPDEST PUSH1 0x40 MLOAD PUSH2 0x419 SWAP2 SWAP1 PUSH2 0x13DD JUMP JUMPDEST PUSH1 0x40 MLOAD DUP1 SWAP2 SUB SWAP1 RETURN JUMPDEST CALLVALUE DUP1 ISZERO PUSH2 0x42E JUMPI PUSH1 0x0 DUP1 REVERT JUMPDEST POP PUSH2 0x437 PUSH2 0xD53 JUMP JUMPDEST PUSH1 0x40 MLOAD PUSH2 0x444 SWAP2 SWAP1 PUSH2 0x13DD JUMP JUMPDEST PUSH1 0x40 MLOAD DUP1 SWAP2 SUB SWAP1 RETURN JUMPDEST CALLVALUE DUP1 ISZERO PUSH2 0x459 JUMPI PUSH1 0x0 DUP1 REVERT JUMPDEST POP PUSH2 0x474 PUSH1 0x4 DUP1 CALLDATASIZE SUB DUP2 ADD SWAP1 PUSH2 0x46F SWAP2 SWAP1 PUSH2 0x1270 JUMP JUMPDEST PUSH2 0xD59 JUMP JUMPDEST PUSH1 0x40 MLOAD PUSH2 0x481 SWAP2 SWAP1 PUSH2 0x161E JUMP JUMPDEST PUSH1 0x40 MLOAD DUP1 SWAP2 SUB SWAP1 RETURN JUMPDEST CALLVALUE DUP1 ISZERO PUSH2 0x496 JUMPI PUSH1 0x0 DUP1 REVERT JUMPDEST POP PUSH2 0x49F PUSH2 0xD86 JUMP JUMPDEST PUSH1 0x40 MLOAD PUSH2 0x4AC SWAP2 SWAP1 PUSH2 0x121D JUMP JUMPDEST PUSH1 0x40 MLOAD DUP1 SWAP2 SUB SWAP1 RETURN JUMPDEST CALLVALUE DUP1 ISZERO PUSH2 0x4C1 JUMPI PUSH1 0x0 DUP1 REVERT JUMPDEST POP PUSH2 0x4DC PUSH1 0x4 DUP1 CALLDATASIZE SUB DUP2 ADD SWAP1 PUSH2 0x4D7 SWAP2 SWAP1 PUSH2 0x1270 JUMP JUMPDEST PUSH2 0xD8B JUMP JUMPDEST PUSH1 0x40 MLOAD PUSH2 0x4F0 SWAP9 SWAP8 SWAP7 SWAP6 SWAP5 SWAP4 SWAP3 SWAP2 SWAP1 PUSH2 0x167E JUMP JUMPDEST PUSH1 0x40 MLOAD DUP1 SWAP2 SUB SWAP1 RETURN JUMPDEST CALLVALUE DUP1 ISZERO PUSH2 0x505 JUMPI PUSH1 0x0 DUP1 REVERT JUMPDEST POP PUSH2 0x520 PUSH1 0x4 DUP1 CALLDATASIZE SUB DUP2 ADD SWAP1 PUSH2 0x51B SWAP2 SWAP1 PUSH2 0x1270 JUMP JUMPDEST PUSH2 0xDA2 JUMP JUMPDEST PUSH1 0x40 MLOAD PUSH2 0x52D SWAP2 SWAP1 PUSH2 0x13DD JUMP JUMPDEST PUSH1 0x40 MLOAD DUP1 SWAP2 SUB SWAP1 RETURN JUMPDEST CALLVALUE DUP1 ISZERO PUSH2 0x542 JUMPI PUSH1 0x0 DUP1 REVERT JUMPDEST POP PUSH2 0x54B PUSH2 0xDC2 JUMP JUMPDEST PUSH1 0x40 MLOAD PUSH2 0x558 SWAP2 SWAP1 PUSH2 0x13DD JUMP JUMPDEST PUSH1 0x40 MLOAD DUP1 SWAP2 SUB SWAP1 RETURN JUMPDEST PUSH1 0x60 SWAP1 JUMP JUMPDEST PUSH1 0x7 PUSH1 0x0 DUP3 DUP2 MSTORE PUSH1 0x20 ADD SWAP1 DUP2 MSTORE PUSH1 0x20 ADD PUSH1 0x0 KECCAK256 PUSH1 0x40 MLOAD DUP1 PUSH1 0xE0 ADD PUSH1 0x40 MSTORE SWAP1 DUP2 PUSH1 0x0 DUP3 ADD PUSH1 0x0 SWAP1 SLOAD SWAP1 PUSH2 0x100 EXP SWAP1 DIV PUSH20 0xFFFFFFFFFFFFFFFFFFFFFFFFFFFFFFFFFFFFFFFF AND PUSH20 0xFFFFFFFFFFFFFFFFFFFFFFFFFFFFFFFFFFFFFFFF AND PUSH20 0xFFFFFFFFFFFFFFFFFFFFFFFFFFFFFFFFFFFFFFFF AND DUP2 MSTORE PUSH1 0x20 ADD PUSH1 0x1 DUP3 ADD SLOAD DUP2 MSTORE PUSH1 0x20 ADD PUSH1 0x2 DUP3 ADD SLOAD DUP2 MSTORE PUSH1 0x20 ADD PUSH1 0x3 DUP3 ADD PUSH1 0x0 SWAP1 SLOAD SWAP1 PUSH2 0x100 EXP SWAP1 DIV PUSH1 0xFF AND PUSH1 0x1 DUP2 GT ISZERO PUSH2 0x613 JUMPI PUSH2 0x612 PUSH2 0x1465 JUMP JUMPDEST JUMPDEST PUSH1 0x1 DUP2 GT ISZERO PUSH2 0x625 JUMPI PUSH2 0x624 PUSH2 0x1465 JUMP JUMPDEST JUMPDEST DUP2 MSTORE PUSH1 0x20 ADD PUSH1 0x4 DUP3 ADD SLOAD DUP2 MSTORE PUSH1 0x20 ADD PUSH1 0x5 DUP3 ADD SLOAD DUP2 MSTORE PUSH1 0x20 ADD PUSH1 0x6 DUP3 ADD SLOAD DUP2 MSTORE POP POP PUSH1 0x0 PUSH1 0x1 DUP2 GT ISZERO PUSH2 0x65B JUMPI PUSH2 0x65A PUSH2 0x1465 JUMP JUMPDEST JUMPDEST DUP2 PUSH1 0x60 ADD MLOAD PUSH1 0x1 DUP2 GT ISZERO PUSH2 0x672 JUMPI PUSH2 0x671 PUSH2 0x1465 JUMP JUMPDEST JUMPDEST EQ PUSH2 0x6B2 JUMPI PUSH1 0x40 MLOAD PUSH32 0x8C379A000000000000000000000000000000000000000000000000000000000 DUP2 MSTORE PUSH1 0x4 ADD PUSH2 0x6A9 SWAP1 PUSH2 0x1748 JUMP JUMPDEST PUSH1 0x40 MLOAD DUP1 SWAP2 SUB SWAP1 REVERT JUMPDEST PUSH1 0x7 PUSH1 0x0 DUP4 DUP2 MSTORE PUSH1 0x20 ADD SWAP1 DUP2 MSTORE PUSH1 0x20 ADD PUSH1 0x0 KECCAK256 PUSH1 0x40 MLOAD DUP1 PUSH1 0xE0 ADD PUSH1 0x40 MSTORE SWAP1 DUP2 PUSH1 0x0 DUP3 ADD PUSH1 0x0 SWAP1 SLOAD SWAP1 PUSH2 0x100 EXP SWAP1 DIV PUSH20 0xFFFFFFFFFFFFFFFFFFFFFFFFFFFFFFFFFFFFFFFF AND PUSH20 0xFFFFFFFFFFFFFFFFFFFFFFFFFFFFFFFFFFFFFFFF AND PUSH20 0xFFFFFFFFFFFFFFFFFFFFFFFFFFFFFFFFFFFFFFFF AND DUP2 MSTORE PUSH1 0x20 ADD PUSH1 0x1 DUP3 ADD SLOAD DUP2 MSTORE PUSH1 0x20 ADD PUSH1 0x2 DUP3 ADD SLOAD DUP2 MSTORE PUSH1 0x20 ADD PUSH1 0x3 DUP3 ADD PUSH1 0x0 SWAP1 SLOAD SWAP1 PUSH2 0x100 EXP SWAP1 DIV PUSH1 0xFF AND PUSH1 0x1 DUP2 GT ISZERO PUSH2 0x75F JUMPI PUSH2 0x75E PUSH2 0x1465 JUMP JUMPDEST JUMPDEST PUSH1 0x1 DUP2 GT ISZERO PUSH2 0x771 JUMPI PUSH2 0x770 PUSH2 0x1465 JUMP JUMPDEST JUMPDEST DUP2 MSTORE PUSH1 0x20 ADD PUSH1 0x4 DUP3 ADD SLOAD DUP2 MSTORE PUSH1 0x20 ADD PUSH1 0x5 DUP3 ADD SLOAD DUP2 MSTORE PUSH1 0x20 ADD PUSH1 0x6 DUP3 ADD SLOAD DUP2 MSTORE POP POP CALLER DUP1 PUSH20 0xFFFFFFFFFFFFFFFFFFFFFFFFFFFFFFFFFFFFFFFF AND DUP3 PUSH1 0x0 ADD MLOAD PUSH20 0xFFFFFFFFFFFFFFFFFFFFFFFFFFFFFFFFFFFFFFFF AND EQ PUSH2 0x806 JUMPI PUSH1 0x40 MLOAD PUSH32 0x8C379A000000000000000000000000000000000000000000000000000000000 DUP2 MSTORE PUSH1 0x4 ADD PUSH2 0x7FD SWAP1 PUSH2 0x17B4 JUMP JUMPDEST PUSH1 0x40 MLOAD DUP1 SWAP2 SUB SWAP1 REVERT JUMPDEST POP POP POP POP JUMP JUMPDEST PUSH1 0x60 DUP3 DUP3 PUSH1 0x40 MLOAD PUSH1 0x20 ADD PUSH2 0x821 SWAP3 SWAP2 SWAP1 PUSH2 0x181B JUMP JUMPDEST PUSH1 0x40 MLOAD PUSH1 0x20 DUP2 DUP4 SUB SUB DUP2 MSTORE SWAP1 PUSH1 0x40 MSTORE SWAP1 POP SWAP3 SWAP2 POP POP JUMP JUMPDEST PUSH1 0x0 PUSH1 0x3 PUSH1 0x0 DUP4 DUP2 MSTORE PUSH1 0x20 ADD SWAP1 DUP2 MSTORE PUSH1 0x20 ADD PUSH1 0x0 KECCAK256 PUSH1 0x1 ADD SLOAD SWAP1 POP SWAP2 SWAP1 POP JUMP JUMPDEST PUSH1 0x60 SWAP1 JUMP JUMPDEST PUSH1 0x60 PUSH1 0x0 PUSH1 0x8 SLOAD SWAP1 POP PUSH1 0x0 PUSH1 0x40 MLOAD DUP1 PUSH1 0x20 ADD PUSH1 0x40 MSTORE DUP1 PUSH1 0x0 DUP2 MSTORE POP SWAP1 POP JUMPDEST PUSH1 0x0 PUSH1 0x8 SLOAD SUB PUSH2 0x87B JUMPI POP POP SWAP1 JUMP JUMPDEST PUSH1 0x0 PUSH1 0x7 PUSH1 0x0 DUP4 DUP2 MSTORE PUSH1 0x20 ADD SWAP1 DUP2 MSTORE PUSH1 0x20 ADD PUSH1 0x0 KECCAK256 PUSH1 0x3 ADD PUSH1 0x0 SWAP1 SLOAD SWAP1 PUSH2 0x100 EXP SWAP1 DIV PUSH1 0xFF AND SWAP1 POP SWAP2 SWAP1 POP JUMP JUMPDEST PUSH1 0x0 PUSH1 0x3 PUSH1 0x0 DUP4 DUP2 MSTORE PUSH1 0x20 ADD SWAP1 DUP2 MSTORE PUSH1 0x20 ADD PUSH1 0x0 KECCAK256 PUSH1 0x0 ADD PUSH1 0x0 SWAP1 SLOAD SWAP1 PUSH2 0x100 EXP SWAP1 DIV PUSH20 0xFFFFFFFFFFFFFFFFFFFFFFFFFFFFFFFFFFFFFFFF AND SWAP1 POP SWAP2 SWAP1 POP JUMP JUMPDEST PUSH1 0x4 SLOAD DUP2 JUMP JUMPDEST PUSH1 0x0 PUSH1 0x7 PUSH1 0x0 DUP4 DUP2 MSTORE PUSH1 0x20 ADD SWAP1 DUP2 MSTORE PUSH1 0x20 ADD PUSH1 0x0 KECCAK256 PUSH1 0x0 ADD PUSH1 0x0 SWAP1 SLOAD SWAP1 PUSH2 0x100 EXP SWAP1 DIV PUSH20 0xFFFFFFFFFFFFFFFFFFFFFFFFFFFFFFFFFFFFFFFF AND SWAP1 POP SWAP2 SWAP1 POP JUMP JUMPDEST PUSH1 0x0 DUP2 LT ISZERO PUSH2 0x981 JUMPI PUSH1 0x40 MLOAD PUSH32 0x8C379A000000000000000000000000000000000000000000000000000000000 DUP2 MSTORE PUSH1 0x4 ADD PUSH2 0x978 SWAP1 PUSH2 0x18A2 JUMP JUMPDEST PUSH1 0x40 MLOAD DUP1 SWAP2 SUB SWAP1 REVERT JUMPDEST DUP1 CALLVALUE LT ISZERO PUSH2 0x9C4 JUMPI PUSH1 0x40 MLOAD PUSH32 0x8C379A000000000000000000000000000000000000000000000000000000000 DUP2 MSTORE PUSH1 0x4 ADD PUSH2 0x9BB SWAP1 PUSH2 0x190E JUMP JUMPDEST PUSH1 0x40 MLOAD DUP1 SWAP2 SUB SWAP1 REVERT JUMPDEST PUSH1 0x0 TIMESTAMP SWAP1 POP PUSH1 0x0 PUSH1 0x64 PUSH1 0x2 SLOAD PUSH1 0x64 PUSH2 0x9DC SWAP2 SWAP1 PUSH2 0x195D JUMP JUMPDEST CALLVALUE PUSH2 0x9E7 SWAP2 SWAP1 PUSH2 0x1991 JUMP JUMPDEST PUSH2 0x9F1 SWAP2 SWAP1 PUSH2 0x1A1A JUMP JUMPDEST SWAP1 POP PUSH1 0x0 PUSH2 0xA00 CALLER DUP5 DUP5 PUSH2 0xDC8 JUMP JUMPDEST SWAP1 POP PUSH2 0xA0B DUP2 PUSH2 0xF63 JUMP JUMPDEST POP POP POP POP JUMP JUMPDEST PUSH1 0x5 SLOAD DUP2 JUMP JUMPDEST PUSH1 0x8 SLOAD DUP2 JUMP JUMPDEST PUSH1 0x3 PUSH1 0x0 DUP3 DUP2 MSTORE PUSH1 0x20 ADD SWAP1 DUP2 MSTORE PUSH1 0x20 ADD PUSH1 0x0 KECCAK256 PUSH1 0x40 MLOAD DUP1 PUSH1 0xE0 ADD PUSH1 0x40 MSTORE SWAP1 DUP2 PUSH1 0x0 DUP3 ADD PUSH1 0x0 SWAP1 SLOAD SWAP1 PUSH2 0x100 EXP SWAP1 DIV PUSH20 0xFFFFFFFFFFFFFFFFFFFFFFFFFFFFFFFFFFFFFFFF AND PUSH20 0xFFFFFFFFFFFFFFFFFFFFFFFFFFFFFFFFFFFFFFFF AND PUSH20 0xFFFFFFFFFFFFFFFFFFFFFFFFFFFFFFFFFFFFFFFF AND DUP2 MSTORE PUSH1 0x20 ADD PUSH1 0x1 DUP3 ADD SLOAD DUP2 MSTORE PUSH1 0x20 ADD PUSH1 0x2 DUP3 ADD SLOAD DUP2 MSTORE PUSH1 0x20 ADD PUSH1 0x3 DUP3 ADD PUSH1 0x0 SWAP1 SLOAD SWAP1 PUSH2 0x100 EXP SWAP1 DIV PUSH1 0xFF AND PUSH1 0x1 DUP2 GT ISZERO PUSH2 0xACA JUMPI PUSH2 0xAC9 PUSH2 0x1465 JUMP JUMPDEST JUMPDEST PUSH1 0x1 DUP2 GT ISZERO PUSH2 0xADC JUMPI PUSH2 0xADB PUSH2 0x1465 JUMP JUMPDEST JUMPDEST DUP2 MSTORE PUSH1 0x20 ADD PUSH1 0x4 DUP3 ADD SLOAD DUP2 MSTORE PUSH1 0x20 ADD PUSH1 0x5 DUP3 ADD SLOAD DUP2 MSTORE PUSH1 0x20 ADD PUSH1 0x6 DUP3 ADD SLOAD DUP2 MSTORE POP POP PUSH1 0x0 PUSH1 0x1 DUP2 GT ISZERO PUSH2 0xB12 JUMPI PUSH2 0xB11 PUSH2 0x1465 JUMP JUMPDEST JUMPDEST DUP2 PUSH1 0x60 ADD MLOAD PUSH1 0x1 DUP2 GT ISZERO PUSH2 0xB29 JUMPI PUSH2 0xB28 PUSH2 0x1465 JUMP JUMPDEST JUMPDEST EQ PUSH2 0xB69 JUMPI PUSH1 0x40 MLOAD PUSH32 0x8C379A000000000000000000000000000000000000000000000000000000000 DUP2 MSTORE PUSH1 0x4 ADD PUSH2 0xB60 SWAP1 PUSH2 0x1748 JUMP JUMPDEST PUSH1 0x40 MLOAD DUP1 SWAP2 SUB SWAP1 REVERT JUMPDEST PUSH1 0x3 PUSH1 0x0 DUP4 DUP2 MSTORE PUSH1 0x20 ADD SWAP1 DUP2 MSTORE PUSH1 0x20 ADD PUSH1 0x0 KECCAK256 PUSH1 0x40 MLOAD DUP1 PUSH1 0xE0 ADD PUSH1 0x40 MSTORE SWAP1 DUP2 PUSH1 0x0 DUP3 ADD PUSH1 0x0 SWAP1 SLOAD SWAP1 PUSH2 0x100 EXP SWAP1 DIV PUSH20 0xFFFFFFFFFFFFFFFFFFFFFFFFFFFFFFFFFFFFFFFF AND PUSH20 0xFFFFFFFFFFFFFFFFFFFFFFFFFFFFFFFFFFFFFFFF AND PUSH20 0xFFFFFFFFFFFFFFFFFFFFFFFFFFFFFFFFFFFFFFFF AND DUP2 MSTORE PUSH1 0x20 ADD PUSH1 0x1 DUP3 ADD SLOAD DUP2 MSTORE PUSH1 0x20 ADD PUSH1 0x2 DUP3 ADD SLOAD DUP2 MSTORE PUSH1 0x20 ADD PUSH1 0x3 DUP3 ADD PUSH1 0x0 SWAP1 SLOAD SWAP1 PUSH2 0x100 EXP SWAP1 DIV PUSH1 0xFF AND PUSH1 0x1 DUP2 GT ISZERO PUSH2 0xC16 JUMPI PUSH2 0xC15 PUSH2 0x1465 JUMP JUMPDEST JUMPDEST PUSH1 0x1 DUP2 GT ISZERO PUSH2 0xC28 JUMPI PUSH2 0xC27 PUSH2 0x1465 JUMP JUMPDEST JUMPDEST DUP2 MSTORE PUSH1 0x20 ADD PUSH1 0x4 DUP3 ADD SLOAD DUP2 MSTORE PUSH1 0x20 ADD PUSH1 0x5 DUP3 ADD SLOAD DUP2 MSTORE PUSH1 0x20 ADD PUSH1 0x6 DUP3 ADD SLOAD DUP2 MSTORE POP POP CALLER DUP1 PUSH20 0xFFFFFFFFFFFFFFFFFFFFFFFFFFFFFFFFFFFFFFFF AND DUP3 PUSH1 0x0 ADD MLOAD PUSH20 0xFFFFFFFFFFFFFFFFFFFFFFFFFFFFFFFFFFFFFFFF AND EQ PUSH2 0xCBD JUMPI PUSH1 0x40 MLOAD PUSH32 0x8C379A000000000000000000000000000000000000000000000000000000000 DUP2 MSTORE PUSH1 0x4 ADD PUSH2 0xCB4 SWAP1 PUSH2 0x17B4 JUMP JUMPDEST PUSH1 0x40 MLOAD DUP1 SWAP2 SUB SWAP1 REVERT JUMPDEST POP POP POP POP JUMP JUMPDEST PUSH1 0x0 DUP2 LT ISZERO PUSH2 0xD07 JUMPI PUSH1 0x40 MLOAD PUSH32 0x8C379A000000000000000000000000000000000000000000000000000000000 DUP2 MSTORE PUSH1 0x4 ADD PUSH2 0xCFE SWAP1 PUSH2 0x18A2 JUMP JUMPDEST PUSH1 0x40 MLOAD DUP1 SWAP2 SUB SWAP1 REVERT JUMPDEST DUP1 CALLVALUE LT ISZERO PUSH2 0xD4A JUMPI PUSH1 0x40 MLOAD PUSH32 0x8C379A000000000000000000000000000000000000000000000000000000000 DUP2 MSTORE PUSH1 0x4 ADD PUSH2 0xD41 SWAP1 PUSH2 0x1A97 JUMP JUMPDEST PUSH1 0x40 MLOAD DUP1 SWAP2 SUB SWAP1 REVERT JUMPDEST POP JUMP JUMPDEST PUSH1 0xA SLOAD DUP2 JUMP JUMPDEST PUSH1 0x6 SLOAD DUP2 JUMP JUMPDEST PUSH1 0x0 PUSH1 0x3 PUSH1 0x0 DUP4 DUP2 MSTORE PUSH1 0x20 ADD SWAP1 DUP2 MSTORE PUSH1 0x20 ADD PUSH1 0x0 KECCAK256 PUSH1 0x3 ADD PUSH1 0x0 SWAP1 SLOAD SWAP1 PUSH2 0x100 EXP SWAP1 DIV PUSH1 0xFF AND SWAP1 POP SWAP2 SWAP1 POP JUMP JUMPDEST PUSH1 0x60 SWAP1 JUMP JUMPDEST PUSH1 0x0 DUP1 PUSH1 0x0 DUP1 PUSH1 0x0 DUP1 PUSH1 0x0 DUP1 SWAP2 SWAP4 SWAP6 SWAP8 POP SWAP2 SWAP4 SWAP6 SWAP8 JUMP JUMPDEST PUSH1 0x0 PUSH1 0x7 PUSH1 0x0 DUP4 DUP2 MSTORE PUSH1 0x20 ADD SWAP1 DUP2 MSTORE PUSH1 0x20 ADD PUSH1 0x0 KECCAK256 PUSH1 0x1 ADD SLOAD SWAP1 POP SWAP2 SWAP1 POP JUMP JUMPDEST PUSH1 0x9 SLOAD DUP2 JUMP JUMPDEST PUSH2 0xDD0 PUSH2 0x10F0 JUMP JUMPDEST PUSH1 0xA PUSH1 0x0 DUP2 SLOAD DUP1 SWAP3 SWAP2 SWAP1 PUSH2 0xDE3 SWAP1 PUSH2 0x1AB7 JUMP JUMPDEST SWAP2 SWAP1 POP SSTORE POP PUSH1 0x0 PUSH1 0x40 MLOAD DUP1 PUSH1 0xE0 ADD PUSH1 0x40 MSTORE DUP1 DUP7 PUSH20 0xFFFFFFFFFFFFFFFFFFFFFFFFFFFFFFFFFFFFFFFF AND DUP2 MSTORE PUSH1 0x20 ADD DUP6 DUP2 MSTORE PUSH1 0x20 ADD DUP5 DUP2 MSTORE PUSH1 0x20 ADD PUSH1 0x0 PUSH1 0x1 DUP2 GT ISZERO PUSH2 0xE31 JUMPI PUSH2 0xE30 PUSH2 0x1465 JUMP JUMPDEST JUMPDEST DUP2 MSTORE PUSH1 0x20 ADD PUSH1 0xA SLOAD DUP2 MSTORE PUSH1 0x20 ADD PUSH1 0x0 DUP2 MSTORE PUSH1 0x20 ADD PUSH1 0x0 DUP2 MSTORE POP SWAP1 POP DUP1 PUSH1 0x7 PUSH1 0x0 PUSH1 0xA SLOAD DUP2 MSTORE PUSH1 0x20 ADD SWAP1 DUP2 MSTORE PUSH1 0x20 ADD PUSH1 0x0 KECCAK256 PUSH1 0x0 DUP3 ADD MLOAD DUP2 PUSH1 0x0 ADD PUSH1 0x0 PUSH2 0x100 EXP DUP2 SLOAD DUP2 PUSH20 0xFFFFFFFFFFFFFFFFFFFFFFFFFFFFFFFFFFFFFFFF MUL NOT AND SWAP1 DUP4 PUSH20 0xFFFFFFFFFFFFFFFFFFFFFFFFFFFFFFFFFFFFFFFF AND MUL OR SWAP1 SSTORE POP PUSH1 0x20 DUP3 ADD MLOAD DUP2 PUSH1 0x1 ADD SSTORE PUSH1 0x40 DUP3 ADD MLOAD DUP2 PUSH1 0x2 ADD SSTORE PUSH1 0x60 DUP3 ADD MLOAD DUP2 PUSH1 0x3 ADD PUSH1 0x0 PUSH2 0x100 EXP DUP2 SLOAD DUP2 PUSH1 0xFF MUL NOT AND SWAP1 DUP4 PUSH1 0x1 DUP2 GT ISZERO PUSH2 0xEE8 JUMPI PUSH2 0xEE7 PUSH2 0x1465 JUMP JUMPDEST JUMPDEST MUL OR SWAP1 SSTORE POP PUSH1 0x80 DUP3 ADD MLOAD DUP2 PUSH1 0x4 ADD SSTORE PUSH1 0xA0 DUP3 ADD MLOAD DUP2 PUSH1 0x5 ADD SSTORE PUSH1 0xC0 DUP3 ADD MLOAD DUP2 PUSH1 0x6 ADD SSTORE SWAP1 POP POP PUSH32 0x93CAF6BA1AF44020DFE6076E279533E38BD8DEEFE534C43AA8CC93AAD2025B7D DUP6 DUP6 DUP6 PUSH1 0x0 PUSH1 0xA SLOAD PUSH1 0x0 DUP1 PUSH1 0x0 PUSH1 0x40 MLOAD PUSH2 0xF50 SWAP9 SWAP8 SWAP7 SWAP6 SWAP5 SWAP4 SWAP3 SWAP2 SWAP1 PUSH2 0x1B65 JUMP JUMPDEST PUSH1 0x40 MLOAD DUP1 SWAP2 SUB SWAP1 LOG1 DUP1 SWAP2 POP POP SWAP4 SWAP3 POP POP POP JUMP JUMPDEST PUSH1 0x0 DUP1 PUSH1 0x8 SLOAD SUB PUSH2 0xF7E JUMPI DUP2 PUSH1 0x80 ADD MLOAD PUSH1 0x8 DUP2 SWAP1 SSTORE POP PUSH2 0x10EC JUMP JUMPDEST DUP2 PUSH1 0x20 ADD MLOAD PUSH1 0x7 PUSH1 0x0 PUSH1 0x8 SLOAD DUP2 MSTORE PUSH1 0x20 ADD SWAP1 DUP2 MSTORE PUSH1 0x20 ADD PUSH1 0x0 KECCAK256 PUSH1 0x1 ADD SLOAD LT PUSH2 0xFE0 JUMPI PUSH1 0x8 SLOAD DUP3 PUSH1 0xA0 ADD DUP2 DUP2 MSTORE POP POP DUP2 PUSH1 0x80 ADD MLOAD PUSH1 0x7 PUSH1 0x0 DUP5 PUSH1 0xA0 ADD MLOAD DUP2 MSTORE PUSH1 0x20 ADD SWAP1 DUP2 MSTORE PUSH1 0x20 ADD PUSH1 0x0 KECCAK256 PUSH1 0x6 ADD DUP2 SWAP1 SSTORE POP DUP2 PUSH1 0x80 ADD MLOAD PUSH1 0x8 DUP2 SWAP1 SSTORE POP PUSH2 0x10EB JUMP JUMPDEST PUSH1 0x8 SLOAD SWAP1 POP JUMPDEST PUSH1 0x0 PUSH1 0x7 PUSH1 0x0 DUP4 DUP2 MSTORE PUSH1 0x20 ADD SWAP1 DUP2 MSTORE PUSH1 0x20 ADD PUSH1 0x0 KECCAK256 PUSH1 0x5 ADD SLOAD EQ ISZERO DUP1 ISZERO PUSH2 0x103C JUMPI POP DUP2 PUSH1 0x20 ADD MLOAD PUSH1 0x7 PUSH1 0x0 PUSH1 0x7 PUSH1 0x0 DUP6 DUP2 MSTORE PUSH1 0x20 ADD SWAP1 DUP2 MSTORE PUSH1 0x20 ADD PUSH1 0x0 KECCAK256 PUSH1 0x5 ADD SLOAD DUP2 MSTORE PUSH1 0x20 ADD SWAP1 DUP2 MSTORE PUSH1 0x20 ADD PUSH1 0x0 KECCAK256 PUSH1 0x1 ADD SLOAD LT JUMPDEST ISZERO PUSH2 0x105F JUMPI PUSH1 0x7 PUSH1 0x0 DUP3 DUP2 MSTORE PUSH1 0x20 ADD SWAP1 DUP2 MSTORE PUSH1 0x20 ADD PUSH1 0x0 KECCAK256 PUSH1 0x5 ADD SLOAD SWAP1 POP PUSH2 0xFE6 JUMP JUMPDEST PUSH1 0x7 PUSH1 0x0 DUP3 DUP2 MSTORE PUSH1 0x20 ADD SWAP1 DUP2 MSTORE PUSH1 0x20 ADD PUSH1 0x0 KECCAK256 PUSH1 0x5 ADD SLOAD DUP3 PUSH1 0xA0 ADD DUP2 DUP2 MSTORE POP POP PUSH1 0x0 PUSH1 0x7 PUSH1 0x0 DUP4 DUP2 MSTORE PUSH1 0x20 ADD SWAP1 DUP2 MSTORE PUSH1 0x20 ADD PUSH1 0x0 KECCAK256 PUSH1 0x5 ADD SLOAD EQ PUSH2 0x10C1 JUMPI DUP2 PUSH1 0x80 ADD MLOAD PUSH1 0x7 PUSH1 0x0 DUP5 PUSH1 0xA0 ADD MLOAD DUP2 MSTORE PUSH1 0x20 ADD SWAP1 DUP2 MSTORE PUSH1 0x20 ADD PUSH1 0x0 KECCAK256 PUSH1 0x6 ADD DUP2 SWAP1 SSTORE POP JUMPDEST DUP2 PUSH1 0x80 ADD MLOAD PUSH1 0x7 PUSH1 0x0 DUP4 DUP2 MSTORE PUSH1 0x20 ADD SWAP1 DUP2 MSTORE PUSH1 0x20 ADD PUSH1 0x0 KECCAK256 PUSH1 0x5 ADD DUP2 SWAP1 SSTORE POP DUP1 DUP3 PUSH1 0xC0 ADD DUP2 DUP2 MSTORE POP POP JUMPDEST JUMPDEST POP POP JUMP JUMPDEST PUSH1 0x40 MLOAD DUP1 PUSH1 0xE0 ADD PUSH1 0x40 MSTORE DUP1 PUSH1 0x0 PUSH20 0xFFFFFFFFFFFFFFFFFFFFFFFFFFFFFFFFFFFFFFFF AND DUP2 MSTORE PUSH1 0x20 ADD PUSH1 0x0 DUP2 MSTORE PUSH1 0x20 ADD PUSH1 0x0 DUP2 MSTORE PUSH1 0x20 ADD PUSH1 0x0 PUSH1 0x1 DUP2 GT ISZERO PUSH2 0x113A JUMPI PUSH2 0x1139 PUSH2 0x1465 JUMP JUMPDEST JUMPDEST DUP2 MSTORE PUSH1 0x20 ADD PUSH1 0x0 DUP2 MSTORE PUSH1 0x20 ADD PUSH1 0x0 DUP2 MSTORE PUSH1 0x20 ADD PUSH1 0x0 DUP2 MSTORE POP SWAP1 JUMP JUMPDEST PUSH1 0x0 DUP2 MLOAD SWAP1 POP SWAP2 SWAP1 POP JUMP JUMPDEST PUSH1 0x0 DUP3 DUP3 MSTORE PUSH1 0x20 DUP3 ADD SWAP1 POP SWAP3 SWAP2 POP POP JUMP JUMPDEST PUSH1 0x0 DUP2 SWAP1 POP PUSH1 0x20 DUP3 ADD SWAP1 POP SWAP2 SWAP1 POP JUMP JUMPDEST PUSH1 0x0 DUP2 SWAP1 POP SWAP2 SWAP1 POP JUMP JUMPDEST PUSH2 0x1194 DUP2 PUSH2 0x1181 JUMP JUMPDEST DUP3 MSTORE POP POP JUMP JUMPDEST PUSH1 0x0 PUSH2 0x11A6 DUP4 DUP4 PUSH2 0x118B JUMP JUMPDEST PUSH1 0x20 DUP4 ADD SWAP1 POP SWAP3 SWAP2 POP POP JUMP JUMPDEST PUSH1 0x0 PUSH1 0x20 DUP3 ADD SWAP1 POP SWAP2 SWAP1 POP JUMP JUMPDEST PUSH1 0x0 PUSH2 0x11CA DUP3 PUSH2 0x1155 JUMP JUMPDEST PUSH2 0x11D4 DUP2 DUP6 PUSH2 0x1160 JUMP JUMPDEST SWAP4 POP PUSH2 0x11DF DUP4 PUSH2 0x1171 JUMP JUMPDEST DUP1 PUSH1 0x0 JUMPDEST DUP4 DUP2 LT ISZERO PUSH2 0x1210 JUMPI DUP2 MLOAD PUSH2 0x11F7 DUP9 DUP3 PUSH2 0x119A JUMP JUMPDEST SWAP8 POP PUSH2 0x1202 DUP4 PUSH2 0x11B2 JUMP JUMPDEST SWAP3 POP POP PUSH1 0x1 DUP2 ADD SWAP1 POP PUSH2 0x11E3 JUMP JUMPDEST POP DUP6 SWAP4 POP POP POP POP SWAP3 SWAP2 POP POP JUMP JUMPDEST PUSH1 0x0 PUSH1 0x20 DUP3 ADD SWAP1 POP DUP2 DUP2 SUB PUSH1 0x0 DUP4 ADD MSTORE PUSH2 0x1237 DUP2 DUP5 PUSH2 0x11BF JUMP JUMPDEST SWAP1 POP SWAP3 SWAP2 POP POP JUMP JUMPDEST PUSH1 0x0 DUP1 REVERT JUMPDEST PUSH2 0x124D DUP2 PUSH2 0x1181 JUMP JUMPDEST DUP2 EQ PUSH2 0x1258 JUMPI PUSH1 0x0 DUP1 REVERT JUMPDEST POP JUMP JUMPDEST PUSH1 0x0 DUP2 CALLDATALOAD SWAP1 POP PUSH2 0x126A DUP2 PUSH2 0x1244 JUMP JUMPDEST SWAP3 SWAP2 POP POP JUMP JUMPDEST PUSH1 0x0 PUSH1 0x20 DUP3 DUP5 SUB SLT ISZERO PUSH2 0x1286 JUMPI PUSH2 0x1285 PUSH2 0x123F JUMP JUMPDEST JUMPDEST PUSH1 0x0 PUSH2 0x1294 DUP5 DUP3 DUP6 ADD PUSH2 0x125B JUMP JUMPDEST SWAP2 POP POP SWAP3 SWAP2 POP POP JUMP JUMPDEST PUSH1 0x0 DUP2 SWAP1 POP SWAP2 SWAP1 POP JUMP JUMPDEST PUSH2 0x12B0 DUP2 PUSH2 0x129D JUMP JUMPDEST DUP2 EQ PUSH2 0x12BB JUMPI PUSH1 0x0 DUP1 REVERT JUMPDEST POP JUMP JUMPDEST PUSH1 0x0 DUP2 CALLDATALOAD SWAP1 POP PUSH2 0x12CD DUP2 PUSH2 0x12A7 JUMP JUMPDEST SWAP3 SWAP2 POP POP JUMP JUMPDEST PUSH1 0x0 DUP1 PUSH1 0x40 DUP4 DUP6 SUB SLT ISZERO PUSH2 0x12EA JUMPI PUSH2 0x12E9 PUSH2 0x123F JUMP JUMPDEST JUMPDEST PUSH1 0x0 PUSH2 0x12F8 DUP6 DUP3 DUP7 ADD PUSH2 0x12BE JUMP JUMPDEST SWAP3 POP POP PUSH1 0x20 PUSH2 0x1309 DUP6 DUP3 DUP7 ADD PUSH2 0x12BE JUMP JUMPDEST SWAP2 POP POP SWAP3 POP SWAP3 SWAP1 POP JUMP JUMPDEST PUSH1 0x0 DUP2 MLOAD SWAP1 POP SWAP2 SWAP1 POP JUMP JUMPDEST PUSH1 0x0 DUP3 DUP3 MSTORE PUSH1 0x20 DUP3 ADD SWAP1 POP SWAP3 SWAP2 POP POP JUMP JUMPDEST PUSH1 0x0 JUMPDEST DUP4 DUP2 LT ISZERO PUSH2 0x134D JUMPI DUP1 DUP3 ADD MLOAD DUP2 DUP5 ADD MSTORE PUSH1 0x20 DUP2 ADD SWAP1 POP PUSH2 0x1332 JUMP JUMPDEST DUP4 DUP2 GT ISZERO PUSH2 0x135C JUMPI PUSH1 0x0 DUP5 DUP5 ADD MSTORE JUMPDEST POP POP POP POP JUMP JUMPDEST PUSH1 0x0 PUSH1 0x1F NOT PUSH1 0x1F DUP4 ADD AND SWAP1 POP SWAP2 SWAP1 POP JUMP JUMPDEST PUSH1 0x0 PUSH2 0x137E DUP3 PUSH2 0x1313 JUMP JUMPDEST PUSH2 0x1388 DUP2 DUP6 PUSH2 0x131E JUMP JUMPDEST SWAP4 POP PUSH2 0x1398 DUP2 DUP6 PUSH1 0x20 DUP7 ADD PUSH2 0x132F JUMP JUMPDEST PUSH2 0x13A1 DUP2 PUSH2 0x1362 JUMP JUMPDEST DUP5 ADD SWAP2 POP POP SWAP3 SWAP2 POP POP JUMP JUMPDEST PUSH1 0x0 PUSH1 0x20 DUP3 ADD SWAP1 POP DUP2 DUP2 SUB PUSH1 0x0 DUP4 ADD MSTORE PUSH2 0x13C6 DUP2 DUP5 PUSH2 0x1373 JUMP JUMPDEST SWAP1 POP SWAP3 SWAP2 POP POP JUMP JUMPDEST PUSH2 0x13D7 DUP2 PUSH2 0x1181 JUMP JUMPDEST DUP3 MSTORE POP POP JUMP JUMPDEST PUSH1 0x0 PUSH1 0x20 DUP3 ADD SWAP1 POP PUSH2 0x13F2 PUSH1 0x0 DUP4 ADD DUP5 PUSH2 0x13CE JUMP JUMPDEST SWAP3 SWAP2 POP POP JUMP JUMPDEST PUSH1 0x0 DUP2 MLOAD SWAP1 POP SWAP2 SWAP1 POP JUMP JUMPDEST PUSH1 0x0 DUP3 DUP3 MSTORE PUSH1 0x20 DUP3 ADD SWAP1 POP SWAP3 SWAP2 POP POP JUMP JUMPDEST PUSH1 0x0 DUP2 SWAP1 POP PUSH1 0x20 DUP3 ADD SWAP1 POP SWAP2 SWAP1 POP JUMP JUMPDEST PUSH1 0x0 PUSH20 0xFFFFFFFFFFFFFFFFFFFFFFFFFFFFFFFFFFFFFFFF DUP3 AND SWAP1 POP SWAP2 SWAP1 POP JUMP JUMPDEST PUSH1 0x0 PUSH2 0x144F DUP3 PUSH2 0x1424 JUMP JUMPDEST SWAP1 POP SWAP2 SWAP1 POP JUMP JUMPDEST PUSH2 0x145F DUP2 PUSH2 0x1444 JUMP JUMPDEST DUP3 MSTORE POP POP JUMP JUMPDEST PUSH32 0x4E487B7100000000000000000000000000000000000000000000000000000000 PUSH1 0x0 MSTORE PUSH1 0x21 PUSH1 0x4 MSTORE PUSH1 0x24 PUSH1 0x0 REVERT JUMPDEST PUSH1 0x2 DUP2 LT PUSH2 0x14A5 JUMPI PUSH2 0x14A4 PUSH2 0x1465 JUMP JUMPDEST JUMPDEST POP JUMP JUMPDEST PUSH1 0x0 DUP2 SWAP1 POP PUSH2 0x14B6 DUP3 PUSH2 0x1494 JUMP JUMPDEST SWAP2 SWAP1 POP JUMP JUMPDEST PUSH1 0x0 PUSH2 0x14C6 DUP3 PUSH2 0x14A8 JUMP JUMPDEST SWAP1 POP SWAP2 SWAP1 POP JUMP JUMPDEST PUSH2 0x14D6 DUP2 PUSH2 0x14BB JUMP JUMPDEST DUP3 MSTORE POP POP JUMP JUMPDEST PUSH1 0xE0 DUP3 ADD PUSH1 0x0 DUP3 ADD MLOAD PUSH2 0x14F2 PUSH1 0x0 DUP6 ADD DUP3 PUSH2 0x1456 JUMP JUMPDEST POP PUSH1 0x20 DUP3 ADD MLOAD PUSH2 0x1505 PUSH1 0x20 DUP6 ADD DUP3 PUSH2 0x118B JUMP JUMPDEST POP PUSH1 0x40 DUP3 ADD MLOAD PUSH2 0x1518 PUSH1 0x40 DUP6 ADD DUP3 PUSH2 0x118B JUMP JUMPDEST POP PUSH1 0x60 DUP3 ADD MLOAD PUSH2 0x152B PUSH1 0x60 DUP6 ADD DUP3 PUSH2 0x14CD JUMP JUMPDEST POP PUSH1 0x80 DUP3 ADD MLOAD PUSH2 0x153E PUSH1 0x80 DUP6 ADD DUP3 PUSH2 0x118B JUMP JUMPDEST POP PUSH1 0xA0 DUP3 ADD MLOAD PUSH2 0x1551 PUSH1 0xA0 DUP6 ADD DUP3 PUSH2 0x118B JUMP JUMPDEST POP PUSH1 0xC0 DUP3 ADD MLOAD PUSH2 0x1564 PUSH1 0xC0 DUP6 ADD DUP3 PUSH2 0x118B JUMP JUMPDEST POP POP POP POP JUMP JUMPDEST PUSH1 0x0 PUSH2 0x1576 DUP4 DUP4 PUSH2 0x14DC JUMP JUMPDEST PUSH1 0xE0 DUP4 ADD SWAP1 POP SWAP3 SWAP2 POP POP JUMP JUMPDEST PUSH1 0x0 PUSH1 0x20 DUP3 ADD SWAP1 POP SWAP2 SWAP1 POP JUMP JUMPDEST PUSH1 0x0 PUSH2 0x159A DUP3 PUSH2 0x13F8 JUMP JUMPDEST PUSH2 0x15A4 DUP2 DUP6 PUSH2 0x1403 JUMP JUMPDEST SWAP4 POP PUSH2 0x15AF DUP4 PUSH2 0x1414 JUMP JUMPDEST DUP1 PUSH1 0x0 JUMPDEST DUP4 DUP2 LT ISZERO PUSH2 0x15E0 JUMPI DUP2 MLOAD PUSH2 0x15C7 DUP9 DUP3 PUSH2 0x156A JUMP JUMPDEST SWAP8 POP PUSH2 0x15D2 DUP4 PUSH2 0x1582 JUMP JUMPDEST SWAP3 POP POP PUSH1 0x1 DUP2 ADD SWAP1 POP PUSH2 0x15B3 JUMP JUMPDEST POP DUP6 SWAP4 POP POP POP POP SWAP3 SWAP2 POP POP JUMP JUMPDEST PUSH1 0x0 PUSH1 0x20 DUP3 ADD SWAP1 POP DUP2 DUP2 SUB PUSH1 0x0 DUP4 ADD MSTORE PUSH2 0x1607 DUP2 DUP5 PUSH2 0x158F JUMP JUMPDEST SWAP1 POP SWAP3 SWAP2 POP POP JUMP JUMPDEST PUSH2 0x1618 DUP2 PUSH2 0x14BB JUMP JUMPDEST DUP3 MSTORE POP POP JUMP JUMPDEST PUSH1 0x0 PUSH1 0x20 DUP3 ADD SWAP1 POP PUSH2 0x1633 PUSH1 0x0 DUP4 ADD DUP5 PUSH2 0x160F JUMP JUMPDEST SWAP3 SWAP2 POP POP JUMP JUMPDEST PUSH2 0x1642 DUP2 PUSH2 0x1444 JUMP JUMPDEST DUP3 MSTORE POP POP JUMP JUMPDEST PUSH1 0x0 PUSH1 0x20 DUP3 ADD SWAP1 POP PUSH2 0x165D PUSH1 0x0 DUP4 ADD DUP5 PUSH2 0x1639 JUMP JUMPDEST SWAP3 SWAP2 POP POP JUMP JUMPDEST PUSH1 0x0 DUP2 ISZERO ISZERO SWAP1 POP SWAP2 SWAP1 POP JUMP JUMPDEST PUSH2 0x1678 DUP2 PUSH2 0x1663 JUMP JUMPDEST DUP3 MSTORE POP POP JUMP JUMPDEST PUSH1 0x0 PUSH2 0x100 DUP3 ADD SWAP1 POP PUSH2 0x1694 PUSH1 0x0 DUP4 ADD DUP12 PUSH2 0x1639 JUMP JUMPDEST PUSH2 0x16A1 PUSH1 0x20 DUP4 ADD DUP11 PUSH2 0x13CE JUMP JUMPDEST PUSH2 0x16AE PUSH1 0x40 DUP4 ADD DUP10 PUSH2 0x13CE JUMP JUMPDEST PUSH2 0x16BB PUSH1 0x60 DUP4 ADD DUP9 PUSH2 0x160F JUMP JUMPDEST PUSH2 0x16C8 PUSH1 0x80 DUP4 ADD DUP8 PUSH2 0x13CE JUMP JUMPDEST PUSH2 0x16D5 PUSH1 0xA0 DUP4 ADD DUP7 PUSH2 0x13CE JUMP JUMPDEST PUSH2 0x16E2 PUSH1 0xC0 DUP4 ADD DUP6 PUSH2 0x13CE JUMP JUMPDEST PUSH2 0x16EF PUSH1 0xE0 DUP4 ADD DUP5 PUSH2 0x166F JUMP JUMPDEST SWAP10 SWAP9 POP POP POP POP POP POP POP POP POP JUMP JUMPDEST PUSH32 0x4F726465722050656E64696E6700000000000000000000000000000000000000 PUSH1 0x0 DUP3 ADD MSTORE POP JUMP JUMPDEST PUSH1 0x0 PUSH2 0x1732 PUSH1 0xD DUP4 PUSH2 0x131E JUMP JUMPDEST SWAP2 POP PUSH2 0x173D DUP3 PUSH2 0x16FC JUMP JUMPDEST PUSH1 0x20 DUP3 ADD SWAP1 POP SWAP2 SWAP1 POP JUMP JUMPDEST PUSH1 0x0 PUSH1 0x20 DUP3 ADD SWAP1 POP DUP2 DUP2 SUB PUSH1 0x0 DUP4 ADD MSTORE PUSH2 0x1761 DUP2 PUSH2 0x1725 JUMP JUMPDEST SWAP1 POP SWAP2 SWAP1 POP JUMP JUMPDEST PUSH32 0x4E6F7420417574686F7269736564000000000000000000000000000000000000 PUSH1 0x0 DUP3 ADD MSTORE POP JUMP JUMPDEST PUSH1 0x0 PUSH2 0x179E PUSH1 0xE DUP4 PUSH2 0x131E JUMP JUMPDEST SWAP2 POP PUSH2 0x17A9 DUP3 PUSH2 0x1768 JUMP JUMPDEST PUSH1 0x20 DUP3 ADD SWAP1 POP SWAP2 SWAP1 POP JUMP JUMPDEST PUSH1 0x0 PUSH1 0x20 DUP3 ADD SWAP1 POP DUP2 DUP2 SUB PUSH1 0x0 DUP4 ADD MSTORE PUSH2 0x17CD DUP2 PUSH2 0x1791 JUMP JUMPDEST SWAP1 POP SWAP2 SWAP1 POP JUMP JUMPDEST PUSH1 0x0 DUP2 SWAP1 POP SWAP2 SWAP1 POP JUMP JUMPDEST PUSH2 0x17EF PUSH2 0x17EA DUP3 PUSH2 0x129D JUMP JUMPDEST PUSH2 0x17D4 JUMP JUMPDEST DUP3 MSTORE POP POP JUMP JUMPDEST PUSH32 0x202C200000000000000000000000000000000000000000000000000000000000 DUP2 MSTORE POP JUMP JUMPDEST PUSH1 0x0 PUSH2 0x1827 DUP3 DUP6 PUSH2 0x17DE JUMP JUMPDEST PUSH1 0x20 DUP3 ADD SWAP2 POP PUSH2 0x1836 DUP3 PUSH2 0x17F5 JUMP JUMPDEST PUSH1 0x3 DUP3 ADD SWAP2 POP PUSH2 0x1846 DUP3 DUP5 PUSH2 0x17DE JUMP JUMPDEST PUSH1 0x20 DUP3 ADD SWAP2 POP DUP2 SWAP1 POP SWAP4 SWAP3 POP POP POP JUMP JUMPDEST PUSH32 0x70726963652076616C7565206D757374206265206D6F7265207468616E203000 PUSH1 0x0 DUP3 ADD MSTORE POP JUMP JUMPDEST PUSH1 0x0 PUSH2 0x188C PUSH1 0x1F DUP4 PUSH2 0x131E JUMP JUMPDEST SWAP2 POP PUSH2 0x1897 DUP3 PUSH2 0x1856 JUMP JUMPDEST PUSH1 0x20 DUP3 ADD SWAP1 POP SWAP2 SWAP1 POP JUMP JUMPDEST PUSH1 0x0 PUSH1 0x20 DUP3 ADD SWAP1 POP DUP2 DUP2 SUB PUSH1 0x0 DUP4 ADD MSTORE PUSH2 0x18BB DUP2 PUSH2 0x187F JUMP JUMPDEST SWAP1 POP SWAP2 SWAP1 POP JUMP JUMPDEST PUSH32 0x4E6F7420656E6F75676820626C616E636520746F20706C6163652061736B0000 PUSH1 0x0 DUP3 ADD MSTORE POP JUMP JUMPDEST PUSH1 0x0 PUSH2 0x18F8 PUSH1 0x1E DUP4 PUSH2 0x131E JUMP JUMPDEST SWAP2 POP PUSH2 0x1903 DUP3 PUSH2 0x18C2 JUMP JUMPDEST PUSH1 0x20 DUP3 ADD SWAP1 POP SWAP2 SWAP1 POP JUMP JUMPDEST PUSH1 0x0 PUSH1 0x20 DUP3 ADD SWAP1 POP DUP2 DUP2 SUB PUSH1 0x0 DUP4 ADD MSTORE PUSH2 0x1927 DUP2 PUSH2 0x18EB JUMP JUMPDEST SWAP1 POP SWAP2 SWAP1 POP JUMP JUMPDEST PUSH32 0x4E487B7100000000000000000000000000000000000000000000000000000000 PUSH1 0x0 MSTORE PUSH1 0x11 PUSH1 0x4 MSTORE PUSH1 0x24 PUSH1 0x0 REVERT JUMPDEST PUSH1 0x0 PUSH2 0x1968 DUP3 PUSH2 0x1181 JUMP JUMPDEST SWAP2 POP PUSH2 0x1973 DUP4 PUSH2 0x1181 JUMP JUMPDEST SWAP3 POP DUP3 DUP3 LT ISZERO PUSH2 0x1986 JUMPI PUSH2 0x1985 PUSH2 0x192E JUMP JUMPDEST JUMPDEST DUP3 DUP3 SUB SWAP1 POP SWAP3 SWAP2 POP POP JUMP JUMPDEST PUSH1 0x0 PUSH2 0x199C DUP3 PUSH2 0x1181 JUMP JUMPDEST SWAP2 POP PUSH2 0x19A7 DUP4 PUSH2 0x1181 JUMP JUMPDEST SWAP3 POP DUP2 PUSH32 0xFFFFFFFFFFFFFFFFFFFFFFFFFFFFFFFFFFFFFFFFFFFFFFFFFFFFFFFFFFFFFFFF DIV DUP4 GT DUP3 ISZERO ISZERO AND ISZERO PUSH2 0x19E0 JUMPI PUSH2 0x19DF PUSH2 0x192E JUMP JUMPDEST JUMPDEST DUP3 DUP3 MUL SWAP1 POP SWAP3 SWAP2 POP POP JUMP JUMPDEST PUSH32 0x4E487B7100000000000000000000000000000000000000000000000000000000 PUSH1 0x0 MSTORE PUSH1 0x12 PUSH1 0x4 MSTORE PUSH1 0x24 PUSH1 0x0 REVERT JUMPDEST PUSH1 0x0 PUSH2 0x1A25 DUP3 PUSH2 0x1181 JUMP JUMPDEST SWAP2 POP PUSH2 0x1A30 DUP4 PUSH2 0x1181 JUMP JUMPDEST SWAP3 POP DUP3 PUSH2 0x1A40 JUMPI PUSH2 0x1A3F PUSH2 0x19EB JUMP JUMPDEST JUMPDEST DUP3 DUP3 DIV SWAP1 POP SWAP3 SWAP2 POP POP JUMP JUMPDEST PUSH32 0x4E6F7420656E6F75676820626C616E636520746F20706C616365206269640000 PUSH1 0x0 DUP3 ADD MSTORE POP JUMP JUMPDEST PUSH1 0x0 PUSH2 0x1A81 PUSH1 0x1E DUP4 PUSH2 0x131E JUMP JUMPDEST SWAP2 POP PUSH2 0x1A8C DUP3 PUSH2 0x1A4B JUMP JUMPDEST PUSH1 0x20 DUP3 ADD SWAP1 POP SWAP2 SWAP1 POP JUMP JUMPDEST PUSH1 0x0 PUSH1 0x20 DUP3 ADD SWAP1 POP DUP2 DUP2 SUB PUSH1 0x0 DUP4 ADD MSTORE PUSH2 0x1AB0 DUP2 PUSH2 0x1A74 JUMP JUMPDEST SWAP1 POP SWAP2 SWAP1 POP JUMP JUMPDEST PUSH1 0x0 PUSH2 0x1AC2 DUP3 PUSH2 0x1181 JUMP JUMPDEST SWAP2 POP PUSH32 0xFFFFFFFFFFFFFFFFFFFFFFFFFFFFFFFFFFFFFFFFFFFFFFFFFFFFFFFFFFFFFFFF DUP3 SUB PUSH2 0x1AF4 JUMPI PUSH2 0x1AF3 PUSH2 0x192E JUMP JUMPDEST JUMPDEST PUSH1 0x1 DUP3 ADD SWAP1 POP SWAP2 SWAP1 POP JUMP JUMPDEST PUSH1 0x0 PUSH2 0x1B0A DUP3 PUSH2 0x1424 JUMP JUMPDEST SWAP1 POP SWAP2 SWAP1 POP JUMP JUMPDEST PUSH2 0x1B1A DUP2 PUSH2 0x1AFF JUMP JUMPDEST DUP3 MSTORE POP POP JUMP JUMPDEST PUSH1 0x0 DUP2 SWAP1 POP SWAP2 SWAP1 POP JUMP JUMPDEST PUSH1 0x0 DUP2 SWAP1 POP SWAP2 SWAP1 POP JUMP JUMPDEST PUSH1 0x0 PUSH2 0x1B4F PUSH2 0x1B4A PUSH2 0x1B45 DUP5 PUSH2 0x1B20 JUMP JUMPDEST PUSH2 0x1B2A JUMP JUMPDEST PUSH2 0x1181 JUMP JUMPDEST SWAP1 POP SWAP2 SWAP1 POP JUMP JUMPDEST PUSH2 0x1B5F DUP2 PUSH2 0x1B34 JUMP JUMPDEST DUP3 MSTORE POP POP JUMP JUMPDEST PUSH1 0x0 PUSH2 0x100 DUP3 ADD SWAP1 POP PUSH2 0x1B7B PUSH1 0x0 DUP4 ADD DUP12 PUSH2 0x1B11 JUMP JUMPDEST PUSH2 0x1B88 PUSH1 0x20 DUP4 ADD DUP11 PUSH2 0x13CE JUMP JUMPDEST PUSH2 0x1B95 PUSH1 0x40 DUP4 ADD DUP10 PUSH2 0x13CE JUMP JUMPDEST PUSH2 0x1BA2 PUSH1 0x60 DUP4 ADD DUP9 PUSH2 0x160F JUMP JUMPDEST PUSH2 0x1BAF PUSH1 0x80 DUP4 ADD DUP8 PUSH2 0x13CE JUMP JUMPDEST PUSH2 0x1BBC PUSH1 0xA0 DUP4 ADD DUP7 PUSH2 0x1B56 JUMP JUMPDEST PUSH2 0x1BC9 PUSH1 0xC0 DUP4 ADD DUP6 PUSH2 0x1B56 JUMP JUMPDEST PUSH2 0x1BD6 PUSH1 0xE0 DUP4 ADD DUP5 PUSH2 0x166F JUMP JUMPDEST SWAP10 SWAP9 POP POP POP POP POP POP POP POP POP JUMP INVALID LOG2 PUSH5 0x6970667358 0x22 SLT KECCAK256 CHAINID 0xC2 GT SWAP12 0xD2 0xE6 MSTORE8 CALLER 0xAD 0xE5 SWAP15 SLT SWAP7 DUP11 0xA6 0x4F 0xED 0xE0 DUP8 STATICCALL CALLDATALOAD PUSH13 0x499CA4F44091ED5880C964736F PUSH13 0x634300080D0033000000000000 "
				},
				"gasEstimates": {
					"creation": {
						"codeDepositCost": "1438600",
						"executionCost": "infinite",
						"totalCost": "infinite"
					},
					"external": {
						"AppendString(bytes32,bytes32)": "infinite",
						"askCount()": "2540",
						"askHead()": "2474",
						"askTail()": "2561",
						"bidCount()": "2451",
						"bidHead()": "2518",
						"bidTail()": "2452",
						"cancelAsk(uint256)": "31089",
						"cancelBid(uint256)": "31110",
						"fetchAllBid()": "infinite",
						"fetchAsk()": "infinite",
						"fetchYourAskIds()": "infinite",
						"fetchYourBidIds()": "infinite",
						"getAskAddress(uint256)": "2982",
						"getAskState(uint256)": "2962",
						"getAskValue(uint256)": "infinite",
						"getBidAddress(uint256)": "2938",
						"getBidState(uint256)": "2961",
						"getBidValue(uint256)": "infinite",
						"getOrder(uint256)": "infinite",
						"placeAsk(uint256)": "infinite",
						"placeBid(uint256)": "809"
					},
					"internal": {
						"askBid(uint256,uint256)": "infinite",
						"createAsk(address,uint256,uint256)": "infinite",
						"createBid(address,uint256,uint256)": "infinite",
						"insertionSortAsk()": "infinite",
						"linkBid(uint256,uint256)": "infinite",
						"setAskHead(uint256)": "infinite",
						"setAskTail(uint256)": "infinite",
						"setBidHead(uint256)": "infinite",
						"setBidTail(uint256)": "infinite",
						"sortAsk(struct OrderBook.order memory)": "infinite"
					}
				},
				"methodIdentifiers": {
					"AppendString(bytes32,bytes32)": "299e6283",
					"askCount()": "a394fda7",
					"askHead()": "801d9bbd",
					"askTail()": "ecdfb860",
					"bidCount()": "b40a5627",
					"bidHead()": "6e5b0f00",
					"bidTail()": "7bb51193",
					"cancelAsk(uint256)": "1628e0f5",
					"cancelBid(uint256)": "9703ef35",
					"fetchAllBid()": "4471417f",
					"fetchAsk()": "44e791e0",
					"fetchYourAskIds()": "122de8f2",
					"fetchYourBidIds()": "ce0cdc87",
					"getAskAddress(uint256)": "734a2e78",
					"getAskState(uint256)": "4d46712d",
					"getAskValue(uint256)": "db3a1396",
					"getBidAddress(uint256)": "69f632e2",
					"getBidState(uint256)": "bf77ffae",
					"getBidValue(uint256)": "2db6dfa7",
					"getOrder(uint256)": "d09ef241",
					"placeAsk(uint256)": "78c5b268",
					"placeBid(uint256)": "9979ef45"
				}
			},
			"storageLayout": {
				"storage": [
					{
						"astId": 8,
						"contract": "contracts/OrderBook.sol:OrderBook",
						"label": "bidValues",
						"offset": 0,
						"slot": "0",
						"type": "t_mapping(t_uint256,t_uint256)"
					},
					{
						"astId": 15,
						"contract": "contracts/OrderBook.sol:OrderBook",
						"label": "_owner",
						"offset": 0,
						"slot": "1",
						"type": "t_address_payable"
					},
					{
						"astId": 17,
						"contract": "contracts/OrderBook.sol:OrderBook",
						"label": "commission",
						"offset": 0,
						"slot": "2",
						"type": "t_uint256"
					},
					{
						"astId": 38,
						"contract": "contracts/OrderBook.sol:OrderBook",
						"label": "bidBook",
						"offset": 0,
						"slot": "3",
						"type": "t_mapping(t_uint256,t_struct(order)33_storage)"
					},
					{
						"astId": 40,
						"contract": "contracts/OrderBook.sol:OrderBook",
						"label": "bidHead",
						"offset": 0,
						"slot": "4",
						"type": "t_uint256"
					},
					{
						"astId": 42,
						"contract": "contracts/OrderBook.sol:OrderBook",
						"label": "bidTail",
						"offset": 0,
						"slot": "5",
						"type": "t_uint256"
					},
					{
						"astId": 44,
						"contract": "contracts/OrderBook.sol:OrderBook",
						"label": "bidCount",
						"offset": 0,
						"slot": "6",
						"type": "t_uint256"
					},
					{
						"astId": 49,
						"contract": "contracts/OrderBook.sol:OrderBook",
						"label": "askBook",
						"offset": 0,
						"slot": "7",
						"type": "t_mapping(t_uint256,t_struct(order)33_storage)"
					},
					{
						"astId": 51,
						"contract": "contracts/OrderBook.sol:OrderBook",
						"label": "askHead",
						"offset": 0,
						"slot": "8",
						"type": "t_uint256"
					},
					{
						"astId": 53,
						"contract": "contracts/OrderBook.sol:OrderBook",
						"label": "askTail",
						"offset": 0,
						"slot": "9",
						"type": "t_uint256"
					},
					{
						"astId": 55,
						"contract": "contracts/OrderBook.sol:OrderBook",
						"label": "askCount",
						"offset": 0,
						"slot": "10",
						"type": "t_uint256"
					}
				],
				"types": {
					"t_address_payable": {
						"encoding": "inplace",
						"label": "address payable",
						"numberOfBytes": "20"
					},
					"t_enum(State)4": {
						"encoding": "inplace",
						"label": "enum OrderBook.State",
						"numberOfBytes": "1"
					},
					"t_mapping(t_uint256,t_struct(order)33_storage)": {
						"encoding": "mapping",
						"key": "t_uint256",
						"label": "mapping(uint256 => struct OrderBook.order)",
						"numberOfBytes": "32",
						"value": "t_struct(order)33_storage"
					},
					"t_mapping(t_uint256,t_uint256)": {
						"encoding": "mapping",
						"key": "t_uint256",
						"label": "mapping(uint256 => uint256)",
						"numberOfBytes": "32",
						"value": "t_uint256"
					},
					"t_struct(order)33_storage": {
						"encoding": "inplace",
						"label": "struct OrderBook.order",
						"members": [
							{
								"astId": 19,
								"contract": "contracts/OrderBook.sol:OrderBook",
								"label": "customer",
								"offset": 0,
								"slot": "0",
								"type": "t_address_payable"
							},
							{
								"astId": 21,
								"contract": "contracts/OrderBook.sol:OrderBook",
								"label": "value",
								"offset": 0,
								"slot": "1",
								"type": "t_uint256"
							},
							{
								"astId": 23,
								"contract": "contracts/OrderBook.sol:OrderBook",
								"label": "timestamp",
								"offset": 0,
								"slot": "2",
								"type": "t_uint256"
							},
							{
								"astId": 26,
								"contract": "contracts/OrderBook.sol:OrderBook",
								"label": "state",
								"offset": 0,
								"slot": "3",
								"type": "t_enum(State)4"
							},
							{
								"astId": 28,
								"contract": "contracts/OrderBook.sol:OrderBook",
								"label": "id",
								"offset": 0,
								"slot": "4",
								"type": "t_uint256"
							},
							{
								"astId": 30,
								"contract": "contracts/OrderBook.sol:OrderBook",
								"label": "next",
								"offset": 0,
								"slot": "5",
								"type": "t_uint256"
							},
							{
								"astId": 32,
								"contract": "contracts/OrderBook.sol:OrderBook",
								"label": "prev",
								"offset": 0,
								"slot": "6",
								"type": "t_uint256"
							}
						],
						"numberOfBytes": "224"
					},
					"t_uint256": {
						"encoding": "inplace",
						"label": "uint256",
						"numberOfBytes": "32"
					}
				}
			},
			"userdoc": {
				"kind": "user",
				"methods": {},
				"version": 1
			}
		}
	}
}