{
	"contracts/OrderBook.sol": {
		"OrderBook": {
			"abi": [
				{
					"inputs": [
						{
							"internalType": "uint256",
							"name": "_commission",
							"type": "uint256"
						}
					],
					"stateMutability": "nonpayable",
					"type": "constructor"
				},
				{
					"anonymous": false,
					"inputs": [
						{
							"indexed": false,
							"internalType": "uint256",
							"name": "",
							"type": "uint256"
						},
						{
							"indexed": false,
							"internalType": "uint256",
							"name": "",
							"type": "uint256"
						}
					],
					"name": "askLink",
					"type": "event"
				},
				{
					"anonymous": false,
					"inputs": [
						{
							"indexed": false,
							"internalType": "uint256",
							"name": "",
							"type": "uint256"
						},
						{
							"indexed": false,
							"internalType": "uint256",
							"name": "",
							"type": "uint256"
						}
					],
					"name": "bidLink",
					"type": "event"
				},
				{
					"anonymous": false,
					"inputs": [
						{
							"indexed": false,
							"internalType": "uint256",
							"name": "",
							"type": "uint256"
						}
					],
					"name": "newHead",
					"type": "event"
				},
				{
					"anonymous": false,
					"inputs": [
						{
							"indexed": false,
							"internalType": "uint256",
							"name": "",
							"type": "uint256"
						}
					],
					"name": "newTail",
					"type": "event"
				},
				{
					"anonymous": false,
					"inputs": [
						{
							"indexed": false,
							"internalType": "address",
							"name": "",
							"type": "address"
						},
						{
							"indexed": false,
							"internalType": "uint256",
							"name": "",
							"type": "uint256"
						},
						{
							"indexed": false,
							"internalType": "uint256",
							"name": "",
							"type": "uint256"
						},
						{
							"indexed": false,
							"internalType": "enum OrderBook.State",
							"name": "",
							"type": "uint8"
						},
						{
							"indexed": false,
							"internalType": "uint256",
							"name": "",
							"type": "uint256"
						},
						{
							"indexed": false,
							"internalType": "uint256",
							"name": "",
							"type": "uint256"
						},
						{
							"indexed": false,
							"internalType": "uint256",
							"name": "",
							"type": "uint256"
						},
						{
							"indexed": false,
							"internalType": "bool",
							"name": "",
							"type": "bool"
						}
					],
					"name": "orderCreated",
					"type": "event"
				},
				{
					"inputs": [],
					"name": "askCount",
					"outputs": [
						{
							"internalType": "uint256",
							"name": "",
							"type": "uint256"
						}
					],
					"stateMutability": "view",
					"type": "function"
				},
				{
					"inputs": [],
					"name": "askHead",
					"outputs": [
						{
							"internalType": "uint256",
							"name": "",
							"type": "uint256"
						}
					],
					"stateMutability": "view",
					"type": "function"
				},
				{
					"inputs": [],
					"name": "bidCount",
					"outputs": [
						{
							"internalType": "uint256",
							"name": "",
							"type": "uint256"
						}
					],
					"stateMutability": "view",
					"type": "function"
				},
				{
					"inputs": [],
					"name": "bidHead",
					"outputs": [
						{
							"internalType": "uint256",
							"name": "",
							"type": "uint256"
						}
					],
					"stateMutability": "view",
					"type": "function"
				},
				{
					"inputs": [
						{
							"internalType": "uint256",
							"name": "askId",
							"type": "uint256"
						}
					],
					"name": "cancelAsk",
					"outputs": [],
					"stateMutability": "nonpayable",
					"type": "function"
				},
				{
					"inputs": [
						{
							"internalType": "uint256",
							"name": "bidId",
							"type": "uint256"
						}
					],
					"name": "cancelBid",
					"outputs": [],
					"stateMutability": "nonpayable",
					"type": "function"
				},
				{
					"inputs": [
						{
							"internalType": "string",
							"name": "a",
							"type": "string"
						},
						{
							"internalType": "string",
							"name": "b",
							"type": "string"
						}
					],
					"name": "concatenate",
					"outputs": [
						{
							"internalType": "string",
							"name": "",
							"type": "string"
						}
					],
					"stateMutability": "pure",
					"type": "function"
				},
				{
					"inputs": [],
					"name": "fetchAllBid",
					"outputs": [
						{
							"components": [
								{
									"internalType": "address payable",
									"name": "customer",
									"type": "address"
								},
								{
									"internalType": "uint256",
									"name": "value",
									"type": "uint256"
								},
								{
									"internalType": "uint256",
									"name": "timestamp",
									"type": "uint256"
								},
								{
									"internalType": "enum OrderBook.State",
									"name": "state",
									"type": "uint8"
								},
								{
									"internalType": "uint256",
									"name": "id",
									"type": "uint256"
								},
								{
									"internalType": "uint256",
									"name": "next",
									"type": "uint256"
								},
								{
									"internalType": "uint256",
									"name": "prev",
									"type": "uint256"
								}
							],
							"internalType": "struct OrderBook.order[]",
							"name": "",
							"type": "tuple[]"
						}
					],
					"stateMutability": "nonpayable",
					"type": "function"
				},
				{
					"inputs": [],
					"name": "fetchAsk",
					"outputs": [
						{
							"internalType": "string",
							"name": "",
							"type": "string"
						}
					],
					"stateMutability": "view",
					"type": "function"
				},
				{
					"inputs": [],
					"name": "fetchYourAskIds",
					"outputs": [
						{
							"internalType": "uint256[]",
							"name": "",
							"type": "uint256[]"
						}
					],
					"stateMutability": "nonpayable",
					"type": "function"
				},
				{
					"inputs": [],
					"name": "fetchYourBidIds",
					"outputs": [
						{
							"internalType": "uint256[]",
							"name": "",
							"type": "uint256[]"
						}
					],
					"stateMutability": "nonpayable",
					"type": "function"
				},
				{
					"inputs": [
						{
							"internalType": "uint256",
							"name": "id",
							"type": "uint256"
						}
					],
					"name": "getAskAddress",
					"outputs": [
						{
							"internalType": "address payable",
							"name": "",
							"type": "address"
						}
					],
					"stateMutability": "view",
					"type": "function"
				},
				{
					"inputs": [
						{
							"internalType": "uint256",
							"name": "id",
							"type": "uint256"
						}
					],
					"name": "getAskNext",
					"outputs": [
						{
							"internalType": "uint256",
							"name": "",
							"type": "uint256"
						}
					],
					"stateMutability": "view",
					"type": "function"
				},
				{
					"inputs": [
						{
							"internalType": "uint256",
							"name": "id",
							"type": "uint256"
						}
					],
					"name": "getAskPrev",
					"outputs": [
						{
							"internalType": "uint256",
							"name": "",
							"type": "uint256"
						}
					],
					"stateMutability": "view",
					"type": "function"
				},
				{
					"inputs": [
						{
							"internalType": "uint256",
							"name": "id",
							"type": "uint256"
						}
					],
					"name": "getAskState",
					"outputs": [
						{
							"internalType": "enum OrderBook.State",
							"name": "",
							"type": "uint8"
						}
					],
					"stateMutability": "view",
					"type": "function"
				},
				{
					"inputs": [
						{
							"internalType": "uint256",
							"name": "id",
							"type": "uint256"
						}
					],
					"name": "getAskValue",
					"outputs": [
						{
							"internalType": "uint256",
							"name": "",
							"type": "uint256"
						}
					],
					"stateMutability": "view",
					"type": "function"
				},
				{
					"inputs": [
						{
							"internalType": "uint256",
							"name": "id",
							"type": "uint256"
						}
					],
					"name": "getBidAddress",
					"outputs": [
						{
							"internalType": "address payable",
							"name": "",
							"type": "address"
						}
					],
					"stateMutability": "view",
					"type": "function"
				},
				{
					"inputs": [
						{
							"internalType": "uint256",
							"name": "id",
							"type": "uint256"
						}
					],
					"name": "getBidState",
					"outputs": [
						{
							"internalType": "enum OrderBook.State",
							"name": "",
							"type": "uint8"
						}
					],
					"stateMutability": "view",
					"type": "function"
				},
				{
					"inputs": [
						{
							"internalType": "uint256",
							"name": "id",
							"type": "uint256"
						}
					],
					"name": "getBidValue",
					"outputs": [
						{
							"internalType": "uint256",
							"name": "",
							"type": "uint256"
						}
					],
					"stateMutability": "view",
					"type": "function"
				},
				{
					"inputs": [
						{
							"internalType": "uint256",
							"name": "id",
							"type": "uint256"
						}
					],
					"name": "getOrder",
					"outputs": [
						{
							"internalType": "address payable",
							"name": "",
							"type": "address"
						},
						{
							"internalType": "uint256",
							"name": "",
							"type": "uint256"
						},
						{
							"internalType": "uint256",
							"name": "",
							"type": "uint256"
						},
						{
							"internalType": "enum OrderBook.State",
							"name": "",
							"type": "uint8"
						},
						{
							"internalType": "uint256",
							"name": "",
							"type": "uint256"
						},
						{
							"internalType": "uint256",
							"name": "",
							"type": "uint256"
						},
						{
							"internalType": "uint256",
							"name": "",
							"type": "uint256"
						},
						{
							"internalType": "bool",
							"name": "",
							"type": "bool"
						}
					],
					"stateMutability": "view",
					"type": "function"
				},
				{
					"inputs": [
						{
							"internalType": "uint256",
							"name": "price",
							"type": "uint256"
						}
					],
					"name": "placeAsk",
					"outputs": [],
					"stateMutability": "payable",
					"type": "function"
				},
				{
					"inputs": [
						{
							"internalType": "uint256",
							"name": "price",
							"type": "uint256"
						}
					],
					"name": "placeBid",
					"outputs": [],
					"stateMutability": "payable",
					"type": "function"
				}
			],
			"devdoc": {
				"kind": "dev",
				"methods": {},
				"version": 1
			},
			"evm": {
				"assembly": "    /* \"contracts/OrderBook.sol\":1155:9073  contract OrderBook {... */\n  mstore(0x40, 0x80)\n    /* \"contracts/OrderBook.sol\":1358:1368  msg.sender */\n  caller\n    /* \"contracts/OrderBook.sol\":1325:1369  address payable _owner = payable(msg.sender) */\n  0x01\n  exp(0x0100, 0x00)\n  dup2\n  sload\n  dup2\n  0xffffffffffffffffffffffffffffffffffffffff\n  mul\n  not\n  and\n  swap1\n  dup4\n  0xffffffffffffffffffffffffffffffffffffffff\n  and\n  mul\n  or\n  swap1\n  sstore\n  pop\n    /* \"contracts/OrderBook.sol\":2292:2453  constructor (uint256 _commission) {... */\n  callvalue\n  dup1\n  iszero\n  tag_1\n  jumpi\n  0x00\n  dup1\n  revert\ntag_1:\n  pop\n  mload(0x40)\n  sub(codesize, bytecodeSize)\n  dup1\n  bytecodeSize\n  dup4\n  codecopy\n  dup2\n  dup2\n  add\n  0x40\n  mstore\n  dup2\n  add\n  swap1\n  tag_2\n  swap2\n  swap1\n  tag_3\n  jump\t// in\ntag_2:\n    /* \"contracts/OrderBook.sol\":2349:2360  _commission */\n  dup1\n    /* \"contracts/OrderBook.sol\":2336:2346  commission */\n  0x02\n    /* \"contracts/OrderBook.sol\":2336:2360  commission = _commission */\n  dup2\n  swap1\n  sstore\n  pop\n    /* \"contracts/OrderBook.sol\":2380:2381  0 */\n  0x00\n    /* \"contracts/OrderBook.sol\":2370:2377  bidHead */\n  0x04\n    /* \"contracts/OrderBook.sol\":2370:2381  bidHead = 0 */\n  dup2\n  swap1\n  sstore\n  pop\n    /* \"contracts/OrderBook.sol\":2402:2403  0 */\n  0x00\n    /* \"contracts/OrderBook.sol\":2391:2399  bidCount */\n  0x05\n    /* \"contracts/OrderBook.sol\":2391:2403  bidCount = 0 */\n  dup2\n  swap1\n  sstore\n  pop\n    /* \"contracts/OrderBook.sol\":2423:2424  0 */\n  0x00\n    /* \"contracts/OrderBook.sol\":2413:2420  askHead */\n  0x07\n    /* \"contracts/OrderBook.sol\":2413:2424  askHead = 0 */\n  dup2\n  swap1\n  sstore\n  pop\n    /* \"contracts/OrderBook.sol\":2445:2446  0 */\n  0x00\n    /* \"contracts/OrderBook.sol\":2434:2442  askCount */\n  0x08\n    /* \"contracts/OrderBook.sol\":2434:2446  askCount = 0 */\n  dup2\n  swap1\n  sstore\n  pop\n    /* \"contracts/OrderBook.sol\":2292:2453  constructor (uint256 _commission) {... */\n  pop\n    /* \"contracts/OrderBook.sol\":1155:9073  contract OrderBook {... */\n  jump(tag_6)\n    /* \"#utility.yul\":7:150   */\ntag_8:\n    /* \"#utility.yul\":64:69   */\n  0x00\n    /* \"#utility.yul\":95:101   */\n  dup2\n    /* \"#utility.yul\":89:102   */\n  mload\n    /* \"#utility.yul\":80:102   */\n  swap1\n  pop\n    /* \"#utility.yul\":111:144   */\n  tag_10\n    /* \"#utility.yul\":138:143   */\n  dup2\n    /* \"#utility.yul\":111:144   */\n  tag_11\n  jump\t// in\ntag_10:\n    /* \"#utility.yul\":7:150   */\n  swap3\n  swap2\n  pop\n  pop\n  jump\t// out\n    /* \"#utility.yul\":156:507   */\ntag_3:\n    /* \"#utility.yul\":226:232   */\n  0x00\n    /* \"#utility.yul\":275:277   */\n  0x20\n    /* \"#utility.yul\":263:272   */\n  dup3\n    /* \"#utility.yul\":254:261   */\n  dup5\n    /* \"#utility.yul\":250:273   */\n  sub\n    /* \"#utility.yul\":246:278   */\n  slt\n    /* \"#utility.yul\":243:362   */\n  iszero\n  tag_13\n  jumpi\n    /* \"#utility.yul\":281:360   */\n  tag_14\n  tag_15\n  jump\t// in\ntag_14:\n    /* \"#utility.yul\":243:362   */\ntag_13:\n    /* \"#utility.yul\":401:402   */\n  0x00\n    /* \"#utility.yul\":426:490   */\n  tag_16\n    /* \"#utility.yul\":482:489   */\n  dup5\n    /* \"#utility.yul\":473:479   */\n  dup3\n    /* \"#utility.yul\":462:471   */\n  dup6\n    /* \"#utility.yul\":458:480   */\n  add\n    /* \"#utility.yul\":426:490   */\n  tag_8\n  jump\t// in\ntag_16:\n    /* \"#utility.yul\":416:490   */\n  swap2\n  pop\n    /* \"#utility.yul\":372:500   */\n  pop\n    /* \"#utility.yul\":156:507   */\n  swap3\n  swap2\n  pop\n  pop\n  jump\t// out\n    /* \"#utility.yul\":594:671   */\ntag_19:\n    /* \"#utility.yul\":631:638   */\n  0x00\n    /* \"#utility.yul\":660:665   */\n  dup2\n    /* \"#utility.yul\":649:665   */\n  swap1\n  pop\n    /* \"#utility.yul\":594:671   */\n  swap2\n  swap1\n  pop\n  jump\t// out\n    /* \"#utility.yul\":800:917   */\ntag_15:\n    /* \"#utility.yul\":909:910   */\n  0x00\n    /* \"#utility.yul\":906:907   */\n  dup1\n    /* \"#utility.yul\":899:911   */\n  revert\n    /* \"#utility.yul\":923:1045   */\ntag_11:\n    /* \"#utility.yul\":996:1020   */\n  tag_25\n    /* \"#utility.yul\":1014:1019   */\n  dup2\n    /* \"#utility.yul\":996:1020   */\n  tag_19\n  jump\t// in\ntag_25:\n    /* \"#utility.yul\":989:994   */\n  dup2\n    /* \"#utility.yul\":986:1021   */\n  eq\n    /* \"#utility.yul\":976:1039   */\n  tag_26\n  jumpi\n    /* \"#utility.yul\":1035:1036   */\n  0x00\n    /* \"#utility.yul\":1032:1033   */\n  dup1\n    /* \"#utility.yul\":1025:1037   */\n  revert\n    /* \"#utility.yul\":976:1039   */\ntag_26:\n    /* \"#utility.yul\":923:1045   */\n  pop\n  jump\t// out\n    /* \"contracts/OrderBook.sol\":1155:9073  contract OrderBook {... */\ntag_6:\n  dataSize(sub_0)\n  dup1\n  dataOffset(sub_0)\n  0x00\n  codecopy\n  0x00\n  return\nstop\n\nsub_0: assembly {\n        /* \"contracts/OrderBook.sol\":1155:9073  contract OrderBook {... */\n      mstore(0x40, 0x80)\n      jumpi(tag_1, lt(calldatasize, 0x04))\n      shr(0xe0, calldataload(0x00))\n      dup1\n      0x78c5b268\n      gt\n      tag_24\n      jumpi\n      dup1\n      0xb40a5627\n      gt\n      tag_25\n      jumpi\n      dup1\n      0xb40a5627\n      eq\n      tag_18\n      jumpi\n      dup1\n      0xbf77ffae\n      eq\n      tag_19\n      jumpi\n      dup1\n      0xce0cdc87\n      eq\n      tag_20\n      jumpi\n      dup1\n      0xd05c28cb\n      eq\n      tag_21\n      jumpi\n      dup1\n      0xd09ef241\n      eq\n      tag_22\n      jumpi\n      dup1\n      0xdb3a1396\n      eq\n      tag_23\n      jumpi\n      jump(tag_1)\n    tag_25:\n      dup1\n      0x78c5b268\n      eq\n      tag_13\n      jumpi\n      dup1\n      0x801d9bbd\n      eq\n      tag_14\n      jumpi\n      dup1\n      0x9703ef35\n      eq\n      tag_15\n      jumpi\n      dup1\n      0x9979ef45\n      eq\n      tag_16\n      jumpi\n      dup1\n      0xa394fda7\n      eq\n      tag_17\n      jumpi\n      jump(tag_1)\n    tag_24:\n      dup1\n      0x44e791e0\n      gt\n      tag_26\n      jumpi\n      dup1\n      0x44e791e0\n      eq\n      tag_7\n      jumpi\n      dup1\n      0x4d46712d\n      eq\n      tag_8\n      jumpi\n      dup1\n      0x69f632e2\n      eq\n      tag_9\n      jumpi\n      dup1\n      0x6e5b0f00\n      eq\n      tag_10\n      jumpi\n      dup1\n      0x733672f4\n      eq\n      tag_11\n      jumpi\n      dup1\n      0x734a2e78\n      eq\n      tag_12\n      jumpi\n      jump(tag_1)\n    tag_26:\n      dup1\n      0x122de8f2\n      eq\n      tag_2\n      jumpi\n      dup1\n      0x1628e0f5\n      eq\n      tag_3\n      jumpi\n      dup1\n      0x266001d3\n      eq\n      tag_4\n      jumpi\n      dup1\n      0x2db6dfa7\n      eq\n      tag_5\n      jumpi\n      dup1\n      0x4471417f\n      eq\n      tag_6\n      jumpi\n    tag_1:\n      0x00\n      dup1\n      revert\n        /* \"contracts/OrderBook.sol\":7774:7842  function fetchYourAskIds() public returns (uint256[] memory) {... */\n    tag_2:\n      callvalue\n      dup1\n      iszero\n      tag_27\n      jumpi\n      0x00\n      dup1\n      revert\n    tag_27:\n      pop\n      tag_28\n      tag_29\n      jump\t// in\n    tag_28:\n      mload(0x40)\n      tag_30\n      swap2\n      swap1\n      tag_31\n      jump\t// in\n    tag_30:\n      mload(0x40)\n      dup1\n      swap2\n      sub\n      swap1\n      return\n        /* \"contracts/OrderBook.sol\":6905:7197  function cancelAsk (uint256 askId) public isPending(askBook[askId]) isAuthorised(askBook[askId], msg.sender) {... */\n    tag_3:\n      callvalue\n      dup1\n      iszero\n      tag_32\n      jumpi\n      0x00\n      dup1\n      revert\n    tag_32:\n      pop\n      tag_33\n      0x04\n      dup1\n      calldatasize\n      sub\n      dup2\n      add\n      swap1\n      tag_34\n      swap2\n      swap1\n      tag_35\n      jump\t// in\n    tag_34:\n      tag_36\n      jump\t// in\n    tag_33:\n      stop\n        /* \"contracts/OrderBook.sol\":5472:5618  function concatenate(string memory a,string memory b) public pure returns (string memory){... */\n    tag_4:\n      callvalue\n      dup1\n      iszero\n      tag_37\n      jumpi\n      0x00\n      dup1\n      revert\n    tag_37:\n      pop\n      tag_38\n      0x04\n      dup1\n      calldatasize\n      sub\n      dup2\n      add\n      swap1\n      tag_39\n      swap2\n      swap1\n      tag_40\n      jump\t// in\n    tag_39:\n      tag_41\n      jump\t// in\n    tag_38:\n      mload(0x40)\n      tag_42\n      swap2\n      swap1\n      tag_43\n      jump\t// in\n    tag_42:\n      mload(0x40)\n      dup1\n      swap2\n      sub\n      swap1\n      return\n        /* \"contracts/OrderBook.sol\":8424:8528  function getBidValue (uint256 id) public view returns(uint256) {... */\n    tag_5:\n      callvalue\n      dup1\n      iszero\n      tag_44\n      jumpi\n      0x00\n      dup1\n      revert\n    tag_44:\n      pop\n      tag_45\n      0x04\n      dup1\n      calldatasize\n      sub\n      dup2\n      add\n      swap1\n      tag_46\n      swap2\n      swap1\n      tag_35\n      jump\t// in\n    tag_46:\n      tag_47\n      jump\t// in\n    tag_45:\n      mload(0x40)\n      tag_48\n      swap2\n      swap1\n      tag_49\n      jump\t// in\n    tag_48:\n      mload(0x40)\n      dup1\n      swap2\n      sub\n      swap1\n      return\n        /* \"contracts/OrderBook.sol\":7631:7693  function fetchAllBid() public returns (order[] memory) {... */\n    tag_6:\n      callvalue\n      dup1\n      iszero\n      tag_50\n      jumpi\n      0x00\n      dup1\n      revert\n    tag_50:\n      pop\n      tag_51\n      tag_52\n      jump\t// in\n    tag_51:\n      mload(0x40)\n      tag_53\n      swap2\n      swap1\n      tag_54\n      jump\t// in\n    tag_53:\n      mload(0x40)\n      dup1\n      swap2\n      sub\n      swap1\n      return\n        /* \"contracts/OrderBook.sol\":7231:7625  function fetchAsk() public view returns (string memory) {... */\n    tag_7:\n      callvalue\n      dup1\n      iszero\n      tag_55\n      jumpi\n      0x00\n      dup1\n      revert\n    tag_55:\n      pop\n      tag_56\n      tag_57\n      jump\t// in\n    tag_56:\n      mload(0x40)\n      tag_58\n      swap2\n      swap1\n      tag_43\n      jump\t// in\n    tag_58:\n      mload(0x40)\n      dup1\n      swap2\n      sub\n      swap1\n      return\n        /* \"contracts/OrderBook.sol\":8752:8854  function getAskState (uint256 id) public view returns(State) {... */\n    tag_8:\n      callvalue\n      dup1\n      iszero\n      tag_59\n      jumpi\n      0x00\n      dup1\n      revert\n    tag_59:\n      pop\n      tag_60\n      0x04\n      dup1\n      calldatasize\n      sub\n      dup2\n      add\n      swap1\n      tag_61\n      swap2\n      swap1\n      tag_35\n      jump\t// in\n    tag_61:\n      tag_62\n      jump\t// in\n    tag_60:\n      mload(0x40)\n      tag_63\n      swap2\n      swap1\n      tag_64\n      jump\t// in\n    tag_63:\n      mload(0x40)\n      dup1\n      swap2\n      sub\n      swap1\n      return\n        /* \"contracts/OrderBook.sol\":8178:8295  function getBidAddress (uint256 id) public view returns(address payable) {... */\n    tag_9:\n      callvalue\n      dup1\n      iszero\n      tag_65\n      jumpi\n      0x00\n      dup1\n      revert\n    tag_65:\n      pop\n      tag_66\n      0x04\n      dup1\n      calldatasize\n      sub\n      dup2\n      add\n      swap1\n      tag_67\n      swap2\n      swap1\n      tag_35\n      jump\t// in\n    tag_67:\n      tag_68\n      jump\t// in\n    tag_66:\n      mload(0x40)\n      tag_69\n      swap2\n      swap1\n      tag_70\n      jump\t// in\n    tag_69:\n      mload(0x40)\n      dup1\n      swap2\n      sub\n      swap1\n      return\n        /* \"contracts/OrderBook.sol\":1822:1844  uint256 public bidHead */\n    tag_10:\n      callvalue\n      dup1\n      iszero\n      tag_71\n      jumpi\n      0x00\n      dup1\n      revert\n    tag_71:\n      pop\n      tag_72\n      tag_73\n      jump\t// in\n    tag_72:\n      mload(0x40)\n      tag_74\n      swap2\n      swap1\n      tag_49\n      jump\t// in\n    tag_74:\n      mload(0x40)\n      dup1\n      swap2\n      sub\n      swap1\n      return\n        /* \"contracts/OrderBook.sol\":8860:8962  function getAskNext (uint256 id) public view returns(uint256) {... */\n    tag_11:\n      callvalue\n      dup1\n      iszero\n      tag_75\n      jumpi\n      0x00\n      dup1\n      revert\n    tag_75:\n      pop\n      tag_76\n      0x04\n      dup1\n      calldatasize\n      sub\n      dup2\n      add\n      swap1\n      tag_77\n      swap2\n      swap1\n      tag_35\n      jump\t// in\n    tag_77:\n      tag_78\n      jump\t// in\n    tag_76:\n      mload(0x40)\n      tag_79\n      swap2\n      swap1\n      tag_49\n      jump\t// in\n    tag_79:\n      mload(0x40)\n      dup1\n      swap2\n      sub\n      swap1\n      return\n        /* \"contracts/OrderBook.sol\":8301:8418  function getAskAddress (uint256 id) public view returns(address payable) {... */\n    tag_12:\n      callvalue\n      dup1\n      iszero\n      tag_80\n      jumpi\n      0x00\n      dup1\n      revert\n    tag_80:\n      pop\n      tag_81\n      0x04\n      dup1\n      calldatasize\n      sub\n      dup2\n      add\n      swap1\n      tag_82\n      swap2\n      swap1\n      tag_35\n      jump\t// in\n    tag_82:\n      tag_83\n      jump\t// in\n    tag_81:\n      mload(0x40)\n      tag_84\n      swap2\n      swap1\n      tag_70\n      jump\t// in\n    tag_84:\n      mload(0x40)\n      dup1\n      swap2\n      sub\n      swap1\n      return\n        /* \"contracts/OrderBook.sol\":6495:6899  function placeAsk (uint256 price) public payable {... */\n    tag_13:\n      tag_85\n      0x04\n      dup1\n      calldatasize\n      sub\n      dup2\n      add\n      swap1\n      tag_86\n      swap2\n      swap1\n      tag_35\n      jump\t// in\n    tag_86:\n      tag_87\n      jump\t// in\n    tag_85:\n      stop\n        /* \"contracts/OrderBook.sol\":1967:1989  uint256 public askHead */\n    tag_14:\n      callvalue\n      dup1\n      iszero\n      tag_88\n      jumpi\n      0x00\n      dup1\n      revert\n    tag_88:\n      pop\n      tag_89\n      tag_90\n      jump\t// in\n    tag_89:\n      mload(0x40)\n      tag_91\n      swap2\n      swap1\n      tag_49\n      jump\t// in\n    tag_91:\n      mload(0x40)\n      dup1\n      swap2\n      sub\n      swap1\n      return\n        /* \"contracts/OrderBook.sol\":6232:6489  function cancelBid (uint256 bidId) public isPending(bidBook[bidId]) isAuthorised(bidBook[bidId], msg.sender) {... */\n    tag_15:\n      callvalue\n      dup1\n      iszero\n      tag_92\n      jumpi\n      0x00\n      dup1\n      revert\n    tag_92:\n      pop\n      tag_93\n      0x04\n      dup1\n      calldatasize\n      sub\n      dup2\n      add\n      swap1\n      tag_94\n      swap2\n      swap1\n      tag_35\n      jump\t// in\n    tag_94:\n      tag_95\n      jump\t// in\n    tag_93:\n      stop\n        /* \"contracts/OrderBook.sol\":5657:6226  function placeBid (uint256 price) public payable {... */\n    tag_16:\n      tag_96\n      0x04\n      dup1\n      calldatasize\n      sub\n      dup2\n      add\n      swap1\n      tag_97\n      swap2\n      swap1\n      tag_35\n      jump\t// in\n    tag_97:\n      tag_98\n      jump\t// in\n    tag_96:\n      stop\n        /* \"contracts/OrderBook.sol\":1995:2018  uint256 public askCount */\n    tag_17:\n      callvalue\n      dup1\n      iszero\n      tag_99\n      jumpi\n      0x00\n      dup1\n      revert\n    tag_99:\n      pop\n      tag_100\n      tag_101\n      jump\t// in\n    tag_100:\n      mload(0x40)\n      tag_102\n      swap2\n      swap1\n      tag_49\n      jump\t// in\n    tag_102:\n      mload(0x40)\n      dup1\n      swap2\n      sub\n      swap1\n      return\n        /* \"contracts/OrderBook.sol\":1850:1873  uint256 public bidCount */\n    tag_18:\n      callvalue\n      dup1\n      iszero\n      tag_103\n      jumpi\n      0x00\n      dup1\n      revert\n    tag_103:\n      pop\n      tag_104\n      tag_105\n      jump\t// in\n    tag_104:\n      mload(0x40)\n      tag_106\n      swap2\n      swap1\n      tag_49\n      jump\t// in\n    tag_106:\n      mload(0x40)\n      dup1\n      swap2\n      sub\n      swap1\n      return\n        /* \"contracts/OrderBook.sol\":8644:8746  function getBidState (uint256 id) public view returns(State) {... */\n    tag_19:\n      callvalue\n      dup1\n      iszero\n      tag_107\n      jumpi\n      0x00\n      dup1\n      revert\n    tag_107:\n      pop\n      tag_108\n      0x04\n      dup1\n      calldatasize\n      sub\n      dup2\n      add\n      swap1\n      tag_109\n      swap2\n      swap1\n      tag_35\n      jump\t// in\n    tag_109:\n      tag_110\n      jump\t// in\n    tag_108:\n      mload(0x40)\n      tag_111\n      swap2\n      swap1\n      tag_64\n      jump\t// in\n    tag_111:\n      mload(0x40)\n      dup1\n      swap2\n      sub\n      swap1\n      return\n        /* \"contracts/OrderBook.sol\":7700:7768  function fetchYourBidIds() public returns (uint256[] memory) {... */\n    tag_20:\n      callvalue\n      dup1\n      iszero\n      tag_112\n      jumpi\n      0x00\n      dup1\n      revert\n    tag_112:\n      pop\n      tag_113\n      tag_114\n      jump\t// in\n    tag_113:\n      mload(0x40)\n      tag_115\n      swap2\n      swap1\n      tag_31\n      jump\t// in\n    tag_115:\n      mload(0x40)\n      dup1\n      swap2\n      sub\n      swap1\n      return\n        /* \"contracts/OrderBook.sol\":8968:9070  function getAskPrev (uint256 id) public view returns(uint256) {... */\n    tag_21:\n      callvalue\n      dup1\n      iszero\n      tag_116\n      jumpi\n      0x00\n      dup1\n      revert\n    tag_116:\n      pop\n      tag_117\n      0x04\n      dup1\n      calldatasize\n      sub\n      dup2\n      add\n      swap1\n      tag_118\n      swap2\n      swap1\n      tag_35\n      jump\t// in\n    tag_118:\n      tag_119\n      jump\t// in\n    tag_117:\n      mload(0x40)\n      tag_120\n      swap2\n      swap1\n      tag_49\n      jump\t// in\n    tag_120:\n      mload(0x40)\n      dup1\n      swap2\n      sub\n      swap1\n      return\n        /* \"contracts/OrderBook.sol\":7848:8172  function getOrder(uint256 id) public view returns(address payable,uint256,uint256,State,uint256,uint256,uint256,bool) {... */\n    tag_22:\n      callvalue\n      dup1\n      iszero\n      tag_121\n      jumpi\n      0x00\n      dup1\n      revert\n    tag_121:\n      pop\n      tag_122\n      0x04\n      dup1\n      calldatasize\n      sub\n      dup2\n      add\n      swap1\n      tag_123\n      swap2\n      swap1\n      tag_35\n      jump\t// in\n    tag_123:\n      tag_124\n      jump\t// in\n    tag_122:\n      mload(0x40)\n      tag_125\n      swap9\n      swap8\n      swap7\n      swap6\n      swap5\n      swap4\n      swap3\n      swap2\n      swap1\n      tag_126\n      jump\t// in\n    tag_125:\n      mload(0x40)\n      dup1\n      swap2\n      sub\n      swap1\n      return\n        /* \"contracts/OrderBook.sol\":8534:8638  function getAskValue (uint256 id) public view returns(uint256) {... */\n    tag_23:\n      callvalue\n      dup1\n      iszero\n      tag_127\n      jumpi\n      0x00\n      dup1\n      revert\n    tag_127:\n      pop\n      tag_128\n      0x04\n      dup1\n      calldatasize\n      sub\n      dup2\n      add\n      swap1\n      tag_129\n      swap2\n      swap1\n      tag_35\n      jump\t// in\n    tag_129:\n      tag_130\n      jump\t// in\n    tag_128:\n      mload(0x40)\n      tag_131\n      swap2\n      swap1\n      tag_49\n      jump\t// in\n    tag_131:\n      mload(0x40)\n      dup1\n      swap2\n      sub\n      swap1\n      return\n        /* \"contracts/OrderBook.sol\":7774:7842  function fetchYourAskIds() public returns (uint256[] memory) {... */\n    tag_29:\n        /* \"contracts/OrderBook.sol\":7817:7833  uint256[] memory */\n      0x60\n        /* \"contracts/OrderBook.sol\":7774:7842  function fetchYourAskIds() public returns (uint256[] memory) {... */\n      swap1\n      jump\t// out\n        /* \"contracts/OrderBook.sol\":6905:7197  function cancelAsk (uint256 askId) public isPending(askBook[askId]) isAuthorised(askBook[askId], msg.sender) {... */\n    tag_36:\n        /* \"contracts/OrderBook.sol\":6957:6964  askBook */\n      0x06\n        /* \"contracts/OrderBook.sol\":6957:6971  askBook[askId] */\n      0x00\n        /* \"contracts/OrderBook.sol\":6965:6970  askId */\n      dup3\n        /* \"contracts/OrderBook.sol\":6957:6971  askBook[askId] */\n      dup2\n      mstore\n      0x20\n      add\n      swap1\n      dup2\n      mstore\n      0x20\n      add\n      0x00\n      keccak256\n        /* \"contracts/OrderBook.sol\":2492:2615  modifier isPending(order memory _order) {... */\n      mload(0x40)\n      dup1\n      0xe0\n      add\n      0x40\n      mstore\n      swap1\n      dup2\n      0x00\n      dup3\n      add\n      0x00\n      swap1\n      sload\n      swap1\n      0x0100\n      exp\n      swap1\n      div\n      0xffffffffffffffffffffffffffffffffffffffff\n      and\n      0xffffffffffffffffffffffffffffffffffffffff\n      and\n      0xffffffffffffffffffffffffffffffffffffffff\n      and\n      dup2\n      mstore\n      0x20\n      add\n      0x01\n      dup3\n      add\n      sload\n      dup2\n      mstore\n      0x20\n      add\n      0x02\n      dup3\n      add\n      sload\n      dup2\n      mstore\n      0x20\n      add\n      0x03\n      dup3\n      add\n      0x00\n      swap1\n      sload\n      swap1\n      0x0100\n      exp\n      swap1\n      div\n      0xff\n      and\n      0x01\n      dup2\n      gt\n      iszero\n      tag_133\n      jumpi\n      tag_134\n      tag_135\n      jump\t// in\n    tag_134:\n    tag_133:\n      0x01\n      dup2\n      gt\n      iszero\n      tag_136\n      jumpi\n      tag_137\n      tag_135\n      jump\t// in\n    tag_137:\n    tag_136:\n      dup2\n      mstore\n      0x20\n      add\n      0x04\n      dup3\n      add\n      sload\n      dup2\n      mstore\n      0x20\n      add\n      0x05\n      dup3\n      add\n      sload\n      dup2\n      mstore\n      0x20\n      add\n      0x06\n      dup3\n      add\n      sload\n      dup2\n      mstore\n      pop\n      pop\n        /* \"contracts/OrderBook.sol\":2566:2579  State.pending */\n      0x00\n        /* \"contracts/OrderBook.sol\":2550:2579  _order.state == State.pending */\n      0x01\n      dup2\n      gt\n      iszero\n      tag_139\n      jumpi\n      tag_140\n      tag_135\n      jump\t// in\n    tag_140:\n    tag_139:\n        /* \"contracts/OrderBook.sol\":2550:2556  _order */\n      dup2\n        /* \"contracts/OrderBook.sol\":2550:2562  _order.state */\n      0x60\n      add\n      mload\n        /* \"contracts/OrderBook.sol\":2550:2579  _order.state == State.pending */\n      0x01\n      dup2\n      gt\n      iszero\n      tag_141\n      jumpi\n      tag_142\n      tag_135\n      jump\t// in\n    tag_142:\n    tag_141:\n      eq\n        /* \"contracts/OrderBook.sol\":2542:2597  require(_order.state == State.pending, \"Order Pending\") */\n      tag_143\n      jumpi\n      mload(0x40)\n      0x08c379a000000000000000000000000000000000000000000000000000000000\n      dup2\n      mstore\n      0x04\n      add\n      tag_144\n      swap1\n      tag_145\n      jump\t// in\n    tag_144:\n      mload(0x40)\n      dup1\n      swap2\n      sub\n      swap1\n      revert\n    tag_143:\n        /* \"contracts/OrderBook.sol\":6986:6993  askBook */\n      0x06\n        /* \"contracts/OrderBook.sol\":6986:7000  askBook[askId] */\n      0x00\n        /* \"contracts/OrderBook.sol\":6994:6999  askId */\n      dup4\n        /* \"contracts/OrderBook.sol\":6986:7000  askBook[askId] */\n      dup2\n      mstore\n      0x20\n      add\n      swap1\n      dup2\n      mstore\n      0x20\n      add\n      0x00\n      keccak256\n        /* \"contracts/OrderBook.sol\":2621:2760  modifier isAuthorised(order memory _order, address sender) {... */\n      mload(0x40)\n      dup1\n      0xe0\n      add\n      0x40\n      mstore\n      swap1\n      dup2\n      0x00\n      dup3\n      add\n      0x00\n      swap1\n      sload\n      swap1\n      0x0100\n      exp\n      swap1\n      div\n      0xffffffffffffffffffffffffffffffffffffffff\n      and\n      0xffffffffffffffffffffffffffffffffffffffff\n      and\n      0xffffffffffffffffffffffffffffffffffffffff\n      and\n      dup2\n      mstore\n      0x20\n      add\n      0x01\n      dup3\n      add\n      sload\n      dup2\n      mstore\n      0x20\n      add\n      0x02\n      dup3\n      add\n      sload\n      dup2\n      mstore\n      0x20\n      add\n      0x03\n      dup3\n      add\n      0x00\n      swap1\n      sload\n      swap1\n      0x0100\n      exp\n      swap1\n      div\n      0xff\n      and\n      0x01\n      dup2\n      gt\n      iszero\n      tag_146\n      jumpi\n      tag_147\n      tag_135\n      jump\t// in\n    tag_147:\n    tag_146:\n      0x01\n      dup2\n      gt\n      iszero\n      tag_148\n      jumpi\n      tag_149\n      tag_135\n      jump\t// in\n    tag_149:\n    tag_148:\n      dup2\n      mstore\n      0x20\n      add\n      0x04\n      dup3\n      add\n      sload\n      dup2\n      mstore\n      0x20\n      add\n      0x05\n      dup3\n      add\n      sload\n      dup2\n      mstore\n      0x20\n      add\n      0x06\n      dup3\n      add\n      sload\n      dup2\n      mstore\n      pop\n      pop\n        /* \"contracts/OrderBook.sol\":7002:7012  msg.sender */\n      caller\n        /* \"contracts/OrderBook.sol\":2717:2723  sender */\n      dup1\n        /* \"contracts/OrderBook.sol\":2698:2723  _order.customer == sender */\n      0xffffffffffffffffffffffffffffffffffffffff\n      and\n        /* \"contracts/OrderBook.sol\":2698:2704  _order */\n      dup3\n        /* \"contracts/OrderBook.sol\":2698:2713  _order.customer */\n      0x00\n      add\n      mload\n        /* \"contracts/OrderBook.sol\":2698:2723  _order.customer == sender */\n      0xffffffffffffffffffffffffffffffffffffffff\n      and\n      eq\n        /* \"contracts/OrderBook.sol\":2690:2742  require(_order.customer == sender, \"Not Authorised\") */\n      tag_151\n      jumpi\n      mload(0x40)\n      0x08c379a000000000000000000000000000000000000000000000000000000000\n      dup2\n      mstore\n      0x04\n      add\n      tag_152\n      swap1\n      tag_153\n      jump\t// in\n    tag_152:\n      mload(0x40)\n      dup1\n      swap2\n      sub\n      swap1\n      revert\n    tag_151:\n        /* \"contracts/OrderBook.sol\":2607:2608  _ */\n      pop\n      pop\n        /* \"contracts/OrderBook.sol\":6905:7197  function cancelAsk (uint256 askId) public isPending(askBook[askId]) isAuthorised(askBook[askId], msg.sender) {... */\n      pop\n      pop\n      jump\t// out\n        /* \"contracts/OrderBook.sol\":5472:5618  function concatenate(string memory a,string memory b) public pure returns (string memory){... */\n    tag_41:\n        /* \"contracts/OrderBook.sol\":5547:5560  string memory */\n      0x60\n        /* \"contracts/OrderBook.sol\":5602:5603  a */\n      dup3\n        /* \"contracts/OrderBook.sol\":5608:5609  b */\n      dup3\n        /* \"contracts/OrderBook.sol\":5585:5610  abi.encodePacked(a,' ',b) */\n      add(0x20, mload(0x40))\n      tag_156\n      swap3\n      swap2\n      swap1\n      tag_157\n      jump\t// in\n    tag_156:\n      mload(0x40)\n      0x20\n      dup2\n      dup4\n      sub\n      sub\n      dup2\n      mstore\n      swap1\n      0x40\n      mstore\n        /* \"contracts/OrderBook.sol\":5571:5611  return string(abi.encodePacked(a,' ',b)) */\n      swap1\n      pop\n        /* \"contracts/OrderBook.sol\":5472:5618  function concatenate(string memory a,string memory b) public pure returns (string memory){... */\n      swap3\n      swap2\n      pop\n      pop\n      jump\t// out\n        /* \"contracts/OrderBook.sol\":8424:8528  function getBidValue (uint256 id) public view returns(uint256) {... */\n    tag_47:\n        /* \"contracts/OrderBook.sol\":8478:8485  uint256 */\n      0x00\n        /* \"contracts/OrderBook.sol\":8504:8511  bidBook */\n      0x03\n        /* \"contracts/OrderBook.sol\":8504:8515  bidBook[id] */\n      0x00\n        /* \"contracts/OrderBook.sol\":8512:8514  id */\n      dup4\n        /* \"contracts/OrderBook.sol\":8504:8515  bidBook[id] */\n      dup2\n      mstore\n      0x20\n      add\n      swap1\n      dup2\n      mstore\n      0x20\n      add\n      0x00\n      keccak256\n        /* \"contracts/OrderBook.sol\":8504:8521  bidBook[id].value */\n      0x01\n      add\n      sload\n        /* \"contracts/OrderBook.sol\":8497:8521  return bidBook[id].value */\n      swap1\n      pop\n        /* \"contracts/OrderBook.sol\":8424:8528  function getBidValue (uint256 id) public view returns(uint256) {... */\n      swap2\n      swap1\n      pop\n      jump\t// out\n        /* \"contracts/OrderBook.sol\":7631:7693  function fetchAllBid() public returns (order[] memory) {... */\n    tag_52:\n        /* \"contracts/OrderBook.sol\":7670:7684  order[] memory */\n      0x60\n        /* \"contracts/OrderBook.sol\":7631:7693  function fetchAllBid() public returns (order[] memory) {... */\n      swap1\n      jump\t// out\n        /* \"contracts/OrderBook.sol\":7231:7625  function fetchAsk() public view returns (string memory) {... */\n    tag_57:\n        /* \"contracts/OrderBook.sol\":7272:7285  string memory */\n      0x60\n        /* \"contracts/OrderBook.sol\":7297:7312  uint256 current */\n      0x00\n        /* \"contracts/OrderBook.sol\":7315:7322  askHead */\n      sload(0x07)\n        /* \"contracts/OrderBook.sol\":7297:7322  uint256 current = askHead */\n      swap1\n      pop\n        /* \"contracts/OrderBook.sol\":7332:7352  string memory output */\n      0x00\n        /* \"contracts/OrderBook.sol\":7332:7357  string memory output = \"\" */\n      mload(0x40)\n      dup1\n      0x20\n      add\n      0x40\n      mstore\n      dup1\n      0x00\n      dup2\n      mstore\n      pop\n      swap1\n      pop\n        /* \"contracts/OrderBook.sol\":7367:7596  while (current != 0) {... */\n    tag_161:\n        /* \"contracts/OrderBook.sol\":7385:7386  0 */\n      0x00\n        /* \"contracts/OrderBook.sol\":7374:7381  current */\n      dup3\n        /* \"contracts/OrderBook.sol\":7374:7386  current != 0 */\n      eq\n        /* \"contracts/OrderBook.sol\":7367:7596  while (current != 0) {... */\n      tag_162\n      jumpi\n        /* \"contracts/OrderBook.sol\":7402:7414  uint256 next */\n      0x00\n        /* \"contracts/OrderBook.sol\":7417:7424  askBook */\n      0x06\n        /* \"contracts/OrderBook.sol\":7417:7433  askBook[current] */\n      0x00\n        /* \"contracts/OrderBook.sol\":7425:7432  current */\n      dup5\n        /* \"contracts/OrderBook.sol\":7417:7433  askBook[current] */\n      dup2\n      mstore\n      0x20\n      add\n      swap1\n      dup2\n      mstore\n      0x20\n      add\n      0x00\n      keccak256\n        /* \"contracts/OrderBook.sol\":7417:7438  askBook[current].next */\n      0x05\n      add\n      sload\n        /* \"contracts/OrderBook.sol\":7402:7438  uint256 next = askBook[current].next */\n      swap1\n      pop\n        /* \"contracts/OrderBook.sol\":7452:7476  string memory currString */\n      0x00\n        /* \"contracts/OrderBook.sol\":7479:7504  Strings.toString(current) */\n      tag_163\n        /* \"contracts/OrderBook.sol\":7496:7503  current */\n      dup5\n        /* \"contracts/OrderBook.sol\":7479:7495  Strings.toString */\n      tag_164\n        /* \"contracts/OrderBook.sol\":7479:7504  Strings.toString(current) */\n      jump\t// in\n    tag_163:\n        /* \"contracts/OrderBook.sol\":7452:7504  string memory currString = Strings.toString(current) */\n      swap1\n      pop\n        /* \"contracts/OrderBook.sol\":7527:7557  concatenate(output,currString) */\n      tag_165\n        /* \"contracts/OrderBook.sol\":7539:7545  output */\n      dup4\n        /* \"contracts/OrderBook.sol\":7546:7556  currString */\n      dup3\n        /* \"contracts/OrderBook.sol\":7527:7538  concatenate */\n      tag_41\n        /* \"contracts/OrderBook.sol\":7527:7557  concatenate(output,currString) */\n      jump\t// in\n    tag_165:\n        /* \"contracts/OrderBook.sol\":7518:7557  output = concatenate(output,currString) */\n      swap3\n      pop\n        /* \"contracts/OrderBook.sol\":7581:7585  next */\n      dup2\n        /* \"contracts/OrderBook.sol\":7571:7585  current = next */\n      swap4\n      pop\n        /* \"contracts/OrderBook.sol\":7388:7596  {... */\n      pop\n      pop\n        /* \"contracts/OrderBook.sol\":7367:7596  while (current != 0) {... */\n      jump(tag_161)\n    tag_162:\n        /* \"contracts/OrderBook.sol\":7612:7618  output */\n      dup1\n        /* \"contracts/OrderBook.sol\":7605:7618  return output */\n      swap3\n      pop\n      pop\n      pop\n        /* \"contracts/OrderBook.sol\":7231:7625  function fetchAsk() public view returns (string memory) {... */\n      swap1\n      jump\t// out\n        /* \"contracts/OrderBook.sol\":8752:8854  function getAskState (uint256 id) public view returns(State) {... */\n    tag_62:\n        /* \"contracts/OrderBook.sol\":8806:8811  State */\n      0x00\n        /* \"contracts/OrderBook.sol\":8830:8837  askBook */\n      0x06\n        /* \"contracts/OrderBook.sol\":8830:8841  askBook[id] */\n      0x00\n        /* \"contracts/OrderBook.sol\":8838:8840  id */\n      dup4\n        /* \"contracts/OrderBook.sol\":8830:8841  askBook[id] */\n      dup2\n      mstore\n      0x20\n      add\n      swap1\n      dup2\n      mstore\n      0x20\n      add\n      0x00\n      keccak256\n        /* \"contracts/OrderBook.sol\":8830:8847  askBook[id].state */\n      0x03\n      add\n      0x00\n      swap1\n      sload\n      swap1\n      0x0100\n      exp\n      swap1\n      div\n      0xff\n      and\n        /* \"contracts/OrderBook.sol\":8823:8847  return askBook[id].state */\n      swap1\n      pop\n        /* \"contracts/OrderBook.sol\":8752:8854  function getAskState (uint256 id) public view returns(State) {... */\n      swap2\n      swap1\n      pop\n      jump\t// out\n        /* \"contracts/OrderBook.sol\":8178:8295  function getBidAddress (uint256 id) public view returns(address payable) {... */\n    tag_68:\n        /* \"contracts/OrderBook.sol\":8234:8249  address payable */\n      0x00\n        /* \"contracts/OrderBook.sol\":8268:8275  bidBook */\n      0x03\n        /* \"contracts/OrderBook.sol\":8268:8279  bidBook[id] */\n      0x00\n        /* \"contracts/OrderBook.sol\":8276:8278  id */\n      dup4\n        /* \"contracts/OrderBook.sol\":8268:8279  bidBook[id] */\n      dup2\n      mstore\n      0x20\n      add\n      swap1\n      dup2\n      mstore\n      0x20\n      add\n      0x00\n      keccak256\n        /* \"contracts/OrderBook.sol\":8268:8288  bidBook[id].customer */\n      0x00\n      add\n      0x00\n      swap1\n      sload\n      swap1\n      0x0100\n      exp\n      swap1\n      div\n      0xffffffffffffffffffffffffffffffffffffffff\n      and\n        /* \"contracts/OrderBook.sol\":8261:8288  return bidBook[id].customer */\n      swap1\n      pop\n        /* \"contracts/OrderBook.sol\":8178:8295  function getBidAddress (uint256 id) public view returns(address payable) {... */\n      swap2\n      swap1\n      pop\n      jump\t// out\n        /* \"contracts/OrderBook.sol\":1822:1844  uint256 public bidHead */\n    tag_73:\n      sload(0x04)\n      dup2\n      jump\t// out\n        /* \"contracts/OrderBook.sol\":8860:8962  function getAskNext (uint256 id) public view returns(uint256) {... */\n    tag_78:\n        /* \"contracts/OrderBook.sol\":8913:8920  uint256 */\n      0x00\n        /* \"contracts/OrderBook.sol\":8939:8946  askBook */\n      0x06\n        /* \"contracts/OrderBook.sol\":8939:8950  askBook[id] */\n      0x00\n        /* \"contracts/OrderBook.sol\":8947:8949  id */\n      dup4\n        /* \"contracts/OrderBook.sol\":8939:8950  askBook[id] */\n      dup2\n      mstore\n      0x20\n      add\n      swap1\n      dup2\n      mstore\n      0x20\n      add\n      0x00\n      keccak256\n        /* \"contracts/OrderBook.sol\":8939:8955  askBook[id].next */\n      0x05\n      add\n      sload\n        /* \"contracts/OrderBook.sol\":8932:8955  return askBook[id].next */\n      swap1\n      pop\n        /* \"contracts/OrderBook.sol\":8860:8962  function getAskNext (uint256 id) public view returns(uint256) {... */\n      swap2\n      swap1\n      pop\n      jump\t// out\n        /* \"contracts/OrderBook.sol\":8301:8418  function getAskAddress (uint256 id) public view returns(address payable) {... */\n    tag_83:\n        /* \"contracts/OrderBook.sol\":8357:8372  address payable */\n      0x00\n        /* \"contracts/OrderBook.sol\":8391:8398  askBook */\n      0x06\n        /* \"contracts/OrderBook.sol\":8391:8402  askBook[id] */\n      0x00\n        /* \"contracts/OrderBook.sol\":8399:8401  id */\n      dup4\n        /* \"contracts/OrderBook.sol\":8391:8402  askBook[id] */\n      dup2\n      mstore\n      0x20\n      add\n      swap1\n      dup2\n      mstore\n      0x20\n      add\n      0x00\n      keccak256\n        /* \"contracts/OrderBook.sol\":8391:8411  askBook[id].customer */\n      0x00\n      add\n      0x00\n      swap1\n      sload\n      swap1\n      0x0100\n      exp\n      swap1\n      div\n      0xffffffffffffffffffffffffffffffffffffffff\n      and\n        /* \"contracts/OrderBook.sol\":8384:8411  return askBook[id].customer */\n      swap1\n      pop\n        /* \"contracts/OrderBook.sol\":8301:8418  function getAskAddress (uint256 id) public view returns(address payable) {... */\n      swap2\n      swap1\n      pop\n      jump\t// out\n        /* \"contracts/OrderBook.sol\":6495:6899  function placeAsk (uint256 price) public payable {... */\n    tag_87:\n        /* \"contracts/OrderBook.sol\":6571:6572  0 */\n      0x00\n        /* \"contracts/OrderBook.sol\":6562:6567  price */\n      dup2\n        /* \"contracts/OrderBook.sol\":6562:6572  price >= 0 */\n      lt\n      iszero\n        /* \"contracts/OrderBook.sol\":6554:6608  require(price >= 0, \"price value must be more than 0\") */\n      tag_171\n      jumpi\n      mload(0x40)\n      0x08c379a000000000000000000000000000000000000000000000000000000000\n      dup2\n      mstore\n      0x04\n      add\n      tag_172\n      swap1\n      tag_173\n      jump\t// in\n    tag_172:\n      mload(0x40)\n      dup1\n      swap2\n      sub\n      swap1\n      revert\n    tag_171:\n        /* \"contracts/OrderBook.sol\":6639:6644  price */\n      dup1\n        /* \"contracts/OrderBook.sol\":6626:6635  msg.value */\n      callvalue\n        /* \"contracts/OrderBook.sol\":6626:6644  msg.value >= price */\n      lt\n      iszero\n        /* \"contracts/OrderBook.sol\":6618:6679  require(msg.value >= price, \"Not enough blance to place ask\") */\n      tag_174\n      jumpi\n      mload(0x40)\n      0x08c379a000000000000000000000000000000000000000000000000000000000\n      dup2\n      mstore\n      0x04\n      add\n      tag_175\n      swap1\n      tag_176\n      jump\t// in\n    tag_175:\n      mload(0x40)\n      dup1\n      swap2\n      sub\n      swap1\n      revert\n    tag_174:\n        /* \"contracts/OrderBook.sol\":6689:6701  uint256 time */\n      0x00\n        /* \"contracts/OrderBook.sol\":6704:6719  block.timestamp */\n      timestamp\n        /* \"contracts/OrderBook.sol\":6689:6719  uint256 time = block.timestamp */\n      swap1\n      pop\n        /* \"contracts/OrderBook.sol\":6729:6754  uint256 commissionedPrice */\n      0x00\n        /* \"contracts/OrderBook.sol\":6788:6791  100 */\n      0x64\n        /* \"contracts/OrderBook.sol\":6774:6784  commission */\n      sload(0x02)\n        /* \"contracts/OrderBook.sol\":6770:6773  100 */\n      0x64\n        /* \"contracts/OrderBook.sol\":6770:6784  100-commission */\n      tag_177\n      swap2\n      swap1\n      tag_178\n      jump\t// in\n    tag_177:\n        /* \"contracts/OrderBook.sol\":6757:6766  msg.value */\n      callvalue\n        /* \"contracts/OrderBook.sol\":6757:6785  msg.value * (100-commission) */\n      tag_179\n      swap2\n      swap1\n      tag_180\n      jump\t// in\n    tag_179:\n        /* \"contracts/OrderBook.sol\":6757:6791  msg.value * (100-commission) / 100 */\n      tag_181\n      swap2\n      swap1\n      tag_182\n      jump\t// in\n    tag_181:\n        /* \"contracts/OrderBook.sol\":6729:6791  uint256 commissionedPrice = msg.value * (100-commission) / 100 */\n      swap1\n      pop\n        /* \"contracts/OrderBook.sol\":6801:6820  order memory newAsk */\n      0x00\n        /* \"contracts/OrderBook.sol\":6823:6867  createAsk(msg.sender,commissionedPrice,time) */\n      tag_183\n        /* \"contracts/OrderBook.sol\":6833:6843  msg.sender */\n      caller\n        /* \"contracts/OrderBook.sol\":6844:6861  commissionedPrice */\n      dup4\n        /* \"contracts/OrderBook.sol\":6862:6866  time */\n      dup6\n        /* \"contracts/OrderBook.sol\":6823:6832  createAsk */\n      tag_184\n        /* \"contracts/OrderBook.sol\":6823:6867  createAsk(msg.sender,commissionedPrice,time) */\n      jump\t// in\n    tag_183:\n        /* \"contracts/OrderBook.sol\":6801:6867  order memory newAsk = createAsk(msg.sender,commissionedPrice,time) */\n      swap1\n      pop\n        /* \"contracts/OrderBook.sol\":6877:6892  sortAsk(newAsk) */\n      tag_185\n        /* \"contracts/OrderBook.sol\":6885:6891  newAsk */\n      dup2\n        /* \"contracts/OrderBook.sol\":6877:6884  sortAsk */\n      tag_186\n        /* \"contracts/OrderBook.sol\":6877:6892  sortAsk(newAsk) */\n      jump\t// in\n    tag_185:\n        /* \"contracts/OrderBook.sol\":6544:6899  {... */\n      pop\n      pop\n      pop\n        /* \"contracts/OrderBook.sol\":6495:6899  function placeAsk (uint256 price) public payable {... */\n      pop\n      jump\t// out\n        /* \"contracts/OrderBook.sol\":1967:1989  uint256 public askHead */\n    tag_90:\n      sload(0x07)\n      dup2\n      jump\t// out\n        /* \"contracts/OrderBook.sol\":6232:6489  function cancelBid (uint256 bidId) public isPending(bidBook[bidId]) isAuthorised(bidBook[bidId], msg.sender) {... */\n    tag_95:\n        /* \"contracts/OrderBook.sol\":6284:6291  bidBook */\n      0x03\n        /* \"contracts/OrderBook.sol\":6284:6298  bidBook[bidId] */\n      0x00\n        /* \"contracts/OrderBook.sol\":6292:6297  bidId */\n      dup3\n        /* \"contracts/OrderBook.sol\":6284:6298  bidBook[bidId] */\n      dup2\n      mstore\n      0x20\n      add\n      swap1\n      dup2\n      mstore\n      0x20\n      add\n      0x00\n      keccak256\n        /* \"contracts/OrderBook.sol\":2492:2615  modifier isPending(order memory _order) {... */\n      mload(0x40)\n      dup1\n      0xe0\n      add\n      0x40\n      mstore\n      swap1\n      dup2\n      0x00\n      dup3\n      add\n      0x00\n      swap1\n      sload\n      swap1\n      0x0100\n      exp\n      swap1\n      div\n      0xffffffffffffffffffffffffffffffffffffffff\n      and\n      0xffffffffffffffffffffffffffffffffffffffff\n      and\n      0xffffffffffffffffffffffffffffffffffffffff\n      and\n      dup2\n      mstore\n      0x20\n      add\n      0x01\n      dup3\n      add\n      sload\n      dup2\n      mstore\n      0x20\n      add\n      0x02\n      dup3\n      add\n      sload\n      dup2\n      mstore\n      0x20\n      add\n      0x03\n      dup3\n      add\n      0x00\n      swap1\n      sload\n      swap1\n      0x0100\n      exp\n      swap1\n      div\n      0xff\n      and\n      0x01\n      dup2\n      gt\n      iszero\n      tag_187\n      jumpi\n      tag_188\n      tag_135\n      jump\t// in\n    tag_188:\n    tag_187:\n      0x01\n      dup2\n      gt\n      iszero\n      tag_189\n      jumpi\n      tag_190\n      tag_135\n      jump\t// in\n    tag_190:\n    tag_189:\n      dup2\n      mstore\n      0x20\n      add\n      0x04\n      dup3\n      add\n      sload\n      dup2\n      mstore\n      0x20\n      add\n      0x05\n      dup3\n      add\n      sload\n      dup2\n      mstore\n      0x20\n      add\n      0x06\n      dup3\n      add\n      sload\n      dup2\n      mstore\n      pop\n      pop\n        /* \"contracts/OrderBook.sol\":2566:2579  State.pending */\n      0x00\n        /* \"contracts/OrderBook.sol\":2550:2579  _order.state == State.pending */\n      0x01\n      dup2\n      gt\n      iszero\n      tag_192\n      jumpi\n      tag_193\n      tag_135\n      jump\t// in\n    tag_193:\n    tag_192:\n        /* \"contracts/OrderBook.sol\":2550:2556  _order */\n      dup2\n        /* \"contracts/OrderBook.sol\":2550:2562  _order.state */\n      0x60\n      add\n      mload\n        /* \"contracts/OrderBook.sol\":2550:2579  _order.state == State.pending */\n      0x01\n      dup2\n      gt\n      iszero\n      tag_194\n      jumpi\n      tag_195\n      tag_135\n      jump\t// in\n    tag_195:\n    tag_194:\n      eq\n        /* \"contracts/OrderBook.sol\":2542:2597  require(_order.state == State.pending, \"Order Pending\") */\n      tag_196\n      jumpi\n      mload(0x40)\n      0x08c379a000000000000000000000000000000000000000000000000000000000\n      dup2\n      mstore\n      0x04\n      add\n      tag_197\n      swap1\n      tag_145\n      jump\t// in\n    tag_197:\n      mload(0x40)\n      dup1\n      swap2\n      sub\n      swap1\n      revert\n    tag_196:\n        /* \"contracts/OrderBook.sol\":6313:6320  bidBook */\n      0x03\n        /* \"contracts/OrderBook.sol\":6313:6327  bidBook[bidId] */\n      0x00\n        /* \"contracts/OrderBook.sol\":6321:6326  bidId */\n      dup4\n        /* \"contracts/OrderBook.sol\":6313:6327  bidBook[bidId] */\n      dup2\n      mstore\n      0x20\n      add\n      swap1\n      dup2\n      mstore\n      0x20\n      add\n      0x00\n      keccak256\n        /* \"contracts/OrderBook.sol\":2621:2760  modifier isAuthorised(order memory _order, address sender) {... */\n      mload(0x40)\n      dup1\n      0xe0\n      add\n      0x40\n      mstore\n      swap1\n      dup2\n      0x00\n      dup3\n      add\n      0x00\n      swap1\n      sload\n      swap1\n      0x0100\n      exp\n      swap1\n      div\n      0xffffffffffffffffffffffffffffffffffffffff\n      and\n      0xffffffffffffffffffffffffffffffffffffffff\n      and\n      0xffffffffffffffffffffffffffffffffffffffff\n      and\n      dup2\n      mstore\n      0x20\n      add\n      0x01\n      dup3\n      add\n      sload\n      dup2\n      mstore\n      0x20\n      add\n      0x02\n      dup3\n      add\n      sload\n      dup2\n      mstore\n      0x20\n      add\n      0x03\n      dup3\n      add\n      0x00\n      swap1\n      sload\n      swap1\n      0x0100\n      exp\n      swap1\n      div\n      0xff\n      and\n      0x01\n      dup2\n      gt\n      iszero\n      tag_198\n      jumpi\n      tag_199\n      tag_135\n      jump\t// in\n    tag_199:\n    tag_198:\n      0x01\n      dup2\n      gt\n      iszero\n      tag_200\n      jumpi\n      tag_201\n      tag_135\n      jump\t// in\n    tag_201:\n    tag_200:\n      dup2\n      mstore\n      0x20\n      add\n      0x04\n      dup3\n      add\n      sload\n      dup2\n      mstore\n      0x20\n      add\n      0x05\n      dup3\n      add\n      sload\n      dup2\n      mstore\n      0x20\n      add\n      0x06\n      dup3\n      add\n      sload\n      dup2\n      mstore\n      pop\n      pop\n        /* \"contracts/OrderBook.sol\":6329:6339  msg.sender */\n      caller\n        /* \"contracts/OrderBook.sol\":2717:2723  sender */\n      dup1\n        /* \"contracts/OrderBook.sol\":2698:2723  _order.customer == sender */\n      0xffffffffffffffffffffffffffffffffffffffff\n      and\n        /* \"contracts/OrderBook.sol\":2698:2704  _order */\n      dup3\n        /* \"contracts/OrderBook.sol\":2698:2713  _order.customer */\n      0x00\n      add\n      mload\n        /* \"contracts/OrderBook.sol\":2698:2723  _order.customer == sender */\n      0xffffffffffffffffffffffffffffffffffffffff\n      and\n      eq\n        /* \"contracts/OrderBook.sol\":2690:2742  require(_order.customer == sender, \"Not Authorised\") */\n      tag_203\n      jumpi\n      mload(0x40)\n      0x08c379a000000000000000000000000000000000000000000000000000000000\n      dup2\n      mstore\n      0x04\n      add\n      tag_204\n      swap1\n      tag_153\n      jump\t// in\n    tag_204:\n      mload(0x40)\n      dup1\n      swap2\n      sub\n      swap1\n      revert\n    tag_203:\n        /* \"contracts/OrderBook.sol\":2607:2608  _ */\n      pop\n      pop\n        /* \"contracts/OrderBook.sol\":6232:6489  function cancelBid (uint256 bidId) public isPending(bidBook[bidId]) isAuthorised(bidBook[bidId], msg.sender) {... */\n      pop\n      pop\n      jump\t// out\n        /* \"contracts/OrderBook.sol\":5657:6226  function placeBid (uint256 price) public payable {... */\n    tag_98:\n        /* \"contracts/OrderBook.sol\":5733:5734  0 */\n      0x00\n        /* \"contracts/OrderBook.sol\":5724:5729  price */\n      dup2\n        /* \"contracts/OrderBook.sol\":5724:5734  price >= 0 */\n      lt\n      iszero\n        /* \"contracts/OrderBook.sol\":5716:5770  require(price >= 0, \"price value must be more than 0\") */\n      tag_207\n      jumpi\n      mload(0x40)\n      0x08c379a000000000000000000000000000000000000000000000000000000000\n      dup2\n      mstore\n      0x04\n      add\n      tag_208\n      swap1\n      tag_173\n      jump\t// in\n    tag_208:\n      mload(0x40)\n      dup1\n      swap2\n      sub\n      swap1\n      revert\n    tag_207:\n        /* \"contracts/OrderBook.sol\":5801:5806  price */\n      dup1\n        /* \"contracts/OrderBook.sol\":5788:5797  msg.value */\n      callvalue\n        /* \"contracts/OrderBook.sol\":5788:5806  msg.value >= price */\n      lt\n      iszero\n        /* \"contracts/OrderBook.sol\":5780:5841  require(msg.value >= price, \"Not enough blance to place bid\") */\n      tag_209\n      jumpi\n      mload(0x40)\n      0x08c379a000000000000000000000000000000000000000000000000000000000\n      dup2\n      mstore\n      0x04\n      add\n      tag_210\n      swap1\n      tag_211\n      jump\t// in\n    tag_210:\n      mload(0x40)\n      dup1\n      swap2\n      sub\n      swap1\n      revert\n    tag_209:\n        /* \"contracts/OrderBook.sol\":5657:6226  function placeBid (uint256 price) public payable {... */\n      pop\n      jump\t// out\n        /* \"contracts/OrderBook.sol\":1995:2018  uint256 public askCount */\n    tag_101:\n      sload(0x08)\n      dup2\n      jump\t// out\n        /* \"contracts/OrderBook.sol\":1850:1873  uint256 public bidCount */\n    tag_105:\n      sload(0x05)\n      dup2\n      jump\t// out\n        /* \"contracts/OrderBook.sol\":8644:8746  function getBidState (uint256 id) public view returns(State) {... */\n    tag_110:\n        /* \"contracts/OrderBook.sol\":8698:8703  State */\n      0x00\n        /* \"contracts/OrderBook.sol\":8722:8729  bidBook */\n      0x03\n        /* \"contracts/OrderBook.sol\":8722:8733  bidBook[id] */\n      0x00\n        /* \"contracts/OrderBook.sol\":8730:8732  id */\n      dup4\n        /* \"contracts/OrderBook.sol\":8722:8733  bidBook[id] */\n      dup2\n      mstore\n      0x20\n      add\n      swap1\n      dup2\n      mstore\n      0x20\n      add\n      0x00\n      keccak256\n        /* \"contracts/OrderBook.sol\":8722:8739  bidBook[id].state */\n      0x03\n      add\n      0x00\n      swap1\n      sload\n      swap1\n      0x0100\n      exp\n      swap1\n      div\n      0xff\n      and\n        /* \"contracts/OrderBook.sol\":8715:8739  return bidBook[id].state */\n      swap1\n      pop\n        /* \"contracts/OrderBook.sol\":8644:8746  function getBidState (uint256 id) public view returns(State) {... */\n      swap2\n      swap1\n      pop\n      jump\t// out\n        /* \"contracts/OrderBook.sol\":7700:7768  function fetchYourBidIds() public returns (uint256[] memory) {... */\n    tag_114:\n        /* \"contracts/OrderBook.sol\":7743:7759  uint256[] memory */\n      0x60\n        /* \"contracts/OrderBook.sol\":7700:7768  function fetchYourBidIds() public returns (uint256[] memory) {... */\n      swap1\n      jump\t// out\n        /* \"contracts/OrderBook.sol\":8968:9070  function getAskPrev (uint256 id) public view returns(uint256) {... */\n    tag_119:\n        /* \"contracts/OrderBook.sol\":9021:9028  uint256 */\n      0x00\n        /* \"contracts/OrderBook.sol\":9047:9054  askBook */\n      0x06\n        /* \"contracts/OrderBook.sol\":9047:9058  askBook[id] */\n      0x00\n        /* \"contracts/OrderBook.sol\":9055:9057  id */\n      dup4\n        /* \"contracts/OrderBook.sol\":9047:9058  askBook[id] */\n      dup2\n      mstore\n      0x20\n      add\n      swap1\n      dup2\n      mstore\n      0x20\n      add\n      0x00\n      keccak256\n        /* \"contracts/OrderBook.sol\":9047:9063  askBook[id].prev */\n      0x06\n      add\n      sload\n        /* \"contracts/OrderBook.sol\":9040:9063  return askBook[id].prev */\n      swap1\n      pop\n        /* \"contracts/OrderBook.sol\":8968:9070  function getAskPrev (uint256 id) public view returns(uint256) {... */\n      swap2\n      swap1\n      pop\n      jump\t// out\n        /* \"contracts/OrderBook.sol\":7848:8172  function getOrder(uint256 id) public view returns(address payable,uint256,uint256,State,uint256,uint256,uint256,bool) {... */\n    tag_124:\n        /* \"contracts/OrderBook.sol\":7898:7913  address payable */\n      0x00\n        /* \"contracts/OrderBook.sol\":7914:7921  uint256 */\n      dup1\n        /* \"contracts/OrderBook.sol\":7922:7929  uint256 */\n      0x00\n        /* \"contracts/OrderBook.sol\":7930:7935  State */\n      dup1\n        /* \"contracts/OrderBook.sol\":7936:7943  uint256 */\n      0x00\n        /* \"contracts/OrderBook.sol\":7944:7951  uint256 */\n      dup1\n        /* \"contracts/OrderBook.sol\":7952:7959  uint256 */\n      0x00\n        /* \"contracts/OrderBook.sol\":7960:7964  bool */\n      dup1\n        /* \"contracts/OrderBook.sol\":7848:8172  function getOrder(uint256 id) public view returns(address payable,uint256,uint256,State,uint256,uint256,uint256,bool) {... */\n      swap2\n      swap4\n      swap6\n      swap8\n      pop\n      swap2\n      swap4\n      swap6\n      swap8\n      jump\t// out\n        /* \"contracts/OrderBook.sol\":8534:8638  function getAskValue (uint256 id) public view returns(uint256) {... */\n    tag_130:\n        /* \"contracts/OrderBook.sol\":8588:8595  uint256 */\n      0x00\n        /* \"contracts/OrderBook.sol\":8614:8621  askBook */\n      0x06\n        /* \"contracts/OrderBook.sol\":8614:8625  askBook[id] */\n      0x00\n        /* \"contracts/OrderBook.sol\":8622:8624  id */\n      dup4\n        /* \"contracts/OrderBook.sol\":8614:8625  askBook[id] */\n      dup2\n      mstore\n      0x20\n      add\n      swap1\n      dup2\n      mstore\n      0x20\n      add\n      0x00\n      keccak256\n        /* \"contracts/OrderBook.sol\":8614:8631  askBook[id].value */\n      0x01\n      add\n      sload\n        /* \"contracts/OrderBook.sol\":8607:8631  return askBook[id].value */\n      swap1\n      pop\n        /* \"contracts/OrderBook.sol\":8534:8638  function getAskValue (uint256 id) public view returns(uint256) {... */\n      swap2\n      swap1\n      pop\n      jump\t// out\n        /* \"contracts/Strings.sol\":328:1031  function toString(uint256 value) internal pure returns (string memory) {... */\n    tag_164:\n        /* \"contracts/Strings.sol\":384:397  string memory */\n      0x60\n        /* \"contracts/Strings.sol\":610:611  0 */\n      0x00\n        /* \"contracts/Strings.sol\":601:606  value */\n      dup3\n        /* \"contracts/Strings.sol\":601:611  value == 0 */\n      eq\n        /* \"contracts/Strings.sol\":597:648  if (value == 0) {... */\n      iszero\n      tag_218\n      jumpi\n        /* \"contracts/Strings.sol\":627:637  return \"0\" */\n      mload(0x40)\n      dup1\n      0x40\n      add\n      0x40\n      mstore\n      dup1\n      0x01\n      dup2\n      mstore\n      0x20\n      add\n      0x3000000000000000000000000000000000000000000000000000000000000000\n      dup2\n      mstore\n      pop\n      swap1\n      pop\n      jump(tag_217)\n        /* \"contracts/Strings.sol\":597:648  if (value == 0) {... */\n    tag_218:\n        /* \"contracts/Strings.sol\":657:669  uint256 temp */\n      0x00\n        /* \"contracts/Strings.sol\":672:677  value */\n      dup3\n        /* \"contracts/Strings.sol\":657:677  uint256 temp = value */\n      swap1\n      pop\n        /* \"contracts/Strings.sol\":687:701  uint256 digits */\n      0x00\n        /* \"contracts/Strings.sol\":711:786  while (temp != 0) {... */\n    tag_219:\n        /* \"contracts/Strings.sol\":726:727  0 */\n      0x00\n        /* \"contracts/Strings.sol\":718:722  temp */\n      dup3\n        /* \"contracts/Strings.sol\":718:727  temp != 0 */\n      eq\n        /* \"contracts/Strings.sol\":711:786  while (temp != 0) {... */\n      tag_220\n      jumpi\n        /* \"contracts/Strings.sol\":743:751  digits++ */\n      dup1\n      dup1\n      tag_221\n      swap1\n      tag_222\n      jump\t// in\n    tag_221:\n      swap2\n      pop\n      pop\n        /* \"contracts/Strings.sol\":773:775  10 */\n      0x0a\n        /* \"contracts/Strings.sol\":765:775  temp /= 10 */\n      dup3\n      tag_223\n      swap2\n      swap1\n      tag_182\n      jump\t// in\n    tag_223:\n      swap2\n      pop\n        /* \"contracts/Strings.sol\":711:786  while (temp != 0) {... */\n      jump(tag_219)\n    tag_220:\n        /* \"contracts/Strings.sol\":795:814  bytes memory buffer */\n      0x00\n        /* \"contracts/Strings.sol\":827:833  digits */\n      dup2\n        /* \"contracts/Strings.sol\":817:834  new bytes(digits) */\n      0xffffffffffffffff\n      dup2\n      gt\n      iszero\n      tag_224\n      jumpi\n      tag_225\n      tag_226\n      jump\t// in\n    tag_225:\n    tag_224:\n      mload(0x40)\n      swap1\n      dup1\n      dup3\n      mstore\n      dup1\n      0x1f\n      add\n      not(0x1f)\n      and\n      0x20\n      add\n      dup3\n      add\n      0x40\n      mstore\n      dup1\n      iszero\n      tag_227\n      jumpi\n      dup2\n      0x20\n      add\n      0x01\n      dup3\n      mul\n      dup1\n      calldatasize\n      dup4\n      calldatacopy\n      dup1\n      dup3\n      add\n      swap2\n      pop\n      pop\n      swap1\n      pop\n    tag_227:\n      pop\n        /* \"contracts/Strings.sol\":795:834  bytes memory buffer = new bytes(digits) */\n      swap1\n      pop\n        /* \"contracts/Strings.sol\":844:994  while (value != 0) {... */\n    tag_228:\n        /* \"contracts/Strings.sol\":860:861  0 */\n      0x00\n        /* \"contracts/Strings.sol\":851:856  value */\n      dup6\n        /* \"contracts/Strings.sol\":851:861  value != 0 */\n      eq\n        /* \"contracts/Strings.sol\":844:994  while (value != 0) {... */\n      tag_229\n      jumpi\n        /* \"contracts/Strings.sol\":887:888  1 */\n      0x01\n        /* \"contracts/Strings.sol\":877:888  digits -= 1 */\n      dup3\n      tag_230\n      swap2\n      swap1\n      tag_178\n      jump\t// in\n    tag_230:\n      swap2\n      pop\n        /* \"contracts/Strings.sol\":953:955  10 */\n      0x0a\n        /* \"contracts/Strings.sol\":945:950  value */\n      dup6\n        /* \"contracts/Strings.sol\":945:955  value % 10 */\n      tag_231\n      swap2\n      swap1\n      tag_232\n      jump\t// in\n    tag_231:\n        /* \"contracts/Strings.sol\":932:934  48 */\n      0x30\n        /* \"contracts/Strings.sol\":932:956  48 + uint256(value % 10) */\n      tag_233\n      swap2\n      swap1\n      tag_234\n      jump\t// in\n    tag_233:\n        /* \"contracts/Strings.sol\":919:958  bytes1(uint8(48 + uint256(value % 10))) */\n      0xf8\n      shl\n        /* \"contracts/Strings.sol\":902:908  buffer */\n      dup2\n        /* \"contracts/Strings.sol\":909:915  digits */\n      dup4\n        /* \"contracts/Strings.sol\":902:916  buffer[digits] */\n      dup2\n      mload\n      dup2\n      lt\n      tag_235\n      jumpi\n      tag_236\n      tag_237\n      jump\t// in\n    tag_236:\n    tag_235:\n      0x20\n      add\n      add\n        /* \"contracts/Strings.sol\":902:958  buffer[digits] = bytes1(uint8(48 + uint256(value % 10))) */\n      swap1\n      not(0xffffffffffffffffffffffffffffffffffffffffffffffffffffffffffffff)\n      and\n      swap1\n      dup2\n      0x00\n      byte\n      swap1\n      mstore8\n      pop\n        /* \"contracts/Strings.sol\":981:983  10 */\n      0x0a\n        /* \"contracts/Strings.sol\":972:983  value /= 10 */\n      dup6\n      tag_238\n      swap2\n      swap1\n      tag_182\n      jump\t// in\n    tag_238:\n      swap5\n      pop\n        /* \"contracts/Strings.sol\":844:994  while (value != 0) {... */\n      jump(tag_228)\n    tag_229:\n        /* \"contracts/Strings.sol\":1017:1023  buffer */\n      dup1\n        /* \"contracts/Strings.sol\":1003:1024  return string(buffer) */\n      swap4\n      pop\n      pop\n      pop\n      pop\n        /* \"contracts/Strings.sol\":328:1031  function toString(uint256 value) internal pure returns (string memory) {... */\n    tag_217:\n      swap2\n      swap1\n      pop\n      jump\t// out\n        /* \"contracts/OrderBook.sol\":3277:3755  function createAsk(address customer, uint256 value, uint256 timestamp) internal returns (order memory) {... */\n    tag_184:\n        /* \"contracts/OrderBook.sol\":3366:3378  order memory */\n      tag_239\n      tag_240\n      jump\t// in\n    tag_239:\n        /* \"contracts/OrderBook.sol\":3390:3398  askCount */\n      0x08\n      0x00\n        /* \"contracts/OrderBook.sol\":3390:3401  askCount ++ */\n      dup2\n      sload\n      dup1\n      swap3\n      swap2\n      swap1\n      tag_242\n      swap1\n      tag_222\n      jump\t// in\n    tag_242:\n      swap2\n      swap1\n      pop\n      sstore\n      pop\n        /* \"contracts/OrderBook.sol\":3411:3430  order memory newAsk */\n      0x00\n        /* \"contracts/OrderBook.sol\":3433:3600  order(... */\n      mload(0x40)\n      dup1\n      0xe0\n      add\n      0x40\n      mstore\n      dup1\n        /* \"contracts/OrderBook.sol\":3460:3468  customer */\n      dup7\n        /* \"contracts/OrderBook.sol\":3433:3600  order(... */\n      0xffffffffffffffffffffffffffffffffffffffff\n      and\n      dup2\n      mstore\n      0x20\n      add\n        /* \"contracts/OrderBook.sol\":3483:3488  value */\n      dup6\n        /* \"contracts/OrderBook.sol\":3433:3600  order(... */\n      dup2\n      mstore\n      0x20\n      add\n        /* \"contracts/OrderBook.sol\":3502:3511  timestamp */\n      dup5\n        /* \"contracts/OrderBook.sol\":3433:3600  order(... */\n      dup2\n      mstore\n      0x20\n      add\n        /* \"contracts/OrderBook.sol\":3525:3538  State.pending */\n      0x00\n        /* \"contracts/OrderBook.sol\":3433:3600  order(... */\n      0x01\n      dup2\n      gt\n      iszero\n      tag_243\n      jumpi\n      tag_244\n      tag_135\n      jump\t// in\n    tag_244:\n    tag_243:\n      dup2\n      mstore\n      0x20\n      add\n        /* \"contracts/OrderBook.sol\":3552:3560  askCount */\n      sload(0x08)\n        /* \"contracts/OrderBook.sol\":3433:3600  order(... */\n      dup2\n      mstore\n      0x20\n      add\n        /* \"contracts/OrderBook.sol\":3574:3575  0 */\n      0x00\n        /* \"contracts/OrderBook.sol\":3433:3600  order(... */\n      dup2\n      mstore\n      0x20\n      add\n        /* \"contracts/OrderBook.sol\":3589:3590  0 */\n      0x00\n        /* \"contracts/OrderBook.sol\":3433:3600  order(... */\n      dup2\n      mstore\n      pop\n        /* \"contracts/OrderBook.sol\":3411:3600  order memory newAsk = order(... */\n      swap1\n      pop\n        /* \"contracts/OrderBook.sol\":3630:3636  newAsk */\n      dup1\n        /* \"contracts/OrderBook.sol\":3610:3617  askBook */\n      0x06\n        /* \"contracts/OrderBook.sol\":3610:3627  askBook[askCount] */\n      0x00\n        /* \"contracts/OrderBook.sol\":3618:3626  askCount */\n      sload(0x08)\n        /* \"contracts/OrderBook.sol\":3610:3627  askBook[askCount] */\n      dup2\n      mstore\n      0x20\n      add\n      swap1\n      dup2\n      mstore\n      0x20\n      add\n      0x00\n      keccak256\n        /* \"contracts/OrderBook.sol\":3610:3636  askBook[askCount] = newAsk */\n      0x00\n      dup3\n      add\n      mload\n      dup2\n      0x00\n      add\n      exp(0x0100, 0x00)\n      dup2\n      sload\n      dup2\n      0xffffffffffffffffffffffffffffffffffffffff\n      mul\n      not\n      and\n      swap1\n      dup4\n      0xffffffffffffffffffffffffffffffffffffffff\n      and\n      mul\n      or\n      swap1\n      sstore\n      pop\n      0x20\n      dup3\n      add\n      mload\n      dup2\n      0x01\n      add\n      sstore\n      0x40\n      dup3\n      add\n      mload\n      dup2\n      0x02\n      add\n      sstore\n      0x60\n      dup3\n      add\n      mload\n      dup2\n      0x03\n      add\n      exp(0x0100, 0x00)\n      dup2\n      sload\n      dup2\n      0xff\n      mul\n      not\n      and\n      swap1\n      dup4\n      0x01\n      dup2\n      gt\n      iszero\n      tag_245\n      jumpi\n      tag_246\n      tag_135\n      jump\t// in\n    tag_246:\n    tag_245:\n      mul\n      or\n      swap1\n      sstore\n      pop\n      0x80\n      dup3\n      add\n      mload\n      dup2\n      0x04\n      add\n      sstore\n      0xa0\n      dup3\n      add\n      mload\n      dup2\n      0x05\n      add\n      sstore\n      0xc0\n      dup3\n      add\n      mload\n      dup2\n      0x06\n      add\n      sstore\n      swap1\n      pop\n      pop\n        /* \"contracts/OrderBook.sol\":3651:3722  orderCreated(customer,value,timestamp,State.pending,askCount,0,0,false) */\n      0x93caf6ba1af44020dfe6076e279533e38bd8deefe534c43aa8cc93aad2025b7d\n        /* \"contracts/OrderBook.sol\":3664:3672  customer */\n      dup6\n        /* \"contracts/OrderBook.sol\":3673:3678  value */\n      dup6\n        /* \"contracts/OrderBook.sol\":3679:3688  timestamp */\n      dup6\n        /* \"contracts/OrderBook.sol\":3689:3702  State.pending */\n      0x00\n        /* \"contracts/OrderBook.sol\":3703:3711  askCount */\n      sload(0x08)\n        /* \"contracts/OrderBook.sol\":3712:3713  0 */\n      0x00\n        /* \"contracts/OrderBook.sol\":3714:3715  0 */\n      dup1\n        /* \"contracts/OrderBook.sol\":3716:3721  false */\n      0x00\n        /* \"contracts/OrderBook.sol\":3651:3722  orderCreated(customer,value,timestamp,State.pending,askCount,0,0,false) */\n      mload(0x40)\n      tag_247\n      swap9\n      swap8\n      swap7\n      swap6\n      swap5\n      swap4\n      swap3\n      swap2\n      swap1\n      tag_248\n      jump\t// in\n    tag_247:\n      mload(0x40)\n      dup1\n      swap2\n      sub\n      swap1\n      log1\n        /* \"contracts/OrderBook.sol\":3742:3748  newAsk */\n      dup1\n        /* \"contracts/OrderBook.sol\":3735:3748  return newAsk */\n      swap2\n      pop\n      pop\n        /* \"contracts/OrderBook.sol\":3277:3755  function createAsk(address customer, uint256 value, uint256 timestamp) internal returns (order memory) {... */\n      swap4\n      swap3\n      pop\n      pop\n      pop\n      jump\t// out\n        /* \"contracts/OrderBook.sol\":4358:5223  function sortAsk(order memory newOrder) internal {... */\n    tag_186:\n        /* \"contracts/OrderBook.sol\":4417:4432  uint256 current */\n      0x00\n        /* \"contracts/OrderBook.sol\":4457:4458  0 */\n      dup1\n        /* \"contracts/OrderBook.sol\":4446:4453  askHead */\n      sload(0x07)\n        /* \"contracts/OrderBook.sol\":4446:4458  askHead == 0 */\n      eq\n        /* \"contracts/OrderBook.sol\":4442:5217  if (askHead == 0) {... */\n      iszero\n      tag_250\n      jumpi\n        /* \"contracts/OrderBook.sol\":4484:4492  newOrder */\n      dup2\n        /* \"contracts/OrderBook.sol\":4484:4495  newOrder.id */\n      0x80\n      add\n      mload\n        /* \"contracts/OrderBook.sol\":4474:4481  askHead */\n      0x07\n        /* \"contracts/OrderBook.sol\":4474:4495  askHead = newOrder.id */\n      dup2\n      swap1\n      sstore\n      pop\n        /* \"contracts/OrderBook.sol\":4442:5217  if (askHead == 0) {... */\n      jump(tag_251)\n    tag_250:\n        /* \"contracts/OrderBook.sol\":4542:4550  newOrder */\n      dup2\n        /* \"contracts/OrderBook.sol\":4542:4556  newOrder.value */\n      0x20\n      add\n      mload\n        /* \"contracts/OrderBook.sol\":4516:4523  askBook */\n      0x06\n        /* \"contracts/OrderBook.sol\":4516:4532  askBook[askHead] */\n      0x00\n        /* \"contracts/OrderBook.sol\":4524:4531  askHead */\n      sload(0x07)\n        /* \"contracts/OrderBook.sol\":4516:4532  askBook[askHead] */\n      dup2\n      mstore\n      0x20\n      add\n      swap1\n      dup2\n      mstore\n      0x20\n      add\n      0x00\n      keccak256\n        /* \"contracts/OrderBook.sol\":4516:4538  askBook[askHead].value */\n      0x01\n      add\n      sload\n        /* \"contracts/OrderBook.sol\":4516:4556  askBook[askHead].value >= newOrder.value */\n      lt\n        /* \"contracts/OrderBook.sol\":4512:5217  if (askBook[askHead].value >= newOrder.value) {... */\n      tag_252\n      jumpi\n        /* \"contracts/OrderBook.sol\":4600:4607  askHead */\n      sload(0x07)\n        /* \"contracts/OrderBook.sol\":4572:4579  askBook */\n      0x06\n        /* \"contracts/OrderBook.sol\":4572:4592  askBook[newOrder.id] */\n      0x00\n        /* \"contracts/OrderBook.sol\":4580:4588  newOrder */\n      dup5\n        /* \"contracts/OrderBook.sol\":4580:4591  newOrder.id */\n      0x80\n      add\n      mload\n        /* \"contracts/OrderBook.sol\":4572:4592  askBook[newOrder.id] */\n      dup2\n      mstore\n      0x20\n      add\n      swap1\n      dup2\n      mstore\n      0x20\n      add\n      0x00\n      keccak256\n        /* \"contracts/OrderBook.sol\":4572:4597  askBook[newOrder.id].next */\n      0x05\n      add\n        /* \"contracts/OrderBook.sol\":4572:4607  askBook[newOrder.id].next = askHead */\n      dup2\n      swap1\n      sstore\n      pop\n        /* \"contracts/OrderBook.sol\":4663:4671  newOrder */\n      dup2\n        /* \"contracts/OrderBook.sol\":4663:4674  newOrder.id */\n      0x80\n      add\n      mload\n        /* \"contracts/OrderBook.sol\":4621:4628  askBook */\n      0x06\n        /* \"contracts/OrderBook.sol\":4621:4655  askBook[askBook[newOrder.id].next] */\n      0x00\n        /* \"contracts/OrderBook.sol\":4629:4636  askBook */\n      0x06\n        /* \"contracts/OrderBook.sol\":4629:4649  askBook[newOrder.id] */\n      0x00\n        /* \"contracts/OrderBook.sol\":4637:4645  newOrder */\n      dup7\n        /* \"contracts/OrderBook.sol\":4637:4648  newOrder.id */\n      0x80\n      add\n      mload\n        /* \"contracts/OrderBook.sol\":4629:4649  askBook[newOrder.id] */\n      dup2\n      mstore\n      0x20\n      add\n      swap1\n      dup2\n      mstore\n      0x20\n      add\n      0x00\n      keccak256\n        /* \"contracts/OrderBook.sol\":4629:4654  askBook[newOrder.id].next */\n      0x05\n      add\n      sload\n        /* \"contracts/OrderBook.sol\":4621:4655  askBook[askBook[newOrder.id].next] */\n      dup2\n      mstore\n      0x20\n      add\n      swap1\n      dup2\n      mstore\n      0x20\n      add\n      0x00\n      keccak256\n        /* \"contracts/OrderBook.sol\":4621:4660  askBook[askBook[newOrder.id].next].prev */\n      0x06\n      add\n        /* \"contracts/OrderBook.sol\":4621:4674  askBook[askBook[newOrder.id].next].prev = newOrder.id */\n      dup2\n      swap1\n      sstore\n      pop\n        /* \"contracts/OrderBook.sol\":4698:4706  newOrder */\n      dup2\n        /* \"contracts/OrderBook.sol\":4698:4709  newOrder.id */\n      0x80\n      add\n      mload\n        /* \"contracts/OrderBook.sol\":4688:4695  askHead */\n      0x07\n        /* \"contracts/OrderBook.sol\":4688:4709  askHead = newOrder.id */\n      dup2\n      swap1\n      sstore\n      pop\n        /* \"contracts/OrderBook.sol\":4512:5217  if (askBook[askHead].value >= newOrder.value) {... */\n      jump(tag_253)\n    tag_252:\n        /* \"contracts/OrderBook.sol\":4750:4757  askHead */\n      sload(0x07)\n        /* \"contracts/OrderBook.sol\":4740:4757  current = askHead */\n      swap1\n      pop\n        /* \"contracts/OrderBook.sol\":4771:4927  while (askBook[current].next != 0 && askBook[askBook[current].next].value < newOrder.value) {... */\n    tag_254:\n        /* \"contracts/OrderBook.sol\":4803:4804  0 */\n      0x00\n        /* \"contracts/OrderBook.sol\":4778:4785  askBook */\n      0x06\n        /* \"contracts/OrderBook.sol\":4778:4794  askBook[current] */\n      0x00\n        /* \"contracts/OrderBook.sol\":4786:4793  current */\n      dup4\n        /* \"contracts/OrderBook.sol\":4778:4794  askBook[current] */\n      dup2\n      mstore\n      0x20\n      add\n      swap1\n      dup2\n      mstore\n      0x20\n      add\n      0x00\n      keccak256\n        /* \"contracts/OrderBook.sol\":4778:4799  askBook[current].next */\n      0x05\n      add\n      sload\n        /* \"contracts/OrderBook.sol\":4778:4804  askBook[current].next != 0 */\n      eq\n      iszero\n        /* \"contracts/OrderBook.sol\":4778:4861  askBook[current].next != 0 && askBook[askBook[current].next].value < newOrder.value */\n      dup1\n      iszero\n      tag_256\n      jumpi\n      pop\n        /* \"contracts/OrderBook.sol\":4847:4855  newOrder */\n      dup2\n        /* \"contracts/OrderBook.sol\":4847:4861  newOrder.value */\n      0x20\n      add\n      mload\n        /* \"contracts/OrderBook.sol\":4808:4815  askBook */\n      0x06\n        /* \"contracts/OrderBook.sol\":4808:4838  askBook[askBook[current].next] */\n      0x00\n        /* \"contracts/OrderBook.sol\":4816:4823  askBook */\n      0x06\n        /* \"contracts/OrderBook.sol\":4816:4832  askBook[current] */\n      0x00\n        /* \"contracts/OrderBook.sol\":4824:4831  current */\n      dup6\n        /* \"contracts/OrderBook.sol\":4816:4832  askBook[current] */\n      dup2\n      mstore\n      0x20\n      add\n      swap1\n      dup2\n      mstore\n      0x20\n      add\n      0x00\n      keccak256\n        /* \"contracts/OrderBook.sol\":4816:4837  askBook[current].next */\n      0x05\n      add\n      sload\n        /* \"contracts/OrderBook.sol\":4808:4838  askBook[askBook[current].next] */\n      dup2\n      mstore\n      0x20\n      add\n      swap1\n      dup2\n      mstore\n      0x20\n      add\n      0x00\n      keccak256\n        /* \"contracts/OrderBook.sol\":4808:4844  askBook[askBook[current].next].value */\n      0x01\n      add\n      sload\n        /* \"contracts/OrderBook.sol\":4808:4861  askBook[askBook[current].next].value < newOrder.value */\n      lt\n        /* \"contracts/OrderBook.sol\":4778:4861  askBook[current].next != 0 && askBook[askBook[current].next].value < newOrder.value */\n    tag_256:\n        /* \"contracts/OrderBook.sol\":4771:4927  while (askBook[current].next != 0 && askBook[askBook[current].next].value < newOrder.value) {... */\n      iszero\n      tag_255\n      jumpi\n        /* \"contracts/OrderBook.sol\":4891:4898  askBook */\n      0x06\n        /* \"contracts/OrderBook.sol\":4891:4907  askBook[current] */\n      0x00\n        /* \"contracts/OrderBook.sol\":4899:4906  current */\n      dup3\n        /* \"contracts/OrderBook.sol\":4891:4907  askBook[current] */\n      dup2\n      mstore\n      0x20\n      add\n      swap1\n      dup2\n      mstore\n      0x20\n      add\n      0x00\n      keccak256\n        /* \"contracts/OrderBook.sol\":4891:4912  askBook[current].next */\n      0x05\n      add\n      sload\n        /* \"contracts/OrderBook.sol\":4881:4912  current = askBook[current].next */\n      swap1\n      pop\n        /* \"contracts/OrderBook.sol\":4771:4927  while (askBook[current].next != 0 && askBook[askBook[current].next].value < newOrder.value) {... */\n      jump(tag_254)\n    tag_255:\n        /* \"contracts/OrderBook.sol\":4968:4975  askBook */\n      0x06\n        /* \"contracts/OrderBook.sol\":4968:4984  askBook[current] */\n      0x00\n        /* \"contracts/OrderBook.sol\":4976:4983  current */\n      dup3\n        /* \"contracts/OrderBook.sol\":4968:4984  askBook[current] */\n      dup2\n      mstore\n      0x20\n      add\n      swap1\n      dup2\n      mstore\n      0x20\n      add\n      0x00\n      keccak256\n        /* \"contracts/OrderBook.sol\":4968:4989  askBook[current].next */\n      0x05\n      add\n      sload\n        /* \"contracts/OrderBook.sol\":4940:4947  askBook */\n      0x06\n        /* \"contracts/OrderBook.sol\":4940:4960  askBook[newOrder.id] */\n      0x00\n        /* \"contracts/OrderBook.sol\":4948:4956  newOrder */\n      dup5\n        /* \"contracts/OrderBook.sol\":4948:4959  newOrder.id */\n      0x80\n      add\n      mload\n        /* \"contracts/OrderBook.sol\":4940:4960  askBook[newOrder.id] */\n      dup2\n      mstore\n      0x20\n      add\n      swap1\n      dup2\n      mstore\n      0x20\n      add\n      0x00\n      keccak256\n        /* \"contracts/OrderBook.sol\":4940:4965  askBook[newOrder.id].next */\n      0x05\n      add\n        /* \"contracts/OrderBook.sol\":4940:4989  askBook[newOrder.id].next = askBook[current].next */\n      dup2\n      swap1\n      sstore\n      pop\n        /* \"contracts/OrderBook.sol\":5032:5033  0 */\n      0x00\n        /* \"contracts/OrderBook.sol\":5007:5014  askBook */\n      0x06\n        /* \"contracts/OrderBook.sol\":5007:5023  askBook[current] */\n      0x00\n        /* \"contracts/OrderBook.sol\":5015:5022  current */\n      dup4\n        /* \"contracts/OrderBook.sol\":5007:5023  askBook[current] */\n      dup2\n      mstore\n      0x20\n      add\n      swap1\n      dup2\n      mstore\n      0x20\n      add\n      0x00\n      keccak256\n        /* \"contracts/OrderBook.sol\":5007:5028  askBook[current].next */\n      0x05\n      add\n      sload\n        /* \"contracts/OrderBook.sol\":5007:5033  askBook[current].next != 0 */\n      eq\n        /* \"contracts/OrderBook.sol\":5003:5109  if (askBook[current].next != 0) {... */\n      tag_257\n      jumpi\n        /* \"contracts/OrderBook.sol\":5083:5091  newOrder */\n      dup2\n        /* \"contracts/OrderBook.sol\":5083:5094  newOrder.id */\n      0x80\n      add\n      mload\n        /* \"contracts/OrderBook.sol\":5053:5060  askBook */\n      0x06\n        /* \"contracts/OrderBook.sol\":5053:5075  askBook[newOrder.next] */\n      0x00\n        /* \"contracts/OrderBook.sol\":5061:5069  newOrder */\n      dup5\n        /* \"contracts/OrderBook.sol\":5061:5074  newOrder.next */\n      0xa0\n      add\n      mload\n        /* \"contracts/OrderBook.sol\":5053:5075  askBook[newOrder.next] */\n      dup2\n      mstore\n      0x20\n      add\n      swap1\n      dup2\n      mstore\n      0x20\n      add\n      0x00\n      keccak256\n        /* \"contracts/OrderBook.sol\":5053:5080  askBook[newOrder.next].prev */\n      0x06\n      add\n        /* \"contracts/OrderBook.sol\":5053:5094  askBook[newOrder.next].prev = newOrder.id */\n      dup2\n      swap1\n      sstore\n      pop\n        /* \"contracts/OrderBook.sol\":5003:5109  if (askBook[current].next != 0) {... */\n    tag_257:\n        /* \"contracts/OrderBook.sol\":5146:5154  newOrder */\n      dup2\n        /* \"contracts/OrderBook.sol\":5146:5157  newOrder.id */\n      0x80\n      add\n      mload\n        /* \"contracts/OrderBook.sol\":5122:5129  askBook */\n      0x06\n        /* \"contracts/OrderBook.sol\":5122:5138  askBook[current] */\n      0x00\n        /* \"contracts/OrderBook.sol\":5130:5137  current */\n      dup4\n        /* \"contracts/OrderBook.sol\":5122:5138  askBook[current] */\n      dup2\n      mstore\n      0x20\n      add\n      swap1\n      dup2\n      mstore\n      0x20\n      add\n      0x00\n      keccak256\n        /* \"contracts/OrderBook.sol\":5122:5143  askBook[current].next */\n      0x05\n      add\n        /* \"contracts/OrderBook.sol\":5122:5157  askBook[current].next = newOrder.id */\n      dup2\n      swap1\n      sstore\n      pop\n        /* \"contracts/OrderBook.sol\":5199:5206  current */\n      dup1\n        /* \"contracts/OrderBook.sol\":5171:5178  askBook */\n      0x06\n        /* \"contracts/OrderBook.sol\":5171:5191  askBook[newOrder.id] */\n      0x00\n        /* \"contracts/OrderBook.sol\":5179:5187  newOrder */\n      dup5\n        /* \"contracts/OrderBook.sol\":5179:5190  newOrder.id */\n      0x80\n      add\n      mload\n        /* \"contracts/OrderBook.sol\":5171:5191  askBook[newOrder.id] */\n      dup2\n      mstore\n      0x20\n      add\n      swap1\n      dup2\n      mstore\n      0x20\n      add\n      0x00\n      keccak256\n        /* \"contracts/OrderBook.sol\":5171:5196  askBook[newOrder.id].prev */\n      0x06\n      add\n        /* \"contracts/OrderBook.sol\":5171:5206  askBook[newOrder.id].prev = current */\n      dup2\n      swap1\n      sstore\n      pop\n        /* \"contracts/OrderBook.sol\":4512:5217  if (askBook[askHead].value >= newOrder.value) {... */\n    tag_253:\n        /* \"contracts/OrderBook.sol\":4442:5217  if (askHead == 0) {... */\n    tag_251:\n        /* \"contracts/OrderBook.sol\":4407:5223  {... */\n      pop\n        /* \"contracts/OrderBook.sol\":4358:5223  function sortAsk(order memory newOrder) internal {... */\n      pop\n      jump\t// out\n    tag_240:\n      mload(0x40)\n      dup1\n      0xe0\n      add\n      0x40\n      mstore\n      dup1\n      and(0xffffffffffffffffffffffffffffffffffffffff, 0x00)\n      dup2\n      mstore\n      0x20\n      add\n      0x00\n      dup2\n      mstore\n      0x20\n      add\n      0x00\n      dup2\n      mstore\n      0x20\n      add\n      0x00\n      0x01\n      dup2\n      gt\n      iszero\n      tag_258\n      jumpi\n      tag_259\n      tag_135\n      jump\t// in\n    tag_259:\n    tag_258:\n      dup2\n      mstore\n      0x20\n      add\n      0x00\n      dup2\n      mstore\n      0x20\n      add\n      0x00\n      dup2\n      mstore\n      0x20\n      add\n      0x00\n      dup2\n      mstore\n      pop\n      swap1\n      jump\t// out\n        /* \"#utility.yul\":7:419   */\n    tag_261:\n        /* \"#utility.yul\":85:90   */\n      0x00\n        /* \"#utility.yul\":110:176   */\n      tag_263\n        /* \"#utility.yul\":126:175   */\n      tag_264\n        /* \"#utility.yul\":168:174   */\n      dup5\n        /* \"#utility.yul\":126:175   */\n      tag_265\n      jump\t// in\n    tag_264:\n        /* \"#utility.yul\":110:176   */\n      tag_266\n      jump\t// in\n    tag_263:\n        /* \"#utility.yul\":101:176   */\n      swap1\n      pop\n        /* \"#utility.yul\":199:205   */\n      dup3\n        /* \"#utility.yul\":192:197   */\n      dup2\n        /* \"#utility.yul\":185:206   */\n      mstore\n        /* \"#utility.yul\":237:241   */\n      0x20\n        /* \"#utility.yul\":230:235   */\n      dup2\n        /* \"#utility.yul\":226:242   */\n      add\n        /* \"#utility.yul\":275:278   */\n      dup5\n        /* \"#utility.yul\":266:272   */\n      dup5\n        /* \"#utility.yul\":261:264   */\n      dup5\n        /* \"#utility.yul\":257:273   */\n      add\n        /* \"#utility.yul\":254:279   */\n      gt\n        /* \"#utility.yul\":251:363   */\n      iszero\n      tag_267\n      jumpi\n        /* \"#utility.yul\":282:361   */\n      tag_268\n      tag_269\n      jump\t// in\n    tag_268:\n        /* \"#utility.yul\":251:363   */\n    tag_267:\n        /* \"#utility.yul\":372:413   */\n      tag_270\n        /* \"#utility.yul\":406:412   */\n      dup5\n        /* \"#utility.yul\":401:404   */\n      dup3\n        /* \"#utility.yul\":396:399   */\n      dup6\n        /* \"#utility.yul\":372:413   */\n      tag_271\n      jump\t// in\n    tag_270:\n        /* \"#utility.yul\":91:419   */\n      pop\n        /* \"#utility.yul\":7:419   */\n      swap4\n      swap3\n      pop\n      pop\n      pop\n      jump\t// out\n        /* \"#utility.yul\":439:779   */\n    tag_272:\n        /* \"#utility.yul\":495:500   */\n      0x00\n        /* \"#utility.yul\":544:547   */\n      dup3\n        /* \"#utility.yul\":537:541   */\n      0x1f\n        /* \"#utility.yul\":529:535   */\n      dup4\n        /* \"#utility.yul\":525:542   */\n      add\n        /* \"#utility.yul\":521:548   */\n      slt\n        /* \"#utility.yul\":511:633   */\n      tag_274\n      jumpi\n        /* \"#utility.yul\":552:631   */\n      tag_275\n      tag_276\n      jump\t// in\n    tag_275:\n        /* \"#utility.yul\":511:633   */\n    tag_274:\n        /* \"#utility.yul\":669:675   */\n      dup2\n        /* \"#utility.yul\":656:676   */\n      calldataload\n        /* \"#utility.yul\":694:773   */\n      tag_277\n        /* \"#utility.yul\":769:772   */\n      dup5\n        /* \"#utility.yul\":761:767   */\n      dup3\n        /* \"#utility.yul\":754:758   */\n      0x20\n        /* \"#utility.yul\":746:752   */\n      dup7\n        /* \"#utility.yul\":742:759   */\n      add\n        /* \"#utility.yul\":694:773   */\n      tag_261\n      jump\t// in\n    tag_277:\n        /* \"#utility.yul\":685:773   */\n      swap2\n      pop\n        /* \"#utility.yul\":501:779   */\n      pop\n        /* \"#utility.yul\":439:779   */\n      swap3\n      swap2\n      pop\n      pop\n      jump\t// out\n        /* \"#utility.yul\":785:924   */\n    tag_278:\n        /* \"#utility.yul\":831:836   */\n      0x00\n        /* \"#utility.yul\":869:875   */\n      dup2\n        /* \"#utility.yul\":856:876   */\n      calldataload\n        /* \"#utility.yul\":847:876   */\n      swap1\n      pop\n        /* \"#utility.yul\":885:918   */\n      tag_280\n        /* \"#utility.yul\":912:917   */\n      dup2\n        /* \"#utility.yul\":885:918   */\n      tag_281\n      jump\t// in\n    tag_280:\n        /* \"#utility.yul\":785:924   */\n      swap3\n      swap2\n      pop\n      pop\n      jump\t// out\n        /* \"#utility.yul\":930:1764   */\n    tag_40:\n        /* \"#utility.yul\":1018:1024   */\n      0x00\n        /* \"#utility.yul\":1026:1032   */\n      dup1\n        /* \"#utility.yul\":1075:1077   */\n      0x40\n        /* \"#utility.yul\":1063:1072   */\n      dup4\n        /* \"#utility.yul\":1054:1061   */\n      dup6\n        /* \"#utility.yul\":1050:1073   */\n      sub\n        /* \"#utility.yul\":1046:1078   */\n      slt\n        /* \"#utility.yul\":1043:1162   */\n      iszero\n      tag_283\n      jumpi\n        /* \"#utility.yul\":1081:1160   */\n      tag_284\n      tag_285\n      jump\t// in\n    tag_284:\n        /* \"#utility.yul\":1043:1162   */\n    tag_283:\n        /* \"#utility.yul\":1229:1230   */\n      0x00\n        /* \"#utility.yul\":1218:1227   */\n      dup4\n        /* \"#utility.yul\":1214:1231   */\n      add\n        /* \"#utility.yul\":1201:1232   */\n      calldataload\n        /* \"#utility.yul\":1259:1277   */\n      0xffffffffffffffff\n        /* \"#utility.yul\":1251:1257   */\n      dup2\n        /* \"#utility.yul\":1248:1278   */\n      gt\n        /* \"#utility.yul\":1245:1362   */\n      iszero\n      tag_286\n      jumpi\n        /* \"#utility.yul\":1281:1360   */\n      tag_287\n      tag_288\n      jump\t// in\n    tag_287:\n        /* \"#utility.yul\":1245:1362   */\n    tag_286:\n        /* \"#utility.yul\":1386:1449   */\n      tag_289\n        /* \"#utility.yul\":1441:1448   */\n      dup6\n        /* \"#utility.yul\":1432:1438   */\n      dup3\n        /* \"#utility.yul\":1421:1430   */\n      dup7\n        /* \"#utility.yul\":1417:1439   */\n      add\n        /* \"#utility.yul\":1386:1449   */\n      tag_272\n      jump\t// in\n    tag_289:\n        /* \"#utility.yul\":1376:1449   */\n      swap3\n      pop\n        /* \"#utility.yul\":1172:1459   */\n      pop\n        /* \"#utility.yul\":1526:1528   */\n      0x20\n        /* \"#utility.yul\":1515:1524   */\n      dup4\n        /* \"#utility.yul\":1511:1529   */\n      add\n        /* \"#utility.yul\":1498:1530   */\n      calldataload\n        /* \"#utility.yul\":1557:1575   */\n      0xffffffffffffffff\n        /* \"#utility.yul\":1549:1555   */\n      dup2\n        /* \"#utility.yul\":1546:1576   */\n      gt\n        /* \"#utility.yul\":1543:1660   */\n      iszero\n      tag_290\n      jumpi\n        /* \"#utility.yul\":1579:1658   */\n      tag_291\n      tag_288\n      jump\t// in\n    tag_291:\n        /* \"#utility.yul\":1543:1660   */\n    tag_290:\n        /* \"#utility.yul\":1684:1747   */\n      tag_292\n        /* \"#utility.yul\":1739:1746   */\n      dup6\n        /* \"#utility.yul\":1730:1736   */\n      dup3\n        /* \"#utility.yul\":1719:1728   */\n      dup7\n        /* \"#utility.yul\":1715:1737   */\n      add\n        /* \"#utility.yul\":1684:1747   */\n      tag_272\n      jump\t// in\n    tag_292:\n        /* \"#utility.yul\":1674:1747   */\n      swap2\n      pop\n        /* \"#utility.yul\":1469:1757   */\n      pop\n        /* \"#utility.yul\":930:1764   */\n      swap3\n      pop\n      swap3\n      swap1\n      pop\n      jump\t// out\n        /* \"#utility.yul\":1770:2099   */\n    tag_35:\n        /* \"#utility.yul\":1829:1835   */\n      0x00\n        /* \"#utility.yul\":1878:1880   */\n      0x20\n        /* \"#utility.yul\":1866:1875   */\n      dup3\n        /* \"#utility.yul\":1857:1864   */\n      dup5\n        /* \"#utility.yul\":1853:1876   */\n      sub\n        /* \"#utility.yul\":1849:1881   */\n      slt\n        /* \"#utility.yul\":1846:1965   */\n      iszero\n      tag_294\n      jumpi\n        /* \"#utility.yul\":1884:1963   */\n      tag_295\n      tag_285\n      jump\t// in\n    tag_295:\n        /* \"#utility.yul\":1846:1965   */\n    tag_294:\n        /* \"#utility.yul\":2004:2005   */\n      0x00\n        /* \"#utility.yul\":2029:2082   */\n      tag_296\n        /* \"#utility.yul\":2074:2081   */\n      dup5\n        /* \"#utility.yul\":2065:2071   */\n      dup3\n        /* \"#utility.yul\":2054:2063   */\n      dup6\n        /* \"#utility.yul\":2050:2072   */\n      add\n        /* \"#utility.yul\":2029:2082   */\n      tag_278\n      jump\t// in\n    tag_296:\n        /* \"#utility.yul\":2019:2082   */\n      swap2\n      pop\n        /* \"#utility.yul\":1975:2092   */\n      pop\n        /* \"#utility.yul\":1770:2099   */\n      swap3\n      swap2\n      pop\n      pop\n      jump\t// out\n        /* \"#utility.yul\":2105:2368   */\n    tag_297:\n        /* \"#utility.yul\":2216:2226   */\n      0x00\n        /* \"#utility.yul\":2237:2325   */\n      tag_299\n        /* \"#utility.yul\":2321:2324   */\n      dup4\n        /* \"#utility.yul\":2313:2319   */\n      dup4\n        /* \"#utility.yul\":2237:2325   */\n      tag_300\n      jump\t// in\n    tag_299:\n        /* \"#utility.yul\":2357:2361   */\n      0xe0\n        /* \"#utility.yul\":2352:2355   */\n      dup4\n        /* \"#utility.yul\":2348:2362   */\n      add\n        /* \"#utility.yul\":2334:2362   */\n      swap1\n      pop\n        /* \"#utility.yul\":2105:2368   */\n      swap3\n      swap2\n      pop\n      pop\n      jump\t// out\n        /* \"#utility.yul\":2374:2553   */\n    tag_301:\n        /* \"#utility.yul\":2443:2453   */\n      0x00\n        /* \"#utility.yul\":2464:2510   */\n      tag_303\n        /* \"#utility.yul\":2506:2509   */\n      dup4\n        /* \"#utility.yul\":2498:2504   */\n      dup4\n        /* \"#utility.yul\":2464:2510   */\n      tag_304\n      jump\t// in\n    tag_303:\n        /* \"#utility.yul\":2542:2546   */\n      0x20\n        /* \"#utility.yul\":2537:2540   */\n      dup4\n        /* \"#utility.yul\":2533:2547   */\n      add\n        /* \"#utility.yul\":2519:2547   */\n      swap1\n      pop\n        /* \"#utility.yul\":2374:2553   */\n      swap3\n      swap2\n      pop\n      pop\n      jump\t// out\n        /* \"#utility.yul\":2559:2691   */\n    tag_305:\n        /* \"#utility.yul\":2652:2684   */\n      tag_307\n        /* \"#utility.yul\":2678:2683   */\n      dup2\n        /* \"#utility.yul\":2652:2684   */\n      tag_308\n      jump\t// in\n    tag_307:\n        /* \"#utility.yul\":2647:2650   */\n      dup3\n        /* \"#utility.yul\":2640:2685   */\n      mstore\n        /* \"#utility.yul\":2559:2691   */\n      pop\n      pop\n      jump\t// out\n        /* \"#utility.yul\":2697:2839   */\n    tag_309:\n        /* \"#utility.yul\":2800:2832   */\n      tag_311\n        /* \"#utility.yul\":2826:2831   */\n      dup2\n        /* \"#utility.yul\":2800:2832   */\n      tag_308\n      jump\t// in\n    tag_311:\n        /* \"#utility.yul\":2795:2798   */\n      dup3\n        /* \"#utility.yul\":2788:2833   */\n      mstore\n        /* \"#utility.yul\":2697:2839   */\n      pop\n      pop\n      jump\t// out\n        /* \"#utility.yul\":2845:2963   */\n    tag_312:\n        /* \"#utility.yul\":2932:2956   */\n      tag_314\n        /* \"#utility.yul\":2950:2955   */\n      dup2\n        /* \"#utility.yul\":2932:2956   */\n      tag_315\n      jump\t// in\n    tag_314:\n        /* \"#utility.yul\":2927:2930   */\n      dup3\n        /* \"#utility.yul\":2920:2957   */\n      mstore\n        /* \"#utility.yul\":2845:2963   */\n      pop\n      pop\n      jump\t// out\n        /* \"#utility.yul\":3029:3929   */\n    tag_316:\n        /* \"#utility.yul\":3190:3193   */\n      0x00\n        /* \"#utility.yul\":3219:3294   */\n      tag_318\n        /* \"#utility.yul\":3288:3293   */\n      dup3\n        /* \"#utility.yul\":3219:3294   */\n      tag_319\n      jump\t// in\n    tag_318:\n        /* \"#utility.yul\":3310:3417   */\n      tag_320\n        /* \"#utility.yul\":3410:3416   */\n      dup2\n        /* \"#utility.yul\":3405:3408   */\n      dup6\n        /* \"#utility.yul\":3310:3417   */\n      tag_321\n      jump\t// in\n    tag_320:\n        /* \"#utility.yul\":3303:3417   */\n      swap4\n      pop\n        /* \"#utility.yul\":3441:3518   */\n      tag_322\n        /* \"#utility.yul\":3512:3517   */\n      dup4\n        /* \"#utility.yul\":3441:3518   */\n      tag_323\n      jump\t// in\n    tag_322:\n        /* \"#utility.yul\":3541:3548   */\n      dup1\n        /* \"#utility.yul\":3572:3573   */\n      0x00\n        /* \"#utility.yul\":3557:3904   */\n    tag_324:\n        /* \"#utility.yul\":3582:3588   */\n      dup4\n        /* \"#utility.yul\":3579:3580   */\n      dup2\n        /* \"#utility.yul\":3576:3589   */\n      lt\n        /* \"#utility.yul\":3557:3904   */\n      iszero\n      tag_326\n      jumpi\n        /* \"#utility.yul\":3658:3664   */\n      dup2\n        /* \"#utility.yul\":3652:3665   */\n      mload\n        /* \"#utility.yul\":3685:3790   */\n      tag_327\n        /* \"#utility.yul\":3786:3789   */\n      dup9\n        /* \"#utility.yul\":3771:3784   */\n      dup3\n        /* \"#utility.yul\":3685:3790   */\n      tag_297\n      jump\t// in\n    tag_327:\n        /* \"#utility.yul\":3678:3790   */\n      swap8\n      pop\n        /* \"#utility.yul\":3813:3894   */\n      tag_328\n        /* \"#utility.yul\":3887:3893   */\n      dup4\n        /* \"#utility.yul\":3813:3894   */\n      tag_329\n      jump\t// in\n    tag_328:\n        /* \"#utility.yul\":3803:3894   */\n      swap3\n      pop\n        /* \"#utility.yul\":3617:3904   */\n      pop\n        /* \"#utility.yul\":3604:3605   */\n      0x01\n        /* \"#utility.yul\":3601:3602   */\n      dup2\n        /* \"#utility.yul\":3597:3606   */\n      add\n        /* \"#utility.yul\":3592:3606   */\n      swap1\n      pop\n        /* \"#utility.yul\":3557:3904   */\n      jump(tag_324)\n    tag_326:\n        /* \"#utility.yul\":3561:3575   */\n      pop\n        /* \"#utility.yul\":3920:3923   */\n      dup6\n        /* \"#utility.yul\":3913:3923   */\n      swap4\n      pop\n        /* \"#utility.yul\":3195:3929   */\n      pop\n      pop\n      pop\n        /* \"#utility.yul\":3029:3929   */\n      swap3\n      swap2\n      pop\n      pop\n      jump\t// out\n        /* \"#utility.yul\":3965:4697   */\n    tag_330:\n        /* \"#utility.yul\":4084:4087   */\n      0x00\n        /* \"#utility.yul\":4113:4167   */\n      tag_332\n        /* \"#utility.yul\":4161:4166   */\n      dup3\n        /* \"#utility.yul\":4113:4167   */\n      tag_333\n      jump\t// in\n    tag_332:\n        /* \"#utility.yul\":4183:4269   */\n      tag_334\n        /* \"#utility.yul\":4262:4268   */\n      dup2\n        /* \"#utility.yul\":4257:4260   */\n      dup6\n        /* \"#utility.yul\":4183:4269   */\n      tag_335\n      jump\t// in\n    tag_334:\n        /* \"#utility.yul\":4176:4269   */\n      swap4\n      pop\n        /* \"#utility.yul\":4293:4349   */\n      tag_336\n        /* \"#utility.yul\":4343:4348   */\n      dup4\n        /* \"#utility.yul\":4293:4349   */\n      tag_337\n      jump\t// in\n    tag_336:\n        /* \"#utility.yul\":4372:4379   */\n      dup1\n        /* \"#utility.yul\":4403:4404   */\n      0x00\n        /* \"#utility.yul\":4388:4672   */\n    tag_338:\n        /* \"#utility.yul\":4413:4419   */\n      dup4\n        /* \"#utility.yul\":4410:4411   */\n      dup2\n        /* \"#utility.yul\":4407:4420   */\n      lt\n        /* \"#utility.yul\":4388:4672   */\n      iszero\n      tag_340\n      jumpi\n        /* \"#utility.yul\":4489:4495   */\n      dup2\n        /* \"#utility.yul\":4483:4496   */\n      mload\n        /* \"#utility.yul\":4516:4579   */\n      tag_341\n        /* \"#utility.yul\":4575:4578   */\n      dup9\n        /* \"#utility.yul\":4560:4573   */\n      dup3\n        /* \"#utility.yul\":4516:4579   */\n      tag_301\n      jump\t// in\n    tag_341:\n        /* \"#utility.yul\":4509:4579   */\n      swap8\n      pop\n        /* \"#utility.yul\":4602:4662   */\n      tag_342\n        /* \"#utility.yul\":4655:4661   */\n      dup4\n        /* \"#utility.yul\":4602:4662   */\n      tag_343\n      jump\t// in\n    tag_342:\n        /* \"#utility.yul\":4592:4662   */\n      swap3\n      pop\n        /* \"#utility.yul\":4448:4672   */\n      pop\n        /* \"#utility.yul\":4435:4436   */\n      0x01\n        /* \"#utility.yul\":4432:4433   */\n      dup2\n        /* \"#utility.yul\":4428:4437   */\n      add\n        /* \"#utility.yul\":4423:4437   */\n      swap1\n      pop\n        /* \"#utility.yul\":4388:4672   */\n      jump(tag_338)\n    tag_340:\n        /* \"#utility.yul\":4392:4406   */\n      pop\n        /* \"#utility.yul\":4688:4691   */\n      dup6\n        /* \"#utility.yul\":4681:4691   */\n      swap4\n      pop\n        /* \"#utility.yul\":4089:4697   */\n      pop\n      pop\n      pop\n        /* \"#utility.yul\":3965:4697   */\n      swap3\n      swap2\n      pop\n      pop\n      jump\t// out\n        /* \"#utility.yul\":4703:4812   */\n    tag_344:\n        /* \"#utility.yul\":4784:4805   */\n      tag_346\n        /* \"#utility.yul\":4799:4804   */\n      dup2\n        /* \"#utility.yul\":4784:4805   */\n      tag_347\n      jump\t// in\n    tag_346:\n        /* \"#utility.yul\":4779:4782   */\n      dup3\n        /* \"#utility.yul\":4772:4806   */\n      mstore\n        /* \"#utility.yul\":4703:4812   */\n      pop\n      pop\n      jump\t// out\n        /* \"#utility.yul\":4818:4949   */\n    tag_348:\n        /* \"#utility.yul\":4900:4942   */\n      tag_350\n        /* \"#utility.yul\":4936:4941   */\n      dup2\n        /* \"#utility.yul\":4900:4942   */\n      tag_351\n      jump\t// in\n    tag_350:\n        /* \"#utility.yul\":4895:4898   */\n      dup3\n        /* \"#utility.yul\":4888:4943   */\n      mstore\n        /* \"#utility.yul\":4818:4949   */\n      pop\n      pop\n      jump\t// out\n        /* \"#utility.yul\":4955:5096   */\n    tag_352:\n        /* \"#utility.yul\":5047:5089   */\n      tag_354\n        /* \"#utility.yul\":5083:5088   */\n      dup2\n        /* \"#utility.yul\":5047:5089   */\n      tag_351\n      jump\t// in\n    tag_354:\n        /* \"#utility.yul\":5042:5045   */\n      dup3\n        /* \"#utility.yul\":5035:5090   */\n      mstore\n        /* \"#utility.yul\":4955:5096   */\n      pop\n      pop\n      jump\t// out\n        /* \"#utility.yul\":5102:5249   */\n    tag_355:\n        /* \"#utility.yul\":5197:5242   */\n      tag_357\n        /* \"#utility.yul\":5236:5241   */\n      dup2\n        /* \"#utility.yul\":5197:5242   */\n      tag_358\n      jump\t// in\n    tag_357:\n        /* \"#utility.yul\":5192:5195   */\n      dup3\n        /* \"#utility.yul\":5185:5243   */\n      mstore\n        /* \"#utility.yul\":5102:5249   */\n      pop\n      pop\n      jump\t// out\n        /* \"#utility.yul\":5255:5619   */\n    tag_359:\n        /* \"#utility.yul\":5343:5346   */\n      0x00\n        /* \"#utility.yul\":5371:5410   */\n      tag_361\n        /* \"#utility.yul\":5404:5409   */\n      dup3\n        /* \"#utility.yul\":5371:5410   */\n      tag_362\n      jump\t// in\n    tag_361:\n        /* \"#utility.yul\":5426:5497   */\n      tag_363\n        /* \"#utility.yul\":5490:5496   */\n      dup2\n        /* \"#utility.yul\":5485:5488   */\n      dup6\n        /* \"#utility.yul\":5426:5497   */\n      tag_364\n      jump\t// in\n    tag_363:\n        /* \"#utility.yul\":5419:5497   */\n      swap4\n      pop\n        /* \"#utility.yul\":5506:5558   */\n      tag_365\n        /* \"#utility.yul\":5551:5557   */\n      dup2\n        /* \"#utility.yul\":5546:5549   */\n      dup6\n        /* \"#utility.yul\":5539:5543   */\n      0x20\n        /* \"#utility.yul\":5532:5537   */\n      dup7\n        /* \"#utility.yul\":5528:5544   */\n      add\n        /* \"#utility.yul\":5506:5558   */\n      tag_366\n      jump\t// in\n    tag_365:\n        /* \"#utility.yul\":5583:5612   */\n      tag_367\n        /* \"#utility.yul\":5605:5611   */\n      dup2\n        /* \"#utility.yul\":5583:5612   */\n      tag_368\n      jump\t// in\n    tag_367:\n        /* \"#utility.yul\":5578:5581   */\n      dup5\n        /* \"#utility.yul\":5574:5613   */\n      add\n        /* \"#utility.yul\":5567:5613   */\n      swap2\n      pop\n        /* \"#utility.yul\":5347:5619   */\n      pop\n        /* \"#utility.yul\":5255:5619   */\n      swap3\n      swap2\n      pop\n      pop\n      jump\t// out\n        /* \"#utility.yul\":5625:6002   */\n    tag_369:\n        /* \"#utility.yul\":5731:5734   */\n      0x00\n        /* \"#utility.yul\":5759:5798   */\n      tag_371\n        /* \"#utility.yul\":5792:5797   */\n      dup3\n        /* \"#utility.yul\":5759:5798   */\n      tag_362\n      jump\t// in\n    tag_371:\n        /* \"#utility.yul\":5814:5903   */\n      tag_372\n        /* \"#utility.yul\":5896:5902   */\n      dup2\n        /* \"#utility.yul\":5891:5894   */\n      dup6\n        /* \"#utility.yul\":5814:5903   */\n      tag_373\n      jump\t// in\n    tag_372:\n        /* \"#utility.yul\":5807:5903   */\n      swap4\n      pop\n        /* \"#utility.yul\":5912:5964   */\n      tag_374\n        /* \"#utility.yul\":5957:5963   */\n      dup2\n        /* \"#utility.yul\":5952:5955   */\n      dup6\n        /* \"#utility.yul\":5945:5949   */\n      0x20\n        /* \"#utility.yul\":5938:5943   */\n      dup7\n        /* \"#utility.yul\":5934:5950   */\n      add\n        /* \"#utility.yul\":5912:5964   */\n      tag_366\n      jump\t// in\n    tag_374:\n        /* \"#utility.yul\":5989:5995   */\n      dup1\n        /* \"#utility.yul\":5984:5987   */\n      dup5\n        /* \"#utility.yul\":5980:5996   */\n      add\n        /* \"#utility.yul\":5973:5996   */\n      swap2\n      pop\n        /* \"#utility.yul\":5735:6002   */\n      pop\n        /* \"#utility.yul\":5625:6002   */\n      swap3\n      swap2\n      pop\n      pop\n      jump\t// out\n        /* \"#utility.yul\":6008:6374   */\n    tag_375:\n        /* \"#utility.yul\":6150:6153   */\n      0x00\n        /* \"#utility.yul\":6171:6238   */\n      tag_377\n        /* \"#utility.yul\":6235:6237   */\n      0x0e\n        /* \"#utility.yul\":6230:6233   */\n      dup4\n        /* \"#utility.yul\":6171:6238   */\n      tag_364\n      jump\t// in\n    tag_377:\n        /* \"#utility.yul\":6164:6238   */\n      swap2\n      pop\n        /* \"#utility.yul\":6247:6340   */\n      tag_378\n        /* \"#utility.yul\":6336:6339   */\n      dup3\n        /* \"#utility.yul\":6247:6340   */\n      tag_379\n      jump\t// in\n    tag_378:\n        /* \"#utility.yul\":6365:6367   */\n      0x20\n        /* \"#utility.yul\":6360:6363   */\n      dup3\n        /* \"#utility.yul\":6356:6368   */\n      add\n        /* \"#utility.yul\":6349:6368   */\n      swap1\n      pop\n        /* \"#utility.yul\":6008:6374   */\n      swap2\n      swap1\n      pop\n      jump\t// out\n        /* \"#utility.yul\":6380:6746   */\n    tag_380:\n        /* \"#utility.yul\":6522:6525   */\n      0x00\n        /* \"#utility.yul\":6543:6610   */\n      tag_382\n        /* \"#utility.yul\":6607:6609   */\n      0x0d\n        /* \"#utility.yul\":6602:6605   */\n      dup4\n        /* \"#utility.yul\":6543:6610   */\n      tag_364\n      jump\t// in\n    tag_382:\n        /* \"#utility.yul\":6536:6610   */\n      swap2\n      pop\n        /* \"#utility.yul\":6619:6712   */\n      tag_383\n        /* \"#utility.yul\":6708:6711   */\n      dup3\n        /* \"#utility.yul\":6619:6712   */\n      tag_384\n      jump\t// in\n    tag_383:\n        /* \"#utility.yul\":6737:6739   */\n      0x20\n        /* \"#utility.yul\":6732:6735   */\n      dup3\n        /* \"#utility.yul\":6728:6740   */\n      add\n        /* \"#utility.yul\":6721:6740   */\n      swap1\n      pop\n        /* \"#utility.yul\":6380:6746   */\n      swap2\n      swap1\n      pop\n      jump\t// out\n        /* \"#utility.yul\":6752:7152   */\n    tag_385:\n        /* \"#utility.yul\":6912:6915   */\n      0x00\n        /* \"#utility.yul\":6933:7017   */\n      tag_387\n        /* \"#utility.yul\":7015:7016   */\n      0x01\n        /* \"#utility.yul\":7010:7013   */\n      dup4\n        /* \"#utility.yul\":6933:7017   */\n      tag_373\n      jump\t// in\n    tag_387:\n        /* \"#utility.yul\":6926:7017   */\n      swap2\n      pop\n        /* \"#utility.yul\":7026:7119   */\n      tag_388\n        /* \"#utility.yul\":7115:7118   */\n      dup3\n        /* \"#utility.yul\":7026:7119   */\n      tag_389\n      jump\t// in\n    tag_388:\n        /* \"#utility.yul\":7144:7145   */\n      0x01\n        /* \"#utility.yul\":7139:7142   */\n      dup3\n        /* \"#utility.yul\":7135:7146   */\n      add\n        /* \"#utility.yul\":7128:7146   */\n      swap1\n      pop\n        /* \"#utility.yul\":6752:7152   */\n      swap2\n      swap1\n      pop\n      jump\t// out\n        /* \"#utility.yul\":7158:7524   */\n    tag_390:\n        /* \"#utility.yul\":7300:7303   */\n      0x00\n        /* \"#utility.yul\":7321:7388   */\n      tag_392\n        /* \"#utility.yul\":7385:7387   */\n      0x1e\n        /* \"#utility.yul\":7380:7383   */\n      dup4\n        /* \"#utility.yul\":7321:7388   */\n      tag_364\n      jump\t// in\n    tag_392:\n        /* \"#utility.yul\":7314:7388   */\n      swap2\n      pop\n        /* \"#utility.yul\":7397:7490   */\n      tag_393\n        /* \"#utility.yul\":7486:7489   */\n      dup3\n        /* \"#utility.yul\":7397:7490   */\n      tag_394\n      jump\t// in\n    tag_393:\n        /* \"#utility.yul\":7515:7517   */\n      0x20\n        /* \"#utility.yul\":7510:7513   */\n      dup3\n        /* \"#utility.yul\":7506:7518   */\n      add\n        /* \"#utility.yul\":7499:7518   */\n      swap1\n      pop\n        /* \"#utility.yul\":7158:7524   */\n      swap2\n      swap1\n      pop\n      jump\t// out\n        /* \"#utility.yul\":7530:7896   */\n    tag_395:\n        /* \"#utility.yul\":7672:7675   */\n      0x00\n        /* \"#utility.yul\":7693:7760   */\n      tag_397\n        /* \"#utility.yul\":7757:7759   */\n      0x1f\n        /* \"#utility.yul\":7752:7755   */\n      dup4\n        /* \"#utility.yul\":7693:7760   */\n      tag_364\n      jump\t// in\n    tag_397:\n        /* \"#utility.yul\":7686:7760   */\n      swap2\n      pop\n        /* \"#utility.yul\":7769:7862   */\n      tag_398\n        /* \"#utility.yul\":7858:7861   */\n      dup3\n        /* \"#utility.yul\":7769:7862   */\n      tag_399\n      jump\t// in\n    tag_398:\n        /* \"#utility.yul\":7887:7889   */\n      0x20\n        /* \"#utility.yul\":7882:7885   */\n      dup3\n        /* \"#utility.yul\":7878:7890   */\n      add\n        /* \"#utility.yul\":7871:7890   */\n      swap1\n      pop\n        /* \"#utility.yul\":7530:7896   */\n      swap2\n      swap1\n      pop\n      jump\t// out\n        /* \"#utility.yul\":7902:8268   */\n    tag_400:\n        /* \"#utility.yul\":8044:8047   */\n      0x00\n        /* \"#utility.yul\":8065:8132   */\n      tag_402\n        /* \"#utility.yul\":8129:8131   */\n      0x1e\n        /* \"#utility.yul\":8124:8127   */\n      dup4\n        /* \"#utility.yul\":8065:8132   */\n      tag_364\n      jump\t// in\n    tag_402:\n        /* \"#utility.yul\":8058:8132   */\n      swap2\n      pop\n        /* \"#utility.yul\":8141:8234   */\n      tag_403\n        /* \"#utility.yul\":8230:8233   */\n      dup3\n        /* \"#utility.yul\":8141:8234   */\n      tag_404\n      jump\t// in\n    tag_403:\n        /* \"#utility.yul\":8259:8261   */\n      0x20\n        /* \"#utility.yul\":8254:8257   */\n      dup3\n        /* \"#utility.yul\":8250:8262   */\n      add\n        /* \"#utility.yul\":8243:8262   */\n      swap1\n      pop\n        /* \"#utility.yul\":7902:8268   */\n      swap2\n      swap1\n      pop\n      jump\t// out\n        /* \"#utility.yul\":8330:9719   */\n    tag_300:\n        /* \"#utility.yul\":8459:8463   */\n      0xe0\n        /* \"#utility.yul\":8454:8457   */\n      dup3\n        /* \"#utility.yul\":8450:8464   */\n      add\n        /* \"#utility.yul\":8550:8554   */\n      0x00\n        /* \"#utility.yul\":8543:8548   */\n      dup3\n        /* \"#utility.yul\":8539:8555   */\n      add\n        /* \"#utility.yul\":8533:8556   */\n      mload\n        /* \"#utility.yul\":8569:8648   */\n      tag_406\n        /* \"#utility.yul\":8642:8646   */\n      0x00\n        /* \"#utility.yul\":8637:8640   */\n      dup6\n        /* \"#utility.yul\":8633:8647   */\n      add\n        /* \"#utility.yul\":8619:8631   */\n      dup3\n        /* \"#utility.yul\":8569:8648   */\n      tag_305\n      jump\t// in\n    tag_406:\n        /* \"#utility.yul\":8474:8658   */\n      pop\n        /* \"#utility.yul\":8741:8745   */\n      0x20\n        /* \"#utility.yul\":8734:8739   */\n      dup3\n        /* \"#utility.yul\":8730:8746   */\n      add\n        /* \"#utility.yul\":8724:8747   */\n      mload\n        /* \"#utility.yul\":8760:8823   */\n      tag_407\n        /* \"#utility.yul\":8817:8821   */\n      0x20\n        /* \"#utility.yul\":8812:8815   */\n      dup6\n        /* \"#utility.yul\":8808:8822   */\n      add\n        /* \"#utility.yul\":8794:8806   */\n      dup3\n        /* \"#utility.yul\":8760:8823   */\n      tag_304\n      jump\t// in\n    tag_407:\n        /* \"#utility.yul\":8668:8833   */\n      pop\n        /* \"#utility.yul\":8920:8924   */\n      0x40\n        /* \"#utility.yul\":8913:8918   */\n      dup3\n        /* \"#utility.yul\":8909:8925   */\n      add\n        /* \"#utility.yul\":8903:8926   */\n      mload\n        /* \"#utility.yul\":8939:9002   */\n      tag_408\n        /* \"#utility.yul\":8996:9000   */\n      0x40\n        /* \"#utility.yul\":8991:8994   */\n      dup6\n        /* \"#utility.yul\":8987:9001   */\n      add\n        /* \"#utility.yul\":8973:8985   */\n      dup3\n        /* \"#utility.yul\":8939:9002   */\n      tag_304\n      jump\t// in\n    tag_408:\n        /* \"#utility.yul\":8843:9012   */\n      pop\n        /* \"#utility.yul\":9095:9099   */\n      0x60\n        /* \"#utility.yul\":9088:9093   */\n      dup3\n        /* \"#utility.yul\":9084:9100   */\n      add\n        /* \"#utility.yul\":9078:9101   */\n      mload\n        /* \"#utility.yul\":9114:9182   */\n      tag_409\n        /* \"#utility.yul\":9176:9180   */\n      0x60\n        /* \"#utility.yul\":9171:9174   */\n      dup6\n        /* \"#utility.yul\":9167:9181   */\n      add\n        /* \"#utility.yul\":9153:9165   */\n      dup3\n        /* \"#utility.yul\":9114:9182   */\n      tag_348\n      jump\t// in\n    tag_409:\n        /* \"#utility.yul\":9022:9192   */\n      pop\n        /* \"#utility.yul\":9272:9276   */\n      0x80\n        /* \"#utility.yul\":9265:9270   */\n      dup3\n        /* \"#utility.yul\":9261:9277   */\n      add\n        /* \"#utility.yul\":9255:9278   */\n      mload\n        /* \"#utility.yul\":9291:9354   */\n      tag_410\n        /* \"#utility.yul\":9348:9352   */\n      0x80\n        /* \"#utility.yul\":9343:9346   */\n      dup6\n        /* \"#utility.yul\":9339:9353   */\n      add\n        /* \"#utility.yul\":9325:9337   */\n      dup3\n        /* \"#utility.yul\":9291:9354   */\n      tag_304\n      jump\t// in\n    tag_410:\n        /* \"#utility.yul\":9202:9364   */\n      pop\n        /* \"#utility.yul\":9446:9450   */\n      0xa0\n        /* \"#utility.yul\":9439:9444   */\n      dup3\n        /* \"#utility.yul\":9435:9451   */\n      add\n        /* \"#utility.yul\":9429:9452   */\n      mload\n        /* \"#utility.yul\":9465:9528   */\n      tag_411\n        /* \"#utility.yul\":9522:9526   */\n      0xa0\n        /* \"#utility.yul\":9517:9520   */\n      dup6\n        /* \"#utility.yul\":9513:9527   */\n      add\n        /* \"#utility.yul\":9499:9511   */\n      dup3\n        /* \"#utility.yul\":9465:9528   */\n      tag_304\n      jump\t// in\n    tag_411:\n        /* \"#utility.yul\":9374:9538   */\n      pop\n        /* \"#utility.yul\":9620:9624   */\n      0xc0\n        /* \"#utility.yul\":9613:9618   */\n      dup3\n        /* \"#utility.yul\":9609:9625   */\n      add\n        /* \"#utility.yul\":9603:9626   */\n      mload\n        /* \"#utility.yul\":9639:9702   */\n      tag_412\n        /* \"#utility.yul\":9696:9700   */\n      0xc0\n        /* \"#utility.yul\":9691:9694   */\n      dup6\n        /* \"#utility.yul\":9687:9701   */\n      add\n        /* \"#utility.yul\":9673:9685   */\n      dup3\n        /* \"#utility.yul\":9639:9702   */\n      tag_304\n      jump\t// in\n    tag_412:\n        /* \"#utility.yul\":9548:9712   */\n      pop\n        /* \"#utility.yul\":8428:9719   */\n      pop\n        /* \"#utility.yul\":8330:9719   */\n      pop\n      pop\n      jump\t// out\n        /* \"#utility.yul\":9725:9833   */\n    tag_304:\n        /* \"#utility.yul\":9802:9826   */\n      tag_414\n        /* \"#utility.yul\":9820:9825   */\n      dup2\n        /* \"#utility.yul\":9802:9826   */\n      tag_415\n      jump\t// in\n    tag_414:\n        /* \"#utility.yul\":9797:9800   */\n      dup3\n        /* \"#utility.yul\":9790:9827   */\n      mstore\n        /* \"#utility.yul\":9725:9833   */\n      pop\n      pop\n      jump\t// out\n        /* \"#utility.yul\":9839:9957   */\n    tag_416:\n        /* \"#utility.yul\":9926:9950   */\n      tag_418\n        /* \"#utility.yul\":9944:9949   */\n      dup2\n        /* \"#utility.yul\":9926:9950   */\n      tag_415\n      jump\t// in\n    tag_418:\n        /* \"#utility.yul\":9921:9924   */\n      dup3\n        /* \"#utility.yul\":9914:9951   */\n      mstore\n        /* \"#utility.yul\":9839:9957   */\n      pop\n      pop\n      jump\t// out\n        /* \"#utility.yul\":9963:10664   */\n    tag_157:\n        /* \"#utility.yul\":10244:10247   */\n      0x00\n        /* \"#utility.yul\":10266:10361   */\n      tag_420\n        /* \"#utility.yul\":10357:10360   */\n      dup3\n        /* \"#utility.yul\":10348:10354   */\n      dup6\n        /* \"#utility.yul\":10266:10361   */\n      tag_369\n      jump\t// in\n    tag_420:\n        /* \"#utility.yul\":10259:10361   */\n      swap2\n      pop\n        /* \"#utility.yul\":10378:10526   */\n      tag_421\n        /* \"#utility.yul\":10522:10525   */\n      dup3\n        /* \"#utility.yul\":10378:10526   */\n      tag_385\n      jump\t// in\n    tag_421:\n        /* \"#utility.yul\":10371:10526   */\n      swap2\n      pop\n        /* \"#utility.yul\":10543:10638   */\n      tag_422\n        /* \"#utility.yul\":10634:10637   */\n      dup3\n        /* \"#utility.yul\":10625:10631   */\n      dup5\n        /* \"#utility.yul\":10543:10638   */\n      tag_369\n      jump\t// in\n    tag_422:\n        /* \"#utility.yul\":10536:10638   */\n      swap2\n      pop\n        /* \"#utility.yul\":10655:10658   */\n      dup2\n        /* \"#utility.yul\":10648:10658   */\n      swap1\n      pop\n        /* \"#utility.yul\":9963:10664   */\n      swap4\n      swap3\n      pop\n      pop\n      pop\n      jump\t// out\n        /* \"#utility.yul\":10670:10924   */\n    tag_70:\n        /* \"#utility.yul\":10779:10783   */\n      0x00\n        /* \"#utility.yul\":10817:10819   */\n      0x20\n        /* \"#utility.yul\":10806:10815   */\n      dup3\n        /* \"#utility.yul\":10802:10820   */\n      add\n        /* \"#utility.yul\":10794:10820   */\n      swap1\n      pop\n        /* \"#utility.yul\":10830:10917   */\n      tag_424\n        /* \"#utility.yul\":10914:10915   */\n      0x00\n        /* \"#utility.yul\":10903:10912   */\n      dup4\n        /* \"#utility.yul\":10899:10916   */\n      add\n        /* \"#utility.yul\":10890:10896   */\n      dup5\n        /* \"#utility.yul\":10830:10917   */\n      tag_309\n      jump\t// in\n    tag_424:\n        /* \"#utility.yul\":10670:10924   */\n      swap3\n      swap2\n      pop\n      pop\n      jump\t// out\n        /* \"#utility.yul\":10930:11957   */\n    tag_126:\n        /* \"#utility.yul\":11234:11238   */\n      0x00\n        /* \"#utility.yul\":11272:11275   */\n      0x0100\n        /* \"#utility.yul\":11261:11270   */\n      dup3\n        /* \"#utility.yul\":11257:11276   */\n      add\n        /* \"#utility.yul\":11249:11276   */\n      swap1\n      pop\n        /* \"#utility.yul\":11286:11373   */\n      tag_426\n        /* \"#utility.yul\":11370:11371   */\n      0x00\n        /* \"#utility.yul\":11359:11368   */\n      dup4\n        /* \"#utility.yul\":11355:11372   */\n      add\n        /* \"#utility.yul\":11346:11352   */\n      dup12\n        /* \"#utility.yul\":11286:11373   */\n      tag_309\n      jump\t// in\n    tag_426:\n        /* \"#utility.yul\":11383:11455   */\n      tag_427\n        /* \"#utility.yul\":11451:11453   */\n      0x20\n        /* \"#utility.yul\":11440:11449   */\n      dup4\n        /* \"#utility.yul\":11436:11454   */\n      add\n        /* \"#utility.yul\":11427:11433   */\n      dup11\n        /* \"#utility.yul\":11383:11455   */\n      tag_416\n      jump\t// in\n    tag_427:\n        /* \"#utility.yul\":11465:11537   */\n      tag_428\n        /* \"#utility.yul\":11533:11535   */\n      0x40\n        /* \"#utility.yul\":11522:11531   */\n      dup4\n        /* \"#utility.yul\":11518:11536   */\n      add\n        /* \"#utility.yul\":11509:11515   */\n      dup10\n        /* \"#utility.yul\":11465:11537   */\n      tag_416\n      jump\t// in\n    tag_428:\n        /* \"#utility.yul\":11547:11624   */\n      tag_429\n        /* \"#utility.yul\":11620:11622   */\n      0x60\n        /* \"#utility.yul\":11609:11618   */\n      dup4\n        /* \"#utility.yul\":11605:11623   */\n      add\n        /* \"#utility.yul\":11596:11602   */\n      dup9\n        /* \"#utility.yul\":11547:11624   */\n      tag_352\n      jump\t// in\n    tag_429:\n        /* \"#utility.yul\":11634:11707   */\n      tag_430\n        /* \"#utility.yul\":11702:11705   */\n      0x80\n        /* \"#utility.yul\":11691:11700   */\n      dup4\n        /* \"#utility.yul\":11687:11706   */\n      add\n        /* \"#utility.yul\":11678:11684   */\n      dup8\n        /* \"#utility.yul\":11634:11707   */\n      tag_416\n      jump\t// in\n    tag_430:\n        /* \"#utility.yul\":11717:11790   */\n      tag_431\n        /* \"#utility.yul\":11785:11788   */\n      0xa0\n        /* \"#utility.yul\":11774:11783   */\n      dup4\n        /* \"#utility.yul\":11770:11789   */\n      add\n        /* \"#utility.yul\":11761:11767   */\n      dup7\n        /* \"#utility.yul\":11717:11790   */\n      tag_416\n      jump\t// in\n    tag_431:\n        /* \"#utility.yul\":11800:11873   */\n      tag_432\n        /* \"#utility.yul\":11868:11871   */\n      0xc0\n        /* \"#utility.yul\":11857:11866   */\n      dup4\n        /* \"#utility.yul\":11853:11872   */\n      add\n        /* \"#utility.yul\":11844:11850   */\n      dup6\n        /* \"#utility.yul\":11800:11873   */\n      tag_416\n      jump\t// in\n    tag_432:\n        /* \"#utility.yul\":11883:11950   */\n      tag_433\n        /* \"#utility.yul\":11945:11948   */\n      0xe0\n        /* \"#utility.yul\":11934:11943   */\n      dup4\n        /* \"#utility.yul\":11930:11949   */\n      add\n        /* \"#utility.yul\":11921:11927   */\n      dup5\n        /* \"#utility.yul\":11883:11950   */\n      tag_344\n      jump\t// in\n    tag_433:\n        /* \"#utility.yul\":10930:11957   */\n      swap10\n      swap9\n      pop\n      pop\n      pop\n      pop\n      pop\n      pop\n      pop\n      pop\n      pop\n      jump\t// out\n        /* \"#utility.yul\":11963:12990   */\n    tag_248:\n        /* \"#utility.yul\":12267:12271   */\n      0x00\n        /* \"#utility.yul\":12305:12308   */\n      0x0100\n        /* \"#utility.yul\":12294:12303   */\n      dup3\n        /* \"#utility.yul\":12290:12309   */\n      add\n        /* \"#utility.yul\":12282:12309   */\n      swap1\n      pop\n        /* \"#utility.yul\":12319:12390   */\n      tag_435\n        /* \"#utility.yul\":12387:12388   */\n      0x00\n        /* \"#utility.yul\":12376:12385   */\n      dup4\n        /* \"#utility.yul\":12372:12389   */\n      add\n        /* \"#utility.yul\":12363:12369   */\n      dup12\n        /* \"#utility.yul\":12319:12390   */\n      tag_312\n      jump\t// in\n    tag_435:\n        /* \"#utility.yul\":12400:12472   */\n      tag_436\n        /* \"#utility.yul\":12468:12470   */\n      0x20\n        /* \"#utility.yul\":12457:12466   */\n      dup4\n        /* \"#utility.yul\":12453:12471   */\n      add\n        /* \"#utility.yul\":12444:12450   */\n      dup11\n        /* \"#utility.yul\":12400:12472   */\n      tag_416\n      jump\t// in\n    tag_436:\n        /* \"#utility.yul\":12482:12554   */\n      tag_437\n        /* \"#utility.yul\":12550:12552   */\n      0x40\n        /* \"#utility.yul\":12539:12548   */\n      dup4\n        /* \"#utility.yul\":12535:12553   */\n      add\n        /* \"#utility.yul\":12526:12532   */\n      dup10\n        /* \"#utility.yul\":12482:12554   */\n      tag_416\n      jump\t// in\n    tag_437:\n        /* \"#utility.yul\":12564:12641   */\n      tag_438\n        /* \"#utility.yul\":12637:12639   */\n      0x60\n        /* \"#utility.yul\":12626:12635   */\n      dup4\n        /* \"#utility.yul\":12622:12640   */\n      add\n        /* \"#utility.yul\":12613:12619   */\n      dup9\n        /* \"#utility.yul\":12564:12641   */\n      tag_352\n      jump\t// in\n    tag_438:\n        /* \"#utility.yul\":12651:12724   */\n      tag_439\n        /* \"#utility.yul\":12719:12722   */\n      0x80\n        /* \"#utility.yul\":12708:12717   */\n      dup4\n        /* \"#utility.yul\":12704:12723   */\n      add\n        /* \"#utility.yul\":12695:12701   */\n      dup8\n        /* \"#utility.yul\":12651:12724   */\n      tag_416\n      jump\t// in\n    tag_439:\n        /* \"#utility.yul\":12734:12815   */\n      tag_440\n        /* \"#utility.yul\":12810:12813   */\n      0xa0\n        /* \"#utility.yul\":12799:12808   */\n      dup4\n        /* \"#utility.yul\":12795:12814   */\n      add\n        /* \"#utility.yul\":12786:12792   */\n      dup7\n        /* \"#utility.yul\":12734:12815   */\n      tag_355\n      jump\t// in\n    tag_440:\n        /* \"#utility.yul\":12825:12906   */\n      tag_441\n        /* \"#utility.yul\":12901:12904   */\n      0xc0\n        /* \"#utility.yul\":12890:12899   */\n      dup4\n        /* \"#utility.yul\":12886:12905   */\n      add\n        /* \"#utility.yul\":12877:12883   */\n      dup6\n        /* \"#utility.yul\":12825:12906   */\n      tag_355\n      jump\t// in\n    tag_441:\n        /* \"#utility.yul\":12916:12983   */\n      tag_442\n        /* \"#utility.yul\":12978:12981   */\n      0xe0\n        /* \"#utility.yul\":12967:12976   */\n      dup4\n        /* \"#utility.yul\":12963:12982   */\n      add\n        /* \"#utility.yul\":12954:12960   */\n      dup5\n        /* \"#utility.yul\":12916:12983   */\n      tag_344\n      jump\t// in\n    tag_442:\n        /* \"#utility.yul\":11963:12990   */\n      swap10\n      swap9\n      pop\n      pop\n      pop\n      pop\n      pop\n      pop\n      pop\n      pop\n      pop\n      jump\t// out\n        /* \"#utility.yul\":12996:13453   */\n    tag_54:\n        /* \"#utility.yul\":13181:13185   */\n      0x00\n        /* \"#utility.yul\":13219:13221   */\n      0x20\n        /* \"#utility.yul\":13208:13217   */\n      dup3\n        /* \"#utility.yul\":13204:13222   */\n      add\n        /* \"#utility.yul\":13196:13222   */\n      swap1\n      pop\n        /* \"#utility.yul\":13268:13277   */\n      dup2\n        /* \"#utility.yul\":13262:13266   */\n      dup2\n        /* \"#utility.yul\":13258:13278   */\n      sub\n        /* \"#utility.yul\":13254:13255   */\n      0x00\n        /* \"#utility.yul\":13243:13252   */\n      dup4\n        /* \"#utility.yul\":13239:13256   */\n      add\n        /* \"#utility.yul\":13232:13279   */\n      mstore\n        /* \"#utility.yul\":13296:13446   */\n      tag_444\n        /* \"#utility.yul\":13441:13445   */\n      dup2\n        /* \"#utility.yul\":13432:13438   */\n      dup5\n        /* \"#utility.yul\":13296:13446   */\n      tag_316\n      jump\t// in\n    tag_444:\n        /* \"#utility.yul\":13288:13446   */\n      swap1\n      pop\n        /* \"#utility.yul\":12996:13453   */\n      swap3\n      swap2\n      pop\n      pop\n      jump\t// out\n        /* \"#utility.yul\":13459:13832   */\n    tag_31:\n        /* \"#utility.yul\":13602:13606   */\n      0x00\n        /* \"#utility.yul\":13640:13642   */\n      0x20\n        /* \"#utility.yul\":13629:13638   */\n      dup3\n        /* \"#utility.yul\":13625:13643   */\n      add\n        /* \"#utility.yul\":13617:13643   */\n      swap1\n      pop\n        /* \"#utility.yul\":13689:13698   */\n      dup2\n        /* \"#utility.yul\":13683:13687   */\n      dup2\n        /* \"#utility.yul\":13679:13699   */\n      sub\n        /* \"#utility.yul\":13675:13676   */\n      0x00\n        /* \"#utility.yul\":13664:13673   */\n      dup4\n        /* \"#utility.yul\":13660:13677   */\n      add\n        /* \"#utility.yul\":13653:13700   */\n      mstore\n        /* \"#utility.yul\":13717:13825   */\n      tag_446\n        /* \"#utility.yul\":13820:13824   */\n      dup2\n        /* \"#utility.yul\":13811:13817   */\n      dup5\n        /* \"#utility.yul\":13717:13825   */\n      tag_330\n      jump\t// in\n    tag_446:\n        /* \"#utility.yul\":13709:13825   */\n      swap1\n      pop\n        /* \"#utility.yul\":13459:13832   */\n      swap3\n      swap2\n      pop\n      pop\n      jump\t// out\n        /* \"#utility.yul\":13838:14070   */\n    tag_64:\n        /* \"#utility.yul\":13936:13940   */\n      0x00\n        /* \"#utility.yul\":13974:13976   */\n      0x20\n        /* \"#utility.yul\":13963:13972   */\n      dup3\n        /* \"#utility.yul\":13959:13977   */\n      add\n        /* \"#utility.yul\":13951:13977   */\n      swap1\n      pop\n        /* \"#utility.yul\":13987:14063   */\n      tag_448\n        /* \"#utility.yul\":14060:14061   */\n      0x00\n        /* \"#utility.yul\":14049:14058   */\n      dup4\n        /* \"#utility.yul\":14045:14062   */\n      add\n        /* \"#utility.yul\":14036:14042   */\n      dup5\n        /* \"#utility.yul\":13987:14063   */\n      tag_352\n      jump\t// in\n    tag_448:\n        /* \"#utility.yul\":13838:14070   */\n      swap3\n      swap2\n      pop\n      pop\n      jump\t// out\n        /* \"#utility.yul\":14076:14389   */\n    tag_43:\n        /* \"#utility.yul\":14189:14193   */\n      0x00\n        /* \"#utility.yul\":14227:14229   */\n      0x20\n        /* \"#utility.yul\":14216:14225   */\n      dup3\n        /* \"#utility.yul\":14212:14230   */\n      add\n        /* \"#utility.yul\":14204:14230   */\n      swap1\n      pop\n        /* \"#utility.yul\":14276:14285   */\n      dup2\n        /* \"#utility.yul\":14270:14274   */\n      dup2\n        /* \"#utility.yul\":14266:14286   */\n      sub\n        /* \"#utility.yul\":14262:14263   */\n      0x00\n        /* \"#utility.yul\":14251:14260   */\n      dup4\n        /* \"#utility.yul\":14247:14264   */\n      add\n        /* \"#utility.yul\":14240:14287   */\n      mstore\n        /* \"#utility.yul\":14304:14382   */\n      tag_450\n        /* \"#utility.yul\":14377:14381   */\n      dup2\n        /* \"#utility.yul\":14368:14374   */\n      dup5\n        /* \"#utility.yul\":14304:14382   */\n      tag_359\n      jump\t// in\n    tag_450:\n        /* \"#utility.yul\":14296:14382   */\n      swap1\n      pop\n        /* \"#utility.yul\":14076:14389   */\n      swap3\n      swap2\n      pop\n      pop\n      jump\t// out\n        /* \"#utility.yul\":14395:14814   */\n    tag_153:\n        /* \"#utility.yul\":14561:14565   */\n      0x00\n        /* \"#utility.yul\":14599:14601   */\n      0x20\n        /* \"#utility.yul\":14588:14597   */\n      dup3\n        /* \"#utility.yul\":14584:14602   */\n      add\n        /* \"#utility.yul\":14576:14602   */\n      swap1\n      pop\n        /* \"#utility.yul\":14648:14657   */\n      dup2\n        /* \"#utility.yul\":14642:14646   */\n      dup2\n        /* \"#utility.yul\":14638:14658   */\n      sub\n        /* \"#utility.yul\":14634:14635   */\n      0x00\n        /* \"#utility.yul\":14623:14632   */\n      dup4\n        /* \"#utility.yul\":14619:14636   */\n      add\n        /* \"#utility.yul\":14612:14659   */\n      mstore\n        /* \"#utility.yul\":14676:14807   */\n      tag_452\n        /* \"#utility.yul\":14802:14806   */\n      dup2\n        /* \"#utility.yul\":14676:14807   */\n      tag_375\n      jump\t// in\n    tag_452:\n        /* \"#utility.yul\":14668:14807   */\n      swap1\n      pop\n        /* \"#utility.yul\":14395:14814   */\n      swap2\n      swap1\n      pop\n      jump\t// out\n        /* \"#utility.yul\":14820:15239   */\n    tag_145:\n        /* \"#utility.yul\":14986:14990   */\n      0x00\n        /* \"#utility.yul\":15024:15026   */\n      0x20\n        /* \"#utility.yul\":15013:15022   */\n      dup3\n        /* \"#utility.yul\":15009:15027   */\n      add\n        /* \"#utility.yul\":15001:15027   */\n      swap1\n      pop\n        /* \"#utility.yul\":15073:15082   */\n      dup2\n        /* \"#utility.yul\":15067:15071   */\n      dup2\n        /* \"#utility.yul\":15063:15083   */\n      sub\n        /* \"#utility.yul\":15059:15060   */\n      0x00\n        /* \"#utility.yul\":15048:15057   */\n      dup4\n        /* \"#utility.yul\":15044:15061   */\n      add\n        /* \"#utility.yul\":15037:15084   */\n      mstore\n        /* \"#utility.yul\":15101:15232   */\n      tag_454\n        /* \"#utility.yul\":15227:15231   */\n      dup2\n        /* \"#utility.yul\":15101:15232   */\n      tag_380\n      jump\t// in\n    tag_454:\n        /* \"#utility.yul\":15093:15232   */\n      swap1\n      pop\n        /* \"#utility.yul\":14820:15239   */\n      swap2\n      swap1\n      pop\n      jump\t// out\n        /* \"#utility.yul\":15245:15664   */\n    tag_211:\n        /* \"#utility.yul\":15411:15415   */\n      0x00\n        /* \"#utility.yul\":15449:15451   */\n      0x20\n        /* \"#utility.yul\":15438:15447   */\n      dup3\n        /* \"#utility.yul\":15434:15452   */\n      add\n        /* \"#utility.yul\":15426:15452   */\n      swap1\n      pop\n        /* \"#utility.yul\":15498:15507   */\n      dup2\n        /* \"#utility.yul\":15492:15496   */\n      dup2\n        /* \"#utility.yul\":15488:15508   */\n      sub\n        /* \"#utility.yul\":15484:15485   */\n      0x00\n        /* \"#utility.yul\":15473:15482   */\n      dup4\n        /* \"#utility.yul\":15469:15486   */\n      add\n        /* \"#utility.yul\":15462:15509   */\n      mstore\n        /* \"#utility.yul\":15526:15657   */\n      tag_456\n        /* \"#utility.yul\":15652:15656   */\n      dup2\n        /* \"#utility.yul\":15526:15657   */\n      tag_390\n      jump\t// in\n    tag_456:\n        /* \"#utility.yul\":15518:15657   */\n      swap1\n      pop\n        /* \"#utility.yul\":15245:15664   */\n      swap2\n      swap1\n      pop\n      jump\t// out\n        /* \"#utility.yul\":15670:16089   */\n    tag_173:\n        /* \"#utility.yul\":15836:15840   */\n      0x00\n        /* \"#utility.yul\":15874:15876   */\n      0x20\n        /* \"#utility.yul\":15863:15872   */\n      dup3\n        /* \"#utility.yul\":15859:15877   */\n      add\n        /* \"#utility.yul\":15851:15877   */\n      swap1\n      pop\n        /* \"#utility.yul\":15923:15932   */\n      dup2\n        /* \"#utility.yul\":15917:15921   */\n      dup2\n        /* \"#utility.yul\":15913:15933   */\n      sub\n        /* \"#utility.yul\":15909:15910   */\n      0x00\n        /* \"#utility.yul\":15898:15907   */\n      dup4\n        /* \"#utility.yul\":15894:15911   */\n      add\n        /* \"#utility.yul\":15887:15934   */\n      mstore\n        /* \"#utility.yul\":15951:16082   */\n      tag_458\n        /* \"#utility.yul\":16077:16081   */\n      dup2\n        /* \"#utility.yul\":15951:16082   */\n      tag_395\n      jump\t// in\n    tag_458:\n        /* \"#utility.yul\":15943:16082   */\n      swap1\n      pop\n        /* \"#utility.yul\":15670:16089   */\n      swap2\n      swap1\n      pop\n      jump\t// out\n        /* \"#utility.yul\":16095:16514   */\n    tag_176:\n        /* \"#utility.yul\":16261:16265   */\n      0x00\n        /* \"#utility.yul\":16299:16301   */\n      0x20\n        /* \"#utility.yul\":16288:16297   */\n      dup3\n        /* \"#utility.yul\":16284:16302   */\n      add\n        /* \"#utility.yul\":16276:16302   */\n      swap1\n      pop\n        /* \"#utility.yul\":16348:16357   */\n      dup2\n        /* \"#utility.yul\":16342:16346   */\n      dup2\n        /* \"#utility.yul\":16338:16358   */\n      sub\n        /* \"#utility.yul\":16334:16335   */\n      0x00\n        /* \"#utility.yul\":16323:16332   */\n      dup4\n        /* \"#utility.yul\":16319:16336   */\n      add\n        /* \"#utility.yul\":16312:16359   */\n      mstore\n        /* \"#utility.yul\":16376:16507   */\n      tag_460\n        /* \"#utility.yul\":16502:16506   */\n      dup2\n        /* \"#utility.yul\":16376:16507   */\n      tag_400\n      jump\t// in\n    tag_460:\n        /* \"#utility.yul\":16368:16507   */\n      swap1\n      pop\n        /* \"#utility.yul\":16095:16514   */\n      swap2\n      swap1\n      pop\n      jump\t// out\n        /* \"#utility.yul\":16520:16742   */\n    tag_49:\n        /* \"#utility.yul\":16613:16617   */\n      0x00\n        /* \"#utility.yul\":16651:16653   */\n      0x20\n        /* \"#utility.yul\":16640:16649   */\n      dup3\n        /* \"#utility.yul\":16636:16654   */\n      add\n        /* \"#utility.yul\":16628:16654   */\n      swap1\n      pop\n        /* \"#utility.yul\":16664:16735   */\n      tag_462\n        /* \"#utility.yul\":16732:16733   */\n      0x00\n        /* \"#utility.yul\":16721:16730   */\n      dup4\n        /* \"#utility.yul\":16717:16734   */\n      add\n        /* \"#utility.yul\":16708:16714   */\n      dup5\n        /* \"#utility.yul\":16664:16735   */\n      tag_416\n      jump\t// in\n    tag_462:\n        /* \"#utility.yul\":16520:16742   */\n      swap3\n      swap2\n      pop\n      pop\n      jump\t// out\n        /* \"#utility.yul\":16748:16877   */\n    tag_266:\n        /* \"#utility.yul\":16782:16788   */\n      0x00\n        /* \"#utility.yul\":16809:16829   */\n      tag_464\n      tag_465\n      jump\t// in\n    tag_464:\n        /* \"#utility.yul\":16799:16829   */\n      swap1\n      pop\n        /* \"#utility.yul\":16838:16871   */\n      tag_466\n        /* \"#utility.yul\":16866:16870   */\n      dup3\n        /* \"#utility.yul\":16858:16864   */\n      dup3\n        /* \"#utility.yul\":16838:16871   */\n      tag_467\n      jump\t// in\n    tag_466:\n        /* \"#utility.yul\":16748:16877   */\n      swap2\n      swap1\n      pop\n      jump\t// out\n        /* \"#utility.yul\":16883:16958   */\n    tag_465:\n        /* \"#utility.yul\":16916:16922   */\n      0x00\n        /* \"#utility.yul\":16949:16951   */\n      0x40\n        /* \"#utility.yul\":16943:16952   */\n      mload\n        /* \"#utility.yul\":16933:16952   */\n      swap1\n      pop\n        /* \"#utility.yul\":16883:16958   */\n      swap1\n      jump\t// out\n        /* \"#utility.yul\":16964:17272   */\n    tag_265:\n        /* \"#utility.yul\":17026:17030   */\n      0x00\n        /* \"#utility.yul\":17116:17134   */\n      0xffffffffffffffff\n        /* \"#utility.yul\":17108:17114   */\n      dup3\n        /* \"#utility.yul\":17105:17135   */\n      gt\n        /* \"#utility.yul\":17102:17158   */\n      iszero\n      tag_470\n      jumpi\n        /* \"#utility.yul\":17138:17156   */\n      tag_471\n      tag_226\n      jump\t// in\n    tag_471:\n        /* \"#utility.yul\":17102:17158   */\n    tag_470:\n        /* \"#utility.yul\":17176:17205   */\n      tag_472\n        /* \"#utility.yul\":17198:17204   */\n      dup3\n        /* \"#utility.yul\":17176:17205   */\n      tag_368\n      jump\t// in\n    tag_472:\n        /* \"#utility.yul\":17168:17205   */\n      swap1\n      pop\n        /* \"#utility.yul\":17260:17264   */\n      0x20\n        /* \"#utility.yul\":17254:17258   */\n      dup2\n        /* \"#utility.yul\":17250:17265   */\n      add\n        /* \"#utility.yul\":17242:17265   */\n      swap1\n      pop\n        /* \"#utility.yul\":16964:17272   */\n      swap2\n      swap1\n      pop\n      jump\t// out\n        /* \"#utility.yul\":17278:17431   */\n    tag_323:\n        /* \"#utility.yul\":17366:17370   */\n      0x00\n        /* \"#utility.yul\":17389:17392   */\n      dup2\n        /* \"#utility.yul\":17381:17392   */\n      swap1\n      pop\n        /* \"#utility.yul\":17419:17423   */\n      0x20\n        /* \"#utility.yul\":17414:17417   */\n      dup3\n        /* \"#utility.yul\":17410:17424   */\n      add\n        /* \"#utility.yul\":17402:17424   */\n      swap1\n      pop\n        /* \"#utility.yul\":17278:17431   */\n      swap2\n      swap1\n      pop\n      jump\t// out\n        /* \"#utility.yul\":17437:17569   */\n    tag_337:\n        /* \"#utility.yul\":17504:17508   */\n      0x00\n        /* \"#utility.yul\":17527:17530   */\n      dup2\n        /* \"#utility.yul\":17519:17530   */\n      swap1\n      pop\n        /* \"#utility.yul\":17557:17561   */\n      0x20\n        /* \"#utility.yul\":17552:17555   */\n      dup3\n        /* \"#utility.yul\":17548:17562   */\n      add\n        /* \"#utility.yul\":17540:17562   */\n      swap1\n      pop\n        /* \"#utility.yul\":17437:17569   */\n      swap2\n      swap1\n      pop\n      jump\t// out\n        /* \"#utility.yul\":17575:17710   */\n    tag_319:\n        /* \"#utility.yul\":17663:17669   */\n      0x00\n        /* \"#utility.yul\":17697:17702   */\n      dup2\n        /* \"#utility.yul\":17691:17703   */\n      mload\n        /* \"#utility.yul\":17681:17703   */\n      swap1\n      pop\n        /* \"#utility.yul\":17575:17710   */\n      swap2\n      swap1\n      pop\n      jump\t// out\n        /* \"#utility.yul\":17716:17830   */\n    tag_333:\n        /* \"#utility.yul\":17783:17789   */\n      0x00\n        /* \"#utility.yul\":17817:17822   */\n      dup2\n        /* \"#utility.yul\":17811:17823   */\n      mload\n        /* \"#utility.yul\":17801:17823   */\n      swap1\n      pop\n        /* \"#utility.yul\":17716:17830   */\n      swap2\n      swap1\n      pop\n      jump\t// out\n        /* \"#utility.yul\":17836:17935   */\n    tag_362:\n        /* \"#utility.yul\":17888:17894   */\n      0x00\n        /* \"#utility.yul\":17922:17927   */\n      dup2\n        /* \"#utility.yul\":17916:17928   */\n      mload\n        /* \"#utility.yul\":17906:17928   */\n      swap1\n      pop\n        /* \"#utility.yul\":17836:17935   */\n      swap2\n      swap1\n      pop\n      jump\t// out\n        /* \"#utility.yul\":17941:18075   */\n    tag_329:\n        /* \"#utility.yul\":18032:18036   */\n      0x00\n        /* \"#utility.yul\":18064:18068   */\n      0x20\n        /* \"#utility.yul\":18059:18062   */\n      dup3\n        /* \"#utility.yul\":18055:18069   */\n      add\n        /* \"#utility.yul\":18047:18069   */\n      swap1\n      pop\n        /* \"#utility.yul\":17941:18075   */\n      swap2\n      swap1\n      pop\n      jump\t// out\n        /* \"#utility.yul\":18081:18194   */\n    tag_343:\n        /* \"#utility.yul\":18151:18155   */\n      0x00\n        /* \"#utility.yul\":18183:18187   */\n      0x20\n        /* \"#utility.yul\":18178:18181   */\n      dup3\n        /* \"#utility.yul\":18174:18188   */\n      add\n        /* \"#utility.yul\":18166:18188   */\n      swap1\n      pop\n        /* \"#utility.yul\":18081:18194   */\n      swap2\n      swap1\n      pop\n      jump\t// out\n        /* \"#utility.yul\":18200:18405   */\n    tag_321:\n        /* \"#utility.yul\":18320:18331   */\n      0x00\n        /* \"#utility.yul\":18354:18360   */\n      dup3\n        /* \"#utility.yul\":18349:18352   */\n      dup3\n        /* \"#utility.yul\":18342:18361   */\n      mstore\n        /* \"#utility.yul\":18394:18398   */\n      0x20\n        /* \"#utility.yul\":18389:18392   */\n      dup3\n        /* \"#utility.yul\":18385:18399   */\n      add\n        /* \"#utility.yul\":18370:18399   */\n      swap1\n      pop\n        /* \"#utility.yul\":18200:18405   */\n      swap3\n      swap2\n      pop\n      pop\n      jump\t// out\n        /* \"#utility.yul\":18411:18595   */\n    tag_335:\n        /* \"#utility.yul\":18510:18521   */\n      0x00\n        /* \"#utility.yul\":18544:18550   */\n      dup3\n        /* \"#utility.yul\":18539:18542   */\n      dup3\n        /* \"#utility.yul\":18532:18551   */\n      mstore\n        /* \"#utility.yul\":18584:18588   */\n      0x20\n        /* \"#utility.yul\":18579:18582   */\n      dup3\n        /* \"#utility.yul\":18575:18589   */\n      add\n        /* \"#utility.yul\":18560:18589   */\n      swap1\n      pop\n        /* \"#utility.yul\":18411:18595   */\n      swap3\n      swap2\n      pop\n      pop\n      jump\t// out\n        /* \"#utility.yul\":18601:18770   */\n    tag_364:\n        /* \"#utility.yul\":18685:18696   */\n      0x00\n        /* \"#utility.yul\":18719:18725   */\n      dup3\n        /* \"#utility.yul\":18714:18717   */\n      dup3\n        /* \"#utility.yul\":18707:18726   */\n      mstore\n        /* \"#utility.yul\":18759:18763   */\n      0x20\n        /* \"#utility.yul\":18754:18757   */\n      dup3\n        /* \"#utility.yul\":18750:18764   */\n      add\n        /* \"#utility.yul\":18735:18764   */\n      swap1\n      pop\n        /* \"#utility.yul\":18601:18770   */\n      swap3\n      swap2\n      pop\n      pop\n      jump\t// out\n        /* \"#utility.yul\":18776:18924   */\n    tag_373:\n        /* \"#utility.yul\":18878:18889   */\n      0x00\n        /* \"#utility.yul\":18915:18918   */\n      dup2\n        /* \"#utility.yul\":18900:18918   */\n      swap1\n      pop\n        /* \"#utility.yul\":18776:18924   */\n      swap3\n      swap2\n      pop\n      pop\n      jump\t// out\n        /* \"#utility.yul\":18930:19235   */\n    tag_234:\n        /* \"#utility.yul\":18970:18973   */\n      0x00\n        /* \"#utility.yul\":18989:19009   */\n      tag_485\n        /* \"#utility.yul\":19007:19008   */\n      dup3\n        /* \"#utility.yul\":18989:19009   */\n      tag_415\n      jump\t// in\n    tag_485:\n        /* \"#utility.yul\":18984:19009   */\n      swap2\n      pop\n        /* \"#utility.yul\":19023:19043   */\n      tag_486\n        /* \"#utility.yul\":19041:19042   */\n      dup4\n        /* \"#utility.yul\":19023:19043   */\n      tag_415\n      jump\t// in\n    tag_486:\n        /* \"#utility.yul\":19018:19043   */\n      swap3\n      pop\n        /* \"#utility.yul\":19177:19178   */\n      dup3\n        /* \"#utility.yul\":19109:19175   */\n      0xffffffffffffffffffffffffffffffffffffffffffffffffffffffffffffffff\n        /* \"#utility.yul\":19105:19179   */\n      sub\n        /* \"#utility.yul\":19102:19103   */\n      dup3\n        /* \"#utility.yul\":19099:19180   */\n      gt\n        /* \"#utility.yul\":19096:19203   */\n      iszero\n      tag_487\n      jumpi\n        /* \"#utility.yul\":19183:19201   */\n      tag_488\n      tag_489\n      jump\t// in\n    tag_488:\n        /* \"#utility.yul\":19096:19203   */\n    tag_487:\n        /* \"#utility.yul\":19227:19228   */\n      dup3\n        /* \"#utility.yul\":19224:19225   */\n      dup3\n        /* \"#utility.yul\":19220:19229   */\n      add\n        /* \"#utility.yul\":19213:19229   */\n      swap1\n      pop\n        /* \"#utility.yul\":18930:19235   */\n      swap3\n      swap2\n      pop\n      pop\n      jump\t// out\n        /* \"#utility.yul\":19241:19426   */\n    tag_182:\n        /* \"#utility.yul\":19281:19282   */\n      0x00\n        /* \"#utility.yul\":19298:19318   */\n      tag_491\n        /* \"#utility.yul\":19316:19317   */\n      dup3\n        /* \"#utility.yul\":19298:19318   */\n      tag_415\n      jump\t// in\n    tag_491:\n        /* \"#utility.yul\":19293:19318   */\n      swap2\n      pop\n        /* \"#utility.yul\":19332:19352   */\n      tag_492\n        /* \"#utility.yul\":19350:19351   */\n      dup4\n        /* \"#utility.yul\":19332:19352   */\n      tag_415\n      jump\t// in\n    tag_492:\n        /* \"#utility.yul\":19327:19352   */\n      swap3\n      pop\n        /* \"#utility.yul\":19371:19372   */\n      dup3\n        /* \"#utility.yul\":19361:19396   */\n      tag_493\n      jumpi\n        /* \"#utility.yul\":19376:19394   */\n      tag_494\n      tag_495\n      jump\t// in\n    tag_494:\n        /* \"#utility.yul\":19361:19396   */\n    tag_493:\n        /* \"#utility.yul\":19418:19419   */\n      dup3\n        /* \"#utility.yul\":19415:19416   */\n      dup3\n        /* \"#utility.yul\":19411:19420   */\n      div\n        /* \"#utility.yul\":19406:19420   */\n      swap1\n      pop\n        /* \"#utility.yul\":19241:19426   */\n      swap3\n      swap2\n      pop\n      pop\n      jump\t// out\n        /* \"#utility.yul\":19432:19780   */\n    tag_180:\n        /* \"#utility.yul\":19472:19479   */\n      0x00\n        /* \"#utility.yul\":19495:19515   */\n      tag_497\n        /* \"#utility.yul\":19513:19514   */\n      dup3\n        /* \"#utility.yul\":19495:19515   */\n      tag_415\n      jump\t// in\n    tag_497:\n        /* \"#utility.yul\":19490:19515   */\n      swap2\n      pop\n        /* \"#utility.yul\":19529:19549   */\n      tag_498\n        /* \"#utility.yul\":19547:19548   */\n      dup4\n        /* \"#utility.yul\":19529:19549   */\n      tag_415\n      jump\t// in\n    tag_498:\n        /* \"#utility.yul\":19524:19549   */\n      swap3\n      pop\n        /* \"#utility.yul\":19717:19718   */\n      dup2\n        /* \"#utility.yul\":19649:19715   */\n      0xffffffffffffffffffffffffffffffffffffffffffffffffffffffffffffffff\n        /* \"#utility.yul\":19645:19719   */\n      div\n        /* \"#utility.yul\":19642:19643   */\n      dup4\n        /* \"#utility.yul\":19639:19720   */\n      gt\n        /* \"#utility.yul\":19634:19635   */\n      dup3\n        /* \"#utility.yul\":19627:19636   */\n      iszero\n        /* \"#utility.yul\":19620:19637   */\n      iszero\n        /* \"#utility.yul\":19616:19721   */\n      and\n        /* \"#utility.yul\":19613:19744   */\n      iszero\n      tag_499\n      jumpi\n        /* \"#utility.yul\":19724:19742   */\n      tag_500\n      tag_489\n      jump\t// in\n    tag_500:\n        /* \"#utility.yul\":19613:19744   */\n    tag_499:\n        /* \"#utility.yul\":19772:19773   */\n      dup3\n        /* \"#utility.yul\":19769:19770   */\n      dup3\n        /* \"#utility.yul\":19765:19774   */\n      mul\n        /* \"#utility.yul\":19754:19774   */\n      swap1\n      pop\n        /* \"#utility.yul\":19432:19780   */\n      swap3\n      swap2\n      pop\n      pop\n      jump\t// out\n        /* \"#utility.yul\":19786:19977   */\n    tag_178:\n        /* \"#utility.yul\":19826:19830   */\n      0x00\n        /* \"#utility.yul\":19846:19866   */\n      tag_502\n        /* \"#utility.yul\":19864:19865   */\n      dup3\n        /* \"#utility.yul\":19846:19866   */\n      tag_415\n      jump\t// in\n    tag_502:\n        /* \"#utility.yul\":19841:19866   */\n      swap2\n      pop\n        /* \"#utility.yul\":19880:19900   */\n      tag_503\n        /* \"#utility.yul\":19898:19899   */\n      dup4\n        /* \"#utility.yul\":19880:19900   */\n      tag_415\n      jump\t// in\n    tag_503:\n        /* \"#utility.yul\":19875:19900   */\n      swap3\n      pop\n        /* \"#utility.yul\":19919:19920   */\n      dup3\n        /* \"#utility.yul\":19916:19917   */\n      dup3\n        /* \"#utility.yul\":19913:19921   */\n      lt\n        /* \"#utility.yul\":19910:19944   */\n      iszero\n      tag_504\n      jumpi\n        /* \"#utility.yul\":19924:19942   */\n      tag_505\n      tag_489\n      jump\t// in\n    tag_505:\n        /* \"#utility.yul\":19910:19944   */\n    tag_504:\n        /* \"#utility.yul\":19969:19970   */\n      dup3\n        /* \"#utility.yul\":19966:19967   */\n      dup3\n        /* \"#utility.yul\":19962:19971   */\n      sub\n        /* \"#utility.yul\":19954:19971   */\n      swap1\n      pop\n        /* \"#utility.yul\":19786:19977   */\n      swap3\n      swap2\n      pop\n      pop\n      jump\t// out\n        /* \"#utility.yul\":19983:20079   */\n    tag_315:\n        /* \"#utility.yul\":20020:20027   */\n      0x00\n        /* \"#utility.yul\":20049:20073   */\n      tag_507\n        /* \"#utility.yul\":20067:20072   */\n      dup3\n        /* \"#utility.yul\":20049:20073   */\n      tag_508\n      jump\t// in\n    tag_507:\n        /* \"#utility.yul\":20038:20073   */\n      swap1\n      pop\n        /* \"#utility.yul\":19983:20079   */\n      swap2\n      swap1\n      pop\n      jump\t// out\n        /* \"#utility.yul\":20085:20189   */\n    tag_308:\n        /* \"#utility.yul\":20130:20137   */\n      0x00\n        /* \"#utility.yul\":20159:20183   */\n      tag_510\n        /* \"#utility.yul\":20177:20182   */\n      dup3\n        /* \"#utility.yul\":20159:20183   */\n      tag_508\n      jump\t// in\n    tag_510:\n        /* \"#utility.yul\":20148:20183   */\n      swap1\n      pop\n        /* \"#utility.yul\":20085:20189   */\n      swap2\n      swap1\n      pop\n      jump\t// out\n        /* \"#utility.yul\":20195:20285   */\n    tag_347:\n        /* \"#utility.yul\":20229:20236   */\n      0x00\n        /* \"#utility.yul\":20272:20277   */\n      dup2\n        /* \"#utility.yul\":20265:20278   */\n      iszero\n        /* \"#utility.yul\":20258:20279   */\n      iszero\n        /* \"#utility.yul\":20247:20279   */\n      swap1\n      pop\n        /* \"#utility.yul\":20195:20285   */\n      swap2\n      swap1\n      pop\n      jump\t// out\n        /* \"#utility.yul\":20291:20416   */\n    tag_512:\n        /* \"#utility.yul\":20335:20342   */\n      0x00\n        /* \"#utility.yul\":20364:20369   */\n      dup2\n        /* \"#utility.yul\":20353:20369   */\n      swap1\n      pop\n        /* \"#utility.yul\":20370:20410   */\n      tag_514\n        /* \"#utility.yul\":20404:20409   */\n      dup3\n        /* \"#utility.yul\":20370:20410   */\n      tag_515\n      jump\t// in\n    tag_514:\n        /* \"#utility.yul\":20291:20416   */\n      swap2\n      swap1\n      pop\n      jump\t// out\n        /* \"#utility.yul\":20422:20548   */\n    tag_508:\n        /* \"#utility.yul\":20459:20466   */\n      0x00\n        /* \"#utility.yul\":20499:20541   */\n      0xffffffffffffffffffffffffffffffffffffffff\n        /* \"#utility.yul\":20492:20497   */\n      dup3\n        /* \"#utility.yul\":20488:20542   */\n      and\n        /* \"#utility.yul\":20477:20542   */\n      swap1\n      pop\n        /* \"#utility.yul\":20422:20548   */\n      swap2\n      swap1\n      pop\n      jump\t// out\n        /* \"#utility.yul\":20554:20631   */\n    tag_415:\n        /* \"#utility.yul\":20591:20598   */\n      0x00\n        /* \"#utility.yul\":20620:20625   */\n      dup2\n        /* \"#utility.yul\":20609:20625   */\n      swap1\n      pop\n        /* \"#utility.yul\":20554:20631   */\n      swap2\n      swap1\n      pop\n      jump\t// out\n        /* \"#utility.yul\":20637:20762   */\n    tag_351:\n        /* \"#utility.yul\":20692:20701   */\n      0x00\n        /* \"#utility.yul\":20725:20756   */\n      tag_519\n        /* \"#utility.yul\":20750:20755   */\n      dup3\n        /* \"#utility.yul\":20725:20756   */\n      tag_512\n      jump\t// in\n    tag_519:\n        /* \"#utility.yul\":20712:20756   */\n      swap1\n      pop\n        /* \"#utility.yul\":20637:20762   */\n      swap2\n      swap1\n      pop\n      jump\t// out\n        /* \"#utility.yul\":20768:20889   */\n    tag_358:\n        /* \"#utility.yul\":20826:20835   */\n      0x00\n        /* \"#utility.yul\":20859:20883   */\n      tag_521\n        /* \"#utility.yul\":20877:20882   */\n      dup3\n        /* \"#utility.yul\":20859:20883   */\n      tag_415\n      jump\t// in\n    tag_521:\n        /* \"#utility.yul\":20846:20883   */\n      swap1\n      pop\n        /* \"#utility.yul\":20768:20889   */\n      swap2\n      swap1\n      pop\n      jump\t// out\n        /* \"#utility.yul\":20895:21049   */\n    tag_271:\n        /* \"#utility.yul\":20979:20985   */\n      dup3\n        /* \"#utility.yul\":20974:20977   */\n      dup2\n        /* \"#utility.yul\":20969:20972   */\n      dup4\n        /* \"#utility.yul\":20956:20986   */\n      calldatacopy\n        /* \"#utility.yul\":21041:21042   */\n      0x00\n        /* \"#utility.yul\":21032:21038   */\n      dup4\n        /* \"#utility.yul\":21027:21030   */\n      dup4\n        /* \"#utility.yul\":21023:21039   */\n      add\n        /* \"#utility.yul\":21016:21043   */\n      mstore\n        /* \"#utility.yul\":20895:21049   */\n      pop\n      pop\n      pop\n      jump\t// out\n        /* \"#utility.yul\":21055:21362   */\n    tag_366:\n        /* \"#utility.yul\":21123:21124   */\n      0x00\n        /* \"#utility.yul\":21133:21246   */\n    tag_524:\n        /* \"#utility.yul\":21147:21153   */\n      dup4\n        /* \"#utility.yul\":21144:21145   */\n      dup2\n        /* \"#utility.yul\":21141:21154   */\n      lt\n        /* \"#utility.yul\":21133:21246   */\n      iszero\n      tag_526\n      jumpi\n        /* \"#utility.yul\":21232:21233   */\n      dup1\n        /* \"#utility.yul\":21227:21230   */\n      dup3\n        /* \"#utility.yul\":21223:21234   */\n      add\n        /* \"#utility.yul\":21217:21235   */\n      mload\n        /* \"#utility.yul\":21213:21214   */\n      dup2\n        /* \"#utility.yul\":21208:21211   */\n      dup5\n        /* \"#utility.yul\":21204:21215   */\n      add\n        /* \"#utility.yul\":21197:21236   */\n      mstore\n        /* \"#utility.yul\":21169:21171   */\n      0x20\n        /* \"#utility.yul\":21166:21167   */\n      dup2\n        /* \"#utility.yul\":21162:21172   */\n      add\n        /* \"#utility.yul\":21157:21172   */\n      swap1\n      pop\n        /* \"#utility.yul\":21133:21246   */\n      jump(tag_524)\n    tag_526:\n        /* \"#utility.yul\":21264:21270   */\n      dup4\n        /* \"#utility.yul\":21261:21262   */\n      dup2\n        /* \"#utility.yul\":21258:21271   */\n      gt\n        /* \"#utility.yul\":21255:21356   */\n      iszero\n      tag_527\n      jumpi\n        /* \"#utility.yul\":21344:21345   */\n      0x00\n        /* \"#utility.yul\":21335:21341   */\n      dup5\n        /* \"#utility.yul\":21330:21333   */\n      dup5\n        /* \"#utility.yul\":21326:21342   */\n      add\n        /* \"#utility.yul\":21319:21346   */\n      mstore\n        /* \"#utility.yul\":21255:21356   */\n    tag_527:\n        /* \"#utility.yul\":21104:21362   */\n      pop\n        /* \"#utility.yul\":21055:21362   */\n      pop\n      pop\n      pop\n      jump\t// out\n        /* \"#utility.yul\":21368:21649   */\n    tag_467:\n        /* \"#utility.yul\":21451:21478   */\n      tag_529\n        /* \"#utility.yul\":21473:21477   */\n      dup3\n        /* \"#utility.yul\":21451:21478   */\n      tag_368\n      jump\t// in\n    tag_529:\n        /* \"#utility.yul\":21443:21449   */\n      dup2\n        /* \"#utility.yul\":21439:21479   */\n      add\n        /* \"#utility.yul\":21581:21587   */\n      dup2\n        /* \"#utility.yul\":21569:21579   */\n      dup2\n        /* \"#utility.yul\":21566:21588   */\n      lt\n        /* \"#utility.yul\":21545:21563   */\n      0xffffffffffffffff\n        /* \"#utility.yul\":21533:21543   */\n      dup3\n        /* \"#utility.yul\":21530:21564   */\n      gt\n        /* \"#utility.yul\":21527:21589   */\n      or\n        /* \"#utility.yul\":21524:21612   */\n      iszero\n      tag_530\n      jumpi\n        /* \"#utility.yul\":21592:21610   */\n      tag_531\n      tag_226\n      jump\t// in\n    tag_531:\n        /* \"#utility.yul\":21524:21612   */\n    tag_530:\n        /* \"#utility.yul\":21632:21642   */\n      dup1\n        /* \"#utility.yul\":21628:21630   */\n      0x40\n        /* \"#utility.yul\":21621:21643   */\n      mstore\n        /* \"#utility.yul\":21411:21649   */\n      pop\n        /* \"#utility.yul\":21368:21649   */\n      pop\n      pop\n      jump\t// out\n        /* \"#utility.yul\":21655:21888   */\n    tag_222:\n        /* \"#utility.yul\":21694:21697   */\n      0x00\n        /* \"#utility.yul\":21717:21741   */\n      tag_533\n        /* \"#utility.yul\":21735:21740   */\n      dup3\n        /* \"#utility.yul\":21717:21741   */\n      tag_415\n      jump\t// in\n    tag_533:\n        /* \"#utility.yul\":21708:21741   */\n      swap2\n      pop\n        /* \"#utility.yul\":21763:21829   */\n      0xffffffffffffffffffffffffffffffffffffffffffffffffffffffffffffffff\n        /* \"#utility.yul\":21756:21761   */\n      dup3\n        /* \"#utility.yul\":21753:21830   */\n      eq\n        /* \"#utility.yul\":21750:21853   */\n      iszero\n      tag_534\n      jumpi\n        /* \"#utility.yul\":21833:21851   */\n      tag_535\n      tag_489\n      jump\t// in\n    tag_535:\n        /* \"#utility.yul\":21750:21853   */\n    tag_534:\n        /* \"#utility.yul\":21880:21881   */\n      0x01\n        /* \"#utility.yul\":21873:21878   */\n      dup3\n        /* \"#utility.yul\":21869:21882   */\n      add\n        /* \"#utility.yul\":21862:21882   */\n      swap1\n      pop\n        /* \"#utility.yul\":21655:21888   */\n      swap2\n      swap1\n      pop\n      jump\t// out\n        /* \"#utility.yul\":21894:22070   */\n    tag_232:\n        /* \"#utility.yul\":21926:21927   */\n      0x00\n        /* \"#utility.yul\":21943:21963   */\n      tag_537\n        /* \"#utility.yul\":21961:21962   */\n      dup3\n        /* \"#utility.yul\":21943:21963   */\n      tag_415\n      jump\t// in\n    tag_537:\n        /* \"#utility.yul\":21938:21963   */\n      swap2\n      pop\n        /* \"#utility.yul\":21977:21997   */\n      tag_538\n        /* \"#utility.yul\":21995:21996   */\n      dup4\n        /* \"#utility.yul\":21977:21997   */\n      tag_415\n      jump\t// in\n    tag_538:\n        /* \"#utility.yul\":21972:21997   */\n      swap3\n      pop\n        /* \"#utility.yul\":22016:22017   */\n      dup3\n        /* \"#utility.yul\":22006:22041   */\n      tag_539\n      jumpi\n        /* \"#utility.yul\":22021:22039   */\n      tag_540\n      tag_495\n      jump\t// in\n    tag_540:\n        /* \"#utility.yul\":22006:22041   */\n    tag_539:\n        /* \"#utility.yul\":22062:22063   */\n      dup3\n        /* \"#utility.yul\":22059:22060   */\n      dup3\n        /* \"#utility.yul\":22055:22064   */\n      mod\n        /* \"#utility.yul\":22050:22064   */\n      swap1\n      pop\n        /* \"#utility.yul\":21894:22070   */\n      swap3\n      swap2\n      pop\n      pop\n      jump\t// out\n        /* \"#utility.yul\":22076:22256   */\n    tag_489:\n        /* \"#utility.yul\":22124:22201   */\n      0x4e487b7100000000000000000000000000000000000000000000000000000000\n        /* \"#utility.yul\":22121:22122   */\n      0x00\n        /* \"#utility.yul\":22114:22202   */\n      mstore\n        /* \"#utility.yul\":22221:22225   */\n      0x11\n        /* \"#utility.yul\":22218:22219   */\n      0x04\n        /* \"#utility.yul\":22211:22226   */\n      mstore\n        /* \"#utility.yul\":22245:22249   */\n      0x24\n        /* \"#utility.yul\":22242:22243   */\n      0x00\n        /* \"#utility.yul\":22235:22250   */\n      revert\n        /* \"#utility.yul\":22262:22442   */\n    tag_495:\n        /* \"#utility.yul\":22310:22387   */\n      0x4e487b7100000000000000000000000000000000000000000000000000000000\n        /* \"#utility.yul\":22307:22308   */\n      0x00\n        /* \"#utility.yul\":22300:22388   */\n      mstore\n        /* \"#utility.yul\":22407:22411   */\n      0x12\n        /* \"#utility.yul\":22404:22405   */\n      0x04\n        /* \"#utility.yul\":22397:22412   */\n      mstore\n        /* \"#utility.yul\":22431:22435   */\n      0x24\n        /* \"#utility.yul\":22428:22429   */\n      0x00\n        /* \"#utility.yul\":22421:22436   */\n      revert\n        /* \"#utility.yul\":22448:22628   */\n    tag_135:\n        /* \"#utility.yul\":22496:22573   */\n      0x4e487b7100000000000000000000000000000000000000000000000000000000\n        /* \"#utility.yul\":22493:22494   */\n      0x00\n        /* \"#utility.yul\":22486:22574   */\n      mstore\n        /* \"#utility.yul\":22593:22597   */\n      0x21\n        /* \"#utility.yul\":22590:22591   */\n      0x04\n        /* \"#utility.yul\":22583:22598   */\n      mstore\n        /* \"#utility.yul\":22617:22621   */\n      0x24\n        /* \"#utility.yul\":22614:22615   */\n      0x00\n        /* \"#utility.yul\":22607:22622   */\n      revert\n        /* \"#utility.yul\":22634:22814   */\n    tag_237:\n        /* \"#utility.yul\":22682:22759   */\n      0x4e487b7100000000000000000000000000000000000000000000000000000000\n        /* \"#utility.yul\":22679:22680   */\n      0x00\n        /* \"#utility.yul\":22672:22760   */\n      mstore\n        /* \"#utility.yul\":22779:22783   */\n      0x32\n        /* \"#utility.yul\":22776:22777   */\n      0x04\n        /* \"#utility.yul\":22769:22784   */\n      mstore\n        /* \"#utility.yul\":22803:22807   */\n      0x24\n        /* \"#utility.yul\":22800:22801   */\n      0x00\n        /* \"#utility.yul\":22793:22808   */\n      revert\n        /* \"#utility.yul\":22820:23000   */\n    tag_226:\n        /* \"#utility.yul\":22868:22945   */\n      0x4e487b7100000000000000000000000000000000000000000000000000000000\n        /* \"#utility.yul\":22865:22866   */\n      0x00\n        /* \"#utility.yul\":22858:22946   */\n      mstore\n        /* \"#utility.yul\":22965:22969   */\n      0x41\n        /* \"#utility.yul\":22962:22963   */\n      0x04\n        /* \"#utility.yul\":22955:22970   */\n      mstore\n        /* \"#utility.yul\":22989:22993   */\n      0x24\n        /* \"#utility.yul\":22986:22987   */\n      0x00\n        /* \"#utility.yul\":22979:22994   */\n      revert\n        /* \"#utility.yul\":23006:23123   */\n    tag_276:\n        /* \"#utility.yul\":23115:23116   */\n      0x00\n        /* \"#utility.yul\":23112:23113   */\n      dup1\n        /* \"#utility.yul\":23105:23117   */\n      revert\n        /* \"#utility.yul\":23129:23246   */\n    tag_269:\n        /* \"#utility.yul\":23238:23239   */\n      0x00\n        /* \"#utility.yul\":23235:23236   */\n      dup1\n        /* \"#utility.yul\":23228:23240   */\n      revert\n        /* \"#utility.yul\":23252:23369   */\n    tag_288:\n        /* \"#utility.yul\":23361:23362   */\n      0x00\n        /* \"#utility.yul\":23358:23359   */\n      dup1\n        /* \"#utility.yul\":23351:23363   */\n      revert\n        /* \"#utility.yul\":23375:23492   */\n    tag_285:\n        /* \"#utility.yul\":23484:23485   */\n      0x00\n        /* \"#utility.yul\":23481:23482   */\n      dup1\n        /* \"#utility.yul\":23474:23486   */\n      revert\n        /* \"#utility.yul\":23498:23600   */\n    tag_368:\n        /* \"#utility.yul\":23539:23545   */\n      0x00\n        /* \"#utility.yul\":23590:23592   */\n      0x1f\n        /* \"#utility.yul\":23586:23593   */\n      not\n        /* \"#utility.yul\":23581:23583   */\n      0x1f\n        /* \"#utility.yul\":23574:23579   */\n      dup4\n        /* \"#utility.yul\":23570:23584   */\n      add\n        /* \"#utility.yul\":23566:23594   */\n      and\n        /* \"#utility.yul\":23556:23594   */\n      swap1\n      pop\n        /* \"#utility.yul\":23498:23600   */\n      swap2\n      swap1\n      pop\n      jump\t// out\n        /* \"#utility.yul\":23606:23770   */\n    tag_379:\n        /* \"#utility.yul\":23746:23762   */\n      0x4e6f7420417574686f7269736564000000000000000000000000000000000000\n        /* \"#utility.yul\":23742:23743   */\n      0x00\n        /* \"#utility.yul\":23734:23740   */\n      dup3\n        /* \"#utility.yul\":23730:23744   */\n      add\n        /* \"#utility.yul\":23723:23763   */\n      mstore\n        /* \"#utility.yul\":23606:23770   */\n      pop\n      jump\t// out\n        /* \"#utility.yul\":23776:23939   */\n    tag_384:\n        /* \"#utility.yul\":23916:23931   */\n      0x4f726465722050656e64696e6700000000000000000000000000000000000000\n        /* \"#utility.yul\":23912:23913   */\n      0x00\n        /* \"#utility.yul\":23904:23910   */\n      dup3\n        /* \"#utility.yul\":23900:23914   */\n      add\n        /* \"#utility.yul\":23893:23932   */\n      mstore\n        /* \"#utility.yul\":23776:23939   */\n      pop\n      jump\t// out\n        /* \"#utility.yul\":23945:24096   */\n    tag_389:\n        /* \"#utility.yul\":24085:24088   */\n      0x2000000000000000000000000000000000000000000000000000000000000000\n        /* \"#utility.yul\":24081:24082   */\n      0x00\n        /* \"#utility.yul\":24073:24079   */\n      dup3\n        /* \"#utility.yul\":24069:24083   */\n      add\n        /* \"#utility.yul\":24062:24089   */\n      mstore\n        /* \"#utility.yul\":23945:24096   */\n      pop\n      jump\t// out\n        /* \"#utility.yul\":24102:24282   */\n    tag_394:\n        /* \"#utility.yul\":24242:24274   */\n      0x4e6f7420656e6f75676820626c616e636520746f20706c616365206269640000\n        /* \"#utility.yul\":24238:24239   */\n      0x00\n        /* \"#utility.yul\":24230:24236   */\n      dup3\n        /* \"#utility.yul\":24226:24240   */\n      add\n        /* \"#utility.yul\":24219:24275   */\n      mstore\n        /* \"#utility.yul\":24102:24282   */\n      pop\n      jump\t// out\n        /* \"#utility.yul\":24288:24469   */\n    tag_399:\n        /* \"#utility.yul\":24428:24461   */\n      0x70726963652076616c7565206d757374206265206d6f7265207468616e203000\n        /* \"#utility.yul\":24424:24425   */\n      0x00\n        /* \"#utility.yul\":24416:24422   */\n      dup3\n        /* \"#utility.yul\":24412:24426   */\n      add\n        /* \"#utility.yul\":24405:24462   */\n      mstore\n        /* \"#utility.yul\":24288:24469   */\n      pop\n      jump\t// out\n        /* \"#utility.yul\":24475:24655   */\n    tag_404:\n        /* \"#utility.yul\":24615:24647   */\n      0x4e6f7420656e6f75676820626c616e636520746f20706c6163652061736b0000\n        /* \"#utility.yul\":24611:24612   */\n      0x00\n        /* \"#utility.yul\":24603:24609   */\n      dup3\n        /* \"#utility.yul\":24599:24613   */\n      add\n        /* \"#utility.yul\":24592:24648   */\n      mstore\n        /* \"#utility.yul\":24475:24655   */\n      pop\n      jump\t// out\n        /* \"#utility.yul\":24661:24773   */\n    tag_515:\n        /* \"#utility.yul\":24741:24742   */\n      0x02\n        /* \"#utility.yul\":24734:24739   */\n      dup2\n        /* \"#utility.yul\":24731:24743   */\n      lt\n        /* \"#utility.yul\":24721:24767   */\n      tag_558\n      jumpi\n        /* \"#utility.yul\":24747:24765   */\n      tag_559\n      tag_135\n      jump\t// in\n    tag_559:\n        /* \"#utility.yul\":24721:24767   */\n    tag_558:\n        /* \"#utility.yul\":24661:24773   */\n      pop\n      jump\t// out\n        /* \"#utility.yul\":24779:24901   */\n    tag_281:\n        /* \"#utility.yul\":24852:24876   */\n      tag_561\n        /* \"#utility.yul\":24870:24875   */\n      dup2\n        /* \"#utility.yul\":24852:24876   */\n      tag_415\n      jump\t// in\n    tag_561:\n        /* \"#utility.yul\":24845:24850   */\n      dup2\n        /* \"#utility.yul\":24842:24877   */\n      eq\n        /* \"#utility.yul\":24832:24895   */\n      tag_562\n      jumpi\n        /* \"#utility.yul\":24891:24892   */\n      0x00\n        /* \"#utility.yul\":24888:24889   */\n      dup1\n        /* \"#utility.yul\":24881:24893   */\n      revert\n        /* \"#utility.yul\":24832:24895   */\n    tag_562:\n        /* \"#utility.yul\":24779:24901   */\n      pop\n      jump\t// out\n\n    auxdata: 0xa2646970667358221220a2192e4a7b9f84a6fb00b71deb63665efba8a58f8af98f55b45d2b423d49b32264736f6c63430008070033\n}\n",
				"bytecode": {
					"linkReferences": {},
					"object": "608060405233600160006101000a81548173ffffffffffffffffffffffffffffffffffffffff021916908373ffffffffffffffffffffffffffffffffffffffff1602179055503480156200005257600080fd5b506040516200219d3803806200219d8339818101604052810190620000789190620000bd565b8060028190555060006004819055506000600581905550600060078190555060006008819055505062000118565b600081519050620000b781620000fe565b92915050565b600060208284031215620000d657620000d5620000f9565b5b6000620000e684828501620000a6565b91505092915050565b6000819050919050565b600080fd5b6200010981620000ef565b81146200011557600080fd5b50565b61207580620001286000396000f3fe6080604052600436106101355760003560e01c806378c5b268116100ab578063b40a56271161006f578063b40a562714610434578063bf77ffae1461045f578063ce0cdc871461049c578063d05c28cb146104c7578063d09ef24114610504578063db3a13961461054857610135565b806378c5b2681461037d578063801d9bbd146103995780639703ef35146103c45780639979ef45146103ed578063a394fda71461040957610135565b806344e791e0116100fd57806344e791e0146102335780634d46712d1461025e57806369f632e21461029b5780636e5b0f00146102d8578063733672f414610303578063734a2e781461034057610135565b8063122de8f21461013a5780631628e0f514610165578063266001d31461018e5780632db6dfa7146101cb5780634471417f14610208575b600080fd5b34801561014657600080fd5b5061014f610585565b60405161015c9190611972565b60405180910390f35b34801561017157600080fd5b5061018c600480360381019061018791906114a0565b61058a565b005b34801561019a57600080fd5b506101b560048036038101906101b09190611428565b610830565b6040516101c291906119af565b60405180910390f35b3480156101d757600080fd5b506101f260048036038101906101ed91906114a0565b61085c565b6040516101ff9190611a71565b60405180910390f35b34801561021457600080fd5b5061021d61087c565b60405161022a9190611950565b60405180910390f35b34801561023f57600080fd5b50610248610881565b60405161025591906119af565b60405180910390f35b34801561026a57600080fd5b50610285600480360381019061028091906114a0565b6108ed565b6040516102929190611994565b60405180910390f35b3480156102a757600080fd5b506102c260048036038101906102bd91906114a0565b61091a565b6040516102cf9190611839565b60405180910390f35b3480156102e457600080fd5b506102ed61095a565b6040516102fa9190611a71565b60405180910390f35b34801561030f57600080fd5b5061032a600480360381019061032591906114a0565b610960565b6040516103379190611a71565b60405180910390f35b34801561034c57600080fd5b50610367600480360381019061036291906114a0565b610980565b6040516103749190611839565b60405180910390f35b610397600480360381019061039291906114a0565b6109c0565b005b3480156103a557600080fd5b506103ae610a94565b6040516103bb9190611a71565b60405180910390f35b3480156103d057600080fd5b506103eb60048036038101906103e691906114a0565b610a9a565b005b610407600480360381019061040291906114a0565b610d40565b005b34801561041557600080fd5b5061041e610dca565b60405161042b9190611a71565b60405180910390f35b34801561044057600080fd5b50610449610dd0565b6040516104569190611a71565b60405180910390f35b34801561046b57600080fd5b50610486600480360381019061048191906114a0565b610dd6565b6040516104939190611994565b60405180910390f35b3480156104a857600080fd5b506104b1610e03565b6040516104be9190611972565b60405180910390f35b3480156104d357600080fd5b506104ee60048036038101906104e991906114a0565b610e08565b6040516104fb9190611a71565b60405180910390f35b34801561051057600080fd5b5061052b600480360381019061052691906114a0565b610e28565b60405161053f989796959493929190611854565b60405180910390f35b34801561055457600080fd5b5061056f600480360381019061056a91906114a0565b610e3f565b60405161057c9190611a71565b60405180910390f35b606090565b600660008281526020019081526020016000206040518060e00160405290816000820160009054906101000a900473ffffffffffffffffffffffffffffffffffffffff1673ffffffffffffffffffffffffffffffffffffffff1673ffffffffffffffffffffffffffffffffffffffff16815260200160018201548152602001600282015481526020016003820160009054906101000a900460ff16600181111561063757610636611e6c565b5b600181111561064957610648611e6c565b5b815260200160048201548152602001600582015481526020016006820154815250506000600181111561067f5761067e611e6c565b5b8160600151600181111561069657610695611e6c565b5b146106d6576040517f08c379a00000000000000000000000000000000000000000000000000000000081526004016106cd906119f1565b60405180910390fd5b600660008381526020019081526020016000206040518060e00160405290816000820160009054906101000a900473ffffffffffffffffffffffffffffffffffffffff1673ffffffffffffffffffffffffffffffffffffffff1673ffffffffffffffffffffffffffffffffffffffff16815260200160018201548152602001600282015481526020016003820160009054906101000a900460ff16600181111561078357610782611e6c565b5b600181111561079557610794611e6c565b5b81526020016004820154815260200160058201548152602001600682015481525050338073ffffffffffffffffffffffffffffffffffffffff16826000015173ffffffffffffffffffffffffffffffffffffffff161461082a576040517f08c379a0000000000000000000000000000000000000000000000000000000008152600401610821906119d1565b60405180910390fd5b50505050565b6060828260405160200161084592919061180a565b604051602081830303815290604052905092915050565b600060036000838152602001908152602001600020600101549050919050565b606090565b60606000600754905060006040518060200160405280600081525090505b600082146108e55760006006600084815260200190815260200160002060050154905060006108cd84610e5f565b90506108d98382610830565b9250819350505061089f565b809250505090565b60006006600083815260200190815260200160002060030160009054906101000a900460ff169050919050565b60006003600083815260200190815260200160002060000160009054906101000a900473ffffffffffffffffffffffffffffffffffffffff169050919050565b60045481565b600060066000838152602001908152602001600020600501549050919050565b60006006600083815260200190815260200160002060000160009054906101000a900473ffffffffffffffffffffffffffffffffffffffff169050919050565b6000811015610a04576040517f08c379a00000000000000000000000000000000000000000000000000000000081526004016109fb90611a31565b60405180910390fd5b80341015610a47576040517f08c379a0000000000000000000000000000000000000000000000000000000008152600401610a3e90611a51565b60405180910390fd5b6000429050600060646002546064610a5f9190611c5c565b34610a6a9190611c02565b610a749190611bd1565b90506000610a83338385610fc0565b9050610a8e8161115b565b50505050565b60075481565b600360008281526020019081526020016000206040518060e00160405290816000820160009054906101000a900473ffffffffffffffffffffffffffffffffffffffff1673ffffffffffffffffffffffffffffffffffffffff1673ffffffffffffffffffffffffffffffffffffffff16815260200160018201548152602001600282015481526020016003820160009054906101000a900460ff166001811115610b4757610b46611e6c565b5b6001811115610b5957610b58611e6c565b5b8152602001600482015481526020016005820154815260200160068201548152505060006001811115610b8f57610b8e611e6c565b5b81606001516001811115610ba657610ba5611e6c565b5b14610be6576040517f08c379a0000000000000000000000000000000000000000000000000000000008152600401610bdd906119f1565b60405180910390fd5b600360008381526020019081526020016000206040518060e00160405290816000820160009054906101000a900473ffffffffffffffffffffffffffffffffffffffff1673ffffffffffffffffffffffffffffffffffffffff1673ffffffffffffffffffffffffffffffffffffffff16815260200160018201548152602001600282015481526020016003820160009054906101000a900460ff166001811115610c9357610c92611e6c565b5b6001811115610ca557610ca4611e6c565b5b81526020016004820154815260200160058201548152602001600682015481525050338073ffffffffffffffffffffffffffffffffffffffff16826000015173ffffffffffffffffffffffffffffffffffffffff1614610d3a576040517f08c379a0000000000000000000000000000000000000000000000000000000008152600401610d31906119d1565b60405180910390fd5b50505050565b6000811015610d84576040517f08c379a0000000000000000000000000000000000000000000000000000000008152600401610d7b90611a31565b60405180910390fd5b80341015610dc7576040517f08c379a0000000000000000000000000000000000000000000000000000000008152600401610dbe90611a11565b60405180910390fd5b50565b60085481565b60055481565b60006003600083815260200190815260200160002060030160009054906101000a900460ff169050919050565b606090565b600060066000838152602001908152602001600020600601549050919050565b600080600080600080600080919395975091939597565b600060066000838152602001908152602001600020600101549050919050565b60606000821415610ea7576040518060400160405280600181526020017f30000000000000000000000000000000000000000000000000000000000000008152509050610fbb565b600082905060005b60008214610ed9578080610ec290611d94565b915050600a82610ed29190611bd1565b9150610eaf565b60008167ffffffffffffffff811115610ef557610ef4611eca565b5b6040519080825280601f01601f191660200182016040528015610f275781602001600182028036833780820191505090505b5090505b60008514610fb457600182610f409190611c5c565b9150600a85610f4f9190611ddd565b6030610f5b9190611b7b565b60f81b818381518110610f7157610f70611e9b565b5b60200101907effffffffffffffffffffffffffffffffffffffffffffffffffffffffffffff1916908160001a905350600a85610fad9190611bd1565b9450610f2b565b8093505050505b919050565b610fc861133e565b60086000815480929190610fdb90611d94565b919050555060006040518060e001604052808673ffffffffffffffffffffffffffffffffffffffff1681526020018581526020018481526020016000600181111561102957611028611e6c565b5b8152602001600854815260200160008152602001600081525090508060066000600854815260200190815260200160002060008201518160000160006101000a81548173ffffffffffffffffffffffffffffffffffffffff021916908373ffffffffffffffffffffffffffffffffffffffff160217905550602082015181600101556040820151816002015560608201518160030160006101000a81548160ff021916908360018111156110e0576110df611e6c565b5b02179055506080820151816004015560a0820151816005015560c082015181600601559050507f93caf6ba1af44020dfe6076e279533e38bd8deefe534c43aa8cc93aad2025b7d858585600060085460008060006040516111489897969594939291906118d2565b60405180910390a1809150509392505050565b600080600754141561117757816080015160078190555061133a565b81602001516006600060075481526020019081526020016000206001015410611204576007546006600084608001518152602001908152602001600020600501819055508160800151600660006006600086608001518152602001908152602001600020600501548152602001908152602001600020600601819055508160800151600781905550611339565b60075490505b600060066000838152602001908152602001600020600501541415801561126057508160200151600660006006600085815260200190815260200160002060050154815260200190815260200160002060010154105b15611283576006600082815260200190815260200160002060050154905061120a565b600660008281526020019081526020016000206005015460066000846080015181526020019081526020016000206005018190555060006006600083815260200190815260200160002060050154146112fa578160800151600660008460a001518152602001908152602001600020600601819055505b81608001516006600083815260200190815260200160002060050181905550806006600084608001518152602001908152602001600020600601819055505b5b5050565b6040518060e00160405280600073ffffffffffffffffffffffffffffffffffffffff16815260200160008152602001600081526020016000600181111561138857611387611e6c565b5b81526020016000815260200160008152602001600081525090565b60006113b66113b184611ab1565b611a8c565b9050828152602081018484840111156113d2576113d1611efe565b5b6113dd848285611d21565b509392505050565b600082601f8301126113fa576113f9611ef9565b5b813561140a8482602086016113a3565b91505092915050565b60008135905061142281612028565b92915050565b6000806040838503121561143f5761143e611f08565b5b600083013567ffffffffffffffff81111561145d5761145c611f03565b5b611469858286016113e5565b925050602083013567ffffffffffffffff81111561148a57611489611f03565b5b611496858286016113e5565b9150509250929050565b6000602082840312156114b6576114b5611f08565b5b60006114c484828501611413565b91505092915050565b60006114d9838361175e565b60e08301905092915050565b60006114f183836117ec565b60208301905092915050565b61150681611ca2565b82525050565b61151581611ca2565b82525050565b61152481611c90565b82525050565b600061153582611b02565b61153f8185611b3d565b935061154a83611ae2565b8060005b8381101561157b57815161156288826114cd565b975061156d83611b23565b92505060018101905061154e565b5085935050505092915050565b600061159382611b0d565b61159d8185611b4e565b93506115a883611af2565b8060005b838110156115d95781516115c088826114e5565b97506115cb83611b30565b9250506001810190506115ac565b5085935050505092915050565b6115ef81611cb4565b82525050565b6115fe81611cfd565b82525050565b61160d81611cfd565b82525050565b61161c81611d0f565b82525050565b600061162d82611b18565b6116378185611b5f565b9350611647818560208601611d30565b61165081611f0d565b840191505092915050565b600061166682611b18565b6116708185611b70565b9350611680818560208601611d30565b80840191505092915050565b6000611699600e83611b5f565b91506116a482611f1e565b602082019050919050565b60006116bc600d83611b5f565b91506116c782611f47565b602082019050919050565b60006116df600183611b70565b91506116ea82611f70565b600182019050919050565b6000611702601e83611b5f565b915061170d82611f99565b602082019050919050565b6000611725601f83611b5f565b915061173082611fc2565b602082019050919050565b6000611748601e83611b5f565b915061175382611feb565b602082019050919050565b60e08201600082015161177460008501826114fd565b50602082015161178760208501826117ec565b50604082015161179a60408501826117ec565b5060608201516117ad60608501826115f5565b5060808201516117c060808501826117ec565b5060a08201516117d360a08501826117ec565b5060c08201516117e660c08501826117ec565b50505050565b6117f581611cf3565b82525050565b61180481611cf3565b82525050565b6000611816828561165b565b9150611821826116d2565b915061182d828461165b565b91508190509392505050565b600060208201905061184e600083018461150c565b92915050565b60006101008201905061186a600083018b61150c565b611877602083018a6117fb565b61188460408301896117fb565b6118916060830188611604565b61189e60808301876117fb565b6118ab60a08301866117fb565b6118b860c08301856117fb565b6118c560e08301846115e6565b9998505050505050505050565b6000610100820190506118e8600083018b61151b565b6118f5602083018a6117fb565b61190260408301896117fb565b61190f6060830188611604565b61191c60808301876117fb565b61192960a0830186611613565b61193660c0830185611613565b61194360e08301846115e6565b9998505050505050505050565b6000602082019050818103600083015261196a818461152a565b905092915050565b6000602082019050818103600083015261198c8184611588565b905092915050565b60006020820190506119a96000830184611604565b92915050565b600060208201905081810360008301526119c98184611622565b905092915050565b600060208201905081810360008301526119ea8161168c565b9050919050565b60006020820190508181036000830152611a0a816116af565b9050919050565b60006020820190508181036000830152611a2a816116f5565b9050919050565b60006020820190508181036000830152611a4a81611718565b9050919050565b60006020820190508181036000830152611a6a8161173b565b9050919050565b6000602082019050611a8660008301846117fb565b92915050565b6000611a96611aa7565b9050611aa28282611d63565b919050565b6000604051905090565b600067ffffffffffffffff821115611acc57611acb611eca565b5b611ad582611f0d565b9050602081019050919050565b6000819050602082019050919050565b6000819050602082019050919050565b600081519050919050565b600081519050919050565b600081519050919050565b6000602082019050919050565b6000602082019050919050565b600082825260208201905092915050565b600082825260208201905092915050565b600082825260208201905092915050565b600081905092915050565b6000611b8682611cf3565b9150611b9183611cf3565b9250827fffffffffffffffffffffffffffffffffffffffffffffffffffffffffffffffff03821115611bc657611bc5611e0e565b5b828201905092915050565b6000611bdc82611cf3565b9150611be783611cf3565b925082611bf757611bf6611e3d565b5b828204905092915050565b6000611c0d82611cf3565b9150611c1883611cf3565b9250817fffffffffffffffffffffffffffffffffffffffffffffffffffffffffffffffff0483118215151615611c5157611c50611e0e565b5b828202905092915050565b6000611c6782611cf3565b9150611c7283611cf3565b925082821015611c8557611c84611e0e565b5b828203905092915050565b6000611c9b82611cd3565b9050919050565b6000611cad82611cd3565b9050919050565b60008115159050919050565b6000819050611cce82612014565b919050565b600073ffffffffffffffffffffffffffffffffffffffff82169050919050565b6000819050919050565b6000611d0882611cc0565b9050919050565b6000611d1a82611cf3565b9050919050565b82818337600083830152505050565b60005b83811015611d4e578082015181840152602081019050611d33565b83811115611d5d576000848401525b50505050565b611d6c82611f0d565b810181811067ffffffffffffffff82111715611d8b57611d8a611eca565b5b80604052505050565b6000611d9f82611cf3565b91507fffffffffffffffffffffffffffffffffffffffffffffffffffffffffffffffff821415611dd257611dd1611e0e565b5b600182019050919050565b6000611de882611cf3565b9150611df383611cf3565b925082611e0357611e02611e3d565b5b828206905092915050565b7f4e487b7100000000000000000000000000000000000000000000000000000000600052601160045260246000fd5b7f4e487b7100000000000000000000000000000000000000000000000000000000600052601260045260246000fd5b7f4e487b7100000000000000000000000000000000000000000000000000000000600052602160045260246000fd5b7f4e487b7100000000000000000000000000000000000000000000000000000000600052603260045260246000fd5b7f4e487b7100000000000000000000000000000000000000000000000000000000600052604160045260246000fd5b600080fd5b600080fd5b600080fd5b600080fd5b6000601f19601f8301169050919050565b7f4e6f7420417574686f7269736564000000000000000000000000000000000000600082015250565b7f4f726465722050656e64696e6700000000000000000000000000000000000000600082015250565b7f2000000000000000000000000000000000000000000000000000000000000000600082015250565b7f4e6f7420656e6f75676820626c616e636520746f20706c616365206269640000600082015250565b7f70726963652076616c7565206d757374206265206d6f7265207468616e203000600082015250565b7f4e6f7420656e6f75676820626c616e636520746f20706c6163652061736b0000600082015250565b6002811061202557612024611e6c565b5b50565b61203181611cf3565b811461203c57600080fd5b5056fea2646970667358221220a2192e4a7b9f84a6fb00b71deb63665efba8a58f8af98f55b45d2b423d49b32264736f6c63430008070033",
					"opcodes": "PUSH1 0x80 PUSH1 0x40 MSTORE CALLER PUSH1 0x1 PUSH1 0x0 PUSH2 0x100 EXP DUP2 SLOAD DUP2 PUSH20 0xFFFFFFFFFFFFFFFFFFFFFFFFFFFFFFFFFFFFFFFF MUL NOT AND SWAP1 DUP4 PUSH20 0xFFFFFFFFFFFFFFFFFFFFFFFFFFFFFFFFFFFFFFFF AND MUL OR SWAP1 SSTORE POP CALLVALUE DUP1 ISZERO PUSH3 0x52 JUMPI PUSH1 0x0 DUP1 REVERT JUMPDEST POP PUSH1 0x40 MLOAD PUSH3 0x219D CODESIZE SUB DUP1 PUSH3 0x219D DUP4 CODECOPY DUP2 DUP2 ADD PUSH1 0x40 MSTORE DUP2 ADD SWAP1 PUSH3 0x78 SWAP2 SWAP1 PUSH3 0xBD JUMP JUMPDEST DUP1 PUSH1 0x2 DUP2 SWAP1 SSTORE POP PUSH1 0x0 PUSH1 0x4 DUP2 SWAP1 SSTORE POP PUSH1 0x0 PUSH1 0x5 DUP2 SWAP1 SSTORE POP PUSH1 0x0 PUSH1 0x7 DUP2 SWAP1 SSTORE POP PUSH1 0x0 PUSH1 0x8 DUP2 SWAP1 SSTORE POP POP PUSH3 0x118 JUMP JUMPDEST PUSH1 0x0 DUP2 MLOAD SWAP1 POP PUSH3 0xB7 DUP2 PUSH3 0xFE JUMP JUMPDEST SWAP3 SWAP2 POP POP JUMP JUMPDEST PUSH1 0x0 PUSH1 0x20 DUP3 DUP5 SUB SLT ISZERO PUSH3 0xD6 JUMPI PUSH3 0xD5 PUSH3 0xF9 JUMP JUMPDEST JUMPDEST PUSH1 0x0 PUSH3 0xE6 DUP5 DUP3 DUP6 ADD PUSH3 0xA6 JUMP JUMPDEST SWAP2 POP POP SWAP3 SWAP2 POP POP JUMP JUMPDEST PUSH1 0x0 DUP2 SWAP1 POP SWAP2 SWAP1 POP JUMP JUMPDEST PUSH1 0x0 DUP1 REVERT JUMPDEST PUSH3 0x109 DUP2 PUSH3 0xEF JUMP JUMPDEST DUP2 EQ PUSH3 0x115 JUMPI PUSH1 0x0 DUP1 REVERT JUMPDEST POP JUMP JUMPDEST PUSH2 0x2075 DUP1 PUSH3 0x128 PUSH1 0x0 CODECOPY PUSH1 0x0 RETURN INVALID PUSH1 0x80 PUSH1 0x40 MSTORE PUSH1 0x4 CALLDATASIZE LT PUSH2 0x135 JUMPI PUSH1 0x0 CALLDATALOAD PUSH1 0xE0 SHR DUP1 PUSH4 0x78C5B268 GT PUSH2 0xAB JUMPI DUP1 PUSH4 0xB40A5627 GT PUSH2 0x6F JUMPI DUP1 PUSH4 0xB40A5627 EQ PUSH2 0x434 JUMPI DUP1 PUSH4 0xBF77FFAE EQ PUSH2 0x45F JUMPI DUP1 PUSH4 0xCE0CDC87 EQ PUSH2 0x49C JUMPI DUP1 PUSH4 0xD05C28CB EQ PUSH2 0x4C7 JUMPI DUP1 PUSH4 0xD09EF241 EQ PUSH2 0x504 JUMPI DUP1 PUSH4 0xDB3A1396 EQ PUSH2 0x548 JUMPI PUSH2 0x135 JUMP JUMPDEST DUP1 PUSH4 0x78C5B268 EQ PUSH2 0x37D JUMPI DUP1 PUSH4 0x801D9BBD EQ PUSH2 0x399 JUMPI DUP1 PUSH4 0x9703EF35 EQ PUSH2 0x3C4 JUMPI DUP1 PUSH4 0x9979EF45 EQ PUSH2 0x3ED JUMPI DUP1 PUSH4 0xA394FDA7 EQ PUSH2 0x409 JUMPI PUSH2 0x135 JUMP JUMPDEST DUP1 PUSH4 0x44E791E0 GT PUSH2 0xFD JUMPI DUP1 PUSH4 0x44E791E0 EQ PUSH2 0x233 JUMPI DUP1 PUSH4 0x4D46712D EQ PUSH2 0x25E JUMPI DUP1 PUSH4 0x69F632E2 EQ PUSH2 0x29B JUMPI DUP1 PUSH4 0x6E5B0F00 EQ PUSH2 0x2D8 JUMPI DUP1 PUSH4 0x733672F4 EQ PUSH2 0x303 JUMPI DUP1 PUSH4 0x734A2E78 EQ PUSH2 0x340 JUMPI PUSH2 0x135 JUMP JUMPDEST DUP1 PUSH4 0x122DE8F2 EQ PUSH2 0x13A JUMPI DUP1 PUSH4 0x1628E0F5 EQ PUSH2 0x165 JUMPI DUP1 PUSH4 0x266001D3 EQ PUSH2 0x18E JUMPI DUP1 PUSH4 0x2DB6DFA7 EQ PUSH2 0x1CB JUMPI DUP1 PUSH4 0x4471417F EQ PUSH2 0x208 JUMPI JUMPDEST PUSH1 0x0 DUP1 REVERT JUMPDEST CALLVALUE DUP1 ISZERO PUSH2 0x146 JUMPI PUSH1 0x0 DUP1 REVERT JUMPDEST POP PUSH2 0x14F PUSH2 0x585 JUMP JUMPDEST PUSH1 0x40 MLOAD PUSH2 0x15C SWAP2 SWAP1 PUSH2 0x1972 JUMP JUMPDEST PUSH1 0x40 MLOAD DUP1 SWAP2 SUB SWAP1 RETURN JUMPDEST CALLVALUE DUP1 ISZERO PUSH2 0x171 JUMPI PUSH1 0x0 DUP1 REVERT JUMPDEST POP PUSH2 0x18C PUSH1 0x4 DUP1 CALLDATASIZE SUB DUP2 ADD SWAP1 PUSH2 0x187 SWAP2 SWAP1 PUSH2 0x14A0 JUMP JUMPDEST PUSH2 0x58A JUMP JUMPDEST STOP JUMPDEST CALLVALUE DUP1 ISZERO PUSH2 0x19A JUMPI PUSH1 0x0 DUP1 REVERT JUMPDEST POP PUSH2 0x1B5 PUSH1 0x4 DUP1 CALLDATASIZE SUB DUP2 ADD SWAP1 PUSH2 0x1B0 SWAP2 SWAP1 PUSH2 0x1428 JUMP JUMPDEST PUSH2 0x830 JUMP JUMPDEST PUSH1 0x40 MLOAD PUSH2 0x1C2 SWAP2 SWAP1 PUSH2 0x19AF JUMP JUMPDEST PUSH1 0x40 MLOAD DUP1 SWAP2 SUB SWAP1 RETURN JUMPDEST CALLVALUE DUP1 ISZERO PUSH2 0x1D7 JUMPI PUSH1 0x0 DUP1 REVERT JUMPDEST POP PUSH2 0x1F2 PUSH1 0x4 DUP1 CALLDATASIZE SUB DUP2 ADD SWAP1 PUSH2 0x1ED SWAP2 SWAP1 PUSH2 0x14A0 JUMP JUMPDEST PUSH2 0x85C JUMP JUMPDEST PUSH1 0x40 MLOAD PUSH2 0x1FF SWAP2 SWAP1 PUSH2 0x1A71 JUMP JUMPDEST PUSH1 0x40 MLOAD DUP1 SWAP2 SUB SWAP1 RETURN JUMPDEST CALLVALUE DUP1 ISZERO PUSH2 0x214 JUMPI PUSH1 0x0 DUP1 REVERT JUMPDEST POP PUSH2 0x21D PUSH2 0x87C JUMP JUMPDEST PUSH1 0x40 MLOAD PUSH2 0x22A SWAP2 SWAP1 PUSH2 0x1950 JUMP JUMPDEST PUSH1 0x40 MLOAD DUP1 SWAP2 SUB SWAP1 RETURN JUMPDEST CALLVALUE DUP1 ISZERO PUSH2 0x23F JUMPI PUSH1 0x0 DUP1 REVERT JUMPDEST POP PUSH2 0x248 PUSH2 0x881 JUMP JUMPDEST PUSH1 0x40 MLOAD PUSH2 0x255 SWAP2 SWAP1 PUSH2 0x19AF JUMP JUMPDEST PUSH1 0x40 MLOAD DUP1 SWAP2 SUB SWAP1 RETURN JUMPDEST CALLVALUE DUP1 ISZERO PUSH2 0x26A JUMPI PUSH1 0x0 DUP1 REVERT JUMPDEST POP PUSH2 0x285 PUSH1 0x4 DUP1 CALLDATASIZE SUB DUP2 ADD SWAP1 PUSH2 0x280 SWAP2 SWAP1 PUSH2 0x14A0 JUMP JUMPDEST PUSH2 0x8ED JUMP JUMPDEST PUSH1 0x40 MLOAD PUSH2 0x292 SWAP2 SWAP1 PUSH2 0x1994 JUMP JUMPDEST PUSH1 0x40 MLOAD DUP1 SWAP2 SUB SWAP1 RETURN JUMPDEST CALLVALUE DUP1 ISZERO PUSH2 0x2A7 JUMPI PUSH1 0x0 DUP1 REVERT JUMPDEST POP PUSH2 0x2C2 PUSH1 0x4 DUP1 CALLDATASIZE SUB DUP2 ADD SWAP1 PUSH2 0x2BD SWAP2 SWAP1 PUSH2 0x14A0 JUMP JUMPDEST PUSH2 0x91A JUMP JUMPDEST PUSH1 0x40 MLOAD PUSH2 0x2CF SWAP2 SWAP1 PUSH2 0x1839 JUMP JUMPDEST PUSH1 0x40 MLOAD DUP1 SWAP2 SUB SWAP1 RETURN JUMPDEST CALLVALUE DUP1 ISZERO PUSH2 0x2E4 JUMPI PUSH1 0x0 DUP1 REVERT JUMPDEST POP PUSH2 0x2ED PUSH2 0x95A JUMP JUMPDEST PUSH1 0x40 MLOAD PUSH2 0x2FA SWAP2 SWAP1 PUSH2 0x1A71 JUMP JUMPDEST PUSH1 0x40 MLOAD DUP1 SWAP2 SUB SWAP1 RETURN JUMPDEST CALLVALUE DUP1 ISZERO PUSH2 0x30F JUMPI PUSH1 0x0 DUP1 REVERT JUMPDEST POP PUSH2 0x32A PUSH1 0x4 DUP1 CALLDATASIZE SUB DUP2 ADD SWAP1 PUSH2 0x325 SWAP2 SWAP1 PUSH2 0x14A0 JUMP JUMPDEST PUSH2 0x960 JUMP JUMPDEST PUSH1 0x40 MLOAD PUSH2 0x337 SWAP2 SWAP1 PUSH2 0x1A71 JUMP JUMPDEST PUSH1 0x40 MLOAD DUP1 SWAP2 SUB SWAP1 RETURN JUMPDEST CALLVALUE DUP1 ISZERO PUSH2 0x34C JUMPI PUSH1 0x0 DUP1 REVERT JUMPDEST POP PUSH2 0x367 PUSH1 0x4 DUP1 CALLDATASIZE SUB DUP2 ADD SWAP1 PUSH2 0x362 SWAP2 SWAP1 PUSH2 0x14A0 JUMP JUMPDEST PUSH2 0x980 JUMP JUMPDEST PUSH1 0x40 MLOAD PUSH2 0x374 SWAP2 SWAP1 PUSH2 0x1839 JUMP JUMPDEST PUSH1 0x40 MLOAD DUP1 SWAP2 SUB SWAP1 RETURN JUMPDEST PUSH2 0x397 PUSH1 0x4 DUP1 CALLDATASIZE SUB DUP2 ADD SWAP1 PUSH2 0x392 SWAP2 SWAP1 PUSH2 0x14A0 JUMP JUMPDEST PUSH2 0x9C0 JUMP JUMPDEST STOP JUMPDEST CALLVALUE DUP1 ISZERO PUSH2 0x3A5 JUMPI PUSH1 0x0 DUP1 REVERT JUMPDEST POP PUSH2 0x3AE PUSH2 0xA94 JUMP JUMPDEST PUSH1 0x40 MLOAD PUSH2 0x3BB SWAP2 SWAP1 PUSH2 0x1A71 JUMP JUMPDEST PUSH1 0x40 MLOAD DUP1 SWAP2 SUB SWAP1 RETURN JUMPDEST CALLVALUE DUP1 ISZERO PUSH2 0x3D0 JUMPI PUSH1 0x0 DUP1 REVERT JUMPDEST POP PUSH2 0x3EB PUSH1 0x4 DUP1 CALLDATASIZE SUB DUP2 ADD SWAP1 PUSH2 0x3E6 SWAP2 SWAP1 PUSH2 0x14A0 JUMP JUMPDEST PUSH2 0xA9A JUMP JUMPDEST STOP JUMPDEST PUSH2 0x407 PUSH1 0x4 DUP1 CALLDATASIZE SUB DUP2 ADD SWAP1 PUSH2 0x402 SWAP2 SWAP1 PUSH2 0x14A0 JUMP JUMPDEST PUSH2 0xD40 JUMP JUMPDEST STOP JUMPDEST CALLVALUE DUP1 ISZERO PUSH2 0x415 JUMPI PUSH1 0x0 DUP1 REVERT JUMPDEST POP PUSH2 0x41E PUSH2 0xDCA JUMP JUMPDEST PUSH1 0x40 MLOAD PUSH2 0x42B SWAP2 SWAP1 PUSH2 0x1A71 JUMP JUMPDEST PUSH1 0x40 MLOAD DUP1 SWAP2 SUB SWAP1 RETURN JUMPDEST CALLVALUE DUP1 ISZERO PUSH2 0x440 JUMPI PUSH1 0x0 DUP1 REVERT JUMPDEST POP PUSH2 0x449 PUSH2 0xDD0 JUMP JUMPDEST PUSH1 0x40 MLOAD PUSH2 0x456 SWAP2 SWAP1 PUSH2 0x1A71 JUMP JUMPDEST PUSH1 0x40 MLOAD DUP1 SWAP2 SUB SWAP1 RETURN JUMPDEST CALLVALUE DUP1 ISZERO PUSH2 0x46B JUMPI PUSH1 0x0 DUP1 REVERT JUMPDEST POP PUSH2 0x486 PUSH1 0x4 DUP1 CALLDATASIZE SUB DUP2 ADD SWAP1 PUSH2 0x481 SWAP2 SWAP1 PUSH2 0x14A0 JUMP JUMPDEST PUSH2 0xDD6 JUMP JUMPDEST PUSH1 0x40 MLOAD PUSH2 0x493 SWAP2 SWAP1 PUSH2 0x1994 JUMP JUMPDEST PUSH1 0x40 MLOAD DUP1 SWAP2 SUB SWAP1 RETURN JUMPDEST CALLVALUE DUP1 ISZERO PUSH2 0x4A8 JUMPI PUSH1 0x0 DUP1 REVERT JUMPDEST POP PUSH2 0x4B1 PUSH2 0xE03 JUMP JUMPDEST PUSH1 0x40 MLOAD PUSH2 0x4BE SWAP2 SWAP1 PUSH2 0x1972 JUMP JUMPDEST PUSH1 0x40 MLOAD DUP1 SWAP2 SUB SWAP1 RETURN JUMPDEST CALLVALUE DUP1 ISZERO PUSH2 0x4D3 JUMPI PUSH1 0x0 DUP1 REVERT JUMPDEST POP PUSH2 0x4EE PUSH1 0x4 DUP1 CALLDATASIZE SUB DUP2 ADD SWAP1 PUSH2 0x4E9 SWAP2 SWAP1 PUSH2 0x14A0 JUMP JUMPDEST PUSH2 0xE08 JUMP JUMPDEST PUSH1 0x40 MLOAD PUSH2 0x4FB SWAP2 SWAP1 PUSH2 0x1A71 JUMP JUMPDEST PUSH1 0x40 MLOAD DUP1 SWAP2 SUB SWAP1 RETURN JUMPDEST CALLVALUE DUP1 ISZERO PUSH2 0x510 JUMPI PUSH1 0x0 DUP1 REVERT JUMPDEST POP PUSH2 0x52B PUSH1 0x4 DUP1 CALLDATASIZE SUB DUP2 ADD SWAP1 PUSH2 0x526 SWAP2 SWAP1 PUSH2 0x14A0 JUMP JUMPDEST PUSH2 0xE28 JUMP JUMPDEST PUSH1 0x40 MLOAD PUSH2 0x53F SWAP9 SWAP8 SWAP7 SWAP6 SWAP5 SWAP4 SWAP3 SWAP2 SWAP1 PUSH2 0x1854 JUMP JUMPDEST PUSH1 0x40 MLOAD DUP1 SWAP2 SUB SWAP1 RETURN JUMPDEST CALLVALUE DUP1 ISZERO PUSH2 0x554 JUMPI PUSH1 0x0 DUP1 REVERT JUMPDEST POP PUSH2 0x56F PUSH1 0x4 DUP1 CALLDATASIZE SUB DUP2 ADD SWAP1 PUSH2 0x56A SWAP2 SWAP1 PUSH2 0x14A0 JUMP JUMPDEST PUSH2 0xE3F JUMP JUMPDEST PUSH1 0x40 MLOAD PUSH2 0x57C SWAP2 SWAP1 PUSH2 0x1A71 JUMP JUMPDEST PUSH1 0x40 MLOAD DUP1 SWAP2 SUB SWAP1 RETURN JUMPDEST PUSH1 0x60 SWAP1 JUMP JUMPDEST PUSH1 0x6 PUSH1 0x0 DUP3 DUP2 MSTORE PUSH1 0x20 ADD SWAP1 DUP2 MSTORE PUSH1 0x20 ADD PUSH1 0x0 KECCAK256 PUSH1 0x40 MLOAD DUP1 PUSH1 0xE0 ADD PUSH1 0x40 MSTORE SWAP1 DUP2 PUSH1 0x0 DUP3 ADD PUSH1 0x0 SWAP1 SLOAD SWAP1 PUSH2 0x100 EXP SWAP1 DIV PUSH20 0xFFFFFFFFFFFFFFFFFFFFFFFFFFFFFFFFFFFFFFFF AND PUSH20 0xFFFFFFFFFFFFFFFFFFFFFFFFFFFFFFFFFFFFFFFF AND PUSH20 0xFFFFFFFFFFFFFFFFFFFFFFFFFFFFFFFFFFFFFFFF AND DUP2 MSTORE PUSH1 0x20 ADD PUSH1 0x1 DUP3 ADD SLOAD DUP2 MSTORE PUSH1 0x20 ADD PUSH1 0x2 DUP3 ADD SLOAD DUP2 MSTORE PUSH1 0x20 ADD PUSH1 0x3 DUP3 ADD PUSH1 0x0 SWAP1 SLOAD SWAP1 PUSH2 0x100 EXP SWAP1 DIV PUSH1 0xFF AND PUSH1 0x1 DUP2 GT ISZERO PUSH2 0x637 JUMPI PUSH2 0x636 PUSH2 0x1E6C JUMP JUMPDEST JUMPDEST PUSH1 0x1 DUP2 GT ISZERO PUSH2 0x649 JUMPI PUSH2 0x648 PUSH2 0x1E6C JUMP JUMPDEST JUMPDEST DUP2 MSTORE PUSH1 0x20 ADD PUSH1 0x4 DUP3 ADD SLOAD DUP2 MSTORE PUSH1 0x20 ADD PUSH1 0x5 DUP3 ADD SLOAD DUP2 MSTORE PUSH1 0x20 ADD PUSH1 0x6 DUP3 ADD SLOAD DUP2 MSTORE POP POP PUSH1 0x0 PUSH1 0x1 DUP2 GT ISZERO PUSH2 0x67F JUMPI PUSH2 0x67E PUSH2 0x1E6C JUMP JUMPDEST JUMPDEST DUP2 PUSH1 0x60 ADD MLOAD PUSH1 0x1 DUP2 GT ISZERO PUSH2 0x696 JUMPI PUSH2 0x695 PUSH2 0x1E6C JUMP JUMPDEST JUMPDEST EQ PUSH2 0x6D6 JUMPI PUSH1 0x40 MLOAD PUSH32 0x8C379A000000000000000000000000000000000000000000000000000000000 DUP2 MSTORE PUSH1 0x4 ADD PUSH2 0x6CD SWAP1 PUSH2 0x19F1 JUMP JUMPDEST PUSH1 0x40 MLOAD DUP1 SWAP2 SUB SWAP1 REVERT JUMPDEST PUSH1 0x6 PUSH1 0x0 DUP4 DUP2 MSTORE PUSH1 0x20 ADD SWAP1 DUP2 MSTORE PUSH1 0x20 ADD PUSH1 0x0 KECCAK256 PUSH1 0x40 MLOAD DUP1 PUSH1 0xE0 ADD PUSH1 0x40 MSTORE SWAP1 DUP2 PUSH1 0x0 DUP3 ADD PUSH1 0x0 SWAP1 SLOAD SWAP1 PUSH2 0x100 EXP SWAP1 DIV PUSH20 0xFFFFFFFFFFFFFFFFFFFFFFFFFFFFFFFFFFFFFFFF AND PUSH20 0xFFFFFFFFFFFFFFFFFFFFFFFFFFFFFFFFFFFFFFFF AND PUSH20 0xFFFFFFFFFFFFFFFFFFFFFFFFFFFFFFFFFFFFFFFF AND DUP2 MSTORE PUSH1 0x20 ADD PUSH1 0x1 DUP3 ADD SLOAD DUP2 MSTORE PUSH1 0x20 ADD PUSH1 0x2 DUP3 ADD SLOAD DUP2 MSTORE PUSH1 0x20 ADD PUSH1 0x3 DUP3 ADD PUSH1 0x0 SWAP1 SLOAD SWAP1 PUSH2 0x100 EXP SWAP1 DIV PUSH1 0xFF AND PUSH1 0x1 DUP2 GT ISZERO PUSH2 0x783 JUMPI PUSH2 0x782 PUSH2 0x1E6C JUMP JUMPDEST JUMPDEST PUSH1 0x1 DUP2 GT ISZERO PUSH2 0x795 JUMPI PUSH2 0x794 PUSH2 0x1E6C JUMP JUMPDEST JUMPDEST DUP2 MSTORE PUSH1 0x20 ADD PUSH1 0x4 DUP3 ADD SLOAD DUP2 MSTORE PUSH1 0x20 ADD PUSH1 0x5 DUP3 ADD SLOAD DUP2 MSTORE PUSH1 0x20 ADD PUSH1 0x6 DUP3 ADD SLOAD DUP2 MSTORE POP POP CALLER DUP1 PUSH20 0xFFFFFFFFFFFFFFFFFFFFFFFFFFFFFFFFFFFFFFFF AND DUP3 PUSH1 0x0 ADD MLOAD PUSH20 0xFFFFFFFFFFFFFFFFFFFFFFFFFFFFFFFFFFFFFFFF AND EQ PUSH2 0x82A JUMPI PUSH1 0x40 MLOAD PUSH32 0x8C379A000000000000000000000000000000000000000000000000000000000 DUP2 MSTORE PUSH1 0x4 ADD PUSH2 0x821 SWAP1 PUSH2 0x19D1 JUMP JUMPDEST PUSH1 0x40 MLOAD DUP1 SWAP2 SUB SWAP1 REVERT JUMPDEST POP POP POP POP JUMP JUMPDEST PUSH1 0x60 DUP3 DUP3 PUSH1 0x40 MLOAD PUSH1 0x20 ADD PUSH2 0x845 SWAP3 SWAP2 SWAP1 PUSH2 0x180A JUMP JUMPDEST PUSH1 0x40 MLOAD PUSH1 0x20 DUP2 DUP4 SUB SUB DUP2 MSTORE SWAP1 PUSH1 0x40 MSTORE SWAP1 POP SWAP3 SWAP2 POP POP JUMP JUMPDEST PUSH1 0x0 PUSH1 0x3 PUSH1 0x0 DUP4 DUP2 MSTORE PUSH1 0x20 ADD SWAP1 DUP2 MSTORE PUSH1 0x20 ADD PUSH1 0x0 KECCAK256 PUSH1 0x1 ADD SLOAD SWAP1 POP SWAP2 SWAP1 POP JUMP JUMPDEST PUSH1 0x60 SWAP1 JUMP JUMPDEST PUSH1 0x60 PUSH1 0x0 PUSH1 0x7 SLOAD SWAP1 POP PUSH1 0x0 PUSH1 0x40 MLOAD DUP1 PUSH1 0x20 ADD PUSH1 0x40 MSTORE DUP1 PUSH1 0x0 DUP2 MSTORE POP SWAP1 POP JUMPDEST PUSH1 0x0 DUP3 EQ PUSH2 0x8E5 JUMPI PUSH1 0x0 PUSH1 0x6 PUSH1 0x0 DUP5 DUP2 MSTORE PUSH1 0x20 ADD SWAP1 DUP2 MSTORE PUSH1 0x20 ADD PUSH1 0x0 KECCAK256 PUSH1 0x5 ADD SLOAD SWAP1 POP PUSH1 0x0 PUSH2 0x8CD DUP5 PUSH2 0xE5F JUMP JUMPDEST SWAP1 POP PUSH2 0x8D9 DUP4 DUP3 PUSH2 0x830 JUMP JUMPDEST SWAP3 POP DUP2 SWAP4 POP POP POP PUSH2 0x89F JUMP JUMPDEST DUP1 SWAP3 POP POP POP SWAP1 JUMP JUMPDEST PUSH1 0x0 PUSH1 0x6 PUSH1 0x0 DUP4 DUP2 MSTORE PUSH1 0x20 ADD SWAP1 DUP2 MSTORE PUSH1 0x20 ADD PUSH1 0x0 KECCAK256 PUSH1 0x3 ADD PUSH1 0x0 SWAP1 SLOAD SWAP1 PUSH2 0x100 EXP SWAP1 DIV PUSH1 0xFF AND SWAP1 POP SWAP2 SWAP1 POP JUMP JUMPDEST PUSH1 0x0 PUSH1 0x3 PUSH1 0x0 DUP4 DUP2 MSTORE PUSH1 0x20 ADD SWAP1 DUP2 MSTORE PUSH1 0x20 ADD PUSH1 0x0 KECCAK256 PUSH1 0x0 ADD PUSH1 0x0 SWAP1 SLOAD SWAP1 PUSH2 0x100 EXP SWAP1 DIV PUSH20 0xFFFFFFFFFFFFFFFFFFFFFFFFFFFFFFFFFFFFFFFF AND SWAP1 POP SWAP2 SWAP1 POP JUMP JUMPDEST PUSH1 0x4 SLOAD DUP2 JUMP JUMPDEST PUSH1 0x0 PUSH1 0x6 PUSH1 0x0 DUP4 DUP2 MSTORE PUSH1 0x20 ADD SWAP1 DUP2 MSTORE PUSH1 0x20 ADD PUSH1 0x0 KECCAK256 PUSH1 0x5 ADD SLOAD SWAP1 POP SWAP2 SWAP1 POP JUMP JUMPDEST PUSH1 0x0 PUSH1 0x6 PUSH1 0x0 DUP4 DUP2 MSTORE PUSH1 0x20 ADD SWAP1 DUP2 MSTORE PUSH1 0x20 ADD PUSH1 0x0 KECCAK256 PUSH1 0x0 ADD PUSH1 0x0 SWAP1 SLOAD SWAP1 PUSH2 0x100 EXP SWAP1 DIV PUSH20 0xFFFFFFFFFFFFFFFFFFFFFFFFFFFFFFFFFFFFFFFF AND SWAP1 POP SWAP2 SWAP1 POP JUMP JUMPDEST PUSH1 0x0 DUP2 LT ISZERO PUSH2 0xA04 JUMPI PUSH1 0x40 MLOAD PUSH32 0x8C379A000000000000000000000000000000000000000000000000000000000 DUP2 MSTORE PUSH1 0x4 ADD PUSH2 0x9FB SWAP1 PUSH2 0x1A31 JUMP JUMPDEST PUSH1 0x40 MLOAD DUP1 SWAP2 SUB SWAP1 REVERT JUMPDEST DUP1 CALLVALUE LT ISZERO PUSH2 0xA47 JUMPI PUSH1 0x40 MLOAD PUSH32 0x8C379A000000000000000000000000000000000000000000000000000000000 DUP2 MSTORE PUSH1 0x4 ADD PUSH2 0xA3E SWAP1 PUSH2 0x1A51 JUMP JUMPDEST PUSH1 0x40 MLOAD DUP1 SWAP2 SUB SWAP1 REVERT JUMPDEST PUSH1 0x0 TIMESTAMP SWAP1 POP PUSH1 0x0 PUSH1 0x64 PUSH1 0x2 SLOAD PUSH1 0x64 PUSH2 0xA5F SWAP2 SWAP1 PUSH2 0x1C5C JUMP JUMPDEST CALLVALUE PUSH2 0xA6A SWAP2 SWAP1 PUSH2 0x1C02 JUMP JUMPDEST PUSH2 0xA74 SWAP2 SWAP1 PUSH2 0x1BD1 JUMP JUMPDEST SWAP1 POP PUSH1 0x0 PUSH2 0xA83 CALLER DUP4 DUP6 PUSH2 0xFC0 JUMP JUMPDEST SWAP1 POP PUSH2 0xA8E DUP2 PUSH2 0x115B JUMP JUMPDEST POP POP POP POP JUMP JUMPDEST PUSH1 0x7 SLOAD DUP2 JUMP JUMPDEST PUSH1 0x3 PUSH1 0x0 DUP3 DUP2 MSTORE PUSH1 0x20 ADD SWAP1 DUP2 MSTORE PUSH1 0x20 ADD PUSH1 0x0 KECCAK256 PUSH1 0x40 MLOAD DUP1 PUSH1 0xE0 ADD PUSH1 0x40 MSTORE SWAP1 DUP2 PUSH1 0x0 DUP3 ADD PUSH1 0x0 SWAP1 SLOAD SWAP1 PUSH2 0x100 EXP SWAP1 DIV PUSH20 0xFFFFFFFFFFFFFFFFFFFFFFFFFFFFFFFFFFFFFFFF AND PUSH20 0xFFFFFFFFFFFFFFFFFFFFFFFFFFFFFFFFFFFFFFFF AND PUSH20 0xFFFFFFFFFFFFFFFFFFFFFFFFFFFFFFFFFFFFFFFF AND DUP2 MSTORE PUSH1 0x20 ADD PUSH1 0x1 DUP3 ADD SLOAD DUP2 MSTORE PUSH1 0x20 ADD PUSH1 0x2 DUP3 ADD SLOAD DUP2 MSTORE PUSH1 0x20 ADD PUSH1 0x3 DUP3 ADD PUSH1 0x0 SWAP1 SLOAD SWAP1 PUSH2 0x100 EXP SWAP1 DIV PUSH1 0xFF AND PUSH1 0x1 DUP2 GT ISZERO PUSH2 0xB47 JUMPI PUSH2 0xB46 PUSH2 0x1E6C JUMP JUMPDEST JUMPDEST PUSH1 0x1 DUP2 GT ISZERO PUSH2 0xB59 JUMPI PUSH2 0xB58 PUSH2 0x1E6C JUMP JUMPDEST JUMPDEST DUP2 MSTORE PUSH1 0x20 ADD PUSH1 0x4 DUP3 ADD SLOAD DUP2 MSTORE PUSH1 0x20 ADD PUSH1 0x5 DUP3 ADD SLOAD DUP2 MSTORE PUSH1 0x20 ADD PUSH1 0x6 DUP3 ADD SLOAD DUP2 MSTORE POP POP PUSH1 0x0 PUSH1 0x1 DUP2 GT ISZERO PUSH2 0xB8F JUMPI PUSH2 0xB8E PUSH2 0x1E6C JUMP JUMPDEST JUMPDEST DUP2 PUSH1 0x60 ADD MLOAD PUSH1 0x1 DUP2 GT ISZERO PUSH2 0xBA6 JUMPI PUSH2 0xBA5 PUSH2 0x1E6C JUMP JUMPDEST JUMPDEST EQ PUSH2 0xBE6 JUMPI PUSH1 0x40 MLOAD PUSH32 0x8C379A000000000000000000000000000000000000000000000000000000000 DUP2 MSTORE PUSH1 0x4 ADD PUSH2 0xBDD SWAP1 PUSH2 0x19F1 JUMP JUMPDEST PUSH1 0x40 MLOAD DUP1 SWAP2 SUB SWAP1 REVERT JUMPDEST PUSH1 0x3 PUSH1 0x0 DUP4 DUP2 MSTORE PUSH1 0x20 ADD SWAP1 DUP2 MSTORE PUSH1 0x20 ADD PUSH1 0x0 KECCAK256 PUSH1 0x40 MLOAD DUP1 PUSH1 0xE0 ADD PUSH1 0x40 MSTORE SWAP1 DUP2 PUSH1 0x0 DUP3 ADD PUSH1 0x0 SWAP1 SLOAD SWAP1 PUSH2 0x100 EXP SWAP1 DIV PUSH20 0xFFFFFFFFFFFFFFFFFFFFFFFFFFFFFFFFFFFFFFFF AND PUSH20 0xFFFFFFFFFFFFFFFFFFFFFFFFFFFFFFFFFFFFFFFF AND PUSH20 0xFFFFFFFFFFFFFFFFFFFFFFFFFFFFFFFFFFFFFFFF AND DUP2 MSTORE PUSH1 0x20 ADD PUSH1 0x1 DUP3 ADD SLOAD DUP2 MSTORE PUSH1 0x20 ADD PUSH1 0x2 DUP3 ADD SLOAD DUP2 MSTORE PUSH1 0x20 ADD PUSH1 0x3 DUP3 ADD PUSH1 0x0 SWAP1 SLOAD SWAP1 PUSH2 0x100 EXP SWAP1 DIV PUSH1 0xFF AND PUSH1 0x1 DUP2 GT ISZERO PUSH2 0xC93 JUMPI PUSH2 0xC92 PUSH2 0x1E6C JUMP JUMPDEST JUMPDEST PUSH1 0x1 DUP2 GT ISZERO PUSH2 0xCA5 JUMPI PUSH2 0xCA4 PUSH2 0x1E6C JUMP JUMPDEST JUMPDEST DUP2 MSTORE PUSH1 0x20 ADD PUSH1 0x4 DUP3 ADD SLOAD DUP2 MSTORE PUSH1 0x20 ADD PUSH1 0x5 DUP3 ADD SLOAD DUP2 MSTORE PUSH1 0x20 ADD PUSH1 0x6 DUP3 ADD SLOAD DUP2 MSTORE POP POP CALLER DUP1 PUSH20 0xFFFFFFFFFFFFFFFFFFFFFFFFFFFFFFFFFFFFFFFF AND DUP3 PUSH1 0x0 ADD MLOAD PUSH20 0xFFFFFFFFFFFFFFFFFFFFFFFFFFFFFFFFFFFFFFFF AND EQ PUSH2 0xD3A JUMPI PUSH1 0x40 MLOAD PUSH32 0x8C379A000000000000000000000000000000000000000000000000000000000 DUP2 MSTORE PUSH1 0x4 ADD PUSH2 0xD31 SWAP1 PUSH2 0x19D1 JUMP JUMPDEST PUSH1 0x40 MLOAD DUP1 SWAP2 SUB SWAP1 REVERT JUMPDEST POP POP POP POP JUMP JUMPDEST PUSH1 0x0 DUP2 LT ISZERO PUSH2 0xD84 JUMPI PUSH1 0x40 MLOAD PUSH32 0x8C379A000000000000000000000000000000000000000000000000000000000 DUP2 MSTORE PUSH1 0x4 ADD PUSH2 0xD7B SWAP1 PUSH2 0x1A31 JUMP JUMPDEST PUSH1 0x40 MLOAD DUP1 SWAP2 SUB SWAP1 REVERT JUMPDEST DUP1 CALLVALUE LT ISZERO PUSH2 0xDC7 JUMPI PUSH1 0x40 MLOAD PUSH32 0x8C379A000000000000000000000000000000000000000000000000000000000 DUP2 MSTORE PUSH1 0x4 ADD PUSH2 0xDBE SWAP1 PUSH2 0x1A11 JUMP JUMPDEST PUSH1 0x40 MLOAD DUP1 SWAP2 SUB SWAP1 REVERT JUMPDEST POP JUMP JUMPDEST PUSH1 0x8 SLOAD DUP2 JUMP JUMPDEST PUSH1 0x5 SLOAD DUP2 JUMP JUMPDEST PUSH1 0x0 PUSH1 0x3 PUSH1 0x0 DUP4 DUP2 MSTORE PUSH1 0x20 ADD SWAP1 DUP2 MSTORE PUSH1 0x20 ADD PUSH1 0x0 KECCAK256 PUSH1 0x3 ADD PUSH1 0x0 SWAP1 SLOAD SWAP1 PUSH2 0x100 EXP SWAP1 DIV PUSH1 0xFF AND SWAP1 POP SWAP2 SWAP1 POP JUMP JUMPDEST PUSH1 0x60 SWAP1 JUMP JUMPDEST PUSH1 0x0 PUSH1 0x6 PUSH1 0x0 DUP4 DUP2 MSTORE PUSH1 0x20 ADD SWAP1 DUP2 MSTORE PUSH1 0x20 ADD PUSH1 0x0 KECCAK256 PUSH1 0x6 ADD SLOAD SWAP1 POP SWAP2 SWAP1 POP JUMP JUMPDEST PUSH1 0x0 DUP1 PUSH1 0x0 DUP1 PUSH1 0x0 DUP1 PUSH1 0x0 DUP1 SWAP2 SWAP4 SWAP6 SWAP8 POP SWAP2 SWAP4 SWAP6 SWAP8 JUMP JUMPDEST PUSH1 0x0 PUSH1 0x6 PUSH1 0x0 DUP4 DUP2 MSTORE PUSH1 0x20 ADD SWAP1 DUP2 MSTORE PUSH1 0x20 ADD PUSH1 0x0 KECCAK256 PUSH1 0x1 ADD SLOAD SWAP1 POP SWAP2 SWAP1 POP JUMP JUMPDEST PUSH1 0x60 PUSH1 0x0 DUP3 EQ ISZERO PUSH2 0xEA7 JUMPI PUSH1 0x40 MLOAD DUP1 PUSH1 0x40 ADD PUSH1 0x40 MSTORE DUP1 PUSH1 0x1 DUP2 MSTORE PUSH1 0x20 ADD PUSH32 0x3000000000000000000000000000000000000000000000000000000000000000 DUP2 MSTORE POP SWAP1 POP PUSH2 0xFBB JUMP JUMPDEST PUSH1 0x0 DUP3 SWAP1 POP PUSH1 0x0 JUMPDEST PUSH1 0x0 DUP3 EQ PUSH2 0xED9 JUMPI DUP1 DUP1 PUSH2 0xEC2 SWAP1 PUSH2 0x1D94 JUMP JUMPDEST SWAP2 POP POP PUSH1 0xA DUP3 PUSH2 0xED2 SWAP2 SWAP1 PUSH2 0x1BD1 JUMP JUMPDEST SWAP2 POP PUSH2 0xEAF JUMP JUMPDEST PUSH1 0x0 DUP2 PUSH8 0xFFFFFFFFFFFFFFFF DUP2 GT ISZERO PUSH2 0xEF5 JUMPI PUSH2 0xEF4 PUSH2 0x1ECA JUMP JUMPDEST JUMPDEST PUSH1 0x40 MLOAD SWAP1 DUP1 DUP3 MSTORE DUP1 PUSH1 0x1F ADD PUSH1 0x1F NOT AND PUSH1 0x20 ADD DUP3 ADD PUSH1 0x40 MSTORE DUP1 ISZERO PUSH2 0xF27 JUMPI DUP2 PUSH1 0x20 ADD PUSH1 0x1 DUP3 MUL DUP1 CALLDATASIZE DUP4 CALLDATACOPY DUP1 DUP3 ADD SWAP2 POP POP SWAP1 POP JUMPDEST POP SWAP1 POP JUMPDEST PUSH1 0x0 DUP6 EQ PUSH2 0xFB4 JUMPI PUSH1 0x1 DUP3 PUSH2 0xF40 SWAP2 SWAP1 PUSH2 0x1C5C JUMP JUMPDEST SWAP2 POP PUSH1 0xA DUP6 PUSH2 0xF4F SWAP2 SWAP1 PUSH2 0x1DDD JUMP JUMPDEST PUSH1 0x30 PUSH2 0xF5B SWAP2 SWAP1 PUSH2 0x1B7B JUMP JUMPDEST PUSH1 0xF8 SHL DUP2 DUP4 DUP2 MLOAD DUP2 LT PUSH2 0xF71 JUMPI PUSH2 0xF70 PUSH2 0x1E9B JUMP JUMPDEST JUMPDEST PUSH1 0x20 ADD ADD SWAP1 PUSH31 0xFFFFFFFFFFFFFFFFFFFFFFFFFFFFFFFFFFFFFFFFFFFFFFFFFFFFFFFFFFFFFF NOT AND SWAP1 DUP2 PUSH1 0x0 BYTE SWAP1 MSTORE8 POP PUSH1 0xA DUP6 PUSH2 0xFAD SWAP2 SWAP1 PUSH2 0x1BD1 JUMP JUMPDEST SWAP5 POP PUSH2 0xF2B JUMP JUMPDEST DUP1 SWAP4 POP POP POP POP JUMPDEST SWAP2 SWAP1 POP JUMP JUMPDEST PUSH2 0xFC8 PUSH2 0x133E JUMP JUMPDEST PUSH1 0x8 PUSH1 0x0 DUP2 SLOAD DUP1 SWAP3 SWAP2 SWAP1 PUSH2 0xFDB SWAP1 PUSH2 0x1D94 JUMP JUMPDEST SWAP2 SWAP1 POP SSTORE POP PUSH1 0x0 PUSH1 0x40 MLOAD DUP1 PUSH1 0xE0 ADD PUSH1 0x40 MSTORE DUP1 DUP7 PUSH20 0xFFFFFFFFFFFFFFFFFFFFFFFFFFFFFFFFFFFFFFFF AND DUP2 MSTORE PUSH1 0x20 ADD DUP6 DUP2 MSTORE PUSH1 0x20 ADD DUP5 DUP2 MSTORE PUSH1 0x20 ADD PUSH1 0x0 PUSH1 0x1 DUP2 GT ISZERO PUSH2 0x1029 JUMPI PUSH2 0x1028 PUSH2 0x1E6C JUMP JUMPDEST JUMPDEST DUP2 MSTORE PUSH1 0x20 ADD PUSH1 0x8 SLOAD DUP2 MSTORE PUSH1 0x20 ADD PUSH1 0x0 DUP2 MSTORE PUSH1 0x20 ADD PUSH1 0x0 DUP2 MSTORE POP SWAP1 POP DUP1 PUSH1 0x6 PUSH1 0x0 PUSH1 0x8 SLOAD DUP2 MSTORE PUSH1 0x20 ADD SWAP1 DUP2 MSTORE PUSH1 0x20 ADD PUSH1 0x0 KECCAK256 PUSH1 0x0 DUP3 ADD MLOAD DUP2 PUSH1 0x0 ADD PUSH1 0x0 PUSH2 0x100 EXP DUP2 SLOAD DUP2 PUSH20 0xFFFFFFFFFFFFFFFFFFFFFFFFFFFFFFFFFFFFFFFF MUL NOT AND SWAP1 DUP4 PUSH20 0xFFFFFFFFFFFFFFFFFFFFFFFFFFFFFFFFFFFFFFFF AND MUL OR SWAP1 SSTORE POP PUSH1 0x20 DUP3 ADD MLOAD DUP2 PUSH1 0x1 ADD SSTORE PUSH1 0x40 DUP3 ADD MLOAD DUP2 PUSH1 0x2 ADD SSTORE PUSH1 0x60 DUP3 ADD MLOAD DUP2 PUSH1 0x3 ADD PUSH1 0x0 PUSH2 0x100 EXP DUP2 SLOAD DUP2 PUSH1 0xFF MUL NOT AND SWAP1 DUP4 PUSH1 0x1 DUP2 GT ISZERO PUSH2 0x10E0 JUMPI PUSH2 0x10DF PUSH2 0x1E6C JUMP JUMPDEST JUMPDEST MUL OR SWAP1 SSTORE POP PUSH1 0x80 DUP3 ADD MLOAD DUP2 PUSH1 0x4 ADD SSTORE PUSH1 0xA0 DUP3 ADD MLOAD DUP2 PUSH1 0x5 ADD SSTORE PUSH1 0xC0 DUP3 ADD MLOAD DUP2 PUSH1 0x6 ADD SSTORE SWAP1 POP POP PUSH32 0x93CAF6BA1AF44020DFE6076E279533E38BD8DEEFE534C43AA8CC93AAD2025B7D DUP6 DUP6 DUP6 PUSH1 0x0 PUSH1 0x8 SLOAD PUSH1 0x0 DUP1 PUSH1 0x0 PUSH1 0x40 MLOAD PUSH2 0x1148 SWAP9 SWAP8 SWAP7 SWAP6 SWAP5 SWAP4 SWAP3 SWAP2 SWAP1 PUSH2 0x18D2 JUMP JUMPDEST PUSH1 0x40 MLOAD DUP1 SWAP2 SUB SWAP1 LOG1 DUP1 SWAP2 POP POP SWAP4 SWAP3 POP POP POP JUMP JUMPDEST PUSH1 0x0 DUP1 PUSH1 0x7 SLOAD EQ ISZERO PUSH2 0x1177 JUMPI DUP2 PUSH1 0x80 ADD MLOAD PUSH1 0x7 DUP2 SWAP1 SSTORE POP PUSH2 0x133A JUMP JUMPDEST DUP2 PUSH1 0x20 ADD MLOAD PUSH1 0x6 PUSH1 0x0 PUSH1 0x7 SLOAD DUP2 MSTORE PUSH1 0x20 ADD SWAP1 DUP2 MSTORE PUSH1 0x20 ADD PUSH1 0x0 KECCAK256 PUSH1 0x1 ADD SLOAD LT PUSH2 0x1204 JUMPI PUSH1 0x7 SLOAD PUSH1 0x6 PUSH1 0x0 DUP5 PUSH1 0x80 ADD MLOAD DUP2 MSTORE PUSH1 0x20 ADD SWAP1 DUP2 MSTORE PUSH1 0x20 ADD PUSH1 0x0 KECCAK256 PUSH1 0x5 ADD DUP2 SWAP1 SSTORE POP DUP2 PUSH1 0x80 ADD MLOAD PUSH1 0x6 PUSH1 0x0 PUSH1 0x6 PUSH1 0x0 DUP7 PUSH1 0x80 ADD MLOAD DUP2 MSTORE PUSH1 0x20 ADD SWAP1 DUP2 MSTORE PUSH1 0x20 ADD PUSH1 0x0 KECCAK256 PUSH1 0x5 ADD SLOAD DUP2 MSTORE PUSH1 0x20 ADD SWAP1 DUP2 MSTORE PUSH1 0x20 ADD PUSH1 0x0 KECCAK256 PUSH1 0x6 ADD DUP2 SWAP1 SSTORE POP DUP2 PUSH1 0x80 ADD MLOAD PUSH1 0x7 DUP2 SWAP1 SSTORE POP PUSH2 0x1339 JUMP JUMPDEST PUSH1 0x7 SLOAD SWAP1 POP JUMPDEST PUSH1 0x0 PUSH1 0x6 PUSH1 0x0 DUP4 DUP2 MSTORE PUSH1 0x20 ADD SWAP1 DUP2 MSTORE PUSH1 0x20 ADD PUSH1 0x0 KECCAK256 PUSH1 0x5 ADD SLOAD EQ ISZERO DUP1 ISZERO PUSH2 0x1260 JUMPI POP DUP2 PUSH1 0x20 ADD MLOAD PUSH1 0x6 PUSH1 0x0 PUSH1 0x6 PUSH1 0x0 DUP6 DUP2 MSTORE PUSH1 0x20 ADD SWAP1 DUP2 MSTORE PUSH1 0x20 ADD PUSH1 0x0 KECCAK256 PUSH1 0x5 ADD SLOAD DUP2 MSTORE PUSH1 0x20 ADD SWAP1 DUP2 MSTORE PUSH1 0x20 ADD PUSH1 0x0 KECCAK256 PUSH1 0x1 ADD SLOAD LT JUMPDEST ISZERO PUSH2 0x1283 JUMPI PUSH1 0x6 PUSH1 0x0 DUP3 DUP2 MSTORE PUSH1 0x20 ADD SWAP1 DUP2 MSTORE PUSH1 0x20 ADD PUSH1 0x0 KECCAK256 PUSH1 0x5 ADD SLOAD SWAP1 POP PUSH2 0x120A JUMP JUMPDEST PUSH1 0x6 PUSH1 0x0 DUP3 DUP2 MSTORE PUSH1 0x20 ADD SWAP1 DUP2 MSTORE PUSH1 0x20 ADD PUSH1 0x0 KECCAK256 PUSH1 0x5 ADD SLOAD PUSH1 0x6 PUSH1 0x0 DUP5 PUSH1 0x80 ADD MLOAD DUP2 MSTORE PUSH1 0x20 ADD SWAP1 DUP2 MSTORE PUSH1 0x20 ADD PUSH1 0x0 KECCAK256 PUSH1 0x5 ADD DUP2 SWAP1 SSTORE POP PUSH1 0x0 PUSH1 0x6 PUSH1 0x0 DUP4 DUP2 MSTORE PUSH1 0x20 ADD SWAP1 DUP2 MSTORE PUSH1 0x20 ADD PUSH1 0x0 KECCAK256 PUSH1 0x5 ADD SLOAD EQ PUSH2 0x12FA JUMPI DUP2 PUSH1 0x80 ADD MLOAD PUSH1 0x6 PUSH1 0x0 DUP5 PUSH1 0xA0 ADD MLOAD DUP2 MSTORE PUSH1 0x20 ADD SWAP1 DUP2 MSTORE PUSH1 0x20 ADD PUSH1 0x0 KECCAK256 PUSH1 0x6 ADD DUP2 SWAP1 SSTORE POP JUMPDEST DUP2 PUSH1 0x80 ADD MLOAD PUSH1 0x6 PUSH1 0x0 DUP4 DUP2 MSTORE PUSH1 0x20 ADD SWAP1 DUP2 MSTORE PUSH1 0x20 ADD PUSH1 0x0 KECCAK256 PUSH1 0x5 ADD DUP2 SWAP1 SSTORE POP DUP1 PUSH1 0x6 PUSH1 0x0 DUP5 PUSH1 0x80 ADD MLOAD DUP2 MSTORE PUSH1 0x20 ADD SWAP1 DUP2 MSTORE PUSH1 0x20 ADD PUSH1 0x0 KECCAK256 PUSH1 0x6 ADD DUP2 SWAP1 SSTORE POP JUMPDEST JUMPDEST POP POP JUMP JUMPDEST PUSH1 0x40 MLOAD DUP1 PUSH1 0xE0 ADD PUSH1 0x40 MSTORE DUP1 PUSH1 0x0 PUSH20 0xFFFFFFFFFFFFFFFFFFFFFFFFFFFFFFFFFFFFFFFF AND DUP2 MSTORE PUSH1 0x20 ADD PUSH1 0x0 DUP2 MSTORE PUSH1 0x20 ADD PUSH1 0x0 DUP2 MSTORE PUSH1 0x20 ADD PUSH1 0x0 PUSH1 0x1 DUP2 GT ISZERO PUSH2 0x1388 JUMPI PUSH2 0x1387 PUSH2 0x1E6C JUMP JUMPDEST JUMPDEST DUP2 MSTORE PUSH1 0x20 ADD PUSH1 0x0 DUP2 MSTORE PUSH1 0x20 ADD PUSH1 0x0 DUP2 MSTORE PUSH1 0x20 ADD PUSH1 0x0 DUP2 MSTORE POP SWAP1 JUMP JUMPDEST PUSH1 0x0 PUSH2 0x13B6 PUSH2 0x13B1 DUP5 PUSH2 0x1AB1 JUMP JUMPDEST PUSH2 0x1A8C JUMP JUMPDEST SWAP1 POP DUP3 DUP2 MSTORE PUSH1 0x20 DUP2 ADD DUP5 DUP5 DUP5 ADD GT ISZERO PUSH2 0x13D2 JUMPI PUSH2 0x13D1 PUSH2 0x1EFE JUMP JUMPDEST JUMPDEST PUSH2 0x13DD DUP5 DUP3 DUP6 PUSH2 0x1D21 JUMP JUMPDEST POP SWAP4 SWAP3 POP POP POP JUMP JUMPDEST PUSH1 0x0 DUP3 PUSH1 0x1F DUP4 ADD SLT PUSH2 0x13FA JUMPI PUSH2 0x13F9 PUSH2 0x1EF9 JUMP JUMPDEST JUMPDEST DUP2 CALLDATALOAD PUSH2 0x140A DUP5 DUP3 PUSH1 0x20 DUP7 ADD PUSH2 0x13A3 JUMP JUMPDEST SWAP2 POP POP SWAP3 SWAP2 POP POP JUMP JUMPDEST PUSH1 0x0 DUP2 CALLDATALOAD SWAP1 POP PUSH2 0x1422 DUP2 PUSH2 0x2028 JUMP JUMPDEST SWAP3 SWAP2 POP POP JUMP JUMPDEST PUSH1 0x0 DUP1 PUSH1 0x40 DUP4 DUP6 SUB SLT ISZERO PUSH2 0x143F JUMPI PUSH2 0x143E PUSH2 0x1F08 JUMP JUMPDEST JUMPDEST PUSH1 0x0 DUP4 ADD CALLDATALOAD PUSH8 0xFFFFFFFFFFFFFFFF DUP2 GT ISZERO PUSH2 0x145D JUMPI PUSH2 0x145C PUSH2 0x1F03 JUMP JUMPDEST JUMPDEST PUSH2 0x1469 DUP6 DUP3 DUP7 ADD PUSH2 0x13E5 JUMP JUMPDEST SWAP3 POP POP PUSH1 0x20 DUP4 ADD CALLDATALOAD PUSH8 0xFFFFFFFFFFFFFFFF DUP2 GT ISZERO PUSH2 0x148A JUMPI PUSH2 0x1489 PUSH2 0x1F03 JUMP JUMPDEST JUMPDEST PUSH2 0x1496 DUP6 DUP3 DUP7 ADD PUSH2 0x13E5 JUMP JUMPDEST SWAP2 POP POP SWAP3 POP SWAP3 SWAP1 POP JUMP JUMPDEST PUSH1 0x0 PUSH1 0x20 DUP3 DUP5 SUB SLT ISZERO PUSH2 0x14B6 JUMPI PUSH2 0x14B5 PUSH2 0x1F08 JUMP JUMPDEST JUMPDEST PUSH1 0x0 PUSH2 0x14C4 DUP5 DUP3 DUP6 ADD PUSH2 0x1413 JUMP JUMPDEST SWAP2 POP POP SWAP3 SWAP2 POP POP JUMP JUMPDEST PUSH1 0x0 PUSH2 0x14D9 DUP4 DUP4 PUSH2 0x175E JUMP JUMPDEST PUSH1 0xE0 DUP4 ADD SWAP1 POP SWAP3 SWAP2 POP POP JUMP JUMPDEST PUSH1 0x0 PUSH2 0x14F1 DUP4 DUP4 PUSH2 0x17EC JUMP JUMPDEST PUSH1 0x20 DUP4 ADD SWAP1 POP SWAP3 SWAP2 POP POP JUMP JUMPDEST PUSH2 0x1506 DUP2 PUSH2 0x1CA2 JUMP JUMPDEST DUP3 MSTORE POP POP JUMP JUMPDEST PUSH2 0x1515 DUP2 PUSH2 0x1CA2 JUMP JUMPDEST DUP3 MSTORE POP POP JUMP JUMPDEST PUSH2 0x1524 DUP2 PUSH2 0x1C90 JUMP JUMPDEST DUP3 MSTORE POP POP JUMP JUMPDEST PUSH1 0x0 PUSH2 0x1535 DUP3 PUSH2 0x1B02 JUMP JUMPDEST PUSH2 0x153F DUP2 DUP6 PUSH2 0x1B3D JUMP JUMPDEST SWAP4 POP PUSH2 0x154A DUP4 PUSH2 0x1AE2 JUMP JUMPDEST DUP1 PUSH1 0x0 JUMPDEST DUP4 DUP2 LT ISZERO PUSH2 0x157B JUMPI DUP2 MLOAD PUSH2 0x1562 DUP9 DUP3 PUSH2 0x14CD JUMP JUMPDEST SWAP8 POP PUSH2 0x156D DUP4 PUSH2 0x1B23 JUMP JUMPDEST SWAP3 POP POP PUSH1 0x1 DUP2 ADD SWAP1 POP PUSH2 0x154E JUMP JUMPDEST POP DUP6 SWAP4 POP POP POP POP SWAP3 SWAP2 POP POP JUMP JUMPDEST PUSH1 0x0 PUSH2 0x1593 DUP3 PUSH2 0x1B0D JUMP JUMPDEST PUSH2 0x159D DUP2 DUP6 PUSH2 0x1B4E JUMP JUMPDEST SWAP4 POP PUSH2 0x15A8 DUP4 PUSH2 0x1AF2 JUMP JUMPDEST DUP1 PUSH1 0x0 JUMPDEST DUP4 DUP2 LT ISZERO PUSH2 0x15D9 JUMPI DUP2 MLOAD PUSH2 0x15C0 DUP9 DUP3 PUSH2 0x14E5 JUMP JUMPDEST SWAP8 POP PUSH2 0x15CB DUP4 PUSH2 0x1B30 JUMP JUMPDEST SWAP3 POP POP PUSH1 0x1 DUP2 ADD SWAP1 POP PUSH2 0x15AC JUMP JUMPDEST POP DUP6 SWAP4 POP POP POP POP SWAP3 SWAP2 POP POP JUMP JUMPDEST PUSH2 0x15EF DUP2 PUSH2 0x1CB4 JUMP JUMPDEST DUP3 MSTORE POP POP JUMP JUMPDEST PUSH2 0x15FE DUP2 PUSH2 0x1CFD JUMP JUMPDEST DUP3 MSTORE POP POP JUMP JUMPDEST PUSH2 0x160D DUP2 PUSH2 0x1CFD JUMP JUMPDEST DUP3 MSTORE POP POP JUMP JUMPDEST PUSH2 0x161C DUP2 PUSH2 0x1D0F JUMP JUMPDEST DUP3 MSTORE POP POP JUMP JUMPDEST PUSH1 0x0 PUSH2 0x162D DUP3 PUSH2 0x1B18 JUMP JUMPDEST PUSH2 0x1637 DUP2 DUP6 PUSH2 0x1B5F JUMP JUMPDEST SWAP4 POP PUSH2 0x1647 DUP2 DUP6 PUSH1 0x20 DUP7 ADD PUSH2 0x1D30 JUMP JUMPDEST PUSH2 0x1650 DUP2 PUSH2 0x1F0D JUMP JUMPDEST DUP5 ADD SWAP2 POP POP SWAP3 SWAP2 POP POP JUMP JUMPDEST PUSH1 0x0 PUSH2 0x1666 DUP3 PUSH2 0x1B18 JUMP JUMPDEST PUSH2 0x1670 DUP2 DUP6 PUSH2 0x1B70 JUMP JUMPDEST SWAP4 POP PUSH2 0x1680 DUP2 DUP6 PUSH1 0x20 DUP7 ADD PUSH2 0x1D30 JUMP JUMPDEST DUP1 DUP5 ADD SWAP2 POP POP SWAP3 SWAP2 POP POP JUMP JUMPDEST PUSH1 0x0 PUSH2 0x1699 PUSH1 0xE DUP4 PUSH2 0x1B5F JUMP JUMPDEST SWAP2 POP PUSH2 0x16A4 DUP3 PUSH2 0x1F1E JUMP JUMPDEST PUSH1 0x20 DUP3 ADD SWAP1 POP SWAP2 SWAP1 POP JUMP JUMPDEST PUSH1 0x0 PUSH2 0x16BC PUSH1 0xD DUP4 PUSH2 0x1B5F JUMP JUMPDEST SWAP2 POP PUSH2 0x16C7 DUP3 PUSH2 0x1F47 JUMP JUMPDEST PUSH1 0x20 DUP3 ADD SWAP1 POP SWAP2 SWAP1 POP JUMP JUMPDEST PUSH1 0x0 PUSH2 0x16DF PUSH1 0x1 DUP4 PUSH2 0x1B70 JUMP JUMPDEST SWAP2 POP PUSH2 0x16EA DUP3 PUSH2 0x1F70 JUMP JUMPDEST PUSH1 0x1 DUP3 ADD SWAP1 POP SWAP2 SWAP1 POP JUMP JUMPDEST PUSH1 0x0 PUSH2 0x1702 PUSH1 0x1E DUP4 PUSH2 0x1B5F JUMP JUMPDEST SWAP2 POP PUSH2 0x170D DUP3 PUSH2 0x1F99 JUMP JUMPDEST PUSH1 0x20 DUP3 ADD SWAP1 POP SWAP2 SWAP1 POP JUMP JUMPDEST PUSH1 0x0 PUSH2 0x1725 PUSH1 0x1F DUP4 PUSH2 0x1B5F JUMP JUMPDEST SWAP2 POP PUSH2 0x1730 DUP3 PUSH2 0x1FC2 JUMP JUMPDEST PUSH1 0x20 DUP3 ADD SWAP1 POP SWAP2 SWAP1 POP JUMP JUMPDEST PUSH1 0x0 PUSH2 0x1748 PUSH1 0x1E DUP4 PUSH2 0x1B5F JUMP JUMPDEST SWAP2 POP PUSH2 0x1753 DUP3 PUSH2 0x1FEB JUMP JUMPDEST PUSH1 0x20 DUP3 ADD SWAP1 POP SWAP2 SWAP1 POP JUMP JUMPDEST PUSH1 0xE0 DUP3 ADD PUSH1 0x0 DUP3 ADD MLOAD PUSH2 0x1774 PUSH1 0x0 DUP6 ADD DUP3 PUSH2 0x14FD JUMP JUMPDEST POP PUSH1 0x20 DUP3 ADD MLOAD PUSH2 0x1787 PUSH1 0x20 DUP6 ADD DUP3 PUSH2 0x17EC JUMP JUMPDEST POP PUSH1 0x40 DUP3 ADD MLOAD PUSH2 0x179A PUSH1 0x40 DUP6 ADD DUP3 PUSH2 0x17EC JUMP JUMPDEST POP PUSH1 0x60 DUP3 ADD MLOAD PUSH2 0x17AD PUSH1 0x60 DUP6 ADD DUP3 PUSH2 0x15F5 JUMP JUMPDEST POP PUSH1 0x80 DUP3 ADD MLOAD PUSH2 0x17C0 PUSH1 0x80 DUP6 ADD DUP3 PUSH2 0x17EC JUMP JUMPDEST POP PUSH1 0xA0 DUP3 ADD MLOAD PUSH2 0x17D3 PUSH1 0xA0 DUP6 ADD DUP3 PUSH2 0x17EC JUMP JUMPDEST POP PUSH1 0xC0 DUP3 ADD MLOAD PUSH2 0x17E6 PUSH1 0xC0 DUP6 ADD DUP3 PUSH2 0x17EC JUMP JUMPDEST POP POP POP POP JUMP JUMPDEST PUSH2 0x17F5 DUP2 PUSH2 0x1CF3 JUMP JUMPDEST DUP3 MSTORE POP POP JUMP JUMPDEST PUSH2 0x1804 DUP2 PUSH2 0x1CF3 JUMP JUMPDEST DUP3 MSTORE POP POP JUMP JUMPDEST PUSH1 0x0 PUSH2 0x1816 DUP3 DUP6 PUSH2 0x165B JUMP JUMPDEST SWAP2 POP PUSH2 0x1821 DUP3 PUSH2 0x16D2 JUMP JUMPDEST SWAP2 POP PUSH2 0x182D DUP3 DUP5 PUSH2 0x165B JUMP JUMPDEST SWAP2 POP DUP2 SWAP1 POP SWAP4 SWAP3 POP POP POP JUMP JUMPDEST PUSH1 0x0 PUSH1 0x20 DUP3 ADD SWAP1 POP PUSH2 0x184E PUSH1 0x0 DUP4 ADD DUP5 PUSH2 0x150C JUMP JUMPDEST SWAP3 SWAP2 POP POP JUMP JUMPDEST PUSH1 0x0 PUSH2 0x100 DUP3 ADD SWAP1 POP PUSH2 0x186A PUSH1 0x0 DUP4 ADD DUP12 PUSH2 0x150C JUMP JUMPDEST PUSH2 0x1877 PUSH1 0x20 DUP4 ADD DUP11 PUSH2 0x17FB JUMP JUMPDEST PUSH2 0x1884 PUSH1 0x40 DUP4 ADD DUP10 PUSH2 0x17FB JUMP JUMPDEST PUSH2 0x1891 PUSH1 0x60 DUP4 ADD DUP9 PUSH2 0x1604 JUMP JUMPDEST PUSH2 0x189E PUSH1 0x80 DUP4 ADD DUP8 PUSH2 0x17FB JUMP JUMPDEST PUSH2 0x18AB PUSH1 0xA0 DUP4 ADD DUP7 PUSH2 0x17FB JUMP JUMPDEST PUSH2 0x18B8 PUSH1 0xC0 DUP4 ADD DUP6 PUSH2 0x17FB JUMP JUMPDEST PUSH2 0x18C5 PUSH1 0xE0 DUP4 ADD DUP5 PUSH2 0x15E6 JUMP JUMPDEST SWAP10 SWAP9 POP POP POP POP POP POP POP POP POP JUMP JUMPDEST PUSH1 0x0 PUSH2 0x100 DUP3 ADD SWAP1 POP PUSH2 0x18E8 PUSH1 0x0 DUP4 ADD DUP12 PUSH2 0x151B JUMP JUMPDEST PUSH2 0x18F5 PUSH1 0x20 DUP4 ADD DUP11 PUSH2 0x17FB JUMP JUMPDEST PUSH2 0x1902 PUSH1 0x40 DUP4 ADD DUP10 PUSH2 0x17FB JUMP JUMPDEST PUSH2 0x190F PUSH1 0x60 DUP4 ADD DUP9 PUSH2 0x1604 JUMP JUMPDEST PUSH2 0x191C PUSH1 0x80 DUP4 ADD DUP8 PUSH2 0x17FB JUMP JUMPDEST PUSH2 0x1929 PUSH1 0xA0 DUP4 ADD DUP7 PUSH2 0x1613 JUMP JUMPDEST PUSH2 0x1936 PUSH1 0xC0 DUP4 ADD DUP6 PUSH2 0x1613 JUMP JUMPDEST PUSH2 0x1943 PUSH1 0xE0 DUP4 ADD DUP5 PUSH2 0x15E6 JUMP JUMPDEST SWAP10 SWAP9 POP POP POP POP POP POP POP POP POP JUMP JUMPDEST PUSH1 0x0 PUSH1 0x20 DUP3 ADD SWAP1 POP DUP2 DUP2 SUB PUSH1 0x0 DUP4 ADD MSTORE PUSH2 0x196A DUP2 DUP5 PUSH2 0x152A JUMP JUMPDEST SWAP1 POP SWAP3 SWAP2 POP POP JUMP JUMPDEST PUSH1 0x0 PUSH1 0x20 DUP3 ADD SWAP1 POP DUP2 DUP2 SUB PUSH1 0x0 DUP4 ADD MSTORE PUSH2 0x198C DUP2 DUP5 PUSH2 0x1588 JUMP JUMPDEST SWAP1 POP SWAP3 SWAP2 POP POP JUMP JUMPDEST PUSH1 0x0 PUSH1 0x20 DUP3 ADD SWAP1 POP PUSH2 0x19A9 PUSH1 0x0 DUP4 ADD DUP5 PUSH2 0x1604 JUMP JUMPDEST SWAP3 SWAP2 POP POP JUMP JUMPDEST PUSH1 0x0 PUSH1 0x20 DUP3 ADD SWAP1 POP DUP2 DUP2 SUB PUSH1 0x0 DUP4 ADD MSTORE PUSH2 0x19C9 DUP2 DUP5 PUSH2 0x1622 JUMP JUMPDEST SWAP1 POP SWAP3 SWAP2 POP POP JUMP JUMPDEST PUSH1 0x0 PUSH1 0x20 DUP3 ADD SWAP1 POP DUP2 DUP2 SUB PUSH1 0x0 DUP4 ADD MSTORE PUSH2 0x19EA DUP2 PUSH2 0x168C JUMP JUMPDEST SWAP1 POP SWAP2 SWAP1 POP JUMP JUMPDEST PUSH1 0x0 PUSH1 0x20 DUP3 ADD SWAP1 POP DUP2 DUP2 SUB PUSH1 0x0 DUP4 ADD MSTORE PUSH2 0x1A0A DUP2 PUSH2 0x16AF JUMP JUMPDEST SWAP1 POP SWAP2 SWAP1 POP JUMP JUMPDEST PUSH1 0x0 PUSH1 0x20 DUP3 ADD SWAP1 POP DUP2 DUP2 SUB PUSH1 0x0 DUP4 ADD MSTORE PUSH2 0x1A2A DUP2 PUSH2 0x16F5 JUMP JUMPDEST SWAP1 POP SWAP2 SWAP1 POP JUMP JUMPDEST PUSH1 0x0 PUSH1 0x20 DUP3 ADD SWAP1 POP DUP2 DUP2 SUB PUSH1 0x0 DUP4 ADD MSTORE PUSH2 0x1A4A DUP2 PUSH2 0x1718 JUMP JUMPDEST SWAP1 POP SWAP2 SWAP1 POP JUMP JUMPDEST PUSH1 0x0 PUSH1 0x20 DUP3 ADD SWAP1 POP DUP2 DUP2 SUB PUSH1 0x0 DUP4 ADD MSTORE PUSH2 0x1A6A DUP2 PUSH2 0x173B JUMP JUMPDEST SWAP1 POP SWAP2 SWAP1 POP JUMP JUMPDEST PUSH1 0x0 PUSH1 0x20 DUP3 ADD SWAP1 POP PUSH2 0x1A86 PUSH1 0x0 DUP4 ADD DUP5 PUSH2 0x17FB JUMP JUMPDEST SWAP3 SWAP2 POP POP JUMP JUMPDEST PUSH1 0x0 PUSH2 0x1A96 PUSH2 0x1AA7 JUMP JUMPDEST SWAP1 POP PUSH2 0x1AA2 DUP3 DUP3 PUSH2 0x1D63 JUMP JUMPDEST SWAP2 SWAP1 POP JUMP JUMPDEST PUSH1 0x0 PUSH1 0x40 MLOAD SWAP1 POP SWAP1 JUMP JUMPDEST PUSH1 0x0 PUSH8 0xFFFFFFFFFFFFFFFF DUP3 GT ISZERO PUSH2 0x1ACC JUMPI PUSH2 0x1ACB PUSH2 0x1ECA JUMP JUMPDEST JUMPDEST PUSH2 0x1AD5 DUP3 PUSH2 0x1F0D JUMP JUMPDEST SWAP1 POP PUSH1 0x20 DUP2 ADD SWAP1 POP SWAP2 SWAP1 POP JUMP JUMPDEST PUSH1 0x0 DUP2 SWAP1 POP PUSH1 0x20 DUP3 ADD SWAP1 POP SWAP2 SWAP1 POP JUMP JUMPDEST PUSH1 0x0 DUP2 SWAP1 POP PUSH1 0x20 DUP3 ADD SWAP1 POP SWAP2 SWAP1 POP JUMP JUMPDEST PUSH1 0x0 DUP2 MLOAD SWAP1 POP SWAP2 SWAP1 POP JUMP JUMPDEST PUSH1 0x0 DUP2 MLOAD SWAP1 POP SWAP2 SWAP1 POP JUMP JUMPDEST PUSH1 0x0 DUP2 MLOAD SWAP1 POP SWAP2 SWAP1 POP JUMP JUMPDEST PUSH1 0x0 PUSH1 0x20 DUP3 ADD SWAP1 POP SWAP2 SWAP1 POP JUMP JUMPDEST PUSH1 0x0 PUSH1 0x20 DUP3 ADD SWAP1 POP SWAP2 SWAP1 POP JUMP JUMPDEST PUSH1 0x0 DUP3 DUP3 MSTORE PUSH1 0x20 DUP3 ADD SWAP1 POP SWAP3 SWAP2 POP POP JUMP JUMPDEST PUSH1 0x0 DUP3 DUP3 MSTORE PUSH1 0x20 DUP3 ADD SWAP1 POP SWAP3 SWAP2 POP POP JUMP JUMPDEST PUSH1 0x0 DUP3 DUP3 MSTORE PUSH1 0x20 DUP3 ADD SWAP1 POP SWAP3 SWAP2 POP POP JUMP JUMPDEST PUSH1 0x0 DUP2 SWAP1 POP SWAP3 SWAP2 POP POP JUMP JUMPDEST PUSH1 0x0 PUSH2 0x1B86 DUP3 PUSH2 0x1CF3 JUMP JUMPDEST SWAP2 POP PUSH2 0x1B91 DUP4 PUSH2 0x1CF3 JUMP JUMPDEST SWAP3 POP DUP3 PUSH32 0xFFFFFFFFFFFFFFFFFFFFFFFFFFFFFFFFFFFFFFFFFFFFFFFFFFFFFFFFFFFFFFFF SUB DUP3 GT ISZERO PUSH2 0x1BC6 JUMPI PUSH2 0x1BC5 PUSH2 0x1E0E JUMP JUMPDEST JUMPDEST DUP3 DUP3 ADD SWAP1 POP SWAP3 SWAP2 POP POP JUMP JUMPDEST PUSH1 0x0 PUSH2 0x1BDC DUP3 PUSH2 0x1CF3 JUMP JUMPDEST SWAP2 POP PUSH2 0x1BE7 DUP4 PUSH2 0x1CF3 JUMP JUMPDEST SWAP3 POP DUP3 PUSH2 0x1BF7 JUMPI PUSH2 0x1BF6 PUSH2 0x1E3D JUMP JUMPDEST JUMPDEST DUP3 DUP3 DIV SWAP1 POP SWAP3 SWAP2 POP POP JUMP JUMPDEST PUSH1 0x0 PUSH2 0x1C0D DUP3 PUSH2 0x1CF3 JUMP JUMPDEST SWAP2 POP PUSH2 0x1C18 DUP4 PUSH2 0x1CF3 JUMP JUMPDEST SWAP3 POP DUP2 PUSH32 0xFFFFFFFFFFFFFFFFFFFFFFFFFFFFFFFFFFFFFFFFFFFFFFFFFFFFFFFFFFFFFFFF DIV DUP4 GT DUP3 ISZERO ISZERO AND ISZERO PUSH2 0x1C51 JUMPI PUSH2 0x1C50 PUSH2 0x1E0E JUMP JUMPDEST JUMPDEST DUP3 DUP3 MUL SWAP1 POP SWAP3 SWAP2 POP POP JUMP JUMPDEST PUSH1 0x0 PUSH2 0x1C67 DUP3 PUSH2 0x1CF3 JUMP JUMPDEST SWAP2 POP PUSH2 0x1C72 DUP4 PUSH2 0x1CF3 JUMP JUMPDEST SWAP3 POP DUP3 DUP3 LT ISZERO PUSH2 0x1C85 JUMPI PUSH2 0x1C84 PUSH2 0x1E0E JUMP JUMPDEST JUMPDEST DUP3 DUP3 SUB SWAP1 POP SWAP3 SWAP2 POP POP JUMP JUMPDEST PUSH1 0x0 PUSH2 0x1C9B DUP3 PUSH2 0x1CD3 JUMP JUMPDEST SWAP1 POP SWAP2 SWAP1 POP JUMP JUMPDEST PUSH1 0x0 PUSH2 0x1CAD DUP3 PUSH2 0x1CD3 JUMP JUMPDEST SWAP1 POP SWAP2 SWAP1 POP JUMP JUMPDEST PUSH1 0x0 DUP2 ISZERO ISZERO SWAP1 POP SWAP2 SWAP1 POP JUMP JUMPDEST PUSH1 0x0 DUP2 SWAP1 POP PUSH2 0x1CCE DUP3 PUSH2 0x2014 JUMP JUMPDEST SWAP2 SWAP1 POP JUMP JUMPDEST PUSH1 0x0 PUSH20 0xFFFFFFFFFFFFFFFFFFFFFFFFFFFFFFFFFFFFFFFF DUP3 AND SWAP1 POP SWAP2 SWAP1 POP JUMP JUMPDEST PUSH1 0x0 DUP2 SWAP1 POP SWAP2 SWAP1 POP JUMP JUMPDEST PUSH1 0x0 PUSH2 0x1D08 DUP3 PUSH2 0x1CC0 JUMP JUMPDEST SWAP1 POP SWAP2 SWAP1 POP JUMP JUMPDEST PUSH1 0x0 PUSH2 0x1D1A DUP3 PUSH2 0x1CF3 JUMP JUMPDEST SWAP1 POP SWAP2 SWAP1 POP JUMP JUMPDEST DUP3 DUP2 DUP4 CALLDATACOPY PUSH1 0x0 DUP4 DUP4 ADD MSTORE POP POP POP JUMP JUMPDEST PUSH1 0x0 JUMPDEST DUP4 DUP2 LT ISZERO PUSH2 0x1D4E JUMPI DUP1 DUP3 ADD MLOAD DUP2 DUP5 ADD MSTORE PUSH1 0x20 DUP2 ADD SWAP1 POP PUSH2 0x1D33 JUMP JUMPDEST DUP4 DUP2 GT ISZERO PUSH2 0x1D5D JUMPI PUSH1 0x0 DUP5 DUP5 ADD MSTORE JUMPDEST POP POP POP POP JUMP JUMPDEST PUSH2 0x1D6C DUP3 PUSH2 0x1F0D JUMP JUMPDEST DUP2 ADD DUP2 DUP2 LT PUSH8 0xFFFFFFFFFFFFFFFF DUP3 GT OR ISZERO PUSH2 0x1D8B JUMPI PUSH2 0x1D8A PUSH2 0x1ECA JUMP JUMPDEST JUMPDEST DUP1 PUSH1 0x40 MSTORE POP POP POP JUMP JUMPDEST PUSH1 0x0 PUSH2 0x1D9F DUP3 PUSH2 0x1CF3 JUMP JUMPDEST SWAP2 POP PUSH32 0xFFFFFFFFFFFFFFFFFFFFFFFFFFFFFFFFFFFFFFFFFFFFFFFFFFFFFFFFFFFFFFFF DUP3 EQ ISZERO PUSH2 0x1DD2 JUMPI PUSH2 0x1DD1 PUSH2 0x1E0E JUMP JUMPDEST JUMPDEST PUSH1 0x1 DUP3 ADD SWAP1 POP SWAP2 SWAP1 POP JUMP JUMPDEST PUSH1 0x0 PUSH2 0x1DE8 DUP3 PUSH2 0x1CF3 JUMP JUMPDEST SWAP2 POP PUSH2 0x1DF3 DUP4 PUSH2 0x1CF3 JUMP JUMPDEST SWAP3 POP DUP3 PUSH2 0x1E03 JUMPI PUSH2 0x1E02 PUSH2 0x1E3D JUMP JUMPDEST JUMPDEST DUP3 DUP3 MOD SWAP1 POP SWAP3 SWAP2 POP POP JUMP JUMPDEST PUSH32 0x4E487B7100000000000000000000000000000000000000000000000000000000 PUSH1 0x0 MSTORE PUSH1 0x11 PUSH1 0x4 MSTORE PUSH1 0x24 PUSH1 0x0 REVERT JUMPDEST PUSH32 0x4E487B7100000000000000000000000000000000000000000000000000000000 PUSH1 0x0 MSTORE PUSH1 0x12 PUSH1 0x4 MSTORE PUSH1 0x24 PUSH1 0x0 REVERT JUMPDEST PUSH32 0x4E487B7100000000000000000000000000000000000000000000000000000000 PUSH1 0x0 MSTORE PUSH1 0x21 PUSH1 0x4 MSTORE PUSH1 0x24 PUSH1 0x0 REVERT JUMPDEST PUSH32 0x4E487B7100000000000000000000000000000000000000000000000000000000 PUSH1 0x0 MSTORE PUSH1 0x32 PUSH1 0x4 MSTORE PUSH1 0x24 PUSH1 0x0 REVERT JUMPDEST PUSH32 0x4E487B7100000000000000000000000000000000000000000000000000000000 PUSH1 0x0 MSTORE PUSH1 0x41 PUSH1 0x4 MSTORE PUSH1 0x24 PUSH1 0x0 REVERT JUMPDEST PUSH1 0x0 DUP1 REVERT JUMPDEST PUSH1 0x0 DUP1 REVERT JUMPDEST PUSH1 0x0 DUP1 REVERT JUMPDEST PUSH1 0x0 DUP1 REVERT JUMPDEST PUSH1 0x0 PUSH1 0x1F NOT PUSH1 0x1F DUP4 ADD AND SWAP1 POP SWAP2 SWAP1 POP JUMP JUMPDEST PUSH32 0x4E6F7420417574686F7269736564000000000000000000000000000000000000 PUSH1 0x0 DUP3 ADD MSTORE POP JUMP JUMPDEST PUSH32 0x4F726465722050656E64696E6700000000000000000000000000000000000000 PUSH1 0x0 DUP3 ADD MSTORE POP JUMP JUMPDEST PUSH32 0x2000000000000000000000000000000000000000000000000000000000000000 PUSH1 0x0 DUP3 ADD MSTORE POP JUMP JUMPDEST PUSH32 0x4E6F7420656E6F75676820626C616E636520746F20706C616365206269640000 PUSH1 0x0 DUP3 ADD MSTORE POP JUMP JUMPDEST PUSH32 0x70726963652076616C7565206D757374206265206D6F7265207468616E203000 PUSH1 0x0 DUP3 ADD MSTORE POP JUMP JUMPDEST PUSH32 0x4E6F7420656E6F75676820626C616E636520746F20706C6163652061736B0000 PUSH1 0x0 DUP3 ADD MSTORE POP JUMP JUMPDEST PUSH1 0x2 DUP2 LT PUSH2 0x2025 JUMPI PUSH2 0x2024 PUSH2 0x1E6C JUMP JUMPDEST JUMPDEST POP JUMP JUMPDEST PUSH2 0x2031 DUP2 PUSH2 0x1CF3 JUMP JUMPDEST DUP2 EQ PUSH2 0x203C JUMPI PUSH1 0x0 DUP1 REVERT JUMPDEST POP JUMP INVALID LOG2 PUSH5 0x6970667358 0x22 SLT KECCAK256 LOG2 NOT 0x2E 0x4A PUSH28 0x9F84A6FB00B71DEB63665EFBA8A58F8AF98F55B45D2B423D49B32264 PUSH20 0x6F6C634300080700330000000000000000000000 "
				},
				"gasEstimates": {
					"creation": {
						"codeDepositCost": "1661800",
						"executionCost": "infinite",
						"totalCost": "infinite"
					},
					"external": {
						"askCount()": "2540",
						"askHead()": "2474",
						"bidCount()": "2451",
						"bidHead()": "2518",
						"cancelAsk(uint256)": "31089",
						"cancelBid(uint256)": "31110",
						"concatenate(string,string)": "infinite",
						"fetchAllBid()": "infinite",
						"fetchAsk()": "infinite",
						"fetchYourAskIds()": "infinite",
						"fetchYourBidIds()": "infinite",
						"getAskAddress(uint256)": "3004",
						"getAskNext(uint256)": "infinite",
						"getAskPrev(uint256)": "infinite",
						"getAskState(uint256)": "2962",
						"getAskValue(uint256)": "infinite",
						"getBidAddress(uint256)": "2938",
						"getBidState(uint256)": "2961",
						"getBidValue(uint256)": "infinite",
						"getOrder(uint256)": "infinite",
						"placeAsk(uint256)": "infinite",
						"placeBid(uint256)": "809"
					},
					"internal": {
						"askBid(uint256,uint256)": "infinite",
						"createAsk(address,uint256,uint256)": "infinite",
						"createBid(address,uint256,uint256)": "infinite",
						"insertionSortAsk()": "infinite",
						"linkBid(uint256,uint256)": "infinite",
						"setAskHead(uint256)": "infinite",
						"setBidHead(uint256)": "infinite",
						"sortAsk(struct OrderBook.order memory)": "infinite"
					}
				},
				"methodIdentifiers": {
					"askCount()": "a394fda7",
					"askHead()": "801d9bbd",
					"bidCount()": "b40a5627",
					"bidHead()": "6e5b0f00",
					"cancelAsk(uint256)": "1628e0f5",
					"cancelBid(uint256)": "9703ef35",
					"concatenate(string,string)": "266001d3",
					"fetchAllBid()": "4471417f",
					"fetchAsk()": "44e791e0",
					"fetchYourAskIds()": "122de8f2",
					"fetchYourBidIds()": "ce0cdc87",
					"getAskAddress(uint256)": "734a2e78",
					"getAskNext(uint256)": "733672f4",
					"getAskPrev(uint256)": "d05c28cb",
					"getAskState(uint256)": "4d46712d",
					"getAskValue(uint256)": "db3a1396",
					"getBidAddress(uint256)": "69f632e2",
					"getBidState(uint256)": "bf77ffae",
					"getBidValue(uint256)": "2db6dfa7",
					"getOrder(uint256)": "d09ef241",
					"placeAsk(uint256)": "78c5b268",
					"placeBid(uint256)": "9979ef45"
				}
			},
			"storageLayout": {
				"storage": [
					{
						"astId": 9,
						"contract": "contracts/OrderBook.sol:OrderBook",
						"label": "bidValues",
						"offset": 0,
						"slot": "0",
						"type": "t_mapping(t_uint256,t_uint256)"
					},
					{
						"astId": 16,
						"contract": "contracts/OrderBook.sol:OrderBook",
						"label": "_owner",
						"offset": 0,
						"slot": "1",
						"type": "t_address_payable"
					},
					{
						"astId": 18,
						"contract": "contracts/OrderBook.sol:OrderBook",
						"label": "commission",
						"offset": 0,
						"slot": "2",
						"type": "t_uint256"
					},
					{
						"astId": 39,
						"contract": "contracts/OrderBook.sol:OrderBook",
						"label": "bidBook",
						"offset": 0,
						"slot": "3",
						"type": "t_mapping(t_uint256,t_struct(order)34_storage)"
					},
					{
						"astId": 41,
						"contract": "contracts/OrderBook.sol:OrderBook",
						"label": "bidHead",
						"offset": 0,
						"slot": "4",
						"type": "t_uint256"
					},
					{
						"astId": 43,
						"contract": "contracts/OrderBook.sol:OrderBook",
						"label": "bidCount",
						"offset": 0,
						"slot": "5",
						"type": "t_uint256"
					},
					{
						"astId": 48,
						"contract": "contracts/OrderBook.sol:OrderBook",
						"label": "askBook",
						"offset": 0,
						"slot": "6",
						"type": "t_mapping(t_uint256,t_struct(order)34_storage)"
					},
					{
						"astId": 50,
						"contract": "contracts/OrderBook.sol:OrderBook",
						"label": "askHead",
						"offset": 0,
						"slot": "7",
						"type": "t_uint256"
					},
					{
						"astId": 52,
						"contract": "contracts/OrderBook.sol:OrderBook",
						"label": "askCount",
						"offset": 0,
						"slot": "8",
						"type": "t_uint256"
					}
				],
				"types": {
					"t_address_payable": {
						"encoding": "inplace",
						"label": "address payable",
						"numberOfBytes": "20"
					},
					"t_enum(State)5": {
						"encoding": "inplace",
						"label": "enum OrderBook.State",
						"numberOfBytes": "1"
					},
					"t_mapping(t_uint256,t_struct(order)34_storage)": {
						"encoding": "mapping",
						"key": "t_uint256",
						"label": "mapping(uint256 => struct OrderBook.order)",
						"numberOfBytes": "32",
						"value": "t_struct(order)34_storage"
					},
					"t_mapping(t_uint256,t_uint256)": {
						"encoding": "mapping",
						"key": "t_uint256",
						"label": "mapping(uint256 => uint256)",
						"numberOfBytes": "32",
						"value": "t_uint256"
					},
					"t_struct(order)34_storage": {
						"encoding": "inplace",
						"label": "struct OrderBook.order",
						"members": [
							{
								"astId": 20,
								"contract": "contracts/OrderBook.sol:OrderBook",
								"label": "customer",
								"offset": 0,
								"slot": "0",
								"type": "t_address_payable"
							},
							{
								"astId": 22,
								"contract": "contracts/OrderBook.sol:OrderBook",
								"label": "value",
								"offset": 0,
								"slot": "1",
								"type": "t_uint256"
							},
							{
								"astId": 24,
								"contract": "contracts/OrderBook.sol:OrderBook",
								"label": "timestamp",
								"offset": 0,
								"slot": "2",
								"type": "t_uint256"
							},
							{
								"astId": 27,
								"contract": "contracts/OrderBook.sol:OrderBook",
								"label": "state",
								"offset": 0,
								"slot": "3",
								"type": "t_enum(State)5"
							},
							{
								"astId": 29,
								"contract": "contracts/OrderBook.sol:OrderBook",
								"label": "id",
								"offset": 0,
								"slot": "4",
								"type": "t_uint256"
							},
							{
								"astId": 31,
								"contract": "contracts/OrderBook.sol:OrderBook",
								"label": "next",
								"offset": 0,
								"slot": "5",
								"type": "t_uint256"
							},
							{
								"astId": 33,
								"contract": "contracts/OrderBook.sol:OrderBook",
								"label": "prev",
								"offset": 0,
								"slot": "6",
								"type": "t_uint256"
							}
						],
						"numberOfBytes": "224"
					},
					"t_uint256": {
						"encoding": "inplace",
						"label": "uint256",
						"numberOfBytes": "32"
					}
				}
			},
			"userdoc": {
				"kind": "user",
				"methods": {},
				"version": 1
			}
		}
	}
}